{
  "_format": "hh-sol-artifact-1",
  "contractName": "BulkMinter",
  "sourceName": "contracts/tokens/BulkMinter.sol",
  "abi": [
    {
      "inputs": [
        {
          "internalType": "address",
          "name": "initialOwner",
          "type": "address"
        }
      ],
      "stateMutability": "nonpayable",
      "type": "constructor"
    },
    {
      "inputs": [
        {
          "internalType": "address",
          "name": "owner",
          "type": "address"
        }
      ],
      "name": "OwnableInvalidOwner",
      "type": "error"
    },
    {
      "inputs": [
        {
          "internalType": "address",
          "name": "account",
          "type": "address"
        }
      ],
      "name": "OwnableUnauthorizedAccount",
      "type": "error"
    },
    {
      "anonymous": false,
      "inputs": [
        {
          "indexed": true,
          "internalType": "address",
          "name": "previousOwner",
          "type": "address"
        },
        {
          "indexed": true,
          "internalType": "address",
          "name": "newOwner",
          "type": "address"
        }
      ],
      "name": "OwnershipTransferred",
      "type": "event"
    },
    {
      "inputs": [
        {
          "internalType": "address",
          "name": "token",
          "type": "address"
        }
      ],
      "name": "addToken",
      "outputs": [],
      "stateMutability": "nonpayable",
      "type": "function"
    },
    {
      "inputs": [],
      "name": "getTokenCount",
      "outputs": [
        {
          "internalType": "uint256",
          "name": "",
          "type": "uint256"
        }
      ],
      "stateMutability": "view",
      "type": "function"
    },
    {
      "inputs": [
        {
          "internalType": "uint256[]",
          "name": "amounts",
          "type": "uint256[]"
        }
      ],
      "name": "mintAll",
      "outputs": [],
      "stateMutability": "nonpayable",
      "type": "function"
    },
    {
      "inputs": [],
      "name": "owner",
      "outputs": [
        {
          "internalType": "address",
          "name": "",
          "type": "address"
        }
      ],
      "stateMutability": "view",
      "type": "function"
    },
    {
      "inputs": [],
      "name": "renounceOwnership",
      "outputs": [],
      "stateMutability": "nonpayable",
      "type": "function"
    },
    {
      "inputs": [
        {
          "internalType": "uint256",
          "name": "",
          "type": "uint256"
        }
      ],
      "name": "tokens",
      "outputs": [
        {
          "internalType": "contract MockTokenCreator",
          "name": "",
          "type": "address"
        }
      ],
      "stateMutability": "view",
      "type": "function"
    },
    {
      "inputs": [
        {
          "internalType": "address",
          "name": "newOwner",
          "type": "address"
        }
      ],
      "name": "transferOwnership",
      "outputs": [],
      "stateMutability": "nonpayable",
      "type": "function"
    }
  ],
  "bytecode": "0x60806040523462000030576200001e62000018620000d3565b620000f6565b60405161079262000265823961079290f35b600080fd5b634e487b7160e01b600052604160045260246000fd5b90601f01601f191681019081106001600160401b038211176200006d57604052565b62000035565b906200008a6200008260405190565b92836200004b565b565b6001600160a01b031690565b90565b6001600160a01b038116036200003057565b905051906200008a826200009b565b9060208282031262000030576200009891620000ad565b62000098620009f780380380620000ea8162000073565b928339810190620000bc565b6200008a906200012f565b6200008c62000098620000989290565b620000989062000101565b6001600160a01b03909116815260200190565b6200013b600062000111565b6001600160a01b0381166001600160a01b038316146200016157506200008a9062000202565b62000187906200017060405190565b631e4fbdf760e01b8152918291600483016200011c565b0390fd5b62000098906200008c565b6200009890546200018b565b62000098906200008c906001600160a01b031682565b6200009890620001a2565b6200009890620001b8565b90620001e262000098620001fe92620001c3565b82546001600160a01b0319166001600160a01b03919091161790565b9055565b6200020e600062000196565b906200021c816000620001ce565b620002536200024c7f8be0079c531659141344cd1fd0a4f28419497f9722a3daafe3b4186f6b6457e093620001c3565b91620001c3565b916200025e60405190565b600090a356fe6080604052600436101561001257600080fd5b60003560e01c80634f64b2be14610082578063715018a61461007d57806378a895671461007857806385e5d7ee146100735780638da5cb5b1461006e578063d48bfca7146100695763f2fde38b03610090576102fa565b6102e2565b610291565b61025f565b6101d9565b6101bc565b610186565b805b0361009057565b600080fd5b905035906100a282610087565b565b90602082820312610090576100b891610095565b90565b634e487b7160e01b600052603260045260246000fd5b80548210156100f4576100eb600191600052602060002090565b91020190600090565b6100bb565b6100b8916008021c5b6001600160a01b031690565b906100b891546100f9565b60016000610125825490565b83101561014057506100b89161013a916100d1565b9061010e565b80fd5b6100b890610102906001600160a01b031682565b6100b890610143565b6100b890610157565b61017290610160565b9052565b6020810192916100a29190610169565b34610090576101ad6101a161019c3660046100a4565b610119565b60405191829182610176565b0390f35b600091031261009057565b34610090576101cc3660046101b1565b6101d4610367565b604051005b34610090576101e93660046101b1565b6101ad6101f560015490565b6040519182918290815260200190565b909182601f830112156100905781359167ffffffffffffffff831161009057602001926020830284011161009057565b9060208282031261009057813567ffffffffffffffff81116100905761025b9201610205565b9091565b34610090576101d4610272366004610235565b90610656565b61017290610102565b6020810192916100a29190610278565b34610090576102a13660046101b1565b6101ad6102ac610325565b60405191829182610281565b61008981610102565b905035906100a2826102b8565b90602082820312610090576100b8916102c1565b34610090576101d46102f53660046102ce565b610546565b34610090576101d461030d3660046102ce565b610414565b6100b890610102565b6100b89054610312565b6100b8600061031b565b61033761036f565b6100a2610355565b6101026100b86100b89290565b6100b89061033f565b6100a2610362600061034c565b61044d565b6100a261032f565b610377610325565b339061038b61038583610102565b91610102565b036103935750565b6103b6906103a060405190565b63118cdaa760e01b815291829160048301610281565b0390fd5b6100a2906103c661036f565b6103d0600061034c565b6103d981610102565b6103e283610102565b146103f157506100a29061044d565b6103b6906103fe60405190565b631e4fbdf760e01b815291829160048301610281565b6100a2906103ba565b906001600160a01b03905b9181191691161790565b906104426100b861044992610160565b825461041d565b9055565b610457600061031b565b90610463816000610432565b6104966104907f8be0079c531659141344cd1fd0a4f28419497f9722a3daafe3b4186f6b6457e093610160565b91610160565b916104a060405190565b600090a3565b6100a2906104b261036f565b610532565b634e487b7160e01b600052604160045260246000fd5b916001600160a01b0360089290920291821b911b610428565b91906104f76100b861044993610160565b9083546104cd565b908154916801000000000000000083101561052d57826105279160016100a2950181556100d1565b906104e6565b6104b7565b6100a2906105406001610490565b906104ff565b6100a2906104a6565b1561055657565b60405162461bcd60e51b815260206004820152603460248201527f416d6f756e7473206172726179206c656e677468206d757374206d61746368206044820152733a37b5b2b7399030b93930bc903632b733ba341760611b6064820152608490fd5b6100b86100b86100b89290565b634e487b7160e01b600052601160045260246000fd5b60001981146105ea5760010190565b6105c5565b91908110156100f4576020020190565b356100b881610087565b90601f01601f1916810190811067ffffffffffffffff82111761052d57604052565b9160206100a292949361064660408201966000830190610278565b0152565b6040513d6000823e3d90fd5b908061067660019261067061066c6100b8865490565b9190565b1461054f565b60009082610683836105b8565b905b610691575b5050505050565b61069c6100b8855490565b811015610757576106b86106b361013a83876100d1565b610160565b906340c10f19336106d26106cd84878b6105ef565b6105ff565b93803b15610090576106f98780946107046106ec60405190565b9889968795869460e01b90565b84526004840161062b565b03925af190811561075257859261072092610726575b506105db565b90610685565b61074590863d881161074b575b61073d8183610609565b8101906101b1565b3861071a565b503d610733565b61064a565b61068a56fea2646970667358221220b105d520198f8ee3c82f7f33667dbe72a49fb4e713a293058cb44e3fd4eac6fe64736f6c63430008140033",
  "linkReferences": {},
  "deployedLinkReferences": {}
}