{
  "_format": "hh-sol-artifact-1",
  "contractName": "FeeManager",
  "sourceName": "contracts/lib/EmissionManager.sol",
  "abi": [
    {
      "inputs": [
        {
          "internalType": "uint256",
          "name": "initialtuliaPoolFeeRate",
          "type": "uint256"
        },
        {
          "internalType": "uint256",
          "name": "initialflashPoolFeeRate",
          "type": "uint256"
        }
      ],
      "stateMutability": "nonpayable",
      "type": "constructor"
    },
    {
      "anonymous": false,
      "inputs": [
        {
          "indexed": false,
          "internalType": "uint256",
          "name": "newFeeRate",
          "type": "uint256"
        }
      ],
      "name": "flashPoolFeeRateUpdated",
      "type": "event"
    },
    {
      "anonymous": false,
      "inputs": [
        {
          "indexed": false,
          "internalType": "uint256",
          "name": "newFeeRate",
          "type": "uint256"
        }
      ],
      "name": "tuliaPoolFeeRateUpdated",
      "type": "event"
    },
    {
      "inputs": [],
      "name": "MAX_FEE_RATE",
      "outputs": [
        {
          "internalType": "uint256",
          "name": "",
          "type": "uint256"
        }
      ],
      "stateMutability": "view",
      "type": "function"
    },
    {
      "inputs": [],
      "name": "flashPoolFeeRate",
      "outputs": [
        {
          "internalType": "uint256",
          "name": "",
          "type": "uint256"
        }
      ],
      "stateMutability": "view",
      "type": "function"
    },
    {
      "inputs": [],
      "name": "getflashPoolFeeRate",
      "outputs": [
        {
          "internalType": "uint256",
          "name": "",
          "type": "uint256"
        }
      ],
      "stateMutability": "view",
      "type": "function"
    },
    {
      "inputs": [],
      "name": "gettuliaPoolFeeRate",
      "outputs": [
        {
          "internalType": "uint256",
          "name": "",
          "type": "uint256"
        }
      ],
      "stateMutability": "view",
      "type": "function"
    },
    {
      "inputs": [
        {
          "internalType": "uint256",
          "name": "newFeeRate",
          "type": "uint256"
        }
      ],
      "name": "setflashPoolFeeRate",
      "outputs": [],
      "stateMutability": "nonpayable",
      "type": "function"
    },
    {
      "inputs": [
        {
          "internalType": "uint256",
          "name": "newFeeRate",
          "type": "uint256"
        }
      ],
      "name": "settuliaPoolFeeRate",
      "outputs": [],
      "stateMutability": "nonpayable",
      "type": "function"
    },
    {
      "inputs": [],
      "name": "tuliaPoolFeeRate",
      "outputs": [
        {
          "internalType": "uint256",
          "name": "",
          "type": "uint256"
        }
      ],
      "stateMutability": "view",
      "type": "function"
    }
  ],
  "bytecode": "0x60806040523461002b5761001a61001461009d565b906101a1565b6040516103a26101da82396103a290f35b600080fd5b634e487b7160e01b600052604160045260246000fd5b90601f01601f191681019081106001600160401b0382111761006757604052565b610030565b9061008061007960405190565b9283610046565b565b919060408382031261002b5750815160209092015190565b90565b6100bb61057c803803806100b08161006c565b928339810190610082565b9091565b61009a61009a61009a9290565b61009a6101f46100bf565b156100de57565b60405162461bcd60e51b815260206004820152602660248201527f496e697469616c2074756c6961506f6f6c20666565207261746520697320746f6044820152650de40d0d2ced60d31b6064820152608490fd5b1561013957565b60405162461bcd60e51b815260206004820152602660248201527f496e697469616c20666c617368506f6f6c20666565207261746520697320746f6044820152650de40d0d2ced60d31b6064820152608490fd5b9061009a61009a61019d926100bf565b9055565b906101d2610080926101cb6101c36101b76100cc565b61009a818511156100d7565b841115610132565b600061018d565b600161018d56fe6080604052600436101561001257600080fd5b60003560e01c806301b3e0a414610082578063053e755b1461007d578063203f31491461007857806324d8af8d1461007357806326d03cd91461006e578063369058bb14610069576392f6576e03610092576101ad565b610175565b61015a565b61013d565b610112565b6100ec565b6100bc565b600091031261009257565b600080fd5b6100a2916008021c81565b90565b906100a29154610097565b6100a2600060016100a5565b34610092576100cc366004610087565b6100e86100d76100b0565b6040515b9182918290815260200190565b0390f35b34610092576100fc366004610087565b6100e86100d76102b1565b6100a26000806100a5565b3461009257610122366004610087565b6100e86100d7610107565b9060208282031261009257503590565b346100925761015561015036600461012d565b61025d565b604051005b346100925761016a366004610087565b6100e86100d76101d9565b346100925761015561018836600461012d565b61031d565b6100a26100a26100a29290565b6100a26101f461018d565b6100a261019a565b34610092576101bd366004610087565b6100e86100d76101a5565b6100a29081565b6100a290546101c8565b6100a260006101cf565b60208082526022908201527f4e65772074756c6961506f6f6c20666565207261746520697320746f6f2068696040820152610ced60f31b606082015260800190565b1561022c57565b60405162461bcd60e51b815280610245600482016101e3565b0390fd5b906100a26100a26102599261018d565b9055565b61027361026b6100a261019a565b821115610225565b61027e816000610249565b6102ac7f7319226f48bdce05a3e89ab188c3a70245772b46d6ffedcb9d05b6786bfaa8fc916100db60405190565b0390a1565b6100a260016101cf565b60208082526022908201527f4e657720666c617368506f6f6c20666565207261746520697320746f6f2068696040820152610ced60f31b606082015260800190565b1561030457565b60405162461bcd60e51b815280610245600482016102bb565b61033361032b6100a261019a565b8211156102fd565b61033e816001610249565b6102ac7f93785b15ebbc916d52986b4f3f53b719a4895974f421918b77407c81cd9dfbc8916100db6040519056fea26469706673582212207d738958bf16583a39b5314f13d870d95616665e616e19ff61366db5378c745764736f6c63430008140033",
  "linkReferences": {},
  "deployedLinkReferences": {}
}