{
  "_format": "hh-sol-artifact-1",
  "contractName": "FlashPoolRewardManager",
  "sourceName": "contracts/lib/FlashPoolRewardManager.sol",
  "abi": [
    {
      "inputs": [
        {
          "internalType": "address",
          "name": "_apyManager",
          "type": "address"
        }
      ],
      "stateMutability": "nonpayable",
      "type": "constructor"
    },
    {
      "inputs": [],
      "name": "ReentrancyGuardReentrantCall",
      "type": "error"
    },
    {
      "anonymous": false,
      "inputs": [
        {
          "indexed": true,
          "internalType": "address",
          "name": "pool",
          "type": "address"
        }
      ],
      "name": "PoolDeregistered",
      "type": "event"
    },
    {
      "anonymous": false,
      "inputs": [
        {
          "indexed": true,
          "internalType": "address",
          "name": "pool",
          "type": "address"
        }
      ],
      "name": "PoolRegistered",
      "type": "event"
    },
    {
      "anonymous": false,
      "inputs": [
        {
          "indexed": true,
          "internalType": "address",
          "name": "pool",
          "type": "address"
        },
        {
          "indexed": false,
          "internalType": "uint256",
          "name": "reward",
          "type": "uint256"
        }
      ],
      "name": "RewardAccrued",
      "type": "event"
    },
    {
      "anonymous": false,
      "inputs": [
        {
          "indexed": true,
          "internalType": "address",
          "name": "pool",
          "type": "address"
        },
        {
          "indexed": false,
          "internalType": "address",
          "name": "claimant",
          "type": "address"
        },
        {
          "indexed": false,
          "internalType": "uint256",
          "name": "reward",
          "type": "uint256"
        }
      ],
      "name": "RewardClaimed",
      "type": "event"
    },
    {
      "inputs": [
        {
          "internalType": "address",
          "name": "pool",
          "type": "address"
        }
      ],
      "name": "accrueRewards",
      "outputs": [],
      "stateMutability": "nonpayable",
      "type": "function"
    },
    {
      "inputs": [],
      "name": "apyManager",
      "outputs": [
        {
          "internalType": "contract IAdvancedAPYManager",
          "name": "",
          "type": "address"
        }
      ],
      "stateMutability": "view",
      "type": "function"
    },
    {
      "inputs": [
        {
          "internalType": "address",
          "name": "pool",
          "type": "address"
        }
      ],
      "name": "calculateClaimableInterest",
      "outputs": [
        {
          "internalType": "uint256",
          "name": "",
          "type": "uint256"
        }
      ],
      "stateMutability": "view",
      "type": "function"
    },
    {
      "inputs": [
        {
          "internalType": "address",
          "name": "pool",
          "type": "address"
        }
      ],
      "name": "claimRewards",
      "outputs": [],
      "stateMutability": "nonpayable",
      "type": "function"
    },
    {
      "inputs": [
        {
          "internalType": "address",
          "name": "pool",
          "type": "address"
        }
      ],
      "name": "deregisterPool",
      "outputs": [],
      "stateMutability": "nonpayable",
      "type": "function"
    },
    {
      "inputs": [
        {
          "internalType": "address",
          "name": "pool",
          "type": "address"
        }
      ],
      "name": "getRewardDetails",
      "outputs": [
        {
          "internalType": "address",
          "name": "rewardToken",
          "type": "address"
        },
        {
          "internalType": "uint256",
          "name": "rewardsAccrued",
          "type": "uint256"
        },
        {
          "internalType": "uint256",
          "name": "lastRewardBlock",
          "type": "uint256"
        },
        {
          "internalType": "uint256",
          "name": "rewardRate",
          "type": "uint256"
        },
        {
          "internalType": "uint256",
          "name": "lenderClaimedRewards",
          "type": "uint256"
        },
        {
          "internalType": "bool",
          "name": "isAccruing",
          "type": "bool"
        }
      ],
      "stateMutability": "view",
      "type": "function"
    },
    {
      "inputs": [
        {
          "internalType": "address",
          "name": "pool",
          "type": "address"
        },
        {
          "internalType": "address",
          "name": "rewardToken",
          "type": "address"
        },
        {
          "internalType": "uint256",
          "name": "loanAmount",
          "type": "uint256"
        }
      ],
      "name": "registerPool",
      "outputs": [
        {
          "internalType": "bool",
          "name": "",
          "type": "bool"
        }
      ],
      "stateMutability": "nonpayable",
      "type": "function"
    },
    {
      "inputs": [
        {
          "internalType": "address",
          "name": "",
          "type": "address"
        }
      ],
      "name": "rewardDetails",
      "outputs": [
        {
          "internalType": "contract IERC20",
          "name": "rewardToken",
          "type": "address"
        },
        {
          "internalType": "uint256",
          "name": "rewardsAccrued",
          "type": "uint256"
        },
        {
          "internalType": "uint256",
          "name": "lastRewardBlock",
          "type": "uint256"
        },
        {
          "internalType": "uint256",
          "name": "rewardRate",
          "type": "uint256"
        },
        {
          "internalType": "uint256",
          "name": "lenderClaimedRewards",
          "type": "uint256"
        },
        {
          "internalType": "bool",
          "name": "isAccruing",
          "type": "bool"
        }
      ],
      "stateMutability": "view",
      "type": "function"
    }
  ],
  "bytecode": "0x60806040523462000030576200001e62000018620000d3565b620001bf565b604051610cb56200026a8239610cb590f35b600080fd5b634e487b7160e01b600052604160045260246000fd5b90601f01601f191681019081106001600160401b038211176200006d57604052565b62000035565b906200008a6200008260405190565b92836200004b565b565b6001600160a01b031690565b90565b6001600160a01b038116036200003057565b905051906200008a826200009b565b9060208282031262000030576200009891620000ad565b6200009862000f1f80380380620000ea8162000073565b928339810190620000bc565b6200008c62000098620000989290565b6200009890620000f6565b156200011957565b60405162461bcd60e51b815260206004820152601b60248201527f496e76616c696420415059206d616e61676572206164647265737300000000006044820152606490fd5b62000098906200008c906001600160a01b031682565b62000098906200015e565b620000989062000174565b906001600160a01b03905b9181191691161790565b90620001b362000098620001bb926200017f565b82546200018a565b9055565b620001fe6200008a91620001d262000206565b620001f8620001e66200008c600062000106565b6001600160a01b038316141562000111565b6200017f565b60016200019f565b6200008a62000253565b6200009862000098620000989290565b62000098600162000210565b906000199062000195565b906200024b62000098620001bb9262000210565b82546200022c565b6200008a6200026162000220565b60006200023756fe6080604052600436101561001257600080fd5b60003560e01c806301ec2d03146100925780633d39955c1461008d57806351b2d5211461008857806351c15721146100835780637e72c7d71461007e578063cf17240314610079578063d919007e146100745763ef5cfb8c036100a2576103c7565b610393565b61032b565b610231565b610203565b610194565b610177565b61011b565b60009103126100a257565b600080fd5b6100bc916008021c5b6001600160a01b031690565b90565b906100bc91546100a7565b6100bc600060016100bf565b6100bc906100b0906001600160a01b031682565b6100bc906100d6565b6100bc906100ea565b610105906100f3565b9052565b60208101929161011991906100fc565b565b346100a25761012b366004610097565b6101426101366100ca565b60405191829182610109565b0390f35b61014f816100b0565b036100a257565b9050359061011982610146565b906020828203126100a2576100bc91610156565b346100a25761018f61018a366004610163565b610a2a565b604051005b346100a2576101426101af6101aa366004610163565b6109d7565b6040515b9182918290815260200190565b8061014f565b90503590610119826101c0565b90916060828403126100a2576100bc6101ec8484610156565b936101fa8160208601610156565b936040016101c6565b346100a25761014261021f6102193660046101d3565b9161060d565b60405191829182901515815260200190565b346100a25761018f610244366004610163565b610ba5565b90610253906100f3565b600052602052604060002090565b6100bc906100b0565b6100bc9054610261565b6100bc9081565b6100bc9054610274565b610290906002610249565b9061029a8261026a565b916102a76001820161027b565b916102b46002830161027b565b916102c16003820161027b565b916100bc60056102d36004850161027b565b93015460ff1690565b919461031c6103239298979561031560a09661030e6101199a61030760c08a019e60008b01906100fc565b6020890152565b6040870152565b6060850152565b6080830152565b019015159052565b346100a257610142610346610341366004610163565b610285565b9261035696949692919260405190565b968796876102dc565b610105906100b0565b919461031c6103239298979561031560a09661030e6101199a61030760c08a019e60008b019061035f565b346100a2576101426103ae6103a9366004610163565b610c19565b926103be96949692919260405190565b96879687610368565b346100a25761018f6103da366004610163565b61095f565b6100b06100bc6100bc9290565b6100bc906103df565b156103fc57565b60405162461bcd60e51b8152602060048201526011602482015270496e76616c69642061646472657373657360781b6044820152606490fd5b634e487b7160e01b600052604160045260246000fd5b90601f01601f1916810190811067ffffffffffffffff82111761046d57604052565b610435565b90505190610119826101c0565b906020828203126100a2576100bc91610472565b6100bc6100bc6100bc9290565b61010590610493565b90815260408101929161011991602001906104a0565b6040513d6000823e3d90fd5b906101196104d860405190565b928361044b565b6100bc60c06104cb565b9061010590610261565b634e487b7160e01b600052600060045260246000fd5b6100bc9051610261565b906001600160a01b03905b9181191691161790565b906105386100bc61053f926100f3565b8254610513565b9055565b906000199061051e565b9061055d6100bc61053f92610493565b8254610543565b9060ff9061051e565b9061057d6100bc61053f92151590565b8254610564565b61011991906105fd9060a0906005906105a6816105a087610509565b90610528565b6105be600182016105b8602088015190565b9061054d565b6105d0600282016105b8604088015190565b6105e2600382016105b8606088015190565b6105f4600482016105b8608088015190565b01920151151590565b9061056d565b9061011991610584565b9091610647600093610642610621866103ec565b61062a816100b0565b610633876100b0565b1415908161075d575b506103f5565b6100f3565b436020610657610642600161026a565b9363b873995a9461067f62278d009661068a61067260405190565b9889958694859460e01b90565b8452600484016104a9565b03915afa9081156107585761031c6106d7926106ef9560009161072a575b506103156106cb6001996106c66106bd6104df565b98828a016104e9565b610493565b9361030e856020890152565b83151560a08201526106ea836002610249565b610603565b6107197f9cc152f4650ca2829a210a21551537f4cc4d48c2611ec06974f835e911921b90916100f3565b9061072360405190565b600090a290565b61074b915060203d8111610751575b610743818361044b565b81019061047f565b386106a8565b503d610739565b6104bf565b61076791506100b0565b610770836100b0565b14153861063c565b61078990610784610972565b610827565b6101196109b2565b634e487b7160e01b600052601160045260246000fd5b919082039182116107b457565b610791565b156107c057565b60405162461bcd60e51b81526020600482015260136024820152724e6f207265776172647320746f20636c61696d60681b6044820152606490fd5b919082018092116107b457565b9160206101199294936108236040820196600083019061035f565b0152565b61089c9061083481610a2a565b6108426100bc826002610249565b6108a261064261064261064261085a6001860161027b565b610871600487019161086b8361027b565b906107a7565b95600098899261088a61088385610493565b8a116107b9565b6105b8896108978361027b565b6107fb565b0161026a565b926340c10f193394803b156100a2576108c99183916108c060405190565b93849260e01b90565b82528183816108dc898c60048401610808565b03925af1801561075857610932575b50506109177f0aa4d283470c904c551d18bb894d37e17674920f3261a7f854be501e25f421b7926100f3565b9261092d61092460405190565b92839283610808565b0390a2565b8161095192903d10610958575b610949818361044b565b810190610097565b38806108eb565b503d61093f565b61011990610778565b6100bc6002610493565b61097c600061027b565b610984610968565b9081146109965761011990600061054d565b604051633ee5aeb560e01b8152600490fd5b6100bc6001610493565b6101196109bd6109a8565b600061054d565b818102929181159184041417156107b457565b6100bc9061086b6004610a23610a17610a056109f86100bc60029788610249565b9561086b4391880161027b565b610a116003870161027b565b906109c4565b6108976001860161027b565b920161027b565b600290610a3a6100bc8284610249565b91610a50610a4c600585015460ff1690565b1590565b610acd57610a969043908401610a916001610a82610a76610a708561027b565b866107a7565b610a1160038a0161027b565b96016105b8876108978361027b565b61054d565b61092d610ac37f578afab8065b30a5e9827120e4905b8a1810e180d2f793ca54af6f7633f4e57a926100f3565b926101b360405190565b505050565b15610ad957565b60405162461bcd60e51b8152602060048201526014602482015273496e76616c696420706f6f6c206164647265737360601b6044820152606490fd5b9160001960089290920291821b911b61051e565b9190610b3a6100bc61053f93610493565b908354610b15565b61011991600091610b29565b600080825590600590610b648360018301610b42565b610b718360028301610b42565b610b7e8360038301610b42565b610b8b8360048301610b42565b0155565b90600003610ba05761011990610b4e565b6104f3565b610bde6000610bce610bbe610bb9836103ec565b6100b0565b610bc7856100b0565b1415610ad2565b610bd9836002610249565b610b8f565b610c087f334d0b2111287dfddebe4b4c1c5af3ae644909d7fcd024377bf601e236ed5abb916100f3565b90610c1260405190565b808061092d565b90610c296100bc60029384610249565b90610c366106428361026a565b91610c4e610c466001830161027b565b94820161027b565b92610c5b6003830161027b565b92610c766005610c6d6004860161027b565b94015460ff1690565b9195949392919056fea2646970667358221220f1af335ad864374c7a2892c3285740487812adb7076a7af1946692b8b138298e64736f6c63430008140033",
  "linkReferences": {},
  "deployedLinkReferences": {}
}