{
  "_format": "hh-sol-artifact-1",
  "contractName": "RewardManager",
  "sourceName": "contracts/lib/RewardManager.sol",
  "abi": [
    {
      "inputs": [
        {
          "internalType": "address",
          "name": "_apyManager",
          "type": "address"
        }
      ],
      "stateMutability": "nonpayable",
      "type": "constructor"
    },
    {
      "inputs": [],
      "name": "ReentrancyGuardReentrantCall",
      "type": "error"
    },
    {
      "anonymous": false,
      "inputs": [
        {
          "indexed": true,
          "internalType": "address",
          "name": "pool",
          "type": "address"
        }
      ],
      "name": "PoolDeregistered",
      "type": "event"
    },
    {
      "anonymous": false,
      "inputs": [
        {
          "indexed": true,
          "internalType": "address",
          "name": "pool",
          "type": "address"
        }
      ],
      "name": "PoolRegistered",
      "type": "event"
    },
    {
      "anonymous": false,
      "inputs": [
        {
          "indexed": true,
          "internalType": "address",
          "name": "pool",
          "type": "address"
        },
        {
          "indexed": false,
          "internalType": "uint256",
          "name": "reward",
          "type": "uint256"
        }
      ],
      "name": "RewardAccrued",
      "type": "event"
    },
    {
      "anonymous": false,
      "inputs": [
        {
          "indexed": true,
          "internalType": "address",
          "name": "pool",
          "type": "address"
        },
        {
          "indexed": false,
          "internalType": "address",
          "name": "claimant",
          "type": "address"
        },
        {
          "indexed": false,
          "internalType": "uint256",
          "name": "reward",
          "type": "uint256"
        }
      ],
      "name": "RewardClaimed",
      "type": "event"
    },
    {
      "inputs": [
        {
          "internalType": "address",
          "name": "pool",
          "type": "address"
        }
      ],
      "name": "accrueRewards",
      "outputs": [],
      "stateMutability": "nonpayable",
      "type": "function"
    },
    {
      "inputs": [],
      "name": "apyManager",
      "outputs": [
        {
          "internalType": "contract IAdvancedAPYManager",
          "name": "",
          "type": "address"
        }
      ],
      "stateMutability": "view",
      "type": "function"
    },
    {
      "inputs": [
        {
          "internalType": "address",
          "name": "pool",
          "type": "address"
        },
        {
          "internalType": "bool",
          "name": "isLender",
          "type": "bool"
        }
      ],
      "name": "calculateClaimableRewards",
      "outputs": [
        {
          "internalType": "uint256",
          "name": "",
          "type": "uint256"
        }
      ],
      "stateMutability": "view",
      "type": "function"
    },
    {
      "inputs": [
        {
          "internalType": "address",
          "name": "pool",
          "type": "address"
        },
        {
          "internalType": "bool",
          "name": "isLender",
          "type": "bool"
        }
      ],
      "name": "claimRewards",
      "outputs": [],
      "stateMutability": "nonpayable",
      "type": "function"
    },
    {
      "inputs": [
        {
          "internalType": "address",
          "name": "pool",
          "type": "address"
        }
      ],
      "name": "deregisterPool",
      "outputs": [],
      "stateMutability": "nonpayable",
      "type": "function"
    },
    {
      "inputs": [
        {
          "internalType": "address",
          "name": "pool",
          "type": "address"
        },
        {
          "internalType": "address",
          "name": "rewardToken",
          "type": "address"
        },
        {
          "internalType": "bool",
          "name": "isFlashPool",
          "type": "bool"
        }
      ],
      "name": "registerPool",
      "outputs": [],
      "stateMutability": "nonpayable",
      "type": "function"
    },
    {
      "inputs": [
        {
          "internalType": "address",
          "name": "",
          "type": "address"
        }
      ],
      "name": "rewardDetails",
      "outputs": [
        {
          "internalType": "contract IERC20",
          "name": "rewardToken",
          "type": "address"
        },
        {
          "internalType": "uint256",
          "name": "rewardsAccrued",
          "type": "uint256"
        },
        {
          "internalType": "uint256",
          "name": "lastRewardBlock",
          "type": "uint256"
        },
        {
          "internalType": "uint256",
          "name": "rewardRate",
          "type": "uint256"
        },
        {
          "internalType": "uint256",
          "name": "totalInterestRewards",
          "type": "uint256"
        },
        {
          "internalType": "uint256",
          "name": "lenderClaimedRewards",
          "type": "uint256"
        },
        {
          "internalType": "uint256",
          "name": "borrowerClaimedRewards",
          "type": "uint256"
        },
        {
          "internalType": "bool",
          "name": "isFlashPool",
          "type": "bool"
        },
        {
          "internalType": "bool",
          "name": "isAccruing",
          "type": "bool"
        }
      ],
      "stateMutability": "view",
      "type": "function"
    }
  ],
  "bytecode": "0x60806040523462000037576200001e6200001862000116565b620002a2565b620000286200003d565b611c04620003a78239611c0490f35b62000043565b60405190565b600080fd5b601f801991011690565b634e487b7160e01b600052604160045260246000fd5b90620000749062000048565b810190811060018060401b038211176200008d57604052565b62000052565b90620000aa620000a26200003d565b928362000068565b565b600080fd5b60018060a01b031690565b620000c790620000b1565b90565b620000d581620000bc565b03620000dd57565b600080fd5b90505190620000f182620000ca565b565b9060208282031262000110576200010d91600001620000e2565b90565b620000ac565b6200013962001fab803803806200012d8162000093565b928339810190620000f3565b90565b90565b90565b6200015b6200015562000161926200013c565b6200013f565b620000b1565b90565b6200016f9062000142565b90565b60209181520190565b60007f496e76616c696420415059206d616e6167657220616464726573730000000000910152565b620001b2601b60209262000172565b620001bd816200017b565b0190565b620001d99060208101906000818303910152620001a3565b90565b15620001e457565b620001ee6200003d565b62461bcd60e51b8152806200020660048201620001c1565b0390fd5b620002236200021d6200022992620000b1565b6200013f565b620000b1565b90565b62000237906200020a565b90565b62000245906200022c565b90565b60001b90565b906200026160018060a01b039162000248565b9181191691161790565b62000276906200022c565b90565b90565b9062000296620002906200029e926200026b565b62000279565b82546200024e565b9055565b620002e9620002f191620002b56200038e565b620002e381620002db620002d4620002ce600062000164565b620000bc565b91620000bc565b1415620001dc565b6200023a565b60016200027c565b565b90565b90565b620003126200030c6200031892620002f3565b6200013f565b620002f6565b90565b620003276001620002f9565b90565b90620003396000199162000248565b9181191691161790565b6200035c620003566200036292620002f6565b6200013f565b620002f6565b90565b90565b90620003826200037c6200038a9262000343565b62000365565b82546200032a565b9055565b620003a46200039c6200031b565b600062000368565b56fe60806040526004361015610013575b6105d7565b61001e60003561008d565b806301ec2d03146100885780633d39955c14610083578063491c011a1461007e57806377ff76e7146100795780637e72c7d714610074578063a4cf32521461006f5763cf1724030361000e57610598565b61036d565b610314565b6102e0565b610271565b6101e7565b61015d565b60e01c90565b60405190565b600080fd5b600080fd5b60009103126100ae57565b61009e565b1c90565b60018060a01b031690565b6100d29060086100d793026100b3565b6100b7565b90565b906100e591546100c2565b90565b6100f560016000906100da565b90565b60018060a01b031690565b90565b61011a61011561011f926100f8565b610103565b6100f8565b90565b61012b90610106565b90565b61013790610122565b90565b6101439061012e565b9052565b919061015b9060006020850194019061013a565b565b3461018d5761016d3660046100a3565b6101896101786100e8565b610180610093565b91829182610147565b0390f35b610099565b61019b906100f8565b90565b6101a781610192565b036101ae57565b600080fd5b905035906101c08261019e565b565b906020828203126101dc576101d9916000016101b3565b90565b61009e565b60000190565b34610215576101ff6101fa3660046101c2565b610911565b610207610093565b80610211816101e1565b0390f35b610099565b151590565b6102288161021a565b0361022f57565b600080fd5b905035906102418261021f565b565b919060408382031261026c578061026061026992600086016101b3565b93602001610234565b90565b61009e565b346102a05761028a610284366004610243565b9061111d565b610292610093565b8061029c816101e1565b0390f35b610099565b90916060828403126102db576102d86102c184600085016101b3565b936102cf81602086016101b3565b93604001610234565b90565b61009e565b3461030f576102f96102f33660046102a5565b916113f3565b610301610093565b8061030b816101e1565b0390f35b610099565b346103425761032c6103273660046101c2565b6116d2565b610334610093565b8061033e816101e1565b0390f35b610099565b90565b61035390610347565b9052565b919061036b9060006020850194019061034a565b565b3461039e5761039a610389610383366004610243565b90611750565b610391610093565b91829182610357565b0390f35b610099565b6103ac90610122565b90565b906103b9906103a3565b600052602052604060002090565b60001c90565b60018060a01b031690565b6103e46103e9916103c7565b6103cd565b90565b6103f690546103d8565b90565b90565b61040861040d916103c7565b6103f9565b90565b61041a90546103fc565b90565b60ff1690565b61042f610434916103c7565b61041d565b90565b6104419054610423565b90565b60081c90565b61045661045b91610444565b61041d565b90565b610468905461044a565b90565b6104769060026103af565b610482600082016103ec565b9161048f60018301610410565b9161049c60028201610410565b916104a960038301610410565b916104b660048201610410565b916104c360058301610410565b916104d060068201610410565b916104e860076104e1818501610437565b930161045e565b90565b6104f490610122565b90565b610500906104eb565b9052565b61050d9061021a565b9052565b9694929099989795939161012088019a6000890161052e916104f7565b6020880161053b9161034a565b604087016105489161034a565b606086016105559161034a565b608085016105629161034a565b60a0840161056f9161034a565b60c0830161057c9161034a565b60e0820161058991610504565b6101000161059691610504565b565b346105d2576105ce6105b36105ae3660046101c2565b61046b565b956105c5999799959195949294610093565b998a998a610511565b0390f35b610099565b600080fd5b90565b6105e890610106565b90565b6105f4906105df565b90565b61060090610122565b90565b600080fd5b601f801991011690565b634e487b7160e01b600052604160045260246000fd5b9061063290610608565b810190811067ffffffffffffffff82111761064c57604052565b610612565b60e01b90565b6006111561066157565b600080fd5b9050519061067382610657565b565b9060208282031261068f5761068c91600001610666565b90565b61009e565b61069c610093565b3d6000823e3d90fd5b634e487b7160e01b600052602160045260246000fd5b600611156106c557565b6106a5565b906106d4826106bb565b565b60081b90565b906106e961ff00916106d6565b9181191691161790565b6106fc9061021a565b90565b90565b9061071761071261071e926106f3565b6106ff565b82546106dc565b9055565b61072b81610347565b0361073257565b600080fd5b9050519061074482610722565b565b906020828203126107605761075d91600001610737565b90565b61009e565b90565b61077c61077761078192610765565b610103565b610347565b90565b610790610795916103c7565b6100b7565b90565b6107a29054610784565b90565b9160206107c79294936107c06040820196600083019061034a565b019061034a565b565b90565b6107e06107db6107e5926107c9565b610103565b610347565b90565b634e487b7160e01b600052601260045260246000fd5b634e487b7160e01b600052601160045260246000fd5b61082061082691610347565b91610347565b908115610831570490565b6107e8565b61084561084b91939293610347565b92610347565b820391821161085657565b6107fe565b61086a61087091939293610347565b92610347565b9161087c838202610347565b92818404149015171561088b57565b6107fe565b61089f6108a591939293610347565b92610347565b82018092116108b057565b6107fe565b60001b90565b906108c8600019916108b5565b9181191691161790565b6108e66108e16108eb92610347565b610103565b610347565b90565b90565b9061090661090161090d926108d2565b6108ee565b82546108bb565b9055565b610925610920600283906103af565b6105dc565b9061092f816105eb565b610953602061093d836105f7565b639e9f669c9061094b610093565b938492610651565b82528180610963600482016101e1565b03915afa8015610c86576109a891600091610c58575b508061098e61098860026106ca565b916106ca565b148015610c3d575b908115610c21575b5060078501610702565b6109bd6109b76007850161045e565b1561021a565b610c1c576109e560206109cf836105f7565b63f4b01b18906109dd610093565b938492610651565b825281806109f5600482016101e1565b03915afa908115610c1757600091610be9575b5090610a1660078501610437565b600014610b6857506020610a2c62278d00610768565b5b610a3f610a3a6001610798565b61012e565b610a6163b873995a949294610a6c610a55610093565b96879586948594610651565b8452600484016107a5565b03915afa908115610b6357610af191610a9991600091610b35575b50610a936127106107cc565b90610814565b926003610abc610ab543610aaf60028601610410565b90610836565b869061085b565b94610add86610ad76001860191610ad283610410565b610890565b906108f1565b610aea43600285016108f1565b91016108f1565b610b30610b1e7f578afab8065b30a5e9827120e4905b8a1810e180d2f793ca54af6f7633f4e57a926103a3565b92610b27610093565b91829182610357565b0390a2565b610b56915060203d8111610b5c575b610b4e8183610628565b810190610746565b38610a87565b503d610b44565b610694565b6020610b76610b8c926105f7565b6364c4bec090610b84610093565b938492610651565b82528180610b9c600482016101e1565b03915afa8015610be457602091600091610bb7575b50610a2d565b610bd79150823d8111610bdd575b610bcf8183610628565b810190610746565b38610bb1565b503d610bc5565b610694565b610c0a915060203d8111610c10575b610c028183610628565b810190610746565b38610a08565b503d610bf8565b610694565b505050565b9050610c36610c3060006106ca565b916106ca565b143861099e565b5080610c52610c4c60016106ca565b916106ca565b14610996565b610c79915060203d8111610c7f575b610c718183610628565b810190610675565b38610979565b503d610c67565b610694565b90610c9d91610c986117a9565b610e6a565b610ca5611834565b565b90505190610cb48261019e565b565b90602082820312610cd057610ccd91600001610ca7565b90565b61009e565b60209181520190565b60007f4e6f7420617574686f72697a656420746f20636c61696d207265776172647300910152565b610d13601f602092610cd5565b610d1c81610cde565b0190565b610d369060208101906000818303910152610d06565b90565b15610d4057565b610d48610093565b62461bcd60e51b815280610d5e60048201610d20565b0390fd5b90565b610d79610d74610d7e92610d62565b610103565b610347565b90565b60007f4e6f207265776172647320746f20636c61696d00000000000000000000000000910152565b610db66013602092610cd5565b610dbf81610d81565b0190565b610dd99060208101906000818303910152610da9565b90565b15610de357565b610deb610093565b62461bcd60e51b815280610e0160048201610dc3565b0390fd5b610e0e90610106565b90565b610e1a90610e05565b90565b610e2690610122565b90565b6000910312610e3457565b61009e565b610e4290610192565b9052565b916020610e68929493610e6160408201966000830190610e39565b019061034a565b565b610e7381610911565b610e87610e82600283906103af565b6105dc565b90610e91816105eb565b8360001461108f576020610ea7610ebd926105f7565b639861f3e590610eb5610093565b938492610651565b82528180610ecd600482016101e1565b03915afa801561108a57610f68610f636000610f6d93610f7295829161105c575b505b96610f0d33610f07610f018b610192565b91610192565b14610d39565b610f19818a8991611848565b98610f368a610f30610f2a86610d65565b91610347565b11610ddc565b821461103757610f5c89610f566005840191610f5183610410565b610890565b906108f1565b5b016103ec565b6104eb565b610e11565b610e1d565b6340c10f19838592803b1561103257610f9f60008094610faa610f93610093565b97889687958694610651565b845260048401610e46565b03925af1801561102d57611000575b509091610fe67f0aa4d283470c904c551d18bb894d37e17674920f3261a7f854be501e25f421b7926103a3565b92610ffb610ff2610093565b92839283610e46565b0390a2565b6110209060003d8111611026575b6110188183610628565b810190610e29565b38610fb9565b503d61100e565b610694565b610603565b61105789611051600684019161104c83610410565b610890565b906108f1565b610f5d565b61107d915060203d8111611083575b6110758183610628565b810190610cb6565b38610eee565b503d61106b565b610694565b602061109d6110b3926105f7565b631cb0c3e7906110ab610093565b938492610651565b825281806110c3600482016101e1565b03915afa801561111857610f68610f636000610f6d93610f729582916110ea575b50610ef0565b61110b915060203d8111611111575b6111038183610628565b810190610cb6565b386110e4565b503d6110f9565b610694565b9061112791610c8b565b565b61113d61113861114292610d62565b610103565b6100f8565b90565b61114e90611129565b90565b60007f496e76616c696420616464726573736573000000000000000000000000000000910152565b6111866011602092610cd5565b61118f81611151565b0190565b6111a99060208101906000818303910152611179565b90565b156111b357565b6111bb610093565b62461bcd60e51b8152806111d160048201611193565b0390fd5b6111de90610106565b90565b6111ea906111d5565b90565b906112006111f9610093565b9283610628565b565b61120d6101206111ed565b90565b61121990610192565b90565b9061122690611210565b9052565b9061123490610347565b9052565b906112429061021a565b9052565b634e487b7160e01b600052600060045260246000fd5b6112669051611210565b90565b9061127a60018060a01b03916108b5565b9181191691161790565b61128d906111d5565b90565b90565b906112a86112a36112af92611284565b611290565b8254611269565b9055565b6112bd9051610347565b90565b6112ca905161021a565b90565b906112d960ff916108b5565b9181191691161790565b906112f86112f36112ff926106f3565b6106ff565b82546112cd565b9055565b906113df61010060076113e594611329600082016113236000880161125c565b90611293565b6113426001820161133c602088016112b3565b906108f1565b61135b60028201611355604088016112b3565b906108f1565b6113746003820161136e606088016112b3565b906108f1565b61138d60048201611387608088016112b3565b906108f1565b6113a6600582016113a060a088016112b3565b906108f1565b6113bf600682016113b960c088016112b3565b906108f1565b6113d78282016113d160e088016112c0565b906112e3565b0192016112c0565b90610702565b565b906113f191611303565b565b91908261141161140b6114066000611145565b610192565b91610192565b14158061154c575b611422906111ac565b61142b906111e1565b90600090439060008060009160009394600196611446611202565b9860008a01906114559161121c565b61145e90610d65565b602089019061146c9161122a565b604088019061147a9161122a565b61148390610d65565b60608701906114919161122a565b61149a90610d65565b60808601906114a89161122a565b6114b190610d65565b60a08501906114bf9161122a565b6114c890610d65565b60c08401906114d69161122a565b60e08301906114e491611238565b6101008201906114f391611238565b6002826114ff916103af565b90611509916113e7565b7f9cc152f4650ca2829a210a21551537f4cc4d48c2611ec06974f835e911921b9090611534906103a3565b9061153d610093565b80611547816101e1565b0390a2565b506114228161156c6115666115616000611145565b610192565b91610192565b14159050611419565b60007f496e76616c696420706f6f6c2061646472657373000000000000000000000000910152565b6115aa6014602092610cd5565b6115b381611575565b0190565b6115cd906020810190600081830391015261159d565b90565b156115d757565b6115df610093565b62461bcd60e51b8152806115f5600482016115b7565b0390fd5b1b90565b91906008611619910291611613600019846115f9565b926115f9565b9181191691161790565b9190611639611634611641936108d2565b6108ee565b9083546115fd565b9055565b600090565b61165c91611656611645565b91611623565b565b60076000918280820155611675836001830161164a565b611682836002830161164a565b61168f836003830161164a565b61169c836004830161164a565b6116a9836005830161164a565b6116b6836006830161164a565b0155565b906000036116cd576116cb9061165e565b565b611246565b6116f8816116f16116eb6116e66000611145565b610192565b91610192565b14156115d0565b61170e6000611709600284906103af565b6116ba565b6117387f334d0b2111287dfddebe4b4c1c5af3ae644909d7fcd024377bf601e236ed5abb916103a3565b90611741610093565b8061174b816101e1565b0390a2565b9061177a9161175d611645565b5061177261176d600283906103af565b6105dc565b919091611848565b90565b90565b61179461178f6117999261177d565b610103565b610347565b90565b6117a66002611780565b90565b6117b36000610410565b6117cc6117c66117c161179c565b610347565b91610347565b146117e5576117e36117dc61179c565b60006108f1565b565b6117ed610093565b633ee5aeb560e01b815280611804600482016101e1565b0390fd5b90565b61181f61181a61182492611808565b610103565b610347565b90565b611831600161180b565b90565b61184661183f611827565b60006108f1565b565b9091611852611645565b506118686118626007840161045e565b1561021a565b611bbe57611875906105eb565b9161189a6020611884856105f7565b63f4b01b1890611892610093565b938492610651565b825281806118aa600482016101e1565b03915afa908115611bb957600091611b8b575b506118ca60078401610437565b600014611b0a5760206118df62278d00610768565b5b6118f26118ed6001610798565b61012e565b61191463b873995a94929461191f611908610093565b96879586948594610651565b8452600484016107a5565b03915afa8015611b055761194e6119699161197a93600091611ad7575b506119486127106107cc565b90610814565b6119644361195e60028801610410565b90610836565b61085b565b61197560018501610410565b610890565b9261198760048401610410565b906119b760206119a161199b888690610836565b936105f7565b631cb0c3e7906119af610093565b938492610651565b825281806119c7600482016101e1565b03915afa908115611ad257600091611aa4575b506119f66119f06119eb6000611145565b610192565b91610192565b14600014611a32575050600014611a2157611a176005611a1d939201610410565b90610836565b5b90565b5050611a2d6000610d65565b611a1e565b611a67919450611a5690611a5086611a4a6002611780565b90610814565b90610890565b93611a616002611780565b90610814565b90600014611a895750611a806005611a86939201610410565b90610836565b90565b611aa192506006611a9b919201610410565b90610836565b90565b611ac5915060203d8111611acb575b611abd8183610628565b810190610cb6565b386119da565b503d611ab3565b610694565b611af8915060203d8111611afe575b611af08183610628565b810190610746565b3861193c565b503d611ae6565b610694565b611b2e6020611b18866105f7565b6364c4bec090611b26610093565b938492610651565b82528180611b3e600482016101e1565b03915afa8015611b8657602091600091611b59575b506118e0565b611b799150823d8111611b7f575b611b718183610628565b810190610746565b38611b53565b503d611b67565b610694565b611bac915060203d8111611bb2575b611ba48183610628565b810190610746565b386118bd565b503d611b9a565b610694565b505050611bcb6000610d65565b9056fea2646970667358221220f3f75fc678a36e3cabede946c53d94df4bbed9a926802c9a3074a7302fcb869264736f6c63430008180033",
  "linkReferences": {},
  "deployedLinkReferences": {}
}