{
  "_format": "hh-sol-artifact-1",
  "contractName": "RewardManager",
  "sourceName": "contracts/lib/RewardManager.sol",
  "abi": [
    {
      "inputs": [
        {
          "internalType": "address",
          "name": "_apyManager",
          "type": "address"
        }
      ],
      "stateMutability": "nonpayable",
      "type": "constructor"
    },
    {
      "inputs": [],
      "name": "ReentrancyGuardReentrantCall",
      "type": "error"
    },
    {
      "anonymous": false,
      "inputs": [
        {
          "indexed": true,
          "internalType": "address",
          "name": "pool",
          "type": "address"
        },
        {
          "indexed": true,
          "internalType": "address",
          "name": "borrower",
          "type": "address"
        }
      ],
      "name": "BorrowerRegistered",
      "type": "event"
    },
    {
      "anonymous": false,
      "inputs": [
        {
          "indexed": true,
          "internalType": "address",
          "name": "pool",
          "type": "address"
        }
      ],
      "name": "PoolDeregistered",
      "type": "event"
    },
    {
      "anonymous": false,
      "inputs": [
        {
          "indexed": true,
          "internalType": "address",
          "name": "pool",
          "type": "address"
        }
      ],
      "name": "PoolRegistered",
      "type": "event"
    },
    {
      "anonymous": false,
      "inputs": [
        {
          "indexed": true,
          "internalType": "address",
          "name": "pool",
          "type": "address"
        },
        {
          "indexed": false,
          "internalType": "uint256",
          "name": "reward",
          "type": "uint256"
        }
      ],
      "name": "RewardAccrued",
      "type": "event"
    },
    {
      "anonymous": false,
      "inputs": [
        {
          "indexed": true,
          "internalType": "address",
          "name": "pool",
          "type": "address"
        },
        {
          "indexed": false,
          "internalType": "address",
          "name": "claimant",
          "type": "address"
        },
        {
          "indexed": false,
          "internalType": "uint256",
          "name": "reward",
          "type": "uint256"
        }
      ],
      "name": "RewardClaimed",
      "type": "event"
    },
    {
      "inputs": [
        {
          "internalType": "address",
          "name": "pool",
          "type": "address"
        }
      ],
      "name": "accrueRewards",
      "outputs": [],
      "stateMutability": "nonpayable",
      "type": "function"
    },
    {
      "inputs": [],
      "name": "apyManager",
      "outputs": [
        {
          "internalType": "contract IAdvancedAPYManager",
          "name": "",
          "type": "address"
        }
      ],
      "stateMutability": "view",
      "type": "function"
    },
    {
      "inputs": [
        {
          "internalType": "address",
          "name": "pool",
          "type": "address"
        },
        {
          "internalType": "bool",
          "name": "isLender",
          "type": "bool"
        }
      ],
      "name": "calculateClaimableRewards",
      "outputs": [
        {
          "internalType": "uint256",
          "name": "",
          "type": "uint256"
        }
      ],
      "stateMutability": "view",
      "type": "function"
    },
    {
      "inputs": [
        {
          "internalType": "address",
          "name": "pool",
          "type": "address"
        },
        {
          "internalType": "bool",
          "name": "isLender",
          "type": "bool"
        }
      ],
      "name": "claimRewards",
      "outputs": [],
      "stateMutability": "nonpayable",
      "type": "function"
    },
    {
      "inputs": [
        {
          "internalType": "address",
          "name": "pool",
          "type": "address"
        }
      ],
      "name": "deregisterPool",
      "outputs": [],
      "stateMutability": "nonpayable",
      "type": "function"
    },
    {
      "inputs": [
        {
          "internalType": "address",
          "name": "pool",
          "type": "address"
        }
      ],
      "name": "getRewardDetails",
      "outputs": [
        {
          "components": [
            {
              "internalType": "contract IERC20",
              "name": "rewardToken",
              "type": "address"
            },
            {
              "internalType": "uint256",
              "name": "rewardsAccrued",
              "type": "uint256"
            },
            {
              "internalType": "uint256",
              "name": "lastRewardBlock",
              "type": "uint256"
            },
            {
              "internalType": "uint256",
              "name": "rewardRate",
              "type": "uint256"
            },
            {
              "internalType": "uint256",
              "name": "totalInterestRewards",
              "type": "uint256"
            },
            {
              "internalType": "uint256",
              "name": "lenderClaimedRewards",
              "type": "uint256"
            },
            {
              "internalType": "uint256",
              "name": "borrowerClaimedRewards",
              "type": "uint256"
            },
            {
              "internalType": "address",
              "name": "borrower",
              "type": "address"
            },
            {
              "internalType": "bool",
              "name": "isAccruing",
              "type": "bool"
            }
          ],
          "internalType": "struct RewardManager.RewardDetails",
          "name": "",
          "type": "tuple"
        }
      ],
      "stateMutability": "view",
      "type": "function"
    },
    {
      "inputs": [
        {
          "internalType": "address",
          "name": "pool",
          "type": "address"
        },
        {
          "internalType": "address",
          "name": "borrower",
          "type": "address"
        }
      ],
      "name": "registerBorrower",
      "outputs": [],
      "stateMutability": "nonpayable",
      "type": "function"
    },
    {
      "inputs": [
        {
          "internalType": "address",
          "name": "pool",
          "type": "address"
        },
        {
          "internalType": "address",
          "name": "rewardToken",
          "type": "address"
        }
      ],
      "name": "registerPool",
      "outputs": [],
      "stateMutability": "nonpayable",
      "type": "function"
    },
    {
      "inputs": [
        {
          "internalType": "address",
          "name": "",
          "type": "address"
        }
      ],
      "name": "rewardDetails",
      "outputs": [
        {
          "internalType": "contract IERC20",
          "name": "rewardToken",
          "type": "address"
        },
        {
          "internalType": "uint256",
          "name": "rewardsAccrued",
          "type": "uint256"
        },
        {
          "internalType": "uint256",
          "name": "lastRewardBlock",
          "type": "uint256"
        },
        {
          "internalType": "uint256",
          "name": "rewardRate",
          "type": "uint256"
        },
        {
          "internalType": "uint256",
          "name": "totalInterestRewards",
          "type": "uint256"
        },
        {
          "internalType": "uint256",
          "name": "lenderClaimedRewards",
          "type": "uint256"
        },
        {
          "internalType": "uint256",
          "name": "borrowerClaimedRewards",
          "type": "uint256"
        },
        {
          "internalType": "address",
          "name": "borrower",
          "type": "address"
        },
        {
          "internalType": "bool",
          "name": "isAccruing",
          "type": "bool"
        }
      ],
      "stateMutability": "view",
      "type": "function"
    }
  ],
  "bytecode": "0x60806040523462000030576200001e62000018620000d3565b620001bf565b6040516113ec6200026082396113ec90f35b600080fd5b634e487b7160e01b600052604160045260246000fd5b90601f01601f191681019081106001600160401b038211176200006d57604052565b62000035565b906200008a6200008260405190565b92836200004b565b565b6001600160a01b031690565b90565b6001600160a01b038116036200003057565b905051906200008a826200009b565b9060208282031262000030576200009891620000ad565b620000986200164c80380380620000ea8162000073565b928339810190620000bc565b6200008c62000098620000989290565b6200009890620000f6565b156200011957565b60405162461bcd60e51b815260206004820152601b60248201527f496e76616c696420415059206d616e61676572206164647265737300000000006044820152606490fd5b62000098906200008c906001600160a01b031682565b62000098906200015e565b620000989062000174565b906001600160a01b03905b9181191691161790565b90620001b362000098620001bb926200017f565b82546200018a565b9055565b620001fe6200008a91620001d262000249565b620001f8620001e66200008c600062000106565b6001600160a01b038316141562000111565b6200017f565b60016200019f565b6200009862000098620000989290565b62000098600162000206565b906000199062000195565b906200024162000098620001bb9262000206565b825462000222565b6200008a6200025762000216565b60006200022d56fe6080604052600436101561001257600080fd5b60003560e01c806301ec2d03146100a257806306846e051461009d5780633d39955c14610098578063491c011a146100935780637286e5e51461008e5780637e72c7d714610089578063a4cf325214610084578063cf1724031461007f5763d919007e036100b257610493565b6103bb565b610262565b61024a565b610231565b610218565b6101c8565b610196565b61012b565b60009103126100b257565b600080fd5b6100cc916008021c5b6001600160a01b031690565b90565b906100cc91546100b7565b6100cc600060016100cf565b6100cc906100c0906001600160a01b031682565b6100cc906100e6565b6100cc906100fa565b61011590610103565b9052565b602081019291610129919061010c565b565b346100b25761013b3660046100a7565b6101526101466100da565b60405191829182610119565b0390f35b61015f816100c0565b036100b257565b9050359061012982610156565b91906040838203126100b2576100cc9061018d8185610166565b93602001610166565b346100b2576101af6101a9366004610173565b90610879565b604051005b906020828203126100b2576100cc91610166565b346100b2576101af6101db3660046101b4565b610f8b565b80151561015f565b90503590610129826101e0565b91906040838203126100b2576100cc9061020f8185610166565b936020016101e8565b346100b2576101af61022b3660046101f5565b90610c60565b346100b2576101af610244366004610173565b90610700565b346100b2576101af61025d3660046101b4565b611219565b346100b25761015261027e6102783660046101f5565b90610cc6565b6040515b9182918290815260200190565b9061029990610103565b600052602052604060002090565b6100cc906100c0565b6100cc90546102a7565b6100cc9081565b6100cc90546102ba565b6100cc9060a01c60ff1690565b6100cc90546102cb565b6102ed90600261028f565b6102f6816102b0565b91610303600183016102c1565b91610310600282016102c1565b9161031d600383016102c1565b9161032a600482016102c1565b91610337600583016102c1565b91610344600682016102c1565b916100cc60076103558185016102b0565b93016102d8565b610115906100c0565b9694929099989795939161012088019a600089016103829161010c565b602088015260408701526060860152608085015260a084015260c083015260e082016103ad9161035c565b610100016101299115159052565b346100b2576101526103d66103d13660046101b4565b6102e2565b956103e999979995919594929460405190565b998a998a610365565b90610100806101299361040d6000820151600086019061010c565b61041c60208201516020860152565b61042b60408201516040860152565b61043a60608201516060860152565b61044960808201516080860152565b61045860a082015160a0860152565b61046760c082015160c0860152565b61047960e082015160e086019061035c565b01511515910152565b6101208101929161012991906103f2565b346100b2576101526104ae6104a93660046101b4565b61139a565b60405191829182610482565b6100c06100cc6100cc9290565b6100cc906104ba565b602080825260119082015270496e76616c69642061646472657373657360781b604082015260600190565b1561050257565b60405162461bcd60e51b81528061051b600482016104d0565b0390fd5b634e487b7160e01b600052604160045260246000fd5b90601f01601f1916810190811067ffffffffffffffff82111761055757604052565b61051f565b9061012961056960405190565b9283610535565b6100cc61012061055c565b90610115906102a7565b6100cc6100cc6100cc9290565b90610115906100c0565b634e487b7160e01b600052600060045260246000fd5b6100cc90516102a7565b906001600160a01b03905b9181191691161790565b906105e16100cc6105e892610103565b82546105bc565b9055565b90600019906105c7565b906106066100cc6105e892610585565b82546105ec565b6100cc90516100c0565b9060ff60a01b9060a01b6105c7565b906106366100cc6105e892151590565b8254610617565b61012991906106f090610100906007906106608161065a876105b2565b906105d1565b61067860018201610672602088015190565b906105f6565b61068a60028201610672604088015190565b61069c60038201610672606088015190565b6106ae60048201610672608088015190565b6106c06005820161067260a088015190565b6106d26006820161067260c088015190565b01926106e96106e360e0830161060d565b856105d1565b0151151590565b90610626565b906101299161063d565b906107c7906107b760006107ad610742610719836104c7565b94610723866100c0565b61072c896100c0565b141580610803575b61073d906104fb565b610103565b936107a44361077c61076960019661076461075b610570565b9a828c0161057b565b610585565b916107758360208b0152565b6040890152565b610787816060890152565b610792816080890152565b61079d8160a0890152565b60c0870152565b60e08501610592565b1515610100830152565b6107c283600261028f565b6106f6565b6107f17f9cc152f4650ca2829a210a21551537f4cc4d48c2611ec06974f835e911921b9091610103565b906107fb60405190565b80805b0390a2565b5061073d610810876100c0565b610819836100c0565b14159050610734565b6020808252601b908201527f426f72726f77657220616c726561647920726567697374657265640000000000604082015260600190565b1561086057565b60405162461bcd60e51b81528061051b60048201610822565b906108ef8161088860006104c7565b610891816100c0565b61089a866100c0565b141580610932575b6108ab906104fb565b6108e160076108be6100cc88600261028f565b01916108db6108d56108cf856102b0565b926100c0565b916100c0565b14610859565b6108ea85610f8b565b6105d1565b61092261091c7f07fad9689e3b8836401d45a3613710f4272517a3675a0b3006d6b80e57c51e7093610103565b91610103565b9161092c60405190565b600090a3565b506108ab61093f826100c0565b610948846100c0565b141590506108a2565b906109639161095e610c74565b610a83565b610129610cb4565b9050519061012982610156565b906020828203126100b2576100cc9161096b565b6040513d6000823e3d90fd5b6020808252601f908201527f4e6f7420617574686f72697a656420746f20636c61696d207265776172647300604082015260600190565b156109d657565b60405162461bcd60e51b81528061051b60048201610998565b6020808252601390820152724e6f207265776172647320746f20636c61696d60681b604082015260600190565b15610a2357565b60405162461bcd60e51b81528061051b600482016109ef565b634e487b7160e01b600052601160045260246000fd5b91908201809211610a5f57565b610a3c565b916020610129929493610a7f6040820196600083019061035c565b0152565b610a8c81610f8b565b610a9a6100cc82600261028f565b91610aa482610103565b8115610c4d576020610ab8610ad092610103565b639861f3e590610ac760405190565b93849260e01b90565b825260049082905afa908115610c0157600091610c1f575b50925b610b0133610afb6108d5876100c0565b146109cf565b610b5461073d61073d61073d610b178688610cc6565b956000958691610b30610b2984610585565b8a11610a1c565b15610c0657610b4e600582016106728a610b49836102c1565b610a52565b016102b0565b6340c10f1990803b156100b257610b70918391610ac760405190565b8252818381610b83898c60048401610a64565b03925af18015610c0157610bd4575b5050610bbe7f0aa4d283470c904c551d18bb894d37e17674920f3261a7f854be501e25f421b792610103565b926107fe610bcb60405190565b92839283610a64565b81610bf392903d10610bfa575b610beb8183610535565b8101906100a7565b3880610b92565b503d610be1565b61098c565b610c1a600682016106728a610b49836102c1565b610b4e565b610c40915060203d8111610c46575b610c388183610535565b810190610978565b38610ae8565b503d610c2e565b50610c5a600784016102b0565b92610aeb565b9061012991610951565b6100cc6002610585565b610c7e60006102c1565b610c86610c6a565b908114610c98576101299060006105f6565b604051633ee5aeb560e01b8152600490fd5b6100cc6001610585565b610129610cbf610caa565b60006105f6565b6100cc91610cd86100cc83600261028f565b610d5c565b8061015f565b9050519061012982610cdd565b906020828203126100b2576100cc91610ce3565b9081526040810192916101299160200152565b81810292918115918404141715610a5f57565b634e487b7160e01b600052601260045260246000fd5b8115610d4a570490565b610d2a565b91908203918211610a5f57565b91906000916007840190610d76610d72836102d8565b1590565b610f7c5761073d610d8691610103565b9063f4b01b1891610da0610d9960405190565b9360e01b90565b8352602083600481845afa908115610c0157610dd593600092610f5a575b506040516020916364c4bec0915b95869260e01b90565b825260049082905afa928315610c0157600093610f3a575b50610e0f6020610e0061073d60016102b0565b63b873995a90610ac760405190565b82528180610e21898860048401610d04565b03915afa918215610c0157610e9494610e61610e50610e6693610e8d96610e8196600091610f0c575b50610d17565b610e5b612710610585565b90610d40565b610d40565b610e7c43610e7660028b016102c1565b90610d4f565b610d17565b610b49600188016102c1565b93506102b0565b91600092610eac6108d5610ea7866104c7565b6100c0565b03610ee357610ebb9092610585565b905b15610ed25750610e7660056100cc93016102c1565b9050610e7660066100cc93016102c1565b9150610f06600292610e5b610f00610efa86610585565b83610d40565b94610585565b90610ebd565b610f2d915060203d8111610f33575b610f258183610535565b810190610cf0565b38610e4a565b503d610f1b565b610f5391935060203d8111610f3357610f258183610535565b9138610ded565b6020919250610f7590823d8111610f3357610f258183610535565b9190610dbe565b50505050506100cc6000610585565b600290610f9b6100cc828461028f565b610fa482610103565b610fb3610d72600784016102d8565b61111b57610fc090610103565b9063f4b01b1891610fd3610d9960405190565b8352602083600481845afa908115610c015761100293600092610f5a57506040516020916364c4bec091610dcc565b825260049082905afa928315610c01576000936110f7575b5061104690602061102e61073d60016102b0565b63b873995a9061103d60405190565b94859260e01b90565b82528180611058898760048401610d04565b03915afa938415610c0157610e61610e50611081936110c097600396600091610f0c5750610d17565b916110ba43968201966110a085610e7c61109a8b6102c1565b84610d4f565b976110b5600185016106728b610b49836102c1565b6105f6565b016105f6565b6107fe6110ed7f578afab8065b30a5e9827120e4905b8a1810e180d2f793ca54af6f7633f4e57a92610103565b9261028260405190565b6110469193506111149060203d8111610f3357610f258183610535565b929061101a565b50505050565b602080825260149082015273496e76616c696420706f6f6c206164647265737360601b604082015260600190565b1561115657565b60405162461bcd60e51b81528061051b60048201611121565b9160001960089290920291821b911b6105c7565b91906111946100cc6105e893610585565b90835461116f565b61012991600091611183565b6000808255906007906111be836001830161119c565b6111cb836002830161119c565b6111d8836003830161119c565b6111e5836004830161119c565b6111f2836005830161119c565b6111ff836006830161119c565b0155565b9060000361121457610129906111a8565b61059c565b61124d600061123d61122d610ea7836104c7565b611236856100c0565b141561114f565b61124883600261028f565b611203565b6107f17f334d0b2111287dfddebe4b4c1c5af3ae644909d7fcd024377bf601e236ed5abb91610103565b61127f610570565b9060008252602080808080808080808a0160008152016000815201600081520160008152016000815201600081520160008152016000905250565b6100cc611277565b9061012961138760076112d3610570565b946112e66112e0826102b0565b8761057b565b6112fc6112f5600183016102c1565b6020880152565b61131261130b600283016102c1565b6040880152565b611328611321600383016102c1565b6060880152565b61133e611337600483016102c1565b6080880152565b61135461134d600583016102c1565b60a0880152565b61136a611363600683016102c1565b60c0880152565b6113816113788383016102b0565b60e08801610592565b016102d8565b1515610100840152565b6100cc906112c2565b6113b16100cc916113a96112ba565b50600261028f565b61139156fea26469706673582212201dfc9c52d7be6b24968e8b76a34fc1dc101a14e0452cd2298d9f54a0da2051c164736f6c63430008140033",
  "linkReferences": {},
  "deployedLinkReferences": {}
}