{
	"data": {
		"bytecode": {
			"linkReferences": {},
			"object": "60803461007a57601f61066d38819003918201601f19168301916001600160401b0383118484101761007e5780849260209460405283398101031261007a57516001600160a01b0381169081900361007a5760018060a01b031990815f5416175f55339060015416176001556040516105da90816100938239f35b5f80fd5b634e487b7160e01b5f52604160045260245ffdfe6080604081815260049182361015610015575f80fd5b5f92833560e01c91826323e30c8b1461027e5750816346e368d4146101f25781635107d61e146100ab57508063bcead63e146100845763f851a44014610059575f80fd5b3461008057816003193601126100805760015490516001600160a01b039091168152602090f35b5080fd5b5034610080578160031936011261008057905490516001600160a01b039091168152602090f35b919050346101ee5760603660031901126101ee576100c76104ab565b9160443567ffffffffffffffff81116101ea576100e790369083016104c5565b909360018060a01b03928360015416330361019c57908660a4859493602096835416948089519a8b9889978895632e7ff4ef60e11b87523090870152166024850152602435604485015260806064850152816084850152848401378181018301849052601f01601f191681010301925af19081156101935750610168575080f35b6101889060203d811161018c575b61018081836104f3565b810190610529565b5080f35b503d610176565b513d84823e3d90fd5b608490602086519162461bcd60e51b8352820152602260248201527f4f6e6c792061646d696e2063616e20696e69746961746520666c617368206c6f60448201526130b760f11b6064820152fd5b8480fd5b8280fd5b9050346101ee5760203660031901126101ee5761020d6104ab565b6001546001600160a01b0393919291908416330361023b57505082546001600160a01b031916911617815580f35b906020606492519162461bcd60e51b8352820152601960248201527f4f6e6c792061646d696e2063616e20736574206c656e646572000000000000006044820152fd5b939150346100805760a03660031901126100805761029a6104ab565b6001600160a01b0394602493843587811693919291908490036101ee576044359767ffffffffffffffff926084358481116104a7576102dc90369089016104c5565b505081855416330361045c57503091160361042157606435870180971161040f578551966020978881019163a9059cbb60e01b8352338883015260448201526044815260808101818110848211176103fd57885251839182919082875af1903d156103ef573d9081116103dd578651610374939291610364601f8201601f19168b01836104f3565b81528092893d92013e5b83610541565b8051908682151592836103c4575b5050506103b257505050517f439148f0bbc682ca079e46d6e2c2f0c1e3b820f1a291b069d8882abf8cf18dd98152f35b8351635274afe760e01b815291820152fd5b6103d49350820181019101610529565b155f8681610382565b634e487b7160e01b8352604185528583fd5b50610374915060609061036e565b634e487b7160e01b8552604187528785fd5b634e487b7160e01b8252601184528482fd5b855162461bcd60e51b8152602081860152601681870152752ab73932b1b7b3b734bd32b21034b734ba34b0ba37b960511b6044820152606490fd5b62461bcd60e51b81526020878201526022888201527f4f6e6c79206c656e6465722063616e2063616c6c20746869732066756e63746960448201526137b760f11b6064820152608490fd5b8580fd5b600435906001600160a01b03821682036104c157565b5f80fd5b9181601f840112156104c15782359167ffffffffffffffff83116104c157602083818601950101116104c157565b90601f8019910116810190811067ffffffffffffffff82111761051557604052565b634e487b7160e01b5f52604160045260245ffd5b908160209103126104c1575180151581036104c15790565b90610568575080511561055657805190602001fd5b604051630a12f52160e11b8152600490fd5b8151158061059b575b610579575090565b604051639996b31560e01b81526001600160a01b039091166004820152602490fd5b50803b1561057156fea2646970667358221220dedc7377ee90716c2e1c7efe1ee346359f500ac009fef2f0a0a4fc3c3a4d7b0464736f6c63430008140033",
			"opcodes": "PUSH1 0x80 CALLVALUE PUSH2 0x7A JUMPI PUSH1 0x1F PUSH2 0x66D CODESIZE DUP2 SWAP1 SUB SWAP2 DUP3 ADD PUSH1 0x1F NOT AND DUP4 ADD SWAP2 PUSH1 0x1 PUSH1 0x1 PUSH1 0x40 SHL SUB DUP4 GT DUP5 DUP5 LT OR PUSH2 0x7E JUMPI DUP1 DUP5 SWAP3 PUSH1 0x20 SWAP5 PUSH1 0x40 MSTORE DUP4 CODECOPY DUP2 ADD SUB SLT PUSH2 0x7A JUMPI MLOAD PUSH1 0x1 PUSH1 0x1 PUSH1 0xA0 SHL SUB DUP2 AND SWAP1 DUP2 SWAP1 SUB PUSH2 0x7A JUMPI PUSH1 0x1 DUP1 PUSH1 0xA0 SHL SUB NOT SWAP1 DUP2 PUSH0 SLOAD AND OR PUSH0 SSTORE CALLER SWAP1 PUSH1 0x1 SLOAD AND OR PUSH1 0x1 SSTORE PUSH1 0x40 MLOAD PUSH2 0x5DA SWAP1 DUP2 PUSH2 0x93 DUP3 CODECOPY RETURN JUMPDEST PUSH0 DUP1 REVERT JUMPDEST PUSH4 0x4E487B71 PUSH1 0xE0 SHL PUSH0 MSTORE PUSH1 0x41 PUSH1 0x4 MSTORE PUSH1 0x24 PUSH0 REVERT INVALID PUSH1 0x80 PUSH1 0x40 DUP2 DUP2 MSTORE PUSH1 0x4 SWAP2 DUP3 CALLDATASIZE LT ISZERO PUSH2 0x15 JUMPI PUSH0 DUP1 REVERT JUMPDEST PUSH0 SWAP3 DUP4 CALLDATALOAD PUSH1 0xE0 SHR SWAP2 DUP3 PUSH4 0x23E30C8B EQ PUSH2 0x27E JUMPI POP DUP2 PUSH4 0x46E368D4 EQ PUSH2 0x1F2 JUMPI DUP2 PUSH4 0x5107D61E EQ PUSH2 0xAB JUMPI POP DUP1 PUSH4 0xBCEAD63E EQ PUSH2 0x84 JUMPI PUSH4 0xF851A440 EQ PUSH2 0x59 JUMPI PUSH0 DUP1 REVERT JUMPDEST CALLVALUE PUSH2 0x80 JUMPI DUP2 PUSH1 0x3 NOT CALLDATASIZE ADD SLT PUSH2 0x80 JUMPI PUSH1 0x1 SLOAD SWAP1 MLOAD PUSH1 0x1 PUSH1 0x1 PUSH1 0xA0 SHL SUB SWAP1 SWAP2 AND DUP2 MSTORE PUSH1 0x20 SWAP1 RETURN JUMPDEST POP DUP1 REVERT JUMPDEST POP CALLVALUE PUSH2 0x80 JUMPI DUP2 PUSH1 0x3 NOT CALLDATASIZE ADD SLT PUSH2 0x80 JUMPI SWAP1 SLOAD SWAP1 MLOAD PUSH1 0x1 PUSH1 0x1 PUSH1 0xA0 SHL SUB SWAP1 SWAP2 AND DUP2 MSTORE PUSH1 0x20 SWAP1 RETURN JUMPDEST SWAP2 SWAP1 POP CALLVALUE PUSH2 0x1EE JUMPI PUSH1 0x60 CALLDATASIZE PUSH1 0x3 NOT ADD SLT PUSH2 0x1EE JUMPI PUSH2 0xC7 PUSH2 0x4AB JUMP JUMPDEST SWAP2 PUSH1 0x44 CALLDATALOAD PUSH8 0xFFFFFFFFFFFFFFFF DUP2 GT PUSH2 0x1EA JUMPI PUSH2 0xE7 SWAP1 CALLDATASIZE SWAP1 DUP4 ADD PUSH2 0x4C5 JUMP JUMPDEST SWAP1 SWAP4 PUSH1 0x1 DUP1 PUSH1 0xA0 SHL SUB SWAP3 DUP4 PUSH1 0x1 SLOAD AND CALLER SUB PUSH2 0x19C JUMPI SWAP1 DUP7 PUSH1 0xA4 DUP6 SWAP5 SWAP4 PUSH1 0x20 SWAP7 DUP4 SLOAD AND SWAP5 DUP1 DUP10 MLOAD SWAP11 DUP12 SWAP9 DUP10 SWAP8 DUP9 SWAP6 PUSH4 0x2E7FF4EF PUSH1 0xE1 SHL DUP8 MSTORE ADDRESS SWAP1 DUP8 ADD MSTORE AND PUSH1 0x24 DUP6 ADD MSTORE PUSH1 0x24 CALLDATALOAD PUSH1 0x44 DUP6 ADD MSTORE PUSH1 0x80 PUSH1 0x64 DUP6 ADD MSTORE DUP2 PUSH1 0x84 DUP6 ADD MSTORE DUP5 DUP5 ADD CALLDATACOPY DUP2 DUP2 ADD DUP4 ADD DUP5 SWAP1 MSTORE PUSH1 0x1F ADD PUSH1 0x1F NOT AND DUP2 ADD SUB ADD SWAP3 GAS CALL SWAP1 DUP2 ISZERO PUSH2 0x193 JUMPI POP PUSH2 0x168 JUMPI POP DUP1 RETURN JUMPDEST PUSH2 0x188 SWAP1 PUSH1 0x20 RETURNDATASIZE DUP2 GT PUSH2 0x18C JUMPI JUMPDEST PUSH2 0x180 DUP2 DUP4 PUSH2 0x4F3 JUMP JUMPDEST DUP2 ADD SWAP1 PUSH2 0x529 JUMP JUMPDEST POP DUP1 RETURN JUMPDEST POP RETURNDATASIZE PUSH2 0x176 JUMP JUMPDEST MLOAD RETURNDATASIZE DUP5 DUP3 RETURNDATACOPY RETURNDATASIZE SWAP1 REVERT JUMPDEST PUSH1 0x84 SWAP1 PUSH1 0x20 DUP7 MLOAD SWAP2 PUSH3 0x461BCD PUSH1 0xE5 SHL DUP4 MSTORE DUP3 ADD MSTORE PUSH1 0x22 PUSH1 0x24 DUP3 ADD MSTORE PUSH32 0x4F6E6C792061646D696E2063616E20696E69746961746520666C617368206C6F PUSH1 0x44 DUP3 ADD MSTORE PUSH2 0x30B7 PUSH1 0xF1 SHL PUSH1 0x64 DUP3 ADD MSTORE REVERT JUMPDEST DUP5 DUP1 REVERT JUMPDEST DUP3 DUP1 REVERT JUMPDEST SWAP1 POP CALLVALUE PUSH2 0x1EE JUMPI PUSH1 0x20 CALLDATASIZE PUSH1 0x3 NOT ADD SLT PUSH2 0x1EE JUMPI PUSH2 0x20D PUSH2 0x4AB JUMP JUMPDEST PUSH1 0x1 SLOAD PUSH1 0x1 PUSH1 0x1 PUSH1 0xA0 SHL SUB SWAP4 SWAP2 SWAP3 SWAP2 SWAP1 DUP5 AND CALLER SUB PUSH2 0x23B JUMPI POP POP DUP3 SLOAD PUSH1 0x1 PUSH1 0x1 PUSH1 0xA0 SHL SUB NOT AND SWAP2 AND OR DUP2 SSTORE DUP1 RETURN JUMPDEST SWAP1 PUSH1 0x20 PUSH1 0x64 SWAP3 MLOAD SWAP2 PUSH3 0x461BCD PUSH1 0xE5 SHL DUP4 MSTORE DUP3 ADD MSTORE PUSH1 0x19 PUSH1 0x24 DUP3 ADD MSTORE PUSH32 0x4F6E6C792061646D696E2063616E20736574206C656E64657200000000000000 PUSH1 0x44 DUP3 ADD MSTORE REVERT JUMPDEST SWAP4 SWAP2 POP CALLVALUE PUSH2 0x80 JUMPI PUSH1 0xA0 CALLDATASIZE PUSH1 0x3 NOT ADD SLT PUSH2 0x80 JUMPI PUSH2 0x29A PUSH2 0x4AB JUMP JUMPDEST PUSH1 0x1 PUSH1 0x1 PUSH1 0xA0 SHL SUB SWAP5 PUSH1 0x24 SWAP4 DUP5 CALLDATALOAD DUP8 DUP2 AND SWAP4 SWAP2 SWAP3 SWAP2 SWAP1 DUP5 SWAP1 SUB PUSH2 0x1EE JUMPI PUSH1 0x44 CALLDATALOAD SWAP8 PUSH8 0xFFFFFFFFFFFFFFFF SWAP3 PUSH1 0x84 CALLDATALOAD DUP5 DUP2 GT PUSH2 0x4A7 JUMPI PUSH2 0x2DC SWAP1 CALLDATASIZE SWAP1 DUP10 ADD PUSH2 0x4C5 JUMP JUMPDEST POP POP DUP2 DUP6 SLOAD AND CALLER SUB PUSH2 0x45C JUMPI POP ADDRESS SWAP2 AND SUB PUSH2 0x421 JUMPI PUSH1 0x64 CALLDATALOAD DUP8 ADD DUP1 SWAP8 GT PUSH2 0x40F JUMPI DUP6 MLOAD SWAP7 PUSH1 0x20 SWAP8 DUP9 DUP2 ADD SWAP2 PUSH4 0xA9059CBB PUSH1 0xE0 SHL DUP4 MSTORE CALLER DUP9 DUP4 ADD MSTORE PUSH1 0x44 DUP3 ADD MSTORE PUSH1 0x44 DUP2 MSTORE PUSH1 0x80 DUP2 ADD DUP2 DUP2 LT DUP5 DUP3 GT OR PUSH2 0x3FD JUMPI DUP9 MSTORE MLOAD DUP4 SWAP2 DUP3 SWAP2 SWAP1 DUP3 DUP8 GAS CALL SWAP1 RETURNDATASIZE ISZERO PUSH2 0x3EF JUMPI RETURNDATASIZE SWAP1 DUP2 GT PUSH2 0x3DD JUMPI DUP7 MLOAD PUSH2 0x374 SWAP4 SWAP3 SWAP2 PUSH2 0x364 PUSH1 0x1F DUP3 ADD PUSH1 0x1F NOT AND DUP12 ADD DUP4 PUSH2 0x4F3 JUMP JUMPDEST DUP2 MSTORE DUP1 SWAP3 DUP10 RETURNDATASIZE SWAP3 ADD RETURNDATACOPY JUMPDEST DUP4 PUSH2 0x541 JUMP JUMPDEST DUP1 MLOAD SWAP1 DUP7 DUP3 ISZERO ISZERO SWAP3 DUP4 PUSH2 0x3C4 JUMPI JUMPDEST POP POP POP PUSH2 0x3B2 JUMPI POP POP POP MLOAD PUSH32 0x439148F0BBC682CA079E46D6E2C2F0C1E3B820F1A291B069D8882ABF8CF18DD9 DUP2 MSTORE RETURN JUMPDEST DUP4 MLOAD PUSH4 0x5274AFE7 PUSH1 0xE0 SHL DUP2 MSTORE SWAP2 DUP3 ADD MSTORE REVERT JUMPDEST PUSH2 0x3D4 SWAP4 POP DUP3 ADD DUP2 ADD SWAP2 ADD PUSH2 0x529 JUMP JUMPDEST ISZERO PUSH0 DUP7 DUP2 PUSH2 0x382 JUMP JUMPDEST PUSH4 0x4E487B71 PUSH1 0xE0 SHL DUP4 MSTORE PUSH1 0x41 DUP6 MSTORE DUP6 DUP4 REVERT JUMPDEST POP PUSH2 0x374 SWAP2 POP PUSH1 0x60 SWAP1 PUSH2 0x36E JUMP JUMPDEST PUSH4 0x4E487B71 PUSH1 0xE0 SHL DUP6 MSTORE PUSH1 0x41 DUP8 MSTORE DUP8 DUP6 REVERT JUMPDEST PUSH4 0x4E487B71 PUSH1 0xE0 SHL DUP3 MSTORE PUSH1 0x11 DUP5 MSTORE DUP5 DUP3 REVERT JUMPDEST DUP6 MLOAD PUSH3 0x461BCD PUSH1 0xE5 SHL DUP2 MSTORE PUSH1 0x20 DUP2 DUP7 ADD MSTORE PUSH1 0x16 DUP2 DUP8 ADD MSTORE PUSH22 0x2AB73932B1B7B3B734BD32B21034B734BA34B0BA37B9 PUSH1 0x51 SHL PUSH1 0x44 DUP3 ADD MSTORE PUSH1 0x64 SWAP1 REVERT JUMPDEST PUSH3 0x461BCD PUSH1 0xE5 SHL DUP2 MSTORE PUSH1 0x20 DUP8 DUP3 ADD MSTORE PUSH1 0x22 DUP9 DUP3 ADD MSTORE PUSH32 0x4F6E6C79206C656E6465722063616E2063616C6C20746869732066756E637469 PUSH1 0x44 DUP3 ADD MSTORE PUSH2 0x37B7 PUSH1 0xF1 SHL PUSH1 0x64 DUP3 ADD MSTORE PUSH1 0x84 SWAP1 REVERT JUMPDEST DUP6 DUP1 REVERT JUMPDEST PUSH1 0x4 CALLDATALOAD SWAP1 PUSH1 0x1 PUSH1 0x1 PUSH1 0xA0 SHL SUB DUP3 AND DUP3 SUB PUSH2 0x4C1 JUMPI JUMP JUMPDEST PUSH0 DUP1 REVERT JUMPDEST SWAP2 DUP2 PUSH1 0x1F DUP5 ADD SLT ISZERO PUSH2 0x4C1 JUMPI DUP3 CALLDATALOAD SWAP2 PUSH8 0xFFFFFFFFFFFFFFFF DUP4 GT PUSH2 0x4C1 JUMPI PUSH1 0x20 DUP4 DUP2 DUP7 ADD SWAP6 ADD ADD GT PUSH2 0x4C1 JUMPI JUMP JUMPDEST SWAP1 PUSH1 0x1F DUP1 NOT SWAP2 ADD AND DUP2 ADD SWAP1 DUP2 LT PUSH8 0xFFFFFFFFFFFFFFFF DUP3 GT OR PUSH2 0x515 JUMPI PUSH1 0x40 MSTORE JUMP JUMPDEST PUSH4 0x4E487B71 PUSH1 0xE0 SHL PUSH0 MSTORE PUSH1 0x41 PUSH1 0x4 MSTORE PUSH1 0x24 PUSH0 REVERT JUMPDEST SWAP1 DUP2 PUSH1 0x20 SWAP2 SUB SLT PUSH2 0x4C1 JUMPI MLOAD DUP1 ISZERO ISZERO DUP2 SUB PUSH2 0x4C1 JUMPI SWAP1 JUMP JUMPDEST SWAP1 PUSH2 0x568 JUMPI POP DUP1 MLOAD ISZERO PUSH2 0x556 JUMPI DUP1 MLOAD SWAP1 PUSH1 0x20 ADD REVERT JUMPDEST PUSH1 0x40 MLOAD PUSH4 0xA12F521 PUSH1 0xE1 SHL DUP2 MSTORE PUSH1 0x4 SWAP1 REVERT JUMPDEST DUP2 MLOAD ISZERO DUP1 PUSH2 0x59B JUMPI JUMPDEST PUSH2 0x579 JUMPI POP SWAP1 JUMP JUMPDEST PUSH1 0x40 MLOAD PUSH4 0x9996B315 PUSH1 0xE0 SHL DUP2 MSTORE PUSH1 0x1 PUSH1 0x1 PUSH1 0xA0 SHL SUB SWAP1 SWAP2 AND PUSH1 0x4 DUP3 ADD MSTORE PUSH1 0x24 SWAP1 REVERT JUMPDEST POP DUP1 EXTCODESIZE ISZERO PUSH2 0x571 JUMP INVALID LOG2 PUSH5 0x6970667358 0x22 SLT KECCAK256 0xDE 0xDC PUSH20 0x77EE90716C2E1C7EFE1EE346359F500AC009FEF2 CREATE LOG0 LOG4 0xFC EXTCODECOPY GASPRICE 0x4D PUSH28 0x464736F6C6343000814003300000000000000000000000000000000 "
		},
		"gasEstimates": {
			"creation": {
				"codeDepositCost": "299600",
				"executionCost": "infinite",
				"totalCost": "infinite"
			},
			"external": {
				"admin()": "2383",
				"lender()": "2366",
				"onFlashLoan(address,address,uint256,uint256,bytes)": "infinite",
				"requestFlashLoan(address,uint256,bytes)": "infinite",
				"setLender(address)": "26645"
			}
		},
		"methodIdentifiers": {
			"admin()": "f851a440",
			"lender()": "bcead63e",
			"onFlashLoan(address,address,uint256,uint256,bytes)": "23e30c8b",
			"requestFlashLoan(address,uint256,bytes)": "5107d61e",
			"setLender(address)": "46e368d4"
		}
	},
	"abi": [
		{
			"inputs": [
				{
					"internalType": "address",
					"name": "_lender",
					"type": "address"
				}
			],
			"stateMutability": "nonpayable",
			"type": "constructor"
		},
		{
			"inputs": [
				{
					"internalType": "address",
					"name": "target",
					"type": "address"
				}
			],
			"name": "AddressEmptyCode",
			"type": "error"
		},
		{
			"inputs": [
				{
					"internalType": "address",
					"name": "account",
					"type": "address"
				}
			],
			"name": "AddressInsufficientBalance",
			"type": "error"
		},
		{
			"inputs": [],
			"name": "FailedInnerCall",
			"type": "error"
		},
		{
			"inputs": [
				{
					"internalType": "address",
					"name": "token",
					"type": "address"
				}
			],
			"name": "SafeERC20FailedOperation",
			"type": "error"
		},
		{
			"inputs": [],
			"name": "admin",
			"outputs": [
				{
					"internalType": "address",
					"name": "",
					"type": "address"
				}
			],
			"stateMutability": "view",
			"type": "function"
		},
		{
			"inputs": [],
			"name": "lender",
			"outputs": [
				{
					"internalType": "contract IERC3156FlashLender",
					"name": "",
					"type": "address"
				}
			],
			"stateMutability": "view",
			"type": "function"
		},
		{
			"inputs": [
				{
					"internalType": "address",
					"name": "initiator",
					"type": "address"
				},
				{
					"internalType": "address",
					"name": "token",
					"type": "address"
				},
				{
					"internalType": "uint256",
					"name": "amount",
					"type": "uint256"
				},
				{
					"internalType": "uint256",
					"name": "fee",
					"type": "uint256"
				},
				{
					"internalType": "bytes",
					"name": "data",
					"type": "bytes"
				}
			],
			"name": "onFlashLoan",
			"outputs": [
				{
					"internalType": "bytes32",
					"name": "",
					"type": "bytes32"
				}
			],
			"stateMutability": "nonpayable",
			"type": "function"
		},
		{
			"inputs": [
				{
					"internalType": "address",
					"name": "token",
					"type": "address"
				},
				{
					"internalType": "uint256",
					"name": "amount",
					"type": "uint256"
				},
				{
					"internalType": "bytes",
					"name": "data",
					"type": "bytes"
				}
			],
			"name": "requestFlashLoan",
			"outputs": [],
			"stateMutability": "nonpayable",
			"type": "function"
		},
		{
			"inputs": [
				{
					"internalType": "address",
					"name": "_lender",
					"type": "address"
				}
			],
			"name": "setLender",
			"outputs": [],
			"stateMutability": "nonpayable",
			"type": "function"
		}
	]
}