{
	"data": {
		"bytecode": {
			"linkReferences": {},
			"object": "60c0346100b9574660a052602081017f8cad95687ba82c2ce50e74f7b754645e5117c3a5bec8151c0726d5857980a86681527f9ac997416e8ff9d2ff6bebeb7149f65cdae5e32e2b90440b566bb3044041d36a60408301524660608301523060808301526080825260a082019180831060018060401b038411176100a55782604052519020608052611b5590816100be823960805181611789015260a051816117630152f35b634e487b7160e01b5f52604160045260245ffd5b5f80fdfe60406080815260049081361015610014575f80fd5b5f90813560e01c80630d58b1db14610e84578063137c29fe14610d015780632a2d80d114610ab95780632b67b5701461094357806330f28b7a146108805780633644e5151461085d57806336c78516146108135780633ff9dcb1146107b15780634fe02b441461077257806365d9723c1461066257806387517c4514610581578063927da105146104f5578063cc53287f14610414578063edd9444b146102e85763fe8ec1a7146100c3575f80fd5b346102e45760c03660031901126102e4576001600160401b0383358181116102e0576100f29036908601611167565b6024358281116102dc576101099036908701611137565b61011161104b565b916084358581116102d8576101299036908a016110e0565b98909560a4359081116102d457610142913691016110e0565b96909581519061015182610fae565b606b82527f5065726d697442617463685769746e6573735472616e7366657246726f6d285460208301527f6f6b656e5065726d697373696f6e735b5d207065726d69747465642c61646472838301527f657373207370656e6465722c75696e74323536206e6f6e63652c75696e74323560608301526a0d88191958591b1a5b994b60aa1b608083015282519a8b91816101ee60208501809661189b565b918237018a81520399610209601f199b8c8101835282610fe4565b5190209085515161021981611505565b908a5b8181106102a75750506102a4999a61029b91835161024e81610242602082018095611545565b03848101835282610fe4565b519020602089810151858b015195519182019687526040820192909252336060820152608081019190915260a081019390935260643560c08401528260e081015b03908101835282610fe4565b51902093611957565b80f35b806102bf6102b96102cf938c516114f1565b5161184c565b6102c982866114f1565b52611537565b61021c565b8880fd5b8780fd5b8480fd5b8380fd5b5080fd5b5091346102e45760803660031901126102e4576001600160401b039080358281116102e05761031a9036908301611167565b6024358381116102dc576103319036908401611137565b93909261033c61104b565b9160643590811161041057610353913691016110e0565b9490938351519761036389611505565b98885b8181106103ee5750506102a49798815161039681610388602082018095611545565b03601f198101835282610fe4565b5190206020860151828701519083519260208401947ffcf35f5ac6a2c28868dc44c302166470266239195f02b0ee408334829333b7668652840152336060840152608083015260a082015260a0815261029b81610fc9565b808b6102c9826104056102b961040b968d516114f1565b926114f1565b610366565b8680fd5b5082346104f157602090816003193601126102e0578035906001600160401b0382116102dc5761044691369101611137565b929091845b848110610456578580f35b8061046c6104676001938888611633565b611643565b6104818461047b848a8a611633565b01611643565b33895283855285892091848060a01b0380911692838b528652868a20911690818a5285528589206bffffffffffffffffffffffff60a01b81541690558551918252848201527f89b1add15eff56b3dfe299ad94e01f2b52fbcb80ae1a3baea6ae8c04cb2b98a4853392a20161044b565b8280fd5b50346102e45760603660031901126102e45761057d8161051361101f565b9361051c611035565b61052461104b565b6001600160a01b03968716835260016020908152848420928816845291825283832090871683528152919020549251938316845260a083901c65ffffffffffff169084015260d09190911c604083015281906060820190565b0390f35b50346102e45760803660031901126102e45761059b61101f565b906105a4611035565b916105ad61104b565b906064359265ffffffffffff93848116908181036102d8577fda9fa7c1b00402c17d0161b249b1ab8bbec047c5a52207b9c112deffd817036b9333895260016020528389209660018060a01b0380921697888b5260205281858b20991698898b52602052848a209284155f1461065a57504216905b82546001600160d01b03191660a09290921b65ffffffffffff60a01b169190911795169485179055815193845260208401523392a480f35b905090610622565b5082346104f15760603660031901126104f15761067d61101f565b90610686611035565b9265ffffffffffff60443581811693908481036102d857338852602091600183528489209660018060a01b0380911697888b528452858a20981697888a5283528489205460d01c93848711156107635761ffff90858403161161075557503380895260018352848920878a528352848920888a52835284892080546001600160d01b031660d09390931b6001600160d01b03191692909217909155835194855290840191909152917f55eb90d810e1700b35a8e7e25395ff7f2b2259abd7415ca2284dfb1c246418f39190a480f35b8451631269ad1360e11b8152fd5b508451633ab3447f60e11b8152fd5b50346102e457806003193601126102e45760209181906001600160a01b0361079861101f565b1681528084528181206024358252845220549051908152f35b5082346104f157816003193601126104f1577f3704902f963766a4e561bbaab6e6cdc1b1dd12f6e9e99648da8843b3f46b918d90359160243533855284602052818520848652602052818520818154179055815193845260208401523392a280f35b823461085a57608036600319011261085a5761082d61101f565b610835611035565b61083d61104b565b606435916001600160a01b03831683036102dc576102a493611571565b80fd5b50346102e457816003193601126102e457602090610879611760565b9051908152f35b508290346104f1576101003660031901126104f15761089e36611075565b90806083193601126102e0576108b2611005565b9160e4356001600160401b03811161093f576102a4946108d4913691016110e0565b9390926108e1835161184c565b6020840151828501519083519260208401947f939c21a48a8dbe3a9a2404a1d46691e4d39f6583d6ec6b35714604c986d801068652840152336060840152608083015260a082015260a0815261093681610fc9565b519020916118c4565b8580fd5b5091346102e4576101003660031901126102e45761095f61101f565b366023190160c081126102e057608085519161097a83610f93565b126102e05784519061098b82610f64565b6001600160a01b03916024358381168103610410578152604435838116810361041057602082015265ffffffffffff60643581811681036102d857888301526084359081168103610410576060820152815260a43593828516850361093f576020820194855260c4359087830182815260e4356001600160401b0381116102d457610a1990369084016110e0565b929093804211610aa3575050918591610a936102a4999a610a9995610a3e885161125f565b90898c511690519083519260208401947ff3841cd1ff0085026a6327b620b67997ce40f282c88a8e905a7a5626e310f3d086528401526060830152608082015260808152610a8b81610fae565b51902061181b565b916112fc565b5192511691611657565b8a5163cd21db4f60e01b81529182015260249150fd5b5091346102e45760606003199181833601126102e057610ad761101f565b92602435916001600160401b0391828411610410578490843603011261093f57865196610b0388610f93565b838201358381116102d8578401366023820112156102d8578281013590610b298261110d565b90610b3684519283610fe4565b82825260209260248484019160071b83010191368311610cfd57602401905b828210610ca15750505089526044610b6f60248701611061565b95828b01968752013593828a0190858252604435908111610c9d57610b9790369086016110e0565b949095804211610c875750508998995151610bb181611505565b908b5b818110610c6457505092889492610a9392610c3197958351610bdd816103888682018095611545565b5190209060018060a01b039a8b8b51169151928551948501957faf1b0d30d2cab0380e68f0689007e3254993c596f2fdd0aaa7f4d04f794408638752850152830152608082015260808152610a8b81610fae565b51169082515192845b848110610c45578580f35b80610c5e8585610c5860019587516114f1565b51611657565b01610c3a565b806102bf610c798e9f9e93610c7f94516114f1565b5161125f565b9b9a9b610bb4565b845163cd21db4f60e01b81529182015260249150fd5b8980fd5b608082360312610cfd57846080918751610cba81610f64565b610cc385611061565b8152610cd0838601611061565b83820152610cdf898601611124565b89820152610cee8d8601611124565b8d820152815201910190610b55565b8b80fd5b5082346104f1576101403660031901126104f157610d1e36611075565b91806083193601126102e057610d32611005565b6001600160401b0393906101043585811161041057610d5490369086016110e0565b9093610124359687116102d857610d74610936966102a4983691016110e0565b969095825190610d8382610fae565b606482527f5065726d69745769746e6573735472616e7366657246726f6d28546f6b656e5060208301527f65726d697373696f6e73207065726d69747465642c6164647265737320737065848301527f6e6465722c75696e74323536206e6f6e63652c75696e7432353620646561646c6060830152631a5b994b60e21b6080830152835194859181610e1960208501809661189b565b918237018b81520393610e34601f1995868101835282610fe4565b51902092610e42865161184c565b6020878101518589015195519182019687526040820192909252336060820152608081019190915260a081019390935260e43560c08401528260e0810161028f565b5082346104f1576020806003193601126102e05781356001600160401b039283821161093f573660238301121561093f578101359283116102dc576024906007368386831b8401011161041057865b858110610ede578780f35b80821b830190608060231983360301126102d457610f5e888760019460608351610f0781610f64565b610f436084610f178d8601611061565b94858452610f2760448201611061565b8097850152610f3860648201611061565b809885015201611061565b9182910152868060a01b038080809316951693169116611571565b01610ed3565b608081019081106001600160401b03821117610f7f57604052565b634e487b7160e01b5f52604160045260245ffd5b606081019081106001600160401b03821117610f7f57604052565b60a081019081106001600160401b03821117610f7f57604052565b60c081019081106001600160401b03821117610f7f57604052565b90601f801991011681019081106001600160401b03821117610f7f57604052565b60c435906001600160a01b038216820361101b57565b5f80fd5b600435906001600160a01b038216820361101b57565b602435906001600160a01b038216820361101b57565b604435906001600160a01b038216820361101b57565b35906001600160a01b038216820361101b57565b60031901906080821261101b57604080519061109082610f93565b8082941261101b5780518181018181106001600160401b03821117610f7f5782526004356001600160a01b038116810361101b578152602435602082015282526044356020830152606435910152565b9181601f8401121561101b578235916001600160401b03831161101b576020838186019501011161101b57565b6001600160401b038111610f7f5760051b60200190565b359065ffffffffffff8216820361101b57565b9181601f8401121561101b578235916001600160401b03831161101b576020808501948460061b01011161101b57565b91909160608184031261101b57604080519161118283610f93565b829481356001600160401b039081811161101b57830182601f8201121561101b5780356111ae8161110d565b926111bb87519485610fe4565b818452602094858086019360061b8501019381851161101b579086899897969594939201925b8484106111fe575050505050855280820135908501520135910152565b90919293949596978483031261101b57885190898201908282108583111761124b578a928992845261122f87611061565b81528287013583820152815201930191908897969594936111e1565b60245f634e487b7160e01b81526041600452fd5b60405160208101917f65626cad6cb96493bf6f5ebea28756c966f023ab9e8a83a7101849d5573b3678835260018060a01b038082511660408401526020820151166060830152606065ffffffffffff9182604082015116608085015201511660a082015260a0815260c081018181106001600160401b03821117610f7f5760405251902090565b919082604091031261101b576020823592013590565b5f843b6114185750604182036113b557611318828201826112e6565b939092604010156113a1576020935f9360ff6040608095013560f81c5b60405194855216868401526040830152606082015282805260015afa15611396575f516001600160a01b0390811691821561138457160361137257565b604051632057875960e21b8152600490fd5b604051638baa579f60e01b8152600490fd5b6040513d5f823e3d90fd5b634e487b7160e01b5f52603260045260245ffd5b60408203611406576113c9918101906112e6565b6001600160ff1b0381169260ff91821c601b019182116113f2576020935f9360ff608094611335565b634e487b7160e01b5f52601160045260245ffd5b604051634be6321b60e01b8152600490fd5b918093946020926064604051809781958294630b135d3f60e11b9b8c8552600485015260406024850152816044850152848401378181018301889052601f01601f191681010301916001600160a01b03165afa9182156114e457819261149e575b50506001600160e01b0319160361148c57565b604051632c19a72f60e21b8152600490fd5b9091506020813d82116114dc575b816114b960209383610fe4565b810103126102e45751906001600160e01b03198216820361085a57505f80611479565b3d91506114ac565b50604051903d90823e3d90fd5b80518210156113a15760209160051b010190565b9061150f8261110d565b61151c6040519182610fe4565b828152809261152d601f199161110d565b0190602036910137565b5f1981146113f25760010190565b80516020809201915f5b82811061155d575050505090565b83518552938101939281019260010161154f565b92919260018060a01b0360405f8284168152600160205282828220961695868252602052818120338252602052209485549565ffffffffffff8760a01c1680421161161b5750828716968388036115d3575b50506115d195501692611a9a565b565b87848416115f146115f75760405163f96fb07160e01b815260048101899052602490fd5b83836115d1990316906bffffffffffffffffffffffff60a01b161790555f806115c3565b60249060405190636c0d979760e11b82526004820152fd5b91908110156113a15760061b0190565b356001600160a01b038116810361101b5790565b9065ffffffffffff908160608401511660018060a01b0390818551169482602082015116928086604080940151169516955f9187835260016020528383208984526020528383209916988983526020528282209184835460d01c0361174f57918561174394927fc6a377bfc4eb120024a8ac08eef205be16b817020812c73223e81d1bdb9708ec989796945087155f146117485742165b6001850160d01b6001600160d01b03191660a09190911b65ffffffffffff60a01b1617179055516001600160a01b03909316835265ffffffffffff938416602084015290921660408201529081906060820190565b0390a4565b50866116ee565b8351633ab3447f60e11b8152600490fd5b467f0000000000000000000000000000000000000000000000000000000000000000036117ab577f000000000000000000000000000000000000000000000000000000000000000090565b60405160208101907f8cad95687ba82c2ce50e74f7b754645e5117c3a5bec8151c0726d5857980a86682527f9ac997416e8ff9d2ff6bebeb7149f65cdae5e32e2b90440b566bb3044041d36a60408201524660608201523060808201526080815261181581610fae565b51902090565b611823611760565b9060405190602082019261190160f01b8452602283015260428201526042815261181581610f64565b6040516020808201927f618358ac3db8dc274f0cd8829da7e234bd48cd73c4a740aede1adec9846d06a1845260018060a01b038151166040840152015160608201526060815261181581610f64565b908151915f5b8381106118b1575050015f815290565b80602080928401015181850152016118a1565b9192909360a43593604084015180421161193f57506020845101518086116119275750918591610a93611904946118ff602088015186611a51565b61181b565b51516001600160a01b0390811692608435918216820361101b576115d193611a9a565b60249060405190633728b83d60e01b82526004820152fd5b6024906040519063cd21db4f60e01b82526004820152fd5b959093958051519560409283830151804211611a3a5750848803611a265761198e918691610a9360209b6118ff8d88015186611a51565b5f5b8681106119a1575050505050505050565b6119ac8183516114f1565b51886119b983878a611633565b01359089810151808311611a0f5750918188888860019685966119e3575b50505050505001611990565b611a04956119fe92610467928a8060a01b0390511695611633565b91611a9a565b805f888888836119d7565b602490865190633728b83d60e01b82526004820152fd5b83516001621398b960e31b03198152600490fd5b60249085519063cd21db4f60e01b82526004820152fd5b90600160ff82161b9160018060a01b03165f525f60205260405f209060081c5f5260205260405f20818154188091551615611a8857565b604051633ab3447f60e11b8152600490fd5b915f8093602095606494604051946323b872dd60e01b865260018060a01b03809216600487015216602485015260448401525af13d15601f3d1160015f511416171615611ae357565b60405162461bcd60e51b81526020600482015260146024820152731514905394d1915497d19493d357d1905253115160621b6044820152606490fdfea26469706673582212202b49b0ab3fbf91560017c9cd7c1dd1a4ec7ac6c8afb6eb3a4ce5998949280af764736f6c63430008140033",
			"opcodes": "PUSH1 0xC0 CALLVALUE PUSH2 0xB9 JUMPI CHAINID PUSH1 0xA0 MSTORE PUSH1 0x20 DUP2 ADD PUSH32 0x8CAD95687BA82C2CE50E74F7B754645E5117C3A5BEC8151C0726D5857980A866 DUP2 MSTORE PUSH32 0x9AC997416E8FF9D2FF6BEBEB7149F65CDAE5E32E2B90440B566BB3044041D36A PUSH1 0x40 DUP4 ADD MSTORE CHAINID PUSH1 0x60 DUP4 ADD MSTORE ADDRESS PUSH1 0x80 DUP4 ADD MSTORE PUSH1 0x80 DUP3 MSTORE PUSH1 0xA0 DUP3 ADD SWAP2 DUP1 DUP4 LT PUSH1 0x1 DUP1 PUSH1 0x40 SHL SUB DUP5 GT OR PUSH2 0xA5 JUMPI DUP3 PUSH1 0x40 MSTORE MLOAD SWAP1 KECCAK256 PUSH1 0x80 MSTORE PUSH2 0x1B55 SWAP1 DUP2 PUSH2 0xBE DUP3 CODECOPY PUSH1 0x80 MLOAD DUP2 PUSH2 0x1789 ADD MSTORE PUSH1 0xA0 MLOAD DUP2 PUSH2 0x1763 ADD MSTORE RETURN JUMPDEST PUSH4 0x4E487B71 PUSH1 0xE0 SHL PUSH0 MSTORE PUSH1 0x41 PUSH1 0x4 MSTORE PUSH1 0x24 PUSH0 REVERT JUMPDEST PUSH0 DUP1 REVERT INVALID PUSH1 0x40 PUSH1 0x80 DUP2 MSTORE PUSH1 0x4 SWAP1 DUP2 CALLDATASIZE LT ISZERO PUSH2 0x14 JUMPI PUSH0 DUP1 REVERT JUMPDEST PUSH0 SWAP1 DUP2 CALLDATALOAD PUSH1 0xE0 SHR DUP1 PUSH4 0xD58B1DB EQ PUSH2 0xE84 JUMPI DUP1 PUSH4 0x137C29FE EQ PUSH2 0xD01 JUMPI DUP1 PUSH4 0x2A2D80D1 EQ PUSH2 0xAB9 JUMPI DUP1 PUSH4 0x2B67B570 EQ PUSH2 0x943 JUMPI DUP1 PUSH4 0x30F28B7A EQ PUSH2 0x880 JUMPI DUP1 PUSH4 0x3644E515 EQ PUSH2 0x85D JUMPI DUP1 PUSH4 0x36C78516 EQ PUSH2 0x813 JUMPI DUP1 PUSH4 0x3FF9DCB1 EQ PUSH2 0x7B1 JUMPI DUP1 PUSH4 0x4FE02B44 EQ PUSH2 0x772 JUMPI DUP1 PUSH4 0x65D9723C EQ PUSH2 0x662 JUMPI DUP1 PUSH4 0x87517C45 EQ PUSH2 0x581 JUMPI DUP1 PUSH4 0x927DA105 EQ PUSH2 0x4F5 JUMPI DUP1 PUSH4 0xCC53287F EQ PUSH2 0x414 JUMPI DUP1 PUSH4 0xEDD9444B EQ PUSH2 0x2E8 JUMPI PUSH4 0xFE8EC1A7 EQ PUSH2 0xC3 JUMPI PUSH0 DUP1 REVERT JUMPDEST CALLVALUE PUSH2 0x2E4 JUMPI PUSH1 0xC0 CALLDATASIZE PUSH1 0x3 NOT ADD SLT PUSH2 0x2E4 JUMPI PUSH1 0x1 PUSH1 0x1 PUSH1 0x40 SHL SUB DUP4 CALLDATALOAD DUP2 DUP2 GT PUSH2 0x2E0 JUMPI PUSH2 0xF2 SWAP1 CALLDATASIZE SWAP1 DUP7 ADD PUSH2 0x1167 JUMP JUMPDEST PUSH1 0x24 CALLDATALOAD DUP3 DUP2 GT PUSH2 0x2DC JUMPI PUSH2 0x109 SWAP1 CALLDATASIZE SWAP1 DUP8 ADD PUSH2 0x1137 JUMP JUMPDEST PUSH2 0x111 PUSH2 0x104B JUMP JUMPDEST SWAP2 PUSH1 0x84 CALLDATALOAD DUP6 DUP2 GT PUSH2 0x2D8 JUMPI PUSH2 0x129 SWAP1 CALLDATASIZE SWAP1 DUP11 ADD PUSH2 0x10E0 JUMP JUMPDEST SWAP9 SWAP1 SWAP6 PUSH1 0xA4 CALLDATALOAD SWAP1 DUP2 GT PUSH2 0x2D4 JUMPI PUSH2 0x142 SWAP2 CALLDATASIZE SWAP2 ADD PUSH2 0x10E0 JUMP JUMPDEST SWAP7 SWAP1 SWAP6 DUP2 MLOAD SWAP1 PUSH2 0x151 DUP3 PUSH2 0xFAE JUMP JUMPDEST PUSH1 0x6B DUP3 MSTORE PUSH32 0x5065726D697442617463685769746E6573735472616E7366657246726F6D2854 PUSH1 0x20 DUP4 ADD MSTORE PUSH32 0x6F6B656E5065726D697373696F6E735B5D207065726D69747465642C61646472 DUP4 DUP4 ADD MSTORE PUSH32 0x657373207370656E6465722C75696E74323536206E6F6E63652C75696E743235 PUSH1 0x60 DUP4 ADD MSTORE PUSH11 0xD88191958591B1A5B994B PUSH1 0xAA SHL PUSH1 0x80 DUP4 ADD MSTORE DUP3 MLOAD SWAP11 DUP12 SWAP2 DUP2 PUSH2 0x1EE PUSH1 0x20 DUP6 ADD DUP1 SWAP7 PUSH2 0x189B JUMP JUMPDEST SWAP2 DUP3 CALLDATACOPY ADD DUP11 DUP2 MSTORE SUB SWAP10 PUSH2 0x209 PUSH1 0x1F NOT SWAP12 DUP13 DUP2 ADD DUP4 MSTORE DUP3 PUSH2 0xFE4 JUMP JUMPDEST MLOAD SWAP1 KECCAK256 SWAP1 DUP6 MLOAD MLOAD PUSH2 0x219 DUP2 PUSH2 0x1505 JUMP JUMPDEST SWAP1 DUP11 JUMPDEST DUP2 DUP2 LT PUSH2 0x2A7 JUMPI POP POP PUSH2 0x2A4 SWAP10 SWAP11 PUSH2 0x29B SWAP2 DUP4 MLOAD PUSH2 0x24E DUP2 PUSH2 0x242 PUSH1 0x20 DUP3 ADD DUP1 SWAP6 PUSH2 0x1545 JUMP JUMPDEST SUB DUP5 DUP2 ADD DUP4 MSTORE DUP3 PUSH2 0xFE4 JUMP JUMPDEST MLOAD SWAP1 KECCAK256 PUSH1 0x20 DUP10 DUP2 ADD MLOAD DUP6 DUP12 ADD MLOAD SWAP6 MLOAD SWAP2 DUP3 ADD SWAP7 DUP8 MSTORE PUSH1 0x40 DUP3 ADD SWAP3 SWAP1 SWAP3 MSTORE CALLER PUSH1 0x60 DUP3 ADD MSTORE PUSH1 0x80 DUP2 ADD SWAP2 SWAP1 SWAP2 MSTORE PUSH1 0xA0 DUP2 ADD SWAP4 SWAP1 SWAP4 MSTORE PUSH1 0x64 CALLDATALOAD PUSH1 0xC0 DUP5 ADD MSTORE DUP3 PUSH1 0xE0 DUP2 ADD JUMPDEST SUB SWAP1 DUP2 ADD DUP4 MSTORE DUP3 PUSH2 0xFE4 JUMP JUMPDEST MLOAD SWAP1 KECCAK256 SWAP4 PUSH2 0x1957 JUMP JUMPDEST DUP1 RETURN JUMPDEST DUP1 PUSH2 0x2BF PUSH2 0x2B9 PUSH2 0x2CF SWAP4 DUP13 MLOAD PUSH2 0x14F1 JUMP JUMPDEST MLOAD PUSH2 0x184C JUMP JUMPDEST PUSH2 0x2C9 DUP3 DUP7 PUSH2 0x14F1 JUMP JUMPDEST MSTORE PUSH2 0x1537 JUMP JUMPDEST PUSH2 0x21C JUMP JUMPDEST DUP9 DUP1 REVERT JUMPDEST DUP8 DUP1 REVERT JUMPDEST DUP5 DUP1 REVERT JUMPDEST DUP4 DUP1 REVERT JUMPDEST POP DUP1 REVERT JUMPDEST POP SWAP2 CALLVALUE PUSH2 0x2E4 JUMPI PUSH1 0x80 CALLDATASIZE PUSH1 0x3 NOT ADD SLT PUSH2 0x2E4 JUMPI PUSH1 0x1 PUSH1 0x1 PUSH1 0x40 SHL SUB SWAP1 DUP1 CALLDATALOAD DUP3 DUP2 GT PUSH2 0x2E0 JUMPI PUSH2 0x31A SWAP1 CALLDATASIZE SWAP1 DUP4 ADD PUSH2 0x1167 JUMP JUMPDEST PUSH1 0x24 CALLDATALOAD DUP4 DUP2 GT PUSH2 0x2DC JUMPI PUSH2 0x331 SWAP1 CALLDATASIZE SWAP1 DUP5 ADD PUSH2 0x1137 JUMP JUMPDEST SWAP4 SWAP1 SWAP3 PUSH2 0x33C PUSH2 0x104B JUMP JUMPDEST SWAP2 PUSH1 0x64 CALLDATALOAD SWAP1 DUP2 GT PUSH2 0x410 JUMPI PUSH2 0x353 SWAP2 CALLDATASIZE SWAP2 ADD PUSH2 0x10E0 JUMP JUMPDEST SWAP5 SWAP1 SWAP4 DUP4 MLOAD MLOAD SWAP8 PUSH2 0x363 DUP10 PUSH2 0x1505 JUMP JUMPDEST SWAP9 DUP9 JUMPDEST DUP2 DUP2 LT PUSH2 0x3EE JUMPI POP POP PUSH2 0x2A4 SWAP8 SWAP9 DUP2 MLOAD PUSH2 0x396 DUP2 PUSH2 0x388 PUSH1 0x20 DUP3 ADD DUP1 SWAP6 PUSH2 0x1545 JUMP JUMPDEST SUB PUSH1 0x1F NOT DUP2 ADD DUP4 MSTORE DUP3 PUSH2 0xFE4 JUMP JUMPDEST MLOAD SWAP1 KECCAK256 PUSH1 0x20 DUP7 ADD MLOAD DUP3 DUP8 ADD MLOAD SWAP1 DUP4 MLOAD SWAP3 PUSH1 0x20 DUP5 ADD SWAP5 PUSH32 0xFCF35F5AC6A2C28868DC44C302166470266239195F02B0EE408334829333B766 DUP7 MSTORE DUP5 ADD MSTORE CALLER PUSH1 0x60 DUP5 ADD MSTORE PUSH1 0x80 DUP4 ADD MSTORE PUSH1 0xA0 DUP3 ADD MSTORE PUSH1 0xA0 DUP2 MSTORE PUSH2 0x29B DUP2 PUSH2 0xFC9 JUMP JUMPDEST DUP1 DUP12 PUSH2 0x2C9 DUP3 PUSH2 0x405 PUSH2 0x2B9 PUSH2 0x40B SWAP7 DUP14 MLOAD PUSH2 0x14F1 JUMP JUMPDEST SWAP3 PUSH2 0x14F1 JUMP JUMPDEST PUSH2 0x366 JUMP JUMPDEST DUP7 DUP1 REVERT JUMPDEST POP DUP3 CALLVALUE PUSH2 0x4F1 JUMPI PUSH1 0x20 SWAP1 DUP2 PUSH1 0x3 NOT CALLDATASIZE ADD SLT PUSH2 0x2E0 JUMPI DUP1 CALLDATALOAD SWAP1 PUSH1 0x1 PUSH1 0x1 PUSH1 0x40 SHL SUB DUP3 GT PUSH2 0x2DC JUMPI PUSH2 0x446 SWAP2 CALLDATASIZE SWAP2 ADD PUSH2 0x1137 JUMP JUMPDEST SWAP3 SWAP1 SWAP2 DUP5 JUMPDEST DUP5 DUP2 LT PUSH2 0x456 JUMPI DUP6 DUP1 RETURN JUMPDEST DUP1 PUSH2 0x46C PUSH2 0x467 PUSH1 0x1 SWAP4 DUP9 DUP9 PUSH2 0x1633 JUMP JUMPDEST PUSH2 0x1643 JUMP JUMPDEST PUSH2 0x481 DUP5 PUSH2 0x47B DUP5 DUP11 DUP11 PUSH2 0x1633 JUMP JUMPDEST ADD PUSH2 0x1643 JUMP JUMPDEST CALLER DUP10 MSTORE DUP4 DUP6 MSTORE DUP6 DUP10 KECCAK256 SWAP2 DUP5 DUP1 PUSH1 0xA0 SHL SUB DUP1 SWAP2 AND SWAP3 DUP4 DUP12 MSTORE DUP7 MSTORE DUP7 DUP11 KECCAK256 SWAP2 AND SWAP1 DUP2 DUP11 MSTORE DUP6 MSTORE DUP6 DUP10 KECCAK256 PUSH12 0xFFFFFFFFFFFFFFFFFFFFFFFF PUSH1 0xA0 SHL DUP2 SLOAD AND SWAP1 SSTORE DUP6 MLOAD SWAP2 DUP3 MSTORE DUP5 DUP3 ADD MSTORE PUSH32 0x89B1ADD15EFF56B3DFE299AD94E01F2B52FBCB80AE1A3BAEA6AE8C04CB2B98A4 DUP6 CALLER SWAP3 LOG2 ADD PUSH2 0x44B JUMP JUMPDEST DUP3 DUP1 REVERT JUMPDEST POP CALLVALUE PUSH2 0x2E4 JUMPI PUSH1 0x60 CALLDATASIZE PUSH1 0x3 NOT ADD SLT PUSH2 0x2E4 JUMPI PUSH2 0x57D DUP2 PUSH2 0x513 PUSH2 0x101F JUMP JUMPDEST SWAP4 PUSH2 0x51C PUSH2 0x1035 JUMP JUMPDEST PUSH2 0x524 PUSH2 0x104B JUMP JUMPDEST PUSH1 0x1 PUSH1 0x1 PUSH1 0xA0 SHL SUB SWAP7 DUP8 AND DUP4 MSTORE PUSH1 0x1 PUSH1 0x20 SWAP1 DUP2 MSTORE DUP5 DUP5 KECCAK256 SWAP3 DUP9 AND DUP5 MSTORE SWAP2 DUP3 MSTORE DUP4 DUP4 KECCAK256 SWAP1 DUP8 AND DUP4 MSTORE DUP2 MSTORE SWAP2 SWAP1 KECCAK256 SLOAD SWAP3 MLOAD SWAP4 DUP4 AND DUP5 MSTORE PUSH1 0xA0 DUP4 SWAP1 SHR PUSH6 0xFFFFFFFFFFFF AND SWAP1 DUP5 ADD MSTORE PUSH1 0xD0 SWAP2 SWAP1 SWAP2 SHR PUSH1 0x40 DUP4 ADD MSTORE DUP2 SWAP1 PUSH1 0x60 DUP3 ADD SWAP1 JUMP JUMPDEST SUB SWAP1 RETURN JUMPDEST POP CALLVALUE PUSH2 0x2E4 JUMPI PUSH1 0x80 CALLDATASIZE PUSH1 0x3 NOT ADD SLT PUSH2 0x2E4 JUMPI PUSH2 0x59B PUSH2 0x101F JUMP JUMPDEST SWAP1 PUSH2 0x5A4 PUSH2 0x1035 JUMP JUMPDEST SWAP2 PUSH2 0x5AD PUSH2 0x104B JUMP JUMPDEST SWAP1 PUSH1 0x64 CALLDATALOAD SWAP3 PUSH6 0xFFFFFFFFFFFF SWAP4 DUP5 DUP2 AND SWAP1 DUP2 DUP2 SUB PUSH2 0x2D8 JUMPI PUSH32 0xDA9FA7C1B00402C17D0161B249B1AB8BBEC047C5A52207B9C112DEFFD817036B SWAP4 CALLER DUP10 MSTORE PUSH1 0x1 PUSH1 0x20 MSTORE DUP4 DUP10 KECCAK256 SWAP7 PUSH1 0x1 DUP1 PUSH1 0xA0 SHL SUB DUP1 SWAP3 AND SWAP8 DUP9 DUP12 MSTORE PUSH1 0x20 MSTORE DUP2 DUP6 DUP12 KECCAK256 SWAP10 AND SWAP9 DUP10 DUP12 MSTORE PUSH1 0x20 MSTORE DUP5 DUP11 KECCAK256 SWAP3 DUP5 ISZERO PUSH0 EQ PUSH2 0x65A JUMPI POP TIMESTAMP AND SWAP1 JUMPDEST DUP3 SLOAD PUSH1 0x1 PUSH1 0x1 PUSH1 0xD0 SHL SUB NOT AND PUSH1 0xA0 SWAP3 SWAP1 SWAP3 SHL PUSH6 0xFFFFFFFFFFFF PUSH1 0xA0 SHL AND SWAP2 SWAP1 SWAP2 OR SWAP6 AND SWAP5 DUP6 OR SWAP1 SSTORE DUP2 MLOAD SWAP4 DUP5 MSTORE PUSH1 0x20 DUP5 ADD MSTORE CALLER SWAP3 LOG4 DUP1 RETURN JUMPDEST SWAP1 POP SWAP1 PUSH2 0x622 JUMP JUMPDEST POP DUP3 CALLVALUE PUSH2 0x4F1 JUMPI PUSH1 0x60 CALLDATASIZE PUSH1 0x3 NOT ADD SLT PUSH2 0x4F1 JUMPI PUSH2 0x67D PUSH2 0x101F JUMP JUMPDEST SWAP1 PUSH2 0x686 PUSH2 0x1035 JUMP JUMPDEST SWAP3 PUSH6 0xFFFFFFFFFFFF PUSH1 0x44 CALLDATALOAD DUP2 DUP2 AND SWAP4 SWAP1 DUP5 DUP2 SUB PUSH2 0x2D8 JUMPI CALLER DUP9 MSTORE PUSH1 0x20 SWAP2 PUSH1 0x1 DUP4 MSTORE DUP5 DUP10 KECCAK256 SWAP7 PUSH1 0x1 DUP1 PUSH1 0xA0 SHL SUB DUP1 SWAP2 AND SWAP8 DUP9 DUP12 MSTORE DUP5 MSTORE DUP6 DUP11 KECCAK256 SWAP9 AND SWAP8 DUP9 DUP11 MSTORE DUP4 MSTORE DUP5 DUP10 KECCAK256 SLOAD PUSH1 0xD0 SHR SWAP4 DUP5 DUP8 GT ISZERO PUSH2 0x763 JUMPI PUSH2 0xFFFF SWAP1 DUP6 DUP5 SUB AND GT PUSH2 0x755 JUMPI POP CALLER DUP1 DUP10 MSTORE PUSH1 0x1 DUP4 MSTORE DUP5 DUP10 KECCAK256 DUP8 DUP11 MSTORE DUP4 MSTORE DUP5 DUP10 KECCAK256 DUP9 DUP11 MSTORE DUP4 MSTORE DUP5 DUP10 KECCAK256 DUP1 SLOAD PUSH1 0x1 PUSH1 0x1 PUSH1 0xD0 SHL SUB AND PUSH1 0xD0 SWAP4 SWAP1 SWAP4 SHL PUSH1 0x1 PUSH1 0x1 PUSH1 0xD0 SHL SUB NOT AND SWAP3 SWAP1 SWAP3 OR SWAP1 SWAP2 SSTORE DUP4 MLOAD SWAP5 DUP6 MSTORE SWAP1 DUP5 ADD SWAP2 SWAP1 SWAP2 MSTORE SWAP2 PUSH32 0x55EB90D810E1700B35A8E7E25395FF7F2B2259ABD7415CA2284DFB1C246418F3 SWAP2 SWAP1 LOG4 DUP1 RETURN JUMPDEST DUP5 MLOAD PUSH4 0x1269AD13 PUSH1 0xE1 SHL DUP2 MSTORE REVERT JUMPDEST POP DUP5 MLOAD PUSH4 0x3AB3447F PUSH1 0xE1 SHL DUP2 MSTORE REVERT JUMPDEST POP CALLVALUE PUSH2 0x2E4 JUMPI DUP1 PUSH1 0x3 NOT CALLDATASIZE ADD SLT PUSH2 0x2E4 JUMPI PUSH1 0x20 SWAP2 DUP2 SWAP1 PUSH1 0x1 PUSH1 0x1 PUSH1 0xA0 SHL SUB PUSH2 0x798 PUSH2 0x101F JUMP JUMPDEST AND DUP2 MSTORE DUP1 DUP5 MSTORE DUP2 DUP2 KECCAK256 PUSH1 0x24 CALLDATALOAD DUP3 MSTORE DUP5 MSTORE KECCAK256 SLOAD SWAP1 MLOAD SWAP1 DUP2 MSTORE RETURN JUMPDEST POP DUP3 CALLVALUE PUSH2 0x4F1 JUMPI DUP2 PUSH1 0x3 NOT CALLDATASIZE ADD SLT PUSH2 0x4F1 JUMPI PUSH32 0x3704902F963766A4E561BBAAB6E6CDC1B1DD12F6E9E99648DA8843B3F46B918D SWAP1 CALLDATALOAD SWAP2 PUSH1 0x24 CALLDATALOAD CALLER DUP6 MSTORE DUP5 PUSH1 0x20 MSTORE DUP2 DUP6 KECCAK256 DUP5 DUP7 MSTORE PUSH1 0x20 MSTORE DUP2 DUP6 KECCAK256 DUP2 DUP2 SLOAD OR SWAP1 SSTORE DUP2 MLOAD SWAP4 DUP5 MSTORE PUSH1 0x20 DUP5 ADD MSTORE CALLER SWAP3 LOG2 DUP1 RETURN JUMPDEST DUP3 CALLVALUE PUSH2 0x85A JUMPI PUSH1 0x80 CALLDATASIZE PUSH1 0x3 NOT ADD SLT PUSH2 0x85A JUMPI PUSH2 0x82D PUSH2 0x101F JUMP JUMPDEST PUSH2 0x835 PUSH2 0x1035 JUMP JUMPDEST PUSH2 0x83D PUSH2 0x104B JUMP JUMPDEST PUSH1 0x64 CALLDATALOAD SWAP2 PUSH1 0x1 PUSH1 0x1 PUSH1 0xA0 SHL SUB DUP4 AND DUP4 SUB PUSH2 0x2DC JUMPI PUSH2 0x2A4 SWAP4 PUSH2 0x1571 JUMP JUMPDEST DUP1 REVERT JUMPDEST POP CALLVALUE PUSH2 0x2E4 JUMPI DUP2 PUSH1 0x3 NOT CALLDATASIZE ADD SLT PUSH2 0x2E4 JUMPI PUSH1 0x20 SWAP1 PUSH2 0x879 PUSH2 0x1760 JUMP JUMPDEST SWAP1 MLOAD SWAP1 DUP2 MSTORE RETURN JUMPDEST POP DUP3 SWAP1 CALLVALUE PUSH2 0x4F1 JUMPI PUSH2 0x100 CALLDATASIZE PUSH1 0x3 NOT ADD SLT PUSH2 0x4F1 JUMPI PUSH2 0x89E CALLDATASIZE PUSH2 0x1075 JUMP JUMPDEST SWAP1 DUP1 PUSH1 0x83 NOT CALLDATASIZE ADD SLT PUSH2 0x2E0 JUMPI PUSH2 0x8B2 PUSH2 0x1005 JUMP JUMPDEST SWAP2 PUSH1 0xE4 CALLDATALOAD PUSH1 0x1 PUSH1 0x1 PUSH1 0x40 SHL SUB DUP2 GT PUSH2 0x93F JUMPI PUSH2 0x2A4 SWAP5 PUSH2 0x8D4 SWAP2 CALLDATASIZE SWAP2 ADD PUSH2 0x10E0 JUMP JUMPDEST SWAP4 SWAP1 SWAP3 PUSH2 0x8E1 DUP4 MLOAD PUSH2 0x184C JUMP JUMPDEST PUSH1 0x20 DUP5 ADD MLOAD DUP3 DUP6 ADD MLOAD SWAP1 DUP4 MLOAD SWAP3 PUSH1 0x20 DUP5 ADD SWAP5 PUSH32 0x939C21A48A8DBE3A9A2404A1D46691E4D39F6583D6EC6B35714604C986D80106 DUP7 MSTORE DUP5 ADD MSTORE CALLER PUSH1 0x60 DUP5 ADD MSTORE PUSH1 0x80 DUP4 ADD MSTORE PUSH1 0xA0 DUP3 ADD MSTORE PUSH1 0xA0 DUP2 MSTORE PUSH2 0x936 DUP2 PUSH2 0xFC9 JUMP JUMPDEST MLOAD SWAP1 KECCAK256 SWAP2 PUSH2 0x18C4 JUMP JUMPDEST DUP6 DUP1 REVERT JUMPDEST POP SWAP2 CALLVALUE PUSH2 0x2E4 JUMPI PUSH2 0x100 CALLDATASIZE PUSH1 0x3 NOT ADD SLT PUSH2 0x2E4 JUMPI PUSH2 0x95F PUSH2 0x101F JUMP JUMPDEST CALLDATASIZE PUSH1 0x23 NOT ADD PUSH1 0xC0 DUP2 SLT PUSH2 0x2E0 JUMPI PUSH1 0x80 DUP6 MLOAD SWAP2 PUSH2 0x97A DUP4 PUSH2 0xF93 JUMP JUMPDEST SLT PUSH2 0x2E0 JUMPI DUP5 MLOAD SWAP1 PUSH2 0x98B DUP3 PUSH2 0xF64 JUMP JUMPDEST PUSH1 0x1 PUSH1 0x1 PUSH1 0xA0 SHL SUB SWAP2 PUSH1 0x24 CALLDATALOAD DUP4 DUP2 AND DUP2 SUB PUSH2 0x410 JUMPI DUP2 MSTORE PUSH1 0x44 CALLDATALOAD DUP4 DUP2 AND DUP2 SUB PUSH2 0x410 JUMPI PUSH1 0x20 DUP3 ADD MSTORE PUSH6 0xFFFFFFFFFFFF PUSH1 0x64 CALLDATALOAD DUP2 DUP2 AND DUP2 SUB PUSH2 0x2D8 JUMPI DUP9 DUP4 ADD MSTORE PUSH1 0x84 CALLDATALOAD SWAP1 DUP2 AND DUP2 SUB PUSH2 0x410 JUMPI PUSH1 0x60 DUP3 ADD MSTORE DUP2 MSTORE PUSH1 0xA4 CALLDATALOAD SWAP4 DUP3 DUP6 AND DUP6 SUB PUSH2 0x93F JUMPI PUSH1 0x20 DUP3 ADD SWAP5 DUP6 MSTORE PUSH1 0xC4 CALLDATALOAD SWAP1 DUP8 DUP4 ADD DUP3 DUP2 MSTORE PUSH1 0xE4 CALLDATALOAD PUSH1 0x1 PUSH1 0x1 PUSH1 0x40 SHL SUB DUP2 GT PUSH2 0x2D4 JUMPI PUSH2 0xA19 SWAP1 CALLDATASIZE SWAP1 DUP5 ADD PUSH2 0x10E0 JUMP JUMPDEST SWAP3 SWAP1 SWAP4 DUP1 TIMESTAMP GT PUSH2 0xAA3 JUMPI POP POP SWAP2 DUP6 SWAP2 PUSH2 0xA93 PUSH2 0x2A4 SWAP10 SWAP11 PUSH2 0xA99 SWAP6 PUSH2 0xA3E DUP9 MLOAD PUSH2 0x125F JUMP JUMPDEST SWAP1 DUP10 DUP13 MLOAD AND SWAP1 MLOAD SWAP1 DUP4 MLOAD SWAP3 PUSH1 0x20 DUP5 ADD SWAP5 PUSH32 0xF3841CD1FF0085026A6327B620B67997CE40F282C88A8E905A7A5626E310F3D0 DUP7 MSTORE DUP5 ADD MSTORE PUSH1 0x60 DUP4 ADD MSTORE PUSH1 0x80 DUP3 ADD MSTORE PUSH1 0x80 DUP2 MSTORE PUSH2 0xA8B DUP2 PUSH2 0xFAE JUMP JUMPDEST MLOAD SWAP1 KECCAK256 PUSH2 0x181B JUMP JUMPDEST SWAP2 PUSH2 0x12FC JUMP JUMPDEST MLOAD SWAP3 MLOAD AND SWAP2 PUSH2 0x1657 JUMP JUMPDEST DUP11 MLOAD PUSH4 0xCD21DB4F PUSH1 0xE0 SHL DUP2 MSTORE SWAP2 DUP3 ADD MSTORE PUSH1 0x24 SWAP2 POP REVERT JUMPDEST POP SWAP2 CALLVALUE PUSH2 0x2E4 JUMPI PUSH1 0x60 PUSH1 0x3 NOT SWAP2 DUP2 DUP4 CALLDATASIZE ADD SLT PUSH2 0x2E0 JUMPI PUSH2 0xAD7 PUSH2 0x101F JUMP JUMPDEST SWAP3 PUSH1 0x24 CALLDATALOAD SWAP2 PUSH1 0x1 PUSH1 0x1 PUSH1 0x40 SHL SUB SWAP2 DUP3 DUP5 GT PUSH2 0x410 JUMPI DUP5 SWAP1 DUP5 CALLDATASIZE SUB ADD SLT PUSH2 0x93F JUMPI DUP7 MLOAD SWAP7 PUSH2 0xB03 DUP9 PUSH2 0xF93 JUMP JUMPDEST DUP4 DUP3 ADD CALLDATALOAD DUP4 DUP2 GT PUSH2 0x2D8 JUMPI DUP5 ADD CALLDATASIZE PUSH1 0x23 DUP3 ADD SLT ISZERO PUSH2 0x2D8 JUMPI DUP3 DUP2 ADD CALLDATALOAD SWAP1 PUSH2 0xB29 DUP3 PUSH2 0x110D JUMP JUMPDEST SWAP1 PUSH2 0xB36 DUP5 MLOAD SWAP3 DUP4 PUSH2 0xFE4 JUMP JUMPDEST DUP3 DUP3 MSTORE PUSH1 0x20 SWAP3 PUSH1 0x24 DUP5 DUP5 ADD SWAP2 PUSH1 0x7 SHL DUP4 ADD ADD SWAP2 CALLDATASIZE DUP4 GT PUSH2 0xCFD JUMPI PUSH1 0x24 ADD SWAP1 JUMPDEST DUP3 DUP3 LT PUSH2 0xCA1 JUMPI POP POP POP DUP10 MSTORE PUSH1 0x44 PUSH2 0xB6F PUSH1 0x24 DUP8 ADD PUSH2 0x1061 JUMP JUMPDEST SWAP6 DUP3 DUP12 ADD SWAP7 DUP8 MSTORE ADD CALLDATALOAD SWAP4 DUP3 DUP11 ADD SWAP1 DUP6 DUP3 MSTORE PUSH1 0x44 CALLDATALOAD SWAP1 DUP2 GT PUSH2 0xC9D JUMPI PUSH2 0xB97 SWAP1 CALLDATASIZE SWAP1 DUP7 ADD PUSH2 0x10E0 JUMP JUMPDEST SWAP5 SWAP1 SWAP6 DUP1 TIMESTAMP GT PUSH2 0xC87 JUMPI POP POP DUP10 SWAP9 SWAP10 MLOAD MLOAD PUSH2 0xBB1 DUP2 PUSH2 0x1505 JUMP JUMPDEST SWAP1 DUP12 JUMPDEST DUP2 DUP2 LT PUSH2 0xC64 JUMPI POP POP SWAP3 DUP9 SWAP5 SWAP3 PUSH2 0xA93 SWAP3 PUSH2 0xC31 SWAP8 SWAP6 DUP4 MLOAD PUSH2 0xBDD DUP2 PUSH2 0x388 DUP7 DUP3 ADD DUP1 SWAP6 PUSH2 0x1545 JUMP JUMPDEST MLOAD SWAP1 KECCAK256 SWAP1 PUSH1 0x1 DUP1 PUSH1 0xA0 SHL SUB SWAP11 DUP12 DUP12 MLOAD AND SWAP2 MLOAD SWAP3 DUP6 MLOAD SWAP5 DUP6 ADD SWAP6 PUSH32 0xAF1B0D30D2CAB0380E68F0689007E3254993C596F2FDD0AAA7F4D04F79440863 DUP8 MSTORE DUP6 ADD MSTORE DUP4 ADD MSTORE PUSH1 0x80 DUP3 ADD MSTORE PUSH1 0x80 DUP2 MSTORE PUSH2 0xA8B DUP2 PUSH2 0xFAE JUMP JUMPDEST MLOAD AND SWAP1 DUP3 MLOAD MLOAD SWAP3 DUP5 JUMPDEST DUP5 DUP2 LT PUSH2 0xC45 JUMPI DUP6 DUP1 RETURN JUMPDEST DUP1 PUSH2 0xC5E DUP6 DUP6 PUSH2 0xC58 PUSH1 0x1 SWAP6 DUP8 MLOAD PUSH2 0x14F1 JUMP JUMPDEST MLOAD PUSH2 0x1657 JUMP JUMPDEST ADD PUSH2 0xC3A JUMP JUMPDEST DUP1 PUSH2 0x2BF PUSH2 0xC79 DUP15 SWAP16 SWAP15 SWAP4 PUSH2 0xC7F SWAP5 MLOAD PUSH2 0x14F1 JUMP JUMPDEST MLOAD PUSH2 0x125F JUMP JUMPDEST SWAP12 SWAP11 SWAP12 PUSH2 0xBB4 JUMP JUMPDEST DUP5 MLOAD PUSH4 0xCD21DB4F PUSH1 0xE0 SHL DUP2 MSTORE SWAP2 DUP3 ADD MSTORE PUSH1 0x24 SWAP2 POP REVERT JUMPDEST DUP10 DUP1 REVERT JUMPDEST PUSH1 0x80 DUP3 CALLDATASIZE SUB SLT PUSH2 0xCFD JUMPI DUP5 PUSH1 0x80 SWAP2 DUP8 MLOAD PUSH2 0xCBA DUP2 PUSH2 0xF64 JUMP JUMPDEST PUSH2 0xCC3 DUP6 PUSH2 0x1061 JUMP JUMPDEST DUP2 MSTORE PUSH2 0xCD0 DUP4 DUP7 ADD PUSH2 0x1061 JUMP JUMPDEST DUP4 DUP3 ADD MSTORE PUSH2 0xCDF DUP10 DUP7 ADD PUSH2 0x1124 JUMP JUMPDEST DUP10 DUP3 ADD MSTORE PUSH2 0xCEE DUP14 DUP7 ADD PUSH2 0x1124 JUMP JUMPDEST DUP14 DUP3 ADD MSTORE DUP2 MSTORE ADD SWAP2 ADD SWAP1 PUSH2 0xB55 JUMP JUMPDEST DUP12 DUP1 REVERT JUMPDEST POP DUP3 CALLVALUE PUSH2 0x4F1 JUMPI PUSH2 0x140 CALLDATASIZE PUSH1 0x3 NOT ADD SLT PUSH2 0x4F1 JUMPI PUSH2 0xD1E CALLDATASIZE PUSH2 0x1075 JUMP JUMPDEST SWAP2 DUP1 PUSH1 0x83 NOT CALLDATASIZE ADD SLT PUSH2 0x2E0 JUMPI PUSH2 0xD32 PUSH2 0x1005 JUMP JUMPDEST PUSH1 0x1 PUSH1 0x1 PUSH1 0x40 SHL SUB SWAP4 SWAP1 PUSH2 0x104 CALLDATALOAD DUP6 DUP2 GT PUSH2 0x410 JUMPI PUSH2 0xD54 SWAP1 CALLDATASIZE SWAP1 DUP7 ADD PUSH2 0x10E0 JUMP JUMPDEST SWAP1 SWAP4 PUSH2 0x124 CALLDATALOAD SWAP7 DUP8 GT PUSH2 0x2D8 JUMPI PUSH2 0xD74 PUSH2 0x936 SWAP7 PUSH2 0x2A4 SWAP9 CALLDATASIZE SWAP2 ADD PUSH2 0x10E0 JUMP JUMPDEST SWAP7 SWAP1 SWAP6 DUP3 MLOAD SWAP1 PUSH2 0xD83 DUP3 PUSH2 0xFAE JUMP JUMPDEST PUSH1 0x64 DUP3 MSTORE PUSH32 0x5065726D69745769746E6573735472616E7366657246726F6D28546F6B656E50 PUSH1 0x20 DUP4 ADD MSTORE PUSH32 0x65726D697373696F6E73207065726D69747465642C6164647265737320737065 DUP5 DUP4 ADD MSTORE PUSH32 0x6E6465722C75696E74323536206E6F6E63652C75696E7432353620646561646C PUSH1 0x60 DUP4 ADD MSTORE PUSH4 0x1A5B994B PUSH1 0xE2 SHL PUSH1 0x80 DUP4 ADD MSTORE DUP4 MLOAD SWAP5 DUP6 SWAP2 DUP2 PUSH2 0xE19 PUSH1 0x20 DUP6 ADD DUP1 SWAP7 PUSH2 0x189B JUMP JUMPDEST SWAP2 DUP3 CALLDATACOPY ADD DUP12 DUP2 MSTORE SUB SWAP4 PUSH2 0xE34 PUSH1 0x1F NOT SWAP6 DUP7 DUP2 ADD DUP4 MSTORE DUP3 PUSH2 0xFE4 JUMP JUMPDEST MLOAD SWAP1 KECCAK256 SWAP3 PUSH2 0xE42 DUP7 MLOAD PUSH2 0x184C JUMP JUMPDEST PUSH1 0x20 DUP8 DUP2 ADD MLOAD DUP6 DUP10 ADD MLOAD SWAP6 MLOAD SWAP2 DUP3 ADD SWAP7 DUP8 MSTORE PUSH1 0x40 DUP3 ADD SWAP3 SWAP1 SWAP3 MSTORE CALLER PUSH1 0x60 DUP3 ADD MSTORE PUSH1 0x80 DUP2 ADD SWAP2 SWAP1 SWAP2 MSTORE PUSH1 0xA0 DUP2 ADD SWAP4 SWAP1 SWAP4 MSTORE PUSH1 0xE4 CALLDATALOAD PUSH1 0xC0 DUP5 ADD MSTORE DUP3 PUSH1 0xE0 DUP2 ADD PUSH2 0x28F JUMP JUMPDEST POP DUP3 CALLVALUE PUSH2 0x4F1 JUMPI PUSH1 0x20 DUP1 PUSH1 0x3 NOT CALLDATASIZE ADD SLT PUSH2 0x2E0 JUMPI DUP2 CALLDATALOAD PUSH1 0x1 PUSH1 0x1 PUSH1 0x40 SHL SUB SWAP3 DUP4 DUP3 GT PUSH2 0x93F JUMPI CALLDATASIZE PUSH1 0x23 DUP4 ADD SLT ISZERO PUSH2 0x93F JUMPI DUP2 ADD CALLDATALOAD SWAP3 DUP4 GT PUSH2 0x2DC JUMPI PUSH1 0x24 SWAP1 PUSH1 0x7 CALLDATASIZE DUP4 DUP7 DUP4 SHL DUP5 ADD ADD GT PUSH2 0x410 JUMPI DUP7 JUMPDEST DUP6 DUP2 LT PUSH2 0xEDE JUMPI DUP8 DUP1 RETURN JUMPDEST DUP1 DUP3 SHL DUP4 ADD SWAP1 PUSH1 0x80 PUSH1 0x23 NOT DUP4 CALLDATASIZE SUB ADD SLT PUSH2 0x2D4 JUMPI PUSH2 0xF5E DUP9 DUP8 PUSH1 0x1 SWAP5 PUSH1 0x60 DUP4 MLOAD PUSH2 0xF07 DUP2 PUSH2 0xF64 JUMP JUMPDEST PUSH2 0xF43 PUSH1 0x84 PUSH2 0xF17 DUP14 DUP7 ADD PUSH2 0x1061 JUMP JUMPDEST SWAP5 DUP6 DUP5 MSTORE PUSH2 0xF27 PUSH1 0x44 DUP3 ADD PUSH2 0x1061 JUMP JUMPDEST DUP1 SWAP8 DUP6 ADD MSTORE PUSH2 0xF38 PUSH1 0x64 DUP3 ADD PUSH2 0x1061 JUMP JUMPDEST DUP1 SWAP9 DUP6 ADD MSTORE ADD PUSH2 0x1061 JUMP JUMPDEST SWAP2 DUP3 SWAP2 ADD MSTORE DUP7 DUP1 PUSH1 0xA0 SHL SUB DUP1 DUP1 DUP1 SWAP4 AND SWAP6 AND SWAP4 AND SWAP2 AND PUSH2 0x1571 JUMP JUMPDEST ADD PUSH2 0xED3 JUMP JUMPDEST PUSH1 0x80 DUP2 ADD SWAP1 DUP2 LT PUSH1 0x1 PUSH1 0x1 PUSH1 0x40 SHL SUB DUP3 GT OR PUSH2 0xF7F JUMPI PUSH1 0x40 MSTORE JUMP JUMPDEST PUSH4 0x4E487B71 PUSH1 0xE0 SHL PUSH0 MSTORE PUSH1 0x41 PUSH1 0x4 MSTORE PUSH1 0x24 PUSH0 REVERT JUMPDEST PUSH1 0x60 DUP2 ADD SWAP1 DUP2 LT PUSH1 0x1 PUSH1 0x1 PUSH1 0x40 SHL SUB DUP3 GT OR PUSH2 0xF7F JUMPI PUSH1 0x40 MSTORE JUMP JUMPDEST PUSH1 0xA0 DUP2 ADD SWAP1 DUP2 LT PUSH1 0x1 PUSH1 0x1 PUSH1 0x40 SHL SUB DUP3 GT OR PUSH2 0xF7F JUMPI PUSH1 0x40 MSTORE JUMP JUMPDEST PUSH1 0xC0 DUP2 ADD SWAP1 DUP2 LT PUSH1 0x1 PUSH1 0x1 PUSH1 0x40 SHL SUB DUP3 GT OR PUSH2 0xF7F JUMPI PUSH1 0x40 MSTORE JUMP JUMPDEST SWAP1 PUSH1 0x1F DUP1 NOT SWAP2 ADD AND DUP2 ADD SWAP1 DUP2 LT PUSH1 0x1 PUSH1 0x1 PUSH1 0x40 SHL SUB DUP3 GT OR PUSH2 0xF7F JUMPI PUSH1 0x40 MSTORE JUMP JUMPDEST PUSH1 0xC4 CALLDATALOAD SWAP1 PUSH1 0x1 PUSH1 0x1 PUSH1 0xA0 SHL SUB DUP3 AND DUP3 SUB PUSH2 0x101B JUMPI JUMP JUMPDEST PUSH0 DUP1 REVERT JUMPDEST PUSH1 0x4 CALLDATALOAD SWAP1 PUSH1 0x1 PUSH1 0x1 PUSH1 0xA0 SHL SUB DUP3 AND DUP3 SUB PUSH2 0x101B JUMPI JUMP JUMPDEST PUSH1 0x24 CALLDATALOAD SWAP1 PUSH1 0x1 PUSH1 0x1 PUSH1 0xA0 SHL SUB DUP3 AND DUP3 SUB PUSH2 0x101B JUMPI JUMP JUMPDEST PUSH1 0x44 CALLDATALOAD SWAP1 PUSH1 0x1 PUSH1 0x1 PUSH1 0xA0 SHL SUB DUP3 AND DUP3 SUB PUSH2 0x101B JUMPI JUMP JUMPDEST CALLDATALOAD SWAP1 PUSH1 0x1 PUSH1 0x1 PUSH1 0xA0 SHL SUB DUP3 AND DUP3 SUB PUSH2 0x101B JUMPI JUMP JUMPDEST PUSH1 0x3 NOT ADD SWAP1 PUSH1 0x80 DUP3 SLT PUSH2 0x101B JUMPI PUSH1 0x40 DUP1 MLOAD SWAP1 PUSH2 0x1090 DUP3 PUSH2 0xF93 JUMP JUMPDEST DUP1 DUP3 SWAP5 SLT PUSH2 0x101B JUMPI DUP1 MLOAD DUP2 DUP2 ADD DUP2 DUP2 LT PUSH1 0x1 PUSH1 0x1 PUSH1 0x40 SHL SUB DUP3 GT OR PUSH2 0xF7F JUMPI DUP3 MSTORE PUSH1 0x4 CALLDATALOAD PUSH1 0x1 PUSH1 0x1 PUSH1 0xA0 SHL SUB DUP2 AND DUP2 SUB PUSH2 0x101B JUMPI DUP2 MSTORE PUSH1 0x24 CALLDATALOAD PUSH1 0x20 DUP3 ADD MSTORE DUP3 MSTORE PUSH1 0x44 CALLDATALOAD PUSH1 0x20 DUP4 ADD MSTORE PUSH1 0x64 CALLDATALOAD SWAP2 ADD MSTORE JUMP JUMPDEST SWAP2 DUP2 PUSH1 0x1F DUP5 ADD SLT ISZERO PUSH2 0x101B JUMPI DUP3 CALLDATALOAD SWAP2 PUSH1 0x1 PUSH1 0x1 PUSH1 0x40 SHL SUB DUP4 GT PUSH2 0x101B JUMPI PUSH1 0x20 DUP4 DUP2 DUP7 ADD SWAP6 ADD ADD GT PUSH2 0x101B JUMPI JUMP JUMPDEST PUSH1 0x1 PUSH1 0x1 PUSH1 0x40 SHL SUB DUP2 GT PUSH2 0xF7F JUMPI PUSH1 0x5 SHL PUSH1 0x20 ADD SWAP1 JUMP JUMPDEST CALLDATALOAD SWAP1 PUSH6 0xFFFFFFFFFFFF DUP3 AND DUP3 SUB PUSH2 0x101B JUMPI JUMP JUMPDEST SWAP2 DUP2 PUSH1 0x1F DUP5 ADD SLT ISZERO PUSH2 0x101B JUMPI DUP3 CALLDATALOAD SWAP2 PUSH1 0x1 PUSH1 0x1 PUSH1 0x40 SHL SUB DUP4 GT PUSH2 0x101B JUMPI PUSH1 0x20 DUP1 DUP6 ADD SWAP5 DUP5 PUSH1 0x6 SHL ADD ADD GT PUSH2 0x101B JUMPI JUMP JUMPDEST SWAP2 SWAP1 SWAP2 PUSH1 0x60 DUP2 DUP5 SUB SLT PUSH2 0x101B JUMPI PUSH1 0x40 DUP1 MLOAD SWAP2 PUSH2 0x1182 DUP4 PUSH2 0xF93 JUMP JUMPDEST DUP3 SWAP5 DUP2 CALLDATALOAD PUSH1 0x1 PUSH1 0x1 PUSH1 0x40 SHL SUB SWAP1 DUP2 DUP2 GT PUSH2 0x101B JUMPI DUP4 ADD DUP3 PUSH1 0x1F DUP3 ADD SLT ISZERO PUSH2 0x101B JUMPI DUP1 CALLDATALOAD PUSH2 0x11AE DUP2 PUSH2 0x110D JUMP JUMPDEST SWAP3 PUSH2 0x11BB DUP8 MLOAD SWAP5 DUP6 PUSH2 0xFE4 JUMP JUMPDEST DUP2 DUP5 MSTORE PUSH1 0x20 SWAP5 DUP6 DUP1 DUP7 ADD SWAP4 PUSH1 0x6 SHL DUP6 ADD ADD SWAP4 DUP2 DUP6 GT PUSH2 0x101B JUMPI SWAP1 DUP7 DUP10 SWAP9 SWAP8 SWAP7 SWAP6 SWAP5 SWAP4 SWAP3 ADD SWAP3 JUMPDEST DUP5 DUP5 LT PUSH2 0x11FE JUMPI POP POP POP POP POP DUP6 MSTORE DUP1 DUP3 ADD CALLDATALOAD SWAP1 DUP6 ADD MSTORE ADD CALLDATALOAD SWAP2 ADD MSTORE JUMP JUMPDEST SWAP1 SWAP2 SWAP3 SWAP4 SWAP5 SWAP6 SWAP7 SWAP8 DUP5 DUP4 SUB SLT PUSH2 0x101B JUMPI DUP9 MLOAD SWAP1 DUP10 DUP3 ADD SWAP1 DUP3 DUP3 LT DUP6 DUP4 GT OR PUSH2 0x124B JUMPI DUP11 SWAP3 DUP10 SWAP3 DUP5 MSTORE PUSH2 0x122F DUP8 PUSH2 0x1061 JUMP JUMPDEST DUP2 MSTORE DUP3 DUP8 ADD CALLDATALOAD DUP4 DUP3 ADD MSTORE DUP2 MSTORE ADD SWAP4 ADD SWAP2 SWAP1 DUP9 SWAP8 SWAP7 SWAP6 SWAP5 SWAP4 PUSH2 0x11E1 JUMP JUMPDEST PUSH1 0x24 PUSH0 PUSH4 0x4E487B71 PUSH1 0xE0 SHL DUP2 MSTORE PUSH1 0x41 PUSH1 0x4 MSTORE REVERT JUMPDEST PUSH1 0x40 MLOAD PUSH1 0x20 DUP2 ADD SWAP2 PUSH32 0x65626CAD6CB96493BF6F5EBEA28756C966F023AB9E8A83A7101849D5573B3678 DUP4 MSTORE PUSH1 0x1 DUP1 PUSH1 0xA0 SHL SUB DUP1 DUP3 MLOAD AND PUSH1 0x40 DUP5 ADD MSTORE PUSH1 0x20 DUP3 ADD MLOAD AND PUSH1 0x60 DUP4 ADD MSTORE PUSH1 0x60 PUSH6 0xFFFFFFFFFFFF SWAP2 DUP3 PUSH1 0x40 DUP3 ADD MLOAD AND PUSH1 0x80 DUP6 ADD MSTORE ADD MLOAD AND PUSH1 0xA0 DUP3 ADD MSTORE PUSH1 0xA0 DUP2 MSTORE PUSH1 0xC0 DUP2 ADD DUP2 DUP2 LT PUSH1 0x1 PUSH1 0x1 PUSH1 0x40 SHL SUB DUP3 GT OR PUSH2 0xF7F JUMPI PUSH1 0x40 MSTORE MLOAD SWAP1 KECCAK256 SWAP1 JUMP JUMPDEST SWAP2 SWAP1 DUP3 PUSH1 0x40 SWAP2 SUB SLT PUSH2 0x101B JUMPI PUSH1 0x20 DUP3 CALLDATALOAD SWAP3 ADD CALLDATALOAD SWAP1 JUMP JUMPDEST PUSH0 DUP5 EXTCODESIZE PUSH2 0x1418 JUMPI POP PUSH1 0x41 DUP3 SUB PUSH2 0x13B5 JUMPI PUSH2 0x1318 DUP3 DUP3 ADD DUP3 PUSH2 0x12E6 JUMP JUMPDEST SWAP4 SWAP1 SWAP3 PUSH1 0x40 LT ISZERO PUSH2 0x13A1 JUMPI PUSH1 0x20 SWAP4 PUSH0 SWAP4 PUSH1 0xFF PUSH1 0x40 PUSH1 0x80 SWAP6 ADD CALLDATALOAD PUSH1 0xF8 SHR JUMPDEST PUSH1 0x40 MLOAD SWAP5 DUP6 MSTORE AND DUP7 DUP5 ADD MSTORE PUSH1 0x40 DUP4 ADD MSTORE PUSH1 0x60 DUP3 ADD MSTORE DUP3 DUP1 MSTORE PUSH1 0x1 GAS STATICCALL ISZERO PUSH2 0x1396 JUMPI PUSH0 MLOAD PUSH1 0x1 PUSH1 0x1 PUSH1 0xA0 SHL SUB SWAP1 DUP2 AND SWAP2 DUP3 ISZERO PUSH2 0x1384 JUMPI AND SUB PUSH2 0x1372 JUMPI JUMP JUMPDEST PUSH1 0x40 MLOAD PUSH4 0x20578759 PUSH1 0xE2 SHL DUP2 MSTORE PUSH1 0x4 SWAP1 REVERT JUMPDEST PUSH1 0x40 MLOAD PUSH4 0x8BAA579F PUSH1 0xE0 SHL DUP2 MSTORE PUSH1 0x4 SWAP1 REVERT JUMPDEST PUSH1 0x40 MLOAD RETURNDATASIZE PUSH0 DUP3 RETURNDATACOPY RETURNDATASIZE SWAP1 REVERT JUMPDEST PUSH4 0x4E487B71 PUSH1 0xE0 SHL PUSH0 MSTORE PUSH1 0x32 PUSH1 0x4 MSTORE PUSH1 0x24 PUSH0 REVERT JUMPDEST PUSH1 0x40 DUP3 SUB PUSH2 0x1406 JUMPI PUSH2 0x13C9 SWAP2 DUP2 ADD SWAP1 PUSH2 0x12E6 JUMP JUMPDEST PUSH1 0x1 PUSH1 0x1 PUSH1 0xFF SHL SUB DUP2 AND SWAP3 PUSH1 0xFF SWAP2 DUP3 SHR PUSH1 0x1B ADD SWAP2 DUP3 GT PUSH2 0x13F2 JUMPI PUSH1 0x20 SWAP4 PUSH0 SWAP4 PUSH1 0xFF PUSH1 0x80 SWAP5 PUSH2 0x1335 JUMP JUMPDEST PUSH4 0x4E487B71 PUSH1 0xE0 SHL PUSH0 MSTORE PUSH1 0x11 PUSH1 0x4 MSTORE PUSH1 0x24 PUSH0 REVERT JUMPDEST PUSH1 0x40 MLOAD PUSH4 0x4BE6321B PUSH1 0xE0 SHL DUP2 MSTORE PUSH1 0x4 SWAP1 REVERT JUMPDEST SWAP2 DUP1 SWAP4 SWAP5 PUSH1 0x20 SWAP3 PUSH1 0x64 PUSH1 0x40 MLOAD DUP1 SWAP8 DUP2 SWAP6 DUP3 SWAP5 PUSH4 0xB135D3F PUSH1 0xE1 SHL SWAP12 DUP13 DUP6 MSTORE PUSH1 0x4 DUP6 ADD MSTORE PUSH1 0x40 PUSH1 0x24 DUP6 ADD MSTORE DUP2 PUSH1 0x44 DUP6 ADD MSTORE DUP5 DUP5 ADD CALLDATACOPY DUP2 DUP2 ADD DUP4 ADD DUP9 SWAP1 MSTORE PUSH1 0x1F ADD PUSH1 0x1F NOT AND DUP2 ADD SUB ADD SWAP2 PUSH1 0x1 PUSH1 0x1 PUSH1 0xA0 SHL SUB AND GAS STATICCALL SWAP2 DUP3 ISZERO PUSH2 0x14E4 JUMPI DUP2 SWAP3 PUSH2 0x149E JUMPI JUMPDEST POP POP PUSH1 0x1 PUSH1 0x1 PUSH1 0xE0 SHL SUB NOT AND SUB PUSH2 0x148C JUMPI JUMP JUMPDEST PUSH1 0x40 MLOAD PUSH4 0x2C19A72F PUSH1 0xE2 SHL DUP2 MSTORE PUSH1 0x4 SWAP1 REVERT JUMPDEST SWAP1 SWAP2 POP PUSH1 0x20 DUP2 RETURNDATASIZE DUP3 GT PUSH2 0x14DC JUMPI JUMPDEST DUP2 PUSH2 0x14B9 PUSH1 0x20 SWAP4 DUP4 PUSH2 0xFE4 JUMP JUMPDEST DUP2 ADD SUB SLT PUSH2 0x2E4 JUMPI MLOAD SWAP1 PUSH1 0x1 PUSH1 0x1 PUSH1 0xE0 SHL SUB NOT DUP3 AND DUP3 SUB PUSH2 0x85A JUMPI POP PUSH0 DUP1 PUSH2 0x1479 JUMP JUMPDEST RETURNDATASIZE SWAP2 POP PUSH2 0x14AC JUMP JUMPDEST POP PUSH1 0x40 MLOAD SWAP1 RETURNDATASIZE SWAP1 DUP3 RETURNDATACOPY RETURNDATASIZE SWAP1 REVERT JUMPDEST DUP1 MLOAD DUP3 LT ISZERO PUSH2 0x13A1 JUMPI PUSH1 0x20 SWAP2 PUSH1 0x5 SHL ADD ADD SWAP1 JUMP JUMPDEST SWAP1 PUSH2 0x150F DUP3 PUSH2 0x110D JUMP JUMPDEST PUSH2 0x151C PUSH1 0x40 MLOAD SWAP2 DUP3 PUSH2 0xFE4 JUMP JUMPDEST DUP3 DUP2 MSTORE DUP1 SWAP3 PUSH2 0x152D PUSH1 0x1F NOT SWAP2 PUSH2 0x110D JUMP JUMPDEST ADD SWAP1 PUSH1 0x20 CALLDATASIZE SWAP2 ADD CALLDATACOPY JUMP JUMPDEST PUSH0 NOT DUP2 EQ PUSH2 0x13F2 JUMPI PUSH1 0x1 ADD SWAP1 JUMP JUMPDEST DUP1 MLOAD PUSH1 0x20 DUP1 SWAP3 ADD SWAP2 PUSH0 JUMPDEST DUP3 DUP2 LT PUSH2 0x155D JUMPI POP POP POP POP SWAP1 JUMP JUMPDEST DUP4 MLOAD DUP6 MSTORE SWAP4 DUP2 ADD SWAP4 SWAP3 DUP2 ADD SWAP3 PUSH1 0x1 ADD PUSH2 0x154F JUMP JUMPDEST SWAP3 SWAP2 SWAP3 PUSH1 0x1 DUP1 PUSH1 0xA0 SHL SUB PUSH1 0x40 PUSH0 DUP3 DUP5 AND DUP2 MSTORE PUSH1 0x1 PUSH1 0x20 MSTORE DUP3 DUP3 DUP3 KECCAK256 SWAP7 AND SWAP6 DUP7 DUP3 MSTORE PUSH1 0x20 MSTORE DUP2 DUP2 KECCAK256 CALLER DUP3 MSTORE PUSH1 0x20 MSTORE KECCAK256 SWAP5 DUP6 SLOAD SWAP6 PUSH6 0xFFFFFFFFFFFF DUP8 PUSH1 0xA0 SHR AND DUP1 TIMESTAMP GT PUSH2 0x161B JUMPI POP DUP3 DUP8 AND SWAP7 DUP4 DUP9 SUB PUSH2 0x15D3 JUMPI JUMPDEST POP POP PUSH2 0x15D1 SWAP6 POP AND SWAP3 PUSH2 0x1A9A JUMP JUMPDEST JUMP JUMPDEST DUP8 DUP5 DUP5 AND GT PUSH0 EQ PUSH2 0x15F7 JUMPI PUSH1 0x40 MLOAD PUSH4 0xF96FB071 PUSH1 0xE0 SHL DUP2 MSTORE PUSH1 0x4 DUP2 ADD DUP10 SWAP1 MSTORE PUSH1 0x24 SWAP1 REVERT JUMPDEST DUP4 DUP4 PUSH2 0x15D1 SWAP10 SUB AND SWAP1 PUSH12 0xFFFFFFFFFFFFFFFFFFFFFFFF PUSH1 0xA0 SHL AND OR SWAP1 SSTORE PUSH0 DUP1 PUSH2 0x15C3 JUMP JUMPDEST PUSH1 0x24 SWAP1 PUSH1 0x40 MLOAD SWAP1 PUSH4 0x6C0D9797 PUSH1 0xE1 SHL DUP3 MSTORE PUSH1 0x4 DUP3 ADD MSTORE REVERT JUMPDEST SWAP2 SWAP1 DUP2 LT ISZERO PUSH2 0x13A1 JUMPI PUSH1 0x6 SHL ADD SWAP1 JUMP JUMPDEST CALLDATALOAD PUSH1 0x1 PUSH1 0x1 PUSH1 0xA0 SHL SUB DUP2 AND DUP2 SUB PUSH2 0x101B JUMPI SWAP1 JUMP JUMPDEST SWAP1 PUSH6 0xFFFFFFFFFFFF SWAP1 DUP2 PUSH1 0x60 DUP5 ADD MLOAD AND PUSH1 0x1 DUP1 PUSH1 0xA0 SHL SUB SWAP1 DUP2 DUP6 MLOAD AND SWAP5 DUP3 PUSH1 0x20 DUP3 ADD MLOAD AND SWAP3 DUP1 DUP7 PUSH1 0x40 DUP1 SWAP5 ADD MLOAD AND SWAP6 AND SWAP6 PUSH0 SWAP2 DUP8 DUP4 MSTORE PUSH1 0x1 PUSH1 0x20 MSTORE DUP4 DUP4 KECCAK256 DUP10 DUP5 MSTORE PUSH1 0x20 MSTORE DUP4 DUP4 KECCAK256 SWAP10 AND SWAP9 DUP10 DUP4 MSTORE PUSH1 0x20 MSTORE DUP3 DUP3 KECCAK256 SWAP2 DUP5 DUP4 SLOAD PUSH1 0xD0 SHR SUB PUSH2 0x174F JUMPI SWAP2 DUP6 PUSH2 0x1743 SWAP5 SWAP3 PUSH32 0xC6A377BFC4EB120024A8AC08EEF205BE16B817020812C73223E81D1BDB9708EC SWAP9 SWAP8 SWAP7 SWAP5 POP DUP8 ISZERO PUSH0 EQ PUSH2 0x1748 JUMPI TIMESTAMP AND JUMPDEST PUSH1 0x1 DUP6 ADD PUSH1 0xD0 SHL PUSH1 0x1 PUSH1 0x1 PUSH1 0xD0 SHL SUB NOT AND PUSH1 0xA0 SWAP2 SWAP1 SWAP2 SHL PUSH6 0xFFFFFFFFFFFF PUSH1 0xA0 SHL AND OR OR SWAP1 SSTORE MLOAD PUSH1 0x1 PUSH1 0x1 PUSH1 0xA0 SHL SUB SWAP1 SWAP4 AND DUP4 MSTORE PUSH6 0xFFFFFFFFFFFF SWAP4 DUP5 AND PUSH1 0x20 DUP5 ADD MSTORE SWAP1 SWAP3 AND PUSH1 0x40 DUP3 ADD MSTORE SWAP1 DUP2 SWAP1 PUSH1 0x60 DUP3 ADD SWAP1 JUMP JUMPDEST SUB SWAP1 LOG4 JUMP JUMPDEST POP DUP7 PUSH2 0x16EE JUMP JUMPDEST DUP4 MLOAD PUSH4 0x3AB3447F PUSH1 0xE1 SHL DUP2 MSTORE PUSH1 0x4 SWAP1 REVERT JUMPDEST CHAINID PUSH32 0x0 SUB PUSH2 0x17AB JUMPI PUSH32 0x0 SWAP1 JUMP JUMPDEST PUSH1 0x40 MLOAD PUSH1 0x20 DUP2 ADD SWAP1 PUSH32 0x8CAD95687BA82C2CE50E74F7B754645E5117C3A5BEC8151C0726D5857980A866 DUP3 MSTORE PUSH32 0x9AC997416E8FF9D2FF6BEBEB7149F65CDAE5E32E2B90440B566BB3044041D36A PUSH1 0x40 DUP3 ADD MSTORE CHAINID PUSH1 0x60 DUP3 ADD MSTORE ADDRESS PUSH1 0x80 DUP3 ADD MSTORE PUSH1 0x80 DUP2 MSTORE PUSH2 0x1815 DUP2 PUSH2 0xFAE JUMP JUMPDEST MLOAD SWAP1 KECCAK256 SWAP1 JUMP JUMPDEST PUSH2 0x1823 PUSH2 0x1760 JUMP JUMPDEST SWAP1 PUSH1 0x40 MLOAD SWAP1 PUSH1 0x20 DUP3 ADD SWAP3 PUSH2 0x1901 PUSH1 0xF0 SHL DUP5 MSTORE PUSH1 0x22 DUP4 ADD MSTORE PUSH1 0x42 DUP3 ADD MSTORE PUSH1 0x42 DUP2 MSTORE PUSH2 0x1815 DUP2 PUSH2 0xF64 JUMP JUMPDEST PUSH1 0x40 MLOAD PUSH1 0x20 DUP1 DUP3 ADD SWAP3 PUSH32 0x618358AC3DB8DC274F0CD8829DA7E234BD48CD73C4A740AEDE1ADEC9846D06A1 DUP5 MSTORE PUSH1 0x1 DUP1 PUSH1 0xA0 SHL SUB DUP2 MLOAD AND PUSH1 0x40 DUP5 ADD MSTORE ADD MLOAD PUSH1 0x60 DUP3 ADD MSTORE PUSH1 0x60 DUP2 MSTORE PUSH2 0x1815 DUP2 PUSH2 0xF64 JUMP JUMPDEST SWAP1 DUP2 MLOAD SWAP2 PUSH0 JUMPDEST DUP4 DUP2 LT PUSH2 0x18B1 JUMPI POP POP ADD PUSH0 DUP2 MSTORE SWAP1 JUMP JUMPDEST DUP1 PUSH1 0x20 DUP1 SWAP3 DUP5 ADD ADD MLOAD DUP2 DUP6 ADD MSTORE ADD PUSH2 0x18A1 JUMP JUMPDEST SWAP2 SWAP3 SWAP1 SWAP4 PUSH1 0xA4 CALLDATALOAD SWAP4 PUSH1 0x40 DUP5 ADD MLOAD DUP1 TIMESTAMP GT PUSH2 0x193F JUMPI POP PUSH1 0x20 DUP5 MLOAD ADD MLOAD DUP1 DUP7 GT PUSH2 0x1927 JUMPI POP SWAP2 DUP6 SWAP2 PUSH2 0xA93 PUSH2 0x1904 SWAP5 PUSH2 0x18FF PUSH1 0x20 DUP9 ADD MLOAD DUP7 PUSH2 0x1A51 JUMP JUMPDEST PUSH2 0x181B JUMP JUMPDEST MLOAD MLOAD PUSH1 0x1 PUSH1 0x1 PUSH1 0xA0 SHL SUB SWAP1 DUP2 AND SWAP3 PUSH1 0x84 CALLDATALOAD SWAP2 DUP3 AND DUP3 SUB PUSH2 0x101B JUMPI PUSH2 0x15D1 SWAP4 PUSH2 0x1A9A JUMP JUMPDEST PUSH1 0x24 SWAP1 PUSH1 0x40 MLOAD SWAP1 PUSH4 0x3728B83D PUSH1 0xE0 SHL DUP3 MSTORE PUSH1 0x4 DUP3 ADD MSTORE REVERT JUMPDEST PUSH1 0x24 SWAP1 PUSH1 0x40 MLOAD SWAP1 PUSH4 0xCD21DB4F PUSH1 0xE0 SHL DUP3 MSTORE PUSH1 0x4 DUP3 ADD MSTORE REVERT JUMPDEST SWAP6 SWAP1 SWAP4 SWAP6 DUP1 MLOAD MLOAD SWAP6 PUSH1 0x40 SWAP3 DUP4 DUP4 ADD MLOAD DUP1 TIMESTAMP GT PUSH2 0x1A3A JUMPI POP DUP5 DUP9 SUB PUSH2 0x1A26 JUMPI PUSH2 0x198E SWAP2 DUP7 SWAP2 PUSH2 0xA93 PUSH1 0x20 SWAP12 PUSH2 0x18FF DUP14 DUP9 ADD MLOAD DUP7 PUSH2 0x1A51 JUMP JUMPDEST PUSH0 JUMPDEST DUP7 DUP2 LT PUSH2 0x19A1 JUMPI POP POP POP POP POP POP POP POP JUMP JUMPDEST PUSH2 0x19AC DUP2 DUP4 MLOAD PUSH2 0x14F1 JUMP JUMPDEST MLOAD DUP9 PUSH2 0x19B9 DUP4 DUP8 DUP11 PUSH2 0x1633 JUMP JUMPDEST ADD CALLDATALOAD SWAP1 DUP10 DUP2 ADD MLOAD DUP1 DUP4 GT PUSH2 0x1A0F JUMPI POP SWAP2 DUP2 DUP9 DUP9 DUP9 PUSH1 0x1 SWAP7 DUP6 SWAP7 PUSH2 0x19E3 JUMPI JUMPDEST POP POP POP POP POP POP ADD PUSH2 0x1990 JUMP JUMPDEST PUSH2 0x1A04 SWAP6 PUSH2 0x19FE SWAP3 PUSH2 0x467 SWAP3 DUP11 DUP1 PUSH1 0xA0 SHL SUB SWAP1 MLOAD AND SWAP6 PUSH2 0x1633 JUMP JUMPDEST SWAP2 PUSH2 0x1A9A JUMP JUMPDEST DUP1 PUSH0 DUP9 DUP9 DUP9 DUP4 PUSH2 0x19D7 JUMP JUMPDEST PUSH1 0x24 SWAP1 DUP7 MLOAD SWAP1 PUSH4 0x3728B83D PUSH1 0xE0 SHL DUP3 MSTORE PUSH1 0x4 DUP3 ADD MSTORE REVERT JUMPDEST DUP4 MLOAD PUSH1 0x1 PUSH3 0x1398B9 PUSH1 0xE3 SHL SUB NOT DUP2 MSTORE PUSH1 0x4 SWAP1 REVERT JUMPDEST PUSH1 0x24 SWAP1 DUP6 MLOAD SWAP1 PUSH4 0xCD21DB4F PUSH1 0xE0 SHL DUP3 MSTORE PUSH1 0x4 DUP3 ADD MSTORE REVERT JUMPDEST SWAP1 PUSH1 0x1 PUSH1 0xFF DUP3 AND SHL SWAP2 PUSH1 0x1 DUP1 PUSH1 0xA0 SHL SUB AND PUSH0 MSTORE PUSH0 PUSH1 0x20 MSTORE PUSH1 0x40 PUSH0 KECCAK256 SWAP1 PUSH1 0x8 SHR PUSH0 MSTORE PUSH1 0x20 MSTORE PUSH1 0x40 PUSH0 KECCAK256 DUP2 DUP2 SLOAD XOR DUP1 SWAP2 SSTORE AND ISZERO PUSH2 0x1A88 JUMPI JUMP JUMPDEST PUSH1 0x40 MLOAD PUSH4 0x3AB3447F PUSH1 0xE1 SHL DUP2 MSTORE PUSH1 0x4 SWAP1 REVERT JUMPDEST SWAP2 PUSH0 DUP1 SWAP4 PUSH1 0x20 SWAP6 PUSH1 0x64 SWAP5 PUSH1 0x40 MLOAD SWAP5 PUSH4 0x23B872DD PUSH1 0xE0 SHL DUP7 MSTORE PUSH1 0x1 DUP1 PUSH1 0xA0 SHL SUB DUP1 SWAP3 AND PUSH1 0x4 DUP8 ADD MSTORE AND PUSH1 0x24 DUP6 ADD MSTORE PUSH1 0x44 DUP5 ADD MSTORE GAS CALL RETURNDATASIZE ISZERO PUSH1 0x1F RETURNDATASIZE GT PUSH1 0x1 PUSH0 MLOAD EQ AND OR AND ISZERO PUSH2 0x1AE3 JUMPI JUMP JUMPDEST PUSH1 0x40 MLOAD PUSH3 0x461BCD PUSH1 0xE5 SHL DUP2 MSTORE PUSH1 0x20 PUSH1 0x4 DUP3 ADD MSTORE PUSH1 0x14 PUSH1 0x24 DUP3 ADD MSTORE PUSH20 0x1514905394D1915497D19493D357D19052531151 PUSH1 0x62 SHL PUSH1 0x44 DUP3 ADD MSTORE PUSH1 0x64 SWAP1 REVERT INVALID LOG2 PUSH5 0x6970667358 0x22 SLT KECCAK256 0x2B 0x49 0xB0 0xAB EXTCODEHASH 0xBF SWAP2 JUMP STOP OR 0xC9 0xCD PUSH29 0x1DD1A4EC7AC6C8AFB6EB3A4CE5998949280AF764736F6C634300081400 CALLER "
		},
		"gasEstimates": {
			"creation": {
				"codeDepositCost": "1399400",
				"executionCost": "infinite",
				"totalCost": "infinite"
			},
			"external": {
				"DOMAIN_SEPARATOR()": "infinite",
				"allowance(address,address,address)": "3066",
				"approve(address,address,uint160,uint48)": "27635",
				"invalidateNonces(address,address,uint48)": "29860",
				"invalidateUnorderedNonces(uint256,uint256)": "26335",
				"lockdown((address,address)[])": "infinite",
				"nonceBitmap(address,uint256)": "2662",
				"permit(address,((address,uint160,uint48,uint48),address,uint256),bytes)": "infinite",
				"permit(address,((address,uint160,uint48,uint48)[],address,uint256),bytes)": "infinite",
				"permitTransferFrom(((address,uint256),uint256,uint256),(address,uint256),address,bytes)": "infinite",
				"permitTransferFrom(((address,uint256)[],uint256,uint256),(address,uint256)[],address,bytes)": "infinite",
				"permitWitnessTransferFrom(((address,uint256),uint256,uint256),(address,uint256),address,bytes32,string,bytes)": "infinite",
				"permitWitnessTransferFrom(((address,uint256)[],uint256,uint256),(address,uint256)[],address,bytes32,string,bytes)": "infinite",
				"transferFrom((address,address,uint160,address)[])": "infinite",
				"transferFrom(address,address,uint160,address)": "infinite"
			}
		},
		"methodIdentifiers": {
			"DOMAIN_SEPARATOR()": "3644e515",
			"allowance(address,address,address)": "927da105",
			"approve(address,address,uint160,uint48)": "87517c45",
			"invalidateNonces(address,address,uint48)": "65d9723c",
			"invalidateUnorderedNonces(uint256,uint256)": "3ff9dcb1",
			"lockdown((address,address)[])": "cc53287f",
			"nonceBitmap(address,uint256)": "4fe02b44",
			"permit(address,((address,uint160,uint48,uint48),address,uint256),bytes)": "2b67b570",
			"permit(address,((address,uint160,uint48,uint48)[],address,uint256),bytes)": "2a2d80d1",
			"permitTransferFrom(((address,uint256),uint256,uint256),(address,uint256),address,bytes)": "30f28b7a",
			"permitTransferFrom(((address,uint256)[],uint256,uint256),(address,uint256)[],address,bytes)": "edd9444b",
			"permitWitnessTransferFrom(((address,uint256),uint256,uint256),(address,uint256),address,bytes32,string,bytes)": "137c29fe",
			"permitWitnessTransferFrom(((address,uint256)[],uint256,uint256),(address,uint256)[],address,bytes32,string,bytes)": "fe8ec1a7",
			"transferFrom((address,address,uint160,address)[])": "0d58b1db",
			"transferFrom(address,address,uint160,address)": "36c78516"
		}
	},
	"abi": [
		{
			"inputs": [
				{
					"internalType": "uint256",
					"name": "deadline",
					"type": "uint256"
				}
			],
			"name": "AllowanceExpired",
			"type": "error"
		},
		{
			"inputs": [],
			"name": "ExcessiveInvalidation",
			"type": "error"
		},
		{
			"inputs": [
				{
					"internalType": "uint256",
					"name": "amount",
					"type": "uint256"
				}
			],
			"name": "InsufficientAllowance",
			"type": "error"
		},
		{
			"inputs": [
				{
					"internalType": "uint256",
					"name": "maxAmount",
					"type": "uint256"
				}
			],
			"name": "InvalidAmount",
			"type": "error"
		},
		{
			"inputs": [],
			"name": "InvalidContractSignature",
			"type": "error"
		},
		{
			"inputs": [],
			"name": "InvalidNonce",
			"type": "error"
		},
		{
			"inputs": [],
			"name": "InvalidSignature",
			"type": "error"
		},
		{
			"inputs": [],
			"name": "InvalidSignatureLength",
			"type": "error"
		},
		{
			"inputs": [],
			"name": "InvalidSigner",
			"type": "error"
		},
		{
			"inputs": [],
			"name": "LengthMismatch",
			"type": "error"
		},
		{
			"inputs": [
				{
					"internalType": "uint256",
					"name": "signatureDeadline",
					"type": "uint256"
				}
			],
			"name": "SignatureExpired",
			"type": "error"
		},
		{
			"anonymous": false,
			"inputs": [
				{
					"indexed": true,
					"internalType": "address",
					"name": "owner",
					"type": "address"
				},
				{
					"indexed": true,
					"internalType": "address",
					"name": "token",
					"type": "address"
				},
				{
					"indexed": true,
					"internalType": "address",
					"name": "spender",
					"type": "address"
				},
				{
					"indexed": false,
					"internalType": "uint160",
					"name": "amount",
					"type": "uint160"
				},
				{
					"indexed": false,
					"internalType": "uint48",
					"name": "expiration",
					"type": "uint48"
				}
			],
			"name": "Approval",
			"type": "event"
		},
		{
			"anonymous": false,
			"inputs": [
				{
					"indexed": true,
					"internalType": "address",
					"name": "owner",
					"type": "address"
				},
				{
					"indexed": false,
					"internalType": "address",
					"name": "token",
					"type": "address"
				},
				{
					"indexed": false,
					"internalType": "address",
					"name": "spender",
					"type": "address"
				}
			],
			"name": "Lockdown",
			"type": "event"
		},
		{
			"anonymous": false,
			"inputs": [
				{
					"indexed": true,
					"internalType": "address",
					"name": "owner",
					"type": "address"
				},
				{
					"indexed": true,
					"internalType": "address",
					"name": "token",
					"type": "address"
				},
				{
					"indexed": true,
					"internalType": "address",
					"name": "spender",
					"type": "address"
				},
				{
					"indexed": false,
					"internalType": "uint48",
					"name": "newNonce",
					"type": "uint48"
				},
				{
					"indexed": false,
					"internalType": "uint48",
					"name": "oldNonce",
					"type": "uint48"
				}
			],
			"name": "NonceInvalidation",
			"type": "event"
		},
		{
			"anonymous": false,
			"inputs": [
				{
					"indexed": true,
					"internalType": "address",
					"name": "owner",
					"type": "address"
				},
				{
					"indexed": true,
					"internalType": "address",
					"name": "token",
					"type": "address"
				},
				{
					"indexed": true,
					"internalType": "address",
					"name": "spender",
					"type": "address"
				},
				{
					"indexed": false,
					"internalType": "uint160",
					"name": "amount",
					"type": "uint160"
				},
				{
					"indexed": false,
					"internalType": "uint48",
					"name": "expiration",
					"type": "uint48"
				},
				{
					"indexed": false,
					"internalType": "uint48",
					"name": "nonce",
					"type": "uint48"
				}
			],
			"name": "Permit",
			"type": "event"
		},
		{
			"anonymous": false,
			"inputs": [
				{
					"indexed": true,
					"internalType": "address",
					"name": "owner",
					"type": "address"
				},
				{
					"indexed": false,
					"internalType": "uint256",
					"name": "word",
					"type": "uint256"
				},
				{
					"indexed": false,
					"internalType": "uint256",
					"name": "mask",
					"type": "uint256"
				}
			],
			"name": "UnorderedNonceInvalidation",
			"type": "event"
		},
		{
			"inputs": [],
			"name": "DOMAIN_SEPARATOR",
			"outputs": [
				{
					"internalType": "bytes32",
					"name": "",
					"type": "bytes32"
				}
			],
			"stateMutability": "view",
			"type": "function"
		},
		{
			"inputs": [
				{
					"internalType": "address",
					"name": "",
					"type": "address"
				},
				{
					"internalType": "address",
					"name": "",
					"type": "address"
				},
				{
					"internalType": "address",
					"name": "",
					"type": "address"
				}
			],
			"name": "allowance",
			"outputs": [
				{
					"internalType": "uint160",
					"name": "amount",
					"type": "uint160"
				},
				{
					"internalType": "uint48",
					"name": "expiration",
					"type": "uint48"
				},
				{
					"internalType": "uint48",
					"name": "nonce",
					"type": "uint48"
				}
			],
			"stateMutability": "view",
			"type": "function"
		},
		{
			"inputs": [
				{
					"internalType": "address",
					"name": "token",
					"type": "address"
				},
				{
					"internalType": "address",
					"name": "spender",
					"type": "address"
				},
				{
					"internalType": "uint160",
					"name": "amount",
					"type": "uint160"
				},
				{
					"internalType": "uint48",
					"name": "expiration",
					"type": "uint48"
				}
			],
			"name": "approve",
			"outputs": [],
			"stateMutability": "nonpayable",
			"type": "function"
		},
		{
			"inputs": [
				{
					"internalType": "address",
					"name": "token",
					"type": "address"
				},
				{
					"internalType": "address",
					"name": "spender",
					"type": "address"
				},
				{
					"internalType": "uint48",
					"name": "newNonce",
					"type": "uint48"
				}
			],
			"name": "invalidateNonces",
			"outputs": [],
			"stateMutability": "nonpayable",
			"type": "function"
		},
		{
			"inputs": [
				{
					"internalType": "uint256",
					"name": "wordPos",
					"type": "uint256"
				},
				{
					"internalType": "uint256",
					"name": "mask",
					"type": "uint256"
				}
			],
			"name": "invalidateUnorderedNonces",
			"outputs": [],
			"stateMutability": "nonpayable",
			"type": "function"
		},
		{
			"inputs": [
				{
					"components": [
						{
							"internalType": "address",
							"name": "token",
							"type": "address"
						},
						{
							"internalType": "address",
							"name": "spender",
							"type": "address"
						}
					],
					"internalType": "struct IAllowanceTransfer.TokenSpenderPair[]",
					"name": "approvals",
					"type": "tuple[]"
				}
			],
			"name": "lockdown",
			"outputs": [],
			"stateMutability": "nonpayable",
			"type": "function"
		},
		{
			"inputs": [
				{
					"internalType": "address",
					"name": "",
					"type": "address"
				},
				{
					"internalType": "uint256",
					"name": "",
					"type": "uint256"
				}
			],
			"name": "nonceBitmap",
			"outputs": [
				{
					"internalType": "uint256",
					"name": "",
					"type": "uint256"
				}
			],
			"stateMutability": "view",
			"type": "function"
		},
		{
			"inputs": [
				{
					"internalType": "address",
					"name": "owner",
					"type": "address"
				},
				{
					"components": [
						{
							"components": [
								{
									"internalType": "address",
									"name": "token",
									"type": "address"
								},
								{
									"internalType": "uint160",
									"name": "amount",
									"type": "uint160"
								},
								{
									"internalType": "uint48",
									"name": "expiration",
									"type": "uint48"
								},
								{
									"internalType": "uint48",
									"name": "nonce",
									"type": "uint48"
								}
							],
							"internalType": "struct IAllowanceTransfer.PermitDetails[]",
							"name": "details",
							"type": "tuple[]"
						},
						{
							"internalType": "address",
							"name": "spender",
							"type": "address"
						},
						{
							"internalType": "uint256",
							"name": "sigDeadline",
							"type": "uint256"
						}
					],
					"internalType": "struct IAllowanceTransfer.PermitBatch",
					"name": "permitBatch",
					"type": "tuple"
				},
				{
					"internalType": "bytes",
					"name": "signature",
					"type": "bytes"
				}
			],
			"name": "permit",
			"outputs": [],
			"stateMutability": "nonpayable",
			"type": "function"
		},
		{
			"inputs": [
				{
					"internalType": "address",
					"name": "owner",
					"type": "address"
				},
				{
					"components": [
						{
							"components": [
								{
									"internalType": "address",
									"name": "token",
									"type": "address"
								},
								{
									"internalType": "uint160",
									"name": "amount",
									"type": "uint160"
								},
								{
									"internalType": "uint48",
									"name": "expiration",
									"type": "uint48"
								},
								{
									"internalType": "uint48",
									"name": "nonce",
									"type": "uint48"
								}
							],
							"internalType": "struct IAllowanceTransfer.PermitDetails",
							"name": "details",
							"type": "tuple"
						},
						{
							"internalType": "address",
							"name": "spender",
							"type": "address"
						},
						{
							"internalType": "uint256",
							"name": "sigDeadline",
							"type": "uint256"
						}
					],
					"internalType": "struct IAllowanceTransfer.PermitSingle",
					"name": "permitSingle",
					"type": "tuple"
				},
				{
					"internalType": "bytes",
					"name": "signature",
					"type": "bytes"
				}
			],
			"name": "permit",
			"outputs": [],
			"stateMutability": "nonpayable",
			"type": "function"
		},
		{
			"inputs": [
				{
					"components": [
						{
							"components": [
								{
									"internalType": "address",
									"name": "token",
									"type": "address"
								},
								{
									"internalType": "uint256",
									"name": "amount",
									"type": "uint256"
								}
							],
							"internalType": "struct ISignatureTransfer.TokenPermissions",
							"name": "permitted",
							"type": "tuple"
						},
						{
							"internalType": "uint256",
							"name": "nonce",
							"type": "uint256"
						},
						{
							"internalType": "uint256",
							"name": "deadline",
							"type": "uint256"
						}
					],
					"internalType": "struct ISignatureTransfer.PermitTransferFrom",
					"name": "permit",
					"type": "tuple"
				},
				{
					"components": [
						{
							"internalType": "address",
							"name": "to",
							"type": "address"
						},
						{
							"internalType": "uint256",
							"name": "requestedAmount",
							"type": "uint256"
						}
					],
					"internalType": "struct ISignatureTransfer.SignatureTransferDetails",
					"name": "transferDetails",
					"type": "tuple"
				},
				{
					"internalType": "address",
					"name": "owner",
					"type": "address"
				},
				{
					"internalType": "bytes",
					"name": "signature",
					"type": "bytes"
				}
			],
			"name": "permitTransferFrom",
			"outputs": [],
			"stateMutability": "nonpayable",
			"type": "function"
		},
		{
			"inputs": [
				{
					"components": [
						{
							"components": [
								{
									"internalType": "address",
									"name": "token",
									"type": "address"
								},
								{
									"internalType": "uint256",
									"name": "amount",
									"type": "uint256"
								}
							],
							"internalType": "struct ISignatureTransfer.TokenPermissions[]",
							"name": "permitted",
							"type": "tuple[]"
						},
						{
							"internalType": "uint256",
							"name": "nonce",
							"type": "uint256"
						},
						{
							"internalType": "uint256",
							"name": "deadline",
							"type": "uint256"
						}
					],
					"internalType": "struct ISignatureTransfer.PermitBatchTransferFrom",
					"name": "permit",
					"type": "tuple"
				},
				{
					"components": [
						{
							"internalType": "address",
							"name": "to",
							"type": "address"
						},
						{
							"internalType": "uint256",
							"name": "requestedAmount",
							"type": "uint256"
						}
					],
					"internalType": "struct ISignatureTransfer.SignatureTransferDetails[]",
					"name": "transferDetails",
					"type": "tuple[]"
				},
				{
					"internalType": "address",
					"name": "owner",
					"type": "address"
				},
				{
					"internalType": "bytes",
					"name": "signature",
					"type": "bytes"
				}
			],
			"name": "permitTransferFrom",
			"outputs": [],
			"stateMutability": "nonpayable",
			"type": "function"
		},
		{
			"inputs": [
				{
					"components": [
						{
							"components": [
								{
									"internalType": "address",
									"name": "token",
									"type": "address"
								},
								{
									"internalType": "uint256",
									"name": "amount",
									"type": "uint256"
								}
							],
							"internalType": "struct ISignatureTransfer.TokenPermissions",
							"name": "permitted",
							"type": "tuple"
						},
						{
							"internalType": "uint256",
							"name": "nonce",
							"type": "uint256"
						},
						{
							"internalType": "uint256",
							"name": "deadline",
							"type": "uint256"
						}
					],
					"internalType": "struct ISignatureTransfer.PermitTransferFrom",
					"name": "permit",
					"type": "tuple"
				},
				{
					"components": [
						{
							"internalType": "address",
							"name": "to",
							"type": "address"
						},
						{
							"internalType": "uint256",
							"name": "requestedAmount",
							"type": "uint256"
						}
					],
					"internalType": "struct ISignatureTransfer.SignatureTransferDetails",
					"name": "transferDetails",
					"type": "tuple"
				},
				{
					"internalType": "address",
					"name": "owner",
					"type": "address"
				},
				{
					"internalType": "bytes32",
					"name": "witness",
					"type": "bytes32"
				},
				{
					"internalType": "string",
					"name": "witnessTypeString",
					"type": "string"
				},
				{
					"internalType": "bytes",
					"name": "signature",
					"type": "bytes"
				}
			],
			"name": "permitWitnessTransferFrom",
			"outputs": [],
			"stateMutability": "nonpayable",
			"type": "function"
		},
		{
			"inputs": [
				{
					"components": [
						{
							"components": [
								{
									"internalType": "address",
									"name": "token",
									"type": "address"
								},
								{
									"internalType": "uint256",
									"name": "amount",
									"type": "uint256"
								}
							],
							"internalType": "struct ISignatureTransfer.TokenPermissions[]",
							"name": "permitted",
							"type": "tuple[]"
						},
						{
							"internalType": "uint256",
							"name": "nonce",
							"type": "uint256"
						},
						{
							"internalType": "uint256",
							"name": "deadline",
							"type": "uint256"
						}
					],
					"internalType": "struct ISignatureTransfer.PermitBatchTransferFrom",
					"name": "permit",
					"type": "tuple"
				},
				{
					"components": [
						{
							"internalType": "address",
							"name": "to",
							"type": "address"
						},
						{
							"internalType": "uint256",
							"name": "requestedAmount",
							"type": "uint256"
						}
					],
					"internalType": "struct ISignatureTransfer.SignatureTransferDetails[]",
					"name": "transferDetails",
					"type": "tuple[]"
				},
				{
					"internalType": "address",
					"name": "owner",
					"type": "address"
				},
				{
					"internalType": "bytes32",
					"name": "witness",
					"type": "bytes32"
				},
				{
					"internalType": "string",
					"name": "witnessTypeString",
					"type": "string"
				},
				{
					"internalType": "bytes",
					"name": "signature",
					"type": "bytes"
				}
			],
			"name": "permitWitnessTransferFrom",
			"outputs": [],
			"stateMutability": "nonpayable",
			"type": "function"
		},
		{
			"inputs": [
				{
					"components": [
						{
							"internalType": "address",
							"name": "from",
							"type": "address"
						},
						{
							"internalType": "address",
							"name": "to",
							"type": "address"
						},
						{
							"internalType": "uint160",
							"name": "amount",
							"type": "uint160"
						},
						{
							"internalType": "address",
							"name": "token",
							"type": "address"
						}
					],
					"internalType": "struct IAllowanceTransfer.AllowanceTransferDetails[]",
					"name": "transferDetails",
					"type": "tuple[]"
				}
			],
			"name": "transferFrom",
			"outputs": [],
			"stateMutability": "nonpayable",
			"type": "function"
		},
		{
			"inputs": [
				{
					"internalType": "address",
					"name": "from",
					"type": "address"
				},
				{
					"internalType": "address",
					"name": "to",
					"type": "address"
				},
				{
					"internalType": "uint160",
					"name": "amount",
					"type": "uint160"
				},
				{
					"internalType": "address",
					"name": "token",
					"type": "address"
				}
			],
			"name": "transferFrom",
			"outputs": [],
			"stateMutability": "nonpayable",
			"type": "function"
		}
	]
}