{
	"contracts/contracts/protocol/TuliaVault.sol": {
		"TuliaVault": {
			"abi": [
				{
					"inputs": [
						{
							"internalType": "contract IERC20",
							"name": "asset",
							"type": "address"
						},
						{
							"internalType": "string",
							"name": "name",
							"type": "string"
						},
						{
							"internalType": "string",
							"name": "symbol",
							"type": "string"
						},
						{
							"internalType": "contract IPermit2",
							"name": "_permit2",
							"type": "address"
						}
					],
					"stateMutability": "nonpayable",
					"type": "constructor"
				},
				{
					"inputs": [
						{
							"internalType": "address",
							"name": "target",
							"type": "address"
						}
					],
					"name": "AddressEmptyCode",
					"type": "error"
				},
				{
					"inputs": [
						{
							"internalType": "address",
							"name": "account",
							"type": "address"
						}
					],
					"name": "AddressInsufficientBalance",
					"type": "error"
				},
				{
					"inputs": [
						{
							"internalType": "address",
							"name": "spender",
							"type": "address"
						},
						{
							"internalType": "uint256",
							"name": "allowance",
							"type": "uint256"
						},
						{
							"internalType": "uint256",
							"name": "needed",
							"type": "uint256"
						}
					],
					"name": "ERC20InsufficientAllowance",
					"type": "error"
				},
				{
					"inputs": [
						{
							"internalType": "address",
							"name": "sender",
							"type": "address"
						},
						{
							"internalType": "uint256",
							"name": "balance",
							"type": "uint256"
						},
						{
							"internalType": "uint256",
							"name": "needed",
							"type": "uint256"
						}
					],
					"name": "ERC20InsufficientBalance",
					"type": "error"
				},
				{
					"inputs": [
						{
							"internalType": "address",
							"name": "approver",
							"type": "address"
						}
					],
					"name": "ERC20InvalidApprover",
					"type": "error"
				},
				{
					"inputs": [
						{
							"internalType": "address",
							"name": "receiver",
							"type": "address"
						}
					],
					"name": "ERC20InvalidReceiver",
					"type": "error"
				},
				{
					"inputs": [
						{
							"internalType": "address",
							"name": "sender",
							"type": "address"
						}
					],
					"name": "ERC20InvalidSender",
					"type": "error"
				},
				{
					"inputs": [
						{
							"internalType": "address",
							"name": "spender",
							"type": "address"
						}
					],
					"name": "ERC20InvalidSpender",
					"type": "error"
				},
				{
					"inputs": [
						{
							"internalType": "address",
							"name": "receiver",
							"type": "address"
						},
						{
							"internalType": "uint256",
							"name": "assets",
							"type": "uint256"
						},
						{
							"internalType": "uint256",
							"name": "max",
							"type": "uint256"
						}
					],
					"name": "ERC4626ExceededMaxDeposit",
					"type": "error"
				},
				{
					"inputs": [
						{
							"internalType": "address",
							"name": "receiver",
							"type": "address"
						},
						{
							"internalType": "uint256",
							"name": "shares",
							"type": "uint256"
						},
						{
							"internalType": "uint256",
							"name": "max",
							"type": "uint256"
						}
					],
					"name": "ERC4626ExceededMaxMint",
					"type": "error"
				},
				{
					"inputs": [
						{
							"internalType": "address",
							"name": "owner",
							"type": "address"
						},
						{
							"internalType": "uint256",
							"name": "shares",
							"type": "uint256"
						},
						{
							"internalType": "uint256",
							"name": "max",
							"type": "uint256"
						}
					],
					"name": "ERC4626ExceededMaxRedeem",
					"type": "error"
				},
				{
					"inputs": [
						{
							"internalType": "address",
							"name": "owner",
							"type": "address"
						},
						{
							"internalType": "uint256",
							"name": "assets",
							"type": "uint256"
						},
						{
							"internalType": "uint256",
							"name": "max",
							"type": "uint256"
						}
					],
					"name": "ERC4626ExceededMaxWithdraw",
					"type": "error"
				},
				{
					"inputs": [],
					"name": "FailedInnerCall",
					"type": "error"
				},
				{
					"inputs": [],
					"name": "InvalidYieldRate",
					"type": "error"
				},
				{
					"inputs": [],
					"name": "MathOverflowedMulDiv",
					"type": "error"
				},
				{
					"inputs": [
						{
							"internalType": "address",
							"name": "token",
							"type": "address"
						}
					],
					"name": "SafeERC20FailedOperation",
					"type": "error"
				},
				{
					"anonymous": false,
					"inputs": [
						{
							"indexed": true,
							"internalType": "address",
							"name": "owner",
							"type": "address"
						},
						{
							"indexed": true,
							"internalType": "address",
							"name": "spender",
							"type": "address"
						},
						{
							"indexed": false,
							"internalType": "uint256",
							"name": "value",
							"type": "uint256"
						}
					],
					"name": "Approval",
					"type": "event"
				},
				{
					"anonymous": false,
					"inputs": [
						{
							"indexed": true,
							"internalType": "address",
							"name": "sender",
							"type": "address"
						},
						{
							"indexed": true,
							"internalType": "address",
							"name": "owner",
							"type": "address"
						},
						{
							"indexed": false,
							"internalType": "uint256",
							"name": "assets",
							"type": "uint256"
						},
						{
							"indexed": false,
							"internalType": "uint256",
							"name": "shares",
							"type": "uint256"
						}
					],
					"name": "Deposit",
					"type": "event"
				},
				{
					"anonymous": false,
					"inputs": [
						{
							"indexed": true,
							"internalType": "address",
							"name": "from",
							"type": "address"
						},
						{
							"indexed": true,
							"internalType": "address",
							"name": "to",
							"type": "address"
						},
						{
							"indexed": false,
							"internalType": "uint256",
							"name": "value",
							"type": "uint256"
						}
					],
					"name": "Transfer",
					"type": "event"
				},
				{
					"anonymous": false,
					"inputs": [
						{
							"indexed": true,
							"internalType": "address",
							"name": "sender",
							"type": "address"
						},
						{
							"indexed": true,
							"internalType": "address",
							"name": "receiver",
							"type": "address"
						},
						{
							"indexed": true,
							"internalType": "address",
							"name": "owner",
							"type": "address"
						},
						{
							"indexed": false,
							"internalType": "uint256",
							"name": "assets",
							"type": "uint256"
						},
						{
							"indexed": false,
							"internalType": "uint256",
							"name": "shares",
							"type": "uint256"
						}
					],
					"name": "Withdraw",
					"type": "event"
				},
				{
					"anonymous": false,
					"inputs": [
						{
							"indexed": false,
							"internalType": "uint256",
							"name": "amount",
							"type": "uint256"
						}
					],
					"name": "YieldAccrued",
					"type": "event"
				},
				{
					"anonymous": false,
					"inputs": [
						{
							"indexed": false,
							"internalType": "uint256",
							"name": "newBaseYieldRate",
							"type": "uint256"
						}
					],
					"name": "YieldRateUpdated",
					"type": "event"
				},
				{
					"inputs": [],
					"name": "YIELD_ACCRUAL_PERIOD",
					"outputs": [
						{
							"internalType": "uint256",
							"name": "",
							"type": "uint256"
						}
					],
					"stateMutability": "view",
					"type": "function"
				},
				{
					"inputs": [],
					"name": "YIELD_MANAGER_ROLE",
					"outputs": [
						{
							"internalType": "bytes32",
							"name": "",
							"type": "bytes32"
						}
					],
					"stateMutability": "view",
					"type": "function"
				},
				{
					"inputs": [
						{
							"internalType": "address",
							"name": "owner",
							"type": "address"
						},
						{
							"internalType": "address",
							"name": "spender",
							"type": "address"
						}
					],
					"name": "allowance",
					"outputs": [
						{
							"internalType": "uint256",
							"name": "",
							"type": "uint256"
						}
					],
					"stateMutability": "view",
					"type": "function"
				},
				{
					"inputs": [
						{
							"internalType": "address",
							"name": "spender",
							"type": "address"
						},
						{
							"internalType": "uint256",
							"name": "value",
							"type": "uint256"
						}
					],
					"name": "approve",
					"outputs": [
						{
							"internalType": "bool",
							"name": "",
							"type": "bool"
						}
					],
					"stateMutability": "nonpayable",
					"type": "function"
				},
				{
					"inputs": [],
					"name": "asset",
					"outputs": [
						{
							"internalType": "address",
							"name": "",
							"type": "address"
						}
					],
					"stateMutability": "view",
					"type": "function"
				},
				{
					"inputs": [
						{
							"internalType": "address",
							"name": "account",
							"type": "address"
						}
					],
					"name": "balanceOf",
					"outputs": [
						{
							"internalType": "uint256",
							"name": "",
							"type": "uint256"
						}
					],
					"stateMutability": "view",
					"type": "function"
				},
				{
					"inputs": [],
					"name": "baseYieldRate",
					"outputs": [
						{
							"internalType": "uint256",
							"name": "",
							"type": "uint256"
						}
					],
					"stateMutability": "view",
					"type": "function"
				},
				{
					"inputs": [
						{
							"internalType": "uint256",
							"name": "shares",
							"type": "uint256"
						}
					],
					"name": "convertToAssets",
					"outputs": [
						{
							"internalType": "uint256",
							"name": "",
							"type": "uint256"
						}
					],
					"stateMutability": "view",
					"type": "function"
				},
				{
					"inputs": [
						{
							"internalType": "uint256",
							"name": "assets",
							"type": "uint256"
						}
					],
					"name": "convertToShares",
					"outputs": [
						{
							"internalType": "uint256",
							"name": "",
							"type": "uint256"
						}
					],
					"stateMutability": "view",
					"type": "function"
				},
				{
					"inputs": [],
					"name": "decimals",
					"outputs": [
						{
							"internalType": "uint8",
							"name": "",
							"type": "uint8"
						}
					],
					"stateMutability": "view",
					"type": "function"
				},
				{
					"inputs": [
						{
							"internalType": "uint256",
							"name": "assets",
							"type": "uint256"
						},
						{
							"internalType": "address",
							"name": "receiver",
							"type": "address"
						}
					],
					"name": "deposit",
					"outputs": [
						{
							"internalType": "uint256",
							"name": "",
							"type": "uint256"
						}
					],
					"stateMutability": "nonpayable",
					"type": "function"
				},
				{
					"inputs": [
						{
							"internalType": "uint256",
							"name": "amount",
							"type": "uint256"
						},
						{
							"internalType": "uint256",
							"name": "nonce",
							"type": "uint256"
						},
						{
							"internalType": "uint256",
							"name": "deadline",
							"type": "uint256"
						},
						{
							"internalType": "bytes",
							"name": "signature",
							"type": "bytes"
						},
						{
							"internalType": "address",
							"name": "receiver",
							"type": "address"
						}
					],
					"name": "depositWithPermit",
					"outputs": [
						{
							"internalType": "uint256",
							"name": "shares",
							"type": "uint256"
						}
					],
					"stateMutability": "nonpayable",
					"type": "function"
				},
				{
					"inputs": [],
					"name": "lastYieldAccrualTime",
					"outputs": [
						{
							"internalType": "uint256",
							"name": "",
							"type": "uint256"
						}
					],
					"stateMutability": "view",
					"type": "function"
				},
				{
					"inputs": [
						{
							"internalType": "address",
							"name": "",
							"type": "address"
						}
					],
					"name": "maxDeposit",
					"outputs": [
						{
							"internalType": "uint256",
							"name": "",
							"type": "uint256"
						}
					],
					"stateMutability": "view",
					"type": "function"
				},
				{
					"inputs": [
						{
							"internalType": "address",
							"name": "",
							"type": "address"
						}
					],
					"name": "maxMint",
					"outputs": [
						{
							"internalType": "uint256",
							"name": "",
							"type": "uint256"
						}
					],
					"stateMutability": "view",
					"type": "function"
				},
				{
					"inputs": [
						{
							"internalType": "address",
							"name": "owner",
							"type": "address"
						}
					],
					"name": "maxRedeem",
					"outputs": [
						{
							"internalType": "uint256",
							"name": "",
							"type": "uint256"
						}
					],
					"stateMutability": "view",
					"type": "function"
				},
				{
					"inputs": [
						{
							"internalType": "address",
							"name": "owner",
							"type": "address"
						}
					],
					"name": "maxWithdraw",
					"outputs": [
						{
							"internalType": "uint256",
							"name": "",
							"type": "uint256"
						}
					],
					"stateMutability": "view",
					"type": "function"
				},
				{
					"inputs": [
						{
							"internalType": "uint256",
							"name": "shares",
							"type": "uint256"
						},
						{
							"internalType": "address",
							"name": "receiver",
							"type": "address"
						}
					],
					"name": "mint",
					"outputs": [
						{
							"internalType": "uint256",
							"name": "",
							"type": "uint256"
						}
					],
					"stateMutability": "nonpayable",
					"type": "function"
				},
				{
					"inputs": [],
					"name": "name",
					"outputs": [
						{
							"internalType": "string",
							"name": "",
							"type": "string"
						}
					],
					"stateMutability": "view",
					"type": "function"
				},
				{
					"inputs": [],
					"name": "permit2",
					"outputs": [
						{
							"internalType": "contract IPermit2",
							"name": "",
							"type": "address"
						}
					],
					"stateMutability": "view",
					"type": "function"
				},
				{
					"inputs": [
						{
							"internalType": "uint256",
							"name": "assets",
							"type": "uint256"
						}
					],
					"name": "previewDeposit",
					"outputs": [
						{
							"internalType": "uint256",
							"name": "",
							"type": "uint256"
						}
					],
					"stateMutability": "view",
					"type": "function"
				},
				{
					"inputs": [
						{
							"internalType": "uint256",
							"name": "shares",
							"type": "uint256"
						}
					],
					"name": "previewMint",
					"outputs": [
						{
							"internalType": "uint256",
							"name": "",
							"type": "uint256"
						}
					],
					"stateMutability": "view",
					"type": "function"
				},
				{
					"inputs": [
						{
							"internalType": "uint256",
							"name": "shares",
							"type": "uint256"
						}
					],
					"name": "previewRedeem",
					"outputs": [
						{
							"internalType": "uint256",
							"name": "",
							"type": "uint256"
						}
					],
					"stateMutability": "view",
					"type": "function"
				},
				{
					"inputs": [
						{
							"internalType": "uint256",
							"name": "assets",
							"type": "uint256"
						}
					],
					"name": "previewWithdraw",
					"outputs": [
						{
							"internalType": "uint256",
							"name": "",
							"type": "uint256"
						}
					],
					"stateMutability": "view",
					"type": "function"
				},
				{
					"inputs": [
						{
							"internalType": "uint256",
							"name": "shares",
							"type": "uint256"
						},
						{
							"internalType": "address",
							"name": "receiver",
							"type": "address"
						},
						{
							"internalType": "address",
							"name": "owner",
							"type": "address"
						}
					],
					"name": "redeem",
					"outputs": [
						{
							"internalType": "uint256",
							"name": "",
							"type": "uint256"
						}
					],
					"stateMutability": "nonpayable",
					"type": "function"
				},
				{
					"inputs": [
						{
							"internalType": "uint256",
							"name": "newBaseYieldRate",
							"type": "uint256"
						}
					],
					"name": "setBaseYieldRate",
					"outputs": [],
					"stateMutability": "nonpayable",
					"type": "function"
				},
				{
					"inputs": [],
					"name": "symbol",
					"outputs": [
						{
							"internalType": "string",
							"name": "",
							"type": "string"
						}
					],
					"stateMutability": "view",
					"type": "function"
				},
				{
					"inputs": [],
					"name": "totalAssets",
					"outputs": [
						{
							"internalType": "uint256",
							"name": "",
							"type": "uint256"
						}
					],
					"stateMutability": "view",
					"type": "function"
				},
				{
					"inputs": [],
					"name": "totalSupply",
					"outputs": [
						{
							"internalType": "uint256",
							"name": "",
							"type": "uint256"
						}
					],
					"stateMutability": "view",
					"type": "function"
				},
				{
					"inputs": [
						{
							"internalType": "address",
							"name": "to",
							"type": "address"
						},
						{
							"internalType": "uint256",
							"name": "value",
							"type": "uint256"
						}
					],
					"name": "transfer",
					"outputs": [
						{
							"internalType": "bool",
							"name": "",
							"type": "bool"
						}
					],
					"stateMutability": "nonpayable",
					"type": "function"
				},
				{
					"inputs": [
						{
							"internalType": "address",
							"name": "from",
							"type": "address"
						},
						{
							"internalType": "address",
							"name": "to",
							"type": "address"
						},
						{
							"internalType": "uint256",
							"name": "value",
							"type": "uint256"
						}
					],
					"name": "transferFrom",
					"outputs": [
						{
							"internalType": "bool",
							"name": "",
							"type": "bool"
						}
					],
					"stateMutability": "nonpayable",
					"type": "function"
				},
				{
					"inputs": [
						{
							"internalType": "uint256",
							"name": "assets",
							"type": "uint256"
						},
						{
							"internalType": "address",
							"name": "receiver",
							"type": "address"
						},
						{
							"internalType": "address",
							"name": "owner",
							"type": "address"
						}
					],
					"name": "withdraw",
					"outputs": [
						{
							"internalType": "uint256",
							"name": "shares",
							"type": "uint256"
						}
					],
					"stateMutability": "nonpayable",
					"type": "function"
				}
			],
			"devdoc": {
				"errors": {
					"AddressEmptyCode(address)": [
						{
							"details": "There's no code at `target` (it is not a contract)."
						}
					],
					"AddressInsufficientBalance(address)": [
						{
							"details": "The ETH balance of the account is not enough to perform the operation."
						}
					],
					"ERC20InsufficientAllowance(address,uint256,uint256)": [
						{
							"details": "Indicates a failure with the `spender`’s `allowance`. Used in transfers.",
							"params": {
								"allowance": "Amount of tokens a `spender` is allowed to operate with.",
								"needed": "Minimum amount required to perform a transfer.",
								"spender": "Address that may be allowed to operate on tokens without being their owner."
							}
						}
					],
					"ERC20InsufficientBalance(address,uint256,uint256)": [
						{
							"details": "Indicates an error related to the current `balance` of a `sender`. Used in transfers.",
							"params": {
								"balance": "Current balance for the interacting account.",
								"needed": "Minimum amount required to perform a transfer.",
								"sender": "Address whose tokens are being transferred."
							}
						}
					],
					"ERC20InvalidApprover(address)": [
						{
							"details": "Indicates a failure with the `approver` of a token to be approved. Used in approvals.",
							"params": {
								"approver": "Address initiating an approval operation."
							}
						}
					],
					"ERC20InvalidReceiver(address)": [
						{
							"details": "Indicates a failure with the token `receiver`. Used in transfers.",
							"params": {
								"receiver": "Address to which tokens are being transferred."
							}
						}
					],
					"ERC20InvalidSender(address)": [
						{
							"details": "Indicates a failure with the token `sender`. Used in transfers.",
							"params": {
								"sender": "Address whose tokens are being transferred."
							}
						}
					],
					"ERC20InvalidSpender(address)": [
						{
							"details": "Indicates a failure with the `spender` to be approved. Used in approvals.",
							"params": {
								"spender": "Address that may be allowed to operate on tokens without being their owner."
							}
						}
					],
					"ERC4626ExceededMaxDeposit(address,uint256,uint256)": [
						{
							"details": "Attempted to deposit more assets than the max amount for `receiver`."
						}
					],
					"ERC4626ExceededMaxMint(address,uint256,uint256)": [
						{
							"details": "Attempted to mint more shares than the max amount for `receiver`."
						}
					],
					"ERC4626ExceededMaxRedeem(address,uint256,uint256)": [
						{
							"details": "Attempted to redeem more shares than the max amount for `receiver`."
						}
					],
					"ERC4626ExceededMaxWithdraw(address,uint256,uint256)": [
						{
							"details": "Attempted to withdraw more assets than the max amount for `receiver`."
						}
					],
					"FailedInnerCall()": [
						{
							"details": "A call to an address target failed. The target may have reverted."
						}
					],
					"MathOverflowedMulDiv()": [
						{
							"details": "Muldiv operation overflow."
						}
					],
					"SafeERC20FailedOperation(address)": [
						{
							"details": "An operation with an ERC20 token failed."
						}
					]
				},
				"events": {
					"Approval(address,address,uint256)": {
						"details": "Emitted when the allowance of a `spender` for an `owner` is set by a call to {approve}. `value` is the new allowance."
					},
					"Transfer(address,address,uint256)": {
						"details": "Emitted when `value` tokens are moved from one account (`from`) to another (`to`). Note that `value` may be zero."
					}
				},
				"kind": "dev",
				"methods": {
					"allowance(address,address)": {
						"details": "See {IERC20-allowance}."
					},
					"approve(address,uint256)": {
						"details": "See {IERC20-approve}. NOTE: If `value` is the maximum `uint256`, the allowance is not updated on `transferFrom`. This is semantically equivalent to an infinite approval. Requirements: - `spender` cannot be the zero address."
					},
					"asset()": {
						"details": "See {IERC4626-asset}. "
					},
					"balanceOf(address)": {
						"details": "See {IERC20-balanceOf}."
					},
					"convertToAssets(uint256)": {
						"details": "See {IERC4626-convertToAssets}. "
					},
					"convertToShares(uint256)": {
						"details": "See {IERC4626-convertToShares}. "
					},
					"decimals()": {
						"details": "Decimals are computed by adding the decimal offset on top of the underlying asset's decimals. This \"original\" value is cached during construction of the vault contract. If this read operation fails (e.g., the asset has not been created yet), a default of 18 is used to represent the underlying asset's decimals. See {IERC20Metadata-decimals}."
					},
					"deposit(uint256,address)": {
						"details": "See {IERC4626-deposit}. "
					},
					"maxDeposit(address)": {
						"details": "See {IERC4626-maxDeposit}. "
					},
					"maxMint(address)": {
						"details": "See {IERC4626-maxMint}. "
					},
					"maxRedeem(address)": {
						"details": "See {IERC4626-maxRedeem}. "
					},
					"maxWithdraw(address)": {
						"details": "See {IERC4626-maxWithdraw}. "
					},
					"mint(uint256,address)": {
						"details": "See {IERC4626-mint}. As opposed to {deposit}, minting is allowed even if the vault is in a state where the price of a share is zero. In this case, the shares will be minted without requiring any assets to be deposited."
					},
					"name()": {
						"details": "Returns the name of the token."
					},
					"previewDeposit(uint256)": {
						"details": "See {IERC4626-previewDeposit}. "
					},
					"previewMint(uint256)": {
						"details": "See {IERC4626-previewMint}. "
					},
					"previewRedeem(uint256)": {
						"details": "See {IERC4626-previewRedeem}. "
					},
					"previewWithdraw(uint256)": {
						"details": "See {IERC4626-previewWithdraw}. "
					},
					"redeem(uint256,address,address)": {
						"details": "See {IERC4626-redeem}. "
					},
					"symbol()": {
						"details": "Returns the symbol of the token, usually a shorter version of the name."
					},
					"totalAssets()": {
						"details": "See {IERC4626-totalAssets}. "
					},
					"totalSupply()": {
						"details": "See {IERC20-totalSupply}."
					},
					"transfer(address,uint256)": {
						"details": "See {IERC20-transfer}. Requirements: - `to` cannot be the zero address. - the caller must have a balance of at least `value`."
					},
					"transferFrom(address,address,uint256)": {
						"details": "See {IERC20-transferFrom}. Emits an {Approval} event indicating the updated allowance. This is not required by the EIP. See the note at the beginning of {ERC20}. NOTE: Does not update the allowance if the current allowance is the maximum `uint256`. Requirements: - `from` and `to` cannot be the zero address. - `from` must have a balance of at least `value`. - the caller must have allowance for ``from``'s tokens of at least `value`."
					},
					"withdraw(uint256,address,address)": {
						"details": "See {IERC4626-withdraw}. "
					}
				},
				"version": 1
			},
			"evm": {
				"assembly": "    /* \"contracts/contracts/protocol/TuliaVault.sol\":423:3056  contract TuliaVault is ERC4626, ReentrancyGuard {... */\n  mstore(0x40, 0xc0)\n    /* \"contracts/contracts/protocol/TuliaVault.sol\":641:642  2 */\n  0x02\n    /* \"contracts/contracts/protocol/TuliaVault.sol\":610:642  uint256 public baseYieldRate = 2 */\n  0x08\n  sstore\n    /* \"contracts/contracts/protocol/TuliaVault.sol\":875:1106  constructor(IERC20 asset, string memory name, string memory symbol, IPermit2 _permit2)... */\n  callvalue\n  dup1\n  iszero\n  tag_1\n  jumpi\n  0x00\n  dup1\n  revert\ntag_1:\n  pop\n  mload(0x40)\n  sub(codesize, bytecodeSize)\n  dup1\n  bytecodeSize\n  dup4\n  codecopy\n  dup2\n  add\n  0x40\n  dup2\n  swap1\n  mstore\n  tag_2\n  swap2\n  tag_3\n  jump\t// in\ntag_2:\n    /* \"contracts/contracts/protocol/TuliaVault.sol\":979:984  asset */\n  dup4\n    /* \"contracts/contracts/protocol/TuliaVault.sol\":1001:1005  name */\n  dup4\n    /* \"contracts/contracts/protocol/TuliaVault.sol\":1007:1013  symbol */\n  dup4\n    /* \"@openzeppelin/contracts/token/ERC20/ERC20.sol\":1962:1967  _name */\n  0x03\n    /* \"@openzeppelin/contracts/token/ERC20/ERC20.sol\":1962:1975  _name = name_ */\n  tag_9\n    /* \"contracts/contracts/protocol/TuliaVault.sol\":1001:1005  name */\n  dup4\n    /* \"@openzeppelin/contracts/token/ERC20/ERC20.sol\":1962:1967  _name */\n  dup3\n    /* \"@openzeppelin/contracts/token/ERC20/ERC20.sol\":1962:1975  _name = name_ */\n  tag_10\n  jump\t// in\ntag_9:\n  pop\n    /* \"@openzeppelin/contracts/token/ERC20/ERC20.sol\":1985:1992  _symbol */\n  0x04\n    /* \"@openzeppelin/contracts/token/ERC20/ERC20.sol\":1985:2002  _symbol = symbol_ */\n  tag_11\n    /* \"@openzeppelin/contracts/token/ERC20/ERC20.sol\":1995:2002  symbol_ */\n  dup3\n    /* \"@openzeppelin/contracts/token/ERC20/ERC20.sol\":1985:1992  _symbol */\n  dup3\n    /* \"@openzeppelin/contracts/token/ERC20/ERC20.sol\":1985:2002  _symbol = symbol_ */\n  tag_10\n  jump\t// in\ntag_11:\n  pop\n    /* \"@openzeppelin/contracts/token/ERC20/ERC20.sol\":1896:2009  constructor(string memory name_, string memory symbol_) {... */\n  pop\n  pop\n    /* \"@openzeppelin/contracts/token/ERC20/extensions/ERC4626.sol\":4203:4215  bool success */\n  0x00\n    /* \"@openzeppelin/contracts/token/ERC20/extensions/ERC4626.sol\":4217:4236  uint8 assetDecimals */\n  dup1\n    /* \"@openzeppelin/contracts/token/ERC20/extensions/ERC4626.sol\":4240:4268  _tryGetAssetDecimals(asset_) */\n  tag_13\n    /* \"@openzeppelin/contracts/token/ERC20/extensions/ERC4626.sol\":4261:4267  asset_ */\n  dup4\n    /* \"@openzeppelin/contracts/token/ERC20/extensions/ERC4626.sol\":4240:4260  _tryGetAssetDecimals */\n  shl(0x20, tag_14)\n    /* \"@openzeppelin/contracts/token/ERC20/extensions/ERC4626.sol\":4240:4268  _tryGetAssetDecimals(asset_) */\n  0x20\n  shr\n  jump\t// in\ntag_13:\n    /* \"@openzeppelin/contracts/token/ERC20/extensions/ERC4626.sol\":4202:4268  (bool success, uint8 assetDecimals) = _tryGetAssetDecimals(asset_) */\n  swap2\n  pop\n  swap2\n  pop\n    /* \"@openzeppelin/contracts/token/ERC20/extensions/ERC4626.sol\":4300:4307  success */\n  dup2\n    /* \"@openzeppelin/contracts/token/ERC20/extensions/ERC4626.sol\":4300:4328  success ? assetDecimals : 18 */\n  tag_15\n  jumpi\n    /* \"@openzeppelin/contracts/token/ERC20/extensions/ERC4626.sol\":4326:4328  18 */\n  0x12\n    /* \"@openzeppelin/contracts/token/ERC20/extensions/ERC4626.sol\":4300:4328  success ? assetDecimals : 18 */\n  jump(tag_16)\ntag_15:\n    /* \"@openzeppelin/contracts/token/ERC20/extensions/ERC4626.sol\":4310:4323  assetDecimals */\n  dup1\n    /* \"@openzeppelin/contracts/token/ERC20/extensions/ERC4626.sol\":4300:4328  success ? assetDecimals : 18 */\ntag_16:\n    /* \"@openzeppelin/contracts/token/ERC20/extensions/ERC4626.sol\":4278:4328  _underlyingDecimals = success ? assetDecimals : 18 */\n  0xff\n  and\n  0xa0\n  mstore\n  pop\n  pop\n  sub(shl(0xa0, 0x01), 0x01)\n    /* \"@openzeppelin/contracts/token/ERC20/extensions/ERC4626.sol\":4338:4353  _asset = asset_ */\n  swap1\n  dup2\n  and\n  0x80\n  mstore\n    /* \"@openzeppelin/contracts/security/ReentrancyGuard.sol\":1716:1717  1 */\n  0x01\n    /* \"@openzeppelin/contracts/security/ReentrancyGuard.sol\":1821:1828  _status */\n  0x05\n    /* \"@openzeppelin/contracts/security/ReentrancyGuard.sol\":1821:1843  _status = _NOT_ENTERED */\n  sstore\n    /* \"contracts/contracts/protocol/TuliaVault.sol\":1031:1038  permit2 */\n  0x06\n    /* \"contracts/contracts/protocol/TuliaVault.sol\":1031:1049  permit2 = _permit2 */\n  dup1\n  sload\n  not(sub(shl(0xa0, 0x01), 0x01))\n  and\n  swap3\n  swap1\n  swap2\n  and\n  swap2\n  swap1\n  swap2\n  or\n  swap1\n  sstore\n  pop\n  pop\n    /* \"contracts/contracts/protocol/TuliaVault.sol\":1083:1098  block.timestamp */\n  timestamp\n    /* \"contracts/contracts/protocol/TuliaVault.sol\":1060:1080  lastYieldAccrualTime */\n  0x07\n    /* \"contracts/contracts/protocol/TuliaVault.sol\":1060:1098  lastYieldAccrualTime = block.timestamp */\n  sstore\n  pop\n    /* \"contracts/contracts/protocol/TuliaVault.sol\":423:3056  contract TuliaVault is ERC4626, ReentrancyGuard {... */\n  jump(tag_38)\n    /* \"@openzeppelin/contracts/token/ERC20/extensions/ERC4626.sol\":4503:5036  function _tryGetAssetDecimals(IERC20 asset_) private view returns (bool, uint8) {... */\ntag_14:\n    /* \"@openzeppelin/contracts/token/ERC20/extensions/ERC4626.sol\":4680:4723  abi.encodeCall(IERC20Metadata.decimals, ()) */\n  0x40\n  dup1\n  mload\n  0x04\n  dup2\n  mstore\n  0x24\n  dup2\n  add\n  dup3\n  mstore\n  0x20\n  dup2\n  add\n  dup1\n  mload\n  sub(shl(0xe0, 0x01), 0x01)\n  and\n  shl(0xe0, 0x313ce567)\n  or\n  swap1\n  mstore\n    /* \"@openzeppelin/contracts/token/ERC20/extensions/ERC4626.sol\":4640:4733  address(asset_).staticcall(... */\n  swap1\n  mload\n    /* \"@openzeppelin/contracts/token/ERC20/extensions/ERC4626.sol\":4570:4574  bool */\n  0x00\n  swap2\n  dup3\n  swap2\n  dup3\n  swap2\n  dup3\n  swap2\n  sub(shl(0xa0, 0x01), 0x01)\n    /* \"@openzeppelin/contracts/token/ERC20/extensions/ERC4626.sol\":4640:4666  address(asset_).staticcall */\n  dup8\n  and\n  swap2\n    /* \"@openzeppelin/contracts/token/ERC20/extensions/ERC4626.sol\":4640:4733  address(asset_).staticcall(... */\n  tag_21\n  swap2\n  tag_22\n  jump\t// in\ntag_21:\n  0x00\n  mload(0x40)\n  dup1\n  dup4\n  sub\n  dup2\n  dup6\n  gas\n  staticcall\n  swap2\n  pop\n  pop\n  returndatasize\n  dup1\n  0x00\n  dup2\n  eq\n  tag_25\n  jumpi\n  mload(0x40)\n  swap2\n  pop\n  and(add(returndatasize, 0x3f), not(0x1f))\n  dup3\n  add\n  0x40\n  mstore\n  returndatasize\n  dup3\n  mstore\n  returndatasize\n  0x00\n  0x20\n  dup5\n  add\n  returndatacopy\n  jump(tag_24)\ntag_25:\n  0x60\n  swap2\n  pop\ntag_24:\n  pop\n    /* \"@openzeppelin/contracts/token/ERC20/extensions/ERC4626.sol\":4593:4733  (bool success, bytes memory encodedDecimals) = address(asset_).staticcall(... */\n  swap2\n  pop\n  swap2\n  pop\n    /* \"@openzeppelin/contracts/token/ERC20/extensions/ERC4626.sol\":4747:4754  success */\n  dup2\n    /* \"@openzeppelin/contracts/token/ERC20/extensions/ERC4626.sol\":4747:4786  success && encodedDecimals.length >= 32 */\n  dup1\n  iszero\n  tag_26\n  jumpi\n  pop\n    /* \"@openzeppelin/contracts/token/ERC20/extensions/ERC4626.sol\":4784:4786  32 */\n  0x20\n    /* \"@openzeppelin/contracts/token/ERC20/extensions/ERC4626.sol\":4758:4773  encodedDecimals */\n  dup2\n    /* \"@openzeppelin/contracts/token/ERC20/extensions/ERC4626.sol\":4758:4780  encodedDecimals.length */\n  mload\n    /* \"@openzeppelin/contracts/token/ERC20/extensions/ERC4626.sol\":4758:4786  encodedDecimals.length >= 32 */\n  lt\n  iszero\n    /* \"@openzeppelin/contracts/token/ERC20/extensions/ERC4626.sol\":4747:4786  success && encodedDecimals.length >= 32 */\ntag_26:\n    /* \"@openzeppelin/contracts/token/ERC20/extensions/ERC4626.sol\":4743:5003  if (success && encodedDecimals.length >= 32) {... */\n  iszero\n  tag_27\n  jumpi\n    /* \"@openzeppelin/contracts/token/ERC20/extensions/ERC4626.sol\":4802:4826  uint256 returnedDecimals */\n  0x00\n    /* \"@openzeppelin/contracts/token/ERC20/extensions/ERC4626.sol\":4840:4855  encodedDecimals */\n  dup2\n    /* \"@openzeppelin/contracts/token/ERC20/extensions/ERC4626.sol\":4829:4867  abi.decode(encodedDecimals, (uint256)) */\n  dup1\n  0x20\n  add\n  swap1\n  mload\n  dup2\n  add\n  swap1\n  tag_28\n  swap2\n  swap1\n  tag_29\n  jump\t// in\ntag_28:\n    /* \"@openzeppelin/contracts/token/ERC20/extensions/ERC4626.sol\":4802:4867  uint256 returnedDecimals = abi.decode(encodedDecimals, (uint256)) */\n  swap1\n  pop\n    /* \"@openzeppelin/contracts/token/ERC20/extensions/ERC4626.sol\":4905:4920  type(uint8).max */\n  0xff\n    /* \"@openzeppelin/contracts/token/ERC20/extensions/ERC4626.sol\":4885:4920  returnedDecimals <= type(uint8).max */\n  dup2\n  gt\n    /* \"@openzeppelin/contracts/token/ERC20/extensions/ERC4626.sol\":4881:4993  if (returnedDecimals <= type(uint8).max) {... */\n  tag_30\n  jumpi\n    /* \"@openzeppelin/contracts/token/ERC20/extensions/ERC4626.sol\":4948:4952  true */\n  0x01\n  swap7\n    /* \"@openzeppelin/contracts/token/ERC20/extensions/ERC4626.sol\":4960:4976  returnedDecimals */\n  swap1\n  swap6\n  pop\n    /* \"@openzeppelin/contracts/token/ERC20/extensions/ERC4626.sol\":4503:5036  function _tryGetAssetDecimals(IERC20 asset_) private view returns (bool, uint8) {... */\n  swap4\n  pop\n  pop\n  pop\n  pop\n  jump\t// out\n    /* \"@openzeppelin/contracts/token/ERC20/extensions/ERC4626.sol\":4881:4993  if (returnedDecimals <= type(uint8).max) {... */\ntag_30:\n    /* \"@openzeppelin/contracts/token/ERC20/extensions/ERC4626.sol\":4788:5003  {... */\n  pop\n    /* \"@openzeppelin/contracts/token/ERC20/extensions/ERC4626.sol\":4743:5003  if (success && encodedDecimals.length >= 32) {... */\ntag_27:\n  pop\n    /* \"@openzeppelin/contracts/token/ERC20/extensions/ERC4626.sol\":5020:5025  false */\n  0x00\n  swap5\n  dup6\n  swap5\n  pop\n    /* \"@openzeppelin/contracts/token/ERC20/extensions/ERC4626.sol\":4503:5036  function _tryGetAssetDecimals(IERC20 asset_) private view returns (bool, uint8) {... */\n  swap3\n  pop\n  pop\n  pop\n  jump\t// out\n    /* \"#utility.yul\":14:153   */\ntag_31:\n  sub(shl(0xa0, 0x01), 0x01)\n    /* \"#utility.yul\":97:128   */\n  dup2\n  and\n    /* \"#utility.yul\":87:129   */\n  dup2\n  eq\n    /* \"#utility.yul\":77:147   */\n  tag_40\n  jumpi\n    /* \"#utility.yul\":143:144   */\n  0x00\n    /* \"#utility.yul\":140:141   */\n  dup1\n    /* \"#utility.yul\":133:145   */\n  revert\n    /* \"#utility.yul\":77:147   */\ntag_40:\n    /* \"#utility.yul\":14:153   */\n  pop\n  jump\t// out\n    /* \"#utility.yul\":158:285   */\ntag_32:\n    /* \"#utility.yul\":219:229   */\n  0x4e487b71\n    /* \"#utility.yul\":214:217   */\n  0xe0\n    /* \"#utility.yul\":210:230   */\n  shl\n    /* \"#utility.yul\":207:208   */\n  0x00\n    /* \"#utility.yul\":200:231   */\n  mstore\n    /* \"#utility.yul\":250:254   */\n  0x41\n    /* \"#utility.yul\":247:248   */\n  0x04\n    /* \"#utility.yul\":240:255   */\n  mstore\n    /* \"#utility.yul\":274:278   */\n  0x24\n    /* \"#utility.yul\":271:272   */\n  0x00\n    /* \"#utility.yul\":264:279   */\n  revert\n    /* \"#utility.yul\":290:1006   */\ntag_33:\n    /* \"#utility.yul\":344:349   */\n  0x00\n    /* \"#utility.yul\":397:400   */\n  dup3\n    /* \"#utility.yul\":390:394   */\n  0x1f\n    /* \"#utility.yul\":382:388   */\n  dup4\n    /* \"#utility.yul\":378:395   */\n  add\n    /* \"#utility.yul\":374:401   */\n  slt\n    /* \"#utility.yul\":364:419   */\n  tag_43\n  jumpi\n    /* \"#utility.yul\":415:416   */\n  0x00\n    /* \"#utility.yul\":412:413   */\n  dup1\n    /* \"#utility.yul\":405:417   */\n  revert\n    /* \"#utility.yul\":364:419   */\ntag_43:\n    /* \"#utility.yul\":438:451   */\n  dup2\n  mload\n  sub(shl(0x40, 0x01), 0x01)\n    /* \"#utility.yul\":500:510   */\n  dup1\n  dup3\n  gt\n    /* \"#utility.yul\":497:533   */\n  iszero\n  tag_45\n  jumpi\n    /* \"#utility.yul\":513:531   */\n  tag_45\n  tag_32\n  jump\t// in\ntag_45:\n    /* \"#utility.yul\":588:590   */\n  0x40\n    /* \"#utility.yul\":582:591   */\n  mload\n    /* \"#utility.yul\":556:558   */\n  0x1f\n    /* \"#utility.yul\":642:655   */\n  dup4\n  add\n  not(0x1f)\n    /* \"#utility.yul\":638:660   */\n  swap1\n  dup2\n  and\n    /* \"#utility.yul\":662:664   */\n  0x3f\n    /* \"#utility.yul\":634:665   */\n  add\n    /* \"#utility.yul\":630:670   */\n  and\n    /* \"#utility.yul\":618:671   */\n  dup2\n  add\n  swap1\n    /* \"#utility.yul\":686:704   */\n  dup3\n  dup3\n  gt\n    /* \"#utility.yul\":706:728   */\n  dup2\n  dup4\n  lt\n    /* \"#utility.yul\":683:729   */\n  or\n    /* \"#utility.yul\":680:752   */\n  iszero\n  tag_47\n  jumpi\n    /* \"#utility.yul\":732:750   */\n  tag_47\n  tag_32\n  jump\t// in\ntag_47:\n    /* \"#utility.yul\":772:782   */\n  dup2\n    /* \"#utility.yul\":768:770   */\n  0x40\n    /* \"#utility.yul\":761:783   */\n  mstore\n    /* \"#utility.yul\":807:809   */\n  dup4\n    /* \"#utility.yul\":799:805   */\n  dup2\n    /* \"#utility.yul\":792:810   */\n  mstore\n    /* \"#utility.yul\":853:856   */\n  dup7\n    /* \"#utility.yul\":846:850   */\n  0x20\n    /* \"#utility.yul\":841:843   */\n  dup6\n    /* \"#utility.yul\":833:839   */\n  dup9\n    /* \"#utility.yul\":829:844   */\n  add\n    /* \"#utility.yul\":825:851   */\n  add\n    /* \"#utility.yul\":822:857   */\n  gt\n    /* \"#utility.yul\":819:874   */\n  iszero\n  tag_48\n  jumpi\n    /* \"#utility.yul\":870:871   */\n  0x00\n    /* \"#utility.yul\":867:868   */\n  dup1\n    /* \"#utility.yul\":860:872   */\n  revert\n    /* \"#utility.yul\":819:874   */\ntag_48:\n    /* \"#utility.yul\":927:929   */\n  dup4\n    /* \"#utility.yul\":920:924   */\n  0x20\n    /* \"#utility.yul\":912:918   */\n  dup8\n    /* \"#utility.yul\":908:925   */\n  add\n    /* \"#utility.yul\":901:905   */\n  0x20\n    /* \"#utility.yul\":893:899   */\n  dup4\n    /* \"#utility.yul\":889:906   */\n  add\n    /* \"#utility.yul\":883:930   */\n  mcopy\n    /* \"#utility.yul\":974:975   */\n  0x00\n    /* \"#utility.yul\":967:971   */\n  0x20\n    /* \"#utility.yul\":962:964   */\n  dup6\n    /* \"#utility.yul\":954:960   */\n  dup4\n    /* \"#utility.yul\":950:965   */\n  add\n    /* \"#utility.yul\":946:972   */\n  add\n    /* \"#utility.yul\":939:976   */\n  mstore\n    /* \"#utility.yul\":994:1000   */\n  dup1\n    /* \"#utility.yul\":985:1000   */\n  swap5\n  pop\n  pop\n  pop\n  pop\n  pop\n    /* \"#utility.yul\":290:1006   */\n  swap3\n  swap2\n  pop\n  pop\n  jump\t// out\n    /* \"#utility.yul\":1011:1883   */\ntag_3:\n    /* \"#utility.yul\":1159:1165   */\n  0x00\n    /* \"#utility.yul\":1167:1173   */\n  dup1\n    /* \"#utility.yul\":1175:1181   */\n  0x00\n    /* \"#utility.yul\":1183:1189   */\n  dup1\n    /* \"#utility.yul\":1236:1239   */\n  0x80\n    /* \"#utility.yul\":1224:1233   */\n  dup6\n    /* \"#utility.yul\":1215:1222   */\n  dup8\n    /* \"#utility.yul\":1211:1234   */\n  sub\n    /* \"#utility.yul\":1207:1240   */\n  slt\n    /* \"#utility.yul\":1204:1257   */\n  iszero\n  tag_50\n  jumpi\n    /* \"#utility.yul\":1253:1254   */\n  0x00\n    /* \"#utility.yul\":1250:1251   */\n  dup1\n    /* \"#utility.yul\":1243:1255   */\n  revert\n    /* \"#utility.yul\":1204:1257   */\ntag_50:\n    /* \"#utility.yul\":1285:1294   */\n  dup5\n    /* \"#utility.yul\":1279:1295   */\n  mload\n    /* \"#utility.yul\":1304:1343   */\n  tag_51\n    /* \"#utility.yul\":1337:1342   */\n  dup2\n    /* \"#utility.yul\":1304:1343   */\n  tag_31\n  jump\t// in\ntag_51:\n    /* \"#utility.yul\":1411:1413   */\n  0x20\n    /* \"#utility.yul\":1396:1414   */\n  dup7\n  add\n    /* \"#utility.yul\":1390:1415   */\n  mload\n    /* \"#utility.yul\":1362:1367   */\n  swap1\n  swap5\n  pop\n  sub(shl(0x40, 0x01), 0x01)\n    /* \"#utility.yul\":1464:1478   */\n  dup1\n  dup3\n  gt\n    /* \"#utility.yul\":1461:1495   */\n  iszero\n  tag_52\n  jumpi\n    /* \"#utility.yul\":1491:1492   */\n  0x00\n    /* \"#utility.yul\":1488:1489   */\n  dup1\n    /* \"#utility.yul\":1481:1493   */\n  revert\n    /* \"#utility.yul\":1461:1495   */\ntag_52:\n    /* \"#utility.yul\":1514:1575   */\n  tag_53\n    /* \"#utility.yul\":1567:1574   */\n  dup9\n    /* \"#utility.yul\":1558:1564   */\n  dup4\n    /* \"#utility.yul\":1547:1556   */\n  dup10\n    /* \"#utility.yul\":1543:1565   */\n  add\n    /* \"#utility.yul\":1514:1575   */\n  tag_33\n  jump\t// in\ntag_53:\n    /* \"#utility.yul\":1504:1575   */\n  swap5\n  pop\n    /* \"#utility.yul\":1621:1623   */\n  0x40\n    /* \"#utility.yul\":1610:1619   */\n  dup8\n    /* \"#utility.yul\":1606:1624   */\n  add\n    /* \"#utility.yul\":1600:1625   */\n  mload\n    /* \"#utility.yul\":1584:1625   */\n  swap2\n  pop\n    /* \"#utility.yul\":1650:1652   */\n  dup1\n    /* \"#utility.yul\":1640:1648   */\n  dup3\n    /* \"#utility.yul\":1637:1653   */\n  gt\n    /* \"#utility.yul\":1634:1670   */\n  iszero\n  tag_54\n  jumpi\n    /* \"#utility.yul\":1666:1667   */\n  0x00\n    /* \"#utility.yul\":1663:1664   */\n  dup1\n    /* \"#utility.yul\":1656:1668   */\n  revert\n    /* \"#utility.yul\":1634:1670   */\ntag_54:\n  pop\n    /* \"#utility.yul\":1689:1752   */\n  tag_55\n    /* \"#utility.yul\":1744:1751   */\n  dup8\n    /* \"#utility.yul\":1733:1741   */\n  dup3\n    /* \"#utility.yul\":1722:1731   */\n  dup9\n    /* \"#utility.yul\":1718:1742   */\n  add\n    /* \"#utility.yul\":1689:1752   */\n  tag_33\n  jump\t// in\ntag_55:\n    /* \"#utility.yul\":1679:1752   */\n  swap3\n  pop\n  pop\n    /* \"#utility.yul\":1797:1799   */\n  0x60\n    /* \"#utility.yul\":1786:1795   */\n  dup6\n    /* \"#utility.yul\":1782:1800   */\n  add\n    /* \"#utility.yul\":1776:1801   */\n  mload\n    /* \"#utility.yul\":1810:1851   */\n  tag_56\n    /* \"#utility.yul\":1843:1850   */\n  dup2\n    /* \"#utility.yul\":1810:1851   */\n  tag_31\n  jump\t// in\ntag_56:\n    /* \"#utility.yul\":1011:1883   */\n  swap4\n  swap7\n  swap3\n  swap6\n  pop\n  swap1\n  swap4\n  pop\n  pop\n  jump\t// out\n    /* \"#utility.yul\":1888:2268   */\ntag_34:\n    /* \"#utility.yul\":1967:1968   */\n  0x01\n    /* \"#utility.yul\":1963:1975   */\n  dup2\n  dup2\n  shr\n  swap1\n    /* \"#utility.yul\":2010:2022   */\n  dup3\n  and\n  dup1\n    /* \"#utility.yul\":2031:2092   */\n  tag_58\n  jumpi\n    /* \"#utility.yul\":2085:2089   */\n  0x7f\n    /* \"#utility.yul\":2077:2083   */\n  dup3\n    /* \"#utility.yul\":2073:2090   */\n  and\n    /* \"#utility.yul\":2063:2090   */\n  swap2\n  pop\n    /* \"#utility.yul\":2031:2092   */\ntag_58:\n    /* \"#utility.yul\":2138:2140   */\n  0x20\n    /* \"#utility.yul\":2130:2136   */\n  dup3\n    /* \"#utility.yul\":2127:2141   */\n  lt\n    /* \"#utility.yul\":2107:2125   */\n  dup2\n    /* \"#utility.yul\":2104:2142   */\n  sub\n    /* \"#utility.yul\":2101:2262   */\n  tag_59\n  jumpi\n    /* \"#utility.yul\":2184:2194   */\n  0x4e487b71\n    /* \"#utility.yul\":2179:2182   */\n  0xe0\n    /* \"#utility.yul\":2175:2195   */\n  shl\n    /* \"#utility.yul\":2172:2173   */\n  0x00\n    /* \"#utility.yul\":2165:2196   */\n  mstore\n    /* \"#utility.yul\":2219:2223   */\n  0x22\n    /* \"#utility.yul\":2216:2217   */\n  0x04\n    /* \"#utility.yul\":2209:2224   */\n  mstore\n    /* \"#utility.yul\":2247:2251   */\n  0x24\n    /* \"#utility.yul\":2244:2245   */\n  0x00\n    /* \"#utility.yul\":2237:2252   */\n  revert\n    /* \"#utility.yul\":2101:2262   */\ntag_59:\n  pop\n    /* \"#utility.yul\":1888:2268   */\n  swap2\n  swap1\n  pop\n  jump\t// out\n    /* \"#utility.yul\":2399:2917   */\ntag_36:\n    /* \"#utility.yul\":2501:2503   */\n  0x1f\n    /* \"#utility.yul\":2496:2499   */\n  dup3\n    /* \"#utility.yul\":2493:2504   */\n  gt\n    /* \"#utility.yul\":2490:2911   */\n  iszero\n  tag_62\n  jumpi\n    /* \"#utility.yul\":2537:2542   */\n  dup1\n    /* \"#utility.yul\":2534:2535   */\n  0x00\n    /* \"#utility.yul\":2527:2543   */\n  mstore\n    /* \"#utility.yul\":2581:2585   */\n  0x20\n    /* \"#utility.yul\":2578:2579   */\n  0x00\n    /* \"#utility.yul\":2568:2586   */\n  keccak256\n    /* \"#utility.yul\":2651:2653   */\n  0x1f\n    /* \"#utility.yul\":2639:2649   */\n  dup5\n    /* \"#utility.yul\":2635:2654   */\n  add\n    /* \"#utility.yul\":2632:2633   */\n  0x05\n    /* \"#utility.yul\":2628:2655   */\n  shr\n    /* \"#utility.yul\":2622:2626   */\n  dup2\n    /* \"#utility.yul\":2618:2656   */\n  add\n    /* \"#utility.yul\":2687:2691   */\n  0x20\n    /* \"#utility.yul\":2675:2685   */\n  dup6\n    /* \"#utility.yul\":2672:2692   */\n  lt\n    /* \"#utility.yul\":2669:2716   */\n  iszero\n  tag_63\n  jumpi\n  pop\n    /* \"#utility.yul\":2710:2714   */\n  dup1\n    /* \"#utility.yul\":2669:2716   */\ntag_63:\n    /* \"#utility.yul\":2765:2767   */\n  0x1f\n    /* \"#utility.yul\":2760:2763   */\n  dup5\n    /* \"#utility.yul\":2756:2768   */\n  add\n    /* \"#utility.yul\":2753:2754   */\n  0x05\n    /* \"#utility.yul\":2749:2769   */\n  shr\n    /* \"#utility.yul\":2743:2747   */\n  dup3\n    /* \"#utility.yul\":2739:2770   */\n  add\n    /* \"#utility.yul\":2729:2770   */\n  swap2\n  pop\n    /* \"#utility.yul\":2820:2901   */\ntag_64:\n    /* \"#utility.yul\":2838:2840   */\n  dup2\n    /* \"#utility.yul\":2831:2836   */\n  dup2\n    /* \"#utility.yul\":2828:2841   */\n  lt\n    /* \"#utility.yul\":2820:2901   */\n  iszero\n  tag_66\n  jumpi\n    /* \"#utility.yul\":2897:2898   */\n  0x00\n    /* \"#utility.yul\":2883:2899   */\n  dup2\n  sstore\n    /* \"#utility.yul\":2864:2865   */\n  0x01\n    /* \"#utility.yul\":2853:2866   */\n  add\n    /* \"#utility.yul\":2820:2901   */\n  jump(tag_64)\ntag_66:\n    /* \"#utility.yul\":2824:2827   */\n  pop\n  pop\n    /* \"#utility.yul\":2490:2911   */\ntag_62:\n    /* \"#utility.yul\":2399:2917   */\n  pop\n  pop\n  pop\n  jump\t// out\n    /* \"#utility.yul\":3093:4438   */\ntag_10:\n    /* \"#utility.yul\":3213:3223   */\n  dup2\n  mload\n  sub(shl(0x40, 0x01), 0x01)\n    /* \"#utility.yul\":3235:3265   */\n  dup2\n  gt\n    /* \"#utility.yul\":3232:3288   */\n  iszero\n  tag_70\n  jumpi\n    /* \"#utility.yul\":3268:3286   */\n  tag_70\n  tag_32\n  jump\t// in\ntag_70:\n    /* \"#utility.yul\":3297:3394   */\n  tag_71\n    /* \"#utility.yul\":3387:3393   */\n  dup2\n    /* \"#utility.yul\":3347:3385   */\n  tag_72\n    /* \"#utility.yul\":3379:3383   */\n  dup5\n    /* \"#utility.yul\":3373:3384   */\n  sload\n    /* \"#utility.yul\":3347:3385   */\n  tag_34\n  jump\t// in\ntag_72:\n    /* \"#utility.yul\":3341:3345   */\n  dup5\n    /* \"#utility.yul\":3297:3394   */\n  tag_36\n  jump\t// in\ntag_71:\n    /* \"#utility.yul\":3449:3453   */\n  0x20\n  dup1\n    /* \"#utility.yul\":3506:3508   */\n  0x1f\n    /* \"#utility.yul\":3495:3509   */\n  dup4\n  gt\n    /* \"#utility.yul\":3523:3524   */\n  0x01\n    /* \"#utility.yul\":3518:4181   */\n  dup2\n  eq\n  tag_74\n  jumpi\n    /* \"#utility.yul\":4225:4226   */\n  0x00\n    /* \"#utility.yul\":4242:4248   */\n  dup5\n    /* \"#utility.yul\":4239:4328   */\n  iszero\n  tag_75\n  jumpi\n  pop\n    /* \"#utility.yul\":4294:4313   */\n  dup6\n  dup4\n  add\n    /* \"#utility.yul\":4288:4314   */\n  mload\n    /* \"#utility.yul\":4239:4328   */\ntag_75:\n  not(0x00)\n    /* \"#utility.yul\":3050:3051   */\n  0x03\n    /* \"#utility.yul\":3046:3057   */\n  dup7\n  swap1\n  shl\n    /* \"#utility.yul\":3042:3066   */\n  shr\n    /* \"#utility.yul\":3038:3067   */\n  not\n    /* \"#utility.yul\":3028:3068   */\n  and\n    /* \"#utility.yul\":3074:3075   */\n  0x01\n    /* \"#utility.yul\":3070:3081   */\n  dup6\n  swap1\n  shl\n    /* \"#utility.yul\":3025:3082   */\n  or\n    /* \"#utility.yul\":4341:4422   */\n  dup6\n  sstore\n    /* \"#utility.yul\":3488:4432   */\n  jump(tag_73)\n    /* \"#utility.yul\":3518:4181   */\ntag_74:\n    /* \"#utility.yul\":2346:2347   */\n  0x00\n    /* \"#utility.yul\":2339:2353   */\n  dup6\n  dup2\n  mstore\n    /* \"#utility.yul\":2383:2387   */\n  0x20\n    /* \"#utility.yul\":2370:2388   */\n  dup2\n  keccak256\n  not(0x1f)\n    /* \"#utility.yul\":3554:3574   */\n  dup7\n  and\n  swap2\n    /* \"#utility.yul\":3672:3908   */\ntag_78:\n    /* \"#utility.yul\":3686:3693   */\n  dup3\n    /* \"#utility.yul\":3683:3684   */\n  dup2\n    /* \"#utility.yul\":3680:3694   */\n  lt\n    /* \"#utility.yul\":3672:3908   */\n  iszero\n  tag_80\n  jumpi\n    /* \"#utility.yul\":3775:3794   */\n  dup9\n  dup7\n  add\n    /* \"#utility.yul\":3769:3795   */\n  mload\n    /* \"#utility.yul\":3754:3796   */\n  dup3\n  sstore\n    /* \"#utility.yul\":3867:3894   */\n  swap5\n  dup5\n  add\n  swap5\n    /* \"#utility.yul\":3835:3836   */\n  0x01\n    /* \"#utility.yul\":3823:3837   */\n  swap1\n  swap2\n  add\n  swap1\n    /* \"#utility.yul\":3702:3721   */\n  dup5\n  add\n    /* \"#utility.yul\":3672:3908   */\n  jump(tag_78)\ntag_80:\n    /* \"#utility.yul\":3676:3679   */\n  pop\n    /* \"#utility.yul\":3936:3942   */\n  dup6\n    /* \"#utility.yul\":3927:3934   */\n  dup3\n    /* \"#utility.yul\":3924:3943   */\n  lt\n    /* \"#utility.yul\":3921:4122   */\n  iszero\n  tag_81\n  jumpi\n    /* \"#utility.yul\":3997:4016   */\n  dup8\n  dup6\n  add\n    /* \"#utility.yul\":3991:4017   */\n  mload\n  not(0x00)\n    /* \"#utility.yul\":4080:4081   */\n  0x03\n    /* \"#utility.yul\":4076:4090   */\n  dup9\n  swap1\n  shl\n    /* \"#utility.yul\":4092:4095   */\n  0xf8\n    /* \"#utility.yul\":4072:4096   */\n  and\n    /* \"#utility.yul\":4068:4105   */\n  shr\n    /* \"#utility.yul\":4064:4106   */\n  not\n    /* \"#utility.yul\":4049:4107   */\n  and\n    /* \"#utility.yul\":4034:4108   */\n  dup2\n  sstore\n    /* \"#utility.yul\":3921:4122   */\ntag_81:\n  pop\n  pop\n    /* \"#utility.yul\":4168:4169   */\n  0x01\n    /* \"#utility.yul\":4159:4165   */\n  dup5\n    /* \"#utility.yul\":4156:4157   */\n  0x01\n    /* \"#utility.yul\":4152:4166   */\n  shl\n    /* \"#utility.yul\":4148:4170   */\n  add\n    /* \"#utility.yul\":4142:4146   */\n  dup6\n    /* \"#utility.yul\":4135:4171   */\n  sstore\n    /* \"#utility.yul\":3488:4432   */\ntag_73:\n  pop\n  pop\n  pop\n  pop\n    /* \"#utility.yul\":3093:4438   */\n  pop\n  pop\n  jump\t// out\n    /* \"#utility.yul\":4443:4744   */\ntag_22:\n    /* \"#utility.yul\":4572:4575   */\n  0x00\n    /* \"#utility.yul\":4610:4616   */\n  dup3\n    /* \"#utility.yul\":4604:4617   */\n  mload\n    /* \"#utility.yul\":4656:4662   */\n  dup1\n    /* \"#utility.yul\":4649:4653   */\n  0x20\n    /* \"#utility.yul\":4641:4647   */\n  dup6\n    /* \"#utility.yul\":4637:4654   */\n  add\n    /* \"#utility.yul\":4632:4635   */\n  dup5\n    /* \"#utility.yul\":4626:4663   */\n  mcopy\n    /* \"#utility.yul\":4718:4719   */\n  0x00\n    /* \"#utility.yul\":4682:4698   */\n  swap3\n  add\n    /* \"#utility.yul\":4707:4720   */\n  swap2\n  dup3\n  mstore\n  pop\n    /* \"#utility.yul\":4682:4698   */\n  swap2\n    /* \"#utility.yul\":4443:4744   */\n  swap1\n  pop\n  jump\t// out\n    /* \"#utility.yul\":4749:4933   */\ntag_29:\n    /* \"#utility.yul\":4819:4825   */\n  0x00\n    /* \"#utility.yul\":4872:4874   */\n  0x20\n    /* \"#utility.yul\":4860:4869   */\n  dup3\n    /* \"#utility.yul\":4851:4858   */\n  dup5\n    /* \"#utility.yul\":4847:4870   */\n  sub\n    /* \"#utility.yul\":4843:4875   */\n  slt\n    /* \"#utility.yul\":4840:4892   */\n  iszero\n  tag_84\n  jumpi\n    /* \"#utility.yul\":4888:4889   */\n  0x00\n    /* \"#utility.yul\":4885:4886   */\n  dup1\n    /* \"#utility.yul\":4878:4890   */\n  revert\n    /* \"#utility.yul\":4840:4892   */\ntag_84:\n  pop\n    /* \"#utility.yul\":4911:4927   */\n  mload\n  swap2\n    /* \"#utility.yul\":4749:4933   */\n  swap1\n  pop\n  jump\t// out\ntag_38:\n    /* \"contracts/contracts/protocol/TuliaVault.sol\":423:3056  contract TuliaVault is ERC4626, ReentrancyGuard {... */\n  mload(0x80)\n  mload(0xa0)\n  codecopy(0x00, dataOffset(sub_0), dataSize(sub_0))\n  0x00\n  assignImmutable(\"0xc0bf3ddb79e7c5faf09af1eaa09640fae848e430edf7a04658ec05be9ade7aab\")\n  0x00\n  assignImmutable(\"0x57d03f72a618a841c753598d7d2cbcbbd5f43a73c69f9abc886bd29cf4101ea1\")\n  return(0x00, dataSize(sub_0))\nstop\n\nsub_0: assembly {\n        /* \"contracts/contracts/protocol/TuliaVault.sol\":423:3056  contract TuliaVault is ERC4626, ReentrancyGuard {... */\n      mstore(0x40, 0x80)\n      callvalue\n      dup1\n      iszero\n      tag_1\n      jumpi\n      0x00\n      dup1\n      revert\n    tag_1:\n      pop\n      jumpi(tag_2, lt(calldatasize, 0x04))\n      shr(0xe0, calldataload(0x00))\n      dup1\n      0x94bf804d\n      gt\n      tag_35\n      jumpi\n      dup1\n      0xc6e6f592\n      gt\n      tag_36\n      jumpi\n      dup1\n      0xdd62ed3e\n      gt\n      tag_37\n      jumpi\n      dup1\n      0xdd62ed3e\n      eq\n      tag_31\n      jumpi\n      dup1\n      0xef8b30f7\n      eq\n      tag_27\n      jumpi\n      dup1\n      0xf266a213\n      eq\n      tag_33\n      jumpi\n      dup1\n      0xfe9e9640\n      eq\n      tag_34\n      jumpi\n      0x00\n      dup1\n      revert\n    tag_37:\n      dup1\n      0xc6e6f592\n      eq\n      tag_27\n      jumpi\n      dup1\n      0xc922609f\n      eq\n      tag_28\n      jumpi\n      dup1\n      0xce96cb77\n      eq\n      tag_29\n      jumpi\n      dup1\n      0xd905777e\n      eq\n      tag_30\n      jumpi\n      0x00\n      dup1\n      revert\n    tag_36:\n      dup1\n      0xb3d7f6b9\n      gt\n      tag_38\n      jumpi\n      dup1\n      0xb3d7f6b9\n      eq\n      tag_23\n      jumpi\n      dup1\n      0xb460af94\n      eq\n      tag_24\n      jumpi\n      dup1\n      0xba087652\n      eq\n      tag_25\n      jumpi\n      dup1\n      0xc63d75b6\n      eq\n      tag_13\n      jumpi\n      0x00\n      dup1\n      revert\n    tag_38:\n      dup1\n      0x94bf804d\n      eq\n      tag_19\n      jumpi\n      dup1\n      0x95d89b41\n      eq\n      tag_20\n      jumpi\n      dup1\n      0xa30f0352\n      eq\n      tag_21\n      jumpi\n      dup1\n      0xa9059cbb\n      eq\n      tag_22\n      jumpi\n      0x00\n      dup1\n      revert\n    tag_35:\n      dup1\n      0x313ce567\n      gt\n      tag_39\n      jumpi\n      dup1\n      0x4cdad506\n      gt\n      tag_40\n      jumpi\n      dup1\n      0x4cdad506\n      eq\n      tag_5\n      jumpi\n      dup1\n      0x6e553f65\n      eq\n      tag_16\n      jumpi\n      dup1\n      0x70a08231\n      eq\n      tag_17\n      jumpi\n      dup1\n      0x81c4d0e6\n      eq\n      tag_18\n      jumpi\n      0x00\n      dup1\n      revert\n    tag_40:\n      dup1\n      0x313ce567\n      eq\n      tag_11\n      jumpi\n      dup1\n      0x38d52e0f\n      eq\n      tag_12\n      jumpi\n      dup1\n      0x402d267d\n      eq\n      tag_13\n      jumpi\n      dup1\n      0x4395eb8e\n      eq\n      tag_14\n      jumpi\n      0x00\n      dup1\n      revert\n    tag_39:\n      dup1\n      0x0a28a477\n      gt\n      tag_41\n      jumpi\n      dup1\n      0x0a28a477\n      eq\n      tag_7\n      jumpi\n      dup1\n      0x12261ee7\n      eq\n      tag_8\n      jumpi\n      dup1\n      0x18160ddd\n      eq\n      tag_9\n      jumpi\n      dup1\n      0x23b872dd\n      eq\n      tag_10\n      jumpi\n      0x00\n      dup1\n      revert\n    tag_41:\n      dup1\n      0x01e1d114\n      eq\n      tag_3\n      jumpi\n      dup1\n      0x06fdde03\n      eq\n      tag_4\n      jumpi\n      dup1\n      0x07a2d13a\n      eq\n      tag_5\n      jumpi\n      dup1\n      0x095ea7b3\n      eq\n      tag_6\n      jumpi\n    tag_2:\n      0x00\n      dup1\n      revert\n        /* \"@openzeppelin/contracts/token/ERC20/extensions/ERC4626.sol\":5780:5896  function totalAssets() public view virtual returns (uint256) {... */\n    tag_3:\n      tag_42\n      tag_43\n      jump\t// in\n    tag_42:\n      mload(0x40)\n        /* \"#utility.yul\":160:185   */\n      swap1\n      dup2\n      mstore\n        /* \"#utility.yul\":148:150   */\n      0x20\n        /* \"#utility.yul\":133:151   */\n      add\n        /* \"@openzeppelin/contracts/token/ERC20/extensions/ERC4626.sol\":5780:5896  function totalAssets() public view virtual returns (uint256) {... */\n    tag_44:\n      mload(0x40)\n      dup1\n      swap2\n      sub\n      swap1\n      return\n        /* \"@openzeppelin/contracts/token/ERC20/ERC20.sol\":2074:2163  function name() public view virtual returns (string memory) {... */\n    tag_4:\n      tag_46\n      tag_47\n      jump\t// in\n    tag_46:\n      mload(0x40)\n      tag_44\n      swap2\n      swap1\n      tag_49\n      jump\t// in\n        /* \"@openzeppelin/contracts/token/ERC20/extensions/ERC4626.sol\":6152:6300  function convertToAssets(uint256 shares) public view virtual returns (uint256) {... */\n    tag_5:\n      tag_42\n      tag_51\n      calldatasize\n      0x04\n      tag_52\n      jump\t// in\n    tag_51:\n      tag_53\n      jump\t// in\n        /* \"@openzeppelin/contracts/token/ERC20/ERC20.sol\":4293:4479  function approve(address spender, uint256 value) public virtual returns (bool) {... */\n    tag_6:\n      tag_55\n      tag_56\n      calldatasize\n      0x04\n      tag_57\n      jump\t// in\n    tag_56:\n      tag_58\n      jump\t// in\n    tag_55:\n      mload(0x40)\n        /* \"#utility.yul\":1406:1420   */\n      swap1\n      iszero\n        /* \"#utility.yul\":1399:1421   */\n      iszero\n        /* \"#utility.yul\":1381:1422   */\n      dup2\n      mstore\n        /* \"#utility.yul\":1369:1371   */\n      0x20\n        /* \"#utility.yul\":1354:1372   */\n      add\n        /* \"@openzeppelin/contracts/token/ERC20/ERC20.sol\":4293:4479  function approve(address spender, uint256 value) public virtual returns (bool) {... */\n      tag_44\n        /* \"#utility.yul\":1241:1428   */\n      jump\n        /* \"@openzeppelin/contracts/token/ERC20/extensions/ERC4626.sol\":7418:7565  function previewWithdraw(uint256 assets) public view virtual returns (uint256) {... */\n    tag_7:\n      tag_42\n      tag_62\n      calldatasize\n      0x04\n      tag_52\n      jump\t// in\n    tag_62:\n      tag_63\n      jump\t// in\n        /* \"contracts/contracts/protocol/TuliaVault.sol\":478:501  IPermit2 public permit2 */\n    tag_8:\n      sload(0x06)\n      tag_65\n      swap1\n      sub(shl(0xa0, 0x01), 0x01)\n      and\n      dup2\n      jump\n    tag_65:\n      mload(0x40)\n      sub(shl(0xa0, 0x01), 0x01)\n        /* \"#utility.yul\":1614:1646   */\n      swap1\n      swap2\n      and\n        /* \"#utility.yul\":1596:1647   */\n      dup2\n      mstore\n        /* \"#utility.yul\":1584:1586   */\n      0x20\n        /* \"#utility.yul\":1569:1587   */\n      add\n        /* \"contracts/contracts/protocol/TuliaVault.sol\":478:501  IPermit2 public permit2 */\n      tag_44\n        /* \"#utility.yul\":1433:1653   */\n      jump\n        /* \"@openzeppelin/contracts/token/ERC20/ERC20.sol\":3144:3241  function totalSupply() public view virtual returns (uint256) {... */\n    tag_9:\n        /* \"@openzeppelin/contracts/token/ERC20/ERC20.sol\":3222:3234  _totalSupply */\n      sload(0x02)\n        /* \"@openzeppelin/contracts/token/ERC20/ERC20.sol\":3144:3241  function totalSupply() public view virtual returns (uint256) {... */\n      jump(tag_42)\n        /* \"@openzeppelin/contracts/token/ERC20/ERC20.sol\":5039:5283  function transferFrom(address from, address to, uint256 value) public virtual returns (bool) {... */\n    tag_10:\n      tag_55\n      tag_73\n      calldatasize\n      0x04\n      tag_74\n      jump\t// in\n    tag_73:\n      tag_75\n      jump\t// in\n        /* \"@openzeppelin/contracts/token/ERC20/extensions/ERC4626.sol\":5441:5592  function decimals() public view virtual override(IERC20Metadata, ERC20) returns (uint8) {... */\n    tag_11:\n      tag_77\n      tag_78\n      jump\t// in\n    tag_77:\n      mload(0x40)\n        /* \"#utility.yul\":2163:2167   */\n      0xff\n        /* \"#utility.yul\":2151:2168   */\n      swap1\n      swap2\n      and\n        /* \"#utility.yul\":2133:2169   */\n      dup2\n      mstore\n        /* \"#utility.yul\":2121:2123   */\n      0x20\n        /* \"#utility.yul\":2106:2124   */\n      add\n        /* \"@openzeppelin/contracts/token/ERC20/extensions/ERC4626.sol\":5441:5592  function decimals() public view virtual override(IERC20Metadata, ERC20) returns (uint8) {... */\n      tag_44\n        /* \"#utility.yul\":1991:2175   */\n      jump\n        /* \"@openzeppelin/contracts/token/ERC20/extensions/ERC4626.sol\":5636:5730  function asset() public view virtual returns (address) {... */\n    tag_12:\n        /* \"@openzeppelin/contracts/token/ERC20/extensions/ERC4626.sol\":5716:5722  _asset */\n      immutable(\"0x57d03f72a618a841c753598d7d2cbcbbd5f43a73c69f9abc886bd29cf4101ea1\")\n        /* \"@openzeppelin/contracts/token/ERC20/extensions/ERC4626.sol\":5636:5730  function asset() public view virtual returns (address) {... */\n      jump(tag_65)\n        /* \"@openzeppelin/contracts/token/ERC20/extensions/ERC4626.sol\":6349:6457  function maxDeposit(address) public view virtual returns (uint256) {... */\n    tag_13:\n      tag_42\n      tag_86\n      calldatasize\n      0x04\n      tag_87\n      jump\t// in\n    tag_86:\n      pop\n      not(0x00)\n        /* \"@openzeppelin/contracts/token/ERC20/extensions/ERC4626.sol\":6433:6450  type(uint256).max */\n      swap1\n        /* \"@openzeppelin/contracts/token/ERC20/extensions/ERC4626.sol\":6349:6457  function maxDeposit(address) public view virtual returns (uint256) {... */\n      jump\n        /* \"contracts/contracts/protocol/TuliaVault.sol\":508:561  uint256 public constant YIELD_ACCRUAL_PERIOD = 1 days */\n    tag_14:\n      tag_42\n        /* \"contracts/contracts/protocol/TuliaVault.sol\":555:561  1 days */\n      0x015180\n        /* \"contracts/contracts/protocol/TuliaVault.sol\":508:561  uint256 public constant YIELD_ACCRUAL_PERIOD = 1 days */\n      dup2\n      jump\n        /* \"@openzeppelin/contracts/token/ERC20/extensions/ERC4626.sol\":7809:8201  function deposit(uint256 assets, address receiver) public virtual returns (uint256) {... */\n    tag_16:\n      tag_42\n      tag_98\n      calldatasize\n      0x04\n      tag_99\n      jump\t// in\n    tag_98:\n      tag_100\n      jump\t// in\n        /* \"@openzeppelin/contracts/token/ERC20/ERC20.sol\":3299:3415  function balanceOf(address account) public view virtual returns (uint256) {... */\n    tag_17:\n      tag_42\n      tag_103\n      calldatasize\n      0x04\n      tag_87\n      jump\t// in\n    tag_103:\n      sub(shl(0xa0, 0x01), 0x01)\n        /* \"@openzeppelin/contracts/token/ERC20/ERC20.sol\":3390:3408  _balances[account] */\n      and\n        /* \"@openzeppelin/contracts/token/ERC20/ERC20.sol\":3364:3371  uint256 */\n      0x00\n        /* \"@openzeppelin/contracts/token/ERC20/ERC20.sol\":3390:3408  _balances[account] */\n      swap1\n      dup2\n      mstore\n      0x20\n      dup2\n      swap1\n      mstore\n      0x40\n      swap1\n      keccak256\n      sload\n      swap1\n        /* \"@openzeppelin/contracts/token/ERC20/ERC20.sol\":3299:3415  function balanceOf(address account) public view virtual returns (uint256) {... */\n      jump\n        /* \"contracts/contracts/protocol/TuliaVault.sol\":2114:2354  function setBaseYieldRate(uint256 newBaseYieldRate)... */\n    tag_18:\n      tag_106\n      tag_107\n      calldatasize\n      0x04\n      tag_52\n      jump\t// in\n    tag_107:\n      tag_108\n      jump\t// in\n    tag_106:\n      stop\n        /* \"@openzeppelin/contracts/token/ERC20/extensions/ERC4626.sol\":8468:8848  function mint(uint256 shares, address receiver) public virtual returns (uint256) {... */\n    tag_19:\n      tag_42\n      tag_110\n      calldatasize\n      0x04\n      tag_99\n      jump\t// in\n    tag_110:\n      tag_111\n      jump\t// in\n        /* \"@openzeppelin/contracts/token/ERC20/ERC20.sol\":2276:2369  function symbol() public view virtual returns (string memory) {... */\n    tag_20:\n      tag_46\n      tag_114\n      jump\t// in\n        /* \"contracts/contracts/protocol/TuliaVault.sol\":568:603  uint256 public lastYieldAccrualTime */\n    tag_21:\n      tag_42\n      sload(0x07)\n      dup2\n      jump\n        /* \"@openzeppelin/contracts/token/ERC20/ERC20.sol\":3610:3788  function transfer(address to, uint256 value) public virtual returns (bool) {... */\n    tag_22:\n      tag_55\n      tag_120\n      calldatasize\n      0x04\n      tag_57\n      jump\t// in\n    tag_120:\n      tag_121\n      jump\t// in\n        /* \"@openzeppelin/contracts/token/ERC20/extensions/ERC4626.sol\":7221:7364  function previewMint(uint256 shares) public view virtual returns (uint256) {... */\n    tag_23:\n      tag_42\n      tag_124\n      calldatasize\n      0x04\n      tag_52\n      jump\t// in\n    tag_124:\n      tag_125\n      jump\t// in\n        /* \"contracts/contracts/protocol/TuliaVault.sol\":1854:2106  function withdraw(uint256 assets, address receiver, address owner)... */\n    tag_24:\n      tag_42\n      tag_128\n      calldatasize\n      0x04\n      tag_129\n      jump\t// in\n    tag_128:\n      tag_130\n      jump\t// in\n        /* \"@openzeppelin/contracts/token/ERC20/extensions/ERC4626.sol\":9353:9758  function redeem(uint256 shares, address receiver, address owner) public virtual returns (uint256) {... */\n    tag_25:\n      tag_42\n      tag_133\n      calldatasize\n      0x04\n      tag_129\n      jump\t// in\n    tag_133:\n      tag_134\n      jump\t// in\n        /* \"@openzeppelin/contracts/token/ERC20/extensions/ERC4626.sol\":5950:6098  function convertToShares(uint256 assets) public view virtual returns (uint256) {... */\n    tag_27:\n      tag_42\n      tag_141\n      calldatasize\n      0x04\n      tag_52\n      jump\t// in\n    tag_141:\n      tag_142\n      jump\t// in\n        /* \"contracts/contracts/protocol/TuliaVault.sol\":1113:1844  function depositWithPermit(... */\n    tag_28:\n      tag_42\n      tag_145\n      calldatasize\n      0x04\n      tag_146\n      jump\t// in\n    tag_145:\n      tag_147\n      jump\t// in\n        /* \"@openzeppelin/contracts/token/ERC20/extensions/ERC4626.sol\":6658:6811  function maxWithdraw(address owner) public view virtual returns (uint256) {... */\n    tag_29:\n      tag_42\n      tag_150\n      calldatasize\n      0x04\n      tag_87\n      jump\t// in\n    tag_150:\n      tag_151\n      jump\t// in\n        /* \"@openzeppelin/contracts/token/ERC20/extensions/ERC4626.sol\":6859:6971  function maxRedeem(address owner) public view virtual returns (uint256) {... */\n    tag_30:\n      tag_42\n      tag_154\n      calldatasize\n      0x04\n      tag_87\n      jump\t// in\n    tag_154:\n      tag_155\n      jump\t// in\n        /* \"@openzeppelin/contracts/token/ERC20/ERC20.sol\":3846:3986  function allowance(address owner, address spender) public view virtual returns (uint256) {... */\n    tag_31:\n      tag_42\n      tag_158\n      calldatasize\n      0x04\n      tag_159\n      jump\t// in\n    tag_158:\n      sub(shl(0xa0, 0x01), 0x01)\n        /* \"@openzeppelin/contracts/token/ERC20/ERC20.sol\":3952:3970  _allowances[owner] */\n      swap2\n      dup3\n      and\n        /* \"@openzeppelin/contracts/token/ERC20/ERC20.sol\":3926:3933  uint256 */\n      0x00\n        /* \"@openzeppelin/contracts/token/ERC20/ERC20.sol\":3952:3970  _allowances[owner] */\n      swap1\n      dup2\n      mstore\n        /* \"@openzeppelin/contracts/token/ERC20/ERC20.sol\":3952:3963  _allowances */\n      0x01\n        /* \"@openzeppelin/contracts/token/ERC20/ERC20.sol\":3952:3970  _allowances[owner] */\n      0x20\n      swap1\n      dup2\n      mstore\n      0x40\n      dup1\n      dup4\n      keccak256\n        /* \"@openzeppelin/contracts/token/ERC20/ERC20.sol\":3952:3979  _allowances[owner][spender] */\n      swap4\n      swap1\n      swap5\n      and\n      dup3\n      mstore\n      swap2\n      swap1\n      swap2\n      mstore\n      keccak256\n      sload\n      swap1\n        /* \"@openzeppelin/contracts/token/ERC20/ERC20.sol\":3846:3986  function allowance(address owner, address spender) public view virtual returns (uint256) {... */\n      jump\n        /* \"contracts/contracts/protocol/TuliaVault.sol\":610:642  uint256 public baseYieldRate = 2 */\n    tag_33:\n      tag_42\n      sload(0x08)\n      dup2\n      jump\n        /* \"contracts/contracts/protocol/TuliaVault.sol\":691:767  bytes32 public constant YIELD_MANAGER_ROLE = keccak256(\"YIELD_MANAGER_ROLE\") */\n    tag_34:\n      tag_42\n        /* \"contracts/contracts/protocol/TuliaVault.sol\":736:767  keccak256(\"YIELD_MANAGER_ROLE\") */\n      0x470f4f1717679395b6a9e0700797bfeeaa970f1643e72f5684d687c0be10fe27\n        /* \"contracts/contracts/protocol/TuliaVault.sol\":691:767  bytes32 public constant YIELD_MANAGER_ROLE = keccak256(\"YIELD_MANAGER_ROLE\") */\n      dup2\n      jump\n        /* \"@openzeppelin/contracts/token/ERC20/extensions/ERC4626.sol\":5780:5896  function totalAssets() public view virtual returns (uint256) {... */\n    tag_43:\n        /* \"@openzeppelin/contracts/token/ERC20/extensions/ERC4626.sol\":5858:5889  _asset.balanceOf(address(this)) */\n      mload(0x40)\n      shl(0xe0, 0x70a08231)\n      dup2\n      mstore\n        /* \"@openzeppelin/contracts/token/ERC20/extensions/ERC4626.sol\":5883:5887  this */\n      address\n        /* \"@openzeppelin/contracts/token/ERC20/extensions/ERC4626.sol\":5858:5889  _asset.balanceOf(address(this)) */\n      0x04\n      dup3\n      add\n        /* \"#utility.yul\":1596:1647   */\n      mstore\n        /* \"@openzeppelin/contracts/token/ERC20/extensions/ERC4626.sol\":5832:5839  uint256 */\n      0x00\n      swap1\n        /* \"@openzeppelin/contracts/token/ERC20/extensions/ERC4626.sol\":5858:5864  _asset */\n      immutable(\"0x57d03f72a618a841c753598d7d2cbcbbd5f43a73c69f9abc886bd29cf4101ea1\")\n      sub(shl(0xa0, 0x01), 0x01)\n        /* \"@openzeppelin/contracts/token/ERC20/extensions/ERC4626.sol\":5858:5874  _asset.balanceOf */\n      and\n      swap1\n      0x70a08231\n      swap1\n        /* \"#utility.yul\":1569:1587   */\n      0x24\n      add\n        /* \"@openzeppelin/contracts/token/ERC20/extensions/ERC4626.sol\":5858:5889  _asset.balanceOf(address(this)) */\n      0x20\n      mload(0x40)\n      dup1\n      dup4\n      sub\n      dup2\n      dup7\n      gas\n      staticcall\n      iszero\n      dup1\n      iszero\n      tag_176\n      jumpi\n      returndatasize\n      0x00\n      dup1\n      returndatacopy\n      revert(0x00, returndatasize)\n    tag_176:\n      pop\n      pop\n      pop\n      pop\n      mload(0x40)\n      returndatasize\n      not(0x1f)\n      0x1f\n      dup3\n      add\n      and\n      dup3\n      add\n      dup1\n      0x40\n      mstore\n      pop\n      dup2\n      add\n      swap1\n      tag_177\n      swap2\n      swap1\n      tag_178\n      jump\t// in\n    tag_177:\n        /* \"@openzeppelin/contracts/token/ERC20/extensions/ERC4626.sol\":5851:5889  return _asset.balanceOf(address(this)) */\n      swap1\n      pop\n        /* \"@openzeppelin/contracts/token/ERC20/extensions/ERC4626.sol\":5780:5896  function totalAssets() public view virtual returns (uint256) {... */\n      swap1\n      jump\t// out\n        /* \"@openzeppelin/contracts/token/ERC20/ERC20.sol\":2074:2163  function name() public view virtual returns (string memory) {... */\n    tag_47:\n        /* \"@openzeppelin/contracts/token/ERC20/ERC20.sol\":2119:2132  string memory */\n      0x60\n        /* \"@openzeppelin/contracts/token/ERC20/ERC20.sol\":2151:2156  _name */\n      0x03\n        /* \"@openzeppelin/contracts/token/ERC20/ERC20.sol\":2144:2156  return _name */\n      dup1\n      sload\n      tag_180\n      swap1\n      tag_181\n      jump\t// in\n    tag_180:\n      dup1\n      0x1f\n      add\n      0x20\n      dup1\n      swap2\n      div\n      mul\n      0x20\n      add\n      mload(0x40)\n      swap1\n      dup2\n      add\n      0x40\n      mstore\n      dup1\n      swap3\n      swap2\n      swap1\n      dup2\n      dup2\n      mstore\n      0x20\n      add\n      dup3\n      dup1\n      sload\n      tag_182\n      swap1\n      tag_181\n      jump\t// in\n    tag_182:\n      dup1\n      iszero\n      tag_183\n      jumpi\n      dup1\n      0x1f\n      lt\n      tag_184\n      jumpi\n      0x0100\n      dup1\n      dup4\n      sload\n      div\n      mul\n      dup4\n      mstore\n      swap2\n      0x20\n      add\n      swap2\n      jump(tag_183)\n    tag_184:\n      dup3\n      add\n      swap2\n      swap1\n      0x00\n      mstore\n      keccak256(0x00, 0x20)\n      swap1\n    tag_185:\n      dup2\n      sload\n      dup2\n      mstore\n      swap1\n      0x01\n      add\n      swap1\n      0x20\n      add\n      dup1\n      dup4\n      gt\n      tag_185\n      jumpi\n      dup3\n      swap1\n      sub\n      0x1f\n      and\n      dup3\n      add\n      swap2\n    tag_183:\n      pop\n      pop\n      pop\n      pop\n      pop\n      swap1\n      pop\n        /* \"@openzeppelin/contracts/token/ERC20/ERC20.sol\":2074:2163  function name() public view virtual returns (string memory) {... */\n      swap1\n      jump\t// out\n        /* \"@openzeppelin/contracts/token/ERC20/extensions/ERC4626.sol\":6152:6300  function convertToAssets(uint256 shares) public view virtual returns (uint256) {... */\n    tag_53:\n        /* \"@openzeppelin/contracts/token/ERC20/extensions/ERC4626.sol\":6222:6229  uint256 */\n      0x00\n        /* \"@openzeppelin/contracts/token/ERC20/extensions/ERC4626.sol\":6248:6293  _convertToAssets(shares, Math.Rounding.Floor) */\n      tag_187\n        /* \"@openzeppelin/contracts/token/ERC20/extensions/ERC4626.sol\":6265:6271  shares */\n      dup3\n        /* \"@openzeppelin/contracts/token/ERC20/extensions/ERC4626.sol\":6273:6292  Math.Rounding.Floor */\n      0x00\n        /* \"@openzeppelin/contracts/token/ERC20/extensions/ERC4626.sol\":6248:6264  _convertToAssets */\n      tag_188\n        /* \"@openzeppelin/contracts/token/ERC20/extensions/ERC4626.sol\":6248:6293  _convertToAssets(shares, Math.Rounding.Floor) */\n      jump\t// in\n    tag_187:\n        /* \"@openzeppelin/contracts/token/ERC20/extensions/ERC4626.sol\":6241:6293  return _convertToAssets(shares, Math.Rounding.Floor) */\n      swap3\n        /* \"@openzeppelin/contracts/token/ERC20/extensions/ERC4626.sol\":6152:6300  function convertToAssets(uint256 shares) public view virtual returns (uint256) {... */\n      swap2\n      pop\n      pop\n      jump\t// out\n        /* \"@openzeppelin/contracts/token/ERC20/ERC20.sol\":4293:4479  function approve(address spender, uint256 value) public virtual returns (bool) {... */\n    tag_58:\n        /* \"@openzeppelin/contracts/token/ERC20/ERC20.sol\":4366:4370  bool */\n      0x00\n        /* \"@openzeppelin/contracts/utils/Context.sol\":735:745  msg.sender */\n      caller\n        /* \"@openzeppelin/contracts/token/ERC20/ERC20.sol\":4420:4451  _approve(owner, spender, value) */\n      tag_192\n        /* \"@openzeppelin/contracts/utils/Context.sol\":735:745  msg.sender */\n      dup2\n        /* \"@openzeppelin/contracts/token/ERC20/ERC20.sol\":4436:4443  spender */\n      dup6\n        /* \"@openzeppelin/contracts/token/ERC20/ERC20.sol\":4445:4450  value */\n      dup6\n        /* \"@openzeppelin/contracts/token/ERC20/ERC20.sol\":4420:4428  _approve */\n      tag_193\n        /* \"@openzeppelin/contracts/token/ERC20/ERC20.sol\":4420:4451  _approve(owner, spender, value) */\n      jump\t// in\n    tag_192:\n      pop\n        /* \"@openzeppelin/contracts/token/ERC20/ERC20.sol\":4468:4472  true */\n      0x01\n      swap4\n        /* \"@openzeppelin/contracts/token/ERC20/ERC20.sol\":4293:4479  function approve(address spender, uint256 value) public virtual returns (bool) {... */\n      swap3\n      pop\n      pop\n      pop\n      jump\t// out\n        /* \"@openzeppelin/contracts/token/ERC20/extensions/ERC4626.sol\":7418:7565  function previewWithdraw(uint256 assets) public view virtual returns (uint256) {... */\n    tag_63:\n        /* \"@openzeppelin/contracts/token/ERC20/extensions/ERC4626.sol\":7488:7495  uint256 */\n      0x00\n        /* \"@openzeppelin/contracts/token/ERC20/extensions/ERC4626.sol\":7514:7558  _convertToShares(assets, Math.Rounding.Ceil) */\n      tag_187\n        /* \"@openzeppelin/contracts/token/ERC20/extensions/ERC4626.sol\":7531:7537  assets */\n      dup3\n        /* \"@openzeppelin/contracts/token/ERC20/extensions/ERC4626.sol\":7539:7557  Math.Rounding.Ceil */\n      0x01\n        /* \"@openzeppelin/contracts/token/ERC20/extensions/ERC4626.sol\":7514:7530  _convertToShares */\n      tag_196\n        /* \"@openzeppelin/contracts/token/ERC20/extensions/ERC4626.sol\":7514:7558  _convertToShares(assets, Math.Rounding.Ceil) */\n      jump\t// in\n        /* \"@openzeppelin/contracts/token/ERC20/ERC20.sol\":5039:5283  function transferFrom(address from, address to, uint256 value) public virtual returns (bool) {... */\n    tag_75:\n        /* \"@openzeppelin/contracts/token/ERC20/ERC20.sol\":5126:5130  bool */\n      0x00\n        /* \"@openzeppelin/contracts/utils/Context.sol\":735:745  msg.sender */\n      caller\n        /* \"@openzeppelin/contracts/token/ERC20/ERC20.sol\":5182:5219  _spendAllowance(from, spender, value) */\n      tag_200\n        /* \"@openzeppelin/contracts/token/ERC20/ERC20.sol\":5198:5202  from */\n      dup6\n        /* \"@openzeppelin/contracts/utils/Context.sol\":735:745  msg.sender */\n      dup3\n        /* \"@openzeppelin/contracts/token/ERC20/ERC20.sol\":5213:5218  value */\n      dup6\n        /* \"@openzeppelin/contracts/token/ERC20/ERC20.sol\":5182:5197  _spendAllowance */\n      tag_201\n        /* \"@openzeppelin/contracts/token/ERC20/ERC20.sol\":5182:5219  _spendAllowance(from, spender, value) */\n      jump\t// in\n    tag_200:\n        /* \"@openzeppelin/contracts/token/ERC20/ERC20.sol\":5229:5255  _transfer(from, to, value) */\n      tag_202\n        /* \"@openzeppelin/contracts/token/ERC20/ERC20.sol\":5239:5243  from */\n      dup6\n        /* \"@openzeppelin/contracts/token/ERC20/ERC20.sol\":5245:5247  to */\n      dup6\n        /* \"@openzeppelin/contracts/token/ERC20/ERC20.sol\":5249:5254  value */\n      dup6\n        /* \"@openzeppelin/contracts/token/ERC20/ERC20.sol\":5229:5238  _transfer */\n      tag_203\n        /* \"@openzeppelin/contracts/token/ERC20/ERC20.sol\":5229:5255  _transfer(from, to, value) */\n      jump\t// in\n    tag_202:\n        /* \"@openzeppelin/contracts/token/ERC20/ERC20.sol\":5272:5276  true */\n      0x01\n        /* \"@openzeppelin/contracts/token/ERC20/ERC20.sol\":5265:5276  return true */\n      swap2\n      pop\n      pop\n        /* \"@openzeppelin/contracts/token/ERC20/ERC20.sol\":5039:5283  function transferFrom(address from, address to, uint256 value) public virtual returns (bool) {... */\n    tag_198:\n      swap4\n      swap3\n      pop\n      pop\n      pop\n      jump\t// out\n        /* \"@openzeppelin/contracts/token/ERC20/extensions/ERC4626.sol\":5441:5592  function decimals() public view virtual override(IERC20Metadata, ERC20) returns (uint8) {... */\n    tag_78:\n        /* \"@openzeppelin/contracts/token/ERC20/extensions/ERC4626.sol\":5522:5527  uint8 */\n      0x00\n        /* \"@openzeppelin/contracts/token/ERC20/extensions/ERC4626.sol\":5546:5585  _underlyingDecimals + _decimalsOffset() */\n      tag_177\n        /* \"@openzeppelin/contracts/token/ERC20/extensions/ERC4626.sol\":5522:5527  uint8 */\n      dup2\n        /* \"@openzeppelin/contracts/token/ERC20/extensions/ERC4626.sol\":5546:5565  _underlyingDecimals */\n      immutable(\"0xc0bf3ddb79e7c5faf09af1eaa09640fae848e430edf7a04658ec05be9ade7aab\")\n        /* \"@openzeppelin/contracts/token/ERC20/extensions/ERC4626.sol\":5546:5585  _underlyingDecimals + _decimalsOffset() */\n      tag_208\n      jump\t// in\n        /* \"@openzeppelin/contracts/token/ERC20/extensions/ERC4626.sol\":7809:8201  function deposit(uint256 assets, address receiver) public virtual returns (uint256) {... */\n    tag_100:\n        /* \"@openzeppelin/contracts/token/ERC20/extensions/ERC4626.sol\":7884:7891  uint256 */\n      0x00\n      not(0x00)\n        /* \"@openzeppelin/contracts/token/ERC20/extensions/ERC4626.sol\":7953:8063  if (assets > maxAssets) {... */\n      jump(tag_215)\n        /* \"@openzeppelin/contracts/token/ERC20/extensions/ERC4626.sol\":7998:8052  ERC4626ExceededMaxDeposit(receiver, assets, maxAssets) */\n    tag_216:\n      mload(0x40)\n      dup1\n      swap2\n      sub\n      swap1\n      revert\n        /* \"@openzeppelin/contracts/token/ERC20/extensions/ERC4626.sol\":7953:8063  if (assets > maxAssets) {... */\n    tag_215:\n        /* \"@openzeppelin/contracts/token/ERC20/extensions/ERC4626.sol\":8073:8087  uint256 shares */\n      0x00\n        /* \"@openzeppelin/contracts/token/ERC20/extensions/ERC4626.sol\":8090:8112  previewDeposit(assets) */\n      tag_218\n        /* \"@openzeppelin/contracts/token/ERC20/extensions/ERC4626.sol\":8105:8111  assets */\n      dup6\n        /* \"@openzeppelin/contracts/token/ERC20/extensions/ERC4626.sol\":8090:8104  previewDeposit */\n      tag_142\n        /* \"@openzeppelin/contracts/token/ERC20/extensions/ERC4626.sol\":8090:8112  previewDeposit(assets) */\n      jump\t// in\n    tag_218:\n        /* \"@openzeppelin/contracts/token/ERC20/extensions/ERC4626.sol\":8073:8112  uint256 shares = previewDeposit(assets) */\n      swap1\n      pop\n        /* \"@openzeppelin/contracts/token/ERC20/extensions/ERC4626.sol\":8122:8170  _deposit(_msgSender(), receiver, assets, shares) */\n      tag_219\n        /* \"@openzeppelin/contracts/utils/Context.sol\":735:745  msg.sender */\n      caller\n        /* \"@openzeppelin/contracts/token/ERC20/extensions/ERC4626.sol\":8145:8153  receiver */\n      dup6\n        /* \"@openzeppelin/contracts/token/ERC20/extensions/ERC4626.sol\":8155:8161  assets */\n      dup8\n        /* \"@openzeppelin/contracts/token/ERC20/extensions/ERC4626.sol\":8163:8169  shares */\n      dup5\n        /* \"@openzeppelin/contracts/token/ERC20/extensions/ERC4626.sol\":8122:8130  _deposit */\n      tag_221\n        /* \"@openzeppelin/contracts/token/ERC20/extensions/ERC4626.sol\":8122:8170  _deposit(_msgSender(), receiver, assets, shares) */\n      jump\t// in\n    tag_219:\n        /* \"@openzeppelin/contracts/token/ERC20/extensions/ERC4626.sol\":8188:8194  shares */\n      swap5\n        /* \"@openzeppelin/contracts/token/ERC20/extensions/ERC4626.sol\":7809:8201  function deposit(uint256 assets, address receiver) public virtual returns (uint256) {... */\n      swap4\n      pop\n      pop\n      pop\n      pop\n      jump\t// out\n        /* \"contracts/contracts/protocol/TuliaVault.sol\":2114:2354  function setBaseYieldRate(uint256 newBaseYieldRate)... */\n    tag_108:\n        /* \"contracts/contracts/protocol/TuliaVault.sol\":2223:2226  100 */\n      0x64\n        /* \"contracts/contracts/protocol/TuliaVault.sol\":2204:2220  newBaseYieldRate */\n      dup2\n        /* \"contracts/contracts/protocol/TuliaVault.sol\":2204:2226  newBaseYieldRate > 100 */\n      gt\n        /* \"contracts/contracts/protocol/TuliaVault.sol\":2200:2253  if (newBaseYieldRate > 100) revert InvalidYieldRate() */\n      iszero\n      tag_224\n      jumpi\n        /* \"contracts/contracts/protocol/TuliaVault.sol\":2235:2253  InvalidYieldRate() */\n      mload(0x40)\n      shl(0xe1, 0x29977503)\n      dup2\n      mstore\n      0x04\n      add\n      mload(0x40)\n      dup1\n      swap2\n      sub\n      swap1\n      revert\n        /* \"contracts/contracts/protocol/TuliaVault.sol\":2200:2253  if (newBaseYieldRate > 100) revert InvalidYieldRate() */\n    tag_224:\n        /* \"contracts/contracts/protocol/TuliaVault.sol\":2264:2277  baseYieldRate */\n      0x08\n        /* \"contracts/contracts/protocol/TuliaVault.sol\":2264:2296  baseYieldRate = newBaseYieldRate */\n      dup2\n      swap1\n      sstore\n        /* \"contracts/contracts/protocol/TuliaVault.sol\":2312:2346  YieldRateUpdated(newBaseYieldRate) */\n      mload(0x40)\n        /* \"#utility.yul\":160:185   */\n      dup2\n      dup2\n      mstore\n        /* \"contracts/contracts/protocol/TuliaVault.sol\":2312:2346  YieldRateUpdated(newBaseYieldRate) */\n      0x5842a31a46ea5ce5b950bf6d04c8b832a9deae72e0e54bcf928f0d72123f2865\n      swap1\n        /* \"#utility.yul\":148:150   */\n      0x20\n        /* \"#utility.yul\":133:151   */\n      add\n        /* \"contracts/contracts/protocol/TuliaVault.sol\":2312:2346  YieldRateUpdated(newBaseYieldRate) */\n      mload(0x40)\n      dup1\n      swap2\n      sub\n      swap1\n      log1\n        /* \"contracts/contracts/protocol/TuliaVault.sol\":2114:2354  function setBaseYieldRate(uint256 newBaseYieldRate)... */\n      pop\n      jump\t// out\n        /* \"@openzeppelin/contracts/token/ERC20/extensions/ERC4626.sol\":8468:8848  function mint(uint256 shares, address receiver) public virtual returns (uint256) {... */\n    tag_111:\n        /* \"@openzeppelin/contracts/token/ERC20/extensions/ERC4626.sol\":8540:8547  uint256 */\n      0x00\n      not(0x00)\n        /* \"@openzeppelin/contracts/token/ERC20/extensions/ERC4626.sol\":8723:8737  uint256 assets */\n      0x00\n        /* \"@openzeppelin/contracts/token/ERC20/extensions/ERC4626.sol\":8740:8759  previewMint(shares) */\n      tag_230\n        /* \"@openzeppelin/contracts/token/ERC20/extensions/ERC4626.sol\":8752:8758  shares */\n      dup6\n        /* \"@openzeppelin/contracts/token/ERC20/extensions/ERC4626.sol\":8740:8751  previewMint */\n      tag_125\n        /* \"@openzeppelin/contracts/token/ERC20/extensions/ERC4626.sol\":8740:8759  previewMint(shares) */\n      jump\t// in\n    tag_230:\n        /* \"@openzeppelin/contracts/token/ERC20/extensions/ERC4626.sol\":8723:8759  uint256 assets = previewMint(shares) */\n      swap1\n      pop\n        /* \"@openzeppelin/contracts/token/ERC20/extensions/ERC4626.sol\":8769:8817  _deposit(_msgSender(), receiver, assets, shares) */\n      tag_219\n        /* \"@openzeppelin/contracts/utils/Context.sol\":735:745  msg.sender */\n      caller\n        /* \"@openzeppelin/contracts/token/ERC20/extensions/ERC4626.sol\":8792:8800  receiver */\n      dup6\n        /* \"@openzeppelin/contracts/token/ERC20/extensions/ERC4626.sol\":8802:8808  assets */\n      dup4\n        /* \"@openzeppelin/contracts/token/ERC20/extensions/ERC4626.sol\":8810:8816  shares */\n      dup9\n        /* \"@openzeppelin/contracts/token/ERC20/extensions/ERC4626.sol\":8769:8777  _deposit */\n      tag_221\n        /* \"@openzeppelin/contracts/token/ERC20/extensions/ERC4626.sol\":8769:8817  _deposit(_msgSender(), receiver, assets, shares) */\n      jump\t// in\n        /* \"@openzeppelin/contracts/token/ERC20/ERC20.sol\":2276:2369  function symbol() public view virtual returns (string memory) {... */\n    tag_114:\n        /* \"@openzeppelin/contracts/token/ERC20/ERC20.sol\":2323:2336  string memory */\n      0x60\n        /* \"@openzeppelin/contracts/token/ERC20/ERC20.sol\":2355:2362  _symbol */\n      0x04\n        /* \"@openzeppelin/contracts/token/ERC20/ERC20.sol\":2348:2362  return _symbol */\n      dup1\n      sload\n      tag_180\n      swap1\n      tag_181\n      jump\t// in\n        /* \"@openzeppelin/contracts/token/ERC20/ERC20.sol\":3610:3788  function transfer(address to, uint256 value) public virtual returns (bool) {... */\n    tag_121:\n        /* \"@openzeppelin/contracts/token/ERC20/ERC20.sol\":3679:3683  bool */\n      0x00\n        /* \"@openzeppelin/contracts/utils/Context.sol\":735:745  msg.sender */\n      caller\n        /* \"@openzeppelin/contracts/token/ERC20/ERC20.sol\":3733:3760  _transfer(owner, to, value) */\n      tag_192\n        /* \"@openzeppelin/contracts/utils/Context.sol\":735:745  msg.sender */\n      dup2\n        /* \"@openzeppelin/contracts/token/ERC20/ERC20.sol\":3750:3752  to */\n      dup6\n        /* \"@openzeppelin/contracts/token/ERC20/ERC20.sol\":3754:3759  value */\n      dup6\n        /* \"@openzeppelin/contracts/token/ERC20/ERC20.sol\":3733:3742  _transfer */\n      tag_203\n        /* \"@openzeppelin/contracts/token/ERC20/ERC20.sol\":3733:3760  _transfer(owner, to, value) */\n      jump\t// in\n        /* \"@openzeppelin/contracts/token/ERC20/extensions/ERC4626.sol\":7221:7364  function previewMint(uint256 shares) public view virtual returns (uint256) {... */\n    tag_125:\n        /* \"@openzeppelin/contracts/token/ERC20/extensions/ERC4626.sol\":7287:7294  uint256 */\n      0x00\n        /* \"@openzeppelin/contracts/token/ERC20/extensions/ERC4626.sol\":7313:7357  _convertToAssets(shares, Math.Rounding.Ceil) */\n      tag_187\n        /* \"@openzeppelin/contracts/token/ERC20/extensions/ERC4626.sol\":7330:7336  shares */\n      dup3\n        /* \"@openzeppelin/contracts/token/ERC20/extensions/ERC4626.sol\":7338:7356  Math.Rounding.Ceil */\n      0x01\n        /* \"@openzeppelin/contracts/token/ERC20/extensions/ERC4626.sol\":7313:7329  _convertToAssets */\n      tag_188\n        /* \"@openzeppelin/contracts/token/ERC20/extensions/ERC4626.sol\":7313:7357  _convertToAssets(shares, Math.Rounding.Ceil) */\n      jump\t// in\n        /* \"contracts/contracts/protocol/TuliaVault.sol\":1854:2106  function withdraw(uint256 assets, address receiver, address owner)... */\n    tag_130:\n        /* \"contracts/contracts/protocol/TuliaVault.sol\":1995:2009  uint256 shares */\n      0x00\n        /* \"@openzeppelin/contracts/security/ReentrancyGuard.sol\":2261:2282  _nonReentrantBefore() */\n      tag_245\n        /* \"@openzeppelin/contracts/security/ReentrancyGuard.sol\":2261:2280  _nonReentrantBefore */\n      tag_246\n        /* \"@openzeppelin/contracts/security/ReentrancyGuard.sol\":2261:2282  _nonReentrantBefore() */\n      jump\t// in\n    tag_245:\n        /* \"contracts/contracts/protocol/TuliaVault.sol\":2027:2041  _accrueYield() */\n      tag_248\n        /* \"contracts/contracts/protocol/TuliaVault.sol\":2027:2039  _accrueYield */\n      tag_249\n        /* \"contracts/contracts/protocol/TuliaVault.sol\":2027:2041  _accrueYield() */\n      jump\t// in\n    tag_248:\n        /* \"contracts/contracts/protocol/TuliaVault.sol\":2059:2098  super.withdraw(assets, receiver, owner) */\n      tag_250\n        /* \"contracts/contracts/protocol/TuliaVault.sol\":2074:2080  assets */\n      dup5\n        /* \"contracts/contracts/protocol/TuliaVault.sol\":2082:2090  receiver */\n      dup5\n        /* \"contracts/contracts/protocol/TuliaVault.sol\":2092:2097  owner */\n      dup5\n        /* \"contracts/contracts/protocol/TuliaVault.sol\":2059:2073  super.withdraw */\n      tag_251\n        /* \"contracts/contracts/protocol/TuliaVault.sol\":2059:2098  super.withdraw(assets, receiver, owner) */\n      jump\t// in\n    tag_250:\n        /* \"contracts/contracts/protocol/TuliaVault.sol\":2052:2098  return super.withdraw(assets, receiver, owner) */\n      swap1\n      pop\n        /* \"@openzeppelin/contracts/security/ReentrancyGuard.sol\":2303:2323  _nonReentrantAfter() */\n      tag_198\n        /* \"@openzeppelin/contracts/security/ReentrancyGuard.sol\":1716:1717  1 */\n      0x01\n        /* \"@openzeppelin/contracts/security/ReentrancyGuard.sol\":2809:2816  _status */\n      0x05\n        /* \"@openzeppelin/contracts/security/ReentrancyGuard.sol\":2809:2831  _status = _NOT_ENTERED */\n      sstore\n        /* \"@openzeppelin/contracts/security/ReentrancyGuard.sol\":2629:2838  function _nonReentrantAfter() private {... */\n      jump\n        /* \"@openzeppelin/contracts/token/ERC20/extensions/ERC4626.sol\":9353:9758  function redeem(uint256 shares, address receiver, address owner) public virtual returns (uint256) {... */\n    tag_134:\n        /* \"@openzeppelin/contracts/token/ERC20/extensions/ERC4626.sol\":9442:9449  uint256 */\n      0x00\n        /* \"@openzeppelin/contracts/token/ERC20/extensions/ERC4626.sol\":9461:9478  uint256 maxShares */\n      dup1\n        /* \"@openzeppelin/contracts/token/ERC20/extensions/ERC4626.sol\":9481:9497  maxRedeem(owner) */\n      tag_255\n        /* \"@openzeppelin/contracts/token/ERC20/extensions/ERC4626.sol\":9491:9496  owner */\n      dup4\n        /* \"@openzeppelin/contracts/token/ERC20/extensions/ERC4626.sol\":9481:9490  maxRedeem */\n      tag_155\n        /* \"@openzeppelin/contracts/token/ERC20/extensions/ERC4626.sol\":9481:9497  maxRedeem(owner) */\n      jump\t// in\n    tag_255:\n        /* \"@openzeppelin/contracts/token/ERC20/extensions/ERC4626.sol\":9461:9497  uint256 maxShares = maxRedeem(owner) */\n      swap1\n      pop\n        /* \"@openzeppelin/contracts/token/ERC20/extensions/ERC4626.sol\":9520:9529  maxShares */\n      dup1\n        /* \"@openzeppelin/contracts/token/ERC20/extensions/ERC4626.sol\":9511:9517  shares */\n      dup6\n        /* \"@openzeppelin/contracts/token/ERC20/extensions/ERC4626.sol\":9511:9529  shares > maxShares */\n      gt\n        /* \"@openzeppelin/contracts/token/ERC20/extensions/ERC4626.sol\":9507:9613  if (shares > maxShares) {... */\n      iszero\n      tag_256\n      jumpi\n        /* \"@openzeppelin/contracts/token/ERC20/extensions/ERC4626.sol\":9577:9582  owner */\n      dup3\n        /* \"@openzeppelin/contracts/token/ERC20/extensions/ERC4626.sol\":9584:9590  shares */\n      dup6\n        /* \"@openzeppelin/contracts/token/ERC20/extensions/ERC4626.sol\":9592:9601  maxShares */\n      dup3\n        /* \"@openzeppelin/contracts/token/ERC20/extensions/ERC4626.sol\":9552:9602  ERC4626ExceededMaxRedeem(owner, shares, maxShares) */\n      mload(0x40)\n      shl(0xe2, 0x2e52afbb)\n      dup2\n      mstore\n      0x04\n      add\n      tag_216\n      swap4\n      swap3\n      swap2\n      swap1\n      tag_217\n      jump\t// in\n        /* \"@openzeppelin/contracts/token/ERC20/extensions/ERC4626.sol\":9507:9613  if (shares > maxShares) {... */\n    tag_256:\n        /* \"@openzeppelin/contracts/token/ERC20/extensions/ERC4626.sol\":9623:9637  uint256 assets */\n      0x00\n        /* \"@openzeppelin/contracts/token/ERC20/extensions/ERC4626.sol\":9640:9661  previewRedeem(shares) */\n      tag_258\n        /* \"@openzeppelin/contracts/token/ERC20/extensions/ERC4626.sol\":9654:9660  shares */\n      dup7\n        /* \"@openzeppelin/contracts/token/ERC20/extensions/ERC4626.sol\":9640:9653  previewRedeem */\n      tag_53\n        /* \"@openzeppelin/contracts/token/ERC20/extensions/ERC4626.sol\":9640:9661  previewRedeem(shares) */\n      jump\t// in\n    tag_258:\n        /* \"@openzeppelin/contracts/token/ERC20/extensions/ERC4626.sol\":9623:9661  uint256 assets = previewRedeem(shares) */\n      swap1\n      pop\n        /* \"@openzeppelin/contracts/token/ERC20/extensions/ERC4626.sol\":9671:9727  _withdraw(_msgSender(), receiver, owner, assets, shares) */\n      tag_259\n        /* \"@openzeppelin/contracts/utils/Context.sol\":735:745  msg.sender */\n      caller\n        /* \"@openzeppelin/contracts/token/ERC20/extensions/ERC4626.sol\":9695:9703  receiver */\n      dup7\n        /* \"@openzeppelin/contracts/token/ERC20/extensions/ERC4626.sol\":9705:9710  owner */\n      dup7\n        /* \"@openzeppelin/contracts/token/ERC20/extensions/ERC4626.sol\":9712:9718  assets */\n      dup5\n        /* \"@openzeppelin/contracts/token/ERC20/extensions/ERC4626.sol\":9720:9726  shares */\n      dup11\n        /* \"@openzeppelin/contracts/token/ERC20/extensions/ERC4626.sol\":9671:9680  _withdraw */\n      tag_261\n        /* \"@openzeppelin/contracts/token/ERC20/extensions/ERC4626.sol\":9671:9727  _withdraw(_msgSender(), receiver, owner, assets, shares) */\n      jump\t// in\n    tag_259:\n        /* \"@openzeppelin/contracts/token/ERC20/extensions/ERC4626.sol\":9745:9751  assets */\n      swap6\n        /* \"@openzeppelin/contracts/token/ERC20/extensions/ERC4626.sol\":9353:9758  function redeem(uint256 shares, address receiver, address owner) public virtual returns (uint256) {... */\n      swap5\n      pop\n      pop\n      pop\n      pop\n      pop\n      jump\t// out\n        /* \"@openzeppelin/contracts/token/ERC20/extensions/ERC4626.sol\":5950:6098  function convertToShares(uint256 assets) public view virtual returns (uint256) {... */\n    tag_142:\n        /* \"@openzeppelin/contracts/token/ERC20/extensions/ERC4626.sol\":6020:6027  uint256 */\n      0x00\n        /* \"@openzeppelin/contracts/token/ERC20/extensions/ERC4626.sol\":6046:6091  _convertToShares(assets, Math.Rounding.Floor) */\n      tag_187\n        /* \"@openzeppelin/contracts/token/ERC20/extensions/ERC4626.sol\":6063:6069  assets */\n      dup3\n        /* \"@openzeppelin/contracts/token/ERC20/extensions/ERC4626.sol\":6071:6090  Math.Rounding.Floor */\n      0x00\n        /* \"@openzeppelin/contracts/token/ERC20/extensions/ERC4626.sol\":6046:6062  _convertToShares */\n      tag_196\n        /* \"@openzeppelin/contracts/token/ERC20/extensions/ERC4626.sol\":6046:6091  _convertToShares(assets, Math.Rounding.Floor) */\n      jump\t// in\n        /* \"contracts/contracts/protocol/TuliaVault.sol\":1113:1844  function depositWithPermit(... */\n    tag_147:\n        /* \"contracts/contracts/protocol/TuliaVault.sol\":1292:1306  uint256 shares */\n      0x00\n        /* \"@openzeppelin/contracts/security/ReentrancyGuard.sol\":2261:2282  _nonReentrantBefore() */\n      tag_266\n        /* \"@openzeppelin/contracts/security/ReentrancyGuard.sol\":2261:2280  _nonReentrantBefore */\n      tag_246\n        /* \"@openzeppelin/contracts/security/ReentrancyGuard.sol\":2261:2282  _nonReentrantBefore() */\n      jump\t// in\n    tag_266:\n        /* \"contracts/contracts/protocol/TuliaVault.sol\":1315:1322  permit2 */\n      sload(0x06)\n        /* \"contracts/contracts/protocol/TuliaVault.sol\":1352:1624  IPermit2.PermitTransferFrom({... */\n      0x40\n      dup1\n      mload\n        /* \"contracts/contracts/protocol/TuliaVault.sol\":1406:1552  IPermit2.TokenPermissions({... */\n      0xa0\n      dup2\n      add\n      dup3\n      mstore\n      sub(shl(0xa0, 0x01), 0x01)\n        /* \"@openzeppelin/contracts/token/ERC20/extensions/ERC4626.sol\":5716:5722  _asset */\n      immutable(\"0x57d03f72a618a841c753598d7d2cbcbbd5f43a73c69f9abc886bd29cf4101ea1\")\n        /* \"contracts/contracts/protocol/TuliaVault.sol\":1406:1552  IPermit2.TokenPermissions({... */\n      dup2\n      and\n        /* \"contracts/contracts/protocol/TuliaVault.sol\":1352:1624  IPermit2.PermitTransferFrom({... */\n      0x60\n      dup4\n      add\n        /* \"contracts/contracts/protocol/TuliaVault.sol\":1406:1552  IPermit2.TokenPermissions({... */\n      swap1\n      dup2\n      mstore\n      0x80\n      dup4\n      add\n      dup13\n      swap1\n      mstore\n        /* \"contracts/contracts/protocol/TuliaVault.sol\":1352:1624  IPermit2.PermitTransferFrom({... */\n      dup3\n      mstore\n        /* \"contracts/contracts/protocol/TuliaVault.sol\":1406:1552  IPermit2.TokenPermissions({... */\n      0x20\n        /* \"contracts/contracts/protocol/TuliaVault.sol\":1352:1624  IPermit2.PermitTransferFrom({... */\n      dup1\n      dup4\n      add\n      dup12\n      swap1\n      mstore\n      dup3\n      dup5\n      add\n      dup11\n      swap1\n      mstore\n        /* \"contracts/contracts/protocol/TuliaVault.sol\":1635:1751  IPermit2.SignatureTransferDetails({... */\n      dup4\n      mload\n      dup1\n      dup6\n      add\n      dup6\n      mstore\n        /* \"contracts/contracts/protocol/TuliaVault.sol\":1696:1700  this */\n      address\n        /* \"contracts/contracts/protocol/TuliaVault.sol\":1635:1751  IPermit2.SignatureTransferDetails({... */\n      dup2\n      mstore\n      swap1\n      dup2\n      add\n      dup13\n      swap1\n      mstore\n        /* \"contracts/contracts/protocol/TuliaVault.sol\":1315:1799  permit2.permitTransferFrom(... */\n      swap3\n      mload\n      shl(0xe1, 0x187945bd)\n      dup2\n      mstore\n        /* \"contracts/contracts/protocol/TuliaVault.sol\":1315:1322  permit2 */\n      swap4\n      and\n      swap3\n        /* \"contracts/contracts/protocol/TuliaVault.sol\":1315:1341  permit2.permitTransferFrom */\n      0x30f28b7a\n      swap3\n        /* \"contracts/contracts/protocol/TuliaVault.sol\":1315:1799  permit2.permitTransferFrom(... */\n      tag_269\n      swap3\n        /* \"contracts/contracts/protocol/TuliaVault.sol\":1352:1624  IPermit2.PermitTransferFrom({... */\n      swap2\n        /* \"contracts/contracts/protocol/TuliaVault.sol\":1762:1772  msg.sender */\n      caller\n      swap1\n        /* \"contracts/contracts/protocol/TuliaVault.sol\":1783:1792  signature */\n      dup11\n      swap1\n      dup11\n      swap1\n        /* \"contracts/contracts/protocol/TuliaVault.sol\":1315:1799  permit2.permitTransferFrom(... */\n      0x04\n      add\n      tag_270\n      jump\t// in\n    tag_269:\n      0x00\n      mload(0x40)\n      dup1\n      dup4\n      sub\n      dup2\n      0x00\n      dup8\n      dup1\n      extcodesize\n      iszero\n      dup1\n      iszero\n      tag_271\n      jumpi\n      0x00\n      dup1\n      revert\n    tag_271:\n      pop\n      gas\n      call\n      iszero\n      dup1\n      iszero\n      tag_273\n      jumpi\n      returndatasize\n      0x00\n      dup1\n      returndatacopy\n      revert(0x00, returndatasize)\n    tag_273:\n      pop\n      pop\n      pop\n      pop\n        /* \"contracts/contracts/protocol/TuliaVault.sol\":1815:1840  deposit(amount, receiver) */\n      tag_274\n        /* \"contracts/contracts/protocol/TuliaVault.sol\":1823:1829  amount */\n      dup8\n        /* \"contracts/contracts/protocol/TuliaVault.sol\":1831:1839  receiver */\n      dup4\n        /* \"contracts/contracts/protocol/TuliaVault.sol\":1815:1822  deposit */\n      tag_100\n        /* \"contracts/contracts/protocol/TuliaVault.sol\":1815:1840  deposit(amount, receiver) */\n      jump\t// in\n    tag_274:\n        /* \"contracts/contracts/protocol/TuliaVault.sol\":1808:1840  return deposit(amount, receiver) */\n      swap1\n      pop\n        /* \"@openzeppelin/contracts/security/ReentrancyGuard.sol\":2303:2323  _nonReentrantAfter() */\n      tag_275\n        /* \"@openzeppelin/contracts/security/ReentrancyGuard.sol\":1716:1717  1 */\n      0x01\n        /* \"@openzeppelin/contracts/security/ReentrancyGuard.sol\":2809:2816  _status */\n      0x05\n        /* \"@openzeppelin/contracts/security/ReentrancyGuard.sol\":2809:2831  _status = _NOT_ENTERED */\n      sstore\n        /* \"@openzeppelin/contracts/security/ReentrancyGuard.sol\":2629:2838  function _nonReentrantAfter() private {... */\n      jump\n        /* \"@openzeppelin/contracts/security/ReentrancyGuard.sol\":2303:2323  _nonReentrantAfter() */\n    tag_275:\n        /* \"contracts/contracts/protocol/TuliaVault.sol\":1113:1844  function depositWithPermit(... */\n      swap7\n      swap6\n      pop\n      pop\n      pop\n      pop\n      pop\n      pop\n      jump\t// out\n        /* \"@openzeppelin/contracts/token/ERC20/extensions/ERC4626.sol\":6658:6811  function maxWithdraw(address owner) public view virtual returns (uint256) {... */\n    tag_151:\n      sub(shl(0xa0, 0x01), 0x01)\n        /* \"@openzeppelin/contracts/token/ERC20/ERC20.sol\":3390:3408  _balances[account] */\n      dup2\n      and\n        /* \"@openzeppelin/contracts/token/ERC20/extensions/ERC4626.sol\":6723:6730  uint256 */\n      0x00\n        /* \"@openzeppelin/contracts/token/ERC20/ERC20.sol\":3390:3408  _balances[account] */\n      swap1\n      dup2\n      mstore\n      0x20\n      dup2\n      swap1\n      mstore\n      0x40\n      dup2\n      keccak256\n      sload\n        /* \"@openzeppelin/contracts/token/ERC20/extensions/ERC4626.sol\":6749:6804  _convertToAssets(balanceOf(owner), Math.Rounding.Floor) */\n      tag_187\n      swap1\n        /* \"@openzeppelin/contracts/token/ERC20/extensions/ERC4626.sol\":6784:6803  Math.Rounding.Floor */\n      0x00\n        /* \"@openzeppelin/contracts/token/ERC20/extensions/ERC4626.sol\":6749:6765  _convertToAssets */\n      tag_188\n        /* \"@openzeppelin/contracts/token/ERC20/extensions/ERC4626.sol\":6749:6804  _convertToAssets(balanceOf(owner), Math.Rounding.Floor) */\n      jump\t// in\n        /* \"@openzeppelin/contracts/token/ERC20/extensions/ERC4626.sol\":6859:6971  function maxRedeem(address owner) public view virtual returns (uint256) {... */\n    tag_155:\n      sub(shl(0xa0, 0x01), 0x01)\n        /* \"@openzeppelin/contracts/token/ERC20/ERC20.sol\":3390:3408  _balances[account] */\n      dup2\n      and\n        /* \"@openzeppelin/contracts/token/ERC20/extensions/ERC4626.sol\":6922:6929  uint256 */\n      0x00\n        /* \"@openzeppelin/contracts/token/ERC20/ERC20.sol\":3390:3408  _balances[account] */\n      swap1\n      dup2\n      mstore\n      0x20\n      dup2\n      swap1\n      mstore\n      0x40\n      dup2\n      keccak256\n      sload\n        /* \"@openzeppelin/contracts/token/ERC20/extensions/ERC4626.sol\":6948:6964  balanceOf(owner) */\n      tag_187\n        /* \"@openzeppelin/contracts/token/ERC20/ERC20.sol\":3299:3415  function balanceOf(address account) public view virtual returns (uint256) {... */\n      jump\n        /* \"@openzeppelin/contracts/token/ERC20/extensions/ERC4626.sol\":10219:10432  function _convertToAssets(uint256 shares, Math.Rounding rounding) internal view virtual returns (uint256) {... */\n    tag_188:\n        /* \"@openzeppelin/contracts/token/ERC20/extensions/ERC4626.sol\":10316:10323  uint256 */\n      0x00\n        /* \"@openzeppelin/contracts/token/ERC20/extensions/ERC4626.sol\":10342:10425  shares.mulDiv(totalAssets() + 1, totalSupply() + 10 ** _decimalsOffset(), rounding) */\n      tag_198\n        /* \"@openzeppelin/contracts/token/ERC20/extensions/ERC4626.sol\":10356:10369  totalAssets() */\n      tag_286\n        /* \"@openzeppelin/contracts/token/ERC20/extensions/ERC4626.sol\":10356:10367  totalAssets */\n      tag_43\n        /* \"@openzeppelin/contracts/token/ERC20/extensions/ERC4626.sol\":10356:10369  totalAssets() */\n      jump\t// in\n    tag_286:\n        /* \"@openzeppelin/contracts/token/ERC20/extensions/ERC4626.sol\":10356:10373  totalAssets() + 1 */\n      tag_287\n      swap1\n        /* \"@openzeppelin/contracts/token/ERC20/extensions/ERC4626.sol\":10372:10373  1 */\n      0x01\n        /* \"@openzeppelin/contracts/token/ERC20/extensions/ERC4626.sol\":10356:10373  totalAssets() + 1 */\n      tag_288\n      jump\t// in\n    tag_287:\n        /* \"@openzeppelin/contracts/token/ERC20/extensions/ERC4626.sol\":10391:10414  10 ** _decimalsOffset() */\n      tag_290\n        /* \"@openzeppelin/contracts/token/ERC20/extensions/ERC4626.sol\":12371:12376  uint8 */\n      0x00\n        /* \"@openzeppelin/contracts/token/ERC20/extensions/ERC4626.sol\":10391:10393  10 */\n      0x0a\n        /* \"@openzeppelin/contracts/token/ERC20/extensions/ERC4626.sol\":10391:10414  10 ** _decimalsOffset() */\n      tag_291\n      jump\t// in\n    tag_290:\n        /* \"@openzeppelin/contracts/token/ERC20/ERC20.sol\":3222:3234  _totalSupply */\n      sload(0x02)\n        /* \"@openzeppelin/contracts/token/ERC20/extensions/ERC4626.sol\":10375:10414  totalSupply() + 10 ** _decimalsOffset() */\n      tag_293\n      swap2\n      swap1\n      tag_288\n      jump\t// in\n    tag_293:\n        /* \"@openzeppelin/contracts/token/ERC20/extensions/ERC4626.sol\":10342:10348  shares */\n      dup6\n      swap2\n        /* \"@openzeppelin/contracts/token/ERC20/extensions/ERC4626.sol\":10342:10425  shares.mulDiv(totalAssets() + 1, totalSupply() + 10 ** _decimalsOffset(), rounding) */\n      swap1\n        /* \"@openzeppelin/contracts/token/ERC20/extensions/ERC4626.sol\":10416:10424  rounding */\n      dup6\n        /* \"@openzeppelin/contracts/token/ERC20/extensions/ERC4626.sol\":10342:10355  shares.mulDiv */\n      tag_294\n        /* \"@openzeppelin/contracts/token/ERC20/extensions/ERC4626.sol\":10342:10425  shares.mulDiv(totalAssets() + 1, totalSupply() + 10 ** _decimalsOffset(), rounding) */\n      jump\t// in\n        /* \"@openzeppelin/contracts/token/ERC20/ERC20.sol\":8989:9117  function _approve(address owner, address spender, uint256 value) internal {... */\n    tag_193:\n        /* \"@openzeppelin/contracts/token/ERC20/ERC20.sol\":9073:9110  _approve(owner, spender, value, true) */\n      tag_297\n        /* \"@openzeppelin/contracts/token/ERC20/ERC20.sol\":9082:9087  owner */\n      dup4\n        /* \"@openzeppelin/contracts/token/ERC20/ERC20.sol\":9089:9096  spender */\n      dup4\n        /* \"@openzeppelin/contracts/token/ERC20/ERC20.sol\":9098:9103  value */\n      dup4\n        /* \"@openzeppelin/contracts/token/ERC20/ERC20.sol\":9105:9109  true */\n      0x01\n        /* \"@openzeppelin/contracts/token/ERC20/ERC20.sol\":9073:9081  _approve */\n      tag_298\n        /* \"@openzeppelin/contracts/token/ERC20/ERC20.sol\":9073:9110  _approve(owner, spender, value, true) */\n      jump\t// in\n    tag_297:\n        /* \"@openzeppelin/contracts/token/ERC20/ERC20.sol\":8989:9117  function _approve(address owner, address spender, uint256 value) internal {... */\n      pop\n      pop\n      pop\n      jump\t// out\n        /* \"@openzeppelin/contracts/token/ERC20/extensions/ERC4626.sol\":9882:10095  function _convertToShares(uint256 assets, Math.Rounding rounding) internal view virtual returns (uint256) {... */\n    tag_196:\n        /* \"@openzeppelin/contracts/token/ERC20/extensions/ERC4626.sol\":9979:9986  uint256 */\n      0x00\n        /* \"@openzeppelin/contracts/token/ERC20/extensions/ERC4626.sol\":10005:10088  assets.mulDiv(totalSupply() + 10 ** _decimalsOffset(), totalAssets() + 1, rounding) */\n      tag_198\n        /* \"@openzeppelin/contracts/token/ERC20/extensions/ERC4626.sol\":10035:10058  10 ** _decimalsOffset() */\n      tag_302\n        /* \"@openzeppelin/contracts/token/ERC20/extensions/ERC4626.sol\":9979:9986  uint256 */\n      dup3\n        /* \"@openzeppelin/contracts/token/ERC20/extensions/ERC4626.sol\":10035:10037  10 */\n      0x0a\n        /* \"@openzeppelin/contracts/token/ERC20/extensions/ERC4626.sol\":10035:10058  10 ** _decimalsOffset() */\n      tag_291\n      jump\t// in\n    tag_302:\n        /* \"@openzeppelin/contracts/token/ERC20/ERC20.sol\":3222:3234  _totalSupply */\n      sload(0x02)\n        /* \"@openzeppelin/contracts/token/ERC20/extensions/ERC4626.sol\":10019:10058  totalSupply() + 10 ** _decimalsOffset() */\n      tag_304\n      swap2\n      swap1\n      tag_288\n      jump\t// in\n    tag_304:\n        /* \"@openzeppelin/contracts/token/ERC20/extensions/ERC4626.sol\":10060:10073  totalAssets() */\n      tag_305\n        /* \"@openzeppelin/contracts/token/ERC20/extensions/ERC4626.sol\":10060:10071  totalAssets */\n      tag_43\n        /* \"@openzeppelin/contracts/token/ERC20/extensions/ERC4626.sol\":10060:10073  totalAssets() */\n      jump\t// in\n    tag_305:\n        /* \"@openzeppelin/contracts/token/ERC20/extensions/ERC4626.sol\":10060:10077  totalAssets() + 1 */\n      tag_293\n      swap1\n        /* \"@openzeppelin/contracts/token/ERC20/extensions/ERC4626.sol\":10076:10077  1 */\n      0x01\n        /* \"@openzeppelin/contracts/token/ERC20/extensions/ERC4626.sol\":10060:10077  totalAssets() + 1 */\n      tag_288\n      jump\t// in\n        /* \"@openzeppelin/contracts/token/ERC20/ERC20.sol\":10663:11140  function _spendAllowance(address owner, address spender, uint256 value) internal virtual {... */\n    tag_201:\n      sub(shl(0xa0, 0x01), 0x01)\n        /* \"@openzeppelin/contracts/token/ERC20/ERC20.sol\":3952:3970  _allowances[owner] */\n      dup4\n      dup2\n      and\n        /* \"@openzeppelin/contracts/token/ERC20/ERC20.sol\":10762:10786  uint256 currentAllowance */\n      0x00\n        /* \"@openzeppelin/contracts/token/ERC20/ERC20.sol\":3952:3970  _allowances[owner] */\n      swap1\n      dup2\n      mstore\n        /* \"@openzeppelin/contracts/token/ERC20/ERC20.sol\":3952:3963  _allowances */\n      0x01\n        /* \"@openzeppelin/contracts/token/ERC20/ERC20.sol\":3952:3970  _allowances[owner] */\n      0x20\n      swap1\n      dup2\n      mstore\n      0x40\n      dup1\n      dup4\n      keccak256\n        /* \"@openzeppelin/contracts/token/ERC20/ERC20.sol\":3952:3979  _allowances[owner][spender] */\n      swap4\n      dup7\n      and\n      dup4\n      mstore\n      swap3\n      swap1\n      mstore\n      keccak256\n      sload\n      not(0x00)\n        /* \"@openzeppelin/contracts/token/ERC20/ERC20.sol\":10828:10865  currentAllowance != type(uint256).max */\n      dup2\n      eq\n        /* \"@openzeppelin/contracts/token/ERC20/ERC20.sol\":10824:11134  if (currentAllowance != type(uint256).max) {... */\n      tag_312\n      jumpi\n        /* \"@openzeppelin/contracts/token/ERC20/ERC20.sol\":10904:10909  value */\n      dup2\n        /* \"@openzeppelin/contracts/token/ERC20/ERC20.sol\":10885:10901  currentAllowance */\n      dup2\n        /* \"@openzeppelin/contracts/token/ERC20/ERC20.sol\":10885:10909  currentAllowance < value */\n      lt\n        /* \"@openzeppelin/contracts/token/ERC20/ERC20.sol\":10881:11011  if (currentAllowance < value) {... */\n      iszero\n      tag_310\n      jumpi\n        /* \"@openzeppelin/contracts/token/ERC20/ERC20.sol\":10963:10970  spender */\n      dup3\n        /* \"@openzeppelin/contracts/token/ERC20/ERC20.sol\":10972:10988  currentAllowance */\n      dup2\n        /* \"@openzeppelin/contracts/token/ERC20/ERC20.sol\":10990:10995  value */\n      dup4\n        /* \"@openzeppelin/contracts/token/ERC20/ERC20.sol\":10936:10996  ERC20InsufficientAllowance(spender, currentAllowance, value) */\n      mload(0x40)\n      shl(0xe1, 0x7dc7a0d9)\n      dup2\n      mstore\n      0x04\n      add\n      tag_216\n      swap4\n      swap3\n      swap2\n      swap1\n      tag_217\n      jump\t// in\n        /* \"@openzeppelin/contracts/token/ERC20/ERC20.sol\":10881:11011  if (currentAllowance < value) {... */\n    tag_310:\n        /* \"@openzeppelin/contracts/token/ERC20/ERC20.sol\":11052:11109  _approve(owner, spender, currentAllowance - value, false) */\n      tag_312\n        /* \"@openzeppelin/contracts/token/ERC20/ERC20.sol\":11061:11066  owner */\n      dup5\n        /* \"@openzeppelin/contracts/token/ERC20/ERC20.sol\":11068:11075  spender */\n      dup5\n        /* \"@openzeppelin/contracts/token/ERC20/ERC20.sol\":11096:11101  value */\n      dup5\n        /* \"@openzeppelin/contracts/token/ERC20/ERC20.sol\":11077:11093  currentAllowance */\n      dup5\n        /* \"@openzeppelin/contracts/token/ERC20/ERC20.sol\":11077:11101  currentAllowance - value */\n      sub\n        /* \"@openzeppelin/contracts/token/ERC20/ERC20.sol\":11103:11108  false */\n      0x00\n        /* \"@openzeppelin/contracts/token/ERC20/ERC20.sol\":11052:11060  _approve */\n      tag_298\n        /* \"@openzeppelin/contracts/token/ERC20/ERC20.sol\":11052:11109  _approve(owner, spender, currentAllowance - value, false) */\n      jump\t// in\n    tag_312:\n        /* \"@openzeppelin/contracts/token/ERC20/ERC20.sol\":10752:11140  {... */\n      pop\n        /* \"@openzeppelin/contracts/token/ERC20/ERC20.sol\":10663:11140  function _spendAllowance(address owner, address spender, uint256 value) internal virtual {... */\n      pop\n      pop\n      pop\n      jump\t// out\n        /* \"@openzeppelin/contracts/token/ERC20/ERC20.sol\":5656:5956  function _transfer(address from, address to, uint256 value) internal {... */\n    tag_203:\n      sub(shl(0xa0, 0x01), 0x01)\n        /* \"@openzeppelin/contracts/token/ERC20/ERC20.sol\":5739:5757  from == address(0) */\n      dup4\n      and\n        /* \"@openzeppelin/contracts/token/ERC20/ERC20.sol\":5735:5821  if (from == address(0)) {... */\n      tag_314\n      jumpi\n        /* \"@openzeppelin/contracts/token/ERC20/ERC20.sol\":5780:5810  ERC20InvalidSender(address(0)) */\n      mload(0x40)\n      shl(0xe1, 0x4b637e8f)\n      dup2\n      mstore\n        /* \"@openzeppelin/contracts/token/ERC20/ERC20.sol\":5807:5808  0 */\n      0x00\n        /* \"@openzeppelin/contracts/token/ERC20/ERC20.sol\":5780:5810  ERC20InvalidSender(address(0)) */\n      0x04\n      dup3\n      add\n        /* \"#utility.yul\":1596:1647   */\n      mstore\n        /* \"#utility.yul\":1569:1587   */\n      0x24\n      add\n        /* \"@openzeppelin/contracts/token/ERC20/ERC20.sol\":5780:5810  ERC20InvalidSender(address(0)) */\n      tag_216\n        /* \"#utility.yul\":1433:1653   */\n      jump\n        /* \"@openzeppelin/contracts/token/ERC20/ERC20.sol\":5735:5821  if (from == address(0)) {... */\n    tag_314:\n      sub(shl(0xa0, 0x01), 0x01)\n        /* \"@openzeppelin/contracts/token/ERC20/ERC20.sol\":5834:5850  to == address(0) */\n      dup3\n      and\n        /* \"@openzeppelin/contracts/token/ERC20/ERC20.sol\":5830:5916  if (to == address(0)) {... */\n      tag_316\n      jumpi\n        /* \"@openzeppelin/contracts/token/ERC20/ERC20.sol\":5873:5905  ERC20InvalidReceiver(address(0)) */\n      mload(0x40)\n      shl(0xe0, 0xec442f05)\n      dup2\n      mstore\n        /* \"@openzeppelin/contracts/token/ERC20/ERC20.sol\":5902:5903  0 */\n      0x00\n        /* \"@openzeppelin/contracts/token/ERC20/ERC20.sol\":5873:5905  ERC20InvalidReceiver(address(0)) */\n      0x04\n      dup3\n      add\n        /* \"#utility.yul\":1596:1647   */\n      mstore\n        /* \"#utility.yul\":1569:1587   */\n      0x24\n      add\n        /* \"@openzeppelin/contracts/token/ERC20/ERC20.sol\":5873:5905  ERC20InvalidReceiver(address(0)) */\n      tag_216\n        /* \"#utility.yul\":1433:1653   */\n      jump\n        /* \"@openzeppelin/contracts/token/ERC20/ERC20.sol\":5830:5916  if (to == address(0)) {... */\n    tag_316:\n        /* \"@openzeppelin/contracts/token/ERC20/ERC20.sol\":5925:5949  _update(from, to, value) */\n      tag_297\n        /* \"@openzeppelin/contracts/token/ERC20/ERC20.sol\":5933:5937  from */\n      dup4\n        /* \"@openzeppelin/contracts/token/ERC20/ERC20.sol\":5939:5941  to */\n      dup4\n        /* \"@openzeppelin/contracts/token/ERC20/ERC20.sol\":5943:5948  value */\n      dup4\n        /* \"@openzeppelin/contracts/token/ERC20/ERC20.sol\":5925:5932  _update */\n      tag_319\n        /* \"@openzeppelin/contracts/token/ERC20/ERC20.sol\":5925:5949  _update(from, to, value) */\n      jump\t// in\n        /* \"@openzeppelin/contracts/token/ERC20/extensions/ERC4626.sol\":10496:11326  function _deposit(address caller, address receiver, uint256 assets, uint256 shares) internal virtual {... */\n    tag_221:\n        /* \"@openzeppelin/contracts/token/ERC20/extensions/ERC4626.sol\":11164:11229  SafeERC20.safeTransferFrom(_asset, caller, address(this), assets) */\n      tag_322\n        /* \"@openzeppelin/contracts/token/ERC20/extensions/ERC4626.sol\":11191:11197  _asset */\n      immutable(\"0x57d03f72a618a841c753598d7d2cbcbbd5f43a73c69f9abc886bd29cf4101ea1\")\n        /* \"@openzeppelin/contracts/token/ERC20/extensions/ERC4626.sol\":11199:11205  caller */\n      dup6\n        /* \"@openzeppelin/contracts/token/ERC20/extensions/ERC4626.sol\":11215:11219  this */\n      address\n        /* \"@openzeppelin/contracts/token/ERC20/extensions/ERC4626.sol\":11222:11228  assets */\n      dup6\n        /* \"@openzeppelin/contracts/token/ERC20/extensions/ERC4626.sol\":11164:11190  SafeERC20.safeTransferFrom */\n      tag_323\n        /* \"@openzeppelin/contracts/token/ERC20/extensions/ERC4626.sol\":11164:11229  SafeERC20.safeTransferFrom(_asset, caller, address(this), assets) */\n      jump\t// in\n    tag_322:\n        /* \"@openzeppelin/contracts/token/ERC20/extensions/ERC4626.sol\":11239:11262  _mint(receiver, shares) */\n      tag_324\n        /* \"@openzeppelin/contracts/token/ERC20/extensions/ERC4626.sol\":11245:11253  receiver */\n      dup4\n        /* \"@openzeppelin/contracts/token/ERC20/extensions/ERC4626.sol\":11255:11261  shares */\n      dup3\n        /* \"@openzeppelin/contracts/token/ERC20/extensions/ERC4626.sol\":11239:11244  _mint */\n      tag_325\n        /* \"@openzeppelin/contracts/token/ERC20/extensions/ERC4626.sol\":11239:11262  _mint(receiver, shares) */\n      jump\t// in\n    tag_324:\n        /* \"@openzeppelin/contracts/token/ERC20/extensions/ERC4626.sol\":11294:11302  receiver */\n      dup3\n      sub(shl(0xa0, 0x01), 0x01)\n        /* \"@openzeppelin/contracts/token/ERC20/extensions/ERC4626.sol\":11278:11319  Deposit(caller, receiver, assets, shares) */\n      and\n        /* \"@openzeppelin/contracts/token/ERC20/extensions/ERC4626.sol\":11286:11292  caller */\n      dup5\n      sub(shl(0xa0, 0x01), 0x01)\n        /* \"@openzeppelin/contracts/token/ERC20/extensions/ERC4626.sol\":11278:11319  Deposit(caller, receiver, assets, shares) */\n      and\n      0xdcbc1c05240f31ff3ad067ef1ee35ce4997762752e3a095284754544f4c709d7\n        /* \"@openzeppelin/contracts/token/ERC20/extensions/ERC4626.sol\":11304:11310  assets */\n      dup5\n        /* \"@openzeppelin/contracts/token/ERC20/extensions/ERC4626.sol\":11312:11318  shares */\n      dup5\n        /* \"@openzeppelin/contracts/token/ERC20/extensions/ERC4626.sol\":11278:11319  Deposit(caller, receiver, assets, shares) */\n      mload(0x40)\n      tag_326\n      swap3\n      swap2\n      swap1\n        /* \"#utility.yul\":8547:8572   */\n      swap2\n      dup3\n      mstore\n        /* \"#utility.yul\":8603:8605   */\n      0x20\n        /* \"#utility.yul\":8588:8606   */\n      dup3\n      add\n        /* \"#utility.yul\":8581:8615   */\n      mstore\n        /* \"#utility.yul\":8535:8537   */\n      0x40\n        /* \"#utility.yul\":8520:8538   */\n      add\n      swap1\n        /* \"#utility.yul\":8373:8621   */\n      jump\n        /* \"@openzeppelin/contracts/token/ERC20/extensions/ERC4626.sol\":11278:11319  Deposit(caller, receiver, assets, shares) */\n    tag_326:\n      mload(0x40)\n      dup1\n      swap2\n      sub\n      swap1\n      log3\n        /* \"@openzeppelin/contracts/token/ERC20/extensions/ERC4626.sol\":10496:11326  function _deposit(address caller, address receiver, uint256 assets, uint256 shares) internal virtual {... */\n      pop\n      pop\n      pop\n      pop\n      jump\t// out\n        /* \"@openzeppelin/contracts/security/ReentrancyGuard.sol\":2336:2623  function _nonReentrantBefore() private {... */\n    tag_246:\n        /* \"@openzeppelin/contracts/security/ReentrancyGuard.sol\":1759:1760  2 */\n      0x02\n        /* \"@openzeppelin/contracts/security/ReentrancyGuard.sol\":2468:2475  _status */\n      sload(0x05)\n        /* \"@openzeppelin/contracts/security/ReentrancyGuard.sol\":2468:2487  _status != _ENTERED */\n      sub\n        /* \"@openzeppelin/contracts/security/ReentrancyGuard.sol\":2460:2523  require(_status != _ENTERED, \"ReentrancyGuard: reentrant call\") */\n      tag_329\n      jumpi\n      mload(0x40)\n      shl(0xe5, 0x461bcd)\n      dup2\n      mstore\n        /* \"#utility.yul\":8828:8830   */\n      0x20\n        /* \"@openzeppelin/contracts/security/ReentrancyGuard.sol\":2460:2523  require(_status != _ENTERED, \"ReentrancyGuard: reentrant call\") */\n      0x04\n      dup3\n      add\n        /* \"#utility.yul\":8810:8831   */\n      mstore\n        /* \"#utility.yul\":8867:8869   */\n      0x1f\n        /* \"#utility.yul\":8847:8865   */\n      0x24\n      dup3\n      add\n        /* \"#utility.yul\":8840:8870   */\n      mstore\n        /* \"#utility.yul\":8906:8939   */\n      0x5265656e7472616e637947756172643a207265656e7472616e742063616c6c00\n        /* \"#utility.yul\":8886:8904   */\n      0x44\n      dup3\n      add\n        /* \"#utility.yul\":8879:8940   */\n      mstore\n        /* \"#utility.yul\":8957:8975   */\n      0x64\n      add\n        /* \"@openzeppelin/contracts/security/ReentrancyGuard.sol\":2460:2523  require(_status != _ENTERED, \"ReentrancyGuard: reentrant call\") */\n      tag_216\n        /* \"#utility.yul\":8626:8981   */\n      jump\n        /* \"@openzeppelin/contracts/security/ReentrancyGuard.sol\":2460:2523  require(_status != _ENTERED, \"ReentrancyGuard: reentrant call\") */\n    tag_329:\n        /* \"@openzeppelin/contracts/security/ReentrancyGuard.sol\":1759:1760  2 */\n      0x02\n        /* \"@openzeppelin/contracts/security/ReentrancyGuard.sol\":2598:2605  _status */\n      0x05\n        /* \"@openzeppelin/contracts/security/ReentrancyGuard.sol\":2598:2616  _status = _ENTERED */\n      sstore\n        /* \"@openzeppelin/contracts/security/ReentrancyGuard.sol\":2336:2623  function _nonReentrantBefore() private {... */\n      jump\t// out\n        /* \"contracts/contracts/protocol/TuliaVault.sol\":2362:2748  function _accrueYield() internal {... */\n    tag_249:\n        /* \"contracts/contracts/protocol/TuliaVault.sol\":2406:2425  uint256 timeElapsed */\n      0x00\n        /* \"contracts/contracts/protocol/TuliaVault.sol\":2446:2466  lastYieldAccrualTime */\n      sload(0x07)\n        /* \"contracts/contracts/protocol/TuliaVault.sol\":2428:2443  block.timestamp */\n      timestamp\n        /* \"contracts/contracts/protocol/TuliaVault.sol\":2428:2466  block.timestamp - lastYieldAccrualTime */\n      tag_333\n      swap2\n      swap1\n      tag_334\n      jump\t// in\n    tag_333:\n        /* \"contracts/contracts/protocol/TuliaVault.sol\":2406:2466  uint256 timeElapsed = block.timestamp - lastYieldAccrualTime */\n      swap1\n      pop\n        /* \"contracts/contracts/protocol/TuliaVault.sol\":555:561  1 days */\n      0x015180\n        /* \"contracts/contracts/protocol/TuliaVault.sol\":2481:2492  timeElapsed */\n      dup2\n        /* \"contracts/contracts/protocol/TuliaVault.sol\":2481:2516  timeElapsed >= YIELD_ACCRUAL_PERIOD */\n      lt\n        /* \"contracts/contracts/protocol/TuliaVault.sol\":2477:2741  if (timeElapsed >= YIELD_ACCRUAL_PERIOD) {... */\n      tag_335\n      jumpi\n        /* \"contracts/contracts/protocol/TuliaVault.sol\":2533:2552  uint256 yieldAmount */\n      0x00\n        /* \"contracts/contracts/protocol/TuliaVault.sol\":2555:2583  _calculateYield(timeElapsed) */\n      tag_336\n        /* \"contracts/contracts/protocol/TuliaVault.sol\":2571:2582  timeElapsed */\n      dup3\n        /* \"contracts/contracts/protocol/TuliaVault.sol\":2555:2570  _calculateYield */\n      tag_337\n        /* \"contracts/contracts/protocol/TuliaVault.sol\":2555:2583  _calculateYield(timeElapsed) */\n      jump\t// in\n    tag_336:\n        /* \"contracts/contracts/protocol/TuliaVault.sol\":2533:2583  uint256 yieldAmount = _calculateYield(timeElapsed) */\n      swap1\n      pop\n        /* \"contracts/contracts/protocol/TuliaVault.sol\":2598:2631  _mint(address(this), yieldAmount) */\n      tag_338\n        /* \"contracts/contracts/protocol/TuliaVault.sol\":2612:2616  this */\n      address\n        /* \"contracts/contracts/protocol/TuliaVault.sol\":2619:2630  yieldAmount */\n      dup3\n        /* \"contracts/contracts/protocol/TuliaVault.sol\":2598:2603  _mint */\n      tag_325\n        /* \"contracts/contracts/protocol/TuliaVault.sol\":2598:2631  _mint(address(this), yieldAmount) */\n      jump\t// in\n    tag_338:\n        /* \"contracts/contracts/protocol/TuliaVault.sol\":2669:2684  block.timestamp */\n      timestamp\n        /* \"contracts/contracts/protocol/TuliaVault.sol\":2646:2666  lastYieldAccrualTime */\n      0x07\n        /* \"contracts/contracts/protocol/TuliaVault.sol\":2646:2684  lastYieldAccrualTime = block.timestamp */\n      sstore\n        /* \"contracts/contracts/protocol/TuliaVault.sol\":2704:2729  YieldAccrued(yieldAmount) */\n      mload(0x40)\n        /* \"#utility.yul\":160:185   */\n      dup2\n      dup2\n      mstore\n        /* \"contracts/contracts/protocol/TuliaVault.sol\":2704:2729  YieldAccrued(yieldAmount) */\n      0x3b6bc0ba304eaa17cdca1b053baac859e721c7a775cddefc825f6286641311fc\n      swap1\n        /* \"#utility.yul\":148:150   */\n      0x20\n        /* \"#utility.yul\":133:151   */\n      add\n        /* \"contracts/contracts/protocol/TuliaVault.sol\":2704:2729  YieldAccrued(yieldAmount) */\n      mload(0x40)\n      dup1\n      swap2\n      sub\n      swap1\n      log1\n        /* \"contracts/contracts/protocol/TuliaVault.sol\":2518:2741  {... */\n      pop\n        /* \"contracts/contracts/protocol/TuliaVault.sol\":2477:2741  if (timeElapsed >= YIELD_ACCRUAL_PERIOD) {... */\n    tag_335:\n        /* \"contracts/contracts/protocol/TuliaVault.sol\":2395:2748  {... */\n      pop\n        /* \"contracts/contracts/protocol/TuliaVault.sol\":2362:2748  function _accrueYield() internal {... */\n      jump\t// out\n        /* \"@openzeppelin/contracts/token/ERC20/extensions/ERC4626.sol\":8895:9308  function withdraw(uint256 assets, address receiver, address owner) public virtual returns (uint256) {... */\n    tag_251:\n        /* \"@openzeppelin/contracts/token/ERC20/extensions/ERC4626.sol\":8986:8993  uint256 */\n      0x00\n        /* \"@openzeppelin/contracts/token/ERC20/extensions/ERC4626.sol\":9005:9022  uint256 maxAssets */\n      dup1\n        /* \"@openzeppelin/contracts/token/ERC20/extensions/ERC4626.sol\":9025:9043  maxWithdraw(owner) */\n      tag_341\n        /* \"@openzeppelin/contracts/token/ERC20/extensions/ERC4626.sol\":9037:9042  owner */\n      dup4\n        /* \"@openzeppelin/contracts/token/ERC20/extensions/ERC4626.sol\":9025:9036  maxWithdraw */\n      tag_151\n        /* \"@openzeppelin/contracts/token/ERC20/extensions/ERC4626.sol\":9025:9043  maxWithdraw(owner) */\n      jump\t// in\n    tag_341:\n        /* \"@openzeppelin/contracts/token/ERC20/extensions/ERC4626.sol\":9005:9043  uint256 maxAssets = maxWithdraw(owner) */\n      swap1\n      pop\n        /* \"@openzeppelin/contracts/token/ERC20/extensions/ERC4626.sol\":9066:9075  maxAssets */\n      dup1\n        /* \"@openzeppelin/contracts/token/ERC20/extensions/ERC4626.sol\":9057:9063  assets */\n      dup6\n        /* \"@openzeppelin/contracts/token/ERC20/extensions/ERC4626.sol\":9057:9075  assets > maxAssets */\n      gt\n        /* \"@openzeppelin/contracts/token/ERC20/extensions/ERC4626.sol\":9053:9161  if (assets > maxAssets) {... */\n      iszero\n      tag_342\n      jumpi\n        /* \"@openzeppelin/contracts/token/ERC20/extensions/ERC4626.sol\":9125:9130  owner */\n      dup3\n        /* \"@openzeppelin/contracts/token/ERC20/extensions/ERC4626.sol\":9132:9138  assets */\n      dup6\n        /* \"@openzeppelin/contracts/token/ERC20/extensions/ERC4626.sol\":9140:9149  maxAssets */\n      dup3\n        /* \"@openzeppelin/contracts/token/ERC20/extensions/ERC4626.sol\":9098:9150  ERC4626ExceededMaxWithdraw(owner, assets, maxAssets) */\n      mload(0x40)\n      shl(0xe2, 0x3fa733bb)\n      dup2\n      mstore\n      0x04\n      add\n      tag_216\n      swap4\n      swap3\n      swap2\n      swap1\n      tag_217\n      jump\t// in\n        /* \"@openzeppelin/contracts/token/ERC20/extensions/ERC4626.sol\":9053:9161  if (assets > maxAssets) {... */\n    tag_342:\n        /* \"@openzeppelin/contracts/token/ERC20/extensions/ERC4626.sol\":9171:9185  uint256 shares */\n      0x00\n        /* \"@openzeppelin/contracts/token/ERC20/extensions/ERC4626.sol\":9188:9211  previewWithdraw(assets) */\n      tag_344\n        /* \"@openzeppelin/contracts/token/ERC20/extensions/ERC4626.sol\":9204:9210  assets */\n      dup7\n        /* \"@openzeppelin/contracts/token/ERC20/extensions/ERC4626.sol\":9188:9203  previewWithdraw */\n      tag_63\n        /* \"@openzeppelin/contracts/token/ERC20/extensions/ERC4626.sol\":9188:9211  previewWithdraw(assets) */\n      jump\t// in\n    tag_344:\n        /* \"@openzeppelin/contracts/token/ERC20/extensions/ERC4626.sol\":9171:9211  uint256 shares = previewWithdraw(assets) */\n      swap1\n      pop\n        /* \"@openzeppelin/contracts/token/ERC20/extensions/ERC4626.sol\":9221:9277  _withdraw(_msgSender(), receiver, owner, assets, shares) */\n      tag_259\n        /* \"@openzeppelin/contracts/utils/Context.sol\":735:745  msg.sender */\n      caller\n        /* \"@openzeppelin/contracts/token/ERC20/extensions/ERC4626.sol\":9245:9253  receiver */\n      dup7\n        /* \"@openzeppelin/contracts/token/ERC20/extensions/ERC4626.sol\":9255:9260  owner */\n      dup7\n        /* \"@openzeppelin/contracts/token/ERC20/extensions/ERC4626.sol\":9262:9268  assets */\n      dup10\n        /* \"@openzeppelin/contracts/token/ERC20/extensions/ERC4626.sol\":9270:9276  shares */\n      dup6\n        /* \"@openzeppelin/contracts/token/ERC20/extensions/ERC4626.sol\":11393:12307  function _withdraw(... */\n    tag_261:\n        /* \"@openzeppelin/contracts/token/ERC20/extensions/ERC4626.sol\":11580:11585  owner */\n      dup3\n      sub(shl(0xa0, 0x01), 0x01)\n        /* \"@openzeppelin/contracts/token/ERC20/extensions/ERC4626.sol\":11570:11585  caller != owner */\n      and\n        /* \"@openzeppelin/contracts/token/ERC20/extensions/ERC4626.sol\":11570:11576  caller */\n      dup6\n      sub(shl(0xa0, 0x01), 0x01)\n        /* \"@openzeppelin/contracts/token/ERC20/extensions/ERC4626.sol\":11570:11585  caller != owner */\n      and\n      eq\n        /* \"@openzeppelin/contracts/token/ERC20/extensions/ERC4626.sol\":11566:11650  if (caller != owner) {... */\n      tag_350\n      jumpi\n        /* \"@openzeppelin/contracts/token/ERC20/extensions/ERC4626.sol\":11601:11639  _spendAllowance(owner, caller, shares) */\n      tag_350\n        /* \"@openzeppelin/contracts/token/ERC20/extensions/ERC4626.sol\":11617:11622  owner */\n      dup4\n        /* \"@openzeppelin/contracts/token/ERC20/extensions/ERC4626.sol\":11624:11630  caller */\n      dup7\n        /* \"@openzeppelin/contracts/token/ERC20/extensions/ERC4626.sol\":11632:11638  shares */\n      dup4\n        /* \"@openzeppelin/contracts/token/ERC20/extensions/ERC4626.sol\":11601:11616  _spendAllowance */\n      tag_201\n        /* \"@openzeppelin/contracts/token/ERC20/extensions/ERC4626.sol\":11601:11639  _spendAllowance(owner, caller, shares) */\n      jump\t// in\n    tag_350:\n        /* \"@openzeppelin/contracts/token/ERC20/extensions/ERC4626.sol\":12157:12177  _burn(owner, shares) */\n      tag_351\n        /* \"@openzeppelin/contracts/token/ERC20/extensions/ERC4626.sol\":12163:12168  owner */\n      dup4\n        /* \"@openzeppelin/contracts/token/ERC20/extensions/ERC4626.sol\":12170:12176  shares */\n      dup3\n        /* \"@openzeppelin/contracts/token/ERC20/extensions/ERC4626.sol\":12157:12162  _burn */\n      tag_352\n        /* \"@openzeppelin/contracts/token/ERC20/extensions/ERC4626.sol\":12157:12177  _burn(owner, shares) */\n      jump\t// in\n    tag_351:\n        /* \"@openzeppelin/contracts/token/ERC20/extensions/ERC4626.sol\":12187:12235  SafeERC20.safeTransfer(_asset, receiver, assets) */\n      tag_353\n        /* \"@openzeppelin/contracts/token/ERC20/extensions/ERC4626.sol\":12210:12216  _asset */\n      immutable(\"0x57d03f72a618a841c753598d7d2cbcbbd5f43a73c69f9abc886bd29cf4101ea1\")\n        /* \"@openzeppelin/contracts/token/ERC20/extensions/ERC4626.sol\":12218:12226  receiver */\n      dup6\n        /* \"@openzeppelin/contracts/token/ERC20/extensions/ERC4626.sol\":12228:12234  assets */\n      dup5\n        /* \"@openzeppelin/contracts/token/ERC20/extensions/ERC4626.sol\":12187:12209  SafeERC20.safeTransfer */\n      tag_354\n        /* \"@openzeppelin/contracts/token/ERC20/extensions/ERC4626.sol\":12187:12235  SafeERC20.safeTransfer(_asset, receiver, assets) */\n      jump\t// in\n    tag_353:\n        /* \"@openzeppelin/contracts/token/ERC20/extensions/ERC4626.sol\":12278:12283  owner */\n      dup3\n      sub(shl(0xa0, 0x01), 0x01)\n        /* \"@openzeppelin/contracts/token/ERC20/extensions/ERC4626.sol\":12251:12300  Withdraw(caller, receiver, owner, assets, shares) */\n      and\n        /* \"@openzeppelin/contracts/token/ERC20/extensions/ERC4626.sol\":12268:12276  receiver */\n      dup5\n      sub(shl(0xa0, 0x01), 0x01)\n        /* \"@openzeppelin/contracts/token/ERC20/extensions/ERC4626.sol\":12251:12300  Withdraw(caller, receiver, owner, assets, shares) */\n      and\n        /* \"@openzeppelin/contracts/token/ERC20/extensions/ERC4626.sol\":12260:12266  caller */\n      dup7\n      sub(shl(0xa0, 0x01), 0x01)\n        /* \"@openzeppelin/contracts/token/ERC20/extensions/ERC4626.sol\":12251:12300  Withdraw(caller, receiver, owner, assets, shares) */\n      and\n      0xfbde797d201c681b91056529119e0b02407c7bb96a4a2c75c01fc9667232c8db\n        /* \"@openzeppelin/contracts/token/ERC20/extensions/ERC4626.sol\":12285:12291  assets */\n      dup6\n        /* \"@openzeppelin/contracts/token/ERC20/extensions/ERC4626.sol\":12293:12299  shares */\n      dup6\n        /* \"@openzeppelin/contracts/token/ERC20/extensions/ERC4626.sol\":12251:12300  Withdraw(caller, receiver, owner, assets, shares) */\n      mload(0x40)\n      tag_355\n      swap3\n      swap2\n      swap1\n        /* \"#utility.yul\":8547:8572   */\n      swap2\n      dup3\n      mstore\n        /* \"#utility.yul\":8603:8605   */\n      0x20\n        /* \"#utility.yul\":8588:8606   */\n      dup3\n      add\n        /* \"#utility.yul\":8581:8615   */\n      mstore\n        /* \"#utility.yul\":8535:8537   */\n      0x40\n        /* \"#utility.yul\":8520:8538   */\n      add\n      swap1\n        /* \"#utility.yul\":8373:8621   */\n      jump\n        /* \"@openzeppelin/contracts/token/ERC20/extensions/ERC4626.sol\":12251:12300  Withdraw(caller, receiver, owner, assets, shares) */\n    tag_355:\n      mload(0x40)\n      dup1\n      swap2\n      sub\n      swap1\n      log4\n        /* \"@openzeppelin/contracts/token/ERC20/extensions/ERC4626.sol\":11393:12307  function _withdraw(... */\n      pop\n      pop\n      pop\n      pop\n      pop\n      jump\t// out\n        /* \"@openzeppelin/contracts/utils/math/Math.sol\":8051:8353  function mulDiv(uint256 x, uint256 y, uint256 denominator, Rounding rounding) internal pure returns (uint256) {... */\n    tag_294:\n        /* \"@openzeppelin/contracts/utils/math/Math.sol\":8152:8159  uint256 */\n      0x00\n        /* \"@openzeppelin/contracts/utils/math/Math.sol\":8171:8185  uint256 result */\n      dup1\n        /* \"@openzeppelin/contracts/utils/math/Math.sol\":8188:8213  mulDiv(x, y, denominator) */\n      tag_357\n        /* \"@openzeppelin/contracts/utils/math/Math.sol\":8195:8196  x */\n      dup7\n        /* \"@openzeppelin/contracts/utils/math/Math.sol\":8198:8199  y */\n      dup7\n        /* \"@openzeppelin/contracts/utils/math/Math.sol\":8201:8212  denominator */\n      dup7\n        /* \"@openzeppelin/contracts/utils/math/Math.sol\":8188:8194  mulDiv */\n      tag_358\n        /* \"@openzeppelin/contracts/utils/math/Math.sol\":8188:8213  mulDiv(x, y, denominator) */\n      jump\t// in\n    tag_357:\n        /* \"@openzeppelin/contracts/utils/math/Math.sol\":8171:8213  uint256 result = mulDiv(x, y, denominator) */\n      swap1\n      pop\n        /* \"@openzeppelin/contracts/utils/math/Math.sol\":8227:8253  unsignedRoundsUp(rounding) */\n      tag_359\n        /* \"@openzeppelin/contracts/utils/math/Math.sol\":8244:8252  rounding */\n      dup4\n        /* \"@openzeppelin/contracts/utils/math/Math.sol\":8227:8243  unsignedRoundsUp */\n      tag_360\n        /* \"@openzeppelin/contracts/utils/math/Math.sol\":8227:8253  unsignedRoundsUp(rounding) */\n      jump\t// in\n    tag_359:\n        /* \"@openzeppelin/contracts/utils/math/Math.sol\":8227:8286  unsignedRoundsUp(rounding) && mulmod(x, y, denominator) > 0 */\n      dup1\n      iszero\n      tag_361\n      jumpi\n      pop\n        /* \"@openzeppelin/contracts/utils/math/Math.sol\":8285:8286  0 */\n      0x00\n        /* \"@openzeppelin/contracts/utils/math/Math.sol\":8270:8281  denominator */\n      dup5\n        /* \"@openzeppelin/contracts/utils/math/Math.sol\":8257:8282  mulmod(x, y, denominator) */\n      dup1\n      tag_363\n      jumpi\n      tag_363\n      tag_364\n      jump\t// in\n    tag_363:\n        /* \"@openzeppelin/contracts/utils/math/Math.sol\":8267:8268  y */\n      dup7\n        /* \"@openzeppelin/contracts/utils/math/Math.sol\":8264:8265  x */\n      dup9\n        /* \"@openzeppelin/contracts/utils/math/Math.sol\":8257:8282  mulmod(x, y, denominator) */\n      mulmod\n        /* \"@openzeppelin/contracts/utils/math/Math.sol\":8257:8286  mulmod(x, y, denominator) > 0 */\n      gt\n        /* \"@openzeppelin/contracts/utils/math/Math.sol\":8227:8286  unsignedRoundsUp(rounding) && mulmod(x, y, denominator) > 0 */\n    tag_361:\n        /* \"@openzeppelin/contracts/utils/math/Math.sol\":8223:8324  if (unsignedRoundsUp(rounding) && mulmod(x, y, denominator) > 0) {... */\n      iszero\n      tag_259\n      jumpi\n        /* \"@openzeppelin/contracts/utils/math/Math.sol\":8302:8313  result += 1 */\n      tag_275\n        /* \"@openzeppelin/contracts/utils/math/Math.sol\":8312:8313  1 */\n      0x01\n        /* \"@openzeppelin/contracts/utils/math/Math.sol\":8302:8313  result += 1 */\n      dup3\n      tag_288\n      jump\t// in\n        /* \"@openzeppelin/contracts/token/ERC20/ERC20.sol\":9949:10381  function _approve(address owner, address spender, uint256 value, bool emitEvent) internal virtual {... */\n    tag_298:\n      sub(shl(0xa0, 0x01), 0x01)\n        /* \"@openzeppelin/contracts/token/ERC20/ERC20.sol\":10061:10080  owner == address(0) */\n      dup5\n      and\n        /* \"@openzeppelin/contracts/token/ERC20/ERC20.sol\":10057:10146  if (owner == address(0)) {... */\n      tag_368\n      jumpi\n        /* \"@openzeppelin/contracts/token/ERC20/ERC20.sol\":10103:10135  ERC20InvalidApprover(address(0)) */\n      mload(0x40)\n      shl(0xe0, 0xe602df05)\n      dup2\n      mstore\n        /* \"@openzeppelin/contracts/token/ERC20/ERC20.sol\":10132:10133  0 */\n      0x00\n        /* \"@openzeppelin/contracts/token/ERC20/ERC20.sol\":10103:10135  ERC20InvalidApprover(address(0)) */\n      0x04\n      dup3\n      add\n        /* \"#utility.yul\":1596:1647   */\n      mstore\n        /* \"#utility.yul\":1569:1587   */\n      0x24\n      add\n        /* \"@openzeppelin/contracts/token/ERC20/ERC20.sol\":10103:10135  ERC20InvalidApprover(address(0)) */\n      tag_216\n        /* \"#utility.yul\":1433:1653   */\n      jump\n        /* \"@openzeppelin/contracts/token/ERC20/ERC20.sol\":10057:10146  if (owner == address(0)) {... */\n    tag_368:\n      sub(shl(0xa0, 0x01), 0x01)\n        /* \"@openzeppelin/contracts/token/ERC20/ERC20.sol\":10159:10180  spender == address(0) */\n      dup4\n      and\n        /* \"@openzeppelin/contracts/token/ERC20/ERC20.sol\":10155:10245  if (spender == address(0)) {... */\n      tag_370\n      jumpi\n        /* \"@openzeppelin/contracts/token/ERC20/ERC20.sol\":10203:10234  ERC20InvalidSpender(address(0)) */\n      mload(0x40)\n      shl(0xe1, 0x4a1406b1)\n      dup2\n      mstore\n        /* \"@openzeppelin/contracts/token/ERC20/ERC20.sol\":10231:10232  0 */\n      0x00\n        /* \"@openzeppelin/contracts/token/ERC20/ERC20.sol\":10203:10234  ERC20InvalidSpender(address(0)) */\n      0x04\n      dup3\n      add\n        /* \"#utility.yul\":1596:1647   */\n      mstore\n        /* \"#utility.yul\":1569:1587   */\n      0x24\n      add\n        /* \"@openzeppelin/contracts/token/ERC20/ERC20.sol\":10203:10234  ERC20InvalidSpender(address(0)) */\n      tag_216\n        /* \"#utility.yul\":1433:1653   */\n      jump\n        /* \"@openzeppelin/contracts/token/ERC20/ERC20.sol\":10155:10245  if (spender == address(0)) {... */\n    tag_370:\n      sub(shl(0xa0, 0x01), 0x01)\n        /* \"@openzeppelin/contracts/token/ERC20/ERC20.sol\":10254:10272  _allowances[owner] */\n      dup1\n      dup6\n      and\n      0x00\n      swap1\n      dup2\n      mstore\n        /* \"@openzeppelin/contracts/token/ERC20/ERC20.sol\":10254:10265  _allowances */\n      0x01\n        /* \"@openzeppelin/contracts/token/ERC20/ERC20.sol\":10254:10272  _allowances[owner] */\n      0x20\n      swap1\n      dup2\n      mstore\n      0x40\n      dup1\n      dup4\n      keccak256\n        /* \"@openzeppelin/contracts/token/ERC20/ERC20.sol\":10254:10281  _allowances[owner][spender] */\n      swap4\n      dup8\n      and\n      dup4\n      mstore\n      swap3\n      swap1\n      mstore\n      keccak256\n        /* \"@openzeppelin/contracts/token/ERC20/ERC20.sol\":10254:10289  _allowances[owner][spender] = value */\n      dup3\n      swap1\n      sstore\n        /* \"@openzeppelin/contracts/token/ERC20/ERC20.sol\":10299:10375  if (emitEvent) {... */\n      dup1\n      iszero\n      tag_312\n      jumpi\n        /* \"@openzeppelin/contracts/token/ERC20/ERC20.sol\":10349:10356  spender */\n      dup3\n      sub(shl(0xa0, 0x01), 0x01)\n        /* \"@openzeppelin/contracts/token/ERC20/ERC20.sol\":10333:10364  Approval(owner, spender, value) */\n      and\n        /* \"@openzeppelin/contracts/token/ERC20/ERC20.sol\":10342:10347  owner */\n      dup5\n      sub(shl(0xa0, 0x01), 0x01)\n        /* \"@openzeppelin/contracts/token/ERC20/ERC20.sol\":10333:10364  Approval(owner, spender, value) */\n      and\n      0x8c5be1e5ebec7d5bd14f71427d1e84f3dd0314c0f7b2291e5b200ac8c7c3b925\n        /* \"@openzeppelin/contracts/token/ERC20/ERC20.sol\":10358:10363  value */\n      dup5\n        /* \"@openzeppelin/contracts/token/ERC20/ERC20.sol\":10333:10364  Approval(owner, spender, value) */\n      mload(0x40)\n      tag_326\n      swap2\n        /* \"#utility.yul\":160:185   */\n      dup2\n      mstore\n        /* \"#utility.yul\":148:150   */\n      0x20\n        /* \"#utility.yul\":133:151   */\n      add\n      swap1\n        /* \"#utility.yul\":14:191   */\n      jump\n        /* \"@openzeppelin/contracts/token/ERC20/ERC20.sol\":6271:7378  function _update(address from, address to, uint256 value) internal virtual {... */\n    tag_319:\n      sub(shl(0xa0, 0x01), 0x01)\n        /* \"@openzeppelin/contracts/token/ERC20/ERC20.sol\":6360:6378  from == address(0) */\n      dup4\n      and\n        /* \"@openzeppelin/contracts/token/ERC20/ERC20.sol\":6356:6896  if (from == address(0)) {... */\n      tag_375\n      jumpi\n        /* \"@openzeppelin/contracts/token/ERC20/ERC20.sol\":6512:6517  value */\n      dup1\n        /* \"@openzeppelin/contracts/token/ERC20/ERC20.sol\":6496:6508  _totalSupply */\n      0x02\n      0x00\n        /* \"@openzeppelin/contracts/token/ERC20/ERC20.sol\":6496:6517  _totalSupply += value */\n      dup3\n      dup3\n      sload\n      tag_376\n      swap2\n      swap1\n      tag_288\n      jump\t// in\n    tag_376:\n      swap1\n      swap2\n      sstore\n      pop\n        /* \"@openzeppelin/contracts/token/ERC20/ERC20.sol\":6356:6896  if (from == address(0)) {... */\n      tag_377\n      swap1\n      pop\n      jump\n    tag_375:\n      sub(shl(0xa0, 0x01), 0x01)\n        /* \"@openzeppelin/contracts/token/ERC20/ERC20.sol\":6570:6585  _balances[from] */\n      dup4\n      and\n        /* \"@openzeppelin/contracts/token/ERC20/ERC20.sol\":6548:6567  uint256 fromBalance */\n      0x00\n        /* \"@openzeppelin/contracts/token/ERC20/ERC20.sol\":6570:6585  _balances[from] */\n      swap1\n      dup2\n      mstore\n      0x20\n      dup2\n      swap1\n      mstore\n      0x40\n      swap1\n      keccak256\n      sload\n        /* \"@openzeppelin/contracts/token/ERC20/ERC20.sol\":6603:6622  fromBalance < value */\n      dup2\n      dup2\n      lt\n        /* \"@openzeppelin/contracts/token/ERC20/ERC20.sol\":6599:6714  if (fromBalance < value) {... */\n      iszero\n      tag_378\n      jumpi\n        /* \"@openzeppelin/contracts/token/ERC20/ERC20.sol\":6674:6678  from */\n      dup4\n        /* \"@openzeppelin/contracts/token/ERC20/ERC20.sol\":6680:6691  fromBalance */\n      dup2\n        /* \"@openzeppelin/contracts/token/ERC20/ERC20.sol\":6693:6698  value */\n      dup4\n        /* \"@openzeppelin/contracts/token/ERC20/ERC20.sol\":6649:6699  ERC20InsufficientBalance(from, fromBalance, value) */\n      mload(0x40)\n      shl(0xe2, 0x391434e3)\n      dup2\n      mstore\n      0x04\n      add\n      tag_216\n      swap4\n      swap3\n      swap2\n      swap1\n      tag_217\n      jump\t// in\n        /* \"@openzeppelin/contracts/token/ERC20/ERC20.sol\":6599:6714  if (fromBalance < value) {... */\n    tag_378:\n      sub(shl(0xa0, 0x01), 0x01)\n        /* \"@openzeppelin/contracts/token/ERC20/ERC20.sol\":6834:6849  _balances[from] */\n      dup5\n      and\n        /* \"@openzeppelin/contracts/token/ERC20/ERC20.sol\":6834:6843  _balances */\n      0x00\n        /* \"@openzeppelin/contracts/token/ERC20/ERC20.sol\":6834:6849  _balances[from] */\n      swap1\n      dup2\n      mstore\n      0x20\n      dup2\n      swap1\n      mstore\n      0x40\n      swap1\n      keccak256\n        /* \"@openzeppelin/contracts/token/ERC20/ERC20.sol\":6852:6871  fromBalance - value */\n      swap1\n      dup3\n      swap1\n      sub\n        /* \"@openzeppelin/contracts/token/ERC20/ERC20.sol\":6834:6871  _balances[from] = fromBalance - value */\n      swap1\n      sstore\n        /* \"@openzeppelin/contracts/token/ERC20/ERC20.sol\":6356:6896  if (from == address(0)) {... */\n    tag_377:\n      sub(shl(0xa0, 0x01), 0x01)\n        /* \"@openzeppelin/contracts/token/ERC20/ERC20.sol\":6910:6926  to == address(0) */\n      dup3\n      and\n        /* \"@openzeppelin/contracts/token/ERC20/ERC20.sol\":6906:7331  if (to == address(0)) {... */\n      tag_380\n      jumpi\n        /* \"@openzeppelin/contracts/token/ERC20/ERC20.sol\":7073:7085  _totalSupply */\n      0x02\n        /* \"@openzeppelin/contracts/token/ERC20/ERC20.sol\":7073:7094  _totalSupply -= value */\n      dup1\n      sload\n      dup3\n      swap1\n      sub\n      swap1\n      sstore\n        /* \"@openzeppelin/contracts/token/ERC20/ERC20.sol\":6906:7331  if (to == address(0)) {... */\n      jump(tag_381)\n    tag_380:\n      sub(shl(0xa0, 0x01), 0x01)\n        /* \"@openzeppelin/contracts/token/ERC20/ERC20.sol\":7284:7297  _balances[to] */\n      dup3\n      and\n        /* \"@openzeppelin/contracts/token/ERC20/ERC20.sol\":7284:7293  _balances */\n      0x00\n        /* \"@openzeppelin/contracts/token/ERC20/ERC20.sol\":7284:7297  _balances[to] */\n      swap1\n      dup2\n      mstore\n      0x20\n      dup2\n      swap1\n      mstore\n      0x40\n      swap1\n      keccak256\n        /* \"@openzeppelin/contracts/token/ERC20/ERC20.sol\":7284:7306  _balances[to] += value */\n      dup1\n      sload\n      dup3\n      add\n      swap1\n      sstore\n        /* \"@openzeppelin/contracts/token/ERC20/ERC20.sol\":6906:7331  if (to == address(0)) {... */\n    tag_381:\n        /* \"@openzeppelin/contracts/token/ERC20/ERC20.sol\":7361:7363  to */\n      dup2\n      sub(shl(0xa0, 0x01), 0x01)\n        /* \"@openzeppelin/contracts/token/ERC20/ERC20.sol\":7346:7371  Transfer(from, to, value) */\n      and\n        /* \"@openzeppelin/contracts/token/ERC20/ERC20.sol\":7355:7359  from */\n      dup4\n      sub(shl(0xa0, 0x01), 0x01)\n        /* \"@openzeppelin/contracts/token/ERC20/ERC20.sol\":7346:7371  Transfer(from, to, value) */\n      and\n      0xddf252ad1be2c89b69c2b068fc378daa952ba7f163c4a11628f55a4df523b3ef\n        /* \"@openzeppelin/contracts/token/ERC20/ERC20.sol\":7365:7370  value */\n      dup4\n        /* \"@openzeppelin/contracts/token/ERC20/ERC20.sol\":7346:7371  Transfer(from, to, value) */\n      mload(0x40)\n      tag_382\n      swap2\n        /* \"#utility.yul\":160:185   */\n      dup2\n      mstore\n        /* \"#utility.yul\":148:150   */\n      0x20\n        /* \"#utility.yul\":133:151   */\n      add\n      swap1\n        /* \"#utility.yul\":14:191   */\n      jump\n        /* \"@openzeppelin/contracts/token/ERC20/ERC20.sol\":7346:7371  Transfer(from, to, value) */\n    tag_382:\n      mload(0x40)\n      dup1\n      swap2\n      sub\n      swap1\n      log3\n        /* \"@openzeppelin/contracts/token/ERC20/ERC20.sol\":6271:7378  function _update(address from, address to, uint256 value) internal virtual {... */\n      pop\n      pop\n      pop\n      jump\t// out\n        /* \"@openzeppelin/contracts/token/ERC20/utils/SafeERC20.sol\":1702:1890  function safeTransferFrom(IERC20 token, address from, address to, uint256 value) internal {... */\n    tag_323:\n        /* \"@openzeppelin/contracts/token/ERC20/utils/SafeERC20.sol\":1829:1882  abi.encodeCall(token.transferFrom, (from, to, value)) */\n      mload(0x40)\n      sub(shl(0xa0, 0x01), 0x01)\n        /* \"#utility.yul\":9509:9524   */\n      dup5\n      dup2\n      and\n        /* \"@openzeppelin/contracts/token/ERC20/utils/SafeERC20.sol\":1829:1882  abi.encodeCall(token.transferFrom, (from, to, value)) */\n      0x24\n      dup4\n      add\n        /* \"#utility.yul\":9491:9525   */\n      mstore\n        /* \"#utility.yul\":9561:9576   */\n      dup4\n      dup2\n      and\n        /* \"#utility.yul\":9541:9559   */\n      0x44\n      dup4\n      add\n        /* \"#utility.yul\":9534:9577   */\n      mstore\n        /* \"#utility.yul\":9593:9611   */\n      0x64\n      dup3\n      add\n        /* \"#utility.yul\":9586:9620   */\n      dup4\n      swap1\n      mstore\n        /* \"@openzeppelin/contracts/token/ERC20/utils/SafeERC20.sol\":1802:1883  _callOptionalReturn(token, abi.encodeCall(token.transferFrom, (from, to, value))) */\n      tag_312\n      swap2\n        /* \"@openzeppelin/contracts/token/ERC20/utils/SafeERC20.sol\":1822:1827  token */\n      dup7\n      swap2\n        /* \"@openzeppelin/contracts/token/ERC20/utils/SafeERC20.sol\":1844:1862  token.transferFrom */\n      dup3\n      and\n      swap1\n      0x23b872dd\n      swap1\n        /* \"#utility.yul\":9426:9444   */\n      0x84\n      add\n        /* \"@openzeppelin/contracts/token/ERC20/utils/SafeERC20.sol\":1829:1882  abi.encodeCall(token.transferFrom, (from, to, value)) */\n    tag_385:\n      mload(0x40)\n      0x20\n      dup2\n      dup4\n      sub\n      sub\n      dup2\n      mstore\n      swap1\n      0x40\n      mstore\n      swap2\n      pop\n      0xe0\n      shl\n      0x20\n      dup3\n      add\n      dup1\n      mload\n      sub(shl(0xe0, 0x01), 0x01)\n      dup4\n      dup2\n      dup4\n      and\n      or\n      dup4\n      mstore\n      pop\n      pop\n      pop\n      pop\n        /* \"@openzeppelin/contracts/token/ERC20/utils/SafeERC20.sol\":1802:1821  _callOptionalReturn */\n      tag_387\n        /* \"@openzeppelin/contracts/token/ERC20/utils/SafeERC20.sol\":1802:1883  _callOptionalReturn(token, abi.encodeCall(token.transferFrom, (from, to, value))) */\n      jump\t// in\n        /* \"@openzeppelin/contracts/token/ERC20/ERC20.sol\":7721:7929  function _mint(address account, uint256 value) internal {... */\n    tag_325:\n      sub(shl(0xa0, 0x01), 0x01)\n        /* \"@openzeppelin/contracts/token/ERC20/ERC20.sol\":7791:7812  account == address(0) */\n      dup3\n      and\n        /* \"@openzeppelin/contracts/token/ERC20/ERC20.sol\":7787:7878  if (account == address(0)) {... */\n      tag_389\n      jumpi\n        /* \"@openzeppelin/contracts/token/ERC20/ERC20.sol\":7835:7867  ERC20InvalidReceiver(address(0)) */\n      mload(0x40)\n      shl(0xe0, 0xec442f05)\n      dup2\n      mstore\n        /* \"@openzeppelin/contracts/token/ERC20/ERC20.sol\":7864:7865  0 */\n      0x00\n        /* \"@openzeppelin/contracts/token/ERC20/ERC20.sol\":7835:7867  ERC20InvalidReceiver(address(0)) */\n      0x04\n      dup3\n      add\n        /* \"#utility.yul\":1596:1647   */\n      mstore\n        /* \"#utility.yul\":1569:1587   */\n      0x24\n      add\n        /* \"@openzeppelin/contracts/token/ERC20/ERC20.sol\":7835:7867  ERC20InvalidReceiver(address(0)) */\n      tag_216\n        /* \"#utility.yul\":1433:1653   */\n      jump\n        /* \"@openzeppelin/contracts/token/ERC20/ERC20.sol\":7787:7878  if (account == address(0)) {... */\n    tag_389:\n        /* \"@openzeppelin/contracts/token/ERC20/ERC20.sol\":7887:7922  _update(address(0), account, value) */\n      tag_391\n        /* \"@openzeppelin/contracts/token/ERC20/ERC20.sol\":7903:7904  0 */\n      0x00\n        /* \"@openzeppelin/contracts/token/ERC20/ERC20.sol\":7907:7914  account */\n      dup4\n        /* \"@openzeppelin/contracts/token/ERC20/ERC20.sol\":7916:7921  value */\n      dup4\n        /* \"@openzeppelin/contracts/token/ERC20/ERC20.sol\":7887:7894  _update */\n      tag_319\n        /* \"@openzeppelin/contracts/token/ERC20/ERC20.sol\":7887:7922  _update(address(0), account, value) */\n      jump\t// in\n    tag_391:\n        /* \"@openzeppelin/contracts/token/ERC20/ERC20.sol\":7721:7929  function _mint(address account, uint256 value) internal {... */\n      pop\n      pop\n      jump\t// out\n        /* \"contracts/contracts/protocol/TuliaVault.sol\":2756:3053  function _calculateYield(uint256 timeElapsed) internal view returns (uint256) {... */\n    tag_337:\n        /* \"contracts/contracts/protocol/TuliaVault.sol\":2825:2832  uint256 */\n      0x00\n        /* \"contracts/contracts/protocol/TuliaVault.sol\":2845:2859  uint256 assets */\n      dup1\n        /* \"contracts/contracts/protocol/TuliaVault.sol\":2862:2875  totalAssets() */\n      tag_393\n        /* \"contracts/contracts/protocol/TuliaVault.sol\":2862:2873  totalAssets */\n      tag_43\n        /* \"contracts/contracts/protocol/TuliaVault.sol\":2862:2875  totalAssets() */\n      jump\t// in\n    tag_393:\n        /* \"contracts/contracts/protocol/TuliaVault.sol\":2845:2875  uint256 assets = totalAssets() */\n      swap1\n      pop\n        /* \"contracts/contracts/protocol/TuliaVault.sol\":3030:3044  365 days * 100 */\n      0xbbf81e00\n        /* \"contracts/contracts/protocol/TuliaVault.sol\":3014:3025  timeElapsed */\n      dup4\n        /* \"contracts/contracts/protocol/TuliaVault.sol\":2998:3011  baseYieldRate */\n      sload(0x08)\n        /* \"contracts/contracts/protocol/TuliaVault.sol\":2989:2995  assets */\n      dup4\n        /* \"contracts/contracts/protocol/TuliaVault.sol\":2989:3011  assets * baseYieldRate */\n      tag_394\n      swap2\n      swap1\n      tag_395\n      jump\t// in\n    tag_394:\n        /* \"contracts/contracts/protocol/TuliaVault.sol\":2989:3025  assets * baseYieldRate * timeElapsed */\n      tag_396\n      swap2\n      swap1\n      tag_395\n      jump\t// in\n    tag_396:\n        /* \"contracts/contracts/protocol/TuliaVault.sol\":2988:3045  (assets * baseYieldRate * timeElapsed) / (365 days * 100) */\n      tag_198\n      swap2\n      swap1\n      tag_398\n      jump\t// in\n        /* \"@openzeppelin/contracts/token/ERC20/ERC20.sol\":8247:8453  function _burn(address account, uint256 value) internal {... */\n    tag_352:\n      sub(shl(0xa0, 0x01), 0x01)\n        /* \"@openzeppelin/contracts/token/ERC20/ERC20.sol\":8317:8338  account == address(0) */\n      dup3\n      and\n        /* \"@openzeppelin/contracts/token/ERC20/ERC20.sol\":8313:8402  if (account == address(0)) {... */\n      tag_400\n      jumpi\n        /* \"@openzeppelin/contracts/token/ERC20/ERC20.sol\":8361:8391  ERC20InvalidSender(address(0)) */\n      mload(0x40)\n      shl(0xe1, 0x4b637e8f)\n      dup2\n      mstore\n        /* \"@openzeppelin/contracts/token/ERC20/ERC20.sol\":8388:8389  0 */\n      0x00\n        /* \"@openzeppelin/contracts/token/ERC20/ERC20.sol\":8361:8391  ERC20InvalidSender(address(0)) */\n      0x04\n      dup3\n      add\n        /* \"#utility.yul\":1596:1647   */\n      mstore\n        /* \"#utility.yul\":1569:1587   */\n      0x24\n      add\n        /* \"@openzeppelin/contracts/token/ERC20/ERC20.sol\":8361:8391  ERC20InvalidSender(address(0)) */\n      tag_216\n        /* \"#utility.yul\":1433:1653   */\n      jump\n        /* \"@openzeppelin/contracts/token/ERC20/ERC20.sol\":8313:8402  if (account == address(0)) {... */\n    tag_400:\n        /* \"@openzeppelin/contracts/token/ERC20/ERC20.sol\":8411:8446  _update(account, address(0), value) */\n      tag_391\n        /* \"@openzeppelin/contracts/token/ERC20/ERC20.sol\":8419:8426  account */\n      dup3\n        /* \"@openzeppelin/contracts/token/ERC20/ERC20.sol\":8436:8437  0 */\n      0x00\n        /* \"@openzeppelin/contracts/token/ERC20/ERC20.sol\":8440:8445  value */\n      dup4\n        /* \"@openzeppelin/contracts/token/ERC20/ERC20.sol\":8411:8418  _update */\n      tag_319\n        /* \"@openzeppelin/contracts/token/ERC20/ERC20.sol\":8411:8446  _update(account, address(0), value) */\n      jump\t// in\n        /* \"@openzeppelin/contracts/token/ERC20/utils/SafeERC20.sol\":1303:1463  function safeTransfer(IERC20 token, address to, uint256 value) internal {... */\n    tag_354:\n        /* \"@openzeppelin/contracts/token/ERC20/utils/SafeERC20.sol\":1412:1455  abi.encodeCall(token.transfer, (to, value)) */\n      mload(0x40)\n      sub(shl(0xa0, 0x01), 0x01)\n        /* \"#utility.yul\":10121:10153   */\n      dup4\n      dup2\n      and\n        /* \"@openzeppelin/contracts/token/ERC20/utils/SafeERC20.sol\":1412:1455  abi.encodeCall(token.transfer, (to, value)) */\n      0x24\n      dup4\n      add\n        /* \"#utility.yul\":10103:10154   */\n      mstore\n        /* \"#utility.yul\":10170:10188   */\n      0x44\n      dup3\n      add\n        /* \"#utility.yul\":10163:10197   */\n      dup4\n      swap1\n      mstore\n        /* \"@openzeppelin/contracts/token/ERC20/utils/SafeERC20.sol\":1385:1456  _callOptionalReturn(token, abi.encodeCall(token.transfer, (to, value))) */\n      tag_297\n      swap2\n        /* \"@openzeppelin/contracts/token/ERC20/utils/SafeERC20.sol\":1405:1410  token */\n      dup6\n      swap2\n        /* \"@openzeppelin/contracts/token/ERC20/utils/SafeERC20.sol\":1427:1441  token.transfer */\n      dup3\n      and\n      swap1\n      0xa9059cbb\n      swap1\n        /* \"#utility.yul\":10076:10094   */\n      0x64\n      add\n        /* \"@openzeppelin/contracts/token/ERC20/utils/SafeERC20.sol\":1412:1455  abi.encodeCall(token.transfer, (to, value)) */\n      tag_385\n        /* \"#utility.yul\":9929:10203   */\n      jump\n        /* \"@openzeppelin/contracts/utils/math/Math.sol\":3803:7919  function mulDiv(uint256 x, uint256 y, uint256 denominator) internal pure returns (uint256 result) {... */\n    tag_358:\n        /* \"@openzeppelin/contracts/utils/math/Math.sol\":3885:3899  uint256 result */\n      0x00\n        /* \"@openzeppelin/contracts/utils/math/Math.sol\":4248:4253  x * y */\n      dup4\n      dup4\n      mul\n        /* \"@openzeppelin/contracts/utils/math/Math.sol\":3885:3899  uint256 result */\n      dup2\n      not(0x00)\n        /* \"@openzeppelin/contracts/utils/math/Math.sol\":4252:4253  y */\n      dup6\n        /* \"@openzeppelin/contracts/utils/math/Math.sol\":4248:4249  x */\n      dup8\n        /* \"@openzeppelin/contracts/utils/math/Math.sol\":4420:4440  mulmod(x, y, not(0)) */\n      mulmod\n        /* \"@openzeppelin/contracts/utils/math/Math.sol\":4493:4498  prod0 */\n      dup3\n        /* \"@openzeppelin/contracts/utils/math/Math.sol\":4489:4491  mm */\n      dup2\n        /* \"@openzeppelin/contracts/utils/math/Math.sol\":4486:4499  lt(mm, prod0) */\n      lt\n        /* \"@openzeppelin/contracts/utils/math/Math.sol\":4478:4483  prod0 */\n      dup4\n        /* \"@openzeppelin/contracts/utils/math/Math.sol\":4474:4476  mm */\n      dup3\n        /* \"@openzeppelin/contracts/utils/math/Math.sol\":4470:4484  sub(mm, prod0) */\n      sub\n        /* \"@openzeppelin/contracts/utils/math/Math.sol\":4466:4500  sub(sub(mm, prod0), lt(mm, prod0)) */\n      sub\n        /* \"@openzeppelin/contracts/utils/math/Math.sol\":4457:4500  prod1 := sub(sub(mm, prod0), lt(mm, prod0)) */\n      swap2\n      pop\n      pop\n        /* \"@openzeppelin/contracts/utils/math/Math.sol\":4595:4600  prod1 */\n      dup1\n        /* \"@openzeppelin/contracts/utils/math/Math.sol\":4604:4605  0 */\n      0x00\n        /* \"@openzeppelin/contracts/utils/math/Math.sol\":4595:4605  prod1 == 0 */\n      sub\n        /* \"@openzeppelin/contracts/utils/math/Math.sol\":4591:4959  if (prod1 == 0) {... */\n      tag_408\n      jumpi\n        /* \"@openzeppelin/contracts/utils/math/Math.sol\":4933:4944  denominator */\n      dup4\n        /* \"@openzeppelin/contracts/utils/math/Math.sol\":4925:4930  prod0 */\n      dup3\n        /* \"@openzeppelin/contracts/utils/math/Math.sol\":4925:4944  prod0 / denominator */\n      dup2\n      tag_410\n      jumpi\n      tag_410\n      tag_364\n      jump\t// in\n    tag_410:\n      div\n        /* \"@openzeppelin/contracts/utils/math/Math.sol\":4918:4944  return prod0 / denominator */\n      swap3\n      pop\n      pop\n      pop\n      jump(tag_198)\n        /* \"@openzeppelin/contracts/utils/math/Math.sol\":4591:4959  if (prod1 == 0) {... */\n    tag_408:\n        /* \"@openzeppelin/contracts/utils/math/Math.sol\":5080:5085  prod1 */\n      dup1\n        /* \"@openzeppelin/contracts/utils/math/Math.sol\":5065:5076  denominator */\n      dup5\n        /* \"@openzeppelin/contracts/utils/math/Math.sol\":5065:5085  denominator <= prod1 */\n      gt\n        /* \"@openzeppelin/contracts/utils/math/Math.sol\":5061:5149  if (denominator <= prod1) {... */\n      tag_411\n      jumpi\n        /* \"@openzeppelin/contracts/utils/math/Math.sol\":5112:5134  MathOverflowedMulDiv() */\n      mload(0x40)\n      shl(0xe0, 0x227bc153)\n      dup2\n      mstore\n      0x04\n      add\n      mload(0x40)\n      dup1\n      swap2\n      sub\n      swap1\n      revert\n        /* \"@openzeppelin/contracts/utils/math/Math.sol\":5061:5149  if (denominator <= prod1) {... */\n    tag_411:\n        /* \"@openzeppelin/contracts/utils/math/Math.sol\":5404:5421  uint256 remainder */\n      0x00\n        /* \"@openzeppelin/contracts/utils/math/Math.sol\":5539:5550  denominator */\n      dup5\n        /* \"@openzeppelin/contracts/utils/math/Math.sol\":5536:5537  y */\n      dup7\n        /* \"@openzeppelin/contracts/utils/math/Math.sol\":5533:5534  x */\n      dup9\n        /* \"@openzeppelin/contracts/utils/math/Math.sol\":5526:5551  mulmod(x, y, denominator) */\n      mulmod\n        /* \"@openzeppelin/contracts/utils/math/Math.sol\":5939:5951  uint256 twos */\n      0x00\n        /* \"@openzeppelin/contracts/utils/math/Math.sol\":5969:5984  0 - denominator */\n      dup7\n      dup2\n      sub\n        /* \"@openzeppelin/contracts/utils/math/Math.sol\":5954:5985  denominator & (0 - denominator) */\n      dup8\n      and\n        /* \"@openzeppelin/contracts/utils/math/Math.sol\":6088:6110  div(denominator, twos) */\n      swap7\n      dup8\n      swap1\n      div\n      swap7\n        /* \"@openzeppelin/contracts/utils/math/Math.sol\":6813:6814  2 */\n      0x02\n        /* \"@openzeppelin/contracts/utils/math/Math.sol\":6794:6795  3 */\n      0x03\n        /* \"@openzeppelin/contracts/utils/math/Math.sol\":6794:6809  3 * denominator */\n      dup10\n      mul\n        /* \"@openzeppelin/contracts/utils/math/Math.sol\":6793:6814  (3 * denominator) ^ 2 */\n      dup2\n      xor\n        /* \"@openzeppelin/contracts/utils/math/Math.sol\":7046:7067  denominator * inverse */\n      dup1\n      dup11\n      mul\n        /* \"@openzeppelin/contracts/utils/math/Math.sol\":7042:7067  2 - denominator * inverse */\n      dup3\n      sub\n        /* \"@openzeppelin/contracts/utils/math/Math.sol\":7031:7067  inverse *= 2 - denominator * inverse */\n      mul\n        /* \"@openzeppelin/contracts/utils/math/Math.sol\":7115:7136  denominator * inverse */\n      dup1\n      dup11\n      mul\n        /* \"@openzeppelin/contracts/utils/math/Math.sol\":7111:7136  2 - denominator * inverse */\n      dup3\n      sub\n        /* \"@openzeppelin/contracts/utils/math/Math.sol\":7100:7136  inverse *= 2 - denominator * inverse */\n      mul\n        /* \"@openzeppelin/contracts/utils/math/Math.sol\":7185:7206  denominator * inverse */\n      dup1\n      dup11\n      mul\n        /* \"@openzeppelin/contracts/utils/math/Math.sol\":7181:7206  2 - denominator * inverse */\n      dup3\n      sub\n        /* \"@openzeppelin/contracts/utils/math/Math.sol\":7170:7206  inverse *= 2 - denominator * inverse */\n      mul\n        /* \"@openzeppelin/contracts/utils/math/Math.sol\":7255:7276  denominator * inverse */\n      dup1\n      dup11\n      mul\n        /* \"@openzeppelin/contracts/utils/math/Math.sol\":7251:7276  2 - denominator * inverse */\n      dup3\n      sub\n        /* \"@openzeppelin/contracts/utils/math/Math.sol\":7240:7276  inverse *= 2 - denominator * inverse */\n      mul\n        /* \"@openzeppelin/contracts/utils/math/Math.sol\":7325:7346  denominator * inverse */\n      dup1\n      dup11\n      mul\n        /* \"@openzeppelin/contracts/utils/math/Math.sol\":7321:7346  2 - denominator * inverse */\n      dup3\n      sub\n        /* \"@openzeppelin/contracts/utils/math/Math.sol\":7310:7346  inverse *= 2 - denominator * inverse */\n      mul\n        /* \"@openzeppelin/contracts/utils/math/Math.sol\":7396:7417  denominator * inverse */\n      dup1\n      dup11\n      mul\n        /* \"@openzeppelin/contracts/utils/math/Math.sol\":7392:7417  2 - denominator * inverse */\n      swap1\n      swap2\n      sub\n        /* \"@openzeppelin/contracts/utils/math/Math.sol\":7381:7417  inverse *= 2 - denominator * inverse */\n      mul\n        /* \"@openzeppelin/contracts/utils/math/Math.sol\":6333:6345  sub(0, twos) */\n      swap2\n      dup2\n      swap1\n      sub\n        /* \"@openzeppelin/contracts/utils/math/Math.sol\":6329:6352  div(sub(0, twos), twos) */\n      dup2\n      swap1\n      div\n        /* \"@openzeppelin/contracts/utils/math/Math.sol\":6354:6355  1 */\n      0x01\n        /* \"@openzeppelin/contracts/utils/math/Math.sol\":6325:6356  add(div(sub(0, twos), twos), 1) */\n      add\n        /* \"@openzeppelin/contracts/utils/math/Math.sol\":5653:5673  gt(remainder, prod0) */\n      dup7\n      dup5\n      gt\n        /* \"@openzeppelin/contracts/utils/math/Math.sol\":5642:5674  sub(prod1, gt(remainder, prod0)) */\n      swap1\n      swap6\n      sub\n        /* \"@openzeppelin/contracts/utils/math/Math.sol\":6445:6457  prod1 * twos */\n      swap5\n      swap1\n      swap5\n      mul\n        /* \"@openzeppelin/contracts/utils/math/Math.sol\":5700:5721  sub(prod0, remainder) */\n      swap2\n      swap1\n      swap5\n      sub\n        /* \"@openzeppelin/contracts/utils/math/Math.sol\":6186:6202  div(prod0, twos) */\n      swap3\n      swap1\n      swap3\n      div\n        /* \"@openzeppelin/contracts/utils/math/Math.sol\":6436:6457  prod0 |= prod1 * twos */\n      swap2\n      swap1\n      swap2\n      or\n        /* \"@openzeppelin/contracts/utils/math/Math.sol\":7860:7875  prod0 * inverse */\n      swap2\n      swap1\n      swap2\n      mul\n      swap2\n      pop\n      pop\n        /* \"@openzeppelin/contracts/utils/math/Math.sol\":3803:7919  function mulDiv(uint256 x, uint256 y, uint256 denominator) internal pure returns (uint256 result) {... */\n      swap4\n      swap3\n      pop\n      pop\n      pop\n      jump\t// out\n        /* \"@openzeppelin/contracts/utils/math/Math.sol\":14993:15115  function unsignedRoundsUp(Rounding rounding) internal pure returns (bool) {... */\n    tag_360:\n        /* \"@openzeppelin/contracts/utils/math/Math.sol\":15061:15065  bool */\n      0x00\n        /* \"@openzeppelin/contracts/utils/math/Math.sol\":15102:15103  2 */\n      0x02\n        /* \"@openzeppelin/contracts/utils/math/Math.sol\":15090:15098  rounding */\n      dup3\n        /* \"@openzeppelin/contracts/utils/math/Math.sol\":15084:15099  uint8(rounding) */\n      0x03\n      dup2\n      gt\n      iszero\n      tag_414\n      jumpi\n      tag_414\n      tag_415\n      jump\t// in\n    tag_414:\n        /* \"@openzeppelin/contracts/utils/math/Math.sol\":15084:15103  uint8(rounding) % 2 */\n      tag_416\n      swap2\n      swap1\n      tag_417\n      jump\t// in\n    tag_416:\n        /* \"@openzeppelin/contracts/utils/math/Math.sol\":15084:15108  uint8(rounding) % 2 == 1 */\n      0xff\n      and\n        /* \"@openzeppelin/contracts/utils/math/Math.sol\":15107:15108  1 */\n      0x01\n        /* \"@openzeppelin/contracts/utils/math/Math.sol\":15084:15108  uint8(rounding) % 2 == 1 */\n      eq\n        /* \"@openzeppelin/contracts/utils/math/Math.sol\":15077:15108  return uint8(rounding) % 2 == 1 */\n      swap1\n      pop\n        /* \"@openzeppelin/contracts/utils/math/Math.sol\":14993:15115  function unsignedRoundsUp(Rounding rounding) internal pure returns (bool) {... */\n      swap2\n      swap1\n      pop\n      jump\t// out\n        /* \"@openzeppelin/contracts/token/ERC20/utils/SafeERC20.sol\":4059:4688  function _callOptionalReturn(IERC20 token, bytes memory data) private {... */\n    tag_387:\n        /* \"@openzeppelin/contracts/token/ERC20/utils/SafeERC20.sol\":4478:4501  bytes memory returndata */\n      0x00\n        /* \"@openzeppelin/contracts/token/ERC20/utils/SafeERC20.sol\":4504:4537  address(token).functionCall(data) */\n      tag_419\n      sub(shl(0xa0, 0x01), 0x01)\n        /* \"@openzeppelin/contracts/token/ERC20/utils/SafeERC20.sol\":4504:4531  address(token).functionCall */\n      dup5\n      and\n        /* \"@openzeppelin/contracts/token/ERC20/utils/SafeERC20.sol\":4532:4536  data */\n      dup4\n        /* \"@openzeppelin/contracts/token/ERC20/utils/SafeERC20.sol\":4504:4531  address(token).functionCall */\n      tag_420\n        /* \"@openzeppelin/contracts/token/ERC20/utils/SafeERC20.sol\":4504:4537  address(token).functionCall(data) */\n      jump\t// in\n    tag_419:\n        /* \"@openzeppelin/contracts/token/ERC20/utils/SafeERC20.sol\":4478:4537  bytes memory returndata = address(token).functionCall(data) */\n      swap1\n      pop\n        /* \"@openzeppelin/contracts/token/ERC20/utils/SafeERC20.sol\":4551:4561  returndata */\n      dup1\n        /* \"@openzeppelin/contracts/token/ERC20/utils/SafeERC20.sol\":4551:4568  returndata.length */\n      mload\n        /* \"@openzeppelin/contracts/token/ERC20/utils/SafeERC20.sol\":4572:4573  0 */\n      0x00\n        /* \"@openzeppelin/contracts/token/ERC20/utils/SafeERC20.sol\":4551:4573  returndata.length != 0 */\n      eq\n      iszero\n        /* \"@openzeppelin/contracts/token/ERC20/utils/SafeERC20.sol\":4551:4608  returndata.length != 0 && !abi.decode(returndata, (bool)) */\n      dup1\n      iszero\n      tag_421\n      jumpi\n      pop\n        /* \"@openzeppelin/contracts/token/ERC20/utils/SafeERC20.sol\":4589:4599  returndata */\n      dup1\n        /* \"@openzeppelin/contracts/token/ERC20/utils/SafeERC20.sol\":4578:4608  abi.decode(returndata, (bool)) */\n      dup1\n      0x20\n      add\n      swap1\n      mload\n      dup2\n      add\n      swap1\n      tag_422\n      swap2\n      swap1\n      tag_423\n      jump\t// in\n    tag_422:\n        /* \"@openzeppelin/contracts/token/ERC20/utils/SafeERC20.sol\":4577:4608  !abi.decode(returndata, (bool)) */\n      iszero\n        /* \"@openzeppelin/contracts/token/ERC20/utils/SafeERC20.sol\":4551:4608  returndata.length != 0 && !abi.decode(returndata, (bool)) */\n    tag_421:\n        /* \"@openzeppelin/contracts/token/ERC20/utils/SafeERC20.sol\":4547:4682  if (returndata.length != 0 && !abi.decode(returndata, (bool))) {... */\n      iszero\n      tag_297\n      jumpi\n        /* \"@openzeppelin/contracts/token/ERC20/utils/SafeERC20.sol\":4631:4671  SafeERC20FailedOperation(address(token)) */\n      mload(0x40)\n      shl(0xe0, 0x5274afe7)\n      dup2\n      mstore\n      sub(shl(0xa0, 0x01), 0x01)\n        /* \"#utility.yul\":1614:1646   */\n      dup5\n      and\n        /* \"@openzeppelin/contracts/token/ERC20/utils/SafeERC20.sol\":4631:4671  SafeERC20FailedOperation(address(token)) */\n      0x04\n      dup3\n      add\n        /* \"#utility.yul\":1596:1647   */\n      mstore\n        /* \"#utility.yul\":1569:1587   */\n      0x24\n      add\n        /* \"@openzeppelin/contracts/token/ERC20/utils/SafeERC20.sol\":4631:4671  SafeERC20FailedOperation(address(token)) */\n      tag_216\n        /* \"#utility.yul\":1433:1653   */\n      jump\n        /* \"@openzeppelin/contracts/utils/Address.sol\":2705:2856  function functionCall(address target, bytes memory data) internal returns (bytes memory) {... */\n    tag_420:\n        /* \"@openzeppelin/contracts/utils/Address.sol\":2780:2792  bytes memory */\n      0x60\n        /* \"@openzeppelin/contracts/utils/Address.sol\":2811:2849  functionCallWithValue(target, data, 0) */\n      tag_198\n        /* \"@openzeppelin/contracts/utils/Address.sol\":2833:2839  target */\n      dup4\n        /* \"@openzeppelin/contracts/utils/Address.sol\":2841:2845  data */\n      dup4\n        /* \"@openzeppelin/contracts/utils/Address.sol\":2847:2848  0 */\n      0x00\n        /* \"@openzeppelin/contracts/utils/Address.sol\":2780:2792  bytes memory */\n      dup5\n        /* \"@openzeppelin/contracts/utils/Address.sol\":3421:3433  bool success */\n      0x00\n        /* \"@openzeppelin/contracts/utils/Address.sol\":3435:3458  bytes memory returndata */\n      dup1\n        /* \"@openzeppelin/contracts/utils/Address.sol\":3462:3468  target */\n      dup6\n      sub(shl(0xa0, 0x01), 0x01)\n        /* \"@openzeppelin/contracts/utils/Address.sol\":3462:3473  target.call */\n      and\n        /* \"@openzeppelin/contracts/utils/Address.sol\":3481:3486  value */\n      dup5\n        /* \"@openzeppelin/contracts/utils/Address.sol\":3488:3492  data */\n      dup7\n        /* \"@openzeppelin/contracts/utils/Address.sol\":3462:3493  target.call{value: value}(data) */\n      mload(0x40)\n      tag_432\n      swap2\n      swap1\n      tag_433\n      jump\t// in\n    tag_432:\n      0x00\n      mload(0x40)\n      dup1\n      dup4\n      sub\n      dup2\n      dup6\n      dup8\n      gas\n      call\n      swap3\n      pop\n      pop\n      pop\n      returndatasize\n      dup1\n      0x00\n      dup2\n      eq\n      tag_436\n      jumpi\n      mload(0x40)\n      swap2\n      pop\n      and(add(returndatasize, 0x3f), not(0x1f))\n      dup3\n      add\n      0x40\n      mstore\n      returndatasize\n      dup3\n      mstore\n      returndatasize\n      0x00\n      0x20\n      dup5\n      add\n      returndatacopy\n      jump(tag_435)\n    tag_436:\n      0x60\n      swap2\n      pop\n    tag_435:\n      pop\n        /* \"@openzeppelin/contracts/utils/Address.sol\":3420:3493  (bool success, bytes memory returndata) = target.call{value: value}(data) */\n      swap2\n      pop\n      swap2\n      pop\n        /* \"@openzeppelin/contracts/utils/Address.sol\":3510:3565  verifyCallResultFromTarget(target, success, returndata) */\n      tag_275\n        /* \"@openzeppelin/contracts/utils/Address.sol\":3537:3543  target */\n      dup7\n        /* \"@openzeppelin/contracts/utils/Address.sol\":3545:3552  success */\n      dup4\n        /* \"@openzeppelin/contracts/utils/Address.sol\":3554:3564  returndata */\n      dup4\n        /* \"@openzeppelin/contracts/utils/Address.sol\":4769:4781  bytes memory */\n      0x60\n        /* \"@openzeppelin/contracts/utils/Address.sol\":4798:4805  success */\n      dup3\n        /* \"@openzeppelin/contracts/utils/Address.sol\":4793:5201  if (!success) {... */\n      tag_440\n      jumpi\n        /* \"@openzeppelin/contracts/utils/Address.sol\":4821:4840  _revert(returndata) */\n      tag_441\n        /* \"@openzeppelin/contracts/utils/Address.sol\":4829:4839  returndata */\n      dup3\n        /* \"@openzeppelin/contracts/utils/Address.sol\":4821:4828  _revert */\n      tag_442\n        /* \"@openzeppelin/contracts/utils/Address.sol\":4821:4840  _revert(returndata) */\n      jump\t// in\n    tag_441:\n        /* \"@openzeppelin/contracts/utils/Address.sol\":4793:5201  if (!success) {... */\n      jump(tag_198)\n    tag_440:\n        /* \"@openzeppelin/contracts/utils/Address.sol\":5045:5062  returndata.length */\n      dup2\n      mload\n        /* \"@openzeppelin/contracts/utils/Address.sol\":5045:5067  returndata.length == 0 */\n      iszero\n        /* \"@openzeppelin/contracts/utils/Address.sol\":5045:5094  returndata.length == 0 && target.code.length == 0 */\n      dup1\n      iszero\n      tag_444\n      jumpi\n      pop\n      sub(shl(0xa0, 0x01), 0x01)\n        /* \"@openzeppelin/contracts/utils/Address.sol\":5071:5089  target.code.length */\n      dup5\n      and\n      extcodesize\n        /* \"@openzeppelin/contracts/utils/Address.sol\":5071:5094  target.code.length == 0 */\n      iszero\n        /* \"@openzeppelin/contracts/utils/Address.sol\":5045:5094  returndata.length == 0 && target.code.length == 0 */\n    tag_444:\n        /* \"@openzeppelin/contracts/utils/Address.sol\":5041:5160  if (returndata.length == 0 && target.code.length == 0) {... */\n      iszero\n      tag_445\n      jumpi\n        /* \"@openzeppelin/contracts/utils/Address.sol\":5121:5145  AddressEmptyCode(target) */\n      mload(0x40)\n      shl(0xe0, 0x9996b315)\n      dup2\n      mstore\n      sub(shl(0xa0, 0x01), 0x01)\n        /* \"#utility.yul\":1614:1646   */\n      dup6\n      and\n        /* \"@openzeppelin/contracts/utils/Address.sol\":5121:5145  AddressEmptyCode(target) */\n      0x04\n      dup3\n      add\n        /* \"#utility.yul\":1596:1647   */\n      mstore\n        /* \"#utility.yul\":1569:1587   */\n      0x24\n      add\n        /* \"@openzeppelin/contracts/utils/Address.sol\":5121:5145  AddressEmptyCode(target) */\n      tag_216\n        /* \"#utility.yul\":1433:1653   */\n      jump\n        /* \"@openzeppelin/contracts/utils/Address.sol\":5041:5160  if (returndata.length == 0 && target.code.length == 0) {... */\n    tag_445:\n      pop\n        /* \"@openzeppelin/contracts/utils/Address.sol\":5180:5190  returndata */\n      dup1\n        /* \"@openzeppelin/contracts/utils/Address.sol\":5173:5190  return returndata */\n      jump(tag_198)\n        /* \"@openzeppelin/contracts/utils/Address.sol\":5743:6259  function _revert(bytes memory returndata) private pure {... */\n    tag_442:\n        /* \"@openzeppelin/contracts/utils/Address.sol\":5874:5891  returndata.length */\n      dup1\n      mload\n        /* \"@openzeppelin/contracts/utils/Address.sol\":5874:5895  returndata.length > 0 */\n      iszero\n        /* \"@openzeppelin/contracts/utils/Address.sol\":5870:6253  if (returndata.length > 0) {... */\n      tag_448\n      jumpi\n        /* \"@openzeppelin/contracts/utils/Address.sol\":6102:6112  returndata */\n      dup1\n        /* \"@openzeppelin/contracts/utils/Address.sol\":6096:6113  mload(returndata) */\n      mload\n        /* \"@openzeppelin/contracts/utils/Address.sol\":6158:6173  returndata_size */\n      dup1\n        /* \"@openzeppelin/contracts/utils/Address.sol\":6145:6155  returndata */\n      dup3\n        /* \"@openzeppelin/contracts/utils/Address.sol\":6141:6143  32 */\n      0x20\n        /* \"@openzeppelin/contracts/utils/Address.sol\":6137:6156  add(32, returndata) */\n      add\n        /* \"@openzeppelin/contracts/utils/Address.sol\":6130:6174  revert(add(32, returndata), returndata_size) */\n      revert\n        /* \"@openzeppelin/contracts/utils/Address.sol\":5870:6253  if (returndata.length > 0) {... */\n    tag_448:\n        /* \"@openzeppelin/contracts/utils/Address.sol\":6225:6242  FailedInnerCall() */\n      mload(0x40)\n      shl(0xe1, 0x0a12f521)\n      dup2\n      mstore\n      0x04\n      add\n      mload(0x40)\n      dup1\n      swap2\n      sub\n      swap1\n      revert\n        /* \"#utility.yul\":196:614   */\n    tag_49:\n        /* \"#utility.yul\":345:347   */\n      0x20\n        /* \"#utility.yul\":334:343   */\n      dup2\n        /* \"#utility.yul\":327:348   */\n      mstore\n        /* \"#utility.yul\":308:312   */\n      0x00\n        /* \"#utility.yul\":377:383   */\n      dup3\n        /* \"#utility.yul\":371:384   */\n      mload\n        /* \"#utility.yul\":420:426   */\n      dup1\n        /* \"#utility.yul\":415:417   */\n      0x20\n        /* \"#utility.yul\":404:413   */\n      dup5\n        /* \"#utility.yul\":400:418   */\n      add\n        /* \"#utility.yul\":393:427   */\n      mstore\n        /* \"#utility.yul\":479:485   */\n      dup1\n        /* \"#utility.yul\":474:476   */\n      0x20\n        /* \"#utility.yul\":466:472   */\n      dup6\n        /* \"#utility.yul\":462:477   */\n      add\n        /* \"#utility.yul\":457:459   */\n      0x40\n        /* \"#utility.yul\":446:455   */\n      dup6\n        /* \"#utility.yul\":442:460   */\n      add\n        /* \"#utility.yul\":436:486   */\n      mcopy\n        /* \"#utility.yul\":535:536   */\n      0x00\n        /* \"#utility.yul\":530:532   */\n      0x40\n        /* \"#utility.yul\":521:527   */\n      dup3\n        /* \"#utility.yul\":510:519   */\n      dup6\n        /* \"#utility.yul\":506:528   */\n      add\n        /* \"#utility.yul\":502:533   */\n      add\n        /* \"#utility.yul\":495:537   */\n      mstore\n        /* \"#utility.yul\":605:607   */\n      0x40\n        /* \"#utility.yul\":598:600   */\n      0x1f\n        /* \"#utility.yul\":594:601   */\n      not\n        /* \"#utility.yul\":589:591   */\n      0x1f\n        /* \"#utility.yul\":581:587   */\n      dup4\n        /* \"#utility.yul\":577:592   */\n      add\n        /* \"#utility.yul\":573:602   */\n      and\n        /* \"#utility.yul\":562:571   */\n      dup5\n        /* \"#utility.yul\":558:603   */\n      add\n        /* \"#utility.yul\":554:608   */\n      add\n        /* \"#utility.yul\":546:608   */\n      swap2\n      pop\n      pop\n        /* \"#utility.yul\":196:614   */\n      swap3\n      swap2\n      pop\n      pop\n      jump\t// out\n        /* \"#utility.yul\":619:799   */\n    tag_52:\n        /* \"#utility.yul\":678:684   */\n      0x00\n        /* \"#utility.yul\":731:733   */\n      0x20\n        /* \"#utility.yul\":719:728   */\n      dup3\n        /* \"#utility.yul\":710:717   */\n      dup5\n        /* \"#utility.yul\":706:729   */\n      sub\n        /* \"#utility.yul\":702:734   */\n      slt\n        /* \"#utility.yul\":699:751   */\n      iszero\n      tag_458\n      jumpi\n        /* \"#utility.yul\":747:748   */\n      0x00\n        /* \"#utility.yul\":744:745   */\n      dup1\n        /* \"#utility.yul\":737:749   */\n      revert\n        /* \"#utility.yul\":699:751   */\n    tag_458:\n      pop\n        /* \"#utility.yul\":770:793   */\n      calldataload\n      swap2\n        /* \"#utility.yul\":619:799   */\n      swap1\n      pop\n      jump\t// out\n        /* \"#utility.yul\":804:977   */\n    tag_450:\n        /* \"#utility.yul\":872:892   */\n      dup1\n      calldataload\n      sub(shl(0xa0, 0x01), 0x01)\n        /* \"#utility.yul\":921:952   */\n      dup2\n      and\n        /* \"#utility.yul\":911:953   */\n      dup2\n      eq\n        /* \"#utility.yul\":901:971   */\n      tag_460\n      jumpi\n        /* \"#utility.yul\":967:968   */\n      0x00\n        /* \"#utility.yul\":964:965   */\n      dup1\n        /* \"#utility.yul\":957:969   */\n      revert\n        /* \"#utility.yul\":901:971   */\n    tag_460:\n        /* \"#utility.yul\":804:977   */\n      swap2\n      swap1\n      pop\n      jump\t// out\n        /* \"#utility.yul\":982:1236   */\n    tag_57:\n        /* \"#utility.yul\":1050:1056   */\n      0x00\n        /* \"#utility.yul\":1058:1064   */\n      dup1\n        /* \"#utility.yul\":1111:1113   */\n      0x40\n        /* \"#utility.yul\":1099:1108   */\n      dup4\n        /* \"#utility.yul\":1090:1097   */\n      dup6\n        /* \"#utility.yul\":1086:1109   */\n      sub\n        /* \"#utility.yul\":1082:1114   */\n      slt\n        /* \"#utility.yul\":1079:1131   */\n      iszero\n      tag_462\n      jumpi\n        /* \"#utility.yul\":1127:1128   */\n      0x00\n        /* \"#utility.yul\":1124:1125   */\n      dup1\n        /* \"#utility.yul\":1117:1129   */\n      revert\n        /* \"#utility.yul\":1079:1131   */\n    tag_462:\n        /* \"#utility.yul\":1150:1179   */\n      tag_463\n        /* \"#utility.yul\":1169:1178   */\n      dup4\n        /* \"#utility.yul\":1150:1179   */\n      tag_450\n      jump\t// in\n    tag_463:\n        /* \"#utility.yul\":1140:1179   */\n      swap5\n        /* \"#utility.yul\":1226:1228   */\n      0x20\n        /* \"#utility.yul\":1211:1229   */\n      swap4\n      swap1\n      swap4\n      add\n        /* \"#utility.yul\":1198:1230   */\n      calldataload\n      swap4\n      pop\n      pop\n      pop\n        /* \"#utility.yul\":982:1236   */\n      jump\t// out\n        /* \"#utility.yul\":1658:1986   */\n    tag_74:\n        /* \"#utility.yul\":1735:1741   */\n      0x00\n        /* \"#utility.yul\":1743:1749   */\n      dup1\n        /* \"#utility.yul\":1751:1757   */\n      0x00\n        /* \"#utility.yul\":1804:1806   */\n      0x60\n        /* \"#utility.yul\":1792:1801   */\n      dup5\n        /* \"#utility.yul\":1783:1790   */\n      dup7\n        /* \"#utility.yul\":1779:1802   */\n      sub\n        /* \"#utility.yul\":1775:1807   */\n      slt\n        /* \"#utility.yul\":1772:1824   */\n      iszero\n      tag_467\n      jumpi\n        /* \"#utility.yul\":1820:1821   */\n      0x00\n        /* \"#utility.yul\":1817:1818   */\n      dup1\n        /* \"#utility.yul\":1810:1822   */\n      revert\n        /* \"#utility.yul\":1772:1824   */\n    tag_467:\n        /* \"#utility.yul\":1843:1872   */\n      tag_468\n        /* \"#utility.yul\":1862:1871   */\n      dup5\n        /* \"#utility.yul\":1843:1872   */\n      tag_450\n      jump\t// in\n    tag_468:\n        /* \"#utility.yul\":1833:1872   */\n      swap3\n      pop\n        /* \"#utility.yul\":1891:1929   */\n      tag_469\n        /* \"#utility.yul\":1925:1927   */\n      0x20\n        /* \"#utility.yul\":1914:1923   */\n      dup6\n        /* \"#utility.yul\":1910:1928   */\n      add\n        /* \"#utility.yul\":1891:1929   */\n      tag_450\n      jump\t// in\n    tag_469:\n        /* \"#utility.yul\":1881:1929   */\n      swap2\n      pop\n        /* \"#utility.yul\":1976:1978   */\n      0x40\n        /* \"#utility.yul\":1965:1974   */\n      dup5\n        /* \"#utility.yul\":1961:1979   */\n      add\n        /* \"#utility.yul\":1948:1980   */\n      calldataload\n        /* \"#utility.yul\":1938:1980   */\n      swap1\n      pop\n        /* \"#utility.yul\":1658:1986   */\n      swap3\n      pop\n      swap3\n      pop\n      swap3\n      jump\t// out\n        /* \"#utility.yul\":2388:2574   */\n    tag_87:\n        /* \"#utility.yul\":2447:2453   */\n      0x00\n        /* \"#utility.yul\":2500:2502   */\n      0x20\n        /* \"#utility.yul\":2488:2497   */\n      dup3\n        /* \"#utility.yul\":2479:2486   */\n      dup5\n        /* \"#utility.yul\":2475:2498   */\n      sub\n        /* \"#utility.yul\":2471:2503   */\n      slt\n        /* \"#utility.yul\":2468:2520   */\n      iszero\n      tag_473\n      jumpi\n        /* \"#utility.yul\":2516:2517   */\n      0x00\n        /* \"#utility.yul\":2513:2514   */\n      dup1\n        /* \"#utility.yul\":2506:2518   */\n      revert\n        /* \"#utility.yul\":2468:2520   */\n    tag_473:\n        /* \"#utility.yul\":2539:2568   */\n      tag_198\n        /* \"#utility.yul\":2558:2567   */\n      dup3\n        /* \"#utility.yul\":2539:2568   */\n      tag_450\n      jump\t// in\n        /* \"#utility.yul\":2579:2833   */\n    tag_99:\n        /* \"#utility.yul\":2647:2653   */\n      0x00\n        /* \"#utility.yul\":2655:2661   */\n      dup1\n        /* \"#utility.yul\":2708:2710   */\n      0x40\n        /* \"#utility.yul\":2696:2705   */\n      dup4\n        /* \"#utility.yul\":2687:2694   */\n      dup6\n        /* \"#utility.yul\":2683:2706   */\n      sub\n        /* \"#utility.yul\":2679:2711   */\n      slt\n        /* \"#utility.yul\":2676:2728   */\n      iszero\n      tag_476\n      jumpi\n        /* \"#utility.yul\":2724:2725   */\n      0x00\n        /* \"#utility.yul\":2721:2722   */\n      dup1\n        /* \"#utility.yul\":2714:2726   */\n      revert\n        /* \"#utility.yul\":2676:2728   */\n    tag_476:\n        /* \"#utility.yul\":2760:2769   */\n      dup3\n        /* \"#utility.yul\":2747:2770   */\n      calldataload\n        /* \"#utility.yul\":2737:2770   */\n      swap2\n      pop\n        /* \"#utility.yul\":2789:2827   */\n      tag_477\n        /* \"#utility.yul\":2823:2825   */\n      0x20\n        /* \"#utility.yul\":2812:2821   */\n      dup5\n        /* \"#utility.yul\":2808:2826   */\n      add\n        /* \"#utility.yul\":2789:2827   */\n      tag_450\n      jump\t// in\n    tag_477:\n        /* \"#utility.yul\":2779:2827   */\n      swap1\n      pop\n        /* \"#utility.yul\":2579:2833   */\n      swap3\n      pop\n      swap3\n      swap1\n      pop\n      jump\t// out\n        /* \"#utility.yul\":2838:3166   */\n    tag_129:\n        /* \"#utility.yul\":2915:2921   */\n      0x00\n        /* \"#utility.yul\":2923:2929   */\n      dup1\n        /* \"#utility.yul\":2931:2937   */\n      0x00\n        /* \"#utility.yul\":2984:2986   */\n      0x60\n        /* \"#utility.yul\":2972:2981   */\n      dup5\n        /* \"#utility.yul\":2963:2970   */\n      dup7\n        /* \"#utility.yul\":2959:2982   */\n      sub\n        /* \"#utility.yul\":2955:2987   */\n      slt\n        /* \"#utility.yul\":2952:3004   */\n      iszero\n      tag_479\n      jumpi\n        /* \"#utility.yul\":3000:3001   */\n      0x00\n        /* \"#utility.yul\":2997:2998   */\n      dup1\n        /* \"#utility.yul\":2990:3002   */\n      revert\n        /* \"#utility.yul\":2952:3004   */\n    tag_479:\n        /* \"#utility.yul\":3036:3045   */\n      dup4\n        /* \"#utility.yul\":3023:3046   */\n      calldataload\n        /* \"#utility.yul\":3013:3046   */\n      swap3\n      pop\n        /* \"#utility.yul\":3065:3103   */\n      tag_480\n        /* \"#utility.yul\":3099:3101   */\n      0x20\n        /* \"#utility.yul\":3088:3097   */\n      dup6\n        /* \"#utility.yul\":3084:3102   */\n      add\n        /* \"#utility.yul\":3065:3103   */\n      tag_450\n      jump\t// in\n    tag_480:\n        /* \"#utility.yul\":3055:3103   */\n      swap2\n      pop\n        /* \"#utility.yul\":3122:3160   */\n      tag_481\n        /* \"#utility.yul\":3156:3158   */\n      0x40\n        /* \"#utility.yul\":3145:3154   */\n      dup6\n        /* \"#utility.yul\":3141:3159   */\n      add\n        /* \"#utility.yul\":3122:3160   */\n      tag_450\n      jump\t// in\n    tag_481:\n        /* \"#utility.yul\":3112:3160   */\n      swap1\n      pop\n        /* \"#utility.yul\":2838:3166   */\n      swap3\n      pop\n      swap3\n      pop\n      swap3\n      jump\t// out\n        /* \"#utility.yul\":3171:4042   */\n    tag_146:\n        /* \"#utility.yul\":3277:3283   */\n      0x00\n        /* \"#utility.yul\":3285:3291   */\n      dup1\n        /* \"#utility.yul\":3293:3299   */\n      0x00\n        /* \"#utility.yul\":3301:3307   */\n      dup1\n        /* \"#utility.yul\":3309:3315   */\n      0x00\n        /* \"#utility.yul\":3317:3323   */\n      dup1\n        /* \"#utility.yul\":3370:3373   */\n      0xa0\n        /* \"#utility.yul\":3358:3367   */\n      dup8\n        /* \"#utility.yul\":3349:3356   */\n      dup10\n        /* \"#utility.yul\":3345:3368   */\n      sub\n        /* \"#utility.yul\":3341:3374   */\n      slt\n        /* \"#utility.yul\":3338:3391   */\n      iszero\n      tag_483\n      jumpi\n        /* \"#utility.yul\":3387:3388   */\n      0x00\n        /* \"#utility.yul\":3384:3385   */\n      dup1\n        /* \"#utility.yul\":3377:3389   */\n      revert\n        /* \"#utility.yul\":3338:3391   */\n    tag_483:\n        /* \"#utility.yul\":3423:3432   */\n      dup7\n        /* \"#utility.yul\":3410:3433   */\n      calldataload\n        /* \"#utility.yul\":3400:3433   */\n      swap6\n      pop\n        /* \"#utility.yul\":3480:3482   */\n      0x20\n        /* \"#utility.yul\":3469:3478   */\n      dup8\n        /* \"#utility.yul\":3465:3483   */\n      add\n        /* \"#utility.yul\":3452:3484   */\n      calldataload\n        /* \"#utility.yul\":3442:3484   */\n      swap5\n      pop\n        /* \"#utility.yul\":3531:3533   */\n      0x40\n        /* \"#utility.yul\":3520:3529   */\n      dup8\n        /* \"#utility.yul\":3516:3534   */\n      add\n        /* \"#utility.yul\":3503:3535   */\n      calldataload\n        /* \"#utility.yul\":3493:3535   */\n      swap4\n      pop\n        /* \"#utility.yul\":3586:3588   */\n      0x60\n        /* \"#utility.yul\":3575:3584   */\n      dup8\n        /* \"#utility.yul\":3571:3589   */\n      add\n        /* \"#utility.yul\":3558:3590   */\n      calldataload\n        /* \"#utility.yul\":3609:3627   */\n      0xffffffffffffffff\n        /* \"#utility.yul\":3650:3652   */\n      dup1\n        /* \"#utility.yul\":3642:3648   */\n      dup3\n        /* \"#utility.yul\":3639:3653   */\n      gt\n        /* \"#utility.yul\":3636:3670   */\n      iszero\n      tag_484\n      jumpi\n        /* \"#utility.yul\":3666:3667   */\n      0x00\n        /* \"#utility.yul\":3663:3664   */\n      dup1\n        /* \"#utility.yul\":3656:3668   */\n      revert\n        /* \"#utility.yul\":3636:3670   */\n    tag_484:\n        /* \"#utility.yul\":3704:3710   */\n      dup2\n        /* \"#utility.yul\":3693:3702   */\n      dup10\n        /* \"#utility.yul\":3689:3711   */\n      add\n        /* \"#utility.yul\":3679:3711   */\n      swap2\n      pop\n        /* \"#utility.yul\":3749:3756   */\n      dup10\n        /* \"#utility.yul\":3742:3746   */\n      0x1f\n        /* \"#utility.yul\":3738:3740   */\n      dup4\n        /* \"#utility.yul\":3734:3747   */\n      add\n        /* \"#utility.yul\":3730:3757   */\n      slt\n        /* \"#utility.yul\":3720:3775   */\n      tag_485\n      jumpi\n        /* \"#utility.yul\":3771:3772   */\n      0x00\n        /* \"#utility.yul\":3768:3769   */\n      dup1\n        /* \"#utility.yul\":3761:3773   */\n      revert\n        /* \"#utility.yul\":3720:3775   */\n    tag_485:\n        /* \"#utility.yul\":3811:3813   */\n      dup2\n        /* \"#utility.yul\":3798:3814   */\n      calldataload\n        /* \"#utility.yul\":3837:3839   */\n      dup2\n        /* \"#utility.yul\":3829:3835   */\n      dup2\n        /* \"#utility.yul\":3826:3840   */\n      gt\n        /* \"#utility.yul\":3823:3857   */\n      iszero\n      tag_486\n      jumpi\n        /* \"#utility.yul\":3853:3854   */\n      0x00\n        /* \"#utility.yul\":3850:3851   */\n      dup1\n        /* \"#utility.yul\":3843:3855   */\n      revert\n        /* \"#utility.yul\":3823:3857   */\n    tag_486:\n        /* \"#utility.yul\":3898:3905   */\n      dup11\n        /* \"#utility.yul\":3893:3895   */\n      0x20\n        /* \"#utility.yul\":3884:3890   */\n      dup3\n        /* \"#utility.yul\":3880:3882   */\n      dup6\n        /* \"#utility.yul\":3876:3891   */\n      add\n        /* \"#utility.yul\":3872:3896   */\n      add\n        /* \"#utility.yul\":3869:3906   */\n      gt\n        /* \"#utility.yul\":3866:3923   */\n      iszero\n      tag_487\n      jumpi\n        /* \"#utility.yul\":3919:3920   */\n      0x00\n        /* \"#utility.yul\":3916:3917   */\n      dup1\n        /* \"#utility.yul\":3909:3921   */\n      revert\n        /* \"#utility.yul\":3866:3923   */\n    tag_487:\n        /* \"#utility.yul\":3950:3952   */\n      0x20\n        /* \"#utility.yul\":3946:3948   */\n      dup4\n        /* \"#utility.yul\":3942:3953   */\n      add\n        /* \"#utility.yul\":3932:3953   */\n      swap6\n      pop\n        /* \"#utility.yul\":3972:3978   */\n      dup1\n        /* \"#utility.yul\":3962:3978   */\n      swap5\n      pop\n      pop\n      pop\n      pop\n        /* \"#utility.yul\":3997:4036   */\n      tag_488\n        /* \"#utility.yul\":4031:4034   */\n      0x80\n        /* \"#utility.yul\":4020:4029   */\n      dup9\n        /* \"#utility.yul\":4016:4035   */\n      add\n        /* \"#utility.yul\":3997:4036   */\n      tag_450\n      jump\t// in\n    tag_488:\n        /* \"#utility.yul\":3987:4036   */\n      swap1\n      pop\n        /* \"#utility.yul\":3171:4042   */\n      swap3\n      swap6\n      pop\n      swap3\n      swap6\n      pop\n      swap3\n      swap6\n      jump\t// out\n        /* \"#utility.yul\":4047:4307   */\n    tag_159:\n        /* \"#utility.yul\":4115:4121   */\n      0x00\n        /* \"#utility.yul\":4123:4129   */\n      dup1\n        /* \"#utility.yul\":4176:4178   */\n      0x40\n        /* \"#utility.yul\":4164:4173   */\n      dup4\n        /* \"#utility.yul\":4155:4162   */\n      dup6\n        /* \"#utility.yul\":4151:4174   */\n      sub\n        /* \"#utility.yul\":4147:4179   */\n      slt\n        /* \"#utility.yul\":4144:4196   */\n      iszero\n      tag_490\n      jumpi\n        /* \"#utility.yul\":4192:4193   */\n      0x00\n        /* \"#utility.yul\":4189:4190   */\n      dup1\n        /* \"#utility.yul\":4182:4194   */\n      revert\n        /* \"#utility.yul\":4144:4196   */\n    tag_490:\n        /* \"#utility.yul\":4215:4244   */\n      tag_491\n        /* \"#utility.yul\":4234:4243   */\n      dup4\n        /* \"#utility.yul\":4215:4244   */\n      tag_450\n      jump\t// in\n    tag_491:\n        /* \"#utility.yul\":4205:4244   */\n      swap2\n      pop\n        /* \"#utility.yul\":4263:4301   */\n      tag_477\n        /* \"#utility.yul\":4297:4299   */\n      0x20\n        /* \"#utility.yul\":4286:4295   */\n      dup5\n        /* \"#utility.yul\":4282:4300   */\n      add\n        /* \"#utility.yul\":4263:4301   */\n      tag_450\n      jump\t// in\n        /* \"#utility.yul\":4494:4678   */\n    tag_178:\n        /* \"#utility.yul\":4564:4570   */\n      0x00\n        /* \"#utility.yul\":4617:4619   */\n      0x20\n        /* \"#utility.yul\":4605:4614   */\n      dup3\n        /* \"#utility.yul\":4596:4603   */\n      dup5\n        /* \"#utility.yul\":4592:4615   */\n      sub\n        /* \"#utility.yul\":4588:4620   */\n      slt\n        /* \"#utility.yul\":4585:4637   */\n      iszero\n      tag_495\n      jumpi\n        /* \"#utility.yul\":4633:4634   */\n      0x00\n        /* \"#utility.yul\":4630:4631   */\n      dup1\n        /* \"#utility.yul\":4623:4635   */\n      revert\n        /* \"#utility.yul\":4585:4637   */\n    tag_495:\n      pop\n        /* \"#utility.yul\":4656:4672   */\n      mload\n      swap2\n        /* \"#utility.yul\":4494:4678   */\n      swap1\n      pop\n      jump\t// out\n        /* \"#utility.yul\":4683:5063   */\n    tag_181:\n        /* \"#utility.yul\":4762:4763   */\n      0x01\n        /* \"#utility.yul\":4758:4770   */\n      dup2\n      dup2\n      shr\n      swap1\n        /* \"#utility.yul\":4805:4817   */\n      dup3\n      and\n      dup1\n        /* \"#utility.yul\":4826:4887   */\n      tag_497\n      jumpi\n        /* \"#utility.yul\":4880:4884   */\n      0x7f\n        /* \"#utility.yul\":4872:4878   */\n      dup3\n        /* \"#utility.yul\":4868:4885   */\n      and\n        /* \"#utility.yul\":4858:4885   */\n      swap2\n      pop\n        /* \"#utility.yul\":4826:4887   */\n    tag_497:\n        /* \"#utility.yul\":4933:4935   */\n      0x20\n        /* \"#utility.yul\":4925:4931   */\n      dup3\n        /* \"#utility.yul\":4922:4936   */\n      lt\n        /* \"#utility.yul\":4902:4920   */\n      dup2\n        /* \"#utility.yul\":4899:4937   */\n      sub\n        /* \"#utility.yul\":4896:5057   */\n      tag_498\n      jumpi\n        /* \"#utility.yul\":4979:4989   */\n      0x4e487b71\n        /* \"#utility.yul\":4974:4977   */\n      0xe0\n        /* \"#utility.yul\":4970:4990   */\n      shl\n        /* \"#utility.yul\":4967:4968   */\n      0x00\n        /* \"#utility.yul\":4960:4991   */\n      mstore\n        /* \"#utility.yul\":5014:5018   */\n      0x22\n        /* \"#utility.yul\":5011:5012   */\n      0x04\n        /* \"#utility.yul\":5004:5019   */\n      mstore\n        /* \"#utility.yul\":5042:5046   */\n      0x24\n        /* \"#utility.yul\":5039:5040   */\n      0x00\n        /* \"#utility.yul\":5032:5047   */\n      revert\n        /* \"#utility.yul\":4896:5057   */\n    tag_498:\n      pop\n        /* \"#utility.yul\":4683:5063   */\n      swap2\n      swap1\n      pop\n      jump\t// out\n        /* \"#utility.yul\":5068:5195   */\n    tag_451:\n        /* \"#utility.yul\":5129:5139   */\n      0x4e487b71\n        /* \"#utility.yul\":5124:5127   */\n      0xe0\n        /* \"#utility.yul\":5120:5140   */\n      shl\n        /* \"#utility.yul\":5117:5118   */\n      0x00\n        /* \"#utility.yul\":5110:5141   */\n      mstore\n        /* \"#utility.yul\":5160:5164   */\n      0x11\n        /* \"#utility.yul\":5157:5158   */\n      0x04\n        /* \"#utility.yul\":5150:5165   */\n      mstore\n        /* \"#utility.yul\":5184:5188   */\n      0x24\n        /* \"#utility.yul\":5181:5182   */\n      0x00\n        /* \"#utility.yul\":5174:5189   */\n      revert\n        /* \"#utility.yul\":5200:5348   */\n    tag_208:\n        /* \"#utility.yul\":5288:5292   */\n      0xff\n        /* \"#utility.yul\":5267:5279   */\n      dup2\n      dup2\n      and\n        /* \"#utility.yul\":5281:5293   */\n      dup4\n      dup3\n      and\n        /* \"#utility.yul\":5263:5294   */\n      add\n      swap1\n        /* \"#utility.yul\":5306:5319   */\n      dup2\n      gt\n        /* \"#utility.yul\":5303:5342   */\n      iszero\n      tag_187\n      jumpi\n        /* \"#utility.yul\":5322:5340   */\n      tag_187\n      tag_451\n      jump\t// in\n        /* \"#utility.yul\":5353:5698   */\n    tag_217:\n      sub(shl(0xa0, 0x01), 0x01)\n        /* \"#utility.yul\":5573:5605   */\n      swap4\n      swap1\n      swap4\n      and\n        /* \"#utility.yul\":5555:5606   */\n      dup4\n      mstore\n        /* \"#utility.yul\":5637:5639   */\n      0x20\n        /* \"#utility.yul\":5622:5640   */\n      dup4\n      add\n        /* \"#utility.yul\":5615:5649   */\n      swap2\n      swap1\n      swap2\n      mstore\n        /* \"#utility.yul\":5680:5682   */\n      0x40\n        /* \"#utility.yul\":5665:5683   */\n      dup3\n      add\n        /* \"#utility.yul\":5658:5692   */\n      mstore\n        /* \"#utility.yul\":5543:5545   */\n      0x60\n        /* \"#utility.yul\":5528:5546   */\n      add\n      swap1\n        /* \"#utility.yul\":5353:5698   */\n      jump\t// out\n        /* \"#utility.yul\":5703:6861   */\n    tag_270:\n        /* \"#utility.yul\":6114:6127   */\n      dup6\n      mload\n        /* \"#utility.yul\":6196:6205   */\n      dup1\n      mload\n      sub(shl(0xa0, 0x01), 0x01)\n        /* \"#utility.yul\":6192:6210   */\n      swap1\n      dup2\n      and\n        /* \"#utility.yul\":6174:6211   */\n      dup4\n      mstore\n        /* \"#utility.yul\":6263:6267   */\n      0x20\n        /* \"#utility.yul\":6255:6268   */\n      swap2\n      dup3\n      add\n        /* \"#utility.yul\":6249:6269   */\n      mload\n        /* \"#utility.yul\":6227:6247   */\n      dup3\n      dup5\n      add\n        /* \"#utility.yul\":6220:6270   */\n      mstore\n        /* \"#utility.yul\":6314:6331   */\n      dup2\n      dup9\n      add\n        /* \"#utility.yul\":6308:6332   */\n      mload\n        /* \"#utility.yul\":6301:6305   */\n      0x40\n        /* \"#utility.yul\":6286:6306   */\n      dup1\n      dup6\n      add\n        /* \"#utility.yul\":6279:6333   */\n      swap2\n      swap1\n      swap2\n      mstore\n        /* \"#utility.yul\":6377:6394   */\n      dup9\n      add\n        /* \"#utility.yul\":6371:6395   */\n      mload\n        /* \"#utility.yul\":6364:6368   */\n      0x60\n        /* \"#utility.yul\":6349:6369   */\n      dup5\n      add\n        /* \"#utility.yul\":6342:6396   */\n      mstore\n        /* \"#utility.yul\":6437:6450   */\n      dup7\n      mload\n        /* \"#utility.yul\":6433:6455   */\n      dup2\n      and\n        /* \"#utility.yul\":6427:6430   */\n      0x80\n        /* \"#utility.yul\":6412:6431   */\n      dup5\n      add\n        /* \"#utility.yul\":6405:6456   */\n      mstore\n        /* \"#utility.yul\":6499:6516   */\n      swap1\n      dup7\n      add\n        /* \"#utility.yul\":6493:6517   */\n      mload\n        /* \"#utility.yul\":6154:6157   */\n      0xa0\n        /* \"#utility.yul\":6472:6491   */\n      dup4\n      add\n        /* \"#utility.yul\":6465:6518   */\n      mstore\n        /* \"#utility.yul\":6555:6570   */\n      dup5\n      and\n        /* \"#utility.yul\":6549:6552   */\n      0xc0\n        /* \"#utility.yul\":6534:6553   */\n      dup3\n      add\n        /* \"#utility.yul\":6527:6571   */\n      mstore\n        /* \"#utility.yul\":6092:6095   */\n      0x0100\n        /* \"#utility.yul\":6602:6605   */\n      0xe0\n        /* \"#utility.yul\":6587:6606   */\n      dup3\n      add\n        /* \"#utility.yul\":6580:6611   */\n      dup2\n      swap1\n      mstore\n        /* \"#utility.yul\":6627:6645   */\n      dup2\n      add\n        /* \"#utility.yul\":6620:6654   */\n      dup3\n      swap1\n      mstore\n        /* \"#utility.yul\":6063:6067   */\n      0x00\n        /* \"#utility.yul\":6673:6676   */\n      0x0120\n        /* \"#utility.yul\":6647:6653   */\n      dup4\n        /* \"#utility.yul\":6718:6724   */\n      dup6\n        /* \"#utility.yul\":6698:6716   */\n      dup3\n      dup6\n      add\n        /* \"#utility.yul\":6685:6733   */\n      calldatacopy\n        /* \"#utility.yul\":6782:6783   */\n      0x00\n        /* \"#utility.yul\":6753:6775   */\n      dup4\n      dup6\n      add\n        /* \"#utility.yul\":6749:6780   */\n      dup3\n      add\n        /* \"#utility.yul\":6742:6784   */\n      mstore\n        /* \"#utility.yul\":6845:6847   */\n      0x1f\n        /* \"#utility.yul\":6824:6839   */\n      swap1\n      swap4\n      add\n      not(0x1f)\n        /* \"#utility.yul\":6820:6849   */\n      and\n        /* \"#utility.yul\":6805:6850   */\n      swap1\n      swap2\n      add\n        /* \"#utility.yul\":6801:6855   */\n      swap1\n      swap2\n      add\n      swap6\n        /* \"#utility.yul\":5703:6861   */\n      swap5\n      pop\n      pop\n      pop\n      pop\n      pop\n      jump\t// out\n        /* \"#utility.yul\":6866:6991   */\n    tag_288:\n        /* \"#utility.yul\":6931:6940   */\n      dup1\n      dup3\n      add\n        /* \"#utility.yul\":6952:6962   */\n      dup1\n      dup3\n      gt\n        /* \"#utility.yul\":6949:6985   */\n      iszero\n      tag_187\n      jumpi\n        /* \"#utility.yul\":6965:6983   */\n      tag_187\n      tag_451\n      jump\t// in\n        /* \"#utility.yul\":6996:7412   */\n    tag_452:\n        /* \"#utility.yul\":7085:7086   */\n      0x01\n        /* \"#utility.yul\":7122:7127   */\n      dup2\n        /* \"#utility.yul\":7085:7086   */\n      dup2\n        /* \"#utility.yul\":7136:7406   */\n    tag_509:\n        /* \"#utility.yul\":7157:7164   */\n      dup1\n        /* \"#utility.yul\":7147:7155   */\n      dup6\n        /* \"#utility.yul\":7144:7165   */\n      gt\n        /* \"#utility.yul\":7136:7406   */\n      iszero\n      tag_511\n      jumpi\n        /* \"#utility.yul\":7216:7220   */\n      dup2\n        /* \"#utility.yul\":7212:7213   */\n      0x00\n        /* \"#utility.yul\":7208:7214   */\n      not\n        /* \"#utility.yul\":7204:7221   */\n      div\n        /* \"#utility.yul\":7198:7202   */\n      dup3\n        /* \"#utility.yul\":7195:7222   */\n      gt\n        /* \"#utility.yul\":7192:7245   */\n      iszero\n      tag_513\n      jumpi\n        /* \"#utility.yul\":7225:7243   */\n      tag_513\n      tag_451\n      jump\t// in\n    tag_513:\n        /* \"#utility.yul\":7275:7282   */\n      dup1\n        /* \"#utility.yul\":7265:7273   */\n      dup6\n        /* \"#utility.yul\":7261:7283   */\n      and\n        /* \"#utility.yul\":7258:7313   */\n      iszero\n      tag_514\n      jumpi\n        /* \"#utility.yul\":7295:7311   */\n      swap2\n      dup2\n      mul\n      swap2\n        /* \"#utility.yul\":7258:7313   */\n    tag_514:\n        /* \"#utility.yul\":7374:7396   */\n      swap4\n      dup5\n      shr\n      swap4\n        /* \"#utility.yul\":7334:7349   */\n      swap1\n      dup1\n      mul\n      swap1\n        /* \"#utility.yul\":7136:7406   */\n      jump(tag_509)\n    tag_511:\n        /* \"#utility.yul\":7140:7143   */\n      pop\n        /* \"#utility.yul\":6996:7412   */\n      swap3\n      pop\n      swap3\n      swap1\n      pop\n      jump\t// out\n        /* \"#utility.yul\":7417:8223   */\n    tag_453:\n        /* \"#utility.yul\":7466:7471   */\n      0x00\n        /* \"#utility.yul\":7496:7504   */\n      dup3\n        /* \"#utility.yul\":7486:7566   */\n      tag_516\n      jumpi\n      pop\n        /* \"#utility.yul\":7537:7538   */\n      0x01\n        /* \"#utility.yul\":7551:7556   */\n      jump(tag_187)\n        /* \"#utility.yul\":7486:7566   */\n    tag_516:\n        /* \"#utility.yul\":7585:7589   */\n      dup2\n        /* \"#utility.yul\":7575:7651   */\n      tag_517\n      jumpi\n      pop\n        /* \"#utility.yul\":7622:7623   */\n      0x00\n        /* \"#utility.yul\":7636:7641   */\n      jump(tag_187)\n        /* \"#utility.yul\":7575:7651   */\n    tag_517:\n        /* \"#utility.yul\":7667:7671   */\n      dup2\n        /* \"#utility.yul\":7685:7686   */\n      0x01\n        /* \"#utility.yul\":7680:7739   */\n      dup2\n      eq\n      tag_519\n      jumpi\n        /* \"#utility.yul\":7753:7754   */\n      0x02\n        /* \"#utility.yul\":7748:7878   */\n      dup2\n      eq\n      tag_520\n      jumpi\n        /* \"#utility.yul\":7660:7878   */\n      jump(tag_518)\n        /* \"#utility.yul\":7680:7739   */\n    tag_519:\n        /* \"#utility.yul\":7710:7711   */\n      0x01\n        /* \"#utility.yul\":7701:7711   */\n      swap2\n      pop\n        /* \"#utility.yul\":7724:7729   */\n      pop\n      jump(tag_187)\n        /* \"#utility.yul\":7748:7878   */\n    tag_520:\n        /* \"#utility.yul\":7785:7788   */\n      0xff\n        /* \"#utility.yul\":7775:7783   */\n      dup5\n        /* \"#utility.yul\":7772:7789   */\n      gt\n        /* \"#utility.yul\":7769:7812   */\n      iszero\n      tag_522\n      jumpi\n        /* \"#utility.yul\":7792:7810   */\n      tag_522\n      tag_451\n      jump\t// in\n    tag_522:\n      pop\n      pop\n        /* \"#utility.yul\":7848:7849   */\n      0x01\n        /* \"#utility.yul\":7834:7850   */\n      dup3\n      shl\n        /* \"#utility.yul\":7863:7868   */\n      jump(tag_187)\n        /* \"#utility.yul\":7660:7878   */\n    tag_518:\n      pop\n        /* \"#utility.yul\":7962:7964   */\n      0x20\n        /* \"#utility.yul\":7952:7960   */\n      dup4\n        /* \"#utility.yul\":7949:7965   */\n      lt\n        /* \"#utility.yul\":7943:7946   */\n      0x0133\n        /* \"#utility.yul\":7937:7941   */\n      dup4\n        /* \"#utility.yul\":7934:7947   */\n      lt\n        /* \"#utility.yul\":7930:7966   */\n      and\n        /* \"#utility.yul\":7924:7926   */\n      0x4e\n        /* \"#utility.yul\":7914:7922   */\n      dup5\n        /* \"#utility.yul\":7911:7927   */\n      lt\n        /* \"#utility.yul\":7906:7908   */\n      0x0b\n        /* \"#utility.yul\":7900:7904   */\n      dup5\n        /* \"#utility.yul\":7897:7909   */\n      lt\n        /* \"#utility.yul\":7893:7928   */\n      and\n        /* \"#utility.yul\":7890:7967   */\n      or\n        /* \"#utility.yul\":7887:8046   */\n      iszero\n      tag_523\n      jumpi\n      pop\n        /* \"#utility.yul\":7999:8018   */\n      dup2\n      dup2\n      exp\n        /* \"#utility.yul\":8031:8036   */\n      jump(tag_187)\n        /* \"#utility.yul\":7887:8046   */\n    tag_523:\n        /* \"#utility.yul\":8078:8112   */\n      tag_524\n        /* \"#utility.yul\":8103:8111   */\n      dup4\n        /* \"#utility.yul\":8097:8101   */\n      dup4\n        /* \"#utility.yul\":8078:8112   */\n      tag_452\n      jump\t// in\n    tag_524:\n        /* \"#utility.yul\":8148:8154   */\n      dup1\n        /* \"#utility.yul\":8144:8145   */\n      0x00\n        /* \"#utility.yul\":8140:8146   */\n      not\n        /* \"#utility.yul\":8136:8155   */\n      div\n        /* \"#utility.yul\":8127:8134   */\n      dup3\n        /* \"#utility.yul\":8124:8156   */\n      gt\n        /* \"#utility.yul\":8121:8179   */\n      iszero\n      tag_526\n      jumpi\n        /* \"#utility.yul\":8159:8177   */\n      tag_526\n      tag_451\n      jump\t// in\n    tag_526:\n        /* \"#utility.yul\":8197:8217   */\n      mul\n      swap4\n        /* \"#utility.yul\":7417:8223   */\n      swap3\n      pop\n      pop\n      pop\n      jump\t// out\n        /* \"#utility.yul\":8228:8368   */\n    tag_291:\n        /* \"#utility.yul\":8286:8291   */\n      0x00\n        /* \"#utility.yul\":8315:8362   */\n      tag_198\n        /* \"#utility.yul\":8356:8360   */\n      0xff\n        /* \"#utility.yul\":8346:8354   */\n      dup5\n        /* \"#utility.yul\":8342:8361   */\n      and\n        /* \"#utility.yul\":8336:8340   */\n      dup4\n        /* \"#utility.yul\":8315:8362   */\n      tag_453\n      jump\t// in\n        /* \"#utility.yul\":8986:9114   */\n    tag_334:\n        /* \"#utility.yul\":9053:9062   */\n      dup2\n      dup2\n      sub\n        /* \"#utility.yul\":9074:9085   */\n      dup2\n      dup2\n      gt\n        /* \"#utility.yul\":9071:9108   */\n      iszero\n      tag_187\n      jumpi\n        /* \"#utility.yul\":9088:9106   */\n      tag_187\n      tag_451\n      jump\t// in\n        /* \"#utility.yul\":9119:9246   */\n    tag_364:\n        /* \"#utility.yul\":9180:9190   */\n      0x4e487b71\n        /* \"#utility.yul\":9175:9178   */\n      0xe0\n        /* \"#utility.yul\":9171:9191   */\n      shl\n        /* \"#utility.yul\":9168:9169   */\n      0x00\n        /* \"#utility.yul\":9161:9192   */\n      mstore\n        /* \"#utility.yul\":9211:9215   */\n      0x12\n        /* \"#utility.yul\":9208:9209   */\n      0x04\n        /* \"#utility.yul\":9201:9216   */\n      mstore\n        /* \"#utility.yul\":9235:9239   */\n      0x24\n        /* \"#utility.yul\":9232:9233   */\n      0x00\n        /* \"#utility.yul\":9225:9240   */\n      revert\n        /* \"#utility.yul\":9631:9799   */\n    tag_395:\n        /* \"#utility.yul\":9704:9713   */\n      dup1\n      dup3\n      mul\n        /* \"#utility.yul\":9735:9744   */\n      dup2\n      iszero\n        /* \"#utility.yul\":9752:9767   */\n      dup3\n      dup3\n      div\n        /* \"#utility.yul\":9746:9768   */\n      dup5\n      eq\n        /* \"#utility.yul\":9732:9769   */\n      or\n        /* \"#utility.yul\":9722:9793   */\n      tag_187\n      jumpi\n        /* \"#utility.yul\":9773:9791   */\n      tag_187\n      tag_451\n      jump\t// in\n        /* \"#utility.yul\":9804:9924   */\n    tag_398:\n        /* \"#utility.yul\":9844:9845   */\n      0x00\n        /* \"#utility.yul\":9870:9871   */\n      dup3\n        /* \"#utility.yul\":9860:9895   */\n      tag_541\n      jumpi\n        /* \"#utility.yul\":9875:9893   */\n      tag_541\n      tag_364\n      jump\t// in\n    tag_541:\n      pop\n        /* \"#utility.yul\":9909:9918   */\n      div\n      swap1\n        /* \"#utility.yul\":9804:9924   */\n      jump\t// out\n        /* \"#utility.yul\":10208:10335   */\n    tag_415:\n        /* \"#utility.yul\":10269:10279   */\n      0x4e487b71\n        /* \"#utility.yul\":10264:10267   */\n      0xe0\n        /* \"#utility.yul\":10260:10280   */\n      shl\n        /* \"#utility.yul\":10257:10258   */\n      0x00\n        /* \"#utility.yul\":10250:10281   */\n      mstore\n        /* \"#utility.yul\":10300:10304   */\n      0x21\n        /* \"#utility.yul\":10297:10298   */\n      0x04\n        /* \"#utility.yul\":10290:10305   */\n      mstore\n        /* \"#utility.yul\":10324:10328   */\n      0x24\n        /* \"#utility.yul\":10321:10322   */\n      0x00\n        /* \"#utility.yul\":10314:10329   */\n      revert\n        /* \"#utility.yul\":10340:10497   */\n    tag_417:\n        /* \"#utility.yul\":10370:10371   */\n      0x00\n        /* \"#utility.yul\":10404:10408   */\n      0xff\n        /* \"#utility.yul\":10401:10402   */\n      dup4\n        /* \"#utility.yul\":10397:10409   */\n      and\n        /* \"#utility.yul\":10428:10431   */\n      dup1\n        /* \"#utility.yul\":10418:10455   */\n      tag_546\n      jumpi\n        /* \"#utility.yul\":10435:10453   */\n      tag_546\n      tag_364\n      jump\t// in\n    tag_546:\n        /* \"#utility.yul\":10487:10490   */\n      dup1\n        /* \"#utility.yul\":10480:10484   */\n      0xff\n        /* \"#utility.yul\":10477:10478   */\n      dup5\n        /* \"#utility.yul\":10473:10485   */\n      and\n        /* \"#utility.yul\":10469:10491   */\n      mod\n        /* \"#utility.yul\":10464:10491   */\n      swap2\n      pop\n      pop\n        /* \"#utility.yul\":10340:10497   */\n      swap3\n      swap2\n      pop\n      pop\n      jump\t// out\n        /* \"#utility.yul\":10502:10779   */\n    tag_423:\n        /* \"#utility.yul\":10569:10575   */\n      0x00\n        /* \"#utility.yul\":10622:10624   */\n      0x20\n        /* \"#utility.yul\":10610:10619   */\n      dup3\n        /* \"#utility.yul\":10601:10608   */\n      dup5\n        /* \"#utility.yul\":10597:10620   */\n      sub\n        /* \"#utility.yul\":10593:10625   */\n      slt\n        /* \"#utility.yul\":10590:10642   */\n      iszero\n      tag_548\n      jumpi\n        /* \"#utility.yul\":10638:10639   */\n      0x00\n        /* \"#utility.yul\":10635:10636   */\n      dup1\n        /* \"#utility.yul\":10628:10640   */\n      revert\n        /* \"#utility.yul\":10590:10642   */\n    tag_548:\n        /* \"#utility.yul\":10670:10679   */\n      dup2\n        /* \"#utility.yul\":10664:10680   */\n      mload\n        /* \"#utility.yul\":10723:10728   */\n      dup1\n        /* \"#utility.yul\":10716:10729   */\n      iszero\n        /* \"#utility.yul\":10709:10730   */\n      iszero\n        /* \"#utility.yul\":10702:10707   */\n      dup2\n        /* \"#utility.yul\":10699:10731   */\n      eq\n        /* \"#utility.yul\":10689:10749   */\n      tag_198\n      jumpi\n        /* \"#utility.yul\":10745:10746   */\n      0x00\n        /* \"#utility.yul\":10742:10743   */\n      dup1\n        /* \"#utility.yul\":10735:10747   */\n      revert\n        /* \"#utility.yul\":10784:11085   */\n    tag_433:\n        /* \"#utility.yul\":10913:10916   */\n      0x00\n        /* \"#utility.yul\":10951:10957   */\n      dup3\n        /* \"#utility.yul\":10945:10958   */\n      mload\n        /* \"#utility.yul\":10997:11003   */\n      dup1\n        /* \"#utility.yul\":10990:10994   */\n      0x20\n        /* \"#utility.yul\":10982:10988   */\n      dup6\n        /* \"#utility.yul\":10978:10995   */\n      add\n        /* \"#utility.yul\":10973:10976   */\n      dup5\n        /* \"#utility.yul\":10967:11004   */\n      mcopy\n        /* \"#utility.yul\":11059:11060   */\n      0x00\n        /* \"#utility.yul\":11023:11039   */\n      swap3\n      add\n        /* \"#utility.yul\":11048:11061   */\n      swap2\n      dup3\n      mstore\n      pop\n        /* \"#utility.yul\":11023:11039   */\n      swap2\n        /* \"#utility.yul\":10784:11085   */\n      swap1\n      pop\n      jump\t// out\n\n    auxdata: 0xa2646970667358221220038dc2369f78b9acab3bc6db2f107d0a72210c470a98325e65d60d6e71234c6564736f6c63430008190033\n}\n",
				"bytecode": {
					"linkReferences": {},
					"object": "60c06040526002600855348015610014575f80fd5b50604051611b4b380380611b4b8339810160408190526100339161023d565b83838360036100428382610345565b50600461004f8282610345565b5050505f80610063836100b460201b60201c565b9150915081610073576012610075565b805b60ff1660a05250506001600160a01b039081166080526001600555600680546001600160a01b0319169290911691909117905550504260075550610431565b60408051600481526024810182526020810180516001600160e01b031663313ce56760e01b17905290515f918291829182916001600160a01b038716916100fa91610404565b5f60405180830381855afa9150503d805f8114610132576040519150601f19603f3d011682016040523d82523d5f602084013e610137565b606091505b509150915081801561014b57506020815110155b1561017e575f81806020019051810190610165919061041a565b905060ff811161017c576001969095509350505050565b505b505f9485945092505050565b6001600160a01b038116811461019e575f80fd5b50565b634e487b7160e01b5f52604160045260245ffd5b5f82601f8301126101c4575f80fd5b81516001600160401b03808211156101de576101de6101a1565b604051601f8301601f19908116603f01168101908282118183101715610206576102066101a1565b8160405283815286602085880101111561021e575f80fd5b8360208701602083015e5f602085830101528094505050505092915050565b5f805f8060808587031215610250575f80fd5b845161025b8161018a565b60208601519094506001600160401b0380821115610277575f80fd5b610283888389016101b5565b94506040870151915080821115610298575f80fd5b506102a5878288016101b5565b92505060608501516102b68161018a565b939692955090935050565b600181811c908216806102d557607f821691505b6020821081036102f357634e487b7160e01b5f52602260045260245ffd5b50919050565b601f82111561034057805f5260205f20601f840160051c8101602085101561031e5750805b601f840160051c820191505b8181101561033d575f815560010161032a565b50505b505050565b81516001600160401b0381111561035e5761035e6101a1565b6103728161036c84546102c1565b846102f9565b602080601f8311600181146103a5575f841561038e5750858301515b5f19600386901b1c1916600185901b1785556103fc565b5f85815260208120601f198616915b828110156103d3578886015182559484019460019091019084016103b4565b50858210156103f057878501515f19600388901b60f8161c191681555b505060018460011b0185555b505050505050565b5f82518060208501845e5f920191825250919050565b5f6020828403121561042a575f80fd5b5051919050565b60805160a0516116dd61046e5f395f6105f901525f81816102c60152818161049301528181610797015281816109dd0152610bac01526116dd5ff3fe608060405234801561000f575f80fd5b50600436106101e7575f3560e01c806394bf804d11610109578063c6e6f5921161009e578063dd62ed3e1161006e578063dd62ed3e14610414578063ef8b30f7146103c8578063f266a2131461044c578063fe9e964014610455575f80fd5b8063c6e6f592146103c8578063c922609f146103db578063ce96cb77146103ee578063d905777e14610401575f80fd5b8063b3d7f6b9116100d9578063b3d7f6b91461038f578063b460af94146103a2578063ba087652146103b5578063c63d75b6146102ea575f80fd5b806394bf804d1461035857806395d89b411461036b578063a30f035214610373578063a9059cbb1461037c575f80fd5b8063313ce5671161017f5780634cdad5061161014f5780634cdad5061461021b5780636e553f651461030857806370a082311461031b57806381c4d0e614610343575f80fd5b8063313ce567146102aa57806338d52e0f146102c4578063402d267d146102ea5780634395eb8e146102fe575f80fd5b80630a28a477116101ba5780630a28a4771461025157806312261ee71461026457806318160ddd1461028f57806323b872dd14610297575f80fd5b806301e1d114146101eb57806306fdde031461020657806307a2d13a1461021b578063095ea7b31461022e575b5f80fd5b6101f361047c565b6040519081526020015b60405180910390f35b61020e610509565b6040516101fd91906111ca565b6101f36102293660046111ff565b610599565b61024161023c366004611231565b6105aa565b60405190151581526020016101fd565b6101f361025f3660046111ff565b6105c1565b600654610277906001600160a01b031681565b6040516001600160a01b0390911681526020016101fd565b6002546101f3565b6102416102a5366004611259565b6105cd565b6102b26105f2565b60405160ff90911681526020016101fd565b7f0000000000000000000000000000000000000000000000000000000000000000610277565b6101f36102f8366004611292565b505f1990565b6101f36201518081565b6101f36103163660046112ab565b61061d565b6101f3610329366004611292565b6001600160a01b03165f9081526020819052604090205490565b6103566103513660046111ff565b61064e565b005b6101f36103663660046112ab565b6106ab565b61020e6106c6565b6101f360075481565b61024161038a366004611231565b6106d5565b6101f361039d3660046111ff565b6106e2565b6101f36103b03660046112d5565b6106ee565b6101f36103c33660046112d5565b610716565b6101f36103d63660046111ff565b61076c565b6101f36103e936600461130e565b610777565b6101f36103fc366004611292565b61085b565b6101f361040f366004611292565b61087d565b6101f36104223660046113a5565b6001600160a01b039182165f90815260016020908152604080832093909416825291909152205490565b6101f360085481565b6101f37f470f4f1717679395b6a9e0700797bfeeaa970f1643e72f5684d687c0be10fe2781565b6040516370a0823160e01b81523060048201525f907f00000000000000000000000000000000000000000000000000000000000000006001600160a01b0316906370a0823190602401602060405180830381865afa1580156104e0573d5f803e3d5ffd5b505050506040513d601f19601f8201168201806040525081019061050491906113cd565b905090565b606060038054610518906113e4565b80601f0160208091040260200160405190810160405280929190818152602001828054610544906113e4565b801561058f5780601f106105665761010080835404028352916020019161058f565b820191905f5260205f20905b81548152906001019060200180831161057257829003601f168201915b5050505050905090565b5f6105a4825f61089a565b92915050565b5f336105b78185856108d2565b5060019392505050565b5f6105a48260016108e4565b5f336105da858285610913565b6105e585858561097b565b60019150505b9392505050565b5f610504817f0000000000000000000000000000000000000000000000000000000000000000611430565b5f5f1961062e565b60405180910390fd5b5f6106388561076c565b9050610646338587846109d8565b949350505050565b606481111561067057604051632997750360e11b815260040160405180910390fd5b60088190556040518181527f5842a31a46ea5ce5b950bf6d04c8b832a9deae72e0e54bcf928f0d72123f28659060200160405180910390a150565b5f5f195f6106b8856106e2565b9050610646338583886109d8565b606060048054610518906113e4565b5f336105b781858561097b565b5f6105a482600161089a565b5f6106f7610a6a565b6106ff610ac3565b61070a848484610b30565b90506105eb6001600555565b5f806107218361087d565b90508085111561074a57828582604051632e52afbb60e21b815260040161062593929190611449565b5f61075486610599565b9050610763338686848a610b79565b95945050505050565b5f6105a4825f6108e4565b5f610780610a6a565b6006546040805160a0810182526001600160a01b037f0000000000000000000000000000000000000000000000000000000000000000811660608301908152608083018c9052825260208083018b90528284018a9052835180850185523081529081018c9052925163187945bd60e11b81529316926330f28b7a9261080e929133908a908a9060040161146a565b5f604051808303815f87803b158015610825575f80fd5b505af1158015610837573d5f803e3d5ffd5b50505050610845878361061d565b90506108516001600555565b9695505050505050565b6001600160a01b0381165f908152602081905260408120546105a4905f61089a565b6001600160a01b0381165f908152602081905260408120546105a4565b5f6105eb6108a661047c565b6108b19060016114eb565b6108bc5f600a6115de565b6002546108c991906114eb565b85919085610c39565b6108df8383836001610c7c565b505050565b5f6105eb6108f382600a6115de565b60025461090091906114eb565b61090861047c565b6108c99060016114eb565b6001600160a01b038381165f908152600160209081526040808320938616835292905220545f198114610975578181101561096757828183604051637dc7a0d960e11b815260040161062593929190611449565b61097584848484035f610c7c565b50505050565b6001600160a01b0383166109a457604051634b637e8f60e11b81525f6004820152602401610625565b6001600160a01b0382166109cd5760405163ec442f0560e01b81525f6004820152602401610625565b6108df838383610d40565b610a047f0000000000000000000000000000000000000000000000000000000000000000853085610e53565b610a0e8382610eba565b826001600160a01b0316846001600160a01b03167fdcbc1c05240f31ff3ad067ef1ee35ce4997762752e3a095284754544f4c709d78484604051610a5c929190918252602082015260400190565b60405180910390a350505050565b600260055403610abc5760405162461bcd60e51b815260206004820152601f60248201527f5265656e7472616e637947756172643a207265656e7472616e742063616c6c006044820152606401610625565b6002600555565b5f60075442610ad291906115ec565b9050620151808110610b2d575f610ae882610ef2565b9050610af43082610eba565b426007556040518181527f3b6bc0ba304eaa17cdca1b053baac859e721c7a775cddefc825f6286641311fc9060200160405180910390a1505b50565b5f80610b3b8361085b565b905080851115610b6457828582604051633fa733bb60e21b815260040161062593929190611449565b5f610b6e866105c1565b905061076333868689855b826001600160a01b0316856001600160a01b031614610b9d57610b9d838683610913565b610ba78382610f26565b610bd27f00000000000000000000000000000000000000000000000000000000000000008584610f5a565b826001600160a01b0316846001600160a01b0316866001600160a01b03167ffbde797d201c681b91056529119e0b02407c7bb96a4a2c75c01fc9667232c8db8585604051610c2a929190918252602082015260400190565b60405180910390a45050505050565b5f80610c46868686610f8b565b9050610c518361104a565b8015610c6c57505f8480610c6757610c676115ff565b868809115b15610763576108516001826114eb565b6001600160a01b038416610ca55760405163e602df0560e01b81525f6004820152602401610625565b6001600160a01b038316610cce57604051634a1406b160e11b81525f6004820152602401610625565b6001600160a01b038085165f908152600160209081526040808320938716835292905220829055801561097557826001600160a01b0316846001600160a01b03167f8c5be1e5ebec7d5bd14f71427d1e84f3dd0314c0f7b2291e5b200ac8c7c3b92584604051610a5c91815260200190565b6001600160a01b038316610d6a578060025f828254610d5f91906114eb565b90915550610dc79050565b6001600160a01b0383165f9081526020819052604090205481811015610da95783818360405163391434e360e21b815260040161062593929190611449565b6001600160a01b0384165f9081526020819052604090209082900390555b6001600160a01b038216610de357600280548290039055610e01565b6001600160a01b0382165f9081526020819052604090208054820190555b816001600160a01b0316836001600160a01b03167fddf252ad1be2c89b69c2b068fc378daa952ba7f163c4a11628f55a4df523b3ef83604051610e4691815260200190565b60405180910390a3505050565b6040516001600160a01b0384811660248301528381166044830152606482018390526109759186918216906323b872dd906084015b604051602081830303815290604052915060e01b6020820180516001600160e01b038381831617835250505050611076565b6001600160a01b038216610ee35760405163ec442f0560e01b81525f6004820152602401610625565b610eee5f8383610d40565b5050565b5f80610efc61047c565b905063bbf81e008360085483610f129190611613565b610f1c9190611613565b6105eb919061162a565b6001600160a01b038216610f4f57604051634b637e8f60e11b81525f6004820152602401610625565b610eee825f83610d40565b6040516001600160a01b038381166024830152604482018390526108df91859182169063a9059cbb90606401610e88565b5f838302815f1985870982811083820303915050805f03610fbf57838281610fb557610fb56115ff565b04925050506105eb565b808411610fdf5760405163227bc15360e01b815260040160405180910390fd5b5f848688095f868103871696879004966002600389028118808a02820302808a02820302808a02820302808a02820302808a02820302808a02909103029181900381900460010186841190950394909402919094039290920491909117919091029150509392505050565b5f600282600381111561105f5761105f61163d565b6110699190611651565b60ff166001149050919050565b5f61108a6001600160a01b038416836110d7565b905080515f141580156110ae5750808060200190518101906110ac9190611672565b155b156108df57604051635274afe760e01b81526001600160a01b0384166004820152602401610625565b60606105eb83835f845f80856001600160a01b031684866040516110fb9190611691565b5f6040518083038185875af1925050503d805f8114611135576040519150601f19603f3d011682016040523d82523d5f602084013e61113a565b606091505b509150915061085186838360608261115a57611155826111a1565b6105eb565b815115801561117157506001600160a01b0384163b155b1561119a57604051639996b31560e01b81526001600160a01b0385166004820152602401610625565b50806105eb565b8051156111b15780518082602001fd5b604051630a12f52160e11b815260040160405180910390fd5b602081525f82518060208401528060208501604085015e5f604082850101526040601f19601f83011684010191505092915050565b5f6020828403121561120f575f80fd5b5035919050565b80356001600160a01b038116811461122c575f80fd5b919050565b5f8060408385031215611242575f80fd5b61124b83611216565b946020939093013593505050565b5f805f6060848603121561126b575f80fd5b61127484611216565b925061128260208501611216565b9150604084013590509250925092565b5f602082840312156112a2575f80fd5b6105eb82611216565b5f80604083850312156112bc575f80fd5b823591506112cc60208401611216565b90509250929050565b5f805f606084860312156112e7575f80fd5b833592506112f760208501611216565b915061130560408501611216565b90509250925092565b5f805f805f8060a08789031215611323575f80fd5b863595506020870135945060408701359350606087013567ffffffffffffffff8082111561134f575f80fd5b818901915089601f830112611362575f80fd5b813581811115611370575f80fd5b8a6020828501011115611381575f80fd5b60208301955080945050505061139960808801611216565b90509295509295509295565b5f80604083850312156113b6575f80fd5b6113bf83611216565b91506112cc60208401611216565b5f602082840312156113dd575f80fd5b5051919050565b600181811c908216806113f857607f821691505b60208210810361141657634e487b7160e01b5f52602260045260245ffd5b50919050565b634e487b7160e01b5f52601160045260245ffd5b60ff81811683821601908111156105a4576105a461141c565b6001600160a01b039390931683526020830191909152604082015260600190565b855180516001600160a01b039081168352602091820151828401528188015160408085019190915288015160608401528651811660808401529086015160a0830152841660c082015261010060e0820181905281018290525f6101208385828501375f838501820152601f909301601f191690910190910195945050505050565b808201808211156105a4576105a461141c565b600181815b8085111561153857815f190482111561151e5761151e61141c565b8085161561152b57918102915b93841c9390800290611503565b509250929050565b5f8261154e575060016105a4565b8161155a57505f6105a4565b8160018114611570576002811461157a57611596565b60019150506105a4565b60ff84111561158b5761158b61141c565b50506001821b6105a4565b5060208310610133831016604e8410600b84101617156115b9575081810a6105a4565b6115c383836114fe565b805f19048211156115d6576115d661141c565b029392505050565b5f6105eb60ff841683611540565b818103818111156105a4576105a461141c565b634e487b7160e01b5f52601260045260245ffd5b80820281158282048414176105a4576105a461141c565b5f82611638576116386115ff565b500490565b634e487b7160e01b5f52602160045260245ffd5b5f60ff831680611663576116636115ff565b8060ff84160691505092915050565b5f60208284031215611682575f80fd5b815180151581146105eb575f80fd5b5f82518060208501845e5f92019182525091905056fea2646970667358221220038dc2369f78b9acab3bc6db2f107d0a72210c470a98325e65d60d6e71234c6564736f6c63430008190033",
					"opcodes": "PUSH1 0xC0 PUSH1 0x40 MSTORE PUSH1 0x2 PUSH1 0x8 SSTORE CALLVALUE DUP1 ISZERO PUSH2 0x14 JUMPI PUSH0 DUP1 REVERT JUMPDEST POP PUSH1 0x40 MLOAD PUSH2 0x1B4B CODESIZE SUB DUP1 PUSH2 0x1B4B DUP4 CODECOPY DUP2 ADD PUSH1 0x40 DUP2 SWAP1 MSTORE PUSH2 0x33 SWAP2 PUSH2 0x23D JUMP JUMPDEST DUP4 DUP4 DUP4 PUSH1 0x3 PUSH2 0x42 DUP4 DUP3 PUSH2 0x345 JUMP JUMPDEST POP PUSH1 0x4 PUSH2 0x4F DUP3 DUP3 PUSH2 0x345 JUMP JUMPDEST POP POP POP PUSH0 DUP1 PUSH2 0x63 DUP4 PUSH2 0xB4 PUSH1 0x20 SHL PUSH1 0x20 SHR JUMP JUMPDEST SWAP2 POP SWAP2 POP DUP2 PUSH2 0x73 JUMPI PUSH1 0x12 PUSH2 0x75 JUMP JUMPDEST DUP1 JUMPDEST PUSH1 0xFF AND PUSH1 0xA0 MSTORE POP POP PUSH1 0x1 PUSH1 0x1 PUSH1 0xA0 SHL SUB SWAP1 DUP2 AND PUSH1 0x80 MSTORE PUSH1 0x1 PUSH1 0x5 SSTORE PUSH1 0x6 DUP1 SLOAD PUSH1 0x1 PUSH1 0x1 PUSH1 0xA0 SHL SUB NOT AND SWAP3 SWAP1 SWAP2 AND SWAP2 SWAP1 SWAP2 OR SWAP1 SSTORE POP POP TIMESTAMP PUSH1 0x7 SSTORE POP PUSH2 0x431 JUMP JUMPDEST PUSH1 0x40 DUP1 MLOAD PUSH1 0x4 DUP2 MSTORE PUSH1 0x24 DUP2 ADD DUP3 MSTORE PUSH1 0x20 DUP2 ADD DUP1 MLOAD PUSH1 0x1 PUSH1 0x1 PUSH1 0xE0 SHL SUB AND PUSH4 0x313CE567 PUSH1 0xE0 SHL OR SWAP1 MSTORE SWAP1 MLOAD PUSH0 SWAP2 DUP3 SWAP2 DUP3 SWAP2 DUP3 SWAP2 PUSH1 0x1 PUSH1 0x1 PUSH1 0xA0 SHL SUB DUP8 AND SWAP2 PUSH2 0xFA SWAP2 PUSH2 0x404 JUMP JUMPDEST PUSH0 PUSH1 0x40 MLOAD DUP1 DUP4 SUB DUP2 DUP6 GAS STATICCALL SWAP2 POP POP RETURNDATASIZE DUP1 PUSH0 DUP2 EQ PUSH2 0x132 JUMPI PUSH1 0x40 MLOAD SWAP2 POP PUSH1 0x1F NOT PUSH1 0x3F RETURNDATASIZE ADD AND DUP3 ADD PUSH1 0x40 MSTORE RETURNDATASIZE DUP3 MSTORE RETURNDATASIZE PUSH0 PUSH1 0x20 DUP5 ADD RETURNDATACOPY PUSH2 0x137 JUMP JUMPDEST PUSH1 0x60 SWAP2 POP JUMPDEST POP SWAP2 POP SWAP2 POP DUP2 DUP1 ISZERO PUSH2 0x14B JUMPI POP PUSH1 0x20 DUP2 MLOAD LT ISZERO JUMPDEST ISZERO PUSH2 0x17E JUMPI PUSH0 DUP2 DUP1 PUSH1 0x20 ADD SWAP1 MLOAD DUP2 ADD SWAP1 PUSH2 0x165 SWAP2 SWAP1 PUSH2 0x41A JUMP JUMPDEST SWAP1 POP PUSH1 0xFF DUP2 GT PUSH2 0x17C JUMPI PUSH1 0x1 SWAP7 SWAP1 SWAP6 POP SWAP4 POP POP POP POP JUMP JUMPDEST POP JUMPDEST POP PUSH0 SWAP5 DUP6 SWAP5 POP SWAP3 POP POP POP JUMP JUMPDEST PUSH1 0x1 PUSH1 0x1 PUSH1 0xA0 SHL SUB DUP2 AND DUP2 EQ PUSH2 0x19E JUMPI PUSH0 DUP1 REVERT JUMPDEST POP JUMP JUMPDEST PUSH4 0x4E487B71 PUSH1 0xE0 SHL PUSH0 MSTORE PUSH1 0x41 PUSH1 0x4 MSTORE PUSH1 0x24 PUSH0 REVERT JUMPDEST PUSH0 DUP3 PUSH1 0x1F DUP4 ADD SLT PUSH2 0x1C4 JUMPI PUSH0 DUP1 REVERT JUMPDEST DUP2 MLOAD PUSH1 0x1 PUSH1 0x1 PUSH1 0x40 SHL SUB DUP1 DUP3 GT ISZERO PUSH2 0x1DE JUMPI PUSH2 0x1DE PUSH2 0x1A1 JUMP JUMPDEST PUSH1 0x40 MLOAD PUSH1 0x1F DUP4 ADD PUSH1 0x1F NOT SWAP1 DUP2 AND PUSH1 0x3F ADD AND DUP2 ADD SWAP1 DUP3 DUP3 GT DUP2 DUP4 LT OR ISZERO PUSH2 0x206 JUMPI PUSH2 0x206 PUSH2 0x1A1 JUMP JUMPDEST DUP2 PUSH1 0x40 MSTORE DUP4 DUP2 MSTORE DUP7 PUSH1 0x20 DUP6 DUP9 ADD ADD GT ISZERO PUSH2 0x21E JUMPI PUSH0 DUP1 REVERT JUMPDEST DUP4 PUSH1 0x20 DUP8 ADD PUSH1 0x20 DUP4 ADD MCOPY PUSH0 PUSH1 0x20 DUP6 DUP4 ADD ADD MSTORE DUP1 SWAP5 POP POP POP POP POP SWAP3 SWAP2 POP POP JUMP JUMPDEST PUSH0 DUP1 PUSH0 DUP1 PUSH1 0x80 DUP6 DUP8 SUB SLT ISZERO PUSH2 0x250 JUMPI PUSH0 DUP1 REVERT JUMPDEST DUP5 MLOAD PUSH2 0x25B DUP2 PUSH2 0x18A JUMP JUMPDEST PUSH1 0x20 DUP7 ADD MLOAD SWAP1 SWAP5 POP PUSH1 0x1 PUSH1 0x1 PUSH1 0x40 SHL SUB DUP1 DUP3 GT ISZERO PUSH2 0x277 JUMPI PUSH0 DUP1 REVERT JUMPDEST PUSH2 0x283 DUP9 DUP4 DUP10 ADD PUSH2 0x1B5 JUMP JUMPDEST SWAP5 POP PUSH1 0x40 DUP8 ADD MLOAD SWAP2 POP DUP1 DUP3 GT ISZERO PUSH2 0x298 JUMPI PUSH0 DUP1 REVERT JUMPDEST POP PUSH2 0x2A5 DUP8 DUP3 DUP9 ADD PUSH2 0x1B5 JUMP JUMPDEST SWAP3 POP POP PUSH1 0x60 DUP6 ADD MLOAD PUSH2 0x2B6 DUP2 PUSH2 0x18A JUMP JUMPDEST SWAP4 SWAP7 SWAP3 SWAP6 POP SWAP1 SWAP4 POP POP JUMP JUMPDEST PUSH1 0x1 DUP2 DUP2 SHR SWAP1 DUP3 AND DUP1 PUSH2 0x2D5 JUMPI PUSH1 0x7F DUP3 AND SWAP2 POP JUMPDEST PUSH1 0x20 DUP3 LT DUP2 SUB PUSH2 0x2F3 JUMPI PUSH4 0x4E487B71 PUSH1 0xE0 SHL PUSH0 MSTORE PUSH1 0x22 PUSH1 0x4 MSTORE PUSH1 0x24 PUSH0 REVERT JUMPDEST POP SWAP2 SWAP1 POP JUMP JUMPDEST PUSH1 0x1F DUP3 GT ISZERO PUSH2 0x340 JUMPI DUP1 PUSH0 MSTORE PUSH1 0x20 PUSH0 KECCAK256 PUSH1 0x1F DUP5 ADD PUSH1 0x5 SHR DUP2 ADD PUSH1 0x20 DUP6 LT ISZERO PUSH2 0x31E JUMPI POP DUP1 JUMPDEST PUSH1 0x1F DUP5 ADD PUSH1 0x5 SHR DUP3 ADD SWAP2 POP JUMPDEST DUP2 DUP2 LT ISZERO PUSH2 0x33D JUMPI PUSH0 DUP2 SSTORE PUSH1 0x1 ADD PUSH2 0x32A JUMP JUMPDEST POP POP JUMPDEST POP POP POP JUMP JUMPDEST DUP2 MLOAD PUSH1 0x1 PUSH1 0x1 PUSH1 0x40 SHL SUB DUP2 GT ISZERO PUSH2 0x35E JUMPI PUSH2 0x35E PUSH2 0x1A1 JUMP JUMPDEST PUSH2 0x372 DUP2 PUSH2 0x36C DUP5 SLOAD PUSH2 0x2C1 JUMP JUMPDEST DUP5 PUSH2 0x2F9 JUMP JUMPDEST PUSH1 0x20 DUP1 PUSH1 0x1F DUP4 GT PUSH1 0x1 DUP2 EQ PUSH2 0x3A5 JUMPI PUSH0 DUP5 ISZERO PUSH2 0x38E JUMPI POP DUP6 DUP4 ADD MLOAD JUMPDEST PUSH0 NOT PUSH1 0x3 DUP7 SWAP1 SHL SHR NOT AND PUSH1 0x1 DUP6 SWAP1 SHL OR DUP6 SSTORE PUSH2 0x3FC JUMP JUMPDEST PUSH0 DUP6 DUP2 MSTORE PUSH1 0x20 DUP2 KECCAK256 PUSH1 0x1F NOT DUP7 AND SWAP2 JUMPDEST DUP3 DUP2 LT ISZERO PUSH2 0x3D3 JUMPI DUP9 DUP7 ADD MLOAD DUP3 SSTORE SWAP5 DUP5 ADD SWAP5 PUSH1 0x1 SWAP1 SWAP2 ADD SWAP1 DUP5 ADD PUSH2 0x3B4 JUMP JUMPDEST POP DUP6 DUP3 LT ISZERO PUSH2 0x3F0 JUMPI DUP8 DUP6 ADD MLOAD PUSH0 NOT PUSH1 0x3 DUP9 SWAP1 SHL PUSH1 0xF8 AND SHR NOT AND DUP2 SSTORE JUMPDEST POP POP PUSH1 0x1 DUP5 PUSH1 0x1 SHL ADD DUP6 SSTORE JUMPDEST POP POP POP POP POP POP JUMP JUMPDEST PUSH0 DUP3 MLOAD DUP1 PUSH1 0x20 DUP6 ADD DUP5 MCOPY PUSH0 SWAP3 ADD SWAP2 DUP3 MSTORE POP SWAP2 SWAP1 POP JUMP JUMPDEST PUSH0 PUSH1 0x20 DUP3 DUP5 SUB SLT ISZERO PUSH2 0x42A JUMPI PUSH0 DUP1 REVERT JUMPDEST POP MLOAD SWAP2 SWAP1 POP JUMP JUMPDEST PUSH1 0x80 MLOAD PUSH1 0xA0 MLOAD PUSH2 0x16DD PUSH2 0x46E PUSH0 CODECOPY PUSH0 PUSH2 0x5F9 ADD MSTORE PUSH0 DUP2 DUP2 PUSH2 0x2C6 ADD MSTORE DUP2 DUP2 PUSH2 0x493 ADD MSTORE DUP2 DUP2 PUSH2 0x797 ADD MSTORE DUP2 DUP2 PUSH2 0x9DD ADD MSTORE PUSH2 0xBAC ADD MSTORE PUSH2 0x16DD PUSH0 RETURN INVALID PUSH1 0x80 PUSH1 0x40 MSTORE CALLVALUE DUP1 ISZERO PUSH2 0xF JUMPI PUSH0 DUP1 REVERT JUMPDEST POP PUSH1 0x4 CALLDATASIZE LT PUSH2 0x1E7 JUMPI PUSH0 CALLDATALOAD PUSH1 0xE0 SHR DUP1 PUSH4 0x94BF804D GT PUSH2 0x109 JUMPI DUP1 PUSH4 0xC6E6F592 GT PUSH2 0x9E JUMPI DUP1 PUSH4 0xDD62ED3E GT PUSH2 0x6E JUMPI DUP1 PUSH4 0xDD62ED3E EQ PUSH2 0x414 JUMPI DUP1 PUSH4 0xEF8B30F7 EQ PUSH2 0x3C8 JUMPI DUP1 PUSH4 0xF266A213 EQ PUSH2 0x44C JUMPI DUP1 PUSH4 0xFE9E9640 EQ PUSH2 0x455 JUMPI PUSH0 DUP1 REVERT JUMPDEST DUP1 PUSH4 0xC6E6F592 EQ PUSH2 0x3C8 JUMPI DUP1 PUSH4 0xC922609F EQ PUSH2 0x3DB JUMPI DUP1 PUSH4 0xCE96CB77 EQ PUSH2 0x3EE JUMPI DUP1 PUSH4 0xD905777E EQ PUSH2 0x401 JUMPI PUSH0 DUP1 REVERT JUMPDEST DUP1 PUSH4 0xB3D7F6B9 GT PUSH2 0xD9 JUMPI DUP1 PUSH4 0xB3D7F6B9 EQ PUSH2 0x38F JUMPI DUP1 PUSH4 0xB460AF94 EQ PUSH2 0x3A2 JUMPI DUP1 PUSH4 0xBA087652 EQ PUSH2 0x3B5 JUMPI DUP1 PUSH4 0xC63D75B6 EQ PUSH2 0x2EA JUMPI PUSH0 DUP1 REVERT JUMPDEST DUP1 PUSH4 0x94BF804D EQ PUSH2 0x358 JUMPI DUP1 PUSH4 0x95D89B41 EQ PUSH2 0x36B JUMPI DUP1 PUSH4 0xA30F0352 EQ PUSH2 0x373 JUMPI DUP1 PUSH4 0xA9059CBB EQ PUSH2 0x37C JUMPI PUSH0 DUP1 REVERT JUMPDEST DUP1 PUSH4 0x313CE567 GT PUSH2 0x17F JUMPI DUP1 PUSH4 0x4CDAD506 GT PUSH2 0x14F JUMPI DUP1 PUSH4 0x4CDAD506 EQ PUSH2 0x21B JUMPI DUP1 PUSH4 0x6E553F65 EQ PUSH2 0x308 JUMPI DUP1 PUSH4 0x70A08231 EQ PUSH2 0x31B JUMPI DUP1 PUSH4 0x81C4D0E6 EQ PUSH2 0x343 JUMPI PUSH0 DUP1 REVERT JUMPDEST DUP1 PUSH4 0x313CE567 EQ PUSH2 0x2AA JUMPI DUP1 PUSH4 0x38D52E0F EQ PUSH2 0x2C4 JUMPI DUP1 PUSH4 0x402D267D EQ PUSH2 0x2EA JUMPI DUP1 PUSH4 0x4395EB8E EQ PUSH2 0x2FE JUMPI PUSH0 DUP1 REVERT JUMPDEST DUP1 PUSH4 0xA28A477 GT PUSH2 0x1BA JUMPI DUP1 PUSH4 0xA28A477 EQ PUSH2 0x251 JUMPI DUP1 PUSH4 0x12261EE7 EQ PUSH2 0x264 JUMPI DUP1 PUSH4 0x18160DDD EQ PUSH2 0x28F JUMPI DUP1 PUSH4 0x23B872DD EQ PUSH2 0x297 JUMPI PUSH0 DUP1 REVERT JUMPDEST DUP1 PUSH4 0x1E1D114 EQ PUSH2 0x1EB JUMPI DUP1 PUSH4 0x6FDDE03 EQ PUSH2 0x206 JUMPI DUP1 PUSH4 0x7A2D13A EQ PUSH2 0x21B JUMPI DUP1 PUSH4 0x95EA7B3 EQ PUSH2 0x22E JUMPI JUMPDEST PUSH0 DUP1 REVERT JUMPDEST PUSH2 0x1F3 PUSH2 0x47C JUMP JUMPDEST PUSH1 0x40 MLOAD SWAP1 DUP2 MSTORE PUSH1 0x20 ADD JUMPDEST PUSH1 0x40 MLOAD DUP1 SWAP2 SUB SWAP1 RETURN JUMPDEST PUSH2 0x20E PUSH2 0x509 JUMP JUMPDEST PUSH1 0x40 MLOAD PUSH2 0x1FD SWAP2 SWAP1 PUSH2 0x11CA JUMP JUMPDEST PUSH2 0x1F3 PUSH2 0x229 CALLDATASIZE PUSH1 0x4 PUSH2 0x11FF JUMP JUMPDEST PUSH2 0x599 JUMP JUMPDEST PUSH2 0x241 PUSH2 0x23C CALLDATASIZE PUSH1 0x4 PUSH2 0x1231 JUMP JUMPDEST PUSH2 0x5AA JUMP JUMPDEST PUSH1 0x40 MLOAD SWAP1 ISZERO ISZERO DUP2 MSTORE PUSH1 0x20 ADD PUSH2 0x1FD JUMP JUMPDEST PUSH2 0x1F3 PUSH2 0x25F CALLDATASIZE PUSH1 0x4 PUSH2 0x11FF JUMP JUMPDEST PUSH2 0x5C1 JUMP JUMPDEST PUSH1 0x6 SLOAD PUSH2 0x277 SWAP1 PUSH1 0x1 PUSH1 0x1 PUSH1 0xA0 SHL SUB AND DUP2 JUMP JUMPDEST PUSH1 0x40 MLOAD PUSH1 0x1 PUSH1 0x1 PUSH1 0xA0 SHL SUB SWAP1 SWAP2 AND DUP2 MSTORE PUSH1 0x20 ADD PUSH2 0x1FD JUMP JUMPDEST PUSH1 0x2 SLOAD PUSH2 0x1F3 JUMP JUMPDEST PUSH2 0x241 PUSH2 0x2A5 CALLDATASIZE PUSH1 0x4 PUSH2 0x1259 JUMP JUMPDEST PUSH2 0x5CD JUMP JUMPDEST PUSH2 0x2B2 PUSH2 0x5F2 JUMP JUMPDEST PUSH1 0x40 MLOAD PUSH1 0xFF SWAP1 SWAP2 AND DUP2 MSTORE PUSH1 0x20 ADD PUSH2 0x1FD JUMP JUMPDEST PUSH32 0x0 PUSH2 0x277 JUMP JUMPDEST PUSH2 0x1F3 PUSH2 0x2F8 CALLDATASIZE PUSH1 0x4 PUSH2 0x1292 JUMP JUMPDEST POP PUSH0 NOT SWAP1 JUMP JUMPDEST PUSH2 0x1F3 PUSH3 0x15180 DUP2 JUMP JUMPDEST PUSH2 0x1F3 PUSH2 0x316 CALLDATASIZE PUSH1 0x4 PUSH2 0x12AB JUMP JUMPDEST PUSH2 0x61D JUMP JUMPDEST PUSH2 0x1F3 PUSH2 0x329 CALLDATASIZE PUSH1 0x4 PUSH2 0x1292 JUMP JUMPDEST PUSH1 0x1 PUSH1 0x1 PUSH1 0xA0 SHL SUB AND PUSH0 SWAP1 DUP2 MSTORE PUSH1 0x20 DUP2 SWAP1 MSTORE PUSH1 0x40 SWAP1 KECCAK256 SLOAD SWAP1 JUMP JUMPDEST PUSH2 0x356 PUSH2 0x351 CALLDATASIZE PUSH1 0x4 PUSH2 0x11FF JUMP JUMPDEST PUSH2 0x64E JUMP JUMPDEST STOP JUMPDEST PUSH2 0x1F3 PUSH2 0x366 CALLDATASIZE PUSH1 0x4 PUSH2 0x12AB JUMP JUMPDEST PUSH2 0x6AB JUMP JUMPDEST PUSH2 0x20E PUSH2 0x6C6 JUMP JUMPDEST PUSH2 0x1F3 PUSH1 0x7 SLOAD DUP2 JUMP JUMPDEST PUSH2 0x241 PUSH2 0x38A CALLDATASIZE PUSH1 0x4 PUSH2 0x1231 JUMP JUMPDEST PUSH2 0x6D5 JUMP JUMPDEST PUSH2 0x1F3 PUSH2 0x39D CALLDATASIZE PUSH1 0x4 PUSH2 0x11FF JUMP JUMPDEST PUSH2 0x6E2 JUMP JUMPDEST PUSH2 0x1F3 PUSH2 0x3B0 CALLDATASIZE PUSH1 0x4 PUSH2 0x12D5 JUMP JUMPDEST PUSH2 0x6EE JUMP JUMPDEST PUSH2 0x1F3 PUSH2 0x3C3 CALLDATASIZE PUSH1 0x4 PUSH2 0x12D5 JUMP JUMPDEST PUSH2 0x716 JUMP JUMPDEST PUSH2 0x1F3 PUSH2 0x3D6 CALLDATASIZE PUSH1 0x4 PUSH2 0x11FF JUMP JUMPDEST PUSH2 0x76C JUMP JUMPDEST PUSH2 0x1F3 PUSH2 0x3E9 CALLDATASIZE PUSH1 0x4 PUSH2 0x130E JUMP JUMPDEST PUSH2 0x777 JUMP JUMPDEST PUSH2 0x1F3 PUSH2 0x3FC CALLDATASIZE PUSH1 0x4 PUSH2 0x1292 JUMP JUMPDEST PUSH2 0x85B JUMP JUMPDEST PUSH2 0x1F3 PUSH2 0x40F CALLDATASIZE PUSH1 0x4 PUSH2 0x1292 JUMP JUMPDEST PUSH2 0x87D JUMP JUMPDEST PUSH2 0x1F3 PUSH2 0x422 CALLDATASIZE PUSH1 0x4 PUSH2 0x13A5 JUMP JUMPDEST PUSH1 0x1 PUSH1 0x1 PUSH1 0xA0 SHL SUB SWAP2 DUP3 AND PUSH0 SWAP1 DUP2 MSTORE PUSH1 0x1 PUSH1 0x20 SWAP1 DUP2 MSTORE PUSH1 0x40 DUP1 DUP4 KECCAK256 SWAP4 SWAP1 SWAP5 AND DUP3 MSTORE SWAP2 SWAP1 SWAP2 MSTORE KECCAK256 SLOAD SWAP1 JUMP JUMPDEST PUSH2 0x1F3 PUSH1 0x8 SLOAD DUP2 JUMP JUMPDEST PUSH2 0x1F3 PUSH32 0x470F4F1717679395B6A9E0700797BFEEAA970F1643E72F5684D687C0BE10FE27 DUP2 JUMP JUMPDEST PUSH1 0x40 MLOAD PUSH4 0x70A08231 PUSH1 0xE0 SHL DUP2 MSTORE ADDRESS PUSH1 0x4 DUP3 ADD MSTORE PUSH0 SWAP1 PUSH32 0x0 PUSH1 0x1 PUSH1 0x1 PUSH1 0xA0 SHL SUB AND SWAP1 PUSH4 0x70A08231 SWAP1 PUSH1 0x24 ADD PUSH1 0x20 PUSH1 0x40 MLOAD DUP1 DUP4 SUB DUP2 DUP7 GAS STATICCALL ISZERO DUP1 ISZERO PUSH2 0x4E0 JUMPI RETURNDATASIZE PUSH0 DUP1 RETURNDATACOPY RETURNDATASIZE PUSH0 REVERT JUMPDEST POP POP POP POP PUSH1 0x40 MLOAD RETURNDATASIZE PUSH1 0x1F NOT PUSH1 0x1F DUP3 ADD AND DUP3 ADD DUP1 PUSH1 0x40 MSTORE POP DUP2 ADD SWAP1 PUSH2 0x504 SWAP2 SWAP1 PUSH2 0x13CD JUMP JUMPDEST SWAP1 POP SWAP1 JUMP JUMPDEST PUSH1 0x60 PUSH1 0x3 DUP1 SLOAD PUSH2 0x518 SWAP1 PUSH2 0x13E4 JUMP JUMPDEST DUP1 PUSH1 0x1F ADD PUSH1 0x20 DUP1 SWAP2 DIV MUL PUSH1 0x20 ADD PUSH1 0x40 MLOAD SWAP1 DUP2 ADD PUSH1 0x40 MSTORE DUP1 SWAP3 SWAP2 SWAP1 DUP2 DUP2 MSTORE PUSH1 0x20 ADD DUP3 DUP1 SLOAD PUSH2 0x544 SWAP1 PUSH2 0x13E4 JUMP JUMPDEST DUP1 ISZERO PUSH2 0x58F JUMPI DUP1 PUSH1 0x1F LT PUSH2 0x566 JUMPI PUSH2 0x100 DUP1 DUP4 SLOAD DIV MUL DUP4 MSTORE SWAP2 PUSH1 0x20 ADD SWAP2 PUSH2 0x58F JUMP JUMPDEST DUP3 ADD SWAP2 SWAP1 PUSH0 MSTORE PUSH1 0x20 PUSH0 KECCAK256 SWAP1 JUMPDEST DUP2 SLOAD DUP2 MSTORE SWAP1 PUSH1 0x1 ADD SWAP1 PUSH1 0x20 ADD DUP1 DUP4 GT PUSH2 0x572 JUMPI DUP3 SWAP1 SUB PUSH1 0x1F AND DUP3 ADD SWAP2 JUMPDEST POP POP POP POP POP SWAP1 POP SWAP1 JUMP JUMPDEST PUSH0 PUSH2 0x5A4 DUP3 PUSH0 PUSH2 0x89A JUMP JUMPDEST SWAP3 SWAP2 POP POP JUMP JUMPDEST PUSH0 CALLER PUSH2 0x5B7 DUP2 DUP6 DUP6 PUSH2 0x8D2 JUMP JUMPDEST POP PUSH1 0x1 SWAP4 SWAP3 POP POP POP JUMP JUMPDEST PUSH0 PUSH2 0x5A4 DUP3 PUSH1 0x1 PUSH2 0x8E4 JUMP JUMPDEST PUSH0 CALLER PUSH2 0x5DA DUP6 DUP3 DUP6 PUSH2 0x913 JUMP JUMPDEST PUSH2 0x5E5 DUP6 DUP6 DUP6 PUSH2 0x97B JUMP JUMPDEST PUSH1 0x1 SWAP2 POP POP JUMPDEST SWAP4 SWAP3 POP POP POP JUMP JUMPDEST PUSH0 PUSH2 0x504 DUP2 PUSH32 0x0 PUSH2 0x1430 JUMP JUMPDEST PUSH0 PUSH0 NOT PUSH2 0x62E JUMP JUMPDEST PUSH1 0x40 MLOAD DUP1 SWAP2 SUB SWAP1 REVERT JUMPDEST PUSH0 PUSH2 0x638 DUP6 PUSH2 0x76C JUMP JUMPDEST SWAP1 POP PUSH2 0x646 CALLER DUP6 DUP8 DUP5 PUSH2 0x9D8 JUMP JUMPDEST SWAP5 SWAP4 POP POP POP POP JUMP JUMPDEST PUSH1 0x64 DUP2 GT ISZERO PUSH2 0x670 JUMPI PUSH1 0x40 MLOAD PUSH4 0x29977503 PUSH1 0xE1 SHL DUP2 MSTORE PUSH1 0x4 ADD PUSH1 0x40 MLOAD DUP1 SWAP2 SUB SWAP1 REVERT JUMPDEST PUSH1 0x8 DUP2 SWAP1 SSTORE PUSH1 0x40 MLOAD DUP2 DUP2 MSTORE PUSH32 0x5842A31A46EA5CE5B950BF6D04C8B832A9DEAE72E0E54BCF928F0D72123F2865 SWAP1 PUSH1 0x20 ADD PUSH1 0x40 MLOAD DUP1 SWAP2 SUB SWAP1 LOG1 POP JUMP JUMPDEST PUSH0 PUSH0 NOT PUSH0 PUSH2 0x6B8 DUP6 PUSH2 0x6E2 JUMP JUMPDEST SWAP1 POP PUSH2 0x646 CALLER DUP6 DUP4 DUP9 PUSH2 0x9D8 JUMP JUMPDEST PUSH1 0x60 PUSH1 0x4 DUP1 SLOAD PUSH2 0x518 SWAP1 PUSH2 0x13E4 JUMP JUMPDEST PUSH0 CALLER PUSH2 0x5B7 DUP2 DUP6 DUP6 PUSH2 0x97B JUMP JUMPDEST PUSH0 PUSH2 0x5A4 DUP3 PUSH1 0x1 PUSH2 0x89A JUMP JUMPDEST PUSH0 PUSH2 0x6F7 PUSH2 0xA6A JUMP JUMPDEST PUSH2 0x6FF PUSH2 0xAC3 JUMP JUMPDEST PUSH2 0x70A DUP5 DUP5 DUP5 PUSH2 0xB30 JUMP JUMPDEST SWAP1 POP PUSH2 0x5EB PUSH1 0x1 PUSH1 0x5 SSTORE JUMP JUMPDEST PUSH0 DUP1 PUSH2 0x721 DUP4 PUSH2 0x87D JUMP JUMPDEST SWAP1 POP DUP1 DUP6 GT ISZERO PUSH2 0x74A JUMPI DUP3 DUP6 DUP3 PUSH1 0x40 MLOAD PUSH4 0x2E52AFBB PUSH1 0xE2 SHL DUP2 MSTORE PUSH1 0x4 ADD PUSH2 0x625 SWAP4 SWAP3 SWAP2 SWAP1 PUSH2 0x1449 JUMP JUMPDEST PUSH0 PUSH2 0x754 DUP7 PUSH2 0x599 JUMP JUMPDEST SWAP1 POP PUSH2 0x763 CALLER DUP7 DUP7 DUP5 DUP11 PUSH2 0xB79 JUMP JUMPDEST SWAP6 SWAP5 POP POP POP POP POP JUMP JUMPDEST PUSH0 PUSH2 0x5A4 DUP3 PUSH0 PUSH2 0x8E4 JUMP JUMPDEST PUSH0 PUSH2 0x780 PUSH2 0xA6A JUMP JUMPDEST PUSH1 0x6 SLOAD PUSH1 0x40 DUP1 MLOAD PUSH1 0xA0 DUP2 ADD DUP3 MSTORE PUSH1 0x1 PUSH1 0x1 PUSH1 0xA0 SHL SUB PUSH32 0x0 DUP2 AND PUSH1 0x60 DUP4 ADD SWAP1 DUP2 MSTORE PUSH1 0x80 DUP4 ADD DUP13 SWAP1 MSTORE DUP3 MSTORE PUSH1 0x20 DUP1 DUP4 ADD DUP12 SWAP1 MSTORE DUP3 DUP5 ADD DUP11 SWAP1 MSTORE DUP4 MLOAD DUP1 DUP6 ADD DUP6 MSTORE ADDRESS DUP2 MSTORE SWAP1 DUP2 ADD DUP13 SWAP1 MSTORE SWAP3 MLOAD PUSH4 0x187945BD PUSH1 0xE1 SHL DUP2 MSTORE SWAP4 AND SWAP3 PUSH4 0x30F28B7A SWAP3 PUSH2 0x80E SWAP3 SWAP2 CALLER SWAP1 DUP11 SWAP1 DUP11 SWAP1 PUSH1 0x4 ADD PUSH2 0x146A JUMP JUMPDEST PUSH0 PUSH1 0x40 MLOAD DUP1 DUP4 SUB DUP2 PUSH0 DUP8 DUP1 EXTCODESIZE ISZERO DUP1 ISZERO PUSH2 0x825 JUMPI PUSH0 DUP1 REVERT JUMPDEST POP GAS CALL ISZERO DUP1 ISZERO PUSH2 0x837 JUMPI RETURNDATASIZE PUSH0 DUP1 RETURNDATACOPY RETURNDATASIZE PUSH0 REVERT JUMPDEST POP POP POP POP PUSH2 0x845 DUP8 DUP4 PUSH2 0x61D JUMP JUMPDEST SWAP1 POP PUSH2 0x851 PUSH1 0x1 PUSH1 0x5 SSTORE JUMP JUMPDEST SWAP7 SWAP6 POP POP POP POP POP POP JUMP JUMPDEST PUSH1 0x1 PUSH1 0x1 PUSH1 0xA0 SHL SUB DUP2 AND PUSH0 SWAP1 DUP2 MSTORE PUSH1 0x20 DUP2 SWAP1 MSTORE PUSH1 0x40 DUP2 KECCAK256 SLOAD PUSH2 0x5A4 SWAP1 PUSH0 PUSH2 0x89A JUMP JUMPDEST PUSH1 0x1 PUSH1 0x1 PUSH1 0xA0 SHL SUB DUP2 AND PUSH0 SWAP1 DUP2 MSTORE PUSH1 0x20 DUP2 SWAP1 MSTORE PUSH1 0x40 DUP2 KECCAK256 SLOAD PUSH2 0x5A4 JUMP JUMPDEST PUSH0 PUSH2 0x5EB PUSH2 0x8A6 PUSH2 0x47C JUMP JUMPDEST PUSH2 0x8B1 SWAP1 PUSH1 0x1 PUSH2 0x14EB JUMP JUMPDEST PUSH2 0x8BC PUSH0 PUSH1 0xA PUSH2 0x15DE JUMP JUMPDEST PUSH1 0x2 SLOAD PUSH2 0x8C9 SWAP2 SWAP1 PUSH2 0x14EB JUMP JUMPDEST DUP6 SWAP2 SWAP1 DUP6 PUSH2 0xC39 JUMP JUMPDEST PUSH2 0x8DF DUP4 DUP4 DUP4 PUSH1 0x1 PUSH2 0xC7C JUMP JUMPDEST POP POP POP JUMP JUMPDEST PUSH0 PUSH2 0x5EB PUSH2 0x8F3 DUP3 PUSH1 0xA PUSH2 0x15DE JUMP JUMPDEST PUSH1 0x2 SLOAD PUSH2 0x900 SWAP2 SWAP1 PUSH2 0x14EB JUMP JUMPDEST PUSH2 0x908 PUSH2 0x47C JUMP JUMPDEST PUSH2 0x8C9 SWAP1 PUSH1 0x1 PUSH2 0x14EB JUMP JUMPDEST PUSH1 0x1 PUSH1 0x1 PUSH1 0xA0 SHL SUB DUP4 DUP2 AND PUSH0 SWAP1 DUP2 MSTORE PUSH1 0x1 PUSH1 0x20 SWAP1 DUP2 MSTORE PUSH1 0x40 DUP1 DUP4 KECCAK256 SWAP4 DUP7 AND DUP4 MSTORE SWAP3 SWAP1 MSTORE KECCAK256 SLOAD PUSH0 NOT DUP2 EQ PUSH2 0x975 JUMPI DUP2 DUP2 LT ISZERO PUSH2 0x967 JUMPI DUP3 DUP2 DUP4 PUSH1 0x40 MLOAD PUSH4 0x7DC7A0D9 PUSH1 0xE1 SHL DUP2 MSTORE PUSH1 0x4 ADD PUSH2 0x625 SWAP4 SWAP3 SWAP2 SWAP1 PUSH2 0x1449 JUMP JUMPDEST PUSH2 0x975 DUP5 DUP5 DUP5 DUP5 SUB PUSH0 PUSH2 0xC7C JUMP JUMPDEST POP POP POP POP JUMP JUMPDEST PUSH1 0x1 PUSH1 0x1 PUSH1 0xA0 SHL SUB DUP4 AND PUSH2 0x9A4 JUMPI PUSH1 0x40 MLOAD PUSH4 0x4B637E8F PUSH1 0xE1 SHL DUP2 MSTORE PUSH0 PUSH1 0x4 DUP3 ADD MSTORE PUSH1 0x24 ADD PUSH2 0x625 JUMP JUMPDEST PUSH1 0x1 PUSH1 0x1 PUSH1 0xA0 SHL SUB DUP3 AND PUSH2 0x9CD JUMPI PUSH1 0x40 MLOAD PUSH4 0xEC442F05 PUSH1 0xE0 SHL DUP2 MSTORE PUSH0 PUSH1 0x4 DUP3 ADD MSTORE PUSH1 0x24 ADD PUSH2 0x625 JUMP JUMPDEST PUSH2 0x8DF DUP4 DUP4 DUP4 PUSH2 0xD40 JUMP JUMPDEST PUSH2 0xA04 PUSH32 0x0 DUP6 ADDRESS DUP6 PUSH2 0xE53 JUMP JUMPDEST PUSH2 0xA0E DUP4 DUP3 PUSH2 0xEBA JUMP JUMPDEST DUP3 PUSH1 0x1 PUSH1 0x1 PUSH1 0xA0 SHL SUB AND DUP5 PUSH1 0x1 PUSH1 0x1 PUSH1 0xA0 SHL SUB AND PUSH32 0xDCBC1C05240F31FF3AD067EF1EE35CE4997762752E3A095284754544F4C709D7 DUP5 DUP5 PUSH1 0x40 MLOAD PUSH2 0xA5C SWAP3 SWAP2 SWAP1 SWAP2 DUP3 MSTORE PUSH1 0x20 DUP3 ADD MSTORE PUSH1 0x40 ADD SWAP1 JUMP JUMPDEST PUSH1 0x40 MLOAD DUP1 SWAP2 SUB SWAP1 LOG3 POP POP POP POP JUMP JUMPDEST PUSH1 0x2 PUSH1 0x5 SLOAD SUB PUSH2 0xABC JUMPI PUSH1 0x40 MLOAD PUSH3 0x461BCD PUSH1 0xE5 SHL DUP2 MSTORE PUSH1 0x20 PUSH1 0x4 DUP3 ADD MSTORE PUSH1 0x1F PUSH1 0x24 DUP3 ADD MSTORE PUSH32 0x5265656E7472616E637947756172643A207265656E7472616E742063616C6C00 PUSH1 0x44 DUP3 ADD MSTORE PUSH1 0x64 ADD PUSH2 0x625 JUMP JUMPDEST PUSH1 0x2 PUSH1 0x5 SSTORE JUMP JUMPDEST PUSH0 PUSH1 0x7 SLOAD TIMESTAMP PUSH2 0xAD2 SWAP2 SWAP1 PUSH2 0x15EC JUMP JUMPDEST SWAP1 POP PUSH3 0x15180 DUP2 LT PUSH2 0xB2D JUMPI PUSH0 PUSH2 0xAE8 DUP3 PUSH2 0xEF2 JUMP JUMPDEST SWAP1 POP PUSH2 0xAF4 ADDRESS DUP3 PUSH2 0xEBA JUMP JUMPDEST TIMESTAMP PUSH1 0x7 SSTORE PUSH1 0x40 MLOAD DUP2 DUP2 MSTORE PUSH32 0x3B6BC0BA304EAA17CDCA1B053BAAC859E721C7A775CDDEFC825F6286641311FC SWAP1 PUSH1 0x20 ADD PUSH1 0x40 MLOAD DUP1 SWAP2 SUB SWAP1 LOG1 POP JUMPDEST POP JUMP JUMPDEST PUSH0 DUP1 PUSH2 0xB3B DUP4 PUSH2 0x85B JUMP JUMPDEST SWAP1 POP DUP1 DUP6 GT ISZERO PUSH2 0xB64 JUMPI DUP3 DUP6 DUP3 PUSH1 0x40 MLOAD PUSH4 0x3FA733BB PUSH1 0xE2 SHL DUP2 MSTORE PUSH1 0x4 ADD PUSH2 0x625 SWAP4 SWAP3 SWAP2 SWAP1 PUSH2 0x1449 JUMP JUMPDEST PUSH0 PUSH2 0xB6E DUP7 PUSH2 0x5C1 JUMP JUMPDEST SWAP1 POP PUSH2 0x763 CALLER DUP7 DUP7 DUP10 DUP6 JUMPDEST DUP3 PUSH1 0x1 PUSH1 0x1 PUSH1 0xA0 SHL SUB AND DUP6 PUSH1 0x1 PUSH1 0x1 PUSH1 0xA0 SHL SUB AND EQ PUSH2 0xB9D JUMPI PUSH2 0xB9D DUP4 DUP7 DUP4 PUSH2 0x913 JUMP JUMPDEST PUSH2 0xBA7 DUP4 DUP3 PUSH2 0xF26 JUMP JUMPDEST PUSH2 0xBD2 PUSH32 0x0 DUP6 DUP5 PUSH2 0xF5A JUMP JUMPDEST DUP3 PUSH1 0x1 PUSH1 0x1 PUSH1 0xA0 SHL SUB AND DUP5 PUSH1 0x1 PUSH1 0x1 PUSH1 0xA0 SHL SUB AND DUP7 PUSH1 0x1 PUSH1 0x1 PUSH1 0xA0 SHL SUB AND PUSH32 0xFBDE797D201C681B91056529119E0B02407C7BB96A4A2C75C01FC9667232C8DB DUP6 DUP6 PUSH1 0x40 MLOAD PUSH2 0xC2A SWAP3 SWAP2 SWAP1 SWAP2 DUP3 MSTORE PUSH1 0x20 DUP3 ADD MSTORE PUSH1 0x40 ADD SWAP1 JUMP JUMPDEST PUSH1 0x40 MLOAD DUP1 SWAP2 SUB SWAP1 LOG4 POP POP POP POP POP JUMP JUMPDEST PUSH0 DUP1 PUSH2 0xC46 DUP7 DUP7 DUP7 PUSH2 0xF8B JUMP JUMPDEST SWAP1 POP PUSH2 0xC51 DUP4 PUSH2 0x104A JUMP JUMPDEST DUP1 ISZERO PUSH2 0xC6C JUMPI POP PUSH0 DUP5 DUP1 PUSH2 0xC67 JUMPI PUSH2 0xC67 PUSH2 0x15FF JUMP JUMPDEST DUP7 DUP9 MULMOD GT JUMPDEST ISZERO PUSH2 0x763 JUMPI PUSH2 0x851 PUSH1 0x1 DUP3 PUSH2 0x14EB JUMP JUMPDEST PUSH1 0x1 PUSH1 0x1 PUSH1 0xA0 SHL SUB DUP5 AND PUSH2 0xCA5 JUMPI PUSH1 0x40 MLOAD PUSH4 0xE602DF05 PUSH1 0xE0 SHL DUP2 MSTORE PUSH0 PUSH1 0x4 DUP3 ADD MSTORE PUSH1 0x24 ADD PUSH2 0x625 JUMP JUMPDEST PUSH1 0x1 PUSH1 0x1 PUSH1 0xA0 SHL SUB DUP4 AND PUSH2 0xCCE JUMPI PUSH1 0x40 MLOAD PUSH4 0x4A1406B1 PUSH1 0xE1 SHL DUP2 MSTORE PUSH0 PUSH1 0x4 DUP3 ADD MSTORE PUSH1 0x24 ADD PUSH2 0x625 JUMP JUMPDEST PUSH1 0x1 PUSH1 0x1 PUSH1 0xA0 SHL SUB DUP1 DUP6 AND PUSH0 SWAP1 DUP2 MSTORE PUSH1 0x1 PUSH1 0x20 SWAP1 DUP2 MSTORE PUSH1 0x40 DUP1 DUP4 KECCAK256 SWAP4 DUP8 AND DUP4 MSTORE SWAP3 SWAP1 MSTORE KECCAK256 DUP3 SWAP1 SSTORE DUP1 ISZERO PUSH2 0x975 JUMPI DUP3 PUSH1 0x1 PUSH1 0x1 PUSH1 0xA0 SHL SUB AND DUP5 PUSH1 0x1 PUSH1 0x1 PUSH1 0xA0 SHL SUB AND PUSH32 0x8C5BE1E5EBEC7D5BD14F71427D1E84F3DD0314C0F7B2291E5B200AC8C7C3B925 DUP5 PUSH1 0x40 MLOAD PUSH2 0xA5C SWAP2 DUP2 MSTORE PUSH1 0x20 ADD SWAP1 JUMP JUMPDEST PUSH1 0x1 PUSH1 0x1 PUSH1 0xA0 SHL SUB DUP4 AND PUSH2 0xD6A JUMPI DUP1 PUSH1 0x2 PUSH0 DUP3 DUP3 SLOAD PUSH2 0xD5F SWAP2 SWAP1 PUSH2 0x14EB JUMP JUMPDEST SWAP1 SWAP2 SSTORE POP PUSH2 0xDC7 SWAP1 POP JUMP JUMPDEST PUSH1 0x1 PUSH1 0x1 PUSH1 0xA0 SHL SUB DUP4 AND PUSH0 SWAP1 DUP2 MSTORE PUSH1 0x20 DUP2 SWAP1 MSTORE PUSH1 0x40 SWAP1 KECCAK256 SLOAD DUP2 DUP2 LT ISZERO PUSH2 0xDA9 JUMPI DUP4 DUP2 DUP4 PUSH1 0x40 MLOAD PUSH4 0x391434E3 PUSH1 0xE2 SHL DUP2 MSTORE PUSH1 0x4 ADD PUSH2 0x625 SWAP4 SWAP3 SWAP2 SWAP1 PUSH2 0x1449 JUMP JUMPDEST PUSH1 0x1 PUSH1 0x1 PUSH1 0xA0 SHL SUB DUP5 AND PUSH0 SWAP1 DUP2 MSTORE PUSH1 0x20 DUP2 SWAP1 MSTORE PUSH1 0x40 SWAP1 KECCAK256 SWAP1 DUP3 SWAP1 SUB SWAP1 SSTORE JUMPDEST PUSH1 0x1 PUSH1 0x1 PUSH1 0xA0 SHL SUB DUP3 AND PUSH2 0xDE3 JUMPI PUSH1 0x2 DUP1 SLOAD DUP3 SWAP1 SUB SWAP1 SSTORE PUSH2 0xE01 JUMP JUMPDEST PUSH1 0x1 PUSH1 0x1 PUSH1 0xA0 SHL SUB DUP3 AND PUSH0 SWAP1 DUP2 MSTORE PUSH1 0x20 DUP2 SWAP1 MSTORE PUSH1 0x40 SWAP1 KECCAK256 DUP1 SLOAD DUP3 ADD SWAP1 SSTORE JUMPDEST DUP2 PUSH1 0x1 PUSH1 0x1 PUSH1 0xA0 SHL SUB AND DUP4 PUSH1 0x1 PUSH1 0x1 PUSH1 0xA0 SHL SUB AND PUSH32 0xDDF252AD1BE2C89B69C2B068FC378DAA952BA7F163C4A11628F55A4DF523B3EF DUP4 PUSH1 0x40 MLOAD PUSH2 0xE46 SWAP2 DUP2 MSTORE PUSH1 0x20 ADD SWAP1 JUMP JUMPDEST PUSH1 0x40 MLOAD DUP1 SWAP2 SUB SWAP1 LOG3 POP POP POP JUMP JUMPDEST PUSH1 0x40 MLOAD PUSH1 0x1 PUSH1 0x1 PUSH1 0xA0 SHL SUB DUP5 DUP2 AND PUSH1 0x24 DUP4 ADD MSTORE DUP4 DUP2 AND PUSH1 0x44 DUP4 ADD MSTORE PUSH1 0x64 DUP3 ADD DUP4 SWAP1 MSTORE PUSH2 0x975 SWAP2 DUP7 SWAP2 DUP3 AND SWAP1 PUSH4 0x23B872DD SWAP1 PUSH1 0x84 ADD JUMPDEST PUSH1 0x40 MLOAD PUSH1 0x20 DUP2 DUP4 SUB SUB DUP2 MSTORE SWAP1 PUSH1 0x40 MSTORE SWAP2 POP PUSH1 0xE0 SHL PUSH1 0x20 DUP3 ADD DUP1 MLOAD PUSH1 0x1 PUSH1 0x1 PUSH1 0xE0 SHL SUB DUP4 DUP2 DUP4 AND OR DUP4 MSTORE POP POP POP POP PUSH2 0x1076 JUMP JUMPDEST PUSH1 0x1 PUSH1 0x1 PUSH1 0xA0 SHL SUB DUP3 AND PUSH2 0xEE3 JUMPI PUSH1 0x40 MLOAD PUSH4 0xEC442F05 PUSH1 0xE0 SHL DUP2 MSTORE PUSH0 PUSH1 0x4 DUP3 ADD MSTORE PUSH1 0x24 ADD PUSH2 0x625 JUMP JUMPDEST PUSH2 0xEEE PUSH0 DUP4 DUP4 PUSH2 0xD40 JUMP JUMPDEST POP POP JUMP JUMPDEST PUSH0 DUP1 PUSH2 0xEFC PUSH2 0x47C JUMP JUMPDEST SWAP1 POP PUSH4 0xBBF81E00 DUP4 PUSH1 0x8 SLOAD DUP4 PUSH2 0xF12 SWAP2 SWAP1 PUSH2 0x1613 JUMP JUMPDEST PUSH2 0xF1C SWAP2 SWAP1 PUSH2 0x1613 JUMP JUMPDEST PUSH2 0x5EB SWAP2 SWAP1 PUSH2 0x162A JUMP JUMPDEST PUSH1 0x1 PUSH1 0x1 PUSH1 0xA0 SHL SUB DUP3 AND PUSH2 0xF4F JUMPI PUSH1 0x40 MLOAD PUSH4 0x4B637E8F PUSH1 0xE1 SHL DUP2 MSTORE PUSH0 PUSH1 0x4 DUP3 ADD MSTORE PUSH1 0x24 ADD PUSH2 0x625 JUMP JUMPDEST PUSH2 0xEEE DUP3 PUSH0 DUP4 PUSH2 0xD40 JUMP JUMPDEST PUSH1 0x40 MLOAD PUSH1 0x1 PUSH1 0x1 PUSH1 0xA0 SHL SUB DUP4 DUP2 AND PUSH1 0x24 DUP4 ADD MSTORE PUSH1 0x44 DUP3 ADD DUP4 SWAP1 MSTORE PUSH2 0x8DF SWAP2 DUP6 SWAP2 DUP3 AND SWAP1 PUSH4 0xA9059CBB SWAP1 PUSH1 0x64 ADD PUSH2 0xE88 JUMP JUMPDEST PUSH0 DUP4 DUP4 MUL DUP2 PUSH0 NOT DUP6 DUP8 MULMOD DUP3 DUP2 LT DUP4 DUP3 SUB SUB SWAP2 POP POP DUP1 PUSH0 SUB PUSH2 0xFBF JUMPI DUP4 DUP3 DUP2 PUSH2 0xFB5 JUMPI PUSH2 0xFB5 PUSH2 0x15FF JUMP JUMPDEST DIV SWAP3 POP POP POP PUSH2 0x5EB JUMP JUMPDEST DUP1 DUP5 GT PUSH2 0xFDF JUMPI PUSH1 0x40 MLOAD PUSH4 0x227BC153 PUSH1 0xE0 SHL DUP2 MSTORE PUSH1 0x4 ADD PUSH1 0x40 MLOAD DUP1 SWAP2 SUB SWAP1 REVERT JUMPDEST PUSH0 DUP5 DUP7 DUP9 MULMOD PUSH0 DUP7 DUP2 SUB DUP8 AND SWAP7 DUP8 SWAP1 DIV SWAP7 PUSH1 0x2 PUSH1 0x3 DUP10 MUL DUP2 XOR DUP1 DUP11 MUL DUP3 SUB MUL DUP1 DUP11 MUL DUP3 SUB MUL DUP1 DUP11 MUL DUP3 SUB MUL DUP1 DUP11 MUL DUP3 SUB MUL DUP1 DUP11 MUL DUP3 SUB MUL DUP1 DUP11 MUL SWAP1 SWAP2 SUB MUL SWAP2 DUP2 SWAP1 SUB DUP2 SWAP1 DIV PUSH1 0x1 ADD DUP7 DUP5 GT SWAP1 SWAP6 SUB SWAP5 SWAP1 SWAP5 MUL SWAP2 SWAP1 SWAP5 SUB SWAP3 SWAP1 SWAP3 DIV SWAP2 SWAP1 SWAP2 OR SWAP2 SWAP1 SWAP2 MUL SWAP2 POP POP SWAP4 SWAP3 POP POP POP JUMP JUMPDEST PUSH0 PUSH1 0x2 DUP3 PUSH1 0x3 DUP2 GT ISZERO PUSH2 0x105F JUMPI PUSH2 0x105F PUSH2 0x163D JUMP JUMPDEST PUSH2 0x1069 SWAP2 SWAP1 PUSH2 0x1651 JUMP JUMPDEST PUSH1 0xFF AND PUSH1 0x1 EQ SWAP1 POP SWAP2 SWAP1 POP JUMP JUMPDEST PUSH0 PUSH2 0x108A PUSH1 0x1 PUSH1 0x1 PUSH1 0xA0 SHL SUB DUP5 AND DUP4 PUSH2 0x10D7 JUMP JUMPDEST SWAP1 POP DUP1 MLOAD PUSH0 EQ ISZERO DUP1 ISZERO PUSH2 0x10AE JUMPI POP DUP1 DUP1 PUSH1 0x20 ADD SWAP1 MLOAD DUP2 ADD SWAP1 PUSH2 0x10AC SWAP2 SWAP1 PUSH2 0x1672 JUMP JUMPDEST ISZERO JUMPDEST ISZERO PUSH2 0x8DF JUMPI PUSH1 0x40 MLOAD PUSH4 0x5274AFE7 PUSH1 0xE0 SHL DUP2 MSTORE PUSH1 0x1 PUSH1 0x1 PUSH1 0xA0 SHL SUB DUP5 AND PUSH1 0x4 DUP3 ADD MSTORE PUSH1 0x24 ADD PUSH2 0x625 JUMP JUMPDEST PUSH1 0x60 PUSH2 0x5EB DUP4 DUP4 PUSH0 DUP5 PUSH0 DUP1 DUP6 PUSH1 0x1 PUSH1 0x1 PUSH1 0xA0 SHL SUB AND DUP5 DUP7 PUSH1 0x40 MLOAD PUSH2 0x10FB SWAP2 SWAP1 PUSH2 0x1691 JUMP JUMPDEST PUSH0 PUSH1 0x40 MLOAD DUP1 DUP4 SUB DUP2 DUP6 DUP8 GAS CALL SWAP3 POP POP POP RETURNDATASIZE DUP1 PUSH0 DUP2 EQ PUSH2 0x1135 JUMPI PUSH1 0x40 MLOAD SWAP2 POP PUSH1 0x1F NOT PUSH1 0x3F RETURNDATASIZE ADD AND DUP3 ADD PUSH1 0x40 MSTORE RETURNDATASIZE DUP3 MSTORE RETURNDATASIZE PUSH0 PUSH1 0x20 DUP5 ADD RETURNDATACOPY PUSH2 0x113A JUMP JUMPDEST PUSH1 0x60 SWAP2 POP JUMPDEST POP SWAP2 POP SWAP2 POP PUSH2 0x851 DUP7 DUP4 DUP4 PUSH1 0x60 DUP3 PUSH2 0x115A JUMPI PUSH2 0x1155 DUP3 PUSH2 0x11A1 JUMP JUMPDEST PUSH2 0x5EB JUMP JUMPDEST DUP2 MLOAD ISZERO DUP1 ISZERO PUSH2 0x1171 JUMPI POP PUSH1 0x1 PUSH1 0x1 PUSH1 0xA0 SHL SUB DUP5 AND EXTCODESIZE ISZERO JUMPDEST ISZERO PUSH2 0x119A JUMPI PUSH1 0x40 MLOAD PUSH4 0x9996B315 PUSH1 0xE0 SHL DUP2 MSTORE PUSH1 0x1 PUSH1 0x1 PUSH1 0xA0 SHL SUB DUP6 AND PUSH1 0x4 DUP3 ADD MSTORE PUSH1 0x24 ADD PUSH2 0x625 JUMP JUMPDEST POP DUP1 PUSH2 0x5EB JUMP JUMPDEST DUP1 MLOAD ISZERO PUSH2 0x11B1 JUMPI DUP1 MLOAD DUP1 DUP3 PUSH1 0x20 ADD REVERT JUMPDEST PUSH1 0x40 MLOAD PUSH4 0xA12F521 PUSH1 0xE1 SHL DUP2 MSTORE PUSH1 0x4 ADD PUSH1 0x40 MLOAD DUP1 SWAP2 SUB SWAP1 REVERT JUMPDEST PUSH1 0x20 DUP2 MSTORE PUSH0 DUP3 MLOAD DUP1 PUSH1 0x20 DUP5 ADD MSTORE DUP1 PUSH1 0x20 DUP6 ADD PUSH1 0x40 DUP6 ADD MCOPY PUSH0 PUSH1 0x40 DUP3 DUP6 ADD ADD MSTORE PUSH1 0x40 PUSH1 0x1F NOT PUSH1 0x1F DUP4 ADD AND DUP5 ADD ADD SWAP2 POP POP SWAP3 SWAP2 POP POP JUMP JUMPDEST PUSH0 PUSH1 0x20 DUP3 DUP5 SUB SLT ISZERO PUSH2 0x120F JUMPI PUSH0 DUP1 REVERT JUMPDEST POP CALLDATALOAD SWAP2 SWAP1 POP JUMP JUMPDEST DUP1 CALLDATALOAD PUSH1 0x1 PUSH1 0x1 PUSH1 0xA0 SHL SUB DUP2 AND DUP2 EQ PUSH2 0x122C JUMPI PUSH0 DUP1 REVERT JUMPDEST SWAP2 SWAP1 POP JUMP JUMPDEST PUSH0 DUP1 PUSH1 0x40 DUP4 DUP6 SUB SLT ISZERO PUSH2 0x1242 JUMPI PUSH0 DUP1 REVERT JUMPDEST PUSH2 0x124B DUP4 PUSH2 0x1216 JUMP JUMPDEST SWAP5 PUSH1 0x20 SWAP4 SWAP1 SWAP4 ADD CALLDATALOAD SWAP4 POP POP POP JUMP JUMPDEST PUSH0 DUP1 PUSH0 PUSH1 0x60 DUP5 DUP7 SUB SLT ISZERO PUSH2 0x126B JUMPI PUSH0 DUP1 REVERT JUMPDEST PUSH2 0x1274 DUP5 PUSH2 0x1216 JUMP JUMPDEST SWAP3 POP PUSH2 0x1282 PUSH1 0x20 DUP6 ADD PUSH2 0x1216 JUMP JUMPDEST SWAP2 POP PUSH1 0x40 DUP5 ADD CALLDATALOAD SWAP1 POP SWAP3 POP SWAP3 POP SWAP3 JUMP JUMPDEST PUSH0 PUSH1 0x20 DUP3 DUP5 SUB SLT ISZERO PUSH2 0x12A2 JUMPI PUSH0 DUP1 REVERT JUMPDEST PUSH2 0x5EB DUP3 PUSH2 0x1216 JUMP JUMPDEST PUSH0 DUP1 PUSH1 0x40 DUP4 DUP6 SUB SLT ISZERO PUSH2 0x12BC JUMPI PUSH0 DUP1 REVERT JUMPDEST DUP3 CALLDATALOAD SWAP2 POP PUSH2 0x12CC PUSH1 0x20 DUP5 ADD PUSH2 0x1216 JUMP JUMPDEST SWAP1 POP SWAP3 POP SWAP3 SWAP1 POP JUMP JUMPDEST PUSH0 DUP1 PUSH0 PUSH1 0x60 DUP5 DUP7 SUB SLT ISZERO PUSH2 0x12E7 JUMPI PUSH0 DUP1 REVERT JUMPDEST DUP4 CALLDATALOAD SWAP3 POP PUSH2 0x12F7 PUSH1 0x20 DUP6 ADD PUSH2 0x1216 JUMP JUMPDEST SWAP2 POP PUSH2 0x1305 PUSH1 0x40 DUP6 ADD PUSH2 0x1216 JUMP JUMPDEST SWAP1 POP SWAP3 POP SWAP3 POP SWAP3 JUMP JUMPDEST PUSH0 DUP1 PUSH0 DUP1 PUSH0 DUP1 PUSH1 0xA0 DUP8 DUP10 SUB SLT ISZERO PUSH2 0x1323 JUMPI PUSH0 DUP1 REVERT JUMPDEST DUP7 CALLDATALOAD SWAP6 POP PUSH1 0x20 DUP8 ADD CALLDATALOAD SWAP5 POP PUSH1 0x40 DUP8 ADD CALLDATALOAD SWAP4 POP PUSH1 0x60 DUP8 ADD CALLDATALOAD PUSH8 0xFFFFFFFFFFFFFFFF DUP1 DUP3 GT ISZERO PUSH2 0x134F JUMPI PUSH0 DUP1 REVERT JUMPDEST DUP2 DUP10 ADD SWAP2 POP DUP10 PUSH1 0x1F DUP4 ADD SLT PUSH2 0x1362 JUMPI PUSH0 DUP1 REVERT JUMPDEST DUP2 CALLDATALOAD DUP2 DUP2 GT ISZERO PUSH2 0x1370 JUMPI PUSH0 DUP1 REVERT JUMPDEST DUP11 PUSH1 0x20 DUP3 DUP6 ADD ADD GT ISZERO PUSH2 0x1381 JUMPI PUSH0 DUP1 REVERT JUMPDEST PUSH1 0x20 DUP4 ADD SWAP6 POP DUP1 SWAP5 POP POP POP POP PUSH2 0x1399 PUSH1 0x80 DUP9 ADD PUSH2 0x1216 JUMP JUMPDEST SWAP1 POP SWAP3 SWAP6 POP SWAP3 SWAP6 POP SWAP3 SWAP6 JUMP JUMPDEST PUSH0 DUP1 PUSH1 0x40 DUP4 DUP6 SUB SLT ISZERO PUSH2 0x13B6 JUMPI PUSH0 DUP1 REVERT JUMPDEST PUSH2 0x13BF DUP4 PUSH2 0x1216 JUMP JUMPDEST SWAP2 POP PUSH2 0x12CC PUSH1 0x20 DUP5 ADD PUSH2 0x1216 JUMP JUMPDEST PUSH0 PUSH1 0x20 DUP3 DUP5 SUB SLT ISZERO PUSH2 0x13DD JUMPI PUSH0 DUP1 REVERT JUMPDEST POP MLOAD SWAP2 SWAP1 POP JUMP JUMPDEST PUSH1 0x1 DUP2 DUP2 SHR SWAP1 DUP3 AND DUP1 PUSH2 0x13F8 JUMPI PUSH1 0x7F DUP3 AND SWAP2 POP JUMPDEST PUSH1 0x20 DUP3 LT DUP2 SUB PUSH2 0x1416 JUMPI PUSH4 0x4E487B71 PUSH1 0xE0 SHL PUSH0 MSTORE PUSH1 0x22 PUSH1 0x4 MSTORE PUSH1 0x24 PUSH0 REVERT JUMPDEST POP SWAP2 SWAP1 POP JUMP JUMPDEST PUSH4 0x4E487B71 PUSH1 0xE0 SHL PUSH0 MSTORE PUSH1 0x11 PUSH1 0x4 MSTORE PUSH1 0x24 PUSH0 REVERT JUMPDEST PUSH1 0xFF DUP2 DUP2 AND DUP4 DUP3 AND ADD SWAP1 DUP2 GT ISZERO PUSH2 0x5A4 JUMPI PUSH2 0x5A4 PUSH2 0x141C JUMP JUMPDEST PUSH1 0x1 PUSH1 0x1 PUSH1 0xA0 SHL SUB SWAP4 SWAP1 SWAP4 AND DUP4 MSTORE PUSH1 0x20 DUP4 ADD SWAP2 SWAP1 SWAP2 MSTORE PUSH1 0x40 DUP3 ADD MSTORE PUSH1 0x60 ADD SWAP1 JUMP JUMPDEST DUP6 MLOAD DUP1 MLOAD PUSH1 0x1 PUSH1 0x1 PUSH1 0xA0 SHL SUB SWAP1 DUP2 AND DUP4 MSTORE PUSH1 0x20 SWAP2 DUP3 ADD MLOAD DUP3 DUP5 ADD MSTORE DUP2 DUP9 ADD MLOAD PUSH1 0x40 DUP1 DUP6 ADD SWAP2 SWAP1 SWAP2 MSTORE DUP9 ADD MLOAD PUSH1 0x60 DUP5 ADD MSTORE DUP7 MLOAD DUP2 AND PUSH1 0x80 DUP5 ADD MSTORE SWAP1 DUP7 ADD MLOAD PUSH1 0xA0 DUP4 ADD MSTORE DUP5 AND PUSH1 0xC0 DUP3 ADD MSTORE PUSH2 0x100 PUSH1 0xE0 DUP3 ADD DUP2 SWAP1 MSTORE DUP2 ADD DUP3 SWAP1 MSTORE PUSH0 PUSH2 0x120 DUP4 DUP6 DUP3 DUP6 ADD CALLDATACOPY PUSH0 DUP4 DUP6 ADD DUP3 ADD MSTORE PUSH1 0x1F SWAP1 SWAP4 ADD PUSH1 0x1F NOT AND SWAP1 SWAP2 ADD SWAP1 SWAP2 ADD SWAP6 SWAP5 POP POP POP POP POP JUMP JUMPDEST DUP1 DUP3 ADD DUP1 DUP3 GT ISZERO PUSH2 0x5A4 JUMPI PUSH2 0x5A4 PUSH2 0x141C JUMP JUMPDEST PUSH1 0x1 DUP2 DUP2 JUMPDEST DUP1 DUP6 GT ISZERO PUSH2 0x1538 JUMPI DUP2 PUSH0 NOT DIV DUP3 GT ISZERO PUSH2 0x151E JUMPI PUSH2 0x151E PUSH2 0x141C JUMP JUMPDEST DUP1 DUP6 AND ISZERO PUSH2 0x152B JUMPI SWAP2 DUP2 MUL SWAP2 JUMPDEST SWAP4 DUP5 SHR SWAP4 SWAP1 DUP1 MUL SWAP1 PUSH2 0x1503 JUMP JUMPDEST POP SWAP3 POP SWAP3 SWAP1 POP JUMP JUMPDEST PUSH0 DUP3 PUSH2 0x154E JUMPI POP PUSH1 0x1 PUSH2 0x5A4 JUMP JUMPDEST DUP2 PUSH2 0x155A JUMPI POP PUSH0 PUSH2 0x5A4 JUMP JUMPDEST DUP2 PUSH1 0x1 DUP2 EQ PUSH2 0x1570 JUMPI PUSH1 0x2 DUP2 EQ PUSH2 0x157A JUMPI PUSH2 0x1596 JUMP JUMPDEST PUSH1 0x1 SWAP2 POP POP PUSH2 0x5A4 JUMP JUMPDEST PUSH1 0xFF DUP5 GT ISZERO PUSH2 0x158B JUMPI PUSH2 0x158B PUSH2 0x141C JUMP JUMPDEST POP POP PUSH1 0x1 DUP3 SHL PUSH2 0x5A4 JUMP JUMPDEST POP PUSH1 0x20 DUP4 LT PUSH2 0x133 DUP4 LT AND PUSH1 0x4E DUP5 LT PUSH1 0xB DUP5 LT AND OR ISZERO PUSH2 0x15B9 JUMPI POP DUP2 DUP2 EXP PUSH2 0x5A4 JUMP JUMPDEST PUSH2 0x15C3 DUP4 DUP4 PUSH2 0x14FE JUMP JUMPDEST DUP1 PUSH0 NOT DIV DUP3 GT ISZERO PUSH2 0x15D6 JUMPI PUSH2 0x15D6 PUSH2 0x141C JUMP JUMPDEST MUL SWAP4 SWAP3 POP POP POP JUMP JUMPDEST PUSH0 PUSH2 0x5EB PUSH1 0xFF DUP5 AND DUP4 PUSH2 0x1540 JUMP JUMPDEST DUP2 DUP2 SUB DUP2 DUP2 GT ISZERO PUSH2 0x5A4 JUMPI PUSH2 0x5A4 PUSH2 0x141C JUMP JUMPDEST PUSH4 0x4E487B71 PUSH1 0xE0 SHL PUSH0 MSTORE PUSH1 0x12 PUSH1 0x4 MSTORE PUSH1 0x24 PUSH0 REVERT JUMPDEST DUP1 DUP3 MUL DUP2 ISZERO DUP3 DUP3 DIV DUP5 EQ OR PUSH2 0x5A4 JUMPI PUSH2 0x5A4 PUSH2 0x141C JUMP JUMPDEST PUSH0 DUP3 PUSH2 0x1638 JUMPI PUSH2 0x1638 PUSH2 0x15FF JUMP JUMPDEST POP DIV SWAP1 JUMP JUMPDEST PUSH4 0x4E487B71 PUSH1 0xE0 SHL PUSH0 MSTORE PUSH1 0x21 PUSH1 0x4 MSTORE PUSH1 0x24 PUSH0 REVERT JUMPDEST PUSH0 PUSH1 0xFF DUP4 AND DUP1 PUSH2 0x1663 JUMPI PUSH2 0x1663 PUSH2 0x15FF JUMP JUMPDEST DUP1 PUSH1 0xFF DUP5 AND MOD SWAP2 POP POP SWAP3 SWAP2 POP POP JUMP JUMPDEST PUSH0 PUSH1 0x20 DUP3 DUP5 SUB SLT ISZERO PUSH2 0x1682 JUMPI PUSH0 DUP1 REVERT JUMPDEST DUP2 MLOAD DUP1 ISZERO ISZERO DUP2 EQ PUSH2 0x5EB JUMPI PUSH0 DUP1 REVERT JUMPDEST PUSH0 DUP3 MLOAD DUP1 PUSH1 0x20 DUP6 ADD DUP5 MCOPY PUSH0 SWAP3 ADD SWAP2 DUP3 MSTORE POP SWAP2 SWAP1 POP JUMP INVALID LOG2 PUSH5 0x6970667358 0x22 SLT KECCAK256 SUB DUP14 0xC2 CALLDATASIZE SWAP16 PUSH25 0xB9ACAB3BC6DB2F107D0A72210C470A98325E65D60D6E71234C PUSH6 0x64736F6C6343 STOP ADDMOD NOT STOP CALLER "
				},
				"gasEstimates": {
					"creation": {
						"codeDepositCost": "1170600",
						"executionCost": "infinite",
						"totalCost": "infinite"
					},
					"external": {
						"YIELD_ACCRUAL_PERIOD()": "295",
						"YIELD_MANAGER_ROLE()": "293",
						"allowance(address,address)": "infinite",
						"approve(address,uint256)": "24821",
						"asset()": "infinite",
						"balanceOf(address)": "2615",
						"baseYieldRate()": "2371",
						"convertToAssets(uint256)": "infinite",
						"convertToShares(uint256)": "infinite",
						"decimals()": "infinite",
						"deposit(uint256,address)": "infinite",
						"depositWithPermit(uint256,uint256,uint256,bytes,address)": "infinite",
						"lastYieldAccrualTime()": "2373",
						"maxDeposit(address)": "434",
						"maxMint(address)": "455",
						"maxRedeem(address)": "2671",
						"maxWithdraw(address)": "infinite",
						"mint(uint256,address)": "infinite",
						"name()": "infinite",
						"permit2()": "2404",
						"previewDeposit(uint256)": "infinite",
						"previewMint(uint256)": "infinite",
						"previewRedeem(uint256)": "infinite",
						"previewWithdraw(uint256)": "infinite",
						"redeem(uint256,address,address)": "infinite",
						"setBaseYieldRate(uint256)": "23524",
						"symbol()": "infinite",
						"totalAssets()": "infinite",
						"totalSupply()": "2370",
						"transfer(address,uint256)": "51324",
						"transferFrom(address,address,uint256)": "infinite",
						"withdraw(uint256,address,address)": "infinite"
					},
					"internal": {
						"_accrueYield()": "infinite",
						"_calculateYield(uint256)": "infinite"
					}
				},
				"methodIdentifiers": {
					"YIELD_ACCRUAL_PERIOD()": "4395eb8e",
					"YIELD_MANAGER_ROLE()": "fe9e9640",
					"allowance(address,address)": "dd62ed3e",
					"approve(address,uint256)": "095ea7b3",
					"asset()": "38d52e0f",
					"balanceOf(address)": "70a08231",
					"baseYieldRate()": "f266a213",
					"convertToAssets(uint256)": "07a2d13a",
					"convertToShares(uint256)": "c6e6f592",
					"decimals()": "313ce567",
					"deposit(uint256,address)": "6e553f65",
					"depositWithPermit(uint256,uint256,uint256,bytes,address)": "c922609f",
					"lastYieldAccrualTime()": "a30f0352",
					"maxDeposit(address)": "402d267d",
					"maxMint(address)": "c63d75b6",
					"maxRedeem(address)": "d905777e",
					"maxWithdraw(address)": "ce96cb77",
					"mint(uint256,address)": "94bf804d",
					"name()": "06fdde03",
					"permit2()": "12261ee7",
					"previewDeposit(uint256)": "ef8b30f7",
					"previewMint(uint256)": "b3d7f6b9",
					"previewRedeem(uint256)": "4cdad506",
					"previewWithdraw(uint256)": "0a28a477",
					"redeem(uint256,address,address)": "ba087652",
					"setBaseYieldRate(uint256)": "81c4d0e6",
					"symbol()": "95d89b41",
					"totalAssets()": "01e1d114",
					"totalSupply()": "18160ddd",
					"transfer(address,uint256)": "a9059cbb",
					"transferFrom(address,address,uint256)": "23b872dd",
					"withdraw(uint256,address,address)": "b460af94"
				}
			},
			"storageLayout": {
				"storage": [
					{
						"astId": 394,
						"contract": "contracts/contracts/protocol/TuliaVault.sol:TuliaVault",
						"label": "_balances",
						"offset": 0,
						"slot": "0",
						"type": "t_mapping(t_address,t_uint256)"
					},
					{
						"astId": 400,
						"contract": "contracts/contracts/protocol/TuliaVault.sol:TuliaVault",
						"label": "_allowances",
						"offset": 0,
						"slot": "1",
						"type": "t_mapping(t_address,t_mapping(t_address,t_uint256))"
					},
					{
						"astId": 402,
						"contract": "contracts/contracts/protocol/TuliaVault.sol:TuliaVault",
						"label": "_totalSupply",
						"offset": 0,
						"slot": "2",
						"type": "t_uint256"
					},
					{
						"astId": 404,
						"contract": "contracts/contracts/protocol/TuliaVault.sol:TuliaVault",
						"label": "_name",
						"offset": 0,
						"slot": "3",
						"type": "t_string_storage"
					},
					{
						"astId": 406,
						"contract": "contracts/contracts/protocol/TuliaVault.sol:TuliaVault",
						"label": "_symbol",
						"offset": 0,
						"slot": "4",
						"type": "t_string_storage"
					},
					{
						"astId": 317,
						"contract": "contracts/contracts/protocol/TuliaVault.sol:TuliaVault",
						"label": "_status",
						"offset": 0,
						"slot": "5",
						"type": "t_uint256"
					},
					{
						"astId": 3391,
						"contract": "contracts/contracts/protocol/TuliaVault.sol:TuliaVault",
						"label": "permit2",
						"offset": 0,
						"slot": "6",
						"type": "t_contract(IPermit2)3374"
					},
					{
						"astId": 3396,
						"contract": "contracts/contracts/protocol/TuliaVault.sol:TuliaVault",
						"label": "lastYieldAccrualTime",
						"offset": 0,
						"slot": "7",
						"type": "t_uint256"
					},
					{
						"astId": 3399,
						"contract": "contracts/contracts/protocol/TuliaVault.sol:TuliaVault",
						"label": "baseYieldRate",
						"offset": 0,
						"slot": "8",
						"type": "t_uint256"
					}
				],
				"types": {
					"t_address": {
						"encoding": "inplace",
						"label": "address",
						"numberOfBytes": "20"
					},
					"t_contract(IPermit2)3374": {
						"encoding": "inplace",
						"label": "contract IPermit2",
						"numberOfBytes": "20"
					},
					"t_mapping(t_address,t_mapping(t_address,t_uint256))": {
						"encoding": "mapping",
						"key": "t_address",
						"label": "mapping(address => mapping(address => uint256))",
						"numberOfBytes": "32",
						"value": "t_mapping(t_address,t_uint256)"
					},
					"t_mapping(t_address,t_uint256)": {
						"encoding": "mapping",
						"key": "t_address",
						"label": "mapping(address => uint256)",
						"numberOfBytes": "32",
						"value": "t_uint256"
					},
					"t_string_storage": {
						"encoding": "bytes",
						"label": "string",
						"numberOfBytes": "32"
					},
					"t_uint256": {
						"encoding": "inplace",
						"label": "uint256",
						"numberOfBytes": "32"
					}
				}
			},
			"userdoc": {
				"kind": "user",
				"methods": {},
				"version": 1
			}
		}
	}
}