{
	"contracts/contracts/contracts/protocol/PoolOrganizer.sol": {
		"PoolOrganizer": {
			"abi": [
				{
					"inputs": [],
					"stateMutability": "nonpayable",
					"type": "constructor"
				},
				{
					"inputs": [],
					"name": "AccessControlBadConfirmation",
					"type": "error"
				},
				{
					"inputs": [
						{
							"internalType": "address",
							"name": "account",
							"type": "address"
						},
						{
							"internalType": "bytes32",
							"name": "neededRole",
							"type": "bytes32"
						}
					],
					"name": "AccessControlUnauthorizedAccount",
					"type": "error"
				},
				{
					"anonymous": false,
					"inputs": [
						{
							"indexed": false,
							"internalType": "address",
							"name": "vaultManager",
							"type": "address"
						},
						{
							"indexed": false,
							"internalType": "address",
							"name": "rewardManager",
							"type": "address"
						}
					],
					"name": "ManagerRegistered",
					"type": "event"
				},
				{
					"anonymous": false,
					"inputs": [
						{
							"indexed": true,
							"internalType": "address",
							"name": "pool",
							"type": "address"
						}
					],
					"name": "PoolDeregistered",
					"type": "event"
				},
				{
					"anonymous": false,
					"inputs": [
						{
							"indexed": true,
							"internalType": "address",
							"name": "pool",
							"type": "address"
						},
						{
							"indexed": true,
							"internalType": "address",
							"name": "lender",
							"type": "address"
						},
						{
							"indexed": true,
							"internalType": "address",
							"name": "borrower",
							"type": "address"
						},
						{
							"indexed": false,
							"internalType": "address",
							"name": "vault",
							"type": "address"
						},
						{
							"indexed": false,
							"internalType": "enum IPoolOrganizer.PoolType",
							"name": "poolType",
							"type": "uint8"
						}
					],
					"name": "PoolRegistered",
					"type": "event"
				},
				{
					"anonymous": false,
					"inputs": [
						{
							"indexed": true,
							"internalType": "bytes32",
							"name": "role",
							"type": "bytes32"
						},
						{
							"indexed": true,
							"internalType": "bytes32",
							"name": "previousAdminRole",
							"type": "bytes32"
						},
						{
							"indexed": true,
							"internalType": "bytes32",
							"name": "newAdminRole",
							"type": "bytes32"
						}
					],
					"name": "RoleAdminChanged",
					"type": "event"
				},
				{
					"anonymous": false,
					"inputs": [
						{
							"indexed": true,
							"internalType": "bytes32",
							"name": "role",
							"type": "bytes32"
						},
						{
							"indexed": true,
							"internalType": "address",
							"name": "account",
							"type": "address"
						},
						{
							"indexed": true,
							"internalType": "address",
							"name": "sender",
							"type": "address"
						}
					],
					"name": "RoleGranted",
					"type": "event"
				},
				{
					"anonymous": false,
					"inputs": [
						{
							"indexed": true,
							"internalType": "bytes32",
							"name": "role",
							"type": "bytes32"
						},
						{
							"indexed": true,
							"internalType": "address",
							"name": "account",
							"type": "address"
						},
						{
							"indexed": true,
							"internalType": "address",
							"name": "sender",
							"type": "address"
						}
					],
					"name": "RoleRevoked",
					"type": "event"
				},
				{
					"anonymous": false,
					"inputs": [
						{
							"indexed": true,
							"internalType": "address",
							"name": "pool",
							"type": "address"
						},
						{
							"indexed": true,
							"internalType": "address",
							"name": "vault",
							"type": "address"
						}
					],
					"name": "VaultRegistered",
					"type": "event"
				},
				{
					"inputs": [],
					"name": "DEFAULT_ADMIN_ROLE",
					"outputs": [
						{
							"internalType": "bytes32",
							"name": "",
							"type": "bytes32"
						}
					],
					"stateMutability": "view",
					"type": "function"
				},
				{
					"inputs": [],
					"name": "POOL_MANAGER_ROLE",
					"outputs": [
						{
							"internalType": "bytes32",
							"name": "",
							"type": "bytes32"
						}
					],
					"stateMutability": "view",
					"type": "function"
				},
				{
					"inputs": [
						{
							"internalType": "address",
							"name": "pool",
							"type": "address"
						}
					],
					"name": "deregisterPool",
					"outputs": [],
					"stateMutability": "nonpayable",
					"type": "function"
				},
				{
					"inputs": [
						{
							"internalType": "address",
							"name": "lender",
							"type": "address"
						}
					],
					"name": "getAllLenderPoolDetails",
					"outputs": [
						{
							"components": [
								{
									"internalType": "address",
									"name": "lender",
									"type": "address"
								},
								{
									"internalType": "address",
									"name": "borrower",
									"type": "address"
								},
								{
									"internalType": "uint256",
									"name": "creationTime",
									"type": "uint256"
								},
								{
									"internalType": "address",
									"name": "vault",
									"type": "address"
								},
								{
									"internalType": "contract IERC20",
									"name": "loanToken",
									"type": "address"
								},
								{
									"internalType": "contract IERC20",
									"name": "assetToken",
									"type": "address"
								},
								{
									"internalType": "contract IERC20",
									"name": "repaymentToken",
									"type": "address"
								},
								{
									"internalType": "uint256",
									"name": "loanAmount",
									"type": "uint256"
								},
								{
									"internalType": "uint256",
									"name": "interestRate",
									"type": "uint256"
								},
								{
									"internalType": "uint256",
									"name": "repaymentPeriod",
									"type": "uint256"
								},
								{
									"internalType": "enum IPoolOrganizer.PoolType",
									"name": "poolType",
									"type": "uint8"
								},
								{
									"internalType": "bool",
									"name": "funded",
									"type": "bool"
								}
							],
							"internalType": "struct IPoolOrganizer.PoolDetails[]",
							"name": "",
							"type": "tuple[]"
						}
					],
					"stateMutability": "view",
					"type": "function"
				},
				{
					"inputs": [],
					"name": "getAllPoolAddresses",
					"outputs": [
						{
							"internalType": "address[]",
							"name": "",
							"type": "address[]"
						}
					],
					"stateMutability": "view",
					"type": "function"
				},
				{
					"inputs": [],
					"name": "getManagers",
					"outputs": [
						{
							"internalType": "address",
							"name": "",
							"type": "address"
						},
						{
							"internalType": "address",
							"name": "",
							"type": "address"
						}
					],
					"stateMutability": "view",
					"type": "function"
				},
				{
					"inputs": [
						{
							"internalType": "address",
							"name": "pool",
							"type": "address"
						}
					],
					"name": "getPoolDetails",
					"outputs": [
						{
							"components": [
								{
									"internalType": "address",
									"name": "lender",
									"type": "address"
								},
								{
									"internalType": "address",
									"name": "borrower",
									"type": "address"
								},
								{
									"internalType": "uint256",
									"name": "creationTime",
									"type": "uint256"
								},
								{
									"internalType": "address",
									"name": "vault",
									"type": "address"
								},
								{
									"internalType": "contract IERC20",
									"name": "loanToken",
									"type": "address"
								},
								{
									"internalType": "contract IERC20",
									"name": "assetToken",
									"type": "address"
								},
								{
									"internalType": "contract IERC20",
									"name": "repaymentToken",
									"type": "address"
								},
								{
									"internalType": "uint256",
									"name": "loanAmount",
									"type": "uint256"
								},
								{
									"internalType": "uint256",
									"name": "interestRate",
									"type": "uint256"
								},
								{
									"internalType": "uint256",
									"name": "repaymentPeriod",
									"type": "uint256"
								},
								{
									"internalType": "enum IPoolOrganizer.PoolType",
									"name": "poolType",
									"type": "uint8"
								},
								{
									"internalType": "bool",
									"name": "funded",
									"type": "bool"
								}
							],
							"internalType": "struct IPoolOrganizer.PoolDetails",
							"name": "",
							"type": "tuple"
						}
					],
					"stateMutability": "view",
					"type": "function"
				},
				{
					"inputs": [
						{
							"internalType": "address",
							"name": "borrower",
							"type": "address"
						}
					],
					"name": "getPoolsByBorrower",
					"outputs": [
						{
							"internalType": "address[]",
							"name": "",
							"type": "address[]"
						}
					],
					"stateMutability": "view",
					"type": "function"
				},
				{
					"inputs": [
						{
							"internalType": "address",
							"name": "lender",
							"type": "address"
						}
					],
					"name": "getPoolsByLender",
					"outputs": [
						{
							"internalType": "address[]",
							"name": "",
							"type": "address[]"
						}
					],
					"stateMutability": "view",
					"type": "function"
				},
				{
					"inputs": [
						{
							"internalType": "bytes32",
							"name": "role",
							"type": "bytes32"
						}
					],
					"name": "getRoleAdmin",
					"outputs": [
						{
							"internalType": "bytes32",
							"name": "",
							"type": "bytes32"
						}
					],
					"stateMutability": "view",
					"type": "function"
				},
				{
					"inputs": [],
					"name": "getTotalPools",
					"outputs": [
						{
							"internalType": "uint256",
							"name": "",
							"type": "uint256"
						}
					],
					"stateMutability": "view",
					"type": "function"
				},
				{
					"inputs": [
						{
							"internalType": "address",
							"name": "pool",
							"type": "address"
						}
					],
					"name": "getVaultForPool",
					"outputs": [
						{
							"internalType": "address",
							"name": "",
							"type": "address"
						}
					],
					"stateMutability": "view",
					"type": "function"
				},
				{
					"inputs": [
						{
							"internalType": "address",
							"name": "factoryAddress",
							"type": "address"
						}
					],
					"name": "grantFactoryAccess",
					"outputs": [],
					"stateMutability": "nonpayable",
					"type": "function"
				},
				{
					"inputs": [
						{
							"internalType": "bytes32",
							"name": "role",
							"type": "bytes32"
						},
						{
							"internalType": "address",
							"name": "account",
							"type": "address"
						}
					],
					"name": "grantRole",
					"outputs": [],
					"stateMutability": "nonpayable",
					"type": "function"
				},
				{
					"inputs": [
						{
							"internalType": "bytes32",
							"name": "role",
							"type": "bytes32"
						},
						{
							"internalType": "address",
							"name": "account",
							"type": "address"
						}
					],
					"name": "hasRole",
					"outputs": [
						{
							"internalType": "bool",
							"name": "",
							"type": "bool"
						}
					],
					"stateMutability": "view",
					"type": "function"
				},
				{
					"inputs": [
						{
							"internalType": "address",
							"name": "pool",
							"type": "address"
						}
					],
					"name": "markPoolAsFunded",
					"outputs": [],
					"stateMutability": "nonpayable",
					"type": "function"
				},
				{
					"inputs": [
						{
							"internalType": "address",
							"name": "",
							"type": "address"
						}
					],
					"name": "poolVaults",
					"outputs": [
						{
							"internalType": "address",
							"name": "",
							"type": "address"
						}
					],
					"stateMutability": "view",
					"type": "function"
				},
				{
					"inputs": [
						{
							"internalType": "address",
							"name": "_vaultManager",
							"type": "address"
						},
						{
							"internalType": "address",
							"name": "_rewardManager",
							"type": "address"
						}
					],
					"name": "registerManagers",
					"outputs": [],
					"stateMutability": "nonpayable",
					"type": "function"
				},
				{
					"inputs": [
						{
							"internalType": "address",
							"name": "pool",
							"type": "address"
						},
						{
							"internalType": "address",
							"name": "lender",
							"type": "address"
						},
						{
							"internalType": "address",
							"name": "borrower",
							"type": "address"
						},
						{
							"internalType": "address",
							"name": "vault",
							"type": "address"
						},
						{
							"internalType": "contract IERC20",
							"name": "loanToken",
							"type": "address"
						},
						{
							"internalType": "contract IERC20",
							"name": "assetToken",
							"type": "address"
						},
						{
							"internalType": "contract IERC20",
							"name": "repaymentToken",
							"type": "address"
						},
						{
							"internalType": "uint256",
							"name": "loanAmount",
							"type": "uint256"
						},
						{
							"internalType": "uint256",
							"name": "interestRate",
							"type": "uint256"
						},
						{
							"internalType": "uint256",
							"name": "repaymentPeriod",
							"type": "uint256"
						},
						{
							"internalType": "enum IPoolOrganizer.PoolType",
							"name": "poolType",
							"type": "uint8"
						}
					],
					"name": "registerPool",
					"outputs": [],
					"stateMutability": "nonpayable",
					"type": "function"
				},
				{
					"inputs": [
						{
							"internalType": "address",
							"name": "pool",
							"type": "address"
						},
						{
							"internalType": "address",
							"name": "vault",
							"type": "address"
						}
					],
					"name": "registerVault",
					"outputs": [],
					"stateMutability": "nonpayable",
					"type": "function"
				},
				{
					"inputs": [
						{
							"internalType": "bytes32",
							"name": "role",
							"type": "bytes32"
						},
						{
							"internalType": "address",
							"name": "callerConfirmation",
							"type": "address"
						}
					],
					"name": "renounceRole",
					"outputs": [],
					"stateMutability": "nonpayable",
					"type": "function"
				},
				{
					"inputs": [
						{
							"internalType": "bytes32",
							"name": "role",
							"type": "bytes32"
						},
						{
							"internalType": "address",
							"name": "account",
							"type": "address"
						}
					],
					"name": "revokeRole",
					"outputs": [],
					"stateMutability": "nonpayable",
					"type": "function"
				},
				{
					"inputs": [],
					"name": "rewardManager",
					"outputs": [
						{
							"internalType": "contract IRewardManager",
							"name": "",
							"type": "address"
						}
					],
					"stateMutability": "view",
					"type": "function"
				},
				{
					"inputs": [
						{
							"internalType": "address",
							"name": "pool",
							"type": "address"
						},
						{
							"internalType": "address",
							"name": "newBorrower",
							"type": "address"
						}
					],
					"name": "setBorrowerForPool",
					"outputs": [],
					"stateMutability": "nonpayable",
					"type": "function"
				},
				{
					"inputs": [
						{
							"internalType": "bytes4",
							"name": "interfaceId",
							"type": "bytes4"
						}
					],
					"name": "supportsInterface",
					"outputs": [
						{
							"internalType": "bool",
							"name": "",
							"type": "bool"
						}
					],
					"stateMutability": "view",
					"type": "function"
				},
				{
					"inputs": [],
					"name": "vaultManager",
					"outputs": [
						{
							"internalType": "contract IVaultManager",
							"name": "",
							"type": "address"
						}
					],
					"stateMutability": "view",
					"type": "function"
				}
			],
			"devdoc": {
				"details": "Implements access control and management for pool lifecycle and integration with external managers.",
				"errors": {
					"AccessControlBadConfirmation()": [
						{
							"details": "The caller of a function is not the expected one. NOTE: Don't confuse with {AccessControlUnauthorizedAccount}."
						}
					],
					"AccessControlUnauthorizedAccount(address,bytes32)": [
						{
							"details": "The `account` is missing a role."
						}
					]
				},
				"events": {
					"ManagerRegistered(address,address)": {
						"details": "Emitted when managers are registered.",
						"params": {
							"rewardManager": "The address of the reward manager.",
							"vaultManager": "The address of the vault manager."
						}
					},
					"PoolDeregistered(address)": {
						"details": "Emitted when a pool is deregistered.",
						"params": {
							"pool": "The address of the deregistered pool."
						}
					},
					"PoolRegistered(address,address,address,address,uint8)": {
						"details": "Emitted when a new pool is registered.",
						"params": {
							"borrower": "The address of the borrower.",
							"lender": "The address of the lender.",
							"pool": "The address of the pool.",
							"poolType": "The type of the pool.",
							"vault": "The address of the vault associated with the pool."
						}
					},
					"RoleAdminChanged(bytes32,bytes32,bytes32)": {
						"details": "Emitted when `newAdminRole` is set as ``role``'s admin role, replacing `previousAdminRole` `DEFAULT_ADMIN_ROLE` is the starting admin for all roles, despite {RoleAdminChanged} not being emitted signaling this."
					},
					"RoleGranted(bytes32,address,address)": {
						"details": "Emitted when `account` is granted `role`. `sender` is the account that originated the contract call, an admin role bearer except when using {AccessControl-_setupRole}."
					},
					"RoleRevoked(bytes32,address,address)": {
						"details": "Emitted when `account` is revoked `role`. `sender` is the account that originated the contract call:   - if using `revokeRole`, it is the admin role bearer   - if using `renounceRole`, it is the role bearer (i.e. `account`)"
					},
					"VaultRegistered(address,address)": {
						"details": "Emitted when a vault is registered for a pool.",
						"params": {
							"pool": "The address of the pool.",
							"vault": "The address of the registered vault."
						}
					}
				},
				"kind": "dev",
				"methods": {
					"constructor": {
						"details": "Constructor that grants the deployer the admin and pool manager roles."
					},
					"deregisterPool(address)": {
						"details": "Deregisters the specified pool and emits a `PoolDeregistered` event.",
						"params": {
							"pool": "The address of the pool to deregister."
						}
					},
					"getAllLenderPoolDetails(address)": {
						"params": {
							"lender": "The address of the lender."
						},
						"returns": {
							"_0": "An array of pool details."
						}
					},
					"getAllPoolAddresses()": {
						"returns": {
							"_0": "An array of pool addresses."
						}
					},
					"getManagers()": {
						"returns": {
							"_0": "The addresses of the vault and reward managers."
						}
					},
					"getPoolDetails(address)": {
						"params": {
							"pool": "The address of the pool."
						},
						"returns": {
							"_0": "The details of the pool."
						}
					},
					"getPoolsByBorrower(address)": {
						"params": {
							"borrower": "The address of the borrower."
						},
						"returns": {
							"_0": "An array of pool addresses."
						}
					},
					"getPoolsByLender(address)": {
						"params": {
							"lender": "The address of the lender."
						},
						"returns": {
							"_0": "An array of pool addresses."
						}
					},
					"getRoleAdmin(bytes32)": {
						"details": "Returns the admin role that controls `role`. See {grantRole} and {revokeRole}. To change a role's admin, use {_setRoleAdmin}."
					},
					"getTotalPools()": {
						"returns": {
							"_0": "The total number of pools."
						}
					},
					"getVaultForPool(address)": {
						"params": {
							"pool": "The address of the pool."
						},
						"returns": {
							"_0": "The address of the vault."
						}
					},
					"grantFactoryAccess(address)": {
						"params": {
							"factoryAddress": "The address of the factory."
						}
					},
					"grantRole(bytes32,address)": {
						"details": "Grants `role` to `account`. If `account` had not been already granted `role`, emits a {RoleGranted} event. Requirements: - the caller must have ``role``'s admin role. May emit a {RoleGranted} event."
					},
					"hasRole(bytes32,address)": {
						"details": "Returns `true` if `account` has been granted `role`."
					},
					"markPoolAsFunded(address)": {
						"details": "Marks the specified pool as funded.",
						"params": {
							"pool": "The address of the pool to mark as funded."
						}
					},
					"registerManagers(address,address)": {
						"details": "Registers the specified managers and emits a `ManagerRegistered` event.",
						"params": {
							"_rewardManager": "The address of the reward manager.",
							"_vaultManager": "The address of the vault manager."
						}
					},
					"registerPool(address,address,address,address,address,address,address,uint256,uint256,uint256,uint8)": {
						"details": "Registers a pool and emits a `PoolRegistered` event.",
						"params": {
							"assetToken": "The ERC20 token for the asset.",
							"borrower": "The address of the borrower.",
							"interestRate": "The interest rate for the loan.",
							"lender": "The address of the lender.",
							"loanAmount": "The amount of the loan.",
							"loanToken": "The ERC20 token for the loan.",
							"pool": "The address of the pool.",
							"poolType": "The type of the pool.",
							"repaymentPeriod": "The repayment period for the loan.",
							"repaymentToken": "The ERC20 token for the repayment.",
							"vault": "The address of the vault."
						}
					},
					"registerVault(address,address)": {
						"details": "Registers the specified vault for the pool and emits a `VaultRegistered` event.",
						"params": {
							"pool": "The address of the pool.",
							"vault": "The address of the vault."
						}
					},
					"renounceRole(bytes32,address)": {
						"details": "Revokes `role` from the calling account. Roles are often managed via {grantRole} and {revokeRole}: this function's purpose is to provide a mechanism for accounts to lose their privileges if they are compromised (such as when a trusted device is misplaced). If the calling account had been revoked `role`, emits a {RoleRevoked} event. Requirements: - the caller must be `callerConfirmation`. May emit a {RoleRevoked} event."
					},
					"revokeRole(bytes32,address)": {
						"details": "Revokes `role` from `account`. If `account` had been granted `role`, emits a {RoleRevoked} event. Requirements: - the caller must have ``role``'s admin role. May emit a {RoleRevoked} event."
					},
					"setBorrowerForPool(address,address)": {
						"params": {
							"newBorrower": "The address of the new borrower.",
							"pool": "The address of the pool."
						}
					},
					"supportsInterface(bytes4)": {
						"details": "See {IERC165-supportsInterface}."
					}
				},
				"title": "Pool Organizer for managing pools, vaults, and rewards.",
				"version": 1
			},
			"evm": {
				"assembly": "    /* \"contracts/contracts/contracts/protocol/PoolOrganizer.sol\":428:12806  contract PoolOrganizer is AccessControl, IPoolOrganizer {... */\n  mstore(0x40, 0x80)\n  jumpi(tag_3, callvalue)\n    /* \"contracts/contracts/contracts/protocol/PoolOrganizer.sol\":2233:2275  _grantRole(DEFAULT_ADMIN_ROLE, msg.sender) */\n  tag_5\n    /* \"contracts/contracts/contracts/protocol/PoolOrganizer.sol\":2264:2274  msg.sender */\n  caller\n    /* \"contracts/contracts/contracts/protocol/PoolOrganizer.sol\":2233:2275  _grantRole(DEFAULT_ADMIN_ROLE, msg.sender) */\n  tag_1\n  jump\t// in\ntag_5:\n  pop\n    /* \"contracts/contracts/contracts/protocol/PoolOrganizer.sol\":2285:2326  _grantRole(POOL_MANAGER_ROLE, msg.sender) */\n  tag_6\n    /* \"contracts/contracts/contracts/protocol/PoolOrganizer.sol\":2264:2274  msg.sender */\n  caller\n    /* \"contracts/contracts/contracts/protocol/PoolOrganizer.sol\":2285:2326  _grantRole(POOL_MANAGER_ROLE, msg.sender) */\n  tag_2\n  jump\t// in\ntag_6:\n  pop\n    /* \"contracts/contracts/contracts/protocol/PoolOrganizer.sol\":428:12806  contract PoolOrganizer is AccessControl, IPoolOrganizer {... */\n  mload(0x40)\n  dataSize(sub_0)\n  swap1\n  dup2\n  dataOffset(sub_0)\n  dup3\n  codecopy\n  return\ntag_3:\n  0x00\n  dup1\n  revert\n    /* \"@openzeppelin/contracts/access/AccessControl.sol\":6179:6495  function _grantRole(bytes32 role, address account) internal virtual returns (bool) {... */\ntag_1:\n  sub(shl(0xa0, 0x01), 0x01)\n    /* \"contracts/contracts/contracts/protocol/PoolOrganizer.sol\":428:12806  contract PoolOrganizer is AccessControl, IPoolOrganizer {... */\n  and\n    /* \"@openzeppelin/contracts/access/AccessControl.sol\":2232:2236  0x00 */\n  0x00\n    /* \"contracts/contracts/contracts/protocol/PoolOrganizer.sol\":428:12806  contract PoolOrganizer is AccessControl, IPoolOrganizer {... */\n  dup2\n  dup2\n  mstore\n  mstore(0x20, 0xad3228b676f7d3cd4284a5443f17f1962b36e491b30a40b2405849e597ba5fb5)\n  0x40\n  dup2\n  keccak256\n  sload\n    /* \"@openzeppelin/contracts/access/AccessControl.sol\":2232:2236  0x00 */\n  swap1\n  swap2\n    /* \"contracts/contracts/contracts/protocol/PoolOrganizer.sol\":428:12806  contract PoolOrganizer is AccessControl, IPoolOrganizer {... */\n  swap1\n  0xff\n  and\n  tag_7\n  jumpi\n  dup2\n  dup1\n  mstore\n  dup2\n  0x20\n  mstore\n  0x40\n  dup3\n  keccak256\n  dup2\n  dup4\n  mstore\n  0x20\n  mstore\n  0x40\n  dup3\n  keccak256\n  0x01\n  not(0xff)\n  dup3\n  sload\n  and\n  or\n  swap1\n  sstore\n    /* \"@openzeppelin/contracts/utils/Context.sol\":735:745  msg.sender */\n  caller\n    /* \"@openzeppelin/contracts/access/AccessControl.sol\":6370:6410  RoleGranted(role, account, _msgSender()) */\n  swap2\n  0x00\n  dup1\n  mload\n  0x20\n  data_01400fe2f234cf888b5e4c66700c7903f33f31bfc9675e51cb0119f915eb534d\n  dup4\n  codecopy\n  dup2\n  mload\n  swap2\n  mstore\n  dup2\n  dup1\n  log4\n    /* \"contracts/contracts/contracts/protocol/PoolOrganizer.sol\":428:12806  contract PoolOrganizer is AccessControl, IPoolOrganizer {... */\n  0x01\n    /* \"@openzeppelin/contracts/access/AccessControl.sol\":6424:6435  return true */\n  swap1\n  jump\t// out\n    /* \"@openzeppelin/contracts/access/AccessControl.sol\":6272:6489  if (!hasRole(role, account)) {... */\ntag_7:\n    /* \"@openzeppelin/contracts/access/AccessControl.sol\":6466:6478  return false */\n  pop\n  swap1\n  jump\t// out\n    /* \"@openzeppelin/contracts/access/AccessControl.sol\":6179:6495  function _grantRole(bytes32 role, address account) internal virtual returns (bool) {... */\ntag_2:\n  sub(shl(0xa0, 0x01), 0x01)\n    /* \"contracts/contracts/contracts/protocol/PoolOrganizer.sol\":428:12806  contract PoolOrganizer is AccessControl, IPoolOrganizer {... */\n  and\n    /* \"@openzeppelin/contracts/access/AccessControl.sol\":2954:2960  _roles */\n  0x00\n    /* \"contracts/contracts/contracts/protocol/PoolOrganizer.sol\":428:12806  contract PoolOrganizer is AccessControl, IPoolOrganizer {... */\n  dup2\n  dup2\n  mstore\n  mstore(0x20, 0x729ef9451dd492832bd2a98139702ced95dfa0cec7e99526dbbcb957abcbc476)\n  0x40\n  dup2\n  keccak256\n  sload\n    /* \"@openzeppelin/contracts/access/AccessControl.sol\":2954:2960  _roles */\n  swap1\n  swap2\n    /* \"contracts/contracts/contracts/protocol/PoolOrganizer.sol\":428:12806  contract PoolOrganizer is AccessControl, IPoolOrganizer {... */\n  swap1\n    /* \"contracts/contracts/contracts/protocol/PoolOrganizer.sol\":534:564  keccak256(\"POOL_MANAGER_ROLE\") */\n  0x6077685936c8169d09204a1d97db12e41713588c38e1d29a61867d3dcee98aff\n  swap1\n    /* \"contracts/contracts/contracts/protocol/PoolOrganizer.sol\":428:12806  contract PoolOrganizer is AccessControl, IPoolOrganizer {... */\n  0xff\n  and\n  tag_9\n  jumpi\n  dup1\n  dup4\n  mstore\n  dup3\n  0x20\n  mstore\n  0x40\n  dup4\n  keccak256\n  dup3\n  dup5\n  mstore\n  0x20\n  mstore\n  0x40\n  dup4\n  keccak256\n  0x01\n  not(0xff)\n  dup3\n  sload\n  and\n  or\n  swap1\n  sstore\n  0x00\n  dup1\n  mload\n  0x20\n  data_01400fe2f234cf888b5e4c66700c7903f33f31bfc9675e51cb0119f915eb534d\n  dup4\n  codecopy\n  dup2\n  mload\n  swap2\n  mstore\n    /* \"@openzeppelin/contracts/utils/Context.sol\":735:745  msg.sender */\n  caller\n    /* \"@openzeppelin/contracts/access/AccessControl.sol\":6370:6410  RoleGranted(role, account, _msgSender()) */\n  swap4\n  dup1\n  log4\n    /* \"contracts/contracts/contracts/protocol/PoolOrganizer.sol\":428:12806  contract PoolOrganizer is AccessControl, IPoolOrganizer {... */\n  0x01\n    /* \"@openzeppelin/contracts/access/AccessControl.sol\":6424:6435  return true */\n  swap1\n  jump\t// out\n    /* \"@openzeppelin/contracts/access/AccessControl.sol\":6272:6489  if (!hasRole(role, account)) {... */\ntag_9:\n    /* \"@openzeppelin/contracts/access/AccessControl.sol\":6466:6478  return false */\n  pop\n  pop\n  swap1\n  jump\t// out\nstop\ndata_01400fe2f234cf888b5e4c66700c7903f33f31bfc9675e51cb0119f915eb534d 2f8788117e7eff1d82e926ec794901d17c78024a50270940304540a733656f0d\n\nsub_0: assembly {\n        /* \"contracts/contracts/contracts/protocol/PoolOrganizer.sol\":428:12806  contract PoolOrganizer is AccessControl, IPoolOrganizer {... */\n      0x80\n      dup1\n      0x40\n      mstore\n      jumpi(tag_28, iszero(lt(calldatasize, 0x04)))\n      0x00\n      dup1\n      revert\n    tag_28:\n      shr(0xe0, calldataload(0x00))\n      swap1\n      dup2\n      0x01ffc9a7\n      eq\n      tag_30\n      jumpi\n      pop\n      dup1\n      0x05c4fdf9\n      eq\n      tag_32\n      jumpi\n      dup1\n      0x0f4ef8a6\n      eq\n      tag_34\n      jumpi\n      dup1\n      0x1e4966ab\n      eq\n      tag_36\n      jumpi\n      dup1\n      0x1f2f2e14\n      eq\n      tag_38\n      jumpi\n      dup1\n      0x248a9ca3\n      eq\n      tag_40\n      jumpi\n      dup1\n      0x24a44efb\n      eq\n      tag_42\n      jumpi\n      dup1\n      0x2f2ff15d\n      eq\n      tag_44\n      jumpi\n      dup1\n      0x36568abe\n      eq\n      tag_46\n      jumpi\n      dup1\n      0x37e238c5\n      eq\n      tag_48\n      jumpi\n      dup1\n      0x43756020\n      eq\n      tag_50\n      jumpi\n      dup1\n      0x52fc9b0e\n      eq\n      tag_52\n      jumpi\n      dup1\n      0x56d73568\n      eq\n      tag_54\n      jumpi\n      dup1\n      0x5d102df7\n      eq\n      tag_56\n      jumpi\n      dup1\n      0x7570e389\n      eq\n      tag_58\n      jumpi\n      dup1\n      0x7e72c7d7\n      eq\n      tag_60\n      jumpi\n      dup1\n      0x8a4adf24\n      eq\n      tag_62\n      jumpi\n      dup1\n      0x91d14854\n      eq\n      tag_64\n      jumpi\n      dup1\n      0xa217fddf\n      eq\n      tag_66\n      jumpi\n      dup1\n      0xa8d088bb\n      eq\n      tag_68\n      jumpi\n      dup1\n      0xc489579d\n      eq\n      tag_70\n      jumpi\n      dup1\n      0xc56f1b44\n      eq\n      tag_72\n      jumpi\n      dup1\n      0xd3e90fa0\n      eq\n      tag_74\n      jumpi\n      dup1\n      0xd3ffe67a\n      eq\n      tag_76\n      jumpi\n      dup1\n      0xd547741f\n      eq\n      tag_78\n      jumpi\n      0xe7ef32f7\n      eq\n      tag_80\n      jumpi\n      0x00\n      dup1\n      revert\n    tag_80:\n      jumpi(tag_84, callvalue)\n      0x20\n      dup1\n      add(calldatasize, not(0x03))\n      slt\n      tag_84\n      jumpi\n      sub(shl(0xa0, 0x01), 0x01)\n      dup1\n      tag_86\n      tag_1\n      jump\t// in\n    tag_86:\n      and\n      0x00\n      mstore\n        /* \"contracts/contracts/contracts/protocol/PoolOrganizer.sol\":5593:5606  borrowerPools */\n      0x07\n        /* \"contracts/contracts/contracts/protocol/PoolOrganizer.sol\":428:12806  contract PoolOrganizer is AccessControl, IPoolOrganizer {... */\n      dup3\n      mstore\n      keccak256(0x00, 0x40)\n      swap2\n      mload(0x40)\n      dup1\n      swap3\n      dup3\n      dup6\n      sload\n      swap3\n      dup4\n      dup2\n      mstore\n      add\n      swap5\n      0x00\n      mstore\n      dup3\n      0x00\n      keccak256\n      swap3\n      0x00\n      swap2\n    tag_87:\n      dup4\n      dup4\n      lt\n      tag_88\n      jumpi\n      tag_90\n      dup7\n      tag_91\n      dup2\n      dup11\n      sub\n      dup3\n      tag_13\n      jump\t// in\n    tag_91:\n      mload(0x40)\n      swap2\n      dup3\n      swap2\n      dup3\n      tag_3\n      jump\t// in\n    tag_90:\n      sub\n      swap1\n      return\n    tag_88:\n      dup5\n      sload\n      dup2\n      and\n      dup8\n      mstore\n      swap6\n      dup2\n      add\n      swap6\n      0x01\n      swap5\n      dup6\n      add\n      swap5\n      swap1\n      swap3\n      add\n      swap2\n      jump(tag_87)\n    tag_84:\n      0x00\n      dup1\n      revert\n    tag_78:\n      jumpi(tag_84, callvalue)\n      jumpi(tag_84, slt(add(not(0x03), calldatasize), 0x40))\n        /* \"@openzeppelin/contracts/access/AccessControl.sol\":4747:4773  _revokeRole(role, account) */\n      tag_96\n        /* \"contracts/contracts/contracts/protocol/PoolOrganizer.sol\":428:12806  contract PoolOrganizer is AccessControl, IPoolOrganizer {... */\n      calldataload(0x04)\n      tag_97\n      tag_2\n      jump\t// in\n    tag_97:\n      swap1\n      dup1\n      0x00\n      mstore\n      mstore(0x20, 0x00)\n        /* \"@openzeppelin/contracts/access/AccessControl.sol\":2475:2479  role */\n      tag_98\n        /* \"contracts/contracts/contracts/protocol/PoolOrganizer.sol\":428:12806  contract PoolOrganizer is AccessControl, IPoolOrganizer {... */\n      0x01\n      keccak256(0x00, 0x40)\n        /* \"@openzeppelin/contracts/access/AccessControl.sol\":3901:3923  _roles[role].adminRole */\n      add\n        /* \"contracts/contracts/contracts/protocol/PoolOrganizer.sol\":428:12806  contract PoolOrganizer is AccessControl, IPoolOrganizer {... */\n      sload\n        /* \"@openzeppelin/contracts/access/AccessControl.sol\":2475:2479  role */\n      tag_7\n      jump\t// in\n    tag_98:\n        /* \"@openzeppelin/contracts/access/AccessControl.sol\":4747:4773  _revokeRole(role, account) */\n      tag_11\n      jump\t// in\n    tag_96:\n        /* \"contracts/contracts/contracts/protocol/PoolOrganizer.sol\":428:12806  contract PoolOrganizer is AccessControl, IPoolOrganizer {... */\n      stop\n    tag_76:\n      jumpi(tag_84, callvalue)\n      jumpi(tag_84, slt(add(not(0x03), calldatasize), 0x00))\n      0x20\n      sload(0x03)\n      mload(0x40)\n      swap1\n      dup2\n      mstore\n      return\n    tag_74:\n      jumpi(tag_84, callvalue)\n      jumpi(tag_84, slt(add(not(0x03), calldatasize), 0x20))\n      0x0180\n      tag_107\n      tag_1\n      jump\t// in\n    tag_107:\n      tag_108\n      tag_22\n      jump\t// in\n    tag_108:\n      pop\n      sub(shl(0xa0, 0x01), 0x01)\n      swap1\n      dup2\n      and\n      0x00\n      dup2\n      dup2\n      mstore\n      mstore(0x20, 0x04)\n      0x40\n      swap1\n      keccak256\n      sload\n        /* \"contracts/contracts/contracts/protocol/PoolOrganizer.sol\":8944:9014  require(poolDetails[pool].lender != address(0), \"Pool not registered\") */\n      tag_109\n      swap1\n        /* \"contracts/contracts/contracts/protocol/PoolOrganizer.sol\":428:12806  contract PoolOrganizer is AccessControl, IPoolOrganizer {... */\n      dup4\n      and\n        /* \"contracts/contracts/contracts/protocol/PoolOrganizer.sol\":8952:8990  poolDetails[pool].lender != address(0) */\n      iszero\n      iszero\n        /* \"contracts/contracts/contracts/protocol/PoolOrganizer.sol\":8944:9014  require(poolDetails[pool].lender != address(0), \"Pool not registered\") */\n      tag_20\n      jump\t// in\n    tag_109:\n        /* \"contracts/contracts/contracts/protocol/PoolOrganizer.sol\":428:12806  contract PoolOrganizer is AccessControl, IPoolOrganizer {... */\n      0x00\n      mstore\n      mstore(0x20, 0x04)\n      0xff\n      0x0a\n      keccak256(0x00, 0x40)\n      mload(0x40)\n      swap4\n      tag_110\n      dup6\n      tag_12\n      jump\t// in\n    tag_110:\n      dup1\n      dup3\n      sload\n      and\n      dup6\n      mstore\n      dup1\n      0x01\n      dup4\n      add\n      sload\n      and\n      0x20\n      dup7\n      add\n      mstore\n      0x02\n      dup3\n      add\n      sload\n      0x40\n      dup7\n      add\n      mstore\n      dup1\n      0x03\n      dup4\n      add\n      sload\n      and\n      0x60\n      dup7\n      add\n      mstore\n      dup1\n      0x04\n      dup4\n      add\n      sload\n      and\n      0x80\n      dup7\n      add\n      mstore\n      dup1\n      0x05\n      dup4\n      add\n      sload\n      and\n      0xa0\n      dup7\n      add\n      mstore\n      0x06\n      dup3\n      add\n      sload\n      and\n      0xc0\n      dup6\n      add\n      mstore\n      0x07\n      dup2\n      add\n      sload\n      0xe0\n      dup6\n      add\n      mstore\n      0x08\n      dup2\n      add\n      sload\n      0x0100\n      dup6\n      add\n      mstore\n      0x09\n      dup2\n      add\n      sload\n      0x0120\n      dup6\n      add\n      mstore\n      add\n      sload\n      tag_111\n      dup3\n      dup3\n      and\n      0x0140\n      dup6\n      add\n      tag_14\n      jump\t// in\n    tag_111:\n      0x08\n      shr\n      and\n      iszero\n      iszero\n      0x0160\n      dup3\n      add\n      mstore\n      tag_112\n      mload(0x40)\n      dup1\n      swap3\n      tag_5\n      jump\t// in\n    tag_112:\n      return\n    tag_72:\n      jumpi(tag_84, callvalue)\n      jumpi(tag_84, slt(add(not(0x03), calldatasize), 0x00))\n      mload(0x40)\n      dup1\n      sload(0x03)\n      swap2\n      dup3\n      dup2\n      mstore\n      0x20\n      dup1\n      swap2\n      add\n      swap3\n      mstore(0x00, 0x03)\n      0xc2575a0e9e593c00f959f8c92f12db2869c3395a3b0502d05e2516446f71f85b\n      swap2\n      0x00\n      swap1\n    tag_117:\n      dup3\n      dup3\n      lt\n      tag_118\n      jumpi\n      tag_90\n      dup6\n      tag_91\n      dup2\n      dup10\n      sub\n      dup3\n      tag_13\n      jump\t// in\n    tag_118:\n      dup4\n      sload\n      sub(shl(0xa0, 0x01), 0x01)\n      and\n      dup7\n      mstore\n      swap5\n      dup6\n      add\n      swap5\n      0x01\n      swap4\n      dup5\n      add\n      swap4\n      swap1\n      swap2\n      add\n      swap1\n      jump(tag_117)\n    tag_70:\n      jumpi(tag_84, callvalue)\n      jumpi(tag_84, slt(add(not(0x03), calldatasize), 0x40))\n      tag_126\n      tag_1\n      jump\t// in\n    tag_126:\n      tag_127\n      tag_2\n      jump\t// in\n    tag_127:\n        /* \"@openzeppelin/contracts/utils/Context.sol\":735:745  msg.sender */\n      caller\n        /* \"contracts/contracts/contracts/protocol/PoolOrganizer.sol\":428:12806  contract PoolOrganizer is AccessControl, IPoolOrganizer {... */\n      0x00\n      swap1\n      dup2\n      mstore\n      mstore(0x20, 0xad3228b676f7d3cd4284a5443f17f1962b36e491b30a40b2405849e597ba5fb5)\n      0x40\n      swap1\n      keccak256\n      sload\n      0xff\n      and\n        /* \"@openzeppelin/contracts/access/AccessControl.sol\":3519:3542  !hasRole(role, account) */\n      iszero\n        /* \"@openzeppelin/contracts/access/AccessControl.sol\":3515:3623  if (!hasRole(role, account)) {... */\n      tag_128\n      jumpi\n      sub(shl(0xa0, 0x01), 0x01)\n        /* \"contracts/contracts/contracts/protocol/PoolOrganizer.sol\":428:12806  contract PoolOrganizer is AccessControl, IPoolOrganizer {... */\n      dup3\n      dup2\n      and\n      swap3\n      swap1\n        /* \"contracts/contracts/contracts/protocol/PoolOrganizer.sol\":7441:7468  _vaultManager != address(0) */\n      dup4\n      iszero\n        /* \"contracts/contracts/contracts/protocol/PoolOrganizer.sol\":428:12806  contract PoolOrganizer is AccessControl, IPoolOrganizer {... */\n      tag_130\n      jumpi\n      dup3\n      and\n        /* \"contracts/contracts/contracts/protocol/PoolOrganizer.sol\":7560:7588  _rewardManager != address(0) */\n      dup1\n      iszero\n        /* \"contracts/contracts/contracts/protocol/PoolOrganizer.sol\":428:12806  contract PoolOrganizer is AccessControl, IPoolOrganizer {... */\n      tag_132\n      jumpi\n      0x01\n      dup1\n      sload\n      not(sub(shl(0xa0, 0x01), 0x01))\n      swap1\n      dup2\n      and\n      swap6\n      swap1\n      swap6\n      or\n      swap1\n      sstore\n        /* \"contracts/contracts/contracts/protocol/PoolOrganizer.sol\":7714:7760  rewardManager = IRewardManager(_rewardManager) */\n      0x02\n        /* \"contracts/contracts/contracts/protocol/PoolOrganizer.sol\":428:12806  contract PoolOrganizer is AccessControl, IPoolOrganizer {... */\n      dup1\n      sload\n      swap1\n      swap5\n      and\n      or\n      swap1\n      swap3\n      sstore\n      0x40\n      dup1\n      mload\n      sub(shl(0xa0, 0x01), 0x01)\n      swap4\n      dup5\n      and\n      dup2\n      mstore\n      swap2\n      swap1\n      swap3\n      and\n      0x20\n      dup3\n      add\n      mstore\n        /* \"contracts/contracts/contracts/protocol/PoolOrganizer.sol\":7776:7824  ManagerRegistered(_vaultManager, _rewardManager) */\n      0x8fc18cc172f74c81235145b7927190d2bd0e351fc45bfb17bb572593273cef21\n      swap2\n        /* \"contracts/contracts/contracts/protocol/PoolOrganizer.sol\":428:12806  contract PoolOrganizer is AccessControl, IPoolOrganizer {... */\n      swap1\n        /* \"contracts/contracts/contracts/protocol/PoolOrganizer.sol\":7776:7824  ManagerRegistered(_vaultManager, _rewardManager) */\n      log1\n        /* \"contracts/contracts/contracts/protocol/PoolOrganizer.sol\":428:12806  contract PoolOrganizer is AccessControl, IPoolOrganizer {... */\n      stop\n    tag_132:\n      mload(0x40)\n      shl(0xe5, 0x461bcd)\n      dup2\n      mstore\n      0x20\n      0x04\n      dup3\n      add\n      mstore\n      0x24\n      dup1\n      dup3\n      add\n      mstore\n      0x5265776172644d616e616765722063616e6e6f74206265207a65726f20616464\n      0x44\n      dup3\n      add\n      mstore\n      shl(0xe0, 0x72657373)\n      0x64\n      dup3\n      add\n      mstore\n      0x84\n      swap1\n      revert\n    tag_130:\n      mload(0x40)\n      shl(0xe5, 0x461bcd)\n      dup2\n      mstore\n      0x20\n      0x04\n      dup3\n      add\n      mstore\n      0x23\n      0x24\n      dup3\n      add\n      mstore\n      0x5661756c744d616e616765722063616e6e6f74206265207a65726f2061646472\n      0x44\n      dup3\n      add\n      mstore\n      shl(0xe8, 0x657373)\n      0x64\n      dup3\n      add\n      mstore\n      0x84\n      swap1\n      revert\n        /* \"@openzeppelin/contracts/access/AccessControl.sol\":3515:3623  if (!hasRole(role, account)) {... */\n    tag_128:\n        /* \"contracts/contracts/contracts/protocol/PoolOrganizer.sol\":428:12806  contract PoolOrganizer is AccessControl, IPoolOrganizer {... */\n      mload(0x40)\n      shl(0xe0, 0xe2517d3f)\n        /* \"@openzeppelin/contracts/access/AccessControl.sol\":3565:3612  AccessControlUnauthorizedAccount(account, role) */\n      dup2\n      mstore\n        /* \"@openzeppelin/contracts/utils/Context.sol\":735:745  msg.sender */\n      caller\n        /* \"contracts/contracts/contracts/protocol/PoolOrganizer.sol\":428:12806  contract PoolOrganizer is AccessControl, IPoolOrganizer {... */\n      0x04\n        /* \"@openzeppelin/contracts/access/AccessControl.sol\":3565:3612  AccessControlUnauthorizedAccount(account, role) */\n      dup3\n      add\n        /* \"contracts/contracts/contracts/protocol/PoolOrganizer.sol\":428:12806  contract PoolOrganizer is AccessControl, IPoolOrganizer {... */\n      mstore\n      0x00\n      0x24\n      dup3\n      add\n      mstore\n      0x44\n      swap1\n        /* \"@openzeppelin/contracts/access/AccessControl.sol\":3565:3612  AccessControlUnauthorizedAccount(account, role) */\n      revert\n        /* \"contracts/contracts/contracts/protocol/PoolOrganizer.sol\":428:12806  contract PoolOrganizer is AccessControl, IPoolOrganizer {... */\n    tag_68:\n      jumpi(tag_84, callvalue)\n      jumpi(tag_84, slt(add(not(0x03), calldatasize), 0x00))\n      sload(0x01)\n        /* \"contracts/contracts/contracts/protocol/PoolOrganizer.sol\":8091:8104  rewardManager */\n      0x02\n        /* \"contracts/contracts/contracts/protocol/PoolOrganizer.sol\":428:12806  contract PoolOrganizer is AccessControl, IPoolOrganizer {... */\n      sload\n      0x40\n      dup1\n      mload\n      sub(shl(0xa0, 0x01), 0x01)\n      swap4\n      dup5\n      and\n      dup2\n      mstore\n      swap3\n      swap1\n      swap2\n      and\n      0x20\n      dup4\n      add\n      mstore\n      swap1\n      return\n    tag_66:\n      jumpi(tag_84, callvalue)\n      jumpi(tag_84, slt(add(not(0x03), calldatasize), 0x00))\n      0x20\n      mload(0x40)\n      0x00\n      dup2\n      mstore\n      return\n    tag_64:\n      jumpi(tag_84, callvalue)\n      jumpi(tag_84, slt(add(not(0x03), calldatasize), 0x40))\n      tag_148\n      tag_2\n      jump\t// in\n    tag_148:\n      mstore(0x00, calldataload(0x04))\n      mstore(0x20, 0x00)\n      keccak256(0x00, 0x40)\n      swap1\n      0x01\n      dup1\n      0xa0\n      shl\n      sub\n      and\n      0x00\n      mstore\n      0x20\n      mstore\n      0x20\n      and(sload(keccak256(0x00, 0x40)), 0xff)\n      mload(0x40)\n      swap1\n      iszero\n      iszero\n      dup2\n      mstore\n      return\n    tag_62:\n      jumpi(tag_84, callvalue)\n      jumpi(tag_84, slt(add(not(0x03), calldatasize), 0x00))\n      sload(0x01)\n      mload(0x40)\n      sub(shl(0xa0, 0x01), 0x01)\n      swap1\n      swap2\n      and\n      dup2\n      mstore\n      0x20\n      swap1\n      return\n    tag_60:\n      jumpi(tag_84, callvalue)\n      0x20\n      dup1\n      add(calldatasize, not(0x03))\n      slt\n      tag_84\n      jumpi\n      tag_157\n      tag_1\n      jump\t// in\n    tag_157:\n      swap1\n      0x01\n      dup1\n      0xa0\n      shl\n      sub\n      swap1\n      dup2\n      dup4\n      and\n      swap3\n      dup4\n      0x00\n      mstore\n      0x04\n      dup3\n      mstore\n        /* \"contracts/contracts/contracts/protocol/PoolOrganizer.sol\":5876:5946  require(poolDetails[pool].lender != address(0), \"Pool not registered\") */\n      tag_158\n        /* \"contracts/contracts/contracts/protocol/PoolOrganizer.sol\":428:12806  contract PoolOrganizer is AccessControl, IPoolOrganizer {... */\n      dup4\n      sload(keccak256(0x00, 0x40))\n      and\n        /* \"contracts/contracts/contracts/protocol/PoolOrganizer.sol\":5884:5922  poolDetails[pool].lender != address(0) */\n      iszero\n      iszero\n        /* \"contracts/contracts/contracts/protocol/PoolOrganizer.sol\":5876:5946  require(poolDetails[pool].lender != address(0), \"Pool not registered\") */\n      tag_20\n      jump\t// in\n    tag_158:\n        /* \"contracts/contracts/contracts/protocol/PoolOrganizer.sol\":428:12806  contract PoolOrganizer is AccessControl, IPoolOrganizer {... */\n      dup4\n      0x00\n      mstore\n      0x04\n      dup3\n      mstore\n      dup3\n      sload(keccak256(0x00, 0x40))\n      and\n      dup1\n      0x00\n      mstore\n        /* \"contracts/contracts/contracts/protocol/PoolOrganizer.sol\":11139:11150  lenderPools */\n      0x05\n        /* \"contracts/contracts/contracts/protocol/PoolOrganizer.sol\":428:12806  contract PoolOrganizer is AccessControl, IPoolOrganizer {... */\n      swap4\n      dup5\n      dup5\n      mstore\n        /* \"contracts/contracts/contracts/protocol/PoolOrganizer.sol\":11122:11165  findIndexInArray(lenderPools[lender], pool) */\n      tag_159\n        /* \"contracts/contracts/contracts/protocol/PoolOrganizer.sol\":428:12806  contract PoolOrganizer is AccessControl, IPoolOrganizer {... */\n      dup4\n      keccak256(0x00, 0x40)\n        /* \"contracts/contracts/contracts/protocol/PoolOrganizer.sol\":11122:11165  findIndexInArray(lenderPools[lender], pool) */\n      tag_27\n      jump\t// in\n    tag_159:\n        /* \"contracts/contracts/contracts/protocol/PoolOrganizer.sol\":428:12806  contract PoolOrganizer is AccessControl, IPoolOrganizer {... */\n      dup3\n      0x00\n      mstore\n      dup6\n      dup6\n      mstore\n      sload(keccak256(0x00, 0x40))\n      swap4\n      not(0x00)\n      swap4\n      dup5\n      dup7\n      add\n      swap6\n      dup7\n      gt\n      tag_167\n      jumpi\n        /* \"contracts/contracts/contracts/protocol/PoolOrganizer.sol\":11235:11294  lenderPools[lender][index] = lenderPools[lender][lastIndex] */\n      tag_162\n        /* \"contracts/contracts/contracts/protocol/PoolOrganizer.sol\":11541:11570  findIndexInArray(pools, pool) */\n      tag_163\n        /* \"contracts/contracts/contracts/protocol/PoolOrganizer.sol\":428:12806  contract PoolOrganizer is AccessControl, IPoolOrganizer {... */\n      swap4\n      dup6\n        /* \"contracts/contracts/contracts/protocol/PoolOrganizer.sol\":11264:11294  lenderPools[lender][lastIndex] */\n      tag_164\n        /* \"contracts/contracts/contracts/protocol/PoolOrganizer.sol\":11235:11261  lenderPools[lender][index] */\n      tag_165\n        /* \"contracts/contracts/contracts/protocol/PoolOrganizer.sol\":428:12806  contract PoolOrganizer is AccessControl, IPoolOrganizer {... */\n      swap10\n      dup6\n      0x00\n      mstore\n      dup13\n      dup13\n      mstore\n      keccak256(0x00, 0x40)\n        /* \"contracts/contracts/contracts/protocol/PoolOrganizer.sol\":11264:11294  lenderPools[lender][lastIndex] */\n      tag_16\n      jump\t// in\n    tag_164:\n        /* \"contracts/contracts/contracts/protocol/PoolOrganizer.sol\":428:12806  contract PoolOrganizer is AccessControl, IPoolOrganizer {... */\n      swap10\n      swap1\n      sload\n      swap3\n      dup6\n      0x00\n      mstore\n      dup13\n      dup13\n      mstore\n      keccak256(0x00, 0x40)\n        /* \"contracts/contracts/contracts/protocol/PoolOrganizer.sol\":11235:11261  lenderPools[lender][index] */\n      tag_16\n      jump\t// in\n    tag_165:\n        /* \"contracts/contracts/contracts/protocol/PoolOrganizer.sol\":428:12806  contract PoolOrganizer is AccessControl, IPoolOrganizer {... */\n      swap2\n      swap1\n      swap3\n      0x03\n      swap11\n      dup12\n      shl\n      shr\n      and\n      swap1\n      dup3\n      sload\n      swap1\n      0x03\n      shl\n      swap2\n      0x01\n      dup1\n      0xa0\n      shl\n      sub\n      dup1\n      swap2\n      and\n      dup4\n      shl\n      swap3\n      shl\n      not\n      and\n      or\n      swap1\n      sstore\n      jump\n        /* \"contracts/contracts/contracts/protocol/PoolOrganizer.sol\":11235:11294  lenderPools[lender][index] = lenderPools[lender][lastIndex] */\n    tag_162:\n        /* \"contracts/contracts/contracts/protocol/PoolOrganizer.sol\":428:12806  contract PoolOrganizer is AccessControl, IPoolOrganizer {... */\n      0x00\n      mstore\n      dup7\n      dup7\n      mstore\n        /* \"contracts/contracts/contracts/protocol/PoolOrganizer.sol\":11304:11327  lenderPools[lender].pop */\n      tag_166\n        /* \"contracts/contracts/contracts/protocol/PoolOrganizer.sol\":428:12806  contract PoolOrganizer is AccessControl, IPoolOrganizer {... */\n      keccak256(0x00, 0x40)\n        /* \"contracts/contracts/contracts/protocol/PoolOrganizer.sol\":11304:11327  lenderPools[lender].pop */\n      tag_25\n      jump\t// in\n    tag_166:\n        /* \"contracts/contracts/contracts/protocol/PoolOrganizer.sol\":11541:11570  findIndexInArray(pools, pool) */\n      tag_26\n      jump\t// in\n    tag_163:\n        /* \"contracts/contracts/contracts/protocol/PoolOrganizer.sol\":428:12806  contract PoolOrganizer is AccessControl, IPoolOrganizer {... */\n      dup4\n      sload\n      dup4\n      dup2\n      add\n      swap1\n      dup2\n      gt\n      tag_167\n      jumpi\n        /* \"contracts/contracts/contracts/protocol/PoolOrganizer.sol\":11626:11657  pools[index] = pools[lastIndex] */\n      tag_169\n        /* \"contracts/contracts/contracts/protocol/PoolOrganizer.sol\":11641:11657  pools[lastIndex] */\n      swap3\n      tag_170\n        /* \"contracts/contracts/contracts/protocol/PoolOrganizer.sol\":11626:11638  pools[index] */\n      tag_171\n        /* \"contracts/contracts/contracts/protocol/PoolOrganizer.sol\":11641:11657  pools[lastIndex] */\n      swap3\n      tag_15\n      jump\t// in\n    tag_170:\n        /* \"contracts/contracts/contracts/protocol/PoolOrganizer.sol\":428:12806  contract PoolOrganizer is AccessControl, IPoolOrganizer {... */\n      swap1\n      sload\n      swap1\n      dup8\n      shl\n      shr\n      and\n        /* \"contracts/contracts/contracts/protocol/PoolOrganizer.sol\":11626:11638  pools[index] */\n      swap2\n      tag_15\n      jump\t// in\n    tag_171:\n        /* \"contracts/contracts/contracts/protocol/PoolOrganizer.sol\":11626:11657  pools[index] = pools[lastIndex] */\n      swap1\n        /* \"contracts/contracts/contracts/protocol/PoolOrganizer.sol\":428:12806  contract PoolOrganizer is AccessControl, IPoolOrganizer {... */\n      swap2\n      swap1\n      dup3\n      sload\n      swap1\n      0x03\n      shl\n      swap2\n      0x01\n      dup1\n      0xa0\n      shl\n      sub\n      dup1\n      swap2\n      and\n      dup4\n      shl\n      swap3\n      shl\n      not\n      and\n      or\n      swap1\n      sstore\n      jump\n        /* \"contracts/contracts/contracts/protocol/PoolOrganizer.sol\":11626:11657  pools[index] = pools[lastIndex] */\n    tag_169:\n        /* \"contracts/contracts/contracts/protocol/PoolOrganizer.sol\":428:12806  contract PoolOrganizer is AccessControl, IPoolOrganizer {... */\n      dup2\n      sload\n      swap4\n      dup5\n      iszero\n      tag_172\n      jumpi\n      0x04\n      0x0a\n      swap5\n      0x00\n      swap7\n      swap4\n      dup8\n      swap5\n      add\n      tag_174\n      tag_175\n      dup3\n      tag_15\n      jump\t// in\n    tag_175:\n      dup2\n      sload\n      swap1\n      0x01\n      dup1\n      0xa0\n      shl\n      sub\n      swap1\n      0x03\n      shl\n      shl\n      not\n      and\n      swap1\n      sstore\n      jump\n    tag_174:\n      dup6\n      sstore\n      dup8\n      dup5\n      mstore\n      mstore\n      dup2\n      0x40\n      dup2\n      keccak256\n      swap4\n      dup2\n      dup6\n      sstore\n      dup2\n      0x01\n      dup7\n      add\n      sstore\n      dup2\n      0x02\n      dup7\n      add\n      sstore\n      dup5\n      add\n      sstore\n      dup2\n      0x04\n      dup5\n      add\n      sstore\n      dup3\n      add\n      sstore\n      dup3\n      0x06\n      dup3\n      add\n      sstore\n      dup3\n      0x07\n      dup3\n      add\n      sstore\n      dup3\n      0x08\n      dup3\n      add\n      sstore\n      dup3\n      0x09\n      dup3\n      add\n      sstore\n      add\n      sstore\n        /* \"contracts/contracts/contracts/protocol/PoolOrganizer.sol\":6138:6160  PoolDeregistered(pool) */\n      0x334d0b2111287dfddebe4b4c1c5af3ae644909d7fcd024377bf601e236ed5abb\n        /* \"contracts/contracts/contracts/protocol/PoolOrganizer.sol\":428:12806  contract PoolOrganizer is AccessControl, IPoolOrganizer {... */\n      0x00\n        /* \"contracts/contracts/contracts/protocol/PoolOrganizer.sol\":6138:6160  PoolDeregistered(pool) */\n      dup1\n      log2\n        /* \"contracts/contracts/contracts/protocol/PoolOrganizer.sol\":428:12806  contract PoolOrganizer is AccessControl, IPoolOrganizer {... */\n      stop\n    tag_172:\n      mstore(0x00, shl(0xe0, 0x4e487b71))\n      mstore(0x04, 0x31)\n      revert(0x00, 0x24)\n    tag_167:\n      mstore(0x00, shl(0xe0, 0x4e487b71))\n      mstore(0x04, 0x11)\n      revert(0x00, 0x24)\n    tag_58:\n      jumpi(tag_84, callvalue)\n      jumpi(tag_84, slt(add(not(0x03), calldatasize), 0x20))\n      sub(shl(0xa0, 0x01), 0x01)\n      dup1\n      tag_180\n      tag_1\n      jump\t// in\n    tag_180:\n      and\n      swap1\n      dup2\n      0x00\n      mstore\n        /* \"contracts/contracts/contracts/protocol/PoolOrganizer.sol\":9326:9336  poolVaults */\n      0x06\n        /* \"contracts/contracts/contracts/protocol/PoolOrganizer.sol\":428:12806  contract PoolOrganizer is AccessControl, IPoolOrganizer {... */\n      0x20\n      mstore\n      dup1\n      sload(keccak256(0x00, 0x40))\n      and\n        /* \"contracts/contracts/contracts/protocol/PoolOrganizer.sol\":9326:9356  poolVaults[pool] != address(0) */\n      iszero\n        /* \"contracts/contracts/contracts/protocol/PoolOrganizer.sol\":428:12806  contract PoolOrganizer is AccessControl, IPoolOrganizer {... */\n      tag_181\n      jumpi\n      0x20\n      swap2\n      0x00\n      mstore\n        /* \"contracts/contracts/contracts/protocol/PoolOrganizer.sol\":9326:9336  poolVaults */\n      0x06\n        /* \"contracts/contracts/contracts/protocol/PoolOrganizer.sol\":428:12806  contract PoolOrganizer is AccessControl, IPoolOrganizer {... */\n      dup3\n      mstore\n      sload(keccak256(0x00, 0x40))\n      and\n      mload(0x40)\n      swap1\n      dup2\n      mstore\n      return\n    tag_181:\n      mload(0x40)\n      shl(0xe5, 0x461bcd)\n      dup2\n      mstore\n      0x20\n      0x04\n      dup3\n      add\n      mstore\n      0x23\n      0x24\n      dup3\n      add\n      mstore\n      0x506f6f6c206e6f742072656769737465726564206f7220686173206e6f207661\n      0x44\n      dup3\n      add\n      mstore\n      shl(0xea, 0x1d5b1d)\n      0x64\n      dup3\n      add\n      mstore\n      0x84\n      swap1\n      revert\n    tag_56:\n      jumpi(tag_84, callvalue)\n      0x20\n      dup1\n      add(calldatasize, not(0x03))\n      slt\n      tag_84\n      jumpi\n      tag_187\n      tag_1\n      jump\t// in\n    tag_187:\n      0x00\n      dup1\n      mstore\n      0x00\n      dup3\n      mstore\n      keccak256(0x00, 0x40)\n        /* \"contracts/contracts/contracts/protocol/PoolOrganizer.sol\":9936:9946  msg.sender */\n      caller\n        /* \"contracts/contracts/contracts/protocol/PoolOrganizer.sol\":428:12806  contract PoolOrganizer is AccessControl, IPoolOrganizer {... */\n      0x00\n      mstore\n      dup3\n      mstore\n      jumpi(tag_188, iszero(and(sload(keccak256(0x00, 0x40)), 0xff)))\n      0x00\n        /* \"@openzeppelin/contracts/access/AccessControl.sol\":4330:4355  _grantRole(role, account) */\n      tag_96\n        /* \"contracts/contracts/contracts/protocol/PoolOrganizer.sol\":428:12806  contract PoolOrganizer is AccessControl, IPoolOrganizer {... */\n      swap3\n        /* \"contracts/contracts/contracts/protocol/PoolOrganizer.sol\":534:564  keccak256(\"POOL_MANAGER_ROLE\") */\n      0x6077685936c8169d09204a1d97db12e41713588c38e1d29a61867d3dcee98aff\n        /* \"contracts/contracts/contracts/protocol/PoolOrganizer.sol\":428:12806  contract PoolOrganizer is AccessControl, IPoolOrganizer {... */\n      dup3\n      mstore\n      dup2\n      dup2\n      mstore\n        /* \"@openzeppelin/contracts/access/AccessControl.sol\":2475:2479  role */\n      tag_191\n        /* \"@openzeppelin/contracts/access/AccessControl.sol\":3901:3923  _roles[role].adminRole */\n      0x01\n        /* \"contracts/contracts/contracts/protocol/PoolOrganizer.sol\":428:12806  contract PoolOrganizer is AccessControl, IPoolOrganizer {... */\n      0x40\n      dup5\n      keccak256\n        /* \"@openzeppelin/contracts/access/AccessControl.sol\":3901:3923  _roles[role].adminRole */\n      add\n        /* \"contracts/contracts/contracts/protocol/PoolOrganizer.sol\":428:12806  contract PoolOrganizer is AccessControl, IPoolOrganizer {... */\n      sload\n        /* \"@openzeppelin/contracts/access/AccessControl.sol\":2475:2479  role */\n      tag_7\n      jump\t// in\n    tag_191:\n        /* \"@openzeppelin/contracts/access/AccessControl.sol\":4330:4355  _grantRole(role, account) */\n      tag_192\n      dup4\n      tag_8\n      jump\t// in\n    tag_192:\n      pop\n        /* \"contracts/contracts/contracts/protocol/PoolOrganizer.sol\":428:12806  contract PoolOrganizer is AccessControl, IPoolOrganizer {... */\n      dup2\n      dup1\n      mstore\n      mstore\n        /* \"@openzeppelin/contracts/access/AccessControl.sol\":2475:2479  role */\n      tag_193\n        /* \"@openzeppelin/contracts/access/AccessControl.sol\":3901:3923  _roles[role].adminRole */\n      0x01\n        /* \"contracts/contracts/contracts/protocol/PoolOrganizer.sol\":428:12806  contract PoolOrganizer is AccessControl, IPoolOrganizer {... */\n      keccak256(0x00, 0x40)\n        /* \"@openzeppelin/contracts/access/AccessControl.sol\":3901:3923  _roles[role].adminRole */\n      add\n        /* \"contracts/contracts/contracts/protocol/PoolOrganizer.sol\":428:12806  contract PoolOrganizer is AccessControl, IPoolOrganizer {... */\n      sload\n        /* \"@openzeppelin/contracts/access/AccessControl.sol\":2475:2479  role */\n      tag_7\n      jump\t// in\n    tag_193:\n        /* \"@openzeppelin/contracts/access/AccessControl.sol\":4330:4355  _grantRole(role, account) */\n      tag_9\n      jump\t// in\n        /* \"contracts/contracts/contracts/protocol/PoolOrganizer.sol\":428:12806  contract PoolOrganizer is AccessControl, IPoolOrganizer {... */\n    tag_188:\n      mload(0x40)\n      shl(0xe5, 0x461bcd)\n      dup2\n      mstore\n      0x04\n      dup2\n      add\n      dup4\n      swap1\n      mstore\n      0x16\n      0x24\n      dup3\n      add\n      mstore\n      shl(0x51, 0x21b0b63632b91034b9903737ba1030b71030b236b4b7)\n      0x44\n      dup3\n      add\n      mstore\n      0x64\n      swap1\n      revert\n    tag_54:\n      jumpi(tag_84, callvalue)\n      jumpi(tag_84, slt(add(not(0x03), calldatasize), 0x00))\n      0x20\n      mload(0x40)\n        /* \"contracts/contracts/contracts/protocol/PoolOrganizer.sol\":534:564  keccak256(\"POOL_MANAGER_ROLE\") */\n      0x6077685936c8169d09204a1d97db12e41713588c38e1d29a61867d3dcee98aff\n        /* \"contracts/contracts/contracts/protocol/PoolOrganizer.sol\":428:12806  contract PoolOrganizer is AccessControl, IPoolOrganizer {... */\n      dup2\n      mstore\n      return\n    tag_52:\n      jumpi(tag_84, callvalue)\n      0x20\n      dup1\n      add(calldatasize, not(0x03))\n      slt\n      tag_84\n      jumpi\n      sub(shl(0xa0, 0x01), 0x01)\n      swap1\n      dup2\n      tag_202\n      tag_1\n      jump\t// in\n    tag_202:\n      and\n      0x00\n      mstore\n        /* \"contracts/contracts/contracts/protocol/PoolOrganizer.sol\":4947:4958  lenderPools */\n      0x05\n        /* \"contracts/contracts/contracts/protocol/PoolOrganizer.sol\":428:12806  contract PoolOrganizer is AccessControl, IPoolOrganizer {... */\n      swap1\n      dup2\n      dup2\n      mstore\n      keccak256(0x00, 0x40)\n      swap2\n      mload(0x40)\n      dup1\n      dup5\n      dup5\n      dup3\n      swap7\n      sload\n      swap4\n      dup5\n      dup2\n      mstore\n      add\n      swap1\n      0x00\n      mstore\n      dup5\n      0x00\n      keccak256\n      swap3\n      0x00\n    tag_203:\n      dup7\n      dup3\n      dup3\n      lt\n      tag_204\n      jumpi\n      pop\n      pop\n      pop\n      tag_206\n      swap3\n      pop\n      sub\n      dup5\n      tag_13\n      jump\t// in\n    tag_206:\n      dup3\n      mload\n      swap4\n      tag_207\n      dup6\n      tag_21\n      jump\t// in\n    tag_207:\n      swap5\n      tag_208\n      mload(0x40)\n      swap7\n      dup8\n      tag_13\n      jump\t// in\n    tag_208:\n      dup1\n      dup7\n      mstore\n      tag_209\n      not(0x1f)\n      swap2\n      tag_21\n      jump\t// in\n    tag_209:\n      add\n      dup4\n      0x00\n    tag_210:\n      dup3\n      dup2\n      lt\n      tag_211\n      jumpi\n        /* \"contracts/contracts/contracts/protocol/PoolOrganizer.sol\":5137:5150  uint256 i = 0 */\n      pop\n      pop\n      pop\n        /* \"contracts/contracts/contracts/protocol/PoolOrganizer.sol\":428:12806  contract PoolOrganizer is AccessControl, IPoolOrganizer {... */\n      0x00\n        /* \"contracts/contracts/contracts/protocol/PoolOrganizer.sol\":5181:5184  i++ */\n    tag_213:\n        /* \"contracts/contracts/contracts/protocol/PoolOrganizer.sol\":428:12806  contract PoolOrganizer is AccessControl, IPoolOrganizer {... */\n      dup5\n      mload\n        /* \"contracts/contracts/contracts/protocol/PoolOrganizer.sol\":5152:5179  i < lenderPoolsArray.length */\n      dup2\n      lt\n      iszero\n      tag_214\n      jumpi\n        /* \"contracts/contracts/contracts/protocol/PoolOrganizer.sol\":5225:5244  lenderPoolsArray[i] */\n      dup1\n      dup3\n      tag_216\n        /* \"contracts/contracts/contracts/protocol/PoolOrganizer.sol\":5181:5184  i++ */\n      tag_217\n        /* \"contracts/contracts/contracts/protocol/PoolOrganizer.sol\":5225:5244  lenderPoolsArray[i] */\n      swap4\n      dup9\n      tag_24\n      jump\t// in\n    tag_216:\n        /* \"contracts/contracts/contracts/protocol/PoolOrganizer.sol\":428:12806  contract PoolOrganizer is AccessControl, IPoolOrganizer {... */\n      mload\n      and\n      0x00\n      mstore\n      0x04\n      dup6\n      mstore\n      keccak256(0x00, 0x40)\n      mload(0x40)\n      swap1\n      tag_218\n      dup3\n      tag_12\n      jump\t// in\n    tag_218:\n      dup5\n      dup2\n      sload\n      and\n      dup3\n      mstore\n      dup5\n      0x01\n      dup3\n      add\n      sload\n      and\n      dup8\n      dup4\n      add\n      mstore\n      0x02\n      dup2\n      add\n      sload\n      0x40\n      dup4\n      add\n      mstore\n      dup5\n      0x03\n      dup3\n      add\n      sload\n      and\n      0x60\n      dup4\n      add\n      mstore\n      dup5\n      0x04\n      dup3\n      add\n      sload\n      and\n      0x80\n      dup4\n      add\n      mstore\n      dup5\n      dup7\n      dup3\n      add\n      sload\n      and\n      0xa0\n      dup4\n      add\n      mstore\n      dup5\n      0x06\n      dup3\n      add\n      sload\n      and\n      0xc0\n      dup4\n      add\n      mstore\n      0x07\n      dup2\n      add\n      sload\n      0xe0\n      dup4\n      add\n      mstore\n      0x0a\n      0x08\n      swap2\n      dup3\n      dup2\n      add\n      sload\n      0x0100\n      dup6\n      add\n      mstore\n      0x09\n      dup2\n      add\n      sload\n      0x0120\n      dup6\n      add\n      mstore\n      add\n      sload\n      0xff\n      swap2\n      tag_219\n      dup4\n      dup4\n      and\n      0x0140\n      dup7\n      add\n      tag_14\n      jump\t// in\n    tag_219:\n      shr\n      and\n      iszero\n      iszero\n      0x0160\n      dup3\n      add\n      mstore\n        /* \"contracts/contracts/contracts/protocol/PoolOrganizer.sol\":5200:5245  details[i] = poolDetails[lenderPoolsArray[i]] */\n      tag_220\n      dup3\n      dup10\n      tag_24\n      jump\t// in\n    tag_220:\n      mstore\n      tag_221\n      dup2\n      dup9\n      tag_24\n      jump\t// in\n    tag_221:\n      pop\n        /* \"contracts/contracts/contracts/protocol/PoolOrganizer.sol\":5181:5184  i++ */\n      tag_23\n      jump\t// in\n    tag_217:\n        /* \"contracts/contracts/contracts/protocol/PoolOrganizer.sol\":5137:5150  uint256 i = 0 */\n      jump(tag_213)\n        /* \"contracts/contracts/contracts/protocol/PoolOrganizer.sol\":5152:5179  i < lenderPoolsArray.length */\n    tag_214:\n        /* \"contracts/contracts/contracts/protocol/PoolOrganizer.sol\":428:12806  contract PoolOrganizer is AccessControl, IPoolOrganizer {... */\n      0x40\n      dup1\n      mload\n      dup6\n      dup2\n      mstore\n      dup8\n      mload\n      dup2\n      dup8\n      add\n      dup2\n      swap1\n      mstore\n      dup9\n      dup8\n      add\n      swap3\n      dup3\n      add\n      swap1\n        /* \"contracts/contracts/contracts/protocol/PoolOrganizer.sol\":5152:5179  i < lenderPoolsArray.length */\n      dup8\n        /* \"contracts/contracts/contracts/protocol/PoolOrganizer.sol\":428:12806  contract PoolOrganizer is AccessControl, IPoolOrganizer {... */\n      0x00\n    tag_222:\n      dup3\n      dup2\n      lt\n      tag_223\n      jumpi\n      dup5\n      dup5\n      sub\n      dup6\n      return\n    tag_223:\n      swap1\n      swap2\n      swap3\n      dup3\n      0x0180\n      dup3\n      tag_225\n      0x01\n      swap5\n      dup11\n      mload\n      tag_5\n      jump\t// in\n    tag_225:\n      add\n      swap7\n      add\n      swap2\n      add\n      swap5\n      swap3\n      swap2\n      swap1\n      swap5\n      jump(tag_222)\n    tag_211:\n      tag_226\n      tag_22\n      jump\t// in\n    tag_226:\n      dup3\n      dup3\n      dup11\n      add\n      add\n      mstore\n      add\n      dup5\n      swap1\n      jump(tag_210)\n    tag_204:\n      dup6\n      sload\n      dup11\n      and\n      dup5\n      mstore\n      0x01\n      swap6\n      dup7\n      add\n      swap6\n      dup10\n      swap6\n      pop\n      swap4\n      add\n      swap3\n      add\n      jump(tag_203)\n    tag_50:\n      jumpi(tag_84, callvalue)\n      jumpi(tag_84, slt(add(not(0x03), calldatasize), 0x0160))\n      tag_231\n      tag_1\n      jump\t// in\n    tag_231:\n      tag_232\n      tag_2\n      jump\t// in\n    tag_232:\n      swap1\n      calldataload(0x44)\n      sub(shl(0xa0, 0x01), 0x01)\n      dup2\n      and\n      dup2\n      sub\n      tag_84\n      jumpi\n      calldataload(0x64)\n      swap1\n      sub(shl(0xa0, 0x01), 0x01)\n      dup3\n      and\n      dup3\n      sub\n      tag_84\n      jumpi\n      calldataload(0x84)\n      sub(shl(0xa0, 0x01), 0x01)\n      dup2\n      and\n      dup2\n      sub\n      tag_84\n      jumpi\n      calldataload(0xa4)\n      sub(shl(0xa0, 0x01), 0x01)\n      dup2\n      and\n      dup2\n      sub\n      tag_84\n      jumpi\n      calldataload(0xc4)\n      swap1\n      sub(shl(0xa0, 0x01), 0x01)\n      dup3\n      and\n      dup3\n      sub\n      tag_84\n      jumpi\n      jumpi(tag_84, iszero(lt(calldataload(0x0144), 0x02)))\n      sub(shl(0xa0, 0x01), 0x01)\n      dup7\n      and\n        /* \"contracts/contracts/contracts/protocol/PoolOrganizer.sol\":3418:3436  pool != address(0) */\n      iszero\n        /* \"contracts/contracts/contracts/protocol/PoolOrganizer.sol\":428:12806  contract PoolOrganizer is AccessControl, IPoolOrganizer {... */\n      tag_245\n      jumpi\n      sub(shl(0xa0, 0x01), 0x01)\n      dup7\n      dup2\n      and\n      0x00\n      swap1\n      dup2\n      mstore\n      mstore(0x20, 0x04)\n      0x40\n      swap1\n      keccak256\n      sload\n      and\n      tag_247\n      jumpi\n      mload(0x40)\n      swap3\n      tag_249\n      dup5\n      tag_12\n      jump\t// in\n    tag_249:\n      sub(shl(0xa0, 0x01), 0x01)\n      dup9\n      dup2\n      and\n      dup6\n      mstore\n      dup6\n      dup2\n      and\n      0x20\n        /* \"contracts/contracts/contracts/protocol/PoolOrganizer.sol\":3617:4079  IPoolOrganizer.PoolDetails({... */\n      dup7\n      add\n        /* \"contracts/contracts/contracts/protocol/PoolOrganizer.sol\":428:12806  contract PoolOrganizer is AccessControl, IPoolOrganizer {... */\n      mstore\n        /* \"contracts/contracts/contracts/protocol/PoolOrganizer.sol\":3732:3747  block.timestamp */\n      timestamp\n        /* \"contracts/contracts/contracts/protocol/PoolOrganizer.sol\":428:12806  contract PoolOrganizer is AccessControl, IPoolOrganizer {... */\n      0x40\n        /* \"contracts/contracts/contracts/protocol/PoolOrganizer.sol\":3617:4079  IPoolOrganizer.PoolDetails({... */\n      dup7\n      add\n        /* \"contracts/contracts/contracts/protocol/PoolOrganizer.sol\":428:12806  contract PoolOrganizer is AccessControl, IPoolOrganizer {... */\n      mstore\n      dup7\n      dup2\n      and\n      0x60\n        /* \"contracts/contracts/contracts/protocol/PoolOrganizer.sol\":3617:4079  IPoolOrganizer.PoolDetails({... */\n      dup7\n      add\n        /* \"contracts/contracts/contracts/protocol/PoolOrganizer.sol\":428:12806  contract PoolOrganizer is AccessControl, IPoolOrganizer {... */\n      mstore\n      swap1\n      dup2\n      and\n      0x80\n        /* \"contracts/contracts/contracts/protocol/PoolOrganizer.sol\":3617:4079  IPoolOrganizer.PoolDetails({... */\n      dup6\n      add\n        /* \"contracts/contracts/contracts/protocol/PoolOrganizer.sol\":428:12806  contract PoolOrganizer is AccessControl, IPoolOrganizer {... */\n      mstore\n      swap1\n      dup2\n      and\n      0xa0\n        /* \"contracts/contracts/contracts/protocol/PoolOrganizer.sol\":3617:4079  IPoolOrganizer.PoolDetails({... */\n      dup5\n      add\n        /* \"contracts/contracts/contracts/protocol/PoolOrganizer.sol\":428:12806  contract PoolOrganizer is AccessControl, IPoolOrganizer {... */\n      mstore\n      and\n      0xc0\n        /* \"contracts/contracts/contracts/protocol/PoolOrganizer.sol\":3617:4079  IPoolOrganizer.PoolDetails({... */\n      dup3\n      add\n        /* \"contracts/contracts/contracts/protocol/PoolOrganizer.sol\":428:12806  contract PoolOrganizer is AccessControl, IPoolOrganizer {... */\n      mstore\n      calldataload(0xe4)\n      0xe0\n        /* \"contracts/contracts/contracts/protocol/PoolOrganizer.sol\":3617:4079  IPoolOrganizer.PoolDetails({... */\n      dup3\n      add\n        /* \"contracts/contracts/contracts/protocol/PoolOrganizer.sol\":428:12806  contract PoolOrganizer is AccessControl, IPoolOrganizer {... */\n      mstore\n      calldataload(0x0104)\n      0x0100\n        /* \"contracts/contracts/contracts/protocol/PoolOrganizer.sol\":3617:4079  IPoolOrganizer.PoolDetails({... */\n      dup3\n      add\n        /* \"contracts/contracts/contracts/protocol/PoolOrganizer.sol\":428:12806  contract PoolOrganizer is AccessControl, IPoolOrganizer {... */\n      mstore\n      calldataload(0x0124)\n      0x0120\n        /* \"contracts/contracts/contracts/protocol/PoolOrganizer.sol\":3617:4079  IPoolOrganizer.PoolDetails({... */\n      dup3\n      add\n        /* \"contracts/contracts/contracts/protocol/PoolOrganizer.sol\":428:12806  contract PoolOrganizer is AccessControl, IPoolOrganizer {... */\n      mstore\n        /* \"contracts/contracts/contracts/protocol/PoolOrganizer.sol\":3617:4079  IPoolOrganizer.PoolDetails({... */\n      tag_250\n        /* \"contracts/contracts/contracts/protocol/PoolOrganizer.sol\":428:12806  contract PoolOrganizer is AccessControl, IPoolOrganizer {... */\n      calldataload(0x0144)\n      0x0140\n        /* \"contracts/contracts/contracts/protocol/PoolOrganizer.sol\":3617:4079  IPoolOrganizer.PoolDetails({... */\n      dup4\n      add\n      tag_14\n      jump\t// in\n    tag_250:\n        /* \"contracts/contracts/contracts/protocol/PoolOrganizer.sol\":428:12806  contract PoolOrganizer is AccessControl, IPoolOrganizer {... */\n      0x00\n      0x0160\n        /* \"contracts/contracts/contracts/protocol/PoolOrganizer.sol\":3617:4079  IPoolOrganizer.PoolDetails({... */\n      dup3\n      add\n        /* \"contracts/contracts/contracts/protocol/PoolOrganizer.sol\":428:12806  contract PoolOrganizer is AccessControl, IPoolOrganizer {... */\n      mstore\n      0x01\n      dup1\n      0xa0\n      shl\n      sub\n      dup5\n      and\n      0x00\n      mstore\n      mstore(0x20, 0x04)\n      0x0a\n      keccak256(0x00, 0x40)\n      0x01\n      dup1\n      0xa0\n      shl\n      sub\n      dup4\n      mload\n      and\n      shl(0xa0, sub(shl(0x60, 0x01), 0x01))\n      swap1\n      dup2\n      dup4\n      sload\n      and\n      or\n      dup3\n      sstore\n      0x01\n      dup3\n      add\n      0x01\n      dup1\n      0xa0\n      shl\n      sub\n      0x20\n        /* \"contracts/contracts/contracts/protocol/PoolOrganizer.sol\":3617:4079  IPoolOrganizer.PoolDetails({... */\n      dup7\n      add\n        /* \"contracts/contracts/contracts/protocol/PoolOrganizer.sol\":428:12806  contract PoolOrganizer is AccessControl, IPoolOrganizer {... */\n      mload\n      and\n      dup3\n      dup3\n      sload\n      and\n      or\n      swap1\n      sstore\n      0x40\n        /* \"contracts/contracts/contracts/protocol/PoolOrganizer.sol\":3617:4079  IPoolOrganizer.PoolDetails({... */\n      dup5\n      add\n        /* \"contracts/contracts/contracts/protocol/PoolOrganizer.sol\":428:12806  contract PoolOrganizer is AccessControl, IPoolOrganizer {... */\n      mload\n      0x02\n      dup4\n      add\n      sstore\n      0x03\n      dup3\n      add\n      0x01\n      dup1\n      0xa0\n      shl\n      sub\n      0x60\n        /* \"contracts/contracts/contracts/protocol/PoolOrganizer.sol\":3617:4079  IPoolOrganizer.PoolDetails({... */\n      dup7\n      add\n        /* \"contracts/contracts/contracts/protocol/PoolOrganizer.sol\":428:12806  contract PoolOrganizer is AccessControl, IPoolOrganizer {... */\n      mload\n      and\n      dup3\n      dup3\n      sload\n      and\n      or\n      swap1\n      sstore\n      0x04\n      dup3\n      add\n      0x01\n      dup1\n      0xa0\n      shl\n      sub\n      0x80\n        /* \"contracts/contracts/contracts/protocol/PoolOrganizer.sol\":3617:4079  IPoolOrganizer.PoolDetails({... */\n      dup7\n      add\n        /* \"contracts/contracts/contracts/protocol/PoolOrganizer.sol\":428:12806  contract PoolOrganizer is AccessControl, IPoolOrganizer {... */\n      mload\n      and\n      dup3\n      dup3\n      sload\n      and\n      or\n      swap1\n      sstore\n      0x05\n      dup3\n      add\n      0x01\n      dup1\n      0xa0\n      shl\n      sub\n      0xa0\n        /* \"contracts/contracts/contracts/protocol/PoolOrganizer.sol\":3617:4079  IPoolOrganizer.PoolDetails({... */\n      dup7\n      add\n        /* \"contracts/contracts/contracts/protocol/PoolOrganizer.sol\":428:12806  contract PoolOrganizer is AccessControl, IPoolOrganizer {... */\n      mload\n      and\n      dup3\n      dup3\n      sload\n      and\n      or\n      swap1\n      sstore\n      0x06\n      dup3\n      add\n      swap1\n      0x01\n      dup1\n      0xa0\n      shl\n      sub\n      0xc0\n        /* \"contracts/contracts/contracts/protocol/PoolOrganizer.sol\":3617:4079  IPoolOrganizer.PoolDetails({... */\n      dup7\n      add\n        /* \"contracts/contracts/contracts/protocol/PoolOrganizer.sol\":428:12806  contract PoolOrganizer is AccessControl, IPoolOrganizer {... */\n      mload\n      and\n      swap1\n      dup3\n      sload\n      and\n      or\n      swap1\n      sstore\n      0xe0\n        /* \"contracts/contracts/contracts/protocol/PoolOrganizer.sol\":3617:4079  IPoolOrganizer.PoolDetails({... */\n      dup4\n      add\n        /* \"contracts/contracts/contracts/protocol/PoolOrganizer.sol\":428:12806  contract PoolOrganizer is AccessControl, IPoolOrganizer {... */\n      mload\n      0x07\n      dup3\n      add\n      sstore\n      0x0100\n        /* \"contracts/contracts/contracts/protocol/PoolOrganizer.sol\":3617:4079  IPoolOrganizer.PoolDetails({... */\n      dup4\n      add\n        /* \"contracts/contracts/contracts/protocol/PoolOrganizer.sol\":428:12806  contract PoolOrganizer is AccessControl, IPoolOrganizer {... */\n      mload\n      0x08\n      dup3\n      add\n      sstore\n      0x0120\n        /* \"contracts/contracts/contracts/protocol/PoolOrganizer.sol\":3617:4079  IPoolOrganizer.PoolDetails({... */\n      dup4\n      add\n        /* \"contracts/contracts/contracts/protocol/PoolOrganizer.sol\":428:12806  contract PoolOrganizer is AccessControl, IPoolOrganizer {... */\n      mload\n      0x09\n      dup3\n      add\n      sstore\n      add\n        /* \"contracts/contracts/contracts/protocol/PoolOrganizer.sol\":3617:4079  IPoolOrganizer.PoolDetails({... */\n      swap1\n        /* \"contracts/contracts/contracts/protocol/PoolOrganizer.sol\":428:12806  contract PoolOrganizer is AccessControl, IPoolOrganizer {... */\n      0x0140\n        /* \"contracts/contracts/contracts/protocol/PoolOrganizer.sol\":3617:4079  IPoolOrganizer.PoolDetails({... */\n      dup2\n      add\n        /* \"contracts/contracts/contracts/protocol/PoolOrganizer.sol\":428:12806  contract PoolOrganizer is AccessControl, IPoolOrganizer {... */\n      mload\n      swap1\n      0x02\n      dup3\n      lt\n      iszero\n      tag_251\n      jumpi\n      0xff\n      0xff00\n      0x0160\n      dup6\n      sload\n        /* \"contracts/contracts/contracts/protocol/PoolOrganizer.sol\":3617:4079  IPoolOrganizer.PoolDetails({... */\n      swap4\n      add\n        /* \"contracts/contracts/contracts/protocol/PoolOrganizer.sol\":428:12806  contract PoolOrganizer is AccessControl, IPoolOrganizer {... */\n      mload\n      iszero\n      iszero\n      0x08\n      shl\n      and\n      swap3\n      and\n      swap1\n      not(0xffff)\n      and\n      or\n      or\n      swap1\n      sstore\n      0x01\n      dup1\n      0xa0\n      shl\n      sub\n      dup5\n      and\n      0x00\n      mstore\n      mstore(0x20, 0x05)\n        /* \"contracts/contracts/contracts/protocol/PoolOrganizer.sol\":4089:4119  lenderPools[lender].push(pool) */\n      tag_253\n        /* \"contracts/contracts/contracts/protocol/PoolOrganizer.sol\":428:12806  contract PoolOrganizer is AccessControl, IPoolOrganizer {... */\n      dup4\n      keccak256(0x00, 0x40)\n        /* \"contracts/contracts/contracts/protocol/PoolOrganizer.sol\":4089:4119  lenderPools[lender].push(pool) */\n      tag_19\n      jump\t// in\n    tag_253:\n        /* \"contracts/contracts/contracts/protocol/PoolOrganizer.sol\":428:12806  contract PoolOrganizer is AccessControl, IPoolOrganizer {... */\n      sload(0x03)\n      shl(0x40, 0x01)\n      dup2\n      lt\n      iszero\n      tag_254\n      jumpi\n        /* \"contracts/contracts/contracts/protocol/PoolOrganizer.sol\":4160:4215  PoolRegistered(pool, lender, borrower, vault, poolType) */\n      0x8f723e49dc038e67c41b41307a1e0c65653d50125a0c474a21ac32d9a0b24d2b\n        /* \"contracts/contracts/contracts/protocol/PoolOrganizer.sol\":428:12806  contract PoolOrganizer is AccessControl, IPoolOrganizer {... */\n      swap2\n      tag_256\n      dup6\n      tag_171\n      dup5\n      0x01\n      0x40\n      swap7\n      add\n      0x03\n      sstore\n      tag_15\n      jump\t// in\n    tag_256:\n      dup2\n      mload\n      sub(shl(0xa0, 0x01), 0x01)\n      swap1\n      swap5\n      and\n      dup5\n      mstore\n      tag_258\n      0x20\n      dup6\n      add\n      calldataload(0x0144)\n      tag_4\n      jump\t// in\n    tag_258:\n      sub(shl(0xa0, 0x01), 0x01)\n      swap1\n      dup2\n      and\n      swap6\n      dup2\n      and\n      swap5\n      and\n      swap3\n        /* \"contracts/contracts/contracts/protocol/PoolOrganizer.sol\":4160:4215  PoolRegistered(pool, lender, borrower, vault, poolType) */\n      log4\n        /* \"contracts/contracts/contracts/protocol/PoolOrganizer.sol\":428:12806  contract PoolOrganizer is AccessControl, IPoolOrganizer {... */\n      stop\n    tag_254:\n      mstore(0x00, shl(0xe0, 0x4e487b71))\n      mstore(0x04, 0x41)\n      revert(0x00, 0x24)\n    tag_251:\n      mstore(0x00, shl(0xe0, 0x4e487b71))\n      mstore(0x04, 0x21)\n      revert(0x00, 0x24)\n    tag_247:\n      mload(0x40)\n      shl(0xe5, 0x461bcd)\n      dup2\n      mstore\n      0x20\n      0x04\n      dup3\n      add\n      mstore\n      0x17\n      0x24\n      dup3\n      add\n      mstore\n      0x506f6f6c20616c72656164792072656769737465726564000000000000000000\n      0x44\n      dup3\n      add\n      mstore\n      0x64\n      swap1\n      revert\n    tag_245:\n      mload(0x40)\n      shl(0xe5, 0x461bcd)\n      dup2\n      mstore\n      0x20\n      0x04\n      dup3\n      add\n      mstore\n      0x1b\n      0x24\n      dup3\n      add\n      mstore\n      0x506f6f6c20616464726573732063616e6e6f74206265207a65726f0000000000\n      0x44\n      dup3\n      add\n      mstore\n      0x64\n      swap1\n      revert\n    tag_48:\n      jumpi(tag_84, callvalue)\n      jumpi(tag_84, slt(add(not(0x03), calldatasize), 0x40))\n      tag_263\n      tag_1\n      jump\t// in\n    tag_263:\n      tag_264\n      tag_2\n      jump\t// in\n    tag_264:\n      swap1\n      0x01\n      dup1\n      0xa0\n      shl\n      sub\n      swap2\n      dup3\n      dup3\n      and\n      dup1\n      0x00\n      mstore\n      dup4\n      0x20\n      swap3\n      0x04\n      dup5\n      mstore\n        /* \"contracts/contracts/contracts/protocol/PoolOrganizer.sol\":6441:6511  require(poolDetails[pool].lender != address(0), \"Pool not registered\") */\n      tag_265\n        /* \"contracts/contracts/contracts/protocol/PoolOrganizer.sol\":428:12806  contract PoolOrganizer is AccessControl, IPoolOrganizer {... */\n      dup3\n      sload(keccak256(0x00, 0x40))\n      and\n        /* \"contracts/contracts/contracts/protocol/PoolOrganizer.sol\":6449:6487  poolDetails[pool].lender != address(0) */\n      iszero\n      iszero\n        /* \"contracts/contracts/contracts/protocol/PoolOrganizer.sol\":6441:6511  require(poolDetails[pool].lender != address(0), \"Pool not registered\") */\n      tag_20\n      jump\t// in\n    tag_265:\n        /* \"contracts/contracts/contracts/protocol/PoolOrganizer.sol\":428:12806  contract PoolOrganizer is AccessControl, IPoolOrganizer {... */\n      and\n        /* \"contracts/contracts/contracts/protocol/PoolOrganizer.sol\":6542:6567  newBorrower != address(0) */\n      swap4\n      dup5\n      iszero\n        /* \"contracts/contracts/contracts/protocol/PoolOrganizer.sol\":428:12806  contract PoolOrganizer is AccessControl, IPoolOrganizer {... */\n      tag_266\n      jumpi\n      dup2\n      0x00\n      mstore\n      0x04\n      dup4\n      mstore\n      dup1\n      0x01\n      keccak256(0x00, 0x40)\n        /* \"contracts/contracts/contracts/protocol/PoolOrganizer.sol\":6665:6691  poolDetails[pool].borrower */\n      add\n        /* \"contracts/contracts/contracts/protocol/PoolOrganizer.sol\":428:12806  contract PoolOrganizer is AccessControl, IPoolOrganizer {... */\n      sload\n      and\n        /* \"contracts/contracts/contracts/protocol/PoolOrganizer.sol\":6705:6735  currentBorrower != newBorrower */\n      dup6\n      dup2\n      sub\n        /* \"contracts/contracts/contracts/protocol/PoolOrganizer.sol\":6701:6985  if (currentBorrower != newBorrower) {... */\n      tag_268\n      jumpi\n        /* \"contracts/contracts/contracts/protocol/PoolOrganizer.sol\":428:12806  contract PoolOrganizer is AccessControl, IPoolOrganizer {... */\n      stop\n        /* \"contracts/contracts/contracts/protocol/PoolOrganizer.sol\":6701:6985  if (currentBorrower != newBorrower) {... */\n    tag_268:\n        /* \"contracts/contracts/contracts/protocol/PoolOrganizer.sol\":6755:6784  currentBorrower != address(0) */\n      dup1\n        /* \"contracts/contracts/contracts/protocol/PoolOrganizer.sol\":6751:6870  if (currentBorrower != address(0)) {... */\n      tag_270\n      jumpi\n        /* \"contracts/contracts/contracts/protocol/PoolOrganizer.sol\":6701:6985  if (currentBorrower != newBorrower) {... */\n    tag_271:\n        /* \"contracts/contracts/contracts/protocol/PoolOrganizer.sol\":428:12806  contract PoolOrganizer is AccessControl, IPoolOrganizer {... */\n      pop\n      pop\n        /* \"contracts/contracts/contracts/protocol/PoolOrganizer.sol\":6883:6920  borrowerPools[newBorrower].push(pool) */\n      tag_272\n        /* \"contracts/contracts/contracts/protocol/PoolOrganizer.sol\":428:12806  contract PoolOrganizer is AccessControl, IPoolOrganizer {... */\n      0x04\n      swap4\n      dup6\n      0x00\n      mstore\n        /* \"contracts/contracts/contracts/protocol/PoolOrganizer.sol\":6883:6896  borrowerPools */\n      0x07\n        /* \"contracts/contracts/contracts/protocol/PoolOrganizer.sol\":428:12806  contract PoolOrganizer is AccessControl, IPoolOrganizer {... */\n      dup5\n      mstore\n      keccak256(0x00, 0x40)\n        /* \"contracts/contracts/contracts/protocol/PoolOrganizer.sol\":6883:6920  borrowerPools[newBorrower].push(pool) */\n      tag_19\n      jump\t// in\n    tag_272:\n        /* \"contracts/contracts/contracts/protocol/PoolOrganizer.sol\":428:12806  contract PoolOrganizer is AccessControl, IPoolOrganizer {... */\n      0x00\n      mstore\n      mstore\n      0x01\n      keccak256(0x00, 0x40)\n        /* \"contracts/contracts/contracts/protocol/PoolOrganizer.sol\":6934:6960  poolDetails[pool].borrower */\n      add\n        /* \"contracts/contracts/contracts/protocol/PoolOrganizer.sol\":428:12806  contract PoolOrganizer is AccessControl, IPoolOrganizer {... */\n      swap1\n      shl(0xa0, sub(shl(0x60, 0x01), 0x01))\n      dup3\n      sload\n      and\n      or\n      swap1\n      sstore\n      0x00\n      dup1\n      return\n        /* \"contracts/contracts/contracts/protocol/PoolOrganizer.sol\":6751:6870  if (currentBorrower != address(0)) {... */\n    tag_270:\n        /* \"contracts/contracts/contracts/protocol/PoolOrganizer.sol\":428:12806  contract PoolOrganizer is AccessControl, IPoolOrganizer {... */\n      dup1\n      0x00\n      mstore\n        /* \"contracts/contracts/contracts/protocol/PoolOrganizer.sol\":12511:12524  borrowerPools */\n      0x07\n        /* \"contracts/contracts/contracts/protocol/PoolOrganizer.sol\":428:12806  contract PoolOrganizer is AccessControl, IPoolOrganizer {... */\n      dup5\n      mstore\n        /* \"contracts/contracts/contracts/protocol/PoolOrganizer.sol\":12494:12541  findIndexInArray(borrowerPools[borrower], pool) */\n      tag_273\n        /* \"contracts/contracts/contracts/protocol/PoolOrganizer.sol\":428:12806  contract PoolOrganizer is AccessControl, IPoolOrganizer {... */\n      dup6\n      keccak256(0x00, 0x40)\n        /* \"contracts/contracts/contracts/protocol/PoolOrganizer.sol\":12494:12541  findIndexInArray(borrowerPools[borrower], pool) */\n      tag_27\n      jump\t// in\n    tag_273:\n        /* \"contracts/contracts/contracts/protocol/PoolOrganizer.sol\":428:12806  contract PoolOrganizer is AccessControl, IPoolOrganizer {... */\n      swap1\n      dup1\n      0x00\n      mstore\n        /* \"contracts/contracts/contracts/protocol/PoolOrganizer.sol\":12511:12524  borrowerPools */\n      0x07\n        /* \"contracts/contracts/contracts/protocol/PoolOrganizer.sol\":428:12806  contract PoolOrganizer is AccessControl, IPoolOrganizer {... */\n      dup6\n      mstore\n      sload(keccak256(0x00, 0x40))\n        /* \"contracts/contracts/contracts/protocol/PoolOrganizer.sol\":12555:12593  index < borrowerPools[borrower].length */\n      swap3\n      dup4\n      dup4\n      lt\n        /* \"contracts/contracts/contracts/protocol/PoolOrganizer.sol\":12551:12798  if (index < borrowerPools[borrower].length) {... */\n      tag_274\n      jumpi\n        /* \"contracts/contracts/contracts/protocol/PoolOrganizer.sol\":6751:6870  if (currentBorrower != address(0)) {... */\n    tag_275:\n      pop\n      pop\n      jump(tag_271)\n        /* \"contracts/contracts/contracts/protocol/PoolOrganizer.sol\":12551:12798  if (index < borrowerPools[borrower].length) {... */\n    tag_274:\n      not(0x00)\n        /* \"contracts/contracts/contracts/protocol/PoolOrganizer.sol\":428:12806  contract PoolOrganizer is AccessControl, IPoolOrganizer {... */\n      dup5\n      add\n      swap7\n      swap3\n      swap4\n      dup8\n      gt\n      tag_167\n      jumpi\n        /* \"contracts/contracts/contracts/protocol/PoolOrganizer.sol\":12677:12707  borrowerPools[borrower][index] */\n      tag_278\n        /* \"contracts/contracts/contracts/protocol/PoolOrganizer.sol\":6883:6920  borrowerPools[newBorrower].push(pool) */\n      tag_272\n        /* \"contracts/contracts/contracts/protocol/PoolOrganizer.sol\":428:12806  contract PoolOrganizer is AccessControl, IPoolOrganizer {... */\n      swap5\n        /* \"contracts/contracts/contracts/protocol/PoolOrganizer.sol\":12677:12744  borrowerPools[borrower][index] = borrowerPools[borrower][lastIndex] */\n      tag_279\n        /* \"contracts/contracts/contracts/protocol/PoolOrganizer.sol\":428:12806  contract PoolOrganizer is AccessControl, IPoolOrganizer {... */\n      swap3\n        /* \"contracts/contracts/contracts/protocol/PoolOrganizer.sol\":12710:12744  borrowerPools[borrower][lastIndex] */\n      tag_280\n        /* \"contracts/contracts/contracts/protocol/PoolOrganizer.sol\":428:12806  contract PoolOrganizer is AccessControl, IPoolOrganizer {... */\n      0x04\n      swap11\n      dup7\n      0x00\n      mstore\n        /* \"contracts/contracts/contracts/protocol/PoolOrganizer.sol\":12511:12524  borrowerPools */\n      0x07\n        /* \"contracts/contracts/contracts/protocol/PoolOrganizer.sol\":428:12806  contract PoolOrganizer is AccessControl, IPoolOrganizer {... */\n      dup12\n      mstore\n      keccak256(0x00, 0x40)\n        /* \"contracts/contracts/contracts/protocol/PoolOrganizer.sol\":12710:12744  borrowerPools[borrower][lastIndex] */\n      tag_16\n      jump\t// in\n    tag_280:\n        /* \"contracts/contracts/contracts/protocol/PoolOrganizer.sol\":428:12806  contract PoolOrganizer is AccessControl, IPoolOrganizer {... */\n      swap4\n      swap1\n      sload\n      swap3\n      dup7\n      0x00\n      mstore\n        /* \"contracts/contracts/contracts/protocol/PoolOrganizer.sol\":12511:12524  borrowerPools */\n      0x07\n        /* \"contracts/contracts/contracts/protocol/PoolOrganizer.sol\":428:12806  contract PoolOrganizer is AccessControl, IPoolOrganizer {... */\n      dup12\n      mstore\n      keccak256(0x00, 0x40)\n        /* \"contracts/contracts/contracts/protocol/PoolOrganizer.sol\":12677:12707  borrowerPools[borrower][index] */\n      tag_16\n      jump\t// in\n    tag_278:\n        /* \"contracts/contracts/contracts/protocol/PoolOrganizer.sol\":428:12806  contract PoolOrganizer is AccessControl, IPoolOrganizer {... */\n      swap3\n      swap1\n      swap4\n      0x03\n      shl\n      shr\n      and\n      swap1\n      dup3\n      sload\n      swap1\n      0x03\n      shl\n      swap2\n      0x01\n      dup1\n      0xa0\n      shl\n      sub\n      dup1\n      swap2\n      and\n      dup4\n      shl\n      swap3\n      shl\n      not\n      and\n      or\n      swap1\n      sstore\n      jump\n        /* \"contracts/contracts/contracts/protocol/PoolOrganizer.sol\":12677:12744  borrowerPools[borrower][index] = borrowerPools[borrower][lastIndex] */\n    tag_279:\n        /* \"contracts/contracts/contracts/protocol/PoolOrganizer.sol\":428:12806  contract PoolOrganizer is AccessControl, IPoolOrganizer {... */\n      0x00\n      mstore\n        /* \"contracts/contracts/contracts/protocol/PoolOrganizer.sol\":12511:12524  borrowerPools */\n      0x07\n        /* \"contracts/contracts/contracts/protocol/PoolOrganizer.sol\":428:12806  contract PoolOrganizer is AccessControl, IPoolOrganizer {... */\n      dup5\n      mstore\n        /* \"contracts/contracts/contracts/protocol/PoolOrganizer.sol\":12758:12785  borrowerPools[borrower].pop */\n      tag_281\n        /* \"contracts/contracts/contracts/protocol/PoolOrganizer.sol\":428:12806  contract PoolOrganizer is AccessControl, IPoolOrganizer {... */\n      keccak256(0x00, 0x40)\n        /* \"contracts/contracts/contracts/protocol/PoolOrganizer.sol\":12758:12785  borrowerPools[borrower].pop */\n      tag_25\n      jump\t// in\n    tag_281:\n        /* \"contracts/contracts/contracts/protocol/PoolOrganizer.sol\":12551:12798  if (index < borrowerPools[borrower].length) {... */\n      swap4\n      dup7\n      dup1\n      jump(tag_275)\n        /* \"contracts/contracts/contracts/protocol/PoolOrganizer.sol\":428:12806  contract PoolOrganizer is AccessControl, IPoolOrganizer {... */\n    tag_266:\n      mload(0x40)\n      shl(0xe5, 0x461bcd)\n      dup2\n      mstore\n      0x04\n      dup2\n      add\n      dup5\n      swap1\n      mstore\n      0x23\n      0x24\n      dup3\n      add\n      mstore\n      0x426f72726f7765722063616e6e6f7420626520746865207a65726f2061646472\n      0x44\n      dup3\n      add\n      mstore\n      shl(0xe8, 0x657373)\n      0x64\n      dup3\n      add\n      mstore\n      0x84\n      swap1\n      revert\n    tag_46:\n      jumpi(tag_84, callvalue)\n      jumpi(tag_84, slt(add(not(0x03), calldatasize), 0x40))\n      tag_286\n      tag_2\n      jump\t// in\n    tag_286:\n        /* \"@openzeppelin/contracts/utils/Context.sol\":735:745  msg.sender */\n      caller\n      sub(shl(0xa0, 0x01), 0x01)\n        /* \"contracts/contracts/contracts/protocol/PoolOrganizer.sol\":428:12806  contract PoolOrganizer is AccessControl, IPoolOrganizer {... */\n      dup3\n      and\n        /* \"@openzeppelin/contracts/access/AccessControl.sol\":5421:5455  callerConfirmation != _msgSender() */\n      sub\n        /* \"@openzeppelin/contracts/access/AccessControl.sol\":5417:5519  if (callerConfirmation != _msgSender()) {... */\n      tag_287\n      jumpi\n        /* \"@openzeppelin/contracts/access/AccessControl.sol\":5529:5566  _revokeRole(role, callerConfirmation) */\n      tag_96\n        /* \"contracts/contracts/contracts/protocol/PoolOrganizer.sol\":428:12806  contract PoolOrganizer is AccessControl, IPoolOrganizer {... */\n      swap1\n      calldataload(0x04)\n        /* \"@openzeppelin/contracts/access/AccessControl.sol\":5529:5566  _revokeRole(role, callerConfirmation) */\n      tag_11\n      jump\t// in\n        /* \"@openzeppelin/contracts/access/AccessControl.sol\":5417:5519  if (callerConfirmation != _msgSender()) {... */\n    tag_287:\n        /* \"contracts/contracts/contracts/protocol/PoolOrganizer.sol\":428:12806  contract PoolOrganizer is AccessControl, IPoolOrganizer {... */\n      mload(0x40)\n      shl(0xe1, 0x334bd919)\n        /* \"@openzeppelin/contracts/access/AccessControl.sol\":5478:5508  AccessControlBadConfirmation() */\n      dup2\n      mstore\n        /* \"contracts/contracts/contracts/protocol/PoolOrganizer.sol\":428:12806  contract PoolOrganizer is AccessControl, IPoolOrganizer {... */\n      0x04\n      swap1\n        /* \"@openzeppelin/contracts/access/AccessControl.sol\":5478:5508  AccessControlBadConfirmation() */\n      revert\n        /* \"contracts/contracts/contracts/protocol/PoolOrganizer.sol\":428:12806  contract PoolOrganizer is AccessControl, IPoolOrganizer {... */\n    tag_44:\n      jumpi(tag_84, callvalue)\n      jumpi(tag_84, slt(add(not(0x03), calldatasize), 0x40))\n        /* \"@openzeppelin/contracts/access/AccessControl.sol\":4330:4355  _grantRole(role, account) */\n      tag_96\n        /* \"contracts/contracts/contracts/protocol/PoolOrganizer.sol\":428:12806  contract PoolOrganizer is AccessControl, IPoolOrganizer {... */\n      calldataload(0x04)\n      tag_295\n      tag_2\n      jump\t// in\n    tag_295:\n      swap1\n      dup1\n      0x00\n      mstore\n      mstore(0x20, 0x00)\n        /* \"@openzeppelin/contracts/access/AccessControl.sol\":2475:2479  role */\n      tag_296\n        /* \"contracts/contracts/contracts/protocol/PoolOrganizer.sol\":428:12806  contract PoolOrganizer is AccessControl, IPoolOrganizer {... */\n      0x01\n      keccak256(0x00, 0x40)\n        /* \"@openzeppelin/contracts/access/AccessControl.sol\":3901:3923  _roles[role].adminRole */\n      add\n        /* \"contracts/contracts/contracts/protocol/PoolOrganizer.sol\":428:12806  contract PoolOrganizer is AccessControl, IPoolOrganizer {... */\n      sload\n        /* \"@openzeppelin/contracts/access/AccessControl.sol\":2475:2479  role */\n      tag_7\n      jump\t// in\n    tag_296:\n        /* \"@openzeppelin/contracts/access/AccessControl.sol\":4330:4355  _grantRole(role, account) */\n      tag_10\n      jump\t// in\n        /* \"contracts/contracts/contracts/protocol/PoolOrganizer.sol\":428:12806  contract PoolOrganizer is AccessControl, IPoolOrganizer {... */\n    tag_42:\n      jumpi(tag_84, callvalue)\n      0x20\n      dup1\n      add(calldatasize, not(0x03))\n      slt\n      tag_84\n      jumpi\n      sub(shl(0xa0, 0x01), 0x01)\n      dup1\n      tag_301\n      tag_1\n      jump\t// in\n    tag_301:\n      and\n      0x00\n      mstore\n        /* \"contracts/contracts/contracts/protocol/PoolOrganizer.sol\":8625:8636  lenderPools */\n      0x05\n        /* \"contracts/contracts/contracts/protocol/PoolOrganizer.sol\":428:12806  contract PoolOrganizer is AccessControl, IPoolOrganizer {... */\n      dup3\n      mstore\n      keccak256(0x00, 0x40)\n      swap2\n      mload(0x40)\n      dup1\n      swap3\n      dup3\n      dup6\n      sload\n      swap3\n      dup4\n      dup2\n      mstore\n      add\n      swap5\n      0x00\n      mstore\n      dup3\n      0x00\n      keccak256\n      swap3\n      0x00\n      swap2\n    tag_302:\n      dup4\n      dup4\n      lt\n      tag_303\n      jumpi\n      tag_90\n      dup7\n      tag_91\n      dup2\n      dup11\n      sub\n      dup3\n      tag_13\n      jump\t// in\n    tag_303:\n      dup5\n      sload\n      dup2\n      and\n      dup8\n      mstore\n      swap6\n      dup2\n      add\n      swap6\n      0x01\n      swap5\n      dup6\n      add\n      swap5\n      swap1\n      swap3\n      add\n      swap2\n      jump(tag_302)\n    tag_40:\n      jumpi(tag_84, callvalue)\n      jumpi(tag_84, slt(add(not(0x03), calldatasize), 0x20))\n      mstore(0x00, calldataload(0x04))\n      mstore(0x20, 0x00)\n      0x20\n      0x01\n      keccak256(0x00, 0x40)\n        /* \"@openzeppelin/contracts/access/AccessControl.sol\":3901:3923  _roles[role].adminRole */\n      add\n        /* \"contracts/contracts/contracts/protocol/PoolOrganizer.sol\":428:12806  contract PoolOrganizer is AccessControl, IPoolOrganizer {... */\n      sload\n      mload(0x40)\n      swap1\n      dup2\n      mstore\n      return\n    tag_38:\n      jumpi(tag_84, callvalue)\n      jumpi(tag_84, slt(add(not(0x03), calldatasize), 0x20))\n      sub(shl(0xa0, 0x01), 0x01)\n        /* \"contracts/contracts/contracts/protocol/PoolOrganizer.sol\":4464:4534  require(poolDetails[pool].lender != address(0), \"Pool not registered\") */\n      tag_315\n        /* \"contracts/contracts/contracts/protocol/PoolOrganizer.sol\":428:12806  contract PoolOrganizer is AccessControl, IPoolOrganizer {... */\n      dup2\n      tag_316\n      tag_1\n      jump\t// in\n    tag_316:\n      and\n      swap2\n      dup3\n      0x00\n      mstore\n      mstore(0x20, 0x04)\n      sload(keccak256(0x00, 0x40))\n      and\n        /* \"contracts/contracts/contracts/protocol/PoolOrganizer.sol\":4472:4510  poolDetails[pool].lender != address(0) */\n      iszero\n      iszero\n        /* \"contracts/contracts/contracts/protocol/PoolOrganizer.sol\":4464:4534  require(poolDetails[pool].lender != address(0), \"Pool not registered\") */\n      tag_20\n      jump\t// in\n    tag_315:\n        /* \"contracts/contracts/contracts/protocol/PoolOrganizer.sol\":428:12806  contract PoolOrganizer is AccessControl, IPoolOrganizer {... */\n      0x00\n      swap1\n      dup2\n      mstore\n      mstore(0x20, 0x04)\n      0x40\n      swap1\n      keccak256\n        /* \"contracts/contracts/contracts/protocol/PoolOrganizer.sol\":4544:4568  poolDetails[pool].funded */\n      0x0a\n      add\n        /* \"contracts/contracts/contracts/protocol/PoolOrganizer.sol\":428:12806  contract PoolOrganizer is AccessControl, IPoolOrganizer {... */\n      dup1\n      sload\n      not(0xff00)\n      and\n      0x0100\n      or\n      swap1\n      sstore\n      stop\n    tag_36:\n      jumpi(tag_84, callvalue)\n      jumpi(tag_84, slt(add(not(0x03), calldatasize), 0x20))\n      0x20\n      sub(shl(0xa0, 0x01), 0x01)\n      dup1\n      tag_321\n      tag_1\n      jump\t// in\n    tag_321:\n      and\n      0x00\n      mstore\n        /* \"contracts/contracts/contracts/protocol/PoolOrganizer.sol\":808:853  mapping(address => address) public poolVaults */\n      0x06\n        /* \"contracts/contracts/contracts/protocol/PoolOrganizer.sol\":428:12806  contract PoolOrganizer is AccessControl, IPoolOrganizer {... */\n      dup3\n      mstore\n      sload(keccak256(0x00, 0x40))\n      and\n      mload(0x40)\n      swap1\n      dup2\n      mstore\n      return\n    tag_34:\n      jumpi(tag_84, callvalue)\n      jumpi(tag_84, slt(add(not(0x03), calldatasize), 0x00))\n        /* \"contracts/contracts/contracts/protocol/PoolOrganizer.sol\":610:645  IRewardManager public rewardManager */\n      0x02\n        /* \"contracts/contracts/contracts/protocol/PoolOrganizer.sol\":428:12806  contract PoolOrganizer is AccessControl, IPoolOrganizer {... */\n      sload\n      mload(0x40)\n      sub(shl(0xa0, 0x01), 0x01)\n      swap1\n      swap2\n      and\n      dup2\n      mstore\n      0x20\n      swap1\n      return\n    tag_32:\n      jumpi(tag_84, callvalue)\n      jumpi(tag_84, slt(add(not(0x03), calldatasize), 0x40))\n      tag_330\n      tag_1\n      jump\t// in\n    tag_330:\n      tag_331\n      tag_2\n      jump\t// in\n    tag_331:\n      swap1\n      sub(shl(0xa0, 0x01), 0x01)\n      swap1\n      dup2\n      and\n      swap1\n        /* \"contracts/contracts/contracts/protocol/PoolOrganizer.sol\":10461:10479  pool != address(0) */\n      dup2\n      iszero\n      iszero\n      dup1\n        /* \"contracts/contracts/contracts/protocol/PoolOrganizer.sol\":10461:10502  pool != address(0) && vault != address(0) */\n      tag_332\n      jumpi\n        /* \"contracts/contracts/contracts/protocol/PoolOrganizer.sol\":428:12806  contract PoolOrganizer is AccessControl, IPoolOrganizer {... */\n    tag_333:\n      iszero\n      tag_334\n      jumpi\n      dup2\n      0x00\n      mstore\n      mstore(0x20, 0x04)\n        /* \"contracts/contracts/contracts/protocol/PoolOrganizer.sol\":10534:10604  require(poolDetails[pool].lender != address(0), \"Pool not registered\") */\n      tag_336\n        /* \"contracts/contracts/contracts/protocol/PoolOrganizer.sol\":428:12806  contract PoolOrganizer is AccessControl, IPoolOrganizer {... */\n      dup2\n      sload(keccak256(0x00, 0x40))\n      and\n        /* \"contracts/contracts/contracts/protocol/PoolOrganizer.sol\":10542:10580  poolDetails[pool].lender != address(0) */\n      iszero\n      iszero\n        /* \"contracts/contracts/contracts/protocol/PoolOrganizer.sol\":10534:10604  require(poolDetails[pool].lender != address(0), \"Pool not registered\") */\n      tag_20\n      jump\t// in\n    tag_336:\n        /* \"contracts/contracts/contracts/protocol/PoolOrganizer.sol\":428:12806  contract PoolOrganizer is AccessControl, IPoolOrganizer {... */\n      dup2\n      0x00\n      mstore\n        /* \"contracts/contracts/contracts/protocol/PoolOrganizer.sol\":10635:10645  poolVaults */\n      0x06\n        /* \"contracts/contracts/contracts/protocol/PoolOrganizer.sol\":428:12806  contract PoolOrganizer is AccessControl, IPoolOrganizer {... */\n      0x20\n      mstore\n      dup1\n      sload(keccak256(0x00, 0x40))\n      and\n      tag_337\n      jumpi\n      dup2\n      0x00\n      mstore\n        /* \"contracts/contracts/contracts/protocol/PoolOrganizer.sol\":10635:10645  poolVaults */\n      0x06\n        /* \"contracts/contracts/contracts/protocol/PoolOrganizer.sol\":428:12806  contract PoolOrganizer is AccessControl, IPoolOrganizer {... */\n      0x20\n      mstore\n      keccak256(0x00, 0x40)\n      swap3\n      and\n      swap2\n      dup3\n      shl(0xa0, sub(shl(0x60, 0x01), 0x01))\n      dup3\n      sload\n      and\n      or\n      swap1\n      sstore\n        /* \"contracts/contracts/contracts/protocol/PoolOrganizer.sol\":10779:10807  VaultRegistered(pool, vault) */\n      0xf8ee9039d8e4d43426638703c71517008894fdea742bb2d2dbff5a46fb07abdb\n        /* \"contracts/contracts/contracts/protocol/PoolOrganizer.sol\":428:12806  contract PoolOrganizer is AccessControl, IPoolOrganizer {... */\n      0x00\n        /* \"contracts/contracts/contracts/protocol/PoolOrganizer.sol\":10779:10807  VaultRegistered(pool, vault) */\n      dup1\n      log3\n        /* \"contracts/contracts/contracts/protocol/PoolOrganizer.sol\":428:12806  contract PoolOrganizer is AccessControl, IPoolOrganizer {... */\n      stop\n    tag_337:\n      mload(0x40)\n      shl(0xe5, 0x461bcd)\n      dup2\n      mstore\n      0x20\n      0x04\n      dup3\n      add\n      mstore\n      0x26\n      0x24\n      dup3\n      add\n      mstore\n      0x5661756c7420616c7265616479207265676973746572656420666f7220746869\n      0x44\n      dup3\n      add\n      mstore\n      shl(0xd2, 0x1cc81c1bdbdb)\n      0x64\n      dup3\n      add\n      mstore\n      0x84\n      swap1\n      revert\n    tag_334:\n      mload(0x40)\n      shl(0xe5, 0x461bcd)\n      dup2\n      mstore\n      0x20\n      0x04\n      dup3\n      add\n      mstore\n      0x11\n      0x24\n      dup3\n      add\n      mstore\n      shl(0x78, 0x496e76616c696420616464726573736573)\n      0x44\n      dup3\n      add\n      mstore\n      0x64\n      swap1\n      revert\n        /* \"contracts/contracts/contracts/protocol/PoolOrganizer.sol\":10461:10502  pool != address(0) && vault != address(0) */\n    tag_332:\n        /* \"contracts/contracts/contracts/protocol/PoolOrganizer.sol\":428:12806  contract PoolOrganizer is AccessControl, IPoolOrganizer {... */\n      pop\n      dup1\n      dup4\n      and\n        /* \"contracts/contracts/contracts/protocol/PoolOrganizer.sol\":10483:10502  vault != address(0) */\n      iszero\n      iszero\n        /* \"contracts/contracts/contracts/protocol/PoolOrganizer.sol\":10461:10502  pool != address(0) && vault != address(0) */\n      jump(tag_333)\n        /* \"contracts/contracts/contracts/protocol/PoolOrganizer.sol\":428:12806  contract PoolOrganizer is AccessControl, IPoolOrganizer {... */\n    tag_30:\n      jumpi(tag_84, callvalue)\n      jumpi(tag_84, slt(add(not(0x03), calldatasize), 0x20))\n      calldataload(0x04)\n      swap1\n      shl(0xe0, 0xffffffff)\n      dup3\n      and\n      dup1\n      swap3\n      sub\n      tag_84\n      jumpi\n      0x20\n      swap2\n      shl(0xe0, 0x7965db0b)\n        /* \"@openzeppelin/contracts/access/AccessControl.sol\":2673:2720  interfaceId == type(IAccessControl).interfaceId */\n      dup2\n      eq\n      swap1\n        /* \"@openzeppelin/contracts/access/AccessControl.sol\":2673:2760  interfaceId == type(IAccessControl).interfaceId || super.supportsInterface(interfaceId) */\n      dup2\n      iszero\n      tag_345\n      jumpi\n        /* \"contracts/contracts/contracts/protocol/PoolOrganizer.sol\":428:12806  contract PoolOrganizer is AccessControl, IPoolOrganizer {... */\n    tag_346:\n      pop\n      iszero\n      iszero\n      dup2\n      mstore\n      return\n        /* \"@openzeppelin/contracts/access/AccessControl.sol\":2673:2760  interfaceId == type(IAccessControl).interfaceId || super.supportsInterface(interfaceId) */\n    tag_345:\n      shl(0xe0, 0x01ffc9a7)\n        /* \"@openzeppelin/contracts/utils/introspection/ERC165.sol\":861:901  interfaceId == type(IERC165).interfaceId */\n      eq\n      swap1\n      pop\n        /* \"@openzeppelin/contracts/access/AccessControl.sol\":2673:2760  interfaceId == type(IAccessControl).interfaceId || super.supportsInterface(interfaceId) */\n      dup4\n      jump(tag_346)\n        /* \"contracts/contracts/contracts/protocol/PoolOrganizer.sol\":428:12806  contract PoolOrganizer is AccessControl, IPoolOrganizer {... */\n    tag_1:\n      calldataload(0x04)\n      swap1\n      sub(shl(0xa0, 0x01), 0x01)\n      dup3\n      and\n      dup3\n      sub\n      tag_84\n      jumpi\n      jump\t// out\n    tag_2:\n      calldataload(0x24)\n      swap1\n      sub(shl(0xa0, 0x01), 0x01)\n      dup3\n      and\n      dup3\n      sub\n      tag_84\n      jumpi\n      jump\t// out\n    tag_3:\n      0x20\n      swap1\n      dup2\n      0x40\n      dup2\n      dup4\n      add\n      swap3\n      dup3\n      dup2\n      mstore\n      dup6\n      mload\n      dup1\n      swap5\n      mstore\n      add\n      swap4\n      add\n      swap2\n      0x00\n    tag_351:\n      dup3\n      dup2\n      lt\n      tag_352\n      jumpi\n      pop\n      pop\n      pop\n      pop\n      swap1\n      jump\t// out\n    tag_352:\n      dup4\n      mload\n      sub(shl(0xa0, 0x01), 0x01)\n      and\n      dup6\n      mstore\n      swap4\n      dup2\n      add\n      swap4\n      swap3\n      dup2\n      add\n      swap3\n      0x01\n      add\n      jump(tag_351)\n    tag_4:\n      swap1\n      0x02\n      dup3\n      lt\n      iszero\n      tag_251\n      jumpi\n      mstore\n      jump\t// out\n    tag_5:\n      0x01\n      dup1\n      0xa0\n      shl\n      sub\n      dup1\n      dup3\n      mload\n      and\n      dup4\n      mstore\n      dup1\n      0x20\n      dup4\n      add\n      mload\n      and\n      0x20\n      dup5\n      add\n      mstore\n      0x40\n      dup3\n      add\n      mload\n      0x40\n      dup5\n      add\n      mstore\n      dup1\n      0x60\n      dup4\n      add\n      mload\n      and\n      0x60\n      dup5\n      add\n      mstore\n      dup1\n      0x80\n      dup4\n      add\n      mload\n      and\n      0x80\n      dup5\n      add\n      mstore\n      dup1\n      0xa0\n      dup4\n      add\n      mload\n      and\n      0xa0\n      dup5\n      add\n      mstore\n      0xc0\n      dup3\n      add\n      mload\n      and\n      0xc0\n      dup4\n      add\n      mstore\n      0xe0\n      dup2\n      add\n      mload\n      0xe0\n      dup4\n      add\n      mstore\n      0x0100\n      dup1\n      dup3\n      add\n      mload\n      swap1\n      dup4\n      add\n      mstore\n      0x0120\n      dup1\n      dup3\n      add\n      mload\n      swap1\n      dup4\n      add\n      mstore\n      tag_356\n      0x0140\n      dup1\n      dup4\n      add\n      mload\n      swap1\n      dup5\n      add\n      swap1\n      tag_4\n      jump\t// in\n    tag_356:\n      0x0160\n      dup1\n      swap2\n      add\n      mload\n      iszero\n      iszero\n      swap2\n      add\n      mstore\n      jump\t// out\n        /* \"@openzeppelin/contracts/access/AccessControl.sol\":3199:3302  function _checkRole(bytes32 role) internal view virtual {... */\n    tag_7:\n        /* \"contracts/contracts/contracts/protocol/PoolOrganizer.sol\":428:12806  contract PoolOrganizer is AccessControl, IPoolOrganizer {... */\n      dup1\n        /* \"@openzeppelin/contracts/access/AccessControl.sol\":2954:2960  _roles */\n      0x00\n        /* \"contracts/contracts/contracts/protocol/PoolOrganizer.sol\":428:12806  contract PoolOrganizer is AccessControl, IPoolOrganizer {... */\n      mstore\n        /* \"@openzeppelin/contracts/access/AccessControl.sol\":2954:2960  _roles */\n      0x00\n        /* \"contracts/contracts/contracts/protocol/PoolOrganizer.sol\":428:12806  contract PoolOrganizer is AccessControl, IPoolOrganizer {... */\n      0x20\n      mstore\n      0x40\n        /* \"@openzeppelin/contracts/access/AccessControl.sol\":2954:2960  _roles */\n      0x00\n        /* \"contracts/contracts/contracts/protocol/PoolOrganizer.sol\":428:12806  contract PoolOrganizer is AccessControl, IPoolOrganizer {... */\n      keccak256\n        /* \"@openzeppelin/contracts/utils/Context.sol\":735:745  msg.sender */\n      caller\n        /* \"@openzeppelin/contracts/access/AccessControl.sol\":2954:2960  _roles */\n      0x00\n        /* \"contracts/contracts/contracts/protocol/PoolOrganizer.sol\":428:12806  contract PoolOrganizer is AccessControl, IPoolOrganizer {... */\n      mstore\n      0x20\n      mstore\n      0xff\n      0x40\n        /* \"@openzeppelin/contracts/access/AccessControl.sol\":2954:2960  _roles */\n      0x00\n        /* \"contracts/contracts/contracts/protocol/PoolOrganizer.sol\":428:12806  contract PoolOrganizer is AccessControl, IPoolOrganizer {... */\n      keccak256\n      sload\n      and\n        /* \"@openzeppelin/contracts/access/AccessControl.sol\":3519:3542  !hasRole(role, account) */\n      iszero\n        /* \"@openzeppelin/contracts/access/AccessControl.sol\":3515:3623  if (!hasRole(role, account)) {... */\n      tag_357\n      jumpi\n        /* \"@openzeppelin/contracts/access/AccessControl.sol\":3199:3302  function _checkRole(bytes32 role) internal view virtual {... */\n      pop\n      jump\t// out\n        /* \"@openzeppelin/contracts/access/AccessControl.sol\":3515:3623  if (!hasRole(role, account)) {... */\n    tag_357:\n        /* \"contracts/contracts/contracts/protocol/PoolOrganizer.sol\":428:12806  contract PoolOrganizer is AccessControl, IPoolOrganizer {... */\n      0x44\n      swap1\n      mload(0x40)\n        /* \"@openzeppelin/contracts/access/AccessControl.sol\":3565:3612  AccessControlUnauthorizedAccount(account, role) */\n      swap1\n      shl(0xe0, 0xe2517d3f)\n      dup3\n      mstore\n        /* \"@openzeppelin/contracts/utils/Context.sol\":735:745  msg.sender */\n      caller\n        /* \"@openzeppelin/contracts/access/AccessControl.sol\":3565:3612  AccessControlUnauthorizedAccount(account, role) */\n      0x04\n      dup4\n      add\n        /* \"contracts/contracts/contracts/protocol/PoolOrganizer.sol\":428:12806  contract PoolOrganizer is AccessControl, IPoolOrganizer {... */\n      mstore\n      0x24\n      dup3\n      add\n      mstore\n        /* \"@openzeppelin/contracts/access/AccessControl.sol\":3565:3612  AccessControlUnauthorizedAccount(account, role) */\n      revert\n        /* \"@openzeppelin/contracts/access/AccessControl.sol\":6179:6495  function _grantRole(bytes32 role, address account) internal virtual returns (bool) {... */\n    tag_8:\n      sub(shl(0xa0, 0x01), 0x01)\n        /* \"contracts/contracts/contracts/protocol/PoolOrganizer.sol\":428:12806  contract PoolOrganizer is AccessControl, IPoolOrganizer {... */\n      and\n        /* \"@openzeppelin/contracts/access/AccessControl.sol\":2954:2960  _roles */\n      0x00\n        /* \"contracts/contracts/contracts/protocol/PoolOrganizer.sol\":428:12806  contract PoolOrganizer is AccessControl, IPoolOrganizer {... */\n      dup2\n      dup2\n      mstore\n      mstore(0x20, 0x729ef9451dd492832bd2a98139702ced95dfa0cec7e99526dbbcb957abcbc476)\n      0x40\n      dup2\n      keccak256\n      sload\n        /* \"@openzeppelin/contracts/access/AccessControl.sol\":2954:2960  _roles */\n      swap1\n      swap2\n        /* \"contracts/contracts/contracts/protocol/PoolOrganizer.sol\":428:12806  contract PoolOrganizer is AccessControl, IPoolOrganizer {... */\n      swap1\n        /* \"contracts/contracts/contracts/protocol/PoolOrganizer.sol\":534:564  keccak256(\"POOL_MANAGER_ROLE\") */\n      0x6077685936c8169d09204a1d97db12e41713588c38e1d29a61867d3dcee98aff\n      swap1\n        /* \"contracts/contracts/contracts/protocol/PoolOrganizer.sol\":428:12806  contract PoolOrganizer is AccessControl, IPoolOrganizer {... */\n      0xff\n      and\n      tag_359\n      jumpi\n      dup1\n      dup4\n      mstore\n      dup3\n      0x20\n      mstore\n      0x40\n      dup4\n      keccak256\n      dup3\n      dup5\n      mstore\n      0x20\n      mstore\n      0x40\n      dup4\n      keccak256\n      0x01\n      not(0xff)\n      dup3\n      sload\n      and\n      or\n      swap1\n      sstore\n        /* \"@openzeppelin/contracts/access/AccessControl.sol\":6370:6410  RoleGranted(role, account, _msgSender()) */\n      0x2f8788117e7eff1d82e926ec794901d17c78024a50270940304540a733656f0d\n        /* \"@openzeppelin/contracts/utils/Context.sol\":735:745  msg.sender */\n      caller\n        /* \"@openzeppelin/contracts/access/AccessControl.sol\":6370:6410  RoleGranted(role, account, _msgSender()) */\n      swap4\n      dup1\n      log4\n        /* \"contracts/contracts/contracts/protocol/PoolOrganizer.sol\":428:12806  contract PoolOrganizer is AccessControl, IPoolOrganizer {... */\n      0x01\n        /* \"@openzeppelin/contracts/access/AccessControl.sol\":6424:6435  return true */\n      swap1\n      jump\t// out\n        /* \"@openzeppelin/contracts/access/AccessControl.sol\":6272:6489  if (!hasRole(role, account)) {... */\n    tag_359:\n        /* \"@openzeppelin/contracts/access/AccessControl.sol\":6466:6478  return false */\n      pop\n      pop\n      swap1\n      jump\t// out\n        /* \"@openzeppelin/contracts/access/AccessControl.sol\":6179:6495  function _grantRole(bytes32 role, address account) internal virtual returns (bool) {... */\n    tag_9:\n      sub(shl(0xa0, 0x01), 0x01)\n        /* \"contracts/contracts/contracts/protocol/PoolOrganizer.sol\":428:12806  contract PoolOrganizer is AccessControl, IPoolOrganizer {... */\n      and\n      0x00\n      dup2\n      dup2\n      mstore\n      mstore(0x20, 0xad3228b676f7d3cd4284a5443f17f1962b36e491b30a40b2405849e597ba5fb5)\n      0x40\n      dup2\n      keccak256\n      sload\n      swap1\n      swap2\n      swap1\n      0xff\n      and\n      tag_361\n      jumpi\n      dup2\n      dup1\n      mstore\n      dup2\n      0x20\n      mstore\n      0x40\n      dup3\n      keccak256\n      dup2\n      dup4\n      mstore\n      0x20\n      mstore\n      0x40\n      dup3\n      keccak256\n      0x01\n      not(0xff)\n      dup3\n      sload\n      and\n      or\n      swap1\n      sstore\n        /* \"@openzeppelin/contracts/utils/Context.sol\":735:745  msg.sender */\n      caller\n        /* \"@openzeppelin/contracts/access/AccessControl.sol\":6370:6410  RoleGranted(role, account, _msgSender()) */\n      swap2\n      0x2f8788117e7eff1d82e926ec794901d17c78024a50270940304540a733656f0d\n      dup2\n      dup1\n      log4\n        /* \"contracts/contracts/contracts/protocol/PoolOrganizer.sol\":428:12806  contract PoolOrganizer is AccessControl, IPoolOrganizer {... */\n      0x01\n        /* \"@openzeppelin/contracts/access/AccessControl.sol\":6424:6435  return true */\n      swap1\n      jump\t// out\n        /* \"@openzeppelin/contracts/access/AccessControl.sol\":6272:6489  if (!hasRole(role, account)) {... */\n    tag_361:\n        /* \"@openzeppelin/contracts/access/AccessControl.sol\":6466:6478  return false */\n      pop\n      swap1\n      jump\t// out\n        /* \"@openzeppelin/contracts/access/AccessControl.sol\":6179:6495  function _grantRole(bytes32 role, address account) internal virtual returns (bool) {... */\n    tag_10:\n      swap1\n        /* \"@openzeppelin/contracts/access/AccessControl.sol\":2954:2960  _roles */\n      0x00\n        /* \"contracts/contracts/contracts/protocol/PoolOrganizer.sol\":428:12806  contract PoolOrganizer is AccessControl, IPoolOrganizer {... */\n      swap2\n      dup1\n      dup4\n      mstore\n      dup3\n      0x20\n      mstore\n      0x40\n      dup4\n      keccak256\n      swap2\n      0x01\n      dup1\n      0xa0\n      shl\n      sub\n      and\n      swap2\n      dup3\n      dup5\n      mstore\n      0x20\n      mstore\n      0xff\n      0x40\n      dup5\n      keccak256\n      sload\n      and\n        /* \"@openzeppelin/contracts/access/AccessControl.sol\":6276:6299  !hasRole(role, account) */\n      iszero\n        /* \"@openzeppelin/contracts/access/AccessControl.sol\":6272:6489  if (!hasRole(role, account)) {... */\n      0x00\n        /* \"contracts/contracts/contracts/protocol/PoolOrganizer.sol\":428:12806  contract PoolOrganizer is AccessControl, IPoolOrganizer {... */\n      eq\n      tag_359\n      jumpi\n      dup1\n      dup4\n      mstore\n      dup3\n      0x20\n      mstore\n      0x40\n      dup4\n      keccak256\n      dup3\n      dup5\n      mstore\n      0x20\n      mstore\n      0x40\n      dup4\n      keccak256\n      0x01\n      not(0xff)\n      dup3\n      sload\n      and\n      or\n      swap1\n      sstore\n        /* \"@openzeppelin/contracts/access/AccessControl.sol\":6370:6410  RoleGranted(role, account, _msgSender()) */\n      0x2f8788117e7eff1d82e926ec794901d17c78024a50270940304540a733656f0d\n        /* \"@openzeppelin/contracts/utils/Context.sol\":735:745  msg.sender */\n      caller\n        /* \"@openzeppelin/contracts/access/AccessControl.sol\":6370:6410  RoleGranted(role, account, _msgSender()) */\n      swap4\n      dup1\n      log4\n        /* \"contracts/contracts/contracts/protocol/PoolOrganizer.sol\":428:12806  contract PoolOrganizer is AccessControl, IPoolOrganizer {... */\n      0x01\n        /* \"@openzeppelin/contracts/access/AccessControl.sol\":6424:6435  return true */\n      swap1\n      jump\t// out\n        /* \"@openzeppelin/contracts/access/AccessControl.sol\":6730:7047  function _revokeRole(bytes32 role, address account) internal virtual returns (bool) {... */\n    tag_11:\n      swap1\n        /* \"@openzeppelin/contracts/access/AccessControl.sol\":2954:2960  _roles */\n      0x00\n        /* \"contracts/contracts/contracts/protocol/PoolOrganizer.sol\":428:12806  contract PoolOrganizer is AccessControl, IPoolOrganizer {... */\n      swap2\n      dup1\n      dup4\n      mstore\n      dup3\n      0x20\n      mstore\n      0x40\n      dup4\n      keccak256\n      swap2\n      0x01\n      dup1\n      0xa0\n      shl\n      sub\n      and\n      swap2\n      dup3\n      dup5\n      mstore\n      0x20\n      mstore\n      0xff\n      0x40\n      dup5\n      keccak256\n      sload\n      and\n        /* \"@openzeppelin/contracts/access/AccessControl.sol\":6824:7041  if (hasRole(role, account)) {... */\n      0x00\n        /* \"contracts/contracts/contracts/protocol/PoolOrganizer.sol\":428:12806  contract PoolOrganizer is AccessControl, IPoolOrganizer {... */\n      eq\n      tag_359\n      jumpi\n      dup1\n      dup4\n      mstore\n      dup3\n      0x20\n      mstore\n      0x40\n      dup4\n      keccak256\n      dup3\n      dup5\n      mstore\n      0x20\n      mstore\n      0x40\n      dup4\n      keccak256\n      not(0xff)\n      dup2\n      sload\n      and\n      swap1\n      sstore\n        /* \"@openzeppelin/contracts/access/AccessControl.sol\":6922:6962  RoleRevoked(role, account, _msgSender()) */\n      0xf6391f5c32d9c69d2a47ea670b442974b53935d1edc7fd64eb21e047a839171b\n        /* \"@openzeppelin/contracts/utils/Context.sol\":735:745  msg.sender */\n      caller\n        /* \"@openzeppelin/contracts/access/AccessControl.sol\":6922:6962  RoleRevoked(role, account, _msgSender()) */\n      swap4\n      dup1\n      log4\n        /* \"contracts/contracts/contracts/protocol/PoolOrganizer.sol\":428:12806  contract PoolOrganizer is AccessControl, IPoolOrganizer {... */\n      0x01\n        /* \"@openzeppelin/contracts/access/AccessControl.sol\":6976:6987  return true */\n      swap1\n      jump\t// out\n        /* \"contracts/contracts/contracts/protocol/PoolOrganizer.sol\":428:12806  contract PoolOrganizer is AccessControl, IPoolOrganizer {... */\n    tag_12:\n      0x0180\n      dup2\n      add\n      swap1\n      dup2\n      lt\n      0xffffffffffffffff\n      dup3\n      gt\n      or\n      tag_254\n      jumpi\n      0x40\n      mstore\n      jump\t// out\n    tag_13:\n      swap1\n      0x1f\n      dup1\n      not\n      swap2\n      add\n      and\n      dup2\n      add\n      swap1\n      dup2\n      lt\n      0xffffffffffffffff\n      dup3\n      gt\n      or\n      tag_254\n      jumpi\n      0x40\n      mstore\n      jump\t// out\n    tag_14:\n      0x02\n      dup3\n      lt\n      iszero\n      tag_251\n      jumpi\n      mstore\n      jump\t// out\n    tag_15:\n      sload(0x03)\n      dup2\n      lt\n      iszero\n      tag_373\n      jumpi\n      mstore(0x00, 0x03)\n      0xc2575a0e9e593c00f959f8c92f12db2869c3395a3b0502d05e2516446f71f85b\n      add\n      swap1\n      0x00\n      swap1\n      jump\t// out\n    tag_373:\n      mstore(0x00, shl(0xe0, 0x4e487b71))\n      mstore(0x04, 0x32)\n      revert(0x00, 0x24)\n    tag_16:\n      dup1\n      sload\n      dup3\n      lt\n      iszero\n      tag_373\n      jumpi\n      0x00\n      mstore\n      keccak256(0x00, 0x20)\n      add\n      swap1\n      0x00\n      swap1\n      jump\t// out\n    tag_19:\n      swap1\n      dup2\n      sload\n      swap2\n      shl(0x40, 0x01)\n      dup4\n      lt\n      iszero\n      tag_254\n      jumpi\n      dup3\n      tag_171\n      swap2\n      0x01\n      tag_380\n      swap6\n      add\n      dup2\n      sstore\n      tag_16\n      jump\t// in\n    tag_380:\n      jump\t// out\n    tag_20:\n      iszero\n      tag_381\n      jumpi\n      jump\t// out\n    tag_381:\n      mload(0x40)\n      shl(0xe5, 0x461bcd)\n      dup2\n      mstore\n      0x20\n      0x04\n      dup3\n      add\n      mstore\n      0x13\n      0x24\n      dup3\n      add\n      mstore\n      shl(0x6a, 0x141bdbdb081b9bdd081c9959da5cdd195c9959)\n      0x44\n      dup3\n      add\n      mstore\n      0x64\n      swap1\n      revert\n    tag_21:\n      0xffffffffffffffff\n      dup2\n      gt\n      tag_254\n      jumpi\n      0x05\n      shl\n      0x20\n      add\n      swap1\n      jump\t// out\n    tag_22:\n      mload(0x40)\n      swap1\n      tag_385\n      dup3\n      tag_12\n      jump\t// in\n    tag_385:\n      dup2\n      0x0160\n      0x00\n      swap2\n      dup3\n      dup2\n      mstore\n      dup3\n      0x20\n      dup3\n      add\n      mstore\n      dup3\n      0x40\n      dup3\n      add\n      mstore\n      dup3\n      0x60\n      dup3\n      add\n      mstore\n      dup3\n      0x80\n      dup3\n      add\n      mstore\n      dup3\n      0xa0\n      dup3\n      add\n      mstore\n      dup3\n      0xc0\n      dup3\n      add\n      mstore\n      dup3\n      0xe0\n      dup3\n      add\n      mstore\n      dup3\n      0x0100\n      dup3\n      add\n      mstore\n      dup3\n      0x0120\n      dup3\n      add\n      mstore\n      dup3\n      0x0140\n      dup3\n      add\n      mstore\n      add\n      mstore\n      jump\t// out\n    tag_23:\n      not(0x00)\n      dup2\n      eq\n      tag_167\n      jumpi\n      0x01\n      add\n      swap1\n      jump\t// out\n    tag_24:\n      dup1\n      mload\n      dup3\n      lt\n      iszero\n      tag_373\n      jumpi\n      0x20\n      swap2\n      0x05\n      shl\n      add\n      add\n      swap1\n      jump\t// out\n    tag_25:\n      dup1\n      sload\n      dup1\n      iszero\n      tag_172\n      jumpi\n      not(0x00)\n      add\n      swap1\n      tag_392\n      tag_175\n      dup4\n      dup4\n      tag_16\n      jump\t// in\n    tag_392:\n      sstore\n      jump\t// out\n        /* \"contracts/contracts/contracts/protocol/PoolOrganizer.sol\":11898:12197  function findIndexInArray(address[] storage array, address target)... */\n    tag_26:\n        /* \"contracts/contracts/contracts/protocol/PoolOrganizer.sol\":12051:12052  0 */\n      0x00\n        /* \"contracts/contracts/contracts/protocol/PoolOrganizer.sol\":428:12806  contract PoolOrganizer is AccessControl, IPoolOrganizer {... */\n      swap1\n      0x03\n      dup1\n      sload\n        /* \"contracts/contracts/contracts/protocol/PoolOrganizer.sol\":12034:12134  for (uint256 i = 0; i < array.length; i++) {... */\n      swap3\n        /* \"contracts/contracts/contracts/protocol/PoolOrganizer.sol\":12054:12070  i < array.length */\n    tag_394:\n      dup4\n      dup2\n      lt\n      tag_395\n      jumpi\n        /* \"contracts/contracts/contracts/protocol/PoolOrganizer.sol\":428:12806  contract PoolOrganizer is AccessControl, IPoolOrganizer {... */\n      pop\n      pop\n      pop\n      pop\n      not(0x00)\n        /* \"contracts/contracts/contracts/protocol/PoolOrganizer.sol\":11898:12197  function findIndexInArray(address[] storage array, address target)... */\n      swap1\n      jump\t// out\n        /* \"contracts/contracts/contracts/protocol/PoolOrganizer.sol\":12072:12075  i++ */\n    tag_395:\n        /* \"contracts/contracts/contracts/protocol/PoolOrganizer.sol\":12095:12103  array[i] */\n      tag_397\n      dup2\n      tag_15\n      jump\t// in\n    tag_397:\n        /* \"contracts/contracts/contracts/protocol/PoolOrganizer.sol\":428:12806  contract PoolOrganizer is AccessControl, IPoolOrganizer {... */\n      swap1\n      sload\n      swap1\n      dup4\n      shl\n      shr\n      sub(shl(0xa0, 0x01), 0x01)\n      swap1\n      dup2\n      and\n      swap1\n      dup5\n      and\n        /* \"contracts/contracts/contracts/protocol/PoolOrganizer.sol\":12095:12113  array[i] == target */\n      eq\n        /* \"contracts/contracts/contracts/protocol/PoolOrganizer.sol\":12091:12123  if (array[i] == target) return i */\n      tag_398\n      jumpi\n        /* \"contracts/contracts/contracts/protocol/PoolOrganizer.sol\":12072:12075  i++ */\n      tag_400\n      swap1\n      tag_23\n      jump\t// in\n    tag_400:\n        /* \"contracts/contracts/contracts/protocol/PoolOrganizer.sol\":12039:12052  uint256 i = 0 */\n      jump(tag_394)\n        /* \"contracts/contracts/contracts/protocol/PoolOrganizer.sol\":12091:12123  if (array[i] == target) return i */\n    tag_398:\n        /* \"contracts/contracts/contracts/protocol/PoolOrganizer.sol\":12115:12123  return i */\n      swap3\n      pop\n      pop\n      pop\n      swap1\n      jump\t// out\n        /* \"contracts/contracts/contracts/protocol/PoolOrganizer.sol\":11898:12197  function findIndexInArray(address[] storage array, address target)... */\n    tag_27:\n      swap1\n        /* \"contracts/contracts/contracts/protocol/PoolOrganizer.sol\":12051:12052  0 */\n      0x00\n        /* \"contracts/contracts/contracts/protocol/PoolOrganizer.sol\":12072:12075  i++ */\n    tag_401:\n        /* \"contracts/contracts/contracts/protocol/PoolOrganizer.sol\":428:12806  contract PoolOrganizer is AccessControl, IPoolOrganizer {... */\n      dup3\n      sload\n        /* \"contracts/contracts/contracts/protocol/PoolOrganizer.sol\":12054:12070  i < array.length */\n      dup2\n      lt\n      iszero\n      tag_402\n      jumpi\n        /* \"contracts/contracts/contracts/protocol/PoolOrganizer.sol\":12095:12103  array[i] */\n      tag_404\n      dup2\n      dup5\n      tag_16\n      jump\t// in\n    tag_404:\n        /* \"contracts/contracts/contracts/protocol/PoolOrganizer.sol\":428:12806  contract PoolOrganizer is AccessControl, IPoolOrganizer {... */\n      swap1\n      sload\n      0x03\n      swap2\n      swap1\n      swap2\n      shl\n      shr\n      sub(shl(0xa0, 0x01), 0x01)\n      swap1\n      dup2\n      and\n      swap1\n      dup4\n      and\n        /* \"contracts/contracts/contracts/protocol/PoolOrganizer.sol\":12095:12113  array[i] == target */\n      eq\n        /* \"contracts/contracts/contracts/protocol/PoolOrganizer.sol\":12091:12123  if (array[i] == target) return i */\n      tag_405\n      jumpi\n        /* \"contracts/contracts/contracts/protocol/PoolOrganizer.sol\":12072:12075  i++ */\n      tag_407\n      swap1\n      tag_23\n      jump\t// in\n    tag_407:\n        /* \"contracts/contracts/contracts/protocol/PoolOrganizer.sol\":12039:12052  uint256 i = 0 */\n      jump(tag_401)\n        /* \"contracts/contracts/contracts/protocol/PoolOrganizer.sol\":12091:12123  if (array[i] == target) return i */\n    tag_405:\n        /* \"contracts/contracts/contracts/protocol/PoolOrganizer.sol\":12115:12123  return i */\n      swap2\n      pop\n      pop\n      swap1\n      jump\t// out\n        /* \"contracts/contracts/contracts/protocol/PoolOrganizer.sol\":12054:12070  i < array.length */\n    tag_402:\n      pop\n      pop\n      pop\n        /* \"contracts/contracts/contracts/protocol/PoolOrganizer.sol\":428:12806  contract PoolOrganizer is AccessControl, IPoolOrganizer {... */\n      not(0x00)\n        /* \"contracts/contracts/contracts/protocol/PoolOrganizer.sol\":11898:12197  function findIndexInArray(address[] storage array, address target)... */\n      swap1\n      jump\t// out\n\n    auxdata: 0xa2646970667358221220814acd6ac0d497257e068ac4d1e9ef7378d5be0d6bf4c27049bc9794af450cd664736f6c63430008140033\n}\n",
				"bytecode": {
					"linkReferences": {},
					"object": "6080604052346200003257620000153362000036565b506200002133620000b4565b50604051611a389081620001558239f35b5f80fd5b6001600160a01b03165f8181527fad3228b676f7d3cd4284a5443f17f1962b36e491b30a40b2405849e597ba5fb5602052604081205490919060ff16620000b057818052816020526040822081835260205260408220600160ff1982541617905533915f8051602062001b8d8339815191528180a4600190565b5090565b6001600160a01b03165f8181527f729ef9451dd492832bd2a98139702ced95dfa0cec7e99526dbbcb957abcbc47660205260408120549091907f6077685936c8169d09204a1d97db12e41713588c38e1d29a61867d3dcee98aff9060ff166200014f57808352826020526040832082845260205260408320600160ff198254161790555f8051602062001b8d833981519152339380a4600190565b50509056fe6080806040526004361015610012575f80fd5b5f3560e01c90816301ffc9a7146113db5750806305c4fdf9146112945780630f4ef8a61461126c5780631e4966ab146112335780631f2f2e14146111d8578063248a9ca3146111ac57806324a44efb146111365780632f2ff15d146110fa57806336568abe146110b357806337e238c514610f075780634375602014610b8057806352fc9b0e1461099157806356d73568146109575780635d102df7146108855780637570e389146107e55780637e72c7d7146105ef5780638a4adf24146105c757806391d148541461057f578063a217fddf14610565578063a8d088bb14610532578063c489579d1461039f578063c56f1b441461031e578063d3e90fa01461021f578063d3ffe67a14610202578063d547741f146101c45763e7ef32f71461013a575f80fd5b346101c0576020806003193601126101c0576001600160a01b038061015d61142e565b165f526007825260405f209160405180928285549283815201945f52825f20925f915b8383106101a7576101a386610197818a03826117c3565b6040519182918261145a565b0390f35b8454811687529581019560019485019490920191610180565b5f80fd5b346101c05760403660031901126101c0576102006004356101e3611444565b90805f525f6020526101fb600160405f20015461153d565b611733565b005b346101c0575f3660031901126101c0576020600354604051908152f35b346101c05760203660031901126101c05761018061023b61142e565b6102436118ce565b506001600160a01b039081165f8181526004602052604090205461026a9083161515611874565b5f52600460205260ff600a60405f2060405193610286856117a6565b808254168552806001830154166020860152600282015460408601528060038301541660608601528060048301541660808601528060058301541660a086015260068201541660c0850152600781015460e085015260088101546101008501526009810154610120850152015461030382821661014085016117e5565b60081c16151561016082015261031c60405180926114aa565bf35b346101c0575f3660031901126101c057604051806003549182815260208091019260035f527fc2575a0e9e593c00f959f8c92f12db2869c3395a3b0502d05e2516446f71f85b915f905b82821061037f576101a385610197818903826117c3565b83546001600160a01b031686529485019460019384019390910190610368565b346101c05760403660031901126101c0576103b861142e565b6103c0611444565b335f9081527fad3228b676f7d3cd4284a5443f17f1962b36e491b30a40b2405849e597ba5fb5602052604090205460ff1615610514576001600160a01b03828116929083156104c3578216801561047257600180546001600160a01b03199081169590951790556002805490941617909255604080516001600160a01b0393841681529190921660208201527f8fc18cc172f74c81235145b7927190d2bd0e351fc45bfb17bb572593273cef219190a1005b60405162461bcd60e51b8152602060048201526024808201527f5265776172644d616e616765722063616e6e6f74206265207a65726f206164646044820152637265737360e01b6064820152608490fd5b60405162461bcd60e51b815260206004820152602360248201527f5661756c744d616e616765722063616e6e6f74206265207a65726f206164647260448201526265737360e81b6064820152608490fd5b60405163e2517d3f60e01b81523360048201525f6024820152604490fd5b346101c0575f3660031901126101c057600154600254604080516001600160a01b03938416815292909116602083015290f35b346101c0575f3660031901126101c05760206040515f8152f35b346101c05760403660031901126101c057610598611444565b6004355f525f60205260405f209060018060a01b03165f52602052602060ff60405f2054166040519015158152f35b346101c0575f3660031901126101c0576001546040516001600160a01b039091168152602090f35b346101c0576020806003193601126101c05761060961142e565b9060018060a01b039081831692835f526004825261062e8360405f2054161515611874565b835f52600482528260405f205416805f526005938484526106528360405f206119b4565b825f5285855260405f2054935f19938486019586116107d1576106c36106d9938561068961069c99855f528c8c5260405f2061183a565b99905492855f528c8c5260405f2061183a565b91909260039a8b1b1c169082549060031b9160018060a01b03809116831b921b1916179055565b5f528686526106d460405f20611949565b611965565b83548381019081116107d157610721926106f5610702926117f1565b905490871b1c16916117f1565b90919082549060031b9160018060a01b03809116831b921b1916179055565b81549384156107bd576004600a945f9693879401610756610741826117f1565b81549060018060a01b039060031b1b19169055565b85558784525281604081209381855581600186015581600286015584015581600484015582015582600682015582600782015582600882015582600982015501557f334d0b2111287dfddebe4b4c1c5af3ae644909d7fcd024377bf601e236ed5abb5f80a2005b634e487b7160e01b5f52603160045260245ffd5b634e487b7160e01b5f52601160045260245ffd5b346101c05760203660031901126101c0576001600160a01b038061080761142e565b1690815f5260066020528060405f20541615610834576020915f526006825260405f205416604051908152f35b60405162461bcd60e51b815260206004820152602360248201527f506f6f6c206e6f742072656769737465726564206f7220686173206e6f2076616044820152621d5b1d60ea1b6064820152608490fd5b346101c0576020806003193601126101c05761089f61142e565b5f80525f825260405f20335f52825260ff60405f20541615610919575f610200927f6077685936c8169d09204a1d97db12e41713588c38e1d29a61867d3dcee98aff82528181526108f6600160408420015461153d565b6108ff8361157c565b5081805252610914600160405f20015461153d565b61162d565b60405162461bcd60e51b815260048101839052601660248201527521b0b63632b91034b9903737ba1030b71030b236b4b760511b6044820152606490fd5b346101c0575f3660031901126101c05760206040517f6077685936c8169d09204a1d97db12e41713588c38e1d29a61867d3dcee98aff8152f35b346101c0576020806003193601126101c0576001600160a01b0390816109b561142e565b165f5260059081815260405f20916040518084848296549384815201905f52845f20925f5b86828210610b68575050506109f1925003846117c3565b8251936109fd856118b6565b94610a0b60405196876117c3565b808652610a1a601f19916118b6565b01835f5b828110610b52575050505f5b8451811015610b08578082610a42610b039388611935565b51165f526004855260405f2060405190610a5b826117a6565b84815416825284600182015416878301526002810154604083015284600382015416606083015284600482015416608083015284868201541660a08301528460068201541660c0830152600781015460e0830152600a600891828101546101008501526009810154610120850152015460ff91610ade83831661014086016117e5565b1c161515610160820152610af28289611935565b52610afd8188611935565b50611927565b610a2a565b60408051858152875181870181905288870192820190875f5b828110610b2e5784840385f35b9091928261018082610b436001948a516114aa565b01960191019492919094610b21565b610b5a6118ce565b82828a010152018490610a1e565b85548a168452600195860195899550930192016109da565b346101c0576101603660031901126101c057610b9a61142e565b610ba2611444565b906044356001600160a01b03811681036101c057606435906001600160a01b03821682036101c0576084356001600160a01b03811681036101c05760a4356001600160a01b03811681036101c05760c435906001600160a01b03821682036101c05760026101443510156101c0576001600160a01b03861615610ec2576001600160a01b038681165f9081526004602052604090205416610e7d5760405192610c4a846117a6565b6001600160a01b03888116855285811660208601524260408601528681166060860152908116608085015290811660a08401521660c082015260e43560e08201526101043561010082015261012435610120820152610cb06101443561014083016117e5565b5f61016082015260018060a01b0384165f526004602052600a60405f2060018060a01b038351166001600160601b0360a01b90818354161782556001820160018060a01b0360208601511682825416179055604084015160028301556003820160018060a01b03606086015116828254161790556004820160018060a01b03608086015116828254161790556005820160018060a01b0360a08601511682825416179055600682019060018060a01b0360c0860151169082541617905560e08301516007820155610100830151600882015561012083015160098201550190610140810151906002821015610e695760ff61ff006101608554930151151560081b1692169061ffff19161717905560018060a01b0384165f526005602052610ddb8360405f2061184f565b600354600160401b811015610e55577f8f723e49dc038e67c41b41307a1e0c65653d50125a0c474a21ac32d9a0b24d2b91610e2285610702846001604096016003556117f1565b81516001600160a01b039094168452610e41602085016101443561149d565b6001600160a01b03908116958116941692a4005b634e487b7160e01b5f52604160045260245ffd5b634e487b7160e01b5f52602160045260245ffd5b60405162461bcd60e51b815260206004820152601760248201527f506f6f6c20616c726561647920726567697374657265640000000000000000006044820152606490fd5b60405162461bcd60e51b815260206004820152601b60248201527f506f6f6c20616464726573732063616e6e6f74206265207a65726f00000000006044820152606490fd5b346101c05760403660031901126101c057610f2061142e565b610f28611444565b9060018060a01b0391828216805f528360209260048452610f508260405f2054161515611874565b1693841561106257815f526004835280600160405f20015416858103610f7257005b80610fb0575b5050610f90600493855f526007845260405f2061184f565b5f5252600160405f2001906001600160601b0360a01b8254161790555f80f35b805f5260078452610fc48560405f206119b4565b90805f526007855260405f205492838310610fe1575b5050610f78565b5f19840196929387116107d157611023610f90946110489261100f60049a865f5260078b5260405f2061183a565b93905492865f5260078b5260405f2061183a565b92909360031b1c169082549060031b9160018060a01b03809116831b921b1916179055565b5f526007845261105a60405f20611949565b938680610fda565b60405162461bcd60e51b815260048101849052602360248201527f426f72726f7765722063616e6e6f7420626520746865207a65726f206164647260448201526265737360e81b6064820152608490fd5b346101c05760403660031901126101c0576110cc611444565b336001600160a01b038216036110e85761020090600435611733565b60405163334bd91960e11b8152600490fd5b346101c05760403660031901126101c057610200600435611119611444565b90805f525f602052611131600160405f20015461153d565b6116bc565b346101c0576020806003193601126101c0576001600160a01b038061115961142e565b165f526005825260405f209160405180928285549283815201945f52825f20925f915b838310611193576101a386610197818a03826117c3565b845481168752958101956001948501949092019161117c565b346101c05760203660031901126101c0576004355f525f6020526020600160405f200154604051908152f35b346101c05760203660031901126101c0576001600160a01b03611214816111fd61142e565b1691825f52600460205260405f2054161515611874565b5f908152600460205260409020600a01805461ff001916610100179055005b346101c05760203660031901126101c05760206001600160a01b038061125761142e565b165f526006825260405f205416604051908152f35b346101c0575f3660031901126101c0576002546040516001600160a01b039091168152602090f35b346101c05760403660031901126101c0576112ad61142e565b6112b5611444565b906001600160a01b0390811690811515806113d0575b1561139757815f5260046020526112e98160405f2054161515611874565b815f5260066020528060405f20541661134357815f52600660205260405f20921691826001600160601b0360a01b8254161790557ff8ee9039d8e4d43426638703c71517008894fdea742bb2d2dbff5a46fb07abdb5f80a3005b60405162461bcd60e51b815260206004820152602660248201527f5661756c7420616c7265616479207265676973746572656420666f72207468696044820152651cc81c1bdbdb60d21b6064820152608490fd5b60405162461bcd60e51b8152602060048201526011602482015270496e76616c69642061646472657373657360781b6044820152606490fd5b5080831615156112cb565b346101c05760203660031901126101c0576004359063ffffffff60e01b82168092036101c057602091637965db0b60e01b811490811561141d575b5015158152f35b6301ffc9a760e01b14905083611416565b600435906001600160a01b03821682036101c057565b602435906001600160a01b03821682036101c057565b602090816040818301928281528551809452019301915f5b828110611480575050505090565b83516001600160a01b031685529381019392810192600101611472565b906002821015610e695752565b60018060a01b03808251168352806020830151166020840152604082015160408401528060608301511660608401528060808301511660808401528060a08301511660a084015260c08201511660c083015260e081015160e08301526101008082015190830152610120808201519083015261152f610140808301519084019061149d565b610160809101511515910152565b805f525f60205260405f20335f5260205260ff60405f2054161561155e5750565b6044906040519063e2517d3f60e01b82523360048301526024820152fd5b6001600160a01b03165f8181527f729ef9451dd492832bd2a98139702ced95dfa0cec7e99526dbbcb957abcbc47660205260408120549091907f6077685936c8169d09204a1d97db12e41713588c38e1d29a61867d3dcee98aff9060ff1661162857808352826020526040832082845260205260408320600160ff198254161790557f2f8788117e7eff1d82e926ec794901d17c78024a50270940304540a733656f0d339380a4600190565b505090565b6001600160a01b03165f8181527fad3228b676f7d3cd4284a5443f17f1962b36e491b30a40b2405849e597ba5fb5602052604081205490919060ff166116b857818052816020526040822081835260205260408220600160ff1982541617905533917f2f8788117e7eff1d82e926ec794901d17c78024a50270940304540a733656f0d8180a4600190565b5090565b905f9180835282602052604083209160018060a01b03169182845260205260ff604084205416155f1461162857808352826020526040832082845260205260408320600160ff198254161790557f2f8788117e7eff1d82e926ec794901d17c78024a50270940304540a733656f0d339380a4600190565b905f9180835282602052604083209160018060a01b03169182845260205260ff6040842054165f146116285780835282602052604083208284526020526040832060ff1981541690557ff6391f5c32d9c69d2a47ea670b442974b53935d1edc7fd64eb21e047a839171b339380a4600190565b610180810190811067ffffffffffffffff821117610e5557604052565b90601f8019910116810190811067ffffffffffffffff821117610e5557604052565b6002821015610e695752565b6003548110156118265760035f527fc2575a0e9e593c00f959f8c92f12db2869c3395a3b0502d05e2516446f71f85b01905f90565b634e487b7160e01b5f52603260045260245ffd5b8054821015611826575f5260205f2001905f90565b90815491600160401b831015610e5557826107029160016118729501815561183a565b565b1561187b57565b60405162461bcd60e51b8152602060048201526013602482015272141bdbdb081b9bdd081c9959da5cdd195c9959606a1b6044820152606490fd5b67ffffffffffffffff8111610e555760051b60200190565b604051906118db826117a6565b816101605f918281528260208201528260408201528260608201528260808201528260a08201528260c08201528260e08201528261010082015282610120820152826101408201520152565b5f1981146107d15760010190565b80518210156118265760209160051b010190565b805480156107bd575f190190611962610741838361183a565b55565b5f9060038054925b83811061197d57505050505f1990565b611986816117f1565b905490831b1c6001600160a01b03908116908416146119ad576119a890611927565b61196d565b9250505090565b905f5b82548110156119fa576119ca818461183a565b905460039190911b1c6001600160a01b03908116908316146119f4576119ef90611927565b6119b7565b91505090565b5050505f199056fea2646970667358221220814acd6ac0d497257e068ac4d1e9ef7378d5be0d6bf4c27049bc9794af450cd664736f6c634300081400332f8788117e7eff1d82e926ec794901d17c78024a50270940304540a733656f0d",
					"opcodes": "PUSH1 0x80 PUSH1 0x40 MSTORE CALLVALUE PUSH3 0x32 JUMPI PUSH3 0x15 CALLER PUSH3 0x36 JUMP JUMPDEST POP PUSH3 0x21 CALLER PUSH3 0xB4 JUMP JUMPDEST POP PUSH1 0x40 MLOAD PUSH2 0x1A38 SWAP1 DUP2 PUSH3 0x155 DUP3 CODECOPY RETURN JUMPDEST PUSH0 DUP1 REVERT JUMPDEST PUSH1 0x1 PUSH1 0x1 PUSH1 0xA0 SHL SUB AND PUSH0 DUP2 DUP2 MSTORE PUSH32 0xAD3228B676F7D3CD4284A5443F17F1962B36E491B30A40B2405849E597BA5FB5 PUSH1 0x20 MSTORE PUSH1 0x40 DUP2 KECCAK256 SLOAD SWAP1 SWAP2 SWAP1 PUSH1 0xFF AND PUSH3 0xB0 JUMPI DUP2 DUP1 MSTORE DUP2 PUSH1 0x20 MSTORE PUSH1 0x40 DUP3 KECCAK256 DUP2 DUP4 MSTORE PUSH1 0x20 MSTORE PUSH1 0x40 DUP3 KECCAK256 PUSH1 0x1 PUSH1 0xFF NOT DUP3 SLOAD AND OR SWAP1 SSTORE CALLER SWAP2 PUSH0 DUP1 MLOAD PUSH1 0x20 PUSH3 0x1B8D DUP4 CODECOPY DUP2 MLOAD SWAP2 MSTORE DUP2 DUP1 LOG4 PUSH1 0x1 SWAP1 JUMP JUMPDEST POP SWAP1 JUMP JUMPDEST PUSH1 0x1 PUSH1 0x1 PUSH1 0xA0 SHL SUB AND PUSH0 DUP2 DUP2 MSTORE PUSH32 0x729EF9451DD492832BD2A98139702CED95DFA0CEC7E99526DBBCB957ABCBC476 PUSH1 0x20 MSTORE PUSH1 0x40 DUP2 KECCAK256 SLOAD SWAP1 SWAP2 SWAP1 PUSH32 0x6077685936C8169D09204A1D97DB12E41713588C38E1D29A61867D3DCEE98AFF SWAP1 PUSH1 0xFF AND PUSH3 0x14F JUMPI DUP1 DUP4 MSTORE DUP3 PUSH1 0x20 MSTORE PUSH1 0x40 DUP4 KECCAK256 DUP3 DUP5 MSTORE PUSH1 0x20 MSTORE PUSH1 0x40 DUP4 KECCAK256 PUSH1 0x1 PUSH1 0xFF NOT DUP3 SLOAD AND OR SWAP1 SSTORE PUSH0 DUP1 MLOAD PUSH1 0x20 PUSH3 0x1B8D DUP4 CODECOPY DUP2 MLOAD SWAP2 MSTORE CALLER SWAP4 DUP1 LOG4 PUSH1 0x1 SWAP1 JUMP JUMPDEST POP POP SWAP1 JUMP INVALID PUSH1 0x80 DUP1 PUSH1 0x40 MSTORE PUSH1 0x4 CALLDATASIZE LT ISZERO PUSH2 0x12 JUMPI PUSH0 DUP1 REVERT JUMPDEST PUSH0 CALLDATALOAD PUSH1 0xE0 SHR SWAP1 DUP2 PUSH4 0x1FFC9A7 EQ PUSH2 0x13DB JUMPI POP DUP1 PUSH4 0x5C4FDF9 EQ PUSH2 0x1294 JUMPI DUP1 PUSH4 0xF4EF8A6 EQ PUSH2 0x126C JUMPI DUP1 PUSH4 0x1E4966AB EQ PUSH2 0x1233 JUMPI DUP1 PUSH4 0x1F2F2E14 EQ PUSH2 0x11D8 JUMPI DUP1 PUSH4 0x248A9CA3 EQ PUSH2 0x11AC JUMPI DUP1 PUSH4 0x24A44EFB EQ PUSH2 0x1136 JUMPI DUP1 PUSH4 0x2F2FF15D EQ PUSH2 0x10FA JUMPI DUP1 PUSH4 0x36568ABE EQ PUSH2 0x10B3 JUMPI DUP1 PUSH4 0x37E238C5 EQ PUSH2 0xF07 JUMPI DUP1 PUSH4 0x43756020 EQ PUSH2 0xB80 JUMPI DUP1 PUSH4 0x52FC9B0E EQ PUSH2 0x991 JUMPI DUP1 PUSH4 0x56D73568 EQ PUSH2 0x957 JUMPI DUP1 PUSH4 0x5D102DF7 EQ PUSH2 0x885 JUMPI DUP1 PUSH4 0x7570E389 EQ PUSH2 0x7E5 JUMPI DUP1 PUSH4 0x7E72C7D7 EQ PUSH2 0x5EF JUMPI DUP1 PUSH4 0x8A4ADF24 EQ PUSH2 0x5C7 JUMPI DUP1 PUSH4 0x91D14854 EQ PUSH2 0x57F JUMPI DUP1 PUSH4 0xA217FDDF EQ PUSH2 0x565 JUMPI DUP1 PUSH4 0xA8D088BB EQ PUSH2 0x532 JUMPI DUP1 PUSH4 0xC489579D EQ PUSH2 0x39F JUMPI DUP1 PUSH4 0xC56F1B44 EQ PUSH2 0x31E JUMPI DUP1 PUSH4 0xD3E90FA0 EQ PUSH2 0x21F JUMPI DUP1 PUSH4 0xD3FFE67A EQ PUSH2 0x202 JUMPI DUP1 PUSH4 0xD547741F EQ PUSH2 0x1C4 JUMPI PUSH4 0xE7EF32F7 EQ PUSH2 0x13A JUMPI PUSH0 DUP1 REVERT JUMPDEST CALLVALUE PUSH2 0x1C0 JUMPI PUSH1 0x20 DUP1 PUSH1 0x3 NOT CALLDATASIZE ADD SLT PUSH2 0x1C0 JUMPI PUSH1 0x1 PUSH1 0x1 PUSH1 0xA0 SHL SUB DUP1 PUSH2 0x15D PUSH2 0x142E JUMP JUMPDEST AND PUSH0 MSTORE PUSH1 0x7 DUP3 MSTORE PUSH1 0x40 PUSH0 KECCAK256 SWAP2 PUSH1 0x40 MLOAD DUP1 SWAP3 DUP3 DUP6 SLOAD SWAP3 DUP4 DUP2 MSTORE ADD SWAP5 PUSH0 MSTORE DUP3 PUSH0 KECCAK256 SWAP3 PUSH0 SWAP2 JUMPDEST DUP4 DUP4 LT PUSH2 0x1A7 JUMPI PUSH2 0x1A3 DUP7 PUSH2 0x197 DUP2 DUP11 SUB DUP3 PUSH2 0x17C3 JUMP JUMPDEST PUSH1 0x40 MLOAD SWAP2 DUP3 SWAP2 DUP3 PUSH2 0x145A JUMP JUMPDEST SUB SWAP1 RETURN JUMPDEST DUP5 SLOAD DUP2 AND DUP8 MSTORE SWAP6 DUP2 ADD SWAP6 PUSH1 0x1 SWAP5 DUP6 ADD SWAP5 SWAP1 SWAP3 ADD SWAP2 PUSH2 0x180 JUMP JUMPDEST PUSH0 DUP1 REVERT JUMPDEST CALLVALUE PUSH2 0x1C0 JUMPI PUSH1 0x40 CALLDATASIZE PUSH1 0x3 NOT ADD SLT PUSH2 0x1C0 JUMPI PUSH2 0x200 PUSH1 0x4 CALLDATALOAD PUSH2 0x1E3 PUSH2 0x1444 JUMP JUMPDEST SWAP1 DUP1 PUSH0 MSTORE PUSH0 PUSH1 0x20 MSTORE PUSH2 0x1FB PUSH1 0x1 PUSH1 0x40 PUSH0 KECCAK256 ADD SLOAD PUSH2 0x153D JUMP JUMPDEST PUSH2 0x1733 JUMP JUMPDEST STOP JUMPDEST CALLVALUE PUSH2 0x1C0 JUMPI PUSH0 CALLDATASIZE PUSH1 0x3 NOT ADD SLT PUSH2 0x1C0 JUMPI PUSH1 0x20 PUSH1 0x3 SLOAD PUSH1 0x40 MLOAD SWAP1 DUP2 MSTORE RETURN JUMPDEST CALLVALUE PUSH2 0x1C0 JUMPI PUSH1 0x20 CALLDATASIZE PUSH1 0x3 NOT ADD SLT PUSH2 0x1C0 JUMPI PUSH2 0x180 PUSH2 0x23B PUSH2 0x142E JUMP JUMPDEST PUSH2 0x243 PUSH2 0x18CE JUMP JUMPDEST POP PUSH1 0x1 PUSH1 0x1 PUSH1 0xA0 SHL SUB SWAP1 DUP2 AND PUSH0 DUP2 DUP2 MSTORE PUSH1 0x4 PUSH1 0x20 MSTORE PUSH1 0x40 SWAP1 KECCAK256 SLOAD PUSH2 0x26A SWAP1 DUP4 AND ISZERO ISZERO PUSH2 0x1874 JUMP JUMPDEST PUSH0 MSTORE PUSH1 0x4 PUSH1 0x20 MSTORE PUSH1 0xFF PUSH1 0xA PUSH1 0x40 PUSH0 KECCAK256 PUSH1 0x40 MLOAD SWAP4 PUSH2 0x286 DUP6 PUSH2 0x17A6 JUMP JUMPDEST DUP1 DUP3 SLOAD AND DUP6 MSTORE DUP1 PUSH1 0x1 DUP4 ADD SLOAD AND PUSH1 0x20 DUP7 ADD MSTORE PUSH1 0x2 DUP3 ADD SLOAD PUSH1 0x40 DUP7 ADD MSTORE DUP1 PUSH1 0x3 DUP4 ADD SLOAD AND PUSH1 0x60 DUP7 ADD MSTORE DUP1 PUSH1 0x4 DUP4 ADD SLOAD AND PUSH1 0x80 DUP7 ADD MSTORE DUP1 PUSH1 0x5 DUP4 ADD SLOAD AND PUSH1 0xA0 DUP7 ADD MSTORE PUSH1 0x6 DUP3 ADD SLOAD AND PUSH1 0xC0 DUP6 ADD MSTORE PUSH1 0x7 DUP2 ADD SLOAD PUSH1 0xE0 DUP6 ADD MSTORE PUSH1 0x8 DUP2 ADD SLOAD PUSH2 0x100 DUP6 ADD MSTORE PUSH1 0x9 DUP2 ADD SLOAD PUSH2 0x120 DUP6 ADD MSTORE ADD SLOAD PUSH2 0x303 DUP3 DUP3 AND PUSH2 0x140 DUP6 ADD PUSH2 0x17E5 JUMP JUMPDEST PUSH1 0x8 SHR AND ISZERO ISZERO PUSH2 0x160 DUP3 ADD MSTORE PUSH2 0x31C PUSH1 0x40 MLOAD DUP1 SWAP3 PUSH2 0x14AA JUMP JUMPDEST RETURN JUMPDEST CALLVALUE PUSH2 0x1C0 JUMPI PUSH0 CALLDATASIZE PUSH1 0x3 NOT ADD SLT PUSH2 0x1C0 JUMPI PUSH1 0x40 MLOAD DUP1 PUSH1 0x3 SLOAD SWAP2 DUP3 DUP2 MSTORE PUSH1 0x20 DUP1 SWAP2 ADD SWAP3 PUSH1 0x3 PUSH0 MSTORE PUSH32 0xC2575A0E9E593C00F959F8C92F12DB2869C3395A3B0502D05E2516446F71F85B SWAP2 PUSH0 SWAP1 JUMPDEST DUP3 DUP3 LT PUSH2 0x37F JUMPI PUSH2 0x1A3 DUP6 PUSH2 0x197 DUP2 DUP10 SUB DUP3 PUSH2 0x17C3 JUMP JUMPDEST DUP4 SLOAD PUSH1 0x1 PUSH1 0x1 PUSH1 0xA0 SHL SUB AND DUP7 MSTORE SWAP5 DUP6 ADD SWAP5 PUSH1 0x1 SWAP4 DUP5 ADD SWAP4 SWAP1 SWAP2 ADD SWAP1 PUSH2 0x368 JUMP JUMPDEST CALLVALUE PUSH2 0x1C0 JUMPI PUSH1 0x40 CALLDATASIZE PUSH1 0x3 NOT ADD SLT PUSH2 0x1C0 JUMPI PUSH2 0x3B8 PUSH2 0x142E JUMP JUMPDEST PUSH2 0x3C0 PUSH2 0x1444 JUMP JUMPDEST CALLER PUSH0 SWAP1 DUP2 MSTORE PUSH32 0xAD3228B676F7D3CD4284A5443F17F1962B36E491B30A40B2405849E597BA5FB5 PUSH1 0x20 MSTORE PUSH1 0x40 SWAP1 KECCAK256 SLOAD PUSH1 0xFF AND ISZERO PUSH2 0x514 JUMPI PUSH1 0x1 PUSH1 0x1 PUSH1 0xA0 SHL SUB DUP3 DUP2 AND SWAP3 SWAP1 DUP4 ISZERO PUSH2 0x4C3 JUMPI DUP3 AND DUP1 ISZERO PUSH2 0x472 JUMPI PUSH1 0x1 DUP1 SLOAD PUSH1 0x1 PUSH1 0x1 PUSH1 0xA0 SHL SUB NOT SWAP1 DUP2 AND SWAP6 SWAP1 SWAP6 OR SWAP1 SSTORE PUSH1 0x2 DUP1 SLOAD SWAP1 SWAP5 AND OR SWAP1 SWAP3 SSTORE PUSH1 0x40 DUP1 MLOAD PUSH1 0x1 PUSH1 0x1 PUSH1 0xA0 SHL SUB SWAP4 DUP5 AND DUP2 MSTORE SWAP2 SWAP1 SWAP3 AND PUSH1 0x20 DUP3 ADD MSTORE PUSH32 0x8FC18CC172F74C81235145B7927190D2BD0E351FC45BFB17BB572593273CEF21 SWAP2 SWAP1 LOG1 STOP JUMPDEST PUSH1 0x40 MLOAD PUSH3 0x461BCD PUSH1 0xE5 SHL DUP2 MSTORE PUSH1 0x20 PUSH1 0x4 DUP3 ADD MSTORE PUSH1 0x24 DUP1 DUP3 ADD MSTORE PUSH32 0x5265776172644D616E616765722063616E6E6F74206265207A65726F20616464 PUSH1 0x44 DUP3 ADD MSTORE PUSH4 0x72657373 PUSH1 0xE0 SHL PUSH1 0x64 DUP3 ADD MSTORE PUSH1 0x84 SWAP1 REVERT JUMPDEST PUSH1 0x40 MLOAD PUSH3 0x461BCD PUSH1 0xE5 SHL DUP2 MSTORE PUSH1 0x20 PUSH1 0x4 DUP3 ADD MSTORE PUSH1 0x23 PUSH1 0x24 DUP3 ADD MSTORE PUSH32 0x5661756C744D616E616765722063616E6E6F74206265207A65726F2061646472 PUSH1 0x44 DUP3 ADD MSTORE PUSH3 0x657373 PUSH1 0xE8 SHL PUSH1 0x64 DUP3 ADD MSTORE PUSH1 0x84 SWAP1 REVERT JUMPDEST PUSH1 0x40 MLOAD PUSH4 0xE2517D3F PUSH1 0xE0 SHL DUP2 MSTORE CALLER PUSH1 0x4 DUP3 ADD MSTORE PUSH0 PUSH1 0x24 DUP3 ADD MSTORE PUSH1 0x44 SWAP1 REVERT JUMPDEST CALLVALUE PUSH2 0x1C0 JUMPI PUSH0 CALLDATASIZE PUSH1 0x3 NOT ADD SLT PUSH2 0x1C0 JUMPI PUSH1 0x1 SLOAD PUSH1 0x2 SLOAD PUSH1 0x40 DUP1 MLOAD PUSH1 0x1 PUSH1 0x1 PUSH1 0xA0 SHL SUB SWAP4 DUP5 AND DUP2 MSTORE SWAP3 SWAP1 SWAP2 AND PUSH1 0x20 DUP4 ADD MSTORE SWAP1 RETURN JUMPDEST CALLVALUE PUSH2 0x1C0 JUMPI PUSH0 CALLDATASIZE PUSH1 0x3 NOT ADD SLT PUSH2 0x1C0 JUMPI PUSH1 0x20 PUSH1 0x40 MLOAD PUSH0 DUP2 MSTORE RETURN JUMPDEST CALLVALUE PUSH2 0x1C0 JUMPI PUSH1 0x40 CALLDATASIZE PUSH1 0x3 NOT ADD SLT PUSH2 0x1C0 JUMPI PUSH2 0x598 PUSH2 0x1444 JUMP JUMPDEST PUSH1 0x4 CALLDATALOAD PUSH0 MSTORE PUSH0 PUSH1 0x20 MSTORE PUSH1 0x40 PUSH0 KECCAK256 SWAP1 PUSH1 0x1 DUP1 PUSH1 0xA0 SHL SUB AND PUSH0 MSTORE PUSH1 0x20 MSTORE PUSH1 0x20 PUSH1 0xFF PUSH1 0x40 PUSH0 KECCAK256 SLOAD AND PUSH1 0x40 MLOAD SWAP1 ISZERO ISZERO DUP2 MSTORE RETURN JUMPDEST CALLVALUE PUSH2 0x1C0 JUMPI PUSH0 CALLDATASIZE PUSH1 0x3 NOT ADD SLT PUSH2 0x1C0 JUMPI PUSH1 0x1 SLOAD PUSH1 0x40 MLOAD PUSH1 0x1 PUSH1 0x1 PUSH1 0xA0 SHL SUB SWAP1 SWAP2 AND DUP2 MSTORE PUSH1 0x20 SWAP1 RETURN JUMPDEST CALLVALUE PUSH2 0x1C0 JUMPI PUSH1 0x20 DUP1 PUSH1 0x3 NOT CALLDATASIZE ADD SLT PUSH2 0x1C0 JUMPI PUSH2 0x609 PUSH2 0x142E JUMP JUMPDEST SWAP1 PUSH1 0x1 DUP1 PUSH1 0xA0 SHL SUB SWAP1 DUP2 DUP4 AND SWAP3 DUP4 PUSH0 MSTORE PUSH1 0x4 DUP3 MSTORE PUSH2 0x62E DUP4 PUSH1 0x40 PUSH0 KECCAK256 SLOAD AND ISZERO ISZERO PUSH2 0x1874 JUMP JUMPDEST DUP4 PUSH0 MSTORE PUSH1 0x4 DUP3 MSTORE DUP3 PUSH1 0x40 PUSH0 KECCAK256 SLOAD AND DUP1 PUSH0 MSTORE PUSH1 0x5 SWAP4 DUP5 DUP5 MSTORE PUSH2 0x652 DUP4 PUSH1 0x40 PUSH0 KECCAK256 PUSH2 0x19B4 JUMP JUMPDEST DUP3 PUSH0 MSTORE DUP6 DUP6 MSTORE PUSH1 0x40 PUSH0 KECCAK256 SLOAD SWAP4 PUSH0 NOT SWAP4 DUP5 DUP7 ADD SWAP6 DUP7 GT PUSH2 0x7D1 JUMPI PUSH2 0x6C3 PUSH2 0x6D9 SWAP4 DUP6 PUSH2 0x689 PUSH2 0x69C SWAP10 DUP6 PUSH0 MSTORE DUP13 DUP13 MSTORE PUSH1 0x40 PUSH0 KECCAK256 PUSH2 0x183A JUMP JUMPDEST SWAP10 SWAP1 SLOAD SWAP3 DUP6 PUSH0 MSTORE DUP13 DUP13 MSTORE PUSH1 0x40 PUSH0 KECCAK256 PUSH2 0x183A JUMP JUMPDEST SWAP2 SWAP1 SWAP3 PUSH1 0x3 SWAP11 DUP12 SHL SHR AND SWAP1 DUP3 SLOAD SWAP1 PUSH1 0x3 SHL SWAP2 PUSH1 0x1 DUP1 PUSH1 0xA0 SHL SUB DUP1 SWAP2 AND DUP4 SHL SWAP3 SHL NOT AND OR SWAP1 SSTORE JUMP JUMPDEST PUSH0 MSTORE DUP7 DUP7 MSTORE PUSH2 0x6D4 PUSH1 0x40 PUSH0 KECCAK256 PUSH2 0x1949 JUMP JUMPDEST PUSH2 0x1965 JUMP JUMPDEST DUP4 SLOAD DUP4 DUP2 ADD SWAP1 DUP2 GT PUSH2 0x7D1 JUMPI PUSH2 0x721 SWAP3 PUSH2 0x6F5 PUSH2 0x702 SWAP3 PUSH2 0x17F1 JUMP JUMPDEST SWAP1 SLOAD SWAP1 DUP8 SHL SHR AND SWAP2 PUSH2 0x17F1 JUMP JUMPDEST SWAP1 SWAP2 SWAP1 DUP3 SLOAD SWAP1 PUSH1 0x3 SHL SWAP2 PUSH1 0x1 DUP1 PUSH1 0xA0 SHL SUB DUP1 SWAP2 AND DUP4 SHL SWAP3 SHL NOT AND OR SWAP1 SSTORE JUMP JUMPDEST DUP2 SLOAD SWAP4 DUP5 ISZERO PUSH2 0x7BD JUMPI PUSH1 0x4 PUSH1 0xA SWAP5 PUSH0 SWAP7 SWAP4 DUP8 SWAP5 ADD PUSH2 0x756 PUSH2 0x741 DUP3 PUSH2 0x17F1 JUMP JUMPDEST DUP2 SLOAD SWAP1 PUSH1 0x1 DUP1 PUSH1 0xA0 SHL SUB SWAP1 PUSH1 0x3 SHL SHL NOT AND SWAP1 SSTORE JUMP JUMPDEST DUP6 SSTORE DUP8 DUP5 MSTORE MSTORE DUP2 PUSH1 0x40 DUP2 KECCAK256 SWAP4 DUP2 DUP6 SSTORE DUP2 PUSH1 0x1 DUP7 ADD SSTORE DUP2 PUSH1 0x2 DUP7 ADD SSTORE DUP5 ADD SSTORE DUP2 PUSH1 0x4 DUP5 ADD SSTORE DUP3 ADD SSTORE DUP3 PUSH1 0x6 DUP3 ADD SSTORE DUP3 PUSH1 0x7 DUP3 ADD SSTORE DUP3 PUSH1 0x8 DUP3 ADD SSTORE DUP3 PUSH1 0x9 DUP3 ADD SSTORE ADD SSTORE PUSH32 0x334D0B2111287DFDDEBE4B4C1C5AF3AE644909D7FCD024377BF601E236ED5ABB PUSH0 DUP1 LOG2 STOP JUMPDEST PUSH4 0x4E487B71 PUSH1 0xE0 SHL PUSH0 MSTORE PUSH1 0x31 PUSH1 0x4 MSTORE PUSH1 0x24 PUSH0 REVERT JUMPDEST PUSH4 0x4E487B71 PUSH1 0xE0 SHL PUSH0 MSTORE PUSH1 0x11 PUSH1 0x4 MSTORE PUSH1 0x24 PUSH0 REVERT JUMPDEST CALLVALUE PUSH2 0x1C0 JUMPI PUSH1 0x20 CALLDATASIZE PUSH1 0x3 NOT ADD SLT PUSH2 0x1C0 JUMPI PUSH1 0x1 PUSH1 0x1 PUSH1 0xA0 SHL SUB DUP1 PUSH2 0x807 PUSH2 0x142E JUMP JUMPDEST AND SWAP1 DUP2 PUSH0 MSTORE PUSH1 0x6 PUSH1 0x20 MSTORE DUP1 PUSH1 0x40 PUSH0 KECCAK256 SLOAD AND ISZERO PUSH2 0x834 JUMPI PUSH1 0x20 SWAP2 PUSH0 MSTORE PUSH1 0x6 DUP3 MSTORE PUSH1 0x40 PUSH0 KECCAK256 SLOAD AND PUSH1 0x40 MLOAD SWAP1 DUP2 MSTORE RETURN JUMPDEST PUSH1 0x40 MLOAD PUSH3 0x461BCD PUSH1 0xE5 SHL DUP2 MSTORE PUSH1 0x20 PUSH1 0x4 DUP3 ADD MSTORE PUSH1 0x23 PUSH1 0x24 DUP3 ADD MSTORE PUSH32 0x506F6F6C206E6F742072656769737465726564206F7220686173206E6F207661 PUSH1 0x44 DUP3 ADD MSTORE PUSH3 0x1D5B1D PUSH1 0xEA SHL PUSH1 0x64 DUP3 ADD MSTORE PUSH1 0x84 SWAP1 REVERT JUMPDEST CALLVALUE PUSH2 0x1C0 JUMPI PUSH1 0x20 DUP1 PUSH1 0x3 NOT CALLDATASIZE ADD SLT PUSH2 0x1C0 JUMPI PUSH2 0x89F PUSH2 0x142E JUMP JUMPDEST PUSH0 DUP1 MSTORE PUSH0 DUP3 MSTORE PUSH1 0x40 PUSH0 KECCAK256 CALLER PUSH0 MSTORE DUP3 MSTORE PUSH1 0xFF PUSH1 0x40 PUSH0 KECCAK256 SLOAD AND ISZERO PUSH2 0x919 JUMPI PUSH0 PUSH2 0x200 SWAP3 PUSH32 0x6077685936C8169D09204A1D97DB12E41713588C38E1D29A61867D3DCEE98AFF DUP3 MSTORE DUP2 DUP2 MSTORE PUSH2 0x8F6 PUSH1 0x1 PUSH1 0x40 DUP5 KECCAK256 ADD SLOAD PUSH2 0x153D JUMP JUMPDEST PUSH2 0x8FF DUP4 PUSH2 0x157C JUMP JUMPDEST POP DUP2 DUP1 MSTORE MSTORE PUSH2 0x914 PUSH1 0x1 PUSH1 0x40 PUSH0 KECCAK256 ADD SLOAD PUSH2 0x153D JUMP JUMPDEST PUSH2 0x162D JUMP JUMPDEST PUSH1 0x40 MLOAD PUSH3 0x461BCD PUSH1 0xE5 SHL DUP2 MSTORE PUSH1 0x4 DUP2 ADD DUP4 SWAP1 MSTORE PUSH1 0x16 PUSH1 0x24 DUP3 ADD MSTORE PUSH22 0x21B0B63632B91034B9903737BA1030B71030B236B4B7 PUSH1 0x51 SHL PUSH1 0x44 DUP3 ADD MSTORE PUSH1 0x64 SWAP1 REVERT JUMPDEST CALLVALUE PUSH2 0x1C0 JUMPI PUSH0 CALLDATASIZE PUSH1 0x3 NOT ADD SLT PUSH2 0x1C0 JUMPI PUSH1 0x20 PUSH1 0x40 MLOAD PUSH32 0x6077685936C8169D09204A1D97DB12E41713588C38E1D29A61867D3DCEE98AFF DUP2 MSTORE RETURN JUMPDEST CALLVALUE PUSH2 0x1C0 JUMPI PUSH1 0x20 DUP1 PUSH1 0x3 NOT CALLDATASIZE ADD SLT PUSH2 0x1C0 JUMPI PUSH1 0x1 PUSH1 0x1 PUSH1 0xA0 SHL SUB SWAP1 DUP2 PUSH2 0x9B5 PUSH2 0x142E JUMP JUMPDEST AND PUSH0 MSTORE PUSH1 0x5 SWAP1 DUP2 DUP2 MSTORE PUSH1 0x40 PUSH0 KECCAK256 SWAP2 PUSH1 0x40 MLOAD DUP1 DUP5 DUP5 DUP3 SWAP7 SLOAD SWAP4 DUP5 DUP2 MSTORE ADD SWAP1 PUSH0 MSTORE DUP5 PUSH0 KECCAK256 SWAP3 PUSH0 JUMPDEST DUP7 DUP3 DUP3 LT PUSH2 0xB68 JUMPI POP POP POP PUSH2 0x9F1 SWAP3 POP SUB DUP5 PUSH2 0x17C3 JUMP JUMPDEST DUP3 MLOAD SWAP4 PUSH2 0x9FD DUP6 PUSH2 0x18B6 JUMP JUMPDEST SWAP5 PUSH2 0xA0B PUSH1 0x40 MLOAD SWAP7 DUP8 PUSH2 0x17C3 JUMP JUMPDEST DUP1 DUP7 MSTORE PUSH2 0xA1A PUSH1 0x1F NOT SWAP2 PUSH2 0x18B6 JUMP JUMPDEST ADD DUP4 PUSH0 JUMPDEST DUP3 DUP2 LT PUSH2 0xB52 JUMPI POP POP POP PUSH0 JUMPDEST DUP5 MLOAD DUP2 LT ISZERO PUSH2 0xB08 JUMPI DUP1 DUP3 PUSH2 0xA42 PUSH2 0xB03 SWAP4 DUP9 PUSH2 0x1935 JUMP JUMPDEST MLOAD AND PUSH0 MSTORE PUSH1 0x4 DUP6 MSTORE PUSH1 0x40 PUSH0 KECCAK256 PUSH1 0x40 MLOAD SWAP1 PUSH2 0xA5B DUP3 PUSH2 0x17A6 JUMP JUMPDEST DUP5 DUP2 SLOAD AND DUP3 MSTORE DUP5 PUSH1 0x1 DUP3 ADD SLOAD AND DUP8 DUP4 ADD MSTORE PUSH1 0x2 DUP2 ADD SLOAD PUSH1 0x40 DUP4 ADD MSTORE DUP5 PUSH1 0x3 DUP3 ADD SLOAD AND PUSH1 0x60 DUP4 ADD MSTORE DUP5 PUSH1 0x4 DUP3 ADD SLOAD AND PUSH1 0x80 DUP4 ADD MSTORE DUP5 DUP7 DUP3 ADD SLOAD AND PUSH1 0xA0 DUP4 ADD MSTORE DUP5 PUSH1 0x6 DUP3 ADD SLOAD AND PUSH1 0xC0 DUP4 ADD MSTORE PUSH1 0x7 DUP2 ADD SLOAD PUSH1 0xE0 DUP4 ADD MSTORE PUSH1 0xA PUSH1 0x8 SWAP2 DUP3 DUP2 ADD SLOAD PUSH2 0x100 DUP6 ADD MSTORE PUSH1 0x9 DUP2 ADD SLOAD PUSH2 0x120 DUP6 ADD MSTORE ADD SLOAD PUSH1 0xFF SWAP2 PUSH2 0xADE DUP4 DUP4 AND PUSH2 0x140 DUP7 ADD PUSH2 0x17E5 JUMP JUMPDEST SHR AND ISZERO ISZERO PUSH2 0x160 DUP3 ADD MSTORE PUSH2 0xAF2 DUP3 DUP10 PUSH2 0x1935 JUMP JUMPDEST MSTORE PUSH2 0xAFD DUP2 DUP9 PUSH2 0x1935 JUMP JUMPDEST POP PUSH2 0x1927 JUMP JUMPDEST PUSH2 0xA2A JUMP JUMPDEST PUSH1 0x40 DUP1 MLOAD DUP6 DUP2 MSTORE DUP8 MLOAD DUP2 DUP8 ADD DUP2 SWAP1 MSTORE DUP9 DUP8 ADD SWAP3 DUP3 ADD SWAP1 DUP8 PUSH0 JUMPDEST DUP3 DUP2 LT PUSH2 0xB2E JUMPI DUP5 DUP5 SUB DUP6 RETURN JUMPDEST SWAP1 SWAP2 SWAP3 DUP3 PUSH2 0x180 DUP3 PUSH2 0xB43 PUSH1 0x1 SWAP5 DUP11 MLOAD PUSH2 0x14AA JUMP JUMPDEST ADD SWAP7 ADD SWAP2 ADD SWAP5 SWAP3 SWAP2 SWAP1 SWAP5 PUSH2 0xB21 JUMP JUMPDEST PUSH2 0xB5A PUSH2 0x18CE JUMP JUMPDEST DUP3 DUP3 DUP11 ADD ADD MSTORE ADD DUP5 SWAP1 PUSH2 0xA1E JUMP JUMPDEST DUP6 SLOAD DUP11 AND DUP5 MSTORE PUSH1 0x1 SWAP6 DUP7 ADD SWAP6 DUP10 SWAP6 POP SWAP4 ADD SWAP3 ADD PUSH2 0x9DA JUMP JUMPDEST CALLVALUE PUSH2 0x1C0 JUMPI PUSH2 0x160 CALLDATASIZE PUSH1 0x3 NOT ADD SLT PUSH2 0x1C0 JUMPI PUSH2 0xB9A PUSH2 0x142E JUMP JUMPDEST PUSH2 0xBA2 PUSH2 0x1444 JUMP JUMPDEST SWAP1 PUSH1 0x44 CALLDATALOAD PUSH1 0x1 PUSH1 0x1 PUSH1 0xA0 SHL SUB DUP2 AND DUP2 SUB PUSH2 0x1C0 JUMPI PUSH1 0x64 CALLDATALOAD SWAP1 PUSH1 0x1 PUSH1 0x1 PUSH1 0xA0 SHL SUB DUP3 AND DUP3 SUB PUSH2 0x1C0 JUMPI PUSH1 0x84 CALLDATALOAD PUSH1 0x1 PUSH1 0x1 PUSH1 0xA0 SHL SUB DUP2 AND DUP2 SUB PUSH2 0x1C0 JUMPI PUSH1 0xA4 CALLDATALOAD PUSH1 0x1 PUSH1 0x1 PUSH1 0xA0 SHL SUB DUP2 AND DUP2 SUB PUSH2 0x1C0 JUMPI PUSH1 0xC4 CALLDATALOAD SWAP1 PUSH1 0x1 PUSH1 0x1 PUSH1 0xA0 SHL SUB DUP3 AND DUP3 SUB PUSH2 0x1C0 JUMPI PUSH1 0x2 PUSH2 0x144 CALLDATALOAD LT ISZERO PUSH2 0x1C0 JUMPI PUSH1 0x1 PUSH1 0x1 PUSH1 0xA0 SHL SUB DUP7 AND ISZERO PUSH2 0xEC2 JUMPI PUSH1 0x1 PUSH1 0x1 PUSH1 0xA0 SHL SUB DUP7 DUP2 AND PUSH0 SWAP1 DUP2 MSTORE PUSH1 0x4 PUSH1 0x20 MSTORE PUSH1 0x40 SWAP1 KECCAK256 SLOAD AND PUSH2 0xE7D JUMPI PUSH1 0x40 MLOAD SWAP3 PUSH2 0xC4A DUP5 PUSH2 0x17A6 JUMP JUMPDEST PUSH1 0x1 PUSH1 0x1 PUSH1 0xA0 SHL SUB DUP9 DUP2 AND DUP6 MSTORE DUP6 DUP2 AND PUSH1 0x20 DUP7 ADD MSTORE TIMESTAMP PUSH1 0x40 DUP7 ADD MSTORE DUP7 DUP2 AND PUSH1 0x60 DUP7 ADD MSTORE SWAP1 DUP2 AND PUSH1 0x80 DUP6 ADD MSTORE SWAP1 DUP2 AND PUSH1 0xA0 DUP5 ADD MSTORE AND PUSH1 0xC0 DUP3 ADD MSTORE PUSH1 0xE4 CALLDATALOAD PUSH1 0xE0 DUP3 ADD MSTORE PUSH2 0x104 CALLDATALOAD PUSH2 0x100 DUP3 ADD MSTORE PUSH2 0x124 CALLDATALOAD PUSH2 0x120 DUP3 ADD MSTORE PUSH2 0xCB0 PUSH2 0x144 CALLDATALOAD PUSH2 0x140 DUP4 ADD PUSH2 0x17E5 JUMP JUMPDEST PUSH0 PUSH2 0x160 DUP3 ADD MSTORE PUSH1 0x1 DUP1 PUSH1 0xA0 SHL SUB DUP5 AND PUSH0 MSTORE PUSH1 0x4 PUSH1 0x20 MSTORE PUSH1 0xA PUSH1 0x40 PUSH0 KECCAK256 PUSH1 0x1 DUP1 PUSH1 0xA0 SHL SUB DUP4 MLOAD AND PUSH1 0x1 PUSH1 0x1 PUSH1 0x60 SHL SUB PUSH1 0xA0 SHL SWAP1 DUP2 DUP4 SLOAD AND OR DUP3 SSTORE PUSH1 0x1 DUP3 ADD PUSH1 0x1 DUP1 PUSH1 0xA0 SHL SUB PUSH1 0x20 DUP7 ADD MLOAD AND DUP3 DUP3 SLOAD AND OR SWAP1 SSTORE PUSH1 0x40 DUP5 ADD MLOAD PUSH1 0x2 DUP4 ADD SSTORE PUSH1 0x3 DUP3 ADD PUSH1 0x1 DUP1 PUSH1 0xA0 SHL SUB PUSH1 0x60 DUP7 ADD MLOAD AND DUP3 DUP3 SLOAD AND OR SWAP1 SSTORE PUSH1 0x4 DUP3 ADD PUSH1 0x1 DUP1 PUSH1 0xA0 SHL SUB PUSH1 0x80 DUP7 ADD MLOAD AND DUP3 DUP3 SLOAD AND OR SWAP1 SSTORE PUSH1 0x5 DUP3 ADD PUSH1 0x1 DUP1 PUSH1 0xA0 SHL SUB PUSH1 0xA0 DUP7 ADD MLOAD AND DUP3 DUP3 SLOAD AND OR SWAP1 SSTORE PUSH1 0x6 DUP3 ADD SWAP1 PUSH1 0x1 DUP1 PUSH1 0xA0 SHL SUB PUSH1 0xC0 DUP7 ADD MLOAD AND SWAP1 DUP3 SLOAD AND OR SWAP1 SSTORE PUSH1 0xE0 DUP4 ADD MLOAD PUSH1 0x7 DUP3 ADD SSTORE PUSH2 0x100 DUP4 ADD MLOAD PUSH1 0x8 DUP3 ADD SSTORE PUSH2 0x120 DUP4 ADD MLOAD PUSH1 0x9 DUP3 ADD SSTORE ADD SWAP1 PUSH2 0x140 DUP2 ADD MLOAD SWAP1 PUSH1 0x2 DUP3 LT ISZERO PUSH2 0xE69 JUMPI PUSH1 0xFF PUSH2 0xFF00 PUSH2 0x160 DUP6 SLOAD SWAP4 ADD MLOAD ISZERO ISZERO PUSH1 0x8 SHL AND SWAP3 AND SWAP1 PUSH2 0xFFFF NOT AND OR OR SWAP1 SSTORE PUSH1 0x1 DUP1 PUSH1 0xA0 SHL SUB DUP5 AND PUSH0 MSTORE PUSH1 0x5 PUSH1 0x20 MSTORE PUSH2 0xDDB DUP4 PUSH1 0x40 PUSH0 KECCAK256 PUSH2 0x184F JUMP JUMPDEST PUSH1 0x3 SLOAD PUSH1 0x1 PUSH1 0x40 SHL DUP2 LT ISZERO PUSH2 0xE55 JUMPI PUSH32 0x8F723E49DC038E67C41B41307A1E0C65653D50125A0C474A21AC32D9A0B24D2B SWAP2 PUSH2 0xE22 DUP6 PUSH2 0x702 DUP5 PUSH1 0x1 PUSH1 0x40 SWAP7 ADD PUSH1 0x3 SSTORE PUSH2 0x17F1 JUMP JUMPDEST DUP2 MLOAD PUSH1 0x1 PUSH1 0x1 PUSH1 0xA0 SHL SUB SWAP1 SWAP5 AND DUP5 MSTORE PUSH2 0xE41 PUSH1 0x20 DUP6 ADD PUSH2 0x144 CALLDATALOAD PUSH2 0x149D JUMP JUMPDEST PUSH1 0x1 PUSH1 0x1 PUSH1 0xA0 SHL SUB SWAP1 DUP2 AND SWAP6 DUP2 AND SWAP5 AND SWAP3 LOG4 STOP JUMPDEST PUSH4 0x4E487B71 PUSH1 0xE0 SHL PUSH0 MSTORE PUSH1 0x41 PUSH1 0x4 MSTORE PUSH1 0x24 PUSH0 REVERT JUMPDEST PUSH4 0x4E487B71 PUSH1 0xE0 SHL PUSH0 MSTORE PUSH1 0x21 PUSH1 0x4 MSTORE PUSH1 0x24 PUSH0 REVERT JUMPDEST PUSH1 0x40 MLOAD PUSH3 0x461BCD PUSH1 0xE5 SHL DUP2 MSTORE PUSH1 0x20 PUSH1 0x4 DUP3 ADD MSTORE PUSH1 0x17 PUSH1 0x24 DUP3 ADD MSTORE PUSH32 0x506F6F6C20616C72656164792072656769737465726564000000000000000000 PUSH1 0x44 DUP3 ADD MSTORE PUSH1 0x64 SWAP1 REVERT JUMPDEST PUSH1 0x40 MLOAD PUSH3 0x461BCD PUSH1 0xE5 SHL DUP2 MSTORE PUSH1 0x20 PUSH1 0x4 DUP3 ADD MSTORE PUSH1 0x1B PUSH1 0x24 DUP3 ADD MSTORE PUSH32 0x506F6F6C20616464726573732063616E6E6F74206265207A65726F0000000000 PUSH1 0x44 DUP3 ADD MSTORE PUSH1 0x64 SWAP1 REVERT JUMPDEST CALLVALUE PUSH2 0x1C0 JUMPI PUSH1 0x40 CALLDATASIZE PUSH1 0x3 NOT ADD SLT PUSH2 0x1C0 JUMPI PUSH2 0xF20 PUSH2 0x142E JUMP JUMPDEST PUSH2 0xF28 PUSH2 0x1444 JUMP JUMPDEST SWAP1 PUSH1 0x1 DUP1 PUSH1 0xA0 SHL SUB SWAP2 DUP3 DUP3 AND DUP1 PUSH0 MSTORE DUP4 PUSH1 0x20 SWAP3 PUSH1 0x4 DUP5 MSTORE PUSH2 0xF50 DUP3 PUSH1 0x40 PUSH0 KECCAK256 SLOAD AND ISZERO ISZERO PUSH2 0x1874 JUMP JUMPDEST AND SWAP4 DUP5 ISZERO PUSH2 0x1062 JUMPI DUP2 PUSH0 MSTORE PUSH1 0x4 DUP4 MSTORE DUP1 PUSH1 0x1 PUSH1 0x40 PUSH0 KECCAK256 ADD SLOAD AND DUP6 DUP2 SUB PUSH2 0xF72 JUMPI STOP JUMPDEST DUP1 PUSH2 0xFB0 JUMPI JUMPDEST POP POP PUSH2 0xF90 PUSH1 0x4 SWAP4 DUP6 PUSH0 MSTORE PUSH1 0x7 DUP5 MSTORE PUSH1 0x40 PUSH0 KECCAK256 PUSH2 0x184F JUMP JUMPDEST PUSH0 MSTORE MSTORE PUSH1 0x1 PUSH1 0x40 PUSH0 KECCAK256 ADD SWAP1 PUSH1 0x1 PUSH1 0x1 PUSH1 0x60 SHL SUB PUSH1 0xA0 SHL DUP3 SLOAD AND OR SWAP1 SSTORE PUSH0 DUP1 RETURN JUMPDEST DUP1 PUSH0 MSTORE PUSH1 0x7 DUP5 MSTORE PUSH2 0xFC4 DUP6 PUSH1 0x40 PUSH0 KECCAK256 PUSH2 0x19B4 JUMP JUMPDEST SWAP1 DUP1 PUSH0 MSTORE PUSH1 0x7 DUP6 MSTORE PUSH1 0x40 PUSH0 KECCAK256 SLOAD SWAP3 DUP4 DUP4 LT PUSH2 0xFE1 JUMPI JUMPDEST POP POP PUSH2 0xF78 JUMP JUMPDEST PUSH0 NOT DUP5 ADD SWAP7 SWAP3 SWAP4 DUP8 GT PUSH2 0x7D1 JUMPI PUSH2 0x1023 PUSH2 0xF90 SWAP5 PUSH2 0x1048 SWAP3 PUSH2 0x100F PUSH1 0x4 SWAP11 DUP7 PUSH0 MSTORE PUSH1 0x7 DUP12 MSTORE PUSH1 0x40 PUSH0 KECCAK256 PUSH2 0x183A JUMP JUMPDEST SWAP4 SWAP1 SLOAD SWAP3 DUP7 PUSH0 MSTORE PUSH1 0x7 DUP12 MSTORE PUSH1 0x40 PUSH0 KECCAK256 PUSH2 0x183A JUMP JUMPDEST SWAP3 SWAP1 SWAP4 PUSH1 0x3 SHL SHR AND SWAP1 DUP3 SLOAD SWAP1 PUSH1 0x3 SHL SWAP2 PUSH1 0x1 DUP1 PUSH1 0xA0 SHL SUB DUP1 SWAP2 AND DUP4 SHL SWAP3 SHL NOT AND OR SWAP1 SSTORE JUMP JUMPDEST PUSH0 MSTORE PUSH1 0x7 DUP5 MSTORE PUSH2 0x105A PUSH1 0x40 PUSH0 KECCAK256 PUSH2 0x1949 JUMP JUMPDEST SWAP4 DUP7 DUP1 PUSH2 0xFDA JUMP JUMPDEST PUSH1 0x40 MLOAD PUSH3 0x461BCD PUSH1 0xE5 SHL DUP2 MSTORE PUSH1 0x4 DUP2 ADD DUP5 SWAP1 MSTORE PUSH1 0x23 PUSH1 0x24 DUP3 ADD MSTORE PUSH32 0x426F72726F7765722063616E6E6F7420626520746865207A65726F2061646472 PUSH1 0x44 DUP3 ADD MSTORE PUSH3 0x657373 PUSH1 0xE8 SHL PUSH1 0x64 DUP3 ADD MSTORE PUSH1 0x84 SWAP1 REVERT JUMPDEST CALLVALUE PUSH2 0x1C0 JUMPI PUSH1 0x40 CALLDATASIZE PUSH1 0x3 NOT ADD SLT PUSH2 0x1C0 JUMPI PUSH2 0x10CC PUSH2 0x1444 JUMP JUMPDEST CALLER PUSH1 0x1 PUSH1 0x1 PUSH1 0xA0 SHL SUB DUP3 AND SUB PUSH2 0x10E8 JUMPI PUSH2 0x200 SWAP1 PUSH1 0x4 CALLDATALOAD PUSH2 0x1733 JUMP JUMPDEST PUSH1 0x40 MLOAD PUSH4 0x334BD919 PUSH1 0xE1 SHL DUP2 MSTORE PUSH1 0x4 SWAP1 REVERT JUMPDEST CALLVALUE PUSH2 0x1C0 JUMPI PUSH1 0x40 CALLDATASIZE PUSH1 0x3 NOT ADD SLT PUSH2 0x1C0 JUMPI PUSH2 0x200 PUSH1 0x4 CALLDATALOAD PUSH2 0x1119 PUSH2 0x1444 JUMP JUMPDEST SWAP1 DUP1 PUSH0 MSTORE PUSH0 PUSH1 0x20 MSTORE PUSH2 0x1131 PUSH1 0x1 PUSH1 0x40 PUSH0 KECCAK256 ADD SLOAD PUSH2 0x153D JUMP JUMPDEST PUSH2 0x16BC JUMP JUMPDEST CALLVALUE PUSH2 0x1C0 JUMPI PUSH1 0x20 DUP1 PUSH1 0x3 NOT CALLDATASIZE ADD SLT PUSH2 0x1C0 JUMPI PUSH1 0x1 PUSH1 0x1 PUSH1 0xA0 SHL SUB DUP1 PUSH2 0x1159 PUSH2 0x142E JUMP JUMPDEST AND PUSH0 MSTORE PUSH1 0x5 DUP3 MSTORE PUSH1 0x40 PUSH0 KECCAK256 SWAP2 PUSH1 0x40 MLOAD DUP1 SWAP3 DUP3 DUP6 SLOAD SWAP3 DUP4 DUP2 MSTORE ADD SWAP5 PUSH0 MSTORE DUP3 PUSH0 KECCAK256 SWAP3 PUSH0 SWAP2 JUMPDEST DUP4 DUP4 LT PUSH2 0x1193 JUMPI PUSH2 0x1A3 DUP7 PUSH2 0x197 DUP2 DUP11 SUB DUP3 PUSH2 0x17C3 JUMP JUMPDEST DUP5 SLOAD DUP2 AND DUP8 MSTORE SWAP6 DUP2 ADD SWAP6 PUSH1 0x1 SWAP5 DUP6 ADD SWAP5 SWAP1 SWAP3 ADD SWAP2 PUSH2 0x117C JUMP JUMPDEST CALLVALUE PUSH2 0x1C0 JUMPI PUSH1 0x20 CALLDATASIZE PUSH1 0x3 NOT ADD SLT PUSH2 0x1C0 JUMPI PUSH1 0x4 CALLDATALOAD PUSH0 MSTORE PUSH0 PUSH1 0x20 MSTORE PUSH1 0x20 PUSH1 0x1 PUSH1 0x40 PUSH0 KECCAK256 ADD SLOAD PUSH1 0x40 MLOAD SWAP1 DUP2 MSTORE RETURN JUMPDEST CALLVALUE PUSH2 0x1C0 JUMPI PUSH1 0x20 CALLDATASIZE PUSH1 0x3 NOT ADD SLT PUSH2 0x1C0 JUMPI PUSH1 0x1 PUSH1 0x1 PUSH1 0xA0 SHL SUB PUSH2 0x1214 DUP2 PUSH2 0x11FD PUSH2 0x142E JUMP JUMPDEST AND SWAP2 DUP3 PUSH0 MSTORE PUSH1 0x4 PUSH1 0x20 MSTORE PUSH1 0x40 PUSH0 KECCAK256 SLOAD AND ISZERO ISZERO PUSH2 0x1874 JUMP JUMPDEST PUSH0 SWAP1 DUP2 MSTORE PUSH1 0x4 PUSH1 0x20 MSTORE PUSH1 0x40 SWAP1 KECCAK256 PUSH1 0xA ADD DUP1 SLOAD PUSH2 0xFF00 NOT AND PUSH2 0x100 OR SWAP1 SSTORE STOP JUMPDEST CALLVALUE PUSH2 0x1C0 JUMPI PUSH1 0x20 CALLDATASIZE PUSH1 0x3 NOT ADD SLT PUSH2 0x1C0 JUMPI PUSH1 0x20 PUSH1 0x1 PUSH1 0x1 PUSH1 0xA0 SHL SUB DUP1 PUSH2 0x1257 PUSH2 0x142E JUMP JUMPDEST AND PUSH0 MSTORE PUSH1 0x6 DUP3 MSTORE PUSH1 0x40 PUSH0 KECCAK256 SLOAD AND PUSH1 0x40 MLOAD SWAP1 DUP2 MSTORE RETURN JUMPDEST CALLVALUE PUSH2 0x1C0 JUMPI PUSH0 CALLDATASIZE PUSH1 0x3 NOT ADD SLT PUSH2 0x1C0 JUMPI PUSH1 0x2 SLOAD PUSH1 0x40 MLOAD PUSH1 0x1 PUSH1 0x1 PUSH1 0xA0 SHL SUB SWAP1 SWAP2 AND DUP2 MSTORE PUSH1 0x20 SWAP1 RETURN JUMPDEST CALLVALUE PUSH2 0x1C0 JUMPI PUSH1 0x40 CALLDATASIZE PUSH1 0x3 NOT ADD SLT PUSH2 0x1C0 JUMPI PUSH2 0x12AD PUSH2 0x142E JUMP JUMPDEST PUSH2 0x12B5 PUSH2 0x1444 JUMP JUMPDEST SWAP1 PUSH1 0x1 PUSH1 0x1 PUSH1 0xA0 SHL SUB SWAP1 DUP2 AND SWAP1 DUP2 ISZERO ISZERO DUP1 PUSH2 0x13D0 JUMPI JUMPDEST ISZERO PUSH2 0x1397 JUMPI DUP2 PUSH0 MSTORE PUSH1 0x4 PUSH1 0x20 MSTORE PUSH2 0x12E9 DUP2 PUSH1 0x40 PUSH0 KECCAK256 SLOAD AND ISZERO ISZERO PUSH2 0x1874 JUMP JUMPDEST DUP2 PUSH0 MSTORE PUSH1 0x6 PUSH1 0x20 MSTORE DUP1 PUSH1 0x40 PUSH0 KECCAK256 SLOAD AND PUSH2 0x1343 JUMPI DUP2 PUSH0 MSTORE PUSH1 0x6 PUSH1 0x20 MSTORE PUSH1 0x40 PUSH0 KECCAK256 SWAP3 AND SWAP2 DUP3 PUSH1 0x1 PUSH1 0x1 PUSH1 0x60 SHL SUB PUSH1 0xA0 SHL DUP3 SLOAD AND OR SWAP1 SSTORE PUSH32 0xF8EE9039D8E4D43426638703C71517008894FDEA742BB2D2DBFF5A46FB07ABDB PUSH0 DUP1 LOG3 STOP JUMPDEST PUSH1 0x40 MLOAD PUSH3 0x461BCD PUSH1 0xE5 SHL DUP2 MSTORE PUSH1 0x20 PUSH1 0x4 DUP3 ADD MSTORE PUSH1 0x26 PUSH1 0x24 DUP3 ADD MSTORE PUSH32 0x5661756C7420616C7265616479207265676973746572656420666F7220746869 PUSH1 0x44 DUP3 ADD MSTORE PUSH6 0x1CC81C1BDBDB PUSH1 0xD2 SHL PUSH1 0x64 DUP3 ADD MSTORE PUSH1 0x84 SWAP1 REVERT JUMPDEST PUSH1 0x40 MLOAD PUSH3 0x461BCD PUSH1 0xE5 SHL DUP2 MSTORE PUSH1 0x20 PUSH1 0x4 DUP3 ADD MSTORE PUSH1 0x11 PUSH1 0x24 DUP3 ADD MSTORE PUSH17 0x496E76616C696420616464726573736573 PUSH1 0x78 SHL PUSH1 0x44 DUP3 ADD MSTORE PUSH1 0x64 SWAP1 REVERT JUMPDEST POP DUP1 DUP4 AND ISZERO ISZERO PUSH2 0x12CB JUMP JUMPDEST CALLVALUE PUSH2 0x1C0 JUMPI PUSH1 0x20 CALLDATASIZE PUSH1 0x3 NOT ADD SLT PUSH2 0x1C0 JUMPI PUSH1 0x4 CALLDATALOAD SWAP1 PUSH4 0xFFFFFFFF PUSH1 0xE0 SHL DUP3 AND DUP1 SWAP3 SUB PUSH2 0x1C0 JUMPI PUSH1 0x20 SWAP2 PUSH4 0x7965DB0B PUSH1 0xE0 SHL DUP2 EQ SWAP1 DUP2 ISZERO PUSH2 0x141D JUMPI JUMPDEST POP ISZERO ISZERO DUP2 MSTORE RETURN JUMPDEST PUSH4 0x1FFC9A7 PUSH1 0xE0 SHL EQ SWAP1 POP DUP4 PUSH2 0x1416 JUMP JUMPDEST PUSH1 0x4 CALLDATALOAD SWAP1 PUSH1 0x1 PUSH1 0x1 PUSH1 0xA0 SHL SUB DUP3 AND DUP3 SUB PUSH2 0x1C0 JUMPI JUMP JUMPDEST PUSH1 0x24 CALLDATALOAD SWAP1 PUSH1 0x1 PUSH1 0x1 PUSH1 0xA0 SHL SUB DUP3 AND DUP3 SUB PUSH2 0x1C0 JUMPI JUMP JUMPDEST PUSH1 0x20 SWAP1 DUP2 PUSH1 0x40 DUP2 DUP4 ADD SWAP3 DUP3 DUP2 MSTORE DUP6 MLOAD DUP1 SWAP5 MSTORE ADD SWAP4 ADD SWAP2 PUSH0 JUMPDEST DUP3 DUP2 LT PUSH2 0x1480 JUMPI POP POP POP POP SWAP1 JUMP JUMPDEST DUP4 MLOAD PUSH1 0x1 PUSH1 0x1 PUSH1 0xA0 SHL SUB AND DUP6 MSTORE SWAP4 DUP2 ADD SWAP4 SWAP3 DUP2 ADD SWAP3 PUSH1 0x1 ADD PUSH2 0x1472 JUMP JUMPDEST SWAP1 PUSH1 0x2 DUP3 LT ISZERO PUSH2 0xE69 JUMPI MSTORE JUMP JUMPDEST PUSH1 0x1 DUP1 PUSH1 0xA0 SHL SUB DUP1 DUP3 MLOAD AND DUP4 MSTORE DUP1 PUSH1 0x20 DUP4 ADD MLOAD AND PUSH1 0x20 DUP5 ADD MSTORE PUSH1 0x40 DUP3 ADD MLOAD PUSH1 0x40 DUP5 ADD MSTORE DUP1 PUSH1 0x60 DUP4 ADD MLOAD AND PUSH1 0x60 DUP5 ADD MSTORE DUP1 PUSH1 0x80 DUP4 ADD MLOAD AND PUSH1 0x80 DUP5 ADD MSTORE DUP1 PUSH1 0xA0 DUP4 ADD MLOAD AND PUSH1 0xA0 DUP5 ADD MSTORE PUSH1 0xC0 DUP3 ADD MLOAD AND PUSH1 0xC0 DUP4 ADD MSTORE PUSH1 0xE0 DUP2 ADD MLOAD PUSH1 0xE0 DUP4 ADD MSTORE PUSH2 0x100 DUP1 DUP3 ADD MLOAD SWAP1 DUP4 ADD MSTORE PUSH2 0x120 DUP1 DUP3 ADD MLOAD SWAP1 DUP4 ADD MSTORE PUSH2 0x152F PUSH2 0x140 DUP1 DUP4 ADD MLOAD SWAP1 DUP5 ADD SWAP1 PUSH2 0x149D JUMP JUMPDEST PUSH2 0x160 DUP1 SWAP2 ADD MLOAD ISZERO ISZERO SWAP2 ADD MSTORE JUMP JUMPDEST DUP1 PUSH0 MSTORE PUSH0 PUSH1 0x20 MSTORE PUSH1 0x40 PUSH0 KECCAK256 CALLER PUSH0 MSTORE PUSH1 0x20 MSTORE PUSH1 0xFF PUSH1 0x40 PUSH0 KECCAK256 SLOAD AND ISZERO PUSH2 0x155E JUMPI POP JUMP JUMPDEST PUSH1 0x44 SWAP1 PUSH1 0x40 MLOAD SWAP1 PUSH4 0xE2517D3F PUSH1 0xE0 SHL DUP3 MSTORE CALLER PUSH1 0x4 DUP4 ADD MSTORE PUSH1 0x24 DUP3 ADD MSTORE REVERT JUMPDEST PUSH1 0x1 PUSH1 0x1 PUSH1 0xA0 SHL SUB AND PUSH0 DUP2 DUP2 MSTORE PUSH32 0x729EF9451DD492832BD2A98139702CED95DFA0CEC7E99526DBBCB957ABCBC476 PUSH1 0x20 MSTORE PUSH1 0x40 DUP2 KECCAK256 SLOAD SWAP1 SWAP2 SWAP1 PUSH32 0x6077685936C8169D09204A1D97DB12E41713588C38E1D29A61867D3DCEE98AFF SWAP1 PUSH1 0xFF AND PUSH2 0x1628 JUMPI DUP1 DUP4 MSTORE DUP3 PUSH1 0x20 MSTORE PUSH1 0x40 DUP4 KECCAK256 DUP3 DUP5 MSTORE PUSH1 0x20 MSTORE PUSH1 0x40 DUP4 KECCAK256 PUSH1 0x1 PUSH1 0xFF NOT DUP3 SLOAD AND OR SWAP1 SSTORE PUSH32 0x2F8788117E7EFF1D82E926EC794901D17C78024A50270940304540A733656F0D CALLER SWAP4 DUP1 LOG4 PUSH1 0x1 SWAP1 JUMP JUMPDEST POP POP SWAP1 JUMP JUMPDEST PUSH1 0x1 PUSH1 0x1 PUSH1 0xA0 SHL SUB AND PUSH0 DUP2 DUP2 MSTORE PUSH32 0xAD3228B676F7D3CD4284A5443F17F1962B36E491B30A40B2405849E597BA5FB5 PUSH1 0x20 MSTORE PUSH1 0x40 DUP2 KECCAK256 SLOAD SWAP1 SWAP2 SWAP1 PUSH1 0xFF AND PUSH2 0x16B8 JUMPI DUP2 DUP1 MSTORE DUP2 PUSH1 0x20 MSTORE PUSH1 0x40 DUP3 KECCAK256 DUP2 DUP4 MSTORE PUSH1 0x20 MSTORE PUSH1 0x40 DUP3 KECCAK256 PUSH1 0x1 PUSH1 0xFF NOT DUP3 SLOAD AND OR SWAP1 SSTORE CALLER SWAP2 PUSH32 0x2F8788117E7EFF1D82E926EC794901D17C78024A50270940304540A733656F0D DUP2 DUP1 LOG4 PUSH1 0x1 SWAP1 JUMP JUMPDEST POP SWAP1 JUMP JUMPDEST SWAP1 PUSH0 SWAP2 DUP1 DUP4 MSTORE DUP3 PUSH1 0x20 MSTORE PUSH1 0x40 DUP4 KECCAK256 SWAP2 PUSH1 0x1 DUP1 PUSH1 0xA0 SHL SUB AND SWAP2 DUP3 DUP5 MSTORE PUSH1 0x20 MSTORE PUSH1 0xFF PUSH1 0x40 DUP5 KECCAK256 SLOAD AND ISZERO PUSH0 EQ PUSH2 0x1628 JUMPI DUP1 DUP4 MSTORE DUP3 PUSH1 0x20 MSTORE PUSH1 0x40 DUP4 KECCAK256 DUP3 DUP5 MSTORE PUSH1 0x20 MSTORE PUSH1 0x40 DUP4 KECCAK256 PUSH1 0x1 PUSH1 0xFF NOT DUP3 SLOAD AND OR SWAP1 SSTORE PUSH32 0x2F8788117E7EFF1D82E926EC794901D17C78024A50270940304540A733656F0D CALLER SWAP4 DUP1 LOG4 PUSH1 0x1 SWAP1 JUMP JUMPDEST SWAP1 PUSH0 SWAP2 DUP1 DUP4 MSTORE DUP3 PUSH1 0x20 MSTORE PUSH1 0x40 DUP4 KECCAK256 SWAP2 PUSH1 0x1 DUP1 PUSH1 0xA0 SHL SUB AND SWAP2 DUP3 DUP5 MSTORE PUSH1 0x20 MSTORE PUSH1 0xFF PUSH1 0x40 DUP5 KECCAK256 SLOAD AND PUSH0 EQ PUSH2 0x1628 JUMPI DUP1 DUP4 MSTORE DUP3 PUSH1 0x20 MSTORE PUSH1 0x40 DUP4 KECCAK256 DUP3 DUP5 MSTORE PUSH1 0x20 MSTORE PUSH1 0x40 DUP4 KECCAK256 PUSH1 0xFF NOT DUP2 SLOAD AND SWAP1 SSTORE PUSH32 0xF6391F5C32D9C69D2A47EA670B442974B53935D1EDC7FD64EB21E047A839171B CALLER SWAP4 DUP1 LOG4 PUSH1 0x1 SWAP1 JUMP JUMPDEST PUSH2 0x180 DUP2 ADD SWAP1 DUP2 LT PUSH8 0xFFFFFFFFFFFFFFFF DUP3 GT OR PUSH2 0xE55 JUMPI PUSH1 0x40 MSTORE JUMP JUMPDEST SWAP1 PUSH1 0x1F DUP1 NOT SWAP2 ADD AND DUP2 ADD SWAP1 DUP2 LT PUSH8 0xFFFFFFFFFFFFFFFF DUP3 GT OR PUSH2 0xE55 JUMPI PUSH1 0x40 MSTORE JUMP JUMPDEST PUSH1 0x2 DUP3 LT ISZERO PUSH2 0xE69 JUMPI MSTORE JUMP JUMPDEST PUSH1 0x3 SLOAD DUP2 LT ISZERO PUSH2 0x1826 JUMPI PUSH1 0x3 PUSH0 MSTORE PUSH32 0xC2575A0E9E593C00F959F8C92F12DB2869C3395A3B0502D05E2516446F71F85B ADD SWAP1 PUSH0 SWAP1 JUMP JUMPDEST PUSH4 0x4E487B71 PUSH1 0xE0 SHL PUSH0 MSTORE PUSH1 0x32 PUSH1 0x4 MSTORE PUSH1 0x24 PUSH0 REVERT JUMPDEST DUP1 SLOAD DUP3 LT ISZERO PUSH2 0x1826 JUMPI PUSH0 MSTORE PUSH1 0x20 PUSH0 KECCAK256 ADD SWAP1 PUSH0 SWAP1 JUMP JUMPDEST SWAP1 DUP2 SLOAD SWAP2 PUSH1 0x1 PUSH1 0x40 SHL DUP4 LT ISZERO PUSH2 0xE55 JUMPI DUP3 PUSH2 0x702 SWAP2 PUSH1 0x1 PUSH2 0x1872 SWAP6 ADD DUP2 SSTORE PUSH2 0x183A JUMP JUMPDEST JUMP JUMPDEST ISZERO PUSH2 0x187B JUMPI JUMP JUMPDEST PUSH1 0x40 MLOAD PUSH3 0x461BCD PUSH1 0xE5 SHL DUP2 MSTORE PUSH1 0x20 PUSH1 0x4 DUP3 ADD MSTORE PUSH1 0x13 PUSH1 0x24 DUP3 ADD MSTORE PUSH19 0x141BDBDB081B9BDD081C9959DA5CDD195C9959 PUSH1 0x6A SHL PUSH1 0x44 DUP3 ADD MSTORE PUSH1 0x64 SWAP1 REVERT JUMPDEST PUSH8 0xFFFFFFFFFFFFFFFF DUP2 GT PUSH2 0xE55 JUMPI PUSH1 0x5 SHL PUSH1 0x20 ADD SWAP1 JUMP JUMPDEST PUSH1 0x40 MLOAD SWAP1 PUSH2 0x18DB DUP3 PUSH2 0x17A6 JUMP JUMPDEST DUP2 PUSH2 0x160 PUSH0 SWAP2 DUP3 DUP2 MSTORE DUP3 PUSH1 0x20 DUP3 ADD MSTORE DUP3 PUSH1 0x40 DUP3 ADD MSTORE DUP3 PUSH1 0x60 DUP3 ADD MSTORE DUP3 PUSH1 0x80 DUP3 ADD MSTORE DUP3 PUSH1 0xA0 DUP3 ADD MSTORE DUP3 PUSH1 0xC0 DUP3 ADD MSTORE DUP3 PUSH1 0xE0 DUP3 ADD MSTORE DUP3 PUSH2 0x100 DUP3 ADD MSTORE DUP3 PUSH2 0x120 DUP3 ADD MSTORE DUP3 PUSH2 0x140 DUP3 ADD MSTORE ADD MSTORE JUMP JUMPDEST PUSH0 NOT DUP2 EQ PUSH2 0x7D1 JUMPI PUSH1 0x1 ADD SWAP1 JUMP JUMPDEST DUP1 MLOAD DUP3 LT ISZERO PUSH2 0x1826 JUMPI PUSH1 0x20 SWAP2 PUSH1 0x5 SHL ADD ADD SWAP1 JUMP JUMPDEST DUP1 SLOAD DUP1 ISZERO PUSH2 0x7BD JUMPI PUSH0 NOT ADD SWAP1 PUSH2 0x1962 PUSH2 0x741 DUP4 DUP4 PUSH2 0x183A JUMP JUMPDEST SSTORE JUMP JUMPDEST PUSH0 SWAP1 PUSH1 0x3 DUP1 SLOAD SWAP3 JUMPDEST DUP4 DUP2 LT PUSH2 0x197D JUMPI POP POP POP POP PUSH0 NOT SWAP1 JUMP JUMPDEST PUSH2 0x1986 DUP2 PUSH2 0x17F1 JUMP JUMPDEST SWAP1 SLOAD SWAP1 DUP4 SHL SHR PUSH1 0x1 PUSH1 0x1 PUSH1 0xA0 SHL SUB SWAP1 DUP2 AND SWAP1 DUP5 AND EQ PUSH2 0x19AD JUMPI PUSH2 0x19A8 SWAP1 PUSH2 0x1927 JUMP JUMPDEST PUSH2 0x196D JUMP JUMPDEST SWAP3 POP POP POP SWAP1 JUMP JUMPDEST SWAP1 PUSH0 JUMPDEST DUP3 SLOAD DUP2 LT ISZERO PUSH2 0x19FA JUMPI PUSH2 0x19CA DUP2 DUP5 PUSH2 0x183A JUMP JUMPDEST SWAP1 SLOAD PUSH1 0x3 SWAP2 SWAP1 SWAP2 SHL SHR PUSH1 0x1 PUSH1 0x1 PUSH1 0xA0 SHL SUB SWAP1 DUP2 AND SWAP1 DUP4 AND EQ PUSH2 0x19F4 JUMPI PUSH2 0x19EF SWAP1 PUSH2 0x1927 JUMP JUMPDEST PUSH2 0x19B7 JUMP JUMPDEST SWAP2 POP POP SWAP1 JUMP JUMPDEST POP POP POP PUSH0 NOT SWAP1 JUMP INVALID LOG2 PUSH5 0x6970667358 0x22 SLT KECCAK256 DUP2 0x4A 0xCD PUSH11 0xC0D497257E068AC4D1E9EF PUSH20 0x78D5BE0D6BF4C27049BC9794AF450CD664736F6C PUSH4 0x43000814 STOP CALLER 0x2F DUP8 DUP9 GT PUSH31 0x7EFF1D82E926EC794901D17C78024A50270940304540A733656F0D00000000 "
				},
				"gasEstimates": {
					"creation": {
						"codeDepositCost": "1342400",
						"executionCost": "infinite",
						"totalCost": "infinite"
					},
					"external": {
						"DEFAULT_ADMIN_ROLE()": "548",
						"POOL_MANAGER_ROLE()": "417",
						"deregisterPool(address)": "infinite",
						"getAllLenderPoolDetails(address)": "infinite",
						"getAllPoolAddresses()": "infinite",
						"getManagers()": "4828",
						"getPoolDetails(address)": "infinite",
						"getPoolsByBorrower(address)": "infinite",
						"getPoolsByLender(address)": "infinite",
						"getRoleAdmin(bytes32)": "2436",
						"getTotalPools()": "2762",
						"getVaultForPool(address)": "4912",
						"grantFactoryAccess(address)": "infinite",
						"grantRole(bytes32,address)": "33360",
						"hasRole(bytes32,address)": "2858",
						"markPoolAsFunded(address)": "26823",
						"poolVaults(address)": "2478",
						"registerManagers(address,address)": "52797",
						"registerPool(address,address,address,address,address,address,address,uint256,uint256,uint256,uint8)": "infinite",
						"registerVault(address,address)": "30615",
						"renounceRole(bytes32,address)": "28972",
						"revokeRole(bytes32,address)": "33725",
						"rewardManager()": "2324",
						"setBorrowerForPool(address,address)": "84564",
						"supportsInterface(bytes4)": "270",
						"vaultManager()": "2632"
					},
					"internal": {
						"_removePoolFromBorrowerArray(address,address)": "infinite",
						"_removePoolFromLenderArray(address,address)": "infinite",
						"_removePoolFromMainArray(address)": "infinite",
						"findIndexInArray(address[] storage pointer,address)": "infinite"
					}
				},
				"methodIdentifiers": {
					"DEFAULT_ADMIN_ROLE()": "a217fddf",
					"POOL_MANAGER_ROLE()": "56d73568",
					"deregisterPool(address)": "7e72c7d7",
					"getAllLenderPoolDetails(address)": "52fc9b0e",
					"getAllPoolAddresses()": "c56f1b44",
					"getManagers()": "a8d088bb",
					"getPoolDetails(address)": "d3e90fa0",
					"getPoolsByBorrower(address)": "e7ef32f7",
					"getPoolsByLender(address)": "24a44efb",
					"getRoleAdmin(bytes32)": "248a9ca3",
					"getTotalPools()": "d3ffe67a",
					"getVaultForPool(address)": "7570e389",
					"grantFactoryAccess(address)": "5d102df7",
					"grantRole(bytes32,address)": "2f2ff15d",
					"hasRole(bytes32,address)": "91d14854",
					"markPoolAsFunded(address)": "1f2f2e14",
					"poolVaults(address)": "1e4966ab",
					"registerManagers(address,address)": "c489579d",
					"registerPool(address,address,address,address,address,address,address,uint256,uint256,uint256,uint8)": "43756020",
					"registerVault(address,address)": "05c4fdf9",
					"renounceRole(bytes32,address)": "36568abe",
					"revokeRole(bytes32,address)": "d547741f",
					"rewardManager()": "0f4ef8a6",
					"setBorrowerForPool(address,address)": "37e238c5",
					"supportsInterface(bytes4)": "01ffc9a7",
					"vaultManager()": "8a4adf24"
				}
			},
			"storageLayout": {
				"storage": [
					{
						"astId": 26,
						"contract": "contracts/contracts/contracts/protocol/PoolOrganizer.sol:PoolOrganizer",
						"label": "_roles",
						"offset": 0,
						"slot": "0",
						"type": "t_mapping(t_bytes32,t_struct(RoleData)21_storage)"
					},
					{
						"astId": 763,
						"contract": "contracts/contracts/contracts/protocol/PoolOrganizer.sol:PoolOrganizer",
						"label": "vaultManager",
						"offset": 0,
						"slot": "1",
						"type": "t_contract(IVaultManager)744"
					},
					{
						"astId": 766,
						"contract": "contracts/contracts/contracts/protocol/PoolOrganizer.sol:PoolOrganizer",
						"label": "rewardManager",
						"offset": 0,
						"slot": "2",
						"type": "t_contract(IRewardManager)696"
					},
					{
						"astId": 769,
						"contract": "contracts/contracts/contracts/protocol/PoolOrganizer.sol:PoolOrganizer",
						"label": "pools",
						"offset": 0,
						"slot": "3",
						"type": "t_array(t_address)dyn_storage"
					},
					{
						"astId": 774,
						"contract": "contracts/contracts/contracts/protocol/PoolOrganizer.sol:PoolOrganizer",
						"label": "poolDetails",
						"offset": 0,
						"slot": "4",
						"type": "t_mapping(t_address,t_struct(PoolDetails)558_storage)"
					},
					{
						"astId": 779,
						"contract": "contracts/contracts/contracts/protocol/PoolOrganizer.sol:PoolOrganizer",
						"label": "lenderPools",
						"offset": 0,
						"slot": "5",
						"type": "t_mapping(t_address,t_array(t_address)dyn_storage)"
					},
					{
						"astId": 783,
						"contract": "contracts/contracts/contracts/protocol/PoolOrganizer.sol:PoolOrganizer",
						"label": "poolVaults",
						"offset": 0,
						"slot": "6",
						"type": "t_mapping(t_address,t_address)"
					},
					{
						"astId": 788,
						"contract": "contracts/contracts/contracts/protocol/PoolOrganizer.sol:PoolOrganizer",
						"label": "borrowerPools",
						"offset": 0,
						"slot": "7",
						"type": "t_mapping(t_address,t_array(t_address)dyn_storage)"
					}
				],
				"types": {
					"t_address": {
						"encoding": "inplace",
						"label": "address",
						"numberOfBytes": "20"
					},
					"t_array(t_address)dyn_storage": {
						"base": "t_address",
						"encoding": "dynamic_array",
						"label": "address[]",
						"numberOfBytes": "32"
					},
					"t_bool": {
						"encoding": "inplace",
						"label": "bool",
						"numberOfBytes": "1"
					},
					"t_bytes32": {
						"encoding": "inplace",
						"label": "bytes32",
						"numberOfBytes": "32"
					},
					"t_contract(IERC20)456": {
						"encoding": "inplace",
						"label": "contract IERC20",
						"numberOfBytes": "20"
					},
					"t_contract(IRewardManager)696": {
						"encoding": "inplace",
						"label": "contract IRewardManager",
						"numberOfBytes": "20"
					},
					"t_contract(IVaultManager)744": {
						"encoding": "inplace",
						"label": "contract IVaultManager",
						"numberOfBytes": "20"
					},
					"t_enum(PoolType)529": {
						"encoding": "inplace",
						"label": "enum IPoolOrganizer.PoolType",
						"numberOfBytes": "1"
					},
					"t_mapping(t_address,t_address)": {
						"encoding": "mapping",
						"key": "t_address",
						"label": "mapping(address => address)",
						"numberOfBytes": "32",
						"value": "t_address"
					},
					"t_mapping(t_address,t_array(t_address)dyn_storage)": {
						"encoding": "mapping",
						"key": "t_address",
						"label": "mapping(address => address[])",
						"numberOfBytes": "32",
						"value": "t_array(t_address)dyn_storage"
					},
					"t_mapping(t_address,t_bool)": {
						"encoding": "mapping",
						"key": "t_address",
						"label": "mapping(address => bool)",
						"numberOfBytes": "32",
						"value": "t_bool"
					},
					"t_mapping(t_address,t_struct(PoolDetails)558_storage)": {
						"encoding": "mapping",
						"key": "t_address",
						"label": "mapping(address => struct IPoolOrganizer.PoolDetails)",
						"numberOfBytes": "32",
						"value": "t_struct(PoolDetails)558_storage"
					},
					"t_mapping(t_bytes32,t_struct(RoleData)21_storage)": {
						"encoding": "mapping",
						"key": "t_bytes32",
						"label": "mapping(bytes32 => struct AccessControl.RoleData)",
						"numberOfBytes": "32",
						"value": "t_struct(RoleData)21_storage"
					},
					"t_struct(PoolDetails)558_storage": {
						"encoding": "inplace",
						"label": "struct IPoolOrganizer.PoolDetails",
						"members": [
							{
								"astId": 531,
								"contract": "contracts/contracts/contracts/protocol/PoolOrganizer.sol:PoolOrganizer",
								"label": "lender",
								"offset": 0,
								"slot": "0",
								"type": "t_address"
							},
							{
								"astId": 533,
								"contract": "contracts/contracts/contracts/protocol/PoolOrganizer.sol:PoolOrganizer",
								"label": "borrower",
								"offset": 0,
								"slot": "1",
								"type": "t_address"
							},
							{
								"astId": 535,
								"contract": "contracts/contracts/contracts/protocol/PoolOrganizer.sol:PoolOrganizer",
								"label": "creationTime",
								"offset": 0,
								"slot": "2",
								"type": "t_uint256"
							},
							{
								"astId": 537,
								"contract": "contracts/contracts/contracts/protocol/PoolOrganizer.sol:PoolOrganizer",
								"label": "vault",
								"offset": 0,
								"slot": "3",
								"type": "t_address"
							},
							{
								"astId": 540,
								"contract": "contracts/contracts/contracts/protocol/PoolOrganizer.sol:PoolOrganizer",
								"label": "loanToken",
								"offset": 0,
								"slot": "4",
								"type": "t_contract(IERC20)456"
							},
							{
								"astId": 543,
								"contract": "contracts/contracts/contracts/protocol/PoolOrganizer.sol:PoolOrganizer",
								"label": "assetToken",
								"offset": 0,
								"slot": "5",
								"type": "t_contract(IERC20)456"
							},
							{
								"astId": 546,
								"contract": "contracts/contracts/contracts/protocol/PoolOrganizer.sol:PoolOrganizer",
								"label": "repaymentToken",
								"offset": 0,
								"slot": "6",
								"type": "t_contract(IERC20)456"
							},
							{
								"astId": 548,
								"contract": "contracts/contracts/contracts/protocol/PoolOrganizer.sol:PoolOrganizer",
								"label": "loanAmount",
								"offset": 0,
								"slot": "7",
								"type": "t_uint256"
							},
							{
								"astId": 550,
								"contract": "contracts/contracts/contracts/protocol/PoolOrganizer.sol:PoolOrganizer",
								"label": "interestRate",
								"offset": 0,
								"slot": "8",
								"type": "t_uint256"
							},
							{
								"astId": 552,
								"contract": "contracts/contracts/contracts/protocol/PoolOrganizer.sol:PoolOrganizer",
								"label": "repaymentPeriod",
								"offset": 0,
								"slot": "9",
								"type": "t_uint256"
							},
							{
								"astId": 555,
								"contract": "contracts/contracts/contracts/protocol/PoolOrganizer.sol:PoolOrganizer",
								"label": "poolType",
								"offset": 0,
								"slot": "10",
								"type": "t_enum(PoolType)529"
							},
							{
								"astId": 557,
								"contract": "contracts/contracts/contracts/protocol/PoolOrganizer.sol:PoolOrganizer",
								"label": "funded",
								"offset": 1,
								"slot": "10",
								"type": "t_bool"
							}
						],
						"numberOfBytes": "352"
					},
					"t_struct(RoleData)21_storage": {
						"encoding": "inplace",
						"label": "struct AccessControl.RoleData",
						"members": [
							{
								"astId": 18,
								"contract": "contracts/contracts/contracts/protocol/PoolOrganizer.sol:PoolOrganizer",
								"label": "hasRole",
								"offset": 0,
								"slot": "0",
								"type": "t_mapping(t_address,t_bool)"
							},
							{
								"astId": 20,
								"contract": "contracts/contracts/contracts/protocol/PoolOrganizer.sol:PoolOrganizer",
								"label": "adminRole",
								"offset": 0,
								"slot": "1",
								"type": "t_bytes32"
							}
						],
						"numberOfBytes": "64"
					},
					"t_uint256": {
						"encoding": "inplace",
						"label": "uint256",
						"numberOfBytes": "32"
					}
				}
			},
			"userdoc": {
				"kind": "user",
				"methods": {
					"deregisterPool(address)": {
						"notice": "Deregisters a pool."
					},
					"getAllLenderPoolDetails(address)": {
						"notice": "Gets the details of all pools associated with a lender."
					},
					"getAllPoolAddresses()": {
						"notice": "Gets all registered pool addresses."
					},
					"getManagers()": {
						"notice": "Gets the addresses of the registered managers."
					},
					"getPoolDetails(address)": {
						"notice": "Gets the details of a specified pool."
					},
					"getPoolsByBorrower(address)": {
						"notice": "Gets all pools associated with a borrower."
					},
					"getPoolsByLender(address)": {
						"notice": "Gets all pools associated with a lender."
					},
					"getTotalPools()": {
						"notice": "Gets the total number of registered pools."
					},
					"getVaultForPool(address)": {
						"notice": "Gets the vault address associated with a pool."
					},
					"grantFactoryAccess(address)": {
						"notice": "Grants factory access to the specified address."
					},
					"markPoolAsFunded(address)": {
						"notice": "Marks a pool as funded."
					},
					"registerManagers(address,address)": {
						"notice": "Registers the vault and reward managers."
					},
					"registerPool(address,address,address,address,address,address,address,uint256,uint256,uint256,uint8)": {
						"notice": "Registers a new pool with the specified details."
					},
					"registerVault(address,address)": {
						"notice": "Registers a vault for a specified pool."
					},
					"setBorrowerForPool(address,address)": {
						"notice": "Sets the borrower for a specified pool."
					}
				},
				"version": 1
			}
		}
	}
}