{
	"contracts/contracts/protocol/PoolOrganizer.sol": {
		"PoolOrganizer": {
			"abi": [
				{
					"inputs": [],
					"stateMutability": "nonpayable",
					"type": "constructor"
				},
				{
					"inputs": [],
					"name": "AccessControlBadConfirmation",
					"type": "error"
				},
				{
					"inputs": [
						{
							"internalType": "address",
							"name": "account",
							"type": "address"
						},
						{
							"internalType": "bytes32",
							"name": "neededRole",
							"type": "bytes32"
						}
					],
					"name": "AccessControlUnauthorizedAccount",
					"type": "error"
				},
				{
					"anonymous": false,
					"inputs": [
						{
							"indexed": true,
							"internalType": "address",
							"name": "pool",
							"type": "address"
						},
						{
							"indexed": false,
							"internalType": "enum IPoolOrganizer.LoanState",
							"name": "oldState",
							"type": "uint8"
						},
						{
							"indexed": false,
							"internalType": "enum IPoolOrganizer.LoanState",
							"name": "newState",
							"type": "uint8"
						}
					],
					"name": "LoanStateUpdated",
					"type": "event"
				},
				{
					"anonymous": false,
					"inputs": [
						{
							"indexed": false,
							"internalType": "address",
							"name": "vaultManager",
							"type": "address"
						},
						{
							"indexed": false,
							"internalType": "address",
							"name": "rewardManager",
							"type": "address"
						}
					],
					"name": "ManagerRegistered",
					"type": "event"
				},
				{
					"anonymous": false,
					"inputs": [
						{
							"indexed": true,
							"internalType": "address",
							"name": "pool",
							"type": "address"
						}
					],
					"name": "PoolDeregistered",
					"type": "event"
				},
				{
					"anonymous": false,
					"inputs": [
						{
							"indexed": true,
							"internalType": "address",
							"name": "pool",
							"type": "address"
						},
						{
							"indexed": true,
							"internalType": "address",
							"name": "lender",
							"type": "address"
						},
						{
							"indexed": true,
							"internalType": "address",
							"name": "borrower",
							"type": "address"
						},
						{
							"indexed": false,
							"internalType": "address",
							"name": "vault",
							"type": "address"
						},
						{
							"indexed": false,
							"internalType": "enum IPoolOrganizer.PoolType",
							"name": "poolType",
							"type": "uint8"
						}
					],
					"name": "PoolRegistered",
					"type": "event"
				},
				{
					"anonymous": false,
					"inputs": [
						{
							"indexed": true,
							"internalType": "bytes32",
							"name": "role",
							"type": "bytes32"
						},
						{
							"indexed": true,
							"internalType": "bytes32",
							"name": "previousAdminRole",
							"type": "bytes32"
						},
						{
							"indexed": true,
							"internalType": "bytes32",
							"name": "newAdminRole",
							"type": "bytes32"
						}
					],
					"name": "RoleAdminChanged",
					"type": "event"
				},
				{
					"anonymous": false,
					"inputs": [
						{
							"indexed": true,
							"internalType": "bytes32",
							"name": "role",
							"type": "bytes32"
						},
						{
							"indexed": true,
							"internalType": "address",
							"name": "account",
							"type": "address"
						},
						{
							"indexed": true,
							"internalType": "address",
							"name": "sender",
							"type": "address"
						}
					],
					"name": "RoleGranted",
					"type": "event"
				},
				{
					"anonymous": false,
					"inputs": [
						{
							"indexed": true,
							"internalType": "bytes32",
							"name": "role",
							"type": "bytes32"
						},
						{
							"indexed": true,
							"internalType": "address",
							"name": "account",
							"type": "address"
						},
						{
							"indexed": true,
							"internalType": "address",
							"name": "sender",
							"type": "address"
						}
					],
					"name": "RoleRevoked",
					"type": "event"
				},
				{
					"anonymous": false,
					"inputs": [
						{
							"indexed": true,
							"internalType": "address",
							"name": "pool",
							"type": "address"
						},
						{
							"indexed": true,
							"internalType": "address",
							"name": "vault",
							"type": "address"
						}
					],
					"name": "VaultRegistered",
					"type": "event"
				},
				{
					"inputs": [],
					"name": "DEFAULT_ADMIN_ROLE",
					"outputs": [
						{
							"internalType": "bytes32",
							"name": "",
							"type": "bytes32"
						}
					],
					"stateMutability": "view",
					"type": "function"
				},
				{
					"inputs": [],
					"name": "POOL_MANAGER_ROLE",
					"outputs": [
						{
							"internalType": "bytes32",
							"name": "",
							"type": "bytes32"
						}
					],
					"stateMutability": "view",
					"type": "function"
				},
				{
					"inputs": [
						{
							"internalType": "address",
							"name": "pool",
							"type": "address"
						}
					],
					"name": "deregisterPool",
					"outputs": [],
					"stateMutability": "nonpayable",
					"type": "function"
				},
				{
					"inputs": [
						{
							"internalType": "address",
							"name": "lender",
							"type": "address"
						}
					],
					"name": "getAllLenderPoolDetails",
					"outputs": [
						{
							"components": [
								{
									"internalType": "address",
									"name": "lender",
									"type": "address"
								},
								{
									"internalType": "address",
									"name": "borrower",
									"type": "address"
								},
								{
									"internalType": "uint256",
									"name": "creationTime",
									"type": "uint256"
								},
								{
									"internalType": "address",
									"name": "vault",
									"type": "address"
								},
								{
									"internalType": "contract IERC20",
									"name": "loanToken",
									"type": "address"
								},
								{
									"internalType": "contract IERC20",
									"name": "assetToken",
									"type": "address"
								},
								{
									"internalType": "contract IERC20",
									"name": "repaymentToken",
									"type": "address"
								},
								{
									"internalType": "uint256",
									"name": "loanAmount",
									"type": "uint256"
								},
								{
									"internalType": "uint256",
									"name": "interestRate",
									"type": "uint256"
								},
								{
									"internalType": "uint256",
									"name": "repaymentPeriod",
									"type": "uint256"
								},
								{
									"internalType": "enum IPoolOrganizer.PoolType",
									"name": "poolType",
									"type": "uint8"
								},
								{
									"internalType": "bool",
									"name": "funded",
									"type": "bool"
								},
								{
									"internalType": "enum IPoolOrganizer.LoanState",
									"name": "loanState",
									"type": "uint8"
								},
								{
									"internalType": "address",
									"name": "pool",
									"type": "address"
								}
							],
							"internalType": "struct IPoolOrganizer.PoolDetails[]",
							"name": "",
							"type": "tuple[]"
						}
					],
					"stateMutability": "view",
					"type": "function"
				},
				{
					"inputs": [],
					"name": "getAllPoolAddresses",
					"outputs": [
						{
							"internalType": "address[]",
							"name": "",
							"type": "address[]"
						}
					],
					"stateMutability": "view",
					"type": "function"
				},
				{
					"inputs": [
						{
							"internalType": "address",
							"name": "borrower",
							"type": "address"
						}
					],
					"name": "getBorrowerPoolDetails",
					"outputs": [
						{
							"components": [
								{
									"internalType": "address",
									"name": "lender",
									"type": "address"
								},
								{
									"internalType": "address",
									"name": "borrower",
									"type": "address"
								},
								{
									"internalType": "uint256",
									"name": "creationTime",
									"type": "uint256"
								},
								{
									"internalType": "address",
									"name": "vault",
									"type": "address"
								},
								{
									"internalType": "contract IERC20",
									"name": "loanToken",
									"type": "address"
								},
								{
									"internalType": "contract IERC20",
									"name": "assetToken",
									"type": "address"
								},
								{
									"internalType": "contract IERC20",
									"name": "repaymentToken",
									"type": "address"
								},
								{
									"internalType": "uint256",
									"name": "loanAmount",
									"type": "uint256"
								},
								{
									"internalType": "uint256",
									"name": "interestRate",
									"type": "uint256"
								},
								{
									"internalType": "uint256",
									"name": "repaymentPeriod",
									"type": "uint256"
								},
								{
									"internalType": "enum IPoolOrganizer.PoolType",
									"name": "poolType",
									"type": "uint8"
								},
								{
									"internalType": "bool",
									"name": "funded",
									"type": "bool"
								},
								{
									"internalType": "enum IPoolOrganizer.LoanState",
									"name": "loanState",
									"type": "uint8"
								},
								{
									"internalType": "address",
									"name": "pool",
									"type": "address"
								}
							],
							"internalType": "struct IPoolOrganizer.PoolDetails[]",
							"name": "",
							"type": "tuple[]"
						}
					],
					"stateMutability": "view",
					"type": "function"
				},
				{
					"inputs": [
						{
							"internalType": "address",
							"name": "pool",
							"type": "address"
						}
					],
					"name": "getLoanState",
					"outputs": [
						{
							"internalType": "enum IPoolOrganizer.LoanState",
							"name": "",
							"type": "uint8"
						}
					],
					"stateMutability": "view",
					"type": "function"
				},
				{
					"inputs": [],
					"name": "getManagers",
					"outputs": [
						{
							"internalType": "address",
							"name": "",
							"type": "address"
						},
						{
							"internalType": "address",
							"name": "",
							"type": "address"
						}
					],
					"stateMutability": "view",
					"type": "function"
				},
				{
					"inputs": [
						{
							"internalType": "address",
							"name": "pool",
							"type": "address"
						}
					],
					"name": "getPoolDetails",
					"outputs": [
						{
							"components": [
								{
									"internalType": "address",
									"name": "lender",
									"type": "address"
								},
								{
									"internalType": "address",
									"name": "borrower",
									"type": "address"
								},
								{
									"internalType": "uint256",
									"name": "creationTime",
									"type": "uint256"
								},
								{
									"internalType": "address",
									"name": "vault",
									"type": "address"
								},
								{
									"internalType": "contract IERC20",
									"name": "loanToken",
									"type": "address"
								},
								{
									"internalType": "contract IERC20",
									"name": "assetToken",
									"type": "address"
								},
								{
									"internalType": "contract IERC20",
									"name": "repaymentToken",
									"type": "address"
								},
								{
									"internalType": "uint256",
									"name": "loanAmount",
									"type": "uint256"
								},
								{
									"internalType": "uint256",
									"name": "interestRate",
									"type": "uint256"
								},
								{
									"internalType": "uint256",
									"name": "repaymentPeriod",
									"type": "uint256"
								},
								{
									"internalType": "enum IPoolOrganizer.PoolType",
									"name": "poolType",
									"type": "uint8"
								},
								{
									"internalType": "bool",
									"name": "funded",
									"type": "bool"
								},
								{
									"internalType": "enum IPoolOrganizer.LoanState",
									"name": "loanState",
									"type": "uint8"
								},
								{
									"internalType": "address",
									"name": "pool",
									"type": "address"
								}
							],
							"internalType": "struct IPoolOrganizer.PoolDetails",
							"name": "",
							"type": "tuple"
						}
					],
					"stateMutability": "view",
					"type": "function"
				},
				{
					"inputs": [
						{
							"internalType": "address",
							"name": "borrower",
							"type": "address"
						}
					],
					"name": "getPoolsByBorrower",
					"outputs": [
						{
							"internalType": "address[]",
							"name": "",
							"type": "address[]"
						}
					],
					"stateMutability": "view",
					"type": "function"
				},
				{
					"inputs": [
						{
							"internalType": "address",
							"name": "lender",
							"type": "address"
						}
					],
					"name": "getPoolsByLender",
					"outputs": [
						{
							"internalType": "address[]",
							"name": "",
							"type": "address[]"
						}
					],
					"stateMutability": "view",
					"type": "function"
				},
				{
					"inputs": [
						{
							"internalType": "bytes32",
							"name": "role",
							"type": "bytes32"
						}
					],
					"name": "getRoleAdmin",
					"outputs": [
						{
							"internalType": "bytes32",
							"name": "",
							"type": "bytes32"
						}
					],
					"stateMutability": "view",
					"type": "function"
				},
				{
					"inputs": [],
					"name": "getTotalPools",
					"outputs": [
						{
							"internalType": "uint256",
							"name": "",
							"type": "uint256"
						}
					],
					"stateMutability": "view",
					"type": "function"
				},
				{
					"inputs": [
						{
							"internalType": "address",
							"name": "pool",
							"type": "address"
						}
					],
					"name": "getVaultForPool",
					"outputs": [
						{
							"internalType": "address",
							"name": "",
							"type": "address"
						}
					],
					"stateMutability": "view",
					"type": "function"
				},
				{
					"inputs": [
						{
							"internalType": "address",
							"name": "factoryAddress",
							"type": "address"
						}
					],
					"name": "grantFactoryAccess",
					"outputs": [],
					"stateMutability": "nonpayable",
					"type": "function"
				},
				{
					"inputs": [
						{
							"internalType": "bytes32",
							"name": "role",
							"type": "bytes32"
						},
						{
							"internalType": "address",
							"name": "account",
							"type": "address"
						}
					],
					"name": "grantRole",
					"outputs": [],
					"stateMutability": "nonpayable",
					"type": "function"
				},
				{
					"inputs": [
						{
							"internalType": "bytes32",
							"name": "role",
							"type": "bytes32"
						},
						{
							"internalType": "address",
							"name": "account",
							"type": "address"
						}
					],
					"name": "hasRole",
					"outputs": [
						{
							"internalType": "bool",
							"name": "",
							"type": "bool"
						}
					],
					"stateMutability": "view",
					"type": "function"
				},
				{
					"inputs": [
						{
							"internalType": "address",
							"name": "pool",
							"type": "address"
						}
					],
					"name": "markPoolAsFunded",
					"outputs": [],
					"stateMutability": "nonpayable",
					"type": "function"
				},
				{
					"inputs": [
						{
							"internalType": "address",
							"name": "",
							"type": "address"
						}
					],
					"name": "poolVaults",
					"outputs": [
						{
							"internalType": "address",
							"name": "",
							"type": "address"
						}
					],
					"stateMutability": "view",
					"type": "function"
				},
				{
					"inputs": [
						{
							"internalType": "address",
							"name": "_vaultManager",
							"type": "address"
						},
						{
							"internalType": "address",
							"name": "_rewardManager",
							"type": "address"
						}
					],
					"name": "registerManagers",
					"outputs": [],
					"stateMutability": "nonpayable",
					"type": "function"
				},
				{
					"inputs": [
						{
							"internalType": "address",
							"name": "pool",
							"type": "address"
						},
						{
							"internalType": "address",
							"name": "lender",
							"type": "address"
						},
						{
							"internalType": "address",
							"name": "borrower",
							"type": "address"
						},
						{
							"internalType": "address",
							"name": "vault",
							"type": "address"
						},
						{
							"internalType": "contract IERC20",
							"name": "loanToken",
							"type": "address"
						},
						{
							"internalType": "contract IERC20",
							"name": "assetToken",
							"type": "address"
						},
						{
							"internalType": "contract IERC20",
							"name": "repaymentToken",
							"type": "address"
						},
						{
							"internalType": "uint256",
							"name": "loanAmount",
							"type": "uint256"
						},
						{
							"internalType": "uint256",
							"name": "interestRate",
							"type": "uint256"
						},
						{
							"internalType": "uint256",
							"name": "repaymentPeriod",
							"type": "uint256"
						},
						{
							"internalType": "enum IPoolOrganizer.PoolType",
							"name": "poolType",
							"type": "uint8"
						}
					],
					"name": "registerPool",
					"outputs": [],
					"stateMutability": "nonpayable",
					"type": "function"
				},
				{
					"inputs": [
						{
							"internalType": "address",
							"name": "pool",
							"type": "address"
						},
						{
							"internalType": "address",
							"name": "vault",
							"type": "address"
						}
					],
					"name": "registerVault",
					"outputs": [],
					"stateMutability": "nonpayable",
					"type": "function"
				},
				{
					"inputs": [
						{
							"internalType": "bytes32",
							"name": "role",
							"type": "bytes32"
						},
						{
							"internalType": "address",
							"name": "callerConfirmation",
							"type": "address"
						}
					],
					"name": "renounceRole",
					"outputs": [],
					"stateMutability": "nonpayable",
					"type": "function"
				},
				{
					"inputs": [
						{
							"internalType": "bytes32",
							"name": "role",
							"type": "bytes32"
						},
						{
							"internalType": "address",
							"name": "account",
							"type": "address"
						}
					],
					"name": "revokeRole",
					"outputs": [],
					"stateMutability": "nonpayable",
					"type": "function"
				},
				{
					"inputs": [],
					"name": "rewardManager",
					"outputs": [
						{
							"internalType": "contract IRewardManager",
							"name": "",
							"type": "address"
						}
					],
					"stateMutability": "view",
					"type": "function"
				},
				{
					"inputs": [
						{
							"internalType": "address",
							"name": "pool",
							"type": "address"
						},
						{
							"internalType": "address",
							"name": "newBorrower",
							"type": "address"
						}
					],
					"name": "setBorrowerForPool",
					"outputs": [],
					"stateMutability": "nonpayable",
					"type": "function"
				},
				{
					"inputs": [
						{
							"internalType": "bytes4",
							"name": "interfaceId",
							"type": "bytes4"
						}
					],
					"name": "supportsInterface",
					"outputs": [
						{
							"internalType": "bool",
							"name": "",
							"type": "bool"
						}
					],
					"stateMutability": "view",
					"type": "function"
				},
				{
					"inputs": [
						{
							"internalType": "address",
							"name": "pool",
							"type": "address"
						},
						{
							"internalType": "enum IPoolOrganizer.LoanState",
							"name": "newState",
							"type": "uint8"
						}
					],
					"name": "updateLoanState",
					"outputs": [],
					"stateMutability": "nonpayable",
					"type": "function"
				},
				{
					"inputs": [],
					"name": "vaultManager",
					"outputs": [
						{
							"internalType": "contract IVaultManager",
							"name": "",
							"type": "address"
						}
					],
					"stateMutability": "view",
					"type": "function"
				}
			],
			"devdoc": {
				"details": "Implements access control and management for pool lifecycle and integration with external managers.",
				"errors": {
					"AccessControlBadConfirmation()": [
						{
							"details": "The caller of a function is not the expected one. NOTE: Don't confuse with {AccessControlUnauthorizedAccount}."
						}
					],
					"AccessControlUnauthorizedAccount(address,bytes32)": [
						{
							"details": "The `account` is missing a role."
						}
					]
				},
				"events": {
					"LoanStateUpdated(address,uint8,uint8)": {
						"details": "Emitted when the loan state of a pool is updated.",
						"params": {
							"newState": "The new state of the loan.",
							"oldState": "The previous state of the loan.",
							"pool": "The address of the pool."
						}
					},
					"ManagerRegistered(address,address)": {
						"details": "Emitted when managers are registered.",
						"params": {
							"rewardManager": "The address of the reward manager.",
							"vaultManager": "The address of the vault manager."
						}
					},
					"PoolDeregistered(address)": {
						"details": "Emitted when a pool is deregistered.",
						"params": {
							"pool": "The address of the deregistered pool."
						}
					},
					"PoolRegistered(address,address,address,address,uint8)": {
						"details": "Emitted when a new pool is registered.",
						"params": {
							"borrower": "The address of the borrower.",
							"lender": "The address of the lender.",
							"pool": "The address of the pool.",
							"poolType": "The type of the pool.",
							"vault": "The address of the vault associated with the pool."
						}
					},
					"RoleAdminChanged(bytes32,bytes32,bytes32)": {
						"details": "Emitted when `newAdminRole` is set as ``role``'s admin role, replacing `previousAdminRole` `DEFAULT_ADMIN_ROLE` is the starting admin for all roles, despite {RoleAdminChanged} not being emitted signaling this."
					},
					"RoleGranted(bytes32,address,address)": {
						"details": "Emitted when `account` is granted `role`. `sender` is the account that originated the contract call, an admin role bearer except when using {AccessControl-_setupRole}."
					},
					"RoleRevoked(bytes32,address,address)": {
						"details": "Emitted when `account` is revoked `role`. `sender` is the account that originated the contract call:   - if using `revokeRole`, it is the admin role bearer   - if using `renounceRole`, it is the role bearer (i.e. `account`)"
					},
					"VaultRegistered(address,address)": {
						"details": "Emitted when a vault is registered for a pool.",
						"params": {
							"pool": "The address of the pool.",
							"vault": "The address of the registered vault."
						}
					}
				},
				"kind": "dev",
				"methods": {
					"constructor": {
						"details": "Constructor that grants the deployer the admin and pool manager roles."
					},
					"deregisterPool(address)": {
						"details": "Deregisters the specified pool and emits a `PoolDeregistered` event.",
						"params": {
							"pool": "The address of the pool to deregister."
						}
					},
					"getAllLenderPoolDetails(address)": {
						"params": {
							"lender": "The address of the lender."
						},
						"returns": {
							"_0": "An array of pool details."
						}
					},
					"getAllPoolAddresses()": {
						"returns": {
							"_0": "An array of pool addresses."
						}
					},
					"getBorrowerPoolDetails(address)": {
						"params": {
							"borrower": "The address of the borrower."
						},
						"returns": {
							"_0": "An array of pool details."
						}
					},
					"getLoanState(address)": {
						"params": {
							"pool": "The address of the pool."
						},
						"returns": {
							"_0": "The current loan state of the pool."
						}
					},
					"getManagers()": {
						"returns": {
							"_0": "The addresses of the vault and reward managers."
						}
					},
					"getPoolDetails(address)": {
						"params": {
							"pool": "The address of the pool."
						},
						"returns": {
							"_0": "The details of the pool."
						}
					},
					"getPoolsByBorrower(address)": {
						"params": {
							"borrower": "The address of the borrower."
						},
						"returns": {
							"_0": "An array of pool addresses."
						}
					},
					"getPoolsByLender(address)": {
						"params": {
							"lender": "The address of the lender."
						},
						"returns": {
							"_0": "An array of pool addresses."
						}
					},
					"getRoleAdmin(bytes32)": {
						"details": "Returns the admin role that controls `role`. See {grantRole} and {revokeRole}. To change a role's admin, use {_setRoleAdmin}."
					},
					"getTotalPools()": {
						"returns": {
							"_0": "The total number of pools."
						}
					},
					"getVaultForPool(address)": {
						"params": {
							"pool": "The address of the pool."
						},
						"returns": {
							"_0": "The address of the vault."
						}
					},
					"grantFactoryAccess(address)": {
						"params": {
							"factoryAddress": "The address of the factory."
						}
					},
					"grantRole(bytes32,address)": {
						"details": "Grants `role` to `account`. If `account` had not been already granted `role`, emits a {RoleGranted} event. Requirements: - the caller must have ``role``'s admin role. May emit a {RoleGranted} event."
					},
					"hasRole(bytes32,address)": {
						"details": "Returns `true` if `account` has been granted `role`."
					},
					"markPoolAsFunded(address)": {
						"details": "Marks the specified pool as funded.",
						"params": {
							"pool": "The address of the pool to mark as funded."
						}
					},
					"registerManagers(address,address)": {
						"details": "Registers the specified managers and emits a `ManagerRegistered` event.",
						"params": {
							"_rewardManager": "The address of the reward manager.",
							"_vaultManager": "The address of the vault manager."
						}
					},
					"registerPool(address,address,address,address,address,address,address,uint256,uint256,uint256,uint8)": {
						"details": "Registers a pool and emits a `PoolRegistered` event.",
						"params": {
							"assetToken": "The ERC20 token for the asset.",
							"borrower": "The address of the borrower.",
							"interestRate": "The interest rate for the loan.",
							"lender": "The address of the lender.",
							"loanAmount": "The amount of the loan.",
							"loanToken": "The ERC20 token for the loan.",
							"pool": "The address of the pool.",
							"poolType": "The type of the pool.",
							"repaymentPeriod": "The repayment period for the loan.",
							"repaymentToken": "The ERC20 token for the repayment.",
							"vault": "The address of the vault."
						}
					},
					"registerVault(address,address)": {
						"details": "Registers the specified vault for the pool and emits a `VaultRegistered` event.",
						"params": {
							"pool": "The address of the pool.",
							"vault": "The address of the vault."
						}
					},
					"renounceRole(bytes32,address)": {
						"details": "Revokes `role` from the calling account. Roles are often managed via {grantRole} and {revokeRole}: this function's purpose is to provide a mechanism for accounts to lose their privileges if they are compromised (such as when a trusted device is misplaced). If the calling account had been revoked `role`, emits a {RoleRevoked} event. Requirements: - the caller must be `callerConfirmation`. May emit a {RoleRevoked} event."
					},
					"revokeRole(bytes32,address)": {
						"details": "Revokes `role` from `account`. If `account` had been granted `role`, emits a {RoleRevoked} event. Requirements: - the caller must have ``role``'s admin role. May emit a {RoleRevoked} event."
					},
					"setBorrowerForPool(address,address)": {
						"params": {
							"newBorrower": "The address of the new borrower.",
							"pool": "The address of the pool."
						}
					},
					"supportsInterface(bytes4)": {
						"details": "See {IERC165-supportsInterface}."
					},
					"updateLoanState(address,uint8)": {
						"params": {
							"newState": "The new state of the loan.",
							"pool": "The address of the pool."
						}
					}
				},
				"title": "Pool Organizer for managing pools, vaults, and rewards.",
				"version": 1
			},
			"evm": {
				"assembly": "    /* \"contracts/contracts/protocol/PoolOrganizer.sol\":428:14840  contract PoolOrganizer is AccessControl, IPoolOrganizer {... */\n  mstore(0x40, 0x80)\n    /* \"contracts/contracts/protocol/PoolOrganizer.sol\":2611:2735  constructor() {... */\n  callvalue\n  dup1\n  iszero\n  tag_1\n  jumpi\n  0x00\n  dup1\n  revert\ntag_1:\n  pop\n    /* \"contracts/contracts/protocol/PoolOrganizer.sol\":2635:2677  _grantRole(DEFAULT_ADMIN_ROLE, msg.sender) */\n  tag_4\n    /* \"@openzeppelin/contracts/access/AccessControl.sol\":2232:2236  0x00 */\n  0x00\n    /* \"contracts/contracts/protocol/PoolOrganizer.sol\":2666:2676  msg.sender */\n  caller\n    /* \"contracts/contracts/protocol/PoolOrganizer.sol\":2635:2645  _grantRole */\n  tag_5\n    /* \"contracts/contracts/protocol/PoolOrganizer.sol\":2635:2677  _grantRole(DEFAULT_ADMIN_ROLE, msg.sender) */\n  jump\t// in\ntag_4:\n  pop\n    /* \"contracts/contracts/protocol/PoolOrganizer.sol\":2687:2728  _grantRole(POOL_MANAGER_ROLE, msg.sender) */\n  tag_6\n    /* \"contracts/contracts/protocol/PoolOrganizer.sol\":534:564  keccak256(\"POOL_MANAGER_ROLE\") */\n  0x6077685936c8169d09204a1d97db12e41713588c38e1d29a61867d3dcee98aff\n    /* \"contracts/contracts/protocol/PoolOrganizer.sol\":2717:2727  msg.sender */\n  caller\n    /* \"contracts/contracts/protocol/PoolOrganizer.sol\":2687:2697  _grantRole */\n  tag_5\n    /* \"contracts/contracts/protocol/PoolOrganizer.sol\":2687:2728  _grantRole(POOL_MANAGER_ROLE, msg.sender) */\n  jump\t// in\ntag_6:\n  pop\n    /* \"contracts/contracts/protocol/PoolOrganizer.sol\":428:14840  contract PoolOrganizer is AccessControl, IPoolOrganizer {... */\n  jump(tag_7)\n    /* \"@openzeppelin/contracts/access/AccessControl.sol\":6179:6495  function _grantRole(bytes32 role, address account) internal virtual returns (bool) {... */\ntag_5:\n    /* \"@openzeppelin/contracts/access/AccessControl.sol\":6256:6260  bool */\n  0x00\n    /* \"@openzeppelin/contracts/access/AccessControl.sol\":2954:2966  _roles[role] */\n  dup3\n  dup2\n  mstore\n  0x20\n  dup2\n  dup2\n  mstore\n  0x40\n  dup1\n  dup4\n  keccak256\n  sub(shl(0xa0, 0x01), 0x01)\n    /* \"@openzeppelin/contracts/access/AccessControl.sol\":2954:2983  _roles[role].hasRole[account] */\n  dup6\n  and\n  dup5\n  mstore\n  swap1\n  swap2\n  mstore\n  dup2\n  keccak256\n  sload\n  0xff\n  and\n    /* \"@openzeppelin/contracts/access/AccessControl.sol\":6272:6489  if (!hasRole(role, account)) {... */\n  tag_11\n  jumpi\n    /* \"@openzeppelin/contracts/access/AccessControl.sol\":6315:6321  _roles */\n  0x00\n    /* \"@openzeppelin/contracts/access/AccessControl.sol\":6315:6327  _roles[role] */\n  dup4\n  dup2\n  mstore\n  0x20\n  dup2\n  dup2\n  mstore\n  0x40\n  dup1\n  dup4\n  keccak256\n  sub(shl(0xa0, 0x01), 0x01)\n    /* \"@openzeppelin/contracts/access/AccessControl.sol\":6315:6344  _roles[role].hasRole[account] */\n  dup7\n  and\n  dup5\n  mstore\n  swap1\n  swap2\n  mstore\n  swap1\n  keccak256\n    /* \"@openzeppelin/contracts/access/AccessControl.sol\":6315:6351  _roles[role].hasRole[account] = true */\n  dup1\n  sload\n  not(0xff)\n  and\n    /* \"@openzeppelin/contracts/access/AccessControl.sol\":6347:6351  true */\n  0x01\n    /* \"@openzeppelin/contracts/access/AccessControl.sol\":6315:6351  _roles[role].hasRole[account] = true */\n  or\n  swap1\n  sstore\n    /* \"@openzeppelin/contracts/access/AccessControl.sol\":6397:6409  _msgSender() */\n  tag_12\n    /* \"@openzeppelin/contracts/utils/Context.sol\":735:745  msg.sender */\n  caller\n  swap1\n    /* \"@openzeppelin/contracts/utils/Context.sol\":656:752  function _msgSender() internal view virtual returns (address) {... */\n  jump\n    /* \"@openzeppelin/contracts/access/AccessControl.sol\":6397:6409  _msgSender() */\ntag_12:\n  sub(shl(0xa0, 0x01), 0x01)\n    /* \"@openzeppelin/contracts/access/AccessControl.sol\":6370:6410  RoleGranted(role, account, _msgSender()) */\n  and\n    /* \"@openzeppelin/contracts/access/AccessControl.sol\":6388:6395  account */\n  dup3\n  sub(shl(0xa0, 0x01), 0x01)\n    /* \"@openzeppelin/contracts/access/AccessControl.sol\":6370:6410  RoleGranted(role, account, _msgSender()) */\n  and\n    /* \"@openzeppelin/contracts/access/AccessControl.sol\":6382:6386  role */\n  dup5\n    /* \"@openzeppelin/contracts/access/AccessControl.sol\":6370:6410  RoleGranted(role, account, _msgSender()) */\n  0x2f8788117e7eff1d82e926ec794901d17c78024a50270940304540a733656f0d\n  mload(0x40)\n  mload(0x40)\n  dup1\n  swap2\n  sub\n  swap1\n  log4\n  pop\n    /* \"@openzeppelin/contracts/access/AccessControl.sol\":6431:6435  true */\n  0x01\n    /* \"@openzeppelin/contracts/access/AccessControl.sol\":6424:6435  return true */\n  jump(tag_14)\n    /* \"@openzeppelin/contracts/access/AccessControl.sol\":6272:6489  if (!hasRole(role, account)) {... */\ntag_11:\n  pop\n    /* \"@openzeppelin/contracts/access/AccessControl.sol\":6473:6478  false */\n  0x00\n    /* \"@openzeppelin/contracts/access/AccessControl.sol\":6272:6489  if (!hasRole(role, account)) {... */\ntag_14:\n    /* \"@openzeppelin/contracts/access/AccessControl.sol\":6179:6495  function _grantRole(bytes32 role, address account) internal virtual returns (bool) {... */\n  swap3\n  swap2\n  pop\n  pop\n  jump\t// out\n    /* \"contracts/contracts/protocol/PoolOrganizer.sol\":428:14840  contract PoolOrganizer is AccessControl, IPoolOrganizer {... */\ntag_7:\n  dataSize(sub_0)\n  dup1\n  dataOffset(sub_0)\n  0x00\n  codecopy\n  0x00\n  return\nstop\n\nsub_0: assembly {\n        /* \"contracts/contracts/protocol/PoolOrganizer.sol\":428:14840  contract PoolOrganizer is AccessControl, IPoolOrganizer {... */\n      mstore(0x40, 0x80)\n      callvalue\n      dup1\n      iszero\n      tag_1\n      jumpi\n      0x00\n      dup1\n      revert\n    tag_1:\n      pop\n      jumpi(tag_2, lt(calldatasize, 0x04))\n      shr(0xe0, calldataload(0x00))\n      dup1\n      0x7570e389\n      gt\n      tag_32\n      jumpi\n      dup1\n      0xc489579d\n      gt\n      tag_33\n      jumpi\n      dup1\n      0xd3ffe67a\n      gt\n      tag_34\n      jumpi\n      dup1\n      0xd3ffe67a\n      eq\n      tag_28\n      jumpi\n      dup1\n      0xd547741f\n      eq\n      tag_29\n      jumpi\n      dup1\n      0xe7ef32f7\n      eq\n      tag_30\n      jumpi\n      dup1\n      0xec209544\n      eq\n      tag_31\n      jumpi\n      0x00\n      dup1\n      revert\n    tag_34:\n      dup1\n      0xc489579d\n      eq\n      tag_24\n      jumpi\n      dup1\n      0xc56f1b44\n      eq\n      tag_25\n      jumpi\n      dup1\n      0xc81c3bef\n      eq\n      tag_26\n      jumpi\n      dup1\n      0xd3e90fa0\n      eq\n      tag_27\n      jumpi\n      0x00\n      dup1\n      revert\n    tag_33:\n      dup1\n      0x91d14854\n      gt\n      tag_35\n      jumpi\n      dup1\n      0x91d14854\n      eq\n      tag_20\n      jumpi\n      dup1\n      0xa217fddf\n      eq\n      tag_21\n      jumpi\n      dup1\n      0xa8d088bb\n      eq\n      tag_22\n      jumpi\n      dup1\n      0xa956239b\n      eq\n      tag_23\n      jumpi\n      0x00\n      dup1\n      revert\n    tag_35:\n      dup1\n      0x7570e389\n      eq\n      tag_17\n      jumpi\n      dup1\n      0x7e72c7d7\n      eq\n      tag_18\n      jumpi\n      dup1\n      0x8a4adf24\n      eq\n      tag_19\n      jumpi\n      0x00\n      dup1\n      revert\n    tag_32:\n      dup1\n      0x2f2ff15d\n      gt\n      tag_36\n      jumpi\n      dup1\n      0x43756020\n      gt\n      tag_37\n      jumpi\n      dup1\n      0x43756020\n      eq\n      tag_13\n      jumpi\n      dup1\n      0x52fc9b0e\n      eq\n      tag_14\n      jumpi\n      dup1\n      0x56d73568\n      eq\n      tag_15\n      jumpi\n      dup1\n      0x5d102df7\n      eq\n      tag_16\n      jumpi\n      0x00\n      dup1\n      revert\n    tag_37:\n      dup1\n      0x2f2ff15d\n      eq\n      tag_10\n      jumpi\n      dup1\n      0x36568abe\n      eq\n      tag_11\n      jumpi\n      dup1\n      0x37e238c5\n      eq\n      tag_12\n      jumpi\n      0x00\n      dup1\n      revert\n    tag_36:\n      dup1\n      0x1e4966ab\n      gt\n      tag_38\n      jumpi\n      dup1\n      0x1e4966ab\n      eq\n      tag_6\n      jumpi\n      dup1\n      0x1f2f2e14\n      eq\n      tag_7\n      jumpi\n      dup1\n      0x248a9ca3\n      eq\n      tag_8\n      jumpi\n      dup1\n      0x24a44efb\n      eq\n      tag_9\n      jumpi\n      0x00\n      dup1\n      revert\n    tag_38:\n      dup1\n      0x01ffc9a7\n      eq\n      tag_3\n      jumpi\n      dup1\n      0x05c4fdf9\n      eq\n      tag_4\n      jumpi\n      dup1\n      0x0f4ef8a6\n      eq\n      tag_5\n      jumpi\n    tag_2:\n      0x00\n      dup1\n      revert\n        /* \"@openzeppelin/contracts/access/AccessControl.sol\":2565:2767  function supportsInterface(bytes4 interfaceId) public view virtual override returns (bool) {... */\n    tag_3:\n      tag_39\n      tag_40\n      calldatasize\n      0x04\n      tag_41\n      jump\t// in\n    tag_40:\n      tag_42\n      jump\t// in\n    tag_39:\n      mload(0x40)\n        /* \"#utility.yul\":566:580   */\n      swap1\n      iszero\n        /* \"#utility.yul\":559:581   */\n      iszero\n        /* \"#utility.yul\":541:582   */\n      dup2\n      mstore\n        /* \"#utility.yul\":529:531   */\n      0x20\n        /* \"#utility.yul\":514:532   */\n      add\n        /* \"@openzeppelin/contracts/access/AccessControl.sol\":2565:2767  function supportsInterface(bytes4 interfaceId) public view virtual override returns (bool) {... */\n    tag_43:\n      mload(0x40)\n      dup1\n      swap2\n      sub\n      swap1\n      return\n        /* \"contracts/contracts/protocol/PoolOrganizer.sol\":12416:12848  function registerVault(address pool, address vault) external {... */\n    tag_4:\n      tag_45\n      tag_46\n      calldatasize\n      0x04\n      tag_47\n      jump\t// in\n    tag_46:\n      tag_48\n      jump\t// in\n    tag_45:\n      stop\n        /* \"contracts/contracts/protocol/PoolOrganizer.sol\":610:645  IRewardManager public rewardManager */\n    tag_5:\n      sload(0x02)\n      tag_49\n      swap1\n      sub(shl(0xa0, 0x01), 0x01)\n      and\n      dup2\n      jump\n    tag_49:\n      mload(0x40)\n      sub(shl(0xa0, 0x01), 0x01)\n        /* \"#utility.yul\":1433:1465   */\n      swap1\n      swap2\n      and\n        /* \"#utility.yul\":1415:1466   */\n      dup2\n      mstore\n        /* \"#utility.yul\":1403:1405   */\n      0x20\n        /* \"#utility.yul\":1388:1406   */\n      add\n        /* \"contracts/contracts/protocol/PoolOrganizer.sol\":610:645  IRewardManager public rewardManager */\n      tag_43\n        /* \"#utility.yul\":1247:1472   */\n      jump\n        /* \"contracts/contracts/protocol/PoolOrganizer.sol\":808:853  mapping(address => address) public poolVaults */\n    tag_6:\n      tag_49\n      tag_54\n      calldatasize\n      0x04\n      tag_55\n      jump\t// in\n    tag_54:\n      mstore(0x20, 0x06)\n      0x00\n      swap1\n      dup2\n      mstore\n      0x40\n      swap1\n      keccak256\n      sload\n      sub(shl(0xa0, 0x01), 0x01)\n      and\n      dup2\n      jump\n        /* \"contracts/contracts/protocol/PoolOrganizer.sol\":5417:5594  function markPoolAsFunded(address pool) external {... */\n    tag_7:\n      tag_45\n      tag_60\n      calldatasize\n      0x04\n      tag_55\n      jump\t// in\n    tag_60:\n      tag_61\n      jump\t// in\n        /* \"@openzeppelin/contracts/access/AccessControl.sol\":3810:3930  function getRoleAdmin(bytes32 role) public view virtual returns (bytes32) {... */\n    tag_8:\n      tag_62\n      tag_63\n      calldatasize\n      0x04\n      tag_64\n      jump\t// in\n    tag_63:\n        /* \"@openzeppelin/contracts/access/AccessControl.sol\":3875:3882  bytes32 */\n      0x00\n        /* \"@openzeppelin/contracts/access/AccessControl.sol\":3901:3913  _roles[role] */\n      swap1\n      dup2\n      mstore\n      0x20\n      dup2\n      swap1\n      mstore\n      0x40\n      swap1\n      keccak256\n        /* \"@openzeppelin/contracts/access/AccessControl.sol\":3901:3923  _roles[role].adminRole */\n      0x01\n      add\n      sload\n      swap1\n        /* \"@openzeppelin/contracts/access/AccessControl.sol\":3810:3930  function getRoleAdmin(bytes32 role) public view virtual returns (bytes32) {... */\n      jump\n    tag_62:\n      mload(0x40)\n        /* \"#utility.yul\":2314:2339   */\n      swap1\n      dup2\n      mstore\n        /* \"#utility.yul\":2302:2304   */\n      0x20\n        /* \"#utility.yul\":2287:2305   */\n      add\n        /* \"@openzeppelin/contracts/access/AccessControl.sol\":3810:3930  function getRoleAdmin(bytes32 role) public view virtual returns (bytes32) {... */\n      tag_43\n        /* \"#utility.yul\":2168:2345   */\n      jump\n        /* \"contracts/contracts/protocol/PoolOrganizer.sol\":10543:10697  function getPoolsByLender(address lender)... */\n    tag_9:\n      tag_68\n      tag_69\n      calldatasize\n      0x04\n      tag_55\n      jump\t// in\n    tag_69:\n      tag_70\n      jump\t// in\n    tag_68:\n      mload(0x40)\n      tag_43\n      swap2\n      swap1\n      tag_72\n      jump\t// in\n        /* \"@openzeppelin/contracts/access/AccessControl.sol\":4226:4362  function grantRole(bytes32 role, address account) public virtual onlyRole(getRoleAdmin(role)) {... */\n    tag_10:\n      tag_45\n      tag_74\n      calldatasize\n      0x04\n      tag_75\n      jump\t// in\n    tag_74:\n      tag_76\n      jump\t// in\n        /* \"@openzeppelin/contracts/access/AccessControl.sol\":5328:5573  function renounceRole(bytes32 role, address callerConfirmation) public virtual {... */\n    tag_11:\n      tag_45\n      tag_78\n      calldatasize\n      0x04\n      tag_75\n      jump\t// in\n    tag_78:\n      tag_79\n      jump\t// in\n        /* \"contracts/contracts/protocol/PoolOrganizer.sol\":8405:9037  function setBorrowerForPool(address pool, address newBorrower) external {... */\n    tag_12:\n      tag_45\n      tag_81\n      calldatasize\n      0x04\n      tag_47\n      jump\t// in\n    tag_81:\n      tag_82\n      jump\t// in\n        /* \"contracts/contracts/protocol/PoolOrganizer.sol\":3468:4736  function registerPool(... */\n    tag_13:\n      tag_45\n      tag_84\n      calldatasize\n      0x04\n      tag_85\n      jump\t// in\n    tag_84:\n      tag_86\n      jump\t// in\n        /* \"contracts/contracts/protocol/PoolOrganizer.sol\":6066:6588  function getAllLenderPoolDetails(address lender)... */\n    tag_14:\n      tag_87\n      tag_88\n      calldatasize\n      0x04\n      tag_55\n      jump\t// in\n    tag_88:\n      tag_89\n      jump\t// in\n    tag_87:\n      mload(0x40)\n      tag_43\n      swap2\n      swap1\n      tag_91\n      jump\t// in\n        /* \"contracts/contracts/protocol/PoolOrganizer.sol\":490:564  bytes32 public constant POOL_MANAGER_ROLE = keccak256(\"POOL_MANAGER_ROLE\") */\n    tag_15:\n      tag_62\n        /* \"contracts/contracts/protocol/PoolOrganizer.sol\":534:564  keccak256(\"POOL_MANAGER_ROLE\") */\n      0x6077685936c8169d09204a1d97db12e41713588c38e1d29a61867d3dcee98aff\n        /* \"contracts/contracts/protocol/PoolOrganizer.sol\":490:564  bytes32 public constant POOL_MANAGER_ROLE = keccak256(\"POOL_MANAGER_ROLE\") */\n      dup2\n      jump\n        /* \"contracts/contracts/protocol/PoolOrganizer.sol\":11862:12157  function grantFactoryAccess(address factoryAddress) external {... */\n    tag_16:\n      tag_45\n      tag_96\n      calldatasize\n      0x04\n      tag_55\n      jump\t// in\n    tag_96:\n      tag_97\n      jump\t// in\n        /* \"contracts/contracts/protocol/PoolOrganizer.sol\":11270:11503  function getVaultForPool(address pool) external view returns (address) {... */\n    tag_17:\n      tag_49\n      tag_99\n      calldatasize\n      0x04\n      tag_55\n      jump\t// in\n    tag_99:\n      tag_100\n      jump\t// in\n        /* \"contracts/contracts/protocol/PoolOrganizer.sol\":7844:8225  function deregisterPool(address pool) external {... */\n    tag_18:\n      tag_45\n      tag_103\n      calldatasize\n      0x04\n      tag_55\n      jump\t// in\n    tag_103:\n      tag_104\n      jump\t// in\n        /* \"contracts/contracts/protocol/PoolOrganizer.sol\":571:604  IVaultManager public vaultManager */\n    tag_19:\n      sload(0x01)\n      tag_49\n      swap1\n      sub(shl(0xa0, 0x01), 0x01)\n      and\n      dup2\n      jump\n        /* \"@openzeppelin/contracts/access/AccessControl.sol\":2854:2990  function hasRole(bytes32 role, address account) public view virtual returns (bool) {... */\n    tag_20:\n      tag_39\n      tag_110\n      calldatasize\n      0x04\n      tag_75\n      jump\t// in\n    tag_110:\n      tag_111\n      jump\t// in\n        /* \"@openzeppelin/contracts/access/AccessControl.sol\":2187:2236  bytes32 public constant DEFAULT_ADMIN_ROLE = 0x00 */\n    tag_21:\n      tag_62\n        /* \"@openzeppelin/contracts/access/AccessControl.sol\":2232:2236  0x00 */\n      0x00\n        /* \"@openzeppelin/contracts/access/AccessControl.sol\":2187:2236  bytes32 public constant DEFAULT_ADMIN_ROLE = 0x00 */\n      dup2\n      jump\n        /* \"contracts/contracts/protocol/PoolOrganizer.sol\":10024:10159  function getManagers() external view returns (address, address) {... */\n    tag_22:\n        /* \"contracts/contracts/protocol/PoolOrganizer.sol\":10114:10126  vaultManager */\n      sload(0x01)\n        /* \"contracts/contracts/protocol/PoolOrganizer.sol\":10137:10150  rewardManager */\n      sload(0x02)\n        /* \"contracts/contracts/protocol/PoolOrganizer.sol\":10024:10159  function getManagers() external view returns (address, address) {... */\n      0x40\n      dup1\n      mload\n      sub(shl(0xa0, 0x01), 0x01)\n        /* \"contracts/contracts/protocol/PoolOrganizer.sol\":10114:10126  vaultManager */\n      swap4\n      dup5\n      and\n        /* \"#utility.yul\":8181:8232   */\n      dup2\n      mstore\n        /* \"contracts/contracts/protocol/PoolOrganizer.sol\":10137:10150  rewardManager */\n      swap3\n      swap1\n      swap2\n      and\n        /* \"#utility.yul\":8263:8265   */\n      0x20\n        /* \"#utility.yul\":8248:8266   */\n      dup4\n      add\n        /* \"#utility.yul\":8241:8301   */\n      mstore\n        /* \"#utility.yul\":8154:8172   */\n      add\n        /* \"contracts/contracts/protocol/PoolOrganizer.sol\":10024:10159  function getManagers() external view returns (address, address) {... */\n      tag_43\n        /* \"#utility.yul\":8007:8307   */\n      jump\n        /* \"contracts/contracts/protocol/PoolOrganizer.sol\":4950:5246  function updateLoanState(address pool, LoanState newState) external {... */\n    tag_23:\n      tag_45\n      tag_121\n      calldatasize\n      0x04\n      tag_122\n      jump\t// in\n    tag_121:\n      tag_123\n      jump\t// in\n        /* \"contracts/contracts/protocol/PoolOrganizer.sol\":9325:9877  function registerManagers(address _vaultManager, address _rewardManager)... */\n    tag_24:\n      tag_45\n      tag_125\n      calldatasize\n      0x04\n      tag_47\n      jump\t// in\n    tag_125:\n      tag_126\n      jump\t// in\n        /* \"contracts/contracts/protocol/PoolOrganizer.sol\":11619:11720  function getAllPoolAddresses() external view returns (address[] memory) {... */\n    tag_25:\n      tag_68\n      tag_128\n      jump\t// in\n        /* \"contracts/contracts/protocol/PoolOrganizer.sol\":5774:5884  function getLoanState(address pool) external view returns (LoanState) {... */\n    tag_26:\n      tag_130\n      tag_131\n      calldatasize\n      0x04\n      tag_55\n      jump\t// in\n    tag_131:\n      sub(shl(0xa0, 0x01), 0x01)\n        /* \"contracts/contracts/protocol/PoolOrganizer.sol\":5861:5877  loanStates[pool] */\n      and\n        /* \"contracts/contracts/protocol/PoolOrganizer.sol\":5833:5842  LoanState */\n      0x00\n        /* \"contracts/contracts/protocol/PoolOrganizer.sol\":5861:5877  loanStates[pool] */\n      swap1\n      dup2\n      mstore\n        /* \"contracts/contracts/protocol/PoolOrganizer.sol\":5861:5871  loanStates */\n      0x08\n        /* \"contracts/contracts/protocol/PoolOrganizer.sol\":5861:5877  loanStates[pool] */\n      0x20\n      mstore\n      0x40\n      swap1\n      keccak256\n      sload\n      0xff\n      and\n      swap1\n        /* \"contracts/contracts/protocol/PoolOrganizer.sol\":5774:5884  function getLoanState(address pool) external view returns (LoanState) {... */\n      jump\n    tag_130:\n      mload(0x40)\n      tag_43\n      swap2\n      swap1\n      tag_134\n      jump\t// in\n        /* \"contracts/contracts/protocol/PoolOrganizer.sol\":10856:11101  function getPoolDetails(address pool)... */\n    tag_27:\n      tag_135\n      tag_136\n      calldatasize\n      0x04\n      tag_55\n      jump\t// in\n    tag_136:\n      tag_137\n      jump\t// in\n    tag_135:\n      mload(0x40)\n      tag_43\n      swap2\n      swap1\n      tag_139\n      jump\t// in\n        /* \"contracts/contracts/protocol/PoolOrganizer.sol\":10281:10374  function getTotalPools() external view returns (uint256) {... */\n    tag_28:\n        /* \"contracts/contracts/protocol/PoolOrganizer.sol\":10355:10360  pools */\n      0x03\n        /* \"contracts/contracts/protocol/PoolOrganizer.sol\":10355:10367  pools.length */\n      sload\n        /* \"contracts/contracts/protocol/PoolOrganizer.sol\":10281:10374  function getTotalPools() external view returns (uint256) {... */\n      jump(tag_62)\n        /* \"@openzeppelin/contracts/access/AccessControl.sol\":4642:4780  function revokeRole(bytes32 role, address account) public virtual onlyRole(getRoleAdmin(role)) {... */\n    tag_29:\n      tag_45\n      tag_145\n      calldatasize\n      0x04\n      tag_75\n      jump\t// in\n    tag_145:\n      tag_146\n      jump\t// in\n        /* \"contracts/contracts/protocol/PoolOrganizer.sol\":6763:6925  function getPoolsByBorrower(address borrower)... */\n    tag_30:\n      tag_68\n      tag_148\n      calldatasize\n      0x04\n      tag_55\n      jump\t// in\n    tag_148:\n      tag_149\n      jump\t// in\n        /* \"contracts/contracts/protocol/PoolOrganizer.sol\":7113:7648  function getBorrowerPoolDetails(address borrower)... */\n    tag_31:\n      tag_87\n      tag_152\n      calldatasize\n      0x04\n      tag_55\n      jump\t// in\n    tag_152:\n      tag_153\n      jump\t// in\n        /* \"@openzeppelin/contracts/access/AccessControl.sol\":2565:2767  function supportsInterface(bytes4 interfaceId) public view virtual override returns (bool) {... */\n    tag_42:\n        /* \"@openzeppelin/contracts/access/AccessControl.sol\":2650:2654  bool */\n      0x00\n      not(sub(shl(0xe0, 0x01), 0x01))\n        /* \"@openzeppelin/contracts/access/AccessControl.sol\":2673:2720  interfaceId == type(IAccessControl).interfaceId */\n      dup3\n      and\n      shl(0xe0, 0x7965db0b)\n      eq\n      dup1\n        /* \"@openzeppelin/contracts/access/AccessControl.sol\":2673:2760  interfaceId == type(IAccessControl).interfaceId || super.supportsInterface(interfaceId) */\n      tag_157\n      jumpi\n      pop\n      shl(0xe0, 0x01ffc9a7)\n      not(sub(shl(0xe0, 0x01), 0x01))\n        /* \"@openzeppelin/contracts/utils/introspection/ERC165.sol\":861:901  interfaceId == type(IERC165).interfaceId */\n      dup4\n      and\n      eq\n        /* \"@openzeppelin/contracts/access/AccessControl.sol\":2724:2760  super.supportsInterface(interfaceId) */\n    tag_157:\n        /* \"@openzeppelin/contracts/access/AccessControl.sol\":2666:2760  return interfaceId == type(IAccessControl).interfaceId || super.supportsInterface(interfaceId) */\n      swap3\n        /* \"@openzeppelin/contracts/access/AccessControl.sol\":2565:2767  function supportsInterface(bytes4 interfaceId) public view virtual override returns (bool) {... */\n      swap2\n      pop\n      pop\n      jump\t// out\n        /* \"contracts/contracts/protocol/PoolOrganizer.sol\":12416:12848  function registerVault(address pool, address vault) external {... */\n    tag_48:\n      sub(shl(0xa0, 0x01), 0x01)\n        /* \"contracts/contracts/protocol/PoolOrganizer.sol\":12495:12513  pool != address(0) */\n      dup3\n      and\n      iszero\n      dup1\n      iszero\n      swap1\n        /* \"contracts/contracts/protocol/PoolOrganizer.sol\":12495:12536  pool != address(0) && vault != address(0) */\n      tag_160\n      jumpi\n      pop\n      sub(shl(0xa0, 0x01), 0x01)\n        /* \"contracts/contracts/protocol/PoolOrganizer.sol\":12517:12536  vault != address(0) */\n      dup2\n      and\n      iszero\n      iszero\n        /* \"contracts/contracts/protocol/PoolOrganizer.sol\":12495:12536  pool != address(0) && vault != address(0) */\n    tag_160:\n        /* \"contracts/contracts/protocol/PoolOrganizer.sol\":12487:12558  require(pool != address(0) && vault != address(0), \"Invalid addresses\") */\n      tag_161\n      jumpi\n      mload(0x40)\n      shl(0xe5, 0x461bcd)\n      dup2\n      mstore\n        /* \"#utility.yul\":9585:9587   */\n      0x20\n        /* \"contracts/contracts/protocol/PoolOrganizer.sol\":12487:12558  require(pool != address(0) && vault != address(0), \"Invalid addresses\") */\n      0x04\n      dup3\n      add\n        /* \"#utility.yul\":9567:9588   */\n      mstore\n        /* \"#utility.yul\":9624:9626   */\n      0x11\n        /* \"#utility.yul\":9604:9622   */\n      0x24\n      dup3\n      add\n        /* \"#utility.yul\":9597:9627   */\n      mstore\n      shl(0x78, 0x496e76616c696420616464726573736573)\n        /* \"#utility.yul\":9643:9661   */\n      0x44\n      dup3\n      add\n        /* \"#utility.yul\":9636:9683   */\n      mstore\n        /* \"#utility.yul\":9700:9718   */\n      0x64\n      add\n        /* \"contracts/contracts/protocol/PoolOrganizer.sol\":12487:12558  require(pool != address(0) && vault != address(0), \"Invalid addresses\") */\n    tag_162:\n      mload(0x40)\n      dup1\n      swap2\n      sub\n      swap1\n      revert\n    tag_161:\n      sub(shl(0xa0, 0x01), 0x01)\n        /* \"contracts/contracts/protocol/PoolOrganizer.sol\":12576:12593  poolDetails[pool] */\n      dup3\n      dup2\n      and\n        /* \"contracts/contracts/protocol/PoolOrganizer.sol\":12612:12613  0 */\n      0x00\n        /* \"contracts/contracts/protocol/PoolOrganizer.sol\":12576:12593  poolDetails[pool] */\n      swap1\n      dup2\n      mstore\n        /* \"contracts/contracts/protocol/PoolOrganizer.sol\":12576:12587  poolDetails */\n      0x04\n        /* \"contracts/contracts/protocol/PoolOrganizer.sol\":12576:12593  poolDetails[pool] */\n      0x20\n      mstore\n      0x40\n      swap1\n      keccak256\n        /* \"contracts/contracts/protocol/PoolOrganizer.sol\":12576:12600  poolDetails[pool].lender */\n      sload\n      and\n        /* \"contracts/contracts/protocol/PoolOrganizer.sol\":12568:12638  require(poolDetails[pool].lender != address(0), \"Pool not registered\") */\n      tag_164\n      jumpi\n      mload(0x40)\n      shl(0xe5, 0x461bcd)\n      dup2\n      mstore\n      0x04\n      add\n      tag_162\n      swap1\n      tag_166\n      jump\t// in\n    tag_164:\n      sub(shl(0xa0, 0x01), 0x01)\n        /* \"contracts/contracts/protocol/PoolOrganizer.sol\":12669:12685  poolVaults[pool] */\n      dup3\n      dup2\n      and\n        /* \"contracts/contracts/protocol/PoolOrganizer.sol\":12697:12698  0 */\n      0x00\n        /* \"contracts/contracts/protocol/PoolOrganizer.sol\":12669:12685  poolVaults[pool] */\n      swap1\n      dup2\n      mstore\n        /* \"contracts/contracts/protocol/PoolOrganizer.sol\":12669:12679  poolVaults */\n      0x06\n        /* \"contracts/contracts/protocol/PoolOrganizer.sol\":12669:12685  poolVaults[pool] */\n      0x20\n      mstore\n      0x40\n      swap1\n      keccak256\n      sload\n      and\n        /* \"contracts/contracts/protocol/PoolOrganizer.sol\":12669:12699  poolVaults[pool] == address(0) */\n      iszero\n        /* \"contracts/contracts/protocol/PoolOrganizer.sol\":12648:12763  require(... */\n      tag_167\n      jumpi\n      mload(0x40)\n      shl(0xe5, 0x461bcd)\n      dup2\n      mstore\n        /* \"#utility.yul\":10279:10281   */\n      0x20\n        /* \"contracts/contracts/protocol/PoolOrganizer.sol\":12648:12763  require(... */\n      0x04\n      dup3\n      add\n        /* \"#utility.yul\":10261:10282   */\n      mstore\n        /* \"#utility.yul\":10318:10320   */\n      0x26\n        /* \"#utility.yul\":10298:10316   */\n      0x24\n      dup3\n      add\n        /* \"#utility.yul\":10291:10321   */\n      mstore\n        /* \"#utility.yul\":10357:10391   */\n      0x5661756c7420616c7265616479207265676973746572656420666f7220746869\n        /* \"#utility.yul\":10337:10355   */\n      0x44\n      dup3\n      add\n        /* \"#utility.yul\":10330:10392   */\n      mstore\n      shl(0xd2, 0x1cc81c1bdbdb)\n        /* \"#utility.yul\":10408:10426   */\n      0x64\n      dup3\n      add\n        /* \"#utility.yul\":10401:10437   */\n      mstore\n        /* \"#utility.yul\":10454:10473   */\n      0x84\n      add\n        /* \"contracts/contracts/protocol/PoolOrganizer.sol\":12648:12763  require(... */\n      tag_162\n        /* \"#utility.yul\":10077:10479   */\n      jump\n        /* \"contracts/contracts/protocol/PoolOrganizer.sol\":12648:12763  require(... */\n    tag_167:\n      sub(shl(0xa0, 0x01), 0x01)\n        /* \"contracts/contracts/protocol/PoolOrganizer.sol\":12774:12790  poolVaults[pool] */\n      dup3\n      dup2\n      and\n      0x00\n      dup2\n      dup2\n      mstore\n        /* \"contracts/contracts/protocol/PoolOrganizer.sol\":12774:12784  poolVaults */\n      0x06\n        /* \"contracts/contracts/protocol/PoolOrganizer.sol\":12774:12790  poolVaults[pool] */\n      0x20\n      mstore\n      0x40\n      dup1\n      dup3\n      keccak256\n        /* \"contracts/contracts/protocol/PoolOrganizer.sol\":12774:12798  poolVaults[pool] = vault */\n      dup1\n      sload\n      not(sub(shl(0xa0, 0x01), 0x01))\n      and\n      swap5\n      dup7\n      and\n      swap5\n      dup6\n      or\n      swap1\n      sstore\n        /* \"contracts/contracts/protocol/PoolOrganizer.sol\":12813:12841  VaultRegistered(pool, vault) */\n      mload\n      0xf8ee9039d8e4d43426638703c71517008894fdea742bb2d2dbff5a46fb07abdb\n      swap2\n        /* \"contracts/contracts/protocol/PoolOrganizer.sol\":12774:12790  poolVaults[pool] */\n      swap1\n        /* \"contracts/contracts/protocol/PoolOrganizer.sol\":12813:12841  VaultRegistered(pool, vault) */\n      log3\n        /* \"contracts/contracts/protocol/PoolOrganizer.sol\":12416:12848  function registerVault(address pool, address vault) external {... */\n      pop\n      pop\n      jump\t// out\n        /* \"contracts/contracts/protocol/PoolOrganizer.sol\":5417:5594  function markPoolAsFunded(address pool) external {... */\n    tag_61:\n      sub(shl(0xa0, 0x01), 0x01)\n        /* \"contracts/contracts/protocol/PoolOrganizer.sol\":5484:5501  poolDetails[pool] */\n      dup2\n      dup2\n      and\n        /* \"contracts/contracts/protocol/PoolOrganizer.sol\":5520:5521  0 */\n      0x00\n        /* \"contracts/contracts/protocol/PoolOrganizer.sol\":5484:5501  poolDetails[pool] */\n      swap1\n      dup2\n      mstore\n        /* \"contracts/contracts/protocol/PoolOrganizer.sol\":5484:5495  poolDetails */\n      0x04\n        /* \"contracts/contracts/protocol/PoolOrganizer.sol\":5484:5501  poolDetails[pool] */\n      0x20\n      mstore\n      0x40\n      swap1\n      keccak256\n        /* \"contracts/contracts/protocol/PoolOrganizer.sol\":5484:5508  poolDetails[pool].lender */\n      sload\n      and\n        /* \"contracts/contracts/protocol/PoolOrganizer.sol\":5476:5546  require(poolDetails[pool].lender != address(0), \"Pool not registered\") */\n      tag_171\n      jumpi\n      mload(0x40)\n      shl(0xe5, 0x461bcd)\n      dup2\n      mstore\n      0x04\n      add\n      tag_162\n      swap1\n      tag_166\n      jump\t// in\n    tag_171:\n      sub(shl(0xa0, 0x01), 0x01)\n        /* \"contracts/contracts/protocol/PoolOrganizer.sol\":5556:5573  poolDetails[pool] */\n      and\n      0x00\n      swap1\n      dup2\n      mstore\n        /* \"contracts/contracts/protocol/PoolOrganizer.sol\":5556:5567  poolDetails */\n      0x04\n        /* \"contracts/contracts/protocol/PoolOrganizer.sol\":5556:5573  poolDetails[pool] */\n      0x20\n      mstore\n      0x40\n      swap1\n      keccak256\n        /* \"contracts/contracts/protocol/PoolOrganizer.sol\":5556:5580  poolDetails[pool].funded */\n      0x0a\n      add\n        /* \"contracts/contracts/protocol/PoolOrganizer.sol\":5556:5587  poolDetails[pool].funded = true */\n      dup1\n      sload\n      not(0xff00)\n      and\n      0x0100\n      or\n      swap1\n      sstore\n        /* \"contracts/contracts/protocol/PoolOrganizer.sol\":5417:5594  function markPoolAsFunded(address pool) external {... */\n      jump\t// out\n        /* \"contracts/contracts/protocol/PoolOrganizer.sol\":10543:10697  function getPoolsByLender(address lender)... */\n    tag_70:\n      sub(shl(0xa0, 0x01), 0x01)\n        /* \"contracts/contracts/protocol/PoolOrganizer.sol\":10671:10690  lenderPools[lender] */\n      dup2\n      and\n      0x00\n      swap1\n      dup2\n      mstore\n        /* \"contracts/contracts/protocol/PoolOrganizer.sol\":10671:10682  lenderPools */\n      0x05\n        /* \"contracts/contracts/protocol/PoolOrganizer.sol\":10671:10690  lenderPools[lender] */\n      0x20\n      swap1\n      dup2\n      mstore\n      0x40\n      swap2\n      dup3\n      swap1\n      keccak256\n        /* \"contracts/contracts/protocol/PoolOrganizer.sol\":10664:10690  return lenderPools[lender] */\n      dup1\n      sload\n      dup4\n      mload\n      dup2\n      dup5\n      mul\n      dup2\n      add\n      dup5\n      add\n      swap1\n      swap5\n      mstore\n      dup1\n      dup5\n      mstore\n        /* \"contracts/contracts/protocol/PoolOrganizer.sol\":10632:10648  address[] memory */\n      0x60\n      swap4\n        /* \"contracts/contracts/protocol/PoolOrganizer.sol\":10664:10690  return lenderPools[lender] */\n      swap3\n      dup4\n      add\n        /* \"contracts/contracts/protocol/PoolOrganizer.sol\":10671:10690  lenderPools[lender] */\n      dup3\n        /* \"contracts/contracts/protocol/PoolOrganizer.sol\":10664:10690  return lenderPools[lender] */\n      dup3\n      dup1\n      iszero\n      tag_175\n      jumpi\n      0x20\n      mul\n      dup3\n      add\n      swap2\n      swap1\n      0x00\n      mstore\n      keccak256(0x00, 0x20)\n      swap1\n    tag_176:\n      dup2\n      sload\n      sub(shl(0xa0, 0x01), 0x01)\n      and\n      dup2\n      mstore\n      0x01\n      swap1\n      swap2\n      add\n      swap1\n      0x20\n      add\n      dup1\n      dup4\n      gt\n      tag_176\n      jumpi\n    tag_175:\n      pop\n      pop\n      pop\n      pop\n      pop\n      swap1\n      pop\n        /* \"contracts/contracts/protocol/PoolOrganizer.sol\":10543:10697  function getPoolsByLender(address lender)... */\n      swap2\n      swap1\n      pop\n      jump\t// out\n        /* \"@openzeppelin/contracts/access/AccessControl.sol\":4226:4362  function grantRole(bytes32 role, address account) public virtual onlyRole(getRoleAdmin(role)) {... */\n    tag_76:\n        /* \"@openzeppelin/contracts/access/AccessControl.sol\":3875:3882  bytes32 */\n      0x00\n        /* \"@openzeppelin/contracts/access/AccessControl.sol\":3901:3913  _roles[role] */\n      dup3\n      dup2\n      mstore\n      0x20\n      dup2\n      swap1\n      mstore\n      0x40\n      swap1\n      keccak256\n        /* \"@openzeppelin/contracts/access/AccessControl.sol\":3901:3923  _roles[role].adminRole */\n      0x01\n      add\n      sload\n        /* \"@openzeppelin/contracts/access/AccessControl.sol\":2464:2480  _checkRole(role) */\n      tag_179\n        /* \"@openzeppelin/contracts/access/AccessControl.sol\":2475:2479  role */\n      dup2\n        /* \"@openzeppelin/contracts/access/AccessControl.sol\":2464:2474  _checkRole */\n      tag_180\n        /* \"@openzeppelin/contracts/access/AccessControl.sol\":2464:2480  _checkRole(role) */\n      jump\t// in\n    tag_179:\n        /* \"@openzeppelin/contracts/access/AccessControl.sol\":4330:4355  _grantRole(role, account) */\n      tag_182\n        /* \"@openzeppelin/contracts/access/AccessControl.sol\":4341:4345  role */\n      dup4\n        /* \"@openzeppelin/contracts/access/AccessControl.sol\":4347:4354  account */\n      dup4\n        /* \"@openzeppelin/contracts/access/AccessControl.sol\":4330:4340  _grantRole */\n      tag_183\n        /* \"@openzeppelin/contracts/access/AccessControl.sol\":4330:4355  _grantRole(role, account) */\n      jump\t// in\n    tag_182:\n      pop\n        /* \"@openzeppelin/contracts/access/AccessControl.sol\":4226:4362  function grantRole(bytes32 role, address account) public virtual onlyRole(getRoleAdmin(role)) {... */\n      pop\n      pop\n      pop\n      jump\t// out\n        /* \"@openzeppelin/contracts/access/AccessControl.sol\":5328:5573  function renounceRole(bytes32 role, address callerConfirmation) public virtual {... */\n    tag_79:\n      sub(shl(0xa0, 0x01), 0x01)\n        /* \"@openzeppelin/contracts/access/AccessControl.sol\":5421:5455  callerConfirmation != _msgSender() */\n      dup2\n      and\n        /* \"@openzeppelin/contracts/utils/Context.sol\":735:745  msg.sender */\n      caller\n        /* \"@openzeppelin/contracts/access/AccessControl.sol\":5421:5455  callerConfirmation != _msgSender() */\n      eq\n        /* \"@openzeppelin/contracts/access/AccessControl.sol\":5417:5519  if (callerConfirmation != _msgSender()) {... */\n      tag_187\n      jumpi\n        /* \"@openzeppelin/contracts/access/AccessControl.sol\":5478:5508  AccessControlBadConfirmation() */\n      mload(0x40)\n      shl(0xe1, 0x334bd919)\n      dup2\n      mstore\n      0x04\n      add\n      mload(0x40)\n      dup1\n      swap2\n      sub\n      swap1\n      revert\n        /* \"@openzeppelin/contracts/access/AccessControl.sol\":5417:5519  if (callerConfirmation != _msgSender()) {... */\n    tag_187:\n        /* \"@openzeppelin/contracts/access/AccessControl.sol\":5529:5566  _revokeRole(role, callerConfirmation) */\n      tag_188\n        /* \"@openzeppelin/contracts/access/AccessControl.sol\":5541:5545  role */\n      dup3\n        /* \"@openzeppelin/contracts/access/AccessControl.sol\":5547:5565  callerConfirmation */\n      dup3\n        /* \"@openzeppelin/contracts/access/AccessControl.sol\":5529:5540  _revokeRole */\n      tag_189\n        /* \"@openzeppelin/contracts/access/AccessControl.sol\":5529:5566  _revokeRole(role, callerConfirmation) */\n      jump\t// in\n    tag_188:\n      pop\n        /* \"@openzeppelin/contracts/access/AccessControl.sol\":5328:5573  function renounceRole(bytes32 role, address callerConfirmation) public virtual {... */\n      pop\n      pop\n      jump\t// out\n        /* \"contracts/contracts/protocol/PoolOrganizer.sol\":8405:9037  function setBorrowerForPool(address pool, address newBorrower) external {... */\n    tag_82:\n      sub(shl(0xa0, 0x01), 0x01)\n        /* \"contracts/contracts/protocol/PoolOrganizer.sol\":8495:8512  poolDetails[pool] */\n      dup3\n      dup2\n      and\n        /* \"contracts/contracts/protocol/PoolOrganizer.sol\":8531:8532  0 */\n      0x00\n        /* \"contracts/contracts/protocol/PoolOrganizer.sol\":8495:8512  poolDetails[pool] */\n      swap1\n      dup2\n      mstore\n        /* \"contracts/contracts/protocol/PoolOrganizer.sol\":8495:8506  poolDetails */\n      0x04\n        /* \"contracts/contracts/protocol/PoolOrganizer.sol\":8495:8512  poolDetails[pool] */\n      0x20\n      mstore\n      0x40\n      swap1\n      keccak256\n        /* \"contracts/contracts/protocol/PoolOrganizer.sol\":8495:8519  poolDetails[pool].lender */\n      sload\n      and\n        /* \"contracts/contracts/protocol/PoolOrganizer.sol\":8487:8557  require(poolDetails[pool].lender != address(0), \"Pool not registered\") */\n      tag_191\n      jumpi\n      mload(0x40)\n      shl(0xe5, 0x461bcd)\n      dup2\n      mstore\n      0x04\n      add\n      tag_162\n      swap1\n      tag_166\n      jump\t// in\n    tag_191:\n      sub(shl(0xa0, 0x01), 0x01)\n        /* \"contracts/contracts/protocol/PoolOrganizer.sol\":8588:8613  newBorrower != address(0) */\n      dup2\n      and\n        /* \"contracts/contracts/protocol/PoolOrganizer.sol\":8567:8674  require(... */\n      tag_193\n      jumpi\n      mload(0x40)\n      shl(0xe5, 0x461bcd)\n      dup2\n      mstore\n        /* \"#utility.yul\":10686:10688   */\n      0x20\n        /* \"contracts/contracts/protocol/PoolOrganizer.sol\":8567:8674  require(... */\n      0x04\n      dup3\n      add\n        /* \"#utility.yul\":10668:10689   */\n      mstore\n        /* \"#utility.yul\":10725:10727   */\n      0x23\n        /* \"#utility.yul\":10705:10723   */\n      0x24\n      dup3\n      add\n        /* \"#utility.yul\":10698:10728   */\n      mstore\n        /* \"#utility.yul\":10764:10798   */\n      0x426f72726f7765722063616e6e6f7420626520746865207a65726f2061646472\n        /* \"#utility.yul\":10744:10762   */\n      0x44\n      dup3\n      add\n        /* \"#utility.yul\":10737:10799   */\n      mstore\n      shl(0xe8, 0x657373)\n        /* \"#utility.yul\":10815:10833   */\n      0x64\n      dup3\n      add\n        /* \"#utility.yul\":10808:10841   */\n      mstore\n        /* \"#utility.yul\":10858:10877   */\n      0x84\n      add\n        /* \"contracts/contracts/protocol/PoolOrganizer.sol\":8567:8674  require(... */\n      tag_162\n        /* \"#utility.yul\":10484:10883   */\n      jump\n        /* \"contracts/contracts/protocol/PoolOrganizer.sol\":8567:8674  require(... */\n    tag_193:\n      sub(shl(0xa0, 0x01), 0x01)\n        /* \"contracts/contracts/protocol/PoolOrganizer.sol\":8711:8728  poolDetails[pool] */\n      dup1\n      dup4\n      and\n        /* \"contracts/contracts/protocol/PoolOrganizer.sol\":8685:8708  address currentBorrower */\n      0x00\n        /* \"contracts/contracts/protocol/PoolOrganizer.sol\":8711:8728  poolDetails[pool] */\n      swap1\n      dup2\n      mstore\n        /* \"contracts/contracts/protocol/PoolOrganizer.sol\":8711:8722  poolDetails */\n      0x04\n        /* \"contracts/contracts/protocol/PoolOrganizer.sol\":8711:8728  poolDetails[pool] */\n      0x20\n      mstore\n      0x40\n      swap1\n      keccak256\n        /* \"contracts/contracts/protocol/PoolOrganizer.sol\":8711:8737  poolDetails[pool].borrower */\n      0x01\n      add\n      sload\n      dup2\n      and\n      swap1\n        /* \"contracts/contracts/protocol/PoolOrganizer.sol\":8751:8781  currentBorrower != newBorrower */\n      dup3\n      and\n      dup2\n      eq\n        /* \"contracts/contracts/protocol/PoolOrganizer.sol\":8747:9031  if (currentBorrower != newBorrower) {... */\n      tag_188\n      jumpi\n      sub(shl(0xa0, 0x01), 0x01)\n        /* \"contracts/contracts/protocol/PoolOrganizer.sol\":8801:8830  currentBorrower != address(0) */\n      dup2\n      and\n      iszero\n        /* \"contracts/contracts/protocol/PoolOrganizer.sol\":8797:8916  if (currentBorrower != address(0)) {... */\n      tag_198\n      jumpi\n        /* \"contracts/contracts/protocol/PoolOrganizer.sol\":8850:8901  _removePoolFromBorrowerArray(currentBorrower, pool) */\n      tag_198\n        /* \"contracts/contracts/protocol/PoolOrganizer.sol\":8879:8894  currentBorrower */\n      dup2\n        /* \"contracts/contracts/protocol/PoolOrganizer.sol\":8896:8900  pool */\n      dup5\n        /* \"contracts/contracts/protocol/PoolOrganizer.sol\":8850:8878  _removePoolFromBorrowerArray */\n      tag_199\n        /* \"contracts/contracts/protocol/PoolOrganizer.sol\":8850:8901  _removePoolFromBorrowerArray(currentBorrower, pool) */\n      jump\t// in\n    tag_198:\n      sub(shl(0xa0, 0x01), 0x01)\n        /* \"contracts/contracts/protocol/PoolOrganizer.sol\":8929:8955  borrowerPools[newBorrower] */\n      dup1\n      dup4\n      and\n      0x00\n      dup2\n      dup2\n      mstore\n        /* \"contracts/contracts/protocol/PoolOrganizer.sol\":8929:8942  borrowerPools */\n      0x07\n        /* \"contracts/contracts/protocol/PoolOrganizer.sol\":8929:8955  borrowerPools[newBorrower] */\n      0x20\n      swap1\n      dup2\n      mstore\n      0x40\n      dup1\n      dup4\n      keccak256\n        /* \"contracts/contracts/protocol/PoolOrganizer.sol\":8929:8966  borrowerPools[newBorrower].push(pool) */\n      dup1\n      sload\n      0x01\n      dup2\n      dup2\n      add\n      dup4\n      sstore\n      swap2\n      dup6\n      mstore\n      dup4\n      dup6\n      keccak256\n      add\n      dup1\n      sload\n      swap7\n      dup11\n      and\n      not(sub(shl(0xa0, 0x01), 0x01))\n      swap8\n      dup9\n      and\n      dup2\n      or\n      swap1\n      swap2\n      sstore\n        /* \"contracts/contracts/protocol/PoolOrganizer.sol\":8980:8997  poolDetails[pool] */\n      dup5\n      mstore\n        /* \"contracts/contracts/protocol/PoolOrganizer.sol\":8980:8991  poolDetails */\n      0x04\n        /* \"contracts/contracts/protocol/PoolOrganizer.sol\":8980:8997  poolDetails[pool] */\n      swap1\n      swap3\n      mstore\n      swap1\n      swap2\n      keccak256\n        /* \"contracts/contracts/protocol/PoolOrganizer.sol\":8980:9006  poolDetails[pool].borrower */\n      add\n        /* \"contracts/contracts/protocol/PoolOrganizer.sol\":8980:9020  poolDetails[pool].borrower = newBorrower */\n      dup1\n      sload\n      swap1\n      swap3\n      and\n      or\n      swap1\n      sstore\n        /* \"contracts/contracts/protocol/PoolOrganizer.sol\":8477:9037  {... */\n      pop\n        /* \"contracts/contracts/protocol/PoolOrganizer.sol\":8405:9037  function setBorrowerForPool(address pool, address newBorrower) external {... */\n      pop\n      pop\n      jump\t// out\n        /* \"contracts/contracts/protocol/PoolOrganizer.sol\":3468:4736  function registerPool(... */\n    tag_86:\n      sub(shl(0xa0, 0x01), 0x01)\n        /* \"contracts/contracts/protocol/PoolOrganizer.sol\":3820:3838  pool != address(0) */\n      dup12\n      and\n        /* \"contracts/contracts/protocol/PoolOrganizer.sol\":3812:3870  require(pool != address(0), \"Pool address cannot be zero\") */\n      tag_202\n      jumpi\n      mload(0x40)\n      shl(0xe5, 0x461bcd)\n      dup2\n      mstore\n        /* \"#utility.yul\":11090:11092   */\n      0x20\n        /* \"contracts/contracts/protocol/PoolOrganizer.sol\":3812:3870  require(pool != address(0), \"Pool address cannot be zero\") */\n      0x04\n      dup3\n      add\n        /* \"#utility.yul\":11072:11093   */\n      mstore\n        /* \"#utility.yul\":11129:11131   */\n      0x1b\n        /* \"#utility.yul\":11109:11127   */\n      0x24\n      dup3\n      add\n        /* \"#utility.yul\":11102:11132   */\n      mstore\n        /* \"#utility.yul\":11168:11197   */\n      0x506f6f6c20616464726573732063616e6e6f74206265207a65726f0000000000\n        /* \"#utility.yul\":11148:11166   */\n      0x44\n      dup3\n      add\n        /* \"#utility.yul\":11141:11198   */\n      mstore\n        /* \"#utility.yul\":11215:11233   */\n      0x64\n      add\n        /* \"contracts/contracts/protocol/PoolOrganizer.sol\":3812:3870  require(pool != address(0), \"Pool address cannot be zero\") */\n      tag_162\n        /* \"#utility.yul\":10888:11239   */\n      jump\n        /* \"contracts/contracts/protocol/PoolOrganizer.sol\":3812:3870  require(pool != address(0), \"Pool address cannot be zero\") */\n    tag_202:\n      sub(shl(0xa0, 0x01), 0x01)\n        /* \"contracts/contracts/protocol/PoolOrganizer.sol\":3901:3918  poolDetails[pool] */\n      dup12\n      dup2\n      and\n        /* \"contracts/contracts/protocol/PoolOrganizer.sol\":3937:3938  0 */\n      0x00\n        /* \"contracts/contracts/protocol/PoolOrganizer.sol\":3901:3918  poolDetails[pool] */\n      swap1\n      dup2\n      mstore\n        /* \"contracts/contracts/protocol/PoolOrganizer.sol\":3901:3912  poolDetails */\n      0x04\n        /* \"contracts/contracts/protocol/PoolOrganizer.sol\":3901:3918  poolDetails[pool] */\n      0x20\n      mstore\n      0x40\n      swap1\n      keccak256\n        /* \"contracts/contracts/protocol/PoolOrganizer.sol\":3901:3925  poolDetails[pool].lender */\n      sload\n      and\n        /* \"contracts/contracts/protocol/PoolOrganizer.sol\":3901:3939  poolDetails[pool].lender == address(0) */\n      iszero\n        /* \"contracts/contracts/protocol/PoolOrganizer.sol\":3880:3988  require(... */\n      tag_205\n      jumpi\n      mload(0x40)\n      shl(0xe5, 0x461bcd)\n      dup2\n      mstore\n        /* \"#utility.yul\":11446:11448   */\n      0x20\n        /* \"contracts/contracts/protocol/PoolOrganizer.sol\":3880:3988  require(... */\n      0x04\n      dup3\n      add\n        /* \"#utility.yul\":11428:11449   */\n      mstore\n        /* \"#utility.yul\":11485:11487   */\n      0x17\n        /* \"#utility.yul\":11465:11483   */\n      0x24\n      dup3\n      add\n        /* \"#utility.yul\":11458:11488   */\n      mstore\n        /* \"#utility.yul\":11524:11549   */\n      0x506f6f6c20616c72656164792072656769737465726564000000000000000000\n        /* \"#utility.yul\":11504:11522   */\n      0x44\n      dup3\n      add\n        /* \"#utility.yul\":11497:11550   */\n      mstore\n        /* \"#utility.yul\":11567:11585   */\n      0x64\n      add\n        /* \"contracts/contracts/protocol/PoolOrganizer.sol\":3880:3988  require(... */\n      tag_162\n        /* \"#utility.yul\":11244:11591   */\n      jump\n        /* \"contracts/contracts/protocol/PoolOrganizer.sol\":3880:3988  require(... */\n    tag_205:\n        /* \"contracts/contracts/protocol/PoolOrganizer.sol\":4019:4547  IPoolOrganizer.PoolDetails({... */\n      mload(0x40)\n      dup1\n      0x01c0\n      add\n      0x40\n      mstore\n      dup1\n        /* \"contracts/contracts/protocol/PoolOrganizer.sol\":4068:4074  lender */\n      dup12\n      sub(shl(0xa0, 0x01), 0x01)\n        /* \"contracts/contracts/protocol/PoolOrganizer.sol\":4019:4547  IPoolOrganizer.PoolDetails({... */\n      and\n      dup2\n      mstore\n      0x20\n      add\n        /* \"contracts/contracts/protocol/PoolOrganizer.sol\":4098:4106  borrower */\n      dup11\n      sub(shl(0xa0, 0x01), 0x01)\n        /* \"contracts/contracts/protocol/PoolOrganizer.sol\":4019:4547  IPoolOrganizer.PoolDetails({... */\n      and\n      dup2\n      mstore\n      0x20\n      add\n        /* \"contracts/contracts/protocol/PoolOrganizer.sol\":4134:4149  block.timestamp */\n      timestamp\n        /* \"contracts/contracts/protocol/PoolOrganizer.sol\":4019:4547  IPoolOrganizer.PoolDetails({... */\n      dup2\n      mstore\n      0x20\n      add\n        /* \"contracts/contracts/protocol/PoolOrganizer.sol\":4170:4175  vault */\n      dup10\n      sub(shl(0xa0, 0x01), 0x01)\n        /* \"contracts/contracts/protocol/PoolOrganizer.sol\":4019:4547  IPoolOrganizer.PoolDetails({... */\n      and\n      dup2\n      mstore\n      0x20\n      add\n        /* \"contracts/contracts/protocol/PoolOrganizer.sol\":4200:4209  loanToken */\n      dup9\n      sub(shl(0xa0, 0x01), 0x01)\n        /* \"contracts/contracts/protocol/PoolOrganizer.sol\":4019:4547  IPoolOrganizer.PoolDetails({... */\n      and\n      dup2\n      mstore\n      0x20\n      add\n        /* \"contracts/contracts/protocol/PoolOrganizer.sol\":4235:4245  assetToken */\n      dup8\n      sub(shl(0xa0, 0x01), 0x01)\n        /* \"contracts/contracts/protocol/PoolOrganizer.sol\":4019:4547  IPoolOrganizer.PoolDetails({... */\n      and\n      dup2\n      mstore\n      0x20\n      add\n        /* \"contracts/contracts/protocol/PoolOrganizer.sol\":4275:4289  repaymentToken */\n      dup7\n      sub(shl(0xa0, 0x01), 0x01)\n        /* \"contracts/contracts/protocol/PoolOrganizer.sol\":4019:4547  IPoolOrganizer.PoolDetails({... */\n      and\n      dup2\n      mstore\n      0x20\n      add\n        /* \"contracts/contracts/protocol/PoolOrganizer.sol\":4315:4325  loanAmount */\n      dup6\n        /* \"contracts/contracts/protocol/PoolOrganizer.sol\":4019:4547  IPoolOrganizer.PoolDetails({... */\n      dup2\n      mstore\n      0x20\n      add\n        /* \"contracts/contracts/protocol/PoolOrganizer.sol\":4353:4365  interestRate */\n      dup5\n        /* \"contracts/contracts/protocol/PoolOrganizer.sol\":4019:4547  IPoolOrganizer.PoolDetails({... */\n      dup2\n      mstore\n      0x20\n      add\n        /* \"contracts/contracts/protocol/PoolOrganizer.sol\":4396:4411  repaymentPeriod */\n      dup4\n        /* \"contracts/contracts/protocol/PoolOrganizer.sol\":4019:4547  IPoolOrganizer.PoolDetails({... */\n      dup2\n      mstore\n      0x20\n      add\n        /* \"contracts/contracts/protocol/PoolOrganizer.sol\":4435:4443  poolType */\n      dup3\n        /* \"contracts/contracts/protocol/PoolOrganizer.sol\":4019:4547  IPoolOrganizer.PoolDetails({... */\n      0x01\n      dup2\n      gt\n      iszero\n      tag_209\n      jumpi\n      tag_209\n      tag_210\n      jump\t// in\n    tag_209:\n      dup2\n      mstore\n        /* \"contracts/contracts/protocol/PoolOrganizer.sol\":4465:4470  false */\n      0x00\n        /* \"contracts/contracts/protocol/PoolOrganizer.sol\":4019:4547  IPoolOrganizer.PoolDetails({... */\n      0x20\n      dup3\n      add\n      dup2\n      swap1\n      mstore\n      0x40\n      swap1\n      swap2\n      add\n      swap1\n      dup2\n      mstore\n      sub(shl(0xa0, 0x01), 0x01)\n      dup1\n      dup15\n      and\n      0x20\n      swap3\n      dup4\n      add\n      dup2\n      swap1\n      mstore\n      0x00\n        /* \"contracts/contracts/protocol/PoolOrganizer.sol\":3999:4016  poolDetails[pool] */\n      swap1\n      dup2\n      mstore\n        /* \"contracts/contracts/protocol/PoolOrganizer.sol\":3999:4010  poolDetails */\n      0x04\n        /* \"contracts/contracts/protocol/PoolOrganizer.sol\":3999:4016  poolDetails[pool] */\n      dup1\n      dup5\n      mstore\n      0x40\n      swap2\n      dup3\n      swap1\n      keccak256\n        /* \"contracts/contracts/protocol/PoolOrganizer.sol\":3999:4547  poolDetails[pool] = IPoolOrganizer.PoolDetails({... */\n      dup6\n      mload\n      dup2\n      sload\n      swap1\n      dup6\n      and\n      not(sub(shl(0xa0, 0x01), 0x01))\n      swap2\n      dup3\n      and\n      or\n      dup3\n      sstore\n      swap5\n      dup7\n      add\n      mload\n      0x01\n      dup1\n      dup4\n      add\n      dup1\n      sload\n      swap3\n      dup8\n      and\n      swap3\n      dup9\n      and\n      swap3\n      swap1\n      swap3\n      or\n      swap1\n      swap2\n      sstore\n      swap3\n      dup7\n      add\n      mload\n      0x02\n      dup3\n      add\n      sstore\n      0x60\n      dup7\n      add\n      mload\n      0x03\n      dup3\n      add\n      dup1\n      sload\n      swap2\n      dup7\n      and\n      swap2\n      dup8\n      and\n      swap2\n      swap1\n      swap2\n      or\n      swap1\n      sstore\n      0x80\n      dup7\n      add\n      mload\n      swap2\n      dup2\n      add\n      dup1\n      sload\n      swap3\n      dup6\n      and\n      swap3\n      dup7\n      and\n      swap3\n      swap1\n      swap3\n      or\n      swap1\n      swap2\n      sstore\n      0xa0\n      dup6\n      add\n      mload\n      0x05\n      dup3\n      add\n      dup1\n      sload\n      swap2\n      dup6\n      and\n      swap2\n      dup7\n      and\n      swap2\n      swap1\n      swap2\n      or\n      swap1\n      sstore\n      0xc0\n      dup6\n      add\n      mload\n      0x06\n      dup3\n      add\n      dup1\n      sload\n      swap2\n      swap1\n      swap5\n      and\n      swap5\n      and\n      swap4\n      swap1\n      swap4\n      or\n      swap1\n      swap2\n      sstore\n      0xe0\n      dup4\n      add\n      mload\n      0x07\n      dup4\n      add\n      sstore\n      0x0100\n      dup4\n      add\n      mload\n      0x08\n      dup4\n      add\n      sstore\n      0x0120\n      dup4\n      add\n      mload\n      0x09\n      dup4\n      add\n      sstore\n      0x0140\n      dup4\n      add\n      mload\n      0x0a\n      dup4\n      add\n      dup1\n      sload\n      swap2\n      swap3\n      swap1\n      swap2\n      not(0xff)\n      and\n      swap1\n      dup4\n      dup2\n      dup2\n      gt\n      iszero\n      tag_214\n      jumpi\n      tag_214\n      tag_210\n      jump\t// in\n    tag_214:\n      mul\n      or\n      swap1\n      sstore\n      pop\n      0x0160\n      dup3\n      add\n      mload\n      0x0a\n      dup3\n      add\n      dup1\n      sload\n      swap2\n      iszero\n      iszero\n      0x0100\n      mul\n      not(0xff00)\n      dup4\n      and\n      dup2\n      or\n      dup3\n      sstore\n      0x0180\n      dup6\n      add\n      mload\n      swap3\n      not(0xff0000)\n      swap1\n      swap2\n      and\n      not(0xffff00)\n      swap1\n      swap2\n      and\n      or\n      0x010000\n      dup4\n      0x06\n      dup2\n      gt\n      iszero\n      tag_216\n      jumpi\n      tag_216\n      tag_210\n      jump\t// in\n    tag_216:\n      mul\n      or\n      swap1\n      sstore\n      pop\n      0x01a0\n      dup3\n      add\n      mload\n      dup2\n      0x0a\n      add\n      exp(0x0100, 0x03)\n      dup2\n      sload\n      dup2\n      sub(shl(0xa0, 0x01), 0x01)\n      mul\n      not\n      and\n      swap1\n      dup4\n      sub(shl(0xa0, 0x01), 0x01)\n      and\n      mul\n      or\n      swap1\n      sstore\n      pop\n      swap1\n      pop\n      pop\n        /* \"contracts/contracts/protocol/PoolOrganizer.sol\":4557:4568  lenderPools */\n      0x05\n        /* \"contracts/contracts/protocol/PoolOrganizer.sol\":4557:4576  lenderPools[lender] */\n      0x00\n        /* \"contracts/contracts/protocol/PoolOrganizer.sol\":4569:4575  lender */\n      dup12\n      sub(shl(0xa0, 0x01), 0x01)\n        /* \"contracts/contracts/protocol/PoolOrganizer.sol\":4557:4576  lenderPools[lender] */\n      and\n      sub(shl(0xa0, 0x01), 0x01)\n      and\n      dup2\n      mstore\n      0x20\n      add\n      swap1\n      dup2\n      mstore\n      0x20\n      add\n      0x00\n      keccak256\n        /* \"contracts/contracts/protocol/PoolOrganizer.sol\":4582:4586  pool */\n      dup12\n        /* \"contracts/contracts/protocol/PoolOrganizer.sol\":4557:4587  lenderPools[lender].push(pool) */\n      swap1\n      dup1\n      0x01\n      dup2\n      sload\n      add\n      dup1\n      dup3\n      sstore\n      dup1\n      swap2\n      pop\n      pop\n      0x01\n      swap1\n      sub\n      swap1\n      0x00\n      mstore\n      keccak256(0x00, 0x20)\n      add\n      0x00\n      swap1\n      swap2\n      swap1\n      swap2\n      swap1\n      swap2\n      0x0100\n      exp\n      dup2\n      sload\n      dup2\n      sub(shl(0xa0, 0x01), 0x01)\n      mul\n      not\n      and\n      swap1\n      dup4\n      sub(shl(0xa0, 0x01), 0x01)\n      and\n      mul\n      or\n      swap1\n      sstore\n      pop\n        /* \"contracts/contracts/protocol/PoolOrganizer.sol\":4597:4602  pools */\n      0x03\n        /* \"contracts/contracts/protocol/PoolOrganizer.sol\":4608:4612  pool */\n      dup12\n        /* \"contracts/contracts/protocol/PoolOrganizer.sol\":4597:4613  pools.push(pool) */\n      swap1\n      dup1\n      0x01\n      dup2\n      sload\n      add\n      dup1\n      dup3\n      sstore\n      dup1\n      swap2\n      pop\n      pop\n      0x01\n      swap1\n      sub\n      swap1\n      0x00\n      mstore\n      keccak256(0x00, 0x20)\n      add\n      0x00\n      swap1\n      swap2\n      swap1\n      swap2\n      swap1\n      swap2\n      0x0100\n      exp\n      dup2\n      sload\n      dup2\n      sub(shl(0xa0, 0x01), 0x01)\n      mul\n      not\n      and\n      swap1\n      dup4\n      sub(shl(0xa0, 0x01), 0x01)\n      and\n      mul\n      or\n      swap1\n      sstore\n      pop\n        /* \"contracts/contracts/protocol/PoolOrganizer.sol\":4642:4659  LoanState.CREATED */\n      0x00\n        /* \"contracts/contracts/protocol/PoolOrganizer.sol\":4623:4633  loanStates */\n      0x08\n        /* \"contracts/contracts/protocol/PoolOrganizer.sol\":4623:4639  loanStates[pool] */\n      0x00\n        /* \"contracts/contracts/protocol/PoolOrganizer.sol\":4634:4638  pool */\n      dup14\n      sub(shl(0xa0, 0x01), 0x01)\n        /* \"contracts/contracts/protocol/PoolOrganizer.sol\":4623:4639  loanStates[pool] */\n      and\n      sub(shl(0xa0, 0x01), 0x01)\n      and\n      dup2\n      mstore\n      0x20\n      add\n      swap1\n      dup2\n      mstore\n      0x20\n      add\n      0x00\n      keccak256\n      0x00\n        /* \"contracts/contracts/protocol/PoolOrganizer.sol\":4623:4659  loanStates[pool] = LoanState.CREATED */\n      0x0100\n      exp\n      dup2\n      sload\n      dup2\n      0xff\n      mul\n      not\n      and\n      swap1\n      dup4\n      0x06\n      dup2\n      gt\n      iszero\n      tag_220\n      jumpi\n      tag_220\n      tag_210\n      jump\t// in\n    tag_220:\n      mul\n      or\n      swap1\n      sstore\n      pop\n        /* \"contracts/contracts/protocol/PoolOrganizer.sol\":4703:4711  borrower */\n      dup9\n      sub(shl(0xa0, 0x01), 0x01)\n        /* \"contracts/contracts/protocol/PoolOrganizer.sol\":4674:4729  PoolRegistered(pool, lender, borrower, vault, poolType) */\n      and\n        /* \"contracts/contracts/protocol/PoolOrganizer.sol\":4695:4701  lender */\n      dup11\n      sub(shl(0xa0, 0x01), 0x01)\n        /* \"contracts/contracts/protocol/PoolOrganizer.sol\":4674:4729  PoolRegistered(pool, lender, borrower, vault, poolType) */\n      and\n        /* \"contracts/contracts/protocol/PoolOrganizer.sol\":4689:4693  pool */\n      dup13\n      sub(shl(0xa0, 0x01), 0x01)\n        /* \"contracts/contracts/protocol/PoolOrganizer.sol\":4674:4729  PoolRegistered(pool, lender, borrower, vault, poolType) */\n      and\n      0x8f723e49dc038e67c41b41307a1e0c65653d50125a0c474a21ac32d9a0b24d2b\n        /* \"contracts/contracts/protocol/PoolOrganizer.sol\":4713:4718  vault */\n      dup12\n        /* \"contracts/contracts/protocol/PoolOrganizer.sol\":4720:4728  poolType */\n      dup6\n        /* \"contracts/contracts/protocol/PoolOrganizer.sol\":4674:4729  PoolRegistered(pool, lender, borrower, vault, poolType) */\n      mload(0x40)\n      tag_221\n      swap3\n      swap2\n      swap1\n      tag_222\n      jump\t// in\n    tag_221:\n      mload(0x40)\n      dup1\n      swap2\n      sub\n      swap1\n      log4\n        /* \"contracts/contracts/protocol/PoolOrganizer.sol\":3468:4736  function registerPool(... */\n      pop\n      pop\n      pop\n      pop\n      pop\n      pop\n      pop\n      pop\n      pop\n      pop\n      pop\n      jump\t// out\n        /* \"contracts/contracts/protocol/PoolOrganizer.sol\":6066:6588  function getAllLenderPoolDetails(address lender)... */\n    tag_89:\n      sub(shl(0xa0, 0x01), 0x01)\n        /* \"contracts/contracts/protocol/PoolOrganizer.sol\":6249:6268  lenderPools[lender] */\n      dup2\n      and\n        /* \"contracts/contracts/protocol/PoolOrganizer.sol\":6213:6246  address[] memory lenderPoolsArray */\n      0x00\n        /* \"contracts/contracts/protocol/PoolOrganizer.sol\":6249:6268  lenderPools[lender] */\n      swap1\n      dup2\n      mstore\n        /* \"contracts/contracts/protocol/PoolOrganizer.sol\":6249:6260  lenderPools */\n      0x05\n        /* \"contracts/contracts/protocol/PoolOrganizer.sol\":6249:6268  lenderPools[lender] */\n      0x20\n      swap1\n      dup2\n      mstore\n      0x40\n      dup1\n      dup4\n      keccak256\n        /* \"contracts/contracts/protocol/PoolOrganizer.sol\":6213:6268  address[] memory lenderPoolsArray = lenderPools[lender] */\n      dup1\n      sload\n      dup3\n      mload\n      dup2\n      dup6\n      mul\n      dup2\n      add\n      dup6\n      add\n      swap1\n      swap4\n      mstore\n      dup1\n      dup4\n      mstore\n        /* \"contracts/contracts/protocol/PoolOrganizer.sol\":6162:6197  IPoolOrganizer.PoolDetails[] memory */\n      0x60\n      swap5\n        /* \"contracts/contracts/protocol/PoolOrganizer.sol\":6213:6246  address[] memory lenderPoolsArray */\n      swap4\n        /* \"contracts/contracts/protocol/PoolOrganizer.sol\":6213:6268  address[] memory lenderPoolsArray = lenderPools[lender] */\n      dup4\n      add\n        /* \"contracts/contracts/protocol/PoolOrganizer.sol\":6249:6268  lenderPools[lender] */\n      dup3\n        /* \"contracts/contracts/protocol/PoolOrganizer.sol\":6213:6268  address[] memory lenderPoolsArray = lenderPools[lender] */\n      dup3\n      dup1\n      iszero\n      tag_224\n      jumpi\n      0x20\n      mul\n      dup3\n      add\n      swap2\n      swap1\n      0x00\n      mstore\n      keccak256(0x00, 0x20)\n      swap1\n    tag_225:\n      dup2\n      sload\n      sub(shl(0xa0, 0x01), 0x01)\n      and\n      dup2\n      mstore\n      0x01\n      swap1\n      swap2\n      add\n      swap1\n      0x20\n      add\n      dup1\n      dup4\n      gt\n      tag_225\n      jumpi\n    tag_224:\n      pop\n      pop\n      pop\n      pop\n      pop\n      swap1\n      pop\n        /* \"contracts/contracts/protocol/PoolOrganizer.sol\":6278:6333  IPoolOrganizer.PoolDetails[]... */\n      0x00\n        /* \"contracts/contracts/protocol/PoolOrganizer.sol\":6386:6402  lenderPoolsArray */\n      dup2\n        /* \"contracts/contracts/protocol/PoolOrganizer.sol\":6386:6409  lenderPoolsArray.length */\n      mload\n        /* \"contracts/contracts/protocol/PoolOrganizer.sol\":6336:6423  new IPoolOrganizer.PoolDetails[](... */\n      0xffffffffffffffff\n      dup2\n      gt\n      iszero\n      tag_227\n      jumpi\n      tag_227\n      tag_228\n      jump\t// in\n    tag_227:\n      mload(0x40)\n      swap1\n      dup1\n      dup3\n      mstore\n      dup1\n      0x20\n      mul\n      0x20\n      add\n      dup3\n      add\n      0x40\n      mstore\n      dup1\n      iszero\n      tag_229\n      jumpi\n      dup2\n      0x20\n      add\n    tag_230:\n      tag_231\n      tag_232\n      jump\t// in\n    tag_231:\n      dup2\n      mstore\n      0x20\n      add\n      swap1\n      0x01\n      swap1\n      sub\n      swap1\n      dup2\n      tag_230\n      jumpi\n      swap1\n      pop\n    tag_229:\n      pop\n        /* \"contracts/contracts/protocol/PoolOrganizer.sol\":6278:6423  IPoolOrganizer.PoolDetails[]... */\n      swap1\n      pop\n        /* \"contracts/contracts/protocol/PoolOrganizer.sol\":6439:6448  uint256 i */\n      0x00\n        /* \"contracts/contracts/protocol/PoolOrganizer.sol\":6434:6558  for (uint256 i = 0; i < lenderPoolsArray.length; i++) {... */\n    tag_233:\n        /* \"contracts/contracts/protocol/PoolOrganizer.sol\":6458:6474  lenderPoolsArray */\n      dup3\n        /* \"contracts/contracts/protocol/PoolOrganizer.sol\":6458:6481  lenderPoolsArray.length */\n      mload\n        /* \"contracts/contracts/protocol/PoolOrganizer.sol\":6454:6455  i */\n      dup2\n        /* \"contracts/contracts/protocol/PoolOrganizer.sol\":6454:6481  i < lenderPoolsArray.length */\n      lt\n        /* \"contracts/contracts/protocol/PoolOrganizer.sol\":6434:6558  for (uint256 i = 0; i < lenderPoolsArray.length; i++) {... */\n      iszero\n      tag_234\n      jumpi\n        /* \"contracts/contracts/protocol/PoolOrganizer.sol\":6515:6526  poolDetails */\n      0x04\n        /* \"contracts/contracts/protocol/PoolOrganizer.sol\":6515:6547  poolDetails[lenderPoolsArray[i]] */\n      0x00\n        /* \"contracts/contracts/protocol/PoolOrganizer.sol\":6527:6543  lenderPoolsArray */\n      dup5\n        /* \"contracts/contracts/protocol/PoolOrganizer.sol\":6544:6545  i */\n      dup4\n        /* \"contracts/contracts/protocol/PoolOrganizer.sol\":6527:6546  lenderPoolsArray[i] */\n      dup2\n      mload\n      dup2\n      lt\n      tag_237\n      jumpi\n      tag_237\n      tag_238\n      jump\t// in\n    tag_237:\n      0x20\n      swap1\n      dup2\n      mul\n      swap2\n      swap1\n      swap2\n      add\n      dup2\n      add\n      mload\n      sub(shl(0xa0, 0x01), 0x01)\n        /* \"contracts/contracts/protocol/PoolOrganizer.sol\":6515:6547  poolDetails[lenderPoolsArray[i]] */\n      swap1\n      dup2\n      and\n      dup4\n      mstore\n      dup3\n      dup3\n      add\n      swap4\n      swap1\n      swap4\n      mstore\n      0x40\n      swap2\n      dup3\n      add\n      0x00\n      keccak256\n        /* \"contracts/contracts/protocol/PoolOrganizer.sol\":6502:6547  details[i] = poolDetails[lenderPoolsArray[i]] */\n      dup3\n      mload\n      0x01c0\n      dup2\n      add\n      dup5\n      mstore\n      dup2\n      sload\n      dup6\n      and\n      dup2\n      mstore\n      0x01\n      dup1\n      dup4\n      add\n      sload\n      dup7\n      and\n      swap4\n      dup3\n      add\n      swap4\n      swap1\n      swap4\n      mstore\n      0x02\n      dup3\n      add\n      sload\n      swap4\n      dup2\n      add\n      swap4\n      swap1\n      swap4\n      mstore\n      0x03\n      dup2\n      add\n      sload\n      dup5\n      and\n      0x60\n      dup5\n      add\n      mstore\n      0x04\n      dup2\n      add\n      sload\n      dup5\n      and\n      0x80\n      dup5\n      add\n      mstore\n      0x05\n      dup2\n      add\n      sload\n      dup5\n      and\n      0xa0\n      dup5\n      add\n      mstore\n      0x06\n      dup2\n      add\n      sload\n      swap1\n      swap4\n      and\n      0xc0\n      dup4\n      add\n      mstore\n      0x07\n      dup4\n      add\n      sload\n      0xe0\n      dup4\n      add\n      mstore\n      0x08\n      dup4\n      add\n      sload\n      0x0100\n      dup4\n      add\n      mstore\n      0x09\n      dup4\n      add\n      sload\n      0x0120\n      dup4\n      add\n      mstore\n      0x0a\n      dup4\n      add\n      sload\n      swap2\n      swap3\n        /* \"contracts/contracts/protocol/PoolOrganizer.sol\":6515:6547  poolDetails[lenderPoolsArray[i]] */\n      swap2\n        /* \"contracts/contracts/protocol/PoolOrganizer.sol\":6502:6547  details[i] = poolDetails[lenderPoolsArray[i]] */\n      0x0140\n      dup5\n      add\n      swap2\n      0xff\n      swap1\n      swap2\n      and\n      swap1\n      dup2\n      gt\n      iszero\n      tag_240\n      jumpi\n      tag_240\n      tag_210\n      jump\t// in\n    tag_240:\n      0x01\n      dup2\n      gt\n      iszero\n      tag_242\n      jumpi\n      tag_242\n      tag_210\n      jump\t// in\n    tag_242:\n      dup2\n      mstore\n      0x0a\n      dup3\n      add\n      sload\n      0xff\n      0x0100\n      dup3\n      div\n      dup2\n      and\n      iszero\n      iszero\n      0x20\n      dup5\n      add\n      mstore\n      0x40\n      swap1\n      swap3\n      add\n      swap2\n      0x010000\n      swap1\n      swap2\n      div\n      and\n      0x06\n      dup2\n      gt\n      iszero\n      tag_244\n      jumpi\n      tag_244\n      tag_210\n      jump\t// in\n    tag_244:\n      0x06\n      dup2\n      gt\n      iszero\n      tag_246\n      jumpi\n      tag_246\n      tag_210\n      jump\t// in\n    tag_246:\n      dup2\n      mstore\n      0x0a\n      swap2\n      swap1\n      swap2\n      add\n      sload\n      0x01000000\n      swap1\n      div\n      sub(shl(0xa0, 0x01), 0x01)\n      and\n      0x20\n      swap1\n      swap2\n      add\n      mstore\n        /* \"contracts/contracts/protocol/PoolOrganizer.sol\":6502:6512  details[i] */\n      dup3\n      mload\n      dup4\n      swap1\n        /* \"contracts/contracts/protocol/PoolOrganizer.sol\":6510:6511  i */\n      dup4\n      swap1\n        /* \"contracts/contracts/protocol/PoolOrganizer.sol\":6502:6512  details[i] */\n      dup2\n      lt\n      tag_248\n      jumpi\n      tag_248\n      tag_238\n      jump\t// in\n    tag_248:\n      0x20\n      swap1\n      dup2\n      mul\n      swap2\n      swap1\n      swap2\n      add\n      add\n        /* \"contracts/contracts/protocol/PoolOrganizer.sol\":6502:6547  details[i] = poolDetails[lenderPoolsArray[i]] */\n      mstore\n        /* \"contracts/contracts/protocol/PoolOrganizer.sol\":6483:6486  i++ */\n      0x01\n      add\n        /* \"contracts/contracts/protocol/PoolOrganizer.sol\":6434:6558  for (uint256 i = 0; i < lenderPoolsArray.length; i++) {... */\n      jump(tag_233)\n    tag_234:\n      pop\n        /* \"contracts/contracts/protocol/PoolOrganizer.sol\":6574:6581  details */\n      swap4\n        /* \"contracts/contracts/protocol/PoolOrganizer.sol\":6066:6588  function getAllLenderPoolDetails(address lender)... */\n      swap3\n      pop\n      pop\n      pop\n      jump\t// out\n        /* \"contracts/contracts/protocol/PoolOrganizer.sol\":11862:12157  function grantFactoryAccess(address factoryAddress) external {... */\n    tag_97:\n        /* \"contracts/contracts/protocol/PoolOrganizer.sol\":11954:11993  hasRole(DEFAULT_ADMIN_ROLE, msg.sender) */\n      tag_250\n        /* \"@openzeppelin/contracts/access/AccessControl.sol\":2232:2236  0x00 */\n      0x00\n        /* \"contracts/contracts/protocol/PoolOrganizer.sol\":11982:11992  msg.sender */\n      caller\n        /* \"contracts/contracts/protocol/PoolOrganizer.sol\":11954:11961  hasRole */\n      tag_111\n        /* \"contracts/contracts/protocol/PoolOrganizer.sol\":11954:11993  hasRole(DEFAULT_ADMIN_ROLE, msg.sender) */\n      jump\t// in\n    tag_250:\n        /* \"contracts/contracts/protocol/PoolOrganizer.sol\":11933:12041  require(... */\n      tag_251\n      jumpi\n      mload(0x40)\n      shl(0xe5, 0x461bcd)\n      dup2\n      mstore\n        /* \"#utility.yul\":12369:12371   */\n      0x20\n        /* \"contracts/contracts/protocol/PoolOrganizer.sol\":11933:12041  require(... */\n      0x04\n      dup3\n      add\n        /* \"#utility.yul\":12351:12372   */\n      mstore\n        /* \"#utility.yul\":12408:12410   */\n      0x16\n        /* \"#utility.yul\":12388:12406   */\n      0x24\n      dup3\n      add\n        /* \"#utility.yul\":12381:12411   */\n      mstore\n      shl(0x51, 0x21b0b63632b91034b9903737ba1030b71030b236b4b7)\n        /* \"#utility.yul\":12427:12445   */\n      0x44\n      dup3\n      add\n        /* \"#utility.yul\":12420:12472   */\n      mstore\n        /* \"#utility.yul\":12489:12507   */\n      0x64\n      add\n        /* \"contracts/contracts/protocol/PoolOrganizer.sol\":11933:12041  require(... */\n      tag_162\n        /* \"#utility.yul\":12167:12513   */\n      jump\n        /* \"contracts/contracts/protocol/PoolOrganizer.sol\":11933:12041  require(... */\n    tag_251:\n        /* \"contracts/contracts/protocol/PoolOrganizer.sol\":12051:12095  grantRole(POOL_MANAGER_ROLE, factoryAddress) */\n      tag_254\n        /* \"contracts/contracts/protocol/PoolOrganizer.sol\":534:564  keccak256(\"POOL_MANAGER_ROLE\") */\n      0x6077685936c8169d09204a1d97db12e41713588c38e1d29a61867d3dcee98aff\n        /* \"contracts/contracts/protocol/PoolOrganizer.sol\":12080:12094  factoryAddress */\n      dup3\n        /* \"contracts/contracts/protocol/PoolOrganizer.sol\":12051:12060  grantRole */\n      tag_76\n        /* \"contracts/contracts/protocol/PoolOrganizer.sol\":12051:12095  grantRole(POOL_MANAGER_ROLE, factoryAddress) */\n      jump\t// in\n    tag_254:\n        /* \"contracts/contracts/protocol/PoolOrganizer.sol\":12105:12150  grantRole(DEFAULT_ADMIN_ROLE, factoryAddress) */\n      tag_255\n        /* \"@openzeppelin/contracts/access/AccessControl.sol\":2232:2236  0x00 */\n      0x00\n        /* \"contracts/contracts/protocol/PoolOrganizer.sol\":12135:12149  factoryAddress */\n      dup3\n        /* \"contracts/contracts/protocol/PoolOrganizer.sol\":12105:12114  grantRole */\n      tag_76\n        /* \"contracts/contracts/protocol/PoolOrganizer.sol\":12105:12150  grantRole(DEFAULT_ADMIN_ROLE, factoryAddress) */\n      jump\t// in\n    tag_255:\n        /* \"contracts/contracts/protocol/PoolOrganizer.sol\":11862:12157  function grantFactoryAccess(address factoryAddress) external {... */\n      pop\n      jump\t// out\n        /* \"contracts/contracts/protocol/PoolOrganizer.sol\":11270:11503  function getVaultForPool(address pool) external view returns (address) {... */\n    tag_100:\n      sub(shl(0xa0, 0x01), 0x01)\n        /* \"contracts/contracts/protocol/PoolOrganizer.sol\":11372:11388  poolVaults[pool] */\n      dup2\n      dup2\n      and\n        /* \"contracts/contracts/protocol/PoolOrganizer.sol\":11332:11339  address */\n      0x00\n        /* \"contracts/contracts/protocol/PoolOrganizer.sol\":11372:11388  poolVaults[pool] */\n      swap1\n      dup2\n      mstore\n        /* \"contracts/contracts/protocol/PoolOrganizer.sol\":11372:11382  poolVaults */\n      0x06\n        /* \"contracts/contracts/protocol/PoolOrganizer.sol\":11372:11388  poolVaults[pool] */\n      0x20\n      mstore\n      0x40\n      dup2\n      keccak256\n      sload\n        /* \"contracts/contracts/protocol/PoolOrganizer.sol\":11332:11339  address */\n      swap1\n      swap2\n        /* \"contracts/contracts/protocol/PoolOrganizer.sol\":11372:11388  poolVaults[pool] */\n      and\n        /* \"contracts/contracts/protocol/PoolOrganizer.sol\":11351:11463  require(... */\n      tag_257\n      jumpi\n      mload(0x40)\n      shl(0xe5, 0x461bcd)\n      dup2\n      mstore\n        /* \"#utility.yul\":12720:12722   */\n      0x20\n        /* \"contracts/contracts/protocol/PoolOrganizer.sol\":11351:11463  require(... */\n      0x04\n      dup3\n      add\n        /* \"#utility.yul\":12702:12723   */\n      mstore\n        /* \"#utility.yul\":12759:12761   */\n      0x23\n        /* \"#utility.yul\":12739:12757   */\n      0x24\n      dup3\n      add\n        /* \"#utility.yul\":12732:12762   */\n      mstore\n        /* \"#utility.yul\":12798:12832   */\n      0x506f6f6c206e6f742072656769737465726564206f7220686173206e6f207661\n        /* \"#utility.yul\":12778:12796   */\n      0x44\n      dup3\n      add\n        /* \"#utility.yul\":12771:12833   */\n      mstore\n      shl(0xea, 0x1d5b1d)\n        /* \"#utility.yul\":12849:12867   */\n      0x64\n      dup3\n      add\n        /* \"#utility.yul\":12842:12875   */\n      mstore\n        /* \"#utility.yul\":12892:12911   */\n      0x84\n      add\n        /* \"contracts/contracts/protocol/PoolOrganizer.sol\":11351:11463  require(... */\n      tag_162\n        /* \"#utility.yul\":12518:12917   */\n      jump\n        /* \"contracts/contracts/protocol/PoolOrganizer.sol\":11351:11463  require(... */\n    tag_257:\n      pop\n      sub(shl(0xa0, 0x01), 0x01)\n        /* \"contracts/contracts/protocol/PoolOrganizer.sol\":11480:11496  poolVaults[pool] */\n      swap1\n      dup2\n      and\n      0x00\n      swap1\n      dup2\n      mstore\n        /* \"contracts/contracts/protocol/PoolOrganizer.sol\":11480:11490  poolVaults */\n      0x06\n        /* \"contracts/contracts/protocol/PoolOrganizer.sol\":11480:11496  poolVaults[pool] */\n      0x20\n      mstore\n      0x40\n      swap1\n      keccak256\n      sload\n      and\n      swap1\n        /* \"contracts/contracts/protocol/PoolOrganizer.sol\":11270:11503  function getVaultForPool(address pool) external view returns (address) {... */\n      jump\t// out\n        /* \"contracts/contracts/protocol/PoolOrganizer.sol\":7844:8225  function deregisterPool(address pool) external {... */\n    tag_104:\n      sub(shl(0xa0, 0x01), 0x01)\n        /* \"contracts/contracts/protocol/PoolOrganizer.sol\":7909:7926  poolDetails[pool] */\n      dup2\n      dup2\n      and\n        /* \"contracts/contracts/protocol/PoolOrganizer.sol\":7945:7946  0 */\n      0x00\n        /* \"contracts/contracts/protocol/PoolOrganizer.sol\":7909:7926  poolDetails[pool] */\n      swap1\n      dup2\n      mstore\n        /* \"contracts/contracts/protocol/PoolOrganizer.sol\":7909:7920  poolDetails */\n      0x04\n        /* \"contracts/contracts/protocol/PoolOrganizer.sol\":7909:7926  poolDetails[pool] */\n      0x20\n      mstore\n      0x40\n      swap1\n      keccak256\n        /* \"contracts/contracts/protocol/PoolOrganizer.sol\":7909:7933  poolDetails[pool].lender */\n      sload\n      and\n        /* \"contracts/contracts/protocol/PoolOrganizer.sol\":7901:7971  require(poolDetails[pool].lender != address(0), \"Pool not registered\") */\n      tag_261\n      jumpi\n      mload(0x40)\n      shl(0xe5, 0x461bcd)\n      dup2\n      mstore\n      0x04\n      add\n      tag_162\n      swap1\n      tag_166\n      jump\t// in\n    tag_261:\n      sub(shl(0xa0, 0x01), 0x01)\n        /* \"contracts/contracts/protocol/PoolOrganizer.sol\":7999:8016  poolDetails[pool] */\n      dup1\n      dup3\n      and\n        /* \"contracts/contracts/protocol/PoolOrganizer.sol\":7982:7996  address lender */\n      0x00\n        /* \"contracts/contracts/protocol/PoolOrganizer.sol\":7999:8016  poolDetails[pool] */\n      swap1\n      dup2\n      mstore\n        /* \"contracts/contracts/protocol/PoolOrganizer.sol\":7999:8010  poolDetails */\n      0x04\n        /* \"contracts/contracts/protocol/PoolOrganizer.sol\":7999:8016  poolDetails[pool] */\n      0x20\n      mstore\n      0x40\n      swap1\n      keccak256\n        /* \"contracts/contracts/protocol/PoolOrganizer.sol\":7999:8023  poolDetails[pool].lender */\n      sload\n      and\n        /* \"contracts/contracts/protocol/PoolOrganizer.sol\":8033:8073  _removePoolFromLenderArray(lender, pool) */\n      tag_263\n        /* \"contracts/contracts/protocol/PoolOrganizer.sol\":7999:8023  poolDetails[pool].lender */\n      dup2\n        /* \"contracts/contracts/protocol/PoolOrganizer.sol\":8011:8015  pool */\n      dup4\n        /* \"contracts/contracts/protocol/PoolOrganizer.sol\":8033:8059  _removePoolFromLenderArray */\n      tag_264\n        /* \"contracts/contracts/protocol/PoolOrganizer.sol\":8033:8073  _removePoolFromLenderArray(lender, pool) */\n      jump\t// in\n    tag_263:\n        /* \"contracts/contracts/protocol/PoolOrganizer.sol\":8083:8113  _removePoolFromMainArray(pool) */\n      tag_265\n        /* \"contracts/contracts/protocol/PoolOrganizer.sol\":8108:8112  pool */\n      dup3\n        /* \"contracts/contracts/protocol/PoolOrganizer.sol\":8083:8107  _removePoolFromMainArray */\n      tag_266\n        /* \"contracts/contracts/protocol/PoolOrganizer.sol\":8083:8113  _removePoolFromMainArray(pool) */\n      jump\t// in\n    tag_265:\n      sub(shl(0xa0, 0x01), 0x01)\n        /* \"contracts/contracts/protocol/PoolOrganizer.sol\":8131:8148  poolDetails[pool] */\n      dup3\n      and\n      0x00\n      dup2\n      dup2\n      mstore\n        /* \"contracts/contracts/protocol/PoolOrganizer.sol\":8131:8142  poolDetails */\n      0x04\n        /* \"contracts/contracts/protocol/PoolOrganizer.sol\":8131:8148  poolDetails[pool] */\n      0x20\n      dup2\n      dup2\n      mstore\n      0x40\n      dup1\n      dup5\n      keccak256\n        /* \"contracts/contracts/protocol/PoolOrganizer.sol\":8124:8148  delete poolDetails[pool] */\n      dup1\n      sload\n      not(sub(shl(0xa0, 0x01), 0x01))\n      swap1\n      dup2\n      and\n      dup3\n      sstore\n      0x01\n      dup3\n      add\n      dup1\n      sload\n      dup3\n      and\n      swap1\n      sstore\n      0x02\n      dup3\n      add\n      dup7\n      swap1\n      sstore\n      0x03\n      dup3\n      add\n      dup1\n      sload\n      dup3\n      and\n      swap1\n      sstore\n      swap4\n      dup2\n      add\n      dup1\n      sload\n      dup6\n      and\n      swap1\n      sstore\n      0x05\n      dup2\n      add\n      dup1\n      sload\n      dup6\n      and\n      swap1\n      sstore\n      0x06\n      dup2\n      add\n      dup1\n      sload\n      swap1\n      swap5\n      and\n      swap1\n      swap4\n      sstore\n      0x07\n      dup4\n      add\n      dup5\n      swap1\n      sstore\n      0x08\n      dup1\n      dup5\n      add\n      dup6\n      swap1\n      sstore\n      0x09\n      dup5\n      add\n      dup6\n      swap1\n      sstore\n      0x0a\n      swap1\n      swap4\n      add\n      dup1\n      sload\n      not(sub(shl(0xb8, 0x01), 0x01))\n      and\n      swap1\n      sstore\n        /* \"contracts/contracts/protocol/PoolOrganizer.sol\":8165:8181  loanStates[pool] */\n      swap2\n      swap1\n      mstore\n      dup1\n      dup3\n      keccak256\n        /* \"contracts/contracts/protocol/PoolOrganizer.sol\":8158:8181  delete loanStates[pool] */\n      dup1\n      sload\n      not(0xff)\n      and\n      swap1\n      sstore\n        /* \"contracts/contracts/protocol/PoolOrganizer.sol\":8196:8218  PoolDeregistered(pool) */\n      mload\n      0x334d0b2111287dfddebe4b4c1c5af3ae644909d7fcd024377bf601e236ed5abb\n      swap2\n        /* \"contracts/contracts/protocol/PoolOrganizer.sol\":8131:8148  poolDetails[pool] */\n      swap1\n        /* \"contracts/contracts/protocol/PoolOrganizer.sol\":8196:8218  PoolDeregistered(pool) */\n      log2\n        /* \"contracts/contracts/protocol/PoolOrganizer.sol\":7891:8225  {... */\n      pop\n        /* \"contracts/contracts/protocol/PoolOrganizer.sol\":7844:8225  function deregisterPool(address pool) external {... */\n      pop\n      jump\t// out\n        /* \"@openzeppelin/contracts/access/AccessControl.sol\":2854:2990  function hasRole(bytes32 role, address account) public view virtual returns (bool) {... */\n    tag_111:\n        /* \"@openzeppelin/contracts/access/AccessControl.sol\":2931:2935  bool */\n      0x00\n        /* \"@openzeppelin/contracts/access/AccessControl.sol\":2954:2966  _roles[role] */\n      swap2\n      dup3\n      mstore\n      0x20\n      dup3\n      dup2\n      mstore\n      0x40\n      dup1\n      dup5\n      keccak256\n      sub(shl(0xa0, 0x01), 0x01)\n        /* \"@openzeppelin/contracts/access/AccessControl.sol\":2954:2983  _roles[role].hasRole[account] */\n      swap4\n      swap1\n      swap4\n      and\n      dup5\n      mstore\n      swap2\n      swap1\n      mstore\n      swap1\n      keccak256\n      sload\n      0xff\n      and\n      swap1\n        /* \"@openzeppelin/contracts/access/AccessControl.sol\":2854:2990  function hasRole(bytes32 role, address account) public view virtual returns (bool) {... */\n      jump\t// out\n        /* \"contracts/contracts/protocol/PoolOrganizer.sol\":4950:5246  function updateLoanState(address pool, LoanState newState) external {... */\n    tag_123:\n      sub(shl(0xa0, 0x01), 0x01)\n        /* \"contracts/contracts/protocol/PoolOrganizer.sol\":5036:5053  poolDetails[pool] */\n      dup3\n      dup2\n      and\n        /* \"contracts/contracts/protocol/PoolOrganizer.sol\":5072:5073  0 */\n      0x00\n        /* \"contracts/contracts/protocol/PoolOrganizer.sol\":5036:5053  poolDetails[pool] */\n      swap1\n      dup2\n      mstore\n        /* \"contracts/contracts/protocol/PoolOrganizer.sol\":5036:5047  poolDetails */\n      0x04\n        /* \"contracts/contracts/protocol/PoolOrganizer.sol\":5036:5053  poolDetails[pool] */\n      0x20\n      mstore\n      0x40\n      swap1\n      keccak256\n        /* \"contracts/contracts/protocol/PoolOrganizer.sol\":5036:5060  poolDetails[pool].lender */\n      sload\n      and\n        /* \"contracts/contracts/protocol/PoolOrganizer.sol\":5028:5098  require(poolDetails[pool].lender != address(0), \"Pool not registered\") */\n      tag_270\n      jumpi\n      mload(0x40)\n      shl(0xe5, 0x461bcd)\n      dup2\n      mstore\n      0x04\n      add\n      tag_162\n      swap1\n      tag_166\n      jump\t// in\n    tag_270:\n      sub(shl(0xa0, 0x01), 0x01)\n        /* \"contracts/contracts/protocol/PoolOrganizer.sol\":5129:5145  loanStates[pool] */\n      dup3\n      and\n        /* \"contracts/contracts/protocol/PoolOrganizer.sol\":5108:5126  LoanState oldState */\n      0x00\n        /* \"contracts/contracts/protocol/PoolOrganizer.sol\":5129:5145  loanStates[pool] */\n      swap1\n      dup2\n      mstore\n        /* \"contracts/contracts/protocol/PoolOrganizer.sol\":5129:5139  loanStates */\n      0x08\n        /* \"contracts/contracts/protocol/PoolOrganizer.sol\":5129:5145  loanStates[pool] */\n      0x20\n      mstore\n      0x40\n      swap1\n      keccak256\n      dup1\n      sload\n      0xff\n      dup2\n      and\n      swap2\n        /* \"contracts/contracts/protocol/PoolOrganizer.sol\":5174:5182  newState */\n      dup4\n      swap2\n      not(0xff)\n        /* \"contracts/contracts/protocol/PoolOrganizer.sol\":5155:5182  loanStates[pool] = newState */\n      and\n        /* \"contracts/contracts/protocol/PoolOrganizer.sol\":5129:5145  loanStates[pool] */\n      0x01\n        /* \"contracts/contracts/protocol/PoolOrganizer.sol\":5174:5182  newState */\n      dup4\n        /* \"contracts/contracts/protocol/PoolOrganizer.sol\":5155:5182  loanStates[pool] = newState */\n      0x06\n      dup2\n      gt\n      iszero\n      tag_273\n      jumpi\n      tag_273\n      tag_210\n      jump\t// in\n    tag_273:\n      mul\n      or\n      swap1\n      sstore\n      pop\n        /* \"contracts/contracts/protocol/PoolOrganizer.sol\":5214:5218  pool */\n      dup3\n      sub(shl(0xa0, 0x01), 0x01)\n        /* \"contracts/contracts/protocol/PoolOrganizer.sol\":5197:5239  LoanStateUpdated(pool, oldState, newState) */\n      and\n      0x0a61679a80e33b8ccd7049ed35b83f875349aa2875ef98ce5ba441a88761fb4e\n        /* \"contracts/contracts/protocol/PoolOrganizer.sol\":5220:5228  oldState */\n      dup3\n        /* \"contracts/contracts/protocol/PoolOrganizer.sol\":5230:5238  newState */\n      dup5\n        /* \"contracts/contracts/protocol/PoolOrganizer.sol\":5197:5239  LoanStateUpdated(pool, oldState, newState) */\n      mload(0x40)\n      tag_274\n      swap3\n      swap2\n      swap1\n      tag_275\n      jump\t// in\n    tag_274:\n      mload(0x40)\n      dup1\n      swap2\n      sub\n      swap1\n      log2\n        /* \"contracts/contracts/protocol/PoolOrganizer.sol\":5018:5246  {... */\n      pop\n        /* \"contracts/contracts/protocol/PoolOrganizer.sol\":4950:5246  function updateLoanState(address pool, LoanState newState) external {... */\n      pop\n      pop\n      jump\t// out\n        /* \"contracts/contracts/protocol/PoolOrganizer.sol\":9325:9877  function registerManagers(address _vaultManager, address _rewardManager)... */\n    tag_126:\n        /* \"@openzeppelin/contracts/access/AccessControl.sol\":2232:2236  0x00 */\n      0x00\n        /* \"@openzeppelin/contracts/access/AccessControl.sol\":2464:2480  _checkRole(role) */\n      tag_277\n        /* \"@openzeppelin/contracts/access/AccessControl.sol\":2232:2236  0x00 */\n      dup2\n        /* \"@openzeppelin/contracts/access/AccessControl.sol\":2464:2474  _checkRole */\n      tag_180\n        /* \"@openzeppelin/contracts/access/AccessControl.sol\":2464:2480  _checkRole(role) */\n      jump\t// in\n    tag_277:\n      sub(shl(0xa0, 0x01), 0x01)\n        /* \"contracts/contracts/protocol/PoolOrganizer.sol\":9487:9514  _vaultManager != address(0) */\n      dup4\n      and\n        /* \"contracts/contracts/protocol/PoolOrganizer.sol\":9466:9575  require(... */\n      tag_279\n      jumpi\n      mload(0x40)\n      shl(0xe5, 0x461bcd)\n      dup2\n      mstore\n        /* \"#utility.yul\":13437:13439   */\n      0x20\n        /* \"contracts/contracts/protocol/PoolOrganizer.sol\":9466:9575  require(... */\n      0x04\n      dup3\n      add\n        /* \"#utility.yul\":13419:13440   */\n      mstore\n        /* \"#utility.yul\":13476:13478   */\n      0x23\n        /* \"#utility.yul\":13456:13474   */\n      0x24\n      dup3\n      add\n        /* \"#utility.yul\":13449:13479   */\n      mstore\n        /* \"#utility.yul\":13515:13549   */\n      0x5661756c744d616e616765722063616e6e6f74206265207a65726f2061646472\n        /* \"#utility.yul\":13495:13513   */\n      0x44\n      dup3\n      add\n        /* \"#utility.yul\":13488:13550   */\n      mstore\n      shl(0xe8, 0x657373)\n        /* \"#utility.yul\":13566:13584   */\n      0x64\n      dup3\n      add\n        /* \"#utility.yul\":13559:13592   */\n      mstore\n        /* \"#utility.yul\":13609:13628   */\n      0x84\n      add\n        /* \"contracts/contracts/protocol/PoolOrganizer.sol\":9466:9575  require(... */\n      tag_162\n        /* \"#utility.yul\":13235:13634   */\n      jump\n        /* \"contracts/contracts/protocol/PoolOrganizer.sol\":9466:9575  require(... */\n    tag_279:\n      sub(shl(0xa0, 0x01), 0x01)\n        /* \"contracts/contracts/protocol/PoolOrganizer.sol\":9606:9634  _rewardManager != address(0) */\n      dup3\n      and\n        /* \"contracts/contracts/protocol/PoolOrganizer.sol\":9585:9696  require(... */\n      tag_282\n      jumpi\n      mload(0x40)\n      shl(0xe5, 0x461bcd)\n      dup2\n      mstore\n        /* \"#utility.yul\":13841:13843   */\n      0x20\n        /* \"contracts/contracts/protocol/PoolOrganizer.sol\":9585:9696  require(... */\n      0x04\n      dup3\n      add\n        /* \"#utility.yul\":13823:13844   */\n      mstore\n        /* \"#utility.yul\":13880:13882   */\n      0x24\n        /* \"#utility.yul\":13860:13878   */\n      dup1\n      dup3\n      add\n        /* \"#utility.yul\":13853:13883   */\n      mstore\n        /* \"#utility.yul\":13919:13953   */\n      0x5265776172644d616e616765722063616e6e6f74206265207a65726f20616464\n        /* \"#utility.yul\":13899:13917   */\n      0x44\n      dup3\n      add\n        /* \"#utility.yul\":13892:13954   */\n      mstore\n      shl(0xe0, 0x72657373)\n        /* \"#utility.yul\":13970:13988   */\n      0x64\n      dup3\n      add\n        /* \"#utility.yul\":13963:13997   */\n      mstore\n        /* \"#utility.yul\":14014:14033   */\n      0x84\n      add\n        /* \"contracts/contracts/protocol/PoolOrganizer.sol\":9585:9696  require(... */\n      tag_162\n        /* \"#utility.yul\":13639:14039   */\n      jump\n        /* \"contracts/contracts/protocol/PoolOrganizer.sol\":9585:9696  require(... */\n    tag_282:\n        /* \"contracts/contracts/protocol/PoolOrganizer.sol\":9707:9719  vaultManager */\n      0x01\n        /* \"contracts/contracts/protocol/PoolOrganizer.sol\":9707:9750  vaultManager = IVaultManager(_vaultManager) */\n      dup1\n      sload\n      sub(shl(0xa0, 0x01), 0x01)\n      dup6\n      dup2\n      and\n      not(sub(shl(0xa0, 0x01), 0x01))\n      swap3\n      dup4\n      and\n      dup2\n      or\n      swap1\n      swap4\n      sstore\n        /* \"contracts/contracts/protocol/PoolOrganizer.sol\":9760:9773  rewardManager */\n      0x02\n        /* \"contracts/contracts/protocol/PoolOrganizer.sol\":9760:9806  rewardManager = IRewardManager(_rewardManager) */\n      dup1\n      sload\n      swap2\n      dup7\n      and\n      swap2\n      swap1\n      swap3\n      and\n      dup2\n      or\n      swap1\n      swap2\n      sstore\n        /* \"contracts/contracts/protocol/PoolOrganizer.sol\":9822:9870  ManagerRegistered(_vaultManager, _rewardManager) */\n      0x40\n      dup1\n      mload\n        /* \"#utility.yul\":8181:8232   */\n      swap3\n      dup4\n      mstore\n        /* \"#utility.yul\":8263:8265   */\n      0x20\n        /* \"#utility.yul\":8248:8266   */\n      dup4\n      add\n        /* \"#utility.yul\":8241:8301   */\n      swap2\n      swap1\n      swap2\n      mstore\n        /* \"contracts/contracts/protocol/PoolOrganizer.sol\":9822:9870  ManagerRegistered(_vaultManager, _rewardManager) */\n      0x8fc18cc172f74c81235145b7927190d2bd0e351fc45bfb17bb572593273cef21\n      swap2\n        /* \"#utility.yul\":8154:8172   */\n      add\n        /* \"contracts/contracts/protocol/PoolOrganizer.sol\":9822:9870  ManagerRegistered(_vaultManager, _rewardManager) */\n      mload(0x40)\n      dup1\n      swap2\n      sub\n      swap1\n      log1\n        /* \"contracts/contracts/protocol/PoolOrganizer.sol\":9325:9877  function registerManagers(address _vaultManager, address _rewardManager)... */\n      pop\n      pop\n      pop\n      jump\t// out\n        /* \"contracts/contracts/protocol/PoolOrganizer.sol\":11619:11720  function getAllPoolAddresses() external view returns (address[] memory) {... */\n    tag_128:\n        /* \"contracts/contracts/protocol/PoolOrganizer.sol\":11673:11689  address[] memory */\n      0x60\n        /* \"contracts/contracts/protocol/PoolOrganizer.sol\":11708:11713  pools */\n      0x03\n        /* \"contracts/contracts/protocol/PoolOrganizer.sol\":11701:11713  return pools */\n      dup1\n      sload\n      dup1\n      0x20\n      mul\n      0x20\n      add\n      mload(0x40)\n      swap1\n      dup2\n      add\n      0x40\n      mstore\n      dup1\n      swap3\n      swap2\n      swap1\n      dup2\n      dup2\n      mstore\n      0x20\n      add\n      dup3\n      dup1\n      sload\n      dup1\n      iszero\n      tag_287\n      jumpi\n      0x20\n      mul\n      dup3\n      add\n      swap2\n      swap1\n      0x00\n      mstore\n      keccak256(0x00, 0x20)\n      swap1\n    tag_288:\n      dup2\n      sload\n      sub(shl(0xa0, 0x01), 0x01)\n      and\n      dup2\n      mstore\n      0x01\n      swap1\n      swap2\n      add\n      swap1\n      0x20\n      add\n      dup1\n      dup4\n      gt\n      tag_288\n      jumpi\n    tag_287:\n      pop\n      pop\n      pop\n      pop\n      pop\n      swap1\n      pop\n        /* \"contracts/contracts/protocol/PoolOrganizer.sol\":11619:11720  function getAllPoolAddresses() external view returns (address[] memory) {... */\n      swap1\n      jump\t// out\n        /* \"contracts/contracts/protocol/PoolOrganizer.sol\":10856:11101  function getPoolDetails(address pool)... */\n    tag_137:\n        /* \"contracts/contracts/protocol/PoolOrganizer.sol\":10941:10974  IPoolOrganizer.PoolDetails memory */\n      tag_290\n      tag_232\n      jump\t// in\n    tag_290:\n      sub(shl(0xa0, 0x01), 0x01)\n        /* \"contracts/contracts/protocol/PoolOrganizer.sol\":10998:11015  poolDetails[pool] */\n      dup3\n      dup2\n      and\n        /* \"contracts/contracts/protocol/PoolOrganizer.sol\":11034:11035  0 */\n      0x00\n        /* \"contracts/contracts/protocol/PoolOrganizer.sol\":10998:11015  poolDetails[pool] */\n      swap1\n      dup2\n      mstore\n        /* \"contracts/contracts/protocol/PoolOrganizer.sol\":10998:11009  poolDetails */\n      0x04\n        /* \"contracts/contracts/protocol/PoolOrganizer.sol\":10998:11015  poolDetails[pool] */\n      0x20\n      mstore\n      0x40\n      swap1\n      keccak256\n        /* \"contracts/contracts/protocol/PoolOrganizer.sol\":10998:11022  poolDetails[pool].lender */\n      sload\n      and\n        /* \"contracts/contracts/protocol/PoolOrganizer.sol\":10990:11060  require(poolDetails[pool].lender != address(0), \"Pool not registered\") */\n      tag_292\n      jumpi\n      mload(0x40)\n      shl(0xe5, 0x461bcd)\n      dup2\n      mstore\n      0x04\n      add\n      tag_162\n      swap1\n      tag_166\n      jump\t// in\n    tag_292:\n      sub(shl(0xa0, 0x01), 0x01)\n        /* \"contracts/contracts/protocol/PoolOrganizer.sol\":11077:11094  poolDetails[pool] */\n      dup1\n      dup4\n      and\n      0x00\n      swap1\n      dup2\n      mstore\n        /* \"contracts/contracts/protocol/PoolOrganizer.sol\":11077:11088  poolDetails */\n      0x04\n        /* \"contracts/contracts/protocol/PoolOrganizer.sol\":11077:11094  poolDetails[pool] */\n      0x20\n      dup2\n      dup2\n      mstore\n      0x40\n      swap3\n      dup4\n      swap1\n      keccak256\n        /* \"contracts/contracts/protocol/PoolOrganizer.sol\":11070:11094  return poolDetails[pool] */\n      dup4\n      mload\n      0x01c0\n      dup2\n      add\n      dup6\n      mstore\n      dup2\n      sload\n      dup7\n      and\n      dup2\n      mstore\n      0x01\n      dup1\n      dup4\n      add\n      sload\n      dup8\n      and\n      swap4\n      dup3\n      add\n      swap4\n      swap1\n      swap4\n      mstore\n      0x02\n      dup3\n      add\n      sload\n      swap5\n      dup2\n      add\n      swap5\n      swap1\n      swap5\n      mstore\n      0x03\n      dup2\n      add\n      sload\n      dup6\n      and\n      0x60\n      dup6\n      add\n      mstore\n      swap2\n      dup3\n      add\n      sload\n      dup5\n      and\n      0x80\n      dup5\n      add\n      mstore\n      0x05\n      dup3\n      add\n      sload\n      dup5\n      and\n      0xa0\n      dup5\n      add\n      mstore\n      0x06\n      dup3\n      add\n      sload\n      swap1\n      swap4\n      and\n      0xc0\n      dup4\n      add\n      mstore\n      0x07\n      dup2\n      add\n      sload\n      0xe0\n      dup4\n      add\n      mstore\n      0x08\n      dup2\n      add\n      sload\n      0x0100\n      dup4\n      add\n      mstore\n      0x09\n      dup2\n      add\n      sload\n      0x0120\n      dup4\n      add\n      mstore\n      0x0a\n      dup2\n      add\n      sload\n      swap2\n      swap3\n        /* \"contracts/contracts/protocol/PoolOrganizer.sol\":11077:11094  poolDetails[pool] */\n      swap1\n      swap2\n        /* \"contracts/contracts/protocol/PoolOrganizer.sol\":11070:11094  return poolDetails[pool] */\n      0x0140\n      dup5\n      add\n      swap2\n      0xff\n      swap1\n      swap2\n      and\n      swap1\n      dup2\n      gt\n      iszero\n      tag_295\n      jumpi\n      tag_295\n      tag_210\n      jump\t// in\n    tag_295:\n      0x01\n      dup2\n      gt\n      iszero\n      tag_297\n      jumpi\n      tag_297\n      tag_210\n      jump\t// in\n    tag_297:\n      dup2\n      mstore\n      0x0a\n      dup3\n      add\n      sload\n      0xff\n      0x0100\n      dup3\n      div\n      dup2\n      and\n      iszero\n      iszero\n      0x20\n      dup5\n      add\n      mstore\n      0x40\n      swap1\n      swap3\n      add\n      swap2\n      0x010000\n      swap1\n      swap2\n      div\n      and\n      0x06\n      dup2\n      gt\n      iszero\n      tag_299\n      jumpi\n      tag_299\n      tag_210\n      jump\t// in\n    tag_299:\n      0x06\n      dup2\n      gt\n      iszero\n      tag_301\n      jumpi\n      tag_301\n      tag_210\n      jump\t// in\n    tag_301:\n      dup2\n      mstore\n      0x0a\n      swap2\n      swap1\n      swap2\n      add\n      sload\n      0x01000000\n      swap1\n      div\n      sub(shl(0xa0, 0x01), 0x01)\n      and\n      0x20\n      swap1\n      swap2\n      add\n      mstore\n      swap3\n      swap2\n      pop\n      pop\n        /* \"contracts/contracts/protocol/PoolOrganizer.sol\":10856:11101  function getPoolDetails(address pool)... */\n      jump\t// out\n        /* \"@openzeppelin/contracts/access/AccessControl.sol\":4642:4780  function revokeRole(bytes32 role, address account) public virtual onlyRole(getRoleAdmin(role)) {... */\n    tag_146:\n        /* \"@openzeppelin/contracts/access/AccessControl.sol\":3875:3882  bytes32 */\n      0x00\n        /* \"@openzeppelin/contracts/access/AccessControl.sol\":3901:3913  _roles[role] */\n      dup3\n      dup2\n      mstore\n      0x20\n      dup2\n      swap1\n      mstore\n      0x40\n      swap1\n      keccak256\n        /* \"@openzeppelin/contracts/access/AccessControl.sol\":3901:3923  _roles[role].adminRole */\n      0x01\n      add\n      sload\n        /* \"@openzeppelin/contracts/access/AccessControl.sol\":2464:2480  _checkRole(role) */\n      tag_305\n        /* \"@openzeppelin/contracts/access/AccessControl.sol\":2475:2479  role */\n      dup2\n        /* \"@openzeppelin/contracts/access/AccessControl.sol\":2464:2474  _checkRole */\n      tag_180\n        /* \"@openzeppelin/contracts/access/AccessControl.sol\":2464:2480  _checkRole(role) */\n      jump\t// in\n    tag_305:\n        /* \"@openzeppelin/contracts/access/AccessControl.sol\":4747:4773  _revokeRole(role, account) */\n      tag_182\n        /* \"@openzeppelin/contracts/access/AccessControl.sol\":4759:4763  role */\n      dup4\n        /* \"@openzeppelin/contracts/access/AccessControl.sol\":4765:4772  account */\n      dup4\n        /* \"@openzeppelin/contracts/access/AccessControl.sol\":4747:4758  _revokeRole */\n      tag_189\n        /* \"@openzeppelin/contracts/access/AccessControl.sol\":4747:4773  _revokeRole(role, account) */\n      jump\t// in\n        /* \"contracts/contracts/protocol/PoolOrganizer.sol\":6763:6925  function getPoolsByBorrower(address borrower)... */\n    tag_149:\n      sub(shl(0xa0, 0x01), 0x01)\n        /* \"contracts/contracts/protocol/PoolOrganizer.sol\":6895:6918  borrowerPools[borrower] */\n      dup2\n      and\n      0x00\n      swap1\n      dup2\n      mstore\n        /* \"contracts/contracts/protocol/PoolOrganizer.sol\":6895:6908  borrowerPools */\n      0x07\n        /* \"contracts/contracts/protocol/PoolOrganizer.sol\":6895:6918  borrowerPools[borrower] */\n      0x20\n      swap1\n      dup2\n      mstore\n      0x40\n      swap2\n      dup3\n      swap1\n      keccak256\n        /* \"contracts/contracts/protocol/PoolOrganizer.sol\":6888:6918  return borrowerPools[borrower] */\n      dup1\n      sload\n      dup4\n      mload\n      dup2\n      dup5\n      mul\n      dup2\n      add\n      dup5\n      add\n      swap1\n      swap5\n      mstore\n      dup1\n      dup5\n      mstore\n        /* \"contracts/contracts/protocol/PoolOrganizer.sol\":6856:6872  address[] memory */\n      0x60\n      swap4\n        /* \"contracts/contracts/protocol/PoolOrganizer.sol\":6888:6918  return borrowerPools[borrower] */\n      swap3\n      dup4\n      add\n        /* \"contracts/contracts/protocol/PoolOrganizer.sol\":6895:6918  borrowerPools[borrower] */\n      dup3\n        /* \"contracts/contracts/protocol/PoolOrganizer.sol\":6888:6918  return borrowerPools[borrower] */\n      dup3\n      dup1\n      iszero\n      tag_175\n      jumpi\n      0x20\n      mul\n      dup3\n      add\n      swap2\n      swap1\n      0x00\n      mstore\n      keccak256(0x00, 0x20)\n      swap1\n      dup2\n      sload\n      sub(shl(0xa0, 0x01), 0x01)\n      and\n      dup2\n      mstore\n      0x01\n      swap1\n      swap2\n      add\n      swap1\n      0x20\n      add\n      dup1\n      dup4\n      gt\n      tag_176\n      jumpi\n      pop\n      pop\n      pop\n      pop\n      pop\n      swap1\n      pop\n        /* \"contracts/contracts/protocol/PoolOrganizer.sol\":6763:6925  function getPoolsByBorrower(address borrower)... */\n      swap2\n      swap1\n      pop\n      jump\t// out\n        /* \"contracts/contracts/protocol/PoolOrganizer.sol\":7113:7648  function getBorrowerPoolDetails(address borrower)... */\n    tag_153:\n      sub(shl(0xa0, 0x01), 0x01)\n        /* \"contracts/contracts/protocol/PoolOrganizer.sol\":7299:7322  borrowerPools[borrower] */\n      dup2\n      and\n        /* \"contracts/contracts/protocol/PoolOrganizer.sol\":7261:7296  address[] memory borrowerPoolsArray */\n      0x00\n        /* \"contracts/contracts/protocol/PoolOrganizer.sol\":7299:7322  borrowerPools[borrower] */\n      swap1\n      dup2\n      mstore\n        /* \"contracts/contracts/protocol/PoolOrganizer.sol\":7299:7312  borrowerPools */\n      0x07\n        /* \"contracts/contracts/protocol/PoolOrganizer.sol\":7299:7322  borrowerPools[borrower] */\n      0x20\n      swap1\n      dup2\n      mstore\n      0x40\n      dup1\n      dup4\n      keccak256\n        /* \"contracts/contracts/protocol/PoolOrganizer.sol\":7261:7322  address[] memory borrowerPoolsArray = borrowerPools[borrower] */\n      dup1\n      sload\n      dup3\n      mload\n      dup2\n      dup6\n      mul\n      dup2\n      add\n      dup6\n      add\n      swap1\n      swap4\n      mstore\n      dup1\n      dup4\n      mstore\n        /* \"contracts/contracts/protocol/PoolOrganizer.sol\":7210:7245  IPoolOrganizer.PoolDetails[] memory */\n      0x60\n      swap5\n        /* \"contracts/contracts/protocol/PoolOrganizer.sol\":7261:7296  address[] memory borrowerPoolsArray */\n      swap4\n        /* \"contracts/contracts/protocol/PoolOrganizer.sol\":7261:7322  address[] memory borrowerPoolsArray = borrowerPools[borrower] */\n      dup4\n      add\n        /* \"contracts/contracts/protocol/PoolOrganizer.sol\":7299:7322  borrowerPools[borrower] */\n      dup3\n        /* \"contracts/contracts/protocol/PoolOrganizer.sol\":7261:7322  address[] memory borrowerPoolsArray = borrowerPools[borrower] */\n      dup3\n      dup1\n      iszero\n      tag_312\n      jumpi\n      0x20\n      mul\n      dup3\n      add\n      swap2\n      swap1\n      0x00\n      mstore\n      keccak256(0x00, 0x20)\n      swap1\n    tag_313:\n      dup2\n      sload\n      sub(shl(0xa0, 0x01), 0x01)\n      and\n      dup2\n      mstore\n      0x01\n      swap1\n      swap2\n      add\n      swap1\n      0x20\n      add\n      dup1\n      dup4\n      gt\n      tag_313\n      jumpi\n    tag_312:\n      pop\n      pop\n      pop\n      pop\n      pop\n      swap1\n      pop\n        /* \"contracts/contracts/protocol/PoolOrganizer.sol\":7332:7387  IPoolOrganizer.PoolDetails[]... */\n      0x00\n        /* \"contracts/contracts/protocol/PoolOrganizer.sol\":7440:7458  borrowerPoolsArray */\n      dup2\n        /* \"contracts/contracts/protocol/PoolOrganizer.sol\":7440:7465  borrowerPoolsArray.length */\n      mload\n        /* \"contracts/contracts/protocol/PoolOrganizer.sol\":7390:7479  new IPoolOrganizer.PoolDetails[](... */\n      0xffffffffffffffff\n      dup2\n      gt\n      iszero\n      tag_315\n      jumpi\n      tag_315\n      tag_228\n      jump\t// in\n    tag_315:\n      mload(0x40)\n      swap1\n      dup1\n      dup3\n      mstore\n      dup1\n      0x20\n      mul\n      0x20\n      add\n      dup3\n      add\n      0x40\n      mstore\n      dup1\n      iszero\n      tag_316\n      jumpi\n      dup2\n      0x20\n      add\n    tag_317:\n      tag_318\n      tag_232\n      jump\t// in\n    tag_318:\n      dup2\n      mstore\n      0x20\n      add\n      swap1\n      0x01\n      swap1\n      sub\n      swap1\n      dup2\n      tag_317\n      jumpi\n      swap1\n      pop\n    tag_316:\n      pop\n        /* \"contracts/contracts/protocol/PoolOrganizer.sol\":7332:7479  IPoolOrganizer.PoolDetails[]... */\n      swap1\n      pop\n        /* \"contracts/contracts/protocol/PoolOrganizer.sol\":7495:7504  uint256 i */\n      0x00\n        /* \"contracts/contracts/protocol/PoolOrganizer.sol\":7490:7618  for (uint256 i = 0; i < borrowerPoolsArray.length; i++) {... */\n    tag_319:\n        /* \"contracts/contracts/protocol/PoolOrganizer.sol\":7514:7532  borrowerPoolsArray */\n      dup3\n        /* \"contracts/contracts/protocol/PoolOrganizer.sol\":7514:7539  borrowerPoolsArray.length */\n      mload\n        /* \"contracts/contracts/protocol/PoolOrganizer.sol\":7510:7511  i */\n      dup2\n        /* \"contracts/contracts/protocol/PoolOrganizer.sol\":7510:7539  i < borrowerPoolsArray.length */\n      lt\n        /* \"contracts/contracts/protocol/PoolOrganizer.sol\":7490:7618  for (uint256 i = 0; i < borrowerPoolsArray.length; i++) {... */\n      iszero\n      tag_234\n      jumpi\n        /* \"contracts/contracts/protocol/PoolOrganizer.sol\":7573:7584  poolDetails */\n      0x04\n        /* \"contracts/contracts/protocol/PoolOrganizer.sol\":7573:7607  poolDetails[borrowerPoolsArray[i]] */\n      0x00\n        /* \"contracts/contracts/protocol/PoolOrganizer.sol\":7585:7603  borrowerPoolsArray */\n      dup5\n        /* \"contracts/contracts/protocol/PoolOrganizer.sol\":7604:7605  i */\n      dup4\n        /* \"contracts/contracts/protocol/PoolOrganizer.sol\":7585:7606  borrowerPoolsArray[i] */\n      dup2\n      mload\n      dup2\n      lt\n      tag_323\n      jumpi\n      tag_323\n      tag_238\n      jump\t// in\n    tag_323:\n      0x20\n      swap1\n      dup2\n      mul\n      swap2\n      swap1\n      swap2\n      add\n      dup2\n      add\n      mload\n      sub(shl(0xa0, 0x01), 0x01)\n        /* \"contracts/contracts/protocol/PoolOrganizer.sol\":7573:7607  poolDetails[borrowerPoolsArray[i]] */\n      swap1\n      dup2\n      and\n      dup4\n      mstore\n      dup3\n      dup3\n      add\n      swap4\n      swap1\n      swap4\n      mstore\n      0x40\n      swap2\n      dup3\n      add\n      0x00\n      keccak256\n        /* \"contracts/contracts/protocol/PoolOrganizer.sol\":7560:7607  details[i] = poolDetails[borrowerPoolsArray[i]] */\n      dup3\n      mload\n      0x01c0\n      dup2\n      add\n      dup5\n      mstore\n      dup2\n      sload\n      dup6\n      and\n      dup2\n      mstore\n      0x01\n      dup1\n      dup4\n      add\n      sload\n      dup7\n      and\n      swap4\n      dup3\n      add\n      swap4\n      swap1\n      swap4\n      mstore\n      0x02\n      dup3\n      add\n      sload\n      swap4\n      dup2\n      add\n      swap4\n      swap1\n      swap4\n      mstore\n      0x03\n      dup2\n      add\n      sload\n      dup5\n      and\n      0x60\n      dup5\n      add\n      mstore\n      0x04\n      dup2\n      add\n      sload\n      dup5\n      and\n      0x80\n      dup5\n      add\n      mstore\n      0x05\n      dup2\n      add\n      sload\n      dup5\n      and\n      0xa0\n      dup5\n      add\n      mstore\n      0x06\n      dup2\n      add\n      sload\n      swap1\n      swap4\n      and\n      0xc0\n      dup4\n      add\n      mstore\n      0x07\n      dup4\n      add\n      sload\n      0xe0\n      dup4\n      add\n      mstore\n      0x08\n      dup4\n      add\n      sload\n      0x0100\n      dup4\n      add\n      mstore\n      0x09\n      dup4\n      add\n      sload\n      0x0120\n      dup4\n      add\n      mstore\n      0x0a\n      dup4\n      add\n      sload\n      swap2\n      swap3\n        /* \"contracts/contracts/protocol/PoolOrganizer.sol\":7573:7607  poolDetails[borrowerPoolsArray[i]] */\n      swap2\n        /* \"contracts/contracts/protocol/PoolOrganizer.sol\":7560:7607  details[i] = poolDetails[borrowerPoolsArray[i]] */\n      0x0140\n      dup5\n      add\n      swap2\n      0xff\n      swap1\n      swap2\n      and\n      swap1\n      dup2\n      gt\n      iszero\n      tag_325\n      jumpi\n      tag_325\n      tag_210\n      jump\t// in\n    tag_325:\n      0x01\n      dup2\n      gt\n      iszero\n      tag_327\n      jumpi\n      tag_327\n      tag_210\n      jump\t// in\n    tag_327:\n      dup2\n      mstore\n      0x0a\n      dup3\n      add\n      sload\n      0xff\n      0x0100\n      dup3\n      div\n      dup2\n      and\n      iszero\n      iszero\n      0x20\n      dup5\n      add\n      mstore\n      0x40\n      swap1\n      swap3\n      add\n      swap2\n      0x010000\n      swap1\n      swap2\n      div\n      and\n      0x06\n      dup2\n      gt\n      iszero\n      tag_329\n      jumpi\n      tag_329\n      tag_210\n      jump\t// in\n    tag_329:\n      0x06\n      dup2\n      gt\n      iszero\n      tag_331\n      jumpi\n      tag_331\n      tag_210\n      jump\t// in\n    tag_331:\n      dup2\n      mstore\n      0x0a\n      swap2\n      swap1\n      swap2\n      add\n      sload\n      0x01000000\n      swap1\n      div\n      sub(shl(0xa0, 0x01), 0x01)\n      and\n      0x20\n      swap1\n      swap2\n      add\n      mstore\n        /* \"contracts/contracts/protocol/PoolOrganizer.sol\":7560:7570  details[i] */\n      dup3\n      mload\n      dup4\n      swap1\n        /* \"contracts/contracts/protocol/PoolOrganizer.sol\":7568:7569  i */\n      dup4\n      swap1\n        /* \"contracts/contracts/protocol/PoolOrganizer.sol\":7560:7570  details[i] */\n      dup2\n      lt\n      tag_333\n      jumpi\n      tag_333\n      tag_238\n      jump\t// in\n    tag_333:\n      0x20\n      swap1\n      dup2\n      mul\n      swap2\n      swap1\n      swap2\n      add\n      add\n        /* \"contracts/contracts/protocol/PoolOrganizer.sol\":7560:7607  details[i] = poolDetails[borrowerPoolsArray[i]] */\n      mstore\n        /* \"contracts/contracts/protocol/PoolOrganizer.sol\":7541:7544  i++ */\n      0x01\n      add\n        /* \"contracts/contracts/protocol/PoolOrganizer.sol\":7490:7618  for (uint256 i = 0; i < borrowerPoolsArray.length; i++) {... */\n      jump(tag_319)\n        /* \"@openzeppelin/contracts/access/AccessControl.sol\":3199:3302  function _checkRole(bytes32 role) internal view virtual {... */\n    tag_180:\n        /* \"@openzeppelin/contracts/access/AccessControl.sol\":3265:3295  _checkRole(role, _msgSender()) */\n      tag_255\n        /* \"@openzeppelin/contracts/access/AccessControl.sol\":3276:3280  role */\n      dup2\n        /* \"@openzeppelin/contracts/utils/Context.sol\":735:745  msg.sender */\n      caller\n        /* \"@openzeppelin/contracts/access/AccessControl.sol\":3265:3275  _checkRole */\n      tag_338\n        /* \"@openzeppelin/contracts/access/AccessControl.sol\":3265:3295  _checkRole(role, _msgSender()) */\n      jump\t// in\n        /* \"@openzeppelin/contracts/access/AccessControl.sol\":6179:6495  function _grantRole(bytes32 role, address account) internal virtual returns (bool) {... */\n    tag_183:\n        /* \"@openzeppelin/contracts/access/AccessControl.sol\":6256:6260  bool */\n      0x00\n        /* \"@openzeppelin/contracts/access/AccessControl.sol\":6277:6299  hasRole(role, account) */\n      tag_340\n        /* \"@openzeppelin/contracts/access/AccessControl.sol\":6285:6289  role */\n      dup4\n        /* \"@openzeppelin/contracts/access/AccessControl.sol\":6291:6298  account */\n      dup4\n        /* \"@openzeppelin/contracts/access/AccessControl.sol\":6277:6284  hasRole */\n      tag_111\n        /* \"@openzeppelin/contracts/access/AccessControl.sol\":6277:6299  hasRole(role, account) */\n      jump\t// in\n    tag_340:\n        /* \"@openzeppelin/contracts/access/AccessControl.sol\":6272:6489  if (!hasRole(role, account)) {... */\n      tag_341\n      jumpi\n        /* \"@openzeppelin/contracts/access/AccessControl.sol\":6315:6321  _roles */\n      0x00\n        /* \"@openzeppelin/contracts/access/AccessControl.sol\":6315:6327  _roles[role] */\n      dup4\n      dup2\n      mstore\n      0x20\n      dup2\n      dup2\n      mstore\n      0x40\n      dup1\n      dup4\n      keccak256\n      sub(shl(0xa0, 0x01), 0x01)\n        /* \"@openzeppelin/contracts/access/AccessControl.sol\":6315:6344  _roles[role].hasRole[account] */\n      dup7\n      and\n      dup5\n      mstore\n      swap1\n      swap2\n      mstore\n      swap1\n      keccak256\n        /* \"@openzeppelin/contracts/access/AccessControl.sol\":6315:6351  _roles[role].hasRole[account] = true */\n      dup1\n      sload\n      not(0xff)\n      and\n        /* \"@openzeppelin/contracts/access/AccessControl.sol\":6347:6351  true */\n      0x01\n        /* \"@openzeppelin/contracts/access/AccessControl.sol\":6315:6351  _roles[role].hasRole[account] = true */\n      or\n      swap1\n      sstore\n        /* \"@openzeppelin/contracts/access/AccessControl.sol\":6397:6409  _msgSender() */\n      tag_342\n        /* \"@openzeppelin/contracts/utils/Context.sol\":735:745  msg.sender */\n      caller\n      swap1\n        /* \"@openzeppelin/contracts/utils/Context.sol\":656:752  function _msgSender() internal view virtual returns (address) {... */\n      jump\n        /* \"@openzeppelin/contracts/access/AccessControl.sol\":6397:6409  _msgSender() */\n    tag_342:\n      sub(shl(0xa0, 0x01), 0x01)\n        /* \"@openzeppelin/contracts/access/AccessControl.sol\":6370:6410  RoleGranted(role, account, _msgSender()) */\n      and\n        /* \"@openzeppelin/contracts/access/AccessControl.sol\":6388:6395  account */\n      dup3\n      sub(shl(0xa0, 0x01), 0x01)\n        /* \"@openzeppelin/contracts/access/AccessControl.sol\":6370:6410  RoleGranted(role, account, _msgSender()) */\n      and\n        /* \"@openzeppelin/contracts/access/AccessControl.sol\":6382:6386  role */\n      dup5\n        /* \"@openzeppelin/contracts/access/AccessControl.sol\":6370:6410  RoleGranted(role, account, _msgSender()) */\n      0x2f8788117e7eff1d82e926ec794901d17c78024a50270940304540a733656f0d\n      mload(0x40)\n      mload(0x40)\n      dup1\n      swap2\n      sub\n      swap1\n      log4\n      pop\n        /* \"@openzeppelin/contracts/access/AccessControl.sol\":6431:6435  true */\n      0x01\n        /* \"@openzeppelin/contracts/access/AccessControl.sol\":6424:6435  return true */\n      jump(tag_157)\n        /* \"@openzeppelin/contracts/access/AccessControl.sol\":6272:6489  if (!hasRole(role, account)) {... */\n    tag_341:\n      pop\n        /* \"@openzeppelin/contracts/access/AccessControl.sol\":6473:6478  false */\n      0x00\n        /* \"@openzeppelin/contracts/access/AccessControl.sol\":6466:6478  return false */\n      jump(tag_157)\n        /* \"@openzeppelin/contracts/access/AccessControl.sol\":6730:7047  function _revokeRole(bytes32 role, address account) internal virtual returns (bool) {... */\n    tag_189:\n        /* \"@openzeppelin/contracts/access/AccessControl.sol\":6808:6812  bool */\n      0x00\n        /* \"@openzeppelin/contracts/access/AccessControl.sol\":6828:6850  hasRole(role, account) */\n      tag_346\n        /* \"@openzeppelin/contracts/access/AccessControl.sol\":6836:6840  role */\n      dup4\n        /* \"@openzeppelin/contracts/access/AccessControl.sol\":6842:6849  account */\n      dup4\n        /* \"@openzeppelin/contracts/access/AccessControl.sol\":6828:6835  hasRole */\n      tag_111\n        /* \"@openzeppelin/contracts/access/AccessControl.sol\":6828:6850  hasRole(role, account) */\n      jump\t// in\n    tag_346:\n        /* \"@openzeppelin/contracts/access/AccessControl.sol\":6824:7041  if (hasRole(role, account)) {... */\n      iszero\n      tag_341\n      jumpi\n        /* \"@openzeppelin/contracts/access/AccessControl.sol\":6898:6903  false */\n      0x00\n        /* \"@openzeppelin/contracts/access/AccessControl.sol\":6866:6878  _roles[role] */\n      dup4\n      dup2\n      mstore\n      0x20\n      dup2\n      dup2\n      mstore\n      0x40\n      dup1\n      dup4\n      keccak256\n      sub(shl(0xa0, 0x01), 0x01)\n        /* \"@openzeppelin/contracts/access/AccessControl.sol\":6866:6895  _roles[role].hasRole[account] */\n      dup7\n      and\n      dup1\n      dup6\n      mstore\n      swap3\n      mstore\n      dup1\n      dup4\n      keccak256\n        /* \"@openzeppelin/contracts/access/AccessControl.sol\":6866:6903  _roles[role].hasRole[account] = false */\n      dup1\n      sload\n      not(0xff)\n      and\n      swap1\n      sstore\n        /* \"@openzeppelin/contracts/access/AccessControl.sol\":6922:6962  RoleRevoked(role, account, _msgSender()) */\n      mload\n        /* \"@openzeppelin/contracts/utils/Context.sol\":735:745  msg.sender */\n      caller\n      swap3\n        /* \"@openzeppelin/contracts/access/AccessControl.sol\":6866:6878  _roles[role] */\n      dup7\n      swap2\n        /* \"@openzeppelin/contracts/access/AccessControl.sol\":6922:6962  RoleRevoked(role, account, _msgSender()) */\n      0xf6391f5c32d9c69d2a47ea670b442974b53935d1edc7fd64eb21e047a839171b\n      swap2\n        /* \"@openzeppelin/contracts/access/AccessControl.sol\":6898:6903  false */\n      swap1\n        /* \"@openzeppelin/contracts/access/AccessControl.sol\":6922:6962  RoleRevoked(role, account, _msgSender()) */\n      log4\n      pop\n        /* \"@openzeppelin/contracts/access/AccessControl.sol\":6983:6987  true */\n      0x01\n        /* \"@openzeppelin/contracts/access/AccessControl.sol\":6976:6987  return true */\n      jump(tag_157)\n        /* \"contracts/contracts/protocol/PoolOrganizer.sol\":14412:14838  function _removePoolFromBorrowerArray(address borrower, address pool)... */\n    tag_199:\n      sub(shl(0xa0, 0x01), 0x01)\n        /* \"contracts/contracts/protocol/PoolOrganizer.sol\":14545:14568  borrowerPools[borrower] */\n      dup3\n      and\n        /* \"contracts/contracts/protocol/PoolOrganizer.sol\":14512:14525  uint256 index */\n      0x00\n        /* \"contracts/contracts/protocol/PoolOrganizer.sol\":14545:14568  borrowerPools[borrower] */\n      swap1\n      dup2\n      mstore\n        /* \"contracts/contracts/protocol/PoolOrganizer.sol\":14545:14558  borrowerPools */\n      0x07\n        /* \"contracts/contracts/protocol/PoolOrganizer.sol\":14545:14568  borrowerPools[borrower] */\n      0x20\n      mstore\n      0x40\n      dup2\n      keccak256\n        /* \"contracts/contracts/protocol/PoolOrganizer.sol\":14528:14575  findIndexInArray(borrowerPools[borrower], pool) */\n      tag_351\n      swap1\n        /* \"contracts/contracts/protocol/PoolOrganizer.sol\":14570:14574  pool */\n      dup4\n        /* \"contracts/contracts/protocol/PoolOrganizer.sol\":14528:14544  findIndexInArray */\n      tag_352\n        /* \"contracts/contracts/protocol/PoolOrganizer.sol\":14528:14575  findIndexInArray(borrowerPools[borrower], pool) */\n      jump\t// in\n    tag_351:\n      sub(shl(0xa0, 0x01), 0x01)\n        /* \"contracts/contracts/protocol/PoolOrganizer.sol\":14597:14620  borrowerPools[borrower] */\n      dup5\n      and\n      0x00\n      swap1\n      dup2\n      mstore\n        /* \"contracts/contracts/protocol/PoolOrganizer.sol\":14597:14610  borrowerPools */\n      0x07\n        /* \"contracts/contracts/protocol/PoolOrganizer.sol\":14597:14620  borrowerPools[borrower] */\n      0x20\n      mstore\n      0x40\n      swap1\n      keccak256\n        /* \"contracts/contracts/protocol/PoolOrganizer.sol\":14597:14627  borrowerPools[borrower].length */\n      sload\n        /* \"contracts/contracts/protocol/PoolOrganizer.sol\":14512:14575  uint256 index = findIndexInArray(borrowerPools[borrower], pool) */\n      swap1\n      swap2\n      pop\n        /* \"contracts/contracts/protocol/PoolOrganizer.sol\":14589:14627  index < borrowerPools[borrower].length */\n      dup2\n      lt\n        /* \"contracts/contracts/protocol/PoolOrganizer.sol\":14585:14832  if (index < borrowerPools[borrower].length) {... */\n      iszero\n      tag_188\n      jumpi\n      sub(shl(0xa0, 0x01), 0x01)\n        /* \"contracts/contracts/protocol/PoolOrganizer.sol\":14663:14686  borrowerPools[borrower] */\n      dup4\n      and\n        /* \"contracts/contracts/protocol/PoolOrganizer.sol\":14643:14660  uint256 lastIndex */\n      0x00\n        /* \"contracts/contracts/protocol/PoolOrganizer.sol\":14663:14686  borrowerPools[borrower] */\n      swap1\n      dup2\n      mstore\n        /* \"contracts/contracts/protocol/PoolOrganizer.sol\":14663:14676  borrowerPools */\n      0x07\n        /* \"contracts/contracts/protocol/PoolOrganizer.sol\":14663:14686  borrowerPools[borrower] */\n      0x20\n      mstore\n      0x40\n      dup2\n      keccak256\n        /* \"contracts/contracts/protocol/PoolOrganizer.sol\":14663:14693  borrowerPools[borrower].length */\n      sload\n        /* \"contracts/contracts/protocol/PoolOrganizer.sol\":14663:14697  borrowerPools[borrower].length - 1 */\n      tag_354\n      swap1\n        /* \"contracts/contracts/protocol/PoolOrganizer.sol\":14696:14697  1 */\n      0x01\n      swap1\n        /* \"contracts/contracts/protocol/PoolOrganizer.sol\":14663:14697  borrowerPools[borrower].length - 1 */\n      tag_355\n      jump\t// in\n    tag_354:\n      sub(shl(0xa0, 0x01), 0x01)\n        /* \"contracts/contracts/protocol/PoolOrganizer.sol\":14744:14767  borrowerPools[borrower] */\n      dup6\n      and\n      0x00\n      swap1\n      dup2\n      mstore\n        /* \"contracts/contracts/protocol/PoolOrganizer.sol\":14744:14757  borrowerPools */\n      0x07\n        /* \"contracts/contracts/protocol/PoolOrganizer.sol\":14744:14767  borrowerPools[borrower] */\n      0x20\n      mstore\n      0x40\n      swap1\n      keccak256\n        /* \"contracts/contracts/protocol/PoolOrganizer.sol\":14744:14778  borrowerPools[borrower][lastIndex] */\n      dup1\n      sload\n        /* \"contracts/contracts/protocol/PoolOrganizer.sol\":14643:14697  uint256 lastIndex = borrowerPools[borrower].length - 1 */\n      swap2\n      swap3\n      pop\n        /* \"contracts/contracts/protocol/PoolOrganizer.sol\":14744:14767  borrowerPools[borrower] */\n      swap1\n        /* \"contracts/contracts/protocol/PoolOrganizer.sol\":14643:14697  uint256 lastIndex = borrowerPools[borrower].length - 1 */\n      dup3\n      swap1\n        /* \"contracts/contracts/protocol/PoolOrganizer.sol\":14744:14778  borrowerPools[borrower][lastIndex] */\n      dup2\n      lt\n      tag_357\n      jumpi\n      tag_357\n      tag_238\n      jump\t// in\n    tag_357:\n      0x00\n      swap2\n      dup3\n      mstore\n      0x20\n      dup1\n      dup4\n      keccak256\n      swap1\n      swap2\n      add\n      sload\n      sub(shl(0xa0, 0x01), 0x01)\n        /* \"contracts/contracts/protocol/PoolOrganizer.sol\":14711:14734  borrowerPools[borrower] */\n      dup8\n      dup2\n      and\n      dup5\n      mstore\n        /* \"contracts/contracts/protocol/PoolOrganizer.sol\":14711:14724  borrowerPools */\n      0x07\n        /* \"contracts/contracts/protocol/PoolOrganizer.sol\":14711:14734  borrowerPools[borrower] */\n      swap1\n      swap3\n      mstore\n      0x40\n      swap1\n      swap3\n      keccak256\n        /* \"contracts/contracts/protocol/PoolOrganizer.sol\":14711:14741  borrowerPools[borrower][index] */\n      dup1\n      sload\n        /* \"contracts/contracts/protocol/PoolOrganizer.sol\":14744:14778  borrowerPools[borrower][lastIndex] */\n      swap2\n      swap1\n      swap3\n      and\n      swap2\n        /* \"contracts/contracts/protocol/PoolOrganizer.sol\":14711:14734  borrowerPools[borrower] */\n      swap1\n        /* \"contracts/contracts/protocol/PoolOrganizer.sol\":14735:14740  index */\n      dup5\n      swap1\n        /* \"contracts/contracts/protocol/PoolOrganizer.sol\":14711:14741  borrowerPools[borrower][index] */\n      dup2\n      lt\n      tag_360\n      jumpi\n      tag_360\n      tag_238\n      jump\t// in\n    tag_360:\n      0x00\n      swap2\n      dup3\n      mstore\n      0x20\n      dup1\n      dup4\n      keccak256\n      swap2\n      swap1\n      swap2\n      add\n        /* \"contracts/contracts/protocol/PoolOrganizer.sol\":14711:14778  borrowerPools[borrower][index] = borrowerPools[borrower][lastIndex] */\n      dup1\n      sload\n      not(sub(shl(0xa0, 0x01), 0x01))\n      and\n      sub(shl(0xa0, 0x01), 0x01)\n      swap5\n      dup6\n      and\n      or\n      swap1\n      sstore\n        /* \"contracts/contracts/protocol/PoolOrganizer.sol\":14792:14815  borrowerPools[borrower] */\n      swap2\n      dup7\n      and\n      dup2\n      mstore\n        /* \"contracts/contracts/protocol/PoolOrganizer.sol\":14792:14805  borrowerPools */\n      0x07\n        /* \"contracts/contracts/protocol/PoolOrganizer.sol\":14792:14815  borrowerPools[borrower] */\n      swap1\n      swap2\n      mstore\n      0x40\n      swap1\n      keccak256\n        /* \"contracts/contracts/protocol/PoolOrganizer.sol\":14792:14821  borrowerPools[borrower].pop() */\n      dup1\n      sload\n      dup1\n      tag_363\n      jumpi\n      tag_363\n      tag_364\n      jump\t// in\n    tag_363:\n      0x00\n      dup3\n      dup2\n      mstore\n      0x20\n      swap1\n      keccak256\n      dup2\n      add\n      not(0x00)\n      swap1\n      dup2\n      add\n      dup1\n      sload\n      not(sub(shl(0xa0, 0x01), 0x01))\n      and\n      swap1\n      sstore\n      add\n      swap1\n      sstore\n      pop\n        /* \"contracts/contracts/protocol/PoolOrganizer.sol\":14502:14838  {... */\n      pop\n        /* \"contracts/contracts/protocol/PoolOrganizer.sol\":14412:14838  function _removePoolFromBorrowerArray(address borrower, address pool)... */\n      pop\n      pop\n      jump\t// out\n        /* \"contracts/contracts/protocol/PoolOrganizer.sol\":13056:13370  function _removePoolFromLenderArray(address lender, address pool) private {... */\n    tag_264:\n      sub(shl(0xa0, 0x01), 0x01)\n        /* \"contracts/contracts/protocol/PoolOrganizer.sol\":13173:13192  lenderPools[lender] */\n      dup3\n      and\n        /* \"contracts/contracts/protocol/PoolOrganizer.sol\":13140:13153  uint256 index */\n      0x00\n        /* \"contracts/contracts/protocol/PoolOrganizer.sol\":13173:13192  lenderPools[lender] */\n      swap1\n      dup2\n      mstore\n        /* \"contracts/contracts/protocol/PoolOrganizer.sol\":13173:13184  lenderPools */\n      0x05\n        /* \"contracts/contracts/protocol/PoolOrganizer.sol\":13173:13192  lenderPools[lender] */\n      0x20\n      mstore\n      0x40\n      dup2\n      keccak256\n        /* \"contracts/contracts/protocol/PoolOrganizer.sol\":13156:13199  findIndexInArray(lenderPools[lender], pool) */\n      tag_367\n      swap1\n        /* \"contracts/contracts/protocol/PoolOrganizer.sol\":13194:13198  pool */\n      dup4\n        /* \"contracts/contracts/protocol/PoolOrganizer.sol\":13156:13172  findIndexInArray */\n      tag_352\n        /* \"contracts/contracts/protocol/PoolOrganizer.sol\":13156:13199  findIndexInArray(lenderPools[lender], pool) */\n      jump\t// in\n    tag_367:\n      sub(shl(0xa0, 0x01), 0x01)\n        /* \"contracts/contracts/protocol/PoolOrganizer.sol\":13229:13248  lenderPools[lender] */\n      dup5\n      and\n        /* \"contracts/contracts/protocol/PoolOrganizer.sol\":13209:13226  uint256 lastIndex */\n      0x00\n        /* \"contracts/contracts/protocol/PoolOrganizer.sol\":13229:13248  lenderPools[lender] */\n      swap1\n      dup2\n      mstore\n        /* \"contracts/contracts/protocol/PoolOrganizer.sol\":13229:13240  lenderPools */\n      0x05\n        /* \"contracts/contracts/protocol/PoolOrganizer.sol\":13229:13248  lenderPools[lender] */\n      0x20\n      mstore\n      0x40\n      dup2\n      keccak256\n        /* \"contracts/contracts/protocol/PoolOrganizer.sol\":13229:13255  lenderPools[lender].length */\n      sload\n        /* \"contracts/contracts/protocol/PoolOrganizer.sol\":13140:13199  uint256 index = findIndexInArray(lenderPools[lender], pool) */\n      swap2\n      swap3\n      pop\n        /* \"contracts/contracts/protocol/PoolOrganizer.sol\":13209:13226  uint256 lastIndex */\n      swap1\n        /* \"contracts/contracts/protocol/PoolOrganizer.sol\":13229:13259  lenderPools[lender].length - 1 */\n      tag_368\n      swap1\n        /* \"contracts/contracts/protocol/PoolOrganizer.sol\":13258:13259  1 */\n      0x01\n      swap1\n        /* \"contracts/contracts/protocol/PoolOrganizer.sol\":13229:13259  lenderPools[lender].length - 1 */\n      tag_355\n      jump\t// in\n    tag_368:\n      sub(shl(0xa0, 0x01), 0x01)\n        /* \"contracts/contracts/protocol/PoolOrganizer.sol\":13298:13317  lenderPools[lender] */\n      dup6\n      and\n      0x00\n      swap1\n      dup2\n      mstore\n        /* \"contracts/contracts/protocol/PoolOrganizer.sol\":13298:13309  lenderPools */\n      0x05\n        /* \"contracts/contracts/protocol/PoolOrganizer.sol\":13298:13317  lenderPools[lender] */\n      0x20\n      mstore\n      0x40\n      swap1\n      keccak256\n        /* \"contracts/contracts/protocol/PoolOrganizer.sol\":13298:13328  lenderPools[lender][lastIndex] */\n      dup1\n      sload\n        /* \"contracts/contracts/protocol/PoolOrganizer.sol\":13209:13259  uint256 lastIndex = lenderPools[lender].length - 1 */\n      swap2\n      swap3\n      pop\n        /* \"contracts/contracts/protocol/PoolOrganizer.sol\":13298:13317  lenderPools[lender] */\n      swap1\n        /* \"contracts/contracts/protocol/PoolOrganizer.sol\":13209:13259  uint256 lastIndex = lenderPools[lender].length - 1 */\n      dup3\n      swap1\n        /* \"contracts/contracts/protocol/PoolOrganizer.sol\":13298:13328  lenderPools[lender][lastIndex] */\n      dup2\n      lt\n      tag_370\n      jumpi\n      tag_370\n      tag_238\n      jump\t// in\n    tag_370:\n      0x00\n      swap2\n      dup3\n      mstore\n      0x20\n      dup1\n      dup4\n      keccak256\n      swap1\n      swap2\n      add\n      sload\n      sub(shl(0xa0, 0x01), 0x01)\n        /* \"contracts/contracts/protocol/PoolOrganizer.sol\":13269:13288  lenderPools[lender] */\n      dup8\n      dup2\n      and\n      dup5\n      mstore\n        /* \"contracts/contracts/protocol/PoolOrganizer.sol\":13269:13280  lenderPools */\n      0x05\n        /* \"contracts/contracts/protocol/PoolOrganizer.sol\":13269:13288  lenderPools[lender] */\n      swap1\n      swap3\n      mstore\n      0x40\n      swap1\n      swap3\n      keccak256\n        /* \"contracts/contracts/protocol/PoolOrganizer.sol\":13269:13295  lenderPools[lender][index] */\n      dup1\n      sload\n        /* \"contracts/contracts/protocol/PoolOrganizer.sol\":13298:13328  lenderPools[lender][lastIndex] */\n      swap2\n      swap1\n      swap3\n      and\n      swap2\n        /* \"contracts/contracts/protocol/PoolOrganizer.sol\":13269:13288  lenderPools[lender] */\n      swap1\n        /* \"contracts/contracts/protocol/PoolOrganizer.sol\":13289:13294  index */\n      dup5\n      swap1\n        /* \"contracts/contracts/protocol/PoolOrganizer.sol\":13269:13295  lenderPools[lender][index] */\n      dup2\n      lt\n      tag_373\n      jumpi\n      tag_373\n      tag_238\n      jump\t// in\n    tag_373:\n      0x00\n      swap2\n      dup3\n      mstore\n      0x20\n      dup1\n      dup4\n      keccak256\n      swap2\n      swap1\n      swap2\n      add\n        /* \"contracts/contracts/protocol/PoolOrganizer.sol\":13269:13328  lenderPools[lender][index] = lenderPools[lender][lastIndex] */\n      dup1\n      sload\n      not(sub(shl(0xa0, 0x01), 0x01))\n      and\n      sub(shl(0xa0, 0x01), 0x01)\n      swap5\n      dup6\n      and\n      or\n      swap1\n      sstore\n        /* \"contracts/contracts/protocol/PoolOrganizer.sol\":13338:13357  lenderPools[lender] */\n      swap2\n      dup7\n      and\n      dup2\n      mstore\n        /* \"contracts/contracts/protocol/PoolOrganizer.sol\":13338:13349  lenderPools */\n      0x05\n        /* \"contracts/contracts/protocol/PoolOrganizer.sol\":13338:13357  lenderPools[lender] */\n      swap1\n      swap2\n      mstore\n      0x40\n      swap1\n      keccak256\n        /* \"contracts/contracts/protocol/PoolOrganizer.sol\":13338:13363  lenderPools[lender].pop() */\n      dup1\n      sload\n      dup1\n      tag_363\n      jumpi\n      tag_363\n      tag_364\n      jump\t// in\n        /* \"contracts/contracts/protocol/PoolOrganizer.sol\":13493:13719  function _removePoolFromMainArray(address pool) private {... */\n    tag_266:\n        /* \"contracts/contracts/protocol/PoolOrganizer.sol\":13559:13572  uint256 index */\n      0x00\n        /* \"contracts/contracts/protocol/PoolOrganizer.sol\":13575:13604  findIndexInArray(pools, pool) */\n      tag_379\n        /* \"contracts/contracts/protocol/PoolOrganizer.sol\":13592:13597  pools */\n      0x03\n        /* \"contracts/contracts/protocol/PoolOrganizer.sol\":13599:13603  pool */\n      dup4\n        /* \"contracts/contracts/protocol/PoolOrganizer.sol\":13575:13591  findIndexInArray */\n      tag_352\n        /* \"contracts/contracts/protocol/PoolOrganizer.sol\":13575:13604  findIndexInArray(pools, pool) */\n      jump\t// in\n    tag_379:\n        /* \"contracts/contracts/protocol/PoolOrganizer.sol\":13634:13639  pools */\n      0x03\n        /* \"contracts/contracts/protocol/PoolOrganizer.sol\":13634:13646  pools.length */\n      sload\n        /* \"contracts/contracts/protocol/PoolOrganizer.sol\":13559:13604  uint256 index = findIndexInArray(pools, pool) */\n      swap1\n      swap2\n      pop\n        /* \"contracts/contracts/protocol/PoolOrganizer.sol\":13614:13631  uint256 lastIndex */\n      0x00\n      swap1\n        /* \"contracts/contracts/protocol/PoolOrganizer.sol\":13634:13650  pools.length - 1 */\n      tag_380\n      swap1\n        /* \"contracts/contracts/protocol/PoolOrganizer.sol\":13649:13650  1 */\n      0x01\n      swap1\n        /* \"contracts/contracts/protocol/PoolOrganizer.sol\":13634:13650  pools.length - 1 */\n      tag_355\n      jump\t// in\n    tag_380:\n        /* \"contracts/contracts/protocol/PoolOrganizer.sol\":13614:13650  uint256 lastIndex = pools.length - 1 */\n      swap1\n      pop\n        /* \"contracts/contracts/protocol/PoolOrganizer.sol\":13675:13680  pools */\n      0x03\n        /* \"contracts/contracts/protocol/PoolOrganizer.sol\":13681:13690  lastIndex */\n      dup2\n        /* \"contracts/contracts/protocol/PoolOrganizer.sol\":13675:13691  pools[lastIndex] */\n      dup2\n      sload\n      dup2\n      lt\n      tag_382\n      jumpi\n      tag_382\n      tag_238\n      jump\t// in\n    tag_382:\n      0x00\n      swap2\n      dup3\n      mstore\n      0x20\n      swap1\n      swap2\n      keccak256\n      add\n      sload\n        /* \"contracts/contracts/protocol/PoolOrganizer.sol\":13660:13665  pools */\n      0x03\n        /* \"contracts/contracts/protocol/PoolOrganizer.sol\":13660:13672  pools[index] */\n      dup1\n      sload\n      sub(shl(0xa0, 0x01), 0x01)\n        /* \"contracts/contracts/protocol/PoolOrganizer.sol\":13675:13691  pools[lastIndex] */\n      swap1\n      swap3\n      and\n      swap2\n        /* \"contracts/contracts/protocol/PoolOrganizer.sol\":13666:13671  index */\n      dup5\n      swap1\n        /* \"contracts/contracts/protocol/PoolOrganizer.sol\":13660:13672  pools[index] */\n      dup2\n      lt\n      tag_385\n      jumpi\n      tag_385\n      tag_238\n      jump\t// in\n    tag_385:\n      swap1\n      0x00\n      mstore\n      keccak256(0x00, 0x20)\n      add\n      0x00\n        /* \"contracts/contracts/protocol/PoolOrganizer.sol\":13660:13691  pools[index] = pools[lastIndex] */\n      0x0100\n      exp\n      dup2\n      sload\n      dup2\n      sub(shl(0xa0, 0x01), 0x01)\n      mul\n      not\n      and\n      swap1\n      dup4\n      sub(shl(0xa0, 0x01), 0x01)\n      and\n      mul\n      or\n      swap1\n      sstore\n      pop\n        /* \"contracts/contracts/protocol/PoolOrganizer.sol\":13701:13706  pools */\n      0x03\n        /* \"contracts/contracts/protocol/PoolOrganizer.sol\":13701:13712  pools.pop() */\n      dup1\n      sload\n      dup1\n      tag_388\n      jumpi\n      tag_388\n      tag_364\n      jump\t// in\n    tag_388:\n      0x00\n      dup3\n      dup2\n      mstore\n      0x20\n      swap1\n      keccak256\n      dup2\n      add\n      not(0x00)\n      swap1\n      dup2\n      add\n      dup1\n      sload\n      not(sub(shl(0xa0, 0x01), 0x01))\n      and\n      swap1\n      sstore\n      add\n      swap1\n      sstore\n      pop\n      pop\n      pop\n        /* \"contracts/contracts/protocol/PoolOrganizer.sol\":13493:13719  function _removePoolFromMainArray(address pool) private {... */\n      jump\t// out\n        /* \"@openzeppelin/contracts/access/AccessControl.sol\":3432:3629  function _checkRole(bytes32 role, address account) internal view virtual {... */\n    tag_338:\n        /* \"@openzeppelin/contracts/access/AccessControl.sol\":3520:3542  hasRole(role, account) */\n      tag_391\n        /* \"@openzeppelin/contracts/access/AccessControl.sol\":3528:3532  role */\n      dup3\n        /* \"@openzeppelin/contracts/access/AccessControl.sol\":3534:3541  account */\n      dup3\n        /* \"@openzeppelin/contracts/access/AccessControl.sol\":3520:3527  hasRole */\n      tag_111\n        /* \"@openzeppelin/contracts/access/AccessControl.sol\":3520:3542  hasRole(role, account) */\n      jump\t// in\n    tag_391:\n        /* \"@openzeppelin/contracts/access/AccessControl.sol\":3515:3623  if (!hasRole(role, account)) {... */\n      tag_392\n      jumpi\n        /* \"@openzeppelin/contracts/access/AccessControl.sol\":3565:3612  AccessControlUnauthorizedAccount(account, role) */\n      mload(0x40)\n      shl(0xe0, 0xe2517d3f)\n      dup2\n      mstore\n      sub(shl(0xa0, 0x01), 0x01)\n        /* \"#utility.yul\":14598:14630   */\n      dup3\n      and\n        /* \"@openzeppelin/contracts/access/AccessControl.sol\":3565:3612  AccessControlUnauthorizedAccount(account, role) */\n      0x04\n      dup3\n      add\n        /* \"#utility.yul\":14580:14631   */\n      mstore\n        /* \"#utility.yul\":14647:14665   */\n      0x24\n      dup2\n      add\n        /* \"#utility.yul\":14640:14674   */\n      dup4\n      swap1\n      mstore\n        /* \"#utility.yul\":14553:14571   */\n      0x44\n      add\n        /* \"@openzeppelin/contracts/access/AccessControl.sol\":3565:3612  AccessControlUnauthorizedAccount(account, role) */\n      tag_162\n        /* \"#utility.yul\":14406:14680   */\n      jump\n        /* \"@openzeppelin/contracts/access/AccessControl.sol\":3515:3623  if (!hasRole(role, account)) {... */\n    tag_392:\n        /* \"@openzeppelin/contracts/access/AccessControl.sol\":3432:3629  function _checkRole(bytes32 role, address account) internal view virtual {... */\n      pop\n      pop\n      jump\t// out\n        /* \"contracts/contracts/protocol/PoolOrganizer.sol\":13932:14231  function findIndexInArray(address[] storage array, address target)... */\n    tag_352:\n        /* \"contracts/contracts/protocol/PoolOrganizer.sol\":14045:14052  uint256 */\n      0x00\n      dup1\n        /* \"contracts/contracts/protocol/PoolOrganizer.sol\":14068:14168  for (uint256 i = 0; i < array.length; i++) {... */\n    tag_396:\n        /* \"contracts/contracts/protocol/PoolOrganizer.sol\":14092:14104  array.length */\n      dup4\n      sload\n        /* \"contracts/contracts/protocol/PoolOrganizer.sol\":14088:14104  i < array.length */\n      dup2\n      lt\n        /* \"contracts/contracts/protocol/PoolOrganizer.sol\":14068:14168  for (uint256 i = 0; i < array.length; i++) {... */\n      iszero\n      tag_397\n      jumpi\n        /* \"contracts/contracts/protocol/PoolOrganizer.sol\":14141:14147  target */\n      dup3\n      sub(shl(0xa0, 0x01), 0x01)\n        /* \"contracts/contracts/protocol/PoolOrganizer.sol\":14129:14147  array[i] == target */\n      and\n        /* \"contracts/contracts/protocol/PoolOrganizer.sol\":14129:14134  array */\n      dup5\n        /* \"contracts/contracts/protocol/PoolOrganizer.sol\":14135:14136  i */\n      dup3\n        /* \"contracts/contracts/protocol/PoolOrganizer.sol\":14129:14137  array[i] */\n      dup2\n      sload\n      dup2\n      lt\n      tag_400\n      jumpi\n      tag_400\n      tag_238\n      jump\t// in\n    tag_400:\n      0x00\n      swap2\n      dup3\n      mstore\n      0x20\n      swap1\n      swap2\n      keccak256\n      add\n      sload\n      sub(shl(0xa0, 0x01), 0x01)\n      and\n        /* \"contracts/contracts/protocol/PoolOrganizer.sol\":14129:14147  array[i] == target */\n      sub\n        /* \"contracts/contracts/protocol/PoolOrganizer.sol\":14125:14157  if (array[i] == target) return i */\n      tag_402\n      jumpi\n        /* \"contracts/contracts/protocol/PoolOrganizer.sol\":14156:14157  i */\n      swap1\n      pop\n        /* \"contracts/contracts/protocol/PoolOrganizer.sol\":14149:14157  return i */\n      jump(tag_157)\n        /* \"contracts/contracts/protocol/PoolOrganizer.sol\":14125:14157  if (array[i] == target) return i */\n    tag_402:\n        /* \"contracts/contracts/protocol/PoolOrganizer.sol\":14106:14109  i++ */\n      0x01\n      add\n        /* \"contracts/contracts/protocol/PoolOrganizer.sol\":14068:14168  for (uint256 i = 0; i < array.length; i++) {... */\n      jump(tag_396)\n    tag_397:\n      pop\n      not(0x00)\n        /* \"contracts/contracts/protocol/PoolOrganizer.sol\":14184:14201  type(uint256).max */\n      swap4\n        /* \"contracts/contracts/protocol/PoolOrganizer.sol\":13932:14231  function findIndexInArray(address[] storage array, address target)... */\n      swap3\n      pop\n      pop\n      pop\n      jump\t// out\n    tag_232:\n      0x40\n      dup1\n      mload\n      0x01c0\n      dup2\n      add\n      dup3\n      mstore\n      0x00\n      dup1\n      dup3\n      mstore\n      0x20\n      dup3\n      add\n      dup2\n      swap1\n      mstore\n      swap2\n      dup2\n      add\n      dup3\n      swap1\n      mstore\n      0x60\n      dup2\n      add\n      dup3\n      swap1\n      mstore\n      0x80\n      dup2\n      add\n      dup3\n      swap1\n      mstore\n      0xa0\n      dup2\n      add\n      dup3\n      swap1\n      mstore\n      0xc0\n      dup2\n      add\n      dup3\n      swap1\n      mstore\n      0xe0\n      dup2\n      add\n      dup3\n      swap1\n      mstore\n      0x0100\n      dup2\n      add\n      dup3\n      swap1\n      mstore\n      0x0120\n      dup2\n      add\n      dup3\n      swap1\n      mstore\n      0x0140\n      dup2\n      add\n      dup3\n      swap1\n      mstore\n      0x0160\n      dup2\n      add\n      dup3\n      swap1\n      mstore\n      0x0180\n      dup2\n      add\n      dup3\n      swap1\n      mstore\n      0x01a0\n      dup2\n      add\n      swap2\n      swap1\n      swap2\n      mstore\n      swap1\n      jump\t// out\n        /* \"#utility.yul\":14:300   */\n    tag_41:\n        /* \"#utility.yul\":72:78   */\n      0x00\n        /* \"#utility.yul\":125:127   */\n      0x20\n        /* \"#utility.yul\":113:122   */\n      dup3\n        /* \"#utility.yul\":104:111   */\n      dup5\n        /* \"#utility.yul\":100:123   */\n      sub\n        /* \"#utility.yul\":96:128   */\n      slt\n        /* \"#utility.yul\":93:145   */\n      iszero\n      tag_416\n      jumpi\n        /* \"#utility.yul\":141:142   */\n      0x00\n        /* \"#utility.yul\":138:139   */\n      dup1\n        /* \"#utility.yul\":131:143   */\n      revert\n        /* \"#utility.yul\":93:145   */\n    tag_416:\n        /* \"#utility.yul\":167:190   */\n      dup2\n      calldataload\n      not(sub(shl(0xe0, 0x01), 0x01))\n        /* \"#utility.yul\":219:251   */\n      dup2\n      and\n        /* \"#utility.yul\":209:252   */\n      dup2\n      eq\n        /* \"#utility.yul\":199:270   */\n      tag_417\n      jumpi\n        /* \"#utility.yul\":266:267   */\n      0x00\n        /* \"#utility.yul\":263:264   */\n      dup1\n        /* \"#utility.yul\":256:268   */\n      revert\n        /* \"#utility.yul\":199:270   */\n    tag_417:\n        /* \"#utility.yul\":289:294   */\n      swap4\n        /* \"#utility.yul\":14:300   */\n      swap3\n      pop\n      pop\n      pop\n      jump\t// out\n        /* \"#utility.yul\":593:724   */\n    tag_408:\n      sub(shl(0xa0, 0x01), 0x01)\n        /* \"#utility.yul\":668:699   */\n      dup2\n      and\n        /* \"#utility.yul\":658:700   */\n      dup2\n      eq\n        /* \"#utility.yul\":648:718   */\n      tag_255\n      jumpi\n        /* \"#utility.yul\":714:715   */\n      0x00\n        /* \"#utility.yul\":711:712   */\n      dup1\n        /* \"#utility.yul\":704:716   */\n      revert\n        /* \"#utility.yul\":729:1117   */\n    tag_47:\n        /* \"#utility.yul\":797:803   */\n      0x00\n        /* \"#utility.yul\":805:811   */\n      dup1\n        /* \"#utility.yul\":858:860   */\n      0x40\n        /* \"#utility.yul\":846:855   */\n      dup4\n        /* \"#utility.yul\":837:844   */\n      dup6\n        /* \"#utility.yul\":833:856   */\n      sub\n        /* \"#utility.yul\":829:861   */\n      slt\n        /* \"#utility.yul\":826:878   */\n      iszero\n      tag_423\n      jumpi\n        /* \"#utility.yul\":874:875   */\n      0x00\n        /* \"#utility.yul\":871:872   */\n      dup1\n        /* \"#utility.yul\":864:876   */\n      revert\n        /* \"#utility.yul\":826:878   */\n    tag_423:\n        /* \"#utility.yul\":913:922   */\n      dup3\n        /* \"#utility.yul\":900:923   */\n      calldataload\n        /* \"#utility.yul\":932:963   */\n      tag_424\n        /* \"#utility.yul\":957:962   */\n      dup2\n        /* \"#utility.yul\":932:963   */\n      tag_408\n      jump\t// in\n    tag_424:\n        /* \"#utility.yul\":982:987   */\n      swap2\n      pop\n        /* \"#utility.yul\":1039:1041   */\n      0x20\n        /* \"#utility.yul\":1024:1042   */\n      dup4\n      add\n        /* \"#utility.yul\":1011:1043   */\n      calldataload\n        /* \"#utility.yul\":1052:1085   */\n      tag_425\n        /* \"#utility.yul\":1011:1043   */\n      dup2\n        /* \"#utility.yul\":1052:1085   */\n      tag_408\n      jump\t// in\n    tag_425:\n        /* \"#utility.yul\":1104:1111   */\n      dup1\n        /* \"#utility.yul\":1094:1111   */\n      swap2\n      pop\n      pop\n        /* \"#utility.yul\":729:1117   */\n      swap3\n      pop\n      swap3\n      swap1\n      pop\n      jump\t// out\n        /* \"#utility.yul\":1477:1724   */\n    tag_55:\n        /* \"#utility.yul\":1536:1542   */\n      0x00\n        /* \"#utility.yul\":1589:1591   */\n      0x20\n        /* \"#utility.yul\":1577:1586   */\n      dup3\n        /* \"#utility.yul\":1568:1575   */\n      dup5\n        /* \"#utility.yul\":1564:1587   */\n      sub\n        /* \"#utility.yul\":1560:1592   */\n      slt\n        /* \"#utility.yul\":1557:1609   */\n      iszero\n      tag_429\n      jumpi\n        /* \"#utility.yul\":1605:1606   */\n      0x00\n        /* \"#utility.yul\":1602:1603   */\n      dup1\n        /* \"#utility.yul\":1595:1607   */\n      revert\n        /* \"#utility.yul\":1557:1609   */\n    tag_429:\n        /* \"#utility.yul\":1644:1653   */\n      dup2\n        /* \"#utility.yul\":1631:1654   */\n      calldataload\n        /* \"#utility.yul\":1663:1694   */\n      tag_417\n        /* \"#utility.yul\":1688:1693   */\n      dup2\n        /* \"#utility.yul\":1663:1694   */\n      tag_408\n      jump\t// in\n        /* \"#utility.yul\":1937:2163   */\n    tag_64:\n        /* \"#utility.yul\":1996:2002   */\n      0x00\n        /* \"#utility.yul\":2049:2051   */\n      0x20\n        /* \"#utility.yul\":2037:2046   */\n      dup3\n        /* \"#utility.yul\":2028:2035   */\n      dup5\n        /* \"#utility.yul\":2024:2047   */\n      sub\n        /* \"#utility.yul\":2020:2052   */\n      slt\n        /* \"#utility.yul\":2017:2069   */\n      iszero\n      tag_433\n      jumpi\n        /* \"#utility.yul\":2065:2066   */\n      0x00\n        /* \"#utility.yul\":2062:2063   */\n      dup1\n        /* \"#utility.yul\":2055:2067   */\n      revert\n        /* \"#utility.yul\":2017:2069   */\n    tag_433:\n      pop\n        /* \"#utility.yul\":2110:2133   */\n      calldataload\n      swap2\n        /* \"#utility.yul\":1937:2163   */\n      swap1\n      pop\n      jump\t// out\n        /* \"#utility.yul\":2350:2987   */\n    tag_72:\n        /* \"#utility.yul\":2540:2542   */\n      0x20\n        /* \"#utility.yul\":2552:2573   */\n      dup1\n      dup3\n      mstore\n        /* \"#utility.yul\":2622:2635   */\n      dup3\n      mload\n        /* \"#utility.yul\":2525:2543   */\n      dup3\n      dup3\n      add\n        /* \"#utility.yul\":2644:2666   */\n      dup2\n      swap1\n      mstore\n        /* \"#utility.yul\":2492:2496   */\n      0x00\n      swap2\n        /* \"#utility.yul\":2723:2738   */\n      dup5\n      add\n      swap1\n        /* \"#utility.yul\":2697:2699   */\n      0x40\n        /* \"#utility.yul\":2682:2700   */\n      dup5\n      add\n      swap1\n        /* \"#utility.yul\":2492:2496   */\n      dup4\n        /* \"#utility.yul\":2766:2961   */\n    tag_436:\n        /* \"#utility.yul\":2780:2786   */\n      dup2\n        /* \"#utility.yul\":2777:2778   */\n      dup2\n        /* \"#utility.yul\":2774:2787   */\n      lt\n        /* \"#utility.yul\":2766:2961   */\n      iszero\n      tag_438\n      jumpi\n        /* \"#utility.yul\":2845:2858   */\n      dup4\n      mload\n      sub(shl(0xa0, 0x01), 0x01)\n        /* \"#utility.yul\":2841:2880   */\n      and\n        /* \"#utility.yul\":2829:2881   */\n      dup4\n      mstore\n        /* \"#utility.yul\":2910:2912   */\n      0x20\n        /* \"#utility.yul\":2936:2951   */\n      swap4\n      dup5\n      add\n      swap4\n        /* \"#utility.yul\":2901:2913   */\n      swap1\n      swap3\n      add\n      swap2\n        /* \"#utility.yul\":2877:2878   */\n      0x01\n        /* \"#utility.yul\":2795:2804   */\n      add\n        /* \"#utility.yul\":2766:2961   */\n      jump(tag_436)\n    tag_438:\n      pop\n        /* \"#utility.yul\":2978:2981   */\n      swap1\n      swap6\n        /* \"#utility.yul\":2350:2987   */\n      swap5\n      pop\n      pop\n      pop\n      pop\n      pop\n      jump\t// out\n        /* \"#utility.yul\":2992:3359   */\n    tag_75:\n        /* \"#utility.yul\":3060:3066   */\n      0x00\n        /* \"#utility.yul\":3068:3074   */\n      dup1\n        /* \"#utility.yul\":3121:3123   */\n      0x40\n        /* \"#utility.yul\":3109:3118   */\n      dup4\n        /* \"#utility.yul\":3100:3107   */\n      dup6\n        /* \"#utility.yul\":3096:3119   */\n      sub\n        /* \"#utility.yul\":3092:3124   */\n      slt\n        /* \"#utility.yul\":3089:3141   */\n      iszero\n      tag_440\n      jumpi\n        /* \"#utility.yul\":3137:3138   */\n      0x00\n        /* \"#utility.yul\":3134:3135   */\n      dup1\n        /* \"#utility.yul\":3127:3139   */\n      revert\n        /* \"#utility.yul\":3089:3141   */\n    tag_440:\n        /* \"#utility.yul\":3182:3205   */\n      dup3\n      calldataload\n      swap2\n      pop\n        /* \"#utility.yul\":3281:3283   */\n      0x20\n        /* \"#utility.yul\":3266:3284   */\n      dup4\n      add\n        /* \"#utility.yul\":3253:3285   */\n      calldataload\n        /* \"#utility.yul\":3294:3327   */\n      tag_425\n        /* \"#utility.yul\":3253:3285   */\n      dup2\n        /* \"#utility.yul\":3294:3327   */\n      tag_408\n      jump\t// in\n        /* \"#utility.yul\":3364:3513   */\n    tag_410:\n        /* \"#utility.yul\":3438:3458   */\n      dup1\n      calldataload\n        /* \"#utility.yul\":3487:3488   */\n      0x02\n        /* \"#utility.yul\":3477:3489   */\n      dup2\n      lt\n        /* \"#utility.yul\":3467:3507   */\n      tag_443\n      jumpi\n        /* \"#utility.yul\":3503:3504   */\n      0x00\n        /* \"#utility.yul\":3500:3501   */\n      dup1\n        /* \"#utility.yul\":3493:3505   */\n      revert\n        /* \"#utility.yul\":3467:3507   */\n    tag_443:\n        /* \"#utility.yul\":3364:3513   */\n      swap2\n      swap1\n      pop\n      jump\t// out\n        /* \"#utility.yul\":3518:5157   */\n    tag_85:\n        /* \"#utility.yul\":3721:3727   */\n      0x00\n        /* \"#utility.yul\":3729:3735   */\n      dup1\n        /* \"#utility.yul\":3737:3743   */\n      0x00\n        /* \"#utility.yul\":3745:3751   */\n      dup1\n        /* \"#utility.yul\":3753:3759   */\n      0x00\n        /* \"#utility.yul\":3761:3767   */\n      dup1\n        /* \"#utility.yul\":3769:3775   */\n      0x00\n        /* \"#utility.yul\":3777:3783   */\n      dup1\n        /* \"#utility.yul\":3785:3791   */\n      0x00\n        /* \"#utility.yul\":3793:3799   */\n      dup1\n        /* \"#utility.yul\":3801:3808   */\n      0x00\n        /* \"#utility.yul\":3855:3858   */\n      0x0160\n        /* \"#utility.yul\":3843:3852   */\n      dup13\n        /* \"#utility.yul\":3834:3841   */\n      dup15\n        /* \"#utility.yul\":3830:3853   */\n      sub\n        /* \"#utility.yul\":3826:3859   */\n      slt\n        /* \"#utility.yul\":3823:3876   */\n      iszero\n      tag_445\n      jumpi\n        /* \"#utility.yul\":3872:3873   */\n      0x00\n        /* \"#utility.yul\":3869:3870   */\n      dup1\n        /* \"#utility.yul\":3862:3874   */\n      revert\n        /* \"#utility.yul\":3823:3876   */\n    tag_445:\n        /* \"#utility.yul\":3911:3920   */\n      dup12\n        /* \"#utility.yul\":3898:3921   */\n      calldataload\n        /* \"#utility.yul\":3930:3961   */\n      tag_446\n        /* \"#utility.yul\":3955:3960   */\n      dup2\n        /* \"#utility.yul\":3930:3961   */\n      tag_408\n      jump\t// in\n    tag_446:\n        /* \"#utility.yul\":3980:3985   */\n      swap11\n      pop\n        /* \"#utility.yul\":4037:4039   */\n      0x20\n        /* \"#utility.yul\":4022:4040   */\n      dup13\n      add\n        /* \"#utility.yul\":4009:4041   */\n      calldataload\n        /* \"#utility.yul\":4050:4083   */\n      tag_447\n        /* \"#utility.yul\":4009:4041   */\n      dup2\n        /* \"#utility.yul\":4050:4083   */\n      tag_408\n      jump\t// in\n    tag_447:\n        /* \"#utility.yul\":4102:4109   */\n      swap10\n      pop\n        /* \"#utility.yul\":4161:4163   */\n      0x40\n        /* \"#utility.yul\":4146:4164   */\n      dup13\n      add\n        /* \"#utility.yul\":4133:4165   */\n      calldataload\n        /* \"#utility.yul\":4174:4207   */\n      tag_448\n        /* \"#utility.yul\":4133:4165   */\n      dup2\n        /* \"#utility.yul\":4174:4207   */\n      tag_408\n      jump\t// in\n    tag_448:\n        /* \"#utility.yul\":4226:4233   */\n      swap9\n      pop\n        /* \"#utility.yul\":4285:4287   */\n      0x60\n        /* \"#utility.yul\":4270:4288   */\n      dup13\n      add\n        /* \"#utility.yul\":4257:4289   */\n      calldataload\n        /* \"#utility.yul\":4298:4331   */\n      tag_449\n        /* \"#utility.yul\":4257:4289   */\n      dup2\n        /* \"#utility.yul\":4298:4331   */\n      tag_408\n      jump\t// in\n    tag_449:\n        /* \"#utility.yul\":4350:4357   */\n      swap8\n      pop\n        /* \"#utility.yul\":4409:4412   */\n      0x80\n        /* \"#utility.yul\":4394:4413   */\n      dup13\n      add\n        /* \"#utility.yul\":4381:4414   */\n      calldataload\n        /* \"#utility.yul\":4423:4456   */\n      tag_450\n        /* \"#utility.yul\":4381:4414   */\n      dup2\n        /* \"#utility.yul\":4423:4456   */\n      tag_408\n      jump\t// in\n    tag_450:\n        /* \"#utility.yul\":4475:4482   */\n      swap7\n      pop\n        /* \"#utility.yul\":4555:4558   */\n      0xa0\n        /* \"#utility.yul\":4540:4559   */\n      dup13\n      add\n        /* \"#utility.yul\":4527:4560   */\n      calldataload\n        /* \"#utility.yul\":4569:4602   */\n      tag_451\n        /* \"#utility.yul\":4527:4560   */\n      dup2\n        /* \"#utility.yul\":4569:4602   */\n      tag_408\n      jump\t// in\n    tag_451:\n        /* \"#utility.yul\":4621:4628   */\n      swap6\n      pop\n        /* \"#utility.yul\":4701:4704   */\n      0xc0\n        /* \"#utility.yul\":4686:4705   */\n      dup13\n      add\n        /* \"#utility.yul\":4673:4706   */\n      calldataload\n        /* \"#utility.yul\":4715:4748   */\n      tag_452\n        /* \"#utility.yul\":4673:4706   */\n      dup2\n        /* \"#utility.yul\":4715:4748   */\n      tag_408\n      jump\t// in\n    tag_452:\n        /* \"#utility.yul\":4767:4774   */\n      swap5\n      pop\n        /* \"#utility.yul\":4847:4850   */\n      0xe0\n        /* \"#utility.yul\":4832:4851   */\n      dup13\n      add\n        /* \"#utility.yul\":4819:4852   */\n      calldataload\n      swap4\n      pop\n        /* \"#utility.yul\":4951:4954   */\n      0x0100\n        /* \"#utility.yul\":4936:4955   */\n      dup13\n      add\n        /* \"#utility.yul\":4923:4956   */\n      calldataload\n      swap3\n      pop\n        /* \"#utility.yul\":5055:5058   */\n      0x0120\n        /* \"#utility.yul\":5040:5059   */\n      dup13\n      add\n        /* \"#utility.yul\":5027:5060   */\n      calldataload\n      swap2\n      pop\n        /* \"#utility.yul\":5106:5151   */\n      tag_453\n        /* \"#utility.yul\":5146:5149   */\n      0x0140\n        /* \"#utility.yul\":5131:5150   */\n      dup14\n      add\n        /* \"#utility.yul\":5106:5151   */\n      tag_410\n      jump\t// in\n    tag_453:\n        /* \"#utility.yul\":5095:5151   */\n      swap1\n      pop\n        /* \"#utility.yul\":3518:5157   */\n      swap3\n      swap6\n      swap9\n      swap12\n      pop\n      swap3\n      swap6\n      swap9\n      swap12\n      swap1\n      swap4\n      swap7\n      swap10\n      pop\n      jump\t// out\n        /* \"#utility.yul\":5162:5289   */\n    tag_210:\n        /* \"#utility.yul\":5223:5233   */\n      0x4e487b71\n        /* \"#utility.yul\":5218:5221   */\n      0xe0\n        /* \"#utility.yul\":5214:5234   */\n      shl\n        /* \"#utility.yul\":5211:5212   */\n      0x00\n        /* \"#utility.yul\":5204:5235   */\n      mstore\n        /* \"#utility.yul\":5254:5258   */\n      0x21\n        /* \"#utility.yul\":5251:5252   */\n      0x04\n        /* \"#utility.yul\":5244:5259   */\n      mstore\n        /* \"#utility.yul\":5278:5282   */\n      0x24\n        /* \"#utility.yul\":5275:5276   */\n      0x00\n        /* \"#utility.yul\":5268:5283   */\n      revert\n        /* \"#utility.yul\":5294:5433   */\n    tag_411:\n        /* \"#utility.yul\":5374:5375   */\n      0x02\n        /* \"#utility.yul\":5367:5372   */\n      dup2\n        /* \"#utility.yul\":5364:5376   */\n      lt\n        /* \"#utility.yul\":5354:5400   */\n      tag_457\n      jumpi\n        /* \"#utility.yul\":5380:5398   */\n      tag_457\n      tag_210\n      jump\t// in\n    tag_457:\n        /* \"#utility.yul\":5409:5427   */\n      swap1\n      mstore\n        /* \"#utility.yul\":5294:5433   */\n      jump\t// out\n        /* \"#utility.yul\":5438:5578   */\n    tag_412:\n        /* \"#utility.yul\":5519:5520   */\n      0x07\n        /* \"#utility.yul\":5512:5517   */\n      dup2\n        /* \"#utility.yul\":5509:5521   */\n      lt\n        /* \"#utility.yul\":5499:5545   */\n      tag_457\n      jumpi\n        /* \"#utility.yul\":5525:5543   */\n      tag_457\n      tag_210\n      jump\t// in\n        /* \"#utility.yul\":5583:7074   */\n    tag_413:\n        /* \"#utility.yul\":5683:5695   */\n      dup1\n      mload\n      sub(shl(0xa0, 0x01), 0x01)\n        /* \"#utility.yul\":1204:1235   */\n      and\n        /* \"#utility.yul\":1192:1236   */\n      dup3\n      mstore\n        /* \"#utility.yul\":5747:5751   */\n      0x20\n        /* \"#utility.yul\":5740:5745   */\n      dup2\n        /* \"#utility.yul\":5736:5752   */\n      add\n        /* \"#utility.yul\":5730:5753   */\n      mload\n        /* \"#utility.yul\":5762:5826   */\n      tag_463\n        /* \"#utility.yul\":5820:5824   */\n      0x20\n        /* \"#utility.yul\":5815:5818   */\n      dup5\n        /* \"#utility.yul\":5811:5825   */\n      add\n        /* \"#utility.yul\":5797:5809   */\n      dup3\n      sub(shl(0xa0, 0x01), 0x01)\n        /* \"#utility.yul\":1204:1235   */\n      and\n        /* \"#utility.yul\":1192:1236   */\n      swap1\n      mstore\n        /* \"#utility.yul\":1122:1242   */\n      jump\n        /* \"#utility.yul\":5762:5826   */\n    tag_463:\n      pop\n        /* \"#utility.yul\":5875:5879   */\n      0x40\n        /* \"#utility.yul\":5868:5873   */\n      dup2\n        /* \"#utility.yul\":5864:5880   */\n      add\n        /* \"#utility.yul\":5858:5881   */\n      mload\n        /* \"#utility.yul\":5851:5855   */\n      0x40\n        /* \"#utility.yul\":5846:5849   */\n      dup4\n        /* \"#utility.yul\":5842:5856   */\n      add\n        /* \"#utility.yul\":5835:5882   */\n      mstore\n        /* \"#utility.yul\":5930:5934   */\n      0x60\n        /* \"#utility.yul\":5923:5928   */\n      dup2\n        /* \"#utility.yul\":5919:5935   */\n      add\n        /* \"#utility.yul\":5913:5936   */\n      mload\n        /* \"#utility.yul\":5945:6011   */\n      tag_464\n        /* \"#utility.yul\":6005:6009   */\n      0x60\n        /* \"#utility.yul\":6000:6003   */\n      dup5\n        /* \"#utility.yul\":5996:6010   */\n      add\n        /* \"#utility.yul\":5980:5994   */\n      dup3\n      sub(shl(0xa0, 0x01), 0x01)\n        /* \"#utility.yul\":1204:1235   */\n      and\n        /* \"#utility.yul\":1192:1236   */\n      swap1\n      mstore\n        /* \"#utility.yul\":1122:1242   */\n      jump\n        /* \"#utility.yul\":5945:6011   */\n    tag_464:\n      pop\n        /* \"#utility.yul\":6059:6063   */\n      0x80\n        /* \"#utility.yul\":6052:6057   */\n      dup2\n        /* \"#utility.yul\":6048:6064   */\n      add\n        /* \"#utility.yul\":6042:6065   */\n      mload\n        /* \"#utility.yul\":6074:6140   */\n      tag_465\n        /* \"#utility.yul\":6134:6138   */\n      0x80\n        /* \"#utility.yul\":6129:6132   */\n      dup5\n        /* \"#utility.yul\":6125:6139   */\n      add\n        /* \"#utility.yul\":6109:6123   */\n      dup3\n      sub(shl(0xa0, 0x01), 0x01)\n        /* \"#utility.yul\":1204:1235   */\n      and\n        /* \"#utility.yul\":1192:1236   */\n      swap1\n      mstore\n        /* \"#utility.yul\":1122:1242   */\n      jump\n        /* \"#utility.yul\":6074:6140   */\n    tag_465:\n      pop\n        /* \"#utility.yul\":6188:6192   */\n      0xa0\n        /* \"#utility.yul\":6181:6186   */\n      dup2\n        /* \"#utility.yul\":6177:6193   */\n      add\n        /* \"#utility.yul\":6171:6194   */\n      mload\n        /* \"#utility.yul\":6203:6269   */\n      tag_466\n        /* \"#utility.yul\":6263:6267   */\n      0xa0\n        /* \"#utility.yul\":6258:6261   */\n      dup5\n        /* \"#utility.yul\":6254:6268   */\n      add\n        /* \"#utility.yul\":6238:6252   */\n      dup3\n      sub(shl(0xa0, 0x01), 0x01)\n        /* \"#utility.yul\":1204:1235   */\n      and\n        /* \"#utility.yul\":1192:1236   */\n      swap1\n      mstore\n        /* \"#utility.yul\":1122:1242   */\n      jump\n        /* \"#utility.yul\":6203:6269   */\n    tag_466:\n      pop\n        /* \"#utility.yul\":6317:6321   */\n      0xc0\n        /* \"#utility.yul\":6310:6315   */\n      dup2\n        /* \"#utility.yul\":6306:6322   */\n      add\n        /* \"#utility.yul\":6300:6323   */\n      mload\n        /* \"#utility.yul\":6332:6398   */\n      tag_467\n        /* \"#utility.yul\":6392:6396   */\n      0xc0\n        /* \"#utility.yul\":6387:6390   */\n      dup5\n        /* \"#utility.yul\":6383:6397   */\n      add\n        /* \"#utility.yul\":6367:6381   */\n      dup3\n      sub(shl(0xa0, 0x01), 0x01)\n        /* \"#utility.yul\":1204:1235   */\n      and\n        /* \"#utility.yul\":1192:1236   */\n      swap1\n      mstore\n        /* \"#utility.yul\":1122:1242   */\n      jump\n        /* \"#utility.yul\":6332:6398   */\n    tag_467:\n      pop\n        /* \"#utility.yul\":6447:6451   */\n      0xe0\n        /* \"#utility.yul\":6440:6445   */\n      dup2\n        /* \"#utility.yul\":6436:6452   */\n      add\n        /* \"#utility.yul\":6430:6453   */\n      mload\n        /* \"#utility.yul\":6423:6427   */\n      0xe0\n        /* \"#utility.yul\":6418:6421   */\n      dup4\n        /* \"#utility.yul\":6414:6428   */\n      add\n        /* \"#utility.yul\":6407:6454   */\n      mstore\n        /* \"#utility.yul\":6505:6511   */\n      0x0100\n        /* \"#utility.yul\":6498:6503   */\n      dup2\n        /* \"#utility.yul\":6494:6512   */\n      add\n        /* \"#utility.yul\":6488:6513   */\n      mload\n        /* \"#utility.yul\":6479:6485   */\n      0x0100\n        /* \"#utility.yul\":6474:6477   */\n      dup4\n        /* \"#utility.yul\":6470:6486   */\n      add\n        /* \"#utility.yul\":6463:6514   */\n      mstore\n        /* \"#utility.yul\":6565:6571   */\n      0x0120\n        /* \"#utility.yul\":6558:6563   */\n      dup2\n        /* \"#utility.yul\":6554:6572   */\n      add\n        /* \"#utility.yul\":6548:6573   */\n      mload\n        /* \"#utility.yul\":6539:6545   */\n      0x0120\n        /* \"#utility.yul\":6534:6537   */\n      dup4\n        /* \"#utility.yul\":6530:6546   */\n      add\n        /* \"#utility.yul\":6523:6574   */\n      mstore\n        /* \"#utility.yul\":6622:6628   */\n      0x0140\n        /* \"#utility.yul\":6615:6620   */\n      dup2\n        /* \"#utility.yul\":6611:6629   */\n      add\n        /* \"#utility.yul\":6605:6630   */\n      mload\n        /* \"#utility.yul\":6639:6697   */\n      tag_468\n        /* \"#utility.yul\":6689:6695   */\n      0x0140\n        /* \"#utility.yul\":6684:6687   */\n      dup5\n        /* \"#utility.yul\":6680:6696   */\n      add\n        /* \"#utility.yul\":6664:6678   */\n      dup3\n        /* \"#utility.yul\":6639:6697   */\n      tag_411\n      jump\t// in\n    tag_468:\n      pop\n        /* \"#utility.yul\":6745:6751   */\n      0x0160\n        /* \"#utility.yul\":6738:6743   */\n      dup2\n        /* \"#utility.yul\":6734:6752   */\n      add\n        /* \"#utility.yul\":6728:6753   */\n      mload\n        /* \"#utility.yul\":6762:6811   */\n      tag_469\n        /* \"#utility.yul\":6803:6809   */\n      0x0160\n        /* \"#utility.yul\":6798:6801   */\n      dup5\n        /* \"#utility.yul\":6794:6810   */\n      add\n        /* \"#utility.yul\":6778:6792   */\n      dup3\n        /* \"#utility.yul\":375:388   */\n      iszero\n        /* \"#utility.yul\":368:389   */\n      iszero\n        /* \"#utility.yul\":356:390   */\n      swap1\n      mstore\n        /* \"#utility.yul\":305:396   */\n      jump\n        /* \"#utility.yul\":6762:6811   */\n    tag_469:\n      pop\n        /* \"#utility.yul\":6859:6865   */\n      0x0180\n        /* \"#utility.yul\":6852:6857   */\n      dup2\n        /* \"#utility.yul\":6848:6866   */\n      add\n        /* \"#utility.yul\":6842:6867   */\n      mload\n        /* \"#utility.yul\":6876:6935   */\n      tag_470\n        /* \"#utility.yul\":6927:6933   */\n      0x0180\n        /* \"#utility.yul\":6922:6925   */\n      dup5\n        /* \"#utility.yul\":6918:6934   */\n      add\n        /* \"#utility.yul\":6902:6916   */\n      dup3\n        /* \"#utility.yul\":6876:6935   */\n      tag_412\n      jump\t// in\n    tag_470:\n      pop\n        /* \"#utility.yul\":6983:6989   */\n      0x01a0\n        /* \"#utility.yul\":6976:6981   */\n      dup2\n        /* \"#utility.yul\":6972:6990   */\n      add\n        /* \"#utility.yul\":6966:6991   */\n      mload\n        /* \"#utility.yul\":7000:7068   */\n      tag_188\n        /* \"#utility.yul\":7060:7066   */\n      0x01a0\n        /* \"#utility.yul\":7055:7058   */\n      dup5\n        /* \"#utility.yul\":7051:7067   */\n      add\n        /* \"#utility.yul\":7035:7049   */\n      dup3\n      sub(shl(0xa0, 0x01), 0x01)\n        /* \"#utility.yul\":1204:1235   */\n      and\n        /* \"#utility.yul\":1192:1236   */\n      swap1\n      mstore\n        /* \"#utility.yul\":1122:1242   */\n      jump\n        /* \"#utility.yul\":7079:7773   */\n    tag_91:\n        /* \"#utility.yul\":7325:7327   */\n      0x20\n        /* \"#utility.yul\":7337:7358   */\n      dup1\n      dup3\n      mstore\n        /* \"#utility.yul\":7407:7420   */\n      dup3\n      mload\n        /* \"#utility.yul\":7310:7328   */\n      dup3\n      dup3\n      add\n        /* \"#utility.yul\":7429:7451   */\n      dup2\n      swap1\n      mstore\n        /* \"#utility.yul\":7277:7281   */\n      0x00\n      swap2\n        /* \"#utility.yul\":7508:7523   */\n      dup5\n      add\n      swap1\n        /* \"#utility.yul\":7482:7484   */\n      0x40\n        /* \"#utility.yul\":7467:7485   */\n      dup5\n      add\n      swap1\n        /* \"#utility.yul\":7277:7281   */\n      dup4\n        /* \"#utility.yul\":7551:7747   */\n    tag_473:\n        /* \"#utility.yul\":7565:7571   */\n      dup2\n        /* \"#utility.yul\":7562:7563   */\n      dup2\n        /* \"#utility.yul\":7559:7572   */\n      lt\n        /* \"#utility.yul\":7551:7747   */\n      iszero\n      tag_438\n      jumpi\n        /* \"#utility.yul\":7614:7663   */\n      tag_476\n        /* \"#utility.yul\":7659:7662   */\n      dup4\n        /* \"#utility.yul\":7650:7656   */\n      dup6\n        /* \"#utility.yul\":7644:7657   */\n      mload\n        /* \"#utility.yul\":7614:7663   */\n      tag_413\n      jump\t// in\n    tag_476:\n        /* \"#utility.yul\":7734:7736   */\n      0x20\n        /* \"#utility.yul\":7722:7737   */\n      swap4\n      swap1\n      swap4\n      add\n      swap3\n        /* \"#utility.yul\":7692:7698   */\n      0x01c0\n        /* \"#utility.yul\":7683:7699   */\n      swap3\n      swap1\n      swap3\n      add\n      swap2\n        /* \"#utility.yul\":7587:7588   */\n      0x01\n        /* \"#utility.yul\":7580:7589   */\n      add\n        /* \"#utility.yul\":7551:7747   */\n      jump(tag_473)\n        /* \"#utility.yul\":8312:8722   */\n    tag_122:\n        /* \"#utility.yul\":8393:8399   */\n      0x00\n        /* \"#utility.yul\":8401:8407   */\n      dup1\n        /* \"#utility.yul\":8454:8456   */\n      0x40\n        /* \"#utility.yul\":8442:8451   */\n      dup4\n        /* \"#utility.yul\":8433:8440   */\n      dup6\n        /* \"#utility.yul\":8429:8452   */\n      sub\n        /* \"#utility.yul\":8425:8457   */\n      slt\n        /* \"#utility.yul\":8422:8474   */\n      iszero\n      tag_480\n      jumpi\n        /* \"#utility.yul\":8470:8471   */\n      0x00\n        /* \"#utility.yul\":8467:8468   */\n      dup1\n        /* \"#utility.yul\":8460:8472   */\n      revert\n        /* \"#utility.yul\":8422:8474   */\n    tag_480:\n        /* \"#utility.yul\":8509:8518   */\n      dup3\n        /* \"#utility.yul\":8496:8519   */\n      calldataload\n        /* \"#utility.yul\":8528:8559   */\n      tag_481\n        /* \"#utility.yul\":8553:8558   */\n      dup2\n        /* \"#utility.yul\":8528:8559   */\n      tag_408\n      jump\t// in\n    tag_481:\n        /* \"#utility.yul\":8578:8583   */\n      swap2\n      pop\n        /* \"#utility.yul\":8635:8637   */\n      0x20\n        /* \"#utility.yul\":8620:8638   */\n      dup4\n      add\n        /* \"#utility.yul\":8607:8639   */\n      calldataload\n        /* \"#utility.yul\":8670:8671   */\n      0x07\n        /* \"#utility.yul\":8658:8672   */\n      dup2\n      lt\n        /* \"#utility.yul\":8648:8690   */\n      tag_425\n      jumpi\n        /* \"#utility.yul\":8686:8687   */\n      0x00\n        /* \"#utility.yul\":8683:8684   */\n      dup1\n        /* \"#utility.yul\":8676:8688   */\n      revert\n        /* \"#utility.yul\":8727:8934   */\n    tag_134:\n        /* \"#utility.yul\":8872:8874   */\n      0x20\n        /* \"#utility.yul\":8857:8875   */\n      dup2\n      add\n        /* \"#utility.yul\":8884:8928   */\n      tag_157\n        /* \"#utility.yul\":8861:8870   */\n      dup3\n        /* \"#utility.yul\":8910:8916   */\n      dup5\n        /* \"#utility.yul\":8884:8928   */\n      tag_412\n      jump\t// in\n        /* \"#utility.yul\":8939:9196   */\n    tag_139:\n        /* \"#utility.yul\":9129:9132   */\n      0x01c0\n        /* \"#utility.yul\":9114:9133   */\n      dup2\n      add\n        /* \"#utility.yul\":9142:9190   */\n      tag_157\n        /* \"#utility.yul\":9118:9127   */\n      dup3\n        /* \"#utility.yul\":9172:9178   */\n      dup5\n        /* \"#utility.yul\":9142:9190   */\n      tag_413\n      jump\t// in\n        /* \"#utility.yul\":9729:10072   */\n    tag_166:\n        /* \"#utility.yul\":9931:9933   */\n      0x20\n        /* \"#utility.yul\":9913:9934   */\n      dup1\n      dup3\n      mstore\n        /* \"#utility.yul\":9970:9972   */\n      0x13\n        /* \"#utility.yul\":9950:9968   */\n      swap1\n      dup3\n      add\n        /* \"#utility.yul\":9943:9973   */\n      mstore\n      shl(0x6a, 0x141bdbdb081b9bdd081c9959da5cdd195c9959)\n        /* \"#utility.yul\":10004:10006   */\n      0x40\n        /* \"#utility.yul\":9989:10007   */\n      dup3\n      add\n        /* \"#utility.yul\":9982:10031   */\n      mstore\n        /* \"#utility.yul\":10063:10065   */\n      0x60\n        /* \"#utility.yul\":10048:10066   */\n      add\n      swap1\n        /* \"#utility.yul\":9729:10072   */\n      jump\t// out\n        /* \"#utility.yul\":11596:11898   */\n    tag_222:\n      sub(shl(0xa0, 0x01), 0x01)\n        /* \"#utility.yul\":11798:11830   */\n      dup4\n      and\n        /* \"#utility.yul\":11780:11831   */\n      dup2\n      mstore\n        /* \"#utility.yul\":11768:11770   */\n      0x40\n        /* \"#utility.yul\":11753:11771   */\n      dup2\n      add\n        /* \"#utility.yul\":11840:11892   */\n      tag_417\n        /* \"#utility.yul\":11888:11890   */\n      0x20\n        /* \"#utility.yul\":11873:11891   */\n      dup4\n      add\n        /* \"#utility.yul\":11865:11871   */\n      dup5\n        /* \"#utility.yul\":11840:11892   */\n      tag_411\n      jump\t// in\n        /* \"#utility.yul\":11903:12030   */\n    tag_228:\n        /* \"#utility.yul\":11964:11974   */\n      0x4e487b71\n        /* \"#utility.yul\":11959:11962   */\n      0xe0\n        /* \"#utility.yul\":11955:11975   */\n      shl\n        /* \"#utility.yul\":11952:11953   */\n      0x00\n        /* \"#utility.yul\":11945:11976   */\n      mstore\n        /* \"#utility.yul\":11995:11999   */\n      0x41\n        /* \"#utility.yul\":11992:11993   */\n      0x04\n        /* \"#utility.yul\":11985:12000   */\n      mstore\n        /* \"#utility.yul\":12019:12023   */\n      0x24\n        /* \"#utility.yul\":12016:12017   */\n      0x00\n        /* \"#utility.yul\":12009:12024   */\n      revert\n        /* \"#utility.yul\":12035:12162   */\n    tag_238:\n        /* \"#utility.yul\":12096:12106   */\n      0x4e487b71\n        /* \"#utility.yul\":12091:12094   */\n      0xe0\n        /* \"#utility.yul\":12087:12107   */\n      shl\n        /* \"#utility.yul\":12084:12085   */\n      0x00\n        /* \"#utility.yul\":12077:12108   */\n      mstore\n        /* \"#utility.yul\":12127:12131   */\n      0x32\n        /* \"#utility.yul\":12124:12125   */\n      0x04\n        /* \"#utility.yul\":12117:12132   */\n      mstore\n        /* \"#utility.yul\":12151:12155   */\n      0x24\n        /* \"#utility.yul\":12148:12149   */\n      0x00\n        /* \"#utility.yul\":12141:12156   */\n      revert\n        /* \"#utility.yul\":12922:13230   */\n    tag_275:\n        /* \"#utility.yul\":13106:13108   */\n      0x40\n        /* \"#utility.yul\":13091:13109   */\n      dup2\n      add\n        /* \"#utility.yul\":13118:13162   */\n      tag_501\n        /* \"#utility.yul\":13095:13104   */\n      dup3\n        /* \"#utility.yul\":13144:13150   */\n      dup6\n        /* \"#utility.yul\":13118:13162   */\n      tag_412\n      jump\t// in\n    tag_501:\n        /* \"#utility.yul\":13171:13224   */\n      tag_417\n        /* \"#utility.yul\":13220:13222   */\n      0x20\n        /* \"#utility.yul\":13209:13218   */\n      dup4\n        /* \"#utility.yul\":13205:13223   */\n      add\n        /* \"#utility.yul\":13197:13203   */\n      dup5\n        /* \"#utility.yul\":13171:13224   */\n      tag_412\n      jump\t// in\n        /* \"#utility.yul\":14044:14269   */\n    tag_355:\n        /* \"#utility.yul\":14111:14120   */\n      dup2\n      dup2\n      sub\n        /* \"#utility.yul\":14132:14143   */\n      dup2\n      dup2\n      gt\n        /* \"#utility.yul\":14129:14263   */\n      iszero\n      tag_157\n      jumpi\n        /* \"#utility.yul\":14185:14195   */\n      0x4e487b71\n        /* \"#utility.yul\":14180:14183   */\n      0xe0\n        /* \"#utility.yul\":14176:14196   */\n      shl\n        /* \"#utility.yul\":14173:14174   */\n      0x00\n        /* \"#utility.yul\":14166:14197   */\n      mstore\n        /* \"#utility.yul\":14220:14224   */\n      0x11\n        /* \"#utility.yul\":14217:14218   */\n      0x04\n        /* \"#utility.yul\":14210:14225   */\n      mstore\n        /* \"#utility.yul\":14248:14252   */\n      0x24\n        /* \"#utility.yul\":14245:14246   */\n      0x00\n        /* \"#utility.yul\":14238:14253   */\n      revert\n        /* \"#utility.yul\":14274:14401   */\n    tag_364:\n        /* \"#utility.yul\":14335:14345   */\n      0x4e487b71\n        /* \"#utility.yul\":14330:14333   */\n      0xe0\n        /* \"#utility.yul\":14326:14346   */\n      shl\n        /* \"#utility.yul\":14323:14324   */\n      0x00\n        /* \"#utility.yul\":14316:14347   */\n      mstore\n        /* \"#utility.yul\":14366:14370   */\n      0x31\n        /* \"#utility.yul\":14363:14364   */\n      0x04\n        /* \"#utility.yul\":14356:14371   */\n      mstore\n        /* \"#utility.yul\":14390:14394   */\n      0x24\n        /* \"#utility.yul\":14387:14388   */\n      0x00\n        /* \"#utility.yul\":14380:14395   */\n      revert\n\n    auxdata: 0xa26469706673582212206d1a1197a7b0c64f985e9f6cdc927f89f392d3a6a820d17aa8271fcc23c6619d64736f6c634300081a0033\n}\n",
				"bytecode": {
					"linkReferences": {},
					"object": "608060405234801561000f575f80fd5b5061001a5f3361004b565b506100457f6077685936c8169d09204a1d97db12e41713588c38e1d29a61867d3dcee98aff3361004b565b506100f4565b5f828152602081815260408083206001600160a01b038516845290915281205460ff166100eb575f838152602081815260408083206001600160a01b03861684529091529020805460ff191660011790556100a33390565b6001600160a01b0316826001600160a01b0316847f2f8788117e7eff1d82e926ec794901d17c78024a50270940304540a733656f0d60405160405180910390a45060016100ee565b505f5b92915050565b6121fe806101015f395ff3fe608060405234801561000f575f80fd5b50600436106101c6575f3560e01c80637570e389116100fe578063c489579d1161009e578063d3ffe67a1161006e578063d3ffe67a14610462578063d547741f1461046a578063e7ef32f71461047d578063ec20954414610490575f80fd5b8063c489579d146103ef578063c56f1b4414610402578063c81c3bef1461040a578063d3e90fa014610442575f80fd5b806391d14854116100d957806391d148541461039c578063a217fddf146103af578063a8d088bb146103b6578063a956239b146103dc575f80fd5b80637570e389146103635780637e72c7d7146103765780638a4adf2414610389575f80fd5b80632f2ff15d11610169578063437560201161014457806343756020146102f657806352fc9b0e1461030957806356d73568146103295780635d102df714610350575f80fd5b80632f2ff15d146102bd57806336568abe146102d057806337e238c5146102e3575f80fd5b80631e4966ab116101a45780631e4966ab146102325780631f2f2e141461025a578063248a9ca31461026d57806324a44efb1461029d575f80fd5b806301ffc9a7146101ca57806305c4fdf9146101f25780630f4ef8a614610207575b5f80fd5b6101dd6101d8366004611d3b565b6104a3565b60405190151581526020015b60405180910390f35b610205610200366004611d7d565b6104d9565b005b60025461021a906001600160a01b031681565b6040516001600160a01b0390911681526020016101e9565b61021a610240366004611db4565b60066020525f90815260409020546001600160a01b031681565b610205610268366004611db4565b610640565b61028f61027b366004611dcf565b5f9081526020819052604090206001015490565b6040519081526020016101e9565b6102b06102ab366004611db4565b61069e565b6040516101e99190611de6565b6102056102cb366004611e31565b610711565b6102056102de366004611e31565b61073b565b6102056102f1366004611d7d565b610773565b610205610304366004611e67565b6108a4565b61031c610317366004611db4565b610cdf565b6040516101e99190612079565b61028f7f6077685936c8169d09204a1d97db12e41713588c38e1d29a61867d3dcee98aff81565b61020561035e366004611db4565b610f2e565b61021a610371366004611db4565b610fb4565b610205610384366004611db4565b611046565b60015461021a906001600160a01b031681565b6101dd6103aa366004611e31565b61116d565b61028f5f81565b600154600254604080516001600160a01b039384168152929091166020830152016101e9565b6102056103ea3660046120bc565b611195565b6102056103fd366004611d7d565b611250565b6102b061138d565b610435610418366004611db4565b6001600160a01b03165f9081526008602052604090205460ff1690565b6040516101e991906120eb565b610455610450366004611db4565b6113ed565b6040516101e991906120f9565b60035461028f565b610205610478366004611e31565b611562565b6102b061048b366004611db4565b611586565b61031c61049e366004611db4565b6115f7565b5f6001600160e01b03198216637965db0b60e01b14806104d357506301ffc9a760e01b6001600160e01b03198316145b92915050565b6001600160a01b038216158015906104f957506001600160a01b03811615155b61053e5760405162461bcd60e51b8152602060048201526011602482015270496e76616c69642061646472657373657360781b60448201526064015b60405180910390fd5b6001600160a01b038281165f90815260046020526040902054166105745760405162461bcd60e51b815260040161053590612108565b6001600160a01b038281165f9081526006602052604090205416156105ea5760405162461bcd60e51b815260206004820152602660248201527f5661756c7420616c7265616479207265676973746572656420666f72207468696044820152651cc81c1bdbdb60d21b6064820152608401610535565b6001600160a01b038281165f8181526006602052604080822080546001600160a01b0319169486169485179055517ff8ee9039d8e4d43426638703c71517008894fdea742bb2d2dbff5a46fb07abdb9190a35050565b6001600160a01b038181165f90815260046020526040902054166106765760405162461bcd60e51b815260040161053590612108565b6001600160a01b03165f908152600460205260409020600a01805461ff001916610100179055565b6001600160a01b0381165f9081526005602090815260409182902080548351818402810184019094528084526060939283018282801561070557602002820191905f5260205f20905b81546001600160a01b031681526001909101906020018083116106e7575b50505050509050919050565b5f8281526020819052604090206001015461072b8161183e565b6107358383611848565b50505050565b6001600160a01b03811633146107645760405163334bd91960e11b815260040160405180910390fd5b61076e82826118d7565b505050565b6001600160a01b038281165f90815260046020526040902054166107a95760405162461bcd60e51b815260040161053590612108565b6001600160a01b03811661080b5760405162461bcd60e51b815260206004820152602360248201527f426f72726f7765722063616e6e6f7420626520746865207a65726f206164647260448201526265737360e81b6064820152608401610535565b6001600160a01b038083165f908152600460205260409020600101548116908216811461076e576001600160a01b0381161561084b5761084b8184611940565b6001600160a01b038083165f818152600760209081526040808320805460018181018355918552838520018054968a166001600160a01b0319978816811790915584526004909252909120018054909216179055505050565b6001600160a01b038b166108fa5760405162461bcd60e51b815260206004820152601b60248201527f506f6f6c20616464726573732063616e6e6f74206265207a65726f00000000006044820152606401610535565b6001600160a01b038b81165f9081526004602052604090205416156109615760405162461bcd60e51b815260206004820152601760248201527f506f6f6c20616c726561647920726567697374657265640000000000000000006044820152606401610535565b604051806101c001604052808b6001600160a01b031681526020018a6001600160a01b03168152602001428152602001896001600160a01b03168152602001886001600160a01b03168152602001876001600160a01b03168152602001866001600160a01b031681526020018581526020018481526020018381526020018260018111156109f1576109f1611f25565b81525f6020820181905260409091019081526001600160a01b03808e1660209283018190525f9081526004808452604091829020855181549085166001600160a01b03199182161782559486015160018083018054928716928816929092179091559286015160028201556060860151600382018054918616918716919091179055608086015191810180549285169286169290921790915560a085015160058201805491851691861691909117905560c08501516006820180549190941694169390931790915560e0830151600783015561010083015160088301556101208301516009830155610140830151600a830180549192909160ff1916908381811115610aff57610aff611f25565b0217905550610160820151600a820180549115156101000261ff00198316811782556101808501519262ff00001990911662ffff00199091161762010000836006811115610b4f57610b4f611f25565b02179055506101a082015181600a0160036101000a8154816001600160a01b0302191690836001600160a01b0316021790555090505060055f8b6001600160a01b03166001600160a01b031681526020019081526020015f208b908060018154018082558091505060019003905f5260205f20015f9091909190916101000a8154816001600160a01b0302191690836001600160a01b0316021790555060038b908060018154018082558091505060019003905f5260205f20015f9091909190916101000a8154816001600160a01b0302191690836001600160a01b031602179055505f60085f8d6001600160a01b03166001600160a01b031681526020019081526020015f205f6101000a81548160ff02191690836006811115610c7657610c76611f25565b0217905550886001600160a01b03168a6001600160a01b03168c6001600160a01b03167f8f723e49dc038e67c41b41307a1e0c65653d50125a0c474a21ac32d9a0b24d2b8b85604051610cca929190612135565b60405180910390a45050505050505050505050565b6001600160a01b0381165f908152600560209081526040808320805482518185028101850190935280835260609493830182828015610d4557602002820191905f5260205f20905b81546001600160a01b03168152600190910190602001808311610d27575b505050505090505f815167ffffffffffffffff811115610d6757610d67612152565b604051908082528060200260200182016040528015610da057816020015b610d8d611cc8565b815260200190600190039081610d855790505b5090505f5b8251811015610f265760045f848381518110610dc357610dc3612166565b6020908102919091018101516001600160a01b0390811683528282019390935260409182015f2082516101c0810184528154851681526001808301548616938201939093526002820154938101939093526003810154841660608401526004810154841660808401526005810154841660a0840152600681015490931660c0830152600783015460e083015260088301546101008301526009830154610120830152600a83015491929161014084019160ff90911690811115610e8857610e88611f25565b6001811115610e9957610e99611f25565b8152600a82015460ff610100820481161515602084015260409092019162010000909104166006811115610ecf57610ecf611f25565b6006811115610ee057610ee0611f25565b8152600a9190910154630100000090046001600160a01b03166020909101528251839083908110610f1357610f13612166565b6020908102919091010152600101610da5565b509392505050565b610f385f3361116d565b610f7d5760405162461bcd60e51b815260206004820152601660248201527521b0b63632b91034b9903737ba1030b71030b236b4b760511b6044820152606401610535565b610fa77f6077685936c8169d09204a1d97db12e41713588c38e1d29a61867d3dcee98aff82610711565b610fb15f82610711565b50565b6001600160a01b038181165f908152600660205260408120549091166110285760405162461bcd60e51b815260206004820152602360248201527f506f6f6c206e6f742072656769737465726564206f7220686173206e6f2076616044820152621d5b1d60ea1b6064820152608401610535565b506001600160a01b039081165f908152600660205260409020541690565b6001600160a01b038181165f908152600460205260409020541661107c5760405162461bcd60e51b815260040161053590612108565b6001600160a01b038082165f90815260046020526040902054166110a08183611a7a565b6110a982611b70565b6001600160a01b0382165f81815260046020818152604080842080546001600160a01b031990811682556001820180548216905560028201869055600382018054821690559381018054851690556005810180548516905560068101805490941690935560078301849055600880840185905560098401859055600a90930180546001600160b81b0319169055919052808220805460ff19169055517f334d0b2111287dfddebe4b4c1c5af3ae644909d7fcd024377bf601e236ed5abb9190a25050565b5f918252602082815260408084206001600160a01b0393909316845291905290205460ff1690565b6001600160a01b038281165f90815260046020526040902054166111cb5760405162461bcd60e51b815260040161053590612108565b6001600160a01b0382165f908152600860205260409020805460ff811691839160ff1916600183600681111561120357611203611f25565b0217905550826001600160a01b03167f0a61679a80e33b8ccd7049ed35b83f875349aa2875ef98ce5ba441a88761fb4e828460405161124392919061217a565b60405180910390a2505050565b5f61125a8161183e565b6001600160a01b0383166112bc5760405162461bcd60e51b815260206004820152602360248201527f5661756c744d616e616765722063616e6e6f74206265207a65726f206164647260448201526265737360e81b6064820152608401610535565b6001600160a01b03821661131e5760405162461bcd60e51b8152602060048201526024808201527f5265776172644d616e616765722063616e6e6f74206265207a65726f206164646044820152637265737360e01b6064820152608401610535565b600180546001600160a01b038581166001600160a01b03199283168117909355600280549186169190921681179091556040805192835260208301919091527f8fc18cc172f74c81235145b7927190d2bd0e351fc45bfb17bb572593273cef21910160405180910390a1505050565b606060038054806020026020016040519081016040528092919081815260200182805480156113e357602002820191905f5260205f20905b81546001600160a01b031681526001909101906020018083116113c5575b5050505050905090565b6113f5611cc8565b6001600160a01b038281165f908152600460205260409020541661142b5760405162461bcd60e51b815260040161053590612108565b6001600160a01b038083165f9081526004602081815260409283902083516101c08101855281548616815260018083015487169382019390935260028201549481019490945260038101548516606085015291820154841660808401526005820154841660a0840152600682015490931660c0830152600781015460e083015260088101546101008301526009810154610120830152600a8101549192909161014084019160ff909116908111156114e5576114e5611f25565b60018111156114f6576114f6611f25565b8152600a82015460ff61010082048116151560208401526040909201916201000090910416600681111561152c5761152c611f25565b600681111561153d5761153d611f25565b8152600a9190910154630100000090046001600160a01b031660209091015292915050565b5f8281526020819052604090206001015461157c8161183e565b61073583836118d7565b6001600160a01b0381165f9081526007602090815260409182902080548351818402810184019094528084526060939283018282801561070557602002820191905f5260205f209081546001600160a01b031681526001909101906020018083116106e75750505050509050919050565b6001600160a01b0381165f90815260076020908152604080832080548251818502810185019093528083526060949383018282801561165d57602002820191905f5260205f20905b81546001600160a01b0316815260019091019060200180831161163f575b505050505090505f815167ffffffffffffffff81111561167f5761167f612152565b6040519080825280602002602001820160405280156116b857816020015b6116a5611cc8565b81526020019060019003908161169d5790505b5090505f5b8251811015610f265760045f8483815181106116db576116db612166565b6020908102919091018101516001600160a01b0390811683528282019390935260409182015f2082516101c0810184528154851681526001808301548616938201939093526002820154938101939093526003810154841660608401526004810154841660808401526005810154841660a0840152600681015490931660c0830152600783015460e083015260088301546101008301526009830154610120830152600a83015491929161014084019160ff909116908111156117a0576117a0611f25565b60018111156117b1576117b1611f25565b8152600a82015460ff6101008204811615156020840152604090920191620100009091041660068111156117e7576117e7611f25565b60068111156117f8576117f8611f25565b8152600a9190910154630100000090046001600160a01b0316602090910152825183908390811061182b5761182b612166565b60209081029190910101526001016116bd565b610fb18133611c31565b5f611853838361116d565b6118d0575f838152602081815260408083206001600160a01b03861684529091529020805460ff191660011790556118883390565b6001600160a01b0316826001600160a01b0316847f2f8788117e7eff1d82e926ec794901d17c78024a50270940304540a733656f0d60405160405180910390a45060016104d3565b505f6104d3565b5f6118e2838361116d565b156118d0575f838152602081815260408083206001600160a01b0386168085529252808320805460ff1916905551339286917ff6391f5c32d9c69d2a47ea670b442974b53935d1edc7fd64eb21e047a839171b9190a45060016104d3565b6001600160a01b0382165f9081526007602052604081206119619083611c6e565b6001600160a01b0384165f9081526007602052604090205490915081101561076e576001600160a01b0383165f908152600760205260408120546119a790600190612195565b6001600160a01b0385165f908152600760205260409020805491925090829081106119d4576119d4612166565b5f9182526020808320909101546001600160a01b03878116845260079092526040909220805491909216919084908110611a1057611a10612166565b5f91825260208083209190910180546001600160a01b0319166001600160a01b039485161790559186168152600790915260409020805480611a5457611a546121b4565b5f8281526020902081015f1990810180546001600160a01b031916905501905550505050565b6001600160a01b0382165f908152600560205260408120611a9b9083611c6e565b6001600160a01b0384165f9081526005602052604081205491925090611ac390600190612195565b6001600160a01b0385165f90815260056020526040902080549192509082908110611af057611af0612166565b5f9182526020808320909101546001600160a01b03878116845260059092526040909220805491909216919084908110611b2c57611b2c612166565b5f91825260208083209190910180546001600160a01b0319166001600160a01b039485161790559186168152600590915260409020805480611a5457611a546121b4565b5f611b7c600383611c6e565b6003549091505f90611b9090600190612195565b905060038181548110611ba557611ba5612166565b5f91825260209091200154600380546001600160a01b039092169184908110611bd057611bd0612166565b905f5260205f20015f6101000a8154816001600160a01b0302191690836001600160a01b031602179055506003805480611c0c57611c0c6121b4565b5f8281526020902081015f1990810180546001600160a01b0319169055019055505050565b611c3b828261116d565b611c6a5760405163e2517d3f60e01b81526001600160a01b038216600482015260248101839052604401610535565b5050565b5f805b8354811015611cbe57826001600160a01b0316848281548110611c9657611c96612166565b5f918252602090912001546001600160a01b031603611cb65790506104d3565b600101611c71565b505f199392505050565b604080516101c0810182525f80825260208201819052918101829052606081018290526080810182905260a0810182905260c0810182905260e08101829052610100810182905261012081018290526101408101829052610160810182905261018081018290526101a081019190915290565b5f60208284031215611d4b575f80fd5b81356001600160e01b031981168114611d62575f80fd5b9392505050565b6001600160a01b0381168114610fb1575f80fd5b5f8060408385031215611d8e575f80fd5b8235611d9981611d69565b91506020830135611da981611d69565b809150509250929050565b5f60208284031215611dc4575f80fd5b8135611d6281611d69565b5f60208284031215611ddf575f80fd5b5035919050565b602080825282518282018190525f918401906040840190835b81811015611e265783516001600160a01b0316835260209384019390920191600101611dff565b509095945050505050565b5f8060408385031215611e42575f80fd5b823591506020830135611da981611d69565b803560028110611e62575f80fd5b919050565b5f805f805f805f805f805f6101608c8e031215611e82575f80fd5b8b35611e8d81611d69565b9a5060208c0135611e9d81611d69565b995060408c0135611ead81611d69565b985060608c0135611ebd81611d69565b975060808c0135611ecd81611d69565b965060a08c0135611edd81611d69565b955060c08c0135611eed81611d69565b945060e08c013593506101008c013592506101208c01359150611f136101408d01611e54565b90509295989b509295989b9093969950565b634e487b7160e01b5f52602160045260245ffd5b60028110611f4957611f49611f25565b9052565b60078110611f4957611f49611f25565b80516001600160a01b031682526020810151611f8460208401826001600160a01b03169052565b50604081015160408301526060810151611fa960608401826001600160a01b03169052565b506080810151611fc460808401826001600160a01b03169052565b5060a0810151611fdf60a08401826001600160a01b03169052565b5060c0810151611ffa60c08401826001600160a01b03169052565b5060e081015160e0830152610100810151610100830152610120810151610120830152610140810151612031610140840182611f39565b5061016081015161204761016084018215159052565b5061018081015161205c610180840182611f4d565b506101a081015161076e6101a08401826001600160a01b03169052565b602080825282518282018190525f918401906040840190835b81811015611e26576120a5838551611f5d565b602093909301926101c09290920191600101612092565b5f80604083850312156120cd575f80fd5b82356120d881611d69565b9150602083013560078110611da9575f80fd5b602081016104d38284611f4d565b6101c081016104d38284611f5d565b602080825260139082015272141bdbdb081b9bdd081c9959da5cdd195c9959606a1b604082015260600190565b6001600160a01b038316815260408101611d626020830184611f39565b634e487b7160e01b5f52604160045260245ffd5b634e487b7160e01b5f52603260045260245ffd5b604081016121888285611f4d565b611d626020830184611f4d565b818103818111156104d357634e487b7160e01b5f52601160045260245ffd5b634e487b7160e01b5f52603160045260245ffdfea26469706673582212206d1a1197a7b0c64f985e9f6cdc927f89f392d3a6a820d17aa8271fcc23c6619d64736f6c634300081a0033",
					"opcodes": "PUSH1 0x80 PUSH1 0x40 MSTORE CALLVALUE DUP1 ISZERO PUSH2 0xF JUMPI PUSH0 DUP1 REVERT JUMPDEST POP PUSH2 0x1A PUSH0 CALLER PUSH2 0x4B JUMP JUMPDEST POP PUSH2 0x45 PUSH32 0x6077685936C8169D09204A1D97DB12E41713588C38E1D29A61867D3DCEE98AFF CALLER PUSH2 0x4B JUMP JUMPDEST POP PUSH2 0xF4 JUMP JUMPDEST PUSH0 DUP3 DUP2 MSTORE PUSH1 0x20 DUP2 DUP2 MSTORE PUSH1 0x40 DUP1 DUP4 KECCAK256 PUSH1 0x1 PUSH1 0x1 PUSH1 0xA0 SHL SUB DUP6 AND DUP5 MSTORE SWAP1 SWAP2 MSTORE DUP2 KECCAK256 SLOAD PUSH1 0xFF AND PUSH2 0xEB JUMPI PUSH0 DUP4 DUP2 MSTORE PUSH1 0x20 DUP2 DUP2 MSTORE PUSH1 0x40 DUP1 DUP4 KECCAK256 PUSH1 0x1 PUSH1 0x1 PUSH1 0xA0 SHL SUB DUP7 AND DUP5 MSTORE SWAP1 SWAP2 MSTORE SWAP1 KECCAK256 DUP1 SLOAD PUSH1 0xFF NOT AND PUSH1 0x1 OR SWAP1 SSTORE PUSH2 0xA3 CALLER SWAP1 JUMP JUMPDEST PUSH1 0x1 PUSH1 0x1 PUSH1 0xA0 SHL SUB AND DUP3 PUSH1 0x1 PUSH1 0x1 PUSH1 0xA0 SHL SUB AND DUP5 PUSH32 0x2F8788117E7EFF1D82E926EC794901D17C78024A50270940304540A733656F0D PUSH1 0x40 MLOAD PUSH1 0x40 MLOAD DUP1 SWAP2 SUB SWAP1 LOG4 POP PUSH1 0x1 PUSH2 0xEE JUMP JUMPDEST POP PUSH0 JUMPDEST SWAP3 SWAP2 POP POP JUMP JUMPDEST PUSH2 0x21FE DUP1 PUSH2 0x101 PUSH0 CODECOPY PUSH0 RETURN INVALID PUSH1 0x80 PUSH1 0x40 MSTORE CALLVALUE DUP1 ISZERO PUSH2 0xF JUMPI PUSH0 DUP1 REVERT JUMPDEST POP PUSH1 0x4 CALLDATASIZE LT PUSH2 0x1C6 JUMPI PUSH0 CALLDATALOAD PUSH1 0xE0 SHR DUP1 PUSH4 0x7570E389 GT PUSH2 0xFE JUMPI DUP1 PUSH4 0xC489579D GT PUSH2 0x9E JUMPI DUP1 PUSH4 0xD3FFE67A GT PUSH2 0x6E JUMPI DUP1 PUSH4 0xD3FFE67A EQ PUSH2 0x462 JUMPI DUP1 PUSH4 0xD547741F EQ PUSH2 0x46A JUMPI DUP1 PUSH4 0xE7EF32F7 EQ PUSH2 0x47D JUMPI DUP1 PUSH4 0xEC209544 EQ PUSH2 0x490 JUMPI PUSH0 DUP1 REVERT JUMPDEST DUP1 PUSH4 0xC489579D EQ PUSH2 0x3EF JUMPI DUP1 PUSH4 0xC56F1B44 EQ PUSH2 0x402 JUMPI DUP1 PUSH4 0xC81C3BEF EQ PUSH2 0x40A JUMPI DUP1 PUSH4 0xD3E90FA0 EQ PUSH2 0x442 JUMPI PUSH0 DUP1 REVERT JUMPDEST DUP1 PUSH4 0x91D14854 GT PUSH2 0xD9 JUMPI DUP1 PUSH4 0x91D14854 EQ PUSH2 0x39C JUMPI DUP1 PUSH4 0xA217FDDF EQ PUSH2 0x3AF JUMPI DUP1 PUSH4 0xA8D088BB EQ PUSH2 0x3B6 JUMPI DUP1 PUSH4 0xA956239B EQ PUSH2 0x3DC JUMPI PUSH0 DUP1 REVERT JUMPDEST DUP1 PUSH4 0x7570E389 EQ PUSH2 0x363 JUMPI DUP1 PUSH4 0x7E72C7D7 EQ PUSH2 0x376 JUMPI DUP1 PUSH4 0x8A4ADF24 EQ PUSH2 0x389 JUMPI PUSH0 DUP1 REVERT JUMPDEST DUP1 PUSH4 0x2F2FF15D GT PUSH2 0x169 JUMPI DUP1 PUSH4 0x43756020 GT PUSH2 0x144 JUMPI DUP1 PUSH4 0x43756020 EQ PUSH2 0x2F6 JUMPI DUP1 PUSH4 0x52FC9B0E EQ PUSH2 0x309 JUMPI DUP1 PUSH4 0x56D73568 EQ PUSH2 0x329 JUMPI DUP1 PUSH4 0x5D102DF7 EQ PUSH2 0x350 JUMPI PUSH0 DUP1 REVERT JUMPDEST DUP1 PUSH4 0x2F2FF15D EQ PUSH2 0x2BD JUMPI DUP1 PUSH4 0x36568ABE EQ PUSH2 0x2D0 JUMPI DUP1 PUSH4 0x37E238C5 EQ PUSH2 0x2E3 JUMPI PUSH0 DUP1 REVERT JUMPDEST DUP1 PUSH4 0x1E4966AB GT PUSH2 0x1A4 JUMPI DUP1 PUSH4 0x1E4966AB EQ PUSH2 0x232 JUMPI DUP1 PUSH4 0x1F2F2E14 EQ PUSH2 0x25A JUMPI DUP1 PUSH4 0x248A9CA3 EQ PUSH2 0x26D JUMPI DUP1 PUSH4 0x24A44EFB EQ PUSH2 0x29D JUMPI PUSH0 DUP1 REVERT JUMPDEST DUP1 PUSH4 0x1FFC9A7 EQ PUSH2 0x1CA JUMPI DUP1 PUSH4 0x5C4FDF9 EQ PUSH2 0x1F2 JUMPI DUP1 PUSH4 0xF4EF8A6 EQ PUSH2 0x207 JUMPI JUMPDEST PUSH0 DUP1 REVERT JUMPDEST PUSH2 0x1DD PUSH2 0x1D8 CALLDATASIZE PUSH1 0x4 PUSH2 0x1D3B JUMP JUMPDEST PUSH2 0x4A3 JUMP JUMPDEST PUSH1 0x40 MLOAD SWAP1 ISZERO ISZERO DUP2 MSTORE PUSH1 0x20 ADD JUMPDEST PUSH1 0x40 MLOAD DUP1 SWAP2 SUB SWAP1 RETURN JUMPDEST PUSH2 0x205 PUSH2 0x200 CALLDATASIZE PUSH1 0x4 PUSH2 0x1D7D JUMP JUMPDEST PUSH2 0x4D9 JUMP JUMPDEST STOP JUMPDEST PUSH1 0x2 SLOAD PUSH2 0x21A SWAP1 PUSH1 0x1 PUSH1 0x1 PUSH1 0xA0 SHL SUB AND DUP2 JUMP JUMPDEST PUSH1 0x40 MLOAD PUSH1 0x1 PUSH1 0x1 PUSH1 0xA0 SHL SUB SWAP1 SWAP2 AND DUP2 MSTORE PUSH1 0x20 ADD PUSH2 0x1E9 JUMP JUMPDEST PUSH2 0x21A PUSH2 0x240 CALLDATASIZE PUSH1 0x4 PUSH2 0x1DB4 JUMP JUMPDEST PUSH1 0x6 PUSH1 0x20 MSTORE PUSH0 SWAP1 DUP2 MSTORE PUSH1 0x40 SWAP1 KECCAK256 SLOAD PUSH1 0x1 PUSH1 0x1 PUSH1 0xA0 SHL SUB AND DUP2 JUMP JUMPDEST PUSH2 0x205 PUSH2 0x268 CALLDATASIZE PUSH1 0x4 PUSH2 0x1DB4 JUMP JUMPDEST PUSH2 0x640 JUMP JUMPDEST PUSH2 0x28F PUSH2 0x27B CALLDATASIZE PUSH1 0x4 PUSH2 0x1DCF JUMP JUMPDEST PUSH0 SWAP1 DUP2 MSTORE PUSH1 0x20 DUP2 SWAP1 MSTORE PUSH1 0x40 SWAP1 KECCAK256 PUSH1 0x1 ADD SLOAD SWAP1 JUMP JUMPDEST PUSH1 0x40 MLOAD SWAP1 DUP2 MSTORE PUSH1 0x20 ADD PUSH2 0x1E9 JUMP JUMPDEST PUSH2 0x2B0 PUSH2 0x2AB CALLDATASIZE PUSH1 0x4 PUSH2 0x1DB4 JUMP JUMPDEST PUSH2 0x69E JUMP JUMPDEST PUSH1 0x40 MLOAD PUSH2 0x1E9 SWAP2 SWAP1 PUSH2 0x1DE6 JUMP JUMPDEST PUSH2 0x205 PUSH2 0x2CB CALLDATASIZE PUSH1 0x4 PUSH2 0x1E31 JUMP JUMPDEST PUSH2 0x711 JUMP JUMPDEST PUSH2 0x205 PUSH2 0x2DE CALLDATASIZE PUSH1 0x4 PUSH2 0x1E31 JUMP JUMPDEST PUSH2 0x73B JUMP JUMPDEST PUSH2 0x205 PUSH2 0x2F1 CALLDATASIZE PUSH1 0x4 PUSH2 0x1D7D JUMP JUMPDEST PUSH2 0x773 JUMP JUMPDEST PUSH2 0x205 PUSH2 0x304 CALLDATASIZE PUSH1 0x4 PUSH2 0x1E67 JUMP JUMPDEST PUSH2 0x8A4 JUMP JUMPDEST PUSH2 0x31C PUSH2 0x317 CALLDATASIZE PUSH1 0x4 PUSH2 0x1DB4 JUMP JUMPDEST PUSH2 0xCDF JUMP JUMPDEST PUSH1 0x40 MLOAD PUSH2 0x1E9 SWAP2 SWAP1 PUSH2 0x2079 JUMP JUMPDEST PUSH2 0x28F PUSH32 0x6077685936C8169D09204A1D97DB12E41713588C38E1D29A61867D3DCEE98AFF DUP2 JUMP JUMPDEST PUSH2 0x205 PUSH2 0x35E CALLDATASIZE PUSH1 0x4 PUSH2 0x1DB4 JUMP JUMPDEST PUSH2 0xF2E JUMP JUMPDEST PUSH2 0x21A PUSH2 0x371 CALLDATASIZE PUSH1 0x4 PUSH2 0x1DB4 JUMP JUMPDEST PUSH2 0xFB4 JUMP JUMPDEST PUSH2 0x205 PUSH2 0x384 CALLDATASIZE PUSH1 0x4 PUSH2 0x1DB4 JUMP JUMPDEST PUSH2 0x1046 JUMP JUMPDEST PUSH1 0x1 SLOAD PUSH2 0x21A SWAP1 PUSH1 0x1 PUSH1 0x1 PUSH1 0xA0 SHL SUB AND DUP2 JUMP JUMPDEST PUSH2 0x1DD PUSH2 0x3AA CALLDATASIZE PUSH1 0x4 PUSH2 0x1E31 JUMP JUMPDEST PUSH2 0x116D JUMP JUMPDEST PUSH2 0x28F PUSH0 DUP2 JUMP JUMPDEST PUSH1 0x1 SLOAD PUSH1 0x2 SLOAD PUSH1 0x40 DUP1 MLOAD PUSH1 0x1 PUSH1 0x1 PUSH1 0xA0 SHL SUB SWAP4 DUP5 AND DUP2 MSTORE SWAP3 SWAP1 SWAP2 AND PUSH1 0x20 DUP4 ADD MSTORE ADD PUSH2 0x1E9 JUMP JUMPDEST PUSH2 0x205 PUSH2 0x3EA CALLDATASIZE PUSH1 0x4 PUSH2 0x20BC JUMP JUMPDEST PUSH2 0x1195 JUMP JUMPDEST PUSH2 0x205 PUSH2 0x3FD CALLDATASIZE PUSH1 0x4 PUSH2 0x1D7D JUMP JUMPDEST PUSH2 0x1250 JUMP JUMPDEST PUSH2 0x2B0 PUSH2 0x138D JUMP JUMPDEST PUSH2 0x435 PUSH2 0x418 CALLDATASIZE PUSH1 0x4 PUSH2 0x1DB4 JUMP JUMPDEST PUSH1 0x1 PUSH1 0x1 PUSH1 0xA0 SHL SUB AND PUSH0 SWAP1 DUP2 MSTORE PUSH1 0x8 PUSH1 0x20 MSTORE PUSH1 0x40 SWAP1 KECCAK256 SLOAD PUSH1 0xFF AND SWAP1 JUMP JUMPDEST PUSH1 0x40 MLOAD PUSH2 0x1E9 SWAP2 SWAP1 PUSH2 0x20EB JUMP JUMPDEST PUSH2 0x455 PUSH2 0x450 CALLDATASIZE PUSH1 0x4 PUSH2 0x1DB4 JUMP JUMPDEST PUSH2 0x13ED JUMP JUMPDEST PUSH1 0x40 MLOAD PUSH2 0x1E9 SWAP2 SWAP1 PUSH2 0x20F9 JUMP JUMPDEST PUSH1 0x3 SLOAD PUSH2 0x28F JUMP JUMPDEST PUSH2 0x205 PUSH2 0x478 CALLDATASIZE PUSH1 0x4 PUSH2 0x1E31 JUMP JUMPDEST PUSH2 0x1562 JUMP JUMPDEST PUSH2 0x2B0 PUSH2 0x48B CALLDATASIZE PUSH1 0x4 PUSH2 0x1DB4 JUMP JUMPDEST PUSH2 0x1586 JUMP JUMPDEST PUSH2 0x31C PUSH2 0x49E CALLDATASIZE PUSH1 0x4 PUSH2 0x1DB4 JUMP JUMPDEST PUSH2 0x15F7 JUMP JUMPDEST PUSH0 PUSH1 0x1 PUSH1 0x1 PUSH1 0xE0 SHL SUB NOT DUP3 AND PUSH4 0x7965DB0B PUSH1 0xE0 SHL EQ DUP1 PUSH2 0x4D3 JUMPI POP PUSH4 0x1FFC9A7 PUSH1 0xE0 SHL PUSH1 0x1 PUSH1 0x1 PUSH1 0xE0 SHL SUB NOT DUP4 AND EQ JUMPDEST SWAP3 SWAP2 POP POP JUMP JUMPDEST PUSH1 0x1 PUSH1 0x1 PUSH1 0xA0 SHL SUB DUP3 AND ISZERO DUP1 ISZERO SWAP1 PUSH2 0x4F9 JUMPI POP PUSH1 0x1 PUSH1 0x1 PUSH1 0xA0 SHL SUB DUP2 AND ISZERO ISZERO JUMPDEST PUSH2 0x53E JUMPI PUSH1 0x40 MLOAD PUSH3 0x461BCD PUSH1 0xE5 SHL DUP2 MSTORE PUSH1 0x20 PUSH1 0x4 DUP3 ADD MSTORE PUSH1 0x11 PUSH1 0x24 DUP3 ADD MSTORE PUSH17 0x496E76616C696420616464726573736573 PUSH1 0x78 SHL PUSH1 0x44 DUP3 ADD MSTORE PUSH1 0x64 ADD JUMPDEST PUSH1 0x40 MLOAD DUP1 SWAP2 SUB SWAP1 REVERT JUMPDEST PUSH1 0x1 PUSH1 0x1 PUSH1 0xA0 SHL SUB DUP3 DUP2 AND PUSH0 SWAP1 DUP2 MSTORE PUSH1 0x4 PUSH1 0x20 MSTORE PUSH1 0x40 SWAP1 KECCAK256 SLOAD AND PUSH2 0x574 JUMPI PUSH1 0x40 MLOAD PUSH3 0x461BCD PUSH1 0xE5 SHL DUP2 MSTORE PUSH1 0x4 ADD PUSH2 0x535 SWAP1 PUSH2 0x2108 JUMP JUMPDEST PUSH1 0x1 PUSH1 0x1 PUSH1 0xA0 SHL SUB DUP3 DUP2 AND PUSH0 SWAP1 DUP2 MSTORE PUSH1 0x6 PUSH1 0x20 MSTORE PUSH1 0x40 SWAP1 KECCAK256 SLOAD AND ISZERO PUSH2 0x5EA JUMPI PUSH1 0x40 MLOAD PUSH3 0x461BCD PUSH1 0xE5 SHL DUP2 MSTORE PUSH1 0x20 PUSH1 0x4 DUP3 ADD MSTORE PUSH1 0x26 PUSH1 0x24 DUP3 ADD MSTORE PUSH32 0x5661756C7420616C7265616479207265676973746572656420666F7220746869 PUSH1 0x44 DUP3 ADD MSTORE PUSH6 0x1CC81C1BDBDB PUSH1 0xD2 SHL PUSH1 0x64 DUP3 ADD MSTORE PUSH1 0x84 ADD PUSH2 0x535 JUMP JUMPDEST PUSH1 0x1 PUSH1 0x1 PUSH1 0xA0 SHL SUB DUP3 DUP2 AND PUSH0 DUP2 DUP2 MSTORE PUSH1 0x6 PUSH1 0x20 MSTORE PUSH1 0x40 DUP1 DUP3 KECCAK256 DUP1 SLOAD PUSH1 0x1 PUSH1 0x1 PUSH1 0xA0 SHL SUB NOT AND SWAP5 DUP7 AND SWAP5 DUP6 OR SWAP1 SSTORE MLOAD PUSH32 0xF8EE9039D8E4D43426638703C71517008894FDEA742BB2D2DBFF5A46FB07ABDB SWAP2 SWAP1 LOG3 POP POP JUMP JUMPDEST PUSH1 0x1 PUSH1 0x1 PUSH1 0xA0 SHL SUB DUP2 DUP2 AND PUSH0 SWAP1 DUP2 MSTORE PUSH1 0x4 PUSH1 0x20 MSTORE PUSH1 0x40 SWAP1 KECCAK256 SLOAD AND PUSH2 0x676 JUMPI PUSH1 0x40 MLOAD PUSH3 0x461BCD PUSH1 0xE5 SHL DUP2 MSTORE PUSH1 0x4 ADD PUSH2 0x535 SWAP1 PUSH2 0x2108 JUMP JUMPDEST PUSH1 0x1 PUSH1 0x1 PUSH1 0xA0 SHL SUB AND PUSH0 SWAP1 DUP2 MSTORE PUSH1 0x4 PUSH1 0x20 MSTORE PUSH1 0x40 SWAP1 KECCAK256 PUSH1 0xA ADD DUP1 SLOAD PUSH2 0xFF00 NOT AND PUSH2 0x100 OR SWAP1 SSTORE JUMP JUMPDEST PUSH1 0x1 PUSH1 0x1 PUSH1 0xA0 SHL SUB DUP2 AND PUSH0 SWAP1 DUP2 MSTORE PUSH1 0x5 PUSH1 0x20 SWAP1 DUP2 MSTORE PUSH1 0x40 SWAP2 DUP3 SWAP1 KECCAK256 DUP1 SLOAD DUP4 MLOAD DUP2 DUP5 MUL DUP2 ADD DUP5 ADD SWAP1 SWAP5 MSTORE DUP1 DUP5 MSTORE PUSH1 0x60 SWAP4 SWAP3 DUP4 ADD DUP3 DUP3 DUP1 ISZERO PUSH2 0x705 JUMPI PUSH1 0x20 MUL DUP3 ADD SWAP2 SWAP1 PUSH0 MSTORE PUSH1 0x20 PUSH0 KECCAK256 SWAP1 JUMPDEST DUP2 SLOAD PUSH1 0x1 PUSH1 0x1 PUSH1 0xA0 SHL SUB AND DUP2 MSTORE PUSH1 0x1 SWAP1 SWAP2 ADD SWAP1 PUSH1 0x20 ADD DUP1 DUP4 GT PUSH2 0x6E7 JUMPI JUMPDEST POP POP POP POP POP SWAP1 POP SWAP2 SWAP1 POP JUMP JUMPDEST PUSH0 DUP3 DUP2 MSTORE PUSH1 0x20 DUP2 SWAP1 MSTORE PUSH1 0x40 SWAP1 KECCAK256 PUSH1 0x1 ADD SLOAD PUSH2 0x72B DUP2 PUSH2 0x183E JUMP JUMPDEST PUSH2 0x735 DUP4 DUP4 PUSH2 0x1848 JUMP JUMPDEST POP POP POP POP JUMP JUMPDEST PUSH1 0x1 PUSH1 0x1 PUSH1 0xA0 SHL SUB DUP2 AND CALLER EQ PUSH2 0x764 JUMPI PUSH1 0x40 MLOAD PUSH4 0x334BD919 PUSH1 0xE1 SHL DUP2 MSTORE PUSH1 0x4 ADD PUSH1 0x40 MLOAD DUP1 SWAP2 SUB SWAP1 REVERT JUMPDEST PUSH2 0x76E DUP3 DUP3 PUSH2 0x18D7 JUMP JUMPDEST POP POP POP JUMP JUMPDEST PUSH1 0x1 PUSH1 0x1 PUSH1 0xA0 SHL SUB DUP3 DUP2 AND PUSH0 SWAP1 DUP2 MSTORE PUSH1 0x4 PUSH1 0x20 MSTORE PUSH1 0x40 SWAP1 KECCAK256 SLOAD AND PUSH2 0x7A9 JUMPI PUSH1 0x40 MLOAD PUSH3 0x461BCD PUSH1 0xE5 SHL DUP2 MSTORE PUSH1 0x4 ADD PUSH2 0x535 SWAP1 PUSH2 0x2108 JUMP JUMPDEST PUSH1 0x1 PUSH1 0x1 PUSH1 0xA0 SHL SUB DUP2 AND PUSH2 0x80B JUMPI PUSH1 0x40 MLOAD PUSH3 0x461BCD PUSH1 0xE5 SHL DUP2 MSTORE PUSH1 0x20 PUSH1 0x4 DUP3 ADD MSTORE PUSH1 0x23 PUSH1 0x24 DUP3 ADD MSTORE PUSH32 0x426F72726F7765722063616E6E6F7420626520746865207A65726F2061646472 PUSH1 0x44 DUP3 ADD MSTORE PUSH3 0x657373 PUSH1 0xE8 SHL PUSH1 0x64 DUP3 ADD MSTORE PUSH1 0x84 ADD PUSH2 0x535 JUMP JUMPDEST PUSH1 0x1 PUSH1 0x1 PUSH1 0xA0 SHL SUB DUP1 DUP4 AND PUSH0 SWAP1 DUP2 MSTORE PUSH1 0x4 PUSH1 0x20 MSTORE PUSH1 0x40 SWAP1 KECCAK256 PUSH1 0x1 ADD SLOAD DUP2 AND SWAP1 DUP3 AND DUP2 EQ PUSH2 0x76E JUMPI PUSH1 0x1 PUSH1 0x1 PUSH1 0xA0 SHL SUB DUP2 AND ISZERO PUSH2 0x84B JUMPI PUSH2 0x84B DUP2 DUP5 PUSH2 0x1940 JUMP JUMPDEST PUSH1 0x1 PUSH1 0x1 PUSH1 0xA0 SHL SUB DUP1 DUP4 AND PUSH0 DUP2 DUP2 MSTORE PUSH1 0x7 PUSH1 0x20 SWAP1 DUP2 MSTORE PUSH1 0x40 DUP1 DUP4 KECCAK256 DUP1 SLOAD PUSH1 0x1 DUP2 DUP2 ADD DUP4 SSTORE SWAP2 DUP6 MSTORE DUP4 DUP6 KECCAK256 ADD DUP1 SLOAD SWAP7 DUP11 AND PUSH1 0x1 PUSH1 0x1 PUSH1 0xA0 SHL SUB NOT SWAP8 DUP9 AND DUP2 OR SWAP1 SWAP2 SSTORE DUP5 MSTORE PUSH1 0x4 SWAP1 SWAP3 MSTORE SWAP1 SWAP2 KECCAK256 ADD DUP1 SLOAD SWAP1 SWAP3 AND OR SWAP1 SSTORE POP POP POP JUMP JUMPDEST PUSH1 0x1 PUSH1 0x1 PUSH1 0xA0 SHL SUB DUP12 AND PUSH2 0x8FA JUMPI PUSH1 0x40 MLOAD PUSH3 0x461BCD PUSH1 0xE5 SHL DUP2 MSTORE PUSH1 0x20 PUSH1 0x4 DUP3 ADD MSTORE PUSH1 0x1B PUSH1 0x24 DUP3 ADD MSTORE PUSH32 0x506F6F6C20616464726573732063616E6E6F74206265207A65726F0000000000 PUSH1 0x44 DUP3 ADD MSTORE PUSH1 0x64 ADD PUSH2 0x535 JUMP JUMPDEST PUSH1 0x1 PUSH1 0x1 PUSH1 0xA0 SHL SUB DUP12 DUP2 AND PUSH0 SWAP1 DUP2 MSTORE PUSH1 0x4 PUSH1 0x20 MSTORE PUSH1 0x40 SWAP1 KECCAK256 SLOAD AND ISZERO PUSH2 0x961 JUMPI PUSH1 0x40 MLOAD PUSH3 0x461BCD PUSH1 0xE5 SHL DUP2 MSTORE PUSH1 0x20 PUSH1 0x4 DUP3 ADD MSTORE PUSH1 0x17 PUSH1 0x24 DUP3 ADD MSTORE PUSH32 0x506F6F6C20616C72656164792072656769737465726564000000000000000000 PUSH1 0x44 DUP3 ADD MSTORE PUSH1 0x64 ADD PUSH2 0x535 JUMP JUMPDEST PUSH1 0x40 MLOAD DUP1 PUSH2 0x1C0 ADD PUSH1 0x40 MSTORE DUP1 DUP12 PUSH1 0x1 PUSH1 0x1 PUSH1 0xA0 SHL SUB AND DUP2 MSTORE PUSH1 0x20 ADD DUP11 PUSH1 0x1 PUSH1 0x1 PUSH1 0xA0 SHL SUB AND DUP2 MSTORE PUSH1 0x20 ADD TIMESTAMP DUP2 MSTORE PUSH1 0x20 ADD DUP10 PUSH1 0x1 PUSH1 0x1 PUSH1 0xA0 SHL SUB AND DUP2 MSTORE PUSH1 0x20 ADD DUP9 PUSH1 0x1 PUSH1 0x1 PUSH1 0xA0 SHL SUB AND DUP2 MSTORE PUSH1 0x20 ADD DUP8 PUSH1 0x1 PUSH1 0x1 PUSH1 0xA0 SHL SUB AND DUP2 MSTORE PUSH1 0x20 ADD DUP7 PUSH1 0x1 PUSH1 0x1 PUSH1 0xA0 SHL SUB AND DUP2 MSTORE PUSH1 0x20 ADD DUP6 DUP2 MSTORE PUSH1 0x20 ADD DUP5 DUP2 MSTORE PUSH1 0x20 ADD DUP4 DUP2 MSTORE PUSH1 0x20 ADD DUP3 PUSH1 0x1 DUP2 GT ISZERO PUSH2 0x9F1 JUMPI PUSH2 0x9F1 PUSH2 0x1F25 JUMP JUMPDEST DUP2 MSTORE PUSH0 PUSH1 0x20 DUP3 ADD DUP2 SWAP1 MSTORE PUSH1 0x40 SWAP1 SWAP2 ADD SWAP1 DUP2 MSTORE PUSH1 0x1 PUSH1 0x1 PUSH1 0xA0 SHL SUB DUP1 DUP15 AND PUSH1 0x20 SWAP3 DUP4 ADD DUP2 SWAP1 MSTORE PUSH0 SWAP1 DUP2 MSTORE PUSH1 0x4 DUP1 DUP5 MSTORE PUSH1 0x40 SWAP2 DUP3 SWAP1 KECCAK256 DUP6 MLOAD DUP2 SLOAD SWAP1 DUP6 AND PUSH1 0x1 PUSH1 0x1 PUSH1 0xA0 SHL SUB NOT SWAP2 DUP3 AND OR DUP3 SSTORE SWAP5 DUP7 ADD MLOAD PUSH1 0x1 DUP1 DUP4 ADD DUP1 SLOAD SWAP3 DUP8 AND SWAP3 DUP9 AND SWAP3 SWAP1 SWAP3 OR SWAP1 SWAP2 SSTORE SWAP3 DUP7 ADD MLOAD PUSH1 0x2 DUP3 ADD SSTORE PUSH1 0x60 DUP7 ADD MLOAD PUSH1 0x3 DUP3 ADD DUP1 SLOAD SWAP2 DUP7 AND SWAP2 DUP8 AND SWAP2 SWAP1 SWAP2 OR SWAP1 SSTORE PUSH1 0x80 DUP7 ADD MLOAD SWAP2 DUP2 ADD DUP1 SLOAD SWAP3 DUP6 AND SWAP3 DUP7 AND SWAP3 SWAP1 SWAP3 OR SWAP1 SWAP2 SSTORE PUSH1 0xA0 DUP6 ADD MLOAD PUSH1 0x5 DUP3 ADD DUP1 SLOAD SWAP2 DUP6 AND SWAP2 DUP7 AND SWAP2 SWAP1 SWAP2 OR SWAP1 SSTORE PUSH1 0xC0 DUP6 ADD MLOAD PUSH1 0x6 DUP3 ADD DUP1 SLOAD SWAP2 SWAP1 SWAP5 AND SWAP5 AND SWAP4 SWAP1 SWAP4 OR SWAP1 SWAP2 SSTORE PUSH1 0xE0 DUP4 ADD MLOAD PUSH1 0x7 DUP4 ADD SSTORE PUSH2 0x100 DUP4 ADD MLOAD PUSH1 0x8 DUP4 ADD SSTORE PUSH2 0x120 DUP4 ADD MLOAD PUSH1 0x9 DUP4 ADD SSTORE PUSH2 0x140 DUP4 ADD MLOAD PUSH1 0xA DUP4 ADD DUP1 SLOAD SWAP2 SWAP3 SWAP1 SWAP2 PUSH1 0xFF NOT AND SWAP1 DUP4 DUP2 DUP2 GT ISZERO PUSH2 0xAFF JUMPI PUSH2 0xAFF PUSH2 0x1F25 JUMP JUMPDEST MUL OR SWAP1 SSTORE POP PUSH2 0x160 DUP3 ADD MLOAD PUSH1 0xA DUP3 ADD DUP1 SLOAD SWAP2 ISZERO ISZERO PUSH2 0x100 MUL PUSH2 0xFF00 NOT DUP4 AND DUP2 OR DUP3 SSTORE PUSH2 0x180 DUP6 ADD MLOAD SWAP3 PUSH3 0xFF0000 NOT SWAP1 SWAP2 AND PUSH3 0xFFFF00 NOT SWAP1 SWAP2 AND OR PUSH3 0x10000 DUP4 PUSH1 0x6 DUP2 GT ISZERO PUSH2 0xB4F JUMPI PUSH2 0xB4F PUSH2 0x1F25 JUMP JUMPDEST MUL OR SWAP1 SSTORE POP PUSH2 0x1A0 DUP3 ADD MLOAD DUP2 PUSH1 0xA ADD PUSH1 0x3 PUSH2 0x100 EXP DUP2 SLOAD DUP2 PUSH1 0x1 PUSH1 0x1 PUSH1 0xA0 SHL SUB MUL NOT AND SWAP1 DUP4 PUSH1 0x1 PUSH1 0x1 PUSH1 0xA0 SHL SUB AND MUL OR SWAP1 SSTORE POP SWAP1 POP POP PUSH1 0x5 PUSH0 DUP12 PUSH1 0x1 PUSH1 0x1 PUSH1 0xA0 SHL SUB AND PUSH1 0x1 PUSH1 0x1 PUSH1 0xA0 SHL SUB AND DUP2 MSTORE PUSH1 0x20 ADD SWAP1 DUP2 MSTORE PUSH1 0x20 ADD PUSH0 KECCAK256 DUP12 SWAP1 DUP1 PUSH1 0x1 DUP2 SLOAD ADD DUP1 DUP3 SSTORE DUP1 SWAP2 POP POP PUSH1 0x1 SWAP1 SUB SWAP1 PUSH0 MSTORE PUSH1 0x20 PUSH0 KECCAK256 ADD PUSH0 SWAP1 SWAP2 SWAP1 SWAP2 SWAP1 SWAP2 PUSH2 0x100 EXP DUP2 SLOAD DUP2 PUSH1 0x1 PUSH1 0x1 PUSH1 0xA0 SHL SUB MUL NOT AND SWAP1 DUP4 PUSH1 0x1 PUSH1 0x1 PUSH1 0xA0 SHL SUB AND MUL OR SWAP1 SSTORE POP PUSH1 0x3 DUP12 SWAP1 DUP1 PUSH1 0x1 DUP2 SLOAD ADD DUP1 DUP3 SSTORE DUP1 SWAP2 POP POP PUSH1 0x1 SWAP1 SUB SWAP1 PUSH0 MSTORE PUSH1 0x20 PUSH0 KECCAK256 ADD PUSH0 SWAP1 SWAP2 SWAP1 SWAP2 SWAP1 SWAP2 PUSH2 0x100 EXP DUP2 SLOAD DUP2 PUSH1 0x1 PUSH1 0x1 PUSH1 0xA0 SHL SUB MUL NOT AND SWAP1 DUP4 PUSH1 0x1 PUSH1 0x1 PUSH1 0xA0 SHL SUB AND MUL OR SWAP1 SSTORE POP PUSH0 PUSH1 0x8 PUSH0 DUP14 PUSH1 0x1 PUSH1 0x1 PUSH1 0xA0 SHL SUB AND PUSH1 0x1 PUSH1 0x1 PUSH1 0xA0 SHL SUB AND DUP2 MSTORE PUSH1 0x20 ADD SWAP1 DUP2 MSTORE PUSH1 0x20 ADD PUSH0 KECCAK256 PUSH0 PUSH2 0x100 EXP DUP2 SLOAD DUP2 PUSH1 0xFF MUL NOT AND SWAP1 DUP4 PUSH1 0x6 DUP2 GT ISZERO PUSH2 0xC76 JUMPI PUSH2 0xC76 PUSH2 0x1F25 JUMP JUMPDEST MUL OR SWAP1 SSTORE POP DUP9 PUSH1 0x1 PUSH1 0x1 PUSH1 0xA0 SHL SUB AND DUP11 PUSH1 0x1 PUSH1 0x1 PUSH1 0xA0 SHL SUB AND DUP13 PUSH1 0x1 PUSH1 0x1 PUSH1 0xA0 SHL SUB AND PUSH32 0x8F723E49DC038E67C41B41307A1E0C65653D50125A0C474A21AC32D9A0B24D2B DUP12 DUP6 PUSH1 0x40 MLOAD PUSH2 0xCCA SWAP3 SWAP2 SWAP1 PUSH2 0x2135 JUMP JUMPDEST PUSH1 0x40 MLOAD DUP1 SWAP2 SUB SWAP1 LOG4 POP POP POP POP POP POP POP POP POP POP POP JUMP JUMPDEST PUSH1 0x1 PUSH1 0x1 PUSH1 0xA0 SHL SUB DUP2 AND PUSH0 SWAP1 DUP2 MSTORE PUSH1 0x5 PUSH1 0x20 SWAP1 DUP2 MSTORE PUSH1 0x40 DUP1 DUP4 KECCAK256 DUP1 SLOAD DUP3 MLOAD DUP2 DUP6 MUL DUP2 ADD DUP6 ADD SWAP1 SWAP4 MSTORE DUP1 DUP4 MSTORE PUSH1 0x60 SWAP5 SWAP4 DUP4 ADD DUP3 DUP3 DUP1 ISZERO PUSH2 0xD45 JUMPI PUSH1 0x20 MUL DUP3 ADD SWAP2 SWAP1 PUSH0 MSTORE PUSH1 0x20 PUSH0 KECCAK256 SWAP1 JUMPDEST DUP2 SLOAD PUSH1 0x1 PUSH1 0x1 PUSH1 0xA0 SHL SUB AND DUP2 MSTORE PUSH1 0x1 SWAP1 SWAP2 ADD SWAP1 PUSH1 0x20 ADD DUP1 DUP4 GT PUSH2 0xD27 JUMPI JUMPDEST POP POP POP POP POP SWAP1 POP PUSH0 DUP2 MLOAD PUSH8 0xFFFFFFFFFFFFFFFF DUP2 GT ISZERO PUSH2 0xD67 JUMPI PUSH2 0xD67 PUSH2 0x2152 JUMP JUMPDEST PUSH1 0x40 MLOAD SWAP1 DUP1 DUP3 MSTORE DUP1 PUSH1 0x20 MUL PUSH1 0x20 ADD DUP3 ADD PUSH1 0x40 MSTORE DUP1 ISZERO PUSH2 0xDA0 JUMPI DUP2 PUSH1 0x20 ADD JUMPDEST PUSH2 0xD8D PUSH2 0x1CC8 JUMP JUMPDEST DUP2 MSTORE PUSH1 0x20 ADD SWAP1 PUSH1 0x1 SWAP1 SUB SWAP1 DUP2 PUSH2 0xD85 JUMPI SWAP1 POP JUMPDEST POP SWAP1 POP PUSH0 JUMPDEST DUP3 MLOAD DUP2 LT ISZERO PUSH2 0xF26 JUMPI PUSH1 0x4 PUSH0 DUP5 DUP4 DUP2 MLOAD DUP2 LT PUSH2 0xDC3 JUMPI PUSH2 0xDC3 PUSH2 0x2166 JUMP JUMPDEST PUSH1 0x20 SWAP1 DUP2 MUL SWAP2 SWAP1 SWAP2 ADD DUP2 ADD MLOAD PUSH1 0x1 PUSH1 0x1 PUSH1 0xA0 SHL SUB SWAP1 DUP2 AND DUP4 MSTORE DUP3 DUP3 ADD SWAP4 SWAP1 SWAP4 MSTORE PUSH1 0x40 SWAP2 DUP3 ADD PUSH0 KECCAK256 DUP3 MLOAD PUSH2 0x1C0 DUP2 ADD DUP5 MSTORE DUP2 SLOAD DUP6 AND DUP2 MSTORE PUSH1 0x1 DUP1 DUP4 ADD SLOAD DUP7 AND SWAP4 DUP3 ADD SWAP4 SWAP1 SWAP4 MSTORE PUSH1 0x2 DUP3 ADD SLOAD SWAP4 DUP2 ADD SWAP4 SWAP1 SWAP4 MSTORE PUSH1 0x3 DUP2 ADD SLOAD DUP5 AND PUSH1 0x60 DUP5 ADD MSTORE PUSH1 0x4 DUP2 ADD SLOAD DUP5 AND PUSH1 0x80 DUP5 ADD MSTORE PUSH1 0x5 DUP2 ADD SLOAD DUP5 AND PUSH1 0xA0 DUP5 ADD MSTORE PUSH1 0x6 DUP2 ADD SLOAD SWAP1 SWAP4 AND PUSH1 0xC0 DUP4 ADD MSTORE PUSH1 0x7 DUP4 ADD SLOAD PUSH1 0xE0 DUP4 ADD MSTORE PUSH1 0x8 DUP4 ADD SLOAD PUSH2 0x100 DUP4 ADD MSTORE PUSH1 0x9 DUP4 ADD SLOAD PUSH2 0x120 DUP4 ADD MSTORE PUSH1 0xA DUP4 ADD SLOAD SWAP2 SWAP3 SWAP2 PUSH2 0x140 DUP5 ADD SWAP2 PUSH1 0xFF SWAP1 SWAP2 AND SWAP1 DUP2 GT ISZERO PUSH2 0xE88 JUMPI PUSH2 0xE88 PUSH2 0x1F25 JUMP JUMPDEST PUSH1 0x1 DUP2 GT ISZERO PUSH2 0xE99 JUMPI PUSH2 0xE99 PUSH2 0x1F25 JUMP JUMPDEST DUP2 MSTORE PUSH1 0xA DUP3 ADD SLOAD PUSH1 0xFF PUSH2 0x100 DUP3 DIV DUP2 AND ISZERO ISZERO PUSH1 0x20 DUP5 ADD MSTORE PUSH1 0x40 SWAP1 SWAP3 ADD SWAP2 PUSH3 0x10000 SWAP1 SWAP2 DIV AND PUSH1 0x6 DUP2 GT ISZERO PUSH2 0xECF JUMPI PUSH2 0xECF PUSH2 0x1F25 JUMP JUMPDEST PUSH1 0x6 DUP2 GT ISZERO PUSH2 0xEE0 JUMPI PUSH2 0xEE0 PUSH2 0x1F25 JUMP JUMPDEST DUP2 MSTORE PUSH1 0xA SWAP2 SWAP1 SWAP2 ADD SLOAD PUSH4 0x1000000 SWAP1 DIV PUSH1 0x1 PUSH1 0x1 PUSH1 0xA0 SHL SUB AND PUSH1 0x20 SWAP1 SWAP2 ADD MSTORE DUP3 MLOAD DUP4 SWAP1 DUP4 SWAP1 DUP2 LT PUSH2 0xF13 JUMPI PUSH2 0xF13 PUSH2 0x2166 JUMP JUMPDEST PUSH1 0x20 SWAP1 DUP2 MUL SWAP2 SWAP1 SWAP2 ADD ADD MSTORE PUSH1 0x1 ADD PUSH2 0xDA5 JUMP JUMPDEST POP SWAP4 SWAP3 POP POP POP JUMP JUMPDEST PUSH2 0xF38 PUSH0 CALLER PUSH2 0x116D JUMP JUMPDEST PUSH2 0xF7D JUMPI PUSH1 0x40 MLOAD PUSH3 0x461BCD PUSH1 0xE5 SHL DUP2 MSTORE PUSH1 0x20 PUSH1 0x4 DUP3 ADD MSTORE PUSH1 0x16 PUSH1 0x24 DUP3 ADD MSTORE PUSH22 0x21B0B63632B91034B9903737BA1030B71030B236B4B7 PUSH1 0x51 SHL PUSH1 0x44 DUP3 ADD MSTORE PUSH1 0x64 ADD PUSH2 0x535 JUMP JUMPDEST PUSH2 0xFA7 PUSH32 0x6077685936C8169D09204A1D97DB12E41713588C38E1D29A61867D3DCEE98AFF DUP3 PUSH2 0x711 JUMP JUMPDEST PUSH2 0xFB1 PUSH0 DUP3 PUSH2 0x711 JUMP JUMPDEST POP JUMP JUMPDEST PUSH1 0x1 PUSH1 0x1 PUSH1 0xA0 SHL SUB DUP2 DUP2 AND PUSH0 SWAP1 DUP2 MSTORE PUSH1 0x6 PUSH1 0x20 MSTORE PUSH1 0x40 DUP2 KECCAK256 SLOAD SWAP1 SWAP2 AND PUSH2 0x1028 JUMPI PUSH1 0x40 MLOAD PUSH3 0x461BCD PUSH1 0xE5 SHL DUP2 MSTORE PUSH1 0x20 PUSH1 0x4 DUP3 ADD MSTORE PUSH1 0x23 PUSH1 0x24 DUP3 ADD MSTORE PUSH32 0x506F6F6C206E6F742072656769737465726564206F7220686173206E6F207661 PUSH1 0x44 DUP3 ADD MSTORE PUSH3 0x1D5B1D PUSH1 0xEA SHL PUSH1 0x64 DUP3 ADD MSTORE PUSH1 0x84 ADD PUSH2 0x535 JUMP JUMPDEST POP PUSH1 0x1 PUSH1 0x1 PUSH1 0xA0 SHL SUB SWAP1 DUP2 AND PUSH0 SWAP1 DUP2 MSTORE PUSH1 0x6 PUSH1 0x20 MSTORE PUSH1 0x40 SWAP1 KECCAK256 SLOAD AND SWAP1 JUMP JUMPDEST PUSH1 0x1 PUSH1 0x1 PUSH1 0xA0 SHL SUB DUP2 DUP2 AND PUSH0 SWAP1 DUP2 MSTORE PUSH1 0x4 PUSH1 0x20 MSTORE PUSH1 0x40 SWAP1 KECCAK256 SLOAD AND PUSH2 0x107C JUMPI PUSH1 0x40 MLOAD PUSH3 0x461BCD PUSH1 0xE5 SHL DUP2 MSTORE PUSH1 0x4 ADD PUSH2 0x535 SWAP1 PUSH2 0x2108 JUMP JUMPDEST PUSH1 0x1 PUSH1 0x1 PUSH1 0xA0 SHL SUB DUP1 DUP3 AND PUSH0 SWAP1 DUP2 MSTORE PUSH1 0x4 PUSH1 0x20 MSTORE PUSH1 0x40 SWAP1 KECCAK256 SLOAD AND PUSH2 0x10A0 DUP2 DUP4 PUSH2 0x1A7A JUMP JUMPDEST PUSH2 0x10A9 DUP3 PUSH2 0x1B70 JUMP JUMPDEST PUSH1 0x1 PUSH1 0x1 PUSH1 0xA0 SHL SUB DUP3 AND PUSH0 DUP2 DUP2 MSTORE PUSH1 0x4 PUSH1 0x20 DUP2 DUP2 MSTORE PUSH1 0x40 DUP1 DUP5 KECCAK256 DUP1 SLOAD PUSH1 0x1 PUSH1 0x1 PUSH1 0xA0 SHL SUB NOT SWAP1 DUP2 AND DUP3 SSTORE PUSH1 0x1 DUP3 ADD DUP1 SLOAD DUP3 AND SWAP1 SSTORE PUSH1 0x2 DUP3 ADD DUP7 SWAP1 SSTORE PUSH1 0x3 DUP3 ADD DUP1 SLOAD DUP3 AND SWAP1 SSTORE SWAP4 DUP2 ADD DUP1 SLOAD DUP6 AND SWAP1 SSTORE PUSH1 0x5 DUP2 ADD DUP1 SLOAD DUP6 AND SWAP1 SSTORE PUSH1 0x6 DUP2 ADD DUP1 SLOAD SWAP1 SWAP5 AND SWAP1 SWAP4 SSTORE PUSH1 0x7 DUP4 ADD DUP5 SWAP1 SSTORE PUSH1 0x8 DUP1 DUP5 ADD DUP6 SWAP1 SSTORE PUSH1 0x9 DUP5 ADD DUP6 SWAP1 SSTORE PUSH1 0xA SWAP1 SWAP4 ADD DUP1 SLOAD PUSH1 0x1 PUSH1 0x1 PUSH1 0xB8 SHL SUB NOT AND SWAP1 SSTORE SWAP2 SWAP1 MSTORE DUP1 DUP3 KECCAK256 DUP1 SLOAD PUSH1 0xFF NOT AND SWAP1 SSTORE MLOAD PUSH32 0x334D0B2111287DFDDEBE4B4C1C5AF3AE644909D7FCD024377BF601E236ED5ABB SWAP2 SWAP1 LOG2 POP POP JUMP JUMPDEST PUSH0 SWAP2 DUP3 MSTORE PUSH1 0x20 DUP3 DUP2 MSTORE PUSH1 0x40 DUP1 DUP5 KECCAK256 PUSH1 0x1 PUSH1 0x1 PUSH1 0xA0 SHL SUB SWAP4 SWAP1 SWAP4 AND DUP5 MSTORE SWAP2 SWAP1 MSTORE SWAP1 KECCAK256 SLOAD PUSH1 0xFF AND SWAP1 JUMP JUMPDEST PUSH1 0x1 PUSH1 0x1 PUSH1 0xA0 SHL SUB DUP3 DUP2 AND PUSH0 SWAP1 DUP2 MSTORE PUSH1 0x4 PUSH1 0x20 MSTORE PUSH1 0x40 SWAP1 KECCAK256 SLOAD AND PUSH2 0x11CB JUMPI PUSH1 0x40 MLOAD PUSH3 0x461BCD PUSH1 0xE5 SHL DUP2 MSTORE PUSH1 0x4 ADD PUSH2 0x535 SWAP1 PUSH2 0x2108 JUMP JUMPDEST PUSH1 0x1 PUSH1 0x1 PUSH1 0xA0 SHL SUB DUP3 AND PUSH0 SWAP1 DUP2 MSTORE PUSH1 0x8 PUSH1 0x20 MSTORE PUSH1 0x40 SWAP1 KECCAK256 DUP1 SLOAD PUSH1 0xFF DUP2 AND SWAP2 DUP4 SWAP2 PUSH1 0xFF NOT AND PUSH1 0x1 DUP4 PUSH1 0x6 DUP2 GT ISZERO PUSH2 0x1203 JUMPI PUSH2 0x1203 PUSH2 0x1F25 JUMP JUMPDEST MUL OR SWAP1 SSTORE POP DUP3 PUSH1 0x1 PUSH1 0x1 PUSH1 0xA0 SHL SUB AND PUSH32 0xA61679A80E33B8CCD7049ED35B83F875349AA2875EF98CE5BA441A88761FB4E DUP3 DUP5 PUSH1 0x40 MLOAD PUSH2 0x1243 SWAP3 SWAP2 SWAP1 PUSH2 0x217A JUMP JUMPDEST PUSH1 0x40 MLOAD DUP1 SWAP2 SUB SWAP1 LOG2 POP POP POP JUMP JUMPDEST PUSH0 PUSH2 0x125A DUP2 PUSH2 0x183E JUMP JUMPDEST PUSH1 0x1 PUSH1 0x1 PUSH1 0xA0 SHL SUB DUP4 AND PUSH2 0x12BC JUMPI PUSH1 0x40 MLOAD PUSH3 0x461BCD PUSH1 0xE5 SHL DUP2 MSTORE PUSH1 0x20 PUSH1 0x4 DUP3 ADD MSTORE PUSH1 0x23 PUSH1 0x24 DUP3 ADD MSTORE PUSH32 0x5661756C744D616E616765722063616E6E6F74206265207A65726F2061646472 PUSH1 0x44 DUP3 ADD MSTORE PUSH3 0x657373 PUSH1 0xE8 SHL PUSH1 0x64 DUP3 ADD MSTORE PUSH1 0x84 ADD PUSH2 0x535 JUMP JUMPDEST PUSH1 0x1 PUSH1 0x1 PUSH1 0xA0 SHL SUB DUP3 AND PUSH2 0x131E JUMPI PUSH1 0x40 MLOAD PUSH3 0x461BCD PUSH1 0xE5 SHL DUP2 MSTORE PUSH1 0x20 PUSH1 0x4 DUP3 ADD MSTORE PUSH1 0x24 DUP1 DUP3 ADD MSTORE PUSH32 0x5265776172644D616E616765722063616E6E6F74206265207A65726F20616464 PUSH1 0x44 DUP3 ADD MSTORE PUSH4 0x72657373 PUSH1 0xE0 SHL PUSH1 0x64 DUP3 ADD MSTORE PUSH1 0x84 ADD PUSH2 0x535 JUMP JUMPDEST PUSH1 0x1 DUP1 SLOAD PUSH1 0x1 PUSH1 0x1 PUSH1 0xA0 SHL SUB DUP6 DUP2 AND PUSH1 0x1 PUSH1 0x1 PUSH1 0xA0 SHL SUB NOT SWAP3 DUP4 AND DUP2 OR SWAP1 SWAP4 SSTORE PUSH1 0x2 DUP1 SLOAD SWAP2 DUP7 AND SWAP2 SWAP1 SWAP3 AND DUP2 OR SWAP1 SWAP2 SSTORE PUSH1 0x40 DUP1 MLOAD SWAP3 DUP4 MSTORE PUSH1 0x20 DUP4 ADD SWAP2 SWAP1 SWAP2 MSTORE PUSH32 0x8FC18CC172F74C81235145B7927190D2BD0E351FC45BFB17BB572593273CEF21 SWAP2 ADD PUSH1 0x40 MLOAD DUP1 SWAP2 SUB SWAP1 LOG1 POP POP POP JUMP JUMPDEST PUSH1 0x60 PUSH1 0x3 DUP1 SLOAD DUP1 PUSH1 0x20 MUL PUSH1 0x20 ADD PUSH1 0x40 MLOAD SWAP1 DUP2 ADD PUSH1 0x40 MSTORE DUP1 SWAP3 SWAP2 SWAP1 DUP2 DUP2 MSTORE PUSH1 0x20 ADD DUP3 DUP1 SLOAD DUP1 ISZERO PUSH2 0x13E3 JUMPI PUSH1 0x20 MUL DUP3 ADD SWAP2 SWAP1 PUSH0 MSTORE PUSH1 0x20 PUSH0 KECCAK256 SWAP1 JUMPDEST DUP2 SLOAD PUSH1 0x1 PUSH1 0x1 PUSH1 0xA0 SHL SUB AND DUP2 MSTORE PUSH1 0x1 SWAP1 SWAP2 ADD SWAP1 PUSH1 0x20 ADD DUP1 DUP4 GT PUSH2 0x13C5 JUMPI JUMPDEST POP POP POP POP POP SWAP1 POP SWAP1 JUMP JUMPDEST PUSH2 0x13F5 PUSH2 0x1CC8 JUMP JUMPDEST PUSH1 0x1 PUSH1 0x1 PUSH1 0xA0 SHL SUB DUP3 DUP2 AND PUSH0 SWAP1 DUP2 MSTORE PUSH1 0x4 PUSH1 0x20 MSTORE PUSH1 0x40 SWAP1 KECCAK256 SLOAD AND PUSH2 0x142B JUMPI PUSH1 0x40 MLOAD PUSH3 0x461BCD PUSH1 0xE5 SHL DUP2 MSTORE PUSH1 0x4 ADD PUSH2 0x535 SWAP1 PUSH2 0x2108 JUMP JUMPDEST PUSH1 0x1 PUSH1 0x1 PUSH1 0xA0 SHL SUB DUP1 DUP4 AND PUSH0 SWAP1 DUP2 MSTORE PUSH1 0x4 PUSH1 0x20 DUP2 DUP2 MSTORE PUSH1 0x40 SWAP3 DUP4 SWAP1 KECCAK256 DUP4 MLOAD PUSH2 0x1C0 DUP2 ADD DUP6 MSTORE DUP2 SLOAD DUP7 AND DUP2 MSTORE PUSH1 0x1 DUP1 DUP4 ADD SLOAD DUP8 AND SWAP4 DUP3 ADD SWAP4 SWAP1 SWAP4 MSTORE PUSH1 0x2 DUP3 ADD SLOAD SWAP5 DUP2 ADD SWAP5 SWAP1 SWAP5 MSTORE PUSH1 0x3 DUP2 ADD SLOAD DUP6 AND PUSH1 0x60 DUP6 ADD MSTORE SWAP2 DUP3 ADD SLOAD DUP5 AND PUSH1 0x80 DUP5 ADD MSTORE PUSH1 0x5 DUP3 ADD SLOAD DUP5 AND PUSH1 0xA0 DUP5 ADD MSTORE PUSH1 0x6 DUP3 ADD SLOAD SWAP1 SWAP4 AND PUSH1 0xC0 DUP4 ADD MSTORE PUSH1 0x7 DUP2 ADD SLOAD PUSH1 0xE0 DUP4 ADD MSTORE PUSH1 0x8 DUP2 ADD SLOAD PUSH2 0x100 DUP4 ADD MSTORE PUSH1 0x9 DUP2 ADD SLOAD PUSH2 0x120 DUP4 ADD MSTORE PUSH1 0xA DUP2 ADD SLOAD SWAP2 SWAP3 SWAP1 SWAP2 PUSH2 0x140 DUP5 ADD SWAP2 PUSH1 0xFF SWAP1 SWAP2 AND SWAP1 DUP2 GT ISZERO PUSH2 0x14E5 JUMPI PUSH2 0x14E5 PUSH2 0x1F25 JUMP JUMPDEST PUSH1 0x1 DUP2 GT ISZERO PUSH2 0x14F6 JUMPI PUSH2 0x14F6 PUSH2 0x1F25 JUMP JUMPDEST DUP2 MSTORE PUSH1 0xA DUP3 ADD SLOAD PUSH1 0xFF PUSH2 0x100 DUP3 DIV DUP2 AND ISZERO ISZERO PUSH1 0x20 DUP5 ADD MSTORE PUSH1 0x40 SWAP1 SWAP3 ADD SWAP2 PUSH3 0x10000 SWAP1 SWAP2 DIV AND PUSH1 0x6 DUP2 GT ISZERO PUSH2 0x152C JUMPI PUSH2 0x152C PUSH2 0x1F25 JUMP JUMPDEST PUSH1 0x6 DUP2 GT ISZERO PUSH2 0x153D JUMPI PUSH2 0x153D PUSH2 0x1F25 JUMP JUMPDEST DUP2 MSTORE PUSH1 0xA SWAP2 SWAP1 SWAP2 ADD SLOAD PUSH4 0x1000000 SWAP1 DIV PUSH1 0x1 PUSH1 0x1 PUSH1 0xA0 SHL SUB AND PUSH1 0x20 SWAP1 SWAP2 ADD MSTORE SWAP3 SWAP2 POP POP JUMP JUMPDEST PUSH0 DUP3 DUP2 MSTORE PUSH1 0x20 DUP2 SWAP1 MSTORE PUSH1 0x40 SWAP1 KECCAK256 PUSH1 0x1 ADD SLOAD PUSH2 0x157C DUP2 PUSH2 0x183E JUMP JUMPDEST PUSH2 0x735 DUP4 DUP4 PUSH2 0x18D7 JUMP JUMPDEST PUSH1 0x1 PUSH1 0x1 PUSH1 0xA0 SHL SUB DUP2 AND PUSH0 SWAP1 DUP2 MSTORE PUSH1 0x7 PUSH1 0x20 SWAP1 DUP2 MSTORE PUSH1 0x40 SWAP2 DUP3 SWAP1 KECCAK256 DUP1 SLOAD DUP4 MLOAD DUP2 DUP5 MUL DUP2 ADD DUP5 ADD SWAP1 SWAP5 MSTORE DUP1 DUP5 MSTORE PUSH1 0x60 SWAP4 SWAP3 DUP4 ADD DUP3 DUP3 DUP1 ISZERO PUSH2 0x705 JUMPI PUSH1 0x20 MUL DUP3 ADD SWAP2 SWAP1 PUSH0 MSTORE PUSH1 0x20 PUSH0 KECCAK256 SWAP1 DUP2 SLOAD PUSH1 0x1 PUSH1 0x1 PUSH1 0xA0 SHL SUB AND DUP2 MSTORE PUSH1 0x1 SWAP1 SWAP2 ADD SWAP1 PUSH1 0x20 ADD DUP1 DUP4 GT PUSH2 0x6E7 JUMPI POP POP POP POP POP SWAP1 POP SWAP2 SWAP1 POP JUMP JUMPDEST PUSH1 0x1 PUSH1 0x1 PUSH1 0xA0 SHL SUB DUP2 AND PUSH0 SWAP1 DUP2 MSTORE PUSH1 0x7 PUSH1 0x20 SWAP1 DUP2 MSTORE PUSH1 0x40 DUP1 DUP4 KECCAK256 DUP1 SLOAD DUP3 MLOAD DUP2 DUP6 MUL DUP2 ADD DUP6 ADD SWAP1 SWAP4 MSTORE DUP1 DUP4 MSTORE PUSH1 0x60 SWAP5 SWAP4 DUP4 ADD DUP3 DUP3 DUP1 ISZERO PUSH2 0x165D JUMPI PUSH1 0x20 MUL DUP3 ADD SWAP2 SWAP1 PUSH0 MSTORE PUSH1 0x20 PUSH0 KECCAK256 SWAP1 JUMPDEST DUP2 SLOAD PUSH1 0x1 PUSH1 0x1 PUSH1 0xA0 SHL SUB AND DUP2 MSTORE PUSH1 0x1 SWAP1 SWAP2 ADD SWAP1 PUSH1 0x20 ADD DUP1 DUP4 GT PUSH2 0x163F JUMPI JUMPDEST POP POP POP POP POP SWAP1 POP PUSH0 DUP2 MLOAD PUSH8 0xFFFFFFFFFFFFFFFF DUP2 GT ISZERO PUSH2 0x167F JUMPI PUSH2 0x167F PUSH2 0x2152 JUMP JUMPDEST PUSH1 0x40 MLOAD SWAP1 DUP1 DUP3 MSTORE DUP1 PUSH1 0x20 MUL PUSH1 0x20 ADD DUP3 ADD PUSH1 0x40 MSTORE DUP1 ISZERO PUSH2 0x16B8 JUMPI DUP2 PUSH1 0x20 ADD JUMPDEST PUSH2 0x16A5 PUSH2 0x1CC8 JUMP JUMPDEST DUP2 MSTORE PUSH1 0x20 ADD SWAP1 PUSH1 0x1 SWAP1 SUB SWAP1 DUP2 PUSH2 0x169D JUMPI SWAP1 POP JUMPDEST POP SWAP1 POP PUSH0 JUMPDEST DUP3 MLOAD DUP2 LT ISZERO PUSH2 0xF26 JUMPI PUSH1 0x4 PUSH0 DUP5 DUP4 DUP2 MLOAD DUP2 LT PUSH2 0x16DB JUMPI PUSH2 0x16DB PUSH2 0x2166 JUMP JUMPDEST PUSH1 0x20 SWAP1 DUP2 MUL SWAP2 SWAP1 SWAP2 ADD DUP2 ADD MLOAD PUSH1 0x1 PUSH1 0x1 PUSH1 0xA0 SHL SUB SWAP1 DUP2 AND DUP4 MSTORE DUP3 DUP3 ADD SWAP4 SWAP1 SWAP4 MSTORE PUSH1 0x40 SWAP2 DUP3 ADD PUSH0 KECCAK256 DUP3 MLOAD PUSH2 0x1C0 DUP2 ADD DUP5 MSTORE DUP2 SLOAD DUP6 AND DUP2 MSTORE PUSH1 0x1 DUP1 DUP4 ADD SLOAD DUP7 AND SWAP4 DUP3 ADD SWAP4 SWAP1 SWAP4 MSTORE PUSH1 0x2 DUP3 ADD SLOAD SWAP4 DUP2 ADD SWAP4 SWAP1 SWAP4 MSTORE PUSH1 0x3 DUP2 ADD SLOAD DUP5 AND PUSH1 0x60 DUP5 ADD MSTORE PUSH1 0x4 DUP2 ADD SLOAD DUP5 AND PUSH1 0x80 DUP5 ADD MSTORE PUSH1 0x5 DUP2 ADD SLOAD DUP5 AND PUSH1 0xA0 DUP5 ADD MSTORE PUSH1 0x6 DUP2 ADD SLOAD SWAP1 SWAP4 AND PUSH1 0xC0 DUP4 ADD MSTORE PUSH1 0x7 DUP4 ADD SLOAD PUSH1 0xE0 DUP4 ADD MSTORE PUSH1 0x8 DUP4 ADD SLOAD PUSH2 0x100 DUP4 ADD MSTORE PUSH1 0x9 DUP4 ADD SLOAD PUSH2 0x120 DUP4 ADD MSTORE PUSH1 0xA DUP4 ADD SLOAD SWAP2 SWAP3 SWAP2 PUSH2 0x140 DUP5 ADD SWAP2 PUSH1 0xFF SWAP1 SWAP2 AND SWAP1 DUP2 GT ISZERO PUSH2 0x17A0 JUMPI PUSH2 0x17A0 PUSH2 0x1F25 JUMP JUMPDEST PUSH1 0x1 DUP2 GT ISZERO PUSH2 0x17B1 JUMPI PUSH2 0x17B1 PUSH2 0x1F25 JUMP JUMPDEST DUP2 MSTORE PUSH1 0xA DUP3 ADD SLOAD PUSH1 0xFF PUSH2 0x100 DUP3 DIV DUP2 AND ISZERO ISZERO PUSH1 0x20 DUP5 ADD MSTORE PUSH1 0x40 SWAP1 SWAP3 ADD SWAP2 PUSH3 0x10000 SWAP1 SWAP2 DIV AND PUSH1 0x6 DUP2 GT ISZERO PUSH2 0x17E7 JUMPI PUSH2 0x17E7 PUSH2 0x1F25 JUMP JUMPDEST PUSH1 0x6 DUP2 GT ISZERO PUSH2 0x17F8 JUMPI PUSH2 0x17F8 PUSH2 0x1F25 JUMP JUMPDEST DUP2 MSTORE PUSH1 0xA SWAP2 SWAP1 SWAP2 ADD SLOAD PUSH4 0x1000000 SWAP1 DIV PUSH1 0x1 PUSH1 0x1 PUSH1 0xA0 SHL SUB AND PUSH1 0x20 SWAP1 SWAP2 ADD MSTORE DUP3 MLOAD DUP4 SWAP1 DUP4 SWAP1 DUP2 LT PUSH2 0x182B JUMPI PUSH2 0x182B PUSH2 0x2166 JUMP JUMPDEST PUSH1 0x20 SWAP1 DUP2 MUL SWAP2 SWAP1 SWAP2 ADD ADD MSTORE PUSH1 0x1 ADD PUSH2 0x16BD JUMP JUMPDEST PUSH2 0xFB1 DUP2 CALLER PUSH2 0x1C31 JUMP JUMPDEST PUSH0 PUSH2 0x1853 DUP4 DUP4 PUSH2 0x116D JUMP JUMPDEST PUSH2 0x18D0 JUMPI PUSH0 DUP4 DUP2 MSTORE PUSH1 0x20 DUP2 DUP2 MSTORE PUSH1 0x40 DUP1 DUP4 KECCAK256 PUSH1 0x1 PUSH1 0x1 PUSH1 0xA0 SHL SUB DUP7 AND DUP5 MSTORE SWAP1 SWAP2 MSTORE SWAP1 KECCAK256 DUP1 SLOAD PUSH1 0xFF NOT AND PUSH1 0x1 OR SWAP1 SSTORE PUSH2 0x1888 CALLER SWAP1 JUMP JUMPDEST PUSH1 0x1 PUSH1 0x1 PUSH1 0xA0 SHL SUB AND DUP3 PUSH1 0x1 PUSH1 0x1 PUSH1 0xA0 SHL SUB AND DUP5 PUSH32 0x2F8788117E7EFF1D82E926EC794901D17C78024A50270940304540A733656F0D PUSH1 0x40 MLOAD PUSH1 0x40 MLOAD DUP1 SWAP2 SUB SWAP1 LOG4 POP PUSH1 0x1 PUSH2 0x4D3 JUMP JUMPDEST POP PUSH0 PUSH2 0x4D3 JUMP JUMPDEST PUSH0 PUSH2 0x18E2 DUP4 DUP4 PUSH2 0x116D JUMP JUMPDEST ISZERO PUSH2 0x18D0 JUMPI PUSH0 DUP4 DUP2 MSTORE PUSH1 0x20 DUP2 DUP2 MSTORE PUSH1 0x40 DUP1 DUP4 KECCAK256 PUSH1 0x1 PUSH1 0x1 PUSH1 0xA0 SHL SUB DUP7 AND DUP1 DUP6 MSTORE SWAP3 MSTORE DUP1 DUP4 KECCAK256 DUP1 SLOAD PUSH1 0xFF NOT AND SWAP1 SSTORE MLOAD CALLER SWAP3 DUP7 SWAP2 PUSH32 0xF6391F5C32D9C69D2A47EA670B442974B53935D1EDC7FD64EB21E047A839171B SWAP2 SWAP1 LOG4 POP PUSH1 0x1 PUSH2 0x4D3 JUMP JUMPDEST PUSH1 0x1 PUSH1 0x1 PUSH1 0xA0 SHL SUB DUP3 AND PUSH0 SWAP1 DUP2 MSTORE PUSH1 0x7 PUSH1 0x20 MSTORE PUSH1 0x40 DUP2 KECCAK256 PUSH2 0x1961 SWAP1 DUP4 PUSH2 0x1C6E JUMP JUMPDEST PUSH1 0x1 PUSH1 0x1 PUSH1 0xA0 SHL SUB DUP5 AND PUSH0 SWAP1 DUP2 MSTORE PUSH1 0x7 PUSH1 0x20 MSTORE PUSH1 0x40 SWAP1 KECCAK256 SLOAD SWAP1 SWAP2 POP DUP2 LT ISZERO PUSH2 0x76E JUMPI PUSH1 0x1 PUSH1 0x1 PUSH1 0xA0 SHL SUB DUP4 AND PUSH0 SWAP1 DUP2 MSTORE PUSH1 0x7 PUSH1 0x20 MSTORE PUSH1 0x40 DUP2 KECCAK256 SLOAD PUSH2 0x19A7 SWAP1 PUSH1 0x1 SWAP1 PUSH2 0x2195 JUMP JUMPDEST PUSH1 0x1 PUSH1 0x1 PUSH1 0xA0 SHL SUB DUP6 AND PUSH0 SWAP1 DUP2 MSTORE PUSH1 0x7 PUSH1 0x20 MSTORE PUSH1 0x40 SWAP1 KECCAK256 DUP1 SLOAD SWAP2 SWAP3 POP SWAP1 DUP3 SWAP1 DUP2 LT PUSH2 0x19D4 JUMPI PUSH2 0x19D4 PUSH2 0x2166 JUMP JUMPDEST PUSH0 SWAP2 DUP3 MSTORE PUSH1 0x20 DUP1 DUP4 KECCAK256 SWAP1 SWAP2 ADD SLOAD PUSH1 0x1 PUSH1 0x1 PUSH1 0xA0 SHL SUB DUP8 DUP2 AND DUP5 MSTORE PUSH1 0x7 SWAP1 SWAP3 MSTORE PUSH1 0x40 SWAP1 SWAP3 KECCAK256 DUP1 SLOAD SWAP2 SWAP1 SWAP3 AND SWAP2 SWAP1 DUP5 SWAP1 DUP2 LT PUSH2 0x1A10 JUMPI PUSH2 0x1A10 PUSH2 0x2166 JUMP JUMPDEST PUSH0 SWAP2 DUP3 MSTORE PUSH1 0x20 DUP1 DUP4 KECCAK256 SWAP2 SWAP1 SWAP2 ADD DUP1 SLOAD PUSH1 0x1 PUSH1 0x1 PUSH1 0xA0 SHL SUB NOT AND PUSH1 0x1 PUSH1 0x1 PUSH1 0xA0 SHL SUB SWAP5 DUP6 AND OR SWAP1 SSTORE SWAP2 DUP7 AND DUP2 MSTORE PUSH1 0x7 SWAP1 SWAP2 MSTORE PUSH1 0x40 SWAP1 KECCAK256 DUP1 SLOAD DUP1 PUSH2 0x1A54 JUMPI PUSH2 0x1A54 PUSH2 0x21B4 JUMP JUMPDEST PUSH0 DUP3 DUP2 MSTORE PUSH1 0x20 SWAP1 KECCAK256 DUP2 ADD PUSH0 NOT SWAP1 DUP2 ADD DUP1 SLOAD PUSH1 0x1 PUSH1 0x1 PUSH1 0xA0 SHL SUB NOT AND SWAP1 SSTORE ADD SWAP1 SSTORE POP POP POP POP JUMP JUMPDEST PUSH1 0x1 PUSH1 0x1 PUSH1 0xA0 SHL SUB DUP3 AND PUSH0 SWAP1 DUP2 MSTORE PUSH1 0x5 PUSH1 0x20 MSTORE PUSH1 0x40 DUP2 KECCAK256 PUSH2 0x1A9B SWAP1 DUP4 PUSH2 0x1C6E JUMP JUMPDEST PUSH1 0x1 PUSH1 0x1 PUSH1 0xA0 SHL SUB DUP5 AND PUSH0 SWAP1 DUP2 MSTORE PUSH1 0x5 PUSH1 0x20 MSTORE PUSH1 0x40 DUP2 KECCAK256 SLOAD SWAP2 SWAP3 POP SWAP1 PUSH2 0x1AC3 SWAP1 PUSH1 0x1 SWAP1 PUSH2 0x2195 JUMP JUMPDEST PUSH1 0x1 PUSH1 0x1 PUSH1 0xA0 SHL SUB DUP6 AND PUSH0 SWAP1 DUP2 MSTORE PUSH1 0x5 PUSH1 0x20 MSTORE PUSH1 0x40 SWAP1 KECCAK256 DUP1 SLOAD SWAP2 SWAP3 POP SWAP1 DUP3 SWAP1 DUP2 LT PUSH2 0x1AF0 JUMPI PUSH2 0x1AF0 PUSH2 0x2166 JUMP JUMPDEST PUSH0 SWAP2 DUP3 MSTORE PUSH1 0x20 DUP1 DUP4 KECCAK256 SWAP1 SWAP2 ADD SLOAD PUSH1 0x1 PUSH1 0x1 PUSH1 0xA0 SHL SUB DUP8 DUP2 AND DUP5 MSTORE PUSH1 0x5 SWAP1 SWAP3 MSTORE PUSH1 0x40 SWAP1 SWAP3 KECCAK256 DUP1 SLOAD SWAP2 SWAP1 SWAP3 AND SWAP2 SWAP1 DUP5 SWAP1 DUP2 LT PUSH2 0x1B2C JUMPI PUSH2 0x1B2C PUSH2 0x2166 JUMP JUMPDEST PUSH0 SWAP2 DUP3 MSTORE PUSH1 0x20 DUP1 DUP4 KECCAK256 SWAP2 SWAP1 SWAP2 ADD DUP1 SLOAD PUSH1 0x1 PUSH1 0x1 PUSH1 0xA0 SHL SUB NOT AND PUSH1 0x1 PUSH1 0x1 PUSH1 0xA0 SHL SUB SWAP5 DUP6 AND OR SWAP1 SSTORE SWAP2 DUP7 AND DUP2 MSTORE PUSH1 0x5 SWAP1 SWAP2 MSTORE PUSH1 0x40 SWAP1 KECCAK256 DUP1 SLOAD DUP1 PUSH2 0x1A54 JUMPI PUSH2 0x1A54 PUSH2 0x21B4 JUMP JUMPDEST PUSH0 PUSH2 0x1B7C PUSH1 0x3 DUP4 PUSH2 0x1C6E JUMP JUMPDEST PUSH1 0x3 SLOAD SWAP1 SWAP2 POP PUSH0 SWAP1 PUSH2 0x1B90 SWAP1 PUSH1 0x1 SWAP1 PUSH2 0x2195 JUMP JUMPDEST SWAP1 POP PUSH1 0x3 DUP2 DUP2 SLOAD DUP2 LT PUSH2 0x1BA5 JUMPI PUSH2 0x1BA5 PUSH2 0x2166 JUMP JUMPDEST PUSH0 SWAP2 DUP3 MSTORE PUSH1 0x20 SWAP1 SWAP2 KECCAK256 ADD SLOAD PUSH1 0x3 DUP1 SLOAD PUSH1 0x1 PUSH1 0x1 PUSH1 0xA0 SHL SUB SWAP1 SWAP3 AND SWAP2 DUP5 SWAP1 DUP2 LT PUSH2 0x1BD0 JUMPI PUSH2 0x1BD0 PUSH2 0x2166 JUMP JUMPDEST SWAP1 PUSH0 MSTORE PUSH1 0x20 PUSH0 KECCAK256 ADD PUSH0 PUSH2 0x100 EXP DUP2 SLOAD DUP2 PUSH1 0x1 PUSH1 0x1 PUSH1 0xA0 SHL SUB MUL NOT AND SWAP1 DUP4 PUSH1 0x1 PUSH1 0x1 PUSH1 0xA0 SHL SUB AND MUL OR SWAP1 SSTORE POP PUSH1 0x3 DUP1 SLOAD DUP1 PUSH2 0x1C0C JUMPI PUSH2 0x1C0C PUSH2 0x21B4 JUMP JUMPDEST PUSH0 DUP3 DUP2 MSTORE PUSH1 0x20 SWAP1 KECCAK256 DUP2 ADD PUSH0 NOT SWAP1 DUP2 ADD DUP1 SLOAD PUSH1 0x1 PUSH1 0x1 PUSH1 0xA0 SHL SUB NOT AND SWAP1 SSTORE ADD SWAP1 SSTORE POP POP POP JUMP JUMPDEST PUSH2 0x1C3B DUP3 DUP3 PUSH2 0x116D JUMP JUMPDEST PUSH2 0x1C6A JUMPI PUSH1 0x40 MLOAD PUSH4 0xE2517D3F PUSH1 0xE0 SHL DUP2 MSTORE PUSH1 0x1 PUSH1 0x1 PUSH1 0xA0 SHL SUB DUP3 AND PUSH1 0x4 DUP3 ADD MSTORE PUSH1 0x24 DUP2 ADD DUP4 SWAP1 MSTORE PUSH1 0x44 ADD PUSH2 0x535 JUMP JUMPDEST POP POP JUMP JUMPDEST PUSH0 DUP1 JUMPDEST DUP4 SLOAD DUP2 LT ISZERO PUSH2 0x1CBE JUMPI DUP3 PUSH1 0x1 PUSH1 0x1 PUSH1 0xA0 SHL SUB AND DUP5 DUP3 DUP2 SLOAD DUP2 LT PUSH2 0x1C96 JUMPI PUSH2 0x1C96 PUSH2 0x2166 JUMP JUMPDEST PUSH0 SWAP2 DUP3 MSTORE PUSH1 0x20 SWAP1 SWAP2 KECCAK256 ADD SLOAD PUSH1 0x1 PUSH1 0x1 PUSH1 0xA0 SHL SUB AND SUB PUSH2 0x1CB6 JUMPI SWAP1 POP PUSH2 0x4D3 JUMP JUMPDEST PUSH1 0x1 ADD PUSH2 0x1C71 JUMP JUMPDEST POP PUSH0 NOT SWAP4 SWAP3 POP POP POP JUMP JUMPDEST PUSH1 0x40 DUP1 MLOAD PUSH2 0x1C0 DUP2 ADD DUP3 MSTORE PUSH0 DUP1 DUP3 MSTORE PUSH1 0x20 DUP3 ADD DUP2 SWAP1 MSTORE SWAP2 DUP2 ADD DUP3 SWAP1 MSTORE PUSH1 0x60 DUP2 ADD DUP3 SWAP1 MSTORE PUSH1 0x80 DUP2 ADD DUP3 SWAP1 MSTORE PUSH1 0xA0 DUP2 ADD DUP3 SWAP1 MSTORE PUSH1 0xC0 DUP2 ADD DUP3 SWAP1 MSTORE PUSH1 0xE0 DUP2 ADD DUP3 SWAP1 MSTORE PUSH2 0x100 DUP2 ADD DUP3 SWAP1 MSTORE PUSH2 0x120 DUP2 ADD DUP3 SWAP1 MSTORE PUSH2 0x140 DUP2 ADD DUP3 SWAP1 MSTORE PUSH2 0x160 DUP2 ADD DUP3 SWAP1 MSTORE PUSH2 0x180 DUP2 ADD DUP3 SWAP1 MSTORE PUSH2 0x1A0 DUP2 ADD SWAP2 SWAP1 SWAP2 MSTORE SWAP1 JUMP JUMPDEST PUSH0 PUSH1 0x20 DUP3 DUP5 SUB SLT ISZERO PUSH2 0x1D4B JUMPI PUSH0 DUP1 REVERT JUMPDEST DUP2 CALLDATALOAD PUSH1 0x1 PUSH1 0x1 PUSH1 0xE0 SHL SUB NOT DUP2 AND DUP2 EQ PUSH2 0x1D62 JUMPI PUSH0 DUP1 REVERT JUMPDEST SWAP4 SWAP3 POP POP POP JUMP JUMPDEST PUSH1 0x1 PUSH1 0x1 PUSH1 0xA0 SHL SUB DUP2 AND DUP2 EQ PUSH2 0xFB1 JUMPI PUSH0 DUP1 REVERT JUMPDEST PUSH0 DUP1 PUSH1 0x40 DUP4 DUP6 SUB SLT ISZERO PUSH2 0x1D8E JUMPI PUSH0 DUP1 REVERT JUMPDEST DUP3 CALLDATALOAD PUSH2 0x1D99 DUP2 PUSH2 0x1D69 JUMP JUMPDEST SWAP2 POP PUSH1 0x20 DUP4 ADD CALLDATALOAD PUSH2 0x1DA9 DUP2 PUSH2 0x1D69 JUMP JUMPDEST DUP1 SWAP2 POP POP SWAP3 POP SWAP3 SWAP1 POP JUMP JUMPDEST PUSH0 PUSH1 0x20 DUP3 DUP5 SUB SLT ISZERO PUSH2 0x1DC4 JUMPI PUSH0 DUP1 REVERT JUMPDEST DUP2 CALLDATALOAD PUSH2 0x1D62 DUP2 PUSH2 0x1D69 JUMP JUMPDEST PUSH0 PUSH1 0x20 DUP3 DUP5 SUB SLT ISZERO PUSH2 0x1DDF JUMPI PUSH0 DUP1 REVERT JUMPDEST POP CALLDATALOAD SWAP2 SWAP1 POP JUMP JUMPDEST PUSH1 0x20 DUP1 DUP3 MSTORE DUP3 MLOAD DUP3 DUP3 ADD DUP2 SWAP1 MSTORE PUSH0 SWAP2 DUP5 ADD SWAP1 PUSH1 0x40 DUP5 ADD SWAP1 DUP4 JUMPDEST DUP2 DUP2 LT ISZERO PUSH2 0x1E26 JUMPI DUP4 MLOAD PUSH1 0x1 PUSH1 0x1 PUSH1 0xA0 SHL SUB AND DUP4 MSTORE PUSH1 0x20 SWAP4 DUP5 ADD SWAP4 SWAP1 SWAP3 ADD SWAP2 PUSH1 0x1 ADD PUSH2 0x1DFF JUMP JUMPDEST POP SWAP1 SWAP6 SWAP5 POP POP POP POP POP JUMP JUMPDEST PUSH0 DUP1 PUSH1 0x40 DUP4 DUP6 SUB SLT ISZERO PUSH2 0x1E42 JUMPI PUSH0 DUP1 REVERT JUMPDEST DUP3 CALLDATALOAD SWAP2 POP PUSH1 0x20 DUP4 ADD CALLDATALOAD PUSH2 0x1DA9 DUP2 PUSH2 0x1D69 JUMP JUMPDEST DUP1 CALLDATALOAD PUSH1 0x2 DUP2 LT PUSH2 0x1E62 JUMPI PUSH0 DUP1 REVERT JUMPDEST SWAP2 SWAP1 POP JUMP JUMPDEST PUSH0 DUP1 PUSH0 DUP1 PUSH0 DUP1 PUSH0 DUP1 PUSH0 DUP1 PUSH0 PUSH2 0x160 DUP13 DUP15 SUB SLT ISZERO PUSH2 0x1E82 JUMPI PUSH0 DUP1 REVERT JUMPDEST DUP12 CALLDATALOAD PUSH2 0x1E8D DUP2 PUSH2 0x1D69 JUMP JUMPDEST SWAP11 POP PUSH1 0x20 DUP13 ADD CALLDATALOAD PUSH2 0x1E9D DUP2 PUSH2 0x1D69 JUMP JUMPDEST SWAP10 POP PUSH1 0x40 DUP13 ADD CALLDATALOAD PUSH2 0x1EAD DUP2 PUSH2 0x1D69 JUMP JUMPDEST SWAP9 POP PUSH1 0x60 DUP13 ADD CALLDATALOAD PUSH2 0x1EBD DUP2 PUSH2 0x1D69 JUMP JUMPDEST SWAP8 POP PUSH1 0x80 DUP13 ADD CALLDATALOAD PUSH2 0x1ECD DUP2 PUSH2 0x1D69 JUMP JUMPDEST SWAP7 POP PUSH1 0xA0 DUP13 ADD CALLDATALOAD PUSH2 0x1EDD DUP2 PUSH2 0x1D69 JUMP JUMPDEST SWAP6 POP PUSH1 0xC0 DUP13 ADD CALLDATALOAD PUSH2 0x1EED DUP2 PUSH2 0x1D69 JUMP JUMPDEST SWAP5 POP PUSH1 0xE0 DUP13 ADD CALLDATALOAD SWAP4 POP PUSH2 0x100 DUP13 ADD CALLDATALOAD SWAP3 POP PUSH2 0x120 DUP13 ADD CALLDATALOAD SWAP2 POP PUSH2 0x1F13 PUSH2 0x140 DUP14 ADD PUSH2 0x1E54 JUMP JUMPDEST SWAP1 POP SWAP3 SWAP6 SWAP9 SWAP12 POP SWAP3 SWAP6 SWAP9 SWAP12 SWAP1 SWAP4 SWAP7 SWAP10 POP JUMP JUMPDEST PUSH4 0x4E487B71 PUSH1 0xE0 SHL PUSH0 MSTORE PUSH1 0x21 PUSH1 0x4 MSTORE PUSH1 0x24 PUSH0 REVERT JUMPDEST PUSH1 0x2 DUP2 LT PUSH2 0x1F49 JUMPI PUSH2 0x1F49 PUSH2 0x1F25 JUMP JUMPDEST SWAP1 MSTORE JUMP JUMPDEST PUSH1 0x7 DUP2 LT PUSH2 0x1F49 JUMPI PUSH2 0x1F49 PUSH2 0x1F25 JUMP JUMPDEST DUP1 MLOAD PUSH1 0x1 PUSH1 0x1 PUSH1 0xA0 SHL SUB AND DUP3 MSTORE PUSH1 0x20 DUP2 ADD MLOAD PUSH2 0x1F84 PUSH1 0x20 DUP5 ADD DUP3 PUSH1 0x1 PUSH1 0x1 PUSH1 0xA0 SHL SUB AND SWAP1 MSTORE JUMP JUMPDEST POP PUSH1 0x40 DUP2 ADD MLOAD PUSH1 0x40 DUP4 ADD MSTORE PUSH1 0x60 DUP2 ADD MLOAD PUSH2 0x1FA9 PUSH1 0x60 DUP5 ADD DUP3 PUSH1 0x1 PUSH1 0x1 PUSH1 0xA0 SHL SUB AND SWAP1 MSTORE JUMP JUMPDEST POP PUSH1 0x80 DUP2 ADD MLOAD PUSH2 0x1FC4 PUSH1 0x80 DUP5 ADD DUP3 PUSH1 0x1 PUSH1 0x1 PUSH1 0xA0 SHL SUB AND SWAP1 MSTORE JUMP JUMPDEST POP PUSH1 0xA0 DUP2 ADD MLOAD PUSH2 0x1FDF PUSH1 0xA0 DUP5 ADD DUP3 PUSH1 0x1 PUSH1 0x1 PUSH1 0xA0 SHL SUB AND SWAP1 MSTORE JUMP JUMPDEST POP PUSH1 0xC0 DUP2 ADD MLOAD PUSH2 0x1FFA PUSH1 0xC0 DUP5 ADD DUP3 PUSH1 0x1 PUSH1 0x1 PUSH1 0xA0 SHL SUB AND SWAP1 MSTORE JUMP JUMPDEST POP PUSH1 0xE0 DUP2 ADD MLOAD PUSH1 0xE0 DUP4 ADD MSTORE PUSH2 0x100 DUP2 ADD MLOAD PUSH2 0x100 DUP4 ADD MSTORE PUSH2 0x120 DUP2 ADD MLOAD PUSH2 0x120 DUP4 ADD MSTORE PUSH2 0x140 DUP2 ADD MLOAD PUSH2 0x2031 PUSH2 0x140 DUP5 ADD DUP3 PUSH2 0x1F39 JUMP JUMPDEST POP PUSH2 0x160 DUP2 ADD MLOAD PUSH2 0x2047 PUSH2 0x160 DUP5 ADD DUP3 ISZERO ISZERO SWAP1 MSTORE JUMP JUMPDEST POP PUSH2 0x180 DUP2 ADD MLOAD PUSH2 0x205C PUSH2 0x180 DUP5 ADD DUP3 PUSH2 0x1F4D JUMP JUMPDEST POP PUSH2 0x1A0 DUP2 ADD MLOAD PUSH2 0x76E PUSH2 0x1A0 DUP5 ADD DUP3 PUSH1 0x1 PUSH1 0x1 PUSH1 0xA0 SHL SUB AND SWAP1 MSTORE JUMP JUMPDEST PUSH1 0x20 DUP1 DUP3 MSTORE DUP3 MLOAD DUP3 DUP3 ADD DUP2 SWAP1 MSTORE PUSH0 SWAP2 DUP5 ADD SWAP1 PUSH1 0x40 DUP5 ADD SWAP1 DUP4 JUMPDEST DUP2 DUP2 LT ISZERO PUSH2 0x1E26 JUMPI PUSH2 0x20A5 DUP4 DUP6 MLOAD PUSH2 0x1F5D JUMP JUMPDEST PUSH1 0x20 SWAP4 SWAP1 SWAP4 ADD SWAP3 PUSH2 0x1C0 SWAP3 SWAP1 SWAP3 ADD SWAP2 PUSH1 0x1 ADD PUSH2 0x2092 JUMP JUMPDEST PUSH0 DUP1 PUSH1 0x40 DUP4 DUP6 SUB SLT ISZERO PUSH2 0x20CD JUMPI PUSH0 DUP1 REVERT JUMPDEST DUP3 CALLDATALOAD PUSH2 0x20D8 DUP2 PUSH2 0x1D69 JUMP JUMPDEST SWAP2 POP PUSH1 0x20 DUP4 ADD CALLDATALOAD PUSH1 0x7 DUP2 LT PUSH2 0x1DA9 JUMPI PUSH0 DUP1 REVERT JUMPDEST PUSH1 0x20 DUP2 ADD PUSH2 0x4D3 DUP3 DUP5 PUSH2 0x1F4D JUMP JUMPDEST PUSH2 0x1C0 DUP2 ADD PUSH2 0x4D3 DUP3 DUP5 PUSH2 0x1F5D JUMP JUMPDEST PUSH1 0x20 DUP1 DUP3 MSTORE PUSH1 0x13 SWAP1 DUP3 ADD MSTORE PUSH19 0x141BDBDB081B9BDD081C9959DA5CDD195C9959 PUSH1 0x6A SHL PUSH1 0x40 DUP3 ADD MSTORE PUSH1 0x60 ADD SWAP1 JUMP JUMPDEST PUSH1 0x1 PUSH1 0x1 PUSH1 0xA0 SHL SUB DUP4 AND DUP2 MSTORE PUSH1 0x40 DUP2 ADD PUSH2 0x1D62 PUSH1 0x20 DUP4 ADD DUP5 PUSH2 0x1F39 JUMP JUMPDEST PUSH4 0x4E487B71 PUSH1 0xE0 SHL PUSH0 MSTORE PUSH1 0x41 PUSH1 0x4 MSTORE PUSH1 0x24 PUSH0 REVERT JUMPDEST PUSH4 0x4E487B71 PUSH1 0xE0 SHL PUSH0 MSTORE PUSH1 0x32 PUSH1 0x4 MSTORE PUSH1 0x24 PUSH0 REVERT JUMPDEST PUSH1 0x40 DUP2 ADD PUSH2 0x2188 DUP3 DUP6 PUSH2 0x1F4D JUMP JUMPDEST PUSH2 0x1D62 PUSH1 0x20 DUP4 ADD DUP5 PUSH2 0x1F4D JUMP JUMPDEST DUP2 DUP2 SUB DUP2 DUP2 GT ISZERO PUSH2 0x4D3 JUMPI PUSH4 0x4E487B71 PUSH1 0xE0 SHL PUSH0 MSTORE PUSH1 0x11 PUSH1 0x4 MSTORE PUSH1 0x24 PUSH0 REVERT JUMPDEST PUSH4 0x4E487B71 PUSH1 0xE0 SHL PUSH0 MSTORE PUSH1 0x31 PUSH1 0x4 MSTORE PUSH1 0x24 PUSH0 REVERT INVALID LOG2 PUSH5 0x6970667358 0x22 SLT KECCAK256 PUSH14 0x1A1197A7B0C64F985E9F6CDC927F DUP10 RETURN SWAP3 0xD3 0xA6 0xA8 KECCAK256 0xD1 PUSH27 0xA8271FCC23C6619D64736F6C634300081A00330000000000000000 "
				},
				"gasEstimates": {
					"creation": {
						"codeDepositCost": "1740400",
						"executionCost": "infinite",
						"totalCost": "infinite"
					},
					"external": {
						"DEFAULT_ADMIN_ROLE()": "260",
						"POOL_MANAGER_ROLE()": "283",
						"deregisterPool(address)": "infinite",
						"getAllLenderPoolDetails(address)": "infinite",
						"getAllPoolAddresses()": "infinite",
						"getBorrowerPoolDetails(address)": "infinite",
						"getLoanState(address)": "2704",
						"getManagers()": "4519",
						"getPoolDetails(address)": "infinite",
						"getPoolsByBorrower(address)": "infinite",
						"getPoolsByLender(address)": "infinite",
						"getRoleAdmin(bytes32)": "2534",
						"getTotalPools()": "2335",
						"getVaultForPool(address)": "4833",
						"grantFactoryAccess(address)": "infinite",
						"grantRole(bytes32,address)": "infinite",
						"hasRole(bytes32,address)": "2692",
						"markPoolAsFunded(address)": "26884",
						"poolVaults(address)": "2595",
						"registerManagers(address,address)": "infinite",
						"registerPool(address,address,address,address,address,address,address,uint256,uint256,uint256,uint8)": "infinite",
						"registerVault(address,address)": "infinite",
						"renounceRole(bytes32,address)": "29085",
						"revokeRole(bytes32,address)": "infinite",
						"rewardManager()": "2427",
						"setBorrowerForPool(address,address)": "infinite",
						"supportsInterface(bytes4)": "470",
						"updateLoanState(address,uint8)": "infinite",
						"vaultManager()": "2426"
					},
					"internal": {
						"_removePoolFromBorrowerArray(address,address)": "infinite",
						"_removePoolFromLenderArray(address,address)": "infinite",
						"_removePoolFromMainArray(address)": "infinite",
						"findIndexInArray(address[] storage pointer,address)": "infinite"
					}
				},
				"methodIdentifiers": {
					"DEFAULT_ADMIN_ROLE()": "a217fddf",
					"POOL_MANAGER_ROLE()": "56d73568",
					"deregisterPool(address)": "7e72c7d7",
					"getAllLenderPoolDetails(address)": "52fc9b0e",
					"getAllPoolAddresses()": "c56f1b44",
					"getBorrowerPoolDetails(address)": "ec209544",
					"getLoanState(address)": "c81c3bef",
					"getManagers()": "a8d088bb",
					"getPoolDetails(address)": "d3e90fa0",
					"getPoolsByBorrower(address)": "e7ef32f7",
					"getPoolsByLender(address)": "24a44efb",
					"getRoleAdmin(bytes32)": "248a9ca3",
					"getTotalPools()": "d3ffe67a",
					"getVaultForPool(address)": "7570e389",
					"grantFactoryAccess(address)": "5d102df7",
					"grantRole(bytes32,address)": "2f2ff15d",
					"hasRole(bytes32,address)": "91d14854",
					"markPoolAsFunded(address)": "1f2f2e14",
					"poolVaults(address)": "1e4966ab",
					"registerManagers(address,address)": "c489579d",
					"registerPool(address,address,address,address,address,address,address,uint256,uint256,uint256,uint8)": "43756020",
					"registerVault(address,address)": "05c4fdf9",
					"renounceRole(bytes32,address)": "36568abe",
					"revokeRole(bytes32,address)": "d547741f",
					"rewardManager()": "0f4ef8a6",
					"setBorrowerForPool(address,address)": "37e238c5",
					"supportsInterface(bytes4)": "01ffc9a7",
					"updateLoanState(address,uint8)": "a956239b",
					"vaultManager()": "8a4adf24"
				}
			},
			"storageLayout": {
				"storage": [
					{
						"astId": 26,
						"contract": "contracts/contracts/protocol/PoolOrganizer.sol:PoolOrganizer",
						"label": "_roles",
						"offset": 0,
						"slot": "0",
						"type": "t_mapping(t_bytes32,t_struct(RoleData)21_storage)"
					},
					{
						"astId": 794,
						"contract": "contracts/contracts/protocol/PoolOrganizer.sol:PoolOrganizer",
						"label": "vaultManager",
						"offset": 0,
						"slot": "1",
						"type": "t_contract(IVaultManager)775"
					},
					{
						"astId": 797,
						"contract": "contracts/contracts/protocol/PoolOrganizer.sol:PoolOrganizer",
						"label": "rewardManager",
						"offset": 0,
						"slot": "2",
						"type": "t_contract(IRewardManager)727"
					},
					{
						"astId": 800,
						"contract": "contracts/contracts/protocol/PoolOrganizer.sol:PoolOrganizer",
						"label": "pools",
						"offset": 0,
						"slot": "3",
						"type": "t_array(t_address)dyn_storage"
					},
					{
						"astId": 805,
						"contract": "contracts/contracts/protocol/PoolOrganizer.sol:PoolOrganizer",
						"label": "poolDetails",
						"offset": 0,
						"slot": "4",
						"type": "t_mapping(t_address,t_struct(PoolDetails)571_storage)"
					},
					{
						"astId": 810,
						"contract": "contracts/contracts/protocol/PoolOrganizer.sol:PoolOrganizer",
						"label": "lenderPools",
						"offset": 0,
						"slot": "5",
						"type": "t_mapping(t_address,t_array(t_address)dyn_storage)"
					},
					{
						"astId": 814,
						"contract": "contracts/contracts/protocol/PoolOrganizer.sol:PoolOrganizer",
						"label": "poolVaults",
						"offset": 0,
						"slot": "6",
						"type": "t_mapping(t_address,t_address)"
					},
					{
						"astId": 819,
						"contract": "contracts/contracts/protocol/PoolOrganizer.sol:PoolOrganizer",
						"label": "borrowerPools",
						"offset": 0,
						"slot": "7",
						"type": "t_mapping(t_address,t_array(t_address)dyn_storage)"
					},
					{
						"astId": 824,
						"contract": "contracts/contracts/protocol/PoolOrganizer.sol:PoolOrganizer",
						"label": "loanStates",
						"offset": 0,
						"slot": "8",
						"type": "t_mapping(t_address,t_enum(LoanState)537)"
					}
				],
				"types": {
					"t_address": {
						"encoding": "inplace",
						"label": "address",
						"numberOfBytes": "20"
					},
					"t_array(t_address)dyn_storage": {
						"base": "t_address",
						"encoding": "dynamic_array",
						"label": "address[]",
						"numberOfBytes": "32"
					},
					"t_bool": {
						"encoding": "inplace",
						"label": "bool",
						"numberOfBytes": "1"
					},
					"t_bytes32": {
						"encoding": "inplace",
						"label": "bytes32",
						"numberOfBytes": "32"
					},
					"t_contract(IERC20)456": {
						"encoding": "inplace",
						"label": "contract IERC20",
						"numberOfBytes": "20"
					},
					"t_contract(IRewardManager)727": {
						"encoding": "inplace",
						"label": "contract IRewardManager",
						"numberOfBytes": "20"
					},
					"t_contract(IVaultManager)775": {
						"encoding": "inplace",
						"label": "contract IVaultManager",
						"numberOfBytes": "20"
					},
					"t_enum(LoanState)537": {
						"encoding": "inplace",
						"label": "enum IPoolOrganizer.LoanState",
						"numberOfBytes": "1"
					},
					"t_enum(PoolType)529": {
						"encoding": "inplace",
						"label": "enum IPoolOrganizer.PoolType",
						"numberOfBytes": "1"
					},
					"t_mapping(t_address,t_address)": {
						"encoding": "mapping",
						"key": "t_address",
						"label": "mapping(address => address)",
						"numberOfBytes": "32",
						"value": "t_address"
					},
					"t_mapping(t_address,t_array(t_address)dyn_storage)": {
						"encoding": "mapping",
						"key": "t_address",
						"label": "mapping(address => address[])",
						"numberOfBytes": "32",
						"value": "t_array(t_address)dyn_storage"
					},
					"t_mapping(t_address,t_bool)": {
						"encoding": "mapping",
						"key": "t_address",
						"label": "mapping(address => bool)",
						"numberOfBytes": "32",
						"value": "t_bool"
					},
					"t_mapping(t_address,t_enum(LoanState)537)": {
						"encoding": "mapping",
						"key": "t_address",
						"label": "mapping(address => enum IPoolOrganizer.LoanState)",
						"numberOfBytes": "32",
						"value": "t_enum(LoanState)537"
					},
					"t_mapping(t_address,t_struct(PoolDetails)571_storage)": {
						"encoding": "mapping",
						"key": "t_address",
						"label": "mapping(address => struct IPoolOrganizer.PoolDetails)",
						"numberOfBytes": "32",
						"value": "t_struct(PoolDetails)571_storage"
					},
					"t_mapping(t_bytes32,t_struct(RoleData)21_storage)": {
						"encoding": "mapping",
						"key": "t_bytes32",
						"label": "mapping(bytes32 => struct AccessControl.RoleData)",
						"numberOfBytes": "32",
						"value": "t_struct(RoleData)21_storage"
					},
					"t_struct(PoolDetails)571_storage": {
						"encoding": "inplace",
						"label": "struct IPoolOrganizer.PoolDetails",
						"members": [
							{
								"astId": 539,
								"contract": "contracts/contracts/protocol/PoolOrganizer.sol:PoolOrganizer",
								"label": "lender",
								"offset": 0,
								"slot": "0",
								"type": "t_address"
							},
							{
								"astId": 541,
								"contract": "contracts/contracts/protocol/PoolOrganizer.sol:PoolOrganizer",
								"label": "borrower",
								"offset": 0,
								"slot": "1",
								"type": "t_address"
							},
							{
								"astId": 543,
								"contract": "contracts/contracts/protocol/PoolOrganizer.sol:PoolOrganizer",
								"label": "creationTime",
								"offset": 0,
								"slot": "2",
								"type": "t_uint256"
							},
							{
								"astId": 545,
								"contract": "contracts/contracts/protocol/PoolOrganizer.sol:PoolOrganizer",
								"label": "vault",
								"offset": 0,
								"slot": "3",
								"type": "t_address"
							},
							{
								"astId": 548,
								"contract": "contracts/contracts/protocol/PoolOrganizer.sol:PoolOrganizer",
								"label": "loanToken",
								"offset": 0,
								"slot": "4",
								"type": "t_contract(IERC20)456"
							},
							{
								"astId": 551,
								"contract": "contracts/contracts/protocol/PoolOrganizer.sol:PoolOrganizer",
								"label": "assetToken",
								"offset": 0,
								"slot": "5",
								"type": "t_contract(IERC20)456"
							},
							{
								"astId": 554,
								"contract": "contracts/contracts/protocol/PoolOrganizer.sol:PoolOrganizer",
								"label": "repaymentToken",
								"offset": 0,
								"slot": "6",
								"type": "t_contract(IERC20)456"
							},
							{
								"astId": 556,
								"contract": "contracts/contracts/protocol/PoolOrganizer.sol:PoolOrganizer",
								"label": "loanAmount",
								"offset": 0,
								"slot": "7",
								"type": "t_uint256"
							},
							{
								"astId": 558,
								"contract": "contracts/contracts/protocol/PoolOrganizer.sol:PoolOrganizer",
								"label": "interestRate",
								"offset": 0,
								"slot": "8",
								"type": "t_uint256"
							},
							{
								"astId": 560,
								"contract": "contracts/contracts/protocol/PoolOrganizer.sol:PoolOrganizer",
								"label": "repaymentPeriod",
								"offset": 0,
								"slot": "9",
								"type": "t_uint256"
							},
							{
								"astId": 563,
								"contract": "contracts/contracts/protocol/PoolOrganizer.sol:PoolOrganizer",
								"label": "poolType",
								"offset": 0,
								"slot": "10",
								"type": "t_enum(PoolType)529"
							},
							{
								"astId": 565,
								"contract": "contracts/contracts/protocol/PoolOrganizer.sol:PoolOrganizer",
								"label": "funded",
								"offset": 1,
								"slot": "10",
								"type": "t_bool"
							},
							{
								"astId": 568,
								"contract": "contracts/contracts/protocol/PoolOrganizer.sol:PoolOrganizer",
								"label": "loanState",
								"offset": 2,
								"slot": "10",
								"type": "t_enum(LoanState)537"
							},
							{
								"astId": 570,
								"contract": "contracts/contracts/protocol/PoolOrganizer.sol:PoolOrganizer",
								"label": "pool",
								"offset": 3,
								"slot": "10",
								"type": "t_address"
							}
						],
						"numberOfBytes": "352"
					},
					"t_struct(RoleData)21_storage": {
						"encoding": "inplace",
						"label": "struct AccessControl.RoleData",
						"members": [
							{
								"astId": 18,
								"contract": "contracts/contracts/protocol/PoolOrganizer.sol:PoolOrganizer",
								"label": "hasRole",
								"offset": 0,
								"slot": "0",
								"type": "t_mapping(t_address,t_bool)"
							},
							{
								"astId": 20,
								"contract": "contracts/contracts/protocol/PoolOrganizer.sol:PoolOrganizer",
								"label": "adminRole",
								"offset": 0,
								"slot": "1",
								"type": "t_bytes32"
							}
						],
						"numberOfBytes": "64"
					},
					"t_uint256": {
						"encoding": "inplace",
						"label": "uint256",
						"numberOfBytes": "32"
					}
				}
			},
			"userdoc": {
				"kind": "user",
				"methods": {
					"deregisterPool(address)": {
						"notice": "Deregisters a pool."
					},
					"getAllLenderPoolDetails(address)": {
						"notice": "Gets the details of all pools associated with a lender."
					},
					"getAllPoolAddresses()": {
						"notice": "Gets all registered pool addresses."
					},
					"getBorrowerPoolDetails(address)": {
						"notice": "Gets the details of all pools associated with a borrower."
					},
					"getLoanState(address)": {
						"notice": "Gets the current loan state of a specific pool."
					},
					"getManagers()": {
						"notice": "Gets the addresses of the registered managers."
					},
					"getPoolDetails(address)": {
						"notice": "Gets the details of a specified pool."
					},
					"getPoolsByBorrower(address)": {
						"notice": "Gets all pools associated with a borrower."
					},
					"getPoolsByLender(address)": {
						"notice": "Gets all pools associated with a lender."
					},
					"getTotalPools()": {
						"notice": "Gets the total number of registered pools."
					},
					"getVaultForPool(address)": {
						"notice": "Gets the vault address associated with a pool."
					},
					"grantFactoryAccess(address)": {
						"notice": "Grants factory access to the specified address."
					},
					"markPoolAsFunded(address)": {
						"notice": "Marks a pool as funded."
					},
					"registerManagers(address,address)": {
						"notice": "Registers the vault and reward managers."
					},
					"registerPool(address,address,address,address,address,address,address,uint256,uint256,uint256,uint8)": {
						"notice": "Registers a new pool with the specified details."
					},
					"registerVault(address,address)": {
						"notice": "Registers a vault for a specified pool."
					},
					"setBorrowerForPool(address,address)": {
						"notice": "Sets the borrower for a specified pool."
					},
					"updateLoanState(address,uint8)": {
						"notice": "Updates the loan state of the specified pool and emits a `LoanStateUpdated` event."
					}
				},
				"version": 1
			}
		}
	}
}