{
	"contracts/contracts/protocol/PoolOrganizer.sol": {
		"PoolOrganizer": {
			"abi": [
				{
					"inputs": [],
					"stateMutability": "nonpayable",
					"type": "constructor"
				},
				{
					"inputs": [],
					"name": "AccessControlBadConfirmation",
					"type": "error"
				},
				{
					"inputs": [
						{
							"internalType": "address",
							"name": "account",
							"type": "address"
						},
						{
							"internalType": "bytes32",
							"name": "neededRole",
							"type": "bytes32"
						}
					],
					"name": "AccessControlUnauthorizedAccount",
					"type": "error"
				},
				{
					"anonymous": false,
					"inputs": [
						{
							"indexed": false,
							"internalType": "address",
							"name": "vaultManager",
							"type": "address"
						},
						{
							"indexed": false,
							"internalType": "address",
							"name": "rewardManager",
							"type": "address"
						}
					],
					"name": "ManagerRegistered",
					"type": "event"
				},
				{
					"anonymous": false,
					"inputs": [
						{
							"indexed": true,
							"internalType": "address",
							"name": "pool",
							"type": "address"
						}
					],
					"name": "PoolDeregistered",
					"type": "event"
				},
				{
					"anonymous": false,
					"inputs": [
						{
							"indexed": true,
							"internalType": "address",
							"name": "pool",
							"type": "address"
						},
						{
							"indexed": true,
							"internalType": "address",
							"name": "lender",
							"type": "address"
						},
						{
							"indexed": true,
							"internalType": "address",
							"name": "borrower",
							"type": "address"
						},
						{
							"indexed": false,
							"internalType": "address",
							"name": "vault",
							"type": "address"
						},
						{
							"indexed": false,
							"internalType": "enum IPoolOrganizer.PoolType",
							"name": "poolType",
							"type": "uint8"
						}
					],
					"name": "PoolRegistered",
					"type": "event"
				},
				{
					"anonymous": false,
					"inputs": [
						{
							"indexed": true,
							"internalType": "bytes32",
							"name": "role",
							"type": "bytes32"
						},
						{
							"indexed": true,
							"internalType": "bytes32",
							"name": "previousAdminRole",
							"type": "bytes32"
						},
						{
							"indexed": true,
							"internalType": "bytes32",
							"name": "newAdminRole",
							"type": "bytes32"
						}
					],
					"name": "RoleAdminChanged",
					"type": "event"
				},
				{
					"anonymous": false,
					"inputs": [
						{
							"indexed": true,
							"internalType": "bytes32",
							"name": "role",
							"type": "bytes32"
						},
						{
							"indexed": true,
							"internalType": "address",
							"name": "account",
							"type": "address"
						},
						{
							"indexed": true,
							"internalType": "address",
							"name": "sender",
							"type": "address"
						}
					],
					"name": "RoleGranted",
					"type": "event"
				},
				{
					"anonymous": false,
					"inputs": [
						{
							"indexed": true,
							"internalType": "bytes32",
							"name": "role",
							"type": "bytes32"
						},
						{
							"indexed": true,
							"internalType": "address",
							"name": "account",
							"type": "address"
						},
						{
							"indexed": true,
							"internalType": "address",
							"name": "sender",
							"type": "address"
						}
					],
					"name": "RoleRevoked",
					"type": "event"
				},
				{
					"anonymous": false,
					"inputs": [
						{
							"indexed": true,
							"internalType": "address",
							"name": "pool",
							"type": "address"
						},
						{
							"indexed": true,
							"internalType": "address",
							"name": "vault",
							"type": "address"
						}
					],
					"name": "VaultRegistered",
					"type": "event"
				},
				{
					"inputs": [],
					"name": "DEFAULT_ADMIN_ROLE",
					"outputs": [
						{
							"internalType": "bytes32",
							"name": "",
							"type": "bytes32"
						}
					],
					"stateMutability": "view",
					"type": "function"
				},
				{
					"inputs": [],
					"name": "POOL_MANAGER_ROLE",
					"outputs": [
						{
							"internalType": "bytes32",
							"name": "",
							"type": "bytes32"
						}
					],
					"stateMutability": "view",
					"type": "function"
				},
				{
					"inputs": [
						{
							"internalType": "address",
							"name": "pool",
							"type": "address"
						}
					],
					"name": "deregisterPool",
					"outputs": [],
					"stateMutability": "nonpayable",
					"type": "function"
				},
				{
					"inputs": [],
					"name": "getManagers",
					"outputs": [
						{
							"internalType": "address",
							"name": "",
							"type": "address"
						},
						{
							"internalType": "address",
							"name": "",
							"type": "address"
						}
					],
					"stateMutability": "view",
					"type": "function"
				},
				{
					"inputs": [
						{
							"internalType": "address",
							"name": "pool",
							"type": "address"
						}
					],
					"name": "getPoolDetails",
					"outputs": [
						{
							"components": [
								{
									"internalType": "address",
									"name": "lender",
									"type": "address"
								},
								{
									"internalType": "address",
									"name": "borrower",
									"type": "address"
								},
								{
									"internalType": "uint256",
									"name": "creationTime",
									"type": "uint256"
								},
								{
									"internalType": "address",
									"name": "vault",
									"type": "address"
								},
								{
									"internalType": "address",
									"name": "loanToken",
									"type": "address"
								},
								{
									"internalType": "address",
									"name": "assetToken",
									"type": "address"
								},
								{
									"internalType": "uint256",
									"name": "loanAmount",
									"type": "uint256"
								},
								{
									"internalType": "uint256",
									"name": "interestRate",
									"type": "uint256"
								},
								{
									"internalType": "uint256",
									"name": "repaymentPeriod",
									"type": "uint256"
								},
								{
									"internalType": "enum IPoolOrganizer.PoolType",
									"name": "poolType",
									"type": "uint8"
								}
							],
							"internalType": "struct IPoolOrganizer.PoolDetails",
							"name": "",
							"type": "tuple"
						}
					],
					"stateMutability": "view",
					"type": "function"
				},
				{
					"inputs": [
						{
							"internalType": "address",
							"name": "lender",
							"type": "address"
						}
					],
					"name": "getPoolsByLender",
					"outputs": [
						{
							"internalType": "address[]",
							"name": "",
							"type": "address[]"
						}
					],
					"stateMutability": "view",
					"type": "function"
				},
				{
					"inputs": [
						{
							"internalType": "bytes32",
							"name": "role",
							"type": "bytes32"
						}
					],
					"name": "getRoleAdmin",
					"outputs": [
						{
							"internalType": "bytes32",
							"name": "",
							"type": "bytes32"
						}
					],
					"stateMutability": "view",
					"type": "function"
				},
				{
					"inputs": [],
					"name": "getTotalPools",
					"outputs": [
						{
							"internalType": "uint256",
							"name": "",
							"type": "uint256"
						}
					],
					"stateMutability": "view",
					"type": "function"
				},
				{
					"inputs": [
						{
							"internalType": "address",
							"name": "pool",
							"type": "address"
						}
					],
					"name": "getVaultForPool",
					"outputs": [
						{
							"internalType": "address",
							"name": "",
							"type": "address"
						}
					],
					"stateMutability": "view",
					"type": "function"
				},
				{
					"inputs": [
						{
							"internalType": "address",
							"name": "factoryAddress",
							"type": "address"
						}
					],
					"name": "grantFactoryAccess",
					"outputs": [],
					"stateMutability": "nonpayable",
					"type": "function"
				},
				{
					"inputs": [
						{
							"internalType": "bytes32",
							"name": "role",
							"type": "bytes32"
						},
						{
							"internalType": "address",
							"name": "account",
							"type": "address"
						}
					],
					"name": "grantRole",
					"outputs": [],
					"stateMutability": "nonpayable",
					"type": "function"
				},
				{
					"inputs": [
						{
							"internalType": "bytes32",
							"name": "role",
							"type": "bytes32"
						},
						{
							"internalType": "address",
							"name": "account",
							"type": "address"
						}
					],
					"name": "hasRole",
					"outputs": [
						{
							"internalType": "bool",
							"name": "",
							"type": "bool"
						}
					],
					"stateMutability": "view",
					"type": "function"
				},
				{
					"inputs": [
						{
							"internalType": "address",
							"name": "",
							"type": "address"
						}
					],
					"name": "poolVaults",
					"outputs": [
						{
							"internalType": "address",
							"name": "",
							"type": "address"
						}
					],
					"stateMutability": "view",
					"type": "function"
				},
				{
					"inputs": [
						{
							"internalType": "address",
							"name": "_vaultManager",
							"type": "address"
						},
						{
							"internalType": "address",
							"name": "_rewardManager",
							"type": "address"
						}
					],
					"name": "registerManagers",
					"outputs": [],
					"stateMutability": "nonpayable",
					"type": "function"
				},
				{
					"inputs": [
						{
							"internalType": "address",
							"name": "pool",
							"type": "address"
						},
						{
							"internalType": "address",
							"name": "lender",
							"type": "address"
						},
						{
							"internalType": "address",
							"name": "borrower",
							"type": "address"
						},
						{
							"internalType": "address",
							"name": "vault",
							"type": "address"
						},
						{
							"internalType": "address",
							"name": "loanToken",
							"type": "address"
						},
						{
							"internalType": "address",
							"name": "assetToken",
							"type": "address"
						},
						{
							"internalType": "uint256",
							"name": "loanAmount",
							"type": "uint256"
						},
						{
							"internalType": "uint256",
							"name": "interestRate",
							"type": "uint256"
						},
						{
							"internalType": "uint256",
							"name": "repaymentPeriod",
							"type": "uint256"
						},
						{
							"internalType": "enum IPoolOrganizer.PoolType",
							"name": "poolType",
							"type": "uint8"
						}
					],
					"name": "registerPool",
					"outputs": [],
					"stateMutability": "nonpayable",
					"type": "function"
				},
				{
					"inputs": [
						{
							"internalType": "address",
							"name": "pool",
							"type": "address"
						},
						{
							"internalType": "address",
							"name": "vault",
							"type": "address"
						}
					],
					"name": "registerVault",
					"outputs": [],
					"stateMutability": "nonpayable",
					"type": "function"
				},
				{
					"inputs": [
						{
							"internalType": "bytes32",
							"name": "role",
							"type": "bytes32"
						},
						{
							"internalType": "address",
							"name": "callerConfirmation",
							"type": "address"
						}
					],
					"name": "renounceRole",
					"outputs": [],
					"stateMutability": "nonpayable",
					"type": "function"
				},
				{
					"inputs": [
						{
							"internalType": "bytes32",
							"name": "role",
							"type": "bytes32"
						},
						{
							"internalType": "address",
							"name": "account",
							"type": "address"
						}
					],
					"name": "revokeRole",
					"outputs": [],
					"stateMutability": "nonpayable",
					"type": "function"
				},
				{
					"inputs": [],
					"name": "rewardManager",
					"outputs": [
						{
							"internalType": "contract IRewardManager",
							"name": "",
							"type": "address"
						}
					],
					"stateMutability": "view",
					"type": "function"
				},
				{
					"inputs": [
						{
							"internalType": "bytes4",
							"name": "interfaceId",
							"type": "bytes4"
						}
					],
					"name": "supportsInterface",
					"outputs": [
						{
							"internalType": "bool",
							"name": "",
							"type": "bool"
						}
					],
					"stateMutability": "view",
					"type": "function"
				},
				{
					"inputs": [],
					"name": "vaultManager",
					"outputs": [
						{
							"internalType": "contract IVaultManager",
							"name": "",
							"type": "address"
						}
					],
					"stateMutability": "view",
					"type": "function"
				}
			],
			"devdoc": {
				"details": "Implements access control and management for pool lifecycle and integration with external managers.",
				"errors": {
					"AccessControlBadConfirmation()": [
						{
							"details": "The caller of a function is not the expected one. NOTE: Don't confuse with {AccessControlUnauthorizedAccount}."
						}
					],
					"AccessControlUnauthorizedAccount(address,bytes32)": [
						{
							"details": "The `account` is missing a role."
						}
					]
				},
				"events": {
					"ManagerRegistered(address,address)": {
						"details": "Emitted when managers are registered."
					},
					"PoolDeregistered(address)": {
						"details": "Emitted when a pool is deregistered."
					},
					"PoolRegistered(address,address,address,address,uint8)": {
						"details": "Emitted when a pool is registered."
					},
					"RoleAdminChanged(bytes32,bytes32,bytes32)": {
						"details": "Emitted when `newAdminRole` is set as ``role``'s admin role, replacing `previousAdminRole` `DEFAULT_ADMIN_ROLE` is the starting admin for all roles, despite {RoleAdminChanged} not being emitted signaling this."
					},
					"RoleGranted(bytes32,address,address)": {
						"details": "Emitted when `account` is granted `role`. `sender` is the account that originated the contract call, an admin role bearer except when using {AccessControl-_setupRole}."
					},
					"RoleRevoked(bytes32,address,address)": {
						"details": "Emitted when `account` is revoked `role`. `sender` is the account that originated the contract call:   - if using `revokeRole`, it is the admin role bearer   - if using `renounceRole`, it is the role bearer (i.e. `account`)"
					}
				},
				"kind": "dev",
				"methods": {
					"deregisterPool(address)": {
						"params": {
							"pool": "The address of the pool to deregister."
						}
					},
					"getManagers()": {
						"returns": {
							"_0": "A tuple containing the addresses of the VaultManager and RewardManager."
						}
					},
					"getPoolDetails(address)": {
						"params": {
							"pool": "The address of the pool."
						},
						"returns": {
							"_0": "Details of the specified pool."
						}
					},
					"getPoolsByLender(address)": {
						"params": {
							"lender": "The address of the lender."
						},
						"returns": {
							"_0": "An array of pool addresses."
						}
					},
					"getRoleAdmin(bytes32)": {
						"details": "Returns the admin role that controls `role`. See {grantRole} and {revokeRole}. To change a role's admin, use {_setRoleAdmin}."
					},
					"getTotalPools()": {
						"returns": {
							"_0": "The total number of pools."
						}
					},
					"getVaultForPool(address)": {
						"params": {
							"pool": "The address of the pool."
						},
						"returns": {
							"_0": "The address of the vault linked to the pool."
						}
					},
					"grantFactoryAccess(address)": {
						"params": {
							"factoryAddress": "The address of the factory to be granted access."
						}
					},
					"grantRole(bytes32,address)": {
						"details": "Grants `role` to `account`. If `account` had not been already granted `role`, emits a {RoleGranted} event. Requirements: - the caller must have ``role``'s admin role. May emit a {RoleGranted} event."
					},
					"hasRole(bytes32,address)": {
						"details": "Returns `true` if `account` has been granted `role`."
					},
					"registerManagers(address,address)": {
						"params": {
							"_rewardManager": "Address of the RewardManager contract.",
							"_vaultManager": "Address of the VaultManager contract."
						}
					},
					"registerPool(address,address,address,address,address,address,uint256,uint256,uint256,uint8)": {
						"params": {
							"assetToken": "The address of the asset token used as collateral.",
							"borrower": "The address of the borrower (if known at this point, otherwise zero).",
							"interestRate": "The interest rate of the loan.",
							"lender": "The address of the lender.",
							"loanAmount": "The amount of the loan.",
							"loanToken": "The address of the loan token.",
							"pool": "The address of the new pool.",
							"poolType": "The type of the pool (standard or flash).",
							"repaymentPeriod": "The period over which the loan is to be repaid.",
							"vault": "The address of the vault associated with the pool."
						}
					},
					"registerVault(address,address)": {
						"details": "This function can only be called by authorized roles, typically the PoolFactory.",
						"params": {
							"pool": "The address of the pool for which the vault is being registered.",
							"vault": "The address of the newly created vault."
						}
					},
					"renounceRole(bytes32,address)": {
						"details": "Revokes `role` from the calling account. Roles are often managed via {grantRole} and {revokeRole}: this function's purpose is to provide a mechanism for accounts to lose their privileges if they are compromised (such as when a trusted device is misplaced). If the calling account had been revoked `role`, emits a {RoleRevoked} event. Requirements: - the caller must be `callerConfirmation`. May emit a {RoleRevoked} event."
					},
					"revokeRole(bytes32,address)": {
						"details": "Revokes `role` from `account`. If `account` had been granted `role`, emits a {RoleRevoked} event. Requirements: - the caller must have ``role``'s admin role. May emit a {RoleRevoked} event."
					},
					"supportsInterface(bytes4)": {
						"details": "See {IERC165-supportsInterface}."
					}
				},
				"title": "Pool Organizer for managing pools, vaults, and rewards.",
				"version": 1
			},
			"evm": {
				"assembly": "    /* \"contracts/contracts/protocol/PoolOrganizer.sol\":421:8230  contract PoolOrganizer is AccessControl, IPoolOrganizer {... */\n  mstore(0x40, 0x80)\n  jumpi(tag_3, callvalue)\n    /* \"contracts/contracts/protocol/PoolOrganizer.sol\":1387:1429  _grantRole(DEFAULT_ADMIN_ROLE, msg.sender) */\n  tag_5\n    /* \"contracts/contracts/protocol/PoolOrganizer.sol\":1418:1428  msg.sender */\n  caller\n    /* \"contracts/contracts/protocol/PoolOrganizer.sol\":1387:1429  _grantRole(DEFAULT_ADMIN_ROLE, msg.sender) */\n  tag_1\n  jump\t// in\ntag_5:\n  pop\n    /* \"contracts/contracts/protocol/PoolOrganizer.sol\":1439:1480  _grantRole(POOL_MANAGER_ROLE, msg.sender) */\n  tag_6\n    /* \"contracts/contracts/protocol/PoolOrganizer.sol\":1418:1428  msg.sender */\n  caller\n    /* \"contracts/contracts/protocol/PoolOrganizer.sol\":1439:1480  _grantRole(POOL_MANAGER_ROLE, msg.sender) */\n  tag_2\n  jump\t// in\ntag_6:\n  pop\n    /* \"contracts/contracts/protocol/PoolOrganizer.sol\":421:8230  contract PoolOrganizer is AccessControl, IPoolOrganizer {... */\n  mload(0x40)\n  dataSize(sub_0)\n  swap1\n  dup2\n  dataOffset(sub_0)\n  dup3\n  codecopy\n  return\ntag_3:\n  0x00\n  dup1\n  revert\n    /* \"@openzeppelin/contracts/access/AccessControl.sol\":6179:6495  function _grantRole(bytes32 role, address account) internal virtual returns (bool) {... */\ntag_1:\n  sub(shl(0xa0, 0x01), 0x01)\n    /* \"contracts/contracts/protocol/PoolOrganizer.sol\":421:8230  contract PoolOrganizer is AccessControl, IPoolOrganizer {... */\n  and\n    /* \"@openzeppelin/contracts/access/AccessControl.sol\":2232:2236  0x00 */\n  0x00\n    /* \"contracts/contracts/protocol/PoolOrganizer.sol\":421:8230  contract PoolOrganizer is AccessControl, IPoolOrganizer {... */\n  dup2\n  dup2\n  mstore\n  mstore(0x20, 0xad3228b676f7d3cd4284a5443f17f1962b36e491b30a40b2405849e597ba5fb5)\n  0x40\n  dup2\n  keccak256\n  sload\n    /* \"@openzeppelin/contracts/access/AccessControl.sol\":2232:2236  0x00 */\n  swap1\n  swap2\n    /* \"contracts/contracts/protocol/PoolOrganizer.sol\":421:8230  contract PoolOrganizer is AccessControl, IPoolOrganizer {... */\n  swap1\n  0xff\n  and\n  tag_7\n  jumpi\n  dup2\n  dup1\n  mstore\n  dup2\n  0x20\n  mstore\n  0x40\n  dup3\n  keccak256\n  dup2\n  dup4\n  mstore\n  0x20\n  mstore\n  0x40\n  dup3\n  keccak256\n  0x01\n  not(0xff)\n  dup3\n  sload\n  and\n  or\n  swap1\n  sstore\n    /* \"@openzeppelin/contracts/utils/Context.sol\":735:745  msg.sender */\n  caller\n    /* \"@openzeppelin/contracts/access/AccessControl.sol\":6370:6410  RoleGranted(role, account, _msgSender()) */\n  swap2\n  0x00\n  dup1\n  mload\n  0x20\n  data_01400fe2f234cf888b5e4c66700c7903f33f31bfc9675e51cb0119f915eb534d\n  dup4\n  codecopy\n  dup2\n  mload\n  swap2\n  mstore\n  dup2\n  dup1\n  log4\n    /* \"contracts/contracts/protocol/PoolOrganizer.sol\":421:8230  contract PoolOrganizer is AccessControl, IPoolOrganizer {... */\n  0x01\n    /* \"@openzeppelin/contracts/access/AccessControl.sol\":6424:6435  return true */\n  swap1\n  jump\t// out\n    /* \"@openzeppelin/contracts/access/AccessControl.sol\":6272:6489  if (!hasRole(role, account)) {... */\ntag_7:\n    /* \"@openzeppelin/contracts/access/AccessControl.sol\":6466:6478  return false */\n  pop\n  swap1\n  jump\t// out\n    /* \"@openzeppelin/contracts/access/AccessControl.sol\":6179:6495  function _grantRole(bytes32 role, address account) internal virtual returns (bool) {... */\ntag_2:\n  sub(shl(0xa0, 0x01), 0x01)\n    /* \"contracts/contracts/protocol/PoolOrganizer.sol\":421:8230  contract PoolOrganizer is AccessControl, IPoolOrganizer {... */\n  and\n    /* \"@openzeppelin/contracts/access/AccessControl.sol\":2954:2960  _roles */\n  0x00\n    /* \"contracts/contracts/protocol/PoolOrganizer.sol\":421:8230  contract PoolOrganizer is AccessControl, IPoolOrganizer {... */\n  dup2\n  dup2\n  mstore\n  mstore(0x20, 0x729ef9451dd492832bd2a98139702ced95dfa0cec7e99526dbbcb957abcbc476)\n  0x40\n  dup2\n  keccak256\n  sload\n    /* \"@openzeppelin/contracts/access/AccessControl.sol\":2954:2960  _roles */\n  swap1\n  swap2\n    /* \"contracts/contracts/protocol/PoolOrganizer.sol\":421:8230  contract PoolOrganizer is AccessControl, IPoolOrganizer {... */\n  swap1\n    /* \"contracts/contracts/protocol/PoolOrganizer.sol\":527:557  keccak256(\"POOL_MANAGER_ROLE\") */\n  0x6077685936c8169d09204a1d97db12e41713588c38e1d29a61867d3dcee98aff\n  swap1\n    /* \"contracts/contracts/protocol/PoolOrganizer.sol\":421:8230  contract PoolOrganizer is AccessControl, IPoolOrganizer {... */\n  0xff\n  and\n  tag_9\n  jumpi\n  dup1\n  dup4\n  mstore\n  dup3\n  0x20\n  mstore\n  0x40\n  dup4\n  keccak256\n  dup3\n  dup5\n  mstore\n  0x20\n  mstore\n  0x40\n  dup4\n  keccak256\n  0x01\n  not(0xff)\n  dup3\n  sload\n  and\n  or\n  swap1\n  sstore\n  0x00\n  dup1\n  mload\n  0x20\n  data_01400fe2f234cf888b5e4c66700c7903f33f31bfc9675e51cb0119f915eb534d\n  dup4\n  codecopy\n  dup2\n  mload\n  swap2\n  mstore\n    /* \"@openzeppelin/contracts/utils/Context.sol\":735:745  msg.sender */\n  caller\n    /* \"@openzeppelin/contracts/access/AccessControl.sol\":6370:6410  RoleGranted(role, account, _msgSender()) */\n  swap4\n  dup1\n  log4\n    /* \"contracts/contracts/protocol/PoolOrganizer.sol\":421:8230  contract PoolOrganizer is AccessControl, IPoolOrganizer {... */\n  0x01\n    /* \"@openzeppelin/contracts/access/AccessControl.sol\":6424:6435  return true */\n  swap1\n  jump\t// out\n    /* \"@openzeppelin/contracts/access/AccessControl.sol\":6272:6489  if (!hasRole(role, account)) {... */\ntag_9:\n    /* \"@openzeppelin/contracts/access/AccessControl.sol\":6466:6478  return false */\n  pop\n  pop\n  swap1\n  jump\t// out\nstop\ndata_01400fe2f234cf888b5e4c66700c7903f33f31bfc9675e51cb0119f915eb534d 2f8788117e7eff1d82e926ec794901d17c78024a50270940304540a733656f0d\n\nsub_0: assembly {\n        /* \"contracts/contracts/protocol/PoolOrganizer.sol\":421:8230  contract PoolOrganizer is AccessControl, IPoolOrganizer {... */\n      0x80\n      dup1\n      0x40\n      mstore\n      jumpi(tag_19, iszero(lt(calldatasize, 0x04)))\n      0x00\n      dup1\n      revert\n    tag_19:\n      shr(0xe0, calldataload(0x00))\n      swap1\n      dup2\n      0x01ffc9a7\n      eq\n      tag_21\n      jumpi\n      pop\n      dup1\n      0x05c4fdf9\n      eq\n      tag_23\n      jumpi\n      dup1\n      0x0f4ef8a6\n      eq\n      tag_25\n      jumpi\n      dup1\n      0x1e4966ab\n      eq\n      tag_27\n      jumpi\n      dup1\n      0x2437769a\n      eq\n      tag_29\n      jumpi\n      dup1\n      0x248a9ca3\n      eq\n      tag_31\n      jumpi\n      dup1\n      0x24a44efb\n      eq\n      tag_33\n      jumpi\n      dup1\n      0x2f2ff15d\n      eq\n      tag_35\n      jumpi\n      dup1\n      0x36568abe\n      eq\n      tag_37\n      jumpi\n      dup1\n      0x56d73568\n      eq\n      tag_39\n      jumpi\n      dup1\n      0x5d102df7\n      eq\n      tag_41\n      jumpi\n      dup1\n      0x7570e389\n      eq\n      tag_43\n      jumpi\n      dup1\n      0x7e72c7d7\n      eq\n      tag_45\n      jumpi\n      dup1\n      0x8a4adf24\n      eq\n      tag_47\n      jumpi\n      dup1\n      0x91d14854\n      eq\n      tag_49\n      jumpi\n      dup1\n      0xa217fddf\n      eq\n      tag_51\n      jumpi\n      dup1\n      0xa8d088bb\n      eq\n      tag_53\n      jumpi\n      dup1\n      0xc489579d\n      eq\n      tag_55\n      jumpi\n      dup1\n      0xd3e90fa0\n      eq\n      tag_57\n      jumpi\n      dup1\n      0xd3ffe67a\n      eq\n      tag_59\n      jumpi\n      0xd547741f\n      eq\n      tag_61\n      jumpi\n      0x00\n      dup1\n      revert\n    tag_61:\n      jumpi(tag_65, callvalue)\n      jumpi(tag_65, slt(add(not(0x03), calldatasize), 0x40))\n        /* \"@openzeppelin/contracts/access/AccessControl.sol\":4747:4773  _revokeRole(role, account) */\n      tag_67\n        /* \"contracts/contracts/protocol/PoolOrganizer.sol\":421:8230  contract PoolOrganizer is AccessControl, IPoolOrganizer {... */\n      calldataload(0x04)\n      tag_68\n      tag_2\n      jump\t// in\n    tag_68:\n      swap1\n      dup1\n      0x00\n      mstore\n      mstore(0x20, 0x00)\n        /* \"@openzeppelin/contracts/access/AccessControl.sol\":2475:2479  role */\n      tag_69\n        /* \"contracts/contracts/protocol/PoolOrganizer.sol\":421:8230  contract PoolOrganizer is AccessControl, IPoolOrganizer {... */\n      0x01\n      keccak256(0x00, 0x40)\n        /* \"@openzeppelin/contracts/access/AccessControl.sol\":3901:3923  _roles[role].adminRole */\n      add\n        /* \"contracts/contracts/protocol/PoolOrganizer.sol\":421:8230  contract PoolOrganizer is AccessControl, IPoolOrganizer {... */\n      sload\n        /* \"@openzeppelin/contracts/access/AccessControl.sol\":2475:2479  role */\n      tag_6\n      jump\t// in\n    tag_69:\n        /* \"@openzeppelin/contracts/access/AccessControl.sol\":4747:4773  _revokeRole(role, account) */\n      tag_9\n      jump\t// in\n    tag_67:\n        /* \"contracts/contracts/protocol/PoolOrganizer.sol\":421:8230  contract PoolOrganizer is AccessControl, IPoolOrganizer {... */\n      stop\n    tag_65:\n      0x00\n      dup1\n      revert\n    tag_59:\n      jumpi(tag_65, callvalue)\n      jumpi(tag_65, slt(add(not(0x03), calldatasize), 0x00))\n      0x20\n      sload(0x03)\n      mload(0x40)\n      swap1\n      dup2\n      mstore\n      return\n    tag_57:\n      jumpi(tag_65, callvalue)\n      jumpi(tag_65, slt(add(not(0x03), calldatasize), 0x20))\n      tag_78\n      tag_1\n      jump\t// in\n    tag_78:\n      0x00\n      0x0120\n      mload(0x40)\n      tag_79\n      dup2\n      tag_10\n      jump\t// in\n    tag_79:\n      dup3\n      dup2\n      mstore\n      dup3\n      0x20\n      dup3\n      add\n      mstore\n      dup3\n      0x40\n      dup3\n      add\n      mstore\n      dup3\n      0x60\n      dup3\n      add\n      mstore\n      dup3\n      0x80\n      dup3\n      add\n      mstore\n      dup3\n      0xa0\n      dup3\n      add\n      mstore\n      dup3\n      0xc0\n      dup3\n      add\n      mstore\n      dup3\n      0xe0\n      dup3\n      add\n      mstore\n      dup3\n      0x0100\n      dup3\n      add\n      mstore\n      add\n      mstore\n      0x01\n      dup1\n      0xa0\n      shl\n      sub\n      and\n      dup1\n      0x00\n      mstore\n      mstore(0x20, 0x04)\n        /* \"contracts/contracts/protocol/PoolOrganizer.sol\":5651:5721  require(poolDetails[pool].lender != address(0), \"Pool not registered\") */\n      tag_80\n        /* \"contracts/contracts/protocol/PoolOrganizer.sol\":421:8230  contract PoolOrganizer is AccessControl, IPoolOrganizer {... */\n      0x01\n      dup1\n      0xa0\n      shl\n      sub\n      sload(keccak256(0x00, 0x40))\n      and\n        /* \"contracts/contracts/protocol/PoolOrganizer.sol\":5659:5697  poolDetails[pool].lender != address(0) */\n      iszero\n      iszero\n        /* \"contracts/contracts/protocol/PoolOrganizer.sol\":5651:5721  require(poolDetails[pool].lender != address(0), \"Pool not registered\") */\n      tag_16\n      jump\t// in\n    tag_80:\n        /* \"contracts/contracts/protocol/PoolOrganizer.sol\":421:8230  contract PoolOrganizer is AccessControl, IPoolOrganizer {... */\n      0x00\n      mstore\n      mstore(0x20, 0x04)\n      0x0140\n      keccak256(0x00, 0x40)\n      tag_81\n      0xff\n      0x09\n      mload(0x40)\n      swap4\n      tag_82\n      dup6\n      tag_10\n      jump\t// in\n    tag_82:\n      dup1\n      sload\n      sub(shl(0xa0, 0x01), 0x01)\n      swap1\n      dup2\n      and\n      dup7\n      mstore\n      0x01\n      dup3\n      add\n      sload\n      dup2\n      and\n      0x20\n      dup8\n      add\n      mstore\n      0x02\n      dup3\n      add\n      sload\n      0x40\n      dup8\n      add\n      mstore\n      0x03\n      dup3\n      add\n      sload\n      dup2\n      and\n      0x60\n      dup8\n      add\n      mstore\n      0x04\n      dup3\n      add\n      sload\n      dup2\n      and\n      0x80\n      dup8\n      add\n      mstore\n      0x05\n      dup3\n      add\n      sload\n      and\n      0xa0\n      dup7\n      add\n      mstore\n      0x06\n      dup2\n      add\n      sload\n      0xc0\n      dup7\n      add\n      mstore\n      0x07\n      dup2\n      add\n      sload\n      0xe0\n      dup7\n      add\n      mstore\n      0x08\n      dup2\n      add\n      sload\n      0x0100\n      dup7\n      add\n      mstore\n      add\n      sload\n      and\n      0x0120\n      dup4\n      add\n      tag_11\n      jump\t// in\n    tag_81:\n      tag_83\n      0x0120\n      mload(0x40)\n      swap3\n      0x01\n      dup1\n      0xa0\n      shl\n      sub\n      dup2\n      mload\n      and\n      dup5\n      mstore\n      0x01\n      dup1\n      0xa0\n      shl\n      sub\n      0x20\n      dup3\n      add\n      mload\n      and\n      0x20\n      dup6\n      add\n      mstore\n      0x40\n      dup2\n      add\n      mload\n      0x40\n      dup6\n      add\n      mstore\n      0x01\n      dup1\n      0xa0\n      shl\n      sub\n      0x60\n      dup3\n      add\n      mload\n      and\n      0x60\n      dup6\n      add\n      mstore\n      0x01\n      dup1\n      0xa0\n      shl\n      sub\n      0x80\n      dup3\n      add\n      mload\n      and\n      0x80\n      dup6\n      add\n      mstore\n      0x01\n      dup1\n      0xa0\n      shl\n      sub\n      0xa0\n      dup3\n      add\n      mload\n      and\n      0xa0\n      dup6\n      add\n      mstore\n      0xc0\n      dup2\n      add\n      mload\n      0xc0\n      dup6\n      add\n      mstore\n      0xe0\n      dup2\n      add\n      mload\n      0xe0\n      dup6\n      add\n      mstore\n      0x0100\n      dup2\n      add\n      mload\n      0x0100\n      dup6\n      add\n      mstore\n      add\n      mload\n      0x0120\n      dup4\n      add\n      swap1\n      tag_4\n      jump\t// in\n    tag_83:\n      return\n    tag_55:\n      jumpi(tag_65, callvalue)\n      jumpi(tag_65, slt(add(not(0x03), calldatasize), 0x40))\n      tag_88\n      tag_1\n      jump\t// in\n    tag_88:\n      tag_89\n      tag_2\n      jump\t// in\n    tag_89:\n        /* \"@openzeppelin/contracts/utils/Context.sol\":735:745  msg.sender */\n      caller\n        /* \"contracts/contracts/protocol/PoolOrganizer.sol\":421:8230  contract PoolOrganizer is AccessControl, IPoolOrganizer {... */\n      0x00\n      swap1\n      dup2\n      mstore\n      mstore(0x20, 0xad3228b676f7d3cd4284a5443f17f1962b36e491b30a40b2405849e597ba5fb5)\n      0x40\n      swap1\n      keccak256\n      sload\n      0xff\n      and\n        /* \"@openzeppelin/contracts/access/AccessControl.sol\":3519:3542  !hasRole(role, account) */\n      iszero\n        /* \"@openzeppelin/contracts/access/AccessControl.sol\":3515:3623  if (!hasRole(role, account)) {... */\n      tag_90\n      jumpi\n      sub(shl(0xa0, 0x01), 0x01)\n        /* \"contracts/contracts/protocol/PoolOrganizer.sol\":421:8230  contract PoolOrganizer is AccessControl, IPoolOrganizer {... */\n      dup3\n      dup2\n      and\n      swap3\n      swap1\n        /* \"contracts/contracts/protocol/PoolOrganizer.sol\":4153:4180  _vaultManager != address(0) */\n      dup4\n      iszero\n        /* \"contracts/contracts/protocol/PoolOrganizer.sol\":421:8230  contract PoolOrganizer is AccessControl, IPoolOrganizer {... */\n      tag_92\n      jumpi\n      dup3\n      and\n        /* \"contracts/contracts/protocol/PoolOrganizer.sol\":4272:4300  _rewardManager != address(0) */\n      dup1\n      iszero\n        /* \"contracts/contracts/protocol/PoolOrganizer.sol\":421:8230  contract PoolOrganizer is AccessControl, IPoolOrganizer {... */\n      tag_94\n      jumpi\n      0x01\n      dup1\n      sload\n      not(sub(shl(0xa0, 0x01), 0x01))\n      swap1\n      dup2\n      and\n      swap6\n      swap1\n      swap6\n      or\n      swap1\n      sstore\n        /* \"contracts/contracts/protocol/PoolOrganizer.sol\":4426:4472  rewardManager = IRewardManager(_rewardManager) */\n      0x02\n        /* \"contracts/contracts/protocol/PoolOrganizer.sol\":421:8230  contract PoolOrganizer is AccessControl, IPoolOrganizer {... */\n      dup1\n      sload\n      swap1\n      swap5\n      and\n      or\n      swap1\n      swap3\n      sstore\n      0x40\n      dup1\n      mload\n      sub(shl(0xa0, 0x01), 0x01)\n      swap4\n      dup5\n      and\n      dup2\n      mstore\n      swap2\n      swap1\n      swap3\n      and\n      0x20\n      dup3\n      add\n      mstore\n        /* \"contracts/contracts/protocol/PoolOrganizer.sol\":4488:4536  ManagerRegistered(_vaultManager, _rewardManager) */\n      0x8fc18cc172f74c81235145b7927190d2bd0e351fc45bfb17bb572593273cef21\n      swap2\n        /* \"contracts/contracts/protocol/PoolOrganizer.sol\":421:8230  contract PoolOrganizer is AccessControl, IPoolOrganizer {... */\n      swap1\n        /* \"contracts/contracts/protocol/PoolOrganizer.sol\":4488:4536  ManagerRegistered(_vaultManager, _rewardManager) */\n      log1\n        /* \"contracts/contracts/protocol/PoolOrganizer.sol\":421:8230  contract PoolOrganizer is AccessControl, IPoolOrganizer {... */\n      stop\n    tag_94:\n      mload(0x40)\n      shl(0xe5, 0x461bcd)\n      dup2\n      mstore\n      0x20\n      0x04\n      dup3\n      add\n      mstore\n      0x24\n      dup1\n      dup3\n      add\n      mstore\n      0x5265776172644d616e616765722063616e6e6f74206265207a65726f20616464\n      0x44\n      dup3\n      add\n      mstore\n      shl(0xe0, 0x72657373)\n      0x64\n      dup3\n      add\n      mstore\n      0x84\n      swap1\n      revert\n    tag_92:\n      mload(0x40)\n      shl(0xe5, 0x461bcd)\n      dup2\n      mstore\n      0x20\n      0x04\n      dup3\n      add\n      mstore\n      0x23\n      0x24\n      dup3\n      add\n      mstore\n      0x5661756c744d616e616765722063616e6e6f74206265207a65726f2061646472\n      0x44\n      dup3\n      add\n      mstore\n      shl(0xe8, 0x657373)\n      0x64\n      dup3\n      add\n      mstore\n      0x84\n      swap1\n      revert\n        /* \"@openzeppelin/contracts/access/AccessControl.sol\":3515:3623  if (!hasRole(role, account)) {... */\n    tag_90:\n        /* \"contracts/contracts/protocol/PoolOrganizer.sol\":421:8230  contract PoolOrganizer is AccessControl, IPoolOrganizer {... */\n      mload(0x40)\n      shl(0xe0, 0xe2517d3f)\n        /* \"@openzeppelin/contracts/access/AccessControl.sol\":3565:3612  AccessControlUnauthorizedAccount(account, role) */\n      dup2\n      mstore\n        /* \"@openzeppelin/contracts/utils/Context.sol\":735:745  msg.sender */\n      caller\n        /* \"contracts/contracts/protocol/PoolOrganizer.sol\":421:8230  contract PoolOrganizer is AccessControl, IPoolOrganizer {... */\n      0x04\n        /* \"@openzeppelin/contracts/access/AccessControl.sol\":3565:3612  AccessControlUnauthorizedAccount(account, role) */\n      dup3\n      add\n        /* \"contracts/contracts/protocol/PoolOrganizer.sol\":421:8230  contract PoolOrganizer is AccessControl, IPoolOrganizer {... */\n      mstore\n      0x00\n      0x24\n      dup3\n      add\n      mstore\n      0x44\n      swap1\n        /* \"@openzeppelin/contracts/access/AccessControl.sol\":3565:3612  AccessControlUnauthorizedAccount(account, role) */\n      revert\n        /* \"contracts/contracts/protocol/PoolOrganizer.sol\":421:8230  contract PoolOrganizer is AccessControl, IPoolOrganizer {... */\n    tag_53:\n      jumpi(tag_65, callvalue)\n      jumpi(tag_65, slt(add(not(0x03), calldatasize), 0x00))\n      sload(0x01)\n        /* \"contracts/contracts/protocol/PoolOrganizer.sol\":4827:4840  rewardManager */\n      0x02\n        /* \"contracts/contracts/protocol/PoolOrganizer.sol\":421:8230  contract PoolOrganizer is AccessControl, IPoolOrganizer {... */\n      sload\n      0x40\n      dup1\n      mload\n      sub(shl(0xa0, 0x01), 0x01)\n      swap4\n      dup5\n      and\n      dup2\n      mstore\n      swap3\n      swap1\n      swap2\n      and\n      0x20\n      dup4\n      add\n      mstore\n      swap1\n      return\n    tag_51:\n      jumpi(tag_65, callvalue)\n      jumpi(tag_65, slt(add(not(0x03), calldatasize), 0x00))\n      0x20\n      mload(0x40)\n      0x00\n      dup2\n      mstore\n      return\n    tag_49:\n      jumpi(tag_65, callvalue)\n      jumpi(tag_65, slt(add(not(0x03), calldatasize), 0x40))\n      tag_110\n      tag_2\n      jump\t// in\n    tag_110:\n      mstore(0x00, calldataload(0x04))\n      mstore(0x20, 0x00)\n      keccak256(0x00, 0x40)\n      swap1\n      0x01\n      dup1\n      0xa0\n      shl\n      sub\n      and\n      0x00\n      mstore\n      0x20\n      mstore\n      0x20\n      and(sload(keccak256(0x00, 0x40)), 0xff)\n      mload(0x40)\n      swap1\n      iszero\n      iszero\n      dup2\n      mstore\n      return\n    tag_47:\n      jumpi(tag_65, callvalue)\n      jumpi(tag_65, slt(add(not(0x03), calldatasize), 0x00))\n      sload(0x01)\n      mload(0x40)\n      sub(shl(0xa0, 0x01), 0x01)\n      swap1\n      swap2\n      and\n      dup2\n      mstore\n      0x20\n      swap1\n      return\n    tag_45:\n      jumpi(tag_65, callvalue)\n      0x20\n      dup1\n      add(calldatasize, not(0x03))\n      slt\n      tag_65\n      jumpi\n      tag_119\n      tag_1\n      jump\t// in\n    tag_119:\n        /* \"@openzeppelin/contracts/access/AccessControl.sol\":2475:2479  role */\n      swap1\n      tag_120\n      tag_5\n      jump\t// in\n    tag_120:\n        /* \"contracts/contracts/protocol/PoolOrganizer.sol\":421:8230  contract PoolOrganizer is AccessControl, IPoolOrganizer {... */\n      0x01\n      dup1\n      0xa0\n      shl\n      sub\n      swap1\n      dup2\n      dup4\n      and\n      swap3\n      dup4\n      0x00\n      mstore\n      0x04\n      dup3\n      mstore\n        /* \"contracts/contracts/protocol/PoolOrganizer.sol\":3477:3547  require(poolDetails[pool].lender != address(0), \"Pool not registered\") */\n      tag_121\n        /* \"contracts/contracts/protocol/PoolOrganizer.sol\":421:8230  contract PoolOrganizer is AccessControl, IPoolOrganizer {... */\n      dup4\n      sload(keccak256(0x00, 0x40))\n      and\n        /* \"contracts/contracts/protocol/PoolOrganizer.sol\":3485:3523  poolDetails[pool].lender != address(0) */\n      iszero\n      iszero\n        /* \"contracts/contracts/protocol/PoolOrganizer.sol\":3477:3547  require(poolDetails[pool].lender != address(0), \"Pool not registered\") */\n      tag_16\n      jump\t// in\n    tag_121:\n        /* \"contracts/contracts/protocol/PoolOrganizer.sol\":421:8230  contract PoolOrganizer is AccessControl, IPoolOrganizer {... */\n      dup4\n      0x00\n      mstore\n      0x04\n      dup3\n      mstore\n      dup3\n      sload(keccak256(0x00, 0x40))\n      and\n      dup1\n      0x00\n      mstore\n        /* \"contracts/contracts/protocol/PoolOrganizer.sol\":6715:6726  lenderPools */\n      0x05\n        /* \"contracts/contracts/protocol/PoolOrganizer.sol\":421:8230  contract PoolOrganizer is AccessControl, IPoolOrganizer {... */\n      swap4\n      dup5\n      dup5\n      mstore\n        /* \"contracts/contracts/protocol/PoolOrganizer.sol\":6698:6741  findIndexInArray(lenderPools[lender], pool) */\n      tag_122\n        /* \"contracts/contracts/protocol/PoolOrganizer.sol\":421:8230  contract PoolOrganizer is AccessControl, IPoolOrganizer {... */\n      dup4\n      keccak256(0x00, 0x40)\n        /* \"contracts/contracts/protocol/PoolOrganizer.sol\":6698:6741  findIndexInArray(lenderPools[lender], pool) */\n      tag_18\n      jump\t// in\n    tag_122:\n        /* \"contracts/contracts/protocol/PoolOrganizer.sol\":421:8230  contract PoolOrganizer is AccessControl, IPoolOrganizer {... */\n      swap3\n      dup3\n      0x00\n      mstore\n      dup6\n      dup6\n      mstore\n      sload(keccak256(0x00, 0x40))\n      swap3\n      not(0x00)\n      swap4\n      dup5\n      dup2\n      add\n      swap1\n      dup2\n      gt\n      tag_133\n      jumpi\n        /* \"contracts/contracts/protocol/PoolOrganizer.sol\":6811:6837  lenderPools[lender][index] */\n      tag_125\n        /* \"contracts/contracts/protocol/PoolOrganizer.sol\":421:8230  contract PoolOrganizer is AccessControl, IPoolOrganizer {... */\n      swap6\n      dup5\n        /* \"contracts/contracts/protocol/PoolOrganizer.sol\":6840:6870  lenderPools[lender][lastIndex] */\n      tag_126\n        /* \"contracts/contracts/protocol/PoolOrganizer.sol\":6811:6870  lenderPools[lender][index] = lenderPools[lender][lastIndex] */\n      tag_127\n        /* \"contracts/contracts/protocol/PoolOrganizer.sol\":421:8230  contract PoolOrganizer is AccessControl, IPoolOrganizer {... */\n      swap4\n      dup6\n      0x00\n      mstore\n      dup12\n      dup12\n      mstore\n      keccak256(0x00, 0x40)\n        /* \"contracts/contracts/protocol/PoolOrganizer.sol\":6840:6870  lenderPools[lender][lastIndex] */\n      tag_13\n      jump\t// in\n    tag_126:\n        /* \"contracts/contracts/protocol/PoolOrganizer.sol\":421:8230  contract PoolOrganizer is AccessControl, IPoolOrganizer {... */\n      swap9\n      swap1\n      sload\n      swap3\n      dup6\n      0x00\n      mstore\n      dup12\n      dup12\n      mstore\n      keccak256(0x00, 0x40)\n        /* \"contracts/contracts/protocol/PoolOrganizer.sol\":6811:6837  lenderPools[lender][index] */\n      tag_13\n      jump\t// in\n    tag_125:\n        /* \"contracts/contracts/protocol/PoolOrganizer.sol\":421:8230  contract PoolOrganizer is AccessControl, IPoolOrganizer {... */\n      swap2\n      swap1\n      swap3\n      0x03\n      swap10\n      dup11\n      shl\n      shr\n      and\n      swap1\n      dup3\n      sload\n      swap1\n      0x03\n      shl\n      swap2\n      0x01\n      dup1\n      0xa0\n      shl\n      sub\n      dup1\n      swap2\n      and\n      dup4\n      shl\n      swap3\n      shl\n      not\n      and\n      or\n      swap1\n      sstore\n      jump\n        /* \"contracts/contracts/protocol/PoolOrganizer.sol\":6811:6870  lenderPools[lender][index] = lenderPools[lender][lastIndex] */\n    tag_127:\n        /* \"contracts/contracts/protocol/PoolOrganizer.sol\":421:8230  contract PoolOrganizer is AccessControl, IPoolOrganizer {... */\n      0x00\n      mstore\n      dup6\n      dup6\n      mstore\n      keccak256(0x00, 0x40)\n      swap1\n      dup2\n      sload\n      swap2\n      dup3\n      iszero\n      tag_138\n      jumpi\n      dup5\n        /* \"contracts/contracts/protocol/PoolOrganizer.sol\":7000:7029  findIndexInArray(pools, pool) */\n      tag_130\n        /* \"contracts/contracts/protocol/PoolOrganizer.sol\":421:8230  contract PoolOrganizer is AccessControl, IPoolOrganizer {... */\n      swap4\n      add\n      swap1\n      tag_131\n      tag_132\n      dup4\n      dup4\n      tag_13\n      jump\t// in\n    tag_132:\n      dup2\n      sload\n      swap1\n      0x01\n      dup1\n      0xa0\n      shl\n      sub\n      swap1\n      0x03\n      shl\n      shl\n      not\n      and\n      swap1\n      sstore\n      jump\n    tag_131:\n      sstore\n        /* \"contracts/contracts/protocol/PoolOrganizer.sol\":7000:7029  findIndexInArray(pools, pool) */\n      tag_17\n      jump\t// in\n    tag_130:\n        /* \"contracts/contracts/protocol/PoolOrganizer.sol\":421:8230  contract PoolOrganizer is AccessControl, IPoolOrganizer {... */\n      dup4\n      sload\n      dup4\n      dup2\n      add\n      swap1\n      dup2\n      gt\n      tag_133\n      jumpi\n        /* \"contracts/contracts/protocol/PoolOrganizer.sol\":7085:7116  pools[index] = pools[lastIndex] */\n      tag_135\n        /* \"contracts/contracts/protocol/PoolOrganizer.sol\":7100:7116  pools[lastIndex] */\n      swap3\n      tag_136\n        /* \"contracts/contracts/protocol/PoolOrganizer.sol\":7085:7097  pools[index] */\n      tag_137\n        /* \"contracts/contracts/protocol/PoolOrganizer.sol\":7100:7116  pools[lastIndex] */\n      swap3\n      tag_12\n      jump\t// in\n    tag_136:\n        /* \"contracts/contracts/protocol/PoolOrganizer.sol\":421:8230  contract PoolOrganizer is AccessControl, IPoolOrganizer {... */\n      swap1\n      sload\n      swap1\n      dup8\n      shl\n      shr\n      and\n        /* \"contracts/contracts/protocol/PoolOrganizer.sol\":7085:7097  pools[index] */\n      swap2\n      tag_12\n      jump\t// in\n    tag_137:\n        /* \"contracts/contracts/protocol/PoolOrganizer.sol\":7085:7116  pools[index] = pools[lastIndex] */\n      swap1\n        /* \"contracts/contracts/protocol/PoolOrganizer.sol\":421:8230  contract PoolOrganizer is AccessControl, IPoolOrganizer {... */\n      swap2\n      swap1\n      dup3\n      sload\n      swap1\n      0x03\n      shl\n      swap2\n      0x01\n      dup1\n      0xa0\n      shl\n      sub\n      dup1\n      swap2\n      and\n      dup4\n      shl\n      swap3\n      shl\n      not\n      and\n      or\n      swap1\n      sstore\n      jump\n        /* \"contracts/contracts/protocol/PoolOrganizer.sol\":7085:7116  pools[index] = pools[lastIndex] */\n    tag_135:\n        /* \"contracts/contracts/protocol/PoolOrganizer.sol\":421:8230  contract PoolOrganizer is AccessControl, IPoolOrganizer {... */\n      dup2\n      sload\n      swap4\n      dup5\n      iszero\n      tag_138\n      jumpi\n      0x04\n      0x09\n      swap5\n      0x00\n      swap7\n      swap4\n      dup8\n      swap5\n      add\n      tag_140\n      tag_132\n      dup3\n      tag_12\n      jump\t// in\n    tag_140:\n      dup6\n      sstore\n      dup8\n      dup5\n      mstore\n      mstore\n      dup2\n      0x40\n      dup2\n      keccak256\n      swap4\n      dup2\n      dup6\n      sstore\n      dup2\n      0x01\n      dup7\n      add\n      sstore\n      dup2\n      0x02\n      dup7\n      add\n      sstore\n      dup5\n      add\n      sstore\n      dup2\n      0x04\n      dup5\n      add\n      sstore\n      dup3\n      add\n      sstore\n      dup3\n      0x06\n      dup3\n      add\n      sstore\n      dup3\n      0x07\n      dup3\n      add\n      sstore\n      dup3\n      0x08\n      dup3\n      add\n      sstore\n      add\n      sstore\n        /* \"contracts/contracts/protocol/PoolOrganizer.sol\":3739:3761  PoolDeregistered(pool) */\n      0x334d0b2111287dfddebe4b4c1c5af3ae644909d7fcd024377bf601e236ed5abb\n        /* \"contracts/contracts/protocol/PoolOrganizer.sol\":421:8230  contract PoolOrganizer is AccessControl, IPoolOrganizer {... */\n      0x00\n        /* \"contracts/contracts/protocol/PoolOrganizer.sol\":3739:3761  PoolDeregistered(pool) */\n      dup1\n      log2\n        /* \"contracts/contracts/protocol/PoolOrganizer.sol\":421:8230  contract PoolOrganizer is AccessControl, IPoolOrganizer {... */\n      stop\n    tag_138:\n      mstore(0x00, shl(0xe0, 0x4e487b71))\n      mstore(0x04, 0x31)\n      revert(0x00, 0x24)\n    tag_133:\n      mstore(0x00, shl(0xe0, 0x4e487b71))\n      mstore(0x04, 0x11)\n      revert(0x00, 0x24)\n    tag_43:\n      jumpi(tag_65, callvalue)\n      jumpi(tag_65, slt(add(not(0x03), calldatasize), 0x20))\n      sub(shl(0xa0, 0x01), 0x01)\n      dup1\n      tag_146\n      tag_1\n      jump\t// in\n    tag_146:\n      and\n      swap1\n      dup2\n      0x00\n      mstore\n        /* \"contracts/contracts/protocol/PoolOrganizer.sol\":6048:6058  poolVaults */\n      0x06\n        /* \"contracts/contracts/protocol/PoolOrganizer.sol\":421:8230  contract PoolOrganizer is AccessControl, IPoolOrganizer {... */\n      0x20\n      mstore\n      dup1\n      sload(keccak256(0x00, 0x40))\n      and\n        /* \"contracts/contracts/protocol/PoolOrganizer.sol\":6048:6078  poolVaults[pool] != address(0) */\n      iszero\n        /* \"contracts/contracts/protocol/PoolOrganizer.sol\":421:8230  contract PoolOrganizer is AccessControl, IPoolOrganizer {... */\n      tag_147\n      jumpi\n      0x20\n      swap2\n      0x00\n      mstore\n        /* \"contracts/contracts/protocol/PoolOrganizer.sol\":6048:6058  poolVaults */\n      0x06\n        /* \"contracts/contracts/protocol/PoolOrganizer.sol\":421:8230  contract PoolOrganizer is AccessControl, IPoolOrganizer {... */\n      dup3\n      mstore\n      sload(keccak256(0x00, 0x40))\n      and\n      mload(0x40)\n      swap1\n      dup2\n      mstore\n      return\n    tag_147:\n      mload(0x40)\n      shl(0xe5, 0x461bcd)\n      dup2\n      mstore\n      0x20\n      0x04\n      dup3\n      add\n      mstore\n      0x23\n      0x24\n      dup3\n      add\n      mstore\n      0x506f6f6c206e6f742072656769737465726564206f7220686173206e6f207661\n      0x44\n      dup3\n      add\n      mstore\n      shl(0xea, 0x1d5b1d)\n      0x64\n      dup3\n      add\n      mstore\n      0x84\n      swap1\n      revert\n    tag_41:\n      jumpi(tag_65, callvalue)\n      jumpi(tag_65, slt(add(not(0x03), calldatasize), 0x20))\n      tag_153\n      tag_1\n      jump\t// in\n    tag_153:\n        /* \"contracts/contracts/protocol/PoolOrganizer.sol\":6440:6450  msg.sender */\n      caller\n        /* \"contracts/contracts/protocol/PoolOrganizer.sol\":421:8230  contract PoolOrganizer is AccessControl, IPoolOrganizer {... */\n      0x00\n      swap1\n      dup2\n      mstore\n      mstore(0x20, 0xad3228b676f7d3cd4284a5443f17f1962b36e491b30a40b2405849e597ba5fb5)\n      0x40\n      swap1\n      keccak256\n      sload\n      0xff\n      and\n      iszero\n      tag_154\n      jumpi\n      0x00\n      dup1\n      mload\n      0x20\n      data_cea5b988323acc73cd81db0e6f2932cdc75f39072539d65cbfa79c56b2a64e51\n      dup4\n      codecopy\n      dup2\n      mload\n      swap2\n      mstore\n      0x00\n      swap1\n      dup2\n      mstore\n      0x20\n      mstore\n        /* \"@openzeppelin/contracts/access/AccessControl.sol\":3901:3923  _roles[role].adminRole */\n      0x729ef9451dd492832bd2a98139702ced95dfa0cec7e99526dbbcb957abcbc477\n        /* \"contracts/contracts/protocol/PoolOrganizer.sol\":421:8230  contract PoolOrganizer is AccessControl, IPoolOrganizer {... */\n      sload\n        /* \"@openzeppelin/contracts/access/AccessControl.sol\":4330:4355  _grantRole(role, account) */\n      tag_67\n      swap2\n        /* \"contracts/contracts/protocol/PoolOrganizer.sol\":421:8230  contract PoolOrganizer is AccessControl, IPoolOrganizer {... */\n      swap1\n        /* \"@openzeppelin/contracts/access/AccessControl.sol\":2475:2479  role */\n      tag_157\n      swap1\n      tag_6\n      jump\t// in\n    tag_157:\n        /* \"@openzeppelin/contracts/access/AccessControl.sol\":4330:4355  _grantRole(role, account) */\n      tag_7\n      jump\t// in\n        /* \"contracts/contracts/protocol/PoolOrganizer.sol\":421:8230  contract PoolOrganizer is AccessControl, IPoolOrganizer {... */\n    tag_154:\n      mload(0x40)\n      shl(0xe5, 0x461bcd)\n      dup2\n      mstore\n      0x20\n      0x04\n      dup3\n      add\n      mstore\n      0x16\n      0x24\n      dup3\n      add\n      mstore\n      shl(0x51, 0x21b0b63632b91034b9903737ba1030b71030b236b4b7)\n      0x44\n      dup3\n      add\n      mstore\n      0x64\n      swap1\n      revert\n    tag_39:\n      jumpi(tag_65, callvalue)\n      jumpi(tag_65, slt(add(not(0x03), calldatasize), 0x00))\n      0x20\n      mload(0x40)\n      0x00\n      dup1\n      mload\n      0x20\n      data_cea5b988323acc73cd81db0e6f2932cdc75f39072539d65cbfa79c56b2a64e51\n      dup4\n      codecopy\n      dup2\n      mload\n      swap2\n      mstore\n      dup2\n      mstore\n      return\n    tag_37:\n      jumpi(tag_65, callvalue)\n      jumpi(tag_65, slt(add(not(0x03), calldatasize), 0x40))\n      tag_166\n      tag_2\n      jump\t// in\n    tag_166:\n        /* \"@openzeppelin/contracts/utils/Context.sol\":735:745  msg.sender */\n      caller\n      sub(shl(0xa0, 0x01), 0x01)\n        /* \"contracts/contracts/protocol/PoolOrganizer.sol\":421:8230  contract PoolOrganizer is AccessControl, IPoolOrganizer {... */\n      dup3\n      and\n        /* \"@openzeppelin/contracts/access/AccessControl.sol\":5421:5455  callerConfirmation != _msgSender() */\n      sub\n        /* \"@openzeppelin/contracts/access/AccessControl.sol\":5417:5519  if (callerConfirmation != _msgSender()) {... */\n      tag_167\n      jumpi\n        /* \"@openzeppelin/contracts/access/AccessControl.sol\":5529:5566  _revokeRole(role, callerConfirmation) */\n      tag_67\n        /* \"contracts/contracts/protocol/PoolOrganizer.sol\":421:8230  contract PoolOrganizer is AccessControl, IPoolOrganizer {... */\n      swap1\n      calldataload(0x04)\n        /* \"@openzeppelin/contracts/access/AccessControl.sol\":5529:5566  _revokeRole(role, callerConfirmation) */\n      tag_9\n      jump\t// in\n        /* \"@openzeppelin/contracts/access/AccessControl.sol\":5417:5519  if (callerConfirmation != _msgSender()) {... */\n    tag_167:\n        /* \"contracts/contracts/protocol/PoolOrganizer.sol\":421:8230  contract PoolOrganizer is AccessControl, IPoolOrganizer {... */\n      mload(0x40)\n      shl(0xe1, 0x334bd919)\n        /* \"@openzeppelin/contracts/access/AccessControl.sol\":5478:5508  AccessControlBadConfirmation() */\n      dup2\n      mstore\n        /* \"contracts/contracts/protocol/PoolOrganizer.sol\":421:8230  contract PoolOrganizer is AccessControl, IPoolOrganizer {... */\n      0x04\n      swap1\n        /* \"@openzeppelin/contracts/access/AccessControl.sol\":5478:5508  AccessControlBadConfirmation() */\n      revert\n        /* \"contracts/contracts/protocol/PoolOrganizer.sol\":421:8230  contract PoolOrganizer is AccessControl, IPoolOrganizer {... */\n    tag_35:\n      jumpi(tag_65, callvalue)\n      jumpi(tag_65, slt(add(not(0x03), calldatasize), 0x40))\n        /* \"@openzeppelin/contracts/access/AccessControl.sol\":4330:4355  _grantRole(role, account) */\n      tag_67\n        /* \"contracts/contracts/protocol/PoolOrganizer.sol\":421:8230  contract PoolOrganizer is AccessControl, IPoolOrganizer {... */\n      calldataload(0x04)\n      tag_175\n      tag_2\n      jump\t// in\n    tag_175:\n      swap1\n      dup1\n      0x00\n      mstore\n      mstore(0x20, 0x00)\n        /* \"@openzeppelin/contracts/access/AccessControl.sol\":2475:2479  role */\n      tag_176\n        /* \"contracts/contracts/protocol/PoolOrganizer.sol\":421:8230  contract PoolOrganizer is AccessControl, IPoolOrganizer {... */\n      0x01\n      keccak256(0x00, 0x40)\n        /* \"@openzeppelin/contracts/access/AccessControl.sol\":3901:3923  _roles[role].adminRole */\n      add\n        /* \"contracts/contracts/protocol/PoolOrganizer.sol\":421:8230  contract PoolOrganizer is AccessControl, IPoolOrganizer {... */\n      sload\n        /* \"@openzeppelin/contracts/access/AccessControl.sol\":2475:2479  role */\n      tag_6\n      jump\t// in\n    tag_176:\n        /* \"@openzeppelin/contracts/access/AccessControl.sol\":4330:4355  _grantRole(role, account) */\n      tag_8\n      jump\t// in\n        /* \"contracts/contracts/protocol/PoolOrganizer.sol\":421:8230  contract PoolOrganizer is AccessControl, IPoolOrganizer {... */\n    tag_33:\n      jumpi(tag_65, callvalue)\n      0x20\n      dup1\n      add(calldatasize, not(0x03))\n      slt\n      tag_65\n      jumpi\n      sub(shl(0xa0, 0x01), 0x01)\n      swap1\n      dup2\n      tag_181\n      tag_1\n      jump\t// in\n    tag_181:\n      and\n      0x00\n      mstore\n        /* \"contracts/contracts/protocol/PoolOrganizer.sol\":5353:5364  lenderPools */\n      0x05\n        /* \"contracts/contracts/protocol/PoolOrganizer.sol\":421:8230  contract PoolOrganizer is AccessControl, IPoolOrganizer {... */\n      dup2\n      mstore\n      keccak256(0x00, 0x40)\n      mload(0x40)\n      dup1\n      dup4\n      dup4\n      sload\n      swap2\n      dup3\n      dup2\n      mstore\n      add\n      swap1\n      dup2\n      swap4\n      0x00\n      mstore\n      dup5\n      0x00\n      keccak256\n      swap1\n      0x00\n    tag_182:\n      dup7\n      dup3\n      dup3\n      lt\n      tag_183\n      jumpi\n      pop\n      pop\n      pop\n      pop\n      dup2\n      swap1\n      sub\n      0x1f\n      add\n      not(0x1f)\n      and\n      dup2\n      add\n      swap3\n      0xffffffffffffffff\n      dup5\n      gt\n      dup3\n      dup6\n      lt\n      or\n      tag_185\n      jumpi\n      swap1\n      dup4\n      0x40\n      mstore\n      dup2\n      dup5\n      add\n      swap1\n      dup3\n      dup6\n      mstore\n      mload\n      dup1\n      swap2\n      mstore\n      0x40\n      dup5\n      add\n      swap3\n      swap2\n      0x00\n    tag_187:\n      dup3\n      dup2\n      lt\n      tag_188\n      jumpi\n      dup6\n      dup6\n      sub\n      dup7\n      return\n    tag_188:\n      dup4\n      mload\n      dup8\n      and\n      dup6\n      mstore\n      swap4\n      dup2\n      add\n      swap4\n      swap3\n      dup2\n      add\n      swap3\n      0x01\n      add\n      jump(tag_187)\n    tag_185:\n      mstore(0x00, shl(0xe0, 0x4e487b71))\n      mstore(0x04, 0x41)\n      revert(0x00, 0x24)\n    tag_183:\n      dup4\n      sload\n      dup10\n      and\n      dup6\n      mstore\n      swap1\n      swap4\n      add\n      swap3\n      0x01\n      swap3\n      dup4\n      add\n      swap3\n      add\n      jump(tag_182)\n    tag_31:\n      jumpi(tag_65, callvalue)\n      jumpi(tag_65, slt(add(not(0x03), calldatasize), 0x20))\n      mstore(0x00, calldataload(0x04))\n      mstore(0x20, 0x00)\n      0x20\n      0x01\n      keccak256(0x00, 0x40)\n        /* \"@openzeppelin/contracts/access/AccessControl.sol\":3901:3923  _roles[role].adminRole */\n      add\n        /* \"contracts/contracts/protocol/PoolOrganizer.sol\":421:8230  contract PoolOrganizer is AccessControl, IPoolOrganizer {... */\n      sload\n      mload(0x40)\n      swap1\n      dup2\n      mstore\n      return\n    tag_29:\n      jumpi(tag_65, callvalue)\n      jumpi(tag_65, slt(add(not(0x03), calldatasize), 0x0140))\n      tag_198\n      tag_1\n      jump\t// in\n    tag_198:\n      tag_199\n      tag_2\n      jump\t// in\n    tag_199:\n      swap1\n      calldataload(0x44)\n      sub(shl(0xa0, 0x01), 0x01)\n      dup2\n      and\n      dup2\n      sub\n      tag_65\n      jumpi\n      calldataload(0x64)\n      swap1\n      sub(shl(0xa0, 0x01), 0x01)\n      dup3\n      and\n      dup3\n      sub\n      tag_65\n      jumpi\n      calldataload(0x84)\n      sub(shl(0xa0, 0x01), 0x01)\n      dup2\n      and\n      dup2\n      sub\n      tag_65\n      jumpi\n      calldataload(0xa4)\n      sub(shl(0xa0, 0x01), 0x01)\n      dup2\n      and\n      dup2\n      sub\n      tag_65\n      jumpi\n      jumpi(tag_65, iszero(lt(calldataload(0x0124), 0x02)))\n        /* \"@openzeppelin/contracts/access/AccessControl.sol\":2475:2479  role */\n      tag_210\n      tag_5\n      jump\t// in\n    tag_210:\n      sub(shl(0xa0, 0x01), 0x01)\n        /* \"contracts/contracts/protocol/PoolOrganizer.sol\":421:8230  contract PoolOrganizer is AccessControl, IPoolOrganizer {... */\n      dup6\n      and\n        /* \"contracts/contracts/protocol/PoolOrganizer.sol\":2554:2572  pool != address(0) */\n      iszero\n        /* \"contracts/contracts/protocol/PoolOrganizer.sol\":421:8230  contract PoolOrganizer is AccessControl, IPoolOrganizer {... */\n      tag_211\n      jumpi\n      sub(shl(0xa0, 0x01), 0x01)\n      dup6\n      dup2\n      and\n      0x00\n      swap1\n      dup2\n      mstore\n      mstore(0x20, 0x04)\n      0x40\n      swap1\n      keccak256\n      sload\n      and\n      tag_213\n      jumpi\n      mload(0x40)\n      swap2\n      tag_215\n      dup4\n      tag_10\n      jump\t// in\n    tag_215:\n      sub(shl(0xa0, 0x01), 0x01)\n      dup8\n      dup2\n      and\n      dup5\n      mstore\n      dup5\n      dup2\n      and\n      0x20\n        /* \"contracts/contracts/protocol/PoolOrganizer.sol\":2753:3129  PoolDetails({... */\n      dup6\n      add\n        /* \"contracts/contracts/protocol/PoolOrganizer.sol\":421:8230  contract PoolOrganizer is AccessControl, IPoolOrganizer {... */\n      mstore\n        /* \"contracts/contracts/protocol/PoolOrganizer.sol\":2853:2868  block.timestamp */\n      timestamp\n        /* \"contracts/contracts/protocol/PoolOrganizer.sol\":421:8230  contract PoolOrganizer is AccessControl, IPoolOrganizer {... */\n      0x40\n        /* \"contracts/contracts/protocol/PoolOrganizer.sol\":2753:3129  PoolDetails({... */\n      dup6\n      add\n        /* \"contracts/contracts/protocol/PoolOrganizer.sol\":421:8230  contract PoolOrganizer is AccessControl, IPoolOrganizer {... */\n      mstore\n      dup6\n      dup2\n      and\n      0x60\n        /* \"contracts/contracts/protocol/PoolOrganizer.sol\":2753:3129  PoolDetails({... */\n      dup6\n      add\n        /* \"contracts/contracts/protocol/PoolOrganizer.sol\":421:8230  contract PoolOrganizer is AccessControl, IPoolOrganizer {... */\n      mstore\n      swap1\n      dup2\n      and\n      0x80\n        /* \"contracts/contracts/protocol/PoolOrganizer.sol\":2753:3129  PoolDetails({... */\n      dup5\n      add\n        /* \"contracts/contracts/protocol/PoolOrganizer.sol\":421:8230  contract PoolOrganizer is AccessControl, IPoolOrganizer {... */\n      mstore\n      and\n      0xa0\n        /* \"contracts/contracts/protocol/PoolOrganizer.sol\":2753:3129  PoolDetails({... */\n      dup3\n      add\n        /* \"contracts/contracts/protocol/PoolOrganizer.sol\":421:8230  contract PoolOrganizer is AccessControl, IPoolOrganizer {... */\n      mstore\n      calldataload(0xc4)\n      0xc0\n        /* \"contracts/contracts/protocol/PoolOrganizer.sol\":2753:3129  PoolDetails({... */\n      dup3\n      add\n        /* \"contracts/contracts/protocol/PoolOrganizer.sol\":421:8230  contract PoolOrganizer is AccessControl, IPoolOrganizer {... */\n      mstore\n      calldataload(0xe4)\n      0xe0\n        /* \"contracts/contracts/protocol/PoolOrganizer.sol\":2753:3129  PoolDetails({... */\n      dup3\n      add\n        /* \"contracts/contracts/protocol/PoolOrganizer.sol\":421:8230  contract PoolOrganizer is AccessControl, IPoolOrganizer {... */\n      mstore\n      calldataload(0x0104)\n      0x0100\n        /* \"contracts/contracts/protocol/PoolOrganizer.sol\":2753:3129  PoolDetails({... */\n      dup3\n      add\n        /* \"contracts/contracts/protocol/PoolOrganizer.sol\":421:8230  contract PoolOrganizer is AccessControl, IPoolOrganizer {... */\n      mstore\n        /* \"contracts/contracts/protocol/PoolOrganizer.sol\":2753:3129  PoolDetails({... */\n      tag_216\n        /* \"contracts/contracts/protocol/PoolOrganizer.sol\":421:8230  contract PoolOrganizer is AccessControl, IPoolOrganizer {... */\n      calldataload(0x0124)\n      0x0120\n        /* \"contracts/contracts/protocol/PoolOrganizer.sol\":2753:3129  PoolDetails({... */\n      dup4\n      add\n      tag_11\n      jump\t// in\n    tag_216:\n        /* \"contracts/contracts/protocol/PoolOrganizer.sol\":421:8230  contract PoolOrganizer is AccessControl, IPoolOrganizer {... */\n      0x01\n      dup1\n      0xa0\n      shl\n      sub\n      dup5\n      and\n      0x00\n      mstore\n      mstore(0x20, 0x04)\n      0x0120\n      0x09\n      keccak256(0x00, 0x40)\n      0x01\n      dup1\n      0xa0\n      shl\n      sub\n      dup5\n      mload\n      and\n      shl(0xa0, 0xffffffffffffffffffffffff)\n      swap1\n      dup2\n      dup4\n      sload\n      and\n      or\n      dup3\n      sstore\n      0x01\n      dup3\n      add\n      0x01\n      dup1\n      0xa0\n      shl\n      sub\n      0x20\n        /* \"contracts/contracts/protocol/PoolOrganizer.sol\":2753:3129  PoolDetails({... */\n      dup8\n      add\n        /* \"contracts/contracts/protocol/PoolOrganizer.sol\":421:8230  contract PoolOrganizer is AccessControl, IPoolOrganizer {... */\n      mload\n      and\n      dup3\n      dup3\n      sload\n      and\n      or\n      swap1\n      sstore\n      0x40\n        /* \"contracts/contracts/protocol/PoolOrganizer.sol\":2753:3129  PoolDetails({... */\n      dup6\n      add\n        /* \"contracts/contracts/protocol/PoolOrganizer.sol\":421:8230  contract PoolOrganizer is AccessControl, IPoolOrganizer {... */\n      mload\n      0x02\n      dup4\n      add\n      sstore\n      0x03\n      dup3\n      add\n      0x01\n      dup1\n      0xa0\n      shl\n      sub\n      0x60\n        /* \"contracts/contracts/protocol/PoolOrganizer.sol\":2753:3129  PoolDetails({... */\n      dup8\n      add\n        /* \"contracts/contracts/protocol/PoolOrganizer.sol\":421:8230  contract PoolOrganizer is AccessControl, IPoolOrganizer {... */\n      mload\n      and\n      dup3\n      dup3\n      sload\n      and\n      or\n      swap1\n      sstore\n      0x04\n      dup3\n      add\n      0x01\n      dup1\n      0xa0\n      shl\n      sub\n      0x80\n        /* \"contracts/contracts/protocol/PoolOrganizer.sol\":2753:3129  PoolDetails({... */\n      dup8\n      add\n        /* \"contracts/contracts/protocol/PoolOrganizer.sol\":421:8230  contract PoolOrganizer is AccessControl, IPoolOrganizer {... */\n      mload\n      and\n      dup3\n      dup3\n      sload\n      and\n      or\n      swap1\n      sstore\n      0x05\n      dup3\n      add\n      swap1\n      0x01\n      dup1\n      0xa0\n      shl\n      sub\n      0xa0\n        /* \"contracts/contracts/protocol/PoolOrganizer.sol\":2753:3129  PoolDetails({... */\n      dup8\n      add\n        /* \"contracts/contracts/protocol/PoolOrganizer.sol\":421:8230  contract PoolOrganizer is AccessControl, IPoolOrganizer {... */\n      mload\n      and\n      swap1\n      dup3\n      sload\n      and\n      or\n      swap1\n      sstore\n      0xc0\n        /* \"contracts/contracts/protocol/PoolOrganizer.sol\":2753:3129  PoolDetails({... */\n      dup5\n      add\n        /* \"contracts/contracts/protocol/PoolOrganizer.sol\":421:8230  contract PoolOrganizer is AccessControl, IPoolOrganizer {... */\n      mload\n      0x06\n      dup3\n      add\n      sstore\n      0xe0\n        /* \"contracts/contracts/protocol/PoolOrganizer.sol\":2753:3129  PoolDetails({... */\n      dup5\n      add\n        /* \"contracts/contracts/protocol/PoolOrganizer.sol\":421:8230  contract PoolOrganizer is AccessControl, IPoolOrganizer {... */\n      mload\n      0x07\n      dup3\n      add\n      sstore\n      0x0100\n        /* \"contracts/contracts/protocol/PoolOrganizer.sol\":2753:3129  PoolDetails({... */\n      dup5\n      add\n        /* \"contracts/contracts/protocol/PoolOrganizer.sol\":421:8230  contract PoolOrganizer is AccessControl, IPoolOrganizer {... */\n      mload\n      0x08\n      dup3\n      add\n      sstore\n      add\n        /* \"contracts/contracts/protocol/PoolOrganizer.sol\":2753:3129  PoolDetails({... */\n      swap2\n      add\n        /* \"contracts/contracts/protocol/PoolOrganizer.sol\":421:8230  contract PoolOrganizer is AccessControl, IPoolOrganizer {... */\n      mload\n      0x02\n      dup2\n      lt\n      iszero\n      tag_217\n      jumpi\n      0xff\n      dup1\n      not\n      dup4\n      sload\n      and\n      swap2\n      and\n      or\n      swap1\n      sstore\n      0x01\n      dup1\n      0xa0\n      shl\n      sub\n      dup5\n      and\n      0x00\n      mstore\n      mstore(0x20, 0x05)\n      keccak256(0x00, 0x40)\n      dup1\n      sload\n      swap1\n      0x010000000000000000\n      swap2\n      dup3\n      dup2\n      lt\n      iszero\n      tag_185\n      jumpi\n      tag_137\n      dup2\n      tag_222\n      swap4\n      0x01\n      dup10\n      swap5\n      add\n      dup2\n      sstore\n      tag_13\n      jump\t// in\n    tag_222:\n      sload(0x03)\n      swap1\n      dup2\n      lt\n      iszero\n      tag_185\n      jumpi\n        /* \"contracts/contracts/protocol/PoolOrganizer.sol\":3210:3265  PoolRegistered(pool, lender, borrower, vault, poolType) */\n      0x8f723e49dc038e67c41b41307a1e0c65653d50125a0c474a21ac32d9a0b24d2b\n        /* \"contracts/contracts/protocol/PoolOrganizer.sol\":421:8230  contract PoolOrganizer is AccessControl, IPoolOrganizer {... */\n      swap2\n      tag_225\n      dup6\n      tag_137\n      dup5\n      0x01\n      0x40\n      swap7\n      add\n      0x03\n      sstore\n      tag_12\n      jump\t// in\n    tag_225:\n      dup2\n      mload\n      sub(shl(0xa0, 0x01), 0x01)\n      swap1\n      swap5\n      and\n      dup5\n      mstore\n      tag_227\n      0x20\n      dup6\n      add\n      calldataload(0x0124)\n      tag_4\n      jump\t// in\n    tag_227:\n      sub(shl(0xa0, 0x01), 0x01)\n      swap1\n      dup2\n      and\n      swap6\n      dup2\n      and\n      swap5\n      and\n      swap3\n        /* \"contracts/contracts/protocol/PoolOrganizer.sol\":3210:3265  PoolRegistered(pool, lender, borrower, vault, poolType) */\n      log4\n        /* \"contracts/contracts/protocol/PoolOrganizer.sol\":421:8230  contract PoolOrganizer is AccessControl, IPoolOrganizer {... */\n      stop\n    tag_217:\n      mstore(0x00, shl(0xe0, 0x4e487b71))\n      mstore(0x04, 0x21)\n      revert(0x00, 0x24)\n    tag_213:\n      mload(0x40)\n      shl(0xe5, 0x461bcd)\n      dup2\n      mstore\n      0x20\n      0x04\n      dup3\n      add\n      mstore\n      0x17\n      0x24\n      dup3\n      add\n      mstore\n      0x506f6f6c20616c72656164792072656769737465726564000000000000000000\n      0x44\n      dup3\n      add\n      mstore\n      0x64\n      swap1\n      revert\n    tag_211:\n      mload(0x40)\n      shl(0xe5, 0x461bcd)\n      dup2\n      mstore\n      0x20\n      0x04\n      dup3\n      add\n      mstore\n      0x1b\n      0x24\n      dup3\n      add\n      mstore\n      0x506f6f6c20616464726573732063616e6e6f74206265207a65726f0000000000\n      0x44\n      dup3\n      add\n      mstore\n      0x64\n      swap1\n      revert\n    tag_27:\n      jumpi(tag_65, callvalue)\n      jumpi(tag_65, slt(add(not(0x03), calldatasize), 0x20))\n      0x20\n      sub(shl(0xa0, 0x01), 0x01)\n      dup1\n      tag_232\n      tag_1\n      jump\t// in\n    tag_232:\n      and\n      0x00\n      mstore\n        /* \"contracts/contracts/protocol/PoolOrganizer.sol\":786:831  mapping(address => address) public poolVaults */\n      0x06\n        /* \"contracts/contracts/protocol/PoolOrganizer.sol\":421:8230  contract PoolOrganizer is AccessControl, IPoolOrganizer {... */\n      dup3\n      mstore\n      sload(keccak256(0x00, 0x40))\n      and\n      mload(0x40)\n      swap1\n      dup2\n      mstore\n      return\n    tag_25:\n      jumpi(tag_65, callvalue)\n      jumpi(tag_65, slt(add(not(0x03), calldatasize), 0x00))\n        /* \"contracts/contracts/protocol/PoolOrganizer.sol\":603:638  IRewardManager public rewardManager */\n      0x02\n        /* \"contracts/contracts/protocol/PoolOrganizer.sol\":421:8230  contract PoolOrganizer is AccessControl, IPoolOrganizer {... */\n      sload\n      mload(0x40)\n      sub(shl(0xa0, 0x01), 0x01)\n      swap1\n      swap2\n      and\n      dup2\n      mstore\n      0x20\n      swap1\n      return\n    tag_23:\n      jumpi(tag_65, callvalue)\n      jumpi(tag_65, slt(add(not(0x03), calldatasize), 0x40))\n      tag_241\n      tag_1\n      jump\t// in\n    tag_241:\n      tag_242\n      tag_2\n      jump\t// in\n    tag_242:\n        /* \"@openzeppelin/contracts/access/AccessControl.sol\":2475:2479  role */\n      swap1\n      tag_243\n      tag_5\n      jump\t// in\n    tag_243:\n      sub(shl(0xa0, 0x01), 0x01)\n        /* \"contracts/contracts/protocol/PoolOrganizer.sol\":421:8230  contract PoolOrganizer is AccessControl, IPoolOrganizer {... */\n      swap1\n      dup2\n      and\n      swap1\n        /* \"contracts/contracts/protocol/PoolOrganizer.sol\":7875:7893  pool != address(0) */\n      dup2\n      iszero\n      iszero\n      dup1\n        /* \"contracts/contracts/protocol/PoolOrganizer.sol\":7875:7916  pool != address(0) && vault != address(0) */\n      tag_244\n      jumpi\n        /* \"contracts/contracts/protocol/PoolOrganizer.sol\":421:8230  contract PoolOrganizer is AccessControl, IPoolOrganizer {... */\n    tag_245:\n      iszero\n      tag_246\n      jumpi\n      dup2\n      0x00\n      mstore\n      mstore(0x20, 0x04)\n        /* \"contracts/contracts/protocol/PoolOrganizer.sol\":7948:8018  require(poolDetails[pool].lender != address(0), \"Pool not registered\") */\n      tag_248\n        /* \"contracts/contracts/protocol/PoolOrganizer.sol\":421:8230  contract PoolOrganizer is AccessControl, IPoolOrganizer {... */\n      dup2\n      sload(keccak256(0x00, 0x40))\n      and\n        /* \"contracts/contracts/protocol/PoolOrganizer.sol\":7956:7994  poolDetails[pool].lender != address(0) */\n      iszero\n      iszero\n        /* \"contracts/contracts/protocol/PoolOrganizer.sol\":7948:8018  require(poolDetails[pool].lender != address(0), \"Pool not registered\") */\n      tag_16\n      jump\t// in\n    tag_248:\n        /* \"contracts/contracts/protocol/PoolOrganizer.sol\":421:8230  contract PoolOrganizer is AccessControl, IPoolOrganizer {... */\n      dup2\n      0x00\n      mstore\n        /* \"contracts/contracts/protocol/PoolOrganizer.sol\":8049:8059  poolVaults */\n      0x06\n        /* \"contracts/contracts/protocol/PoolOrganizer.sol\":421:8230  contract PoolOrganizer is AccessControl, IPoolOrganizer {... */\n      0x20\n      mstore\n      dup1\n      sload(keccak256(0x00, 0x40))\n      and\n      tag_249\n      jumpi\n      dup2\n      0x00\n      mstore\n        /* \"contracts/contracts/protocol/PoolOrganizer.sol\":8049:8059  poolVaults */\n      0x06\n        /* \"contracts/contracts/protocol/PoolOrganizer.sol\":421:8230  contract PoolOrganizer is AccessControl, IPoolOrganizer {... */\n      0x20\n      mstore\n      keccak256(0x00, 0x40)\n      swap3\n      and\n      swap2\n      dup3\n      shl(0xa0, 0xffffffffffffffffffffffff)\n      dup3\n      sload\n      and\n      or\n      swap1\n      sstore\n        /* \"contracts/contracts/protocol/PoolOrganizer.sol\":8193:8221  VaultRegistered(pool, vault) */\n      0xf8ee9039d8e4d43426638703c71517008894fdea742bb2d2dbff5a46fb07abdb\n        /* \"contracts/contracts/protocol/PoolOrganizer.sol\":421:8230  contract PoolOrganizer is AccessControl, IPoolOrganizer {... */\n      0x00\n        /* \"contracts/contracts/protocol/PoolOrganizer.sol\":8193:8221  VaultRegistered(pool, vault) */\n      dup1\n      log3\n        /* \"contracts/contracts/protocol/PoolOrganizer.sol\":421:8230  contract PoolOrganizer is AccessControl, IPoolOrganizer {... */\n      stop\n    tag_249:\n      mload(0x40)\n      shl(0xe5, 0x461bcd)\n      dup2\n      mstore\n      0x20\n      0x04\n      dup3\n      add\n      mstore\n      0x26\n      0x24\n      dup3\n      add\n      mstore\n      0x5661756c7420616c7265616479207265676973746572656420666f7220746869\n      0x44\n      dup3\n      add\n      mstore\n      shl(0xd2, 0x1cc81c1bdbdb)\n      0x64\n      dup3\n      add\n      mstore\n      0x84\n      swap1\n      revert\n    tag_246:\n      mload(0x40)\n      shl(0xe5, 0x461bcd)\n      dup2\n      mstore\n      0x20\n      0x04\n      dup3\n      add\n      mstore\n      0x11\n      0x24\n      dup3\n      add\n      mstore\n      shl(0x78, 0x496e76616c696420616464726573736573)\n      0x44\n      dup3\n      add\n      mstore\n      0x64\n      swap1\n      revert\n        /* \"contracts/contracts/protocol/PoolOrganizer.sol\":7875:7916  pool != address(0) && vault != address(0) */\n    tag_244:\n        /* \"contracts/contracts/protocol/PoolOrganizer.sol\":421:8230  contract PoolOrganizer is AccessControl, IPoolOrganizer {... */\n      pop\n      dup1\n      dup4\n      and\n        /* \"contracts/contracts/protocol/PoolOrganizer.sol\":7897:7916  vault != address(0) */\n      iszero\n      iszero\n        /* \"contracts/contracts/protocol/PoolOrganizer.sol\":7875:7916  pool != address(0) && vault != address(0) */\n      jump(tag_245)\n        /* \"contracts/contracts/protocol/PoolOrganizer.sol\":421:8230  contract PoolOrganizer is AccessControl, IPoolOrganizer {... */\n    tag_21:\n      jumpi(tag_65, callvalue)\n      jumpi(tag_65, slt(add(not(0x03), calldatasize), 0x20))\n      calldataload(0x04)\n      swap1\n      shl(0xe0, 0xffffffff)\n      dup3\n      and\n      dup1\n      swap3\n      sub\n      tag_65\n      jumpi\n      0x20\n      swap2\n      shl(0xe0, 0x7965db0b)\n        /* \"@openzeppelin/contracts/access/AccessControl.sol\":2673:2720  interfaceId == type(IAccessControl).interfaceId */\n      dup2\n      eq\n      swap1\n        /* \"@openzeppelin/contracts/access/AccessControl.sol\":2673:2760  interfaceId == type(IAccessControl).interfaceId || super.supportsInterface(interfaceId) */\n      dup2\n      iszero\n      tag_257\n      jumpi\n        /* \"contracts/contracts/protocol/PoolOrganizer.sol\":421:8230  contract PoolOrganizer is AccessControl, IPoolOrganizer {... */\n    tag_258:\n      pop\n      iszero\n      iszero\n      dup2\n      mstore\n      return\n        /* \"@openzeppelin/contracts/access/AccessControl.sol\":2673:2760  interfaceId == type(IAccessControl).interfaceId || super.supportsInterface(interfaceId) */\n    tag_257:\n      shl(0xe0, 0x01ffc9a7)\n        /* \"@openzeppelin/contracts/utils/introspection/ERC165.sol\":861:901  interfaceId == type(IERC165).interfaceId */\n      eq\n      swap1\n      pop\n        /* \"@openzeppelin/contracts/access/AccessControl.sol\":2673:2760  interfaceId == type(IAccessControl).interfaceId || super.supportsInterface(interfaceId) */\n      dup4\n      jump(tag_258)\n        /* \"contracts/contracts/protocol/PoolOrganizer.sol\":421:8230  contract PoolOrganizer is AccessControl, IPoolOrganizer {... */\n    tag_1:\n      calldataload(0x04)\n      swap1\n      sub(shl(0xa0, 0x01), 0x01)\n      dup3\n      and\n      dup3\n      sub\n      tag_65\n      jumpi\n      jump\t// out\n    tag_2:\n      calldataload(0x24)\n      swap1\n      sub(shl(0xa0, 0x01), 0x01)\n      dup3\n      and\n      dup3\n      sub\n      tag_65\n      jumpi\n      jump\t// out\n    tag_4:\n      swap1\n      0x02\n      dup3\n      lt\n      iszero\n      tag_217\n      jumpi\n      mstore\n      jump\t// out\n        /* \"@openzeppelin/contracts/access/AccessControl.sol\":3199:3302  function _checkRole(bytes32 role) internal view virtual {... */\n    tag_5:\n        /* \"@openzeppelin/contracts/utils/Context.sol\":735:745  msg.sender */\n      caller\n        /* \"@openzeppelin/contracts/access/AccessControl.sol\":2954:2960  _roles */\n      0x00\n        /* \"contracts/contracts/protocol/PoolOrganizer.sol\":421:8230  contract PoolOrganizer is AccessControl, IPoolOrganizer {... */\n      swap1\n      dup2\n      mstore\n      mstore(0x20, 0x729ef9451dd492832bd2a98139702ced95dfa0cec7e99526dbbcb957abcbc476)\n      0x40\n      swap1\n      keccak256\n      sload\n      0x00\n      dup1\n      mload\n      0x20\n      data_cea5b988323acc73cd81db0e6f2932cdc75f39072539d65cbfa79c56b2a64e51\n      dup4\n      codecopy\n      dup2\n      mload\n      swap2\n      mstore\n        /* \"contracts/contracts/protocol/PoolOrganizer.sol\":527:557  keccak256(\"POOL_MANAGER_ROLE\") */\n      swap1\n        /* \"contracts/contracts/protocol/PoolOrganizer.sol\":421:8230  contract PoolOrganizer is AccessControl, IPoolOrganizer {... */\n      0xff\n      and\n        /* \"@openzeppelin/contracts/access/AccessControl.sol\":3519:3542  !hasRole(role, account) */\n      iszero\n        /* \"@openzeppelin/contracts/access/AccessControl.sol\":3515:3623  if (!hasRole(role, account)) {... */\n      tag_265\n      jumpi\n        /* \"@openzeppelin/contracts/access/AccessControl.sol\":3199:3302  function _checkRole(bytes32 role) internal view virtual {... */\n      pop\n      jump\t// out\n        /* \"@openzeppelin/contracts/access/AccessControl.sol\":3515:3623  if (!hasRole(role, account)) {... */\n    tag_265:\n        /* \"contracts/contracts/protocol/PoolOrganizer.sol\":421:8230  contract PoolOrganizer is AccessControl, IPoolOrganizer {... */\n      0x44\n      swap1\n      mload(0x40)\n        /* \"@openzeppelin/contracts/access/AccessControl.sol\":3565:3612  AccessControlUnauthorizedAccount(account, role) */\n      swap1\n      shl(0xe0, 0xe2517d3f)\n      dup3\n      mstore\n        /* \"@openzeppelin/contracts/utils/Context.sol\":735:745  msg.sender */\n      caller\n        /* \"@openzeppelin/contracts/access/AccessControl.sol\":3565:3612  AccessControlUnauthorizedAccount(account, role) */\n      0x04\n      dup4\n      add\n        /* \"contracts/contracts/protocol/PoolOrganizer.sol\":421:8230  contract PoolOrganizer is AccessControl, IPoolOrganizer {... */\n      mstore\n      0x24\n      dup3\n      add\n      mstore\n        /* \"@openzeppelin/contracts/access/AccessControl.sol\":3565:3612  AccessControlUnauthorizedAccount(account, role) */\n      revert\n        /* \"@openzeppelin/contracts/access/AccessControl.sol\":3199:3302  function _checkRole(bytes32 role) internal view virtual {... */\n    tag_6:\n        /* \"contracts/contracts/protocol/PoolOrganizer.sol\":421:8230  contract PoolOrganizer is AccessControl, IPoolOrganizer {... */\n      dup1\n        /* \"@openzeppelin/contracts/access/AccessControl.sol\":2954:2960  _roles */\n      0x00\n        /* \"contracts/contracts/protocol/PoolOrganizer.sol\":421:8230  contract PoolOrganizer is AccessControl, IPoolOrganizer {... */\n      mstore\n        /* \"@openzeppelin/contracts/access/AccessControl.sol\":2954:2960  _roles */\n      0x00\n        /* \"contracts/contracts/protocol/PoolOrganizer.sol\":421:8230  contract PoolOrganizer is AccessControl, IPoolOrganizer {... */\n      0x20\n      mstore\n      0x40\n        /* \"@openzeppelin/contracts/access/AccessControl.sol\":2954:2960  _roles */\n      0x00\n        /* \"contracts/contracts/protocol/PoolOrganizer.sol\":421:8230  contract PoolOrganizer is AccessControl, IPoolOrganizer {... */\n      keccak256\n        /* \"@openzeppelin/contracts/utils/Context.sol\":735:745  msg.sender */\n      caller\n        /* \"@openzeppelin/contracts/access/AccessControl.sol\":2954:2960  _roles */\n      0x00\n        /* \"contracts/contracts/protocol/PoolOrganizer.sol\":421:8230  contract PoolOrganizer is AccessControl, IPoolOrganizer {... */\n      mstore\n      0x20\n      mstore\n      0xff\n      0x40\n        /* \"@openzeppelin/contracts/access/AccessControl.sol\":2954:2960  _roles */\n      0x00\n        /* \"contracts/contracts/protocol/PoolOrganizer.sol\":421:8230  contract PoolOrganizer is AccessControl, IPoolOrganizer {... */\n      keccak256\n      sload\n      and\n        /* \"@openzeppelin/contracts/access/AccessControl.sol\":3519:3542  !hasRole(role, account) */\n      iszero\n        /* \"@openzeppelin/contracts/access/AccessControl.sol\":3515:3623  if (!hasRole(role, account)) {... */\n      tag_265\n      jumpi\n        /* \"@openzeppelin/contracts/access/AccessControl.sol\":3199:3302  function _checkRole(bytes32 role) internal view virtual {... */\n      pop\n      jump\t// out\n        /* \"@openzeppelin/contracts/access/AccessControl.sol\":6179:6495  function _grantRole(bytes32 role, address account) internal virtual returns (bool) {... */\n    tag_7:\n      sub(shl(0xa0, 0x01), 0x01)\n        /* \"contracts/contracts/protocol/PoolOrganizer.sol\":421:8230  contract PoolOrganizer is AccessControl, IPoolOrganizer {... */\n      and\n        /* \"@openzeppelin/contracts/access/AccessControl.sol\":2954:2960  _roles */\n      0x00\n        /* \"contracts/contracts/protocol/PoolOrganizer.sol\":421:8230  contract PoolOrganizer is AccessControl, IPoolOrganizer {... */\n      dup2\n      dup2\n      mstore\n      mstore(0x20, 0x729ef9451dd492832bd2a98139702ced95dfa0cec7e99526dbbcb957abcbc476)\n      0x40\n      dup2\n      keccak256\n      sload\n        /* \"@openzeppelin/contracts/access/AccessControl.sol\":2954:2960  _roles */\n      swap1\n      swap2\n        /* \"contracts/contracts/protocol/PoolOrganizer.sol\":421:8230  contract PoolOrganizer is AccessControl, IPoolOrganizer {... */\n      swap1\n      0x00\n      dup1\n      mload\n      0x20\n      data_cea5b988323acc73cd81db0e6f2932cdc75f39072539d65cbfa79c56b2a64e51\n      dup4\n      codecopy\n      dup2\n      mload\n      swap2\n      mstore\n        /* \"contracts/contracts/protocol/PoolOrganizer.sol\":527:557  keccak256(\"POOL_MANAGER_ROLE\") */\n      swap1\n        /* \"contracts/contracts/protocol/PoolOrganizer.sol\":421:8230  contract PoolOrganizer is AccessControl, IPoolOrganizer {... */\n      0xff\n      and\n      tag_269\n      jumpi\n      dup1\n      dup4\n      mstore\n      dup3\n      0x20\n      mstore\n      0x40\n      dup4\n      keccak256\n      dup3\n      dup5\n      mstore\n      0x20\n      mstore\n      0x40\n      dup4\n      keccak256\n      0x01\n      not(0xff)\n      dup3\n      sload\n      and\n      or\n      swap1\n      sstore\n        /* \"@openzeppelin/contracts/access/AccessControl.sol\":6370:6410  RoleGranted(role, account, _msgSender()) */\n      0x2f8788117e7eff1d82e926ec794901d17c78024a50270940304540a733656f0d\n        /* \"@openzeppelin/contracts/utils/Context.sol\":735:745  msg.sender */\n      caller\n        /* \"@openzeppelin/contracts/access/AccessControl.sol\":6370:6410  RoleGranted(role, account, _msgSender()) */\n      swap4\n      dup1\n      log4\n        /* \"contracts/contracts/protocol/PoolOrganizer.sol\":421:8230  contract PoolOrganizer is AccessControl, IPoolOrganizer {... */\n      0x01\n        /* \"@openzeppelin/contracts/access/AccessControl.sol\":6424:6435  return true */\n      swap1\n      jump\t// out\n        /* \"@openzeppelin/contracts/access/AccessControl.sol\":6272:6489  if (!hasRole(role, account)) {... */\n    tag_269:\n        /* \"@openzeppelin/contracts/access/AccessControl.sol\":6466:6478  return false */\n      pop\n      pop\n      swap1\n      jump\t// out\n        /* \"@openzeppelin/contracts/access/AccessControl.sol\":6179:6495  function _grantRole(bytes32 role, address account) internal virtual returns (bool) {... */\n    tag_8:\n      swap1\n        /* \"@openzeppelin/contracts/access/AccessControl.sol\":2954:2960  _roles */\n      0x00\n        /* \"contracts/contracts/protocol/PoolOrganizer.sol\":421:8230  contract PoolOrganizer is AccessControl, IPoolOrganizer {... */\n      swap2\n      dup1\n      dup4\n      mstore\n      dup3\n      0x20\n      mstore\n      0x40\n      dup4\n      keccak256\n      swap2\n      0x01\n      dup1\n      0xa0\n      shl\n      sub\n      and\n      swap2\n      dup3\n      dup5\n      mstore\n      0x20\n      mstore\n      0xff\n      0x40\n      dup5\n      keccak256\n      sload\n      and\n        /* \"@openzeppelin/contracts/access/AccessControl.sol\":6276:6299  !hasRole(role, account) */\n      iszero\n        /* \"@openzeppelin/contracts/access/AccessControl.sol\":6272:6489  if (!hasRole(role, account)) {... */\n      0x00\n        /* \"contracts/contracts/protocol/PoolOrganizer.sol\":421:8230  contract PoolOrganizer is AccessControl, IPoolOrganizer {... */\n      eq\n      tag_269\n      jumpi\n      dup1\n      dup4\n      mstore\n      dup3\n      0x20\n      mstore\n      0x40\n      dup4\n      keccak256\n      dup3\n      dup5\n      mstore\n      0x20\n      mstore\n      0x40\n      dup4\n      keccak256\n      0x01\n      not(0xff)\n      dup3\n      sload\n      and\n      or\n      swap1\n      sstore\n        /* \"@openzeppelin/contracts/access/AccessControl.sol\":6370:6410  RoleGranted(role, account, _msgSender()) */\n      0x2f8788117e7eff1d82e926ec794901d17c78024a50270940304540a733656f0d\n        /* \"@openzeppelin/contracts/utils/Context.sol\":735:745  msg.sender */\n      caller\n        /* \"@openzeppelin/contracts/access/AccessControl.sol\":6370:6410  RoleGranted(role, account, _msgSender()) */\n      swap4\n      dup1\n      log4\n        /* \"contracts/contracts/protocol/PoolOrganizer.sol\":421:8230  contract PoolOrganizer is AccessControl, IPoolOrganizer {... */\n      0x01\n        /* \"@openzeppelin/contracts/access/AccessControl.sol\":6424:6435  return true */\n      swap1\n      jump\t// out\n        /* \"@openzeppelin/contracts/access/AccessControl.sol\":6730:7047  function _revokeRole(bytes32 role, address account) internal virtual returns (bool) {... */\n    tag_9:\n      swap1\n        /* \"@openzeppelin/contracts/access/AccessControl.sol\":2954:2960  _roles */\n      0x00\n        /* \"contracts/contracts/protocol/PoolOrganizer.sol\":421:8230  contract PoolOrganizer is AccessControl, IPoolOrganizer {... */\n      swap2\n      dup1\n      dup4\n      mstore\n      dup3\n      0x20\n      mstore\n      0x40\n      dup4\n      keccak256\n      swap2\n      0x01\n      dup1\n      0xa0\n      shl\n      sub\n      and\n      swap2\n      dup3\n      dup5\n      mstore\n      0x20\n      mstore\n      0xff\n      0x40\n      dup5\n      keccak256\n      sload\n      and\n        /* \"@openzeppelin/contracts/access/AccessControl.sol\":6824:7041  if (hasRole(role, account)) {... */\n      0x00\n        /* \"contracts/contracts/protocol/PoolOrganizer.sol\":421:8230  contract PoolOrganizer is AccessControl, IPoolOrganizer {... */\n      eq\n      tag_269\n      jumpi\n      dup1\n      dup4\n      mstore\n      dup3\n      0x20\n      mstore\n      0x40\n      dup4\n      keccak256\n      dup3\n      dup5\n      mstore\n      0x20\n      mstore\n      0x40\n      dup4\n      keccak256\n      not(0xff)\n      dup2\n      sload\n      and\n      swap1\n      sstore\n        /* \"@openzeppelin/contracts/access/AccessControl.sol\":6922:6962  RoleRevoked(role, account, _msgSender()) */\n      0xf6391f5c32d9c69d2a47ea670b442974b53935d1edc7fd64eb21e047a839171b\n        /* \"@openzeppelin/contracts/utils/Context.sol\":735:745  msg.sender */\n      caller\n        /* \"@openzeppelin/contracts/access/AccessControl.sol\":6922:6962  RoleRevoked(role, account, _msgSender()) */\n      swap4\n      dup1\n      log4\n        /* \"contracts/contracts/protocol/PoolOrganizer.sol\":421:8230  contract PoolOrganizer is AccessControl, IPoolOrganizer {... */\n      0x01\n        /* \"@openzeppelin/contracts/access/AccessControl.sol\":6976:6987  return true */\n      swap1\n      jump\t// out\n        /* \"contracts/contracts/protocol/PoolOrganizer.sol\":421:8230  contract PoolOrganizer is AccessControl, IPoolOrganizer {... */\n    tag_10:\n      0x0140\n      dup2\n      add\n      swap1\n      dup2\n      lt\n      0xffffffffffffffff\n      dup3\n      gt\n      or\n      tag_185\n      jumpi\n      0x40\n      mstore\n      jump\t// out\n    tag_11:\n      0x02\n      dup3\n      lt\n      iszero\n      tag_217\n      jumpi\n      mstore\n      jump\t// out\n    tag_12:\n      sload(0x03)\n      dup2\n      lt\n      iszero\n      tag_279\n      jumpi\n      mstore(0x00, 0x03)\n      0xc2575a0e9e593c00f959f8c92f12db2869c3395a3b0502d05e2516446f71f85b\n      add\n      swap1\n      0x00\n      swap1\n      jump\t// out\n    tag_279:\n      mstore(0x00, shl(0xe0, 0x4e487b71))\n      mstore(0x04, 0x32)\n      revert(0x00, 0x24)\n    tag_13:\n      dup1\n      sload\n      dup3\n      lt\n      iszero\n      tag_279\n      jumpi\n      0x00\n      mstore\n      keccak256(0x00, 0x20)\n      add\n      swap1\n      0x00\n      swap1\n      jump\t// out\n    tag_16:\n      iszero\n      tag_283\n      jumpi\n      jump\t// out\n    tag_283:\n      mload(0x40)\n      shl(0xe5, 0x461bcd)\n      dup2\n      mstore\n      0x20\n      0x04\n      dup3\n      add\n      mstore\n      0x13\n      0x24\n      dup3\n      add\n      mstore\n      shl(0x6a, 0x141bdbdb081b9bdd081c9959da5cdd195c9959)\n      0x44\n      dup3\n      add\n      mstore\n      0x64\n      swap1\n      revert\n        /* \"contracts/contracts/protocol/PoolOrganizer.sol\":7150:7449  function findIndexInArray(address[] storage array, address target)... */\n    tag_17:\n        /* \"contracts/contracts/protocol/PoolOrganizer.sol\":7303:7304  0 */\n      0x00\n        /* \"contracts/contracts/protocol/PoolOrganizer.sol\":7291:7304  uint256 i = 0 */\n      dup1\n        /* \"contracts/contracts/protocol/PoolOrganizer.sol\":421:8230  contract PoolOrganizer is AccessControl, IPoolOrganizer {... */\n      swap2\n      0x03\n      dup1\n      sload\n        /* \"contracts/contracts/protocol/PoolOrganizer.sol\":7286:7386  for (uint256 i = 0; i < array.length; i++) {... */\n      swap4\n        /* \"contracts/contracts/protocol/PoolOrganizer.sol\":7306:7322  i < array.length */\n    tag_285:\n      dup5\n      dup2\n      lt\n      tag_286\n      jumpi\n        /* \"contracts/contracts/protocol/PoolOrganizer.sol\":421:8230  contract PoolOrganizer is AccessControl, IPoolOrganizer {... */\n      pop\n      pop\n      pop\n      pop\n      pop\n      not(0x00)\n        /* \"contracts/contracts/protocol/PoolOrganizer.sol\":7150:7449  function findIndexInArray(address[] storage array, address target)... */\n      swap1\n      jump\t// out\n        /* \"contracts/contracts/protocol/PoolOrganizer.sol\":7324:7327  i++ */\n    tag_286:\n        /* \"contracts/contracts/protocol/PoolOrganizer.sol\":7347:7355  array[i] */\n      tag_288\n      dup2\n      tag_12\n      jump\t// in\n    tag_288:\n        /* \"contracts/contracts/protocol/PoolOrganizer.sol\":421:8230  contract PoolOrganizer is AccessControl, IPoolOrganizer {... */\n      swap1\n      sload\n      swap1\n      dup4\n      shl\n      shr\n      sub(shl(0xa0, 0x01), 0x01)\n      swap1\n      dup2\n      and\n      swap1\n      dup5\n      and\n        /* \"contracts/contracts/protocol/PoolOrganizer.sol\":7347:7365  array[i] == target */\n      eq\n        /* \"contracts/contracts/protocol/PoolOrganizer.sol\":7343:7375  if (array[i] == target) return i */\n      tag_289\n      jumpi\n      not(0x00)\n        /* \"contracts/contracts/protocol/PoolOrganizer.sol\":421:8230  contract PoolOrganizer is AccessControl, IPoolOrganizer {... */\n      dup2\n      eq\n      tag_291\n      jumpi\n      0x01\n      add\n        /* \"contracts/contracts/protocol/PoolOrganizer.sol\":7291:7304  uint256 i = 0 */\n      jump(tag_285)\n        /* \"contracts/contracts/protocol/PoolOrganizer.sol\":421:8230  contract PoolOrganizer is AccessControl, IPoolOrganizer {... */\n    tag_291:\n      shl(0xe0, 0x4e487b71)\n      dup5\n      mstore\n      mstore(0x04, 0x11)\n      0x24\n      dup5\n      revert\n        /* \"contracts/contracts/protocol/PoolOrganizer.sol\":7343:7375  if (array[i] == target) return i */\n    tag_289:\n        /* \"contracts/contracts/protocol/PoolOrganizer.sol\":7367:7375  return i */\n      swap4\n      pop\n      pop\n      pop\n      pop\n      swap1\n      jump\t// out\n        /* \"contracts/contracts/protocol/PoolOrganizer.sol\":7150:7449  function findIndexInArray(address[] storage array, address target)... */\n    tag_18:\n      swap2\n        /* \"contracts/contracts/protocol/PoolOrganizer.sol\":7303:7304  0 */\n      0x00\n        /* \"contracts/contracts/protocol/PoolOrganizer.sol\":7291:7304  uint256 i = 0 */\n      swap2\n      dup3\n        /* \"contracts/contracts/protocol/PoolOrganizer.sol\":7324:7327  i++ */\n    tag_293:\n        /* \"contracts/contracts/protocol/PoolOrganizer.sol\":421:8230  contract PoolOrganizer is AccessControl, IPoolOrganizer {... */\n      dup5\n      sload\n        /* \"contracts/contracts/protocol/PoolOrganizer.sol\":7306:7322  i < array.length */\n      dup2\n      lt\n      iszero\n      tag_294\n      jumpi\n        /* \"contracts/contracts/protocol/PoolOrganizer.sol\":7347:7355  array[i] */\n      tag_296\n      dup2\n      dup7\n      tag_13\n      jump\t// in\n    tag_296:\n        /* \"contracts/contracts/protocol/PoolOrganizer.sol\":421:8230  contract PoolOrganizer is AccessControl, IPoolOrganizer {... */\n      swap1\n      sload\n      0x03\n      swap2\n      swap1\n      swap2\n      shl\n      shr\n      sub(shl(0xa0, 0x01), 0x01)\n      swap1\n      dup2\n      and\n      swap1\n      dup4\n      and\n        /* \"contracts/contracts/protocol/PoolOrganizer.sol\":7347:7365  array[i] == target */\n      eq\n        /* \"contracts/contracts/protocol/PoolOrganizer.sol\":7343:7375  if (array[i] == target) return i */\n      tag_297\n      jumpi\n      not(0x00)\n        /* \"contracts/contracts/protocol/PoolOrganizer.sol\":421:8230  contract PoolOrganizer is AccessControl, IPoolOrganizer {... */\n      dup2\n      eq\n      tag_291\n      jumpi\n      0x01\n      add\n        /* \"contracts/contracts/protocol/PoolOrganizer.sol\":7291:7304  uint256 i = 0 */\n      jump(tag_293)\n        /* \"contracts/contracts/protocol/PoolOrganizer.sol\":7343:7375  if (array[i] == target) return i */\n    tag_297:\n        /* \"contracts/contracts/protocol/PoolOrganizer.sol\":7367:7375  return i */\n      swap3\n      pop\n      pop\n      swap2\n      pop\n      swap1\n      jump\t// out\n        /* \"contracts/contracts/protocol/PoolOrganizer.sol\":7306:7322  i < array.length */\n    tag_294:\n      pop\n      pop\n      swap2\n      pop\n      pop\n        /* \"contracts/contracts/protocol/PoolOrganizer.sol\":421:8230  contract PoolOrganizer is AccessControl, IPoolOrganizer {... */\n      not(0x00)\n        /* \"contracts/contracts/protocol/PoolOrganizer.sol\":7150:7449  function findIndexInArray(address[] storage array, address target)... */\n      swap1\n      jump\t// out\n    stop\n    data_cea5b988323acc73cd81db0e6f2932cdc75f39072539d65cbfa79c56b2a64e51 6077685936c8169d09204a1d97db12e41713588c38e1d29a61867d3dcee98aff\n\n    auxdata: 0xa264697066735822122071f6c4a674f381b3ca6656ce44afd24295ae726d8cea574f6ce126b243cd759364736f6c63430008140033\n}\n",
				"bytecode": {
					"linkReferences": {},
					"object": "60806040523461002c5761001233610030565b5061001c336100ac565b5060405161140d908161014b8239f35b5f80fd5b6001600160a01b03165f8181527fad3228b676f7d3cd4284a5443f17f1962b36e491b30a40b2405849e597ba5fb5602052604081205490919060ff166100a857818052816020526040822081835260205260408220600160ff1982541617905533915f805160206115588339815191528180a4600190565b5090565b6001600160a01b03165f8181527f729ef9451dd492832bd2a98139702ced95dfa0cec7e99526dbbcb957abcbc47660205260408120549091907f6077685936c8169d09204a1d97db12e41713588c38e1d29a61867d3dcee98aff9060ff1661014557808352826020526040832082845260205260408320600160ff198254161790555f80516020611558833981519152339380a4600190565b50509056fe6080806040526004361015610012575f80fd5b5f3560e01c90816301ffc9a714610f955750806305c4fdf914610e415780630f4ef8a614610e195780631e4966ab14610de05780632437769a14610a96578063248a9ca314610a6a57806324a44efb146109935780632f2ff15d1461095757806336568abe1461091057806356d73568146108e95780635d102df7146108125780637570e389146107725780637e72c7d7146105655780638a4adf241461053d57806391d14854146104f5578063a217fddf146104db578063a8d088bb146104a8578063c489579d14610315578063d3e90fa014610162578063d3ffe67a146101455763d547741f14610103575f80fd5b346101415760403660031901126101415761013f600435610122610ffe565b90805f525f60205261013a600160405f200154611087565b6111bd565b005b5f80fd5b34610141575f366003190112610141576020600354604051908152f35b346101415760203660031901126101415761017b610fe8565b5f61012060405161018b81611230565b8281528260208201528260408201528260608201528260808201528260a08201528260c08201528260e082015282610100820152015260018060a01b0316805f5260046020526101e860018060a01b0360405f20541615156112b7565b5f52600460205261014060405f2061027e60ff60096040519361020a85611230565b80546001600160a01b0390811686526001820154811660208701526002820154604087015260038201548116606087015260048201548116608087015260058201541660a0860152600681015460c0860152600781015460e08601526008810154610100860152015416610120830161124d565b6103136101206040519260018060a01b03815116845260018060a01b0360208201511660208501526040810151604085015260018060a01b03606082015116606085015260018060a01b03608082015116608085015260018060a01b0360a08201511660a085015260c081015160c085015260e081015160e08501526101008101516101008501520151610120830190611014565bf35b346101415760403660031901126101415761032e610fe8565b610336610ffe565b335f9081527fad3228b676f7d3cd4284a5443f17f1962b36e491b30a40b2405849e597ba5fb5602052604090205460ff161561048a576001600160a01b038281169290831561043957821680156103e857600180546001600160a01b03199081169590951790556002805490941617909255604080516001600160a01b0393841681529190921660208201527f8fc18cc172f74c81235145b7927190d2bd0e351fc45bfb17bb572593273cef219190a1005b60405162461bcd60e51b8152602060048201526024808201527f5265776172644d616e616765722063616e6e6f74206265207a65726f206164646044820152637265737360e01b6064820152608490fd5b60405162461bcd60e51b815260206004820152602360248201527f5661756c744d616e616765722063616e6e6f74206265207a65726f206164647260448201526265737360e81b6064820152608490fd5b60405163e2517d3f60e01b81523360048201525f6024820152604490fd5b34610141575f36600319011261014157600154600254604080516001600160a01b03938416815292909116602083015290f35b34610141575f3660031901126101415760206040515f8152f35b346101415760403660031901126101415761050e610ffe565b6004355f525f60205260405f209060018060a01b03165f52602052602060ff60405f2054166040519015158152f35b34610141575f366003190112610141576001546040516001600160a01b039091168152602090f35b34610141576020806003193601126101415761057f610fe8565b90610588611021565b60018060a01b039081831692835f52600482526105ac8360405f20541615156112b7565b835f52600482528260405f205416805f526005938484526105d08360405f20611361565b92825f5285855260405f2054925f199384810190811161075e57610618958461060561063f93855f528b8b5260405f206112a2565b98905492855f528b8b5260405f206112a2565b9190926003998a1b1c169082549060031b9160018060a01b03809116831b921b1916179055565b5f5285855260405f2090815491821561074a578461068193019061067b61066683836112a2565b81549060018060a01b039060031b1b19169055565b556112f9565b835483810190811161075e576106c99261069d6106aa92611259565b905490871b1c1691611259565b90919082549060031b9160018060a01b03809116831b921b1916179055565b815493841561074a5760046009945f96938794016106e961066682611259565b85558784525281604081209381855581600186015581600286015584015581600484015582015582600682015582600782015582600882015501557f334d0b2111287dfddebe4b4c1c5af3ae644909d7fcd024377bf601e236ed5abb5f80a2005b634e487b7160e01b5f52603160045260245ffd5b634e487b7160e01b5f52601160045260245ffd5b34610141576020366003190112610141576001600160a01b0380610794610fe8565b1690815f5260066020528060405f205416156107c1576020915f526006825260405f205416604051908152f35b60405162461bcd60e51b815260206004820152602360248201527f506f6f6c206e6f742072656769737465726564206f7220686173206e6f2076616044820152621d5b1d60ea1b6064820152608490fd5b346101415760203660031901126101415761082b610fe8565b335f9081527fad3228b676f7d3cd4284a5443f17f1962b36e491b30a40b2405849e597ba5fb5602052604090205460ff16156108ab575f805160206113b88339815191525f9081526020527f729ef9451dd492832bd2a98139702ced95dfa0cec7e99526dbbcb957abcbc4775461013f91906108a690611087565b6110a8565b60405162461bcd60e51b815260206004820152601660248201527521b0b63632b91034b9903737ba1030b71030b236b4b760511b6044820152606490fd5b34610141575f3660031901126101415760206040515f805160206113b88339815191528152f35b3461014157604036600319011261014157610929610ffe565b336001600160a01b038216036109455761013f906004356111bd565b60405163334bd91960e11b8152600490fd5b346101415760403660031901126101415761013f600435610976610ffe565b90805f525f60205261098e600160405f200154611087565b611146565b3461014157602080600319360112610141576001600160a01b0390816109b7610fe8565b165f526005815260405f206040518083835491828152019081935f52845f20905f5b86828210610a545750505050819003601f01601f191681019267ffffffffffffffff841182851017610a4057908360405281840190828552518091526040840192915f5b828110610a2a5785850386f35b8351871685529381019392810192600101610a1d565b634e487b7160e01b5f52604160045260245ffd5b83548916855290930192600192830192016109d9565b34610141576020366003190112610141576004355f525f6020526020600160405f200154604051908152f35b346101415761014036600319011261014157610ab0610fe8565b610ab8610ffe565b906044356001600160a01b038116810361014157606435906001600160a01b0382168203610141576084356001600160a01b03811681036101415760a4356001600160a01b038116810361014157600261012435101561014157610b1a611021565b6001600160a01b03851615610d9b576001600160a01b038581165f9081526004602052604090205416610d565760405191610b5483611230565b6001600160a01b0387811684528481166020850152426040850152858116606085015290811660808401521660a082015260c43560c082015260e43560e082015261010435610100820152610bb061012435610120830161124d565b60018060a01b0384165f526004602052610120600960405f2060018060a01b038451166bffffffffffffffffffffffff60a01b90818354161782556001820160018060a01b0360208701511682825416179055604085015160028301556003820160018060a01b03606087015116828254161790556004820160018060a01b0360808701511682825416179055600582019060018060a01b0360a0870151169082541617905560c0840151600682015560e084015160078201556101008401516008820155019101516002811015610d425760ff8019835416911617905560018060a01b0384165f52600560205260405f20805490680100000000000000009182811015610a40576106aa81610ccc93600189940181556112a2565b60035490811015610a40577f8f723e49dc038e67c41b41307a1e0c65653d50125a0c474a21ac32d9a0b24d2b91610d0f856106aa84600160409601600355611259565b81516001600160a01b039094168452610d2e6020850161012435611014565b6001600160a01b03908116958116941692a4005b634e487b7160e01b5f52602160045260245ffd5b60405162461bcd60e51b815260206004820152601760248201527f506f6f6c20616c726561647920726567697374657265640000000000000000006044820152606490fd5b60405162461bcd60e51b815260206004820152601b60248201527f506f6f6c20616464726573732063616e6e6f74206265207a65726f00000000006044820152606490fd5b346101415760203660031901126101415760206001600160a01b0380610e04610fe8565b165f526006825260405f205416604051908152f35b34610141575f366003190112610141576002546040516001600160a01b039091168152602090f35b3461014157604036600319011261014157610e5a610fe8565b610e62610ffe565b90610e6b611021565b6001600160a01b039081169081151580610f8a575b15610f5157815f526004602052610e9e8160405f20541615156112b7565b815f5260066020528060405f205416610efd57815f52600660205260405f20921691826bffffffffffffffffffffffff60a01b8254161790557ff8ee9039d8e4d43426638703c71517008894fdea742bb2d2dbff5a46fb07abdb5f80a3005b60405162461bcd60e51b815260206004820152602660248201527f5661756c7420616c7265616479207265676973746572656420666f72207468696044820152651cc81c1bdbdb60d21b6064820152608490fd5b60405162461bcd60e51b8152602060048201526011602482015270496e76616c69642061646472657373657360781b6044820152606490fd5b508083161515610e80565b34610141576020366003190112610141576004359063ffffffff60e01b821680920361014157602091637965db0b60e01b8114908115610fd7575b5015158152f35b6301ffc9a760e01b14905083610fd0565b600435906001600160a01b038216820361014157565b602435906001600160a01b038216820361014157565b906002821015610d425752565b335f9081527f729ef9451dd492832bd2a98139702ced95dfa0cec7e99526dbbcb957abcbc47660205260409020545f805160206113b88339815191529060ff16156110695750565b6044906040519063e2517d3f60e01b82523360048301526024820152fd5b805f525f60205260405f20335f5260205260ff60405f205416156110695750565b6001600160a01b03165f8181527f729ef9451dd492832bd2a98139702ced95dfa0cec7e99526dbbcb957abcbc47660205260408120549091905f805160206113b88339815191529060ff1661114157808352826020526040832082845260205260408320600160ff198254161790557f2f8788117e7eff1d82e926ec794901d17c78024a50270940304540a733656f0d339380a4600190565b505090565b905f9180835282602052604083209160018060a01b03169182845260205260ff604084205416155f1461114157808352826020526040832082845260205260408320600160ff198254161790557f2f8788117e7eff1d82e926ec794901d17c78024a50270940304540a733656f0d339380a4600190565b905f9180835282602052604083209160018060a01b03169182845260205260ff6040842054165f146111415780835282602052604083208284526020526040832060ff1981541690557ff6391f5c32d9c69d2a47ea670b442974b53935d1edc7fd64eb21e047a839171b339380a4600190565b610140810190811067ffffffffffffffff821117610a4057604052565b6002821015610d425752565b60035481101561128e5760035f527fc2575a0e9e593c00f959f8c92f12db2869c3395a3b0502d05e2516446f71f85b01905f90565b634e487b7160e01b5f52603260045260245ffd5b805482101561128e575f5260205f2001905f90565b156112be57565b60405162461bcd60e51b8152602060048201526013602482015272141bdbdb081b9bdd081c9959da5cdd195c9959606a1b6044820152606490fd5b5f809160038054935b8481106113135750505050505f1990565b61131c81611259565b905490831b1c6001600160a01b0390811690841614611359575f19811461134557600101611302565b634e487b7160e01b84526011600452602484fd5b935050505090565b915f91825b84548110156113ad5761137981866112a2565b905460039190911b1c6001600160a01b03908116908316146113a5575f19811461134557600101611366565b925050915090565b50509150505f199056fe6077685936c8169d09204a1d97db12e41713588c38e1d29a61867d3dcee98affa264697066735822122071f6c4a674f381b3ca6656ce44afd24295ae726d8cea574f6ce126b243cd759364736f6c634300081400332f8788117e7eff1d82e926ec794901d17c78024a50270940304540a733656f0d",
					"opcodes": "PUSH1 0x80 PUSH1 0x40 MSTORE CALLVALUE PUSH2 0x2C JUMPI PUSH2 0x12 CALLER PUSH2 0x30 JUMP JUMPDEST POP PUSH2 0x1C CALLER PUSH2 0xAC JUMP JUMPDEST POP PUSH1 0x40 MLOAD PUSH2 0x140D SWAP1 DUP2 PUSH2 0x14B DUP3 CODECOPY RETURN JUMPDEST PUSH0 DUP1 REVERT JUMPDEST PUSH1 0x1 PUSH1 0x1 PUSH1 0xA0 SHL SUB AND PUSH0 DUP2 DUP2 MSTORE PUSH32 0xAD3228B676F7D3CD4284A5443F17F1962B36E491B30A40B2405849E597BA5FB5 PUSH1 0x20 MSTORE PUSH1 0x40 DUP2 KECCAK256 SLOAD SWAP1 SWAP2 SWAP1 PUSH1 0xFF AND PUSH2 0xA8 JUMPI DUP2 DUP1 MSTORE DUP2 PUSH1 0x20 MSTORE PUSH1 0x40 DUP3 KECCAK256 DUP2 DUP4 MSTORE PUSH1 0x20 MSTORE PUSH1 0x40 DUP3 KECCAK256 PUSH1 0x1 PUSH1 0xFF NOT DUP3 SLOAD AND OR SWAP1 SSTORE CALLER SWAP2 PUSH0 DUP1 MLOAD PUSH1 0x20 PUSH2 0x1558 DUP4 CODECOPY DUP2 MLOAD SWAP2 MSTORE DUP2 DUP1 LOG4 PUSH1 0x1 SWAP1 JUMP JUMPDEST POP SWAP1 JUMP JUMPDEST PUSH1 0x1 PUSH1 0x1 PUSH1 0xA0 SHL SUB AND PUSH0 DUP2 DUP2 MSTORE PUSH32 0x729EF9451DD492832BD2A98139702CED95DFA0CEC7E99526DBBCB957ABCBC476 PUSH1 0x20 MSTORE PUSH1 0x40 DUP2 KECCAK256 SLOAD SWAP1 SWAP2 SWAP1 PUSH32 0x6077685936C8169D09204A1D97DB12E41713588C38E1D29A61867D3DCEE98AFF SWAP1 PUSH1 0xFF AND PUSH2 0x145 JUMPI DUP1 DUP4 MSTORE DUP3 PUSH1 0x20 MSTORE PUSH1 0x40 DUP4 KECCAK256 DUP3 DUP5 MSTORE PUSH1 0x20 MSTORE PUSH1 0x40 DUP4 KECCAK256 PUSH1 0x1 PUSH1 0xFF NOT DUP3 SLOAD AND OR SWAP1 SSTORE PUSH0 DUP1 MLOAD PUSH1 0x20 PUSH2 0x1558 DUP4 CODECOPY DUP2 MLOAD SWAP2 MSTORE CALLER SWAP4 DUP1 LOG4 PUSH1 0x1 SWAP1 JUMP JUMPDEST POP POP SWAP1 JUMP INVALID PUSH1 0x80 DUP1 PUSH1 0x40 MSTORE PUSH1 0x4 CALLDATASIZE LT ISZERO PUSH2 0x12 JUMPI PUSH0 DUP1 REVERT JUMPDEST PUSH0 CALLDATALOAD PUSH1 0xE0 SHR SWAP1 DUP2 PUSH4 0x1FFC9A7 EQ PUSH2 0xF95 JUMPI POP DUP1 PUSH4 0x5C4FDF9 EQ PUSH2 0xE41 JUMPI DUP1 PUSH4 0xF4EF8A6 EQ PUSH2 0xE19 JUMPI DUP1 PUSH4 0x1E4966AB EQ PUSH2 0xDE0 JUMPI DUP1 PUSH4 0x2437769A EQ PUSH2 0xA96 JUMPI DUP1 PUSH4 0x248A9CA3 EQ PUSH2 0xA6A JUMPI DUP1 PUSH4 0x24A44EFB EQ PUSH2 0x993 JUMPI DUP1 PUSH4 0x2F2FF15D EQ PUSH2 0x957 JUMPI DUP1 PUSH4 0x36568ABE EQ PUSH2 0x910 JUMPI DUP1 PUSH4 0x56D73568 EQ PUSH2 0x8E9 JUMPI DUP1 PUSH4 0x5D102DF7 EQ PUSH2 0x812 JUMPI DUP1 PUSH4 0x7570E389 EQ PUSH2 0x772 JUMPI DUP1 PUSH4 0x7E72C7D7 EQ PUSH2 0x565 JUMPI DUP1 PUSH4 0x8A4ADF24 EQ PUSH2 0x53D JUMPI DUP1 PUSH4 0x91D14854 EQ PUSH2 0x4F5 JUMPI DUP1 PUSH4 0xA217FDDF EQ PUSH2 0x4DB JUMPI DUP1 PUSH4 0xA8D088BB EQ PUSH2 0x4A8 JUMPI DUP1 PUSH4 0xC489579D EQ PUSH2 0x315 JUMPI DUP1 PUSH4 0xD3E90FA0 EQ PUSH2 0x162 JUMPI DUP1 PUSH4 0xD3FFE67A EQ PUSH2 0x145 JUMPI PUSH4 0xD547741F EQ PUSH2 0x103 JUMPI PUSH0 DUP1 REVERT JUMPDEST CALLVALUE PUSH2 0x141 JUMPI PUSH1 0x40 CALLDATASIZE PUSH1 0x3 NOT ADD SLT PUSH2 0x141 JUMPI PUSH2 0x13F PUSH1 0x4 CALLDATALOAD PUSH2 0x122 PUSH2 0xFFE JUMP JUMPDEST SWAP1 DUP1 PUSH0 MSTORE PUSH0 PUSH1 0x20 MSTORE PUSH2 0x13A PUSH1 0x1 PUSH1 0x40 PUSH0 KECCAK256 ADD SLOAD PUSH2 0x1087 JUMP JUMPDEST PUSH2 0x11BD JUMP JUMPDEST STOP JUMPDEST PUSH0 DUP1 REVERT JUMPDEST CALLVALUE PUSH2 0x141 JUMPI PUSH0 CALLDATASIZE PUSH1 0x3 NOT ADD SLT PUSH2 0x141 JUMPI PUSH1 0x20 PUSH1 0x3 SLOAD PUSH1 0x40 MLOAD SWAP1 DUP2 MSTORE RETURN JUMPDEST CALLVALUE PUSH2 0x141 JUMPI PUSH1 0x20 CALLDATASIZE PUSH1 0x3 NOT ADD SLT PUSH2 0x141 JUMPI PUSH2 0x17B PUSH2 0xFE8 JUMP JUMPDEST PUSH0 PUSH2 0x120 PUSH1 0x40 MLOAD PUSH2 0x18B DUP2 PUSH2 0x1230 JUMP JUMPDEST DUP3 DUP2 MSTORE DUP3 PUSH1 0x20 DUP3 ADD MSTORE DUP3 PUSH1 0x40 DUP3 ADD MSTORE DUP3 PUSH1 0x60 DUP3 ADD MSTORE DUP3 PUSH1 0x80 DUP3 ADD MSTORE DUP3 PUSH1 0xA0 DUP3 ADD MSTORE DUP3 PUSH1 0xC0 DUP3 ADD MSTORE DUP3 PUSH1 0xE0 DUP3 ADD MSTORE DUP3 PUSH2 0x100 DUP3 ADD MSTORE ADD MSTORE PUSH1 0x1 DUP1 PUSH1 0xA0 SHL SUB AND DUP1 PUSH0 MSTORE PUSH1 0x4 PUSH1 0x20 MSTORE PUSH2 0x1E8 PUSH1 0x1 DUP1 PUSH1 0xA0 SHL SUB PUSH1 0x40 PUSH0 KECCAK256 SLOAD AND ISZERO ISZERO PUSH2 0x12B7 JUMP JUMPDEST PUSH0 MSTORE PUSH1 0x4 PUSH1 0x20 MSTORE PUSH2 0x140 PUSH1 0x40 PUSH0 KECCAK256 PUSH2 0x27E PUSH1 0xFF PUSH1 0x9 PUSH1 0x40 MLOAD SWAP4 PUSH2 0x20A DUP6 PUSH2 0x1230 JUMP JUMPDEST DUP1 SLOAD PUSH1 0x1 PUSH1 0x1 PUSH1 0xA0 SHL SUB SWAP1 DUP2 AND DUP7 MSTORE PUSH1 0x1 DUP3 ADD SLOAD DUP2 AND PUSH1 0x20 DUP8 ADD MSTORE PUSH1 0x2 DUP3 ADD SLOAD PUSH1 0x40 DUP8 ADD MSTORE PUSH1 0x3 DUP3 ADD SLOAD DUP2 AND PUSH1 0x60 DUP8 ADD MSTORE PUSH1 0x4 DUP3 ADD SLOAD DUP2 AND PUSH1 0x80 DUP8 ADD MSTORE PUSH1 0x5 DUP3 ADD SLOAD AND PUSH1 0xA0 DUP7 ADD MSTORE PUSH1 0x6 DUP2 ADD SLOAD PUSH1 0xC0 DUP7 ADD MSTORE PUSH1 0x7 DUP2 ADD SLOAD PUSH1 0xE0 DUP7 ADD MSTORE PUSH1 0x8 DUP2 ADD SLOAD PUSH2 0x100 DUP7 ADD MSTORE ADD SLOAD AND PUSH2 0x120 DUP4 ADD PUSH2 0x124D JUMP JUMPDEST PUSH2 0x313 PUSH2 0x120 PUSH1 0x40 MLOAD SWAP3 PUSH1 0x1 DUP1 PUSH1 0xA0 SHL SUB DUP2 MLOAD AND DUP5 MSTORE PUSH1 0x1 DUP1 PUSH1 0xA0 SHL SUB PUSH1 0x20 DUP3 ADD MLOAD AND PUSH1 0x20 DUP6 ADD MSTORE PUSH1 0x40 DUP2 ADD MLOAD PUSH1 0x40 DUP6 ADD MSTORE PUSH1 0x1 DUP1 PUSH1 0xA0 SHL SUB PUSH1 0x60 DUP3 ADD MLOAD AND PUSH1 0x60 DUP6 ADD MSTORE PUSH1 0x1 DUP1 PUSH1 0xA0 SHL SUB PUSH1 0x80 DUP3 ADD MLOAD AND PUSH1 0x80 DUP6 ADD MSTORE PUSH1 0x1 DUP1 PUSH1 0xA0 SHL SUB PUSH1 0xA0 DUP3 ADD MLOAD AND PUSH1 0xA0 DUP6 ADD MSTORE PUSH1 0xC0 DUP2 ADD MLOAD PUSH1 0xC0 DUP6 ADD MSTORE PUSH1 0xE0 DUP2 ADD MLOAD PUSH1 0xE0 DUP6 ADD MSTORE PUSH2 0x100 DUP2 ADD MLOAD PUSH2 0x100 DUP6 ADD MSTORE ADD MLOAD PUSH2 0x120 DUP4 ADD SWAP1 PUSH2 0x1014 JUMP JUMPDEST RETURN JUMPDEST CALLVALUE PUSH2 0x141 JUMPI PUSH1 0x40 CALLDATASIZE PUSH1 0x3 NOT ADD SLT PUSH2 0x141 JUMPI PUSH2 0x32E PUSH2 0xFE8 JUMP JUMPDEST PUSH2 0x336 PUSH2 0xFFE JUMP JUMPDEST CALLER PUSH0 SWAP1 DUP2 MSTORE PUSH32 0xAD3228B676F7D3CD4284A5443F17F1962B36E491B30A40B2405849E597BA5FB5 PUSH1 0x20 MSTORE PUSH1 0x40 SWAP1 KECCAK256 SLOAD PUSH1 0xFF AND ISZERO PUSH2 0x48A JUMPI PUSH1 0x1 PUSH1 0x1 PUSH1 0xA0 SHL SUB DUP3 DUP2 AND SWAP3 SWAP1 DUP4 ISZERO PUSH2 0x439 JUMPI DUP3 AND DUP1 ISZERO PUSH2 0x3E8 JUMPI PUSH1 0x1 DUP1 SLOAD PUSH1 0x1 PUSH1 0x1 PUSH1 0xA0 SHL SUB NOT SWAP1 DUP2 AND SWAP6 SWAP1 SWAP6 OR SWAP1 SSTORE PUSH1 0x2 DUP1 SLOAD SWAP1 SWAP5 AND OR SWAP1 SWAP3 SSTORE PUSH1 0x40 DUP1 MLOAD PUSH1 0x1 PUSH1 0x1 PUSH1 0xA0 SHL SUB SWAP4 DUP5 AND DUP2 MSTORE SWAP2 SWAP1 SWAP3 AND PUSH1 0x20 DUP3 ADD MSTORE PUSH32 0x8FC18CC172F74C81235145B7927190D2BD0E351FC45BFB17BB572593273CEF21 SWAP2 SWAP1 LOG1 STOP JUMPDEST PUSH1 0x40 MLOAD PUSH3 0x461BCD PUSH1 0xE5 SHL DUP2 MSTORE PUSH1 0x20 PUSH1 0x4 DUP3 ADD MSTORE PUSH1 0x24 DUP1 DUP3 ADD MSTORE PUSH32 0x5265776172644D616E616765722063616E6E6F74206265207A65726F20616464 PUSH1 0x44 DUP3 ADD MSTORE PUSH4 0x72657373 PUSH1 0xE0 SHL PUSH1 0x64 DUP3 ADD MSTORE PUSH1 0x84 SWAP1 REVERT JUMPDEST PUSH1 0x40 MLOAD PUSH3 0x461BCD PUSH1 0xE5 SHL DUP2 MSTORE PUSH1 0x20 PUSH1 0x4 DUP3 ADD MSTORE PUSH1 0x23 PUSH1 0x24 DUP3 ADD MSTORE PUSH32 0x5661756C744D616E616765722063616E6E6F74206265207A65726F2061646472 PUSH1 0x44 DUP3 ADD MSTORE PUSH3 0x657373 PUSH1 0xE8 SHL PUSH1 0x64 DUP3 ADD MSTORE PUSH1 0x84 SWAP1 REVERT JUMPDEST PUSH1 0x40 MLOAD PUSH4 0xE2517D3F PUSH1 0xE0 SHL DUP2 MSTORE CALLER PUSH1 0x4 DUP3 ADD MSTORE PUSH0 PUSH1 0x24 DUP3 ADD MSTORE PUSH1 0x44 SWAP1 REVERT JUMPDEST CALLVALUE PUSH2 0x141 JUMPI PUSH0 CALLDATASIZE PUSH1 0x3 NOT ADD SLT PUSH2 0x141 JUMPI PUSH1 0x1 SLOAD PUSH1 0x2 SLOAD PUSH1 0x40 DUP1 MLOAD PUSH1 0x1 PUSH1 0x1 PUSH1 0xA0 SHL SUB SWAP4 DUP5 AND DUP2 MSTORE SWAP3 SWAP1 SWAP2 AND PUSH1 0x20 DUP4 ADD MSTORE SWAP1 RETURN JUMPDEST CALLVALUE PUSH2 0x141 JUMPI PUSH0 CALLDATASIZE PUSH1 0x3 NOT ADD SLT PUSH2 0x141 JUMPI PUSH1 0x20 PUSH1 0x40 MLOAD PUSH0 DUP2 MSTORE RETURN JUMPDEST CALLVALUE PUSH2 0x141 JUMPI PUSH1 0x40 CALLDATASIZE PUSH1 0x3 NOT ADD SLT PUSH2 0x141 JUMPI PUSH2 0x50E PUSH2 0xFFE JUMP JUMPDEST PUSH1 0x4 CALLDATALOAD PUSH0 MSTORE PUSH0 PUSH1 0x20 MSTORE PUSH1 0x40 PUSH0 KECCAK256 SWAP1 PUSH1 0x1 DUP1 PUSH1 0xA0 SHL SUB AND PUSH0 MSTORE PUSH1 0x20 MSTORE PUSH1 0x20 PUSH1 0xFF PUSH1 0x40 PUSH0 KECCAK256 SLOAD AND PUSH1 0x40 MLOAD SWAP1 ISZERO ISZERO DUP2 MSTORE RETURN JUMPDEST CALLVALUE PUSH2 0x141 JUMPI PUSH0 CALLDATASIZE PUSH1 0x3 NOT ADD SLT PUSH2 0x141 JUMPI PUSH1 0x1 SLOAD PUSH1 0x40 MLOAD PUSH1 0x1 PUSH1 0x1 PUSH1 0xA0 SHL SUB SWAP1 SWAP2 AND DUP2 MSTORE PUSH1 0x20 SWAP1 RETURN JUMPDEST CALLVALUE PUSH2 0x141 JUMPI PUSH1 0x20 DUP1 PUSH1 0x3 NOT CALLDATASIZE ADD SLT PUSH2 0x141 JUMPI PUSH2 0x57F PUSH2 0xFE8 JUMP JUMPDEST SWAP1 PUSH2 0x588 PUSH2 0x1021 JUMP JUMPDEST PUSH1 0x1 DUP1 PUSH1 0xA0 SHL SUB SWAP1 DUP2 DUP4 AND SWAP3 DUP4 PUSH0 MSTORE PUSH1 0x4 DUP3 MSTORE PUSH2 0x5AC DUP4 PUSH1 0x40 PUSH0 KECCAK256 SLOAD AND ISZERO ISZERO PUSH2 0x12B7 JUMP JUMPDEST DUP4 PUSH0 MSTORE PUSH1 0x4 DUP3 MSTORE DUP3 PUSH1 0x40 PUSH0 KECCAK256 SLOAD AND DUP1 PUSH0 MSTORE PUSH1 0x5 SWAP4 DUP5 DUP5 MSTORE PUSH2 0x5D0 DUP4 PUSH1 0x40 PUSH0 KECCAK256 PUSH2 0x1361 JUMP JUMPDEST SWAP3 DUP3 PUSH0 MSTORE DUP6 DUP6 MSTORE PUSH1 0x40 PUSH0 KECCAK256 SLOAD SWAP3 PUSH0 NOT SWAP4 DUP5 DUP2 ADD SWAP1 DUP2 GT PUSH2 0x75E JUMPI PUSH2 0x618 SWAP6 DUP5 PUSH2 0x605 PUSH2 0x63F SWAP4 DUP6 PUSH0 MSTORE DUP12 DUP12 MSTORE PUSH1 0x40 PUSH0 KECCAK256 PUSH2 0x12A2 JUMP JUMPDEST SWAP9 SWAP1 SLOAD SWAP3 DUP6 PUSH0 MSTORE DUP12 DUP12 MSTORE PUSH1 0x40 PUSH0 KECCAK256 PUSH2 0x12A2 JUMP JUMPDEST SWAP2 SWAP1 SWAP3 PUSH1 0x3 SWAP10 DUP11 SHL SHR AND SWAP1 DUP3 SLOAD SWAP1 PUSH1 0x3 SHL SWAP2 PUSH1 0x1 DUP1 PUSH1 0xA0 SHL SUB DUP1 SWAP2 AND DUP4 SHL SWAP3 SHL NOT AND OR SWAP1 SSTORE JUMP JUMPDEST PUSH0 MSTORE DUP6 DUP6 MSTORE PUSH1 0x40 PUSH0 KECCAK256 SWAP1 DUP2 SLOAD SWAP2 DUP3 ISZERO PUSH2 0x74A JUMPI DUP5 PUSH2 0x681 SWAP4 ADD SWAP1 PUSH2 0x67B PUSH2 0x666 DUP4 DUP4 PUSH2 0x12A2 JUMP JUMPDEST DUP2 SLOAD SWAP1 PUSH1 0x1 DUP1 PUSH1 0xA0 SHL SUB SWAP1 PUSH1 0x3 SHL SHL NOT AND SWAP1 SSTORE JUMP JUMPDEST SSTORE PUSH2 0x12F9 JUMP JUMPDEST DUP4 SLOAD DUP4 DUP2 ADD SWAP1 DUP2 GT PUSH2 0x75E JUMPI PUSH2 0x6C9 SWAP3 PUSH2 0x69D PUSH2 0x6AA SWAP3 PUSH2 0x1259 JUMP JUMPDEST SWAP1 SLOAD SWAP1 DUP8 SHL SHR AND SWAP2 PUSH2 0x1259 JUMP JUMPDEST SWAP1 SWAP2 SWAP1 DUP3 SLOAD SWAP1 PUSH1 0x3 SHL SWAP2 PUSH1 0x1 DUP1 PUSH1 0xA0 SHL SUB DUP1 SWAP2 AND DUP4 SHL SWAP3 SHL NOT AND OR SWAP1 SSTORE JUMP JUMPDEST DUP2 SLOAD SWAP4 DUP5 ISZERO PUSH2 0x74A JUMPI PUSH1 0x4 PUSH1 0x9 SWAP5 PUSH0 SWAP7 SWAP4 DUP8 SWAP5 ADD PUSH2 0x6E9 PUSH2 0x666 DUP3 PUSH2 0x1259 JUMP JUMPDEST DUP6 SSTORE DUP8 DUP5 MSTORE MSTORE DUP2 PUSH1 0x40 DUP2 KECCAK256 SWAP4 DUP2 DUP6 SSTORE DUP2 PUSH1 0x1 DUP7 ADD SSTORE DUP2 PUSH1 0x2 DUP7 ADD SSTORE DUP5 ADD SSTORE DUP2 PUSH1 0x4 DUP5 ADD SSTORE DUP3 ADD SSTORE DUP3 PUSH1 0x6 DUP3 ADD SSTORE DUP3 PUSH1 0x7 DUP3 ADD SSTORE DUP3 PUSH1 0x8 DUP3 ADD SSTORE ADD SSTORE PUSH32 0x334D0B2111287DFDDEBE4B4C1C5AF3AE644909D7FCD024377BF601E236ED5ABB PUSH0 DUP1 LOG2 STOP JUMPDEST PUSH4 0x4E487B71 PUSH1 0xE0 SHL PUSH0 MSTORE PUSH1 0x31 PUSH1 0x4 MSTORE PUSH1 0x24 PUSH0 REVERT JUMPDEST PUSH4 0x4E487B71 PUSH1 0xE0 SHL PUSH0 MSTORE PUSH1 0x11 PUSH1 0x4 MSTORE PUSH1 0x24 PUSH0 REVERT JUMPDEST CALLVALUE PUSH2 0x141 JUMPI PUSH1 0x20 CALLDATASIZE PUSH1 0x3 NOT ADD SLT PUSH2 0x141 JUMPI PUSH1 0x1 PUSH1 0x1 PUSH1 0xA0 SHL SUB DUP1 PUSH2 0x794 PUSH2 0xFE8 JUMP JUMPDEST AND SWAP1 DUP2 PUSH0 MSTORE PUSH1 0x6 PUSH1 0x20 MSTORE DUP1 PUSH1 0x40 PUSH0 KECCAK256 SLOAD AND ISZERO PUSH2 0x7C1 JUMPI PUSH1 0x20 SWAP2 PUSH0 MSTORE PUSH1 0x6 DUP3 MSTORE PUSH1 0x40 PUSH0 KECCAK256 SLOAD AND PUSH1 0x40 MLOAD SWAP1 DUP2 MSTORE RETURN JUMPDEST PUSH1 0x40 MLOAD PUSH3 0x461BCD PUSH1 0xE5 SHL DUP2 MSTORE PUSH1 0x20 PUSH1 0x4 DUP3 ADD MSTORE PUSH1 0x23 PUSH1 0x24 DUP3 ADD MSTORE PUSH32 0x506F6F6C206E6F742072656769737465726564206F7220686173206E6F207661 PUSH1 0x44 DUP3 ADD MSTORE PUSH3 0x1D5B1D PUSH1 0xEA SHL PUSH1 0x64 DUP3 ADD MSTORE PUSH1 0x84 SWAP1 REVERT JUMPDEST CALLVALUE PUSH2 0x141 JUMPI PUSH1 0x20 CALLDATASIZE PUSH1 0x3 NOT ADD SLT PUSH2 0x141 JUMPI PUSH2 0x82B PUSH2 0xFE8 JUMP JUMPDEST CALLER PUSH0 SWAP1 DUP2 MSTORE PUSH32 0xAD3228B676F7D3CD4284A5443F17F1962B36E491B30A40B2405849E597BA5FB5 PUSH1 0x20 MSTORE PUSH1 0x40 SWAP1 KECCAK256 SLOAD PUSH1 0xFF AND ISZERO PUSH2 0x8AB JUMPI PUSH0 DUP1 MLOAD PUSH1 0x20 PUSH2 0x13B8 DUP4 CODECOPY DUP2 MLOAD SWAP2 MSTORE PUSH0 SWAP1 DUP2 MSTORE PUSH1 0x20 MSTORE PUSH32 0x729EF9451DD492832BD2A98139702CED95DFA0CEC7E99526DBBCB957ABCBC477 SLOAD PUSH2 0x13F SWAP2 SWAP1 PUSH2 0x8A6 SWAP1 PUSH2 0x1087 JUMP JUMPDEST PUSH2 0x10A8 JUMP JUMPDEST PUSH1 0x40 MLOAD PUSH3 0x461BCD PUSH1 0xE5 SHL DUP2 MSTORE PUSH1 0x20 PUSH1 0x4 DUP3 ADD MSTORE PUSH1 0x16 PUSH1 0x24 DUP3 ADD MSTORE PUSH22 0x21B0B63632B91034B9903737BA1030B71030B236B4B7 PUSH1 0x51 SHL PUSH1 0x44 DUP3 ADD MSTORE PUSH1 0x64 SWAP1 REVERT JUMPDEST CALLVALUE PUSH2 0x141 JUMPI PUSH0 CALLDATASIZE PUSH1 0x3 NOT ADD SLT PUSH2 0x141 JUMPI PUSH1 0x20 PUSH1 0x40 MLOAD PUSH0 DUP1 MLOAD PUSH1 0x20 PUSH2 0x13B8 DUP4 CODECOPY DUP2 MLOAD SWAP2 MSTORE DUP2 MSTORE RETURN JUMPDEST CALLVALUE PUSH2 0x141 JUMPI PUSH1 0x40 CALLDATASIZE PUSH1 0x3 NOT ADD SLT PUSH2 0x141 JUMPI PUSH2 0x929 PUSH2 0xFFE JUMP JUMPDEST CALLER PUSH1 0x1 PUSH1 0x1 PUSH1 0xA0 SHL SUB DUP3 AND SUB PUSH2 0x945 JUMPI PUSH2 0x13F SWAP1 PUSH1 0x4 CALLDATALOAD PUSH2 0x11BD JUMP JUMPDEST PUSH1 0x40 MLOAD PUSH4 0x334BD919 PUSH1 0xE1 SHL DUP2 MSTORE PUSH1 0x4 SWAP1 REVERT JUMPDEST CALLVALUE PUSH2 0x141 JUMPI PUSH1 0x40 CALLDATASIZE PUSH1 0x3 NOT ADD SLT PUSH2 0x141 JUMPI PUSH2 0x13F PUSH1 0x4 CALLDATALOAD PUSH2 0x976 PUSH2 0xFFE JUMP JUMPDEST SWAP1 DUP1 PUSH0 MSTORE PUSH0 PUSH1 0x20 MSTORE PUSH2 0x98E PUSH1 0x1 PUSH1 0x40 PUSH0 KECCAK256 ADD SLOAD PUSH2 0x1087 JUMP JUMPDEST PUSH2 0x1146 JUMP JUMPDEST CALLVALUE PUSH2 0x141 JUMPI PUSH1 0x20 DUP1 PUSH1 0x3 NOT CALLDATASIZE ADD SLT PUSH2 0x141 JUMPI PUSH1 0x1 PUSH1 0x1 PUSH1 0xA0 SHL SUB SWAP1 DUP2 PUSH2 0x9B7 PUSH2 0xFE8 JUMP JUMPDEST AND PUSH0 MSTORE PUSH1 0x5 DUP2 MSTORE PUSH1 0x40 PUSH0 KECCAK256 PUSH1 0x40 MLOAD DUP1 DUP4 DUP4 SLOAD SWAP2 DUP3 DUP2 MSTORE ADD SWAP1 DUP2 SWAP4 PUSH0 MSTORE DUP5 PUSH0 KECCAK256 SWAP1 PUSH0 JUMPDEST DUP7 DUP3 DUP3 LT PUSH2 0xA54 JUMPI POP POP POP POP DUP2 SWAP1 SUB PUSH1 0x1F ADD PUSH1 0x1F NOT AND DUP2 ADD SWAP3 PUSH8 0xFFFFFFFFFFFFFFFF DUP5 GT DUP3 DUP6 LT OR PUSH2 0xA40 JUMPI SWAP1 DUP4 PUSH1 0x40 MSTORE DUP2 DUP5 ADD SWAP1 DUP3 DUP6 MSTORE MLOAD DUP1 SWAP2 MSTORE PUSH1 0x40 DUP5 ADD SWAP3 SWAP2 PUSH0 JUMPDEST DUP3 DUP2 LT PUSH2 0xA2A JUMPI DUP6 DUP6 SUB DUP7 RETURN JUMPDEST DUP4 MLOAD DUP8 AND DUP6 MSTORE SWAP4 DUP2 ADD SWAP4 SWAP3 DUP2 ADD SWAP3 PUSH1 0x1 ADD PUSH2 0xA1D JUMP JUMPDEST PUSH4 0x4E487B71 PUSH1 0xE0 SHL PUSH0 MSTORE PUSH1 0x41 PUSH1 0x4 MSTORE PUSH1 0x24 PUSH0 REVERT JUMPDEST DUP4 SLOAD DUP10 AND DUP6 MSTORE SWAP1 SWAP4 ADD SWAP3 PUSH1 0x1 SWAP3 DUP4 ADD SWAP3 ADD PUSH2 0x9D9 JUMP JUMPDEST CALLVALUE PUSH2 0x141 JUMPI PUSH1 0x20 CALLDATASIZE PUSH1 0x3 NOT ADD SLT PUSH2 0x141 JUMPI PUSH1 0x4 CALLDATALOAD PUSH0 MSTORE PUSH0 PUSH1 0x20 MSTORE PUSH1 0x20 PUSH1 0x1 PUSH1 0x40 PUSH0 KECCAK256 ADD SLOAD PUSH1 0x40 MLOAD SWAP1 DUP2 MSTORE RETURN JUMPDEST CALLVALUE PUSH2 0x141 JUMPI PUSH2 0x140 CALLDATASIZE PUSH1 0x3 NOT ADD SLT PUSH2 0x141 JUMPI PUSH2 0xAB0 PUSH2 0xFE8 JUMP JUMPDEST PUSH2 0xAB8 PUSH2 0xFFE JUMP JUMPDEST SWAP1 PUSH1 0x44 CALLDATALOAD PUSH1 0x1 PUSH1 0x1 PUSH1 0xA0 SHL SUB DUP2 AND DUP2 SUB PUSH2 0x141 JUMPI PUSH1 0x64 CALLDATALOAD SWAP1 PUSH1 0x1 PUSH1 0x1 PUSH1 0xA0 SHL SUB DUP3 AND DUP3 SUB PUSH2 0x141 JUMPI PUSH1 0x84 CALLDATALOAD PUSH1 0x1 PUSH1 0x1 PUSH1 0xA0 SHL SUB DUP2 AND DUP2 SUB PUSH2 0x141 JUMPI PUSH1 0xA4 CALLDATALOAD PUSH1 0x1 PUSH1 0x1 PUSH1 0xA0 SHL SUB DUP2 AND DUP2 SUB PUSH2 0x141 JUMPI PUSH1 0x2 PUSH2 0x124 CALLDATALOAD LT ISZERO PUSH2 0x141 JUMPI PUSH2 0xB1A PUSH2 0x1021 JUMP JUMPDEST PUSH1 0x1 PUSH1 0x1 PUSH1 0xA0 SHL SUB DUP6 AND ISZERO PUSH2 0xD9B JUMPI PUSH1 0x1 PUSH1 0x1 PUSH1 0xA0 SHL SUB DUP6 DUP2 AND PUSH0 SWAP1 DUP2 MSTORE PUSH1 0x4 PUSH1 0x20 MSTORE PUSH1 0x40 SWAP1 KECCAK256 SLOAD AND PUSH2 0xD56 JUMPI PUSH1 0x40 MLOAD SWAP2 PUSH2 0xB54 DUP4 PUSH2 0x1230 JUMP JUMPDEST PUSH1 0x1 PUSH1 0x1 PUSH1 0xA0 SHL SUB DUP8 DUP2 AND DUP5 MSTORE DUP5 DUP2 AND PUSH1 0x20 DUP6 ADD MSTORE TIMESTAMP PUSH1 0x40 DUP6 ADD MSTORE DUP6 DUP2 AND PUSH1 0x60 DUP6 ADD MSTORE SWAP1 DUP2 AND PUSH1 0x80 DUP5 ADD MSTORE AND PUSH1 0xA0 DUP3 ADD MSTORE PUSH1 0xC4 CALLDATALOAD PUSH1 0xC0 DUP3 ADD MSTORE PUSH1 0xE4 CALLDATALOAD PUSH1 0xE0 DUP3 ADD MSTORE PUSH2 0x104 CALLDATALOAD PUSH2 0x100 DUP3 ADD MSTORE PUSH2 0xBB0 PUSH2 0x124 CALLDATALOAD PUSH2 0x120 DUP4 ADD PUSH2 0x124D JUMP JUMPDEST PUSH1 0x1 DUP1 PUSH1 0xA0 SHL SUB DUP5 AND PUSH0 MSTORE PUSH1 0x4 PUSH1 0x20 MSTORE PUSH2 0x120 PUSH1 0x9 PUSH1 0x40 PUSH0 KECCAK256 PUSH1 0x1 DUP1 PUSH1 0xA0 SHL SUB DUP5 MLOAD AND PUSH12 0xFFFFFFFFFFFFFFFFFFFFFFFF PUSH1 0xA0 SHL SWAP1 DUP2 DUP4 SLOAD AND OR DUP3 SSTORE PUSH1 0x1 DUP3 ADD PUSH1 0x1 DUP1 PUSH1 0xA0 SHL SUB PUSH1 0x20 DUP8 ADD MLOAD AND DUP3 DUP3 SLOAD AND OR SWAP1 SSTORE PUSH1 0x40 DUP6 ADD MLOAD PUSH1 0x2 DUP4 ADD SSTORE PUSH1 0x3 DUP3 ADD PUSH1 0x1 DUP1 PUSH1 0xA0 SHL SUB PUSH1 0x60 DUP8 ADD MLOAD AND DUP3 DUP3 SLOAD AND OR SWAP1 SSTORE PUSH1 0x4 DUP3 ADD PUSH1 0x1 DUP1 PUSH1 0xA0 SHL SUB PUSH1 0x80 DUP8 ADD MLOAD AND DUP3 DUP3 SLOAD AND OR SWAP1 SSTORE PUSH1 0x5 DUP3 ADD SWAP1 PUSH1 0x1 DUP1 PUSH1 0xA0 SHL SUB PUSH1 0xA0 DUP8 ADD MLOAD AND SWAP1 DUP3 SLOAD AND OR SWAP1 SSTORE PUSH1 0xC0 DUP5 ADD MLOAD PUSH1 0x6 DUP3 ADD SSTORE PUSH1 0xE0 DUP5 ADD MLOAD PUSH1 0x7 DUP3 ADD SSTORE PUSH2 0x100 DUP5 ADD MLOAD PUSH1 0x8 DUP3 ADD SSTORE ADD SWAP2 ADD MLOAD PUSH1 0x2 DUP2 LT ISZERO PUSH2 0xD42 JUMPI PUSH1 0xFF DUP1 NOT DUP4 SLOAD AND SWAP2 AND OR SWAP1 SSTORE PUSH1 0x1 DUP1 PUSH1 0xA0 SHL SUB DUP5 AND PUSH0 MSTORE PUSH1 0x5 PUSH1 0x20 MSTORE PUSH1 0x40 PUSH0 KECCAK256 DUP1 SLOAD SWAP1 PUSH9 0x10000000000000000 SWAP2 DUP3 DUP2 LT ISZERO PUSH2 0xA40 JUMPI PUSH2 0x6AA DUP2 PUSH2 0xCCC SWAP4 PUSH1 0x1 DUP10 SWAP5 ADD DUP2 SSTORE PUSH2 0x12A2 JUMP JUMPDEST PUSH1 0x3 SLOAD SWAP1 DUP2 LT ISZERO PUSH2 0xA40 JUMPI PUSH32 0x8F723E49DC038E67C41B41307A1E0C65653D50125A0C474A21AC32D9A0B24D2B SWAP2 PUSH2 0xD0F DUP6 PUSH2 0x6AA DUP5 PUSH1 0x1 PUSH1 0x40 SWAP7 ADD PUSH1 0x3 SSTORE PUSH2 0x1259 JUMP JUMPDEST DUP2 MLOAD PUSH1 0x1 PUSH1 0x1 PUSH1 0xA0 SHL SUB SWAP1 SWAP5 AND DUP5 MSTORE PUSH2 0xD2E PUSH1 0x20 DUP6 ADD PUSH2 0x124 CALLDATALOAD PUSH2 0x1014 JUMP JUMPDEST PUSH1 0x1 PUSH1 0x1 PUSH1 0xA0 SHL SUB SWAP1 DUP2 AND SWAP6 DUP2 AND SWAP5 AND SWAP3 LOG4 STOP JUMPDEST PUSH4 0x4E487B71 PUSH1 0xE0 SHL PUSH0 MSTORE PUSH1 0x21 PUSH1 0x4 MSTORE PUSH1 0x24 PUSH0 REVERT JUMPDEST PUSH1 0x40 MLOAD PUSH3 0x461BCD PUSH1 0xE5 SHL DUP2 MSTORE PUSH1 0x20 PUSH1 0x4 DUP3 ADD MSTORE PUSH1 0x17 PUSH1 0x24 DUP3 ADD MSTORE PUSH32 0x506F6F6C20616C72656164792072656769737465726564000000000000000000 PUSH1 0x44 DUP3 ADD MSTORE PUSH1 0x64 SWAP1 REVERT JUMPDEST PUSH1 0x40 MLOAD PUSH3 0x461BCD PUSH1 0xE5 SHL DUP2 MSTORE PUSH1 0x20 PUSH1 0x4 DUP3 ADD MSTORE PUSH1 0x1B PUSH1 0x24 DUP3 ADD MSTORE PUSH32 0x506F6F6C20616464726573732063616E6E6F74206265207A65726F0000000000 PUSH1 0x44 DUP3 ADD MSTORE PUSH1 0x64 SWAP1 REVERT JUMPDEST CALLVALUE PUSH2 0x141 JUMPI PUSH1 0x20 CALLDATASIZE PUSH1 0x3 NOT ADD SLT PUSH2 0x141 JUMPI PUSH1 0x20 PUSH1 0x1 PUSH1 0x1 PUSH1 0xA0 SHL SUB DUP1 PUSH2 0xE04 PUSH2 0xFE8 JUMP JUMPDEST AND PUSH0 MSTORE PUSH1 0x6 DUP3 MSTORE PUSH1 0x40 PUSH0 KECCAK256 SLOAD AND PUSH1 0x40 MLOAD SWAP1 DUP2 MSTORE RETURN JUMPDEST CALLVALUE PUSH2 0x141 JUMPI PUSH0 CALLDATASIZE PUSH1 0x3 NOT ADD SLT PUSH2 0x141 JUMPI PUSH1 0x2 SLOAD PUSH1 0x40 MLOAD PUSH1 0x1 PUSH1 0x1 PUSH1 0xA0 SHL SUB SWAP1 SWAP2 AND DUP2 MSTORE PUSH1 0x20 SWAP1 RETURN JUMPDEST CALLVALUE PUSH2 0x141 JUMPI PUSH1 0x40 CALLDATASIZE PUSH1 0x3 NOT ADD SLT PUSH2 0x141 JUMPI PUSH2 0xE5A PUSH2 0xFE8 JUMP JUMPDEST PUSH2 0xE62 PUSH2 0xFFE JUMP JUMPDEST SWAP1 PUSH2 0xE6B PUSH2 0x1021 JUMP JUMPDEST PUSH1 0x1 PUSH1 0x1 PUSH1 0xA0 SHL SUB SWAP1 DUP2 AND SWAP1 DUP2 ISZERO ISZERO DUP1 PUSH2 0xF8A JUMPI JUMPDEST ISZERO PUSH2 0xF51 JUMPI DUP2 PUSH0 MSTORE PUSH1 0x4 PUSH1 0x20 MSTORE PUSH2 0xE9E DUP2 PUSH1 0x40 PUSH0 KECCAK256 SLOAD AND ISZERO ISZERO PUSH2 0x12B7 JUMP JUMPDEST DUP2 PUSH0 MSTORE PUSH1 0x6 PUSH1 0x20 MSTORE DUP1 PUSH1 0x40 PUSH0 KECCAK256 SLOAD AND PUSH2 0xEFD JUMPI DUP2 PUSH0 MSTORE PUSH1 0x6 PUSH1 0x20 MSTORE PUSH1 0x40 PUSH0 KECCAK256 SWAP3 AND SWAP2 DUP3 PUSH12 0xFFFFFFFFFFFFFFFFFFFFFFFF PUSH1 0xA0 SHL DUP3 SLOAD AND OR SWAP1 SSTORE PUSH32 0xF8EE9039D8E4D43426638703C71517008894FDEA742BB2D2DBFF5A46FB07ABDB PUSH0 DUP1 LOG3 STOP JUMPDEST PUSH1 0x40 MLOAD PUSH3 0x461BCD PUSH1 0xE5 SHL DUP2 MSTORE PUSH1 0x20 PUSH1 0x4 DUP3 ADD MSTORE PUSH1 0x26 PUSH1 0x24 DUP3 ADD MSTORE PUSH32 0x5661756C7420616C7265616479207265676973746572656420666F7220746869 PUSH1 0x44 DUP3 ADD MSTORE PUSH6 0x1CC81C1BDBDB PUSH1 0xD2 SHL PUSH1 0x64 DUP3 ADD MSTORE PUSH1 0x84 SWAP1 REVERT JUMPDEST PUSH1 0x40 MLOAD PUSH3 0x461BCD PUSH1 0xE5 SHL DUP2 MSTORE PUSH1 0x20 PUSH1 0x4 DUP3 ADD MSTORE PUSH1 0x11 PUSH1 0x24 DUP3 ADD MSTORE PUSH17 0x496E76616C696420616464726573736573 PUSH1 0x78 SHL PUSH1 0x44 DUP3 ADD MSTORE PUSH1 0x64 SWAP1 REVERT JUMPDEST POP DUP1 DUP4 AND ISZERO ISZERO PUSH2 0xE80 JUMP JUMPDEST CALLVALUE PUSH2 0x141 JUMPI PUSH1 0x20 CALLDATASIZE PUSH1 0x3 NOT ADD SLT PUSH2 0x141 JUMPI PUSH1 0x4 CALLDATALOAD SWAP1 PUSH4 0xFFFFFFFF PUSH1 0xE0 SHL DUP3 AND DUP1 SWAP3 SUB PUSH2 0x141 JUMPI PUSH1 0x20 SWAP2 PUSH4 0x7965DB0B PUSH1 0xE0 SHL DUP2 EQ SWAP1 DUP2 ISZERO PUSH2 0xFD7 JUMPI JUMPDEST POP ISZERO ISZERO DUP2 MSTORE RETURN JUMPDEST PUSH4 0x1FFC9A7 PUSH1 0xE0 SHL EQ SWAP1 POP DUP4 PUSH2 0xFD0 JUMP JUMPDEST PUSH1 0x4 CALLDATALOAD SWAP1 PUSH1 0x1 PUSH1 0x1 PUSH1 0xA0 SHL SUB DUP3 AND DUP3 SUB PUSH2 0x141 JUMPI JUMP JUMPDEST PUSH1 0x24 CALLDATALOAD SWAP1 PUSH1 0x1 PUSH1 0x1 PUSH1 0xA0 SHL SUB DUP3 AND DUP3 SUB PUSH2 0x141 JUMPI JUMP JUMPDEST SWAP1 PUSH1 0x2 DUP3 LT ISZERO PUSH2 0xD42 JUMPI MSTORE JUMP JUMPDEST CALLER PUSH0 SWAP1 DUP2 MSTORE PUSH32 0x729EF9451DD492832BD2A98139702CED95DFA0CEC7E99526DBBCB957ABCBC476 PUSH1 0x20 MSTORE PUSH1 0x40 SWAP1 KECCAK256 SLOAD PUSH0 DUP1 MLOAD PUSH1 0x20 PUSH2 0x13B8 DUP4 CODECOPY DUP2 MLOAD SWAP2 MSTORE SWAP1 PUSH1 0xFF AND ISZERO PUSH2 0x1069 JUMPI POP JUMP JUMPDEST PUSH1 0x44 SWAP1 PUSH1 0x40 MLOAD SWAP1 PUSH4 0xE2517D3F PUSH1 0xE0 SHL DUP3 MSTORE CALLER PUSH1 0x4 DUP4 ADD MSTORE PUSH1 0x24 DUP3 ADD MSTORE REVERT JUMPDEST DUP1 PUSH0 MSTORE PUSH0 PUSH1 0x20 MSTORE PUSH1 0x40 PUSH0 KECCAK256 CALLER PUSH0 MSTORE PUSH1 0x20 MSTORE PUSH1 0xFF PUSH1 0x40 PUSH0 KECCAK256 SLOAD AND ISZERO PUSH2 0x1069 JUMPI POP JUMP JUMPDEST PUSH1 0x1 PUSH1 0x1 PUSH1 0xA0 SHL SUB AND PUSH0 DUP2 DUP2 MSTORE PUSH32 0x729EF9451DD492832BD2A98139702CED95DFA0CEC7E99526DBBCB957ABCBC476 PUSH1 0x20 MSTORE PUSH1 0x40 DUP2 KECCAK256 SLOAD SWAP1 SWAP2 SWAP1 PUSH0 DUP1 MLOAD PUSH1 0x20 PUSH2 0x13B8 DUP4 CODECOPY DUP2 MLOAD SWAP2 MSTORE SWAP1 PUSH1 0xFF AND PUSH2 0x1141 JUMPI DUP1 DUP4 MSTORE DUP3 PUSH1 0x20 MSTORE PUSH1 0x40 DUP4 KECCAK256 DUP3 DUP5 MSTORE PUSH1 0x20 MSTORE PUSH1 0x40 DUP4 KECCAK256 PUSH1 0x1 PUSH1 0xFF NOT DUP3 SLOAD AND OR SWAP1 SSTORE PUSH32 0x2F8788117E7EFF1D82E926EC794901D17C78024A50270940304540A733656F0D CALLER SWAP4 DUP1 LOG4 PUSH1 0x1 SWAP1 JUMP JUMPDEST POP POP SWAP1 JUMP JUMPDEST SWAP1 PUSH0 SWAP2 DUP1 DUP4 MSTORE DUP3 PUSH1 0x20 MSTORE PUSH1 0x40 DUP4 KECCAK256 SWAP2 PUSH1 0x1 DUP1 PUSH1 0xA0 SHL SUB AND SWAP2 DUP3 DUP5 MSTORE PUSH1 0x20 MSTORE PUSH1 0xFF PUSH1 0x40 DUP5 KECCAK256 SLOAD AND ISZERO PUSH0 EQ PUSH2 0x1141 JUMPI DUP1 DUP4 MSTORE DUP3 PUSH1 0x20 MSTORE PUSH1 0x40 DUP4 KECCAK256 DUP3 DUP5 MSTORE PUSH1 0x20 MSTORE PUSH1 0x40 DUP4 KECCAK256 PUSH1 0x1 PUSH1 0xFF NOT DUP3 SLOAD AND OR SWAP1 SSTORE PUSH32 0x2F8788117E7EFF1D82E926EC794901D17C78024A50270940304540A733656F0D CALLER SWAP4 DUP1 LOG4 PUSH1 0x1 SWAP1 JUMP JUMPDEST SWAP1 PUSH0 SWAP2 DUP1 DUP4 MSTORE DUP3 PUSH1 0x20 MSTORE PUSH1 0x40 DUP4 KECCAK256 SWAP2 PUSH1 0x1 DUP1 PUSH1 0xA0 SHL SUB AND SWAP2 DUP3 DUP5 MSTORE PUSH1 0x20 MSTORE PUSH1 0xFF PUSH1 0x40 DUP5 KECCAK256 SLOAD AND PUSH0 EQ PUSH2 0x1141 JUMPI DUP1 DUP4 MSTORE DUP3 PUSH1 0x20 MSTORE PUSH1 0x40 DUP4 KECCAK256 DUP3 DUP5 MSTORE PUSH1 0x20 MSTORE PUSH1 0x40 DUP4 KECCAK256 PUSH1 0xFF NOT DUP2 SLOAD AND SWAP1 SSTORE PUSH32 0xF6391F5C32D9C69D2A47EA670B442974B53935D1EDC7FD64EB21E047A839171B CALLER SWAP4 DUP1 LOG4 PUSH1 0x1 SWAP1 JUMP JUMPDEST PUSH2 0x140 DUP2 ADD SWAP1 DUP2 LT PUSH8 0xFFFFFFFFFFFFFFFF DUP3 GT OR PUSH2 0xA40 JUMPI PUSH1 0x40 MSTORE JUMP JUMPDEST PUSH1 0x2 DUP3 LT ISZERO PUSH2 0xD42 JUMPI MSTORE JUMP JUMPDEST PUSH1 0x3 SLOAD DUP2 LT ISZERO PUSH2 0x128E JUMPI PUSH1 0x3 PUSH0 MSTORE PUSH32 0xC2575A0E9E593C00F959F8C92F12DB2869C3395A3B0502D05E2516446F71F85B ADD SWAP1 PUSH0 SWAP1 JUMP JUMPDEST PUSH4 0x4E487B71 PUSH1 0xE0 SHL PUSH0 MSTORE PUSH1 0x32 PUSH1 0x4 MSTORE PUSH1 0x24 PUSH0 REVERT JUMPDEST DUP1 SLOAD DUP3 LT ISZERO PUSH2 0x128E JUMPI PUSH0 MSTORE PUSH1 0x20 PUSH0 KECCAK256 ADD SWAP1 PUSH0 SWAP1 JUMP JUMPDEST ISZERO PUSH2 0x12BE JUMPI JUMP JUMPDEST PUSH1 0x40 MLOAD PUSH3 0x461BCD PUSH1 0xE5 SHL DUP2 MSTORE PUSH1 0x20 PUSH1 0x4 DUP3 ADD MSTORE PUSH1 0x13 PUSH1 0x24 DUP3 ADD MSTORE PUSH19 0x141BDBDB081B9BDD081C9959DA5CDD195C9959 PUSH1 0x6A SHL PUSH1 0x44 DUP3 ADD MSTORE PUSH1 0x64 SWAP1 REVERT JUMPDEST PUSH0 DUP1 SWAP2 PUSH1 0x3 DUP1 SLOAD SWAP4 JUMPDEST DUP5 DUP2 LT PUSH2 0x1313 JUMPI POP POP POP POP POP PUSH0 NOT SWAP1 JUMP JUMPDEST PUSH2 0x131C DUP2 PUSH2 0x1259 JUMP JUMPDEST SWAP1 SLOAD SWAP1 DUP4 SHL SHR PUSH1 0x1 PUSH1 0x1 PUSH1 0xA0 SHL SUB SWAP1 DUP2 AND SWAP1 DUP5 AND EQ PUSH2 0x1359 JUMPI PUSH0 NOT DUP2 EQ PUSH2 0x1345 JUMPI PUSH1 0x1 ADD PUSH2 0x1302 JUMP JUMPDEST PUSH4 0x4E487B71 PUSH1 0xE0 SHL DUP5 MSTORE PUSH1 0x11 PUSH1 0x4 MSTORE PUSH1 0x24 DUP5 REVERT JUMPDEST SWAP4 POP POP POP POP SWAP1 JUMP JUMPDEST SWAP2 PUSH0 SWAP2 DUP3 JUMPDEST DUP5 SLOAD DUP2 LT ISZERO PUSH2 0x13AD JUMPI PUSH2 0x1379 DUP2 DUP7 PUSH2 0x12A2 JUMP JUMPDEST SWAP1 SLOAD PUSH1 0x3 SWAP2 SWAP1 SWAP2 SHL SHR PUSH1 0x1 PUSH1 0x1 PUSH1 0xA0 SHL SUB SWAP1 DUP2 AND SWAP1 DUP4 AND EQ PUSH2 0x13A5 JUMPI PUSH0 NOT DUP2 EQ PUSH2 0x1345 JUMPI PUSH1 0x1 ADD PUSH2 0x1366 JUMP JUMPDEST SWAP3 POP POP SWAP2 POP SWAP1 JUMP JUMPDEST POP POP SWAP2 POP POP PUSH0 NOT SWAP1 JUMP INVALID PUSH1 0x77 PUSH9 0x5936C8169D09204A1D SWAP8 0xDB SLT 0xE4 OR SGT PC DUP13 CODESIZE 0xE1 0xD2 SWAP11 PUSH2 0x867D RETURNDATASIZE 0xCE 0xE9 DUP11 SELFDESTRUCT LOG2 PUSH5 0x6970667358 0x22 SLT KECCAK256 PUSH18 0xF6C4A674F381B3CA6656CE44AFD24295AE72 PUSH14 0x8CEA574F6CE126B243CD75936473 PUSH16 0x6C634300081400332F8788117E7EFF1D DUP3 0xE9 0x26 0xEC PUSH26 0x4901D17C78024A50270940304540A733656F0D00000000000000 "
				},
				"gasEstimates": {
					"creation": {
						"codeDepositCost": "1026600",
						"executionCost": "infinite",
						"totalCost": "infinite"
					},
					"external": {
						"DEFAULT_ADMIN_ROLE()": "482",
						"POOL_MANAGER_ROLE()": "383",
						"deregisterPool(address)": "infinite",
						"getManagers()": "4762",
						"getPoolDetails(address)": "infinite",
						"getPoolsByLender(address)": "infinite",
						"getRoleAdmin(bytes32)": "2436",
						"getTotalPools()": "2674",
						"getVaultForPool(address)": "4846",
						"grantFactoryAccess(address)": "infinite",
						"grantRole(bytes32,address)": "33360",
						"hasRole(bytes32,address)": "2792",
						"poolVaults(address)": "2478",
						"registerManagers(address,address)": "52731",
						"registerPool(address,address,address,address,address,address,uint256,uint256,uint256,uint8)": "infinite",
						"registerVault(address,address)": "infinite",
						"renounceRole(bytes32,address)": "28972",
						"revokeRole(bytes32,address)": "33634",
						"rewardManager()": "2324",
						"supportsInterface(bytes4)": "270",
						"vaultManager()": "2566"
					},
					"internal": {
						"_removePoolFromLenderArray(address,address)": "infinite",
						"_removePoolFromMainArray(address)": "infinite",
						"findIndexInArray(address[] storage pointer,address)": "infinite"
					}
				},
				"methodIdentifiers": {
					"DEFAULT_ADMIN_ROLE()": "a217fddf",
					"POOL_MANAGER_ROLE()": "56d73568",
					"deregisterPool(address)": "7e72c7d7",
					"getManagers()": "a8d088bb",
					"getPoolDetails(address)": "d3e90fa0",
					"getPoolsByLender(address)": "24a44efb",
					"getRoleAdmin(bytes32)": "248a9ca3",
					"getTotalPools()": "d3ffe67a",
					"getVaultForPool(address)": "7570e389",
					"grantFactoryAccess(address)": "5d102df7",
					"grantRole(bytes32,address)": "2f2ff15d",
					"hasRole(bytes32,address)": "91d14854",
					"poolVaults(address)": "1e4966ab",
					"registerManagers(address,address)": "c489579d",
					"registerPool(address,address,address,address,address,address,uint256,uint256,uint256,uint8)": "2437769a",
					"registerVault(address,address)": "05c4fdf9",
					"renounceRole(bytes32,address)": "36568abe",
					"revokeRole(bytes32,address)": "d547741f",
					"rewardManager()": "0f4ef8a6",
					"supportsInterface(bytes4)": "01ffc9a7",
					"vaultManager()": "8a4adf24"
				}
			},
			"storageLayout": {
				"storage": [
					{
						"astId": 26,
						"contract": "contracts/contracts/protocol/PoolOrganizer.sol:PoolOrganizer",
						"label": "_roles",
						"offset": 0,
						"slot": "0",
						"type": "t_mapping(t_bytes32,t_struct(RoleData)21_storage)"
					},
					{
						"astId": 730,
						"contract": "contracts/contracts/protocol/PoolOrganizer.sol:PoolOrganizer",
						"label": "vaultManager",
						"offset": 0,
						"slot": "1",
						"type": "t_contract(IVaultManager)711"
					},
					{
						"astId": 733,
						"contract": "contracts/contracts/protocol/PoolOrganizer.sol:PoolOrganizer",
						"label": "rewardManager",
						"offset": 0,
						"slot": "2",
						"type": "t_contract(IRewardManager)673"
					},
					{
						"astId": 736,
						"contract": "contracts/contracts/protocol/PoolOrganizer.sol:PoolOrganizer",
						"label": "pools",
						"offset": 0,
						"slot": "3",
						"type": "t_array(t_address)dyn_storage"
					},
					{
						"astId": 741,
						"contract": "contracts/contracts/protocol/PoolOrganizer.sol:PoolOrganizer",
						"label": "poolDetails",
						"offset": 0,
						"slot": "4",
						"type": "t_mapping(t_address,t_struct(PoolDetails)549_storage)"
					},
					{
						"astId": 746,
						"contract": "contracts/contracts/protocol/PoolOrganizer.sol:PoolOrganizer",
						"label": "lenderPools",
						"offset": 0,
						"slot": "5",
						"type": "t_mapping(t_address,t_array(t_address)dyn_storage)"
					},
					{
						"astId": 750,
						"contract": "contracts/contracts/protocol/PoolOrganizer.sol:PoolOrganizer",
						"label": "poolVaults",
						"offset": 0,
						"slot": "6",
						"type": "t_mapping(t_address,t_address)"
					}
				],
				"types": {
					"t_address": {
						"encoding": "inplace",
						"label": "address",
						"numberOfBytes": "20"
					},
					"t_array(t_address)dyn_storage": {
						"base": "t_address",
						"encoding": "dynamic_array",
						"label": "address[]",
						"numberOfBytes": "32"
					},
					"t_bool": {
						"encoding": "inplace",
						"label": "bool",
						"numberOfBytes": "1"
					},
					"t_bytes32": {
						"encoding": "inplace",
						"label": "bytes32",
						"numberOfBytes": "32"
					},
					"t_contract(IRewardManager)673": {
						"encoding": "inplace",
						"label": "contract IRewardManager",
						"numberOfBytes": "20"
					},
					"t_contract(IVaultManager)711": {
						"encoding": "inplace",
						"label": "contract IVaultManager",
						"numberOfBytes": "20"
					},
					"t_enum(PoolType)527": {
						"encoding": "inplace",
						"label": "enum IPoolOrganizer.PoolType",
						"numberOfBytes": "1"
					},
					"t_mapping(t_address,t_address)": {
						"encoding": "mapping",
						"key": "t_address",
						"label": "mapping(address => address)",
						"numberOfBytes": "32",
						"value": "t_address"
					},
					"t_mapping(t_address,t_array(t_address)dyn_storage)": {
						"encoding": "mapping",
						"key": "t_address",
						"label": "mapping(address => address[])",
						"numberOfBytes": "32",
						"value": "t_array(t_address)dyn_storage"
					},
					"t_mapping(t_address,t_bool)": {
						"encoding": "mapping",
						"key": "t_address",
						"label": "mapping(address => bool)",
						"numberOfBytes": "32",
						"value": "t_bool"
					},
					"t_mapping(t_address,t_struct(PoolDetails)549_storage)": {
						"encoding": "mapping",
						"key": "t_address",
						"label": "mapping(address => struct IPoolOrganizer.PoolDetails)",
						"numberOfBytes": "32",
						"value": "t_struct(PoolDetails)549_storage"
					},
					"t_mapping(t_bytes32,t_struct(RoleData)21_storage)": {
						"encoding": "mapping",
						"key": "t_bytes32",
						"label": "mapping(bytes32 => struct AccessControl.RoleData)",
						"numberOfBytes": "32",
						"value": "t_struct(RoleData)21_storage"
					},
					"t_struct(PoolDetails)549_storage": {
						"encoding": "inplace",
						"label": "struct IPoolOrganizer.PoolDetails",
						"members": [
							{
								"astId": 529,
								"contract": "contracts/contracts/protocol/PoolOrganizer.sol:PoolOrganizer",
								"label": "lender",
								"offset": 0,
								"slot": "0",
								"type": "t_address"
							},
							{
								"astId": 531,
								"contract": "contracts/contracts/protocol/PoolOrganizer.sol:PoolOrganizer",
								"label": "borrower",
								"offset": 0,
								"slot": "1",
								"type": "t_address"
							},
							{
								"astId": 533,
								"contract": "contracts/contracts/protocol/PoolOrganizer.sol:PoolOrganizer",
								"label": "creationTime",
								"offset": 0,
								"slot": "2",
								"type": "t_uint256"
							},
							{
								"astId": 535,
								"contract": "contracts/contracts/protocol/PoolOrganizer.sol:PoolOrganizer",
								"label": "vault",
								"offset": 0,
								"slot": "3",
								"type": "t_address"
							},
							{
								"astId": 537,
								"contract": "contracts/contracts/protocol/PoolOrganizer.sol:PoolOrganizer",
								"label": "loanToken",
								"offset": 0,
								"slot": "4",
								"type": "t_address"
							},
							{
								"astId": 539,
								"contract": "contracts/contracts/protocol/PoolOrganizer.sol:PoolOrganizer",
								"label": "assetToken",
								"offset": 0,
								"slot": "5",
								"type": "t_address"
							},
							{
								"astId": 541,
								"contract": "contracts/contracts/protocol/PoolOrganizer.sol:PoolOrganizer",
								"label": "loanAmount",
								"offset": 0,
								"slot": "6",
								"type": "t_uint256"
							},
							{
								"astId": 543,
								"contract": "contracts/contracts/protocol/PoolOrganizer.sol:PoolOrganizer",
								"label": "interestRate",
								"offset": 0,
								"slot": "7",
								"type": "t_uint256"
							},
							{
								"astId": 545,
								"contract": "contracts/contracts/protocol/PoolOrganizer.sol:PoolOrganizer",
								"label": "repaymentPeriod",
								"offset": 0,
								"slot": "8",
								"type": "t_uint256"
							},
							{
								"astId": 548,
								"contract": "contracts/contracts/protocol/PoolOrganizer.sol:PoolOrganizer",
								"label": "poolType",
								"offset": 0,
								"slot": "9",
								"type": "t_enum(PoolType)527"
							}
						],
						"numberOfBytes": "320"
					},
					"t_struct(RoleData)21_storage": {
						"encoding": "inplace",
						"label": "struct AccessControl.RoleData",
						"members": [
							{
								"astId": 18,
								"contract": "contracts/contracts/protocol/PoolOrganizer.sol:PoolOrganizer",
								"label": "hasRole",
								"offset": 0,
								"slot": "0",
								"type": "t_mapping(t_address,t_bool)"
							},
							{
								"astId": 20,
								"contract": "contracts/contracts/protocol/PoolOrganizer.sol:PoolOrganizer",
								"label": "adminRole",
								"offset": 0,
								"slot": "1",
								"type": "t_bytes32"
							}
						],
						"numberOfBytes": "64"
					},
					"t_uint256": {
						"encoding": "inplace",
						"label": "uint256",
						"numberOfBytes": "32"
					}
				}
			},
			"userdoc": {
				"kind": "user",
				"methods": {
					"deregisterPool(address)": {
						"notice": "Deregisters a pool from the organizer."
					},
					"getManagers()": {
						"notice": "Returns the addresses of the VaultManager and RewardManager."
					},
					"getPoolDetails(address)": {
						"notice": "Retrieves details for a specific pool."
					},
					"getPoolsByLender(address)": {
						"notice": "Retrieves all pools associated with a specific lender."
					},
					"getTotalPools()": {
						"notice": "Retrieves the total number of registered pools."
					},
					"getVaultForPool(address)": {
						"notice": "Retrieves the vault associated with a specific pool."
					},
					"grantFactoryAccess(address)": {
						"notice": "Grants factory access to manage pools."
					},
					"registerManagers(address,address)": {
						"notice": "Registers the manager contracts for managing vaults and rewards."
					},
					"registerPool(address,address,address,address,address,address,uint256,uint256,uint256,uint8)": {
						"notice": "Registers a new pool within the organizer."
					},
					"registerVault(address,address)": {
						"notice": "Registers a vault for a given pool."
					}
				},
				"version": 1
			}
		}
	}
}