{
	"contracts/contracts/protocol/TuliaFlashPool.sol": {
		"TuliaFlashPool": {
			"abi": [
				{
					"inputs": [
						{
							"internalType": "contract IERC20",
							"name": "_asset",
							"type": "address"
						},
						{
							"internalType": "uint256",
							"name": "_flashLoanFeeRate",
							"type": "uint256"
						},
						{
							"internalType": "contract IPoolOrganizer",
							"name": "_poolOrganizer",
							"type": "address"
						}
					],
					"stateMutability": "nonpayable",
					"type": "constructor"
				},
				{
					"inputs": [],
					"name": "AccessControlBadConfirmation",
					"type": "error"
				},
				{
					"inputs": [
						{
							"internalType": "address",
							"name": "account",
							"type": "address"
						},
						{
							"internalType": "bytes32",
							"name": "neededRole",
							"type": "bytes32"
						}
					],
					"name": "AccessControlUnauthorizedAccount",
					"type": "error"
				},
				{
					"anonymous": false,
					"inputs": [
						{
							"indexed": true,
							"internalType": "address",
							"name": "receiver",
							"type": "address"
						},
						{
							"indexed": true,
							"internalType": "address",
							"name": "token",
							"type": "address"
						},
						{
							"indexed": false,
							"internalType": "uint256",
							"name": "amount",
							"type": "uint256"
						},
						{
							"indexed": false,
							"internalType": "uint256",
							"name": "fee",
							"type": "uint256"
						}
					],
					"name": "FlashLoanExecuted",
					"type": "event"
				},
				{
					"anonymous": false,
					"inputs": [
						{
							"indexed": true,
							"internalType": "address",
							"name": "lender",
							"type": "address"
						},
						{
							"indexed": false,
							"internalType": "uint256",
							"name": "amount",
							"type": "uint256"
						}
					],
					"name": "LoanFunded",
					"type": "event"
				},
				{
					"anonymous": false,
					"inputs": [
						{
							"indexed": true,
							"internalType": "bytes32",
							"name": "role",
							"type": "bytes32"
						},
						{
							"indexed": true,
							"internalType": "bytes32",
							"name": "previousAdminRole",
							"type": "bytes32"
						},
						{
							"indexed": true,
							"internalType": "bytes32",
							"name": "newAdminRole",
							"type": "bytes32"
						}
					],
					"name": "RoleAdminChanged",
					"type": "event"
				},
				{
					"anonymous": false,
					"inputs": [
						{
							"indexed": true,
							"internalType": "bytes32",
							"name": "role",
							"type": "bytes32"
						},
						{
							"indexed": true,
							"internalType": "address",
							"name": "account",
							"type": "address"
						},
						{
							"indexed": true,
							"internalType": "address",
							"name": "sender",
							"type": "address"
						}
					],
					"name": "RoleGranted",
					"type": "event"
				},
				{
					"anonymous": false,
					"inputs": [
						{
							"indexed": true,
							"internalType": "bytes32",
							"name": "role",
							"type": "bytes32"
						},
						{
							"indexed": true,
							"internalType": "address",
							"name": "account",
							"type": "address"
						},
						{
							"indexed": true,
							"internalType": "address",
							"name": "sender",
							"type": "address"
						}
					],
					"name": "RoleRevoked",
					"type": "event"
				},
				{
					"inputs": [],
					"name": "DEFAULT_ADMIN_ROLE",
					"outputs": [
						{
							"internalType": "bytes32",
							"name": "",
							"type": "bytes32"
						}
					],
					"stateMutability": "view",
					"type": "function"
				},
				{
					"inputs": [],
					"name": "LENDER_ROLE",
					"outputs": [
						{
							"internalType": "bytes32",
							"name": "",
							"type": "bytes32"
						}
					],
					"stateMutability": "view",
					"type": "function"
				},
				{
					"inputs": [],
					"name": "asset",
					"outputs": [
						{
							"internalType": "contract IERC20",
							"name": "",
							"type": "address"
						}
					],
					"stateMutability": "view",
					"type": "function"
				},
				{
					"inputs": [
						{
							"internalType": "address",
							"name": "token",
							"type": "address"
						},
						{
							"internalType": "uint256",
							"name": "amount",
							"type": "uint256"
						}
					],
					"name": "flashFee",
					"outputs": [
						{
							"internalType": "uint256",
							"name": "",
							"type": "uint256"
						}
					],
					"stateMutability": "view",
					"type": "function"
				},
				{
					"inputs": [
						{
							"internalType": "contract IERC3156FlashBorrower",
							"name": "receiver",
							"type": "address"
						},
						{
							"internalType": "address",
							"name": "token",
							"type": "address"
						},
						{
							"internalType": "uint256",
							"name": "amount",
							"type": "uint256"
						},
						{
							"internalType": "bytes",
							"name": "data",
							"type": "bytes"
						}
					],
					"name": "flashLoan",
					"outputs": [
						{
							"internalType": "bool",
							"name": "",
							"type": "bool"
						}
					],
					"stateMutability": "nonpayable",
					"type": "function"
				},
				{
					"inputs": [],
					"name": "flashLoanFeeRate",
					"outputs": [
						{
							"internalType": "uint256",
							"name": "",
							"type": "uint256"
						}
					],
					"stateMutability": "view",
					"type": "function"
				},
				{
					"inputs": [
						{
							"internalType": "uint256",
							"name": "amount",
							"type": "uint256"
						}
					],
					"name": "fundLoan",
					"outputs": [],
					"stateMutability": "nonpayable",
					"type": "function"
				},
				{
					"inputs": [
						{
							"internalType": "bytes32",
							"name": "role",
							"type": "bytes32"
						}
					],
					"name": "getRoleAdmin",
					"outputs": [
						{
							"internalType": "bytes32",
							"name": "",
							"type": "bytes32"
						}
					],
					"stateMutability": "view",
					"type": "function"
				},
				{
					"inputs": [
						{
							"internalType": "bytes32",
							"name": "role",
							"type": "bytes32"
						},
						{
							"internalType": "address",
							"name": "account",
							"type": "address"
						}
					],
					"name": "grantRole",
					"outputs": [],
					"stateMutability": "nonpayable",
					"type": "function"
				},
				{
					"inputs": [
						{
							"internalType": "bytes32",
							"name": "role",
							"type": "bytes32"
						},
						{
							"internalType": "address",
							"name": "account",
							"type": "address"
						}
					],
					"name": "hasRole",
					"outputs": [
						{
							"internalType": "bool",
							"name": "",
							"type": "bool"
						}
					],
					"stateMutability": "view",
					"type": "function"
				},
				{
					"inputs": [],
					"name": "lender",
					"outputs": [
						{
							"internalType": "address",
							"name": "",
							"type": "address"
						}
					],
					"stateMutability": "view",
					"type": "function"
				},
				{
					"inputs": [
						{
							"internalType": "address",
							"name": "token",
							"type": "address"
						}
					],
					"name": "maxFlashLoan",
					"outputs": [
						{
							"internalType": "uint256",
							"name": "",
							"type": "uint256"
						}
					],
					"stateMutability": "view",
					"type": "function"
				},
				{
					"inputs": [],
					"name": "poolOrganizer",
					"outputs": [
						{
							"internalType": "contract IPoolOrganizer",
							"name": "",
							"type": "address"
						}
					],
					"stateMutability": "view",
					"type": "function"
				},
				{
					"inputs": [
						{
							"internalType": "bytes32",
							"name": "role",
							"type": "bytes32"
						},
						{
							"internalType": "address",
							"name": "callerConfirmation",
							"type": "address"
						}
					],
					"name": "renounceRole",
					"outputs": [],
					"stateMutability": "nonpayable",
					"type": "function"
				},
				{
					"inputs": [
						{
							"internalType": "bytes32",
							"name": "role",
							"type": "bytes32"
						},
						{
							"internalType": "address",
							"name": "account",
							"type": "address"
						}
					],
					"name": "revokeRole",
					"outputs": [],
					"stateMutability": "nonpayable",
					"type": "function"
				},
				{
					"inputs": [],
					"name": "state",
					"outputs": [
						{
							"internalType": "enum TuliaFlashPool.FlashLoanState",
							"name": "",
							"type": "uint8"
						}
					],
					"stateMutability": "view",
					"type": "function"
				},
				{
					"inputs": [
						{
							"internalType": "bytes4",
							"name": "interfaceId",
							"type": "bytes4"
						}
					],
					"name": "supportsInterface",
					"outputs": [
						{
							"internalType": "bool",
							"name": "",
							"type": "bool"
						}
					],
					"stateMutability": "view",
					"type": "function"
				}
			],
			"devdoc": {
				"details": "Implements flash loan functionalities with integrated fee management. This contract allows issuing flash loans backed by ERC20 tokens.",
				"errors": {
					"AccessControlBadConfirmation()": [
						{
							"details": "The caller of a function is not the expected one. NOTE: Don't confuse with {AccessControlUnauthorizedAccount}."
						}
					],
					"AccessControlUnauthorizedAccount(address,bytes32)": [
						{
							"details": "The `account` is missing a role."
						}
					]
				},
				"events": {
					"FlashLoanExecuted(address,address,uint256,uint256)": {
						"params": {
							"amount": "The loan amount",
							"fee": "The loan fee",
							"receiver": "The borrower contract",
							"token": "The ERC20 token for the loan"
						}
					},
					"LoanFunded(address,uint256)": {
						"params": {
							"amount": "The amount of the loan",
							"lender": "The address of the lender"
						}
					},
					"RoleAdminChanged(bytes32,bytes32,bytes32)": {
						"details": "Emitted when `newAdminRole` is set as ``role``'s admin role, replacing `previousAdminRole` `DEFAULT_ADMIN_ROLE` is the starting admin for all roles, despite {RoleAdminChanged} not being emitted signaling this."
					},
					"RoleGranted(bytes32,address,address)": {
						"details": "Emitted when `account` is granted `role`. `sender` is the account that originated the contract call, an admin role bearer except when using {AccessControl-_setupRole}."
					},
					"RoleRevoked(bytes32,address,address)": {
						"details": "Emitted when `account` is revoked `role`. `sender` is the account that originated the contract call:   - if using `revokeRole`, it is the admin role bearer   - if using `renounceRole`, it is the role bearer (i.e. `account`)"
					}
				},
				"kind": "dev",
				"methods": {
					"constructor": {
						"params": {
							"_asset": "The ERC20 token asset used for flash loans",
							"_flashLoanFeeRate": "The initial fee rate for flash loans issued by this pool",
							"_poolOrganizer": "The Pool Organizer contract"
						}
					},
					"flashFee(address,uint256)": {
						"params": {
							"amount": "The amount of the loan",
							"token": "The ERC20 token for which the fee is calculated"
						},
						"returns": {
							"_0": "The calculated fee amount"
						}
					},
					"flashLoan(address,address,uint256,bytes)": {
						"params": {
							"amount": "The amount of tokens to borrow",
							"data": "Arbitrary data passed to the borrower's `onFlashLoan` method",
							"receiver": "The borrower contract that must implement the IERC3156FlashBorrower interface",
							"token": "The ERC20 token to be borrowed"
						},
						"returns": {
							"_0": "true if the flash loan is paid back successfully within the same transaction"
						}
					},
					"fundLoan(uint256)": {
						"params": {
							"amount": "The amount of tokens to fund"
						}
					},
					"getRoleAdmin(bytes32)": {
						"details": "Returns the admin role that controls `role`. See {grantRole} and {revokeRole}. To change a role's admin, use {_setRoleAdmin}."
					},
					"grantRole(bytes32,address)": {
						"details": "Grants `role` to `account`. If `account` had not been already granted `role`, emits a {RoleGranted} event. Requirements: - the caller must have ``role``'s admin role. May emit a {RoleGranted} event."
					},
					"hasRole(bytes32,address)": {
						"details": "Returns `true` if `account` has been granted `role`."
					},
					"maxFlashLoan(address)": {
						"params": {
							"token": "The ERC20 token address for which the max loan amount is queried"
						},
						"returns": {
							"_0": "The maximum amount available for a flash loan"
						}
					},
					"renounceRole(bytes32,address)": {
						"details": "Revokes `role` from the calling account. Roles are often managed via {grantRole} and {revokeRole}: this function's purpose is to provide a mechanism for accounts to lose their privileges if they are compromised (such as when a trusted device is misplaced). If the calling account had been revoked `role`, emits a {RoleRevoked} event. Requirements: - the caller must be `callerConfirmation`. May emit a {RoleRevoked} event."
					},
					"revokeRole(bytes32,address)": {
						"details": "Revokes `role` from `account`. If `account` had been granted `role`, emits a {RoleRevoked} event. Requirements: - the caller must have ``role``'s admin role. May emit a {RoleRevoked} event."
					},
					"supportsInterface(bytes4)": {
						"details": "See {IERC165-supportsInterface}."
					}
				},
				"title": "TuliaFlashPool",
				"version": 1
			},
			"evm": {
				"assembly": "    /* \"contracts/contracts/protocol/TuliaFlashPool.sol\":595:6580  contract TuliaFlashPool is IERC3156FlashLender, ReentrancyGuard, AccessControl {... */\n  mstore(0x40, 0x80)\n    /* \"contracts/contracts/protocol/TuliaFlashPool.sol\":2133:2366  constructor(... */\n  callvalue\n  dup1\n  iszero\n  tag_1\n  jumpi\n  0x00\n  dup1\n  revert\ntag_1:\n  pop\n  mload(0x40)\n  sub(codesize, bytecodeSize)\n  dup1\n  bytecodeSize\n  dup4\n  codecopy\n  dup2\n  add\n  0x40\n  dup2\n  swap1\n  mstore\n  tag_2\n  swap2\n  tag_3\n  jump\t// in\ntag_2:\n    /* \"@openzeppelin/contracts/security/ReentrancyGuard.sol\":1716:1717  1 */\n  0x01\n    /* \"@openzeppelin/contracts/security/ReentrancyGuard.sol\":1821:1828  _status */\n  0x00\n    /* \"@openzeppelin/contracts/security/ReentrancyGuard.sol\":1821:1843  _status = _NOT_ENTERED */\n  sstore\n    /* \"contracts/contracts/protocol/TuliaFlashPool.sol\":2258:2263  asset */\n  0x02\n    /* \"contracts/contracts/protocol/TuliaFlashPool.sol\":2258:2272  asset = _asset */\n  dup1\n  sload\n  sub(shl(0xa0, 0x01), 0x01)\n  swap5\n  dup6\n  and\n  not(sub(shl(0xa0, 0x01), 0x01))\n  swap2\n  dup3\n  and\n  or\n  swap1\n  swap2\n  sstore\n    /* \"contracts/contracts/protocol/TuliaFlashPool.sol\":2282:2298  flashLoanFeeRate */\n  0x05\n    /* \"contracts/contracts/protocol/TuliaFlashPool.sol\":2282:2318  flashLoanFeeRate = _flashLoanFeeRate */\n  swap3\n  swap1\n  swap3\n  sstore\n    /* \"contracts/contracts/protocol/TuliaFlashPool.sol\":2328:2341  poolOrganizer */\n  0x03\n    /* \"contracts/contracts/protocol/TuliaFlashPool.sol\":2328:2358  poolOrganizer = _poolOrganizer */\n  dup1\n  sload\n  swap2\n  swap1\n  swap4\n  and\n  swap2\n  and\n  or\n  swap1\n  sstore\n    /* \"contracts/contracts/protocol/TuliaFlashPool.sol\":595:6580  contract TuliaFlashPool is IERC3156FlashLender, ReentrancyGuard, AccessControl {... */\n  jump(tag_10)\n    /* \"#utility.yul\":14:153   */\ntag_9:\n  sub(shl(0xa0, 0x01), 0x01)\n    /* \"#utility.yul\":97:128   */\n  dup2\n  and\n    /* \"#utility.yul\":87:129   */\n  dup2\n  eq\n    /* \"#utility.yul\":77:147   */\n  tag_12\n  jumpi\n    /* \"#utility.yul\":143:144   */\n  0x00\n    /* \"#utility.yul\":140:141   */\n  dup1\n    /* \"#utility.yul\":133:145   */\n  revert\n    /* \"#utility.yul\":77:147   */\ntag_12:\n    /* \"#utility.yul\":14:153   */\n  pop\n  jump\t// out\n    /* \"#utility.yul\":158:656   */\ntag_3:\n    /* \"#utility.yul\":282:288   */\n  0x00\n    /* \"#utility.yul\":290:296   */\n  dup1\n    /* \"#utility.yul\":298:304   */\n  0x00\n    /* \"#utility.yul\":351:353   */\n  0x60\n    /* \"#utility.yul\":339:348   */\n  dup5\n    /* \"#utility.yul\":330:337   */\n  dup7\n    /* \"#utility.yul\":326:349   */\n  sub\n    /* \"#utility.yul\":322:354   */\n  slt\n    /* \"#utility.yul\":319:371   */\n  iszero\n  tag_14\n  jumpi\n    /* \"#utility.yul\":367:368   */\n  0x00\n    /* \"#utility.yul\":364:365   */\n  dup1\n    /* \"#utility.yul\":357:369   */\n  revert\n    /* \"#utility.yul\":319:371   */\ntag_14:\n    /* \"#utility.yul\":399:408   */\n  dup4\n    /* \"#utility.yul\":393:409   */\n  mload\n    /* \"#utility.yul\":418:457   */\n  tag_15\n    /* \"#utility.yul\":451:456   */\n  dup2\n    /* \"#utility.yul\":418:457   */\n  tag_9\n  jump\t// in\ntag_15:\n    /* \"#utility.yul\":521:523   */\n  0x20\n    /* \"#utility.yul\":506:524   */\n  dup6\n  add\n    /* \"#utility.yul\":500:525   */\n  mload\n    /* \"#utility.yul\":570:572   */\n  0x40\n    /* \"#utility.yul\":555:573   */\n  dup7\n  add\n    /* \"#utility.yul\":549:574   */\n  mload\n    /* \"#utility.yul\":476:481   */\n  swap2\n  swap5\n  pop\n    /* \"#utility.yul\":500:525   */\n  swap3\n  pop\n    /* \"#utility.yul\":583:624   */\n  tag_16\n    /* \"#utility.yul\":549:574   */\n  dup2\n    /* \"#utility.yul\":583:624   */\n  tag_9\n  jump\t// in\ntag_16:\n    /* \"#utility.yul\":643:650   */\n  dup1\n    /* \"#utility.yul\":633:650   */\n  swap2\n  pop\n  pop\n    /* \"#utility.yul\":158:656   */\n  swap3\n  pop\n  swap3\n  pop\n  swap3\n  jump\t// out\ntag_10:\n    /* \"contracts/contracts/protocol/TuliaFlashPool.sol\":595:6580  contract TuliaFlashPool is IERC3156FlashLender, ReentrancyGuard, AccessControl {... */\n  dataSize(sub_0)\n  dup1\n  dataOffset(sub_0)\n  0x00\n  codecopy\n  0x00\n  return\nstop\n\nsub_0: assembly {\n        /* \"contracts/contracts/protocol/TuliaFlashPool.sol\":595:6580  contract TuliaFlashPool is IERC3156FlashLender, ReentrancyGuard, AccessControl {... */\n      mstore(0x40, 0x80)\n      callvalue\n      dup1\n      iszero\n      tag_1\n      jumpi\n      0x00\n      dup1\n      revert\n    tag_1:\n      pop\n      jumpi(tag_2, lt(calldatasize, 0x04))\n      shr(0xe0, calldataload(0x00))\n      dup1\n      0x846b909a\n      gt\n      tag_20\n      jumpi\n      dup1\n      0xbcead63e\n      gt\n      tag_21\n      jumpi\n      dup1\n      0xbcead63e\n      eq\n      tag_15\n      jumpi\n      dup1\n      0xc19d93fb\n      eq\n      tag_16\n      jumpi\n      dup1\n      0xc51b9507\n      eq\n      tag_17\n      jumpi\n      dup1\n      0xd547741f\n      eq\n      tag_18\n      jumpi\n      dup1\n      0xd9d98ce4\n      eq\n      tag_19\n      jumpi\n      0x00\n      dup1\n      revert\n    tag_21:\n      dup1\n      0x846b909a\n      eq\n      tag_11\n      jumpi\n      dup1\n      0x8c9f305f\n      eq\n      tag_12\n      jumpi\n      dup1\n      0x91d14854\n      eq\n      tag_13\n      jumpi\n      dup1\n      0xa217fddf\n      eq\n      tag_14\n      jumpi\n      0x00\n      dup1\n      revert\n    tag_20:\n      dup1\n      0x36568abe\n      gt\n      tag_22\n      jumpi\n      dup1\n      0x36568abe\n      eq\n      tag_7\n      jumpi\n      dup1\n      0x38d52e0f\n      eq\n      tag_8\n      jumpi\n      dup1\n      0x5cffe9de\n      eq\n      tag_9\n      jumpi\n      dup1\n      0x613255ab\n      eq\n      tag_10\n      jumpi\n      0x00\n      dup1\n      revert\n    tag_22:\n      dup1\n      0xabafe1\n      eq\n      tag_3\n      jumpi\n      dup1\n      0x01ffc9a7\n      eq\n      tag_4\n      jumpi\n      dup1\n      0x248a9ca3\n      eq\n      tag_5\n      jumpi\n      dup1\n      0x2f2ff15d\n      eq\n      tag_6\n      jumpi\n    tag_2:\n      0x00\n      dup1\n      revert\n        /* \"contracts/contracts/protocol/TuliaFlashPool.sol\":848:910  bytes32 public constant LENDER_ROLE = keccak256(\"LENDER_ROLE\") */\n    tag_3:\n      tag_23\n        /* \"contracts/contracts/protocol/TuliaFlashPool.sol\":886:910  keccak256(\"LENDER_ROLE\") */\n      0xc60d7a62d8843f2b14bc63f2a5240b187980481ad8c001a3caf4916aef3f667e\n        /* \"contracts/contracts/protocol/TuliaFlashPool.sol\":848:910  bytes32 public constant LENDER_ROLE = keccak256(\"LENDER_ROLE\") */\n      dup2\n      jump\n    tag_23:\n      mload(0x40)\n        /* \"#utility.yul\":160:185   */\n      swap1\n      dup2\n      mstore\n        /* \"#utility.yul\":148:150   */\n      0x20\n        /* \"#utility.yul\":133:151   */\n      add\n        /* \"contracts/contracts/protocol/TuliaFlashPool.sol\":848:910  bytes32 public constant LENDER_ROLE = keccak256(\"LENDER_ROLE\") */\n    tag_25:\n      mload(0x40)\n      dup1\n      swap2\n      sub\n      swap1\n      return\n        /* \"@openzeppelin/contracts/access/AccessControl.sol\":2565:2767  function supportsInterface(bytes4 interfaceId) public view virtual override returns (bool) {... */\n    tag_4:\n      tag_27\n      tag_28\n      calldatasize\n      0x04\n      tag_29\n      jump\t// in\n    tag_28:\n      tag_30\n      jump\t// in\n    tag_27:\n      mload(0x40)\n        /* \"#utility.yul\":652:666   */\n      swap1\n      iszero\n        /* \"#utility.yul\":645:667   */\n      iszero\n        /* \"#utility.yul\":627:668   */\n      dup2\n      mstore\n        /* \"#utility.yul\":615:617   */\n      0x20\n        /* \"#utility.yul\":600:618   */\n      add\n        /* \"@openzeppelin/contracts/access/AccessControl.sol\":2565:2767  function supportsInterface(bytes4 interfaceId) public view virtual override returns (bool) {... */\n      tag_25\n        /* \"#utility.yul\":487:674   */\n      jump\n        /* \"@openzeppelin/contracts/access/AccessControl.sol\":3810:3930  function getRoleAdmin(bytes32 role) public view virtual returns (bytes32) {... */\n    tag_5:\n      tag_23\n      tag_34\n      calldatasize\n      0x04\n      tag_35\n      jump\t// in\n    tag_34:\n        /* \"@openzeppelin/contracts/access/AccessControl.sol\":3875:3882  bytes32 */\n      0x00\n        /* \"@openzeppelin/contracts/access/AccessControl.sol\":3901:3913  _roles[role] */\n      swap1\n      dup2\n      mstore\n        /* \"@openzeppelin/contracts/access/AccessControl.sol\":3901:3907  _roles */\n      0x01\n        /* \"@openzeppelin/contracts/access/AccessControl.sol\":3901:3913  _roles[role] */\n      0x20\n      dup2\n      swap1\n      mstore\n      0x40\n      swap1\n      swap2\n      keccak256\n        /* \"@openzeppelin/contracts/access/AccessControl.sol\":3901:3923  _roles[role].adminRole */\n      add\n      sload\n      swap1\n        /* \"@openzeppelin/contracts/access/AccessControl.sol\":3810:3930  function getRoleAdmin(bytes32 role) public view virtual returns (bytes32) {... */\n      jump\n        /* \"@openzeppelin/contracts/access/AccessControl.sol\":4226:4362  function grantRole(bytes32 role, address account) public virtual onlyRole(getRoleAdmin(role)) {... */\n    tag_6:\n      tag_38\n      tag_39\n      calldatasize\n      0x04\n      tag_40\n      jump\t// in\n    tag_39:\n      tag_41\n      jump\t// in\n    tag_38:\n      stop\n        /* \"@openzeppelin/contracts/access/AccessControl.sol\":5328:5573  function renounceRole(bytes32 role, address callerConfirmation) public virtual {... */\n    tag_7:\n      tag_38\n      tag_43\n      calldatasize\n      0x04\n      tag_40\n      jump\t// in\n    tag_43:\n      tag_44\n      jump\t// in\n        /* \"contracts/contracts/protocol/TuliaFlashPool.sol\":780:799  IERC20 public asset */\n    tag_8:\n      sload(0x02)\n      tag_45\n      swap1\n      sub(shl(0xa0, 0x01), 0x01)\n      and\n      dup2\n      jump\n    tag_45:\n      mload(0x40)\n      sub(shl(0xa0, 0x01), 0x01)\n        /* \"#utility.yul\":1596:1628   */\n      swap1\n      swap2\n      and\n        /* \"#utility.yul\":1578:1629   */\n      dup2\n      mstore\n        /* \"#utility.yul\":1566:1568   */\n      0x20\n        /* \"#utility.yul\":1551:1569   */\n      add\n        /* \"contracts/contracts/protocol/TuliaFlashPool.sol\":780:799  IERC20 public asset */\n      tag_25\n        /* \"#utility.yul\":1418:1635   */\n      jump\n        /* \"contracts/contracts/protocol/TuliaFlashPool.sol\":4477:4892  function flashLoan(... */\n    tag_9:\n      tag_27\n      tag_50\n      calldatasize\n      0x04\n      tag_51\n      jump\t// in\n    tag_50:\n      tag_52\n      jump\t// in\n        /* \"contracts/contracts/protocol/TuliaFlashPool.sol\":3330:3526  function maxFlashLoan(address token)... */\n    tag_10:\n      tag_23\n      tag_55\n      calldatasize\n      0x04\n      tag_56\n      jump\t// in\n    tag_55:\n      tag_57\n      jump\t// in\n        /* \"contracts/contracts/protocol/TuliaFlashPool.sol\":2496:3111  function fundLoan(uint256 amount) external nonReentrant {... */\n    tag_11:\n      tag_38\n      tag_61\n      calldatasize\n      0x04\n      tag_35\n      jump\t// in\n    tag_61:\n      tag_63\n      jump\t// in\n        /* \"contracts/contracts/protocol/TuliaFlashPool.sol\":1059:1090  uint256 public flashLoanFeeRate */\n    tag_12:\n      tag_23\n      sload(0x05)\n      dup2\n      jump\n        /* \"@openzeppelin/contracts/access/AccessControl.sol\":2854:2990  function hasRole(bytes32 role, address account) public view virtual returns (bool) {... */\n    tag_13:\n      tag_27\n      tag_68\n      calldatasize\n      0x04\n      tag_40\n      jump\t// in\n    tag_68:\n      tag_69\n      jump\t// in\n        /* \"@openzeppelin/contracts/access/AccessControl.sol\":2187:2236  bytes32 public constant DEFAULT_ADMIN_ROLE = 0x00 */\n    tag_14:\n      tag_23\n        /* \"@openzeppelin/contracts/access/AccessControl.sol\":2232:2236  0x00 */\n      0x00\n        /* \"@openzeppelin/contracts/access/AccessControl.sol\":2187:2236  bytes32 public constant DEFAULT_ADMIN_ROLE = 0x00 */\n      dup2\n      jump\n        /* \"contracts/contracts/protocol/TuliaFlashPool.sol\":916:937  address public lender */\n    tag_15:\n      sload(0x04)\n      tag_45\n      swap1\n      sub(shl(0xa0, 0x01), 0x01)\n      and\n      dup2\n      jump\n        /* \"contracts/contracts/protocol/TuliaFlashPool.sol\":1588:1615  FlashLoanState public state */\n    tag_16:\n      sload(0x06)\n      tag_78\n      swap1\n      0xff\n      and\n      dup2\n      jump\n    tag_78:\n      mload(0x40)\n      tag_25\n      swap2\n      swap1\n      tag_81\n      jump\t// in\n        /* \"contracts/contracts/protocol/TuliaFlashPool.sol\":806:841  IPoolOrganizer public poolOrganizer */\n    tag_17:\n      sload(0x03)\n      tag_45\n      swap1\n      sub(shl(0xa0, 0x01), 0x01)\n      and\n      dup2\n      jump\n        /* \"@openzeppelin/contracts/access/AccessControl.sol\":4642:4780  function revokeRole(bytes32 role, address account) public virtual onlyRole(getRoleAdmin(role)) {... */\n    tag_18:\n      tag_38\n      tag_87\n      calldatasize\n      0x04\n      tag_40\n      jump\t// in\n    tag_87:\n      tag_88\n      jump\t// in\n        /* \"contracts/contracts/protocol/TuliaFlashPool.sol\":3758:4039  function flashFee(address token, uint256 amount)... */\n    tag_19:\n      tag_23\n      tag_90\n      calldatasize\n      0x04\n      tag_91\n      jump\t// in\n    tag_90:\n      tag_92\n      jump\t// in\n        /* \"@openzeppelin/contracts/access/AccessControl.sol\":2565:2767  function supportsInterface(bytes4 interfaceId) public view virtual override returns (bool) {... */\n    tag_30:\n        /* \"@openzeppelin/contracts/access/AccessControl.sol\":2650:2654  bool */\n      0x00\n      not(sub(shl(0xe0, 0x01), 0x01))\n        /* \"@openzeppelin/contracts/access/AccessControl.sol\":2673:2720  interfaceId == type(IAccessControl).interfaceId */\n      dup3\n      and\n      shl(0xe0, 0x7965db0b)\n      eq\n      dup1\n        /* \"@openzeppelin/contracts/access/AccessControl.sol\":2673:2760  interfaceId == type(IAccessControl).interfaceId || super.supportsInterface(interfaceId) */\n      tag_96\n      jumpi\n      pop\n      shl(0xe0, 0x01ffc9a7)\n      not(sub(shl(0xe0, 0x01), 0x01))\n        /* \"@openzeppelin/contracts/utils/introspection/ERC165.sol\":861:901  interfaceId == type(IERC165).interfaceId */\n      dup4\n      and\n      eq\n        /* \"@openzeppelin/contracts/access/AccessControl.sol\":2724:2760  super.supportsInterface(interfaceId) */\n    tag_96:\n        /* \"@openzeppelin/contracts/access/AccessControl.sol\":2666:2760  return interfaceId == type(IAccessControl).interfaceId || super.supportsInterface(interfaceId) */\n      swap3\n        /* \"@openzeppelin/contracts/access/AccessControl.sol\":2565:2767  function supportsInterface(bytes4 interfaceId) public view virtual override returns (bool) {... */\n      swap2\n      pop\n      pop\n      jump\t// out\n        /* \"@openzeppelin/contracts/access/AccessControl.sol\":4226:4362  function grantRole(bytes32 role, address account) public virtual onlyRole(getRoleAdmin(role)) {... */\n    tag_41:\n        /* \"@openzeppelin/contracts/access/AccessControl.sol\":3875:3882  bytes32 */\n      0x00\n        /* \"@openzeppelin/contracts/access/AccessControl.sol\":3901:3913  _roles[role] */\n      dup3\n      dup2\n      mstore\n        /* \"@openzeppelin/contracts/access/AccessControl.sol\":3901:3907  _roles */\n      0x01\n        /* \"@openzeppelin/contracts/access/AccessControl.sol\":3901:3913  _roles[role] */\n      0x20\n      dup2\n      swap1\n      mstore\n      0x40\n      swap1\n      swap2\n      keccak256\n        /* \"@openzeppelin/contracts/access/AccessControl.sol\":3901:3923  _roles[role].adminRole */\n      add\n      sload\n        /* \"@openzeppelin/contracts/access/AccessControl.sol\":2464:2480  _checkRole(role) */\n      tag_101\n        /* \"@openzeppelin/contracts/access/AccessControl.sol\":2475:2479  role */\n      dup2\n        /* \"@openzeppelin/contracts/access/AccessControl.sol\":2464:2474  _checkRole */\n      tag_102\n        /* \"@openzeppelin/contracts/access/AccessControl.sol\":2464:2480  _checkRole(role) */\n      jump\t// in\n    tag_101:\n        /* \"@openzeppelin/contracts/access/AccessControl.sol\":4330:4355  _grantRole(role, account) */\n      tag_104\n        /* \"@openzeppelin/contracts/access/AccessControl.sol\":4341:4345  role */\n      dup4\n        /* \"@openzeppelin/contracts/access/AccessControl.sol\":4347:4354  account */\n      dup4\n        /* \"@openzeppelin/contracts/access/AccessControl.sol\":4330:4340  _grantRole */\n      tag_105\n        /* \"@openzeppelin/contracts/access/AccessControl.sol\":4330:4355  _grantRole(role, account) */\n      jump\t// in\n    tag_104:\n      pop\n        /* \"@openzeppelin/contracts/access/AccessControl.sol\":4226:4362  function grantRole(bytes32 role, address account) public virtual onlyRole(getRoleAdmin(role)) {... */\n      pop\n      pop\n      pop\n      jump\t// out\n        /* \"@openzeppelin/contracts/access/AccessControl.sol\":5328:5573  function renounceRole(bytes32 role, address callerConfirmation) public virtual {... */\n    tag_44:\n      sub(shl(0xa0, 0x01), 0x01)\n        /* \"@openzeppelin/contracts/access/AccessControl.sol\":5421:5455  callerConfirmation != _msgSender() */\n      dup2\n      and\n        /* \"@openzeppelin/contracts/utils/Context.sol\":735:745  msg.sender */\n      caller\n        /* \"@openzeppelin/contracts/access/AccessControl.sol\":5421:5455  callerConfirmation != _msgSender() */\n      eq\n        /* \"@openzeppelin/contracts/access/AccessControl.sol\":5417:5519  if (callerConfirmation != _msgSender()) {... */\n      tag_109\n      jumpi\n        /* \"@openzeppelin/contracts/access/AccessControl.sol\":5478:5508  AccessControlBadConfirmation() */\n      mload(0x40)\n      shl(0xe1, 0x334bd919)\n      dup2\n      mstore\n      0x04\n      add\n      mload(0x40)\n      dup1\n      swap2\n      sub\n      swap1\n      revert\n        /* \"@openzeppelin/contracts/access/AccessControl.sol\":5417:5519  if (callerConfirmation != _msgSender()) {... */\n    tag_109:\n        /* \"@openzeppelin/contracts/access/AccessControl.sol\":5529:5566  _revokeRole(role, callerConfirmation) */\n      tag_110\n        /* \"@openzeppelin/contracts/access/AccessControl.sol\":5541:5545  role */\n      dup3\n        /* \"@openzeppelin/contracts/access/AccessControl.sol\":5547:5565  callerConfirmation */\n      dup3\n        /* \"@openzeppelin/contracts/access/AccessControl.sol\":5529:5540  _revokeRole */\n      tag_111\n        /* \"@openzeppelin/contracts/access/AccessControl.sol\":5529:5566  _revokeRole(role, callerConfirmation) */\n      jump\t// in\n    tag_110:\n      pop\n        /* \"@openzeppelin/contracts/access/AccessControl.sol\":5328:5573  function renounceRole(bytes32 role, address callerConfirmation) public virtual {... */\n      pop\n      pop\n      jump\t// out\n        /* \"contracts/contracts/protocol/TuliaFlashPool.sol\":4477:4892  function flashLoan(... */\n    tag_52:\n        /* \"contracts/contracts/protocol/TuliaFlashPool.sol\":4658:4662  bool */\n      0x00\n        /* \"@openzeppelin/contracts/security/ReentrancyGuard.sol\":2261:2282  _nonReentrantBefore() */\n      tag_113\n        /* \"@openzeppelin/contracts/security/ReentrancyGuard.sol\":2261:2280  _nonReentrantBefore */\n      tag_114\n        /* \"@openzeppelin/contracts/security/ReentrancyGuard.sol\":2261:2282  _nonReentrantBefore() */\n      jump\t// in\n    tag_113:\n        /* \"contracts/contracts/protocol/TuliaFlashPool.sol\":4691:4712  FlashLoanState.FUNDED */\n      0x00\n        /* \"contracts/contracts/protocol/TuliaFlashPool.sol\":4682:4687  state */\n      and(0xff, sload(0x06))\n      0x01\n        /* \"contracts/contracts/protocol/TuliaFlashPool.sol\":4682:4712  state == FlashLoanState.FUNDED */\n      dup2\n      gt\n      iszero\n      tag_120\n      jumpi\n      tag_120\n      tag_118\n      jump\t// in\n    tag_120:\n      eq\n        /* \"contracts/contracts/protocol/TuliaFlashPool.sol\":4674:4732  require(state == FlashLoanState.FUNDED, \"Pool not funded\") */\n      tag_121\n      jumpi\n      mload(0x40)\n      shl(0xe5, 0x461bcd)\n      dup2\n      mstore\n        /* \"#utility.yul\":4720:4722   */\n      0x20\n        /* \"contracts/contracts/protocol/TuliaFlashPool.sol\":4674:4732  require(state == FlashLoanState.FUNDED, \"Pool not funded\") */\n      0x04\n      dup3\n      add\n        /* \"#utility.yul\":4702:4723   */\n      mstore\n        /* \"#utility.yul\":4759:4761   */\n      0x0f\n        /* \"#utility.yul\":4739:4757   */\n      0x24\n      dup3\n      add\n        /* \"#utility.yul\":4732:4762   */\n      mstore\n      shl(0x8a, 0x141bdbdb081b9bdd08199d5b991959)\n        /* \"#utility.yul\":4778:4796   */\n      0x44\n      dup3\n      add\n        /* \"#utility.yul\":4771:4816   */\n      mstore\n        /* \"#utility.yul\":4833:4851   */\n      0x64\n      add\n        /* \"contracts/contracts/protocol/TuliaFlashPool.sol\":4674:4732  require(state == FlashLoanState.FUNDED, \"Pool not funded\") */\n    tag_122:\n      mload(0x40)\n      dup1\n      swap2\n      sub\n      swap1\n      revert\n    tag_121:\n        /* \"contracts/contracts/protocol/TuliaFlashPool.sol\":4742:4755  poolOrganizer */\n      sload(0x03)\n        /* \"contracts/contracts/protocol/TuliaFlashPool.sol\":4742:4820  poolOrganizer.updateLoanState(address(this), IPoolOrganizer.LoanState.PENDING) */\n      mload(0x40)\n      shl(0xe0, 0xa956239b)\n      dup2\n      mstore\n      sub(shl(0xa0, 0x01), 0x01)\n        /* \"contracts/contracts/protocol/TuliaFlashPool.sol\":4742:4755  poolOrganizer */\n      swap1\n      swap2\n      and\n      swap1\n        /* \"contracts/contracts/protocol/TuliaFlashPool.sol\":4742:4771  poolOrganizer.updateLoanState */\n      0xa956239b\n      swap1\n        /* \"contracts/contracts/protocol/TuliaFlashPool.sol\":4742:4820  poolOrganizer.updateLoanState(address(this), IPoolOrganizer.LoanState.PENDING) */\n      tag_124\n      swap1\n        /* \"contracts/contracts/protocol/TuliaFlashPool.sol\":4780:4784  this */\n      address\n      swap1\n        /* \"contracts/contracts/protocol/TuliaFlashPool.sol\":4742:4755  poolOrganizer */\n      0x01\n      swap1\n        /* \"contracts/contracts/protocol/TuliaFlashPool.sol\":4742:4820  poolOrganizer.updateLoanState(address(this), IPoolOrganizer.LoanState.PENDING) */\n      0x04\n      add\n      tag_125\n      jump\t// in\n    tag_124:\n      0x00\n      mload(0x40)\n      dup1\n      dup4\n      sub\n      dup2\n      0x00\n      dup8\n      dup1\n      extcodesize\n      iszero\n      dup1\n      iszero\n      tag_126\n      jumpi\n      0x00\n      dup1\n      revert\n    tag_126:\n      pop\n      gas\n      call\n      iszero\n      dup1\n      iszero\n      tag_128\n      jumpi\n      returndatasize\n      0x00\n      dup1\n      returndatacopy\n      revert(0x00, returndatasize)\n    tag_128:\n      pop\n      pop\n      pop\n      pop\n        /* \"contracts/contracts/protocol/TuliaFlashPool.sol\":4837:4885  _executeFlashLoan(receiver, token, amount, data) */\n      tag_129\n        /* \"contracts/contracts/protocol/TuliaFlashPool.sol\":4855:4863  receiver */\n      dup7\n        /* \"contracts/contracts/protocol/TuliaFlashPool.sol\":4865:4870  token */\n      dup7\n        /* \"contracts/contracts/protocol/TuliaFlashPool.sol\":4872:4878  amount */\n      dup7\n        /* \"contracts/contracts/protocol/TuliaFlashPool.sol\":4880:4884  data */\n      dup7\n      dup7\n        /* \"contracts/contracts/protocol/TuliaFlashPool.sol\":4837:4854  _executeFlashLoan */\n      tag_130\n        /* \"contracts/contracts/protocol/TuliaFlashPool.sol\":4837:4885  _executeFlashLoan(receiver, token, amount, data) */\n      jump\t// in\n    tag_129:\n        /* \"contracts/contracts/protocol/TuliaFlashPool.sol\":4830:4885  return _executeFlashLoan(receiver, token, amount, data) */\n      swap1\n      pop\n        /* \"@openzeppelin/contracts/security/ReentrancyGuard.sol\":2303:2323  _nonReentrantAfter() */\n      tag_131\n        /* \"@openzeppelin/contracts/security/ReentrancyGuard.sol\":1716:1717  1 */\n      0x01\n        /* \"@openzeppelin/contracts/security/ReentrancyGuard.sol\":2809:2816  _status */\n      0x00\n        /* \"@openzeppelin/contracts/security/ReentrancyGuard.sol\":2809:2831  _status = _NOT_ENTERED */\n      sstore\n        /* \"@openzeppelin/contracts/security/ReentrancyGuard.sol\":2629:2838  function _nonReentrantAfter() private {... */\n      jump\n        /* \"@openzeppelin/contracts/security/ReentrancyGuard.sol\":2303:2323  _nonReentrantAfter() */\n    tag_131:\n        /* \"contracts/contracts/protocol/TuliaFlashPool.sol\":4477:4892  function flashLoan(... */\n      swap6\n      swap5\n      pop\n      pop\n      pop\n      pop\n      pop\n      jump\t// out\n        /* \"contracts/contracts/protocol/TuliaFlashPool.sol\":3330:3526  function maxFlashLoan(address token)... */\n    tag_57:\n        /* \"contracts/contracts/protocol/TuliaFlashPool.sol\":3476:3481  asset */\n      sload(0x02)\n        /* \"contracts/contracts/protocol/TuliaFlashPool.sol\":3429:3436  uint256 */\n      0x00\n      swap1\n      sub(shl(0xa0, 0x01), 0x01)\n        /* \"contracts/contracts/protocol/TuliaFlashPool.sol\":3459:3482  token == address(asset) */\n      dup4\n      dup2\n      and\n        /* \"contracts/contracts/protocol/TuliaFlashPool.sol\":3476:3481  asset */\n      swap2\n      and\n        /* \"contracts/contracts/protocol/TuliaFlashPool.sol\":3459:3482  token == address(asset) */\n      eq\n        /* \"contracts/contracts/protocol/TuliaFlashPool.sol\":3459:3519  token == address(asset) ? asset.balanceOf(address(this)) : 0 */\n      tag_134\n      jumpi\n        /* \"contracts/contracts/protocol/TuliaFlashPool.sol\":3518:3519  0 */\n      0x00\n        /* \"contracts/contracts/protocol/TuliaFlashPool.sol\":3459:3519  token == address(asset) ? asset.balanceOf(address(this)) : 0 */\n      jump(tag_96)\n    tag_134:\n        /* \"contracts/contracts/protocol/TuliaFlashPool.sol\":3485:3490  asset */\n      sload(0x02)\n        /* \"contracts/contracts/protocol/TuliaFlashPool.sol\":3485:3515  asset.balanceOf(address(this)) */\n      mload(0x40)\n      shl(0xe0, 0x70a08231)\n      dup2\n      mstore\n        /* \"contracts/contracts/protocol/TuliaFlashPool.sol\":3509:3513  this */\n      address\n        /* \"contracts/contracts/protocol/TuliaFlashPool.sol\":3485:3515  asset.balanceOf(address(this)) */\n      0x04\n      dup3\n      add\n        /* \"#utility.yul\":1578:1629   */\n      mstore\n      sub(shl(0xa0, 0x01), 0x01)\n        /* \"contracts/contracts/protocol/TuliaFlashPool.sol\":3485:3490  asset */\n      swap1\n      swap2\n      and\n      swap1\n        /* \"contracts/contracts/protocol/TuliaFlashPool.sol\":3485:3500  asset.balanceOf */\n      0x70a08231\n      swap1\n        /* \"#utility.yul\":1551:1569   */\n      0x24\n      add\n        /* \"contracts/contracts/protocol/TuliaFlashPool.sol\":3485:3515  asset.balanceOf(address(this)) */\n      0x20\n      mload(0x40)\n      dup1\n      dup4\n      sub\n      dup2\n      dup7\n      gas\n      staticcall\n      iszero\n      dup1\n      iszero\n      tag_138\n      jumpi\n      returndatasize\n      0x00\n      dup1\n      returndatacopy\n      revert(0x00, returndatasize)\n    tag_138:\n      pop\n      pop\n      pop\n      pop\n      mload(0x40)\n      returndatasize\n      not(0x1f)\n      0x1f\n      dup3\n      add\n      and\n      dup3\n      add\n      dup1\n      0x40\n      mstore\n      pop\n      dup2\n      add\n      swap1\n      tag_96\n      swap2\n      swap1\n      tag_140\n      jump\t// in\n        /* \"contracts/contracts/protocol/TuliaFlashPool.sol\":2496:3111  function fundLoan(uint256 amount) external nonReentrant {... */\n    tag_63:\n        /* \"@openzeppelin/contracts/security/ReentrancyGuard.sol\":2261:2282  _nonReentrantBefore() */\n      tag_142\n        /* \"@openzeppelin/contracts/security/ReentrancyGuard.sol\":2261:2280  _nonReentrantBefore */\n      tag_114\n        /* \"@openzeppelin/contracts/security/ReentrancyGuard.sol\":2261:2282  _nonReentrantBefore() */\n      jump\t// in\n    tag_142:\n        /* \"contracts/contracts/protocol/TuliaFlashPool.sol\":2579:2580  0 */\n      0x00\n        /* \"contracts/contracts/protocol/TuliaFlashPool.sol\":2570:2576  amount */\n      dup2\n        /* \"contracts/contracts/protocol/TuliaFlashPool.sol\":2570:2580  amount > 0 */\n      gt\n        /* \"contracts/contracts/protocol/TuliaFlashPool.sol\":2562:2617  require(amount > 0, \"Amount must be greater than zero\") */\n      tag_144\n      jumpi\n      mload(0x40)\n      shl(0xe5, 0x461bcd)\n      dup2\n      mstore\n        /* \"#utility.yul\":5599:5601   */\n      0x20\n        /* \"contracts/contracts/protocol/TuliaFlashPool.sol\":2562:2617  require(amount > 0, \"Amount must be greater than zero\") */\n      0x04\n      dup3\n      add\n        /* \"#utility.yul\":5581:5602   */\n      dup2\n      swap1\n      mstore\n        /* \"#utility.yul\":5618:5636   */\n      0x24\n      dup3\n      add\n        /* \"#utility.yul\":5611:5641   */\n      mstore\n        /* \"#utility.yul\":5677:5711   */\n      0x416d6f756e74206d7573742062652067726561746572207468616e207a65726f\n        /* \"#utility.yul\":5657:5675   */\n      0x44\n      dup3\n      add\n        /* \"#utility.yul\":5650:5712   */\n      mstore\n        /* \"#utility.yul\":5729:5747   */\n      0x64\n      add\n        /* \"contracts/contracts/protocol/TuliaFlashPool.sol\":2562:2617  require(amount > 0, \"Amount must be greater than zero\") */\n      tag_122\n        /* \"#utility.yul\":5397:5753   */\n      jump\n        /* \"contracts/contracts/protocol/TuliaFlashPool.sol\":2562:2617  require(amount > 0, \"Amount must be greater than zero\") */\n    tag_144:\n        /* \"contracts/contracts/protocol/TuliaFlashPool.sol\":2648:2653  asset */\n      sload(0x02)\n        /* \"contracts/contracts/protocol/TuliaFlashPool.sol\":2648:2690  asset.allowance(msg.sender, address(this)) */\n      mload(0x40)\n      shl(0xe1, 0x6eb1769f)\n      dup2\n      mstore\n        /* \"contracts/contracts/protocol/TuliaFlashPool.sol\":2664:2674  msg.sender */\n      caller\n        /* \"contracts/contracts/protocol/TuliaFlashPool.sol\":2648:2690  asset.allowance(msg.sender, address(this)) */\n      0x04\n      dup3\n      add\n        /* \"#utility.yul\":5932:5983   */\n      mstore\n        /* \"contracts/contracts/protocol/TuliaFlashPool.sol\":2684:2688  this */\n      address\n        /* \"#utility.yul\":5999:6017   */\n      0x24\n      dup3\n      add\n        /* \"#utility.yul\":5992:6052   */\n      mstore\n        /* \"contracts/contracts/protocol/TuliaFlashPool.sol\":2694:2700  amount */\n      dup3\n      swap2\n      sub(shl(0xa0, 0x01), 0x01)\n        /* \"contracts/contracts/protocol/TuliaFlashPool.sol\":2648:2653  asset */\n      and\n      swap1\n        /* \"contracts/contracts/protocol/TuliaFlashPool.sol\":2648:2663  asset.allowance */\n      0xdd62ed3e\n      swap1\n        /* \"#utility.yul\":5905:5923   */\n      0x44\n      add\n        /* \"contracts/contracts/protocol/TuliaFlashPool.sol\":2648:2690  asset.allowance(msg.sender, address(this)) */\n      0x20\n      mload(0x40)\n      dup1\n      dup4\n      sub\n      dup2\n      dup7\n      gas\n      staticcall\n      iszero\n      dup1\n      iszero\n      tag_150\n      jumpi\n      returndatasize\n      0x00\n      dup1\n      returndatacopy\n      revert(0x00, returndatasize)\n    tag_150:\n      pop\n      pop\n      pop\n      pop\n      mload(0x40)\n      returndatasize\n      not(0x1f)\n      0x1f\n      dup3\n      add\n      and\n      dup3\n      add\n      dup1\n      0x40\n      mstore\n      pop\n      dup2\n      add\n      swap1\n      tag_151\n      swap2\n      swap1\n      tag_140\n      jump\t// in\n    tag_151:\n        /* \"contracts/contracts/protocol/TuliaFlashPool.sol\":2648:2700  asset.allowance(msg.sender, address(this)) >= amount */\n      lt\n      iszero\n        /* \"contracts/contracts/protocol/TuliaFlashPool.sol\":2627:2758  require(... */\n      tag_152\n      jumpi\n      mload(0x40)\n      shl(0xe5, 0x461bcd)\n      dup2\n      mstore\n        /* \"#utility.yul\":6265:6267   */\n      0x20\n        /* \"contracts/contracts/protocol/TuliaFlashPool.sol\":2627:2758  require(... */\n      0x04\n      dup3\n      add\n        /* \"#utility.yul\":6247:6268   */\n      dup2\n      swap1\n      mstore\n        /* \"#utility.yul\":6284:6302   */\n      0x24\n      dup3\n      add\n        /* \"#utility.yul\":6277:6307   */\n      mstore\n        /* \"#utility.yul\":6343:6377   */\n      0x416c6c6f77616e6365206e6f742073657420666f722074686520616d6f756e74\n        /* \"#utility.yul\":6323:6341   */\n      0x44\n      dup3\n      add\n        /* \"#utility.yul\":6316:6378   */\n      mstore\n        /* \"#utility.yul\":6395:6413   */\n      0x64\n      add\n        /* \"contracts/contracts/protocol/TuliaFlashPool.sol\":2627:2758  require(... */\n      tag_122\n        /* \"#utility.yul\":6063:6419   */\n      jump\n        /* \"contracts/contracts/protocol/TuliaFlashPool.sol\":2627:2758  require(... */\n    tag_152:\n        /* \"contracts/contracts/protocol/TuliaFlashPool.sol\":2769:2774  asset */\n      sload(0x02)\n        /* \"contracts/contracts/protocol/TuliaFlashPool.sol\":2769:2822  asset.transferFrom(msg.sender, address(this), amount) */\n      mload(0x40)\n      shl(0xe0, 0x23b872dd)\n      dup2\n      mstore\n        /* \"contracts/contracts/protocol/TuliaFlashPool.sol\":2788:2798  msg.sender */\n      caller\n        /* \"contracts/contracts/protocol/TuliaFlashPool.sol\":2769:2822  asset.transferFrom(msg.sender, address(this), amount) */\n      0x04\n      dup3\n      add\n        /* \"#utility.yul\":6626:6677   */\n      mstore\n        /* \"contracts/contracts/protocol/TuliaFlashPool.sol\":2808:2812  this */\n      address\n        /* \"#utility.yul\":6693:6711   */\n      0x24\n      dup3\n      add\n        /* \"#utility.yul\":6686:6746   */\n      mstore\n        /* \"#utility.yul\":6762:6780   */\n      0x44\n      dup2\n      add\n        /* \"#utility.yul\":6755:6789   */\n      dup4\n      swap1\n      mstore\n      sub(shl(0xa0, 0x01), 0x01)\n        /* \"contracts/contracts/protocol/TuliaFlashPool.sol\":2769:2774  asset */\n      swap1\n      swap2\n      and\n      swap1\n        /* \"contracts/contracts/protocol/TuliaFlashPool.sol\":2769:2787  asset.transferFrom */\n      0x23b872dd\n      swap1\n        /* \"#utility.yul\":6599:6617   */\n      0x64\n      add\n        /* \"contracts/contracts/protocol/TuliaFlashPool.sol\":2769:2822  asset.transferFrom(msg.sender, address(this), amount) */\n      0x20\n      mload(0x40)\n      dup1\n      dup4\n      sub\n      dup2\n      0x00\n      dup8\n      gas\n      call\n      iszero\n      dup1\n      iszero\n      tag_158\n      jumpi\n      returndatasize\n      0x00\n      dup1\n      returndatacopy\n      revert(0x00, returndatasize)\n    tag_158:\n      pop\n      pop\n      pop\n      pop\n      mload(0x40)\n      returndatasize\n      not(0x1f)\n      0x1f\n      dup3\n      add\n      and\n      dup3\n      add\n      dup1\n      0x40\n      mstore\n      pop\n      dup2\n      add\n      swap1\n      tag_159\n      swap2\n      swap1\n      tag_160\n      jump\t// in\n    tag_159:\n      pop\n        /* \"contracts/contracts/protocol/TuliaFlashPool.sol\":2833:2868  _grantRole(LENDER_ROLE, msg.sender) */\n      tag_161\n        /* \"contracts/contracts/protocol/TuliaFlashPool.sol\":886:910  keccak256(\"LENDER_ROLE\") */\n      0xc60d7a62d8843f2b14bc63f2a5240b187980481ad8c001a3caf4916aef3f667e\n        /* \"contracts/contracts/protocol/TuliaFlashPool.sol\":2857:2867  msg.sender */\n      caller\n        /* \"contracts/contracts/protocol/TuliaFlashPool.sol\":2833:2843  _grantRole */\n      tag_105\n        /* \"contracts/contracts/protocol/TuliaFlashPool.sol\":2833:2868  _grantRole(LENDER_ROLE, msg.sender) */\n      jump\t// in\n    tag_161:\n      pop\n        /* \"contracts/contracts/protocol/TuliaFlashPool.sol\":2878:2884  lender */\n      0x04\n        /* \"contracts/contracts/protocol/TuliaFlashPool.sol\":2878:2897  lender = msg.sender */\n      dup1\n      sload\n      not(sub(shl(0xa0, 0x01), 0x01))\n      and\n        /* \"contracts/contracts/protocol/TuliaFlashPool.sol\":2887:2897  msg.sender */\n      caller\n        /* \"contracts/contracts/protocol/TuliaFlashPool.sol\":2878:2897  lender = msg.sender */\n      or\n      dup2\n      sstore\n        /* \"contracts/contracts/protocol/TuliaFlashPool.sol\":2934:2939  state */\n      0x06\n        /* \"contracts/contracts/protocol/TuliaFlashPool.sol\":2934:2963  state = FlashLoanState.FUNDED */\n      dup1\n      sload\n      not(0xff)\n      and\n      dup2\n      sstore\n        /* \"contracts/contracts/protocol/TuliaFlashPool.sol\":2973:2986  poolOrganizer */\n      sload(0x03)\n        /* \"contracts/contracts/protocol/TuliaFlashPool.sol\":2973:3050  poolOrganizer.updateLoanState(address(this), IPoolOrganizer.LoanState.FUNDED) */\n      mload(0x40)\n      shl(0xe0, 0xa956239b)\n      dup2\n      mstore\n      sub(shl(0xa0, 0x01), 0x01)\n        /* \"contracts/contracts/protocol/TuliaFlashPool.sol\":2973:2986  poolOrganizer */\n      swap1\n      swap2\n      and\n      swap3\n        /* \"contracts/contracts/protocol/TuliaFlashPool.sol\":2973:3002  poolOrganizer.updateLoanState */\n      0xa956239b\n      swap3\n        /* \"contracts/contracts/protocol/TuliaFlashPool.sol\":2973:3050  poolOrganizer.updateLoanState(address(this), IPoolOrganizer.LoanState.FUNDED) */\n      tag_164\n      swap3\n        /* \"contracts/contracts/protocol/TuliaFlashPool.sol\":3011:3015  this */\n      address\n      swap3\n        /* \"contracts/contracts/protocol/TuliaFlashPool.sol\":2973:3050  poolOrganizer.updateLoanState(address(this), IPoolOrganizer.LoanState.FUNDED) */\n      add\n      tag_125\n      jump\t// in\n    tag_164:\n      0x00\n      mload(0x40)\n      dup1\n      dup4\n      sub\n      dup2\n      0x00\n      dup8\n      dup1\n      extcodesize\n      iszero\n      dup1\n      iszero\n      tag_165\n      jumpi\n      0x00\n      dup1\n      revert\n    tag_165:\n      pop\n      gas\n      call\n      iszero\n      dup1\n      iszero\n      tag_167\n      jumpi\n      returndatasize\n      0x00\n      dup1\n      returndatacopy\n      revert(0x00, returndatasize)\n    tag_167:\n      pop\n      pop\n        /* \"contracts/contracts/protocol/TuliaFlashPool.sol\":3074:3104  LoanFunded(msg.sender, amount) */\n      mload(0x40)\n        /* \"#utility.yul\":160:185   */\n      dup4\n      dup2\n      mstore\n        /* \"contracts/contracts/protocol/TuliaFlashPool.sol\":3085:3095  msg.sender */\n      caller\n      swap3\n      pop\n        /* \"contracts/contracts/protocol/TuliaFlashPool.sol\":3074:3104  LoanFunded(msg.sender, amount) */\n      0x726d5f1a838fe31748f737fa3ae5539ccff95952adfc593a1299532b643ff7a8\n      swap2\n      pop\n        /* \"#utility.yul\":148:150   */\n      0x20\n        /* \"#utility.yul\":133:151   */\n      add\n        /* \"contracts/contracts/protocol/TuliaFlashPool.sol\":3074:3104  LoanFunded(msg.sender, amount) */\n      mload(0x40)\n      dup1\n      swap2\n      sub\n      swap1\n      log2\n        /* \"@openzeppelin/contracts/security/ReentrancyGuard.sol\":2303:2323  _nonReentrantAfter() */\n      tag_169\n        /* \"@openzeppelin/contracts/security/ReentrancyGuard.sol\":1716:1717  1 */\n      0x01\n        /* \"@openzeppelin/contracts/security/ReentrancyGuard.sol\":2809:2816  _status */\n      0x00\n        /* \"@openzeppelin/contracts/security/ReentrancyGuard.sol\":2809:2831  _status = _NOT_ENTERED */\n      sstore\n        /* \"@openzeppelin/contracts/security/ReentrancyGuard.sol\":2629:2838  function _nonReentrantAfter() private {... */\n      jump\n        /* \"@openzeppelin/contracts/security/ReentrancyGuard.sol\":2303:2323  _nonReentrantAfter() */\n    tag_169:\n        /* \"contracts/contracts/protocol/TuliaFlashPool.sol\":2496:3111  function fundLoan(uint256 amount) external nonReentrant {... */\n      pop\n      jump\t// out\n        /* \"@openzeppelin/contracts/access/AccessControl.sol\":2854:2990  function hasRole(bytes32 role, address account) public view virtual returns (bool) {... */\n    tag_69:\n        /* \"@openzeppelin/contracts/access/AccessControl.sol\":2931:2935  bool */\n      0x00\n        /* \"@openzeppelin/contracts/access/AccessControl.sol\":2954:2966  _roles[role] */\n      swap2\n      dup3\n      mstore\n        /* \"@openzeppelin/contracts/access/AccessControl.sol\":2954:2960  _roles */\n      0x01\n        /* \"@openzeppelin/contracts/access/AccessControl.sol\":2954:2966  _roles[role] */\n      0x20\n      swap1\n      dup2\n      mstore\n      0x40\n      dup1\n      dup5\n      keccak256\n      sub(shl(0xa0, 0x01), 0x01)\n        /* \"@openzeppelin/contracts/access/AccessControl.sol\":2954:2983  _roles[role].hasRole[account] */\n      swap4\n      swap1\n      swap4\n      and\n      dup5\n      mstore\n      swap2\n      swap1\n      mstore\n      swap1\n      keccak256\n      sload\n      0xff\n      and\n      swap1\n        /* \"@openzeppelin/contracts/access/AccessControl.sol\":2854:2990  function hasRole(bytes32 role, address account) public view virtual returns (bool) {... */\n      jump\t// out\n        /* \"@openzeppelin/contracts/access/AccessControl.sol\":4642:4780  function revokeRole(bytes32 role, address account) public virtual onlyRole(getRoleAdmin(role)) {... */\n    tag_88:\n        /* \"@openzeppelin/contracts/access/AccessControl.sol\":3875:3882  bytes32 */\n      0x00\n        /* \"@openzeppelin/contracts/access/AccessControl.sol\":3901:3913  _roles[role] */\n      dup3\n      dup2\n      mstore\n        /* \"@openzeppelin/contracts/access/AccessControl.sol\":3901:3907  _roles */\n      0x01\n        /* \"@openzeppelin/contracts/access/AccessControl.sol\":3901:3913  _roles[role] */\n      0x20\n      dup2\n      swap1\n      mstore\n      0x40\n      swap1\n      swap2\n      keccak256\n        /* \"@openzeppelin/contracts/access/AccessControl.sol\":3901:3923  _roles[role].adminRole */\n      add\n      sload\n        /* \"@openzeppelin/contracts/access/AccessControl.sol\":2464:2480  _checkRole(role) */\n      tag_173\n        /* \"@openzeppelin/contracts/access/AccessControl.sol\":2475:2479  role */\n      dup2\n        /* \"@openzeppelin/contracts/access/AccessControl.sol\":2464:2474  _checkRole */\n      tag_102\n        /* \"@openzeppelin/contracts/access/AccessControl.sol\":2464:2480  _checkRole(role) */\n      jump\t// in\n    tag_173:\n        /* \"@openzeppelin/contracts/access/AccessControl.sol\":4747:4773  _revokeRole(role, account) */\n      tag_104\n        /* \"@openzeppelin/contracts/access/AccessControl.sol\":4759:4763  role */\n      dup4\n        /* \"@openzeppelin/contracts/access/AccessControl.sol\":4765:4772  account */\n      dup4\n        /* \"@openzeppelin/contracts/access/AccessControl.sol\":4747:4758  _revokeRole */\n      tag_111\n        /* \"@openzeppelin/contracts/access/AccessControl.sol\":4747:4773  _revokeRole(role, account) */\n      jump\t// in\n        /* \"contracts/contracts/protocol/TuliaFlashPool.sol\":3758:4039  function flashFee(address token, uint256 amount)... */\n    tag_92:\n        /* \"contracts/contracts/protocol/TuliaFlashPool.sol\":3917:3922  asset */\n      sload(0x02)\n        /* \"contracts/contracts/protocol/TuliaFlashPool.sol\":3869:3876  uint256 */\n      0x00\n      swap1\n      sub(shl(0xa0, 0x01), 0x01)\n        /* \"contracts/contracts/protocol/TuliaFlashPool.sol\":3900:3923  token == address(asset) */\n      dup5\n      dup2\n      and\n        /* \"contracts/contracts/protocol/TuliaFlashPool.sol\":3917:3922  asset */\n      swap2\n      and\n        /* \"contracts/contracts/protocol/TuliaFlashPool.sol\":3900:3923  token == address(asset) */\n      eq\n        /* \"contracts/contracts/protocol/TuliaFlashPool.sol\":3892:3945  require(token == address(asset), \"Unsupported token\") */\n      tag_177\n      jumpi\n      mload(0x40)\n      shl(0xe5, 0x461bcd)\n      dup2\n      mstore\n        /* \"#utility.yul\":7284:7286   */\n      0x20\n        /* \"contracts/contracts/protocol/TuliaFlashPool.sol\":3892:3945  require(token == address(asset), \"Unsupported token\") */\n      0x04\n      dup3\n      add\n        /* \"#utility.yul\":7266:7287   */\n      mstore\n        /* \"#utility.yul\":7323:7325   */\n      0x11\n        /* \"#utility.yul\":7303:7321   */\n      0x24\n      dup3\n      add\n        /* \"#utility.yul\":7296:7326   */\n      mstore\n      shl(0x79, 0x2ab739bab83837b93a32b2103a37b5b2b7)\n        /* \"#utility.yul\":7342:7360   */\n      0x44\n      dup3\n      add\n        /* \"#utility.yul\":7335:7382   */\n      mstore\n        /* \"#utility.yul\":7399:7417   */\n      0x64\n      add\n        /* \"contracts/contracts/protocol/TuliaFlashPool.sol\":3892:3945  require(token == address(asset), \"Unsupported token\") */\n      tag_122\n        /* \"#utility.yul\":7082:7423   */\n      jump\n        /* \"contracts/contracts/protocol/TuliaFlashPool.sol\":3892:3945  require(token == address(asset), \"Unsupported token\") */\n    tag_177:\n        /* \"contracts/contracts/protocol/TuliaFlashPool.sol\":3955:3970  uint256 userFee */\n      0x00\n        /* \"contracts/contracts/protocol/TuliaFlashPool.sol\":4003:4008  10000 */\n      0x2710\n        /* \"contracts/contracts/protocol/TuliaFlashPool.sol\":3983:3999  flashLoanFeeRate */\n      sload(0x05)\n        /* \"contracts/contracts/protocol/TuliaFlashPool.sol\":3974:3980  amount */\n      dup5\n        /* \"contracts/contracts/protocol/TuliaFlashPool.sol\":3974:3999  amount * flashLoanFeeRate */\n      tag_180\n      swap2\n      swap1\n      tag_181\n      jump\t// in\n    tag_180:\n        /* \"contracts/contracts/protocol/TuliaFlashPool.sol\":3973:4008  (amount * flashLoanFeeRate) / 10000 */\n      tag_182\n      swap2\n      swap1\n      tag_183\n      jump\t// in\n    tag_182:\n        /* \"contracts/contracts/protocol/TuliaFlashPool.sol\":3955:4008  uint256 userFee = (amount * flashLoanFeeRate) / 10000 */\n      swap5\n        /* \"contracts/contracts/protocol/TuliaFlashPool.sol\":3758:4039  function flashFee(address token, uint256 amount)... */\n      swap4\n      pop\n      pop\n      pop\n      pop\n      jump\t// out\n        /* \"@openzeppelin/contracts/access/AccessControl.sol\":3199:3302  function _checkRole(bytes32 role) internal view virtual {... */\n    tag_102:\n        /* \"@openzeppelin/contracts/access/AccessControl.sol\":3265:3295  _checkRole(role, _msgSender()) */\n      tag_169\n        /* \"@openzeppelin/contracts/access/AccessControl.sol\":3276:3280  role */\n      dup2\n        /* \"@openzeppelin/contracts/utils/Context.sol\":735:745  msg.sender */\n      caller\n        /* \"@openzeppelin/contracts/access/AccessControl.sol\":3265:3275  _checkRole */\n      tag_188\n        /* \"@openzeppelin/contracts/access/AccessControl.sol\":3265:3295  _checkRole(role, _msgSender()) */\n      jump\t// in\n        /* \"@openzeppelin/contracts/access/AccessControl.sol\":6179:6495  function _grantRole(bytes32 role, address account) internal virtual returns (bool) {... */\n    tag_105:\n        /* \"@openzeppelin/contracts/access/AccessControl.sol\":6256:6260  bool */\n      0x00\n        /* \"@openzeppelin/contracts/access/AccessControl.sol\":6277:6299  hasRole(role, account) */\n      tag_190\n        /* \"@openzeppelin/contracts/access/AccessControl.sol\":6285:6289  role */\n      dup4\n        /* \"@openzeppelin/contracts/access/AccessControl.sol\":6291:6298  account */\n      dup4\n        /* \"@openzeppelin/contracts/access/AccessControl.sol\":6277:6284  hasRole */\n      tag_69\n        /* \"@openzeppelin/contracts/access/AccessControl.sol\":6277:6299  hasRole(role, account) */\n      jump\t// in\n    tag_190:\n        /* \"@openzeppelin/contracts/access/AccessControl.sol\":6272:6489  if (!hasRole(role, account)) {... */\n      tag_191\n      jumpi\n        /* \"@openzeppelin/contracts/access/AccessControl.sol\":6315:6327  _roles[role] */\n      0x00\n      dup4\n      dup2\n      mstore\n        /* \"@openzeppelin/contracts/access/AccessControl.sol\":6347:6351  true */\n      0x01\n        /* \"@openzeppelin/contracts/access/AccessControl.sol\":6315:6327  _roles[role] */\n      0x20\n      dup2\n      dup2\n      mstore\n      0x40\n      dup1\n      dup5\n      keccak256\n      sub(shl(0xa0, 0x01), 0x01)\n        /* \"@openzeppelin/contracts/access/AccessControl.sol\":6315:6344  _roles[role].hasRole[account] */\n      dup8\n      and\n      dup1\n      dup7\n      mstore\n      swap3\n      mstore\n      dup1\n      dup5\n      keccak256\n        /* \"@openzeppelin/contracts/access/AccessControl.sol\":6315:6351  _roles[role].hasRole[account] = true */\n      dup1\n      sload\n      not(0xff)\n      and\n      swap1\n      swap4\n      or\n      swap1\n      swap3\n      sstore\n        /* \"@openzeppelin/contracts/access/AccessControl.sol\":6370:6410  RoleGranted(role, account, _msgSender()) */\n      swap1\n      mload\n        /* \"@openzeppelin/contracts/utils/Context.sol\":735:745  msg.sender */\n      caller\n      swap3\n        /* \"@openzeppelin/contracts/access/AccessControl.sol\":6315:6327  _roles[role] */\n      dup7\n      swap2\n        /* \"@openzeppelin/contracts/access/AccessControl.sol\":6370:6410  RoleGranted(role, account, _msgSender()) */\n      0x2f8788117e7eff1d82e926ec794901d17c78024a50270940304540a733656f0d\n      swap2\n        /* \"@openzeppelin/contracts/access/AccessControl.sol\":6315:6327  _roles[role] */\n      swap1\n        /* \"@openzeppelin/contracts/access/AccessControl.sol\":6370:6410  RoleGranted(role, account, _msgSender()) */\n      log4\n      pop\n        /* \"@openzeppelin/contracts/access/AccessControl.sol\":6431:6435  true */\n      0x01\n        /* \"@openzeppelin/contracts/access/AccessControl.sol\":6424:6435  return true */\n      jump(tag_96)\n        /* \"@openzeppelin/contracts/access/AccessControl.sol\":6272:6489  if (!hasRole(role, account)) {... */\n    tag_191:\n      pop\n        /* \"@openzeppelin/contracts/access/AccessControl.sol\":6473:6478  false */\n      0x00\n        /* \"@openzeppelin/contracts/access/AccessControl.sol\":6466:6478  return false */\n      jump(tag_96)\n        /* \"@openzeppelin/contracts/access/AccessControl.sol\":6730:7047  function _revokeRole(bytes32 role, address account) internal virtual returns (bool) {... */\n    tag_111:\n        /* \"@openzeppelin/contracts/access/AccessControl.sol\":6808:6812  bool */\n      0x00\n        /* \"@openzeppelin/contracts/access/AccessControl.sol\":6828:6850  hasRole(role, account) */\n      tag_196\n        /* \"@openzeppelin/contracts/access/AccessControl.sol\":6836:6840  role */\n      dup4\n        /* \"@openzeppelin/contracts/access/AccessControl.sol\":6842:6849  account */\n      dup4\n        /* \"@openzeppelin/contracts/access/AccessControl.sol\":6828:6835  hasRole */\n      tag_69\n        /* \"@openzeppelin/contracts/access/AccessControl.sol\":6828:6850  hasRole(role, account) */\n      jump\t// in\n    tag_196:\n        /* \"@openzeppelin/contracts/access/AccessControl.sol\":6824:7041  if (hasRole(role, account)) {... */\n      iszero\n      tag_191\n      jumpi\n        /* \"@openzeppelin/contracts/access/AccessControl.sol\":6898:6903  false */\n      0x00\n        /* \"@openzeppelin/contracts/access/AccessControl.sol\":6866:6878  _roles[role] */\n      dup4\n      dup2\n      mstore\n        /* \"@openzeppelin/contracts/access/AccessControl.sol\":6866:6872  _roles */\n      0x01\n        /* \"@openzeppelin/contracts/access/AccessControl.sol\":6866:6878  _roles[role] */\n      0x20\n      swap1\n      dup2\n      mstore\n      0x40\n      dup1\n      dup4\n      keccak256\n      sub(shl(0xa0, 0x01), 0x01)\n        /* \"@openzeppelin/contracts/access/AccessControl.sol\":6866:6895  _roles[role].hasRole[account] */\n      dup7\n      and\n      dup1\n      dup6\n      mstore\n      swap3\n      mstore\n      dup1\n      dup4\n      keccak256\n        /* \"@openzeppelin/contracts/access/AccessControl.sol\":6866:6903  _roles[role].hasRole[account] = false */\n      dup1\n      sload\n      not(0xff)\n      and\n      swap1\n      sstore\n        /* \"@openzeppelin/contracts/access/AccessControl.sol\":6922:6962  RoleRevoked(role, account, _msgSender()) */\n      mload\n        /* \"@openzeppelin/contracts/utils/Context.sol\":735:745  msg.sender */\n      caller\n      swap3\n        /* \"@openzeppelin/contracts/access/AccessControl.sol\":6866:6878  _roles[role] */\n      dup7\n      swap2\n        /* \"@openzeppelin/contracts/access/AccessControl.sol\":6922:6962  RoleRevoked(role, account, _msgSender()) */\n      0xf6391f5c32d9c69d2a47ea670b442974b53935d1edc7fd64eb21e047a839171b\n      swap2\n        /* \"@openzeppelin/contracts/access/AccessControl.sol\":6898:6903  false */\n      swap1\n        /* \"@openzeppelin/contracts/access/AccessControl.sol\":6922:6962  RoleRevoked(role, account, _msgSender()) */\n      log4\n      pop\n        /* \"@openzeppelin/contracts/access/AccessControl.sol\":6983:6987  true */\n      0x01\n        /* \"@openzeppelin/contracts/access/AccessControl.sol\":6976:6987  return true */\n      jump(tag_96)\n        /* \"@openzeppelin/contracts/security/ReentrancyGuard.sol\":2336:2623  function _nonReentrantBefore() private {... */\n    tag_114:\n        /* \"@openzeppelin/contracts/security/ReentrancyGuard.sol\":1759:1760  2 */\n      0x02\n        /* \"@openzeppelin/contracts/security/ReentrancyGuard.sol\":2468:2475  _status */\n      sload(0x00)\n        /* \"@openzeppelin/contracts/security/ReentrancyGuard.sol\":2468:2487  _status != _ENTERED */\n      sub\n        /* \"@openzeppelin/contracts/security/ReentrancyGuard.sol\":2460:2523  require(_status != _ENTERED, \"ReentrancyGuard: reentrant call\") */\n      tag_201\n      jumpi\n      mload(0x40)\n      shl(0xe5, 0x461bcd)\n      dup2\n      mstore\n        /* \"#utility.yul\":8157:8159   */\n      0x20\n        /* \"@openzeppelin/contracts/security/ReentrancyGuard.sol\":2460:2523  require(_status != _ENTERED, \"ReentrancyGuard: reentrant call\") */\n      0x04\n      dup3\n      add\n        /* \"#utility.yul\":8139:8160   */\n      mstore\n        /* \"#utility.yul\":8196:8198   */\n      0x1f\n        /* \"#utility.yul\":8176:8194   */\n      0x24\n      dup3\n      add\n        /* \"#utility.yul\":8169:8199   */\n      mstore\n        /* \"#utility.yul\":8235:8268   */\n      0x5265656e7472616e637947756172643a207265656e7472616e742063616c6c00\n        /* \"#utility.yul\":8215:8233   */\n      0x44\n      dup3\n      add\n        /* \"#utility.yul\":8208:8269   */\n      mstore\n        /* \"#utility.yul\":8286:8304   */\n      0x64\n      add\n        /* \"@openzeppelin/contracts/security/ReentrancyGuard.sol\":2460:2523  require(_status != _ENTERED, \"ReentrancyGuard: reentrant call\") */\n      tag_122\n        /* \"#utility.yul\":7955:8310   */\n      jump\n        /* \"@openzeppelin/contracts/security/ReentrancyGuard.sol\":2460:2523  require(_status != _ENTERED, \"ReentrancyGuard: reentrant call\") */\n    tag_201:\n        /* \"@openzeppelin/contracts/security/ReentrancyGuard.sol\":1759:1760  2 */\n      0x02\n        /* \"@openzeppelin/contracts/security/ReentrancyGuard.sol\":2598:2605  _status */\n      0x00\n        /* \"@openzeppelin/contracts/security/ReentrancyGuard.sol\":2598:2616  _status = _ENTERED */\n      sstore\n        /* \"@openzeppelin/contracts/security/ReentrancyGuard.sol\":2336:2623  function _nonReentrantBefore() private {... */\n      jump\t// out\n        /* \"contracts/contracts/protocol/TuliaFlashPool.sol\":5312:6578  function _executeFlashLoan(... */\n    tag_130:\n        /* \"contracts/contracts/protocol/TuliaFlashPool.sol\":5520:5525  asset */\n      sload(0x02)\n        /* \"contracts/contracts/protocol/TuliaFlashPool.sol\":5479:5483  bool */\n      0x00\n      swap1\n      sub(shl(0xa0, 0x01), 0x01)\n        /* \"contracts/contracts/protocol/TuliaFlashPool.sol\":5503:5526  token == address(asset) */\n      dup7\n      dup2\n      and\n        /* \"contracts/contracts/protocol/TuliaFlashPool.sol\":5520:5525  asset */\n      swap2\n      and\n        /* \"contracts/contracts/protocol/TuliaFlashPool.sol\":5503:5526  token == address(asset) */\n      eq\n        /* \"contracts/contracts/protocol/TuliaFlashPool.sol\":5495:5548  require(token == address(asset), \"Unsupported token\") */\n      tag_205\n      jumpi\n      mload(0x40)\n      shl(0xe5, 0x461bcd)\n      dup2\n      mstore\n        /* \"#utility.yul\":7284:7286   */\n      0x20\n        /* \"contracts/contracts/protocol/TuliaFlashPool.sol\":5495:5548  require(token == address(asset), \"Unsupported token\") */\n      0x04\n      dup3\n      add\n        /* \"#utility.yul\":7266:7287   */\n      mstore\n        /* \"#utility.yul\":7323:7325   */\n      0x11\n        /* \"#utility.yul\":7303:7321   */\n      0x24\n      dup3\n      add\n        /* \"#utility.yul\":7296:7326   */\n      mstore\n      shl(0x79, 0x2ab739bab83837b93a32b2103a37b5b2b7)\n        /* \"#utility.yul\":7342:7360   */\n      0x44\n      dup3\n      add\n        /* \"#utility.yul\":7335:7382   */\n      mstore\n        /* \"#utility.yul\":7399:7417   */\n      0x64\n      add\n        /* \"contracts/contracts/protocol/TuliaFlashPool.sol\":5495:5548  require(token == address(asset), \"Unsupported token\") */\n      tag_122\n        /* \"#utility.yul\":7082:7423   */\n      jump\n        /* \"contracts/contracts/protocol/TuliaFlashPool.sol\":5495:5548  require(token == address(asset), \"Unsupported token\") */\n    tag_205:\n        /* \"contracts/contracts/protocol/TuliaFlashPool.sol\":5559:5575  uint256 totalFee */\n      0x00\n        /* \"contracts/contracts/protocol/TuliaFlashPool.sol\":5578:5601  flashFee(token, amount) */\n      tag_207\n        /* \"contracts/contracts/protocol/TuliaFlashPool.sol\":5587:5592  token */\n      dup7\n        /* \"contracts/contracts/protocol/TuliaFlashPool.sol\":5594:5600  amount */\n      dup7\n        /* \"contracts/contracts/protocol/TuliaFlashPool.sol\":5578:5586  flashFee */\n      tag_92\n        /* \"contracts/contracts/protocol/TuliaFlashPool.sol\":5578:5601  flashFee(token, amount) */\n      jump\t// in\n    tag_207:\n        /* \"contracts/contracts/protocol/TuliaFlashPool.sol\":5635:5640  asset */\n      sload(0x02)\n        /* \"contracts/contracts/protocol/TuliaFlashPool.sol\":5635:5665  asset.balanceOf(address(this)) */\n      mload(0x40)\n      shl(0xe0, 0x70a08231)\n      dup2\n      mstore\n        /* \"contracts/contracts/protocol/TuliaFlashPool.sol\":5659:5663  this */\n      address\n        /* \"contracts/contracts/protocol/TuliaFlashPool.sol\":5635:5665  asset.balanceOf(address(this)) */\n      0x04\n      dup3\n      add\n        /* \"#utility.yul\":1578:1629   */\n      mstore\n        /* \"contracts/contracts/protocol/TuliaFlashPool.sol\":5559:5601  uint256 totalFee = flashFee(token, amount) */\n      swap2\n      swap3\n      pop\n        /* \"contracts/contracts/protocol/TuliaFlashPool.sol\":5611:5632  uint256 balanceBefore */\n      0x00\n      swap2\n      sub(shl(0xa0, 0x01), 0x01)\n        /* \"contracts/contracts/protocol/TuliaFlashPool.sol\":5635:5640  asset */\n      swap1\n      swap2\n      and\n      swap1\n        /* \"contracts/contracts/protocol/TuliaFlashPool.sol\":5635:5650  asset.balanceOf */\n      0x70a08231\n      swap1\n        /* \"#utility.yul\":1551:1569   */\n      0x24\n      add\n        /* \"contracts/contracts/protocol/TuliaFlashPool.sol\":5635:5665  asset.balanceOf(address(this)) */\n      0x20\n      mload(0x40)\n      dup1\n      dup4\n      sub\n      dup2\n      dup7\n      gas\n      staticcall\n      iszero\n      dup1\n      iszero\n      tag_210\n      jumpi\n      returndatasize\n      0x00\n      dup1\n      returndatacopy\n      revert(0x00, returndatasize)\n    tag_210:\n      pop\n      pop\n      pop\n      pop\n      mload(0x40)\n      returndatasize\n      not(0x1f)\n      0x1f\n      dup3\n      add\n      and\n      dup3\n      add\n      dup1\n      0x40\n      mstore\n      pop\n      dup2\n      add\n      swap1\n      tag_211\n      swap2\n      swap1\n      tag_140\n      jump\t// in\n    tag_211:\n        /* \"contracts/contracts/protocol/TuliaFlashPool.sol\":5676:5681  asset */\n      sload(0x02)\n        /* \"contracts/contracts/protocol/TuliaFlashPool.sol\":5676:5717  asset.transfer(address(receiver), amount) */\n      mload(0x40)\n      shl(0xe0, 0xa9059cbb)\n      dup2\n      mstore\n      sub(shl(0xa0, 0x01), 0x01)\n        /* \"#utility.yul\":8507:8539   */\n      dup12\n      dup2\n      and\n        /* \"contracts/contracts/protocol/TuliaFlashPool.sol\":5676:5717  asset.transfer(address(receiver), amount) */\n      0x04\n      dup4\n      add\n        /* \"#utility.yul\":8489:8540   */\n      mstore\n        /* \"#utility.yul\":8556:8574   */\n      0x24\n      dup3\n      add\n        /* \"#utility.yul\":8549:8583   */\n      dup11\n      swap1\n      mstore\n        /* \"contracts/contracts/protocol/TuliaFlashPool.sol\":5611:5665  uint256 balanceBefore = asset.balanceOf(address(this)) */\n      swap3\n      swap4\n      pop\n        /* \"contracts/contracts/protocol/TuliaFlashPool.sol\":5676:5681  asset */\n      swap2\n      and\n      swap1\n        /* \"contracts/contracts/protocol/TuliaFlashPool.sol\":5676:5690  asset.transfer */\n      0xa9059cbb\n      swap1\n        /* \"#utility.yul\":8462:8480   */\n      0x44\n      add\n        /* \"contracts/contracts/protocol/TuliaFlashPool.sol\":5676:5717  asset.transfer(address(receiver), amount) */\n      0x20\n      mload(0x40)\n      dup1\n      dup4\n      sub\n      dup2\n      0x00\n      dup8\n      gas\n      call\n      iszero\n      dup1\n      iszero\n      tag_215\n      jumpi\n      returndatasize\n      0x00\n      dup1\n      returndatacopy\n      revert(0x00, returndatasize)\n    tag_215:\n      pop\n      pop\n      pop\n      pop\n      mload(0x40)\n      returndatasize\n      not(0x1f)\n      0x1f\n      dup3\n      add\n      and\n      dup3\n      add\n      dup1\n      0x40\n      mstore\n      pop\n      dup2\n      add\n      swap1\n      tag_216\n      swap2\n      swap1\n      tag_160\n      jump\t// in\n    tag_216:\n      pop\n        /* \"contracts/contracts/protocol/TuliaFlashPool.sol\":5749:5812  receiver.onFlashLoan(msg.sender, token, amount, totalFee, data) */\n      mload(0x40)\n      shl(0xe0, 0x23e30c8b)\n      dup2\n      mstore\n        /* \"contracts/contracts/protocol/TuliaFlashPool.sol\":5832:5877  keccak256(\"ERC3156FlashBorrower.onFlashLoan\") */\n      0x439148f0bbc682ca079e46d6e2c2f0c1e3b820f1a291b069d8882abf8cf18dd9\n      swap1\n      sub(shl(0xa0, 0x01), 0x01)\n        /* \"contracts/contracts/protocol/TuliaFlashPool.sol\":5749:5769  receiver.onFlashLoan */\n      dup11\n      and\n      swap1\n      0x23e30c8b\n      swap1\n        /* \"contracts/contracts/protocol/TuliaFlashPool.sol\":5749:5812  receiver.onFlashLoan(msg.sender, token, amount, totalFee, data) */\n      tag_217\n      swap1\n        /* \"contracts/contracts/protocol/TuliaFlashPool.sol\":5770:5780  msg.sender */\n      caller\n      swap1\n        /* \"contracts/contracts/protocol/TuliaFlashPool.sol\":5782:5787  token */\n      dup13\n      swap1\n        /* \"contracts/contracts/protocol/TuliaFlashPool.sol\":5789:5795  amount */\n      dup13\n      swap1\n        /* \"contracts/contracts/protocol/TuliaFlashPool.sol\":5797:5805  totalFee */\n      dup10\n      swap1\n        /* \"contracts/contracts/protocol/TuliaFlashPool.sol\":5807:5811  data */\n      dup14\n      swap1\n      dup14\n      swap1\n        /* \"contracts/contracts/protocol/TuliaFlashPool.sol\":5749:5812  receiver.onFlashLoan(msg.sender, token, amount, totalFee, data) */\n      0x04\n      add\n      tag_218\n      jump\t// in\n    tag_217:\n      0x20\n      mload(0x40)\n      dup1\n      dup4\n      sub\n      dup2\n      0x00\n      dup8\n      gas\n      call\n      iszero\n      dup1\n      iszero\n      tag_220\n      jumpi\n      returndatasize\n      0x00\n      dup1\n      returndatacopy\n      revert(0x00, returndatasize)\n    tag_220:\n      pop\n      pop\n      pop\n      pop\n      mload(0x40)\n      returndatasize\n      not(0x1f)\n      0x1f\n      dup3\n      add\n      and\n      dup3\n      add\n      dup1\n      0x40\n      mstore\n      pop\n      dup2\n      add\n      swap1\n      tag_221\n      swap2\n      swap1\n      tag_140\n      jump\t// in\n    tag_221:\n        /* \"contracts/contracts/protocol/TuliaFlashPool.sol\":5749:5877  receiver.onFlashLoan(msg.sender, token, amount, totalFee, data) ==... */\n      eq\n        /* \"contracts/contracts/protocol/TuliaFlashPool.sol\":5728:5920  require(... */\n      tag_223\n      jumpi\n      mload(0x40)\n      shl(0xe5, 0x461bcd)\n      dup2\n      mstore\n        /* \"#utility.yul\":9720:9722   */\n      0x20\n        /* \"contracts/contracts/protocol/TuliaFlashPool.sol\":5728:5920  require(... */\n      0x04\n      dup3\n      add\n        /* \"#utility.yul\":9702:9723   */\n      mstore\n        /* \"#utility.yul\":9759:9761   */\n      0x11\n        /* \"#utility.yul\":9739:9757   */\n      0x24\n      dup3\n      add\n        /* \"#utility.yul\":9732:9762   */\n      mstore\n      shl(0x7a, 0x119b185cda081b1bd85b8819985a5b1959)\n        /* \"#utility.yul\":9778:9796   */\n      0x44\n      dup3\n      add\n        /* \"#utility.yul\":9771:9818   */\n      mstore\n        /* \"#utility.yul\":9835:9853   */\n      0x64\n      add\n        /* \"contracts/contracts/protocol/TuliaFlashPool.sol\":5728:5920  require(... */\n      tag_122\n        /* \"#utility.yul\":9518:9859   */\n      jump\n        /* \"contracts/contracts/protocol/TuliaFlashPool.sol\":5728:5920  require(... */\n    tag_223:\n        /* \"contracts/contracts/protocol/TuliaFlashPool.sol\":5931:5949  uint256 amountOwed */\n      0x00\n        /* \"contracts/contracts/protocol/TuliaFlashPool.sol\":5952:5969  amount + totalFee */\n      tag_226\n        /* \"contracts/contracts/protocol/TuliaFlashPool.sol\":5961:5969  totalFee */\n      dup4\n        /* \"contracts/contracts/protocol/TuliaFlashPool.sol\":5952:5958  amount */\n      dup9\n        /* \"contracts/contracts/protocol/TuliaFlashPool.sol\":5952:5969  amount + totalFee */\n      tag_227\n      jump\t// in\n    tag_226:\n        /* \"contracts/contracts/protocol/TuliaFlashPool.sol\":5979:5984  asset */\n      sload(0x02)\n        /* \"contracts/contracts/protocol/TuliaFlashPool.sol\":5979:6043  asset.transferFrom(address(receiver), address(this), amountOwed) */\n      mload(0x40)\n      shl(0xe0, 0x23b872dd)\n      dup2\n      mstore\n      sub(shl(0xa0, 0x01), 0x01)\n        /* \"#utility.yul\":6644:6676   */\n      dup13\n      dup2\n      and\n        /* \"contracts/contracts/protocol/TuliaFlashPool.sol\":5979:6043  asset.transferFrom(address(receiver), address(this), amountOwed) */\n      0x04\n      dup4\n      add\n        /* \"#utility.yul\":6626:6677   */\n      mstore\n        /* \"contracts/contracts/protocol/TuliaFlashPool.sol\":6025:6029  this */\n      address\n        /* \"#utility.yul\":6693:6711   */\n      0x24\n      dup4\n      add\n        /* \"#utility.yul\":6686:6746   */\n      mstore\n        /* \"#utility.yul\":6762:6780   */\n      0x44\n      dup3\n      add\n        /* \"#utility.yul\":6755:6789   */\n      dup5\n      swap1\n      mstore\n        /* \"contracts/contracts/protocol/TuliaFlashPool.sol\":5931:5969  uint256 amountOwed = amount + totalFee */\n      swap3\n      swap4\n      pop\n        /* \"contracts/contracts/protocol/TuliaFlashPool.sol\":5979:5984  asset */\n      swap2\n      and\n      swap1\n        /* \"contracts/contracts/protocol/TuliaFlashPool.sol\":5979:5997  asset.transferFrom */\n      0x23b872dd\n      swap1\n        /* \"#utility.yul\":6599:6617   */\n      0x64\n      add\n        /* \"contracts/contracts/protocol/TuliaFlashPool.sol\":5979:6043  asset.transferFrom(address(receiver), address(this), amountOwed) */\n      0x20\n      mload(0x40)\n      dup1\n      dup4\n      sub\n      dup2\n      0x00\n      dup8\n      gas\n      call\n      iszero\n      dup1\n      iszero\n      tag_230\n      jumpi\n      returndatasize\n      0x00\n      dup1\n      returndatacopy\n      revert(0x00, returndatasize)\n    tag_230:\n      pop\n      pop\n      pop\n      pop\n      mload(0x40)\n      returndatasize\n      not(0x1f)\n      0x1f\n      dup3\n      add\n      and\n      dup3\n      add\n      dup1\n      0x40\n      mstore\n      pop\n      dup2\n      add\n      swap1\n      tag_231\n      swap2\n      swap1\n      tag_160\n      jump\t// in\n    tag_231:\n      pop\n        /* \"contracts/contracts/protocol/TuliaFlashPool.sol\":6075:6080  asset */\n      sload(0x02)\n        /* \"contracts/contracts/protocol/TuliaFlashPool.sol\":6075:6105  asset.balanceOf(address(this)) */\n      mload(0x40)\n      shl(0xe0, 0x70a08231)\n      dup2\n      mstore\n        /* \"contracts/contracts/protocol/TuliaFlashPool.sol\":6099:6103  this */\n      address\n        /* \"contracts/contracts/protocol/TuliaFlashPool.sol\":6075:6105  asset.balanceOf(address(this)) */\n      0x04\n      dup3\n      add\n        /* \"#utility.yul\":1578:1629   */\n      mstore\n        /* \"contracts/contracts/protocol/TuliaFlashPool.sol\":6109:6122  balanceBefore */\n      dup4\n      swap2\n      sub(shl(0xa0, 0x01), 0x01)\n        /* \"contracts/contracts/protocol/TuliaFlashPool.sol\":6075:6080  asset */\n      and\n      swap1\n        /* \"contracts/contracts/protocol/TuliaFlashPool.sol\":6075:6090  asset.balanceOf */\n      0x70a08231\n      swap1\n        /* \"#utility.yul\":1551:1569   */\n      0x24\n      add\n        /* \"contracts/contracts/protocol/TuliaFlashPool.sol\":6075:6105  asset.balanceOf(address(this)) */\n      0x20\n      mload(0x40)\n      dup1\n      dup4\n      sub\n      dup2\n      dup7\n      gas\n      staticcall\n      iszero\n      dup1\n      iszero\n      tag_234\n      jumpi\n      returndatasize\n      0x00\n      dup1\n      returndatacopy\n      revert(0x00, returndatasize)\n    tag_234:\n      pop\n      pop\n      pop\n      pop\n      mload(0x40)\n      returndatasize\n      not(0x1f)\n      0x1f\n      dup3\n      add\n      and\n      dup3\n      add\n      dup1\n      0x40\n      mstore\n      pop\n      dup2\n      add\n      swap1\n      tag_235\n      swap2\n      swap1\n      tag_140\n      jump\t// in\n    tag_235:\n        /* \"contracts/contracts/protocol/TuliaFlashPool.sol\":6075:6122  asset.balanceOf(address(this)) >= balanceBefore */\n      lt\n      iszero\n        /* \"contracts/contracts/protocol/TuliaFlashPool.sol\":6054:6175  require(... */\n      tag_236\n      jumpi\n      mload(0x40)\n      shl(0xe5, 0x461bcd)\n      dup2\n      mstore\n        /* \"#utility.yul\":10196:10198   */\n      0x20\n        /* \"contracts/contracts/protocol/TuliaFlashPool.sol\":6054:6175  require(... */\n      0x04\n      dup3\n      add\n        /* \"#utility.yul\":10178:10199   */\n      mstore\n        /* \"#utility.yul\":10235:10237   */\n      0x1b\n        /* \"#utility.yul\":10215:10233   */\n      0x24\n      dup3\n      add\n        /* \"#utility.yul\":10208:10238   */\n      mstore\n        /* \"#utility.yul\":10274:10303   */\n      0x466c617368206c6f616e2072657061796d656e74206661696c65640000000000\n        /* \"#utility.yul\":10254:10272   */\n      0x44\n      dup3\n      add\n        /* \"#utility.yul\":10247:10304   */\n      mstore\n        /* \"#utility.yul\":10321:10339   */\n      0x64\n      add\n        /* \"contracts/contracts/protocol/TuliaFlashPool.sol\":6054:6175  require(... */\n      tag_122\n        /* \"#utility.yul\":9994:10345   */\n      jump\n        /* \"contracts/contracts/protocol/TuliaFlashPool.sol\":6054:6175  require(... */\n    tag_236:\n        /* \"contracts/contracts/protocol/TuliaFlashPool.sol\":6186:6191  state */\n      0x06\n        /* \"contracts/contracts/protocol/TuliaFlashPool.sol\":6186:6215  state = FlashLoanState.CLOSED */\n      dup1\n      sload\n      not(0xff)\n      and\n        /* \"contracts/contracts/protocol/TuliaFlashPool.sol\":6194:6215  FlashLoanState.CLOSED */\n      0x01\n        /* \"contracts/contracts/protocol/TuliaFlashPool.sol\":6186:6215  state = FlashLoanState.CLOSED */\n      or\n      swap1\n      sstore\n        /* \"contracts/contracts/protocol/TuliaFlashPool.sol\":6225:6238  poolOrganizer */\n      sload(0x03)\n        /* \"contracts/contracts/protocol/TuliaFlashPool.sol\":6225:6302  poolOrganizer.updateLoanState(address(this), IPoolOrganizer.LoanState.REPAID) */\n      mload(0x40)\n      shl(0xe0, 0xa956239b)\n      dup2\n      mstore\n      sub(shl(0xa0, 0x01), 0x01)\n        /* \"contracts/contracts/protocol/TuliaFlashPool.sol\":6225:6238  poolOrganizer */\n      swap1\n      swap2\n      and\n      swap1\n        /* \"contracts/contracts/protocol/TuliaFlashPool.sol\":6225:6254  poolOrganizer.updateLoanState */\n      0xa956239b\n      swap1\n        /* \"contracts/contracts/protocol/TuliaFlashPool.sol\":6225:6302  poolOrganizer.updateLoanState(address(this), IPoolOrganizer.LoanState.REPAID) */\n      tag_241\n      swap1\n        /* \"contracts/contracts/protocol/TuliaFlashPool.sol\":6263:6267  this */\n      address\n      swap1\n        /* \"contracts/contracts/protocol/TuliaFlashPool.sol\":6270:6301  IPoolOrganizer.LoanState.REPAID */\n      0x04\n      swap1\n        /* \"contracts/contracts/protocol/TuliaFlashPool.sol\":6225:6302  poolOrganizer.updateLoanState(address(this), IPoolOrganizer.LoanState.REPAID) */\n      dup2\n      add\n      tag_125\n      jump\t// in\n    tag_241:\n      0x00\n      mload(0x40)\n      dup1\n      dup4\n      sub\n      dup2\n      0x00\n      dup8\n      dup1\n      extcodesize\n      iszero\n      dup1\n      iszero\n      tag_242\n      jumpi\n      0x00\n      dup1\n      revert\n    tag_242:\n      pop\n      gas\n      call\n      iszero\n      dup1\n      iszero\n      tag_244\n      jumpi\n      returndatasize\n      0x00\n      dup1\n      returndatacopy\n      revert(0x00, returndatasize)\n    tag_244:\n      pop\n      pop\n        /* \"contracts/contracts/protocol/TuliaFlashPool.sol\":6312:6325  poolOrganizer */\n      sload(0x03)\n        /* \"contracts/contracts/protocol/TuliaFlashPool.sol\":6312:6355  poolOrganizer.deregisterPool(address(this)) */\n      mload(0x40)\n      shl(0xe0, 0x7e72c7d7)\n      dup2\n      mstore\n        /* \"contracts/contracts/protocol/TuliaFlashPool.sol\":6349:6353  this */\n      address\n        /* \"contracts/contracts/protocol/TuliaFlashPool.sol\":6312:6355  poolOrganizer.deregisterPool(address(this)) */\n      0x04\n      dup3\n      add\n        /* \"#utility.yul\":1578:1629   */\n      mstore\n      sub(shl(0xa0, 0x01), 0x01)\n        /* \"contracts/contracts/protocol/TuliaFlashPool.sol\":6312:6325  poolOrganizer */\n      swap1\n      swap2\n      and\n      swap3\n      pop\n        /* \"contracts/contracts/protocol/TuliaFlashPool.sol\":6312:6340  poolOrganizer.deregisterPool */\n      0x7e72c7d7\n      swap2\n      pop\n        /* \"#utility.yul\":1551:1569   */\n      0x24\n      add\n        /* \"contracts/contracts/protocol/TuliaFlashPool.sol\":6312:6355  poolOrganizer.deregisterPool(address(this)) */\n      0x00\n      mload(0x40)\n      dup1\n      dup4\n      sub\n      dup2\n      0x00\n      dup8\n      dup1\n      extcodesize\n      iszero\n      dup1\n      iszero\n      tag_246\n      jumpi\n      0x00\n      dup1\n      revert\n    tag_246:\n      pop\n      gas\n      call\n      iszero\n      dup1\n      iszero\n      tag_248\n      jumpi\n      returndatasize\n      0x00\n      dup1\n      returndatacopy\n      revert(0x00, returndatasize)\n    tag_248:\n      pop\n      pop\n        /* \"contracts/contracts/protocol/TuliaFlashPool.sol\":6439:6444  asset */\n      sload(0x02)\n        /* \"contracts/contracts/protocol/TuliaFlashPool.sol\":6454:6460  lender */\n      0x04\n      dup1\n      sload\n        /* \"contracts/contracts/protocol/TuliaFlashPool.sol\":6439:6473  asset.transfer(lender, amountOwed) */\n      mload(0x40)\n      shl(0xe0, 0xa9059cbb)\n      dup2\n      mstore\n      sub(shl(0xa0, 0x01), 0x01)\n        /* \"contracts/contracts/protocol/TuliaFlashPool.sol\":6454:6460  lender */\n      swap2\n      dup3\n      and\n        /* \"contracts/contracts/protocol/TuliaFlashPool.sol\":6439:6473  asset.transfer(lender, amountOwed) */\n      swap3\n      dup2\n      add\n        /* \"#utility.yul\":8489:8540   */\n      swap3\n      swap1\n      swap3\n      mstore\n        /* \"#utility.yul\":8556:8574   */\n      0x24\n      dup3\n      add\n        /* \"#utility.yul\":8549:8583   */\n      dup7\n      swap1\n      mstore\n        /* \"contracts/contracts/protocol/TuliaFlashPool.sol\":6439:6444  asset */\n      swap1\n      swap2\n      and\n      swap3\n      pop\n        /* \"contracts/contracts/protocol/TuliaFlashPool.sol\":6439:6453  asset.transfer */\n      0xa9059cbb\n      swap2\n      pop\n        /* \"#utility.yul\":8462:8480   */\n      0x44\n      add\n        /* \"contracts/contracts/protocol/TuliaFlashPool.sol\":6439:6473  asset.transfer(lender, amountOwed) */\n      0x20\n      mload(0x40)\n      dup1\n      dup4\n      sub\n      dup2\n      0x00\n      dup8\n      gas\n      call\n      iszero\n      dup1\n      iszero\n      tag_251\n      jumpi\n      returndatasize\n      0x00\n      dup1\n      returndatacopy\n      revert(0x00, returndatasize)\n    tag_251:\n      pop\n      pop\n      pop\n      pop\n      mload(0x40)\n      returndatasize\n      not(0x1f)\n      0x1f\n      dup3\n      add\n      and\n      dup3\n      add\n      dup1\n      0x40\n      mstore\n      pop\n      dup2\n      add\n      swap1\n      tag_252\n      swap2\n      swap1\n      tag_160\n      jump\t// in\n    tag_252:\n      pop\n        /* \"contracts/contracts/protocol/TuliaFlashPool.sol\":6526:6531  token */\n      dup8\n      sub(shl(0xa0, 0x01), 0x01)\n        /* \"contracts/contracts/protocol/TuliaFlashPool.sol\":6489:6550  FlashLoanExecuted(address(receiver), token, amount, totalFee) */\n      and\n        /* \"contracts/contracts/protocol/TuliaFlashPool.sol\":6515:6523  receiver */\n      dup10\n      sub(shl(0xa0, 0x01), 0x01)\n        /* \"contracts/contracts/protocol/TuliaFlashPool.sol\":6489:6550  FlashLoanExecuted(address(receiver), token, amount, totalFee) */\n      and\n      0x9d0d497e678f62d6b162c97b9724a39f45fe674650dcd4a5e88ff6317e63764f\n        /* \"contracts/contracts/protocol/TuliaFlashPool.sol\":6533:6539  amount */\n      dup10\n        /* \"contracts/contracts/protocol/TuliaFlashPool.sol\":6541:6549  totalFee */\n      dup7\n        /* \"contracts/contracts/protocol/TuliaFlashPool.sol\":6489:6550  FlashLoanExecuted(address(receiver), token, amount, totalFee) */\n      mload(0x40)\n      tag_253\n      swap3\n      swap2\n      swap1\n        /* \"#utility.yul\":10524:10549   */\n      swap2\n      dup3\n      mstore\n        /* \"#utility.yul\":10580:10582   */\n      0x20\n        /* \"#utility.yul\":10565:10583   */\n      dup3\n      add\n        /* \"#utility.yul\":10558:10592   */\n      mstore\n        /* \"#utility.yul\":10512:10514   */\n      0x40\n        /* \"#utility.yul\":10497:10515   */\n      add\n      swap1\n        /* \"#utility.yul\":10350:10598   */\n      jump\n        /* \"contracts/contracts/protocol/TuliaFlashPool.sol\":6489:6550  FlashLoanExecuted(address(receiver), token, amount, totalFee) */\n    tag_253:\n      mload(0x40)\n      dup1\n      swap2\n      sub\n      swap1\n      log3\n      pop\n        /* \"contracts/contracts/protocol/TuliaFlashPool.sol\":6567:6571  true */\n      0x01\n      swap9\n        /* \"contracts/contracts/protocol/TuliaFlashPool.sol\":5312:6578  function _executeFlashLoan(... */\n      swap8\n      pop\n      pop\n      pop\n      pop\n      pop\n      pop\n      pop\n      pop\n      jump\t// out\n        /* \"@openzeppelin/contracts/access/AccessControl.sol\":3432:3629  function _checkRole(bytes32 role, address account) internal view virtual {... */\n    tag_188:\n        /* \"@openzeppelin/contracts/access/AccessControl.sol\":3520:3542  hasRole(role, account) */\n      tag_257\n        /* \"@openzeppelin/contracts/access/AccessControl.sol\":3528:3532  role */\n      dup3\n        /* \"@openzeppelin/contracts/access/AccessControl.sol\":3534:3541  account */\n      dup3\n        /* \"@openzeppelin/contracts/access/AccessControl.sol\":3520:3527  hasRole */\n      tag_69\n        /* \"@openzeppelin/contracts/access/AccessControl.sol\":3520:3542  hasRole(role, account) */\n      jump\t// in\n    tag_257:\n        /* \"@openzeppelin/contracts/access/AccessControl.sol\":3515:3623  if (!hasRole(role, account)) {... */\n      tag_258\n      jumpi\n        /* \"@openzeppelin/contracts/access/AccessControl.sol\":3565:3612  AccessControlUnauthorizedAccount(account, role) */\n      mload(0x40)\n      shl(0xe0, 0xe2517d3f)\n      dup2\n      mstore\n      sub(shl(0xa0, 0x01), 0x01)\n        /* \"#utility.yul\":8507:8539   */\n      dup3\n      and\n        /* \"@openzeppelin/contracts/access/AccessControl.sol\":3565:3612  AccessControlUnauthorizedAccount(account, role) */\n      0x04\n      dup3\n      add\n        /* \"#utility.yul\":8489:8540   */\n      mstore\n        /* \"#utility.yul\":8556:8574   */\n      0x24\n      dup2\n      add\n        /* \"#utility.yul\":8549:8583   */\n      dup4\n      swap1\n      mstore\n        /* \"#utility.yul\":8462:8480   */\n      0x44\n      add\n        /* \"@openzeppelin/contracts/access/AccessControl.sol\":3565:3612  AccessControlUnauthorizedAccount(account, role) */\n      tag_122\n        /* \"#utility.yul\":8315:8589   */\n      jump\n        /* \"@openzeppelin/contracts/access/AccessControl.sol\":3515:3623  if (!hasRole(role, account)) {... */\n    tag_258:\n        /* \"@openzeppelin/contracts/access/AccessControl.sol\":3432:3629  function _checkRole(bytes32 role, address account) internal view virtual {... */\n      pop\n      pop\n      jump\t// out\n        /* \"#utility.yul\":196:482   */\n    tag_29:\n        /* \"#utility.yul\":254:260   */\n      0x00\n        /* \"#utility.yul\":307:309   */\n      0x20\n        /* \"#utility.yul\":295:304   */\n      dup3\n        /* \"#utility.yul\":286:293   */\n      dup5\n        /* \"#utility.yul\":282:305   */\n      sub\n        /* \"#utility.yul\":278:310   */\n      slt\n        /* \"#utility.yul\":275:327   */\n      iszero\n      tag_266\n      jumpi\n        /* \"#utility.yul\":323:324   */\n      0x00\n        /* \"#utility.yul\":320:321   */\n      dup1\n        /* \"#utility.yul\":313:325   */\n      revert\n        /* \"#utility.yul\":275:327   */\n    tag_266:\n        /* \"#utility.yul\":349:372   */\n      dup2\n      calldataload\n      not(sub(shl(0xe0, 0x01), 0x01))\n        /* \"#utility.yul\":401:433   */\n      dup2\n      and\n        /* \"#utility.yul\":391:434   */\n      dup2\n      eq\n        /* \"#utility.yul\":381:452   */\n      tag_267\n      jumpi\n        /* \"#utility.yul\":448:449   */\n      0x00\n        /* \"#utility.yul\":445:446   */\n      dup1\n        /* \"#utility.yul\":438:450   */\n      revert\n        /* \"#utility.yul\":381:452   */\n    tag_267:\n        /* \"#utility.yul\":471:476   */\n      swap4\n        /* \"#utility.yul\":196:482   */\n      swap3\n      pop\n      pop\n      pop\n      jump\t// out\n        /* \"#utility.yul\":679:905   */\n    tag_35:\n        /* \"#utility.yul\":738:744   */\n      0x00\n        /* \"#utility.yul\":791:793   */\n      0x20\n        /* \"#utility.yul\":779:788   */\n      dup3\n        /* \"#utility.yul\":770:777   */\n      dup5\n        /* \"#utility.yul\":766:789   */\n      sub\n        /* \"#utility.yul\":762:794   */\n      slt\n        /* \"#utility.yul\":759:811   */\n      iszero\n      tag_270\n      jumpi\n        /* \"#utility.yul\":807:808   */\n      0x00\n        /* \"#utility.yul\":804:805   */\n      dup1\n        /* \"#utility.yul\":797:809   */\n      revert\n        /* \"#utility.yul\":759:811   */\n    tag_270:\n      pop\n        /* \"#utility.yul\":852:875   */\n      calldataload\n      swap2\n        /* \"#utility.yul\":679:905   */\n      swap1\n      pop\n      jump\t// out\n        /* \"#utility.yul\":910:1041   */\n    tag_261:\n      sub(shl(0xa0, 0x01), 0x01)\n        /* \"#utility.yul\":985:1016   */\n      dup2\n      and\n        /* \"#utility.yul\":975:1017   */\n      dup2\n      eq\n        /* \"#utility.yul\":965:1035   */\n      tag_169\n      jumpi\n        /* \"#utility.yul\":1031:1032   */\n      0x00\n        /* \"#utility.yul\":1028:1029   */\n      dup1\n        /* \"#utility.yul\":1021:1033   */\n      revert\n        /* \"#utility.yul\":1046:1413   */\n    tag_40:\n        /* \"#utility.yul\":1114:1120   */\n      0x00\n        /* \"#utility.yul\":1122:1128   */\n      dup1\n        /* \"#utility.yul\":1175:1177   */\n      0x40\n        /* \"#utility.yul\":1163:1172   */\n      dup4\n        /* \"#utility.yul\":1154:1161   */\n      dup6\n        /* \"#utility.yul\":1150:1173   */\n      sub\n        /* \"#utility.yul\":1146:1178   */\n      slt\n        /* \"#utility.yul\":1143:1195   */\n      iszero\n      tag_274\n      jumpi\n        /* \"#utility.yul\":1191:1192   */\n      0x00\n        /* \"#utility.yul\":1188:1189   */\n      dup1\n        /* \"#utility.yul\":1181:1193   */\n      revert\n        /* \"#utility.yul\":1143:1195   */\n    tag_274:\n        /* \"#utility.yul\":1236:1259   */\n      dup3\n      calldataload\n      swap2\n      pop\n        /* \"#utility.yul\":1335:1337   */\n      0x20\n        /* \"#utility.yul\":1320:1338   */\n      dup4\n      add\n        /* \"#utility.yul\":1307:1339   */\n      calldataload\n        /* \"#utility.yul\":1348:1381   */\n      tag_275\n        /* \"#utility.yul\":1307:1339   */\n      dup2\n        /* \"#utility.yul\":1348:1381   */\n      tag_261\n      jump\t// in\n    tag_275:\n        /* \"#utility.yul\":1400:1407   */\n      dup1\n        /* \"#utility.yul\":1390:1407   */\n      swap2\n      pop\n      pop\n        /* \"#utility.yul\":1046:1413   */\n      swap3\n      pop\n      swap3\n      swap1\n      pop\n      jump\t// out\n        /* \"#utility.yul\":1640:2652   */\n    tag_51:\n        /* \"#utility.yul\":1766:1772   */\n      0x00\n        /* \"#utility.yul\":1774:1780   */\n      dup1\n        /* \"#utility.yul\":1782:1788   */\n      0x00\n        /* \"#utility.yul\":1790:1796   */\n      dup1\n        /* \"#utility.yul\":1798:1804   */\n      0x00\n        /* \"#utility.yul\":1851:1854   */\n      0x80\n        /* \"#utility.yul\":1839:1848   */\n      dup7\n        /* \"#utility.yul\":1830:1837   */\n      dup9\n        /* \"#utility.yul\":1826:1849   */\n      sub\n        /* \"#utility.yul\":1822:1855   */\n      slt\n        /* \"#utility.yul\":1819:1872   */\n      iszero\n      tag_278\n      jumpi\n        /* \"#utility.yul\":1868:1869   */\n      0x00\n        /* \"#utility.yul\":1865:1866   */\n      dup1\n        /* \"#utility.yul\":1858:1870   */\n      revert\n        /* \"#utility.yul\":1819:1872   */\n    tag_278:\n        /* \"#utility.yul\":1907:1916   */\n      dup6\n        /* \"#utility.yul\":1894:1917   */\n      calldataload\n        /* \"#utility.yul\":1926:1957   */\n      tag_279\n        /* \"#utility.yul\":1951:1956   */\n      dup2\n        /* \"#utility.yul\":1926:1957   */\n      tag_261\n      jump\t// in\n    tag_279:\n        /* \"#utility.yul\":1976:1981   */\n      swap5\n      pop\n        /* \"#utility.yul\":2033:2035   */\n      0x20\n        /* \"#utility.yul\":2018:2036   */\n      dup7\n      add\n        /* \"#utility.yul\":2005:2037   */\n      calldataload\n        /* \"#utility.yul\":2046:2079   */\n      tag_280\n        /* \"#utility.yul\":2005:2037   */\n      dup2\n        /* \"#utility.yul\":2046:2079   */\n      tag_261\n      jump\t// in\n    tag_280:\n        /* \"#utility.yul\":2098:2105   */\n      swap4\n      pop\n        /* \"#utility.yul\":2178:2180   */\n      0x40\n        /* \"#utility.yul\":2163:2181   */\n      dup7\n      add\n        /* \"#utility.yul\":2150:2182   */\n      calldataload\n      swap3\n      pop\n        /* \"#utility.yul\":2259:2261   */\n      0x60\n        /* \"#utility.yul\":2244:2262   */\n      dup7\n      add\n        /* \"#utility.yul\":2231:2263   */\n      calldataload\n        /* \"#utility.yul\":2286:2304   */\n      0xffffffffffffffff\n        /* \"#utility.yul\":2275:2305   */\n      dup2\n      gt\n        /* \"#utility.yul\":2272:2322   */\n      iszero\n      tag_281\n      jumpi\n        /* \"#utility.yul\":2318:2319   */\n      0x00\n        /* \"#utility.yul\":2315:2316   */\n      dup1\n        /* \"#utility.yul\":2308:2320   */\n      revert\n        /* \"#utility.yul\":2272:2322   */\n    tag_281:\n        /* \"#utility.yul\":2341:2363   */\n      dup7\n      add\n        /* \"#utility.yul\":2394:2398   */\n      0x1f\n        /* \"#utility.yul\":2386:2399   */\n      dup2\n      add\n        /* \"#utility.yul\":2382:2409   */\n      dup9\n      sgt\n        /* \"#utility.yul\":2372:2427   */\n      tag_282\n      jumpi\n        /* \"#utility.yul\":2423:2424   */\n      0x00\n        /* \"#utility.yul\":2420:2421   */\n      dup1\n        /* \"#utility.yul\":2413:2425   */\n      revert\n        /* \"#utility.yul\":2372:2427   */\n    tag_282:\n        /* \"#utility.yul\":2463:2465   */\n      dup1\n        /* \"#utility.yul\":2450:2466   */\n      calldataload\n        /* \"#utility.yul\":2489:2507   */\n      0xffffffffffffffff\n        /* \"#utility.yul\":2481:2487   */\n      dup2\n        /* \"#utility.yul\":2478:2508   */\n      gt\n        /* \"#utility.yul\":2475:2525   */\n      iszero\n      tag_283\n      jumpi\n        /* \"#utility.yul\":2521:2522   */\n      0x00\n        /* \"#utility.yul\":2518:2519   */\n      dup1\n        /* \"#utility.yul\":2511:2523   */\n      revert\n        /* \"#utility.yul\":2475:2525   */\n    tag_283:\n        /* \"#utility.yul\":2566:2573   */\n      dup9\n        /* \"#utility.yul\":2561:2563   */\n      0x20\n        /* \"#utility.yul\":2552:2558   */\n      dup3\n        /* \"#utility.yul\":2548:2550   */\n      dup5\n        /* \"#utility.yul\":2544:2559   */\n      add\n        /* \"#utility.yul\":2540:2564   */\n      add\n        /* \"#utility.yul\":2537:2574   */\n      gt\n        /* \"#utility.yul\":2534:2591   */\n      iszero\n      tag_284\n      jumpi\n        /* \"#utility.yul\":2587:2588   */\n      0x00\n        /* \"#utility.yul\":2584:2585   */\n      dup1\n        /* \"#utility.yul\":2577:2589   */\n      revert\n        /* \"#utility.yul\":2534:2591   */\n    tag_284:\n        /* \"#utility.yul\":1640:2652   */\n      swap6\n      swap9\n      swap5\n      swap8\n      pop\n      swap3\n      swap6\n      pop\n      pop\n      pop\n        /* \"#utility.yul\":2618:2620   */\n      0x20\n        /* \"#utility.yul\":2610:2621   */\n      add\n      swap2\n        /* \"#utility.yul\":2640:2646   */\n      swap1\n        /* \"#utility.yul\":1640:2652   */\n      jump\t// out\n        /* \"#utility.yul\":2657:2904   */\n    tag_56:\n        /* \"#utility.yul\":2716:2722   */\n      0x00\n        /* \"#utility.yul\":2769:2771   */\n      0x20\n        /* \"#utility.yul\":2757:2766   */\n      dup3\n        /* \"#utility.yul\":2748:2755   */\n      dup5\n        /* \"#utility.yul\":2744:2767   */\n      sub\n        /* \"#utility.yul\":2740:2772   */\n      slt\n        /* \"#utility.yul\":2737:2789   */\n      iszero\n      tag_286\n      jumpi\n        /* \"#utility.yul\":2785:2786   */\n      0x00\n        /* \"#utility.yul\":2782:2783   */\n      dup1\n        /* \"#utility.yul\":2775:2787   */\n      revert\n        /* \"#utility.yul\":2737:2789   */\n    tag_286:\n        /* \"#utility.yul\":2824:2833   */\n      dup2\n        /* \"#utility.yul\":2811:2834   */\n      calldataload\n        /* \"#utility.yul\":2843:2874   */\n      tag_267\n        /* \"#utility.yul\":2868:2873   */\n      dup2\n        /* \"#utility.yul\":2843:2874   */\n      tag_261\n      jump\t// in\n        /* \"#utility.yul\":3530:3657   */\n    tag_118:\n        /* \"#utility.yul\":3591:3601   */\n      0x4e487b71\n        /* \"#utility.yul\":3586:3589   */\n      0xe0\n        /* \"#utility.yul\":3582:3602   */\n      shl\n        /* \"#utility.yul\":3579:3580   */\n      0x00\n        /* \"#utility.yul\":3572:3603   */\n      mstore\n        /* \"#utility.yul\":3622:3626   */\n      0x21\n        /* \"#utility.yul\":3619:3620   */\n      0x04\n        /* \"#utility.yul\":3612:3627   */\n      mstore\n        /* \"#utility.yul\":3646:3650   */\n      0x24\n        /* \"#utility.yul\":3643:3644   */\n      0x00\n        /* \"#utility.yul\":3636:3651   */\n      revert\n        /* \"#utility.yul\":3662:3911   */\n    tag_81:\n        /* \"#utility.yul\":3812:3814   */\n      0x20\n        /* \"#utility.yul\":3797:3815   */\n      dup2\n      add\n        /* \"#utility.yul\":3845:3846   */\n      0x02\n        /* \"#utility.yul\":3834:3847   */\n      dup4\n      lt\n        /* \"#utility.yul\":3824:3871   */\n      tag_295\n      jumpi\n        /* \"#utility.yul\":3851:3869   */\n      tag_295\n      tag_118\n      jump\t// in\n    tag_295:\n        /* \"#utility.yul\":3880:3905   */\n      swap2\n      swap1\n      mstore\n        /* \"#utility.yul\":3662:3911   */\n      swap1\n      jump\t// out\n        /* \"#utility.yul\":4146:4513   */\n    tag_91:\n        /* \"#utility.yul\":4214:4220   */\n      0x00\n        /* \"#utility.yul\":4222:4228   */\n      dup1\n        /* \"#utility.yul\":4275:4277   */\n      0x40\n        /* \"#utility.yul\":4263:4272   */\n      dup4\n        /* \"#utility.yul\":4254:4261   */\n      dup6\n        /* \"#utility.yul\":4250:4273   */\n      sub\n        /* \"#utility.yul\":4246:4278   */\n      slt\n        /* \"#utility.yul\":4243:4295   */\n      iszero\n      tag_298\n      jumpi\n        /* \"#utility.yul\":4291:4292   */\n      0x00\n        /* \"#utility.yul\":4288:4289   */\n      dup1\n        /* \"#utility.yul\":4281:4293   */\n      revert\n        /* \"#utility.yul\":4243:4295   */\n    tag_298:\n        /* \"#utility.yul\":4330:4339   */\n      dup3\n        /* \"#utility.yul\":4317:4340   */\n      calldataload\n        /* \"#utility.yul\":4349:4380   */\n      tag_299\n        /* \"#utility.yul\":4374:4379   */\n      dup2\n        /* \"#utility.yul\":4349:4380   */\n      tag_261\n      jump\t// in\n    tag_299:\n        /* \"#utility.yul\":4399:4404   */\n      swap5\n        /* \"#utility.yul\":4477:4479   */\n      0x20\n        /* \"#utility.yul\":4462:4480   */\n      swap4\n      swap1\n      swap4\n      add\n        /* \"#utility.yul\":4449:4481   */\n      calldataload\n      swap4\n      pop\n      pop\n      pop\n        /* \"#utility.yul\":4146:4513   */\n      jump\t// out\n        /* \"#utility.yul\":4862:5203   */\n    tag_125:\n      sub(shl(0xa0, 0x01), 0x01)\n        /* \"#utility.yul\":5065:5097   */\n      dup4\n      and\n        /* \"#utility.yul\":5047:5098   */\n      dup2\n      mstore\n        /* \"#utility.yul\":5035:5037   */\n      0x40\n        /* \"#utility.yul\":5020:5038   */\n      dup2\n      add\n        /* \"#utility.yul\":5128:5129   */\n      0x07\n        /* \"#utility.yul\":5117:5130   */\n      dup4\n      lt\n        /* \"#utility.yul\":5107:5154   */\n      tag_303\n      jumpi\n        /* \"#utility.yul\":5134:5152   */\n      tag_303\n      tag_118\n      jump\t// in\n    tag_303:\n        /* \"#utility.yul\":5190:5196   */\n      dup3\n        /* \"#utility.yul\":5185:5187   */\n      0x20\n        /* \"#utility.yul\":5174:5183   */\n      dup4\n        /* \"#utility.yul\":5170:5188   */\n      add\n        /* \"#utility.yul\":5163:5197   */\n      mstore\n        /* \"#utility.yul\":4862:5203   */\n      swap4\n      swap3\n      pop\n      pop\n      pop\n      jump\t// out\n        /* \"#utility.yul\":5208:5392   */\n    tag_140:\n        /* \"#utility.yul\":5278:5284   */\n      0x00\n        /* \"#utility.yul\":5331:5333   */\n      0x20\n        /* \"#utility.yul\":5319:5328   */\n      dup3\n        /* \"#utility.yul\":5310:5317   */\n      dup5\n        /* \"#utility.yul\":5306:5329   */\n      sub\n        /* \"#utility.yul\":5302:5334   */\n      slt\n        /* \"#utility.yul\":5299:5351   */\n      iszero\n      tag_305\n      jumpi\n        /* \"#utility.yul\":5347:5348   */\n      0x00\n        /* \"#utility.yul\":5344:5345   */\n      dup1\n        /* \"#utility.yul\":5337:5349   */\n      revert\n        /* \"#utility.yul\":5299:5351   */\n    tag_305:\n      pop\n        /* \"#utility.yul\":5370:5386   */\n      mload\n      swap2\n        /* \"#utility.yul\":5208:5392   */\n      swap1\n      pop\n      jump\t// out\n        /* \"#utility.yul\":6800:7077   */\n    tag_160:\n        /* \"#utility.yul\":6867:6873   */\n      0x00\n        /* \"#utility.yul\":6920:6922   */\n      0x20\n        /* \"#utility.yul\":6908:6917   */\n      dup3\n        /* \"#utility.yul\":6899:6906   */\n      dup5\n        /* \"#utility.yul\":6895:6918   */\n      sub\n        /* \"#utility.yul\":6891:6923   */\n      slt\n        /* \"#utility.yul\":6888:6940   */\n      iszero\n      tag_311\n      jumpi\n        /* \"#utility.yul\":6936:6937   */\n      0x00\n        /* \"#utility.yul\":6933:6934   */\n      dup1\n        /* \"#utility.yul\":6926:6938   */\n      revert\n        /* \"#utility.yul\":6888:6940   */\n    tag_311:\n        /* \"#utility.yul\":6968:6977   */\n      dup2\n        /* \"#utility.yul\":6962:6978   */\n      mload\n        /* \"#utility.yul\":7021:7026   */\n      dup1\n        /* \"#utility.yul\":7014:7027   */\n      iszero\n        /* \"#utility.yul\":7007:7028   */\n      iszero\n        /* \"#utility.yul\":7000:7005   */\n      dup2\n        /* \"#utility.yul\":6997:7029   */\n      eq\n        /* \"#utility.yul\":6987:7047   */\n      tag_267\n      jumpi\n        /* \"#utility.yul\":7043:7044   */\n      0x00\n        /* \"#utility.yul\":7040:7041   */\n      dup1\n        /* \"#utility.yul\":7033:7045   */\n      revert\n        /* \"#utility.yul\":7428:7555   */\n    tag_262:\n        /* \"#utility.yul\":7489:7499   */\n      0x4e487b71\n        /* \"#utility.yul\":7484:7487   */\n      0xe0\n        /* \"#utility.yul\":7480:7500   */\n      shl\n        /* \"#utility.yul\":7477:7478   */\n      0x00\n        /* \"#utility.yul\":7470:7501   */\n      mstore\n        /* \"#utility.yul\":7520:7524   */\n      0x11\n        /* \"#utility.yul\":7517:7518   */\n      0x04\n        /* \"#utility.yul\":7510:7525   */\n      mstore\n        /* \"#utility.yul\":7544:7548   */\n      0x24\n        /* \"#utility.yul\":7541:7542   */\n      0x00\n        /* \"#utility.yul\":7534:7549   */\n      revert\n        /* \"#utility.yul\":7560:7728   */\n    tag_181:\n        /* \"#utility.yul\":7633:7642   */\n      dup1\n      dup3\n      mul\n        /* \"#utility.yul\":7664:7673   */\n      dup2\n      iszero\n        /* \"#utility.yul\":7681:7696   */\n      dup3\n      dup3\n      div\n        /* \"#utility.yul\":7675:7697   */\n      dup5\n      eq\n        /* \"#utility.yul\":7661:7698   */\n      or\n        /* \"#utility.yul\":7651:7722   */\n      tag_96\n      jumpi\n        /* \"#utility.yul\":7702:7720   */\n      tag_96\n      tag_262\n      jump\t// in\n        /* \"#utility.yul\":7733:7950   */\n    tag_183:\n        /* \"#utility.yul\":7773:7774   */\n      0x00\n        /* \"#utility.yul\":7799:7800   */\n      dup3\n        /* \"#utility.yul\":7789:7921   */\n      tag_319\n      jumpi\n        /* \"#utility.yul\":7843:7853   */\n      0x4e487b71\n        /* \"#utility.yul\":7838:7841   */\n      0xe0\n        /* \"#utility.yul\":7834:7854   */\n      shl\n        /* \"#utility.yul\":7831:7832   */\n      0x00\n        /* \"#utility.yul\":7824:7855   */\n      mstore\n        /* \"#utility.yul\":7878:7882   */\n      0x12\n        /* \"#utility.yul\":7875:7876   */\n      0x04\n        /* \"#utility.yul\":7868:7883   */\n      mstore\n        /* \"#utility.yul\":7906:7910   */\n      0x24\n        /* \"#utility.yul\":7903:7904   */\n      0x00\n        /* \"#utility.yul\":7896:7911   */\n      revert\n        /* \"#utility.yul\":7789:7921   */\n    tag_319:\n      pop\n        /* \"#utility.yul\":7935:7944   */\n      div\n      swap1\n        /* \"#utility.yul\":7733:7950   */\n      jump\t// out\n        /* \"#utility.yul\":8594:9324   */\n    tag_218:\n      sub(shl(0xa0, 0x01), 0x01)\n        /* \"#utility.yul\":8863:8895   */\n      dup8\n      dup2\n      and\n        /* \"#utility.yul\":8845:8896   */\n      dup3\n      mstore\n        /* \"#utility.yul\":8932:8964   */\n      dup7\n      and\n        /* \"#utility.yul\":8927:8929   */\n      0x20\n        /* \"#utility.yul\":8912:8930   */\n      dup3\n      add\n        /* \"#utility.yul\":8905:8965   */\n      mstore\n        /* \"#utility.yul\":8996:8998   */\n      0x40\n        /* \"#utility.yul\":8981:8999   */\n      dup2\n      add\n        /* \"#utility.yul\":8974:9008   */\n      dup6\n      swap1\n      mstore\n        /* \"#utility.yul\":9039:9041   */\n      0x60\n        /* \"#utility.yul\":9024:9042   */\n      dup2\n      add\n        /* \"#utility.yul\":9017:9051   */\n      dup5\n      swap1\n      mstore\n        /* \"#utility.yul\":8883:8886   */\n      0xa0\n        /* \"#utility.yul\":9082:9085   */\n      0x80\n        /* \"#utility.yul\":9067:9086   */\n      dup3\n      add\n        /* \"#utility.yul\":9060:9092   */\n      dup2\n      swap1\n      mstore\n        /* \"#utility.yul\":9108:9127   */\n      dup2\n      add\n        /* \"#utility.yul\":9101:9136   */\n      dup3\n      swap1\n      mstore\n        /* \"#utility.yul\":9129:9135   */\n      dup2\n        /* \"#utility.yul\":9179:9185   */\n      dup4\n        /* \"#utility.yul\":9173:9176   */\n      0xc0\n        /* \"#utility.yul\":9158:9177   */\n      dup4\n      add\n        /* \"#utility.yul\":9145:9194   */\n      calldatacopy\n        /* \"#utility.yul\":9244:9245   */\n      0x00\n        /* \"#utility.yul\":9214:9236   */\n      dup2\n      dup4\n      add\n        /* \"#utility.yul\":9238:9241   */\n      0xc0\n        /* \"#utility.yul\":9210:9242   */\n      swap1\n      dup2\n      add\n        /* \"#utility.yul\":9203:9246   */\n      swap2\n      swap1\n      swap2\n      mstore\n        /* \"#utility.yul\":9307:9309   */\n      0x1f\n        /* \"#utility.yul\":9286:9301   */\n      swap1\n      swap3\n      add\n      not(0x1f)\n        /* \"#utility.yul\":9282:9311   */\n      and\n        /* \"#utility.yul\":9267:9312   */\n      add\n        /* \"#utility.yul\":9263:9318   */\n      add\n      swap6\n        /* \"#utility.yul\":8594:9324   */\n      swap5\n      pop\n      pop\n      pop\n      pop\n      pop\n      jump\t// out\n        /* \"#utility.yul\":9864:9989   */\n    tag_227:\n        /* \"#utility.yul\":9929:9938   */\n      dup1\n      dup3\n      add\n        /* \"#utility.yul\":9950:9960   */\n      dup1\n      dup3\n      gt\n        /* \"#utility.yul\":9947:9983   */\n      iszero\n      tag_96\n      jumpi\n        /* \"#utility.yul\":9963:9981   */\n      tag_96\n      tag_262\n      jump\t// in\n\n    auxdata: 0xa2646970667358221220dff0e91bc1b1236291c2d258a0418500306ef92304ae0854be0097bbf26b862364736f6c634300081a0033\n}\n",
				"bytecode": {
					"linkReferences": {},
					"object": "6080604052348015600e575f80fd5b506040516111ff3803806111ff833981016040819052602b91607b565b60015f55600280546001600160a01b039485166001600160a01b0319918216179091556005929092556003805491909316911617905560b6565b6001600160a01b03811681146078575f80fd5b50565b5f805f60608486031215608c575f80fd5b83516095816065565b60208501516040860151919450925060ab816065565b809150509250925092565b61113c806100c35f395ff3fe608060405234801561000f575f80fd5b5060043610610105575f3560e01c8063846b909a1161009e578063bcead63e1161006e578063bcead63e14610238578063c19d93fb1461024b578063c51b950714610265578063d547741f14610278578063d9d98ce41461028b575f80fd5b8063846b909a146102025780638c9f305f1461021557806391d148541461021e578063a217fddf14610231575f80fd5b806336568abe116100d957806336568abe1461019e57806338d52e0f146101b15780635cffe9de146101dc578063613255ab146101ef575f80fd5b8062abafe11461010957806301ffc9a714610143578063248a9ca3146101665780632f2ff15d14610189575b5f80fd5b6101307fc60d7a62d8843f2b14bc63f2a5240b187980481ad8c001a3caf4916aef3f667e81565b6040519081526020015b60405180910390f35b610156610151366004610e5b565b61029e565b604051901515815260200161013a565b610130610174366004610e89565b5f908152600160208190526040909120015490565b61019c610197366004610eb4565b6102d4565b005b61019c6101ac366004610eb4565b6102ff565b6002546101c4906001600160a01b031681565b6040516001600160a01b03909116815260200161013a565b6101566101ea366004610ee2565b610337565b6101306101fd366004610f7b565b61041d565b61019c610210366004610e89565b6104a4565b61013060055481565b61015661022c366004610eb4565b610715565b6101305f81565b6004546101c4906001600160a01b031681565b6006546102589060ff1681565b60405161013a9190610faa565b6003546101c4906001600160a01b031681565b61019c610286366004610eb4565b61073f565b610130610299366004610fc4565b610764565b5f6001600160e01b03198216637965db0b60e01b14806102ce57506301ffc9a760e01b6001600160e01b03198316145b92915050565b5f82815260016020819052604090912001546102ef816107db565b6102f983836107e5565b50505050565b6001600160a01b03811633146103285760405163334bd91960e11b815260040160405180910390fd5b610332828261085b565b505050565b5f6103406108c6565b5f60065460ff16600181111561035857610358610f96565b1461039c5760405162461bcd60e51b815260206004820152600f60248201526e141bdbdb081b9bdd08199d5b991959608a1b60448201526064015b60405180910390fd5b60035460405163a956239b60e01b81526001600160a01b039091169063a956239b906103cf903090600190600401610fee565b5f604051808303815f87803b1580156103e6575f80fd5b505af11580156103f8573d5f803e3d5ffd5b50505050610409868686868661091d565b905061041460015f55565b95945050505050565b6002545f906001600160a01b0383811691161461043a575f6102ce565b6002546040516370a0823160e01b81523060048201526001600160a01b03909116906370a0823190602401602060405180830381865afa158015610480573d5f803e3d5ffd5b505050506040513d601f19601f820116820180604052508101906102ce919061101b565b6104ac6108c6565b5f81116104fb5760405162461bcd60e51b815260206004820181905260248201527f416d6f756e74206d7573742062652067726561746572207468616e207a65726f6044820152606401610393565b600254604051636eb1769f60e11b815233600482015230602482015282916001600160a01b03169063dd62ed3e90604401602060405180830381865afa158015610547573d5f803e3d5ffd5b505050506040513d601f19601f8201168201806040525081019061056b919061101b565b10156105b95760405162461bcd60e51b815260206004820181905260248201527f416c6c6f77616e6365206e6f742073657420666f722074686520616d6f756e746044820152606401610393565b6002546040516323b872dd60e01b8152336004820152306024820152604481018390526001600160a01b03909116906323b872dd906064016020604051808303815f875af115801561060d573d5f803e3d5ffd5b505050506040513d601f19601f820116820180604052508101906106319190611032565b5061065c7fc60d7a62d8843f2b14bc63f2a5240b187980481ad8c001a3caf4916aef3f667e336107e5565b50600480546001600160a01b031916331781556006805460ff1916815560035460405163a956239b60e01b81526001600160a01b039091169263a956239b926106a792309201610fee565b5f604051808303815f87803b1580156106be575f80fd5b505af11580156106d0573d5f803e3d5ffd5b50506040518381523392507f726d5f1a838fe31748f737fa3ae5539ccff95952adfc593a1299532b643ff7a8915060200160405180910390a261071260015f55565b50565b5f9182526001602090815260408084206001600160a01b0393909316845291905290205460ff1690565b5f828152600160208190526040909120015461075a816107db565b6102f9838361085b565b6002545f906001600160a01b038481169116146107b75760405162461bcd60e51b81526020600482015260116024820152702ab739bab83837b93a32b2103a37b5b2b760791b6044820152606401610393565b5f612710600554846107c99190611065565b6107d3919061107c565b949350505050565b6107128133610e1e565b5f6107f08383610715565b610854575f8381526001602081815260408084206001600160a01b0387168086529252808420805460ff19169093179092559051339286917f2f8788117e7eff1d82e926ec794901d17c78024a50270940304540a733656f0d9190a45060016102ce565b505f6102ce565b5f6108668383610715565b15610854575f8381526001602090815260408083206001600160a01b0386168085529252808320805460ff1916905551339286917ff6391f5c32d9c69d2a47ea670b442974b53935d1edc7fd64eb21e047a839171b9190a45060016102ce565b60025f54036109175760405162461bcd60e51b815260206004820152601f60248201527f5265656e7472616e637947756172643a207265656e7472616e742063616c6c006044820152606401610393565b60025f55565b6002545f906001600160a01b038681169116146109705760405162461bcd60e51b81526020600482015260116024820152702ab739bab83837b93a32b2103a37b5b2b760791b6044820152606401610393565b5f61097b8686610764565b6002546040516370a0823160e01b81523060048201529192505f916001600160a01b03909116906370a0823190602401602060405180830381865afa1580156109c6573d5f803e3d5ffd5b505050506040513d601f19601f820116820180604052508101906109ea919061101b565b60025460405163a9059cbb60e01b81526001600160a01b038b81166004830152602482018a905292935091169063a9059cbb906044016020604051808303815f875af1158015610a3c573d5f803e3d5ffd5b505050506040513d601f19601f82011682018060405250810190610a609190611032565b506040516323e30c8b60e01b81527f439148f0bbc682ca079e46d6e2c2f0c1e3b820f1a291b069d8882abf8cf18dd9906001600160a01b038a16906323e30c8b90610ab99033908c908c9089908d908d9060040161109b565b6020604051808303815f875af1158015610ad5573d5f803e3d5ffd5b505050506040513d601f19601f82011682018060405250810190610af9919061101b565b14610b3a5760405162461bcd60e51b8152602060048201526011602482015270119b185cda081b1bd85b8819985a5b1959607a1b6044820152606401610393565b5f610b4583886110f3565b6002546040516323b872dd60e01b81526001600160a01b038c81166004830152306024830152604482018490529293509116906323b872dd906064016020604051808303815f875af1158015610b9d573d5f803e3d5ffd5b505050506040513d601f19601f82011682018060405250810190610bc19190611032565b506002546040516370a0823160e01b815230600482015283916001600160a01b0316906370a0823190602401602060405180830381865afa158015610c08573d5f803e3d5ffd5b505050506040513d601f19601f82011682018060405250810190610c2c919061101b565b1015610c7a5760405162461bcd60e51b815260206004820152601b60248201527f466c617368206c6f616e2072657061796d656e74206661696c656400000000006044820152606401610393565b6006805460ff1916600117905560035460405163a956239b60e01b81526001600160a01b039091169063a956239b90610cb99030906004908101610fee565b5f604051808303815f87803b158015610cd0575f80fd5b505af1158015610ce2573d5f803e3d5ffd5b5050600354604051637e72c7d760e01b81523060048201526001600160a01b039091169250637e72c7d791506024015f604051808303815f87803b158015610d28575f80fd5b505af1158015610d3a573d5f803e3d5ffd5b50506002546004805460405163a9059cbb60e01b81526001600160a01b039182169281019290925260248201869052909116925063a9059cbb91506044016020604051808303815f875af1158015610d94573d5f803e3d5ffd5b505050506040513d601f19601f82011682018060405250810190610db89190611032565b50876001600160a01b0316896001600160a01b03167f9d0d497e678f62d6b162c97b9724a39f45fe674650dcd4a5e88ff6317e63764f8986604051610e07929190918252602082015260400190565b60405180910390a350600198975050505050505050565b610e288282610715565b610e575760405163e2517d3f60e01b81526001600160a01b038216600482015260248101839052604401610393565b5050565b5f60208284031215610e6b575f80fd5b81356001600160e01b031981168114610e82575f80fd5b9392505050565b5f60208284031215610e99575f80fd5b5035919050565b6001600160a01b0381168114610712575f80fd5b5f8060408385031215610ec5575f80fd5b823591506020830135610ed781610ea0565b809150509250929050565b5f805f805f60808688031215610ef6575f80fd5b8535610f0181610ea0565b94506020860135610f1181610ea0565b935060408601359250606086013567ffffffffffffffff811115610f33575f80fd5b8601601f81018813610f43575f80fd5b803567ffffffffffffffff811115610f59575f80fd5b886020828401011115610f6a575f80fd5b959894975092955050506020019190565b5f60208284031215610f8b575f80fd5b8135610e8281610ea0565b634e487b7160e01b5f52602160045260245ffd5b6020810160028310610fbe57610fbe610f96565b91905290565b5f8060408385031215610fd5575f80fd5b8235610fe081610ea0565b946020939093013593505050565b6001600160a01b0383168152604081016007831061100e5761100e610f96565b8260208301529392505050565b5f6020828403121561102b575f80fd5b5051919050565b5f60208284031215611042575f80fd5b81518015158114610e82575f80fd5b634e487b7160e01b5f52601160045260245ffd5b80820281158282048414176102ce576102ce611051565b5f8261109657634e487b7160e01b5f52601260045260245ffd5b500490565b6001600160a01b03878116825286166020820152604081018590526060810184905260a0608082018190528101829052818360c08301375f81830160c090810191909152601f909201601f1916010195945050505050565b808201808211156102ce576102ce61105156fea2646970667358221220dff0e91bc1b1236291c2d258a0418500306ef92304ae0854be0097bbf26b862364736f6c634300081a0033",
					"opcodes": "PUSH1 0x80 PUSH1 0x40 MSTORE CALLVALUE DUP1 ISZERO PUSH1 0xE JUMPI PUSH0 DUP1 REVERT JUMPDEST POP PUSH1 0x40 MLOAD PUSH2 0x11FF CODESIZE SUB DUP1 PUSH2 0x11FF DUP4 CODECOPY DUP2 ADD PUSH1 0x40 DUP2 SWAP1 MSTORE PUSH1 0x2B SWAP2 PUSH1 0x7B JUMP JUMPDEST PUSH1 0x1 PUSH0 SSTORE PUSH1 0x2 DUP1 SLOAD PUSH1 0x1 PUSH1 0x1 PUSH1 0xA0 SHL SUB SWAP5 DUP6 AND PUSH1 0x1 PUSH1 0x1 PUSH1 0xA0 SHL SUB NOT SWAP2 DUP3 AND OR SWAP1 SWAP2 SSTORE PUSH1 0x5 SWAP3 SWAP1 SWAP3 SSTORE PUSH1 0x3 DUP1 SLOAD SWAP2 SWAP1 SWAP4 AND SWAP2 AND OR SWAP1 SSTORE PUSH1 0xB6 JUMP JUMPDEST PUSH1 0x1 PUSH1 0x1 PUSH1 0xA0 SHL SUB DUP2 AND DUP2 EQ PUSH1 0x78 JUMPI PUSH0 DUP1 REVERT JUMPDEST POP JUMP JUMPDEST PUSH0 DUP1 PUSH0 PUSH1 0x60 DUP5 DUP7 SUB SLT ISZERO PUSH1 0x8C JUMPI PUSH0 DUP1 REVERT JUMPDEST DUP4 MLOAD PUSH1 0x95 DUP2 PUSH1 0x65 JUMP JUMPDEST PUSH1 0x20 DUP6 ADD MLOAD PUSH1 0x40 DUP7 ADD MLOAD SWAP2 SWAP5 POP SWAP3 POP PUSH1 0xAB DUP2 PUSH1 0x65 JUMP JUMPDEST DUP1 SWAP2 POP POP SWAP3 POP SWAP3 POP SWAP3 JUMP JUMPDEST PUSH2 0x113C DUP1 PUSH2 0xC3 PUSH0 CODECOPY PUSH0 RETURN INVALID PUSH1 0x80 PUSH1 0x40 MSTORE CALLVALUE DUP1 ISZERO PUSH2 0xF JUMPI PUSH0 DUP1 REVERT JUMPDEST POP PUSH1 0x4 CALLDATASIZE LT PUSH2 0x105 JUMPI PUSH0 CALLDATALOAD PUSH1 0xE0 SHR DUP1 PUSH4 0x846B909A GT PUSH2 0x9E JUMPI DUP1 PUSH4 0xBCEAD63E GT PUSH2 0x6E JUMPI DUP1 PUSH4 0xBCEAD63E EQ PUSH2 0x238 JUMPI DUP1 PUSH4 0xC19D93FB EQ PUSH2 0x24B JUMPI DUP1 PUSH4 0xC51B9507 EQ PUSH2 0x265 JUMPI DUP1 PUSH4 0xD547741F EQ PUSH2 0x278 JUMPI DUP1 PUSH4 0xD9D98CE4 EQ PUSH2 0x28B JUMPI PUSH0 DUP1 REVERT JUMPDEST DUP1 PUSH4 0x846B909A EQ PUSH2 0x202 JUMPI DUP1 PUSH4 0x8C9F305F EQ PUSH2 0x215 JUMPI DUP1 PUSH4 0x91D14854 EQ PUSH2 0x21E JUMPI DUP1 PUSH4 0xA217FDDF EQ PUSH2 0x231 JUMPI PUSH0 DUP1 REVERT JUMPDEST DUP1 PUSH4 0x36568ABE GT PUSH2 0xD9 JUMPI DUP1 PUSH4 0x36568ABE EQ PUSH2 0x19E JUMPI DUP1 PUSH4 0x38D52E0F EQ PUSH2 0x1B1 JUMPI DUP1 PUSH4 0x5CFFE9DE EQ PUSH2 0x1DC JUMPI DUP1 PUSH4 0x613255AB EQ PUSH2 0x1EF JUMPI PUSH0 DUP1 REVERT JUMPDEST DUP1 PUSH3 0xABAFE1 EQ PUSH2 0x109 JUMPI DUP1 PUSH4 0x1FFC9A7 EQ PUSH2 0x143 JUMPI DUP1 PUSH4 0x248A9CA3 EQ PUSH2 0x166 JUMPI DUP1 PUSH4 0x2F2FF15D EQ PUSH2 0x189 JUMPI JUMPDEST PUSH0 DUP1 REVERT JUMPDEST PUSH2 0x130 PUSH32 0xC60D7A62D8843F2B14BC63F2A5240B187980481AD8C001A3CAF4916AEF3F667E DUP2 JUMP JUMPDEST PUSH1 0x40 MLOAD SWAP1 DUP2 MSTORE PUSH1 0x20 ADD JUMPDEST PUSH1 0x40 MLOAD DUP1 SWAP2 SUB SWAP1 RETURN JUMPDEST PUSH2 0x156 PUSH2 0x151 CALLDATASIZE PUSH1 0x4 PUSH2 0xE5B JUMP JUMPDEST PUSH2 0x29E JUMP JUMPDEST PUSH1 0x40 MLOAD SWAP1 ISZERO ISZERO DUP2 MSTORE PUSH1 0x20 ADD PUSH2 0x13A JUMP JUMPDEST PUSH2 0x130 PUSH2 0x174 CALLDATASIZE PUSH1 0x4 PUSH2 0xE89 JUMP JUMPDEST PUSH0 SWAP1 DUP2 MSTORE PUSH1 0x1 PUSH1 0x20 DUP2 SWAP1 MSTORE PUSH1 0x40 SWAP1 SWAP2 KECCAK256 ADD SLOAD SWAP1 JUMP JUMPDEST PUSH2 0x19C PUSH2 0x197 CALLDATASIZE PUSH1 0x4 PUSH2 0xEB4 JUMP JUMPDEST PUSH2 0x2D4 JUMP JUMPDEST STOP JUMPDEST PUSH2 0x19C PUSH2 0x1AC CALLDATASIZE PUSH1 0x4 PUSH2 0xEB4 JUMP JUMPDEST PUSH2 0x2FF JUMP JUMPDEST PUSH1 0x2 SLOAD PUSH2 0x1C4 SWAP1 PUSH1 0x1 PUSH1 0x1 PUSH1 0xA0 SHL SUB AND DUP2 JUMP JUMPDEST PUSH1 0x40 MLOAD PUSH1 0x1 PUSH1 0x1 PUSH1 0xA0 SHL SUB SWAP1 SWAP2 AND DUP2 MSTORE PUSH1 0x20 ADD PUSH2 0x13A JUMP JUMPDEST PUSH2 0x156 PUSH2 0x1EA CALLDATASIZE PUSH1 0x4 PUSH2 0xEE2 JUMP JUMPDEST PUSH2 0x337 JUMP JUMPDEST PUSH2 0x130 PUSH2 0x1FD CALLDATASIZE PUSH1 0x4 PUSH2 0xF7B JUMP JUMPDEST PUSH2 0x41D JUMP JUMPDEST PUSH2 0x19C PUSH2 0x210 CALLDATASIZE PUSH1 0x4 PUSH2 0xE89 JUMP JUMPDEST PUSH2 0x4A4 JUMP JUMPDEST PUSH2 0x130 PUSH1 0x5 SLOAD DUP2 JUMP JUMPDEST PUSH2 0x156 PUSH2 0x22C CALLDATASIZE PUSH1 0x4 PUSH2 0xEB4 JUMP JUMPDEST PUSH2 0x715 JUMP JUMPDEST PUSH2 0x130 PUSH0 DUP2 JUMP JUMPDEST PUSH1 0x4 SLOAD PUSH2 0x1C4 SWAP1 PUSH1 0x1 PUSH1 0x1 PUSH1 0xA0 SHL SUB AND DUP2 JUMP JUMPDEST PUSH1 0x6 SLOAD PUSH2 0x258 SWAP1 PUSH1 0xFF AND DUP2 JUMP JUMPDEST PUSH1 0x40 MLOAD PUSH2 0x13A SWAP2 SWAP1 PUSH2 0xFAA JUMP JUMPDEST PUSH1 0x3 SLOAD PUSH2 0x1C4 SWAP1 PUSH1 0x1 PUSH1 0x1 PUSH1 0xA0 SHL SUB AND DUP2 JUMP JUMPDEST PUSH2 0x19C PUSH2 0x286 CALLDATASIZE PUSH1 0x4 PUSH2 0xEB4 JUMP JUMPDEST PUSH2 0x73F JUMP JUMPDEST PUSH2 0x130 PUSH2 0x299 CALLDATASIZE PUSH1 0x4 PUSH2 0xFC4 JUMP JUMPDEST PUSH2 0x764 JUMP JUMPDEST PUSH0 PUSH1 0x1 PUSH1 0x1 PUSH1 0xE0 SHL SUB NOT DUP3 AND PUSH4 0x7965DB0B PUSH1 0xE0 SHL EQ DUP1 PUSH2 0x2CE JUMPI POP PUSH4 0x1FFC9A7 PUSH1 0xE0 SHL PUSH1 0x1 PUSH1 0x1 PUSH1 0xE0 SHL SUB NOT DUP4 AND EQ JUMPDEST SWAP3 SWAP2 POP POP JUMP JUMPDEST PUSH0 DUP3 DUP2 MSTORE PUSH1 0x1 PUSH1 0x20 DUP2 SWAP1 MSTORE PUSH1 0x40 SWAP1 SWAP2 KECCAK256 ADD SLOAD PUSH2 0x2EF DUP2 PUSH2 0x7DB JUMP JUMPDEST PUSH2 0x2F9 DUP4 DUP4 PUSH2 0x7E5 JUMP JUMPDEST POP POP POP POP JUMP JUMPDEST PUSH1 0x1 PUSH1 0x1 PUSH1 0xA0 SHL SUB DUP2 AND CALLER EQ PUSH2 0x328 JUMPI PUSH1 0x40 MLOAD PUSH4 0x334BD919 PUSH1 0xE1 SHL DUP2 MSTORE PUSH1 0x4 ADD PUSH1 0x40 MLOAD DUP1 SWAP2 SUB SWAP1 REVERT JUMPDEST PUSH2 0x332 DUP3 DUP3 PUSH2 0x85B JUMP JUMPDEST POP POP POP JUMP JUMPDEST PUSH0 PUSH2 0x340 PUSH2 0x8C6 JUMP JUMPDEST PUSH0 PUSH1 0x6 SLOAD PUSH1 0xFF AND PUSH1 0x1 DUP2 GT ISZERO PUSH2 0x358 JUMPI PUSH2 0x358 PUSH2 0xF96 JUMP JUMPDEST EQ PUSH2 0x39C JUMPI PUSH1 0x40 MLOAD PUSH3 0x461BCD PUSH1 0xE5 SHL DUP2 MSTORE PUSH1 0x20 PUSH1 0x4 DUP3 ADD MSTORE PUSH1 0xF PUSH1 0x24 DUP3 ADD MSTORE PUSH15 0x141BDBDB081B9BDD08199D5B991959 PUSH1 0x8A SHL PUSH1 0x44 DUP3 ADD MSTORE PUSH1 0x64 ADD JUMPDEST PUSH1 0x40 MLOAD DUP1 SWAP2 SUB SWAP1 REVERT JUMPDEST PUSH1 0x3 SLOAD PUSH1 0x40 MLOAD PUSH4 0xA956239B PUSH1 0xE0 SHL DUP2 MSTORE PUSH1 0x1 PUSH1 0x1 PUSH1 0xA0 SHL SUB SWAP1 SWAP2 AND SWAP1 PUSH4 0xA956239B SWAP1 PUSH2 0x3CF SWAP1 ADDRESS SWAP1 PUSH1 0x1 SWAP1 PUSH1 0x4 ADD PUSH2 0xFEE JUMP JUMPDEST PUSH0 PUSH1 0x40 MLOAD DUP1 DUP4 SUB DUP2 PUSH0 DUP8 DUP1 EXTCODESIZE ISZERO DUP1 ISZERO PUSH2 0x3E6 JUMPI PUSH0 DUP1 REVERT JUMPDEST POP GAS CALL ISZERO DUP1 ISZERO PUSH2 0x3F8 JUMPI RETURNDATASIZE PUSH0 DUP1 RETURNDATACOPY RETURNDATASIZE PUSH0 REVERT JUMPDEST POP POP POP POP PUSH2 0x409 DUP7 DUP7 DUP7 DUP7 DUP7 PUSH2 0x91D JUMP JUMPDEST SWAP1 POP PUSH2 0x414 PUSH1 0x1 PUSH0 SSTORE JUMP JUMPDEST SWAP6 SWAP5 POP POP POP POP POP JUMP JUMPDEST PUSH1 0x2 SLOAD PUSH0 SWAP1 PUSH1 0x1 PUSH1 0x1 PUSH1 0xA0 SHL SUB DUP4 DUP2 AND SWAP2 AND EQ PUSH2 0x43A JUMPI PUSH0 PUSH2 0x2CE JUMP JUMPDEST PUSH1 0x2 SLOAD PUSH1 0x40 MLOAD PUSH4 0x70A08231 PUSH1 0xE0 SHL DUP2 MSTORE ADDRESS PUSH1 0x4 DUP3 ADD MSTORE PUSH1 0x1 PUSH1 0x1 PUSH1 0xA0 SHL SUB SWAP1 SWAP2 AND SWAP1 PUSH4 0x70A08231 SWAP1 PUSH1 0x24 ADD PUSH1 0x20 PUSH1 0x40 MLOAD DUP1 DUP4 SUB DUP2 DUP7 GAS STATICCALL ISZERO DUP1 ISZERO PUSH2 0x480 JUMPI RETURNDATASIZE PUSH0 DUP1 RETURNDATACOPY RETURNDATASIZE PUSH0 REVERT JUMPDEST POP POP POP POP PUSH1 0x40 MLOAD RETURNDATASIZE PUSH1 0x1F NOT PUSH1 0x1F DUP3 ADD AND DUP3 ADD DUP1 PUSH1 0x40 MSTORE POP DUP2 ADD SWAP1 PUSH2 0x2CE SWAP2 SWAP1 PUSH2 0x101B JUMP JUMPDEST PUSH2 0x4AC PUSH2 0x8C6 JUMP JUMPDEST PUSH0 DUP2 GT PUSH2 0x4FB JUMPI PUSH1 0x40 MLOAD PUSH3 0x461BCD PUSH1 0xE5 SHL DUP2 MSTORE PUSH1 0x20 PUSH1 0x4 DUP3 ADD DUP2 SWAP1 MSTORE PUSH1 0x24 DUP3 ADD MSTORE PUSH32 0x416D6F756E74206D7573742062652067726561746572207468616E207A65726F PUSH1 0x44 DUP3 ADD MSTORE PUSH1 0x64 ADD PUSH2 0x393 JUMP JUMPDEST PUSH1 0x2 SLOAD PUSH1 0x40 MLOAD PUSH4 0x6EB1769F PUSH1 0xE1 SHL DUP2 MSTORE CALLER PUSH1 0x4 DUP3 ADD MSTORE ADDRESS PUSH1 0x24 DUP3 ADD MSTORE DUP3 SWAP2 PUSH1 0x1 PUSH1 0x1 PUSH1 0xA0 SHL SUB AND SWAP1 PUSH4 0xDD62ED3E SWAP1 PUSH1 0x44 ADD PUSH1 0x20 PUSH1 0x40 MLOAD DUP1 DUP4 SUB DUP2 DUP7 GAS STATICCALL ISZERO DUP1 ISZERO PUSH2 0x547 JUMPI RETURNDATASIZE PUSH0 DUP1 RETURNDATACOPY RETURNDATASIZE PUSH0 REVERT JUMPDEST POP POP POP POP PUSH1 0x40 MLOAD RETURNDATASIZE PUSH1 0x1F NOT PUSH1 0x1F DUP3 ADD AND DUP3 ADD DUP1 PUSH1 0x40 MSTORE POP DUP2 ADD SWAP1 PUSH2 0x56B SWAP2 SWAP1 PUSH2 0x101B JUMP JUMPDEST LT ISZERO PUSH2 0x5B9 JUMPI PUSH1 0x40 MLOAD PUSH3 0x461BCD PUSH1 0xE5 SHL DUP2 MSTORE PUSH1 0x20 PUSH1 0x4 DUP3 ADD DUP2 SWAP1 MSTORE PUSH1 0x24 DUP3 ADD MSTORE PUSH32 0x416C6C6F77616E6365206E6F742073657420666F722074686520616D6F756E74 PUSH1 0x44 DUP3 ADD MSTORE PUSH1 0x64 ADD PUSH2 0x393 JUMP JUMPDEST PUSH1 0x2 SLOAD PUSH1 0x40 MLOAD PUSH4 0x23B872DD PUSH1 0xE0 SHL DUP2 MSTORE CALLER PUSH1 0x4 DUP3 ADD MSTORE ADDRESS PUSH1 0x24 DUP3 ADD MSTORE PUSH1 0x44 DUP2 ADD DUP4 SWAP1 MSTORE PUSH1 0x1 PUSH1 0x1 PUSH1 0xA0 SHL SUB SWAP1 SWAP2 AND SWAP1 PUSH4 0x23B872DD SWAP1 PUSH1 0x64 ADD PUSH1 0x20 PUSH1 0x40 MLOAD DUP1 DUP4 SUB DUP2 PUSH0 DUP8 GAS CALL ISZERO DUP1 ISZERO PUSH2 0x60D JUMPI RETURNDATASIZE PUSH0 DUP1 RETURNDATACOPY RETURNDATASIZE PUSH0 REVERT JUMPDEST POP POP POP POP PUSH1 0x40 MLOAD RETURNDATASIZE PUSH1 0x1F NOT PUSH1 0x1F DUP3 ADD AND DUP3 ADD DUP1 PUSH1 0x40 MSTORE POP DUP2 ADD SWAP1 PUSH2 0x631 SWAP2 SWAP1 PUSH2 0x1032 JUMP JUMPDEST POP PUSH2 0x65C PUSH32 0xC60D7A62D8843F2B14BC63F2A5240B187980481AD8C001A3CAF4916AEF3F667E CALLER PUSH2 0x7E5 JUMP JUMPDEST POP PUSH1 0x4 DUP1 SLOAD PUSH1 0x1 PUSH1 0x1 PUSH1 0xA0 SHL SUB NOT AND CALLER OR DUP2 SSTORE PUSH1 0x6 DUP1 SLOAD PUSH1 0xFF NOT AND DUP2 SSTORE PUSH1 0x3 SLOAD PUSH1 0x40 MLOAD PUSH4 0xA956239B PUSH1 0xE0 SHL DUP2 MSTORE PUSH1 0x1 PUSH1 0x1 PUSH1 0xA0 SHL SUB SWAP1 SWAP2 AND SWAP3 PUSH4 0xA956239B SWAP3 PUSH2 0x6A7 SWAP3 ADDRESS SWAP3 ADD PUSH2 0xFEE JUMP JUMPDEST PUSH0 PUSH1 0x40 MLOAD DUP1 DUP4 SUB DUP2 PUSH0 DUP8 DUP1 EXTCODESIZE ISZERO DUP1 ISZERO PUSH2 0x6BE JUMPI PUSH0 DUP1 REVERT JUMPDEST POP GAS CALL ISZERO DUP1 ISZERO PUSH2 0x6D0 JUMPI RETURNDATASIZE PUSH0 DUP1 RETURNDATACOPY RETURNDATASIZE PUSH0 REVERT JUMPDEST POP POP PUSH1 0x40 MLOAD DUP4 DUP2 MSTORE CALLER SWAP3 POP PUSH32 0x726D5F1A838FE31748F737FA3AE5539CCFF95952ADFC593A1299532B643FF7A8 SWAP2 POP PUSH1 0x20 ADD PUSH1 0x40 MLOAD DUP1 SWAP2 SUB SWAP1 LOG2 PUSH2 0x712 PUSH1 0x1 PUSH0 SSTORE JUMP JUMPDEST POP JUMP JUMPDEST PUSH0 SWAP2 DUP3 MSTORE PUSH1 0x1 PUSH1 0x20 SWAP1 DUP2 MSTORE PUSH1 0x40 DUP1 DUP5 KECCAK256 PUSH1 0x1 PUSH1 0x1 PUSH1 0xA0 SHL SUB SWAP4 SWAP1 SWAP4 AND DUP5 MSTORE SWAP2 SWAP1 MSTORE SWAP1 KECCAK256 SLOAD PUSH1 0xFF AND SWAP1 JUMP JUMPDEST PUSH0 DUP3 DUP2 MSTORE PUSH1 0x1 PUSH1 0x20 DUP2 SWAP1 MSTORE PUSH1 0x40 SWAP1 SWAP2 KECCAK256 ADD SLOAD PUSH2 0x75A DUP2 PUSH2 0x7DB JUMP JUMPDEST PUSH2 0x2F9 DUP4 DUP4 PUSH2 0x85B JUMP JUMPDEST PUSH1 0x2 SLOAD PUSH0 SWAP1 PUSH1 0x1 PUSH1 0x1 PUSH1 0xA0 SHL SUB DUP5 DUP2 AND SWAP2 AND EQ PUSH2 0x7B7 JUMPI PUSH1 0x40 MLOAD PUSH3 0x461BCD PUSH1 0xE5 SHL DUP2 MSTORE PUSH1 0x20 PUSH1 0x4 DUP3 ADD MSTORE PUSH1 0x11 PUSH1 0x24 DUP3 ADD MSTORE PUSH17 0x2AB739BAB83837B93A32B2103A37B5B2B7 PUSH1 0x79 SHL PUSH1 0x44 DUP3 ADD MSTORE PUSH1 0x64 ADD PUSH2 0x393 JUMP JUMPDEST PUSH0 PUSH2 0x2710 PUSH1 0x5 SLOAD DUP5 PUSH2 0x7C9 SWAP2 SWAP1 PUSH2 0x1065 JUMP JUMPDEST PUSH2 0x7D3 SWAP2 SWAP1 PUSH2 0x107C JUMP JUMPDEST SWAP5 SWAP4 POP POP POP POP JUMP JUMPDEST PUSH2 0x712 DUP2 CALLER PUSH2 0xE1E JUMP JUMPDEST PUSH0 PUSH2 0x7F0 DUP4 DUP4 PUSH2 0x715 JUMP JUMPDEST PUSH2 0x854 JUMPI PUSH0 DUP4 DUP2 MSTORE PUSH1 0x1 PUSH1 0x20 DUP2 DUP2 MSTORE PUSH1 0x40 DUP1 DUP5 KECCAK256 PUSH1 0x1 PUSH1 0x1 PUSH1 0xA0 SHL SUB DUP8 AND DUP1 DUP7 MSTORE SWAP3 MSTORE DUP1 DUP5 KECCAK256 DUP1 SLOAD PUSH1 0xFF NOT AND SWAP1 SWAP4 OR SWAP1 SWAP3 SSTORE SWAP1 MLOAD CALLER SWAP3 DUP7 SWAP2 PUSH32 0x2F8788117E7EFF1D82E926EC794901D17C78024A50270940304540A733656F0D SWAP2 SWAP1 LOG4 POP PUSH1 0x1 PUSH2 0x2CE JUMP JUMPDEST POP PUSH0 PUSH2 0x2CE JUMP JUMPDEST PUSH0 PUSH2 0x866 DUP4 DUP4 PUSH2 0x715 JUMP JUMPDEST ISZERO PUSH2 0x854 JUMPI PUSH0 DUP4 DUP2 MSTORE PUSH1 0x1 PUSH1 0x20 SWAP1 DUP2 MSTORE PUSH1 0x40 DUP1 DUP4 KECCAK256 PUSH1 0x1 PUSH1 0x1 PUSH1 0xA0 SHL SUB DUP7 AND DUP1 DUP6 MSTORE SWAP3 MSTORE DUP1 DUP4 KECCAK256 DUP1 SLOAD PUSH1 0xFF NOT AND SWAP1 SSTORE MLOAD CALLER SWAP3 DUP7 SWAP2 PUSH32 0xF6391F5C32D9C69D2A47EA670B442974B53935D1EDC7FD64EB21E047A839171B SWAP2 SWAP1 LOG4 POP PUSH1 0x1 PUSH2 0x2CE JUMP JUMPDEST PUSH1 0x2 PUSH0 SLOAD SUB PUSH2 0x917 JUMPI PUSH1 0x40 MLOAD PUSH3 0x461BCD PUSH1 0xE5 SHL DUP2 MSTORE PUSH1 0x20 PUSH1 0x4 DUP3 ADD MSTORE PUSH1 0x1F PUSH1 0x24 DUP3 ADD MSTORE PUSH32 0x5265656E7472616E637947756172643A207265656E7472616E742063616C6C00 PUSH1 0x44 DUP3 ADD MSTORE PUSH1 0x64 ADD PUSH2 0x393 JUMP JUMPDEST PUSH1 0x2 PUSH0 SSTORE JUMP JUMPDEST PUSH1 0x2 SLOAD PUSH0 SWAP1 PUSH1 0x1 PUSH1 0x1 PUSH1 0xA0 SHL SUB DUP7 DUP2 AND SWAP2 AND EQ PUSH2 0x970 JUMPI PUSH1 0x40 MLOAD PUSH3 0x461BCD PUSH1 0xE5 SHL DUP2 MSTORE PUSH1 0x20 PUSH1 0x4 DUP3 ADD MSTORE PUSH1 0x11 PUSH1 0x24 DUP3 ADD MSTORE PUSH17 0x2AB739BAB83837B93A32B2103A37B5B2B7 PUSH1 0x79 SHL PUSH1 0x44 DUP3 ADD MSTORE PUSH1 0x64 ADD PUSH2 0x393 JUMP JUMPDEST PUSH0 PUSH2 0x97B DUP7 DUP7 PUSH2 0x764 JUMP JUMPDEST PUSH1 0x2 SLOAD PUSH1 0x40 MLOAD PUSH4 0x70A08231 PUSH1 0xE0 SHL DUP2 MSTORE ADDRESS PUSH1 0x4 DUP3 ADD MSTORE SWAP2 SWAP3 POP PUSH0 SWAP2 PUSH1 0x1 PUSH1 0x1 PUSH1 0xA0 SHL SUB SWAP1 SWAP2 AND SWAP1 PUSH4 0x70A08231 SWAP1 PUSH1 0x24 ADD PUSH1 0x20 PUSH1 0x40 MLOAD DUP1 DUP4 SUB DUP2 DUP7 GAS STATICCALL ISZERO DUP1 ISZERO PUSH2 0x9C6 JUMPI RETURNDATASIZE PUSH0 DUP1 RETURNDATACOPY RETURNDATASIZE PUSH0 REVERT JUMPDEST POP POP POP POP PUSH1 0x40 MLOAD RETURNDATASIZE PUSH1 0x1F NOT PUSH1 0x1F DUP3 ADD AND DUP3 ADD DUP1 PUSH1 0x40 MSTORE POP DUP2 ADD SWAP1 PUSH2 0x9EA SWAP2 SWAP1 PUSH2 0x101B JUMP JUMPDEST PUSH1 0x2 SLOAD PUSH1 0x40 MLOAD PUSH4 0xA9059CBB PUSH1 0xE0 SHL DUP2 MSTORE PUSH1 0x1 PUSH1 0x1 PUSH1 0xA0 SHL SUB DUP12 DUP2 AND PUSH1 0x4 DUP4 ADD MSTORE PUSH1 0x24 DUP3 ADD DUP11 SWAP1 MSTORE SWAP3 SWAP4 POP SWAP2 AND SWAP1 PUSH4 0xA9059CBB SWAP1 PUSH1 0x44 ADD PUSH1 0x20 PUSH1 0x40 MLOAD DUP1 DUP4 SUB DUP2 PUSH0 DUP8 GAS CALL ISZERO DUP1 ISZERO PUSH2 0xA3C JUMPI RETURNDATASIZE PUSH0 DUP1 RETURNDATACOPY RETURNDATASIZE PUSH0 REVERT JUMPDEST POP POP POP POP PUSH1 0x40 MLOAD RETURNDATASIZE PUSH1 0x1F NOT PUSH1 0x1F DUP3 ADD AND DUP3 ADD DUP1 PUSH1 0x40 MSTORE POP DUP2 ADD SWAP1 PUSH2 0xA60 SWAP2 SWAP1 PUSH2 0x1032 JUMP JUMPDEST POP PUSH1 0x40 MLOAD PUSH4 0x23E30C8B PUSH1 0xE0 SHL DUP2 MSTORE PUSH32 0x439148F0BBC682CA079E46D6E2C2F0C1E3B820F1A291B069D8882ABF8CF18DD9 SWAP1 PUSH1 0x1 PUSH1 0x1 PUSH1 0xA0 SHL SUB DUP11 AND SWAP1 PUSH4 0x23E30C8B SWAP1 PUSH2 0xAB9 SWAP1 CALLER SWAP1 DUP13 SWAP1 DUP13 SWAP1 DUP10 SWAP1 DUP14 SWAP1 DUP14 SWAP1 PUSH1 0x4 ADD PUSH2 0x109B JUMP JUMPDEST PUSH1 0x20 PUSH1 0x40 MLOAD DUP1 DUP4 SUB DUP2 PUSH0 DUP8 GAS CALL ISZERO DUP1 ISZERO PUSH2 0xAD5 JUMPI RETURNDATASIZE PUSH0 DUP1 RETURNDATACOPY RETURNDATASIZE PUSH0 REVERT JUMPDEST POP POP POP POP PUSH1 0x40 MLOAD RETURNDATASIZE PUSH1 0x1F NOT PUSH1 0x1F DUP3 ADD AND DUP3 ADD DUP1 PUSH1 0x40 MSTORE POP DUP2 ADD SWAP1 PUSH2 0xAF9 SWAP2 SWAP1 PUSH2 0x101B JUMP JUMPDEST EQ PUSH2 0xB3A JUMPI PUSH1 0x40 MLOAD PUSH3 0x461BCD PUSH1 0xE5 SHL DUP2 MSTORE PUSH1 0x20 PUSH1 0x4 DUP3 ADD MSTORE PUSH1 0x11 PUSH1 0x24 DUP3 ADD MSTORE PUSH17 0x119B185CDA081B1BD85B8819985A5B1959 PUSH1 0x7A SHL PUSH1 0x44 DUP3 ADD MSTORE PUSH1 0x64 ADD PUSH2 0x393 JUMP JUMPDEST PUSH0 PUSH2 0xB45 DUP4 DUP9 PUSH2 0x10F3 JUMP JUMPDEST PUSH1 0x2 SLOAD PUSH1 0x40 MLOAD PUSH4 0x23B872DD PUSH1 0xE0 SHL DUP2 MSTORE PUSH1 0x1 PUSH1 0x1 PUSH1 0xA0 SHL SUB DUP13 DUP2 AND PUSH1 0x4 DUP4 ADD MSTORE ADDRESS PUSH1 0x24 DUP4 ADD MSTORE PUSH1 0x44 DUP3 ADD DUP5 SWAP1 MSTORE SWAP3 SWAP4 POP SWAP2 AND SWAP1 PUSH4 0x23B872DD SWAP1 PUSH1 0x64 ADD PUSH1 0x20 PUSH1 0x40 MLOAD DUP1 DUP4 SUB DUP2 PUSH0 DUP8 GAS CALL ISZERO DUP1 ISZERO PUSH2 0xB9D JUMPI RETURNDATASIZE PUSH0 DUP1 RETURNDATACOPY RETURNDATASIZE PUSH0 REVERT JUMPDEST POP POP POP POP PUSH1 0x40 MLOAD RETURNDATASIZE PUSH1 0x1F NOT PUSH1 0x1F DUP3 ADD AND DUP3 ADD DUP1 PUSH1 0x40 MSTORE POP DUP2 ADD SWAP1 PUSH2 0xBC1 SWAP2 SWAP1 PUSH2 0x1032 JUMP JUMPDEST POP PUSH1 0x2 SLOAD PUSH1 0x40 MLOAD PUSH4 0x70A08231 PUSH1 0xE0 SHL DUP2 MSTORE ADDRESS PUSH1 0x4 DUP3 ADD MSTORE DUP4 SWAP2 PUSH1 0x1 PUSH1 0x1 PUSH1 0xA0 SHL SUB AND SWAP1 PUSH4 0x70A08231 SWAP1 PUSH1 0x24 ADD PUSH1 0x20 PUSH1 0x40 MLOAD DUP1 DUP4 SUB DUP2 DUP7 GAS STATICCALL ISZERO DUP1 ISZERO PUSH2 0xC08 JUMPI RETURNDATASIZE PUSH0 DUP1 RETURNDATACOPY RETURNDATASIZE PUSH0 REVERT JUMPDEST POP POP POP POP PUSH1 0x40 MLOAD RETURNDATASIZE PUSH1 0x1F NOT PUSH1 0x1F DUP3 ADD AND DUP3 ADD DUP1 PUSH1 0x40 MSTORE POP DUP2 ADD SWAP1 PUSH2 0xC2C SWAP2 SWAP1 PUSH2 0x101B JUMP JUMPDEST LT ISZERO PUSH2 0xC7A JUMPI PUSH1 0x40 MLOAD PUSH3 0x461BCD PUSH1 0xE5 SHL DUP2 MSTORE PUSH1 0x20 PUSH1 0x4 DUP3 ADD MSTORE PUSH1 0x1B PUSH1 0x24 DUP3 ADD MSTORE PUSH32 0x466C617368206C6F616E2072657061796D656E74206661696C65640000000000 PUSH1 0x44 DUP3 ADD MSTORE PUSH1 0x64 ADD PUSH2 0x393 JUMP JUMPDEST PUSH1 0x6 DUP1 SLOAD PUSH1 0xFF NOT AND PUSH1 0x1 OR SWAP1 SSTORE PUSH1 0x3 SLOAD PUSH1 0x40 MLOAD PUSH4 0xA956239B PUSH1 0xE0 SHL DUP2 MSTORE PUSH1 0x1 PUSH1 0x1 PUSH1 0xA0 SHL SUB SWAP1 SWAP2 AND SWAP1 PUSH4 0xA956239B SWAP1 PUSH2 0xCB9 SWAP1 ADDRESS SWAP1 PUSH1 0x4 SWAP1 DUP2 ADD PUSH2 0xFEE JUMP JUMPDEST PUSH0 PUSH1 0x40 MLOAD DUP1 DUP4 SUB DUP2 PUSH0 DUP8 DUP1 EXTCODESIZE ISZERO DUP1 ISZERO PUSH2 0xCD0 JUMPI PUSH0 DUP1 REVERT JUMPDEST POP GAS CALL ISZERO DUP1 ISZERO PUSH2 0xCE2 JUMPI RETURNDATASIZE PUSH0 DUP1 RETURNDATACOPY RETURNDATASIZE PUSH0 REVERT JUMPDEST POP POP PUSH1 0x3 SLOAD PUSH1 0x40 MLOAD PUSH4 0x7E72C7D7 PUSH1 0xE0 SHL DUP2 MSTORE ADDRESS PUSH1 0x4 DUP3 ADD MSTORE PUSH1 0x1 PUSH1 0x1 PUSH1 0xA0 SHL SUB SWAP1 SWAP2 AND SWAP3 POP PUSH4 0x7E72C7D7 SWAP2 POP PUSH1 0x24 ADD PUSH0 PUSH1 0x40 MLOAD DUP1 DUP4 SUB DUP2 PUSH0 DUP8 DUP1 EXTCODESIZE ISZERO DUP1 ISZERO PUSH2 0xD28 JUMPI PUSH0 DUP1 REVERT JUMPDEST POP GAS CALL ISZERO DUP1 ISZERO PUSH2 0xD3A JUMPI RETURNDATASIZE PUSH0 DUP1 RETURNDATACOPY RETURNDATASIZE PUSH0 REVERT JUMPDEST POP POP PUSH1 0x2 SLOAD PUSH1 0x4 DUP1 SLOAD PUSH1 0x40 MLOAD PUSH4 0xA9059CBB PUSH1 0xE0 SHL DUP2 MSTORE PUSH1 0x1 PUSH1 0x1 PUSH1 0xA0 SHL SUB SWAP2 DUP3 AND SWAP3 DUP2 ADD SWAP3 SWAP1 SWAP3 MSTORE PUSH1 0x24 DUP3 ADD DUP7 SWAP1 MSTORE SWAP1 SWAP2 AND SWAP3 POP PUSH4 0xA9059CBB SWAP2 POP PUSH1 0x44 ADD PUSH1 0x20 PUSH1 0x40 MLOAD DUP1 DUP4 SUB DUP2 PUSH0 DUP8 GAS CALL ISZERO DUP1 ISZERO PUSH2 0xD94 JUMPI RETURNDATASIZE PUSH0 DUP1 RETURNDATACOPY RETURNDATASIZE PUSH0 REVERT JUMPDEST POP POP POP POP PUSH1 0x40 MLOAD RETURNDATASIZE PUSH1 0x1F NOT PUSH1 0x1F DUP3 ADD AND DUP3 ADD DUP1 PUSH1 0x40 MSTORE POP DUP2 ADD SWAP1 PUSH2 0xDB8 SWAP2 SWAP1 PUSH2 0x1032 JUMP JUMPDEST POP DUP8 PUSH1 0x1 PUSH1 0x1 PUSH1 0xA0 SHL SUB AND DUP10 PUSH1 0x1 PUSH1 0x1 PUSH1 0xA0 SHL SUB AND PUSH32 0x9D0D497E678F62D6B162C97B9724A39F45FE674650DCD4A5E88FF6317E63764F DUP10 DUP7 PUSH1 0x40 MLOAD PUSH2 0xE07 SWAP3 SWAP2 SWAP1 SWAP2 DUP3 MSTORE PUSH1 0x20 DUP3 ADD MSTORE PUSH1 0x40 ADD SWAP1 JUMP JUMPDEST PUSH1 0x40 MLOAD DUP1 SWAP2 SUB SWAP1 LOG3 POP PUSH1 0x1 SWAP9 SWAP8 POP POP POP POP POP POP POP POP JUMP JUMPDEST PUSH2 0xE28 DUP3 DUP3 PUSH2 0x715 JUMP JUMPDEST PUSH2 0xE57 JUMPI PUSH1 0x40 MLOAD PUSH4 0xE2517D3F PUSH1 0xE0 SHL DUP2 MSTORE PUSH1 0x1 PUSH1 0x1 PUSH1 0xA0 SHL SUB DUP3 AND PUSH1 0x4 DUP3 ADD MSTORE PUSH1 0x24 DUP2 ADD DUP4 SWAP1 MSTORE PUSH1 0x44 ADD PUSH2 0x393 JUMP JUMPDEST POP POP JUMP JUMPDEST PUSH0 PUSH1 0x20 DUP3 DUP5 SUB SLT ISZERO PUSH2 0xE6B JUMPI PUSH0 DUP1 REVERT JUMPDEST DUP2 CALLDATALOAD PUSH1 0x1 PUSH1 0x1 PUSH1 0xE0 SHL SUB NOT DUP2 AND DUP2 EQ PUSH2 0xE82 JUMPI PUSH0 DUP1 REVERT JUMPDEST SWAP4 SWAP3 POP POP POP JUMP JUMPDEST PUSH0 PUSH1 0x20 DUP3 DUP5 SUB SLT ISZERO PUSH2 0xE99 JUMPI PUSH0 DUP1 REVERT JUMPDEST POP CALLDATALOAD SWAP2 SWAP1 POP JUMP JUMPDEST PUSH1 0x1 PUSH1 0x1 PUSH1 0xA0 SHL SUB DUP2 AND DUP2 EQ PUSH2 0x712 JUMPI PUSH0 DUP1 REVERT JUMPDEST PUSH0 DUP1 PUSH1 0x40 DUP4 DUP6 SUB SLT ISZERO PUSH2 0xEC5 JUMPI PUSH0 DUP1 REVERT JUMPDEST DUP3 CALLDATALOAD SWAP2 POP PUSH1 0x20 DUP4 ADD CALLDATALOAD PUSH2 0xED7 DUP2 PUSH2 0xEA0 JUMP JUMPDEST DUP1 SWAP2 POP POP SWAP3 POP SWAP3 SWAP1 POP JUMP JUMPDEST PUSH0 DUP1 PUSH0 DUP1 PUSH0 PUSH1 0x80 DUP7 DUP9 SUB SLT ISZERO PUSH2 0xEF6 JUMPI PUSH0 DUP1 REVERT JUMPDEST DUP6 CALLDATALOAD PUSH2 0xF01 DUP2 PUSH2 0xEA0 JUMP JUMPDEST SWAP5 POP PUSH1 0x20 DUP7 ADD CALLDATALOAD PUSH2 0xF11 DUP2 PUSH2 0xEA0 JUMP JUMPDEST SWAP4 POP PUSH1 0x40 DUP7 ADD CALLDATALOAD SWAP3 POP PUSH1 0x60 DUP7 ADD CALLDATALOAD PUSH8 0xFFFFFFFFFFFFFFFF DUP2 GT ISZERO PUSH2 0xF33 JUMPI PUSH0 DUP1 REVERT JUMPDEST DUP7 ADD PUSH1 0x1F DUP2 ADD DUP9 SGT PUSH2 0xF43 JUMPI PUSH0 DUP1 REVERT JUMPDEST DUP1 CALLDATALOAD PUSH8 0xFFFFFFFFFFFFFFFF DUP2 GT ISZERO PUSH2 0xF59 JUMPI PUSH0 DUP1 REVERT JUMPDEST DUP9 PUSH1 0x20 DUP3 DUP5 ADD ADD GT ISZERO PUSH2 0xF6A JUMPI PUSH0 DUP1 REVERT JUMPDEST SWAP6 SWAP9 SWAP5 SWAP8 POP SWAP3 SWAP6 POP POP POP PUSH1 0x20 ADD SWAP2 SWAP1 JUMP JUMPDEST PUSH0 PUSH1 0x20 DUP3 DUP5 SUB SLT ISZERO PUSH2 0xF8B JUMPI PUSH0 DUP1 REVERT JUMPDEST DUP2 CALLDATALOAD PUSH2 0xE82 DUP2 PUSH2 0xEA0 JUMP JUMPDEST PUSH4 0x4E487B71 PUSH1 0xE0 SHL PUSH0 MSTORE PUSH1 0x21 PUSH1 0x4 MSTORE PUSH1 0x24 PUSH0 REVERT JUMPDEST PUSH1 0x20 DUP2 ADD PUSH1 0x2 DUP4 LT PUSH2 0xFBE JUMPI PUSH2 0xFBE PUSH2 0xF96 JUMP JUMPDEST SWAP2 SWAP1 MSTORE SWAP1 JUMP JUMPDEST PUSH0 DUP1 PUSH1 0x40 DUP4 DUP6 SUB SLT ISZERO PUSH2 0xFD5 JUMPI PUSH0 DUP1 REVERT JUMPDEST DUP3 CALLDATALOAD PUSH2 0xFE0 DUP2 PUSH2 0xEA0 JUMP JUMPDEST SWAP5 PUSH1 0x20 SWAP4 SWAP1 SWAP4 ADD CALLDATALOAD SWAP4 POP POP POP JUMP JUMPDEST PUSH1 0x1 PUSH1 0x1 PUSH1 0xA0 SHL SUB DUP4 AND DUP2 MSTORE PUSH1 0x40 DUP2 ADD PUSH1 0x7 DUP4 LT PUSH2 0x100E JUMPI PUSH2 0x100E PUSH2 0xF96 JUMP JUMPDEST DUP3 PUSH1 0x20 DUP4 ADD MSTORE SWAP4 SWAP3 POP POP POP JUMP JUMPDEST PUSH0 PUSH1 0x20 DUP3 DUP5 SUB SLT ISZERO PUSH2 0x102B JUMPI PUSH0 DUP1 REVERT JUMPDEST POP MLOAD SWAP2 SWAP1 POP JUMP JUMPDEST PUSH0 PUSH1 0x20 DUP3 DUP5 SUB SLT ISZERO PUSH2 0x1042 JUMPI PUSH0 DUP1 REVERT JUMPDEST DUP2 MLOAD DUP1 ISZERO ISZERO DUP2 EQ PUSH2 0xE82 JUMPI PUSH0 DUP1 REVERT JUMPDEST PUSH4 0x4E487B71 PUSH1 0xE0 SHL PUSH0 MSTORE PUSH1 0x11 PUSH1 0x4 MSTORE PUSH1 0x24 PUSH0 REVERT JUMPDEST DUP1 DUP3 MUL DUP2 ISZERO DUP3 DUP3 DIV DUP5 EQ OR PUSH2 0x2CE JUMPI PUSH2 0x2CE PUSH2 0x1051 JUMP JUMPDEST PUSH0 DUP3 PUSH2 0x1096 JUMPI PUSH4 0x4E487B71 PUSH1 0xE0 SHL PUSH0 MSTORE PUSH1 0x12 PUSH1 0x4 MSTORE PUSH1 0x24 PUSH0 REVERT JUMPDEST POP DIV SWAP1 JUMP JUMPDEST PUSH1 0x1 PUSH1 0x1 PUSH1 0xA0 SHL SUB DUP8 DUP2 AND DUP3 MSTORE DUP7 AND PUSH1 0x20 DUP3 ADD MSTORE PUSH1 0x40 DUP2 ADD DUP6 SWAP1 MSTORE PUSH1 0x60 DUP2 ADD DUP5 SWAP1 MSTORE PUSH1 0xA0 PUSH1 0x80 DUP3 ADD DUP2 SWAP1 MSTORE DUP2 ADD DUP3 SWAP1 MSTORE DUP2 DUP4 PUSH1 0xC0 DUP4 ADD CALLDATACOPY PUSH0 DUP2 DUP4 ADD PUSH1 0xC0 SWAP1 DUP2 ADD SWAP2 SWAP1 SWAP2 MSTORE PUSH1 0x1F SWAP1 SWAP3 ADD PUSH1 0x1F NOT AND ADD ADD SWAP6 SWAP5 POP POP POP POP POP JUMP JUMPDEST DUP1 DUP3 ADD DUP1 DUP3 GT ISZERO PUSH2 0x2CE JUMPI PUSH2 0x2CE PUSH2 0x1051 JUMP INVALID LOG2 PUSH5 0x6970667358 0x22 SLT KECCAK256 0xDF CREATE 0xE9 SHL 0xC1 0xB1 0x23 PUSH3 0x91C2D2 PC LOG0 COINBASE DUP6 STOP ADDRESS PUSH15 0xF92304AE0854BE0097BBF26B862364 PUSH20 0x6F6C634300081A00330000000000000000000000 "
				},
				"gasEstimates": {
					"creation": {
						"codeDepositCost": "882400",
						"executionCost": "infinite",
						"totalCost": "infinite"
					},
					"external": {
						"DEFAULT_ADMIN_ROLE()": "271",
						"LENDER_ROLE()": "207",
						"asset()": "2381",
						"flashFee(address,uint256)": "4901",
						"flashLoan(address,address,uint256,bytes)": "infinite",
						"flashLoanFeeRate()": "2328",
						"fundLoan(uint256)": "infinite",
						"getRoleAdmin(bytes32)": "2504",
						"grantRole(bytes32,address)": "infinite",
						"hasRole(bytes32,address)": "2728",
						"lender()": "2358",
						"maxFlashLoan(address)": "infinite",
						"poolOrganizer()": "2402",
						"renounceRole(bytes32,address)": "29046",
						"revokeRole(bytes32,address)": "infinite",
						"state()": "2394",
						"supportsInterface(bytes4)": "480"
					},
					"internal": {
						"_executeFlashLoan(contract IERC3156FlashBorrower,address,uint256,bytes calldata)": "infinite"
					}
				},
				"methodIdentifiers": {
					"DEFAULT_ADMIN_ROLE()": "a217fddf",
					"LENDER_ROLE()": "00abafe1",
					"asset()": "38d52e0f",
					"flashFee(address,uint256)": "d9d98ce4",
					"flashLoan(address,address,uint256,bytes)": "5cffe9de",
					"flashLoanFeeRate()": "8c9f305f",
					"fundLoan(uint256)": "846b909a",
					"getRoleAdmin(bytes32)": "248a9ca3",
					"grantRole(bytes32,address)": "2f2ff15d",
					"hasRole(bytes32,address)": "91d14854",
					"lender()": "bcead63e",
					"maxFlashLoan(address)": "613255ab",
					"poolOrganizer()": "c51b9507",
					"renounceRole(bytes32,address)": "36568abe",
					"revokeRole(bytes32,address)": "d547741f",
					"state()": "c19d93fb",
					"supportsInterface(bytes4)": "01ffc9a7"
				}
			},
			"storageLayout": {
				"storage": [
					{
						"astId": 448,
						"contract": "contracts/contracts/protocol/TuliaFlashPool.sol:TuliaFlashPool",
						"label": "_status",
						"offset": 0,
						"slot": "0",
						"type": "t_uint256"
					},
					{
						"astId": 26,
						"contract": "contracts/contracts/protocol/TuliaFlashPool.sol:TuliaFlashPool",
						"label": "_roles",
						"offset": 0,
						"slot": "1",
						"type": "t_mapping(t_bytes32,t_struct(RoleData)21_storage)"
					},
					{
						"astId": 837,
						"contract": "contracts/contracts/protocol/TuliaFlashPool.sol:TuliaFlashPool",
						"label": "asset",
						"offset": 0,
						"slot": "2",
						"type": "t_contract(IERC20)580"
					},
					{
						"astId": 840,
						"contract": "contracts/contracts/protocol/TuliaFlashPool.sol:TuliaFlashPool",
						"label": "poolOrganizer",
						"offset": 0,
						"slot": "3",
						"type": "t_contract(IPoolOrganizer)818"
					},
					{
						"astId": 847,
						"contract": "contracts/contracts/protocol/TuliaFlashPool.sol:TuliaFlashPool",
						"label": "lender",
						"offset": 0,
						"slot": "4",
						"type": "t_address"
					},
					{
						"astId": 850,
						"contract": "contracts/contracts/protocol/TuliaFlashPool.sol:TuliaFlashPool",
						"label": "flashLoanFeeRate",
						"offset": 0,
						"slot": "5",
						"type": "t_uint256"
					},
					{
						"astId": 868,
						"contract": "contracts/contracts/protocol/TuliaFlashPool.sol:TuliaFlashPool",
						"label": "state",
						"offset": 0,
						"slot": "6",
						"type": "t_enum(FlashLoanState)865"
					}
				],
				"types": {
					"t_address": {
						"encoding": "inplace",
						"label": "address",
						"numberOfBytes": "20"
					},
					"t_bool": {
						"encoding": "inplace",
						"label": "bool",
						"numberOfBytes": "1"
					},
					"t_bytes32": {
						"encoding": "inplace",
						"label": "bytes32",
						"numberOfBytes": "32"
					},
					"t_contract(IERC20)580": {
						"encoding": "inplace",
						"label": "contract IERC20",
						"numberOfBytes": "20"
					},
					"t_contract(IPoolOrganizer)818": {
						"encoding": "inplace",
						"label": "contract IPoolOrganizer",
						"numberOfBytes": "20"
					},
					"t_enum(FlashLoanState)865": {
						"encoding": "inplace",
						"label": "enum TuliaFlashPool.FlashLoanState",
						"numberOfBytes": "1"
					},
					"t_mapping(t_address,t_bool)": {
						"encoding": "mapping",
						"key": "t_address",
						"label": "mapping(address => bool)",
						"numberOfBytes": "32",
						"value": "t_bool"
					},
					"t_mapping(t_bytes32,t_struct(RoleData)21_storage)": {
						"encoding": "mapping",
						"key": "t_bytes32",
						"label": "mapping(bytes32 => struct AccessControl.RoleData)",
						"numberOfBytes": "32",
						"value": "t_struct(RoleData)21_storage"
					},
					"t_struct(RoleData)21_storage": {
						"encoding": "inplace",
						"label": "struct AccessControl.RoleData",
						"members": [
							{
								"astId": 18,
								"contract": "contracts/contracts/protocol/TuliaFlashPool.sol:TuliaFlashPool",
								"label": "hasRole",
								"offset": 0,
								"slot": "0",
								"type": "t_mapping(t_address,t_bool)"
							},
							{
								"astId": 20,
								"contract": "contracts/contracts/protocol/TuliaFlashPool.sol:TuliaFlashPool",
								"label": "adminRole",
								"offset": 0,
								"slot": "1",
								"type": "t_bytes32"
							}
						],
						"numberOfBytes": "64"
					},
					"t_uint256": {
						"encoding": "inplace",
						"label": "uint256",
						"numberOfBytes": "32"
					}
				}
			},
			"userdoc": {
				"events": {
					"FlashLoanExecuted(address,address,uint256,uint256)": {
						"notice": "Event emitted when a flash loan is executed"
					},
					"LoanFunded(address,uint256)": {
						"notice": "Event emitted when a loan is funded"
					}
				},
				"kind": "user",
				"methods": {
					"asset()": {
						"notice": "RewardManager when lender waiting.ERC20 asset used for flash loans"
					},
					"constructor": {
						"notice": "Constructs the TuliaFlashPool lending pool"
					},
					"flashFee(address,uint256)": {
						"notice": "Calculates the flash loan fee for a given loan amount"
					},
					"flashLoan(address,address,uint256,bytes)": {
						"notice": "Initiates a flash loan transaction"
					},
					"flashLoanFeeRate()": {
						"notice": "Initial fee rate for flash loans issued by this pool"
					},
					"fundLoan(uint256)": {
						"notice": "Allows a lender to fund the pool and wait for a borrower"
					},
					"maxFlashLoan(address)": {
						"notice": "Returns the maximum loanable amount of the asset"
					}
				},
				"version": 1
			}
		}
	}
}