{
	"contracts/protocol/PoolOrganizer.sol": {
		"PoolOrganizer": {
			"abi": [
				{
					"inputs": [],
					"stateMutability": "nonpayable",
					"type": "constructor"
				},
				{
					"inputs": [],
					"name": "AccessControlBadConfirmation",
					"type": "error"
				},
				{
					"inputs": [
						{
							"internalType": "address",
							"name": "account",
							"type": "address"
						},
						{
							"internalType": "bytes32",
							"name": "neededRole",
							"type": "bytes32"
						}
					],
					"name": "AccessControlUnauthorizedAccount",
					"type": "error"
				},
				{
					"inputs": [],
					"name": "PoolNotRegistered",
					"type": "error"
				},
				{
					"anonymous": false,
					"inputs": [
						{
							"indexed": true,
							"internalType": "address",
							"name": "pool",
							"type": "address"
						}
					],
					"name": "PoolDeregistered",
					"type": "event"
				},
				{
					"anonymous": false,
					"inputs": [
						{
							"indexed": true,
							"internalType": "address",
							"name": "pool",
							"type": "address"
						},
						{
							"indexed": true,
							"internalType": "address",
							"name": "lender",
							"type": "address"
						},
						{
							"indexed": true,
							"internalType": "address",
							"name": "borrower",
							"type": "address"
						},
						{
							"indexed": false,
							"internalType": "address",
							"name": "vault",
							"type": "address"
						}
					],
					"name": "PoolRegistered",
					"type": "event"
				},
				{
					"anonymous": false,
					"inputs": [
						{
							"indexed": true,
							"internalType": "bytes32",
							"name": "role",
							"type": "bytes32"
						},
						{
							"indexed": true,
							"internalType": "bytes32",
							"name": "previousAdminRole",
							"type": "bytes32"
						},
						{
							"indexed": true,
							"internalType": "bytes32",
							"name": "newAdminRole",
							"type": "bytes32"
						}
					],
					"name": "RoleAdminChanged",
					"type": "event"
				},
				{
					"anonymous": false,
					"inputs": [
						{
							"indexed": true,
							"internalType": "bytes32",
							"name": "role",
							"type": "bytes32"
						},
						{
							"indexed": true,
							"internalType": "address",
							"name": "account",
							"type": "address"
						},
						{
							"indexed": true,
							"internalType": "address",
							"name": "sender",
							"type": "address"
						}
					],
					"name": "RoleGranted",
					"type": "event"
				},
				{
					"anonymous": false,
					"inputs": [
						{
							"indexed": true,
							"internalType": "bytes32",
							"name": "role",
							"type": "bytes32"
						},
						{
							"indexed": true,
							"internalType": "address",
							"name": "account",
							"type": "address"
						},
						{
							"indexed": true,
							"internalType": "address",
							"name": "sender",
							"type": "address"
						}
					],
					"name": "RoleRevoked",
					"type": "event"
				},
				{
					"inputs": [],
					"name": "DEFAULT_ADMIN_ROLE",
					"outputs": [
						{
							"internalType": "bytes32",
							"name": "",
							"type": "bytes32"
						}
					],
					"stateMutability": "view",
					"type": "function"
				},
				{
					"inputs": [],
					"name": "POOL_MANAGER_ROLE",
					"outputs": [
						{
							"internalType": "bytes32",
							"name": "",
							"type": "bytes32"
						}
					],
					"stateMutability": "view",
					"type": "function"
				},
				{
					"inputs": [
						{
							"internalType": "address",
							"name": "pool",
							"type": "address"
						}
					],
					"name": "deregisterPool",
					"outputs": [],
					"stateMutability": "nonpayable",
					"type": "function"
				},
				{
					"inputs": [
						{
							"internalType": "address",
							"name": "pool",
							"type": "address"
						}
					],
					"name": "getPoolDetails",
					"outputs": [
						{
							"components": [
								{
									"internalType": "address",
									"name": "lender",
									"type": "address"
								},
								{
									"internalType": "address",
									"name": "borrower",
									"type": "address"
								},
								{
									"internalType": "uint256",
									"name": "creationTime",
									"type": "uint256"
								},
								{
									"internalType": "address",
									"name": "vault",
									"type": "address"
								}
							],
							"internalType": "struct IPoolOrganizer.PoolDetails",
							"name": "",
							"type": "tuple"
						}
					],
					"stateMutability": "view",
					"type": "function"
				},
				{
					"inputs": [
						{
							"internalType": "address",
							"name": "lender",
							"type": "address"
						}
					],
					"name": "getPoolsByLender",
					"outputs": [
						{
							"internalType": "address[]",
							"name": "",
							"type": "address[]"
						}
					],
					"stateMutability": "view",
					"type": "function"
				},
				{
					"inputs": [
						{
							"internalType": "bytes32",
							"name": "role",
							"type": "bytes32"
						}
					],
					"name": "getRoleAdmin",
					"outputs": [
						{
							"internalType": "bytes32",
							"name": "",
							"type": "bytes32"
						}
					],
					"stateMutability": "view",
					"type": "function"
				},
				{
					"inputs": [],
					"name": "getTotalPools",
					"outputs": [
						{
							"internalType": "uint256",
							"name": "",
							"type": "uint256"
						}
					],
					"stateMutability": "view",
					"type": "function"
				},
				{
					"inputs": [
						{
							"internalType": "address",
							"name": "pool",
							"type": "address"
						}
					],
					"name": "getVaultForPool",
					"outputs": [
						{
							"internalType": "address",
							"name": "",
							"type": "address"
						}
					],
					"stateMutability": "view",
					"type": "function"
				},
				{
					"inputs": [
						{
							"internalType": "address",
							"name": "factoryAddress",
							"type": "address"
						}
					],
					"name": "grantFactoryAccess",
					"outputs": [],
					"stateMutability": "nonpayable",
					"type": "function"
				},
				{
					"inputs": [
						{
							"internalType": "bytes32",
							"name": "role",
							"type": "bytes32"
						},
						{
							"internalType": "address",
							"name": "account",
							"type": "address"
						}
					],
					"name": "grantRole",
					"outputs": [],
					"stateMutability": "nonpayable",
					"type": "function"
				},
				{
					"inputs": [
						{
							"internalType": "bytes32",
							"name": "role",
							"type": "bytes32"
						},
						{
							"internalType": "address",
							"name": "account",
							"type": "address"
						}
					],
					"name": "hasRole",
					"outputs": [
						{
							"internalType": "bool",
							"name": "",
							"type": "bool"
						}
					],
					"stateMutability": "view",
					"type": "function"
				},
				{
					"inputs": [
						{
							"internalType": "address",
							"name": "",
							"type": "address"
						}
					],
					"name": "poolVaults",
					"outputs": [
						{
							"internalType": "address",
							"name": "",
							"type": "address"
						}
					],
					"stateMutability": "view",
					"type": "function"
				},
				{
					"inputs": [
						{
							"internalType": "address",
							"name": "pool",
							"type": "address"
						},
						{
							"internalType": "address",
							"name": "lender",
							"type": "address"
						},
						{
							"internalType": "address",
							"name": "borrower",
							"type": "address"
						},
						{
							"internalType": "address",
							"name": "vault",
							"type": "address"
						}
					],
					"name": "registerPool",
					"outputs": [],
					"stateMutability": "nonpayable",
					"type": "function"
				},
				{
					"inputs": [
						{
							"internalType": "bytes32",
							"name": "role",
							"type": "bytes32"
						},
						{
							"internalType": "address",
							"name": "callerConfirmation",
							"type": "address"
						}
					],
					"name": "renounceRole",
					"outputs": [],
					"stateMutability": "nonpayable",
					"type": "function"
				},
				{
					"inputs": [
						{
							"internalType": "bytes32",
							"name": "role",
							"type": "bytes32"
						},
						{
							"internalType": "address",
							"name": "account",
							"type": "address"
						}
					],
					"name": "revokeRole",
					"outputs": [],
					"stateMutability": "nonpayable",
					"type": "function"
				},
				{
					"inputs": [
						{
							"internalType": "bytes4",
							"name": "interfaceId",
							"type": "bytes4"
						}
					],
					"name": "supportsInterface",
					"outputs": [
						{
							"internalType": "bool",
							"name": "",
							"type": "bool"
						}
					],
					"stateMutability": "view",
					"type": "function"
				}
			],
			"devdoc": {
				"errors": {
					"AccessControlBadConfirmation()": [
						{
							"details": "The caller of a function is not the expected one. NOTE: Don't confuse with {AccessControlUnauthorizedAccount}."
						}
					],
					"AccessControlUnauthorizedAccount(address,bytes32)": [
						{
							"details": "The `account` is missing a role."
						}
					]
				},
				"events": {
					"RoleAdminChanged(bytes32,bytes32,bytes32)": {
						"details": "Emitted when `newAdminRole` is set as ``role``'s admin role, replacing `previousAdminRole` `DEFAULT_ADMIN_ROLE` is the starting admin for all roles, despite {RoleAdminChanged} not being emitted signaling this."
					},
					"RoleGranted(bytes32,address,address)": {
						"details": "Emitted when `account` is granted `role`. `sender` is the account that originated the contract call, an admin role bearer except when using {AccessControl-_setupRole}."
					},
					"RoleRevoked(bytes32,address,address)": {
						"details": "Emitted when `account` is revoked `role`. `sender` is the account that originated the contract call:   - if using `revokeRole`, it is the admin role bearer   - if using `renounceRole`, it is the role bearer (i.e. `account`)"
					}
				},
				"kind": "dev",
				"methods": {
					"getRoleAdmin(bytes32)": {
						"details": "Returns the admin role that controls `role`. See {grantRole} and {revokeRole}. To change a role's admin, use {_setRoleAdmin}."
					},
					"grantRole(bytes32,address)": {
						"details": "Grants `role` to `account`. If `account` had not been already granted `role`, emits a {RoleGranted} event. Requirements: - the caller must have ``role``'s admin role. May emit a {RoleGranted} event."
					},
					"hasRole(bytes32,address)": {
						"details": "Returns `true` if `account` has been granted `role`."
					},
					"renounceRole(bytes32,address)": {
						"details": "Revokes `role` from the calling account. Roles are often managed via {grantRole} and {revokeRole}: this function's purpose is to provide a mechanism for accounts to lose their privileges if they are compromised (such as when a trusted device is misplaced). If the calling account had been revoked `role`, emits a {RoleRevoked} event. Requirements: - the caller must be `callerConfirmation`. May emit a {RoleRevoked} event."
					},
					"revokeRole(bytes32,address)": {
						"details": "Revokes `role` from `account`. If `account` had been granted `role`, emits a {RoleRevoked} event. Requirements: - the caller must have ``role``'s admin role. May emit a {RoleRevoked} event."
					},
					"supportsInterface(bytes4)": {
						"details": "See {IERC165-supportsInterface}."
					}
				},
				"version": 1
			},
			"evm": {
				"assembly": "    /* \"contracts/protocol/PoolOrganizer.sol\":276:3667  contract PoolOrganizer is AccessControl, IPoolOrganizer {... */\n  mstore(0x40, 0x80)\n    /* \"contracts/protocol/PoolOrganizer.sol\":789:916  constructor() {... */\n  callvalue\n  dup1\n  iszero\n  tag_1\n  jumpi\n  0x00\n  dup1\n  revert\ntag_1:\n  pop\n    /* \"contracts/protocol/PoolOrganizer.sol\":814:856  _grantRole(DEFAULT_ADMIN_ROLE, msg.sender) */\n  tag_4\n    /* \"@openzeppelin/contracts/access/AccessControl.sol\":2232:2236  0x00 */\n  0x00\n    /* \"contracts/protocol/PoolOrganizer.sol\":845:855  msg.sender */\n  caller\n    /* \"contracts/protocol/PoolOrganizer.sol\":814:824  _grantRole */\n  tag_5\n    /* \"contracts/protocol/PoolOrganizer.sol\":814:856  _grantRole(DEFAULT_ADMIN_ROLE, msg.sender) */\n  jump\t// in\ntag_4:\n  pop\n    /* \"contracts/protocol/PoolOrganizer.sol\":867:908  _grantRole(POOL_MANAGER_ROLE, msg.sender) */\n  tag_6\n    /* \"contracts/protocol/PoolOrganizer.sol\":383:413  keccak256(\"POOL_MANAGER_ROLE\") */\n  0x6077685936c8169d09204a1d97db12e41713588c38e1d29a61867d3dcee98aff\n    /* \"contracts/protocol/PoolOrganizer.sol\":897:907  msg.sender */\n  caller\n    /* \"contracts/protocol/PoolOrganizer.sol\":867:877  _grantRole */\n  tag_5\n    /* \"contracts/protocol/PoolOrganizer.sol\":867:908  _grantRole(POOL_MANAGER_ROLE, msg.sender) */\n  jump\t// in\ntag_6:\n  pop\n    /* \"contracts/protocol/PoolOrganizer.sol\":276:3667  contract PoolOrganizer is AccessControl, IPoolOrganizer {... */\n  jump(tag_7)\n    /* \"@openzeppelin/contracts/access/AccessControl.sol\":6179:6495  function _grantRole(bytes32 role, address account) internal virtual returns (bool) {... */\ntag_5:\n    /* \"@openzeppelin/contracts/access/AccessControl.sol\":6256:6260  bool */\n  0x00\n    /* \"@openzeppelin/contracts/access/AccessControl.sol\":2954:2966  _roles[role] */\n  dup3\n  dup2\n  mstore\n  0x20\n  dup2\n  dup2\n  mstore\n  0x40\n  dup1\n  dup4\n  keccak256\n  sub(shl(0xa0, 0x01), 0x01)\n    /* \"@openzeppelin/contracts/access/AccessControl.sol\":2954:2983  _roles[role].hasRole[account] */\n  dup6\n  and\n  dup5\n  mstore\n  swap1\n  swap2\n  mstore\n  dup2\n  keccak256\n  sload\n  0xff\n  and\n    /* \"@openzeppelin/contracts/access/AccessControl.sol\":6272:6489  if (!hasRole(role, account)) {... */\n  tag_11\n  jumpi\n    /* \"@openzeppelin/contracts/access/AccessControl.sol\":6315:6321  _roles */\n  0x00\n    /* \"@openzeppelin/contracts/access/AccessControl.sol\":6315:6327  _roles[role] */\n  dup4\n  dup2\n  mstore\n  0x20\n  dup2\n  dup2\n  mstore\n  0x40\n  dup1\n  dup4\n  keccak256\n  sub(shl(0xa0, 0x01), 0x01)\n    /* \"@openzeppelin/contracts/access/AccessControl.sol\":6315:6344  _roles[role].hasRole[account] */\n  dup7\n  and\n  dup5\n  mstore\n  swap1\n  swap2\n  mstore\n  swap1\n  keccak256\n    /* \"@openzeppelin/contracts/access/AccessControl.sol\":6315:6351  _roles[role].hasRole[account] = true */\n  dup1\n  sload\n  not(0xff)\n  and\n    /* \"@openzeppelin/contracts/access/AccessControl.sol\":6347:6351  true */\n  0x01\n    /* \"@openzeppelin/contracts/access/AccessControl.sol\":6315:6351  _roles[role].hasRole[account] = true */\n  or\n  swap1\n  sstore\n    /* \"@openzeppelin/contracts/access/AccessControl.sol\":6397:6409  _msgSender() */\n  tag_12\n    /* \"@openzeppelin/contracts/utils/Context.sol\":735:745  msg.sender */\n  caller\n  swap1\n    /* \"@openzeppelin/contracts/utils/Context.sol\":656:752  function _msgSender() internal view virtual returns (address) {... */\n  jump\n    /* \"@openzeppelin/contracts/access/AccessControl.sol\":6397:6409  _msgSender() */\ntag_12:\n  sub(shl(0xa0, 0x01), 0x01)\n    /* \"@openzeppelin/contracts/access/AccessControl.sol\":6370:6410  RoleGranted(role, account, _msgSender()) */\n  and\n    /* \"@openzeppelin/contracts/access/AccessControl.sol\":6388:6395  account */\n  dup3\n  sub(shl(0xa0, 0x01), 0x01)\n    /* \"@openzeppelin/contracts/access/AccessControl.sol\":6370:6410  RoleGranted(role, account, _msgSender()) */\n  and\n    /* \"@openzeppelin/contracts/access/AccessControl.sol\":6382:6386  role */\n  dup5\n    /* \"@openzeppelin/contracts/access/AccessControl.sol\":6370:6410  RoleGranted(role, account, _msgSender()) */\n  0x2f8788117e7eff1d82e926ec794901d17c78024a50270940304540a733656f0d\n  mload(0x40)\n  mload(0x40)\n  dup1\n  swap2\n  sub\n  swap1\n  log4\n  pop\n    /* \"@openzeppelin/contracts/access/AccessControl.sol\":6431:6435  true */\n  0x01\n    /* \"@openzeppelin/contracts/access/AccessControl.sol\":6424:6435  return true */\n  jump(tag_14)\n    /* \"@openzeppelin/contracts/access/AccessControl.sol\":6272:6489  if (!hasRole(role, account)) {... */\ntag_11:\n  pop\n    /* \"@openzeppelin/contracts/access/AccessControl.sol\":6473:6478  false */\n  0x00\n    /* \"@openzeppelin/contracts/access/AccessControl.sol\":6272:6489  if (!hasRole(role, account)) {... */\ntag_14:\n    /* \"@openzeppelin/contracts/access/AccessControl.sol\":6179:6495  function _grantRole(bytes32 role, address account) internal virtual returns (bool) {... */\n  swap3\n  swap2\n  pop\n  pop\n  jump\t// out\n    /* \"contracts/protocol/PoolOrganizer.sol\":276:3667  contract PoolOrganizer is AccessControl, IPoolOrganizer {... */\ntag_7:\n  dataSize(sub_0)\n  dup1\n  dataOffset(sub_0)\n  0x00\n  codecopy\n  0x00\n  return\nstop\n\nsub_0: assembly {\n        /* \"contracts/protocol/PoolOrganizer.sol\":276:3667  contract PoolOrganizer is AccessControl, IPoolOrganizer {... */\n      mstore(0x40, 0x80)\n      callvalue\n      dup1\n      iszero\n      tag_1\n      jumpi\n      0x00\n      dup1\n      revert\n    tag_1:\n      pop\n      jumpi(tag_2, lt(calldatasize, 0x04))\n      shr(0xe0, calldataload(0x00))\n      dup1\n      0x5d102df7\n      gt\n      tag_19\n      jumpi\n      dup1\n      0xa217fddf\n      gt\n      tag_20\n      jumpi\n      dup1\n      0xa217fddf\n      eq\n      tag_15\n      jumpi\n      dup1\n      0xd3e90fa0\n      eq\n      tag_16\n      jumpi\n      dup1\n      0xd3ffe67a\n      eq\n      tag_17\n      jumpi\n      dup1\n      0xd547741f\n      eq\n      tag_18\n      jumpi\n      0x00\n      dup1\n      revert\n    tag_20:\n      dup1\n      0x5d102df7\n      eq\n      tag_11\n      jumpi\n      dup1\n      0x7570e389\n      eq\n      tag_12\n      jumpi\n      dup1\n      0x7e72c7d7\n      eq\n      tag_13\n      jumpi\n      dup1\n      0x91d14854\n      eq\n      tag_14\n      jumpi\n      0x00\n      dup1\n      revert\n    tag_19:\n      dup1\n      0x24a44efb\n      gt\n      tag_21\n      jumpi\n      dup1\n      0x24a44efb\n      eq\n      tag_7\n      jumpi\n      dup1\n      0x2f2ff15d\n      eq\n      tag_8\n      jumpi\n      dup1\n      0x36568abe\n      eq\n      tag_9\n      jumpi\n      dup1\n      0x56d73568\n      eq\n      tag_10\n      jumpi\n      0x00\n      dup1\n      revert\n    tag_21:\n      dup1\n      0x01ffc9a7\n      eq\n      tag_3\n      jumpi\n      dup1\n      0x0cf9c72e\n      eq\n      tag_4\n      jumpi\n      dup1\n      0x1e4966ab\n      eq\n      tag_5\n      jumpi\n      dup1\n      0x248a9ca3\n      eq\n      tag_6\n      jumpi\n    tag_2:\n      0x00\n      dup1\n      revert\n        /* \"@openzeppelin/contracts/access/AccessControl.sol\":2565:2767  function supportsInterface(bytes4 interfaceId) public view virtual override returns (bool) {... */\n    tag_3:\n      tag_22\n      tag_23\n      calldatasize\n      0x04\n      tag_24\n      jump\t// in\n    tag_23:\n      tag_25\n      jump\t// in\n    tag_22:\n      mload(0x40)\n        /* \"#utility.yul\":470:484   */\n      swap1\n      iszero\n        /* \"#utility.yul\":463:485   */\n      iszero\n        /* \"#utility.yul\":445:486   */\n      dup2\n      mstore\n        /* \"#utility.yul\":433:435   */\n      0x20\n        /* \"#utility.yul\":418:436   */\n      add\n        /* \"@openzeppelin/contracts/access/AccessControl.sol\":2565:2767  function supportsInterface(bytes4 interfaceId) public view virtual override returns (bool) {... */\n    tag_26:\n      mload(0x40)\n      dup1\n      swap2\n      sub\n      swap1\n      return\n        /* \"contracts/protocol/PoolOrganizer.sol\":923:1561  function registerPool(address pool, address lender, address borrower, address vault) external onlyRole(POOL_MANAGER_ROLE) {... */\n    tag_4:\n      tag_28\n      tag_29\n      calldatasize\n      0x04\n      tag_30\n      jump\t// in\n    tag_29:\n      tag_31\n      jump\t// in\n    tag_28:\n      stop\n        /* \"contracts/protocol/PoolOrganizer.sol\":566:611  mapping(address => address) public poolVaults */\n    tag_5:\n      tag_32\n      tag_33\n      calldatasize\n      0x04\n      tag_34\n      jump\t// in\n    tag_33:\n      mstore(0x20, 0x04)\n      0x00\n      swap1\n      dup2\n      mstore\n      0x40\n      swap1\n      keccak256\n      sload\n      sub(shl(0xa0, 0x01), 0x01)\n      and\n      dup2\n      jump\n    tag_32:\n      mload(0x40)\n      sub(shl(0xa0, 0x01), 0x01)\n        /* \"#utility.yul\":1444:1476   */\n      swap1\n      swap2\n      and\n        /* \"#utility.yul\":1426:1477   */\n      dup2\n      mstore\n        /* \"#utility.yul\":1414:1416   */\n      0x20\n        /* \"#utility.yul\":1399:1417   */\n      add\n        /* \"contracts/protocol/PoolOrganizer.sol\":566:611  mapping(address => address) public poolVaults */\n      tag_26\n        /* \"#utility.yul\":1280:1483   */\n      jump\n        /* \"@openzeppelin/contracts/access/AccessControl.sol\":3810:3930  function getRoleAdmin(bytes32 role) public view virtual returns (bytes32) {... */\n    tag_6:\n      tag_38\n      tag_39\n      calldatasize\n      0x04\n      tag_40\n      jump\t// in\n    tag_39:\n        /* \"@openzeppelin/contracts/access/AccessControl.sol\":3875:3882  bytes32 */\n      0x00\n        /* \"@openzeppelin/contracts/access/AccessControl.sol\":3901:3913  _roles[role] */\n      swap1\n      dup2\n      mstore\n      0x20\n      dup2\n      swap1\n      mstore\n      0x40\n      swap1\n      keccak256\n        /* \"@openzeppelin/contracts/access/AccessControl.sol\":3901:3923  _roles[role].adminRole */\n      0x01\n      add\n      sload\n      swap1\n        /* \"@openzeppelin/contracts/access/AccessControl.sol\":3810:3930  function getRoleAdmin(bytes32 role) public view virtual returns (bytes32) {... */\n      jump\n    tag_38:\n      mload(0x40)\n        /* \"#utility.yul\":1819:1844   */\n      swap1\n      dup2\n      mstore\n        /* \"#utility.yul\":1807:1809   */\n      0x20\n        /* \"#utility.yul\":1792:1810   */\n      add\n        /* \"@openzeppelin/contracts/access/AccessControl.sol\":3810:3930  function getRoleAdmin(bytes32 role) public view virtual returns (bytes32) {... */\n      tag_26\n        /* \"#utility.yul\":1673:1850   */\n      jump\n        /* \"contracts/protocol/PoolOrganizer.sol\":2035:2163  function getPoolsByLender(address lender) external view returns (address[] memory) {... */\n    tag_7:\n      tag_44\n      tag_45\n      calldatasize\n      0x04\n      tag_34\n      jump\t// in\n    tag_45:\n      tag_46\n      jump\t// in\n    tag_44:\n      mload(0x40)\n      tag_26\n      swap2\n      swap1\n      tag_48\n      jump\t// in\n        /* \"@openzeppelin/contracts/access/AccessControl.sol\":4226:4362  function grantRole(bytes32 role, address account) public virtual onlyRole(getRoleAdmin(role)) {... */\n    tag_8:\n      tag_28\n      tag_50\n      calldatasize\n      0x04\n      tag_51\n      jump\t// in\n    tag_50:\n      tag_52\n      jump\t// in\n        /* \"@openzeppelin/contracts/access/AccessControl.sol\":5328:5573  function renounceRole(bytes32 role, address callerConfirmation) public virtual {... */\n    tag_9:\n      tag_28\n      tag_54\n      calldatasize\n      0x04\n      tag_51\n      jump\t// in\n    tag_54:\n      tag_55\n      jump\t// in\n        /* \"contracts/protocol/PoolOrganizer.sol\":339:413  bytes32 public constant POOL_MANAGER_ROLE = keccak256(\"POOL_MANAGER_ROLE\") */\n    tag_10:\n      tag_38\n      0x00\n      dup1\n      mload\n      0x20\n      data_cea5b988323acc73cd81db0e6f2932cdc75f39072539d65cbfa79c56b2a64e51\n      dup4\n      codecopy\n      dup2\n      mload\n      swap2\n      mstore\n      dup2\n      jump\n        /* \"contracts/protocol/PoolOrganizer.sol\":2594:2803  function grantFactoryAccess(address factoryAddress) external {... */\n    tag_11:\n      tag_28\n      tag_60\n      calldatasize\n      0x04\n      tag_34\n      jump\t// in\n    tag_60:\n      tag_61\n      jump\t// in\n        /* \"contracts/protocol/PoolOrganizer.sol\":2384:2586  function getVaultForPool(address pool) external view returns (address) {... */\n    tag_12:\n      tag_32\n      tag_63\n      calldatasize\n      0x04\n      tag_34\n      jump\t// in\n    tag_63:\n      tag_64\n      jump\t// in\n        /* \"contracts/protocol/PoolOrganizer.sol\":1571:1922  function deregisterPool(address pool) external onlyRole(POOL_MANAGER_ROLE) {... */\n    tag_13:\n      tag_28\n      tag_67\n      calldatasize\n      0x04\n      tag_34\n      jump\t// in\n    tag_67:\n      tag_68\n      jump\t// in\n        /* \"@openzeppelin/contracts/access/AccessControl.sol\":2854:2990  function hasRole(bytes32 role, address account) public view virtual returns (bool) {... */\n    tag_14:\n      tag_22\n      tag_70\n      calldatasize\n      0x04\n      tag_51\n      jump\t// in\n    tag_70:\n      tag_71\n      jump\t// in\n        /* \"@openzeppelin/contracts/access/AccessControl.sol\":2187:2236  bytes32 public constant DEFAULT_ADMIN_ROLE = 0x00 */\n    tag_15:\n      tag_38\n        /* \"@openzeppelin/contracts/access/AccessControl.sol\":2232:2236  0x00 */\n      0x00\n        /* \"@openzeppelin/contracts/access/AccessControl.sol\":2187:2236  bytes32 public constant DEFAULT_ADMIN_ROLE = 0x00 */\n      dup2\n      jump\n        /* \"contracts/protocol/PoolOrganizer.sol\":2171:2376  function getPoolDetails(address pool) external view returns (PoolDetails memory) {... */\n    tag_16:\n      tag_76\n      tag_77\n      calldatasize\n      0x04\n      tag_34\n      jump\t// in\n    tag_77:\n      tag_78\n      jump\t// in\n    tag_76:\n      mload(0x40)\n      tag_26\n      swap2\n      swap1\n        /* \"#utility.yul\":3040:3053   */\n      dup2\n      mload\n      sub(shl(0xa0, 0x01), 0x01)\n        /* \"#utility.yul\":3036:3058   */\n      swap1\n      dup2\n      and\n        /* \"#utility.yul\":3018:3059   */\n      dup3\n      mstore\n        /* \"#utility.yul\":3119:3123   */\n      0x20\n        /* \"#utility.yul\":3107:3124   */\n      dup1\n      dup5\n      add\n        /* \"#utility.yul\":3101:3125   */\n      mload\n        /* \"#utility.yul\":3097:3130   */\n      dup3\n      and\n        /* \"#utility.yul\":3075:3095   */\n      swap1\n      dup4\n      add\n        /* \"#utility.yul\":3068:3131   */\n      mstore\n        /* \"#utility.yul\":3187:3191   */\n      0x40\n        /* \"#utility.yul\":3175:3192   */\n      dup1\n      dup5\n      add\n        /* \"#utility.yul\":3169:3193   */\n      mload\n        /* \"#utility.yul\":3147:3167   */\n      swap1\n      dup4\n      add\n        /* \"#utility.yul\":3140:3194   */\n      mstore\n        /* \"#utility.yul\":3254:3258   */\n      0x60\n        /* \"#utility.yul\":3242:3259   */\n      swap3\n      dup4\n      add\n        /* \"#utility.yul\":3236:3260   */\n      mload\n        /* \"#utility.yul\":3232:3265   */\n      and\n        /* \"#utility.yul\":3210:3230   */\n      swap2\n      dup2\n      add\n        /* \"#utility.yul\":3203:3266   */\n      swap2\n      swap1\n      swap2\n      mstore\n        /* \"#utility.yul\":2967:2970   */\n      0x80\n        /* \"#utility.yul\":2952:2971   */\n      add\n      swap1\n        /* \"#utility.yul\":2777:3272   */\n      jump\n        /* \"contracts/protocol/PoolOrganizer.sol\":1932:2027  function getTotalPools() external view returns (uint256) {... */\n    tag_17:\n        /* \"contracts/protocol/PoolOrganizer.sol\":2007:2012  pools */\n      0x01\n        /* \"contracts/protocol/PoolOrganizer.sol\":2007:2019  pools.length */\n      sload\n        /* \"contracts/protocol/PoolOrganizer.sol\":1932:2027  function getTotalPools() external view returns (uint256) {... */\n      jump(tag_38)\n        /* \"@openzeppelin/contracts/access/AccessControl.sol\":4642:4780  function revokeRole(bytes32 role, address account) public virtual onlyRole(getRoleAdmin(role)) {... */\n    tag_18:\n      tag_28\n      tag_86\n      calldatasize\n      0x04\n      tag_51\n      jump\t// in\n    tag_86:\n      tag_87\n      jump\t// in\n        /* \"@openzeppelin/contracts/access/AccessControl.sol\":2565:2767  function supportsInterface(bytes4 interfaceId) public view virtual override returns (bool) {... */\n    tag_25:\n        /* \"@openzeppelin/contracts/access/AccessControl.sol\":2650:2654  bool */\n      0x00\n      not(sub(shl(0xe0, 0x01), 0x01))\n        /* \"@openzeppelin/contracts/access/AccessControl.sol\":2673:2720  interfaceId == type(IAccessControl).interfaceId */\n      dup3\n      and\n      shl(0xe0, 0x7965db0b)\n      eq\n      dup1\n        /* \"@openzeppelin/contracts/access/AccessControl.sol\":2673:2760  interfaceId == type(IAccessControl).interfaceId || super.supportsInterface(interfaceId) */\n      tag_90\n      jumpi\n      pop\n      shl(0xe0, 0x01ffc9a7)\n      not(sub(shl(0xe0, 0x01), 0x01))\n        /* \"@openzeppelin/contracts/utils/introspection/ERC165.sol\":861:901  interfaceId == type(IERC165).interfaceId */\n      dup4\n      and\n      eq\n        /* \"@openzeppelin/contracts/access/AccessControl.sol\":2724:2760  super.supportsInterface(interfaceId) */\n    tag_90:\n        /* \"@openzeppelin/contracts/access/AccessControl.sol\":2666:2760  return interfaceId == type(IAccessControl).interfaceId || super.supportsInterface(interfaceId) */\n      swap3\n        /* \"@openzeppelin/contracts/access/AccessControl.sol\":2565:2767  function supportsInterface(bytes4 interfaceId) public view virtual override returns (bool) {... */\n      swap2\n      pop\n      pop\n      jump\t// out\n        /* \"contracts/protocol/PoolOrganizer.sol\":923:1561  function registerPool(address pool, address lender, address borrower, address vault) external onlyRole(POOL_MANAGER_ROLE) {... */\n    tag_31:\n      0x00\n      dup1\n      mload\n      0x20\n      data_cea5b988323acc73cd81db0e6f2932cdc75f39072539d65cbfa79c56b2a64e51\n      dup4\n      codecopy\n      dup2\n      mload\n      swap2\n      mstore\n        /* \"@openzeppelin/contracts/access/AccessControl.sol\":2464:2480  _checkRole(role) */\n      tag_93\n        /* \"@openzeppelin/contracts/access/AccessControl.sol\":2475:2479  role */\n      dup2\n        /* \"@openzeppelin/contracts/access/AccessControl.sol\":2464:2474  _checkRole */\n      tag_94\n        /* \"@openzeppelin/contracts/access/AccessControl.sol\":2464:2480  _checkRole(role) */\n      jump\t// in\n    tag_93:\n      sub(shl(0xa0, 0x01), 0x01)\n        /* \"contracts/protocol/PoolOrganizer.sol\":1060:1078  pool != address(0) */\n      dup6\n      and\n      iszero\n      dup1\n      iszero\n      swap1\n        /* \"contracts/protocol/PoolOrganizer.sol\":1060:1102  pool != address(0) && lender != address(0) */\n      tag_96\n      jumpi\n      pop\n      sub(shl(0xa0, 0x01), 0x01)\n        /* \"contracts/protocol/PoolOrganizer.sol\":1082:1102  lender != address(0) */\n      dup5\n      and\n      iszero\n      iszero\n        /* \"contracts/protocol/PoolOrganizer.sol\":1060:1102  pool != address(0) && lender != address(0) */\n    tag_96:\n        /* \"contracts/protocol/PoolOrganizer.sol\":1060:1125  pool != address(0) && lender != address(0) && vault != address(0) */\n      dup1\n      iszero\n      tag_97\n      jumpi\n      pop\n      sub(shl(0xa0, 0x01), 0x01)\n        /* \"contracts/protocol/PoolOrganizer.sol\":1106:1125  vault != address(0) */\n      dup3\n      and\n      iszero\n      iszero\n        /* \"contracts/protocol/PoolOrganizer.sol\":1060:1125  pool != address(0) && lender != address(0) && vault != address(0) */\n    tag_97:\n        /* \"contracts/protocol/PoolOrganizer.sol\":1052:1143  require(pool != address(0) && lender != address(0) && vault != address(0), \"Invalid input\") */\n      tag_98\n      jumpi\n      mload(0x40)\n      shl(0xe5, 0x461bcd)\n      dup2\n      mstore\n        /* \"#utility.yul\":3661:3663   */\n      0x20\n        /* \"contracts/protocol/PoolOrganizer.sol\":1052:1143  require(pool != address(0) && lender != address(0) && vault != address(0), \"Invalid input\") */\n      0x04\n      dup3\n      add\n        /* \"#utility.yul\":3643:3664   */\n      mstore\n        /* \"#utility.yul\":3700:3702   */\n      0x0d\n        /* \"#utility.yul\":3680:3698   */\n      0x24\n      dup3\n      add\n        /* \"#utility.yul\":3673:3703   */\n      mstore\n      shl(0x9a, 0x125b9d985b1a59081a5b9c1d5d)\n        /* \"#utility.yul\":3719:3737   */\n      0x44\n      dup3\n      add\n        /* \"#utility.yul\":3712:3755   */\n      mstore\n        /* \"#utility.yul\":3772:3790   */\n      0x64\n      add\n        /* \"contracts/protocol/PoolOrganizer.sol\":1052:1143  require(pool != address(0) && lender != address(0) && vault != address(0), \"Invalid input\") */\n    tag_99:\n      mload(0x40)\n      dup1\n      swap2\n      sub\n      swap1\n      revert\n    tag_98:\n      sub(shl(0xa0, 0x01), 0x01)\n        /* \"contracts/protocol/PoolOrganizer.sol\":1158:1175  poolDetails[pool] */\n      dup6\n      dup2\n      and\n        /* \"contracts/protocol/PoolOrganizer.sol\":1194:1195  0 */\n      0x00\n        /* \"contracts/protocol/PoolOrganizer.sol\":1158:1175  poolDetails[pool] */\n      swap1\n      dup2\n      mstore\n        /* \"contracts/protocol/PoolOrganizer.sol\":1158:1169  poolDetails */\n      0x02\n        /* \"contracts/protocol/PoolOrganizer.sol\":1158:1175  poolDetails[pool] */\n      0x20\n      mstore\n      0x40\n      swap1\n      keccak256\n        /* \"contracts/protocol/PoolOrganizer.sol\":1158:1182  poolDetails[pool].lender */\n      sload\n      and\n        /* \"contracts/protocol/PoolOrganizer.sol\":1158:1196  poolDetails[pool].lender == address(0) */\n      iszero\n        /* \"contracts/protocol/PoolOrganizer.sol\":1150:1224  require(poolDetails[pool].lender == address(0), \"Pool already registered\") */\n      tag_101\n      jumpi\n      mload(0x40)\n      shl(0xe5, 0x461bcd)\n      dup2\n      mstore\n        /* \"#utility.yul\":4003:4005   */\n      0x20\n        /* \"contracts/protocol/PoolOrganizer.sol\":1150:1224  require(poolDetails[pool].lender == address(0), \"Pool already registered\") */\n      0x04\n      dup3\n      add\n        /* \"#utility.yul\":3985:4006   */\n      mstore\n        /* \"#utility.yul\":4042:4044   */\n      0x17\n        /* \"#utility.yul\":4022:4040   */\n      0x24\n      dup3\n      add\n        /* \"#utility.yul\":4015:4045   */\n      mstore\n        /* \"#utility.yul\":4081:4106   */\n      0x506f6f6c20616c72656164792072656769737465726564000000000000000000\n        /* \"#utility.yul\":4061:4079   */\n      0x44\n      dup3\n      add\n        /* \"#utility.yul\":4054:4107   */\n      mstore\n        /* \"#utility.yul\":4124:4142   */\n      0x64\n      add\n        /* \"contracts/protocol/PoolOrganizer.sol\":1150:1224  require(poolDetails[pool].lender == address(0), \"Pool already registered\") */\n      tag_99\n        /* \"#utility.yul\":3801:4148   */\n      jump\n        /* \"contracts/protocol/PoolOrganizer.sol\":1150:1224  require(poolDetails[pool].lender == address(0), \"Pool already registered\") */\n    tag_101:\n        /* \"contracts/protocol/PoolOrganizer.sol\":1324:1377  PoolDetails(lender, borrower, block.timestamp, vault) */\n      0x40\n      dup1\n      mload\n      0x80\n      dup2\n      add\n      dup3\n      mstore\n      sub(shl(0xa0, 0x01), 0x01)\n      dup7\n      dup2\n      and\n      dup1\n      dup4\n      mstore\n      dup7\n      dup3\n      and\n      0x20\n      dup1\n      dup6\n      add\n      dup3\n      dup2\n      mstore\n        /* \"contracts/protocol/PoolOrganizer.sol\":1354:1369  block.timestamp */\n      timestamp\n        /* \"contracts/protocol/PoolOrganizer.sol\":1324:1377  PoolDetails(lender, borrower, block.timestamp, vault) */\n      dup7\n      dup9\n      add\n      swap1\n      dup2\n      mstore\n      dup10\n      dup7\n      and\n      0x60\n      dup9\n      add\n      dup2\n      dup2\n      mstore\n        /* \"contracts/protocol/PoolOrganizer.sol\":1304:1321  poolDetails[pool] */\n      dup15\n      dup9\n      and\n      0x00\n      dup2\n      dup2\n      mstore\n        /* \"contracts/protocol/PoolOrganizer.sol\":1304:1315  poolDetails */\n      0x02\n        /* \"contracts/protocol/PoolOrganizer.sol\":1304:1321  poolDetails[pool] */\n      dup1\n      dup9\n      mstore\n      dup13\n      dup3\n      keccak256\n        /* \"contracts/protocol/PoolOrganizer.sol\":1304:1377  poolDetails[pool] = PoolDetails(lender, borrower, block.timestamp, vault) */\n      swap12\n      mload\n      dup13\n      sload\n      swap1\n      dup13\n      and\n      not(sub(shl(0xa0, 0x01), 0x01))\n      swap2\n      dup3\n      and\n      or\n      dup14\n      sstore\n      swap7\n      mload\n      0x01\n      dup1\n      dup15\n      add\n      dup1\n      sload\n      swap3\n      dup15\n      and\n      swap3\n      dup11\n      and\n      swap3\n      swap1\n      swap3\n      or\n      swap1\n      swap2\n      sstore\n      swap6\n      mload\n      swap1\n      dup13\n      add\n      sstore\n      swap2\n      mload\n      0x03\n      swap11\n      dup12\n      add\n      dup1\n      sload\n      swap2\n      swap1\n      swap11\n      and\n      swap1\n      dup7\n      and\n      or\n      swap1\n      swap9\n      sstore\n        /* \"contracts/protocol/PoolOrganizer.sol\":1384:1403  lenderPools[lender] */\n      dup7\n      dup2\n      mstore\n      swap8\n      dup5\n      mstore\n      dup9\n      dup9\n      keccak256\n        /* \"contracts/protocol/PoolOrganizer.sol\":1384:1414  lenderPools[lender].push(pool) */\n      dup1\n      sload\n      dup1\n      dup5\n      add\n      dup3\n      sstore\n      swap1\n      dup10\n      mstore\n      dup5\n      dup10\n      keccak256\n      add\n      dup1\n      sload\n      dup5\n      and\n      dup9\n      or\n      swap1\n      sstore\n        /* \"contracts/protocol/PoolOrganizer.sol\":1421:1437  pools.push(pool) */\n      dup2\n      sload\n      dup1\n      dup4\n      add\n      swap1\n      swap3\n      sstore\n      0xb10e2d527612073b26eecdfd717e6a320cf44b4afac2b0732d9fcbe2b7fa0cf6\n      swap1\n      swap2\n      add\n      dup1\n      sload\n      dup4\n      and\n      dup8\n      or\n      swap1\n      sstore\n        /* \"contracts/protocol/PoolOrganizer.sol\":1444:1460  poolVaults[pool] */\n      dup6\n      dup8\n      mstore\n        /* \"contracts/protocol/PoolOrganizer.sol\":1444:1454  poolVaults */\n      0x04\n        /* \"contracts/protocol/PoolOrganizer.sol\":1444:1460  poolVaults[pool] */\n      dup4\n      mstore\n      swap6\n      dup8\n      swap1\n      keccak256\n        /* \"contracts/protocol/PoolOrganizer.sol\":1444:1468  poolVaults[pool] = vault */\n      dup1\n      sload\n      swap1\n      swap2\n      and\n      dup7\n      or\n      swap1\n      sstore\n        /* \"contracts/protocol/PoolOrganizer.sol\":1512:1557  PoolRegistered(pool, lender, borrower, vault) */\n      swap5\n      mload\n        /* \"#utility.yul\":1426:1477   */\n      swap4\n      dup5\n      mstore\n        /* \"contracts/protocol/PoolOrganizer.sol\":1324:1377  PoolDetails(lender, borrower, block.timestamp, vault) */\n      swap4\n      swap1\n      swap3\n        /* \"contracts/protocol/PoolOrganizer.sol\":1512:1557  PoolRegistered(pool, lender, borrower, vault) */\n      0x928b994ad535a478f217ab28f23fbbf04f79d765f407b8df7cc2df7174aef90b\n      swap2\n        /* \"#utility.yul\":1399:1417   */\n      add\n        /* \"contracts/protocol/PoolOrganizer.sol\":1512:1557  PoolRegistered(pool, lender, borrower, vault) */\n      mload(0x40)\n      dup1\n      swap2\n      sub\n      swap1\n      log4\n        /* \"contracts/protocol/PoolOrganizer.sol\":923:1561  function registerPool(address pool, address lender, address borrower, address vault) external onlyRole(POOL_MANAGER_ROLE) {... */\n      pop\n      pop\n      pop\n      pop\n      pop\n      jump\t// out\n        /* \"contracts/protocol/PoolOrganizer.sol\":2035:2163  function getPoolsByLender(address lender) external view returns (address[] memory) {... */\n    tag_46:\n      sub(shl(0xa0, 0x01), 0x01)\n        /* \"contracts/protocol/PoolOrganizer.sol\":2136:2155  lenderPools[lender] */\n      dup2\n      and\n      0x00\n      swap1\n      dup2\n      mstore\n        /* \"contracts/protocol/PoolOrganizer.sol\":2136:2147  lenderPools */\n      0x03\n        /* \"contracts/protocol/PoolOrganizer.sol\":2136:2155  lenderPools[lender] */\n      0x20\n      swap1\n      dup2\n      mstore\n      0x40\n      swap2\n      dup3\n      swap1\n      keccak256\n        /* \"contracts/protocol/PoolOrganizer.sol\":2129:2155  return lenderPools[lender] */\n      dup1\n      sload\n      dup4\n      mload\n      dup2\n      dup5\n      mul\n      dup2\n      add\n      dup5\n      add\n      swap1\n      swap5\n      mstore\n      dup1\n      dup5\n      mstore\n        /* \"contracts/protocol/PoolOrganizer.sol\":2100:2116  address[] memory */\n      0x60\n      swap4\n        /* \"contracts/protocol/PoolOrganizer.sol\":2129:2155  return lenderPools[lender] */\n      swap3\n      dup4\n      add\n        /* \"contracts/protocol/PoolOrganizer.sol\":2136:2155  lenderPools[lender] */\n      dup3\n        /* \"contracts/protocol/PoolOrganizer.sol\":2129:2155  return lenderPools[lender] */\n      dup3\n      dup1\n      iszero\n      tag_109\n      jumpi\n      0x20\n      mul\n      dup3\n      add\n      swap2\n      swap1\n      0x00\n      mstore\n      keccak256(0x00, 0x20)\n      swap1\n    tag_110:\n      dup2\n      sload\n      sub(shl(0xa0, 0x01), 0x01)\n      and\n      dup2\n      mstore\n      0x01\n      swap1\n      swap2\n      add\n      swap1\n      0x20\n      add\n      dup1\n      dup4\n      gt\n      tag_110\n      jumpi\n    tag_109:\n      pop\n      pop\n      pop\n      pop\n      pop\n      swap1\n      pop\n        /* \"contracts/protocol/PoolOrganizer.sol\":2035:2163  function getPoolsByLender(address lender) external view returns (address[] memory) {... */\n      swap2\n      swap1\n      pop\n      jump\t// out\n        /* \"@openzeppelin/contracts/access/AccessControl.sol\":4226:4362  function grantRole(bytes32 role, address account) public virtual onlyRole(getRoleAdmin(role)) {... */\n    tag_52:\n        /* \"@openzeppelin/contracts/access/AccessControl.sol\":3875:3882  bytes32 */\n      0x00\n        /* \"@openzeppelin/contracts/access/AccessControl.sol\":3901:3913  _roles[role] */\n      dup3\n      dup2\n      mstore\n      0x20\n      dup2\n      swap1\n      mstore\n      0x40\n      swap1\n      keccak256\n        /* \"@openzeppelin/contracts/access/AccessControl.sol\":3901:3923  _roles[role].adminRole */\n      0x01\n      add\n      sload\n        /* \"@openzeppelin/contracts/access/AccessControl.sol\":2464:2480  _checkRole(role) */\n      tag_113\n        /* \"@openzeppelin/contracts/access/AccessControl.sol\":2475:2479  role */\n      dup2\n        /* \"@openzeppelin/contracts/access/AccessControl.sol\":2464:2474  _checkRole */\n      tag_94\n        /* \"@openzeppelin/contracts/access/AccessControl.sol\":2464:2480  _checkRole(role) */\n      jump\t// in\n    tag_113:\n        /* \"@openzeppelin/contracts/access/AccessControl.sol\":4330:4355  _grantRole(role, account) */\n      tag_115\n        /* \"@openzeppelin/contracts/access/AccessControl.sol\":4341:4345  role */\n      dup4\n        /* \"@openzeppelin/contracts/access/AccessControl.sol\":4347:4354  account */\n      dup4\n        /* \"@openzeppelin/contracts/access/AccessControl.sol\":4330:4340  _grantRole */\n      tag_116\n        /* \"@openzeppelin/contracts/access/AccessControl.sol\":4330:4355  _grantRole(role, account) */\n      jump\t// in\n    tag_115:\n      pop\n        /* \"@openzeppelin/contracts/access/AccessControl.sol\":4226:4362  function grantRole(bytes32 role, address account) public virtual onlyRole(getRoleAdmin(role)) {... */\n      pop\n      pop\n      pop\n      jump\t// out\n        /* \"@openzeppelin/contracts/access/AccessControl.sol\":5328:5573  function renounceRole(bytes32 role, address callerConfirmation) public virtual {... */\n    tag_55:\n      sub(shl(0xa0, 0x01), 0x01)\n        /* \"@openzeppelin/contracts/access/AccessControl.sol\":5421:5455  callerConfirmation != _msgSender() */\n      dup2\n      and\n        /* \"@openzeppelin/contracts/utils/Context.sol\":735:745  msg.sender */\n      caller\n        /* \"@openzeppelin/contracts/access/AccessControl.sol\":5421:5455  callerConfirmation != _msgSender() */\n      eq\n        /* \"@openzeppelin/contracts/access/AccessControl.sol\":5417:5519  if (callerConfirmation != _msgSender()) {... */\n      tag_120\n      jumpi\n        /* \"@openzeppelin/contracts/access/AccessControl.sol\":5478:5508  AccessControlBadConfirmation() */\n      mload(0x40)\n      shl(0xe1, 0x334bd919)\n      dup2\n      mstore\n      0x04\n      add\n      mload(0x40)\n      dup1\n      swap2\n      sub\n      swap1\n      revert\n        /* \"@openzeppelin/contracts/access/AccessControl.sol\":5417:5519  if (callerConfirmation != _msgSender()) {... */\n    tag_120:\n        /* \"@openzeppelin/contracts/access/AccessControl.sol\":5529:5566  _revokeRole(role, callerConfirmation) */\n      tag_121\n        /* \"@openzeppelin/contracts/access/AccessControl.sol\":5541:5545  role */\n      dup3\n        /* \"@openzeppelin/contracts/access/AccessControl.sol\":5547:5565  callerConfirmation */\n      dup3\n        /* \"@openzeppelin/contracts/access/AccessControl.sol\":5529:5540  _revokeRole */\n      tag_122\n        /* \"@openzeppelin/contracts/access/AccessControl.sol\":5529:5566  _revokeRole(role, callerConfirmation) */\n      jump\t// in\n    tag_121:\n      pop\n        /* \"@openzeppelin/contracts/access/AccessControl.sol\":5328:5573  function renounceRole(bytes32 role, address callerConfirmation) public virtual {... */\n      pop\n      pop\n      jump\t// out\n        /* \"contracts/protocol/PoolOrganizer.sol\":2594:2803  function grantFactoryAccess(address factoryAddress) external {... */\n    tag_61:\n        /* \"contracts/protocol/PoolOrganizer.sol\":2674:2713  hasRole(DEFAULT_ADMIN_ROLE, msg.sender) */\n      tag_124\n        /* \"@openzeppelin/contracts/access/AccessControl.sol\":2232:2236  0x00 */\n      0x00\n        /* \"contracts/protocol/PoolOrganizer.sol\":2702:2712  msg.sender */\n      caller\n        /* \"contracts/protocol/PoolOrganizer.sol\":2674:2681  hasRole */\n      tag_71\n        /* \"contracts/protocol/PoolOrganizer.sol\":2674:2713  hasRole(DEFAULT_ADMIN_ROLE, msg.sender) */\n      jump\t// in\n    tag_124:\n        /* \"contracts/protocol/PoolOrganizer.sol\":2666:2740  require(hasRole(DEFAULT_ADMIN_ROLE, msg.sender), \"Caller is not an admin\") */\n      tag_125\n      jumpi\n      mload(0x40)\n      shl(0xe5, 0x461bcd)\n      dup2\n      mstore\n        /* \"#utility.yul\":4355:4357   */\n      0x20\n        /* \"contracts/protocol/PoolOrganizer.sol\":2666:2740  require(hasRole(DEFAULT_ADMIN_ROLE, msg.sender), \"Caller is not an admin\") */\n      0x04\n      dup3\n      add\n        /* \"#utility.yul\":4337:4358   */\n      mstore\n        /* \"#utility.yul\":4394:4396   */\n      0x16\n        /* \"#utility.yul\":4374:4392   */\n      0x24\n      dup3\n      add\n        /* \"#utility.yul\":4367:4397   */\n      mstore\n      shl(0x51, 0x21b0b63632b91034b9903737ba1030b71030b236b4b7)\n        /* \"#utility.yul\":4413:4431   */\n      0x44\n      dup3\n      add\n        /* \"#utility.yul\":4406:4458   */\n      mstore\n        /* \"#utility.yul\":4475:4493   */\n      0x64\n      add\n        /* \"contracts/protocol/PoolOrganizer.sol\":2666:2740  require(hasRole(DEFAULT_ADMIN_ROLE, msg.sender), \"Caller is not an admin\") */\n      tag_99\n        /* \"#utility.yul\":4153:4499   */\n      jump\n        /* \"contracts/protocol/PoolOrganizer.sol\":2666:2740  require(hasRole(DEFAULT_ADMIN_ROLE, msg.sender), \"Caller is not an admin\") */\n    tag_125:\n        /* \"contracts/protocol/PoolOrganizer.sol\":2751:2795  grantRole(POOL_MANAGER_ROLE, factoryAddress) */\n      tag_128\n      0x00\n      dup1\n      mload\n      0x20\n      data_cea5b988323acc73cd81db0e6f2932cdc75f39072539d65cbfa79c56b2a64e51\n      dup4\n      codecopy\n      dup2\n      mload\n      swap2\n      mstore\n        /* \"contracts/protocol/PoolOrganizer.sol\":2780:2794  factoryAddress */\n      dup3\n        /* \"contracts/protocol/PoolOrganizer.sol\":2751:2760  grantRole */\n      tag_52\n        /* \"contracts/protocol/PoolOrganizer.sol\":2751:2795  grantRole(POOL_MANAGER_ROLE, factoryAddress) */\n      jump\t// in\n    tag_128:\n        /* \"contracts/protocol/PoolOrganizer.sol\":2594:2803  function grantFactoryAccess(address factoryAddress) external {... */\n      pop\n      jump\t// out\n        /* \"contracts/protocol/PoolOrganizer.sol\":2384:2586  function getVaultForPool(address pool) external view returns (address) {... */\n    tag_64:\n      sub(shl(0xa0, 0x01), 0x01)\n        /* \"contracts/protocol/PoolOrganizer.sol\":2474:2490  poolVaults[pool] */\n      dup2\n      dup2\n      and\n        /* \"contracts/protocol/PoolOrganizer.sol\":2446:2453  address */\n      0x00\n        /* \"contracts/protocol/PoolOrganizer.sol\":2474:2490  poolVaults[pool] */\n      swap1\n      dup2\n      mstore\n        /* \"contracts/protocol/PoolOrganizer.sol\":2474:2484  poolVaults */\n      0x04\n        /* \"contracts/protocol/PoolOrganizer.sol\":2474:2490  poolVaults[pool] */\n      0x20\n      mstore\n      0x40\n      dup2\n      keccak256\n      sload\n        /* \"contracts/protocol/PoolOrganizer.sol\":2446:2453  address */\n      swap1\n      swap2\n        /* \"contracts/protocol/PoolOrganizer.sol\":2474:2490  poolVaults[pool] */\n      and\n        /* \"contracts/protocol/PoolOrganizer.sol\":2466:2544  require(poolVaults[pool] != address(0), \"Pool not registered or has no vault\") */\n      tag_130\n      jumpi\n      mload(0x40)\n      shl(0xe5, 0x461bcd)\n      dup2\n      mstore\n        /* \"#utility.yul\":4706:4708   */\n      0x20\n        /* \"contracts/protocol/PoolOrganizer.sol\":2466:2544  require(poolVaults[pool] != address(0), \"Pool not registered or has no vault\") */\n      0x04\n      dup3\n      add\n        /* \"#utility.yul\":4688:4709   */\n      mstore\n        /* \"#utility.yul\":4745:4747   */\n      0x23\n        /* \"#utility.yul\":4725:4743   */\n      0x24\n      dup3\n      add\n        /* \"#utility.yul\":4718:4748   */\n      mstore\n        /* \"#utility.yul\":4784:4818   */\n      0x506f6f6c206e6f742072656769737465726564206f7220686173206e6f207661\n        /* \"#utility.yul\":4764:4782   */\n      0x44\n      dup3\n      add\n        /* \"#utility.yul\":4757:4819   */\n      mstore\n      shl(0xea, 0x1d5b1d)\n        /* \"#utility.yul\":4835:4853   */\n      0x64\n      dup3\n      add\n        /* \"#utility.yul\":4828:4861   */\n      mstore\n        /* \"#utility.yul\":4878:4897   */\n      0x84\n      add\n        /* \"contracts/protocol/PoolOrganizer.sol\":2466:2544  require(poolVaults[pool] != address(0), \"Pool not registered or has no vault\") */\n      tag_99\n        /* \"#utility.yul\":4504:4903   */\n      jump\n        /* \"contracts/protocol/PoolOrganizer.sol\":2466:2544  require(poolVaults[pool] != address(0), \"Pool not registered or has no vault\") */\n    tag_130:\n      pop\n      sub(shl(0xa0, 0x01), 0x01)\n        /* \"contracts/protocol/PoolOrganizer.sol\":2562:2578  poolVaults[pool] */\n      swap1\n      dup2\n      and\n      0x00\n      swap1\n      dup2\n      mstore\n        /* \"contracts/protocol/PoolOrganizer.sol\":2562:2572  poolVaults */\n      0x04\n        /* \"contracts/protocol/PoolOrganizer.sol\":2562:2578  poolVaults[pool] */\n      0x20\n      mstore\n      0x40\n      swap1\n      keccak256\n      sload\n      and\n      swap1\n        /* \"contracts/protocol/PoolOrganizer.sol\":2384:2586  function getVaultForPool(address pool) external view returns (address) {... */\n      jump\t// out\n        /* \"contracts/protocol/PoolOrganizer.sol\":1571:1922  function deregisterPool(address pool) external onlyRole(POOL_MANAGER_ROLE) {... */\n    tag_68:\n      0x00\n      dup1\n      mload\n      0x20\n      data_cea5b988323acc73cd81db0e6f2932cdc75f39072539d65cbfa79c56b2a64e51\n      dup4\n      codecopy\n      dup2\n      mload\n      swap2\n      mstore\n        /* \"@openzeppelin/contracts/access/AccessControl.sol\":2464:2480  _checkRole(role) */\n      tag_134\n        /* \"@openzeppelin/contracts/access/AccessControl.sol\":2475:2479  role */\n      dup2\n        /* \"@openzeppelin/contracts/access/AccessControl.sol\":2464:2474  _checkRole */\n      tag_94\n        /* \"@openzeppelin/contracts/access/AccessControl.sol\":2464:2480  _checkRole(role) */\n      jump\t// in\n    tag_134:\n      sub(shl(0xa0, 0x01), 0x01)\n        /* \"contracts/protocol/PoolOrganizer.sol\":1661:1678  poolDetails[pool] */\n      dup3\n      dup2\n      and\n        /* \"contracts/protocol/PoolOrganizer.sol\":1697:1698  0 */\n      0x00\n        /* \"contracts/protocol/PoolOrganizer.sol\":1661:1678  poolDetails[pool] */\n      swap1\n      dup2\n      mstore\n        /* \"contracts/protocol/PoolOrganizer.sol\":1661:1672  poolDetails */\n      0x02\n        /* \"contracts/protocol/PoolOrganizer.sol\":1661:1678  poolDetails[pool] */\n      0x20\n      mstore\n      0x40\n      swap1\n      keccak256\n        /* \"contracts/protocol/PoolOrganizer.sol\":1661:1685  poolDetails[pool].lender */\n      sload\n      and\n        /* \"contracts/protocol/PoolOrganizer.sol\":1657:1727  if (poolDetails[pool].lender == address(0)) revert PoolNotRegistered() */\n      tag_136\n      jumpi\n        /* \"contracts/protocol/PoolOrganizer.sol\":1708:1727  PoolNotRegistered() */\n      mload(0x40)\n      shl(0xe0, 0x739f4185)\n      dup2\n      mstore\n      0x04\n      add\n      mload(0x40)\n      dup1\n      swap2\n      sub\n      swap1\n      revert\n        /* \"contracts/protocol/PoolOrganizer.sol\":1657:1727  if (poolDetails[pool].lender == address(0)) revert PoolNotRegistered() */\n    tag_136:\n      sub(shl(0xa0, 0x01), 0x01)\n        /* \"contracts/protocol/PoolOrganizer.sol\":1767:1784  poolDetails[pool] */\n      dup1\n      dup4\n      and\n      0x00\n      swap1\n      dup2\n      mstore\n        /* \"contracts/protocol/PoolOrganizer.sol\":1767:1778  poolDetails */\n      0x02\n        /* \"contracts/protocol/PoolOrganizer.sol\":1767:1784  poolDetails[pool] */\n      0x20\n      mstore\n      0x40\n      swap1\n      keccak256\n        /* \"contracts/protocol/PoolOrganizer.sol\":1767:1791  poolDetails[pool].lender */\n      sload\n        /* \"contracts/protocol/PoolOrganizer.sol\":1740:1798  _removePoolFromLenderArray(poolDetails[pool].lender, pool) */\n      tag_137\n      swap2\n        /* \"contracts/protocol/PoolOrganizer.sol\":1767:1791  poolDetails[pool].lender */\n      and\n        /* \"contracts/protocol/PoolOrganizer.sol\":1779:1783  pool */\n      dup4\n        /* \"contracts/protocol/PoolOrganizer.sol\":1740:1766  _removePoolFromLenderArray */\n      tag_138\n        /* \"contracts/protocol/PoolOrganizer.sol\":1740:1798  _removePoolFromLenderArray(poolDetails[pool].lender, pool) */\n      jump\t// in\n    tag_137:\n        /* \"contracts/protocol/PoolOrganizer.sol\":1809:1839  _removePoolFromMainArray(pool) */\n      tag_139\n        /* \"contracts/protocol/PoolOrganizer.sol\":1834:1838  pool */\n      dup3\n        /* \"contracts/protocol/PoolOrganizer.sol\":1809:1833  _removePoolFromMainArray */\n      tag_140\n        /* \"contracts/protocol/PoolOrganizer.sol\":1809:1839  _removePoolFromMainArray(pool) */\n      jump\t// in\n    tag_139:\n      sub(shl(0xa0, 0x01), 0x01)\n        /* \"contracts/protocol/PoolOrganizer.sol\":1859:1876  poolDetails[pool] */\n      dup3\n      and\n      0x00\n      dup2\n      dup2\n      mstore\n        /* \"contracts/protocol/PoolOrganizer.sol\":1859:1870  poolDetails */\n      0x02\n        /* \"contracts/protocol/PoolOrganizer.sol\":1859:1876  poolDetails[pool] */\n      0x20\n      dup2\n      swap1\n      mstore\n      0x40\n      dup1\n      dup4\n      keccak256\n        /* \"contracts/protocol/PoolOrganizer.sol\":1852:1876  delete poolDetails[pool] */\n      dup1\n      sload\n      not(sub(shl(0xa0, 0x01), 0x01))\n      swap1\n      dup2\n      and\n      dup3\n      sstore\n      0x01\n      dup3\n      add\n      dup1\n      sload\n      dup3\n      and\n      swap1\n      sstore\n      swap3\n      dup2\n      add\n      dup5\n      swap1\n      sstore\n      0x03\n      add\n      dup1\n      sload\n      swap1\n      swap3\n      and\n      swap1\n      swap2\n      sstore\n        /* \"contracts/protocol/PoolOrganizer.sol\":1892:1914  PoolDeregistered(pool) */\n      mload\n      0x334d0b2111287dfddebe4b4c1c5af3ae644909d7fcd024377bf601e236ed5abb\n      swap2\n        /* \"contracts/protocol/PoolOrganizer.sol\":1859:1876  poolDetails[pool] */\n      swap1\n        /* \"contracts/protocol/PoolOrganizer.sol\":1892:1914  PoolDeregistered(pool) */\n      log2\n        /* \"contracts/protocol/PoolOrganizer.sol\":1571:1922  function deregisterPool(address pool) external onlyRole(POOL_MANAGER_ROLE) {... */\n      pop\n      pop\n      jump\t// out\n        /* \"@openzeppelin/contracts/access/AccessControl.sol\":2854:2990  function hasRole(bytes32 role, address account) public view virtual returns (bool) {... */\n    tag_71:\n        /* \"@openzeppelin/contracts/access/AccessControl.sol\":2931:2935  bool */\n      0x00\n        /* \"@openzeppelin/contracts/access/AccessControl.sol\":2954:2966  _roles[role] */\n      swap2\n      dup3\n      mstore\n      0x20\n      dup3\n      dup2\n      mstore\n      0x40\n      dup1\n      dup5\n      keccak256\n      sub(shl(0xa0, 0x01), 0x01)\n        /* \"@openzeppelin/contracts/access/AccessControl.sol\":2954:2983  _roles[role].hasRole[account] */\n      swap4\n      swap1\n      swap4\n      and\n      dup5\n      mstore\n      swap2\n      swap1\n      mstore\n      swap1\n      keccak256\n      sload\n      0xff\n      and\n      swap1\n        /* \"@openzeppelin/contracts/access/AccessControl.sol\":2854:2990  function hasRole(bytes32 role, address account) public view virtual returns (bool) {... */\n      jump\t// out\n        /* \"contracts/protocol/PoolOrganizer.sol\":2171:2376  function getPoolDetails(address pool) external view returns (PoolDetails memory) {... */\n    tag_78:\n      0x40\n      dup1\n      mload\n      0x80\n      dup2\n      add\n      dup3\n      mstore\n      0x00\n      dup1\n      dup3\n      mstore\n      0x20\n      dup3\n      add\n      dup2\n      swap1\n      mstore\n      swap2\n      dup2\n      add\n      dup3\n      swap1\n      mstore\n      0x60\n      dup2\n      add\n      swap2\n      swap1\n      swap2\n      mstore\n      sub(shl(0xa0, 0x01), 0x01)\n        /* \"contracts/protocol/PoolOrganizer.sol\":2267:2284  poolDetails[pool] */\n      dup3\n      dup2\n      and\n        /* \"contracts/protocol/PoolOrganizer.sol\":2303:2304  0 */\n      0x00\n        /* \"contracts/protocol/PoolOrganizer.sol\":2267:2284  poolDetails[pool] */\n      swap1\n      dup2\n      mstore\n        /* \"contracts/protocol/PoolOrganizer.sol\":2267:2278  poolDetails */\n      0x02\n        /* \"contracts/protocol/PoolOrganizer.sol\":2267:2284  poolDetails[pool] */\n      0x20\n      mstore\n      0x40\n      swap1\n      keccak256\n        /* \"contracts/protocol/PoolOrganizer.sol\":2267:2291  poolDetails[pool].lender */\n      sload\n      and\n        /* \"contracts/protocol/PoolOrganizer.sol\":2263:2333  if (poolDetails[pool].lender == address(0)) revert PoolNotRegistered() */\n      tag_145\n      jumpi\n        /* \"contracts/protocol/PoolOrganizer.sol\":2314:2333  PoolNotRegistered() */\n      mload(0x40)\n      shl(0xe0, 0x739f4185)\n      dup2\n      mstore\n      0x04\n      add\n      mload(0x40)\n      dup1\n      swap2\n      sub\n      swap1\n      revert\n        /* \"contracts/protocol/PoolOrganizer.sol\":2263:2333  if (poolDetails[pool].lender == address(0)) revert PoolNotRegistered() */\n    tag_145:\n      pop\n      sub(shl(0xa0, 0x01), 0x01)\n        /* \"contracts/protocol/PoolOrganizer.sol\":2351:2368  poolDetails[pool] */\n      swap1\n      dup2\n      and\n      0x00\n      swap1\n      dup2\n      mstore\n        /* \"contracts/protocol/PoolOrganizer.sol\":2351:2362  poolDetails */\n      0x02\n        /* \"contracts/protocol/PoolOrganizer.sol\":2351:2368  poolDetails[pool] */\n      0x20\n      dup2\n      dup2\n      mstore\n      0x40\n      swap3\n      dup4\n      swap1\n      keccak256\n        /* \"contracts/protocol/PoolOrganizer.sol\":2344:2368  return poolDetails[pool] */\n      dup4\n      mload\n      0x80\n      dup2\n      add\n      dup6\n      mstore\n      dup2\n      sload\n      dup7\n      and\n      dup2\n      mstore\n      0x01\n      dup3\n      add\n      sload\n      dup7\n      and\n      swap3\n      dup2\n      add\n      swap3\n      swap1\n      swap3\n      mstore\n      swap2\n      dup3\n      add\n      sload\n      swap3\n      dup2\n      add\n      swap3\n      swap1\n      swap3\n      mstore\n      0x03\n      add\n      sload\n      swap1\n      swap2\n      and\n      0x60\n      dup3\n      add\n      mstore\n      swap1\n        /* \"contracts/protocol/PoolOrganizer.sol\":2171:2376  function getPoolDetails(address pool) external view returns (PoolDetails memory) {... */\n      jump\t// out\n        /* \"@openzeppelin/contracts/access/AccessControl.sol\":4642:4780  function revokeRole(bytes32 role, address account) public virtual onlyRole(getRoleAdmin(role)) {... */\n    tag_87:\n        /* \"@openzeppelin/contracts/access/AccessControl.sol\":3875:3882  bytes32 */\n      0x00\n        /* \"@openzeppelin/contracts/access/AccessControl.sol\":3901:3913  _roles[role] */\n      dup3\n      dup2\n      mstore\n      0x20\n      dup2\n      swap1\n      mstore\n      0x40\n      swap1\n      keccak256\n        /* \"@openzeppelin/contracts/access/AccessControl.sol\":3901:3923  _roles[role].adminRole */\n      0x01\n      add\n      sload\n        /* \"@openzeppelin/contracts/access/AccessControl.sol\":2464:2480  _checkRole(role) */\n      tag_149\n        /* \"@openzeppelin/contracts/access/AccessControl.sol\":2475:2479  role */\n      dup2\n        /* \"@openzeppelin/contracts/access/AccessControl.sol\":2464:2474  _checkRole */\n      tag_94\n        /* \"@openzeppelin/contracts/access/AccessControl.sol\":2464:2480  _checkRole(role) */\n      jump\t// in\n    tag_149:\n        /* \"@openzeppelin/contracts/access/AccessControl.sol\":4747:4773  _revokeRole(role, account) */\n      tag_115\n        /* \"@openzeppelin/contracts/access/AccessControl.sol\":4759:4763  role */\n      dup4\n        /* \"@openzeppelin/contracts/access/AccessControl.sol\":4765:4772  account */\n      dup4\n        /* \"@openzeppelin/contracts/access/AccessControl.sol\":4747:4758  _revokeRole */\n      tag_122\n        /* \"@openzeppelin/contracts/access/AccessControl.sol\":4747:4773  _revokeRole(role, account) */\n      jump\t// in\n        /* \"@openzeppelin/contracts/access/AccessControl.sol\":3199:3302  function _checkRole(bytes32 role) internal view virtual {... */\n    tag_94:\n        /* \"@openzeppelin/contracts/access/AccessControl.sol\":3265:3295  _checkRole(role, _msgSender()) */\n      tag_128\n        /* \"@openzeppelin/contracts/access/AccessControl.sol\":3276:3280  role */\n      dup2\n        /* \"@openzeppelin/contracts/utils/Context.sol\":735:745  msg.sender */\n      caller\n        /* \"@openzeppelin/contracts/access/AccessControl.sol\":3265:3275  _checkRole */\n      tag_156\n        /* \"@openzeppelin/contracts/access/AccessControl.sol\":3265:3295  _checkRole(role, _msgSender()) */\n      jump\t// in\n        /* \"@openzeppelin/contracts/access/AccessControl.sol\":6179:6495  function _grantRole(bytes32 role, address account) internal virtual returns (bool) {... */\n    tag_116:\n        /* \"@openzeppelin/contracts/access/AccessControl.sol\":6256:6260  bool */\n      0x00\n        /* \"@openzeppelin/contracts/access/AccessControl.sol\":6277:6299  hasRole(role, account) */\n      tag_158\n        /* \"@openzeppelin/contracts/access/AccessControl.sol\":6285:6289  role */\n      dup4\n        /* \"@openzeppelin/contracts/access/AccessControl.sol\":6291:6298  account */\n      dup4\n        /* \"@openzeppelin/contracts/access/AccessControl.sol\":6277:6284  hasRole */\n      tag_71\n        /* \"@openzeppelin/contracts/access/AccessControl.sol\":6277:6299  hasRole(role, account) */\n      jump\t// in\n    tag_158:\n        /* \"@openzeppelin/contracts/access/AccessControl.sol\":6272:6489  if (!hasRole(role, account)) {... */\n      tag_159\n      jumpi\n        /* \"@openzeppelin/contracts/access/AccessControl.sol\":6315:6321  _roles */\n      0x00\n        /* \"@openzeppelin/contracts/access/AccessControl.sol\":6315:6327  _roles[role] */\n      dup4\n      dup2\n      mstore\n      0x20\n      dup2\n      dup2\n      mstore\n      0x40\n      dup1\n      dup4\n      keccak256\n      sub(shl(0xa0, 0x01), 0x01)\n        /* \"@openzeppelin/contracts/access/AccessControl.sol\":6315:6344  _roles[role].hasRole[account] */\n      dup7\n      and\n      dup5\n      mstore\n      swap1\n      swap2\n      mstore\n      swap1\n      keccak256\n        /* \"@openzeppelin/contracts/access/AccessControl.sol\":6315:6351  _roles[role].hasRole[account] = true */\n      dup1\n      sload\n      not(0xff)\n      and\n        /* \"@openzeppelin/contracts/access/AccessControl.sol\":6347:6351  true */\n      0x01\n        /* \"@openzeppelin/contracts/access/AccessControl.sol\":6315:6351  _roles[role].hasRole[account] = true */\n      or\n      swap1\n      sstore\n        /* \"@openzeppelin/contracts/access/AccessControl.sol\":6397:6409  _msgSender() */\n      tag_160\n        /* \"@openzeppelin/contracts/utils/Context.sol\":735:745  msg.sender */\n      caller\n      swap1\n        /* \"@openzeppelin/contracts/utils/Context.sol\":656:752  function _msgSender() internal view virtual returns (address) {... */\n      jump\n        /* \"@openzeppelin/contracts/access/AccessControl.sol\":6397:6409  _msgSender() */\n    tag_160:\n      sub(shl(0xa0, 0x01), 0x01)\n        /* \"@openzeppelin/contracts/access/AccessControl.sol\":6370:6410  RoleGranted(role, account, _msgSender()) */\n      and\n        /* \"@openzeppelin/contracts/access/AccessControl.sol\":6388:6395  account */\n      dup3\n      sub(shl(0xa0, 0x01), 0x01)\n        /* \"@openzeppelin/contracts/access/AccessControl.sol\":6370:6410  RoleGranted(role, account, _msgSender()) */\n      and\n        /* \"@openzeppelin/contracts/access/AccessControl.sol\":6382:6386  role */\n      dup5\n        /* \"@openzeppelin/contracts/access/AccessControl.sol\":6370:6410  RoleGranted(role, account, _msgSender()) */\n      0x2f8788117e7eff1d82e926ec794901d17c78024a50270940304540a733656f0d\n      mload(0x40)\n      mload(0x40)\n      dup1\n      swap2\n      sub\n      swap1\n      log4\n      pop\n        /* \"@openzeppelin/contracts/access/AccessControl.sol\":6431:6435  true */\n      0x01\n        /* \"@openzeppelin/contracts/access/AccessControl.sol\":6424:6435  return true */\n      jump(tag_90)\n        /* \"@openzeppelin/contracts/access/AccessControl.sol\":6272:6489  if (!hasRole(role, account)) {... */\n    tag_159:\n      pop\n        /* \"@openzeppelin/contracts/access/AccessControl.sol\":6473:6478  false */\n      0x00\n        /* \"@openzeppelin/contracts/access/AccessControl.sol\":6466:6478  return false */\n      jump(tag_90)\n        /* \"@openzeppelin/contracts/access/AccessControl.sol\":6730:7047  function _revokeRole(bytes32 role, address account) internal virtual returns (bool) {... */\n    tag_122:\n        /* \"@openzeppelin/contracts/access/AccessControl.sol\":6808:6812  bool */\n      0x00\n        /* \"@openzeppelin/contracts/access/AccessControl.sol\":6828:6850  hasRole(role, account) */\n      tag_164\n        /* \"@openzeppelin/contracts/access/AccessControl.sol\":6836:6840  role */\n      dup4\n        /* \"@openzeppelin/contracts/access/AccessControl.sol\":6842:6849  account */\n      dup4\n        /* \"@openzeppelin/contracts/access/AccessControl.sol\":6828:6835  hasRole */\n      tag_71\n        /* \"@openzeppelin/contracts/access/AccessControl.sol\":6828:6850  hasRole(role, account) */\n      jump\t// in\n    tag_164:\n        /* \"@openzeppelin/contracts/access/AccessControl.sol\":6824:7041  if (hasRole(role, account)) {... */\n      iszero\n      tag_159\n      jumpi\n        /* \"@openzeppelin/contracts/access/AccessControl.sol\":6898:6903  false */\n      0x00\n        /* \"@openzeppelin/contracts/access/AccessControl.sol\":6866:6878  _roles[role] */\n      dup4\n      dup2\n      mstore\n      0x20\n      dup2\n      dup2\n      mstore\n      0x40\n      dup1\n      dup4\n      keccak256\n      sub(shl(0xa0, 0x01), 0x01)\n        /* \"@openzeppelin/contracts/access/AccessControl.sol\":6866:6895  _roles[role].hasRole[account] */\n      dup7\n      and\n      dup1\n      dup6\n      mstore\n      swap3\n      mstore\n      dup1\n      dup4\n      keccak256\n        /* \"@openzeppelin/contracts/access/AccessControl.sol\":6866:6903  _roles[role].hasRole[account] = false */\n      dup1\n      sload\n      not(0xff)\n      and\n      swap1\n      sstore\n        /* \"@openzeppelin/contracts/access/AccessControl.sol\":6922:6962  RoleRevoked(role, account, _msgSender()) */\n      mload\n        /* \"@openzeppelin/contracts/utils/Context.sol\":735:745  msg.sender */\n      caller\n      swap3\n        /* \"@openzeppelin/contracts/access/AccessControl.sol\":6866:6878  _roles[role] */\n      dup7\n      swap2\n        /* \"@openzeppelin/contracts/access/AccessControl.sol\":6922:6962  RoleRevoked(role, account, _msgSender()) */\n      0xf6391f5c32d9c69d2a47ea670b442974b53935d1edc7fd64eb21e047a839171b\n      swap2\n        /* \"@openzeppelin/contracts/access/AccessControl.sol\":6898:6903  false */\n      swap1\n        /* \"@openzeppelin/contracts/access/AccessControl.sol\":6922:6962  RoleRevoked(role, account, _msgSender()) */\n      log4\n      pop\n        /* \"@openzeppelin/contracts/access/AccessControl.sol\":6983:6987  true */\n      0x01\n        /* \"@openzeppelin/contracts/access/AccessControl.sol\":6976:6987  return true */\n      jump(tag_90)\n        /* \"contracts/protocol/PoolOrganizer.sol\":2845:3164  function _removePoolFromLenderArray(address lender, address pool) private {... */\n    tag_138:\n      sub(shl(0xa0, 0x01), 0x01)\n        /* \"contracts/protocol/PoolOrganizer.sol\":2963:2982  lenderPools[lender] */\n      dup3\n      and\n        /* \"contracts/protocol/PoolOrganizer.sol\":2930:2943  uint256 index */\n      0x00\n        /* \"contracts/protocol/PoolOrganizer.sol\":2963:2982  lenderPools[lender] */\n      swap1\n      dup2\n      mstore\n        /* \"contracts/protocol/PoolOrganizer.sol\":2963:2974  lenderPools */\n      0x03\n        /* \"contracts/protocol/PoolOrganizer.sol\":2963:2982  lenderPools[lender] */\n      0x20\n      mstore\n      0x40\n      dup2\n      keccak256\n        /* \"contracts/protocol/PoolOrganizer.sol\":2946:2989  findIndexInArray(lenderPools[lender], pool) */\n      tag_169\n      swap1\n        /* \"contracts/protocol/PoolOrganizer.sol\":2984:2988  pool */\n      dup4\n        /* \"contracts/protocol/PoolOrganizer.sol\":2946:2962  findIndexInArray */\n      tag_170\n        /* \"contracts/protocol/PoolOrganizer.sol\":2946:2989  findIndexInArray(lenderPools[lender], pool) */\n      jump\t// in\n    tag_169:\n      sub(shl(0xa0, 0x01), 0x01)\n        /* \"contracts/protocol/PoolOrganizer.sol\":3020:3039  lenderPools[lender] */\n      dup5\n      and\n        /* \"contracts/protocol/PoolOrganizer.sol\":3000:3017  uint256 lastIndex */\n      0x00\n        /* \"contracts/protocol/PoolOrganizer.sol\":3020:3039  lenderPools[lender] */\n      swap1\n      dup2\n      mstore\n        /* \"contracts/protocol/PoolOrganizer.sol\":3020:3031  lenderPools */\n      0x03\n        /* \"contracts/protocol/PoolOrganizer.sol\":3020:3039  lenderPools[lender] */\n      0x20\n      mstore\n      0x40\n      dup2\n      keccak256\n        /* \"contracts/protocol/PoolOrganizer.sol\":3020:3046  lenderPools[lender].length */\n      sload\n        /* \"contracts/protocol/PoolOrganizer.sol\":2930:2989  uint256 index = findIndexInArray(lenderPools[lender], pool) */\n      swap2\n      swap3\n      pop\n        /* \"contracts/protocol/PoolOrganizer.sol\":3000:3017  uint256 lastIndex */\n      swap1\n        /* \"contracts/protocol/PoolOrganizer.sol\":3020:3050  lenderPools[lender].length - 1 */\n      tag_171\n      swap1\n        /* \"contracts/protocol/PoolOrganizer.sol\":3049:3050  1 */\n      0x01\n      swap1\n        /* \"contracts/protocol/PoolOrganizer.sol\":3020:3050  lenderPools[lender].length - 1 */\n      tag_172\n      jump\t// in\n    tag_171:\n      sub(shl(0xa0, 0x01), 0x01)\n        /* \"contracts/protocol/PoolOrganizer.sol\":3090:3109  lenderPools[lender] */\n      dup6\n      and\n      0x00\n      swap1\n      dup2\n      mstore\n        /* \"contracts/protocol/PoolOrganizer.sol\":3090:3101  lenderPools */\n      0x03\n        /* \"contracts/protocol/PoolOrganizer.sol\":3090:3109  lenderPools[lender] */\n      0x20\n      mstore\n      0x40\n      swap1\n      keccak256\n        /* \"contracts/protocol/PoolOrganizer.sol\":3090:3120  lenderPools[lender][lastIndex] */\n      dup1\n      sload\n        /* \"contracts/protocol/PoolOrganizer.sol\":3000:3050  uint256 lastIndex = lenderPools[lender].length - 1 */\n      swap2\n      swap3\n      pop\n        /* \"contracts/protocol/PoolOrganizer.sol\":3090:3109  lenderPools[lender] */\n      swap1\n        /* \"contracts/protocol/PoolOrganizer.sol\":3000:3050  uint256 lastIndex = lenderPools[lender].length - 1 */\n      dup3\n      swap1\n        /* \"contracts/protocol/PoolOrganizer.sol\":3090:3120  lenderPools[lender][lastIndex] */\n      dup2\n      lt\n      tag_174\n      jumpi\n      tag_174\n      tag_175\n      jump\t// in\n    tag_174:\n      0x00\n      swap2\n      dup3\n      mstore\n      0x20\n      dup1\n      dup4\n      keccak256\n      swap1\n      swap2\n      add\n      sload\n      sub(shl(0xa0, 0x01), 0x01)\n        /* \"contracts/protocol/PoolOrganizer.sol\":3061:3080  lenderPools[lender] */\n      dup8\n      dup2\n      and\n      dup5\n      mstore\n        /* \"contracts/protocol/PoolOrganizer.sol\":3061:3072  lenderPools */\n      0x03\n        /* \"contracts/protocol/PoolOrganizer.sol\":3061:3080  lenderPools[lender] */\n      swap1\n      swap3\n      mstore\n      0x40\n      swap1\n      swap3\n      keccak256\n        /* \"contracts/protocol/PoolOrganizer.sol\":3061:3087  lenderPools[lender][index] */\n      dup1\n      sload\n        /* \"contracts/protocol/PoolOrganizer.sol\":3090:3120  lenderPools[lender][lastIndex] */\n      swap2\n      swap1\n      swap3\n      and\n      swap2\n        /* \"contracts/protocol/PoolOrganizer.sol\":3061:3080  lenderPools[lender] */\n      swap1\n        /* \"contracts/protocol/PoolOrganizer.sol\":3081:3086  index */\n      dup5\n      swap1\n        /* \"contracts/protocol/PoolOrganizer.sol\":3061:3087  lenderPools[lender][index] */\n      dup2\n      lt\n      tag_178\n      jumpi\n      tag_178\n      tag_175\n      jump\t// in\n    tag_178:\n      0x00\n      swap2\n      dup3\n      mstore\n      0x20\n      dup1\n      dup4\n      keccak256\n      swap2\n      swap1\n      swap2\n      add\n        /* \"contracts/protocol/PoolOrganizer.sol\":3061:3120  lenderPools[lender][index] = lenderPools[lender][lastIndex] */\n      dup1\n      sload\n      not(sub(shl(0xa0, 0x01), 0x01))\n      and\n      sub(shl(0xa0, 0x01), 0x01)\n      swap5\n      dup6\n      and\n      or\n      swap1\n      sstore\n        /* \"contracts/protocol/PoolOrganizer.sol\":3131:3150  lenderPools[lender] */\n      swap2\n      dup7\n      and\n      dup2\n      mstore\n        /* \"contracts/protocol/PoolOrganizer.sol\":3131:3142  lenderPools */\n      0x03\n        /* \"contracts/protocol/PoolOrganizer.sol\":3131:3150  lenderPools[lender] */\n      swap1\n      swap2\n      mstore\n      0x40\n      swap1\n      keccak256\n        /* \"contracts/protocol/PoolOrganizer.sol\":3131:3156  lenderPools[lender].pop() */\n      dup1\n      sload\n      dup1\n      tag_181\n      jumpi\n      tag_181\n      tag_182\n      jump\t// in\n    tag_181:\n      0x00\n      dup3\n      dup2\n      mstore\n      0x20\n      swap1\n      keccak256\n      dup2\n      add\n      not(0x00)\n      swap1\n      dup2\n      add\n      dup1\n      sload\n      not(sub(shl(0xa0, 0x01), 0x01))\n      and\n      swap1\n      sstore\n      add\n      swap1\n      sstore\n      pop\n      pop\n      pop\n      pop\n        /* \"contracts/protocol/PoolOrganizer.sol\":2845:3164  function _removePoolFromLenderArray(address lender, address pool) private {... */\n      jump\t// out\n        /* \"contracts/protocol/PoolOrganizer.sol\":3172:3403  function _removePoolFromMainArray(address pool) private {... */\n    tag_140:\n        /* \"contracts/protocol/PoolOrganizer.sol\":3239:3252  uint256 index */\n      0x00\n        /* \"contracts/protocol/PoolOrganizer.sol\":3255:3284  findIndexInArray(pools, pool) */\n      tag_185\n        /* \"contracts/protocol/PoolOrganizer.sol\":3272:3277  pools */\n      0x01\n        /* \"contracts/protocol/PoolOrganizer.sol\":3279:3283  pool */\n      dup4\n        /* \"contracts/protocol/PoolOrganizer.sol\":3255:3271  findIndexInArray */\n      tag_170\n        /* \"contracts/protocol/PoolOrganizer.sol\":3255:3284  findIndexInArray(pools, pool) */\n      jump\t// in\n    tag_185:\n        /* \"contracts/protocol/PoolOrganizer.sol\":3330:3331  1 */\n      0x01\n        /* \"contracts/protocol/PoolOrganizer.sol\":3315:3327  pools.length */\n      dup1\n      sload\n        /* \"contracts/protocol/PoolOrganizer.sol\":3239:3284  uint256 index = findIndexInArray(pools, pool) */\n      swap2\n      swap3\n      pop\n        /* \"contracts/protocol/PoolOrganizer.sol\":3295:3312  uint256 lastIndex */\n      0x00\n      swap2\n        /* \"contracts/protocol/PoolOrganizer.sol\":3315:3331  pools.length - 1 */\n      tag_186\n      swap2\n        /* \"contracts/protocol/PoolOrganizer.sol\":3330:3331  1 */\n      swap1\n        /* \"contracts/protocol/PoolOrganizer.sol\":3315:3331  pools.length - 1 */\n      tag_172\n      jump\t// in\n    tag_186:\n        /* \"contracts/protocol/PoolOrganizer.sol\":3295:3331  uint256 lastIndex = pools.length - 1 */\n      swap1\n      pop\n        /* \"contracts/protocol/PoolOrganizer.sol\":3357:3362  pools */\n      0x01\n        /* \"contracts/protocol/PoolOrganizer.sol\":3363:3372  lastIndex */\n      dup2\n        /* \"contracts/protocol/PoolOrganizer.sol\":3357:3373  pools[lastIndex] */\n      dup2\n      sload\n      dup2\n      lt\n      tag_188\n      jumpi\n      tag_188\n      tag_175\n      jump\t// in\n    tag_188:\n      0x00\n      swap2\n      dup3\n      mstore\n      0x20\n      swap1\n      swap2\n      keccak256\n      add\n      sload\n      0x01\n        /* \"contracts/protocol/PoolOrganizer.sol\":3342:3354  pools[index] */\n      dup1\n      sload\n      sub(shl(0xa0, 0x01), 0x01)\n        /* \"contracts/protocol/PoolOrganizer.sol\":3357:3373  pools[lastIndex] */\n      swap1\n      swap3\n      and\n      swap2\n        /* \"contracts/protocol/PoolOrganizer.sol\":3348:3353  index */\n      dup5\n      swap1\n        /* \"contracts/protocol/PoolOrganizer.sol\":3342:3354  pools[index] */\n      dup2\n      lt\n      tag_191\n      jumpi\n      tag_191\n      tag_175\n      jump\t// in\n    tag_191:\n      swap1\n      0x00\n      mstore\n      keccak256(0x00, 0x20)\n      add\n      0x00\n        /* \"contracts/protocol/PoolOrganizer.sol\":3342:3373  pools[index] = pools[lastIndex] */\n      0x0100\n      exp\n      dup2\n      sload\n      dup2\n      sub(shl(0xa0, 0x01), 0x01)\n      mul\n      not\n      and\n      swap1\n      dup4\n      sub(shl(0xa0, 0x01), 0x01)\n      and\n      mul\n      or\n      swap1\n      sstore\n      pop\n        /* \"contracts/protocol/PoolOrganizer.sol\":3384:3389  pools */\n      0x01\n        /* \"contracts/protocol/PoolOrganizer.sol\":3384:3395  pools.pop() */\n      dup1\n      sload\n      dup1\n      tag_194\n      jumpi\n      tag_194\n      tag_182\n      jump\t// in\n    tag_194:\n      0x00\n      dup3\n      dup2\n      mstore\n      0x20\n      swap1\n      keccak256\n      dup2\n      add\n      not(0x00)\n      swap1\n      dup2\n      add\n      dup1\n      sload\n      not(sub(shl(0xa0, 0x01), 0x01))\n      and\n      swap1\n      sstore\n      add\n      swap1\n      sstore\n      pop\n      pop\n      pop\n        /* \"contracts/protocol/PoolOrganizer.sol\":3172:3403  function _removePoolFromMainArray(address pool) private {... */\n      jump\t// out\n        /* \"@openzeppelin/contracts/access/AccessControl.sol\":3432:3629  function _checkRole(bytes32 role, address account) internal view virtual {... */\n    tag_156:\n        /* \"@openzeppelin/contracts/access/AccessControl.sol\":3520:3542  hasRole(role, account) */\n      tag_197\n        /* \"@openzeppelin/contracts/access/AccessControl.sol\":3528:3532  role */\n      dup3\n        /* \"@openzeppelin/contracts/access/AccessControl.sol\":3534:3541  account */\n      dup3\n        /* \"@openzeppelin/contracts/access/AccessControl.sol\":3520:3527  hasRole */\n      tag_71\n        /* \"@openzeppelin/contracts/access/AccessControl.sol\":3520:3542  hasRole(role, account) */\n      jump\t// in\n    tag_197:\n        /* \"@openzeppelin/contracts/access/AccessControl.sol\":3515:3623  if (!hasRole(role, account)) {... */\n      tag_198\n      jumpi\n        /* \"@openzeppelin/contracts/access/AccessControl.sol\":3565:3612  AccessControlUnauthorizedAccount(account, role) */\n      mload(0x40)\n      shl(0xe0, 0xe2517d3f)\n      dup2\n      mstore\n      sub(shl(0xa0, 0x01), 0x01)\n        /* \"#utility.yul\":5594:5626   */\n      dup3\n      and\n        /* \"@openzeppelin/contracts/access/AccessControl.sol\":3565:3612  AccessControlUnauthorizedAccount(account, role) */\n      0x04\n      dup3\n      add\n        /* \"#utility.yul\":5576:5627   */\n      mstore\n        /* \"#utility.yul\":5643:5661   */\n      0x24\n      dup2\n      add\n        /* \"#utility.yul\":5636:5670   */\n      dup4\n      swap1\n      mstore\n        /* \"#utility.yul\":5549:5567   */\n      0x44\n      add\n        /* \"@openzeppelin/contracts/access/AccessControl.sol\":3565:3612  AccessControlUnauthorizedAccount(account, role) */\n      tag_99\n        /* \"#utility.yul\":5402:5676   */\n      jump\n        /* \"@openzeppelin/contracts/access/AccessControl.sol\":3515:3623  if (!hasRole(role, account)) {... */\n    tag_198:\n        /* \"@openzeppelin/contracts/access/AccessControl.sol\":3432:3629  function _checkRole(bytes32 role, address account) internal view virtual {... */\n      pop\n      pop\n      jump\t// out\n        /* \"contracts/protocol/PoolOrganizer.sol\":3411:3664  function findIndexInArray(address[] storage array, address target) private view returns (uint256) {... */\n    tag_170:\n        /* \"contracts/protocol/PoolOrganizer.sol\":3500:3507  uint256 */\n      0x00\n      dup1\n        /* \"contracts/protocol/PoolOrganizer.sol\":3520:3622  for (uint256 i = 0; i < array.length; i++) {... */\n    tag_202:\n        /* \"contracts/protocol/PoolOrganizer.sol\":3544:3556  array.length */\n      dup4\n      sload\n        /* \"contracts/protocol/PoolOrganizer.sol\":3540:3556  i < array.length */\n      dup2\n      lt\n        /* \"contracts/protocol/PoolOrganizer.sol\":3520:3622  for (uint256 i = 0; i < array.length; i++) {... */\n      iszero\n      tag_203\n      jumpi\n        /* \"contracts/protocol/PoolOrganizer.sol\":3594:3600  target */\n      dup3\n      sub(shl(0xa0, 0x01), 0x01)\n        /* \"contracts/protocol/PoolOrganizer.sol\":3582:3600  array[i] == target */\n      and\n        /* \"contracts/protocol/PoolOrganizer.sol\":3582:3587  array */\n      dup5\n        /* \"contracts/protocol/PoolOrganizer.sol\":3588:3589  i */\n      dup3\n        /* \"contracts/protocol/PoolOrganizer.sol\":3582:3590  array[i] */\n      dup2\n      sload\n      dup2\n      lt\n      tag_206\n      jumpi\n      tag_206\n      tag_175\n      jump\t// in\n    tag_206:\n      0x00\n      swap2\n      dup3\n      mstore\n      0x20\n      swap1\n      swap2\n      keccak256\n      add\n      sload\n      sub(shl(0xa0, 0x01), 0x01)\n      and\n        /* \"contracts/protocol/PoolOrganizer.sol\":3582:3600  array[i] == target */\n      sub\n        /* \"contracts/protocol/PoolOrganizer.sol\":3578:3610  if (array[i] == target) return i */\n      tag_208\n      jumpi\n        /* \"contracts/protocol/PoolOrganizer.sol\":3609:3610  i */\n      swap1\n      pop\n        /* \"contracts/protocol/PoolOrganizer.sol\":3602:3610  return i */\n      jump(tag_90)\n        /* \"contracts/protocol/PoolOrganizer.sol\":3578:3610  if (array[i] == target) return i */\n    tag_208:\n        /* \"contracts/protocol/PoolOrganizer.sol\":3558:3561  i++ */\n      0x01\n      add\n        /* \"contracts/protocol/PoolOrganizer.sol\":3520:3622  for (uint256 i = 0; i < array.length; i++) {... */\n      jump(tag_202)\n    tag_203:\n      pop\n      not(0x00)\n        /* \"contracts/protocol/PoolOrganizer.sol\":3639:3656  type(uint256).max */\n      swap4\n        /* \"contracts/protocol/PoolOrganizer.sol\":3411:3664  function findIndexInArray(address[] storage array, address target) private view returns (uint256) {... */\n      swap3\n      pop\n      pop\n      pop\n      jump\t// out\n        /* \"#utility.yul\":14:300   */\n    tag_24:\n        /* \"#utility.yul\":72:78   */\n      0x00\n        /* \"#utility.yul\":125:127   */\n      0x20\n        /* \"#utility.yul\":113:122   */\n      dup3\n        /* \"#utility.yul\":104:111   */\n      dup5\n        /* \"#utility.yul\":100:123   */\n      sub\n        /* \"#utility.yul\":96:128   */\n      slt\n        /* \"#utility.yul\":93:145   */\n      iszero\n      tag_212\n      jumpi\n        /* \"#utility.yul\":141:142   */\n      0x00\n        /* \"#utility.yul\":138:139   */\n      dup1\n        /* \"#utility.yul\":131:143   */\n      revert\n        /* \"#utility.yul\":93:145   */\n    tag_212:\n        /* \"#utility.yul\":167:190   */\n      dup2\n      calldataload\n      not(sub(shl(0xe0, 0x01), 0x01))\n        /* \"#utility.yul\":219:251   */\n      dup2\n      and\n        /* \"#utility.yul\":209:252   */\n      dup2\n      eq\n        /* \"#utility.yul\":199:270   */\n      tag_213\n      jumpi\n        /* \"#utility.yul\":266:267   */\n      0x00\n        /* \"#utility.yul\":263:264   */\n      dup1\n        /* \"#utility.yul\":256:268   */\n      revert\n        /* \"#utility.yul\":199:270   */\n    tag_213:\n        /* \"#utility.yul\":289:294   */\n      swap4\n        /* \"#utility.yul\":14:300   */\n      swap3\n      pop\n      pop\n      pop\n      jump\t// out\n        /* \"#utility.yul\":497:670   */\n    tag_209:\n        /* \"#utility.yul\":565:585   */\n      dup1\n      calldataload\n      sub(shl(0xa0, 0x01), 0x01)\n        /* \"#utility.yul\":614:645   */\n      dup2\n      and\n        /* \"#utility.yul\":604:646   */\n      dup2\n      eq\n        /* \"#utility.yul\":594:664   */\n      tag_216\n      jumpi\n        /* \"#utility.yul\":660:661   */\n      0x00\n        /* \"#utility.yul\":657:658   */\n      dup1\n        /* \"#utility.yul\":650:662   */\n      revert\n        /* \"#utility.yul\":594:664   */\n    tag_216:\n        /* \"#utility.yul\":497:670   */\n      swap2\n      swap1\n      pop\n      jump\t// out\n        /* \"#utility.yul\":675:1084   */\n    tag_30:\n        /* \"#utility.yul\":761:767   */\n      0x00\n        /* \"#utility.yul\":769:775   */\n      dup1\n        /* \"#utility.yul\":777:783   */\n      0x00\n        /* \"#utility.yul\":785:791   */\n      dup1\n        /* \"#utility.yul\":838:841   */\n      0x80\n        /* \"#utility.yul\":826:835   */\n      dup6\n        /* \"#utility.yul\":817:824   */\n      dup8\n        /* \"#utility.yul\":813:836   */\n      sub\n        /* \"#utility.yul\":809:842   */\n      slt\n        /* \"#utility.yul\":806:859   */\n      iszero\n      tag_218\n      jumpi\n        /* \"#utility.yul\":855:856   */\n      0x00\n        /* \"#utility.yul\":852:853   */\n      dup1\n        /* \"#utility.yul\":845:857   */\n      revert\n        /* \"#utility.yul\":806:859   */\n    tag_218:\n        /* \"#utility.yul\":878:907   */\n      tag_219\n        /* \"#utility.yul\":897:906   */\n      dup6\n        /* \"#utility.yul\":878:907   */\n      tag_209\n      jump\t// in\n    tag_219:\n        /* \"#utility.yul\":868:907   */\n      swap4\n      pop\n        /* \"#utility.yul\":926:964   */\n      tag_220\n        /* \"#utility.yul\":960:962   */\n      0x20\n        /* \"#utility.yul\":949:958   */\n      dup7\n        /* \"#utility.yul\":945:963   */\n      add\n        /* \"#utility.yul\":926:964   */\n      tag_209\n      jump\t// in\n    tag_220:\n        /* \"#utility.yul\":916:964   */\n      swap3\n      pop\n        /* \"#utility.yul\":983:1021   */\n      tag_221\n        /* \"#utility.yul\":1017:1019   */\n      0x40\n        /* \"#utility.yul\":1006:1015   */\n      dup7\n        /* \"#utility.yul\":1002:1020   */\n      add\n        /* \"#utility.yul\":983:1021   */\n      tag_209\n      jump\t// in\n    tag_221:\n        /* \"#utility.yul\":973:1021   */\n      swap2\n      pop\n        /* \"#utility.yul\":1040:1078   */\n      tag_222\n        /* \"#utility.yul\":1074:1076   */\n      0x60\n        /* \"#utility.yul\":1063:1072   */\n      dup7\n        /* \"#utility.yul\":1059:1077   */\n      add\n        /* \"#utility.yul\":1040:1078   */\n      tag_209\n      jump\t// in\n    tag_222:\n        /* \"#utility.yul\":1030:1078   */\n      swap1\n      pop\n        /* \"#utility.yul\":675:1084   */\n      swap3\n      swap6\n      swap2\n      swap5\n      pop\n      swap3\n      pop\n      jump\t// out\n        /* \"#utility.yul\":1089:1275   */\n    tag_34:\n        /* \"#utility.yul\":1148:1154   */\n      0x00\n        /* \"#utility.yul\":1201:1203   */\n      0x20\n        /* \"#utility.yul\":1189:1198   */\n      dup3\n        /* \"#utility.yul\":1180:1187   */\n      dup5\n        /* \"#utility.yul\":1176:1199   */\n      sub\n        /* \"#utility.yul\":1172:1204   */\n      slt\n        /* \"#utility.yul\":1169:1221   */\n      iszero\n      tag_224\n      jumpi\n        /* \"#utility.yul\":1217:1218   */\n      0x00\n        /* \"#utility.yul\":1214:1215   */\n      dup1\n        /* \"#utility.yul\":1207:1219   */\n      revert\n        /* \"#utility.yul\":1169:1221   */\n    tag_224:\n        /* \"#utility.yul\":1240:1269   */\n      tag_213\n        /* \"#utility.yul\":1259:1268   */\n      dup3\n        /* \"#utility.yul\":1240:1269   */\n      tag_209\n      jump\t// in\n        /* \"#utility.yul\":1488:1668   */\n    tag_40:\n        /* \"#utility.yul\":1547:1553   */\n      0x00\n        /* \"#utility.yul\":1600:1602   */\n      0x20\n        /* \"#utility.yul\":1588:1597   */\n      dup3\n        /* \"#utility.yul\":1579:1586   */\n      dup5\n        /* \"#utility.yul\":1575:1598   */\n      sub\n        /* \"#utility.yul\":1571:1603   */\n      slt\n        /* \"#utility.yul\":1568:1620   */\n      iszero\n      tag_228\n      jumpi\n        /* \"#utility.yul\":1616:1617   */\n      0x00\n        /* \"#utility.yul\":1613:1614   */\n      dup1\n        /* \"#utility.yul\":1606:1618   */\n      revert\n        /* \"#utility.yul\":1568:1620   */\n    tag_228:\n      pop\n        /* \"#utility.yul\":1639:1662   */\n      calldataload\n      swap2\n        /* \"#utility.yul\":1488:1668   */\n      swap1\n      pop\n      jump\t// out\n        /* \"#utility.yul\":1855:2513   */\n    tag_48:\n        /* \"#utility.yul\":2026:2028   */\n      0x20\n        /* \"#utility.yul\":2078:2099   */\n      dup1\n      dup3\n      mstore\n        /* \"#utility.yul\":2148:2161   */\n      dup3\n      mload\n        /* \"#utility.yul\":2051:2069   */\n      dup3\n      dup3\n      add\n        /* \"#utility.yul\":2170:2192   */\n      dup2\n      swap1\n      mstore\n        /* \"#utility.yul\":1997:2001   */\n      0x00\n      swap2\n        /* \"#utility.yul\":2026:2028   */\n      swap1\n        /* \"#utility.yul\":2249:2264   */\n      dup5\n      dup3\n      add\n      swap1\n        /* \"#utility.yul\":2223:2225   */\n      0x40\n        /* \"#utility.yul\":2208:2226   */\n      dup6\n      add\n      swap1\n        /* \"#utility.yul\":1997:2001   */\n      dup5\n        /* \"#utility.yul\":2292:2487   */\n    tag_231:\n        /* \"#utility.yul\":2306:2312   */\n      dup2\n        /* \"#utility.yul\":2303:2304   */\n      dup2\n        /* \"#utility.yul\":2300:2313   */\n      lt\n        /* \"#utility.yul\":2292:2487   */\n      iszero\n      tag_233\n      jumpi\n        /* \"#utility.yul\":2371:2384   */\n      dup4\n      mload\n      sub(shl(0xa0, 0x01), 0x01)\n        /* \"#utility.yul\":2367:2406   */\n      and\n        /* \"#utility.yul\":2355:2407   */\n      dup4\n      mstore\n        /* \"#utility.yul\":2462:2477   */\n      swap3\n      dup5\n      add\n      swap3\n        /* \"#utility.yul\":2427:2439   */\n      swap2\n      dup5\n      add\n      swap2\n        /* \"#utility.yul\":2403:2404   */\n      0x01\n        /* \"#utility.yul\":2321:2330   */\n      add\n        /* \"#utility.yul\":2292:2487   */\n      jump(tag_231)\n    tag_233:\n      pop\n        /* \"#utility.yul\":2504:2507   */\n      swap1\n      swap7\n        /* \"#utility.yul\":1855:2513   */\n      swap6\n      pop\n      pop\n      pop\n      pop\n      pop\n      pop\n      jump\t// out\n        /* \"#utility.yul\":2518:2772   */\n    tag_51:\n        /* \"#utility.yul\":2586:2592   */\n      0x00\n        /* \"#utility.yul\":2594:2600   */\n      dup1\n        /* \"#utility.yul\":2647:2649   */\n      0x40\n        /* \"#utility.yul\":2635:2644   */\n      dup4\n        /* \"#utility.yul\":2626:2633   */\n      dup6\n        /* \"#utility.yul\":2622:2645   */\n      sub\n        /* \"#utility.yul\":2618:2650   */\n      slt\n        /* \"#utility.yul\":2615:2667   */\n      iszero\n      tag_235\n      jumpi\n        /* \"#utility.yul\":2663:2664   */\n      0x00\n        /* \"#utility.yul\":2660:2661   */\n      dup1\n        /* \"#utility.yul\":2653:2665   */\n      revert\n        /* \"#utility.yul\":2615:2667   */\n    tag_235:\n        /* \"#utility.yul\":2699:2708   */\n      dup3\n        /* \"#utility.yul\":2686:2709   */\n      calldataload\n        /* \"#utility.yul\":2676:2709   */\n      swap2\n      pop\n        /* \"#utility.yul\":2728:2766   */\n      tag_236\n        /* \"#utility.yul\":2762:2764   */\n      0x20\n        /* \"#utility.yul\":2751:2760   */\n      dup5\n        /* \"#utility.yul\":2747:2765   */\n      add\n        /* \"#utility.yul\":2728:2766   */\n      tag_209\n      jump\t// in\n    tag_236:\n        /* \"#utility.yul\":2718:2766   */\n      swap1\n      pop\n        /* \"#utility.yul\":2518:2772   */\n      swap3\n      pop\n      swap3\n      swap1\n      pop\n      jump\t// out\n        /* \"#utility.yul\":4908:5133   */\n    tag_172:\n        /* \"#utility.yul\":4975:4984   */\n      dup2\n      dup2\n      sub\n        /* \"#utility.yul\":4996:5007   */\n      dup2\n      dup2\n      gt\n        /* \"#utility.yul\":4993:5127   */\n      iszero\n      tag_90\n      jumpi\n        /* \"#utility.yul\":5049:5059   */\n      0x4e487b71\n        /* \"#utility.yul\":5044:5047   */\n      0xe0\n        /* \"#utility.yul\":5040:5060   */\n      shl\n        /* \"#utility.yul\":5037:5038   */\n      0x00\n        /* \"#utility.yul\":5030:5061   */\n      mstore\n        /* \"#utility.yul\":5084:5088   */\n      0x11\n        /* \"#utility.yul\":5081:5082   */\n      0x04\n        /* \"#utility.yul\":5074:5089   */\n      mstore\n        /* \"#utility.yul\":5112:5116   */\n      0x24\n        /* \"#utility.yul\":5109:5110   */\n      0x00\n        /* \"#utility.yul\":5102:5117   */\n      revert\n        /* \"#utility.yul\":5138:5265   */\n    tag_175:\n        /* \"#utility.yul\":5199:5209   */\n      0x4e487b71\n        /* \"#utility.yul\":5194:5197   */\n      0xe0\n        /* \"#utility.yul\":5190:5210   */\n      shl\n        /* \"#utility.yul\":5187:5188   */\n      0x00\n        /* \"#utility.yul\":5180:5211   */\n      mstore\n        /* \"#utility.yul\":5230:5234   */\n      0x32\n        /* \"#utility.yul\":5227:5228   */\n      0x04\n        /* \"#utility.yul\":5220:5235   */\n      mstore\n        /* \"#utility.yul\":5254:5258   */\n      0x24\n        /* \"#utility.yul\":5251:5252   */\n      0x00\n        /* \"#utility.yul\":5244:5259   */\n      revert\n        /* \"#utility.yul\":5270:5397   */\n    tag_182:\n        /* \"#utility.yul\":5331:5341   */\n      0x4e487b71\n        /* \"#utility.yul\":5326:5329   */\n      0xe0\n        /* \"#utility.yul\":5322:5342   */\n      shl\n        /* \"#utility.yul\":5319:5320   */\n      0x00\n        /* \"#utility.yul\":5312:5343   */\n      mstore\n        /* \"#utility.yul\":5362:5366   */\n      0x31\n        /* \"#utility.yul\":5359:5360   */\n      0x04\n        /* \"#utility.yul\":5352:5367   */\n      mstore\n        /* \"#utility.yul\":5386:5390   */\n      0x24\n        /* \"#utility.yul\":5383:5384   */\n      0x00\n        /* \"#utility.yul\":5376:5391   */\n      revert\n    stop\n    data_cea5b988323acc73cd81db0e6f2932cdc75f39072539d65cbfa79c56b2a64e51 6077685936c8169d09204a1d97db12e41713588c38e1d29a61867d3dcee98aff\n\n    auxdata: 0xa26469706673582212200ce86c251d0ebae85779b638f6911a6e7bf61ed0753deff622d1128a21ec1a3c64736f6c63430008190033\n}\n",
				"bytecode": {
					"linkReferences": {},
					"object": "608060405234801561000f575f80fd5b5061001a5f3361004b565b506100457f6077685936c8169d09204a1d97db12e41713588c38e1d29a61867d3dcee98aff3361004b565b506100f4565b5f828152602081815260408083206001600160a01b038516845290915281205460ff166100eb575f838152602081815260408083206001600160a01b03861684529091529020805460ff191660011790556100a33390565b6001600160a01b0316826001600160a01b0316847f2f8788117e7eff1d82e926ec794901d17c78024a50270940304540a733656f0d60405160405180910390a45060016100ee565b505f5b92915050565b610e1f806101015f395ff3fe608060405234801561000f575f80fd5b50600436106100fb575f3560e01c80635d102df711610093578063a217fddf11610063578063a217fddf14610252578063d3e90fa014610259578063d3ffe67a146102ad578063d547741f146102b5575f80fd5b80635d102df7146102065780637570e389146102195780637e72c7d71461022c57806391d148541461023f575f80fd5b806324a44efb116100ce57806324a44efb146101ac5780632f2ff15d146101cc57806336568abe146101df57806356d73568146101f2575f80fd5b806301ffc9a7146100ff5780630cf9c72e146101275780631e4966ab1461013c578063248a9ca31461017c575b5f80fd5b61011261010d366004610c42565b6102c8565b60405190151581526020015b60405180910390f35b61013a610135366004610c8b565b6102fe565b005b61016461014a366004610cdc565b60046020525f90815260409020546001600160a01b031681565b6040516001600160a01b03909116815260200161011e565b61019e61018a366004610cf5565b5f9081526020819052604090206001015490565b60405190815260200161011e565b6101bf6101ba366004610cdc565b61051b565b60405161011e9190610d0c565b61013a6101da366004610d58565b61058e565b61013a6101ed366004610d58565b6105b8565b61019e5f80516020610dca83398151915281565b61013a610214366004610cdc565b6105f0565b610164610227366004610cdc565b610659565b61013a61023a366004610cdc565b6106eb565b61011261024d366004610d58565b6107d4565b61019e5f81565b61026c610267366004610cdc565b6107fc565b60405161011e919081516001600160a01b03908116825260208084015182169083015260408084015190830152606092830151169181019190915260800190565b60015461019e565b61013a6102c3366004610d58565b6108a9565b5f6001600160e01b03198216637965db0b60e01b14806102f857506301ffc9a760e01b6001600160e01b03198316145b92915050565b5f80516020610dca833981519152610315816108cd565b6001600160a01b0385161580159061033557506001600160a01b03841615155b801561034957506001600160a01b03821615155b61038a5760405162461bcd60e51b815260206004820152600d60248201526c125b9d985b1a59081a5b9c1d5d609a1b60448201526064015b60405180910390fd5b6001600160a01b038581165f9081526002602052604090205416156103f15760405162461bcd60e51b815260206004820152601760248201527f506f6f6c20616c726561647920726567697374657265640000000000000000006044820152606401610381565b604080516080810182526001600160a01b03868116808352868216602080850182815242868801908152898616606088018181528e88165f81815260028088528c82209b518c54908c166001600160a01b0319918216178d5596516001808e018054928e16928a16929092179091559551908c0155915160039a8b01805491909a16908616179098558681529784528888208054808401825590895284892001805484168817905581548083019092557fb10e2d527612073b26eecdfd717e6a320cf44b4afac2b0732d9fcbe2b7fa0cf69091018054831687179055858752600483529587902080549091168617905594519384529390927f928b994ad535a478f217ab28f23fbbf04f79d765f407b8df7cc2df7174aef90b910160405180910390a45050505050565b6001600160a01b0381165f9081526003602090815260409182902080548351818402810184019094528084526060939283018282801561058257602002820191905f5260205f20905b81546001600160a01b03168152600190910190602001808311610564575b50505050509050919050565b5f828152602081905260409020600101546105a8816108cd565b6105b283836108d7565b50505050565b6001600160a01b03811633146105e15760405163334bd91960e11b815260040160405180910390fd5b6105eb8282610966565b505050565b6105fa5f336107d4565b61063f5760405162461bcd60e51b815260206004820152601660248201527521b0b63632b91034b9903737ba1030b71030b236b4b760511b6044820152606401610381565b6106565f80516020610dca8339815191528261058e565b50565b6001600160a01b038181165f908152600460205260408120549091166106cd5760405162461bcd60e51b815260206004820152602360248201527f506f6f6c206e6f742072656769737465726564206f7220686173206e6f2076616044820152621d5b1d60ea1b6064820152608401610381565b506001600160a01b039081165f908152600460205260409020541690565b5f80516020610dca833981519152610702816108cd565b6001600160a01b038281165f90815260026020526040902054166107395760405163739f418560e01b815260040160405180910390fd5b6001600160a01b038083165f9081526002602052604090205461075d9116836109cf565b61076682610aeb565b6001600160a01b0382165f81815260026020819052604080832080546001600160a01b03199081168255600182018054821690559281018490556003018054909216909155517f334d0b2111287dfddebe4b4c1c5af3ae644909d7fcd024377bf601e236ed5abb9190a25050565b5f918252602082815260408084206001600160a01b0393909316845291905290205460ff1690565b604080516080810182525f8082526020820181905291810182905260608101919091526001600160a01b038281165f90815260026020526040902054166108565760405163739f418560e01b815260040160405180910390fd5b506001600160a01b039081165f9081526002602081815260409283902083516080810185528154861681526001820154861692810192909252918201549281019290925260030154909116606082015290565b5f828152602081905260409020600101546108c3816108cd565b6105b28383610966565b6106568133610bab565b5f6108e283836107d4565b61095f575f838152602081815260408083206001600160a01b03861684529091529020805460ff191660011790556109173390565b6001600160a01b0316826001600160a01b0316847f2f8788117e7eff1d82e926ec794901d17c78024a50270940304540a733656f0d60405160405180910390a45060016102f8565b505f6102f8565b5f61097183836107d4565b1561095f575f838152602081815260408083206001600160a01b0386168085529252808320805460ff1916905551339286917ff6391f5c32d9c69d2a47ea670b442974b53935d1edc7fd64eb21e047a839171b9190a45060016102f8565b6001600160a01b0382165f9081526003602052604081206109f09083610be8565b6001600160a01b0384165f9081526003602052604081205491925090610a1890600190610d82565b6001600160a01b0385165f90815260036020526040902080549192509082908110610a4557610a45610da1565b5f9182526020808320909101546001600160a01b03878116845260039092526040909220805491909216919084908110610a8157610a81610da1565b5f91825260208083209190910180546001600160a01b0319166001600160a01b039485161790559186168152600390915260409020805480610ac557610ac5610db5565b5f8281526020902081015f1990810180546001600160a01b031916905501905550505050565b5f610af7600183610be8565b600180549192505f91610b0a9190610d82565b905060018181548110610b1f57610b1f610da1565b5f91825260209091200154600180546001600160a01b039092169184908110610b4a57610b4a610da1565b905f5260205f20015f6101000a8154816001600160a01b0302191690836001600160a01b031602179055506001805480610b8657610b86610db5565b5f8281526020902081015f1990810180546001600160a01b0319169055019055505050565b610bb582826107d4565b610be45760405163e2517d3f60e01b81526001600160a01b038216600482015260248101839052604401610381565b5050565b5f805b8354811015610c3857826001600160a01b0316848281548110610c1057610c10610da1565b5f918252602090912001546001600160a01b031603610c305790506102f8565b600101610beb565b505f199392505050565b5f60208284031215610c52575f80fd5b81356001600160e01b031981168114610c69575f80fd5b9392505050565b80356001600160a01b0381168114610c86575f80fd5b919050565b5f805f8060808587031215610c9e575f80fd5b610ca785610c70565b9350610cb560208601610c70565b9250610cc360408601610c70565b9150610cd160608601610c70565b905092959194509250565b5f60208284031215610cec575f80fd5b610c6982610c70565b5f60208284031215610d05575f80fd5b5035919050565b602080825282518282018190525f9190848201906040850190845b81811015610d4c5783516001600160a01b031683529284019291840191600101610d27565b50909695505050505050565b5f8060408385031215610d69575f80fd5b82359150610d7960208401610c70565b90509250929050565b818103818111156102f857634e487b7160e01b5f52601160045260245ffd5b634e487b7160e01b5f52603260045260245ffd5b634e487b7160e01b5f52603160045260245ffdfe6077685936c8169d09204a1d97db12e41713588c38e1d29a61867d3dcee98affa26469706673582212200ce86c251d0ebae85779b638f6911a6e7bf61ed0753deff622d1128a21ec1a3c64736f6c63430008190033",
					"opcodes": "PUSH1 0x80 PUSH1 0x40 MSTORE CALLVALUE DUP1 ISZERO PUSH2 0xF JUMPI PUSH0 DUP1 REVERT JUMPDEST POP PUSH2 0x1A PUSH0 CALLER PUSH2 0x4B JUMP JUMPDEST POP PUSH2 0x45 PUSH32 0x6077685936C8169D09204A1D97DB12E41713588C38E1D29A61867D3DCEE98AFF CALLER PUSH2 0x4B JUMP JUMPDEST POP PUSH2 0xF4 JUMP JUMPDEST PUSH0 DUP3 DUP2 MSTORE PUSH1 0x20 DUP2 DUP2 MSTORE PUSH1 0x40 DUP1 DUP4 KECCAK256 PUSH1 0x1 PUSH1 0x1 PUSH1 0xA0 SHL SUB DUP6 AND DUP5 MSTORE SWAP1 SWAP2 MSTORE DUP2 KECCAK256 SLOAD PUSH1 0xFF AND PUSH2 0xEB JUMPI PUSH0 DUP4 DUP2 MSTORE PUSH1 0x20 DUP2 DUP2 MSTORE PUSH1 0x40 DUP1 DUP4 KECCAK256 PUSH1 0x1 PUSH1 0x1 PUSH1 0xA0 SHL SUB DUP7 AND DUP5 MSTORE SWAP1 SWAP2 MSTORE SWAP1 KECCAK256 DUP1 SLOAD PUSH1 0xFF NOT AND PUSH1 0x1 OR SWAP1 SSTORE PUSH2 0xA3 CALLER SWAP1 JUMP JUMPDEST PUSH1 0x1 PUSH1 0x1 PUSH1 0xA0 SHL SUB AND DUP3 PUSH1 0x1 PUSH1 0x1 PUSH1 0xA0 SHL SUB AND DUP5 PUSH32 0x2F8788117E7EFF1D82E926EC794901D17C78024A50270940304540A733656F0D PUSH1 0x40 MLOAD PUSH1 0x40 MLOAD DUP1 SWAP2 SUB SWAP1 LOG4 POP PUSH1 0x1 PUSH2 0xEE JUMP JUMPDEST POP PUSH0 JUMPDEST SWAP3 SWAP2 POP POP JUMP JUMPDEST PUSH2 0xE1F DUP1 PUSH2 0x101 PUSH0 CODECOPY PUSH0 RETURN INVALID PUSH1 0x80 PUSH1 0x40 MSTORE CALLVALUE DUP1 ISZERO PUSH2 0xF JUMPI PUSH0 DUP1 REVERT JUMPDEST POP PUSH1 0x4 CALLDATASIZE LT PUSH2 0xFB JUMPI PUSH0 CALLDATALOAD PUSH1 0xE0 SHR DUP1 PUSH4 0x5D102DF7 GT PUSH2 0x93 JUMPI DUP1 PUSH4 0xA217FDDF GT PUSH2 0x63 JUMPI DUP1 PUSH4 0xA217FDDF EQ PUSH2 0x252 JUMPI DUP1 PUSH4 0xD3E90FA0 EQ PUSH2 0x259 JUMPI DUP1 PUSH4 0xD3FFE67A EQ PUSH2 0x2AD JUMPI DUP1 PUSH4 0xD547741F EQ PUSH2 0x2B5 JUMPI PUSH0 DUP1 REVERT JUMPDEST DUP1 PUSH4 0x5D102DF7 EQ PUSH2 0x206 JUMPI DUP1 PUSH4 0x7570E389 EQ PUSH2 0x219 JUMPI DUP1 PUSH4 0x7E72C7D7 EQ PUSH2 0x22C JUMPI DUP1 PUSH4 0x91D14854 EQ PUSH2 0x23F JUMPI PUSH0 DUP1 REVERT JUMPDEST DUP1 PUSH4 0x24A44EFB GT PUSH2 0xCE JUMPI DUP1 PUSH4 0x24A44EFB EQ PUSH2 0x1AC JUMPI DUP1 PUSH4 0x2F2FF15D EQ PUSH2 0x1CC JUMPI DUP1 PUSH4 0x36568ABE EQ PUSH2 0x1DF JUMPI DUP1 PUSH4 0x56D73568 EQ PUSH2 0x1F2 JUMPI PUSH0 DUP1 REVERT JUMPDEST DUP1 PUSH4 0x1FFC9A7 EQ PUSH2 0xFF JUMPI DUP1 PUSH4 0xCF9C72E EQ PUSH2 0x127 JUMPI DUP1 PUSH4 0x1E4966AB EQ PUSH2 0x13C JUMPI DUP1 PUSH4 0x248A9CA3 EQ PUSH2 0x17C JUMPI JUMPDEST PUSH0 DUP1 REVERT JUMPDEST PUSH2 0x112 PUSH2 0x10D CALLDATASIZE PUSH1 0x4 PUSH2 0xC42 JUMP JUMPDEST PUSH2 0x2C8 JUMP JUMPDEST PUSH1 0x40 MLOAD SWAP1 ISZERO ISZERO DUP2 MSTORE PUSH1 0x20 ADD JUMPDEST PUSH1 0x40 MLOAD DUP1 SWAP2 SUB SWAP1 RETURN JUMPDEST PUSH2 0x13A PUSH2 0x135 CALLDATASIZE PUSH1 0x4 PUSH2 0xC8B JUMP JUMPDEST PUSH2 0x2FE JUMP JUMPDEST STOP JUMPDEST PUSH2 0x164 PUSH2 0x14A CALLDATASIZE PUSH1 0x4 PUSH2 0xCDC JUMP JUMPDEST PUSH1 0x4 PUSH1 0x20 MSTORE PUSH0 SWAP1 DUP2 MSTORE PUSH1 0x40 SWAP1 KECCAK256 SLOAD PUSH1 0x1 PUSH1 0x1 PUSH1 0xA0 SHL SUB AND DUP2 JUMP JUMPDEST PUSH1 0x40 MLOAD PUSH1 0x1 PUSH1 0x1 PUSH1 0xA0 SHL SUB SWAP1 SWAP2 AND DUP2 MSTORE PUSH1 0x20 ADD PUSH2 0x11E JUMP JUMPDEST PUSH2 0x19E PUSH2 0x18A CALLDATASIZE PUSH1 0x4 PUSH2 0xCF5 JUMP JUMPDEST PUSH0 SWAP1 DUP2 MSTORE PUSH1 0x20 DUP2 SWAP1 MSTORE PUSH1 0x40 SWAP1 KECCAK256 PUSH1 0x1 ADD SLOAD SWAP1 JUMP JUMPDEST PUSH1 0x40 MLOAD SWAP1 DUP2 MSTORE PUSH1 0x20 ADD PUSH2 0x11E JUMP JUMPDEST PUSH2 0x1BF PUSH2 0x1BA CALLDATASIZE PUSH1 0x4 PUSH2 0xCDC JUMP JUMPDEST PUSH2 0x51B JUMP JUMPDEST PUSH1 0x40 MLOAD PUSH2 0x11E SWAP2 SWAP1 PUSH2 0xD0C JUMP JUMPDEST PUSH2 0x13A PUSH2 0x1DA CALLDATASIZE PUSH1 0x4 PUSH2 0xD58 JUMP JUMPDEST PUSH2 0x58E JUMP JUMPDEST PUSH2 0x13A PUSH2 0x1ED CALLDATASIZE PUSH1 0x4 PUSH2 0xD58 JUMP JUMPDEST PUSH2 0x5B8 JUMP JUMPDEST PUSH2 0x19E PUSH0 DUP1 MLOAD PUSH1 0x20 PUSH2 0xDCA DUP4 CODECOPY DUP2 MLOAD SWAP2 MSTORE DUP2 JUMP JUMPDEST PUSH2 0x13A PUSH2 0x214 CALLDATASIZE PUSH1 0x4 PUSH2 0xCDC JUMP JUMPDEST PUSH2 0x5F0 JUMP JUMPDEST PUSH2 0x164 PUSH2 0x227 CALLDATASIZE PUSH1 0x4 PUSH2 0xCDC JUMP JUMPDEST PUSH2 0x659 JUMP JUMPDEST PUSH2 0x13A PUSH2 0x23A CALLDATASIZE PUSH1 0x4 PUSH2 0xCDC JUMP JUMPDEST PUSH2 0x6EB JUMP JUMPDEST PUSH2 0x112 PUSH2 0x24D CALLDATASIZE PUSH1 0x4 PUSH2 0xD58 JUMP JUMPDEST PUSH2 0x7D4 JUMP JUMPDEST PUSH2 0x19E PUSH0 DUP2 JUMP JUMPDEST PUSH2 0x26C PUSH2 0x267 CALLDATASIZE PUSH1 0x4 PUSH2 0xCDC JUMP JUMPDEST PUSH2 0x7FC JUMP JUMPDEST PUSH1 0x40 MLOAD PUSH2 0x11E SWAP2 SWAP1 DUP2 MLOAD PUSH1 0x1 PUSH1 0x1 PUSH1 0xA0 SHL SUB SWAP1 DUP2 AND DUP3 MSTORE PUSH1 0x20 DUP1 DUP5 ADD MLOAD DUP3 AND SWAP1 DUP4 ADD MSTORE PUSH1 0x40 DUP1 DUP5 ADD MLOAD SWAP1 DUP4 ADD MSTORE PUSH1 0x60 SWAP3 DUP4 ADD MLOAD AND SWAP2 DUP2 ADD SWAP2 SWAP1 SWAP2 MSTORE PUSH1 0x80 ADD SWAP1 JUMP JUMPDEST PUSH1 0x1 SLOAD PUSH2 0x19E JUMP JUMPDEST PUSH2 0x13A PUSH2 0x2C3 CALLDATASIZE PUSH1 0x4 PUSH2 0xD58 JUMP JUMPDEST PUSH2 0x8A9 JUMP JUMPDEST PUSH0 PUSH1 0x1 PUSH1 0x1 PUSH1 0xE0 SHL SUB NOT DUP3 AND PUSH4 0x7965DB0B PUSH1 0xE0 SHL EQ DUP1 PUSH2 0x2F8 JUMPI POP PUSH4 0x1FFC9A7 PUSH1 0xE0 SHL PUSH1 0x1 PUSH1 0x1 PUSH1 0xE0 SHL SUB NOT DUP4 AND EQ JUMPDEST SWAP3 SWAP2 POP POP JUMP JUMPDEST PUSH0 DUP1 MLOAD PUSH1 0x20 PUSH2 0xDCA DUP4 CODECOPY DUP2 MLOAD SWAP2 MSTORE PUSH2 0x315 DUP2 PUSH2 0x8CD JUMP JUMPDEST PUSH1 0x1 PUSH1 0x1 PUSH1 0xA0 SHL SUB DUP6 AND ISZERO DUP1 ISZERO SWAP1 PUSH2 0x335 JUMPI POP PUSH1 0x1 PUSH1 0x1 PUSH1 0xA0 SHL SUB DUP5 AND ISZERO ISZERO JUMPDEST DUP1 ISZERO PUSH2 0x349 JUMPI POP PUSH1 0x1 PUSH1 0x1 PUSH1 0xA0 SHL SUB DUP3 AND ISZERO ISZERO JUMPDEST PUSH2 0x38A JUMPI PUSH1 0x40 MLOAD PUSH3 0x461BCD PUSH1 0xE5 SHL DUP2 MSTORE PUSH1 0x20 PUSH1 0x4 DUP3 ADD MSTORE PUSH1 0xD PUSH1 0x24 DUP3 ADD MSTORE PUSH13 0x125B9D985B1A59081A5B9C1D5D PUSH1 0x9A SHL PUSH1 0x44 DUP3 ADD MSTORE PUSH1 0x64 ADD JUMPDEST PUSH1 0x40 MLOAD DUP1 SWAP2 SUB SWAP1 REVERT JUMPDEST PUSH1 0x1 PUSH1 0x1 PUSH1 0xA0 SHL SUB DUP6 DUP2 AND PUSH0 SWAP1 DUP2 MSTORE PUSH1 0x2 PUSH1 0x20 MSTORE PUSH1 0x40 SWAP1 KECCAK256 SLOAD AND ISZERO PUSH2 0x3F1 JUMPI PUSH1 0x40 MLOAD PUSH3 0x461BCD PUSH1 0xE5 SHL DUP2 MSTORE PUSH1 0x20 PUSH1 0x4 DUP3 ADD MSTORE PUSH1 0x17 PUSH1 0x24 DUP3 ADD MSTORE PUSH32 0x506F6F6C20616C72656164792072656769737465726564000000000000000000 PUSH1 0x44 DUP3 ADD MSTORE PUSH1 0x64 ADD PUSH2 0x381 JUMP JUMPDEST PUSH1 0x40 DUP1 MLOAD PUSH1 0x80 DUP2 ADD DUP3 MSTORE PUSH1 0x1 PUSH1 0x1 PUSH1 0xA0 SHL SUB DUP7 DUP2 AND DUP1 DUP4 MSTORE DUP7 DUP3 AND PUSH1 0x20 DUP1 DUP6 ADD DUP3 DUP2 MSTORE TIMESTAMP DUP7 DUP9 ADD SWAP1 DUP2 MSTORE DUP10 DUP7 AND PUSH1 0x60 DUP9 ADD DUP2 DUP2 MSTORE DUP15 DUP9 AND PUSH0 DUP2 DUP2 MSTORE PUSH1 0x2 DUP1 DUP9 MSTORE DUP13 DUP3 KECCAK256 SWAP12 MLOAD DUP13 SLOAD SWAP1 DUP13 AND PUSH1 0x1 PUSH1 0x1 PUSH1 0xA0 SHL SUB NOT SWAP2 DUP3 AND OR DUP14 SSTORE SWAP7 MLOAD PUSH1 0x1 DUP1 DUP15 ADD DUP1 SLOAD SWAP3 DUP15 AND SWAP3 DUP11 AND SWAP3 SWAP1 SWAP3 OR SWAP1 SWAP2 SSTORE SWAP6 MLOAD SWAP1 DUP13 ADD SSTORE SWAP2 MLOAD PUSH1 0x3 SWAP11 DUP12 ADD DUP1 SLOAD SWAP2 SWAP1 SWAP11 AND SWAP1 DUP7 AND OR SWAP1 SWAP9 SSTORE DUP7 DUP2 MSTORE SWAP8 DUP5 MSTORE DUP9 DUP9 KECCAK256 DUP1 SLOAD DUP1 DUP5 ADD DUP3 SSTORE SWAP1 DUP10 MSTORE DUP5 DUP10 KECCAK256 ADD DUP1 SLOAD DUP5 AND DUP9 OR SWAP1 SSTORE DUP2 SLOAD DUP1 DUP4 ADD SWAP1 SWAP3 SSTORE PUSH32 0xB10E2D527612073B26EECDFD717E6A320CF44B4AFAC2B0732D9FCBE2B7FA0CF6 SWAP1 SWAP2 ADD DUP1 SLOAD DUP4 AND DUP8 OR SWAP1 SSTORE DUP6 DUP8 MSTORE PUSH1 0x4 DUP4 MSTORE SWAP6 DUP8 SWAP1 KECCAK256 DUP1 SLOAD SWAP1 SWAP2 AND DUP7 OR SWAP1 SSTORE SWAP5 MLOAD SWAP4 DUP5 MSTORE SWAP4 SWAP1 SWAP3 PUSH32 0x928B994AD535A478F217AB28F23FBBF04F79D765F407B8DF7CC2DF7174AEF90B SWAP2 ADD PUSH1 0x40 MLOAD DUP1 SWAP2 SUB SWAP1 LOG4 POP POP POP POP POP JUMP JUMPDEST PUSH1 0x1 PUSH1 0x1 PUSH1 0xA0 SHL SUB DUP2 AND PUSH0 SWAP1 DUP2 MSTORE PUSH1 0x3 PUSH1 0x20 SWAP1 DUP2 MSTORE PUSH1 0x40 SWAP2 DUP3 SWAP1 KECCAK256 DUP1 SLOAD DUP4 MLOAD DUP2 DUP5 MUL DUP2 ADD DUP5 ADD SWAP1 SWAP5 MSTORE DUP1 DUP5 MSTORE PUSH1 0x60 SWAP4 SWAP3 DUP4 ADD DUP3 DUP3 DUP1 ISZERO PUSH2 0x582 JUMPI PUSH1 0x20 MUL DUP3 ADD SWAP2 SWAP1 PUSH0 MSTORE PUSH1 0x20 PUSH0 KECCAK256 SWAP1 JUMPDEST DUP2 SLOAD PUSH1 0x1 PUSH1 0x1 PUSH1 0xA0 SHL SUB AND DUP2 MSTORE PUSH1 0x1 SWAP1 SWAP2 ADD SWAP1 PUSH1 0x20 ADD DUP1 DUP4 GT PUSH2 0x564 JUMPI JUMPDEST POP POP POP POP POP SWAP1 POP SWAP2 SWAP1 POP JUMP JUMPDEST PUSH0 DUP3 DUP2 MSTORE PUSH1 0x20 DUP2 SWAP1 MSTORE PUSH1 0x40 SWAP1 KECCAK256 PUSH1 0x1 ADD SLOAD PUSH2 0x5A8 DUP2 PUSH2 0x8CD JUMP JUMPDEST PUSH2 0x5B2 DUP4 DUP4 PUSH2 0x8D7 JUMP JUMPDEST POP POP POP POP JUMP JUMPDEST PUSH1 0x1 PUSH1 0x1 PUSH1 0xA0 SHL SUB DUP2 AND CALLER EQ PUSH2 0x5E1 JUMPI PUSH1 0x40 MLOAD PUSH4 0x334BD919 PUSH1 0xE1 SHL DUP2 MSTORE PUSH1 0x4 ADD PUSH1 0x40 MLOAD DUP1 SWAP2 SUB SWAP1 REVERT JUMPDEST PUSH2 0x5EB DUP3 DUP3 PUSH2 0x966 JUMP JUMPDEST POP POP POP JUMP JUMPDEST PUSH2 0x5FA PUSH0 CALLER PUSH2 0x7D4 JUMP JUMPDEST PUSH2 0x63F JUMPI PUSH1 0x40 MLOAD PUSH3 0x461BCD PUSH1 0xE5 SHL DUP2 MSTORE PUSH1 0x20 PUSH1 0x4 DUP3 ADD MSTORE PUSH1 0x16 PUSH1 0x24 DUP3 ADD MSTORE PUSH22 0x21B0B63632B91034B9903737BA1030B71030B236B4B7 PUSH1 0x51 SHL PUSH1 0x44 DUP3 ADD MSTORE PUSH1 0x64 ADD PUSH2 0x381 JUMP JUMPDEST PUSH2 0x656 PUSH0 DUP1 MLOAD PUSH1 0x20 PUSH2 0xDCA DUP4 CODECOPY DUP2 MLOAD SWAP2 MSTORE DUP3 PUSH2 0x58E JUMP JUMPDEST POP JUMP JUMPDEST PUSH1 0x1 PUSH1 0x1 PUSH1 0xA0 SHL SUB DUP2 DUP2 AND PUSH0 SWAP1 DUP2 MSTORE PUSH1 0x4 PUSH1 0x20 MSTORE PUSH1 0x40 DUP2 KECCAK256 SLOAD SWAP1 SWAP2 AND PUSH2 0x6CD JUMPI PUSH1 0x40 MLOAD PUSH3 0x461BCD PUSH1 0xE5 SHL DUP2 MSTORE PUSH1 0x20 PUSH1 0x4 DUP3 ADD MSTORE PUSH1 0x23 PUSH1 0x24 DUP3 ADD MSTORE PUSH32 0x506F6F6C206E6F742072656769737465726564206F7220686173206E6F207661 PUSH1 0x44 DUP3 ADD MSTORE PUSH3 0x1D5B1D PUSH1 0xEA SHL PUSH1 0x64 DUP3 ADD MSTORE PUSH1 0x84 ADD PUSH2 0x381 JUMP JUMPDEST POP PUSH1 0x1 PUSH1 0x1 PUSH1 0xA0 SHL SUB SWAP1 DUP2 AND PUSH0 SWAP1 DUP2 MSTORE PUSH1 0x4 PUSH1 0x20 MSTORE PUSH1 0x40 SWAP1 KECCAK256 SLOAD AND SWAP1 JUMP JUMPDEST PUSH0 DUP1 MLOAD PUSH1 0x20 PUSH2 0xDCA DUP4 CODECOPY DUP2 MLOAD SWAP2 MSTORE PUSH2 0x702 DUP2 PUSH2 0x8CD JUMP JUMPDEST PUSH1 0x1 PUSH1 0x1 PUSH1 0xA0 SHL SUB DUP3 DUP2 AND PUSH0 SWAP1 DUP2 MSTORE PUSH1 0x2 PUSH1 0x20 MSTORE PUSH1 0x40 SWAP1 KECCAK256 SLOAD AND PUSH2 0x739 JUMPI PUSH1 0x40 MLOAD PUSH4 0x739F4185 PUSH1 0xE0 SHL DUP2 MSTORE PUSH1 0x4 ADD PUSH1 0x40 MLOAD DUP1 SWAP2 SUB SWAP1 REVERT JUMPDEST PUSH1 0x1 PUSH1 0x1 PUSH1 0xA0 SHL SUB DUP1 DUP4 AND PUSH0 SWAP1 DUP2 MSTORE PUSH1 0x2 PUSH1 0x20 MSTORE PUSH1 0x40 SWAP1 KECCAK256 SLOAD PUSH2 0x75D SWAP2 AND DUP4 PUSH2 0x9CF JUMP JUMPDEST PUSH2 0x766 DUP3 PUSH2 0xAEB JUMP JUMPDEST PUSH1 0x1 PUSH1 0x1 PUSH1 0xA0 SHL SUB DUP3 AND PUSH0 DUP2 DUP2 MSTORE PUSH1 0x2 PUSH1 0x20 DUP2 SWAP1 MSTORE PUSH1 0x40 DUP1 DUP4 KECCAK256 DUP1 SLOAD PUSH1 0x1 PUSH1 0x1 PUSH1 0xA0 SHL SUB NOT SWAP1 DUP2 AND DUP3 SSTORE PUSH1 0x1 DUP3 ADD DUP1 SLOAD DUP3 AND SWAP1 SSTORE SWAP3 DUP2 ADD DUP5 SWAP1 SSTORE PUSH1 0x3 ADD DUP1 SLOAD SWAP1 SWAP3 AND SWAP1 SWAP2 SSTORE MLOAD PUSH32 0x334D0B2111287DFDDEBE4B4C1C5AF3AE644909D7FCD024377BF601E236ED5ABB SWAP2 SWAP1 LOG2 POP POP JUMP JUMPDEST PUSH0 SWAP2 DUP3 MSTORE PUSH1 0x20 DUP3 DUP2 MSTORE PUSH1 0x40 DUP1 DUP5 KECCAK256 PUSH1 0x1 PUSH1 0x1 PUSH1 0xA0 SHL SUB SWAP4 SWAP1 SWAP4 AND DUP5 MSTORE SWAP2 SWAP1 MSTORE SWAP1 KECCAK256 SLOAD PUSH1 0xFF AND SWAP1 JUMP JUMPDEST PUSH1 0x40 DUP1 MLOAD PUSH1 0x80 DUP2 ADD DUP3 MSTORE PUSH0 DUP1 DUP3 MSTORE PUSH1 0x20 DUP3 ADD DUP2 SWAP1 MSTORE SWAP2 DUP2 ADD DUP3 SWAP1 MSTORE PUSH1 0x60 DUP2 ADD SWAP2 SWAP1 SWAP2 MSTORE PUSH1 0x1 PUSH1 0x1 PUSH1 0xA0 SHL SUB DUP3 DUP2 AND PUSH0 SWAP1 DUP2 MSTORE PUSH1 0x2 PUSH1 0x20 MSTORE PUSH1 0x40 SWAP1 KECCAK256 SLOAD AND PUSH2 0x856 JUMPI PUSH1 0x40 MLOAD PUSH4 0x739F4185 PUSH1 0xE0 SHL DUP2 MSTORE PUSH1 0x4 ADD PUSH1 0x40 MLOAD DUP1 SWAP2 SUB SWAP1 REVERT JUMPDEST POP PUSH1 0x1 PUSH1 0x1 PUSH1 0xA0 SHL SUB SWAP1 DUP2 AND PUSH0 SWAP1 DUP2 MSTORE PUSH1 0x2 PUSH1 0x20 DUP2 DUP2 MSTORE PUSH1 0x40 SWAP3 DUP4 SWAP1 KECCAK256 DUP4 MLOAD PUSH1 0x80 DUP2 ADD DUP6 MSTORE DUP2 SLOAD DUP7 AND DUP2 MSTORE PUSH1 0x1 DUP3 ADD SLOAD DUP7 AND SWAP3 DUP2 ADD SWAP3 SWAP1 SWAP3 MSTORE SWAP2 DUP3 ADD SLOAD SWAP3 DUP2 ADD SWAP3 SWAP1 SWAP3 MSTORE PUSH1 0x3 ADD SLOAD SWAP1 SWAP2 AND PUSH1 0x60 DUP3 ADD MSTORE SWAP1 JUMP JUMPDEST PUSH0 DUP3 DUP2 MSTORE PUSH1 0x20 DUP2 SWAP1 MSTORE PUSH1 0x40 SWAP1 KECCAK256 PUSH1 0x1 ADD SLOAD PUSH2 0x8C3 DUP2 PUSH2 0x8CD JUMP JUMPDEST PUSH2 0x5B2 DUP4 DUP4 PUSH2 0x966 JUMP JUMPDEST PUSH2 0x656 DUP2 CALLER PUSH2 0xBAB JUMP JUMPDEST PUSH0 PUSH2 0x8E2 DUP4 DUP4 PUSH2 0x7D4 JUMP JUMPDEST PUSH2 0x95F JUMPI PUSH0 DUP4 DUP2 MSTORE PUSH1 0x20 DUP2 DUP2 MSTORE PUSH1 0x40 DUP1 DUP4 KECCAK256 PUSH1 0x1 PUSH1 0x1 PUSH1 0xA0 SHL SUB DUP7 AND DUP5 MSTORE SWAP1 SWAP2 MSTORE SWAP1 KECCAK256 DUP1 SLOAD PUSH1 0xFF NOT AND PUSH1 0x1 OR SWAP1 SSTORE PUSH2 0x917 CALLER SWAP1 JUMP JUMPDEST PUSH1 0x1 PUSH1 0x1 PUSH1 0xA0 SHL SUB AND DUP3 PUSH1 0x1 PUSH1 0x1 PUSH1 0xA0 SHL SUB AND DUP5 PUSH32 0x2F8788117E7EFF1D82E926EC794901D17C78024A50270940304540A733656F0D PUSH1 0x40 MLOAD PUSH1 0x40 MLOAD DUP1 SWAP2 SUB SWAP1 LOG4 POP PUSH1 0x1 PUSH2 0x2F8 JUMP JUMPDEST POP PUSH0 PUSH2 0x2F8 JUMP JUMPDEST PUSH0 PUSH2 0x971 DUP4 DUP4 PUSH2 0x7D4 JUMP JUMPDEST ISZERO PUSH2 0x95F JUMPI PUSH0 DUP4 DUP2 MSTORE PUSH1 0x20 DUP2 DUP2 MSTORE PUSH1 0x40 DUP1 DUP4 KECCAK256 PUSH1 0x1 PUSH1 0x1 PUSH1 0xA0 SHL SUB DUP7 AND DUP1 DUP6 MSTORE SWAP3 MSTORE DUP1 DUP4 KECCAK256 DUP1 SLOAD PUSH1 0xFF NOT AND SWAP1 SSTORE MLOAD CALLER SWAP3 DUP7 SWAP2 PUSH32 0xF6391F5C32D9C69D2A47EA670B442974B53935D1EDC7FD64EB21E047A839171B SWAP2 SWAP1 LOG4 POP PUSH1 0x1 PUSH2 0x2F8 JUMP JUMPDEST PUSH1 0x1 PUSH1 0x1 PUSH1 0xA0 SHL SUB DUP3 AND PUSH0 SWAP1 DUP2 MSTORE PUSH1 0x3 PUSH1 0x20 MSTORE PUSH1 0x40 DUP2 KECCAK256 PUSH2 0x9F0 SWAP1 DUP4 PUSH2 0xBE8 JUMP JUMPDEST PUSH1 0x1 PUSH1 0x1 PUSH1 0xA0 SHL SUB DUP5 AND PUSH0 SWAP1 DUP2 MSTORE PUSH1 0x3 PUSH1 0x20 MSTORE PUSH1 0x40 DUP2 KECCAK256 SLOAD SWAP2 SWAP3 POP SWAP1 PUSH2 0xA18 SWAP1 PUSH1 0x1 SWAP1 PUSH2 0xD82 JUMP JUMPDEST PUSH1 0x1 PUSH1 0x1 PUSH1 0xA0 SHL SUB DUP6 AND PUSH0 SWAP1 DUP2 MSTORE PUSH1 0x3 PUSH1 0x20 MSTORE PUSH1 0x40 SWAP1 KECCAK256 DUP1 SLOAD SWAP2 SWAP3 POP SWAP1 DUP3 SWAP1 DUP2 LT PUSH2 0xA45 JUMPI PUSH2 0xA45 PUSH2 0xDA1 JUMP JUMPDEST PUSH0 SWAP2 DUP3 MSTORE PUSH1 0x20 DUP1 DUP4 KECCAK256 SWAP1 SWAP2 ADD SLOAD PUSH1 0x1 PUSH1 0x1 PUSH1 0xA0 SHL SUB DUP8 DUP2 AND DUP5 MSTORE PUSH1 0x3 SWAP1 SWAP3 MSTORE PUSH1 0x40 SWAP1 SWAP3 KECCAK256 DUP1 SLOAD SWAP2 SWAP1 SWAP3 AND SWAP2 SWAP1 DUP5 SWAP1 DUP2 LT PUSH2 0xA81 JUMPI PUSH2 0xA81 PUSH2 0xDA1 JUMP JUMPDEST PUSH0 SWAP2 DUP3 MSTORE PUSH1 0x20 DUP1 DUP4 KECCAK256 SWAP2 SWAP1 SWAP2 ADD DUP1 SLOAD PUSH1 0x1 PUSH1 0x1 PUSH1 0xA0 SHL SUB NOT AND PUSH1 0x1 PUSH1 0x1 PUSH1 0xA0 SHL SUB SWAP5 DUP6 AND OR SWAP1 SSTORE SWAP2 DUP7 AND DUP2 MSTORE PUSH1 0x3 SWAP1 SWAP2 MSTORE PUSH1 0x40 SWAP1 KECCAK256 DUP1 SLOAD DUP1 PUSH2 0xAC5 JUMPI PUSH2 0xAC5 PUSH2 0xDB5 JUMP JUMPDEST PUSH0 DUP3 DUP2 MSTORE PUSH1 0x20 SWAP1 KECCAK256 DUP2 ADD PUSH0 NOT SWAP1 DUP2 ADD DUP1 SLOAD PUSH1 0x1 PUSH1 0x1 PUSH1 0xA0 SHL SUB NOT AND SWAP1 SSTORE ADD SWAP1 SSTORE POP POP POP POP JUMP JUMPDEST PUSH0 PUSH2 0xAF7 PUSH1 0x1 DUP4 PUSH2 0xBE8 JUMP JUMPDEST PUSH1 0x1 DUP1 SLOAD SWAP2 SWAP3 POP PUSH0 SWAP2 PUSH2 0xB0A SWAP2 SWAP1 PUSH2 0xD82 JUMP JUMPDEST SWAP1 POP PUSH1 0x1 DUP2 DUP2 SLOAD DUP2 LT PUSH2 0xB1F JUMPI PUSH2 0xB1F PUSH2 0xDA1 JUMP JUMPDEST PUSH0 SWAP2 DUP3 MSTORE PUSH1 0x20 SWAP1 SWAP2 KECCAK256 ADD SLOAD PUSH1 0x1 DUP1 SLOAD PUSH1 0x1 PUSH1 0x1 PUSH1 0xA0 SHL SUB SWAP1 SWAP3 AND SWAP2 DUP5 SWAP1 DUP2 LT PUSH2 0xB4A JUMPI PUSH2 0xB4A PUSH2 0xDA1 JUMP JUMPDEST SWAP1 PUSH0 MSTORE PUSH1 0x20 PUSH0 KECCAK256 ADD PUSH0 PUSH2 0x100 EXP DUP2 SLOAD DUP2 PUSH1 0x1 PUSH1 0x1 PUSH1 0xA0 SHL SUB MUL NOT AND SWAP1 DUP4 PUSH1 0x1 PUSH1 0x1 PUSH1 0xA0 SHL SUB AND MUL OR SWAP1 SSTORE POP PUSH1 0x1 DUP1 SLOAD DUP1 PUSH2 0xB86 JUMPI PUSH2 0xB86 PUSH2 0xDB5 JUMP JUMPDEST PUSH0 DUP3 DUP2 MSTORE PUSH1 0x20 SWAP1 KECCAK256 DUP2 ADD PUSH0 NOT SWAP1 DUP2 ADD DUP1 SLOAD PUSH1 0x1 PUSH1 0x1 PUSH1 0xA0 SHL SUB NOT AND SWAP1 SSTORE ADD SWAP1 SSTORE POP POP POP JUMP JUMPDEST PUSH2 0xBB5 DUP3 DUP3 PUSH2 0x7D4 JUMP JUMPDEST PUSH2 0xBE4 JUMPI PUSH1 0x40 MLOAD PUSH4 0xE2517D3F PUSH1 0xE0 SHL DUP2 MSTORE PUSH1 0x1 PUSH1 0x1 PUSH1 0xA0 SHL SUB DUP3 AND PUSH1 0x4 DUP3 ADD MSTORE PUSH1 0x24 DUP2 ADD DUP4 SWAP1 MSTORE PUSH1 0x44 ADD PUSH2 0x381 JUMP JUMPDEST POP POP JUMP JUMPDEST PUSH0 DUP1 JUMPDEST DUP4 SLOAD DUP2 LT ISZERO PUSH2 0xC38 JUMPI DUP3 PUSH1 0x1 PUSH1 0x1 PUSH1 0xA0 SHL SUB AND DUP5 DUP3 DUP2 SLOAD DUP2 LT PUSH2 0xC10 JUMPI PUSH2 0xC10 PUSH2 0xDA1 JUMP JUMPDEST PUSH0 SWAP2 DUP3 MSTORE PUSH1 0x20 SWAP1 SWAP2 KECCAK256 ADD SLOAD PUSH1 0x1 PUSH1 0x1 PUSH1 0xA0 SHL SUB AND SUB PUSH2 0xC30 JUMPI SWAP1 POP PUSH2 0x2F8 JUMP JUMPDEST PUSH1 0x1 ADD PUSH2 0xBEB JUMP JUMPDEST POP PUSH0 NOT SWAP4 SWAP3 POP POP POP JUMP JUMPDEST PUSH0 PUSH1 0x20 DUP3 DUP5 SUB SLT ISZERO PUSH2 0xC52 JUMPI PUSH0 DUP1 REVERT JUMPDEST DUP2 CALLDATALOAD PUSH1 0x1 PUSH1 0x1 PUSH1 0xE0 SHL SUB NOT DUP2 AND DUP2 EQ PUSH2 0xC69 JUMPI PUSH0 DUP1 REVERT JUMPDEST SWAP4 SWAP3 POP POP POP JUMP JUMPDEST DUP1 CALLDATALOAD PUSH1 0x1 PUSH1 0x1 PUSH1 0xA0 SHL SUB DUP2 AND DUP2 EQ PUSH2 0xC86 JUMPI PUSH0 DUP1 REVERT JUMPDEST SWAP2 SWAP1 POP JUMP JUMPDEST PUSH0 DUP1 PUSH0 DUP1 PUSH1 0x80 DUP6 DUP8 SUB SLT ISZERO PUSH2 0xC9E JUMPI PUSH0 DUP1 REVERT JUMPDEST PUSH2 0xCA7 DUP6 PUSH2 0xC70 JUMP JUMPDEST SWAP4 POP PUSH2 0xCB5 PUSH1 0x20 DUP7 ADD PUSH2 0xC70 JUMP JUMPDEST SWAP3 POP PUSH2 0xCC3 PUSH1 0x40 DUP7 ADD PUSH2 0xC70 JUMP JUMPDEST SWAP2 POP PUSH2 0xCD1 PUSH1 0x60 DUP7 ADD PUSH2 0xC70 JUMP JUMPDEST SWAP1 POP SWAP3 SWAP6 SWAP2 SWAP5 POP SWAP3 POP JUMP JUMPDEST PUSH0 PUSH1 0x20 DUP3 DUP5 SUB SLT ISZERO PUSH2 0xCEC JUMPI PUSH0 DUP1 REVERT JUMPDEST PUSH2 0xC69 DUP3 PUSH2 0xC70 JUMP JUMPDEST PUSH0 PUSH1 0x20 DUP3 DUP5 SUB SLT ISZERO PUSH2 0xD05 JUMPI PUSH0 DUP1 REVERT JUMPDEST POP CALLDATALOAD SWAP2 SWAP1 POP JUMP JUMPDEST PUSH1 0x20 DUP1 DUP3 MSTORE DUP3 MLOAD DUP3 DUP3 ADD DUP2 SWAP1 MSTORE PUSH0 SWAP2 SWAP1 DUP5 DUP3 ADD SWAP1 PUSH1 0x40 DUP6 ADD SWAP1 DUP5 JUMPDEST DUP2 DUP2 LT ISZERO PUSH2 0xD4C JUMPI DUP4 MLOAD PUSH1 0x1 PUSH1 0x1 PUSH1 0xA0 SHL SUB AND DUP4 MSTORE SWAP3 DUP5 ADD SWAP3 SWAP2 DUP5 ADD SWAP2 PUSH1 0x1 ADD PUSH2 0xD27 JUMP JUMPDEST POP SWAP1 SWAP7 SWAP6 POP POP POP POP POP POP JUMP JUMPDEST PUSH0 DUP1 PUSH1 0x40 DUP4 DUP6 SUB SLT ISZERO PUSH2 0xD69 JUMPI PUSH0 DUP1 REVERT JUMPDEST DUP3 CALLDATALOAD SWAP2 POP PUSH2 0xD79 PUSH1 0x20 DUP5 ADD PUSH2 0xC70 JUMP JUMPDEST SWAP1 POP SWAP3 POP SWAP3 SWAP1 POP JUMP JUMPDEST DUP2 DUP2 SUB DUP2 DUP2 GT ISZERO PUSH2 0x2F8 JUMPI PUSH4 0x4E487B71 PUSH1 0xE0 SHL PUSH0 MSTORE PUSH1 0x11 PUSH1 0x4 MSTORE PUSH1 0x24 PUSH0 REVERT JUMPDEST PUSH4 0x4E487B71 PUSH1 0xE0 SHL PUSH0 MSTORE PUSH1 0x32 PUSH1 0x4 MSTORE PUSH1 0x24 PUSH0 REVERT JUMPDEST PUSH4 0x4E487B71 PUSH1 0xE0 SHL PUSH0 MSTORE PUSH1 0x31 PUSH1 0x4 MSTORE PUSH1 0x24 PUSH0 REVERT INVALID PUSH1 0x77 PUSH9 0x5936C8169D09204A1D SWAP8 0xDB SLT 0xE4 OR SGT PC DUP13 CODESIZE 0xE1 0xD2 SWAP11 PUSH2 0x867D RETURNDATASIZE 0xCE 0xE9 DUP11 SELFDESTRUCT LOG2 PUSH5 0x6970667358 0x22 SLT KECCAK256 0xC 0xE8 PUSH13 0x251D0EBAE85779B638F6911A6E PUSH28 0xF61ED0753DEFF622D1128A21EC1A3C64736F6C634300081900330000 "
				},
				"gasEstimates": {
					"creation": {
						"codeDepositCost": "723000",
						"executionCost": "infinite",
						"totalCost": "infinite"
					},
					"external": {
						"DEFAULT_ADMIN_ROLE()": "215",
						"POOL_MANAGER_ROLE()": "infinite",
						"deregisterPool(address)": "infinite",
						"getPoolDetails(address)": "11508",
						"getPoolsByLender(address)": "infinite",
						"getRoleAdmin(bytes32)": "2534",
						"getTotalPools()": "2357",
						"getVaultForPool(address)": "4838",
						"grantFactoryAccess(address)": "infinite",
						"grantRole(bytes32,address)": "infinite",
						"hasRole(bytes32,address)": "2737",
						"poolVaults(address)": "2623",
						"registerPool(address,address,address,address)": "infinite",
						"renounceRole(bytes32,address)": "29085",
						"revokeRole(bytes32,address)": "infinite",
						"supportsInterface(bytes4)": "447"
					},
					"internal": {
						"_removePoolFromLenderArray(address,address)": "infinite",
						"_removePoolFromMainArray(address)": "infinite",
						"findIndexInArray(address[] storage pointer,address)": "infinite"
					}
				},
				"methodIdentifiers": {
					"DEFAULT_ADMIN_ROLE()": "a217fddf",
					"POOL_MANAGER_ROLE()": "56d73568",
					"deregisterPool(address)": "7e72c7d7",
					"getPoolDetails(address)": "d3e90fa0",
					"getPoolsByLender(address)": "24a44efb",
					"getRoleAdmin(bytes32)": "248a9ca3",
					"getTotalPools()": "d3ffe67a",
					"getVaultForPool(address)": "7570e389",
					"grantFactoryAccess(address)": "5d102df7",
					"grantRole(bytes32,address)": "2f2ff15d",
					"hasRole(bytes32,address)": "91d14854",
					"poolVaults(address)": "1e4966ab",
					"registerPool(address,address,address,address)": "0cf9c72e",
					"renounceRole(bytes32,address)": "36568abe",
					"revokeRole(bytes32,address)": "d547741f",
					"supportsInterface(bytes4)": "01ffc9a7"
				}
			},
			"storageLayout": {
				"storage": [
					{
						"astId": 26,
						"contract": "contracts/protocol/PoolOrganizer.sol:PoolOrganizer",
						"label": "_roles",
						"offset": 0,
						"slot": "0",
						"type": "t_mapping(t_bytes32,t_struct(RoleData)21_storage)"
					},
					{
						"astId": 529,
						"contract": "contracts/protocol/PoolOrganizer.sol:PoolOrganizer",
						"label": "pools",
						"offset": 0,
						"slot": "1",
						"type": "t_array(t_address)dyn_storage"
					},
					{
						"astId": 534,
						"contract": "contracts/protocol/PoolOrganizer.sol:PoolOrganizer",
						"label": "poolDetails",
						"offset": 0,
						"slot": "2",
						"type": "t_mapping(t_address,t_struct(PoolDetails)455_storage)"
					},
					{
						"astId": 539,
						"contract": "contracts/protocol/PoolOrganizer.sol:PoolOrganizer",
						"label": "lenderPools",
						"offset": 0,
						"slot": "3",
						"type": "t_mapping(t_address,t_array(t_address)dyn_storage)"
					},
					{
						"astId": 543,
						"contract": "contracts/protocol/PoolOrganizer.sol:PoolOrganizer",
						"label": "poolVaults",
						"offset": 0,
						"slot": "4",
						"type": "t_mapping(t_address,t_address)"
					}
				],
				"types": {
					"t_address": {
						"encoding": "inplace",
						"label": "address",
						"numberOfBytes": "20"
					},
					"t_array(t_address)dyn_storage": {
						"base": "t_address",
						"encoding": "dynamic_array",
						"label": "address[]",
						"numberOfBytes": "32"
					},
					"t_bool": {
						"encoding": "inplace",
						"label": "bool",
						"numberOfBytes": "1"
					},
					"t_bytes32": {
						"encoding": "inplace",
						"label": "bytes32",
						"numberOfBytes": "32"
					},
					"t_mapping(t_address,t_address)": {
						"encoding": "mapping",
						"key": "t_address",
						"label": "mapping(address => address)",
						"numberOfBytes": "32",
						"value": "t_address"
					},
					"t_mapping(t_address,t_array(t_address)dyn_storage)": {
						"encoding": "mapping",
						"key": "t_address",
						"label": "mapping(address => address[])",
						"numberOfBytes": "32",
						"value": "t_array(t_address)dyn_storage"
					},
					"t_mapping(t_address,t_bool)": {
						"encoding": "mapping",
						"key": "t_address",
						"label": "mapping(address => bool)",
						"numberOfBytes": "32",
						"value": "t_bool"
					},
					"t_mapping(t_address,t_struct(PoolDetails)455_storage)": {
						"encoding": "mapping",
						"key": "t_address",
						"label": "mapping(address => struct IPoolOrganizer.PoolDetails)",
						"numberOfBytes": "32",
						"value": "t_struct(PoolDetails)455_storage"
					},
					"t_mapping(t_bytes32,t_struct(RoleData)21_storage)": {
						"encoding": "mapping",
						"key": "t_bytes32",
						"label": "mapping(bytes32 => struct AccessControl.RoleData)",
						"numberOfBytes": "32",
						"value": "t_struct(RoleData)21_storage"
					},
					"t_struct(PoolDetails)455_storage": {
						"encoding": "inplace",
						"label": "struct IPoolOrganizer.PoolDetails",
						"members": [
							{
								"astId": 448,
								"contract": "contracts/protocol/PoolOrganizer.sol:PoolOrganizer",
								"label": "lender",
								"offset": 0,
								"slot": "0",
								"type": "t_address"
							},
							{
								"astId": 450,
								"contract": "contracts/protocol/PoolOrganizer.sol:PoolOrganizer",
								"label": "borrower",
								"offset": 0,
								"slot": "1",
								"type": "t_address"
							},
							{
								"astId": 452,
								"contract": "contracts/protocol/PoolOrganizer.sol:PoolOrganizer",
								"label": "creationTime",
								"offset": 0,
								"slot": "2",
								"type": "t_uint256"
							},
							{
								"astId": 454,
								"contract": "contracts/protocol/PoolOrganizer.sol:PoolOrganizer",
								"label": "vault",
								"offset": 0,
								"slot": "3",
								"type": "t_address"
							}
						],
						"numberOfBytes": "128"
					},
					"t_struct(RoleData)21_storage": {
						"encoding": "inplace",
						"label": "struct AccessControl.RoleData",
						"members": [
							{
								"astId": 18,
								"contract": "contracts/protocol/PoolOrganizer.sol:PoolOrganizer",
								"label": "hasRole",
								"offset": 0,
								"slot": "0",
								"type": "t_mapping(t_address,t_bool)"
							},
							{
								"astId": 20,
								"contract": "contracts/protocol/PoolOrganizer.sol:PoolOrganizer",
								"label": "adminRole",
								"offset": 0,
								"slot": "1",
								"type": "t_bytes32"
							}
						],
						"numberOfBytes": "64"
					},
					"t_uint256": {
						"encoding": "inplace",
						"label": "uint256",
						"numberOfBytes": "32"
					}
				}
			},
			"userdoc": {
				"kind": "user",
				"methods": {},
				"version": 1
			}
		}
	}
}