{
	"contracts/contracts/protocol/TuliaFlashPool.sol": {
		"TuliaFlashPool": {
			"abi": [
				{
					"inputs": [
						{
							"internalType": "contract IERC20",
							"name": "_asset",
							"type": "address"
						},
						{
							"internalType": "contract IPermit2",
							"name": "_permit2",
							"type": "address"
						},
						{
							"internalType": "contract IFeeManager",
							"name": "_feeManager",
							"type": "address"
						},
						{
							"internalType": "uint256",
							"name": "_flashLoanFeeRate",
							"type": "uint256"
						}
					],
					"stateMutability": "nonpayable",
					"type": "constructor"
				},
				{
					"inputs": [
						{
							"internalType": "address",
							"name": "target",
							"type": "address"
						}
					],
					"name": "AddressEmptyCode",
					"type": "error"
				},
				{
					"inputs": [
						{
							"internalType": "address",
							"name": "account",
							"type": "address"
						}
					],
					"name": "AddressInsufficientBalance",
					"type": "error"
				},
				{
					"inputs": [],
					"name": "FailedInnerCall",
					"type": "error"
				},
				{
					"inputs": [
						{
							"internalType": "address",
							"name": "token",
							"type": "address"
						}
					],
					"name": "SafeERC20FailedOperation",
					"type": "error"
				},
				{
					"inputs": [],
					"name": "asset",
					"outputs": [
						{
							"internalType": "contract IERC20",
							"name": "",
							"type": "address"
						}
					],
					"stateMutability": "view",
					"type": "function"
				},
				{
					"inputs": [],
					"name": "feeManager",
					"outputs": [
						{
							"internalType": "contract IFeeManager",
							"name": "",
							"type": "address"
						}
					],
					"stateMutability": "view",
					"type": "function"
				},
				{
					"inputs": [
						{
							"internalType": "address",
							"name": "token",
							"type": "address"
						},
						{
							"internalType": "uint256",
							"name": "amount",
							"type": "uint256"
						}
					],
					"name": "flashFee",
					"outputs": [
						{
							"internalType": "uint256",
							"name": "",
							"type": "uint256"
						}
					],
					"stateMutability": "view",
					"type": "function"
				},
				{
					"inputs": [
						{
							"internalType": "contract IERC3156FlashBorrower",
							"name": "receiver",
							"type": "address"
						},
						{
							"internalType": "address",
							"name": "token",
							"type": "address"
						},
						{
							"internalType": "uint256",
							"name": "amount",
							"type": "uint256"
						},
						{
							"internalType": "bytes",
							"name": "data",
							"type": "bytes"
						}
					],
					"name": "flashLoan",
					"outputs": [
						{
							"internalType": "bool",
							"name": "",
							"type": "bool"
						}
					],
					"stateMutability": "nonpayable",
					"type": "function"
				},
				{
					"inputs": [],
					"name": "flashLoanFeeRate",
					"outputs": [
						{
							"internalType": "uint256",
							"name": "",
							"type": "uint256"
						}
					],
					"stateMutability": "view",
					"type": "function"
				},
				{
					"inputs": [
						{
							"internalType": "address",
							"name": "token",
							"type": "address"
						}
					],
					"name": "maxFlashLoan",
					"outputs": [
						{
							"internalType": "uint256",
							"name": "",
							"type": "uint256"
						}
					],
					"stateMutability": "view",
					"type": "function"
				},
				{
					"inputs": [],
					"name": "permit2",
					"outputs": [
						{
							"internalType": "contract IPermit2",
							"name": "",
							"type": "address"
						}
					],
					"stateMutability": "view",
					"type": "function"
				},
				{
					"inputs": [],
					"name": "state",
					"outputs": [
						{
							"internalType": "enum TuliaFlashPool.PoolState",
							"name": "",
							"type": "uint8"
						}
					],
					"stateMutability": "view",
					"type": "function"
				}
			],
			"devdoc": {
				"details": "Implements flash loan functionalities with integrated fee management. This contract allows issuing flash loans backed by ERC20 tokens.",
				"errors": {
					"AddressEmptyCode(address)": [
						{
							"details": "There's no code at `target` (it is not a contract)."
						}
					],
					"AddressInsufficientBalance(address)": [
						{
							"details": "The ETH balance of the account is not enough to perform the operation."
						}
					],
					"FailedInnerCall()": [
						{
							"details": "A call to an address target failed. The target may have reverted."
						}
					],
					"SafeERC20FailedOperation(address)": [
						{
							"details": "An operation with an ERC20 token failed."
						}
					]
				},
				"kind": "dev",
				"methods": {
					"constructor": {
						"params": {
							"_asset": "The ERC20 token asset used for flash loans",
							"_feeManager": "The contract managing the fee rates for the flash loans",
							"_flashLoanFeeRate": "The initial fee rate for flash loans issued by this pool",
							"_permit2": "The Permit2 contract utilized for permissioned token transfers"
						}
					},
					"flashFee(address,uint256)": {
						"params": {
							"amount": "The amount of the loan",
							"token": "The ERC20 token for which the fee is calculated"
						},
						"returns": {
							"_0": "The calculated fee amount"
						}
					},
					"flashLoan(address,address,uint256,bytes)": {
						"params": {
							"amount": "The amount of tokens to borrow",
							"data": "Arbitrary data passed to the borrower's `onFlashLoan` method",
							"receiver": "The borrower contract that must implement the IERC3156FlashBorrower interface",
							"token": "The ERC20 token to be borrowed"
						},
						"returns": {
							"_0": "true if the flash loan is paid back successfully within the same transaction"
						}
					},
					"maxFlashLoan(address)": {
						"params": {
							"token": "The ERC20 token address for which the max loan amount is queried"
						},
						"returns": {
							"_0": "The maximum amount available for a flash loan"
						}
					}
				},
				"title": "TuliaFlashPool",
				"version": 1
			},
			"evm": {
				"assembly": "    /* \"contracts/contracts/protocol/TuliaFlashPool.sol\":651:5102  contract TuliaFlashPool is IERC3156FlashLender, ReentrancyGuard {... */\n  0x80\n  jumpi(tag_11, callvalue)\n  0x1f\n  bytecodeSize\n  codesize\n  dup2\n  swap1\n  sub\n  swap2\n  dup3\n  add\n  not(0x1f)\n  and\n  dup4\n  add\n  swap2\n  sub(shl(0x40, 0x01), 0x01)\n  dup4\n  gt\n  dup5\n  dup5\n  lt\n  or\n  tag_3\n  jumpi\n  dup1\n  dup5\n  swap3\n  0x80\n  swap5\n  0x40\n  mstore\n  dup4\n  codecopy\n  dup2\n  add\n  sub\n  slt\n  tag_11\n  jumpi\n  dup1\n  mload\n  sub(shl(0xa0, 0x01), 0x01)\n  swap1\n  dup2\n  dup2\n  and\n  swap1\n  dup2\n  swap1\n  sub\n  tag_11\n  jumpi\n  0x20\n  dup4\n  add\n  mload\n  swap3\n  dup3\n  dup5\n  and\n  dup1\n  swap5\n  sub\n  tag_11\n  jumpi\n  0x40\n  dup2\n  add\n  mload\n  swap3\n  dup4\n  and\n  dup1\n  swap4\n  sub\n  tag_11\n  jumpi\n  0x60\n  add\n  mload\n  swap3\n  sstore(0x00, 0x01)\n  0x01\n  dup1\n  0xa0\n  shl\n  sub\n  not\n  swap2\n  dup3\n  sload(0x01)\n  and\n  or\n  0x01\n  sstore\n  dup2\n    /* \"contracts/contracts/protocol/TuliaFlashPool.sol\":1868:1886  permit2 = _permit2 */\n  0x02\n    /* \"contracts/contracts/protocol/TuliaFlashPool.sol\":651:5102  contract TuliaFlashPool is IERC3156FlashLender, ReentrancyGuard {... */\n  sload\n  and\n  or\n    /* \"contracts/contracts/protocol/TuliaFlashPool.sol\":1868:1886  permit2 = _permit2 */\n  0x02\n    /* \"contracts/contracts/protocol/TuliaFlashPool.sol\":651:5102  contract TuliaFlashPool is IERC3156FlashLender, ReentrancyGuard {... */\n  sstore\n    /* \"contracts/contracts/protocol/TuliaFlashPool.sol\":1897:1921  feeManager = _feeManager */\n  0x03\n    /* \"contracts/contracts/protocol/TuliaFlashPool.sol\":651:5102  contract TuliaFlashPool is IERC3156FlashLender, ReentrancyGuard {... */\n  sload\n  and\n  or\n    /* \"contracts/contracts/protocol/TuliaFlashPool.sol\":1897:1921  feeManager = _feeManager */\n  0x03\n    /* \"contracts/contracts/protocol/TuliaFlashPool.sol\":651:5102  contract TuliaFlashPool is IERC3156FlashLender, ReentrancyGuard {... */\n  sstore\n    /* \"contracts/contracts/protocol/TuliaFlashPool.sol\":1932:1968  flashLoanFeeRate = _flashLoanFeeRate */\n  0x04\n    /* \"contracts/contracts/protocol/TuliaFlashPool.sol\":651:5102  contract TuliaFlashPool is IERC3156FlashLender, ReentrancyGuard {... */\n  sstore\n  not(0xff)\n    /* \"contracts/contracts/protocol/TuliaFlashPool.sol\":1979:2001  state = PoolState.IDLE */\n  0x05\n    /* \"contracts/contracts/protocol/TuliaFlashPool.sol\":651:5102  contract TuliaFlashPool is IERC3156FlashLender, ReentrancyGuard {... */\n  sload\n  and\n    /* \"contracts/contracts/protocol/TuliaFlashPool.sol\":1979:2001  state = PoolState.IDLE */\n  0x05\n    /* \"contracts/contracts/protocol/TuliaFlashPool.sol\":651:5102  contract TuliaFlashPool is IERC3156FlashLender, ReentrancyGuard {... */\n  sstore\n  mload(0x40)\n  dataSize(sub_0)\n  swap1\n  dup2\n  dataOffset(sub_0)\n  dup3\n  codecopy\n  return\ntag_11:\n  0x00\n  dup1\n  revert\ntag_3:\n  mstore(0x00, shl(0xe0, 0x4e487b71))\n  mstore(0x04, 0x41)\n  revert(0x00, 0x24)\nstop\n\nsub_0: assembly {\n        /* \"contracts/contracts/protocol/TuliaFlashPool.sol\":651:5102  contract TuliaFlashPool is IERC3156FlashLender, ReentrancyGuard {... */\n      0x80\n      dup1\n      0x40\n      mstore\n      jumpi(tag_9, iszero(lt(calldatasize, 0x04)))\n      0x00\n      dup1\n      revert\n    tag_9:\n      shr(0xe0, calldataload(0x00))\n      swap1\n      dup2\n      0x12261ee7\n      eq\n      tag_11\n      jumpi\n      pop\n      dup1\n      0x38d52e0f\n      eq\n      tag_13\n      jumpi\n      dup1\n      0x5cffe9de\n      eq\n      tag_15\n      jumpi\n      dup1\n      0x613255ab\n      eq\n      tag_17\n      jumpi\n      dup1\n      0x8c9f305f\n      eq\n      tag_19\n      jumpi\n      dup1\n      0xc19d93fb\n      eq\n      tag_21\n      jumpi\n      dup1\n      0xd0fb0203\n      eq\n      tag_23\n      jumpi\n      0xd9d98ce4\n      eq\n      tag_25\n      jumpi\n      0x00\n      dup1\n      revert\n    tag_25:\n      jumpi(tag_29, callvalue)\n      jumpi(tag_29, slt(add(not(0x03), calldatasize), 0x40))\n      0x20\n      tag_31\n      tag_32\n      tag_1\n      jump\t// in\n    tag_32:\n      calldataload(0x24)\n      swap1\n      tag_6\n      jump\t// in\n    tag_31:\n      mload(0x40)\n      swap1\n      dup2\n      mstore\n      return\n    tag_29:\n      0x00\n      dup1\n      revert\n    tag_23:\n      jumpi(tag_29, callvalue)\n      jumpi(tag_29, slt(add(not(0x03), calldatasize), 0x00))\n      sload(0x03)\n      mload(0x40)\n      sub(shl(0xa0, 0x01), 0x01)\n      swap1\n      swap2\n      and\n      dup2\n      mstore\n      0x20\n      swap1\n      return\n    tag_21:\n      jumpi(tag_29, callvalue)\n      jumpi(tag_29, slt(add(not(0x03), calldatasize), 0x00))\n      0xff\n        /* \"contracts/contracts/protocol/TuliaFlashPool.sol\":1269:1291  PoolState public state */\n      0x05\n        /* \"contracts/contracts/protocol/TuliaFlashPool.sol\":651:5102  contract TuliaFlashPool is IERC3156FlashLender, ReentrancyGuard {... */\n      sload\n      and\n      mload(0x40)\n      0x03\n      dup3\n      lt\n      iszero\n      tag_41\n      jumpi\n      0x20\n      swap2\n      dup2\n      mstore\n      return\n    tag_41:\n      mstore(0x00, shl(0xe0, 0x4e487b71))\n      mstore(0x04, 0x21)\n      revert(0x00, 0x24)\n    tag_19:\n      jumpi(tag_29, callvalue)\n      jumpi(tag_29, slt(add(not(0x03), calldatasize), 0x00))\n      0x20\n      sload(0x04)\n      mload(0x40)\n      swap1\n      dup2\n      mstore\n      return\n    tag_17:\n      jumpi(tag_29, callvalue)\n      0x20\n      dup1\n      add(calldatasize, not(0x03))\n      slt\n      tag_29\n      jumpi\n      tag_51\n      tag_1\n      jump\t// in\n    tag_51:\n      sload(0x01)\n      sub(shl(0xa0, 0x01), 0x01)\n      swap1\n      dup2\n      and\n      swap2\n      dup4\n      swap2\n      and\n        /* \"contracts/contracts/protocol/TuliaFlashPool.sol\":2327:2350  token == address(asset) */\n      dup3\n      sub\n      tag_52\n      jumpi\n        /* \"contracts/contracts/protocol/TuliaFlashPool.sol\":651:5102  contract TuliaFlashPool is IERC3156FlashLender, ReentrancyGuard {... */\n      mload(0x40)\n      shl(0xe0, 0x70a08231)\n        /* \"contracts/contracts/protocol/TuliaFlashPool.sol\":2353:2383  asset.balanceOf(address(this)) */\n      dup2\n      mstore\n        /* \"contracts/contracts/protocol/TuliaFlashPool.sol\":2377:2381  this */\n      address\n        /* \"contracts/contracts/protocol/TuliaFlashPool.sol\":651:5102  contract TuliaFlashPool is IERC3156FlashLender, ReentrancyGuard {... */\n      0x04\n        /* \"contracts/contracts/protocol/TuliaFlashPool.sol\":2353:2383  asset.balanceOf(address(this)) */\n      dup3\n      add\n        /* \"contracts/contracts/protocol/TuliaFlashPool.sol\":651:5102  contract TuliaFlashPool is IERC3156FlashLender, ReentrancyGuard {... */\n      mstore\n      swap2\n      dup3\n      swap1\n      0x24\n      swap1\n      dup3\n      swap1\n        /* \"contracts/contracts/protocol/TuliaFlashPool.sol\":2353:2383  asset.balanceOf(address(this)) */\n      gas\n      staticcall\n      swap1\n      dup2\n      iszero\n      tag_54\n      jumpi\n        /* \"contracts/contracts/protocol/TuliaFlashPool.sol\":651:5102  contract TuliaFlashPool is IERC3156FlashLender, ReentrancyGuard {... */\n      0x00\n        /* \"contracts/contracts/protocol/TuliaFlashPool.sol\":2353:2383  asset.balanceOf(address(this)) */\n      swap2\n      tag_56\n      jumpi\n        /* \"contracts/contracts/protocol/TuliaFlashPool.sol\":2327:2387  token == address(asset) ? asset.balanceOf(address(this)) : 0 */\n    tag_57:\n      pop\n        /* \"contracts/contracts/protocol/TuliaFlashPool.sol\":651:5102  contract TuliaFlashPool is IERC3156FlashLender, ReentrancyGuard {... */\n      mload(0x40)\n      swap1\n      dup2\n      mstore\n      return\n        /* \"contracts/contracts/protocol/TuliaFlashPool.sol\":2353:2383  asset.balanceOf(address(this)) */\n    tag_56:\n      swap1\n      pop\n      dup2\n      dup2\n      dup2\n      returndatasize\n      dup4\n      gt\n      tag_59\n      jumpi\n    tag_60:\n      tag_61\n      dup2\n      dup4\n      tag_2\n      jump\t// in\n    tag_61:\n      dup2\n      add\n        /* \"contracts/contracts/protocol/TuliaFlashPool.sol\":651:5102  contract TuliaFlashPool is IERC3156FlashLender, ReentrancyGuard {... */\n      sub\n      slt\n      tag_29\n      jumpi\n      mload\n        /* \"contracts/contracts/protocol/TuliaFlashPool.sol\":2353:2383  asset.balanceOf(address(this)) */\n      dup3\n      jump(tag_57)\n    tag_59:\n      pop\n      returndatasize\n      jump(tag_60)\n    tag_54:\n        /* \"contracts/contracts/protocol/TuliaFlashPool.sol\":651:5102  contract TuliaFlashPool is IERC3156FlashLender, ReentrancyGuard {... */\n      mload(0x40)\n      returndatasize\n      0x00\n      dup3\n      returndatacopy\n      returndatasize\n      swap1\n      revert\n        /* \"contracts/contracts/protocol/TuliaFlashPool.sol\":2327:2387  token == address(asset) ? asset.balanceOf(address(this)) : 0 */\n    tag_52:\n      pop\n      pop\n        /* \"contracts/contracts/protocol/TuliaFlashPool.sol\":651:5102  contract TuliaFlashPool is IERC3156FlashLender, ReentrancyGuard {... */\n      0x00\n        /* \"contracts/contracts/protocol/TuliaFlashPool.sol\":2327:2387  token == address(asset) ? asset.balanceOf(address(this)) : 0 */\n      jump(tag_31)\n        /* \"contracts/contracts/protocol/TuliaFlashPool.sol\":651:5102  contract TuliaFlashPool is IERC3156FlashLender, ReentrancyGuard {... */\n    tag_15:\n      jumpi(tag_29, callvalue)\n      jumpi(tag_29, slt(add(not(0x03), calldatasize), 0x80))\n      calldataload(0x04)\n      sub(shl(0xa0, 0x01), 0x01)\n      dup2\n      and\n      dup2\n      sub\n      tag_29\n      jumpi\n      calldataload(0x24)\n      swap1\n      sub(shl(0xa0, 0x01), 0x01)\n      dup3\n      and\n      dup3\n      sub\n      tag_29\n      jumpi\n      jumpi(tag_29, gt(calldataload(0x64), 0xffffffffffffffff))\n      jumpi(tag_29, iszero(slt(add(calldataload(0x64), 0x23), calldatasize)))\n      jumpi(tag_29, gt(calldataload(add(0x04, calldataload(0x64))), 0xffffffffffffffff))\n      jumpi(tag_29, gt(add(add(calldataload(0x64), calldataload(add(0x04, calldataload(0x64)))), 0x24), calldatasize))\n        /* \"@openzeppelin/contracts/security/ReentrancyGuard.sol\":1759:1760  2 */\n      0x02\n        /* \"contracts/contracts/protocol/TuliaFlashPool.sol\":651:5102  contract TuliaFlashPool is IERC3156FlashLender, ReentrancyGuard {... */\n      sload(0x00)\n        /* \"@openzeppelin/contracts/security/ReentrancyGuard.sol\":2468:2487  _status != _ENTERED */\n      eq\n        /* \"@openzeppelin/contracts/security/ReentrancyGuard.sol\":1759:1760  2 */\n      tag_80\n      jumpi\n      0x02\n        /* \"contracts/contracts/protocol/TuliaFlashPool.sol\":651:5102  contract TuliaFlashPool is IERC3156FlashLender, ReentrancyGuard {... */\n      0x00\n        /* \"@openzeppelin/contracts/security/ReentrancyGuard.sol\":1759:1760  2 */\n      sstore\n        /* \"contracts/contracts/protocol/TuliaFlashPool.sol\":651:5102  contract TuliaFlashPool is IERC3156FlashLender, ReentrancyGuard {... */\n      sload(0x01)\n      sub(shl(0xa0, 0x01), 0x01)\n      swap1\n      dup2\n      and\n      swap3\n      swap1\n        /* \"contracts/contracts/protocol/TuliaFlashPool.sol\":4310:4363  require(token == address(asset), \"Unsupported token\") */\n      tag_82\n      swap1\n        /* \"contracts/contracts/protocol/TuliaFlashPool.sol\":651:5102  contract TuliaFlashPool is IERC3156FlashLender, ReentrancyGuard {... */\n      dup3\n      and\n        /* \"contracts/contracts/protocol/TuliaFlashPool.sol\":4318:4341  token == address(asset) */\n      dup5\n      eq\n        /* \"contracts/contracts/protocol/TuliaFlashPool.sol\":4310:4363  require(token == address(asset), \"Unsupported token\") */\n      tag_3\n      jump\t// in\n    tag_82:\n        /* \"contracts/contracts/protocol/TuliaFlashPool.sol\":651:5102  contract TuliaFlashPool is IERC3156FlashLender, ReentrancyGuard {... */\n      0xff\n        /* \"contracts/contracts/protocol/TuliaFlashPool.sol\":4382:4387  state */\n      0x05\n        /* \"contracts/contracts/protocol/TuliaFlashPool.sol\":651:5102  contract TuliaFlashPool is IERC3156FlashLender, ReentrancyGuard {... */\n      sload\n      and\n      0x03\n      dup2\n      lt\n      iszero\n      tag_41\n      jumpi\n      tag_85\n      jumpi\n        /* \"contracts/contracts/protocol/TuliaFlashPool.sol\":4466:4489  flashFee(token, amount) */\n      tag_87\n        /* \"contracts/contracts/protocol/TuliaFlashPool.sol\":651:5102  contract TuliaFlashPool is IERC3156FlashLender, ReentrancyGuard {... */\n      calldataload(0x44)\n        /* \"contracts/contracts/protocol/TuliaFlashPool.sol\":4466:4489  flashFee(token, amount) */\n      dup3\n      tag_6\n      jump\t// in\n    tag_87:\n        /* \"contracts/contracts/protocol/TuliaFlashPool.sol\":651:5102  contract TuliaFlashPool is IERC3156FlashLender, ReentrancyGuard {... */\n      swap1\n      mload(0x40)\n      swap4\n      shl(0xe0, 0x70a08231)\n        /* \"contracts/contracts/protocol/TuliaFlashPool.sol\":4524:4554  asset.balanceOf(address(this)) */\n      dup6\n      mstore\n        /* \"contracts/contracts/protocol/TuliaFlashPool.sol\":4548:4552  this */\n      address\n        /* \"contracts/contracts/protocol/TuliaFlashPool.sol\":651:5102  contract TuliaFlashPool is IERC3156FlashLender, ReentrancyGuard {... */\n      0x04\n        /* \"contracts/contracts/protocol/TuliaFlashPool.sol\":4524:4554  asset.balanceOf(address(this)) */\n      dup7\n      add\n        /* \"contracts/contracts/protocol/TuliaFlashPool.sol\":651:5102  contract TuliaFlashPool is IERC3156FlashLender, ReentrancyGuard {... */\n      mstore\n      0x20\n        /* \"contracts/contracts/protocol/TuliaFlashPool.sol\":4524:4554  asset.balanceOf(address(this)) */\n      dup6\n        /* \"contracts/contracts/protocol/TuliaFlashPool.sol\":651:5102  contract TuliaFlashPool is IERC3156FlashLender, ReentrancyGuard {... */\n      0x24\n        /* \"contracts/contracts/protocol/TuliaFlashPool.sol\":4524:4554  asset.balanceOf(address(this)) */\n      dup2\n      dup5\n      gas\n      staticcall\n      swap5\n      dup6\n      iszero\n      tag_54\n      jumpi\n        /* \"contracts/contracts/protocol/TuliaFlashPool.sol\":651:5102  contract TuliaFlashPool is IERC3156FlashLender, ReentrancyGuard {... */\n      0x00\n        /* \"contracts/contracts/protocol/TuliaFlashPool.sol\":4524:4554  asset.balanceOf(address(this)) */\n      swap6\n      tag_90\n      jumpi\n        /* \"contracts/contracts/protocol/TuliaFlashPool.sol\":651:5102  contract TuliaFlashPool is IERC3156FlashLender, ReentrancyGuard {... */\n    tag_91:\n      pop\n      mload(0x40)\n      shl(0xe0, 0xa9059cbb)\n      0x20\n        /* \"@openzeppelin/contracts/token/ERC20/utils/SafeERC20.sol\":1412:1455  abi.encodeCall(token.transfer, (to, value)) */\n      dup3\n      add\n      mstore\n      sub(shl(0xa0, 0x01), 0x01)\n        /* \"contracts/contracts/protocol/TuliaFlashPool.sol\":651:5102  contract TuliaFlashPool is IERC3156FlashLender, ReentrancyGuard {... */\n      dup6\n      and\n      0x24\n        /* \"@openzeppelin/contracts/token/ERC20/utils/SafeERC20.sol\":1412:1455  abi.encodeCall(token.transfer, (to, value)) */\n      dup3\n      add\n        /* \"contracts/contracts/protocol/TuliaFlashPool.sol\":651:5102  contract TuliaFlashPool is IERC3156FlashLender, ReentrancyGuard {... */\n      mstore\n      0x44\n      dup1\n      calldataload\n      dup2\n      dup4\n      add\n      mstore\n        /* \"@openzeppelin/contracts/token/ERC20/utils/SafeERC20.sol\":1412:1455  abi.encodeCall(token.transfer, (to, value)) */\n      dup2\n      mstore\n        /* \"contracts/contracts/protocol/TuliaFlashPool.sol\":651:5102  contract TuliaFlashPool is IERC3156FlashLender, ReentrancyGuard {... */\n      0xffffffffffffffff\n      0x80\n      dup3\n      add\n      swap1\n      dup2\n      gt\n      swap1\n      dup3\n      gt\n      or\n      tag_102\n      jumpi\n        /* \"@openzeppelin/contracts/token/ERC20/utils/SafeERC20.sol\":1412:1455  abi.encodeCall(token.transfer, (to, value)) */\n      tag_94\n        /* \"contracts/contracts/protocol/TuliaFlashPool.sol\":651:5102  contract TuliaFlashPool is IERC3156FlashLender, ReentrancyGuard {... */\n      swap2\n      0x80\n      dup3\n      add\n      0x40\n      mstore\n        /* \"@openzeppelin/contracts/token/ERC20/utils/SafeERC20.sol\":1412:1455  abi.encodeCall(token.transfer, (to, value)) */\n      tag_7\n      jump\t// in\n    tag_94:\n        /* \"contracts/contracts/protocol/TuliaFlashPool.sol\":651:5102  contract TuliaFlashPool is IERC3156FlashLender, ReentrancyGuard {... */\n      mload(0x40)\n      swap1\n      shl(0xe0, 0x23e30c8b)\n        /* \"contracts/contracts/protocol/TuliaFlashPool.sol\":4647:4710  receiver.onFlashLoan(msg.sender, token, amount, totalFee, data) */\n      dup3\n      mstore\n        /* \"contracts/contracts/protocol/TuliaFlashPool.sol\":4668:4678  msg.sender */\n      caller\n        /* \"contracts/contracts/protocol/TuliaFlashPool.sol\":651:5102  contract TuliaFlashPool is IERC3156FlashLender, ReentrancyGuard {... */\n      0x04\n        /* \"contracts/contracts/protocol/TuliaFlashPool.sol\":4647:4710  receiver.onFlashLoan(msg.sender, token, amount, totalFee, data) */\n      dup4\n      add\n        /* \"contracts/contracts/protocol/TuliaFlashPool.sol\":651:5102  contract TuliaFlashPool is IERC3156FlashLender, ReentrancyGuard {... */\n      mstore\n      0x01\n      dup1\n      0xa0\n      shl\n      sub\n      and\n      0x24\n      dup3\n      add\n      mstore\n      calldataload(0x44)\n      0x44\n      dup3\n      add\n      mstore\n      dup2\n      0x64\n      dup3\n      add\n      mstore\n      0xa0\n      0x84\n      dup3\n      add\n      mstore\n      calldataload(add(0x04, calldataload(0x64)))\n      0xa4\n      dup3\n      add\n      mstore\n      calldataload(add(0x04, calldataload(0x64)))\n      add(calldataload(0x64), 0x24)\n      0xc4\n      dup4\n      add\n      calldatacopy\n      0x00\n      0xc4\n      calldataload(add(0x04, calldataload(0x64)))\n      dup4\n      add\n      add\n      mstore\n      0x20\n        /* \"@openzeppelin/contracts/token/ERC20/utils/SafeERC20.sol\":1412:1455  abi.encodeCall(token.transfer, (to, value)) */\n      dup2\n        /* \"contracts/contracts/protocol/TuliaFlashPool.sol\":651:5102  contract TuliaFlashPool is IERC3156FlashLender, ReentrancyGuard {... */\n      0xc4\n        /* \"@openzeppelin/contracts/token/ERC20/utils/SafeERC20.sol\":1412:1455  abi.encodeCall(token.transfer, (to, value)) */\n      dup2\n      not(0x1f)\n      0x1f\n        /* \"contracts/contracts/protocol/TuliaFlashPool.sol\":651:5102  contract TuliaFlashPool is IERC3156FlashLender, ReentrancyGuard {... */\n      calldataload(add(0x04, calldataload(0x64)))\n      add\n      and\n      dup2\n      add\n        /* \"contracts/contracts/protocol/TuliaFlashPool.sol\":4647:4710  receiver.onFlashLoan(msg.sender, token, amount, totalFee, data) */\n      sub\n      add\n        /* \"contracts/contracts/protocol/TuliaFlashPool.sol\":651:5102  contract TuliaFlashPool is IERC3156FlashLender, ReentrancyGuard {... */\n      dup2\n      0x00\n      0x01\n      dup1\n      0xa0\n      shl\n      sub\n      dup9\n      and\n        /* \"contracts/contracts/protocol/TuliaFlashPool.sol\":4647:4710  receiver.onFlashLoan(msg.sender, token, amount, totalFee, data) */\n      gas\n      call\n      dup1\n      iszero\n      tag_54\n      jumpi\n        /* \"contracts/contracts/protocol/TuliaFlashPool.sol\":651:5102  contract TuliaFlashPool is IERC3156FlashLender, ReentrancyGuard {... */\n      0x00\n        /* \"contracts/contracts/protocol/TuliaFlashPool.sol\":4647:4710  receiver.onFlashLoan(msg.sender, token, amount, totalFee, data) */\n      swap1\n      tag_97\n      jumpi\n        /* \"contracts/contracts/protocol/TuliaFlashPool.sol\":651:5102  contract TuliaFlashPool is IERC3156FlashLender, ReentrancyGuard {... */\n    tag_98:\n        /* \"contracts/contracts/protocol/TuliaFlashPool.sol\":4714:4759  keccak256(\"ERC3156FlashBorrower.onFlashLoan\") */\n      0x439148f0bbc682ca079e46d6e2c2f0c1e3b820f1a291b069d8882abf8cf18dd9\n        /* \"contracts/contracts/protocol/TuliaFlashPool.sol\":4647:4759  receiver.onFlashLoan(msg.sender, token, amount, totalFee, data) == keccak256(\"ERC3156FlashBorrower.onFlashLoan\") */\n      swap2\n      pop\n      sub\n        /* \"contracts/contracts/protocol/TuliaFlashPool.sol\":651:5102  contract TuliaFlashPool is IERC3156FlashLender, ReentrancyGuard {... */\n      tag_99\n      jumpi\n        /* \"contracts/contracts/protocol/TuliaFlashPool.sol\":4838:4855  amount + totalFee */\n      tag_101\n        /* \"contracts/contracts/protocol/TuliaFlashPool.sol\":651:5102  contract TuliaFlashPool is IERC3156FlashLender, ReentrancyGuard {... */\n      swap1\n      calldataload(0x44)\n        /* \"contracts/contracts/protocol/TuliaFlashPool.sol\":4838:4855  amount + totalFee */\n      tag_5\n      jump\t// in\n    tag_101:\n        /* \"contracts/contracts/protocol/TuliaFlashPool.sol\":651:5102  contract TuliaFlashPool is IERC3156FlashLender, ReentrancyGuard {... */\n      sload(0x01)\n      mload(0x40)\n      shl(0xe0, 0x23b872dd)\n      0x20\n        /* \"@openzeppelin/contracts/token/ERC20/utils/SafeERC20.sol\":1829:1882  abi.encodeCall(token.transferFrom, (from, to, value)) */\n      dup3\n      add\n      mstore\n      sub(shl(0xa0, 0x01), 0x01)\n        /* \"contracts/contracts/protocol/TuliaFlashPool.sol\":651:5102  contract TuliaFlashPool is IERC3156FlashLender, ReentrancyGuard {... */\n      swap4\n      dup5\n      and\n      0x24\n        /* \"@openzeppelin/contracts/token/ERC20/utils/SafeERC20.sol\":1829:1882  abi.encodeCall(token.transferFrom, (from, to, value)) */\n      dup3\n      add\n        /* \"contracts/contracts/protocol/TuliaFlashPool.sol\":651:5102  contract TuliaFlashPool is IERC3156FlashLender, ReentrancyGuard {... */\n      mstore\n        /* \"contracts/contracts/protocol/TuliaFlashPool.sol\":4548:4552  this */\n      address\n        /* \"contracts/contracts/protocol/TuliaFlashPool.sol\":651:5102  contract TuliaFlashPool is IERC3156FlashLender, ReentrancyGuard {... */\n      0x44\n      dup3\n      add\n      mstore\n      0x64\n      dup1\n      dup3\n      add\n      swap4\n      swap1\n      swap4\n      mstore\n        /* \"@openzeppelin/contracts/token/ERC20/utils/SafeERC20.sol\":1829:1882  abi.encodeCall(token.transferFrom, (from, to, value)) */\n      swap2\n      dup3\n      mstore\n        /* \"contracts/contracts/protocol/TuliaFlashPool.sol\":651:5102  contract TuliaFlashPool is IERC3156FlashLender, ReentrancyGuard {... */\n      0xa0\n      dup3\n      add\n      swap3\n      and\n      0xffffffffffffffff\n      dup4\n      gt\n      dup3\n      dup5\n      lt\n      or\n      tag_102\n      jumpi\n        /* \"@openzeppelin/contracts/token/ERC20/utils/SafeERC20.sol\":1829:1882  abi.encodeCall(token.transferFrom, (from, to, value)) */\n      tag_104\n        /* \"contracts/contracts/protocol/TuliaFlashPool.sol\":651:5102  contract TuliaFlashPool is IERC3156FlashLender, ReentrancyGuard {... */\n      swap3\n      0x40\n      mstore\n        /* \"@openzeppelin/contracts/token/ERC20/utils/SafeERC20.sol\":1829:1882  abi.encodeCall(token.transferFrom, (from, to, value)) */\n      tag_7\n      jump\t// in\n    tag_104:\n        /* \"contracts/contracts/protocol/TuliaFlashPool.sol\":651:5102  contract TuliaFlashPool is IERC3156FlashLender, ReentrancyGuard {... */\n      sload(0x01)\n      mload(0x40)\n      shl(0xe0, 0x70a08231)\n        /* \"contracts/contracts/protocol/TuliaFlashPool.sol\":4955:4985  asset.balanceOf(address(this)) */\n      dup2\n      mstore\n        /* \"contracts/contracts/protocol/TuliaFlashPool.sol\":4548:4552  this */\n      address\n        /* \"contracts/contracts/protocol/TuliaFlashPool.sol\":651:5102  contract TuliaFlashPool is IERC3156FlashLender, ReentrancyGuard {... */\n      0x04\n        /* \"contracts/contracts/protocol/TuliaFlashPool.sol\":4955:4985  asset.balanceOf(address(this)) */\n      dup3\n      add\n        /* \"contracts/contracts/protocol/TuliaFlashPool.sol\":651:5102  contract TuliaFlashPool is IERC3156FlashLender, ReentrancyGuard {... */\n      mstore\n      swap1\n      0x20\n      swap1\n      dup3\n      swap1\n      0x24\n      swap1\n      dup3\n      swap1\n      sub(shl(0xa0, 0x01), 0x01)\n      and\n        /* \"contracts/contracts/protocol/TuliaFlashPool.sol\":4955:4985  asset.balanceOf(address(this)) */\n      gas\n      staticcall\n      swap1\n      dup2\n      iszero\n      tag_54\n      jumpi\n        /* \"contracts/contracts/protocol/TuliaFlashPool.sol\":651:5102  contract TuliaFlashPool is IERC3156FlashLender, ReentrancyGuard {... */\n      0x00\n        /* \"contracts/contracts/protocol/TuliaFlashPool.sol\":4955:4985  asset.balanceOf(address(this)) */\n      swap2\n      tag_107\n      jumpi\n        /* \"contracts/contracts/protocol/TuliaFlashPool.sol\":651:5102  contract TuliaFlashPool is IERC3156FlashLender, ReentrancyGuard {... */\n    tag_108:\n        /* \"contracts/contracts/protocol/TuliaFlashPool.sol\":4955:5002  asset.balanceOf(address(this)) >= balanceBefore */\n      pop\n      lt\n        /* \"contracts/contracts/protocol/TuliaFlashPool.sol\":651:5102  contract TuliaFlashPool is IERC3156FlashLender, ReentrancyGuard {... */\n      tag_109\n      jumpi\n      not(0xff)\n        /* \"contracts/contracts/protocol/TuliaFlashPool.sol\":4382:4387  state */\n      0x05\n        /* \"contracts/contracts/protocol/TuliaFlashPool.sol\":651:5102  contract TuliaFlashPool is IERC3156FlashLender, ReentrancyGuard {... */\n      sload\n      and\n        /* \"contracts/contracts/protocol/TuliaFlashPool.sol\":4382:4387  state */\n      0x05\n        /* \"contracts/contracts/protocol/TuliaFlashPool.sol\":651:5102  contract TuliaFlashPool is IERC3156FlashLender, ReentrancyGuard {... */\n      sstore\n      0x01\n      0x00\n        /* \"@openzeppelin/contracts/security/ReentrancyGuard.sol\":1759:1760  2 */\n      sstore\n        /* \"contracts/contracts/protocol/TuliaFlashPool.sol\":651:5102  contract TuliaFlashPool is IERC3156FlashLender, ReentrancyGuard {... */\n      0x20\n      mload(0x40)\n      0x01\n      dup2\n      mstore\n      return\n    tag_109:\n      mload(0x40)\n      shl(0xe5, 0x461bcd)\n      dup2\n      mstore\n      0x20\n      0x04\n      dup3\n      add\n      mstore\n      0x1b\n      0x24\n      dup3\n      add\n      mstore\n      0x466c617368206c6f616e2072657061796d656e74206661696c65640000000000\n      0x44\n      dup3\n      add\n      mstore\n      0x64\n      swap1\n      revert\n        /* \"contracts/contracts/protocol/TuliaFlashPool.sol\":4955:4985  asset.balanceOf(address(this)) */\n    tag_107:\n      swap1\n      pop\n        /* \"contracts/contracts/protocol/TuliaFlashPool.sol\":651:5102  contract TuliaFlashPool is IERC3156FlashLender, ReentrancyGuard {... */\n      0x20\n        /* \"contracts/contracts/protocol/TuliaFlashPool.sol\":4955:4985  asset.balanceOf(address(this)) */\n      dup2\n      returndatasize\n        /* \"contracts/contracts/protocol/TuliaFlashPool.sol\":651:5102  contract TuliaFlashPool is IERC3156FlashLender, ReentrancyGuard {... */\n      0x20\n        /* \"contracts/contracts/protocol/TuliaFlashPool.sol\":4955:4985  asset.balanceOf(address(this)) */\n      gt\n      tag_111\n      jumpi\n    tag_112:\n      dup2\n      tag_113\n        /* \"contracts/contracts/protocol/TuliaFlashPool.sol\":651:5102  contract TuliaFlashPool is IERC3156FlashLender, ReentrancyGuard {... */\n      0x20\n        /* \"contracts/contracts/protocol/TuliaFlashPool.sol\":4955:4985  asset.balanceOf(address(this)) */\n      swap4\n      dup4\n      tag_2\n      jump\t// in\n    tag_113:\n      dup2\n      add\n        /* \"contracts/contracts/protocol/TuliaFlashPool.sol\":651:5102  contract TuliaFlashPool is IERC3156FlashLender, ReentrancyGuard {... */\n      sub\n      slt\n      tag_29\n      jumpi\n      mload\n        /* \"contracts/contracts/protocol/TuliaFlashPool.sol\":4955:4985  asset.balanceOf(address(this)) */\n      dup3\n      jump(tag_108)\n    tag_111:\n      returndatasize\n      swap2\n      pop\n      jump(tag_112)\n        /* \"contracts/contracts/protocol/TuliaFlashPool.sol\":651:5102  contract TuliaFlashPool is IERC3156FlashLender, ReentrancyGuard {... */\n    tag_102:\n      mstore(0x00, shl(0xe0, 0x4e487b71))\n      mstore(0x04, 0x41)\n      revert(0x00, 0x24)\n    tag_99:\n      mload(0x40)\n      shl(0xe5, 0x461bcd)\n      dup2\n      mstore\n      0x20\n      0x04\n      dup3\n      add\n      mstore\n      0x11\n      0x24\n      dup3\n      add\n      mstore\n      shl(0x7a, 0x119b185cda081b1bd85b8819985a5b1959)\n      0x44\n      dup3\n      add\n      mstore\n      0x64\n      swap1\n      revert\n        /* \"contracts/contracts/protocol/TuliaFlashPool.sol\":4647:4710  receiver.onFlashLoan(msg.sender, token, amount, totalFee, data) */\n    tag_97:\n      pop\n        /* \"contracts/contracts/protocol/TuliaFlashPool.sol\":651:5102  contract TuliaFlashPool is IERC3156FlashLender, ReentrancyGuard {... */\n      0x20\n        /* \"contracts/contracts/protocol/TuliaFlashPool.sol\":4647:4710  receiver.onFlashLoan(msg.sender, token, amount, totalFee, data) */\n      dup2\n      returndatasize\n        /* \"contracts/contracts/protocol/TuliaFlashPool.sol\":651:5102  contract TuliaFlashPool is IERC3156FlashLender, ReentrancyGuard {... */\n      0x20\n        /* \"contracts/contracts/protocol/TuliaFlashPool.sol\":4647:4710  receiver.onFlashLoan(msg.sender, token, amount, totalFee, data) */\n      gt\n      tag_116\n      jumpi\n    tag_117:\n      dup2\n      tag_118\n        /* \"contracts/contracts/protocol/TuliaFlashPool.sol\":651:5102  contract TuliaFlashPool is IERC3156FlashLender, ReentrancyGuard {... */\n      0x20\n        /* \"contracts/contracts/protocol/TuliaFlashPool.sol\":4647:4710  receiver.onFlashLoan(msg.sender, token, amount, totalFee, data) */\n      swap4\n      dup4\n      tag_2\n      jump\t// in\n    tag_118:\n      dup2\n      add\n        /* \"contracts/contracts/protocol/TuliaFlashPool.sol\":651:5102  contract TuliaFlashPool is IERC3156FlashLender, ReentrancyGuard {... */\n      sub\n      slt\n      tag_29\n      jumpi\n        /* \"contracts/contracts/protocol/TuliaFlashPool.sol\":4714:4759  keccak256(\"ERC3156FlashBorrower.onFlashLoan\") */\n      0x439148f0bbc682ca079e46d6e2c2f0c1e3b820f1a291b069d8882abf8cf18dd9\n        /* \"contracts/contracts/protocol/TuliaFlashPool.sol\":651:5102  contract TuliaFlashPool is IERC3156FlashLender, ReentrancyGuard {... */\n      swap1\n      mload\n        /* \"contracts/contracts/protocol/TuliaFlashPool.sol\":4647:4710  receiver.onFlashLoan(msg.sender, token, amount, totalFee, data) */\n      jump(tag_98)\n    tag_116:\n      returndatasize\n      swap2\n      pop\n      jump(tag_117)\n        /* \"contracts/contracts/protocol/TuliaFlashPool.sol\":4524:4554  asset.balanceOf(address(this)) */\n    tag_90:\n      swap1\n      swap5\n      pop\n        /* \"contracts/contracts/protocol/TuliaFlashPool.sol\":651:5102  contract TuliaFlashPool is IERC3156FlashLender, ReentrancyGuard {... */\n      0x20\n        /* \"contracts/contracts/protocol/TuliaFlashPool.sol\":4524:4554  asset.balanceOf(address(this)) */\n      dup2\n      returndatasize\n        /* \"contracts/contracts/protocol/TuliaFlashPool.sol\":651:5102  contract TuliaFlashPool is IERC3156FlashLender, ReentrancyGuard {... */\n      0x20\n        /* \"contracts/contracts/protocol/TuliaFlashPool.sol\":4524:4554  asset.balanceOf(address(this)) */\n      gt\n      tag_121\n      jumpi\n    tag_122:\n      dup2\n      tag_123\n        /* \"contracts/contracts/protocol/TuliaFlashPool.sol\":651:5102  contract TuliaFlashPool is IERC3156FlashLender, ReentrancyGuard {... */\n      0x20\n        /* \"contracts/contracts/protocol/TuliaFlashPool.sol\":4524:4554  asset.balanceOf(address(this)) */\n      swap4\n      dup4\n      tag_2\n      jump\t// in\n    tag_123:\n      dup2\n      add\n        /* \"contracts/contracts/protocol/TuliaFlashPool.sol\":651:5102  contract TuliaFlashPool is IERC3156FlashLender, ReentrancyGuard {... */\n      sub\n      slt\n      tag_29\n      jumpi\n      mload\n        /* \"contracts/contracts/protocol/TuliaFlashPool.sol\":4524:4554  asset.balanceOf(address(this)) */\n      swap4\n      dup6\n      jump(tag_91)\n    tag_121:\n      returndatasize\n      swap2\n      pop\n      jump(tag_122)\n        /* \"contracts/contracts/protocol/TuliaFlashPool.sol\":651:5102  contract TuliaFlashPool is IERC3156FlashLender, ReentrancyGuard {... */\n    tag_85:\n      mload(0x40)\n      shl(0xe5, 0x461bcd)\n      dup2\n      mstore\n      0x20\n      0x04\n      dup3\n      add\n      mstore\n      0x18\n      0x24\n      dup3\n      add\n      mstore\n      0x466c617368206c6f616e206e6f7420617661696c61626c650000000000000000\n      0x44\n      dup3\n      add\n      mstore\n      0x64\n      swap1\n      revert\n        /* \"@openzeppelin/contracts/security/ReentrancyGuard.sol\":1759:1760  2 */\n    tag_80:\n        /* \"contracts/contracts/protocol/TuliaFlashPool.sol\":651:5102  contract TuliaFlashPool is IERC3156FlashLender, ReentrancyGuard {... */\n      mload(0x40)\n      shl(0xe5, 0x461bcd)\n        /* \"@openzeppelin/contracts/security/ReentrancyGuard.sol\":1759:1760  2 */\n      dup2\n      mstore\n        /* \"contracts/contracts/protocol/TuliaFlashPool.sol\":651:5102  contract TuliaFlashPool is IERC3156FlashLender, ReentrancyGuard {... */\n      0x20\n      0x04\n        /* \"@openzeppelin/contracts/security/ReentrancyGuard.sol\":1759:1760  2 */\n      dup3\n      add\n      mstore\n        /* \"contracts/contracts/protocol/TuliaFlashPool.sol\":651:5102  contract TuliaFlashPool is IERC3156FlashLender, ReentrancyGuard {... */\n      0x1f\n      0x24\n        /* \"@openzeppelin/contracts/security/ReentrancyGuard.sol\":1759:1760  2 */\n      dup3\n      add\n        /* \"contracts/contracts/protocol/TuliaFlashPool.sol\":651:5102  contract TuliaFlashPool is IERC3156FlashLender, ReentrancyGuard {... */\n      mstore\n        /* \"@openzeppelin/contracts/security/ReentrancyGuard.sol\":1759:1760  2 */\n      0x5265656e7472616e637947756172643a207265656e7472616e742063616c6c00\n        /* \"contracts/contracts/protocol/TuliaFlashPool.sol\":651:5102  contract TuliaFlashPool is IERC3156FlashLender, ReentrancyGuard {... */\n      0x44\n      dup3\n      add\n        /* \"@openzeppelin/contracts/security/ReentrancyGuard.sol\":1759:1760  2 */\n      mstore\n        /* \"contracts/contracts/protocol/TuliaFlashPool.sol\":651:5102  contract TuliaFlashPool is IERC3156FlashLender, ReentrancyGuard {... */\n      0x64\n      swap1\n        /* \"@openzeppelin/contracts/security/ReentrancyGuard.sol\":1759:1760  2 */\n      revert\n        /* \"contracts/contracts/protocol/TuliaFlashPool.sol\":651:5102  contract TuliaFlashPool is IERC3156FlashLender, ReentrancyGuard {... */\n    tag_13:\n      jumpi(tag_29, callvalue)\n      jumpi(tag_29, slt(add(not(0x03), calldatasize), 0x00))\n      sload(0x01)\n      mload(0x40)\n      sub(shl(0xa0, 0x01), 0x01)\n      swap1\n      swap2\n      and\n      dup2\n      mstore\n      0x20\n      swap1\n      return\n    tag_11:\n      jumpi(tag_29, callvalue)\n      jumpi(tag_29, slt(add(not(0x03), calldatasize), 0x00))\n        /* \"contracts/contracts/protocol/TuliaFlashPool.sol\":911:934  IPermit2 public permit2 */\n      0x02\n        /* \"contracts/contracts/protocol/TuliaFlashPool.sol\":651:5102  contract TuliaFlashPool is IERC3156FlashLender, ReentrancyGuard {... */\n      sload\n      sub(shl(0xa0, 0x01), 0x01)\n      and\n      dup2\n      mstore\n      0x20\n      swap1\n      return\n    tag_1:\n      calldataload(0x04)\n      swap1\n      sub(shl(0xa0, 0x01), 0x01)\n      dup3\n      and\n      dup3\n      sub\n      tag_29\n      jumpi\n      jump\t// out\n    tag_2:\n      swap1\n        /* \"@openzeppelin/contracts/token/ERC20/utils/SafeERC20.sol\":1412:1455  abi.encodeCall(token.transfer, (to, value)) */\n      0x1f\n      dup1\n      not\n        /* \"contracts/contracts/protocol/TuliaFlashPool.sol\":651:5102  contract TuliaFlashPool is IERC3156FlashLender, ReentrancyGuard {... */\n      swap2\n      add\n      and\n      dup2\n      add\n      swap1\n      dup2\n      lt\n      0xffffffffffffffff\n      dup3\n      gt\n      or\n      tag_102\n      jumpi\n      0x40\n      mstore\n      jump\t// out\n    tag_3:\n      iszero\n      tag_138\n      jumpi\n      jump\t// out\n    tag_138:\n      mload(0x40)\n      shl(0xe5, 0x461bcd)\n      dup2\n      mstore\n      0x20\n      0x04\n      dup3\n      add\n      mstore\n      0x11\n      0x24\n      dup3\n      add\n      mstore\n      shl(0x79, 0x2ab739bab83837b93a32b2103a37b5b2b7)\n      0x44\n      dup3\n      add\n      mstore\n      0x64\n      swap1\n      revert\n    tag_4:\n      dup2\n      dup2\n      mul\n      swap3\n      swap2\n      dup2\n      iszero\n      swap2\n      dup5\n      div\n      eq\n      or\n      iszero\n      tag_140\n      jumpi\n      jump\t// out\n    tag_140:\n      mstore(0x00, shl(0xe0, 0x4e487b71))\n      mstore(0x04, 0x11)\n      revert(0x00, 0x24)\n    tag_5:\n      swap2\n      swap1\n      dup3\n      add\n      dup1\n      swap3\n      gt\n      tag_140\n      jumpi\n      jump\t// out\n        /* \"contracts/contracts/protocol/TuliaFlashPool.sol\":2633:2980  function flashFee(address token, uint256 amount) public view override returns (uint256) {... */\n    tag_6:\n        /* \"contracts/contracts/protocol/TuliaFlashPool.sol\":651:5102  contract TuliaFlashPool is IERC3156FlashLender, ReentrancyGuard {... */\n      sload(0x01)\n        /* \"contracts/contracts/protocol/TuliaFlashPool.sol\":2633:2980  function flashFee(address token, uint256 amount) public view override returns (uint256) {... */\n      swap2\n      swap3\n      swap2\n      sub(shl(0xa0, 0x01), 0x01)\n        /* \"contracts/contracts/protocol/TuliaFlashPool.sol\":651:5102  contract TuliaFlashPool is IERC3156FlashLender, ReentrancyGuard {... */\n      swap2\n        /* \"contracts/contracts/protocol/TuliaFlashPool.sol\":2732:2785  require(token == address(asset), \"Unsupported token\") */\n      tag_144\n      swap2\n        /* \"contracts/contracts/protocol/TuliaFlashPool.sol\":651:5102  contract TuliaFlashPool is IERC3156FlashLender, ReentrancyGuard {... */\n      dup4\n      and\n      swap1\n      dup4\n      and\n        /* \"contracts/contracts/protocol/TuliaFlashPool.sol\":2740:2763  token == address(asset) */\n      eq\n        /* \"contracts/contracts/protocol/TuliaFlashPool.sol\":2732:2785  require(token == address(asset), \"Unsupported token\") */\n      tag_3\n      jump\t// in\n    tag_144:\n        /* \"contracts/contracts/protocol/TuliaFlashPool.sol\":2844:2849  10000 */\n      0x2710\n        /* \"contracts/contracts/protocol/TuliaFlashPool.sol\":2824:2840  flashLoanFeeRate */\n      0x04\n        /* \"contracts/contracts/protocol/TuliaFlashPool.sol\":2892:2924  feeManager.getflashPoolFeeRate() */\n      0x20\n        /* \"contracts/contracts/protocol/TuliaFlashPool.sol\":651:5102  contract TuliaFlashPool is IERC3156FlashLender, ReentrancyGuard {... */\n      dup3\n        /* \"contracts/contracts/protocol/TuliaFlashPool.sol\":2815:2840  amount * flashLoanFeeRate */\n      tag_145\n        /* \"contracts/contracts/protocol/TuliaFlashPool.sol\":651:5102  contract TuliaFlashPool is IERC3156FlashLender, ReentrancyGuard {... */\n      dup4\n      sload\n        /* \"contracts/contracts/protocol/TuliaFlashPool.sol\":2815:2840  amount * flashLoanFeeRate */\n      dup9\n      tag_4\n      jump\t// in\n    tag_145:\n        /* \"contracts/contracts/protocol/TuliaFlashPool.sol\":651:5102  contract TuliaFlashPool is IERC3156FlashLender, ReentrancyGuard {... */\n      div\n      swap4\n        /* \"contracts/contracts/protocol/TuliaFlashPool.sol\":2892:2902  feeManager */\n      0x03\n        /* \"contracts/contracts/protocol/TuliaFlashPool.sol\":651:5102  contract TuliaFlashPool is IERC3156FlashLender, ReentrancyGuard {... */\n      sload\n      and\n      mload(0x40)\n      swap3\n      dup4\n      dup1\n      swap3\n      shl(0xe0, 0x053e755b)\n        /* \"contracts/contracts/protocol/TuliaFlashPool.sol\":2892:2924  feeManager.getflashPoolFeeRate() */\n      dup3\n      mstore\n      gas\n      staticcall\n      swap1\n      dup2\n      iszero\n      tag_54\n      jumpi\n      0x00\n      swap2\n      tag_148\n      jumpi\n        /* \"contracts/contracts/protocol/TuliaFlashPool.sol\":2633:2980  function flashFee(address token, uint256 amount) public view override returns (uint256) {... */\n    tag_149:\n        /* \"contracts/contracts/protocol/TuliaFlashPool.sol\":2883:2924  amount * feeManager.getflashPoolFeeRate() */\n      pop\n      tag_150\n      swap1\n        /* \"contracts/contracts/protocol/TuliaFlashPool.sol\":2951:2972  userFee + protocolFee */\n      tag_151\n        /* \"contracts/contracts/protocol/TuliaFlashPool.sol\":2883:2924  amount * feeManager.getflashPoolFeeRate() */\n      swap5\n      swap6\n      tag_4\n      jump\t// in\n    tag_150:\n        /* \"contracts/contracts/protocol/TuliaFlashPool.sol\":651:5102  contract TuliaFlashPool is IERC3156FlashLender, ReentrancyGuard {... */\n      div\n        /* \"contracts/contracts/protocol/TuliaFlashPool.sol\":2951:2972  userFee + protocolFee */\n      swap1\n      tag_5\n      jump\t// in\n    tag_151:\n        /* \"contracts/contracts/protocol/TuliaFlashPool.sol\":2633:2980  function flashFee(address token, uint256 amount) public view override returns (uint256) {... */\n      swap1\n      jump\t// out\n        /* \"contracts/contracts/protocol/TuliaFlashPool.sol\":2892:2924  feeManager.getflashPoolFeeRate() */\n    tag_148:\n      swap1\n      0x20\n      dup3\n      returndatasize\n      dup3\n      gt\n      tag_152\n      jumpi\n    tag_153:\n      dup2\n      tag_154\n      0x20\n      swap4\n      dup4\n      tag_2\n      jump\t// in\n    tag_154:\n      dup2\n      add\n        /* \"contracts/contracts/protocol/TuliaFlashPool.sol\":651:5102  contract TuliaFlashPool is IERC3156FlashLender, ReentrancyGuard {... */\n      sub\n      slt\n      tag_155\n      jumpi\n      pop\n      mload\n        /* \"contracts/contracts/protocol/TuliaFlashPool.sol\":2951:2972  userFee + protocolFee */\n      tag_151\n        /* \"contracts/contracts/protocol/TuliaFlashPool.sol\":2892:2924  feeManager.getflashPoolFeeRate() */\n      jump(tag_149)\n        /* \"contracts/contracts/protocol/TuliaFlashPool.sol\":651:5102  contract TuliaFlashPool is IERC3156FlashLender, ReentrancyGuard {... */\n    tag_155:\n      dup1\n      revert\n        /* \"contracts/contracts/protocol/TuliaFlashPool.sol\":2892:2924  feeManager.getflashPoolFeeRate() */\n    tag_152:\n      returndatasize\n      swap2\n      pop\n      jump(tag_153)\n        /* \"@openzeppelin/contracts/token/ERC20/utils/SafeERC20.sol\":4059:4688  function _callOptionalReturn(IERC20 token, bytes memory data) private {... */\n    tag_7:\n        /* \"contracts/contracts/protocol/TuliaFlashPool.sol\":651:5102  contract TuliaFlashPool is IERC3156FlashLender, ReentrancyGuard {... */\n      0x01\n      dup1\n      0xa0\n      shl\n      sub\n      and\n        /* \"@openzeppelin/contracts/utils/Address.sol\":2847:2848  0 */\n      swap1\n      0x00\n        /* \"@openzeppelin/contracts/utils/Address.sol\":3462:3493  target.call{value: value}(data) */\n      dup1\n      dup3\n      0x20\n      dup3\n      swap5\n      mload\n      swap2\n      add\n      dup3\n      dup7\n      gas\n      call\n        /* \"contracts/contracts/protocol/TuliaFlashPool.sol\":651:5102  contract TuliaFlashPool is IERC3156FlashLender, ReentrancyGuard {... */\n      jumpi(tag_157, iszero(returndatasize))\n      returndatasize\n      swap1\n      0xffffffffffffffff\n      dup3\n      gt\n      tag_159\n      jumpi\n      swap1\n        /* \"@openzeppelin/contracts/utils/Address.sol\":3510:3565  verifyCallResultFromTarget(target, success, returndata) */\n      tag_161\n        /* \"contracts/contracts/protocol/TuliaFlashPool.sol\":651:5102  contract TuliaFlashPool is IERC3156FlashLender, ReentrancyGuard {... */\n      swap2\n      mload(0x40)\n        /* \"@openzeppelin/contracts/token/ERC20/utils/SafeERC20.sol\":1412:1455  abi.encodeCall(token.transfer, (to, value)) */\n      swap2\n        /* \"contracts/contracts/protocol/TuliaFlashPool.sol\":651:5102  contract TuliaFlashPool is IERC3156FlashLender, ReentrancyGuard {... */\n      tag_162\n        /* \"@openzeppelin/contracts/utils/Address.sol\":3462:3493  target.call{value: value}(data) */\n      0x20\n        /* \"@openzeppelin/contracts/token/ERC20/utils/SafeERC20.sol\":1412:1455  abi.encodeCall(token.transfer, (to, value)) */\n      not(0x1f)\n      0x1f\n        /* \"contracts/contracts/protocol/TuliaFlashPool.sol\":651:5102  contract TuliaFlashPool is IERC3156FlashLender, ReentrancyGuard {... */\n      dup5\n      add\n      and\n      add\n      dup5\n      tag_2\n      jump\t// in\n    tag_162:\n      dup3\n      mstore\n      returndatasize\n      dup5\n        /* \"@openzeppelin/contracts/utils/Address.sol\":3462:3493  target.call{value: value}(data) */\n      0x20\n        /* \"contracts/contracts/protocol/TuliaFlashPool.sol\":651:5102  contract TuliaFlashPool is IERC3156FlashLender, ReentrancyGuard {... */\n      dup5\n      add\n      returndatacopy\n    tag_163:\n        /* \"@openzeppelin/contracts/utils/Address.sol\":3510:3565  verifyCallResultFromTarget(target, success, returndata) */\n      dup5\n      tag_8\n      jump\t// in\n    tag_161:\n        /* \"contracts/contracts/protocol/TuliaFlashPool.sol\":651:5102  contract TuliaFlashPool is IERC3156FlashLender, ReentrancyGuard {... */\n      swap1\n      dup2\n      mload\n        /* \"@openzeppelin/contracts/token/ERC20/utils/SafeERC20.sol\":4551:4573  returndata.length != 0 */\n      swap2\n      dup3\n      iszero\n      iszero\n        /* \"@openzeppelin/contracts/token/ERC20/utils/SafeERC20.sol\":4551:4608  returndata.length != 0 && !abi.decode(returndata, (bool)) */\n      swap3\n      dup4\n      tag_164\n      jumpi\n        /* \"contracts/contracts/protocol/TuliaFlashPool.sol\":651:5102  contract TuliaFlashPool is IERC3156FlashLender, ReentrancyGuard {... */\n    tag_165:\n        /* \"@openzeppelin/contracts/token/ERC20/utils/SafeERC20.sol\":4547:4682  if (returndata.length != 0 && !abi.decode(returndata, (bool))) {... */\n      pop\n      pop\n      pop\n      tag_166\n      jumpi\n        /* \"@openzeppelin/contracts/token/ERC20/utils/SafeERC20.sol\":4059:4688  function _callOptionalReturn(IERC20 token, bytes memory data) private {... */\n      pop\n      jump\t// out\n        /* \"@openzeppelin/contracts/token/ERC20/utils/SafeERC20.sol\":4547:4682  if (returndata.length != 0 && !abi.decode(returndata, (bool))) {... */\n    tag_166:\n        /* \"contracts/contracts/protocol/TuliaFlashPool.sol\":651:5102  contract TuliaFlashPool is IERC3156FlashLender, ReentrancyGuard {... */\n      0x24\n      swap1\n      mload(0x40)\n        /* \"@openzeppelin/contracts/token/ERC20/utils/SafeERC20.sol\":4631:4671  SafeERC20FailedOperation(address(token)) */\n      swap1\n      shl(0xe0, 0x5274afe7)\n      dup3\n      mstore\n      0x04\n      dup3\n      add\n        /* \"contracts/contracts/protocol/TuliaFlashPool.sol\":651:5102  contract TuliaFlashPool is IERC3156FlashLender, ReentrancyGuard {... */\n      mstore\n        /* \"@openzeppelin/contracts/token/ERC20/utils/SafeERC20.sol\":4631:4671  SafeERC20FailedOperation(address(token)) */\n      revert\n        /* \"@openzeppelin/contracts/token/ERC20/utils/SafeERC20.sol\":4551:4608  returndata.length != 0 && !abi.decode(returndata, (bool)) */\n    tag_164:\n        /* \"@openzeppelin/contracts/token/ERC20/utils/SafeERC20.sol\":4578:4608  abi.decode(returndata, (bool)) */\n      dup2\n      swap3\n      swap4\n      pop\n      swap1\n        /* \"@openzeppelin/contracts/utils/Address.sol\":3462:3493  target.call{value: value}(data) */\n      0x20\n        /* \"@openzeppelin/contracts/token/ERC20/utils/SafeERC20.sol\":4578:4608  abi.decode(returndata, (bool)) */\n      swap2\n      dup2\n      add\n        /* \"contracts/contracts/protocol/TuliaFlashPool.sol\":651:5102  contract TuliaFlashPool is IERC3156FlashLender, ReentrancyGuard {... */\n      sub\n      slt\n      tag_168\n      jumpi\n        /* \"@openzeppelin/contracts/utils/Address.sol\":3462:3493  target.call{value: value}(data) */\n      0x20\n        /* \"@openzeppelin/contracts/token/ERC20/utils/SafeERC20.sol\":4578:4608  abi.decode(returndata, (bool)) */\n      add\n        /* \"contracts/contracts/protocol/TuliaFlashPool.sol\":651:5102  contract TuliaFlashPool is IERC3156FlashLender, ReentrancyGuard {... */\n      mload\n      swap1\n      dup2\n      iszero\n      swap2\n      dup3\n      iszero\n      sub\n      tag_155\n      jumpi\n        /* \"@openzeppelin/contracts/token/ERC20/utils/SafeERC20.sol\":4551:4608  returndata.length != 0 && !abi.decode(returndata, (bool)) */\n      pop\n      0x00\n      dup1\n      dup1\n      jump(tag_165)\n        /* \"contracts/contracts/protocol/TuliaFlashPool.sol\":651:5102  contract TuliaFlashPool is IERC3156FlashLender, ReentrancyGuard {... */\n    tag_168:\n      pop\n      dup1\n      revert\n    tag_159:\n      shl(0xe0, 0x4e487b71)\n      dup4\n      mstore\n      mstore(0x04, 0x41)\n      0x24\n      dup4\n      revert\n    tag_157:\n        /* \"@openzeppelin/contracts/utils/Address.sol\":3510:3565  verifyCallResultFromTarget(target, success, returndata) */\n      tag_161\n        /* \"contracts/contracts/protocol/TuliaFlashPool.sol\":651:5102  contract TuliaFlashPool is IERC3156FlashLender, ReentrancyGuard {... */\n      swap1\n      0x60\n      swap1\n      jump(tag_163)\n        /* \"@openzeppelin/contracts/utils/Address.sol\":4625:5207  function verifyCallResultFromTarget(... */\n    tag_8:\n      swap1\n        /* \"@openzeppelin/contracts/utils/Address.sol\":4797:4805  !success */\n      tag_172\n      jumpi\n      pop\n        /* \"contracts/contracts/protocol/TuliaFlashPool.sol\":651:5102  contract TuliaFlashPool is IERC3156FlashLender, ReentrancyGuard {... */\n      dup1\n      mload\n        /* \"@openzeppelin/contracts/utils/Address.sol\":5874:5895  returndata.length > 0 */\n      iszero\n        /* \"@openzeppelin/contracts/utils/Address.sol\":5874:5891  returndata.length */\n      tag_174\n      jumpi\n        /* \"@openzeppelin/contracts/utils/Address.sol\":6046:6188  assembly {... */\n      dup1\n      mload\n      swap1\n      0x20\n      add\n      revert\n        /* \"@openzeppelin/contracts/utils/Address.sol\":5870:6253  if (returndata.length > 0) {... */\n    tag_174:\n        /* \"contracts/contracts/protocol/TuliaFlashPool.sol\":651:5102  contract TuliaFlashPool is IERC3156FlashLender, ReentrancyGuard {... */\n      mload(0x40)\n      shl(0xe1, 0x0a12f521)\n        /* \"@openzeppelin/contracts/utils/Address.sol\":6225:6242  FailedInnerCall() */\n      dup2\n      mstore\n      0x04\n      swap1\n      revert\n        /* \"@openzeppelin/contracts/utils/Address.sol\":4793:5201  if (!success) {... */\n    tag_172:\n        /* \"contracts/contracts/protocol/TuliaFlashPool.sol\":651:5102  contract TuliaFlashPool is IERC3156FlashLender, ReentrancyGuard {... */\n      dup2\n      mload\n        /* \"@openzeppelin/contracts/utils/Address.sol\":5045:5067  returndata.length == 0 */\n      iszero\n        /* \"@openzeppelin/contracts/utils/Address.sol\":5045:5094  returndata.length == 0 && target.code.length == 0 */\n      dup1\n      tag_176\n      jumpi\n        /* \"@openzeppelin/contracts/utils/Address.sol\":4793:5201  if (!success) {... */\n    tag_177:\n        /* \"@openzeppelin/contracts/utils/Address.sol\":5041:5160  if (returndata.length == 0 && target.code.length == 0) {... */\n      tag_178\n      jumpi\n        /* \"@openzeppelin/contracts/utils/Address.sol\":5173:5190  return returndata */\n      pop\n      swap1\n      jump\t// out\n        /* \"@openzeppelin/contracts/utils/Address.sol\":5041:5160  if (returndata.length == 0 && target.code.length == 0) {... */\n    tag_178:\n        /* \"contracts/contracts/protocol/TuliaFlashPool.sol\":651:5102  contract TuliaFlashPool is IERC3156FlashLender, ReentrancyGuard {... */\n      mload(0x40)\n      shl(0xe0, 0x9996b315)\n        /* \"@openzeppelin/contracts/utils/Address.sol\":5121:5145  AddressEmptyCode(target) */\n      dup2\n      mstore\n      sub(shl(0xa0, 0x01), 0x01)\n        /* \"contracts/contracts/protocol/TuliaFlashPool.sol\":651:5102  contract TuliaFlashPool is IERC3156FlashLender, ReentrancyGuard {... */\n      swap1\n      swap2\n      and\n        /* \"@openzeppelin/contracts/utils/Address.sol\":5121:5145  AddressEmptyCode(target) */\n      0x04\n      dup3\n      add\n        /* \"contracts/contracts/protocol/TuliaFlashPool.sol\":651:5102  contract TuliaFlashPool is IERC3156FlashLender, ReentrancyGuard {... */\n      mstore\n      0x24\n      swap1\n        /* \"@openzeppelin/contracts/utils/Address.sol\":5121:5145  AddressEmptyCode(target) */\n      revert\n        /* \"@openzeppelin/contracts/utils/Address.sol\":5045:5094  returndata.length == 0 && target.code.length == 0 */\n    tag_176:\n        /* \"@openzeppelin/contracts/utils/Address.sol\":5071:5089  target.code.length */\n      pop\n      dup1\n      extcodesize\n        /* \"@openzeppelin/contracts/utils/Address.sol\":5071:5094  target.code.length == 0 */\n      iszero\n        /* \"@openzeppelin/contracts/utils/Address.sol\":5045:5094  returndata.length == 0 && target.code.length == 0 */\n      jump(tag_177)\n\n    auxdata: 0xa2646970667358221220a58ad39521a2776269cc347d478eb6ab1ce9ba60d4075628c8eccb62e107ade764736f6c63430008140033\n}\n",
				"bytecode": {
					"linkReferences": {},
					"object": "6080346100bb57601f610a4638819003918201601f19168301916001600160401b038311848410176100bf578084926080946040528339810103126100bb5780516001600160a01b0390818116908190036100bb576020830151928284168094036100bb5760408101519283168093036100bb57606001519260015f5560018060a01b031991826001541617600155816002541617600255600354161760035560045560ff196005541660055560405161097290816100d48239f35b5f80fd5b634e487b7160e01b5f52604160045260245ffdfe6080806040526004361015610012575f80fd5b5f3560e01c90816312261ee71461068c5750806338d52e0f146106645780635cffe9de146101cf578063613255ab146101295780638c9f305f1461010c578063c19d93fb146100cf578063d0fb0203146100a75763d9d98ce414610074575f80fd5b346100a35760403660031901126100a357602061009b6100926106af565b6024359061075b565b604051908152f35b5f80fd5b346100a3575f3660031901126100a3576003546040516001600160a01b039091168152602090f35b346100a3575f3660031901126100a35760ff6005541660405160038210156100f8576020918152f35b634e487b7160e01b5f52602160045260245ffd5b346100a3575f3660031901126100a3576020600454604051908152f35b346100a3576020806003193601126100a3576101436106af565b6001546001600160a01b039081169183911682036101c7576040516370a0823160e01b815230600482015291829060249082905afa9081156101bc575f9161018f575b50604051908152f35b90508181813d83116101b5575b6101a681836106c5565b810103126100a3575182610186565b503d61019c565b6040513d5f823e3d90fd5b50505f61009b565b346100a35760803660031901126100a3576004356001600160a01b03811681036100a357602435906001600160a01b03821682036100a35767ffffffffffffffff606435116100a3573660236064350112156100a35767ffffffffffffffff60643560040135116100a357366024606435600401356064350101116100a35760025f541461061f5760025f556001546001600160a01b03908116929061027890821684146106e7565b60ff6005541660038110156100f8576105da576102976044358261075b565b90604051936370a0823160e01b8552306004860152602085602481845afa9485156101bc575f956105a6575b5060405163a9059cbb60e01b60208201526001600160a01b03851660248201526044803581830152815267ffffffffffffffff6080820190811190821117610507576103159160808201604052610802565b604051906323e30c8b60e01b825233600483015260018060a01b03166024820152604435604482015281606482015260a060848201526064356004013560a48201526064356004013560246064350160c48301375f60c4606435600401358301015260208160c481601f19601f60643560040135011681010301815f60018060a01b0388165af180156101bc575f90610554575b7f439148f0bbc682ca079e46d6e2c2f0c1e3b820f1a291b069d8882abf8cf18dd991500361051b576103dd9060443561074e565b6001546040516323b872dd60e01b60208201526001600160a01b03938416602482015230604482015260648082019390935291825260a08201921667ffffffffffffffff8311828410176105075761043792604052610802565b6001546040516370a0823160e01b815230600482015290602090829060249082906001600160a01b03165afa9081156101bc575f916104d5575b50106104905760ff196005541660055560015f55602060405160018152f35b60405162461bcd60e51b815260206004820152601b60248201527f466c617368206c6f616e2072657061796d656e74206661696c656400000000006044820152606490fd5b90506020813d6020116104ff575b816104f0602093836106c5565b810103126100a3575182610471565b3d91506104e3565b634e487b7160e01b5f52604160045260245ffd5b60405162461bcd60e51b8152602060048201526011602482015270119b185cda081b1bd85b8819985a5b1959607a1b6044820152606490fd5b506020813d60201161059e575b8161056e602093836106c5565b810103126100a3577f439148f0bbc682ca079e46d6e2c2f0c1e3b820f1a291b069d8882abf8cf18dd990516103a9565b3d9150610561565b9094506020813d6020116105d2575b816105c2602093836106c5565b810103126100a3575193856102c3565b3d91506105b5565b60405162461bcd60e51b815260206004820152601860248201527f466c617368206c6f616e206e6f7420617661696c61626c6500000000000000006044820152606490fd5b60405162461bcd60e51b815260206004820152601f60248201527f5265656e7472616e637947756172643a207265656e7472616e742063616c6c006044820152606490fd5b346100a3575f3660031901126100a3576001546040516001600160a01b039091168152602090f35b346100a3575f3660031901126100a3576002546001600160a01b03168152602090f35b600435906001600160a01b03821682036100a357565b90601f8019910116810190811067ffffffffffffffff82111761050757604052565b156106ee57565b60405162461bcd60e51b81526020600482015260116024820152702ab739bab83837b93a32b2103a37b5b2b760791b6044820152606490fd5b8181029291811591840414171561073a57565b634e487b7160e01b5f52601160045260245ffd5b9190820180921161073a57565b6001549192916001600160a01b0391610779918316908316146106e7565b612710600460208261078c835488610727565b0493600354166040519283809263053e755b60e01b82525afa9081156101bc575f916107cc575b506107c2906107c99495610727565b049061074e565b90565b906020823d82116107fa575b816107e5602093836106c5565b810103126107f75750516107c96107b3565b80fd5b3d91506107d8565b60018060a01b0316905f80826020829451910182865af13d156108cd573d9067ffffffffffffffff82116108b9579061085d916040519161084d6020601f19601f84011601846106c5565b82523d84602084013e5b846108d9565b90815191821515928361088d575b5050506108755750565b60249060405190635274afe760e01b82526004820152fd5b8192935090602091810103126108b55760200151908115918215036107f757505f808061086b565b5080fd5b634e487b7160e01b83526041600452602483fd5b61085d90606090610857565b9061090057508051156108ee57805190602001fd5b604051630a12f52160e11b8152600490fd5b81511580610933575b610911575090565b604051639996b31560e01b81526001600160a01b039091166004820152602490fd5b50803b1561090956fea2646970667358221220a58ad39521a2776269cc347d478eb6ab1ce9ba60d4075628c8eccb62e107ade764736f6c63430008140033",
					"opcodes": "PUSH1 0x80 CALLVALUE PUSH2 0xBB JUMPI PUSH1 0x1F PUSH2 0xA46 CODESIZE DUP2 SWAP1 SUB SWAP2 DUP3 ADD PUSH1 0x1F NOT AND DUP4 ADD SWAP2 PUSH1 0x1 PUSH1 0x1 PUSH1 0x40 SHL SUB DUP4 GT DUP5 DUP5 LT OR PUSH2 0xBF JUMPI DUP1 DUP5 SWAP3 PUSH1 0x80 SWAP5 PUSH1 0x40 MSTORE DUP4 CODECOPY DUP2 ADD SUB SLT PUSH2 0xBB JUMPI DUP1 MLOAD PUSH1 0x1 PUSH1 0x1 PUSH1 0xA0 SHL SUB SWAP1 DUP2 DUP2 AND SWAP1 DUP2 SWAP1 SUB PUSH2 0xBB JUMPI PUSH1 0x20 DUP4 ADD MLOAD SWAP3 DUP3 DUP5 AND DUP1 SWAP5 SUB PUSH2 0xBB JUMPI PUSH1 0x40 DUP2 ADD MLOAD SWAP3 DUP4 AND DUP1 SWAP4 SUB PUSH2 0xBB JUMPI PUSH1 0x60 ADD MLOAD SWAP3 PUSH1 0x1 PUSH0 SSTORE PUSH1 0x1 DUP1 PUSH1 0xA0 SHL SUB NOT SWAP2 DUP3 PUSH1 0x1 SLOAD AND OR PUSH1 0x1 SSTORE DUP2 PUSH1 0x2 SLOAD AND OR PUSH1 0x2 SSTORE PUSH1 0x3 SLOAD AND OR PUSH1 0x3 SSTORE PUSH1 0x4 SSTORE PUSH1 0xFF NOT PUSH1 0x5 SLOAD AND PUSH1 0x5 SSTORE PUSH1 0x40 MLOAD PUSH2 0x972 SWAP1 DUP2 PUSH2 0xD4 DUP3 CODECOPY RETURN JUMPDEST PUSH0 DUP1 REVERT JUMPDEST PUSH4 0x4E487B71 PUSH1 0xE0 SHL PUSH0 MSTORE PUSH1 0x41 PUSH1 0x4 MSTORE PUSH1 0x24 PUSH0 REVERT INVALID PUSH1 0x80 DUP1 PUSH1 0x40 MSTORE PUSH1 0x4 CALLDATASIZE LT ISZERO PUSH2 0x12 JUMPI PUSH0 DUP1 REVERT JUMPDEST PUSH0 CALLDATALOAD PUSH1 0xE0 SHR SWAP1 DUP2 PUSH4 0x12261EE7 EQ PUSH2 0x68C JUMPI POP DUP1 PUSH4 0x38D52E0F EQ PUSH2 0x664 JUMPI DUP1 PUSH4 0x5CFFE9DE EQ PUSH2 0x1CF JUMPI DUP1 PUSH4 0x613255AB EQ PUSH2 0x129 JUMPI DUP1 PUSH4 0x8C9F305F EQ PUSH2 0x10C JUMPI DUP1 PUSH4 0xC19D93FB EQ PUSH2 0xCF JUMPI DUP1 PUSH4 0xD0FB0203 EQ PUSH2 0xA7 JUMPI PUSH4 0xD9D98CE4 EQ PUSH2 0x74 JUMPI PUSH0 DUP1 REVERT JUMPDEST CALLVALUE PUSH2 0xA3 JUMPI PUSH1 0x40 CALLDATASIZE PUSH1 0x3 NOT ADD SLT PUSH2 0xA3 JUMPI PUSH1 0x20 PUSH2 0x9B PUSH2 0x92 PUSH2 0x6AF JUMP JUMPDEST PUSH1 0x24 CALLDATALOAD SWAP1 PUSH2 0x75B JUMP JUMPDEST PUSH1 0x40 MLOAD SWAP1 DUP2 MSTORE RETURN JUMPDEST PUSH0 DUP1 REVERT JUMPDEST CALLVALUE PUSH2 0xA3 JUMPI PUSH0 CALLDATASIZE PUSH1 0x3 NOT ADD SLT PUSH2 0xA3 JUMPI PUSH1 0x3 SLOAD PUSH1 0x40 MLOAD PUSH1 0x1 PUSH1 0x1 PUSH1 0xA0 SHL SUB SWAP1 SWAP2 AND DUP2 MSTORE PUSH1 0x20 SWAP1 RETURN JUMPDEST CALLVALUE PUSH2 0xA3 JUMPI PUSH0 CALLDATASIZE PUSH1 0x3 NOT ADD SLT PUSH2 0xA3 JUMPI PUSH1 0xFF PUSH1 0x5 SLOAD AND PUSH1 0x40 MLOAD PUSH1 0x3 DUP3 LT ISZERO PUSH2 0xF8 JUMPI PUSH1 0x20 SWAP2 DUP2 MSTORE RETURN JUMPDEST PUSH4 0x4E487B71 PUSH1 0xE0 SHL PUSH0 MSTORE PUSH1 0x21 PUSH1 0x4 MSTORE PUSH1 0x24 PUSH0 REVERT JUMPDEST CALLVALUE PUSH2 0xA3 JUMPI PUSH0 CALLDATASIZE PUSH1 0x3 NOT ADD SLT PUSH2 0xA3 JUMPI PUSH1 0x20 PUSH1 0x4 SLOAD PUSH1 0x40 MLOAD SWAP1 DUP2 MSTORE RETURN JUMPDEST CALLVALUE PUSH2 0xA3 JUMPI PUSH1 0x20 DUP1 PUSH1 0x3 NOT CALLDATASIZE ADD SLT PUSH2 0xA3 JUMPI PUSH2 0x143 PUSH2 0x6AF JUMP JUMPDEST PUSH1 0x1 SLOAD PUSH1 0x1 PUSH1 0x1 PUSH1 0xA0 SHL SUB SWAP1 DUP2 AND SWAP2 DUP4 SWAP2 AND DUP3 SUB PUSH2 0x1C7 JUMPI PUSH1 0x40 MLOAD PUSH4 0x70A08231 PUSH1 0xE0 SHL DUP2 MSTORE ADDRESS PUSH1 0x4 DUP3 ADD MSTORE SWAP2 DUP3 SWAP1 PUSH1 0x24 SWAP1 DUP3 SWAP1 GAS STATICCALL SWAP1 DUP2 ISZERO PUSH2 0x1BC JUMPI PUSH0 SWAP2 PUSH2 0x18F JUMPI JUMPDEST POP PUSH1 0x40 MLOAD SWAP1 DUP2 MSTORE RETURN JUMPDEST SWAP1 POP DUP2 DUP2 DUP2 RETURNDATASIZE DUP4 GT PUSH2 0x1B5 JUMPI JUMPDEST PUSH2 0x1A6 DUP2 DUP4 PUSH2 0x6C5 JUMP JUMPDEST DUP2 ADD SUB SLT PUSH2 0xA3 JUMPI MLOAD DUP3 PUSH2 0x186 JUMP JUMPDEST POP RETURNDATASIZE PUSH2 0x19C JUMP JUMPDEST PUSH1 0x40 MLOAD RETURNDATASIZE PUSH0 DUP3 RETURNDATACOPY RETURNDATASIZE SWAP1 REVERT JUMPDEST POP POP PUSH0 PUSH2 0x9B JUMP JUMPDEST CALLVALUE PUSH2 0xA3 JUMPI PUSH1 0x80 CALLDATASIZE PUSH1 0x3 NOT ADD SLT PUSH2 0xA3 JUMPI PUSH1 0x4 CALLDATALOAD PUSH1 0x1 PUSH1 0x1 PUSH1 0xA0 SHL SUB DUP2 AND DUP2 SUB PUSH2 0xA3 JUMPI PUSH1 0x24 CALLDATALOAD SWAP1 PUSH1 0x1 PUSH1 0x1 PUSH1 0xA0 SHL SUB DUP3 AND DUP3 SUB PUSH2 0xA3 JUMPI PUSH8 0xFFFFFFFFFFFFFFFF PUSH1 0x64 CALLDATALOAD GT PUSH2 0xA3 JUMPI CALLDATASIZE PUSH1 0x23 PUSH1 0x64 CALLDATALOAD ADD SLT ISZERO PUSH2 0xA3 JUMPI PUSH8 0xFFFFFFFFFFFFFFFF PUSH1 0x64 CALLDATALOAD PUSH1 0x4 ADD CALLDATALOAD GT PUSH2 0xA3 JUMPI CALLDATASIZE PUSH1 0x24 PUSH1 0x64 CALLDATALOAD PUSH1 0x4 ADD CALLDATALOAD PUSH1 0x64 CALLDATALOAD ADD ADD GT PUSH2 0xA3 JUMPI PUSH1 0x2 PUSH0 SLOAD EQ PUSH2 0x61F JUMPI PUSH1 0x2 PUSH0 SSTORE PUSH1 0x1 SLOAD PUSH1 0x1 PUSH1 0x1 PUSH1 0xA0 SHL SUB SWAP1 DUP2 AND SWAP3 SWAP1 PUSH2 0x278 SWAP1 DUP3 AND DUP5 EQ PUSH2 0x6E7 JUMP JUMPDEST PUSH1 0xFF PUSH1 0x5 SLOAD AND PUSH1 0x3 DUP2 LT ISZERO PUSH2 0xF8 JUMPI PUSH2 0x5DA JUMPI PUSH2 0x297 PUSH1 0x44 CALLDATALOAD DUP3 PUSH2 0x75B JUMP JUMPDEST SWAP1 PUSH1 0x40 MLOAD SWAP4 PUSH4 0x70A08231 PUSH1 0xE0 SHL DUP6 MSTORE ADDRESS PUSH1 0x4 DUP7 ADD MSTORE PUSH1 0x20 DUP6 PUSH1 0x24 DUP2 DUP5 GAS STATICCALL SWAP5 DUP6 ISZERO PUSH2 0x1BC JUMPI PUSH0 SWAP6 PUSH2 0x5A6 JUMPI JUMPDEST POP PUSH1 0x40 MLOAD PUSH4 0xA9059CBB PUSH1 0xE0 SHL PUSH1 0x20 DUP3 ADD MSTORE PUSH1 0x1 PUSH1 0x1 PUSH1 0xA0 SHL SUB DUP6 AND PUSH1 0x24 DUP3 ADD MSTORE PUSH1 0x44 DUP1 CALLDATALOAD DUP2 DUP4 ADD MSTORE DUP2 MSTORE PUSH8 0xFFFFFFFFFFFFFFFF PUSH1 0x80 DUP3 ADD SWAP1 DUP2 GT SWAP1 DUP3 GT OR PUSH2 0x507 JUMPI PUSH2 0x315 SWAP2 PUSH1 0x80 DUP3 ADD PUSH1 0x40 MSTORE PUSH2 0x802 JUMP JUMPDEST PUSH1 0x40 MLOAD SWAP1 PUSH4 0x23E30C8B PUSH1 0xE0 SHL DUP3 MSTORE CALLER PUSH1 0x4 DUP4 ADD MSTORE PUSH1 0x1 DUP1 PUSH1 0xA0 SHL SUB AND PUSH1 0x24 DUP3 ADD MSTORE PUSH1 0x44 CALLDATALOAD PUSH1 0x44 DUP3 ADD MSTORE DUP2 PUSH1 0x64 DUP3 ADD MSTORE PUSH1 0xA0 PUSH1 0x84 DUP3 ADD MSTORE PUSH1 0x64 CALLDATALOAD PUSH1 0x4 ADD CALLDATALOAD PUSH1 0xA4 DUP3 ADD MSTORE PUSH1 0x64 CALLDATALOAD PUSH1 0x4 ADD CALLDATALOAD PUSH1 0x24 PUSH1 0x64 CALLDATALOAD ADD PUSH1 0xC4 DUP4 ADD CALLDATACOPY PUSH0 PUSH1 0xC4 PUSH1 0x64 CALLDATALOAD PUSH1 0x4 ADD CALLDATALOAD DUP4 ADD ADD MSTORE PUSH1 0x20 DUP2 PUSH1 0xC4 DUP2 PUSH1 0x1F NOT PUSH1 0x1F PUSH1 0x64 CALLDATALOAD PUSH1 0x4 ADD CALLDATALOAD ADD AND DUP2 ADD SUB ADD DUP2 PUSH0 PUSH1 0x1 DUP1 PUSH1 0xA0 SHL SUB DUP9 AND GAS CALL DUP1 ISZERO PUSH2 0x1BC JUMPI PUSH0 SWAP1 PUSH2 0x554 JUMPI JUMPDEST PUSH32 0x439148F0BBC682CA079E46D6E2C2F0C1E3B820F1A291B069D8882ABF8CF18DD9 SWAP2 POP SUB PUSH2 0x51B JUMPI PUSH2 0x3DD SWAP1 PUSH1 0x44 CALLDATALOAD PUSH2 0x74E JUMP JUMPDEST PUSH1 0x1 SLOAD PUSH1 0x40 MLOAD PUSH4 0x23B872DD PUSH1 0xE0 SHL PUSH1 0x20 DUP3 ADD MSTORE PUSH1 0x1 PUSH1 0x1 PUSH1 0xA0 SHL SUB SWAP4 DUP5 AND PUSH1 0x24 DUP3 ADD MSTORE ADDRESS PUSH1 0x44 DUP3 ADD MSTORE PUSH1 0x64 DUP1 DUP3 ADD SWAP4 SWAP1 SWAP4 MSTORE SWAP2 DUP3 MSTORE PUSH1 0xA0 DUP3 ADD SWAP3 AND PUSH8 0xFFFFFFFFFFFFFFFF DUP4 GT DUP3 DUP5 LT OR PUSH2 0x507 JUMPI PUSH2 0x437 SWAP3 PUSH1 0x40 MSTORE PUSH2 0x802 JUMP JUMPDEST PUSH1 0x1 SLOAD PUSH1 0x40 MLOAD PUSH4 0x70A08231 PUSH1 0xE0 SHL DUP2 MSTORE ADDRESS PUSH1 0x4 DUP3 ADD MSTORE SWAP1 PUSH1 0x20 SWAP1 DUP3 SWAP1 PUSH1 0x24 SWAP1 DUP3 SWAP1 PUSH1 0x1 PUSH1 0x1 PUSH1 0xA0 SHL SUB AND GAS STATICCALL SWAP1 DUP2 ISZERO PUSH2 0x1BC JUMPI PUSH0 SWAP2 PUSH2 0x4D5 JUMPI JUMPDEST POP LT PUSH2 0x490 JUMPI PUSH1 0xFF NOT PUSH1 0x5 SLOAD AND PUSH1 0x5 SSTORE PUSH1 0x1 PUSH0 SSTORE PUSH1 0x20 PUSH1 0x40 MLOAD PUSH1 0x1 DUP2 MSTORE RETURN JUMPDEST PUSH1 0x40 MLOAD PUSH3 0x461BCD PUSH1 0xE5 SHL DUP2 MSTORE PUSH1 0x20 PUSH1 0x4 DUP3 ADD MSTORE PUSH1 0x1B PUSH1 0x24 DUP3 ADD MSTORE PUSH32 0x466C617368206C6F616E2072657061796D656E74206661696C65640000000000 PUSH1 0x44 DUP3 ADD MSTORE PUSH1 0x64 SWAP1 REVERT JUMPDEST SWAP1 POP PUSH1 0x20 DUP2 RETURNDATASIZE PUSH1 0x20 GT PUSH2 0x4FF JUMPI JUMPDEST DUP2 PUSH2 0x4F0 PUSH1 0x20 SWAP4 DUP4 PUSH2 0x6C5 JUMP JUMPDEST DUP2 ADD SUB SLT PUSH2 0xA3 JUMPI MLOAD DUP3 PUSH2 0x471 JUMP JUMPDEST RETURNDATASIZE SWAP2 POP PUSH2 0x4E3 JUMP JUMPDEST PUSH4 0x4E487B71 PUSH1 0xE0 SHL PUSH0 MSTORE PUSH1 0x41 PUSH1 0x4 MSTORE PUSH1 0x24 PUSH0 REVERT JUMPDEST PUSH1 0x40 MLOAD PUSH3 0x461BCD PUSH1 0xE5 SHL DUP2 MSTORE PUSH1 0x20 PUSH1 0x4 DUP3 ADD MSTORE PUSH1 0x11 PUSH1 0x24 DUP3 ADD MSTORE PUSH17 0x119B185CDA081B1BD85B8819985A5B1959 PUSH1 0x7A SHL PUSH1 0x44 DUP3 ADD MSTORE PUSH1 0x64 SWAP1 REVERT JUMPDEST POP PUSH1 0x20 DUP2 RETURNDATASIZE PUSH1 0x20 GT PUSH2 0x59E JUMPI JUMPDEST DUP2 PUSH2 0x56E PUSH1 0x20 SWAP4 DUP4 PUSH2 0x6C5 JUMP JUMPDEST DUP2 ADD SUB SLT PUSH2 0xA3 JUMPI PUSH32 0x439148F0BBC682CA079E46D6E2C2F0C1E3B820F1A291B069D8882ABF8CF18DD9 SWAP1 MLOAD PUSH2 0x3A9 JUMP JUMPDEST RETURNDATASIZE SWAP2 POP PUSH2 0x561 JUMP JUMPDEST SWAP1 SWAP5 POP PUSH1 0x20 DUP2 RETURNDATASIZE PUSH1 0x20 GT PUSH2 0x5D2 JUMPI JUMPDEST DUP2 PUSH2 0x5C2 PUSH1 0x20 SWAP4 DUP4 PUSH2 0x6C5 JUMP JUMPDEST DUP2 ADD SUB SLT PUSH2 0xA3 JUMPI MLOAD SWAP4 DUP6 PUSH2 0x2C3 JUMP JUMPDEST RETURNDATASIZE SWAP2 POP PUSH2 0x5B5 JUMP JUMPDEST PUSH1 0x40 MLOAD PUSH3 0x461BCD PUSH1 0xE5 SHL DUP2 MSTORE PUSH1 0x20 PUSH1 0x4 DUP3 ADD MSTORE PUSH1 0x18 PUSH1 0x24 DUP3 ADD MSTORE PUSH32 0x466C617368206C6F616E206E6F7420617661696C61626C650000000000000000 PUSH1 0x44 DUP3 ADD MSTORE PUSH1 0x64 SWAP1 REVERT JUMPDEST PUSH1 0x40 MLOAD PUSH3 0x461BCD PUSH1 0xE5 SHL DUP2 MSTORE PUSH1 0x20 PUSH1 0x4 DUP3 ADD MSTORE PUSH1 0x1F PUSH1 0x24 DUP3 ADD MSTORE PUSH32 0x5265656E7472616E637947756172643A207265656E7472616E742063616C6C00 PUSH1 0x44 DUP3 ADD MSTORE PUSH1 0x64 SWAP1 REVERT JUMPDEST CALLVALUE PUSH2 0xA3 JUMPI PUSH0 CALLDATASIZE PUSH1 0x3 NOT ADD SLT PUSH2 0xA3 JUMPI PUSH1 0x1 SLOAD PUSH1 0x40 MLOAD PUSH1 0x1 PUSH1 0x1 PUSH1 0xA0 SHL SUB SWAP1 SWAP2 AND DUP2 MSTORE PUSH1 0x20 SWAP1 RETURN JUMPDEST CALLVALUE PUSH2 0xA3 JUMPI PUSH0 CALLDATASIZE PUSH1 0x3 NOT ADD SLT PUSH2 0xA3 JUMPI PUSH1 0x2 SLOAD PUSH1 0x1 PUSH1 0x1 PUSH1 0xA0 SHL SUB AND DUP2 MSTORE PUSH1 0x20 SWAP1 RETURN JUMPDEST PUSH1 0x4 CALLDATALOAD SWAP1 PUSH1 0x1 PUSH1 0x1 PUSH1 0xA0 SHL SUB DUP3 AND DUP3 SUB PUSH2 0xA3 JUMPI JUMP JUMPDEST SWAP1 PUSH1 0x1F DUP1 NOT SWAP2 ADD AND DUP2 ADD SWAP1 DUP2 LT PUSH8 0xFFFFFFFFFFFFFFFF DUP3 GT OR PUSH2 0x507 JUMPI PUSH1 0x40 MSTORE JUMP JUMPDEST ISZERO PUSH2 0x6EE JUMPI JUMP JUMPDEST PUSH1 0x40 MLOAD PUSH3 0x461BCD PUSH1 0xE5 SHL DUP2 MSTORE PUSH1 0x20 PUSH1 0x4 DUP3 ADD MSTORE PUSH1 0x11 PUSH1 0x24 DUP3 ADD MSTORE PUSH17 0x2AB739BAB83837B93A32B2103A37B5B2B7 PUSH1 0x79 SHL PUSH1 0x44 DUP3 ADD MSTORE PUSH1 0x64 SWAP1 REVERT JUMPDEST DUP2 DUP2 MUL SWAP3 SWAP2 DUP2 ISZERO SWAP2 DUP5 DIV EQ OR ISZERO PUSH2 0x73A JUMPI JUMP JUMPDEST PUSH4 0x4E487B71 PUSH1 0xE0 SHL PUSH0 MSTORE PUSH1 0x11 PUSH1 0x4 MSTORE PUSH1 0x24 PUSH0 REVERT JUMPDEST SWAP2 SWAP1 DUP3 ADD DUP1 SWAP3 GT PUSH2 0x73A JUMPI JUMP JUMPDEST PUSH1 0x1 SLOAD SWAP2 SWAP3 SWAP2 PUSH1 0x1 PUSH1 0x1 PUSH1 0xA0 SHL SUB SWAP2 PUSH2 0x779 SWAP2 DUP4 AND SWAP1 DUP4 AND EQ PUSH2 0x6E7 JUMP JUMPDEST PUSH2 0x2710 PUSH1 0x4 PUSH1 0x20 DUP3 PUSH2 0x78C DUP4 SLOAD DUP9 PUSH2 0x727 JUMP JUMPDEST DIV SWAP4 PUSH1 0x3 SLOAD AND PUSH1 0x40 MLOAD SWAP3 DUP4 DUP1 SWAP3 PUSH4 0x53E755B PUSH1 0xE0 SHL DUP3 MSTORE GAS STATICCALL SWAP1 DUP2 ISZERO PUSH2 0x1BC JUMPI PUSH0 SWAP2 PUSH2 0x7CC JUMPI JUMPDEST POP PUSH2 0x7C2 SWAP1 PUSH2 0x7C9 SWAP5 SWAP6 PUSH2 0x727 JUMP JUMPDEST DIV SWAP1 PUSH2 0x74E JUMP JUMPDEST SWAP1 JUMP JUMPDEST SWAP1 PUSH1 0x20 DUP3 RETURNDATASIZE DUP3 GT PUSH2 0x7FA JUMPI JUMPDEST DUP2 PUSH2 0x7E5 PUSH1 0x20 SWAP4 DUP4 PUSH2 0x6C5 JUMP JUMPDEST DUP2 ADD SUB SLT PUSH2 0x7F7 JUMPI POP MLOAD PUSH2 0x7C9 PUSH2 0x7B3 JUMP JUMPDEST DUP1 REVERT JUMPDEST RETURNDATASIZE SWAP2 POP PUSH2 0x7D8 JUMP JUMPDEST PUSH1 0x1 DUP1 PUSH1 0xA0 SHL SUB AND SWAP1 PUSH0 DUP1 DUP3 PUSH1 0x20 DUP3 SWAP5 MLOAD SWAP2 ADD DUP3 DUP7 GAS CALL RETURNDATASIZE ISZERO PUSH2 0x8CD JUMPI RETURNDATASIZE SWAP1 PUSH8 0xFFFFFFFFFFFFFFFF DUP3 GT PUSH2 0x8B9 JUMPI SWAP1 PUSH2 0x85D SWAP2 PUSH1 0x40 MLOAD SWAP2 PUSH2 0x84D PUSH1 0x20 PUSH1 0x1F NOT PUSH1 0x1F DUP5 ADD AND ADD DUP5 PUSH2 0x6C5 JUMP JUMPDEST DUP3 MSTORE RETURNDATASIZE DUP5 PUSH1 0x20 DUP5 ADD RETURNDATACOPY JUMPDEST DUP5 PUSH2 0x8D9 JUMP JUMPDEST SWAP1 DUP2 MLOAD SWAP2 DUP3 ISZERO ISZERO SWAP3 DUP4 PUSH2 0x88D JUMPI JUMPDEST POP POP POP PUSH2 0x875 JUMPI POP JUMP JUMPDEST PUSH1 0x24 SWAP1 PUSH1 0x40 MLOAD SWAP1 PUSH4 0x5274AFE7 PUSH1 0xE0 SHL DUP3 MSTORE PUSH1 0x4 DUP3 ADD MSTORE REVERT JUMPDEST DUP2 SWAP3 SWAP4 POP SWAP1 PUSH1 0x20 SWAP2 DUP2 ADD SUB SLT PUSH2 0x8B5 JUMPI PUSH1 0x20 ADD MLOAD SWAP1 DUP2 ISZERO SWAP2 DUP3 ISZERO SUB PUSH2 0x7F7 JUMPI POP PUSH0 DUP1 DUP1 PUSH2 0x86B JUMP JUMPDEST POP DUP1 REVERT JUMPDEST PUSH4 0x4E487B71 PUSH1 0xE0 SHL DUP4 MSTORE PUSH1 0x41 PUSH1 0x4 MSTORE PUSH1 0x24 DUP4 REVERT JUMPDEST PUSH2 0x85D SWAP1 PUSH1 0x60 SWAP1 PUSH2 0x857 JUMP JUMPDEST SWAP1 PUSH2 0x900 JUMPI POP DUP1 MLOAD ISZERO PUSH2 0x8EE JUMPI DUP1 MLOAD SWAP1 PUSH1 0x20 ADD REVERT JUMPDEST PUSH1 0x40 MLOAD PUSH4 0xA12F521 PUSH1 0xE1 SHL DUP2 MSTORE PUSH1 0x4 SWAP1 REVERT JUMPDEST DUP2 MLOAD ISZERO DUP1 PUSH2 0x933 JUMPI JUMPDEST PUSH2 0x911 JUMPI POP SWAP1 JUMP JUMPDEST PUSH1 0x40 MLOAD PUSH4 0x9996B315 PUSH1 0xE0 SHL DUP2 MSTORE PUSH1 0x1 PUSH1 0x1 PUSH1 0xA0 SHL SUB SWAP1 SWAP2 AND PUSH1 0x4 DUP3 ADD MSTORE PUSH1 0x24 SWAP1 REVERT JUMPDEST POP DUP1 EXTCODESIZE ISZERO PUSH2 0x909 JUMP INVALID LOG2 PUSH5 0x6970667358 0x22 SLT KECCAK256 0xA5 DUP11 0xD3 SWAP6 0x21 LOG2 PUSH24 0x6269CC347D478EB6AB1CE9BA60D4075628C8ECCB62E107AD 0xE7 PUSH5 0x736F6C6343 STOP ADDMOD EQ STOP CALLER "
				},
				"gasEstimates": {
					"creation": {
						"codeDepositCost": "483600",
						"executionCost": "infinite",
						"totalCost": "infinite"
					},
					"external": {
						"asset()": "2302",
						"feeManager()": "2412",
						"flashFee(address,uint256)": "infinite",
						"flashLoan(address,address,uint256,bytes)": "infinite",
						"flashLoanFeeRate()": "2344",
						"maxFlashLoan(address)": "infinite",
						"permit2()": "2266",
						"state()": "2408"
					},
					"internal": {
						"_executeFlashLoan(contract IERC3156FlashBorrower,address,uint256,bytes calldata)": "infinite"
					}
				},
				"methodIdentifiers": {
					"asset()": "38d52e0f",
					"feeManager()": "d0fb0203",
					"flashFee(address,uint256)": "d9d98ce4",
					"flashLoan(address,address,uint256,bytes)": "5cffe9de",
					"flashLoanFeeRate()": "8c9f305f",
					"maxFlashLoan(address)": "613255ab",
					"permit2()": "12261ee7",
					"state()": "c19d93fb"
				}
			},
			"storageLayout": {
				"storage": [
					{
						"astId": 69,
						"contract": "contracts/contracts/protocol/TuliaFlashPool.sol:TuliaFlashPool",
						"label": "_status",
						"offset": 0,
						"slot": "0",
						"type": "t_uint256"
					},
					{
						"astId": 1211,
						"contract": "contracts/contracts/protocol/TuliaFlashPool.sol:TuliaFlashPool",
						"label": "asset",
						"offset": 0,
						"slot": "1",
						"type": "t_contract(IERC20)201"
					},
					{
						"astId": 1215,
						"contract": "contracts/contracts/protocol/TuliaFlashPool.sol:TuliaFlashPool",
						"label": "permit2",
						"offset": 0,
						"slot": "2",
						"type": "t_contract(IPermit2)1049"
					},
					{
						"astId": 1219,
						"contract": "contracts/contracts/protocol/TuliaFlashPool.sol:TuliaFlashPool",
						"label": "feeManager",
						"offset": 0,
						"slot": "3",
						"type": "t_contract(IFeeManager)1037"
					},
					{
						"astId": 1222,
						"contract": "contracts/contracts/protocol/TuliaFlashPool.sol:TuliaFlashPool",
						"label": "flashLoanFeeRate",
						"offset": 0,
						"slot": "4",
						"type": "t_uint256"
					},
					{
						"astId": 1230,
						"contract": "contracts/contracts/protocol/TuliaFlashPool.sol:TuliaFlashPool",
						"label": "state",
						"offset": 0,
						"slot": "5",
						"type": "t_enum(PoolState)1227"
					}
				],
				"types": {
					"t_contract(IERC20)201": {
						"encoding": "inplace",
						"label": "contract IERC20",
						"numberOfBytes": "20"
					},
					"t_contract(IFeeManager)1037": {
						"encoding": "inplace",
						"label": "contract IFeeManager",
						"numberOfBytes": "20"
					},
					"t_contract(IPermit2)1049": {
						"encoding": "inplace",
						"label": "contract IPermit2",
						"numberOfBytes": "20"
					},
					"t_enum(PoolState)1227": {
						"encoding": "inplace",
						"label": "enum TuliaFlashPool.PoolState",
						"numberOfBytes": "1"
					},
					"t_uint256": {
						"encoding": "inplace",
						"label": "uint256",
						"numberOfBytes": "32"
					}
				}
			},
			"userdoc": {
				"kind": "user",
				"methods": {
					"asset()": {
						"notice": "ERC20 asset used for flash loans"
					},
					"constructor": {
						"notice": "Constructs the TuliaFlashPool lending pool"
					},
					"feeManager()": {
						"notice": "Contract managing the fee rates for flash loans"
					},
					"flashFee(address,uint256)": {
						"notice": "Calculates the flash loan fee for a given loan amount"
					},
					"flashLoan(address,address,uint256,bytes)": {
						"notice": "Initiates a flash loan transaction"
					},
					"flashLoanFeeRate()": {
						"notice": "Initial fee rate for flash loans issued by this pool"
					},
					"maxFlashLoan(address)": {
						"notice": "Returns the maximum loanable amount of the asset"
					},
					"permit2()": {
						"notice": "Permit2 contract utilized for permissioned token transfers"
					}
				},
				"version": 1
			}
		}
	}
}