{
	"contracts/contracts/protocol/TuliaFlashPool.sol": {
		"TuliaFlashPool": {
			"abi": [
				{
					"inputs": [
						{
							"internalType": "contract IERC20",
							"name": "_asset",
							"type": "address"
						},
						{
							"internalType": "uint256",
							"name": "_flashLoanFeeRate",
							"type": "uint256"
						},
						{
							"internalType": "contract IPoolOrganizer",
							"name": "_poolOrganizer",
							"type": "address"
						},
						{
							"internalType": "contract IFlashPoolRewardManager",
							"name": "_flashPoolRewardManager",
							"type": "address"
						},
						{
							"internalType": "uint256",
							"name": "_loanAmount",
							"type": "uint256"
						}
					],
					"stateMutability": "nonpayable",
					"type": "constructor"
				},
				{
					"inputs": [],
					"name": "AccessControlBadConfirmation",
					"type": "error"
				},
				{
					"inputs": [
						{
							"internalType": "address",
							"name": "account",
							"type": "address"
						},
						{
							"internalType": "bytes32",
							"name": "neededRole",
							"type": "bytes32"
						}
					],
					"name": "AccessControlUnauthorizedAccount",
					"type": "error"
				},
				{
					"inputs": [],
					"name": "ReentrancyGuardReentrantCall",
					"type": "error"
				},
				{
					"anonymous": false,
					"inputs": [
						{
							"indexed": true,
							"internalType": "address",
							"name": "receiver",
							"type": "address"
						},
						{
							"indexed": true,
							"internalType": "address",
							"name": "token",
							"type": "address"
						},
						{
							"indexed": false,
							"internalType": "uint256",
							"name": "amount",
							"type": "uint256"
						},
						{
							"indexed": false,
							"internalType": "uint256",
							"name": "fee",
							"type": "uint256"
						}
					],
					"name": "FlashLoanExecuted",
					"type": "event"
				},
				{
					"anonymous": false,
					"inputs": [
						{
							"indexed": true,
							"internalType": "address",
							"name": "lender",
							"type": "address"
						},
						{
							"indexed": false,
							"internalType": "uint256",
							"name": "amount",
							"type": "uint256"
						}
					],
					"name": "LoanClosed",
					"type": "event"
				},
				{
					"anonymous": false,
					"inputs": [
						{
							"indexed": true,
							"internalType": "address",
							"name": "lender",
							"type": "address"
						},
						{
							"indexed": false,
							"internalType": "uint256",
							"name": "amount",
							"type": "uint256"
						}
					],
					"name": "LoanFunded",
					"type": "event"
				},
				{
					"anonymous": false,
					"inputs": [
						{
							"indexed": true,
							"internalType": "bytes32",
							"name": "role",
							"type": "bytes32"
						},
						{
							"indexed": true,
							"internalType": "bytes32",
							"name": "previousAdminRole",
							"type": "bytes32"
						},
						{
							"indexed": true,
							"internalType": "bytes32",
							"name": "newAdminRole",
							"type": "bytes32"
						}
					],
					"name": "RoleAdminChanged",
					"type": "event"
				},
				{
					"anonymous": false,
					"inputs": [
						{
							"indexed": true,
							"internalType": "bytes32",
							"name": "role",
							"type": "bytes32"
						},
						{
							"indexed": true,
							"internalType": "address",
							"name": "account",
							"type": "address"
						},
						{
							"indexed": true,
							"internalType": "address",
							"name": "sender",
							"type": "address"
						}
					],
					"name": "RoleGranted",
					"type": "event"
				},
				{
					"anonymous": false,
					"inputs": [
						{
							"indexed": true,
							"internalType": "bytes32",
							"name": "role",
							"type": "bytes32"
						},
						{
							"indexed": true,
							"internalType": "address",
							"name": "account",
							"type": "address"
						},
						{
							"indexed": true,
							"internalType": "address",
							"name": "sender",
							"type": "address"
						}
					],
					"name": "RoleRevoked",
					"type": "event"
				},
				{
					"inputs": [],
					"name": "DEFAULT_ADMIN_ROLE",
					"outputs": [
						{
							"internalType": "bytes32",
							"name": "",
							"type": "bytes32"
						}
					],
					"stateMutability": "view",
					"type": "function"
				},
				{
					"inputs": [],
					"name": "LENDER_ROLE",
					"outputs": [
						{
							"internalType": "bytes32",
							"name": "",
							"type": "bytes32"
						}
					],
					"stateMutability": "view",
					"type": "function"
				},
				{
					"inputs": [],
					"name": "asset",
					"outputs": [
						{
							"internalType": "contract IERC20",
							"name": "",
							"type": "address"
						}
					],
					"stateMutability": "view",
					"type": "function"
				},
				{
					"inputs": [],
					"name": "closeLoan",
					"outputs": [],
					"stateMutability": "nonpayable",
					"type": "function"
				},
				{
					"inputs": [
						{
							"internalType": "address",
							"name": "token",
							"type": "address"
						},
						{
							"internalType": "uint256",
							"name": "amount",
							"type": "uint256"
						}
					],
					"name": "flashFee",
					"outputs": [
						{
							"internalType": "uint256",
							"name": "",
							"type": "uint256"
						}
					],
					"stateMutability": "view",
					"type": "function"
				},
				{
					"inputs": [
						{
							"internalType": "contract IERC3156FlashBorrower",
							"name": "receiver",
							"type": "address"
						},
						{
							"internalType": "address",
							"name": "token",
							"type": "address"
						},
						{
							"internalType": "uint256",
							"name": "amount",
							"type": "uint256"
						},
						{
							"internalType": "bytes",
							"name": "data",
							"type": "bytes"
						}
					],
					"name": "flashLoan",
					"outputs": [
						{
							"internalType": "bool",
							"name": "",
							"type": "bool"
						}
					],
					"stateMutability": "nonpayable",
					"type": "function"
				},
				{
					"inputs": [],
					"name": "flashLoanFeeRate",
					"outputs": [
						{
							"internalType": "uint256",
							"name": "",
							"type": "uint256"
						}
					],
					"stateMutability": "view",
					"type": "function"
				},
				{
					"inputs": [],
					"name": "flashPoolRewardManager",
					"outputs": [
						{
							"internalType": "contract IFlashPoolRewardManager",
							"name": "",
							"type": "address"
						}
					],
					"stateMutability": "view",
					"type": "function"
				},
				{
					"inputs": [],
					"name": "fundLoan",
					"outputs": [],
					"stateMutability": "nonpayable",
					"type": "function"
				},
				{
					"inputs": [],
					"name": "getFlashLoanState",
					"outputs": [
						{
							"internalType": "enum TuliaFlashPool.FlashLoanState",
							"name": "",
							"type": "uint8"
						}
					],
					"stateMutability": "view",
					"type": "function"
				},
				{
					"inputs": [
						{
							"internalType": "bytes32",
							"name": "role",
							"type": "bytes32"
						}
					],
					"name": "getRoleAdmin",
					"outputs": [
						{
							"internalType": "bytes32",
							"name": "",
							"type": "bytes32"
						}
					],
					"stateMutability": "view",
					"type": "function"
				},
				{
					"inputs": [
						{
							"internalType": "bytes32",
							"name": "role",
							"type": "bytes32"
						},
						{
							"internalType": "address",
							"name": "account",
							"type": "address"
						}
					],
					"name": "grantRole",
					"outputs": [],
					"stateMutability": "nonpayable",
					"type": "function"
				},
				{
					"inputs": [
						{
							"internalType": "bytes32",
							"name": "role",
							"type": "bytes32"
						},
						{
							"internalType": "address",
							"name": "account",
							"type": "address"
						}
					],
					"name": "hasRole",
					"outputs": [
						{
							"internalType": "bool",
							"name": "",
							"type": "bool"
						}
					],
					"stateMutability": "view",
					"type": "function"
				},
				{
					"inputs": [],
					"name": "lender",
					"outputs": [
						{
							"internalType": "address",
							"name": "",
							"type": "address"
						}
					],
					"stateMutability": "view",
					"type": "function"
				},
				{
					"inputs": [],
					"name": "loanAmount",
					"outputs": [
						{
							"internalType": "uint256",
							"name": "",
							"type": "uint256"
						}
					],
					"stateMutability": "view",
					"type": "function"
				},
				{
					"inputs": [
						{
							"internalType": "address",
							"name": "token",
							"type": "address"
						}
					],
					"name": "maxFlashLoan",
					"outputs": [
						{
							"internalType": "uint256",
							"name": "",
							"type": "uint256"
						}
					],
					"stateMutability": "view",
					"type": "function"
				},
				{
					"inputs": [],
					"name": "poolOrganizer",
					"outputs": [
						{
							"internalType": "contract IPoolOrganizer",
							"name": "",
							"type": "address"
						}
					],
					"stateMutability": "view",
					"type": "function"
				},
				{
					"inputs": [
						{
							"internalType": "bytes32",
							"name": "role",
							"type": "bytes32"
						},
						{
							"internalType": "address",
							"name": "callerConfirmation",
							"type": "address"
						}
					],
					"name": "renounceRole",
					"outputs": [],
					"stateMutability": "nonpayable",
					"type": "function"
				},
				{
					"inputs": [
						{
							"internalType": "bytes32",
							"name": "role",
							"type": "bytes32"
						},
						{
							"internalType": "address",
							"name": "account",
							"type": "address"
						}
					],
					"name": "revokeRole",
					"outputs": [],
					"stateMutability": "nonpayable",
					"type": "function"
				},
				{
					"inputs": [],
					"name": "state",
					"outputs": [
						{
							"internalType": "enum TuliaFlashPool.FlashLoanState",
							"name": "",
							"type": "uint8"
						}
					],
					"stateMutability": "view",
					"type": "function"
				},
				{
					"inputs": [
						{
							"internalType": "bytes4",
							"name": "interfaceId",
							"type": "bytes4"
						}
					],
					"name": "supportsInterface",
					"outputs": [
						{
							"internalType": "bool",
							"name": "",
							"type": "bool"
						}
					],
					"stateMutability": "view",
					"type": "function"
				}
			],
			"devdoc": {
				"details": "Implements flash loan functionalities with integrated fee management. This contract allows issuing flash loans backed by ERC20 tokens.",
				"errors": {
					"AccessControlBadConfirmation()": [
						{
							"details": "The caller of a function is not the expected one. NOTE: Don't confuse with {AccessControlUnauthorizedAccount}."
						}
					],
					"AccessControlUnauthorizedAccount(address,bytes32)": [
						{
							"details": "The `account` is missing a role."
						}
					],
					"ReentrancyGuardReentrantCall()": [
						{
							"details": "Unauthorized reentrant call."
						}
					]
				},
				"events": {
					"FlashLoanExecuted(address,address,uint256,uint256)": {
						"params": {
							"amount": "The loan amount",
							"fee": "The loan fee",
							"receiver": "The borrower contract",
							"token": "The ERC20 token for the loan"
						}
					},
					"LoanFunded(address,uint256)": {
						"params": {
							"amount": "The amount of the loan",
							"lender": "The address of the lender"
						}
					},
					"RoleAdminChanged(bytes32,bytes32,bytes32)": {
						"details": "Emitted when `newAdminRole` is set as ``role``'s admin role, replacing `previousAdminRole` `DEFAULT_ADMIN_ROLE` is the starting admin for all roles, despite {RoleAdminChanged} not being emitted signaling this."
					},
					"RoleGranted(bytes32,address,address)": {
						"details": "Emitted when `account` is granted `role`. `sender` is the account that originated the contract call, an admin role bearer except when using {AccessControl-_setupRole}."
					},
					"RoleRevoked(bytes32,address,address)": {
						"details": "Emitted when `account` is revoked `role`. `sender` is the account that originated the contract call:   - if using `revokeRole`, it is the admin role bearer   - if using `renounceRole`, it is the role bearer (i.e. `account`)"
					}
				},
				"kind": "dev",
				"methods": {
					"constructor": {
						"params": {
							"_asset": "The ERC20 token asset used for flash loans",
							"_flashLoanFeeRate": "The initial fee rate for flash loans issued by this pool",
							"_flashPoolRewardManager": "The FlashPool Reward Manager contract",
							"_loanAmount": "The amount of the loan to be funded",
							"_poolOrganizer": "The Pool Organizer contract"
						}
					},
					"flashFee(address,uint256)": {
						"params": {
							"amount": "The amount of the loan",
							"token": "The ERC20 token for which the fee is calculated"
						},
						"returns": {
							"_0": "The calculated fee amount"
						}
					},
					"flashLoan(address,address,uint256,bytes)": {
						"params": {
							"amount": "The amount of tokens to borrow",
							"data": "Arbitrary data passed to the borrower's `onFlashLoan` method",
							"receiver": "The borrower contract that must implement the IERC3156FlashBorrower interface",
							"token": "The ERC20 token to be borrowed"
						},
						"returns": {
							"_0": "true if the flash loan is paid back successfully within the same transaction"
						}
					},
					"getFlashLoanState()": {
						"returns": {
							"_0": "The current state of the flash loan"
						}
					},
					"getRoleAdmin(bytes32)": {
						"details": "Returns the admin role that controls `role`. See {grantRole} and {revokeRole}. To change a role's admin, use {_setRoleAdmin}."
					},
					"grantRole(bytes32,address)": {
						"details": "Grants `role` to `account`. If `account` had not been already granted `role`, emits a {RoleGranted} event. Requirements: - the caller must have ``role``'s admin role. May emit a {RoleGranted} event."
					},
					"hasRole(bytes32,address)": {
						"details": "Returns `true` if `account` has been granted `role`."
					},
					"maxFlashLoan(address)": {
						"params": {
							"token": "The ERC20 token address for which the max loan amount is queried"
						},
						"returns": {
							"_0": "The maximum amount available for a flash loan"
						}
					},
					"renounceRole(bytes32,address)": {
						"details": "Revokes `role` from the calling account. Roles are often managed via {grantRole} and {revokeRole}: this function's purpose is to provide a mechanism for accounts to lose their privileges if they are compromised (such as when a trusted device is misplaced). If the calling account had been revoked `role`, emits a {RoleRevoked} event. Requirements: - the caller must be `callerConfirmation`. May emit a {RoleRevoked} event."
					},
					"revokeRole(bytes32,address)": {
						"details": "Revokes `role` from `account`. If `account` had been granted `role`, emits a {RoleRevoked} event. Requirements: - the caller must have ``role``'s admin role. May emit a {RoleRevoked} event."
					},
					"supportsInterface(bytes4)": {
						"details": "See {IERC165-supportsInterface}."
					}
				},
				"title": "TuliaFlashPool",
				"version": 1
			},
			"evm": {
				"assembly": "    /* \"contracts/contracts/protocol/TuliaFlashPool.sol\":644:8083  contract TuliaFlashPool is IERC3156FlashLender, ReentrancyGuard, AccessControl {... */\n  0x80\n  jumpi(tag_11, callvalue)\n  0x1f\n  bytecodeSize\n  codesize\n  dup2\n  swap1\n  sub\n  swap2\n  dup3\n  add\n  not(0x1f)\n  and\n  dup4\n  add\n  swap2\n  sub(shl(0x40, 0x01), 0x01)\n  dup4\n  gt\n  dup5\n  dup5\n  lt\n  or\n  tag_3\n  jumpi\n  dup1\n  dup5\n  swap3\n  0xa0\n  swap5\n  0x40\n  mstore\n  dup4\n  codecopy\n  dup2\n  add\n  sub\n  slt\n  tag_11\n  jumpi\n  dup1\n  mload\n  sub(shl(0xa0, 0x01), 0x01)\n  dup2\n  and\n  swap2\n  swap1\n  dup3\n  swap1\n  sub\n  tag_11\n  jumpi\n  0x20\n  dup2\n  add\n  mload\n  0x40\n  dup3\n  add\n  mload\n  sub(shl(0xa0, 0x01), 0x01)\n  dup2\n  and\n  swap2\n  swap1\n  dup3\n  swap1\n  sub\n  tag_11\n  jumpi\n  0x60\n  dup4\n  add\n  mload\n  sub(shl(0xa0, 0x01), 0x01)\n  dup2\n  and\n  swap4\n  swap1\n  dup5\n  swap1\n  sub\n  tag_11\n  jumpi\n  0x80\n  add\n  mload\n  swap4\n  sstore(0x00, 0x01)\n  0x01\n  dup1\n  0xa0\n  shl\n  sub\n  not\n    /* \"contracts/contracts/protocol/TuliaFlashPool.sol\":2656:2670  asset = _asset */\n  0x02\n    /* \"contracts/contracts/protocol/TuliaFlashPool.sol\":644:8083  contract TuliaFlashPool is IERC3156FlashLender, ReentrancyGuard, AccessControl {... */\n  sload\n  and\n  or\n    /* \"contracts/contracts/protocol/TuliaFlashPool.sol\":2656:2670  asset = _asset */\n  0x02\n    /* \"contracts/contracts/protocol/TuliaFlashPool.sol\":644:8083  contract TuliaFlashPool is IERC3156FlashLender, ReentrancyGuard, AccessControl {... */\n  sstore\n    /* \"contracts/contracts/protocol/TuliaFlashPool.sol\":2680:2716  flashLoanFeeRate = _flashLoanFeeRate */\n  0x07\n    /* \"contracts/contracts/protocol/TuliaFlashPool.sol\":644:8083  contract TuliaFlashPool is IERC3156FlashLender, ReentrancyGuard, AccessControl {... */\n  sstore\n  0x01\n  dup1\n  0xa0\n  shl\n  sub\n  not\n    /* \"contracts/contracts/protocol/TuliaFlashPool.sol\":2726:2756  poolOrganizer = _poolOrganizer */\n  0x04\n    /* \"contracts/contracts/protocol/TuliaFlashPool.sol\":644:8083  contract TuliaFlashPool is IERC3156FlashLender, ReentrancyGuard, AccessControl {... */\n  sload\n  and\n  or\n    /* \"contracts/contracts/protocol/TuliaFlashPool.sol\":2726:2756  poolOrganizer = _poolOrganizer */\n  0x04\n    /* \"contracts/contracts/protocol/TuliaFlashPool.sol\":644:8083  contract TuliaFlashPool is IERC3156FlashLender, ReentrancyGuard, AccessControl {... */\n  sstore\n  0x01\n  dup1\n  0xa0\n  shl\n  sub\n  not\n    /* \"contracts/contracts/protocol/TuliaFlashPool.sol\":2766:2814  flashPoolRewardManager = _flashPoolRewardManager */\n  0x05\n    /* \"contracts/contracts/protocol/TuliaFlashPool.sol\":644:8083  contract TuliaFlashPool is IERC3156FlashLender, ReentrancyGuard, AccessControl {... */\n  sload\n  and\n  or\n    /* \"contracts/contracts/protocol/TuliaFlashPool.sol\":2766:2814  flashPoolRewardManager = _flashPoolRewardManager */\n  0x05\n    /* \"contracts/contracts/protocol/TuliaFlashPool.sol\":644:8083  contract TuliaFlashPool is IERC3156FlashLender, ReentrancyGuard, AccessControl {... */\n  sstore\n    /* \"contracts/contracts/protocol/TuliaFlashPool.sol\":2836:2860  loanAmount = _loanAmount */\n  0x03\n    /* \"contracts/contracts/protocol/TuliaFlashPool.sol\":644:8083  contract TuliaFlashPool is IERC3156FlashLender, ReentrancyGuard, AccessControl {... */\n  sstore\n  not(0xff)\n    /* \"contracts/contracts/protocol/TuliaFlashPool.sol\":2870:2906  state = FlashLoanState.UNINITIALIZED */\n  0x08\n    /* \"contracts/contracts/protocol/TuliaFlashPool.sol\":644:8083  contract TuliaFlashPool is IERC3156FlashLender, ReentrancyGuard, AccessControl {... */\n  sload\n  and\n    /* \"contracts/contracts/protocol/TuliaFlashPool.sol\":2870:2906  state = FlashLoanState.UNINITIALIZED */\n  0x08\n    /* \"contracts/contracts/protocol/TuliaFlashPool.sol\":644:8083  contract TuliaFlashPool is IERC3156FlashLender, ReentrancyGuard, AccessControl {... */\n  sstore\n  mload(0x40)\n  dataSize(sub_0)\n  swap1\n  dup2\n  dataOffset(sub_0)\n  dup3\n  codecopy\n  return\ntag_11:\n  0x00\n  dup1\n  revert\ntag_3:\n  mstore(0x00, shl(0xe0, 0x4e487b71))\n  mstore(0x04, 0x41)\n  revert(0x00, 0x24)\nstop\n\nsub_0: assembly {\n        /* \"contracts/contracts/protocol/TuliaFlashPool.sol\":644:8083  contract TuliaFlashPool is IERC3156FlashLender, ReentrancyGuard, AccessControl {... */\n      0x80\n      dup1\n      0x40\n      mstore\n      jumpi(tag_16, iszero(lt(calldatasize, 0x04)))\n      0x00\n      dup1\n      revert\n    tag_16:\n      0x00\n      swap1\n      shr(0xe0, calldataload(0x00))\n      swap1\n      dup2\n      0xabafe1\n      eq\n      tag_18\n      jumpi\n      pop\n      dup1\n      0x01ffc9a7\n      eq\n      tag_20\n      jumpi\n      dup1\n      0x232fa733\n      eq\n      tag_22\n      jumpi\n      dup1\n      0x248a9ca3\n      eq\n      tag_24\n      jumpi\n      dup1\n      0x2f2ff15d\n      eq\n      tag_26\n      jumpi\n      dup1\n      0x36568abe\n      eq\n      tag_28\n      jumpi\n      dup1\n      0x38d52e0f\n      eq\n      tag_30\n      jumpi\n      dup1\n      0x5cffe9de\n      eq\n      tag_32\n      jumpi\n      dup1\n      0x613255ab\n      eq\n      tag_34\n      jumpi\n      dup1\n      0x8c9f305f\n      eq\n      tag_36\n      jumpi\n      dup1\n      0x8db57994\n      eq\n      tag_38\n      jumpi\n      dup1\n      0x91d14854\n      eq\n      tag_40\n      jumpi\n      dup1\n      0x9d585f7f\n      eq\n      tag_42\n      jumpi\n      dup1\n      0xa217fddf\n      eq\n      tag_44\n      jumpi\n      dup1\n      0xbcead63e\n      eq\n      tag_46\n      jumpi\n      dup1\n      0xc19d93fb\n      eq\n      tag_52\n      jumpi\n      dup1\n      0xc51b9507\n      eq\n      tag_50\n      jumpi\n      dup1\n      0xc694b54c\n      eq\n      tag_52\n      jumpi\n      dup1\n      0xc9c36353\n      eq\n      tag_54\n      jumpi\n      dup1\n      0xd547741f\n      eq\n      tag_56\n      jumpi\n      0xd9d98ce4\n      eq\n      tag_58\n      jumpi\n      0x00\n      dup1\n      revert\n    tag_58:\n      jumpi(tag_62, callvalue)\n      jumpi(tag_62, slt(add(not(0x03), calldatasize), 0x40))\n      0x20\n      tag_64\n      tag_65\n      tag_2\n      jump\t// in\n    tag_65:\n      calldataload(0x24)\n      swap1\n      tag_10\n      jump\t// in\n    tag_64:\n      mload(0x40)\n      swap1\n      dup2\n      mstore\n      return\n    tag_62:\n      dup1\n      revert\n    tag_56:\n      pop\n      jumpi(tag_62, callvalue)\n      jumpi(tag_62, slt(add(not(0x03), calldatasize), 0x40))\n        /* \"@openzeppelin/contracts/access/AccessControl.sol\":4747:4773  _revokeRole(role, account) */\n      tag_70\n        /* \"contracts/contracts/protocol/TuliaFlashPool.sol\":644:8083  contract TuliaFlashPool is IERC3156FlashLender, ReentrancyGuard, AccessControl {... */\n      calldataload(0x04)\n      tag_71\n      tag_1\n      jump\t// in\n    tag_71:\n        /* \"@openzeppelin/contracts/access/AccessControl.sol\":4717:4735  getRoleAdmin(role) */\n      swap1\n        /* \"@openzeppelin/contracts/access/AccessControl.sol\":2475:2479  role */\n      tag_72\n        /* \"@openzeppelin/contracts/access/AccessControl.sol\":4717:4735  getRoleAdmin(role) */\n      tag_73\n      dup3\n      0x00\n        /* \"contracts/contracts/protocol/TuliaFlashPool.sol\":644:8083  contract TuliaFlashPool is IERC3156FlashLender, ReentrancyGuard, AccessControl {... */\n      mstore\n        /* \"@openzeppelin/contracts/access/AccessControl.sol\":3901:3907  _roles */\n      0x01\n        /* \"contracts/contracts/protocol/TuliaFlashPool.sol\":644:8083  contract TuliaFlashPool is IERC3156FlashLender, ReentrancyGuard, AccessControl {... */\n      0x20\n      mstore\n        /* \"@openzeppelin/contracts/access/AccessControl.sol\":3901:3907  _roles */\n      0x01\n        /* \"contracts/contracts/protocol/TuliaFlashPool.sol\":644:8083  contract TuliaFlashPool is IERC3156FlashLender, ReentrancyGuard, AccessControl {... */\n      keccak256(0x00, 0x40)\n        /* \"@openzeppelin/contracts/access/AccessControl.sol\":3901:3923  _roles[role].adminRole */\n      add\n        /* \"contracts/contracts/protocol/TuliaFlashPool.sol\":644:8083  contract TuliaFlashPool is IERC3156FlashLender, ReentrancyGuard, AccessControl {... */\n      sload\n        /* \"@openzeppelin/contracts/access/AccessControl.sol\":3810:3930  function getRoleAdmin(bytes32 role) public view virtual returns (bytes32) {... */\n      swap1\n      jump\n        /* \"@openzeppelin/contracts/access/AccessControl.sol\":4717:4735  getRoleAdmin(role) */\n    tag_73:\n        /* \"@openzeppelin/contracts/access/AccessControl.sol\":2475:2479  role */\n      tag_12\n      jump\t// in\n    tag_72:\n        /* \"@openzeppelin/contracts/access/AccessControl.sol\":4747:4773  _revokeRole(role, account) */\n      tag_15\n      jump\t// in\n    tag_70:\n      pop\n        /* \"contracts/contracts/protocol/TuliaFlashPool.sol\":644:8083  contract TuliaFlashPool is IERC3156FlashLender, ReentrancyGuard, AccessControl {... */\n      dup1\n      return\n    tag_54:\n      pop\n      jumpi(tag_62, callvalue)\n      dup1\n      add(calldatasize, not(0x03))\n      slt\n      tag_62\n      jumpi\n        /* \"contracts/contracts/protocol/TuliaFlashPool.sol\":877:930  IFlashPoolRewardManager public flashPoolRewardManager */\n      0x05\n        /* \"contracts/contracts/protocol/TuliaFlashPool.sol\":644:8083  contract TuliaFlashPool is IERC3156FlashLender, ReentrancyGuard, AccessControl {... */\n      sload\n      mload(0x40)\n      sub(shl(0xa0, 0x01), 0x01)\n      swap1\n      swap2\n      and\n      dup2\n      mstore\n      0x20\n      swap1\n      return\n    tag_52:\n      pop\n      jumpi(tag_62, callvalue)\n      dup1\n      add(calldatasize, not(0x03))\n      slt\n      tag_62\n      jumpi\n      tag_82\n      0xff\n        /* \"contracts/contracts/protocol/TuliaFlashPool.sol\":8069:8074  state */\n      0x08\n        /* \"contracts/contracts/protocol/TuliaFlashPool.sol\":644:8083  contract TuliaFlashPool is IERC3156FlashLender, ReentrancyGuard, AccessControl {... */\n      sload\n      and\n      mload(0x40)\n      swap2\n      dup3\n      swap2\n      dup3\n      tag_3\n      jump\t// in\n    tag_82:\n      sub\n      swap1\n      return\n    tag_50:\n      pop\n      jumpi(tag_62, callvalue)\n      dup1\n      add(calldatasize, not(0x03))\n      slt\n      tag_62\n      jumpi\n      sload(0x04)\n      mload(0x40)\n      sub(shl(0xa0, 0x01), 0x01)\n      swap1\n      swap2\n      and\n      dup2\n      mstore\n      0x20\n      swap1\n      return\n    tag_46:\n      pop\n      jumpi(tag_62, callvalue)\n      dup1\n      add(calldatasize, not(0x03))\n      slt\n      tag_62\n      jumpi\n        /* \"contracts/contracts/protocol/TuliaFlashPool.sol\":1005:1026  address public lender */\n      0x06\n        /* \"contracts/contracts/protocol/TuliaFlashPool.sol\":644:8083  contract TuliaFlashPool is IERC3156FlashLender, ReentrancyGuard, AccessControl {... */\n      sload\n      mload(0x40)\n      sub(shl(0xa0, 0x01), 0x01)\n      swap1\n      swap2\n      and\n      dup2\n      mstore\n      0x20\n      swap1\n      return\n    tag_44:\n      pop\n      jumpi(tag_62, callvalue)\n      dup1\n      add(calldatasize, not(0x03))\n      slt\n      tag_62\n      jumpi\n      0x20\n      swap1\n      mload(0x40)\n      swap1\n      dup2\n      mstore\n      return\n    tag_42:\n      pop\n      jumpi(tag_62, callvalue)\n      dup1\n      add(calldatasize, not(0x03))\n      slt\n      tag_62\n      jumpi\n      0x20\n        /* \"contracts/contracts/protocol/TuliaFlashPool.sol\":805:830  uint256 public loanAmount */\n      0x03\n        /* \"contracts/contracts/protocol/TuliaFlashPool.sol\":644:8083  contract TuliaFlashPool is IERC3156FlashLender, ReentrancyGuard, AccessControl {... */\n      sload\n      mload(0x40)\n      swap1\n      dup2\n      mstore\n      return\n    tag_40:\n      pop\n      jumpi(tag_62, callvalue)\n      jumpi(tag_62, slt(add(not(0x03), calldatasize), 0x40))\n      0x40\n      tag_108\n      tag_1\n      jump\t// in\n    tag_108:\n      swap2\n      calldataload(0x04)\n      dup2\n      mstore\n      mstore(0x20, 0x01)\n      keccak256\n        /* \"@openzeppelin/contracts/access/AccessControl.sol\":2954:2983  _roles[role].hasRole[account] */\n      swap1\n        /* \"contracts/contracts/protocol/TuliaFlashPool.sol\":644:8083  contract TuliaFlashPool is IERC3156FlashLender, ReentrancyGuard, AccessControl {... */\n      0x01\n      dup1\n      0xa0\n      shl\n      sub\n      and\n      0x00\n      mstore\n      0x20\n      mstore\n      0x20\n      and(sload(keccak256(0x00, 0x40)), 0xff)\n      mload(0x40)\n      swap1\n      iszero\n      iszero\n      dup2\n      mstore\n      return\n    tag_38:\n      pop\n      jumpi(tag_62, callvalue)\n      dup1\n      add(calldatasize, not(0x03))\n      slt\n      tag_62\n      jumpi\n        /* \"@openzeppelin/contracts/utils/ReentrancyGuard.sol\":2322:2425  modifier nonReentrant() {... */\n      tag_113\n      tag_11\n      jump\t// in\n    tag_113:\n        /* \"contracts/contracts/protocol/TuliaFlashPool.sol\":644:8083  contract TuliaFlashPool is IERC3156FlashLender, ReentrancyGuard, AccessControl {... */\n      0xff\n        /* \"contracts/contracts/protocol/TuliaFlashPool.sol\":3068:3073  state */\n      0x08\n        /* \"contracts/contracts/protocol/TuliaFlashPool.sol\":644:8083  contract TuliaFlashPool is IERC3156FlashLender, ReentrancyGuard, AccessControl {... */\n      sload\n      and\n      0x03\n      dup2\n      lt\n      iszero\n      tag_114\n      jumpi\n      tag_116\n      jumpi\n        /* \"contracts/contracts/protocol/TuliaFlashPool.sol\":3142:3161  lender = msg.sender */\n      0x06\n        /* \"contracts/contracts/protocol/TuliaFlashPool.sol\":644:8083  contract TuliaFlashPool is IERC3156FlashLender, ReentrancyGuard, AccessControl {... */\n      dup1\n      sload\n      not(sub(shl(0xa0, 0x01), 0x01))\n      and\n        /* \"contracts/contracts/protocol/TuliaFlashPool.sol\":3151:3161  msg.sender */\n      caller\n        /* \"contracts/contracts/protocol/TuliaFlashPool.sol\":644:8083  contract TuliaFlashPool is IERC3156FlashLender, ReentrancyGuard, AccessControl {... */\n      swap1\n      dup2\n      or\n      swap1\n      swap2\n      sstore\n        /* \"contracts/contracts/protocol/TuliaFlashPool.sol\":3226:3231  asset */\n      0x02\n        /* \"contracts/contracts/protocol/TuliaFlashPool.sol\":644:8083  contract TuliaFlashPool is IERC3156FlashLender, ReentrancyGuard, AccessControl {... */\n      sload\n      mload(0x40)\n      shl(0xe0, 0x70a08231)\n        /* \"contracts/contracts/protocol/TuliaFlashPool.sol\":3226:3253  asset.balanceOf(msg.sender) */\n      dup2\n      mstore\n        /* \"contracts/contracts/protocol/TuliaFlashPool.sol\":644:8083  contract TuliaFlashPool is IERC3156FlashLender, ReentrancyGuard, AccessControl {... */\n      0x04\n        /* \"contracts/contracts/protocol/TuliaFlashPool.sol\":3226:3253  asset.balanceOf(msg.sender) */\n      dup2\n      add\n        /* \"contracts/contracts/protocol/TuliaFlashPool.sol\":644:8083  contract TuliaFlashPool is IERC3156FlashLender, ReentrancyGuard, AccessControl {... */\n      swap3\n      swap1\n      swap3\n      mstore\n      sub(shl(0xa0, 0x01), 0x01)\n      and\n      0x20\n      dup3\n        /* \"contracts/contracts/protocol/TuliaFlashPool.sol\":3226:3253  asset.balanceOf(msg.sender) */\n      0x24\n        /* \"contracts/contracts/protocol/TuliaFlashPool.sol\":644:8083  contract TuliaFlashPool is IERC3156FlashLender, ReentrancyGuard, AccessControl {... */\n      dup2\n      dup5\n        /* \"contracts/contracts/protocol/TuliaFlashPool.sol\":3226:3253  asset.balanceOf(msg.sender) */\n      gas\n      staticcall\n      swap2\n      dup3\n      iszero\n      tag_118\n      jumpi\n      dup4\n      swap3\n      tag_120\n      jumpi\n        /* \"contracts/contracts/protocol/TuliaFlashPool.sol\":644:8083  contract TuliaFlashPool is IERC3156FlashLender, ReentrancyGuard, AccessControl {... */\n    tag_121:\n      pop\n      sload(0x03)\n        /* \"contracts/contracts/protocol/TuliaFlashPool.sol\":3226:3267  asset.balanceOf(msg.sender) >= loanAmount */\n      dup1\n      swap3\n      lt\n        /* \"contracts/contracts/protocol/TuliaFlashPool.sol\":644:8083  contract TuliaFlashPool is IERC3156FlashLender, ReentrancyGuard, AccessControl {... */\n      tag_122\n      jumpi\n      mload(0x40)\n      shl(0xe1, 0x6eb1769f)\n        /* \"contracts/contracts/protocol/TuliaFlashPool.sol\":3391:3433  asset.allowance(msg.sender, address(this)) */\n      dup2\n      mstore\n        /* \"contracts/contracts/protocol/TuliaFlashPool.sol\":3151:3161  msg.sender */\n      caller\n        /* \"contracts/contracts/protocol/TuliaFlashPool.sol\":644:8083  contract TuliaFlashPool is IERC3156FlashLender, ReentrancyGuard, AccessControl {... */\n      0x04\n        /* \"contracts/contracts/protocol/TuliaFlashPool.sol\":3391:3433  asset.allowance(msg.sender, address(this)) */\n      dup3\n      add\n        /* \"contracts/contracts/protocol/TuliaFlashPool.sol\":644:8083  contract TuliaFlashPool is IERC3156FlashLender, ReentrancyGuard, AccessControl {... */\n      mstore\n        /* \"contracts/contracts/protocol/TuliaFlashPool.sol\":3427:3431  this */\n      address\n        /* \"contracts/contracts/protocol/TuliaFlashPool.sol\":3226:3253  asset.balanceOf(msg.sender) */\n      0x24\n        /* \"contracts/contracts/protocol/TuliaFlashPool.sol\":644:8083  contract TuliaFlashPool is IERC3156FlashLender, ReentrancyGuard, AccessControl {... */\n      dup3\n      add\n      mstore\n      0x20\n      dup2\n        /* \"contracts/contracts/protocol/TuliaFlashPool.sol\":3391:3433  asset.allowance(msg.sender, address(this)) */\n      0x44\n        /* \"contracts/contracts/protocol/TuliaFlashPool.sol\":644:8083  contract TuliaFlashPool is IERC3156FlashLender, ReentrancyGuard, AccessControl {... */\n      dup2\n        /* \"contracts/contracts/protocol/TuliaFlashPool.sol\":3391:3433  asset.allowance(msg.sender, address(this)) */\n      dup6\n      gas\n      staticcall\n      dup1\n      iszero\n      tag_124\n      jumpi\n      dup4\n      swap2\n      dup6\n      swap2\n      tag_126\n      jumpi\n        /* \"contracts/contracts/protocol/TuliaFlashPool.sol\":644:8083  contract TuliaFlashPool is IERC3156FlashLender, ReentrancyGuard, AccessControl {... */\n    tag_127:\n        /* \"contracts/contracts/protocol/TuliaFlashPool.sol\":3391:3447  asset.allowance(msg.sender, address(this)) >= loanAmount */\n      pop\n      lt\n        /* \"contracts/contracts/protocol/TuliaFlashPool.sol\":644:8083  contract TuliaFlashPool is IERC3156FlashLender, ReentrancyGuard, AccessControl {... */\n      tag_128\n      jumpi\n      mload(0x40)\n      shl(0xe0, 0x23b872dd)\n        /* \"contracts/contracts/protocol/TuliaFlashPool.sol\":3541:3598  asset.transferFrom(msg.sender, address(this), loanAmount) */\n      dup2\n      mstore\n        /* \"contracts/contracts/protocol/TuliaFlashPool.sol\":3151:3161  msg.sender */\n      caller\n        /* \"contracts/contracts/protocol/TuliaFlashPool.sol\":644:8083  contract TuliaFlashPool is IERC3156FlashLender, ReentrancyGuard, AccessControl {... */\n      0x04\n        /* \"contracts/contracts/protocol/TuliaFlashPool.sol\":3541:3598  asset.transferFrom(msg.sender, address(this), loanAmount) */\n      dup3\n      add\n        /* \"contracts/contracts/protocol/TuliaFlashPool.sol\":644:8083  contract TuliaFlashPool is IERC3156FlashLender, ReentrancyGuard, AccessControl {... */\n      mstore\n        /* \"contracts/contracts/protocol/TuliaFlashPool.sol\":3427:3431  this */\n      address\n        /* \"contracts/contracts/protocol/TuliaFlashPool.sol\":644:8083  contract TuliaFlashPool is IERC3156FlashLender, ReentrancyGuard, AccessControl {... */\n      0x24\n      dup3\n      add\n      mstore\n      0x44\n      dup2\n      add\n      swap3\n      swap1\n      swap3\n      mstore\n      0x20\n      swap1\n      dup3\n      swap1\n      0x64\n      swap1\n      dup3\n      swap1\n      dup7\n      swap1\n        /* \"contracts/contracts/protocol/TuliaFlashPool.sol\":3541:3598  asset.transferFrom(msg.sender, address(this), loanAmount) */\n      gas\n      call\n      dup1\n      iszero\n      tag_136\n      jumpi\n      tag_133\n      jumpi\n        /* \"contracts/contracts/protocol/TuliaFlashPool.sol\":644:8083  contract TuliaFlashPool is IERC3156FlashLender, ReentrancyGuard, AccessControl {... */\n    tag_134:\n      pop\n        /* \"contracts/contracts/protocol/TuliaFlashPool.sol\":3638:3660  flashPoolRewardManager */\n      0x05\n        /* \"contracts/contracts/protocol/TuliaFlashPool.sol\":644:8083  contract TuliaFlashPool is IERC3156FlashLender, ReentrancyGuard, AccessControl {... */\n      sload\n        /* \"contracts/contracts/protocol/TuliaFlashPool.sol\":3226:3231  asset */\n      0x02\n        /* \"contracts/contracts/protocol/TuliaFlashPool.sol\":644:8083  contract TuliaFlashPool is IERC3156FlashLender, ReentrancyGuard, AccessControl {... */\n      sload\n      sload(0x03)\n      mload(0x40)\n      shl(0xe0, 0x51c15721)\n        /* \"contracts/contracts/protocol/TuliaFlashPool.sol\":3638:3716  flashPoolRewardManager.registerPool(address(this), address(asset), loanAmount) */\n      dup2\n      mstore\n        /* \"contracts/contracts/protocol/TuliaFlashPool.sol\":3427:3431  this */\n      address\n        /* \"contracts/contracts/protocol/TuliaFlashPool.sol\":644:8083  contract TuliaFlashPool is IERC3156FlashLender, ReentrancyGuard, AccessControl {... */\n      0x04\n        /* \"contracts/contracts/protocol/TuliaFlashPool.sol\":3638:3716  flashPoolRewardManager.registerPool(address(this), address(asset), loanAmount) */\n      dup3\n      add\n        /* \"contracts/contracts/protocol/TuliaFlashPool.sol\":644:8083  contract TuliaFlashPool is IERC3156FlashLender, ReentrancyGuard, AccessControl {... */\n      mstore\n      sub(shl(0xa0, 0x01), 0x01)\n      swap3\n      dup4\n      and\n      0x24\n      dup3\n      add\n      mstore\n      0x44\n      dup2\n      add\n      swap2\n      swap1\n      swap2\n      mstore\n      swap2\n      0x20\n      swap2\n      dup4\n      swap2\n      0x64\n      swap2\n      dup4\n      swap2\n      dup8\n      swap2\n      and\n        /* \"contracts/contracts/protocol/TuliaFlashPool.sol\":3638:3716  flashPoolRewardManager.registerPool(address(this), address(asset), loanAmount) */\n      gas\n      call\n      dup1\n      iszero\n      tag_136\n      jumpi\n      tag_138\n      jumpi\n        /* \"contracts/contracts/protocol/TuliaFlashPool.sol\":644:8083  contract TuliaFlashPool is IERC3156FlashLender, ReentrancyGuard, AccessControl {... */\n    tag_139:\n        /* \"contracts/contracts/protocol/TuliaFlashPool.sol\":3151:3161  msg.sender */\n      pop\n        /* \"contracts/contracts/protocol/TuliaFlashPool.sol\":3749:3784  _grantRole(LENDER_ROLE, msg.sender) */\n      tag_140\n        /* \"contracts/contracts/protocol/TuliaFlashPool.sol\":3151:3161  msg.sender */\n      caller\n        /* \"contracts/contracts/protocol/TuliaFlashPool.sol\":3749:3784  _grantRole(LENDER_ROLE, msg.sender) */\n      tag_13\n      jump\t// in\n    tag_140:\n      pop\n        /* \"contracts/contracts/protocol/TuliaFlashPool.sol\":644:8083  contract TuliaFlashPool is IERC3156FlashLender, ReentrancyGuard, AccessControl {... */\n      0x01\n      not(0xff)\n        /* \"contracts/contracts/protocol/TuliaFlashPool.sol\":3068:3073  state */\n      0x08\n        /* \"contracts/contracts/protocol/TuliaFlashPool.sol\":644:8083  contract TuliaFlashPool is IERC3156FlashLender, ReentrancyGuard, AccessControl {... */\n      sload\n      and\n      or\n        /* \"contracts/contracts/protocol/TuliaFlashPool.sol\":3068:3073  state */\n      0x08\n        /* \"contracts/contracts/protocol/TuliaFlashPool.sol\":644:8083  contract TuliaFlashPool is IERC3156FlashLender, ReentrancyGuard, AccessControl {... */\n      sstore\n      sload(0x03)\n      mload(0x40)\n      swap1\n      dup2\n      mstore\n        /* \"contracts/contracts/protocol/TuliaFlashPool.sol\":3863:3897  LoanFunded(msg.sender, loanAmount) */\n      0x726d5f1a838fe31748f737fa3ae5539ccff95952adfc593a1299532b643ff7a8\n        /* \"contracts/contracts/protocol/TuliaFlashPool.sol\":644:8083  contract TuliaFlashPool is IERC3156FlashLender, ReentrancyGuard, AccessControl {... */\n      0x20\n        /* \"contracts/contracts/protocol/TuliaFlashPool.sol\":3151:3161  msg.sender */\n      caller\n        /* \"contracts/contracts/protocol/TuliaFlashPool.sol\":3863:3897  LoanFunded(msg.sender, loanAmount) */\n      swap3\n      log2\n        /* \"contracts/contracts/protocol/TuliaFlashPool.sol\":644:8083  contract TuliaFlashPool is IERC3156FlashLender, ReentrancyGuard, AccessControl {... */\n      0x01\n        /* \"@openzeppelin/contracts/utils/ReentrancyGuard.sol\":1755:1756  2 */\n      dup2\n      sstore\n        /* \"contracts/contracts/protocol/TuliaFlashPool.sol\":644:8083  contract TuliaFlashPool is IERC3156FlashLender, ReentrancyGuard, AccessControl {... */\n      dup1\n      return\n        /* \"contracts/contracts/protocol/TuliaFlashPool.sol\":3638:3716  flashPoolRewardManager.registerPool(address(this), address(asset), loanAmount) */\n    tag_138:\n      tag_141\n      swap1\n        /* \"contracts/contracts/protocol/TuliaFlashPool.sol\":644:8083  contract TuliaFlashPool is IERC3156FlashLender, ReentrancyGuard, AccessControl {... */\n      0x20\n        /* \"contracts/contracts/protocol/TuliaFlashPool.sol\":3638:3716  flashPoolRewardManager.registerPool(address(this), address(asset), loanAmount) */\n      returndatasize\n        /* \"contracts/contracts/protocol/TuliaFlashPool.sol\":644:8083  contract TuliaFlashPool is IERC3156FlashLender, ReentrancyGuard, AccessControl {... */\n      0x20\n        /* \"contracts/contracts/protocol/TuliaFlashPool.sol\":3638:3716  flashPoolRewardManager.registerPool(address(this), address(asset), loanAmount) */\n      gt\n      tag_142\n      jumpi\n    tag_143:\n      tag_144\n      dup2\n      dup4\n      tag_4\n      jump\t// in\n    tag_144:\n      dup2\n      add\n      swap1\n      tag_5\n      jump\t// in\n    tag_141:\n      jump(tag_139)\n    tag_142:\n      pop\n      returndatasize\n      jump(tag_143)\n    tag_136:\n        /* \"contracts/contracts/protocol/TuliaFlashPool.sol\":644:8083  contract TuliaFlashPool is IERC3156FlashLender, ReentrancyGuard, AccessControl {... */\n      mload(0x40)\n      returndatasize\n      dup5\n      dup3\n      returndatacopy\n      returndatasize\n      swap1\n      revert\n        /* \"contracts/contracts/protocol/TuliaFlashPool.sol\":3541:3598  asset.transferFrom(msg.sender, address(this), loanAmount) */\n    tag_133:\n      tag_145\n      swap1\n        /* \"contracts/contracts/protocol/TuliaFlashPool.sol\":644:8083  contract TuliaFlashPool is IERC3156FlashLender, ReentrancyGuard, AccessControl {... */\n      0x20\n        /* \"contracts/contracts/protocol/TuliaFlashPool.sol\":3541:3598  asset.transferFrom(msg.sender, address(this), loanAmount) */\n      returndatasize\n        /* \"contracts/contracts/protocol/TuliaFlashPool.sol\":644:8083  contract TuliaFlashPool is IERC3156FlashLender, ReentrancyGuard, AccessControl {... */\n      0x20\n        /* \"contracts/contracts/protocol/TuliaFlashPool.sol\":3541:3598  asset.transferFrom(msg.sender, address(this), loanAmount) */\n      gt\n      tag_142\n      jumpi\n      tag_144\n      dup2\n      dup4\n      tag_4\n      jump\t// in\n    tag_145:\n      jump(tag_134)\n        /* \"contracts/contracts/protocol/TuliaFlashPool.sol\":644:8083  contract TuliaFlashPool is IERC3156FlashLender, ReentrancyGuard, AccessControl {... */\n    tag_128:\n      mload(0x40)\n      shl(0xe5, 0x461bcd)\n      dup2\n      mstore\n      0x20\n      0x04\n      dup3\n      add\n      mstore\n      0x23\n        /* \"contracts/contracts/protocol/TuliaFlashPool.sol\":3226:3253  asset.balanceOf(msg.sender) */\n      0x24\n        /* \"contracts/contracts/protocol/TuliaFlashPool.sol\":644:8083  contract TuliaFlashPool is IERC3156FlashLender, ReentrancyGuard, AccessControl {... */\n      dup3\n      add\n      mstore\n      0x416c6c6f77616e6365206e6f742073657420666f72207468697320636f6e7472\n        /* \"contracts/contracts/protocol/TuliaFlashPool.sol\":3391:3433  asset.allowance(msg.sender, address(this)) */\n      0x44\n        /* \"contracts/contracts/protocol/TuliaFlashPool.sol\":644:8083  contract TuliaFlashPool is IERC3156FlashLender, ReentrancyGuard, AccessControl {... */\n      dup3\n      add\n      mstore\n      shl(0xea, 0x1858dd)\n      0x64\n      dup3\n      add\n      mstore\n      0x84\n      swap1\n      revert\n        /* \"contracts/contracts/protocol/TuliaFlashPool.sol\":3391:3433  asset.allowance(msg.sender, address(this)) */\n    tag_126:\n      swap2\n      pop\n      pop\n        /* \"contracts/contracts/protocol/TuliaFlashPool.sol\":644:8083  contract TuliaFlashPool is IERC3156FlashLender, ReentrancyGuard, AccessControl {... */\n      0x20\n        /* \"contracts/contracts/protocol/TuliaFlashPool.sol\":3391:3433  asset.allowance(msg.sender, address(this)) */\n      dup2\n      returndatasize\n        /* \"contracts/contracts/protocol/TuliaFlashPool.sol\":644:8083  contract TuliaFlashPool is IERC3156FlashLender, ReentrancyGuard, AccessControl {... */\n      0x20\n        /* \"contracts/contracts/protocol/TuliaFlashPool.sol\":3391:3433  asset.allowance(msg.sender, address(this)) */\n      gt\n      tag_149\n      jumpi\n    tag_150:\n      dup2\n      tag_151\n        /* \"contracts/contracts/protocol/TuliaFlashPool.sol\":644:8083  contract TuliaFlashPool is IERC3156FlashLender, ReentrancyGuard, AccessControl {... */\n      0x20\n        /* \"contracts/contracts/protocol/TuliaFlashPool.sol\":3391:3433  asset.allowance(msg.sender, address(this)) */\n      swap4\n      dup4\n      tag_4\n      jump\t// in\n    tag_151:\n      dup2\n      add\n        /* \"contracts/contracts/protocol/TuliaFlashPool.sol\":644:8083  contract TuliaFlashPool is IERC3156FlashLender, ReentrancyGuard, AccessControl {... */\n      sub\n      slt\n      tag_152\n      jumpi\n      dup3\n      swap1\n      mload\n        /* \"contracts/contracts/protocol/TuliaFlashPool.sol\":3391:3433  asset.allowance(msg.sender, address(this)) */\n      0x00\n      jump(tag_127)\n        /* \"contracts/contracts/protocol/TuliaFlashPool.sol\":644:8083  contract TuliaFlashPool is IERC3156FlashLender, ReentrancyGuard, AccessControl {... */\n    tag_152:\n      0x00\n      dup1\n      revert\n        /* \"contracts/contracts/protocol/TuliaFlashPool.sol\":3391:3433  asset.allowance(msg.sender, address(this)) */\n    tag_149:\n      returndatasize\n      swap2\n      pop\n      jump(tag_150)\n    tag_124:\n        /* \"contracts/contracts/protocol/TuliaFlashPool.sol\":644:8083  contract TuliaFlashPool is IERC3156FlashLender, ReentrancyGuard, AccessControl {... */\n      mload(0x40)\n      returndatasize\n      dup7\n      dup3\n      returndatacopy\n      returndatasize\n      swap1\n      revert\n    tag_122:\n      mload(0x40)\n      shl(0xe5, 0x461bcd)\n      dup2\n      mstore\n      0x20\n      0x04\n      dup3\n      add\n      mstore\n      0x25\n        /* \"contracts/contracts/protocol/TuliaFlashPool.sol\":3226:3253  asset.balanceOf(msg.sender) */\n      0x24\n        /* \"contracts/contracts/protocol/TuliaFlashPool.sol\":644:8083  contract TuliaFlashPool is IERC3156FlashLender, ReentrancyGuard, AccessControl {... */\n      dup3\n      add\n      mstore\n      0x496e73756666696369656e742062616c616e636520746f2066756e6420746865\n      0x44\n      dup3\n      add\n      mstore\n      shl(0xd9, 0x103637b0b7)\n      0x64\n      dup3\n      add\n      mstore\n      0x84\n      swap1\n      revert\n        /* \"contracts/contracts/protocol/TuliaFlashPool.sol\":3226:3253  asset.balanceOf(msg.sender) */\n    tag_120:\n      swap1\n      swap2\n      pop\n        /* \"contracts/contracts/protocol/TuliaFlashPool.sol\":644:8083  contract TuliaFlashPool is IERC3156FlashLender, ReentrancyGuard, AccessControl {... */\n      0x20\n        /* \"contracts/contracts/protocol/TuliaFlashPool.sol\":3226:3253  asset.balanceOf(msg.sender) */\n      dup2\n      returndatasize\n        /* \"contracts/contracts/protocol/TuliaFlashPool.sol\":644:8083  contract TuliaFlashPool is IERC3156FlashLender, ReentrancyGuard, AccessControl {... */\n      0x20\n        /* \"contracts/contracts/protocol/TuliaFlashPool.sol\":3226:3253  asset.balanceOf(msg.sender) */\n      gt\n      tag_154\n      jumpi\n    tag_155:\n      dup2\n      tag_156\n        /* \"contracts/contracts/protocol/TuliaFlashPool.sol\":644:8083  contract TuliaFlashPool is IERC3156FlashLender, ReentrancyGuard, AccessControl {... */\n      0x20\n        /* \"contracts/contracts/protocol/TuliaFlashPool.sol\":3226:3253  asset.balanceOf(msg.sender) */\n      swap4\n      dup4\n      tag_4\n      jump\t// in\n    tag_156:\n      dup2\n      add\n        /* \"contracts/contracts/protocol/TuliaFlashPool.sol\":644:8083  contract TuliaFlashPool is IERC3156FlashLender, ReentrancyGuard, AccessControl {... */\n      sub\n      slt\n      tag_152\n      jumpi\n      mload\n        /* \"contracts/contracts/protocol/TuliaFlashPool.sol\":3226:3253  asset.balanceOf(msg.sender) */\n      swap1\n      0x00\n      jump(tag_121)\n    tag_154:\n      returndatasize\n      swap2\n      pop\n      jump(tag_155)\n    tag_118:\n        /* \"contracts/contracts/protocol/TuliaFlashPool.sol\":644:8083  contract TuliaFlashPool is IERC3156FlashLender, ReentrancyGuard, AccessControl {... */\n      mload(0x40)\n      returndatasize\n      dup6\n      dup3\n      returndatacopy\n      returndatasize\n      swap1\n      revert\n    tag_116:\n      mload(0x40)\n      shl(0xe5, 0x461bcd)\n      dup2\n      mstore\n      0x20\n      0x04\n      dup3\n      add\n      mstore\n      0x16\n      0x24\n      dup3\n      add\n      mstore\n      shl(0x52, 0x131bd85b881a5cc8185b1c9958591e48199d5b991959)\n      0x44\n      dup3\n      add\n      mstore\n      0x64\n      swap1\n      revert\n    tag_114:\n      shl(0xe0, 0x4e487b71)\n      dup3\n      mstore\n      mstore(0x04, 0x21)\n      0x24\n      dup3\n      revert\n    tag_36:\n      pop\n      jumpi(tag_62, callvalue)\n      dup1\n      add(calldatasize, not(0x03))\n      slt\n      tag_62\n      jumpi\n      0x20\n        /* \"contracts/contracts/protocol/TuliaFlashPool.sol\":1147:1178  uint256 public flashLoanFeeRate */\n      0x07\n        /* \"contracts/contracts/protocol/TuliaFlashPool.sol\":644:8083  contract TuliaFlashPool is IERC3156FlashLender, ReentrancyGuard, AccessControl {... */\n      sload\n      mload(0x40)\n      swap1\n      dup2\n      mstore\n      return\n    tag_34:\n      pop\n      jumpi(tag_62, callvalue)\n      jumpi(tag_62, slt(add(not(0x03), calldatasize), 0x20))\n      tag_167\n      tag_2\n      jump\t// in\n    tag_167:\n        /* \"contracts/contracts/protocol/TuliaFlashPool.sol\":4269:4274  asset */\n      0x02\n        /* \"contracts/contracts/protocol/TuliaFlashPool.sol\":644:8083  contract TuliaFlashPool is IERC3156FlashLender, ReentrancyGuard, AccessControl {... */\n      sload\n      sub(shl(0xa0, 0x01), 0x01)\n      swap1\n      dup2\n      and\n      swap3\n      swap2\n      and\n        /* \"contracts/contracts/protocol/TuliaFlashPool.sol\":4252:4275  token == address(asset) */\n      dup3\n      sub\n      tag_168\n      jumpi\n        /* \"contracts/contracts/protocol/TuliaFlashPool.sol\":644:8083  contract TuliaFlashPool is IERC3156FlashLender, ReentrancyGuard, AccessControl {... */\n      0x20\n        /* \"contracts/contracts/protocol/TuliaFlashPool.sol\":4278:4308  asset.balanceOf(address(this)) */\n      0x24\n        /* \"contracts/contracts/protocol/TuliaFlashPool.sol\":644:8083  contract TuliaFlashPool is IERC3156FlashLender, ReentrancyGuard, AccessControl {... */\n      swap3\n      mload(0x40)\n      swap4\n      dup5\n      dup1\n      swap3\n      shl(0xe0, 0x70a08231)\n        /* \"contracts/contracts/protocol/TuliaFlashPool.sol\":4278:4308  asset.balanceOf(address(this)) */\n      dup3\n      mstore\n        /* \"contracts/contracts/protocol/TuliaFlashPool.sol\":4302:4306  this */\n      address\n        /* \"contracts/contracts/protocol/TuliaFlashPool.sol\":644:8083  contract TuliaFlashPool is IERC3156FlashLender, ReentrancyGuard, AccessControl {... */\n      0x04\n        /* \"contracts/contracts/protocol/TuliaFlashPool.sol\":4278:4308  asset.balanceOf(address(this)) */\n      dup4\n      add\n        /* \"contracts/contracts/protocol/TuliaFlashPool.sol\":644:8083  contract TuliaFlashPool is IERC3156FlashLender, ReentrancyGuard, AccessControl {... */\n      mstore\n        /* \"contracts/contracts/protocol/TuliaFlashPool.sol\":4278:4308  asset.balanceOf(address(this)) */\n      gas\n      staticcall\n      swap1\n      dup2\n      iszero\n      tag_170\n      jumpi\n      swap1\n      tag_172\n      jumpi\n        /* \"contracts/contracts/protocol/TuliaFlashPool.sol\":4252:4312  token == address(asset) ? asset.balanceOf(address(this)) : 0 */\n    tag_173:\n        /* \"contracts/contracts/protocol/TuliaFlashPool.sol\":644:8083  contract TuliaFlashPool is IERC3156FlashLender, ReentrancyGuard, AccessControl {... */\n      0x20\n        /* \"contracts/contracts/protocol/TuliaFlashPool.sol\":4252:4312  token == address(asset) ? asset.balanceOf(address(this)) : 0 */\n      swap2\n      pop\n        /* \"contracts/contracts/protocol/TuliaFlashPool.sol\":644:8083  contract TuliaFlashPool is IERC3156FlashLender, ReentrancyGuard, AccessControl {... */\n      mload(0x40)\n      swap1\n      dup2\n      mstore\n      return\n        /* \"contracts/contracts/protocol/TuliaFlashPool.sol\":4278:4308  asset.balanceOf(address(this)) */\n    tag_172:\n      pop\n        /* \"contracts/contracts/protocol/TuliaFlashPool.sol\":644:8083  contract TuliaFlashPool is IERC3156FlashLender, ReentrancyGuard, AccessControl {... */\n      0x20\n        /* \"contracts/contracts/protocol/TuliaFlashPool.sol\":4278:4308  asset.balanceOf(address(this)) */\n      dup2\n      returndatasize\n        /* \"contracts/contracts/protocol/TuliaFlashPool.sol\":644:8083  contract TuliaFlashPool is IERC3156FlashLender, ReentrancyGuard, AccessControl {... */\n      0x20\n        /* \"contracts/contracts/protocol/TuliaFlashPool.sol\":4278:4308  asset.balanceOf(address(this)) */\n      gt\n      tag_175\n      jumpi\n    tag_176:\n      dup2\n      tag_177\n        /* \"contracts/contracts/protocol/TuliaFlashPool.sol\":644:8083  contract TuliaFlashPool is IERC3156FlashLender, ReentrancyGuard, AccessControl {... */\n      0x20\n        /* \"contracts/contracts/protocol/TuliaFlashPool.sol\":4278:4308  asset.balanceOf(address(this)) */\n      swap4\n      dup4\n      tag_4\n      jump\t// in\n    tag_177:\n      dup2\n      add\n        /* \"contracts/contracts/protocol/TuliaFlashPool.sol\":644:8083  contract TuliaFlashPool is IERC3156FlashLender, ReentrancyGuard, AccessControl {... */\n      sub\n      slt\n      tag_152\n      jumpi\n      0x20\n      swap1\n      mload\n        /* \"contracts/contracts/protocol/TuliaFlashPool.sol\":4278:4308  asset.balanceOf(address(this)) */\n      jump(tag_173)\n    tag_175:\n      returndatasize\n      swap2\n      pop\n      jump(tag_176)\n    tag_170:\n        /* \"contracts/contracts/protocol/TuliaFlashPool.sol\":644:8083  contract TuliaFlashPool is IERC3156FlashLender, ReentrancyGuard, AccessControl {... */\n      mload(0x40)\n      swap1\n      returndatasize\n      swap1\n      dup3\n      returndatacopy\n      returndatasize\n      swap1\n      revert\n        /* \"contracts/contracts/protocol/TuliaFlashPool.sol\":4252:4312  token == address(asset) ? asset.balanceOf(address(this)) : 0 */\n    tag_168:\n        /* \"contracts/contracts/protocol/TuliaFlashPool.sol\":644:8083  contract TuliaFlashPool is IERC3156FlashLender, ReentrancyGuard, AccessControl {... */\n      0x20\n        /* \"contracts/contracts/protocol/TuliaFlashPool.sol\":4252:4312  token == address(asset) ? asset.balanceOf(address(this)) : 0 */\n      swap2\n      pop\n      jump(tag_64)\n        /* \"contracts/contracts/protocol/TuliaFlashPool.sol\":644:8083  contract TuliaFlashPool is IERC3156FlashLender, ReentrancyGuard, AccessControl {... */\n    tag_32:\n      pop\n      jumpi(tag_62, callvalue)\n      jumpi(tag_62, slt(add(not(0x03), calldatasize), 0x80))\n      calldataload(0x04)\n      sub(shl(0xa0, 0x01), 0x01)\n      dup2\n      and\n      swap2\n      swap1\n      dup3\n      swap1\n      sub\n      tag_62\n      jumpi\n      tag_186\n      tag_1\n      jump\t// in\n    tag_186:\n      calldataload(0x44)\n      swap3\n      calldataload(0x64)\n      0xffffffffffffffff\n      dup2\n      gt\n      tag_189\n      jumpi\n      calldatasize\n      0x23\n      dup3\n      add\n      slt\n      iszero\n      tag_189\n      jumpi\n      dup1\n      0x04\n      add\n      calldataload\n      swap1\n      0xffffffffffffffff\n      dup3\n      gt\n      tag_193\n      jumpi\n      calldatasize\n      0x24\n      dup4\n      dup4\n      add\n      add\n      gt\n      tag_193\n      jumpi\n        /* \"@openzeppelin/contracts/utils/ReentrancyGuard.sol\":2322:2425  modifier nonReentrant() {... */\n      tag_195\n      tag_11\n      jump\t// in\n    tag_195:\n        /* \"contracts/contracts/protocol/TuliaFlashPool.sol\":644:8083  contract TuliaFlashPool is IERC3156FlashLender, ReentrancyGuard, AccessControl {... */\n      0xff\n        /* \"contracts/contracts/protocol/TuliaFlashPool.sol\":5475:5480  state */\n      0x08\n        /* \"contracts/contracts/protocol/TuliaFlashPool.sol\":644:8083  contract TuliaFlashPool is IERC3156FlashLender, ReentrancyGuard, AccessControl {... */\n      sload\n      and\n      0x03\n      dup2\n      lt\n      iszero\n      tag_196\n      jumpi\n      0x01\n        /* \"contracts/contracts/protocol/TuliaFlashPool.sol\":5475:5505  state == FlashLoanState.FUNDED */\n      sub\n        /* \"contracts/contracts/protocol/TuliaFlashPool.sol\":644:8083  contract TuliaFlashPool is IERC3156FlashLender, ReentrancyGuard, AccessControl {... */\n      tag_198\n      jumpi\n        /* \"contracts/contracts/protocol/TuliaFlashPool.sol\":6998:7003  asset */\n      0x02\n        /* \"contracts/contracts/protocol/TuliaFlashPool.sol\":644:8083  contract TuliaFlashPool is IERC3156FlashLender, ReentrancyGuard, AccessControl {... */\n      sload\n      sub(shl(0xa0, 0x01), 0x01)\n      dup6\n      dup2\n      and\n      swap6\n      swap2\n      and\n      swap2\n      swap1\n        /* \"contracts/contracts/protocol/TuliaFlashPool.sol\":7056:7079  flashFee(token, amount) */\n      tag_200\n      swap1\n        /* \"contracts/contracts/protocol/TuliaFlashPool.sol\":644:8083  contract TuliaFlashPool is IERC3156FlashLender, ReentrancyGuard, AccessControl {... */\n      dup9\n      swap1\n        /* \"contracts/contracts/protocol/TuliaFlashPool.sol\":6973:7026  require(token == address(asset), \"Unsupported token\") */\n      tag_201\n        /* \"contracts/contracts/protocol/TuliaFlashPool.sol\":6981:7004  token == address(asset) */\n      dup9\n      dup7\n      eq\n        /* \"contracts/contracts/protocol/TuliaFlashPool.sol\":6973:7026  require(token == address(asset), \"Unsupported token\") */\n      tag_9\n      jump\t// in\n    tag_201:\n        /* \"contracts/contracts/protocol/TuliaFlashPool.sol\":7056:7079  flashFee(token, amount) */\n      tag_10\n      jump\t// in\n    tag_200:\n        /* \"contracts/contracts/protocol/TuliaFlashPool.sol\":644:8083  contract TuliaFlashPool is IERC3156FlashLender, ReentrancyGuard, AccessControl {... */\n      swap3\n      mload(0x40)\n      swap3\n      shl(0xe0, 0x70a08231)\n        /* \"contracts/contracts/protocol/TuliaFlashPool.sol\":7113:7143  asset.balanceOf(address(this)) */\n      dup5\n      mstore\n        /* \"contracts/contracts/protocol/TuliaFlashPool.sol\":7137:7141  this */\n      address\n        /* \"contracts/contracts/protocol/TuliaFlashPool.sol\":644:8083  contract TuliaFlashPool is IERC3156FlashLender, ReentrancyGuard, AccessControl {... */\n      0x04\n        /* \"contracts/contracts/protocol/TuliaFlashPool.sol\":7113:7143  asset.balanceOf(address(this)) */\n      dup6\n      add\n        /* \"contracts/contracts/protocol/TuliaFlashPool.sol\":644:8083  contract TuliaFlashPool is IERC3156FlashLender, ReentrancyGuard, AccessControl {... */\n      mstore\n      0x20\n        /* \"contracts/contracts/protocol/TuliaFlashPool.sol\":7113:7143  asset.balanceOf(address(this)) */\n      dup5\n        /* \"contracts/contracts/protocol/TuliaFlashPool.sol\":644:8083  contract TuliaFlashPool is IERC3156FlashLender, ReentrancyGuard, AccessControl {... */\n      0x24\n        /* \"contracts/contracts/protocol/TuliaFlashPool.sol\":7113:7143  asset.balanceOf(address(this)) */\n      dup2\n      dup5\n      gas\n      staticcall\n      swap4\n      dup5\n      iszero\n      tag_207\n      jumpi\n      swap1\n      dup9\n      swap2\n      dup3\n      swap6\n      tag_204\n      jumpi\n        /* \"contracts/contracts/protocol/TuliaFlashPool.sol\":644:8083  contract TuliaFlashPool is IERC3156FlashLender, ReentrancyGuard, AccessControl {... */\n    tag_205:\n      pop\n      mload(0x40)\n      shl(0xe0, 0xa9059cbb)\n        /* \"contracts/contracts/protocol/TuliaFlashPool.sol\":7154:7195  asset.transfer(address(receiver), amount) */\n      dup2\n      mstore\n      sub(shl(0xa0, 0x01), 0x01)\n        /* \"contracts/contracts/protocol/TuliaFlashPool.sol\":644:8083  contract TuliaFlashPool is IERC3156FlashLender, ReentrancyGuard, AccessControl {... */\n      dup9\n      and\n      0x04\n        /* \"contracts/contracts/protocol/TuliaFlashPool.sol\":7154:7195  asset.transfer(address(receiver), amount) */\n      dup3\n      add\n        /* \"contracts/contracts/protocol/TuliaFlashPool.sol\":644:8083  contract TuliaFlashPool is IERC3156FlashLender, ReentrancyGuard, AccessControl {... */\n      mstore\n      0x24\n      dup2\n      add\n      dup12\n      swap1\n      mstore\n      swap2\n      0x20\n      swap2\n      dup4\n      swap2\n      dup3\n      swap1\n      dup2\n      0x44\n      dup2\n      add\n        /* \"contracts/contracts/protocol/TuliaFlashPool.sol\":7154:7195  asset.transfer(address(receiver), amount) */\n    tag_206:\n      sub\n      swap3\n      gas\n      call\n      dup1\n      iszero\n      tag_207\n      jumpi\n      dup10\n        /* \"contracts/contracts/protocol/TuliaFlashPool.sol\":644:8083  contract TuliaFlashPool is IERC3156FlashLender, ReentrancyGuard, AccessControl {... */\n      0x20\n        /* \"contracts/contracts/protocol/TuliaFlashPool.sol\":7154:7195  asset.transfer(address(receiver), amount) */\n      swap4\n        /* \"contracts/contracts/protocol/TuliaFlashPool.sol\":644:8083  contract TuliaFlashPool is IERC3156FlashLender, ReentrancyGuard, AccessControl {... */\n      0x24\n        /* \"contracts/contracts/protocol/TuliaFlashPool.sol\":7154:7195  asset.transfer(address(receiver), amount) */\n      swap6\n      swap4\n        /* \"contracts/contracts/protocol/TuliaFlashPool.sol\":644:8083  contract TuliaFlashPool is IERC3156FlashLender, ReentrancyGuard, AccessControl {... */\n      0xc4\n        /* \"contracts/contracts/protocol/TuliaFlashPool.sol\":7154:7195  asset.transfer(address(receiver), amount) */\n      swap4\n      tag_209\n      jumpi\n        /* \"contracts/contracts/protocol/TuliaFlashPool.sol\":644:8083  contract TuliaFlashPool is IERC3156FlashLender, ReentrancyGuard, AccessControl {... */\n    tag_210:\n      pop\n      dup1\n      mload(0x40)\n      swap7\n      dup8\n      swap6\n      dup7\n      swap5\n      shl(0xe0, 0x23e30c8b)\n        /* \"contracts/contracts/protocol/TuliaFlashPool.sol\":7227:7290  receiver.onFlashLoan(msg.sender, token, amount, totalFee, data) */\n      dup7\n      mstore\n        /* \"contracts/contracts/protocol/TuliaFlashPool.sol\":7248:7258  msg.sender */\n      caller\n        /* \"contracts/contracts/protocol/TuliaFlashPool.sol\":644:8083  contract TuliaFlashPool is IERC3156FlashLender, ReentrancyGuard, AccessControl {... */\n      0x04\n        /* \"contracts/contracts/protocol/TuliaFlashPool.sol\":7227:7290  receiver.onFlashLoan(msg.sender, token, amount, totalFee, data) */\n      dup8\n      add\n        /* \"contracts/contracts/protocol/TuliaFlashPool.sol\":644:8083  contract TuliaFlashPool is IERC3156FlashLender, ReentrancyGuard, AccessControl {... */\n      mstore\n      dup14\n      dup4\n      dup8\n      add\n      mstore\n      0x44\n      dup7\n      add\n      mstore\n      dup11\n      0x64\n      dup7\n      add\n      mstore\n      0xa0\n      0x84\n      dup7\n      add\n      mstore\n      dup3\n      0xa4\n      dup7\n      add\n      mstore\n      add\n      dup5\n      dup5\n      add\n      calldatacopy\n      dup2\n      dup2\n      add\n      dup4\n      add\n      dup12\n      swap1\n      mstore\n      0x1f\n      add\n      not(0x1f)\n      and\n      dup2\n      add\n        /* \"contracts/contracts/protocol/TuliaFlashPool.sol\":7227:7290  receiver.onFlashLoan(msg.sender, token, amount, totalFee, data) */\n      sub\n      add\n      dup2\n        /* \"contracts/contracts/protocol/TuliaFlashPool.sol\":644:8083  contract TuliaFlashPool is IERC3156FlashLender, ReentrancyGuard, AccessControl {... */\n      dup10\n        /* \"contracts/contracts/protocol/TuliaFlashPool.sol\":7227:7290  receiver.onFlashLoan(msg.sender, token, amount, totalFee, data) */\n      dup9\n      gas\n      call\n      dup1\n      iszero\n      tag_220\n      jumpi\n      dup7\n      swap1\n      tag_213\n      jumpi\n        /* \"contracts/contracts/protocol/TuliaFlashPool.sol\":644:8083  contract TuliaFlashPool is IERC3156FlashLender, ReentrancyGuard, AccessControl {... */\n    tag_214:\n        /* \"contracts/contracts/protocol/TuliaFlashPool.sol\":7310:7355  keccak256(\"ERC3156FlashBorrower.onFlashLoan\") */\n      0x439148f0bbc682ca079e46d6e2c2f0c1e3b820f1a291b069d8882abf8cf18dd9\n        /* \"contracts/contracts/protocol/TuliaFlashPool.sol\":7227:7355  receiver.onFlashLoan(msg.sender, token, amount, totalFee, data) ==... */\n      swap2\n      pop\n      sub\n        /* \"contracts/contracts/protocol/TuliaFlashPool.sol\":644:8083  contract TuliaFlashPool is IERC3156FlashLender, ReentrancyGuard, AccessControl {... */\n      tag_215\n      jumpi\n      dup2\n      dup7\n      add\n      dup1\n      dup8\n      gt\n      tag_217\n      jumpi\n        /* \"contracts/contracts/protocol/TuliaFlashPool.sol\":6998:7003  asset */\n      0x02\n        /* \"contracts/contracts/protocol/TuliaFlashPool.sol\":644:8083  contract TuliaFlashPool is IERC3156FlashLender, ReentrancyGuard, AccessControl {... */\n      sload\n      mload(0x40)\n      shl(0xe0, 0x23b872dd)\n        /* \"contracts/contracts/protocol/TuliaFlashPool.sol\":7457:7521  asset.transferFrom(address(receiver), address(this), amountOwed) */\n      dup2\n      mstore\n      sub(shl(0xa0, 0x01), 0x01)\n        /* \"contracts/contracts/protocol/TuliaFlashPool.sol\":644:8083  contract TuliaFlashPool is IERC3156FlashLender, ReentrancyGuard, AccessControl {... */\n      dup7\n      dup2\n      and\n      0x04\n        /* \"contracts/contracts/protocol/TuliaFlashPool.sol\":7457:7521  asset.transferFrom(address(receiver), address(this), amountOwed) */\n      dup4\n      add\n        /* \"contracts/contracts/protocol/TuliaFlashPool.sol\":644:8083  contract TuliaFlashPool is IERC3156FlashLender, ReentrancyGuard, AccessControl {... */\n      mstore\n        /* \"contracts/contracts/protocol/TuliaFlashPool.sol\":7137:7141  this */\n      address\n        /* \"contracts/contracts/protocol/TuliaFlashPool.sol\":644:8083  contract TuliaFlashPool is IERC3156FlashLender, ReentrancyGuard, AccessControl {... */\n      0x24\n      dup4\n      add\n      mstore\n      0x44\n      dup3\n      add\n      swap4\n      swap1\n      swap4\n      mstore\n      swap2\n      0x20\n      swap2\n      dup4\n      swap2\n      0x64\n      swap2\n      dup4\n      swap2\n      dup12\n      swap2\n      and\n        /* \"contracts/contracts/protocol/TuliaFlashPool.sol\":7457:7521  asset.transferFrom(address(receiver), address(this), amountOwed) */\n      gas\n      call\n      dup1\n      iszero\n      tag_220\n      jumpi\n      tag_222\n      jumpi\n        /* \"contracts/contracts/protocol/TuliaFlashPool.sol\":644:8083  contract TuliaFlashPool is IERC3156FlashLender, ReentrancyGuard, AccessControl {... */\n    tag_223:\n      pop\n        /* \"contracts/contracts/protocol/TuliaFlashPool.sol\":6998:7003  asset */\n      0x02\n        /* \"contracts/contracts/protocol/TuliaFlashPool.sol\":644:8083  contract TuliaFlashPool is IERC3156FlashLender, ReentrancyGuard, AccessControl {... */\n      sload\n      mload(0x40)\n      shl(0xe0, 0x70a08231)\n        /* \"contracts/contracts/protocol/TuliaFlashPool.sol\":7553:7583  asset.balanceOf(address(this)) */\n      dup2\n      mstore\n        /* \"contracts/contracts/protocol/TuliaFlashPool.sol\":7137:7141  this */\n      address\n        /* \"contracts/contracts/protocol/TuliaFlashPool.sol\":644:8083  contract TuliaFlashPool is IERC3156FlashLender, ReentrancyGuard, AccessControl {... */\n      0x04\n        /* \"contracts/contracts/protocol/TuliaFlashPool.sol\":7553:7583  asset.balanceOf(address(this)) */\n      dup3\n      add\n        /* \"contracts/contracts/protocol/TuliaFlashPool.sol\":644:8083  contract TuliaFlashPool is IERC3156FlashLender, ReentrancyGuard, AccessControl {... */\n      mstore\n      sub(shl(0xa0, 0x01), 0x01)\n      swap1\n      swap2\n      and\n      swap2\n      swap1\n      0x20\n      dup2\n      0x24\n      dup2\n      dup7\n        /* \"contracts/contracts/protocol/TuliaFlashPool.sol\":7553:7583  asset.balanceOf(address(this)) */\n      gas\n      staticcall\n      swap1\n      dup2\n      iszero\n      tag_224\n      jumpi\n      dup8\n      swap2\n      tag_226\n      jumpi\n        /* \"contracts/contracts/protocol/TuliaFlashPool.sol\":644:8083  contract TuliaFlashPool is IERC3156FlashLender, ReentrancyGuard, AccessControl {... */\n    tag_227:\n        /* \"contracts/contracts/protocol/TuliaFlashPool.sol\":7553:7600  asset.balanceOf(address(this)) >= balanceBefore */\n      pop\n      lt\n        /* \"contracts/contracts/protocol/TuliaFlashPool.sol\":644:8083  contract TuliaFlashPool is IERC3156FlashLender, ReentrancyGuard, AccessControl {... */\n      tag_228\n      jumpi\n        /* \"contracts/contracts/protocol/TuliaFlashPool.sol\":7744:7750  lender */\n      0x06\n        /* \"contracts/contracts/protocol/TuliaFlashPool.sol\":644:8083  contract TuliaFlashPool is IERC3156FlashLender, ReentrancyGuard, AccessControl {... */\n      sload\n      mload(0x40)\n      shl(0xe0, 0xa9059cbb)\n        /* \"contracts/contracts/protocol/TuliaFlashPool.sol\":7729:7761  asset.transfer(lender, totalFee) */\n      dup2\n      mstore\n      sub(shl(0xa0, 0x01), 0x01)\n        /* \"contracts/contracts/protocol/TuliaFlashPool.sol\":644:8083  contract TuliaFlashPool is IERC3156FlashLender, ReentrancyGuard, AccessControl {... */\n      swap1\n      swap2\n      and\n      0x04\n        /* \"contracts/contracts/protocol/TuliaFlashPool.sol\":7729:7761  asset.transfer(lender, totalFee) */\n      dup3\n      add\n        /* \"contracts/contracts/protocol/TuliaFlashPool.sol\":644:8083  contract TuliaFlashPool is IERC3156FlashLender, ReentrancyGuard, AccessControl {... */\n      mstore\n      0x24\n      dup2\n      add\n      dup4\n      swap1\n      mstore\n      swap1\n      0x20\n      swap1\n      dup3\n      swap1\n      0x44\n      swap1\n      dup3\n      swap1\n      dup10\n      swap1\n        /* \"contracts/contracts/protocol/TuliaFlashPool.sol\":7729:7761  asset.transfer(lender, totalFee) */\n      gas\n      call\n      dup1\n      iszero\n      tag_231\n      jumpi\n      swap6\n        /* \"contracts/contracts/protocol/TuliaFlashPool.sol\":7777:7838  FlashLoanExecuted(address(receiver), token, amount, totalFee) */\n      0x9d0d497e678f62d6b162c97b9724a39f45fe674650dcd4a5e88ff6317e63764f\n        /* \"contracts/contracts/protocol/TuliaFlashPool.sol\":7729:7761  asset.transfer(lender, totalFee) */\n      swap3\n        /* \"contracts/contracts/protocol/TuliaFlashPool.sol\":644:8083  contract TuliaFlashPool is IERC3156FlashLender, ReentrancyGuard, AccessControl {... */\n      0x40\n        /* \"contracts/contracts/protocol/TuliaFlashPool.sol\":7729:7761  asset.transfer(lender, totalFee) */\n      swap3\n        /* \"contracts/contracts/protocol/TuliaFlashPool.sol\":644:8083  contract TuliaFlashPool is IERC3156FlashLender, ReentrancyGuard, AccessControl {... */\n      0x01\n        /* \"contracts/contracts/protocol/TuliaFlashPool.sol\":7729:7761  asset.transfer(lender, totalFee) */\n      swap9\n      tag_233\n      jumpi\n        /* \"contracts/contracts/protocol/TuliaFlashPool.sol\":644:8083  contract TuliaFlashPool is IERC3156FlashLender, ReentrancyGuard, AccessControl {... */\n    tag_234:\n      pop\n      dup3\n      mload\n      swap2\n      dup3\n      mstore\n      0x20\n      dup3\n      add\n      mstore\n        /* \"contracts/contracts/protocol/TuliaFlashPool.sol\":7777:7838  FlashLoanExecuted(address(receiver), token, amount, totalFee) */\n      log3\n        /* \"@openzeppelin/contracts/utils/ReentrancyGuard.sol\":1755:1756  2 */\n      sstore\n        /* \"contracts/contracts/protocol/TuliaFlashPool.sol\":644:8083  contract TuliaFlashPool is IERC3156FlashLender, ReentrancyGuard, AccessControl {... */\n      0x20\n      mload(0x40)\n      0x01\n      dup2\n      mstore\n      return\n        /* \"contracts/contracts/protocol/TuliaFlashPool.sol\":7729:7761  asset.transfer(lender, totalFee) */\n    tag_233:\n      tag_235\n      swap1\n        /* \"contracts/contracts/protocol/TuliaFlashPool.sol\":644:8083  contract TuliaFlashPool is IERC3156FlashLender, ReentrancyGuard, AccessControl {... */\n      0x20\n        /* \"contracts/contracts/protocol/TuliaFlashPool.sol\":7729:7761  asset.transfer(lender, totalFee) */\n      returndatasize\n        /* \"contracts/contracts/protocol/TuliaFlashPool.sol\":644:8083  contract TuliaFlashPool is IERC3156FlashLender, ReentrancyGuard, AccessControl {... */\n      0x20\n        /* \"contracts/contracts/protocol/TuliaFlashPool.sol\":7729:7761  asset.transfer(lender, totalFee) */\n      gt\n      tag_142\n      jumpi\n      tag_144\n      dup2\n      dup4\n      tag_4\n      jump\t// in\n    tag_235:\n      jump(tag_234)\n    tag_231:\n        /* \"contracts/contracts/protocol/TuliaFlashPool.sol\":644:8083  contract TuliaFlashPool is IERC3156FlashLender, ReentrancyGuard, AccessControl {... */\n      mload(0x40)\n      returndatasize\n      dup8\n      dup3\n      returndatacopy\n      returndatasize\n      swap1\n      revert\n    tag_228:\n      mload(0x40)\n      shl(0xe5, 0x461bcd)\n      dup2\n      mstore\n      0x20\n      0x04\n      dup3\n      add\n      mstore\n      0x1b\n      0x24\n      dup3\n      add\n      mstore\n      0x466c617368206c6f616e2072657061796d656e74206661696c65640000000000\n      0x44\n      dup3\n      add\n      mstore\n      0x64\n      swap1\n      revert\n        /* \"contracts/contracts/protocol/TuliaFlashPool.sol\":7553:7583  asset.balanceOf(address(this)) */\n    tag_226:\n      swap1\n      pop\n        /* \"contracts/contracts/protocol/TuliaFlashPool.sol\":644:8083  contract TuliaFlashPool is IERC3156FlashLender, ReentrancyGuard, AccessControl {... */\n      0x20\n        /* \"contracts/contracts/protocol/TuliaFlashPool.sol\":7553:7583  asset.balanceOf(address(this)) */\n      dup2\n      returndatasize\n        /* \"contracts/contracts/protocol/TuliaFlashPool.sol\":644:8083  contract TuliaFlashPool is IERC3156FlashLender, ReentrancyGuard, AccessControl {... */\n      0x20\n        /* \"contracts/contracts/protocol/TuliaFlashPool.sol\":7553:7583  asset.balanceOf(address(this)) */\n      gt\n      tag_239\n      jumpi\n    tag_240:\n      dup2\n      tag_241\n        /* \"contracts/contracts/protocol/TuliaFlashPool.sol\":644:8083  contract TuliaFlashPool is IERC3156FlashLender, ReentrancyGuard, AccessControl {... */\n      0x20\n        /* \"contracts/contracts/protocol/TuliaFlashPool.sol\":7553:7583  asset.balanceOf(address(this)) */\n      swap4\n      dup4\n      tag_4\n      jump\t// in\n    tag_241:\n      dup2\n      add\n        /* \"contracts/contracts/protocol/TuliaFlashPool.sol\":644:8083  contract TuliaFlashPool is IERC3156FlashLender, ReentrancyGuard, AccessControl {... */\n      sub\n      slt\n      tag_152\n      jumpi\n      mload\n        /* \"contracts/contracts/protocol/TuliaFlashPool.sol\":7553:7583  asset.balanceOf(address(this)) */\n      0x00\n      jump(tag_227)\n    tag_239:\n      returndatasize\n      swap2\n      pop\n      jump(tag_240)\n    tag_224:\n        /* \"contracts/contracts/protocol/TuliaFlashPool.sol\":644:8083  contract TuliaFlashPool is IERC3156FlashLender, ReentrancyGuard, AccessControl {... */\n      mload(0x40)\n      returndatasize\n      dup10\n      dup3\n      returndatacopy\n      returndatasize\n      swap1\n      revert\n        /* \"contracts/contracts/protocol/TuliaFlashPool.sol\":7457:7521  asset.transferFrom(address(receiver), address(this), amountOwed) */\n    tag_222:\n      tag_244\n      swap1\n        /* \"contracts/contracts/protocol/TuliaFlashPool.sol\":644:8083  contract TuliaFlashPool is IERC3156FlashLender, ReentrancyGuard, AccessControl {... */\n      0x20\n        /* \"contracts/contracts/protocol/TuliaFlashPool.sol\":7457:7521  asset.transferFrom(address(receiver), address(this), amountOwed) */\n      returndatasize\n        /* \"contracts/contracts/protocol/TuliaFlashPool.sol\":644:8083  contract TuliaFlashPool is IERC3156FlashLender, ReentrancyGuard, AccessControl {... */\n      0x20\n        /* \"contracts/contracts/protocol/TuliaFlashPool.sol\":7457:7521  asset.transferFrom(address(receiver), address(this), amountOwed) */\n      gt\n      tag_142\n      jumpi\n      tag_144\n      dup2\n      dup4\n      tag_4\n      jump\t// in\n    tag_244:\n      jump(tag_223)\n    tag_220:\n        /* \"contracts/contracts/protocol/TuliaFlashPool.sol\":644:8083  contract TuliaFlashPool is IERC3156FlashLender, ReentrancyGuard, AccessControl {... */\n      mload(0x40)\n      returndatasize\n      dup9\n      dup3\n      returndatacopy\n      returndatasize\n      swap1\n      revert\n    tag_217:\n      shl(0xe0, 0x4e487b71)\n      dup7\n      mstore\n      mstore(0x04, 0x11)\n      0x24\n      dup7\n      revert\n    tag_215:\n      mload(0x40)\n      shl(0xe5, 0x461bcd)\n      dup2\n      mstore\n      0x20\n      0x04\n      dup3\n      add\n      mstore\n      0x11\n      0x24\n      dup3\n      add\n      mstore\n      shl(0x7a, 0x119b185cda081b1bd85b8819985a5b1959)\n      0x44\n      dup3\n      add\n      mstore\n      0x64\n      swap1\n      revert\n        /* \"contracts/contracts/protocol/TuliaFlashPool.sol\":7227:7290  receiver.onFlashLoan(msg.sender, token, amount, totalFee, data) */\n    tag_213:\n      pop\n        /* \"contracts/contracts/protocol/TuliaFlashPool.sol\":644:8083  contract TuliaFlashPool is IERC3156FlashLender, ReentrancyGuard, AccessControl {... */\n      0x20\n        /* \"contracts/contracts/protocol/TuliaFlashPool.sol\":7227:7290  receiver.onFlashLoan(msg.sender, token, amount, totalFee, data) */\n      dup2\n      returndatasize\n        /* \"contracts/contracts/protocol/TuliaFlashPool.sol\":644:8083  contract TuliaFlashPool is IERC3156FlashLender, ReentrancyGuard, AccessControl {... */\n      0x20\n        /* \"contracts/contracts/protocol/TuliaFlashPool.sol\":7227:7290  receiver.onFlashLoan(msg.sender, token, amount, totalFee, data) */\n      gt\n      tag_248\n      jumpi\n    tag_249:\n      dup2\n      tag_250\n        /* \"contracts/contracts/protocol/TuliaFlashPool.sol\":644:8083  contract TuliaFlashPool is IERC3156FlashLender, ReentrancyGuard, AccessControl {... */\n      0x20\n        /* \"contracts/contracts/protocol/TuliaFlashPool.sol\":7227:7290  receiver.onFlashLoan(msg.sender, token, amount, totalFee, data) */\n      swap4\n      dup4\n      tag_4\n      jump\t// in\n    tag_250:\n      dup2\n      add\n        /* \"contracts/contracts/protocol/TuliaFlashPool.sol\":644:8083  contract TuliaFlashPool is IERC3156FlashLender, ReentrancyGuard, AccessControl {... */\n      sub\n      slt\n      tag_251\n      jumpi\n        /* \"contracts/contracts/protocol/TuliaFlashPool.sol\":7310:7355  keccak256(\"ERC3156FlashBorrower.onFlashLoan\") */\n      0x439148f0bbc682ca079e46d6e2c2f0c1e3b820f1a291b069d8882abf8cf18dd9\n        /* \"contracts/contracts/protocol/TuliaFlashPool.sol\":644:8083  contract TuliaFlashPool is IERC3156FlashLender, ReentrancyGuard, AccessControl {... */\n      swap1\n      mload\n        /* \"contracts/contracts/protocol/TuliaFlashPool.sol\":7227:7290  receiver.onFlashLoan(msg.sender, token, amount, totalFee, data) */\n      jump(tag_214)\n        /* \"contracts/contracts/protocol/TuliaFlashPool.sol\":644:8083  contract TuliaFlashPool is IERC3156FlashLender, ReentrancyGuard, AccessControl {... */\n    tag_251:\n      dup6\n      dup1\n      revert\n        /* \"contracts/contracts/protocol/TuliaFlashPool.sol\":7227:7290  receiver.onFlashLoan(msg.sender, token, amount, totalFee, data) */\n    tag_248:\n      returndatasize\n      swap2\n      pop\n      jump(tag_249)\n        /* \"contracts/contracts/protocol/TuliaFlashPool.sol\":7154:7195  asset.transfer(address(receiver), amount) */\n    tag_209:\n      tag_253\n      swap1\n      dup7\n      returndatasize\n      dup9\n      gt\n      tag_142\n      jumpi\n      tag_144\n      dup2\n      dup4\n      tag_4\n      jump\t// in\n    tag_253:\n      jump(tag_210)\n    tag_207:\n        /* \"contracts/contracts/protocol/TuliaFlashPool.sol\":644:8083  contract TuliaFlashPool is IERC3156FlashLender, ReentrancyGuard, AccessControl {... */\n      mload(0x40)\n      returndatasize\n      dup11\n      dup3\n      returndatacopy\n      returndatasize\n      swap1\n      revert\n        /* \"contracts/contracts/protocol/TuliaFlashPool.sol\":7113:7143  asset.balanceOf(address(this)) */\n    tag_204:\n      swap2\n      pop\n      swap4\n      pop\n        /* \"contracts/contracts/protocol/TuliaFlashPool.sol\":644:8083  contract TuliaFlashPool is IERC3156FlashLender, ReentrancyGuard, AccessControl {... */\n      0x20\n        /* \"contracts/contracts/protocol/TuliaFlashPool.sol\":7113:7143  asset.balanceOf(address(this)) */\n      dup2\n      returndatasize\n        /* \"contracts/contracts/protocol/TuliaFlashPool.sol\":644:8083  contract TuliaFlashPool is IERC3156FlashLender, ReentrancyGuard, AccessControl {... */\n      0x20\n        /* \"contracts/contracts/protocol/TuliaFlashPool.sol\":7113:7143  asset.balanceOf(address(this)) */\n      gt\n      tag_257\n      jumpi\n    tag_258:\n      dup2\n      tag_259\n        /* \"contracts/contracts/protocol/TuliaFlashPool.sol\":644:8083  contract TuliaFlashPool is IERC3156FlashLender, ReentrancyGuard, AccessControl {... */\n      0x20\n        /* \"contracts/contracts/protocol/TuliaFlashPool.sol\":7113:7143  asset.balanceOf(address(this)) */\n      swap4\n      dup4\n      tag_4\n      jump\t// in\n    tag_259:\n      dup2\n      add\n        /* \"contracts/contracts/protocol/TuliaFlashPool.sol\":644:8083  contract TuliaFlashPool is IERC3156FlashLender, ReentrancyGuard, AccessControl {... */\n      sub\n      slt\n      tag_152\n      jumpi\n      mload\n      swap3\n      dup8\n      swap1\n        /* \"contracts/contracts/protocol/TuliaFlashPool.sol\":7154:7195  asset.transfer(address(receiver), amount) */\n      tag_206\n        /* \"contracts/contracts/protocol/TuliaFlashPool.sol\":7113:7143  asset.balanceOf(address(this)) */\n      jump(tag_205)\n    tag_257:\n      returndatasize\n      swap2\n      pop\n      jump(tag_258)\n        /* \"contracts/contracts/protocol/TuliaFlashPool.sol\":644:8083  contract TuliaFlashPool is IERC3156FlashLender, ReentrancyGuard, AccessControl {... */\n    tag_198:\n      mload(0x40)\n      shl(0xe5, 0x461bcd)\n      dup2\n      mstore\n      0x20\n      0x04\n      dup3\n      add\n      mstore\n      0x0f\n      0x24\n      dup3\n      add\n      mstore\n      shl(0x8a, 0x141bdbdb081b9bdd08199d5b991959)\n      0x44\n      dup3\n      add\n      mstore\n      0x64\n      swap1\n      revert\n    tag_196:\n      shl(0xe0, 0x4e487b71)\n      dup7\n      mstore\n      mstore(0x04, 0x21)\n      0x24\n      dup7\n      revert\n    tag_193:\n      dup5\n      dup1\n      revert\n    tag_189:\n      dup4\n      dup1\n      revert\n    tag_30:\n      pop\n      jumpi(tag_62, callvalue)\n      dup1\n      add(calldatasize, not(0x03))\n      slt\n      tag_62\n      jumpi\n        /* \"contracts/contracts/protocol/TuliaFlashPool.sol\":780:799  IERC20 public asset */\n      0x02\n        /* \"contracts/contracts/protocol/TuliaFlashPool.sol\":644:8083  contract TuliaFlashPool is IERC3156FlashLender, ReentrancyGuard, AccessControl {... */\n      sload\n      mload(0x40)\n      sub(shl(0xa0, 0x01), 0x01)\n      swap1\n      swap2\n      and\n      dup2\n      mstore\n      0x20\n      swap1\n      return\n    tag_28:\n      pop\n      jumpi(tag_62, callvalue)\n      jumpi(tag_62, slt(add(not(0x03), calldatasize), 0x40))\n      tag_270\n      tag_1\n      jump\t// in\n    tag_270:\n        /* \"@openzeppelin/contracts/utils/Context.sol\":735:745  msg.sender */\n      caller\n      sub(shl(0xa0, 0x01), 0x01)\n        /* \"contracts/contracts/protocol/TuliaFlashPool.sol\":644:8083  contract TuliaFlashPool is IERC3156FlashLender, ReentrancyGuard, AccessControl {... */\n      dup3\n      and\n        /* \"@openzeppelin/contracts/access/AccessControl.sol\":5421:5455  callerConfirmation != _msgSender() */\n      sub\n        /* \"@openzeppelin/contracts/access/AccessControl.sol\":5417:5519  if (callerConfirmation != _msgSender()) {... */\n      tag_271\n      jumpi\n        /* \"@openzeppelin/contracts/access/AccessControl.sol\":5529:5566  _revokeRole(role, callerConfirmation) */\n      tag_70\n        /* \"contracts/contracts/protocol/TuliaFlashPool.sol\":644:8083  contract TuliaFlashPool is IERC3156FlashLender, ReentrancyGuard, AccessControl {... */\n      swap1\n      calldataload(0x04)\n        /* \"@openzeppelin/contracts/access/AccessControl.sol\":5529:5566  _revokeRole(role, callerConfirmation) */\n      tag_15\n      jump\t// in\n        /* \"@openzeppelin/contracts/access/AccessControl.sol\":5417:5519  if (callerConfirmation != _msgSender()) {... */\n    tag_271:\n      shl(0xe1, 0x334bd919)\n        /* \"@openzeppelin/contracts/access/AccessControl.sol\":5478:5508  AccessControlBadConfirmation() */\n      dup3\n      mstore\n        /* \"contracts/contracts/protocol/TuliaFlashPool.sol\":644:8083  contract TuliaFlashPool is IERC3156FlashLender, ReentrancyGuard, AccessControl {... */\n      0x04\n        /* \"@openzeppelin/contracts/access/AccessControl.sol\":5478:5508  AccessControlBadConfirmation() */\n      dup3\n      revert\n        /* \"contracts/contracts/protocol/TuliaFlashPool.sol\":644:8083  contract TuliaFlashPool is IERC3156FlashLender, ReentrancyGuard, AccessControl {... */\n    tag_26:\n      pop\n      jumpi(tag_62, callvalue)\n      jumpi(tag_62, slt(add(not(0x03), calldatasize), 0x40))\n        /* \"@openzeppelin/contracts/access/AccessControl.sol\":4330:4355  _grantRole(role, account) */\n      tag_70\n        /* \"contracts/contracts/protocol/TuliaFlashPool.sol\":644:8083  contract TuliaFlashPool is IERC3156FlashLender, ReentrancyGuard, AccessControl {... */\n      calldataload(0x04)\n      tag_279\n      tag_1\n      jump\t// in\n    tag_279:\n        /* \"@openzeppelin/contracts/access/AccessControl.sol\":4300:4318  getRoleAdmin(role) */\n      swap1\n        /* \"@openzeppelin/contracts/access/AccessControl.sol\":2475:2479  role */\n      tag_280\n        /* \"@openzeppelin/contracts/access/AccessControl.sol\":4300:4318  getRoleAdmin(role) */\n      tag_73\n      dup3\n      0x00\n        /* \"contracts/contracts/protocol/TuliaFlashPool.sol\":644:8083  contract TuliaFlashPool is IERC3156FlashLender, ReentrancyGuard, AccessControl {... */\n      mstore\n        /* \"@openzeppelin/contracts/access/AccessControl.sol\":3901:3907  _roles */\n      0x01\n        /* \"contracts/contracts/protocol/TuliaFlashPool.sol\":644:8083  contract TuliaFlashPool is IERC3156FlashLender, ReentrancyGuard, AccessControl {... */\n      0x20\n      mstore\n        /* \"@openzeppelin/contracts/access/AccessControl.sol\":3901:3907  _roles */\n      0x01\n        /* \"contracts/contracts/protocol/TuliaFlashPool.sol\":644:8083  contract TuliaFlashPool is IERC3156FlashLender, ReentrancyGuard, AccessControl {... */\n      keccak256(0x00, 0x40)\n        /* \"@openzeppelin/contracts/access/AccessControl.sol\":3901:3923  _roles[role].adminRole */\n      add\n        /* \"contracts/contracts/protocol/TuliaFlashPool.sol\":644:8083  contract TuliaFlashPool is IERC3156FlashLender, ReentrancyGuard, AccessControl {... */\n      sload\n        /* \"@openzeppelin/contracts/access/AccessControl.sol\":3810:3930  function getRoleAdmin(bytes32 role) public view virtual returns (bytes32) {... */\n      swap1\n      jump\n        /* \"@openzeppelin/contracts/access/AccessControl.sol\":2475:2479  role */\n    tag_280:\n        /* \"@openzeppelin/contracts/access/AccessControl.sol\":4330:4355  _grantRole(role, account) */\n      tag_14\n      jump\t// in\n        /* \"contracts/contracts/protocol/TuliaFlashPool.sol\":644:8083  contract TuliaFlashPool is IERC3156FlashLender, ReentrancyGuard, AccessControl {... */\n    tag_24:\n      pop\n      jumpi(tag_62, callvalue)\n      jumpi(tag_62, slt(add(not(0x03), calldatasize), 0x20))\n      0x20\n      tag_64\n      mstore(0x00, calldataload(0x04))\n        /* \"@openzeppelin/contracts/access/AccessControl.sol\":3901:3907  _roles */\n      0x01\n        /* \"contracts/contracts/protocol/TuliaFlashPool.sol\":644:8083  contract TuliaFlashPool is IERC3156FlashLender, ReentrancyGuard, AccessControl {... */\n      0x20\n      mstore\n        /* \"@openzeppelin/contracts/access/AccessControl.sol\":3901:3907  _roles */\n      0x01\n        /* \"contracts/contracts/protocol/TuliaFlashPool.sol\":644:8083  contract TuliaFlashPool is IERC3156FlashLender, ReentrancyGuard, AccessControl {... */\n      keccak256(0x00, 0x40)\n        /* \"@openzeppelin/contracts/access/AccessControl.sol\":3901:3923  _roles[role].adminRole */\n      add\n        /* \"contracts/contracts/protocol/TuliaFlashPool.sol\":644:8083  contract TuliaFlashPool is IERC3156FlashLender, ReentrancyGuard, AccessControl {... */\n      sload\n        /* \"@openzeppelin/contracts/access/AccessControl.sol\":3810:3930  function getRoleAdmin(bytes32 role) public view virtual returns (bytes32) {... */\n      swap1\n      jump\n        /* \"contracts/contracts/protocol/TuliaFlashPool.sol\":644:8083  contract TuliaFlashPool is IERC3156FlashLender, ReentrancyGuard, AccessControl {... */\n    tag_22:\n      pop\n      jumpi(tag_152, callvalue)\n      jumpi(tag_152, slt(add(not(0x03), calldatasize), 0x00))\n        /* \"@openzeppelin/contracts/utils/ReentrancyGuard.sol\":2322:2425  modifier nonReentrant() {... */\n      tag_291\n      tag_11\n      jump\t// in\n    tag_291:\n        /* \"contracts/contracts/protocol/TuliaFlashPool.sol\":5799:5809  msg.sender */\n      caller\n        /* \"contracts/contracts/protocol/TuliaFlashPool.sol\":644:8083  contract TuliaFlashPool is IERC3156FlashLender, ReentrancyGuard, AccessControl {... */\n      0x00\n      swap1\n      dup2\n      mstore\n      mstore(0x20, 0x95902c4d6c8ea17825d5632af066dcb87e033f1b2a91b49a7ad79e83f02c4dec)\n      0x40\n      swap1\n      keccak256\n      sload\n      0xff\n      and\n      iszero\n      tag_292\n      jumpi\n      0xff\n        /* \"contracts/contracts/protocol/TuliaFlashPool.sol\":5870:5875  state */\n      0x08\n        /* \"contracts/contracts/protocol/TuliaFlashPool.sol\":644:8083  contract TuliaFlashPool is IERC3156FlashLender, ReentrancyGuard, AccessControl {... */\n      sload\n      and\n      0x03\n      dup2\n      lt\n      iszero\n      tag_294\n      jumpi\n        /* \"@openzeppelin/contracts/access/AccessControl.sol\":2954:2960  _roles */\n      0x01\n        /* \"contracts/contracts/protocol/TuliaFlashPool.sol\":5870:5900  state == FlashLoanState.FUNDED */\n      sub\n        /* \"contracts/contracts/protocol/TuliaFlashPool.sol\":644:8083  contract TuliaFlashPool is IERC3156FlashLender, ReentrancyGuard, AccessControl {... */\n      tag_296\n      jumpi\n        /* \"contracts/contracts/protocol/TuliaFlashPool.sol\":5983:5988  asset */\n      0x02\n        /* \"contracts/contracts/protocol/TuliaFlashPool.sol\":644:8083  contract TuliaFlashPool is IERC3156FlashLender, ReentrancyGuard, AccessControl {... */\n      sload\n      mload(0x40)\n      shl(0xe0, 0x70a08231)\n        /* \"contracts/contracts/protocol/TuliaFlashPool.sol\":5983:6013  asset.balanceOf(address(this)) */\n      dup2\n      mstore\n        /* \"contracts/contracts/protocol/TuliaFlashPool.sol\":6007:6011  this */\n      address\n        /* \"contracts/contracts/protocol/TuliaFlashPool.sol\":644:8083  contract TuliaFlashPool is IERC3156FlashLender, ReentrancyGuard, AccessControl {... */\n      0x04\n        /* \"contracts/contracts/protocol/TuliaFlashPool.sol\":5983:6013  asset.balanceOf(address(this)) */\n      dup3\n      add\n        /* \"contracts/contracts/protocol/TuliaFlashPool.sol\":644:8083  contract TuliaFlashPool is IERC3156FlashLender, ReentrancyGuard, AccessControl {... */\n      mstore\n      swap1\n      0x20\n      swap1\n      dup3\n      swap1\n        /* \"contracts/contracts/protocol/TuliaFlashPool.sol\":5983:6013  asset.balanceOf(address(this)) */\n      0x24\n      swap1\n        /* \"contracts/contracts/protocol/TuliaFlashPool.sol\":644:8083  contract TuliaFlashPool is IERC3156FlashLender, ReentrancyGuard, AccessControl {... */\n      dup3\n      swap1\n      sub(shl(0xa0, 0x01), 0x01)\n      and\n        /* \"contracts/contracts/protocol/TuliaFlashPool.sol\":5983:6013  asset.balanceOf(address(this)) */\n      gas\n      staticcall\n      swap1\n      dup2\n      iszero\n      tag_306\n      jumpi\n        /* \"contracts/contracts/protocol/TuliaFlashPool.sol\":644:8083  contract TuliaFlashPool is IERC3156FlashLender, ReentrancyGuard, AccessControl {... */\n      0x00\n        /* \"contracts/contracts/protocol/TuliaFlashPool.sol\":5983:6013  asset.balanceOf(address(this)) */\n      swap2\n      tag_300\n      jumpi\n        /* \"contracts/contracts/protocol/TuliaFlashPool.sol\":644:8083  contract TuliaFlashPool is IERC3156FlashLender, ReentrancyGuard, AccessControl {... */\n    tag_301:\n        /* \"contracts/contracts/protocol/TuliaFlashPool.sol\":6031:6041  amount > 0 */\n      pop\n      dup1\n      iszero\n        /* \"contracts/contracts/protocol/TuliaFlashPool.sol\":644:8083  contract TuliaFlashPool is IERC3156FlashLender, ReentrancyGuard, AccessControl {... */\n      tag_302\n      jumpi\n        /* \"contracts/contracts/protocol/TuliaFlashPool.sol\":5870:5875  state */\n      0x08\n        /* \"contracts/contracts/protocol/TuliaFlashPool.sol\":644:8083  contract TuliaFlashPool is IERC3156FlashLender, ReentrancyGuard, AccessControl {... */\n      dup1\n      sload\n      not(0xff)\n      and\n        /* \"contracts/contracts/protocol/TuliaFlashPool.sol\":5983:5988  asset */\n      0x02\n        /* \"contracts/contracts/protocol/TuliaFlashPool.sol\":644:8083  contract TuliaFlashPool is IERC3156FlashLender, ReentrancyGuard, AccessControl {... */\n      or\n      swap1\n      sstore\n      and(sub(shl(0xa0, 0x01), 0x01), sload(0x04))\n        /* \"contracts/contracts/protocol/TuliaFlashPool.sol\":6116:6227  poolOrganizer.updateLoanState(... */\n      dup1\n      extcodesize\n      iszero\n      tag_152\n      jumpi\n        /* \"contracts/contracts/protocol/TuliaFlashPool.sol\":644:8083  contract TuliaFlashPool is IERC3156FlashLender, ReentrancyGuard, AccessControl {... */\n      0x00\n      dup1\n      swap2\n        /* \"contracts/contracts/protocol/TuliaFlashPool.sol\":6116:6227  poolOrganizer.updateLoanState(... */\n      0x44\n        /* \"contracts/contracts/protocol/TuliaFlashPool.sol\":644:8083  contract TuliaFlashPool is IERC3156FlashLender, ReentrancyGuard, AccessControl {... */\n      mload(0x40)\n      dup1\n      swap5\n      dup2\n      swap4\n      shl(0xe0, 0xa956239b)\n        /* \"contracts/contracts/protocol/TuliaFlashPool.sol\":6116:6227  poolOrganizer.updateLoanState(... */\n      dup4\n      mstore\n        /* \"contracts/contracts/protocol/TuliaFlashPool.sol\":6007:6011  this */\n      address\n        /* \"contracts/contracts/protocol/TuliaFlashPool.sol\":644:8083  contract TuliaFlashPool is IERC3156FlashLender, ReentrancyGuard, AccessControl {... */\n      0x04\n        /* \"contracts/contracts/protocol/TuliaFlashPool.sol\":6116:6227  poolOrganizer.updateLoanState(... */\n      dup5\n      add\n        /* \"contracts/contracts/protocol/TuliaFlashPool.sol\":644:8083  contract TuliaFlashPool is IERC3156FlashLender, ReentrancyGuard, AccessControl {... */\n      mstore\n        /* \"contracts/contracts/protocol/TuliaFlashPool.sol\":6186:6217  IPoolOrganizer.LoanState.CLOSED */\n      0x05\n        /* \"contracts/contracts/protocol/TuliaFlashPool.sol\":5983:6013  asset.balanceOf(address(this)) */\n      0x24\n        /* \"contracts/contracts/protocol/TuliaFlashPool.sol\":644:8083  contract TuliaFlashPool is IERC3156FlashLender, ReentrancyGuard, AccessControl {... */\n      dup5\n      add\n      mstore\n        /* \"contracts/contracts/protocol/TuliaFlashPool.sol\":6116:6227  poolOrganizer.updateLoanState(... */\n      gas\n      call\n      dup1\n      iszero\n      tag_306\n      jumpi\n      tag_308\n      jumpi\n        /* \"contracts/contracts/protocol/TuliaFlashPool.sol\":644:8083  contract TuliaFlashPool is IERC3156FlashLender, ReentrancyGuard, AccessControl {... */\n    tag_309:\n      pop\n      sload(0x04)\n      dup3\n      swap1\n      sub(shl(0xa0, 0x01), 0x01)\n      and\n        /* \"contracts/contracts/protocol/TuliaFlashPool.sol\":6237:6280  poolOrganizer.deregisterPool(address(this)) */\n      dup1\n      extcodesize\n      iszero\n      tag_326\n      jumpi\n        /* \"contracts/contracts/protocol/TuliaFlashPool.sol\":644:8083  contract TuliaFlashPool is IERC3156FlashLender, ReentrancyGuard, AccessControl {... */\n      dup2\n      dup1\n      swap2\n        /* \"contracts/contracts/protocol/TuliaFlashPool.sol\":5983:6013  asset.balanceOf(address(this)) */\n      0x24\n        /* \"contracts/contracts/protocol/TuliaFlashPool.sol\":644:8083  contract TuliaFlashPool is IERC3156FlashLender, ReentrancyGuard, AccessControl {... */\n      mload(0x40)\n      dup1\n      swap5\n      dup2\n      swap4\n      shl(0xe0, 0x7e72c7d7)\n        /* \"contracts/contracts/protocol/TuliaFlashPool.sol\":6237:6280  poolOrganizer.deregisterPool(address(this)) */\n      dup4\n      mstore\n        /* \"contracts/contracts/protocol/TuliaFlashPool.sol\":6007:6011  this */\n      address\n        /* \"contracts/contracts/protocol/TuliaFlashPool.sol\":644:8083  contract TuliaFlashPool is IERC3156FlashLender, ReentrancyGuard, AccessControl {... */\n      0x04\n        /* \"contracts/contracts/protocol/TuliaFlashPool.sol\":6237:6280  poolOrganizer.deregisterPool(address(this)) */\n      dup5\n      add\n        /* \"contracts/contracts/protocol/TuliaFlashPool.sol\":644:8083  contract TuliaFlashPool is IERC3156FlashLender, ReentrancyGuard, AccessControl {... */\n      mstore\n        /* \"contracts/contracts/protocol/TuliaFlashPool.sol\":6237:6280  poolOrganizer.deregisterPool(address(this)) */\n      gas\n      call\n      dup1\n      iszero\n      tag_136\n      jumpi\n      tag_314\n      jumpi\n        /* \"contracts/contracts/protocol/TuliaFlashPool.sol\":644:8083  contract TuliaFlashPool is IERC3156FlashLender, ReentrancyGuard, AccessControl {... */\n    tag_315:\n      pop\n      pop\n        /* \"contracts/contracts/protocol/TuliaFlashPool.sol\":5983:5988  asset */\n      0x02\n        /* \"contracts/contracts/protocol/TuliaFlashPool.sol\":644:8083  contract TuliaFlashPool is IERC3156FlashLender, ReentrancyGuard, AccessControl {... */\n      sload\n        /* \"contracts/contracts/protocol/TuliaFlashPool.sol\":6306:6312  lender */\n      0x06\n        /* \"contracts/contracts/protocol/TuliaFlashPool.sol\":644:8083  contract TuliaFlashPool is IERC3156FlashLender, ReentrancyGuard, AccessControl {... */\n      sload\n      mload(0x40)\n      shl(0xe0, 0xa9059cbb)\n        /* \"contracts/contracts/protocol/TuliaFlashPool.sol\":6291:6321  asset.transfer(lender, amount) */\n      dup2\n      mstore\n      sub(shl(0xa0, 0x01), 0x01)\n        /* \"contracts/contracts/protocol/TuliaFlashPool.sol\":644:8083  contract TuliaFlashPool is IERC3156FlashLender, ReentrancyGuard, AccessControl {... */\n      swap2\n      dup3\n      and\n      0x04\n        /* \"contracts/contracts/protocol/TuliaFlashPool.sol\":6291:6321  asset.transfer(lender, amount) */\n      dup3\n      add\n        /* \"contracts/contracts/protocol/TuliaFlashPool.sol\":644:8083  contract TuliaFlashPool is IERC3156FlashLender, ReentrancyGuard, AccessControl {... */\n      mstore\n      0x24\n      dup2\n      add\n      dup5\n      swap1\n      mstore\n      swap2\n      0x20\n      swap2\n      dup4\n      swap2\n      0x44\n      swap2\n      dup4\n      swap2\n      dup9\n      swap2\n      and\n        /* \"contracts/contracts/protocol/TuliaFlashPool.sol\":6291:6321  asset.transfer(lender, amount) */\n      gas\n      call\n      dup1\n      iszero\n      tag_118\n      jumpi\n      tag_319\n      jumpi\n        /* \"contracts/contracts/protocol/TuliaFlashPool.sol\":644:8083  contract TuliaFlashPool is IERC3156FlashLender, ReentrancyGuard, AccessControl {... */\n    tag_320:\n      pop\n        /* \"contracts/contracts/protocol/TuliaFlashPool.sol\":6306:6312  lender */\n      0x06\n        /* \"contracts/contracts/protocol/TuliaFlashPool.sol\":644:8083  contract TuliaFlashPool is IERC3156FlashLender, ReentrancyGuard, AccessControl {... */\n      sload\n      mload(0x40)\n      swap2\n      dup3\n      mstore\n      sub(shl(0xa0, 0x01), 0x01)\n      and\n      swap1\n        /* \"contracts/contracts/protocol/TuliaFlashPool.sol\":6337:6363  LoanClosed(lender, amount) */\n      0xcab22a4e95d29d40da2ace3f6ec72b49954a9bc7b2584f8fd47bf7f357a3ed6f\n      swap1\n        /* \"contracts/contracts/protocol/TuliaFlashPool.sol\":644:8083  contract TuliaFlashPool is IERC3156FlashLender, ReentrancyGuard, AccessControl {... */\n      0x20\n      swap1\n        /* \"contracts/contracts/protocol/TuliaFlashPool.sol\":6337:6363  LoanClosed(lender, amount) */\n      log2\n        /* \"@openzeppelin/contracts/access/AccessControl.sol\":2954:2960  _roles */\n      0x01\n        /* \"@openzeppelin/contracts/utils/ReentrancyGuard.sol\":1755:1756  2 */\n      dup2\n      sstore\n        /* \"contracts/contracts/protocol/TuliaFlashPool.sol\":644:8083  contract TuliaFlashPool is IERC3156FlashLender, ReentrancyGuard, AccessControl {... */\n      dup1\n      return\n        /* \"contracts/contracts/protocol/TuliaFlashPool.sol\":6291:6321  asset.transfer(lender, amount) */\n    tag_319:\n      tag_321\n      swap1\n        /* \"contracts/contracts/protocol/TuliaFlashPool.sol\":644:8083  contract TuliaFlashPool is IERC3156FlashLender, ReentrancyGuard, AccessControl {... */\n      0x20\n        /* \"contracts/contracts/protocol/TuliaFlashPool.sol\":6291:6321  asset.transfer(lender, amount) */\n      returndatasize\n        /* \"contracts/contracts/protocol/TuliaFlashPool.sol\":644:8083  contract TuliaFlashPool is IERC3156FlashLender, ReentrancyGuard, AccessControl {... */\n      0x20\n        /* \"contracts/contracts/protocol/TuliaFlashPool.sol\":6291:6321  asset.transfer(lender, amount) */\n      gt\n      tag_142\n      jumpi\n      tag_144\n      dup2\n      dup4\n      tag_4\n      jump\t// in\n    tag_321:\n      jump(tag_320)\n        /* \"contracts/contracts/protocol/TuliaFlashPool.sol\":6237:6280  poolOrganizer.deregisterPool(address(this)) */\n    tag_314:\n      dup2\n      tag_325\n      swap2\n      tag_4\n      jump\t// in\n    tag_325:\n        /* \"contracts/contracts/protocol/TuliaFlashPool.sol\":644:8083  contract TuliaFlashPool is IERC3156FlashLender, ReentrancyGuard, AccessControl {... */\n      tag_326\n      jumpi\n        /* \"contracts/contracts/protocol/TuliaFlashPool.sol\":6237:6280  poolOrganizer.deregisterPool(address(this)) */\n      dup2\n      0x00\n      jump(tag_315)\n        /* \"contracts/contracts/protocol/TuliaFlashPool.sol\":644:8083  contract TuliaFlashPool is IERC3156FlashLender, ReentrancyGuard, AccessControl {... */\n    tag_326:\n      pop\n      dup1\n      revert\n        /* \"contracts/contracts/protocol/TuliaFlashPool.sol\":6116:6227  poolOrganizer.updateLoanState(... */\n    tag_308:\n      tag_328\n      swap2\n      swap3\n      pop\n        /* \"contracts/contracts/protocol/TuliaFlashPool.sol\":644:8083  contract TuliaFlashPool is IERC3156FlashLender, ReentrancyGuard, AccessControl {... */\n      0x00\n        /* \"contracts/contracts/protocol/TuliaFlashPool.sol\":6116:6227  poolOrganizer.updateLoanState(... */\n      swap1\n      tag_4\n      jump\t// in\n    tag_328:\n        /* \"contracts/contracts/protocol/TuliaFlashPool.sol\":644:8083  contract TuliaFlashPool is IERC3156FlashLender, ReentrancyGuard, AccessControl {... */\n      0x00\n        /* \"contracts/contracts/protocol/TuliaFlashPool.sol\":6116:6227  poolOrganizer.updateLoanState(... */\n      swap1\n      0x00\n      jump(tag_309)\n    tag_306:\n        /* \"contracts/contracts/protocol/TuliaFlashPool.sol\":644:8083  contract TuliaFlashPool is IERC3156FlashLender, ReentrancyGuard, AccessControl {... */\n      mload(0x40)\n      returndatasize\n      0x00\n      dup3\n      returndatacopy\n      returndatasize\n      swap1\n      revert\n    tag_302:\n      mload(0x40)\n      shl(0xe5, 0x461bcd)\n      dup2\n      mstore\n      0x20\n      0x04\n      dup3\n      add\n      mstore\n      0x14\n        /* \"contracts/contracts/protocol/TuliaFlashPool.sol\":5983:6013  asset.balanceOf(address(this)) */\n      0x24\n        /* \"contracts/contracts/protocol/TuliaFlashPool.sol\":644:8083  contract TuliaFlashPool is IERC3156FlashLender, ReentrancyGuard, AccessControl {... */\n      dup3\n      add\n      mstore\n      shl(0x60, 0x4e6f2066756e647320746f207769746864726177)\n      0x44\n      dup3\n      add\n      mstore\n      0x64\n      swap1\n      revert\n        /* \"contracts/contracts/protocol/TuliaFlashPool.sol\":5983:6013  asset.balanceOf(address(this)) */\n    tag_300:\n      swap1\n      pop\n        /* \"contracts/contracts/protocol/TuliaFlashPool.sol\":644:8083  contract TuliaFlashPool is IERC3156FlashLender, ReentrancyGuard, AccessControl {... */\n      0x20\n        /* \"contracts/contracts/protocol/TuliaFlashPool.sol\":5983:6013  asset.balanceOf(address(this)) */\n      dup2\n      returndatasize\n        /* \"contracts/contracts/protocol/TuliaFlashPool.sol\":644:8083  contract TuliaFlashPool is IERC3156FlashLender, ReentrancyGuard, AccessControl {... */\n      0x20\n        /* \"contracts/contracts/protocol/TuliaFlashPool.sol\":5983:6013  asset.balanceOf(address(this)) */\n      gt\n      tag_329\n      jumpi\n    tag_330:\n      dup2\n      tag_331\n        /* \"contracts/contracts/protocol/TuliaFlashPool.sol\":644:8083  contract TuliaFlashPool is IERC3156FlashLender, ReentrancyGuard, AccessControl {... */\n      0x20\n        /* \"contracts/contracts/protocol/TuliaFlashPool.sol\":5983:6013  asset.balanceOf(address(this)) */\n      swap4\n      dup4\n      tag_4\n      jump\t// in\n    tag_331:\n      dup2\n      add\n        /* \"contracts/contracts/protocol/TuliaFlashPool.sol\":644:8083  contract TuliaFlashPool is IERC3156FlashLender, ReentrancyGuard, AccessControl {... */\n      sub\n      slt\n      tag_152\n      jumpi\n      mload\n        /* \"contracts/contracts/protocol/TuliaFlashPool.sol\":5983:6013  asset.balanceOf(address(this)) */\n      0x00\n      jump(tag_301)\n    tag_329:\n      returndatasize\n      swap2\n      pop\n      jump(tag_330)\n        /* \"contracts/contracts/protocol/TuliaFlashPool.sol\":644:8083  contract TuliaFlashPool is IERC3156FlashLender, ReentrancyGuard, AccessControl {... */\n    tag_296:\n      mload(0x40)\n      shl(0xe5, 0x461bcd)\n      dup2\n      mstore\n      0x20\n      0x04\n      dup3\n      add\n      mstore\n      0x1d\n      0x24\n      dup3\n      add\n      mstore\n      0x4c6f616e206973206e6f7420696e20612066756e646564207374617465000000\n      0x44\n      dup3\n      add\n      mstore\n      0x64\n      swap1\n      revert\n    tag_294:\n      mstore(0x00, shl(0xe0, 0x4e487b71))\n      mstore(0x04, 0x21)\n      revert(0x00, 0x24)\n    tag_292:\n      mload(0x40)\n      shl(0xe5, 0x461bcd)\n      dup2\n      mstore\n      0x20\n      0x04\n      dup3\n      add\n      mstore\n      0x18\n      0x24\n      dup3\n      add\n      mstore\n      0x43616c6c6572206973206e6f7420746865206c656e6465720000000000000000\n      0x44\n      dup3\n      add\n      mstore\n      0x64\n      swap1\n      revert\n    tag_20:\n      jumpi(tag_152, callvalue)\n      jumpi(tag_152, slt(add(not(0x03), calldatasize), 0x20))\n      calldataload(0x04)\n      shl(0xe0, 0xffffffff)\n      dup2\n      and\n      dup1\n      swap2\n      sub\n      tag_152\n      jumpi\n      0x20\n      swap1\n      shl(0xe0, 0x7965db0b)\n        /* \"@openzeppelin/contracts/access/AccessControl.sol\":2673:2720  interfaceId == type(IAccessControl).interfaceId */\n      dup2\n      eq\n      swap1\n        /* \"@openzeppelin/contracts/access/AccessControl.sol\":2673:2760  interfaceId == type(IAccessControl).interfaceId || super.supportsInterface(interfaceId) */\n      dup2\n      iszero\n      tag_340\n      jumpi\n        /* \"contracts/contracts/protocol/TuliaFlashPool.sol\":644:8083  contract TuliaFlashPool is IERC3156FlashLender, ReentrancyGuard, AccessControl {... */\n    tag_341:\n      pop\n      mload(0x40)\n      swap1\n      iszero\n      iszero\n      dup2\n      mstore\n      return\n        /* \"@openzeppelin/contracts/access/AccessControl.sol\":2673:2760  interfaceId == type(IAccessControl).interfaceId || super.supportsInterface(interfaceId) */\n    tag_340:\n      shl(0xe0, 0x01ffc9a7)\n        /* \"@openzeppelin/contracts/utils/introspection/ERC165.sol\":861:901  interfaceId == type(IERC165).interfaceId */\n      eq\n      swap1\n      pop\n        /* \"@openzeppelin/contracts/access/AccessControl.sol\":2673:2760  interfaceId == type(IAccessControl).interfaceId || super.supportsInterface(interfaceId) */\n      dup3\n      jump(tag_341)\n        /* \"contracts/contracts/protocol/TuliaFlashPool.sol\":644:8083  contract TuliaFlashPool is IERC3156FlashLender, ReentrancyGuard, AccessControl {... */\n    tag_18:\n      jumpi(tag_152, callvalue)\n      jumpi(tag_152, slt(add(not(0x03), calldatasize), 0x00))\n      dup1\n        /* \"contracts/contracts/protocol/TuliaFlashPool.sol\":975:999  keccak256(\"LENDER_ROLE\") */\n      0xc60d7a62d8843f2b14bc63f2a5240b187980481ad8c001a3caf4916aef3f667e\n        /* \"contracts/contracts/protocol/TuliaFlashPool.sol\":644:8083  contract TuliaFlashPool is IERC3156FlashLender, ReentrancyGuard, AccessControl {... */\n      0x20\n      swap3\n      mstore\n      return\n    tag_1:\n      calldataload(0x24)\n      swap1\n      sub(shl(0xa0, 0x01), 0x01)\n      dup3\n      and\n      dup3\n      sub\n      tag_152\n      jumpi\n      jump\t// out\n    tag_2:\n      calldataload(0x04)\n      swap1\n      sub(shl(0xa0, 0x01), 0x01)\n      dup3\n      and\n      dup3\n      sub\n      tag_152\n      jumpi\n      jump\t// out\n    tag_3:\n      swap2\n      swap1\n      0x20\n      dup4\n      add\n      swap3\n      0x03\n      dup3\n      lt\n      iszero\n      tag_294\n      jumpi\n      mstore\n      jump\t// out\n    tag_4:\n      swap1\n      0x1f\n      dup1\n      not\n      swap2\n      add\n      and\n      dup2\n      add\n      swap1\n      dup2\n      lt\n      0xffffffffffffffff\n      dup3\n      gt\n      or\n      tag_352\n      jumpi\n      0x40\n      mstore\n      jump\t// out\n    tag_352:\n      mstore(0x00, shl(0xe0, 0x4e487b71))\n      mstore(0x04, 0x41)\n      revert(0x00, 0x24)\n    tag_5:\n      swap1\n      dup2\n      0x20\n      swap2\n      sub\n      slt\n      tag_152\n      jumpi\n      mload\n      dup1\n      iszero\n      iszero\n      dup2\n      sub\n      tag_152\n      jumpi\n      swap1\n      jump\t// out\n    tag_9:\n      iszero\n      tag_358\n      jumpi\n      jump\t// out\n    tag_358:\n      mload(0x40)\n      shl(0xe5, 0x461bcd)\n      dup2\n      mstore\n      0x20\n      0x04\n      dup3\n      add\n      mstore\n      0x11\n      0x24\n      dup3\n      add\n      mstore\n      shl(0x79, 0x2ab739bab83837b93a32b2103a37b5b2b7)\n      0x44\n      dup3\n      add\n      mstore\n      0x64\n      swap1\n      revert\n        /* \"contracts/contracts/protocol/TuliaFlashPool.sol\":4551:4832  function flashFee(address token, uint256 amount)... */\n    tag_10:\n        /* \"contracts/contracts/protocol/TuliaFlashPool.sol\":4710:4715  asset */\n      0x02\n        /* \"contracts/contracts/protocol/TuliaFlashPool.sol\":644:8083  contract TuliaFlashPool is IERC3156FlashLender, ReentrancyGuard, AccessControl {... */\n      sload\n        /* \"contracts/contracts/protocol/TuliaFlashPool.sol\":4685:4738  require(token == address(asset), \"Unsupported token\") */\n      tag_360\n      swap2\n      sub(shl(0xa0, 0x01), 0x01)\n        /* \"contracts/contracts/protocol/TuliaFlashPool.sol\":644:8083  contract TuliaFlashPool is IERC3156FlashLender, ReentrancyGuard, AccessControl {... */\n      swap1\n      dup2\n      and\n      swap2\n      and\n        /* \"contracts/contracts/protocol/TuliaFlashPool.sol\":4693:4716  token == address(asset) */\n      eq\n        /* \"contracts/contracts/protocol/TuliaFlashPool.sol\":4685:4738  require(token == address(asset), \"Unsupported token\") */\n      tag_9\n      jump\t// in\n    tag_360:\n        /* \"contracts/contracts/protocol/TuliaFlashPool.sol\":4776:4792  flashLoanFeeRate */\n      0x07\n        /* \"contracts/contracts/protocol/TuliaFlashPool.sol\":644:8083  contract TuliaFlashPool is IERC3156FlashLender, ReentrancyGuard, AccessControl {... */\n      sload\n      swap1\n      dup2\n      dup2\n      mul\n      swap2\n      dup2\n      dup4\n      div\n      eq\n      swap1\n      iszero\n      or\n      iszero\n      tag_361\n      jumpi\n        /* \"contracts/contracts/protocol/TuliaFlashPool.sol\":4796:4801  10000 */\n      0x2710\n        /* \"contracts/contracts/protocol/TuliaFlashPool.sol\":644:8083  contract TuliaFlashPool is IERC3156FlashLender, ReentrancyGuard, AccessControl {... */\n      swap1\n      div\n        /* \"contracts/contracts/protocol/TuliaFlashPool.sol\":4551:4832  function flashFee(address token, uint256 amount)... */\n      swap1\n      jump\t// out\n        /* \"contracts/contracts/protocol/TuliaFlashPool.sol\":644:8083  contract TuliaFlashPool is IERC3156FlashLender, ReentrancyGuard, AccessControl {... */\n    tag_361:\n      mstore(0x00, shl(0xe0, 0x4e487b71))\n      mstore(0x04, 0x11)\n      revert(0x00, 0x24)\n        /* \"@openzeppelin/contracts/utils/ReentrancyGuard.sol\":2431:2738  function _nonReentrantBefore() private {... */\n    tag_11:\n        /* \"@openzeppelin/contracts/utils/ReentrancyGuard.sol\":1755:1756  2 */\n      0x02\n        /* \"@openzeppelin/contracts/utils/ReentrancyGuard.sol\":2558:2565  _status */\n      0x00\n        /* \"contracts/contracts/protocol/TuliaFlashPool.sol\":644:8083  contract TuliaFlashPool is IERC3156FlashLender, ReentrancyGuard, AccessControl {... */\n      sload\n        /* \"@openzeppelin/contracts/utils/ReentrancyGuard.sol\":2558:2576  _status == ENTERED */\n      eq\n        /* \"@openzeppelin/contracts/utils/ReentrancyGuard.sol\":2554:2640  if (_status == ENTERED) {... */\n      tag_363\n      jumpi\n        /* \"@openzeppelin/contracts/utils/ReentrancyGuard.sol\":1755:1756  2 */\n      0x02\n        /* \"@openzeppelin/contracts/utils/ReentrancyGuard.sol\":2558:2565  _status */\n      0x00\n        /* \"@openzeppelin/contracts/utils/ReentrancyGuard.sol\":1755:1756  2 */\n      sstore\n        /* \"@openzeppelin/contracts/utils/ReentrancyGuard.sol\":2431:2738  function _nonReentrantBefore() private {... */\n      jump\t// out\n        /* \"@openzeppelin/contracts/utils/ReentrancyGuard.sol\":2554:2640  if (_status == ENTERED) {... */\n    tag_363:\n        /* \"@openzeppelin/contracts/utils/ReentrancyGuard.sol\":2599:2629  ReentrancyGuardReentrantCall() */\n      shl(0xe0, 0x3ee5aeb5)\n        /* \"@openzeppelin/contracts/utils/ReentrancyGuard.sol\":2558:2565  _status */\n      0x00\n        /* \"@openzeppelin/contracts/utils/ReentrancyGuard.sol\":2599:2629  ReentrancyGuardReentrantCall() */\n      mstore\n      0x04\n        /* \"@openzeppelin/contracts/utils/ReentrancyGuard.sol\":2558:2565  _status */\n      0x00\n        /* \"@openzeppelin/contracts/utils/ReentrancyGuard.sol\":2599:2629  ReentrancyGuardReentrantCall() */\n      revert\n        /* \"@openzeppelin/contracts/access/AccessControl.sol\":3199:3302  function _checkRole(bytes32 role) internal view virtual {... */\n    tag_12:\n      0x00\n        /* \"contracts/contracts/protocol/TuliaFlashPool.sol\":644:8083  contract TuliaFlashPool is IERC3156FlashLender, ReentrancyGuard, AccessControl {... */\n      dup2\n      dup2\n      mstore\n        /* \"@openzeppelin/contracts/access/AccessControl.sol\":2954:2960  _roles */\n      0x01\n        /* \"contracts/contracts/protocol/TuliaFlashPool.sol\":644:8083  contract TuliaFlashPool is IERC3156FlashLender, ReentrancyGuard, AccessControl {... */\n      0x20\n      swap1\n      dup2\n      mstore\n      0x40\n      dup1\n      dup4\n      keccak256\n        /* \"@openzeppelin/contracts/utils/Context.sol\":735:745  msg.sender */\n      caller\n        /* \"contracts/contracts/protocol/TuliaFlashPool.sol\":644:8083  contract TuliaFlashPool is IERC3156FlashLender, ReentrancyGuard, AccessControl {... */\n      dup5\n      mstore\n      swap1\n      swap2\n      mstore\n      swap1\n      keccak256\n      sload\n      0xff\n      and\n        /* \"@openzeppelin/contracts/access/AccessControl.sol\":3519:3542  !hasRole(role, account) */\n      iszero\n        /* \"@openzeppelin/contracts/access/AccessControl.sol\":3515:3623  if (!hasRole(role, account)) {... */\n      tag_365\n      jumpi\n        /* \"@openzeppelin/contracts/access/AccessControl.sol\":3199:3302  function _checkRole(bytes32 role) internal view virtual {... */\n      pop\n      jump\t// out\n        /* \"@openzeppelin/contracts/access/AccessControl.sol\":3515:3623  if (!hasRole(role, account)) {... */\n    tag_365:\n        /* \"@openzeppelin/contracts/access/AccessControl.sol\":3565:3612  AccessControlUnauthorizedAccount(account, role) */\n      mstore(0x00, shl(0xe0, 0xe2517d3f))\n        /* \"@openzeppelin/contracts/utils/Context.sol\":735:745  msg.sender */\n      caller\n        /* \"@openzeppelin/contracts/access/AccessControl.sol\":3565:3612  AccessControlUnauthorizedAccount(account, role) */\n      0x04\n        /* \"contracts/contracts/protocol/TuliaFlashPool.sol\":644:8083  contract TuliaFlashPool is IERC3156FlashLender, ReentrancyGuard, AccessControl {... */\n      mstore\n      0x24\n      mstore\n      0x44\n      0x00\n        /* \"@openzeppelin/contracts/access/AccessControl.sol\":3565:3612  AccessControlUnauthorizedAccount(account, role) */\n      revert\n        /* \"@openzeppelin/contracts/access/AccessControl.sol\":6179:6495  function _grantRole(bytes32 role, address account) internal virtual returns (bool) {... */\n    tag_13:\n      sub(shl(0xa0, 0x01), 0x01)\n        /* \"contracts/contracts/protocol/TuliaFlashPool.sol\":644:8083  contract TuliaFlashPool is IERC3156FlashLender, ReentrancyGuard, AccessControl {... */\n      dup2\n      and\n      0x00\n      swap1\n      dup2\n      mstore\n      mstore(0x20, 0x95902c4d6c8ea17825d5632af066dcb87e033f1b2a91b49a7ad79e83f02c4dec)\n      0x40\n      swap1\n      keccak256\n      sload\n      0xff\n      and\n      tag_367\n      jumpi\n      sub(shl(0xa0, 0x01), 0x01)\n      and\n      0x00\n      dup2\n      dup2\n      mstore\n      mstore(0x20, 0x95902c4d6c8ea17825d5632af066dcb87e033f1b2a91b49a7ad79e83f02c4dec)\n      0x40\n      dup2\n      keccak256\n      dup1\n      sload\n      not(0xff)\n      and\n        /* \"@openzeppelin/contracts/access/AccessControl.sol\":2954:2960  _roles */\n      0x01\n        /* \"contracts/contracts/protocol/TuliaFlashPool.sol\":644:8083  contract TuliaFlashPool is IERC3156FlashLender, ReentrancyGuard, AccessControl {... */\n      or\n      swap1\n      sstore\n        /* \"@openzeppelin/contracts/utils/Context.sol\":735:745  msg.sender */\n      caller\n      swap2\n        /* \"contracts/contracts/protocol/TuliaFlashPool.sol\":644:8083  contract TuliaFlashPool is IERC3156FlashLender, ReentrancyGuard, AccessControl {... */\n      swap1\n        /* \"contracts/contracts/protocol/TuliaFlashPool.sol\":975:999  keccak256(\"LENDER_ROLE\") */\n      0xc60d7a62d8843f2b14bc63f2a5240b187980481ad8c001a3caf4916aef3f667e\n      swap1\n        /* \"@openzeppelin/contracts/access/AccessControl.sol\":6370:6410  RoleGranted(role, account, _msgSender()) */\n      0x2f8788117e7eff1d82e926ec794901d17c78024a50270940304540a733656f0d\n      swap1\n        /* \"contracts/contracts/protocol/TuliaFlashPool.sol\":644:8083  contract TuliaFlashPool is IERC3156FlashLender, ReentrancyGuard, AccessControl {... */\n      dup1\n        /* \"@openzeppelin/contracts/access/AccessControl.sol\":6370:6410  RoleGranted(role, account, _msgSender()) */\n      log4\n        /* \"@openzeppelin/contracts/access/AccessControl.sol\":2954:2960  _roles */\n      0x01\n        /* \"@openzeppelin/contracts/access/AccessControl.sol\":6424:6435  return true */\n      swap1\n      jump\t// out\n        /* \"@openzeppelin/contracts/access/AccessControl.sol\":6272:6489  if (!hasRole(role, account)) {... */\n    tag_367:\n        /* \"@openzeppelin/contracts/access/AccessControl.sol\":6466:6478  return false */\n      pop\n        /* \"contracts/contracts/protocol/TuliaFlashPool.sol\":644:8083  contract TuliaFlashPool is IERC3156FlashLender, ReentrancyGuard, AccessControl {... */\n      0x00\n        /* \"@openzeppelin/contracts/access/AccessControl.sol\":6466:6478  return false */\n      swap1\n      jump\t// out\n        /* \"@openzeppelin/contracts/access/AccessControl.sol\":6179:6495  function _grantRole(bytes32 role, address account) internal virtual returns (bool) {... */\n    tag_14:\n        /* \"contracts/contracts/protocol/TuliaFlashPool.sol\":644:8083  contract TuliaFlashPool is IERC3156FlashLender, ReentrancyGuard, AccessControl {... */\n      0x00\n      dup2\n      dup2\n      mstore\n        /* \"@openzeppelin/contracts/access/AccessControl.sol\":2954:2960  _roles */\n      0x01\n        /* \"contracts/contracts/protocol/TuliaFlashPool.sol\":644:8083  contract TuliaFlashPool is IERC3156FlashLender, ReentrancyGuard, AccessControl {... */\n      0x20\n      swap1\n      dup2\n      mstore\n      0x40\n      dup1\n      dup4\n      keccak256\n      sub(shl(0xa0, 0x01), 0x01)\n      dup7\n      and\n      dup5\n      mstore\n      swap1\n      swap2\n      mstore\n      swap1\n      keccak256\n      sload\n      0xff\n      and\n      tag_369\n      jumpi\n      0x00\n      dup2\n      dup2\n      mstore\n        /* \"@openzeppelin/contracts/access/AccessControl.sol\":2954:2960  _roles */\n      0x01\n        /* \"contracts/contracts/protocol/TuliaFlashPool.sol\":644:8083  contract TuliaFlashPool is IERC3156FlashLender, ReentrancyGuard, AccessControl {... */\n      0x20\n      dup2\n      dup2\n      mstore\n      0x40\n      dup1\n      dup5\n      keccak256\n      sub(shl(0xa0, 0x01), 0x01)\n      swap7\n      swap1\n      swap7\n      and\n      dup1\n      dup6\n      mstore\n      swap6\n      swap1\n      swap2\n      mstore\n      dup3\n      keccak256\n      dup1\n      sload\n      not(0xff)\n      and\n      swap1\n      swap2\n      or\n      swap1\n      sstore\n        /* \"@openzeppelin/contracts/utils/Context.sol\":735:745  msg.sender */\n      caller\n      swap3\n        /* \"contracts/contracts/protocol/TuliaFlashPool.sol\":644:8083  contract TuliaFlashPool is IERC3156FlashLender, ReentrancyGuard, AccessControl {... */\n      swap2\n      swap1\n        /* \"@openzeppelin/contracts/access/AccessControl.sol\":6370:6410  RoleGranted(role, account, _msgSender()) */\n      0x2f8788117e7eff1d82e926ec794901d17c78024a50270940304540a733656f0d\n      swap1\n        /* \"contracts/contracts/protocol/TuliaFlashPool.sol\":644:8083  contract TuliaFlashPool is IERC3156FlashLender, ReentrancyGuard, AccessControl {... */\n      dup1\n        /* \"@openzeppelin/contracts/access/AccessControl.sol\":6370:6410  RoleGranted(role, account, _msgSender()) */\n      log4\n        /* \"@openzeppelin/contracts/access/AccessControl.sol\":2954:2960  _roles */\n      0x01\n        /* \"@openzeppelin/contracts/access/AccessControl.sol\":6424:6435  return true */\n      swap1\n      jump\t// out\n        /* \"@openzeppelin/contracts/access/AccessControl.sol\":6272:6489  if (!hasRole(role, account)) {... */\n    tag_369:\n        /* \"@openzeppelin/contracts/access/AccessControl.sol\":6466:6478  return false */\n      pop\n      pop\n        /* \"contracts/contracts/protocol/TuliaFlashPool.sol\":644:8083  contract TuliaFlashPool is IERC3156FlashLender, ReentrancyGuard, AccessControl {... */\n      0x00\n        /* \"@openzeppelin/contracts/access/AccessControl.sol\":6466:6478  return false */\n      swap1\n      jump\t// out\n        /* \"@openzeppelin/contracts/access/AccessControl.sol\":6730:7047  function _revokeRole(bytes32 role, address account) internal virtual returns (bool) {... */\n    tag_15:\n        /* \"contracts/contracts/protocol/TuliaFlashPool.sol\":644:8083  contract TuliaFlashPool is IERC3156FlashLender, ReentrancyGuard, AccessControl {... */\n      0x00\n      dup2\n      dup2\n      mstore\n        /* \"@openzeppelin/contracts/access/AccessControl.sol\":2954:2960  _roles */\n      0x01\n        /* \"contracts/contracts/protocol/TuliaFlashPool.sol\":644:8083  contract TuliaFlashPool is IERC3156FlashLender, ReentrancyGuard, AccessControl {... */\n      0x20\n      swap1\n      dup2\n      mstore\n      0x40\n      dup1\n      dup4\n      keccak256\n      sub(shl(0xa0, 0x01), 0x01)\n      dup7\n      and\n      dup5\n      mstore\n      swap1\n      swap2\n      mstore\n      swap1\n      keccak256\n      sload\n      0xff\n      and\n      iszero\n      tag_369\n      jumpi\n      0x00\n      dup2\n      dup2\n      mstore\n        /* \"@openzeppelin/contracts/access/AccessControl.sol\":2954:2960  _roles */\n      0x01\n        /* \"contracts/contracts/protocol/TuliaFlashPool.sol\":644:8083  contract TuliaFlashPool is IERC3156FlashLender, ReentrancyGuard, AccessControl {... */\n      0x20\n      swap1\n      dup2\n      mstore\n      0x40\n      dup1\n      dup4\n      keccak256\n      sub(shl(0xa0, 0x01), 0x01)\n      swap6\n      swap1\n      swap6\n      and\n      dup1\n      dup5\n      mstore\n      swap5\n      swap1\n      swap2\n      mstore\n      dup2\n      keccak256\n      dup1\n      sload\n      not(0xff)\n      and\n      swap1\n      sstore\n        /* \"@openzeppelin/contracts/utils/Context.sol\":735:745  msg.sender */\n      caller\n      swap3\n        /* \"contracts/contracts/protocol/TuliaFlashPool.sol\":644:8083  contract TuliaFlashPool is IERC3156FlashLender, ReentrancyGuard, AccessControl {... */\n      swap2\n      swap1\n        /* \"@openzeppelin/contracts/access/AccessControl.sol\":6922:6962  RoleRevoked(role, account, _msgSender()) */\n      0xf6391f5c32d9c69d2a47ea670b442974b53935d1edc7fd64eb21e047a839171b\n      swap1\n        /* \"contracts/contracts/protocol/TuliaFlashPool.sol\":644:8083  contract TuliaFlashPool is IERC3156FlashLender, ReentrancyGuard, AccessControl {... */\n      dup1\n        /* \"@openzeppelin/contracts/access/AccessControl.sol\":6922:6962  RoleRevoked(role, account, _msgSender()) */\n      log4\n        /* \"@openzeppelin/contracts/access/AccessControl.sol\":2954:2960  _roles */\n      0x01\n        /* \"@openzeppelin/contracts/access/AccessControl.sol\":6976:6987  return true */\n      swap1\n      jump\t// out\n\n    auxdata: 0xa2646970667358221220529c49a1c174c87525d21141ef07129a18f06108a365495bf724d08a23e85ab064736f6c634300081a0033\n}\n",
				"bytecode": {
					"linkReferences": {},
					"object": "6080346100e057601f6114d538819003918201601f19168301916001600160401b038311848410176100e45780849260a0946040528339810103126100e05780516001600160a01b03811691908290036100e057602081015160408201516001600160a01b03811691908290036100e05760608301516001600160a01b03811693908490036100e057608001519360015f5560018060a01b0319600254161760025560075560018060a01b0319600454161760045560018060a01b0319600554161760055560035560ff19600854166008556040516113dc90816100f98239f35b5f80fd5b634e487b7160e01b5f52604160045260245ffdfe6080806040526004361015610012575f80fd5b5f905f3560e01c908162abafe11461101e5750806301ffc9a714610fc8578063232fa73314610ca9578063248a9ca314610c7d5780632f2ff15d14610c3e57806336568abe14610bf957806338d52e0f14610bd05780635cffe9de146106d6578063613255ab146106265780638c9f305f146106085780638db57994146102a757806391d148541461025d5780639d585f7f1461023f578063a217fddf14610223578063bcead63e146101fa578063c19d93fb146101a7578063c51b9507146101d1578063c694b54c146101a7578063c9c363531461017e578063d547741f146101365763d9d98ce414610104575f80fd5b3461013357604036600319011261013357602061012b61012261106c565b60243590611123565b604051908152f35b80fd5b50346101335760403660031901126101335761017a600435610156611056565b90610175610170825f526001602052600160405f20015490565b61118b565b611322565b5080f35b50346101335780600319360112610133576005546040516001600160a01b039091168152602090f35b50346101335780600319360112610133576101cd60ff6008541660405191829182611082565b0390f35b50346101335780600319360112610133576004546040516001600160a01b039091168152602090f35b50346101335780600319360112610133576006546040516001600160a01b039091168152602090f35b5034610133578060031936011261013357602090604051908152f35b50346101335780600319360112610133576020600354604051908152f35b5034610133576040366003190112610133576040610279611056565b9160043581526001602052209060018060a01b03165f52602052602060ff60405f2054166040519015158152f35b50346101335780600319360112610133576102c061116d565b60ff6008541660038110156105f4576105b657600680546001600160a01b031916339081179091556002546040516370a0823160e01b815260048101929092526001600160a01b0316602082602481845afa9182156105ab578392610577575b5060035480921061052457604051636eb1769f60e11b8152336004820152306024820152602081604481855afa801561051957839185916104e0575b501061048f576040516323b872dd60e01b815233600482015230602482015260448101929092526020908290606490829086905af1801561046757610472575b506005546002546003546040516351c1572160e01b81523060048201526001600160a01b039283166024820152604481019190915291602091839160649183918791165af180156104675761043a575b506103f6336111c5565b50600160ff1960085416176008556003546040519081527f726d5f1a838fe31748f737fa3ae5539ccff95952adfc593a1299532b643ff7a860203392a26001815580f35b61045b9060203d602011610460575b6104538183611095565b8101906110cb565b6103ec565b503d610449565b6040513d84823e3d90fd5b61048a9060203d602011610460576104538183611095565b61039c565b60405162461bcd60e51b815260206004820152602360248201527f416c6c6f77616e6365206e6f742073657420666f72207468697320636f6e74726044820152621858dd60ea1b6064820152608490fd5b9150506020813d602011610511575b816104fc60209383611095565b8101031261050d578290515f61035c565b5f80fd5b3d91506104ef565b6040513d86823e3d90fd5b60405162461bcd60e51b815260206004820152602560248201527f496e73756666696369656e742062616c616e636520746f2066756e6420746865604482015264103637b0b760d91b6064820152608490fd5b9091506020813d6020116105a3575b8161059360209383611095565b8101031261050d5751905f610320565b3d9150610586565b6040513d85823e3d90fd5b60405162461bcd60e51b8152602060048201526016602482015275131bd85b881a5cc8185b1c9958591e48199d5b99195960521b6044820152606490fd5b634e487b7160e01b82526021600452602482fd5b50346101335780600319360112610133576020600754604051908152f35b50346101335760203660031901126101335761064061106c565b6002546001600160a01b0390811692911682036106cd576020602492604051938480926370a0823160e01b82523060048301525afa9081156106c1579061068e575b60209150604051908152f35b506020813d6020116106b9575b816106a860209383611095565b8101031261050d5760209051610682565b3d915061069b565b604051903d90823e3d90fd5b6020915061012b565b5034610133576080366003190112610133576004356001600160a01b038116919082900361013357610706611056565b6044359260643567ffffffffffffffff8111610bcc5736602382011215610bcc5780600401359067ffffffffffffffff8211610bc8573660248383010111610bc85761075061116d565b60ff600854166003811015610bb457600103610b7d576002546001600160a01b03858116959116919061078f90889061078a8886146110e3565b611123565b92604051926370a0823160e01b8452306004850152602084602481845afa938415610b39579088918295610b44575b5060405163a9059cbb60e01b81526001600160a01b0388166004820152602481018b9052916020918391829081604481015b03925af18015610b3957896020936024959360c493610b1e575b508060405196879586946323e30c8b60e01b86523360048701528d8387015260448601528a606486015260a060848601528260a4860152018484013781810183018b9052601f01601f1916810103018189885af18015610a70578690610ac8575b7f439148f0bbc682ca079e46d6e2c2f0c1e3b820f1a291b069d8882abf8cf18dd9915003610a8f57818601808711610a7b576002546040516323b872dd60e01b81526001600160a01b038681166004830152306024830152604482019390935291602091839160649183918b91165af18015610a7057610a53575b506002546040516370a0823160e01b81523060048201526001600160a01b039091169190602081602481865afa908115610a48578791610a16575b50106109d15760065460405163a9059cbb60e01b81526001600160a01b03909116600482015260248101839052906020908290604490829089905af180156109c657957f9d0d497e678f62d6b162c97b9724a39f45fe674650dcd4a5e88ff6317e63764f926040926001986109a9575b5082519182526020820152a355602060405160018152f35b6109c19060203d602011610460576104538183611095565b610991565b6040513d87823e3d90fd5b60405162461bcd60e51b815260206004820152601b60248201527f466c617368206c6f616e2072657061796d656e74206661696c656400000000006044820152606490fd5b90506020813d602011610a40575b81610a3160209383611095565b8101031261050d57515f610921565b3d9150610a24565b6040513d89823e3d90fd5b610a6b9060203d602011610460576104538183611095565b6108e6565b6040513d88823e3d90fd5b634e487b7160e01b86526011600452602486fd5b60405162461bcd60e51b8152602060048201526011602482015270119b185cda081b1bd85b8819985a5b1959607a1b6044820152606490fd5b506020813d602011610b16575b81610ae260209383611095565b81010312610b12577f439148f0bbc682ca079e46d6e2c2f0c1e3b820f1a291b069d8882abf8cf18dd9905161086b565b8580fd5b3d9150610ad5565b610b3490863d8811610460576104538183611095565b61080a565b6040513d8a823e3d90fd5b915093506020813d602011610b75575b81610b6160209383611095565b8101031261050d57519287906107f06107be565b3d9150610b54565b60405162461bcd60e51b815260206004820152600f60248201526e141bdbdb081b9bdd08199d5b991959608a1b6044820152606490fd5b634e487b7160e01b86526021600452602486fd5b8480fd5b8380fd5b50346101335780600319360112610133576002546040516001600160a01b039091168152602090f35b503461013357604036600319011261013357610c13611056565b336001600160a01b03821603610c2f5761017a90600435611322565b63334bd91960e11b8252600482fd5b50346101335760403660031901126101335761017a600435610c5e611056565b90610c78610170825f526001602052600160405f20015490565b611296565b503461013357602036600319011261013357602061012b6004355f526001602052600160405f20015490565b503461050d575f36600319011261050d57610cc261116d565b335f9081527f95902c4d6c8ea17825d5632af066dcb87e033f1b2a91b49a7ad79e83f02c4dec602052604090205460ff1615610f835760ff600854166003811015610f6f57600103610f2a576002546040516370a0823160e01b815230600482015290602090829060249082906001600160a01b03165afa908115610eb1575f91610ef8575b508015610ebc576008805460ff191660021790556004546001600160a01b0316803b1561050d575f809160446040518094819363a956239b60e01b8352306004840152600560248401525af18015610eb157610e9c575b5060045482906001600160a01b0316803b15610e9857818091602460405180948193637e72c7d760e01b83523060048401525af1801561046757610e83575b505060025460065460405163a9059cbb60e01b81526001600160a01b0391821660048201526024810184905291602091839160449183918891165af180156105ab57610e66575b506006546040519182526001600160a01b0316907fcab22a4e95d29d40da2ace3f6ec72b49954a9bc7b2584f8fd47bf7f357a3ed6f90602090a26001815580f35b610e7e9060203d602011610460576104538183611095565b610e25565b81610e8d91611095565b610e9857815f610dde565b5080fd5b610ea99192505f90611095565b5f905f610d9f565b6040513d5f823e3d90fd5b60405162461bcd60e51b81526020600482015260146024820152734e6f2066756e647320746f20776974686472617760601b6044820152606490fd5b90506020813d602011610f22575b81610f1360209383611095565b8101031261050d57515f610d48565b3d9150610f06565b60405162461bcd60e51b815260206004820152601d60248201527f4c6f616e206973206e6f7420696e20612066756e6465642073746174650000006044820152606490fd5b634e487b7160e01b5f52602160045260245ffd5b60405162461bcd60e51b815260206004820152601860248201527f43616c6c6572206973206e6f7420746865206c656e64657200000000000000006044820152606490fd5b3461050d57602036600319011261050d5760043563ffffffff60e01b811680910361050d57602090637965db0b60e01b811490811561100d575b506040519015158152f35b6301ffc9a760e01b14905082611002565b3461050d575f36600319011261050d57807fc60d7a62d8843f2b14bc63f2a5240b187980481ad8c001a3caf4916aef3f667e60209252f35b602435906001600160a01b038216820361050d57565b600435906001600160a01b038216820361050d57565b919060208301926003821015610f6f5752565b90601f8019910116810190811067ffffffffffffffff8211176110b757604052565b634e487b7160e01b5f52604160045260245ffd5b9081602091031261050d5751801515810361050d5790565b156110ea57565b60405162461bcd60e51b81526020600482015260116024820152702ab739bab83837b93a32b2103a37b5b2b760791b6044820152606490fd5b60025461113d916001600160a01b039081169116146110e3565b6007549081810291818304149015171561115957612710900490565b634e487b7160e01b5f52601160045260245ffd5b60025f541461117c5760025f55565b633ee5aeb560e01b5f5260045ffd5b5f81815260016020908152604080832033845290915290205460ff16156111af5750565b63e2517d3f60e01b5f523360045260245260445ffd5b6001600160a01b0381165f9081527f95902c4d6c8ea17825d5632af066dcb87e033f1b2a91b49a7ad79e83f02c4dec602052604090205460ff16611291576001600160a01b03165f8181527f95902c4d6c8ea17825d5632af066dcb87e033f1b2a91b49a7ad79e83f02c4dec60205260408120805460ff191660011790553391907fc60d7a62d8843f2b14bc63f2a5240b187980481ad8c001a3caf4916aef3f667e907f2f8788117e7eff1d82e926ec794901d17c78024a50270940304540a733656f0d9080a4600190565b505f90565b5f8181526001602090815260408083206001600160a01b038616845290915290205460ff1661131c575f8181526001602081815260408084206001600160a01b0396909616808552959091528220805460ff19169091179055339291907f2f8788117e7eff1d82e926ec794901d17c78024a50270940304540a733656f0d9080a4600190565b50505f90565b5f8181526001602090815260408083206001600160a01b038616845290915290205460ff161561131c575f8181526001602090815260408083206001600160a01b0395909516808452949091528120805460ff19169055339291907ff6391f5c32d9c69d2a47ea670b442974b53935d1edc7fd64eb21e047a839171b9080a460019056fea2646970667358221220529c49a1c174c87525d21141ef07129a18f06108a365495bf724d08a23e85ab064736f6c634300081a0033",
					"opcodes": "PUSH1 0x80 CALLVALUE PUSH2 0xE0 JUMPI PUSH1 0x1F PUSH2 0x14D5 CODESIZE DUP2 SWAP1 SUB SWAP2 DUP3 ADD PUSH1 0x1F NOT AND DUP4 ADD SWAP2 PUSH1 0x1 PUSH1 0x1 PUSH1 0x40 SHL SUB DUP4 GT DUP5 DUP5 LT OR PUSH2 0xE4 JUMPI DUP1 DUP5 SWAP3 PUSH1 0xA0 SWAP5 PUSH1 0x40 MSTORE DUP4 CODECOPY DUP2 ADD SUB SLT PUSH2 0xE0 JUMPI DUP1 MLOAD PUSH1 0x1 PUSH1 0x1 PUSH1 0xA0 SHL SUB DUP2 AND SWAP2 SWAP1 DUP3 SWAP1 SUB PUSH2 0xE0 JUMPI PUSH1 0x20 DUP2 ADD MLOAD PUSH1 0x40 DUP3 ADD MLOAD PUSH1 0x1 PUSH1 0x1 PUSH1 0xA0 SHL SUB DUP2 AND SWAP2 SWAP1 DUP3 SWAP1 SUB PUSH2 0xE0 JUMPI PUSH1 0x60 DUP4 ADD MLOAD PUSH1 0x1 PUSH1 0x1 PUSH1 0xA0 SHL SUB DUP2 AND SWAP4 SWAP1 DUP5 SWAP1 SUB PUSH2 0xE0 JUMPI PUSH1 0x80 ADD MLOAD SWAP4 PUSH1 0x1 PUSH0 SSTORE PUSH1 0x1 DUP1 PUSH1 0xA0 SHL SUB NOT PUSH1 0x2 SLOAD AND OR PUSH1 0x2 SSTORE PUSH1 0x7 SSTORE PUSH1 0x1 DUP1 PUSH1 0xA0 SHL SUB NOT PUSH1 0x4 SLOAD AND OR PUSH1 0x4 SSTORE PUSH1 0x1 DUP1 PUSH1 0xA0 SHL SUB NOT PUSH1 0x5 SLOAD AND OR PUSH1 0x5 SSTORE PUSH1 0x3 SSTORE PUSH1 0xFF NOT PUSH1 0x8 SLOAD AND PUSH1 0x8 SSTORE PUSH1 0x40 MLOAD PUSH2 0x13DC SWAP1 DUP2 PUSH2 0xF9 DUP3 CODECOPY RETURN JUMPDEST PUSH0 DUP1 REVERT JUMPDEST PUSH4 0x4E487B71 PUSH1 0xE0 SHL PUSH0 MSTORE PUSH1 0x41 PUSH1 0x4 MSTORE PUSH1 0x24 PUSH0 REVERT INVALID PUSH1 0x80 DUP1 PUSH1 0x40 MSTORE PUSH1 0x4 CALLDATASIZE LT ISZERO PUSH2 0x12 JUMPI PUSH0 DUP1 REVERT JUMPDEST PUSH0 SWAP1 PUSH0 CALLDATALOAD PUSH1 0xE0 SHR SWAP1 DUP2 PUSH3 0xABAFE1 EQ PUSH2 0x101E JUMPI POP DUP1 PUSH4 0x1FFC9A7 EQ PUSH2 0xFC8 JUMPI DUP1 PUSH4 0x232FA733 EQ PUSH2 0xCA9 JUMPI DUP1 PUSH4 0x248A9CA3 EQ PUSH2 0xC7D JUMPI DUP1 PUSH4 0x2F2FF15D EQ PUSH2 0xC3E JUMPI DUP1 PUSH4 0x36568ABE EQ PUSH2 0xBF9 JUMPI DUP1 PUSH4 0x38D52E0F EQ PUSH2 0xBD0 JUMPI DUP1 PUSH4 0x5CFFE9DE EQ PUSH2 0x6D6 JUMPI DUP1 PUSH4 0x613255AB EQ PUSH2 0x626 JUMPI DUP1 PUSH4 0x8C9F305F EQ PUSH2 0x608 JUMPI DUP1 PUSH4 0x8DB57994 EQ PUSH2 0x2A7 JUMPI DUP1 PUSH4 0x91D14854 EQ PUSH2 0x25D JUMPI DUP1 PUSH4 0x9D585F7F EQ PUSH2 0x23F JUMPI DUP1 PUSH4 0xA217FDDF EQ PUSH2 0x223 JUMPI DUP1 PUSH4 0xBCEAD63E EQ PUSH2 0x1FA JUMPI DUP1 PUSH4 0xC19D93FB EQ PUSH2 0x1A7 JUMPI DUP1 PUSH4 0xC51B9507 EQ PUSH2 0x1D1 JUMPI DUP1 PUSH4 0xC694B54C EQ PUSH2 0x1A7 JUMPI DUP1 PUSH4 0xC9C36353 EQ PUSH2 0x17E JUMPI DUP1 PUSH4 0xD547741F EQ PUSH2 0x136 JUMPI PUSH4 0xD9D98CE4 EQ PUSH2 0x104 JUMPI PUSH0 DUP1 REVERT JUMPDEST CALLVALUE PUSH2 0x133 JUMPI PUSH1 0x40 CALLDATASIZE PUSH1 0x3 NOT ADD SLT PUSH2 0x133 JUMPI PUSH1 0x20 PUSH2 0x12B PUSH2 0x122 PUSH2 0x106C JUMP JUMPDEST PUSH1 0x24 CALLDATALOAD SWAP1 PUSH2 0x1123 JUMP JUMPDEST PUSH1 0x40 MLOAD SWAP1 DUP2 MSTORE RETURN JUMPDEST DUP1 REVERT JUMPDEST POP CALLVALUE PUSH2 0x133 JUMPI PUSH1 0x40 CALLDATASIZE PUSH1 0x3 NOT ADD SLT PUSH2 0x133 JUMPI PUSH2 0x17A PUSH1 0x4 CALLDATALOAD PUSH2 0x156 PUSH2 0x1056 JUMP JUMPDEST SWAP1 PUSH2 0x175 PUSH2 0x170 DUP3 PUSH0 MSTORE PUSH1 0x1 PUSH1 0x20 MSTORE PUSH1 0x1 PUSH1 0x40 PUSH0 KECCAK256 ADD SLOAD SWAP1 JUMP JUMPDEST PUSH2 0x118B JUMP JUMPDEST PUSH2 0x1322 JUMP JUMPDEST POP DUP1 RETURN JUMPDEST POP CALLVALUE PUSH2 0x133 JUMPI DUP1 PUSH1 0x3 NOT CALLDATASIZE ADD SLT PUSH2 0x133 JUMPI PUSH1 0x5 SLOAD PUSH1 0x40 MLOAD PUSH1 0x1 PUSH1 0x1 PUSH1 0xA0 SHL SUB SWAP1 SWAP2 AND DUP2 MSTORE PUSH1 0x20 SWAP1 RETURN JUMPDEST POP CALLVALUE PUSH2 0x133 JUMPI DUP1 PUSH1 0x3 NOT CALLDATASIZE ADD SLT PUSH2 0x133 JUMPI PUSH2 0x1CD PUSH1 0xFF PUSH1 0x8 SLOAD AND PUSH1 0x40 MLOAD SWAP2 DUP3 SWAP2 DUP3 PUSH2 0x1082 JUMP JUMPDEST SUB SWAP1 RETURN JUMPDEST POP CALLVALUE PUSH2 0x133 JUMPI DUP1 PUSH1 0x3 NOT CALLDATASIZE ADD SLT PUSH2 0x133 JUMPI PUSH1 0x4 SLOAD PUSH1 0x40 MLOAD PUSH1 0x1 PUSH1 0x1 PUSH1 0xA0 SHL SUB SWAP1 SWAP2 AND DUP2 MSTORE PUSH1 0x20 SWAP1 RETURN JUMPDEST POP CALLVALUE PUSH2 0x133 JUMPI DUP1 PUSH1 0x3 NOT CALLDATASIZE ADD SLT PUSH2 0x133 JUMPI PUSH1 0x6 SLOAD PUSH1 0x40 MLOAD PUSH1 0x1 PUSH1 0x1 PUSH1 0xA0 SHL SUB SWAP1 SWAP2 AND DUP2 MSTORE PUSH1 0x20 SWAP1 RETURN JUMPDEST POP CALLVALUE PUSH2 0x133 JUMPI DUP1 PUSH1 0x3 NOT CALLDATASIZE ADD SLT PUSH2 0x133 JUMPI PUSH1 0x20 SWAP1 PUSH1 0x40 MLOAD SWAP1 DUP2 MSTORE RETURN JUMPDEST POP CALLVALUE PUSH2 0x133 JUMPI DUP1 PUSH1 0x3 NOT CALLDATASIZE ADD SLT PUSH2 0x133 JUMPI PUSH1 0x20 PUSH1 0x3 SLOAD PUSH1 0x40 MLOAD SWAP1 DUP2 MSTORE RETURN JUMPDEST POP CALLVALUE PUSH2 0x133 JUMPI PUSH1 0x40 CALLDATASIZE PUSH1 0x3 NOT ADD SLT PUSH2 0x133 JUMPI PUSH1 0x40 PUSH2 0x279 PUSH2 0x1056 JUMP JUMPDEST SWAP2 PUSH1 0x4 CALLDATALOAD DUP2 MSTORE PUSH1 0x1 PUSH1 0x20 MSTORE KECCAK256 SWAP1 PUSH1 0x1 DUP1 PUSH1 0xA0 SHL SUB AND PUSH0 MSTORE PUSH1 0x20 MSTORE PUSH1 0x20 PUSH1 0xFF PUSH1 0x40 PUSH0 KECCAK256 SLOAD AND PUSH1 0x40 MLOAD SWAP1 ISZERO ISZERO DUP2 MSTORE RETURN JUMPDEST POP CALLVALUE PUSH2 0x133 JUMPI DUP1 PUSH1 0x3 NOT CALLDATASIZE ADD SLT PUSH2 0x133 JUMPI PUSH2 0x2C0 PUSH2 0x116D JUMP JUMPDEST PUSH1 0xFF PUSH1 0x8 SLOAD AND PUSH1 0x3 DUP2 LT ISZERO PUSH2 0x5F4 JUMPI PUSH2 0x5B6 JUMPI PUSH1 0x6 DUP1 SLOAD PUSH1 0x1 PUSH1 0x1 PUSH1 0xA0 SHL SUB NOT AND CALLER SWAP1 DUP2 OR SWAP1 SWAP2 SSTORE PUSH1 0x2 SLOAD PUSH1 0x40 MLOAD PUSH4 0x70A08231 PUSH1 0xE0 SHL DUP2 MSTORE PUSH1 0x4 DUP2 ADD SWAP3 SWAP1 SWAP3 MSTORE PUSH1 0x1 PUSH1 0x1 PUSH1 0xA0 SHL SUB AND PUSH1 0x20 DUP3 PUSH1 0x24 DUP2 DUP5 GAS STATICCALL SWAP2 DUP3 ISZERO PUSH2 0x5AB JUMPI DUP4 SWAP3 PUSH2 0x577 JUMPI JUMPDEST POP PUSH1 0x3 SLOAD DUP1 SWAP3 LT PUSH2 0x524 JUMPI PUSH1 0x40 MLOAD PUSH4 0x6EB1769F PUSH1 0xE1 SHL DUP2 MSTORE CALLER PUSH1 0x4 DUP3 ADD MSTORE ADDRESS PUSH1 0x24 DUP3 ADD MSTORE PUSH1 0x20 DUP2 PUSH1 0x44 DUP2 DUP6 GAS STATICCALL DUP1 ISZERO PUSH2 0x519 JUMPI DUP4 SWAP2 DUP6 SWAP2 PUSH2 0x4E0 JUMPI JUMPDEST POP LT PUSH2 0x48F JUMPI PUSH1 0x40 MLOAD PUSH4 0x23B872DD PUSH1 0xE0 SHL DUP2 MSTORE CALLER PUSH1 0x4 DUP3 ADD MSTORE ADDRESS PUSH1 0x24 DUP3 ADD MSTORE PUSH1 0x44 DUP2 ADD SWAP3 SWAP1 SWAP3 MSTORE PUSH1 0x20 SWAP1 DUP3 SWAP1 PUSH1 0x64 SWAP1 DUP3 SWAP1 DUP7 SWAP1 GAS CALL DUP1 ISZERO PUSH2 0x467 JUMPI PUSH2 0x472 JUMPI JUMPDEST POP PUSH1 0x5 SLOAD PUSH1 0x2 SLOAD PUSH1 0x3 SLOAD PUSH1 0x40 MLOAD PUSH4 0x51C15721 PUSH1 0xE0 SHL DUP2 MSTORE ADDRESS PUSH1 0x4 DUP3 ADD MSTORE PUSH1 0x1 PUSH1 0x1 PUSH1 0xA0 SHL SUB SWAP3 DUP4 AND PUSH1 0x24 DUP3 ADD MSTORE PUSH1 0x44 DUP2 ADD SWAP2 SWAP1 SWAP2 MSTORE SWAP2 PUSH1 0x20 SWAP2 DUP4 SWAP2 PUSH1 0x64 SWAP2 DUP4 SWAP2 DUP8 SWAP2 AND GAS CALL DUP1 ISZERO PUSH2 0x467 JUMPI PUSH2 0x43A JUMPI JUMPDEST POP PUSH2 0x3F6 CALLER PUSH2 0x11C5 JUMP JUMPDEST POP PUSH1 0x1 PUSH1 0xFF NOT PUSH1 0x8 SLOAD AND OR PUSH1 0x8 SSTORE PUSH1 0x3 SLOAD PUSH1 0x40 MLOAD SWAP1 DUP2 MSTORE PUSH32 0x726D5F1A838FE31748F737FA3AE5539CCFF95952ADFC593A1299532B643FF7A8 PUSH1 0x20 CALLER SWAP3 LOG2 PUSH1 0x1 DUP2 SSTORE DUP1 RETURN JUMPDEST PUSH2 0x45B SWAP1 PUSH1 0x20 RETURNDATASIZE PUSH1 0x20 GT PUSH2 0x460 JUMPI JUMPDEST PUSH2 0x453 DUP2 DUP4 PUSH2 0x1095 JUMP JUMPDEST DUP2 ADD SWAP1 PUSH2 0x10CB JUMP JUMPDEST PUSH2 0x3EC JUMP JUMPDEST POP RETURNDATASIZE PUSH2 0x449 JUMP JUMPDEST PUSH1 0x40 MLOAD RETURNDATASIZE DUP5 DUP3 RETURNDATACOPY RETURNDATASIZE SWAP1 REVERT JUMPDEST PUSH2 0x48A SWAP1 PUSH1 0x20 RETURNDATASIZE PUSH1 0x20 GT PUSH2 0x460 JUMPI PUSH2 0x453 DUP2 DUP4 PUSH2 0x1095 JUMP JUMPDEST PUSH2 0x39C JUMP JUMPDEST PUSH1 0x40 MLOAD PUSH3 0x461BCD PUSH1 0xE5 SHL DUP2 MSTORE PUSH1 0x20 PUSH1 0x4 DUP3 ADD MSTORE PUSH1 0x23 PUSH1 0x24 DUP3 ADD MSTORE PUSH32 0x416C6C6F77616E6365206E6F742073657420666F72207468697320636F6E7472 PUSH1 0x44 DUP3 ADD MSTORE PUSH3 0x1858DD PUSH1 0xEA SHL PUSH1 0x64 DUP3 ADD MSTORE PUSH1 0x84 SWAP1 REVERT JUMPDEST SWAP2 POP POP PUSH1 0x20 DUP2 RETURNDATASIZE PUSH1 0x20 GT PUSH2 0x511 JUMPI JUMPDEST DUP2 PUSH2 0x4FC PUSH1 0x20 SWAP4 DUP4 PUSH2 0x1095 JUMP JUMPDEST DUP2 ADD SUB SLT PUSH2 0x50D JUMPI DUP3 SWAP1 MLOAD PUSH0 PUSH2 0x35C JUMP JUMPDEST PUSH0 DUP1 REVERT JUMPDEST RETURNDATASIZE SWAP2 POP PUSH2 0x4EF JUMP JUMPDEST PUSH1 0x40 MLOAD RETURNDATASIZE DUP7 DUP3 RETURNDATACOPY RETURNDATASIZE SWAP1 REVERT JUMPDEST PUSH1 0x40 MLOAD PUSH3 0x461BCD PUSH1 0xE5 SHL DUP2 MSTORE PUSH1 0x20 PUSH1 0x4 DUP3 ADD MSTORE PUSH1 0x25 PUSH1 0x24 DUP3 ADD MSTORE PUSH32 0x496E73756666696369656E742062616C616E636520746F2066756E6420746865 PUSH1 0x44 DUP3 ADD MSTORE PUSH5 0x103637B0B7 PUSH1 0xD9 SHL PUSH1 0x64 DUP3 ADD MSTORE PUSH1 0x84 SWAP1 REVERT JUMPDEST SWAP1 SWAP2 POP PUSH1 0x20 DUP2 RETURNDATASIZE PUSH1 0x20 GT PUSH2 0x5A3 JUMPI JUMPDEST DUP2 PUSH2 0x593 PUSH1 0x20 SWAP4 DUP4 PUSH2 0x1095 JUMP JUMPDEST DUP2 ADD SUB SLT PUSH2 0x50D JUMPI MLOAD SWAP1 PUSH0 PUSH2 0x320 JUMP JUMPDEST RETURNDATASIZE SWAP2 POP PUSH2 0x586 JUMP JUMPDEST PUSH1 0x40 MLOAD RETURNDATASIZE DUP6 DUP3 RETURNDATACOPY RETURNDATASIZE SWAP1 REVERT JUMPDEST PUSH1 0x40 MLOAD PUSH3 0x461BCD PUSH1 0xE5 SHL DUP2 MSTORE PUSH1 0x20 PUSH1 0x4 DUP3 ADD MSTORE PUSH1 0x16 PUSH1 0x24 DUP3 ADD MSTORE PUSH22 0x131BD85B881A5CC8185B1C9958591E48199D5B991959 PUSH1 0x52 SHL PUSH1 0x44 DUP3 ADD MSTORE PUSH1 0x64 SWAP1 REVERT JUMPDEST PUSH4 0x4E487B71 PUSH1 0xE0 SHL DUP3 MSTORE PUSH1 0x21 PUSH1 0x4 MSTORE PUSH1 0x24 DUP3 REVERT JUMPDEST POP CALLVALUE PUSH2 0x133 JUMPI DUP1 PUSH1 0x3 NOT CALLDATASIZE ADD SLT PUSH2 0x133 JUMPI PUSH1 0x20 PUSH1 0x7 SLOAD PUSH1 0x40 MLOAD SWAP1 DUP2 MSTORE RETURN JUMPDEST POP CALLVALUE PUSH2 0x133 JUMPI PUSH1 0x20 CALLDATASIZE PUSH1 0x3 NOT ADD SLT PUSH2 0x133 JUMPI PUSH2 0x640 PUSH2 0x106C JUMP JUMPDEST PUSH1 0x2 SLOAD PUSH1 0x1 PUSH1 0x1 PUSH1 0xA0 SHL SUB SWAP1 DUP2 AND SWAP3 SWAP2 AND DUP3 SUB PUSH2 0x6CD JUMPI PUSH1 0x20 PUSH1 0x24 SWAP3 PUSH1 0x40 MLOAD SWAP4 DUP5 DUP1 SWAP3 PUSH4 0x70A08231 PUSH1 0xE0 SHL DUP3 MSTORE ADDRESS PUSH1 0x4 DUP4 ADD MSTORE GAS STATICCALL SWAP1 DUP2 ISZERO PUSH2 0x6C1 JUMPI SWAP1 PUSH2 0x68E JUMPI JUMPDEST PUSH1 0x20 SWAP2 POP PUSH1 0x40 MLOAD SWAP1 DUP2 MSTORE RETURN JUMPDEST POP PUSH1 0x20 DUP2 RETURNDATASIZE PUSH1 0x20 GT PUSH2 0x6B9 JUMPI JUMPDEST DUP2 PUSH2 0x6A8 PUSH1 0x20 SWAP4 DUP4 PUSH2 0x1095 JUMP JUMPDEST DUP2 ADD SUB SLT PUSH2 0x50D JUMPI PUSH1 0x20 SWAP1 MLOAD PUSH2 0x682 JUMP JUMPDEST RETURNDATASIZE SWAP2 POP PUSH2 0x69B JUMP JUMPDEST PUSH1 0x40 MLOAD SWAP1 RETURNDATASIZE SWAP1 DUP3 RETURNDATACOPY RETURNDATASIZE SWAP1 REVERT JUMPDEST PUSH1 0x20 SWAP2 POP PUSH2 0x12B JUMP JUMPDEST POP CALLVALUE PUSH2 0x133 JUMPI PUSH1 0x80 CALLDATASIZE PUSH1 0x3 NOT ADD SLT PUSH2 0x133 JUMPI PUSH1 0x4 CALLDATALOAD PUSH1 0x1 PUSH1 0x1 PUSH1 0xA0 SHL SUB DUP2 AND SWAP2 SWAP1 DUP3 SWAP1 SUB PUSH2 0x133 JUMPI PUSH2 0x706 PUSH2 0x1056 JUMP JUMPDEST PUSH1 0x44 CALLDATALOAD SWAP3 PUSH1 0x64 CALLDATALOAD PUSH8 0xFFFFFFFFFFFFFFFF DUP2 GT PUSH2 0xBCC JUMPI CALLDATASIZE PUSH1 0x23 DUP3 ADD SLT ISZERO PUSH2 0xBCC JUMPI DUP1 PUSH1 0x4 ADD CALLDATALOAD SWAP1 PUSH8 0xFFFFFFFFFFFFFFFF DUP3 GT PUSH2 0xBC8 JUMPI CALLDATASIZE PUSH1 0x24 DUP4 DUP4 ADD ADD GT PUSH2 0xBC8 JUMPI PUSH2 0x750 PUSH2 0x116D JUMP JUMPDEST PUSH1 0xFF PUSH1 0x8 SLOAD AND PUSH1 0x3 DUP2 LT ISZERO PUSH2 0xBB4 JUMPI PUSH1 0x1 SUB PUSH2 0xB7D JUMPI PUSH1 0x2 SLOAD PUSH1 0x1 PUSH1 0x1 PUSH1 0xA0 SHL SUB DUP6 DUP2 AND SWAP6 SWAP2 AND SWAP2 SWAP1 PUSH2 0x78F SWAP1 DUP9 SWAP1 PUSH2 0x78A DUP9 DUP7 EQ PUSH2 0x10E3 JUMP JUMPDEST PUSH2 0x1123 JUMP JUMPDEST SWAP3 PUSH1 0x40 MLOAD SWAP3 PUSH4 0x70A08231 PUSH1 0xE0 SHL DUP5 MSTORE ADDRESS PUSH1 0x4 DUP6 ADD MSTORE PUSH1 0x20 DUP5 PUSH1 0x24 DUP2 DUP5 GAS STATICCALL SWAP4 DUP5 ISZERO PUSH2 0xB39 JUMPI SWAP1 DUP9 SWAP2 DUP3 SWAP6 PUSH2 0xB44 JUMPI JUMPDEST POP PUSH1 0x40 MLOAD PUSH4 0xA9059CBB PUSH1 0xE0 SHL DUP2 MSTORE PUSH1 0x1 PUSH1 0x1 PUSH1 0xA0 SHL SUB DUP9 AND PUSH1 0x4 DUP3 ADD MSTORE PUSH1 0x24 DUP2 ADD DUP12 SWAP1 MSTORE SWAP2 PUSH1 0x20 SWAP2 DUP4 SWAP2 DUP3 SWAP1 DUP2 PUSH1 0x44 DUP2 ADD JUMPDEST SUB SWAP3 GAS CALL DUP1 ISZERO PUSH2 0xB39 JUMPI DUP10 PUSH1 0x20 SWAP4 PUSH1 0x24 SWAP6 SWAP4 PUSH1 0xC4 SWAP4 PUSH2 0xB1E JUMPI JUMPDEST POP DUP1 PUSH1 0x40 MLOAD SWAP7 DUP8 SWAP6 DUP7 SWAP5 PUSH4 0x23E30C8B PUSH1 0xE0 SHL DUP7 MSTORE CALLER PUSH1 0x4 DUP8 ADD MSTORE DUP14 DUP4 DUP8 ADD MSTORE PUSH1 0x44 DUP7 ADD MSTORE DUP11 PUSH1 0x64 DUP7 ADD MSTORE PUSH1 0xA0 PUSH1 0x84 DUP7 ADD MSTORE DUP3 PUSH1 0xA4 DUP7 ADD MSTORE ADD DUP5 DUP5 ADD CALLDATACOPY DUP2 DUP2 ADD DUP4 ADD DUP12 SWAP1 MSTORE PUSH1 0x1F ADD PUSH1 0x1F NOT AND DUP2 ADD SUB ADD DUP2 DUP10 DUP9 GAS CALL DUP1 ISZERO PUSH2 0xA70 JUMPI DUP7 SWAP1 PUSH2 0xAC8 JUMPI JUMPDEST PUSH32 0x439148F0BBC682CA079E46D6E2C2F0C1E3B820F1A291B069D8882ABF8CF18DD9 SWAP2 POP SUB PUSH2 0xA8F JUMPI DUP2 DUP7 ADD DUP1 DUP8 GT PUSH2 0xA7B JUMPI PUSH1 0x2 SLOAD PUSH1 0x40 MLOAD PUSH4 0x23B872DD PUSH1 0xE0 SHL DUP2 MSTORE PUSH1 0x1 PUSH1 0x1 PUSH1 0xA0 SHL SUB DUP7 DUP2 AND PUSH1 0x4 DUP4 ADD MSTORE ADDRESS PUSH1 0x24 DUP4 ADD MSTORE PUSH1 0x44 DUP3 ADD SWAP4 SWAP1 SWAP4 MSTORE SWAP2 PUSH1 0x20 SWAP2 DUP4 SWAP2 PUSH1 0x64 SWAP2 DUP4 SWAP2 DUP12 SWAP2 AND GAS CALL DUP1 ISZERO PUSH2 0xA70 JUMPI PUSH2 0xA53 JUMPI JUMPDEST POP PUSH1 0x2 SLOAD PUSH1 0x40 MLOAD PUSH4 0x70A08231 PUSH1 0xE0 SHL DUP2 MSTORE ADDRESS PUSH1 0x4 DUP3 ADD MSTORE PUSH1 0x1 PUSH1 0x1 PUSH1 0xA0 SHL SUB SWAP1 SWAP2 AND SWAP2 SWAP1 PUSH1 0x20 DUP2 PUSH1 0x24 DUP2 DUP7 GAS STATICCALL SWAP1 DUP2 ISZERO PUSH2 0xA48 JUMPI DUP8 SWAP2 PUSH2 0xA16 JUMPI JUMPDEST POP LT PUSH2 0x9D1 JUMPI PUSH1 0x6 SLOAD PUSH1 0x40 MLOAD PUSH4 0xA9059CBB PUSH1 0xE0 SHL DUP2 MSTORE PUSH1 0x1 PUSH1 0x1 PUSH1 0xA0 SHL SUB SWAP1 SWAP2 AND PUSH1 0x4 DUP3 ADD MSTORE PUSH1 0x24 DUP2 ADD DUP4 SWAP1 MSTORE SWAP1 PUSH1 0x20 SWAP1 DUP3 SWAP1 PUSH1 0x44 SWAP1 DUP3 SWAP1 DUP10 SWAP1 GAS CALL DUP1 ISZERO PUSH2 0x9C6 JUMPI SWAP6 PUSH32 0x9D0D497E678F62D6B162C97B9724A39F45FE674650DCD4A5E88FF6317E63764F SWAP3 PUSH1 0x40 SWAP3 PUSH1 0x1 SWAP9 PUSH2 0x9A9 JUMPI JUMPDEST POP DUP3 MLOAD SWAP2 DUP3 MSTORE PUSH1 0x20 DUP3 ADD MSTORE LOG3 SSTORE PUSH1 0x20 PUSH1 0x40 MLOAD PUSH1 0x1 DUP2 MSTORE RETURN JUMPDEST PUSH2 0x9C1 SWAP1 PUSH1 0x20 RETURNDATASIZE PUSH1 0x20 GT PUSH2 0x460 JUMPI PUSH2 0x453 DUP2 DUP4 PUSH2 0x1095 JUMP JUMPDEST PUSH2 0x991 JUMP JUMPDEST PUSH1 0x40 MLOAD RETURNDATASIZE DUP8 DUP3 RETURNDATACOPY RETURNDATASIZE SWAP1 REVERT JUMPDEST PUSH1 0x40 MLOAD PUSH3 0x461BCD PUSH1 0xE5 SHL DUP2 MSTORE PUSH1 0x20 PUSH1 0x4 DUP3 ADD MSTORE PUSH1 0x1B PUSH1 0x24 DUP3 ADD MSTORE PUSH32 0x466C617368206C6F616E2072657061796D656E74206661696C65640000000000 PUSH1 0x44 DUP3 ADD MSTORE PUSH1 0x64 SWAP1 REVERT JUMPDEST SWAP1 POP PUSH1 0x20 DUP2 RETURNDATASIZE PUSH1 0x20 GT PUSH2 0xA40 JUMPI JUMPDEST DUP2 PUSH2 0xA31 PUSH1 0x20 SWAP4 DUP4 PUSH2 0x1095 JUMP JUMPDEST DUP2 ADD SUB SLT PUSH2 0x50D JUMPI MLOAD PUSH0 PUSH2 0x921 JUMP JUMPDEST RETURNDATASIZE SWAP2 POP PUSH2 0xA24 JUMP JUMPDEST PUSH1 0x40 MLOAD RETURNDATASIZE DUP10 DUP3 RETURNDATACOPY RETURNDATASIZE SWAP1 REVERT JUMPDEST PUSH2 0xA6B SWAP1 PUSH1 0x20 RETURNDATASIZE PUSH1 0x20 GT PUSH2 0x460 JUMPI PUSH2 0x453 DUP2 DUP4 PUSH2 0x1095 JUMP JUMPDEST PUSH2 0x8E6 JUMP JUMPDEST PUSH1 0x40 MLOAD RETURNDATASIZE DUP9 DUP3 RETURNDATACOPY RETURNDATASIZE SWAP1 REVERT JUMPDEST PUSH4 0x4E487B71 PUSH1 0xE0 SHL DUP7 MSTORE PUSH1 0x11 PUSH1 0x4 MSTORE PUSH1 0x24 DUP7 REVERT JUMPDEST PUSH1 0x40 MLOAD PUSH3 0x461BCD PUSH1 0xE5 SHL DUP2 MSTORE PUSH1 0x20 PUSH1 0x4 DUP3 ADD MSTORE PUSH1 0x11 PUSH1 0x24 DUP3 ADD MSTORE PUSH17 0x119B185CDA081B1BD85B8819985A5B1959 PUSH1 0x7A SHL PUSH1 0x44 DUP3 ADD MSTORE PUSH1 0x64 SWAP1 REVERT JUMPDEST POP PUSH1 0x20 DUP2 RETURNDATASIZE PUSH1 0x20 GT PUSH2 0xB16 JUMPI JUMPDEST DUP2 PUSH2 0xAE2 PUSH1 0x20 SWAP4 DUP4 PUSH2 0x1095 JUMP JUMPDEST DUP2 ADD SUB SLT PUSH2 0xB12 JUMPI PUSH32 0x439148F0BBC682CA079E46D6E2C2F0C1E3B820F1A291B069D8882ABF8CF18DD9 SWAP1 MLOAD PUSH2 0x86B JUMP JUMPDEST DUP6 DUP1 REVERT JUMPDEST RETURNDATASIZE SWAP2 POP PUSH2 0xAD5 JUMP JUMPDEST PUSH2 0xB34 SWAP1 DUP7 RETURNDATASIZE DUP9 GT PUSH2 0x460 JUMPI PUSH2 0x453 DUP2 DUP4 PUSH2 0x1095 JUMP JUMPDEST PUSH2 0x80A JUMP JUMPDEST PUSH1 0x40 MLOAD RETURNDATASIZE DUP11 DUP3 RETURNDATACOPY RETURNDATASIZE SWAP1 REVERT JUMPDEST SWAP2 POP SWAP4 POP PUSH1 0x20 DUP2 RETURNDATASIZE PUSH1 0x20 GT PUSH2 0xB75 JUMPI JUMPDEST DUP2 PUSH2 0xB61 PUSH1 0x20 SWAP4 DUP4 PUSH2 0x1095 JUMP JUMPDEST DUP2 ADD SUB SLT PUSH2 0x50D JUMPI MLOAD SWAP3 DUP8 SWAP1 PUSH2 0x7F0 PUSH2 0x7BE JUMP JUMPDEST RETURNDATASIZE SWAP2 POP PUSH2 0xB54 JUMP JUMPDEST PUSH1 0x40 MLOAD PUSH3 0x461BCD PUSH1 0xE5 SHL DUP2 MSTORE PUSH1 0x20 PUSH1 0x4 DUP3 ADD MSTORE PUSH1 0xF PUSH1 0x24 DUP3 ADD MSTORE PUSH15 0x141BDBDB081B9BDD08199D5B991959 PUSH1 0x8A SHL PUSH1 0x44 DUP3 ADD MSTORE PUSH1 0x64 SWAP1 REVERT JUMPDEST PUSH4 0x4E487B71 PUSH1 0xE0 SHL DUP7 MSTORE PUSH1 0x21 PUSH1 0x4 MSTORE PUSH1 0x24 DUP7 REVERT JUMPDEST DUP5 DUP1 REVERT JUMPDEST DUP4 DUP1 REVERT JUMPDEST POP CALLVALUE PUSH2 0x133 JUMPI DUP1 PUSH1 0x3 NOT CALLDATASIZE ADD SLT PUSH2 0x133 JUMPI PUSH1 0x2 SLOAD PUSH1 0x40 MLOAD PUSH1 0x1 PUSH1 0x1 PUSH1 0xA0 SHL SUB SWAP1 SWAP2 AND DUP2 MSTORE PUSH1 0x20 SWAP1 RETURN JUMPDEST POP CALLVALUE PUSH2 0x133 JUMPI PUSH1 0x40 CALLDATASIZE PUSH1 0x3 NOT ADD SLT PUSH2 0x133 JUMPI PUSH2 0xC13 PUSH2 0x1056 JUMP JUMPDEST CALLER PUSH1 0x1 PUSH1 0x1 PUSH1 0xA0 SHL SUB DUP3 AND SUB PUSH2 0xC2F JUMPI PUSH2 0x17A SWAP1 PUSH1 0x4 CALLDATALOAD PUSH2 0x1322 JUMP JUMPDEST PUSH4 0x334BD919 PUSH1 0xE1 SHL DUP3 MSTORE PUSH1 0x4 DUP3 REVERT JUMPDEST POP CALLVALUE PUSH2 0x133 JUMPI PUSH1 0x40 CALLDATASIZE PUSH1 0x3 NOT ADD SLT PUSH2 0x133 JUMPI PUSH2 0x17A PUSH1 0x4 CALLDATALOAD PUSH2 0xC5E PUSH2 0x1056 JUMP JUMPDEST SWAP1 PUSH2 0xC78 PUSH2 0x170 DUP3 PUSH0 MSTORE PUSH1 0x1 PUSH1 0x20 MSTORE PUSH1 0x1 PUSH1 0x40 PUSH0 KECCAK256 ADD SLOAD SWAP1 JUMP JUMPDEST PUSH2 0x1296 JUMP JUMPDEST POP CALLVALUE PUSH2 0x133 JUMPI PUSH1 0x20 CALLDATASIZE PUSH1 0x3 NOT ADD SLT PUSH2 0x133 JUMPI PUSH1 0x20 PUSH2 0x12B PUSH1 0x4 CALLDATALOAD PUSH0 MSTORE PUSH1 0x1 PUSH1 0x20 MSTORE PUSH1 0x1 PUSH1 0x40 PUSH0 KECCAK256 ADD SLOAD SWAP1 JUMP JUMPDEST POP CALLVALUE PUSH2 0x50D JUMPI PUSH0 CALLDATASIZE PUSH1 0x3 NOT ADD SLT PUSH2 0x50D JUMPI PUSH2 0xCC2 PUSH2 0x116D JUMP JUMPDEST CALLER PUSH0 SWAP1 DUP2 MSTORE PUSH32 0x95902C4D6C8EA17825D5632AF066DCB87E033F1B2A91B49A7AD79E83F02C4DEC PUSH1 0x20 MSTORE PUSH1 0x40 SWAP1 KECCAK256 SLOAD PUSH1 0xFF AND ISZERO PUSH2 0xF83 JUMPI PUSH1 0xFF PUSH1 0x8 SLOAD AND PUSH1 0x3 DUP2 LT ISZERO PUSH2 0xF6F JUMPI PUSH1 0x1 SUB PUSH2 0xF2A JUMPI PUSH1 0x2 SLOAD PUSH1 0x40 MLOAD PUSH4 0x70A08231 PUSH1 0xE0 SHL DUP2 MSTORE ADDRESS PUSH1 0x4 DUP3 ADD MSTORE SWAP1 PUSH1 0x20 SWAP1 DUP3 SWAP1 PUSH1 0x24 SWAP1 DUP3 SWAP1 PUSH1 0x1 PUSH1 0x1 PUSH1 0xA0 SHL SUB AND GAS STATICCALL SWAP1 DUP2 ISZERO PUSH2 0xEB1 JUMPI PUSH0 SWAP2 PUSH2 0xEF8 JUMPI JUMPDEST POP DUP1 ISZERO PUSH2 0xEBC JUMPI PUSH1 0x8 DUP1 SLOAD PUSH1 0xFF NOT AND PUSH1 0x2 OR SWAP1 SSTORE PUSH1 0x4 SLOAD PUSH1 0x1 PUSH1 0x1 PUSH1 0xA0 SHL SUB AND DUP1 EXTCODESIZE ISZERO PUSH2 0x50D JUMPI PUSH0 DUP1 SWAP2 PUSH1 0x44 PUSH1 0x40 MLOAD DUP1 SWAP5 DUP2 SWAP4 PUSH4 0xA956239B PUSH1 0xE0 SHL DUP4 MSTORE ADDRESS PUSH1 0x4 DUP5 ADD MSTORE PUSH1 0x5 PUSH1 0x24 DUP5 ADD MSTORE GAS CALL DUP1 ISZERO PUSH2 0xEB1 JUMPI PUSH2 0xE9C JUMPI JUMPDEST POP PUSH1 0x4 SLOAD DUP3 SWAP1 PUSH1 0x1 PUSH1 0x1 PUSH1 0xA0 SHL SUB AND DUP1 EXTCODESIZE ISZERO PUSH2 0xE98 JUMPI DUP2 DUP1 SWAP2 PUSH1 0x24 PUSH1 0x40 MLOAD DUP1 SWAP5 DUP2 SWAP4 PUSH4 0x7E72C7D7 PUSH1 0xE0 SHL DUP4 MSTORE ADDRESS PUSH1 0x4 DUP5 ADD MSTORE GAS CALL DUP1 ISZERO PUSH2 0x467 JUMPI PUSH2 0xE83 JUMPI JUMPDEST POP POP PUSH1 0x2 SLOAD PUSH1 0x6 SLOAD PUSH1 0x40 MLOAD PUSH4 0xA9059CBB PUSH1 0xE0 SHL DUP2 MSTORE PUSH1 0x1 PUSH1 0x1 PUSH1 0xA0 SHL SUB SWAP2 DUP3 AND PUSH1 0x4 DUP3 ADD MSTORE PUSH1 0x24 DUP2 ADD DUP5 SWAP1 MSTORE SWAP2 PUSH1 0x20 SWAP2 DUP4 SWAP2 PUSH1 0x44 SWAP2 DUP4 SWAP2 DUP9 SWAP2 AND GAS CALL DUP1 ISZERO PUSH2 0x5AB JUMPI PUSH2 0xE66 JUMPI JUMPDEST POP PUSH1 0x6 SLOAD PUSH1 0x40 MLOAD SWAP2 DUP3 MSTORE PUSH1 0x1 PUSH1 0x1 PUSH1 0xA0 SHL SUB AND SWAP1 PUSH32 0xCAB22A4E95D29D40DA2ACE3F6EC72B49954A9BC7B2584F8FD47BF7F357A3ED6F SWAP1 PUSH1 0x20 SWAP1 LOG2 PUSH1 0x1 DUP2 SSTORE DUP1 RETURN JUMPDEST PUSH2 0xE7E SWAP1 PUSH1 0x20 RETURNDATASIZE PUSH1 0x20 GT PUSH2 0x460 JUMPI PUSH2 0x453 DUP2 DUP4 PUSH2 0x1095 JUMP JUMPDEST PUSH2 0xE25 JUMP JUMPDEST DUP2 PUSH2 0xE8D SWAP2 PUSH2 0x1095 JUMP JUMPDEST PUSH2 0xE98 JUMPI DUP2 PUSH0 PUSH2 0xDDE JUMP JUMPDEST POP DUP1 REVERT JUMPDEST PUSH2 0xEA9 SWAP2 SWAP3 POP PUSH0 SWAP1 PUSH2 0x1095 JUMP JUMPDEST PUSH0 SWAP1 PUSH0 PUSH2 0xD9F JUMP JUMPDEST PUSH1 0x40 MLOAD RETURNDATASIZE PUSH0 DUP3 RETURNDATACOPY RETURNDATASIZE SWAP1 REVERT JUMPDEST PUSH1 0x40 MLOAD PUSH3 0x461BCD PUSH1 0xE5 SHL DUP2 MSTORE PUSH1 0x20 PUSH1 0x4 DUP3 ADD MSTORE PUSH1 0x14 PUSH1 0x24 DUP3 ADD MSTORE PUSH20 0x4E6F2066756E647320746F207769746864726177 PUSH1 0x60 SHL PUSH1 0x44 DUP3 ADD MSTORE PUSH1 0x64 SWAP1 REVERT JUMPDEST SWAP1 POP PUSH1 0x20 DUP2 RETURNDATASIZE PUSH1 0x20 GT PUSH2 0xF22 JUMPI JUMPDEST DUP2 PUSH2 0xF13 PUSH1 0x20 SWAP4 DUP4 PUSH2 0x1095 JUMP JUMPDEST DUP2 ADD SUB SLT PUSH2 0x50D JUMPI MLOAD PUSH0 PUSH2 0xD48 JUMP JUMPDEST RETURNDATASIZE SWAP2 POP PUSH2 0xF06 JUMP JUMPDEST PUSH1 0x40 MLOAD PUSH3 0x461BCD PUSH1 0xE5 SHL DUP2 MSTORE PUSH1 0x20 PUSH1 0x4 DUP3 ADD MSTORE PUSH1 0x1D PUSH1 0x24 DUP3 ADD MSTORE PUSH32 0x4C6F616E206973206E6F7420696E20612066756E646564207374617465000000 PUSH1 0x44 DUP3 ADD MSTORE PUSH1 0x64 SWAP1 REVERT JUMPDEST PUSH4 0x4E487B71 PUSH1 0xE0 SHL PUSH0 MSTORE PUSH1 0x21 PUSH1 0x4 MSTORE PUSH1 0x24 PUSH0 REVERT JUMPDEST PUSH1 0x40 MLOAD PUSH3 0x461BCD PUSH1 0xE5 SHL DUP2 MSTORE PUSH1 0x20 PUSH1 0x4 DUP3 ADD MSTORE PUSH1 0x18 PUSH1 0x24 DUP3 ADD MSTORE PUSH32 0x43616C6C6572206973206E6F7420746865206C656E6465720000000000000000 PUSH1 0x44 DUP3 ADD MSTORE PUSH1 0x64 SWAP1 REVERT JUMPDEST CALLVALUE PUSH2 0x50D JUMPI PUSH1 0x20 CALLDATASIZE PUSH1 0x3 NOT ADD SLT PUSH2 0x50D JUMPI PUSH1 0x4 CALLDATALOAD PUSH4 0xFFFFFFFF PUSH1 0xE0 SHL DUP2 AND DUP1 SWAP2 SUB PUSH2 0x50D JUMPI PUSH1 0x20 SWAP1 PUSH4 0x7965DB0B PUSH1 0xE0 SHL DUP2 EQ SWAP1 DUP2 ISZERO PUSH2 0x100D JUMPI JUMPDEST POP PUSH1 0x40 MLOAD SWAP1 ISZERO ISZERO DUP2 MSTORE RETURN JUMPDEST PUSH4 0x1FFC9A7 PUSH1 0xE0 SHL EQ SWAP1 POP DUP3 PUSH2 0x1002 JUMP JUMPDEST CALLVALUE PUSH2 0x50D JUMPI PUSH0 CALLDATASIZE PUSH1 0x3 NOT ADD SLT PUSH2 0x50D JUMPI DUP1 PUSH32 0xC60D7A62D8843F2B14BC63F2A5240B187980481AD8C001A3CAF4916AEF3F667E PUSH1 0x20 SWAP3 MSTORE RETURN JUMPDEST PUSH1 0x24 CALLDATALOAD SWAP1 PUSH1 0x1 PUSH1 0x1 PUSH1 0xA0 SHL SUB DUP3 AND DUP3 SUB PUSH2 0x50D JUMPI JUMP JUMPDEST PUSH1 0x4 CALLDATALOAD SWAP1 PUSH1 0x1 PUSH1 0x1 PUSH1 0xA0 SHL SUB DUP3 AND DUP3 SUB PUSH2 0x50D JUMPI JUMP JUMPDEST SWAP2 SWAP1 PUSH1 0x20 DUP4 ADD SWAP3 PUSH1 0x3 DUP3 LT ISZERO PUSH2 0xF6F JUMPI MSTORE JUMP JUMPDEST SWAP1 PUSH1 0x1F DUP1 NOT SWAP2 ADD AND DUP2 ADD SWAP1 DUP2 LT PUSH8 0xFFFFFFFFFFFFFFFF DUP3 GT OR PUSH2 0x10B7 JUMPI PUSH1 0x40 MSTORE JUMP JUMPDEST PUSH4 0x4E487B71 PUSH1 0xE0 SHL PUSH0 MSTORE PUSH1 0x41 PUSH1 0x4 MSTORE PUSH1 0x24 PUSH0 REVERT JUMPDEST SWAP1 DUP2 PUSH1 0x20 SWAP2 SUB SLT PUSH2 0x50D JUMPI MLOAD DUP1 ISZERO ISZERO DUP2 SUB PUSH2 0x50D JUMPI SWAP1 JUMP JUMPDEST ISZERO PUSH2 0x10EA JUMPI JUMP JUMPDEST PUSH1 0x40 MLOAD PUSH3 0x461BCD PUSH1 0xE5 SHL DUP2 MSTORE PUSH1 0x20 PUSH1 0x4 DUP3 ADD MSTORE PUSH1 0x11 PUSH1 0x24 DUP3 ADD MSTORE PUSH17 0x2AB739BAB83837B93A32B2103A37B5B2B7 PUSH1 0x79 SHL PUSH1 0x44 DUP3 ADD MSTORE PUSH1 0x64 SWAP1 REVERT JUMPDEST PUSH1 0x2 SLOAD PUSH2 0x113D SWAP2 PUSH1 0x1 PUSH1 0x1 PUSH1 0xA0 SHL SUB SWAP1 DUP2 AND SWAP2 AND EQ PUSH2 0x10E3 JUMP JUMPDEST PUSH1 0x7 SLOAD SWAP1 DUP2 DUP2 MUL SWAP2 DUP2 DUP4 DIV EQ SWAP1 ISZERO OR ISZERO PUSH2 0x1159 JUMPI PUSH2 0x2710 SWAP1 DIV SWAP1 JUMP JUMPDEST PUSH4 0x4E487B71 PUSH1 0xE0 SHL PUSH0 MSTORE PUSH1 0x11 PUSH1 0x4 MSTORE PUSH1 0x24 PUSH0 REVERT JUMPDEST PUSH1 0x2 PUSH0 SLOAD EQ PUSH2 0x117C JUMPI PUSH1 0x2 PUSH0 SSTORE JUMP JUMPDEST PUSH4 0x3EE5AEB5 PUSH1 0xE0 SHL PUSH0 MSTORE PUSH1 0x4 PUSH0 REVERT JUMPDEST PUSH0 DUP2 DUP2 MSTORE PUSH1 0x1 PUSH1 0x20 SWAP1 DUP2 MSTORE PUSH1 0x40 DUP1 DUP4 KECCAK256 CALLER DUP5 MSTORE SWAP1 SWAP2 MSTORE SWAP1 KECCAK256 SLOAD PUSH1 0xFF AND ISZERO PUSH2 0x11AF JUMPI POP JUMP JUMPDEST PUSH4 0xE2517D3F PUSH1 0xE0 SHL PUSH0 MSTORE CALLER PUSH1 0x4 MSTORE PUSH1 0x24 MSTORE PUSH1 0x44 PUSH0 REVERT JUMPDEST PUSH1 0x1 PUSH1 0x1 PUSH1 0xA0 SHL SUB DUP2 AND PUSH0 SWAP1 DUP2 MSTORE PUSH32 0x95902C4D6C8EA17825D5632AF066DCB87E033F1B2A91B49A7AD79E83F02C4DEC PUSH1 0x20 MSTORE PUSH1 0x40 SWAP1 KECCAK256 SLOAD PUSH1 0xFF AND PUSH2 0x1291 JUMPI PUSH1 0x1 PUSH1 0x1 PUSH1 0xA0 SHL SUB AND PUSH0 DUP2 DUP2 MSTORE PUSH32 0x95902C4D6C8EA17825D5632AF066DCB87E033F1B2A91B49A7AD79E83F02C4DEC PUSH1 0x20 MSTORE PUSH1 0x40 DUP2 KECCAK256 DUP1 SLOAD PUSH1 0xFF NOT AND PUSH1 0x1 OR SWAP1 SSTORE CALLER SWAP2 SWAP1 PUSH32 0xC60D7A62D8843F2B14BC63F2A5240B187980481AD8C001A3CAF4916AEF3F667E SWAP1 PUSH32 0x2F8788117E7EFF1D82E926EC794901D17C78024A50270940304540A733656F0D SWAP1 DUP1 LOG4 PUSH1 0x1 SWAP1 JUMP JUMPDEST POP PUSH0 SWAP1 JUMP JUMPDEST PUSH0 DUP2 DUP2 MSTORE PUSH1 0x1 PUSH1 0x20 SWAP1 DUP2 MSTORE PUSH1 0x40 DUP1 DUP4 KECCAK256 PUSH1 0x1 PUSH1 0x1 PUSH1 0xA0 SHL SUB DUP7 AND DUP5 MSTORE SWAP1 SWAP2 MSTORE SWAP1 KECCAK256 SLOAD PUSH1 0xFF AND PUSH2 0x131C JUMPI PUSH0 DUP2 DUP2 MSTORE PUSH1 0x1 PUSH1 0x20 DUP2 DUP2 MSTORE PUSH1 0x40 DUP1 DUP5 KECCAK256 PUSH1 0x1 PUSH1 0x1 PUSH1 0xA0 SHL SUB SWAP7 SWAP1 SWAP7 AND DUP1 DUP6 MSTORE SWAP6 SWAP1 SWAP2 MSTORE DUP3 KECCAK256 DUP1 SLOAD PUSH1 0xFF NOT AND SWAP1 SWAP2 OR SWAP1 SSTORE CALLER SWAP3 SWAP2 SWAP1 PUSH32 0x2F8788117E7EFF1D82E926EC794901D17C78024A50270940304540A733656F0D SWAP1 DUP1 LOG4 PUSH1 0x1 SWAP1 JUMP JUMPDEST POP POP PUSH0 SWAP1 JUMP JUMPDEST PUSH0 DUP2 DUP2 MSTORE PUSH1 0x1 PUSH1 0x20 SWAP1 DUP2 MSTORE PUSH1 0x40 DUP1 DUP4 KECCAK256 PUSH1 0x1 PUSH1 0x1 PUSH1 0xA0 SHL SUB DUP7 AND DUP5 MSTORE SWAP1 SWAP2 MSTORE SWAP1 KECCAK256 SLOAD PUSH1 0xFF AND ISZERO PUSH2 0x131C JUMPI PUSH0 DUP2 DUP2 MSTORE PUSH1 0x1 PUSH1 0x20 SWAP1 DUP2 MSTORE PUSH1 0x40 DUP1 DUP4 KECCAK256 PUSH1 0x1 PUSH1 0x1 PUSH1 0xA0 SHL SUB SWAP6 SWAP1 SWAP6 AND DUP1 DUP5 MSTORE SWAP5 SWAP1 SWAP2 MSTORE DUP2 KECCAK256 DUP1 SLOAD PUSH1 0xFF NOT AND SWAP1 SSTORE CALLER SWAP3 SWAP2 SWAP1 PUSH32 0xF6391F5C32D9C69D2A47EA670B442974B53935D1EDC7FD64EB21E047A839171B SWAP1 DUP1 LOG4 PUSH1 0x1 SWAP1 JUMP INVALID LOG2 PUSH5 0x6970667358 0x22 SLT KECCAK256 MSTORE SWAP13 BLOBHASH LOG1 0xC1 PUSH21 0xC87525D21141EF07129A18F06108A365495BF724D0 DUP11 0x23 0xE8 GAS 0xB0 PUSH5 0x736F6C6343 STOP ADDMOD BYTE STOP CALLER "
				},
				"gasEstimates": {
					"creation": {
						"codeDepositCost": "1016800",
						"executionCost": "infinite",
						"totalCost": "infinite"
					},
					"external": {
						"DEFAULT_ADMIN_ROLE()": "450",
						"LENDER_ROLE()": "153",
						"asset()": "2420",
						"closeLoan()": "infinite",
						"flashFee(address,uint256)": "5054",
						"flashLoan(address,address,uint256,bytes)": "infinite",
						"flashLoanFeeRate()": "2462",
						"flashPoolRewardManager()": "2684",
						"fundLoan()": "infinite",
						"getFlashLoanState()": "2725",
						"getRoleAdmin(bytes32)": "2415",
						"grantRole(bytes32,address)": "33380",
						"hasRole(bytes32,address)": "2736",
						"lender()": "2596",
						"loanAmount()": "2528",
						"maxFlashLoan(address)": "infinite",
						"poolOrganizer()": "2640",
						"renounceRole(bytes32,address)": "28963",
						"revokeRole(bytes32,address)": "33704",
						"state()": "2681",
						"supportsInterface(bytes4)": "305"
					},
					"internal": {
						"_executeFlashLoan(contract IERC3156FlashBorrower,address,uint256,bytes calldata)": "infinite"
					}
				},
				"methodIdentifiers": {
					"DEFAULT_ADMIN_ROLE()": "a217fddf",
					"LENDER_ROLE()": "00abafe1",
					"asset()": "38d52e0f",
					"closeLoan()": "232fa733",
					"flashFee(address,uint256)": "d9d98ce4",
					"flashLoan(address,address,uint256,bytes)": "5cffe9de",
					"flashLoanFeeRate()": "8c9f305f",
					"flashPoolRewardManager()": "c9c36353",
					"fundLoan()": "8db57994",
					"getFlashLoanState()": "c694b54c",
					"getRoleAdmin(bytes32)": "248a9ca3",
					"grantRole(bytes32,address)": "2f2ff15d",
					"hasRole(bytes32,address)": "91d14854",
					"lender()": "bcead63e",
					"loanAmount()": "9d585f7f",
					"maxFlashLoan(address)": "613255ab",
					"poolOrganizer()": "c51b9507",
					"renounceRole(bytes32,address)": "36568abe",
					"revokeRole(bytes32,address)": "d547741f",
					"state()": "c19d93fb",
					"supportsInterface(bytes4)": "01ffc9a7"
				}
			},
			"storageLayout": {
				"storage": [
					{
						"astId": 556,
						"contract": "contracts/contracts/protocol/TuliaFlashPool.sol:TuliaFlashPool",
						"label": "_status",
						"offset": 0,
						"slot": "0",
						"type": "t_uint256"
					},
					{
						"astId": 26,
						"contract": "contracts/contracts/protocol/TuliaFlashPool.sol:TuliaFlashPool",
						"label": "_roles",
						"offset": 0,
						"slot": "1",
						"type": "t_mapping(t_bytes32,t_struct(RoleData)21_storage)"
					},
					{
						"astId": 901,
						"contract": "contracts/contracts/protocol/TuliaFlashPool.sol:TuliaFlashPool",
						"label": "asset",
						"offset": 0,
						"slot": "2",
						"type": "t_contract(IERC20)515"
					},
					{
						"astId": 903,
						"contract": "contracts/contracts/protocol/TuliaFlashPool.sol:TuliaFlashPool",
						"label": "loanAmount",
						"offset": 0,
						"slot": "3",
						"type": "t_uint256"
					},
					{
						"astId": 906,
						"contract": "contracts/contracts/protocol/TuliaFlashPool.sol:TuliaFlashPool",
						"label": "poolOrganizer",
						"offset": 0,
						"slot": "4",
						"type": "t_contract(IPoolOrganizer)881"
					},
					{
						"astId": 909,
						"contract": "contracts/contracts/protocol/TuliaFlashPool.sol:TuliaFlashPool",
						"label": "flashPoolRewardManager",
						"offset": 0,
						"slot": "5",
						"type": "t_contract(IFlashPoolRewardManager)709"
					},
					{
						"astId": 916,
						"contract": "contracts/contracts/protocol/TuliaFlashPool.sol:TuliaFlashPool",
						"label": "lender",
						"offset": 0,
						"slot": "6",
						"type": "t_address"
					},
					{
						"astId": 919,
						"contract": "contracts/contracts/protocol/TuliaFlashPool.sol:TuliaFlashPool",
						"label": "flashLoanFeeRate",
						"offset": 0,
						"slot": "7",
						"type": "t_uint256"
					},
					{
						"astId": 938,
						"contract": "contracts/contracts/protocol/TuliaFlashPool.sol:TuliaFlashPool",
						"label": "state",
						"offset": 0,
						"slot": "8",
						"type": "t_enum(FlashLoanState)935"
					}
				],
				"types": {
					"t_address": {
						"encoding": "inplace",
						"label": "address",
						"numberOfBytes": "20"
					},
					"t_bool": {
						"encoding": "inplace",
						"label": "bool",
						"numberOfBytes": "1"
					},
					"t_bytes32": {
						"encoding": "inplace",
						"label": "bytes32",
						"numberOfBytes": "32"
					},
					"t_contract(IERC20)515": {
						"encoding": "inplace",
						"label": "contract IERC20",
						"numberOfBytes": "20"
					},
					"t_contract(IFlashPoolRewardManager)709": {
						"encoding": "inplace",
						"label": "contract IFlashPoolRewardManager",
						"numberOfBytes": "20"
					},
					"t_contract(IPoolOrganizer)881": {
						"encoding": "inplace",
						"label": "contract IPoolOrganizer",
						"numberOfBytes": "20"
					},
					"t_enum(FlashLoanState)935": {
						"encoding": "inplace",
						"label": "enum TuliaFlashPool.FlashLoanState",
						"numberOfBytes": "1"
					},
					"t_mapping(t_address,t_bool)": {
						"encoding": "mapping",
						"key": "t_address",
						"label": "mapping(address => bool)",
						"numberOfBytes": "32",
						"value": "t_bool"
					},
					"t_mapping(t_bytes32,t_struct(RoleData)21_storage)": {
						"encoding": "mapping",
						"key": "t_bytes32",
						"label": "mapping(bytes32 => struct AccessControl.RoleData)",
						"numberOfBytes": "32",
						"value": "t_struct(RoleData)21_storage"
					},
					"t_struct(RoleData)21_storage": {
						"encoding": "inplace",
						"label": "struct AccessControl.RoleData",
						"members": [
							{
								"astId": 18,
								"contract": "contracts/contracts/protocol/TuliaFlashPool.sol:TuliaFlashPool",
								"label": "hasRole",
								"offset": 0,
								"slot": "0",
								"type": "t_mapping(t_address,t_bool)"
							},
							{
								"astId": 20,
								"contract": "contracts/contracts/protocol/TuliaFlashPool.sol:TuliaFlashPool",
								"label": "adminRole",
								"offset": 0,
								"slot": "1",
								"type": "t_bytes32"
							}
						],
						"numberOfBytes": "64"
					},
					"t_uint256": {
						"encoding": "inplace",
						"label": "uint256",
						"numberOfBytes": "32"
					}
				}
			},
			"userdoc": {
				"events": {
					"FlashLoanExecuted(address,address,uint256,uint256)": {
						"notice": "Event emitted when a flash loan is executed"
					},
					"LoanFunded(address,uint256)": {
						"notice": "Event emitted when a loan is funded"
					}
				},
				"kind": "user",
				"methods": {
					"asset()": {
						"notice": "ERC20 asset used for flash loans"
					},
					"closeLoan()": {
						"notice": "Allows the lender to close the loan and withdraw their funds if no active flash loans are present"
					},
					"constructor": {
						"notice": "Constructs the TuliaFlashPool lending pool"
					},
					"flashFee(address,uint256)": {
						"notice": "Calculates the flash loan fee for a given loan amount"
					},
					"flashLoan(address,address,uint256,bytes)": {
						"notice": "Initiates a flash loan transaction"
					},
					"flashLoanFeeRate()": {
						"notice": "Initial fee rate for flash loans issued by this pool"
					},
					"fundLoan()": {
						"notice": "Allows a lender to fund the pool directly with the specified loan amount"
					},
					"getFlashLoanState()": {
						"notice": "Returns the current state of the flash loan"
					},
					"maxFlashLoan(address)": {
						"notice": "Returns the maximum loanable amount of the asset"
					}
				},
				"version": 1
			}
		}
	}
}