{
	"data": {
		"bytecode": {
			"linkReferences": {},
			"object": "608080604052346013576096908160188239f35b5f80fdfe60808060405260043610156011575f80fd5b5f3560e01c908163679aefce146049575063a08edce814602f575f80fd5b3460455760203660031901126045576004355f55005b5f80fd5b346045575f3660031901126045576020905f548152f3fea26469706673582212206100fd1fe033e87043f2efb1ecdcdf19a290121ca2ccf53cdf9d62abbaf3f61664736f6c63430008190033",
			"opcodes": "PUSH1 0x80 DUP1 PUSH1 0x40 MSTORE CALLVALUE PUSH1 0x13 JUMPI PUSH1 0x96 SWAP1 DUP2 PUSH1 0x18 DUP3 CODECOPY RETURN JUMPDEST PUSH0 DUP1 REVERT INVALID PUSH1 0x80 DUP1 PUSH1 0x40 MSTORE PUSH1 0x4 CALLDATASIZE LT ISZERO PUSH1 0x11 JUMPI PUSH0 DUP1 REVERT JUMPDEST PUSH0 CALLDATALOAD PUSH1 0xE0 SHR SWAP1 DUP2 PUSH4 0x679AEFCE EQ PUSH1 0x49 JUMPI POP PUSH4 0xA08EDCE8 EQ PUSH1 0x2F JUMPI PUSH0 DUP1 REVERT JUMPDEST CALLVALUE PUSH1 0x45 JUMPI PUSH1 0x20 CALLDATASIZE PUSH1 0x3 NOT ADD SLT PUSH1 0x45 JUMPI PUSH1 0x4 CALLDATALOAD PUSH0 SSTORE STOP JUMPDEST PUSH0 DUP1 REVERT JUMPDEST CALLVALUE PUSH1 0x45 JUMPI PUSH0 CALLDATASIZE PUSH1 0x3 NOT ADD SLT PUSH1 0x45 JUMPI PUSH1 0x20 SWAP1 PUSH0 SLOAD DUP2 MSTORE RETURN INVALID LOG2 PUSH5 0x6970667358 0x22 SLT KECCAK256 PUSH2 0xFD 0x1F 0xE0 CALLER 0xE8 PUSH17 0x43F2EFB1ECDCDF19A290121CA2CCF53CDF SWAP14 PUSH3 0xABBAF3 0xF6 AND PUSH5 0x736F6C6343 STOP ADDMOD NOT STOP CALLER "
		},
		"gasEstimates": {
			"creation": {
				"codeDepositCost": "30000",
				"executionCost": "87",
				"totalCost": "30087"
			},
			"external": {
				"getRate()": "2247",
				"updateRate(int256)": "22257"
			}
		},
		"methodIdentifiers": {
			"getRate()": "679aefce",
			"updateRate(int256)": "a08edce8"
		}
	},
	"abi": [
		{
			"inputs": [],
			"name": "getRate",
			"outputs": [
				{
					"internalType": "int256",
					"name": "",
					"type": "int256"
				}
			],
			"stateMutability": "view",
			"type": "function"
		},
		{
			"inputs": [
				{
					"internalType": "int256",
					"name": "_rate",
					"type": "int256"
				}
			],
			"name": "updateRate",
			"outputs": [],
			"stateMutability": "nonpayable",
			"type": "function"
		}
	]
}