{
	"contracts/contracts/permit2/SignatureTransfer.sol": {
		"SignatureTransfer": {
			"abi": [
				{
					"inputs": [
						{
							"internalType": "uint256",
							"name": "maxAmount",
							"type": "uint256"
						}
					],
					"name": "InvalidAmount",
					"type": "error"
				},
				{
					"inputs": [],
					"name": "InvalidContractSignature",
					"type": "error"
				},
				{
					"inputs": [],
					"name": "InvalidNonce",
					"type": "error"
				},
				{
					"inputs": [],
					"name": "InvalidSignature",
					"type": "error"
				},
				{
					"inputs": [],
					"name": "InvalidSignatureLength",
					"type": "error"
				},
				{
					"inputs": [],
					"name": "InvalidSigner",
					"type": "error"
				},
				{
					"inputs": [],
					"name": "LengthMismatch",
					"type": "error"
				},
				{
					"inputs": [
						{
							"internalType": "uint256",
							"name": "signatureDeadline",
							"type": "uint256"
						}
					],
					"name": "SignatureExpired",
					"type": "error"
				},
				{
					"anonymous": false,
					"inputs": [
						{
							"indexed": true,
							"internalType": "address",
							"name": "owner",
							"type": "address"
						},
						{
							"indexed": false,
							"internalType": "uint256",
							"name": "word",
							"type": "uint256"
						},
						{
							"indexed": false,
							"internalType": "uint256",
							"name": "mask",
							"type": "uint256"
						}
					],
					"name": "UnorderedNonceInvalidation",
					"type": "event"
				},
				{
					"inputs": [],
					"name": "DOMAIN_SEPARATOR",
					"outputs": [
						{
							"internalType": "bytes32",
							"name": "",
							"type": "bytes32"
						}
					],
					"stateMutability": "view",
					"type": "function"
				},
				{
					"inputs": [
						{
							"internalType": "uint256",
							"name": "wordPos",
							"type": "uint256"
						},
						{
							"internalType": "uint256",
							"name": "mask",
							"type": "uint256"
						}
					],
					"name": "invalidateUnorderedNonces",
					"outputs": [],
					"stateMutability": "nonpayable",
					"type": "function"
				},
				{
					"inputs": [
						{
							"internalType": "address",
							"name": "",
							"type": "address"
						},
						{
							"internalType": "uint256",
							"name": "",
							"type": "uint256"
						}
					],
					"name": "nonceBitmap",
					"outputs": [
						{
							"internalType": "uint256",
							"name": "",
							"type": "uint256"
						}
					],
					"stateMutability": "view",
					"type": "function"
				},
				{
					"inputs": [
						{
							"components": [
								{
									"components": [
										{
											"internalType": "address",
											"name": "token",
											"type": "address"
										},
										{
											"internalType": "uint256",
											"name": "amount",
											"type": "uint256"
										}
									],
									"internalType": "struct ISignatureTransfer.TokenPermissions",
									"name": "permitted",
									"type": "tuple"
								},
								{
									"internalType": "uint256",
									"name": "nonce",
									"type": "uint256"
								},
								{
									"internalType": "uint256",
									"name": "deadline",
									"type": "uint256"
								}
							],
							"internalType": "struct ISignatureTransfer.PermitTransferFrom",
							"name": "permit",
							"type": "tuple"
						},
						{
							"components": [
								{
									"internalType": "address",
									"name": "to",
									"type": "address"
								},
								{
									"internalType": "uint256",
									"name": "requestedAmount",
									"type": "uint256"
								}
							],
							"internalType": "struct ISignatureTransfer.SignatureTransferDetails",
							"name": "transferDetails",
							"type": "tuple"
						},
						{
							"internalType": "address",
							"name": "owner",
							"type": "address"
						},
						{
							"internalType": "bytes",
							"name": "signature",
							"type": "bytes"
						}
					],
					"name": "permitTransferFrom",
					"outputs": [],
					"stateMutability": "nonpayable",
					"type": "function"
				},
				{
					"inputs": [
						{
							"components": [
								{
									"components": [
										{
											"internalType": "address",
											"name": "token",
											"type": "address"
										},
										{
											"internalType": "uint256",
											"name": "amount",
											"type": "uint256"
										}
									],
									"internalType": "struct ISignatureTransfer.TokenPermissions[]",
									"name": "permitted",
									"type": "tuple[]"
								},
								{
									"internalType": "uint256",
									"name": "nonce",
									"type": "uint256"
								},
								{
									"internalType": "uint256",
									"name": "deadline",
									"type": "uint256"
								}
							],
							"internalType": "struct ISignatureTransfer.PermitBatchTransferFrom",
							"name": "permit",
							"type": "tuple"
						},
						{
							"components": [
								{
									"internalType": "address",
									"name": "to",
									"type": "address"
								},
								{
									"internalType": "uint256",
									"name": "requestedAmount",
									"type": "uint256"
								}
							],
							"internalType": "struct ISignatureTransfer.SignatureTransferDetails[]",
							"name": "transferDetails",
							"type": "tuple[]"
						},
						{
							"internalType": "address",
							"name": "owner",
							"type": "address"
						},
						{
							"internalType": "bytes",
							"name": "signature",
							"type": "bytes"
						}
					],
					"name": "permitTransferFrom",
					"outputs": [],
					"stateMutability": "nonpayable",
					"type": "function"
				},
				{
					"inputs": [
						{
							"components": [
								{
									"components": [
										{
											"internalType": "address",
											"name": "token",
											"type": "address"
										},
										{
											"internalType": "uint256",
											"name": "amount",
											"type": "uint256"
										}
									],
									"internalType": "struct ISignatureTransfer.TokenPermissions",
									"name": "permitted",
									"type": "tuple"
								},
								{
									"internalType": "uint256",
									"name": "nonce",
									"type": "uint256"
								},
								{
									"internalType": "uint256",
									"name": "deadline",
									"type": "uint256"
								}
							],
							"internalType": "struct ISignatureTransfer.PermitTransferFrom",
							"name": "permit",
							"type": "tuple"
						},
						{
							"components": [
								{
									"internalType": "address",
									"name": "to",
									"type": "address"
								},
								{
									"internalType": "uint256",
									"name": "requestedAmount",
									"type": "uint256"
								}
							],
							"internalType": "struct ISignatureTransfer.SignatureTransferDetails",
							"name": "transferDetails",
							"type": "tuple"
						},
						{
							"internalType": "address",
							"name": "owner",
							"type": "address"
						},
						{
							"internalType": "bytes32",
							"name": "witness",
							"type": "bytes32"
						},
						{
							"internalType": "string",
							"name": "witnessTypeString",
							"type": "string"
						},
						{
							"internalType": "bytes",
							"name": "signature",
							"type": "bytes"
						}
					],
					"name": "permitWitnessTransferFrom",
					"outputs": [],
					"stateMutability": "nonpayable",
					"type": "function"
				},
				{
					"inputs": [
						{
							"components": [
								{
									"components": [
										{
											"internalType": "address",
											"name": "token",
											"type": "address"
										},
										{
											"internalType": "uint256",
											"name": "amount",
											"type": "uint256"
										}
									],
									"internalType": "struct ISignatureTransfer.TokenPermissions[]",
									"name": "permitted",
									"type": "tuple[]"
								},
								{
									"internalType": "uint256",
									"name": "nonce",
									"type": "uint256"
								},
								{
									"internalType": "uint256",
									"name": "deadline",
									"type": "uint256"
								}
							],
							"internalType": "struct ISignatureTransfer.PermitBatchTransferFrom",
							"name": "permit",
							"type": "tuple"
						},
						{
							"components": [
								{
									"internalType": "address",
									"name": "to",
									"type": "address"
								},
								{
									"internalType": "uint256",
									"name": "requestedAmount",
									"type": "uint256"
								}
							],
							"internalType": "struct ISignatureTransfer.SignatureTransferDetails[]",
							"name": "transferDetails",
							"type": "tuple[]"
						},
						{
							"internalType": "address",
							"name": "owner",
							"type": "address"
						},
						{
							"internalType": "bytes32",
							"name": "witness",
							"type": "bytes32"
						},
						{
							"internalType": "string",
							"name": "witnessTypeString",
							"type": "string"
						},
						{
							"internalType": "bytes",
							"name": "signature",
							"type": "bytes"
						}
					],
					"name": "permitWitnessTransferFrom",
					"outputs": [],
					"stateMutability": "nonpayable",
					"type": "function"
				}
			],
			"devdoc": {
				"errors": {
					"InvalidAmount(uint256)": [
						{
							"params": {
								"maxAmount": "The maximum amount a spender can request to transfer"
							}
						}
					],
					"LengthMismatch()": [
						{
							"details": "If the spender does not need to transfer the number of tokens permitted, the spender can request amount 0 to be transferred"
						}
					],
					"SignatureExpired(uint256)": [
						{
							"params": {
								"signatureDeadline": "The timestamp at which a signature is no longer valid"
							}
						}
					]
				},
				"kind": "dev",
				"methods": {
					"DOMAIN_SEPARATOR()": {
						"details": "Uses cached version if chainid and address are unchanged from construction."
					},
					"invalidateUnorderedNonces(uint256,uint256)": {
						"details": "The wordPos is maxed at type(uint248).max",
						"params": {
							"mask": "A bitmap masked against msg.sender's current bitmap at the word position",
							"wordPos": "A number to index the nonceBitmap at"
						}
					},
					"permitTransferFrom(((address,uint256),uint256,uint256),(address,uint256),address,bytes)": {
						"details": "Reverts if the requested amount is greater than the permitted signed amount",
						"params": {
							"owner": "The owner of the tokens to transfer",
							"permit": "The permit data signed over by the owner",
							"signature": "The signature to verify",
							"transferDetails": "The spender's requested transfer details for the permitted token"
						}
					},
					"permitTransferFrom(((address,uint256)[],uint256,uint256),(address,uint256)[],address,bytes)": {
						"params": {
							"owner": "The owner of the tokens to transfer",
							"permit": "The permit data signed over by the owner",
							"signature": "The signature to verify",
							"transferDetails": "Specifies the recipient and requested amount for the token transfer"
						}
					},
					"permitWitnessTransferFrom(((address,uint256),uint256,uint256),(address,uint256),address,bytes32,string,bytes)": {
						"details": "The witness type string must follow EIP712 ordering of nested structs and must include the TokenPermissions type definitionReverts if the requested amount is greater than the permitted signed amount",
						"params": {
							"owner": "The owner of the tokens to transfer",
							"permit": "The permit data signed over by the owner",
							"signature": "The signature to verify",
							"transferDetails": "The spender's requested transfer details for the permitted token",
							"witness": "Extra data to include when checking the user signature",
							"witnessTypeString": "The EIP-712 type definition for remaining string stub of the typehash"
						}
					},
					"permitWitnessTransferFrom(((address,uint256)[],uint256,uint256),(address,uint256)[],address,bytes32,string,bytes)": {
						"details": "The witness type string must follow EIP712 ordering of nested structs and must include the TokenPermissions type definition",
						"params": {
							"owner": "The owner of the tokens to transfer",
							"permit": "The permit data signed over by the owner",
							"signature": "The signature to verify",
							"transferDetails": "Specifies the recipient and requested amount for the token transfer",
							"witness": "Extra data to include when checking the user signature",
							"witnessTypeString": "The EIP-712 type definition for remaining string stub of the typehash"
						}
					}
				},
				"stateVariables": {
					"nonceBitmap": {
						"details": "Uses unordered nonces so that permit messages do not need to be spent in a certain orderThe mapping is indexed first by the token owner, then by an index specified in the nonceIt returns a uint256 bitmapThe index, or wordPosition is capped at type(uint248).max"
					}
				},
				"version": 1
			},
			"evm": {
				"assembly": "    /* \"contracts/contracts/permit2/SignatureTransfer.sol\":480:6536  contract SignatureTransfer is ISignatureTransfer, EIP712 {... */\n  0xc0\n  jumpi(tag_1, callvalue)\n    /* \"contracts/contracts/permit2/EIP712.sol\":919:932  block.chainid */\n  chainid\n    /* \"contracts/contracts/permit2/EIP712.sol\":900:932  _CACHED_CHAIN_ID = block.chainid */\n  0xa0\n  mstore\n    /* \"contracts/contracts/permit2/EIP712.sol\":1632:1692  abi.encode(typeHash, nameHash, block.chainid, address(this)) */\n  0x20\n  dup2\n  add\n    /* \"contracts/contracts/permit2/EIP712.sol\":789:869  keccak256(\"EIP712Domain(string name,uint256 chainId,address verifyingContract)\") */\n  0x8cad95687ba82c2ce50e74f7b754645e5117c3a5bec8151c0726d5857980a866\n    /* \"contracts/contracts/permit2/SignatureTransfer.sol\":480:6536  contract SignatureTransfer is ISignatureTransfer, EIP712 {... */\n  dup2\n  mstore\n    /* \"contracts/contracts/permit2/EIP712.sol\":717:737  keccak256(\"Permit2\") */\n  0x9ac997416e8ff9d2ff6bebeb7149f65cdae5e32e2b90440b566bb3044041d36a\n    /* \"contracts/contracts/permit2/SignatureTransfer.sol\":480:6536  contract SignatureTransfer is ISignatureTransfer, EIP712 {... */\n  0x40\n  dup4\n  add\n  mstore\n    /* \"contracts/contracts/permit2/EIP712.sol\":919:932  block.chainid */\n  chainid\n    /* \"contracts/contracts/permit2/SignatureTransfer.sol\":480:6536  contract SignatureTransfer is ISignatureTransfer, EIP712 {... */\n  0x60\n  dup4\n  add\n  mstore\n    /* \"contracts/contracts/permit2/EIP712.sol\":1686:1690  this */\n  address\n    /* \"contracts/contracts/permit2/SignatureTransfer.sol\":480:6536  contract SignatureTransfer is ISignatureTransfer, EIP712 {... */\n  0x80\n  dup4\n  add\n  mstore\n  0x80\n    /* \"contracts/contracts/permit2/EIP712.sol\":1632:1692  abi.encode(typeHash, nameHash, block.chainid, address(this)) */\n  dup3\n  mstore\n    /* \"contracts/contracts/permit2/EIP712.sol\":900:932  _CACHED_CHAIN_ID = block.chainid */\n  0xa0\n    /* \"contracts/contracts/permit2/SignatureTransfer.sol\":480:6536  contract SignatureTransfer is ISignatureTransfer, EIP712 {... */\n  dup3\n  add\n  swap2\n  dup1\n  dup4\n  lt\n  0x01\n  dup1\n  0x40\n  shl\n  sub\n  dup5\n  gt\n  or\n  tag_3\n  jumpi\n  dup3\n  0x40\n  mstore\n  mload\n    /* \"contracts/contracts/permit2/EIP712.sol\":1622:1693  keccak256(abi.encode(typeHash, nameHash, block.chainid, address(this))) */\n  swap1\n  keccak256\n    /* \"contracts/contracts/permit2/SignatureTransfer.sol\":480:6536  contract SignatureTransfer is ISignatureTransfer, EIP712 {... */\n  0x80\n    /* \"contracts/contracts/permit2/EIP712.sol\":942:1016  _CACHED_DOMAIN_SEPARATOR = _buildDomainSeparator(_TYPE_HASH, _HASHED_NAME) */\n  mstore\n    /* \"contracts/contracts/permit2/SignatureTransfer.sol\":480:6536  contract SignatureTransfer is ISignatureTransfer, EIP712 {... */\n  dataSize(sub_0)\n  swap1\n  dup2\n  dataOffset(sub_0)\n  dup3\n  codecopy\n  mload(0x80)\n  dup2\n  assignImmutable(\"0x4f4ac30ff8bfcef8cd1068d1427faf7fb52fa3a1610b1f430e1f69a91ebb9673\")\n    /* \"contracts/contracts/permit2/EIP712.sol\":900:932  _CACHED_CHAIN_ID = block.chainid */\n  0xa0\n    /* \"contracts/contracts/permit2/SignatureTransfer.sol\":480:6536  contract SignatureTransfer is ISignatureTransfer, EIP712 {... */\n  mload\n  dup2\n  assignImmutable(\"0x3ab4fb69c8e122442af87ae588015f836e7cde3029bbb6dab1983bc840231d63\")\n  return\ntag_3:\n  mstore(0x00, shl(0xe0, 0x4e487b71))\n  mstore(0x04, 0x41)\n  revert(0x00, 0x24)\ntag_1:\n  0x00\n  dup1\n  revert\nstop\n\nsub_0: assembly {\n        /* \"contracts/contracts/permit2/SignatureTransfer.sol\":480:6536  contract SignatureTransfer is ISignatureTransfer, EIP712 {... */\n      0x40\n      0x80\n      dup2\n      mstore\n      0x04\n      swap1\n      dup2\n      calldatasize\n      lt\n      iszero\n      tag_29\n      jumpi\n      0x00\n      dup1\n      revert\n    tag_29:\n      0x00\n      swap1\n      dup2\n      calldataload\n      0xe0\n      shr\n      dup1\n      0x137c29fe\n      eq\n      tag_31\n      jumpi\n      dup1\n      0x30f28b7a\n      eq\n      tag_33\n      jumpi\n      dup1\n      0x3644e515\n      eq\n      tag_35\n      jumpi\n      dup1\n      0x3ff9dcb1\n      eq\n      tag_37\n      jumpi\n      dup1\n      0x4fe02b44\n      eq\n      tag_39\n      jumpi\n      dup1\n      0xedd9444b\n      eq\n      tag_41\n      jumpi\n      0xfe8ec1a7\n      eq\n      tag_43\n      jumpi\n      0x00\n      dup1\n      revert\n    tag_43:\n      jumpi(tag_47, callvalue)\n      jumpi(tag_47, slt(add(not(0x03), calldatasize), 0xc0))\n      sub(shl(0x40, 0x01), 0x01)\n      dup4\n      calldataload\n      dup2\n      dup2\n      gt\n      tag_49\n      jumpi\n      tag_51\n      swap1\n      calldatasize\n      swap1\n      dup7\n      add\n      tag_11\n      jump\t// in\n    tag_51:\n      calldataload(0x24)\n      dup3\n      dup2\n      gt\n      tag_52\n      jumpi\n      tag_54\n      swap1\n      calldatasize\n      swap1\n      dup8\n      add\n      tag_12\n      jump\t// in\n    tag_54:\n      tag_55\n      tag_7\n      jump\t// in\n    tag_55:\n      swap2\n      calldataload(0x84)\n      dup6\n      dup2\n      gt\n      tag_56\n      jumpi\n      tag_58\n      swap1\n      calldatasize\n      swap1\n      dup11\n      add\n      tag_9\n      jump\t// in\n    tag_58:\n      swap9\n      swap1\n      swap6\n      calldataload(0xa4)\n      swap1\n      dup2\n      gt\n      tag_59\n      jumpi\n      tag_61\n      swap2\n      calldatasize\n      swap2\n      add\n      tag_9\n      jump\t// in\n    tag_61:\n      swap7\n      swap1\n      swap6\n      dup2\n      mload\n      swap1\n      tag_62\n      dup3\n      tag_2\n      jump\t// in\n    tag_62:\n      0x6b\n      dup3\n      mstore\n      0x5065726d697442617463685769746e6573735472616e7366657246726f6d2854\n      0x20\n      dup4\n      add\n      mstore\n      0x6f6b656e5065726d697373696f6e735b5d207065726d69747465642c61646472\n      dup4\n      dup4\n      add\n      mstore\n      0x657373207370656e6465722c75696e74323536206e6f6e63652c75696e743235\n      0x60\n      dup4\n      add\n      mstore\n      shl(0xaa, 0x0d88191958591b1a5b994b)\n      0x80\n      dup4\n      add\n      mstore\n      dup3\n      mload\n        /* \"contracts/contracts/lib/PermitHash.sol\":4678:4764  abi.encodePacked(_PERMIT_BATCH_WITNESS_TRANSFER_FROM_TYPEHASH_STUB, witnessTypeString) */\n      swap11\n      dup12\n      swap2\n      dup2\n        /* \"contracts/contracts/lib/PermitHash.sol\":1621:1723  \"PermitWitnessTransferFrom(TokenPermissions permitted,address spender,uint256 nonce,uint256 deadline,\" */\n      tag_63\n        /* \"contracts/contracts/permit2/SignatureTransfer.sol\":480:6536  contract SignatureTransfer is ISignatureTransfer, EIP712 {... */\n      0x20\n        /* \"contracts/contracts/lib/PermitHash.sol\":4678:4764  abi.encodePacked(_PERMIT_BATCH_WITNESS_TRANSFER_FROM_TYPEHASH_STUB, witnessTypeString) */\n      dup6\n      add\n        /* \"contracts/contracts/lib/PermitHash.sol\":1621:1723  \"PermitWitnessTransferFrom(TokenPermissions permitted,address spender,uint256 nonce,uint256 deadline,\" */\n      dup1\n      swap7\n      tag_15\n      jump\t// in\n    tag_63:\n      swap2\n      dup3\n      calldatacopy\n      add\n      dup11\n      dup2\n      mstore\n        /* \"contracts/contracts/lib/PermitHash.sol\":4678:4764  abi.encodePacked(_PERMIT_BATCH_WITNESS_TRANSFER_FROM_TYPEHASH_STUB, witnessTypeString) */\n      sub\n        /* \"contracts/contracts/lib/PermitHash.sol\":4133:4213  abi.encodePacked(_PERMIT_TRANSFER_FROM_WITNESS_TYPEHASH_STUB, witnessTypeString) */\n      swap10\n        /* \"contracts/contracts/lib/PermitHash.sol\":4678:4764  abi.encodePacked(_PERMIT_BATCH_WITNESS_TRANSFER_FROM_TYPEHASH_STUB, witnessTypeString) */\n      tag_64\n        /* \"contracts/contracts/lib/PermitHash.sol\":4133:4213  abi.encodePacked(_PERMIT_TRANSFER_FROM_WITNESS_TYPEHASH_STUB, witnessTypeString) */\n      not(0x1f)\n        /* \"contracts/contracts/lib/PermitHash.sol\":4678:4764  abi.encodePacked(_PERMIT_BATCH_WITNESS_TRANSFER_FROM_TYPEHASH_STUB, witnessTypeString) */\n      swap12\n      dup13\n      dup2\n      add\n      dup4\n      mstore\n      dup3\n      tag_5\n      jump\t// in\n    tag_64:\n        /* \"contracts/contracts/permit2/SignatureTransfer.sol\":480:6536  contract SignatureTransfer is ISignatureTransfer, EIP712 {... */\n      mload\n        /* \"contracts/contracts/lib/PermitHash.sol\":4668:4765  keccak256(abi.encodePacked(_PERMIT_BATCH_WITNESS_TRANSFER_FROM_TYPEHASH_STUB, witnessTypeString)) */\n      swap1\n      keccak256\n        /* \"contracts/contracts/lib/PermitHash.sol\":4799:4815  permit.permitted */\n      swap1\n      dup6\n      mload\n        /* \"contracts/contracts/permit2/SignatureTransfer.sol\":480:6536  contract SignatureTransfer is ISignatureTransfer, EIP712 {... */\n      mload\n        /* \"contracts/contracts/lib/PermitHash.sol\":4873:4900  new bytes32[](numPermitted) */\n      tag_65\n      dup2\n      tag_21\n      jump\t// in\n    tag_65:\n        /* \"contracts/contracts/lib/PermitHash.sol\":4916:4929  uint256 i = 0 */\n      swap1\n      dup11\n        /* \"contracts/contracts/lib/PermitHash.sol\":4931:4947  i < numPermitted */\n    tag_66:\n      dup2\n      dup2\n      lt\n      tag_67\n      jumpi\n        /* \"contracts/contracts/permit2/SignatureTransfer.sol\":480:6536  contract SignatureTransfer is ISignatureTransfer, EIP712 {... */\n      pop\n      pop\n        /* \"contracts/contracts/permit2/SignatureTransfer.sol\":3572:3581  signature */\n      tag_69\n        /* \"contracts/contracts/permit2/SignatureTransfer.sol\":480:6536  contract SignatureTransfer is ISignatureTransfer, EIP712 {... */\n      swap10\n      swap11\n        /* \"contracts/contracts/lib/PermitHash.sol\":5088:5322  abi.encode(... */\n      tag_70\n        /* \"contracts/contracts/permit2/SignatureTransfer.sol\":480:6536  contract SignatureTransfer is ISignatureTransfer, EIP712 {... */\n      swap2\n      dup4\n      mload\n        /* \"contracts/contracts/lib/PermitHash.sol\":5152:5191  abi.encodePacked(tokenPermissionHashes) */\n      tag_71\n      dup2\n        /* \"contracts/contracts/lib/PermitHash.sol\":1254:1427  keccak256(... */\n      tag_72\n        /* \"contracts/contracts/permit2/SignatureTransfer.sol\":480:6536  contract SignatureTransfer is ISignatureTransfer, EIP712 {... */\n      0x20\n        /* \"contracts/contracts/lib/PermitHash.sol\":5152:5191  abi.encodePacked(tokenPermissionHashes) */\n      dup3\n      add\n        /* \"contracts/contracts/lib/PermitHash.sol\":1254:1427  keccak256(... */\n      dup1\n      swap6\n      tag_24\n      jump\t// in\n    tag_72:\n        /* \"contracts/contracts/lib/PermitHash.sol\":5152:5191  abi.encodePacked(tokenPermissionHashes) */\n      sub\n      dup5\n      dup2\n      add\n      dup4\n      mstore\n      dup3\n      tag_5\n      jump\t// in\n    tag_71:\n        /* \"contracts/contracts/permit2/SignatureTransfer.sol\":480:6536  contract SignatureTransfer is ISignatureTransfer, EIP712 {... */\n      mload\n        /* \"contracts/contracts/lib/PermitHash.sol\":5142:5192  keccak256(abi.encodePacked(tokenPermissionHashes)) */\n      swap1\n      keccak256\n        /* \"contracts/contracts/permit2/SignatureTransfer.sol\":480:6536  contract SignatureTransfer is ISignatureTransfer, EIP712 {... */\n      0x20\n        /* \"contracts/contracts/lib/PermitHash.sol\":5238:5250  permit.nonce */\n      dup10\n      dup2\n      add\n        /* \"contracts/contracts/lib/PermitHash.sol\":1018:1184  keccak256(... */\n      mload\n        /* \"contracts/contracts/lib/PermitHash.sol\":5268:5283  permit.deadline */\n      dup6\n      dup12\n      add\n        /* \"contracts/contracts/lib/PermitHash.sol\":1018:1184  keccak256(... */\n      mload\n        /* \"contracts/contracts/permit2/SignatureTransfer.sol\":480:6536  contract SignatureTransfer is ISignatureTransfer, EIP712 {... */\n      swap6\n      mload\n        /* \"contracts/contracts/lib/PermitHash.sol\":5088:5322  abi.encode(... */\n      swap2\n      dup3\n      add\n        /* \"contracts/contracts/permit2/SignatureTransfer.sol\":480:6536  contract SignatureTransfer is ISignatureTransfer, EIP712 {... */\n      swap7\n      dup8\n      mstore\n        /* \"contracts/contracts/lib/PermitHash.sol\":1621:1723  \"PermitWitnessTransferFrom(TokenPermissions permitted,address spender,uint256 nonce,uint256 deadline,\" */\n      0x40\n      dup3\n      add\n        /* \"contracts/contracts/permit2/SignatureTransfer.sol\":480:6536  contract SignatureTransfer is ISignatureTransfer, EIP712 {... */\n      swap3\n      swap1\n      swap3\n      mstore\n        /* \"contracts/contracts/lib/PermitHash.sol\":5210:5220  msg.sender */\n      caller\n        /* \"contracts/contracts/lib/PermitHash.sol\":1621:1723  \"PermitWitnessTransferFrom(TokenPermissions permitted,address spender,uint256 nonce,uint256 deadline,\" */\n      0x60\n      dup3\n      add\n        /* \"contracts/contracts/permit2/SignatureTransfer.sol\":480:6536  contract SignatureTransfer is ISignatureTransfer, EIP712 {... */\n      mstore\n        /* \"contracts/contracts/lib/PermitHash.sol\":1621:1723  \"PermitWitnessTransferFrom(TokenPermissions permitted,address spender,uint256 nonce,uint256 deadline,\" */\n      0x80\n      dup2\n      add\n        /* \"contracts/contracts/permit2/SignatureTransfer.sol\":480:6536  contract SignatureTransfer is ISignatureTransfer, EIP712 {... */\n      swap2\n      swap1\n      swap2\n      mstore\n      0xa0\n        /* \"contracts/contracts/lib/PermitHash.sol\":1621:1723  \"PermitWitnessTransferFrom(TokenPermissions permitted,address spender,uint256 nonce,uint256 deadline,\" */\n      dup2\n      add\n        /* \"contracts/contracts/permit2/SignatureTransfer.sol\":480:6536  contract SignatureTransfer is ISignatureTransfer, EIP712 {... */\n      swap4\n      swap1\n      swap4\n      mstore\n      calldataload(0x64)\n        /* \"contracts/contracts/lib/PermitHash.sol\":1621:1723  \"PermitWitnessTransferFrom(TokenPermissions permitted,address spender,uint256 nonce,uint256 deadline,\" */\n      0xc0\n      dup5\n      add\n        /* \"contracts/contracts/permit2/SignatureTransfer.sol\":480:6536  contract SignatureTransfer is ISignatureTransfer, EIP712 {... */\n      mstore\n      dup3\n        /* \"contracts/contracts/lib/PermitHash.sol\":1621:1723  \"PermitWitnessTransferFrom(TokenPermissions permitted,address spender,uint256 nonce,uint256 deadline,\" */\n      0xe0\n      dup2\n      add\n        /* \"contracts/contracts/lib/PermitHash.sol\":5088:5322  abi.encode(... */\n    tag_73:\n      sub\n      swap1\n      dup2\n      add\n      dup4\n      mstore\n      dup3\n      tag_5\n      jump\t// in\n    tag_70:\n        /* \"contracts/contracts/permit2/SignatureTransfer.sol\":480:6536  contract SignatureTransfer is ISignatureTransfer, EIP712 {... */\n      mload\n        /* \"contracts/contracts/lib/PermitHash.sol\":5065:5332  keccak256(... */\n      swap1\n      keccak256\n        /* \"contracts/contracts/permit2/SignatureTransfer.sol\":3572:3581  signature */\n      swap4\n      tag_26\n      jump\t// in\n    tag_69:\n        /* \"contracts/contracts/permit2/SignatureTransfer.sol\":480:6536  contract SignatureTransfer is ISignatureTransfer, EIP712 {... */\n      dup1\n      return\n        /* \"contracts/contracts/lib/PermitHash.sol\":4949:4952  ++i */\n    tag_67:\n        /* \"contracts/contracts/lib/PermitHash.sol\":5017:5033  permit.permitted */\n      dup1\n        /* \"contracts/contracts/lib/PermitHash.sol\":4995:5037  _hashTokenPermissions(permit.permitted[i]) */\n      tag_74\n        /* \"contracts/contracts/lib/PermitHash.sol\":5017:5036  permit.permitted[i] */\n      tag_75\n        /* \"contracts/contracts/lib/PermitHash.sol\":4949:4952  ++i */\n      tag_76\n        /* \"contracts/contracts/lib/PermitHash.sol\":5017:5033  permit.permitted */\n      swap4\n      dup13\n      mload\n        /* \"contracts/contracts/lib/PermitHash.sol\":5017:5036  permit.permitted[i] */\n      tag_23\n      jump\t// in\n    tag_75:\n      mload\n        /* \"contracts/contracts/lib/PermitHash.sol\":4995:5037  _hashTokenPermissions(permit.permitted[i]) */\n      tag_14\n      jump\t// in\n    tag_74:\n        /* \"contracts/contracts/lib/PermitHash.sol\":4968:5037  tokenPermissionHashes[i] = _hashTokenPermissions(permit.permitted[i]) */\n      tag_77\n      dup3\n      dup7\n      tag_23\n      jump\t// in\n    tag_77:\n        /* \"contracts/contracts/permit2/SignatureTransfer.sol\":480:6536  contract SignatureTransfer is ISignatureTransfer, EIP712 {... */\n      mstore\n        /* \"contracts/contracts/lib/PermitHash.sol\":4949:4952  ++i */\n      tag_22\n      jump\t// in\n    tag_76:\n        /* \"contracts/contracts/lib/PermitHash.sol\":4916:4929  uint256 i = 0 */\n      jump(tag_66)\n        /* \"contracts/contracts/permit2/SignatureTransfer.sol\":480:6536  contract SignatureTransfer is ISignatureTransfer, EIP712 {... */\n    tag_59:\n      dup9\n      dup1\n      revert\n    tag_56:\n      dup8\n      dup1\n      revert\n    tag_52:\n      dup5\n      dup1\n      revert\n    tag_49:\n      dup4\n      dup1\n      revert\n    tag_47:\n      pop\n      dup1\n      revert\n    tag_41:\n      pop\n      swap2\n      jumpi(tag_47, callvalue)\n      jumpi(tag_47, slt(add(not(0x03), calldatasize), 0x80))\n      sub(shl(0x40, 0x01), 0x01)\n      swap1\n      dup1\n      calldataload\n      dup3\n      dup2\n      gt\n      tag_49\n      jumpi\n      tag_84\n      swap1\n      calldatasize\n      swap1\n      dup4\n      add\n      tag_11\n      jump\t// in\n    tag_84:\n      calldataload(0x24)\n      dup4\n      dup2\n      gt\n      tag_52\n      jumpi\n      tag_87\n      swap1\n      calldatasize\n      swap1\n      dup5\n      add\n      tag_12\n      jump\t// in\n    tag_87:\n      swap4\n      swap1\n      swap3\n      tag_88\n      tag_7\n      jump\t// in\n    tag_88:\n      swap2\n      calldataload(0x64)\n      swap1\n      dup2\n      gt\n      tag_89\n      jumpi\n      tag_91\n      swap2\n      calldatasize\n      swap2\n      add\n      tag_9\n      jump\t// in\n    tag_91:\n        /* \"contracts/contracts/lib/PermitHash.sol\":3353:3369  permit.permitted */\n      swap5\n      swap1\n      swap4\n      dup4\n      mload\n        /* \"contracts/contracts/permit2/SignatureTransfer.sol\":480:6536  contract SignatureTransfer is ISignatureTransfer, EIP712 {... */\n      mload\n        /* \"contracts/contracts/lib/PermitHash.sol\":3427:3454  new bytes32[](numPermitted) */\n      swap8\n      tag_92\n      dup10\n      tag_21\n      jump\t// in\n    tag_92:\n        /* \"contracts/contracts/lib/PermitHash.sol\":3470:3483  uint256 i = 0 */\n      swap9\n      dup9\n        /* \"contracts/contracts/lib/PermitHash.sol\":3485:3501  i < numPermitted */\n    tag_93:\n      dup2\n      dup2\n      lt\n      tag_94\n      jumpi\n        /* \"contracts/contracts/permit2/SignatureTransfer.sol\":480:6536  contract SignatureTransfer is ISignatureTransfer, EIP712 {... */\n      pop\n      pop\n        /* \"contracts/contracts/permit2/SignatureTransfer.sol\":3100:3109  signature */\n      tag_69\n        /* \"contracts/contracts/permit2/SignatureTransfer.sol\":480:6536  contract SignatureTransfer is ISignatureTransfer, EIP712 {... */\n      swap8\n      swap9\n      dup2\n      mload\n        /* \"contracts/contracts/lib/PermitHash.sol\":3734:3773  abi.encodePacked(tokenPermissionHashes) */\n      tag_97\n      dup2\n        /* \"contracts/contracts/lib/PermitHash.sol\":1254:1427  keccak256(... */\n      tag_98\n        /* \"contracts/contracts/permit2/SignatureTransfer.sol\":480:6536  contract SignatureTransfer is ISignatureTransfer, EIP712 {... */\n      0x20\n        /* \"contracts/contracts/lib/PermitHash.sol\":3734:3773  abi.encodePacked(tokenPermissionHashes) */\n      dup3\n      add\n        /* \"contracts/contracts/lib/PermitHash.sol\":1254:1427  keccak256(... */\n      dup1\n      swap6\n      tag_24\n      jump\t// in\n    tag_98:\n        /* \"contracts/contracts/lib/PermitHash.sol\":3734:3773  abi.encodePacked(tokenPermissionHashes) */\n      sub\n        /* \"contracts/contracts/lib/PermitHash.sol\":4133:4213  abi.encodePacked(_PERMIT_TRANSFER_FROM_WITNESS_TYPEHASH_STUB, witnessTypeString) */\n      not(0x1f)\n        /* \"contracts/contracts/lib/PermitHash.sol\":3734:3773  abi.encodePacked(tokenPermissionHashes) */\n      dup2\n      add\n      dup4\n      mstore\n      dup3\n      tag_5\n      jump\t// in\n    tag_97:\n        /* \"contracts/contracts/permit2/SignatureTransfer.sol\":480:6536  contract SignatureTransfer is ISignatureTransfer, EIP712 {... */\n      mload\n        /* \"contracts/contracts/lib/PermitHash.sol\":3724:3774  keccak256(abi.encodePacked(tokenPermissionHashes)) */\n      swap1\n      keccak256\n        /* \"contracts/contracts/permit2/SignatureTransfer.sol\":480:6536  contract SignatureTransfer is ISignatureTransfer, EIP712 {... */\n      0x20\n        /* \"contracts/contracts/lib/PermitHash.sol\":3820:3832  permit.nonce */\n      dup7\n      add\n        /* \"contracts/contracts/lib/PermitHash.sol\":1018:1184  keccak256(... */\n      mload\n        /* \"contracts/contracts/lib/PermitHash.sol\":3850:3865  permit.deadline */\n      dup3\n      dup8\n      add\n        /* \"contracts/contracts/lib/PermitHash.sol\":1018:1184  keccak256(... */\n      mload\n        /* \"contracts/contracts/permit2/SignatureTransfer.sol\":480:6536  contract SignatureTransfer is ISignatureTransfer, EIP712 {... */\n      swap1\n      dup4\n      mload\n        /* \"contracts/contracts/lib/PermitHash.sol\":3642:3879  abi.encode(... */\n      swap3\n        /* \"contracts/contracts/permit2/SignatureTransfer.sol\":480:6536  contract SignatureTransfer is ISignatureTransfer, EIP712 {... */\n      0x20\n        /* \"contracts/contracts/lib/PermitHash.sol\":3642:3879  abi.encode(... */\n      dup5\n      add\n        /* \"contracts/contracts/permit2/SignatureTransfer.sol\":480:6536  contract SignatureTransfer is ISignatureTransfer, EIP712 {... */\n      swap5\n        /* \"contracts/contracts/lib/PermitHash.sol\":1254:1427  keccak256(... */\n      0xfcf35f5ac6a2c28868dc44c302166470266239195f02b0ee408334829333b766\n        /* \"contracts/contracts/permit2/SignatureTransfer.sol\":480:6536  contract SignatureTransfer is ISignatureTransfer, EIP712 {... */\n      dup7\n      mstore\n        /* \"contracts/contracts/lib/PermitHash.sol\":1018:1184  keccak256(... */\n      dup5\n      add\n        /* \"contracts/contracts/permit2/SignatureTransfer.sol\":480:6536  contract SignatureTransfer is ISignatureTransfer, EIP712 {... */\n      mstore\n        /* \"contracts/contracts/lib/PermitHash.sol\":3792:3802  msg.sender */\n      caller\n        /* \"contracts/contracts/lib/PermitHash.sol\":1018:1184  keccak256(... */\n      0x60\n      dup5\n      add\n        /* \"contracts/contracts/permit2/SignatureTransfer.sol\":480:6536  contract SignatureTransfer is ISignatureTransfer, EIP712 {... */\n      mstore\n      0x80\n        /* \"contracts/contracts/lib/PermitHash.sol\":1018:1184  keccak256(... */\n      dup4\n      add\n        /* \"contracts/contracts/permit2/SignatureTransfer.sol\":480:6536  contract SignatureTransfer is ISignatureTransfer, EIP712 {... */\n      mstore\n        /* \"contracts/contracts/lib/PermitHash.sol\":1018:1184  keccak256(... */\n      0xa0\n      dup3\n      add\n        /* \"contracts/contracts/permit2/SignatureTransfer.sol\":480:6536  contract SignatureTransfer is ISignatureTransfer, EIP712 {... */\n      mstore\n        /* \"contracts/contracts/lib/PermitHash.sol\":1018:1184  keccak256(... */\n      0xa0\n        /* \"contracts/contracts/lib/PermitHash.sol\":3642:3879  abi.encode(... */\n      dup2\n      mstore\n      tag_70\n      dup2\n      tag_4\n      jump\t// in\n        /* \"contracts/contracts/lib/PermitHash.sol\":3503:3506  ++i */\n    tag_94:\n        /* \"contracts/contracts/lib/PermitHash.sol\":3571:3587  permit.permitted */\n      dup1\n      dup12\n        /* \"contracts/contracts/lib/PermitHash.sol\":3522:3591  tokenPermissionHashes[i] = _hashTokenPermissions(permit.permitted[i]) */\n      tag_77\n        /* \"contracts/contracts/lib/PermitHash.sol\":3571:3587  permit.permitted */\n      dup3\n        /* \"contracts/contracts/lib/PermitHash.sol\":3549:3591  _hashTokenPermissions(permit.permitted[i]) */\n      tag_101\n        /* \"contracts/contracts/lib/PermitHash.sol\":3571:3590  permit.permitted[i] */\n      tag_75\n        /* \"contracts/contracts/lib/PermitHash.sol\":3503:3506  ++i */\n      tag_103\n        /* \"contracts/contracts/lib/PermitHash.sol\":3571:3587  permit.permitted */\n      swap7\n      dup14\n      mload\n        /* \"contracts/contracts/lib/PermitHash.sol\":3571:3590  permit.permitted[i] */\n      tag_23\n      jump\t// in\n        /* \"contracts/contracts/lib/PermitHash.sol\":3549:3591  _hashTokenPermissions(permit.permitted[i]) */\n    tag_101:\n        /* \"contracts/contracts/lib/PermitHash.sol\":3522:3591  tokenPermissionHashes[i] = _hashTokenPermissions(permit.permitted[i]) */\n      swap3\n      tag_23\n      jump\t// in\n        /* \"contracts/contracts/lib/PermitHash.sol\":3503:3506  ++i */\n    tag_103:\n        /* \"contracts/contracts/lib/PermitHash.sol\":3470:3483  uint256 i = 0 */\n      jump(tag_93)\n        /* \"contracts/contracts/permit2/SignatureTransfer.sol\":480:6536  contract SignatureTransfer is ISignatureTransfer, EIP712 {... */\n    tag_89:\n      dup7\n      dup1\n      revert\n    tag_39:\n      pop\n      dup3\n      jumpi(tag_108, callvalue)\n      dup2\n      add(calldatasize, not(0x03))\n      slt\n      tag_108\n      jumpi\n      calldataload\n      sub(shl(0xa0, 0x01), 0x01)\n      dup2\n      and\n      swap1\n      dup2\n      swap1\n      sub\n      tag_108\n      jumpi\n      dup3\n      dup3\n      swap2\n      0x20\n      swap5\n      mstore\n      dup1\n      dup5\n      mstore\n      dup2\n      dup2\n      keccak256\n      calldataload(0x24)\n      dup3\n      mstore\n      dup5\n      mstore\n      keccak256\n      sload\n      swap1\n      mload\n      swap1\n      dup2\n      mstore\n      return\n    tag_108:\n      dup3\n      dup1\n      revert\n    tag_37:\n      pop\n      dup3\n      jumpi(tag_108, callvalue)\n      dup2\n      add(calldatasize, not(0x03))\n      slt\n      tag_108\n      jumpi\n        /* \"contracts/contracts/permit2/SignatureTransfer.sol\":5308:5361  UnorderedNonceInvalidation(msg.sender, wordPos, mask) */\n      0x3704902f963766a4e561bbaab6e6cdc1b1dd12f6e9e99648da8843b3f46b918d\n        /* \"contracts/contracts/permit2/SignatureTransfer.sol\":480:6536  contract SignatureTransfer is ISignatureTransfer, EIP712 {... */\n      swap1\n      calldataload\n      swap2\n      calldataload(0x24)\n        /* \"contracts/contracts/permit2/SignatureTransfer.sol\":5264:5274  msg.sender */\n      caller\n        /* \"contracts/contracts/permit2/SignatureTransfer.sol\":480:6536  contract SignatureTransfer is ISignatureTransfer, EIP712 {... */\n      dup6\n      mstore\n      dup5\n      0x20\n      mstore\n      dup2\n      dup6\n      keccak256\n      dup5\n      dup7\n      mstore\n      0x20\n      mstore\n      dup2\n      dup6\n      keccak256\n      dup2\n      dup2\n      sload\n        /* \"contracts/contracts/permit2/SignatureTransfer.sol\":5252:5292  nonceBitmap[msg.sender][wordPos] |= mask */\n      or\n        /* \"contracts/contracts/permit2/SignatureTransfer.sol\":480:6536  contract SignatureTransfer is ISignatureTransfer, EIP712 {... */\n      swap1\n      sstore\n      dup2\n      mload\n      swap4\n      dup5\n      mstore\n      0x20\n      dup5\n      add\n      mstore\n        /* \"contracts/contracts/permit2/SignatureTransfer.sol\":5264:5274  msg.sender */\n      caller\n        /* \"contracts/contracts/permit2/SignatureTransfer.sol\":5308:5361  UnorderedNonceInvalidation(msg.sender, wordPos, mask) */\n      swap3\n      log2\n        /* \"contracts/contracts/permit2/SignatureTransfer.sol\":480:6536  contract SignatureTransfer is ISignatureTransfer, EIP712 {... */\n      dup1\n      return\n    tag_35:\n      pop\n      jumpi(tag_47, callvalue)\n      dup2\n      add(calldatasize, not(0x03))\n      slt\n      tag_47\n      jumpi\n      0x20\n      swap1\n      tag_118\n      tag_13\n      jump\t// in\n    tag_118:\n      swap1\n      mload\n      swap1\n      dup2\n      mstore\n      return\n    tag_33:\n      pop\n      dup3\n      swap1\n      jumpi(tag_108, callvalue)\n      jumpi(tag_108, slt(add(not(0x03), calldatasize), 0x0100))\n      tag_123\n      calldatasize\n      tag_8\n      jump\t// in\n    tag_123:\n      swap1\n      dup1\n      add(calldatasize, not(0x83))\n      slt\n      tag_49\n      jumpi\n      tag_126\n      tag_6\n      jump\t// in\n    tag_126:\n      swap2\n      calldataload(0xe4)\n      sub(shl(0x40, 0x01), 0x01)\n      dup2\n      gt\n      tag_127\n      jumpi\n        /* \"contracts/contracts/permit2/SignatureTransfer.sol\":1148:1157  signature */\n      tag_69\n        /* \"contracts/contracts/permit2/SignatureTransfer.sol\":480:6536  contract SignatureTransfer is ISignatureTransfer, EIP712 {... */\n      swap5\n      tag_130\n      swap2\n      calldatasize\n      swap2\n      add\n      tag_9\n      jump\t// in\n    tag_130:\n        /* \"contracts/contracts/lib/PermitHash.sol\":3029:3045  permit.permitted */\n      swap4\n      swap1\n      swap3\n        /* \"contracts/contracts/lib/PermitHash.sol\":3007:3046  _hashTokenPermissions(permit.permitted) */\n      tag_131\n        /* \"contracts/contracts/lib/PermitHash.sol\":3029:3045  permit.permitted */\n      dup4\n      mload\n        /* \"contracts/contracts/lib/PermitHash.sol\":3007:3046  _hashTokenPermissions(permit.permitted) */\n      tag_14\n      jump\t// in\n    tag_131:\n        /* \"contracts/contracts/lib/PermitHash.sol\":3163:3175  permit.nonce */\n      0x20\n      dup5\n      add\n        /* \"contracts/contracts/lib/PermitHash.sol\":1018:1184  keccak256(... */\n      mload\n        /* \"contracts/contracts/lib/PermitHash.sol\":3177:3192  permit.deadline */\n      dup3\n      dup6\n      add\n        /* \"contracts/contracts/lib/PermitHash.sol\":1018:1184  keccak256(... */\n      mload\n        /* \"contracts/contracts/permit2/SignatureTransfer.sol\":480:6536  contract SignatureTransfer is ISignatureTransfer, EIP712 {... */\n      swap1\n      dup4\n      mload\n        /* \"contracts/contracts/lib/PermitHash.sol\":3086:3193  abi.encode(_PERMIT_TRANSFER_FROM_TYPEHASH, tokenPermissionsHash, msg.sender, permit.nonce, permit.deadline) */\n      swap3\n        /* \"contracts/contracts/lib/PermitHash.sol\":3163:3175  permit.nonce */\n      0x20\n        /* \"contracts/contracts/lib/PermitHash.sol\":3086:3193  abi.encode(_PERMIT_TRANSFER_FROM_TYPEHASH, tokenPermissionsHash, msg.sender, permit.nonce, permit.deadline) */\n      dup5\n      add\n        /* \"contracts/contracts/permit2/SignatureTransfer.sol\":480:6536  contract SignatureTransfer is ISignatureTransfer, EIP712 {... */\n      swap5\n        /* \"contracts/contracts/lib/PermitHash.sol\":1018:1184  keccak256(... */\n      0x939c21a48a8dbe3a9a2404a1d46691e4d39f6583d6ec6b35714604c986d80106\n        /* \"contracts/contracts/permit2/SignatureTransfer.sol\":480:6536  contract SignatureTransfer is ISignatureTransfer, EIP712 {... */\n      dup7\n      mstore\n        /* \"contracts/contracts/lib/PermitHash.sol\":1018:1184  keccak256(... */\n      dup5\n      add\n        /* \"contracts/contracts/permit2/SignatureTransfer.sol\":480:6536  contract SignatureTransfer is ISignatureTransfer, EIP712 {... */\n      mstore\n        /* \"contracts/contracts/lib/PermitHash.sol\":3151:3161  msg.sender */\n      caller\n        /* \"contracts/contracts/lib/PermitHash.sol\":1018:1184  keccak256(... */\n      0x60\n      dup5\n      add\n        /* \"contracts/contracts/permit2/SignatureTransfer.sol\":480:6536  contract SignatureTransfer is ISignatureTransfer, EIP712 {... */\n      mstore\n        /* \"contracts/contracts/lib/PermitHash.sol\":1018:1184  keccak256(... */\n      0x80\n      dup4\n      add\n        /* \"contracts/contracts/permit2/SignatureTransfer.sol\":480:6536  contract SignatureTransfer is ISignatureTransfer, EIP712 {... */\n      mstore\n        /* \"contracts/contracts/lib/PermitHash.sol\":1018:1184  keccak256(... */\n      0xa0\n      dup3\n      add\n        /* \"contracts/contracts/permit2/SignatureTransfer.sol\":480:6536  contract SignatureTransfer is ISignatureTransfer, EIP712 {... */\n      mstore\n        /* \"contracts/contracts/lib/PermitHash.sol\":1018:1184  keccak256(... */\n      0xa0\n        /* \"contracts/contracts/lib/PermitHash.sol\":3086:3193  abi.encode(_PERMIT_TRANSFER_FROM_TYPEHASH, tokenPermissionsHash, msg.sender, permit.nonce, permit.deadline) */\n      dup2\n      mstore\n      tag_132\n      dup2\n      tag_4\n      jump\t// in\n    tag_132:\n        /* \"contracts/contracts/permit2/SignatureTransfer.sol\":480:6536  contract SignatureTransfer is ISignatureTransfer, EIP712 {... */\n      mload\n        /* \"contracts/contracts/lib/PermitHash.sol\":3063:3203  keccak256(... */\n      swap1\n      keccak256\n        /* \"contracts/contracts/permit2/SignatureTransfer.sol\":1148:1157  signature */\n      swap2\n      tag_17\n      jump\t// in\n        /* \"contracts/contracts/permit2/SignatureTransfer.sol\":480:6536  contract SignatureTransfer is ISignatureTransfer, EIP712 {... */\n    tag_127:\n      dup6\n      dup1\n      revert\n    tag_31:\n      pop\n      dup3\n      jumpi(tag_108, callvalue)\n      jumpi(tag_108, slt(add(not(0x03), calldatasize), 0x0140))\n      tag_137\n      calldatasize\n      tag_8\n      jump\t// in\n    tag_137:\n      swap2\n      dup1\n      add(calldatasize, not(0x83))\n      slt\n      tag_49\n      jumpi\n      tag_140\n      tag_6\n      jump\t// in\n    tag_140:\n      sub(shl(0x40, 0x01), 0x01)\n      swap4\n      swap1\n      calldataload(0x0104)\n      dup6\n      dup2\n      gt\n      tag_89\n      jumpi\n      tag_143\n      swap1\n      calldatasize\n      swap1\n      dup7\n      add\n      tag_9\n      jump\t// in\n    tag_143:\n      swap1\n      swap4\n      calldataload(0x0124)\n      swap7\n      dup8\n      gt\n      tag_56\n      jumpi\n      tag_146\n        /* \"contracts/contracts/lib/PermitHash.sol\":4322:4416  abi.encode(typeHash, tokenPermissionsHash, msg.sender, permit.nonce, permit.deadline, witness) */\n      tag_132\n        /* \"contracts/contracts/permit2/SignatureTransfer.sol\":480:6536  contract SignatureTransfer is ISignatureTransfer, EIP712 {... */\n      swap7\n        /* \"contracts/contracts/permit2/SignatureTransfer.sol\":1613:1622  signature */\n      tag_69\n        /* \"contracts/contracts/permit2/SignatureTransfer.sol\":480:6536  contract SignatureTransfer is ISignatureTransfer, EIP712 {... */\n      swap9\n      calldatasize\n      swap2\n      add\n      tag_9\n      jump\t// in\n    tag_146:\n      swap7\n      swap1\n      swap6\n      dup3\n      mload\n      swap1\n      tag_149\n      dup3\n      tag_2\n      jump\t// in\n    tag_149:\n      0x64\n      dup3\n      mstore\n      0x5065726d69745769746e6573735472616e7366657246726f6d28546f6b656e50\n      0x20\n      dup4\n      add\n      mstore\n      0x65726d697373696f6e73207065726d69747465642c6164647265737320737065\n      dup5\n      dup4\n      add\n      mstore\n      0x6e6465722c75696e74323536206e6f6e63652c75696e7432353620646561646c\n      0x60\n      dup4\n      add\n      mstore\n      shl(0xe2, 0x1a5b994b)\n      0x80\n      dup4\n      add\n      mstore\n      dup4\n      mload\n        /* \"contracts/contracts/lib/PermitHash.sol\":4133:4213  abi.encodePacked(_PERMIT_TRANSFER_FROM_WITNESS_TYPEHASH_STUB, witnessTypeString) */\n      swap5\n      dup6\n      swap2\n      dup2\n        /* \"contracts/contracts/lib/PermitHash.sol\":1621:1723  \"PermitWitnessTransferFrom(TokenPermissions permitted,address spender,uint256 nonce,uint256 deadline,\" */\n      tag_150\n        /* \"contracts/contracts/permit2/SignatureTransfer.sol\":480:6536  contract SignatureTransfer is ISignatureTransfer, EIP712 {... */\n      0x20\n        /* \"contracts/contracts/lib/PermitHash.sol\":4133:4213  abi.encodePacked(_PERMIT_TRANSFER_FROM_WITNESS_TYPEHASH_STUB, witnessTypeString) */\n      dup6\n      add\n        /* \"contracts/contracts/lib/PermitHash.sol\":1621:1723  \"PermitWitnessTransferFrom(TokenPermissions permitted,address spender,uint256 nonce,uint256 deadline,\" */\n      dup1\n      swap7\n      tag_15\n      jump\t// in\n    tag_150:\n      swap2\n      dup3\n      calldatacopy\n      add\n      dup12\n      dup2\n      mstore\n        /* \"contracts/contracts/lib/PermitHash.sol\":4133:4213  abi.encodePacked(_PERMIT_TRANSFER_FROM_WITNESS_TYPEHASH_STUB, witnessTypeString) */\n      sub\n      swap4\n      tag_151\n      not(0x1f)\n      swap6\n      dup7\n      dup2\n      add\n      dup4\n      mstore\n      dup3\n      tag_5\n      jump\t// in\n    tag_151:\n        /* \"contracts/contracts/permit2/SignatureTransfer.sol\":480:6536  contract SignatureTransfer is ISignatureTransfer, EIP712 {... */\n      mload\n        /* \"contracts/contracts/lib/PermitHash.sol\":4123:4214  keccak256(abi.encodePacked(_PERMIT_TRANSFER_FROM_WITNESS_TYPEHASH_STUB, witnessTypeString)) */\n      swap1\n      keccak256\n        /* \"contracts/contracts/lib/PermitHash.sol\":4278:4294  permit.permitted */\n      swap3\n        /* \"contracts/contracts/lib/PermitHash.sol\":4256:4295  _hashTokenPermissions(permit.permitted) */\n      tag_152\n        /* \"contracts/contracts/lib/PermitHash.sol\":4278:4294  permit.permitted */\n      dup7\n      mload\n        /* \"contracts/contracts/lib/PermitHash.sol\":4256:4295  _hashTokenPermissions(permit.permitted) */\n      tag_14\n      jump\t// in\n    tag_152:\n        /* \"contracts/contracts/permit2/SignatureTransfer.sol\":480:6536  contract SignatureTransfer is ISignatureTransfer, EIP712 {... */\n      0x20\n        /* \"contracts/contracts/lib/PermitHash.sol\":4377:4389  permit.nonce */\n      dup8\n      dup2\n      add\n        /* \"contracts/contracts/lib/PermitHash.sol\":1018:1184  keccak256(... */\n      mload\n        /* \"contracts/contracts/lib/PermitHash.sol\":4391:4406  permit.deadline */\n      dup6\n      dup10\n      add\n        /* \"contracts/contracts/lib/PermitHash.sol\":1018:1184  keccak256(... */\n      mload\n        /* \"contracts/contracts/permit2/SignatureTransfer.sol\":480:6536  contract SignatureTransfer is ISignatureTransfer, EIP712 {... */\n      swap6\n      mload\n        /* \"contracts/contracts/lib/PermitHash.sol\":4322:4416  abi.encode(typeHash, tokenPermissionsHash, msg.sender, permit.nonce, permit.deadline, witness) */\n      swap2\n      dup3\n      add\n        /* \"contracts/contracts/permit2/SignatureTransfer.sol\":480:6536  contract SignatureTransfer is ISignatureTransfer, EIP712 {... */\n      swap7\n      dup8\n      mstore\n        /* \"contracts/contracts/lib/PermitHash.sol\":1621:1723  \"PermitWitnessTransferFrom(TokenPermissions permitted,address spender,uint256 nonce,uint256 deadline,\" */\n      0x40\n      dup3\n      add\n        /* \"contracts/contracts/permit2/SignatureTransfer.sol\":480:6536  contract SignatureTransfer is ISignatureTransfer, EIP712 {... */\n      swap3\n      swap1\n      swap3\n      mstore\n        /* \"contracts/contracts/lib/PermitHash.sol\":4365:4375  msg.sender */\n      caller\n        /* \"contracts/contracts/lib/PermitHash.sol\":1621:1723  \"PermitWitnessTransferFrom(TokenPermissions permitted,address spender,uint256 nonce,uint256 deadline,\" */\n      0x60\n      dup3\n      add\n        /* \"contracts/contracts/permit2/SignatureTransfer.sol\":480:6536  contract SignatureTransfer is ISignatureTransfer, EIP712 {... */\n      mstore\n        /* \"contracts/contracts/lib/PermitHash.sol\":1621:1723  \"PermitWitnessTransferFrom(TokenPermissions permitted,address spender,uint256 nonce,uint256 deadline,\" */\n      0x80\n      dup2\n      add\n        /* \"contracts/contracts/permit2/SignatureTransfer.sol\":480:6536  contract SignatureTransfer is ISignatureTransfer, EIP712 {... */\n      swap2\n      swap1\n      swap2\n      mstore\n      0xa0\n        /* \"contracts/contracts/lib/PermitHash.sol\":1621:1723  \"PermitWitnessTransferFrom(TokenPermissions permitted,address spender,uint256 nonce,uint256 deadline,\" */\n      dup2\n      add\n        /* \"contracts/contracts/permit2/SignatureTransfer.sol\":480:6536  contract SignatureTransfer is ISignatureTransfer, EIP712 {... */\n      swap4\n      swap1\n      swap4\n      mstore\n      calldataload(0xe4)\n        /* \"contracts/contracts/lib/PermitHash.sol\":1621:1723  \"PermitWitnessTransferFrom(TokenPermissions permitted,address spender,uint256 nonce,uint256 deadline,\" */\n      0xc0\n      dup5\n      add\n        /* \"contracts/contracts/permit2/SignatureTransfer.sol\":480:6536  contract SignatureTransfer is ISignatureTransfer, EIP712 {... */\n      mstore\n      dup3\n        /* \"contracts/contracts/lib/PermitHash.sol\":1621:1723  \"PermitWitnessTransferFrom(TokenPermissions permitted,address spender,uint256 nonce,uint256 deadline,\" */\n      0xe0\n      dup2\n      add\n        /* \"contracts/contracts/lib/PermitHash.sol\":4322:4416  abi.encode(typeHash, tokenPermissionsHash, msg.sender, permit.nonce, permit.deadline, witness) */\n      tag_73\n        /* \"contracts/contracts/lib/PermitHash.sol\":1621:1723  \"PermitWitnessTransferFrom(TokenPermissions permitted,address spender,uint256 nonce,uint256 deadline,\" */\n      jump\n        /* \"contracts/contracts/permit2/SignatureTransfer.sol\":480:6536  contract SignatureTransfer is ISignatureTransfer, EIP712 {... */\n    tag_1:\n      0x60\n      dup2\n      add\n      swap1\n      dup2\n      lt\n      sub(shl(0x40, 0x01), 0x01)\n      dup3\n      gt\n      or\n      tag_154\n      jumpi\n      0x40\n      mstore\n      jump\t// out\n    tag_154:\n      mstore(0x00, shl(0xe0, 0x4e487b71))\n      mstore(0x04, 0x41)\n      revert(0x00, 0x24)\n    tag_2:\n      0xa0\n      dup2\n      add\n      swap1\n      dup2\n      lt\n      sub(shl(0x40, 0x01), 0x01)\n      dup3\n      gt\n      or\n      tag_154\n      jumpi\n      0x40\n      mstore\n      jump\t// out\n    tag_3:\n        /* \"contracts/contracts/lib/PermitHash.sol\":895:954  keccak256(\"TokenPermissions(address token,uint256 amount)\") */\n      0x80\n        /* \"contracts/contracts/permit2/SignatureTransfer.sol\":480:6536  contract SignatureTransfer is ISignatureTransfer, EIP712 {... */\n      dup2\n      add\n      swap1\n      dup2\n      lt\n      sub(shl(0x40, 0x01), 0x01)\n      dup3\n      gt\n      or\n      tag_154\n      jumpi\n      0x40\n      mstore\n      jump\t// out\n    tag_4:\n        /* \"contracts/contracts/lib/PermitHash.sol\":1018:1184  keccak256(... */\n      0xc0\n        /* \"contracts/contracts/permit2/SignatureTransfer.sol\":480:6536  contract SignatureTransfer is ISignatureTransfer, EIP712 {... */\n      dup2\n      add\n      swap1\n      dup2\n      lt\n      sub(shl(0x40, 0x01), 0x01)\n      dup3\n      gt\n      or\n      tag_154\n      jumpi\n      0x40\n      mstore\n      jump\t// out\n    tag_5:\n      swap1\n        /* \"contracts/contracts/lib/PermitHash.sol\":4133:4213  abi.encodePacked(_PERMIT_TRANSFER_FROM_WITNESS_TYPEHASH_STUB, witnessTypeString) */\n      0x1f\n      dup1\n      not\n        /* \"contracts/contracts/permit2/SignatureTransfer.sol\":480:6536  contract SignatureTransfer is ISignatureTransfer, EIP712 {... */\n      swap2\n      add\n      and\n      dup2\n      add\n      swap1\n      dup2\n      lt\n      sub(shl(0x40, 0x01), 0x01)\n      dup3\n      gt\n      or\n      tag_154\n      jumpi\n      0x40\n      mstore\n      jump\t// out\n    tag_6:\n      calldataload(0xc4)\n      swap1\n      sub(shl(0xa0, 0x01), 0x01)\n      dup3\n      and\n      dup3\n      sub\n      tag_164\n      jumpi\n      jump\t// out\n    tag_164:\n      0x00\n      dup1\n      revert\n    tag_7:\n      calldataload(0x44)\n      swap1\n      sub(shl(0xa0, 0x01), 0x01)\n      dup3\n      and\n      dup3\n      sub\n      tag_164\n      jumpi\n      jump\t// out\n    tag_8:\n      not(0x03)\n      add\n      swap1\n      0x80\n      dup3\n      slt\n      tag_164\n      jumpi\n      0x40\n      dup1\n      mload\n      swap1\n      tag_170\n      dup3\n      tag_1\n      jump\t// in\n    tag_170:\n      dup1\n      dup3\n      swap5\n      slt\n      tag_164\n      jumpi\n      dup1\n      mload\n      dup2\n      dup2\n      add\n      dup2\n      dup2\n      lt\n      sub(shl(0x40, 0x01), 0x01)\n      dup3\n      gt\n      or\n      tag_154\n      jumpi\n      dup3\n      mstore\n      calldataload(0x04)\n      sub(shl(0xa0, 0x01), 0x01)\n      dup2\n      and\n      dup2\n      sub\n      tag_164\n      jumpi\n      dup2\n      mstore\n      calldataload(0x24)\n      0x20\n      dup3\n      add\n      mstore\n      dup3\n      mstore\n      calldataload(0x44)\n      0x20\n      dup4\n      add\n      mstore\n      calldataload(0x64)\n      swap2\n      add\n      mstore\n      jump\t// out\n    tag_9:\n      swap2\n      dup2\n      0x1f\n      dup5\n      add\n      slt\n      iszero\n      tag_164\n      jumpi\n      dup3\n      calldataload\n      swap2\n      sub(shl(0x40, 0x01), 0x01)\n      dup4\n      gt\n      tag_164\n      jumpi\n      0x20\n      dup4\n      dup2\n      dup7\n      add\n      swap6\n      add\n      add\n      gt\n      tag_164\n      jumpi\n      jump\t// out\n    tag_10:\n      sub(shl(0x40, 0x01), 0x01)\n      dup2\n      gt\n      tag_154\n      jumpi\n      0x05\n      shl\n      0x20\n      add\n      swap1\n      jump\t// out\n    tag_11:\n      swap2\n      swap1\n      swap2\n      0x60\n      dup2\n      dup5\n      sub\n      slt\n      tag_164\n      jumpi\n      0x40\n      dup1\n      mload\n      swap2\n      tag_187\n      dup4\n      tag_1\n      jump\t// in\n    tag_187:\n      dup3\n      swap5\n      dup2\n      calldataload\n      sub(shl(0x40, 0x01), 0x01)\n      swap1\n      dup2\n      dup2\n      gt\n      tag_164\n      jumpi\n      dup4\n      add\n      dup3\n      0x1f\n      dup3\n      add\n      slt\n      iszero\n      tag_164\n      jumpi\n      dup1\n      calldataload\n      tag_192\n      dup2\n      tag_10\n      jump\t// in\n    tag_192:\n      swap3\n      tag_193\n      dup8\n      mload\n      swap5\n      dup6\n      tag_5\n      jump\t// in\n    tag_193:\n      dup2\n      dup5\n      mstore\n      0x20\n      swap5\n      dup6\n      dup1\n      dup7\n      add\n      swap4\n      0x06\n      shl\n      dup6\n      add\n      add\n      swap4\n      dup2\n      dup6\n      gt\n      tag_164\n      jumpi\n      swap1\n      dup7\n      dup10\n      swap9\n      swap8\n      swap7\n      swap6\n      swap5\n      swap4\n      swap3\n      add\n      swap3\n    tag_196:\n      dup5\n      dup5\n      lt\n      tag_197\n      jumpi\n      pop\n      pop\n      pop\n      pop\n      pop\n      dup6\n      mstore\n      dup1\n      dup3\n      add\n      calldataload\n      swap1\n      dup6\n      add\n      mstore\n      add\n      calldataload\n      swap2\n      add\n      mstore\n      jump\t// out\n    tag_197:\n      swap1\n      swap2\n      swap3\n      swap4\n      swap5\n      swap6\n      swap7\n      swap8\n      dup5\n      dup4\n      sub\n      slt\n      tag_164\n      jumpi\n      dup9\n      mload\n      swap1\n      dup10\n      dup3\n      add\n      dup3\n      dup2\n      lt\n      dup6\n      dup3\n      gt\n      or\n      tag_201\n      jumpi\n      dup11\n      mstore\n      dup5\n      calldataload\n      swap1\n      sub(shl(0xa0, 0x01), 0x01)\n      dup3\n      and\n      dup3\n      sub\n      tag_164\n      jumpi\n      dup3\n      dup10\n      swap3\n      dup13\n      swap5\n      mstore\n      dup3\n      dup8\n      add\n      calldataload\n      dup4\n      dup3\n      add\n      mstore\n      dup2\n      mstore\n      add\n      swap4\n      add\n      swap2\n      swap1\n      dup9\n      swap8\n      swap7\n      swap6\n      swap5\n      swap4\n      jump(tag_196)\n    tag_201:\n      0x24\n      0x00\n      shl(0xe0, 0x4e487b71)\n      dup2\n      mstore\n      mstore(0x04, 0x41)\n      revert\n    tag_12:\n      swap2\n      dup2\n      0x1f\n      dup5\n      add\n      slt\n      iszero\n      tag_164\n      jumpi\n      dup3\n      calldataload\n      swap2\n      sub(shl(0x40, 0x01), 0x01)\n      dup4\n      gt\n      tag_164\n      jumpi\n      0x20\n      dup1\n      dup6\n      add\n      swap5\n      dup5\n      0x06\n      shl\n      add\n      add\n      gt\n      tag_164\n      jumpi\n      jump\t// out\n        /* \"contracts/contracts/permit2/EIP712.sol\":1186:1411  function DOMAIN_SEPARATOR() public view override returns (bytes32) {... */\n    tag_13:\n        /* \"contracts/contracts/permit2/EIP712.sol\":1270:1283  block.chainid */\n      chainid\n        /* \"contracts/contracts/permit2/EIP712.sol\":1287:1303  _CACHED_CHAIN_ID */\n      immutable(\"0x3ab4fb69c8e122442af87ae588015f836e7cde3029bbb6dab1983bc840231d63\")\n        /* \"contracts/contracts/permit2/EIP712.sol\":1270:1303  block.chainid == _CACHED_CHAIN_ID */\n      sub\n        /* \"contracts/contracts/permit2/EIP712.sol\":1287:1303  _CACHED_CHAIN_ID */\n      tag_211\n      jumpi\n        /* \"contracts/contracts/permit2/EIP712.sol\":1318:1342  _CACHED_DOMAIN_SEPARATOR */\n      immutable(\"0x4f4ac30ff8bfcef8cd1068d1427faf7fb52fa3a1610b1f430e1f69a91ebb9673\")\n        /* \"contracts/contracts/permit2/EIP712.sol\":1186:1411  function DOMAIN_SEPARATOR() public view override returns (bytes32) {... */\n      swap1\n      jump\t// out\n        /* \"contracts/contracts/permit2/EIP712.sol\":1270:1404  block.chainid == _CACHED_CHAIN_ID... */\n    tag_211:\n        /* \"contracts/contracts/permit2/SignatureTransfer.sol\":480:6536  contract SignatureTransfer is ISignatureTransfer, EIP712 {... */\n      mload(0x40)\n        /* \"contracts/contracts/permit2/EIP712.sol\":1632:1692  abi.encode(typeHash, nameHash, block.chainid, address(this)) */\n      0x20\n      dup2\n      add\n        /* \"contracts/contracts/permit2/SignatureTransfer.sol\":480:6536  contract SignatureTransfer is ISignatureTransfer, EIP712 {... */\n      swap1\n        /* \"contracts/contracts/permit2/EIP712.sol\":789:869  keccak256(\"EIP712Domain(string name,uint256 chainId,address verifyingContract)\") */\n      0x8cad95687ba82c2ce50e74f7b754645e5117c3a5bec8151c0726d5857980a866\n        /* \"contracts/contracts/permit2/SignatureTransfer.sol\":480:6536  contract SignatureTransfer is ISignatureTransfer, EIP712 {... */\n      dup3\n      mstore\n        /* \"contracts/contracts/permit2/EIP712.sol\":717:737  keccak256(\"Permit2\") */\n      0x9ac997416e8ff9d2ff6bebeb7149f65cdae5e32e2b90440b566bb3044041d36a\n        /* \"contracts/contracts/permit2/SignatureTransfer.sol\":480:6536  contract SignatureTransfer is ISignatureTransfer, EIP712 {... */\n      0x40\n      dup3\n      add\n      mstore\n        /* \"contracts/contracts/permit2/EIP712.sol\":1270:1283  block.chainid */\n      chainid\n        /* \"contracts/contracts/permit2/SignatureTransfer.sol\":480:6536  contract SignatureTransfer is ISignatureTransfer, EIP712 {... */\n      0x60\n      dup3\n      add\n      mstore\n        /* \"contracts/contracts/permit2/EIP712.sol\":1686:1690  this */\n      address\n        /* \"contracts/contracts/permit2/SignatureTransfer.sol\":480:6536  contract SignatureTransfer is ISignatureTransfer, EIP712 {... */\n      0x80\n      dup3\n      add\n      mstore\n      0x80\n        /* \"contracts/contracts/permit2/EIP712.sol\":1632:1692  abi.encode(typeHash, nameHash, block.chainid, address(this)) */\n      dup2\n      mstore\n      tag_214\n      dup2\n      tag_2\n      jump\t// in\n    tag_214:\n        /* \"contracts/contracts/permit2/SignatureTransfer.sol\":480:6536  contract SignatureTransfer is ISignatureTransfer, EIP712 {... */\n      mload\n        /* \"contracts/contracts/permit2/EIP712.sol\":1622:1693  keccak256(abi.encode(typeHash, nameHash, block.chainid, address(this))) */\n      swap1\n      keccak256\n        /* \"contracts/contracts/permit2/EIP712.sol\":1186:1411  function DOMAIN_SEPARATOR() public view override returns (bytes32) {... */\n      swap1\n      jump\t// out\n        /* \"contracts/contracts/lib/PermitHash.sol\":5539:5768  function _hashTokenPermissions(ISignatureTransfer.TokenPermissions memory permitted)... */\n    tag_14:\n        /* \"contracts/contracts/permit2/SignatureTransfer.sol\":480:6536  contract SignatureTransfer is ISignatureTransfer, EIP712 {... */\n      mload(0x40)\n        /* \"contracts/contracts/lib/PermitHash.sol\":5710:5760  abi.encode(_TOKEN_PERMISSIONS_TYPEHASH, permitted) */\n      0x20\n      dup1\n      dup3\n      add\n        /* \"contracts/contracts/permit2/SignatureTransfer.sol\":480:6536  contract SignatureTransfer is ISignatureTransfer, EIP712 {... */\n      swap3\n        /* \"contracts/contracts/lib/PermitHash.sol\":895:954  keccak256(\"TokenPermissions(address token,uint256 amount)\") */\n      0x618358ac3db8dc274f0cd8829da7e234bd48cd73c4a740aede1adec9846d06a1\n        /* \"contracts/contracts/permit2/SignatureTransfer.sol\":480:6536  contract SignatureTransfer is ISignatureTransfer, EIP712 {... */\n      dup5\n      mstore\n      0x01\n      dup1\n      0xa0\n      shl\n      sub\n        /* \"contracts/contracts/lib/PermitHash.sol\":895:954  keccak256(\"TokenPermissions(address token,uint256 amount)\") */\n      dup2\n      mload\n        /* \"contracts/contracts/permit2/SignatureTransfer.sol\":480:6536  contract SignatureTransfer is ISignatureTransfer, EIP712 {... */\n      and\n      0x40\n        /* \"contracts/contracts/lib/PermitHash.sol\":895:954  keccak256(\"TokenPermissions(address token,uint256 amount)\") */\n      dup5\n      add\n        /* \"contracts/contracts/permit2/SignatureTransfer.sol\":480:6536  contract SignatureTransfer is ISignatureTransfer, EIP712 {... */\n      mstore\n        /* \"contracts/contracts/lib/PermitHash.sol\":895:954  keccak256(\"TokenPermissions(address token,uint256 amount)\") */\n      add\n      mload\n      0x60\n      dup3\n      add\n        /* \"contracts/contracts/permit2/SignatureTransfer.sol\":480:6536  contract SignatureTransfer is ISignatureTransfer, EIP712 {... */\n      mstore\n        /* \"contracts/contracts/lib/PermitHash.sol\":895:954  keccak256(\"TokenPermissions(address token,uint256 amount)\") */\n      0x60\n        /* \"contracts/contracts/lib/PermitHash.sol\":5710:5760  abi.encode(_TOKEN_PERMISSIONS_TYPEHASH, permitted) */\n      dup2\n      mstore\n      tag_214\n      dup2\n      tag_3\n      jump\t// in\n        /* \"contracts/contracts/lib/PermitHash.sol\":1621:1723  \"PermitWitnessTransferFrom(TokenPermissions permitted,address spender,uint256 nonce,uint256 deadline,\" */\n    tag_15:\n      swap1\n        /* \"contracts/contracts/permit2/SignatureTransfer.sol\":480:6536  contract SignatureTransfer is ISignatureTransfer, EIP712 {... */\n      dup2\n      mload\n        /* \"contracts/contracts/lib/PermitHash.sol\":1621:1723  \"PermitWitnessTransferFrom(TokenPermissions permitted,address spender,uint256 nonce,uint256 deadline,\" */\n      swap2\n      0x00\n    tag_216:\n      dup4\n      dup2\n      lt\n      tag_217\n      jumpi\n      pop\n      pop\n      add\n      0x00\n      dup2\n      mstore\n      swap1\n      jump\t// out\n    tag_217:\n      dup1\n      0x20\n      dup1\n      swap3\n      dup5\n      add\n      add\n      mload\n      dup2\n      dup6\n      add\n      mstore\n      add\n      jump(tag_216)\n        /* \"contracts/contracts/permit2/SignatureTransfer.sol\":2066:2770  function _permitTransferFrom(... */\n    tag_17:\n      swap2\n      swap3\n      swap1\n      swap4\n        /* \"contracts/contracts/permit2/SignatureTransfer.sol\":2329:2360  transferDetails.requestedAmount */\n      0xa4\n        /* \"contracts/contracts/permit2/SignatureTransfer.sol\":480:6536  contract SignatureTransfer is ISignatureTransfer, EIP712 {... */\n      calldataload\n        /* \"contracts/contracts/permit2/SignatureTransfer.sol\":2393:2408  permit.deadline */\n      swap4\n      0x40\n      dup5\n      add\n        /* \"contracts/contracts/lib/PermitHash.sol\":1018:1184  keccak256(... */\n      mload\n        /* \"contracts/contracts/permit2/SignatureTransfer.sol\":2375:2390  block.timestamp */\n      dup1\n      timestamp\n        /* \"contracts/contracts/permit2/SignatureTransfer.sol\":2375:2408  block.timestamp > permit.deadline */\n      gt\n        /* \"contracts/contracts/permit2/SignatureTransfer.sol\":2371:2450  if (block.timestamp > permit.deadline) revert SignatureExpired(permit.deadline) */\n      tag_219\n      jumpi\n        /* \"contracts/contracts/permit2/SignatureTransfer.sol\":2482:2498  permit.permitted */\n      pop\n        /* \"contracts/contracts/permit2/SignatureTransfer.sol\":2329:2360  transferDetails.requestedAmount */\n      0x20\n        /* \"contracts/contracts/permit2/SignatureTransfer.sol\":2482:2498  permit.permitted */\n      dup5\n      mload\n        /* \"contracts/contracts/permit2/SignatureTransfer.sol\":2482:2505  permit.permitted.amount */\n      add\n        /* \"contracts/contracts/lib/PermitHash.sol\":1018:1184  keccak256(... */\n      mload\n        /* \"contracts/contracts/permit2/SignatureTransfer.sol\":2464:2505  requestedAmount > permit.permitted.amount */\n      dup1\n      dup7\n      gt\n        /* \"contracts/contracts/permit2/SignatureTransfer.sol\":2460:2552  if (requestedAmount > permit.permitted.amount) revert InvalidAmount(permit.permitted.amount) */\n      tag_221\n      jumpi\n        /* \"contracts/contracts/permit2/SignatureTransfer.sol\":2589:2601  permit.nonce */\n      pop\n      swap2\n      dup6\n      swap2\n        /* \"contracts/contracts/permit2/SignatureTransfer.sol\":2630:2654  _hashTypedData(dataHash) */\n      tag_223\n        /* \"contracts/contracts/permit2/SignatureTransfer.sol\":2656:2661  owner */\n      tag_224\n        /* \"contracts/contracts/permit2/SignatureTransfer.sol\":2589:2601  permit.nonce */\n      swap5\n      tag_225\n        /* \"contracts/contracts/permit2/SignatureTransfer.sol\":2329:2360  transferDetails.requestedAmount */\n      0x20\n        /* \"contracts/contracts/permit2/SignatureTransfer.sol\":2589:2601  permit.nonce */\n      dup9\n      add\n        /* \"contracts/contracts/lib/PermitHash.sol\":1018:1184  keccak256(... */\n      mload\n        /* \"contracts/contracts/permit2/SignatureTransfer.sol\":2589:2601  permit.nonce */\n      dup7\n      tag_27\n      jump\t// in\n    tag_225:\n        /* \"contracts/contracts/permit2/SignatureTransfer.sol\":2630:2654  _hashTypedData(dataHash) */\n      tag_20\n      jump\t// in\n    tag_223:\n        /* \"contracts/contracts/permit2/SignatureTransfer.sol\":2656:2661  owner */\n      swap2\n      tag_19\n      jump\t// in\n    tag_224:\n        /* \"contracts/contracts/permit2/SignatureTransfer.sol\":2679:2695  permit.permitted */\n      mload\n        /* \"contracts/contracts/permit2/SignatureTransfer.sol\":480:6536  contract SignatureTransfer is ISignatureTransfer, EIP712 {... */\n      mload\n      sub(shl(0xa0, 0x01), 0x01)\n      swap1\n      dup2\n      and\n      swap3\n      calldataload(0x84)\n      swap2\n      dup3\n      and\n      dup3\n      sub\n      tag_164\n      jumpi\n        /* \"contracts/contracts/permit2/SignatureTransfer.sol\":2747:2762  requestedAmount */\n      tag_228\n      swap4\n      tag_28\n      jump\t// in\n    tag_228:\n        /* \"contracts/contracts/permit2/SignatureTransfer.sol\":2066:2770  function _permitTransferFrom(... */\n      jump\t// out\n        /* \"contracts/contracts/permit2/SignatureTransfer.sol\":2460:2552  if (requestedAmount > permit.permitted.amount) revert InvalidAmount(permit.permitted.amount) */\n    tag_221:\n        /* \"contracts/contracts/permit2/SignatureTransfer.sol\":480:6536  contract SignatureTransfer is ISignatureTransfer, EIP712 {... */\n      0x24\n      swap1\n        /* \"contracts/contracts/permit2/SignatureTransfer.sol\":2393:2408  permit.deadline */\n      0x40\n        /* \"contracts/contracts/permit2/SignatureTransfer.sol\":480:6536  contract SignatureTransfer is ISignatureTransfer, EIP712 {... */\n      mload\n        /* \"contracts/contracts/permit2/SignatureTransfer.sol\":2514:2552  InvalidAmount(permit.permitted.amount) */\n      swap1\n      shl(0xe0, 0x3728b83d)\n      dup3\n      mstore\n      0x04\n      dup3\n      add\n        /* \"contracts/contracts/permit2/SignatureTransfer.sol\":480:6536  contract SignatureTransfer is ISignatureTransfer, EIP712 {... */\n      mstore\n        /* \"contracts/contracts/permit2/SignatureTransfer.sol\":2514:2552  InvalidAmount(permit.permitted.amount) */\n      revert\n        /* \"contracts/contracts/permit2/SignatureTransfer.sol\":2371:2450  if (block.timestamp > permit.deadline) revert SignatureExpired(permit.deadline) */\n    tag_219:\n        /* \"contracts/contracts/permit2/SignatureTransfer.sol\":480:6536  contract SignatureTransfer is ISignatureTransfer, EIP712 {... */\n      0x24\n      swap1\n        /* \"contracts/contracts/permit2/SignatureTransfer.sol\":2393:2408  permit.deadline */\n      0x40\n        /* \"contracts/contracts/permit2/SignatureTransfer.sol\":480:6536  contract SignatureTransfer is ISignatureTransfer, EIP712 {... */\n      mload\n        /* \"contracts/contracts/permit2/SignatureTransfer.sol\":2417:2450  SignatureExpired(permit.deadline) */\n      swap1\n      shl(0xe0, 0xcd21db4f)\n      dup3\n      mstore\n      0x04\n      dup3\n      add\n        /* \"contracts/contracts/permit2/SignatureTransfer.sol\":480:6536  contract SignatureTransfer is ISignatureTransfer, EIP712 {... */\n      mstore\n        /* \"contracts/contracts/permit2/SignatureTransfer.sol\":2417:2450  SignatureExpired(permit.deadline) */\n      revert\n        /* \"contracts/contracts/permit2/SignatureTransfer.sol\":480:6536  contract SignatureTransfer is ISignatureTransfer, EIP712 {... */\n    tag_18:\n      swap2\n      swap1\n      dup3\n      0x40\n      swap2\n      sub\n      slt\n      tag_164\n      jumpi\n      0x20\n      dup3\n      calldataload\n      swap3\n      add\n      calldataload\n      swap1\n      jump\t// out\n        /* \"contracts/contracts/lib/SignatureVerification.sol\":700:1809  function verify(bytes calldata signature, bytes32 hash, address claimedSigner) internal view {... */\n    tag_19:\n      0x00\n        /* \"contracts/contracts/lib/SignatureVerification.sol\":863:888  claimedSigner.code.length */\n      dup5\n      extcodesize\n      tag_231\n      jumpi\n      pop\n        /* \"contracts/contracts/lib/SignatureVerification.sol\":933:935  65 */\n      0x41\n        /* \"contracts/contracts/lib/SignatureVerification.sol\":913:935  signature.length == 65 */\n      dup3\n      sub\n        /* \"contracts/contracts/lib/SignatureVerification.sol\":933:935  65 */\n      tag_233\n      jumpi\n        /* \"contracts/contracts/lib/SignatureVerification.sol\":964:1005  abi.decode(signature, (bytes32, bytes32)) */\n      tag_235\n      dup3\n      dup3\n      add\n      dup3\n      tag_18\n      jump\t// in\n    tag_235:\n        /* \"contracts/contracts/lib/SignatureVerification.sol\":955:1005  (r, s) = abi.decode(signature, (bytes32, bytes32)) */\n      swap4\n      swap1\n        /* \"contracts/contracts/lib/SignatureVerification.sol\":625:693  (0x7fffffffffffffffffffffffffffffffffffffffffffffffffffffffffffffff) */\n      swap3\n        /* \"contracts/contracts/lib/SignatureVerification.sol\":1043:1045  64 */\n      0x40\n        /* \"contracts/contracts/lib/SignatureVerification.sol\":625:693  (0x7fffffffffffffffffffffffffffffffffffffffffffffffffffffffffffffff) */\n      lt\n      iszero\n      tag_236\n      jumpi\n      0x20\n      swap4\n      0x00\n      swap4\n      0xff\n        /* \"contracts/contracts/lib/SignatureVerification.sol\":1043:1045  64 */\n      0x40\n        /* \"contracts/contracts/lib/SignatureVerification.sol\":625:693  (0x7fffffffffffffffffffffffffffffffffffffffffffffffffffffffffffffff) */\n      0x80\n      swap6\n      add\n        /* \"contracts/contracts/lib/SignatureVerification.sol\":1033:1046  signature[64] */\n      calldataload\n        /* \"contracts/contracts/lib/SignatureVerification.sol\":625:693  (0x7fffffffffffffffffffffffffffffffffffffffffffffffffffffffffffffff) */\n      0xf8\n      shr\n        /* \"contracts/contracts/lib/SignatureVerification.sol\":909:1399  if (signature.length == 65) {... */\n    tag_238:\n        /* \"contracts/contracts/permit2/SignatureTransfer.sol\":480:6536  contract SignatureTransfer is ISignatureTransfer, EIP712 {... */\n      mload(0x40)\n      swap5\n      dup6\n      mstore\n        /* \"contracts/contracts/lib/SignatureVerification.sol\":625:693  (0x7fffffffffffffffffffffffffffffffffffffffffffffffffffffffffffffff) */\n      and\n      dup7\n      dup5\n      add\n      mstore\n        /* \"contracts/contracts/permit2/SignatureTransfer.sol\":480:6536  contract SignatureTransfer is ISignatureTransfer, EIP712 {... */\n      0x40\n        /* \"contracts/contracts/lib/SignatureVerification.sol\":625:693  (0x7fffffffffffffffffffffffffffffffffffffffffffffffffffffffffffffff) */\n      dup4\n      add\n        /* \"contracts/contracts/permit2/SignatureTransfer.sol\":480:6536  contract SignatureTransfer is ISignatureTransfer, EIP712 {... */\n      mstore\n        /* \"contracts/contracts/lib/SignatureVerification.sol\":625:693  (0x7fffffffffffffffffffffffffffffffffffffffffffffffffffffffffffffff) */\n      0x60\n      dup3\n      add\n        /* \"contracts/contracts/permit2/SignatureTransfer.sol\":480:6536  contract SignatureTransfer is ISignatureTransfer, EIP712 {... */\n      mstore\n        /* \"contracts/contracts/lib/SignatureVerification.sol\":1429:1453  ecrecover(hash, v, r, s) */\n      dup3\n      dup1\n      mstore\n      0x01\n      gas\n      staticcall\n      iszero\n      tag_239\n      jumpi\n      mload(0x00)\n      sub(shl(0xa0, 0x01), 0x01)\n        /* \"contracts/contracts/permit2/SignatureTransfer.sol\":480:6536  contract SignatureTransfer is ISignatureTransfer, EIP712 {... */\n      swap1\n      dup2\n      and\n      swap2\n        /* \"contracts/contracts/lib/SignatureVerification.sol\":1471:1491  signer == address(0) */\n      dup3\n      iszero\n        /* \"contracts/contracts/lib/SignatureVerification.sol\":1467:1518  if (signer == address(0)) revert InvalidSignature() */\n      tag_241\n      jumpi\n        /* \"contracts/contracts/permit2/SignatureTransfer.sol\":480:6536  contract SignatureTransfer is ISignatureTransfer, EIP712 {... */\n      and\n        /* \"contracts/contracts/lib/SignatureVerification.sol\":1536:1559  signer != claimedSigner */\n      sub\n        /* \"contracts/contracts/lib/SignatureVerification.sol\":1532:1583  if (signer != claimedSigner) revert InvalidSigner() */\n      tag_243\n      jumpi\n        /* \"contracts/contracts/lib/SignatureVerification.sol\":700:1809  function verify(bytes calldata signature, bytes32 hash, address claimedSigner) internal view {... */\n      jump\t// out\n        /* \"contracts/contracts/lib/SignatureVerification.sol\":1532:1583  if (signer != claimedSigner) revert InvalidSigner() */\n    tag_243:\n        /* \"contracts/contracts/permit2/SignatureTransfer.sol\":480:6536  contract SignatureTransfer is ISignatureTransfer, EIP712 {... */\n      mload(0x40)\n      shl(0xe2, 0x20578759)\n        /* \"contracts/contracts/lib/SignatureVerification.sol\":1568:1583  InvalidSigner() */\n      dup2\n      mstore\n      0x04\n      swap1\n      revert\n        /* \"contracts/contracts/lib/SignatureVerification.sol\":1467:1518  if (signer == address(0)) revert InvalidSignature() */\n    tag_241:\n        /* \"contracts/contracts/permit2/SignatureTransfer.sol\":480:6536  contract SignatureTransfer is ISignatureTransfer, EIP712 {... */\n      mload(0x40)\n      shl(0xe0, 0x8baa579f)\n        /* \"contracts/contracts/lib/SignatureVerification.sol\":1500:1518  InvalidSignature() */\n      dup2\n      mstore\n      0x04\n      swap1\n      revert\n        /* \"contracts/contracts/lib/SignatureVerification.sol\":1429:1453  ecrecover(hash, v, r, s) */\n    tag_239:\n        /* \"contracts/contracts/permit2/SignatureTransfer.sol\":480:6536  contract SignatureTransfer is ISignatureTransfer, EIP712 {... */\n      mload(0x40)\n      returndatasize\n      0x00\n      dup3\n      returndatacopy\n      returndatasize\n      swap1\n      revert\n        /* \"contracts/contracts/lib/SignatureVerification.sol\":625:693  (0x7fffffffffffffffffffffffffffffffffffffffffffffffffffffffffffffff) */\n    tag_236:\n        /* \"contracts/contracts/permit2/SignatureTransfer.sol\":480:6536  contract SignatureTransfer is ISignatureTransfer, EIP712 {... */\n      shl(0xe0, 0x4e487b71)\n      0x00\n        /* \"contracts/contracts/lib/SignatureVerification.sol\":625:693  (0x7fffffffffffffffffffffffffffffffffffffffffffffffffffffffffffffff) */\n      mstore\n      mstore(0x04, 0x32)\n      revert(0x00, 0x24)\n        /* \"contracts/contracts/lib/SignatureVerification.sol\":909:1399  if (signature.length == 65) {... */\n    tag_233:\n        /* \"contracts/contracts/lib/SignatureVerification.sol\":1092:1094  64 */\n      0x40\n        /* \"contracts/contracts/lib/SignatureVerification.sol\":1072:1094  signature.length == 64 */\n      dup3\n      sub\n        /* \"contracts/contracts/lib/SignatureVerification.sol\":1092:1094  64 */\n      tag_246\n      jumpi\n        /* \"contracts/contracts/lib/SignatureVerification.sol\":1180:1221  abi.decode(signature, (bytes32, bytes32)) */\n      tag_248\n      swap2\n      dup2\n      add\n      swap1\n      tag_18\n      jump\t// in\n    tag_248:\n      sub(shl(0xff, 0x01), 0x01)\n        /* \"contracts/contracts/lib/SignatureVerification.sol\":1243:1262  vs & UPPER_BIT_MASK */\n      dup2\n      and\n      swap3\n        /* \"contracts/contracts/lib/SignatureVerification.sol\":626:692  0x7fffffffffffffffffffffffffffffffffffffffffffffffffffffffffffffff */\n      0xff\n        /* \"contracts/contracts/permit2/SignatureTransfer.sol\":480:6536  contract SignatureTransfer is ISignatureTransfer, EIP712 {... */\n      swap2\n      dup3\n      shr\n        /* \"contracts/contracts/lib/SignatureVerification.sol\":1312:1314  27 */\n      0x1b\n        /* \"contracts/contracts/lib/SignatureVerification.sol\":625:693  (0x7fffffffffffffffffffffffffffffffffffffffffffffffffffffffffffffff) */\n      add\n      swap2\n      dup3\n      gt\n      tag_249\n      jumpi\n      0x20\n        /* \"contracts/contracts/lib/SignatureVerification.sol\":1280:1314  v = uint8(uint256(vs >> 255)) + 27 */\n      swap4\n      0x00\n      swap4\n        /* \"contracts/contracts/lib/SignatureVerification.sol\":625:693  (0x7fffffffffffffffffffffffffffffffffffffffffffffffffffffffffffffff) */\n      0xff\n      0x80\n        /* \"contracts/contracts/lib/SignatureVerification.sol\":1280:1314  v = uint8(uint256(vs >> 255)) + 27 */\n      swap5\n        /* \"contracts/contracts/lib/SignatureVerification.sol\":909:1399  if (signature.length == 65) {... */\n      jump(tag_238)\n        /* \"contracts/contracts/lib/SignatureVerification.sol\":625:693  (0x7fffffffffffffffffffffffffffffffffffffffffffffffffffffffffffffff) */\n    tag_249:\n        /* \"contracts/contracts/permit2/SignatureTransfer.sol\":480:6536  contract SignatureTransfer is ISignatureTransfer, EIP712 {... */\n      shl(0xe0, 0x4e487b71)\n      0x00\n        /* \"contracts/contracts/lib/SignatureVerification.sol\":625:693  (0x7fffffffffffffffffffffffffffffffffffffffffffffffffffffffffffffff) */\n      mstore\n      mstore(0x04, 0x11)\n      revert(0x00, 0x24)\n        /* \"contracts/contracts/lib/SignatureVerification.sol\":1068:1399  if (signature.length == 64) {... */\n    tag_246:\n        /* \"contracts/contracts/lib/SignatureVerification.sol\":1092:1094  64 */\n      0x40\n        /* \"contracts/contracts/permit2/SignatureTransfer.sol\":480:6536  contract SignatureTransfer is ISignatureTransfer, EIP712 {... */\n      mload\n      shl(0xe0, 0x4be6321b)\n        /* \"contracts/contracts/lib/SignatureVerification.sol\":1360:1384  InvalidSignatureLength() */\n      dup2\n      mstore\n      0x04\n      swap1\n      revert\n        /* \"contracts/contracts/lib/SignatureVerification.sol\":859:1803  if (claimedSigner.code.length == 0) {... */\n    tag_231:\n        /* \"contracts/contracts/permit2/SignatureTransfer.sol\":480:6536  contract SignatureTransfer is ISignatureTransfer, EIP712 {... */\n      swap2\n      dup1\n      swap4\n      swap5\n        /* \"contracts/contracts/lib/SignatureVerification.sol\":1634:1691  IERC1271(claimedSigner).isValidSignature(hash, signature) */\n      0x20\n        /* \"contracts/contracts/permit2/SignatureTransfer.sol\":480:6536  contract SignatureTransfer is ISignatureTransfer, EIP712 {... */\n      swap3\n      0x64\n      mload(0x40)\n      dup1\n      swap8\n      dup2\n      swap6\n      dup3\n      swap5\n      shl(0xe1, 0x0b135d3f)\n        /* \"contracts/contracts/lib/SignatureVerification.sol\":1634:1691  IERC1271(claimedSigner).isValidSignature(hash, signature) */\n      swap12\n      dup13\n      dup6\n      mstore\n      0x04\n      dup6\n      add\n        /* \"contracts/contracts/permit2/SignatureTransfer.sol\":480:6536  contract SignatureTransfer is ISignatureTransfer, EIP712 {... */\n      mstore\n      0x40\n      0x24\n      dup6\n      add\n      mstore\n      dup2\n      0x44\n      dup6\n      add\n      mstore\n      dup5\n      dup5\n      add\n        /* \"contracts/contracts/lib/PermitHash.sol\":1621:1723  \"PermitWitnessTransferFrom(TokenPermissions permitted,address spender,uint256 nonce,uint256 deadline,\" */\n      calldatacopy\n      dup2\n      dup2\n      add\n      dup4\n      add\n      dup9\n      swap1\n      mstore\n        /* \"contracts/contracts/lib/PermitHash.sol\":4133:4213  abi.encodePacked(_PERMIT_TRANSFER_FROM_WITNESS_TYPEHASH_STUB, witnessTypeString) */\n      0x1f\n        /* \"contracts/contracts/permit2/SignatureTransfer.sol\":480:6536  contract SignatureTransfer is ISignatureTransfer, EIP712 {... */\n      add\n      not(0x1f)\n      and\n      dup2\n      add\n        /* \"contracts/contracts/lib/SignatureVerification.sol\":1634:1691  IERC1271(claimedSigner).isValidSignature(hash, signature) */\n      sub\n      add\n      swap2\n      sub(shl(0xa0, 0x01), 0x01)\n        /* \"contracts/contracts/permit2/SignatureTransfer.sol\":480:6536  contract SignatureTransfer is ISignatureTransfer, EIP712 {... */\n      and\n        /* \"contracts/contracts/lib/SignatureVerification.sol\":1634:1691  IERC1271(claimedSigner).isValidSignature(hash, signature) */\n      gas\n      staticcall\n      swap2\n      dup3\n      iszero\n      tag_251\n      jumpi\n      dup2\n      swap3\n      tag_253\n      jumpi\n        /* \"contracts/contracts/lib/SignatureVerification.sol\":859:1803  if (claimedSigner.code.length == 0) {... */\n    tag_254:\n      pop\n      pop\n      not(sub(shl(0xe0, 0x01), 0x01))\n        /* \"contracts/contracts/permit2/SignatureTransfer.sol\":480:6536  contract SignatureTransfer is ISignatureTransfer, EIP712 {... */\n      and\n        /* \"contracts/contracts/lib/SignatureVerification.sol\":1709:1757  magicValue != IERC1271.isValidSignature.selector */\n      sub\n        /* \"contracts/contracts/lib/SignatureVerification.sol\":1705:1792  if (magicValue != IERC1271.isValidSignature.selector) revert InvalidContractSignature() */\n      tag_255\n      jumpi\n        /* \"contracts/contracts/lib/SignatureVerification.sol\":700:1809  function verify(bytes calldata signature, bytes32 hash, address claimedSigner) internal view {... */\n      jump\t// out\n        /* \"contracts/contracts/lib/SignatureVerification.sol\":1705:1792  if (magicValue != IERC1271.isValidSignature.selector) revert InvalidContractSignature() */\n    tag_255:\n        /* \"contracts/contracts/permit2/SignatureTransfer.sol\":480:6536  contract SignatureTransfer is ISignatureTransfer, EIP712 {... */\n      mload(0x40)\n      shl(0xe2, 0x2c19a72f)\n        /* \"contracts/contracts/lib/SignatureVerification.sol\":1766:1792  InvalidContractSignature() */\n      dup2\n      mstore\n        /* \"contracts/contracts/lib/SignatureVerification.sol\":1634:1691  IERC1271(claimedSigner).isValidSignature(hash, signature) */\n      0x04\n      swap1\n        /* \"contracts/contracts/lib/SignatureVerification.sol\":1766:1792  InvalidContractSignature() */\n      revert\n        /* \"contracts/contracts/lib/SignatureVerification.sol\":1634:1691  IERC1271(claimedSigner).isValidSignature(hash, signature) */\n    tag_253:\n      swap1\n      swap2\n      pop\n      0x20\n      dup2\n      returndatasize\n      dup3\n      gt\n      tag_257\n      jumpi\n    tag_258:\n      dup2\n      tag_259\n      0x20\n      swap4\n      dup4\n      tag_5\n      jump\t// in\n    tag_259:\n      dup2\n      add\n        /* \"contracts/contracts/permit2/SignatureTransfer.sol\":480:6536  contract SignatureTransfer is ISignatureTransfer, EIP712 {... */\n      sub\n      slt\n      tag_47\n      jumpi\n      mload\n      swap1\n      not(sub(shl(0xe0, 0x01), 0x01))\n      dup3\n      and\n      dup3\n      sub\n      tag_262\n      jumpi\n        /* \"contracts/contracts/lib/SignatureVerification.sol\":1634:1691  IERC1271(claimedSigner).isValidSignature(hash, signature) */\n      pop\n      0x00\n      dup1\n      jump(tag_254)\n        /* \"contracts/contracts/permit2/SignatureTransfer.sol\":480:6536  contract SignatureTransfer is ISignatureTransfer, EIP712 {... */\n    tag_262:\n      dup1\n      revert\n        /* \"contracts/contracts/lib/SignatureVerification.sol\":1634:1691  IERC1271(claimedSigner).isValidSignature(hash, signature) */\n    tag_257:\n      returndatasize\n      swap2\n      pop\n      jump(tag_258)\n    tag_251:\n        /* \"contracts/contracts/permit2/SignatureTransfer.sol\":480:6536  contract SignatureTransfer is ISignatureTransfer, EIP712 {... */\n      pop\n      mload(0x40)\n      swap1\n      returndatasize\n      swap1\n      dup3\n      returndatacopy\n      returndatasize\n      swap1\n      revert\n        /* \"contracts/contracts/permit2/EIP712.sol\":1757:1924  function _hashTypedData(bytes32 dataHash) internal view returns (bytes32) {... */\n    tag_20:\n        /* \"contracts/contracts/permit2/EIP712.sol\":1887:1905  DOMAIN_SEPARATOR() */\n      tag_264\n      tag_13\n      jump\t// in\n    tag_264:\n        /* \"contracts/contracts/permit2/SignatureTransfer.sol\":480:6536  contract SignatureTransfer is ISignatureTransfer, EIP712 {... */\n      swap1\n      mload(0x40)\n        /* \"contracts/contracts/permit2/EIP712.sol\":1858:1916  abi.encodePacked(\"\\x19\\x01\", DOMAIN_SEPARATOR(), dataHash) */\n      swap1\n      0x20\n      dup3\n      add\n        /* \"contracts/contracts/permit2/SignatureTransfer.sol\":480:6536  contract SignatureTransfer is ISignatureTransfer, EIP712 {... */\n      swap3\n      shl(0xf0, 0x1901)\n      dup5\n      mstore\n      0x22\n      dup4\n      add\n      mstore\n      0x42\n      dup3\n      add\n      mstore\n      0x42\n        /* \"contracts/contracts/permit2/EIP712.sol\":1858:1916  abi.encodePacked(\"\\x19\\x01\", DOMAIN_SEPARATOR(), dataHash) */\n      dup2\n      mstore\n      tag_214\n      dup2\n      tag_3\n      jump\t// in\n        /* \"contracts/contracts/permit2/SignatureTransfer.sol\":480:6536  contract SignatureTransfer is ISignatureTransfer, EIP712 {... */\n    tag_21:\n      swap1\n      tag_266\n      dup3\n      tag_10\n      jump\t// in\n    tag_266:\n      tag_267\n      mload(0x40)\n      swap2\n      dup3\n      tag_5\n      jump\t// in\n    tag_267:\n      dup3\n      dup2\n      mstore\n      dup1\n        /* \"contracts/contracts/lib/PermitHash.sol\":4133:4213  abi.encodePacked(_PERMIT_TRANSFER_FROM_WITNESS_TYPEHASH_STUB, witnessTypeString) */\n      swap3\n        /* \"contracts/contracts/permit2/SignatureTransfer.sol\":480:6536  contract SignatureTransfer is ISignatureTransfer, EIP712 {... */\n      tag_268\n        /* \"contracts/contracts/lib/PermitHash.sol\":4133:4213  abi.encodePacked(_PERMIT_TRANSFER_FROM_WITNESS_TYPEHASH_STUB, witnessTypeString) */\n      not(0x1f)\n        /* \"contracts/contracts/permit2/SignatureTransfer.sol\":480:6536  contract SignatureTransfer is ISignatureTransfer, EIP712 {... */\n      swap2\n      tag_10\n      jump\t// in\n    tag_268:\n      add\n      swap1\n      0x20\n      calldatasize\n      swap2\n      add\n      calldatacopy\n      jump\t// out\n    tag_22:\n      not(0x00)\n      dup2\n      eq\n      tag_249\n      jumpi\n      0x01\n      add\n      swap1\n      jump\t// out\n    tag_23:\n      dup1\n      mload\n      dup3\n      lt\n      iszero\n      tag_236\n      jumpi\n      0x20\n      swap2\n      0x05\n      shl\n      add\n      add\n      swap1\n      jump\t// out\n        /* \"contracts/contracts/lib/PermitHash.sol\":1254:1427  keccak256(... */\n    tag_24:\n        /* \"contracts/contracts/permit2/SignatureTransfer.sol\":480:6536  contract SignatureTransfer is ISignatureTransfer, EIP712 {... */\n      dup1\n      mload\n      0x20\n      dup1\n      swap3\n      add\n        /* \"contracts/contracts/lib/PermitHash.sol\":1254:1427  keccak256(... */\n      swap2\n      0x00\n    tag_273:\n      dup3\n      dup2\n      lt\n      tag_274\n      jumpi\n      pop\n      pop\n      pop\n      pop\n      swap1\n      jump\t// out\n    tag_274:\n      dup4\n      mload\n        /* \"contracts/contracts/permit2/SignatureTransfer.sol\":480:6536  contract SignatureTransfer is ISignatureTransfer, EIP712 {... */\n      dup6\n      mstore\n        /* \"contracts/contracts/lib/PermitHash.sol\":1254:1427  keccak256(... */\n      swap4\n      dup2\n      add\n      swap4\n      swap3\n      dup2\n      add\n      swap3\n      0x01\n      add\n      jump(tag_273)\n        /* \"contracts/contracts/permit2/SignatureTransfer.sol\":480:6536  contract SignatureTransfer is ISignatureTransfer, EIP712 {... */\n    tag_25:\n      swap2\n      swap1\n      dup2\n      lt\n      iszero\n      tag_236\n      jumpi\n      0x06\n      shl\n      add\n      swap1\n      jump\t// out\n        /* \"contracts/contracts/permit2/SignatureTransfer.sol\":3928:5122  function _permitTransferFrom(... */\n    tag_26:\n      swap1\n      swap2\n      swap6\n      swap4\n      swap6\n        /* \"contracts/contracts/permit2/SignatureTransfer.sol\":4195:4211  permit.permitted */\n      dup2\n      mload\n        /* \"contracts/contracts/permit2/SignatureTransfer.sol\":480:6536  contract SignatureTransfer is ISignatureTransfer, EIP712 {... */\n      mload\n        /* \"contracts/contracts/permit2/SignatureTransfer.sol\":4251:4266  permit.deadline */\n      swap6\n      0x40\n      swap6\n      dup7\n      dup5\n      add\n        /* \"contracts/contracts/lib/PermitHash.sol\":1018:1184  keccak256(... */\n      mload\n        /* \"contracts/contracts/permit2/SignatureTransfer.sol\":4233:4248  block.timestamp */\n      dup1\n      timestamp\n        /* \"contracts/contracts/permit2/SignatureTransfer.sol\":4233:4266  block.timestamp > permit.deadline */\n      gt\n        /* \"contracts/contracts/permit2/SignatureTransfer.sol\":4229:4308  if (block.timestamp > permit.deadline) revert SignatureExpired(permit.deadline) */\n      tag_278\n      jumpi\n        /* \"contracts/contracts/permit2/SignatureTransfer.sol\":4322:4360  numPermitted != transferDetails.length */\n      pop\n      dup3\n      dup9\n      sub\n        /* \"contracts/contracts/permit2/SignatureTransfer.sol\":4318:4385  if (numPermitted != transferDetails.length) revert LengthMismatch() */\n      tag_280\n      jumpi\n        /* \"contracts/contracts/permit2/SignatureTransfer.sol\":4488:4493  owner */\n      tag_282\n        /* \"contracts/contracts/permit2/SignatureTransfer.sol\":4422:4434  permit.nonce */\n      swap2\n      dup7\n      swap2\n        /* \"contracts/contracts/permit2/SignatureTransfer.sol\":4462:4486  _hashTypedData(dataHash) */\n      tag_223\n        /* \"contracts/contracts/permit2/SignatureTransfer.sol\":4422:4434  permit.nonce */\n      0x20\n      swap12\n      tag_225\n      dup14\n      dup10\n      add\n        /* \"contracts/contracts/lib/PermitHash.sol\":1018:1184  keccak256(... */\n      mload\n        /* \"contracts/contracts/permit2/SignatureTransfer.sol\":4422:4434  permit.nonce */\n      dup7\n      tag_27\n      jump\t// in\n        /* \"contracts/contracts/permit2/SignatureTransfer.sol\":4488:4493  owner */\n    tag_282:\n      0x00\n        /* \"contracts/contracts/permit2/SignatureTransfer.sol\":4534:4547  uint256 i = 0 */\n      swap2\n      dup3\n        /* \"contracts/contracts/permit2/SignatureTransfer.sol\":4549:4565  i < numPermitted */\n    tag_285:\n      dup8\n      dup2\n      lt\n      tag_286\n      jumpi\n        /* \"contracts/contracts/permit2/SignatureTransfer.sol\":3928:5122  function _permitTransferFrom(... */\n      pop\n      pop\n      pop\n      pop\n      pop\n      pop\n      pop\n      pop\n      pop\n      jump\t// out\n        /* \"contracts/contracts/permit2/SignatureTransfer.sol\":4567:4570  ++i */\n    tag_286:\n        /* \"contracts/contracts/permit2/SignatureTransfer.sol\":4626:4645  permit.permitted[i] */\n      tag_288\n        /* \"contracts/contracts/permit2/SignatureTransfer.sol\":4626:4642  permit.permitted */\n      dup2\n      dup4\n      mload\n        /* \"contracts/contracts/permit2/SignatureTransfer.sol\":4626:4645  permit.permitted[i] */\n      tag_23\n      jump\t// in\n    tag_288:\n      mload\n        /* \"contracts/contracts/permit2/SignatureTransfer.sol\":4689:4707  transferDetails[i] */\n      dup10\n      tag_289\n      dup4\n      dup7\n      dup10\n      tag_25\n      jump\t// in\n    tag_289:\n        /* \"contracts/contracts/permit2/SignatureTransfer.sol\":4689:4723  transferDetails[i].requestedAmount */\n      add\n        /* \"contracts/contracts/permit2/SignatureTransfer.sol\":480:6536  contract SignatureTransfer is ISignatureTransfer, EIP712 {... */\n      calldataload\n        /* \"contracts/contracts/permit2/SignatureTransfer.sol\":4764:4780  permitted.amount */\n      swap1\n      dup11\n      dup2\n      add\n        /* \"contracts/contracts/lib/PermitHash.sol\":1018:1184  keccak256(... */\n      mload\n        /* \"contracts/contracts/permit2/SignatureTransfer.sol\":4746:4780  requestedAmount > permitted.amount */\n      dup1\n      dup4\n      gt\n        /* \"contracts/contracts/permit2/SignatureTransfer.sol\":4742:4820  if (requestedAmount > permitted.amount) revert InvalidAmount(permitted.amount) */\n      tag_290\n      jumpi\n        /* \"contracts/contracts/permit2/SignatureTransfer.sol\":4843:4863  requestedAmount != 0 */\n      pop\n      dup2\n        /* \"contracts/contracts/permit2/SignatureTransfer.sol\":4839:5092  if (requestedAmount != 0) {... */\n      tag_292\n      jumpi\n        /* \"contracts/contracts/permit2/SignatureTransfer.sol\":4567:4570  ++i */\n    tag_293:\n      pop\n      pop\n        /* \"contracts/contracts/permit2/SignatureTransfer.sol\":480:6536  contract SignatureTransfer is ISignatureTransfer, EIP712 {... */\n      0x01\n      add\n        /* \"contracts/contracts/permit2/SignatureTransfer.sol\":4534:4547  uint256 i = 0 */\n      jump(tag_285)\n        /* \"contracts/contracts/permit2/SignatureTransfer.sol\":4839:5092  if (requestedAmount != 0) {... */\n    tag_292:\n        /* \"contracts/contracts/permit2/SignatureTransfer.sol\":480:6536  contract SignatureTransfer is ISignatureTransfer, EIP712 {... */\n      mload\n      sub(shl(0xa0, 0x01), 0x01)\n      swap1\n      dup2\n      and\n        /* \"contracts/contracts/permit2/SignatureTransfer.sol\":5034:5052  transferDetails[i] */\n      tag_294\n      dup5\n      dup8\n      dup11\n      tag_25\n      jump\t// in\n    tag_294:\n        /* \"contracts/contracts/permit2/SignatureTransfer.sol\":480:6536  contract SignatureTransfer is ISignatureTransfer, EIP712 {... */\n      calldataload\n      swap2\n      dup3\n      and\n      dup3\n      sub\n      tag_89\n      jumpi\n        /* \"contracts/contracts/permit2/SignatureTransfer.sol\":5057:5072  requestedAmount */\n      swap2\n      tag_297\n      swap2\n      dup10\n        /* \"contracts/contracts/permit2/SignatureTransfer.sol\":480:6536  contract SignatureTransfer is ISignatureTransfer, EIP712 {... */\n      0x01\n        /* \"contracts/contracts/permit2/SignatureTransfer.sol\":5057:5072  requestedAmount */\n      swap6\n      swap5\n      tag_28\n      jump\t// in\n    tag_297:\n        /* \"contracts/contracts/permit2/SignatureTransfer.sol\":4839:5092  if (requestedAmount != 0) {... */\n      swap1\n      0x00\n      jump(tag_293)\n        /* \"contracts/contracts/permit2/SignatureTransfer.sol\":4742:4820  if (requestedAmount > permitted.amount) revert InvalidAmount(permitted.amount) */\n    tag_290:\n        /* \"contracts/contracts/permit2/SignatureTransfer.sol\":480:6536  contract SignatureTransfer is ISignatureTransfer, EIP712 {... */\n      0x24\n      swap1\n      dup11\n      mload\n        /* \"contracts/contracts/permit2/SignatureTransfer.sol\":2514:2552  InvalidAmount(permit.permitted.amount) */\n      swap1\n      shl(0xe0, 0x3728b83d)\n        /* \"contracts/contracts/permit2/SignatureTransfer.sol\":4789:4820  InvalidAmount(permitted.amount) */\n      dup3\n      mstore\n      0x04\n      dup3\n      add\n        /* \"contracts/contracts/permit2/SignatureTransfer.sol\":480:6536  contract SignatureTransfer is ISignatureTransfer, EIP712 {... */\n      mstore\n        /* \"contracts/contracts/permit2/SignatureTransfer.sol\":4789:4820  InvalidAmount(permitted.amount) */\n      revert\n        /* \"contracts/contracts/permit2/SignatureTransfer.sol\":4318:4385  if (numPermitted != transferDetails.length) revert LengthMismatch() */\n    tag_280:\n        /* \"contracts/contracts/permit2/SignatureTransfer.sol\":480:6536  contract SignatureTransfer is ISignatureTransfer, EIP712 {... */\n      dup7\n      mload\n      not(sub(shl(0xe3, 0x1398b9), 0x01))\n        /* \"contracts/contracts/permit2/SignatureTransfer.sol\":4369:4385  LengthMismatch() */\n      dup2\n      mstore\n      0x04\n      swap1\n      revert\n        /* \"contracts/contracts/permit2/SignatureTransfer.sol\":4229:4308  if (block.timestamp > permit.deadline) revert SignatureExpired(permit.deadline) */\n    tag_278:\n        /* \"contracts/contracts/permit2/SignatureTransfer.sol\":480:6536  contract SignatureTransfer is ISignatureTransfer, EIP712 {... */\n      0x24\n      swap1\n      dup9\n      mload\n        /* \"contracts/contracts/permit2/SignatureTransfer.sol\":2417:2450  SignatureExpired(permit.deadline) */\n      swap1\n      shl(0xe0, 0xcd21db4f)\n        /* \"contracts/contracts/permit2/SignatureTransfer.sol\":4275:4308  SignatureExpired(permit.deadline) */\n      dup3\n      mstore\n      0x04\n      dup3\n      add\n        /* \"contracts/contracts/permit2/SignatureTransfer.sol\":480:6536  contract SignatureTransfer is ISignatureTransfer, EIP712 {... */\n      mstore\n        /* \"contracts/contracts/permit2/SignatureTransfer.sol\":4275:4308  SignatureExpired(permit.deadline) */\n      revert\n        /* \"contracts/contracts/permit2/SignatureTransfer.sol\":6241:6534  function _useUnorderedNonce(address from, uint256 nonce) internal {... */\n    tag_27:\n      swap1\n        /* \"contracts/contracts/permit2/SignatureTransfer.sol\":6399:6400  1 */\n      0x01\n        /* \"contracts/contracts/lib/SignatureVerification.sol\":625:693  (0x7fffffffffffffffffffffffffffffffffffffffffffffffffffffffffffffff) */\n      0xff\n      dup3\n      and\n        /* \"contracts/contracts/permit2/SignatureTransfer.sol\":480:6536  contract SignatureTransfer is ISignatureTransfer, EIP712 {... */\n      shl\n      swap2\n      0x01\n      dup1\n      0xa0\n      shl\n      sub\n      and\n      0x00\n      mstore\n      mstore(0x20, 0x00)\n      keccak256(0x00, 0x40)\n      swap1\n        /* \"contracts/contracts/permit2/SignatureTransfer.sol\":5983:5984  8 */\n      0x08\n        /* \"contracts/contracts/permit2/SignatureTransfer.sol\":480:6536  contract SignatureTransfer is ISignatureTransfer, EIP712 {... */\n      shr\n      0x00\n      mstore\n      0x20\n      mstore\n      keccak256(0x00, 0x40)\n      dup2\n      dup2\n      sload\n        /* \"contracts/contracts/permit2/SignatureTransfer.sol\":6438:6471  nonceBitmap[from][wordPos] ^= bit */\n      xor\n        /* \"contracts/contracts/permit2/SignatureTransfer.sol\":480:6536  contract SignatureTransfer is ISignatureTransfer, EIP712 {... */\n      dup1\n      swap2\n      sstore\n        /* \"contracts/contracts/permit2/SignatureTransfer.sol\":6486:6499  flipped & bit */\n      and\n        /* \"contracts/contracts/permit2/SignatureTransfer.sol\":6486:6504  flipped & bit == 0 */\n      iszero\n        /* \"contracts/contracts/permit2/SignatureTransfer.sol\":6482:6527  if (flipped & bit == 0) revert InvalidNonce() */\n      tag_298\n      jumpi\n        /* \"contracts/contracts/permit2/SignatureTransfer.sol\":6241:6534  function _useUnorderedNonce(address from, uint256 nonce) internal {... */\n      jump\t// out\n        /* \"contracts/contracts/permit2/SignatureTransfer.sol\":6482:6527  if (flipped & bit == 0) revert InvalidNonce() */\n    tag_298:\n        /* \"contracts/contracts/permit2/SignatureTransfer.sol\":480:6536  contract SignatureTransfer is ISignatureTransfer, EIP712 {... */\n      mload(0x40)\n      shl(0xe1, 0x3ab3447f)\n        /* \"contracts/contracts/permit2/SignatureTransfer.sol\":6513:6527  InvalidNonce() */\n      dup2\n      mstore\n      0x04\n      swap1\n      revert\n        /* \"solmate/src/utils/SafeTransferLib.sol\":1328:3110  function safeTransferFrom(... */\n    tag_28:\n      swap2\n      0x00\n      dup1\n      swap4\n        /* \"solmate/src/utils/SafeTransferLib.sol\":1532:3053  assembly {... */\n      0x20\n        /* \"solmate/src/utils/SafeTransferLib.sol\":1328:3110  function safeTransferFrom(... */\n      swap6\n        /* \"solmate/src/utils/SafeTransferLib.sol\":1532:3053  assembly {... */\n      0x64\n        /* \"solmate/src/utils/SafeTransferLib.sol\":1328:3110  function safeTransferFrom(... */\n      swap5\n        /* \"solmate/src/utils/SafeTransferLib.sol\":1532:3053  assembly {... */\n      mload(0x40)\n      swap5\n      shl(0xe0, 0x23b872dd)\n      dup7\n      mstore\n        /* \"contracts/contracts/permit2/SignatureTransfer.sol\":480:6536  contract SignatureTransfer is ISignatureTransfer, EIP712 {... */\n      0x01\n      dup1\n      0xa0\n      shl\n      sub\n        /* \"solmate/src/utils/SafeTransferLib.sol\":1532:3053  assembly {... */\n      dup1\n      swap3\n      and\n      0x04\n      dup8\n      add\n      mstore\n      and\n      0x24\n      dup6\n      add\n      mstore\n      0x44\n      dup5\n      add\n      mstore\n      gas\n      call\n      iszero(returndatasize)\n      gt(returndatasize, 0x1f)\n        /* \"contracts/contracts/permit2/SignatureTransfer.sol\":480:6536  contract SignatureTransfer is ISignatureTransfer, EIP712 {... */\n      0x01\n      0x00\n        /* \"solmate/src/utils/SafeTransferLib.sol\":1532:3053  assembly {... */\n      mload\n      eq\n      and\n      or\n      and\n        /* \"contracts/contracts/permit2/SignatureTransfer.sol\":480:6536  contract SignatureTransfer is ISignatureTransfer, EIP712 {... */\n      iszero\n      tag_300\n      jumpi\n        /* \"solmate/src/utils/SafeTransferLib.sol\":1328:3110  function safeTransferFrom(... */\n      jump\t// out\n        /* \"contracts/contracts/permit2/SignatureTransfer.sol\":480:6536  contract SignatureTransfer is ISignatureTransfer, EIP712 {... */\n    tag_300:\n        /* \"solmate/src/utils/SafeTransferLib.sol\":1532:3053  assembly {... */\n      0x40\n        /* \"contracts/contracts/permit2/SignatureTransfer.sol\":480:6536  contract SignatureTransfer is ISignatureTransfer, EIP712 {... */\n      mload\n      shl(0xe5, 0x461bcd)\n      dup2\n      mstore\n        /* \"solmate/src/utils/SafeTransferLib.sol\":1532:3053  assembly {... */\n      0x20\n      0x04\n        /* \"contracts/contracts/permit2/SignatureTransfer.sol\":480:6536  contract SignatureTransfer is ISignatureTransfer, EIP712 {... */\n      dup3\n      add\n      mstore\n      0x14\n        /* \"solmate/src/utils/SafeTransferLib.sol\":1532:3053  assembly {... */\n      0x24\n        /* \"contracts/contracts/permit2/SignatureTransfer.sol\":480:6536  contract SignatureTransfer is ISignatureTransfer, EIP712 {... */\n      dup3\n      add\n      mstore\n      shl(0x62, 0x1514905394d1915497d19493d357d19052531151)\n        /* \"solmate/src/utils/SafeTransferLib.sol\":1532:3053  assembly {... */\n      0x44\n        /* \"contracts/contracts/permit2/SignatureTransfer.sol\":480:6536  contract SignatureTransfer is ISignatureTransfer, EIP712 {... */\n      dup3\n      add\n      mstore\n        /* \"solmate/src/utils/SafeTransferLib.sol\":1532:3053  assembly {... */\n      0x64\n      swap1\n        /* \"contracts/contracts/permit2/SignatureTransfer.sol\":480:6536  contract SignatureTransfer is ISignatureTransfer, EIP712 {... */\n      revert\n\n    auxdata: 0xa26469706673582212203c986912fc5f1701695e440eafbce4a50d173ee5dc6f44e22b42b3f7bf95228664736f6c63430008140033\n}\n",
				"bytecode": {
					"linkReferences": {},
					"object": "60c0346100b9574660a052602081017f8cad95687ba82c2ce50e74f7b754645e5117c3a5bec8151c0726d5857980a86681527f9ac997416e8ff9d2ff6bebeb7149f65cdae5e32e2b90440b566bb3044041d36a60408301524660608301523060808301526080825260a082019180831060018060401b038411176100a5578260405251902060805261101d90816100be8239608051816109a7015260a051816109810152f35b634e487b7160e01b5f52604160045260245ffd5b5f80fdfe60406080815260049081361015610014575f80fd5b5f90813560e01c8063137c29fe1461054a57806330f28b7a146104875780633644e515146104645780633ff9dcb1146104025780634fe02b44146103bc578063edd9444b146102905763fe8ec1a71461006b575f80fd5b3461028c5760c036600319011261028c576001600160401b0383358181116102885761009a903690860161084d565b602435828111610284576100b1903690870161094e565b6100b9610788565b91608435858111610280576100d19036908a01610809565b98909560a43590811161027c576100ea91369101610809565b9690958151906100f9826106fc565b606b82527f5065726d697442617463685769746e6573735472616e7366657246726f6d285460208301527f6f6b656e5065726d697373696f6e735b5d207065726d69747465642c61646472838301527f657373207370656e6465722c75696e74323536206e6f6e63652c75696e74323560608301526a0d88191958591b1a5b994b60aa1b608083015282519a8b9181610196602085018096610a88565b918237018a815203996101b1601f199b8c810183528261074d565b519020908551516101c181610d8b565b908a5b81811061024f57505061024c999a6102439183516101f6816101ea602082018095610ddf565b0384810183528261074d565b519020602089810151858b015195519182019687526040820192909252336060820152608081019190915260a081019390935260643560c08401528260e081015b0390810183528261074d565b51902093610e1b565b80f35b80610267610261610277938c51610dcb565b51610a39565b6102718286610dcb565b52610dbd565b6101c4565b8880fd5b8780fd5b8480fd5b8380fd5b5080fd5b50913461028c57608036600319011261028c576001600160401b03908035828111610288576102c2903690830161084d565b602435838111610284576102d9903690840161094e565b9390926102e4610788565b916064359081116103b8576102fb91369101610809565b9490938351519761030b89610d8b565b98885b81811061039657505061024c9798815161033e81610330602082018095610ddf565b03601f19810183528261074d565b5190206020860151828701519083519260208401947ffcf35f5ac6a2c28868dc44c302166470266239195f02b0ee408334829333b7668652840152336060840152608083015260a082015260a0815261024381610732565b808b610271826103ad6102616103b3968d51610dcb565b92610dcb565b61030e565b8680fd5b5082346103fe57816003193601126103fe57356001600160a01b038116908190036103fe57828291602094528084528181206024358252845220549051908152f35b8280fd5b5082346103fe57816003193601126103fe577f3704902f963766a4e561bbaab6e6cdc1b1dd12f6e9e99648da8843b3f46b918d90359160243533855284602052818520848652602052818520818154179055815193845260208401523392a280f35b503461028c578160031936011261028c5760209061048061097e565b9051908152f35b508290346103fe576101003660031901126103fe576104a53661079e565b9080608319360112610288576104b961076e565b9160e4356001600160401b0381116105465761024c946104db91369101610809565b9390926104e88351610a39565b6020840151828501519083519260208401947f939c21a48a8dbe3a9a2404a1d46691e4d39f6583d6ec6b35714604c986d801068652840152336060840152608083015260a082015260a0815261053d81610732565b51902091610ab1565b8580fd5b5082346103fe576101403660031901126103fe576105673661079e565b91806083193601126102885761057b61076e565b6001600160401b039390610104358581116103b85761059d9036908601610809565b909361012435968711610280576105bd61053d9661024c98369101610809565b9690958251906105cc826106fc565b606482527f5065726d69745769746e6573735472616e7366657246726f6d28546f6b656e5060208301527f65726d697373696f6e73207065726d69747465642c6164647265737320737065848301527f6e6465722c75696e74323536206e6f6e63652c75696e7432353620646561646c6060830152631a5b994b60e21b6080830152835194859181610662602085018096610a88565b918237018b8152039361067d601f199586810183528261074d565b5190209261068b8651610a39565b6020878101518589015195519182019687526040820192909252336060820152608081019190915260a081019390935260e43560c08401528260e08101610237565b606081019081106001600160401b038211176106e857604052565b634e487b7160e01b5f52604160045260245ffd5b60a081019081106001600160401b038211176106e857604052565b608081019081106001600160401b038211176106e857604052565b60c081019081106001600160401b038211176106e857604052565b90601f801991011681019081106001600160401b038211176106e857604052565b60c435906001600160a01b038216820361078457565b5f80fd5b604435906001600160a01b038216820361078457565b6003190190608082126107845760408051906107b9826106cd565b808294126107845780518181018181106001600160401b038211176106e85782526004356001600160a01b0381168103610784578152602435602082015282526044356020830152606435910152565b9181601f84011215610784578235916001600160401b038311610784576020838186019501011161078457565b6001600160401b0381116106e85760051b60200190565b919091606081840312610784576040805191610868836106cd565b829481356001600160401b039081811161078457830182601f8201121561078457803561089481610836565b926108a18751948561074d565b818452602094858086019360061b85010193818511610784579086899897969594939201925b8484106108e4575050505050855280820135908501520135910152565b909192939495969784830312610784578851908982018281108582111761093a578a528435906001600160a01b0382168203610784578289928c94528287013583820152815201930191908897969594936108c7565b60245f634e487b7160e01b81526041600452fd5b9181601f84011215610784578235916001600160401b038311610784576020808501948460061b01011161078457565b467f0000000000000000000000000000000000000000000000000000000000000000036109c9577f000000000000000000000000000000000000000000000000000000000000000090565b60405160208101907f8cad95687ba82c2ce50e74f7b754645e5117c3a5bec8151c0726d5857980a86682527f9ac997416e8ff9d2ff6bebeb7149f65cdae5e32e2b90440b566bb3044041d36a604082015246606082015230608082015260808152610a33816106fc565b51902090565b6040516020808201927f618358ac3db8dc274f0cd8829da7e234bd48cd73c4a740aede1adec9846d06a1845260018060a01b0381511660408401520151606082015260608152610a3381610717565b908151915f5b838110610a9e575050015f815290565b8060208092840101518185015201610a8e565b9192909360a435936040840151804211610b345750602084510151808611610b1c5750918591610af1610af794610aec602088015186610f19565b610d5a565b91610b62565b51516001600160a01b0390811692608435918216820361078457610b1a93610f62565b565b60249060405190633728b83d60e01b82526004820152fd5b6024906040519063cd21db4f60e01b82526004820152fd5b9190826040910312610784576020823592013590565b5f843b610c7e575060418203610c1b57610b7e82820182610b4c565b93909260401015610c07576020935f9360ff6040608095013560f81c5b60405194855216868401526040830152606082015282805260015afa15610bfc575f516001600160a01b03908116918215610bea571603610bd857565b604051632057875960e21b8152600490fd5b604051638baa579f60e01b8152600490fd5b6040513d5f823e3d90fd5b634e487b7160e01b5f52603260045260245ffd5b60408203610c6c57610c2f91810190610b4c565b6001600160ff1b0381169260ff91821c601b01918211610c58576020935f9360ff608094610b9b565b634e487b7160e01b5f52601160045260245ffd5b604051634be6321b60e01b8152600490fd5b918093946020926064604051809781958294630b135d3f60e11b9b8c8552600485015260406024850152816044850152848401378181018301889052601f01601f191681010301916001600160a01b03165afa918215610d4d578192610d04575b50506001600160e01b03191603610cf257565b604051632c19a72f60e21b8152600490fd5b9091506020813d8211610d45575b81610d1f6020938361074d565b8101031261028c5751906001600160e01b031982168203610d4257505f80610cdf565b80fd5b3d9150610d12565b50604051903d90823e3d90fd5b610d6261097e565b9060405190602082019261190160f01b84526022830152604282015260428152610a3381610717565b90610d9582610836565b610da2604051918261074d565b8281528092610db3601f1991610836565b0190602036910137565b5f198114610c585760010190565b8051821015610c075760209160051b010190565b80516020809201915f5b828110610df7575050505090565b835185529381019392810192600101610de9565b9190811015610c075760061b0190565b90919593958151519560409586840151804211610f025750828803610eee57610e53918691610af160209b610aec8d89015186610f19565b5f91825b878110610e6957505050505050505050565b610e74818351610dcb565b5189610e81838689610e0b565b0135908a810151808311610ed7575081610ea0575b5050600101610e57565b516001600160a01b03908116610eb784878a610e0b565b3591821682036103b85791610ed0918960019594610f62565b905f610e96565b6024908a5190633728b83d60e01b82526004820152fd5b86516001621398b960e31b03198152600490fd5b60249088519063cd21db4f60e01b82526004820152fd5b90600160ff82161b9160018060a01b03165f525f60205260405f209060081c5f5260205260405f20818154188091551615610f5057565b604051633ab3447f60e11b8152600490fd5b915f8093602095606494604051946323b872dd60e01b865260018060a01b03809216600487015216602485015260448401525af13d15601f3d1160015f511416171615610fab57565b60405162461bcd60e51b81526020600482015260146024820152731514905394d1915497d19493d357d1905253115160621b6044820152606490fdfea26469706673582212203c986912fc5f1701695e440eafbce4a50d173ee5dc6f44e22b42b3f7bf95228664736f6c63430008140033",
					"opcodes": "PUSH1 0xC0 CALLVALUE PUSH2 0xB9 JUMPI CHAINID PUSH1 0xA0 MSTORE PUSH1 0x20 DUP2 ADD PUSH32 0x8CAD95687BA82C2CE50E74F7B754645E5117C3A5BEC8151C0726D5857980A866 DUP2 MSTORE PUSH32 0x9AC997416E8FF9D2FF6BEBEB7149F65CDAE5E32E2B90440B566BB3044041D36A PUSH1 0x40 DUP4 ADD MSTORE CHAINID PUSH1 0x60 DUP4 ADD MSTORE ADDRESS PUSH1 0x80 DUP4 ADD MSTORE PUSH1 0x80 DUP3 MSTORE PUSH1 0xA0 DUP3 ADD SWAP2 DUP1 DUP4 LT PUSH1 0x1 DUP1 PUSH1 0x40 SHL SUB DUP5 GT OR PUSH2 0xA5 JUMPI DUP3 PUSH1 0x40 MSTORE MLOAD SWAP1 KECCAK256 PUSH1 0x80 MSTORE PUSH2 0x101D SWAP1 DUP2 PUSH2 0xBE DUP3 CODECOPY PUSH1 0x80 MLOAD DUP2 PUSH2 0x9A7 ADD MSTORE PUSH1 0xA0 MLOAD DUP2 PUSH2 0x981 ADD MSTORE RETURN JUMPDEST PUSH4 0x4E487B71 PUSH1 0xE0 SHL PUSH0 MSTORE PUSH1 0x41 PUSH1 0x4 MSTORE PUSH1 0x24 PUSH0 REVERT JUMPDEST PUSH0 DUP1 REVERT INVALID PUSH1 0x40 PUSH1 0x80 DUP2 MSTORE PUSH1 0x4 SWAP1 DUP2 CALLDATASIZE LT ISZERO PUSH2 0x14 JUMPI PUSH0 DUP1 REVERT JUMPDEST PUSH0 SWAP1 DUP2 CALLDATALOAD PUSH1 0xE0 SHR DUP1 PUSH4 0x137C29FE EQ PUSH2 0x54A JUMPI DUP1 PUSH4 0x30F28B7A EQ PUSH2 0x487 JUMPI DUP1 PUSH4 0x3644E515 EQ PUSH2 0x464 JUMPI DUP1 PUSH4 0x3FF9DCB1 EQ PUSH2 0x402 JUMPI DUP1 PUSH4 0x4FE02B44 EQ PUSH2 0x3BC JUMPI DUP1 PUSH4 0xEDD9444B EQ PUSH2 0x290 JUMPI PUSH4 0xFE8EC1A7 EQ PUSH2 0x6B JUMPI PUSH0 DUP1 REVERT JUMPDEST CALLVALUE PUSH2 0x28C JUMPI PUSH1 0xC0 CALLDATASIZE PUSH1 0x3 NOT ADD SLT PUSH2 0x28C JUMPI PUSH1 0x1 PUSH1 0x1 PUSH1 0x40 SHL SUB DUP4 CALLDATALOAD DUP2 DUP2 GT PUSH2 0x288 JUMPI PUSH2 0x9A SWAP1 CALLDATASIZE SWAP1 DUP7 ADD PUSH2 0x84D JUMP JUMPDEST PUSH1 0x24 CALLDATALOAD DUP3 DUP2 GT PUSH2 0x284 JUMPI PUSH2 0xB1 SWAP1 CALLDATASIZE SWAP1 DUP8 ADD PUSH2 0x94E JUMP JUMPDEST PUSH2 0xB9 PUSH2 0x788 JUMP JUMPDEST SWAP2 PUSH1 0x84 CALLDATALOAD DUP6 DUP2 GT PUSH2 0x280 JUMPI PUSH2 0xD1 SWAP1 CALLDATASIZE SWAP1 DUP11 ADD PUSH2 0x809 JUMP JUMPDEST SWAP9 SWAP1 SWAP6 PUSH1 0xA4 CALLDATALOAD SWAP1 DUP2 GT PUSH2 0x27C JUMPI PUSH2 0xEA SWAP2 CALLDATASIZE SWAP2 ADD PUSH2 0x809 JUMP JUMPDEST SWAP7 SWAP1 SWAP6 DUP2 MLOAD SWAP1 PUSH2 0xF9 DUP3 PUSH2 0x6FC JUMP JUMPDEST PUSH1 0x6B DUP3 MSTORE PUSH32 0x5065726D697442617463685769746E6573735472616E7366657246726F6D2854 PUSH1 0x20 DUP4 ADD MSTORE PUSH32 0x6F6B656E5065726D697373696F6E735B5D207065726D69747465642C61646472 DUP4 DUP4 ADD MSTORE PUSH32 0x657373207370656E6465722C75696E74323536206E6F6E63652C75696E743235 PUSH1 0x60 DUP4 ADD MSTORE PUSH11 0xD88191958591B1A5B994B PUSH1 0xAA SHL PUSH1 0x80 DUP4 ADD MSTORE DUP3 MLOAD SWAP11 DUP12 SWAP2 DUP2 PUSH2 0x196 PUSH1 0x20 DUP6 ADD DUP1 SWAP7 PUSH2 0xA88 JUMP JUMPDEST SWAP2 DUP3 CALLDATACOPY ADD DUP11 DUP2 MSTORE SUB SWAP10 PUSH2 0x1B1 PUSH1 0x1F NOT SWAP12 DUP13 DUP2 ADD DUP4 MSTORE DUP3 PUSH2 0x74D JUMP JUMPDEST MLOAD SWAP1 KECCAK256 SWAP1 DUP6 MLOAD MLOAD PUSH2 0x1C1 DUP2 PUSH2 0xD8B JUMP JUMPDEST SWAP1 DUP11 JUMPDEST DUP2 DUP2 LT PUSH2 0x24F JUMPI POP POP PUSH2 0x24C SWAP10 SWAP11 PUSH2 0x243 SWAP2 DUP4 MLOAD PUSH2 0x1F6 DUP2 PUSH2 0x1EA PUSH1 0x20 DUP3 ADD DUP1 SWAP6 PUSH2 0xDDF JUMP JUMPDEST SUB DUP5 DUP2 ADD DUP4 MSTORE DUP3 PUSH2 0x74D JUMP JUMPDEST MLOAD SWAP1 KECCAK256 PUSH1 0x20 DUP10 DUP2 ADD MLOAD DUP6 DUP12 ADD MLOAD SWAP6 MLOAD SWAP2 DUP3 ADD SWAP7 DUP8 MSTORE PUSH1 0x40 DUP3 ADD SWAP3 SWAP1 SWAP3 MSTORE CALLER PUSH1 0x60 DUP3 ADD MSTORE PUSH1 0x80 DUP2 ADD SWAP2 SWAP1 SWAP2 MSTORE PUSH1 0xA0 DUP2 ADD SWAP4 SWAP1 SWAP4 MSTORE PUSH1 0x64 CALLDATALOAD PUSH1 0xC0 DUP5 ADD MSTORE DUP3 PUSH1 0xE0 DUP2 ADD JUMPDEST SUB SWAP1 DUP2 ADD DUP4 MSTORE DUP3 PUSH2 0x74D JUMP JUMPDEST MLOAD SWAP1 KECCAK256 SWAP4 PUSH2 0xE1B JUMP JUMPDEST DUP1 RETURN JUMPDEST DUP1 PUSH2 0x267 PUSH2 0x261 PUSH2 0x277 SWAP4 DUP13 MLOAD PUSH2 0xDCB JUMP JUMPDEST MLOAD PUSH2 0xA39 JUMP JUMPDEST PUSH2 0x271 DUP3 DUP7 PUSH2 0xDCB JUMP JUMPDEST MSTORE PUSH2 0xDBD JUMP JUMPDEST PUSH2 0x1C4 JUMP JUMPDEST DUP9 DUP1 REVERT JUMPDEST DUP8 DUP1 REVERT JUMPDEST DUP5 DUP1 REVERT JUMPDEST DUP4 DUP1 REVERT JUMPDEST POP DUP1 REVERT JUMPDEST POP SWAP2 CALLVALUE PUSH2 0x28C JUMPI PUSH1 0x80 CALLDATASIZE PUSH1 0x3 NOT ADD SLT PUSH2 0x28C JUMPI PUSH1 0x1 PUSH1 0x1 PUSH1 0x40 SHL SUB SWAP1 DUP1 CALLDATALOAD DUP3 DUP2 GT PUSH2 0x288 JUMPI PUSH2 0x2C2 SWAP1 CALLDATASIZE SWAP1 DUP4 ADD PUSH2 0x84D JUMP JUMPDEST PUSH1 0x24 CALLDATALOAD DUP4 DUP2 GT PUSH2 0x284 JUMPI PUSH2 0x2D9 SWAP1 CALLDATASIZE SWAP1 DUP5 ADD PUSH2 0x94E JUMP JUMPDEST SWAP4 SWAP1 SWAP3 PUSH2 0x2E4 PUSH2 0x788 JUMP JUMPDEST SWAP2 PUSH1 0x64 CALLDATALOAD SWAP1 DUP2 GT PUSH2 0x3B8 JUMPI PUSH2 0x2FB SWAP2 CALLDATASIZE SWAP2 ADD PUSH2 0x809 JUMP JUMPDEST SWAP5 SWAP1 SWAP4 DUP4 MLOAD MLOAD SWAP8 PUSH2 0x30B DUP10 PUSH2 0xD8B JUMP JUMPDEST SWAP9 DUP9 JUMPDEST DUP2 DUP2 LT PUSH2 0x396 JUMPI POP POP PUSH2 0x24C SWAP8 SWAP9 DUP2 MLOAD PUSH2 0x33E DUP2 PUSH2 0x330 PUSH1 0x20 DUP3 ADD DUP1 SWAP6 PUSH2 0xDDF JUMP JUMPDEST SUB PUSH1 0x1F NOT DUP2 ADD DUP4 MSTORE DUP3 PUSH2 0x74D JUMP JUMPDEST MLOAD SWAP1 KECCAK256 PUSH1 0x20 DUP7 ADD MLOAD DUP3 DUP8 ADD MLOAD SWAP1 DUP4 MLOAD SWAP3 PUSH1 0x20 DUP5 ADD SWAP5 PUSH32 0xFCF35F5AC6A2C28868DC44C302166470266239195F02B0EE408334829333B766 DUP7 MSTORE DUP5 ADD MSTORE CALLER PUSH1 0x60 DUP5 ADD MSTORE PUSH1 0x80 DUP4 ADD MSTORE PUSH1 0xA0 DUP3 ADD MSTORE PUSH1 0xA0 DUP2 MSTORE PUSH2 0x243 DUP2 PUSH2 0x732 JUMP JUMPDEST DUP1 DUP12 PUSH2 0x271 DUP3 PUSH2 0x3AD PUSH2 0x261 PUSH2 0x3B3 SWAP7 DUP14 MLOAD PUSH2 0xDCB JUMP JUMPDEST SWAP3 PUSH2 0xDCB JUMP JUMPDEST PUSH2 0x30E JUMP JUMPDEST DUP7 DUP1 REVERT JUMPDEST POP DUP3 CALLVALUE PUSH2 0x3FE JUMPI DUP2 PUSH1 0x3 NOT CALLDATASIZE ADD SLT PUSH2 0x3FE JUMPI CALLDATALOAD PUSH1 0x1 PUSH1 0x1 PUSH1 0xA0 SHL SUB DUP2 AND SWAP1 DUP2 SWAP1 SUB PUSH2 0x3FE JUMPI DUP3 DUP3 SWAP2 PUSH1 0x20 SWAP5 MSTORE DUP1 DUP5 MSTORE DUP2 DUP2 KECCAK256 PUSH1 0x24 CALLDATALOAD DUP3 MSTORE DUP5 MSTORE KECCAK256 SLOAD SWAP1 MLOAD SWAP1 DUP2 MSTORE RETURN JUMPDEST DUP3 DUP1 REVERT JUMPDEST POP DUP3 CALLVALUE PUSH2 0x3FE JUMPI DUP2 PUSH1 0x3 NOT CALLDATASIZE ADD SLT PUSH2 0x3FE JUMPI PUSH32 0x3704902F963766A4E561BBAAB6E6CDC1B1DD12F6E9E99648DA8843B3F46B918D SWAP1 CALLDATALOAD SWAP2 PUSH1 0x24 CALLDATALOAD CALLER DUP6 MSTORE DUP5 PUSH1 0x20 MSTORE DUP2 DUP6 KECCAK256 DUP5 DUP7 MSTORE PUSH1 0x20 MSTORE DUP2 DUP6 KECCAK256 DUP2 DUP2 SLOAD OR SWAP1 SSTORE DUP2 MLOAD SWAP4 DUP5 MSTORE PUSH1 0x20 DUP5 ADD MSTORE CALLER SWAP3 LOG2 DUP1 RETURN JUMPDEST POP CALLVALUE PUSH2 0x28C JUMPI DUP2 PUSH1 0x3 NOT CALLDATASIZE ADD SLT PUSH2 0x28C JUMPI PUSH1 0x20 SWAP1 PUSH2 0x480 PUSH2 0x97E JUMP JUMPDEST SWAP1 MLOAD SWAP1 DUP2 MSTORE RETURN JUMPDEST POP DUP3 SWAP1 CALLVALUE PUSH2 0x3FE JUMPI PUSH2 0x100 CALLDATASIZE PUSH1 0x3 NOT ADD SLT PUSH2 0x3FE JUMPI PUSH2 0x4A5 CALLDATASIZE PUSH2 0x79E JUMP JUMPDEST SWAP1 DUP1 PUSH1 0x83 NOT CALLDATASIZE ADD SLT PUSH2 0x288 JUMPI PUSH2 0x4B9 PUSH2 0x76E JUMP JUMPDEST SWAP2 PUSH1 0xE4 CALLDATALOAD PUSH1 0x1 PUSH1 0x1 PUSH1 0x40 SHL SUB DUP2 GT PUSH2 0x546 JUMPI PUSH2 0x24C SWAP5 PUSH2 0x4DB SWAP2 CALLDATASIZE SWAP2 ADD PUSH2 0x809 JUMP JUMPDEST SWAP4 SWAP1 SWAP3 PUSH2 0x4E8 DUP4 MLOAD PUSH2 0xA39 JUMP JUMPDEST PUSH1 0x20 DUP5 ADD MLOAD DUP3 DUP6 ADD MLOAD SWAP1 DUP4 MLOAD SWAP3 PUSH1 0x20 DUP5 ADD SWAP5 PUSH32 0x939C21A48A8DBE3A9A2404A1D46691E4D39F6583D6EC6B35714604C986D80106 DUP7 MSTORE DUP5 ADD MSTORE CALLER PUSH1 0x60 DUP5 ADD MSTORE PUSH1 0x80 DUP4 ADD MSTORE PUSH1 0xA0 DUP3 ADD MSTORE PUSH1 0xA0 DUP2 MSTORE PUSH2 0x53D DUP2 PUSH2 0x732 JUMP JUMPDEST MLOAD SWAP1 KECCAK256 SWAP2 PUSH2 0xAB1 JUMP JUMPDEST DUP6 DUP1 REVERT JUMPDEST POP DUP3 CALLVALUE PUSH2 0x3FE JUMPI PUSH2 0x140 CALLDATASIZE PUSH1 0x3 NOT ADD SLT PUSH2 0x3FE JUMPI PUSH2 0x567 CALLDATASIZE PUSH2 0x79E JUMP JUMPDEST SWAP2 DUP1 PUSH1 0x83 NOT CALLDATASIZE ADD SLT PUSH2 0x288 JUMPI PUSH2 0x57B PUSH2 0x76E JUMP JUMPDEST PUSH1 0x1 PUSH1 0x1 PUSH1 0x40 SHL SUB SWAP4 SWAP1 PUSH2 0x104 CALLDATALOAD DUP6 DUP2 GT PUSH2 0x3B8 JUMPI PUSH2 0x59D SWAP1 CALLDATASIZE SWAP1 DUP7 ADD PUSH2 0x809 JUMP JUMPDEST SWAP1 SWAP4 PUSH2 0x124 CALLDATALOAD SWAP7 DUP8 GT PUSH2 0x280 JUMPI PUSH2 0x5BD PUSH2 0x53D SWAP7 PUSH2 0x24C SWAP9 CALLDATASIZE SWAP2 ADD PUSH2 0x809 JUMP JUMPDEST SWAP7 SWAP1 SWAP6 DUP3 MLOAD SWAP1 PUSH2 0x5CC DUP3 PUSH2 0x6FC JUMP JUMPDEST PUSH1 0x64 DUP3 MSTORE PUSH32 0x5065726D69745769746E6573735472616E7366657246726F6D28546F6B656E50 PUSH1 0x20 DUP4 ADD MSTORE PUSH32 0x65726D697373696F6E73207065726D69747465642C6164647265737320737065 DUP5 DUP4 ADD MSTORE PUSH32 0x6E6465722C75696E74323536206E6F6E63652C75696E7432353620646561646C PUSH1 0x60 DUP4 ADD MSTORE PUSH4 0x1A5B994B PUSH1 0xE2 SHL PUSH1 0x80 DUP4 ADD MSTORE DUP4 MLOAD SWAP5 DUP6 SWAP2 DUP2 PUSH2 0x662 PUSH1 0x20 DUP6 ADD DUP1 SWAP7 PUSH2 0xA88 JUMP JUMPDEST SWAP2 DUP3 CALLDATACOPY ADD DUP12 DUP2 MSTORE SUB SWAP4 PUSH2 0x67D PUSH1 0x1F NOT SWAP6 DUP7 DUP2 ADD DUP4 MSTORE DUP3 PUSH2 0x74D JUMP JUMPDEST MLOAD SWAP1 KECCAK256 SWAP3 PUSH2 0x68B DUP7 MLOAD PUSH2 0xA39 JUMP JUMPDEST PUSH1 0x20 DUP8 DUP2 ADD MLOAD DUP6 DUP10 ADD MLOAD SWAP6 MLOAD SWAP2 DUP3 ADD SWAP7 DUP8 MSTORE PUSH1 0x40 DUP3 ADD SWAP3 SWAP1 SWAP3 MSTORE CALLER PUSH1 0x60 DUP3 ADD MSTORE PUSH1 0x80 DUP2 ADD SWAP2 SWAP1 SWAP2 MSTORE PUSH1 0xA0 DUP2 ADD SWAP4 SWAP1 SWAP4 MSTORE PUSH1 0xE4 CALLDATALOAD PUSH1 0xC0 DUP5 ADD MSTORE DUP3 PUSH1 0xE0 DUP2 ADD PUSH2 0x237 JUMP JUMPDEST PUSH1 0x60 DUP2 ADD SWAP1 DUP2 LT PUSH1 0x1 PUSH1 0x1 PUSH1 0x40 SHL SUB DUP3 GT OR PUSH2 0x6E8 JUMPI PUSH1 0x40 MSTORE JUMP JUMPDEST PUSH4 0x4E487B71 PUSH1 0xE0 SHL PUSH0 MSTORE PUSH1 0x41 PUSH1 0x4 MSTORE PUSH1 0x24 PUSH0 REVERT JUMPDEST PUSH1 0xA0 DUP2 ADD SWAP1 DUP2 LT PUSH1 0x1 PUSH1 0x1 PUSH1 0x40 SHL SUB DUP3 GT OR PUSH2 0x6E8 JUMPI PUSH1 0x40 MSTORE JUMP JUMPDEST PUSH1 0x80 DUP2 ADD SWAP1 DUP2 LT PUSH1 0x1 PUSH1 0x1 PUSH1 0x40 SHL SUB DUP3 GT OR PUSH2 0x6E8 JUMPI PUSH1 0x40 MSTORE JUMP JUMPDEST PUSH1 0xC0 DUP2 ADD SWAP1 DUP2 LT PUSH1 0x1 PUSH1 0x1 PUSH1 0x40 SHL SUB DUP3 GT OR PUSH2 0x6E8 JUMPI PUSH1 0x40 MSTORE JUMP JUMPDEST SWAP1 PUSH1 0x1F DUP1 NOT SWAP2 ADD AND DUP2 ADD SWAP1 DUP2 LT PUSH1 0x1 PUSH1 0x1 PUSH1 0x40 SHL SUB DUP3 GT OR PUSH2 0x6E8 JUMPI PUSH1 0x40 MSTORE JUMP JUMPDEST PUSH1 0xC4 CALLDATALOAD SWAP1 PUSH1 0x1 PUSH1 0x1 PUSH1 0xA0 SHL SUB DUP3 AND DUP3 SUB PUSH2 0x784 JUMPI JUMP JUMPDEST PUSH0 DUP1 REVERT JUMPDEST PUSH1 0x44 CALLDATALOAD SWAP1 PUSH1 0x1 PUSH1 0x1 PUSH1 0xA0 SHL SUB DUP3 AND DUP3 SUB PUSH2 0x784 JUMPI JUMP JUMPDEST PUSH1 0x3 NOT ADD SWAP1 PUSH1 0x80 DUP3 SLT PUSH2 0x784 JUMPI PUSH1 0x40 DUP1 MLOAD SWAP1 PUSH2 0x7B9 DUP3 PUSH2 0x6CD JUMP JUMPDEST DUP1 DUP3 SWAP5 SLT PUSH2 0x784 JUMPI DUP1 MLOAD DUP2 DUP2 ADD DUP2 DUP2 LT PUSH1 0x1 PUSH1 0x1 PUSH1 0x40 SHL SUB DUP3 GT OR PUSH2 0x6E8 JUMPI DUP3 MSTORE PUSH1 0x4 CALLDATALOAD PUSH1 0x1 PUSH1 0x1 PUSH1 0xA0 SHL SUB DUP2 AND DUP2 SUB PUSH2 0x784 JUMPI DUP2 MSTORE PUSH1 0x24 CALLDATALOAD PUSH1 0x20 DUP3 ADD MSTORE DUP3 MSTORE PUSH1 0x44 CALLDATALOAD PUSH1 0x20 DUP4 ADD MSTORE PUSH1 0x64 CALLDATALOAD SWAP2 ADD MSTORE JUMP JUMPDEST SWAP2 DUP2 PUSH1 0x1F DUP5 ADD SLT ISZERO PUSH2 0x784 JUMPI DUP3 CALLDATALOAD SWAP2 PUSH1 0x1 PUSH1 0x1 PUSH1 0x40 SHL SUB DUP4 GT PUSH2 0x784 JUMPI PUSH1 0x20 DUP4 DUP2 DUP7 ADD SWAP6 ADD ADD GT PUSH2 0x784 JUMPI JUMP JUMPDEST PUSH1 0x1 PUSH1 0x1 PUSH1 0x40 SHL SUB DUP2 GT PUSH2 0x6E8 JUMPI PUSH1 0x5 SHL PUSH1 0x20 ADD SWAP1 JUMP JUMPDEST SWAP2 SWAP1 SWAP2 PUSH1 0x60 DUP2 DUP5 SUB SLT PUSH2 0x784 JUMPI PUSH1 0x40 DUP1 MLOAD SWAP2 PUSH2 0x868 DUP4 PUSH2 0x6CD JUMP JUMPDEST DUP3 SWAP5 DUP2 CALLDATALOAD PUSH1 0x1 PUSH1 0x1 PUSH1 0x40 SHL SUB SWAP1 DUP2 DUP2 GT PUSH2 0x784 JUMPI DUP4 ADD DUP3 PUSH1 0x1F DUP3 ADD SLT ISZERO PUSH2 0x784 JUMPI DUP1 CALLDATALOAD PUSH2 0x894 DUP2 PUSH2 0x836 JUMP JUMPDEST SWAP3 PUSH2 0x8A1 DUP8 MLOAD SWAP5 DUP6 PUSH2 0x74D JUMP JUMPDEST DUP2 DUP5 MSTORE PUSH1 0x20 SWAP5 DUP6 DUP1 DUP7 ADD SWAP4 PUSH1 0x6 SHL DUP6 ADD ADD SWAP4 DUP2 DUP6 GT PUSH2 0x784 JUMPI SWAP1 DUP7 DUP10 SWAP9 SWAP8 SWAP7 SWAP6 SWAP5 SWAP4 SWAP3 ADD SWAP3 JUMPDEST DUP5 DUP5 LT PUSH2 0x8E4 JUMPI POP POP POP POP POP DUP6 MSTORE DUP1 DUP3 ADD CALLDATALOAD SWAP1 DUP6 ADD MSTORE ADD CALLDATALOAD SWAP2 ADD MSTORE JUMP JUMPDEST SWAP1 SWAP2 SWAP3 SWAP4 SWAP5 SWAP6 SWAP7 SWAP8 DUP5 DUP4 SUB SLT PUSH2 0x784 JUMPI DUP9 MLOAD SWAP1 DUP10 DUP3 ADD DUP3 DUP2 LT DUP6 DUP3 GT OR PUSH2 0x93A JUMPI DUP11 MSTORE DUP5 CALLDATALOAD SWAP1 PUSH1 0x1 PUSH1 0x1 PUSH1 0xA0 SHL SUB DUP3 AND DUP3 SUB PUSH2 0x784 JUMPI DUP3 DUP10 SWAP3 DUP13 SWAP5 MSTORE DUP3 DUP8 ADD CALLDATALOAD DUP4 DUP3 ADD MSTORE DUP2 MSTORE ADD SWAP4 ADD SWAP2 SWAP1 DUP9 SWAP8 SWAP7 SWAP6 SWAP5 SWAP4 PUSH2 0x8C7 JUMP JUMPDEST PUSH1 0x24 PUSH0 PUSH4 0x4E487B71 PUSH1 0xE0 SHL DUP2 MSTORE PUSH1 0x41 PUSH1 0x4 MSTORE REVERT JUMPDEST SWAP2 DUP2 PUSH1 0x1F DUP5 ADD SLT ISZERO PUSH2 0x784 JUMPI DUP3 CALLDATALOAD SWAP2 PUSH1 0x1 PUSH1 0x1 PUSH1 0x40 SHL SUB DUP4 GT PUSH2 0x784 JUMPI PUSH1 0x20 DUP1 DUP6 ADD SWAP5 DUP5 PUSH1 0x6 SHL ADD ADD GT PUSH2 0x784 JUMPI JUMP JUMPDEST CHAINID PUSH32 0x0 SUB PUSH2 0x9C9 JUMPI PUSH32 0x0 SWAP1 JUMP JUMPDEST PUSH1 0x40 MLOAD PUSH1 0x20 DUP2 ADD SWAP1 PUSH32 0x8CAD95687BA82C2CE50E74F7B754645E5117C3A5BEC8151C0726D5857980A866 DUP3 MSTORE PUSH32 0x9AC997416E8FF9D2FF6BEBEB7149F65CDAE5E32E2B90440B566BB3044041D36A PUSH1 0x40 DUP3 ADD MSTORE CHAINID PUSH1 0x60 DUP3 ADD MSTORE ADDRESS PUSH1 0x80 DUP3 ADD MSTORE PUSH1 0x80 DUP2 MSTORE PUSH2 0xA33 DUP2 PUSH2 0x6FC JUMP JUMPDEST MLOAD SWAP1 KECCAK256 SWAP1 JUMP JUMPDEST PUSH1 0x40 MLOAD PUSH1 0x20 DUP1 DUP3 ADD SWAP3 PUSH32 0x618358AC3DB8DC274F0CD8829DA7E234BD48CD73C4A740AEDE1ADEC9846D06A1 DUP5 MSTORE PUSH1 0x1 DUP1 PUSH1 0xA0 SHL SUB DUP2 MLOAD AND PUSH1 0x40 DUP5 ADD MSTORE ADD MLOAD PUSH1 0x60 DUP3 ADD MSTORE PUSH1 0x60 DUP2 MSTORE PUSH2 0xA33 DUP2 PUSH2 0x717 JUMP JUMPDEST SWAP1 DUP2 MLOAD SWAP2 PUSH0 JUMPDEST DUP4 DUP2 LT PUSH2 0xA9E JUMPI POP POP ADD PUSH0 DUP2 MSTORE SWAP1 JUMP JUMPDEST DUP1 PUSH1 0x20 DUP1 SWAP3 DUP5 ADD ADD MLOAD DUP2 DUP6 ADD MSTORE ADD PUSH2 0xA8E JUMP JUMPDEST SWAP2 SWAP3 SWAP1 SWAP4 PUSH1 0xA4 CALLDATALOAD SWAP4 PUSH1 0x40 DUP5 ADD MLOAD DUP1 TIMESTAMP GT PUSH2 0xB34 JUMPI POP PUSH1 0x20 DUP5 MLOAD ADD MLOAD DUP1 DUP7 GT PUSH2 0xB1C JUMPI POP SWAP2 DUP6 SWAP2 PUSH2 0xAF1 PUSH2 0xAF7 SWAP5 PUSH2 0xAEC PUSH1 0x20 DUP9 ADD MLOAD DUP7 PUSH2 0xF19 JUMP JUMPDEST PUSH2 0xD5A JUMP JUMPDEST SWAP2 PUSH2 0xB62 JUMP JUMPDEST MLOAD MLOAD PUSH1 0x1 PUSH1 0x1 PUSH1 0xA0 SHL SUB SWAP1 DUP2 AND SWAP3 PUSH1 0x84 CALLDATALOAD SWAP2 DUP3 AND DUP3 SUB PUSH2 0x784 JUMPI PUSH2 0xB1A SWAP4 PUSH2 0xF62 JUMP JUMPDEST JUMP JUMPDEST PUSH1 0x24 SWAP1 PUSH1 0x40 MLOAD SWAP1 PUSH4 0x3728B83D PUSH1 0xE0 SHL DUP3 MSTORE PUSH1 0x4 DUP3 ADD MSTORE REVERT JUMPDEST PUSH1 0x24 SWAP1 PUSH1 0x40 MLOAD SWAP1 PUSH4 0xCD21DB4F PUSH1 0xE0 SHL DUP3 MSTORE PUSH1 0x4 DUP3 ADD MSTORE REVERT JUMPDEST SWAP2 SWAP1 DUP3 PUSH1 0x40 SWAP2 SUB SLT PUSH2 0x784 JUMPI PUSH1 0x20 DUP3 CALLDATALOAD SWAP3 ADD CALLDATALOAD SWAP1 JUMP JUMPDEST PUSH0 DUP5 EXTCODESIZE PUSH2 0xC7E JUMPI POP PUSH1 0x41 DUP3 SUB PUSH2 0xC1B JUMPI PUSH2 0xB7E DUP3 DUP3 ADD DUP3 PUSH2 0xB4C JUMP JUMPDEST SWAP4 SWAP1 SWAP3 PUSH1 0x40 LT ISZERO PUSH2 0xC07 JUMPI PUSH1 0x20 SWAP4 PUSH0 SWAP4 PUSH1 0xFF PUSH1 0x40 PUSH1 0x80 SWAP6 ADD CALLDATALOAD PUSH1 0xF8 SHR JUMPDEST PUSH1 0x40 MLOAD SWAP5 DUP6 MSTORE AND DUP7 DUP5 ADD MSTORE PUSH1 0x40 DUP4 ADD MSTORE PUSH1 0x60 DUP3 ADD MSTORE DUP3 DUP1 MSTORE PUSH1 0x1 GAS STATICCALL ISZERO PUSH2 0xBFC JUMPI PUSH0 MLOAD PUSH1 0x1 PUSH1 0x1 PUSH1 0xA0 SHL SUB SWAP1 DUP2 AND SWAP2 DUP3 ISZERO PUSH2 0xBEA JUMPI AND SUB PUSH2 0xBD8 JUMPI JUMP JUMPDEST PUSH1 0x40 MLOAD PUSH4 0x20578759 PUSH1 0xE2 SHL DUP2 MSTORE PUSH1 0x4 SWAP1 REVERT JUMPDEST PUSH1 0x40 MLOAD PUSH4 0x8BAA579F PUSH1 0xE0 SHL DUP2 MSTORE PUSH1 0x4 SWAP1 REVERT JUMPDEST PUSH1 0x40 MLOAD RETURNDATASIZE PUSH0 DUP3 RETURNDATACOPY RETURNDATASIZE SWAP1 REVERT JUMPDEST PUSH4 0x4E487B71 PUSH1 0xE0 SHL PUSH0 MSTORE PUSH1 0x32 PUSH1 0x4 MSTORE PUSH1 0x24 PUSH0 REVERT JUMPDEST PUSH1 0x40 DUP3 SUB PUSH2 0xC6C JUMPI PUSH2 0xC2F SWAP2 DUP2 ADD SWAP1 PUSH2 0xB4C JUMP JUMPDEST PUSH1 0x1 PUSH1 0x1 PUSH1 0xFF SHL SUB DUP2 AND SWAP3 PUSH1 0xFF SWAP2 DUP3 SHR PUSH1 0x1B ADD SWAP2 DUP3 GT PUSH2 0xC58 JUMPI PUSH1 0x20 SWAP4 PUSH0 SWAP4 PUSH1 0xFF PUSH1 0x80 SWAP5 PUSH2 0xB9B JUMP JUMPDEST PUSH4 0x4E487B71 PUSH1 0xE0 SHL PUSH0 MSTORE PUSH1 0x11 PUSH1 0x4 MSTORE PUSH1 0x24 PUSH0 REVERT JUMPDEST PUSH1 0x40 MLOAD PUSH4 0x4BE6321B PUSH1 0xE0 SHL DUP2 MSTORE PUSH1 0x4 SWAP1 REVERT JUMPDEST SWAP2 DUP1 SWAP4 SWAP5 PUSH1 0x20 SWAP3 PUSH1 0x64 PUSH1 0x40 MLOAD DUP1 SWAP8 DUP2 SWAP6 DUP3 SWAP5 PUSH4 0xB135D3F PUSH1 0xE1 SHL SWAP12 DUP13 DUP6 MSTORE PUSH1 0x4 DUP6 ADD MSTORE PUSH1 0x40 PUSH1 0x24 DUP6 ADD MSTORE DUP2 PUSH1 0x44 DUP6 ADD MSTORE DUP5 DUP5 ADD CALLDATACOPY DUP2 DUP2 ADD DUP4 ADD DUP9 SWAP1 MSTORE PUSH1 0x1F ADD PUSH1 0x1F NOT AND DUP2 ADD SUB ADD SWAP2 PUSH1 0x1 PUSH1 0x1 PUSH1 0xA0 SHL SUB AND GAS STATICCALL SWAP2 DUP3 ISZERO PUSH2 0xD4D JUMPI DUP2 SWAP3 PUSH2 0xD04 JUMPI JUMPDEST POP POP PUSH1 0x1 PUSH1 0x1 PUSH1 0xE0 SHL SUB NOT AND SUB PUSH2 0xCF2 JUMPI JUMP JUMPDEST PUSH1 0x40 MLOAD PUSH4 0x2C19A72F PUSH1 0xE2 SHL DUP2 MSTORE PUSH1 0x4 SWAP1 REVERT JUMPDEST SWAP1 SWAP2 POP PUSH1 0x20 DUP2 RETURNDATASIZE DUP3 GT PUSH2 0xD45 JUMPI JUMPDEST DUP2 PUSH2 0xD1F PUSH1 0x20 SWAP4 DUP4 PUSH2 0x74D JUMP JUMPDEST DUP2 ADD SUB SLT PUSH2 0x28C JUMPI MLOAD SWAP1 PUSH1 0x1 PUSH1 0x1 PUSH1 0xE0 SHL SUB NOT DUP3 AND DUP3 SUB PUSH2 0xD42 JUMPI POP PUSH0 DUP1 PUSH2 0xCDF JUMP JUMPDEST DUP1 REVERT JUMPDEST RETURNDATASIZE SWAP2 POP PUSH2 0xD12 JUMP JUMPDEST POP PUSH1 0x40 MLOAD SWAP1 RETURNDATASIZE SWAP1 DUP3 RETURNDATACOPY RETURNDATASIZE SWAP1 REVERT JUMPDEST PUSH2 0xD62 PUSH2 0x97E JUMP JUMPDEST SWAP1 PUSH1 0x40 MLOAD SWAP1 PUSH1 0x20 DUP3 ADD SWAP3 PUSH2 0x1901 PUSH1 0xF0 SHL DUP5 MSTORE PUSH1 0x22 DUP4 ADD MSTORE PUSH1 0x42 DUP3 ADD MSTORE PUSH1 0x42 DUP2 MSTORE PUSH2 0xA33 DUP2 PUSH2 0x717 JUMP JUMPDEST SWAP1 PUSH2 0xD95 DUP3 PUSH2 0x836 JUMP JUMPDEST PUSH2 0xDA2 PUSH1 0x40 MLOAD SWAP2 DUP3 PUSH2 0x74D JUMP JUMPDEST DUP3 DUP2 MSTORE DUP1 SWAP3 PUSH2 0xDB3 PUSH1 0x1F NOT SWAP2 PUSH2 0x836 JUMP JUMPDEST ADD SWAP1 PUSH1 0x20 CALLDATASIZE SWAP2 ADD CALLDATACOPY JUMP JUMPDEST PUSH0 NOT DUP2 EQ PUSH2 0xC58 JUMPI PUSH1 0x1 ADD SWAP1 JUMP JUMPDEST DUP1 MLOAD DUP3 LT ISZERO PUSH2 0xC07 JUMPI PUSH1 0x20 SWAP2 PUSH1 0x5 SHL ADD ADD SWAP1 JUMP JUMPDEST DUP1 MLOAD PUSH1 0x20 DUP1 SWAP3 ADD SWAP2 PUSH0 JUMPDEST DUP3 DUP2 LT PUSH2 0xDF7 JUMPI POP POP POP POP SWAP1 JUMP JUMPDEST DUP4 MLOAD DUP6 MSTORE SWAP4 DUP2 ADD SWAP4 SWAP3 DUP2 ADD SWAP3 PUSH1 0x1 ADD PUSH2 0xDE9 JUMP JUMPDEST SWAP2 SWAP1 DUP2 LT ISZERO PUSH2 0xC07 JUMPI PUSH1 0x6 SHL ADD SWAP1 JUMP JUMPDEST SWAP1 SWAP2 SWAP6 SWAP4 SWAP6 DUP2 MLOAD MLOAD SWAP6 PUSH1 0x40 SWAP6 DUP7 DUP5 ADD MLOAD DUP1 TIMESTAMP GT PUSH2 0xF02 JUMPI POP DUP3 DUP9 SUB PUSH2 0xEEE JUMPI PUSH2 0xE53 SWAP2 DUP7 SWAP2 PUSH2 0xAF1 PUSH1 0x20 SWAP12 PUSH2 0xAEC DUP14 DUP10 ADD MLOAD DUP7 PUSH2 0xF19 JUMP JUMPDEST PUSH0 SWAP2 DUP3 JUMPDEST DUP8 DUP2 LT PUSH2 0xE69 JUMPI POP POP POP POP POP POP POP POP POP JUMP JUMPDEST PUSH2 0xE74 DUP2 DUP4 MLOAD PUSH2 0xDCB JUMP JUMPDEST MLOAD DUP10 PUSH2 0xE81 DUP4 DUP7 DUP10 PUSH2 0xE0B JUMP JUMPDEST ADD CALLDATALOAD SWAP1 DUP11 DUP2 ADD MLOAD DUP1 DUP4 GT PUSH2 0xED7 JUMPI POP DUP2 PUSH2 0xEA0 JUMPI JUMPDEST POP POP PUSH1 0x1 ADD PUSH2 0xE57 JUMP JUMPDEST MLOAD PUSH1 0x1 PUSH1 0x1 PUSH1 0xA0 SHL SUB SWAP1 DUP2 AND PUSH2 0xEB7 DUP5 DUP8 DUP11 PUSH2 0xE0B JUMP JUMPDEST CALLDATALOAD SWAP2 DUP3 AND DUP3 SUB PUSH2 0x3B8 JUMPI SWAP2 PUSH2 0xED0 SWAP2 DUP10 PUSH1 0x1 SWAP6 SWAP5 PUSH2 0xF62 JUMP JUMPDEST SWAP1 PUSH0 PUSH2 0xE96 JUMP JUMPDEST PUSH1 0x24 SWAP1 DUP11 MLOAD SWAP1 PUSH4 0x3728B83D PUSH1 0xE0 SHL DUP3 MSTORE PUSH1 0x4 DUP3 ADD MSTORE REVERT JUMPDEST DUP7 MLOAD PUSH1 0x1 PUSH3 0x1398B9 PUSH1 0xE3 SHL SUB NOT DUP2 MSTORE PUSH1 0x4 SWAP1 REVERT JUMPDEST PUSH1 0x24 SWAP1 DUP9 MLOAD SWAP1 PUSH4 0xCD21DB4F PUSH1 0xE0 SHL DUP3 MSTORE PUSH1 0x4 DUP3 ADD MSTORE REVERT JUMPDEST SWAP1 PUSH1 0x1 PUSH1 0xFF DUP3 AND SHL SWAP2 PUSH1 0x1 DUP1 PUSH1 0xA0 SHL SUB AND PUSH0 MSTORE PUSH0 PUSH1 0x20 MSTORE PUSH1 0x40 PUSH0 KECCAK256 SWAP1 PUSH1 0x8 SHR PUSH0 MSTORE PUSH1 0x20 MSTORE PUSH1 0x40 PUSH0 KECCAK256 DUP2 DUP2 SLOAD XOR DUP1 SWAP2 SSTORE AND ISZERO PUSH2 0xF50 JUMPI JUMP JUMPDEST PUSH1 0x40 MLOAD PUSH4 0x3AB3447F PUSH1 0xE1 SHL DUP2 MSTORE PUSH1 0x4 SWAP1 REVERT JUMPDEST SWAP2 PUSH0 DUP1 SWAP4 PUSH1 0x20 SWAP6 PUSH1 0x64 SWAP5 PUSH1 0x40 MLOAD SWAP5 PUSH4 0x23B872DD PUSH1 0xE0 SHL DUP7 MSTORE PUSH1 0x1 DUP1 PUSH1 0xA0 SHL SUB DUP1 SWAP3 AND PUSH1 0x4 DUP8 ADD MSTORE AND PUSH1 0x24 DUP6 ADD MSTORE PUSH1 0x44 DUP5 ADD MSTORE GAS CALL RETURNDATASIZE ISZERO PUSH1 0x1F RETURNDATASIZE GT PUSH1 0x1 PUSH0 MLOAD EQ AND OR AND ISZERO PUSH2 0xFAB JUMPI JUMP JUMPDEST PUSH1 0x40 MLOAD PUSH3 0x461BCD PUSH1 0xE5 SHL DUP2 MSTORE PUSH1 0x20 PUSH1 0x4 DUP3 ADD MSTORE PUSH1 0x14 PUSH1 0x24 DUP3 ADD MSTORE PUSH20 0x1514905394D1915497D19493D357D19052531151 PUSH1 0x62 SHL PUSH1 0x44 DUP3 ADD MSTORE PUSH1 0x64 SWAP1 REVERT INVALID LOG2 PUSH5 0x6970667358 0x22 SLT KECCAK256 EXTCODECOPY SWAP9 PUSH10 0x12FC5F1701695E440EAF 0xBC 0xE4 0xA5 0xD OR RETURNDATACOPY 0xE5 0xDC PUSH16 0x44E22B42B3F7BF95228664736F6C6343 STOP ADDMOD EQ STOP CALLER "
				},
				"gasEstimates": {
					"creation": {
						"codeDepositCost": "825000",
						"executionCost": "infinite",
						"totalCost": "infinite"
					},
					"external": {
						"DOMAIN_SEPARATOR()": "infinite",
						"invalidateUnorderedNonces(uint256,uint256)": "26247",
						"nonceBitmap(address,uint256)": "2535",
						"permitTransferFrom(((address,uint256),uint256,uint256),(address,uint256),address,bytes)": "infinite",
						"permitTransferFrom(((address,uint256)[],uint256,uint256),(address,uint256)[],address,bytes)": "infinite",
						"permitWitnessTransferFrom(((address,uint256),uint256,uint256),(address,uint256),address,bytes32,string,bytes)": "infinite",
						"permitWitnessTransferFrom(((address,uint256)[],uint256,uint256),(address,uint256)[],address,bytes32,string,bytes)": "infinite"
					},
					"internal": {
						"_permitTransferFrom(struct ISignatureTransfer.PermitBatchTransferFrom memory,struct ISignatureTransfer.SignatureTransferDetails calldata[] calldata,address,bytes32,bytes calldata)": "infinite",
						"_permitTransferFrom(struct ISignatureTransfer.PermitTransferFrom memory,struct ISignatureTransfer.SignatureTransferDetails calldata,address,bytes32,bytes calldata)": "infinite",
						"_useUnorderedNonce(address,uint256)": "infinite",
						"bitmapPositions(uint256)": "infinite"
					}
				},
				"methodIdentifiers": {
					"DOMAIN_SEPARATOR()": "3644e515",
					"invalidateUnorderedNonces(uint256,uint256)": "3ff9dcb1",
					"nonceBitmap(address,uint256)": "4fe02b44",
					"permitTransferFrom(((address,uint256),uint256,uint256),(address,uint256),address,bytes)": "30f28b7a",
					"permitTransferFrom(((address,uint256)[],uint256,uint256),(address,uint256)[],address,bytes)": "edd9444b",
					"permitWitnessTransferFrom(((address,uint256),uint256,uint256),(address,uint256),address,bytes32,string,bytes)": "137c29fe",
					"permitWitnessTransferFrom(((address,uint256)[],uint256,uint256),(address,uint256)[],address,bytes32,string,bytes)": "fe8ec1a7"
				}
			},
			"storageLayout": {
				"storage": [
					{
						"astId": 1775,
						"contract": "contracts/contracts/permit2/SignatureTransfer.sol:SignatureTransfer",
						"label": "nonceBitmap",
						"offset": 0,
						"slot": "0",
						"type": "t_mapping(t_address,t_mapping(t_uint256,t_uint256))"
					}
				],
				"types": {
					"t_address": {
						"encoding": "inplace",
						"label": "address",
						"numberOfBytes": "20"
					},
					"t_mapping(t_address,t_mapping(t_uint256,t_uint256))": {
						"encoding": "mapping",
						"key": "t_address",
						"label": "mapping(address => mapping(uint256 => uint256))",
						"numberOfBytes": "32",
						"value": "t_mapping(t_uint256,t_uint256)"
					},
					"t_mapping(t_uint256,t_uint256)": {
						"encoding": "mapping",
						"key": "t_uint256",
						"label": "mapping(uint256 => uint256)",
						"numberOfBytes": "32",
						"value": "t_uint256"
					},
					"t_uint256": {
						"encoding": "inplace",
						"label": "uint256",
						"numberOfBytes": "32"
					}
				}
			},
			"userdoc": {
				"errors": {
					"InvalidAmount(uint256)": [
						{
							"notice": "Thrown when the requested amount for a transfer is larger than the permissioned amount"
						}
					],
					"InvalidContractSignature()": [
						{
							"notice": "Thrown when the recovered contract signature is incorrect"
						}
					],
					"InvalidNonce()": [
						{
							"notice": "Thrown when validating that the inputted nonce has not been used"
						}
					],
					"InvalidSignature()": [
						{
							"notice": "Thrown when the recovered signer is equal to the zero address"
						}
					],
					"InvalidSignatureLength()": [
						{
							"notice": "Thrown when the passed in signature is not a valid length"
						}
					],
					"InvalidSigner()": [
						{
							"notice": "Thrown when the recovered signer does not equal the claimedSigner"
						}
					],
					"LengthMismatch()": [
						{
							"notice": "Thrown when the number of tokens permissioned to a spender does not match the number of tokens being transferred"
						}
					],
					"SignatureExpired(uint256)": [
						{
							"notice": "Thrown when validating an inputted signature that is stale"
						}
					]
				},
				"events": {
					"UnorderedNonceInvalidation(address,uint256,uint256)": {
						"notice": "Emits an event when the owner successfully invalidates an unordered nonce."
					}
				},
				"kind": "user",
				"methods": {
					"DOMAIN_SEPARATOR()": {
						"notice": "Returns the domain separator for the current chain."
					},
					"invalidateUnorderedNonces(uint256,uint256)": {
						"notice": "Invalidates the bits specified in mask for the bitmap at the word position"
					},
					"nonceBitmap(address,uint256)": {
						"notice": "A map from token owner address and a caller specified word index to a bitmap. Used to set bits in the bitmap to prevent against signature replay protection"
					},
					"permitTransferFrom(((address,uint256),uint256,uint256),(address,uint256),address,bytes)": {
						"notice": "Transfers a token using a signed permit message"
					},
					"permitTransferFrom(((address,uint256)[],uint256,uint256),(address,uint256)[],address,bytes)": {
						"notice": "Transfers multiple tokens using a signed permit message"
					},
					"permitWitnessTransferFrom(((address,uint256),uint256,uint256),(address,uint256),address,bytes32,string,bytes)": {
						"notice": "Transfers a token using a signed permit messageIncludes extra data provided by the caller to verify signature over"
					},
					"permitWitnessTransferFrom(((address,uint256)[],uint256,uint256),(address,uint256)[],address,bytes32,string,bytes)": {
						"notice": "Transfers multiple tokens using a signed permit messageIncludes extra data provided by the caller to verify signature over"
					}
				},
				"version": 1
			}
		}
	}
}