{
	"contracts/contracts/permit2/Permit2.sol": {
		"Permit2": {
			"abi": [
				{
					"inputs": [
						{
							"internalType": "uint256",
							"name": "deadline",
							"type": "uint256"
						}
					],
					"name": "AllowanceExpired",
					"type": "error"
				},
				{
					"inputs": [],
					"name": "ExcessiveInvalidation",
					"type": "error"
				},
				{
					"inputs": [
						{
							"internalType": "uint256",
							"name": "amount",
							"type": "uint256"
						}
					],
					"name": "InsufficientAllowance",
					"type": "error"
				},
				{
					"inputs": [
						{
							"internalType": "uint256",
							"name": "maxAmount",
							"type": "uint256"
						}
					],
					"name": "InvalidAmount",
					"type": "error"
				},
				{
					"inputs": [],
					"name": "InvalidContractSignature",
					"type": "error"
				},
				{
					"inputs": [],
					"name": "InvalidNonce",
					"type": "error"
				},
				{
					"inputs": [],
					"name": "InvalidSignature",
					"type": "error"
				},
				{
					"inputs": [],
					"name": "InvalidSignatureLength",
					"type": "error"
				},
				{
					"inputs": [],
					"name": "InvalidSigner",
					"type": "error"
				},
				{
					"inputs": [],
					"name": "LengthMismatch",
					"type": "error"
				},
				{
					"inputs": [
						{
							"internalType": "uint256",
							"name": "signatureDeadline",
							"type": "uint256"
						}
					],
					"name": "SignatureExpired",
					"type": "error"
				},
				{
					"anonymous": false,
					"inputs": [
						{
							"indexed": true,
							"internalType": "address",
							"name": "owner",
							"type": "address"
						},
						{
							"indexed": true,
							"internalType": "address",
							"name": "token",
							"type": "address"
						},
						{
							"indexed": true,
							"internalType": "address",
							"name": "spender",
							"type": "address"
						},
						{
							"indexed": false,
							"internalType": "uint160",
							"name": "amount",
							"type": "uint160"
						},
						{
							"indexed": false,
							"internalType": "uint48",
							"name": "expiration",
							"type": "uint48"
						}
					],
					"name": "Approval",
					"type": "event"
				},
				{
					"anonymous": false,
					"inputs": [
						{
							"indexed": true,
							"internalType": "address",
							"name": "owner",
							"type": "address"
						},
						{
							"indexed": false,
							"internalType": "address",
							"name": "token",
							"type": "address"
						},
						{
							"indexed": false,
							"internalType": "address",
							"name": "spender",
							"type": "address"
						}
					],
					"name": "Lockdown",
					"type": "event"
				},
				{
					"anonymous": false,
					"inputs": [
						{
							"indexed": true,
							"internalType": "address",
							"name": "owner",
							"type": "address"
						},
						{
							"indexed": true,
							"internalType": "address",
							"name": "token",
							"type": "address"
						},
						{
							"indexed": true,
							"internalType": "address",
							"name": "spender",
							"type": "address"
						},
						{
							"indexed": false,
							"internalType": "uint48",
							"name": "newNonce",
							"type": "uint48"
						},
						{
							"indexed": false,
							"internalType": "uint48",
							"name": "oldNonce",
							"type": "uint48"
						}
					],
					"name": "NonceInvalidation",
					"type": "event"
				},
				{
					"anonymous": false,
					"inputs": [
						{
							"indexed": true,
							"internalType": "address",
							"name": "owner",
							"type": "address"
						},
						{
							"indexed": true,
							"internalType": "address",
							"name": "token",
							"type": "address"
						},
						{
							"indexed": true,
							"internalType": "address",
							"name": "spender",
							"type": "address"
						},
						{
							"indexed": false,
							"internalType": "uint160",
							"name": "amount",
							"type": "uint160"
						},
						{
							"indexed": false,
							"internalType": "uint48",
							"name": "expiration",
							"type": "uint48"
						},
						{
							"indexed": false,
							"internalType": "uint48",
							"name": "nonce",
							"type": "uint48"
						}
					],
					"name": "Permit",
					"type": "event"
				},
				{
					"anonymous": false,
					"inputs": [
						{
							"indexed": true,
							"internalType": "address",
							"name": "owner",
							"type": "address"
						},
						{
							"indexed": false,
							"internalType": "uint256",
							"name": "word",
							"type": "uint256"
						},
						{
							"indexed": false,
							"internalType": "uint256",
							"name": "mask",
							"type": "uint256"
						}
					],
					"name": "UnorderedNonceInvalidation",
					"type": "event"
				},
				{
					"inputs": [],
					"name": "DOMAIN_SEPARATOR",
					"outputs": [
						{
							"internalType": "bytes32",
							"name": "",
							"type": "bytes32"
						}
					],
					"stateMutability": "view",
					"type": "function"
				},
				{
					"inputs": [
						{
							"internalType": "address",
							"name": "",
							"type": "address"
						},
						{
							"internalType": "address",
							"name": "",
							"type": "address"
						},
						{
							"internalType": "address",
							"name": "",
							"type": "address"
						}
					],
					"name": "allowance",
					"outputs": [
						{
							"internalType": "uint160",
							"name": "amount",
							"type": "uint160"
						},
						{
							"internalType": "uint48",
							"name": "expiration",
							"type": "uint48"
						},
						{
							"internalType": "uint48",
							"name": "nonce",
							"type": "uint48"
						}
					],
					"stateMutability": "view",
					"type": "function"
				},
				{
					"inputs": [
						{
							"internalType": "address",
							"name": "token",
							"type": "address"
						},
						{
							"internalType": "address",
							"name": "spender",
							"type": "address"
						},
						{
							"internalType": "uint160",
							"name": "amount",
							"type": "uint160"
						},
						{
							"internalType": "uint48",
							"name": "expiration",
							"type": "uint48"
						}
					],
					"name": "approve",
					"outputs": [],
					"stateMutability": "nonpayable",
					"type": "function"
				},
				{
					"inputs": [
						{
							"internalType": "address",
							"name": "token",
							"type": "address"
						},
						{
							"internalType": "address",
							"name": "spender",
							"type": "address"
						},
						{
							"internalType": "uint48",
							"name": "newNonce",
							"type": "uint48"
						}
					],
					"name": "invalidateNonces",
					"outputs": [],
					"stateMutability": "nonpayable",
					"type": "function"
				},
				{
					"inputs": [
						{
							"internalType": "uint256",
							"name": "wordPos",
							"type": "uint256"
						},
						{
							"internalType": "uint256",
							"name": "mask",
							"type": "uint256"
						}
					],
					"name": "invalidateUnorderedNonces",
					"outputs": [],
					"stateMutability": "nonpayable",
					"type": "function"
				},
				{
					"inputs": [
						{
							"components": [
								{
									"internalType": "address",
									"name": "token",
									"type": "address"
								},
								{
									"internalType": "address",
									"name": "spender",
									"type": "address"
								}
							],
							"internalType": "struct IAllowanceTransfer.TokenSpenderPair[]",
							"name": "approvals",
							"type": "tuple[]"
						}
					],
					"name": "lockdown",
					"outputs": [],
					"stateMutability": "nonpayable",
					"type": "function"
				},
				{
					"inputs": [
						{
							"internalType": "address",
							"name": "",
							"type": "address"
						},
						{
							"internalType": "uint256",
							"name": "",
							"type": "uint256"
						}
					],
					"name": "nonceBitmap",
					"outputs": [
						{
							"internalType": "uint256",
							"name": "",
							"type": "uint256"
						}
					],
					"stateMutability": "view",
					"type": "function"
				},
				{
					"inputs": [
						{
							"internalType": "address",
							"name": "owner",
							"type": "address"
						},
						{
							"components": [
								{
									"components": [
										{
											"internalType": "address",
											"name": "token",
											"type": "address"
										},
										{
											"internalType": "uint160",
											"name": "amount",
											"type": "uint160"
										},
										{
											"internalType": "uint48",
											"name": "expiration",
											"type": "uint48"
										},
										{
											"internalType": "uint48",
											"name": "nonce",
											"type": "uint48"
										}
									],
									"internalType": "struct IAllowanceTransfer.PermitDetails[]",
									"name": "details",
									"type": "tuple[]"
								},
								{
									"internalType": "address",
									"name": "spender",
									"type": "address"
								},
								{
									"internalType": "uint256",
									"name": "sigDeadline",
									"type": "uint256"
								}
							],
							"internalType": "struct IAllowanceTransfer.PermitBatch",
							"name": "permitBatch",
							"type": "tuple"
						},
						{
							"internalType": "bytes",
							"name": "signature",
							"type": "bytes"
						}
					],
					"name": "permit",
					"outputs": [],
					"stateMutability": "nonpayable",
					"type": "function"
				},
				{
					"inputs": [
						{
							"internalType": "address",
							"name": "owner",
							"type": "address"
						},
						{
							"components": [
								{
									"components": [
										{
											"internalType": "address",
											"name": "token",
											"type": "address"
										},
										{
											"internalType": "uint160",
											"name": "amount",
											"type": "uint160"
										},
										{
											"internalType": "uint48",
											"name": "expiration",
											"type": "uint48"
										},
										{
											"internalType": "uint48",
											"name": "nonce",
											"type": "uint48"
										}
									],
									"internalType": "struct IAllowanceTransfer.PermitDetails",
									"name": "details",
									"type": "tuple"
								},
								{
									"internalType": "address",
									"name": "spender",
									"type": "address"
								},
								{
									"internalType": "uint256",
									"name": "sigDeadline",
									"type": "uint256"
								}
							],
							"internalType": "struct IAllowanceTransfer.PermitSingle",
							"name": "permitSingle",
							"type": "tuple"
						},
						{
							"internalType": "bytes",
							"name": "signature",
							"type": "bytes"
						}
					],
					"name": "permit",
					"outputs": [],
					"stateMutability": "nonpayable",
					"type": "function"
				},
				{
					"inputs": [
						{
							"components": [
								{
									"components": [
										{
											"internalType": "address",
											"name": "token",
											"type": "address"
										},
										{
											"internalType": "uint256",
											"name": "amount",
											"type": "uint256"
										}
									],
									"internalType": "struct ISignatureTransfer.TokenPermissions",
									"name": "permitted",
									"type": "tuple"
								},
								{
									"internalType": "uint256",
									"name": "nonce",
									"type": "uint256"
								},
								{
									"internalType": "uint256",
									"name": "deadline",
									"type": "uint256"
								}
							],
							"internalType": "struct ISignatureTransfer.PermitTransferFrom",
							"name": "permit",
							"type": "tuple"
						},
						{
							"components": [
								{
									"internalType": "address",
									"name": "to",
									"type": "address"
								},
								{
									"internalType": "uint256",
									"name": "requestedAmount",
									"type": "uint256"
								}
							],
							"internalType": "struct ISignatureTransfer.SignatureTransferDetails",
							"name": "transferDetails",
							"type": "tuple"
						},
						{
							"internalType": "address",
							"name": "owner",
							"type": "address"
						},
						{
							"internalType": "bytes",
							"name": "signature",
							"type": "bytes"
						}
					],
					"name": "permitTransferFrom",
					"outputs": [],
					"stateMutability": "nonpayable",
					"type": "function"
				},
				{
					"inputs": [
						{
							"components": [
								{
									"components": [
										{
											"internalType": "address",
											"name": "token",
											"type": "address"
										},
										{
											"internalType": "uint256",
											"name": "amount",
											"type": "uint256"
										}
									],
									"internalType": "struct ISignatureTransfer.TokenPermissions[]",
									"name": "permitted",
									"type": "tuple[]"
								},
								{
									"internalType": "uint256",
									"name": "nonce",
									"type": "uint256"
								},
								{
									"internalType": "uint256",
									"name": "deadline",
									"type": "uint256"
								}
							],
							"internalType": "struct ISignatureTransfer.PermitBatchTransferFrom",
							"name": "permit",
							"type": "tuple"
						},
						{
							"components": [
								{
									"internalType": "address",
									"name": "to",
									"type": "address"
								},
								{
									"internalType": "uint256",
									"name": "requestedAmount",
									"type": "uint256"
								}
							],
							"internalType": "struct ISignatureTransfer.SignatureTransferDetails[]",
							"name": "transferDetails",
							"type": "tuple[]"
						},
						{
							"internalType": "address",
							"name": "owner",
							"type": "address"
						},
						{
							"internalType": "bytes",
							"name": "signature",
							"type": "bytes"
						}
					],
					"name": "permitTransferFrom",
					"outputs": [],
					"stateMutability": "nonpayable",
					"type": "function"
				},
				{
					"inputs": [
						{
							"components": [
								{
									"components": [
										{
											"internalType": "address",
											"name": "token",
											"type": "address"
										},
										{
											"internalType": "uint256",
											"name": "amount",
											"type": "uint256"
										}
									],
									"internalType": "struct ISignatureTransfer.TokenPermissions",
									"name": "permitted",
									"type": "tuple"
								},
								{
									"internalType": "uint256",
									"name": "nonce",
									"type": "uint256"
								},
								{
									"internalType": "uint256",
									"name": "deadline",
									"type": "uint256"
								}
							],
							"internalType": "struct ISignatureTransfer.PermitTransferFrom",
							"name": "permit",
							"type": "tuple"
						},
						{
							"components": [
								{
									"internalType": "address",
									"name": "to",
									"type": "address"
								},
								{
									"internalType": "uint256",
									"name": "requestedAmount",
									"type": "uint256"
								}
							],
							"internalType": "struct ISignatureTransfer.SignatureTransferDetails",
							"name": "transferDetails",
							"type": "tuple"
						},
						{
							"internalType": "address",
							"name": "owner",
							"type": "address"
						},
						{
							"internalType": "bytes32",
							"name": "witness",
							"type": "bytes32"
						},
						{
							"internalType": "string",
							"name": "witnessTypeString",
							"type": "string"
						},
						{
							"internalType": "bytes",
							"name": "signature",
							"type": "bytes"
						}
					],
					"name": "permitWitnessTransferFrom",
					"outputs": [],
					"stateMutability": "nonpayable",
					"type": "function"
				},
				{
					"inputs": [
						{
							"components": [
								{
									"components": [
										{
											"internalType": "address",
											"name": "token",
											"type": "address"
										},
										{
											"internalType": "uint256",
											"name": "amount",
											"type": "uint256"
										}
									],
									"internalType": "struct ISignatureTransfer.TokenPermissions[]",
									"name": "permitted",
									"type": "tuple[]"
								},
								{
									"internalType": "uint256",
									"name": "nonce",
									"type": "uint256"
								},
								{
									"internalType": "uint256",
									"name": "deadline",
									"type": "uint256"
								}
							],
							"internalType": "struct ISignatureTransfer.PermitBatchTransferFrom",
							"name": "permit",
							"type": "tuple"
						},
						{
							"components": [
								{
									"internalType": "address",
									"name": "to",
									"type": "address"
								},
								{
									"internalType": "uint256",
									"name": "requestedAmount",
									"type": "uint256"
								}
							],
							"internalType": "struct ISignatureTransfer.SignatureTransferDetails[]",
							"name": "transferDetails",
							"type": "tuple[]"
						},
						{
							"internalType": "address",
							"name": "owner",
							"type": "address"
						},
						{
							"internalType": "bytes32",
							"name": "witness",
							"type": "bytes32"
						},
						{
							"internalType": "string",
							"name": "witnessTypeString",
							"type": "string"
						},
						{
							"internalType": "bytes",
							"name": "signature",
							"type": "bytes"
						}
					],
					"name": "permitWitnessTransferFrom",
					"outputs": [],
					"stateMutability": "nonpayable",
					"type": "function"
				},
				{
					"inputs": [
						{
							"components": [
								{
									"internalType": "address",
									"name": "from",
									"type": "address"
								},
								{
									"internalType": "address",
									"name": "to",
									"type": "address"
								},
								{
									"internalType": "uint160",
									"name": "amount",
									"type": "uint160"
								},
								{
									"internalType": "address",
									"name": "token",
									"type": "address"
								}
							],
							"internalType": "struct IAllowanceTransfer.AllowanceTransferDetails[]",
							"name": "transferDetails",
							"type": "tuple[]"
						}
					],
					"name": "transferFrom",
					"outputs": [],
					"stateMutability": "nonpayable",
					"type": "function"
				},
				{
					"inputs": [
						{
							"internalType": "address",
							"name": "from",
							"type": "address"
						},
						{
							"internalType": "address",
							"name": "to",
							"type": "address"
						},
						{
							"internalType": "uint160",
							"name": "amount",
							"type": "uint160"
						},
						{
							"internalType": "address",
							"name": "token",
							"type": "address"
						}
					],
					"name": "transferFrom",
					"outputs": [],
					"stateMutability": "nonpayable",
					"type": "function"
				}
			],
			"devdoc": {
				"details": "Users must approve Permit2 before calling any of the transfer functions.",
				"errors": {
					"AllowanceExpired(uint256)": [
						{
							"params": {
								"deadline": "The timestamp at which the allowed amount is no longer valid"
							}
						}
					],
					"InsufficientAllowance(uint256)": [
						{
							"params": {
								"amount": "The maximum amount allowed"
							}
						}
					],
					"InvalidAmount(uint256)": [
						{
							"params": {
								"maxAmount": "The maximum amount a spender can request to transfer"
							}
						}
					],
					"LengthMismatch()": [
						{
							"details": "If the spender does not need to transfer the number of tokens permitted, the spender can request amount 0 to be transferred"
						}
					],
					"SignatureExpired(uint256)": [
						{
							"params": {
								"signatureDeadline": "The timestamp at which a signature is no longer valid"
							}
						}
					]
				},
				"kind": "dev",
				"methods": {
					"DOMAIN_SEPARATOR()": {
						"details": "Uses cached version if chainid and address are unchanged from construction."
					},
					"approve(address,address,uint160,uint48)": {
						"details": "The packed allowance also holds a nonce, which will stay unchanged in approveSetting amount to type(uint160).max sets an unlimited approval",
						"params": {
							"amount": "The approved amount of the token",
							"expiration": "The timestamp at which the approval is no longer valid",
							"spender": "The spender address to approve",
							"token": "The token to approve"
						}
					},
					"invalidateNonces(address,address,uint48)": {
						"details": "Can't invalidate more than 2**16 nonces per transaction.",
						"params": {
							"newNonce": "The new nonce to set. Invalidates all nonces less than it.",
							"spender": "The spender to invalidate nonces for",
							"token": "The token to invalidate nonces for"
						}
					},
					"invalidateUnorderedNonces(uint256,uint256)": {
						"details": "The wordPos is maxed at type(uint248).max",
						"params": {
							"mask": "A bitmap masked against msg.sender's current bitmap at the word position",
							"wordPos": "A number to index the nonceBitmap at"
						}
					},
					"lockdown((address,address)[])": {
						"params": {
							"approvals": "Array of approvals to revoke."
						}
					},
					"permit(address,((address,uint160,uint48,uint48),address,uint256),bytes)": {
						"details": "May fail if the owner's nonce was invalidated in-flight by invalidateNonce",
						"params": {
							"owner": "The owner of the tokens being approved",
							"permitSingle": "Data signed over by the owner specifying the terms of approval",
							"signature": "The owner's signature over the permit data"
						}
					},
					"permit(address,((address,uint160,uint48,uint48)[],address,uint256),bytes)": {
						"details": "May fail if the owner's nonce was invalidated in-flight by invalidateNonce",
						"params": {
							"owner": "The owner of the tokens being approved",
							"permitBatch": "Data signed over by the owner specifying the terms of approval",
							"signature": "The owner's signature over the permit data"
						}
					},
					"permitTransferFrom(((address,uint256),uint256,uint256),(address,uint256),address,bytes)": {
						"details": "Reverts if the requested amount is greater than the permitted signed amount",
						"params": {
							"owner": "The owner of the tokens to transfer",
							"permit": "The permit data signed over by the owner",
							"signature": "The signature to verify",
							"transferDetails": "The spender's requested transfer details for the permitted token"
						}
					},
					"permitTransferFrom(((address,uint256)[],uint256,uint256),(address,uint256)[],address,bytes)": {
						"params": {
							"owner": "The owner of the tokens to transfer",
							"permit": "The permit data signed over by the owner",
							"signature": "The signature to verify",
							"transferDetails": "Specifies the recipient and requested amount for the token transfer"
						}
					},
					"permitWitnessTransferFrom(((address,uint256),uint256,uint256),(address,uint256),address,bytes32,string,bytes)": {
						"details": "The witness type string must follow EIP712 ordering of nested structs and must include the TokenPermissions type definitionReverts if the requested amount is greater than the permitted signed amount",
						"params": {
							"owner": "The owner of the tokens to transfer",
							"permit": "The permit data signed over by the owner",
							"signature": "The signature to verify",
							"transferDetails": "The spender's requested transfer details for the permitted token",
							"witness": "Extra data to include when checking the user signature",
							"witnessTypeString": "The EIP-712 type definition for remaining string stub of the typehash"
						}
					},
					"permitWitnessTransferFrom(((address,uint256)[],uint256,uint256),(address,uint256)[],address,bytes32,string,bytes)": {
						"details": "The witness type string must follow EIP712 ordering of nested structs and must include the TokenPermissions type definition",
						"params": {
							"owner": "The owner of the tokens to transfer",
							"permit": "The permit data signed over by the owner",
							"signature": "The signature to verify",
							"transferDetails": "Specifies the recipient and requested amount for the token transfer",
							"witness": "Extra data to include when checking the user signature",
							"witnessTypeString": "The EIP-712 type definition for remaining string stub of the typehash"
						}
					},
					"transferFrom((address,address,uint160,address)[])": {
						"details": "Requires the from addresses to have approved at least the desired amount of tokens to msg.sender.",
						"params": {
							"transferDetails": "Array of owners, recipients, amounts, and tokens for the transfers"
						}
					},
					"transferFrom(address,address,uint160,address)": {
						"details": "Requires the from address to have approved at least the desired amount of tokens to msg.sender.",
						"params": {
							"amount": "The amount of the token to transfer",
							"from": "The address to transfer from",
							"to": "The address of the recipient",
							"token": "The token address to transfer"
						}
					}
				},
				"version": 1
			},
			"evm": {
				"assembly": "    /* \"contracts/contracts/permit2/Permit2.sol\":385:537  contract Permit2 is SignatureTransfer, AllowanceTransfer {... */\n  0xc0\n  jumpi(tag_1, callvalue)\n    /* \"contracts/contracts/permit2/EIP712.sol\":919:932  block.chainid */\n  chainid\n    /* \"contracts/contracts/permit2/EIP712.sol\":900:932  _CACHED_CHAIN_ID = block.chainid */\n  0xa0\n  mstore\n    /* \"contracts/contracts/permit2/EIP712.sol\":1632:1692  abi.encode(typeHash, nameHash, block.chainid, address(this)) */\n  0x20\n  dup2\n  add\n    /* \"contracts/contracts/permit2/EIP712.sol\":789:869  keccak256(\"EIP712Domain(string name,uint256 chainId,address verifyingContract)\") */\n  0x8cad95687ba82c2ce50e74f7b754645e5117c3a5bec8151c0726d5857980a866\n    /* \"contracts/contracts/permit2/Permit2.sol\":385:537  contract Permit2 is SignatureTransfer, AllowanceTransfer {... */\n  dup2\n  mstore\n    /* \"contracts/contracts/permit2/EIP712.sol\":717:737  keccak256(\"Permit2\") */\n  0x9ac997416e8ff9d2ff6bebeb7149f65cdae5e32e2b90440b566bb3044041d36a\n    /* \"contracts/contracts/permit2/Permit2.sol\":385:537  contract Permit2 is SignatureTransfer, AllowanceTransfer {... */\n  0x40\n  dup4\n  add\n  mstore\n    /* \"contracts/contracts/permit2/EIP712.sol\":919:932  block.chainid */\n  chainid\n    /* \"contracts/contracts/permit2/Permit2.sol\":385:537  contract Permit2 is SignatureTransfer, AllowanceTransfer {... */\n  0x60\n  dup4\n  add\n  mstore\n    /* \"contracts/contracts/permit2/EIP712.sol\":1686:1690  this */\n  address\n    /* \"contracts/contracts/permit2/Permit2.sol\":385:537  contract Permit2 is SignatureTransfer, AllowanceTransfer {... */\n  0x80\n  dup4\n  add\n  mstore\n  0x80\n    /* \"contracts/contracts/permit2/EIP712.sol\":1632:1692  abi.encode(typeHash, nameHash, block.chainid, address(this)) */\n  dup3\n  mstore\n    /* \"contracts/contracts/permit2/EIP712.sol\":900:932  _CACHED_CHAIN_ID = block.chainid */\n  0xa0\n    /* \"contracts/contracts/permit2/Permit2.sol\":385:537  contract Permit2 is SignatureTransfer, AllowanceTransfer {... */\n  dup3\n  add\n  swap2\n  dup1\n  dup4\n  lt\n  0x01\n  dup1\n  0x40\n  shl\n  sub\n  dup5\n  gt\n  or\n  tag_3\n  jumpi\n  dup3\n  0x40\n  mstore\n  mload\n    /* \"contracts/contracts/permit2/EIP712.sol\":1622:1693  keccak256(abi.encode(typeHash, nameHash, block.chainid, address(this))) */\n  swap1\n  keccak256\n    /* \"contracts/contracts/permit2/Permit2.sol\":385:537  contract Permit2 is SignatureTransfer, AllowanceTransfer {... */\n  0x80\n    /* \"contracts/contracts/permit2/EIP712.sol\":942:1016  _CACHED_DOMAIN_SEPARATOR = _buildDomainSeparator(_TYPE_HASH, _HASHED_NAME) */\n  mstore\n    /* \"contracts/contracts/permit2/Permit2.sol\":385:537  contract Permit2 is SignatureTransfer, AllowanceTransfer {... */\n  dataSize(sub_0)\n  swap1\n  dup2\n  dataOffset(sub_0)\n  dup3\n  codecopy\n  mload(0x80)\n  dup2\n  assignImmutable(\"0x4f4ac30ff8bfcef8cd1068d1427faf7fb52fa3a1610b1f430e1f69a91ebb9673\")\n    /* \"contracts/contracts/permit2/EIP712.sol\":900:932  _CACHED_CHAIN_ID = block.chainid */\n  0xa0\n    /* \"contracts/contracts/permit2/Permit2.sol\":385:537  contract Permit2 is SignatureTransfer, AllowanceTransfer {... */\n  mload\n  dup2\n  assignImmutable(\"0x3ab4fb69c8e122442af87ae588015f836e7cde3029bbb6dab1983bc840231d63\")\n  return\ntag_3:\n  mstore(0x00, shl(0xe0, 0x4e487b71))\n  mstore(0x04, 0x41)\n  revert(0x00, 0x24)\ntag_1:\n  0x00\n  dup1\n  revert\nstop\n\nsub_0: assembly {\n        /* \"contracts/contracts/permit2/Permit2.sol\":385:537  contract Permit2 is SignatureTransfer, AllowanceTransfer {... */\n      0x40\n      0x80\n      dup2\n      mstore\n      0x04\n      swap1\n      dup2\n      calldatasize\n      lt\n      iszero\n      tag_38\n      jumpi\n      0x00\n      dup1\n      revert\n    tag_38:\n      0x00\n      swap1\n      dup2\n      calldataload\n      0xe0\n      shr\n      dup1\n      0x0d58b1db\n      eq\n      tag_40\n      jumpi\n      dup1\n      0x137c29fe\n      eq\n      tag_42\n      jumpi\n      dup1\n      0x2a2d80d1\n      eq\n      tag_44\n      jumpi\n      dup1\n      0x2b67b570\n      eq\n      tag_46\n      jumpi\n      dup1\n      0x30f28b7a\n      eq\n      tag_48\n      jumpi\n      dup1\n      0x3644e515\n      eq\n      tag_50\n      jumpi\n      dup1\n      0x36c78516\n      eq\n      tag_52\n      jumpi\n      dup1\n      0x3ff9dcb1\n      eq\n      tag_54\n      jumpi\n      dup1\n      0x4fe02b44\n      eq\n      tag_56\n      jumpi\n      dup1\n      0x65d9723c\n      eq\n      tag_58\n      jumpi\n      dup1\n      0x87517c45\n      eq\n      tag_60\n      jumpi\n      dup1\n      0x927da105\n      eq\n      tag_62\n      jumpi\n      dup1\n      0xcc53287f\n      eq\n      tag_64\n      jumpi\n      dup1\n      0xedd9444b\n      eq\n      tag_66\n      jumpi\n      0xfe8ec1a7\n      eq\n      tag_68\n      jumpi\n      0x00\n      dup1\n      revert\n    tag_68:\n      jumpi(tag_72, callvalue)\n      jumpi(tag_72, slt(add(not(0x03), calldatasize), 0xc0))\n      sub(shl(0x40, 0x01), 0x01)\n      dup4\n      calldataload\n      dup2\n      dup2\n      gt\n      tag_74\n      jumpi\n      tag_76\n      swap1\n      calldatasize\n      swap1\n      dup7\n      add\n      tag_17\n      jump\t// in\n    tag_76:\n      calldataload(0x24)\n      dup3\n      dup2\n      gt\n      tag_77\n      jumpi\n      tag_79\n      swap1\n      calldatasize\n      swap1\n      dup8\n      add\n      tag_16\n      jump\t// in\n    tag_79:\n      tag_80\n      tag_9\n      jump\t// in\n    tag_80:\n      swap2\n      calldataload(0x84)\n      dup6\n      dup2\n      gt\n      tag_81\n      jumpi\n      tag_83\n      swap1\n      calldatasize\n      swap1\n      dup11\n      add\n      tag_12\n      jump\t// in\n    tag_83:\n      swap9\n      swap1\n      swap6\n      calldataload(0xa4)\n      swap1\n      dup2\n      gt\n      tag_84\n      jumpi\n      tag_86\n      swap2\n      calldatasize\n      swap2\n      add\n      tag_12\n      jump\t// in\n    tag_86:\n      swap7\n      swap1\n      swap6\n      dup2\n      mload\n      swap1\n      tag_87\n      dup3\n      tag_3\n      jump\t// in\n    tag_87:\n      0x6b\n      dup3\n      mstore\n      0x5065726d697442617463685769746e6573735472616e7366657246726f6d2854\n      0x20\n      dup4\n      add\n      mstore\n      0x6f6b656e5065726d697373696f6e735b5d207065726d69747465642c61646472\n      dup4\n      dup4\n      add\n      mstore\n      0x657373207370656e6465722c75696e74323536206e6f6e63652c75696e743235\n      0x60\n      dup4\n      add\n      mstore\n      shl(0xaa, 0x0d88191958591b1a5b994b)\n      0x80\n      dup4\n      add\n      mstore\n      dup3\n      mload\n        /* \"contracts/contracts/lib/PermitHash.sol\":4678:4764  abi.encodePacked(_PERMIT_BATCH_WITNESS_TRANSFER_FROM_TYPEHASH_STUB, witnessTypeString) */\n      swap11\n      dup12\n      swap2\n      dup2\n        /* \"contracts/contracts/lib/PermitHash.sol\":1621:1723  \"PermitWitnessTransferFrom(TokenPermissions permitted,address spender,uint256 nonce,uint256 deadline,\" */\n      tag_88\n        /* \"contracts/contracts/permit2/Permit2.sol\":385:537  contract Permit2 is SignatureTransfer, AllowanceTransfer {... */\n      0x20\n        /* \"contracts/contracts/lib/PermitHash.sol\":4678:4764  abi.encodePacked(_PERMIT_BATCH_WITNESS_TRANSFER_FROM_TYPEHASH_STUB, witnessTypeString) */\n      dup6\n      add\n        /* \"contracts/contracts/lib/PermitHash.sol\":1621:1723  \"PermitWitnessTransferFrom(TokenPermissions permitted,address spender,uint256 nonce,uint256 deadline,\" */\n      dup1\n      swap7\n      tag_32\n      jump\t// in\n    tag_88:\n        /* \"contracts/contracts/permit2/Permit2.sol\":385:537  contract Permit2 is SignatureTransfer, AllowanceTransfer {... */\n      swap2\n      dup3\n      calldatacopy\n      add\n      dup11\n      dup2\n      mstore\n        /* \"contracts/contracts/lib/PermitHash.sol\":4678:4764  abi.encodePacked(_PERMIT_BATCH_WITNESS_TRANSFER_FROM_TYPEHASH_STUB, witnessTypeString) */\n      sub\n        /* \"contracts/contracts/lib/PermitHash.sol\":4133:4213  abi.encodePacked(_PERMIT_TRANSFER_FROM_WITNESS_TYPEHASH_STUB, witnessTypeString) */\n      swap10\n        /* \"contracts/contracts/lib/PermitHash.sol\":4678:4764  abi.encodePacked(_PERMIT_BATCH_WITNESS_TRANSFER_FROM_TYPEHASH_STUB, witnessTypeString) */\n      tag_89\n        /* \"contracts/contracts/lib/PermitHash.sol\":4133:4213  abi.encodePacked(_PERMIT_TRANSFER_FROM_WITNESS_TYPEHASH_STUB, witnessTypeString) */\n      not(0x1f)\n        /* \"contracts/contracts/lib/PermitHash.sol\":4678:4764  abi.encodePacked(_PERMIT_BATCH_WITNESS_TRANSFER_FROM_TYPEHASH_STUB, witnessTypeString) */\n      swap12\n      dup13\n      dup2\n      add\n      dup4\n      mstore\n      dup3\n      tag_5\n      jump\t// in\n    tag_89:\n        /* \"contracts/contracts/lib/PermitHash.sol\":433:605  keccak256(... */\n      mload\n        /* \"contracts/contracts/lib/PermitHash.sol\":4668:4765  keccak256(abi.encodePacked(_PERMIT_BATCH_WITNESS_TRANSFER_FROM_TYPEHASH_STUB, witnessTypeString)) */\n      swap1\n      keccak256\n        /* \"contracts/contracts/lib/PermitHash.sol\":4799:4815  permit.permitted */\n      swap1\n      dup6\n      mload\n        /* \"contracts/contracts/lib/PermitHash.sol\":433:605  keccak256(... */\n      mload\n        /* \"contracts/contracts/lib/PermitHash.sol\":4873:4900  new bytes32[](numPermitted) */\n      tag_90\n      dup2\n      tag_22\n      jump\t// in\n    tag_90:\n        /* \"contracts/contracts/lib/PermitHash.sol\":4916:4929  uint256 i = 0 */\n      swap1\n      dup11\n        /* \"contracts/contracts/lib/PermitHash.sol\":4931:4947  i < numPermitted */\n    tag_91:\n      dup2\n      dup2\n      lt\n      tag_92\n      jumpi\n        /* \"contracts/contracts/permit2/Permit2.sol\":385:537  contract Permit2 is SignatureTransfer, AllowanceTransfer {... */\n      pop\n      pop\n        /* \"contracts/contracts/permit2/SignatureTransfer.sol\":3572:3581  signature */\n      tag_94\n        /* \"contracts/contracts/permit2/Permit2.sol\":385:537  contract Permit2 is SignatureTransfer, AllowanceTransfer {... */\n      swap10\n      swap11\n        /* \"contracts/contracts/lib/PermitHash.sol\":5088:5322  abi.encode(... */\n      tag_95\n        /* \"contracts/contracts/permit2/Permit2.sol\":385:537  contract Permit2 is SignatureTransfer, AllowanceTransfer {... */\n      swap2\n      dup4\n      mload\n        /* \"contracts/contracts/lib/PermitHash.sol\":5152:5191  abi.encodePacked(tokenPermissionHashes) */\n      tag_96\n      dup2\n        /* \"contracts/contracts/lib/PermitHash.sol\":661:834  keccak256(... */\n      tag_97\n        /* \"contracts/contracts/permit2/Permit2.sol\":385:537  contract Permit2 is SignatureTransfer, AllowanceTransfer {... */\n      0x20\n        /* \"contracts/contracts/lib/PermitHash.sol\":5152:5191  abi.encodePacked(tokenPermissionHashes) */\n      dup3\n      add\n        /* \"contracts/contracts/lib/PermitHash.sol\":661:834  keccak256(... */\n      dup1\n      swap6\n      tag_24\n      jump\t// in\n    tag_97:\n        /* \"contracts/contracts/lib/PermitHash.sol\":5152:5191  abi.encodePacked(tokenPermissionHashes) */\n      sub\n      dup5\n      dup2\n      add\n      dup4\n      mstore\n      dup3\n      tag_5\n      jump\t// in\n    tag_96:\n        /* \"contracts/contracts/lib/PermitHash.sol\":433:605  keccak256(... */\n      mload\n        /* \"contracts/contracts/lib/PermitHash.sol\":5142:5192  keccak256(abi.encodePacked(tokenPermissionHashes)) */\n      swap1\n      keccak256\n        /* \"contracts/contracts/permit2/Permit2.sol\":385:537  contract Permit2 is SignatureTransfer, AllowanceTransfer {... */\n      0x20\n        /* \"contracts/contracts/lib/PermitHash.sol\":5238:5250  permit.nonce */\n      dup10\n      dup2\n      add\n        /* \"contracts/contracts/permit2/Permit2.sol\":385:537  contract Permit2 is SignatureTransfer, AllowanceTransfer {... */\n      mload\n        /* \"contracts/contracts/lib/PermitHash.sol\":5268:5283  permit.deadline */\n      dup6\n      dup12\n      add\n        /* \"contracts/contracts/permit2/Permit2.sol\":385:537  contract Permit2 is SignatureTransfer, AllowanceTransfer {... */\n      mload\n      swap6\n      mload\n        /* \"contracts/contracts/lib/PermitHash.sol\":5088:5322  abi.encode(... */\n      swap2\n      dup3\n      add\n        /* \"contracts/contracts/permit2/Permit2.sol\":385:537  contract Permit2 is SignatureTransfer, AllowanceTransfer {... */\n      swap7\n      dup8\n      mstore\n        /* \"contracts/contracts/lib/PermitHash.sol\":1621:1723  \"PermitWitnessTransferFrom(TokenPermissions permitted,address spender,uint256 nonce,uint256 deadline,\" */\n      0x40\n      dup3\n      add\n        /* \"contracts/contracts/permit2/Permit2.sol\":385:537  contract Permit2 is SignatureTransfer, AllowanceTransfer {... */\n      swap3\n      swap1\n      swap3\n      mstore\n        /* \"contracts/contracts/lib/PermitHash.sol\":5210:5220  msg.sender */\n      caller\n        /* \"contracts/contracts/lib/PermitHash.sol\":1621:1723  \"PermitWitnessTransferFrom(TokenPermissions permitted,address spender,uint256 nonce,uint256 deadline,\" */\n      0x60\n      dup3\n      add\n        /* \"contracts/contracts/permit2/Permit2.sol\":385:537  contract Permit2 is SignatureTransfer, AllowanceTransfer {... */\n      mstore\n        /* \"contracts/contracts/lib/PermitHash.sol\":1621:1723  \"PermitWitnessTransferFrom(TokenPermissions permitted,address spender,uint256 nonce,uint256 deadline,\" */\n      0x80\n      dup2\n      add\n        /* \"contracts/contracts/permit2/Permit2.sol\":385:537  contract Permit2 is SignatureTransfer, AllowanceTransfer {... */\n      swap2\n      swap1\n      swap2\n      mstore\n      0xa0\n        /* \"contracts/contracts/lib/PermitHash.sol\":1621:1723  \"PermitWitnessTransferFrom(TokenPermissions permitted,address spender,uint256 nonce,uint256 deadline,\" */\n      dup2\n      add\n        /* \"contracts/contracts/permit2/Permit2.sol\":385:537  contract Permit2 is SignatureTransfer, AllowanceTransfer {... */\n      swap4\n      swap1\n      swap4\n      mstore\n      calldataload(0x64)\n        /* \"contracts/contracts/lib/PermitHash.sol\":1621:1723  \"PermitWitnessTransferFrom(TokenPermissions permitted,address spender,uint256 nonce,uint256 deadline,\" */\n      0xc0\n      dup5\n      add\n        /* \"contracts/contracts/permit2/Permit2.sol\":385:537  contract Permit2 is SignatureTransfer, AllowanceTransfer {... */\n      mstore\n      dup3\n        /* \"contracts/contracts/lib/PermitHash.sol\":1621:1723  \"PermitWitnessTransferFrom(TokenPermissions permitted,address spender,uint256 nonce,uint256 deadline,\" */\n      0xe0\n      dup2\n      add\n        /* \"contracts/contracts/lib/PermitHash.sol\":5088:5322  abi.encode(... */\n    tag_98:\n      sub\n      swap1\n      dup2\n      add\n      dup4\n      mstore\n      dup3\n      tag_5\n      jump\t// in\n    tag_95:\n        /* \"contracts/contracts/lib/PermitHash.sol\":433:605  keccak256(... */\n      mload\n        /* \"contracts/contracts/lib/PermitHash.sol\":5065:5332  keccak256(... */\n      swap1\n      keccak256\n        /* \"contracts/contracts/permit2/SignatureTransfer.sol\":3572:3581  signature */\n      swap4\n      tag_35\n      jump\t// in\n    tag_94:\n        /* \"contracts/contracts/permit2/Permit2.sol\":385:537  contract Permit2 is SignatureTransfer, AllowanceTransfer {... */\n      dup1\n      return\n        /* \"contracts/contracts/lib/PermitHash.sol\":4949:4952  ++i */\n    tag_92:\n        /* \"contracts/contracts/lib/PermitHash.sol\":5017:5033  permit.permitted */\n      dup1\n        /* \"contracts/contracts/lib/PermitHash.sol\":4995:5037  _hashTokenPermissions(permit.permitted[i]) */\n      tag_99\n        /* \"contracts/contracts/lib/PermitHash.sol\":5017:5036  permit.permitted[i] */\n      tag_100\n        /* \"contracts/contracts/lib/PermitHash.sol\":4949:4952  ++i */\n      tag_101\n        /* \"contracts/contracts/lib/PermitHash.sol\":5017:5033  permit.permitted */\n      swap4\n      dup13\n      mload\n        /* \"contracts/contracts/lib/PermitHash.sol\":5017:5036  permit.permitted[i] */\n      tag_21\n      jump\t// in\n    tag_100:\n      mload\n        /* \"contracts/contracts/lib/PermitHash.sol\":4995:5037  _hashTokenPermissions(permit.permitted[i]) */\n      tag_31\n      jump\t// in\n    tag_99:\n        /* \"contracts/contracts/lib/PermitHash.sol\":4968:5037  tokenPermissionHashes[i] = _hashTokenPermissions(permit.permitted[i]) */\n      tag_102\n      dup3\n      dup7\n      tag_21\n      jump\t// in\n    tag_102:\n        /* \"contracts/contracts/permit2/Permit2.sol\":385:537  contract Permit2 is SignatureTransfer, AllowanceTransfer {... */\n      mstore\n        /* \"contracts/contracts/lib/PermitHash.sol\":4949:4952  ++i */\n      tag_23\n      jump\t// in\n    tag_101:\n        /* \"contracts/contracts/lib/PermitHash.sol\":4916:4929  uint256 i = 0 */\n      jump(tag_91)\n        /* \"contracts/contracts/permit2/Permit2.sol\":385:537  contract Permit2 is SignatureTransfer, AllowanceTransfer {... */\n    tag_84:\n      dup9\n      dup1\n      revert\n    tag_81:\n      dup8\n      dup1\n      revert\n    tag_77:\n      dup5\n      dup1\n      revert\n    tag_74:\n      dup4\n      dup1\n      revert\n    tag_72:\n      pop\n      dup1\n      revert\n    tag_66:\n      pop\n      swap2\n      jumpi(tag_72, callvalue)\n      jumpi(tag_72, slt(add(not(0x03), calldatasize), 0x80))\n      sub(shl(0x40, 0x01), 0x01)\n      swap1\n      dup1\n      calldataload\n      dup3\n      dup2\n      gt\n      tag_74\n      jumpi\n      tag_109\n      swap1\n      calldatasize\n      swap1\n      dup4\n      add\n      tag_17\n      jump\t// in\n    tag_109:\n      calldataload(0x24)\n      dup4\n      dup2\n      gt\n      tag_77\n      jumpi\n      tag_112\n      swap1\n      calldatasize\n      swap1\n      dup5\n      add\n      tag_16\n      jump\t// in\n    tag_112:\n      swap4\n      swap1\n      swap3\n      tag_113\n      tag_9\n      jump\t// in\n    tag_113:\n      swap2\n      calldataload(0x64)\n      swap1\n      dup2\n      gt\n      tag_114\n      jumpi\n      tag_116\n      swap2\n      calldatasize\n      swap2\n      add\n      tag_12\n      jump\t// in\n    tag_116:\n        /* \"contracts/contracts/lib/PermitHash.sol\":3353:3369  permit.permitted */\n      swap5\n      swap1\n      swap4\n      dup4\n      mload\n        /* \"contracts/contracts/lib/PermitHash.sol\":433:605  keccak256(... */\n      mload\n        /* \"contracts/contracts/lib/PermitHash.sol\":3427:3454  new bytes32[](numPermitted) */\n      swap8\n      tag_117\n      dup10\n      tag_22\n      jump\t// in\n    tag_117:\n        /* \"contracts/contracts/lib/PermitHash.sol\":3470:3483  uint256 i = 0 */\n      swap9\n      dup9\n        /* \"contracts/contracts/lib/PermitHash.sol\":3485:3501  i < numPermitted */\n    tag_118:\n      dup2\n      dup2\n      lt\n      tag_119\n      jumpi\n        /* \"contracts/contracts/permit2/Permit2.sol\":385:537  contract Permit2 is SignatureTransfer, AllowanceTransfer {... */\n      pop\n      pop\n        /* \"contracts/contracts/permit2/SignatureTransfer.sol\":3100:3109  signature */\n      tag_94\n        /* \"contracts/contracts/permit2/Permit2.sol\":385:537  contract Permit2 is SignatureTransfer, AllowanceTransfer {... */\n      swap8\n      swap9\n      dup2\n      mload\n        /* \"contracts/contracts/lib/PermitHash.sol\":3734:3773  abi.encodePacked(tokenPermissionHashes) */\n      tag_122\n      dup2\n        /* \"contracts/contracts/lib/PermitHash.sol\":661:834  keccak256(... */\n      tag_123\n        /* \"contracts/contracts/permit2/Permit2.sol\":385:537  contract Permit2 is SignatureTransfer, AllowanceTransfer {... */\n      0x20\n        /* \"contracts/contracts/lib/PermitHash.sol\":3734:3773  abi.encodePacked(tokenPermissionHashes) */\n      dup3\n      add\n        /* \"contracts/contracts/lib/PermitHash.sol\":661:834  keccak256(... */\n      dup1\n      swap6\n      tag_24\n      jump\t// in\n    tag_123:\n        /* \"contracts/contracts/lib/PermitHash.sol\":3734:3773  abi.encodePacked(tokenPermissionHashes) */\n      sub\n        /* \"contracts/contracts/lib/PermitHash.sol\":4133:4213  abi.encodePacked(_PERMIT_TRANSFER_FROM_WITNESS_TYPEHASH_STUB, witnessTypeString) */\n      not(0x1f)\n        /* \"contracts/contracts/lib/PermitHash.sol\":3734:3773  abi.encodePacked(tokenPermissionHashes) */\n      dup2\n      add\n      dup4\n      mstore\n      dup3\n      tag_5\n      jump\t// in\n    tag_122:\n        /* \"contracts/contracts/lib/PermitHash.sol\":433:605  keccak256(... */\n      mload\n        /* \"contracts/contracts/lib/PermitHash.sol\":3724:3774  keccak256(abi.encodePacked(tokenPermissionHashes)) */\n      swap1\n      keccak256\n        /* \"contracts/contracts/permit2/Permit2.sol\":385:537  contract Permit2 is SignatureTransfer, AllowanceTransfer {... */\n      0x20\n        /* \"contracts/contracts/lib/PermitHash.sol\":3820:3832  permit.nonce */\n      dup7\n      add\n        /* \"contracts/contracts/permit2/Permit2.sol\":385:537  contract Permit2 is SignatureTransfer, AllowanceTransfer {... */\n      mload\n        /* \"contracts/contracts/lib/PermitHash.sol\":3850:3865  permit.deadline */\n      dup3\n      dup8\n      add\n        /* \"contracts/contracts/permit2/Permit2.sol\":385:537  contract Permit2 is SignatureTransfer, AllowanceTransfer {... */\n      mload\n      swap1\n      dup4\n      mload\n        /* \"contracts/contracts/lib/PermitHash.sol\":3642:3879  abi.encode(... */\n      swap3\n        /* \"contracts/contracts/permit2/Permit2.sol\":385:537  contract Permit2 is SignatureTransfer, AllowanceTransfer {... */\n      0x20\n        /* \"contracts/contracts/lib/PermitHash.sol\":3642:3879  abi.encode(... */\n      dup5\n      add\n        /* \"contracts/contracts/permit2/Permit2.sol\":385:537  contract Permit2 is SignatureTransfer, AllowanceTransfer {... */\n      swap5\n        /* \"contracts/contracts/lib/PermitHash.sol\":1254:1427  keccak256(... */\n      0xfcf35f5ac6a2c28868dc44c302166470266239195f02b0ee408334829333b766\n        /* \"contracts/contracts/permit2/Permit2.sol\":385:537  contract Permit2 is SignatureTransfer, AllowanceTransfer {... */\n      dup7\n      mstore\n        /* \"contracts/contracts/lib/PermitHash.sol\":1018:1184  keccak256(... */\n      dup5\n      add\n        /* \"contracts/contracts/permit2/Permit2.sol\":385:537  contract Permit2 is SignatureTransfer, AllowanceTransfer {... */\n      mstore\n        /* \"contracts/contracts/lib/PermitHash.sol\":3792:3802  msg.sender */\n      caller\n        /* \"contracts/contracts/lib/PermitHash.sol\":1018:1184  keccak256(... */\n      0x60\n      dup5\n      add\n        /* \"contracts/contracts/permit2/Permit2.sol\":385:537  contract Permit2 is SignatureTransfer, AllowanceTransfer {... */\n      mstore\n      0x80\n        /* \"contracts/contracts/lib/PermitHash.sol\":1018:1184  keccak256(... */\n      dup4\n      add\n        /* \"contracts/contracts/permit2/Permit2.sol\":385:537  contract Permit2 is SignatureTransfer, AllowanceTransfer {... */\n      mstore\n        /* \"contracts/contracts/lib/PermitHash.sol\":1018:1184  keccak256(... */\n      0xa0\n      dup3\n      add\n        /* \"contracts/contracts/permit2/Permit2.sol\":385:537  contract Permit2 is SignatureTransfer, AllowanceTransfer {... */\n      mstore\n        /* \"contracts/contracts/lib/PermitHash.sol\":1018:1184  keccak256(... */\n      0xa0\n        /* \"contracts/contracts/lib/PermitHash.sol\":3642:3879  abi.encode(... */\n      dup2\n      mstore\n      tag_95\n      dup2\n      tag_4\n      jump\t// in\n        /* \"contracts/contracts/lib/PermitHash.sol\":3503:3506  ++i */\n    tag_119:\n        /* \"contracts/contracts/lib/PermitHash.sol\":3571:3587  permit.permitted */\n      dup1\n      dup12\n        /* \"contracts/contracts/lib/PermitHash.sol\":3522:3591  tokenPermissionHashes[i] = _hashTokenPermissions(permit.permitted[i]) */\n      tag_102\n        /* \"contracts/contracts/lib/PermitHash.sol\":3571:3587  permit.permitted */\n      dup3\n        /* \"contracts/contracts/lib/PermitHash.sol\":3549:3591  _hashTokenPermissions(permit.permitted[i]) */\n      tag_126\n        /* \"contracts/contracts/lib/PermitHash.sol\":3571:3590  permit.permitted[i] */\n      tag_100\n        /* \"contracts/contracts/lib/PermitHash.sol\":3503:3506  ++i */\n      tag_128\n        /* \"contracts/contracts/lib/PermitHash.sol\":3571:3587  permit.permitted */\n      swap7\n      dup14\n      mload\n        /* \"contracts/contracts/lib/PermitHash.sol\":3571:3590  permit.permitted[i] */\n      tag_21\n      jump\t// in\n        /* \"contracts/contracts/lib/PermitHash.sol\":3549:3591  _hashTokenPermissions(permit.permitted[i]) */\n    tag_126:\n        /* \"contracts/contracts/lib/PermitHash.sol\":3522:3591  tokenPermissionHashes[i] = _hashTokenPermissions(permit.permitted[i]) */\n      swap3\n      tag_21\n      jump\t// in\n        /* \"contracts/contracts/lib/PermitHash.sol\":3503:3506  ++i */\n    tag_128:\n        /* \"contracts/contracts/lib/PermitHash.sol\":3470:3483  uint256 i = 0 */\n      jump(tag_118)\n        /* \"contracts/contracts/permit2/Permit2.sol\":385:537  contract Permit2 is SignatureTransfer, AllowanceTransfer {... */\n    tag_114:\n      dup7\n      dup1\n      revert\n    tag_64:\n      pop\n      dup3\n      jumpi(tag_129, callvalue)\n      0x20\n      swap1\n      dup2\n      add(calldatasize, not(0x03))\n      slt\n      tag_74\n      jumpi\n      dup1\n      calldataload\n      swap1\n      sub(shl(0x40, 0x01), 0x01)\n      dup3\n      gt\n      tag_77\n      jumpi\n      tag_135\n      swap2\n      calldatasize\n      swap2\n      add\n      tag_16\n      jump\t// in\n    tag_135:\n        /* \"contracts/contracts/permit2/AllowanceTransfer.sol\":4500:4513  uint256 i = 0 */\n      swap3\n      swap1\n      swap2\n      dup5\n        /* \"contracts/contracts/permit2/AllowanceTransfer.sol\":4515:4525  i < length */\n    tag_136:\n      dup5\n      dup2\n      lt\n      tag_137\n      jumpi\n        /* \"contracts/contracts/permit2/Permit2.sol\":385:537  contract Permit2 is SignatureTransfer, AllowanceTransfer {... */\n      dup6\n      dup1\n      return\n        /* \"contracts/contracts/permit2/AllowanceTransfer.sol\":4527:4530  ++i */\n    tag_137:\n        /* \"contracts/contracts/permit2/AllowanceTransfer.sol\":4566:4578  approvals[i] */\n      dup1\n        /* \"contracts/contracts/permit2/AllowanceTransfer.sol\":4566:4584  approvals[i].token */\n      tag_139\n        /* \"contracts/contracts/permit2/AllowanceTransfer.sol\":4566:4578  approvals[i] */\n      tag_140\n        /* \"contracts/contracts/permit2/Permit2.sol\":385:537  contract Permit2 is SignatureTransfer, AllowanceTransfer {... */\n      0x01\n        /* \"contracts/contracts/permit2/AllowanceTransfer.sol\":4566:4578  approvals[i] */\n      swap4\n      dup9\n      dup9\n      tag_26\n      jump\t// in\n    tag_140:\n        /* \"contracts/contracts/permit2/AllowanceTransfer.sol\":4566:4584  approvals[i].token */\n      tag_27\n      jump\t// in\n    tag_139:\n        /* \"contracts/contracts/permit2/AllowanceTransfer.sol\":4620:4640  approvals[i].spender */\n      tag_141\n        /* \"contracts/contracts/permit2/AllowanceTransfer.sol\":4620:4632  approvals[i] */\n      dup5\n      tag_142\n      dup5\n      dup11\n      dup11\n      tag_26\n      jump\t// in\n    tag_142:\n        /* \"contracts/contracts/permit2/AllowanceTransfer.sol\":4620:4640  approvals[i].spender */\n      add\n      tag_27\n      jump\t// in\n    tag_141:\n        /* \"contracts/contracts/permit2/AllowanceTransfer.sol\":4337:4347  msg.sender */\n      caller\n        /* \"contracts/contracts/permit2/Permit2.sol\":385:537  contract Permit2 is SignatureTransfer, AllowanceTransfer {... */\n      dup10\n      mstore\n      dup4\n      dup6\n      mstore\n      dup6\n      dup10\n      keccak256\n      swap2\n      dup5\n      dup1\n      0xa0\n      shl\n      sub\n      dup1\n      swap2\n      and\n      swap3\n      dup4\n      dup12\n      mstore\n      dup7\n      mstore\n      dup7\n      dup11\n      keccak256\n      swap2\n      and\n      swap1\n      dup2\n      dup11\n      mstore\n      dup6\n      mstore\n      dup6\n      dup10\n      keccak256\n      shl(0xa0, 0xffffffffffffffffffffffff)\n      dup2\n      sload\n      and\n      swap1\n      sstore\n      dup6\n      mload\n      swap2\n      dup3\n      mstore\n      dup5\n      dup3\n      add\n      mstore\n        /* \"contracts/contracts/permit2/AllowanceTransfer.sol\":4725:4756  Lockdown(owner, token, spender) */\n      0x89b1add15eff56b3dfe299ad94e01f2b52fbcb80ae1a3baea6ae8c04cb2b98a4\n        /* \"contracts/contracts/permit2/AllowanceTransfer.sol\":4337:4347  msg.sender */\n      dup6\n      caller\n        /* \"contracts/contracts/permit2/AllowanceTransfer.sol\":4725:4756  Lockdown(owner, token, spender) */\n      swap3\n      log2\n        /* \"contracts/contracts/permit2/Permit2.sol\":385:537  contract Permit2 is SignatureTransfer, AllowanceTransfer {... */\n      add\n        /* \"contracts/contracts/permit2/AllowanceTransfer.sol\":4500:4513  uint256 i = 0 */\n      jump(tag_136)\n        /* \"contracts/contracts/permit2/Permit2.sol\":385:537  contract Permit2 is SignatureTransfer, AllowanceTransfer {... */\n    tag_129:\n      dup3\n      dup1\n      revert\n    tag_62:\n      pop\n      jumpi(tag_72, callvalue)\n      jumpi(tag_72, slt(add(not(0x03), calldatasize), 0x60))\n      tag_147\n      dup2\n      tag_148\n      tag_7\n      jump\t// in\n    tag_148:\n      swap4\n      tag_149\n      tag_8\n      jump\t// in\n    tag_149:\n      tag_150\n      tag_9\n      jump\t// in\n    tag_150:\n      sub(shl(0xa0, 0x01), 0x01)\n      swap7\n      dup8\n      and\n      dup4\n      mstore\n      0x01\n      0x20\n      swap1\n      dup2\n      mstore\n      dup5\n      dup5\n      keccak256\n      swap3\n      dup9\n      and\n      dup5\n      mstore\n      swap2\n      dup3\n      mstore\n      dup4\n      dup4\n      keccak256\n      swap1\n      dup8\n      and\n      dup4\n      mstore\n      dup2\n      mstore\n      swap2\n      swap1\n      keccak256\n      sload\n      swap3\n      mload\n      swap4\n      dup4\n      and\n      dup5\n      mstore\n      0xa0\n      dup4\n      swap1\n      shr\n      0xffffffffffff\n      and\n      swap1\n      dup5\n      add\n      mstore\n      0xd0\n      swap2\n      swap1\n      swap2\n      shr\n      0x40\n      dup4\n      add\n      mstore\n      dup2\n      swap1\n      0x60\n      dup3\n      add\n      swap1\n      jump\n    tag_147:\n      sub\n      swap1\n      return\n    tag_60:\n      pop\n      jumpi(tag_72, callvalue)\n      jumpi(tag_72, slt(add(not(0x03), calldatasize), 0x80))\n      tag_155\n      tag_7\n      jump\t// in\n    tag_155:\n      swap1\n      tag_156\n      tag_8\n      jump\t// in\n    tag_156:\n      swap2\n      tag_157\n      tag_9\n      jump\t// in\n    tag_157:\n      swap1\n      calldataload(0x64)\n      swap3\n      0xffffffffffff\n      swap4\n      dup5\n      dup2\n      and\n      swap1\n      dup2\n      dup2\n      sub\n      tag_81\n      jumpi\n        /* \"contracts/contracts/permit2/AllowanceTransfer.sol\":1469:1525  Approval(msg.sender, token, spender, amount, expiration) */\n      0xda9fa7c1b00402c17d0161b249b1ab8bbec047c5a52207b9c112deffd817036b\n        /* \"contracts/contracts/permit2/AllowanceTransfer.sol\":1364:1374  msg.sender */\n      swap4\n      caller\n        /* \"contracts/contracts/permit2/Permit2.sol\":385:537  contract Permit2 is SignatureTransfer, AllowanceTransfer {... */\n      dup10\n      mstore\n        /* \"contracts/contracts/permit2/AllowanceTransfer.sol\":1354:1363  allowance */\n      0x01\n        /* \"contracts/contracts/permit2/Permit2.sol\":385:537  contract Permit2 is SignatureTransfer, AllowanceTransfer {... */\n      0x20\n      mstore\n      dup4\n      dup10\n      keccak256\n      swap7\n      0x01\n      dup1\n      0xa0\n      shl\n      sub\n      dup1\n      swap3\n      and\n      swap8\n      dup9\n      dup12\n      mstore\n      0x20\n      mstore\n      dup2\n      dup6\n      dup12\n      keccak256\n      swap10\n      and\n      swap9\n      dup10\n      dup12\n      mstore\n      0x20\n      mstore\n      dup5\n      dup11\n      keccak256\n        /* \"contracts/contracts/lib/Allowance.sol\":1510:1564  expiration == 0 ? uint48(block.timestamp) : expiration */\n      swap3\n        /* \"contracts/contracts/lib/Allowance.sol\":1510:1525  expiration == 0 */\n      dup5\n      iszero\n        /* \"contracts/contracts/lib/Allowance.sol\":1510:1564  expiration == 0 ? uint48(block.timestamp) : expiration */\n      0x00\n        /* \"contracts/contracts/permit2/Permit2.sol\":385:537  contract Permit2 is SignatureTransfer, AllowanceTransfer {... */\n      eq\n      tag_160\n      jumpi\n        /* \"contracts/contracts/lib/Allowance.sol\":1535:1550  block.timestamp */\n      pop\n      timestamp\n        /* \"contracts/contracts/permit2/Permit2.sol\":385:537  contract Permit2 is SignatureTransfer, AllowanceTransfer {... */\n      and\n        /* \"contracts/contracts/lib/Allowance.sol\":1510:1564  expiration == 0 ? uint48(block.timestamp) : expiration */\n      swap1\n    tag_162:\n        /* \"contracts/contracts/permit2/Permit2.sol\":385:537  contract Permit2 is SignatureTransfer, AllowanceTransfer {... */\n      dup3\n      sload\n      not(sub(shl(0xd0, 0x01), 0x01))\n      and\n      0xa0\n      swap3\n      swap1\n      swap3\n      shl\n      shl(0xa0, 0xffffffffffff)\n      and\n      swap2\n      swap1\n      swap2\n      or\n      swap6\n      and\n      swap5\n      dup6\n      or\n      swap1\n      sstore\n      dup2\n      mload\n      swap4\n      dup5\n      mstore\n      0x20\n      dup5\n      add\n      mstore\n        /* \"contracts/contracts/permit2/AllowanceTransfer.sol\":1364:1374  msg.sender */\n      caller\n      swap3\n        /* \"contracts/contracts/permit2/AllowanceTransfer.sol\":1469:1525  Approval(msg.sender, token, spender, amount, expiration) */\n      log4\n        /* \"contracts/contracts/permit2/Permit2.sol\":385:537  contract Permit2 is SignatureTransfer, AllowanceTransfer {... */\n      dup1\n      return\n        /* \"contracts/contracts/lib/Allowance.sol\":1510:1564  expiration == 0 ? uint48(block.timestamp) : expiration */\n    tag_160:\n      swap1\n      pop\n      swap1\n      jump(tag_162)\n        /* \"contracts/contracts/permit2/Permit2.sol\":385:537  contract Permit2 is SignatureTransfer, AllowanceTransfer {... */\n    tag_58:\n      pop\n      dup3\n      jumpi(tag_129, callvalue)\n      jumpi(tag_129, slt(add(not(0x03), calldatasize), 0x60))\n      tag_167\n      tag_7\n      jump\t// in\n    tag_167:\n      swap1\n      tag_168\n      tag_8\n      jump\t// in\n    tag_168:\n      swap3\n      0xffffffffffff\n      calldataload(0x44)\n      dup2\n      dup2\n      and\n      swap4\n      swap1\n      dup5\n      dup2\n      sub\n      tag_81\n      jumpi\n        /* \"contracts/contracts/permit2/AllowanceTransfer.sol\":4954:4964  msg.sender */\n      caller\n        /* \"contracts/contracts/permit2/Permit2.sol\":385:537  contract Permit2 is SignatureTransfer, AllowanceTransfer {... */\n      dup9\n      mstore\n      0x20\n      swap2\n        /* \"contracts/contracts/permit2/AllowanceTransfer.sol\":4944:4953  allowance */\n      0x01\n        /* \"contracts/contracts/permit2/Permit2.sol\":385:537  contract Permit2 is SignatureTransfer, AllowanceTransfer {... */\n      dup4\n      mstore\n      dup5\n      dup10\n      keccak256\n      swap7\n      0x01\n      dup1\n      0xa0\n      shl\n      sub\n      dup1\n      swap2\n      and\n      swap8\n      dup9\n      dup12\n      mstore\n      dup5\n      mstore\n      dup6\n      dup11\n      keccak256\n      swap9\n      and\n      swap8\n      dup9\n      dup11\n      mstore\n      dup4\n      mstore\n      dup5\n      dup10\n      keccak256\n      sload\n      0xd0\n      shr\n        /* \"contracts/contracts/permit2/AllowanceTransfer.sol\":5002:5022  newNonce <= oldNonce */\n      swap4\n      dup5\n      dup8\n      gt\n      iszero\n        /* \"contracts/contracts/permit2/AllowanceTransfer.sol\":4998:5045  if (newNonce <= oldNonce) revert InvalidNonce() */\n      tag_171\n      jumpi\n        /* \"contracts/contracts/permit2/Permit2.sol\":385:537  contract Permit2 is SignatureTransfer, AllowanceTransfer {... */\n      0xffff\n      swap1\n      dup6\n      dup5\n      sub\n      and\n        /* \"contracts/contracts/permit2/AllowanceTransfer.sol\":5214:5238  delta > type(uint16).max */\n      gt\n        /* \"contracts/contracts/permit2/AllowanceTransfer.sol\":5210:5270  if (delta > type(uint16).max) revert ExcessiveInvalidation() */\n      tag_173\n      jumpi\n      pop\n        /* \"contracts/contracts/permit2/AllowanceTransfer.sol\":4954:4964  msg.sender */\n      caller\n        /* \"contracts/contracts/permit2/Permit2.sol\":385:537  contract Permit2 is SignatureTransfer, AllowanceTransfer {... */\n      dup1\n      dup10\n      mstore\n        /* \"contracts/contracts/permit2/AllowanceTransfer.sol\":4944:4953  allowance */\n      0x01\n        /* \"contracts/contracts/permit2/Permit2.sol\":385:537  contract Permit2 is SignatureTransfer, AllowanceTransfer {... */\n      dup4\n      mstore\n      dup5\n      dup10\n      keccak256\n      dup8\n      dup11\n      mstore\n      dup4\n      mstore\n      dup5\n      dup10\n      keccak256\n      dup9\n      dup11\n      mstore\n      dup4\n      mstore\n      dup5\n      dup10\n      keccak256\n      dup1\n      sload\n      sub(shl(0xd0, 0x01), 0x01)\n      and\n      0xd0\n      swap4\n      swap1\n      swap4\n      shl\n      not(sub(shl(0xd0, 0x01), 0x01))\n      and\n      swap3\n      swap1\n      swap3\n      or\n      swap1\n      swap2\n      sstore\n      dup4\n      mload\n      swap5\n      dup6\n      mstore\n      swap1\n      dup5\n      add\n      swap2\n      swap1\n      swap2\n      mstore\n        /* \"contracts/contracts/permit2/AllowanceTransfer.sol\":4954:4964  msg.sender */\n      swap2\n        /* \"contracts/contracts/permit2/AllowanceTransfer.sol\":5360:5425  NonceInvalidation(msg.sender, token, spender, newNonce, oldNonce) */\n      0x55eb90d810e1700b35a8e7e25395ff7f2b2259abd7415ca2284dfb1c246418f3\n      swap2\n        /* \"contracts/contracts/permit2/AllowanceTransfer.sol\":4954:4964  msg.sender */\n      swap1\n        /* \"contracts/contracts/permit2/AllowanceTransfer.sol\":5360:5425  NonceInvalidation(msg.sender, token, spender, newNonce, oldNonce) */\n      log4\n        /* \"contracts/contracts/permit2/Permit2.sol\":385:537  contract Permit2 is SignatureTransfer, AllowanceTransfer {... */\n      dup1\n      return\n        /* \"contracts/contracts/permit2/AllowanceTransfer.sol\":5210:5270  if (delta > type(uint16).max) revert ExcessiveInvalidation() */\n    tag_173:\n        /* \"contracts/contracts/permit2/Permit2.sol\":385:537  contract Permit2 is SignatureTransfer, AllowanceTransfer {... */\n      dup5\n      mload\n      shl(0xe1, 0x1269ad13)\n        /* \"contracts/contracts/permit2/AllowanceTransfer.sol\":5247:5270  ExcessiveInvalidation() */\n      dup2\n      mstore\n      revert\n        /* \"contracts/contracts/permit2/AllowanceTransfer.sol\":4998:5045  if (newNonce <= oldNonce) revert InvalidNonce() */\n    tag_171:\n      pop\n        /* \"contracts/contracts/permit2/Permit2.sol\":385:537  contract Permit2 is SignatureTransfer, AllowanceTransfer {... */\n      dup5\n      mload\n      shl(0xe1, 0x3ab3447f)\n        /* \"contracts/contracts/permit2/AllowanceTransfer.sol\":5031:5045  InvalidNonce() */\n      dup2\n      mstore\n      revert\n        /* \"contracts/contracts/permit2/Permit2.sol\":385:537  contract Permit2 is SignatureTransfer, AllowanceTransfer {... */\n    tag_56:\n      pop\n      jumpi(tag_72, callvalue)\n      dup1\n      add(calldatasize, not(0x03))\n      slt\n      tag_72\n      jumpi\n      0x20\n      swap2\n      dup2\n      swap1\n      sub(shl(0xa0, 0x01), 0x01)\n      tag_179\n      tag_7\n      jump\t// in\n    tag_179:\n      and\n      dup2\n      mstore\n      dup1\n      dup5\n      mstore\n      dup2\n      dup2\n      keccak256\n      calldataload(0x24)\n      dup3\n      mstore\n      dup5\n      mstore\n      keccak256\n      sload\n      swap1\n      mload\n      swap1\n      dup2\n      mstore\n      return\n    tag_54:\n      pop\n      dup3\n      jumpi(tag_129, callvalue)\n      dup2\n      add(calldatasize, not(0x03))\n      slt\n      tag_129\n      jumpi\n        /* \"contracts/contracts/permit2/SignatureTransfer.sol\":5308:5361  UnorderedNonceInvalidation(msg.sender, wordPos, mask) */\n      0x3704902f963766a4e561bbaab6e6cdc1b1dd12f6e9e99648da8843b3f46b918d\n        /* \"contracts/contracts/permit2/Permit2.sol\":385:537  contract Permit2 is SignatureTransfer, AllowanceTransfer {... */\n      swap1\n      calldataload\n      swap2\n      calldataload(0x24)\n        /* \"contracts/contracts/permit2/SignatureTransfer.sol\":5264:5274  msg.sender */\n      caller\n        /* \"contracts/contracts/permit2/Permit2.sol\":385:537  contract Permit2 is SignatureTransfer, AllowanceTransfer {... */\n      dup6\n      mstore\n      dup5\n      0x20\n      mstore\n      dup2\n      dup6\n      keccak256\n      dup5\n      dup7\n      mstore\n      0x20\n      mstore\n      dup2\n      dup6\n      keccak256\n      dup2\n      dup2\n      sload\n        /* \"contracts/contracts/permit2/SignatureTransfer.sol\":5252:5292  nonceBitmap[msg.sender][wordPos] |= mask */\n      or\n        /* \"contracts/contracts/permit2/Permit2.sol\":385:537  contract Permit2 is SignatureTransfer, AllowanceTransfer {... */\n      swap1\n      sstore\n      dup2\n      mload\n      swap4\n      dup5\n      mstore\n      0x20\n      dup5\n      add\n      mstore\n        /* \"contracts/contracts/permit2/SignatureTransfer.sol\":5264:5274  msg.sender */\n      caller\n        /* \"contracts/contracts/permit2/SignatureTransfer.sol\":5308:5361  UnorderedNonceInvalidation(msg.sender, wordPos, mask) */\n      swap3\n      log2\n        /* \"contracts/contracts/permit2/Permit2.sol\":385:537  contract Permit2 is SignatureTransfer, AllowanceTransfer {... */\n      dup1\n      return\n    tag_52:\n      dup3\n      jumpi(tag_186, callvalue)\n      jumpi(tag_186, slt(add(not(0x03), calldatasize), 0x80))\n      tag_188\n      tag_7\n      jump\t// in\n    tag_188:\n      tag_189\n      tag_8\n      jump\t// in\n    tag_189:\n      tag_190\n      tag_9\n      jump\t// in\n    tag_190:\n      calldataload(0x64)\n      swap2\n      sub(shl(0xa0, 0x01), 0x01)\n      dup4\n      and\n      dup4\n      sub\n      tag_77\n      jumpi\n        /* \"contracts/contracts/permit2/AllowanceTransfer.sol\":2822:2827  token */\n      tag_94\n      swap4\n      tag_25\n      jump\t// in\n        /* \"contracts/contracts/permit2/Permit2.sol\":385:537  contract Permit2 is SignatureTransfer, AllowanceTransfer {... */\n    tag_186:\n      dup1\n      revert\n    tag_50:\n      pop\n      jumpi(tag_72, callvalue)\n      dup2\n      add(calldatasize, not(0x03))\n      slt\n      tag_72\n      jumpi\n      0x20\n      swap1\n      tag_198\n      tag_29\n      jump\t// in\n    tag_198:\n      swap1\n      mload\n      swap1\n      dup2\n      mstore\n      return\n    tag_48:\n      pop\n      dup3\n      swap1\n      jumpi(tag_129, callvalue)\n      jumpi(tag_129, slt(add(not(0x03), calldatasize), 0x0100))\n      tag_203\n      calldatasize\n      tag_11\n      jump\t// in\n    tag_203:\n      swap1\n      dup1\n      add(calldatasize, not(0x83))\n      slt\n      tag_74\n      jumpi\n      tag_206\n      tag_6\n      jump\t// in\n    tag_206:\n      swap2\n      calldataload(0xe4)\n      sub(shl(0x40, 0x01), 0x01)\n      dup2\n      gt\n      tag_207\n      jumpi\n        /* \"contracts/contracts/permit2/SignatureTransfer.sol\":1148:1157  signature */\n      tag_94\n        /* \"contracts/contracts/permit2/Permit2.sol\":385:537  contract Permit2 is SignatureTransfer, AllowanceTransfer {... */\n      swap5\n      tag_210\n      swap2\n      calldatasize\n      swap2\n      add\n      tag_12\n      jump\t// in\n    tag_210:\n        /* \"contracts/contracts/lib/PermitHash.sol\":3029:3045  permit.permitted */\n      swap4\n      swap1\n      swap3\n        /* \"contracts/contracts/lib/PermitHash.sol\":3007:3046  _hashTokenPermissions(permit.permitted) */\n      tag_211\n        /* \"contracts/contracts/lib/PermitHash.sol\":3029:3045  permit.permitted */\n      dup4\n      mload\n        /* \"contracts/contracts/lib/PermitHash.sol\":3007:3046  _hashTokenPermissions(permit.permitted) */\n      tag_31\n      jump\t// in\n    tag_211:\n        /* \"contracts/contracts/lib/PermitHash.sol\":3163:3175  permit.nonce */\n      0x20\n      dup5\n      add\n        /* \"contracts/contracts/permit2/Permit2.sol\":385:537  contract Permit2 is SignatureTransfer, AllowanceTransfer {... */\n      mload\n        /* \"contracts/contracts/lib/PermitHash.sol\":3177:3192  permit.deadline */\n      dup3\n      dup6\n      add\n        /* \"contracts/contracts/permit2/Permit2.sol\":385:537  contract Permit2 is SignatureTransfer, AllowanceTransfer {... */\n      mload\n      swap1\n      dup4\n      mload\n        /* \"contracts/contracts/lib/PermitHash.sol\":3086:3193  abi.encode(_PERMIT_TRANSFER_FROM_TYPEHASH, tokenPermissionsHash, msg.sender, permit.nonce, permit.deadline) */\n      swap3\n        /* \"contracts/contracts/lib/PermitHash.sol\":3163:3175  permit.nonce */\n      0x20\n        /* \"contracts/contracts/lib/PermitHash.sol\":3086:3193  abi.encode(_PERMIT_TRANSFER_FROM_TYPEHASH, tokenPermissionsHash, msg.sender, permit.nonce, permit.deadline) */\n      dup5\n      add\n        /* \"contracts/contracts/permit2/Permit2.sol\":385:537  contract Permit2 is SignatureTransfer, AllowanceTransfer {... */\n      swap5\n        /* \"contracts/contracts/lib/PermitHash.sol\":1018:1184  keccak256(... */\n      0x939c21a48a8dbe3a9a2404a1d46691e4d39f6583d6ec6b35714604c986d80106\n        /* \"contracts/contracts/permit2/Permit2.sol\":385:537  contract Permit2 is SignatureTransfer, AllowanceTransfer {... */\n      dup7\n      mstore\n        /* \"contracts/contracts/lib/PermitHash.sol\":1018:1184  keccak256(... */\n      dup5\n      add\n        /* \"contracts/contracts/permit2/Permit2.sol\":385:537  contract Permit2 is SignatureTransfer, AllowanceTransfer {... */\n      mstore\n        /* \"contracts/contracts/lib/PermitHash.sol\":3151:3161  msg.sender */\n      caller\n        /* \"contracts/contracts/lib/PermitHash.sol\":1018:1184  keccak256(... */\n      0x60\n      dup5\n      add\n        /* \"contracts/contracts/permit2/Permit2.sol\":385:537  contract Permit2 is SignatureTransfer, AllowanceTransfer {... */\n      mstore\n        /* \"contracts/contracts/lib/PermitHash.sol\":1018:1184  keccak256(... */\n      0x80\n      dup4\n      add\n        /* \"contracts/contracts/permit2/Permit2.sol\":385:537  contract Permit2 is SignatureTransfer, AllowanceTransfer {... */\n      mstore\n        /* \"contracts/contracts/lib/PermitHash.sol\":1018:1184  keccak256(... */\n      0xa0\n      dup3\n      add\n        /* \"contracts/contracts/permit2/Permit2.sol\":385:537  contract Permit2 is SignatureTransfer, AllowanceTransfer {... */\n      mstore\n        /* \"contracts/contracts/lib/PermitHash.sol\":1018:1184  keccak256(... */\n      0xa0\n        /* \"contracts/contracts/lib/PermitHash.sol\":3086:3193  abi.encode(_PERMIT_TRANSFER_FROM_TYPEHASH, tokenPermissionsHash, msg.sender, permit.nonce, permit.deadline) */\n      dup2\n      mstore\n      tag_212\n      dup2\n      tag_4\n      jump\t// in\n    tag_212:\n        /* \"contracts/contracts/lib/PermitHash.sol\":433:605  keccak256(... */\n      mload\n        /* \"contracts/contracts/lib/PermitHash.sol\":3063:3203  keccak256(... */\n      swap1\n      keccak256\n        /* \"contracts/contracts/permit2/SignatureTransfer.sol\":1148:1157  signature */\n      swap2\n      tag_34\n      jump\t// in\n        /* \"contracts/contracts/permit2/Permit2.sol\":385:537  contract Permit2 is SignatureTransfer, AllowanceTransfer {... */\n    tag_207:\n      dup6\n      dup1\n      revert\n    tag_46:\n      pop\n      swap2\n      jumpi(tag_72, callvalue)\n      jumpi(tag_72, slt(add(not(0x03), calldatasize), 0x0100))\n      tag_217\n      tag_7\n      jump\t// in\n    tag_217:\n      add(not(0x23), calldatasize)\n      0xc0\n      dup2\n      slt\n      tag_74\n      jumpi\n      0x80\n      dup6\n      mload\n      swap2\n      tag_220\n      dup4\n      tag_2\n      jump\t// in\n    tag_220:\n      slt\n      tag_74\n      jumpi\n      dup5\n      mload\n      swap1\n      tag_223\n      dup3\n      tag_1\n      jump\t// in\n    tag_223:\n      sub(shl(0xa0, 0x01), 0x01)\n      swap2\n      calldataload(0x24)\n      dup4\n      dup2\n      and\n      dup2\n      sub\n      tag_114\n      jumpi\n      dup2\n      mstore\n      calldataload(0x44)\n      dup4\n      dup2\n      and\n      dup2\n      sub\n      tag_114\n      jumpi\n      0x20\n      dup3\n      add\n      mstore\n      0xffffffffffff\n      calldataload(0x64)\n      dup2\n      dup2\n      and\n      dup2\n      sub\n      tag_81\n      jumpi\n      dup9\n      dup4\n      add\n      mstore\n      calldataload(0x84)\n      swap1\n      dup2\n      and\n      dup2\n      sub\n      tag_114\n      jumpi\n      0x60\n      dup3\n      add\n      mstore\n      dup2\n      mstore\n      calldataload(0xa4)\n      swap4\n      dup3\n      dup6\n      and\n      dup6\n      sub\n      tag_207\n      jumpi\n      0x20\n      dup3\n      add\n      swap5\n      dup6\n      mstore\n      calldataload(0xc4)\n      swap1\n      dup8\n      dup4\n      add\n      dup3\n      dup2\n      mstore\n      calldataload(0xe4)\n      sub(shl(0x40, 0x01), 0x01)\n      dup2\n      gt\n      tag_84\n      jumpi\n      tag_236\n      swap1\n      calldatasize\n      swap1\n      dup5\n      add\n      tag_12\n      jump\t// in\n    tag_236:\n        /* \"contracts/contracts/permit2/AllowanceTransfer.sol\":1691:1706  block.timestamp */\n      swap3\n      swap1\n      swap4\n      dup1\n      timestamp\n        /* \"contracts/contracts/permit2/AllowanceTransfer.sol\":1691:1733  block.timestamp > permitSingle.sigDeadline */\n      gt\n        /* \"contracts/contracts/permit2/AllowanceTransfer.sol\":1687:1784  if (block.timestamp > permitSingle.sigDeadline) revert SignatureExpired(permitSingle.sigDeadline) */\n      tag_237\n      jumpi\n        /* \"contracts/contracts/lib/PermitHash.sol\":2078:2098  permitSingle.details */\n      pop\n      pop\n      swap2\n      dup6\n      swap2\n        /* \"contracts/contracts/permit2/AllowanceTransfer.sol\":1869:1904  _hashTypedData(permitSingle.hash()) */\n      tag_239\n        /* \"contracts/contracts/permit2/AllowanceTransfer.sol\":1968:1988  permitSingle.spender */\n      tag_94\n        /* \"contracts/contracts/lib/PermitHash.sol\":2078:2098  permitSingle.details */\n      swap10\n      swap11\n        /* \"contracts/contracts/permit2/AllowanceTransfer.sol\":1906:1911  owner */\n      tag_241\n        /* \"contracts/contracts/lib/PermitHash.sol\":2078:2098  permitSingle.details */\n      swap6\n        /* \"contracts/contracts/lib/PermitHash.sol\":2059:2099  _hashPermitDetails(permitSingle.details) */\n      tag_242\n        /* \"contracts/contracts/lib/PermitHash.sol\":2078:2098  permitSingle.details */\n      dup9\n      mload\n        /* \"contracts/contracts/lib/PermitHash.sol\":2059:2099  _hashPermitDetails(permitSingle.details) */\n      tag_18\n      jump\t// in\n    tag_242:\n        /* \"contracts/contracts/permit2/Permit2.sol\":385:537  contract Permit2 is SignatureTransfer, AllowanceTransfer {... */\n      swap1\n      dup10\n      dup13\n      mload\n      and\n      swap1\n      mload\n      swap1\n      dup4\n      mload\n        /* \"contracts/contracts/lib/PermitHash.sol\":2138:2233  abi.encode(_PERMIT_SINGLE_TYPEHASH, permitHash, permitSingle.spender, permitSingle.sigDeadline) */\n      swap3\n        /* \"contracts/contracts/permit2/Permit2.sol\":385:537  contract Permit2 is SignatureTransfer, AllowanceTransfer {... */\n      0x20\n        /* \"contracts/contracts/lib/PermitHash.sol\":2138:2233  abi.encode(_PERMIT_SINGLE_TYPEHASH, permitHash, permitSingle.spender, permitSingle.sigDeadline) */\n      dup5\n      add\n        /* \"contracts/contracts/permit2/Permit2.sol\":385:537  contract Permit2 is SignatureTransfer, AllowanceTransfer {... */\n      swap5\n        /* \"contracts/contracts/lib/PermitHash.sol\":433:605  keccak256(... */\n      0xf3841cd1ff0085026a6327b620b67997ce40f282c88a8e905a7a5626e310f3d0\n        /* \"contracts/contracts/permit2/Permit2.sol\":385:537  contract Permit2 is SignatureTransfer, AllowanceTransfer {... */\n      dup7\n      mstore\n        /* \"contracts/contracts/lib/PermitHash.sol\":433:605  keccak256(... */\n      dup5\n      add\n        /* \"contracts/contracts/permit2/Permit2.sol\":385:537  contract Permit2 is SignatureTransfer, AllowanceTransfer {... */\n      mstore\n      0x60\n        /* \"contracts/contracts/lib/PermitHash.sol\":433:605  keccak256(... */\n      dup4\n      add\n        /* \"contracts/contracts/permit2/Permit2.sol\":385:537  contract Permit2 is SignatureTransfer, AllowanceTransfer {... */\n      mstore\n      0x80\n        /* \"contracts/contracts/lib/PermitHash.sol\":433:605  keccak256(... */\n      dup3\n      add\n        /* \"contracts/contracts/permit2/Permit2.sol\":385:537  contract Permit2 is SignatureTransfer, AllowanceTransfer {... */\n      mstore\n      0x80\n        /* \"contracts/contracts/lib/PermitHash.sol\":2138:2233  abi.encode(_PERMIT_SINGLE_TYPEHASH, permitHash, permitSingle.spender, permitSingle.sigDeadline) */\n      dup2\n      mstore\n      tag_243\n      dup2\n      tag_3\n      jump\t// in\n    tag_243:\n        /* \"contracts/contracts/lib/PermitHash.sol\":433:605  keccak256(... */\n      mload\n        /* \"contracts/contracts/lib/PermitHash.sol\":2128:2234  keccak256(abi.encode(_PERMIT_SINGLE_TYPEHASH, permitHash, permitSingle.spender, permitSingle.sigDeadline)) */\n      swap1\n      keccak256\n        /* \"contracts/contracts/permit2/AllowanceTransfer.sol\":1869:1904  _hashTypedData(permitSingle.hash()) */\n      tag_30\n      jump\t// in\n    tag_239:\n        /* \"contracts/contracts/permit2/AllowanceTransfer.sol\":1906:1911  owner */\n      swap2\n      tag_20\n      jump\t// in\n    tag_241:\n        /* \"contracts/contracts/permit2/AllowanceTransfer.sol\":1939:1959  permitSingle.details */\n      mload\n        /* \"contracts/contracts/permit2/Permit2.sol\":385:537  contract Permit2 is SignatureTransfer, AllowanceTransfer {... */\n      swap3\n      mload\n      and\n        /* \"contracts/contracts/permit2/AllowanceTransfer.sol\":1968:1988  permitSingle.spender */\n      swap2\n      tag_28\n      jump\t// in\n        /* \"contracts/contracts/permit2/AllowanceTransfer.sol\":1687:1784  if (block.timestamp > permitSingle.sigDeadline) revert SignatureExpired(permitSingle.sigDeadline) */\n    tag_237:\n        /* \"contracts/contracts/permit2/Permit2.sol\":385:537  contract Permit2 is SignatureTransfer, AllowanceTransfer {... */\n      dup11\n      mload\n      shl(0xe0, 0xcd21db4f)\n        /* \"contracts/contracts/permit2/AllowanceTransfer.sol\":1742:1784  SignatureExpired(permitSingle.sigDeadline) */\n      dup2\n      mstore\n      swap2\n      dup3\n      add\n        /* \"contracts/contracts/permit2/Permit2.sol\":385:537  contract Permit2 is SignatureTransfer, AllowanceTransfer {... */\n      mstore\n      0x24\n      swap2\n      pop\n        /* \"contracts/contracts/permit2/AllowanceTransfer.sol\":1742:1784  SignatureExpired(permitSingle.sigDeadline) */\n      revert\n        /* \"contracts/contracts/permit2/Permit2.sol\":385:537  contract Permit2 is SignatureTransfer, AllowanceTransfer {... */\n    tag_44:\n      pop\n      swap2\n      jumpi(tag_72, callvalue)\n      0x60\n      not(0x03)\n      swap2\n      dup2\n      dup4\n      calldatasize\n      add\n      slt\n      tag_74\n      jumpi\n      tag_248\n      tag_7\n      jump\t// in\n    tag_248:\n      swap3\n      calldataload(0x24)\n      swap2\n      sub(shl(0x40, 0x01), 0x01)\n      swap2\n      dup3\n      dup5\n      gt\n      tag_114\n      jumpi\n      dup5\n      swap1\n      dup5\n      calldatasize\n      sub\n      add\n      slt\n      tag_207\n      jumpi\n      dup7\n      mload\n      swap7\n      tag_253\n      dup9\n      tag_2\n      jump\t// in\n    tag_253:\n      dup4\n      dup3\n      add\n      calldataload\n      dup4\n      dup2\n      gt\n      tag_81\n      jumpi\n      dup5\n      add\n      calldatasize\n      0x23\n      dup3\n      add\n      slt\n      iszero\n      tag_81\n      jumpi\n      dup3\n      dup2\n      add\n      calldataload\n      swap1\n      tag_258\n      dup3\n      tag_13\n      jump\t// in\n    tag_258:\n      swap1\n      tag_259\n      dup5\n      mload\n      swap3\n      dup4\n      tag_5\n      jump\t// in\n    tag_259:\n      dup3\n      dup3\n      mstore\n      0x20\n      swap3\n      0x24\n      dup5\n      dup5\n      add\n      swap2\n      0x07\n      shl\n      dup4\n      add\n      add\n      swap2\n      calldatasize\n      dup4\n      gt\n      tag_289\n      jumpi\n      0x24\n      add\n      swap1\n    tag_262:\n      dup3\n      dup3\n      lt\n      tag_263\n      jumpi\n      pop\n      pop\n      pop\n      dup10\n      mstore\n      0x44\n      tag_265\n      0x24\n      dup8\n      add\n      tag_10\n      jump\t// in\n    tag_265:\n      swap6\n      dup3\n      dup12\n      add\n      swap7\n      dup8\n      mstore\n      add\n      calldataload\n      swap4\n      dup3\n      dup11\n      add\n      swap1\n      dup6\n      dup3\n      mstore\n      calldataload(0x44)\n      swap1\n      dup2\n      gt\n      tag_266\n      jumpi\n      tag_268\n      swap1\n      calldatasize\n      swap1\n      dup7\n      add\n      tag_12\n      jump\t// in\n    tag_268:\n        /* \"contracts/contracts/permit2/AllowanceTransfer.sol\":2153:2168  block.timestamp */\n      swap5\n      swap1\n      swap6\n      dup1\n      timestamp\n        /* \"contracts/contracts/permit2/AllowanceTransfer.sol\":2153:2194  block.timestamp > permitBatch.sigDeadline */\n      gt\n        /* \"contracts/contracts/permit2/AllowanceTransfer.sol\":2149:2244  if (block.timestamp > permitBatch.sigDeadline) revert SignatureExpired(permitBatch.sigDeadline) */\n      tag_269\n      jumpi\n        /* \"contracts/contracts/lib/PermitHash.sol\":2375:2394  permitBatch.details */\n      pop\n      pop\n      dup10\n      swap9\n      swap10\n      mload\n        /* \"contracts/contracts/lib/PermitHash.sol\":433:605  keccak256(... */\n      mload\n        /* \"contracts/contracts/lib/PermitHash.sol\":2443:2468  new bytes32[](numPermits) */\n      tag_271\n      dup2\n      tag_22\n      jump\t// in\n    tag_271:\n        /* \"contracts/contracts/lib/PermitHash.sol\":2483:2496  uint256 i = 0 */\n      swap1\n      dup12\n        /* \"contracts/contracts/lib/PermitHash.sol\":2498:2512  i < numPermits */\n    tag_272:\n      dup2\n      dup2\n      lt\n      tag_273\n      jumpi\n        /* \"contracts/contracts/permit2/Permit2.sol\":385:537  contract Permit2 is SignatureTransfer, AllowanceTransfer {... */\n      pop\n      pop\n      swap3\n      dup9\n      swap5\n      swap3\n        /* \"contracts/contracts/permit2/AllowanceTransfer.sol\":2329:2363  _hashTypedData(permitBatch.hash()) */\n      tag_239\n        /* \"contracts/contracts/permit2/Permit2.sol\":385:537  contract Permit2 is SignatureTransfer, AllowanceTransfer {... */\n      swap3\n        /* \"contracts/contracts/permit2/AllowanceTransfer.sol\":2365:2370  owner */\n      tag_276\n        /* \"contracts/contracts/permit2/Permit2.sol\":385:537  contract Permit2 is SignatureTransfer, AllowanceTransfer {... */\n      swap8\n      swap6\n      dup4\n      mload\n        /* \"contracts/contracts/lib/PermitHash.sol\":2721:2751  abi.encodePacked(permitHashes) */\n      tag_277\n      dup2\n        /* \"contracts/contracts/lib/PermitHash.sol\":661:834  keccak256(... */\n      tag_123\n        /* \"contracts/contracts/lib/PermitHash.sol\":2721:2751  abi.encodePacked(permitHashes) */\n      dup7\n      dup3\n      add\n        /* \"contracts/contracts/lib/PermitHash.sol\":661:834  keccak256(... */\n      dup1\n      swap6\n      tag_24\n      jump\t// in\n        /* \"contracts/contracts/lib/PermitHash.sol\":2721:2751  abi.encodePacked(permitHashes) */\n    tag_277:\n        /* \"contracts/contracts/lib/PermitHash.sol\":433:605  keccak256(... */\n      mload\n        /* \"contracts/contracts/lib/PermitHash.sol\":2711:2752  keccak256(abi.encodePacked(permitHashes)) */\n      swap1\n      keccak256\n        /* \"contracts/contracts/permit2/Permit2.sol\":385:537  contract Permit2 is SignatureTransfer, AllowanceTransfer {... */\n      swap1\n      0x01\n      dup1\n      0xa0\n      shl\n      sub\n      swap11\n      dup12\n      dup12\n      mload\n      and\n      swap2\n      mload\n      swap3\n      dup6\n      mload\n        /* \"contracts/contracts/lib/PermitHash.sol\":2643:2844  abi.encode(... */\n      swap5\n      dup6\n      add\n        /* \"contracts/contracts/permit2/Permit2.sol\":385:537  contract Permit2 is SignatureTransfer, AllowanceTransfer {... */\n      swap6\n        /* \"contracts/contracts/lib/PermitHash.sol\":661:834  keccak256(... */\n      0xaf1b0d30d2cab0380e68f0689007e3254993c596f2fdd0aaa7f4d04f79440863\n        /* \"contracts/contracts/permit2/Permit2.sol\":385:537  contract Permit2 is SignatureTransfer, AllowanceTransfer {... */\n      dup8\n      mstore\n        /* \"contracts/contracts/lib/PermitHash.sol\":433:605  keccak256(... */\n      dup6\n      add\n        /* \"contracts/contracts/permit2/Permit2.sol\":385:537  contract Permit2 is SignatureTransfer, AllowanceTransfer {... */\n      mstore\n        /* \"contracts/contracts/lib/PermitHash.sol\":433:605  keccak256(... */\n      dup4\n      add\n        /* \"contracts/contracts/permit2/Permit2.sol\":385:537  contract Permit2 is SignatureTransfer, AllowanceTransfer {... */\n      mstore\n      0x80\n        /* \"contracts/contracts/lib/PermitHash.sol\":433:605  keccak256(... */\n      dup3\n      add\n        /* \"contracts/contracts/permit2/Permit2.sol\":385:537  contract Permit2 is SignatureTransfer, AllowanceTransfer {... */\n      mstore\n      0x80\n        /* \"contracts/contracts/lib/PermitHash.sol\":2643:2844  abi.encode(... */\n      dup2\n      mstore\n      tag_243\n      dup2\n      tag_3\n      jump\t// in\n        /* \"contracts/contracts/permit2/AllowanceTransfer.sol\":2365:2370  owner */\n    tag_276:\n        /* \"contracts/contracts/permit2/Permit2.sol\":385:537  contract Permit2 is SignatureTransfer, AllowanceTransfer {... */\n      mload\n      and\n        /* \"contracts/contracts/permit2/AllowanceTransfer.sol\":2470:2489  permitBatch.details */\n      swap1\n      dup3\n      mload\n        /* \"contracts/contracts/lib/PermitHash.sol\":433:605  keccak256(... */\n      mload\n        /* \"contracts/contracts/permit2/AllowanceTransfer.sol\":2515:2528  uint256 i = 0 */\n      swap3\n      dup5\n        /* \"contracts/contracts/permit2/AllowanceTransfer.sol\":2530:2540  i < length */\n    tag_280:\n      dup5\n      dup2\n      lt\n      tag_281\n      jumpi\n        /* \"contracts/contracts/permit2/Permit2.sol\":385:537  contract Permit2 is SignatureTransfer, AllowanceTransfer {... */\n      dup6\n      dup1\n      return\n        /* \"contracts/contracts/permit2/AllowanceTransfer.sol\":2542:2545  ++i */\n    tag_281:\n        /* \"contracts/contracts/permit2/AllowanceTransfer.sol\":2581:2600  permitBatch.details */\n      dup1\n        /* \"contracts/contracts/permit2/AllowanceTransfer.sol\":2612:2619  spender */\n      tag_283\n        /* \"contracts/contracts/permit2/AllowanceTransfer.sol\":2581:2600  permitBatch.details */\n      dup6\n      dup6\n        /* \"contracts/contracts/permit2/AllowanceTransfer.sol\":2581:2603  permitBatch.details[i] */\n      tag_284\n        /* \"contracts/contracts/permit2/Permit2.sol\":385:537  contract Permit2 is SignatureTransfer, AllowanceTransfer {... */\n      0x01\n        /* \"contracts/contracts/permit2/AllowanceTransfer.sol\":2581:2600  permitBatch.details */\n      swap6\n      dup8\n      mload\n        /* \"contracts/contracts/permit2/AllowanceTransfer.sol\":2581:2603  permitBatch.details[i] */\n      tag_21\n      jump\t// in\n    tag_284:\n      mload\n        /* \"contracts/contracts/permit2/AllowanceTransfer.sol\":2612:2619  spender */\n      tag_28\n      jump\t// in\n    tag_283:\n        /* \"contracts/contracts/permit2/Permit2.sol\":385:537  contract Permit2 is SignatureTransfer, AllowanceTransfer {... */\n      add\n        /* \"contracts/contracts/permit2/AllowanceTransfer.sol\":2515:2528  uint256 i = 0 */\n      jump(tag_280)\n        /* \"contracts/contracts/lib/PermitHash.sol\":2514:2517  ++i */\n    tag_273:\n        /* \"contracts/contracts/lib/PermitHash.sol\":2570:2589  permitBatch.details */\n      dup1\n        /* \"contracts/contracts/lib/PermitHash.sol\":2551:2593  _hashPermitDetails(permitBatch.details[i]) */\n      tag_99\n        /* \"contracts/contracts/lib/PermitHash.sol\":2570:2592  permitBatch.details[i] */\n      tag_286\n        /* \"contracts/contracts/lib/PermitHash.sol\":2570:2589  permitBatch.details */\n      dup15\n      swap16\n      swap15\n      swap4\n        /* \"contracts/contracts/lib/PermitHash.sol\":2514:2517  ++i */\n      tag_287\n        /* \"contracts/contracts/lib/PermitHash.sol\":2570:2589  permitBatch.details */\n      swap5\n      mload\n        /* \"contracts/contracts/lib/PermitHash.sol\":2570:2592  permitBatch.details[i] */\n      tag_21\n      jump\t// in\n    tag_286:\n      mload\n        /* \"contracts/contracts/lib/PermitHash.sol\":2551:2593  _hashPermitDetails(permitBatch.details[i]) */\n      tag_18\n      jump\t// in\n        /* \"contracts/contracts/lib/PermitHash.sol\":2514:2517  ++i */\n    tag_287:\n        /* \"contracts/contracts/lib/PermitHash.sol\":2483:2496  uint256 i = 0 */\n      swap12\n      swap11\n      swap12\n      jump(tag_272)\n        /* \"contracts/contracts/permit2/AllowanceTransfer.sol\":2149:2244  if (block.timestamp > permitBatch.sigDeadline) revert SignatureExpired(permitBatch.sigDeadline) */\n    tag_269:\n        /* \"contracts/contracts/permit2/Permit2.sol\":385:537  contract Permit2 is SignatureTransfer, AllowanceTransfer {... */\n      dup5\n      mload\n      shl(0xe0, 0xcd21db4f)\n        /* \"contracts/contracts/permit2/AllowanceTransfer.sol\":2203:2244  SignatureExpired(permitBatch.sigDeadline) */\n      dup2\n      mstore\n      swap2\n      dup3\n      add\n        /* \"contracts/contracts/permit2/Permit2.sol\":385:537  contract Permit2 is SignatureTransfer, AllowanceTransfer {... */\n      mstore\n      0x24\n      swap2\n      pop\n        /* \"contracts/contracts/permit2/AllowanceTransfer.sol\":2203:2244  SignatureExpired(permitBatch.sigDeadline) */\n      revert\n        /* \"contracts/contracts/permit2/Permit2.sol\":385:537  contract Permit2 is SignatureTransfer, AllowanceTransfer {... */\n    tag_266:\n      dup10\n      dup1\n      revert\n    tag_263:\n      0x80\n      dup3\n      calldatasize\n      sub\n      slt\n      tag_289\n      jumpi\n      dup5\n      0x80\n      swap2\n      dup8\n      mload\n      tag_291\n      dup2\n      tag_1\n      jump\t// in\n    tag_291:\n      tag_292\n      dup6\n      tag_10\n      jump\t// in\n    tag_292:\n      dup2\n      mstore\n      tag_293\n      dup4\n      dup7\n      add\n      tag_10\n      jump\t// in\n    tag_293:\n      dup4\n      dup3\n      add\n      mstore\n      tag_294\n      dup10\n      dup7\n      add\n      tag_14\n      jump\t// in\n    tag_294:\n      dup10\n      dup3\n      add\n      mstore\n      tag_295\n      dup14\n      dup7\n      add\n      tag_14\n      jump\t// in\n    tag_295:\n      dup14\n      dup3\n      add\n      mstore\n      dup2\n      mstore\n      add\n      swap2\n      add\n      swap1\n      jump(tag_262)\n    tag_289:\n      dup12\n      dup1\n      revert\n    tag_42:\n      pop\n      dup3\n      jumpi(tag_129, callvalue)\n      jumpi(tag_129, slt(add(not(0x03), calldatasize), 0x0140))\n      tag_300\n      calldatasize\n      tag_11\n      jump\t// in\n    tag_300:\n      swap2\n      dup1\n      add(calldatasize, not(0x83))\n      slt\n      tag_74\n      jumpi\n      tag_303\n      tag_6\n      jump\t// in\n    tag_303:\n      sub(shl(0x40, 0x01), 0x01)\n      swap4\n      swap1\n      calldataload(0x0104)\n      dup6\n      dup2\n      gt\n      tag_114\n      jumpi\n      tag_306\n      swap1\n      calldatasize\n      swap1\n      dup7\n      add\n      tag_12\n      jump\t// in\n    tag_306:\n      swap1\n      swap4\n      calldataload(0x0124)\n      swap7\n      dup8\n      gt\n      tag_81\n      jumpi\n      tag_309\n        /* \"contracts/contracts/lib/PermitHash.sol\":4322:4416  abi.encode(typeHash, tokenPermissionsHash, msg.sender, permit.nonce, permit.deadline, witness) */\n      tag_212\n        /* \"contracts/contracts/permit2/Permit2.sol\":385:537  contract Permit2 is SignatureTransfer, AllowanceTransfer {... */\n      swap7\n        /* \"contracts/contracts/permit2/SignatureTransfer.sol\":1613:1622  signature */\n      tag_94\n        /* \"contracts/contracts/permit2/Permit2.sol\":385:537  contract Permit2 is SignatureTransfer, AllowanceTransfer {... */\n      swap9\n      calldatasize\n      swap2\n      add\n      tag_12\n      jump\t// in\n    tag_309:\n      swap7\n      swap1\n      swap6\n      dup3\n      mload\n      swap1\n      tag_312\n      dup3\n      tag_3\n      jump\t// in\n    tag_312:\n      0x64\n      dup3\n      mstore\n      0x5065726d69745769746e6573735472616e7366657246726f6d28546f6b656e50\n      0x20\n      dup4\n      add\n      mstore\n      0x65726d697373696f6e73207065726d69747465642c6164647265737320737065\n      dup5\n      dup4\n      add\n      mstore\n      0x6e6465722c75696e74323536206e6f6e63652c75696e7432353620646561646c\n      0x60\n      dup4\n      add\n      mstore\n      shl(0xe2, 0x1a5b994b)\n      0x80\n      dup4\n      add\n      mstore\n      dup4\n      mload\n        /* \"contracts/contracts/lib/PermitHash.sol\":4133:4213  abi.encodePacked(_PERMIT_TRANSFER_FROM_WITNESS_TYPEHASH_STUB, witnessTypeString) */\n      swap5\n      dup6\n      swap2\n      dup2\n        /* \"contracts/contracts/lib/PermitHash.sol\":1621:1723  \"PermitWitnessTransferFrom(TokenPermissions permitted,address spender,uint256 nonce,uint256 deadline,\" */\n      tag_313\n        /* \"contracts/contracts/permit2/Permit2.sol\":385:537  contract Permit2 is SignatureTransfer, AllowanceTransfer {... */\n      0x20\n        /* \"contracts/contracts/lib/PermitHash.sol\":4133:4213  abi.encodePacked(_PERMIT_TRANSFER_FROM_WITNESS_TYPEHASH_STUB, witnessTypeString) */\n      dup6\n      add\n        /* \"contracts/contracts/lib/PermitHash.sol\":1621:1723  \"PermitWitnessTransferFrom(TokenPermissions permitted,address spender,uint256 nonce,uint256 deadline,\" */\n      dup1\n      swap7\n      tag_32\n      jump\t// in\n    tag_313:\n        /* \"contracts/contracts/permit2/Permit2.sol\":385:537  contract Permit2 is SignatureTransfer, AllowanceTransfer {... */\n      swap2\n      dup3\n      calldatacopy\n      add\n      dup12\n      dup2\n      mstore\n        /* \"contracts/contracts/lib/PermitHash.sol\":4133:4213  abi.encodePacked(_PERMIT_TRANSFER_FROM_WITNESS_TYPEHASH_STUB, witnessTypeString) */\n      sub\n      swap4\n      tag_314\n      not(0x1f)\n      swap6\n      dup7\n      dup2\n      add\n      dup4\n      mstore\n      dup3\n      tag_5\n      jump\t// in\n    tag_314:\n        /* \"contracts/contracts/lib/PermitHash.sol\":433:605  keccak256(... */\n      mload\n        /* \"contracts/contracts/lib/PermitHash.sol\":4123:4214  keccak256(abi.encodePacked(_PERMIT_TRANSFER_FROM_WITNESS_TYPEHASH_STUB, witnessTypeString)) */\n      swap1\n      keccak256\n        /* \"contracts/contracts/lib/PermitHash.sol\":4278:4294  permit.permitted */\n      swap3\n        /* \"contracts/contracts/lib/PermitHash.sol\":4256:4295  _hashTokenPermissions(permit.permitted) */\n      tag_315\n        /* \"contracts/contracts/lib/PermitHash.sol\":4278:4294  permit.permitted */\n      dup7\n      mload\n        /* \"contracts/contracts/lib/PermitHash.sol\":4256:4295  _hashTokenPermissions(permit.permitted) */\n      tag_31\n      jump\t// in\n    tag_315:\n        /* \"contracts/contracts/permit2/Permit2.sol\":385:537  contract Permit2 is SignatureTransfer, AllowanceTransfer {... */\n      0x20\n        /* \"contracts/contracts/lib/PermitHash.sol\":4377:4389  permit.nonce */\n      dup8\n      dup2\n      add\n        /* \"contracts/contracts/permit2/Permit2.sol\":385:537  contract Permit2 is SignatureTransfer, AllowanceTransfer {... */\n      mload\n        /* \"contracts/contracts/lib/PermitHash.sol\":4391:4406  permit.deadline */\n      dup6\n      dup10\n      add\n        /* \"contracts/contracts/permit2/Permit2.sol\":385:537  contract Permit2 is SignatureTransfer, AllowanceTransfer {... */\n      mload\n      swap6\n      mload\n        /* \"contracts/contracts/lib/PermitHash.sol\":4322:4416  abi.encode(typeHash, tokenPermissionsHash, msg.sender, permit.nonce, permit.deadline, witness) */\n      swap2\n      dup3\n      add\n        /* \"contracts/contracts/permit2/Permit2.sol\":385:537  contract Permit2 is SignatureTransfer, AllowanceTransfer {... */\n      swap7\n      dup8\n      mstore\n        /* \"contracts/contracts/lib/PermitHash.sol\":1621:1723  \"PermitWitnessTransferFrom(TokenPermissions permitted,address spender,uint256 nonce,uint256 deadline,\" */\n      0x40\n      dup3\n      add\n        /* \"contracts/contracts/permit2/Permit2.sol\":385:537  contract Permit2 is SignatureTransfer, AllowanceTransfer {... */\n      swap3\n      swap1\n      swap3\n      mstore\n        /* \"contracts/contracts/lib/PermitHash.sol\":4365:4375  msg.sender */\n      caller\n        /* \"contracts/contracts/lib/PermitHash.sol\":1621:1723  \"PermitWitnessTransferFrom(TokenPermissions permitted,address spender,uint256 nonce,uint256 deadline,\" */\n      0x60\n      dup3\n      add\n        /* \"contracts/contracts/permit2/Permit2.sol\":385:537  contract Permit2 is SignatureTransfer, AllowanceTransfer {... */\n      mstore\n        /* \"contracts/contracts/lib/PermitHash.sol\":1621:1723  \"PermitWitnessTransferFrom(TokenPermissions permitted,address spender,uint256 nonce,uint256 deadline,\" */\n      0x80\n      dup2\n      add\n        /* \"contracts/contracts/permit2/Permit2.sol\":385:537  contract Permit2 is SignatureTransfer, AllowanceTransfer {... */\n      swap2\n      swap1\n      swap2\n      mstore\n      0xa0\n        /* \"contracts/contracts/lib/PermitHash.sol\":1621:1723  \"PermitWitnessTransferFrom(TokenPermissions permitted,address spender,uint256 nonce,uint256 deadline,\" */\n      dup2\n      add\n        /* \"contracts/contracts/permit2/Permit2.sol\":385:537  contract Permit2 is SignatureTransfer, AllowanceTransfer {... */\n      swap4\n      swap1\n      swap4\n      mstore\n      calldataload(0xe4)\n        /* \"contracts/contracts/lib/PermitHash.sol\":1621:1723  \"PermitWitnessTransferFrom(TokenPermissions permitted,address spender,uint256 nonce,uint256 deadline,\" */\n      0xc0\n      dup5\n      add\n        /* \"contracts/contracts/permit2/Permit2.sol\":385:537  contract Permit2 is SignatureTransfer, AllowanceTransfer {... */\n      mstore\n      dup3\n        /* \"contracts/contracts/lib/PermitHash.sol\":1621:1723  \"PermitWitnessTransferFrom(TokenPermissions permitted,address spender,uint256 nonce,uint256 deadline,\" */\n      0xe0\n      dup2\n      add\n        /* \"contracts/contracts/lib/PermitHash.sol\":4322:4416  abi.encode(typeHash, tokenPermissionsHash, msg.sender, permit.nonce, permit.deadline, witness) */\n      tag_98\n        /* \"contracts/contracts/lib/PermitHash.sol\":1621:1723  \"PermitWitnessTransferFrom(TokenPermissions permitted,address spender,uint256 nonce,uint256 deadline,\" */\n      jump\n        /* \"contracts/contracts/permit2/Permit2.sol\":385:537  contract Permit2 is SignatureTransfer, AllowanceTransfer {... */\n    tag_40:\n      pop\n      dup3\n      jumpi(tag_129, callvalue)\n      0x20\n      dup1\n      add(calldatasize, not(0x03))\n      slt\n      tag_74\n      jumpi\n      dup2\n      calldataload\n      sub(shl(0x40, 0x01), 0x01)\n      swap3\n      dup4\n      dup3\n      gt\n      tag_207\n      jumpi\n      calldatasize\n      0x23\n      dup4\n      add\n      slt\n      iszero\n      tag_207\n      jumpi\n      dup2\n      add\n      calldataload\n      swap3\n      dup4\n      gt\n      tag_77\n      jumpi\n      0x24\n      swap1\n      0x07\n      calldatasize\n      dup4\n      dup7\n      dup4\n      shl\n      dup5\n      add\n      add\n      gt\n      tag_114\n      jumpi\n        /* \"contracts/contracts/permit2/AllowanceTransfer.sol\":3056:3069  uint256 i = 0 */\n      dup7\n        /* \"contracts/contracts/permit2/AllowanceTransfer.sol\":3071:3081  i < length */\n    tag_329:\n      dup6\n      dup2\n      lt\n      tag_330\n      jumpi\n        /* \"contracts/contracts/permit2/Permit2.sol\":385:537  contract Permit2 is SignatureTransfer, AllowanceTransfer {... */\n      dup8\n      dup1\n      return\n        /* \"contracts/contracts/permit2/AllowanceTransfer.sol\":3083:3086  ++i */\n    tag_330:\n        /* \"contracts/contracts/permit2/Permit2.sol\":385:537  contract Permit2 is SignatureTransfer, AllowanceTransfer {... */\n      dup1\n      dup3\n      shl\n      dup4\n      add\n      swap1\n      0x80\n      not(0x23)\n      dup4\n      calldatasize\n      sub\n      add\n      slt\n      tag_84\n      jumpi\n        /* \"contracts/contracts/permit2/AllowanceTransfer.sol\":3264:3284  transferDetail.token */\n      tag_334\n        /* \"contracts/contracts/permit2/Permit2.sol\":385:537  contract Permit2 is SignatureTransfer, AllowanceTransfer {... */\n      dup9\n      dup8\n      0x01\n      swap5\n      0x60\n      dup4\n      mload\n      tag_335\n      dup2\n      tag_1\n      jump\t// in\n    tag_335:\n      tag_336\n      0x84\n      tag_337\n      dup14\n      dup7\n      add\n      tag_10\n      jump\t// in\n    tag_337:\n      swap5\n      dup6\n      dup5\n      mstore\n      tag_338\n      0x44\n      dup3\n      add\n      tag_10\n      jump\t// in\n    tag_338:\n      dup1\n      swap8\n      dup6\n      add\n      mstore\n      tag_339\n      0x64\n      dup3\n      add\n      tag_10\n      jump\t// in\n    tag_339:\n      dup1\n      swap9\n      dup6\n      add\n      mstore\n      add\n      tag_10\n      jump\t// in\n    tag_336:\n      swap2\n      dup3\n      swap2\n      add\n      mstore\n      dup7\n      dup1\n      0xa0\n      shl\n      sub\n      dup1\n      dup1\n      dup1\n      swap4\n      and\n      swap6\n      and\n      swap4\n      and\n      swap2\n      and\n        /* \"contracts/contracts/permit2/AllowanceTransfer.sol\":3264:3284  transferDetail.token */\n      tag_25\n      jump\t// in\n    tag_334:\n        /* \"contracts/contracts/permit2/Permit2.sol\":385:537  contract Permit2 is SignatureTransfer, AllowanceTransfer {... */\n      add\n        /* \"contracts/contracts/permit2/AllowanceTransfer.sol\":3056:3069  uint256 i = 0 */\n      jump(tag_329)\n        /* \"contracts/contracts/permit2/Permit2.sol\":385:537  contract Permit2 is SignatureTransfer, AllowanceTransfer {... */\n    tag_1:\n      0x80\n      dup2\n      add\n      swap1\n      dup2\n      lt\n      sub(shl(0x40, 0x01), 0x01)\n      dup3\n      gt\n      or\n      tag_340\n      jumpi\n      0x40\n      mstore\n      jump\t// out\n    tag_340:\n      mstore(0x00, shl(0xe0, 0x4e487b71))\n      mstore(0x04, 0x41)\n      revert(0x00, 0x24)\n    tag_2:\n      0x60\n      dup2\n      add\n      swap1\n      dup2\n      lt\n      sub(shl(0x40, 0x01), 0x01)\n      dup3\n      gt\n      or\n      tag_340\n      jumpi\n      0x40\n      mstore\n      jump\t// out\n    tag_3:\n      0xa0\n      dup2\n      add\n      swap1\n      dup2\n      lt\n      sub(shl(0x40, 0x01), 0x01)\n      dup3\n      gt\n      or\n      tag_340\n      jumpi\n      0x40\n      mstore\n      jump\t// out\n    tag_4:\n        /* \"contracts/contracts/lib/PermitHash.sol\":1018:1184  keccak256(... */\n      0xc0\n        /* \"contracts/contracts/permit2/Permit2.sol\":385:537  contract Permit2 is SignatureTransfer, AllowanceTransfer {... */\n      dup2\n      add\n      swap1\n      dup2\n      lt\n      sub(shl(0x40, 0x01), 0x01)\n      dup3\n      gt\n      or\n      tag_340\n      jumpi\n      0x40\n      mstore\n      jump\t// out\n    tag_5:\n      swap1\n        /* \"contracts/contracts/lib/PermitHash.sol\":4133:4213  abi.encodePacked(_PERMIT_TRANSFER_FROM_WITNESS_TYPEHASH_STUB, witnessTypeString) */\n      0x1f\n      dup1\n      not\n        /* \"contracts/contracts/permit2/Permit2.sol\":385:537  contract Permit2 is SignatureTransfer, AllowanceTransfer {... */\n      swap2\n      add\n      and\n      dup2\n      add\n      swap1\n      dup2\n      lt\n      sub(shl(0x40, 0x01), 0x01)\n      dup3\n      gt\n      or\n      tag_340\n      jumpi\n      0x40\n      mstore\n      jump\t// out\n    tag_6:\n      calldataload(0xc4)\n      swap1\n      sub(shl(0xa0, 0x01), 0x01)\n      dup3\n      and\n      dup3\n      sub\n      tag_350\n      jumpi\n      jump\t// out\n    tag_350:\n      0x00\n      dup1\n      revert\n    tag_7:\n      calldataload(0x04)\n      swap1\n      sub(shl(0xa0, 0x01), 0x01)\n      dup3\n      and\n      dup3\n      sub\n      tag_350\n      jumpi\n      jump\t// out\n    tag_8:\n      calldataload(0x24)\n      swap1\n      sub(shl(0xa0, 0x01), 0x01)\n      dup3\n      and\n      dup3\n      sub\n      tag_350\n      jumpi\n      jump\t// out\n    tag_9:\n      calldataload(0x44)\n      swap1\n      sub(shl(0xa0, 0x01), 0x01)\n      dup3\n      and\n      dup3\n      sub\n      tag_350\n      jumpi\n      jump\t// out\n    tag_10:\n      calldataload\n      swap1\n      sub(shl(0xa0, 0x01), 0x01)\n      dup3\n      and\n      dup3\n      sub\n      tag_350\n      jumpi\n      jump\t// out\n    tag_11:\n      not(0x03)\n      add\n      swap1\n      0x80\n      dup3\n      slt\n      tag_350\n      jumpi\n      0x40\n      dup1\n      mload\n      swap1\n      tag_362\n      dup3\n      tag_2\n      jump\t// in\n    tag_362:\n      dup1\n      dup3\n      swap5\n      slt\n      tag_350\n      jumpi\n      dup1\n      mload\n      dup2\n      dup2\n      add\n      dup2\n      dup2\n      lt\n      sub(shl(0x40, 0x01), 0x01)\n      dup3\n      gt\n      or\n      tag_340\n      jumpi\n      dup3\n      mstore\n      calldataload(0x04)\n      sub(shl(0xa0, 0x01), 0x01)\n      dup2\n      and\n      dup2\n      sub\n      tag_350\n      jumpi\n      dup2\n      mstore\n      calldataload(0x24)\n      0x20\n      dup3\n      add\n      mstore\n      dup3\n      mstore\n      calldataload(0x44)\n      0x20\n      dup4\n      add\n      mstore\n      calldataload(0x64)\n      swap2\n      add\n      mstore\n      jump\t// out\n    tag_12:\n      swap2\n      dup2\n      0x1f\n      dup5\n      add\n      slt\n      iszero\n      tag_350\n      jumpi\n      dup3\n      calldataload\n      swap2\n      sub(shl(0x40, 0x01), 0x01)\n      dup4\n      gt\n      tag_350\n      jumpi\n      0x20\n      dup4\n      dup2\n      dup7\n      add\n      swap6\n      add\n      add\n      gt\n      tag_350\n      jumpi\n      jump\t// out\n    tag_13:\n      sub(shl(0x40, 0x01), 0x01)\n      dup2\n      gt\n      tag_340\n      jumpi\n      0x05\n      shl\n      0x20\n      add\n      swap1\n      jump\t// out\n    tag_14:\n      calldataload\n      swap1\n      0xffffffffffff\n      dup3\n      and\n      dup3\n      sub\n      tag_350\n      jumpi\n      jump\t// out\n    tag_16:\n      swap2\n      dup2\n      0x1f\n      dup5\n      add\n      slt\n      iszero\n      tag_350\n      jumpi\n      dup3\n      calldataload\n      swap2\n      sub(shl(0x40, 0x01), 0x01)\n      dup4\n      gt\n      tag_350\n      jumpi\n      0x20\n      dup1\n      dup6\n      add\n      swap5\n      dup5\n      0x06\n      shl\n      add\n      add\n      gt\n      tag_350\n      jumpi\n      jump\t// out\n    tag_17:\n      swap2\n      swap1\n      swap2\n      0x60\n      dup2\n      dup5\n      sub\n      slt\n      tag_350\n      jumpi\n      0x40\n      dup1\n      mload\n      swap2\n      tag_387\n      dup4\n      tag_2\n      jump\t// in\n    tag_387:\n      dup3\n      swap5\n      dup2\n      calldataload\n      sub(shl(0x40, 0x01), 0x01)\n      swap1\n      dup2\n      dup2\n      gt\n      tag_350\n      jumpi\n      dup4\n      add\n      dup3\n      0x1f\n      dup3\n      add\n      slt\n      iszero\n      tag_350\n      jumpi\n      dup1\n      calldataload\n      tag_392\n      dup2\n      tag_13\n      jump\t// in\n    tag_392:\n      swap3\n      tag_393\n      dup8\n      mload\n      swap5\n      dup6\n      tag_5\n      jump\t// in\n    tag_393:\n      dup2\n      dup5\n      mstore\n      0x20\n      swap5\n      dup6\n      dup1\n      dup7\n      add\n      swap4\n      0x06\n      shl\n      dup6\n      add\n      add\n      swap4\n      dup2\n      dup6\n      gt\n      tag_350\n      jumpi\n      swap1\n      dup7\n      dup10\n      swap9\n      swap8\n      swap7\n      swap6\n      swap5\n      swap4\n      swap3\n      add\n      swap3\n    tag_396:\n      dup5\n      dup5\n      lt\n      tag_397\n      jumpi\n      pop\n      pop\n      pop\n      pop\n      pop\n      dup6\n      mstore\n      dup1\n      dup3\n      add\n      calldataload\n      swap1\n      dup6\n      add\n      mstore\n      add\n      calldataload\n      swap2\n      add\n      mstore\n      jump\t// out\n    tag_397:\n      swap1\n      swap2\n      swap3\n      swap4\n      swap5\n      swap6\n      swap7\n      swap8\n      dup5\n      dup4\n      sub\n      slt\n      tag_350\n      jumpi\n      dup9\n      mload\n      swap1\n      dup10\n      dup3\n      add\n      swap1\n      dup3\n      dup3\n      lt\n      dup6\n      dup4\n      gt\n      or\n      tag_401\n      jumpi\n      dup11\n      swap3\n      dup10\n      swap3\n      dup5\n      mstore\n      tag_403\n      dup8\n      tag_10\n      jump\t// in\n    tag_403:\n      dup2\n      mstore\n      dup3\n      dup8\n      add\n      calldataload\n      dup4\n      dup3\n      add\n      mstore\n      dup2\n      mstore\n      add\n      swap4\n      add\n      swap2\n      swap1\n      dup9\n      swap8\n      swap7\n      swap6\n      swap5\n      swap4\n      jump(tag_396)\n    tag_401:\n      0x24\n      0x00\n      shl(0xe0, 0x4e487b71)\n      dup2\n      mstore\n      mstore(0x04, 0x41)\n      revert\n        /* \"contracts/contracts/lib/PermitHash.sol\":5345:5533  function _hashPermitDetails(IAllowanceTransfer.PermitDetails memory details) private pure returns (bytes32) {... */\n    tag_18:\n        /* \"contracts/contracts/permit2/Permit2.sol\":385:537  contract Permit2 is SignatureTransfer, AllowanceTransfer {... */\n      mload(0x40)\n        /* \"contracts/contracts/lib/PermitHash.sol\":5480:5525  abi.encode(_PERMIT_DETAILS_TYPEHASH, details) */\n      0x20\n      dup2\n      add\n        /* \"contracts/contracts/permit2/Permit2.sol\":385:537  contract Permit2 is SignatureTransfer, AllowanceTransfer {... */\n      swap2\n        /* \"contracts/contracts/lib/PermitHash.sol\":289:376  keccak256(\"PermitDetails(address token,uint160 amount,uint48 expiration,uint48 nonce)\") */\n      0x65626cad6cb96493bf6f5ebea28756c966f023ab9e8a83a7101849d5573b3678\n        /* \"contracts/contracts/permit2/Permit2.sol\":385:537  contract Permit2 is SignatureTransfer, AllowanceTransfer {... */\n      dup4\n      mstore\n      0x01\n      dup1\n      0xa0\n      shl\n      sub\n        /* \"contracts/contracts/lib/PermitHash.sol\":289:376  keccak256(\"PermitDetails(address token,uint160 amount,uint48 expiration,uint48 nonce)\") */\n      dup1\n      dup3\n      mload\n        /* \"contracts/contracts/permit2/Permit2.sol\":385:537  contract Permit2 is SignatureTransfer, AllowanceTransfer {... */\n      and\n      0x40\n        /* \"contracts/contracts/lib/PermitHash.sol\":289:376  keccak256(\"PermitDetails(address token,uint160 amount,uint48 expiration,uint48 nonce)\") */\n      dup5\n      add\n        /* \"contracts/contracts/permit2/Permit2.sol\":385:537  contract Permit2 is SignatureTransfer, AllowanceTransfer {... */\n      mstore\n        /* \"contracts/contracts/lib/PermitHash.sol\":5480:5525  abi.encode(_PERMIT_DETAILS_TYPEHASH, details) */\n      0x20\n        /* \"contracts/contracts/lib/PermitHash.sol\":289:376  keccak256(\"PermitDetails(address token,uint160 amount,uint48 expiration,uint48 nonce)\") */\n      dup3\n      add\n      mload\n        /* \"contracts/contracts/permit2/Permit2.sol\":385:537  contract Permit2 is SignatureTransfer, AllowanceTransfer {... */\n      and\n        /* \"contracts/contracts/lib/PermitHash.sol\":289:376  keccak256(\"PermitDetails(address token,uint160 amount,uint48 expiration,uint48 nonce)\") */\n      0x60\n      dup4\n      add\n        /* \"contracts/contracts/permit2/Permit2.sol\":385:537  contract Permit2 is SignatureTransfer, AllowanceTransfer {... */\n      mstore\n        /* \"contracts/contracts/lib/PermitHash.sol\":289:376  keccak256(\"PermitDetails(address token,uint160 amount,uint48 expiration,uint48 nonce)\") */\n      0x60\n        /* \"contracts/contracts/permit2/Permit2.sol\":385:537  contract Permit2 is SignatureTransfer, AllowanceTransfer {... */\n      0xffffffffffff\n        /* \"contracts/contracts/lib/PermitHash.sol\":289:376  keccak256(\"PermitDetails(address token,uint160 amount,uint48 expiration,uint48 nonce)\") */\n      swap2\n      dup3\n        /* \"contracts/contracts/permit2/Permit2.sol\":385:537  contract Permit2 is SignatureTransfer, AllowanceTransfer {... */\n      0x40\n        /* \"contracts/contracts/lib/PermitHash.sol\":289:376  keccak256(\"PermitDetails(address token,uint160 amount,uint48 expiration,uint48 nonce)\") */\n      dup3\n      add\n      mload\n        /* \"contracts/contracts/permit2/Permit2.sol\":385:537  contract Permit2 is SignatureTransfer, AllowanceTransfer {... */\n      and\n        /* \"contracts/contracts/lib/PermitHash.sol\":289:376  keccak256(\"PermitDetails(address token,uint160 amount,uint48 expiration,uint48 nonce)\") */\n      0x80\n      dup6\n      add\n        /* \"contracts/contracts/permit2/Permit2.sol\":385:537  contract Permit2 is SignatureTransfer, AllowanceTransfer {... */\n      mstore\n        /* \"contracts/contracts/lib/PermitHash.sol\":289:376  keccak256(\"PermitDetails(address token,uint160 amount,uint48 expiration,uint48 nonce)\") */\n      add\n      mload\n        /* \"contracts/contracts/permit2/Permit2.sol\":385:537  contract Permit2 is SignatureTransfer, AllowanceTransfer {... */\n      and\n      0xa0\n        /* \"contracts/contracts/lib/PermitHash.sol\":289:376  keccak256(\"PermitDetails(address token,uint160 amount,uint48 expiration,uint48 nonce)\") */\n      dup3\n      add\n        /* \"contracts/contracts/permit2/Permit2.sol\":385:537  contract Permit2 is SignatureTransfer, AllowanceTransfer {... */\n      mstore\n      0xa0\n        /* \"contracts/contracts/lib/PermitHash.sol\":5480:5525  abi.encode(_PERMIT_DETAILS_TYPEHASH, details) */\n      dup2\n      mstore\n        /* \"contracts/contracts/lib/PermitHash.sol\":289:376  keccak256(\"PermitDetails(address token,uint160 amount,uint48 expiration,uint48 nonce)\") */\n      0xc0\n        /* \"contracts/contracts/permit2/Permit2.sol\":385:537  contract Permit2 is SignatureTransfer, AllowanceTransfer {... */\n      dup2\n      add\n      dup2\n      dup2\n      lt\n      sub(shl(0x40, 0x01), 0x01)\n      dup3\n      gt\n      or\n      tag_340\n      jumpi\n      0x40\n      mstore\n        /* \"contracts/contracts/lib/PermitHash.sol\":433:605  keccak256(... */\n      mload\n        /* \"contracts/contracts/lib/PermitHash.sol\":5470:5526  keccak256(abi.encode(_PERMIT_DETAILS_TYPEHASH, details)) */\n      swap1\n      keccak256\n        /* \"contracts/contracts/lib/PermitHash.sol\":5345:5533  function _hashPermitDetails(IAllowanceTransfer.PermitDetails memory details) private pure returns (bytes32) {... */\n      swap1\n      jump\t// out\n        /* \"contracts/contracts/permit2/Permit2.sol\":385:537  contract Permit2 is SignatureTransfer, AllowanceTransfer {... */\n    tag_19:\n      swap2\n      swap1\n      dup3\n      0x40\n      swap2\n      sub\n      slt\n      tag_350\n      jumpi\n      0x20\n      dup3\n      calldataload\n      swap3\n      add\n      calldataload\n      swap1\n      jump\t// out\n        /* \"contracts/contracts/lib/SignatureVerification.sol\":700:1809  function verify(bytes calldata signature, bytes32 hash, address claimedSigner) internal view {... */\n    tag_20:\n      0x00\n        /* \"contracts/contracts/lib/SignatureVerification.sol\":863:888  claimedSigner.code.length */\n      dup5\n      extcodesize\n      tag_408\n      jumpi\n      pop\n        /* \"contracts/contracts/lib/SignatureVerification.sol\":933:935  65 */\n      0x41\n        /* \"contracts/contracts/lib/SignatureVerification.sol\":913:935  signature.length == 65 */\n      dup3\n      sub\n        /* \"contracts/contracts/lib/SignatureVerification.sol\":933:935  65 */\n      tag_410\n      jumpi\n        /* \"contracts/contracts/lib/SignatureVerification.sol\":964:1005  abi.decode(signature, (bytes32, bytes32)) */\n      tag_412\n      dup3\n      dup3\n      add\n      dup3\n      tag_19\n      jump\t// in\n    tag_412:\n        /* \"contracts/contracts/lib/SignatureVerification.sol\":955:1005  (r, s) = abi.decode(signature, (bytes32, bytes32)) */\n      swap4\n      swap1\n        /* \"contracts/contracts/lib/SignatureVerification.sol\":625:693  (0x7fffffffffffffffffffffffffffffffffffffffffffffffffffffffffffffff) */\n      swap3\n        /* \"contracts/contracts/lib/SignatureVerification.sol\":1043:1045  64 */\n      0x40\n        /* \"contracts/contracts/lib/SignatureVerification.sol\":625:693  (0x7fffffffffffffffffffffffffffffffffffffffffffffffffffffffffffffff) */\n      lt\n      iszero\n      tag_413\n      jumpi\n      0x20\n      swap4\n      0x00\n      swap4\n      0xff\n        /* \"contracts/contracts/lib/SignatureVerification.sol\":1043:1045  64 */\n      0x40\n        /* \"contracts/contracts/lib/SignatureVerification.sol\":625:693  (0x7fffffffffffffffffffffffffffffffffffffffffffffffffffffffffffffff) */\n      0x80\n      swap6\n      add\n        /* \"contracts/contracts/lib/SignatureVerification.sol\":1033:1046  signature[64] */\n      calldataload\n        /* \"contracts/contracts/lib/SignatureVerification.sol\":625:693  (0x7fffffffffffffffffffffffffffffffffffffffffffffffffffffffffffffff) */\n      0xf8\n      shr\n        /* \"contracts/contracts/lib/SignatureVerification.sol\":909:1399  if (signature.length == 65) {... */\n    tag_415:\n        /* \"contracts/contracts/permit2/Permit2.sol\":385:537  contract Permit2 is SignatureTransfer, AllowanceTransfer {... */\n      mload(0x40)\n      swap5\n      dup6\n      mstore\n        /* \"contracts/contracts/lib/SignatureVerification.sol\":625:693  (0x7fffffffffffffffffffffffffffffffffffffffffffffffffffffffffffffff) */\n      and\n      dup7\n      dup5\n      add\n      mstore\n        /* \"contracts/contracts/permit2/Permit2.sol\":385:537  contract Permit2 is SignatureTransfer, AllowanceTransfer {... */\n      0x40\n        /* \"contracts/contracts/lib/SignatureVerification.sol\":625:693  (0x7fffffffffffffffffffffffffffffffffffffffffffffffffffffffffffffff) */\n      dup4\n      add\n        /* \"contracts/contracts/permit2/Permit2.sol\":385:537  contract Permit2 is SignatureTransfer, AllowanceTransfer {... */\n      mstore\n        /* \"contracts/contracts/lib/SignatureVerification.sol\":625:693  (0x7fffffffffffffffffffffffffffffffffffffffffffffffffffffffffffffff) */\n      0x60\n      dup3\n      add\n        /* \"contracts/contracts/permit2/Permit2.sol\":385:537  contract Permit2 is SignatureTransfer, AllowanceTransfer {... */\n      mstore\n        /* \"contracts/contracts/lib/SignatureVerification.sol\":1429:1453  ecrecover(hash, v, r, s) */\n      dup3\n      dup1\n      mstore\n      0x01\n      gas\n      staticcall\n      iszero\n      tag_416\n      jumpi\n      mload(0x00)\n      sub(shl(0xa0, 0x01), 0x01)\n        /* \"contracts/contracts/permit2/Permit2.sol\":385:537  contract Permit2 is SignatureTransfer, AllowanceTransfer {... */\n      swap1\n      dup2\n      and\n      swap2\n        /* \"contracts/contracts/lib/SignatureVerification.sol\":1471:1491  signer == address(0) */\n      dup3\n      iszero\n        /* \"contracts/contracts/lib/SignatureVerification.sol\":1467:1518  if (signer == address(0)) revert InvalidSignature() */\n      tag_418\n      jumpi\n        /* \"contracts/contracts/permit2/Permit2.sol\":385:537  contract Permit2 is SignatureTransfer, AllowanceTransfer {... */\n      and\n        /* \"contracts/contracts/lib/SignatureVerification.sol\":1536:1559  signer != claimedSigner */\n      sub\n        /* \"contracts/contracts/lib/SignatureVerification.sol\":1532:1583  if (signer != claimedSigner) revert InvalidSigner() */\n      tag_420\n      jumpi\n        /* \"contracts/contracts/lib/SignatureVerification.sol\":700:1809  function verify(bytes calldata signature, bytes32 hash, address claimedSigner) internal view {... */\n      jump\t// out\n        /* \"contracts/contracts/lib/SignatureVerification.sol\":1532:1583  if (signer != claimedSigner) revert InvalidSigner() */\n    tag_420:\n        /* \"contracts/contracts/permit2/Permit2.sol\":385:537  contract Permit2 is SignatureTransfer, AllowanceTransfer {... */\n      mload(0x40)\n      shl(0xe2, 0x20578759)\n        /* \"contracts/contracts/lib/SignatureVerification.sol\":1568:1583  InvalidSigner() */\n      dup2\n      mstore\n      0x04\n      swap1\n      revert\n        /* \"contracts/contracts/lib/SignatureVerification.sol\":1467:1518  if (signer == address(0)) revert InvalidSignature() */\n    tag_418:\n        /* \"contracts/contracts/permit2/Permit2.sol\":385:537  contract Permit2 is SignatureTransfer, AllowanceTransfer {... */\n      mload(0x40)\n      shl(0xe0, 0x8baa579f)\n        /* \"contracts/contracts/lib/SignatureVerification.sol\":1500:1518  InvalidSignature() */\n      dup2\n      mstore\n      0x04\n      swap1\n      revert\n        /* \"contracts/contracts/lib/SignatureVerification.sol\":1429:1453  ecrecover(hash, v, r, s) */\n    tag_416:\n        /* \"contracts/contracts/permit2/Permit2.sol\":385:537  contract Permit2 is SignatureTransfer, AllowanceTransfer {... */\n      mload(0x40)\n      returndatasize\n      0x00\n      dup3\n      returndatacopy\n      returndatasize\n      swap1\n      revert\n        /* \"contracts/contracts/lib/SignatureVerification.sol\":625:693  (0x7fffffffffffffffffffffffffffffffffffffffffffffffffffffffffffffff) */\n    tag_413:\n        /* \"contracts/contracts/permit2/Permit2.sol\":385:537  contract Permit2 is SignatureTransfer, AllowanceTransfer {... */\n      shl(0xe0, 0x4e487b71)\n      0x00\n        /* \"contracts/contracts/lib/SignatureVerification.sol\":625:693  (0x7fffffffffffffffffffffffffffffffffffffffffffffffffffffffffffffff) */\n      mstore\n      mstore(0x04, 0x32)\n      revert(0x00, 0x24)\n        /* \"contracts/contracts/lib/SignatureVerification.sol\":909:1399  if (signature.length == 65) {... */\n    tag_410:\n        /* \"contracts/contracts/lib/SignatureVerification.sol\":1092:1094  64 */\n      0x40\n        /* \"contracts/contracts/lib/SignatureVerification.sol\":1072:1094  signature.length == 64 */\n      dup3\n      sub\n        /* \"contracts/contracts/lib/SignatureVerification.sol\":1092:1094  64 */\n      tag_423\n      jumpi\n        /* \"contracts/contracts/lib/SignatureVerification.sol\":1180:1221  abi.decode(signature, (bytes32, bytes32)) */\n      tag_425\n      swap2\n      dup2\n      add\n      swap1\n      tag_19\n      jump\t// in\n    tag_425:\n      sub(shl(0xff, 0x01), 0x01)\n        /* \"contracts/contracts/lib/SignatureVerification.sol\":1243:1262  vs & UPPER_BIT_MASK */\n      dup2\n      and\n      swap3\n        /* \"contracts/contracts/lib/SignatureVerification.sol\":626:692  0x7fffffffffffffffffffffffffffffffffffffffffffffffffffffffffffffff */\n      0xff\n        /* \"contracts/contracts/permit2/Permit2.sol\":385:537  contract Permit2 is SignatureTransfer, AllowanceTransfer {... */\n      swap2\n      dup3\n      shr\n        /* \"contracts/contracts/lib/SignatureVerification.sol\":1312:1314  27 */\n      0x1b\n        /* \"contracts/contracts/lib/SignatureVerification.sol\":625:693  (0x7fffffffffffffffffffffffffffffffffffffffffffffffffffffffffffffff) */\n      add\n      swap2\n      dup3\n      gt\n      tag_426\n      jumpi\n      0x20\n        /* \"contracts/contracts/lib/SignatureVerification.sol\":1280:1314  v = uint8(uint256(vs >> 255)) + 27 */\n      swap4\n      0x00\n      swap4\n        /* \"contracts/contracts/lib/SignatureVerification.sol\":625:693  (0x7fffffffffffffffffffffffffffffffffffffffffffffffffffffffffffffff) */\n      0xff\n      0x80\n        /* \"contracts/contracts/lib/SignatureVerification.sol\":1280:1314  v = uint8(uint256(vs >> 255)) + 27 */\n      swap5\n        /* \"contracts/contracts/lib/SignatureVerification.sol\":909:1399  if (signature.length == 65) {... */\n      jump(tag_415)\n        /* \"contracts/contracts/lib/SignatureVerification.sol\":625:693  (0x7fffffffffffffffffffffffffffffffffffffffffffffffffffffffffffffff) */\n    tag_426:\n        /* \"contracts/contracts/permit2/Permit2.sol\":385:537  contract Permit2 is SignatureTransfer, AllowanceTransfer {... */\n      shl(0xe0, 0x4e487b71)\n      0x00\n        /* \"contracts/contracts/lib/SignatureVerification.sol\":625:693  (0x7fffffffffffffffffffffffffffffffffffffffffffffffffffffffffffffff) */\n      mstore\n      mstore(0x04, 0x11)\n      revert(0x00, 0x24)\n        /* \"contracts/contracts/lib/SignatureVerification.sol\":1068:1399  if (signature.length == 64) {... */\n    tag_423:\n        /* \"contracts/contracts/lib/SignatureVerification.sol\":1092:1094  64 */\n      0x40\n        /* \"contracts/contracts/permit2/Permit2.sol\":385:537  contract Permit2 is SignatureTransfer, AllowanceTransfer {... */\n      mload\n      shl(0xe0, 0x4be6321b)\n        /* \"contracts/contracts/lib/SignatureVerification.sol\":1360:1384  InvalidSignatureLength() */\n      dup2\n      mstore\n      0x04\n      swap1\n      revert\n        /* \"contracts/contracts/lib/SignatureVerification.sol\":859:1803  if (claimedSigner.code.length == 0) {... */\n    tag_408:\n        /* \"contracts/contracts/permit2/Permit2.sol\":385:537  contract Permit2 is SignatureTransfer, AllowanceTransfer {... */\n      swap2\n      dup1\n      swap4\n      swap5\n        /* \"contracts/contracts/lib/SignatureVerification.sol\":1634:1691  IERC1271(claimedSigner).isValidSignature(hash, signature) */\n      0x20\n        /* \"contracts/contracts/permit2/Permit2.sol\":385:537  contract Permit2 is SignatureTransfer, AllowanceTransfer {... */\n      swap3\n      0x64\n      mload(0x40)\n      dup1\n      swap8\n      dup2\n      swap6\n      dup3\n      swap5\n      shl(0xe1, 0x0b135d3f)\n        /* \"contracts/contracts/lib/SignatureVerification.sol\":1634:1691  IERC1271(claimedSigner).isValidSignature(hash, signature) */\n      swap12\n      dup13\n      dup6\n      mstore\n      0x04\n      dup6\n      add\n        /* \"contracts/contracts/permit2/Permit2.sol\":385:537  contract Permit2 is SignatureTransfer, AllowanceTransfer {... */\n      mstore\n      0x40\n      0x24\n      dup6\n      add\n      mstore\n      dup2\n      0x44\n      dup6\n      add\n      mstore\n      dup5\n      dup5\n      add\n      calldatacopy\n      dup2\n      dup2\n      add\n      dup4\n      add\n      dup9\n      swap1\n      mstore\n        /* \"contracts/contracts/lib/PermitHash.sol\":4133:4213  abi.encodePacked(_PERMIT_TRANSFER_FROM_WITNESS_TYPEHASH_STUB, witnessTypeString) */\n      0x1f\n        /* \"contracts/contracts/permit2/Permit2.sol\":385:537  contract Permit2 is SignatureTransfer, AllowanceTransfer {... */\n      add\n      not(0x1f)\n      and\n      dup2\n      add\n        /* \"contracts/contracts/lib/SignatureVerification.sol\":1634:1691  IERC1271(claimedSigner).isValidSignature(hash, signature) */\n      sub\n      add\n      swap2\n      sub(shl(0xa0, 0x01), 0x01)\n        /* \"contracts/contracts/permit2/Permit2.sol\":385:537  contract Permit2 is SignatureTransfer, AllowanceTransfer {... */\n      and\n        /* \"contracts/contracts/lib/SignatureVerification.sol\":1634:1691  IERC1271(claimedSigner).isValidSignature(hash, signature) */\n      gas\n      staticcall\n      swap2\n      dup3\n      iszero\n      tag_428\n      jumpi\n      dup2\n      swap3\n      tag_430\n      jumpi\n        /* \"contracts/contracts/lib/SignatureVerification.sol\":859:1803  if (claimedSigner.code.length == 0) {... */\n    tag_431:\n      pop\n      pop\n      not(sub(shl(0xe0, 0x01), 0x01))\n        /* \"contracts/contracts/permit2/Permit2.sol\":385:537  contract Permit2 is SignatureTransfer, AllowanceTransfer {... */\n      and\n        /* \"contracts/contracts/lib/SignatureVerification.sol\":1709:1757  magicValue != IERC1271.isValidSignature.selector */\n      sub\n        /* \"contracts/contracts/lib/SignatureVerification.sol\":1705:1792  if (magicValue != IERC1271.isValidSignature.selector) revert InvalidContractSignature() */\n      tag_432\n      jumpi\n        /* \"contracts/contracts/lib/SignatureVerification.sol\":700:1809  function verify(bytes calldata signature, bytes32 hash, address claimedSigner) internal view {... */\n      jump\t// out\n        /* \"contracts/contracts/lib/SignatureVerification.sol\":1705:1792  if (magicValue != IERC1271.isValidSignature.selector) revert InvalidContractSignature() */\n    tag_432:\n        /* \"contracts/contracts/permit2/Permit2.sol\":385:537  contract Permit2 is SignatureTransfer, AllowanceTransfer {... */\n      mload(0x40)\n      shl(0xe2, 0x2c19a72f)\n        /* \"contracts/contracts/lib/SignatureVerification.sol\":1766:1792  InvalidContractSignature() */\n      dup2\n      mstore\n        /* \"contracts/contracts/lib/SignatureVerification.sol\":1634:1691  IERC1271(claimedSigner).isValidSignature(hash, signature) */\n      0x04\n      swap1\n        /* \"contracts/contracts/lib/SignatureVerification.sol\":1766:1792  InvalidContractSignature() */\n      revert\n        /* \"contracts/contracts/lib/SignatureVerification.sol\":1634:1691  IERC1271(claimedSigner).isValidSignature(hash, signature) */\n    tag_430:\n      swap1\n      swap2\n      pop\n      0x20\n      dup2\n      returndatasize\n      dup3\n      gt\n      tag_434\n      jumpi\n    tag_435:\n      dup2\n      tag_436\n      0x20\n      swap4\n      dup4\n      tag_5\n      jump\t// in\n    tag_436:\n      dup2\n      add\n        /* \"contracts/contracts/permit2/Permit2.sol\":385:537  contract Permit2 is SignatureTransfer, AllowanceTransfer {... */\n      sub\n      slt\n      tag_72\n      jumpi\n      mload\n      swap1\n      not(sub(shl(0xe0, 0x01), 0x01))\n      dup3\n      and\n      dup3\n      sub\n      tag_186\n      jumpi\n        /* \"contracts/contracts/lib/SignatureVerification.sol\":1634:1691  IERC1271(claimedSigner).isValidSignature(hash, signature) */\n      pop\n      0x00\n      dup1\n      jump(tag_431)\n    tag_434:\n      returndatasize\n      swap2\n      pop\n      jump(tag_435)\n    tag_428:\n        /* \"contracts/contracts/permit2/Permit2.sol\":385:537  contract Permit2 is SignatureTransfer, AllowanceTransfer {... */\n      pop\n      mload(0x40)\n      swap1\n      returndatasize\n      swap1\n      dup3\n      returndatacopy\n      returndatasize\n      swap1\n      revert\n    tag_21:\n        /* \"contracts/contracts/lib/PermitHash.sol\":433:605  keccak256(... */\n      dup1\n      mload\n        /* \"contracts/contracts/permit2/Permit2.sol\":385:537  contract Permit2 is SignatureTransfer, AllowanceTransfer {... */\n      dup3\n      lt\n      iszero\n      tag_413\n      jumpi\n      0x20\n      swap2\n      0x05\n      shl\n      add\n      add\n      swap1\n      jump\t// out\n    tag_22:\n      swap1\n      tag_443\n      dup3\n      tag_13\n      jump\t// in\n    tag_443:\n      tag_444\n      mload(0x40)\n      swap2\n      dup3\n      tag_5\n      jump\t// in\n    tag_444:\n      dup3\n      dup2\n      mstore\n      dup1\n        /* \"contracts/contracts/lib/PermitHash.sol\":4133:4213  abi.encodePacked(_PERMIT_TRANSFER_FROM_WITNESS_TYPEHASH_STUB, witnessTypeString) */\n      swap3\n        /* \"contracts/contracts/permit2/Permit2.sol\":385:537  contract Permit2 is SignatureTransfer, AllowanceTransfer {... */\n      tag_445\n        /* \"contracts/contracts/lib/PermitHash.sol\":4133:4213  abi.encodePacked(_PERMIT_TRANSFER_FROM_WITNESS_TYPEHASH_STUB, witnessTypeString) */\n      not(0x1f)\n        /* \"contracts/contracts/permit2/Permit2.sol\":385:537  contract Permit2 is SignatureTransfer, AllowanceTransfer {... */\n      swap2\n      tag_13\n      jump\t// in\n    tag_445:\n      add\n      swap1\n      0x20\n      calldatasize\n      swap2\n      add\n      calldatacopy\n      jump\t// out\n    tag_23:\n      not(0x00)\n      dup2\n      eq\n      tag_426\n      jumpi\n      0x01\n      add\n      swap1\n      jump\t// out\n        /* \"contracts/contracts/lib/PermitHash.sol\":661:834  keccak256(... */\n    tag_24:\n        /* \"contracts/contracts/lib/PermitHash.sol\":433:605  keccak256(... */\n      dup1\n      mload\n      0x20\n      dup1\n      swap3\n      add\n        /* \"contracts/contracts/lib/PermitHash.sol\":661:834  keccak256(... */\n      swap2\n      0x00\n    tag_448:\n      dup3\n      dup2\n      lt\n      tag_449\n      jumpi\n      pop\n      pop\n      pop\n      pop\n      swap1\n      jump\t// out\n    tag_449:\n      dup4\n      mload\n        /* \"contracts/contracts/permit2/Permit2.sol\":385:537  contract Permit2 is SignatureTransfer, AllowanceTransfer {... */\n      dup6\n      mstore\n        /* \"contracts/contracts/lib/PermitHash.sol\":661:834  keccak256(... */\n      swap4\n      dup2\n      add\n      swap4\n      swap3\n      dup2\n      add\n      swap3\n      0x01\n      add\n      jump(tag_448)\n        /* \"contracts/contracts/permit2/AllowanceTransfer.sol\":3463:4200  function _transfer(address from, address to, uint160 amount, address token) private {... */\n    tag_25:\n      swap3\n      swap2\n      swap3\n        /* \"contracts/contracts/permit2/Permit2.sol\":385:537  contract Permit2 is SignatureTransfer, AllowanceTransfer {... */\n      0x01\n      dup1\n      0xa0\n      shl\n      sub\n      0x40\n      0x00\n      dup3\n      dup5\n      and\n      dup2\n      mstore\n      mstore(0x20, 0x01)\n      dup3\n      dup3\n      dup3\n      keccak256\n      swap7\n      and\n      swap6\n      dup7\n      dup3\n      mstore\n      0x20\n      mstore\n      dup2\n      dup2\n      keccak256\n        /* \"contracts/contracts/permit2/AllowanceTransfer.sol\":3614:3624  msg.sender */\n      caller\n        /* \"contracts/contracts/permit2/Permit2.sol\":385:537  contract Permit2 is SignatureTransfer, AllowanceTransfer {... */\n      dup3\n      mstore\n      0x20\n      mstore\n      keccak256\n      swap5\n      dup6\n      sload\n      swap6\n      0xffffffffffff\n      dup8\n      0xa0\n      shr\n      and\n        /* \"contracts/contracts/permit2/AllowanceTransfer.sol\":3640:3655  block.timestamp */\n      dup1\n      timestamp\n        /* \"contracts/contracts/permit2/AllowanceTransfer.sol\":3640:3676  block.timestamp > allowed.expiration */\n      gt\n        /* \"contracts/contracts/permit2/AllowanceTransfer.sol\":3636:3721  if (block.timestamp > allowed.expiration) revert AllowanceExpired(allowed.expiration) */\n      tag_451\n      jumpi\n        /* \"contracts/contracts/permit2/Permit2.sol\":385:537  contract Permit2 is SignatureTransfer, AllowanceTransfer {... */\n      pop\n      dup3\n      dup8\n      and\n        /* \"contracts/contracts/permit2/AllowanceTransfer.sol\":3780:3810  maxAmount != type(uint160).max */\n      swap7\n      dup4\n      dup9\n      sub\n        /* \"contracts/contracts/permit2/AllowanceTransfer.sol\":3776:4065  if (maxAmount != type(uint160).max) {... */\n      tag_453\n      jumpi\n        /* \"contracts/contracts/permit2/AllowanceTransfer.sol\":3463:4200  function _transfer(address from, address to, uint160 amount, address token) private {... */\n    tag_454:\n        /* \"contracts/contracts/permit2/Permit2.sol\":385:537  contract Permit2 is SignatureTransfer, AllowanceTransfer {... */\n      pop\n      pop\n        /* \"contracts/contracts/permit2/AllowanceTransfer.sol\":4146:4193  ERC20(token).safeTransferFrom(from, to, amount) */\n      tag_455\n        /* \"contracts/contracts/permit2/Permit2.sol\":385:537  contract Permit2 is SignatureTransfer, AllowanceTransfer {... */\n      swap6\n      pop\n      and\n        /* \"contracts/contracts/permit2/AllowanceTransfer.sol\":4146:4193  ERC20(token).safeTransferFrom(from, to, amount) */\n      swap3\n      tag_37\n      jump\t// in\n    tag_455:\n        /* \"contracts/contracts/permit2/AllowanceTransfer.sol\":3463:4200  function _transfer(address from, address to, uint160 amount, address token) private {... */\n      jump\t// out\n        /* \"contracts/contracts/permit2/AllowanceTransfer.sol\":3776:4065  if (maxAmount != type(uint160).max) {... */\n    tag_453:\n        /* \"contracts/contracts/permit2/Permit2.sol\":385:537  contract Permit2 is SignatureTransfer, AllowanceTransfer {... */\n      dup8\n      dup5\n      dup5\n      and\n        /* \"contracts/contracts/permit2/AllowanceTransfer.sol\":3830:3848  amount > maxAmount */\n      gt\n        /* \"contracts/contracts/permit2/AllowanceTransfer.sol\":3826:4055  if (amount > maxAmount) {... */\n      0x00\n        /* \"contracts/contracts/permit2/AllowanceTransfer.sol\":3830:3848  amount > maxAmount */\n      eq\n      tag_456\n      jumpi\n        /* \"contracts/contracts/permit2/Permit2.sol\":385:537  contract Permit2 is SignatureTransfer, AllowanceTransfer {... */\n      mload(0x40)\n      shl(0xe0, 0xf96fb071)\n        /* \"contracts/contracts/permit2/AllowanceTransfer.sol\":3875:3907  InsufficientAllowance(maxAmount) */\n      dup2\n      mstore\n      0x04\n      dup2\n      add\n        /* \"contracts/contracts/permit2/Permit2.sol\":385:537  contract Permit2 is SignatureTransfer, AllowanceTransfer {... */\n      dup10\n      swap1\n      mstore\n      0x24\n      swap1\n        /* \"contracts/contracts/permit2/AllowanceTransfer.sol\":3875:3907  InsufficientAllowance(maxAmount) */\n      revert\n        /* \"contracts/contracts/permit2/AllowanceTransfer.sol\":3826:4055  if (amount > maxAmount) {... */\n    tag_456:\n        /* \"contracts/contracts/permit2/Permit2.sol\":385:537  contract Permit2 is SignatureTransfer, AllowanceTransfer {... */\n      dup4\n      dup4\n        /* \"contracts/contracts/permit2/AllowanceTransfer.sol\":4146:4193  ERC20(token).safeTransferFrom(from, to, amount) */\n      tag_455\n        /* \"contracts/contracts/permit2/Permit2.sol\":385:537  contract Permit2 is SignatureTransfer, AllowanceTransfer {... */\n      swap10\n      sub\n      and\n      swap1\n      shl(0xa0, 0xffffffffffffffffffffffff)\n      and\n      or\n      swap1\n      sstore\n        /* \"contracts/contracts/permit2/AllowanceTransfer.sol\":3776:4065  if (maxAmount != type(uint160).max) {... */\n      0x00\n      dup1\n      jump(tag_454)\n        /* \"contracts/contracts/permit2/AllowanceTransfer.sol\":3636:3721  if (block.timestamp > allowed.expiration) revert AllowanceExpired(allowed.expiration) */\n    tag_451:\n        /* \"contracts/contracts/permit2/Permit2.sol\":385:537  contract Permit2 is SignatureTransfer, AllowanceTransfer {... */\n      0x24\n      swap1\n      mload(0x40)\n        /* \"contracts/contracts/permit2/AllowanceTransfer.sol\":3685:3721  AllowanceExpired(allowed.expiration) */\n      swap1\n      shl(0xe1, 0x6c0d9797)\n      dup3\n      mstore\n      0x04\n      dup3\n      add\n        /* \"contracts/contracts/permit2/Permit2.sol\":385:537  contract Permit2 is SignatureTransfer, AllowanceTransfer {... */\n      mstore\n        /* \"contracts/contracts/permit2/AllowanceTransfer.sol\":3685:3721  AllowanceExpired(allowed.expiration) */\n      revert\n        /* \"contracts/contracts/permit2/Permit2.sol\":385:537  contract Permit2 is SignatureTransfer, AllowanceTransfer {... */\n    tag_26:\n      swap2\n      swap1\n      dup2\n      lt\n      iszero\n      tag_413\n      jumpi\n      0x06\n      shl\n      add\n      swap1\n      jump\t// out\n    tag_27:\n      calldataload\n      sub(shl(0xa0, 0x01), 0x01)\n      dup2\n      and\n      dup2\n      sub\n      tag_350\n      jumpi\n      swap1\n      jump\t// out\n        /* \"contracts/contracts/permit2/AllowanceTransfer.sol\":5662:6192  function _updateApproval(PermitDetails memory details, address owner, address spender) private {... */\n    tag_28:\n      swap1\n        /* \"contracts/contracts/permit2/Permit2.sol\":385:537  contract Permit2 is SignatureTransfer, AllowanceTransfer {... */\n      0xffffffffffff\n        /* \"contracts/contracts/permit2/AllowanceTransfer.sol\":5782:5795  details.nonce */\n      swap1\n      dup2\n      0x60\n      dup5\n      add\n        /* \"contracts/contracts/permit2/Permit2.sol\":385:537  contract Permit2 is SignatureTransfer, AllowanceTransfer {... */\n      mload\n      and\n      0x01\n      dup1\n      0xa0\n      shl\n      sub\n      swap1\n      dup2\n      dup6\n      mload\n      and\n        /* \"contracts/contracts/permit2/AllowanceTransfer.sol\":5861:5875  details.amount */\n      swap5\n      dup3\n      0x20\n      dup3\n      add\n        /* \"contracts/contracts/permit2/Permit2.sol\":385:537  contract Permit2 is SignatureTransfer, AllowanceTransfer {... */\n      mload\n      and\n        /* \"contracts/contracts/permit2/AllowanceTransfer.sol\":5905:5923  details.expiration */\n      swap3\n      dup1\n      dup7\n      0x40\n      dup1\n      swap5\n      add\n        /* \"contracts/contracts/permit2/Permit2.sol\":385:537  contract Permit2 is SignatureTransfer, AllowanceTransfer {... */\n      mload\n      and\n      swap6\n      and\n      swap6\n      0x00\n      swap2\n      dup8\n      dup4\n      mstore\n      0x01\n        /* \"contracts/contracts/permit2/AllowanceTransfer.sol\":5861:5875  details.amount */\n      0x20\n        /* \"contracts/contracts/permit2/Permit2.sol\":385:537  contract Permit2 is SignatureTransfer, AllowanceTransfer {... */\n      mstore\n      dup4\n      dup4\n      keccak256\n      dup10\n      dup5\n      mstore\n        /* \"contracts/contracts/permit2/AllowanceTransfer.sol\":5861:5875  details.amount */\n      0x20\n        /* \"contracts/contracts/permit2/Permit2.sol\":385:537  contract Permit2 is SignatureTransfer, AllowanceTransfer {... */\n      mstore\n      dup4\n      dup4\n      keccak256\n      swap10\n      and\n      swap9\n      dup10\n      dup4\n      mstore\n        /* \"contracts/contracts/permit2/AllowanceTransfer.sol\":5861:5875  details.amount */\n      0x20\n        /* \"contracts/contracts/permit2/Permit2.sol\":385:537  contract Permit2 is SignatureTransfer, AllowanceTransfer {... */\n      mstore\n      dup3\n      dup3\n      keccak256\n      swap2\n      dup5\n      dup4\n      sload\n      0xd0\n      shr\n        /* \"contracts/contracts/permit2/AllowanceTransfer.sol\":6014:6036  allowed.nonce != nonce */\n      sub\n        /* \"contracts/contracts/permit2/AllowanceTransfer.sol\":6010:6059  if (allowed.nonce != nonce) revert InvalidNonce() */\n      tag_462\n      jumpi\n        /* \"contracts/contracts/lib/Allowance.sol\":843:922  expiration == BLOCK_TIMESTAMP_EXPIRATION ? uint48(block.timestamp) : expiration */\n      swap2\n      dup6\n        /* \"contracts/contracts/permit2/AllowanceTransfer.sol\":6129:6185  Permit(owner, token, spender, amount, expiration, nonce) */\n      tag_464\n        /* \"contracts/contracts/lib/Allowance.sol\":843:922  expiration == BLOCK_TIMESTAMP_EXPIRATION ? uint48(block.timestamp) : expiration */\n      swap5\n      swap3\n        /* \"contracts/contracts/permit2/AllowanceTransfer.sol\":6129:6185  Permit(owner, token, spender, amount, expiration, nonce) */\n      0xc6a377bfc4eb120024a8ac08eef205be16b817020812c73223e81d1bdb9708ec\n        /* \"contracts/contracts/lib/Allowance.sol\":843:922  expiration == BLOCK_TIMESTAMP_EXPIRATION ? uint48(block.timestamp) : expiration */\n      swap9\n      swap8\n      swap7\n      swap5\n        /* \"contracts/contracts/lib/Allowance.sol\":843:883  expiration == BLOCK_TIMESTAMP_EXPIRATION */\n      pop\n      dup8\n      iszero\n        /* \"contracts/contracts/lib/Allowance.sol\":843:922  expiration == BLOCK_TIMESTAMP_EXPIRATION ? uint48(block.timestamp) : expiration */\n      0x00\n        /* \"contracts/contracts/permit2/Permit2.sol\":385:537  contract Permit2 is SignatureTransfer, AllowanceTransfer {... */\n      eq\n      tag_465\n      jumpi\n        /* \"contracts/contracts/lib/Allowance.sol\":893:908  block.timestamp */\n      timestamp\n        /* \"contracts/contracts/permit2/Permit2.sol\":385:537  contract Permit2 is SignatureTransfer, AllowanceTransfer {... */\n      and\n        /* \"contracts/contracts/lib/Allowance.sol\":843:922  expiration == BLOCK_TIMESTAMP_EXPIRATION ? uint48(block.timestamp) : expiration */\n    tag_467:\n        /* \"contracts/contracts/permit2/Permit2.sol\":385:537  contract Permit2 is SignatureTransfer, AllowanceTransfer {... */\n      0x01\n      dup6\n      add\n      0xd0\n      shl\n      not(sub(shl(0xd0, 0x01), 0x01))\n      and\n      0xa0\n      swap2\n      swap1\n      swap2\n      shl\n      shl(0xa0, 0xffffffffffff)\n      and\n        /* \"contracts/contracts/lib/Allowance.sol\":1834:1886  (uint256(nonce) << 208) | uint256(expiration) << 160 */\n      or\n        /* \"contracts/contracts/lib/Allowance.sol\":1834:1895  (uint256(nonce) << 208) | uint256(expiration) << 160 | amount */\n      or\n        /* \"contracts/contracts/lib/Allowance.sol\":1001:1060  assembly {... */\n      swap1\n      sstore\n        /* \"contracts/contracts/permit2/Permit2.sol\":385:537  contract Permit2 is SignatureTransfer, AllowanceTransfer {... */\n      mload\n      sub(shl(0xa0, 0x01), 0x01)\n      swap1\n      swap4\n      and\n      dup4\n      mstore\n      0xffffffffffff\n      swap4\n      dup5\n      and\n      0x20\n      dup5\n      add\n      mstore\n      swap1\n      swap3\n      and\n      0x40\n      dup3\n      add\n      mstore\n      swap1\n      dup2\n      swap1\n      0x60\n      dup3\n      add\n      swap1\n      jump\n        /* \"contracts/contracts/permit2/AllowanceTransfer.sol\":6129:6185  Permit(owner, token, spender, amount, expiration, nonce) */\n    tag_464:\n      sub\n      swap1\n      log4\n        /* \"contracts/contracts/permit2/AllowanceTransfer.sol\":5662:6192  function _updateApproval(PermitDetails memory details, address owner, address spender) private {... */\n      jump\t// out\n        /* \"contracts/contracts/lib/Allowance.sol\":843:922  expiration == BLOCK_TIMESTAMP_EXPIRATION ? uint48(block.timestamp) : expiration */\n    tag_465:\n      pop\n      dup7\n      jump(tag_467)\n        /* \"contracts/contracts/permit2/AllowanceTransfer.sol\":6010:6059  if (allowed.nonce != nonce) revert InvalidNonce() */\n    tag_462:\n        /* \"contracts/contracts/permit2/Permit2.sol\":385:537  contract Permit2 is SignatureTransfer, AllowanceTransfer {... */\n      dup4\n      mload\n      shl(0xe1, 0x3ab3447f)\n        /* \"contracts/contracts/permit2/AllowanceTransfer.sol\":6045:6059  InvalidNonce() */\n      dup2\n      mstore\n      0x04\n      swap1\n      revert\n        /* \"contracts/contracts/permit2/EIP712.sol\":1186:1411  function DOMAIN_SEPARATOR() public view override returns (bytes32) {... */\n    tag_29:\n        /* \"contracts/contracts/permit2/EIP712.sol\":1270:1283  block.chainid */\n      chainid\n        /* \"contracts/contracts/permit2/EIP712.sol\":1287:1303  _CACHED_CHAIN_ID */\n      immutable(\"0x3ab4fb69c8e122442af87ae588015f836e7cde3029bbb6dab1983bc840231d63\")\n        /* \"contracts/contracts/permit2/EIP712.sol\":1270:1303  block.chainid == _CACHED_CHAIN_ID */\n      sub\n        /* \"contracts/contracts/permit2/EIP712.sol\":1287:1303  _CACHED_CHAIN_ID */\n      tag_468\n      jumpi\n        /* \"contracts/contracts/permit2/EIP712.sol\":1318:1342  _CACHED_DOMAIN_SEPARATOR */\n      immutable(\"0x4f4ac30ff8bfcef8cd1068d1427faf7fb52fa3a1610b1f430e1f69a91ebb9673\")\n        /* \"contracts/contracts/permit2/EIP712.sol\":1186:1411  function DOMAIN_SEPARATOR() public view override returns (bytes32) {... */\n      swap1\n      jump\t// out\n        /* \"contracts/contracts/permit2/EIP712.sol\":1270:1404  block.chainid == _CACHED_CHAIN_ID... */\n    tag_468:\n        /* \"contracts/contracts/permit2/Permit2.sol\":385:537  contract Permit2 is SignatureTransfer, AllowanceTransfer {... */\n      mload(0x40)\n        /* \"contracts/contracts/permit2/EIP712.sol\":1632:1692  abi.encode(typeHash, nameHash, block.chainid, address(this)) */\n      0x20\n      dup2\n      add\n        /* \"contracts/contracts/permit2/Permit2.sol\":385:537  contract Permit2 is SignatureTransfer, AllowanceTransfer {... */\n      swap1\n        /* \"contracts/contracts/permit2/EIP712.sol\":789:869  keccak256(\"EIP712Domain(string name,uint256 chainId,address verifyingContract)\") */\n      0x8cad95687ba82c2ce50e74f7b754645e5117c3a5bec8151c0726d5857980a866\n        /* \"contracts/contracts/permit2/Permit2.sol\":385:537  contract Permit2 is SignatureTransfer, AllowanceTransfer {... */\n      dup3\n      mstore\n        /* \"contracts/contracts/permit2/EIP712.sol\":717:737  keccak256(\"Permit2\") */\n      0x9ac997416e8ff9d2ff6bebeb7149f65cdae5e32e2b90440b566bb3044041d36a\n        /* \"contracts/contracts/permit2/Permit2.sol\":385:537  contract Permit2 is SignatureTransfer, AllowanceTransfer {... */\n      0x40\n      dup3\n      add\n      mstore\n        /* \"contracts/contracts/permit2/EIP712.sol\":1270:1283  block.chainid */\n      chainid\n        /* \"contracts/contracts/permit2/Permit2.sol\":385:537  contract Permit2 is SignatureTransfer, AllowanceTransfer {... */\n      0x60\n      dup3\n      add\n      mstore\n        /* \"contracts/contracts/permit2/EIP712.sol\":1686:1690  this */\n      address\n        /* \"contracts/contracts/permit2/Permit2.sol\":385:537  contract Permit2 is SignatureTransfer, AllowanceTransfer {... */\n      0x80\n      dup3\n      add\n      mstore\n      0x80\n        /* \"contracts/contracts/permit2/EIP712.sol\":1632:1692  abi.encode(typeHash, nameHash, block.chainid, address(this)) */\n      dup2\n      mstore\n      tag_471\n      dup2\n      tag_3\n      jump\t// in\n    tag_471:\n        /* \"contracts/contracts/lib/PermitHash.sol\":433:605  keccak256(... */\n      mload\n        /* \"contracts/contracts/permit2/EIP712.sol\":1622:1693  keccak256(abi.encode(typeHash, nameHash, block.chainid, address(this))) */\n      swap1\n      keccak256\n        /* \"contracts/contracts/permit2/EIP712.sol\":1186:1411  function DOMAIN_SEPARATOR() public view override returns (bytes32) {... */\n      swap1\n      jump\t// out\n        /* \"contracts/contracts/permit2/EIP712.sol\":1757:1924  function _hashTypedData(bytes32 dataHash) internal view returns (bytes32) {... */\n    tag_30:\n        /* \"contracts/contracts/permit2/EIP712.sol\":1887:1905  DOMAIN_SEPARATOR() */\n      tag_472\n      tag_29\n      jump\t// in\n    tag_472:\n        /* \"contracts/contracts/permit2/Permit2.sol\":385:537  contract Permit2 is SignatureTransfer, AllowanceTransfer {... */\n      swap1\n      mload(0x40)\n        /* \"contracts/contracts/permit2/EIP712.sol\":1858:1916  abi.encodePacked(\"\\x19\\x01\", DOMAIN_SEPARATOR(), dataHash) */\n      swap1\n      0x20\n      dup3\n      add\n        /* \"contracts/contracts/permit2/Permit2.sol\":385:537  contract Permit2 is SignatureTransfer, AllowanceTransfer {... */\n      swap3\n      shl(0xf0, 0x1901)\n      dup5\n      mstore\n      0x22\n      dup4\n      add\n      mstore\n      0x42\n      dup3\n      add\n      mstore\n      0x42\n        /* \"contracts/contracts/permit2/EIP712.sol\":1858:1916  abi.encodePacked(\"\\x19\\x01\", DOMAIN_SEPARATOR(), dataHash) */\n      dup2\n      mstore\n      tag_471\n      dup2\n      tag_1\n      jump\t// in\n        /* \"contracts/contracts/lib/PermitHash.sol\":5539:5768  function _hashTokenPermissions(ISignatureTransfer.TokenPermissions memory permitted)... */\n    tag_31:\n        /* \"contracts/contracts/permit2/Permit2.sol\":385:537  contract Permit2 is SignatureTransfer, AllowanceTransfer {... */\n      mload(0x40)\n        /* \"contracts/contracts/lib/PermitHash.sol\":5710:5760  abi.encode(_TOKEN_PERMISSIONS_TYPEHASH, permitted) */\n      0x20\n      dup1\n      dup3\n      add\n        /* \"contracts/contracts/permit2/Permit2.sol\":385:537  contract Permit2 is SignatureTransfer, AllowanceTransfer {... */\n      swap3\n        /* \"contracts/contracts/lib/PermitHash.sol\":895:954  keccak256(\"TokenPermissions(address token,uint256 amount)\") */\n      0x618358ac3db8dc274f0cd8829da7e234bd48cd73c4a740aede1adec9846d06a1\n        /* \"contracts/contracts/permit2/Permit2.sol\":385:537  contract Permit2 is SignatureTransfer, AllowanceTransfer {... */\n      dup5\n      mstore\n      0x01\n      dup1\n      0xa0\n      shl\n      sub\n        /* \"contracts/contracts/lib/PermitHash.sol\":895:954  keccak256(\"TokenPermissions(address token,uint256 amount)\") */\n      dup2\n      mload\n        /* \"contracts/contracts/permit2/Permit2.sol\":385:537  contract Permit2 is SignatureTransfer, AllowanceTransfer {... */\n      and\n      0x40\n        /* \"contracts/contracts/lib/PermitHash.sol\":895:954  keccak256(\"TokenPermissions(address token,uint256 amount)\") */\n      dup5\n      add\n        /* \"contracts/contracts/permit2/Permit2.sol\":385:537  contract Permit2 is SignatureTransfer, AllowanceTransfer {... */\n      mstore\n        /* \"contracts/contracts/lib/PermitHash.sol\":895:954  keccak256(\"TokenPermissions(address token,uint256 amount)\") */\n      add\n      mload\n      0x60\n      dup3\n      add\n        /* \"contracts/contracts/permit2/Permit2.sol\":385:537  contract Permit2 is SignatureTransfer, AllowanceTransfer {... */\n      mstore\n        /* \"contracts/contracts/lib/PermitHash.sol\":895:954  keccak256(\"TokenPermissions(address token,uint256 amount)\") */\n      0x60\n        /* \"contracts/contracts/lib/PermitHash.sol\":5710:5760  abi.encode(_TOKEN_PERMISSIONS_TYPEHASH, permitted) */\n      dup2\n      mstore\n      tag_471\n      dup2\n      tag_1\n      jump\t// in\n        /* \"contracts/contracts/lib/PermitHash.sol\":1621:1723  \"PermitWitnessTransferFrom(TokenPermissions permitted,address spender,uint256 nonce,uint256 deadline,\" */\n    tag_32:\n      swap1\n        /* \"contracts/contracts/lib/PermitHash.sol\":433:605  keccak256(... */\n      dup2\n      mload\n        /* \"contracts/contracts/lib/PermitHash.sol\":1621:1723  \"PermitWitnessTransferFrom(TokenPermissions permitted,address spender,uint256 nonce,uint256 deadline,\" */\n      swap2\n      0x00\n    tag_475:\n      dup4\n      dup2\n      lt\n      tag_476\n      jumpi\n      pop\n      pop\n      add\n      0x00\n      dup2\n      mstore\n      swap1\n      jump\t// out\n    tag_476:\n      dup1\n      0x20\n      dup1\n      swap3\n      dup5\n      add\n      add\n      mload\n      dup2\n      dup6\n      add\n      mstore\n      add\n      jump(tag_475)\n        /* \"contracts/contracts/permit2/SignatureTransfer.sol\":2066:2770  function _permitTransferFrom(... */\n    tag_34:\n      swap2\n      swap3\n      swap1\n      swap4\n        /* \"contracts/contracts/permit2/SignatureTransfer.sol\":2329:2360  transferDetails.requestedAmount */\n      0xa4\n        /* \"contracts/contracts/permit2/Permit2.sol\":385:537  contract Permit2 is SignatureTransfer, AllowanceTransfer {... */\n      calldataload\n        /* \"contracts/contracts/permit2/SignatureTransfer.sol\":2393:2408  permit.deadline */\n      swap4\n      0x40\n      dup5\n      add\n        /* \"contracts/contracts/permit2/Permit2.sol\":385:537  contract Permit2 is SignatureTransfer, AllowanceTransfer {... */\n      mload\n        /* \"contracts/contracts/permit2/SignatureTransfer.sol\":2375:2390  block.timestamp */\n      dup1\n      timestamp\n        /* \"contracts/contracts/permit2/SignatureTransfer.sol\":2375:2408  block.timestamp > permit.deadline */\n      gt\n        /* \"contracts/contracts/permit2/SignatureTransfer.sol\":2371:2450  if (block.timestamp > permit.deadline) revert SignatureExpired(permit.deadline) */\n      tag_478\n      jumpi\n        /* \"contracts/contracts/permit2/SignatureTransfer.sol\":2482:2498  permit.permitted */\n      pop\n        /* \"contracts/contracts/permit2/SignatureTransfer.sol\":2329:2360  transferDetails.requestedAmount */\n      0x20\n        /* \"contracts/contracts/permit2/SignatureTransfer.sol\":2482:2498  permit.permitted */\n      dup5\n      mload\n        /* \"contracts/contracts/permit2/SignatureTransfer.sol\":2482:2505  permit.permitted.amount */\n      add\n        /* \"contracts/contracts/permit2/Permit2.sol\":385:537  contract Permit2 is SignatureTransfer, AllowanceTransfer {... */\n      mload\n        /* \"contracts/contracts/permit2/SignatureTransfer.sol\":2464:2505  requestedAmount > permit.permitted.amount */\n      dup1\n      dup7\n      gt\n        /* \"contracts/contracts/permit2/SignatureTransfer.sol\":2460:2552  if (requestedAmount > permit.permitted.amount) revert InvalidAmount(permit.permitted.amount) */\n      tag_480\n      jumpi\n        /* \"contracts/contracts/permit2/SignatureTransfer.sol\":2589:2601  permit.nonce */\n      pop\n      swap2\n      dup6\n      swap2\n        /* \"contracts/contracts/permit2/SignatureTransfer.sol\":2630:2654  _hashTypedData(dataHash) */\n      tag_239\n        /* \"contracts/contracts/permit2/SignatureTransfer.sol\":2656:2661  owner */\n      tag_483\n        /* \"contracts/contracts/permit2/SignatureTransfer.sol\":2589:2601  permit.nonce */\n      swap5\n      tag_484\n        /* \"contracts/contracts/permit2/SignatureTransfer.sol\":2329:2360  transferDetails.requestedAmount */\n      0x20\n        /* \"contracts/contracts/permit2/SignatureTransfer.sol\":2589:2601  permit.nonce */\n      dup9\n      add\n        /* \"contracts/contracts/permit2/Permit2.sol\":385:537  contract Permit2 is SignatureTransfer, AllowanceTransfer {... */\n      mload\n        /* \"contracts/contracts/permit2/SignatureTransfer.sol\":2589:2601  permit.nonce */\n      dup7\n      tag_36\n      jump\t// in\n    tag_484:\n        /* \"contracts/contracts/permit2/SignatureTransfer.sol\":2630:2654  _hashTypedData(dataHash) */\n      tag_30\n      jump\t// in\n        /* \"contracts/contracts/permit2/SignatureTransfer.sol\":2656:2661  owner */\n    tag_483:\n        /* \"contracts/contracts/permit2/SignatureTransfer.sol\":2679:2695  permit.permitted */\n      mload\n        /* \"contracts/contracts/permit2/Permit2.sol\":385:537  contract Permit2 is SignatureTransfer, AllowanceTransfer {... */\n      mload\n      sub(shl(0xa0, 0x01), 0x01)\n      swap1\n      dup2\n      and\n      swap3\n      calldataload(0x84)\n      swap2\n      dup3\n      and\n      dup3\n      sub\n      tag_350\n      jumpi\n        /* \"contracts/contracts/permit2/SignatureTransfer.sol\":2747:2762  requestedAmount */\n      tag_455\n      swap4\n      tag_37\n      jump\t// in\n        /* \"contracts/contracts/permit2/SignatureTransfer.sol\":2460:2552  if (requestedAmount > permit.permitted.amount) revert InvalidAmount(permit.permitted.amount) */\n    tag_480:\n        /* \"contracts/contracts/permit2/Permit2.sol\":385:537  contract Permit2 is SignatureTransfer, AllowanceTransfer {... */\n      0x24\n      swap1\n        /* \"contracts/contracts/permit2/SignatureTransfer.sol\":2393:2408  permit.deadline */\n      0x40\n        /* \"contracts/contracts/permit2/Permit2.sol\":385:537  contract Permit2 is SignatureTransfer, AllowanceTransfer {... */\n      mload\n        /* \"contracts/contracts/permit2/SignatureTransfer.sol\":2514:2552  InvalidAmount(permit.permitted.amount) */\n      swap1\n      shl(0xe0, 0x3728b83d)\n      dup3\n      mstore\n      0x04\n      dup3\n      add\n        /* \"contracts/contracts/permit2/Permit2.sol\":385:537  contract Permit2 is SignatureTransfer, AllowanceTransfer {... */\n      mstore\n        /* \"contracts/contracts/permit2/SignatureTransfer.sol\":2514:2552  InvalidAmount(permit.permitted.amount) */\n      revert\n        /* \"contracts/contracts/permit2/SignatureTransfer.sol\":2371:2450  if (block.timestamp > permit.deadline) revert SignatureExpired(permit.deadline) */\n    tag_478:\n        /* \"contracts/contracts/permit2/Permit2.sol\":385:537  contract Permit2 is SignatureTransfer, AllowanceTransfer {... */\n      0x24\n      swap1\n        /* \"contracts/contracts/permit2/SignatureTransfer.sol\":2393:2408  permit.deadline */\n      0x40\n        /* \"contracts/contracts/permit2/Permit2.sol\":385:537  contract Permit2 is SignatureTransfer, AllowanceTransfer {... */\n      mload\n        /* \"contracts/contracts/permit2/AllowanceTransfer.sol\":2203:2244  SignatureExpired(permitBatch.sigDeadline) */\n      swap1\n      shl(0xe0, 0xcd21db4f)\n        /* \"contracts/contracts/permit2/SignatureTransfer.sol\":2417:2450  SignatureExpired(permit.deadline) */\n      dup3\n      mstore\n      0x04\n      dup3\n      add\n        /* \"contracts/contracts/permit2/Permit2.sol\":385:537  contract Permit2 is SignatureTransfer, AllowanceTransfer {... */\n      mstore\n        /* \"contracts/contracts/permit2/SignatureTransfer.sol\":2417:2450  SignatureExpired(permit.deadline) */\n      revert\n        /* \"contracts/contracts/permit2/SignatureTransfer.sol\":3928:5122  function _permitTransferFrom(... */\n    tag_35:\n      swap6\n      swap1\n      swap4\n      swap6\n        /* \"contracts/contracts/permit2/SignatureTransfer.sol\":4195:4211  permit.permitted */\n      dup1\n      mload\n        /* \"contracts/contracts/lib/PermitHash.sol\":433:605  keccak256(... */\n      mload\n        /* \"contracts/contracts/permit2/SignatureTransfer.sol\":4251:4266  permit.deadline */\n      swap6\n      0x40\n      swap3\n      dup4\n      dup4\n      add\n        /* \"contracts/contracts/permit2/Permit2.sol\":385:537  contract Permit2 is SignatureTransfer, AllowanceTransfer {... */\n      mload\n        /* \"contracts/contracts/permit2/SignatureTransfer.sol\":4233:4248  block.timestamp */\n      dup1\n      timestamp\n        /* \"contracts/contracts/permit2/SignatureTransfer.sol\":4233:4266  block.timestamp > permit.deadline */\n      gt\n        /* \"contracts/contracts/permit2/SignatureTransfer.sol\":4229:4308  if (block.timestamp > permit.deadline) revert SignatureExpired(permit.deadline) */\n      tag_488\n      jumpi\n        /* \"contracts/contracts/permit2/SignatureTransfer.sol\":4322:4360  numPermitted != transferDetails.length */\n      pop\n      dup5\n      dup9\n      sub\n        /* \"contracts/contracts/permit2/SignatureTransfer.sol\":4318:4385  if (numPermitted != transferDetails.length) revert LengthMismatch() */\n      tag_490\n      jumpi\n        /* \"contracts/contracts/permit2/SignatureTransfer.sol\":4488:4493  owner */\n      tag_492\n        /* \"contracts/contracts/permit2/SignatureTransfer.sol\":4422:4434  permit.nonce */\n      swap2\n      dup7\n      swap2\n        /* \"contracts/contracts/permit2/SignatureTransfer.sol\":4462:4486  _hashTypedData(dataHash) */\n      tag_239\n        /* \"contracts/contracts/permit2/SignatureTransfer.sol\":4422:4434  permit.nonce */\n      0x20\n      swap12\n      tag_484\n      dup14\n      dup9\n      add\n        /* \"contracts/contracts/permit2/Permit2.sol\":385:537  contract Permit2 is SignatureTransfer, AllowanceTransfer {... */\n      mload\n        /* \"contracts/contracts/permit2/SignatureTransfer.sol\":4422:4434  permit.nonce */\n      dup7\n      tag_36\n      jump\t// in\n        /* \"contracts/contracts/permit2/SignatureTransfer.sol\":4488:4493  owner */\n    tag_492:\n      0x00\n        /* \"contracts/contracts/permit2/SignatureTransfer.sol\":4549:4565  i < numPermitted */\n    tag_495:\n      dup7\n      dup2\n      lt\n      tag_496\n      jumpi\n        /* \"contracts/contracts/permit2/SignatureTransfer.sol\":3928:5122  function _permitTransferFrom(... */\n      pop\n      pop\n      pop\n      pop\n      pop\n      pop\n      pop\n      pop\n      jump\t// out\n        /* \"contracts/contracts/permit2/SignatureTransfer.sol\":4567:4570  ++i */\n    tag_496:\n        /* \"contracts/contracts/permit2/SignatureTransfer.sol\":4626:4645  permit.permitted[i] */\n      tag_498\n        /* \"contracts/contracts/permit2/SignatureTransfer.sol\":4626:4642  permit.permitted */\n      dup2\n      dup4\n      mload\n        /* \"contracts/contracts/permit2/SignatureTransfer.sol\":4626:4645  permit.permitted[i] */\n      tag_21\n      jump\t// in\n    tag_498:\n      mload\n        /* \"contracts/contracts/permit2/SignatureTransfer.sol\":4689:4707  transferDetails[i] */\n      dup9\n      tag_499\n      dup4\n      dup8\n      dup11\n      tag_26\n      jump\t// in\n    tag_499:\n        /* \"contracts/contracts/permit2/SignatureTransfer.sol\":4689:4723  transferDetails[i].requestedAmount */\n      add\n        /* \"contracts/contracts/permit2/Permit2.sol\":385:537  contract Permit2 is SignatureTransfer, AllowanceTransfer {... */\n      calldataload\n        /* \"contracts/contracts/permit2/SignatureTransfer.sol\":4764:4780  permitted.amount */\n      swap1\n      dup10\n      dup2\n      add\n        /* \"contracts/contracts/permit2/Permit2.sol\":385:537  contract Permit2 is SignatureTransfer, AllowanceTransfer {... */\n      mload\n        /* \"contracts/contracts/permit2/SignatureTransfer.sol\":4746:4780  requestedAmount > permitted.amount */\n      dup1\n      dup4\n      gt\n        /* \"contracts/contracts/permit2/SignatureTransfer.sol\":4742:4820  if (requestedAmount > permitted.amount) revert InvalidAmount(permitted.amount) */\n      tag_500\n      jumpi\n        /* \"contracts/contracts/permit2/SignatureTransfer.sol\":4843:4863  requestedAmount != 0 */\n      pop\n      swap2\n      dup2\n      dup9\n      dup9\n      dup9\n        /* \"contracts/contracts/permit2/Permit2.sol\":385:537  contract Permit2 is SignatureTransfer, AllowanceTransfer {... */\n      0x01\n        /* \"contracts/contracts/permit2/SignatureTransfer.sol\":4843:4863  requestedAmount != 0 */\n      swap7\n      dup6\n      swap7\n        /* \"contracts/contracts/permit2/SignatureTransfer.sol\":4839:5092  if (requestedAmount != 0) {... */\n      tag_502\n      jumpi\n        /* \"contracts/contracts/permit2/SignatureTransfer.sol\":4567:4570  ++i */\n    tag_503:\n      pop\n      pop\n      pop\n      pop\n      pop\n      pop\n        /* \"contracts/contracts/permit2/Permit2.sol\":385:537  contract Permit2 is SignatureTransfer, AllowanceTransfer {... */\n      add\n        /* \"contracts/contracts/permit2/SignatureTransfer.sol\":4534:4547  uint256 i = 0 */\n      jump(tag_495)\n        /* \"contracts/contracts/permit2/SignatureTransfer.sol\":4839:5092  if (requestedAmount != 0) {... */\n    tag_502:\n        /* \"contracts/contracts/permit2/SignatureTransfer.sol\":5057:5072  requestedAmount */\n      tag_504\n        /* \"contracts/contracts/permit2/Permit2.sol\":385:537  contract Permit2 is SignatureTransfer, AllowanceTransfer {... */\n      swap6\n        /* \"contracts/contracts/permit2/SignatureTransfer.sol\":5034:5055  transferDetails[i].to */\n      tag_505\n        /* \"contracts/contracts/permit2/Permit2.sol\":385:537  contract Permit2 is SignatureTransfer, AllowanceTransfer {... */\n      swap3\n        /* \"contracts/contracts/permit2/SignatureTransfer.sol\":5034:5052  transferDetails[i] */\n      tag_140\n        /* \"contracts/contracts/permit2/Permit2.sol\":385:537  contract Permit2 is SignatureTransfer, AllowanceTransfer {... */\n      swap3\n      dup11\n      dup1\n      0xa0\n      shl\n      sub\n      swap1\n      mload\n      and\n        /* \"contracts/contracts/permit2/SignatureTransfer.sol\":5034:5052  transferDetails[i] */\n      swap6\n      tag_26\n      jump\t// in\n        /* \"contracts/contracts/permit2/SignatureTransfer.sol\":5034:5055  transferDetails[i].to */\n    tag_505:\n        /* \"contracts/contracts/permit2/SignatureTransfer.sol\":5057:5072  requestedAmount */\n      swap2\n      tag_37\n      jump\t// in\n    tag_504:\n        /* \"contracts/contracts/permit2/SignatureTransfer.sol\":4839:5092  if (requestedAmount != 0) {... */\n      dup1\n      0x00\n      dup9\n      dup9\n      dup9\n      dup4\n      jump(tag_503)\n        /* \"contracts/contracts/permit2/SignatureTransfer.sol\":4742:4820  if (requestedAmount > permitted.amount) revert InvalidAmount(permitted.amount) */\n    tag_500:\n        /* \"contracts/contracts/permit2/Permit2.sol\":385:537  contract Permit2 is SignatureTransfer, AllowanceTransfer {... */\n      0x24\n      swap1\n      dup7\n      mload\n        /* \"contracts/contracts/permit2/SignatureTransfer.sol\":2514:2552  InvalidAmount(permit.permitted.amount) */\n      swap1\n      shl(0xe0, 0x3728b83d)\n        /* \"contracts/contracts/permit2/SignatureTransfer.sol\":4789:4820  InvalidAmount(permitted.amount) */\n      dup3\n      mstore\n      0x04\n      dup3\n      add\n        /* \"contracts/contracts/permit2/Permit2.sol\":385:537  contract Permit2 is SignatureTransfer, AllowanceTransfer {... */\n      mstore\n        /* \"contracts/contracts/permit2/SignatureTransfer.sol\":4789:4820  InvalidAmount(permitted.amount) */\n      revert\n        /* \"contracts/contracts/permit2/SignatureTransfer.sol\":4318:4385  if (numPermitted != transferDetails.length) revert LengthMismatch() */\n    tag_490:\n        /* \"contracts/contracts/permit2/Permit2.sol\":385:537  contract Permit2 is SignatureTransfer, AllowanceTransfer {... */\n      dup4\n      mload\n      not(sub(shl(0xe3, 0x1398b9), 0x01))\n        /* \"contracts/contracts/permit2/SignatureTransfer.sol\":4369:4385  LengthMismatch() */\n      dup2\n      mstore\n      0x04\n      swap1\n      revert\n        /* \"contracts/contracts/permit2/SignatureTransfer.sol\":4229:4308  if (block.timestamp > permit.deadline) revert SignatureExpired(permit.deadline) */\n    tag_488:\n        /* \"contracts/contracts/permit2/Permit2.sol\":385:537  contract Permit2 is SignatureTransfer, AllowanceTransfer {... */\n      0x24\n      swap1\n      dup6\n      mload\n        /* \"contracts/contracts/permit2/AllowanceTransfer.sol\":2203:2244  SignatureExpired(permitBatch.sigDeadline) */\n      swap1\n      shl(0xe0, 0xcd21db4f)\n        /* \"contracts/contracts/permit2/SignatureTransfer.sol\":4275:4308  SignatureExpired(permit.deadline) */\n      dup3\n      mstore\n      0x04\n      dup3\n      add\n        /* \"contracts/contracts/permit2/Permit2.sol\":385:537  contract Permit2 is SignatureTransfer, AllowanceTransfer {... */\n      mstore\n        /* \"contracts/contracts/permit2/SignatureTransfer.sol\":4275:4308  SignatureExpired(permit.deadline) */\n      revert\n        /* \"contracts/contracts/permit2/SignatureTransfer.sol\":6241:6534  function _useUnorderedNonce(address from, uint256 nonce) internal {... */\n    tag_36:\n      swap1\n        /* \"contracts/contracts/permit2/SignatureTransfer.sol\":6399:6400  1 */\n      0x01\n        /* \"contracts/contracts/lib/SignatureVerification.sol\":625:693  (0x7fffffffffffffffffffffffffffffffffffffffffffffffffffffffffffffff) */\n      0xff\n      dup3\n      and\n        /* \"contracts/contracts/permit2/Permit2.sol\":385:537  contract Permit2 is SignatureTransfer, AllowanceTransfer {... */\n      shl\n      swap2\n      0x01\n      dup1\n      0xa0\n      shl\n      sub\n      and\n      0x00\n      mstore\n      mstore(0x20, 0x00)\n      keccak256(0x00, 0x40)\n      swap1\n        /* \"contracts/contracts/permit2/SignatureTransfer.sol\":5983:5984  8 */\n      0x08\n        /* \"contracts/contracts/permit2/Permit2.sol\":385:537  contract Permit2 is SignatureTransfer, AllowanceTransfer {... */\n      shr\n      0x00\n      mstore\n      0x20\n      mstore\n      keccak256(0x00, 0x40)\n      dup2\n      dup2\n      sload\n        /* \"contracts/contracts/permit2/SignatureTransfer.sol\":6438:6471  nonceBitmap[from][wordPos] ^= bit */\n      xor\n        /* \"contracts/contracts/permit2/Permit2.sol\":385:537  contract Permit2 is SignatureTransfer, AllowanceTransfer {... */\n      dup1\n      swap2\n      sstore\n        /* \"contracts/contracts/permit2/SignatureTransfer.sol\":6486:6499  flipped & bit */\n      and\n        /* \"contracts/contracts/permit2/SignatureTransfer.sol\":6486:6504  flipped & bit == 0 */\n      iszero\n        /* \"contracts/contracts/permit2/SignatureTransfer.sol\":6482:6527  if (flipped & bit == 0) revert InvalidNonce() */\n      tag_507\n      jumpi\n        /* \"contracts/contracts/permit2/SignatureTransfer.sol\":6241:6534  function _useUnorderedNonce(address from, uint256 nonce) internal {... */\n      jump\t// out\n        /* \"contracts/contracts/permit2/SignatureTransfer.sol\":6482:6527  if (flipped & bit == 0) revert InvalidNonce() */\n    tag_507:\n        /* \"contracts/contracts/permit2/Permit2.sol\":385:537  contract Permit2 is SignatureTransfer, AllowanceTransfer {... */\n      mload(0x40)\n      shl(0xe1, 0x3ab3447f)\n        /* \"contracts/contracts/permit2/SignatureTransfer.sol\":6513:6527  InvalidNonce() */\n      dup2\n      mstore\n      0x04\n      swap1\n      revert\n        /* \"solmate/src/utils/SafeTransferLib.sol\":1328:3110  function safeTransferFrom(... */\n    tag_37:\n      swap2\n      0x00\n      dup1\n      swap4\n        /* \"solmate/src/utils/SafeTransferLib.sol\":1532:3053  assembly {... */\n      0x20\n        /* \"solmate/src/utils/SafeTransferLib.sol\":1328:3110  function safeTransferFrom(... */\n      swap6\n        /* \"solmate/src/utils/SafeTransferLib.sol\":1532:3053  assembly {... */\n      0x64\n        /* \"solmate/src/utils/SafeTransferLib.sol\":1328:3110  function safeTransferFrom(... */\n      swap5\n        /* \"solmate/src/utils/SafeTransferLib.sol\":1532:3053  assembly {... */\n      mload(0x40)\n      swap5\n      shl(0xe0, 0x23b872dd)\n      dup7\n      mstore\n        /* \"contracts/contracts/permit2/Permit2.sol\":385:537  contract Permit2 is SignatureTransfer, AllowanceTransfer {... */\n      0x01\n      dup1\n      0xa0\n      shl\n      sub\n        /* \"solmate/src/utils/SafeTransferLib.sol\":1532:3053  assembly {... */\n      dup1\n      swap3\n      and\n      0x04\n      dup8\n      add\n      mstore\n      and\n      0x24\n      dup6\n      add\n      mstore\n      0x44\n      dup5\n      add\n      mstore\n      gas\n      call\n      iszero(returndatasize)\n      gt(returndatasize, 0x1f)\n        /* \"contracts/contracts/permit2/Permit2.sol\":385:537  contract Permit2 is SignatureTransfer, AllowanceTransfer {... */\n      0x01\n      0x00\n        /* \"solmate/src/utils/SafeTransferLib.sol\":1532:3053  assembly {... */\n      mload\n      eq\n      and\n      or\n      and\n        /* \"contracts/contracts/permit2/Permit2.sol\":385:537  contract Permit2 is SignatureTransfer, AllowanceTransfer {... */\n      iszero\n      tag_509\n      jumpi\n        /* \"solmate/src/utils/SafeTransferLib.sol\":1328:3110  function safeTransferFrom(... */\n      jump\t// out\n        /* \"contracts/contracts/permit2/Permit2.sol\":385:537  contract Permit2 is SignatureTransfer, AllowanceTransfer {... */\n    tag_509:\n        /* \"solmate/src/utils/SafeTransferLib.sol\":1532:3053  assembly {... */\n      0x40\n        /* \"contracts/contracts/permit2/Permit2.sol\":385:537  contract Permit2 is SignatureTransfer, AllowanceTransfer {... */\n      mload\n      shl(0xe5, 0x461bcd)\n      dup2\n      mstore\n        /* \"solmate/src/utils/SafeTransferLib.sol\":1532:3053  assembly {... */\n      0x20\n      0x04\n        /* \"contracts/contracts/permit2/Permit2.sol\":385:537  contract Permit2 is SignatureTransfer, AllowanceTransfer {... */\n      dup3\n      add\n      mstore\n      0x14\n        /* \"solmate/src/utils/SafeTransferLib.sol\":1532:3053  assembly {... */\n      0x24\n        /* \"contracts/contracts/permit2/Permit2.sol\":385:537  contract Permit2 is SignatureTransfer, AllowanceTransfer {... */\n      dup3\n      add\n      mstore\n      shl(0x62, 0x1514905394d1915497d19493d357d19052531151)\n        /* \"solmate/src/utils/SafeTransferLib.sol\":1532:3053  assembly {... */\n      0x44\n        /* \"contracts/contracts/permit2/Permit2.sol\":385:537  contract Permit2 is SignatureTransfer, AllowanceTransfer {... */\n      dup3\n      add\n      mstore\n        /* \"solmate/src/utils/SafeTransferLib.sol\":1532:3053  assembly {... */\n      0x64\n      swap1\n        /* \"contracts/contracts/permit2/Permit2.sol\":385:537  contract Permit2 is SignatureTransfer, AllowanceTransfer {... */\n      revert\n\n    auxdata: 0xa26469706673582212202b49b0ab3fbf91560017c9cd7c1dd1a4ec7ac6c8afb6eb3a4ce5998949280af764736f6c63430008140033\n}\n",
				"bytecode": {
					"linkReferences": {},
					"object": "60c0346100b9574660a052602081017f8cad95687ba82c2ce50e74f7b754645e5117c3a5bec8151c0726d5857980a86681527f9ac997416e8ff9d2ff6bebeb7149f65cdae5e32e2b90440b566bb3044041d36a60408301524660608301523060808301526080825260a082019180831060018060401b038411176100a55782604052519020608052611b5590816100be823960805181611789015260a051816117630152f35b634e487b7160e01b5f52604160045260245ffd5b5f80fdfe60406080815260049081361015610014575f80fd5b5f90813560e01c80630d58b1db14610e84578063137c29fe14610d015780632a2d80d114610ab95780632b67b5701461094357806330f28b7a146108805780633644e5151461085d57806336c78516146108135780633ff9dcb1146107b15780634fe02b441461077257806365d9723c1461066257806387517c4514610581578063927da105146104f5578063cc53287f14610414578063edd9444b146102e85763fe8ec1a7146100c3575f80fd5b346102e45760c03660031901126102e4576001600160401b0383358181116102e0576100f29036908601611167565b6024358281116102dc576101099036908701611137565b61011161104b565b916084358581116102d8576101299036908a016110e0565b98909560a4359081116102d457610142913691016110e0565b96909581519061015182610fae565b606b82527f5065726d697442617463685769746e6573735472616e7366657246726f6d285460208301527f6f6b656e5065726d697373696f6e735b5d207065726d69747465642c61646472838301527f657373207370656e6465722c75696e74323536206e6f6e63652c75696e74323560608301526a0d88191958591b1a5b994b60aa1b608083015282519a8b91816101ee60208501809661189b565b918237018a81520399610209601f199b8c8101835282610fe4565b5190209085515161021981611505565b908a5b8181106102a75750506102a4999a61029b91835161024e81610242602082018095611545565b03848101835282610fe4565b519020602089810151858b015195519182019687526040820192909252336060820152608081019190915260a081019390935260643560c08401528260e081015b03908101835282610fe4565b51902093611957565b80f35b806102bf6102b96102cf938c516114f1565b5161184c565b6102c982866114f1565b52611537565b61021c565b8880fd5b8780fd5b8480fd5b8380fd5b5080fd5b5091346102e45760803660031901126102e4576001600160401b039080358281116102e05761031a9036908301611167565b6024358381116102dc576103319036908401611137565b93909261033c61104b565b9160643590811161041057610353913691016110e0565b9490938351519761036389611505565b98885b8181106103ee5750506102a49798815161039681610388602082018095611545565b03601f198101835282610fe4565b5190206020860151828701519083519260208401947ffcf35f5ac6a2c28868dc44c302166470266239195f02b0ee408334829333b7668652840152336060840152608083015260a082015260a0815261029b81610fc9565b808b6102c9826104056102b961040b968d516114f1565b926114f1565b610366565b8680fd5b5082346104f157602090816003193601126102e0578035906001600160401b0382116102dc5761044691369101611137565b929091845b848110610456578580f35b8061046c6104676001938888611633565b611643565b6104818461047b848a8a611633565b01611643565b33895283855285892091848060a01b0380911692838b528652868a20911690818a5285528589206bffffffffffffffffffffffff60a01b81541690558551918252848201527f89b1add15eff56b3dfe299ad94e01f2b52fbcb80ae1a3baea6ae8c04cb2b98a4853392a20161044b565b8280fd5b50346102e45760603660031901126102e45761057d8161051361101f565b9361051c611035565b61052461104b565b6001600160a01b03968716835260016020908152848420928816845291825283832090871683528152919020549251938316845260a083901c65ffffffffffff169084015260d09190911c604083015281906060820190565b0390f35b50346102e45760803660031901126102e45761059b61101f565b906105a4611035565b916105ad61104b565b906064359265ffffffffffff93848116908181036102d8577fda9fa7c1b00402c17d0161b249b1ab8bbec047c5a52207b9c112deffd817036b9333895260016020528389209660018060a01b0380921697888b5260205281858b20991698898b52602052848a209284155f1461065a57504216905b82546001600160d01b03191660a09290921b65ffffffffffff60a01b169190911795169485179055815193845260208401523392a480f35b905090610622565b5082346104f15760603660031901126104f15761067d61101f565b90610686611035565b9265ffffffffffff60443581811693908481036102d857338852602091600183528489209660018060a01b0380911697888b528452858a20981697888a5283528489205460d01c93848711156107635761ffff90858403161161075557503380895260018352848920878a528352848920888a52835284892080546001600160d01b031660d09390931b6001600160d01b03191692909217909155835194855290840191909152917f55eb90d810e1700b35a8e7e25395ff7f2b2259abd7415ca2284dfb1c246418f39190a480f35b8451631269ad1360e11b8152fd5b508451633ab3447f60e11b8152fd5b50346102e457806003193601126102e45760209181906001600160a01b0361079861101f565b1681528084528181206024358252845220549051908152f35b5082346104f157816003193601126104f1577f3704902f963766a4e561bbaab6e6cdc1b1dd12f6e9e99648da8843b3f46b918d90359160243533855284602052818520848652602052818520818154179055815193845260208401523392a280f35b823461085a57608036600319011261085a5761082d61101f565b610835611035565b61083d61104b565b606435916001600160a01b03831683036102dc576102a493611571565b80fd5b50346102e457816003193601126102e457602090610879611760565b9051908152f35b508290346104f1576101003660031901126104f15761089e36611075565b90806083193601126102e0576108b2611005565b9160e4356001600160401b03811161093f576102a4946108d4913691016110e0565b9390926108e1835161184c565b6020840151828501519083519260208401947f939c21a48a8dbe3a9a2404a1d46691e4d39f6583d6ec6b35714604c986d801068652840152336060840152608083015260a082015260a0815261093681610fc9565b519020916118c4565b8580fd5b5091346102e4576101003660031901126102e45761095f61101f565b366023190160c081126102e057608085519161097a83610f93565b126102e05784519061098b82610f64565b6001600160a01b03916024358381168103610410578152604435838116810361041057602082015265ffffffffffff60643581811681036102d857888301526084359081168103610410576060820152815260a43593828516850361093f576020820194855260c4359087830182815260e4356001600160401b0381116102d457610a1990369084016110e0565b929093804211610aa3575050918591610a936102a4999a610a9995610a3e885161125f565b90898c511690519083519260208401947ff3841cd1ff0085026a6327b620b67997ce40f282c88a8e905a7a5626e310f3d086528401526060830152608082015260808152610a8b81610fae565b51902061181b565b916112fc565b5192511691611657565b8a5163cd21db4f60e01b81529182015260249150fd5b5091346102e45760606003199181833601126102e057610ad761101f565b92602435916001600160401b0391828411610410578490843603011261093f57865196610b0388610f93565b838201358381116102d8578401366023820112156102d8578281013590610b298261110d565b90610b3684519283610fe4565b82825260209260248484019160071b83010191368311610cfd57602401905b828210610ca15750505089526044610b6f60248701611061565b95828b01968752013593828a0190858252604435908111610c9d57610b9790369086016110e0565b949095804211610c875750508998995151610bb181611505565b908b5b818110610c6457505092889492610a9392610c3197958351610bdd816103888682018095611545565b5190209060018060a01b039a8b8b51169151928551948501957faf1b0d30d2cab0380e68f0689007e3254993c596f2fdd0aaa7f4d04f794408638752850152830152608082015260808152610a8b81610fae565b51169082515192845b848110610c45578580f35b80610c5e8585610c5860019587516114f1565b51611657565b01610c3a565b806102bf610c798e9f9e93610c7f94516114f1565b5161125f565b9b9a9b610bb4565b845163cd21db4f60e01b81529182015260249150fd5b8980fd5b608082360312610cfd57846080918751610cba81610f64565b610cc385611061565b8152610cd0838601611061565b83820152610cdf898601611124565b89820152610cee8d8601611124565b8d820152815201910190610b55565b8b80fd5b5082346104f1576101403660031901126104f157610d1e36611075565b91806083193601126102e057610d32611005565b6001600160401b0393906101043585811161041057610d5490369086016110e0565b9093610124359687116102d857610d74610936966102a4983691016110e0565b969095825190610d8382610fae565b606482527f5065726d69745769746e6573735472616e7366657246726f6d28546f6b656e5060208301527f65726d697373696f6e73207065726d69747465642c6164647265737320737065848301527f6e6465722c75696e74323536206e6f6e63652c75696e7432353620646561646c6060830152631a5b994b60e21b6080830152835194859181610e1960208501809661189b565b918237018b81520393610e34601f1995868101835282610fe4565b51902092610e42865161184c565b6020878101518589015195519182019687526040820192909252336060820152608081019190915260a081019390935260e43560c08401528260e0810161028f565b5082346104f1576020806003193601126102e05781356001600160401b039283821161093f573660238301121561093f578101359283116102dc576024906007368386831b8401011161041057865b858110610ede578780f35b80821b830190608060231983360301126102d457610f5e888760019460608351610f0781610f64565b610f436084610f178d8601611061565b94858452610f2760448201611061565b8097850152610f3860648201611061565b809885015201611061565b9182910152868060a01b038080809316951693169116611571565b01610ed3565b608081019081106001600160401b03821117610f7f57604052565b634e487b7160e01b5f52604160045260245ffd5b606081019081106001600160401b03821117610f7f57604052565b60a081019081106001600160401b03821117610f7f57604052565b60c081019081106001600160401b03821117610f7f57604052565b90601f801991011681019081106001600160401b03821117610f7f57604052565b60c435906001600160a01b038216820361101b57565b5f80fd5b600435906001600160a01b038216820361101b57565b602435906001600160a01b038216820361101b57565b604435906001600160a01b038216820361101b57565b35906001600160a01b038216820361101b57565b60031901906080821261101b57604080519061109082610f93565b8082941261101b5780518181018181106001600160401b03821117610f7f5782526004356001600160a01b038116810361101b578152602435602082015282526044356020830152606435910152565b9181601f8401121561101b578235916001600160401b03831161101b576020838186019501011161101b57565b6001600160401b038111610f7f5760051b60200190565b359065ffffffffffff8216820361101b57565b9181601f8401121561101b578235916001600160401b03831161101b576020808501948460061b01011161101b57565b91909160608184031261101b57604080519161118283610f93565b829481356001600160401b039081811161101b57830182601f8201121561101b5780356111ae8161110d565b926111bb87519485610fe4565b818452602094858086019360061b8501019381851161101b579086899897969594939201925b8484106111fe575050505050855280820135908501520135910152565b90919293949596978483031261101b57885190898201908282108583111761124b578a928992845261122f87611061565b81528287013583820152815201930191908897969594936111e1565b60245f634e487b7160e01b81526041600452fd5b60405160208101917f65626cad6cb96493bf6f5ebea28756c966f023ab9e8a83a7101849d5573b3678835260018060a01b038082511660408401526020820151166060830152606065ffffffffffff9182604082015116608085015201511660a082015260a0815260c081018181106001600160401b03821117610f7f5760405251902090565b919082604091031261101b576020823592013590565b5f843b6114185750604182036113b557611318828201826112e6565b939092604010156113a1576020935f9360ff6040608095013560f81c5b60405194855216868401526040830152606082015282805260015afa15611396575f516001600160a01b0390811691821561138457160361137257565b604051632057875960e21b8152600490fd5b604051638baa579f60e01b8152600490fd5b6040513d5f823e3d90fd5b634e487b7160e01b5f52603260045260245ffd5b60408203611406576113c9918101906112e6565b6001600160ff1b0381169260ff91821c601b019182116113f2576020935f9360ff608094611335565b634e487b7160e01b5f52601160045260245ffd5b604051634be6321b60e01b8152600490fd5b918093946020926064604051809781958294630b135d3f60e11b9b8c8552600485015260406024850152816044850152848401378181018301889052601f01601f191681010301916001600160a01b03165afa9182156114e457819261149e575b50506001600160e01b0319160361148c57565b604051632c19a72f60e21b8152600490fd5b9091506020813d82116114dc575b816114b960209383610fe4565b810103126102e45751906001600160e01b03198216820361085a57505f80611479565b3d91506114ac565b50604051903d90823e3d90fd5b80518210156113a15760209160051b010190565b9061150f8261110d565b61151c6040519182610fe4565b828152809261152d601f199161110d565b0190602036910137565b5f1981146113f25760010190565b80516020809201915f5b82811061155d575050505090565b83518552938101939281019260010161154f565b92919260018060a01b0360405f8284168152600160205282828220961695868252602052818120338252602052209485549565ffffffffffff8760a01c1680421161161b5750828716968388036115d3575b50506115d195501692611a9a565b565b87848416115f146115f75760405163f96fb07160e01b815260048101899052602490fd5b83836115d1990316906bffffffffffffffffffffffff60a01b161790555f806115c3565b60249060405190636c0d979760e11b82526004820152fd5b91908110156113a15760061b0190565b356001600160a01b038116810361101b5790565b9065ffffffffffff908160608401511660018060a01b0390818551169482602082015116928086604080940151169516955f9187835260016020528383208984526020528383209916988983526020528282209184835460d01c0361174f57918561174394927fc6a377bfc4eb120024a8ac08eef205be16b817020812c73223e81d1bdb9708ec989796945087155f146117485742165b6001850160d01b6001600160d01b03191660a09190911b65ffffffffffff60a01b1617179055516001600160a01b03909316835265ffffffffffff938416602084015290921660408201529081906060820190565b0390a4565b50866116ee565b8351633ab3447f60e11b8152600490fd5b467f0000000000000000000000000000000000000000000000000000000000000000036117ab577f000000000000000000000000000000000000000000000000000000000000000090565b60405160208101907f8cad95687ba82c2ce50e74f7b754645e5117c3a5bec8151c0726d5857980a86682527f9ac997416e8ff9d2ff6bebeb7149f65cdae5e32e2b90440b566bb3044041d36a60408201524660608201523060808201526080815261181581610fae565b51902090565b611823611760565b9060405190602082019261190160f01b8452602283015260428201526042815261181581610f64565b6040516020808201927f618358ac3db8dc274f0cd8829da7e234bd48cd73c4a740aede1adec9846d06a1845260018060a01b038151166040840152015160608201526060815261181581610f64565b908151915f5b8381106118b1575050015f815290565b80602080928401015181850152016118a1565b9192909360a43593604084015180421161193f57506020845101518086116119275750918591610a93611904946118ff602088015186611a51565b61181b565b51516001600160a01b0390811692608435918216820361101b576115d193611a9a565b60249060405190633728b83d60e01b82526004820152fd5b6024906040519063cd21db4f60e01b82526004820152fd5b959093958051519560409283830151804211611a3a5750848803611a265761198e918691610a9360209b6118ff8d88015186611a51565b5f5b8681106119a1575050505050505050565b6119ac8183516114f1565b51886119b983878a611633565b01359089810151808311611a0f5750918188888860019685966119e3575b50505050505001611990565b611a04956119fe92610467928a8060a01b0390511695611633565b91611a9a565b805f888888836119d7565b602490865190633728b83d60e01b82526004820152fd5b83516001621398b960e31b03198152600490fd5b60249085519063cd21db4f60e01b82526004820152fd5b90600160ff82161b9160018060a01b03165f525f60205260405f209060081c5f5260205260405f20818154188091551615611a8857565b604051633ab3447f60e11b8152600490fd5b915f8093602095606494604051946323b872dd60e01b865260018060a01b03809216600487015216602485015260448401525af13d15601f3d1160015f511416171615611ae357565b60405162461bcd60e51b81526020600482015260146024820152731514905394d1915497d19493d357d1905253115160621b6044820152606490fdfea26469706673582212202b49b0ab3fbf91560017c9cd7c1dd1a4ec7ac6c8afb6eb3a4ce5998949280af764736f6c63430008140033",
					"opcodes": "PUSH1 0xC0 CALLVALUE PUSH2 0xB9 JUMPI CHAINID PUSH1 0xA0 MSTORE PUSH1 0x20 DUP2 ADD PUSH32 0x8CAD95687BA82C2CE50E74F7B754645E5117C3A5BEC8151C0726D5857980A866 DUP2 MSTORE PUSH32 0x9AC997416E8FF9D2FF6BEBEB7149F65CDAE5E32E2B90440B566BB3044041D36A PUSH1 0x40 DUP4 ADD MSTORE CHAINID PUSH1 0x60 DUP4 ADD MSTORE ADDRESS PUSH1 0x80 DUP4 ADD MSTORE PUSH1 0x80 DUP3 MSTORE PUSH1 0xA0 DUP3 ADD SWAP2 DUP1 DUP4 LT PUSH1 0x1 DUP1 PUSH1 0x40 SHL SUB DUP5 GT OR PUSH2 0xA5 JUMPI DUP3 PUSH1 0x40 MSTORE MLOAD SWAP1 KECCAK256 PUSH1 0x80 MSTORE PUSH2 0x1B55 SWAP1 DUP2 PUSH2 0xBE DUP3 CODECOPY PUSH1 0x80 MLOAD DUP2 PUSH2 0x1789 ADD MSTORE PUSH1 0xA0 MLOAD DUP2 PUSH2 0x1763 ADD MSTORE RETURN JUMPDEST PUSH4 0x4E487B71 PUSH1 0xE0 SHL PUSH0 MSTORE PUSH1 0x41 PUSH1 0x4 MSTORE PUSH1 0x24 PUSH0 REVERT JUMPDEST PUSH0 DUP1 REVERT INVALID PUSH1 0x40 PUSH1 0x80 DUP2 MSTORE PUSH1 0x4 SWAP1 DUP2 CALLDATASIZE LT ISZERO PUSH2 0x14 JUMPI PUSH0 DUP1 REVERT JUMPDEST PUSH0 SWAP1 DUP2 CALLDATALOAD PUSH1 0xE0 SHR DUP1 PUSH4 0xD58B1DB EQ PUSH2 0xE84 JUMPI DUP1 PUSH4 0x137C29FE EQ PUSH2 0xD01 JUMPI DUP1 PUSH4 0x2A2D80D1 EQ PUSH2 0xAB9 JUMPI DUP1 PUSH4 0x2B67B570 EQ PUSH2 0x943 JUMPI DUP1 PUSH4 0x30F28B7A EQ PUSH2 0x880 JUMPI DUP1 PUSH4 0x3644E515 EQ PUSH2 0x85D JUMPI DUP1 PUSH4 0x36C78516 EQ PUSH2 0x813 JUMPI DUP1 PUSH4 0x3FF9DCB1 EQ PUSH2 0x7B1 JUMPI DUP1 PUSH4 0x4FE02B44 EQ PUSH2 0x772 JUMPI DUP1 PUSH4 0x65D9723C EQ PUSH2 0x662 JUMPI DUP1 PUSH4 0x87517C45 EQ PUSH2 0x581 JUMPI DUP1 PUSH4 0x927DA105 EQ PUSH2 0x4F5 JUMPI DUP1 PUSH4 0xCC53287F EQ PUSH2 0x414 JUMPI DUP1 PUSH4 0xEDD9444B EQ PUSH2 0x2E8 JUMPI PUSH4 0xFE8EC1A7 EQ PUSH2 0xC3 JUMPI PUSH0 DUP1 REVERT JUMPDEST CALLVALUE PUSH2 0x2E4 JUMPI PUSH1 0xC0 CALLDATASIZE PUSH1 0x3 NOT ADD SLT PUSH2 0x2E4 JUMPI PUSH1 0x1 PUSH1 0x1 PUSH1 0x40 SHL SUB DUP4 CALLDATALOAD DUP2 DUP2 GT PUSH2 0x2E0 JUMPI PUSH2 0xF2 SWAP1 CALLDATASIZE SWAP1 DUP7 ADD PUSH2 0x1167 JUMP JUMPDEST PUSH1 0x24 CALLDATALOAD DUP3 DUP2 GT PUSH2 0x2DC JUMPI PUSH2 0x109 SWAP1 CALLDATASIZE SWAP1 DUP8 ADD PUSH2 0x1137 JUMP JUMPDEST PUSH2 0x111 PUSH2 0x104B JUMP JUMPDEST SWAP2 PUSH1 0x84 CALLDATALOAD DUP6 DUP2 GT PUSH2 0x2D8 JUMPI PUSH2 0x129 SWAP1 CALLDATASIZE SWAP1 DUP11 ADD PUSH2 0x10E0 JUMP JUMPDEST SWAP9 SWAP1 SWAP6 PUSH1 0xA4 CALLDATALOAD SWAP1 DUP2 GT PUSH2 0x2D4 JUMPI PUSH2 0x142 SWAP2 CALLDATASIZE SWAP2 ADD PUSH2 0x10E0 JUMP JUMPDEST SWAP7 SWAP1 SWAP6 DUP2 MLOAD SWAP1 PUSH2 0x151 DUP3 PUSH2 0xFAE JUMP JUMPDEST PUSH1 0x6B DUP3 MSTORE PUSH32 0x5065726D697442617463685769746E6573735472616E7366657246726F6D2854 PUSH1 0x20 DUP4 ADD MSTORE PUSH32 0x6F6B656E5065726D697373696F6E735B5D207065726D69747465642C61646472 DUP4 DUP4 ADD MSTORE PUSH32 0x657373207370656E6465722C75696E74323536206E6F6E63652C75696E743235 PUSH1 0x60 DUP4 ADD MSTORE PUSH11 0xD88191958591B1A5B994B PUSH1 0xAA SHL PUSH1 0x80 DUP4 ADD MSTORE DUP3 MLOAD SWAP11 DUP12 SWAP2 DUP2 PUSH2 0x1EE PUSH1 0x20 DUP6 ADD DUP1 SWAP7 PUSH2 0x189B JUMP JUMPDEST SWAP2 DUP3 CALLDATACOPY ADD DUP11 DUP2 MSTORE SUB SWAP10 PUSH2 0x209 PUSH1 0x1F NOT SWAP12 DUP13 DUP2 ADD DUP4 MSTORE DUP3 PUSH2 0xFE4 JUMP JUMPDEST MLOAD SWAP1 KECCAK256 SWAP1 DUP6 MLOAD MLOAD PUSH2 0x219 DUP2 PUSH2 0x1505 JUMP JUMPDEST SWAP1 DUP11 JUMPDEST DUP2 DUP2 LT PUSH2 0x2A7 JUMPI POP POP PUSH2 0x2A4 SWAP10 SWAP11 PUSH2 0x29B SWAP2 DUP4 MLOAD PUSH2 0x24E DUP2 PUSH2 0x242 PUSH1 0x20 DUP3 ADD DUP1 SWAP6 PUSH2 0x1545 JUMP JUMPDEST SUB DUP5 DUP2 ADD DUP4 MSTORE DUP3 PUSH2 0xFE4 JUMP JUMPDEST MLOAD SWAP1 KECCAK256 PUSH1 0x20 DUP10 DUP2 ADD MLOAD DUP6 DUP12 ADD MLOAD SWAP6 MLOAD SWAP2 DUP3 ADD SWAP7 DUP8 MSTORE PUSH1 0x40 DUP3 ADD SWAP3 SWAP1 SWAP3 MSTORE CALLER PUSH1 0x60 DUP3 ADD MSTORE PUSH1 0x80 DUP2 ADD SWAP2 SWAP1 SWAP2 MSTORE PUSH1 0xA0 DUP2 ADD SWAP4 SWAP1 SWAP4 MSTORE PUSH1 0x64 CALLDATALOAD PUSH1 0xC0 DUP5 ADD MSTORE DUP3 PUSH1 0xE0 DUP2 ADD JUMPDEST SUB SWAP1 DUP2 ADD DUP4 MSTORE DUP3 PUSH2 0xFE4 JUMP JUMPDEST MLOAD SWAP1 KECCAK256 SWAP4 PUSH2 0x1957 JUMP JUMPDEST DUP1 RETURN JUMPDEST DUP1 PUSH2 0x2BF PUSH2 0x2B9 PUSH2 0x2CF SWAP4 DUP13 MLOAD PUSH2 0x14F1 JUMP JUMPDEST MLOAD PUSH2 0x184C JUMP JUMPDEST PUSH2 0x2C9 DUP3 DUP7 PUSH2 0x14F1 JUMP JUMPDEST MSTORE PUSH2 0x1537 JUMP JUMPDEST PUSH2 0x21C JUMP JUMPDEST DUP9 DUP1 REVERT JUMPDEST DUP8 DUP1 REVERT JUMPDEST DUP5 DUP1 REVERT JUMPDEST DUP4 DUP1 REVERT JUMPDEST POP DUP1 REVERT JUMPDEST POP SWAP2 CALLVALUE PUSH2 0x2E4 JUMPI PUSH1 0x80 CALLDATASIZE PUSH1 0x3 NOT ADD SLT PUSH2 0x2E4 JUMPI PUSH1 0x1 PUSH1 0x1 PUSH1 0x40 SHL SUB SWAP1 DUP1 CALLDATALOAD DUP3 DUP2 GT PUSH2 0x2E0 JUMPI PUSH2 0x31A SWAP1 CALLDATASIZE SWAP1 DUP4 ADD PUSH2 0x1167 JUMP JUMPDEST PUSH1 0x24 CALLDATALOAD DUP4 DUP2 GT PUSH2 0x2DC JUMPI PUSH2 0x331 SWAP1 CALLDATASIZE SWAP1 DUP5 ADD PUSH2 0x1137 JUMP JUMPDEST SWAP4 SWAP1 SWAP3 PUSH2 0x33C PUSH2 0x104B JUMP JUMPDEST SWAP2 PUSH1 0x64 CALLDATALOAD SWAP1 DUP2 GT PUSH2 0x410 JUMPI PUSH2 0x353 SWAP2 CALLDATASIZE SWAP2 ADD PUSH2 0x10E0 JUMP JUMPDEST SWAP5 SWAP1 SWAP4 DUP4 MLOAD MLOAD SWAP8 PUSH2 0x363 DUP10 PUSH2 0x1505 JUMP JUMPDEST SWAP9 DUP9 JUMPDEST DUP2 DUP2 LT PUSH2 0x3EE JUMPI POP POP PUSH2 0x2A4 SWAP8 SWAP9 DUP2 MLOAD PUSH2 0x396 DUP2 PUSH2 0x388 PUSH1 0x20 DUP3 ADD DUP1 SWAP6 PUSH2 0x1545 JUMP JUMPDEST SUB PUSH1 0x1F NOT DUP2 ADD DUP4 MSTORE DUP3 PUSH2 0xFE4 JUMP JUMPDEST MLOAD SWAP1 KECCAK256 PUSH1 0x20 DUP7 ADD MLOAD DUP3 DUP8 ADD MLOAD SWAP1 DUP4 MLOAD SWAP3 PUSH1 0x20 DUP5 ADD SWAP5 PUSH32 0xFCF35F5AC6A2C28868DC44C302166470266239195F02B0EE408334829333B766 DUP7 MSTORE DUP5 ADD MSTORE CALLER PUSH1 0x60 DUP5 ADD MSTORE PUSH1 0x80 DUP4 ADD MSTORE PUSH1 0xA0 DUP3 ADD MSTORE PUSH1 0xA0 DUP2 MSTORE PUSH2 0x29B DUP2 PUSH2 0xFC9 JUMP JUMPDEST DUP1 DUP12 PUSH2 0x2C9 DUP3 PUSH2 0x405 PUSH2 0x2B9 PUSH2 0x40B SWAP7 DUP14 MLOAD PUSH2 0x14F1 JUMP JUMPDEST SWAP3 PUSH2 0x14F1 JUMP JUMPDEST PUSH2 0x366 JUMP JUMPDEST DUP7 DUP1 REVERT JUMPDEST POP DUP3 CALLVALUE PUSH2 0x4F1 JUMPI PUSH1 0x20 SWAP1 DUP2 PUSH1 0x3 NOT CALLDATASIZE ADD SLT PUSH2 0x2E0 JUMPI DUP1 CALLDATALOAD SWAP1 PUSH1 0x1 PUSH1 0x1 PUSH1 0x40 SHL SUB DUP3 GT PUSH2 0x2DC JUMPI PUSH2 0x446 SWAP2 CALLDATASIZE SWAP2 ADD PUSH2 0x1137 JUMP JUMPDEST SWAP3 SWAP1 SWAP2 DUP5 JUMPDEST DUP5 DUP2 LT PUSH2 0x456 JUMPI DUP6 DUP1 RETURN JUMPDEST DUP1 PUSH2 0x46C PUSH2 0x467 PUSH1 0x1 SWAP4 DUP9 DUP9 PUSH2 0x1633 JUMP JUMPDEST PUSH2 0x1643 JUMP JUMPDEST PUSH2 0x481 DUP5 PUSH2 0x47B DUP5 DUP11 DUP11 PUSH2 0x1633 JUMP JUMPDEST ADD PUSH2 0x1643 JUMP JUMPDEST CALLER DUP10 MSTORE DUP4 DUP6 MSTORE DUP6 DUP10 KECCAK256 SWAP2 DUP5 DUP1 PUSH1 0xA0 SHL SUB DUP1 SWAP2 AND SWAP3 DUP4 DUP12 MSTORE DUP7 MSTORE DUP7 DUP11 KECCAK256 SWAP2 AND SWAP1 DUP2 DUP11 MSTORE DUP6 MSTORE DUP6 DUP10 KECCAK256 PUSH12 0xFFFFFFFFFFFFFFFFFFFFFFFF PUSH1 0xA0 SHL DUP2 SLOAD AND SWAP1 SSTORE DUP6 MLOAD SWAP2 DUP3 MSTORE DUP5 DUP3 ADD MSTORE PUSH32 0x89B1ADD15EFF56B3DFE299AD94E01F2B52FBCB80AE1A3BAEA6AE8C04CB2B98A4 DUP6 CALLER SWAP3 LOG2 ADD PUSH2 0x44B JUMP JUMPDEST DUP3 DUP1 REVERT JUMPDEST POP CALLVALUE PUSH2 0x2E4 JUMPI PUSH1 0x60 CALLDATASIZE PUSH1 0x3 NOT ADD SLT PUSH2 0x2E4 JUMPI PUSH2 0x57D DUP2 PUSH2 0x513 PUSH2 0x101F JUMP JUMPDEST SWAP4 PUSH2 0x51C PUSH2 0x1035 JUMP JUMPDEST PUSH2 0x524 PUSH2 0x104B JUMP JUMPDEST PUSH1 0x1 PUSH1 0x1 PUSH1 0xA0 SHL SUB SWAP7 DUP8 AND DUP4 MSTORE PUSH1 0x1 PUSH1 0x20 SWAP1 DUP2 MSTORE DUP5 DUP5 KECCAK256 SWAP3 DUP9 AND DUP5 MSTORE SWAP2 DUP3 MSTORE DUP4 DUP4 KECCAK256 SWAP1 DUP8 AND DUP4 MSTORE DUP2 MSTORE SWAP2 SWAP1 KECCAK256 SLOAD SWAP3 MLOAD SWAP4 DUP4 AND DUP5 MSTORE PUSH1 0xA0 DUP4 SWAP1 SHR PUSH6 0xFFFFFFFFFFFF AND SWAP1 DUP5 ADD MSTORE PUSH1 0xD0 SWAP2 SWAP1 SWAP2 SHR PUSH1 0x40 DUP4 ADD MSTORE DUP2 SWAP1 PUSH1 0x60 DUP3 ADD SWAP1 JUMP JUMPDEST SUB SWAP1 RETURN JUMPDEST POP CALLVALUE PUSH2 0x2E4 JUMPI PUSH1 0x80 CALLDATASIZE PUSH1 0x3 NOT ADD SLT PUSH2 0x2E4 JUMPI PUSH2 0x59B PUSH2 0x101F JUMP JUMPDEST SWAP1 PUSH2 0x5A4 PUSH2 0x1035 JUMP JUMPDEST SWAP2 PUSH2 0x5AD PUSH2 0x104B JUMP JUMPDEST SWAP1 PUSH1 0x64 CALLDATALOAD SWAP3 PUSH6 0xFFFFFFFFFFFF SWAP4 DUP5 DUP2 AND SWAP1 DUP2 DUP2 SUB PUSH2 0x2D8 JUMPI PUSH32 0xDA9FA7C1B00402C17D0161B249B1AB8BBEC047C5A52207B9C112DEFFD817036B SWAP4 CALLER DUP10 MSTORE PUSH1 0x1 PUSH1 0x20 MSTORE DUP4 DUP10 KECCAK256 SWAP7 PUSH1 0x1 DUP1 PUSH1 0xA0 SHL SUB DUP1 SWAP3 AND SWAP8 DUP9 DUP12 MSTORE PUSH1 0x20 MSTORE DUP2 DUP6 DUP12 KECCAK256 SWAP10 AND SWAP9 DUP10 DUP12 MSTORE PUSH1 0x20 MSTORE DUP5 DUP11 KECCAK256 SWAP3 DUP5 ISZERO PUSH0 EQ PUSH2 0x65A JUMPI POP TIMESTAMP AND SWAP1 JUMPDEST DUP3 SLOAD PUSH1 0x1 PUSH1 0x1 PUSH1 0xD0 SHL SUB NOT AND PUSH1 0xA0 SWAP3 SWAP1 SWAP3 SHL PUSH6 0xFFFFFFFFFFFF PUSH1 0xA0 SHL AND SWAP2 SWAP1 SWAP2 OR SWAP6 AND SWAP5 DUP6 OR SWAP1 SSTORE DUP2 MLOAD SWAP4 DUP5 MSTORE PUSH1 0x20 DUP5 ADD MSTORE CALLER SWAP3 LOG4 DUP1 RETURN JUMPDEST SWAP1 POP SWAP1 PUSH2 0x622 JUMP JUMPDEST POP DUP3 CALLVALUE PUSH2 0x4F1 JUMPI PUSH1 0x60 CALLDATASIZE PUSH1 0x3 NOT ADD SLT PUSH2 0x4F1 JUMPI PUSH2 0x67D PUSH2 0x101F JUMP JUMPDEST SWAP1 PUSH2 0x686 PUSH2 0x1035 JUMP JUMPDEST SWAP3 PUSH6 0xFFFFFFFFFFFF PUSH1 0x44 CALLDATALOAD DUP2 DUP2 AND SWAP4 SWAP1 DUP5 DUP2 SUB PUSH2 0x2D8 JUMPI CALLER DUP9 MSTORE PUSH1 0x20 SWAP2 PUSH1 0x1 DUP4 MSTORE DUP5 DUP10 KECCAK256 SWAP7 PUSH1 0x1 DUP1 PUSH1 0xA0 SHL SUB DUP1 SWAP2 AND SWAP8 DUP9 DUP12 MSTORE DUP5 MSTORE DUP6 DUP11 KECCAK256 SWAP9 AND SWAP8 DUP9 DUP11 MSTORE DUP4 MSTORE DUP5 DUP10 KECCAK256 SLOAD PUSH1 0xD0 SHR SWAP4 DUP5 DUP8 GT ISZERO PUSH2 0x763 JUMPI PUSH2 0xFFFF SWAP1 DUP6 DUP5 SUB AND GT PUSH2 0x755 JUMPI POP CALLER DUP1 DUP10 MSTORE PUSH1 0x1 DUP4 MSTORE DUP5 DUP10 KECCAK256 DUP8 DUP11 MSTORE DUP4 MSTORE DUP5 DUP10 KECCAK256 DUP9 DUP11 MSTORE DUP4 MSTORE DUP5 DUP10 KECCAK256 DUP1 SLOAD PUSH1 0x1 PUSH1 0x1 PUSH1 0xD0 SHL SUB AND PUSH1 0xD0 SWAP4 SWAP1 SWAP4 SHL PUSH1 0x1 PUSH1 0x1 PUSH1 0xD0 SHL SUB NOT AND SWAP3 SWAP1 SWAP3 OR SWAP1 SWAP2 SSTORE DUP4 MLOAD SWAP5 DUP6 MSTORE SWAP1 DUP5 ADD SWAP2 SWAP1 SWAP2 MSTORE SWAP2 PUSH32 0x55EB90D810E1700B35A8E7E25395FF7F2B2259ABD7415CA2284DFB1C246418F3 SWAP2 SWAP1 LOG4 DUP1 RETURN JUMPDEST DUP5 MLOAD PUSH4 0x1269AD13 PUSH1 0xE1 SHL DUP2 MSTORE REVERT JUMPDEST POP DUP5 MLOAD PUSH4 0x3AB3447F PUSH1 0xE1 SHL DUP2 MSTORE REVERT JUMPDEST POP CALLVALUE PUSH2 0x2E4 JUMPI DUP1 PUSH1 0x3 NOT CALLDATASIZE ADD SLT PUSH2 0x2E4 JUMPI PUSH1 0x20 SWAP2 DUP2 SWAP1 PUSH1 0x1 PUSH1 0x1 PUSH1 0xA0 SHL SUB PUSH2 0x798 PUSH2 0x101F JUMP JUMPDEST AND DUP2 MSTORE DUP1 DUP5 MSTORE DUP2 DUP2 KECCAK256 PUSH1 0x24 CALLDATALOAD DUP3 MSTORE DUP5 MSTORE KECCAK256 SLOAD SWAP1 MLOAD SWAP1 DUP2 MSTORE RETURN JUMPDEST POP DUP3 CALLVALUE PUSH2 0x4F1 JUMPI DUP2 PUSH1 0x3 NOT CALLDATASIZE ADD SLT PUSH2 0x4F1 JUMPI PUSH32 0x3704902F963766A4E561BBAAB6E6CDC1B1DD12F6E9E99648DA8843B3F46B918D SWAP1 CALLDATALOAD SWAP2 PUSH1 0x24 CALLDATALOAD CALLER DUP6 MSTORE DUP5 PUSH1 0x20 MSTORE DUP2 DUP6 KECCAK256 DUP5 DUP7 MSTORE PUSH1 0x20 MSTORE DUP2 DUP6 KECCAK256 DUP2 DUP2 SLOAD OR SWAP1 SSTORE DUP2 MLOAD SWAP4 DUP5 MSTORE PUSH1 0x20 DUP5 ADD MSTORE CALLER SWAP3 LOG2 DUP1 RETURN JUMPDEST DUP3 CALLVALUE PUSH2 0x85A JUMPI PUSH1 0x80 CALLDATASIZE PUSH1 0x3 NOT ADD SLT PUSH2 0x85A JUMPI PUSH2 0x82D PUSH2 0x101F JUMP JUMPDEST PUSH2 0x835 PUSH2 0x1035 JUMP JUMPDEST PUSH2 0x83D PUSH2 0x104B JUMP JUMPDEST PUSH1 0x64 CALLDATALOAD SWAP2 PUSH1 0x1 PUSH1 0x1 PUSH1 0xA0 SHL SUB DUP4 AND DUP4 SUB PUSH2 0x2DC JUMPI PUSH2 0x2A4 SWAP4 PUSH2 0x1571 JUMP JUMPDEST DUP1 REVERT JUMPDEST POP CALLVALUE PUSH2 0x2E4 JUMPI DUP2 PUSH1 0x3 NOT CALLDATASIZE ADD SLT PUSH2 0x2E4 JUMPI PUSH1 0x20 SWAP1 PUSH2 0x879 PUSH2 0x1760 JUMP JUMPDEST SWAP1 MLOAD SWAP1 DUP2 MSTORE RETURN JUMPDEST POP DUP3 SWAP1 CALLVALUE PUSH2 0x4F1 JUMPI PUSH2 0x100 CALLDATASIZE PUSH1 0x3 NOT ADD SLT PUSH2 0x4F1 JUMPI PUSH2 0x89E CALLDATASIZE PUSH2 0x1075 JUMP JUMPDEST SWAP1 DUP1 PUSH1 0x83 NOT CALLDATASIZE ADD SLT PUSH2 0x2E0 JUMPI PUSH2 0x8B2 PUSH2 0x1005 JUMP JUMPDEST SWAP2 PUSH1 0xE4 CALLDATALOAD PUSH1 0x1 PUSH1 0x1 PUSH1 0x40 SHL SUB DUP2 GT PUSH2 0x93F JUMPI PUSH2 0x2A4 SWAP5 PUSH2 0x8D4 SWAP2 CALLDATASIZE SWAP2 ADD PUSH2 0x10E0 JUMP JUMPDEST SWAP4 SWAP1 SWAP3 PUSH2 0x8E1 DUP4 MLOAD PUSH2 0x184C JUMP JUMPDEST PUSH1 0x20 DUP5 ADD MLOAD DUP3 DUP6 ADD MLOAD SWAP1 DUP4 MLOAD SWAP3 PUSH1 0x20 DUP5 ADD SWAP5 PUSH32 0x939C21A48A8DBE3A9A2404A1D46691E4D39F6583D6EC6B35714604C986D80106 DUP7 MSTORE DUP5 ADD MSTORE CALLER PUSH1 0x60 DUP5 ADD MSTORE PUSH1 0x80 DUP4 ADD MSTORE PUSH1 0xA0 DUP3 ADD MSTORE PUSH1 0xA0 DUP2 MSTORE PUSH2 0x936 DUP2 PUSH2 0xFC9 JUMP JUMPDEST MLOAD SWAP1 KECCAK256 SWAP2 PUSH2 0x18C4 JUMP JUMPDEST DUP6 DUP1 REVERT JUMPDEST POP SWAP2 CALLVALUE PUSH2 0x2E4 JUMPI PUSH2 0x100 CALLDATASIZE PUSH1 0x3 NOT ADD SLT PUSH2 0x2E4 JUMPI PUSH2 0x95F PUSH2 0x101F JUMP JUMPDEST CALLDATASIZE PUSH1 0x23 NOT ADD PUSH1 0xC0 DUP2 SLT PUSH2 0x2E0 JUMPI PUSH1 0x80 DUP6 MLOAD SWAP2 PUSH2 0x97A DUP4 PUSH2 0xF93 JUMP JUMPDEST SLT PUSH2 0x2E0 JUMPI DUP5 MLOAD SWAP1 PUSH2 0x98B DUP3 PUSH2 0xF64 JUMP JUMPDEST PUSH1 0x1 PUSH1 0x1 PUSH1 0xA0 SHL SUB SWAP2 PUSH1 0x24 CALLDATALOAD DUP4 DUP2 AND DUP2 SUB PUSH2 0x410 JUMPI DUP2 MSTORE PUSH1 0x44 CALLDATALOAD DUP4 DUP2 AND DUP2 SUB PUSH2 0x410 JUMPI PUSH1 0x20 DUP3 ADD MSTORE PUSH6 0xFFFFFFFFFFFF PUSH1 0x64 CALLDATALOAD DUP2 DUP2 AND DUP2 SUB PUSH2 0x2D8 JUMPI DUP9 DUP4 ADD MSTORE PUSH1 0x84 CALLDATALOAD SWAP1 DUP2 AND DUP2 SUB PUSH2 0x410 JUMPI PUSH1 0x60 DUP3 ADD MSTORE DUP2 MSTORE PUSH1 0xA4 CALLDATALOAD SWAP4 DUP3 DUP6 AND DUP6 SUB PUSH2 0x93F JUMPI PUSH1 0x20 DUP3 ADD SWAP5 DUP6 MSTORE PUSH1 0xC4 CALLDATALOAD SWAP1 DUP8 DUP4 ADD DUP3 DUP2 MSTORE PUSH1 0xE4 CALLDATALOAD PUSH1 0x1 PUSH1 0x1 PUSH1 0x40 SHL SUB DUP2 GT PUSH2 0x2D4 JUMPI PUSH2 0xA19 SWAP1 CALLDATASIZE SWAP1 DUP5 ADD PUSH2 0x10E0 JUMP JUMPDEST SWAP3 SWAP1 SWAP4 DUP1 TIMESTAMP GT PUSH2 0xAA3 JUMPI POP POP SWAP2 DUP6 SWAP2 PUSH2 0xA93 PUSH2 0x2A4 SWAP10 SWAP11 PUSH2 0xA99 SWAP6 PUSH2 0xA3E DUP9 MLOAD PUSH2 0x125F JUMP JUMPDEST SWAP1 DUP10 DUP13 MLOAD AND SWAP1 MLOAD SWAP1 DUP4 MLOAD SWAP3 PUSH1 0x20 DUP5 ADD SWAP5 PUSH32 0xF3841CD1FF0085026A6327B620B67997CE40F282C88A8E905A7A5626E310F3D0 DUP7 MSTORE DUP5 ADD MSTORE PUSH1 0x60 DUP4 ADD MSTORE PUSH1 0x80 DUP3 ADD MSTORE PUSH1 0x80 DUP2 MSTORE PUSH2 0xA8B DUP2 PUSH2 0xFAE JUMP JUMPDEST MLOAD SWAP1 KECCAK256 PUSH2 0x181B JUMP JUMPDEST SWAP2 PUSH2 0x12FC JUMP JUMPDEST MLOAD SWAP3 MLOAD AND SWAP2 PUSH2 0x1657 JUMP JUMPDEST DUP11 MLOAD PUSH4 0xCD21DB4F PUSH1 0xE0 SHL DUP2 MSTORE SWAP2 DUP3 ADD MSTORE PUSH1 0x24 SWAP2 POP REVERT JUMPDEST POP SWAP2 CALLVALUE PUSH2 0x2E4 JUMPI PUSH1 0x60 PUSH1 0x3 NOT SWAP2 DUP2 DUP4 CALLDATASIZE ADD SLT PUSH2 0x2E0 JUMPI PUSH2 0xAD7 PUSH2 0x101F JUMP JUMPDEST SWAP3 PUSH1 0x24 CALLDATALOAD SWAP2 PUSH1 0x1 PUSH1 0x1 PUSH1 0x40 SHL SUB SWAP2 DUP3 DUP5 GT PUSH2 0x410 JUMPI DUP5 SWAP1 DUP5 CALLDATASIZE SUB ADD SLT PUSH2 0x93F JUMPI DUP7 MLOAD SWAP7 PUSH2 0xB03 DUP9 PUSH2 0xF93 JUMP JUMPDEST DUP4 DUP3 ADD CALLDATALOAD DUP4 DUP2 GT PUSH2 0x2D8 JUMPI DUP5 ADD CALLDATASIZE PUSH1 0x23 DUP3 ADD SLT ISZERO PUSH2 0x2D8 JUMPI DUP3 DUP2 ADD CALLDATALOAD SWAP1 PUSH2 0xB29 DUP3 PUSH2 0x110D JUMP JUMPDEST SWAP1 PUSH2 0xB36 DUP5 MLOAD SWAP3 DUP4 PUSH2 0xFE4 JUMP JUMPDEST DUP3 DUP3 MSTORE PUSH1 0x20 SWAP3 PUSH1 0x24 DUP5 DUP5 ADD SWAP2 PUSH1 0x7 SHL DUP4 ADD ADD SWAP2 CALLDATASIZE DUP4 GT PUSH2 0xCFD JUMPI PUSH1 0x24 ADD SWAP1 JUMPDEST DUP3 DUP3 LT PUSH2 0xCA1 JUMPI POP POP POP DUP10 MSTORE PUSH1 0x44 PUSH2 0xB6F PUSH1 0x24 DUP8 ADD PUSH2 0x1061 JUMP JUMPDEST SWAP6 DUP3 DUP12 ADD SWAP7 DUP8 MSTORE ADD CALLDATALOAD SWAP4 DUP3 DUP11 ADD SWAP1 DUP6 DUP3 MSTORE PUSH1 0x44 CALLDATALOAD SWAP1 DUP2 GT PUSH2 0xC9D JUMPI PUSH2 0xB97 SWAP1 CALLDATASIZE SWAP1 DUP7 ADD PUSH2 0x10E0 JUMP JUMPDEST SWAP5 SWAP1 SWAP6 DUP1 TIMESTAMP GT PUSH2 0xC87 JUMPI POP POP DUP10 SWAP9 SWAP10 MLOAD MLOAD PUSH2 0xBB1 DUP2 PUSH2 0x1505 JUMP JUMPDEST SWAP1 DUP12 JUMPDEST DUP2 DUP2 LT PUSH2 0xC64 JUMPI POP POP SWAP3 DUP9 SWAP5 SWAP3 PUSH2 0xA93 SWAP3 PUSH2 0xC31 SWAP8 SWAP6 DUP4 MLOAD PUSH2 0xBDD DUP2 PUSH2 0x388 DUP7 DUP3 ADD DUP1 SWAP6 PUSH2 0x1545 JUMP JUMPDEST MLOAD SWAP1 KECCAK256 SWAP1 PUSH1 0x1 DUP1 PUSH1 0xA0 SHL SUB SWAP11 DUP12 DUP12 MLOAD AND SWAP2 MLOAD SWAP3 DUP6 MLOAD SWAP5 DUP6 ADD SWAP6 PUSH32 0xAF1B0D30D2CAB0380E68F0689007E3254993C596F2FDD0AAA7F4D04F79440863 DUP8 MSTORE DUP6 ADD MSTORE DUP4 ADD MSTORE PUSH1 0x80 DUP3 ADD MSTORE PUSH1 0x80 DUP2 MSTORE PUSH2 0xA8B DUP2 PUSH2 0xFAE JUMP JUMPDEST MLOAD AND SWAP1 DUP3 MLOAD MLOAD SWAP3 DUP5 JUMPDEST DUP5 DUP2 LT PUSH2 0xC45 JUMPI DUP6 DUP1 RETURN JUMPDEST DUP1 PUSH2 0xC5E DUP6 DUP6 PUSH2 0xC58 PUSH1 0x1 SWAP6 DUP8 MLOAD PUSH2 0x14F1 JUMP JUMPDEST MLOAD PUSH2 0x1657 JUMP JUMPDEST ADD PUSH2 0xC3A JUMP JUMPDEST DUP1 PUSH2 0x2BF PUSH2 0xC79 DUP15 SWAP16 SWAP15 SWAP4 PUSH2 0xC7F SWAP5 MLOAD PUSH2 0x14F1 JUMP JUMPDEST MLOAD PUSH2 0x125F JUMP JUMPDEST SWAP12 SWAP11 SWAP12 PUSH2 0xBB4 JUMP JUMPDEST DUP5 MLOAD PUSH4 0xCD21DB4F PUSH1 0xE0 SHL DUP2 MSTORE SWAP2 DUP3 ADD MSTORE PUSH1 0x24 SWAP2 POP REVERT JUMPDEST DUP10 DUP1 REVERT JUMPDEST PUSH1 0x80 DUP3 CALLDATASIZE SUB SLT PUSH2 0xCFD JUMPI DUP5 PUSH1 0x80 SWAP2 DUP8 MLOAD PUSH2 0xCBA DUP2 PUSH2 0xF64 JUMP JUMPDEST PUSH2 0xCC3 DUP6 PUSH2 0x1061 JUMP JUMPDEST DUP2 MSTORE PUSH2 0xCD0 DUP4 DUP7 ADD PUSH2 0x1061 JUMP JUMPDEST DUP4 DUP3 ADD MSTORE PUSH2 0xCDF DUP10 DUP7 ADD PUSH2 0x1124 JUMP JUMPDEST DUP10 DUP3 ADD MSTORE PUSH2 0xCEE DUP14 DUP7 ADD PUSH2 0x1124 JUMP JUMPDEST DUP14 DUP3 ADD MSTORE DUP2 MSTORE ADD SWAP2 ADD SWAP1 PUSH2 0xB55 JUMP JUMPDEST DUP12 DUP1 REVERT JUMPDEST POP DUP3 CALLVALUE PUSH2 0x4F1 JUMPI PUSH2 0x140 CALLDATASIZE PUSH1 0x3 NOT ADD SLT PUSH2 0x4F1 JUMPI PUSH2 0xD1E CALLDATASIZE PUSH2 0x1075 JUMP JUMPDEST SWAP2 DUP1 PUSH1 0x83 NOT CALLDATASIZE ADD SLT PUSH2 0x2E0 JUMPI PUSH2 0xD32 PUSH2 0x1005 JUMP JUMPDEST PUSH1 0x1 PUSH1 0x1 PUSH1 0x40 SHL SUB SWAP4 SWAP1 PUSH2 0x104 CALLDATALOAD DUP6 DUP2 GT PUSH2 0x410 JUMPI PUSH2 0xD54 SWAP1 CALLDATASIZE SWAP1 DUP7 ADD PUSH2 0x10E0 JUMP JUMPDEST SWAP1 SWAP4 PUSH2 0x124 CALLDATALOAD SWAP7 DUP8 GT PUSH2 0x2D8 JUMPI PUSH2 0xD74 PUSH2 0x936 SWAP7 PUSH2 0x2A4 SWAP9 CALLDATASIZE SWAP2 ADD PUSH2 0x10E0 JUMP JUMPDEST SWAP7 SWAP1 SWAP6 DUP3 MLOAD SWAP1 PUSH2 0xD83 DUP3 PUSH2 0xFAE JUMP JUMPDEST PUSH1 0x64 DUP3 MSTORE PUSH32 0x5065726D69745769746E6573735472616E7366657246726F6D28546F6B656E50 PUSH1 0x20 DUP4 ADD MSTORE PUSH32 0x65726D697373696F6E73207065726D69747465642C6164647265737320737065 DUP5 DUP4 ADD MSTORE PUSH32 0x6E6465722C75696E74323536206E6F6E63652C75696E7432353620646561646C PUSH1 0x60 DUP4 ADD MSTORE PUSH4 0x1A5B994B PUSH1 0xE2 SHL PUSH1 0x80 DUP4 ADD MSTORE DUP4 MLOAD SWAP5 DUP6 SWAP2 DUP2 PUSH2 0xE19 PUSH1 0x20 DUP6 ADD DUP1 SWAP7 PUSH2 0x189B JUMP JUMPDEST SWAP2 DUP3 CALLDATACOPY ADD DUP12 DUP2 MSTORE SUB SWAP4 PUSH2 0xE34 PUSH1 0x1F NOT SWAP6 DUP7 DUP2 ADD DUP4 MSTORE DUP3 PUSH2 0xFE4 JUMP JUMPDEST MLOAD SWAP1 KECCAK256 SWAP3 PUSH2 0xE42 DUP7 MLOAD PUSH2 0x184C JUMP JUMPDEST PUSH1 0x20 DUP8 DUP2 ADD MLOAD DUP6 DUP10 ADD MLOAD SWAP6 MLOAD SWAP2 DUP3 ADD SWAP7 DUP8 MSTORE PUSH1 0x40 DUP3 ADD SWAP3 SWAP1 SWAP3 MSTORE CALLER PUSH1 0x60 DUP3 ADD MSTORE PUSH1 0x80 DUP2 ADD SWAP2 SWAP1 SWAP2 MSTORE PUSH1 0xA0 DUP2 ADD SWAP4 SWAP1 SWAP4 MSTORE PUSH1 0xE4 CALLDATALOAD PUSH1 0xC0 DUP5 ADD MSTORE DUP3 PUSH1 0xE0 DUP2 ADD PUSH2 0x28F JUMP JUMPDEST POP DUP3 CALLVALUE PUSH2 0x4F1 JUMPI PUSH1 0x20 DUP1 PUSH1 0x3 NOT CALLDATASIZE ADD SLT PUSH2 0x2E0 JUMPI DUP2 CALLDATALOAD PUSH1 0x1 PUSH1 0x1 PUSH1 0x40 SHL SUB SWAP3 DUP4 DUP3 GT PUSH2 0x93F JUMPI CALLDATASIZE PUSH1 0x23 DUP4 ADD SLT ISZERO PUSH2 0x93F JUMPI DUP2 ADD CALLDATALOAD SWAP3 DUP4 GT PUSH2 0x2DC JUMPI PUSH1 0x24 SWAP1 PUSH1 0x7 CALLDATASIZE DUP4 DUP7 DUP4 SHL DUP5 ADD ADD GT PUSH2 0x410 JUMPI DUP7 JUMPDEST DUP6 DUP2 LT PUSH2 0xEDE JUMPI DUP8 DUP1 RETURN JUMPDEST DUP1 DUP3 SHL DUP4 ADD SWAP1 PUSH1 0x80 PUSH1 0x23 NOT DUP4 CALLDATASIZE SUB ADD SLT PUSH2 0x2D4 JUMPI PUSH2 0xF5E DUP9 DUP8 PUSH1 0x1 SWAP5 PUSH1 0x60 DUP4 MLOAD PUSH2 0xF07 DUP2 PUSH2 0xF64 JUMP JUMPDEST PUSH2 0xF43 PUSH1 0x84 PUSH2 0xF17 DUP14 DUP7 ADD PUSH2 0x1061 JUMP JUMPDEST SWAP5 DUP6 DUP5 MSTORE PUSH2 0xF27 PUSH1 0x44 DUP3 ADD PUSH2 0x1061 JUMP JUMPDEST DUP1 SWAP8 DUP6 ADD MSTORE PUSH2 0xF38 PUSH1 0x64 DUP3 ADD PUSH2 0x1061 JUMP JUMPDEST DUP1 SWAP9 DUP6 ADD MSTORE ADD PUSH2 0x1061 JUMP JUMPDEST SWAP2 DUP3 SWAP2 ADD MSTORE DUP7 DUP1 PUSH1 0xA0 SHL SUB DUP1 DUP1 DUP1 SWAP4 AND SWAP6 AND SWAP4 AND SWAP2 AND PUSH2 0x1571 JUMP JUMPDEST ADD PUSH2 0xED3 JUMP JUMPDEST PUSH1 0x80 DUP2 ADD SWAP1 DUP2 LT PUSH1 0x1 PUSH1 0x1 PUSH1 0x40 SHL SUB DUP3 GT OR PUSH2 0xF7F JUMPI PUSH1 0x40 MSTORE JUMP JUMPDEST PUSH4 0x4E487B71 PUSH1 0xE0 SHL PUSH0 MSTORE PUSH1 0x41 PUSH1 0x4 MSTORE PUSH1 0x24 PUSH0 REVERT JUMPDEST PUSH1 0x60 DUP2 ADD SWAP1 DUP2 LT PUSH1 0x1 PUSH1 0x1 PUSH1 0x40 SHL SUB DUP3 GT OR PUSH2 0xF7F JUMPI PUSH1 0x40 MSTORE JUMP JUMPDEST PUSH1 0xA0 DUP2 ADD SWAP1 DUP2 LT PUSH1 0x1 PUSH1 0x1 PUSH1 0x40 SHL SUB DUP3 GT OR PUSH2 0xF7F JUMPI PUSH1 0x40 MSTORE JUMP JUMPDEST PUSH1 0xC0 DUP2 ADD SWAP1 DUP2 LT PUSH1 0x1 PUSH1 0x1 PUSH1 0x40 SHL SUB DUP3 GT OR PUSH2 0xF7F JUMPI PUSH1 0x40 MSTORE JUMP JUMPDEST SWAP1 PUSH1 0x1F DUP1 NOT SWAP2 ADD AND DUP2 ADD SWAP1 DUP2 LT PUSH1 0x1 PUSH1 0x1 PUSH1 0x40 SHL SUB DUP3 GT OR PUSH2 0xF7F JUMPI PUSH1 0x40 MSTORE JUMP JUMPDEST PUSH1 0xC4 CALLDATALOAD SWAP1 PUSH1 0x1 PUSH1 0x1 PUSH1 0xA0 SHL SUB DUP3 AND DUP3 SUB PUSH2 0x101B JUMPI JUMP JUMPDEST PUSH0 DUP1 REVERT JUMPDEST PUSH1 0x4 CALLDATALOAD SWAP1 PUSH1 0x1 PUSH1 0x1 PUSH1 0xA0 SHL SUB DUP3 AND DUP3 SUB PUSH2 0x101B JUMPI JUMP JUMPDEST PUSH1 0x24 CALLDATALOAD SWAP1 PUSH1 0x1 PUSH1 0x1 PUSH1 0xA0 SHL SUB DUP3 AND DUP3 SUB PUSH2 0x101B JUMPI JUMP JUMPDEST PUSH1 0x44 CALLDATALOAD SWAP1 PUSH1 0x1 PUSH1 0x1 PUSH1 0xA0 SHL SUB DUP3 AND DUP3 SUB PUSH2 0x101B JUMPI JUMP JUMPDEST CALLDATALOAD SWAP1 PUSH1 0x1 PUSH1 0x1 PUSH1 0xA0 SHL SUB DUP3 AND DUP3 SUB PUSH2 0x101B JUMPI JUMP JUMPDEST PUSH1 0x3 NOT ADD SWAP1 PUSH1 0x80 DUP3 SLT PUSH2 0x101B JUMPI PUSH1 0x40 DUP1 MLOAD SWAP1 PUSH2 0x1090 DUP3 PUSH2 0xF93 JUMP JUMPDEST DUP1 DUP3 SWAP5 SLT PUSH2 0x101B JUMPI DUP1 MLOAD DUP2 DUP2 ADD DUP2 DUP2 LT PUSH1 0x1 PUSH1 0x1 PUSH1 0x40 SHL SUB DUP3 GT OR PUSH2 0xF7F JUMPI DUP3 MSTORE PUSH1 0x4 CALLDATALOAD PUSH1 0x1 PUSH1 0x1 PUSH1 0xA0 SHL SUB DUP2 AND DUP2 SUB PUSH2 0x101B JUMPI DUP2 MSTORE PUSH1 0x24 CALLDATALOAD PUSH1 0x20 DUP3 ADD MSTORE DUP3 MSTORE PUSH1 0x44 CALLDATALOAD PUSH1 0x20 DUP4 ADD MSTORE PUSH1 0x64 CALLDATALOAD SWAP2 ADD MSTORE JUMP JUMPDEST SWAP2 DUP2 PUSH1 0x1F DUP5 ADD SLT ISZERO PUSH2 0x101B JUMPI DUP3 CALLDATALOAD SWAP2 PUSH1 0x1 PUSH1 0x1 PUSH1 0x40 SHL SUB DUP4 GT PUSH2 0x101B JUMPI PUSH1 0x20 DUP4 DUP2 DUP7 ADD SWAP6 ADD ADD GT PUSH2 0x101B JUMPI JUMP JUMPDEST PUSH1 0x1 PUSH1 0x1 PUSH1 0x40 SHL SUB DUP2 GT PUSH2 0xF7F JUMPI PUSH1 0x5 SHL PUSH1 0x20 ADD SWAP1 JUMP JUMPDEST CALLDATALOAD SWAP1 PUSH6 0xFFFFFFFFFFFF DUP3 AND DUP3 SUB PUSH2 0x101B JUMPI JUMP JUMPDEST SWAP2 DUP2 PUSH1 0x1F DUP5 ADD SLT ISZERO PUSH2 0x101B JUMPI DUP3 CALLDATALOAD SWAP2 PUSH1 0x1 PUSH1 0x1 PUSH1 0x40 SHL SUB DUP4 GT PUSH2 0x101B JUMPI PUSH1 0x20 DUP1 DUP6 ADD SWAP5 DUP5 PUSH1 0x6 SHL ADD ADD GT PUSH2 0x101B JUMPI JUMP JUMPDEST SWAP2 SWAP1 SWAP2 PUSH1 0x60 DUP2 DUP5 SUB SLT PUSH2 0x101B JUMPI PUSH1 0x40 DUP1 MLOAD SWAP2 PUSH2 0x1182 DUP4 PUSH2 0xF93 JUMP JUMPDEST DUP3 SWAP5 DUP2 CALLDATALOAD PUSH1 0x1 PUSH1 0x1 PUSH1 0x40 SHL SUB SWAP1 DUP2 DUP2 GT PUSH2 0x101B JUMPI DUP4 ADD DUP3 PUSH1 0x1F DUP3 ADD SLT ISZERO PUSH2 0x101B JUMPI DUP1 CALLDATALOAD PUSH2 0x11AE DUP2 PUSH2 0x110D JUMP JUMPDEST SWAP3 PUSH2 0x11BB DUP8 MLOAD SWAP5 DUP6 PUSH2 0xFE4 JUMP JUMPDEST DUP2 DUP5 MSTORE PUSH1 0x20 SWAP5 DUP6 DUP1 DUP7 ADD SWAP4 PUSH1 0x6 SHL DUP6 ADD ADD SWAP4 DUP2 DUP6 GT PUSH2 0x101B JUMPI SWAP1 DUP7 DUP10 SWAP9 SWAP8 SWAP7 SWAP6 SWAP5 SWAP4 SWAP3 ADD SWAP3 JUMPDEST DUP5 DUP5 LT PUSH2 0x11FE JUMPI POP POP POP POP POP DUP6 MSTORE DUP1 DUP3 ADD CALLDATALOAD SWAP1 DUP6 ADD MSTORE ADD CALLDATALOAD SWAP2 ADD MSTORE JUMP JUMPDEST SWAP1 SWAP2 SWAP3 SWAP4 SWAP5 SWAP6 SWAP7 SWAP8 DUP5 DUP4 SUB SLT PUSH2 0x101B JUMPI DUP9 MLOAD SWAP1 DUP10 DUP3 ADD SWAP1 DUP3 DUP3 LT DUP6 DUP4 GT OR PUSH2 0x124B JUMPI DUP11 SWAP3 DUP10 SWAP3 DUP5 MSTORE PUSH2 0x122F DUP8 PUSH2 0x1061 JUMP JUMPDEST DUP2 MSTORE DUP3 DUP8 ADD CALLDATALOAD DUP4 DUP3 ADD MSTORE DUP2 MSTORE ADD SWAP4 ADD SWAP2 SWAP1 DUP9 SWAP8 SWAP7 SWAP6 SWAP5 SWAP4 PUSH2 0x11E1 JUMP JUMPDEST PUSH1 0x24 PUSH0 PUSH4 0x4E487B71 PUSH1 0xE0 SHL DUP2 MSTORE PUSH1 0x41 PUSH1 0x4 MSTORE REVERT JUMPDEST PUSH1 0x40 MLOAD PUSH1 0x20 DUP2 ADD SWAP2 PUSH32 0x65626CAD6CB96493BF6F5EBEA28756C966F023AB9E8A83A7101849D5573B3678 DUP4 MSTORE PUSH1 0x1 DUP1 PUSH1 0xA0 SHL SUB DUP1 DUP3 MLOAD AND PUSH1 0x40 DUP5 ADD MSTORE PUSH1 0x20 DUP3 ADD MLOAD AND PUSH1 0x60 DUP4 ADD MSTORE PUSH1 0x60 PUSH6 0xFFFFFFFFFFFF SWAP2 DUP3 PUSH1 0x40 DUP3 ADD MLOAD AND PUSH1 0x80 DUP6 ADD MSTORE ADD MLOAD AND PUSH1 0xA0 DUP3 ADD MSTORE PUSH1 0xA0 DUP2 MSTORE PUSH1 0xC0 DUP2 ADD DUP2 DUP2 LT PUSH1 0x1 PUSH1 0x1 PUSH1 0x40 SHL SUB DUP3 GT OR PUSH2 0xF7F JUMPI PUSH1 0x40 MSTORE MLOAD SWAP1 KECCAK256 SWAP1 JUMP JUMPDEST SWAP2 SWAP1 DUP3 PUSH1 0x40 SWAP2 SUB SLT PUSH2 0x101B JUMPI PUSH1 0x20 DUP3 CALLDATALOAD SWAP3 ADD CALLDATALOAD SWAP1 JUMP JUMPDEST PUSH0 DUP5 EXTCODESIZE PUSH2 0x1418 JUMPI POP PUSH1 0x41 DUP3 SUB PUSH2 0x13B5 JUMPI PUSH2 0x1318 DUP3 DUP3 ADD DUP3 PUSH2 0x12E6 JUMP JUMPDEST SWAP4 SWAP1 SWAP3 PUSH1 0x40 LT ISZERO PUSH2 0x13A1 JUMPI PUSH1 0x20 SWAP4 PUSH0 SWAP4 PUSH1 0xFF PUSH1 0x40 PUSH1 0x80 SWAP6 ADD CALLDATALOAD PUSH1 0xF8 SHR JUMPDEST PUSH1 0x40 MLOAD SWAP5 DUP6 MSTORE AND DUP7 DUP5 ADD MSTORE PUSH1 0x40 DUP4 ADD MSTORE PUSH1 0x60 DUP3 ADD MSTORE DUP3 DUP1 MSTORE PUSH1 0x1 GAS STATICCALL ISZERO PUSH2 0x1396 JUMPI PUSH0 MLOAD PUSH1 0x1 PUSH1 0x1 PUSH1 0xA0 SHL SUB SWAP1 DUP2 AND SWAP2 DUP3 ISZERO PUSH2 0x1384 JUMPI AND SUB PUSH2 0x1372 JUMPI JUMP JUMPDEST PUSH1 0x40 MLOAD PUSH4 0x20578759 PUSH1 0xE2 SHL DUP2 MSTORE PUSH1 0x4 SWAP1 REVERT JUMPDEST PUSH1 0x40 MLOAD PUSH4 0x8BAA579F PUSH1 0xE0 SHL DUP2 MSTORE PUSH1 0x4 SWAP1 REVERT JUMPDEST PUSH1 0x40 MLOAD RETURNDATASIZE PUSH0 DUP3 RETURNDATACOPY RETURNDATASIZE SWAP1 REVERT JUMPDEST PUSH4 0x4E487B71 PUSH1 0xE0 SHL PUSH0 MSTORE PUSH1 0x32 PUSH1 0x4 MSTORE PUSH1 0x24 PUSH0 REVERT JUMPDEST PUSH1 0x40 DUP3 SUB PUSH2 0x1406 JUMPI PUSH2 0x13C9 SWAP2 DUP2 ADD SWAP1 PUSH2 0x12E6 JUMP JUMPDEST PUSH1 0x1 PUSH1 0x1 PUSH1 0xFF SHL SUB DUP2 AND SWAP3 PUSH1 0xFF SWAP2 DUP3 SHR PUSH1 0x1B ADD SWAP2 DUP3 GT PUSH2 0x13F2 JUMPI PUSH1 0x20 SWAP4 PUSH0 SWAP4 PUSH1 0xFF PUSH1 0x80 SWAP5 PUSH2 0x1335 JUMP JUMPDEST PUSH4 0x4E487B71 PUSH1 0xE0 SHL PUSH0 MSTORE PUSH1 0x11 PUSH1 0x4 MSTORE PUSH1 0x24 PUSH0 REVERT JUMPDEST PUSH1 0x40 MLOAD PUSH4 0x4BE6321B PUSH1 0xE0 SHL DUP2 MSTORE PUSH1 0x4 SWAP1 REVERT JUMPDEST SWAP2 DUP1 SWAP4 SWAP5 PUSH1 0x20 SWAP3 PUSH1 0x64 PUSH1 0x40 MLOAD DUP1 SWAP8 DUP2 SWAP6 DUP3 SWAP5 PUSH4 0xB135D3F PUSH1 0xE1 SHL SWAP12 DUP13 DUP6 MSTORE PUSH1 0x4 DUP6 ADD MSTORE PUSH1 0x40 PUSH1 0x24 DUP6 ADD MSTORE DUP2 PUSH1 0x44 DUP6 ADD MSTORE DUP5 DUP5 ADD CALLDATACOPY DUP2 DUP2 ADD DUP4 ADD DUP9 SWAP1 MSTORE PUSH1 0x1F ADD PUSH1 0x1F NOT AND DUP2 ADD SUB ADD SWAP2 PUSH1 0x1 PUSH1 0x1 PUSH1 0xA0 SHL SUB AND GAS STATICCALL SWAP2 DUP3 ISZERO PUSH2 0x14E4 JUMPI DUP2 SWAP3 PUSH2 0x149E JUMPI JUMPDEST POP POP PUSH1 0x1 PUSH1 0x1 PUSH1 0xE0 SHL SUB NOT AND SUB PUSH2 0x148C JUMPI JUMP JUMPDEST PUSH1 0x40 MLOAD PUSH4 0x2C19A72F PUSH1 0xE2 SHL DUP2 MSTORE PUSH1 0x4 SWAP1 REVERT JUMPDEST SWAP1 SWAP2 POP PUSH1 0x20 DUP2 RETURNDATASIZE DUP3 GT PUSH2 0x14DC JUMPI JUMPDEST DUP2 PUSH2 0x14B9 PUSH1 0x20 SWAP4 DUP4 PUSH2 0xFE4 JUMP JUMPDEST DUP2 ADD SUB SLT PUSH2 0x2E4 JUMPI MLOAD SWAP1 PUSH1 0x1 PUSH1 0x1 PUSH1 0xE0 SHL SUB NOT DUP3 AND DUP3 SUB PUSH2 0x85A JUMPI POP PUSH0 DUP1 PUSH2 0x1479 JUMP JUMPDEST RETURNDATASIZE SWAP2 POP PUSH2 0x14AC JUMP JUMPDEST POP PUSH1 0x40 MLOAD SWAP1 RETURNDATASIZE SWAP1 DUP3 RETURNDATACOPY RETURNDATASIZE SWAP1 REVERT JUMPDEST DUP1 MLOAD DUP3 LT ISZERO PUSH2 0x13A1 JUMPI PUSH1 0x20 SWAP2 PUSH1 0x5 SHL ADD ADD SWAP1 JUMP JUMPDEST SWAP1 PUSH2 0x150F DUP3 PUSH2 0x110D JUMP JUMPDEST PUSH2 0x151C PUSH1 0x40 MLOAD SWAP2 DUP3 PUSH2 0xFE4 JUMP JUMPDEST DUP3 DUP2 MSTORE DUP1 SWAP3 PUSH2 0x152D PUSH1 0x1F NOT SWAP2 PUSH2 0x110D JUMP JUMPDEST ADD SWAP1 PUSH1 0x20 CALLDATASIZE SWAP2 ADD CALLDATACOPY JUMP JUMPDEST PUSH0 NOT DUP2 EQ PUSH2 0x13F2 JUMPI PUSH1 0x1 ADD SWAP1 JUMP JUMPDEST DUP1 MLOAD PUSH1 0x20 DUP1 SWAP3 ADD SWAP2 PUSH0 JUMPDEST DUP3 DUP2 LT PUSH2 0x155D JUMPI POP POP POP POP SWAP1 JUMP JUMPDEST DUP4 MLOAD DUP6 MSTORE SWAP4 DUP2 ADD SWAP4 SWAP3 DUP2 ADD SWAP3 PUSH1 0x1 ADD PUSH2 0x154F JUMP JUMPDEST SWAP3 SWAP2 SWAP3 PUSH1 0x1 DUP1 PUSH1 0xA0 SHL SUB PUSH1 0x40 PUSH0 DUP3 DUP5 AND DUP2 MSTORE PUSH1 0x1 PUSH1 0x20 MSTORE DUP3 DUP3 DUP3 KECCAK256 SWAP7 AND SWAP6 DUP7 DUP3 MSTORE PUSH1 0x20 MSTORE DUP2 DUP2 KECCAK256 CALLER DUP3 MSTORE PUSH1 0x20 MSTORE KECCAK256 SWAP5 DUP6 SLOAD SWAP6 PUSH6 0xFFFFFFFFFFFF DUP8 PUSH1 0xA0 SHR AND DUP1 TIMESTAMP GT PUSH2 0x161B JUMPI POP DUP3 DUP8 AND SWAP7 DUP4 DUP9 SUB PUSH2 0x15D3 JUMPI JUMPDEST POP POP PUSH2 0x15D1 SWAP6 POP AND SWAP3 PUSH2 0x1A9A JUMP JUMPDEST JUMP JUMPDEST DUP8 DUP5 DUP5 AND GT PUSH0 EQ PUSH2 0x15F7 JUMPI PUSH1 0x40 MLOAD PUSH4 0xF96FB071 PUSH1 0xE0 SHL DUP2 MSTORE PUSH1 0x4 DUP2 ADD DUP10 SWAP1 MSTORE PUSH1 0x24 SWAP1 REVERT JUMPDEST DUP4 DUP4 PUSH2 0x15D1 SWAP10 SUB AND SWAP1 PUSH12 0xFFFFFFFFFFFFFFFFFFFFFFFF PUSH1 0xA0 SHL AND OR SWAP1 SSTORE PUSH0 DUP1 PUSH2 0x15C3 JUMP JUMPDEST PUSH1 0x24 SWAP1 PUSH1 0x40 MLOAD SWAP1 PUSH4 0x6C0D9797 PUSH1 0xE1 SHL DUP3 MSTORE PUSH1 0x4 DUP3 ADD MSTORE REVERT JUMPDEST SWAP2 SWAP1 DUP2 LT ISZERO PUSH2 0x13A1 JUMPI PUSH1 0x6 SHL ADD SWAP1 JUMP JUMPDEST CALLDATALOAD PUSH1 0x1 PUSH1 0x1 PUSH1 0xA0 SHL SUB DUP2 AND DUP2 SUB PUSH2 0x101B JUMPI SWAP1 JUMP JUMPDEST SWAP1 PUSH6 0xFFFFFFFFFFFF SWAP1 DUP2 PUSH1 0x60 DUP5 ADD MLOAD AND PUSH1 0x1 DUP1 PUSH1 0xA0 SHL SUB SWAP1 DUP2 DUP6 MLOAD AND SWAP5 DUP3 PUSH1 0x20 DUP3 ADD MLOAD AND SWAP3 DUP1 DUP7 PUSH1 0x40 DUP1 SWAP5 ADD MLOAD AND SWAP6 AND SWAP6 PUSH0 SWAP2 DUP8 DUP4 MSTORE PUSH1 0x1 PUSH1 0x20 MSTORE DUP4 DUP4 KECCAK256 DUP10 DUP5 MSTORE PUSH1 0x20 MSTORE DUP4 DUP4 KECCAK256 SWAP10 AND SWAP9 DUP10 DUP4 MSTORE PUSH1 0x20 MSTORE DUP3 DUP3 KECCAK256 SWAP2 DUP5 DUP4 SLOAD PUSH1 0xD0 SHR SUB PUSH2 0x174F JUMPI SWAP2 DUP6 PUSH2 0x1743 SWAP5 SWAP3 PUSH32 0xC6A377BFC4EB120024A8AC08EEF205BE16B817020812C73223E81D1BDB9708EC SWAP9 SWAP8 SWAP7 SWAP5 POP DUP8 ISZERO PUSH0 EQ PUSH2 0x1748 JUMPI TIMESTAMP AND JUMPDEST PUSH1 0x1 DUP6 ADD PUSH1 0xD0 SHL PUSH1 0x1 PUSH1 0x1 PUSH1 0xD0 SHL SUB NOT AND PUSH1 0xA0 SWAP2 SWAP1 SWAP2 SHL PUSH6 0xFFFFFFFFFFFF PUSH1 0xA0 SHL AND OR OR SWAP1 SSTORE MLOAD PUSH1 0x1 PUSH1 0x1 PUSH1 0xA0 SHL SUB SWAP1 SWAP4 AND DUP4 MSTORE PUSH6 0xFFFFFFFFFFFF SWAP4 DUP5 AND PUSH1 0x20 DUP5 ADD MSTORE SWAP1 SWAP3 AND PUSH1 0x40 DUP3 ADD MSTORE SWAP1 DUP2 SWAP1 PUSH1 0x60 DUP3 ADD SWAP1 JUMP JUMPDEST SUB SWAP1 LOG4 JUMP JUMPDEST POP DUP7 PUSH2 0x16EE JUMP JUMPDEST DUP4 MLOAD PUSH4 0x3AB3447F PUSH1 0xE1 SHL DUP2 MSTORE PUSH1 0x4 SWAP1 REVERT JUMPDEST CHAINID PUSH32 0x0 SUB PUSH2 0x17AB JUMPI PUSH32 0x0 SWAP1 JUMP JUMPDEST PUSH1 0x40 MLOAD PUSH1 0x20 DUP2 ADD SWAP1 PUSH32 0x8CAD95687BA82C2CE50E74F7B754645E5117C3A5BEC8151C0726D5857980A866 DUP3 MSTORE PUSH32 0x9AC997416E8FF9D2FF6BEBEB7149F65CDAE5E32E2B90440B566BB3044041D36A PUSH1 0x40 DUP3 ADD MSTORE CHAINID PUSH1 0x60 DUP3 ADD MSTORE ADDRESS PUSH1 0x80 DUP3 ADD MSTORE PUSH1 0x80 DUP2 MSTORE PUSH2 0x1815 DUP2 PUSH2 0xFAE JUMP JUMPDEST MLOAD SWAP1 KECCAK256 SWAP1 JUMP JUMPDEST PUSH2 0x1823 PUSH2 0x1760 JUMP JUMPDEST SWAP1 PUSH1 0x40 MLOAD SWAP1 PUSH1 0x20 DUP3 ADD SWAP3 PUSH2 0x1901 PUSH1 0xF0 SHL DUP5 MSTORE PUSH1 0x22 DUP4 ADD MSTORE PUSH1 0x42 DUP3 ADD MSTORE PUSH1 0x42 DUP2 MSTORE PUSH2 0x1815 DUP2 PUSH2 0xF64 JUMP JUMPDEST PUSH1 0x40 MLOAD PUSH1 0x20 DUP1 DUP3 ADD SWAP3 PUSH32 0x618358AC3DB8DC274F0CD8829DA7E234BD48CD73C4A740AEDE1ADEC9846D06A1 DUP5 MSTORE PUSH1 0x1 DUP1 PUSH1 0xA0 SHL SUB DUP2 MLOAD AND PUSH1 0x40 DUP5 ADD MSTORE ADD MLOAD PUSH1 0x60 DUP3 ADD MSTORE PUSH1 0x60 DUP2 MSTORE PUSH2 0x1815 DUP2 PUSH2 0xF64 JUMP JUMPDEST SWAP1 DUP2 MLOAD SWAP2 PUSH0 JUMPDEST DUP4 DUP2 LT PUSH2 0x18B1 JUMPI POP POP ADD PUSH0 DUP2 MSTORE SWAP1 JUMP JUMPDEST DUP1 PUSH1 0x20 DUP1 SWAP3 DUP5 ADD ADD MLOAD DUP2 DUP6 ADD MSTORE ADD PUSH2 0x18A1 JUMP JUMPDEST SWAP2 SWAP3 SWAP1 SWAP4 PUSH1 0xA4 CALLDATALOAD SWAP4 PUSH1 0x40 DUP5 ADD MLOAD DUP1 TIMESTAMP GT PUSH2 0x193F JUMPI POP PUSH1 0x20 DUP5 MLOAD ADD MLOAD DUP1 DUP7 GT PUSH2 0x1927 JUMPI POP SWAP2 DUP6 SWAP2 PUSH2 0xA93 PUSH2 0x1904 SWAP5 PUSH2 0x18FF PUSH1 0x20 DUP9 ADD MLOAD DUP7 PUSH2 0x1A51 JUMP JUMPDEST PUSH2 0x181B JUMP JUMPDEST MLOAD MLOAD PUSH1 0x1 PUSH1 0x1 PUSH1 0xA0 SHL SUB SWAP1 DUP2 AND SWAP3 PUSH1 0x84 CALLDATALOAD SWAP2 DUP3 AND DUP3 SUB PUSH2 0x101B JUMPI PUSH2 0x15D1 SWAP4 PUSH2 0x1A9A JUMP JUMPDEST PUSH1 0x24 SWAP1 PUSH1 0x40 MLOAD SWAP1 PUSH4 0x3728B83D PUSH1 0xE0 SHL DUP3 MSTORE PUSH1 0x4 DUP3 ADD MSTORE REVERT JUMPDEST PUSH1 0x24 SWAP1 PUSH1 0x40 MLOAD SWAP1 PUSH4 0xCD21DB4F PUSH1 0xE0 SHL DUP3 MSTORE PUSH1 0x4 DUP3 ADD MSTORE REVERT JUMPDEST SWAP6 SWAP1 SWAP4 SWAP6 DUP1 MLOAD MLOAD SWAP6 PUSH1 0x40 SWAP3 DUP4 DUP4 ADD MLOAD DUP1 TIMESTAMP GT PUSH2 0x1A3A JUMPI POP DUP5 DUP9 SUB PUSH2 0x1A26 JUMPI PUSH2 0x198E SWAP2 DUP7 SWAP2 PUSH2 0xA93 PUSH1 0x20 SWAP12 PUSH2 0x18FF DUP14 DUP9 ADD MLOAD DUP7 PUSH2 0x1A51 JUMP JUMPDEST PUSH0 JUMPDEST DUP7 DUP2 LT PUSH2 0x19A1 JUMPI POP POP POP POP POP POP POP POP JUMP JUMPDEST PUSH2 0x19AC DUP2 DUP4 MLOAD PUSH2 0x14F1 JUMP JUMPDEST MLOAD DUP9 PUSH2 0x19B9 DUP4 DUP8 DUP11 PUSH2 0x1633 JUMP JUMPDEST ADD CALLDATALOAD SWAP1 DUP10 DUP2 ADD MLOAD DUP1 DUP4 GT PUSH2 0x1A0F JUMPI POP SWAP2 DUP2 DUP9 DUP9 DUP9 PUSH1 0x1 SWAP7 DUP6 SWAP7 PUSH2 0x19E3 JUMPI JUMPDEST POP POP POP POP POP POP ADD PUSH2 0x1990 JUMP JUMPDEST PUSH2 0x1A04 SWAP6 PUSH2 0x19FE SWAP3 PUSH2 0x467 SWAP3 DUP11 DUP1 PUSH1 0xA0 SHL SUB SWAP1 MLOAD AND SWAP6 PUSH2 0x1633 JUMP JUMPDEST SWAP2 PUSH2 0x1A9A JUMP JUMPDEST DUP1 PUSH0 DUP9 DUP9 DUP9 DUP4 PUSH2 0x19D7 JUMP JUMPDEST PUSH1 0x24 SWAP1 DUP7 MLOAD SWAP1 PUSH4 0x3728B83D PUSH1 0xE0 SHL DUP3 MSTORE PUSH1 0x4 DUP3 ADD MSTORE REVERT JUMPDEST DUP4 MLOAD PUSH1 0x1 PUSH3 0x1398B9 PUSH1 0xE3 SHL SUB NOT DUP2 MSTORE PUSH1 0x4 SWAP1 REVERT JUMPDEST PUSH1 0x24 SWAP1 DUP6 MLOAD SWAP1 PUSH4 0xCD21DB4F PUSH1 0xE0 SHL DUP3 MSTORE PUSH1 0x4 DUP3 ADD MSTORE REVERT JUMPDEST SWAP1 PUSH1 0x1 PUSH1 0xFF DUP3 AND SHL SWAP2 PUSH1 0x1 DUP1 PUSH1 0xA0 SHL SUB AND PUSH0 MSTORE PUSH0 PUSH1 0x20 MSTORE PUSH1 0x40 PUSH0 KECCAK256 SWAP1 PUSH1 0x8 SHR PUSH0 MSTORE PUSH1 0x20 MSTORE PUSH1 0x40 PUSH0 KECCAK256 DUP2 DUP2 SLOAD XOR DUP1 SWAP2 SSTORE AND ISZERO PUSH2 0x1A88 JUMPI JUMP JUMPDEST PUSH1 0x40 MLOAD PUSH4 0x3AB3447F PUSH1 0xE1 SHL DUP2 MSTORE PUSH1 0x4 SWAP1 REVERT JUMPDEST SWAP2 PUSH0 DUP1 SWAP4 PUSH1 0x20 SWAP6 PUSH1 0x64 SWAP5 PUSH1 0x40 MLOAD SWAP5 PUSH4 0x23B872DD PUSH1 0xE0 SHL DUP7 MSTORE PUSH1 0x1 DUP1 PUSH1 0xA0 SHL SUB DUP1 SWAP3 AND PUSH1 0x4 DUP8 ADD MSTORE AND PUSH1 0x24 DUP6 ADD MSTORE PUSH1 0x44 DUP5 ADD MSTORE GAS CALL RETURNDATASIZE ISZERO PUSH1 0x1F RETURNDATASIZE GT PUSH1 0x1 PUSH0 MLOAD EQ AND OR AND ISZERO PUSH2 0x1AE3 JUMPI JUMP JUMPDEST PUSH1 0x40 MLOAD PUSH3 0x461BCD PUSH1 0xE5 SHL DUP2 MSTORE PUSH1 0x20 PUSH1 0x4 DUP3 ADD MSTORE PUSH1 0x14 PUSH1 0x24 DUP3 ADD MSTORE PUSH20 0x1514905394D1915497D19493D357D19052531151 PUSH1 0x62 SHL PUSH1 0x44 DUP3 ADD MSTORE PUSH1 0x64 SWAP1 REVERT INVALID LOG2 PUSH5 0x6970667358 0x22 SLT KECCAK256 0x2B 0x49 0xB0 0xAB EXTCODEHASH 0xBF SWAP2 JUMP STOP OR 0xC9 0xCD PUSH29 0x1DD1A4EC7AC6C8AFB6EB3A4CE5998949280AF764736F6C634300081400 CALLER "
				},
				"gasEstimates": {
					"creation": {
						"codeDepositCost": "1399400",
						"executionCost": "infinite",
						"totalCost": "infinite"
					},
					"external": {
						"DOMAIN_SEPARATOR()": "infinite",
						"allowance(address,address,address)": "3066",
						"approve(address,address,uint160,uint48)": "27635",
						"invalidateNonces(address,address,uint48)": "29860",
						"invalidateUnorderedNonces(uint256,uint256)": "26335",
						"lockdown((address,address)[])": "infinite",
						"nonceBitmap(address,uint256)": "2662",
						"permit(address,((address,uint160,uint48,uint48),address,uint256),bytes)": "infinite",
						"permit(address,((address,uint160,uint48,uint48)[],address,uint256),bytes)": "infinite",
						"permitTransferFrom(((address,uint256),uint256,uint256),(address,uint256),address,bytes)": "infinite",
						"permitTransferFrom(((address,uint256)[],uint256,uint256),(address,uint256)[],address,bytes)": "infinite",
						"permitWitnessTransferFrom(((address,uint256),uint256,uint256),(address,uint256),address,bytes32,string,bytes)": "infinite",
						"permitWitnessTransferFrom(((address,uint256)[],uint256,uint256),(address,uint256)[],address,bytes32,string,bytes)": "infinite",
						"transferFrom((address,address,uint160,address)[])": "infinite",
						"transferFrom(address,address,uint160,address)": "infinite"
					}
				},
				"methodIdentifiers": {
					"DOMAIN_SEPARATOR()": "3644e515",
					"allowance(address,address,address)": "927da105",
					"approve(address,address,uint160,uint48)": "87517c45",
					"invalidateNonces(address,address,uint48)": "65d9723c",
					"invalidateUnorderedNonces(uint256,uint256)": "3ff9dcb1",
					"lockdown((address,address)[])": "cc53287f",
					"nonceBitmap(address,uint256)": "4fe02b44",
					"permit(address,((address,uint160,uint48,uint48),address,uint256),bytes)": "2b67b570",
					"permit(address,((address,uint160,uint48,uint48)[],address,uint256),bytes)": "2a2d80d1",
					"permitTransferFrom(((address,uint256),uint256,uint256),(address,uint256),address,bytes)": "30f28b7a",
					"permitTransferFrom(((address,uint256)[],uint256,uint256),(address,uint256)[],address,bytes)": "edd9444b",
					"permitWitnessTransferFrom(((address,uint256),uint256,uint256),(address,uint256),address,bytes32,string,bytes)": "137c29fe",
					"permitWitnessTransferFrom(((address,uint256)[],uint256,uint256),(address,uint256)[],address,bytes32,string,bytes)": "fe8ec1a7",
					"transferFrom((address,address,uint160,address)[])": "0d58b1db",
					"transferFrom(address,address,uint160,address)": "36c78516"
				}
			},
			"storageLayout": {
				"storage": [
					{
						"astId": 1775,
						"contract": "contracts/contracts/permit2/Permit2.sol:Permit2",
						"label": "nonceBitmap",
						"offset": 0,
						"slot": "0",
						"type": "t_mapping(t_address,t_mapping(t_uint256,t_uint256))"
					},
					{
						"astId": 1112,
						"contract": "contracts/contracts/permit2/Permit2.sol:Permit2",
						"label": "allowance",
						"offset": 0,
						"slot": "1",
						"type": "t_mapping(t_address,t_mapping(t_address,t_mapping(t_address,t_struct(PackedAllowance)106_storage)))"
					}
				],
				"types": {
					"t_address": {
						"encoding": "inplace",
						"label": "address",
						"numberOfBytes": "20"
					},
					"t_mapping(t_address,t_mapping(t_address,t_mapping(t_address,t_struct(PackedAllowance)106_storage)))": {
						"encoding": "mapping",
						"key": "t_address",
						"label": "mapping(address => mapping(address => mapping(address => struct IAllowanceTransfer.PackedAllowance)))",
						"numberOfBytes": "32",
						"value": "t_mapping(t_address,t_mapping(t_address,t_struct(PackedAllowance)106_storage))"
					},
					"t_mapping(t_address,t_mapping(t_address,t_struct(PackedAllowance)106_storage))": {
						"encoding": "mapping",
						"key": "t_address",
						"label": "mapping(address => mapping(address => struct IAllowanceTransfer.PackedAllowance))",
						"numberOfBytes": "32",
						"value": "t_mapping(t_address,t_struct(PackedAllowance)106_storage)"
					},
					"t_mapping(t_address,t_mapping(t_uint256,t_uint256))": {
						"encoding": "mapping",
						"key": "t_address",
						"label": "mapping(address => mapping(uint256 => uint256))",
						"numberOfBytes": "32",
						"value": "t_mapping(t_uint256,t_uint256)"
					},
					"t_mapping(t_address,t_struct(PackedAllowance)106_storage)": {
						"encoding": "mapping",
						"key": "t_address",
						"label": "mapping(address => struct IAllowanceTransfer.PackedAllowance)",
						"numberOfBytes": "32",
						"value": "t_struct(PackedAllowance)106_storage"
					},
					"t_mapping(t_uint256,t_uint256)": {
						"encoding": "mapping",
						"key": "t_uint256",
						"label": "mapping(uint256 => uint256)",
						"numberOfBytes": "32",
						"value": "t_uint256"
					},
					"t_struct(PackedAllowance)106_storage": {
						"encoding": "inplace",
						"label": "struct IAllowanceTransfer.PackedAllowance",
						"members": [
							{
								"astId": 101,
								"contract": "contracts/contracts/permit2/Permit2.sol:Permit2",
								"label": "amount",
								"offset": 0,
								"slot": "0",
								"type": "t_uint160"
							},
							{
								"astId": 103,
								"contract": "contracts/contracts/permit2/Permit2.sol:Permit2",
								"label": "expiration",
								"offset": 20,
								"slot": "0",
								"type": "t_uint48"
							},
							{
								"astId": 105,
								"contract": "contracts/contracts/permit2/Permit2.sol:Permit2",
								"label": "nonce",
								"offset": 26,
								"slot": "0",
								"type": "t_uint48"
							}
						],
						"numberOfBytes": "32"
					},
					"t_uint160": {
						"encoding": "inplace",
						"label": "uint160",
						"numberOfBytes": "20"
					},
					"t_uint256": {
						"encoding": "inplace",
						"label": "uint256",
						"numberOfBytes": "32"
					},
					"t_uint48": {
						"encoding": "inplace",
						"label": "uint48",
						"numberOfBytes": "6"
					}
				}
			},
			"userdoc": {
				"errors": {
					"AllowanceExpired(uint256)": [
						{
							"notice": "Thrown when an allowance on a token has expired."
						}
					],
					"ExcessiveInvalidation()": [
						{
							"notice": "Thrown when too many nonces are invalidated."
						}
					],
					"InsufficientAllowance(uint256)": [
						{
							"notice": "Thrown when an allowance on a token has been depleted."
						}
					],
					"InvalidAmount(uint256)": [
						{
							"notice": "Thrown when the requested amount for a transfer is larger than the permissioned amount"
						}
					],
					"InvalidContractSignature()": [
						{
							"notice": "Thrown when the recovered contract signature is incorrect"
						}
					],
					"InvalidNonce()": [
						{
							"notice": "Thrown when validating that the inputted nonce has not been used"
						}
					],
					"InvalidSignature()": [
						{
							"notice": "Thrown when the recovered signer is equal to the zero address"
						}
					],
					"InvalidSignatureLength()": [
						{
							"notice": "Thrown when the passed in signature is not a valid length"
						}
					],
					"InvalidSigner()": [
						{
							"notice": "Thrown when the recovered signer does not equal the claimedSigner"
						}
					],
					"LengthMismatch()": [
						{
							"notice": "Thrown when the number of tokens permissioned to a spender does not match the number of tokens being transferred"
						}
					],
					"SignatureExpired(uint256)": [
						{
							"notice": "Thrown when validating an inputted signature that is stale"
						}
					]
				},
				"events": {
					"Approval(address,address,address,uint160,uint48)": {
						"notice": "Emits an event when the owner successfully sets permissions on a token for the spender."
					},
					"Lockdown(address,address,address)": {
						"notice": "Emits an event when the owner sets the allowance back to 0 with the lockdown function."
					},
					"NonceInvalidation(address,address,address,uint48,uint48)": {
						"notice": "Emits an event when the owner successfully invalidates an ordered nonce."
					},
					"Permit(address,address,address,uint160,uint48,uint48)": {
						"notice": "Emits an event when the owner successfully sets permissions using a permit signature on a token for the spender."
					},
					"UnorderedNonceInvalidation(address,uint256,uint256)": {
						"notice": "Emits an event when the owner successfully invalidates an unordered nonce."
					}
				},
				"kind": "user",
				"methods": {
					"DOMAIN_SEPARATOR()": {
						"notice": "Returns the domain separator for the current chain."
					},
					"allowance(address,address,address)": {
						"notice": "Maps users to tokens to spender addresses and information about the approval on the token"
					},
					"approve(address,address,uint160,uint48)": {
						"notice": "Approves the spender to use up to amount of the specified token up until the expiration"
					},
					"invalidateNonces(address,address,uint48)": {
						"notice": "Invalidate nonces for a given (token, spender) pair"
					},
					"invalidateUnorderedNonces(uint256,uint256)": {
						"notice": "Invalidates the bits specified in mask for the bitmap at the word position"
					},
					"lockdown((address,address)[])": {
						"notice": "Enables performing a \"lockdown\" of the sender's Permit2 identity by batch revoking approvals"
					},
					"nonceBitmap(address,uint256)": {
						"notice": "A map from token owner address and a caller specified word index to a bitmap. Used to set bits in the bitmap to prevent against signature replay protection"
					},
					"permit(address,((address,uint160,uint48,uint48),address,uint256),bytes)": {
						"notice": "Permit a spender to a given amount of the owners token via the owner's EIP-712 signature"
					},
					"permit(address,((address,uint160,uint48,uint48)[],address,uint256),bytes)": {
						"notice": "Permit a spender to the signed amounts of the owners tokens via the owner's EIP-712 signature"
					},
					"permitTransferFrom(((address,uint256),uint256,uint256),(address,uint256),address,bytes)": {
						"notice": "Transfers a token using a signed permit message"
					},
					"permitTransferFrom(((address,uint256)[],uint256,uint256),(address,uint256)[],address,bytes)": {
						"notice": "Transfers multiple tokens using a signed permit message"
					},
					"permitWitnessTransferFrom(((address,uint256),uint256,uint256),(address,uint256),address,bytes32,string,bytes)": {
						"notice": "Transfers a token using a signed permit messageIncludes extra data provided by the caller to verify signature over"
					},
					"permitWitnessTransferFrom(((address,uint256)[],uint256,uint256),(address,uint256)[],address,bytes32,string,bytes)": {
						"notice": "Transfers multiple tokens using a signed permit messageIncludes extra data provided by the caller to verify signature over"
					},
					"transferFrom((address,address,uint160,address)[])": {
						"notice": "Transfer approved tokens in a batch"
					},
					"transferFrom(address,address,uint160,address)": {
						"notice": "Transfer approved tokens from one address to another"
					}
				},
				"notice": "Permit2 handles signature-based transfers in SignatureTransfer and allowance-based transfers in AllowanceTransfer.",
				"version": 1
			}
		}
	}
}