{
	"contracts/protocol/TuliaVault.sol": {
		"TuliaVault": {
			"abi": [
				{
					"inputs": [
						{
							"internalType": "contract IERC20",
							"name": "asset",
							"type": "address"
						},
						{
							"internalType": "string",
							"name": "name",
							"type": "string"
						},
						{
							"internalType": "string",
							"name": "symbol",
							"type": "string"
						}
					],
					"stateMutability": "nonpayable",
					"type": "constructor"
				},
				{
					"inputs": [
						{
							"internalType": "address",
							"name": "target",
							"type": "address"
						}
					],
					"name": "AddressEmptyCode",
					"type": "error"
				},
				{
					"inputs": [
						{
							"internalType": "address",
							"name": "account",
							"type": "address"
						}
					],
					"name": "AddressInsufficientBalance",
					"type": "error"
				},
				{
					"inputs": [
						{
							"internalType": "address",
							"name": "spender",
							"type": "address"
						},
						{
							"internalType": "uint256",
							"name": "allowance",
							"type": "uint256"
						},
						{
							"internalType": "uint256",
							"name": "needed",
							"type": "uint256"
						}
					],
					"name": "ERC20InsufficientAllowance",
					"type": "error"
				},
				{
					"inputs": [
						{
							"internalType": "address",
							"name": "sender",
							"type": "address"
						},
						{
							"internalType": "uint256",
							"name": "balance",
							"type": "uint256"
						},
						{
							"internalType": "uint256",
							"name": "needed",
							"type": "uint256"
						}
					],
					"name": "ERC20InsufficientBalance",
					"type": "error"
				},
				{
					"inputs": [
						{
							"internalType": "address",
							"name": "approver",
							"type": "address"
						}
					],
					"name": "ERC20InvalidApprover",
					"type": "error"
				},
				{
					"inputs": [
						{
							"internalType": "address",
							"name": "receiver",
							"type": "address"
						}
					],
					"name": "ERC20InvalidReceiver",
					"type": "error"
				},
				{
					"inputs": [
						{
							"internalType": "address",
							"name": "sender",
							"type": "address"
						}
					],
					"name": "ERC20InvalidSender",
					"type": "error"
				},
				{
					"inputs": [
						{
							"internalType": "address",
							"name": "spender",
							"type": "address"
						}
					],
					"name": "ERC20InvalidSpender",
					"type": "error"
				},
				{
					"inputs": [
						{
							"internalType": "address",
							"name": "receiver",
							"type": "address"
						},
						{
							"internalType": "uint256",
							"name": "assets",
							"type": "uint256"
						},
						{
							"internalType": "uint256",
							"name": "max",
							"type": "uint256"
						}
					],
					"name": "ERC4626ExceededMaxDeposit",
					"type": "error"
				},
				{
					"inputs": [
						{
							"internalType": "address",
							"name": "receiver",
							"type": "address"
						},
						{
							"internalType": "uint256",
							"name": "shares",
							"type": "uint256"
						},
						{
							"internalType": "uint256",
							"name": "max",
							"type": "uint256"
						}
					],
					"name": "ERC4626ExceededMaxMint",
					"type": "error"
				},
				{
					"inputs": [
						{
							"internalType": "address",
							"name": "owner",
							"type": "address"
						},
						{
							"internalType": "uint256",
							"name": "shares",
							"type": "uint256"
						},
						{
							"internalType": "uint256",
							"name": "max",
							"type": "uint256"
						}
					],
					"name": "ERC4626ExceededMaxRedeem",
					"type": "error"
				},
				{
					"inputs": [
						{
							"internalType": "address",
							"name": "owner",
							"type": "address"
						},
						{
							"internalType": "uint256",
							"name": "assets",
							"type": "uint256"
						},
						{
							"internalType": "uint256",
							"name": "max",
							"type": "uint256"
						}
					],
					"name": "ERC4626ExceededMaxWithdraw",
					"type": "error"
				},
				{
					"inputs": [],
					"name": "FailedInnerCall",
					"type": "error"
				},
				{
					"inputs": [],
					"name": "InvalidYieldRate",
					"type": "error"
				},
				{
					"inputs": [],
					"name": "MathOverflowedMulDiv",
					"type": "error"
				},
				{
					"inputs": [
						{
							"internalType": "address",
							"name": "token",
							"type": "address"
						}
					],
					"name": "SafeERC20FailedOperation",
					"type": "error"
				},
				{
					"anonymous": false,
					"inputs": [
						{
							"indexed": true,
							"internalType": "address",
							"name": "owner",
							"type": "address"
						},
						{
							"indexed": true,
							"internalType": "address",
							"name": "spender",
							"type": "address"
						},
						{
							"indexed": false,
							"internalType": "uint256",
							"name": "value",
							"type": "uint256"
						}
					],
					"name": "Approval",
					"type": "event"
				},
				{
					"anonymous": false,
					"inputs": [
						{
							"indexed": true,
							"internalType": "address",
							"name": "sender",
							"type": "address"
						},
						{
							"indexed": true,
							"internalType": "address",
							"name": "owner",
							"type": "address"
						},
						{
							"indexed": false,
							"internalType": "uint256",
							"name": "assets",
							"type": "uint256"
						},
						{
							"indexed": false,
							"internalType": "uint256",
							"name": "shares",
							"type": "uint256"
						}
					],
					"name": "Deposit",
					"type": "event"
				},
				{
					"anonymous": false,
					"inputs": [
						{
							"indexed": true,
							"internalType": "address",
							"name": "from",
							"type": "address"
						},
						{
							"indexed": true,
							"internalType": "address",
							"name": "to",
							"type": "address"
						},
						{
							"indexed": false,
							"internalType": "uint256",
							"name": "value",
							"type": "uint256"
						}
					],
					"name": "Transfer",
					"type": "event"
				},
				{
					"anonymous": false,
					"inputs": [
						{
							"indexed": true,
							"internalType": "address",
							"name": "sender",
							"type": "address"
						},
						{
							"indexed": true,
							"internalType": "address",
							"name": "receiver",
							"type": "address"
						},
						{
							"indexed": true,
							"internalType": "address",
							"name": "owner",
							"type": "address"
						},
						{
							"indexed": false,
							"internalType": "uint256",
							"name": "assets",
							"type": "uint256"
						},
						{
							"indexed": false,
							"internalType": "uint256",
							"name": "shares",
							"type": "uint256"
						}
					],
					"name": "Withdraw",
					"type": "event"
				},
				{
					"anonymous": false,
					"inputs": [
						{
							"indexed": false,
							"internalType": "uint256",
							"name": "amount",
							"type": "uint256"
						}
					],
					"name": "YieldAccrued",
					"type": "event"
				},
				{
					"anonymous": false,
					"inputs": [
						{
							"indexed": false,
							"internalType": "uint256",
							"name": "newBaseYieldRate",
							"type": "uint256"
						}
					],
					"name": "YieldRateUpdated",
					"type": "event"
				},
				{
					"inputs": [],
					"name": "YIELD_ACCRUAL_PERIOD",
					"outputs": [
						{
							"internalType": "uint256",
							"name": "",
							"type": "uint256"
						}
					],
					"stateMutability": "view",
					"type": "function"
				},
				{
					"inputs": [],
					"name": "YIELD_MANAGER_ROLE",
					"outputs": [
						{
							"internalType": "bytes32",
							"name": "",
							"type": "bytes32"
						}
					],
					"stateMutability": "view",
					"type": "function"
				},
				{
					"inputs": [
						{
							"internalType": "address",
							"name": "owner",
							"type": "address"
						},
						{
							"internalType": "address",
							"name": "spender",
							"type": "address"
						}
					],
					"name": "allowance",
					"outputs": [
						{
							"internalType": "uint256",
							"name": "",
							"type": "uint256"
						}
					],
					"stateMutability": "view",
					"type": "function"
				},
				{
					"inputs": [
						{
							"internalType": "address",
							"name": "spender",
							"type": "address"
						},
						{
							"internalType": "uint256",
							"name": "value",
							"type": "uint256"
						}
					],
					"name": "approve",
					"outputs": [
						{
							"internalType": "bool",
							"name": "",
							"type": "bool"
						}
					],
					"stateMutability": "nonpayable",
					"type": "function"
				},
				{
					"inputs": [],
					"name": "asset",
					"outputs": [
						{
							"internalType": "address",
							"name": "",
							"type": "address"
						}
					],
					"stateMutability": "view",
					"type": "function"
				},
				{
					"inputs": [
						{
							"internalType": "address",
							"name": "account",
							"type": "address"
						}
					],
					"name": "balanceOf",
					"outputs": [
						{
							"internalType": "uint256",
							"name": "",
							"type": "uint256"
						}
					],
					"stateMutability": "view",
					"type": "function"
				},
				{
					"inputs": [],
					"name": "baseYieldRate",
					"outputs": [
						{
							"internalType": "uint256",
							"name": "",
							"type": "uint256"
						}
					],
					"stateMutability": "view",
					"type": "function"
				},
				{
					"inputs": [
						{
							"internalType": "uint256",
							"name": "shares",
							"type": "uint256"
						}
					],
					"name": "convertToAssets",
					"outputs": [
						{
							"internalType": "uint256",
							"name": "",
							"type": "uint256"
						}
					],
					"stateMutability": "view",
					"type": "function"
				},
				{
					"inputs": [
						{
							"internalType": "uint256",
							"name": "assets",
							"type": "uint256"
						}
					],
					"name": "convertToShares",
					"outputs": [
						{
							"internalType": "uint256",
							"name": "",
							"type": "uint256"
						}
					],
					"stateMutability": "view",
					"type": "function"
				},
				{
					"inputs": [],
					"name": "decimals",
					"outputs": [
						{
							"internalType": "uint8",
							"name": "",
							"type": "uint8"
						}
					],
					"stateMutability": "view",
					"type": "function"
				},
				{
					"inputs": [
						{
							"internalType": "uint256",
							"name": "assets",
							"type": "uint256"
						},
						{
							"internalType": "address",
							"name": "receiver",
							"type": "address"
						}
					],
					"name": "deposit",
					"outputs": [
						{
							"internalType": "uint256",
							"name": "shares",
							"type": "uint256"
						}
					],
					"stateMutability": "nonpayable",
					"type": "function"
				},
				{
					"inputs": [],
					"name": "lastYieldAccrualTime",
					"outputs": [
						{
							"internalType": "uint256",
							"name": "",
							"type": "uint256"
						}
					],
					"stateMutability": "view",
					"type": "function"
				},
				{
					"inputs": [
						{
							"internalType": "address",
							"name": "",
							"type": "address"
						}
					],
					"name": "maxDeposit",
					"outputs": [
						{
							"internalType": "uint256",
							"name": "",
							"type": "uint256"
						}
					],
					"stateMutability": "view",
					"type": "function"
				},
				{
					"inputs": [
						{
							"internalType": "address",
							"name": "",
							"type": "address"
						}
					],
					"name": "maxMint",
					"outputs": [
						{
							"internalType": "uint256",
							"name": "",
							"type": "uint256"
						}
					],
					"stateMutability": "view",
					"type": "function"
				},
				{
					"inputs": [
						{
							"internalType": "address",
							"name": "owner",
							"type": "address"
						}
					],
					"name": "maxRedeem",
					"outputs": [
						{
							"internalType": "uint256",
							"name": "",
							"type": "uint256"
						}
					],
					"stateMutability": "view",
					"type": "function"
				},
				{
					"inputs": [
						{
							"internalType": "address",
							"name": "owner",
							"type": "address"
						}
					],
					"name": "maxWithdraw",
					"outputs": [
						{
							"internalType": "uint256",
							"name": "",
							"type": "uint256"
						}
					],
					"stateMutability": "view",
					"type": "function"
				},
				{
					"inputs": [
						{
							"internalType": "uint256",
							"name": "shares",
							"type": "uint256"
						},
						{
							"internalType": "address",
							"name": "receiver",
							"type": "address"
						}
					],
					"name": "mint",
					"outputs": [
						{
							"internalType": "uint256",
							"name": "",
							"type": "uint256"
						}
					],
					"stateMutability": "nonpayable",
					"type": "function"
				},
				{
					"inputs": [],
					"name": "name",
					"outputs": [
						{
							"internalType": "string",
							"name": "",
							"type": "string"
						}
					],
					"stateMutability": "view",
					"type": "function"
				},
				{
					"inputs": [
						{
							"internalType": "uint256",
							"name": "assets",
							"type": "uint256"
						}
					],
					"name": "previewDeposit",
					"outputs": [
						{
							"internalType": "uint256",
							"name": "",
							"type": "uint256"
						}
					],
					"stateMutability": "view",
					"type": "function"
				},
				{
					"inputs": [
						{
							"internalType": "uint256",
							"name": "shares",
							"type": "uint256"
						}
					],
					"name": "previewMint",
					"outputs": [
						{
							"internalType": "uint256",
							"name": "",
							"type": "uint256"
						}
					],
					"stateMutability": "view",
					"type": "function"
				},
				{
					"inputs": [
						{
							"internalType": "uint256",
							"name": "shares",
							"type": "uint256"
						}
					],
					"name": "previewRedeem",
					"outputs": [
						{
							"internalType": "uint256",
							"name": "",
							"type": "uint256"
						}
					],
					"stateMutability": "view",
					"type": "function"
				},
				{
					"inputs": [
						{
							"internalType": "uint256",
							"name": "assets",
							"type": "uint256"
						}
					],
					"name": "previewWithdraw",
					"outputs": [
						{
							"internalType": "uint256",
							"name": "",
							"type": "uint256"
						}
					],
					"stateMutability": "view",
					"type": "function"
				},
				{
					"inputs": [
						{
							"internalType": "uint256",
							"name": "shares",
							"type": "uint256"
						},
						{
							"internalType": "address",
							"name": "receiver",
							"type": "address"
						},
						{
							"internalType": "address",
							"name": "owner",
							"type": "address"
						}
					],
					"name": "redeem",
					"outputs": [
						{
							"internalType": "uint256",
							"name": "",
							"type": "uint256"
						}
					],
					"stateMutability": "nonpayable",
					"type": "function"
				},
				{
					"inputs": [
						{
							"internalType": "uint256",
							"name": "newBaseYieldRate",
							"type": "uint256"
						}
					],
					"name": "setBaseYieldRate",
					"outputs": [],
					"stateMutability": "nonpayable",
					"type": "function"
				},
				{
					"inputs": [],
					"name": "symbol",
					"outputs": [
						{
							"internalType": "string",
							"name": "",
							"type": "string"
						}
					],
					"stateMutability": "view",
					"type": "function"
				},
				{
					"inputs": [],
					"name": "totalAssets",
					"outputs": [
						{
							"internalType": "uint256",
							"name": "",
							"type": "uint256"
						}
					],
					"stateMutability": "view",
					"type": "function"
				},
				{
					"inputs": [],
					"name": "totalSupply",
					"outputs": [
						{
							"internalType": "uint256",
							"name": "",
							"type": "uint256"
						}
					],
					"stateMutability": "view",
					"type": "function"
				},
				{
					"inputs": [
						{
							"internalType": "address",
							"name": "to",
							"type": "address"
						},
						{
							"internalType": "uint256",
							"name": "value",
							"type": "uint256"
						}
					],
					"name": "transfer",
					"outputs": [
						{
							"internalType": "bool",
							"name": "",
							"type": "bool"
						}
					],
					"stateMutability": "nonpayable",
					"type": "function"
				},
				{
					"inputs": [
						{
							"internalType": "address",
							"name": "from",
							"type": "address"
						},
						{
							"internalType": "address",
							"name": "to",
							"type": "address"
						},
						{
							"internalType": "uint256",
							"name": "value",
							"type": "uint256"
						}
					],
					"name": "transferFrom",
					"outputs": [
						{
							"internalType": "bool",
							"name": "",
							"type": "bool"
						}
					],
					"stateMutability": "nonpayable",
					"type": "function"
				},
				{
					"inputs": [
						{
							"internalType": "uint256",
							"name": "assets",
							"type": "uint256"
						},
						{
							"internalType": "address",
							"name": "receiver",
							"type": "address"
						},
						{
							"internalType": "address",
							"name": "owner",
							"type": "address"
						}
					],
					"name": "withdraw",
					"outputs": [
						{
							"internalType": "uint256",
							"name": "shares",
							"type": "uint256"
						}
					],
					"stateMutability": "nonpayable",
					"type": "function"
				}
			],
			"devdoc": {
				"errors": {
					"AddressEmptyCode(address)": [
						{
							"details": "There's no code at `target` (it is not a contract)."
						}
					],
					"AddressInsufficientBalance(address)": [
						{
							"details": "The ETH balance of the account is not enough to perform the operation."
						}
					],
					"ERC20InsufficientAllowance(address,uint256,uint256)": [
						{
							"details": "Indicates a failure with the `spender`’s `allowance`. Used in transfers.",
							"params": {
								"allowance": "Amount of tokens a `spender` is allowed to operate with.",
								"needed": "Minimum amount required to perform a transfer.",
								"spender": "Address that may be allowed to operate on tokens without being their owner."
							}
						}
					],
					"ERC20InsufficientBalance(address,uint256,uint256)": [
						{
							"details": "Indicates an error related to the current `balance` of a `sender`. Used in transfers.",
							"params": {
								"balance": "Current balance for the interacting account.",
								"needed": "Minimum amount required to perform a transfer.",
								"sender": "Address whose tokens are being transferred."
							}
						}
					],
					"ERC20InvalidApprover(address)": [
						{
							"details": "Indicates a failure with the `approver` of a token to be approved. Used in approvals.",
							"params": {
								"approver": "Address initiating an approval operation."
							}
						}
					],
					"ERC20InvalidReceiver(address)": [
						{
							"details": "Indicates a failure with the token `receiver`. Used in transfers.",
							"params": {
								"receiver": "Address to which tokens are being transferred."
							}
						}
					],
					"ERC20InvalidSender(address)": [
						{
							"details": "Indicates a failure with the token `sender`. Used in transfers.",
							"params": {
								"sender": "Address whose tokens are being transferred."
							}
						}
					],
					"ERC20InvalidSpender(address)": [
						{
							"details": "Indicates a failure with the `spender` to be approved. Used in approvals.",
							"params": {
								"spender": "Address that may be allowed to operate on tokens without being their owner."
							}
						}
					],
					"ERC4626ExceededMaxDeposit(address,uint256,uint256)": [
						{
							"details": "Attempted to deposit more assets than the max amount for `receiver`."
						}
					],
					"ERC4626ExceededMaxMint(address,uint256,uint256)": [
						{
							"details": "Attempted to mint more shares than the max amount for `receiver`."
						}
					],
					"ERC4626ExceededMaxRedeem(address,uint256,uint256)": [
						{
							"details": "Attempted to redeem more shares than the max amount for `receiver`."
						}
					],
					"ERC4626ExceededMaxWithdraw(address,uint256,uint256)": [
						{
							"details": "Attempted to withdraw more assets than the max amount for `receiver`."
						}
					],
					"FailedInnerCall()": [
						{
							"details": "A call to an address target failed. The target may have reverted."
						}
					],
					"MathOverflowedMulDiv()": [
						{
							"details": "Muldiv operation overflow."
						}
					],
					"SafeERC20FailedOperation(address)": [
						{
							"details": "An operation with an ERC20 token failed."
						}
					]
				},
				"events": {
					"Approval(address,address,uint256)": {
						"details": "Emitted when the allowance of a `spender` for an `owner` is set by a call to {approve}. `value` is the new allowance."
					},
					"Transfer(address,address,uint256)": {
						"details": "Emitted when `value` tokens are moved from one account (`from`) to another (`to`). Note that `value` may be zero."
					}
				},
				"kind": "dev",
				"methods": {
					"allowance(address,address)": {
						"details": "See {IERC20-allowance}."
					},
					"approve(address,uint256)": {
						"details": "See {IERC20-approve}. NOTE: If `value` is the maximum `uint256`, the allowance is not updated on `transferFrom`. This is semantically equivalent to an infinite approval. Requirements: - `spender` cannot be the zero address."
					},
					"asset()": {
						"details": "See {IERC4626-asset}. "
					},
					"balanceOf(address)": {
						"details": "See {IERC20-balanceOf}."
					},
					"convertToAssets(uint256)": {
						"details": "See {IERC4626-convertToAssets}. "
					},
					"convertToShares(uint256)": {
						"details": "See {IERC4626-convertToShares}. "
					},
					"decimals()": {
						"details": "Decimals are computed by adding the decimal offset on top of the underlying asset's decimals. This \"original\" value is cached during construction of the vault contract. If this read operation fails (e.g., the asset has not been created yet), a default of 18 is used to represent the underlying asset's decimals. See {IERC20Metadata-decimals}."
					},
					"deposit(uint256,address)": {
						"details": "See {IERC4626-deposit}. "
					},
					"maxDeposit(address)": {
						"details": "See {IERC4626-maxDeposit}. "
					},
					"maxMint(address)": {
						"details": "See {IERC4626-maxMint}. "
					},
					"maxRedeem(address)": {
						"details": "See {IERC4626-maxRedeem}. "
					},
					"maxWithdraw(address)": {
						"details": "See {IERC4626-maxWithdraw}. "
					},
					"mint(uint256,address)": {
						"details": "See {IERC4626-mint}. As opposed to {deposit}, minting is allowed even if the vault is in a state where the price of a share is zero. In this case, the shares will be minted without requiring any assets to be deposited."
					},
					"name()": {
						"details": "Returns the name of the token."
					},
					"previewDeposit(uint256)": {
						"details": "See {IERC4626-previewDeposit}. "
					},
					"previewMint(uint256)": {
						"details": "See {IERC4626-previewMint}. "
					},
					"previewRedeem(uint256)": {
						"details": "See {IERC4626-previewRedeem}. "
					},
					"previewWithdraw(uint256)": {
						"details": "See {IERC4626-previewWithdraw}. "
					},
					"redeem(uint256,address,address)": {
						"details": "See {IERC4626-redeem}. "
					},
					"symbol()": {
						"details": "Returns the symbol of the token, usually a shorter version of the name."
					},
					"totalAssets()": {
						"details": "See {IERC4626-totalAssets}. "
					},
					"totalSupply()": {
						"details": "See {IERC20-totalSupply}."
					},
					"transfer(address,uint256)": {
						"details": "See {IERC20-transfer}. Requirements: - `to` cannot be the zero address. - the caller must have a balance of at least `value`."
					},
					"transferFrom(address,address,uint256)": {
						"details": "See {IERC20-transferFrom}. Emits an {Approval} event indicating the updated allowance. This is not required by the EIP. See the note at the beginning of {ERC20}. NOTE: Does not update the allowance if the current allowance is the maximum `uint256`. Requirements: - `from` and `to` cannot be the zero address. - `from` must have a balance of at least `value`. - the caller must have allowance for ``from``'s tokens of at least `value`."
					},
					"withdraw(uint256,address,address)": {
						"details": "See {IERC4626-withdraw}. "
					}
				},
				"version": 1
			},
			"evm": {
				"assembly": "    /* \"contracts/protocol/TuliaVault.sol\":381:2433  contract TuliaVault is ERC4626, ReentrancyGuard {... */\n  mstore(0x40, 0xc0)\n    /* \"contracts/protocol/TuliaVault.sol\":569:570  2 */\n  0x02\n    /* \"contracts/protocol/TuliaVault.sol\":538:570  uint256 public baseYieldRate = 2 */\n  0x07\n  sstore\n    /* \"contracts/protocol/TuliaVault.sol\":802:987  constructor(IERC20 asset, string memory name, string memory symbol)... */\n  callvalue\n  dup1\n  iszero\n  tag_1\n  jumpi\n  0x00\n  dup1\n  revert\ntag_1:\n  pop\n  mload(0x40)\n  sub(codesize, bytecodeSize)\n  dup1\n  bytecodeSize\n  dup4\n  codecopy\n  dup2\n  add\n  0x40\n  dup2\n  swap1\n  mstore\n  tag_2\n  swap2\n  tag_3\n  jump\t// in\ntag_2:\n    /* \"contracts/protocol/TuliaVault.sol\":887:892  asset */\n  dup3\n    /* \"contracts/protocol/TuliaVault.sol\":909:913  name */\n  dup3\n    /* \"contracts/protocol/TuliaVault.sol\":915:921  symbol */\n  dup3\n    /* \"@openzeppelin/contracts/token/ERC20/ERC20.sol\":1962:1967  _name */\n  0x03\n    /* \"@openzeppelin/contracts/token/ERC20/ERC20.sol\":1962:1975  _name = name_ */\n  tag_9\n    /* \"contracts/protocol/TuliaVault.sol\":909:913  name */\n  dup4\n    /* \"@openzeppelin/contracts/token/ERC20/ERC20.sol\":1962:1967  _name */\n  dup3\n    /* \"@openzeppelin/contracts/token/ERC20/ERC20.sol\":1962:1975  _name = name_ */\n  tag_10\n  jump\t// in\ntag_9:\n  pop\n    /* \"@openzeppelin/contracts/token/ERC20/ERC20.sol\":1985:1992  _symbol */\n  0x04\n    /* \"@openzeppelin/contracts/token/ERC20/ERC20.sol\":1985:2002  _symbol = symbol_ */\n  tag_11\n    /* \"@openzeppelin/contracts/token/ERC20/ERC20.sol\":1995:2002  symbol_ */\n  dup3\n    /* \"@openzeppelin/contracts/token/ERC20/ERC20.sol\":1985:1992  _symbol */\n  dup3\n    /* \"@openzeppelin/contracts/token/ERC20/ERC20.sol\":1985:2002  _symbol = symbol_ */\n  tag_10\n  jump\t// in\ntag_11:\n  pop\n    /* \"@openzeppelin/contracts/token/ERC20/ERC20.sol\":1896:2009  constructor(string memory name_, string memory symbol_) {... */\n  pop\n  pop\n    /* \"@openzeppelin/contracts/token/ERC20/extensions/ERC4626.sol\":4203:4215  bool success */\n  0x00\n    /* \"@openzeppelin/contracts/token/ERC20/extensions/ERC4626.sol\":4217:4236  uint8 assetDecimals */\n  dup1\n    /* \"@openzeppelin/contracts/token/ERC20/extensions/ERC4626.sol\":4240:4268  _tryGetAssetDecimals(asset_) */\n  tag_13\n    /* \"@openzeppelin/contracts/token/ERC20/extensions/ERC4626.sol\":4261:4267  asset_ */\n  dup4\n    /* \"@openzeppelin/contracts/token/ERC20/extensions/ERC4626.sol\":4240:4260  _tryGetAssetDecimals */\n  shl(0x20, tag_14)\n    /* \"@openzeppelin/contracts/token/ERC20/extensions/ERC4626.sol\":4240:4268  _tryGetAssetDecimals(asset_) */\n  0x20\n  shr\n  jump\t// in\ntag_13:\n    /* \"@openzeppelin/contracts/token/ERC20/extensions/ERC4626.sol\":4202:4268  (bool success, uint8 assetDecimals) = _tryGetAssetDecimals(asset_) */\n  swap2\n  pop\n  swap2\n  pop\n    /* \"@openzeppelin/contracts/token/ERC20/extensions/ERC4626.sol\":4300:4307  success */\n  dup2\n    /* \"@openzeppelin/contracts/token/ERC20/extensions/ERC4626.sol\":4300:4328  success ? assetDecimals : 18 */\n  tag_15\n  jumpi\n    /* \"@openzeppelin/contracts/token/ERC20/extensions/ERC4626.sol\":4326:4328  18 */\n  0x12\n    /* \"@openzeppelin/contracts/token/ERC20/extensions/ERC4626.sol\":4300:4328  success ? assetDecimals : 18 */\n  jump(tag_16)\ntag_15:\n    /* \"@openzeppelin/contracts/token/ERC20/extensions/ERC4626.sol\":4310:4323  assetDecimals */\n  dup1\n    /* \"@openzeppelin/contracts/token/ERC20/extensions/ERC4626.sol\":4300:4328  success ? assetDecimals : 18 */\ntag_16:\n    /* \"@openzeppelin/contracts/token/ERC20/extensions/ERC4626.sol\":4278:4328  _underlyingDecimals = success ? assetDecimals : 18 */\n  0xff\n  and\n  0xa0\n  mstore\n  pop\n  pop\n  sub(shl(0xa0, 0x01), 0x01)\n    /* \"@openzeppelin/contracts/token/ERC20/extensions/ERC4626.sol\":4338:4353  _asset = asset_ */\n  and\n  0x80\n  mstore\n  pop\n  pop\n    /* \"@openzeppelin/contracts/security/ReentrancyGuard.sol\":1716:1717  1 */\n  0x01\n    /* \"@openzeppelin/contracts/security/ReentrancyGuard.sol\":1821:1828  _status */\n  0x05\n    /* \"@openzeppelin/contracts/security/ReentrancyGuard.sol\":1821:1843  _status = _NOT_ENTERED */\n  sstore\n  pop\n    /* \"contracts/protocol/TuliaVault.sol\":964:979  block.timestamp */\n  timestamp\n    /* \"contracts/protocol/TuliaVault.sol\":941:961  lastYieldAccrualTime */\n  0x06\n    /* \"contracts/protocol/TuliaVault.sol\":941:979  lastYieldAccrualTime = block.timestamp */\n  sstore\n    /* \"contracts/protocol/TuliaVault.sol\":381:2433  contract TuliaVault is ERC4626, ReentrancyGuard {... */\n  jump(tag_37)\n    /* \"@openzeppelin/contracts/token/ERC20/extensions/ERC4626.sol\":4503:5036  function _tryGetAssetDecimals(IERC20 asset_) private view returns (bool, uint8) {... */\ntag_14:\n    /* \"@openzeppelin/contracts/token/ERC20/extensions/ERC4626.sol\":4680:4723  abi.encodeCall(IERC20Metadata.decimals, ()) */\n  0x40\n  dup1\n  mload\n  0x04\n  dup2\n  mstore\n  0x24\n  dup2\n  add\n  dup3\n  mstore\n  0x20\n  dup2\n  add\n  dup1\n  mload\n  sub(shl(0xe0, 0x01), 0x01)\n  and\n  shl(0xe0, 0x313ce567)\n  or\n  swap1\n  mstore\n    /* \"@openzeppelin/contracts/token/ERC20/extensions/ERC4626.sol\":4640:4733  address(asset_).staticcall(... */\n  swap1\n  mload\n    /* \"@openzeppelin/contracts/token/ERC20/extensions/ERC4626.sol\":4570:4574  bool */\n  0x00\n  swap2\n  dup3\n  swap2\n  dup3\n  swap2\n  dup3\n  swap2\n  sub(shl(0xa0, 0x01), 0x01)\n    /* \"@openzeppelin/contracts/token/ERC20/extensions/ERC4626.sol\":4640:4666  address(asset_).staticcall */\n  dup8\n  and\n  swap2\n    /* \"@openzeppelin/contracts/token/ERC20/extensions/ERC4626.sol\":4640:4733  address(asset_).staticcall(... */\n  tag_21\n  swap2\n  tag_22\n  jump\t// in\ntag_21:\n  0x00\n  mload(0x40)\n  dup1\n  dup4\n  sub\n  dup2\n  dup6\n  gas\n  staticcall\n  swap2\n  pop\n  pop\n  returndatasize\n  dup1\n  0x00\n  dup2\n  eq\n  tag_25\n  jumpi\n  mload(0x40)\n  swap2\n  pop\n  and(add(returndatasize, 0x3f), not(0x1f))\n  dup3\n  add\n  0x40\n  mstore\n  returndatasize\n  dup3\n  mstore\n  returndatasize\n  0x00\n  0x20\n  dup5\n  add\n  returndatacopy\n  jump(tag_24)\ntag_25:\n  0x60\n  swap2\n  pop\ntag_24:\n  pop\n    /* \"@openzeppelin/contracts/token/ERC20/extensions/ERC4626.sol\":4593:4733  (bool success, bytes memory encodedDecimals) = address(asset_).staticcall(... */\n  swap2\n  pop\n  swap2\n  pop\n    /* \"@openzeppelin/contracts/token/ERC20/extensions/ERC4626.sol\":4747:4754  success */\n  dup2\n    /* \"@openzeppelin/contracts/token/ERC20/extensions/ERC4626.sol\":4747:4786  success && encodedDecimals.length >= 32 */\n  dup1\n  iszero\n  tag_26\n  jumpi\n  pop\n    /* \"@openzeppelin/contracts/token/ERC20/extensions/ERC4626.sol\":4784:4786  32 */\n  0x20\n    /* \"@openzeppelin/contracts/token/ERC20/extensions/ERC4626.sol\":4758:4773  encodedDecimals */\n  dup2\n    /* \"@openzeppelin/contracts/token/ERC20/extensions/ERC4626.sol\":4758:4780  encodedDecimals.length */\n  mload\n    /* \"@openzeppelin/contracts/token/ERC20/extensions/ERC4626.sol\":4758:4786  encodedDecimals.length >= 32 */\n  lt\n  iszero\n    /* \"@openzeppelin/contracts/token/ERC20/extensions/ERC4626.sol\":4747:4786  success && encodedDecimals.length >= 32 */\ntag_26:\n    /* \"@openzeppelin/contracts/token/ERC20/extensions/ERC4626.sol\":4743:5003  if (success && encodedDecimals.length >= 32) {... */\n  iszero\n  tag_27\n  jumpi\n    /* \"@openzeppelin/contracts/token/ERC20/extensions/ERC4626.sol\":4802:4826  uint256 returnedDecimals */\n  0x00\n    /* \"@openzeppelin/contracts/token/ERC20/extensions/ERC4626.sol\":4840:4855  encodedDecimals */\n  dup2\n    /* \"@openzeppelin/contracts/token/ERC20/extensions/ERC4626.sol\":4829:4867  abi.decode(encodedDecimals, (uint256)) */\n  dup1\n  0x20\n  add\n  swap1\n  mload\n  dup2\n  add\n  swap1\n  tag_28\n  swap2\n  swap1\n  tag_29\n  jump\t// in\ntag_28:\n    /* \"@openzeppelin/contracts/token/ERC20/extensions/ERC4626.sol\":4802:4867  uint256 returnedDecimals = abi.decode(encodedDecimals, (uint256)) */\n  swap1\n  pop\n    /* \"@openzeppelin/contracts/token/ERC20/extensions/ERC4626.sol\":4905:4920  type(uint8).max */\n  0xff\n    /* \"@openzeppelin/contracts/token/ERC20/extensions/ERC4626.sol\":4885:4920  returnedDecimals <= type(uint8).max */\n  dup2\n  gt\n    /* \"@openzeppelin/contracts/token/ERC20/extensions/ERC4626.sol\":4881:4993  if (returnedDecimals <= type(uint8).max) {... */\n  tag_30\n  jumpi\n    /* \"@openzeppelin/contracts/token/ERC20/extensions/ERC4626.sol\":4948:4952  true */\n  0x01\n  swap7\n    /* \"@openzeppelin/contracts/token/ERC20/extensions/ERC4626.sol\":4960:4976  returnedDecimals */\n  swap1\n  swap6\n  pop\n    /* \"@openzeppelin/contracts/token/ERC20/extensions/ERC4626.sol\":4503:5036  function _tryGetAssetDecimals(IERC20 asset_) private view returns (bool, uint8) {... */\n  swap4\n  pop\n  pop\n  pop\n  pop\n  jump\t// out\n    /* \"@openzeppelin/contracts/token/ERC20/extensions/ERC4626.sol\":4881:4993  if (returnedDecimals <= type(uint8).max) {... */\ntag_30:\n    /* \"@openzeppelin/contracts/token/ERC20/extensions/ERC4626.sol\":4788:5003  {... */\n  pop\n    /* \"@openzeppelin/contracts/token/ERC20/extensions/ERC4626.sol\":4743:5003  if (success && encodedDecimals.length >= 32) {... */\ntag_27:\n  pop\n    /* \"@openzeppelin/contracts/token/ERC20/extensions/ERC4626.sol\":5020:5025  false */\n  0x00\n  swap5\n  dup6\n  swap5\n  pop\n    /* \"@openzeppelin/contracts/token/ERC20/extensions/ERC4626.sol\":4503:5036  function _tryGetAssetDecimals(IERC20 asset_) private view returns (bool, uint8) {... */\n  swap3\n  pop\n  pop\n  pop\n  jump\t// out\n    /* \"#utility.yul\":14:141   */\ntag_31:\n    /* \"#utility.yul\":75:85   */\n  0x4e487b71\n    /* \"#utility.yul\":70:73   */\n  0xe0\n    /* \"#utility.yul\":66:86   */\n  shl\n    /* \"#utility.yul\":63:64   */\n  0x00\n    /* \"#utility.yul\":56:87   */\n  mstore\n    /* \"#utility.yul\":106:110   */\n  0x41\n    /* \"#utility.yul\":103:104   */\n  0x04\n    /* \"#utility.yul\":96:111   */\n  mstore\n    /* \"#utility.yul\":130:134   */\n  0x24\n    /* \"#utility.yul\":127:128   */\n  0x00\n    /* \"#utility.yul\":120:135   */\n  revert\n    /* \"#utility.yul\":146:862   */\ntag_32:\n    /* \"#utility.yul\":200:205   */\n  0x00\n    /* \"#utility.yul\":253:256   */\n  dup3\n    /* \"#utility.yul\":246:250   */\n  0x1f\n    /* \"#utility.yul\":238:244   */\n  dup4\n    /* \"#utility.yul\":234:251   */\n  add\n    /* \"#utility.yul\":230:257   */\n  slt\n    /* \"#utility.yul\":220:275   */\n  tag_40\n  jumpi\n    /* \"#utility.yul\":271:272   */\n  0x00\n    /* \"#utility.yul\":268:269   */\n  dup1\n    /* \"#utility.yul\":261:273   */\n  revert\n    /* \"#utility.yul\":220:275   */\ntag_40:\n    /* \"#utility.yul\":294:307   */\n  dup2\n  mload\n  sub(shl(0x40, 0x01), 0x01)\n    /* \"#utility.yul\":356:366   */\n  dup1\n  dup3\n  gt\n    /* \"#utility.yul\":353:389   */\n  iszero\n  tag_42\n  jumpi\n    /* \"#utility.yul\":369:387   */\n  tag_42\n  tag_31\n  jump\t// in\ntag_42:\n    /* \"#utility.yul\":444:446   */\n  0x40\n    /* \"#utility.yul\":438:447   */\n  mload\n    /* \"#utility.yul\":412:414   */\n  0x1f\n    /* \"#utility.yul\":498:511   */\n  dup4\n  add\n  not(0x1f)\n    /* \"#utility.yul\":494:516   */\n  swap1\n  dup2\n  and\n    /* \"#utility.yul\":518:520   */\n  0x3f\n    /* \"#utility.yul\":490:521   */\n  add\n    /* \"#utility.yul\":486:526   */\n  and\n    /* \"#utility.yul\":474:527   */\n  dup2\n  add\n  swap1\n    /* \"#utility.yul\":542:560   */\n  dup3\n  dup3\n  gt\n    /* \"#utility.yul\":562:584   */\n  dup2\n  dup4\n  lt\n    /* \"#utility.yul\":539:585   */\n  or\n    /* \"#utility.yul\":536:608   */\n  iszero\n  tag_44\n  jumpi\n    /* \"#utility.yul\":588:606   */\n  tag_44\n  tag_31\n  jump\t// in\ntag_44:\n    /* \"#utility.yul\":628:638   */\n  dup2\n    /* \"#utility.yul\":624:626   */\n  0x40\n    /* \"#utility.yul\":617:639   */\n  mstore\n    /* \"#utility.yul\":663:665   */\n  dup4\n    /* \"#utility.yul\":655:661   */\n  dup2\n    /* \"#utility.yul\":648:666   */\n  mstore\n    /* \"#utility.yul\":709:712   */\n  dup7\n    /* \"#utility.yul\":702:706   */\n  0x20\n    /* \"#utility.yul\":697:699   */\n  dup6\n    /* \"#utility.yul\":689:695   */\n  dup9\n    /* \"#utility.yul\":685:700   */\n  add\n    /* \"#utility.yul\":681:707   */\n  add\n    /* \"#utility.yul\":678:713   */\n  gt\n    /* \"#utility.yul\":675:730   */\n  iszero\n  tag_45\n  jumpi\n    /* \"#utility.yul\":726:727   */\n  0x00\n    /* \"#utility.yul\":723:724   */\n  dup1\n    /* \"#utility.yul\":716:728   */\n  revert\n    /* \"#utility.yul\":675:730   */\ntag_45:\n    /* \"#utility.yul\":783:785   */\n  dup4\n    /* \"#utility.yul\":776:780   */\n  0x20\n    /* \"#utility.yul\":768:774   */\n  dup8\n    /* \"#utility.yul\":764:781   */\n  add\n    /* \"#utility.yul\":757:761   */\n  0x20\n    /* \"#utility.yul\":749:755   */\n  dup4\n    /* \"#utility.yul\":745:762   */\n  add\n    /* \"#utility.yul\":739:786   */\n  mcopy\n    /* \"#utility.yul\":830:831   */\n  0x00\n    /* \"#utility.yul\":823:827   */\n  0x20\n    /* \"#utility.yul\":818:820   */\n  dup6\n    /* \"#utility.yul\":810:816   */\n  dup4\n    /* \"#utility.yul\":806:821   */\n  add\n    /* \"#utility.yul\":802:828   */\n  add\n    /* \"#utility.yul\":795:832   */\n  mstore\n    /* \"#utility.yul\":850:856   */\n  dup1\n    /* \"#utility.yul\":841:856   */\n  swap5\n  pop\n  pop\n  pop\n  pop\n  pop\n    /* \"#utility.yul\":146:862   */\n  swap3\n  swap2\n  pop\n  pop\n  jump\t// out\n    /* \"#utility.yul\":867:1610   */\ntag_3:\n    /* \"#utility.yul\":989:995   */\n  0x00\n    /* \"#utility.yul\":997:1003   */\n  dup1\n    /* \"#utility.yul\":1005:1011   */\n  0x00\n    /* \"#utility.yul\":1058:1060   */\n  0x60\n    /* \"#utility.yul\":1046:1055   */\n  dup5\n    /* \"#utility.yul\":1037:1044   */\n  dup7\n    /* \"#utility.yul\":1033:1056   */\n  sub\n    /* \"#utility.yul\":1029:1061   */\n  slt\n    /* \"#utility.yul\":1026:1078   */\n  iszero\n  tag_47\n  jumpi\n    /* \"#utility.yul\":1074:1075   */\n  0x00\n    /* \"#utility.yul\":1071:1072   */\n  dup1\n    /* \"#utility.yul\":1064:1076   */\n  revert\n    /* \"#utility.yul\":1026:1078   */\ntag_47:\n    /* \"#utility.yul\":1100:1116   */\n  dup4\n  mload\n  sub(shl(0xa0, 0x01), 0x01)\n    /* \"#utility.yul\":1145:1176   */\n  dup2\n  and\n    /* \"#utility.yul\":1135:1177   */\n  dup2\n  eq\n    /* \"#utility.yul\":1125:1195   */\n  tag_48\n  jumpi\n    /* \"#utility.yul\":1191:1192   */\n  0x00\n    /* \"#utility.yul\":1188:1189   */\n  dup1\n    /* \"#utility.yul\":1181:1193   */\n  revert\n    /* \"#utility.yul\":1125:1195   */\ntag_48:\n    /* \"#utility.yul\":1263:1265   */\n  0x20\n    /* \"#utility.yul\":1248:1266   */\n  dup6\n  add\n    /* \"#utility.yul\":1242:1267   */\n  mload\n    /* \"#utility.yul\":1214:1219   */\n  swap1\n  swap4\n  pop\n  sub(shl(0x40, 0x01), 0x01)\n    /* \"#utility.yul\":1316:1330   */\n  dup1\n  dup3\n  gt\n    /* \"#utility.yul\":1313:1347   */\n  iszero\n  tag_49\n  jumpi\n    /* \"#utility.yul\":1343:1344   */\n  0x00\n    /* \"#utility.yul\":1340:1341   */\n  dup1\n    /* \"#utility.yul\":1333:1345   */\n  revert\n    /* \"#utility.yul\":1313:1347   */\ntag_49:\n    /* \"#utility.yul\":1366:1427   */\n  tag_50\n    /* \"#utility.yul\":1419:1426   */\n  dup8\n    /* \"#utility.yul\":1410:1416   */\n  dup4\n    /* \"#utility.yul\":1399:1408   */\n  dup9\n    /* \"#utility.yul\":1395:1417   */\n  add\n    /* \"#utility.yul\":1366:1427   */\n  tag_32\n  jump\t// in\ntag_50:\n    /* \"#utility.yul\":1356:1427   */\n  swap4\n  pop\n    /* \"#utility.yul\":1473:1475   */\n  0x40\n    /* \"#utility.yul\":1462:1471   */\n  dup7\n    /* \"#utility.yul\":1458:1476   */\n  add\n    /* \"#utility.yul\":1452:1477   */\n  mload\n    /* \"#utility.yul\":1436:1477   */\n  swap2\n  pop\n    /* \"#utility.yul\":1502:1504   */\n  dup1\n    /* \"#utility.yul\":1492:1500   */\n  dup3\n    /* \"#utility.yul\":1489:1505   */\n  gt\n    /* \"#utility.yul\":1486:1522   */\n  iszero\n  tag_51\n  jumpi\n    /* \"#utility.yul\":1518:1519   */\n  0x00\n    /* \"#utility.yul\":1515:1516   */\n  dup1\n    /* \"#utility.yul\":1508:1520   */\n  revert\n    /* \"#utility.yul\":1486:1522   */\ntag_51:\n  pop\n    /* \"#utility.yul\":1541:1604   */\n  tag_52\n    /* \"#utility.yul\":1596:1603   */\n  dup7\n    /* \"#utility.yul\":1585:1593   */\n  dup3\n    /* \"#utility.yul\":1574:1583   */\n  dup8\n    /* \"#utility.yul\":1570:1594   */\n  add\n    /* \"#utility.yul\":1541:1604   */\n  tag_32\n  jump\t// in\ntag_52:\n    /* \"#utility.yul\":1531:1604   */\n  swap2\n  pop\n  pop\n    /* \"#utility.yul\":867:1610   */\n  swap3\n  pop\n  swap3\n  pop\n  swap3\n  jump\t// out\n    /* \"#utility.yul\":1615:1995   */\ntag_33:\n    /* \"#utility.yul\":1694:1695   */\n  0x01\n    /* \"#utility.yul\":1690:1702   */\n  dup2\n  dup2\n  shr\n  swap1\n    /* \"#utility.yul\":1737:1749   */\n  dup3\n  and\n  dup1\n    /* \"#utility.yul\":1758:1819   */\n  tag_54\n  jumpi\n    /* \"#utility.yul\":1812:1816   */\n  0x7f\n    /* \"#utility.yul\":1804:1810   */\n  dup3\n    /* \"#utility.yul\":1800:1817   */\n  and\n    /* \"#utility.yul\":1790:1817   */\n  swap2\n  pop\n    /* \"#utility.yul\":1758:1819   */\ntag_54:\n    /* \"#utility.yul\":1865:1867   */\n  0x20\n    /* \"#utility.yul\":1857:1863   */\n  dup3\n    /* \"#utility.yul\":1854:1868   */\n  lt\n    /* \"#utility.yul\":1834:1852   */\n  dup2\n    /* \"#utility.yul\":1831:1869   */\n  sub\n    /* \"#utility.yul\":1828:1989   */\n  tag_55\n  jumpi\n    /* \"#utility.yul\":1911:1921   */\n  0x4e487b71\n    /* \"#utility.yul\":1906:1909   */\n  0xe0\n    /* \"#utility.yul\":1902:1922   */\n  shl\n    /* \"#utility.yul\":1899:1900   */\n  0x00\n    /* \"#utility.yul\":1892:1923   */\n  mstore\n    /* \"#utility.yul\":1946:1950   */\n  0x22\n    /* \"#utility.yul\":1943:1944   */\n  0x04\n    /* \"#utility.yul\":1936:1951   */\n  mstore\n    /* \"#utility.yul\":1974:1978   */\n  0x24\n    /* \"#utility.yul\":1971:1972   */\n  0x00\n    /* \"#utility.yul\":1964:1979   */\n  revert\n    /* \"#utility.yul\":1828:1989   */\ntag_55:\n  pop\n    /* \"#utility.yul\":1615:1995   */\n  swap2\n  swap1\n  pop\n  jump\t// out\n    /* \"#utility.yul\":2126:2644   */\ntag_35:\n    /* \"#utility.yul\":2228:2230   */\n  0x1f\n    /* \"#utility.yul\":2223:2226   */\n  dup3\n    /* \"#utility.yul\":2220:2231   */\n  gt\n    /* \"#utility.yul\":2217:2638   */\n  iszero\n  tag_58\n  jumpi\n    /* \"#utility.yul\":2264:2269   */\n  dup1\n    /* \"#utility.yul\":2261:2262   */\n  0x00\n    /* \"#utility.yul\":2254:2270   */\n  mstore\n    /* \"#utility.yul\":2308:2312   */\n  0x20\n    /* \"#utility.yul\":2305:2306   */\n  0x00\n    /* \"#utility.yul\":2295:2313   */\n  keccak256\n    /* \"#utility.yul\":2378:2380   */\n  0x1f\n    /* \"#utility.yul\":2366:2376   */\n  dup5\n    /* \"#utility.yul\":2362:2381   */\n  add\n    /* \"#utility.yul\":2359:2360   */\n  0x05\n    /* \"#utility.yul\":2355:2382   */\n  shr\n    /* \"#utility.yul\":2349:2353   */\n  dup2\n    /* \"#utility.yul\":2345:2383   */\n  add\n    /* \"#utility.yul\":2414:2418   */\n  0x20\n    /* \"#utility.yul\":2402:2412   */\n  dup6\n    /* \"#utility.yul\":2399:2419   */\n  lt\n    /* \"#utility.yul\":2396:2443   */\n  iszero\n  tag_59\n  jumpi\n  pop\n    /* \"#utility.yul\":2437:2441   */\n  dup1\n    /* \"#utility.yul\":2396:2443   */\ntag_59:\n    /* \"#utility.yul\":2492:2494   */\n  0x1f\n    /* \"#utility.yul\":2487:2490   */\n  dup5\n    /* \"#utility.yul\":2483:2495   */\n  add\n    /* \"#utility.yul\":2480:2481   */\n  0x05\n    /* \"#utility.yul\":2476:2496   */\n  shr\n    /* \"#utility.yul\":2470:2474   */\n  dup3\n    /* \"#utility.yul\":2466:2497   */\n  add\n    /* \"#utility.yul\":2456:2497   */\n  swap2\n  pop\n    /* \"#utility.yul\":2547:2628   */\ntag_60:\n    /* \"#utility.yul\":2565:2567   */\n  dup2\n    /* \"#utility.yul\":2558:2563   */\n  dup2\n    /* \"#utility.yul\":2555:2568   */\n  lt\n    /* \"#utility.yul\":2547:2628   */\n  iszero\n  tag_62\n  jumpi\n    /* \"#utility.yul\":2624:2625   */\n  0x00\n    /* \"#utility.yul\":2610:2626   */\n  dup2\n  sstore\n    /* \"#utility.yul\":2591:2592   */\n  0x01\n    /* \"#utility.yul\":2580:2593   */\n  add\n    /* \"#utility.yul\":2547:2628   */\n  jump(tag_60)\ntag_62:\n    /* \"#utility.yul\":2551:2554   */\n  pop\n  pop\n    /* \"#utility.yul\":2217:2638   */\ntag_58:\n    /* \"#utility.yul\":2126:2644   */\n  pop\n  pop\n  pop\n  jump\t// out\n    /* \"#utility.yul\":2820:4165   */\ntag_10:\n    /* \"#utility.yul\":2940:2950   */\n  dup2\n  mload\n  sub(shl(0x40, 0x01), 0x01)\n    /* \"#utility.yul\":2962:2992   */\n  dup2\n  gt\n    /* \"#utility.yul\":2959:3015   */\n  iszero\n  tag_66\n  jumpi\n    /* \"#utility.yul\":2995:3013   */\n  tag_66\n  tag_31\n  jump\t// in\ntag_66:\n    /* \"#utility.yul\":3024:3121   */\n  tag_67\n    /* \"#utility.yul\":3114:3120   */\n  dup2\n    /* \"#utility.yul\":3074:3112   */\n  tag_68\n    /* \"#utility.yul\":3106:3110   */\n  dup5\n    /* \"#utility.yul\":3100:3111   */\n  sload\n    /* \"#utility.yul\":3074:3112   */\n  tag_33\n  jump\t// in\ntag_68:\n    /* \"#utility.yul\":3068:3072   */\n  dup5\n    /* \"#utility.yul\":3024:3121   */\n  tag_35\n  jump\t// in\ntag_67:\n    /* \"#utility.yul\":3176:3180   */\n  0x20\n  dup1\n    /* \"#utility.yul\":3233:3235   */\n  0x1f\n    /* \"#utility.yul\":3222:3236   */\n  dup4\n  gt\n    /* \"#utility.yul\":3250:3251   */\n  0x01\n    /* \"#utility.yul\":3245:3908   */\n  dup2\n  eq\n  tag_70\n  jumpi\n    /* \"#utility.yul\":3952:3953   */\n  0x00\n    /* \"#utility.yul\":3969:3975   */\n  dup5\n    /* \"#utility.yul\":3966:4055   */\n  iszero\n  tag_71\n  jumpi\n  pop\n    /* \"#utility.yul\":4021:4040   */\n  dup6\n  dup4\n  add\n    /* \"#utility.yul\":4015:4041   */\n  mload\n    /* \"#utility.yul\":3966:4055   */\ntag_71:\n  not(0x00)\n    /* \"#utility.yul\":2777:2778   */\n  0x03\n    /* \"#utility.yul\":2773:2784   */\n  dup7\n  swap1\n  shl\n    /* \"#utility.yul\":2769:2793   */\n  shr\n    /* \"#utility.yul\":2765:2794   */\n  not\n    /* \"#utility.yul\":2755:2795   */\n  and\n    /* \"#utility.yul\":2801:2802   */\n  0x01\n    /* \"#utility.yul\":2797:2808   */\n  dup6\n  swap1\n  shl\n    /* \"#utility.yul\":2752:2809   */\n  or\n    /* \"#utility.yul\":4068:4149   */\n  dup6\n  sstore\n    /* \"#utility.yul\":3215:4159   */\n  jump(tag_69)\n    /* \"#utility.yul\":3245:3908   */\ntag_70:\n    /* \"#utility.yul\":2073:2074   */\n  0x00\n    /* \"#utility.yul\":2066:2080   */\n  dup6\n  dup2\n  mstore\n    /* \"#utility.yul\":2110:2114   */\n  0x20\n    /* \"#utility.yul\":2097:2115   */\n  dup2\n  keccak256\n  not(0x1f)\n    /* \"#utility.yul\":3281:3301   */\n  dup7\n  and\n  swap2\n    /* \"#utility.yul\":3399:3635   */\ntag_74:\n    /* \"#utility.yul\":3413:3420   */\n  dup3\n    /* \"#utility.yul\":3410:3411   */\n  dup2\n    /* \"#utility.yul\":3407:3421   */\n  lt\n    /* \"#utility.yul\":3399:3635   */\n  iszero\n  tag_76\n  jumpi\n    /* \"#utility.yul\":3502:3521   */\n  dup9\n  dup7\n  add\n    /* \"#utility.yul\":3496:3522   */\n  mload\n    /* \"#utility.yul\":3481:3523   */\n  dup3\n  sstore\n    /* \"#utility.yul\":3594:3621   */\n  swap5\n  dup5\n  add\n  swap5\n    /* \"#utility.yul\":3562:3563   */\n  0x01\n    /* \"#utility.yul\":3550:3564   */\n  swap1\n  swap2\n  add\n  swap1\n    /* \"#utility.yul\":3429:3448   */\n  dup5\n  add\n    /* \"#utility.yul\":3399:3635   */\n  jump(tag_74)\ntag_76:\n    /* \"#utility.yul\":3403:3406   */\n  pop\n    /* \"#utility.yul\":3663:3669   */\n  dup6\n    /* \"#utility.yul\":3654:3661   */\n  dup3\n    /* \"#utility.yul\":3651:3670   */\n  lt\n    /* \"#utility.yul\":3648:3849   */\n  iszero\n  tag_77\n  jumpi\n    /* \"#utility.yul\":3724:3743   */\n  dup8\n  dup6\n  add\n    /* \"#utility.yul\":3718:3744   */\n  mload\n  not(0x00)\n    /* \"#utility.yul\":3807:3808   */\n  0x03\n    /* \"#utility.yul\":3803:3817   */\n  dup9\n  swap1\n  shl\n    /* \"#utility.yul\":3819:3822   */\n  0xf8\n    /* \"#utility.yul\":3799:3823   */\n  and\n    /* \"#utility.yul\":3795:3832   */\n  shr\n    /* \"#utility.yul\":3791:3833   */\n  not\n    /* \"#utility.yul\":3776:3834   */\n  and\n    /* \"#utility.yul\":3761:3835   */\n  dup2\n  sstore\n    /* \"#utility.yul\":3648:3849   */\ntag_77:\n  pop\n  pop\n    /* \"#utility.yul\":3895:3896   */\n  0x01\n    /* \"#utility.yul\":3886:3892   */\n  dup5\n    /* \"#utility.yul\":3883:3884   */\n  0x01\n    /* \"#utility.yul\":3879:3893   */\n  shl\n    /* \"#utility.yul\":3875:3897   */\n  add\n    /* \"#utility.yul\":3869:3873   */\n  dup6\n    /* \"#utility.yul\":3862:3898   */\n  sstore\n    /* \"#utility.yul\":3215:4159   */\ntag_69:\n  pop\n  pop\n  pop\n  pop\n    /* \"#utility.yul\":2820:4165   */\n  pop\n  pop\n  jump\t// out\n    /* \"#utility.yul\":4170:4471   */\ntag_22:\n    /* \"#utility.yul\":4299:4302   */\n  0x00\n    /* \"#utility.yul\":4337:4343   */\n  dup3\n    /* \"#utility.yul\":4331:4344   */\n  mload\n    /* \"#utility.yul\":4383:4389   */\n  dup1\n    /* \"#utility.yul\":4376:4380   */\n  0x20\n    /* \"#utility.yul\":4368:4374   */\n  dup6\n    /* \"#utility.yul\":4364:4381   */\n  add\n    /* \"#utility.yul\":4359:4362   */\n  dup5\n    /* \"#utility.yul\":4353:4390   */\n  mcopy\n    /* \"#utility.yul\":4445:4446   */\n  0x00\n    /* \"#utility.yul\":4409:4425   */\n  swap3\n  add\n    /* \"#utility.yul\":4434:4447   */\n  swap2\n  dup3\n  mstore\n  pop\n    /* \"#utility.yul\":4409:4425   */\n  swap2\n    /* \"#utility.yul\":4170:4471   */\n  swap1\n  pop\n  jump\t// out\n    /* \"#utility.yul\":4476:4660   */\ntag_29:\n    /* \"#utility.yul\":4546:4552   */\n  0x00\n    /* \"#utility.yul\":4599:4601   */\n  0x20\n    /* \"#utility.yul\":4587:4596   */\n  dup3\n    /* \"#utility.yul\":4578:4585   */\n  dup5\n    /* \"#utility.yul\":4574:4597   */\n  sub\n    /* \"#utility.yul\":4570:4602   */\n  slt\n    /* \"#utility.yul\":4567:4619   */\n  iszero\n  tag_80\n  jumpi\n    /* \"#utility.yul\":4615:4616   */\n  0x00\n    /* \"#utility.yul\":4612:4613   */\n  dup1\n    /* \"#utility.yul\":4605:4617   */\n  revert\n    /* \"#utility.yul\":4567:4619   */\ntag_80:\n  pop\n    /* \"#utility.yul\":4638:4654   */\n  mload\n  swap2\n    /* \"#utility.yul\":4476:4660   */\n  swap1\n  pop\n  jump\t// out\ntag_37:\n    /* \"contracts/protocol/TuliaVault.sol\":381:2433  contract TuliaVault is ERC4626, ReentrancyGuard {... */\n  mload(0x80)\n  mload(0xa0)\n  codecopy(0x00, dataOffset(sub_0), dataSize(sub_0))\n  0x00\n  assignImmutable(\"0xc0bf3ddb79e7c5faf09af1eaa09640fae848e430edf7a04658ec05be9ade7aab\")\n  0x00\n  assignImmutable(\"0x57d03f72a618a841c753598d7d2cbcbbd5f43a73c69f9abc886bd29cf4101ea1\")\n  return(0x00, dataSize(sub_0))\nstop\n\nsub_0: assembly {\n        /* \"contracts/protocol/TuliaVault.sol\":381:2433  contract TuliaVault is ERC4626, ReentrancyGuard {... */\n      mstore(0x40, 0x80)\n      callvalue\n      dup1\n      iszero\n      tag_1\n      jumpi\n      0x00\n      dup1\n      revert\n    tag_1:\n      pop\n      jumpi(tag_2, lt(calldatasize, 0x04))\n      shr(0xe0, calldataload(0x00))\n      dup1\n      0x94bf804d\n      gt\n      tag_33\n      jumpi\n      dup1\n      0xc63d75b6\n      gt\n      tag_34\n      jumpi\n      dup1\n      0xdd62ed3e\n      gt\n      tag_35\n      jumpi\n      dup1\n      0xdd62ed3e\n      eq\n      tag_29\n      jumpi\n      dup1\n      0xef8b30f7\n      eq\n      tag_26\n      jumpi\n      dup1\n      0xf266a213\n      eq\n      tag_31\n      jumpi\n      dup1\n      0xfe9e9640\n      eq\n      tag_32\n      jumpi\n      0x00\n      dup1\n      revert\n    tag_35:\n      dup1\n      0xc63d75b6\n      eq\n      tag_12\n      jumpi\n      dup1\n      0xc6e6f592\n      eq\n      tag_26\n      jumpi\n      dup1\n      0xce96cb77\n      eq\n      tag_27\n      jumpi\n      dup1\n      0xd905777e\n      eq\n      tag_28\n      jumpi\n      0x00\n      dup1\n      revert\n    tag_34:\n      dup1\n      0xa9059cbb\n      gt\n      tag_36\n      jumpi\n      dup1\n      0xa9059cbb\n      eq\n      tag_21\n      jumpi\n      dup1\n      0xb3d7f6b9\n      eq\n      tag_22\n      jumpi\n      dup1\n      0xb460af94\n      eq\n      tag_23\n      jumpi\n      dup1\n      0xba087652\n      eq\n      tag_24\n      jumpi\n      0x00\n      dup1\n      revert\n    tag_36:\n      dup1\n      0x94bf804d\n      eq\n      tag_18\n      jumpi\n      dup1\n      0x95d89b41\n      eq\n      tag_19\n      jumpi\n      dup1\n      0xa30f0352\n      eq\n      tag_20\n      jumpi\n      0x00\n      dup1\n      revert\n    tag_33:\n      dup1\n      0x313ce567\n      gt\n      tag_37\n      jumpi\n      dup1\n      0x4cdad506\n      gt\n      tag_38\n      jumpi\n      dup1\n      0x4cdad506\n      eq\n      tag_5\n      jumpi\n      dup1\n      0x6e553f65\n      eq\n      tag_15\n      jumpi\n      dup1\n      0x70a08231\n      eq\n      tag_16\n      jumpi\n      dup1\n      0x81c4d0e6\n      eq\n      tag_17\n      jumpi\n      0x00\n      dup1\n      revert\n    tag_38:\n      dup1\n      0x313ce567\n      eq\n      tag_10\n      jumpi\n      dup1\n      0x38d52e0f\n      eq\n      tag_11\n      jumpi\n      dup1\n      0x402d267d\n      eq\n      tag_12\n      jumpi\n      dup1\n      0x4395eb8e\n      eq\n      tag_13\n      jumpi\n      0x00\n      dup1\n      revert\n    tag_37:\n      dup1\n      0x095ea7b3\n      gt\n      tag_39\n      jumpi\n      dup1\n      0x095ea7b3\n      eq\n      tag_6\n      jumpi\n      dup1\n      0x0a28a477\n      eq\n      tag_7\n      jumpi\n      dup1\n      0x18160ddd\n      eq\n      tag_8\n      jumpi\n      dup1\n      0x23b872dd\n      eq\n      tag_9\n      jumpi\n      0x00\n      dup1\n      revert\n    tag_39:\n      dup1\n      0x01e1d114\n      eq\n      tag_3\n      jumpi\n      dup1\n      0x06fdde03\n      eq\n      tag_4\n      jumpi\n      dup1\n      0x07a2d13a\n      eq\n      tag_5\n      jumpi\n    tag_2:\n      0x00\n      dup1\n      revert\n        /* \"@openzeppelin/contracts/token/ERC20/extensions/ERC4626.sol\":5780:5896  function totalAssets() public view virtual returns (uint256) {... */\n    tag_3:\n      tag_40\n      tag_41\n      jump\t// in\n    tag_40:\n      mload(0x40)\n        /* \"#utility.yul\":160:185   */\n      swap1\n      dup2\n      mstore\n        /* \"#utility.yul\":148:150   */\n      0x20\n        /* \"#utility.yul\":133:151   */\n      add\n        /* \"@openzeppelin/contracts/token/ERC20/extensions/ERC4626.sol\":5780:5896  function totalAssets() public view virtual returns (uint256) {... */\n    tag_42:\n      mload(0x40)\n      dup1\n      swap2\n      sub\n      swap1\n      return\n        /* \"@openzeppelin/contracts/token/ERC20/ERC20.sol\":2074:2163  function name() public view virtual returns (string memory) {... */\n    tag_4:\n      tag_44\n      tag_45\n      jump\t// in\n    tag_44:\n      mload(0x40)\n      tag_42\n      swap2\n      swap1\n      tag_47\n      jump\t// in\n        /* \"@openzeppelin/contracts/token/ERC20/extensions/ERC4626.sol\":6152:6300  function convertToAssets(uint256 shares) public view virtual returns (uint256) {... */\n    tag_5:\n      tag_40\n      tag_49\n      calldatasize\n      0x04\n      tag_50\n      jump\t// in\n    tag_49:\n      tag_51\n      jump\t// in\n        /* \"@openzeppelin/contracts/token/ERC20/ERC20.sol\":4293:4479  function approve(address spender, uint256 value) public virtual returns (bool) {... */\n    tag_6:\n      tag_53\n      tag_54\n      calldatasize\n      0x04\n      tag_55\n      jump\t// in\n    tag_54:\n      tag_56\n      jump\t// in\n    tag_53:\n      mload(0x40)\n        /* \"#utility.yul\":1406:1420   */\n      swap1\n      iszero\n        /* \"#utility.yul\":1399:1421   */\n      iszero\n        /* \"#utility.yul\":1381:1422   */\n      dup2\n      mstore\n        /* \"#utility.yul\":1369:1371   */\n      0x20\n        /* \"#utility.yul\":1354:1372   */\n      add\n        /* \"@openzeppelin/contracts/token/ERC20/ERC20.sol\":4293:4479  function approve(address spender, uint256 value) public virtual returns (bool) {... */\n      tag_42\n        /* \"#utility.yul\":1241:1428   */\n      jump\n        /* \"@openzeppelin/contracts/token/ERC20/extensions/ERC4626.sol\":7418:7565  function previewWithdraw(uint256 assets) public view virtual returns (uint256) {... */\n    tag_7:\n      tag_40\n      tag_60\n      calldatasize\n      0x04\n      tag_50\n      jump\t// in\n    tag_60:\n      tag_61\n      jump\t// in\n        /* \"@openzeppelin/contracts/token/ERC20/ERC20.sol\":3144:3241  function totalSupply() public view virtual returns (uint256) {... */\n    tag_8:\n        /* \"@openzeppelin/contracts/token/ERC20/ERC20.sol\":3222:3234  _totalSupply */\n      sload(0x02)\n        /* \"@openzeppelin/contracts/token/ERC20/ERC20.sol\":3144:3241  function totalSupply() public view virtual returns (uint256) {... */\n      jump(tag_40)\n        /* \"@openzeppelin/contracts/token/ERC20/ERC20.sol\":5039:5283  function transferFrom(address from, address to, uint256 value) public virtual returns (bool) {... */\n    tag_9:\n      tag_53\n      tag_67\n      calldatasize\n      0x04\n      tag_68\n      jump\t// in\n    tag_67:\n      tag_69\n      jump\t// in\n        /* \"@openzeppelin/contracts/token/ERC20/extensions/ERC4626.sol\":5441:5592  function decimals() public view virtual override(IERC20Metadata, ERC20) returns (uint8) {... */\n    tag_10:\n      tag_71\n      tag_72\n      jump\t// in\n    tag_71:\n      mload(0x40)\n        /* \"#utility.yul\":1938:1942   */\n      0xff\n        /* \"#utility.yul\":1926:1943   */\n      swap1\n      swap2\n      and\n        /* \"#utility.yul\":1908:1944   */\n      dup2\n      mstore\n        /* \"#utility.yul\":1896:1898   */\n      0x20\n        /* \"#utility.yul\":1881:1899   */\n      add\n        /* \"@openzeppelin/contracts/token/ERC20/extensions/ERC4626.sol\":5441:5592  function decimals() public view virtual override(IERC20Metadata, ERC20) returns (uint8) {... */\n      tag_42\n        /* \"#utility.yul\":1766:1950   */\n      jump\n        /* \"@openzeppelin/contracts/token/ERC20/extensions/ERC4626.sol\":5636:5730  function asset() public view virtual returns (address) {... */\n    tag_11:\n      mload(0x40)\n      sub(shl(0xa0, 0x01), 0x01)\n        /* \"@openzeppelin/contracts/token/ERC20/extensions/ERC4626.sol\":5716:5722  _asset */\n      immutable(\"0x57d03f72a618a841c753598d7d2cbcbbd5f43a73c69f9abc886bd29cf4101ea1\")\n        /* \"#utility.yul\":2119:2151   */\n      and\n        /* \"#utility.yul\":2101:2152   */\n      dup2\n      mstore\n        /* \"#utility.yul\":2089:2091   */\n      0x20\n        /* \"#utility.yul\":2074:2092   */\n      add\n        /* \"@openzeppelin/contracts/token/ERC20/extensions/ERC4626.sol\":5636:5730  function asset() public view virtual returns (address) {... */\n      tag_42\n        /* \"#utility.yul\":1955:2158   */\n      jump\n        /* \"@openzeppelin/contracts/token/ERC20/extensions/ERC4626.sol\":6349:6457  function maxDeposit(address) public view virtual returns (uint256) {... */\n    tag_12:\n      tag_40\n      tag_80\n      calldatasize\n      0x04\n      tag_81\n      jump\t// in\n    tag_80:\n      pop\n      not(0x00)\n        /* \"@openzeppelin/contracts/token/ERC20/extensions/ERC4626.sol\":6433:6450  type(uint256).max */\n      swap1\n        /* \"@openzeppelin/contracts/token/ERC20/extensions/ERC4626.sol\":6349:6457  function maxDeposit(address) public view virtual returns (uint256) {... */\n      jump\n        /* \"contracts/protocol/TuliaVault.sol\":436:489  uint256 public constant YIELD_ACCRUAL_PERIOD = 1 days */\n    tag_13:\n      tag_40\n        /* \"contracts/protocol/TuliaVault.sol\":483:489  1 days */\n      0x015180\n        /* \"contracts/protocol/TuliaVault.sol\":436:489  uint256 public constant YIELD_ACCRUAL_PERIOD = 1 days */\n      dup2\n      jump\n        /* \"contracts/protocol/TuliaVault.sol\":995:1223  function deposit(uint256 assets, address receiver)... */\n    tag_15:\n      tag_40\n      tag_92\n      calldatasize\n      0x04\n      tag_93\n      jump\t// in\n    tag_92:\n      tag_94\n      jump\t// in\n        /* \"@openzeppelin/contracts/token/ERC20/ERC20.sol\":3299:3415  function balanceOf(address account) public view virtual returns (uint256) {... */\n    tag_16:\n      tag_40\n      tag_97\n      calldatasize\n      0x04\n      tag_81\n      jump\t// in\n    tag_97:\n      sub(shl(0xa0, 0x01), 0x01)\n        /* \"@openzeppelin/contracts/token/ERC20/ERC20.sol\":3390:3408  _balances[account] */\n      and\n        /* \"@openzeppelin/contracts/token/ERC20/ERC20.sol\":3364:3371  uint256 */\n      0x00\n        /* \"@openzeppelin/contracts/token/ERC20/ERC20.sol\":3390:3408  _balances[account] */\n      swap1\n      dup2\n      mstore\n      0x20\n      dup2\n      swap1\n      mstore\n      0x40\n      swap1\n      keccak256\n      sload\n      swap1\n        /* \"@openzeppelin/contracts/token/ERC20/ERC20.sol\":3299:3415  function balanceOf(address account) public view virtual returns (uint256) {... */\n      jump\n        /* \"contracts/protocol/TuliaVault.sol\":1491:1731  function setBaseYieldRate(uint256 newBaseYieldRate)... */\n    tag_17:\n      tag_100\n      tag_101\n      calldatasize\n      0x04\n      tag_50\n      jump\t// in\n    tag_101:\n      tag_102\n      jump\t// in\n    tag_100:\n      stop\n        /* \"@openzeppelin/contracts/token/ERC20/extensions/ERC4626.sol\":8468:8848  function mint(uint256 shares, address receiver) public virtual returns (uint256) {... */\n    tag_18:\n      tag_40\n      tag_104\n      calldatasize\n      0x04\n      tag_93\n      jump\t// in\n    tag_104:\n      tag_105\n      jump\t// in\n        /* \"@openzeppelin/contracts/token/ERC20/ERC20.sol\":2276:2369  function symbol() public view virtual returns (string memory) {... */\n    tag_19:\n      tag_44\n      tag_108\n      jump\t// in\n        /* \"contracts/protocol/TuliaVault.sol\":496:531  uint256 public lastYieldAccrualTime */\n    tag_20:\n      tag_40\n      sload(0x06)\n      dup2\n      jump\n        /* \"@openzeppelin/contracts/token/ERC20/ERC20.sol\":3610:3788  function transfer(address to, uint256 value) public virtual returns (bool) {... */\n    tag_21:\n      tag_53\n      tag_114\n      calldatasize\n      0x04\n      tag_55\n      jump\t// in\n    tag_114:\n      tag_115\n      jump\t// in\n        /* \"@openzeppelin/contracts/token/ERC20/extensions/ERC4626.sol\":7221:7364  function previewMint(uint256 shares) public view virtual returns (uint256) {... */\n    tag_22:\n      tag_40\n      tag_118\n      calldatasize\n      0x04\n      tag_50\n      jump\t// in\n    tag_118:\n      tag_119\n      jump\t// in\n        /* \"contracts/protocol/TuliaVault.sol\":1231:1483  function withdraw(uint256 assets, address receiver, address owner)... */\n    tag_23:\n      tag_40\n      tag_122\n      calldatasize\n      0x04\n      tag_123\n      jump\t// in\n    tag_122:\n      tag_124\n      jump\t// in\n        /* \"@openzeppelin/contracts/token/ERC20/extensions/ERC4626.sol\":9353:9758  function redeem(uint256 shares, address receiver, address owner) public virtual returns (uint256) {... */\n    tag_24:\n      tag_40\n      tag_127\n      calldatasize\n      0x04\n      tag_123\n      jump\t// in\n    tag_127:\n      tag_128\n      jump\t// in\n        /* \"@openzeppelin/contracts/token/ERC20/extensions/ERC4626.sol\":5950:6098  function convertToShares(uint256 assets) public view virtual returns (uint256) {... */\n    tag_26:\n      tag_40\n      tag_135\n      calldatasize\n      0x04\n      tag_50\n      jump\t// in\n    tag_135:\n      tag_136\n      jump\t// in\n        /* \"@openzeppelin/contracts/token/ERC20/extensions/ERC4626.sol\":6658:6811  function maxWithdraw(address owner) public view virtual returns (uint256) {... */\n    tag_27:\n      tag_40\n      tag_139\n      calldatasize\n      0x04\n      tag_81\n      jump\t// in\n    tag_139:\n      tag_140\n      jump\t// in\n        /* \"@openzeppelin/contracts/token/ERC20/extensions/ERC4626.sol\":6859:6971  function maxRedeem(address owner) public view virtual returns (uint256) {... */\n    tag_28:\n      tag_40\n      tag_143\n      calldatasize\n      0x04\n      tag_81\n      jump\t// in\n    tag_143:\n      tag_144\n      jump\t// in\n        /* \"@openzeppelin/contracts/token/ERC20/ERC20.sol\":3846:3986  function allowance(address owner, address spender) public view virtual returns (uint256) {... */\n    tag_29:\n      tag_40\n      tag_147\n      calldatasize\n      0x04\n      tag_148\n      jump\t// in\n    tag_147:\n      sub(shl(0xa0, 0x01), 0x01)\n        /* \"@openzeppelin/contracts/token/ERC20/ERC20.sol\":3952:3970  _allowances[owner] */\n      swap2\n      dup3\n      and\n        /* \"@openzeppelin/contracts/token/ERC20/ERC20.sol\":3926:3933  uint256 */\n      0x00\n        /* \"@openzeppelin/contracts/token/ERC20/ERC20.sol\":3952:3970  _allowances[owner] */\n      swap1\n      dup2\n      mstore\n        /* \"@openzeppelin/contracts/token/ERC20/ERC20.sol\":3952:3963  _allowances */\n      0x01\n        /* \"@openzeppelin/contracts/token/ERC20/ERC20.sol\":3952:3970  _allowances[owner] */\n      0x20\n      swap1\n      dup2\n      mstore\n      0x40\n      dup1\n      dup4\n      keccak256\n        /* \"@openzeppelin/contracts/token/ERC20/ERC20.sol\":3952:3979  _allowances[owner][spender] */\n      swap4\n      swap1\n      swap5\n      and\n      dup3\n      mstore\n      swap2\n      swap1\n      swap2\n      mstore\n      keccak256\n      sload\n      swap1\n        /* \"@openzeppelin/contracts/token/ERC20/ERC20.sol\":3846:3986  function allowance(address owner, address spender) public view virtual returns (uint256) {... */\n      jump\n        /* \"contracts/protocol/TuliaVault.sol\":538:570  uint256 public baseYieldRate = 2 */\n    tag_31:\n      tag_40\n      sload(0x07)\n      dup2\n      jump\n        /* \"contracts/protocol/TuliaVault.sol\":619:695  bytes32 public constant YIELD_MANAGER_ROLE = keccak256(\"YIELD_MANAGER_ROLE\") */\n    tag_32:\n      tag_40\n        /* \"contracts/protocol/TuliaVault.sol\":664:695  keccak256(\"YIELD_MANAGER_ROLE\") */\n      0x470f4f1717679395b6a9e0700797bfeeaa970f1643e72f5684d687c0be10fe27\n        /* \"contracts/protocol/TuliaVault.sol\":619:695  bytes32 public constant YIELD_MANAGER_ROLE = keccak256(\"YIELD_MANAGER_ROLE\") */\n      dup2\n      jump\n        /* \"@openzeppelin/contracts/token/ERC20/extensions/ERC4626.sol\":5780:5896  function totalAssets() public view virtual returns (uint256) {... */\n    tag_41:\n        /* \"@openzeppelin/contracts/token/ERC20/extensions/ERC4626.sol\":5858:5889  _asset.balanceOf(address(this)) */\n      mload(0x40)\n      shl(0xe0, 0x70a08231)\n      dup2\n      mstore\n        /* \"@openzeppelin/contracts/token/ERC20/extensions/ERC4626.sol\":5883:5887  this */\n      address\n        /* \"@openzeppelin/contracts/token/ERC20/extensions/ERC4626.sol\":5858:5889  _asset.balanceOf(address(this)) */\n      0x04\n      dup3\n      add\n        /* \"#utility.yul\":2101:2152   */\n      mstore\n        /* \"@openzeppelin/contracts/token/ERC20/extensions/ERC4626.sol\":5832:5839  uint256 */\n      0x00\n      swap1\n        /* \"@openzeppelin/contracts/token/ERC20/extensions/ERC4626.sol\":5858:5864  _asset */\n      immutable(\"0x57d03f72a618a841c753598d7d2cbcbbd5f43a73c69f9abc886bd29cf4101ea1\")\n      sub(shl(0xa0, 0x01), 0x01)\n        /* \"@openzeppelin/contracts/token/ERC20/extensions/ERC4626.sol\":5858:5874  _asset.balanceOf */\n      and\n      swap1\n      0x70a08231\n      swap1\n        /* \"#utility.yul\":2074:2092   */\n      0x24\n      add\n        /* \"@openzeppelin/contracts/token/ERC20/extensions/ERC4626.sol\":5858:5889  _asset.balanceOf(address(this)) */\n      0x20\n      mload(0x40)\n      dup1\n      dup4\n      sub\n      dup2\n      dup7\n      gas\n      staticcall\n      iszero\n      dup1\n      iszero\n      tag_165\n      jumpi\n      returndatasize\n      0x00\n      dup1\n      returndatacopy\n      revert(0x00, returndatasize)\n    tag_165:\n      pop\n      pop\n      pop\n      pop\n      mload(0x40)\n      returndatasize\n      not(0x1f)\n      0x1f\n      dup3\n      add\n      and\n      dup3\n      add\n      dup1\n      0x40\n      mstore\n      pop\n      dup2\n      add\n      swap1\n      tag_166\n      swap2\n      swap1\n      tag_167\n      jump\t// in\n    tag_166:\n        /* \"@openzeppelin/contracts/token/ERC20/extensions/ERC4626.sol\":5851:5889  return _asset.balanceOf(address(this)) */\n      swap1\n      pop\n        /* \"@openzeppelin/contracts/token/ERC20/extensions/ERC4626.sol\":5780:5896  function totalAssets() public view virtual returns (uint256) {... */\n      swap1\n      jump\t// out\n        /* \"@openzeppelin/contracts/token/ERC20/ERC20.sol\":2074:2163  function name() public view virtual returns (string memory) {... */\n    tag_45:\n        /* \"@openzeppelin/contracts/token/ERC20/ERC20.sol\":2119:2132  string memory */\n      0x60\n        /* \"@openzeppelin/contracts/token/ERC20/ERC20.sol\":2151:2156  _name */\n      0x03\n        /* \"@openzeppelin/contracts/token/ERC20/ERC20.sol\":2144:2156  return _name */\n      dup1\n      sload\n      tag_169\n      swap1\n      tag_170\n      jump\t// in\n    tag_169:\n      dup1\n      0x1f\n      add\n      0x20\n      dup1\n      swap2\n      div\n      mul\n      0x20\n      add\n      mload(0x40)\n      swap1\n      dup2\n      add\n      0x40\n      mstore\n      dup1\n      swap3\n      swap2\n      swap1\n      dup2\n      dup2\n      mstore\n      0x20\n      add\n      dup3\n      dup1\n      sload\n      tag_171\n      swap1\n      tag_170\n      jump\t// in\n    tag_171:\n      dup1\n      iszero\n      tag_172\n      jumpi\n      dup1\n      0x1f\n      lt\n      tag_173\n      jumpi\n      0x0100\n      dup1\n      dup4\n      sload\n      div\n      mul\n      dup4\n      mstore\n      swap2\n      0x20\n      add\n      swap2\n      jump(tag_172)\n    tag_173:\n      dup3\n      add\n      swap2\n      swap1\n      0x00\n      mstore\n      keccak256(0x00, 0x20)\n      swap1\n    tag_174:\n      dup2\n      sload\n      dup2\n      mstore\n      swap1\n      0x01\n      add\n      swap1\n      0x20\n      add\n      dup1\n      dup4\n      gt\n      tag_174\n      jumpi\n      dup3\n      swap1\n      sub\n      0x1f\n      and\n      dup3\n      add\n      swap2\n    tag_172:\n      pop\n      pop\n      pop\n      pop\n      pop\n      swap1\n      pop\n        /* \"@openzeppelin/contracts/token/ERC20/ERC20.sol\":2074:2163  function name() public view virtual returns (string memory) {... */\n      swap1\n      jump\t// out\n        /* \"@openzeppelin/contracts/token/ERC20/extensions/ERC4626.sol\":6152:6300  function convertToAssets(uint256 shares) public view virtual returns (uint256) {... */\n    tag_51:\n        /* \"@openzeppelin/contracts/token/ERC20/extensions/ERC4626.sol\":6222:6229  uint256 */\n      0x00\n        /* \"@openzeppelin/contracts/token/ERC20/extensions/ERC4626.sol\":6248:6293  _convertToAssets(shares, Math.Rounding.Floor) */\n      tag_176\n        /* \"@openzeppelin/contracts/token/ERC20/extensions/ERC4626.sol\":6265:6271  shares */\n      dup3\n        /* \"@openzeppelin/contracts/token/ERC20/extensions/ERC4626.sol\":6273:6292  Math.Rounding.Floor */\n      0x00\n        /* \"@openzeppelin/contracts/token/ERC20/extensions/ERC4626.sol\":6248:6264  _convertToAssets */\n      tag_177\n        /* \"@openzeppelin/contracts/token/ERC20/extensions/ERC4626.sol\":6248:6293  _convertToAssets(shares, Math.Rounding.Floor) */\n      jump\t// in\n    tag_176:\n        /* \"@openzeppelin/contracts/token/ERC20/extensions/ERC4626.sol\":6241:6293  return _convertToAssets(shares, Math.Rounding.Floor) */\n      swap3\n        /* \"@openzeppelin/contracts/token/ERC20/extensions/ERC4626.sol\":6152:6300  function convertToAssets(uint256 shares) public view virtual returns (uint256) {... */\n      swap2\n      pop\n      pop\n      jump\t// out\n        /* \"@openzeppelin/contracts/token/ERC20/ERC20.sol\":4293:4479  function approve(address spender, uint256 value) public virtual returns (bool) {... */\n    tag_56:\n        /* \"@openzeppelin/contracts/token/ERC20/ERC20.sol\":4366:4370  bool */\n      0x00\n        /* \"@openzeppelin/contracts/utils/Context.sol\":735:745  msg.sender */\n      caller\n        /* \"@openzeppelin/contracts/token/ERC20/ERC20.sol\":4420:4451  _approve(owner, spender, value) */\n      tag_181\n        /* \"@openzeppelin/contracts/utils/Context.sol\":735:745  msg.sender */\n      dup2\n        /* \"@openzeppelin/contracts/token/ERC20/ERC20.sol\":4436:4443  spender */\n      dup6\n        /* \"@openzeppelin/contracts/token/ERC20/ERC20.sol\":4445:4450  value */\n      dup6\n        /* \"@openzeppelin/contracts/token/ERC20/ERC20.sol\":4420:4428  _approve */\n      tag_182\n        /* \"@openzeppelin/contracts/token/ERC20/ERC20.sol\":4420:4451  _approve(owner, spender, value) */\n      jump\t// in\n    tag_181:\n      pop\n        /* \"@openzeppelin/contracts/token/ERC20/ERC20.sol\":4468:4472  true */\n      0x01\n      swap4\n        /* \"@openzeppelin/contracts/token/ERC20/ERC20.sol\":4293:4479  function approve(address spender, uint256 value) public virtual returns (bool) {... */\n      swap3\n      pop\n      pop\n      pop\n      jump\t// out\n        /* \"@openzeppelin/contracts/token/ERC20/extensions/ERC4626.sol\":7418:7565  function previewWithdraw(uint256 assets) public view virtual returns (uint256) {... */\n    tag_61:\n        /* \"@openzeppelin/contracts/token/ERC20/extensions/ERC4626.sol\":7488:7495  uint256 */\n      0x00\n        /* \"@openzeppelin/contracts/token/ERC20/extensions/ERC4626.sol\":7514:7558  _convertToShares(assets, Math.Rounding.Ceil) */\n      tag_176\n        /* \"@openzeppelin/contracts/token/ERC20/extensions/ERC4626.sol\":7531:7537  assets */\n      dup3\n        /* \"@openzeppelin/contracts/token/ERC20/extensions/ERC4626.sol\":7539:7557  Math.Rounding.Ceil */\n      0x01\n        /* \"@openzeppelin/contracts/token/ERC20/extensions/ERC4626.sol\":7514:7530  _convertToShares */\n      tag_185\n        /* \"@openzeppelin/contracts/token/ERC20/extensions/ERC4626.sol\":7514:7558  _convertToShares(assets, Math.Rounding.Ceil) */\n      jump\t// in\n        /* \"@openzeppelin/contracts/token/ERC20/ERC20.sol\":5039:5283  function transferFrom(address from, address to, uint256 value) public virtual returns (bool) {... */\n    tag_69:\n        /* \"@openzeppelin/contracts/token/ERC20/ERC20.sol\":5126:5130  bool */\n      0x00\n        /* \"@openzeppelin/contracts/utils/Context.sol\":735:745  msg.sender */\n      caller\n        /* \"@openzeppelin/contracts/token/ERC20/ERC20.sol\":5182:5219  _spendAllowance(from, spender, value) */\n      tag_189\n        /* \"@openzeppelin/contracts/token/ERC20/ERC20.sol\":5198:5202  from */\n      dup6\n        /* \"@openzeppelin/contracts/utils/Context.sol\":735:745  msg.sender */\n      dup3\n        /* \"@openzeppelin/contracts/token/ERC20/ERC20.sol\":5213:5218  value */\n      dup6\n        /* \"@openzeppelin/contracts/token/ERC20/ERC20.sol\":5182:5197  _spendAllowance */\n      tag_190\n        /* \"@openzeppelin/contracts/token/ERC20/ERC20.sol\":5182:5219  _spendAllowance(from, spender, value) */\n      jump\t// in\n    tag_189:\n        /* \"@openzeppelin/contracts/token/ERC20/ERC20.sol\":5229:5255  _transfer(from, to, value) */\n      tag_191\n        /* \"@openzeppelin/contracts/token/ERC20/ERC20.sol\":5239:5243  from */\n      dup6\n        /* \"@openzeppelin/contracts/token/ERC20/ERC20.sol\":5245:5247  to */\n      dup6\n        /* \"@openzeppelin/contracts/token/ERC20/ERC20.sol\":5249:5254  value */\n      dup6\n        /* \"@openzeppelin/contracts/token/ERC20/ERC20.sol\":5229:5238  _transfer */\n      tag_192\n        /* \"@openzeppelin/contracts/token/ERC20/ERC20.sol\":5229:5255  _transfer(from, to, value) */\n      jump\t// in\n    tag_191:\n        /* \"@openzeppelin/contracts/token/ERC20/ERC20.sol\":5272:5276  true */\n      0x01\n        /* \"@openzeppelin/contracts/token/ERC20/ERC20.sol\":5265:5276  return true */\n      swap2\n      pop\n      pop\n        /* \"@openzeppelin/contracts/token/ERC20/ERC20.sol\":5039:5283  function transferFrom(address from, address to, uint256 value) public virtual returns (bool) {... */\n    tag_187:\n      swap4\n      swap3\n      pop\n      pop\n      pop\n      jump\t// out\n        /* \"@openzeppelin/contracts/token/ERC20/extensions/ERC4626.sol\":5441:5592  function decimals() public view virtual override(IERC20Metadata, ERC20) returns (uint8) {... */\n    tag_72:\n        /* \"@openzeppelin/contracts/token/ERC20/extensions/ERC4626.sol\":5522:5527  uint8 */\n      0x00\n        /* \"@openzeppelin/contracts/token/ERC20/extensions/ERC4626.sol\":5546:5585  _underlyingDecimals + _decimalsOffset() */\n      tag_166\n        /* \"@openzeppelin/contracts/token/ERC20/extensions/ERC4626.sol\":5522:5527  uint8 */\n      dup2\n        /* \"@openzeppelin/contracts/token/ERC20/extensions/ERC4626.sol\":5546:5565  _underlyingDecimals */\n      immutable(\"0xc0bf3ddb79e7c5faf09af1eaa09640fae848e430edf7a04658ec05be9ade7aab\")\n        /* \"@openzeppelin/contracts/token/ERC20/extensions/ERC4626.sol\":5546:5585  _underlyingDecimals + _decimalsOffset() */\n      tag_197\n      jump\t// in\n        /* \"contracts/protocol/TuliaVault.sol\":995:1223  function deposit(uint256 assets, address receiver)... */\n    tag_94:\n        /* \"contracts/protocol/TuliaVault.sol\":1120:1134  uint256 shares */\n      0x00\n        /* \"@openzeppelin/contracts/security/ReentrancyGuard.sol\":2261:2282  _nonReentrantBefore() */\n      tag_203\n        /* \"@openzeppelin/contracts/security/ReentrancyGuard.sol\":2261:2280  _nonReentrantBefore */\n      tag_204\n        /* \"@openzeppelin/contracts/security/ReentrancyGuard.sol\":2261:2282  _nonReentrantBefore() */\n      jump\t// in\n    tag_203:\n        /* \"contracts/protocol/TuliaVault.sol\":1152:1166  _accrueYield() */\n      tag_206\n        /* \"contracts/protocol/TuliaVault.sol\":1152:1164  _accrueYield */\n      tag_207\n        /* \"contracts/protocol/TuliaVault.sol\":1152:1166  _accrueYield() */\n      jump\t// in\n    tag_206:\n        /* \"contracts/protocol/TuliaVault.sol\":1184:1215  super.deposit(assets, receiver) */\n      tag_208\n        /* \"contracts/protocol/TuliaVault.sol\":1198:1204  assets */\n      dup4\n        /* \"contracts/protocol/TuliaVault.sol\":1206:1214  receiver */\n      dup4\n        /* \"contracts/protocol/TuliaVault.sol\":1184:1197  super.deposit */\n      tag_209\n        /* \"contracts/protocol/TuliaVault.sol\":1184:1215  super.deposit(assets, receiver) */\n      jump\t// in\n    tag_208:\n        /* \"contracts/protocol/TuliaVault.sol\":1177:1215  return super.deposit(assets, receiver) */\n      swap1\n      pop\n        /* \"@openzeppelin/contracts/security/ReentrancyGuard.sol\":2303:2323  _nonReentrantAfter() */\n      tag_176\n        /* \"@openzeppelin/contracts/security/ReentrancyGuard.sol\":1716:1717  1 */\n      0x01\n        /* \"@openzeppelin/contracts/security/ReentrancyGuard.sol\":2809:2816  _status */\n      0x05\n        /* \"@openzeppelin/contracts/security/ReentrancyGuard.sol\":2809:2831  _status = _NOT_ENTERED */\n      sstore\n        /* \"@openzeppelin/contracts/security/ReentrancyGuard.sol\":2629:2838  function _nonReentrantAfter() private {... */\n      jump\n        /* \"contracts/protocol/TuliaVault.sol\":1491:1731  function setBaseYieldRate(uint256 newBaseYieldRate)... */\n    tag_102:\n        /* \"contracts/protocol/TuliaVault.sol\":1600:1603  100 */\n      0x64\n        /* \"contracts/protocol/TuliaVault.sol\":1581:1597  newBaseYieldRate */\n      dup2\n        /* \"contracts/protocol/TuliaVault.sol\":1581:1603  newBaseYieldRate > 100 */\n      gt\n        /* \"contracts/protocol/TuliaVault.sol\":1577:1630  if (newBaseYieldRate > 100) revert InvalidYieldRate() */\n      iszero\n      tag_214\n      jumpi\n        /* \"contracts/protocol/TuliaVault.sol\":1612:1630  InvalidYieldRate() */\n      mload(0x40)\n      shl(0xe1, 0x29977503)\n      dup2\n      mstore\n      0x04\n      add\n      mload(0x40)\n      dup1\n      swap2\n      sub\n      swap1\n      revert\n        /* \"contracts/protocol/TuliaVault.sol\":1577:1630  if (newBaseYieldRate > 100) revert InvalidYieldRate() */\n    tag_214:\n        /* \"contracts/protocol/TuliaVault.sol\":1641:1654  baseYieldRate */\n      0x07\n        /* \"contracts/protocol/TuliaVault.sol\":1641:1673  baseYieldRate = newBaseYieldRate */\n      dup2\n      swap1\n      sstore\n        /* \"contracts/protocol/TuliaVault.sol\":1689:1723  YieldRateUpdated(newBaseYieldRate) */\n      mload(0x40)\n        /* \"#utility.yul\":160:185   */\n      dup2\n      dup2\n      mstore\n        /* \"contracts/protocol/TuliaVault.sol\":1689:1723  YieldRateUpdated(newBaseYieldRate) */\n      0x5842a31a46ea5ce5b950bf6d04c8b832a9deae72e0e54bcf928f0d72123f2865\n      swap1\n        /* \"#utility.yul\":148:150   */\n      0x20\n        /* \"#utility.yul\":133:151   */\n      add\n        /* \"contracts/protocol/TuliaVault.sol\":1689:1723  YieldRateUpdated(newBaseYieldRate) */\n      mload(0x40)\n      dup1\n      swap2\n      sub\n      swap1\n      log1\n        /* \"contracts/protocol/TuliaVault.sol\":1491:1731  function setBaseYieldRate(uint256 newBaseYieldRate)... */\n      pop\n      jump\t// out\n        /* \"@openzeppelin/contracts/token/ERC20/extensions/ERC4626.sol\":8468:8848  function mint(uint256 shares, address receiver) public virtual returns (uint256) {... */\n    tag_105:\n        /* \"@openzeppelin/contracts/token/ERC20/extensions/ERC4626.sol\":8540:8547  uint256 */\n      0x00\n      not(0x00)\n        /* \"@openzeppelin/contracts/token/ERC20/extensions/ERC4626.sol\":8606:8713  if (shares > maxShares) {... */\n      jump(tag_218)\n        /* \"@openzeppelin/contracts/token/ERC20/extensions/ERC4626.sol\":8651:8702  ERC4626ExceededMaxMint(receiver, shares, maxShares) */\n    tag_219:\n      mload(0x40)\n      dup1\n      swap2\n      sub\n      swap1\n      revert\n        /* \"@openzeppelin/contracts/token/ERC20/extensions/ERC4626.sol\":8606:8713  if (shares > maxShares) {... */\n    tag_218:\n        /* \"@openzeppelin/contracts/token/ERC20/extensions/ERC4626.sol\":8723:8737  uint256 assets */\n      0x00\n        /* \"@openzeppelin/contracts/token/ERC20/extensions/ERC4626.sol\":8740:8759  previewMint(shares) */\n      tag_221\n        /* \"@openzeppelin/contracts/token/ERC20/extensions/ERC4626.sol\":8752:8758  shares */\n      dup6\n        /* \"@openzeppelin/contracts/token/ERC20/extensions/ERC4626.sol\":8740:8751  previewMint */\n      tag_119\n        /* \"@openzeppelin/contracts/token/ERC20/extensions/ERC4626.sol\":8740:8759  previewMint(shares) */\n      jump\t// in\n    tag_221:\n        /* \"@openzeppelin/contracts/token/ERC20/extensions/ERC4626.sol\":8723:8759  uint256 assets = previewMint(shares) */\n      swap1\n      pop\n        /* \"@openzeppelin/contracts/token/ERC20/extensions/ERC4626.sol\":8769:8817  _deposit(_msgSender(), receiver, assets, shares) */\n      tag_222\n        /* \"@openzeppelin/contracts/utils/Context.sol\":735:745  msg.sender */\n      caller\n        /* \"@openzeppelin/contracts/token/ERC20/extensions/ERC4626.sol\":8792:8800  receiver */\n      dup6\n        /* \"@openzeppelin/contracts/token/ERC20/extensions/ERC4626.sol\":8802:8808  assets */\n      dup4\n        /* \"@openzeppelin/contracts/token/ERC20/extensions/ERC4626.sol\":8810:8816  shares */\n      dup9\n        /* \"@openzeppelin/contracts/token/ERC20/extensions/ERC4626.sol\":8769:8777  _deposit */\n      tag_224\n        /* \"@openzeppelin/contracts/token/ERC20/extensions/ERC4626.sol\":8769:8817  _deposit(_msgSender(), receiver, assets, shares) */\n      jump\t// in\n    tag_222:\n        /* \"@openzeppelin/contracts/token/ERC20/extensions/ERC4626.sol\":8835:8841  assets */\n      swap5\n        /* \"@openzeppelin/contracts/token/ERC20/extensions/ERC4626.sol\":8468:8848  function mint(uint256 shares, address receiver) public virtual returns (uint256) {... */\n      swap4\n      pop\n      pop\n      pop\n      pop\n      jump\t// out\n        /* \"@openzeppelin/contracts/token/ERC20/ERC20.sol\":2276:2369  function symbol() public view virtual returns (string memory) {... */\n    tag_108:\n        /* \"@openzeppelin/contracts/token/ERC20/ERC20.sol\":2323:2336  string memory */\n      0x60\n        /* \"@openzeppelin/contracts/token/ERC20/ERC20.sol\":2355:2362  _symbol */\n      0x04\n        /* \"@openzeppelin/contracts/token/ERC20/ERC20.sol\":2348:2362  return _symbol */\n      dup1\n      sload\n      tag_169\n      swap1\n      tag_170\n      jump\t// in\n        /* \"@openzeppelin/contracts/token/ERC20/ERC20.sol\":3610:3788  function transfer(address to, uint256 value) public virtual returns (bool) {... */\n    tag_115:\n        /* \"@openzeppelin/contracts/token/ERC20/ERC20.sol\":3679:3683  bool */\n      0x00\n        /* \"@openzeppelin/contracts/utils/Context.sol\":735:745  msg.sender */\n      caller\n        /* \"@openzeppelin/contracts/token/ERC20/ERC20.sol\":3733:3760  _transfer(owner, to, value) */\n      tag_181\n        /* \"@openzeppelin/contracts/utils/Context.sol\":735:745  msg.sender */\n      dup2\n        /* \"@openzeppelin/contracts/token/ERC20/ERC20.sol\":3750:3752  to */\n      dup6\n        /* \"@openzeppelin/contracts/token/ERC20/ERC20.sol\":3754:3759  value */\n      dup6\n        /* \"@openzeppelin/contracts/token/ERC20/ERC20.sol\":3733:3742  _transfer */\n      tag_192\n        /* \"@openzeppelin/contracts/token/ERC20/ERC20.sol\":3733:3760  _transfer(owner, to, value) */\n      jump\t// in\n        /* \"@openzeppelin/contracts/token/ERC20/extensions/ERC4626.sol\":7221:7364  function previewMint(uint256 shares) public view virtual returns (uint256) {... */\n    tag_119:\n        /* \"@openzeppelin/contracts/token/ERC20/extensions/ERC4626.sol\":7287:7294  uint256 */\n      0x00\n        /* \"@openzeppelin/contracts/token/ERC20/extensions/ERC4626.sol\":7313:7357  _convertToAssets(shares, Math.Rounding.Ceil) */\n      tag_176\n        /* \"@openzeppelin/contracts/token/ERC20/extensions/ERC4626.sol\":7330:7336  shares */\n      dup3\n        /* \"@openzeppelin/contracts/token/ERC20/extensions/ERC4626.sol\":7338:7356  Math.Rounding.Ceil */\n      0x01\n        /* \"@openzeppelin/contracts/token/ERC20/extensions/ERC4626.sol\":7313:7329  _convertToAssets */\n      tag_177\n        /* \"@openzeppelin/contracts/token/ERC20/extensions/ERC4626.sol\":7313:7357  _convertToAssets(shares, Math.Rounding.Ceil) */\n      jump\t// in\n        /* \"contracts/protocol/TuliaVault.sol\":1231:1483  function withdraw(uint256 assets, address receiver, address owner)... */\n    tag_124:\n        /* \"contracts/protocol/TuliaVault.sol\":1372:1386  uint256 shares */\n      0x00\n        /* \"@openzeppelin/contracts/security/ReentrancyGuard.sol\":2261:2282  _nonReentrantBefore() */\n      tag_237\n        /* \"@openzeppelin/contracts/security/ReentrancyGuard.sol\":2261:2280  _nonReentrantBefore */\n      tag_204\n        /* \"@openzeppelin/contracts/security/ReentrancyGuard.sol\":2261:2282  _nonReentrantBefore() */\n      jump\t// in\n    tag_237:\n        /* \"contracts/protocol/TuliaVault.sol\":1404:1418  _accrueYield() */\n      tag_239\n        /* \"contracts/protocol/TuliaVault.sol\":1404:1416  _accrueYield */\n      tag_207\n        /* \"contracts/protocol/TuliaVault.sol\":1404:1418  _accrueYield() */\n      jump\t// in\n    tag_239:\n        /* \"contracts/protocol/TuliaVault.sol\":1436:1475  super.withdraw(assets, receiver, owner) */\n      tag_240\n        /* \"contracts/protocol/TuliaVault.sol\":1451:1457  assets */\n      dup5\n        /* \"contracts/protocol/TuliaVault.sol\":1459:1467  receiver */\n      dup5\n        /* \"contracts/protocol/TuliaVault.sol\":1469:1474  owner */\n      dup5\n        /* \"contracts/protocol/TuliaVault.sol\":1436:1450  super.withdraw */\n      tag_241\n        /* \"contracts/protocol/TuliaVault.sol\":1436:1475  super.withdraw(assets, receiver, owner) */\n      jump\t// in\n    tag_240:\n        /* \"contracts/protocol/TuliaVault.sol\":1429:1475  return super.withdraw(assets, receiver, owner) */\n      swap1\n      pop\n        /* \"@openzeppelin/contracts/security/ReentrancyGuard.sol\":2303:2323  _nonReentrantAfter() */\n      tag_187\n        /* \"@openzeppelin/contracts/security/ReentrancyGuard.sol\":1716:1717  1 */\n      0x01\n        /* \"@openzeppelin/contracts/security/ReentrancyGuard.sol\":2809:2816  _status */\n      0x05\n        /* \"@openzeppelin/contracts/security/ReentrancyGuard.sol\":2809:2831  _status = _NOT_ENTERED */\n      sstore\n        /* \"@openzeppelin/contracts/security/ReentrancyGuard.sol\":2629:2838  function _nonReentrantAfter() private {... */\n      jump\n        /* \"@openzeppelin/contracts/token/ERC20/extensions/ERC4626.sol\":9353:9758  function redeem(uint256 shares, address receiver, address owner) public virtual returns (uint256) {... */\n    tag_128:\n        /* \"@openzeppelin/contracts/token/ERC20/extensions/ERC4626.sol\":9442:9449  uint256 */\n      0x00\n        /* \"@openzeppelin/contracts/token/ERC20/extensions/ERC4626.sol\":9461:9478  uint256 maxShares */\n      dup1\n        /* \"@openzeppelin/contracts/token/ERC20/extensions/ERC4626.sol\":9481:9497  maxRedeem(owner) */\n      tag_244\n        /* \"@openzeppelin/contracts/token/ERC20/extensions/ERC4626.sol\":9491:9496  owner */\n      dup4\n        /* \"@openzeppelin/contracts/token/ERC20/extensions/ERC4626.sol\":9481:9490  maxRedeem */\n      tag_144\n        /* \"@openzeppelin/contracts/token/ERC20/extensions/ERC4626.sol\":9481:9497  maxRedeem(owner) */\n      jump\t// in\n    tag_244:\n        /* \"@openzeppelin/contracts/token/ERC20/extensions/ERC4626.sol\":9461:9497  uint256 maxShares = maxRedeem(owner) */\n      swap1\n      pop\n        /* \"@openzeppelin/contracts/token/ERC20/extensions/ERC4626.sol\":9520:9529  maxShares */\n      dup1\n        /* \"@openzeppelin/contracts/token/ERC20/extensions/ERC4626.sol\":9511:9517  shares */\n      dup6\n        /* \"@openzeppelin/contracts/token/ERC20/extensions/ERC4626.sol\":9511:9529  shares > maxShares */\n      gt\n        /* \"@openzeppelin/contracts/token/ERC20/extensions/ERC4626.sol\":9507:9613  if (shares > maxShares) {... */\n      iszero\n      tag_245\n      jumpi\n        /* \"@openzeppelin/contracts/token/ERC20/extensions/ERC4626.sol\":9577:9582  owner */\n      dup3\n        /* \"@openzeppelin/contracts/token/ERC20/extensions/ERC4626.sol\":9584:9590  shares */\n      dup6\n        /* \"@openzeppelin/contracts/token/ERC20/extensions/ERC4626.sol\":9592:9601  maxShares */\n      dup3\n        /* \"@openzeppelin/contracts/token/ERC20/extensions/ERC4626.sol\":9552:9602  ERC4626ExceededMaxRedeem(owner, shares, maxShares) */\n      mload(0x40)\n      shl(0xe2, 0x2e52afbb)\n      dup2\n      mstore\n      0x04\n      add\n      tag_219\n      swap4\n      swap3\n      swap2\n      swap1\n      tag_220\n      jump\t// in\n        /* \"@openzeppelin/contracts/token/ERC20/extensions/ERC4626.sol\":9507:9613  if (shares > maxShares) {... */\n    tag_245:\n        /* \"@openzeppelin/contracts/token/ERC20/extensions/ERC4626.sol\":9623:9637  uint256 assets */\n      0x00\n        /* \"@openzeppelin/contracts/token/ERC20/extensions/ERC4626.sol\":9640:9661  previewRedeem(shares) */\n      tag_247\n        /* \"@openzeppelin/contracts/token/ERC20/extensions/ERC4626.sol\":9654:9660  shares */\n      dup7\n        /* \"@openzeppelin/contracts/token/ERC20/extensions/ERC4626.sol\":9640:9653  previewRedeem */\n      tag_51\n        /* \"@openzeppelin/contracts/token/ERC20/extensions/ERC4626.sol\":9640:9661  previewRedeem(shares) */\n      jump\t// in\n    tag_247:\n        /* \"@openzeppelin/contracts/token/ERC20/extensions/ERC4626.sol\":9623:9661  uint256 assets = previewRedeem(shares) */\n      swap1\n      pop\n        /* \"@openzeppelin/contracts/token/ERC20/extensions/ERC4626.sol\":9671:9727  _withdraw(_msgSender(), receiver, owner, assets, shares) */\n      tag_248\n        /* \"@openzeppelin/contracts/utils/Context.sol\":735:745  msg.sender */\n      caller\n        /* \"@openzeppelin/contracts/token/ERC20/extensions/ERC4626.sol\":9695:9703  receiver */\n      dup7\n        /* \"@openzeppelin/contracts/token/ERC20/extensions/ERC4626.sol\":9705:9710  owner */\n      dup7\n        /* \"@openzeppelin/contracts/token/ERC20/extensions/ERC4626.sol\":9712:9718  assets */\n      dup5\n        /* \"@openzeppelin/contracts/token/ERC20/extensions/ERC4626.sol\":9720:9726  shares */\n      dup11\n        /* \"@openzeppelin/contracts/token/ERC20/extensions/ERC4626.sol\":9671:9680  _withdraw */\n      tag_250\n        /* \"@openzeppelin/contracts/token/ERC20/extensions/ERC4626.sol\":9671:9727  _withdraw(_msgSender(), receiver, owner, assets, shares) */\n      jump\t// in\n    tag_248:\n        /* \"@openzeppelin/contracts/token/ERC20/extensions/ERC4626.sol\":9745:9751  assets */\n      swap6\n        /* \"@openzeppelin/contracts/token/ERC20/extensions/ERC4626.sol\":9353:9758  function redeem(uint256 shares, address receiver, address owner) public virtual returns (uint256) {... */\n      swap5\n      pop\n      pop\n      pop\n      pop\n      pop\n      jump\t// out\n        /* \"@openzeppelin/contracts/token/ERC20/extensions/ERC4626.sol\":5950:6098  function convertToShares(uint256 assets) public view virtual returns (uint256) {... */\n    tag_136:\n        /* \"@openzeppelin/contracts/token/ERC20/extensions/ERC4626.sol\":6020:6027  uint256 */\n      0x00\n        /* \"@openzeppelin/contracts/token/ERC20/extensions/ERC4626.sol\":6046:6091  _convertToShares(assets, Math.Rounding.Floor) */\n      tag_176\n        /* \"@openzeppelin/contracts/token/ERC20/extensions/ERC4626.sol\":6063:6069  assets */\n      dup3\n        /* \"@openzeppelin/contracts/token/ERC20/extensions/ERC4626.sol\":6071:6090  Math.Rounding.Floor */\n      0x00\n        /* \"@openzeppelin/contracts/token/ERC20/extensions/ERC4626.sol\":6046:6062  _convertToShares */\n      tag_185\n        /* \"@openzeppelin/contracts/token/ERC20/extensions/ERC4626.sol\":6046:6091  _convertToShares(assets, Math.Rounding.Floor) */\n      jump\t// in\n        /* \"@openzeppelin/contracts/token/ERC20/extensions/ERC4626.sol\":6658:6811  function maxWithdraw(address owner) public view virtual returns (uint256) {... */\n    tag_140:\n      sub(shl(0xa0, 0x01), 0x01)\n        /* \"@openzeppelin/contracts/token/ERC20/ERC20.sol\":3390:3408  _balances[account] */\n      dup2\n      and\n        /* \"@openzeppelin/contracts/token/ERC20/extensions/ERC4626.sol\":6723:6730  uint256 */\n      0x00\n        /* \"@openzeppelin/contracts/token/ERC20/ERC20.sol\":3390:3408  _balances[account] */\n      swap1\n      dup2\n      mstore\n      0x20\n      dup2\n      swap1\n      mstore\n      0x40\n      dup2\n      keccak256\n      sload\n        /* \"@openzeppelin/contracts/token/ERC20/extensions/ERC4626.sol\":6749:6804  _convertToAssets(balanceOf(owner), Math.Rounding.Floor) */\n      tag_176\n      swap1\n        /* \"@openzeppelin/contracts/token/ERC20/extensions/ERC4626.sol\":6784:6803  Math.Rounding.Floor */\n      0x00\n        /* \"@openzeppelin/contracts/token/ERC20/extensions/ERC4626.sol\":6749:6765  _convertToAssets */\n      tag_177\n        /* \"@openzeppelin/contracts/token/ERC20/extensions/ERC4626.sol\":6749:6804  _convertToAssets(balanceOf(owner), Math.Rounding.Floor) */\n      jump\t// in\n        /* \"@openzeppelin/contracts/token/ERC20/extensions/ERC4626.sol\":6859:6971  function maxRedeem(address owner) public view virtual returns (uint256) {... */\n    tag_144:\n      sub(shl(0xa0, 0x01), 0x01)\n        /* \"@openzeppelin/contracts/token/ERC20/ERC20.sol\":3390:3408  _balances[account] */\n      dup2\n      and\n        /* \"@openzeppelin/contracts/token/ERC20/extensions/ERC4626.sol\":6922:6929  uint256 */\n      0x00\n        /* \"@openzeppelin/contracts/token/ERC20/ERC20.sol\":3390:3408  _balances[account] */\n      swap1\n      dup2\n      mstore\n      0x20\n      dup2\n      swap1\n      mstore\n      0x40\n      dup2\n      keccak256\n      sload\n        /* \"@openzeppelin/contracts/token/ERC20/extensions/ERC4626.sol\":6948:6964  balanceOf(owner) */\n      tag_176\n        /* \"@openzeppelin/contracts/token/ERC20/ERC20.sol\":3299:3415  function balanceOf(address account) public view virtual returns (uint256) {... */\n      jump\n        /* \"@openzeppelin/contracts/token/ERC20/extensions/ERC4626.sol\":10219:10432  function _convertToAssets(uint256 shares, Math.Rounding rounding) internal view virtual returns (uint256) {... */\n    tag_177:\n        /* \"@openzeppelin/contracts/token/ERC20/extensions/ERC4626.sol\":10316:10323  uint256 */\n      0x00\n        /* \"@openzeppelin/contracts/token/ERC20/extensions/ERC4626.sol\":10342:10425  shares.mulDiv(totalAssets() + 1, totalSupply() + 10 ** _decimalsOffset(), rounding) */\n      tag_187\n        /* \"@openzeppelin/contracts/token/ERC20/extensions/ERC4626.sol\":10356:10369  totalAssets() */\n      tag_264\n        /* \"@openzeppelin/contracts/token/ERC20/extensions/ERC4626.sol\":10356:10367  totalAssets */\n      tag_41\n        /* \"@openzeppelin/contracts/token/ERC20/extensions/ERC4626.sol\":10356:10369  totalAssets() */\n      jump\t// in\n    tag_264:\n        /* \"@openzeppelin/contracts/token/ERC20/extensions/ERC4626.sol\":10356:10373  totalAssets() + 1 */\n      tag_265\n      swap1\n        /* \"@openzeppelin/contracts/token/ERC20/extensions/ERC4626.sol\":10372:10373  1 */\n      0x01\n        /* \"@openzeppelin/contracts/token/ERC20/extensions/ERC4626.sol\":10356:10373  totalAssets() + 1 */\n      tag_266\n      jump\t// in\n    tag_265:\n        /* \"@openzeppelin/contracts/token/ERC20/extensions/ERC4626.sol\":10391:10414  10 ** _decimalsOffset() */\n      tag_268\n        /* \"@openzeppelin/contracts/token/ERC20/extensions/ERC4626.sol\":12371:12376  uint8 */\n      0x00\n        /* \"@openzeppelin/contracts/token/ERC20/extensions/ERC4626.sol\":10391:10393  10 */\n      0x0a\n        /* \"@openzeppelin/contracts/token/ERC20/extensions/ERC4626.sol\":10391:10414  10 ** _decimalsOffset() */\n      tag_269\n      jump\t// in\n    tag_268:\n        /* \"@openzeppelin/contracts/token/ERC20/ERC20.sol\":3222:3234  _totalSupply */\n      sload(0x02)\n        /* \"@openzeppelin/contracts/token/ERC20/extensions/ERC4626.sol\":10375:10414  totalSupply() + 10 ** _decimalsOffset() */\n      tag_271\n      swap2\n      swap1\n      tag_266\n      jump\t// in\n    tag_271:\n        /* \"@openzeppelin/contracts/token/ERC20/extensions/ERC4626.sol\":10342:10348  shares */\n      dup6\n      swap2\n        /* \"@openzeppelin/contracts/token/ERC20/extensions/ERC4626.sol\":10342:10425  shares.mulDiv(totalAssets() + 1, totalSupply() + 10 ** _decimalsOffset(), rounding) */\n      swap1\n        /* \"@openzeppelin/contracts/token/ERC20/extensions/ERC4626.sol\":10416:10424  rounding */\n      dup6\n        /* \"@openzeppelin/contracts/token/ERC20/extensions/ERC4626.sol\":10342:10355  shares.mulDiv */\n      tag_272\n        /* \"@openzeppelin/contracts/token/ERC20/extensions/ERC4626.sol\":10342:10425  shares.mulDiv(totalAssets() + 1, totalSupply() + 10 ** _decimalsOffset(), rounding) */\n      jump\t// in\n        /* \"@openzeppelin/contracts/token/ERC20/ERC20.sol\":8989:9117  function _approve(address owner, address spender, uint256 value) internal {... */\n    tag_182:\n        /* \"@openzeppelin/contracts/token/ERC20/ERC20.sol\":9073:9110  _approve(owner, spender, value, true) */\n      tag_275\n        /* \"@openzeppelin/contracts/token/ERC20/ERC20.sol\":9082:9087  owner */\n      dup4\n        /* \"@openzeppelin/contracts/token/ERC20/ERC20.sol\":9089:9096  spender */\n      dup4\n        /* \"@openzeppelin/contracts/token/ERC20/ERC20.sol\":9098:9103  value */\n      dup4\n        /* \"@openzeppelin/contracts/token/ERC20/ERC20.sol\":9105:9109  true */\n      0x01\n        /* \"@openzeppelin/contracts/token/ERC20/ERC20.sol\":9073:9081  _approve */\n      tag_276\n        /* \"@openzeppelin/contracts/token/ERC20/ERC20.sol\":9073:9110  _approve(owner, spender, value, true) */\n      jump\t// in\n    tag_275:\n        /* \"@openzeppelin/contracts/token/ERC20/ERC20.sol\":8989:9117  function _approve(address owner, address spender, uint256 value) internal {... */\n      pop\n      pop\n      pop\n      jump\t// out\n        /* \"@openzeppelin/contracts/token/ERC20/extensions/ERC4626.sol\":9882:10095  function _convertToShares(uint256 assets, Math.Rounding rounding) internal view virtual returns (uint256) {... */\n    tag_185:\n        /* \"@openzeppelin/contracts/token/ERC20/extensions/ERC4626.sol\":9979:9986  uint256 */\n      0x00\n        /* \"@openzeppelin/contracts/token/ERC20/extensions/ERC4626.sol\":10005:10088  assets.mulDiv(totalSupply() + 10 ** _decimalsOffset(), totalAssets() + 1, rounding) */\n      tag_187\n        /* \"@openzeppelin/contracts/token/ERC20/extensions/ERC4626.sol\":10035:10058  10 ** _decimalsOffset() */\n      tag_280\n        /* \"@openzeppelin/contracts/token/ERC20/extensions/ERC4626.sol\":9979:9986  uint256 */\n      dup3\n        /* \"@openzeppelin/contracts/token/ERC20/extensions/ERC4626.sol\":10035:10037  10 */\n      0x0a\n        /* \"@openzeppelin/contracts/token/ERC20/extensions/ERC4626.sol\":10035:10058  10 ** _decimalsOffset() */\n      tag_269\n      jump\t// in\n    tag_280:\n        /* \"@openzeppelin/contracts/token/ERC20/ERC20.sol\":3222:3234  _totalSupply */\n      sload(0x02)\n        /* \"@openzeppelin/contracts/token/ERC20/extensions/ERC4626.sol\":10019:10058  totalSupply() + 10 ** _decimalsOffset() */\n      tag_282\n      swap2\n      swap1\n      tag_266\n      jump\t// in\n    tag_282:\n        /* \"@openzeppelin/contracts/token/ERC20/extensions/ERC4626.sol\":10060:10073  totalAssets() */\n      tag_283\n        /* \"@openzeppelin/contracts/token/ERC20/extensions/ERC4626.sol\":10060:10071  totalAssets */\n      tag_41\n        /* \"@openzeppelin/contracts/token/ERC20/extensions/ERC4626.sol\":10060:10073  totalAssets() */\n      jump\t// in\n    tag_283:\n        /* \"@openzeppelin/contracts/token/ERC20/extensions/ERC4626.sol\":10060:10077  totalAssets() + 1 */\n      tag_271\n      swap1\n        /* \"@openzeppelin/contracts/token/ERC20/extensions/ERC4626.sol\":10076:10077  1 */\n      0x01\n        /* \"@openzeppelin/contracts/token/ERC20/extensions/ERC4626.sol\":10060:10077  totalAssets() + 1 */\n      tag_266\n      jump\t// in\n        /* \"@openzeppelin/contracts/token/ERC20/ERC20.sol\":10663:11140  function _spendAllowance(address owner, address spender, uint256 value) internal virtual {... */\n    tag_190:\n      sub(shl(0xa0, 0x01), 0x01)\n        /* \"@openzeppelin/contracts/token/ERC20/ERC20.sol\":3952:3970  _allowances[owner] */\n      dup4\n      dup2\n      and\n        /* \"@openzeppelin/contracts/token/ERC20/ERC20.sol\":10762:10786  uint256 currentAllowance */\n      0x00\n        /* \"@openzeppelin/contracts/token/ERC20/ERC20.sol\":3952:3970  _allowances[owner] */\n      swap1\n      dup2\n      mstore\n        /* \"@openzeppelin/contracts/token/ERC20/ERC20.sol\":3952:3963  _allowances */\n      0x01\n        /* \"@openzeppelin/contracts/token/ERC20/ERC20.sol\":3952:3970  _allowances[owner] */\n      0x20\n      swap1\n      dup2\n      mstore\n      0x40\n      dup1\n      dup4\n      keccak256\n        /* \"@openzeppelin/contracts/token/ERC20/ERC20.sol\":3952:3979  _allowances[owner][spender] */\n      swap4\n      dup7\n      and\n      dup4\n      mstore\n      swap3\n      swap1\n      mstore\n      keccak256\n      sload\n      not(0x00)\n        /* \"@openzeppelin/contracts/token/ERC20/ERC20.sol\":10828:10865  currentAllowance != type(uint256).max */\n      dup2\n      eq\n        /* \"@openzeppelin/contracts/token/ERC20/ERC20.sol\":10824:11134  if (currentAllowance != type(uint256).max) {... */\n      tag_290\n      jumpi\n        /* \"@openzeppelin/contracts/token/ERC20/ERC20.sol\":10904:10909  value */\n      dup2\n        /* \"@openzeppelin/contracts/token/ERC20/ERC20.sol\":10885:10901  currentAllowance */\n      dup2\n        /* \"@openzeppelin/contracts/token/ERC20/ERC20.sol\":10885:10909  currentAllowance < value */\n      lt\n        /* \"@openzeppelin/contracts/token/ERC20/ERC20.sol\":10881:11011  if (currentAllowance < value) {... */\n      iszero\n      tag_288\n      jumpi\n        /* \"@openzeppelin/contracts/token/ERC20/ERC20.sol\":10963:10970  spender */\n      dup3\n        /* \"@openzeppelin/contracts/token/ERC20/ERC20.sol\":10972:10988  currentAllowance */\n      dup2\n        /* \"@openzeppelin/contracts/token/ERC20/ERC20.sol\":10990:10995  value */\n      dup4\n        /* \"@openzeppelin/contracts/token/ERC20/ERC20.sol\":10936:10996  ERC20InsufficientAllowance(spender, currentAllowance, value) */\n      mload(0x40)\n      shl(0xe1, 0x7dc7a0d9)\n      dup2\n      mstore\n      0x04\n      add\n      tag_219\n      swap4\n      swap3\n      swap2\n      swap1\n      tag_220\n      jump\t// in\n        /* \"@openzeppelin/contracts/token/ERC20/ERC20.sol\":10881:11011  if (currentAllowance < value) {... */\n    tag_288:\n        /* \"@openzeppelin/contracts/token/ERC20/ERC20.sol\":11052:11109  _approve(owner, spender, currentAllowance - value, false) */\n      tag_290\n        /* \"@openzeppelin/contracts/token/ERC20/ERC20.sol\":11061:11066  owner */\n      dup5\n        /* \"@openzeppelin/contracts/token/ERC20/ERC20.sol\":11068:11075  spender */\n      dup5\n        /* \"@openzeppelin/contracts/token/ERC20/ERC20.sol\":11096:11101  value */\n      dup5\n        /* \"@openzeppelin/contracts/token/ERC20/ERC20.sol\":11077:11093  currentAllowance */\n      dup5\n        /* \"@openzeppelin/contracts/token/ERC20/ERC20.sol\":11077:11101  currentAllowance - value */\n      sub\n        /* \"@openzeppelin/contracts/token/ERC20/ERC20.sol\":11103:11108  false */\n      0x00\n        /* \"@openzeppelin/contracts/token/ERC20/ERC20.sol\":11052:11060  _approve */\n      tag_276\n        /* \"@openzeppelin/contracts/token/ERC20/ERC20.sol\":11052:11109  _approve(owner, spender, currentAllowance - value, false) */\n      jump\t// in\n    tag_290:\n        /* \"@openzeppelin/contracts/token/ERC20/ERC20.sol\":10752:11140  {... */\n      pop\n        /* \"@openzeppelin/contracts/token/ERC20/ERC20.sol\":10663:11140  function _spendAllowance(address owner, address spender, uint256 value) internal virtual {... */\n      pop\n      pop\n      pop\n      jump\t// out\n        /* \"@openzeppelin/contracts/token/ERC20/ERC20.sol\":5656:5956  function _transfer(address from, address to, uint256 value) internal {... */\n    tag_192:\n      sub(shl(0xa0, 0x01), 0x01)\n        /* \"@openzeppelin/contracts/token/ERC20/ERC20.sol\":5739:5757  from == address(0) */\n      dup4\n      and\n        /* \"@openzeppelin/contracts/token/ERC20/ERC20.sol\":5735:5821  if (from == address(0)) {... */\n      tag_292\n      jumpi\n        /* \"@openzeppelin/contracts/token/ERC20/ERC20.sol\":5780:5810  ERC20InvalidSender(address(0)) */\n      mload(0x40)\n      shl(0xe1, 0x4b637e8f)\n      dup2\n      mstore\n        /* \"@openzeppelin/contracts/token/ERC20/ERC20.sol\":5807:5808  0 */\n      0x00\n        /* \"@openzeppelin/contracts/token/ERC20/ERC20.sol\":5780:5810  ERC20InvalidSender(address(0)) */\n      0x04\n      dup3\n      add\n        /* \"#utility.yul\":2101:2152   */\n      mstore\n        /* \"#utility.yul\":2074:2092   */\n      0x24\n      add\n        /* \"@openzeppelin/contracts/token/ERC20/ERC20.sol\":5780:5810  ERC20InvalidSender(address(0)) */\n      tag_219\n        /* \"#utility.yul\":1955:2158   */\n      jump\n        /* \"@openzeppelin/contracts/token/ERC20/ERC20.sol\":5735:5821  if (from == address(0)) {... */\n    tag_292:\n      sub(shl(0xa0, 0x01), 0x01)\n        /* \"@openzeppelin/contracts/token/ERC20/ERC20.sol\":5834:5850  to == address(0) */\n      dup3\n      and\n        /* \"@openzeppelin/contracts/token/ERC20/ERC20.sol\":5830:5916  if (to == address(0)) {... */\n      tag_294\n      jumpi\n        /* \"@openzeppelin/contracts/token/ERC20/ERC20.sol\":5873:5905  ERC20InvalidReceiver(address(0)) */\n      mload(0x40)\n      shl(0xe0, 0xec442f05)\n      dup2\n      mstore\n        /* \"@openzeppelin/contracts/token/ERC20/ERC20.sol\":5902:5903  0 */\n      0x00\n        /* \"@openzeppelin/contracts/token/ERC20/ERC20.sol\":5873:5905  ERC20InvalidReceiver(address(0)) */\n      0x04\n      dup3\n      add\n        /* \"#utility.yul\":2101:2152   */\n      mstore\n        /* \"#utility.yul\":2074:2092   */\n      0x24\n      add\n        /* \"@openzeppelin/contracts/token/ERC20/ERC20.sol\":5873:5905  ERC20InvalidReceiver(address(0)) */\n      tag_219\n        /* \"#utility.yul\":1955:2158   */\n      jump\n        /* \"@openzeppelin/contracts/token/ERC20/ERC20.sol\":5830:5916  if (to == address(0)) {... */\n    tag_294:\n        /* \"@openzeppelin/contracts/token/ERC20/ERC20.sol\":5925:5949  _update(from, to, value) */\n      tag_275\n        /* \"@openzeppelin/contracts/token/ERC20/ERC20.sol\":5933:5937  from */\n      dup4\n        /* \"@openzeppelin/contracts/token/ERC20/ERC20.sol\":5939:5941  to */\n      dup4\n        /* \"@openzeppelin/contracts/token/ERC20/ERC20.sol\":5943:5948  value */\n      dup4\n        /* \"@openzeppelin/contracts/token/ERC20/ERC20.sol\":5925:5932  _update */\n      tag_297\n        /* \"@openzeppelin/contracts/token/ERC20/ERC20.sol\":5925:5949  _update(from, to, value) */\n      jump\t// in\n        /* \"@openzeppelin/contracts/security/ReentrancyGuard.sol\":2336:2623  function _nonReentrantBefore() private {... */\n    tag_204:\n        /* \"@openzeppelin/contracts/security/ReentrancyGuard.sol\":1759:1760  2 */\n      0x02\n        /* \"@openzeppelin/contracts/security/ReentrancyGuard.sol\":2468:2475  _status */\n      sload(0x05)\n        /* \"@openzeppelin/contracts/security/ReentrancyGuard.sol\":2468:2487  _status != _ENTERED */\n      sub\n        /* \"@openzeppelin/contracts/security/ReentrancyGuard.sol\":2460:2523  require(_status != _ENTERED, \"ReentrancyGuard: reentrant call\") */\n      tag_300\n      jumpi\n      mload(0x40)\n      shl(0xe5, 0x461bcd)\n      dup2\n      mstore\n        /* \"#utility.yul\":6311:6313   */\n      0x20\n        /* \"@openzeppelin/contracts/security/ReentrancyGuard.sol\":2460:2523  require(_status != _ENTERED, \"ReentrancyGuard: reentrant call\") */\n      0x04\n      dup3\n      add\n        /* \"#utility.yul\":6293:6314   */\n      mstore\n        /* \"#utility.yul\":6350:6352   */\n      0x1f\n        /* \"#utility.yul\":6330:6348   */\n      0x24\n      dup3\n      add\n        /* \"#utility.yul\":6323:6353   */\n      mstore\n        /* \"#utility.yul\":6389:6422   */\n      0x5265656e7472616e637947756172643a207265656e7472616e742063616c6c00\n        /* \"#utility.yul\":6369:6387   */\n      0x44\n      dup3\n      add\n        /* \"#utility.yul\":6362:6423   */\n      mstore\n        /* \"#utility.yul\":6440:6458   */\n      0x64\n      add\n        /* \"@openzeppelin/contracts/security/ReentrancyGuard.sol\":2460:2523  require(_status != _ENTERED, \"ReentrancyGuard: reentrant call\") */\n      tag_219\n        /* \"#utility.yul\":6109:6464   */\n      jump\n        /* \"@openzeppelin/contracts/security/ReentrancyGuard.sol\":2460:2523  require(_status != _ENTERED, \"ReentrancyGuard: reentrant call\") */\n    tag_300:\n        /* \"@openzeppelin/contracts/security/ReentrancyGuard.sol\":1759:1760  2 */\n      0x02\n        /* \"@openzeppelin/contracts/security/ReentrancyGuard.sol\":2598:2605  _status */\n      0x05\n        /* \"@openzeppelin/contracts/security/ReentrancyGuard.sol\":2598:2616  _status = _ENTERED */\n      sstore\n        /* \"@openzeppelin/contracts/security/ReentrancyGuard.sol\":2336:2623  function _nonReentrantBefore() private {... */\n      jump\t// out\n        /* \"contracts/protocol/TuliaVault.sol\":1739:2125  function _accrueYield() internal {... */\n    tag_207:\n        /* \"contracts/protocol/TuliaVault.sol\":1783:1802  uint256 timeElapsed */\n      0x00\n        /* \"contracts/protocol/TuliaVault.sol\":1823:1843  lastYieldAccrualTime */\n      sload(0x06)\n        /* \"contracts/protocol/TuliaVault.sol\":1805:1820  block.timestamp */\n      timestamp\n        /* \"contracts/protocol/TuliaVault.sol\":1805:1843  block.timestamp - lastYieldAccrualTime */\n      tag_304\n      swap2\n      swap1\n      tag_305\n      jump\t// in\n    tag_304:\n        /* \"contracts/protocol/TuliaVault.sol\":1783:1843  uint256 timeElapsed = block.timestamp - lastYieldAccrualTime */\n      swap1\n      pop\n        /* \"contracts/protocol/TuliaVault.sol\":483:489  1 days */\n      0x015180\n        /* \"contracts/protocol/TuliaVault.sol\":1858:1869  timeElapsed */\n      dup2\n        /* \"contracts/protocol/TuliaVault.sol\":1858:1893  timeElapsed >= YIELD_ACCRUAL_PERIOD */\n      lt\n        /* \"contracts/protocol/TuliaVault.sol\":1854:2118  if (timeElapsed >= YIELD_ACCRUAL_PERIOD) {... */\n      tag_306\n      jumpi\n        /* \"contracts/protocol/TuliaVault.sol\":1910:1929  uint256 yieldAmount */\n      0x00\n        /* \"contracts/protocol/TuliaVault.sol\":1932:1960  _calculateYield(timeElapsed) */\n      tag_307\n        /* \"contracts/protocol/TuliaVault.sol\":1948:1959  timeElapsed */\n      dup3\n        /* \"contracts/protocol/TuliaVault.sol\":1932:1947  _calculateYield */\n      tag_308\n        /* \"contracts/protocol/TuliaVault.sol\":1932:1960  _calculateYield(timeElapsed) */\n      jump\t// in\n    tag_307:\n        /* \"contracts/protocol/TuliaVault.sol\":1910:1960  uint256 yieldAmount = _calculateYield(timeElapsed) */\n      swap1\n      pop\n        /* \"contracts/protocol/TuliaVault.sol\":1975:2008  _mint(address(this), yieldAmount) */\n      tag_309\n        /* \"contracts/protocol/TuliaVault.sol\":1989:1993  this */\n      address\n        /* \"contracts/protocol/TuliaVault.sol\":1996:2007  yieldAmount */\n      dup3\n        /* \"contracts/protocol/TuliaVault.sol\":1975:1980  _mint */\n      tag_310\n        /* \"contracts/protocol/TuliaVault.sol\":1975:2008  _mint(address(this), yieldAmount) */\n      jump\t// in\n    tag_309:\n        /* \"contracts/protocol/TuliaVault.sol\":2046:2061  block.timestamp */\n      timestamp\n        /* \"contracts/protocol/TuliaVault.sol\":2023:2043  lastYieldAccrualTime */\n      0x06\n        /* \"contracts/protocol/TuliaVault.sol\":2023:2061  lastYieldAccrualTime = block.timestamp */\n      sstore\n        /* \"contracts/protocol/TuliaVault.sol\":2081:2106  YieldAccrued(yieldAmount) */\n      mload(0x40)\n        /* \"#utility.yul\":160:185   */\n      dup2\n      dup2\n      mstore\n        /* \"contracts/protocol/TuliaVault.sol\":2081:2106  YieldAccrued(yieldAmount) */\n      0x3b6bc0ba304eaa17cdca1b053baac859e721c7a775cddefc825f6286641311fc\n      swap1\n        /* \"#utility.yul\":148:150   */\n      0x20\n        /* \"#utility.yul\":133:151   */\n      add\n        /* \"contracts/protocol/TuliaVault.sol\":2081:2106  YieldAccrued(yieldAmount) */\n      mload(0x40)\n      dup1\n      swap2\n      sub\n      swap1\n      log1\n        /* \"contracts/protocol/TuliaVault.sol\":1895:2118  {... */\n      pop\n        /* \"contracts/protocol/TuliaVault.sol\":1854:2118  if (timeElapsed >= YIELD_ACCRUAL_PERIOD) {... */\n    tag_306:\n        /* \"contracts/protocol/TuliaVault.sol\":1772:2125  {... */\n      pop\n        /* \"contracts/protocol/TuliaVault.sol\":1739:2125  function _accrueYield() internal {... */\n      jump\t// out\n        /* \"@openzeppelin/contracts/token/ERC20/extensions/ERC4626.sol\":7809:8201  function deposit(uint256 assets, address receiver) public virtual returns (uint256) {... */\n    tag_209:\n        /* \"@openzeppelin/contracts/token/ERC20/extensions/ERC4626.sol\":7884:7891  uint256 */\n      0x00\n      not(0x00)\n        /* \"@openzeppelin/contracts/token/ERC20/extensions/ERC4626.sol\":8073:8087  uint256 shares */\n      0x00\n        /* \"@openzeppelin/contracts/token/ERC20/extensions/ERC4626.sol\":8090:8112  previewDeposit(assets) */\n      tag_316\n        /* \"@openzeppelin/contracts/token/ERC20/extensions/ERC4626.sol\":8105:8111  assets */\n      dup6\n        /* \"@openzeppelin/contracts/token/ERC20/extensions/ERC4626.sol\":8090:8104  previewDeposit */\n      tag_136\n        /* \"@openzeppelin/contracts/token/ERC20/extensions/ERC4626.sol\":8090:8112  previewDeposit(assets) */\n      jump\t// in\n    tag_316:\n        /* \"@openzeppelin/contracts/token/ERC20/extensions/ERC4626.sol\":8073:8112  uint256 shares = previewDeposit(assets) */\n      swap1\n      pop\n        /* \"@openzeppelin/contracts/token/ERC20/extensions/ERC4626.sol\":8122:8170  _deposit(_msgSender(), receiver, assets, shares) */\n      tag_222\n        /* \"@openzeppelin/contracts/utils/Context.sol\":735:745  msg.sender */\n      caller\n        /* \"@openzeppelin/contracts/token/ERC20/extensions/ERC4626.sol\":8145:8153  receiver */\n      dup6\n        /* \"@openzeppelin/contracts/token/ERC20/extensions/ERC4626.sol\":8155:8161  assets */\n      dup8\n        /* \"@openzeppelin/contracts/token/ERC20/extensions/ERC4626.sol\":8163:8169  shares */\n      dup5\n        /* \"@openzeppelin/contracts/token/ERC20/extensions/ERC4626.sol\":10496:11326  function _deposit(address caller, address receiver, uint256 assets, uint256 shares) internal virtual {... */\n    tag_224:\n        /* \"@openzeppelin/contracts/token/ERC20/extensions/ERC4626.sol\":11164:11229  SafeERC20.safeTransferFrom(_asset, caller, address(this), assets) */\n      tag_321\n        /* \"@openzeppelin/contracts/token/ERC20/extensions/ERC4626.sol\":11191:11197  _asset */\n      immutable(\"0x57d03f72a618a841c753598d7d2cbcbbd5f43a73c69f9abc886bd29cf4101ea1\")\n        /* \"@openzeppelin/contracts/token/ERC20/extensions/ERC4626.sol\":11199:11205  caller */\n      dup6\n        /* \"@openzeppelin/contracts/token/ERC20/extensions/ERC4626.sol\":11215:11219  this */\n      address\n        /* \"@openzeppelin/contracts/token/ERC20/extensions/ERC4626.sol\":11222:11228  assets */\n      dup6\n        /* \"@openzeppelin/contracts/token/ERC20/extensions/ERC4626.sol\":11164:11190  SafeERC20.safeTransferFrom */\n      tag_322\n        /* \"@openzeppelin/contracts/token/ERC20/extensions/ERC4626.sol\":11164:11229  SafeERC20.safeTransferFrom(_asset, caller, address(this), assets) */\n      jump\t// in\n    tag_321:\n        /* \"@openzeppelin/contracts/token/ERC20/extensions/ERC4626.sol\":11239:11262  _mint(receiver, shares) */\n      tag_323\n        /* \"@openzeppelin/contracts/token/ERC20/extensions/ERC4626.sol\":11245:11253  receiver */\n      dup4\n        /* \"@openzeppelin/contracts/token/ERC20/extensions/ERC4626.sol\":11255:11261  shares */\n      dup3\n        /* \"@openzeppelin/contracts/token/ERC20/extensions/ERC4626.sol\":11239:11244  _mint */\n      tag_310\n        /* \"@openzeppelin/contracts/token/ERC20/extensions/ERC4626.sol\":11239:11262  _mint(receiver, shares) */\n      jump\t// in\n    tag_323:\n        /* \"@openzeppelin/contracts/token/ERC20/extensions/ERC4626.sol\":11294:11302  receiver */\n      dup3\n      sub(shl(0xa0, 0x01), 0x01)\n        /* \"@openzeppelin/contracts/token/ERC20/extensions/ERC4626.sol\":11278:11319  Deposit(caller, receiver, assets, shares) */\n      and\n        /* \"@openzeppelin/contracts/token/ERC20/extensions/ERC4626.sol\":11286:11292  caller */\n      dup5\n      sub(shl(0xa0, 0x01), 0x01)\n        /* \"@openzeppelin/contracts/token/ERC20/extensions/ERC4626.sol\":11278:11319  Deposit(caller, receiver, assets, shares) */\n      and\n      0xdcbc1c05240f31ff3ad067ef1ee35ce4997762752e3a095284754544f4c709d7\n        /* \"@openzeppelin/contracts/token/ERC20/extensions/ERC4626.sol\":11304:11310  assets */\n      dup5\n        /* \"@openzeppelin/contracts/token/ERC20/extensions/ERC4626.sol\":11312:11318  shares */\n      dup5\n        /* \"@openzeppelin/contracts/token/ERC20/extensions/ERC4626.sol\":11278:11319  Deposit(caller, receiver, assets, shares) */\n      mload(0x40)\n      tag_324\n      swap3\n      swap2\n      swap1\n        /* \"#utility.yul\":6776:6801   */\n      swap2\n      dup3\n      mstore\n        /* \"#utility.yul\":6832:6834   */\n      0x20\n        /* \"#utility.yul\":6817:6835   */\n      dup3\n      add\n        /* \"#utility.yul\":6810:6844   */\n      mstore\n        /* \"#utility.yul\":6764:6766   */\n      0x40\n        /* \"#utility.yul\":6749:6767   */\n      add\n      swap1\n        /* \"#utility.yul\":6602:6850   */\n      jump\n        /* \"@openzeppelin/contracts/token/ERC20/extensions/ERC4626.sol\":11278:11319  Deposit(caller, receiver, assets, shares) */\n    tag_324:\n      mload(0x40)\n      dup1\n      swap2\n      sub\n      swap1\n      log3\n        /* \"@openzeppelin/contracts/token/ERC20/extensions/ERC4626.sol\":10496:11326  function _deposit(address caller, address receiver, uint256 assets, uint256 shares) internal virtual {... */\n      pop\n      pop\n      pop\n      pop\n      jump\t// out\n        /* \"@openzeppelin/contracts/token/ERC20/extensions/ERC4626.sol\":8895:9308  function withdraw(uint256 assets, address receiver, address owner) public virtual returns (uint256) {... */\n    tag_241:\n        /* \"@openzeppelin/contracts/token/ERC20/extensions/ERC4626.sol\":8986:8993  uint256 */\n      0x00\n        /* \"@openzeppelin/contracts/token/ERC20/extensions/ERC4626.sol\":9005:9022  uint256 maxAssets */\n      dup1\n        /* \"@openzeppelin/contracts/token/ERC20/extensions/ERC4626.sol\":9025:9043  maxWithdraw(owner) */\n      tag_327\n        /* \"@openzeppelin/contracts/token/ERC20/extensions/ERC4626.sol\":9037:9042  owner */\n      dup4\n        /* \"@openzeppelin/contracts/token/ERC20/extensions/ERC4626.sol\":9025:9036  maxWithdraw */\n      tag_140\n        /* \"@openzeppelin/contracts/token/ERC20/extensions/ERC4626.sol\":9025:9043  maxWithdraw(owner) */\n      jump\t// in\n    tag_327:\n        /* \"@openzeppelin/contracts/token/ERC20/extensions/ERC4626.sol\":9005:9043  uint256 maxAssets = maxWithdraw(owner) */\n      swap1\n      pop\n        /* \"@openzeppelin/contracts/token/ERC20/extensions/ERC4626.sol\":9066:9075  maxAssets */\n      dup1\n        /* \"@openzeppelin/contracts/token/ERC20/extensions/ERC4626.sol\":9057:9063  assets */\n      dup6\n        /* \"@openzeppelin/contracts/token/ERC20/extensions/ERC4626.sol\":9057:9075  assets > maxAssets */\n      gt\n        /* \"@openzeppelin/contracts/token/ERC20/extensions/ERC4626.sol\":9053:9161  if (assets > maxAssets) {... */\n      iszero\n      tag_328\n      jumpi\n        /* \"@openzeppelin/contracts/token/ERC20/extensions/ERC4626.sol\":9125:9130  owner */\n      dup3\n        /* \"@openzeppelin/contracts/token/ERC20/extensions/ERC4626.sol\":9132:9138  assets */\n      dup6\n        /* \"@openzeppelin/contracts/token/ERC20/extensions/ERC4626.sol\":9140:9149  maxAssets */\n      dup3\n        /* \"@openzeppelin/contracts/token/ERC20/extensions/ERC4626.sol\":9098:9150  ERC4626ExceededMaxWithdraw(owner, assets, maxAssets) */\n      mload(0x40)\n      shl(0xe2, 0x3fa733bb)\n      dup2\n      mstore\n      0x04\n      add\n      tag_219\n      swap4\n      swap3\n      swap2\n      swap1\n      tag_220\n      jump\t// in\n        /* \"@openzeppelin/contracts/token/ERC20/extensions/ERC4626.sol\":9053:9161  if (assets > maxAssets) {... */\n    tag_328:\n        /* \"@openzeppelin/contracts/token/ERC20/extensions/ERC4626.sol\":9171:9185  uint256 shares */\n      0x00\n        /* \"@openzeppelin/contracts/token/ERC20/extensions/ERC4626.sol\":9188:9211  previewWithdraw(assets) */\n      tag_330\n        /* \"@openzeppelin/contracts/token/ERC20/extensions/ERC4626.sol\":9204:9210  assets */\n      dup7\n        /* \"@openzeppelin/contracts/token/ERC20/extensions/ERC4626.sol\":9188:9203  previewWithdraw */\n      tag_61\n        /* \"@openzeppelin/contracts/token/ERC20/extensions/ERC4626.sol\":9188:9211  previewWithdraw(assets) */\n      jump\t// in\n    tag_330:\n        /* \"@openzeppelin/contracts/token/ERC20/extensions/ERC4626.sol\":9171:9211  uint256 shares = previewWithdraw(assets) */\n      swap1\n      pop\n        /* \"@openzeppelin/contracts/token/ERC20/extensions/ERC4626.sol\":9221:9277  _withdraw(_msgSender(), receiver, owner, assets, shares) */\n      tag_248\n        /* \"@openzeppelin/contracts/utils/Context.sol\":735:745  msg.sender */\n      caller\n        /* \"@openzeppelin/contracts/token/ERC20/extensions/ERC4626.sol\":9245:9253  receiver */\n      dup7\n        /* \"@openzeppelin/contracts/token/ERC20/extensions/ERC4626.sol\":9255:9260  owner */\n      dup7\n        /* \"@openzeppelin/contracts/token/ERC20/extensions/ERC4626.sol\":9262:9268  assets */\n      dup10\n        /* \"@openzeppelin/contracts/token/ERC20/extensions/ERC4626.sol\":9270:9276  shares */\n      dup6\n        /* \"@openzeppelin/contracts/token/ERC20/extensions/ERC4626.sol\":11393:12307  function _withdraw(... */\n    tag_250:\n        /* \"@openzeppelin/contracts/token/ERC20/extensions/ERC4626.sol\":11580:11585  owner */\n      dup3\n      sub(shl(0xa0, 0x01), 0x01)\n        /* \"@openzeppelin/contracts/token/ERC20/extensions/ERC4626.sol\":11570:11585  caller != owner */\n      and\n        /* \"@openzeppelin/contracts/token/ERC20/extensions/ERC4626.sol\":11570:11576  caller */\n      dup6\n      sub(shl(0xa0, 0x01), 0x01)\n        /* \"@openzeppelin/contracts/token/ERC20/extensions/ERC4626.sol\":11570:11585  caller != owner */\n      and\n      eq\n        /* \"@openzeppelin/contracts/token/ERC20/extensions/ERC4626.sol\":11566:11650  if (caller != owner) {... */\n      tag_335\n      jumpi\n        /* \"@openzeppelin/contracts/token/ERC20/extensions/ERC4626.sol\":11601:11639  _spendAllowance(owner, caller, shares) */\n      tag_335\n        /* \"@openzeppelin/contracts/token/ERC20/extensions/ERC4626.sol\":11617:11622  owner */\n      dup4\n        /* \"@openzeppelin/contracts/token/ERC20/extensions/ERC4626.sol\":11624:11630  caller */\n      dup7\n        /* \"@openzeppelin/contracts/token/ERC20/extensions/ERC4626.sol\":11632:11638  shares */\n      dup4\n        /* \"@openzeppelin/contracts/token/ERC20/extensions/ERC4626.sol\":11601:11616  _spendAllowance */\n      tag_190\n        /* \"@openzeppelin/contracts/token/ERC20/extensions/ERC4626.sol\":11601:11639  _spendAllowance(owner, caller, shares) */\n      jump\t// in\n    tag_335:\n        /* \"@openzeppelin/contracts/token/ERC20/extensions/ERC4626.sol\":12157:12177  _burn(owner, shares) */\n      tag_336\n        /* \"@openzeppelin/contracts/token/ERC20/extensions/ERC4626.sol\":12163:12168  owner */\n      dup4\n        /* \"@openzeppelin/contracts/token/ERC20/extensions/ERC4626.sol\":12170:12176  shares */\n      dup3\n        /* \"@openzeppelin/contracts/token/ERC20/extensions/ERC4626.sol\":12157:12162  _burn */\n      tag_337\n        /* \"@openzeppelin/contracts/token/ERC20/extensions/ERC4626.sol\":12157:12177  _burn(owner, shares) */\n      jump\t// in\n    tag_336:\n        /* \"@openzeppelin/contracts/token/ERC20/extensions/ERC4626.sol\":12187:12235  SafeERC20.safeTransfer(_asset, receiver, assets) */\n      tag_338\n        /* \"@openzeppelin/contracts/token/ERC20/extensions/ERC4626.sol\":12210:12216  _asset */\n      immutable(\"0x57d03f72a618a841c753598d7d2cbcbbd5f43a73c69f9abc886bd29cf4101ea1\")\n        /* \"@openzeppelin/contracts/token/ERC20/extensions/ERC4626.sol\":12218:12226  receiver */\n      dup6\n        /* \"@openzeppelin/contracts/token/ERC20/extensions/ERC4626.sol\":12228:12234  assets */\n      dup5\n        /* \"@openzeppelin/contracts/token/ERC20/extensions/ERC4626.sol\":12187:12209  SafeERC20.safeTransfer */\n      tag_339\n        /* \"@openzeppelin/contracts/token/ERC20/extensions/ERC4626.sol\":12187:12235  SafeERC20.safeTransfer(_asset, receiver, assets) */\n      jump\t// in\n    tag_338:\n        /* \"@openzeppelin/contracts/token/ERC20/extensions/ERC4626.sol\":12278:12283  owner */\n      dup3\n      sub(shl(0xa0, 0x01), 0x01)\n        /* \"@openzeppelin/contracts/token/ERC20/extensions/ERC4626.sol\":12251:12300  Withdraw(caller, receiver, owner, assets, shares) */\n      and\n        /* \"@openzeppelin/contracts/token/ERC20/extensions/ERC4626.sol\":12268:12276  receiver */\n      dup5\n      sub(shl(0xa0, 0x01), 0x01)\n        /* \"@openzeppelin/contracts/token/ERC20/extensions/ERC4626.sol\":12251:12300  Withdraw(caller, receiver, owner, assets, shares) */\n      and\n        /* \"@openzeppelin/contracts/token/ERC20/extensions/ERC4626.sol\":12260:12266  caller */\n      dup7\n      sub(shl(0xa0, 0x01), 0x01)\n        /* \"@openzeppelin/contracts/token/ERC20/extensions/ERC4626.sol\":12251:12300  Withdraw(caller, receiver, owner, assets, shares) */\n      and\n      0xfbde797d201c681b91056529119e0b02407c7bb96a4a2c75c01fc9667232c8db\n        /* \"@openzeppelin/contracts/token/ERC20/extensions/ERC4626.sol\":12285:12291  assets */\n      dup6\n        /* \"@openzeppelin/contracts/token/ERC20/extensions/ERC4626.sol\":12293:12299  shares */\n      dup6\n        /* \"@openzeppelin/contracts/token/ERC20/extensions/ERC4626.sol\":12251:12300  Withdraw(caller, receiver, owner, assets, shares) */\n      mload(0x40)\n      tag_340\n      swap3\n      swap2\n      swap1\n        /* \"#utility.yul\":6776:6801   */\n      swap2\n      dup3\n      mstore\n        /* \"#utility.yul\":6832:6834   */\n      0x20\n        /* \"#utility.yul\":6817:6835   */\n      dup3\n      add\n        /* \"#utility.yul\":6810:6844   */\n      mstore\n        /* \"#utility.yul\":6764:6766   */\n      0x40\n        /* \"#utility.yul\":6749:6767   */\n      add\n      swap1\n        /* \"#utility.yul\":6602:6850   */\n      jump\n        /* \"@openzeppelin/contracts/token/ERC20/extensions/ERC4626.sol\":12251:12300  Withdraw(caller, receiver, owner, assets, shares) */\n    tag_340:\n      mload(0x40)\n      dup1\n      swap2\n      sub\n      swap1\n      log4\n        /* \"@openzeppelin/contracts/token/ERC20/extensions/ERC4626.sol\":11393:12307  function _withdraw(... */\n      pop\n      pop\n      pop\n      pop\n      pop\n      jump\t// out\n        /* \"@openzeppelin/contracts/utils/math/Math.sol\":8051:8353  function mulDiv(uint256 x, uint256 y, uint256 denominator, Rounding rounding) internal pure returns (uint256) {... */\n    tag_272:\n        /* \"@openzeppelin/contracts/utils/math/Math.sol\":8152:8159  uint256 */\n      0x00\n        /* \"@openzeppelin/contracts/utils/math/Math.sol\":8171:8185  uint256 result */\n      dup1\n        /* \"@openzeppelin/contracts/utils/math/Math.sol\":8188:8213  mulDiv(x, y, denominator) */\n      tag_342\n        /* \"@openzeppelin/contracts/utils/math/Math.sol\":8195:8196  x */\n      dup7\n        /* \"@openzeppelin/contracts/utils/math/Math.sol\":8198:8199  y */\n      dup7\n        /* \"@openzeppelin/contracts/utils/math/Math.sol\":8201:8212  denominator */\n      dup7\n        /* \"@openzeppelin/contracts/utils/math/Math.sol\":8188:8194  mulDiv */\n      tag_343\n        /* \"@openzeppelin/contracts/utils/math/Math.sol\":8188:8213  mulDiv(x, y, denominator) */\n      jump\t// in\n    tag_342:\n        /* \"@openzeppelin/contracts/utils/math/Math.sol\":8171:8213  uint256 result = mulDiv(x, y, denominator) */\n      swap1\n      pop\n        /* \"@openzeppelin/contracts/utils/math/Math.sol\":8227:8253  unsignedRoundsUp(rounding) */\n      tag_344\n        /* \"@openzeppelin/contracts/utils/math/Math.sol\":8244:8252  rounding */\n      dup4\n        /* \"@openzeppelin/contracts/utils/math/Math.sol\":8227:8243  unsignedRoundsUp */\n      tag_345\n        /* \"@openzeppelin/contracts/utils/math/Math.sol\":8227:8253  unsignedRoundsUp(rounding) */\n      jump\t// in\n    tag_344:\n        /* \"@openzeppelin/contracts/utils/math/Math.sol\":8227:8286  unsignedRoundsUp(rounding) && mulmod(x, y, denominator) > 0 */\n      dup1\n      iszero\n      tag_346\n      jumpi\n      pop\n        /* \"@openzeppelin/contracts/utils/math/Math.sol\":8285:8286  0 */\n      0x00\n        /* \"@openzeppelin/contracts/utils/math/Math.sol\":8270:8281  denominator */\n      dup5\n        /* \"@openzeppelin/contracts/utils/math/Math.sol\":8257:8282  mulmod(x, y, denominator) */\n      dup1\n      tag_348\n      jumpi\n      tag_348\n      tag_349\n      jump\t// in\n    tag_348:\n        /* \"@openzeppelin/contracts/utils/math/Math.sol\":8267:8268  y */\n      dup7\n        /* \"@openzeppelin/contracts/utils/math/Math.sol\":8264:8265  x */\n      dup9\n        /* \"@openzeppelin/contracts/utils/math/Math.sol\":8257:8282  mulmod(x, y, denominator) */\n      mulmod\n        /* \"@openzeppelin/contracts/utils/math/Math.sol\":8257:8286  mulmod(x, y, denominator) > 0 */\n      gt\n        /* \"@openzeppelin/contracts/utils/math/Math.sol\":8227:8286  unsignedRoundsUp(rounding) && mulmod(x, y, denominator) > 0 */\n    tag_346:\n        /* \"@openzeppelin/contracts/utils/math/Math.sol\":8223:8324  if (unsignedRoundsUp(rounding) && mulmod(x, y, denominator) > 0) {... */\n      iszero\n      tag_248\n      jumpi\n        /* \"@openzeppelin/contracts/utils/math/Math.sol\":8302:8313  result += 1 */\n      tag_351\n        /* \"@openzeppelin/contracts/utils/math/Math.sol\":8312:8313  1 */\n      0x01\n        /* \"@openzeppelin/contracts/utils/math/Math.sol\":8302:8313  result += 1 */\n      dup3\n      tag_266\n      jump\t// in\n    tag_351:\n      swap7\n        /* \"@openzeppelin/contracts/utils/math/Math.sol\":8340:8346  result */\n      swap6\n      pop\n      pop\n      pop\n      pop\n      pop\n      pop\n        /* \"@openzeppelin/contracts/utils/math/Math.sol\":8051:8353  function mulDiv(uint256 x, uint256 y, uint256 denominator, Rounding rounding) internal pure returns (uint256) {... */\n      jump\t// out\n        /* \"@openzeppelin/contracts/token/ERC20/ERC20.sol\":9949:10381  function _approve(address owner, address spender, uint256 value, bool emitEvent) internal virtual {... */\n    tag_276:\n      sub(shl(0xa0, 0x01), 0x01)\n        /* \"@openzeppelin/contracts/token/ERC20/ERC20.sol\":10061:10080  owner == address(0) */\n      dup5\n      and\n        /* \"@openzeppelin/contracts/token/ERC20/ERC20.sol\":10057:10146  if (owner == address(0)) {... */\n      tag_353\n      jumpi\n        /* \"@openzeppelin/contracts/token/ERC20/ERC20.sol\":10103:10135  ERC20InvalidApprover(address(0)) */\n      mload(0x40)\n      shl(0xe0, 0xe602df05)\n      dup2\n      mstore\n        /* \"@openzeppelin/contracts/token/ERC20/ERC20.sol\":10132:10133  0 */\n      0x00\n        /* \"@openzeppelin/contracts/token/ERC20/ERC20.sol\":10103:10135  ERC20InvalidApprover(address(0)) */\n      0x04\n      dup3\n      add\n        /* \"#utility.yul\":2101:2152   */\n      mstore\n        /* \"#utility.yul\":2074:2092   */\n      0x24\n      add\n        /* \"@openzeppelin/contracts/token/ERC20/ERC20.sol\":10103:10135  ERC20InvalidApprover(address(0)) */\n      tag_219\n        /* \"#utility.yul\":1955:2158   */\n      jump\n        /* \"@openzeppelin/contracts/token/ERC20/ERC20.sol\":10057:10146  if (owner == address(0)) {... */\n    tag_353:\n      sub(shl(0xa0, 0x01), 0x01)\n        /* \"@openzeppelin/contracts/token/ERC20/ERC20.sol\":10159:10180  spender == address(0) */\n      dup4\n      and\n        /* \"@openzeppelin/contracts/token/ERC20/ERC20.sol\":10155:10245  if (spender == address(0)) {... */\n      tag_355\n      jumpi\n        /* \"@openzeppelin/contracts/token/ERC20/ERC20.sol\":10203:10234  ERC20InvalidSpender(address(0)) */\n      mload(0x40)\n      shl(0xe1, 0x4a1406b1)\n      dup2\n      mstore\n        /* \"@openzeppelin/contracts/token/ERC20/ERC20.sol\":10231:10232  0 */\n      0x00\n        /* \"@openzeppelin/contracts/token/ERC20/ERC20.sol\":10203:10234  ERC20InvalidSpender(address(0)) */\n      0x04\n      dup3\n      add\n        /* \"#utility.yul\":2101:2152   */\n      mstore\n        /* \"#utility.yul\":2074:2092   */\n      0x24\n      add\n        /* \"@openzeppelin/contracts/token/ERC20/ERC20.sol\":10203:10234  ERC20InvalidSpender(address(0)) */\n      tag_219\n        /* \"#utility.yul\":1955:2158   */\n      jump\n        /* \"@openzeppelin/contracts/token/ERC20/ERC20.sol\":10155:10245  if (spender == address(0)) {... */\n    tag_355:\n      sub(shl(0xa0, 0x01), 0x01)\n        /* \"@openzeppelin/contracts/token/ERC20/ERC20.sol\":10254:10272  _allowances[owner] */\n      dup1\n      dup6\n      and\n      0x00\n      swap1\n      dup2\n      mstore\n        /* \"@openzeppelin/contracts/token/ERC20/ERC20.sol\":10254:10265  _allowances */\n      0x01\n        /* \"@openzeppelin/contracts/token/ERC20/ERC20.sol\":10254:10272  _allowances[owner] */\n      0x20\n      swap1\n      dup2\n      mstore\n      0x40\n      dup1\n      dup4\n      keccak256\n        /* \"@openzeppelin/contracts/token/ERC20/ERC20.sol\":10254:10281  _allowances[owner][spender] */\n      swap4\n      dup8\n      and\n      dup4\n      mstore\n      swap3\n      swap1\n      mstore\n      keccak256\n        /* \"@openzeppelin/contracts/token/ERC20/ERC20.sol\":10254:10289  _allowances[owner][spender] = value */\n      dup3\n      swap1\n      sstore\n        /* \"@openzeppelin/contracts/token/ERC20/ERC20.sol\":10299:10375  if (emitEvent) {... */\n      dup1\n      iszero\n      tag_290\n      jumpi\n        /* \"@openzeppelin/contracts/token/ERC20/ERC20.sol\":10349:10356  spender */\n      dup3\n      sub(shl(0xa0, 0x01), 0x01)\n        /* \"@openzeppelin/contracts/token/ERC20/ERC20.sol\":10333:10364  Approval(owner, spender, value) */\n      and\n        /* \"@openzeppelin/contracts/token/ERC20/ERC20.sol\":10342:10347  owner */\n      dup5\n      sub(shl(0xa0, 0x01), 0x01)\n        /* \"@openzeppelin/contracts/token/ERC20/ERC20.sol\":10333:10364  Approval(owner, spender, value) */\n      and\n      0x8c5be1e5ebec7d5bd14f71427d1e84f3dd0314c0f7b2291e5b200ac8c7c3b925\n        /* \"@openzeppelin/contracts/token/ERC20/ERC20.sol\":10358:10363  value */\n      dup5\n        /* \"@openzeppelin/contracts/token/ERC20/ERC20.sol\":10333:10364  Approval(owner, spender, value) */\n      mload(0x40)\n      tag_324\n      swap2\n        /* \"#utility.yul\":160:185   */\n      dup2\n      mstore\n        /* \"#utility.yul\":148:150   */\n      0x20\n        /* \"#utility.yul\":133:151   */\n      add\n      swap1\n        /* \"#utility.yul\":14:191   */\n      jump\n        /* \"@openzeppelin/contracts/token/ERC20/ERC20.sol\":6271:7378  function _update(address from, address to, uint256 value) internal virtual {... */\n    tag_297:\n      sub(shl(0xa0, 0x01), 0x01)\n        /* \"@openzeppelin/contracts/token/ERC20/ERC20.sol\":6360:6378  from == address(0) */\n      dup4\n      and\n        /* \"@openzeppelin/contracts/token/ERC20/ERC20.sol\":6356:6896  if (from == address(0)) {... */\n      tag_360\n      jumpi\n        /* \"@openzeppelin/contracts/token/ERC20/ERC20.sol\":6512:6517  value */\n      dup1\n        /* \"@openzeppelin/contracts/token/ERC20/ERC20.sol\":6496:6508  _totalSupply */\n      0x02\n      0x00\n        /* \"@openzeppelin/contracts/token/ERC20/ERC20.sol\":6496:6517  _totalSupply += value */\n      dup3\n      dup3\n      sload\n      tag_361\n      swap2\n      swap1\n      tag_266\n      jump\t// in\n    tag_361:\n      swap1\n      swap2\n      sstore\n      pop\n        /* \"@openzeppelin/contracts/token/ERC20/ERC20.sol\":6356:6896  if (from == address(0)) {... */\n      tag_362\n      swap1\n      pop\n      jump\n    tag_360:\n      sub(shl(0xa0, 0x01), 0x01)\n        /* \"@openzeppelin/contracts/token/ERC20/ERC20.sol\":6570:6585  _balances[from] */\n      dup4\n      and\n        /* \"@openzeppelin/contracts/token/ERC20/ERC20.sol\":6548:6567  uint256 fromBalance */\n      0x00\n        /* \"@openzeppelin/contracts/token/ERC20/ERC20.sol\":6570:6585  _balances[from] */\n      swap1\n      dup2\n      mstore\n      0x20\n      dup2\n      swap1\n      mstore\n      0x40\n      swap1\n      keccak256\n      sload\n        /* \"@openzeppelin/contracts/token/ERC20/ERC20.sol\":6603:6622  fromBalance < value */\n      dup2\n      dup2\n      lt\n        /* \"@openzeppelin/contracts/token/ERC20/ERC20.sol\":6599:6714  if (fromBalance < value) {... */\n      iszero\n      tag_363\n      jumpi\n        /* \"@openzeppelin/contracts/token/ERC20/ERC20.sol\":6674:6678  from */\n      dup4\n        /* \"@openzeppelin/contracts/token/ERC20/ERC20.sol\":6680:6691  fromBalance */\n      dup2\n        /* \"@openzeppelin/contracts/token/ERC20/ERC20.sol\":6693:6698  value */\n      dup4\n        /* \"@openzeppelin/contracts/token/ERC20/ERC20.sol\":6649:6699  ERC20InsufficientBalance(from, fromBalance, value) */\n      mload(0x40)\n      shl(0xe2, 0x391434e3)\n      dup2\n      mstore\n      0x04\n      add\n      tag_219\n      swap4\n      swap3\n      swap2\n      swap1\n      tag_220\n      jump\t// in\n        /* \"@openzeppelin/contracts/token/ERC20/ERC20.sol\":6599:6714  if (fromBalance < value) {... */\n    tag_363:\n      sub(shl(0xa0, 0x01), 0x01)\n        /* \"@openzeppelin/contracts/token/ERC20/ERC20.sol\":6834:6849  _balances[from] */\n      dup5\n      and\n        /* \"@openzeppelin/contracts/token/ERC20/ERC20.sol\":6834:6843  _balances */\n      0x00\n        /* \"@openzeppelin/contracts/token/ERC20/ERC20.sol\":6834:6849  _balances[from] */\n      swap1\n      dup2\n      mstore\n      0x20\n      dup2\n      swap1\n      mstore\n      0x40\n      swap1\n      keccak256\n        /* \"@openzeppelin/contracts/token/ERC20/ERC20.sol\":6852:6871  fromBalance - value */\n      swap1\n      dup3\n      swap1\n      sub\n        /* \"@openzeppelin/contracts/token/ERC20/ERC20.sol\":6834:6871  _balances[from] = fromBalance - value */\n      swap1\n      sstore\n        /* \"@openzeppelin/contracts/token/ERC20/ERC20.sol\":6356:6896  if (from == address(0)) {... */\n    tag_362:\n      sub(shl(0xa0, 0x01), 0x01)\n        /* \"@openzeppelin/contracts/token/ERC20/ERC20.sol\":6910:6926  to == address(0) */\n      dup3\n      and\n        /* \"@openzeppelin/contracts/token/ERC20/ERC20.sol\":6906:7331  if (to == address(0)) {... */\n      tag_365\n      jumpi\n        /* \"@openzeppelin/contracts/token/ERC20/ERC20.sol\":7073:7085  _totalSupply */\n      0x02\n        /* \"@openzeppelin/contracts/token/ERC20/ERC20.sol\":7073:7094  _totalSupply -= value */\n      dup1\n      sload\n      dup3\n      swap1\n      sub\n      swap1\n      sstore\n        /* \"@openzeppelin/contracts/token/ERC20/ERC20.sol\":6906:7331  if (to == address(0)) {... */\n      jump(tag_366)\n    tag_365:\n      sub(shl(0xa0, 0x01), 0x01)\n        /* \"@openzeppelin/contracts/token/ERC20/ERC20.sol\":7284:7297  _balances[to] */\n      dup3\n      and\n        /* \"@openzeppelin/contracts/token/ERC20/ERC20.sol\":7284:7293  _balances */\n      0x00\n        /* \"@openzeppelin/contracts/token/ERC20/ERC20.sol\":7284:7297  _balances[to] */\n      swap1\n      dup2\n      mstore\n      0x20\n      dup2\n      swap1\n      mstore\n      0x40\n      swap1\n      keccak256\n        /* \"@openzeppelin/contracts/token/ERC20/ERC20.sol\":7284:7306  _balances[to] += value */\n      dup1\n      sload\n      dup3\n      add\n      swap1\n      sstore\n        /* \"@openzeppelin/contracts/token/ERC20/ERC20.sol\":6906:7331  if (to == address(0)) {... */\n    tag_366:\n        /* \"@openzeppelin/contracts/token/ERC20/ERC20.sol\":7361:7363  to */\n      dup2\n      sub(shl(0xa0, 0x01), 0x01)\n        /* \"@openzeppelin/contracts/token/ERC20/ERC20.sol\":7346:7371  Transfer(from, to, value) */\n      and\n        /* \"@openzeppelin/contracts/token/ERC20/ERC20.sol\":7355:7359  from */\n      dup4\n      sub(shl(0xa0, 0x01), 0x01)\n        /* \"@openzeppelin/contracts/token/ERC20/ERC20.sol\":7346:7371  Transfer(from, to, value) */\n      and\n      0xddf252ad1be2c89b69c2b068fc378daa952ba7f163c4a11628f55a4df523b3ef\n        /* \"@openzeppelin/contracts/token/ERC20/ERC20.sol\":7365:7370  value */\n      dup4\n        /* \"@openzeppelin/contracts/token/ERC20/ERC20.sol\":7346:7371  Transfer(from, to, value) */\n      mload(0x40)\n      tag_367\n      swap2\n        /* \"#utility.yul\":160:185   */\n      dup2\n      mstore\n        /* \"#utility.yul\":148:150   */\n      0x20\n        /* \"#utility.yul\":133:151   */\n      add\n      swap1\n        /* \"#utility.yul\":14:191   */\n      jump\n        /* \"@openzeppelin/contracts/token/ERC20/ERC20.sol\":7346:7371  Transfer(from, to, value) */\n    tag_367:\n      mload(0x40)\n      dup1\n      swap2\n      sub\n      swap1\n      log3\n        /* \"@openzeppelin/contracts/token/ERC20/ERC20.sol\":6271:7378  function _update(address from, address to, uint256 value) internal virtual {... */\n      pop\n      pop\n      pop\n      jump\t// out\n        /* \"contracts/protocol/TuliaVault.sol\":2133:2430  function _calculateYield(uint256 timeElapsed) internal view returns (uint256) {... */\n    tag_308:\n        /* \"contracts/protocol/TuliaVault.sol\":2202:2209  uint256 */\n      0x00\n        /* \"contracts/protocol/TuliaVault.sol\":2222:2236  uint256 assets */\n      dup1\n        /* \"contracts/protocol/TuliaVault.sol\":2239:2252  totalAssets() */\n      tag_369\n        /* \"contracts/protocol/TuliaVault.sol\":2239:2250  totalAssets */\n      tag_41\n        /* \"contracts/protocol/TuliaVault.sol\":2239:2252  totalAssets() */\n      jump\t// in\n    tag_369:\n        /* \"contracts/protocol/TuliaVault.sol\":2222:2252  uint256 assets = totalAssets() */\n      swap1\n      pop\n        /* \"contracts/protocol/TuliaVault.sol\":2407:2421  365 days * 100 */\n      0xbbf81e00\n        /* \"contracts/protocol/TuliaVault.sol\":2391:2402  timeElapsed */\n      dup4\n        /* \"contracts/protocol/TuliaVault.sol\":2375:2388  baseYieldRate */\n      sload(0x07)\n        /* \"contracts/protocol/TuliaVault.sol\":2366:2372  assets */\n      dup4\n        /* \"contracts/protocol/TuliaVault.sol\":2366:2388  assets * baseYieldRate */\n      tag_370\n      swap2\n      swap1\n      tag_371\n      jump\t// in\n    tag_370:\n        /* \"contracts/protocol/TuliaVault.sol\":2366:2402  assets * baseYieldRate * timeElapsed */\n      tag_372\n      swap2\n      swap1\n      tag_371\n      jump\t// in\n    tag_372:\n        /* \"contracts/protocol/TuliaVault.sol\":2365:2422  (assets * baseYieldRate * timeElapsed) / (365 days * 100) */\n      tag_187\n      swap2\n      swap1\n      tag_374\n      jump\t// in\n        /* \"@openzeppelin/contracts/token/ERC20/ERC20.sol\":7721:7929  function _mint(address account, uint256 value) internal {... */\n    tag_310:\n      sub(shl(0xa0, 0x01), 0x01)\n        /* \"@openzeppelin/contracts/token/ERC20/ERC20.sol\":7791:7812  account == address(0) */\n      dup3\n      and\n        /* \"@openzeppelin/contracts/token/ERC20/ERC20.sol\":7787:7878  if (account == address(0)) {... */\n      tag_376\n      jumpi\n        /* \"@openzeppelin/contracts/token/ERC20/ERC20.sol\":7835:7867  ERC20InvalidReceiver(address(0)) */\n      mload(0x40)\n      shl(0xe0, 0xec442f05)\n      dup2\n      mstore\n        /* \"@openzeppelin/contracts/token/ERC20/ERC20.sol\":7864:7865  0 */\n      0x00\n        /* \"@openzeppelin/contracts/token/ERC20/ERC20.sol\":7835:7867  ERC20InvalidReceiver(address(0)) */\n      0x04\n      dup3\n      add\n        /* \"#utility.yul\":2101:2152   */\n      mstore\n        /* \"#utility.yul\":2074:2092   */\n      0x24\n      add\n        /* \"@openzeppelin/contracts/token/ERC20/ERC20.sol\":7835:7867  ERC20InvalidReceiver(address(0)) */\n      tag_219\n        /* \"#utility.yul\":1955:2158   */\n      jump\n        /* \"@openzeppelin/contracts/token/ERC20/ERC20.sol\":7787:7878  if (account == address(0)) {... */\n    tag_376:\n        /* \"@openzeppelin/contracts/token/ERC20/ERC20.sol\":7887:7922  _update(address(0), account, value) */\n      tag_378\n        /* \"@openzeppelin/contracts/token/ERC20/ERC20.sol\":7903:7904  0 */\n      0x00\n        /* \"@openzeppelin/contracts/token/ERC20/ERC20.sol\":7907:7914  account */\n      dup4\n        /* \"@openzeppelin/contracts/token/ERC20/ERC20.sol\":7916:7921  value */\n      dup4\n        /* \"@openzeppelin/contracts/token/ERC20/ERC20.sol\":7887:7894  _update */\n      tag_297\n        /* \"@openzeppelin/contracts/token/ERC20/ERC20.sol\":7887:7922  _update(address(0), account, value) */\n      jump\t// in\n    tag_378:\n        /* \"@openzeppelin/contracts/token/ERC20/ERC20.sol\":7721:7929  function _mint(address account, uint256 value) internal {... */\n      pop\n      pop\n      jump\t// out\n        /* \"@openzeppelin/contracts/token/ERC20/utils/SafeERC20.sol\":1702:1890  function safeTransferFrom(IERC20 token, address from, address to, uint256 value) internal {... */\n    tag_322:\n        /* \"@openzeppelin/contracts/token/ERC20/utils/SafeERC20.sol\":1829:1882  abi.encodeCall(token.transferFrom, (from, to, value)) */\n      mload(0x40)\n      sub(shl(0xa0, 0x01), 0x01)\n        /* \"#utility.yul\":7543:7558   */\n      dup5\n      dup2\n      and\n        /* \"@openzeppelin/contracts/token/ERC20/utils/SafeERC20.sol\":1829:1882  abi.encodeCall(token.transferFrom, (from, to, value)) */\n      0x24\n      dup4\n      add\n        /* \"#utility.yul\":7525:7559   */\n      mstore\n        /* \"#utility.yul\":7595:7610   */\n      dup4\n      dup2\n      and\n        /* \"#utility.yul\":7575:7593   */\n      0x44\n      dup4\n      add\n        /* \"#utility.yul\":7568:7611   */\n      mstore\n        /* \"#utility.yul\":7627:7645   */\n      0x64\n      dup3\n      add\n        /* \"#utility.yul\":7620:7654   */\n      dup4\n      swap1\n      mstore\n        /* \"@openzeppelin/contracts/token/ERC20/utils/SafeERC20.sol\":1802:1883  _callOptionalReturn(token, abi.encodeCall(token.transferFrom, (from, to, value))) */\n      tag_290\n      swap2\n        /* \"@openzeppelin/contracts/token/ERC20/utils/SafeERC20.sol\":1822:1827  token */\n      dup7\n      swap2\n        /* \"@openzeppelin/contracts/token/ERC20/utils/SafeERC20.sol\":1844:1862  token.transferFrom */\n      dup3\n      and\n      swap1\n      0x23b872dd\n      swap1\n        /* \"#utility.yul\":7460:7478   */\n      0x84\n      add\n        /* \"@openzeppelin/contracts/token/ERC20/utils/SafeERC20.sol\":1829:1882  abi.encodeCall(token.transferFrom, (from, to, value)) */\n    tag_381:\n      mload(0x40)\n      0x20\n      dup2\n      dup4\n      sub\n      sub\n      dup2\n      mstore\n      swap1\n      0x40\n      mstore\n      swap2\n      pop\n      0xe0\n      shl\n      0x20\n      dup3\n      add\n      dup1\n      mload\n      sub(shl(0xe0, 0x01), 0x01)\n      dup4\n      dup2\n      dup4\n      and\n      or\n      dup4\n      mstore\n      pop\n      pop\n      pop\n      pop\n        /* \"@openzeppelin/contracts/token/ERC20/utils/SafeERC20.sol\":1802:1821  _callOptionalReturn */\n      tag_383\n        /* \"@openzeppelin/contracts/token/ERC20/utils/SafeERC20.sol\":1802:1883  _callOptionalReturn(token, abi.encodeCall(token.transferFrom, (from, to, value))) */\n      jump\t// in\n        /* \"@openzeppelin/contracts/token/ERC20/ERC20.sol\":8247:8453  function _burn(address account, uint256 value) internal {... */\n    tag_337:\n      sub(shl(0xa0, 0x01), 0x01)\n        /* \"@openzeppelin/contracts/token/ERC20/ERC20.sol\":8317:8338  account == address(0) */\n      dup3\n      and\n        /* \"@openzeppelin/contracts/token/ERC20/ERC20.sol\":8313:8402  if (account == address(0)) {... */\n      tag_385\n      jumpi\n        /* \"@openzeppelin/contracts/token/ERC20/ERC20.sol\":8361:8391  ERC20InvalidSender(address(0)) */\n      mload(0x40)\n      shl(0xe1, 0x4b637e8f)\n      dup2\n      mstore\n        /* \"@openzeppelin/contracts/token/ERC20/ERC20.sol\":8388:8389  0 */\n      0x00\n        /* \"@openzeppelin/contracts/token/ERC20/ERC20.sol\":8361:8391  ERC20InvalidSender(address(0)) */\n      0x04\n      dup3\n      add\n        /* \"#utility.yul\":2101:2152   */\n      mstore\n        /* \"#utility.yul\":2074:2092   */\n      0x24\n      add\n        /* \"@openzeppelin/contracts/token/ERC20/ERC20.sol\":8361:8391  ERC20InvalidSender(address(0)) */\n      tag_219\n        /* \"#utility.yul\":1955:2158   */\n      jump\n        /* \"@openzeppelin/contracts/token/ERC20/ERC20.sol\":8313:8402  if (account == address(0)) {... */\n    tag_385:\n        /* \"@openzeppelin/contracts/token/ERC20/ERC20.sol\":8411:8446  _update(account, address(0), value) */\n      tag_378\n        /* \"@openzeppelin/contracts/token/ERC20/ERC20.sol\":8419:8426  account */\n      dup3\n        /* \"@openzeppelin/contracts/token/ERC20/ERC20.sol\":8436:8437  0 */\n      0x00\n        /* \"@openzeppelin/contracts/token/ERC20/ERC20.sol\":8440:8445  value */\n      dup4\n        /* \"@openzeppelin/contracts/token/ERC20/ERC20.sol\":8411:8418  _update */\n      tag_297\n        /* \"@openzeppelin/contracts/token/ERC20/ERC20.sol\":8411:8446  _update(account, address(0), value) */\n      jump\t// in\n        /* \"@openzeppelin/contracts/token/ERC20/utils/SafeERC20.sol\":1303:1463  function safeTransfer(IERC20 token, address to, uint256 value) internal {... */\n    tag_339:\n        /* \"@openzeppelin/contracts/token/ERC20/utils/SafeERC20.sol\":1412:1455  abi.encodeCall(token.transfer, (to, value)) */\n      mload(0x40)\n      sub(shl(0xa0, 0x01), 0x01)\n        /* \"#utility.yul\":7857:7889   */\n      dup4\n      dup2\n      and\n        /* \"@openzeppelin/contracts/token/ERC20/utils/SafeERC20.sol\":1412:1455  abi.encodeCall(token.transfer, (to, value)) */\n      0x24\n      dup4\n      add\n        /* \"#utility.yul\":7839:7890   */\n      mstore\n        /* \"#utility.yul\":7906:7924   */\n      0x44\n      dup3\n      add\n        /* \"#utility.yul\":7899:7933   */\n      dup4\n      swap1\n      mstore\n        /* \"@openzeppelin/contracts/token/ERC20/utils/SafeERC20.sol\":1385:1456  _callOptionalReturn(token, abi.encodeCall(token.transfer, (to, value))) */\n      tag_275\n      swap2\n        /* \"@openzeppelin/contracts/token/ERC20/utils/SafeERC20.sol\":1405:1410  token */\n      dup6\n      swap2\n        /* \"@openzeppelin/contracts/token/ERC20/utils/SafeERC20.sol\":1427:1441  token.transfer */\n      dup3\n      and\n      swap1\n      0xa9059cbb\n      swap1\n        /* \"#utility.yul\":7812:7830   */\n      0x64\n      add\n        /* \"@openzeppelin/contracts/token/ERC20/utils/SafeERC20.sol\":1412:1455  abi.encodeCall(token.transfer, (to, value)) */\n      tag_381\n        /* \"#utility.yul\":7665:7939   */\n      jump\n        /* \"@openzeppelin/contracts/utils/math/Math.sol\":3803:7919  function mulDiv(uint256 x, uint256 y, uint256 denominator) internal pure returns (uint256 result) {... */\n    tag_343:\n        /* \"@openzeppelin/contracts/utils/math/Math.sol\":3885:3899  uint256 result */\n      0x00\n        /* \"@openzeppelin/contracts/utils/math/Math.sol\":4248:4253  x * y */\n      dup4\n      dup4\n      mul\n        /* \"@openzeppelin/contracts/utils/math/Math.sol\":3885:3899  uint256 result */\n      dup2\n      not(0x00)\n        /* \"@openzeppelin/contracts/utils/math/Math.sol\":4252:4253  y */\n      dup6\n        /* \"@openzeppelin/contracts/utils/math/Math.sol\":4248:4249  x */\n      dup8\n        /* \"@openzeppelin/contracts/utils/math/Math.sol\":4420:4440  mulmod(x, y, not(0)) */\n      mulmod\n        /* \"@openzeppelin/contracts/utils/math/Math.sol\":4493:4498  prod0 */\n      dup3\n        /* \"@openzeppelin/contracts/utils/math/Math.sol\":4489:4491  mm */\n      dup2\n        /* \"@openzeppelin/contracts/utils/math/Math.sol\":4486:4499  lt(mm, prod0) */\n      lt\n        /* \"@openzeppelin/contracts/utils/math/Math.sol\":4478:4483  prod0 */\n      dup4\n        /* \"@openzeppelin/contracts/utils/math/Math.sol\":4474:4476  mm */\n      dup3\n        /* \"@openzeppelin/contracts/utils/math/Math.sol\":4470:4484  sub(mm, prod0) */\n      sub\n        /* \"@openzeppelin/contracts/utils/math/Math.sol\":4466:4500  sub(sub(mm, prod0), lt(mm, prod0)) */\n      sub\n        /* \"@openzeppelin/contracts/utils/math/Math.sol\":4457:4500  prod1 := sub(sub(mm, prod0), lt(mm, prod0)) */\n      swap2\n      pop\n      pop\n        /* \"@openzeppelin/contracts/utils/math/Math.sol\":4595:4600  prod1 */\n      dup1\n        /* \"@openzeppelin/contracts/utils/math/Math.sol\":4604:4605  0 */\n      0x00\n        /* \"@openzeppelin/contracts/utils/math/Math.sol\":4595:4605  prod1 == 0 */\n      sub\n        /* \"@openzeppelin/contracts/utils/math/Math.sol\":4591:4959  if (prod1 == 0) {... */\n      tag_393\n      jumpi\n        /* \"@openzeppelin/contracts/utils/math/Math.sol\":4933:4944  denominator */\n      dup4\n        /* \"@openzeppelin/contracts/utils/math/Math.sol\":4925:4930  prod0 */\n      dup3\n        /* \"@openzeppelin/contracts/utils/math/Math.sol\":4925:4944  prod0 / denominator */\n      dup2\n      tag_395\n      jumpi\n      tag_395\n      tag_349\n      jump\t// in\n    tag_395:\n      div\n        /* \"@openzeppelin/contracts/utils/math/Math.sol\":4918:4944  return prod0 / denominator */\n      swap3\n      pop\n      pop\n      pop\n      jump(tag_187)\n        /* \"@openzeppelin/contracts/utils/math/Math.sol\":4591:4959  if (prod1 == 0) {... */\n    tag_393:\n        /* \"@openzeppelin/contracts/utils/math/Math.sol\":5080:5085  prod1 */\n      dup1\n        /* \"@openzeppelin/contracts/utils/math/Math.sol\":5065:5076  denominator */\n      dup5\n        /* \"@openzeppelin/contracts/utils/math/Math.sol\":5065:5085  denominator <= prod1 */\n      gt\n        /* \"@openzeppelin/contracts/utils/math/Math.sol\":5061:5149  if (denominator <= prod1) {... */\n      tag_396\n      jumpi\n        /* \"@openzeppelin/contracts/utils/math/Math.sol\":5112:5134  MathOverflowedMulDiv() */\n      mload(0x40)\n      shl(0xe0, 0x227bc153)\n      dup2\n      mstore\n      0x04\n      add\n      mload(0x40)\n      dup1\n      swap2\n      sub\n      swap1\n      revert\n        /* \"@openzeppelin/contracts/utils/math/Math.sol\":5061:5149  if (denominator <= prod1) {... */\n    tag_396:\n        /* \"@openzeppelin/contracts/utils/math/Math.sol\":5404:5421  uint256 remainder */\n      0x00\n        /* \"@openzeppelin/contracts/utils/math/Math.sol\":5539:5550  denominator */\n      dup5\n        /* \"@openzeppelin/contracts/utils/math/Math.sol\":5536:5537  y */\n      dup7\n        /* \"@openzeppelin/contracts/utils/math/Math.sol\":5533:5534  x */\n      dup9\n        /* \"@openzeppelin/contracts/utils/math/Math.sol\":5526:5551  mulmod(x, y, denominator) */\n      mulmod\n        /* \"@openzeppelin/contracts/utils/math/Math.sol\":5939:5951  uint256 twos */\n      0x00\n        /* \"@openzeppelin/contracts/utils/math/Math.sol\":5969:5984  0 - denominator */\n      dup7\n      dup2\n      sub\n        /* \"@openzeppelin/contracts/utils/math/Math.sol\":5954:5985  denominator & (0 - denominator) */\n      dup8\n      and\n        /* \"@openzeppelin/contracts/utils/math/Math.sol\":6088:6110  div(denominator, twos) */\n      swap7\n      dup8\n      swap1\n      div\n      swap7\n        /* \"@openzeppelin/contracts/utils/math/Math.sol\":6813:6814  2 */\n      0x02\n        /* \"@openzeppelin/contracts/utils/math/Math.sol\":6794:6795  3 */\n      0x03\n        /* \"@openzeppelin/contracts/utils/math/Math.sol\":6794:6809  3 * denominator */\n      dup10\n      mul\n        /* \"@openzeppelin/contracts/utils/math/Math.sol\":6793:6814  (3 * denominator) ^ 2 */\n      dup2\n      xor\n        /* \"@openzeppelin/contracts/utils/math/Math.sol\":7046:7067  denominator * inverse */\n      dup1\n      dup11\n      mul\n        /* \"@openzeppelin/contracts/utils/math/Math.sol\":7042:7067  2 - denominator * inverse */\n      dup3\n      sub\n        /* \"@openzeppelin/contracts/utils/math/Math.sol\":7031:7067  inverse *= 2 - denominator * inverse */\n      mul\n        /* \"@openzeppelin/contracts/utils/math/Math.sol\":7115:7136  denominator * inverse */\n      dup1\n      dup11\n      mul\n        /* \"@openzeppelin/contracts/utils/math/Math.sol\":7111:7136  2 - denominator * inverse */\n      dup3\n      sub\n        /* \"@openzeppelin/contracts/utils/math/Math.sol\":7100:7136  inverse *= 2 - denominator * inverse */\n      mul\n        /* \"@openzeppelin/contracts/utils/math/Math.sol\":7185:7206  denominator * inverse */\n      dup1\n      dup11\n      mul\n        /* \"@openzeppelin/contracts/utils/math/Math.sol\":7181:7206  2 - denominator * inverse */\n      dup3\n      sub\n        /* \"@openzeppelin/contracts/utils/math/Math.sol\":7170:7206  inverse *= 2 - denominator * inverse */\n      mul\n        /* \"@openzeppelin/contracts/utils/math/Math.sol\":7255:7276  denominator * inverse */\n      dup1\n      dup11\n      mul\n        /* \"@openzeppelin/contracts/utils/math/Math.sol\":7251:7276  2 - denominator * inverse */\n      dup3\n      sub\n        /* \"@openzeppelin/contracts/utils/math/Math.sol\":7240:7276  inverse *= 2 - denominator * inverse */\n      mul\n        /* \"@openzeppelin/contracts/utils/math/Math.sol\":7325:7346  denominator * inverse */\n      dup1\n      dup11\n      mul\n        /* \"@openzeppelin/contracts/utils/math/Math.sol\":7321:7346  2 - denominator * inverse */\n      dup3\n      sub\n        /* \"@openzeppelin/contracts/utils/math/Math.sol\":7310:7346  inverse *= 2 - denominator * inverse */\n      mul\n        /* \"@openzeppelin/contracts/utils/math/Math.sol\":7396:7417  denominator * inverse */\n      dup1\n      dup11\n      mul\n        /* \"@openzeppelin/contracts/utils/math/Math.sol\":7392:7417  2 - denominator * inverse */\n      swap1\n      swap2\n      sub\n        /* \"@openzeppelin/contracts/utils/math/Math.sol\":7381:7417  inverse *= 2 - denominator * inverse */\n      mul\n        /* \"@openzeppelin/contracts/utils/math/Math.sol\":6333:6345  sub(0, twos) */\n      swap2\n      dup2\n      swap1\n      sub\n        /* \"@openzeppelin/contracts/utils/math/Math.sol\":6329:6352  div(sub(0, twos), twos) */\n      dup2\n      swap1\n      div\n        /* \"@openzeppelin/contracts/utils/math/Math.sol\":6354:6355  1 */\n      0x01\n        /* \"@openzeppelin/contracts/utils/math/Math.sol\":6325:6356  add(div(sub(0, twos), twos), 1) */\n      add\n        /* \"@openzeppelin/contracts/utils/math/Math.sol\":5653:5673  gt(remainder, prod0) */\n      dup7\n      dup5\n      gt\n        /* \"@openzeppelin/contracts/utils/math/Math.sol\":5642:5674  sub(prod1, gt(remainder, prod0)) */\n      swap1\n      swap6\n      sub\n        /* \"@openzeppelin/contracts/utils/math/Math.sol\":6445:6457  prod1 * twos */\n      swap5\n      swap1\n      swap5\n      mul\n        /* \"@openzeppelin/contracts/utils/math/Math.sol\":5700:5721  sub(prod0, remainder) */\n      swap2\n      swap1\n      swap5\n      sub\n        /* \"@openzeppelin/contracts/utils/math/Math.sol\":6186:6202  div(prod0, twos) */\n      swap3\n      swap1\n      swap3\n      div\n        /* \"@openzeppelin/contracts/utils/math/Math.sol\":6436:6457  prod0 |= prod1 * twos */\n      swap2\n      swap1\n      swap2\n      or\n        /* \"@openzeppelin/contracts/utils/math/Math.sol\":7860:7875  prod0 * inverse */\n      swap2\n      swap1\n      swap2\n      mul\n      swap2\n      pop\n      pop\n        /* \"@openzeppelin/contracts/utils/math/Math.sol\":3803:7919  function mulDiv(uint256 x, uint256 y, uint256 denominator) internal pure returns (uint256 result) {... */\n      swap4\n      swap3\n      pop\n      pop\n      pop\n      jump\t// out\n        /* \"@openzeppelin/contracts/utils/math/Math.sol\":14993:15115  function unsignedRoundsUp(Rounding rounding) internal pure returns (bool) {... */\n    tag_345:\n        /* \"@openzeppelin/contracts/utils/math/Math.sol\":15061:15065  bool */\n      0x00\n        /* \"@openzeppelin/contracts/utils/math/Math.sol\":15102:15103  2 */\n      0x02\n        /* \"@openzeppelin/contracts/utils/math/Math.sol\":15090:15098  rounding */\n      dup3\n        /* \"@openzeppelin/contracts/utils/math/Math.sol\":15084:15099  uint8(rounding) */\n      0x03\n      dup2\n      gt\n      iszero\n      tag_399\n      jumpi\n      tag_399\n      tag_400\n      jump\t// in\n    tag_399:\n        /* \"@openzeppelin/contracts/utils/math/Math.sol\":15084:15103  uint8(rounding) % 2 */\n      tag_401\n      swap2\n      swap1\n      tag_402\n      jump\t// in\n    tag_401:\n        /* \"@openzeppelin/contracts/utils/math/Math.sol\":15084:15108  uint8(rounding) % 2 == 1 */\n      0xff\n      and\n        /* \"@openzeppelin/contracts/utils/math/Math.sol\":15107:15108  1 */\n      0x01\n        /* \"@openzeppelin/contracts/utils/math/Math.sol\":15084:15108  uint8(rounding) % 2 == 1 */\n      eq\n        /* \"@openzeppelin/contracts/utils/math/Math.sol\":15077:15108  return uint8(rounding) % 2 == 1 */\n      swap1\n      pop\n        /* \"@openzeppelin/contracts/utils/math/Math.sol\":14993:15115  function unsignedRoundsUp(Rounding rounding) internal pure returns (bool) {... */\n      swap2\n      swap1\n      pop\n      jump\t// out\n        /* \"@openzeppelin/contracts/token/ERC20/utils/SafeERC20.sol\":4059:4688  function _callOptionalReturn(IERC20 token, bytes memory data) private {... */\n    tag_383:\n        /* \"@openzeppelin/contracts/token/ERC20/utils/SafeERC20.sol\":4478:4501  bytes memory returndata */\n      0x00\n        /* \"@openzeppelin/contracts/token/ERC20/utils/SafeERC20.sol\":4504:4537  address(token).functionCall(data) */\n      tag_404\n      sub(shl(0xa0, 0x01), 0x01)\n        /* \"@openzeppelin/contracts/token/ERC20/utils/SafeERC20.sol\":4504:4531  address(token).functionCall */\n      dup5\n      and\n        /* \"@openzeppelin/contracts/token/ERC20/utils/SafeERC20.sol\":4532:4536  data */\n      dup4\n        /* \"@openzeppelin/contracts/token/ERC20/utils/SafeERC20.sol\":4504:4531  address(token).functionCall */\n      tag_405\n        /* \"@openzeppelin/contracts/token/ERC20/utils/SafeERC20.sol\":4504:4537  address(token).functionCall(data) */\n      jump\t// in\n    tag_404:\n        /* \"@openzeppelin/contracts/token/ERC20/utils/SafeERC20.sol\":4478:4537  bytes memory returndata = address(token).functionCall(data) */\n      swap1\n      pop\n        /* \"@openzeppelin/contracts/token/ERC20/utils/SafeERC20.sol\":4551:4561  returndata */\n      dup1\n        /* \"@openzeppelin/contracts/token/ERC20/utils/SafeERC20.sol\":4551:4568  returndata.length */\n      mload\n        /* \"@openzeppelin/contracts/token/ERC20/utils/SafeERC20.sol\":4572:4573  0 */\n      0x00\n        /* \"@openzeppelin/contracts/token/ERC20/utils/SafeERC20.sol\":4551:4573  returndata.length != 0 */\n      eq\n      iszero\n        /* \"@openzeppelin/contracts/token/ERC20/utils/SafeERC20.sol\":4551:4608  returndata.length != 0 && !abi.decode(returndata, (bool)) */\n      dup1\n      iszero\n      tag_406\n      jumpi\n      pop\n        /* \"@openzeppelin/contracts/token/ERC20/utils/SafeERC20.sol\":4589:4599  returndata */\n      dup1\n        /* \"@openzeppelin/contracts/token/ERC20/utils/SafeERC20.sol\":4578:4608  abi.decode(returndata, (bool)) */\n      dup1\n      0x20\n      add\n      swap1\n      mload\n      dup2\n      add\n      swap1\n      tag_407\n      swap2\n      swap1\n      tag_408\n      jump\t// in\n    tag_407:\n        /* \"@openzeppelin/contracts/token/ERC20/utils/SafeERC20.sol\":4577:4608  !abi.decode(returndata, (bool)) */\n      iszero\n        /* \"@openzeppelin/contracts/token/ERC20/utils/SafeERC20.sol\":4551:4608  returndata.length != 0 && !abi.decode(returndata, (bool)) */\n    tag_406:\n        /* \"@openzeppelin/contracts/token/ERC20/utils/SafeERC20.sol\":4547:4682  if (returndata.length != 0 && !abi.decode(returndata, (bool))) {... */\n      iszero\n      tag_275\n      jumpi\n        /* \"@openzeppelin/contracts/token/ERC20/utils/SafeERC20.sol\":4631:4671  SafeERC20FailedOperation(address(token)) */\n      mload(0x40)\n      shl(0xe0, 0x5274afe7)\n      dup2\n      mstore\n      sub(shl(0xa0, 0x01), 0x01)\n        /* \"#utility.yul\":2119:2151   */\n      dup5\n      and\n        /* \"@openzeppelin/contracts/token/ERC20/utils/SafeERC20.sol\":4631:4671  SafeERC20FailedOperation(address(token)) */\n      0x04\n      dup3\n      add\n        /* \"#utility.yul\":2101:2152   */\n      mstore\n        /* \"#utility.yul\":2074:2092   */\n      0x24\n      add\n        /* \"@openzeppelin/contracts/token/ERC20/utils/SafeERC20.sol\":4631:4671  SafeERC20FailedOperation(address(token)) */\n      tag_219\n        /* \"#utility.yul\":1955:2158   */\n      jump\n        /* \"@openzeppelin/contracts/utils/Address.sol\":2705:2856  function functionCall(address target, bytes memory data) internal returns (bytes memory) {... */\n    tag_405:\n        /* \"@openzeppelin/contracts/utils/Address.sol\":2780:2792  bytes memory */\n      0x60\n        /* \"@openzeppelin/contracts/utils/Address.sol\":2811:2849  functionCallWithValue(target, data, 0) */\n      tag_187\n        /* \"@openzeppelin/contracts/utils/Address.sol\":2833:2839  target */\n      dup4\n        /* \"@openzeppelin/contracts/utils/Address.sol\":2841:2845  data */\n      dup4\n        /* \"@openzeppelin/contracts/utils/Address.sol\":2847:2848  0 */\n      0x00\n        /* \"@openzeppelin/contracts/utils/Address.sol\":2780:2792  bytes memory */\n      dup5\n        /* \"@openzeppelin/contracts/utils/Address.sol\":3421:3433  bool success */\n      0x00\n        /* \"@openzeppelin/contracts/utils/Address.sol\":3435:3458  bytes memory returndata */\n      dup1\n        /* \"@openzeppelin/contracts/utils/Address.sol\":3462:3468  target */\n      dup6\n      sub(shl(0xa0, 0x01), 0x01)\n        /* \"@openzeppelin/contracts/utils/Address.sol\":3462:3473  target.call */\n      and\n        /* \"@openzeppelin/contracts/utils/Address.sol\":3481:3486  value */\n      dup5\n        /* \"@openzeppelin/contracts/utils/Address.sol\":3488:3492  data */\n      dup7\n        /* \"@openzeppelin/contracts/utils/Address.sol\":3462:3493  target.call{value: value}(data) */\n      mload(0x40)\n      tag_417\n      swap2\n      swap1\n      tag_418\n      jump\t// in\n    tag_417:\n      0x00\n      mload(0x40)\n      dup1\n      dup4\n      sub\n      dup2\n      dup6\n      dup8\n      gas\n      call\n      swap3\n      pop\n      pop\n      pop\n      returndatasize\n      dup1\n      0x00\n      dup2\n      eq\n      tag_421\n      jumpi\n      mload(0x40)\n      swap2\n      pop\n      and(add(returndatasize, 0x3f), not(0x1f))\n      dup3\n      add\n      0x40\n      mstore\n      returndatasize\n      dup3\n      mstore\n      returndatasize\n      0x00\n      0x20\n      dup5\n      add\n      returndatacopy\n      jump(tag_420)\n    tag_421:\n      0x60\n      swap2\n      pop\n    tag_420:\n      pop\n        /* \"@openzeppelin/contracts/utils/Address.sol\":3420:3493  (bool success, bytes memory returndata) = target.call{value: value}(data) */\n      swap2\n      pop\n      swap2\n      pop\n        /* \"@openzeppelin/contracts/utils/Address.sol\":3510:3565  verifyCallResultFromTarget(target, success, returndata) */\n      tag_351\n        /* \"@openzeppelin/contracts/utils/Address.sol\":3537:3543  target */\n      dup7\n        /* \"@openzeppelin/contracts/utils/Address.sol\":3545:3552  success */\n      dup4\n        /* \"@openzeppelin/contracts/utils/Address.sol\":3554:3564  returndata */\n      dup4\n        /* \"@openzeppelin/contracts/utils/Address.sol\":4769:4781  bytes memory */\n      0x60\n        /* \"@openzeppelin/contracts/utils/Address.sol\":4798:4805  success */\n      dup3\n        /* \"@openzeppelin/contracts/utils/Address.sol\":4793:5201  if (!success) {... */\n      tag_425\n      jumpi\n        /* \"@openzeppelin/contracts/utils/Address.sol\":4821:4840  _revert(returndata) */\n      tag_426\n        /* \"@openzeppelin/contracts/utils/Address.sol\":4829:4839  returndata */\n      dup3\n        /* \"@openzeppelin/contracts/utils/Address.sol\":4821:4828  _revert */\n      tag_427\n        /* \"@openzeppelin/contracts/utils/Address.sol\":4821:4840  _revert(returndata) */\n      jump\t// in\n    tag_426:\n        /* \"@openzeppelin/contracts/utils/Address.sol\":4793:5201  if (!success) {... */\n      jump(tag_187)\n    tag_425:\n        /* \"@openzeppelin/contracts/utils/Address.sol\":5045:5062  returndata.length */\n      dup2\n      mload\n        /* \"@openzeppelin/contracts/utils/Address.sol\":5045:5067  returndata.length == 0 */\n      iszero\n        /* \"@openzeppelin/contracts/utils/Address.sol\":5045:5094  returndata.length == 0 && target.code.length == 0 */\n      dup1\n      iszero\n      tag_429\n      jumpi\n      pop\n      sub(shl(0xa0, 0x01), 0x01)\n        /* \"@openzeppelin/contracts/utils/Address.sol\":5071:5089  target.code.length */\n      dup5\n      and\n      extcodesize\n        /* \"@openzeppelin/contracts/utils/Address.sol\":5071:5094  target.code.length == 0 */\n      iszero\n        /* \"@openzeppelin/contracts/utils/Address.sol\":5045:5094  returndata.length == 0 && target.code.length == 0 */\n    tag_429:\n        /* \"@openzeppelin/contracts/utils/Address.sol\":5041:5160  if (returndata.length == 0 && target.code.length == 0) {... */\n      iszero\n      tag_430\n      jumpi\n        /* \"@openzeppelin/contracts/utils/Address.sol\":5121:5145  AddressEmptyCode(target) */\n      mload(0x40)\n      shl(0xe0, 0x9996b315)\n      dup2\n      mstore\n      sub(shl(0xa0, 0x01), 0x01)\n        /* \"#utility.yul\":2119:2151   */\n      dup6\n      and\n        /* \"@openzeppelin/contracts/utils/Address.sol\":5121:5145  AddressEmptyCode(target) */\n      0x04\n      dup3\n      add\n        /* \"#utility.yul\":2101:2152   */\n      mstore\n        /* \"#utility.yul\":2074:2092   */\n      0x24\n      add\n        /* \"@openzeppelin/contracts/utils/Address.sol\":5121:5145  AddressEmptyCode(target) */\n      tag_219\n        /* \"#utility.yul\":1955:2158   */\n      jump\n        /* \"@openzeppelin/contracts/utils/Address.sol\":5041:5160  if (returndata.length == 0 && target.code.length == 0) {... */\n    tag_430:\n      pop\n        /* \"@openzeppelin/contracts/utils/Address.sol\":5180:5190  returndata */\n      dup1\n        /* \"@openzeppelin/contracts/utils/Address.sol\":5173:5190  return returndata */\n      jump(tag_187)\n        /* \"@openzeppelin/contracts/utils/Address.sol\":5743:6259  function _revert(bytes memory returndata) private pure {... */\n    tag_427:\n        /* \"@openzeppelin/contracts/utils/Address.sol\":5874:5891  returndata.length */\n      dup1\n      mload\n        /* \"@openzeppelin/contracts/utils/Address.sol\":5874:5895  returndata.length > 0 */\n      iszero\n        /* \"@openzeppelin/contracts/utils/Address.sol\":5870:6253  if (returndata.length > 0) {... */\n      tag_433\n      jumpi\n        /* \"@openzeppelin/contracts/utils/Address.sol\":6102:6112  returndata */\n      dup1\n        /* \"@openzeppelin/contracts/utils/Address.sol\":6096:6113  mload(returndata) */\n      mload\n        /* \"@openzeppelin/contracts/utils/Address.sol\":6158:6173  returndata_size */\n      dup1\n        /* \"@openzeppelin/contracts/utils/Address.sol\":6145:6155  returndata */\n      dup3\n        /* \"@openzeppelin/contracts/utils/Address.sol\":6141:6143  32 */\n      0x20\n        /* \"@openzeppelin/contracts/utils/Address.sol\":6137:6156  add(32, returndata) */\n      add\n        /* \"@openzeppelin/contracts/utils/Address.sol\":6130:6174  revert(add(32, returndata), returndata_size) */\n      revert\n        /* \"@openzeppelin/contracts/utils/Address.sol\":5870:6253  if (returndata.length > 0) {... */\n    tag_433:\n        /* \"@openzeppelin/contracts/utils/Address.sol\":6225:6242  FailedInnerCall() */\n      mload(0x40)\n      shl(0xe1, 0x0a12f521)\n      dup2\n      mstore\n      0x04\n      add\n      mload(0x40)\n      dup1\n      swap2\n      sub\n      swap1\n      revert\n        /* \"#utility.yul\":196:614   */\n    tag_47:\n        /* \"#utility.yul\":345:347   */\n      0x20\n        /* \"#utility.yul\":334:343   */\n      dup2\n        /* \"#utility.yul\":327:348   */\n      mstore\n        /* \"#utility.yul\":308:312   */\n      0x00\n        /* \"#utility.yul\":377:383   */\n      dup3\n        /* \"#utility.yul\":371:384   */\n      mload\n        /* \"#utility.yul\":420:426   */\n      dup1\n        /* \"#utility.yul\":415:417   */\n      0x20\n        /* \"#utility.yul\":404:413   */\n      dup5\n        /* \"#utility.yul\":400:418   */\n      add\n        /* \"#utility.yul\":393:427   */\n      mstore\n        /* \"#utility.yul\":479:485   */\n      dup1\n        /* \"#utility.yul\":474:476   */\n      0x20\n        /* \"#utility.yul\":466:472   */\n      dup6\n        /* \"#utility.yul\":462:477   */\n      add\n        /* \"#utility.yul\":457:459   */\n      0x40\n        /* \"#utility.yul\":446:455   */\n      dup6\n        /* \"#utility.yul\":442:460   */\n      add\n        /* \"#utility.yul\":436:486   */\n      mcopy\n        /* \"#utility.yul\":535:536   */\n      0x00\n        /* \"#utility.yul\":530:532   */\n      0x40\n        /* \"#utility.yul\":521:527   */\n      dup3\n        /* \"#utility.yul\":510:519   */\n      dup6\n        /* \"#utility.yul\":506:528   */\n      add\n        /* \"#utility.yul\":502:533   */\n      add\n        /* \"#utility.yul\":495:537   */\n      mstore\n        /* \"#utility.yul\":605:607   */\n      0x40\n        /* \"#utility.yul\":598:600   */\n      0x1f\n        /* \"#utility.yul\":594:601   */\n      not\n        /* \"#utility.yul\":589:591   */\n      0x1f\n        /* \"#utility.yul\":581:587   */\n      dup4\n        /* \"#utility.yul\":577:592   */\n      add\n        /* \"#utility.yul\":573:602   */\n      and\n        /* \"#utility.yul\":562:571   */\n      dup5\n        /* \"#utility.yul\":558:603   */\n      add\n        /* \"#utility.yul\":554:608   */\n      add\n        /* \"#utility.yul\":546:608   */\n      swap2\n      pop\n      pop\n        /* \"#utility.yul\":196:614   */\n      swap3\n      swap2\n      pop\n      pop\n      jump\t// out\n        /* \"#utility.yul\":619:799   */\n    tag_50:\n        /* \"#utility.yul\":678:684   */\n      0x00\n        /* \"#utility.yul\":731:733   */\n      0x20\n        /* \"#utility.yul\":719:728   */\n      dup3\n        /* \"#utility.yul\":710:717   */\n      dup5\n        /* \"#utility.yul\":706:729   */\n      sub\n        /* \"#utility.yul\":702:734   */\n      slt\n        /* \"#utility.yul\":699:751   */\n      iszero\n      tag_443\n      jumpi\n        /* \"#utility.yul\":747:748   */\n      0x00\n        /* \"#utility.yul\":744:745   */\n      dup1\n        /* \"#utility.yul\":737:749   */\n      revert\n        /* \"#utility.yul\":699:751   */\n    tag_443:\n      pop\n        /* \"#utility.yul\":770:793   */\n      calldataload\n      swap2\n        /* \"#utility.yul\":619:799   */\n      swap1\n      pop\n      jump\t// out\n        /* \"#utility.yul\":804:977   */\n    tag_435:\n        /* \"#utility.yul\":872:892   */\n      dup1\n      calldataload\n      sub(shl(0xa0, 0x01), 0x01)\n        /* \"#utility.yul\":921:952   */\n      dup2\n      and\n        /* \"#utility.yul\":911:953   */\n      dup2\n      eq\n        /* \"#utility.yul\":901:971   */\n      tag_445\n      jumpi\n        /* \"#utility.yul\":967:968   */\n      0x00\n        /* \"#utility.yul\":964:965   */\n      dup1\n        /* \"#utility.yul\":957:969   */\n      revert\n        /* \"#utility.yul\":901:971   */\n    tag_445:\n        /* \"#utility.yul\":804:977   */\n      swap2\n      swap1\n      pop\n      jump\t// out\n        /* \"#utility.yul\":982:1236   */\n    tag_55:\n        /* \"#utility.yul\":1050:1056   */\n      0x00\n        /* \"#utility.yul\":1058:1064   */\n      dup1\n        /* \"#utility.yul\":1111:1113   */\n      0x40\n        /* \"#utility.yul\":1099:1108   */\n      dup4\n        /* \"#utility.yul\":1090:1097   */\n      dup6\n        /* \"#utility.yul\":1086:1109   */\n      sub\n        /* \"#utility.yul\":1082:1114   */\n      slt\n        /* \"#utility.yul\":1079:1131   */\n      iszero\n      tag_447\n      jumpi\n        /* \"#utility.yul\":1127:1128   */\n      0x00\n        /* \"#utility.yul\":1124:1125   */\n      dup1\n        /* \"#utility.yul\":1117:1129   */\n      revert\n        /* \"#utility.yul\":1079:1131   */\n    tag_447:\n        /* \"#utility.yul\":1150:1179   */\n      tag_448\n        /* \"#utility.yul\":1169:1178   */\n      dup4\n        /* \"#utility.yul\":1150:1179   */\n      tag_435\n      jump\t// in\n    tag_448:\n        /* \"#utility.yul\":1140:1179   */\n      swap5\n        /* \"#utility.yul\":1226:1228   */\n      0x20\n        /* \"#utility.yul\":1211:1229   */\n      swap4\n      swap1\n      swap4\n      add\n        /* \"#utility.yul\":1198:1230   */\n      calldataload\n      swap4\n      pop\n      pop\n      pop\n        /* \"#utility.yul\":982:1236   */\n      jump\t// out\n        /* \"#utility.yul\":1433:1761   */\n    tag_68:\n        /* \"#utility.yul\":1510:1516   */\n      0x00\n        /* \"#utility.yul\":1518:1524   */\n      dup1\n        /* \"#utility.yul\":1526:1532   */\n      0x00\n        /* \"#utility.yul\":1579:1581   */\n      0x60\n        /* \"#utility.yul\":1567:1576   */\n      dup5\n        /* \"#utility.yul\":1558:1565   */\n      dup7\n        /* \"#utility.yul\":1554:1577   */\n      sub\n        /* \"#utility.yul\":1550:1582   */\n      slt\n        /* \"#utility.yul\":1547:1599   */\n      iszero\n      tag_451\n      jumpi\n        /* \"#utility.yul\":1595:1596   */\n      0x00\n        /* \"#utility.yul\":1592:1593   */\n      dup1\n        /* \"#utility.yul\":1585:1597   */\n      revert\n        /* \"#utility.yul\":1547:1599   */\n    tag_451:\n        /* \"#utility.yul\":1618:1647   */\n      tag_452\n        /* \"#utility.yul\":1637:1646   */\n      dup5\n        /* \"#utility.yul\":1618:1647   */\n      tag_435\n      jump\t// in\n    tag_452:\n        /* \"#utility.yul\":1608:1647   */\n      swap3\n      pop\n        /* \"#utility.yul\":1666:1704   */\n      tag_453\n        /* \"#utility.yul\":1700:1702   */\n      0x20\n        /* \"#utility.yul\":1689:1698   */\n      dup6\n        /* \"#utility.yul\":1685:1703   */\n      add\n        /* \"#utility.yul\":1666:1704   */\n      tag_435\n      jump\t// in\n    tag_453:\n        /* \"#utility.yul\":1656:1704   */\n      swap2\n      pop\n        /* \"#utility.yul\":1751:1753   */\n      0x40\n        /* \"#utility.yul\":1740:1749   */\n      dup5\n        /* \"#utility.yul\":1736:1754   */\n      add\n        /* \"#utility.yul\":1723:1755   */\n      calldataload\n        /* \"#utility.yul\":1713:1755   */\n      swap1\n      pop\n        /* \"#utility.yul\":1433:1761   */\n      swap3\n      pop\n      swap3\n      pop\n      swap3\n      jump\t// out\n        /* \"#utility.yul\":2163:2349   */\n    tag_81:\n        /* \"#utility.yul\":2222:2228   */\n      0x00\n        /* \"#utility.yul\":2275:2277   */\n      0x20\n        /* \"#utility.yul\":2263:2272   */\n      dup3\n        /* \"#utility.yul\":2254:2261   */\n      dup5\n        /* \"#utility.yul\":2250:2273   */\n      sub\n        /* \"#utility.yul\":2246:2278   */\n      slt\n        /* \"#utility.yul\":2243:2295   */\n      iszero\n      tag_457\n      jumpi\n        /* \"#utility.yul\":2291:2292   */\n      0x00\n        /* \"#utility.yul\":2288:2289   */\n      dup1\n        /* \"#utility.yul\":2281:2293   */\n      revert\n        /* \"#utility.yul\":2243:2295   */\n    tag_457:\n        /* \"#utility.yul\":2314:2343   */\n      tag_187\n        /* \"#utility.yul\":2333:2342   */\n      dup3\n        /* \"#utility.yul\":2314:2343   */\n      tag_435\n      jump\t// in\n        /* \"#utility.yul\":2354:2608   */\n    tag_93:\n        /* \"#utility.yul\":2422:2428   */\n      0x00\n        /* \"#utility.yul\":2430:2436   */\n      dup1\n        /* \"#utility.yul\":2483:2485   */\n      0x40\n        /* \"#utility.yul\":2471:2480   */\n      dup4\n        /* \"#utility.yul\":2462:2469   */\n      dup6\n        /* \"#utility.yul\":2458:2481   */\n      sub\n        /* \"#utility.yul\":2454:2486   */\n      slt\n        /* \"#utility.yul\":2451:2503   */\n      iszero\n      tag_460\n      jumpi\n        /* \"#utility.yul\":2499:2500   */\n      0x00\n        /* \"#utility.yul\":2496:2497   */\n      dup1\n        /* \"#utility.yul\":2489:2501   */\n      revert\n        /* \"#utility.yul\":2451:2503   */\n    tag_460:\n        /* \"#utility.yul\":2535:2544   */\n      dup3\n        /* \"#utility.yul\":2522:2545   */\n      calldataload\n        /* \"#utility.yul\":2512:2545   */\n      swap2\n      pop\n        /* \"#utility.yul\":2564:2602   */\n      tag_461\n        /* \"#utility.yul\":2598:2600   */\n      0x20\n        /* \"#utility.yul\":2587:2596   */\n      dup5\n        /* \"#utility.yul\":2583:2601   */\n      add\n        /* \"#utility.yul\":2564:2602   */\n      tag_435\n      jump\t// in\n    tag_461:\n        /* \"#utility.yul\":2554:2602   */\n      swap1\n      pop\n        /* \"#utility.yul\":2354:2608   */\n      swap3\n      pop\n      swap3\n      swap1\n      pop\n      jump\t// out\n        /* \"#utility.yul\":2613:2941   */\n    tag_123:\n        /* \"#utility.yul\":2690:2696   */\n      0x00\n        /* \"#utility.yul\":2698:2704   */\n      dup1\n        /* \"#utility.yul\":2706:2712   */\n      0x00\n        /* \"#utility.yul\":2759:2761   */\n      0x60\n        /* \"#utility.yul\":2747:2756   */\n      dup5\n        /* \"#utility.yul\":2738:2745   */\n      dup7\n        /* \"#utility.yul\":2734:2757   */\n      sub\n        /* \"#utility.yul\":2730:2762   */\n      slt\n        /* \"#utility.yul\":2727:2779   */\n      iszero\n      tag_463\n      jumpi\n        /* \"#utility.yul\":2775:2776   */\n      0x00\n        /* \"#utility.yul\":2772:2773   */\n      dup1\n        /* \"#utility.yul\":2765:2777   */\n      revert\n        /* \"#utility.yul\":2727:2779   */\n    tag_463:\n        /* \"#utility.yul\":2811:2820   */\n      dup4\n        /* \"#utility.yul\":2798:2821   */\n      calldataload\n        /* \"#utility.yul\":2788:2821   */\n      swap3\n      pop\n        /* \"#utility.yul\":2840:2878   */\n      tag_464\n        /* \"#utility.yul\":2874:2876   */\n      0x20\n        /* \"#utility.yul\":2863:2872   */\n      dup6\n        /* \"#utility.yul\":2859:2877   */\n      add\n        /* \"#utility.yul\":2840:2878   */\n      tag_435\n      jump\t// in\n    tag_464:\n        /* \"#utility.yul\":2830:2878   */\n      swap2\n      pop\n        /* \"#utility.yul\":2897:2935   */\n      tag_465\n        /* \"#utility.yul\":2931:2933   */\n      0x40\n        /* \"#utility.yul\":2920:2929   */\n      dup6\n        /* \"#utility.yul\":2916:2934   */\n      add\n        /* \"#utility.yul\":2897:2935   */\n      tag_435\n      jump\t// in\n    tag_465:\n        /* \"#utility.yul\":2887:2935   */\n      swap1\n      pop\n        /* \"#utility.yul\":2613:2941   */\n      swap3\n      pop\n      swap3\n      pop\n      swap3\n      jump\t// out\n        /* \"#utility.yul\":2946:3206   */\n    tag_148:\n        /* \"#utility.yul\":3014:3020   */\n      0x00\n        /* \"#utility.yul\":3022:3028   */\n      dup1\n        /* \"#utility.yul\":3075:3077   */\n      0x40\n        /* \"#utility.yul\":3063:3072   */\n      dup4\n        /* \"#utility.yul\":3054:3061   */\n      dup6\n        /* \"#utility.yul\":3050:3073   */\n      sub\n        /* \"#utility.yul\":3046:3078   */\n      slt\n        /* \"#utility.yul\":3043:3095   */\n      iszero\n      tag_467\n      jumpi\n        /* \"#utility.yul\":3091:3092   */\n      0x00\n        /* \"#utility.yul\":3088:3089   */\n      dup1\n        /* \"#utility.yul\":3081:3093   */\n      revert\n        /* \"#utility.yul\":3043:3095   */\n    tag_467:\n        /* \"#utility.yul\":3114:3143   */\n      tag_468\n        /* \"#utility.yul\":3133:3142   */\n      dup4\n        /* \"#utility.yul\":3114:3143   */\n      tag_435\n      jump\t// in\n    tag_468:\n        /* \"#utility.yul\":3104:3143   */\n      swap2\n      pop\n        /* \"#utility.yul\":3162:3200   */\n      tag_461\n        /* \"#utility.yul\":3196:3198   */\n      0x20\n        /* \"#utility.yul\":3185:3194   */\n      dup5\n        /* \"#utility.yul\":3181:3199   */\n      add\n        /* \"#utility.yul\":3162:3200   */\n      tag_435\n      jump\t// in\n        /* \"#utility.yul\":3393:3577   */\n    tag_167:\n        /* \"#utility.yul\":3463:3469   */\n      0x00\n        /* \"#utility.yul\":3516:3518   */\n      0x20\n        /* \"#utility.yul\":3504:3513   */\n      dup3\n        /* \"#utility.yul\":3495:3502   */\n      dup5\n        /* \"#utility.yul\":3491:3514   */\n      sub\n        /* \"#utility.yul\":3487:3519   */\n      slt\n        /* \"#utility.yul\":3484:3536   */\n      iszero\n      tag_472\n      jumpi\n        /* \"#utility.yul\":3532:3533   */\n      0x00\n        /* \"#utility.yul\":3529:3530   */\n      dup1\n        /* \"#utility.yul\":3522:3534   */\n      revert\n        /* \"#utility.yul\":3484:3536   */\n    tag_472:\n      pop\n        /* \"#utility.yul\":3555:3571   */\n      mload\n      swap2\n        /* \"#utility.yul\":3393:3577   */\n      swap1\n      pop\n      jump\t// out\n        /* \"#utility.yul\":3582:3962   */\n    tag_170:\n        /* \"#utility.yul\":3661:3662   */\n      0x01\n        /* \"#utility.yul\":3657:3669   */\n      dup2\n      dup2\n      shr\n      swap1\n        /* \"#utility.yul\":3704:3716   */\n      dup3\n      and\n      dup1\n        /* \"#utility.yul\":3725:3786   */\n      tag_474\n      jumpi\n        /* \"#utility.yul\":3779:3783   */\n      0x7f\n        /* \"#utility.yul\":3771:3777   */\n      dup3\n        /* \"#utility.yul\":3767:3784   */\n      and\n        /* \"#utility.yul\":3757:3784   */\n      swap2\n      pop\n        /* \"#utility.yul\":3725:3786   */\n    tag_474:\n        /* \"#utility.yul\":3832:3834   */\n      0x20\n        /* \"#utility.yul\":3824:3830   */\n      dup3\n        /* \"#utility.yul\":3821:3835   */\n      lt\n        /* \"#utility.yul\":3801:3819   */\n      dup2\n        /* \"#utility.yul\":3798:3836   */\n      sub\n        /* \"#utility.yul\":3795:3956   */\n      tag_475\n      jumpi\n        /* \"#utility.yul\":3878:3888   */\n      0x4e487b71\n        /* \"#utility.yul\":3873:3876   */\n      0xe0\n        /* \"#utility.yul\":3869:3889   */\n      shl\n        /* \"#utility.yul\":3866:3867   */\n      0x00\n        /* \"#utility.yul\":3859:3890   */\n      mstore\n        /* \"#utility.yul\":3913:3917   */\n      0x22\n        /* \"#utility.yul\":3910:3911   */\n      0x04\n        /* \"#utility.yul\":3903:3918   */\n      mstore\n        /* \"#utility.yul\":3941:3945   */\n      0x24\n        /* \"#utility.yul\":3938:3939   */\n      0x00\n        /* \"#utility.yul\":3931:3946   */\n      revert\n        /* \"#utility.yul\":3795:3956   */\n    tag_475:\n      pop\n        /* \"#utility.yul\":3582:3962   */\n      swap2\n      swap1\n      pop\n      jump\t// out\n        /* \"#utility.yul\":3967:4094   */\n    tag_436:\n        /* \"#utility.yul\":4028:4038   */\n      0x4e487b71\n        /* \"#utility.yul\":4023:4026   */\n      0xe0\n        /* \"#utility.yul\":4019:4039   */\n      shl\n        /* \"#utility.yul\":4016:4017   */\n      0x00\n        /* \"#utility.yul\":4009:4040   */\n      mstore\n        /* \"#utility.yul\":4059:4063   */\n      0x11\n        /* \"#utility.yul\":4056:4057   */\n      0x04\n        /* \"#utility.yul\":4049:4064   */\n      mstore\n        /* \"#utility.yul\":4083:4087   */\n      0x24\n        /* \"#utility.yul\":4080:4081   */\n      0x00\n        /* \"#utility.yul\":4073:4088   */\n      revert\n        /* \"#utility.yul\":4099:4247   */\n    tag_197:\n        /* \"#utility.yul\":4187:4191   */\n      0xff\n        /* \"#utility.yul\":4166:4178   */\n      dup2\n      dup2\n      and\n        /* \"#utility.yul\":4180:4192   */\n      dup4\n      dup3\n      and\n        /* \"#utility.yul\":4162:4193   */\n      add\n      swap1\n        /* \"#utility.yul\":4205:4218   */\n      dup2\n      gt\n        /* \"#utility.yul\":4202:4241   */\n      iszero\n      tag_176\n      jumpi\n        /* \"#utility.yul\":4221:4239   */\n      tag_176\n      tag_436\n      jump\t// in\n        /* \"#utility.yul\":4252:4597   */\n    tag_220:\n      sub(shl(0xa0, 0x01), 0x01)\n        /* \"#utility.yul\":4472:4504   */\n      swap4\n      swap1\n      swap4\n      and\n        /* \"#utility.yul\":4454:4505   */\n      dup4\n      mstore\n        /* \"#utility.yul\":4536:4538   */\n      0x20\n        /* \"#utility.yul\":4521:4539   */\n      dup4\n      add\n        /* \"#utility.yul\":4514:4548   */\n      swap2\n      swap1\n      swap2\n      mstore\n        /* \"#utility.yul\":4579:4581   */\n      0x40\n        /* \"#utility.yul\":4564:4582   */\n      dup3\n      add\n        /* \"#utility.yul\":4557:4591   */\n      mstore\n        /* \"#utility.yul\":4442:4444   */\n      0x60\n        /* \"#utility.yul\":4427:4445   */\n      add\n      swap1\n        /* \"#utility.yul\":4252:4597   */\n      jump\t// out\n        /* \"#utility.yul\":4602:4727   */\n    tag_266:\n        /* \"#utility.yul\":4667:4676   */\n      dup1\n      dup3\n      add\n        /* \"#utility.yul\":4688:4698   */\n      dup1\n      dup3\n      gt\n        /* \"#utility.yul\":4685:4721   */\n      iszero\n      tag_176\n      jumpi\n        /* \"#utility.yul\":4701:4719   */\n      tag_176\n      tag_436\n      jump\t// in\n        /* \"#utility.yul\":4732:5148   */\n    tag_437:\n        /* \"#utility.yul\":4821:4822   */\n      0x01\n        /* \"#utility.yul\":4858:4863   */\n      dup2\n        /* \"#utility.yul\":4821:4822   */\n      dup2\n        /* \"#utility.yul\":4872:5142   */\n    tag_485:\n        /* \"#utility.yul\":4893:4900   */\n      dup1\n        /* \"#utility.yul\":4883:4891   */\n      dup6\n        /* \"#utility.yul\":4880:4901   */\n      gt\n        /* \"#utility.yul\":4872:5142   */\n      iszero\n      tag_487\n      jumpi\n        /* \"#utility.yul\":4952:4956   */\n      dup2\n        /* \"#utility.yul\":4948:4949   */\n      0x00\n        /* \"#utility.yul\":4944:4950   */\n      not\n        /* \"#utility.yul\":4940:4957   */\n      div\n        /* \"#utility.yul\":4934:4938   */\n      dup3\n        /* \"#utility.yul\":4931:4958   */\n      gt\n        /* \"#utility.yul\":4928:4981   */\n      iszero\n      tag_489\n      jumpi\n        /* \"#utility.yul\":4961:4979   */\n      tag_489\n      tag_436\n      jump\t// in\n    tag_489:\n        /* \"#utility.yul\":5011:5018   */\n      dup1\n        /* \"#utility.yul\":5001:5009   */\n      dup6\n        /* \"#utility.yul\":4997:5019   */\n      and\n        /* \"#utility.yul\":4994:5049   */\n      iszero\n      tag_490\n      jumpi\n        /* \"#utility.yul\":5031:5047   */\n      swap2\n      dup2\n      mul\n      swap2\n        /* \"#utility.yul\":4994:5049   */\n    tag_490:\n        /* \"#utility.yul\":5110:5132   */\n      swap4\n      dup5\n      shr\n      swap4\n        /* \"#utility.yul\":5070:5085   */\n      swap1\n      dup1\n      mul\n      swap1\n        /* \"#utility.yul\":4872:5142   */\n      jump(tag_485)\n    tag_487:\n        /* \"#utility.yul\":4876:4879   */\n      pop\n        /* \"#utility.yul\":4732:5148   */\n      swap3\n      pop\n      swap3\n      swap1\n      pop\n      jump\t// out\n        /* \"#utility.yul\":5153:5959   */\n    tag_438:\n        /* \"#utility.yul\":5202:5207   */\n      0x00\n        /* \"#utility.yul\":5232:5240   */\n      dup3\n        /* \"#utility.yul\":5222:5302   */\n      tag_492\n      jumpi\n      pop\n        /* \"#utility.yul\":5273:5274   */\n      0x01\n        /* \"#utility.yul\":5287:5292   */\n      jump(tag_176)\n        /* \"#utility.yul\":5222:5302   */\n    tag_492:\n        /* \"#utility.yul\":5321:5325   */\n      dup2\n        /* \"#utility.yul\":5311:5387   */\n      tag_493\n      jumpi\n      pop\n        /* \"#utility.yul\":5358:5359   */\n      0x00\n        /* \"#utility.yul\":5372:5377   */\n      jump(tag_176)\n        /* \"#utility.yul\":5311:5387   */\n    tag_493:\n        /* \"#utility.yul\":5403:5407   */\n      dup2\n        /* \"#utility.yul\":5421:5422   */\n      0x01\n        /* \"#utility.yul\":5416:5475   */\n      dup2\n      eq\n      tag_495\n      jumpi\n        /* \"#utility.yul\":5489:5490   */\n      0x02\n        /* \"#utility.yul\":5484:5614   */\n      dup2\n      eq\n      tag_496\n      jumpi\n        /* \"#utility.yul\":5396:5614   */\n      jump(tag_494)\n        /* \"#utility.yul\":5416:5475   */\n    tag_495:\n        /* \"#utility.yul\":5446:5447   */\n      0x01\n        /* \"#utility.yul\":5437:5447   */\n      swap2\n      pop\n        /* \"#utility.yul\":5460:5465   */\n      pop\n      jump(tag_176)\n        /* \"#utility.yul\":5484:5614   */\n    tag_496:\n        /* \"#utility.yul\":5521:5524   */\n      0xff\n        /* \"#utility.yul\":5511:5519   */\n      dup5\n        /* \"#utility.yul\":5508:5525   */\n      gt\n        /* \"#utility.yul\":5505:5548   */\n      iszero\n      tag_498\n      jumpi\n        /* \"#utility.yul\":5528:5546   */\n      tag_498\n      tag_436\n      jump\t// in\n    tag_498:\n      pop\n      pop\n        /* \"#utility.yul\":5584:5585   */\n      0x01\n        /* \"#utility.yul\":5570:5586   */\n      dup3\n      shl\n        /* \"#utility.yul\":5599:5604   */\n      jump(tag_176)\n        /* \"#utility.yul\":5396:5614   */\n    tag_494:\n      pop\n        /* \"#utility.yul\":5698:5700   */\n      0x20\n        /* \"#utility.yul\":5688:5696   */\n      dup4\n        /* \"#utility.yul\":5685:5701   */\n      lt\n        /* \"#utility.yul\":5679:5682   */\n      0x0133\n        /* \"#utility.yul\":5673:5677   */\n      dup4\n        /* \"#utility.yul\":5670:5683   */\n      lt\n        /* \"#utility.yul\":5666:5702   */\n      and\n        /* \"#utility.yul\":5660:5662   */\n      0x4e\n        /* \"#utility.yul\":5650:5658   */\n      dup5\n        /* \"#utility.yul\":5647:5663   */\n      lt\n        /* \"#utility.yul\":5642:5644   */\n      0x0b\n        /* \"#utility.yul\":5636:5640   */\n      dup5\n        /* \"#utility.yul\":5633:5645   */\n      lt\n        /* \"#utility.yul\":5629:5664   */\n      and\n        /* \"#utility.yul\":5626:5703   */\n      or\n        /* \"#utility.yul\":5623:5782   */\n      iszero\n      tag_499\n      jumpi\n      pop\n        /* \"#utility.yul\":5735:5754   */\n      dup2\n      dup2\n      exp\n        /* \"#utility.yul\":5767:5772   */\n      jump(tag_176)\n        /* \"#utility.yul\":5623:5782   */\n    tag_499:\n        /* \"#utility.yul\":5814:5848   */\n      tag_500\n        /* \"#utility.yul\":5839:5847   */\n      dup4\n        /* \"#utility.yul\":5833:5837   */\n      dup4\n        /* \"#utility.yul\":5814:5848   */\n      tag_437\n      jump\t// in\n    tag_500:\n        /* \"#utility.yul\":5884:5890   */\n      dup1\n        /* \"#utility.yul\":5880:5881   */\n      0x00\n        /* \"#utility.yul\":5876:5882   */\n      not\n        /* \"#utility.yul\":5872:5891   */\n      div\n        /* \"#utility.yul\":5863:5870   */\n      dup3\n        /* \"#utility.yul\":5860:5892   */\n      gt\n        /* \"#utility.yul\":5857:5915   */\n      iszero\n      tag_502\n      jumpi\n        /* \"#utility.yul\":5895:5913   */\n      tag_502\n      tag_436\n      jump\t// in\n    tag_502:\n        /* \"#utility.yul\":5933:5953   */\n      mul\n      swap4\n        /* \"#utility.yul\":5153:5959   */\n      swap3\n      pop\n      pop\n      pop\n      jump\t// out\n        /* \"#utility.yul\":5964:6104   */\n    tag_269:\n        /* \"#utility.yul\":6022:6027   */\n      0x00\n        /* \"#utility.yul\":6051:6098   */\n      tag_187\n        /* \"#utility.yul\":6092:6096   */\n      0xff\n        /* \"#utility.yul\":6082:6090   */\n      dup5\n        /* \"#utility.yul\":6078:6097   */\n      and\n        /* \"#utility.yul\":6072:6076   */\n      dup4\n        /* \"#utility.yul\":6051:6098   */\n      tag_438\n      jump\t// in\n        /* \"#utility.yul\":6469:6597   */\n    tag_305:\n        /* \"#utility.yul\":6536:6545   */\n      dup2\n      dup2\n      sub\n        /* \"#utility.yul\":6557:6568   */\n      dup2\n      dup2\n      gt\n        /* \"#utility.yul\":6554:6591   */\n      iszero\n      tag_176\n      jumpi\n        /* \"#utility.yul\":6571:6589   */\n      tag_176\n      tag_436\n      jump\t// in\n        /* \"#utility.yul\":6855:6982   */\n    tag_349:\n        /* \"#utility.yul\":6916:6926   */\n      0x4e487b71\n        /* \"#utility.yul\":6911:6914   */\n      0xe0\n        /* \"#utility.yul\":6907:6927   */\n      shl\n        /* \"#utility.yul\":6904:6905   */\n      0x00\n        /* \"#utility.yul\":6897:6928   */\n      mstore\n        /* \"#utility.yul\":6947:6951   */\n      0x12\n        /* \"#utility.yul\":6944:6945   */\n      0x04\n        /* \"#utility.yul\":6937:6952   */\n      mstore\n        /* \"#utility.yul\":6971:6975   */\n      0x24\n        /* \"#utility.yul\":6968:6969   */\n      0x00\n        /* \"#utility.yul\":6961:6976   */\n      revert\n        /* \"#utility.yul\":6987:7155   */\n    tag_371:\n        /* \"#utility.yul\":7060:7069   */\n      dup1\n      dup3\n      mul\n        /* \"#utility.yul\":7091:7100   */\n      dup2\n      iszero\n        /* \"#utility.yul\":7108:7123   */\n      dup3\n      dup3\n      div\n        /* \"#utility.yul\":7102:7124   */\n      dup5\n      eq\n        /* \"#utility.yul\":7088:7125   */\n      or\n        /* \"#utility.yul\":7078:7149   */\n      tag_176\n      jumpi\n        /* \"#utility.yul\":7129:7147   */\n      tag_176\n      tag_436\n      jump\t// in\n        /* \"#utility.yul\":7160:7280   */\n    tag_374:\n        /* \"#utility.yul\":7200:7201   */\n      0x00\n        /* \"#utility.yul\":7226:7227   */\n      dup3\n        /* \"#utility.yul\":7216:7251   */\n      tag_516\n      jumpi\n        /* \"#utility.yul\":7231:7249   */\n      tag_516\n      tag_349\n      jump\t// in\n    tag_516:\n      pop\n        /* \"#utility.yul\":7265:7274   */\n      div\n      swap1\n        /* \"#utility.yul\":7160:7280   */\n      jump\t// out\n        /* \"#utility.yul\":7944:8071   */\n    tag_400:\n        /* \"#utility.yul\":8005:8015   */\n      0x4e487b71\n        /* \"#utility.yul\":8000:8003   */\n      0xe0\n        /* \"#utility.yul\":7996:8016   */\n      shl\n        /* \"#utility.yul\":7993:7994   */\n      0x00\n        /* \"#utility.yul\":7986:8017   */\n      mstore\n        /* \"#utility.yul\":8036:8040   */\n      0x21\n        /* \"#utility.yul\":8033:8034   */\n      0x04\n        /* \"#utility.yul\":8026:8041   */\n      mstore\n        /* \"#utility.yul\":8060:8064   */\n      0x24\n        /* \"#utility.yul\":8057:8058   */\n      0x00\n        /* \"#utility.yul\":8050:8065   */\n      revert\n        /* \"#utility.yul\":8076:8233   */\n    tag_402:\n        /* \"#utility.yul\":8106:8107   */\n      0x00\n        /* \"#utility.yul\":8140:8144   */\n      0xff\n        /* \"#utility.yul\":8137:8138   */\n      dup4\n        /* \"#utility.yul\":8133:8145   */\n      and\n        /* \"#utility.yul\":8164:8167   */\n      dup1\n        /* \"#utility.yul\":8154:8191   */\n      tag_522\n      jumpi\n        /* \"#utility.yul\":8171:8189   */\n      tag_522\n      tag_349\n      jump\t// in\n    tag_522:\n        /* \"#utility.yul\":8223:8226   */\n      dup1\n        /* \"#utility.yul\":8216:8220   */\n      0xff\n        /* \"#utility.yul\":8213:8214   */\n      dup5\n        /* \"#utility.yul\":8209:8221   */\n      and\n        /* \"#utility.yul\":8205:8227   */\n      mod\n        /* \"#utility.yul\":8200:8227   */\n      swap2\n      pop\n      pop\n        /* \"#utility.yul\":8076:8233   */\n      swap3\n      swap2\n      pop\n      pop\n      jump\t// out\n        /* \"#utility.yul\":8238:8515   */\n    tag_408:\n        /* \"#utility.yul\":8305:8311   */\n      0x00\n        /* \"#utility.yul\":8358:8360   */\n      0x20\n        /* \"#utility.yul\":8346:8355   */\n      dup3\n        /* \"#utility.yul\":8337:8344   */\n      dup5\n        /* \"#utility.yul\":8333:8356   */\n      sub\n        /* \"#utility.yul\":8329:8361   */\n      slt\n        /* \"#utility.yul\":8326:8378   */\n      iszero\n      tag_524\n      jumpi\n        /* \"#utility.yul\":8374:8375   */\n      0x00\n        /* \"#utility.yul\":8371:8372   */\n      dup1\n        /* \"#utility.yul\":8364:8376   */\n      revert\n        /* \"#utility.yul\":8326:8378   */\n    tag_524:\n        /* \"#utility.yul\":8406:8415   */\n      dup2\n        /* \"#utility.yul\":8400:8416   */\n      mload\n        /* \"#utility.yul\":8459:8464   */\n      dup1\n        /* \"#utility.yul\":8452:8465   */\n      iszero\n        /* \"#utility.yul\":8445:8466   */\n      iszero\n        /* \"#utility.yul\":8438:8443   */\n      dup2\n        /* \"#utility.yul\":8435:8467   */\n      eq\n        /* \"#utility.yul\":8425:8485   */\n      tag_187\n      jumpi\n        /* \"#utility.yul\":8481:8482   */\n      0x00\n        /* \"#utility.yul\":8478:8479   */\n      dup1\n        /* \"#utility.yul\":8471:8483   */\n      revert\n        /* \"#utility.yul\":8520:8821   */\n    tag_418:\n        /* \"#utility.yul\":8649:8652   */\n      0x00\n        /* \"#utility.yul\":8687:8693   */\n      dup3\n        /* \"#utility.yul\":8681:8694   */\n      mload\n        /* \"#utility.yul\":8733:8739   */\n      dup1\n        /* \"#utility.yul\":8726:8730   */\n      0x20\n        /* \"#utility.yul\":8718:8724   */\n      dup6\n        /* \"#utility.yul\":8714:8731   */\n      add\n        /* \"#utility.yul\":8709:8712   */\n      dup5\n        /* \"#utility.yul\":8703:8740   */\n      mcopy\n        /* \"#utility.yul\":8795:8796   */\n      0x00\n        /* \"#utility.yul\":8759:8775   */\n      swap3\n      add\n        /* \"#utility.yul\":8784:8797   */\n      swap2\n      dup3\n      mstore\n      pop\n        /* \"#utility.yul\":8759:8775   */\n      swap2\n        /* \"#utility.yul\":8520:8821   */\n      swap1\n      pop\n      jump\t// out\n\n    auxdata: 0xa2646970667358221220a10c4d6351bcba37f00c03419c32439e961029cfde109be745b1d8b5fda37c7b64736f6c63430008190033\n}\n",
				"bytecode": {
					"linkReferences": {},
					"object": "60c06040526002600755348015610014575f80fd5b506040516118f93803806118f98339810160408190526100339161020c565b8282826003610042838261030c565b50600461004f828261030c565b5050505f806100638361009a60201b60201c565b9150915081610073576012610075565b805b60ff1660a05250506001600160a01b03166080525050600160055550426006556103f8565b60408051600481526024810182526020810180516001600160e01b031663313ce56760e01b17905290515f918291829182916001600160a01b038716916100e0916103cb565b5f60405180830381855afa9150503d805f8114610118576040519150601f19603f3d011682016040523d82523d5f602084013e61011d565b606091505b509150915081801561013157506020815110155b15610164575f8180602001905181019061014b91906103e1565b905060ff8111610162576001969095509350505050565b505b505f9485945092505050565b634e487b7160e01b5f52604160045260245ffd5b5f82601f830112610193575f80fd5b81516001600160401b03808211156101ad576101ad610170565b604051601f8301601f19908116603f011681019082821181831017156101d5576101d5610170565b816040528381528660208588010111156101ed575f80fd5b8360208701602083015e5f602085830101528094505050505092915050565b5f805f6060848603121561021e575f80fd5b83516001600160a01b0381168114610234575f80fd5b60208501519093506001600160401b0380821115610250575f80fd5b61025c87838801610184565b93506040860151915080821115610271575f80fd5b5061027e86828701610184565b9150509250925092565b600181811c9082168061029c57607f821691505b6020821081036102ba57634e487b7160e01b5f52602260045260245ffd5b50919050565b601f82111561030757805f5260205f20601f840160051c810160208510156102e55750805b601f840160051c820191505b81811015610304575f81556001016102f1565b50505b505050565b81516001600160401b0381111561032557610325610170565b610339816103338454610288565b846102c0565b602080601f83116001811461036c575f84156103555750858301515b5f19600386901b1c1916600185901b1785556103c3565b5f85815260208120601f198616915b8281101561039a5788860151825594840194600190910190840161037b565b50858210156103b757878501515f19600388901b60f8161c191681555b505060018460011b0185555b505050505050565b5f82518060208501845e5f920191825250919050565b5f602082840312156103f1575f80fd5b5051919050565b60805160a0516114cb61042e5f395f6105b601525f8181610290015281816104500152818161099f0152610aa801526114cb5ff3fe608060405234801561000f575f80fd5b50600436106101d1575f3560e01c806394bf804d116100fe578063c63d75b61161009e578063dd62ed3e1161006e578063dd62ed3e146103d1578063ef8b30f714610398578063f266a21314610409578063fe9e964014610412575f80fd5b8063c63d75b6146102ba578063c6e6f59214610398578063ce96cb77146103ab578063d905777e146103be575f80fd5b8063a9059cbb116100d9578063a9059cbb1461034c578063b3d7f6b91461035f578063b460af9414610372578063ba08765214610385575f80fd5b806394bf804d1461032857806395d89b411461033b578063a30f035214610343575f80fd5b8063313ce567116101745780634cdad506116101445780634cdad506146102055780636e553f65146102d857806370a08231146102eb57806381c4d0e614610313575f80fd5b8063313ce5671461026957806338d52e0f14610283578063402d267d146102ba5780634395eb8e146102ce575f80fd5b8063095ea7b3116101af578063095ea7b3146102185780630a28a4771461023b57806318160ddd1461024e57806323b872dd14610256575f80fd5b806301e1d114146101d557806306fdde03146101f057806307a2d13a14610205575b5f80fd5b6101dd610439565b6040519081526020015b60405180910390f35b6101f86104c6565b6040516101e791906110d0565b6101dd610213366004611105565b610556565b61022b610226366004611137565b610567565b60405190151581526020016101e7565b6101dd610249366004611105565b61057e565b6002546101dd565b61022b61026436600461115f565b61058a565b6102716105af565b60405160ff90911681526020016101e7565b6040516001600160a01b037f00000000000000000000000000000000000000000000000000000000000000001681526020016101e7565b6101dd6102c8366004611198565b505f1990565b6101dd6201518081565b6101dd6102e63660046111b1565b6105da565b6101dd6102f9366004611198565b6001600160a01b03165f9081526020819052604090205490565b610326610321366004611105565b610601565b005b6101dd6103363660046111b1565b61065e565b6101f861068f565b6101dd60065481565b61022b61035a366004611137565b61069e565b6101dd61036d366004611105565b6106ab565b6101dd6103803660046111db565b6106b7565b6101dd6103933660046111db565b6106df565b6101dd6103a6366004611105565b610735565b6101dd6103b9366004611198565b610740565b6101dd6103cc366004611198565b610762565b6101dd6103df366004611214565b6001600160a01b039182165f90815260016020908152604080832093909416825291909152205490565b6101dd60075481565b6101dd7f470f4f1717679395b6a9e0700797bfeeaa970f1643e72f5684d687c0be10fe2781565b6040516370a0823160e01b81523060048201525f907f00000000000000000000000000000000000000000000000000000000000000006001600160a01b0316906370a0823190602401602060405180830381865afa15801561049d573d5f803e3d5ffd5b505050506040513d601f19601f820116820180604052508101906104c1919061123c565b905090565b6060600380546104d590611253565b80601f016020809104026020016040519081016040528092919081815260200182805461050190611253565b801561054c5780601f106105235761010080835404028352916020019161054c565b820191905f5260205f20905b81548152906001019060200180831161052f57829003601f168201915b5050505050905090565b5f610561825f61077f565b92915050565b5f336105748185856107b7565b5060019392505050565b5f6105618260016107c9565b5f336105978582856107f8565b6105a2858585610860565b60019150505b9392505050565b5f6104c1817f000000000000000000000000000000000000000000000000000000000000000061129f565b5f6105e36108bd565b6105eb610916565b6105f58383610983565b90506105616001600555565b606481111561062357604051632997750360e11b815260040160405180910390fd5b60078190556040518181527f5842a31a46ea5ce5b950bf6d04c8b832a9deae72e0e54bcf928f0d72123f28659060200160405180910390a150565b5f5f1961066f565b60405180910390fd5b5f610679856106ab565b90506106873385838861099a565b949350505050565b6060600480546104d590611253565b5f33610574818585610860565b5f61056182600161077f565b5f6106c06108bd565b6106c8610916565b6106d3848484610a2c565b90506105a86001600555565b5f806106ea83610762565b90508085111561071357828582604051632e52afbb60e21b8152600401610666939291906112b8565b5f61071d86610556565b905061072c338686848a610a75565b95945050505050565b5f610561825f6107c9565b6001600160a01b0381165f90815260208190526040812054610561905f61077f565b6001600160a01b0381165f90815260208190526040812054610561565b5f6105a861078b610439565b6107969060016112d9565b6107a15f600a6113cc565b6002546107ae91906112d9565b85919085610b35565b6107c48383836001610b82565b505050565b5f6105a86107d882600a6113cc565b6002546107e591906112d9565b6107ed610439565b6107ae9060016112d9565b6001600160a01b038381165f908152600160209081526040808320938616835292905220545f19811461085a578181101561084c57828183604051637dc7a0d960e11b8152600401610666939291906112b8565b61085a84848484035f610b82565b50505050565b6001600160a01b03831661088957604051634b637e8f60e11b81525f6004820152602401610666565b6001600160a01b0382166108b25760405163ec442f0560e01b81525f6004820152602401610666565b6107c4838383610c46565b60026005540361090f5760405162461bcd60e51b815260206004820152601f60248201527f5265656e7472616e637947756172643a207265656e7472616e742063616c6c006044820152606401610666565b6002600555565b5f6006544261092591906113da565b9050620151808110610980575f61093b82610d59565b90506109473082610d8d565b426006556040518181527f3b6bc0ba304eaa17cdca1b053baac859e721c7a775cddefc825f6286641311fc9060200160405180910390a1505b50565b5f5f195f61099085610735565b9050610687338587845b6109c67f0000000000000000000000000000000000000000000000000000000000000000853085610dc5565b6109d08382610d8d565b826001600160a01b0316846001600160a01b03167fdcbc1c05240f31ff3ad067ef1ee35ce4997762752e3a095284754544f4c709d78484604051610a1e929190918252602082015260400190565b60405180910390a350505050565b5f80610a3783610740565b905080851115610a6057828582604051633fa733bb60e21b8152600401610666939291906112b8565b5f610a6a8661057e565b905061072c33868689855b826001600160a01b0316856001600160a01b031614610a9957610a998386836107f8565b610aa38382610e2c565b610ace7f00000000000000000000000000000000000000000000000000000000000000008584610e60565b826001600160a01b0316846001600160a01b0316866001600160a01b03167ffbde797d201c681b91056529119e0b02407c7bb96a4a2c75c01fc9667232c8db8585604051610b26929190918252602082015260400190565b60405180910390a45050505050565b5f80610b42868686610e91565b9050610b4d83610f50565b8015610b6857505f8480610b6357610b636113ed565b868809115b1561072c57610b786001826112d9565b9695505050505050565b6001600160a01b038416610bab5760405163e602df0560e01b81525f6004820152602401610666565b6001600160a01b038316610bd457604051634a1406b160e11b81525f6004820152602401610666565b6001600160a01b038085165f908152600160209081526040808320938716835292905220829055801561085a57826001600160a01b0316846001600160a01b03167f8c5be1e5ebec7d5bd14f71427d1e84f3dd0314c0f7b2291e5b200ac8c7c3b92584604051610a1e91815260200190565b6001600160a01b038316610c70578060025f828254610c6591906112d9565b90915550610ccd9050565b6001600160a01b0383165f9081526020819052604090205481811015610caf5783818360405163391434e360e21b8152600401610666939291906112b8565b6001600160a01b0384165f9081526020819052604090209082900390555b6001600160a01b038216610ce957600280548290039055610d07565b6001600160a01b0382165f9081526020819052604090208054820190555b816001600160a01b0316836001600160a01b03167fddf252ad1be2c89b69c2b068fc378daa952ba7f163c4a11628f55a4df523b3ef83604051610d4c91815260200190565b60405180910390a3505050565b5f80610d63610439565b905063bbf81e008360075483610d799190611401565b610d839190611401565b6105a89190611418565b6001600160a01b038216610db65760405163ec442f0560e01b81525f6004820152602401610666565b610dc15f8383610c46565b5050565b6040516001600160a01b03848116602483015283811660448301526064820183905261085a9186918216906323b872dd906084015b604051602081830303815290604052915060e01b6020820180516001600160e01b038381831617835250505050610f7c565b6001600160a01b038216610e5557604051634b637e8f60e11b81525f6004820152602401610666565b610dc1825f83610c46565b6040516001600160a01b038381166024830152604482018390526107c491859182169063a9059cbb90606401610dfa565b5f838302815f1985870982811083820303915050805f03610ec557838281610ebb57610ebb6113ed565b04925050506105a8565b808411610ee55760405163227bc15360e01b815260040160405180910390fd5b5f848688095f868103871696879004966002600389028118808a02820302808a02820302808a02820302808a02820302808a02820302808a02909103029181900381900460010186841190950394909402919094039290920491909117919091029150509392505050565b5f6002826003811115610f6557610f6561142b565b610f6f919061143f565b60ff166001149050919050565b5f610f906001600160a01b03841683610fdd565b905080515f14158015610fb4575080806020019051810190610fb29190611460565b155b156107c457604051635274afe760e01b81526001600160a01b0384166004820152602401610666565b60606105a883835f845f80856001600160a01b03168486604051611001919061147f565b5f6040518083038185875af1925050503d805f811461103b576040519150601f19603f3d011682016040523d82523d5f602084013e611040565b606091505b5091509150610b788683836060826110605761105b826110a7565b6105a8565b815115801561107757506001600160a01b0384163b155b156110a057604051639996b31560e01b81526001600160a01b0385166004820152602401610666565b50806105a8565b8051156110b75780518082602001fd5b604051630a12f52160e11b815260040160405180910390fd5b602081525f82518060208401528060208501604085015e5f604082850101526040601f19601f83011684010191505092915050565b5f60208284031215611115575f80fd5b5035919050565b80356001600160a01b0381168114611132575f80fd5b919050565b5f8060408385031215611148575f80fd5b6111518361111c565b946020939093013593505050565b5f805f60608486031215611171575f80fd5b61117a8461111c565b92506111886020850161111c565b9150604084013590509250925092565b5f602082840312156111a8575f80fd5b6105a88261111c565b5f80604083850312156111c2575f80fd5b823591506111d26020840161111c565b90509250929050565b5f805f606084860312156111ed575f80fd5b833592506111fd6020850161111c565b915061120b6040850161111c565b90509250925092565b5f8060408385031215611225575f80fd5b61122e8361111c565b91506111d26020840161111c565b5f6020828403121561124c575f80fd5b5051919050565b600181811c9082168061126757607f821691505b60208210810361128557634e487b7160e01b5f52602260045260245ffd5b50919050565b634e487b7160e01b5f52601160045260245ffd5b60ff81811683821601908111156105615761056161128b565b6001600160a01b039390931683526020830191909152604082015260600190565b808201808211156105615761056161128b565b600181815b8085111561132657815f190482111561130c5761130c61128b565b8085161561131957918102915b93841c93908002906112f1565b509250929050565b5f8261133c57506001610561565b8161134857505f610561565b816001811461135e576002811461136857611384565b6001915050610561565b60ff8411156113795761137961128b565b50506001821b610561565b5060208310610133831016604e8410600b84101617156113a7575081810a610561565b6113b183836112ec565b805f19048211156113c4576113c461128b565b029392505050565b5f6105a860ff84168361132e565b818103818111156105615761056161128b565b634e487b7160e01b5f52601260045260245ffd5b80820281158282048414176105615761056161128b565b5f82611426576114266113ed565b500490565b634e487b7160e01b5f52602160045260245ffd5b5f60ff831680611451576114516113ed565b8060ff84160691505092915050565b5f60208284031215611470575f80fd5b815180151581146105a8575f80fd5b5f82518060208501845e5f92019182525091905056fea2646970667358221220a10c4d6351bcba37f00c03419c32439e961029cfde109be745b1d8b5fda37c7b64736f6c63430008190033",
					"opcodes": "PUSH1 0xC0 PUSH1 0x40 MSTORE PUSH1 0x2 PUSH1 0x7 SSTORE CALLVALUE DUP1 ISZERO PUSH2 0x14 JUMPI PUSH0 DUP1 REVERT JUMPDEST POP PUSH1 0x40 MLOAD PUSH2 0x18F9 CODESIZE SUB DUP1 PUSH2 0x18F9 DUP4 CODECOPY DUP2 ADD PUSH1 0x40 DUP2 SWAP1 MSTORE PUSH2 0x33 SWAP2 PUSH2 0x20C JUMP JUMPDEST DUP3 DUP3 DUP3 PUSH1 0x3 PUSH2 0x42 DUP4 DUP3 PUSH2 0x30C JUMP JUMPDEST POP PUSH1 0x4 PUSH2 0x4F DUP3 DUP3 PUSH2 0x30C JUMP JUMPDEST POP POP POP PUSH0 DUP1 PUSH2 0x63 DUP4 PUSH2 0x9A PUSH1 0x20 SHL PUSH1 0x20 SHR JUMP JUMPDEST SWAP2 POP SWAP2 POP DUP2 PUSH2 0x73 JUMPI PUSH1 0x12 PUSH2 0x75 JUMP JUMPDEST DUP1 JUMPDEST PUSH1 0xFF AND PUSH1 0xA0 MSTORE POP POP PUSH1 0x1 PUSH1 0x1 PUSH1 0xA0 SHL SUB AND PUSH1 0x80 MSTORE POP POP PUSH1 0x1 PUSH1 0x5 SSTORE POP TIMESTAMP PUSH1 0x6 SSTORE PUSH2 0x3F8 JUMP JUMPDEST PUSH1 0x40 DUP1 MLOAD PUSH1 0x4 DUP2 MSTORE PUSH1 0x24 DUP2 ADD DUP3 MSTORE PUSH1 0x20 DUP2 ADD DUP1 MLOAD PUSH1 0x1 PUSH1 0x1 PUSH1 0xE0 SHL SUB AND PUSH4 0x313CE567 PUSH1 0xE0 SHL OR SWAP1 MSTORE SWAP1 MLOAD PUSH0 SWAP2 DUP3 SWAP2 DUP3 SWAP2 DUP3 SWAP2 PUSH1 0x1 PUSH1 0x1 PUSH1 0xA0 SHL SUB DUP8 AND SWAP2 PUSH2 0xE0 SWAP2 PUSH2 0x3CB JUMP JUMPDEST PUSH0 PUSH1 0x40 MLOAD DUP1 DUP4 SUB DUP2 DUP6 GAS STATICCALL SWAP2 POP POP RETURNDATASIZE DUP1 PUSH0 DUP2 EQ PUSH2 0x118 JUMPI PUSH1 0x40 MLOAD SWAP2 POP PUSH1 0x1F NOT PUSH1 0x3F RETURNDATASIZE ADD AND DUP3 ADD PUSH1 0x40 MSTORE RETURNDATASIZE DUP3 MSTORE RETURNDATASIZE PUSH0 PUSH1 0x20 DUP5 ADD RETURNDATACOPY PUSH2 0x11D JUMP JUMPDEST PUSH1 0x60 SWAP2 POP JUMPDEST POP SWAP2 POP SWAP2 POP DUP2 DUP1 ISZERO PUSH2 0x131 JUMPI POP PUSH1 0x20 DUP2 MLOAD LT ISZERO JUMPDEST ISZERO PUSH2 0x164 JUMPI PUSH0 DUP2 DUP1 PUSH1 0x20 ADD SWAP1 MLOAD DUP2 ADD SWAP1 PUSH2 0x14B SWAP2 SWAP1 PUSH2 0x3E1 JUMP JUMPDEST SWAP1 POP PUSH1 0xFF DUP2 GT PUSH2 0x162 JUMPI PUSH1 0x1 SWAP7 SWAP1 SWAP6 POP SWAP4 POP POP POP POP JUMP JUMPDEST POP JUMPDEST POP PUSH0 SWAP5 DUP6 SWAP5 POP SWAP3 POP POP POP JUMP JUMPDEST PUSH4 0x4E487B71 PUSH1 0xE0 SHL PUSH0 MSTORE PUSH1 0x41 PUSH1 0x4 MSTORE PUSH1 0x24 PUSH0 REVERT JUMPDEST PUSH0 DUP3 PUSH1 0x1F DUP4 ADD SLT PUSH2 0x193 JUMPI PUSH0 DUP1 REVERT JUMPDEST DUP2 MLOAD PUSH1 0x1 PUSH1 0x1 PUSH1 0x40 SHL SUB DUP1 DUP3 GT ISZERO PUSH2 0x1AD JUMPI PUSH2 0x1AD PUSH2 0x170 JUMP JUMPDEST PUSH1 0x40 MLOAD PUSH1 0x1F DUP4 ADD PUSH1 0x1F NOT SWAP1 DUP2 AND PUSH1 0x3F ADD AND DUP2 ADD SWAP1 DUP3 DUP3 GT DUP2 DUP4 LT OR ISZERO PUSH2 0x1D5 JUMPI PUSH2 0x1D5 PUSH2 0x170 JUMP JUMPDEST DUP2 PUSH1 0x40 MSTORE DUP4 DUP2 MSTORE DUP7 PUSH1 0x20 DUP6 DUP9 ADD ADD GT ISZERO PUSH2 0x1ED JUMPI PUSH0 DUP1 REVERT JUMPDEST DUP4 PUSH1 0x20 DUP8 ADD PUSH1 0x20 DUP4 ADD MCOPY PUSH0 PUSH1 0x20 DUP6 DUP4 ADD ADD MSTORE DUP1 SWAP5 POP POP POP POP POP SWAP3 SWAP2 POP POP JUMP JUMPDEST PUSH0 DUP1 PUSH0 PUSH1 0x60 DUP5 DUP7 SUB SLT ISZERO PUSH2 0x21E JUMPI PUSH0 DUP1 REVERT JUMPDEST DUP4 MLOAD PUSH1 0x1 PUSH1 0x1 PUSH1 0xA0 SHL SUB DUP2 AND DUP2 EQ PUSH2 0x234 JUMPI PUSH0 DUP1 REVERT JUMPDEST PUSH1 0x20 DUP6 ADD MLOAD SWAP1 SWAP4 POP PUSH1 0x1 PUSH1 0x1 PUSH1 0x40 SHL SUB DUP1 DUP3 GT ISZERO PUSH2 0x250 JUMPI PUSH0 DUP1 REVERT JUMPDEST PUSH2 0x25C DUP8 DUP4 DUP9 ADD PUSH2 0x184 JUMP JUMPDEST SWAP4 POP PUSH1 0x40 DUP7 ADD MLOAD SWAP2 POP DUP1 DUP3 GT ISZERO PUSH2 0x271 JUMPI PUSH0 DUP1 REVERT JUMPDEST POP PUSH2 0x27E DUP7 DUP3 DUP8 ADD PUSH2 0x184 JUMP JUMPDEST SWAP2 POP POP SWAP3 POP SWAP3 POP SWAP3 JUMP JUMPDEST PUSH1 0x1 DUP2 DUP2 SHR SWAP1 DUP3 AND DUP1 PUSH2 0x29C JUMPI PUSH1 0x7F DUP3 AND SWAP2 POP JUMPDEST PUSH1 0x20 DUP3 LT DUP2 SUB PUSH2 0x2BA JUMPI PUSH4 0x4E487B71 PUSH1 0xE0 SHL PUSH0 MSTORE PUSH1 0x22 PUSH1 0x4 MSTORE PUSH1 0x24 PUSH0 REVERT JUMPDEST POP SWAP2 SWAP1 POP JUMP JUMPDEST PUSH1 0x1F DUP3 GT ISZERO PUSH2 0x307 JUMPI DUP1 PUSH0 MSTORE PUSH1 0x20 PUSH0 KECCAK256 PUSH1 0x1F DUP5 ADD PUSH1 0x5 SHR DUP2 ADD PUSH1 0x20 DUP6 LT ISZERO PUSH2 0x2E5 JUMPI POP DUP1 JUMPDEST PUSH1 0x1F DUP5 ADD PUSH1 0x5 SHR DUP3 ADD SWAP2 POP JUMPDEST DUP2 DUP2 LT ISZERO PUSH2 0x304 JUMPI PUSH0 DUP2 SSTORE PUSH1 0x1 ADD PUSH2 0x2F1 JUMP JUMPDEST POP POP JUMPDEST POP POP POP JUMP JUMPDEST DUP2 MLOAD PUSH1 0x1 PUSH1 0x1 PUSH1 0x40 SHL SUB DUP2 GT ISZERO PUSH2 0x325 JUMPI PUSH2 0x325 PUSH2 0x170 JUMP JUMPDEST PUSH2 0x339 DUP2 PUSH2 0x333 DUP5 SLOAD PUSH2 0x288 JUMP JUMPDEST DUP5 PUSH2 0x2C0 JUMP JUMPDEST PUSH1 0x20 DUP1 PUSH1 0x1F DUP4 GT PUSH1 0x1 DUP2 EQ PUSH2 0x36C JUMPI PUSH0 DUP5 ISZERO PUSH2 0x355 JUMPI POP DUP6 DUP4 ADD MLOAD JUMPDEST PUSH0 NOT PUSH1 0x3 DUP7 SWAP1 SHL SHR NOT AND PUSH1 0x1 DUP6 SWAP1 SHL OR DUP6 SSTORE PUSH2 0x3C3 JUMP JUMPDEST PUSH0 DUP6 DUP2 MSTORE PUSH1 0x20 DUP2 KECCAK256 PUSH1 0x1F NOT DUP7 AND SWAP2 JUMPDEST DUP3 DUP2 LT ISZERO PUSH2 0x39A JUMPI DUP9 DUP7 ADD MLOAD DUP3 SSTORE SWAP5 DUP5 ADD SWAP5 PUSH1 0x1 SWAP1 SWAP2 ADD SWAP1 DUP5 ADD PUSH2 0x37B JUMP JUMPDEST POP DUP6 DUP3 LT ISZERO PUSH2 0x3B7 JUMPI DUP8 DUP6 ADD MLOAD PUSH0 NOT PUSH1 0x3 DUP9 SWAP1 SHL PUSH1 0xF8 AND SHR NOT AND DUP2 SSTORE JUMPDEST POP POP PUSH1 0x1 DUP5 PUSH1 0x1 SHL ADD DUP6 SSTORE JUMPDEST POP POP POP POP POP POP JUMP JUMPDEST PUSH0 DUP3 MLOAD DUP1 PUSH1 0x20 DUP6 ADD DUP5 MCOPY PUSH0 SWAP3 ADD SWAP2 DUP3 MSTORE POP SWAP2 SWAP1 POP JUMP JUMPDEST PUSH0 PUSH1 0x20 DUP3 DUP5 SUB SLT ISZERO PUSH2 0x3F1 JUMPI PUSH0 DUP1 REVERT JUMPDEST POP MLOAD SWAP2 SWAP1 POP JUMP JUMPDEST PUSH1 0x80 MLOAD PUSH1 0xA0 MLOAD PUSH2 0x14CB PUSH2 0x42E PUSH0 CODECOPY PUSH0 PUSH2 0x5B6 ADD MSTORE PUSH0 DUP2 DUP2 PUSH2 0x290 ADD MSTORE DUP2 DUP2 PUSH2 0x450 ADD MSTORE DUP2 DUP2 PUSH2 0x99F ADD MSTORE PUSH2 0xAA8 ADD MSTORE PUSH2 0x14CB PUSH0 RETURN INVALID PUSH1 0x80 PUSH1 0x40 MSTORE CALLVALUE DUP1 ISZERO PUSH2 0xF JUMPI PUSH0 DUP1 REVERT JUMPDEST POP PUSH1 0x4 CALLDATASIZE LT PUSH2 0x1D1 JUMPI PUSH0 CALLDATALOAD PUSH1 0xE0 SHR DUP1 PUSH4 0x94BF804D GT PUSH2 0xFE JUMPI DUP1 PUSH4 0xC63D75B6 GT PUSH2 0x9E JUMPI DUP1 PUSH4 0xDD62ED3E GT PUSH2 0x6E JUMPI DUP1 PUSH4 0xDD62ED3E EQ PUSH2 0x3D1 JUMPI DUP1 PUSH4 0xEF8B30F7 EQ PUSH2 0x398 JUMPI DUP1 PUSH4 0xF266A213 EQ PUSH2 0x409 JUMPI DUP1 PUSH4 0xFE9E9640 EQ PUSH2 0x412 JUMPI PUSH0 DUP1 REVERT JUMPDEST DUP1 PUSH4 0xC63D75B6 EQ PUSH2 0x2BA JUMPI DUP1 PUSH4 0xC6E6F592 EQ PUSH2 0x398 JUMPI DUP1 PUSH4 0xCE96CB77 EQ PUSH2 0x3AB JUMPI DUP1 PUSH4 0xD905777E EQ PUSH2 0x3BE JUMPI PUSH0 DUP1 REVERT JUMPDEST DUP1 PUSH4 0xA9059CBB GT PUSH2 0xD9 JUMPI DUP1 PUSH4 0xA9059CBB EQ PUSH2 0x34C JUMPI DUP1 PUSH4 0xB3D7F6B9 EQ PUSH2 0x35F JUMPI DUP1 PUSH4 0xB460AF94 EQ PUSH2 0x372 JUMPI DUP1 PUSH4 0xBA087652 EQ PUSH2 0x385 JUMPI PUSH0 DUP1 REVERT JUMPDEST DUP1 PUSH4 0x94BF804D EQ PUSH2 0x328 JUMPI DUP1 PUSH4 0x95D89B41 EQ PUSH2 0x33B JUMPI DUP1 PUSH4 0xA30F0352 EQ PUSH2 0x343 JUMPI PUSH0 DUP1 REVERT JUMPDEST DUP1 PUSH4 0x313CE567 GT PUSH2 0x174 JUMPI DUP1 PUSH4 0x4CDAD506 GT PUSH2 0x144 JUMPI DUP1 PUSH4 0x4CDAD506 EQ PUSH2 0x205 JUMPI DUP1 PUSH4 0x6E553F65 EQ PUSH2 0x2D8 JUMPI DUP1 PUSH4 0x70A08231 EQ PUSH2 0x2EB JUMPI DUP1 PUSH4 0x81C4D0E6 EQ PUSH2 0x313 JUMPI PUSH0 DUP1 REVERT JUMPDEST DUP1 PUSH4 0x313CE567 EQ PUSH2 0x269 JUMPI DUP1 PUSH4 0x38D52E0F EQ PUSH2 0x283 JUMPI DUP1 PUSH4 0x402D267D EQ PUSH2 0x2BA JUMPI DUP1 PUSH4 0x4395EB8E EQ PUSH2 0x2CE JUMPI PUSH0 DUP1 REVERT JUMPDEST DUP1 PUSH4 0x95EA7B3 GT PUSH2 0x1AF JUMPI DUP1 PUSH4 0x95EA7B3 EQ PUSH2 0x218 JUMPI DUP1 PUSH4 0xA28A477 EQ PUSH2 0x23B JUMPI DUP1 PUSH4 0x18160DDD EQ PUSH2 0x24E JUMPI DUP1 PUSH4 0x23B872DD EQ PUSH2 0x256 JUMPI PUSH0 DUP1 REVERT JUMPDEST DUP1 PUSH4 0x1E1D114 EQ PUSH2 0x1D5 JUMPI DUP1 PUSH4 0x6FDDE03 EQ PUSH2 0x1F0 JUMPI DUP1 PUSH4 0x7A2D13A EQ PUSH2 0x205 JUMPI JUMPDEST PUSH0 DUP1 REVERT JUMPDEST PUSH2 0x1DD PUSH2 0x439 JUMP JUMPDEST PUSH1 0x40 MLOAD SWAP1 DUP2 MSTORE PUSH1 0x20 ADD JUMPDEST PUSH1 0x40 MLOAD DUP1 SWAP2 SUB SWAP1 RETURN JUMPDEST PUSH2 0x1F8 PUSH2 0x4C6 JUMP JUMPDEST PUSH1 0x40 MLOAD PUSH2 0x1E7 SWAP2 SWAP1 PUSH2 0x10D0 JUMP JUMPDEST PUSH2 0x1DD PUSH2 0x213 CALLDATASIZE PUSH1 0x4 PUSH2 0x1105 JUMP JUMPDEST PUSH2 0x556 JUMP JUMPDEST PUSH2 0x22B PUSH2 0x226 CALLDATASIZE PUSH1 0x4 PUSH2 0x1137 JUMP JUMPDEST PUSH2 0x567 JUMP JUMPDEST PUSH1 0x40 MLOAD SWAP1 ISZERO ISZERO DUP2 MSTORE PUSH1 0x20 ADD PUSH2 0x1E7 JUMP JUMPDEST PUSH2 0x1DD PUSH2 0x249 CALLDATASIZE PUSH1 0x4 PUSH2 0x1105 JUMP JUMPDEST PUSH2 0x57E JUMP JUMPDEST PUSH1 0x2 SLOAD PUSH2 0x1DD JUMP JUMPDEST PUSH2 0x22B PUSH2 0x264 CALLDATASIZE PUSH1 0x4 PUSH2 0x115F JUMP JUMPDEST PUSH2 0x58A JUMP JUMPDEST PUSH2 0x271 PUSH2 0x5AF JUMP JUMPDEST PUSH1 0x40 MLOAD PUSH1 0xFF SWAP1 SWAP2 AND DUP2 MSTORE PUSH1 0x20 ADD PUSH2 0x1E7 JUMP JUMPDEST PUSH1 0x40 MLOAD PUSH1 0x1 PUSH1 0x1 PUSH1 0xA0 SHL SUB PUSH32 0x0 AND DUP2 MSTORE PUSH1 0x20 ADD PUSH2 0x1E7 JUMP JUMPDEST PUSH2 0x1DD PUSH2 0x2C8 CALLDATASIZE PUSH1 0x4 PUSH2 0x1198 JUMP JUMPDEST POP PUSH0 NOT SWAP1 JUMP JUMPDEST PUSH2 0x1DD PUSH3 0x15180 DUP2 JUMP JUMPDEST PUSH2 0x1DD PUSH2 0x2E6 CALLDATASIZE PUSH1 0x4 PUSH2 0x11B1 JUMP JUMPDEST PUSH2 0x5DA JUMP JUMPDEST PUSH2 0x1DD PUSH2 0x2F9 CALLDATASIZE PUSH1 0x4 PUSH2 0x1198 JUMP JUMPDEST PUSH1 0x1 PUSH1 0x1 PUSH1 0xA0 SHL SUB AND PUSH0 SWAP1 DUP2 MSTORE PUSH1 0x20 DUP2 SWAP1 MSTORE PUSH1 0x40 SWAP1 KECCAK256 SLOAD SWAP1 JUMP JUMPDEST PUSH2 0x326 PUSH2 0x321 CALLDATASIZE PUSH1 0x4 PUSH2 0x1105 JUMP JUMPDEST PUSH2 0x601 JUMP JUMPDEST STOP JUMPDEST PUSH2 0x1DD PUSH2 0x336 CALLDATASIZE PUSH1 0x4 PUSH2 0x11B1 JUMP JUMPDEST PUSH2 0x65E JUMP JUMPDEST PUSH2 0x1F8 PUSH2 0x68F JUMP JUMPDEST PUSH2 0x1DD PUSH1 0x6 SLOAD DUP2 JUMP JUMPDEST PUSH2 0x22B PUSH2 0x35A CALLDATASIZE PUSH1 0x4 PUSH2 0x1137 JUMP JUMPDEST PUSH2 0x69E JUMP JUMPDEST PUSH2 0x1DD PUSH2 0x36D CALLDATASIZE PUSH1 0x4 PUSH2 0x1105 JUMP JUMPDEST PUSH2 0x6AB JUMP JUMPDEST PUSH2 0x1DD PUSH2 0x380 CALLDATASIZE PUSH1 0x4 PUSH2 0x11DB JUMP JUMPDEST PUSH2 0x6B7 JUMP JUMPDEST PUSH2 0x1DD PUSH2 0x393 CALLDATASIZE PUSH1 0x4 PUSH2 0x11DB JUMP JUMPDEST PUSH2 0x6DF JUMP JUMPDEST PUSH2 0x1DD PUSH2 0x3A6 CALLDATASIZE PUSH1 0x4 PUSH2 0x1105 JUMP JUMPDEST PUSH2 0x735 JUMP JUMPDEST PUSH2 0x1DD PUSH2 0x3B9 CALLDATASIZE PUSH1 0x4 PUSH2 0x1198 JUMP JUMPDEST PUSH2 0x740 JUMP JUMPDEST PUSH2 0x1DD PUSH2 0x3CC CALLDATASIZE PUSH1 0x4 PUSH2 0x1198 JUMP JUMPDEST PUSH2 0x762 JUMP JUMPDEST PUSH2 0x1DD PUSH2 0x3DF CALLDATASIZE PUSH1 0x4 PUSH2 0x1214 JUMP JUMPDEST PUSH1 0x1 PUSH1 0x1 PUSH1 0xA0 SHL SUB SWAP2 DUP3 AND PUSH0 SWAP1 DUP2 MSTORE PUSH1 0x1 PUSH1 0x20 SWAP1 DUP2 MSTORE PUSH1 0x40 DUP1 DUP4 KECCAK256 SWAP4 SWAP1 SWAP5 AND DUP3 MSTORE SWAP2 SWAP1 SWAP2 MSTORE KECCAK256 SLOAD SWAP1 JUMP JUMPDEST PUSH2 0x1DD PUSH1 0x7 SLOAD DUP2 JUMP JUMPDEST PUSH2 0x1DD PUSH32 0x470F4F1717679395B6A9E0700797BFEEAA970F1643E72F5684D687C0BE10FE27 DUP2 JUMP JUMPDEST PUSH1 0x40 MLOAD PUSH4 0x70A08231 PUSH1 0xE0 SHL DUP2 MSTORE ADDRESS PUSH1 0x4 DUP3 ADD MSTORE PUSH0 SWAP1 PUSH32 0x0 PUSH1 0x1 PUSH1 0x1 PUSH1 0xA0 SHL SUB AND SWAP1 PUSH4 0x70A08231 SWAP1 PUSH1 0x24 ADD PUSH1 0x20 PUSH1 0x40 MLOAD DUP1 DUP4 SUB DUP2 DUP7 GAS STATICCALL ISZERO DUP1 ISZERO PUSH2 0x49D JUMPI RETURNDATASIZE PUSH0 DUP1 RETURNDATACOPY RETURNDATASIZE PUSH0 REVERT JUMPDEST POP POP POP POP PUSH1 0x40 MLOAD RETURNDATASIZE PUSH1 0x1F NOT PUSH1 0x1F DUP3 ADD AND DUP3 ADD DUP1 PUSH1 0x40 MSTORE POP DUP2 ADD SWAP1 PUSH2 0x4C1 SWAP2 SWAP1 PUSH2 0x123C JUMP JUMPDEST SWAP1 POP SWAP1 JUMP JUMPDEST PUSH1 0x60 PUSH1 0x3 DUP1 SLOAD PUSH2 0x4D5 SWAP1 PUSH2 0x1253 JUMP JUMPDEST DUP1 PUSH1 0x1F ADD PUSH1 0x20 DUP1 SWAP2 DIV MUL PUSH1 0x20 ADD PUSH1 0x40 MLOAD SWAP1 DUP2 ADD PUSH1 0x40 MSTORE DUP1 SWAP3 SWAP2 SWAP1 DUP2 DUP2 MSTORE PUSH1 0x20 ADD DUP3 DUP1 SLOAD PUSH2 0x501 SWAP1 PUSH2 0x1253 JUMP JUMPDEST DUP1 ISZERO PUSH2 0x54C JUMPI DUP1 PUSH1 0x1F LT PUSH2 0x523 JUMPI PUSH2 0x100 DUP1 DUP4 SLOAD DIV MUL DUP4 MSTORE SWAP2 PUSH1 0x20 ADD SWAP2 PUSH2 0x54C JUMP JUMPDEST DUP3 ADD SWAP2 SWAP1 PUSH0 MSTORE PUSH1 0x20 PUSH0 KECCAK256 SWAP1 JUMPDEST DUP2 SLOAD DUP2 MSTORE SWAP1 PUSH1 0x1 ADD SWAP1 PUSH1 0x20 ADD DUP1 DUP4 GT PUSH2 0x52F JUMPI DUP3 SWAP1 SUB PUSH1 0x1F AND DUP3 ADD SWAP2 JUMPDEST POP POP POP POP POP SWAP1 POP SWAP1 JUMP JUMPDEST PUSH0 PUSH2 0x561 DUP3 PUSH0 PUSH2 0x77F JUMP JUMPDEST SWAP3 SWAP2 POP POP JUMP JUMPDEST PUSH0 CALLER PUSH2 0x574 DUP2 DUP6 DUP6 PUSH2 0x7B7 JUMP JUMPDEST POP PUSH1 0x1 SWAP4 SWAP3 POP POP POP JUMP JUMPDEST PUSH0 PUSH2 0x561 DUP3 PUSH1 0x1 PUSH2 0x7C9 JUMP JUMPDEST PUSH0 CALLER PUSH2 0x597 DUP6 DUP3 DUP6 PUSH2 0x7F8 JUMP JUMPDEST PUSH2 0x5A2 DUP6 DUP6 DUP6 PUSH2 0x860 JUMP JUMPDEST PUSH1 0x1 SWAP2 POP POP JUMPDEST SWAP4 SWAP3 POP POP POP JUMP JUMPDEST PUSH0 PUSH2 0x4C1 DUP2 PUSH32 0x0 PUSH2 0x129F JUMP JUMPDEST PUSH0 PUSH2 0x5E3 PUSH2 0x8BD JUMP JUMPDEST PUSH2 0x5EB PUSH2 0x916 JUMP JUMPDEST PUSH2 0x5F5 DUP4 DUP4 PUSH2 0x983 JUMP JUMPDEST SWAP1 POP PUSH2 0x561 PUSH1 0x1 PUSH1 0x5 SSTORE JUMP JUMPDEST PUSH1 0x64 DUP2 GT ISZERO PUSH2 0x623 JUMPI PUSH1 0x40 MLOAD PUSH4 0x29977503 PUSH1 0xE1 SHL DUP2 MSTORE PUSH1 0x4 ADD PUSH1 0x40 MLOAD DUP1 SWAP2 SUB SWAP1 REVERT JUMPDEST PUSH1 0x7 DUP2 SWAP1 SSTORE PUSH1 0x40 MLOAD DUP2 DUP2 MSTORE PUSH32 0x5842A31A46EA5CE5B950BF6D04C8B832A9DEAE72E0E54BCF928F0D72123F2865 SWAP1 PUSH1 0x20 ADD PUSH1 0x40 MLOAD DUP1 SWAP2 SUB SWAP1 LOG1 POP JUMP JUMPDEST PUSH0 PUSH0 NOT PUSH2 0x66F JUMP JUMPDEST PUSH1 0x40 MLOAD DUP1 SWAP2 SUB SWAP1 REVERT JUMPDEST PUSH0 PUSH2 0x679 DUP6 PUSH2 0x6AB JUMP JUMPDEST SWAP1 POP PUSH2 0x687 CALLER DUP6 DUP4 DUP9 PUSH2 0x99A JUMP JUMPDEST SWAP5 SWAP4 POP POP POP POP JUMP JUMPDEST PUSH1 0x60 PUSH1 0x4 DUP1 SLOAD PUSH2 0x4D5 SWAP1 PUSH2 0x1253 JUMP JUMPDEST PUSH0 CALLER PUSH2 0x574 DUP2 DUP6 DUP6 PUSH2 0x860 JUMP JUMPDEST PUSH0 PUSH2 0x561 DUP3 PUSH1 0x1 PUSH2 0x77F JUMP JUMPDEST PUSH0 PUSH2 0x6C0 PUSH2 0x8BD JUMP JUMPDEST PUSH2 0x6C8 PUSH2 0x916 JUMP JUMPDEST PUSH2 0x6D3 DUP5 DUP5 DUP5 PUSH2 0xA2C JUMP JUMPDEST SWAP1 POP PUSH2 0x5A8 PUSH1 0x1 PUSH1 0x5 SSTORE JUMP JUMPDEST PUSH0 DUP1 PUSH2 0x6EA DUP4 PUSH2 0x762 JUMP JUMPDEST SWAP1 POP DUP1 DUP6 GT ISZERO PUSH2 0x713 JUMPI DUP3 DUP6 DUP3 PUSH1 0x40 MLOAD PUSH4 0x2E52AFBB PUSH1 0xE2 SHL DUP2 MSTORE PUSH1 0x4 ADD PUSH2 0x666 SWAP4 SWAP3 SWAP2 SWAP1 PUSH2 0x12B8 JUMP JUMPDEST PUSH0 PUSH2 0x71D DUP7 PUSH2 0x556 JUMP JUMPDEST SWAP1 POP PUSH2 0x72C CALLER DUP7 DUP7 DUP5 DUP11 PUSH2 0xA75 JUMP JUMPDEST SWAP6 SWAP5 POP POP POP POP POP JUMP JUMPDEST PUSH0 PUSH2 0x561 DUP3 PUSH0 PUSH2 0x7C9 JUMP JUMPDEST PUSH1 0x1 PUSH1 0x1 PUSH1 0xA0 SHL SUB DUP2 AND PUSH0 SWAP1 DUP2 MSTORE PUSH1 0x20 DUP2 SWAP1 MSTORE PUSH1 0x40 DUP2 KECCAK256 SLOAD PUSH2 0x561 SWAP1 PUSH0 PUSH2 0x77F JUMP JUMPDEST PUSH1 0x1 PUSH1 0x1 PUSH1 0xA0 SHL SUB DUP2 AND PUSH0 SWAP1 DUP2 MSTORE PUSH1 0x20 DUP2 SWAP1 MSTORE PUSH1 0x40 DUP2 KECCAK256 SLOAD PUSH2 0x561 JUMP JUMPDEST PUSH0 PUSH2 0x5A8 PUSH2 0x78B PUSH2 0x439 JUMP JUMPDEST PUSH2 0x796 SWAP1 PUSH1 0x1 PUSH2 0x12D9 JUMP JUMPDEST PUSH2 0x7A1 PUSH0 PUSH1 0xA PUSH2 0x13CC JUMP JUMPDEST PUSH1 0x2 SLOAD PUSH2 0x7AE SWAP2 SWAP1 PUSH2 0x12D9 JUMP JUMPDEST DUP6 SWAP2 SWAP1 DUP6 PUSH2 0xB35 JUMP JUMPDEST PUSH2 0x7C4 DUP4 DUP4 DUP4 PUSH1 0x1 PUSH2 0xB82 JUMP JUMPDEST POP POP POP JUMP JUMPDEST PUSH0 PUSH2 0x5A8 PUSH2 0x7D8 DUP3 PUSH1 0xA PUSH2 0x13CC JUMP JUMPDEST PUSH1 0x2 SLOAD PUSH2 0x7E5 SWAP2 SWAP1 PUSH2 0x12D9 JUMP JUMPDEST PUSH2 0x7ED PUSH2 0x439 JUMP JUMPDEST PUSH2 0x7AE SWAP1 PUSH1 0x1 PUSH2 0x12D9 JUMP JUMPDEST PUSH1 0x1 PUSH1 0x1 PUSH1 0xA0 SHL SUB DUP4 DUP2 AND PUSH0 SWAP1 DUP2 MSTORE PUSH1 0x1 PUSH1 0x20 SWAP1 DUP2 MSTORE PUSH1 0x40 DUP1 DUP4 KECCAK256 SWAP4 DUP7 AND DUP4 MSTORE SWAP3 SWAP1 MSTORE KECCAK256 SLOAD PUSH0 NOT DUP2 EQ PUSH2 0x85A JUMPI DUP2 DUP2 LT ISZERO PUSH2 0x84C JUMPI DUP3 DUP2 DUP4 PUSH1 0x40 MLOAD PUSH4 0x7DC7A0D9 PUSH1 0xE1 SHL DUP2 MSTORE PUSH1 0x4 ADD PUSH2 0x666 SWAP4 SWAP3 SWAP2 SWAP1 PUSH2 0x12B8 JUMP JUMPDEST PUSH2 0x85A DUP5 DUP5 DUP5 DUP5 SUB PUSH0 PUSH2 0xB82 JUMP JUMPDEST POP POP POP POP JUMP JUMPDEST PUSH1 0x1 PUSH1 0x1 PUSH1 0xA0 SHL SUB DUP4 AND PUSH2 0x889 JUMPI PUSH1 0x40 MLOAD PUSH4 0x4B637E8F PUSH1 0xE1 SHL DUP2 MSTORE PUSH0 PUSH1 0x4 DUP3 ADD MSTORE PUSH1 0x24 ADD PUSH2 0x666 JUMP JUMPDEST PUSH1 0x1 PUSH1 0x1 PUSH1 0xA0 SHL SUB DUP3 AND PUSH2 0x8B2 JUMPI PUSH1 0x40 MLOAD PUSH4 0xEC442F05 PUSH1 0xE0 SHL DUP2 MSTORE PUSH0 PUSH1 0x4 DUP3 ADD MSTORE PUSH1 0x24 ADD PUSH2 0x666 JUMP JUMPDEST PUSH2 0x7C4 DUP4 DUP4 DUP4 PUSH2 0xC46 JUMP JUMPDEST PUSH1 0x2 PUSH1 0x5 SLOAD SUB PUSH2 0x90F JUMPI PUSH1 0x40 MLOAD PUSH3 0x461BCD PUSH1 0xE5 SHL DUP2 MSTORE PUSH1 0x20 PUSH1 0x4 DUP3 ADD MSTORE PUSH1 0x1F PUSH1 0x24 DUP3 ADD MSTORE PUSH32 0x5265656E7472616E637947756172643A207265656E7472616E742063616C6C00 PUSH1 0x44 DUP3 ADD MSTORE PUSH1 0x64 ADD PUSH2 0x666 JUMP JUMPDEST PUSH1 0x2 PUSH1 0x5 SSTORE JUMP JUMPDEST PUSH0 PUSH1 0x6 SLOAD TIMESTAMP PUSH2 0x925 SWAP2 SWAP1 PUSH2 0x13DA JUMP JUMPDEST SWAP1 POP PUSH3 0x15180 DUP2 LT PUSH2 0x980 JUMPI PUSH0 PUSH2 0x93B DUP3 PUSH2 0xD59 JUMP JUMPDEST SWAP1 POP PUSH2 0x947 ADDRESS DUP3 PUSH2 0xD8D JUMP JUMPDEST TIMESTAMP PUSH1 0x6 SSTORE PUSH1 0x40 MLOAD DUP2 DUP2 MSTORE PUSH32 0x3B6BC0BA304EAA17CDCA1B053BAAC859E721C7A775CDDEFC825F6286641311FC SWAP1 PUSH1 0x20 ADD PUSH1 0x40 MLOAD DUP1 SWAP2 SUB SWAP1 LOG1 POP JUMPDEST POP JUMP JUMPDEST PUSH0 PUSH0 NOT PUSH0 PUSH2 0x990 DUP6 PUSH2 0x735 JUMP JUMPDEST SWAP1 POP PUSH2 0x687 CALLER DUP6 DUP8 DUP5 JUMPDEST PUSH2 0x9C6 PUSH32 0x0 DUP6 ADDRESS DUP6 PUSH2 0xDC5 JUMP JUMPDEST PUSH2 0x9D0 DUP4 DUP3 PUSH2 0xD8D JUMP JUMPDEST DUP3 PUSH1 0x1 PUSH1 0x1 PUSH1 0xA0 SHL SUB AND DUP5 PUSH1 0x1 PUSH1 0x1 PUSH1 0xA0 SHL SUB AND PUSH32 0xDCBC1C05240F31FF3AD067EF1EE35CE4997762752E3A095284754544F4C709D7 DUP5 DUP5 PUSH1 0x40 MLOAD PUSH2 0xA1E SWAP3 SWAP2 SWAP1 SWAP2 DUP3 MSTORE PUSH1 0x20 DUP3 ADD MSTORE PUSH1 0x40 ADD SWAP1 JUMP JUMPDEST PUSH1 0x40 MLOAD DUP1 SWAP2 SUB SWAP1 LOG3 POP POP POP POP JUMP JUMPDEST PUSH0 DUP1 PUSH2 0xA37 DUP4 PUSH2 0x740 JUMP JUMPDEST SWAP1 POP DUP1 DUP6 GT ISZERO PUSH2 0xA60 JUMPI DUP3 DUP6 DUP3 PUSH1 0x40 MLOAD PUSH4 0x3FA733BB PUSH1 0xE2 SHL DUP2 MSTORE PUSH1 0x4 ADD PUSH2 0x666 SWAP4 SWAP3 SWAP2 SWAP1 PUSH2 0x12B8 JUMP JUMPDEST PUSH0 PUSH2 0xA6A DUP7 PUSH2 0x57E JUMP JUMPDEST SWAP1 POP PUSH2 0x72C CALLER DUP7 DUP7 DUP10 DUP6 JUMPDEST DUP3 PUSH1 0x1 PUSH1 0x1 PUSH1 0xA0 SHL SUB AND DUP6 PUSH1 0x1 PUSH1 0x1 PUSH1 0xA0 SHL SUB AND EQ PUSH2 0xA99 JUMPI PUSH2 0xA99 DUP4 DUP7 DUP4 PUSH2 0x7F8 JUMP JUMPDEST PUSH2 0xAA3 DUP4 DUP3 PUSH2 0xE2C JUMP JUMPDEST PUSH2 0xACE PUSH32 0x0 DUP6 DUP5 PUSH2 0xE60 JUMP JUMPDEST DUP3 PUSH1 0x1 PUSH1 0x1 PUSH1 0xA0 SHL SUB AND DUP5 PUSH1 0x1 PUSH1 0x1 PUSH1 0xA0 SHL SUB AND DUP7 PUSH1 0x1 PUSH1 0x1 PUSH1 0xA0 SHL SUB AND PUSH32 0xFBDE797D201C681B91056529119E0B02407C7BB96A4A2C75C01FC9667232C8DB DUP6 DUP6 PUSH1 0x40 MLOAD PUSH2 0xB26 SWAP3 SWAP2 SWAP1 SWAP2 DUP3 MSTORE PUSH1 0x20 DUP3 ADD MSTORE PUSH1 0x40 ADD SWAP1 JUMP JUMPDEST PUSH1 0x40 MLOAD DUP1 SWAP2 SUB SWAP1 LOG4 POP POP POP POP POP JUMP JUMPDEST PUSH0 DUP1 PUSH2 0xB42 DUP7 DUP7 DUP7 PUSH2 0xE91 JUMP JUMPDEST SWAP1 POP PUSH2 0xB4D DUP4 PUSH2 0xF50 JUMP JUMPDEST DUP1 ISZERO PUSH2 0xB68 JUMPI POP PUSH0 DUP5 DUP1 PUSH2 0xB63 JUMPI PUSH2 0xB63 PUSH2 0x13ED JUMP JUMPDEST DUP7 DUP9 MULMOD GT JUMPDEST ISZERO PUSH2 0x72C JUMPI PUSH2 0xB78 PUSH1 0x1 DUP3 PUSH2 0x12D9 JUMP JUMPDEST SWAP7 SWAP6 POP POP POP POP POP POP JUMP JUMPDEST PUSH1 0x1 PUSH1 0x1 PUSH1 0xA0 SHL SUB DUP5 AND PUSH2 0xBAB JUMPI PUSH1 0x40 MLOAD PUSH4 0xE602DF05 PUSH1 0xE0 SHL DUP2 MSTORE PUSH0 PUSH1 0x4 DUP3 ADD MSTORE PUSH1 0x24 ADD PUSH2 0x666 JUMP JUMPDEST PUSH1 0x1 PUSH1 0x1 PUSH1 0xA0 SHL SUB DUP4 AND PUSH2 0xBD4 JUMPI PUSH1 0x40 MLOAD PUSH4 0x4A1406B1 PUSH1 0xE1 SHL DUP2 MSTORE PUSH0 PUSH1 0x4 DUP3 ADD MSTORE PUSH1 0x24 ADD PUSH2 0x666 JUMP JUMPDEST PUSH1 0x1 PUSH1 0x1 PUSH1 0xA0 SHL SUB DUP1 DUP6 AND PUSH0 SWAP1 DUP2 MSTORE PUSH1 0x1 PUSH1 0x20 SWAP1 DUP2 MSTORE PUSH1 0x40 DUP1 DUP4 KECCAK256 SWAP4 DUP8 AND DUP4 MSTORE SWAP3 SWAP1 MSTORE KECCAK256 DUP3 SWAP1 SSTORE DUP1 ISZERO PUSH2 0x85A JUMPI DUP3 PUSH1 0x1 PUSH1 0x1 PUSH1 0xA0 SHL SUB AND DUP5 PUSH1 0x1 PUSH1 0x1 PUSH1 0xA0 SHL SUB AND PUSH32 0x8C5BE1E5EBEC7D5BD14F71427D1E84F3DD0314C0F7B2291E5B200AC8C7C3B925 DUP5 PUSH1 0x40 MLOAD PUSH2 0xA1E SWAP2 DUP2 MSTORE PUSH1 0x20 ADD SWAP1 JUMP JUMPDEST PUSH1 0x1 PUSH1 0x1 PUSH1 0xA0 SHL SUB DUP4 AND PUSH2 0xC70 JUMPI DUP1 PUSH1 0x2 PUSH0 DUP3 DUP3 SLOAD PUSH2 0xC65 SWAP2 SWAP1 PUSH2 0x12D9 JUMP JUMPDEST SWAP1 SWAP2 SSTORE POP PUSH2 0xCCD SWAP1 POP JUMP JUMPDEST PUSH1 0x1 PUSH1 0x1 PUSH1 0xA0 SHL SUB DUP4 AND PUSH0 SWAP1 DUP2 MSTORE PUSH1 0x20 DUP2 SWAP1 MSTORE PUSH1 0x40 SWAP1 KECCAK256 SLOAD DUP2 DUP2 LT ISZERO PUSH2 0xCAF JUMPI DUP4 DUP2 DUP4 PUSH1 0x40 MLOAD PUSH4 0x391434E3 PUSH1 0xE2 SHL DUP2 MSTORE PUSH1 0x4 ADD PUSH2 0x666 SWAP4 SWAP3 SWAP2 SWAP1 PUSH2 0x12B8 JUMP JUMPDEST PUSH1 0x1 PUSH1 0x1 PUSH1 0xA0 SHL SUB DUP5 AND PUSH0 SWAP1 DUP2 MSTORE PUSH1 0x20 DUP2 SWAP1 MSTORE PUSH1 0x40 SWAP1 KECCAK256 SWAP1 DUP3 SWAP1 SUB SWAP1 SSTORE JUMPDEST PUSH1 0x1 PUSH1 0x1 PUSH1 0xA0 SHL SUB DUP3 AND PUSH2 0xCE9 JUMPI PUSH1 0x2 DUP1 SLOAD DUP3 SWAP1 SUB SWAP1 SSTORE PUSH2 0xD07 JUMP JUMPDEST PUSH1 0x1 PUSH1 0x1 PUSH1 0xA0 SHL SUB DUP3 AND PUSH0 SWAP1 DUP2 MSTORE PUSH1 0x20 DUP2 SWAP1 MSTORE PUSH1 0x40 SWAP1 KECCAK256 DUP1 SLOAD DUP3 ADD SWAP1 SSTORE JUMPDEST DUP2 PUSH1 0x1 PUSH1 0x1 PUSH1 0xA0 SHL SUB AND DUP4 PUSH1 0x1 PUSH1 0x1 PUSH1 0xA0 SHL SUB AND PUSH32 0xDDF252AD1BE2C89B69C2B068FC378DAA952BA7F163C4A11628F55A4DF523B3EF DUP4 PUSH1 0x40 MLOAD PUSH2 0xD4C SWAP2 DUP2 MSTORE PUSH1 0x20 ADD SWAP1 JUMP JUMPDEST PUSH1 0x40 MLOAD DUP1 SWAP2 SUB SWAP1 LOG3 POP POP POP JUMP JUMPDEST PUSH0 DUP1 PUSH2 0xD63 PUSH2 0x439 JUMP JUMPDEST SWAP1 POP PUSH4 0xBBF81E00 DUP4 PUSH1 0x7 SLOAD DUP4 PUSH2 0xD79 SWAP2 SWAP1 PUSH2 0x1401 JUMP JUMPDEST PUSH2 0xD83 SWAP2 SWAP1 PUSH2 0x1401 JUMP JUMPDEST PUSH2 0x5A8 SWAP2 SWAP1 PUSH2 0x1418 JUMP JUMPDEST PUSH1 0x1 PUSH1 0x1 PUSH1 0xA0 SHL SUB DUP3 AND PUSH2 0xDB6 JUMPI PUSH1 0x40 MLOAD PUSH4 0xEC442F05 PUSH1 0xE0 SHL DUP2 MSTORE PUSH0 PUSH1 0x4 DUP3 ADD MSTORE PUSH1 0x24 ADD PUSH2 0x666 JUMP JUMPDEST PUSH2 0xDC1 PUSH0 DUP4 DUP4 PUSH2 0xC46 JUMP JUMPDEST POP POP JUMP JUMPDEST PUSH1 0x40 MLOAD PUSH1 0x1 PUSH1 0x1 PUSH1 0xA0 SHL SUB DUP5 DUP2 AND PUSH1 0x24 DUP4 ADD MSTORE DUP4 DUP2 AND PUSH1 0x44 DUP4 ADD MSTORE PUSH1 0x64 DUP3 ADD DUP4 SWAP1 MSTORE PUSH2 0x85A SWAP2 DUP7 SWAP2 DUP3 AND SWAP1 PUSH4 0x23B872DD SWAP1 PUSH1 0x84 ADD JUMPDEST PUSH1 0x40 MLOAD PUSH1 0x20 DUP2 DUP4 SUB SUB DUP2 MSTORE SWAP1 PUSH1 0x40 MSTORE SWAP2 POP PUSH1 0xE0 SHL PUSH1 0x20 DUP3 ADD DUP1 MLOAD PUSH1 0x1 PUSH1 0x1 PUSH1 0xE0 SHL SUB DUP4 DUP2 DUP4 AND OR DUP4 MSTORE POP POP POP POP PUSH2 0xF7C JUMP JUMPDEST PUSH1 0x1 PUSH1 0x1 PUSH1 0xA0 SHL SUB DUP3 AND PUSH2 0xE55 JUMPI PUSH1 0x40 MLOAD PUSH4 0x4B637E8F PUSH1 0xE1 SHL DUP2 MSTORE PUSH0 PUSH1 0x4 DUP3 ADD MSTORE PUSH1 0x24 ADD PUSH2 0x666 JUMP JUMPDEST PUSH2 0xDC1 DUP3 PUSH0 DUP4 PUSH2 0xC46 JUMP JUMPDEST PUSH1 0x40 MLOAD PUSH1 0x1 PUSH1 0x1 PUSH1 0xA0 SHL SUB DUP4 DUP2 AND PUSH1 0x24 DUP4 ADD MSTORE PUSH1 0x44 DUP3 ADD DUP4 SWAP1 MSTORE PUSH2 0x7C4 SWAP2 DUP6 SWAP2 DUP3 AND SWAP1 PUSH4 0xA9059CBB SWAP1 PUSH1 0x64 ADD PUSH2 0xDFA JUMP JUMPDEST PUSH0 DUP4 DUP4 MUL DUP2 PUSH0 NOT DUP6 DUP8 MULMOD DUP3 DUP2 LT DUP4 DUP3 SUB SUB SWAP2 POP POP DUP1 PUSH0 SUB PUSH2 0xEC5 JUMPI DUP4 DUP3 DUP2 PUSH2 0xEBB JUMPI PUSH2 0xEBB PUSH2 0x13ED JUMP JUMPDEST DIV SWAP3 POP POP POP PUSH2 0x5A8 JUMP JUMPDEST DUP1 DUP5 GT PUSH2 0xEE5 JUMPI PUSH1 0x40 MLOAD PUSH4 0x227BC153 PUSH1 0xE0 SHL DUP2 MSTORE PUSH1 0x4 ADD PUSH1 0x40 MLOAD DUP1 SWAP2 SUB SWAP1 REVERT JUMPDEST PUSH0 DUP5 DUP7 DUP9 MULMOD PUSH0 DUP7 DUP2 SUB DUP8 AND SWAP7 DUP8 SWAP1 DIV SWAP7 PUSH1 0x2 PUSH1 0x3 DUP10 MUL DUP2 XOR DUP1 DUP11 MUL DUP3 SUB MUL DUP1 DUP11 MUL DUP3 SUB MUL DUP1 DUP11 MUL DUP3 SUB MUL DUP1 DUP11 MUL DUP3 SUB MUL DUP1 DUP11 MUL DUP3 SUB MUL DUP1 DUP11 MUL SWAP1 SWAP2 SUB MUL SWAP2 DUP2 SWAP1 SUB DUP2 SWAP1 DIV PUSH1 0x1 ADD DUP7 DUP5 GT SWAP1 SWAP6 SUB SWAP5 SWAP1 SWAP5 MUL SWAP2 SWAP1 SWAP5 SUB SWAP3 SWAP1 SWAP3 DIV SWAP2 SWAP1 SWAP2 OR SWAP2 SWAP1 SWAP2 MUL SWAP2 POP POP SWAP4 SWAP3 POP POP POP JUMP JUMPDEST PUSH0 PUSH1 0x2 DUP3 PUSH1 0x3 DUP2 GT ISZERO PUSH2 0xF65 JUMPI PUSH2 0xF65 PUSH2 0x142B JUMP JUMPDEST PUSH2 0xF6F SWAP2 SWAP1 PUSH2 0x143F JUMP JUMPDEST PUSH1 0xFF AND PUSH1 0x1 EQ SWAP1 POP SWAP2 SWAP1 POP JUMP JUMPDEST PUSH0 PUSH2 0xF90 PUSH1 0x1 PUSH1 0x1 PUSH1 0xA0 SHL SUB DUP5 AND DUP4 PUSH2 0xFDD JUMP JUMPDEST SWAP1 POP DUP1 MLOAD PUSH0 EQ ISZERO DUP1 ISZERO PUSH2 0xFB4 JUMPI POP DUP1 DUP1 PUSH1 0x20 ADD SWAP1 MLOAD DUP2 ADD SWAP1 PUSH2 0xFB2 SWAP2 SWAP1 PUSH2 0x1460 JUMP JUMPDEST ISZERO JUMPDEST ISZERO PUSH2 0x7C4 JUMPI PUSH1 0x40 MLOAD PUSH4 0x5274AFE7 PUSH1 0xE0 SHL DUP2 MSTORE PUSH1 0x1 PUSH1 0x1 PUSH1 0xA0 SHL SUB DUP5 AND PUSH1 0x4 DUP3 ADD MSTORE PUSH1 0x24 ADD PUSH2 0x666 JUMP JUMPDEST PUSH1 0x60 PUSH2 0x5A8 DUP4 DUP4 PUSH0 DUP5 PUSH0 DUP1 DUP6 PUSH1 0x1 PUSH1 0x1 PUSH1 0xA0 SHL SUB AND DUP5 DUP7 PUSH1 0x40 MLOAD PUSH2 0x1001 SWAP2 SWAP1 PUSH2 0x147F JUMP JUMPDEST PUSH0 PUSH1 0x40 MLOAD DUP1 DUP4 SUB DUP2 DUP6 DUP8 GAS CALL SWAP3 POP POP POP RETURNDATASIZE DUP1 PUSH0 DUP2 EQ PUSH2 0x103B JUMPI PUSH1 0x40 MLOAD SWAP2 POP PUSH1 0x1F NOT PUSH1 0x3F RETURNDATASIZE ADD AND DUP3 ADD PUSH1 0x40 MSTORE RETURNDATASIZE DUP3 MSTORE RETURNDATASIZE PUSH0 PUSH1 0x20 DUP5 ADD RETURNDATACOPY PUSH2 0x1040 JUMP JUMPDEST PUSH1 0x60 SWAP2 POP JUMPDEST POP SWAP2 POP SWAP2 POP PUSH2 0xB78 DUP7 DUP4 DUP4 PUSH1 0x60 DUP3 PUSH2 0x1060 JUMPI PUSH2 0x105B DUP3 PUSH2 0x10A7 JUMP JUMPDEST PUSH2 0x5A8 JUMP JUMPDEST DUP2 MLOAD ISZERO DUP1 ISZERO PUSH2 0x1077 JUMPI POP PUSH1 0x1 PUSH1 0x1 PUSH1 0xA0 SHL SUB DUP5 AND EXTCODESIZE ISZERO JUMPDEST ISZERO PUSH2 0x10A0 JUMPI PUSH1 0x40 MLOAD PUSH4 0x9996B315 PUSH1 0xE0 SHL DUP2 MSTORE PUSH1 0x1 PUSH1 0x1 PUSH1 0xA0 SHL SUB DUP6 AND PUSH1 0x4 DUP3 ADD MSTORE PUSH1 0x24 ADD PUSH2 0x666 JUMP JUMPDEST POP DUP1 PUSH2 0x5A8 JUMP JUMPDEST DUP1 MLOAD ISZERO PUSH2 0x10B7 JUMPI DUP1 MLOAD DUP1 DUP3 PUSH1 0x20 ADD REVERT JUMPDEST PUSH1 0x40 MLOAD PUSH4 0xA12F521 PUSH1 0xE1 SHL DUP2 MSTORE PUSH1 0x4 ADD PUSH1 0x40 MLOAD DUP1 SWAP2 SUB SWAP1 REVERT JUMPDEST PUSH1 0x20 DUP2 MSTORE PUSH0 DUP3 MLOAD DUP1 PUSH1 0x20 DUP5 ADD MSTORE DUP1 PUSH1 0x20 DUP6 ADD PUSH1 0x40 DUP6 ADD MCOPY PUSH0 PUSH1 0x40 DUP3 DUP6 ADD ADD MSTORE PUSH1 0x40 PUSH1 0x1F NOT PUSH1 0x1F DUP4 ADD AND DUP5 ADD ADD SWAP2 POP POP SWAP3 SWAP2 POP POP JUMP JUMPDEST PUSH0 PUSH1 0x20 DUP3 DUP5 SUB SLT ISZERO PUSH2 0x1115 JUMPI PUSH0 DUP1 REVERT JUMPDEST POP CALLDATALOAD SWAP2 SWAP1 POP JUMP JUMPDEST DUP1 CALLDATALOAD PUSH1 0x1 PUSH1 0x1 PUSH1 0xA0 SHL SUB DUP2 AND DUP2 EQ PUSH2 0x1132 JUMPI PUSH0 DUP1 REVERT JUMPDEST SWAP2 SWAP1 POP JUMP JUMPDEST PUSH0 DUP1 PUSH1 0x40 DUP4 DUP6 SUB SLT ISZERO PUSH2 0x1148 JUMPI PUSH0 DUP1 REVERT JUMPDEST PUSH2 0x1151 DUP4 PUSH2 0x111C JUMP JUMPDEST SWAP5 PUSH1 0x20 SWAP4 SWAP1 SWAP4 ADD CALLDATALOAD SWAP4 POP POP POP JUMP JUMPDEST PUSH0 DUP1 PUSH0 PUSH1 0x60 DUP5 DUP7 SUB SLT ISZERO PUSH2 0x1171 JUMPI PUSH0 DUP1 REVERT JUMPDEST PUSH2 0x117A DUP5 PUSH2 0x111C JUMP JUMPDEST SWAP3 POP PUSH2 0x1188 PUSH1 0x20 DUP6 ADD PUSH2 0x111C JUMP JUMPDEST SWAP2 POP PUSH1 0x40 DUP5 ADD CALLDATALOAD SWAP1 POP SWAP3 POP SWAP3 POP SWAP3 JUMP JUMPDEST PUSH0 PUSH1 0x20 DUP3 DUP5 SUB SLT ISZERO PUSH2 0x11A8 JUMPI PUSH0 DUP1 REVERT JUMPDEST PUSH2 0x5A8 DUP3 PUSH2 0x111C JUMP JUMPDEST PUSH0 DUP1 PUSH1 0x40 DUP4 DUP6 SUB SLT ISZERO PUSH2 0x11C2 JUMPI PUSH0 DUP1 REVERT JUMPDEST DUP3 CALLDATALOAD SWAP2 POP PUSH2 0x11D2 PUSH1 0x20 DUP5 ADD PUSH2 0x111C JUMP JUMPDEST SWAP1 POP SWAP3 POP SWAP3 SWAP1 POP JUMP JUMPDEST PUSH0 DUP1 PUSH0 PUSH1 0x60 DUP5 DUP7 SUB SLT ISZERO PUSH2 0x11ED JUMPI PUSH0 DUP1 REVERT JUMPDEST DUP4 CALLDATALOAD SWAP3 POP PUSH2 0x11FD PUSH1 0x20 DUP6 ADD PUSH2 0x111C JUMP JUMPDEST SWAP2 POP PUSH2 0x120B PUSH1 0x40 DUP6 ADD PUSH2 0x111C JUMP JUMPDEST SWAP1 POP SWAP3 POP SWAP3 POP SWAP3 JUMP JUMPDEST PUSH0 DUP1 PUSH1 0x40 DUP4 DUP6 SUB SLT ISZERO PUSH2 0x1225 JUMPI PUSH0 DUP1 REVERT JUMPDEST PUSH2 0x122E DUP4 PUSH2 0x111C JUMP JUMPDEST SWAP2 POP PUSH2 0x11D2 PUSH1 0x20 DUP5 ADD PUSH2 0x111C JUMP JUMPDEST PUSH0 PUSH1 0x20 DUP3 DUP5 SUB SLT ISZERO PUSH2 0x124C JUMPI PUSH0 DUP1 REVERT JUMPDEST POP MLOAD SWAP2 SWAP1 POP JUMP JUMPDEST PUSH1 0x1 DUP2 DUP2 SHR SWAP1 DUP3 AND DUP1 PUSH2 0x1267 JUMPI PUSH1 0x7F DUP3 AND SWAP2 POP JUMPDEST PUSH1 0x20 DUP3 LT DUP2 SUB PUSH2 0x1285 JUMPI PUSH4 0x4E487B71 PUSH1 0xE0 SHL PUSH0 MSTORE PUSH1 0x22 PUSH1 0x4 MSTORE PUSH1 0x24 PUSH0 REVERT JUMPDEST POP SWAP2 SWAP1 POP JUMP JUMPDEST PUSH4 0x4E487B71 PUSH1 0xE0 SHL PUSH0 MSTORE PUSH1 0x11 PUSH1 0x4 MSTORE PUSH1 0x24 PUSH0 REVERT JUMPDEST PUSH1 0xFF DUP2 DUP2 AND DUP4 DUP3 AND ADD SWAP1 DUP2 GT ISZERO PUSH2 0x561 JUMPI PUSH2 0x561 PUSH2 0x128B JUMP JUMPDEST PUSH1 0x1 PUSH1 0x1 PUSH1 0xA0 SHL SUB SWAP4 SWAP1 SWAP4 AND DUP4 MSTORE PUSH1 0x20 DUP4 ADD SWAP2 SWAP1 SWAP2 MSTORE PUSH1 0x40 DUP3 ADD MSTORE PUSH1 0x60 ADD SWAP1 JUMP JUMPDEST DUP1 DUP3 ADD DUP1 DUP3 GT ISZERO PUSH2 0x561 JUMPI PUSH2 0x561 PUSH2 0x128B JUMP JUMPDEST PUSH1 0x1 DUP2 DUP2 JUMPDEST DUP1 DUP6 GT ISZERO PUSH2 0x1326 JUMPI DUP2 PUSH0 NOT DIV DUP3 GT ISZERO PUSH2 0x130C JUMPI PUSH2 0x130C PUSH2 0x128B JUMP JUMPDEST DUP1 DUP6 AND ISZERO PUSH2 0x1319 JUMPI SWAP2 DUP2 MUL SWAP2 JUMPDEST SWAP4 DUP5 SHR SWAP4 SWAP1 DUP1 MUL SWAP1 PUSH2 0x12F1 JUMP JUMPDEST POP SWAP3 POP SWAP3 SWAP1 POP JUMP JUMPDEST PUSH0 DUP3 PUSH2 0x133C JUMPI POP PUSH1 0x1 PUSH2 0x561 JUMP JUMPDEST DUP2 PUSH2 0x1348 JUMPI POP PUSH0 PUSH2 0x561 JUMP JUMPDEST DUP2 PUSH1 0x1 DUP2 EQ PUSH2 0x135E JUMPI PUSH1 0x2 DUP2 EQ PUSH2 0x1368 JUMPI PUSH2 0x1384 JUMP JUMPDEST PUSH1 0x1 SWAP2 POP POP PUSH2 0x561 JUMP JUMPDEST PUSH1 0xFF DUP5 GT ISZERO PUSH2 0x1379 JUMPI PUSH2 0x1379 PUSH2 0x128B JUMP JUMPDEST POP POP PUSH1 0x1 DUP3 SHL PUSH2 0x561 JUMP JUMPDEST POP PUSH1 0x20 DUP4 LT PUSH2 0x133 DUP4 LT AND PUSH1 0x4E DUP5 LT PUSH1 0xB DUP5 LT AND OR ISZERO PUSH2 0x13A7 JUMPI POP DUP2 DUP2 EXP PUSH2 0x561 JUMP JUMPDEST PUSH2 0x13B1 DUP4 DUP4 PUSH2 0x12EC JUMP JUMPDEST DUP1 PUSH0 NOT DIV DUP3 GT ISZERO PUSH2 0x13C4 JUMPI PUSH2 0x13C4 PUSH2 0x128B JUMP JUMPDEST MUL SWAP4 SWAP3 POP POP POP JUMP JUMPDEST PUSH0 PUSH2 0x5A8 PUSH1 0xFF DUP5 AND DUP4 PUSH2 0x132E JUMP JUMPDEST DUP2 DUP2 SUB DUP2 DUP2 GT ISZERO PUSH2 0x561 JUMPI PUSH2 0x561 PUSH2 0x128B JUMP JUMPDEST PUSH4 0x4E487B71 PUSH1 0xE0 SHL PUSH0 MSTORE PUSH1 0x12 PUSH1 0x4 MSTORE PUSH1 0x24 PUSH0 REVERT JUMPDEST DUP1 DUP3 MUL DUP2 ISZERO DUP3 DUP3 DIV DUP5 EQ OR PUSH2 0x561 JUMPI PUSH2 0x561 PUSH2 0x128B JUMP JUMPDEST PUSH0 DUP3 PUSH2 0x1426 JUMPI PUSH2 0x1426 PUSH2 0x13ED JUMP JUMPDEST POP DIV SWAP1 JUMP JUMPDEST PUSH4 0x4E487B71 PUSH1 0xE0 SHL PUSH0 MSTORE PUSH1 0x21 PUSH1 0x4 MSTORE PUSH1 0x24 PUSH0 REVERT JUMPDEST PUSH0 PUSH1 0xFF DUP4 AND DUP1 PUSH2 0x1451 JUMPI PUSH2 0x1451 PUSH2 0x13ED JUMP JUMPDEST DUP1 PUSH1 0xFF DUP5 AND MOD SWAP2 POP POP SWAP3 SWAP2 POP POP JUMP JUMPDEST PUSH0 PUSH1 0x20 DUP3 DUP5 SUB SLT ISZERO PUSH2 0x1470 JUMPI PUSH0 DUP1 REVERT JUMPDEST DUP2 MLOAD DUP1 ISZERO ISZERO DUP2 EQ PUSH2 0x5A8 JUMPI PUSH0 DUP1 REVERT JUMPDEST PUSH0 DUP3 MLOAD DUP1 PUSH1 0x20 DUP6 ADD DUP5 MCOPY PUSH0 SWAP3 ADD SWAP2 DUP3 MSTORE POP SWAP2 SWAP1 POP JUMP INVALID LOG2 PUSH5 0x6970667358 0x22 SLT KECCAK256 LOG1 0xC 0x4D PUSH4 0x51BCBA37 CREATE 0xC SUB COINBASE SWAP13 ORIGIN NUMBER SWAP15 SWAP7 LT 0x29 0xCF 0xDE LT SWAP12 0xE7 GASLIMIT 0xB1 0xD8 0xB5 REVERT LOG3 PUSH29 0x7B64736F6C634300081900330000000000000000000000000000000000 "
				},
				"gasEstimates": {
					"creation": {
						"codeDepositCost": "1064600",
						"executionCost": "infinite",
						"totalCost": "infinite"
					},
					"external": {
						"YIELD_ACCRUAL_PERIOD()": "295",
						"YIELD_MANAGER_ROLE()": "293",
						"allowance(address,address)": "infinite",
						"approve(address,uint256)": "24754",
						"asset()": "infinite",
						"balanceOf(address)": "2615",
						"baseYieldRate()": "2371",
						"convertToAssets(uint256)": "infinite",
						"convertToShares(uint256)": "infinite",
						"decimals()": "infinite",
						"deposit(uint256,address)": "infinite",
						"lastYieldAccrualTime()": "2373",
						"maxDeposit(address)": "434",
						"maxMint(address)": "389",
						"maxRedeem(address)": "2671",
						"maxWithdraw(address)": "infinite",
						"mint(uint256,address)": "infinite",
						"name()": "infinite",
						"previewDeposit(uint256)": "infinite",
						"previewMint(uint256)": "infinite",
						"previewRedeem(uint256)": "infinite",
						"previewWithdraw(uint256)": "infinite",
						"redeem(uint256,address,address)": "infinite",
						"setBaseYieldRate(uint256)": "23524",
						"symbol()": "infinite",
						"totalAssets()": "infinite",
						"totalSupply()": "2370",
						"transfer(address,uint256)": "51257",
						"transferFrom(address,address,uint256)": "infinite",
						"withdraw(uint256,address,address)": "infinite"
					},
					"internal": {
						"_accrueYield()": "infinite",
						"_calculateYield(uint256)": "infinite"
					}
				},
				"methodIdentifiers": {
					"YIELD_ACCRUAL_PERIOD()": "4395eb8e",
					"YIELD_MANAGER_ROLE()": "fe9e9640",
					"allowance(address,address)": "dd62ed3e",
					"approve(address,uint256)": "095ea7b3",
					"asset()": "38d52e0f",
					"balanceOf(address)": "70a08231",
					"baseYieldRate()": "f266a213",
					"convertToAssets(uint256)": "07a2d13a",
					"convertToShares(uint256)": "c6e6f592",
					"decimals()": "313ce567",
					"deposit(uint256,address)": "6e553f65",
					"lastYieldAccrualTime()": "a30f0352",
					"maxDeposit(address)": "402d267d",
					"maxMint(address)": "c63d75b6",
					"maxRedeem(address)": "d905777e",
					"maxWithdraw(address)": "ce96cb77",
					"mint(uint256,address)": "94bf804d",
					"name()": "06fdde03",
					"previewDeposit(uint256)": "ef8b30f7",
					"previewMint(uint256)": "b3d7f6b9",
					"previewRedeem(uint256)": "4cdad506",
					"previewWithdraw(uint256)": "0a28a477",
					"redeem(uint256,address,address)": "ba087652",
					"setBaseYieldRate(uint256)": "81c4d0e6",
					"symbol()": "95d89b41",
					"totalAssets()": "01e1d114",
					"totalSupply()": "18160ddd",
					"transfer(address,uint256)": "a9059cbb",
					"transferFrom(address,address,uint256)": "23b872dd",
					"withdraw(uint256,address,address)": "b460af94"
				}
			},
			"storageLayout": {
				"storage": [
					{
						"astId": 394,
						"contract": "contracts/protocol/TuliaVault.sol:TuliaVault",
						"label": "_balances",
						"offset": 0,
						"slot": "0",
						"type": "t_mapping(t_address,t_uint256)"
					},
					{
						"astId": 400,
						"contract": "contracts/protocol/TuliaVault.sol:TuliaVault",
						"label": "_allowances",
						"offset": 0,
						"slot": "1",
						"type": "t_mapping(t_address,t_mapping(t_address,t_uint256))"
					},
					{
						"astId": 402,
						"contract": "contracts/protocol/TuliaVault.sol:TuliaVault",
						"label": "_totalSupply",
						"offset": 0,
						"slot": "2",
						"type": "t_uint256"
					},
					{
						"astId": 404,
						"contract": "contracts/protocol/TuliaVault.sol:TuliaVault",
						"label": "_name",
						"offset": 0,
						"slot": "3",
						"type": "t_string_storage"
					},
					{
						"astId": 406,
						"contract": "contracts/protocol/TuliaVault.sol:TuliaVault",
						"label": "_symbol",
						"offset": 0,
						"slot": "4",
						"type": "t_string_storage"
					},
					{
						"astId": 317,
						"contract": "contracts/protocol/TuliaVault.sol:TuliaVault",
						"label": "_status",
						"offset": 0,
						"slot": "5",
						"type": "t_uint256"
					},
					{
						"astId": 3356,
						"contract": "contracts/protocol/TuliaVault.sol:TuliaVault",
						"label": "lastYieldAccrualTime",
						"offset": 0,
						"slot": "6",
						"type": "t_uint256"
					},
					{
						"astId": 3359,
						"contract": "contracts/protocol/TuliaVault.sol:TuliaVault",
						"label": "baseYieldRate",
						"offset": 0,
						"slot": "7",
						"type": "t_uint256"
					}
				],
				"types": {
					"t_address": {
						"encoding": "inplace",
						"label": "address",
						"numberOfBytes": "20"
					},
					"t_mapping(t_address,t_mapping(t_address,t_uint256))": {
						"encoding": "mapping",
						"key": "t_address",
						"label": "mapping(address => mapping(address => uint256))",
						"numberOfBytes": "32",
						"value": "t_mapping(t_address,t_uint256)"
					},
					"t_mapping(t_address,t_uint256)": {
						"encoding": "mapping",
						"key": "t_address",
						"label": "mapping(address => uint256)",
						"numberOfBytes": "32",
						"value": "t_uint256"
					},
					"t_string_storage": {
						"encoding": "bytes",
						"label": "string",
						"numberOfBytes": "32"
					},
					"t_uint256": {
						"encoding": "inplace",
						"label": "uint256",
						"numberOfBytes": "32"
					}
				}
			},
			"userdoc": {
				"kind": "user",
				"methods": {},
				"version": 1
			}
		}
	}
}