{
	"contracts/contracts/permit2/AllowanceTransfer.sol": {
		"AllowanceTransfer": {
			"abi": [
				{
					"inputs": [
						{
							"internalType": "uint256",
							"name": "deadline",
							"type": "uint256"
						}
					],
					"name": "AllowanceExpired",
					"type": "error"
				},
				{
					"inputs": [],
					"name": "ExcessiveInvalidation",
					"type": "error"
				},
				{
					"inputs": [
						{
							"internalType": "uint256",
							"name": "amount",
							"type": "uint256"
						}
					],
					"name": "InsufficientAllowance",
					"type": "error"
				},
				{
					"inputs": [],
					"name": "InvalidContractSignature",
					"type": "error"
				},
				{
					"inputs": [],
					"name": "InvalidNonce",
					"type": "error"
				},
				{
					"inputs": [],
					"name": "InvalidSignature",
					"type": "error"
				},
				{
					"inputs": [],
					"name": "InvalidSignatureLength",
					"type": "error"
				},
				{
					"inputs": [],
					"name": "InvalidSigner",
					"type": "error"
				},
				{
					"inputs": [
						{
							"internalType": "uint256",
							"name": "signatureDeadline",
							"type": "uint256"
						}
					],
					"name": "SignatureExpired",
					"type": "error"
				},
				{
					"anonymous": false,
					"inputs": [
						{
							"indexed": true,
							"internalType": "address",
							"name": "owner",
							"type": "address"
						},
						{
							"indexed": true,
							"internalType": "address",
							"name": "token",
							"type": "address"
						},
						{
							"indexed": true,
							"internalType": "address",
							"name": "spender",
							"type": "address"
						},
						{
							"indexed": false,
							"internalType": "uint160",
							"name": "amount",
							"type": "uint160"
						},
						{
							"indexed": false,
							"internalType": "uint48",
							"name": "expiration",
							"type": "uint48"
						}
					],
					"name": "Approval",
					"type": "event"
				},
				{
					"anonymous": false,
					"inputs": [
						{
							"indexed": true,
							"internalType": "address",
							"name": "owner",
							"type": "address"
						},
						{
							"indexed": false,
							"internalType": "address",
							"name": "token",
							"type": "address"
						},
						{
							"indexed": false,
							"internalType": "address",
							"name": "spender",
							"type": "address"
						}
					],
					"name": "Lockdown",
					"type": "event"
				},
				{
					"anonymous": false,
					"inputs": [
						{
							"indexed": true,
							"internalType": "address",
							"name": "owner",
							"type": "address"
						},
						{
							"indexed": true,
							"internalType": "address",
							"name": "token",
							"type": "address"
						},
						{
							"indexed": true,
							"internalType": "address",
							"name": "spender",
							"type": "address"
						},
						{
							"indexed": false,
							"internalType": "uint48",
							"name": "newNonce",
							"type": "uint48"
						},
						{
							"indexed": false,
							"internalType": "uint48",
							"name": "oldNonce",
							"type": "uint48"
						}
					],
					"name": "NonceInvalidation",
					"type": "event"
				},
				{
					"anonymous": false,
					"inputs": [
						{
							"indexed": true,
							"internalType": "address",
							"name": "owner",
							"type": "address"
						},
						{
							"indexed": true,
							"internalType": "address",
							"name": "token",
							"type": "address"
						},
						{
							"indexed": true,
							"internalType": "address",
							"name": "spender",
							"type": "address"
						},
						{
							"indexed": false,
							"internalType": "uint160",
							"name": "amount",
							"type": "uint160"
						},
						{
							"indexed": false,
							"internalType": "uint48",
							"name": "expiration",
							"type": "uint48"
						},
						{
							"indexed": false,
							"internalType": "uint48",
							"name": "nonce",
							"type": "uint48"
						}
					],
					"name": "Permit",
					"type": "event"
				},
				{
					"inputs": [],
					"name": "DOMAIN_SEPARATOR",
					"outputs": [
						{
							"internalType": "bytes32",
							"name": "",
							"type": "bytes32"
						}
					],
					"stateMutability": "view",
					"type": "function"
				},
				{
					"inputs": [
						{
							"internalType": "address",
							"name": "",
							"type": "address"
						},
						{
							"internalType": "address",
							"name": "",
							"type": "address"
						},
						{
							"internalType": "address",
							"name": "",
							"type": "address"
						}
					],
					"name": "allowance",
					"outputs": [
						{
							"internalType": "uint160",
							"name": "amount",
							"type": "uint160"
						},
						{
							"internalType": "uint48",
							"name": "expiration",
							"type": "uint48"
						},
						{
							"internalType": "uint48",
							"name": "nonce",
							"type": "uint48"
						}
					],
					"stateMutability": "view",
					"type": "function"
				},
				{
					"inputs": [
						{
							"internalType": "address",
							"name": "token",
							"type": "address"
						},
						{
							"internalType": "address",
							"name": "spender",
							"type": "address"
						},
						{
							"internalType": "uint160",
							"name": "amount",
							"type": "uint160"
						},
						{
							"internalType": "uint48",
							"name": "expiration",
							"type": "uint48"
						}
					],
					"name": "approve",
					"outputs": [],
					"stateMutability": "nonpayable",
					"type": "function"
				},
				{
					"inputs": [
						{
							"internalType": "address",
							"name": "token",
							"type": "address"
						},
						{
							"internalType": "address",
							"name": "spender",
							"type": "address"
						},
						{
							"internalType": "uint48",
							"name": "newNonce",
							"type": "uint48"
						}
					],
					"name": "invalidateNonces",
					"outputs": [],
					"stateMutability": "nonpayable",
					"type": "function"
				},
				{
					"inputs": [
						{
							"components": [
								{
									"internalType": "address",
									"name": "token",
									"type": "address"
								},
								{
									"internalType": "address",
									"name": "spender",
									"type": "address"
								}
							],
							"internalType": "struct IAllowanceTransfer.TokenSpenderPair[]",
							"name": "approvals",
							"type": "tuple[]"
						}
					],
					"name": "lockdown",
					"outputs": [],
					"stateMutability": "nonpayable",
					"type": "function"
				},
				{
					"inputs": [
						{
							"internalType": "address",
							"name": "owner",
							"type": "address"
						},
						{
							"components": [
								{
									"components": [
										{
											"internalType": "address",
											"name": "token",
											"type": "address"
										},
										{
											"internalType": "uint160",
											"name": "amount",
											"type": "uint160"
										},
										{
											"internalType": "uint48",
											"name": "expiration",
											"type": "uint48"
										},
										{
											"internalType": "uint48",
											"name": "nonce",
											"type": "uint48"
										}
									],
									"internalType": "struct IAllowanceTransfer.PermitDetails[]",
									"name": "details",
									"type": "tuple[]"
								},
								{
									"internalType": "address",
									"name": "spender",
									"type": "address"
								},
								{
									"internalType": "uint256",
									"name": "sigDeadline",
									"type": "uint256"
								}
							],
							"internalType": "struct IAllowanceTransfer.PermitBatch",
							"name": "permitBatch",
							"type": "tuple"
						},
						{
							"internalType": "bytes",
							"name": "signature",
							"type": "bytes"
						}
					],
					"name": "permit",
					"outputs": [],
					"stateMutability": "nonpayable",
					"type": "function"
				},
				{
					"inputs": [
						{
							"internalType": "address",
							"name": "owner",
							"type": "address"
						},
						{
							"components": [
								{
									"components": [
										{
											"internalType": "address",
											"name": "token",
											"type": "address"
										},
										{
											"internalType": "uint160",
											"name": "amount",
											"type": "uint160"
										},
										{
											"internalType": "uint48",
											"name": "expiration",
											"type": "uint48"
										},
										{
											"internalType": "uint48",
											"name": "nonce",
											"type": "uint48"
										}
									],
									"internalType": "struct IAllowanceTransfer.PermitDetails",
									"name": "details",
									"type": "tuple"
								},
								{
									"internalType": "address",
									"name": "spender",
									"type": "address"
								},
								{
									"internalType": "uint256",
									"name": "sigDeadline",
									"type": "uint256"
								}
							],
							"internalType": "struct IAllowanceTransfer.PermitSingle",
							"name": "permitSingle",
							"type": "tuple"
						},
						{
							"internalType": "bytes",
							"name": "signature",
							"type": "bytes"
						}
					],
					"name": "permit",
					"outputs": [],
					"stateMutability": "nonpayable",
					"type": "function"
				},
				{
					"inputs": [
						{
							"components": [
								{
									"internalType": "address",
									"name": "from",
									"type": "address"
								},
								{
									"internalType": "address",
									"name": "to",
									"type": "address"
								},
								{
									"internalType": "uint160",
									"name": "amount",
									"type": "uint160"
								},
								{
									"internalType": "address",
									"name": "token",
									"type": "address"
								}
							],
							"internalType": "struct IAllowanceTransfer.AllowanceTransferDetails[]",
							"name": "transferDetails",
							"type": "tuple[]"
						}
					],
					"name": "transferFrom",
					"outputs": [],
					"stateMutability": "nonpayable",
					"type": "function"
				},
				{
					"inputs": [
						{
							"internalType": "address",
							"name": "from",
							"type": "address"
						},
						{
							"internalType": "address",
							"name": "to",
							"type": "address"
						},
						{
							"internalType": "uint160",
							"name": "amount",
							"type": "uint160"
						},
						{
							"internalType": "address",
							"name": "token",
							"type": "address"
						}
					],
					"name": "transferFrom",
					"outputs": [],
					"stateMutability": "nonpayable",
					"type": "function"
				}
			],
			"devdoc": {
				"errors": {
					"AllowanceExpired(uint256)": [
						{
							"params": {
								"deadline": "The timestamp at which the allowed amount is no longer valid"
							}
						}
					],
					"InsufficientAllowance(uint256)": [
						{
							"params": {
								"amount": "The maximum amount allowed"
							}
						}
					],
					"SignatureExpired(uint256)": [
						{
							"params": {
								"signatureDeadline": "The timestamp at which a signature is no longer valid"
							}
						}
					]
				},
				"kind": "dev",
				"methods": {
					"DOMAIN_SEPARATOR()": {
						"details": "Uses cached version if chainid and address are unchanged from construction."
					},
					"approve(address,address,uint160,uint48)": {
						"details": "The packed allowance also holds a nonce, which will stay unchanged in approveSetting amount to type(uint160).max sets an unlimited approval",
						"params": {
							"amount": "The approved amount of the token",
							"expiration": "The timestamp at which the approval is no longer valid",
							"spender": "The spender address to approve",
							"token": "The token to approve"
						}
					},
					"invalidateNonces(address,address,uint48)": {
						"details": "Can't invalidate more than 2**16 nonces per transaction.",
						"params": {
							"newNonce": "The new nonce to set. Invalidates all nonces less than it.",
							"spender": "The spender to invalidate nonces for",
							"token": "The token to invalidate nonces for"
						}
					},
					"lockdown((address,address)[])": {
						"params": {
							"approvals": "Array of approvals to revoke."
						}
					},
					"permit(address,((address,uint160,uint48,uint48),address,uint256),bytes)": {
						"details": "May fail if the owner's nonce was invalidated in-flight by invalidateNonce",
						"params": {
							"owner": "The owner of the tokens being approved",
							"permitSingle": "Data signed over by the owner specifying the terms of approval",
							"signature": "The owner's signature over the permit data"
						}
					},
					"permit(address,((address,uint160,uint48,uint48)[],address,uint256),bytes)": {
						"details": "May fail if the owner's nonce was invalidated in-flight by invalidateNonce",
						"params": {
							"owner": "The owner of the tokens being approved",
							"permitBatch": "Data signed over by the owner specifying the terms of approval",
							"signature": "The owner's signature over the permit data"
						}
					},
					"transferFrom((address,address,uint160,address)[])": {
						"details": "Requires the from addresses to have approved at least the desired amount of tokens to msg.sender.",
						"params": {
							"transferDetails": "Array of owners, recipients, amounts, and tokens for the transfers"
						}
					},
					"transferFrom(address,address,uint160,address)": {
						"details": "Requires the from address to have approved at least the desired amount of tokens to msg.sender.",
						"params": {
							"amount": "The amount of the token to transfer",
							"from": "The address to transfer from",
							"to": "The address of the recipient",
							"token": "The token address to transfer"
						}
					}
				},
				"stateVariables": {
					"allowance": {
						"details": "Indexed in the order of token owner address, token address, spender addressThe stored word saves the allowed amount, expiration on the allowance, and nonce"
					}
				},
				"version": 1
			},
			"evm": {
				"assembly": "    /* \"contracts/contracts/permit2/AllowanceTransfer.sol\":528:6194  contract AllowanceTransfer is IAllowanceTransfer, EIP712 {... */\n  0xc0\n  jumpi(tag_1, callvalue)\n    /* \"contracts/contracts/permit2/EIP712.sol\":919:932  block.chainid */\n  chainid\n    /* \"contracts/contracts/permit2/EIP712.sol\":900:932  _CACHED_CHAIN_ID = block.chainid */\n  0xa0\n  mstore\n    /* \"contracts/contracts/permit2/EIP712.sol\":1632:1692  abi.encode(typeHash, nameHash, block.chainid, address(this)) */\n  0x20\n  dup2\n  add\n    /* \"contracts/contracts/permit2/EIP712.sol\":789:869  keccak256(\"EIP712Domain(string name,uint256 chainId,address verifyingContract)\") */\n  0x8cad95687ba82c2ce50e74f7b754645e5117c3a5bec8151c0726d5857980a866\n    /* \"contracts/contracts/permit2/AllowanceTransfer.sol\":528:6194  contract AllowanceTransfer is IAllowanceTransfer, EIP712 {... */\n  dup2\n  mstore\n    /* \"contracts/contracts/permit2/EIP712.sol\":717:737  keccak256(\"Permit2\") */\n  0x9ac997416e8ff9d2ff6bebeb7149f65cdae5e32e2b90440b566bb3044041d36a\n    /* \"contracts/contracts/permit2/AllowanceTransfer.sol\":528:6194  contract AllowanceTransfer is IAllowanceTransfer, EIP712 {... */\n  0x40\n  dup4\n  add\n  mstore\n    /* \"contracts/contracts/permit2/EIP712.sol\":919:932  block.chainid */\n  chainid\n    /* \"contracts/contracts/permit2/AllowanceTransfer.sol\":528:6194  contract AllowanceTransfer is IAllowanceTransfer, EIP712 {... */\n  0x60\n  dup4\n  add\n  mstore\n    /* \"contracts/contracts/permit2/EIP712.sol\":1686:1690  this */\n  address\n    /* \"contracts/contracts/permit2/AllowanceTransfer.sol\":528:6194  contract AllowanceTransfer is IAllowanceTransfer, EIP712 {... */\n  0x80\n  dup4\n  add\n  mstore\n  0x80\n    /* \"contracts/contracts/permit2/EIP712.sol\":1632:1692  abi.encode(typeHash, nameHash, block.chainid, address(this)) */\n  dup3\n  mstore\n    /* \"contracts/contracts/permit2/EIP712.sol\":900:932  _CACHED_CHAIN_ID = block.chainid */\n  0xa0\n    /* \"contracts/contracts/permit2/AllowanceTransfer.sol\":528:6194  contract AllowanceTransfer is IAllowanceTransfer, EIP712 {... */\n  dup3\n  add\n  swap2\n  dup1\n  dup4\n  lt\n  0x01\n  dup1\n  0x40\n  shl\n  sub\n  dup5\n  gt\n  or\n  tag_3\n  jumpi\n  dup3\n  0x40\n  mstore\n  mload\n    /* \"contracts/contracts/permit2/EIP712.sol\":1622:1693  keccak256(abi.encode(typeHash, nameHash, block.chainid, address(this))) */\n  swap1\n  keccak256\n    /* \"contracts/contracts/permit2/AllowanceTransfer.sol\":528:6194  contract AllowanceTransfer is IAllowanceTransfer, EIP712 {... */\n  0x80\n    /* \"contracts/contracts/permit2/EIP712.sol\":942:1016  _CACHED_DOMAIN_SEPARATOR = _buildDomainSeparator(_TYPE_HASH, _HASHED_NAME) */\n  mstore\n    /* \"contracts/contracts/permit2/AllowanceTransfer.sol\":528:6194  contract AllowanceTransfer is IAllowanceTransfer, EIP712 {... */\n  dataSize(sub_0)\n  swap1\n  dup2\n  dataOffset(sub_0)\n  dup3\n  codecopy\n  mload(0x80)\n  dup2\n  assignImmutable(\"0x4f4ac30ff8bfcef8cd1068d1427faf7fb52fa3a1610b1f430e1f69a91ebb9673\")\n    /* \"contracts/contracts/permit2/EIP712.sol\":900:932  _CACHED_CHAIN_ID = block.chainid */\n  0xa0\n    /* \"contracts/contracts/permit2/AllowanceTransfer.sol\":528:6194  contract AllowanceTransfer is IAllowanceTransfer, EIP712 {... */\n  mload\n  dup2\n  assignImmutable(\"0x3ab4fb69c8e122442af87ae588015f836e7cde3029bbb6dab1983bc840231d63\")\n  return\ntag_3:\n  mstore(0x00, shl(0xe0, 0x4e487b71))\n  mstore(0x04, 0x41)\n  revert(0x00, 0x24)\ntag_1:\n  0x00\n  dup1\n  revert\nstop\n\nsub_0: assembly {\n        /* \"contracts/contracts/permit2/AllowanceTransfer.sol\":528:6194  contract AllowanceTransfer is IAllowanceTransfer, EIP712 {... */\n      mstore(0x40, 0x80)\n      jumpi(tag_23, iszero(lt(calldatasize, 0x04)))\n      0x00\n      dup1\n      revert\n    tag_23:\n      shr(0xe0, calldataload(0x00))\n      dup1\n      0x0d58b1db\n      eq\n      tag_25\n      jumpi\n      dup1\n      0x2a2d80d1\n      eq\n      tag_27\n      jumpi\n      dup1\n      0x2b67b570\n      eq\n      tag_29\n      jumpi\n      dup1\n      0x3644e515\n      eq\n      tag_31\n      jumpi\n      dup1\n      0x36c78516\n      eq\n      tag_33\n      jumpi\n      dup1\n      0x65d9723c\n      eq\n      tag_35\n      jumpi\n      dup1\n      0x87517c45\n      eq\n      tag_37\n      jumpi\n      dup1\n      0x927da105\n      eq\n      tag_39\n      jumpi\n      0xcc53287f\n      eq\n      tag_41\n      jumpi\n      0x00\n      dup1\n      revert\n    tag_41:\n      jumpi(tag_53, callvalue)\n      0x20\n      dup1\n      add(calldatasize, not(0x03))\n      slt\n      tag_53\n      jumpi\n      0xffffffffffffffff\n      swap1\n      calldataload(0x04)\n      dup3\n      dup2\n      gt\n      tag_53\n      jumpi\n      calldatasize\n      0x23\n      dup3\n      add\n      slt\n      iszero\n      tag_53\n      jumpi\n      dup1\n      0x04\n      add\n      calldataload\n      swap3\n      dup4\n      gt\n      tag_53\n      jumpi\n      0x24\n      dup2\n      add\n      swap1\n      0x24\n      calldatasize\n      swap2\n      dup6\n      0x06\n      shl\n      add\n      add\n      gt\n      tag_53\n      jumpi\n      0x00\n        /* \"contracts/contracts/permit2/AllowanceTransfer.sol\":4515:4525  i < length */\n    tag_55:\n      dup4\n      dup2\n      lt\n      tag_56\n      jumpi\n        /* \"contracts/contracts/permit2/AllowanceTransfer.sol\":528:6194  contract AllowanceTransfer is IAllowanceTransfer, EIP712 {... */\n      stop\n        /* \"contracts/contracts/permit2/AllowanceTransfer.sol\":4527:4530  ++i */\n    tag_56:\n        /* \"contracts/contracts/permit2/AllowanceTransfer.sol\":4566:4578  approvals[i] */\n      dup1\n        /* \"contracts/contracts/permit2/AllowanceTransfer.sol\":4566:4584  approvals[i].token */\n      tag_58\n        /* \"contracts/contracts/permit2/AllowanceTransfer.sol\":4566:4578  approvals[i] */\n      tag_59\n        /* \"contracts/contracts/permit2/AllowanceTransfer.sol\":528:6194  contract AllowanceTransfer is IAllowanceTransfer, EIP712 {... */\n      0x01\n        /* \"contracts/contracts/permit2/AllowanceTransfer.sol\":4566:4578  approvals[i] */\n      swap4\n      dup8\n      dup7\n      tag_18\n      jump\t// in\n    tag_59:\n        /* \"contracts/contracts/permit2/AllowanceTransfer.sol\":4566:4584  approvals[i].token */\n      tag_19\n      jump\t// in\n    tag_58:\n        /* \"contracts/contracts/permit2/AllowanceTransfer.sol\":4620:4640  approvals[i].spender */\n      tag_60\n        /* \"contracts/contracts/permit2/AllowanceTransfer.sol\":4620:4632  approvals[i] */\n      dup6\n      tag_61\n      dup5\n      dup10\n      dup9\n      tag_18\n      jump\t// in\n    tag_61:\n        /* \"contracts/contracts/permit2/AllowanceTransfer.sol\":4620:4640  approvals[i].spender */\n      add\n      tag_19\n      jump\t// in\n    tag_60:\n        /* \"contracts/contracts/permit2/AllowanceTransfer.sol\":4337:4347  msg.sender */\n      caller\n        /* \"contracts/contracts/permit2/AllowanceTransfer.sol\":528:6194  contract AllowanceTransfer is IAllowanceTransfer, EIP712 {... */\n      0x00\n      mstore\n      0x00\n      dup7\n      mstore\n      keccak256(0x00, 0x40)\n      swap2\n      dup5\n      dup1\n      0xa0\n      shl\n      sub\n      dup1\n      swap2\n      and\n      swap3\n      dup4\n      0x00\n      mstore\n      dup8\n      mstore\n      keccak256(0x00, 0x40)\n      swap2\n      and\n      swap1\n      dup2\n      0x00\n      mstore\n      dup7\n      mstore\n      keccak256(0x00, 0x40)\n      shl(0xa0, 0xffffffffffffffffffffffff)\n      dup2\n      sload\n      and\n      swap1\n      sstore\n      mload(0x40)\n      swap2\n      dup3\n      mstore\n      dup6\n      dup3\n      add\n      mstore\n        /* \"contracts/contracts/permit2/AllowanceTransfer.sol\":4725:4756  Lockdown(owner, token, spender) */\n      0x89b1add15eff56b3dfe299ad94e01f2b52fbcb80ae1a3baea6ae8c04cb2b98a4\n        /* \"contracts/contracts/permit2/AllowanceTransfer.sol\":528:6194  contract AllowanceTransfer is IAllowanceTransfer, EIP712 {... */\n      0x40\n        /* \"contracts/contracts/permit2/AllowanceTransfer.sol\":4337:4347  msg.sender */\n      caller\n        /* \"contracts/contracts/permit2/AllowanceTransfer.sol\":4725:4756  Lockdown(owner, token, spender) */\n      swap3\n      log2\n        /* \"contracts/contracts/permit2/AllowanceTransfer.sol\":528:6194  contract AllowanceTransfer is IAllowanceTransfer, EIP712 {... */\n      add\n        /* \"contracts/contracts/permit2/AllowanceTransfer.sol\":4500:4513  uint256 i = 0 */\n      jump(tag_55)\n        /* \"contracts/contracts/permit2/AllowanceTransfer.sol\":528:6194  contract AllowanceTransfer is IAllowanceTransfer, EIP712 {... */\n    tag_53:\n      0x00\n      dup1\n      revert\n    tag_39:\n      jumpi(tag_53, callvalue)\n      jumpi(tag_53, slt(add(not(0x03), calldatasize), 0x60))\n      tag_66\n      tag_1\n      jump\t// in\n    tag_66:\n      tag_67\n      tag_2\n      jump\t// in\n    tag_67:\n      tag_68\n      tag_3\n      jump\t// in\n    tag_68:\n      sub(shl(0xa0, 0x01), 0x01)\n      swap3\n      dup4\n      and\n      0x00\n      swap1\n      dup2\n      mstore\n      0x20\n      dup2\n      dup2\n      mstore\n      0x40\n      dup1\n      dup4\n      keccak256\n      swap5\n      dup7\n      and\n      dup4\n      mstore\n      swap4\n      dup2\n      mstore\n      dup4\n      dup3\n      keccak256\n      swap3\n      dup6\n      and\n      dup3\n      mstore\n      swap2\n      dup3\n      mstore\n      dup3\n      swap1\n      keccak256\n      sload\n      dup3\n      mload\n      swap4\n      dup2\n      and\n      dup5\n      mstore\n      0xffffffffffff\n      0xa0\n      dup3\n      swap1\n      shr\n      and\n      swap2\n      dup5\n      add\n      swap2\n      swap1\n      swap2\n      mstore\n      0xd0\n      shr\n      swap1\n      dup3\n      add\n      mstore\n      0x60\n      swap1\n      return\n    tag_37:\n      jumpi(tag_53, callvalue)\n      jumpi(tag_53, slt(add(not(0x03), calldatasize), 0x80))\n      tag_74\n      tag_1\n      jump\t// in\n    tag_74:\n      tag_75\n      tag_2\n      jump\t// in\n    tag_75:\n      swap1\n      tag_76\n      tag_3\n      jump\t// in\n    tag_76:\n      0xffffffffffff\n      swap2\n      calldataload(0x64)\n      dup4\n      dup2\n      and\n      swap2\n      dup3\n      dup3\n      sub\n      tag_53\n      jumpi\n        /* \"contracts/contracts/permit2/AllowanceTransfer.sol\":1364:1374  msg.sender */\n      caller\n        /* \"contracts/contracts/permit2/AllowanceTransfer.sol\":528:6194  contract AllowanceTransfer is IAllowanceTransfer, EIP712 {... */\n      0x00\n      mstore\n      mstore(0x20, 0x00)\n      keccak256(0x00, 0x40)\n      swap5\n      0x01\n      dup1\n      0xa0\n      shl\n      sub\n      dup1\n      swap3\n      and\n      swap6\n      dup7\n      0x00\n      mstore\n      0x20\n      mstore\n      dup2\n      keccak256(0x00, 0x40)\n      swap8\n      and\n      swap7\n      dup8\n      0x00\n      mstore\n      0x20\n      mstore\n      keccak256(0x00, 0x40)\n        /* \"contracts/contracts/lib/Allowance.sol\":1510:1564  expiration == 0 ? uint48(block.timestamp) : expiration */\n      swap3\n        /* \"contracts/contracts/lib/Allowance.sol\":1510:1525  expiration == 0 */\n      dup5\n      iszero\n        /* \"contracts/contracts/lib/Allowance.sol\":1510:1564  expiration == 0 ? uint48(block.timestamp) : expiration */\n      0x00\n        /* \"contracts/contracts/permit2/AllowanceTransfer.sol\":528:6194  contract AllowanceTransfer is IAllowanceTransfer, EIP712 {... */\n      eq\n      tag_79\n      jumpi\n        /* \"contracts/contracts/lib/Allowance.sol\":1535:1550  block.timestamp */\n      pop\n      timestamp\n        /* \"contracts/contracts/permit2/AllowanceTransfer.sol\":528:6194  contract AllowanceTransfer is IAllowanceTransfer, EIP712 {... */\n      and\n        /* \"contracts/contracts/lib/Allowance.sol\":1510:1564  expiration == 0 ? uint48(block.timestamp) : expiration */\n      swap1\n    tag_81:\n        /* \"contracts/contracts/permit2/AllowanceTransfer.sol\":528:6194  contract AllowanceTransfer is IAllowanceTransfer, EIP712 {... */\n      dup3\n      sload\n      swap5\n      and\n      swap4\n      dup5\n      swap2\n      shl(0xa0, 0xffffffffffff)\n      swap1\n      0xa0\n      shl\n      and\n      swap1\n      shl(0xd0, 0xffffffffffff)\n      and\n      or\n      or\n      swap1\n      sstore\n      mload(0x40)\n      swap2\n      dup3\n      mstore\n      0x20\n      dup3\n      add\n      mstore\n        /* \"contracts/contracts/permit2/AllowanceTransfer.sol\":1469:1525  Approval(msg.sender, token, spender, amount, expiration) */\n      0xda9fa7c1b00402c17d0161b249b1ab8bbec047c5a52207b9c112deffd817036b\n        /* \"contracts/contracts/permit2/AllowanceTransfer.sol\":528:6194  contract AllowanceTransfer is IAllowanceTransfer, EIP712 {... */\n      0x40\n        /* \"contracts/contracts/permit2/AllowanceTransfer.sol\":1364:1374  msg.sender */\n      caller\n        /* \"contracts/contracts/permit2/AllowanceTransfer.sol\":1469:1525  Approval(msg.sender, token, spender, amount, expiration) */\n      swap3\n      log4\n        /* \"contracts/contracts/permit2/AllowanceTransfer.sol\":528:6194  contract AllowanceTransfer is IAllowanceTransfer, EIP712 {... */\n      stop\n        /* \"contracts/contracts/lib/Allowance.sol\":1510:1564  expiration == 0 ? uint48(block.timestamp) : expiration */\n    tag_79:\n      swap1\n      pop\n      swap1\n      jump(tag_81)\n        /* \"contracts/contracts/permit2/AllowanceTransfer.sol\":528:6194  contract AllowanceTransfer is IAllowanceTransfer, EIP712 {... */\n    tag_35:\n      jumpi(tag_53, callvalue)\n      jumpi(tag_53, slt(add(not(0x03), calldatasize), 0x60))\n      tag_86\n      tag_1\n      jump\t// in\n    tag_86:\n      tag_87\n      tag_2\n      jump\t// in\n    tag_87:\n      swap1\n      calldataload(0x44)\n      0xffffffffffff\n      dup1\n      dup3\n      and\n      swap2\n      dup3\n      dup2\n      sub\n      tag_53\n      jumpi\n        /* \"contracts/contracts/permit2/AllowanceTransfer.sol\":4954:4964  msg.sender */\n      caller\n        /* \"contracts/contracts/permit2/AllowanceTransfer.sol\":528:6194  contract AllowanceTransfer is IAllowanceTransfer, EIP712 {... */\n      0x00\n      mstore\n      0x20\n      swap1\n      0x00\n      dup3\n      mstore\n      keccak256(0x00, 0x40)\n      swap5\n      0x01\n      dup1\n      0xa0\n      shl\n      sub\n      dup1\n      swap2\n      and\n      swap6\n      dup7\n      0x00\n      mstore\n      dup4\n      mstore\n      keccak256(0x00, 0x40)\n      swap7\n      and\n      swap6\n      dup7\n      0x00\n      mstore\n      dup3\n      mstore\n      shr(0xd0, sload(keccak256(0x00, 0x40)))\n        /* \"contracts/contracts/permit2/AllowanceTransfer.sol\":5002:5022  newNonce <= oldNonce */\n      swap3\n      dup4\n      dup6\n      gt\n      iszero\n        /* \"contracts/contracts/permit2/AllowanceTransfer.sol\":4998:5045  if (newNonce <= oldNonce) revert InvalidNonce() */\n      tag_90\n      jumpi\n        /* \"contracts/contracts/permit2/AllowanceTransfer.sol\":528:6194  contract AllowanceTransfer is IAllowanceTransfer, EIP712 {... */\n      0xffff\n      swap1\n      dup5\n      dup4\n      sub\n      and\n        /* \"contracts/contracts/permit2/AllowanceTransfer.sol\":5214:5238  delta > type(uint16).max */\n      gt\n        /* \"contracts/contracts/permit2/AllowanceTransfer.sol\":5210:5270  if (delta > type(uint16).max) revert ExcessiveInvalidation() */\n      tag_92\n      jumpi\n        /* \"contracts/contracts/permit2/AllowanceTransfer.sol\":4954:4964  msg.sender */\n      caller\n        /* \"contracts/contracts/permit2/AllowanceTransfer.sol\":528:6194  contract AllowanceTransfer is IAllowanceTransfer, EIP712 {... */\n      0x00\n      mstore\n      0x00\n      dup3\n      mstore\n      keccak256(0x00, 0x40)\n      dup6\n      0x00\n      mstore\n      dup3\n      mstore\n      keccak256(0x00, 0x40)\n      dup7\n      0x00\n      mstore\n      dup3\n      mstore\n      keccak256(0x00, 0x40)\n      swap1\n      dup2\n      sload\n      swap1\n      shl(0xd0, 0xffffffffffff)\n      swap1\n      0xd0\n      shl\n      and\n      swap1\n      0x01\n      dup1\n      0xd0\n      shl\n      sub\n      and\n      or\n      swap1\n      sstore\n      mload(0x40)\n      swap3\n      dup4\n      mstore\n      dup3\n      add\n      mstore\n        /* \"contracts/contracts/permit2/AllowanceTransfer.sol\":5360:5425  NonceInvalidation(msg.sender, token, spender, newNonce, oldNonce) */\n      0x55eb90d810e1700b35a8e7e25395ff7f2b2259abd7415ca2284dfb1c246418f3\n        /* \"contracts/contracts/permit2/AllowanceTransfer.sol\":528:6194  contract AllowanceTransfer is IAllowanceTransfer, EIP712 {... */\n      0x40\n        /* \"contracts/contracts/permit2/AllowanceTransfer.sol\":4954:4964  msg.sender */\n      caller\n        /* \"contracts/contracts/permit2/AllowanceTransfer.sol\":5360:5425  NonceInvalidation(msg.sender, token, spender, newNonce, oldNonce) */\n      swap3\n      log4\n        /* \"contracts/contracts/permit2/AllowanceTransfer.sol\":528:6194  contract AllowanceTransfer is IAllowanceTransfer, EIP712 {... */\n      stop\n        /* \"contracts/contracts/permit2/AllowanceTransfer.sol\":5210:5270  if (delta > type(uint16).max) revert ExcessiveInvalidation() */\n    tag_92:\n        /* \"contracts/contracts/permit2/AllowanceTransfer.sol\":528:6194  contract AllowanceTransfer is IAllowanceTransfer, EIP712 {... */\n      mload(0x40)\n      shl(0xe1, 0x1269ad13)\n        /* \"contracts/contracts/permit2/AllowanceTransfer.sol\":5247:5270  ExcessiveInvalidation() */\n      dup2\n      mstore\n        /* \"contracts/contracts/permit2/AllowanceTransfer.sol\":528:6194  contract AllowanceTransfer is IAllowanceTransfer, EIP712 {... */\n      0x04\n      swap1\n        /* \"contracts/contracts/permit2/AllowanceTransfer.sol\":5247:5270  ExcessiveInvalidation() */\n      revert\n        /* \"contracts/contracts/permit2/AllowanceTransfer.sol\":4998:5045  if (newNonce <= oldNonce) revert InvalidNonce() */\n    tag_90:\n        /* \"contracts/contracts/permit2/AllowanceTransfer.sol\":528:6194  contract AllowanceTransfer is IAllowanceTransfer, EIP712 {... */\n      mload(0x40)\n      shl(0xe1, 0x3ab3447f)\n        /* \"contracts/contracts/permit2/AllowanceTransfer.sol\":5031:5045  InvalidNonce() */\n      dup2\n      mstore\n        /* \"contracts/contracts/permit2/AllowanceTransfer.sol\":528:6194  contract AllowanceTransfer is IAllowanceTransfer, EIP712 {... */\n      0x04\n      swap1\n        /* \"contracts/contracts/permit2/AllowanceTransfer.sol\":5031:5045  InvalidNonce() */\n      revert\n        /* \"contracts/contracts/permit2/AllowanceTransfer.sol\":528:6194  contract AllowanceTransfer is IAllowanceTransfer, EIP712 {... */\n    tag_33:\n      jumpi(tag_53, callvalue)\n      jumpi(tag_53, slt(add(not(0x03), calldatasize), 0x80))\n      tag_98\n      tag_1\n      jump\t// in\n    tag_98:\n      tag_99\n      tag_2\n      jump\t// in\n    tag_99:\n      tag_100\n      tag_3\n      jump\t// in\n    tag_100:\n      calldataload(0x64)\n      swap2\n      sub(shl(0xa0, 0x01), 0x01)\n      dup4\n      and\n      dup4\n      sub\n      tag_53\n      jumpi\n        /* \"contracts/contracts/permit2/AllowanceTransfer.sol\":2822:2827  token */\n      tag_103\n      swap4\n      tag_17\n      jump\t// in\n    tag_103:\n        /* \"contracts/contracts/permit2/AllowanceTransfer.sol\":528:6194  contract AllowanceTransfer is IAllowanceTransfer, EIP712 {... */\n      stop\n    tag_31:\n      jumpi(tag_53, callvalue)\n      jumpi(tag_53, slt(add(not(0x03), calldatasize), 0x00))\n      0x20\n      tag_108\n      tag_21\n      jump\t// in\n    tag_108:\n      mload(0x40)\n      swap1\n      dup2\n      mstore\n      return\n    tag_29:\n      jumpi(tag_53, callvalue)\n      jumpi(tag_53, slt(add(not(0x03), calldatasize), 0x0100))\n      tag_113\n      tag_1\n      jump\t// in\n    tag_113:\n      add(not(0x23), calldatasize)\n      swap1\n      0xc0\n      dup3\n      slt\n      tag_53\n      jumpi\n      0x80\n      mload(0x40)\n      swap3\n      tag_116\n      dup5\n      tag_6\n      jump\t// in\n    tag_116:\n      slt\n      tag_53\n      jumpi\n      mload(0x40)\n      swap1\n      tag_119\n      dup3\n      tag_5\n      jump\t// in\n    tag_119:\n      sub(shl(0xa0, 0x01), 0x01)\n      swap2\n      calldataload(0x24)\n      dup4\n      dup2\n      and\n      dup2\n      sub\n      tag_53\n      jumpi\n      dup2\n      mstore\n      calldataload(0x44)\n      dup4\n      dup2\n      and\n      dup2\n      sub\n      tag_53\n      jumpi\n      0x20\n      dup3\n      add\n      mstore\n      0xffffffffffff\n      calldataload(0x64)\n      dup2\n      dup2\n      and\n      dup2\n      sub\n      tag_53\n      jumpi\n      0x40\n      dup4\n      add\n      mstore\n      calldataload(0x84)\n      swap1\n      dup2\n      and\n      dup2\n      sub\n      tag_53\n      jumpi\n      0x60\n      dup3\n      add\n      mstore\n      dup4\n      mstore\n      calldataload(0xa4)\n      swap2\n      dup1\n      dup4\n      and\n      dup4\n      sub\n      tag_53\n      jumpi\n      0x20\n      dup5\n      add\n      swap3\n      dup4\n      mstore\n      calldataload(0xc4)\n      swap4\n      0x40\n      dup2\n      add\n      dup6\n      dup2\n      mstore\n      calldataload(0xe4)\n      0xffffffffffffffff\n      dup2\n      gt\n      tag_53\n      jumpi\n      tag_132\n      swap1\n      calldatasize\n      swap1\n      0x04\n      add\n      tag_11\n      jump\t// in\n    tag_132:\n        /* \"contracts/contracts/permit2/AllowanceTransfer.sol\":1691:1706  block.timestamp */\n      swap2\n      swap1\n      swap7\n      dup1\n      timestamp\n        /* \"contracts/contracts/permit2/AllowanceTransfer.sol\":1691:1733  block.timestamp > permitSingle.sigDeadline */\n      gt\n        /* \"contracts/contracts/permit2/AllowanceTransfer.sol\":1687:1784  if (block.timestamp > permitSingle.sigDeadline) revert SignatureExpired(permitSingle.sigDeadline) */\n      tag_133\n      jumpi\n        /* \"contracts/contracts/lib/PermitHash.sol\":2078:2098  permitSingle.details */\n      pop\n        /* \"contracts/contracts/permit2/AllowanceTransfer.sol\":1968:1988  permitSingle.spender */\n      tag_103\n        /* \"contracts/contracts/lib/PermitHash.sol\":2078:2098  permitSingle.details */\n      swap7\n        /* \"contracts/contracts/permit2/AllowanceTransfer.sol\":1906:1911  owner */\n      tag_136\n        /* \"contracts/contracts/lib/PermitHash.sol\":2078:2098  permitSingle.details */\n      swap3\n        /* \"contracts/contracts/permit2/AllowanceTransfer.sol\":1869:1904  _hashTypedData(permitSingle.hash()) */\n      tag_137\n        /* \"contracts/contracts/lib/PermitHash.sol\":2078:2098  permitSingle.details */\n      dup8\n      swap4\n        /* \"contracts/contracts/lib/PermitHash.sol\":2059:2099  _hashPermitDetails(permitSingle.details) */\n      tag_138\n        /* \"contracts/contracts/lib/PermitHash.sol\":2078:2098  permitSingle.details */\n      dup8\n      mload\n        /* \"contracts/contracts/lib/PermitHash.sol\":2059:2099  _hashPermitDetails(permitSingle.details) */\n      tag_13\n      jump\t// in\n    tag_138:\n        /* \"contracts/contracts/permit2/AllowanceTransfer.sol\":528:6194  contract AllowanceTransfer is IAllowanceTransfer, EIP712 {... */\n      swap1\n      dup9\n      dup12\n      mload\n      and\n      swap1\n      mload\n      mload(0x40)\n        /* \"contracts/contracts/lib/PermitHash.sol\":2138:2233  abi.encode(_PERMIT_SINGLE_TYPEHASH, permitHash, permitSingle.spender, permitSingle.sigDeadline) */\n      swap2\n        /* \"contracts/contracts/permit2/AllowanceTransfer.sol\":528:6194  contract AllowanceTransfer is IAllowanceTransfer, EIP712 {... */\n      0x20\n        /* \"contracts/contracts/lib/PermitHash.sol\":2138:2233  abi.encode(_PERMIT_SINGLE_TYPEHASH, permitHash, permitSingle.spender, permitSingle.sigDeadline) */\n      dup4\n      add\n        /* \"contracts/contracts/permit2/AllowanceTransfer.sol\":528:6194  contract AllowanceTransfer is IAllowanceTransfer, EIP712 {... */\n      swap4\n        /* \"contracts/contracts/lib/PermitHash.sol\":433:605  keccak256(... */\n      0xf3841cd1ff0085026a6327b620b67997ce40f282c88a8e905a7a5626e310f3d0\n        /* \"contracts/contracts/permit2/AllowanceTransfer.sol\":528:6194  contract AllowanceTransfer is IAllowanceTransfer, EIP712 {... */\n      dup6\n      mstore\n      0x40\n        /* \"contracts/contracts/lib/PermitHash.sol\":433:605  keccak256(... */\n      dup5\n      add\n        /* \"contracts/contracts/permit2/AllowanceTransfer.sol\":528:6194  contract AllowanceTransfer is IAllowanceTransfer, EIP712 {... */\n      mstore\n      0x60\n        /* \"contracts/contracts/lib/PermitHash.sol\":433:605  keccak256(... */\n      dup4\n      add\n        /* \"contracts/contracts/permit2/AllowanceTransfer.sol\":528:6194  contract AllowanceTransfer is IAllowanceTransfer, EIP712 {... */\n      mstore\n      0x80\n        /* \"contracts/contracts/lib/PermitHash.sol\":433:605  keccak256(... */\n      dup3\n      add\n        /* \"contracts/contracts/permit2/AllowanceTransfer.sol\":528:6194  contract AllowanceTransfer is IAllowanceTransfer, EIP712 {... */\n      mstore\n      0x80\n        /* \"contracts/contracts/lib/PermitHash.sol\":2138:2233  abi.encode(_PERMIT_SINGLE_TYPEHASH, permitHash, permitSingle.spender, permitSingle.sigDeadline) */\n      dup2\n      mstore\n      tag_139\n      dup2\n      tag_7\n      jump\t// in\n    tag_139:\n        /* \"contracts/contracts/lib/PermitHash.sol\":433:605  keccak256(... */\n      mload\n        /* \"contracts/contracts/lib/PermitHash.sol\":2128:2234  keccak256(abi.encode(_PERMIT_SINGLE_TYPEHASH, permitHash, permitSingle.spender, permitSingle.sigDeadline)) */\n      swap1\n      keccak256\n        /* \"contracts/contracts/permit2/AllowanceTransfer.sol\":1869:1904  _hashTypedData(permitSingle.hash()) */\n      tag_22\n      jump\t// in\n    tag_137:\n        /* \"contracts/contracts/permit2/AllowanceTransfer.sol\":1906:1911  owner */\n      swap2\n      tag_15\n      jump\t// in\n    tag_136:\n        /* \"contracts/contracts/permit2/AllowanceTransfer.sol\":1939:1959  permitSingle.details */\n      mload\n        /* \"contracts/contracts/permit2/AllowanceTransfer.sol\":528:6194  contract AllowanceTransfer is IAllowanceTransfer, EIP712 {... */\n      swap3\n      mload\n      and\n        /* \"contracts/contracts/permit2/AllowanceTransfer.sol\":1968:1988  permitSingle.spender */\n      swap2\n      tag_20\n      jump\t// in\n        /* \"contracts/contracts/permit2/AllowanceTransfer.sol\":1687:1784  if (block.timestamp > permitSingle.sigDeadline) revert SignatureExpired(permitSingle.sigDeadline) */\n    tag_133:\n        /* \"contracts/contracts/permit2/AllowanceTransfer.sol\":528:6194  contract AllowanceTransfer is IAllowanceTransfer, EIP712 {... */\n      0x24\n      swap1\n      mload(0x40)\n        /* \"contracts/contracts/permit2/AllowanceTransfer.sol\":2203:2244  SignatureExpired(permitBatch.sigDeadline) */\n      swap1\n      shl(0xe0, 0xcd21db4f)\n        /* \"contracts/contracts/permit2/AllowanceTransfer.sol\":1742:1784  SignatureExpired(permitSingle.sigDeadline) */\n      dup3\n      mstore\n        /* \"contracts/contracts/permit2/AllowanceTransfer.sol\":528:6194  contract AllowanceTransfer is IAllowanceTransfer, EIP712 {... */\n      0x04\n        /* \"contracts/contracts/permit2/AllowanceTransfer.sol\":1742:1784  SignatureExpired(permitSingle.sigDeadline) */\n      dup3\n      add\n        /* \"contracts/contracts/permit2/AllowanceTransfer.sol\":528:6194  contract AllowanceTransfer is IAllowanceTransfer, EIP712 {... */\n      mstore\n        /* \"contracts/contracts/permit2/AllowanceTransfer.sol\":1742:1784  SignatureExpired(permitSingle.sigDeadline) */\n      revert\n        /* \"contracts/contracts/permit2/AllowanceTransfer.sol\":528:6194  contract AllowanceTransfer is IAllowanceTransfer, EIP712 {... */\n    tag_27:\n      jumpi(tag_53, callvalue)\n      not(0x03)\n      0x60\n      calldatasize\n      dup3\n      add\n      slt\n      tag_53\n      jumpi\n      tag_144\n      tag_1\n      jump\t// in\n    tag_144:\n      swap1\n      calldataload(0x24)\n      swap1\n      0xffffffffffffffff\n      swap1\n      dup2\n      dup4\n      gt\n      tag_53\n      jumpi\n      0x60\n      swap1\n      dup4\n      calldatasize\n      sub\n      add\n      slt\n      tag_53\n      jumpi\n      mload(0x40)\n      swap2\n      tag_149\n      dup4\n      tag_6\n      jump\t// in\n    tag_149:\n      dup1\n      0x04\n      add\n      calldataload\n      dup3\n      dup2\n      gt\n      tag_53\n      jumpi\n      dup2\n      add\n      calldatasize\n      0x23\n      dup3\n      add\n      slt\n      iszero\n      tag_53\n      jumpi\n      0x04\n      dup2\n      add\n      calldataload\n      tag_154\n      dup2\n      tag_9\n      jump\t// in\n    tag_154:\n      swap2\n      tag_155\n      mload(0x40)\n      swap4\n      dup5\n      tag_8\n      jump\t// in\n    tag_155:\n      dup2\n      dup4\n      mstore\n      0x24\n      0x20\n      dup5\n      add\n      swap3\n      0x07\n      shl\n      dup3\n      add\n      add\n      swap1\n      calldatasize\n      dup3\n      gt\n      tag_53\n      jumpi\n      0x24\n      add\n      swap2\n    tag_158:\n      dup2\n      dup4\n      lt\n      tag_159\n      jumpi\n      pop\n      pop\n      pop\n      dup4\n      mstore\n      0x44\n      swap1\n      tag_161\n      0x24\n      dup3\n      add\n      tag_4\n      jump\t// in\n    tag_161:\n      0x20\n      dup6\n      add\n      mstore\n      add\n      calldataload\n      swap1\n      dup2\n      0x40\n      dup5\n      add\n      mstore\n      calldataload(0x44)\n      swap1\n      dup2\n      gt\n      tag_53\n      jumpi\n      tag_164\n      swap1\n      calldatasize\n      swap1\n      0x04\n      add\n      tag_11\n      jump\t// in\n    tag_164:\n        /* \"contracts/contracts/permit2/AllowanceTransfer.sol\":2153:2168  block.timestamp */\n      swap2\n      dup1\n      timestamp\n        /* \"contracts/contracts/permit2/AllowanceTransfer.sol\":2153:2194  block.timestamp > permitBatch.sigDeadline */\n      gt\n        /* \"contracts/contracts/permit2/AllowanceTransfer.sol\":2149:2244  if (block.timestamp > permitBatch.sigDeadline) revert SignatureExpired(permitBatch.sigDeadline) */\n      tag_133\n      jumpi\n        /* \"contracts/contracts/lib/PermitHash.sol\":2375:2394  permitBatch.details */\n      pop\n      dup4\n      dup4\n      mload\n        /* \"contracts/contracts/lib/PermitHash.sol\":433:605  keccak256(... */\n      mload\n        /* \"contracts/contracts/permit2/AllowanceTransfer.sol\":528:6194  contract AllowanceTransfer is IAllowanceTransfer, EIP712 {... */\n      swap2\n      tag_167\n      dup4\n      tag_9\n      jump\t// in\n    tag_167:\n      swap3\n      tag_168\n      mload(0x40)\n      swap5\n      dup6\n      tag_8\n      jump\t// in\n    tag_168:\n      dup1\n      dup5\n      mstore\n      not(0x1f)\n      tag_169\n      dup3\n      tag_9\n      jump\t// in\n    tag_169:\n      add\n      calldatasize\n      0x20\n      dup7\n      add\n      calldatacopy\n      0x00\n        /* \"contracts/contracts/lib/PermitHash.sol\":2498:2512  i < numPermits */\n    tag_170:\n      dup2\n      dup2\n      lt\n      tag_171\n      jumpi\n        /* \"contracts/contracts/permit2/AllowanceTransfer.sol\":528:6194  contract AllowanceTransfer is IAllowanceTransfer, EIP712 {... */\n      pop\n      pop\n      mload(0x40)\n      0x20\n        /* \"contracts/contracts/lib/PermitHash.sol\":2721:2751  abi.encodePacked(permitHashes) */\n      dup2\n      add\n        /* \"contracts/contracts/lib/PermitHash.sol\":661:834  keccak256(... */\n      swap1\n      dup2\n        /* \"contracts/contracts/permit2/AllowanceTransfer.sol\":528:6194  contract AllowanceTransfer is IAllowanceTransfer, EIP712 {... */\n      0x20\n        /* \"contracts/contracts/lib/PermitHash.sol\":433:605  keccak256(... */\n      dup7\n      mload\n        /* \"contracts/contracts/lib/PermitHash.sol\":661:834  keccak256(... */\n      swap2\n        /* \"contracts/contracts/permit2/AllowanceTransfer.sol\":528:6194  contract AllowanceTransfer is IAllowanceTransfer, EIP712 {... */\n      swap7\n      add\n        /* \"contracts/contracts/lib/PermitHash.sol\":661:834  keccak256(... */\n      swap1\n        /* \"contracts/contracts/permit2/AllowanceTransfer.sol\":528:6194  contract AllowanceTransfer is IAllowanceTransfer, EIP712 {... */\n      0x00\n        /* \"contracts/contracts/lib/PermitHash.sol\":661:834  keccak256(... */\n    tag_173:\n      dup2\n      dup2\n      lt\n      tag_174\n      jumpi\n        /* \"contracts/contracts/lib/PermitHash.sol\":2721:2751  abi.encodePacked(permitHashes) */\n      pop\n      pop\n      pop\n      tag_176\n      dup2\n        /* \"contracts/contracts/permit2/AllowanceTransfer.sol\":2365:2370  owner */\n      tag_177\n        /* \"contracts/contracts/lib/PermitHash.sol\":2721:2751  abi.encodePacked(permitHashes) */\n      swap7\n      sub\n        /* \"contracts/contracts/permit2/AllowanceTransfer.sol\":528:6194  contract AllowanceTransfer is IAllowanceTransfer, EIP712 {... */\n      not(0x1f)\n        /* \"contracts/contracts/lib/PermitHash.sol\":2721:2751  abi.encodePacked(permitHashes) */\n      dup2\n      add\n      dup4\n      mstore\n      dup3\n      tag_8\n      jump\t// in\n    tag_176:\n        /* \"contracts/contracts/lib/PermitHash.sol\":433:605  keccak256(... */\n      mload\n        /* \"contracts/contracts/lib/PermitHash.sol\":2711:2752  keccak256(abi.encodePacked(permitHashes)) */\n      swap1\n      keccak256\n        /* \"contracts/contracts/permit2/AllowanceTransfer.sol\":528:6194  contract AllowanceTransfer is IAllowanceTransfer, EIP712 {... */\n      swap4\n        /* \"contracts/contracts/permit2/AllowanceTransfer.sol\":2329:2363  _hashTypedData(permitBatch.hash()) */\n      tag_137\n        /* \"contracts/contracts/permit2/AllowanceTransfer.sol\":528:6194  contract AllowanceTransfer is IAllowanceTransfer, EIP712 {... */\n      0x01\n      dup1\n      0xa0\n      shl\n      sub\n      swap6\n      dup7\n      0x20\n      dup10\n      add\n      mload\n      and\n      0x40\n      dup10\n      add\n      mload\n      mload(0x40)\n        /* \"contracts/contracts/lib/PermitHash.sol\":2643:2844  abi.encode(... */\n      swap2\n        /* \"contracts/contracts/permit2/AllowanceTransfer.sol\":528:6194  contract AllowanceTransfer is IAllowanceTransfer, EIP712 {... */\n      0x20\n        /* \"contracts/contracts/lib/PermitHash.sol\":2643:2844  abi.encode(... */\n      dup4\n      add\n        /* \"contracts/contracts/permit2/AllowanceTransfer.sol\":528:6194  contract AllowanceTransfer is IAllowanceTransfer, EIP712 {... */\n      swap4\n        /* \"contracts/contracts/lib/PermitHash.sol\":661:834  keccak256(... */\n      0xaf1b0d30d2cab0380e68f0689007e3254993c596f2fdd0aaa7f4d04f79440863\n        /* \"contracts/contracts/permit2/AllowanceTransfer.sol\":528:6194  contract AllowanceTransfer is IAllowanceTransfer, EIP712 {... */\n      dup6\n      mstore\n      0x40\n        /* \"contracts/contracts/lib/PermitHash.sol\":433:605  keccak256(... */\n      dup5\n      add\n        /* \"contracts/contracts/permit2/AllowanceTransfer.sol\":528:6194  contract AllowanceTransfer is IAllowanceTransfer, EIP712 {... */\n      mstore\n      0x60\n        /* \"contracts/contracts/lib/PermitHash.sol\":433:605  keccak256(... */\n      dup4\n      add\n        /* \"contracts/contracts/permit2/AllowanceTransfer.sol\":528:6194  contract AllowanceTransfer is IAllowanceTransfer, EIP712 {... */\n      mstore\n      0x80\n        /* \"contracts/contracts/lib/PermitHash.sol\":433:605  keccak256(... */\n      dup3\n      add\n        /* \"contracts/contracts/permit2/AllowanceTransfer.sol\":528:6194  contract AllowanceTransfer is IAllowanceTransfer, EIP712 {... */\n      mstore\n      0x80\n        /* \"contracts/contracts/lib/PermitHash.sol\":2643:2844  abi.encode(... */\n      dup2\n      mstore\n      tag_139\n      dup2\n      tag_7\n      jump\t// in\n        /* \"contracts/contracts/permit2/AllowanceTransfer.sol\":2365:2370  owner */\n    tag_177:\n        /* \"contracts/contracts/permit2/AllowanceTransfer.sol\":528:6194  contract AllowanceTransfer is IAllowanceTransfer, EIP712 {... */\n      0x20\n      dup3\n      add\n      mload\n      and\n        /* \"contracts/contracts/permit2/AllowanceTransfer.sol\":2470:2489  permitBatch.details */\n      swap1\n      dup1\n      mload\n        /* \"contracts/contracts/lib/PermitHash.sol\":433:605  keccak256(... */\n      mload\n        /* \"contracts/contracts/permit2/AllowanceTransfer.sol\":2515:2528  uint256 i = 0 */\n      swap2\n        /* \"contracts/contracts/permit2/AllowanceTransfer.sol\":528:6194  contract AllowanceTransfer is IAllowanceTransfer, EIP712 {... */\n      0x00\n        /* \"contracts/contracts/permit2/AllowanceTransfer.sol\":2530:2540  i < length */\n    tag_180:\n      dup4\n      dup2\n      lt\n      tag_181\n      jumpi\n        /* \"contracts/contracts/permit2/AllowanceTransfer.sol\":528:6194  contract AllowanceTransfer is IAllowanceTransfer, EIP712 {... */\n      stop\n        /* \"contracts/contracts/permit2/AllowanceTransfer.sol\":2542:2545  ++i */\n    tag_181:\n        /* \"contracts/contracts/permit2/AllowanceTransfer.sol\":2581:2600  permitBatch.details */\n      dup1\n        /* \"contracts/contracts/permit2/AllowanceTransfer.sol\":2612:2619  spender */\n      tag_183\n        /* \"contracts/contracts/permit2/AllowanceTransfer.sol\":2581:2600  permitBatch.details */\n      dup4\n      dup8\n        /* \"contracts/contracts/permit2/AllowanceTransfer.sol\":2581:2603  permitBatch.details[i] */\n      tag_184\n        /* \"contracts/contracts/permit2/AllowanceTransfer.sol\":528:6194  contract AllowanceTransfer is IAllowanceTransfer, EIP712 {... */\n      0x01\n        /* \"contracts/contracts/permit2/AllowanceTransfer.sol\":2581:2600  permitBatch.details */\n      swap6\n      dup9\n      mload\n        /* \"contracts/contracts/permit2/AllowanceTransfer.sol\":2581:2603  permitBatch.details[i] */\n      tag_16\n      jump\t// in\n    tag_184:\n      mload\n        /* \"contracts/contracts/permit2/AllowanceTransfer.sol\":2612:2619  spender */\n      tag_20\n      jump\t// in\n    tag_183:\n        /* \"contracts/contracts/permit2/AllowanceTransfer.sol\":528:6194  contract AllowanceTransfer is IAllowanceTransfer, EIP712 {... */\n      add\n        /* \"contracts/contracts/permit2/AllowanceTransfer.sol\":2515:2528  uint256 i = 0 */\n      jump(tag_180)\n        /* \"contracts/contracts/lib/PermitHash.sol\":661:834  keccak256(... */\n    tag_174:\n      dup3\n      mload\n        /* \"contracts/contracts/permit2/AllowanceTransfer.sol\":528:6194  contract AllowanceTransfer is IAllowanceTransfer, EIP712 {... */\n      dup9\n      mstore\n      0x20\n        /* \"contracts/contracts/lib/PermitHash.sol\":661:834  keccak256(... */\n      swap8\n      dup9\n      add\n      swap8\n      dup12\n      swap8\n      pop\n      swap1\n      swap3\n      add\n      swap2\n        /* \"contracts/contracts/permit2/AllowanceTransfer.sol\":528:6194  contract AllowanceTransfer is IAllowanceTransfer, EIP712 {... */\n      0x01\n        /* \"contracts/contracts/lib/PermitHash.sol\":661:834  keccak256(... */\n      add\n      jump(tag_173)\n        /* \"contracts/contracts/lib/PermitHash.sol\":2514:2517  ++i */\n    tag_171:\n        /* \"contracts/contracts/lib/PermitHash.sol\":2570:2589  permitBatch.details */\n      swap1\n      swap2\n      swap4\n      swap3\n      pop\n        /* \"contracts/contracts/lib/PermitHash.sol\":2551:2593  _hashPermitDetails(permitBatch.details[i]) */\n      tag_185\n        /* \"contracts/contracts/lib/PermitHash.sol\":2570:2592  permitBatch.details[i] */\n      tag_186\n        /* \"contracts/contracts/lib/PermitHash.sol\":2570:2589  permitBatch.details */\n      dup3\n      dup9\n      mload\n        /* \"contracts/contracts/lib/PermitHash.sol\":2570:2592  permitBatch.details[i] */\n      tag_16\n      jump\t// in\n    tag_186:\n      mload\n        /* \"contracts/contracts/lib/PermitHash.sol\":2551:2593  _hashPermitDetails(permitBatch.details[i]) */\n      tag_13\n      jump\t// in\n    tag_185:\n        /* \"contracts/contracts/lib/PermitHash.sol\":2533:2593  permitHashes[i] = _hashPermitDetails(permitBatch.details[i]) */\n      tag_187\n      dup3\n      dup6\n      tag_16\n      jump\t// in\n    tag_187:\n        /* \"contracts/contracts/permit2/AllowanceTransfer.sol\":528:6194  contract AllowanceTransfer is IAllowanceTransfer, EIP712 {... */\n      mstore\n      not(0x00)\n      dup2\n      eq\n      tag_188\n      jumpi\n      0x01\n      add\n        /* \"contracts/contracts/lib/PermitHash.sol\":2483:2496  uint256 i = 0 */\n      swap1\n      dup7\n      swap3\n      swap4\n      swap2\n      jump(tag_170)\n        /* \"contracts/contracts/permit2/AllowanceTransfer.sol\":528:6194  contract AllowanceTransfer is IAllowanceTransfer, EIP712 {... */\n    tag_188:\n        /* \"contracts/contracts/lib/SignatureVerification.sol\":625:693  (0x7fffffffffffffffffffffffffffffffffffffffffffffffffffffffffffffff) */\n      shl(0xe0, 0x4e487b71)\n        /* \"contracts/contracts/permit2/AllowanceTransfer.sol\":528:6194  contract AllowanceTransfer is IAllowanceTransfer, EIP712 {... */\n      0x00\n        /* \"contracts/contracts/lib/SignatureVerification.sol\":625:693  (0x7fffffffffffffffffffffffffffffffffffffffffffffffffffffffffffffff) */\n      mstore\n      0x11\n        /* \"contracts/contracts/permit2/AllowanceTransfer.sol\":528:6194  contract AllowanceTransfer is IAllowanceTransfer, EIP712 {... */\n      0x04\n        /* \"contracts/contracts/lib/SignatureVerification.sol\":625:693  (0x7fffffffffffffffffffffffffffffffffffffffffffffffffffffffffffffff) */\n      mstore\n        /* \"contracts/contracts/permit2/AllowanceTransfer.sol\":528:6194  contract AllowanceTransfer is IAllowanceTransfer, EIP712 {... */\n      0x24\n      0x00\n        /* \"contracts/contracts/lib/SignatureVerification.sol\":625:693  (0x7fffffffffffffffffffffffffffffffffffffffffffffffffffffffffffffff) */\n      revert\n        /* \"contracts/contracts/permit2/AllowanceTransfer.sol\":528:6194  contract AllowanceTransfer is IAllowanceTransfer, EIP712 {... */\n    tag_159:\n      0x80\n      dup4\n      calldatasize\n      sub\n      slt\n      tag_53\n      jumpi\n      0x20\n      0x80\n      swap2\n      mload(0x40)\n      tag_192\n      dup2\n      tag_5\n      jump\t// in\n    tag_192:\n      tag_193\n      dup7\n      tag_4\n      jump\t// in\n    tag_193:\n      dup2\n      mstore\n      tag_194\n      dup4\n      dup8\n      add\n      tag_4\n      jump\t// in\n    tag_194:\n      dup4\n      dup3\n      add\n      mstore\n      tag_195\n      0x40\n      dup8\n      add\n      tag_10\n      jump\t// in\n    tag_195:\n      0x40\n      dup3\n      add\n      mstore\n      tag_196\n      0x60\n      dup8\n      add\n      tag_10\n      jump\t// in\n    tag_196:\n      0x60\n      dup3\n      add\n      mstore\n      dup2\n      mstore\n      add\n      swap3\n      add\n      swap2\n      jump(tag_158)\n    tag_25:\n      jumpi(tag_53, callvalue)\n      0x20\n      dup1\n      add(calldatasize, not(0x03))\n      slt\n      tag_53\n      jumpi\n      0xffffffffffffffff\n      calldataload(0x04)\n      dup2\n      dup2\n      gt\n      tag_53\n      jumpi\n      calldatasize\n      0x23\n      dup3\n      add\n      slt\n      iszero\n      tag_53\n      jumpi\n      dup1\n      0x04\n      add\n      calldataload\n      swap2\n      dup3\n      gt\n      tag_53\n      jumpi\n      0x24\n      swap1\n      0x07\n      calldatasize\n      dup4\n      dup6\n      dup4\n      shl\n      dup5\n      add\n      add\n      gt\n      tag_53\n      jumpi\n      0x00\n        /* \"contracts/contracts/permit2/AllowanceTransfer.sol\":3071:3081  i < length */\n    tag_209:\n      dup5\n      dup2\n      lt\n      tag_210\n      jumpi\n        /* \"contracts/contracts/permit2/AllowanceTransfer.sol\":528:6194  contract AllowanceTransfer is IAllowanceTransfer, EIP712 {... */\n      stop\n        /* \"contracts/contracts/permit2/AllowanceTransfer.sol\":3083:3086  ++i */\n    tag_210:\n        /* \"contracts/contracts/permit2/AllowanceTransfer.sol\":528:6194  contract AllowanceTransfer is IAllowanceTransfer, EIP712 {... */\n      dup1\n      dup3\n      shl\n      dup4\n      add\n      swap1\n      0x80\n      not(0x23)\n      dup4\n      calldatasize\n      sub\n      add\n      slt\n      tag_53\n      jumpi\n        /* \"contracts/contracts/permit2/AllowanceTransfer.sol\":3264:3284  transferDetail.token */\n      tag_214\n        /* \"contracts/contracts/permit2/AllowanceTransfer.sol\":528:6194  contract AllowanceTransfer is IAllowanceTransfer, EIP712 {... */\n      0x01\n      swap3\n      mload(0x40)\n      tag_215\n      dup2\n      tag_5\n      jump\t// in\n    tag_215:\n      tag_216\n      dup9\n      dup4\n      add\n      tag_4\n      jump\t// in\n    tag_216:\n      dup1\n      dup3\n      mstore\n      0x60\n      tag_217\n      0x44\n      dup6\n      add\n      tag_4\n      jump\t// in\n    tag_217:\n      swap3\n      dup4\n      dup14\n      dup3\n      add\n      mstore\n      tag_218\n      0x84\n      tag_219\n      0x64\n      dup9\n      add\n      tag_4\n      jump\t// in\n    tag_219:\n      swap7\n      dup8\n      0x40\n      dup6\n      add\n      mstore\n      add\n      tag_4\n      jump\t// in\n    tag_218:\n      swap2\n      dup3\n      swap2\n      add\n      mstore\n      dup7\n      dup1\n      0xa0\n      shl\n      sub\n      dup1\n      dup1\n      dup1\n      swap4\n      and\n      swap6\n      and\n      swap4\n      and\n      swap2\n      and\n        /* \"contracts/contracts/permit2/AllowanceTransfer.sol\":3264:3284  transferDetail.token */\n      tag_17\n      jump\t// in\n    tag_214:\n        /* \"contracts/contracts/permit2/AllowanceTransfer.sol\":528:6194  contract AllowanceTransfer is IAllowanceTransfer, EIP712 {... */\n      add\n        /* \"contracts/contracts/permit2/AllowanceTransfer.sol\":3056:3069  uint256 i = 0 */\n      jump(tag_209)\n        /* \"contracts/contracts/permit2/AllowanceTransfer.sol\":528:6194  contract AllowanceTransfer is IAllowanceTransfer, EIP712 {... */\n    tag_1:\n      calldataload(0x04)\n      swap1\n      sub(shl(0xa0, 0x01), 0x01)\n      dup3\n      and\n      dup3\n      sub\n      tag_53\n      jumpi\n      jump\t// out\n    tag_2:\n      calldataload(0x24)\n      swap1\n      sub(shl(0xa0, 0x01), 0x01)\n      dup3\n      and\n      dup3\n      sub\n      tag_53\n      jumpi\n      jump\t// out\n    tag_3:\n      calldataload(0x44)\n      swap1\n      sub(shl(0xa0, 0x01), 0x01)\n      dup3\n      and\n      dup3\n      sub\n      tag_53\n      jumpi\n      jump\t// out\n    tag_4:\n      calldataload\n      swap1\n      sub(shl(0xa0, 0x01), 0x01)\n      dup3\n      and\n      dup3\n      sub\n      tag_53\n      jumpi\n      jump\t// out\n    tag_5:\n      0x80\n      dup2\n      add\n      swap1\n      dup2\n      lt\n      0xffffffffffffffff\n      dup3\n      gt\n      or\n      tag_228\n      jumpi\n      0x40\n      mstore\n      jump\t// out\n    tag_228:\n        /* \"contracts/contracts/lib/SignatureVerification.sol\":625:693  (0x7fffffffffffffffffffffffffffffffffffffffffffffffffffffffffffffff) */\n      shl(0xe0, 0x4e487b71)\n        /* \"contracts/contracts/permit2/AllowanceTransfer.sol\":528:6194  contract AllowanceTransfer is IAllowanceTransfer, EIP712 {... */\n      0x00\n      mstore\n      mstore(0x04, 0x41)\n      revert(0x00, 0x24)\n    tag_6:\n      0x60\n      dup2\n      add\n      swap1\n      dup2\n      lt\n      0xffffffffffffffff\n      dup3\n      gt\n      or\n      tag_228\n      jumpi\n      0x40\n      mstore\n      jump\t// out\n    tag_7:\n        /* \"contracts/contracts/lib/PermitHash.sol\":433:605  keccak256(... */\n      0xa0\n        /* \"contracts/contracts/permit2/AllowanceTransfer.sol\":528:6194  contract AllowanceTransfer is IAllowanceTransfer, EIP712 {... */\n      dup2\n      add\n      swap1\n      dup2\n      lt\n      0xffffffffffffffff\n      dup3\n      gt\n      or\n      tag_228\n      jumpi\n      0x40\n      mstore\n      jump\t// out\n    tag_8:\n      swap1\n      0x1f\n      dup1\n      not\n      swap2\n      add\n      and\n      dup2\n      add\n      swap1\n      dup2\n      lt\n      0xffffffffffffffff\n      dup3\n      gt\n      or\n      tag_228\n      jumpi\n      0x40\n      mstore\n      jump\t// out\n    tag_9:\n      0xffffffffffffffff\n      dup2\n      gt\n      tag_228\n      jumpi\n      0x05\n      shl\n      0x20\n      add\n      swap1\n      jump\t// out\n    tag_10:\n      calldataload\n      swap1\n      0xffffffffffff\n      dup3\n      and\n      dup3\n      sub\n      tag_53\n      jumpi\n      jump\t// out\n    tag_11:\n      swap2\n      dup2\n      0x1f\n      dup5\n      add\n      slt\n      iszero\n      tag_53\n      jumpi\n      dup3\n      calldataload\n      swap2\n      0xffffffffffffffff\n      dup4\n      gt\n      tag_53\n      jumpi\n      0x20\n      dup4\n      dup2\n      dup7\n      add\n      swap6\n      add\n      add\n      gt\n      tag_53\n      jumpi\n      jump\t// out\n        /* \"contracts/contracts/lib/PermitHash.sol\":5345:5533  function _hashPermitDetails(IAllowanceTransfer.PermitDetails memory details) private pure returns (bytes32) {... */\n    tag_13:\n        /* \"contracts/contracts/permit2/AllowanceTransfer.sol\":528:6194  contract AllowanceTransfer is IAllowanceTransfer, EIP712 {... */\n      mload(0x40)\n        /* \"contracts/contracts/lib/PermitHash.sol\":5480:5525  abi.encode(_PERMIT_DETAILS_TYPEHASH, details) */\n      0x20\n      dup2\n      add\n        /* \"contracts/contracts/permit2/AllowanceTransfer.sol\":528:6194  contract AllowanceTransfer is IAllowanceTransfer, EIP712 {... */\n      swap2\n        /* \"contracts/contracts/lib/PermitHash.sol\":289:376  keccak256(\"PermitDetails(address token,uint160 amount,uint48 expiration,uint48 nonce)\") */\n      0x65626cad6cb96493bf6f5ebea28756c966f023ab9e8a83a7101849d5573b3678\n        /* \"contracts/contracts/permit2/AllowanceTransfer.sol\":528:6194  contract AllowanceTransfer is IAllowanceTransfer, EIP712 {... */\n      dup4\n      mstore\n      0x01\n      dup1\n      0xa0\n      shl\n      sub\n        /* \"contracts/contracts/lib/PermitHash.sol\":289:376  keccak256(\"PermitDetails(address token,uint160 amount,uint48 expiration,uint48 nonce)\") */\n      dup1\n      dup3\n      mload\n        /* \"contracts/contracts/permit2/AllowanceTransfer.sol\":528:6194  contract AllowanceTransfer is IAllowanceTransfer, EIP712 {... */\n      and\n      0x40\n        /* \"contracts/contracts/lib/PermitHash.sol\":289:376  keccak256(\"PermitDetails(address token,uint160 amount,uint48 expiration,uint48 nonce)\") */\n      dup5\n      add\n        /* \"contracts/contracts/permit2/AllowanceTransfer.sol\":528:6194  contract AllowanceTransfer is IAllowanceTransfer, EIP712 {... */\n      mstore\n        /* \"contracts/contracts/lib/PermitHash.sol\":5480:5525  abi.encode(_PERMIT_DETAILS_TYPEHASH, details) */\n      0x20\n        /* \"contracts/contracts/lib/PermitHash.sol\":289:376  keccak256(\"PermitDetails(address token,uint160 amount,uint48 expiration,uint48 nonce)\") */\n      dup3\n      add\n      mload\n        /* \"contracts/contracts/permit2/AllowanceTransfer.sol\":528:6194  contract AllowanceTransfer is IAllowanceTransfer, EIP712 {... */\n      and\n        /* \"contracts/contracts/lib/PermitHash.sol\":289:376  keccak256(\"PermitDetails(address token,uint160 amount,uint48 expiration,uint48 nonce)\") */\n      0x60\n      dup4\n      add\n        /* \"contracts/contracts/permit2/AllowanceTransfer.sol\":528:6194  contract AllowanceTransfer is IAllowanceTransfer, EIP712 {... */\n      mstore\n        /* \"contracts/contracts/lib/PermitHash.sol\":289:376  keccak256(\"PermitDetails(address token,uint160 amount,uint48 expiration,uint48 nonce)\") */\n      0x60\n        /* \"contracts/contracts/permit2/AllowanceTransfer.sol\":528:6194  contract AllowanceTransfer is IAllowanceTransfer, EIP712 {... */\n      0xffffffffffff\n        /* \"contracts/contracts/lib/PermitHash.sol\":289:376  keccak256(\"PermitDetails(address token,uint160 amount,uint48 expiration,uint48 nonce)\") */\n      swap2\n      dup3\n        /* \"contracts/contracts/permit2/AllowanceTransfer.sol\":528:6194  contract AllowanceTransfer is IAllowanceTransfer, EIP712 {... */\n      0x40\n        /* \"contracts/contracts/lib/PermitHash.sol\":289:376  keccak256(\"PermitDetails(address token,uint160 amount,uint48 expiration,uint48 nonce)\") */\n      dup3\n      add\n      mload\n        /* \"contracts/contracts/permit2/AllowanceTransfer.sol\":528:6194  contract AllowanceTransfer is IAllowanceTransfer, EIP712 {... */\n      and\n        /* \"contracts/contracts/lib/PermitHash.sol\":289:376  keccak256(\"PermitDetails(address token,uint160 amount,uint48 expiration,uint48 nonce)\") */\n      0x80\n      dup6\n      add\n        /* \"contracts/contracts/permit2/AllowanceTransfer.sol\":528:6194  contract AllowanceTransfer is IAllowanceTransfer, EIP712 {... */\n      mstore\n        /* \"contracts/contracts/lib/PermitHash.sol\":289:376  keccak256(\"PermitDetails(address token,uint160 amount,uint48 expiration,uint48 nonce)\") */\n      add\n      mload\n        /* \"contracts/contracts/permit2/AllowanceTransfer.sol\":528:6194  contract AllowanceTransfer is IAllowanceTransfer, EIP712 {... */\n      and\n      0xa0\n        /* \"contracts/contracts/lib/PermitHash.sol\":289:376  keccak256(\"PermitDetails(address token,uint160 amount,uint48 expiration,uint48 nonce)\") */\n      dup3\n      add\n        /* \"contracts/contracts/permit2/AllowanceTransfer.sol\":528:6194  contract AllowanceTransfer is IAllowanceTransfer, EIP712 {... */\n      mstore\n      0xa0\n        /* \"contracts/contracts/lib/PermitHash.sol\":5480:5525  abi.encode(_PERMIT_DETAILS_TYPEHASH, details) */\n      dup2\n      mstore\n        /* \"contracts/contracts/lib/PermitHash.sol\":289:376  keccak256(\"PermitDetails(address token,uint160 amount,uint48 expiration,uint48 nonce)\") */\n      0xc0\n        /* \"contracts/contracts/permit2/AllowanceTransfer.sol\":528:6194  contract AllowanceTransfer is IAllowanceTransfer, EIP712 {... */\n      dup2\n      add\n      dup2\n      dup2\n      lt\n      0xffffffffffffffff\n      dup3\n      gt\n      or\n      tag_228\n      jumpi\n      0x40\n      mstore\n        /* \"contracts/contracts/lib/PermitHash.sol\":433:605  keccak256(... */\n      mload\n        /* \"contracts/contracts/lib/PermitHash.sol\":5470:5526  keccak256(abi.encode(_PERMIT_DETAILS_TYPEHASH, details)) */\n      swap1\n      keccak256\n        /* \"contracts/contracts/lib/PermitHash.sol\":5345:5533  function _hashPermitDetails(IAllowanceTransfer.PermitDetails memory details) private pure returns (bytes32) {... */\n      swap1\n      jump\t// out\n        /* \"contracts/contracts/permit2/AllowanceTransfer.sol\":528:6194  contract AllowanceTransfer is IAllowanceTransfer, EIP712 {... */\n    tag_14:\n      swap2\n      swap1\n      dup3\n      0x40\n      swap2\n      sub\n      slt\n      tag_53\n      jumpi\n      0x20\n      dup3\n      calldataload\n      swap3\n      add\n      calldataload\n      swap1\n      jump\t// out\n        /* \"contracts/contracts/lib/SignatureVerification.sol\":700:1809  function verify(bytes calldata signature, bytes32 hash, address claimedSigner) internal view {... */\n    tag_15:\n      0x00\n        /* \"contracts/contracts/lib/SignatureVerification.sol\":863:888  claimedSigner.code.length */\n      dup5\n      extcodesize\n      tag_250\n      jumpi\n      pop\n        /* \"contracts/contracts/lib/SignatureVerification.sol\":933:935  65 */\n      0x41\n        /* \"contracts/contracts/lib/SignatureVerification.sol\":913:935  signature.length == 65 */\n      dup3\n      sub\n        /* \"contracts/contracts/lib/SignatureVerification.sol\":933:935  65 */\n      tag_252\n      jumpi\n        /* \"contracts/contracts/lib/SignatureVerification.sol\":964:1005  abi.decode(signature, (bytes32, bytes32)) */\n      tag_254\n      dup3\n      dup3\n      add\n      dup3\n      tag_14\n      jump\t// in\n    tag_254:\n        /* \"contracts/contracts/lib/SignatureVerification.sol\":955:1005  (r, s) = abi.decode(signature, (bytes32, bytes32)) */\n      swap4\n      swap1\n        /* \"contracts/contracts/lib/SignatureVerification.sol\":625:693  (0x7fffffffffffffffffffffffffffffffffffffffffffffffffffffffffffffff) */\n      swap3\n        /* \"contracts/contracts/lib/SignatureVerification.sol\":1043:1045  64 */\n      0x40\n        /* \"contracts/contracts/lib/SignatureVerification.sol\":625:693  (0x7fffffffffffffffffffffffffffffffffffffffffffffffffffffffffffffff) */\n      lt\n      iszero\n      tag_255\n      jumpi\n      0x20\n      swap4\n      0x00\n      swap4\n      0xff\n        /* \"contracts/contracts/lib/SignatureVerification.sol\":1043:1045  64 */\n      0x40\n        /* \"contracts/contracts/lib/SignatureVerification.sol\":625:693  (0x7fffffffffffffffffffffffffffffffffffffffffffffffffffffffffffffff) */\n      0x80\n      swap6\n      add\n        /* \"contracts/contracts/lib/SignatureVerification.sol\":1033:1046  signature[64] */\n      calldataload\n        /* \"contracts/contracts/lib/SignatureVerification.sol\":625:693  (0x7fffffffffffffffffffffffffffffffffffffffffffffffffffffffffffffff) */\n      0xf8\n      shr\n        /* \"contracts/contracts/lib/SignatureVerification.sol\":909:1399  if (signature.length == 65) {... */\n    tag_257:\n        /* \"contracts/contracts/permit2/AllowanceTransfer.sol\":528:6194  contract AllowanceTransfer is IAllowanceTransfer, EIP712 {... */\n      mload(0x40)\n      swap5\n      dup6\n      mstore\n        /* \"contracts/contracts/lib/SignatureVerification.sol\":625:693  (0x7fffffffffffffffffffffffffffffffffffffffffffffffffffffffffffffff) */\n      and\n      dup7\n      dup5\n      add\n      mstore\n        /* \"contracts/contracts/permit2/AllowanceTransfer.sol\":528:6194  contract AllowanceTransfer is IAllowanceTransfer, EIP712 {... */\n      0x40\n        /* \"contracts/contracts/lib/SignatureVerification.sol\":625:693  (0x7fffffffffffffffffffffffffffffffffffffffffffffffffffffffffffffff) */\n      dup4\n      add\n        /* \"contracts/contracts/permit2/AllowanceTransfer.sol\":528:6194  contract AllowanceTransfer is IAllowanceTransfer, EIP712 {... */\n      mstore\n        /* \"contracts/contracts/lib/SignatureVerification.sol\":625:693  (0x7fffffffffffffffffffffffffffffffffffffffffffffffffffffffffffffff) */\n      0x60\n      dup3\n      add\n        /* \"contracts/contracts/permit2/AllowanceTransfer.sol\":528:6194  contract AllowanceTransfer is IAllowanceTransfer, EIP712 {... */\n      mstore\n        /* \"contracts/contracts/lib/SignatureVerification.sol\":1429:1453  ecrecover(hash, v, r, s) */\n      dup3\n      dup1\n      mstore\n      0x01\n      gas\n      staticcall\n      iszero\n      tag_258\n      jumpi\n      mload(0x00)\n      sub(shl(0xa0, 0x01), 0x01)\n        /* \"contracts/contracts/permit2/AllowanceTransfer.sol\":528:6194  contract AllowanceTransfer is IAllowanceTransfer, EIP712 {... */\n      swap1\n      dup2\n      and\n      swap2\n        /* \"contracts/contracts/lib/SignatureVerification.sol\":1471:1491  signer == address(0) */\n      dup3\n      iszero\n        /* \"contracts/contracts/lib/SignatureVerification.sol\":1467:1518  if (signer == address(0)) revert InvalidSignature() */\n      tag_260\n      jumpi\n        /* \"contracts/contracts/permit2/AllowanceTransfer.sol\":528:6194  contract AllowanceTransfer is IAllowanceTransfer, EIP712 {... */\n      and\n        /* \"contracts/contracts/lib/SignatureVerification.sol\":1536:1559  signer != claimedSigner */\n      sub\n        /* \"contracts/contracts/lib/SignatureVerification.sol\":1532:1583  if (signer != claimedSigner) revert InvalidSigner() */\n      tag_262\n      jumpi\n        /* \"contracts/contracts/lib/SignatureVerification.sol\":700:1809  function verify(bytes calldata signature, bytes32 hash, address claimedSigner) internal view {... */\n      jump\t// out\n        /* \"contracts/contracts/lib/SignatureVerification.sol\":1532:1583  if (signer != claimedSigner) revert InvalidSigner() */\n    tag_262:\n        /* \"contracts/contracts/permit2/AllowanceTransfer.sol\":528:6194  contract AllowanceTransfer is IAllowanceTransfer, EIP712 {... */\n      mload(0x40)\n      shl(0xe2, 0x20578759)\n        /* \"contracts/contracts/lib/SignatureVerification.sol\":1568:1583  InvalidSigner() */\n      dup2\n      mstore\n      0x04\n      swap1\n      revert\n        /* \"contracts/contracts/lib/SignatureVerification.sol\":1467:1518  if (signer == address(0)) revert InvalidSignature() */\n    tag_260:\n        /* \"contracts/contracts/permit2/AllowanceTransfer.sol\":528:6194  contract AllowanceTransfer is IAllowanceTransfer, EIP712 {... */\n      mload(0x40)\n      shl(0xe0, 0x8baa579f)\n        /* \"contracts/contracts/lib/SignatureVerification.sol\":1500:1518  InvalidSignature() */\n      dup2\n      mstore\n      0x04\n      swap1\n      revert\n        /* \"contracts/contracts/lib/SignatureVerification.sol\":1429:1453  ecrecover(hash, v, r, s) */\n    tag_258:\n        /* \"contracts/contracts/permit2/AllowanceTransfer.sol\":528:6194  contract AllowanceTransfer is IAllowanceTransfer, EIP712 {... */\n      mload(0x40)\n      returndatasize\n      0x00\n      dup3\n      returndatacopy\n      returndatasize\n      swap1\n      revert\n        /* \"contracts/contracts/lib/SignatureVerification.sol\":625:693  (0x7fffffffffffffffffffffffffffffffffffffffffffffffffffffffffffffff) */\n    tag_255:\n      mstore(0x00, shl(0xe0, 0x4e487b71))\n      mstore(0x04, 0x32)\n      revert(0x00, 0x24)\n        /* \"contracts/contracts/lib/SignatureVerification.sol\":909:1399  if (signature.length == 65) {... */\n    tag_252:\n        /* \"contracts/contracts/lib/SignatureVerification.sol\":1092:1094  64 */\n      0x40\n        /* \"contracts/contracts/lib/SignatureVerification.sol\":1072:1094  signature.length == 64 */\n      dup3\n      sub\n        /* \"contracts/contracts/lib/SignatureVerification.sol\":1092:1094  64 */\n      tag_265\n      jumpi\n        /* \"contracts/contracts/lib/SignatureVerification.sol\":1180:1221  abi.decode(signature, (bytes32, bytes32)) */\n      tag_267\n      swap2\n      dup2\n      add\n      swap1\n      tag_14\n      jump\t// in\n    tag_267:\n      sub(shl(0xff, 0x01), 0x01)\n        /* \"contracts/contracts/lib/SignatureVerification.sol\":1243:1262  vs & UPPER_BIT_MASK */\n      dup2\n      and\n      swap3\n        /* \"contracts/contracts/lib/SignatureVerification.sol\":626:692  0x7fffffffffffffffffffffffffffffffffffffffffffffffffffffffffffffff */\n      0xff\n        /* \"contracts/contracts/lib/SignatureVerification.sol\":625:693  (0x7fffffffffffffffffffffffffffffffffffffffffffffffffffffffffffffff) */\n      swap2\n      dup3\n      shr\n        /* \"contracts/contracts/lib/SignatureVerification.sol\":1312:1314  27 */\n      0x1b\n        /* \"contracts/contracts/lib/SignatureVerification.sol\":625:693  (0x7fffffffffffffffffffffffffffffffffffffffffffffffffffffffffffffff) */\n      add\n      swap2\n      dup3\n      gt\n      tag_188\n      jumpi\n      0x20\n        /* \"contracts/contracts/lib/SignatureVerification.sol\":1280:1314  v = uint8(uint256(vs >> 255)) + 27 */\n      swap4\n      0x00\n      swap4\n        /* \"contracts/contracts/lib/SignatureVerification.sol\":625:693  (0x7fffffffffffffffffffffffffffffffffffffffffffffffffffffffffffffff) */\n      0xff\n      0x80\n        /* \"contracts/contracts/lib/SignatureVerification.sol\":1280:1314  v = uint8(uint256(vs >> 255)) + 27 */\n      swap5\n        /* \"contracts/contracts/lib/SignatureVerification.sol\":909:1399  if (signature.length == 65) {... */\n      jump(tag_257)\n        /* \"contracts/contracts/lib/SignatureVerification.sol\":1068:1399  if (signature.length == 64) {... */\n    tag_265:\n        /* \"contracts/contracts/lib/SignatureVerification.sol\":1092:1094  64 */\n      0x40\n        /* \"contracts/contracts/permit2/AllowanceTransfer.sol\":528:6194  contract AllowanceTransfer is IAllowanceTransfer, EIP712 {... */\n      mload\n      shl(0xe0, 0x4be6321b)\n        /* \"contracts/contracts/lib/SignatureVerification.sol\":1360:1384  InvalidSignatureLength() */\n      dup2\n      mstore\n      0x04\n      swap1\n      revert\n        /* \"contracts/contracts/lib/SignatureVerification.sol\":859:1803  if (claimedSigner.code.length == 0) {... */\n    tag_250:\n        /* \"contracts/contracts/permit2/AllowanceTransfer.sol\":528:6194  contract AllowanceTransfer is IAllowanceTransfer, EIP712 {... */\n      swap2\n      dup1\n      swap4\n      swap5\n        /* \"contracts/contracts/lib/SignatureVerification.sol\":1634:1691  IERC1271(claimedSigner).isValidSignature(hash, signature) */\n      0x20\n        /* \"contracts/contracts/permit2/AllowanceTransfer.sol\":528:6194  contract AllowanceTransfer is IAllowanceTransfer, EIP712 {... */\n      swap3\n      0x64\n      mload(0x40)\n      dup1\n      swap8\n      dup2\n      swap6\n      dup3\n      swap5\n      shl(0xe1, 0x0b135d3f)\n        /* \"contracts/contracts/lib/SignatureVerification.sol\":1634:1691  IERC1271(claimedSigner).isValidSignature(hash, signature) */\n      swap12\n      dup13\n      dup6\n      mstore\n      0x04\n      dup6\n      add\n        /* \"contracts/contracts/permit2/AllowanceTransfer.sol\":528:6194  contract AllowanceTransfer is IAllowanceTransfer, EIP712 {... */\n      mstore\n      0x40\n      0x24\n      dup6\n      add\n      mstore\n      dup2\n      0x44\n      dup6\n      add\n      mstore\n      dup5\n      dup5\n      add\n      calldatacopy\n      dup2\n      dup2\n      add\n      dup4\n      add\n      dup9\n      swap1\n      mstore\n      0x1f\n      add\n      not(0x1f)\n      and\n      dup2\n      add\n        /* \"contracts/contracts/lib/SignatureVerification.sol\":1634:1691  IERC1271(claimedSigner).isValidSignature(hash, signature) */\n      sub\n      add\n      swap2\n      sub(shl(0xa0, 0x01), 0x01)\n        /* \"contracts/contracts/permit2/AllowanceTransfer.sol\":528:6194  contract AllowanceTransfer is IAllowanceTransfer, EIP712 {... */\n      and\n        /* \"contracts/contracts/lib/SignatureVerification.sol\":1634:1691  IERC1271(claimedSigner).isValidSignature(hash, signature) */\n      gas\n      staticcall\n      swap2\n      dup3\n      iszero\n      tag_270\n      jumpi\n      dup2\n      swap3\n      tag_272\n      jumpi\n        /* \"contracts/contracts/lib/SignatureVerification.sol\":859:1803  if (claimedSigner.code.length == 0) {... */\n    tag_273:\n      pop\n      pop\n      not(sub(shl(0xe0, 0x01), 0x01))\n        /* \"contracts/contracts/permit2/AllowanceTransfer.sol\":528:6194  contract AllowanceTransfer is IAllowanceTransfer, EIP712 {... */\n      and\n        /* \"contracts/contracts/lib/SignatureVerification.sol\":1709:1757  magicValue != IERC1271.isValidSignature.selector */\n      sub\n        /* \"contracts/contracts/lib/SignatureVerification.sol\":1705:1792  if (magicValue != IERC1271.isValidSignature.selector) revert InvalidContractSignature() */\n      tag_274\n      jumpi\n        /* \"contracts/contracts/lib/SignatureVerification.sol\":700:1809  function verify(bytes calldata signature, bytes32 hash, address claimedSigner) internal view {... */\n      jump\t// out\n        /* \"contracts/contracts/lib/SignatureVerification.sol\":1705:1792  if (magicValue != IERC1271.isValidSignature.selector) revert InvalidContractSignature() */\n    tag_274:\n        /* \"contracts/contracts/permit2/AllowanceTransfer.sol\":528:6194  contract AllowanceTransfer is IAllowanceTransfer, EIP712 {... */\n      mload(0x40)\n      shl(0xe2, 0x2c19a72f)\n        /* \"contracts/contracts/lib/SignatureVerification.sol\":1766:1792  InvalidContractSignature() */\n      dup2\n      mstore\n        /* \"contracts/contracts/lib/SignatureVerification.sol\":1634:1691  IERC1271(claimedSigner).isValidSignature(hash, signature) */\n      0x04\n      swap1\n        /* \"contracts/contracts/lib/SignatureVerification.sol\":1766:1792  InvalidContractSignature() */\n      revert\n        /* \"contracts/contracts/lib/SignatureVerification.sol\":1634:1691  IERC1271(claimedSigner).isValidSignature(hash, signature) */\n    tag_272:\n      swap1\n      swap2\n      pop\n      0x20\n      dup2\n      returndatasize\n      dup3\n      gt\n      tag_276\n      jumpi\n    tag_277:\n      dup2\n      tag_278\n      0x20\n      swap4\n      dup4\n      tag_8\n      jump\t// in\n    tag_278:\n      dup2\n      add\n        /* \"contracts/contracts/permit2/AllowanceTransfer.sol\":528:6194  contract AllowanceTransfer is IAllowanceTransfer, EIP712 {... */\n      sub\n      slt\n      tag_279\n      jumpi\n      mload\n      swap1\n      not(sub(shl(0xe0, 0x01), 0x01))\n      dup3\n      and\n      dup3\n      sub\n      tag_281\n      jumpi\n        /* \"contracts/contracts/lib/SignatureVerification.sol\":1634:1691  IERC1271(claimedSigner).isValidSignature(hash, signature) */\n      pop\n      0x00\n      dup1\n      jump(tag_273)\n        /* \"contracts/contracts/permit2/AllowanceTransfer.sol\":528:6194  contract AllowanceTransfer is IAllowanceTransfer, EIP712 {... */\n    tag_281:\n      dup1\n      revert\n    tag_279:\n      pop\n      dup1\n      revert\n        /* \"contracts/contracts/lib/SignatureVerification.sol\":1634:1691  IERC1271(claimedSigner).isValidSignature(hash, signature) */\n    tag_276:\n      returndatasize\n      swap2\n      pop\n      jump(tag_277)\n    tag_270:\n        /* \"contracts/contracts/permit2/AllowanceTransfer.sol\":528:6194  contract AllowanceTransfer is IAllowanceTransfer, EIP712 {... */\n      pop\n      mload(0x40)\n      swap1\n      returndatasize\n      swap1\n      dup3\n      returndatacopy\n      returndatasize\n      swap1\n      revert\n    tag_16:\n        /* \"contracts/contracts/lib/PermitHash.sol\":433:605  keccak256(... */\n      dup1\n      mload\n        /* \"contracts/contracts/permit2/AllowanceTransfer.sol\":528:6194  contract AllowanceTransfer is IAllowanceTransfer, EIP712 {... */\n      dup3\n      lt\n      iszero\n      tag_255\n      jumpi\n      0x20\n      swap2\n      0x05\n      shl\n      add\n      add\n      swap1\n      jump\t// out\n        /* \"contracts/contracts/permit2/AllowanceTransfer.sol\":3463:4200  function _transfer(address from, address to, uint160 amount, address token) private {... */\n    tag_17:\n      swap1\n      swap3\n        /* \"contracts/contracts/permit2/AllowanceTransfer.sol\":528:6194  contract AllowanceTransfer is IAllowanceTransfer, EIP712 {... */\n      0x01\n      dup1\n      0xa0\n      shl\n      sub\n      dup1\n      swap3\n      and\n        /* \"contracts/contracts/permit2/AllowanceTransfer.sol\":3591:3600  allowance */\n      swap1\n      0x00\n        /* \"contracts/contracts/permit2/AllowanceTransfer.sol\":528:6194  contract AllowanceTransfer is IAllowanceTransfer, EIP712 {... */\n      swap3\n      dup3\n      dup5\n      mstore\n      dup4\n      0x20\n      mstore\n      0x40\n      swap5\n      dup2\n      dup7\n      dup7\n      keccak256\n      swap4\n      and\n      swap3\n      dup4\n      dup7\n      mstore\n      0x20\n      mstore\n      dup6\n      dup6\n      keccak256\n        /* \"contracts/contracts/permit2/AllowanceTransfer.sol\":3614:3624  msg.sender */\n      caller\n        /* \"contracts/contracts/permit2/AllowanceTransfer.sol\":528:6194  contract AllowanceTransfer is IAllowanceTransfer, EIP712 {... */\n      dup7\n      mstore\n      0x20\n      mstore\n      dup6\n      dup6\n      keccak256\n      swap7\n      dup8\n      sload\n      swap8\n      0xffffffffffff\n      dup10\n      0xa0\n      shr\n      and\n        /* \"contracts/contracts/permit2/AllowanceTransfer.sol\":3640:3655  block.timestamp */\n      dup1\n      timestamp\n        /* \"contracts/contracts/permit2/AllowanceTransfer.sol\":3640:3676  block.timestamp > allowed.expiration */\n      gt\n        /* \"contracts/contracts/permit2/AllowanceTransfer.sol\":3636:3721  if (block.timestamp > allowed.expiration) revert AllowanceExpired(allowed.expiration) */\n      tag_285\n      jumpi\n        /* \"contracts/contracts/permit2/AllowanceTransfer.sol\":528:6194  contract AllowanceTransfer is IAllowanceTransfer, EIP712 {... */\n      pop\n      dup4\n      dup10\n      and\n        /* \"contracts/contracts/permit2/AllowanceTransfer.sol\":3780:3810  maxAmount != type(uint160).max */\n      swap9\n      dup5\n      dup11\n      sub\n        /* \"contracts/contracts/permit2/AllowanceTransfer.sol\":3776:4065  if (maxAmount != type(uint160).max) {... */\n      tag_287\n      jumpi\n        /* \"contracts/contracts/permit2/AllowanceTransfer.sol\":3463:4200  function _transfer(address from, address to, uint160 amount, address token) private {... */\n    tag_288:\n        /* \"solmate/src/utils/SafeTransferLib.sol\":1532:3053  assembly {... */\n      pop\n      pop\n      dup7\n      swap8\n      pop\n      swap3\n      dup3\n      dup7\n      swap8\n      swap3\n      dup8\n      swap7\n      swap5\n      0x64\n      swap7\n        /* \"contracts/contracts/permit2/AllowanceTransfer.sol\":528:6194  contract AllowanceTransfer is IAllowanceTransfer, EIP712 {... */\n      0x20\n        /* \"solmate/src/utils/SafeTransferLib.sol\":1532:3053  assembly {... */\n      swap10\n      swap6\n      mload\n      swap7\n      shl(0xe0, 0x23b872dd)\n      dup9\n      mstore\n      0x04\n      dup9\n      add\n      mstore\n      and\n      0x24\n      dup7\n      add\n      mstore\n        /* \"contracts/contracts/permit2/AllowanceTransfer.sol\":528:6194  contract AllowanceTransfer is IAllowanceTransfer, EIP712 {... */\n      and\n        /* \"solmate/src/utils/SafeTransferLib.sol\":1532:3053  assembly {... */\n      0x44\n      dup5\n      add\n      mstore\n      gas\n      call\n      swap1\n      mload\n        /* \"contracts/contracts/permit2/AllowanceTransfer.sol\":528:6194  contract AllowanceTransfer is IAllowanceTransfer, EIP712 {... */\n      0x01\n        /* \"solmate/src/utils/SafeTransferLib.sol\":1532:3053  assembly {... */\n      eq\n      gt(returndatasize, 0x1f)\n      and\n      iszero(returndatasize)\n      or\n      and\n        /* \"contracts/contracts/permit2/AllowanceTransfer.sol\":528:6194  contract AllowanceTransfer is IAllowanceTransfer, EIP712 {... */\n      iszero\n      tag_289\n      jumpi\n        /* \"contracts/contracts/permit2/AllowanceTransfer.sol\":3463:4200  function _transfer(address from, address to, uint160 amount, address token) private {... */\n      pop\n      jump\t// out\n        /* \"contracts/contracts/permit2/AllowanceTransfer.sol\":528:6194  contract AllowanceTransfer is IAllowanceTransfer, EIP712 {... */\n    tag_289:\n      mload\n      shl(0xe5, 0x461bcd)\n      dup2\n      mstore\n      0x20\n        /* \"solmate/src/utils/SafeTransferLib.sol\":1532:3053  assembly {... */\n      0x04\n        /* \"contracts/contracts/permit2/AllowanceTransfer.sol\":528:6194  contract AllowanceTransfer is IAllowanceTransfer, EIP712 {... */\n      dup3\n      add\n      mstore\n      0x14\n        /* \"solmate/src/utils/SafeTransferLib.sol\":1532:3053  assembly {... */\n      0x24\n        /* \"contracts/contracts/permit2/AllowanceTransfer.sol\":528:6194  contract AllowanceTransfer is IAllowanceTransfer, EIP712 {... */\n      dup3\n      add\n      mstore\n      shl(0x62, 0x1514905394d1915497d19493d357d19052531151)\n        /* \"solmate/src/utils/SafeTransferLib.sol\":1532:3053  assembly {... */\n      0x44\n        /* \"contracts/contracts/permit2/AllowanceTransfer.sol\":528:6194  contract AllowanceTransfer is IAllowanceTransfer, EIP712 {... */\n      dup3\n      add\n      mstore\n        /* \"solmate/src/utils/SafeTransferLib.sol\":1532:3053  assembly {... */\n      0x64\n      swap1\n        /* \"contracts/contracts/permit2/AllowanceTransfer.sol\":528:6194  contract AllowanceTransfer is IAllowanceTransfer, EIP712 {... */\n      revert\n        /* \"contracts/contracts/permit2/AllowanceTransfer.sol\":3776:4065  if (maxAmount != type(uint160).max) {... */\n    tag_287:\n        /* \"contracts/contracts/permit2/AllowanceTransfer.sol\":528:6194  contract AllowanceTransfer is IAllowanceTransfer, EIP712 {... */\n      dup10\n      dup6\n      dup6\n      and\n        /* \"contracts/contracts/permit2/AllowanceTransfer.sol\":3830:3848  amount > maxAmount */\n      gt\n        /* \"contracts/contracts/permit2/AllowanceTransfer.sol\":3826:4055  if (amount > maxAmount) {... */\n      0x00\n        /* \"contracts/contracts/permit2/AllowanceTransfer.sol\":3830:3848  amount > maxAmount */\n      eq\n      tag_291\n      jumpi\n        /* \"contracts/contracts/permit2/AllowanceTransfer.sol\":528:6194  contract AllowanceTransfer is IAllowanceTransfer, EIP712 {... */\n      dup9\n      mload\n      shl(0xe0, 0xf96fb071)\n        /* \"contracts/contracts/permit2/AllowanceTransfer.sol\":3875:3907  InsufficientAllowance(maxAmount) */\n      dup2\n      mstore\n      0x04\n      dup2\n      add\n        /* \"contracts/contracts/permit2/AllowanceTransfer.sol\":528:6194  contract AllowanceTransfer is IAllowanceTransfer, EIP712 {... */\n      dup12\n      swap1\n      mstore\n      0x24\n      swap1\n        /* \"contracts/contracts/permit2/AllowanceTransfer.sol\":3875:3907  InsufficientAllowance(maxAmount) */\n      revert\n        /* \"contracts/contracts/permit2/AllowanceTransfer.sol\":3826:4055  if (amount > maxAmount) {... */\n    tag_291:\n      not(sub(shl(0xa0, 0x01), 0x01))\n        /* \"contracts/contracts/permit2/AllowanceTransfer.sol\":528:6194  contract AllowanceTransfer is IAllowanceTransfer, EIP712 {... */\n      and\n      swap9\n      dup4\n      swap1\n      sub\n      dup5\n      and\n      swap9\n      swap1\n      swap9\n      or\n      swap1\n      swap8\n      sstore\n      swap5\n      swap6\n      dup7\n      swap6\n      swap1\n      dup3\n      0x20\n        /* \"contracts/contracts/permit2/AllowanceTransfer.sol\":3776:4065  if (maxAmount != type(uint160).max) {... */\n      jump(tag_288)\n        /* \"contracts/contracts/permit2/AllowanceTransfer.sol\":3636:3721  if (block.timestamp > allowed.expiration) revert AllowanceExpired(allowed.expiration) */\n    tag_285:\n        /* \"contracts/contracts/permit2/AllowanceTransfer.sol\":528:6194  contract AllowanceTransfer is IAllowanceTransfer, EIP712 {... */\n      0x24\n      swap1\n      dup10\n      mload\n        /* \"contracts/contracts/permit2/AllowanceTransfer.sol\":3685:3721  AllowanceExpired(allowed.expiration) */\n      swap1\n      shl(0xe1, 0x6c0d9797)\n      dup3\n      mstore\n      0x04\n      dup3\n      add\n        /* \"contracts/contracts/permit2/AllowanceTransfer.sol\":528:6194  contract AllowanceTransfer is IAllowanceTransfer, EIP712 {... */\n      mstore\n        /* \"contracts/contracts/permit2/AllowanceTransfer.sol\":3685:3721  AllowanceExpired(allowed.expiration) */\n      revert\n        /* \"contracts/contracts/permit2/AllowanceTransfer.sol\":528:6194  contract AllowanceTransfer is IAllowanceTransfer, EIP712 {... */\n    tag_18:\n      swap2\n      swap1\n      dup2\n      lt\n      iszero\n      tag_255\n      jumpi\n      0x06\n      shl\n      add\n      swap1\n      jump\t// out\n    tag_19:\n      calldataload\n      sub(shl(0xa0, 0x01), 0x01)\n      dup2\n      and\n      dup2\n      sub\n      tag_53\n      jumpi\n      swap1\n      jump\t// out\n        /* \"contracts/contracts/permit2/AllowanceTransfer.sol\":5662:6192  function _updateApproval(PermitDetails memory details, address owner, address spender) private {... */\n    tag_20:\n      swap1\n        /* \"contracts/contracts/permit2/AllowanceTransfer.sol\":528:6194  contract AllowanceTransfer is IAllowanceTransfer, EIP712 {... */\n      0xffffffffffff\n        /* \"contracts/contracts/permit2/AllowanceTransfer.sol\":5782:5795  details.nonce */\n      swap1\n      dup2\n      0x60\n      dup5\n      add\n        /* \"contracts/contracts/permit2/AllowanceTransfer.sol\":528:6194  contract AllowanceTransfer is IAllowanceTransfer, EIP712 {... */\n      mload\n      and\n      0x01\n      dup1\n      0xa0\n      shl\n      sub\n      swap1\n      dup2\n      dup6\n      mload\n      and\n        /* \"contracts/contracts/permit2/AllowanceTransfer.sol\":5861:5875  details.amount */\n      swap5\n      dup3\n      0x20\n      dup3\n      add\n        /* \"contracts/contracts/permit2/AllowanceTransfer.sol\":528:6194  contract AllowanceTransfer is IAllowanceTransfer, EIP712 {... */\n      mload\n      and\n        /* \"contracts/contracts/permit2/AllowanceTransfer.sol\":5905:5923  details.expiration */\n      swap3\n      dup1\n      dup7\n      0x40\n      dup1\n      swap5\n      add\n        /* \"contracts/contracts/permit2/AllowanceTransfer.sol\":528:6194  contract AllowanceTransfer is IAllowanceTransfer, EIP712 {... */\n      mload\n      and\n      swap6\n      and\n      swap6\n      0x00\n      swap2\n      dup8\n      dup4\n      mstore\n      dup3\n        /* \"contracts/contracts/permit2/AllowanceTransfer.sol\":5861:5875  details.amount */\n      0x20\n        /* \"contracts/contracts/permit2/AllowanceTransfer.sol\":528:6194  contract AllowanceTransfer is IAllowanceTransfer, EIP712 {... */\n      mstore\n      dup4\n      dup4\n      keccak256\n      dup10\n      dup5\n      mstore\n        /* \"contracts/contracts/permit2/AllowanceTransfer.sol\":5861:5875  details.amount */\n      0x20\n        /* \"contracts/contracts/permit2/AllowanceTransfer.sol\":528:6194  contract AllowanceTransfer is IAllowanceTransfer, EIP712 {... */\n      mstore\n      dup4\n      dup4\n      keccak256\n      swap10\n      and\n      swap9\n      dup10\n      dup4\n      mstore\n        /* \"contracts/contracts/permit2/AllowanceTransfer.sol\":5861:5875  details.amount */\n      0x20\n        /* \"contracts/contracts/permit2/AllowanceTransfer.sol\":528:6194  contract AllowanceTransfer is IAllowanceTransfer, EIP712 {... */\n      mstore\n      dup3\n      dup3\n      keccak256\n      swap2\n      dup5\n      dup4\n      sload\n      0xd0\n      shr\n        /* \"contracts/contracts/permit2/AllowanceTransfer.sol\":6014:6036  allowed.nonce != nonce */\n      sub\n        /* \"contracts/contracts/permit2/AllowanceTransfer.sol\":6010:6059  if (allowed.nonce != nonce) revert InvalidNonce() */\n      tag_297\n      jumpi\n        /* \"contracts/contracts/lib/Allowance.sol\":843:922  expiration == BLOCK_TIMESTAMP_EXPIRATION ? uint48(block.timestamp) : expiration */\n      swap2\n      dup6\n        /* \"contracts/contracts/permit2/AllowanceTransfer.sol\":6129:6185  Permit(owner, token, spender, amount, expiration, nonce) */\n      tag_299\n        /* \"contracts/contracts/lib/Allowance.sol\":843:922  expiration == BLOCK_TIMESTAMP_EXPIRATION ? uint48(block.timestamp) : expiration */\n      swap5\n      swap3\n        /* \"contracts/contracts/permit2/AllowanceTransfer.sol\":6129:6185  Permit(owner, token, spender, amount, expiration, nonce) */\n      0xc6a377bfc4eb120024a8ac08eef205be16b817020812c73223e81d1bdb9708ec\n        /* \"contracts/contracts/lib/Allowance.sol\":843:922  expiration == BLOCK_TIMESTAMP_EXPIRATION ? uint48(block.timestamp) : expiration */\n      swap9\n      swap8\n      swap7\n      swap5\n        /* \"contracts/contracts/lib/Allowance.sol\":843:883  expiration == BLOCK_TIMESTAMP_EXPIRATION */\n      pop\n      dup8\n      iszero\n        /* \"contracts/contracts/lib/Allowance.sol\":843:922  expiration == BLOCK_TIMESTAMP_EXPIRATION ? uint48(block.timestamp) : expiration */\n      0x00\n        /* \"contracts/contracts/permit2/AllowanceTransfer.sol\":528:6194  contract AllowanceTransfer is IAllowanceTransfer, EIP712 {... */\n      eq\n      tag_300\n      jumpi\n        /* \"contracts/contracts/lib/Allowance.sol\":893:908  block.timestamp */\n      timestamp\n        /* \"contracts/contracts/permit2/AllowanceTransfer.sol\":528:6194  contract AllowanceTransfer is IAllowanceTransfer, EIP712 {... */\n      and\n        /* \"contracts/contracts/lib/Allowance.sol\":843:922  expiration == BLOCK_TIMESTAMP_EXPIRATION ? uint48(block.timestamp) : expiration */\n    tag_302:\n        /* \"contracts/contracts/permit2/AllowanceTransfer.sol\":528:6194  contract AllowanceTransfer is IAllowanceTransfer, EIP712 {... */\n      0x01\n      dup6\n      add\n      0xd0\n      shl\n      not(sub(shl(0xd0, 0x01), 0x01))\n      and\n      0xa0\n      swap2\n      swap1\n      swap2\n      shl\n      shl(0xa0, 0xffffffffffff)\n      and\n        /* \"contracts/contracts/lib/Allowance.sol\":1834:1886  (uint256(nonce) << 208) | uint256(expiration) << 160 */\n      or\n        /* \"contracts/contracts/lib/Allowance.sol\":1834:1895  (uint256(nonce) << 208) | uint256(expiration) << 160 | amount */\n      or\n        /* \"contracts/contracts/lib/Allowance.sol\":1001:1060  assembly {... */\n      swap1\n      sstore\n        /* \"contracts/contracts/permit2/AllowanceTransfer.sol\":528:6194  contract AllowanceTransfer is IAllowanceTransfer, EIP712 {... */\n      mload\n      sub(shl(0xa0, 0x01), 0x01)\n      swap1\n      swap4\n      and\n      dup4\n      mstore\n      0xffffffffffff\n      swap4\n      dup5\n      and\n      0x20\n      dup5\n      add\n      mstore\n      swap1\n      swap3\n      and\n      0x40\n      dup3\n      add\n      mstore\n      swap1\n      dup2\n      swap1\n      0x60\n      dup3\n      add\n      swap1\n      jump\n        /* \"contracts/contracts/permit2/AllowanceTransfer.sol\":6129:6185  Permit(owner, token, spender, amount, expiration, nonce) */\n    tag_299:\n      sub\n      swap1\n      log4\n        /* \"contracts/contracts/permit2/AllowanceTransfer.sol\":5662:6192  function _updateApproval(PermitDetails memory details, address owner, address spender) private {... */\n      jump\t// out\n        /* \"contracts/contracts/lib/Allowance.sol\":843:922  expiration == BLOCK_TIMESTAMP_EXPIRATION ? uint48(block.timestamp) : expiration */\n    tag_300:\n      pop\n      dup7\n      jump(tag_302)\n        /* \"contracts/contracts/permit2/AllowanceTransfer.sol\":6010:6059  if (allowed.nonce != nonce) revert InvalidNonce() */\n    tag_297:\n        /* \"contracts/contracts/permit2/AllowanceTransfer.sol\":528:6194  contract AllowanceTransfer is IAllowanceTransfer, EIP712 {... */\n      dup4\n      mload\n      shl(0xe1, 0x3ab3447f)\n        /* \"contracts/contracts/permit2/AllowanceTransfer.sol\":6045:6059  InvalidNonce() */\n      dup2\n      mstore\n      0x04\n      swap1\n      revert\n        /* \"contracts/contracts/permit2/EIP712.sol\":1186:1411  function DOMAIN_SEPARATOR() public view override returns (bytes32) {... */\n    tag_21:\n        /* \"contracts/contracts/permit2/EIP712.sol\":1270:1283  block.chainid */\n      chainid\n        /* \"contracts/contracts/permit2/EIP712.sol\":1287:1303  _CACHED_CHAIN_ID */\n      immutable(\"0x3ab4fb69c8e122442af87ae588015f836e7cde3029bbb6dab1983bc840231d63\")\n        /* \"contracts/contracts/permit2/EIP712.sol\":1270:1303  block.chainid == _CACHED_CHAIN_ID */\n      sub\n        /* \"contracts/contracts/permit2/EIP712.sol\":1287:1303  _CACHED_CHAIN_ID */\n      tag_303\n      jumpi\n        /* \"contracts/contracts/permit2/EIP712.sol\":1318:1342  _CACHED_DOMAIN_SEPARATOR */\n      immutable(\"0x4f4ac30ff8bfcef8cd1068d1427faf7fb52fa3a1610b1f430e1f69a91ebb9673\")\n        /* \"contracts/contracts/permit2/EIP712.sol\":1186:1411  function DOMAIN_SEPARATOR() public view override returns (bytes32) {... */\n      swap1\n      jump\t// out\n        /* \"contracts/contracts/permit2/EIP712.sol\":1270:1404  block.chainid == _CACHED_CHAIN_ID... */\n    tag_303:\n        /* \"contracts/contracts/permit2/AllowanceTransfer.sol\":528:6194  contract AllowanceTransfer is IAllowanceTransfer, EIP712 {... */\n      mload(0x40)\n        /* \"contracts/contracts/permit2/EIP712.sol\":1632:1692  abi.encode(typeHash, nameHash, block.chainid, address(this)) */\n      0x20\n      dup2\n      add\n        /* \"contracts/contracts/permit2/AllowanceTransfer.sol\":528:6194  contract AllowanceTransfer is IAllowanceTransfer, EIP712 {... */\n      swap1\n        /* \"contracts/contracts/permit2/EIP712.sol\":789:869  keccak256(\"EIP712Domain(string name,uint256 chainId,address verifyingContract)\") */\n      0x8cad95687ba82c2ce50e74f7b754645e5117c3a5bec8151c0726d5857980a866\n        /* \"contracts/contracts/permit2/AllowanceTransfer.sol\":528:6194  contract AllowanceTransfer is IAllowanceTransfer, EIP712 {... */\n      dup3\n      mstore\n        /* \"contracts/contracts/permit2/EIP712.sol\":717:737  keccak256(\"Permit2\") */\n      0x9ac997416e8ff9d2ff6bebeb7149f65cdae5e32e2b90440b566bb3044041d36a\n        /* \"contracts/contracts/permit2/AllowanceTransfer.sol\":528:6194  contract AllowanceTransfer is IAllowanceTransfer, EIP712 {... */\n      0x40\n      dup3\n      add\n      mstore\n        /* \"contracts/contracts/permit2/EIP712.sol\":1270:1283  block.chainid */\n      chainid\n        /* \"contracts/contracts/permit2/AllowanceTransfer.sol\":528:6194  contract AllowanceTransfer is IAllowanceTransfer, EIP712 {... */\n      0x60\n      dup3\n      add\n      mstore\n        /* \"contracts/contracts/permit2/EIP712.sol\":1686:1690  this */\n      address\n        /* \"contracts/contracts/permit2/AllowanceTransfer.sol\":528:6194  contract AllowanceTransfer is IAllowanceTransfer, EIP712 {... */\n      0x80\n      dup3\n      add\n      mstore\n      0x80\n        /* \"contracts/contracts/permit2/EIP712.sol\":1632:1692  abi.encode(typeHash, nameHash, block.chainid, address(this)) */\n      dup2\n      mstore\n      tag_306\n      dup2\n      tag_7\n      jump\t// in\n    tag_306:\n        /* \"contracts/contracts/lib/PermitHash.sol\":433:605  keccak256(... */\n      mload\n        /* \"contracts/contracts/permit2/EIP712.sol\":1622:1693  keccak256(abi.encode(typeHash, nameHash, block.chainid, address(this))) */\n      swap1\n      keccak256\n        /* \"contracts/contracts/permit2/EIP712.sol\":1186:1411  function DOMAIN_SEPARATOR() public view override returns (bytes32) {... */\n      swap1\n      jump\t// out\n        /* \"contracts/contracts/permit2/EIP712.sol\":1757:1924  function _hashTypedData(bytes32 dataHash) internal view returns (bytes32) {... */\n    tag_22:\n        /* \"contracts/contracts/permit2/EIP712.sol\":1887:1905  DOMAIN_SEPARATOR() */\n      tag_307\n      tag_21\n      jump\t// in\n    tag_307:\n        /* \"contracts/contracts/permit2/AllowanceTransfer.sol\":528:6194  contract AllowanceTransfer is IAllowanceTransfer, EIP712 {... */\n      swap1\n      mload(0x40)\n        /* \"contracts/contracts/permit2/EIP712.sol\":1858:1916  abi.encodePacked(\"\\x19\\x01\", DOMAIN_SEPARATOR(), dataHash) */\n      swap1\n      0x20\n      dup3\n      add\n        /* \"contracts/contracts/permit2/AllowanceTransfer.sol\":528:6194  contract AllowanceTransfer is IAllowanceTransfer, EIP712 {... */\n      swap3\n      shl(0xf0, 0x1901)\n      dup5\n      mstore\n      0x22\n      dup4\n      add\n      mstore\n      0x42\n      dup3\n      add\n      mstore\n      0x42\n        /* \"contracts/contracts/permit2/EIP712.sol\":1858:1916  abi.encodePacked(\"\\x19\\x01\", DOMAIN_SEPARATOR(), dataHash) */\n      dup2\n      mstore\n      tag_306\n      dup2\n      tag_5\n      jump\t// in\n\n    auxdata: 0xa2646970667358221220651a9c624904a85f2ed7970df3fe4219a9edc52ff166ba589dc83376eb00033364736f6c63430008140033\n}\n",
				"bytecode": {
					"linkReferences": {},
					"object": "60c0346100b9574660a052602081017f8cad95687ba82c2ce50e74f7b754645e5117c3a5bec8151c0726d5857980a86681527f9ac997416e8ff9d2ff6bebeb7149f65cdae5e32e2b90440b566bb3044041d36a60408301524660608301523060808301526080825260a082019180831060018060401b038411176100a557826040525190206080526110bc90816100be823960805181610fc3015260a05181610f9d0152f35b634e487b7160e01b5f52604160045260245ffd5b5f80fdfe60806040526004361015610011575f80fd5b5f3560e01c80630d58b1db146108845780632a2d80d1146105cf5780632b67b570146104535780633644e5151461043157806336c78516146103e957806365d9723c146102da57806387517c45146101fc578063927da1051461017c5763cc53287f1461007c575f80fd5b34610178576020806003193601126101785767ffffffffffffffff906004358281116101785736602382011215610178578060040135928311610178576024810190602436918560061b010111610178575f5b8381106100d857005b806100ee6100e96001938786610e6e565b610e7e565b610103856100fd848988610e6e565b01610e7e565b335f525f865260405f2091848060a01b0380911692835f52875260405f20911690815f52865260405f206bffffffffffffffffffffffff60a01b8154169055604051918252858201527f89b1add15eff56b3dfe299ad94e01f2b52fbcb80ae1a3baea6ae8c04cb2b98a460403392a2016100cf565b5f80fd5b3461017857606036600319011261017857610195610964565b61019d61097a565b6101a5610990565b6001600160a01b039283165f9081526020818152604080832094861683529381528382209285168252918252829020548251938116845265ffffffffffff60a082901c169184019190915260d01c90820152606090f35b3461017857608036600319011261017857610215610964565b61021d61097a565b90610226610990565b65ffffffffffff916064358381169182820361017857335f525f60205260405f209460018060a01b0380921695865f526020528160405f20971696875f5260205260405f209284155f146102d257504216905b8254941693849165ffffffffffff60a01b9060a01b169065ffffffffffff60d01b161717905560405191825260208201527fda9fa7c1b00402c17d0161b249b1ab8bbec047c5a52207b9c112deffd817036b60403392a4005b905090610279565b34610178576060366003190112610178576102f3610964565b6102fb61097a565b9060443565ffffffffffff8082169182810361017857335f526020905f825260405f209460018060a01b0380911695865f52835260405f20961695865f52825260405f205460d01c92838511156103d75761ffff9084830316116103c557335f525f825260405f20855f52825260405f20865f52825260405f209081549065ffffffffffff60d01b9060d01b169060018060d01b03161790556040519283528201527f55eb90d810e1700b35a8e7e25395ff7f2b2259abd7415ca2284dfb1c246418f360403392a4005b604051631269ad1360e11b8152600490fd5b604051633ab3447f60e11b8152600490fd5b3461017857608036600319011261017857610402610964565b61040a61097a565b610412610990565b606435916001600160a01b03831683036101785761042f93610d37565b005b34610178575f36600319011261017857602061044b610f9a565b604051908152f35b34610178576101003660031901126101785761046d610964565b36602319019060c082126101785760806040519261048a846109ea565b12610178576040519061049c826109ba565b6001600160a01b03916024358381168103610178578152604435838116810361017857602082015265ffffffffffff60643581811681036101785760408301526084359081168103610178576060820152835260a435918083168303610178576020840192835260c435936040810185815260e43567ffffffffffffffff81116101785761052e903690600401610a6f565b9190968042116105b7575061042f966105ad926105a787936105508751610a9d565b90888b511690516040519160208301937ff3841cd1ff0085026a6327b620b67997ce40f282c88a8e905a7a5626e310f3d085526040840152606083015260808201526080815261059f81610a06565b519020611055565b91610b3b565b5192511691610e92565b6024906040519063cd21db4f60e01b82526004820152fd5b3461017857600319606036820112610178576105e9610964565b906024359067ffffffffffffffff908183116101785760609083360301126101785760405191610618836109ea565b80600401358281116101785781013660238201121561017857600481013561063f81610a44565b9161064d6040519384610a22565b8183526024602084019260071b8201019036821161017857602401915b818310610822575050508352604490610685602482016109a6565b6020850152013590816040840152604435908111610178576106ab903690600401610a6f565b918042116105b7575083835151916106c283610a44565b926106d06040519485610a22565b808452601f196106df82610a44565b013660208601375f5b8181106107d557505060405160208101908160208651919601905f5b8181106107bc57505050610724816107879603601f198101835282610a22565b519020936105a760018060a01b03958660208901511660408901516040519160208301937faf1b0d30d2cab0380e68f0689007e3254993c596f2fdd0aaa7f4d04f7944086385526040840152606083015260808201526080815261059f81610a06565b60208201511690805151915f5b83811061079d57005b806107b683876107b06001958851610d23565b51610e92565b01610794565b825188526020978801978b975090920191600101610704565b90919392506107ee6107e8828851610d23565b51610a9d565b6107f88285610d23565b525f19811461080e5760010190869293916106e8565b634e487b7160e01b5f52601160045260245ffd5b60808336031261017857602060809160405161083d816109ba565b610846866109a6565b81526108538387016109a6565b8382015261086360408701610a5c565b604082015261087460608701610a5c565b606082015281520192019161066a565b34610178576020806003193601126101785767ffffffffffffffff6004358181116101785736602382011215610178578060040135918211610178576024906007368385831b84010111610178575f5b8481106108dd57005b80821b830190608060231983360301126101785761095e600192604051610903816109ba565b61090e8883016109a6565b808252606061091f604485016109a6565b92838d8201526109436084610936606488016109a6565b96876040850152016109a6565b9182910152868060a01b038080809316951693169116610d37565b016108d4565b600435906001600160a01b038216820361017857565b602435906001600160a01b038216820361017857565b604435906001600160a01b038216820361017857565b35906001600160a01b038216820361017857565b6080810190811067ffffffffffffffff8211176109d657604052565b634e487b7160e01b5f52604160045260245ffd5b6060810190811067ffffffffffffffff8211176109d657604052565b60a0810190811067ffffffffffffffff8211176109d657604052565b90601f8019910116810190811067ffffffffffffffff8211176109d657604052565b67ffffffffffffffff81116109d65760051b60200190565b359065ffffffffffff8216820361017857565b9181601f840112156101785782359167ffffffffffffffff8311610178576020838186019501011161017857565b60405160208101917f65626cad6cb96493bf6f5ebea28756c966f023ab9e8a83a7101849d5573b3678835260018060a01b038082511660408401526020820151166060830152606065ffffffffffff9182604082015116608085015201511660a082015260a0815260c0810181811067ffffffffffffffff8211176109d65760405251902090565b9190826040910312610178576020823592013590565b5f843b610c43575060418203610bf457610b5782820182610b25565b93909260401015610be0576020935f9360ff6040608095013560f81c5b60405194855216868401526040830152606082015282805260015afa15610bd5575f516001600160a01b03908116918215610bc3571603610bb157565b604051632057875960e21b8152600490fd5b604051638baa579f60e01b8152600490fd5b6040513d5f823e3d90fd5b634e487b7160e01b5f52603260045260245ffd5b60408203610c3157610c0891810190610b25565b6001600160ff1b0381169260ff91821c601b0191821161080e576020935f9360ff608094610b74565b604051634be6321b60e01b8152600490fd5b918093946020926064604051809781958294630b135d3f60e11b9b8c8552600485015260406024850152816044850152848401378181018301889052601f01601f191681010301916001600160a01b03165afa918215610d16578192610cc9575b50506001600160e01b03191603610cb757565b604051632c19a72f60e21b8152600490fd5b9091506020813d8211610d0e575b81610ce460209383610a22565b81010312610d0a5751906001600160e01b031982168203610d0757505f80610ca4565b80fd5b5080fd5b3d9150610cd7565b50604051903d90823e3d90fd5b8051821015610be05760209160051b010190565b909260018060a01b03809216905f9282845283602052604094818686209316928386526020528585203386526020528585209687549765ffffffffffff8960a01c16804211610e57575083891698848a03610e10575b505086975092828697928796946064966020999551966323b872dd60e01b885260048801521660248601521660448401525af19051600114601f3d11163d15171615610dd65750565b5162461bcd60e51b81526020600482015260146024820152731514905394d1915497d19493d357d1905253115160621b6044820152606490fd5b89858516115f14610e3357885163f96fb07160e01b8152600481018b9052602490fd5b6001600160a01b031916988390038416989098179097559495869590826020610d8d565b602490895190636c0d979760e11b82526004820152fd5b9190811015610be05760061b0190565b356001600160a01b03811681036101785790565b9065ffffffffffff908160608401511660018060a01b0390818551169482602082015116928086604080940151169516955f91878352826020528383208984526020528383209916988983526020528282209184835460d01c03610f89579185610f7d94927fc6a377bfc4eb120024a8ac08eef205be16b817020812c73223e81d1bdb9708ec989796945087155f14610f825742165b6001850160d01b6001600160d01b03191660a09190911b65ffffffffffff60a01b1617179055516001600160a01b03909316835265ffffffffffff938416602084015290921660408201529081906060820190565b0390a4565b5086610f28565b8351633ab3447f60e11b8152600490fd5b467f000000000000000000000000000000000000000000000000000000000000000003610fe5577f000000000000000000000000000000000000000000000000000000000000000090565b60405160208101907f8cad95687ba82c2ce50e74f7b754645e5117c3a5bec8151c0726d5857980a86682527f9ac997416e8ff9d2ff6bebeb7149f65cdae5e32e2b90440b566bb3044041d36a60408201524660608201523060808201526080815261104f81610a06565b51902090565b61105d610f9a565b9060405190602082019261190160f01b8452602283015260428201526042815261104f816109ba56fea2646970667358221220651a9c624904a85f2ed7970df3fe4219a9edc52ff166ba589dc83376eb00033364736f6c63430008140033",
					"opcodes": "PUSH1 0xC0 CALLVALUE PUSH2 0xB9 JUMPI CHAINID PUSH1 0xA0 MSTORE PUSH1 0x20 DUP2 ADD PUSH32 0x8CAD95687BA82C2CE50E74F7B754645E5117C3A5BEC8151C0726D5857980A866 DUP2 MSTORE PUSH32 0x9AC997416E8FF9D2FF6BEBEB7149F65CDAE5E32E2B90440B566BB3044041D36A PUSH1 0x40 DUP4 ADD MSTORE CHAINID PUSH1 0x60 DUP4 ADD MSTORE ADDRESS PUSH1 0x80 DUP4 ADD MSTORE PUSH1 0x80 DUP3 MSTORE PUSH1 0xA0 DUP3 ADD SWAP2 DUP1 DUP4 LT PUSH1 0x1 DUP1 PUSH1 0x40 SHL SUB DUP5 GT OR PUSH2 0xA5 JUMPI DUP3 PUSH1 0x40 MSTORE MLOAD SWAP1 KECCAK256 PUSH1 0x80 MSTORE PUSH2 0x10BC SWAP1 DUP2 PUSH2 0xBE DUP3 CODECOPY PUSH1 0x80 MLOAD DUP2 PUSH2 0xFC3 ADD MSTORE PUSH1 0xA0 MLOAD DUP2 PUSH2 0xF9D ADD MSTORE RETURN JUMPDEST PUSH4 0x4E487B71 PUSH1 0xE0 SHL PUSH0 MSTORE PUSH1 0x41 PUSH1 0x4 MSTORE PUSH1 0x24 PUSH0 REVERT JUMPDEST PUSH0 DUP1 REVERT INVALID PUSH1 0x80 PUSH1 0x40 MSTORE PUSH1 0x4 CALLDATASIZE LT ISZERO PUSH2 0x11 JUMPI PUSH0 DUP1 REVERT JUMPDEST PUSH0 CALLDATALOAD PUSH1 0xE0 SHR DUP1 PUSH4 0xD58B1DB EQ PUSH2 0x884 JUMPI DUP1 PUSH4 0x2A2D80D1 EQ PUSH2 0x5CF JUMPI DUP1 PUSH4 0x2B67B570 EQ PUSH2 0x453 JUMPI DUP1 PUSH4 0x3644E515 EQ PUSH2 0x431 JUMPI DUP1 PUSH4 0x36C78516 EQ PUSH2 0x3E9 JUMPI DUP1 PUSH4 0x65D9723C EQ PUSH2 0x2DA JUMPI DUP1 PUSH4 0x87517C45 EQ PUSH2 0x1FC JUMPI DUP1 PUSH4 0x927DA105 EQ PUSH2 0x17C JUMPI PUSH4 0xCC53287F EQ PUSH2 0x7C JUMPI PUSH0 DUP1 REVERT JUMPDEST CALLVALUE PUSH2 0x178 JUMPI PUSH1 0x20 DUP1 PUSH1 0x3 NOT CALLDATASIZE ADD SLT PUSH2 0x178 JUMPI PUSH8 0xFFFFFFFFFFFFFFFF SWAP1 PUSH1 0x4 CALLDATALOAD DUP3 DUP2 GT PUSH2 0x178 JUMPI CALLDATASIZE PUSH1 0x23 DUP3 ADD SLT ISZERO PUSH2 0x178 JUMPI DUP1 PUSH1 0x4 ADD CALLDATALOAD SWAP3 DUP4 GT PUSH2 0x178 JUMPI PUSH1 0x24 DUP2 ADD SWAP1 PUSH1 0x24 CALLDATASIZE SWAP2 DUP6 PUSH1 0x6 SHL ADD ADD GT PUSH2 0x178 JUMPI PUSH0 JUMPDEST DUP4 DUP2 LT PUSH2 0xD8 JUMPI STOP JUMPDEST DUP1 PUSH2 0xEE PUSH2 0xE9 PUSH1 0x1 SWAP4 DUP8 DUP7 PUSH2 0xE6E JUMP JUMPDEST PUSH2 0xE7E JUMP JUMPDEST PUSH2 0x103 DUP6 PUSH2 0xFD DUP5 DUP10 DUP9 PUSH2 0xE6E JUMP JUMPDEST ADD PUSH2 0xE7E JUMP JUMPDEST CALLER PUSH0 MSTORE PUSH0 DUP7 MSTORE PUSH1 0x40 PUSH0 KECCAK256 SWAP2 DUP5 DUP1 PUSH1 0xA0 SHL SUB DUP1 SWAP2 AND SWAP3 DUP4 PUSH0 MSTORE DUP8 MSTORE PUSH1 0x40 PUSH0 KECCAK256 SWAP2 AND SWAP1 DUP2 PUSH0 MSTORE DUP7 MSTORE PUSH1 0x40 PUSH0 KECCAK256 PUSH12 0xFFFFFFFFFFFFFFFFFFFFFFFF PUSH1 0xA0 SHL DUP2 SLOAD AND SWAP1 SSTORE PUSH1 0x40 MLOAD SWAP2 DUP3 MSTORE DUP6 DUP3 ADD MSTORE PUSH32 0x89B1ADD15EFF56B3DFE299AD94E01F2B52FBCB80AE1A3BAEA6AE8C04CB2B98A4 PUSH1 0x40 CALLER SWAP3 LOG2 ADD PUSH2 0xCF JUMP JUMPDEST PUSH0 DUP1 REVERT JUMPDEST CALLVALUE PUSH2 0x178 JUMPI PUSH1 0x60 CALLDATASIZE PUSH1 0x3 NOT ADD SLT PUSH2 0x178 JUMPI PUSH2 0x195 PUSH2 0x964 JUMP JUMPDEST PUSH2 0x19D PUSH2 0x97A JUMP JUMPDEST PUSH2 0x1A5 PUSH2 0x990 JUMP JUMPDEST PUSH1 0x1 PUSH1 0x1 PUSH1 0xA0 SHL SUB SWAP3 DUP4 AND PUSH0 SWAP1 DUP2 MSTORE PUSH1 0x20 DUP2 DUP2 MSTORE PUSH1 0x40 DUP1 DUP4 KECCAK256 SWAP5 DUP7 AND DUP4 MSTORE SWAP4 DUP2 MSTORE DUP4 DUP3 KECCAK256 SWAP3 DUP6 AND DUP3 MSTORE SWAP2 DUP3 MSTORE DUP3 SWAP1 KECCAK256 SLOAD DUP3 MLOAD SWAP4 DUP2 AND DUP5 MSTORE PUSH6 0xFFFFFFFFFFFF PUSH1 0xA0 DUP3 SWAP1 SHR AND SWAP2 DUP5 ADD SWAP2 SWAP1 SWAP2 MSTORE PUSH1 0xD0 SHR SWAP1 DUP3 ADD MSTORE PUSH1 0x60 SWAP1 RETURN JUMPDEST CALLVALUE PUSH2 0x178 JUMPI PUSH1 0x80 CALLDATASIZE PUSH1 0x3 NOT ADD SLT PUSH2 0x178 JUMPI PUSH2 0x215 PUSH2 0x964 JUMP JUMPDEST PUSH2 0x21D PUSH2 0x97A JUMP JUMPDEST SWAP1 PUSH2 0x226 PUSH2 0x990 JUMP JUMPDEST PUSH6 0xFFFFFFFFFFFF SWAP2 PUSH1 0x64 CALLDATALOAD DUP4 DUP2 AND SWAP2 DUP3 DUP3 SUB PUSH2 0x178 JUMPI CALLER PUSH0 MSTORE PUSH0 PUSH1 0x20 MSTORE PUSH1 0x40 PUSH0 KECCAK256 SWAP5 PUSH1 0x1 DUP1 PUSH1 0xA0 SHL SUB DUP1 SWAP3 AND SWAP6 DUP7 PUSH0 MSTORE PUSH1 0x20 MSTORE DUP2 PUSH1 0x40 PUSH0 KECCAK256 SWAP8 AND SWAP7 DUP8 PUSH0 MSTORE PUSH1 0x20 MSTORE PUSH1 0x40 PUSH0 KECCAK256 SWAP3 DUP5 ISZERO PUSH0 EQ PUSH2 0x2D2 JUMPI POP TIMESTAMP AND SWAP1 JUMPDEST DUP3 SLOAD SWAP5 AND SWAP4 DUP5 SWAP2 PUSH6 0xFFFFFFFFFFFF PUSH1 0xA0 SHL SWAP1 PUSH1 0xA0 SHL AND SWAP1 PUSH6 0xFFFFFFFFFFFF PUSH1 0xD0 SHL AND OR OR SWAP1 SSTORE PUSH1 0x40 MLOAD SWAP2 DUP3 MSTORE PUSH1 0x20 DUP3 ADD MSTORE PUSH32 0xDA9FA7C1B00402C17D0161B249B1AB8BBEC047C5A52207B9C112DEFFD817036B PUSH1 0x40 CALLER SWAP3 LOG4 STOP JUMPDEST SWAP1 POP SWAP1 PUSH2 0x279 JUMP JUMPDEST CALLVALUE PUSH2 0x178 JUMPI PUSH1 0x60 CALLDATASIZE PUSH1 0x3 NOT ADD SLT PUSH2 0x178 JUMPI PUSH2 0x2F3 PUSH2 0x964 JUMP JUMPDEST PUSH2 0x2FB PUSH2 0x97A JUMP JUMPDEST SWAP1 PUSH1 0x44 CALLDATALOAD PUSH6 0xFFFFFFFFFFFF DUP1 DUP3 AND SWAP2 DUP3 DUP2 SUB PUSH2 0x178 JUMPI CALLER PUSH0 MSTORE PUSH1 0x20 SWAP1 PUSH0 DUP3 MSTORE PUSH1 0x40 PUSH0 KECCAK256 SWAP5 PUSH1 0x1 DUP1 PUSH1 0xA0 SHL SUB DUP1 SWAP2 AND SWAP6 DUP7 PUSH0 MSTORE DUP4 MSTORE PUSH1 0x40 PUSH0 KECCAK256 SWAP7 AND SWAP6 DUP7 PUSH0 MSTORE DUP3 MSTORE PUSH1 0x40 PUSH0 KECCAK256 SLOAD PUSH1 0xD0 SHR SWAP3 DUP4 DUP6 GT ISZERO PUSH2 0x3D7 JUMPI PUSH2 0xFFFF SWAP1 DUP5 DUP4 SUB AND GT PUSH2 0x3C5 JUMPI CALLER PUSH0 MSTORE PUSH0 DUP3 MSTORE PUSH1 0x40 PUSH0 KECCAK256 DUP6 PUSH0 MSTORE DUP3 MSTORE PUSH1 0x40 PUSH0 KECCAK256 DUP7 PUSH0 MSTORE DUP3 MSTORE PUSH1 0x40 PUSH0 KECCAK256 SWAP1 DUP2 SLOAD SWAP1 PUSH6 0xFFFFFFFFFFFF PUSH1 0xD0 SHL SWAP1 PUSH1 0xD0 SHL AND SWAP1 PUSH1 0x1 DUP1 PUSH1 0xD0 SHL SUB AND OR SWAP1 SSTORE PUSH1 0x40 MLOAD SWAP3 DUP4 MSTORE DUP3 ADD MSTORE PUSH32 0x55EB90D810E1700B35A8E7E25395FF7F2B2259ABD7415CA2284DFB1C246418F3 PUSH1 0x40 CALLER SWAP3 LOG4 STOP JUMPDEST PUSH1 0x40 MLOAD PUSH4 0x1269AD13 PUSH1 0xE1 SHL DUP2 MSTORE PUSH1 0x4 SWAP1 REVERT JUMPDEST PUSH1 0x40 MLOAD PUSH4 0x3AB3447F PUSH1 0xE1 SHL DUP2 MSTORE PUSH1 0x4 SWAP1 REVERT JUMPDEST CALLVALUE PUSH2 0x178 JUMPI PUSH1 0x80 CALLDATASIZE PUSH1 0x3 NOT ADD SLT PUSH2 0x178 JUMPI PUSH2 0x402 PUSH2 0x964 JUMP JUMPDEST PUSH2 0x40A PUSH2 0x97A JUMP JUMPDEST PUSH2 0x412 PUSH2 0x990 JUMP JUMPDEST PUSH1 0x64 CALLDATALOAD SWAP2 PUSH1 0x1 PUSH1 0x1 PUSH1 0xA0 SHL SUB DUP4 AND DUP4 SUB PUSH2 0x178 JUMPI PUSH2 0x42F SWAP4 PUSH2 0xD37 JUMP JUMPDEST STOP JUMPDEST CALLVALUE PUSH2 0x178 JUMPI PUSH0 CALLDATASIZE PUSH1 0x3 NOT ADD SLT PUSH2 0x178 JUMPI PUSH1 0x20 PUSH2 0x44B PUSH2 0xF9A JUMP JUMPDEST PUSH1 0x40 MLOAD SWAP1 DUP2 MSTORE RETURN JUMPDEST CALLVALUE PUSH2 0x178 JUMPI PUSH2 0x100 CALLDATASIZE PUSH1 0x3 NOT ADD SLT PUSH2 0x178 JUMPI PUSH2 0x46D PUSH2 0x964 JUMP JUMPDEST CALLDATASIZE PUSH1 0x23 NOT ADD SWAP1 PUSH1 0xC0 DUP3 SLT PUSH2 0x178 JUMPI PUSH1 0x80 PUSH1 0x40 MLOAD SWAP3 PUSH2 0x48A DUP5 PUSH2 0x9EA JUMP JUMPDEST SLT PUSH2 0x178 JUMPI PUSH1 0x40 MLOAD SWAP1 PUSH2 0x49C DUP3 PUSH2 0x9BA JUMP JUMPDEST PUSH1 0x1 PUSH1 0x1 PUSH1 0xA0 SHL SUB SWAP2 PUSH1 0x24 CALLDATALOAD DUP4 DUP2 AND DUP2 SUB PUSH2 0x178 JUMPI DUP2 MSTORE PUSH1 0x44 CALLDATALOAD DUP4 DUP2 AND DUP2 SUB PUSH2 0x178 JUMPI PUSH1 0x20 DUP3 ADD MSTORE PUSH6 0xFFFFFFFFFFFF PUSH1 0x64 CALLDATALOAD DUP2 DUP2 AND DUP2 SUB PUSH2 0x178 JUMPI PUSH1 0x40 DUP4 ADD MSTORE PUSH1 0x84 CALLDATALOAD SWAP1 DUP2 AND DUP2 SUB PUSH2 0x178 JUMPI PUSH1 0x60 DUP3 ADD MSTORE DUP4 MSTORE PUSH1 0xA4 CALLDATALOAD SWAP2 DUP1 DUP4 AND DUP4 SUB PUSH2 0x178 JUMPI PUSH1 0x20 DUP5 ADD SWAP3 DUP4 MSTORE PUSH1 0xC4 CALLDATALOAD SWAP4 PUSH1 0x40 DUP2 ADD DUP6 DUP2 MSTORE PUSH1 0xE4 CALLDATALOAD PUSH8 0xFFFFFFFFFFFFFFFF DUP2 GT PUSH2 0x178 JUMPI PUSH2 0x52E SWAP1 CALLDATASIZE SWAP1 PUSH1 0x4 ADD PUSH2 0xA6F JUMP JUMPDEST SWAP2 SWAP1 SWAP7 DUP1 TIMESTAMP GT PUSH2 0x5B7 JUMPI POP PUSH2 0x42F SWAP7 PUSH2 0x5AD SWAP3 PUSH2 0x5A7 DUP8 SWAP4 PUSH2 0x550 DUP8 MLOAD PUSH2 0xA9D JUMP JUMPDEST SWAP1 DUP9 DUP12 MLOAD AND SWAP1 MLOAD PUSH1 0x40 MLOAD SWAP2 PUSH1 0x20 DUP4 ADD SWAP4 PUSH32 0xF3841CD1FF0085026A6327B620B67997CE40F282C88A8E905A7A5626E310F3D0 DUP6 MSTORE PUSH1 0x40 DUP5 ADD MSTORE PUSH1 0x60 DUP4 ADD MSTORE PUSH1 0x80 DUP3 ADD MSTORE PUSH1 0x80 DUP2 MSTORE PUSH2 0x59F DUP2 PUSH2 0xA06 JUMP JUMPDEST MLOAD SWAP1 KECCAK256 PUSH2 0x1055 JUMP JUMPDEST SWAP2 PUSH2 0xB3B JUMP JUMPDEST MLOAD SWAP3 MLOAD AND SWAP2 PUSH2 0xE92 JUMP JUMPDEST PUSH1 0x24 SWAP1 PUSH1 0x40 MLOAD SWAP1 PUSH4 0xCD21DB4F PUSH1 0xE0 SHL DUP3 MSTORE PUSH1 0x4 DUP3 ADD MSTORE REVERT JUMPDEST CALLVALUE PUSH2 0x178 JUMPI PUSH1 0x3 NOT PUSH1 0x60 CALLDATASIZE DUP3 ADD SLT PUSH2 0x178 JUMPI PUSH2 0x5E9 PUSH2 0x964 JUMP JUMPDEST SWAP1 PUSH1 0x24 CALLDATALOAD SWAP1 PUSH8 0xFFFFFFFFFFFFFFFF SWAP1 DUP2 DUP4 GT PUSH2 0x178 JUMPI PUSH1 0x60 SWAP1 DUP4 CALLDATASIZE SUB ADD SLT PUSH2 0x178 JUMPI PUSH1 0x40 MLOAD SWAP2 PUSH2 0x618 DUP4 PUSH2 0x9EA JUMP JUMPDEST DUP1 PUSH1 0x4 ADD CALLDATALOAD DUP3 DUP2 GT PUSH2 0x178 JUMPI DUP2 ADD CALLDATASIZE PUSH1 0x23 DUP3 ADD SLT ISZERO PUSH2 0x178 JUMPI PUSH1 0x4 DUP2 ADD CALLDATALOAD PUSH2 0x63F DUP2 PUSH2 0xA44 JUMP JUMPDEST SWAP2 PUSH2 0x64D PUSH1 0x40 MLOAD SWAP4 DUP5 PUSH2 0xA22 JUMP JUMPDEST DUP2 DUP4 MSTORE PUSH1 0x24 PUSH1 0x20 DUP5 ADD SWAP3 PUSH1 0x7 SHL DUP3 ADD ADD SWAP1 CALLDATASIZE DUP3 GT PUSH2 0x178 JUMPI PUSH1 0x24 ADD SWAP2 JUMPDEST DUP2 DUP4 LT PUSH2 0x822 JUMPI POP POP POP DUP4 MSTORE PUSH1 0x44 SWAP1 PUSH2 0x685 PUSH1 0x24 DUP3 ADD PUSH2 0x9A6 JUMP JUMPDEST PUSH1 0x20 DUP6 ADD MSTORE ADD CALLDATALOAD SWAP1 DUP2 PUSH1 0x40 DUP5 ADD MSTORE PUSH1 0x44 CALLDATALOAD SWAP1 DUP2 GT PUSH2 0x178 JUMPI PUSH2 0x6AB SWAP1 CALLDATASIZE SWAP1 PUSH1 0x4 ADD PUSH2 0xA6F JUMP JUMPDEST SWAP2 DUP1 TIMESTAMP GT PUSH2 0x5B7 JUMPI POP DUP4 DUP4 MLOAD MLOAD SWAP2 PUSH2 0x6C2 DUP4 PUSH2 0xA44 JUMP JUMPDEST SWAP3 PUSH2 0x6D0 PUSH1 0x40 MLOAD SWAP5 DUP6 PUSH2 0xA22 JUMP JUMPDEST DUP1 DUP5 MSTORE PUSH1 0x1F NOT PUSH2 0x6DF DUP3 PUSH2 0xA44 JUMP JUMPDEST ADD CALLDATASIZE PUSH1 0x20 DUP7 ADD CALLDATACOPY PUSH0 JUMPDEST DUP2 DUP2 LT PUSH2 0x7D5 JUMPI POP POP PUSH1 0x40 MLOAD PUSH1 0x20 DUP2 ADD SWAP1 DUP2 PUSH1 0x20 DUP7 MLOAD SWAP2 SWAP7 ADD SWAP1 PUSH0 JUMPDEST DUP2 DUP2 LT PUSH2 0x7BC JUMPI POP POP POP PUSH2 0x724 DUP2 PUSH2 0x787 SWAP7 SUB PUSH1 0x1F NOT DUP2 ADD DUP4 MSTORE DUP3 PUSH2 0xA22 JUMP JUMPDEST MLOAD SWAP1 KECCAK256 SWAP4 PUSH2 0x5A7 PUSH1 0x1 DUP1 PUSH1 0xA0 SHL SUB SWAP6 DUP7 PUSH1 0x20 DUP10 ADD MLOAD AND PUSH1 0x40 DUP10 ADD MLOAD PUSH1 0x40 MLOAD SWAP2 PUSH1 0x20 DUP4 ADD SWAP4 PUSH32 0xAF1B0D30D2CAB0380E68F0689007E3254993C596F2FDD0AAA7F4D04F79440863 DUP6 MSTORE PUSH1 0x40 DUP5 ADD MSTORE PUSH1 0x60 DUP4 ADD MSTORE PUSH1 0x80 DUP3 ADD MSTORE PUSH1 0x80 DUP2 MSTORE PUSH2 0x59F DUP2 PUSH2 0xA06 JUMP JUMPDEST PUSH1 0x20 DUP3 ADD MLOAD AND SWAP1 DUP1 MLOAD MLOAD SWAP2 PUSH0 JUMPDEST DUP4 DUP2 LT PUSH2 0x79D JUMPI STOP JUMPDEST DUP1 PUSH2 0x7B6 DUP4 DUP8 PUSH2 0x7B0 PUSH1 0x1 SWAP6 DUP9 MLOAD PUSH2 0xD23 JUMP JUMPDEST MLOAD PUSH2 0xE92 JUMP JUMPDEST ADD PUSH2 0x794 JUMP JUMPDEST DUP3 MLOAD DUP9 MSTORE PUSH1 0x20 SWAP8 DUP9 ADD SWAP8 DUP12 SWAP8 POP SWAP1 SWAP3 ADD SWAP2 PUSH1 0x1 ADD PUSH2 0x704 JUMP JUMPDEST SWAP1 SWAP2 SWAP4 SWAP3 POP PUSH2 0x7EE PUSH2 0x7E8 DUP3 DUP9 MLOAD PUSH2 0xD23 JUMP JUMPDEST MLOAD PUSH2 0xA9D JUMP JUMPDEST PUSH2 0x7F8 DUP3 DUP6 PUSH2 0xD23 JUMP JUMPDEST MSTORE PUSH0 NOT DUP2 EQ PUSH2 0x80E JUMPI PUSH1 0x1 ADD SWAP1 DUP7 SWAP3 SWAP4 SWAP2 PUSH2 0x6E8 JUMP JUMPDEST PUSH4 0x4E487B71 PUSH1 0xE0 SHL PUSH0 MSTORE PUSH1 0x11 PUSH1 0x4 MSTORE PUSH1 0x24 PUSH0 REVERT JUMPDEST PUSH1 0x80 DUP4 CALLDATASIZE SUB SLT PUSH2 0x178 JUMPI PUSH1 0x20 PUSH1 0x80 SWAP2 PUSH1 0x40 MLOAD PUSH2 0x83D DUP2 PUSH2 0x9BA JUMP JUMPDEST PUSH2 0x846 DUP7 PUSH2 0x9A6 JUMP JUMPDEST DUP2 MSTORE PUSH2 0x853 DUP4 DUP8 ADD PUSH2 0x9A6 JUMP JUMPDEST DUP4 DUP3 ADD MSTORE PUSH2 0x863 PUSH1 0x40 DUP8 ADD PUSH2 0xA5C JUMP JUMPDEST PUSH1 0x40 DUP3 ADD MSTORE PUSH2 0x874 PUSH1 0x60 DUP8 ADD PUSH2 0xA5C JUMP JUMPDEST PUSH1 0x60 DUP3 ADD MSTORE DUP2 MSTORE ADD SWAP3 ADD SWAP2 PUSH2 0x66A JUMP JUMPDEST CALLVALUE PUSH2 0x178 JUMPI PUSH1 0x20 DUP1 PUSH1 0x3 NOT CALLDATASIZE ADD SLT PUSH2 0x178 JUMPI PUSH8 0xFFFFFFFFFFFFFFFF PUSH1 0x4 CALLDATALOAD DUP2 DUP2 GT PUSH2 0x178 JUMPI CALLDATASIZE PUSH1 0x23 DUP3 ADD SLT ISZERO PUSH2 0x178 JUMPI DUP1 PUSH1 0x4 ADD CALLDATALOAD SWAP2 DUP3 GT PUSH2 0x178 JUMPI PUSH1 0x24 SWAP1 PUSH1 0x7 CALLDATASIZE DUP4 DUP6 DUP4 SHL DUP5 ADD ADD GT PUSH2 0x178 JUMPI PUSH0 JUMPDEST DUP5 DUP2 LT PUSH2 0x8DD JUMPI STOP JUMPDEST DUP1 DUP3 SHL DUP4 ADD SWAP1 PUSH1 0x80 PUSH1 0x23 NOT DUP4 CALLDATASIZE SUB ADD SLT PUSH2 0x178 JUMPI PUSH2 0x95E PUSH1 0x1 SWAP3 PUSH1 0x40 MLOAD PUSH2 0x903 DUP2 PUSH2 0x9BA JUMP JUMPDEST PUSH2 0x90E DUP9 DUP4 ADD PUSH2 0x9A6 JUMP JUMPDEST DUP1 DUP3 MSTORE PUSH1 0x60 PUSH2 0x91F PUSH1 0x44 DUP6 ADD PUSH2 0x9A6 JUMP JUMPDEST SWAP3 DUP4 DUP14 DUP3 ADD MSTORE PUSH2 0x943 PUSH1 0x84 PUSH2 0x936 PUSH1 0x64 DUP9 ADD PUSH2 0x9A6 JUMP JUMPDEST SWAP7 DUP8 PUSH1 0x40 DUP6 ADD MSTORE ADD PUSH2 0x9A6 JUMP JUMPDEST SWAP2 DUP3 SWAP2 ADD MSTORE DUP7 DUP1 PUSH1 0xA0 SHL SUB DUP1 DUP1 DUP1 SWAP4 AND SWAP6 AND SWAP4 AND SWAP2 AND PUSH2 0xD37 JUMP JUMPDEST ADD PUSH2 0x8D4 JUMP JUMPDEST PUSH1 0x4 CALLDATALOAD SWAP1 PUSH1 0x1 PUSH1 0x1 PUSH1 0xA0 SHL SUB DUP3 AND DUP3 SUB PUSH2 0x178 JUMPI JUMP JUMPDEST PUSH1 0x24 CALLDATALOAD SWAP1 PUSH1 0x1 PUSH1 0x1 PUSH1 0xA0 SHL SUB DUP3 AND DUP3 SUB PUSH2 0x178 JUMPI JUMP JUMPDEST PUSH1 0x44 CALLDATALOAD SWAP1 PUSH1 0x1 PUSH1 0x1 PUSH1 0xA0 SHL SUB DUP3 AND DUP3 SUB PUSH2 0x178 JUMPI JUMP JUMPDEST CALLDATALOAD SWAP1 PUSH1 0x1 PUSH1 0x1 PUSH1 0xA0 SHL SUB DUP3 AND DUP3 SUB PUSH2 0x178 JUMPI JUMP JUMPDEST PUSH1 0x80 DUP2 ADD SWAP1 DUP2 LT PUSH8 0xFFFFFFFFFFFFFFFF DUP3 GT OR PUSH2 0x9D6 JUMPI PUSH1 0x40 MSTORE JUMP JUMPDEST PUSH4 0x4E487B71 PUSH1 0xE0 SHL PUSH0 MSTORE PUSH1 0x41 PUSH1 0x4 MSTORE PUSH1 0x24 PUSH0 REVERT JUMPDEST PUSH1 0x60 DUP2 ADD SWAP1 DUP2 LT PUSH8 0xFFFFFFFFFFFFFFFF DUP3 GT OR PUSH2 0x9D6 JUMPI PUSH1 0x40 MSTORE JUMP JUMPDEST PUSH1 0xA0 DUP2 ADD SWAP1 DUP2 LT PUSH8 0xFFFFFFFFFFFFFFFF DUP3 GT OR PUSH2 0x9D6 JUMPI PUSH1 0x40 MSTORE JUMP JUMPDEST SWAP1 PUSH1 0x1F DUP1 NOT SWAP2 ADD AND DUP2 ADD SWAP1 DUP2 LT PUSH8 0xFFFFFFFFFFFFFFFF DUP3 GT OR PUSH2 0x9D6 JUMPI PUSH1 0x40 MSTORE JUMP JUMPDEST PUSH8 0xFFFFFFFFFFFFFFFF DUP2 GT PUSH2 0x9D6 JUMPI PUSH1 0x5 SHL PUSH1 0x20 ADD SWAP1 JUMP JUMPDEST CALLDATALOAD SWAP1 PUSH6 0xFFFFFFFFFFFF DUP3 AND DUP3 SUB PUSH2 0x178 JUMPI JUMP JUMPDEST SWAP2 DUP2 PUSH1 0x1F DUP5 ADD SLT ISZERO PUSH2 0x178 JUMPI DUP3 CALLDATALOAD SWAP2 PUSH8 0xFFFFFFFFFFFFFFFF DUP4 GT PUSH2 0x178 JUMPI PUSH1 0x20 DUP4 DUP2 DUP7 ADD SWAP6 ADD ADD GT PUSH2 0x178 JUMPI JUMP JUMPDEST PUSH1 0x40 MLOAD PUSH1 0x20 DUP2 ADD SWAP2 PUSH32 0x65626CAD6CB96493BF6F5EBEA28756C966F023AB9E8A83A7101849D5573B3678 DUP4 MSTORE PUSH1 0x1 DUP1 PUSH1 0xA0 SHL SUB DUP1 DUP3 MLOAD AND PUSH1 0x40 DUP5 ADD MSTORE PUSH1 0x20 DUP3 ADD MLOAD AND PUSH1 0x60 DUP4 ADD MSTORE PUSH1 0x60 PUSH6 0xFFFFFFFFFFFF SWAP2 DUP3 PUSH1 0x40 DUP3 ADD MLOAD AND PUSH1 0x80 DUP6 ADD MSTORE ADD MLOAD AND PUSH1 0xA0 DUP3 ADD MSTORE PUSH1 0xA0 DUP2 MSTORE PUSH1 0xC0 DUP2 ADD DUP2 DUP2 LT PUSH8 0xFFFFFFFFFFFFFFFF DUP3 GT OR PUSH2 0x9D6 JUMPI PUSH1 0x40 MSTORE MLOAD SWAP1 KECCAK256 SWAP1 JUMP JUMPDEST SWAP2 SWAP1 DUP3 PUSH1 0x40 SWAP2 SUB SLT PUSH2 0x178 JUMPI PUSH1 0x20 DUP3 CALLDATALOAD SWAP3 ADD CALLDATALOAD SWAP1 JUMP JUMPDEST PUSH0 DUP5 EXTCODESIZE PUSH2 0xC43 JUMPI POP PUSH1 0x41 DUP3 SUB PUSH2 0xBF4 JUMPI PUSH2 0xB57 DUP3 DUP3 ADD DUP3 PUSH2 0xB25 JUMP JUMPDEST SWAP4 SWAP1 SWAP3 PUSH1 0x40 LT ISZERO PUSH2 0xBE0 JUMPI PUSH1 0x20 SWAP4 PUSH0 SWAP4 PUSH1 0xFF PUSH1 0x40 PUSH1 0x80 SWAP6 ADD CALLDATALOAD PUSH1 0xF8 SHR JUMPDEST PUSH1 0x40 MLOAD SWAP5 DUP6 MSTORE AND DUP7 DUP5 ADD MSTORE PUSH1 0x40 DUP4 ADD MSTORE PUSH1 0x60 DUP3 ADD MSTORE DUP3 DUP1 MSTORE PUSH1 0x1 GAS STATICCALL ISZERO PUSH2 0xBD5 JUMPI PUSH0 MLOAD PUSH1 0x1 PUSH1 0x1 PUSH1 0xA0 SHL SUB SWAP1 DUP2 AND SWAP2 DUP3 ISZERO PUSH2 0xBC3 JUMPI AND SUB PUSH2 0xBB1 JUMPI JUMP JUMPDEST PUSH1 0x40 MLOAD PUSH4 0x20578759 PUSH1 0xE2 SHL DUP2 MSTORE PUSH1 0x4 SWAP1 REVERT JUMPDEST PUSH1 0x40 MLOAD PUSH4 0x8BAA579F PUSH1 0xE0 SHL DUP2 MSTORE PUSH1 0x4 SWAP1 REVERT JUMPDEST PUSH1 0x40 MLOAD RETURNDATASIZE PUSH0 DUP3 RETURNDATACOPY RETURNDATASIZE SWAP1 REVERT JUMPDEST PUSH4 0x4E487B71 PUSH1 0xE0 SHL PUSH0 MSTORE PUSH1 0x32 PUSH1 0x4 MSTORE PUSH1 0x24 PUSH0 REVERT JUMPDEST PUSH1 0x40 DUP3 SUB PUSH2 0xC31 JUMPI PUSH2 0xC08 SWAP2 DUP2 ADD SWAP1 PUSH2 0xB25 JUMP JUMPDEST PUSH1 0x1 PUSH1 0x1 PUSH1 0xFF SHL SUB DUP2 AND SWAP3 PUSH1 0xFF SWAP2 DUP3 SHR PUSH1 0x1B ADD SWAP2 DUP3 GT PUSH2 0x80E JUMPI PUSH1 0x20 SWAP4 PUSH0 SWAP4 PUSH1 0xFF PUSH1 0x80 SWAP5 PUSH2 0xB74 JUMP JUMPDEST PUSH1 0x40 MLOAD PUSH4 0x4BE6321B PUSH1 0xE0 SHL DUP2 MSTORE PUSH1 0x4 SWAP1 REVERT JUMPDEST SWAP2 DUP1 SWAP4 SWAP5 PUSH1 0x20 SWAP3 PUSH1 0x64 PUSH1 0x40 MLOAD DUP1 SWAP8 DUP2 SWAP6 DUP3 SWAP5 PUSH4 0xB135D3F PUSH1 0xE1 SHL SWAP12 DUP13 DUP6 MSTORE PUSH1 0x4 DUP6 ADD MSTORE PUSH1 0x40 PUSH1 0x24 DUP6 ADD MSTORE DUP2 PUSH1 0x44 DUP6 ADD MSTORE DUP5 DUP5 ADD CALLDATACOPY DUP2 DUP2 ADD DUP4 ADD DUP9 SWAP1 MSTORE PUSH1 0x1F ADD PUSH1 0x1F NOT AND DUP2 ADD SUB ADD SWAP2 PUSH1 0x1 PUSH1 0x1 PUSH1 0xA0 SHL SUB AND GAS STATICCALL SWAP2 DUP3 ISZERO PUSH2 0xD16 JUMPI DUP2 SWAP3 PUSH2 0xCC9 JUMPI JUMPDEST POP POP PUSH1 0x1 PUSH1 0x1 PUSH1 0xE0 SHL SUB NOT AND SUB PUSH2 0xCB7 JUMPI JUMP JUMPDEST PUSH1 0x40 MLOAD PUSH4 0x2C19A72F PUSH1 0xE2 SHL DUP2 MSTORE PUSH1 0x4 SWAP1 REVERT JUMPDEST SWAP1 SWAP2 POP PUSH1 0x20 DUP2 RETURNDATASIZE DUP3 GT PUSH2 0xD0E JUMPI JUMPDEST DUP2 PUSH2 0xCE4 PUSH1 0x20 SWAP4 DUP4 PUSH2 0xA22 JUMP JUMPDEST DUP2 ADD SUB SLT PUSH2 0xD0A JUMPI MLOAD SWAP1 PUSH1 0x1 PUSH1 0x1 PUSH1 0xE0 SHL SUB NOT DUP3 AND DUP3 SUB PUSH2 0xD07 JUMPI POP PUSH0 DUP1 PUSH2 0xCA4 JUMP JUMPDEST DUP1 REVERT JUMPDEST POP DUP1 REVERT JUMPDEST RETURNDATASIZE SWAP2 POP PUSH2 0xCD7 JUMP JUMPDEST POP PUSH1 0x40 MLOAD SWAP1 RETURNDATASIZE SWAP1 DUP3 RETURNDATACOPY RETURNDATASIZE SWAP1 REVERT JUMPDEST DUP1 MLOAD DUP3 LT ISZERO PUSH2 0xBE0 JUMPI PUSH1 0x20 SWAP2 PUSH1 0x5 SHL ADD ADD SWAP1 JUMP JUMPDEST SWAP1 SWAP3 PUSH1 0x1 DUP1 PUSH1 0xA0 SHL SUB DUP1 SWAP3 AND SWAP1 PUSH0 SWAP3 DUP3 DUP5 MSTORE DUP4 PUSH1 0x20 MSTORE PUSH1 0x40 SWAP5 DUP2 DUP7 DUP7 KECCAK256 SWAP4 AND SWAP3 DUP4 DUP7 MSTORE PUSH1 0x20 MSTORE DUP6 DUP6 KECCAK256 CALLER DUP7 MSTORE PUSH1 0x20 MSTORE DUP6 DUP6 KECCAK256 SWAP7 DUP8 SLOAD SWAP8 PUSH6 0xFFFFFFFFFFFF DUP10 PUSH1 0xA0 SHR AND DUP1 TIMESTAMP GT PUSH2 0xE57 JUMPI POP DUP4 DUP10 AND SWAP9 DUP5 DUP11 SUB PUSH2 0xE10 JUMPI JUMPDEST POP POP DUP7 SWAP8 POP SWAP3 DUP3 DUP7 SWAP8 SWAP3 DUP8 SWAP7 SWAP5 PUSH1 0x64 SWAP7 PUSH1 0x20 SWAP10 SWAP6 MLOAD SWAP7 PUSH4 0x23B872DD PUSH1 0xE0 SHL DUP9 MSTORE PUSH1 0x4 DUP9 ADD MSTORE AND PUSH1 0x24 DUP7 ADD MSTORE AND PUSH1 0x44 DUP5 ADD MSTORE GAS CALL SWAP1 MLOAD PUSH1 0x1 EQ PUSH1 0x1F RETURNDATASIZE GT AND RETURNDATASIZE ISZERO OR AND ISZERO PUSH2 0xDD6 JUMPI POP JUMP JUMPDEST MLOAD PUSH3 0x461BCD PUSH1 0xE5 SHL DUP2 MSTORE PUSH1 0x20 PUSH1 0x4 DUP3 ADD MSTORE PUSH1 0x14 PUSH1 0x24 DUP3 ADD MSTORE PUSH20 0x1514905394D1915497D19493D357D19052531151 PUSH1 0x62 SHL PUSH1 0x44 DUP3 ADD MSTORE PUSH1 0x64 SWAP1 REVERT JUMPDEST DUP10 DUP6 DUP6 AND GT PUSH0 EQ PUSH2 0xE33 JUMPI DUP9 MLOAD PUSH4 0xF96FB071 PUSH1 0xE0 SHL DUP2 MSTORE PUSH1 0x4 DUP2 ADD DUP12 SWAP1 MSTORE PUSH1 0x24 SWAP1 REVERT JUMPDEST PUSH1 0x1 PUSH1 0x1 PUSH1 0xA0 SHL SUB NOT AND SWAP9 DUP4 SWAP1 SUB DUP5 AND SWAP9 SWAP1 SWAP9 OR SWAP1 SWAP8 SSTORE SWAP5 SWAP6 DUP7 SWAP6 SWAP1 DUP3 PUSH1 0x20 PUSH2 0xD8D JUMP JUMPDEST PUSH1 0x24 SWAP1 DUP10 MLOAD SWAP1 PUSH4 0x6C0D9797 PUSH1 0xE1 SHL DUP3 MSTORE PUSH1 0x4 DUP3 ADD MSTORE REVERT JUMPDEST SWAP2 SWAP1 DUP2 LT ISZERO PUSH2 0xBE0 JUMPI PUSH1 0x6 SHL ADD SWAP1 JUMP JUMPDEST CALLDATALOAD PUSH1 0x1 PUSH1 0x1 PUSH1 0xA0 SHL SUB DUP2 AND DUP2 SUB PUSH2 0x178 JUMPI SWAP1 JUMP JUMPDEST SWAP1 PUSH6 0xFFFFFFFFFFFF SWAP1 DUP2 PUSH1 0x60 DUP5 ADD MLOAD AND PUSH1 0x1 DUP1 PUSH1 0xA0 SHL SUB SWAP1 DUP2 DUP6 MLOAD AND SWAP5 DUP3 PUSH1 0x20 DUP3 ADD MLOAD AND SWAP3 DUP1 DUP7 PUSH1 0x40 DUP1 SWAP5 ADD MLOAD AND SWAP6 AND SWAP6 PUSH0 SWAP2 DUP8 DUP4 MSTORE DUP3 PUSH1 0x20 MSTORE DUP4 DUP4 KECCAK256 DUP10 DUP5 MSTORE PUSH1 0x20 MSTORE DUP4 DUP4 KECCAK256 SWAP10 AND SWAP9 DUP10 DUP4 MSTORE PUSH1 0x20 MSTORE DUP3 DUP3 KECCAK256 SWAP2 DUP5 DUP4 SLOAD PUSH1 0xD0 SHR SUB PUSH2 0xF89 JUMPI SWAP2 DUP6 PUSH2 0xF7D SWAP5 SWAP3 PUSH32 0xC6A377BFC4EB120024A8AC08EEF205BE16B817020812C73223E81D1BDB9708EC SWAP9 SWAP8 SWAP7 SWAP5 POP DUP8 ISZERO PUSH0 EQ PUSH2 0xF82 JUMPI TIMESTAMP AND JUMPDEST PUSH1 0x1 DUP6 ADD PUSH1 0xD0 SHL PUSH1 0x1 PUSH1 0x1 PUSH1 0xD0 SHL SUB NOT AND PUSH1 0xA0 SWAP2 SWAP1 SWAP2 SHL PUSH6 0xFFFFFFFFFFFF PUSH1 0xA0 SHL AND OR OR SWAP1 SSTORE MLOAD PUSH1 0x1 PUSH1 0x1 PUSH1 0xA0 SHL SUB SWAP1 SWAP4 AND DUP4 MSTORE PUSH6 0xFFFFFFFFFFFF SWAP4 DUP5 AND PUSH1 0x20 DUP5 ADD MSTORE SWAP1 SWAP3 AND PUSH1 0x40 DUP3 ADD MSTORE SWAP1 DUP2 SWAP1 PUSH1 0x60 DUP3 ADD SWAP1 JUMP JUMPDEST SUB SWAP1 LOG4 JUMP JUMPDEST POP DUP7 PUSH2 0xF28 JUMP JUMPDEST DUP4 MLOAD PUSH4 0x3AB3447F PUSH1 0xE1 SHL DUP2 MSTORE PUSH1 0x4 SWAP1 REVERT JUMPDEST CHAINID PUSH32 0x0 SUB PUSH2 0xFE5 JUMPI PUSH32 0x0 SWAP1 JUMP JUMPDEST PUSH1 0x40 MLOAD PUSH1 0x20 DUP2 ADD SWAP1 PUSH32 0x8CAD95687BA82C2CE50E74F7B754645E5117C3A5BEC8151C0726D5857980A866 DUP3 MSTORE PUSH32 0x9AC997416E8FF9D2FF6BEBEB7149F65CDAE5E32E2B90440B566BB3044041D36A PUSH1 0x40 DUP3 ADD MSTORE CHAINID PUSH1 0x60 DUP3 ADD MSTORE ADDRESS PUSH1 0x80 DUP3 ADD MSTORE PUSH1 0x80 DUP2 MSTORE PUSH2 0x104F DUP2 PUSH2 0xA06 JUMP JUMPDEST MLOAD SWAP1 KECCAK256 SWAP1 JUMP JUMPDEST PUSH2 0x105D PUSH2 0xF9A JUMP JUMPDEST SWAP1 PUSH1 0x40 MLOAD SWAP1 PUSH1 0x20 DUP3 ADD SWAP3 PUSH2 0x1901 PUSH1 0xF0 SHL DUP5 MSTORE PUSH1 0x22 DUP4 ADD MSTORE PUSH1 0x42 DUP3 ADD MSTORE PUSH1 0x42 DUP2 MSTORE PUSH2 0x104F DUP2 PUSH2 0x9BA JUMP INVALID LOG2 PUSH5 0x6970667358 0x22 SLT KECCAK256 PUSH6 0x1A9C624904A8 PUSH0 0x2E 0xD7 SWAP8 0xD RETURN INVALID TIMESTAMP NOT 0xA9 0xED 0xC5 0x2F CALL PUSH7 0xBA589DC83376EB STOP SUB CALLER PUSH5 0x736F6C6343 STOP ADDMOD EQ STOP CALLER "
				},
				"gasEstimates": {
					"creation": {
						"codeDepositCost": "856800",
						"executionCost": "infinite",
						"totalCost": "infinite"
					},
					"external": {
						"DOMAIN_SEPARATOR()": "infinite",
						"allowance(address,address,address)": "2933",
						"approve(address,address,uint160,uint48)": "27493",
						"invalidateNonces(address,address,uint48)": "29693",
						"lockdown((address,address)[])": "infinite",
						"permit(address,((address,uint160,uint48,uint48),address,uint256),bytes)": "infinite",
						"permit(address,((address,uint160,uint48,uint48)[],address,uint256),bytes)": "infinite",
						"transferFrom((address,address,uint160,address)[])": "infinite",
						"transferFrom(address,address,uint160,address)": "infinite"
					},
					"internal": {
						"_transfer(address,address,uint160,address)": "infinite",
						"_updateApproval(struct IAllowanceTransfer.PermitDetails memory,address,address)": "infinite"
					}
				},
				"methodIdentifiers": {
					"DOMAIN_SEPARATOR()": "3644e515",
					"allowance(address,address,address)": "927da105",
					"approve(address,address,uint160,uint48)": "87517c45",
					"invalidateNonces(address,address,uint48)": "65d9723c",
					"lockdown((address,address)[])": "cc53287f",
					"permit(address,((address,uint160,uint48,uint48),address,uint256),bytes)": "2b67b570",
					"permit(address,((address,uint160,uint48,uint48)[],address,uint256),bytes)": "2a2d80d1",
					"transferFrom((address,address,uint160,address)[])": "0d58b1db",
					"transferFrom(address,address,uint160,address)": "36c78516"
				}
			},
			"storageLayout": {
				"storage": [
					{
						"astId": 1112,
						"contract": "contracts/contracts/permit2/AllowanceTransfer.sol:AllowanceTransfer",
						"label": "allowance",
						"offset": 0,
						"slot": "0",
						"type": "t_mapping(t_address,t_mapping(t_address,t_mapping(t_address,t_struct(PackedAllowance)106_storage)))"
					}
				],
				"types": {
					"t_address": {
						"encoding": "inplace",
						"label": "address",
						"numberOfBytes": "20"
					},
					"t_mapping(t_address,t_mapping(t_address,t_mapping(t_address,t_struct(PackedAllowance)106_storage)))": {
						"encoding": "mapping",
						"key": "t_address",
						"label": "mapping(address => mapping(address => mapping(address => struct IAllowanceTransfer.PackedAllowance)))",
						"numberOfBytes": "32",
						"value": "t_mapping(t_address,t_mapping(t_address,t_struct(PackedAllowance)106_storage))"
					},
					"t_mapping(t_address,t_mapping(t_address,t_struct(PackedAllowance)106_storage))": {
						"encoding": "mapping",
						"key": "t_address",
						"label": "mapping(address => mapping(address => struct IAllowanceTransfer.PackedAllowance))",
						"numberOfBytes": "32",
						"value": "t_mapping(t_address,t_struct(PackedAllowance)106_storage)"
					},
					"t_mapping(t_address,t_struct(PackedAllowance)106_storage)": {
						"encoding": "mapping",
						"key": "t_address",
						"label": "mapping(address => struct IAllowanceTransfer.PackedAllowance)",
						"numberOfBytes": "32",
						"value": "t_struct(PackedAllowance)106_storage"
					},
					"t_struct(PackedAllowance)106_storage": {
						"encoding": "inplace",
						"label": "struct IAllowanceTransfer.PackedAllowance",
						"members": [
							{
								"astId": 101,
								"contract": "contracts/contracts/permit2/AllowanceTransfer.sol:AllowanceTransfer",
								"label": "amount",
								"offset": 0,
								"slot": "0",
								"type": "t_uint160"
							},
							{
								"astId": 103,
								"contract": "contracts/contracts/permit2/AllowanceTransfer.sol:AllowanceTransfer",
								"label": "expiration",
								"offset": 20,
								"slot": "0",
								"type": "t_uint48"
							},
							{
								"astId": 105,
								"contract": "contracts/contracts/permit2/AllowanceTransfer.sol:AllowanceTransfer",
								"label": "nonce",
								"offset": 26,
								"slot": "0",
								"type": "t_uint48"
							}
						],
						"numberOfBytes": "32"
					},
					"t_uint160": {
						"encoding": "inplace",
						"label": "uint160",
						"numberOfBytes": "20"
					},
					"t_uint48": {
						"encoding": "inplace",
						"label": "uint48",
						"numberOfBytes": "6"
					}
				}
			},
			"userdoc": {
				"errors": {
					"AllowanceExpired(uint256)": [
						{
							"notice": "Thrown when an allowance on a token has expired."
						}
					],
					"ExcessiveInvalidation()": [
						{
							"notice": "Thrown when too many nonces are invalidated."
						}
					],
					"InsufficientAllowance(uint256)": [
						{
							"notice": "Thrown when an allowance on a token has been depleted."
						}
					],
					"InvalidContractSignature()": [
						{
							"notice": "Thrown when the recovered contract signature is incorrect"
						}
					],
					"InvalidNonce()": [
						{
							"notice": "Thrown when validating that the inputted nonce has not been used"
						}
					],
					"InvalidSignature()": [
						{
							"notice": "Thrown when the recovered signer is equal to the zero address"
						}
					],
					"InvalidSignatureLength()": [
						{
							"notice": "Thrown when the passed in signature is not a valid length"
						}
					],
					"InvalidSigner()": [
						{
							"notice": "Thrown when the recovered signer does not equal the claimedSigner"
						}
					],
					"SignatureExpired(uint256)": [
						{
							"notice": "Thrown when validating an inputted signature that is stale"
						}
					]
				},
				"events": {
					"Approval(address,address,address,uint160,uint48)": {
						"notice": "Emits an event when the owner successfully sets permissions on a token for the spender."
					},
					"Lockdown(address,address,address)": {
						"notice": "Emits an event when the owner sets the allowance back to 0 with the lockdown function."
					},
					"NonceInvalidation(address,address,address,uint48,uint48)": {
						"notice": "Emits an event when the owner successfully invalidates an ordered nonce."
					},
					"Permit(address,address,address,uint160,uint48,uint48)": {
						"notice": "Emits an event when the owner successfully sets permissions using a permit signature on a token for the spender."
					}
				},
				"kind": "user",
				"methods": {
					"DOMAIN_SEPARATOR()": {
						"notice": "Returns the domain separator for the current chain."
					},
					"allowance(address,address,address)": {
						"notice": "Maps users to tokens to spender addresses and information about the approval on the token"
					},
					"approve(address,address,uint160,uint48)": {
						"notice": "Approves the spender to use up to amount of the specified token up until the expiration"
					},
					"invalidateNonces(address,address,uint48)": {
						"notice": "Invalidate nonces for a given (token, spender) pair"
					},
					"lockdown((address,address)[])": {
						"notice": "Enables performing a \"lockdown\" of the sender's Permit2 identity by batch revoking approvals"
					},
					"permit(address,((address,uint160,uint48,uint48),address,uint256),bytes)": {
						"notice": "Permit a spender to a given amount of the owners token via the owner's EIP-712 signature"
					},
					"permit(address,((address,uint160,uint48,uint48)[],address,uint256),bytes)": {
						"notice": "Permit a spender to the signed amounts of the owners tokens via the owner's EIP-712 signature"
					},
					"transferFrom((address,address,uint160,address)[])": {
						"notice": "Transfer approved tokens in a batch"
					},
					"transferFrom(address,address,uint160,address)": {
						"notice": "Transfer approved tokens from one address to another"
					}
				},
				"version": 1
			}
		}
	}
}