{
	"contracts/contracts/lib/PermitHash.sol": {
		"PermitHash": {
			"abi": [
				{
					"inputs": [],
					"name": "_PERMIT_BATCH_TRANSFER_FROM_TYPEHASH",
					"outputs": [
						{
							"internalType": "bytes32",
							"name": "",
							"type": "bytes32"
						}
					],
					"stateMutability": "view",
					"type": "function"
				},
				{
					"inputs": [],
					"name": "_PERMIT_BATCH_TYPEHASH",
					"outputs": [
						{
							"internalType": "bytes32",
							"name": "",
							"type": "bytes32"
						}
					],
					"stateMutability": "view",
					"type": "function"
				},
				{
					"inputs": [],
					"name": "_PERMIT_BATCH_WITNESS_TRANSFER_FROM_TYPEHASH_STUB",
					"outputs": [
						{
							"internalType": "string",
							"name": "",
							"type": "string"
						}
					],
					"stateMutability": "view",
					"type": "function"
				},
				{
					"inputs": [],
					"name": "_PERMIT_DETAILS_TYPEHASH",
					"outputs": [
						{
							"internalType": "bytes32",
							"name": "",
							"type": "bytes32"
						}
					],
					"stateMutability": "view",
					"type": "function"
				},
				{
					"inputs": [],
					"name": "_PERMIT_SINGLE_TYPEHASH",
					"outputs": [
						{
							"internalType": "bytes32",
							"name": "",
							"type": "bytes32"
						}
					],
					"stateMutability": "view",
					"type": "function"
				},
				{
					"inputs": [],
					"name": "_PERMIT_TRANSFER_FROM_TYPEHASH",
					"outputs": [
						{
							"internalType": "bytes32",
							"name": "",
							"type": "bytes32"
						}
					],
					"stateMutability": "view",
					"type": "function"
				},
				{
					"inputs": [],
					"name": "_PERMIT_TRANSFER_FROM_WITNESS_TYPEHASH_STUB",
					"outputs": [
						{
							"internalType": "string",
							"name": "",
							"type": "string"
						}
					],
					"stateMutability": "view",
					"type": "function"
				},
				{
					"inputs": [],
					"name": "_TOKEN_PERMISSIONS_TYPEHASH",
					"outputs": [
						{
							"internalType": "bytes32",
							"name": "",
							"type": "bytes32"
						}
					],
					"stateMutability": "view",
					"type": "function"
				},
				{
					"inputs": [],
					"name": "_TOKEN_PERMISSIONS_TYPESTRING",
					"outputs": [
						{
							"internalType": "string",
							"name": "",
							"type": "string"
						}
					],
					"stateMutability": "view",
					"type": "function"
				}
			],
			"devdoc": {
				"kind": "dev",
				"methods": {},
				"version": 1
			},
			"evm": {
				"assembly": "    /* \"contracts/contracts/lib/PermitHash.sol\":205:5770  library PermitHash {... */\n  0x80\n  dup1\n  0x40\n  mstore\n  jumpi(tag_1, callvalue)\n  dataSize(sub_0)\n  swap1\n  dup2\n  dataOffset(sub_0)\n  dup3\n  codecopy\n  address\n  dup2\n  assignImmutable(\"0xcd5a02d485074f67d63783a7acdae578618045c23ccf47fa4e3f1a01c11714ad\")\n  return\ntag_1:\n  0x00\n  dup1\n  revert\nstop\n\nsub_0: assembly {\n        /* \"contracts/contracts/lib/PermitHash.sol\":205:5770  library PermitHash {... */\n      0x80\n      0x40\n      dup2\n      dup2\n      mstore\n      jumpi(tag_2, iszero(lt(calldatasize, 0x04)))\n      0x00\n      dup1\n      revert\n    tag_2:\n      0x00\n      swap2\n      dup3\n      calldataload\n      0xe0\n      shr\n      swap1\n      dup2\n      0x3eb8b8fd\n      eq\n      tag_4\n      jumpi\n      pop\n      dup1\n      0x415e982d\n      eq\n      tag_6\n      jumpi\n      dup1\n      0x6302c3cf\n      eq\n      tag_8\n      jumpi\n      dup1\n      0x6e4f2775\n      eq\n      tag_10\n      jumpi\n      dup1\n      0x78f16830\n      eq\n      tag_12\n      jumpi\n      dup1\n      0x84b8efbb\n      eq\n      tag_14\n      jumpi\n      dup1\n      0x90bbf2f3\n      eq\n      tag_16\n      jumpi\n      dup1\n      0xc0c7fa7e\n      eq\n      tag_18\n      jumpi\n      0xc5df4f03\n      eq\n      tag_20\n      jumpi\n      0x00\n      dup1\n      revert\n    tag_20:\n      dup2\n      add(calldatasize, not(0x03))\n      slt\n      tag_22\n      jumpi\n      0x20\n      swap1\n      mload\n        /* \"contracts/contracts/lib/PermitHash.sol\":433:605  keccak256(... */\n      0xf3841cd1ff0085026a6327b620b67997ce40f282c88a8e905a7a5626e310f3d0\n        /* \"contracts/contracts/lib/PermitHash.sol\":205:5770  library PermitHash {... */\n      dup2\n      mstore\n      return\n    tag_22:\n      pop\n      dup1\n      revert\n    tag_18:\n      pop\n      dup2\n      add(calldatasize, not(0x03))\n      slt\n      tag_22\n      jumpi\n      dup1\n      mload\n      swap1\n      0x60\n      dup3\n      add\n      dup3\n      dup2\n      lt\n      0xffffffffffffffff\n      dup3\n      gt\n      or\n      tag_26\n      jumpi\n      tag_28\n      swap4\n      pop\n      dup2\n      mstore\n      0x2e\n      dup3\n      mstore\n      0x546f6b656e5065726d697373696f6e73286164647265737320746f6b656e2c75\n      0x20\n      dup4\n      add\n      mstore\n      shl(0x90, 0x696e7432353620616d6f756e7429)\n      dup2\n      dup4\n      add\n      mstore\n      mload\n      swap2\n      dup3\n      swap2\n      dup3\n      tag_1\n      jump\t// in\n    tag_28:\n      sub\n      swap1\n      return\n    tag_26:\n      shl(0xe0, 0x4e487b71)\n      dup5\n      mstore\n      mstore(0x04, 0x41)\n      0x24\n      dup5\n      revert\n    tag_16:\n      pop\n      dup2\n      add(calldatasize, not(0x03))\n      slt\n      tag_22\n      jumpi\n      dup1\n      mload\n      swap1\n      0xa0\n      dup3\n      add\n      dup3\n      dup2\n      lt\n      0xffffffffffffffff\n      dup3\n      gt\n      or\n      tag_26\n      jumpi\n      tag_28\n      swap4\n      pop\n      dup2\n      mstore\n      0x6b\n      dup3\n      mstore\n      0x5065726d697442617463685769746e6573735472616e7366657246726f6d2854\n      0x20\n      dup4\n      add\n      mstore\n      0x6f6b656e5065726d697373696f6e735b5d207065726d69747465642c61646472\n      dup2\n      dup4\n      add\n      mstore\n      0x657373207370656e6465722c75696e74323536206e6f6e63652c75696e743235\n      0x60\n      dup4\n      add\n      mstore\n      shl(0xaa, 0x0d88191958591b1a5b994b)\n      0x80\n      dup4\n      add\n      mstore\n      mload\n      swap2\n      dup3\n      swap2\n      dup3\n      tag_1\n      jump\t// in\n    tag_14:\n      pop\n      dup2\n      add(calldatasize, not(0x03))\n      slt\n      tag_22\n      jumpi\n      dup1\n      mload\n      swap1\n      0xa0\n      dup3\n      add\n      dup3\n      dup2\n      lt\n      0xffffffffffffffff\n      dup3\n      gt\n      or\n      tag_26\n      jumpi\n      tag_28\n      swap4\n      pop\n      dup2\n      mstore\n      0x64\n      dup3\n      mstore\n      0x5065726d69745769746e6573735472616e7366657246726f6d28546f6b656e50\n      0x20\n      dup4\n      add\n      mstore\n      0x65726d697373696f6e73207065726d69747465642c6164647265737320737065\n      dup2\n      dup4\n      add\n      mstore\n      0x6e6465722c75696e74323536206e6f6e63652c75696e7432353620646561646c\n      0x60\n      dup4\n      add\n      mstore\n      shl(0xe2, 0x1a5b994b)\n      0x80\n      dup4\n      add\n      mstore\n      mload\n      swap2\n      dup3\n      swap2\n      dup3\n      tag_1\n      jump\t// in\n    tag_12:\n      pop\n      dup2\n      add(calldatasize, not(0x03))\n      slt\n      tag_22\n      jumpi\n      0x20\n      swap1\n      mload\n        /* \"contracts/contracts/lib/PermitHash.sol\":1018:1184  keccak256(... */\n      0x939c21a48a8dbe3a9a2404a1d46691e4d39f6583d6ec6b35714604c986d80106\n        /* \"contracts/contracts/lib/PermitHash.sol\":205:5770  library PermitHash {... */\n      dup2\n      mstore\n      return\n    tag_10:\n      pop\n      dup2\n      add(calldatasize, not(0x03))\n      slt\n      tag_22\n      jumpi\n      0x20\n      swap1\n      mload\n        /* \"contracts/contracts/lib/PermitHash.sol\":289:376  keccak256(\"PermitDetails(address token,uint160 amount,uint48 expiration,uint48 nonce)\") */\n      0x65626cad6cb96493bf6f5ebea28756c966f023ab9e8a83a7101849d5573b3678\n        /* \"contracts/contracts/lib/PermitHash.sol\":205:5770  library PermitHash {... */\n      dup2\n      mstore\n      return\n    tag_8:\n      pop\n      dup2\n      add(calldatasize, not(0x03))\n      slt\n      tag_22\n      jumpi\n      0x20\n      swap1\n      mload\n        /* \"contracts/contracts/lib/PermitHash.sol\":661:834  keccak256(... */\n      0xaf1b0d30d2cab0380e68f0689007e3254993c596f2fdd0aaa7f4d04f79440863\n        /* \"contracts/contracts/lib/PermitHash.sol\":205:5770  library PermitHash {... */\n      dup2\n      mstore\n      return\n    tag_6:\n      pop\n      dup2\n      add(calldatasize, not(0x03))\n      slt\n      tag_22\n      jumpi\n      0x20\n      swap1\n      mload\n        /* \"contracts/contracts/lib/PermitHash.sol\":895:954  keccak256(\"TokenPermissions(address token,uint256 amount)\") */\n      0x618358ac3db8dc274f0cd8829da7e234bd48cd73c4a740aede1adec9846d06a1\n        /* \"contracts/contracts/lib/PermitHash.sol\":205:5770  library PermitHash {... */\n      dup2\n      mstore\n      return\n    tag_4:\n      dup4\n      swap1\n      dup2\n      add(calldatasize, not(0x03))\n      slt\n      tag_22\n      jumpi\n      dup1\n        /* \"contracts/contracts/lib/PermitHash.sol\":1254:1427  keccak256(... */\n      0xfcf35f5ac6a2c28868dc44c302166470266239195f02b0ee408334829333b766\n        /* \"contracts/contracts/lib/PermitHash.sol\":205:5770  library PermitHash {... */\n      0x20\n      swap3\n      mstore\n      return\n    tag_1:\n      0x20\n      dup1\n      dup3\n      mstore\n      dup3\n      mload\n      dup2\n      dup4\n      add\n      dup2\n      swap1\n      mstore\n      swap1\n      swap4\n      swap3\n      0x00\n    tag_49:\n      dup3\n      dup2\n      lt\n      tag_50\n      jumpi\n      pop\n      pop\n      0x40\n      swap3\n      swap4\n      pop\n      0x00\n      dup4\n      dup3\n      dup5\n      add\n      add\n      mstore\n      0x1f\n      dup1\n      not\n      swap2\n      add\n      and\n      add\n      add\n      swap1\n      jump\t// out\n    tag_50:\n      dup2\n      dup2\n      add\n      dup7\n      add\n      mload\n      dup5\n      dup3\n      add\n      0x40\n      add\n      mstore\n      dup6\n      add\n      jump(tag_49)\n\n    auxdata: 0xa26469706673582212208a26ba5e405266b2514aedb17cc0229254a843db7f9cf72f271bdbe031648a3664736f6c63430008140033\n}\n",
				"bytecode": {
					"linkReferences": {},
					"object": "6080806040523461001a57610448908161001f823930815050f35b5f80fdfe608060408181526004361015610013575f80fd5b5f91823560e01c9081633eb8b8fd1461039657508063415e982d146103615780636302c3cf1461032c5780636e4f2775146102f757806378f16830146102c257806384b8efbb1461020957806390bbf2f314610149578063c0c7fa7e146100ba5763c5df4f0314610082575f80fd5b816003193601126100b657602090517ff3841cd1ff0085026a6327b620b67997ce40f282c88a8e905a7a5626e310f3d08152f35b5080fd5b50816003193601126100b6578051906060820182811067ffffffffffffffff8211176101355761013193508152602e82527f546f6b656e5065726d697373696f6e73286164647265737320746f6b656e2c7560208301526d696e7432353620616d6f756e742960901b8183015251918291826103cb565b0390f35b634e487b7160e01b84526041600452602484fd5b50816003193601126100b65780519060a0820182811067ffffffffffffffff8211176101355761013193508152606b82527f5065726d697442617463685769746e6573735472616e7366657246726f6d285460208301527f6f6b656e5065726d697373696f6e735b5d207065726d69747465642c61646472818301527f657373207370656e6465722c75696e74323536206e6f6e63652c75696e74323560608301526a0d88191958591b1a5b994b60aa1b608083015251918291826103cb565b50816003193601126100b65780519060a0820182811067ffffffffffffffff8211176101355761013193508152606482527f5065726d69745769746e6573735472616e7366657246726f6d28546f6b656e5060208301527f65726d697373696f6e73207065726d69747465642c6164647265737320737065818301527f6e6465722c75696e74323536206e6f6e63652c75696e7432353620646561646c6060830152631a5b994b60e21b608083015251918291826103cb565b50816003193601126100b657602090517f939c21a48a8dbe3a9a2404a1d46691e4d39f6583d6ec6b35714604c986d801068152f35b50816003193601126100b657602090517f65626cad6cb96493bf6f5ebea28756c966f023ab9e8a83a7101849d5573b36788152f35b50816003193601126100b657602090517faf1b0d30d2cab0380e68f0689007e3254993c596f2fdd0aaa7f4d04f794408638152f35b50816003193601126100b657602090517f618358ac3db8dc274f0cd8829da7e234bd48cd73c4a740aede1adec9846d06a18152f35b8390816003193601126100b657807ffcf35f5ac6a2c28868dc44c302166470266239195f02b0ee408334829333b76660209252f35b602080825282518183018190529093925f5b8281106103fe57505060409293505f838284010152601f8019910116010190565b8181018601518482016040015285016103dd56fea26469706673582212208a26ba5e405266b2514aedb17cc0229254a843db7f9cf72f271bdbe031648a3664736f6c63430008140033",
					"opcodes": "PUSH1 0x80 DUP1 PUSH1 0x40 MSTORE CALLVALUE PUSH2 0x1A JUMPI PUSH2 0x448 SWAP1 DUP2 PUSH2 0x1F DUP3 CODECOPY ADDRESS DUP2 POP POP RETURN JUMPDEST PUSH0 DUP1 REVERT INVALID PUSH1 0x80 PUSH1 0x40 DUP2 DUP2 MSTORE PUSH1 0x4 CALLDATASIZE LT ISZERO PUSH2 0x13 JUMPI PUSH0 DUP1 REVERT JUMPDEST PUSH0 SWAP2 DUP3 CALLDATALOAD PUSH1 0xE0 SHR SWAP1 DUP2 PUSH4 0x3EB8B8FD EQ PUSH2 0x396 JUMPI POP DUP1 PUSH4 0x415E982D EQ PUSH2 0x361 JUMPI DUP1 PUSH4 0x6302C3CF EQ PUSH2 0x32C JUMPI DUP1 PUSH4 0x6E4F2775 EQ PUSH2 0x2F7 JUMPI DUP1 PUSH4 0x78F16830 EQ PUSH2 0x2C2 JUMPI DUP1 PUSH4 0x84B8EFBB EQ PUSH2 0x209 JUMPI DUP1 PUSH4 0x90BBF2F3 EQ PUSH2 0x149 JUMPI DUP1 PUSH4 0xC0C7FA7E EQ PUSH2 0xBA JUMPI PUSH4 0xC5DF4F03 EQ PUSH2 0x82 JUMPI PUSH0 DUP1 REVERT JUMPDEST DUP2 PUSH1 0x3 NOT CALLDATASIZE ADD SLT PUSH2 0xB6 JUMPI PUSH1 0x20 SWAP1 MLOAD PUSH32 0xF3841CD1FF0085026A6327B620B67997CE40F282C88A8E905A7A5626E310F3D0 DUP2 MSTORE RETURN JUMPDEST POP DUP1 REVERT JUMPDEST POP DUP2 PUSH1 0x3 NOT CALLDATASIZE ADD SLT PUSH2 0xB6 JUMPI DUP1 MLOAD SWAP1 PUSH1 0x60 DUP3 ADD DUP3 DUP2 LT PUSH8 0xFFFFFFFFFFFFFFFF DUP3 GT OR PUSH2 0x135 JUMPI PUSH2 0x131 SWAP4 POP DUP2 MSTORE PUSH1 0x2E DUP3 MSTORE PUSH32 0x546F6B656E5065726D697373696F6E73286164647265737320746F6B656E2C75 PUSH1 0x20 DUP4 ADD MSTORE PUSH14 0x696E7432353620616D6F756E7429 PUSH1 0x90 SHL DUP2 DUP4 ADD MSTORE MLOAD SWAP2 DUP3 SWAP2 DUP3 PUSH2 0x3CB JUMP JUMPDEST SUB SWAP1 RETURN JUMPDEST PUSH4 0x4E487B71 PUSH1 0xE0 SHL DUP5 MSTORE PUSH1 0x41 PUSH1 0x4 MSTORE PUSH1 0x24 DUP5 REVERT JUMPDEST POP DUP2 PUSH1 0x3 NOT CALLDATASIZE ADD SLT PUSH2 0xB6 JUMPI DUP1 MLOAD SWAP1 PUSH1 0xA0 DUP3 ADD DUP3 DUP2 LT PUSH8 0xFFFFFFFFFFFFFFFF DUP3 GT OR PUSH2 0x135 JUMPI PUSH2 0x131 SWAP4 POP DUP2 MSTORE PUSH1 0x6B DUP3 MSTORE PUSH32 0x5065726D697442617463685769746E6573735472616E7366657246726F6D2854 PUSH1 0x20 DUP4 ADD MSTORE PUSH32 0x6F6B656E5065726D697373696F6E735B5D207065726D69747465642C61646472 DUP2 DUP4 ADD MSTORE PUSH32 0x657373207370656E6465722C75696E74323536206E6F6E63652C75696E743235 PUSH1 0x60 DUP4 ADD MSTORE PUSH11 0xD88191958591B1A5B994B PUSH1 0xAA SHL PUSH1 0x80 DUP4 ADD MSTORE MLOAD SWAP2 DUP3 SWAP2 DUP3 PUSH2 0x3CB JUMP JUMPDEST POP DUP2 PUSH1 0x3 NOT CALLDATASIZE ADD SLT PUSH2 0xB6 JUMPI DUP1 MLOAD SWAP1 PUSH1 0xA0 DUP3 ADD DUP3 DUP2 LT PUSH8 0xFFFFFFFFFFFFFFFF DUP3 GT OR PUSH2 0x135 JUMPI PUSH2 0x131 SWAP4 POP DUP2 MSTORE PUSH1 0x64 DUP3 MSTORE PUSH32 0x5065726D69745769746E6573735472616E7366657246726F6D28546F6B656E50 PUSH1 0x20 DUP4 ADD MSTORE PUSH32 0x65726D697373696F6E73207065726D69747465642C6164647265737320737065 DUP2 DUP4 ADD MSTORE PUSH32 0x6E6465722C75696E74323536206E6F6E63652C75696E7432353620646561646C PUSH1 0x60 DUP4 ADD MSTORE PUSH4 0x1A5B994B PUSH1 0xE2 SHL PUSH1 0x80 DUP4 ADD MSTORE MLOAD SWAP2 DUP3 SWAP2 DUP3 PUSH2 0x3CB JUMP JUMPDEST POP DUP2 PUSH1 0x3 NOT CALLDATASIZE ADD SLT PUSH2 0xB6 JUMPI PUSH1 0x20 SWAP1 MLOAD PUSH32 0x939C21A48A8DBE3A9A2404A1D46691E4D39F6583D6EC6B35714604C986D80106 DUP2 MSTORE RETURN JUMPDEST POP DUP2 PUSH1 0x3 NOT CALLDATASIZE ADD SLT PUSH2 0xB6 JUMPI PUSH1 0x20 SWAP1 MLOAD PUSH32 0x65626CAD6CB96493BF6F5EBEA28756C966F023AB9E8A83A7101849D5573B3678 DUP2 MSTORE RETURN JUMPDEST POP DUP2 PUSH1 0x3 NOT CALLDATASIZE ADD SLT PUSH2 0xB6 JUMPI PUSH1 0x20 SWAP1 MLOAD PUSH32 0xAF1B0D30D2CAB0380E68F0689007E3254993C596F2FDD0AAA7F4D04F79440863 DUP2 MSTORE RETURN JUMPDEST POP DUP2 PUSH1 0x3 NOT CALLDATASIZE ADD SLT PUSH2 0xB6 JUMPI PUSH1 0x20 SWAP1 MLOAD PUSH32 0x618358AC3DB8DC274F0CD8829DA7E234BD48CD73C4A740AEDE1ADEC9846D06A1 DUP2 MSTORE RETURN JUMPDEST DUP4 SWAP1 DUP2 PUSH1 0x3 NOT CALLDATASIZE ADD SLT PUSH2 0xB6 JUMPI DUP1 PUSH32 0xFCF35F5AC6A2C28868DC44C302166470266239195F02B0EE408334829333B766 PUSH1 0x20 SWAP3 MSTORE RETURN JUMPDEST PUSH1 0x20 DUP1 DUP3 MSTORE DUP3 MLOAD DUP2 DUP4 ADD DUP2 SWAP1 MSTORE SWAP1 SWAP4 SWAP3 PUSH0 JUMPDEST DUP3 DUP2 LT PUSH2 0x3FE JUMPI POP POP PUSH1 0x40 SWAP3 SWAP4 POP PUSH0 DUP4 DUP3 DUP5 ADD ADD MSTORE PUSH1 0x1F DUP1 NOT SWAP2 ADD AND ADD ADD SWAP1 JUMP JUMPDEST DUP2 DUP2 ADD DUP7 ADD MLOAD DUP5 DUP3 ADD PUSH1 0x40 ADD MSTORE DUP6 ADD PUSH2 0x3DD JUMP INVALID LOG2 PUSH5 0x6970667358 0x22 SLT KECCAK256 DUP11 0x26 0xBA 0x5E BLOCKHASH MSTORE PUSH7 0xB2514AEDB17CC0 0x22 SWAP3 SLOAD 0xA8 NUMBER 0xDB PUSH32 0x9CF72F271BDBE031648A3664736F6C6343000814003300000000000000000000 "
				},
				"gasEstimates": {
					"creation": {
						"codeDepositCost": "219200",
						"executionCost": "infinite",
						"totalCost": "infinite"
					},
					"external": {
						"_PERMIT_BATCH_TRANSFER_FROM_TYPEHASH()": "149",
						"_PERMIT_BATCH_TYPEHASH()": "194",
						"_PERMIT_BATCH_WITNESS_TRANSFER_FROM_TYPEHASH_STUB()": "infinite",
						"_PERMIT_DETAILS_TYPEHASH()": "216",
						"_PERMIT_SINGLE_TYPEHASH()": "321",
						"_PERMIT_TRANSFER_FROM_TYPEHASH()": "238",
						"_PERMIT_TRANSFER_FROM_WITNESS_TYPEHASH_STUB()": "infinite",
						"_TOKEN_PERMISSIONS_TYPEHASH()": "172",
						"_TOKEN_PERMISSIONS_TYPESTRING()": "infinite"
					},
					"internal": {
						"_hashPermitDetails(struct IAllowanceTransfer.PermitDetails memory)": "infinite",
						"_hashTokenPermissions(struct ISignatureTransfer.TokenPermissions memory)": "infinite",
						"hash(struct IAllowanceTransfer.PermitBatch memory)": "infinite",
						"hash(struct IAllowanceTransfer.PermitSingle memory)": "infinite",
						"hash(struct ISignatureTransfer.PermitBatchTransferFrom memory)": "infinite",
						"hash(struct ISignatureTransfer.PermitTransferFrom memory)": "infinite",
						"hashWithWitness(struct ISignatureTransfer.PermitBatchTransferFrom memory,bytes32,string calldata)": "infinite",
						"hashWithWitness(struct ISignatureTransfer.PermitTransferFrom memory,bytes32,string calldata)": "infinite"
					}
				},
				"methodIdentifiers": {
					"_PERMIT_BATCH_TRANSFER_FROM_TYPEHASH()": "3eb8b8fd",
					"_PERMIT_BATCH_TYPEHASH()": "6302c3cf",
					"_PERMIT_BATCH_WITNESS_TRANSFER_FROM_TYPEHASH_STUB()": "90bbf2f3",
					"_PERMIT_DETAILS_TYPEHASH()": "6e4f2775",
					"_PERMIT_SINGLE_TYPEHASH()": "c5df4f03",
					"_PERMIT_TRANSFER_FROM_TYPEHASH()": "78f16830",
					"_PERMIT_TRANSFER_FROM_WITNESS_TYPEHASH_STUB()": "84b8efbb",
					"_TOKEN_PERMISSIONS_TYPEHASH()": "415e982d",
					"_TOKEN_PERMISSIONS_TYPESTRING()": "c0c7fa7e"
				}
			},
			"storageLayout": {
				"storage": [],
				"types": null
			},
			"userdoc": {
				"kind": "user",
				"methods": {},
				"version": 1
			}
		}
	}
}