{
	"data": {
		"bytecode": {
			"linkReferences": {},
			"object": "6080806040523460145760a490816100198239f35b5f80fdfe60808060405260043610156011575f80fd5b5f90813560e01c63efdd7c07146025575f80fd5b34606a576040366003190112606a576024356004358181029391811591850414171560565750612710602092048152f35b634e487b7160e01b81526011600452602490fd5b5080fdfea2646970667358221220ee48d468a14029fa8e84483aadf6425e140949323b0d3212bcc77bb0211bd6af64736f6c63430008140033",
			"opcodes": "PUSH1 0x80 DUP1 PUSH1 0x40 MSTORE CALLVALUE PUSH1 0x14 JUMPI PUSH1 0xA4 SWAP1 DUP2 PUSH2 0x19 DUP3 CODECOPY RETURN JUMPDEST PUSH0 DUP1 REVERT INVALID PUSH1 0x80 DUP1 PUSH1 0x40 MSTORE PUSH1 0x4 CALLDATASIZE LT ISZERO PUSH1 0x11 JUMPI PUSH0 DUP1 REVERT JUMPDEST PUSH0 SWAP1 DUP2 CALLDATALOAD PUSH1 0xE0 SHR PUSH4 0xEFDD7C07 EQ PUSH1 0x25 JUMPI PUSH0 DUP1 REVERT JUMPDEST CALLVALUE PUSH1 0x6A JUMPI PUSH1 0x40 CALLDATASIZE PUSH1 0x3 NOT ADD SLT PUSH1 0x6A JUMPI PUSH1 0x24 CALLDATALOAD PUSH1 0x4 CALLDATALOAD DUP2 DUP2 MUL SWAP4 SWAP2 DUP2 ISZERO SWAP2 DUP6 DIV EQ OR ISZERO PUSH1 0x56 JUMPI POP PUSH2 0x2710 PUSH1 0x20 SWAP3 DIV DUP2 MSTORE RETURN JUMPDEST PUSH4 0x4E487B71 PUSH1 0xE0 SHL DUP2 MSTORE PUSH1 0x11 PUSH1 0x4 MSTORE PUSH1 0x24 SWAP1 REVERT JUMPDEST POP DUP1 REVERT INVALID LOG2 PUSH5 0x6970667358 0x22 SLT KECCAK256 0xEE BASEFEE 0xD4 PUSH9 0xA14029FA8E84483AAD 0xF6 TIMESTAMP 0x5E EQ MULMOD 0x49 ORIGIN EXTCODESIZE 0xD ORIGIN SLT 0xBC 0xC7 PUSH28 0xB0211BD6AF64736F6C63430008140033000000000000000000000000 "
		},
		"gasEstimates": {
			"creation": {
				"codeDepositCost": "32800",
				"executionCost": "93",
				"totalCost": "32893"
			},
			"external": {
				"calculateInterest(uint256,uint256)": "227"
			}
		},
		"methodIdentifiers": {
			"calculateInterest(uint256,uint256)": "efdd7c07"
		}
	},
	"abi": [
		{
			"inputs": [
				{
					"internalType": "uint256",
					"name": "principal",
					"type": "uint256"
				},
				{
					"internalType": "uint256",
					"name": "rate",
					"type": "uint256"
				}
			],
			"name": "calculateInterest",
			"outputs": [
				{
					"internalType": "uint256",
					"name": "",
					"type": "uint256"
				}
			],
			"stateMutability": "pure",
			"type": "function"
		}
	]
}