{
	"data": {
		"bytecode": {
			"linkReferences": {},
			"object": "6080806040523460145760b790816100198239f35b5f80fdfe608060405260043610156010575f80fd5b5f3560e01c6305e1bd8c146022575f80fd5b346057576060366003190112605757602064496cebb800604e604435604a602435600435605b565b605b565b04604051908152f35b5f80fd5b81810292918115918404141715606d57565b634e487b7160e01b5f52601160045260245ffdfea2646970667358221220b1d687a75a4967f58bc5a32d08fafc2f28473874f61ec7124bb6b22188dca67d64736f6c63430008140033",
			"opcodes": "PUSH1 0x80 DUP1 PUSH1 0x40 MSTORE CALLVALUE PUSH1 0x14 JUMPI PUSH1 0xB7 SWAP1 DUP2 PUSH2 0x19 DUP3 CODECOPY RETURN JUMPDEST PUSH0 DUP1 REVERT INVALID PUSH1 0x80 PUSH1 0x40 MSTORE PUSH1 0x4 CALLDATASIZE LT ISZERO PUSH1 0x10 JUMPI PUSH0 DUP1 REVERT JUMPDEST PUSH0 CALLDATALOAD PUSH1 0xE0 SHR PUSH4 0x5E1BD8C EQ PUSH1 0x22 JUMPI PUSH0 DUP1 REVERT JUMPDEST CALLVALUE PUSH1 0x57 JUMPI PUSH1 0x60 CALLDATASIZE PUSH1 0x3 NOT ADD SLT PUSH1 0x57 JUMPI PUSH1 0x20 PUSH5 0x496CEBB800 PUSH1 0x4E PUSH1 0x44 CALLDATALOAD PUSH1 0x4A PUSH1 0x24 CALLDATALOAD PUSH1 0x4 CALLDATALOAD PUSH1 0x5B JUMP JUMPDEST PUSH1 0x5B JUMP JUMPDEST DIV PUSH1 0x40 MLOAD SWAP1 DUP2 MSTORE RETURN JUMPDEST PUSH0 DUP1 REVERT JUMPDEST DUP2 DUP2 MUL SWAP3 SWAP2 DUP2 ISZERO SWAP2 DUP5 DIV EQ OR ISZERO PUSH1 0x6D JUMPI JUMP JUMPDEST PUSH4 0x4E487B71 PUSH1 0xE0 SHL PUSH0 MSTORE PUSH1 0x11 PUSH1 0x4 MSTORE PUSH1 0x24 PUSH0 REVERT INVALID LOG2 PUSH5 0x6970667358 0x22 SLT KECCAK256 0xB1 0xD6 DUP8 0xA7 GAS 0x49 PUSH8 0xF58BC5A32D08FAFC 0x2F 0x28 SELFBALANCE CODESIZE PUSH21 0xF61EC7124BB6B22188DCA67D64736F6C6343000814 STOP CALLER "
		},
		"gasEstimates": {
			"creation": {
				"codeDepositCost": "36600",
				"executionCost": "93",
				"totalCost": "36693"
			},
			"external": {
				"calculateInterest(uint256,uint256,uint256)": "infinite"
			}
		},
		"methodIdentifiers": {
			"calculateInterest(uint256,uint256,uint256)": "05e1bd8c"
		}
	},
	"abi": [
		{
			"inputs": [],
			"stateMutability": "nonpayable",
			"type": "constructor"
		},
		{
			"inputs": [
				{
					"internalType": "uint256",
					"name": "principal",
					"type": "uint256"
				},
				{
					"internalType": "uint256",
					"name": "rate",
					"type": "uint256"
				},
				{
					"internalType": "uint256",
					"name": "time",
					"type": "uint256"
				}
			],
			"name": "calculateInterest",
			"outputs": [
				{
					"internalType": "uint256",
					"name": "",
					"type": "uint256"
				}
			],
			"stateMutability": "pure",
			"type": "function"
		}
	]
}