{
	"data": {
		"bytecode": {
			"linkReferences": {},
			"object": "6080806040523460135760a1908160188239f35b5f80fdfe60808060405260043610156011575f80fd5b5f3560e01c63efdd7c07146023575f80fd5b34606757604036600319011260675760243560043581810292918115918404141715605357612710602092048152f35b634e487b7160e01b5f52601160045260245ffd5b5f80fdfea26469706673582212204185513c4247605ea6aa4061a53179ac13a39dfc91c3ae59ffe38ae58fbdd53e64736f6c634300081a0033",
			"opcodes": "PUSH1 0x80 DUP1 PUSH1 0x40 MSTORE CALLVALUE PUSH1 0x13 JUMPI PUSH1 0xA1 SWAP1 DUP2 PUSH1 0x18 DUP3 CODECOPY RETURN JUMPDEST PUSH0 DUP1 REVERT INVALID PUSH1 0x80 DUP1 PUSH1 0x40 MSTORE PUSH1 0x4 CALLDATASIZE LT ISZERO PUSH1 0x11 JUMPI PUSH0 DUP1 REVERT JUMPDEST PUSH0 CALLDATALOAD PUSH1 0xE0 SHR PUSH4 0xEFDD7C07 EQ PUSH1 0x23 JUMPI PUSH0 DUP1 REVERT JUMPDEST CALLVALUE PUSH1 0x67 JUMPI PUSH1 0x40 CALLDATASIZE PUSH1 0x3 NOT ADD SLT PUSH1 0x67 JUMPI PUSH1 0x24 CALLDATALOAD PUSH1 0x4 CALLDATALOAD DUP2 DUP2 MUL SWAP3 SWAP2 DUP2 ISZERO SWAP2 DUP5 DIV EQ OR ISZERO PUSH1 0x53 JUMPI PUSH2 0x2710 PUSH1 0x20 SWAP3 DIV DUP2 MSTORE RETURN JUMPDEST PUSH4 0x4E487B71 PUSH1 0xE0 SHL PUSH0 MSTORE PUSH1 0x11 PUSH1 0x4 MSTORE PUSH1 0x24 PUSH0 REVERT JUMPDEST PUSH0 DUP1 REVERT INVALID LOG2 PUSH5 0x6970667358 0x22 SLT KECCAK256 COINBASE DUP6 MLOAD EXTCODECOPY TIMESTAMP SELFBALANCE PUSH1 0x5E 0xA6 0xAA BLOCKHASH PUSH2 0xA531 PUSH26 0xAC13A39DFC91C3AE59FFE38AE58FBDD53E64736F6C634300081A STOP CALLER "
		},
		"gasEstimates": {
			"creation": {
				"codeDepositCost": "32200",
				"executionCost": "93",
				"totalCost": "32293"
			},
			"external": {
				"calculateInterest(uint256,uint256)": "219"
			}
		},
		"methodIdentifiers": {
			"calculateInterest(uint256,uint256)": "efdd7c07"
		}
	},
	"abi": [
		{
			"inputs": [
				{
					"internalType": "uint256",
					"name": "principal",
					"type": "uint256"
				},
				{
					"internalType": "uint256",
					"name": "rate",
					"type": "uint256"
				}
			],
			"name": "calculateInterest",
			"outputs": [
				{
					"internalType": "uint256",
					"name": "",
					"type": "uint256"
				}
			],
			"stateMutability": "pure",
			"type": "function"
		}
	]
}