{
	"contracts/contracts/permit2/EIP712.sol": {
		"EIP712": {
			"abi": [
				{
					"inputs": [],
					"stateMutability": "nonpayable",
					"type": "constructor"
				},
				{
					"inputs": [],
					"name": "DOMAIN_SEPARATOR",
					"outputs": [
						{
							"internalType": "bytes32",
							"name": "",
							"type": "bytes32"
						}
					],
					"stateMutability": "view",
					"type": "function"
				}
			],
			"devdoc": {
				"details": "Maintains cross-chain replay protection in the event of a forkReference: https://github.com/OpenZeppelin/openzeppelin-contracts/blob/master/contracts/utils/cryptography/EIP712.sol",
				"kind": "dev",
				"methods": {
					"DOMAIN_SEPARATOR()": {
						"details": "Uses cached version if chainid and address are unchanged from construction."
					}
				},
				"version": 1
			},
			"evm": {
				"assembly": "    /* \"contracts/contracts/permit2/EIP712.sol\":347:1926  contract EIP712 is IEIP712 {... */\n  0xc0\n  jumpi(tag_1, callvalue)\n    /* \"contracts/contracts/permit2/EIP712.sol\":919:932  block.chainid */\n  chainid\n    /* \"contracts/contracts/permit2/EIP712.sol\":900:932  _CACHED_CHAIN_ID = block.chainid */\n  0xa0\n  mstore\n    /* \"contracts/contracts/permit2/EIP712.sol\":1632:1692  abi.encode(typeHash, nameHash, block.chainid, address(this)) */\n  0x20\n  dup2\n  add\n    /* \"contracts/contracts/permit2/EIP712.sol\":789:869  keccak256(\"EIP712Domain(string name,uint256 chainId,address verifyingContract)\") */\n  0x8cad95687ba82c2ce50e74f7b754645e5117c3a5bec8151c0726d5857980a866\n    /* \"contracts/contracts/permit2/EIP712.sol\":347:1926  contract EIP712 is IEIP712 {... */\n  dup2\n  mstore\n    /* \"contracts/contracts/permit2/EIP712.sol\":717:737  keccak256(\"Permit2\") */\n  0x9ac997416e8ff9d2ff6bebeb7149f65cdae5e32e2b90440b566bb3044041d36a\n    /* \"contracts/contracts/permit2/EIP712.sol\":347:1926  contract EIP712 is IEIP712 {... */\n  0x40\n  dup4\n  add\n  mstore\n    /* \"contracts/contracts/permit2/EIP712.sol\":919:932  block.chainid */\n  chainid\n    /* \"contracts/contracts/permit2/EIP712.sol\":347:1926  contract EIP712 is IEIP712 {... */\n  0x60\n  dup4\n  add\n  mstore\n    /* \"contracts/contracts/permit2/EIP712.sol\":1686:1690  this */\n  address\n    /* \"contracts/contracts/permit2/EIP712.sol\":347:1926  contract EIP712 is IEIP712 {... */\n  0x80\n  dup4\n  add\n  mstore\n  0x80\n    /* \"contracts/contracts/permit2/EIP712.sol\":1632:1692  abi.encode(typeHash, nameHash, block.chainid, address(this)) */\n  dup3\n  mstore\n    /* \"contracts/contracts/permit2/EIP712.sol\":900:932  _CACHED_CHAIN_ID = block.chainid */\n  0xa0\n    /* \"contracts/contracts/permit2/EIP712.sol\":347:1926  contract EIP712 is IEIP712 {... */\n  dup3\n  add\n  swap2\n  dup1\n  dup4\n  lt\n  0x01\n  dup1\n  0x40\n  shl\n  sub\n  dup5\n  gt\n  or\n  tag_3\n  jumpi\n  dup3\n  0x40\n  mstore\n  mload\n    /* \"contracts/contracts/permit2/EIP712.sol\":1622:1693  keccak256(abi.encode(typeHash, nameHash, block.chainid, address(this))) */\n  swap1\n  keccak256\n    /* \"contracts/contracts/permit2/EIP712.sol\":347:1926  contract EIP712 is IEIP712 {... */\n  0x80\n    /* \"contracts/contracts/permit2/EIP712.sol\":942:1016  _CACHED_DOMAIN_SEPARATOR = _buildDomainSeparator(_TYPE_HASH, _HASHED_NAME) */\n  mstore\n    /* \"contracts/contracts/permit2/EIP712.sol\":347:1926  contract EIP712 is IEIP712 {... */\n  dataSize(sub_0)\n  swap1\n  dup2\n  dataOffset(sub_0)\n  dup3\n  codecopy\n  mload(0x80)\n  dup2\n  assignImmutable(\"0x277ab82e5a4641341820a4a2933a62c1de997e42e92548657ae21b3728d580fe\")\n    /* \"contracts/contracts/permit2/EIP712.sol\":900:932  _CACHED_CHAIN_ID = block.chainid */\n  0xa0\n    /* \"contracts/contracts/permit2/EIP712.sol\":347:1926  contract EIP712 is IEIP712 {... */\n  mload\n  dup2\n  assignImmutable(\"0x8fef2229291b68be841adf029e58b87f39ba144b2d3b0af1760243d0a9bc6a1c\")\n  return\ntag_3:\n  mstore(0x00, shl(0xe0, 0x4e487b71))\n  mstore(0x04, 0x41)\n  revert(0x00, 0x24)\ntag_1:\n  0x00\n  dup1\n  revert\nstop\n\nsub_0: assembly {\n        /* \"contracts/contracts/permit2/EIP712.sol\":347:1926  contract EIP712 is IEIP712 {... */\n      0x80\n      dup1\n      0x40\n      mstore\n      jumpi(tag_1, iszero(lt(calldatasize, 0x04)))\n      0x00\n      dup1\n      revert\n    tag_1:\n      0x00\n      swap1\n      dup2\n      calldataload\n      0xe0\n      shr\n      0x3644e515\n      eq\n      tag_3\n      jumpi\n      0x00\n      dup1\n      revert\n    tag_3:\n      jumpi(tag_7, callvalue)\n      dup2\n      add(calldatasize, not(0x03))\n      slt\n      tag_7\n      jumpi\n        /* \"contracts/contracts/permit2/EIP712.sol\":1270:1283  block.chainid */\n      chainid\n        /* \"contracts/contracts/permit2/EIP712.sol\":1287:1303  _CACHED_CHAIN_ID */\n      immutable(\"0x8fef2229291b68be841adf029e58b87f39ba144b2d3b0af1760243d0a9bc6a1c\")\n        /* \"contracts/contracts/permit2/EIP712.sol\":1270:1303  block.chainid == _CACHED_CHAIN_ID */\n      sub\n        /* \"contracts/contracts/permit2/EIP712.sol\":1287:1303  _CACHED_CHAIN_ID */\n      tag_9\n      jumpi\n        /* \"contracts/contracts/permit2/EIP712.sol\":1318:1342  _CACHED_DOMAIN_SEPARATOR */\n      pop\n      pop\n        /* \"contracts/contracts/permit2/EIP712.sol\":347:1926  contract EIP712 is IEIP712 {... */\n      0x20\n        /* \"contracts/contracts/permit2/EIP712.sol\":1318:1342  _CACHED_DOMAIN_SEPARATOR */\n      immutable(\"0x277ab82e5a4641341820a4a2933a62c1de997e42e92548657ae21b3728d580fe\")\n        /* \"contracts/contracts/permit2/EIP712.sol\":1270:1404  block.chainid == _CACHED_CHAIN_ID... */\n    tag_11:\n        /* \"contracts/contracts/permit2/EIP712.sol\":347:1926  contract EIP712 is IEIP712 {... */\n      mload(0x40)\n      swap1\n      dup2\n      mstore\n      return\n        /* \"contracts/contracts/permit2/EIP712.sol\":1270:1404  block.chainid == _CACHED_CHAIN_ID... */\n    tag_9:\n        /* \"contracts/contracts/permit2/EIP712.sol\":1632:1692  abi.encode(typeHash, nameHash, block.chainid, address(this)) */\n      0x20\n      dup2\n      add\n        /* \"contracts/contracts/permit2/EIP712.sol\":347:1926  contract EIP712 is IEIP712 {... */\n      swap1\n        /* \"contracts/contracts/permit2/EIP712.sol\":789:869  keccak256(\"EIP712Domain(string name,uint256 chainId,address verifyingContract)\") */\n      0x8cad95687ba82c2ce50e74f7b754645e5117c3a5bec8151c0726d5857980a866\n        /* \"contracts/contracts/permit2/EIP712.sol\":347:1926  contract EIP712 is IEIP712 {... */\n      dup3\n      mstore\n        /* \"contracts/contracts/permit2/EIP712.sol\":717:737  keccak256(\"Permit2\") */\n      0x9ac997416e8ff9d2ff6bebeb7149f65cdae5e32e2b90440b566bb3044041d36a\n        /* \"contracts/contracts/permit2/EIP712.sol\":347:1926  contract EIP712 is IEIP712 {... */\n      0x40\n      dup3\n      add\n      mstore\n        /* \"contracts/contracts/permit2/EIP712.sol\":1270:1283  block.chainid */\n      chainid\n        /* \"contracts/contracts/permit2/EIP712.sol\":347:1926  contract EIP712 is IEIP712 {... */\n      0x60\n      dup3\n      add\n      mstore\n        /* \"contracts/contracts/permit2/EIP712.sol\":1686:1690  this */\n      address\n        /* \"contracts/contracts/permit2/EIP712.sol\":347:1926  contract EIP712 is IEIP712 {... */\n      0x80\n      dup3\n      add\n      mstore\n      0x80\n        /* \"contracts/contracts/permit2/EIP712.sol\":1632:1692  abi.encode(typeHash, nameHash, block.chainid, address(this)) */\n      dup2\n      mstore\n        /* \"contracts/contracts/permit2/EIP712.sol\":347:1926  contract EIP712 is IEIP712 {... */\n      0xa0\n      dup2\n      add\n      dup2\n      dup2\n      lt\n      0xffffffffffffffff\n      dup3\n      gt\n      or\n      tag_12\n      jumpi\n      0x20\n      swap4\n      pop\n      0x40\n      mstore\n      mload\n        /* \"contracts/contracts/permit2/EIP712.sol\":1622:1693  keccak256(abi.encode(typeHash, nameHash, block.chainid, address(this))) */\n      swap1\n      keccak256\n        /* \"contracts/contracts/permit2/EIP712.sol\":1270:1404  block.chainid == _CACHED_CHAIN_ID... */\n      jump(tag_11)\n        /* \"contracts/contracts/permit2/EIP712.sol\":347:1926  contract EIP712 is IEIP712 {... */\n    tag_12:\n      shl(0xe0, 0x4e487b71)\n      dup5\n      mstore\n      mstore(0x04, 0x41)\n      0x24\n      dup5\n      revert\n    tag_7:\n      pop\n      dup1\n      revert\n\n    auxdata: 0xa264697066735822122020061a74e9c86841611f90f70ac386c1327e8aa785b7c323b0afb4a389050cda64736f6c63430008140033\n}\n",
				"bytecode": {
					"linkReferences": {},
					"object": "60c0346100b7574660a052602081017f8cad95687ba82c2ce50e74f7b754645e5117c3a5bec8151c0726d5857980a86681527f9ac997416e8ff9d2ff6bebeb7149f65cdae5e32e2b90440b566bb3044041d36a60408301524660608301523060808301526080825260a082019180831060018060401b038411176100a3578260405251902060805261015e90816100bc8239608051816064015260a05181603a0152f35b634e487b7160e01b5f52604160045260245ffd5b5f80fdfe6080806040526004361015610012575f80fd5b5f90813560e01c633644e51514610027575f80fd5b34610124578160031936011261012457467f00000000000000000000000000000000000000000000000000000000000000000361008c57505060207f00000000000000000000000000000000000000000000000000000000000000005b604051908152f35b60208101907f8cad95687ba82c2ce50e74f7b754645e5117c3a5bec8151c0726d5857980a86682527f9ac997416e8ff9d2ff6bebeb7149f65cdae5e32e2b90440b566bb3044041d36a60408201524660608201523060808201526080815260a0810181811067ffffffffffffffff8211176101105760209350604052519020610084565b634e487b7160e01b84526041600452602484fd5b5080fdfea264697066735822122020061a74e9c86841611f90f70ac386c1327e8aa785b7c323b0afb4a389050cda64736f6c63430008140033",
					"opcodes": "PUSH1 0xC0 CALLVALUE PUSH2 0xB7 JUMPI CHAINID PUSH1 0xA0 MSTORE PUSH1 0x20 DUP2 ADD PUSH32 0x8CAD95687BA82C2CE50E74F7B754645E5117C3A5BEC8151C0726D5857980A866 DUP2 MSTORE PUSH32 0x9AC997416E8FF9D2FF6BEBEB7149F65CDAE5E32E2B90440B566BB3044041D36A PUSH1 0x40 DUP4 ADD MSTORE CHAINID PUSH1 0x60 DUP4 ADD MSTORE ADDRESS PUSH1 0x80 DUP4 ADD MSTORE PUSH1 0x80 DUP3 MSTORE PUSH1 0xA0 DUP3 ADD SWAP2 DUP1 DUP4 LT PUSH1 0x1 DUP1 PUSH1 0x40 SHL SUB DUP5 GT OR PUSH2 0xA3 JUMPI DUP3 PUSH1 0x40 MSTORE MLOAD SWAP1 KECCAK256 PUSH1 0x80 MSTORE PUSH2 0x15E SWAP1 DUP2 PUSH2 0xBC DUP3 CODECOPY PUSH1 0x80 MLOAD DUP2 PUSH1 0x64 ADD MSTORE PUSH1 0xA0 MLOAD DUP2 PUSH1 0x3A ADD MSTORE RETURN JUMPDEST PUSH4 0x4E487B71 PUSH1 0xE0 SHL PUSH0 MSTORE PUSH1 0x41 PUSH1 0x4 MSTORE PUSH1 0x24 PUSH0 REVERT JUMPDEST PUSH0 DUP1 REVERT INVALID PUSH1 0x80 DUP1 PUSH1 0x40 MSTORE PUSH1 0x4 CALLDATASIZE LT ISZERO PUSH2 0x12 JUMPI PUSH0 DUP1 REVERT JUMPDEST PUSH0 SWAP1 DUP2 CALLDATALOAD PUSH1 0xE0 SHR PUSH4 0x3644E515 EQ PUSH2 0x27 JUMPI PUSH0 DUP1 REVERT JUMPDEST CALLVALUE PUSH2 0x124 JUMPI DUP2 PUSH1 0x3 NOT CALLDATASIZE ADD SLT PUSH2 0x124 JUMPI CHAINID PUSH32 0x0 SUB PUSH2 0x8C JUMPI POP POP PUSH1 0x20 PUSH32 0x0 JUMPDEST PUSH1 0x40 MLOAD SWAP1 DUP2 MSTORE RETURN JUMPDEST PUSH1 0x20 DUP2 ADD SWAP1 PUSH32 0x8CAD95687BA82C2CE50E74F7B754645E5117C3A5BEC8151C0726D5857980A866 DUP3 MSTORE PUSH32 0x9AC997416E8FF9D2FF6BEBEB7149F65CDAE5E32E2B90440B566BB3044041D36A PUSH1 0x40 DUP3 ADD MSTORE CHAINID PUSH1 0x60 DUP3 ADD MSTORE ADDRESS PUSH1 0x80 DUP3 ADD MSTORE PUSH1 0x80 DUP2 MSTORE PUSH1 0xA0 DUP2 ADD DUP2 DUP2 LT PUSH8 0xFFFFFFFFFFFFFFFF DUP3 GT OR PUSH2 0x110 JUMPI PUSH1 0x20 SWAP4 POP PUSH1 0x40 MSTORE MLOAD SWAP1 KECCAK256 PUSH2 0x84 JUMP JUMPDEST PUSH4 0x4E487B71 PUSH1 0xE0 SHL DUP5 MSTORE PUSH1 0x41 PUSH1 0x4 MSTORE PUSH1 0x24 DUP5 REVERT JUMPDEST POP DUP1 REVERT INVALID LOG2 PUSH5 0x6970667358 0x22 SLT KECCAK256 KECCAK256 MOD BYTE PUSH21 0xE9C86841611F90F70AC386C1327E8AA785B7C323B0 0xAF 0xB4 LOG3 DUP10 SDIV 0xC 0xDA PUSH5 0x736F6C6343 STOP ADDMOD EQ STOP CALLER "
				},
				"gasEstimates": {
					"creation": {
						"codeDepositCost": "70000",
						"executionCost": "infinite",
						"totalCost": "infinite"
					},
					"external": {
						"DOMAIN_SEPARATOR()": "infinite"
					},
					"internal": {
						"_buildDomainSeparator(bytes32,bytes32)": "infinite",
						"_hashTypedData(bytes32)": "infinite"
					}
				},
				"methodIdentifiers": {
					"DOMAIN_SEPARATOR()": "3644e515"
				}
			},
			"storageLayout": {
				"storage": [],
				"types": null
			},
			"userdoc": {
				"kind": "user",
				"methods": {
					"DOMAIN_SEPARATOR()": {
						"notice": "Returns the domain separator for the current chain."
					}
				},
				"notice": "EIP712 helpers for permit2",
				"version": 1
			}
		}
	}
}