{
	"contracts/contracts/lib/AdvancedAPYManager.sol": {
		"AdvancedAPYManager": {
			"abi": [
				{
					"inputs": [],
					"stateMutability": "nonpayable",
					"type": "constructor"
				},
				{
					"inputs": [],
					"name": "baseAPY",
					"outputs": [
						{
							"internalType": "uint256",
							"name": "",
							"type": "uint256"
						}
					],
					"stateMutability": "view",
					"type": "function"
				},
				{
					"inputs": [
						{
							"internalType": "uint256",
							"name": "loanAmount",
							"type": "uint256"
						},
						{
							"internalType": "uint256",
							"name": "durationSeconds",
							"type": "uint256"
						}
					],
					"name": "calculateAPY",
					"outputs": [
						{
							"internalType": "uint256",
							"name": "",
							"type": "uint256"
						}
					],
					"stateMutability": "view",
					"type": "function"
				},
				{
					"inputs": [],
					"name": "durationBonusFactor",
					"outputs": [
						{
							"internalType": "uint256",
							"name": "",
							"type": "uint256"
						}
					],
					"stateMutability": "view",
					"type": "function"
				},
				{
					"inputs": [
						{
							"internalType": "uint256",
							"name": "",
							"type": "uint256"
						}
					],
					"name": "riskPremiumRates",
					"outputs": [
						{
							"internalType": "uint256",
							"name": "",
							"type": "uint256"
						}
					],
					"stateMutability": "view",
					"type": "function"
				},
				{
					"inputs": [
						{
							"internalType": "uint256",
							"name": "",
							"type": "uint256"
						}
					],
					"name": "riskPremiumThresholds",
					"outputs": [
						{
							"internalType": "uint256",
							"name": "",
							"type": "uint256"
						}
					],
					"stateMutability": "view",
					"type": "function"
				},
				{
					"inputs": [
						{
							"internalType": "uint256",
							"name": "_baseAPY",
							"type": "uint256"
						}
					],
					"name": "setBaseAPY",
					"outputs": [],
					"stateMutability": "nonpayable",
					"type": "function"
				},
				{
					"inputs": [
						{
							"internalType": "uint256",
							"name": "_factor",
							"type": "uint256"
						}
					],
					"name": "setDurationBonusFactor",
					"outputs": [],
					"stateMutability": "nonpayable",
					"type": "function"
				},
				{
					"inputs": [
						{
							"internalType": "uint256[]",
							"name": "_thresholds",
							"type": "uint256[]"
						},
						{
							"internalType": "uint256[]",
							"name": "_rates",
							"type": "uint256[]"
						}
					],
					"name": "setRiskPremiums",
					"outputs": [],
					"stateMutability": "nonpayable",
					"type": "function"
				}
			],
			"devdoc": {
				"details": "Manages APY adjustments based on loan characteristics such as amount and duration.",
				"kind": "dev",
				"methods": {
					"calculateAPY(uint256,uint256)": {
						"params": {
							"durationSeconds": "The duration of the loan in seconds.",
							"loanAmount": "The amount of the loan."
						},
						"returns": {
							"_0": "uint256 Calculated APY in basis points."
						}
					},
					"setBaseAPY(uint256)": {
						"params": {
							"_baseAPY": "The new base APY in basis points."
						}
					},
					"setDurationBonusFactor(uint256)": {
						"params": {
							"_factor": "The new duration bonus factor in basis points per year."
						}
					},
					"setRiskPremiums(uint256[],uint256[])": {
						"params": {
							"_rates": "Array of risk premiums corresponding to the thresholds.",
							"_thresholds": "Array of loan amount thresholds."
						}
					}
				},
				"title": "AdvancedAPYManager",
				"version": 1
			},
			"evm": {
				"assembly": "    /* \"contracts/contracts/lib/AdvancedAPYManager.sol\":185:3068  contract AdvancedAPYManager {... */\n  0x80\n  dup1\n  0x40\n  mstore\n  jumpi(tag_1, callvalue)\n    /* \"contracts/contracts/lib/AdvancedAPYManager.sol\":247:250  100 */\n  0x64\n  0x00\n    /* \"contracts/contracts/lib/AdvancedAPYManager.sol\":185:3068  contract AdvancedAPYManager {... */\n  sstore\n    /* \"contracts/contracts/lib/AdvancedAPYManager.sol\":477:479  25 */\n  0x19\n  0x03\n    /* \"contracts/contracts/lib/AdvancedAPYManager.sol\":185:3068  contract AdvancedAPYManager {... */\n  sstore\n  dataSize(sub_0)\n  swap1\n  dup2\n  dataOffset(sub_0)\n  dup3\n  codecopy\n  return\ntag_1:\n  0x00\n  dup1\n  revert\nstop\n\nsub_0: assembly {\n        /* \"contracts/contracts/lib/AdvancedAPYManager.sol\":185:3068  contract AdvancedAPYManager {... */\n      0x40\n      0x80\n      dup2\n      mstore\n      0x04\n      swap1\n      dup2\n      calldatasize\n      lt\n      iszero\n      tag_6\n      jumpi\n      0x00\n      dup1\n      revert\n    tag_6:\n      0x00\n      swap2\n      dup3\n      calldataload\n      0xe0\n      shr\n      dup1\n      0x057c0412\n      eq\n      tag_8\n      jumpi\n      dup1\n      0x214405a9\n      eq\n      tag_10\n      jumpi\n      dup1\n      0x4a7dfc8e\n      eq\n      tag_12\n      jumpi\n      dup1\n      0x5ee6efd0\n      eq\n      tag_14\n      jumpi\n      dup1\n      0xb873995a\n      eq\n      tag_16\n      jumpi\n      dup1\n      0xc134f4a1\n      eq\n      tag_18\n      jumpi\n      dup1\n      0xc90b7192\n      eq\n      tag_20\n      jumpi\n      0xe2c9313f\n      eq\n      tag_22\n      jumpi\n      0x00\n      dup1\n      revert\n    tag_22:\n      jumpi(tag_26, callvalue)\n      jumpi(tag_26, slt(add(not(0x03), calldatasize), 0x20))\n      calldataload\n      swap2\n        /* \"contracts/contracts/lib/AdvancedAPYManager.sol\":367:400  uint256[] public riskPremiumRates */\n      0x02\n        /* \"contracts/contracts/lib/AdvancedAPYManager.sol\":185:3068  contract AdvancedAPYManager {... */\n      sload\n        /* \"contracts/contracts/lib/AdvancedAPYManager.sol\":367:400  uint256[] public riskPremiumRates */\n      dup4\n      lt\n      iszero\n      tag_28\n      jumpi\n      pop\n      tag_30\n        /* \"contracts/contracts/lib/AdvancedAPYManager.sol\":185:3068  contract AdvancedAPYManager {... */\n      0x20\n        /* \"contracts/contracts/lib/AdvancedAPYManager.sol\":367:400  uint256[] public riskPremiumRates */\n      swap3\n      tag_2\n      jump\t// in\n    tag_30:\n        /* \"contracts/contracts/lib/AdvancedAPYManager.sol\":185:3068  contract AdvancedAPYManager {... */\n      swap2\n      swap1\n      sload\n      swap1\n      mload\n      swap2\n      0x03\n      shl\n      shr\n      dup2\n      mstore\n      return\n        /* \"contracts/contracts/lib/AdvancedAPYManager.sol\":367:400  uint256[] public riskPremiumRates */\n    tag_28:\n      dup1\n      revert\n        /* \"contracts/contracts/lib/AdvancedAPYManager.sol\":185:3068  contract AdvancedAPYManager {... */\n    tag_26:\n      dup3\n      dup1\n      revert\n    tag_20:\n      dup4\n      dup3\n      jumpi(tag_33, callvalue)\n      jumpi(tag_33, slt(add(not(0x03), calldatasize), 0x20))\n      calldataload\n      0x03\n      sstore\n      dup1\n      return\n    tag_33:\n      pop\n      dup1\n      revert\n    tag_18:\n      pop\n      pop\n      jumpi(tag_33, callvalue)\n      dup2\n      add(calldatasize, not(0x03))\n      slt\n      tag_33\n      jumpi\n      0x20\n      swap1\n      sload(0x03)\n      swap1\n      mload\n      swap1\n      dup2\n      mstore\n      return\n    tag_16:\n      pop\n      swap2\n      jumpi(tag_28, callvalue)\n      dup2\n      add(calldatasize, not(0x03))\n      slt\n      tag_28\n      jumpi\n        /* \"contracts/contracts/lib/AdvancedAPYManager.sol\":1009:1041  calculateRiskPremium(loanAmount) */\n      tag_43\n        /* \"contracts/contracts/lib/AdvancedAPYManager.sol\":185:3068  contract AdvancedAPYManager {... */\n      dup4\n      calldataload\n        /* \"contracts/contracts/lib/AdvancedAPYManager.sol\":1009:1041  calculateRiskPremium(loanAmount) */\n      tag_5\n      jump\t// in\n    tag_43:\n        /* \"contracts/contracts/lib/AdvancedAPYManager.sol\":185:3068  contract AdvancedAPYManager {... */\n      sload(0x03)\n        /* \"contracts/contracts/lib/AdvancedAPYManager.sol\":2054:2062  365 days */\n      0x01e13380\n        /* \"contracts/contracts/lib/AdvancedAPYManager.sol\":185:3068  contract AdvancedAPYManager {... */\n      calldataload(0x24)\n      div\n      dup2\n      dup2\n      mul\n      swap4\n      swap2\n      dup2\n      iszero\n      swap2\n      dup6\n      div\n      eq\n      or\n      iszero\n      tag_44\n      jumpi\n      swap2\n        /* \"contracts/contracts/lib/AdvancedAPYManager.sol\":1135:1156  baseAPY + riskPremium */\n      tag_46\n        /* \"contracts/contracts/lib/AdvancedAPYManager.sol\":1135:1172  baseAPY + riskPremium + durationBonus */\n      tag_47\n        /* \"contracts/contracts/lib/AdvancedAPYManager.sol\":185:3068  contract AdvancedAPYManager {... */\n      swap3\n      0x20\n      swap6\n      swap5\n      sload\n        /* \"contracts/contracts/lib/AdvancedAPYManager.sol\":1135:1156  baseAPY + riskPremium */\n      tag_4\n      jump\t// in\n    tag_46:\n        /* \"contracts/contracts/lib/AdvancedAPYManager.sol\":1135:1172  baseAPY + riskPremium + durationBonus */\n      tag_4\n      jump\t// in\n    tag_47:\n        /* \"contracts/contracts/lib/AdvancedAPYManager.sol\":185:3068  contract AdvancedAPYManager {... */\n      swap1\n      mload\n      swap1\n      dup2\n      mstore\n      return\n    tag_44:\n      shl(0xe0, 0x4e487b71)\n      dup2\n      mstore\n      0x11\n      dup6\n      mstore\n      0x24\n      swap1\n      revert\n    tag_14:\n      dup4\n      dup3\n      jumpi(tag_33, callvalue)\n      jumpi(tag_33, slt(add(not(0x03), calldatasize), 0x20))\n      calldataload\n      dup2\n      sstore\n      dup1\n      return\n    tag_12:\n      pop\n      swap1\n      jumpi(tag_26, callvalue)\n      dup1\n      add(calldatasize, not(0x03))\n      slt\n      tag_26\n      jumpi\n      0xffffffffffffffff\n      swap1\n      dup3\n      calldataload\n      dup3\n      dup2\n      gt\n      tag_56\n      jumpi\n      tag_58\n      swap1\n      calldatasize\n      swap1\n      dup6\n      add\n      tag_3\n      jump\t// in\n    tag_58:\n      swap1\n      swap4\n      0x24\n      swap2\n      dup3\n      calldataload\n      dup6\n      dup2\n      gt\n      tag_59\n      jumpi\n      tag_61\n      swap1\n      calldatasize\n      swap1\n      dup5\n      add\n      tag_3\n      jump\t// in\n    tag_61:\n        /* \"contracts/contracts/lib/AdvancedAPYManager.sol\":2436:2471  _thresholds.length == _rates.length */\n      swap6\n      swap1\n      swap5\n      dup7\n      dup4\n      sub\n        /* \"contracts/contracts/lib/AdvancedAPYManager.sol\":185:3068  contract AdvancedAPYManager {... */\n      tag_62\n      jumpi\n      pop\n      dup1\n      dup3\n      gt\n      tag_64\n      jumpi\n      0x010000000000000000\n      swap2\n      dup3\n      dup2\n      gt\n      tag_66\n      jumpi\n        /* \"contracts/contracts/lib/AdvancedAPYManager.sol\":2511:2546  riskPremiumThresholds = _thresholds */\n      0x01\n        /* \"contracts/contracts/lib/AdvancedAPYManager.sol\":185:3068  contract AdvancedAPYManager {... */\n      swap8\n      dup9\n      sload\n      dup3\n      dup11\n      sstore\n      dup1\n      dup4\n      lt\n      tag_68\n      jumpi\n    tag_69:\n      pop\n      dup9\n      dup11\n    tag_70:\n      dup4\n      dup2\n      lt\n      tag_71\n      jumpi\n      pop\n      pop\n      pop\n      pop\n      dup6\n      gt\n      tag_73\n      jumpi\n      dup5\n      gt\n      tag_75\n      jumpi\n      pop\n      pop\n        /* \"contracts/contracts/lib/AdvancedAPYManager.sol\":2557:2582  riskPremiumRates = _rates */\n      0x02\n        /* \"contracts/contracts/lib/AdvancedAPYManager.sol\":185:3068  contract AdvancedAPYManager {... */\n      sload\n      dup3\n        /* \"contracts/contracts/lib/AdvancedAPYManager.sol\":2557:2582  riskPremiumRates = _rates */\n      0x02\n        /* \"contracts/contracts/lib/AdvancedAPYManager.sol\":185:3068  contract AdvancedAPYManager {... */\n      sstore\n      dup1\n      dup4\n      lt\n      tag_77\n      jumpi\n    tag_78:\n      pop\n      dup4\n    tag_79:\n      dup3\n      dup2\n      lt\n      tag_80\n      jumpi\n      dup5\n      dup1\n      return\n    tag_80:\n      dup4\n      swap1\n      0x20\n      dup4\n      calldataload\n      swap4\n      add\n      swap3\n      dup2\n      0x405787fa12a823e0f2b7631cc41b3ba8828b3321ca811111fa75cd3aa3bb5ace\n      add\n      sstore\n      add\n      jump(tag_79)\n    tag_77:\n      dup4\n      dup4\n      0x405787fa12a823e0f2b7631cc41b3ba8828b3321ca811111fa75cd3aa3bb5ace\n      swap3\n      dup4\n      add\n      swap3\n      add\n    tag_82:\n      dup3\n      dup2\n      lt\n      tag_83\n      jumpi\n      pop\n      pop\n      jump(tag_78)\n    tag_83:\n      dup7\n      dup2\n      sstore\n      add\n      dup5\n      swap1\n      jump(tag_82)\n    tag_75:\n      shl(0xe0, 0x4e487b71)\n      dup7\n      mstore\n      0x41\n      swap1\n      mstore\n      dup5\n      revert\n    tag_73:\n      pop\n      shl(0xe0, 0x4e487b71)\n      dup7\n      mstore\n      0x41\n      swap1\n      mstore\n      dup5\n      revert\n    tag_71:\n      0x20\n      dup4\n      calldataload\n      swap4\n      add\n      swap3\n      dup2\n      0xb10e2d527612073b26eecdfd717e6a320cf44b4afac2b0732d9fcbe2b7fa0cf6\n      add\n      sstore\n      add\n      dup10\n      swap1\n      jump(tag_70)\n    tag_68:\n      dup10\n      dup4\n      0xb10e2d527612073b26eecdfd717e6a320cf44b4afac2b0732d9fcbe2b7fa0cf6\n      swap3\n      dup4\n      add\n      swap3\n      add\n    tag_85:\n      dup3\n      dup2\n      lt\n      tag_86\n      jumpi\n      pop\n      pop\n      jump(tag_69)\n    tag_86:\n      dup13\n      dup2\n      sstore\n      add\n      dup11\n      swap1\n      jump(tag_85)\n    tag_66:\n      shl(0xe0, 0x4e487b71)\n      dup10\n      mstore\n      0x41\n      dup5\n      mstore\n      dup5\n      dup10\n      revert\n    tag_64:\n      shl(0xe0, 0x4e487b71)\n      dup9\n      mstore\n      0x41\n      dup4\n      mstore\n      dup4\n      dup9\n      revert\n    tag_62:\n      mload\n      shl(0xe5, 0x461bcd)\n      dup2\n      mstore\n      0x20\n      dup2\n      dup6\n      add\n      mstore\n      0x18\n      dup2\n      dup7\n      add\n      mstore\n      0x4d69736d61746368656420696e707574206c656e677468730000000000000000\n      0x44\n      dup3\n      add\n      mstore\n      0x64\n      swap1\n      revert\n    tag_59:\n      dup8\n      dup1\n      revert\n    tag_56:\n      dup5\n      dup1\n      revert\n    tag_10:\n      pop\n      pop\n      jumpi(tag_33, callvalue)\n      dup2\n      add(calldatasize, not(0x03))\n      slt\n      tag_33\n      jumpi\n      0x20\n      swap2\n      sload\n      swap1\n      mload\n      swap1\n      dup2\n      mstore\n      return\n    tag_8:\n      pop\n      jumpi(tag_26, callvalue)\n      jumpi(tag_26, slt(add(not(0x03), calldatasize), 0x20))\n      calldataload\n      swap2\n      sload(0x01)\n        /* \"contracts/contracts/lib/AdvancedAPYManager.sol\":291:329  uint256[] public riskPremiumThresholds */\n      dup4\n      lt\n      iszero\n      tag_28\n      jumpi\n      pop\n      tag_30\n        /* \"contracts/contracts/lib/AdvancedAPYManager.sol\":185:3068  contract AdvancedAPYManager {... */\n      0x20\n        /* \"contracts/contracts/lib/AdvancedAPYManager.sol\":291:329  uint256[] public riskPremiumThresholds */\n      swap3\n        /* \"contracts/contracts/lib/AdvancedAPYManager.sol\":185:3068  contract AdvancedAPYManager {... */\n    tag_1:\n        /* \"contracts/contracts/lib/AdvancedAPYManager.sol\":291:329  uint256[] public riskPremiumThresholds */\n      0x01\n        /* \"contracts/contracts/lib/AdvancedAPYManager.sol\":185:3068  contract AdvancedAPYManager {... */\n      sload\n      dup2\n      lt\n      iszero\n      tag_99\n      jumpi\n        /* \"contracts/contracts/lib/AdvancedAPYManager.sol\":291:329  uint256[] public riskPremiumThresholds */\n      0x01\n      0x00\n        /* \"contracts/contracts/lib/AdvancedAPYManager.sol\":185:3068  contract AdvancedAPYManager {... */\n      mstore\n      0xb10e2d527612073b26eecdfd717e6a320cf44b4afac2b0732d9fcbe2b7fa0cf6\n      add\n      swap1\n      0x00\n      swap1\n      jump\t// out\n    tag_99:\n      mstore(0x00, shl(0xe0, 0x4e487b71))\n      mstore(0x04, 0x32)\n      revert(0x00, 0x24)\n    tag_2:\n        /* \"contracts/contracts/lib/AdvancedAPYManager.sol\":367:400  uint256[] public riskPremiumRates */\n      0x02\n        /* \"contracts/contracts/lib/AdvancedAPYManager.sol\":185:3068  contract AdvancedAPYManager {... */\n      sload\n      dup2\n      lt\n      iszero\n      tag_99\n      jumpi\n        /* \"contracts/contracts/lib/AdvancedAPYManager.sol\":367:400  uint256[] public riskPremiumRates */\n      0x02\n      0x00\n        /* \"contracts/contracts/lib/AdvancedAPYManager.sol\":185:3068  contract AdvancedAPYManager {... */\n      mstore\n      0x405787fa12a823e0f2b7631cc41b3ba8828b3321ca811111fa75cd3aa3bb5ace\n      add\n      swap1\n      0x00\n      swap1\n      jump\t// out\n    tag_3:\n      swap2\n      dup2\n      0x1f\n      dup5\n      add\n      slt\n      iszero\n      tag_107\n      jumpi\n      dup3\n      calldataload\n      swap2\n      0xffffffffffffffff\n      dup4\n      gt\n      tag_107\n      jumpi\n      0x20\n      dup1\n      dup6\n      add\n      swap5\n      dup5\n      0x05\n      shl\n      add\n      add\n      gt\n      tag_107\n      jumpi\n      jump\t// out\n    tag_107:\n      0x00\n      dup1\n      revert\n    tag_4:\n      swap2\n      swap1\n      dup3\n      add\n      dup1\n      swap3\n      gt\n      tag_109\n      jumpi\n      jump\t// out\n    tag_109:\n      mstore(0x00, shl(0xe0, 0x4e487b71))\n      mstore(0x04, 0x11)\n      revert(0x00, 0x24)\n        /* \"contracts/contracts/lib/AdvancedAPYManager.sol\":1400:1709  function calculateRiskPremium(uint256 loanAmount) internal view returns (uint256) {... */\n    tag_5:\n        /* \"contracts/contracts/lib/AdvancedAPYManager.sol\":1510:1511  0 */\n      0x00\n        /* \"contracts/contracts/lib/AdvancedAPYManager.sol\":1517:1538  riskPremiumThresholds */\n      0x01\n        /* \"contracts/contracts/lib/AdvancedAPYManager.sol\":185:3068  contract AdvancedAPYManager {... */\n      swap2\n      dup3\n      sload\n        /* \"contracts/contracts/lib/AdvancedAPYManager.sol\":1493:1683  for (uint256 i = 0; i < riskPremiumThresholds.length; i++) {... */\n      swap2\n        /* \"contracts/contracts/lib/AdvancedAPYManager.sol\":1513:1545  i < riskPremiumThresholds.length */\n    tag_111:\n      dup3\n      dup2\n      lt\n      tag_112\n      jumpi\n        /* \"contracts/contracts/lib/AdvancedAPYManager.sol\":1693:1701  return 0 */\n      pop\n      pop\n      pop\n      pop\n        /* \"contracts/contracts/lib/AdvancedAPYManager.sol\":1510:1511  0 */\n      0x00\n        /* \"contracts/contracts/lib/AdvancedAPYManager.sol\":1400:1709  function calculateRiskPremium(uint256 loanAmount) internal view returns (uint256) {... */\n      swap1\n      jump\t// out\n        /* \"contracts/contracts/lib/AdvancedAPYManager.sol\":1547:1550  i++ */\n    tag_112:\n        /* \"contracts/contracts/lib/AdvancedAPYManager.sol\":1585:1609  riskPremiumThresholds[i] */\n      tag_114\n      dup2\n      tag_1\n      jump\t// in\n    tag_114:\n        /* \"contracts/contracts/lib/AdvancedAPYManager.sol\":185:3068  contract AdvancedAPYManager {... */\n      swap1\n      sload\n      0x03\n      swap2\n      dup3\n      shl\n      shr\n        /* \"contracts/contracts/lib/AdvancedAPYManager.sol\":1571:1609  loanAmount <= riskPremiumThresholds[i] */\n      dup4\n      gt\n      iszero\n        /* \"contracts/contracts/lib/AdvancedAPYManager.sol\":1567:1672  if (loanAmount <= riskPremiumThresholds[i]) {... */\n      tag_115\n      jumpi\n      pop\n      not(0x00)\n        /* \"contracts/contracts/lib/AdvancedAPYManager.sol\":185:3068  contract AdvancedAPYManager {... */\n      dup2\n      eq\n      tag_109\n      jumpi\n      dup4\n      add\n        /* \"contracts/contracts/lib/AdvancedAPYManager.sol\":1498:1511  uint256 i = 0 */\n      jump(tag_111)\n        /* \"contracts/contracts/lib/AdvancedAPYManager.sol\":1567:1672  if (loanAmount <= riskPremiumThresholds[i]) {... */\n    tag_115:\n        /* \"contracts/contracts/lib/AdvancedAPYManager.sol\":1637:1656  riskPremiumRates[i] */\n      swap4\n      pop\n      swap1\n      pop\n      tag_119\n      swap2\n      pop\n      tag_2\n      jump\t// in\n    tag_119:\n        /* \"contracts/contracts/lib/AdvancedAPYManager.sol\":185:3068  contract AdvancedAPYManager {... */\n      swap1\n      sload\n      swap2\n      shl\n      shr\n        /* \"contracts/contracts/lib/AdvancedAPYManager.sol\":1630:1656  return riskPremiumRates[i] */\n      swap1\n      jump\t// out\n\n    auxdata: 0xa264697066735822122018be0c42bc1dd40839ab4b789d5566cf34168ca5fac36bb07b4a0ada0d7810cd64736f6c63430008140033\n}\n",
				"bytecode": {
					"linkReferences": {},
					"object": "6080806040523461001f5760645f55601960035561054b90816100248239f35b5f80fdfe60406080815260049081361015610014575f80fd5b5f91823560e01c8063057c0412146103c6578063214405a9146103a95780634a7dfc8e146101745780635ee6efd01461015b578063b873995a146100f1578063c134f4a1146100d2578063c90b7192146100b45763e2c9313f14610076575f80fd5b346100b05760203660031901126100b05735916002548310156100ad575061009f602092610435565b91905490519160031b1c8152f35b80fd5b8280fd5b8382346100ce5760203660031901126100ce573560035580f35b5080fd5b5050346100ce57816003193601126100ce576020906003549051908152f35b5091346100ad57816003193601126100ad5761010d83356104c0565b6003546301e133806024350481810293918115918504141715610148579161013c61014192602095945461049f565b61049f565b9051908152f35b634e487b7160e01b815260118552602490fd5b8382346100ce5760203660031901126100ce5735815580f35b5090346100b057806003193601126100b05767ffffffffffffffff9082358281116103a5576101a6903690850161046a565b909360249182358581116103a1576101c1903690840161046a565b959094868303610360575080821161034e57680100000000000000009182811161033c576001978854828a558083106102fa575b50888a5b8381106102c7575050505085116102b55784116102a457505060025482600255808310610262575b50835b82811061022f578480f35b839060208335930192817f405787fa12a823e0f2b7631cc41b3ba8828b3321ca811111fa75cd3aa3bb5ace015501610224565b83837f405787fa12a823e0f2b7631cc41b3ba8828b3321ca811111fa75cd3aa3bb5ace92830192015b828110610299575050610221565b86815501849061028b565b634e487b7160e01b86526041905284fd5b50634e487b7160e01b86526041905284fd5b60208335930192817fb10e2d527612073b26eecdfd717e6a320cf44b4afac2b0732d9fcbe2b7fa0cf601550189906101f9565b89837fb10e2d527612073b26eecdfd717e6a320cf44b4afac2b0732d9fcbe2b7fa0cf692830192015b8281106103315750506101f5565b8c8155018a90610323565b634e487b7160e01b8952604184528489fd5b634e487b7160e01b8852604183528388fd5b5162461bcd60e51b81526020818501526018818601527f4d69736d61746368656420696e707574206c656e6774687300000000000000006044820152606490fd5b8780fd5b8480fd5b5050346100ce57816003193601126100ce57602091549051908152f35b50346100b05760203660031901126100b05735916001548310156100ad575061009f6020925b6001548110156104215760015f527fb10e2d527612073b26eecdfd717e6a320cf44b4afac2b0732d9fcbe2b7fa0cf601905f90565b634e487b7160e01b5f52603260045260245ffd5b6002548110156104215760025f527f405787fa12a823e0f2b7631cc41b3ba8828b3321ca811111fa75cd3aa3bb5ace01905f90565b9181601f8401121561049b5782359167ffffffffffffffff831161049b576020808501948460051b01011161049b57565b5f80fd5b919082018092116104ac57565b634e487b7160e01b5f52601160045260245ffd5b5f6001918254915b8281106104d757505050505f90565b6104e0816103ec565b9054600391821b1c8311156104ff57505f1981146104ac5783016104c8565b9350905061050d9150610435565b9054911b1c9056fea264697066735822122018be0c42bc1dd40839ab4b789d5566cf34168ca5fac36bb07b4a0ada0d7810cd64736f6c63430008140033",
					"opcodes": "PUSH1 0x80 DUP1 PUSH1 0x40 MSTORE CALLVALUE PUSH2 0x1F JUMPI PUSH1 0x64 PUSH0 SSTORE PUSH1 0x19 PUSH1 0x3 SSTORE PUSH2 0x54B SWAP1 DUP2 PUSH2 0x24 DUP3 CODECOPY RETURN JUMPDEST PUSH0 DUP1 REVERT INVALID PUSH1 0x40 PUSH1 0x80 DUP2 MSTORE PUSH1 0x4 SWAP1 DUP2 CALLDATASIZE LT ISZERO PUSH2 0x14 JUMPI PUSH0 DUP1 REVERT JUMPDEST PUSH0 SWAP2 DUP3 CALLDATALOAD PUSH1 0xE0 SHR DUP1 PUSH4 0x57C0412 EQ PUSH2 0x3C6 JUMPI DUP1 PUSH4 0x214405A9 EQ PUSH2 0x3A9 JUMPI DUP1 PUSH4 0x4A7DFC8E EQ PUSH2 0x174 JUMPI DUP1 PUSH4 0x5EE6EFD0 EQ PUSH2 0x15B JUMPI DUP1 PUSH4 0xB873995A EQ PUSH2 0xF1 JUMPI DUP1 PUSH4 0xC134F4A1 EQ PUSH2 0xD2 JUMPI DUP1 PUSH4 0xC90B7192 EQ PUSH2 0xB4 JUMPI PUSH4 0xE2C9313F EQ PUSH2 0x76 JUMPI PUSH0 DUP1 REVERT JUMPDEST CALLVALUE PUSH2 0xB0 JUMPI PUSH1 0x20 CALLDATASIZE PUSH1 0x3 NOT ADD SLT PUSH2 0xB0 JUMPI CALLDATALOAD SWAP2 PUSH1 0x2 SLOAD DUP4 LT ISZERO PUSH2 0xAD JUMPI POP PUSH2 0x9F PUSH1 0x20 SWAP3 PUSH2 0x435 JUMP JUMPDEST SWAP2 SWAP1 SLOAD SWAP1 MLOAD SWAP2 PUSH1 0x3 SHL SHR DUP2 MSTORE RETURN JUMPDEST DUP1 REVERT JUMPDEST DUP3 DUP1 REVERT JUMPDEST DUP4 DUP3 CALLVALUE PUSH2 0xCE JUMPI PUSH1 0x20 CALLDATASIZE PUSH1 0x3 NOT ADD SLT PUSH2 0xCE JUMPI CALLDATALOAD PUSH1 0x3 SSTORE DUP1 RETURN JUMPDEST POP DUP1 REVERT JUMPDEST POP POP CALLVALUE PUSH2 0xCE JUMPI DUP2 PUSH1 0x3 NOT CALLDATASIZE ADD SLT PUSH2 0xCE JUMPI PUSH1 0x20 SWAP1 PUSH1 0x3 SLOAD SWAP1 MLOAD SWAP1 DUP2 MSTORE RETURN JUMPDEST POP SWAP2 CALLVALUE PUSH2 0xAD JUMPI DUP2 PUSH1 0x3 NOT CALLDATASIZE ADD SLT PUSH2 0xAD JUMPI PUSH2 0x10D DUP4 CALLDATALOAD PUSH2 0x4C0 JUMP JUMPDEST PUSH1 0x3 SLOAD PUSH4 0x1E13380 PUSH1 0x24 CALLDATALOAD DIV DUP2 DUP2 MUL SWAP4 SWAP2 DUP2 ISZERO SWAP2 DUP6 DIV EQ OR ISZERO PUSH2 0x148 JUMPI SWAP2 PUSH2 0x13C PUSH2 0x141 SWAP3 PUSH1 0x20 SWAP6 SWAP5 SLOAD PUSH2 0x49F JUMP JUMPDEST PUSH2 0x49F JUMP JUMPDEST SWAP1 MLOAD SWAP1 DUP2 MSTORE RETURN JUMPDEST PUSH4 0x4E487B71 PUSH1 0xE0 SHL DUP2 MSTORE PUSH1 0x11 DUP6 MSTORE PUSH1 0x24 SWAP1 REVERT JUMPDEST DUP4 DUP3 CALLVALUE PUSH2 0xCE JUMPI PUSH1 0x20 CALLDATASIZE PUSH1 0x3 NOT ADD SLT PUSH2 0xCE JUMPI CALLDATALOAD DUP2 SSTORE DUP1 RETURN JUMPDEST POP SWAP1 CALLVALUE PUSH2 0xB0 JUMPI DUP1 PUSH1 0x3 NOT CALLDATASIZE ADD SLT PUSH2 0xB0 JUMPI PUSH8 0xFFFFFFFFFFFFFFFF SWAP1 DUP3 CALLDATALOAD DUP3 DUP2 GT PUSH2 0x3A5 JUMPI PUSH2 0x1A6 SWAP1 CALLDATASIZE SWAP1 DUP6 ADD PUSH2 0x46A JUMP JUMPDEST SWAP1 SWAP4 PUSH1 0x24 SWAP2 DUP3 CALLDATALOAD DUP6 DUP2 GT PUSH2 0x3A1 JUMPI PUSH2 0x1C1 SWAP1 CALLDATASIZE SWAP1 DUP5 ADD PUSH2 0x46A JUMP JUMPDEST SWAP6 SWAP1 SWAP5 DUP7 DUP4 SUB PUSH2 0x360 JUMPI POP DUP1 DUP3 GT PUSH2 0x34E JUMPI PUSH9 0x10000000000000000 SWAP2 DUP3 DUP2 GT PUSH2 0x33C JUMPI PUSH1 0x1 SWAP8 DUP9 SLOAD DUP3 DUP11 SSTORE DUP1 DUP4 LT PUSH2 0x2FA JUMPI JUMPDEST POP DUP9 DUP11 JUMPDEST DUP4 DUP2 LT PUSH2 0x2C7 JUMPI POP POP POP POP DUP6 GT PUSH2 0x2B5 JUMPI DUP5 GT PUSH2 0x2A4 JUMPI POP POP PUSH1 0x2 SLOAD DUP3 PUSH1 0x2 SSTORE DUP1 DUP4 LT PUSH2 0x262 JUMPI JUMPDEST POP DUP4 JUMPDEST DUP3 DUP2 LT PUSH2 0x22F JUMPI DUP5 DUP1 RETURN JUMPDEST DUP4 SWAP1 PUSH1 0x20 DUP4 CALLDATALOAD SWAP4 ADD SWAP3 DUP2 PUSH32 0x405787FA12A823E0F2B7631CC41B3BA8828B3321CA811111FA75CD3AA3BB5ACE ADD SSTORE ADD PUSH2 0x224 JUMP JUMPDEST DUP4 DUP4 PUSH32 0x405787FA12A823E0F2B7631CC41B3BA8828B3321CA811111FA75CD3AA3BB5ACE SWAP3 DUP4 ADD SWAP3 ADD JUMPDEST DUP3 DUP2 LT PUSH2 0x299 JUMPI POP POP PUSH2 0x221 JUMP JUMPDEST DUP7 DUP2 SSTORE ADD DUP5 SWAP1 PUSH2 0x28B JUMP JUMPDEST PUSH4 0x4E487B71 PUSH1 0xE0 SHL DUP7 MSTORE PUSH1 0x41 SWAP1 MSTORE DUP5 REVERT JUMPDEST POP PUSH4 0x4E487B71 PUSH1 0xE0 SHL DUP7 MSTORE PUSH1 0x41 SWAP1 MSTORE DUP5 REVERT JUMPDEST PUSH1 0x20 DUP4 CALLDATALOAD SWAP4 ADD SWAP3 DUP2 PUSH32 0xB10E2D527612073B26EECDFD717E6A320CF44B4AFAC2B0732D9FCBE2B7FA0CF6 ADD SSTORE ADD DUP10 SWAP1 PUSH2 0x1F9 JUMP JUMPDEST DUP10 DUP4 PUSH32 0xB10E2D527612073B26EECDFD717E6A320CF44B4AFAC2B0732D9FCBE2B7FA0CF6 SWAP3 DUP4 ADD SWAP3 ADD JUMPDEST DUP3 DUP2 LT PUSH2 0x331 JUMPI POP POP PUSH2 0x1F5 JUMP JUMPDEST DUP13 DUP2 SSTORE ADD DUP11 SWAP1 PUSH2 0x323 JUMP JUMPDEST PUSH4 0x4E487B71 PUSH1 0xE0 SHL DUP10 MSTORE PUSH1 0x41 DUP5 MSTORE DUP5 DUP10 REVERT JUMPDEST PUSH4 0x4E487B71 PUSH1 0xE0 SHL DUP9 MSTORE PUSH1 0x41 DUP4 MSTORE DUP4 DUP9 REVERT JUMPDEST MLOAD PUSH3 0x461BCD PUSH1 0xE5 SHL DUP2 MSTORE PUSH1 0x20 DUP2 DUP6 ADD MSTORE PUSH1 0x18 DUP2 DUP7 ADD MSTORE PUSH32 0x4D69736D61746368656420696E707574206C656E677468730000000000000000 PUSH1 0x44 DUP3 ADD MSTORE PUSH1 0x64 SWAP1 REVERT JUMPDEST DUP8 DUP1 REVERT JUMPDEST DUP5 DUP1 REVERT JUMPDEST POP POP CALLVALUE PUSH2 0xCE JUMPI DUP2 PUSH1 0x3 NOT CALLDATASIZE ADD SLT PUSH2 0xCE JUMPI PUSH1 0x20 SWAP2 SLOAD SWAP1 MLOAD SWAP1 DUP2 MSTORE RETURN JUMPDEST POP CALLVALUE PUSH2 0xB0 JUMPI PUSH1 0x20 CALLDATASIZE PUSH1 0x3 NOT ADD SLT PUSH2 0xB0 JUMPI CALLDATALOAD SWAP2 PUSH1 0x1 SLOAD DUP4 LT ISZERO PUSH2 0xAD JUMPI POP PUSH2 0x9F PUSH1 0x20 SWAP3 JUMPDEST PUSH1 0x1 SLOAD DUP2 LT ISZERO PUSH2 0x421 JUMPI PUSH1 0x1 PUSH0 MSTORE PUSH32 0xB10E2D527612073B26EECDFD717E6A320CF44B4AFAC2B0732D9FCBE2B7FA0CF6 ADD SWAP1 PUSH0 SWAP1 JUMP JUMPDEST PUSH4 0x4E487B71 PUSH1 0xE0 SHL PUSH0 MSTORE PUSH1 0x32 PUSH1 0x4 MSTORE PUSH1 0x24 PUSH0 REVERT JUMPDEST PUSH1 0x2 SLOAD DUP2 LT ISZERO PUSH2 0x421 JUMPI PUSH1 0x2 PUSH0 MSTORE PUSH32 0x405787FA12A823E0F2B7631CC41B3BA8828B3321CA811111FA75CD3AA3BB5ACE ADD SWAP1 PUSH0 SWAP1 JUMP JUMPDEST SWAP2 DUP2 PUSH1 0x1F DUP5 ADD SLT ISZERO PUSH2 0x49B JUMPI DUP3 CALLDATALOAD SWAP2 PUSH8 0xFFFFFFFFFFFFFFFF DUP4 GT PUSH2 0x49B JUMPI PUSH1 0x20 DUP1 DUP6 ADD SWAP5 DUP5 PUSH1 0x5 SHL ADD ADD GT PUSH2 0x49B JUMPI JUMP JUMPDEST PUSH0 DUP1 REVERT JUMPDEST SWAP2 SWAP1 DUP3 ADD DUP1 SWAP3 GT PUSH2 0x4AC JUMPI JUMP JUMPDEST PUSH4 0x4E487B71 PUSH1 0xE0 SHL PUSH0 MSTORE PUSH1 0x11 PUSH1 0x4 MSTORE PUSH1 0x24 PUSH0 REVERT JUMPDEST PUSH0 PUSH1 0x1 SWAP2 DUP3 SLOAD SWAP2 JUMPDEST DUP3 DUP2 LT PUSH2 0x4D7 JUMPI POP POP POP POP PUSH0 SWAP1 JUMP JUMPDEST PUSH2 0x4E0 DUP2 PUSH2 0x3EC JUMP JUMPDEST SWAP1 SLOAD PUSH1 0x3 SWAP2 DUP3 SHL SHR DUP4 GT ISZERO PUSH2 0x4FF JUMPI POP PUSH0 NOT DUP2 EQ PUSH2 0x4AC JUMPI DUP4 ADD PUSH2 0x4C8 JUMP JUMPDEST SWAP4 POP SWAP1 POP PUSH2 0x50D SWAP2 POP PUSH2 0x435 JUMP JUMPDEST SWAP1 SLOAD SWAP2 SHL SHR SWAP1 JUMP INVALID LOG2 PUSH5 0x6970667358 0x22 SLT KECCAK256 XOR 0xBE 0xC TIMESTAMP 0xBC SAR 0xD4 ADDMOD CODECOPY 0xAB 0x4B PUSH25 0x9D5566CF34168CA5FAC36BB07B4A0ADA0D7810CD64736F6C63 NUMBER STOP ADDMOD EQ STOP CALLER "
				},
				"gasEstimates": {
					"creation": {
						"codeDepositCost": "271000",
						"executionCost": "44530",
						"totalCost": "315530"
					},
					"external": {
						"baseAPY()": "2290",
						"calculateAPY(uint256,uint256)": "infinite",
						"durationBonusFactor()": "2381",
						"riskPremiumRates(uint256)": "6734",
						"riskPremiumThresholds(uint256)": "6574",
						"setBaseAPY(uint256)": "22318",
						"setDurationBonusFactor(uint256)": "22384",
						"setRiskPremiums(uint256[],uint256[])": "infinite"
					},
					"internal": {
						"calculateDurationBonus(uint256)": "infinite",
						"calculateRiskPremium(uint256)": "infinite"
					}
				},
				"methodIdentifiers": {
					"baseAPY()": "214405a9",
					"calculateAPY(uint256,uint256)": "b873995a",
					"durationBonusFactor()": "c134f4a1",
					"riskPremiumRates(uint256)": "e2c9313f",
					"riskPremiumThresholds(uint256)": "057c0412",
					"setBaseAPY(uint256)": "5ee6efd0",
					"setDurationBonusFactor(uint256)": "c90b7192",
					"setRiskPremiums(uint256[],uint256[])": "4a7dfc8e"
				}
			},
			"storageLayout": {
				"storage": [
					{
						"astId": 5,
						"contract": "contracts/contracts/lib/AdvancedAPYManager.sol:AdvancedAPYManager",
						"label": "baseAPY",
						"offset": 0,
						"slot": "0",
						"type": "t_uint256"
					},
					{
						"astId": 8,
						"contract": "contracts/contracts/lib/AdvancedAPYManager.sol:AdvancedAPYManager",
						"label": "riskPremiumThresholds",
						"offset": 0,
						"slot": "1",
						"type": "t_array(t_uint256)dyn_storage"
					},
					{
						"astId": 11,
						"contract": "contracts/contracts/lib/AdvancedAPYManager.sol:AdvancedAPYManager",
						"label": "riskPremiumRates",
						"offset": 0,
						"slot": "2",
						"type": "t_array(t_uint256)dyn_storage"
					},
					{
						"astId": 14,
						"contract": "contracts/contracts/lib/AdvancedAPYManager.sol:AdvancedAPYManager",
						"label": "durationBonusFactor",
						"offset": 0,
						"slot": "3",
						"type": "t_uint256"
					}
				],
				"types": {
					"t_array(t_uint256)dyn_storage": {
						"base": "t_uint256",
						"encoding": "dynamic_array",
						"label": "uint256[]",
						"numberOfBytes": "32"
					},
					"t_uint256": {
						"encoding": "inplace",
						"label": "uint256",
						"numberOfBytes": "32"
					}
				}
			},
			"userdoc": {
				"kind": "user",
				"methods": {
					"calculateAPY(uint256,uint256)": {
						"notice": "Calculates the current APY based on loan amount and duration."
					},
					"constructor": {
						"notice": "Initializes the contract with the lending token."
					},
					"setBaseAPY(uint256)": {
						"notice": "Allows the owner to adjust the base APY rate."
					},
					"setDurationBonusFactor(uint256)": {
						"notice": "Allows the owner to adjust the duration bonus factor."
					},
					"setRiskPremiums(uint256[],uint256[])": {
						"notice": "Sets the risk premium thresholds and rates."
					}
				},
				"version": 1
			}
		}
	}
}