{
	"contracts/contracts/protocol/TuliaPool.sol": {
		"TuliaPool": {
			"abi": [
				{
					"inputs": [
						{
							"internalType": "address",
							"name": "lender",
							"type": "address"
						},
						{
							"internalType": "address",
							"name": "loanTokenAddress",
							"type": "address"
						},
						{
							"internalType": "address",
							"name": "repaymentTokenAddress",
							"type": "address"
						},
						{
							"internalType": "address",
							"name": "collateralVaultAddress",
							"type": "address"
						},
						{
							"internalType": "uint256",
							"name": "loanAmount",
							"type": "uint256"
						},
						{
							"internalType": "uint256",
							"name": "interestRate",
							"type": "uint256"
						},
						{
							"internalType": "uint256",
							"name": "repaymentPeriod",
							"type": "uint256"
						},
						{
							"internalType": "contract IInterestModel",
							"name": "interestModel",
							"type": "address"
						},
						{
							"internalType": "contract IPermit2",
							"name": "_permit2",
							"type": "address"
						},
						{
							"internalType": "address",
							"name": "poolOrganizerAddress",
							"type": "address"
						},
						{
							"internalType": "address",
							"name": "vaultManagerAddress",
							"type": "address"
						},
						{
							"internalType": "address",
							"name": "rewardManagerAddress",
							"type": "address"
						}
					],
					"stateMutability": "nonpayable",
					"type": "constructor"
				},
				{
					"inputs": [
						{
							"internalType": "address",
							"name": "target",
							"type": "address"
						}
					],
					"name": "AddressEmptyCode",
					"type": "error"
				},
				{
					"inputs": [
						{
							"internalType": "address",
							"name": "account",
							"type": "address"
						}
					],
					"name": "AddressInsufficientBalance",
					"type": "error"
				},
				{
					"inputs": [],
					"name": "FailedInnerCall",
					"type": "error"
				},
				{
					"inputs": [
						{
							"internalType": "address",
							"name": "token",
							"type": "address"
						}
					],
					"name": "SafeERC20FailedOperation",
					"type": "error"
				},
				{
					"anonymous": false,
					"inputs": [
						{
							"indexed": true,
							"internalType": "address",
							"name": "borrower",
							"type": "address"
						},
						{
							"indexed": false,
							"internalType": "uint256",
							"name": "collateralAmount",
							"type": "uint256"
						}
					],
					"name": "LoanActivated",
					"type": "event"
				},
				{
					"anonymous": false,
					"inputs": [],
					"name": "LoanClosed",
					"type": "event"
				},
				{
					"anonymous": false,
					"inputs": [
						{
							"indexed": true,
							"internalType": "address",
							"name": "borrower",
							"type": "address"
						}
					],
					"name": "LoanDefaulted",
					"type": "event"
				},
				{
					"anonymous": false,
					"inputs": [
						{
							"indexed": false,
							"internalType": "uint256",
							"name": "loanAmount",
							"type": "uint256"
						}
					],
					"name": "LoanFunded",
					"type": "event"
				},
				{
					"anonymous": false,
					"inputs": [
						{
							"indexed": true,
							"internalType": "address",
							"name": "lender",
							"type": "address"
						},
						{
							"indexed": false,
							"internalType": "uint256",
							"name": "loanAmount",
							"type": "uint256"
						},
						{
							"indexed": false,
							"internalType": "address",
							"name": "loanToken",
							"type": "address"
						},
						{
							"indexed": false,
							"internalType": "address",
							"name": "repaymentToken",
							"type": "address"
						}
					],
					"name": "LoanOfferCreated",
					"type": "event"
				},
				{
					"anonymous": false,
					"inputs": [
						{
							"indexed": false,
							"internalType": "uint256",
							"name": "amountRepaid",
							"type": "uint256"
						}
					],
					"name": "RepaymentMade",
					"type": "event"
				},
				{
					"inputs": [],
					"name": "activateLoan",
					"outputs": [],
					"stateMutability": "nonpayable",
					"type": "function"
				},
				{
					"inputs": [],
					"name": "calculateInterest",
					"outputs": [
						{
							"internalType": "uint256",
							"name": "",
							"type": "uint256"
						}
					],
					"stateMutability": "view",
					"type": "function"
				},
				{
					"inputs": [],
					"name": "calculateRequiredCollateral",
					"outputs": [
						{
							"internalType": "uint256",
							"name": "",
							"type": "uint256"
						}
					],
					"stateMutability": "view",
					"type": "function"
				},
				{
					"inputs": [],
					"name": "checkAndHandleDefault",
					"outputs": [],
					"stateMutability": "nonpayable",
					"type": "function"
				},
				{
					"inputs": [],
					"name": "fundLoan",
					"outputs": [],
					"stateMutability": "nonpayable",
					"type": "function"
				},
				{
					"inputs": [
						{
							"internalType": "address",
							"name": "user",
							"type": "address"
						}
					],
					"name": "getCollateralAmount",
					"outputs": [
						{
							"internalType": "uint256",
							"name": "",
							"type": "uint256"
						}
					],
					"stateMutability": "view",
					"type": "function"
				},
				{
					"inputs": [],
					"name": "getFundedBlock",
					"outputs": [
						{
							"internalType": "uint256",
							"name": "",
							"type": "uint256"
						}
					],
					"stateMutability": "view",
					"type": "function"
				},
				{
					"inputs": [],
					"name": "getInterestRate",
					"outputs": [
						{
							"internalType": "uint256",
							"name": "",
							"type": "uint256"
						}
					],
					"stateMutability": "view",
					"type": "function"
				},
				{
					"inputs": [],
					"name": "getLoanAmount",
					"outputs": [
						{
							"internalType": "uint256",
							"name": "",
							"type": "uint256"
						}
					],
					"stateMutability": "view",
					"type": "function"
				},
				{
					"inputs": [],
					"name": "getLoanState",
					"outputs": [
						{
							"internalType": "enum TuliaPool.LoanState",
							"name": "",
							"type": "uint8"
						}
					],
					"stateMutability": "view",
					"type": "function"
				},
				{
					"inputs": [],
					"name": "getRepaymentPeriod",
					"outputs": [
						{
							"internalType": "uint256",
							"name": "",
							"type": "uint256"
						}
					],
					"stateMutability": "view",
					"type": "function"
				},
				{
					"inputs": [],
					"name": "loanDetails",
					"outputs": [
						{
							"internalType": "address",
							"name": "lender",
							"type": "address"
						},
						{
							"internalType": "contract IERC20",
							"name": "loanToken",
							"type": "address"
						},
						{
							"internalType": "contract IERC20",
							"name": "repaymentToken",
							"type": "address"
						},
						{
							"internalType": "contract TuliaVault",
							"name": "collateralVault",
							"type": "address"
						},
						{
							"internalType": "uint256",
							"name": "loanAmount",
							"type": "uint256"
						},
						{
							"internalType": "uint256",
							"name": "interestRate",
							"type": "uint256"
						},
						{
							"internalType": "uint256",
							"name": "repaymentPeriod",
							"type": "uint256"
						},
						{
							"internalType": "contract IInterestModel",
							"name": "interestModel",
							"type": "address"
						},
						{
							"internalType": "address",
							"name": "borrower",
							"type": "address"
						},
						{
							"internalType": "uint256",
							"name": "startBlock",
							"type": "uint256"
						},
						{
							"internalType": "uint256",
							"name": "fundedBlock",
							"type": "uint256"
						}
					],
					"stateMutability": "view",
					"type": "function"
				},
				{
					"inputs": [],
					"name": "permit2",
					"outputs": [
						{
							"internalType": "contract IPermit2",
							"name": "",
							"type": "address"
						}
					],
					"stateMutability": "view",
					"type": "function"
				},
				{
					"inputs": [],
					"name": "poolOrganizer",
					"outputs": [
						{
							"internalType": "contract IPoolOrganizer",
							"name": "",
							"type": "address"
						}
					],
					"stateMutability": "view",
					"type": "function"
				},
				{
					"inputs": [],
					"name": "repay",
					"outputs": [],
					"stateMutability": "nonpayable",
					"type": "function"
				},
				{
					"inputs": [],
					"name": "rewardManager",
					"outputs": [
						{
							"internalType": "contract IRewardManager",
							"name": "",
							"type": "address"
						}
					],
					"stateMutability": "view",
					"type": "function"
				},
				{
					"inputs": [],
					"name": "state",
					"outputs": [
						{
							"internalType": "enum TuliaPool.LoanState",
							"name": "",
							"type": "uint8"
						}
					],
					"stateMutability": "view",
					"type": "function"
				},
				{
					"inputs": [],
					"name": "vaultManager",
					"outputs": [
						{
							"internalType": "contract IVaultManager",
							"name": "",
							"type": "address"
						}
					],
					"stateMutability": "view",
					"type": "function"
				}
			],
			"devdoc": {
				"details": "This contract handles all operations regarding lending processes with integrated safety checks and state management.",
				"errors": {
					"AddressEmptyCode(address)": [
						{
							"details": "There's no code at `target` (it is not a contract)."
						}
					],
					"AddressInsufficientBalance(address)": [
						{
							"details": "The ETH balance of the account is not enough to perform the operation."
						}
					],
					"FailedInnerCall()": [
						{
							"details": "A call to an address target failed. The target may have reverted."
						}
					],
					"SafeERC20FailedOperation(address)": [
						{
							"details": "An operation with an ERC20 token failed."
						}
					]
				},
				"kind": "dev",
				"methods": {
					"constructor": {
						"params": {
							"_permit2": "Permit2 contract for ERC20 token operations.",
							"collateralVaultAddress": "Address of the vault where collateral is stored.",
							"interestModel": "Contract for calculating interest.",
							"interestRate": "Interest rate of the loan.",
							"lender": "Address of the lender initiating the loan.",
							"loanAmount": "Amount of the loan.",
							"loanTokenAddress": "ERC20 token address to be loaned.",
							"poolOrganizerAddress": "Pool Organizer contract for managing pool registrations.",
							"repaymentPeriod": "Duration over which the loan must be repaid.",
							"repaymentTokenAddress": "Token address for repayments."
						}
					}
				},
				"title": "TuliaPool",
				"version": 1
			},
			"evm": {
				"assembly": "    /* \"contracts/contracts/protocol/TuliaPool.sol\":723:11971  contract TuliaPool is ReentrancyGuard {... */\n  0x80\n  jumpi(tag_14, callvalue)\n  0x1f\n  bytecodeSize\n  codesize\n  dup2\n  swap1\n  sub\n  swap2\n  dup3\n  add\n  not(0x1f)\n  and\n  dup4\n  add\n  swap2\n  sub(shl(0x40, 0x01), 0x01)\n  dup4\n  gt\n  dup5\n  dup5\n  lt\n  or\n  tag_27\n  jumpi\n  dup1\n  dup5\n  swap3\n  0x0180\n  swap5\n  0x40\n  mstore\n  dup4\n  codecopy\n  dup2\n  add\n  sub\n  slt\n  tag_14\n  jumpi\n  tag_8\n  dup2\n  tag_1\n  jump\t// in\ntag_8:\n  tag_9\n  0x20\n  dup4\n  add\n  tag_1\n  jump\t// in\ntag_9:\n  swap2\n  tag_10\n  0x40\n  dup3\n  add\n  tag_1\n  jump\t// in\ntag_10:\n  swap2\n  tag_11\n  0x60\n  dup4\n  add\n  tag_1\n  jump\t// in\ntag_11:\n  swap3\n  0x80\n  dup4\n  add\n  mload\n  swap5\n  0xa0\n  dup5\n  add\n  mload\n  swap4\n  0xc0\n  dup2\n  add\n  mload\n  swap1\n  0xe0\n  dup2\n  add\n  mload\n  0x01\n  dup1\n  0xa0\n  shl\n  sub\n  dup2\n  and\n  dup2\n  sub\n  tag_14\n  jumpi\n  0x0100\n  dup3\n  add\n  mload\n  swap2\n  sub(shl(0xa0, 0x01), 0x01)\n  dup4\n  and\n  dup4\n  sub\n  tag_14\n  jumpi\n  tag_16\n  0x0120\n  dup3\n  add\n  tag_1\n  jump\t// in\ntag_16:\n  tag_17\n  0x0160\n  tag_18\n  0x0140\n  dup6\n  add\n  tag_1\n  jump\t// in\ntag_18:\n  swap4\n  add\n  tag_1\n  jump\t// in\ntag_17:\n  sstore(0x00, 0x01)\n  swap4\n  sub(shl(0xa0, 0x01), 0x01)\n  dup10\n  and\n    /* \"contracts/contracts/protocol/TuliaPool.sol\":3935:3955  lender != address(0) */\n  iszero\n  iszero\n  dup1\n    /* \"contracts/contracts/protocol/TuliaPool.sol\":3935:4005  lender != address(0) &&... */\n  tag_19\n  jumpi\ntag_20:\n    /* \"contracts/contracts/protocol/TuliaPool.sol\":3935:4061  lender != address(0) &&... */\n  dup1\n  tag_21\n  jumpi\ntag_22:\n    /* \"contracts/contracts/protocol/TuliaPool.sol\":3935:4116  lender != address(0) &&... */\n  dup1\n  tag_23\n  jumpi\ntag_24:\n    /* \"contracts/contracts/protocol/TuliaPool.sol\":723:11971  contract TuliaPool is ReentrancyGuard {... */\n  iszero\n  tag_25\n  jumpi\n  0x01\n  dup1\n  sload\n  not(sub(shl(0xa0, 0x01), 0x01))\n  swap1\n  dup2\n  and\n  sub(shl(0xa0, 0x01), 0x01)\n  swap4\n  dup5\n  and\n  or\n  swap1\n  swap2\n  sstore\n    /* \"contracts/contracts/protocol/TuliaPool.sol\":4203:4255  poolOrganizer = IPoolOrganizer(poolOrganizerAddress) */\n  0x02\n    /* \"contracts/contracts/protocol/TuliaPool.sol\":723:11971  contract TuliaPool is ReentrancyGuard {... */\n  dup1\n  sload\n  dup3\n  and\n  swap4\n  dup4\n  and\n  swap4\n  swap1\n  swap4\n  or\n  swap1\n  swap3\n  sstore\n    /* \"contracts/contracts/protocol/TuliaPool.sol\":4265:4314  vaultManager = IVaultManager(vaultManagerAddress) */\n  0x03\n    /* \"contracts/contracts/protocol/TuliaPool.sol\":723:11971  contract TuliaPool is ReentrancyGuard {... */\n  dup1\n  sload\n  swap1\n  swap3\n  and\n  swap3\n  and\n  swap2\n  swap1\n  swap2\n  or\n  swap1\n  sstore\n    /* \"contracts/contracts/protocol/TuliaPool.sol\":4324:4376  rewardManager = IRewardManager(rewardManagerAddress) */\n  0x04\n    /* \"contracts/contracts/protocol/TuliaPool.sol\":723:11971  contract TuliaPool is ReentrancyGuard {... */\n  sload\n  mload(0x40)\n  swap8\n  swap1\n  swap4\n  swap1\n  sub(shl(0x40, 0x01), 0x01)\n  0x0160\n  dup11\n  add\n  swap1\n  dup2\n  gt\n  swap1\n  dup11\n  gt\n  or\n  tag_27\n  jumpi\n  dup11\n  0x00\n  0x0140\n  dup12\n    /* \"contracts/contracts/protocol/TuliaPool.sol\":4938:5073  LoanOfferCreated(... */\n  0x3d48195705780f5c10a0d217f778f0f6d562cb1a6a699da31c0d6d756aacedfc\n    /* \"contracts/contracts/protocol/TuliaPool.sol\":723:11971  contract TuliaPool is ReentrancyGuard {... */\n  swap14\n  0x0160\n  0x60\n  swap15\n  add\n  0x40\n  mstore\n  0x01\n  dup1\n  0xa0\n  shl\n  sub\n  dup14\n  and\n  dup3\n  mstore\n  0x01\n  dup1\n  0xa0\n  shl\n  sub\n  dup12\n  and\n  0x20\n    /* \"contracts/contracts/protocol/TuliaPool.sol\":4400:4888  LoanDetails({... */\n  dup4\n  add\n    /* \"contracts/contracts/protocol/TuliaPool.sol\":723:11971  contract TuliaPool is ReentrancyGuard {... */\n  mstore\n  0x01\n  dup1\n  0xa0\n  shl\n  sub\n  dup13\n  and\n  0x40\n    /* \"contracts/contracts/protocol/TuliaPool.sol\":4400:4888  LoanDetails({... */\n  dup4\n  add\n    /* \"contracts/contracts/protocol/TuliaPool.sol\":723:11971  contract TuliaPool is ReentrancyGuard {... */\n  mstore\n  0x01\n  dup1\n  0xa0\n  shl\n  sub\n  and\n    /* \"contracts/contracts/protocol/TuliaPool.sol\":4400:4888  LoanDetails({... */\n  swap4\n  dup5\n  dup15\n  dup4\n  add\n    /* \"contracts/contracts/protocol/TuliaPool.sol\":723:11971  contract TuliaPool is ReentrancyGuard {... */\n  mstore\n  0x80\n    /* \"contracts/contracts/protocol/TuliaPool.sol\":4400:4888  LoanDetails({... */\n  dup3\n  add\n    /* \"contracts/contracts/protocol/TuliaPool.sol\":723:11971  contract TuliaPool is ReentrancyGuard {... */\n  mstore\n    /* \"contracts/contracts/protocol/TuliaPool.sol\":4400:4888  LoanDetails({... */\n  dup5\n    /* \"contracts/contracts/protocol/TuliaPool.sol\":723:11971  contract TuliaPool is ReentrancyGuard {... */\n  0xa0\n    /* \"contracts/contracts/protocol/TuliaPool.sol\":4400:4888  LoanDetails({... */\n  dup3\n  add\n    /* \"contracts/contracts/protocol/TuliaPool.sol\":723:11971  contract TuliaPool is ReentrancyGuard {... */\n  mstore\n    /* \"contracts/contracts/protocol/TuliaPool.sol\":4400:4888  LoanDetails({... */\n  dup6\n    /* \"contracts/contracts/protocol/TuliaPool.sol\":723:11971  contract TuliaPool is ReentrancyGuard {... */\n  0xc0\n    /* \"contracts/contracts/protocol/TuliaPool.sol\":4400:4888  LoanDetails({... */\n  dup3\n  add\n    /* \"contracts/contracts/protocol/TuliaPool.sol\":723:11971  contract TuliaPool is ReentrancyGuard {... */\n  mstore\n  0x01\n  dup1\n  0xa0\n  shl\n  sub\n  dup8\n  and\n  0xe0\n    /* \"contracts/contracts/protocol/TuliaPool.sol\":4400:4888  LoanDetails({... */\n  dup3\n  add\n    /* \"contracts/contracts/protocol/TuliaPool.sol\":723:11971  contract TuliaPool is ReentrancyGuard {... */\n  mstore\n    /* \"contracts/contracts/protocol/TuliaPool.sol\":4400:4888  LoanDetails({... */\n  dup3\n    /* \"contracts/contracts/protocol/TuliaPool.sol\":723:11971  contract TuliaPool is ReentrancyGuard {... */\n  0x0100\n    /* \"contracts/contracts/protocol/TuliaPool.sol\":4400:4888  LoanDetails({... */\n  dup3\n  add\n    /* \"contracts/contracts/protocol/TuliaPool.sol\":723:11971  contract TuliaPool is ReentrancyGuard {... */\n  mstore\n    /* \"contracts/contracts/protocol/TuliaPool.sol\":4837:4849  block.number */\n  number\n    /* \"contracts/contracts/protocol/TuliaPool.sol\":723:11971  contract TuliaPool is ReentrancyGuard {... */\n  0x0120\n    /* \"contracts/contracts/protocol/TuliaPool.sol\":4400:4888  LoanDetails({... */\n  dup3\n  add\n    /* \"contracts/contracts/protocol/TuliaPool.sol\":723:11971  contract TuliaPool is ReentrancyGuard {... */\n  mstore\n    /* \"contracts/contracts/protocol/TuliaPool.sol\":4400:4888  LoanDetails({... */\n  add\n    /* \"contracts/contracts/protocol/TuliaPool.sol\":723:11971  contract TuliaPool is ReentrancyGuard {... */\n  mstore\n  0x01\n  dup1\n  0xa0\n  shl\n  sub\n  dup10\n  and\n  0x01\n  dup1\n  0xa0\n  shl\n  sub\n  not\n    /* \"contracts/contracts/protocol/TuliaPool.sol\":4386:4888  loanDetails = LoanDetails({... */\n  0x05\n    /* \"contracts/contracts/protocol/TuliaPool.sol\":723:11971  contract TuliaPool is ReentrancyGuard {... */\n  sload\n  and\n  or\n    /* \"contracts/contracts/protocol/TuliaPool.sol\":4386:4888  loanDetails = LoanDetails({... */\n  0x05\n    /* \"contracts/contracts/protocol/TuliaPool.sol\":723:11971  contract TuliaPool is ReentrancyGuard {... */\n  sstore\n  0x01\n  dup1\n  0xa0\n  shl\n  sub\n  dup8\n  and\n  0x01\n  dup1\n  0xa0\n  shl\n  sub\n  not\n  sload(0x06)\n  and\n  or\n  0x06\n  sstore\n  0x01\n  dup1\n  0xa0\n  shl\n  sub\n  dup9\n  and\n  0x01\n  dup1\n  0xa0\n  shl\n  sub\n  not\n  sload(0x07)\n  and\n  or\n  0x07\n  sstore\n  0x01\n  dup1\n  0xa0\n  shl\n  sub\n  not\n  sload(0x08)\n  and\n  or\n  0x08\n  sstore\n  dup11\n  0x09\n  sstore\n  0x0a\n  sstore\n  0x0b\n  sstore\n  0x01\n  dup1\n  0xa0\n  shl\n  sub\n  and\n  0x01\n  dup1\n  0xa0\n  shl\n  sub\n  not\n  sload(0x0c)\n  and\n  or\n  0x0c\n  sstore\n  0x01\n  dup1\n  0xa0\n  shl\n  sub\n  not\n  sload(0x0d)\n  and\n  0x0d\n  sstore\n    /* \"contracts/contracts/protocol/TuliaPool.sol\":4837:4849  block.number */\n  number\n    /* \"contracts/contracts/protocol/TuliaPool.sol\":723:11971  contract TuliaPool is ReentrancyGuard {... */\n  0x0e\n  sstore\n  sstore(0x0f, 0x00)\n  0x01\n  dup1\n  0xa0\n  shl\n  sub\n  and\n  swap1\n  0x01\n  dup1\n  0xa8\n  shl\n  sub\n  not\n  and\n  or\n    /* \"contracts/contracts/protocol/TuliaPool.sol\":4324:4376  rewardManager = IRewardManager(rewardManagerAddress) */\n  0x04\n    /* \"contracts/contracts/protocol/TuliaPool.sol\":723:11971  contract TuliaPool is ReentrancyGuard {... */\n  sstore\n  mload(0x40)\n  swap6\n  dup7\n  mstore\n  0x01\n  dup1\n  0xa0\n  shl\n  sub\n  and\n  0x20\n  dup7\n  add\n  mstore\n  0x01\n  dup1\n  0xa0\n  shl\n  sub\n  and\n  0x40\n  dup6\n  add\n  mstore\n  0x01\n  dup1\n  0xa0\n  shl\n  sub\n  and\n    /* \"contracts/contracts/protocol/TuliaPool.sol\":4938:5073  LoanOfferCreated(... */\n  swap3\n  log2\n    /* \"contracts/contracts/protocol/TuliaPool.sol\":723:11971  contract TuliaPool is ReentrancyGuard {... */\n  mload(0x40)\n  dataSize(sub_0)\n  swap1\n  dup2\n  dataOffset(sub_0)\n  dup3\n  codecopy\n  return\ntag_27:\n  mstore(0x00, shl(0xe0, 0x4e487b71))\n  0x41\n    /* \"contracts/contracts/protocol/TuliaPool.sol\":4324:4376  rewardManager = IRewardManager(rewardManagerAddress) */\n  0x04\n    /* \"contracts/contracts/protocol/TuliaPool.sol\":723:11971  contract TuliaPool is ReentrancyGuard {... */\n  mstore\n  revert(0x00, 0x24)\ntag_25:\n  mload(0x40)\n  shl(0xe5, 0x461bcd)\n  dup2\n  mstore\n  0x20\n  0x04\n  dup3\n  add\n  mstore\n  0x17\n  0x24\n  dup3\n  add\n  mstore\n  0x496e76616c696420696e70757420616464726573736573000000000000000000\n  0x44\n  dup3\n  add\n  mstore\n  0x64\n  swap1\n  revert\n    /* \"contracts/contracts/protocol/TuliaPool.sol\":3935:4116  lender != address(0) &&... */\ntag_23:\n  pop\n  sub(shl(0xa0, 0x01), 0x01)\n    /* \"contracts/contracts/protocol/TuliaPool.sol\":723:11971  contract TuliaPool is ReentrancyGuard {... */\n  dup9\n  and\n    /* \"contracts/contracts/protocol/TuliaPool.sol\":4081:4116  repaymentTokenAddress != address(0) */\n  iszero\n  iszero\n    /* \"contracts/contracts/protocol/TuliaPool.sol\":3935:4116  lender != address(0) &&... */\n  jump(tag_24)\n    /* \"contracts/contracts/protocol/TuliaPool.sol\":3935:4061  lender != address(0) &&... */\ntag_21:\n  pop\n  sub(shl(0xa0, 0x01), 0x01)\n    /* \"contracts/contracts/protocol/TuliaPool.sol\":723:11971  contract TuliaPool is ReentrancyGuard {... */\n  dup12\n  and\n    /* \"contracts/contracts/protocol/TuliaPool.sol\":4025:4061  collateralVaultAddress != address(0) */\n  iszero\n  iszero\n    /* \"contracts/contracts/protocol/TuliaPool.sol\":3935:4061  lender != address(0) &&... */\n  jump(tag_22)\n    /* \"contracts/contracts/protocol/TuliaPool.sol\":3935:4005  lender != address(0) &&... */\ntag_19:\n  pop\n  sub(shl(0xa0, 0x01), 0x01)\n    /* \"contracts/contracts/protocol/TuliaPool.sol\":723:11971  contract TuliaPool is ReentrancyGuard {... */\n  dup8\n  and\n    /* \"contracts/contracts/protocol/TuliaPool.sol\":3975:4005  loanTokenAddress != address(0) */\n  iszero\n  iszero\n    /* \"contracts/contracts/protocol/TuliaPool.sol\":3935:4005  lender != address(0) &&... */\n  jump(tag_20)\n    /* \"contracts/contracts/protocol/TuliaPool.sol\":723:11971  contract TuliaPool is ReentrancyGuard {... */\ntag_14:\n  0x00\n  dup1\n  revert\ntag_1:\n  mload\n  swap1\n  sub(shl(0xa0, 0x01), 0x01)\n  dup3\n  and\n  dup3\n  sub\n  tag_14\n  jumpi\n  jump\t// out\nstop\n\nsub_0: assembly {\n        /* \"contracts/contracts/protocol/TuliaPool.sol\":723:11971  contract TuliaPool is ReentrancyGuard {... */\n      0x80\n      0x40\n      dup2\n      dup2\n      mstore\n      0x04\n      swap2\n      dup3\n      calldatasize\n      lt\n      iszero\n      tag_15\n      jumpi\n      0x00\n      dup1\n      revert\n    tag_15:\n      0x00\n      swap3\n      dup4\n      calldataload\n      0xe0\n      shr\n      swap2\n      dup3\n      0x0f4ef8a6\n      eq\n      tag_17\n      jumpi\n      pop\n      dup2\n      0x12261ee7\n      eq\n      tag_19\n      jumpi\n      dup2\n      0x2e1283e3\n      eq\n      tag_21\n      jumpi\n      dup2\n      0x3b1baeff\n      eq\n      tag_23\n      jumpi\n      dup2\n      0x402d8883\n      eq\n      tag_25\n      jumpi\n      dup2\n      0x5257b566\n      eq\n      tag_27\n      jumpi\n      dup2\n      0x64c4bec0\n      eq\n      tag_29\n      jumpi\n      dup2\n      0x654c6295\n      eq\n      tag_31\n      jumpi\n      dup2\n      0x6b6d1955\n      eq\n      tag_33\n      jumpi\n      dup2\n      0x8a4adf24\n      eq\n      tag_35\n      jumpi\n      dup2\n      0x8db57994\n      eq\n      tag_37\n      jumpi\n      dup2\n      0x95cb741d\n      eq\n      tag_39\n      jumpi\n      dup2\n      0x9e9f669c\n      eq\n      tag_45\n      jumpi\n      dup2\n      0xb2a9bb60\n      eq\n      tag_43\n      jumpi\n      dup2\n      0xc19d93fb\n      eq\n      tag_45\n      jumpi\n      pop\n      dup1\n      0xc51b9507\n      eq\n      tag_47\n      jumpi\n      dup1\n      0xeb0c4955\n      eq\n      tag_49\n      jumpi\n      0xf4b01b18\n      eq\n      tag_51\n      jumpi\n      0x00\n      dup1\n      revert\n    tag_51:\n      jumpi(tag_55, callvalue)\n      dup2\n      add(calldatasize, not(0x03))\n      slt\n      tag_55\n      jumpi\n      0x20\n      swap1\n        /* \"contracts/contracts/protocol/TuliaPool.sol\":11370:11392  loanDetails.loanAmount */\n      0x09\n        /* \"contracts/contracts/protocol/TuliaPool.sol\":723:11971  contract TuliaPool is ReentrancyGuard {... */\n      sload\n      swap1\n      mload\n      swap1\n      dup2\n      mstore\n      return\n    tag_55:\n      pop\n      dup1\n      revert\n    tag_49:\n      pop\n      jumpi(tag_55, callvalue)\n      dup2\n      add(calldatasize, not(0x03))\n      slt\n      tag_55\n      jumpi\n      0x20\n      swap1\n      tag_61\n      tag_14\n      jump\t// in\n    tag_61:\n      swap1\n      mload\n      swap1\n      dup2\n      mstore\n      return\n    tag_47:\n      pop\n      jumpi(tag_55, callvalue)\n      dup2\n      add(calldatasize, not(0x03))\n      slt\n      tag_55\n      jumpi\n        /* \"contracts/contracts/protocol/TuliaPool.sol\":829:864  IPoolOrganizer public poolOrganizer */\n      0x02\n        /* \"contracts/contracts/protocol/TuliaPool.sol\":723:11971  contract TuliaPool is ReentrancyGuard {... */\n      sload\n      swap1\n      mload\n      sub(shl(0xa0, 0x01), 0x01)\n      swap1\n      swap2\n      and\n      dup2\n      mstore\n      0x20\n      swap1\n      return\n    tag_45:\n      dup3\n      dup5\n      jumpi(tag_68, callvalue)\n      dup1\n      add(calldatasize, not(0x03))\n      slt\n      tag_68\n      jumpi\n      pop\n      0xff\n      tag_70\n      swap3\n      sload\n      0xa0\n      shr\n      and\n      swap1\n      mload\n      swap2\n      dup3\n      swap2\n      dup3\n      tag_1\n      jump\t// in\n    tag_70:\n      sub\n      swap1\n      return\n    tag_68:\n      dup1\n      revert\n    tag_43:\n      swap1\n      pop\n      jumpi(tag_73, callvalue)\n      dup3\n      add(calldatasize, not(0x03))\n      slt\n      tag_73\n      jumpi\n        /* \"@openzeppelin/contracts/security/ReentrancyGuard.sol\":2227:2330  modifier nonReentrant() {... */\n      tag_75\n      tag_5\n      jump\t// in\n    tag_75:\n        /* \"contracts/contracts/protocol/TuliaPool.sol\":10831:10850  calculateInterest() */\n      tag_76\n      tag_14\n      jump\t// in\n    tag_76:\n        /* \"contracts/contracts/protocol/TuliaPool.sol\":723:11971  contract TuliaPool is ReentrancyGuard {... */\n      swap1\n        /* \"contracts/contracts/protocol/TuliaPool.sol\":10867:10911  loanDetails.loanAmount + interestForFullTerm */\n      tag_77\n        /* \"contracts/contracts/protocol/TuliaPool.sol\":10867:10889  loanDetails.loanAmount */\n      0x09\n        /* \"contracts/contracts/protocol/TuliaPool.sol\":723:11971  contract TuliaPool is ReentrancyGuard {... */\n      sload\n        /* \"contracts/contracts/protocol/TuliaPool.sol\":10867:10911  loanDetails.loanAmount + interestForFullTerm */\n      swap3\n      dup4\n      tag_7\n      jump\t// in\n    tag_77:\n        /* \"contracts/contracts/protocol/TuliaPool.sol\":5302:5312  msg.sender */\n      swap3\n      caller\n        /* \"contracts/contracts/protocol/TuliaPool.sol\":723:11971  contract TuliaPool is ReentrancyGuard {... */\n      shl(0xa0, 0xffffffffffffffffffffffff)\n        /* \"contracts/contracts/protocol/TuliaPool.sol\":5388:5408  loanDetails.borrower */\n      0x0d\n        /* \"contracts/contracts/protocol/TuliaPool.sol\":723:11971  contract TuliaPool is ReentrancyGuard {... */\n      sload\n      and\n      or\n        /* \"contracts/contracts/protocol/TuliaPool.sol\":5388:5408  loanDetails.borrower */\n      0x0d\n        /* \"contracts/contracts/protocol/TuliaPool.sol\":723:11971  contract TuliaPool is ReentrancyGuard {... */\n      sstore\n      0xff\n      dup3\n      sload\n      0xa0\n      shr\n      and\n      0x05\n      dup2\n      lt\n      iszero\n      tag_78\n      jumpi\n        /* \"contracts/contracts/protocol/TuliaPool.sol\":5447:5464  LoanState.PENDING */\n      0x01\n        /* \"contracts/contracts/protocol/TuliaPool.sol\":5438:5464  state == LoanState.PENDING */\n      sub\n        /* \"contracts/contracts/protocol/TuliaPool.sol\":723:11971  contract TuliaPool is ReentrancyGuard {... */\n      tag_80\n      jumpi\n        /* \"contracts/contracts/protocol/TuliaPool.sol\":5302:5312  msg.sender */\n      caller\n        /* \"contracts/contracts/protocol/TuliaPool.sol\":5513:5535  borrower != address(0) */\n      iszero\n        /* \"contracts/contracts/protocol/TuliaPool.sol\":723:11971  contract TuliaPool is ReentrancyGuard {... */\n      tag_82\n      jumpi\n      sload(0x05)\n      sub(shl(0xa0, 0x01), 0x01)\n      swap3\n      swap1\n      dup4\n      and\n        /* \"contracts/contracts/protocol/TuliaPool.sol\":5302:5312  msg.sender */\n      caller\n        /* \"contracts/contracts/protocol/TuliaPool.sol\":5582:5612  borrower != loanDetails.lender */\n      eq\n        /* \"contracts/contracts/protocol/TuliaPool.sol\":723:11971  contract TuliaPool is ReentrancyGuard {... */\n      tag_84\n      jumpi\n      dup3\n        /* \"contracts/contracts/protocol/TuliaPool.sol\":5388:5408  loanDetails.borrower */\n      0x08\n        /* \"contracts/contracts/protocol/TuliaPool.sol\":723:11971  contract TuliaPool is ReentrancyGuard {... */\n      sload\n      and\n      swap4\n      dup3\n      mload\n      swap4\n      shl(0xe0, 0x38d52e0f)\n        /* \"contracts/contracts/protocol/TuliaPool.sol\":5716:5751  loanDetails.collateralVault.asset() */\n      dup6\n      mstore\n      0x20\n      swap5\n      dup6\n      dup2\n      dup6\n      dup2\n      dup11\n      gas\n      staticcall\n      swap1\n      dup2\n      iszero\n      tag_123\n      jumpi\n      dup10\n      swap2\n      tag_88\n      jumpi\n        /* \"contracts/contracts/protocol/TuliaPool.sol\":723:11971  contract TuliaPool is ReentrancyGuard {... */\n    tag_89:\n      pop\n      dup5\n      mload\n      shl(0xe1, 0x6eb1769f)\n        /* \"contracts/contracts/protocol/TuliaPool.sol\":5709:5845  IERC20(loanDetails.collateralVault.asset()).allowance(... */\n      dup1\n      dup3\n      mstore\n        /* \"contracts/contracts/protocol/TuliaPool.sol\":5302:5312  msg.sender */\n      caller\n        /* \"contracts/contracts/protocol/TuliaPool.sol\":5709:5845  IERC20(loanDetails.collateralVault.asset()).allowance(... */\n      dup7\n      dup4\n      add\n        /* \"contracts/contracts/protocol/TuliaPool.sol\":723:11971  contract TuliaPool is ReentrancyGuard {... */\n      swap1\n      dup2\n      mstore\n        /* \"contracts/contracts/protocol/TuliaPool.sol\":5822:5826  this */\n      address\n        /* \"contracts/contracts/protocol/TuliaPool.sol\":723:11971  contract TuliaPool is ReentrancyGuard {... */\n      0x20\n      dup3\n      add\n      mstore\n      swap1\n      swap3\n      dup9\n      swap2\n      dup4\n      swap2\n        /* \"contracts/contracts/protocol/TuliaPool.sol\":5709:5845  IERC20(loanDetails.collateralVault.asset()).allowance(... */\n      swap1\n      dup3\n      swap1\n      sub\n        /* \"contracts/contracts/protocol/TuliaPool.sol\":723:11971  contract TuliaPool is ReentrancyGuard {... */\n      0x40\n        /* \"contracts/contracts/protocol/TuliaPool.sol\":5709:5845  IERC20(loanDetails.collateralVault.asset()).allowance(... */\n      add\n      swap1\n        /* \"contracts/contracts/protocol/TuliaPool.sol\":723:11971  contract TuliaPool is ReentrancyGuard {... */\n      dup3\n      swap1\n      dup8\n      and\n        /* \"contracts/contracts/protocol/TuliaPool.sol\":5709:5845  IERC20(loanDetails.collateralVault.asset()).allowance(... */\n      gas\n      staticcall\n      swap1\n      dup2\n      iszero\n      tag_91\n      jumpi\n      dup11\n      swap2\n      tag_93\n      jumpi\n        /* \"contracts/contracts/protocol/TuliaPool.sol\":723:11971  contract TuliaPool is ReentrancyGuard {... */\n    tag_94:\n        /* \"contracts/contracts/protocol/TuliaPool.sol\":5673:5845  collateralAmount <=... */\n      pop\n      dup9\n      gt\n        /* \"contracts/contracts/protocol/TuliaPool.sol\":723:11971  contract TuliaPool is ReentrancyGuard {... */\n      tag_95\n      jumpi\n        /* \"contracts/contracts/protocol/TuliaPool.sol\":5935:5956  loanDetails.loanToken */\n      0x06\n        /* \"contracts/contracts/protocol/TuliaPool.sol\":723:11971  contract TuliaPool is ReentrancyGuard {... */\n      sload\n      dup6\n      mload\n        /* \"contracts/contracts/protocol/TuliaPool.sol\":5935:5991  loanDetails.loanToken.allowance(borrower, address(this)) */\n      dup3\n      dup2\n      mstore\n        /* \"contracts/contracts/protocol/TuliaPool.sol\":5302:5312  msg.sender */\n      caller\n        /* \"contracts/contracts/protocol/TuliaPool.sol\":5935:5991  loanDetails.loanToken.allowance(borrower, address(this)) */\n      dup7\n      dup3\n      add\n        /* \"contracts/contracts/protocol/TuliaPool.sol\":723:11971  contract TuliaPool is ReentrancyGuard {... */\n      swap1\n      dup2\n      mstore\n        /* \"contracts/contracts/protocol/TuliaPool.sol\":5822:5826  this */\n      address\n        /* \"contracts/contracts/protocol/TuliaPool.sol\":723:11971  contract TuliaPool is ReentrancyGuard {... */\n      0x20\n      dup3\n      add\n      mstore\n      swap2\n      dup5\n      and\n      swap5\n      swap2\n        /* \"contracts/contracts/protocol/TuliaPool.sol\":5822:5826  this */\n      dup9\n      swap1\n        /* \"contracts/contracts/protocol/TuliaPool.sol\":723:11971  contract TuliaPool is ReentrancyGuard {... */\n      dup3\n      swap1\n      dup2\n      swap1\n      0x40\n      add\n        /* \"contracts/contracts/protocol/TuliaPool.sol\":5935:5991  loanDetails.loanToken.allowance(borrower, address(this)) */\n      sub\n      dup2\n      dup9\n      gas\n      staticcall\n      swap1\n      dup2\n      iszero\n      tag_98\n      jumpi\n      dup12\n      swap2\n      tag_100\n      jumpi\n        /* \"contracts/contracts/protocol/TuliaPool.sol\":723:11971  contract TuliaPool is ReentrancyGuard {... */\n    tag_101:\n        /* \"contracts/contracts/protocol/TuliaPool.sol\":5935:6033  loanDetails.loanToken.allowance(borrower, address(this)) >=... */\n      pop\n      lt\n        /* \"contracts/contracts/protocol/TuliaPool.sol\":723:11971  contract TuliaPool is ReentrancyGuard {... */\n      tag_102\n      jumpi\n      dup5\n      mload\n        /* \"@openzeppelin/contracts/token/ERC20/utils/SafeERC20.sol\":2200:2239  token.allowance(address(this), spender) */\n      swap1\n      dup2\n      mstore\n        /* \"contracts/contracts/protocol/TuliaPool.sol\":5822:5826  this */\n      address\n        /* \"@openzeppelin/contracts/token/ERC20/utils/SafeERC20.sol\":2200:2239  token.allowance(address(this), spender) */\n      dup5\n      dup3\n      add\n        /* \"contracts/contracts/protocol/TuliaPool.sol\":723:11971  contract TuliaPool is ReentrancyGuard {... */\n      swap1\n      dup2\n      mstore\n      sub(shl(0xa0, 0x01), 0x01)\n      dup9\n      and\n      0x20\n      dup3\n      add\n      mstore\n        /* \"contracts/contracts/protocol/TuliaPool.sol\":5822:5826  this */\n      dup7\n      swap1\n        /* \"contracts/contracts/protocol/TuliaPool.sol\":723:11971  contract TuliaPool is ReentrancyGuard {... */\n      dup3\n      swap1\n      dup2\n      swap1\n      0x40\n      add\n        /* \"@openzeppelin/contracts/token/ERC20/utils/SafeERC20.sol\":2200:2239  token.allowance(address(this), spender) */\n      sub\n      dup2\n      dup7\n      gas\n      staticcall\n      dup1\n      iszero\n      tag_123\n      jumpi\n      dup9\n      swap1\n      dup11\n      swap1\n      tag_107\n      jumpi\n        /* \"contracts/contracts/protocol/TuliaPool.sol\":723:11971  contract TuliaPool is ReentrancyGuard {... */\n    tag_108:\n        /* \"@openzeppelin/contracts/token/ERC20/utils/SafeERC20.sol\":2278:2298  oldAllowance + value */\n      tag_109\n      swap3\n      pop\n      tag_7\n      jump\t// in\n    tag_109:\n        /* \"contracts/contracts/protocol/TuliaPool.sol\":723:11971  contract TuliaPool is ReentrancyGuard {... */\n      dup5\n      mload\n      shl(0xe0, 0x095ea7b3)\n        /* \"@openzeppelin/contracts/token/ERC20/utils/SafeERC20.sol\":3411:3458  abi.encodeCall(token.approve, (spender, value)) */\n      dup8\n      dup3\n      add\n      dup2\n      dup2\n      mstore\n      sub(shl(0xa0, 0x01), 0x01)\n        /* \"contracts/contracts/protocol/TuliaPool.sol\":723:11971  contract TuliaPool is ReentrancyGuard {... */\n      dup11\n      and\n        /* \"@openzeppelin/contracts/token/ERC20/utils/SafeERC20.sol\":3411:3458  abi.encodeCall(token.approve, (spender, value)) */\n      0x24\n      dup1\n      dup6\n      add\n        /* \"contracts/contracts/protocol/TuliaPool.sol\":723:11971  contract TuliaPool is ReentrancyGuard {... */\n      swap2\n      swap1\n      swap2\n      mstore\n      0x44\n      dup1\n      dup6\n      add\n      swap6\n      swap1\n      swap6\n      mstore\n        /* \"@openzeppelin/contracts/token/ERC20/utils/SafeERC20.sol\":3411:3458  abi.encodeCall(token.approve, (spender, value)) */\n      swap4\n      dup4\n      mstore\n      swap3\n      swap9\n      not(0x1f)\n      swap6\n        /* \"contracts/contracts/protocol/TuliaPool.sol\":723:11971  contract TuliaPool is ReentrancyGuard {... */\n      swap3\n      swap4\n      dup13\n      swap1\n      dup2\n      swap1\n        /* \"@openzeppelin/contracts/token/ERC20/utils/SafeERC20.sol\":3411:3458  abi.encodeCall(token.approve, (spender, value)) */\n      tag_111\n        /* \"contracts/contracts/protocol/TuliaPool.sol\":723:11971  contract TuliaPool is ReentrancyGuard {... */\n      0x64\n      dup9\n        /* \"@openzeppelin/contracts/token/ERC20/utils/SafeERC20.sol\":3411:3458  abi.encodeCall(token.approve, (spender, value)) */\n      tag_3\n      jump\t// in\n    tag_111:\n        /* \"@openzeppelin/contracts/token/ERC20/utils/SafeERC20.sol\":5615:5640  address(token).call(data) */\n      dup7\n      mload\n      swap1\n      dup3\n      dup8\n      gas\n      call\n      tag_112\n      tag_10\n      jump\t// in\n    tag_112:\n        /* \"@openzeppelin/contracts/token/ERC20/utils/SafeERC20.sol\":5657:5726  success && (returndata.length == 0 || abi.decode(returndata, (bool))) */\n      dup2\n      tag_113\n      jumpi\n        /* \"contracts/contracts/protocol/TuliaPool.sol\":723:11971  contract TuliaPool is ReentrancyGuard {... */\n    tag_114:\n        /* \"@openzeppelin/contracts/token/ERC20/utils/SafeERC20.sol\":5657:5760  success && (returndata.length == 0 || abi.decode(returndata, (bool))) && address(token).code.length > 0 */\n      pop\n      dup1\n      tag_115\n      jumpi\n        /* \"contracts/contracts/protocol/TuliaPool.sol\":723:11971  contract TuliaPool is ReentrancyGuard {... */\n    tag_116:\n        /* \"@openzeppelin/contracts/token/ERC20/utils/SafeERC20.sol\":3473:3518  !_callOptionalReturnBool(token, approvalCall) */\n      iszero\n        /* \"@openzeppelin/contracts/token/ERC20/utils/SafeERC20.sol\":3469:3670  if (!_callOptionalReturnBool(token, approvalCall)) {... */\n      tag_117\n      jumpi\n        /* \"contracts/contracts/protocol/TuliaPool.sol\":723:11971  contract TuliaPool is ReentrancyGuard {... */\n    tag_118:\n      pop\n      pop\n      pop\n      pop\n      dup1\n        /* \"contracts/contracts/protocol/TuliaPool.sol\":5388:5408  loanDetails.borrower */\n      0x08\n        /* \"contracts/contracts/protocol/TuliaPool.sol\":723:11971  contract TuliaPool is ReentrancyGuard {... */\n      sload\n      and\n      dup6\n      dup3\n        /* \"contracts/contracts/protocol/TuliaPool.sol\":5388:5408  loanDetails.borrower */\n      0x0d\n        /* \"contracts/contracts/protocol/TuliaPool.sol\":723:11971  contract TuliaPool is ReentrancyGuard {... */\n      sload\n      and\n      0x44\n      dup11\n      dup13\n      dup10\n      mload\n      swap6\n      dup7\n      swap5\n      dup6\n      swap4\n      shl(0xe0, 0x6e553f65)\n        /* \"contracts/contracts/protocol/TuliaPool.sol\":6240:6349  loanDetails.collateralVault.deposit(... */\n      dup6\n      mstore\n      dup12\n      dup6\n      add\n        /* \"contracts/contracts/protocol/TuliaPool.sol\":723:11971  contract TuliaPool is ReentrancyGuard {... */\n      mstore\n      dup14\n      dup5\n      add\n      mstore\n        /* \"contracts/contracts/protocol/TuliaPool.sol\":6240:6349  loanDetails.collateralVault.deposit(... */\n      gas\n      call\n      dup1\n      iszero\n      tag_123\n      jumpi\n      swap1\n      dup7\n      swap2\n      tag_121\n      jumpi\n        /* \"contracts/contracts/protocol/TuliaPool.sol\":723:11971  contract TuliaPool is ReentrancyGuard {... */\n    tag_122:\n      pop\n      pop\n        /* \"contracts/contracts/protocol/TuliaPool.sol\":5935:5956  loanDetails.loanToken */\n      0x06\n        /* \"contracts/contracts/protocol/TuliaPool.sol\":723:11971  contract TuliaPool is ReentrancyGuard {... */\n      sload\n      and\n      swap1\n      dup4\n      mload\n      swap6\n      shl(0xe0, 0x70a08231)\n        /* \"contracts/contracts/protocol/TuliaPool.sol\":6429:6475  loanDetails.loanToken.balanceOf(address(this)) */\n      dup8\n      mstore\n        /* \"contracts/contracts/protocol/TuliaPool.sol\":5822:5826  this */\n      address\n        /* \"contracts/contracts/protocol/TuliaPool.sol\":6429:6475  loanDetails.loanToken.balanceOf(address(this)) */\n      dup5\n      dup9\n      add\n        /* \"contracts/contracts/protocol/TuliaPool.sol\":723:11971  contract TuliaPool is ReentrancyGuard {... */\n      mstore\n        /* \"contracts/contracts/protocol/TuliaPool.sol\":6429:6475  loanDetails.loanToken.balanceOf(address(this)) */\n      dup6\n      dup8\n      dup3\n      dup2\n      dup7\n      gas\n      staticcall\n      swap7\n      dup8\n      iszero\n      tag_123\n      jumpi\n      dup10\n      swap8\n      tag_125\n      jumpi\n        /* \"contracts/contracts/protocol/TuliaPool.sol\":723:11971  contract TuliaPool is ReentrancyGuard {... */\n    tag_126:\n      pop\n      dup5\n      mload\n      shl(0xe0, 0xa9059cbb)\n        /* \"@openzeppelin/contracts/token/ERC20/utils/SafeERC20.sol\":1412:1455  abi.encodeCall(token.transfer, (to, value)) */\n      dup8\n      dup3\n      add\n      mstore\n        /* \"contracts/contracts/protocol/TuliaPool.sol\":5302:5312  msg.sender */\n      caller\n        /* \"@openzeppelin/contracts/token/ERC20/utils/SafeERC20.sol\":1412:1455  abi.encodeCall(token.transfer, (to, value)) */\n      swap2\n      dup2\n      add\n        /* \"contracts/contracts/protocol/TuliaPool.sol\":723:11971  contract TuliaPool is ReentrancyGuard {... */\n      swap2\n      dup3\n      mstore\n      0x20\n      dup3\n      add\n      swap8\n      swap1\n      swap8\n      mstore\n        /* \"contracts/contracts/protocol/TuliaPool.sol\":6545:6586  LoanActivated(borrower, collateralAmount) */\n      0x5150ab7694a22fbc01c642bc10316565247df962fa3f0ac3b5d1a18ba45b485b\n      swap7\n        /* \"@openzeppelin/contracts/token/ERC20/utils/SafeERC20.sol\":1412:1455  abi.encodeCall(token.transfer, (to, value)) */\n      tag_128\n      swap4\n        /* \"contracts/contracts/protocol/TuliaPool.sol\":723:11971  contract TuliaPool is ReentrancyGuard {... */\n      swap1\n      swap3\n      swap1\n      swap2\n        /* \"@openzeppelin/contracts/token/ERC20/utils/SafeERC20.sol\":1412:1455  abi.encodeCall(token.transfer, (to, value)) */\n      tag_127\n      swap2\n        /* \"contracts/contracts/protocol/TuliaPool.sol\":723:11971  contract TuliaPool is ReentrancyGuard {... */\n      swap1\n      dup5\n      swap1\n      0x40\n      add\n        /* \"@openzeppelin/contracts/token/ERC20/utils/SafeERC20.sol\":1412:1455  abi.encodeCall(token.transfer, (to, value)) */\n      sub\n      swap1\n      dup2\n      add\n      dup5\n      mstore\n      dup4\n      tag_3\n      jump\t// in\n    tag_127:\n      tag_9\n      jump\t// in\n    tag_128:\n        /* \"contracts/contracts/protocol/TuliaPool.sol\":723:11971  contract TuliaPool is ReentrancyGuard {... */\n      dup1\n      sload\n      not(shl(0xa0, 0xff))\n      and\n      shl(0xa1, 0x01)\n      or\n      swap1\n      sstore\n      mload\n      swap3\n      dup4\n      mstore\n        /* \"contracts/contracts/protocol/TuliaPool.sol\":5302:5312  msg.sender */\n      caller\n      swap3\n        /* \"contracts/contracts/protocol/TuliaPool.sol\":6545:6586  LoanActivated(borrower, collateralAmount) */\n      log2\n        /* \"contracts/contracts/protocol/TuliaPool.sol\":5447:5464  LoanState.PENDING */\n      0x01\n        /* \"@openzeppelin/contracts/security/ReentrancyGuard.sol\":1759:1760  2 */\n      dup2\n      sstore\n        /* \"contracts/contracts/protocol/TuliaPool.sol\":723:11971  contract TuliaPool is ReentrancyGuard {... */\n      dup1\n      return\n        /* \"contracts/contracts/protocol/TuliaPool.sol\":6429:6475  loanDetails.loanToken.balanceOf(address(this)) */\n    tag_125:\n      swap7\n      pop\n      swap1\n      swap2\n      dup6\n      dup8\n      dup2\n      returndatasize\n      dup4\n      gt\n      tag_130\n      jumpi\n    tag_131:\n      tag_132\n      dup2\n      dup4\n      tag_3\n      jump\t// in\n    tag_132:\n      dup2\n      add\n        /* \"contracts/contracts/protocol/TuliaPool.sol\":723:11971  contract TuliaPool is ReentrancyGuard {... */\n      sub\n      slt\n      tag_133\n      jumpi\n      swap6\n      mload\n      swap6\n        /* \"contracts/contracts/protocol/TuliaPool.sol\":6429:6475  loanDetails.loanToken.balanceOf(address(this)) */\n      swap2\n        /* \"contracts/contracts/protocol/TuliaPool.sol\":723:11971  contract TuliaPool is ReentrancyGuard {... */\n      swap1\n        /* \"@openzeppelin/contracts/token/ERC20/utils/SafeERC20.sol\":1412:1455  abi.encodeCall(token.transfer, (to, value)) */\n      tag_127\n        /* \"contracts/contracts/protocol/TuliaPool.sol\":6429:6475  loanDetails.loanToken.balanceOf(address(this)) */\n      jump(tag_126)\n        /* \"contracts/contracts/protocol/TuliaPool.sol\":723:11971  contract TuliaPool is ReentrancyGuard {... */\n    tag_133:\n      dup9\n      dup1\n      revert\n        /* \"contracts/contracts/protocol/TuliaPool.sol\":6429:6475  loanDetails.loanToken.balanceOf(address(this)) */\n    tag_130:\n      pop\n      returndatasize\n      jump(tag_131)\n    tag_123:\n        /* \"contracts/contracts/protocol/TuliaPool.sol\":723:11971  contract TuliaPool is ReentrancyGuard {... */\n      dup6\n      mload\n      returndatasize\n      dup12\n      dup3\n      returndatacopy\n      returndatasize\n      swap1\n      revert\n        /* \"contracts/contracts/protocol/TuliaPool.sol\":6240:6349  loanDetails.collateralVault.deposit(... */\n    tag_121:\n      dup2\n      returndatasize\n      dup4\n      gt\n      tag_135\n      jumpi\n    tag_136:\n      tag_137\n      dup2\n      dup4\n      tag_3\n      jump\t// in\n    tag_137:\n      dup2\n      add\n        /* \"contracts/contracts/protocol/TuliaPool.sol\":723:11971  contract TuliaPool is ReentrancyGuard {... */\n      sub\n      slt\n      tag_138\n      jumpi\n        /* \"contracts/contracts/protocol/TuliaPool.sol\":6240:6349  loanDetails.collateralVault.deposit(... */\n      dup5\n      0x00\n      jump(tag_122)\n        /* \"contracts/contracts/protocol/TuliaPool.sol\":723:11971  contract TuliaPool is ReentrancyGuard {... */\n    tag_138:\n      dup8\n      dup1\n      revert\n        /* \"contracts/contracts/protocol/TuliaPool.sol\":6240:6349  loanDetails.collateralVault.deposit(... */\n    tag_135:\n      pop\n      returndatasize\n      jump(tag_136)\n        /* \"@openzeppelin/contracts/token/ERC20/utils/SafeERC20.sol\":3469:3670  if (!_callOptionalReturnBool(token, approvalCall)) {... */\n    tag_117:\n        /* \"contracts/contracts/protocol/TuliaPool.sol\":723:11971  contract TuliaPool is ReentrancyGuard {... */\n      dup8\n      mload\n        /* \"@openzeppelin/contracts/token/ERC20/utils/SafeERC20.sol\":3561:3604  abi.encodeCall(token.approve, (spender, 0)) */\n      swap2\n      dup10\n      dup4\n      add\n      mstore\n      dup10\n      dup3\n      add\n        /* \"contracts/contracts/protocol/TuliaPool.sol\":723:11971  contract TuliaPool is ReentrancyGuard {... */\n      mstore\n      dup11\n      0x44\n      dup3\n      add\n      mstore\n      0x44\n        /* \"@openzeppelin/contracts/token/ERC20/utils/SafeERC20.sol\":3561:3604  abi.encodeCall(token.approve, (spender, 0)) */\n      dup2\n      mstore\n        /* \"contracts/contracts/protocol/TuliaPool.sol\":723:11971  contract TuliaPool is ReentrancyGuard {... */\n      0x80\n      dup2\n      add\n      dup2\n      dup2\n      lt\n      0xffffffffffffffff\n      dup3\n      gt\n      or\n      tag_140\n      jumpi\n        /* \"@openzeppelin/contracts/token/ERC20/utils/SafeERC20.sol\":3646:3658  approvalCall */\n      tag_142\n        /* \"contracts/contracts/protocol/TuliaPool.sol\":723:11971  contract TuliaPool is ReentrancyGuard {... */\n      swap4\n      swap3\n      swap2\n        /* \"@openzeppelin/contracts/token/ERC20/utils/SafeERC20.sol\":3561:3604  abi.encodeCall(token.approve, (spender, 0)) */\n      tag_127\n        /* \"contracts/contracts/protocol/TuliaPool.sol\":723:11971  contract TuliaPool is ReentrancyGuard {... */\n      swap2\n      dup10\n      mstore\n        /* \"@openzeppelin/contracts/token/ERC20/utils/SafeERC20.sol\":3561:3604  abi.encodeCall(token.approve, (spender, 0)) */\n      dup3\n      tag_9\n      jump\t// in\n        /* \"@openzeppelin/contracts/token/ERC20/utils/SafeERC20.sol\":3646:3658  approvalCall */\n    tag_142:\n        /* \"@openzeppelin/contracts/token/ERC20/utils/SafeERC20.sol\":3469:3670  if (!_callOptionalReturnBool(token, approvalCall)) {... */\n      0x00\n      dup1\n      dup1\n      dup1\n      jump(tag_118)\n        /* \"contracts/contracts/protocol/TuliaPool.sol\":723:11971  contract TuliaPool is ReentrancyGuard {... */\n    tag_140:\n      shl(0xe0, 0x4e487b71)\n      dup13\n      mstore\n      0x41\n      dup8\n      mstore\n      dup10\n      dup13\n      revert\n        /* \"@openzeppelin/contracts/token/ERC20/utils/SafeERC20.sol\":5657:5760  success && (returndata.length == 0 || abi.decode(returndata, (bool))) && address(token).code.length > 0 */\n    tag_115:\n        /* \"@openzeppelin/contracts/token/ERC20/utils/SafeERC20.sol\":5730:5756  address(token).code.length */\n      pop\n      dup3\n      extcodesize\n        /* \"@openzeppelin/contracts/token/ERC20/utils/SafeERC20.sol\":5730:5760  address(token).code.length > 0 */\n      iszero\n      iszero\n        /* \"@openzeppelin/contracts/token/ERC20/utils/SafeERC20.sol\":5657:5760  success && (returndata.length == 0 || abi.decode(returndata, (bool))) && address(token).code.length > 0 */\n      jump(tag_116)\n        /* \"@openzeppelin/contracts/token/ERC20/utils/SafeERC20.sol\":5657:5726  success && (returndata.length == 0 || abi.decode(returndata, (bool))) */\n    tag_113:\n        /* \"contracts/contracts/protocol/TuliaPool.sol\":723:11971  contract TuliaPool is ReentrancyGuard {... */\n      dup1\n      mload\n        /* \"@openzeppelin/contracts/token/ERC20/utils/SafeERC20.sol\":5669:5691  returndata.length == 0 */\n      dup1\n      iszero\n      swap3\n      pop\n      dup12\n      swap1\n        /* \"@openzeppelin/contracts/token/ERC20/utils/SafeERC20.sol\":5669:5725  returndata.length == 0 || abi.decode(returndata, (bool)) */\n      dup4\n      iszero\n      tag_144\n      jumpi\n        /* \"@openzeppelin/contracts/token/ERC20/utils/SafeERC20.sol\":5657:5726  success && (returndata.length == 0 || abi.decode(returndata, (bool))) */\n    tag_145:\n      pop\n      pop\n      pop\n      0x00\n      jump(tag_114)\n        /* \"@openzeppelin/contracts/token/ERC20/utils/SafeERC20.sol\":5669:5725  returndata.length == 0 || abi.decode(returndata, (bool)) */\n    tag_144:\n        /* \"@openzeppelin/contracts/token/ERC20/utils/SafeERC20.sol\":5695:5725  abi.decode(returndata, (bool)) */\n      tag_146\n      swap4\n      pop\n      dup3\n      add\n      dup2\n      add\n      swap2\n      add\n      tag_8\n      jump\t// in\n    tag_146:\n        /* \"@openzeppelin/contracts/token/ERC20/utils/SafeERC20.sol\":5669:5725  returndata.length == 0 || abi.decode(returndata, (bool)) */\n      0x00\n      dup11\n      dup2\n      jump(tag_145)\n        /* \"@openzeppelin/contracts/token/ERC20/utils/SafeERC20.sol\":2200:2239  token.allowance(address(this), spender) */\n    tag_107:\n      pop\n      pop\n      dup6\n      dup2\n      dup2\n      returndatasize\n      dup4\n      gt\n      tag_147\n      jumpi\n    tag_148:\n      tag_149\n      dup2\n      dup4\n      tag_3\n      jump\t// in\n    tag_149:\n      dup2\n      add\n        /* \"contracts/contracts/protocol/TuliaPool.sol\":723:11971  contract TuliaPool is ReentrancyGuard {... */\n      sub\n      slt\n      tag_133\n      jumpi\n      dup8\n        /* \"@openzeppelin/contracts/token/ERC20/utils/SafeERC20.sol\":2278:2298  oldAllowance + value */\n      tag_109\n        /* \"contracts/contracts/protocol/TuliaPool.sol\":723:11971  contract TuliaPool is ReentrancyGuard {... */\n      swap2\n      mload\n        /* \"@openzeppelin/contracts/token/ERC20/utils/SafeERC20.sol\":2200:2239  token.allowance(address(this), spender) */\n      jump(tag_108)\n    tag_147:\n      pop\n      returndatasize\n      jump(tag_148)\n        /* \"contracts/contracts/protocol/TuliaPool.sol\":723:11971  contract TuliaPool is ReentrancyGuard {... */\n    tag_102:\n      dup5\n      mload\n      shl(0xe5, 0x461bcd)\n      dup2\n      mstore\n      dup1\n      dup6\n      add\n      dup8\n      swap1\n      mstore\n      0x1b\n      0x24\n      dup3\n      add\n      mstore\n      0x496e73756666696369656e74206c6f616e20616c6c6f77616e63650000000000\n      0x44\n      dup3\n      add\n      mstore\n      0x64\n      swap1\n      revert\n        /* \"contracts/contracts/protocol/TuliaPool.sol\":5935:5991  loanDetails.loanToken.allowance(borrower, address(this)) */\n    tag_100:\n      swap1\n      pop\n      dup8\n      dup2\n      dup2\n      returndatasize\n      dup4\n      gt\n      tag_152\n      jumpi\n    tag_153:\n      tag_154\n      dup2\n      dup4\n      tag_3\n      jump\t// in\n    tag_154:\n      dup2\n      add\n        /* \"contracts/contracts/protocol/TuliaPool.sol\":723:11971  contract TuliaPool is ReentrancyGuard {... */\n      sub\n      slt\n      tag_155\n      jumpi\n      mload\n        /* \"contracts/contracts/protocol/TuliaPool.sol\":5935:5991  loanDetails.loanToken.allowance(borrower, address(this)) */\n      0x00\n      jump(tag_101)\n        /* \"contracts/contracts/protocol/TuliaPool.sol\":723:11971  contract TuliaPool is ReentrancyGuard {... */\n    tag_155:\n      dup11\n      dup1\n      revert\n        /* \"contracts/contracts/protocol/TuliaPool.sol\":5935:5991  loanDetails.loanToken.allowance(borrower, address(this)) */\n    tag_152:\n      pop\n      returndatasize\n      jump(tag_153)\n    tag_98:\n        /* \"contracts/contracts/protocol/TuliaPool.sol\":723:11971  contract TuliaPool is ReentrancyGuard {... */\n      dup8\n      mload\n      returndatasize\n      dup14\n      dup3\n      returndatacopy\n      returndatasize\n      swap1\n      revert\n    tag_95:\n      dup5\n      mload\n      shl(0xe5, 0x461bcd)\n      dup2\n      mstore\n      dup1\n      dup6\n      add\n      dup8\n      swap1\n      mstore\n      0x21\n      0x24\n      dup3\n      add\n      mstore\n      0x496e73756666696369656e7420636f6c6c61746572616c20616c6c6f77616e63\n      0x44\n      dup3\n      add\n      mstore\n      shl(0xf8, 0x65)\n      0x64\n      dup3\n      add\n      mstore\n      0x84\n      swap1\n      revert\n        /* \"contracts/contracts/protocol/TuliaPool.sol\":5709:5845  IERC20(loanDetails.collateralVault.asset()).allowance(... */\n    tag_93:\n      swap1\n      pop\n      dup7\n      dup2\n      dup2\n      returndatasize\n      dup4\n      gt\n      tag_157\n      jumpi\n    tag_158:\n      tag_159\n      dup2\n      dup4\n      tag_3\n      jump\t// in\n    tag_159:\n      dup2\n      add\n        /* \"contracts/contracts/protocol/TuliaPool.sol\":723:11971  contract TuliaPool is ReentrancyGuard {... */\n      sub\n      slt\n      tag_160\n      jumpi\n      mload\n        /* \"contracts/contracts/protocol/TuliaPool.sol\":5709:5845  IERC20(loanDetails.collateralVault.asset()).allowance(... */\n      0x00\n      jump(tag_94)\n        /* \"contracts/contracts/protocol/TuliaPool.sol\":723:11971  contract TuliaPool is ReentrancyGuard {... */\n    tag_160:\n      dup10\n      dup1\n      revert\n        /* \"contracts/contracts/protocol/TuliaPool.sol\":5709:5845  IERC20(loanDetails.collateralVault.asset()).allowance(... */\n    tag_157:\n      pop\n      returndatasize\n      jump(tag_158)\n    tag_91:\n        /* \"contracts/contracts/protocol/TuliaPool.sol\":723:11971  contract TuliaPool is ReentrancyGuard {... */\n      dup7\n      mload\n      returndatasize\n      dup13\n      dup3\n      returndatacopy\n      returndatasize\n      swap1\n      revert\n        /* \"contracts/contracts/protocol/TuliaPool.sol\":5716:5751  loanDetails.collateralVault.asset() */\n    tag_88:\n      swap1\n      pop\n      dup6\n      dup2\n      dup2\n      returndatasize\n      dup4\n      gt\n      tag_162\n      jumpi\n    tag_163:\n      tag_164\n      dup2\n      dup4\n      tag_3\n      jump\t// in\n    tag_164:\n      dup2\n      add\n        /* \"contracts/contracts/protocol/TuliaPool.sol\":723:11971  contract TuliaPool is ReentrancyGuard {... */\n      sub\n      slt\n      tag_133\n      jumpi\n      mload\n      dup2\n      dup2\n      and\n      dup2\n      sub\n      tag_133\n      jumpi\n        /* \"contracts/contracts/protocol/TuliaPool.sol\":5716:5751  loanDetails.collateralVault.asset() */\n      0x00\n      jump(tag_89)\n    tag_162:\n      pop\n      returndatasize\n      jump(tag_163)\n        /* \"contracts/contracts/protocol/TuliaPool.sol\":723:11971  contract TuliaPool is ReentrancyGuard {... */\n    tag_84:\n      0x20\n      0x64\n      swap3\n      mload\n      swap2\n      shl(0xe5, 0x461bcd)\n      dup4\n      mstore\n      dup3\n      add\n      mstore\n      0x19\n      0x24\n      dup3\n      add\n      mstore\n      0x4c656e6465722063616e6e6f7420626520626f72726f77657200000000000000\n      0x44\n      dup3\n      add\n      mstore\n      revert\n    tag_82:\n      swap1\n      0x20\n      0x64\n      swap3\n      mload\n      swap2\n      shl(0xe5, 0x461bcd)\n      dup4\n      mstore\n      dup3\n      add\n      mstore\n      0x18\n      0x24\n      dup3\n      add\n      mstore\n      0x496e76616c696420626f72726f77657220616464726573730000000000000000\n      0x44\n      dup3\n      add\n      mstore\n      revert\n    tag_80:\n      swap1\n      0x20\n      0x64\n      swap3\n      mload\n      swap2\n      shl(0xe5, 0x461bcd)\n      dup4\n      mstore\n      dup3\n      add\n      mstore\n      0x1a\n      0x24\n      dup3\n      add\n      mstore\n      0x4c6f616e206e6f7420726561647920746f206163746976617465000000000000\n      0x44\n      dup3\n      add\n      mstore\n      revert\n    tag_78:\n      shl(0xe0, 0x4e487b71)\n      dup7\n      mstore\n      0x21\n      dup4\n      mstore\n      0x24\n      dup7\n      revert\n    tag_73:\n      dup3\n      dup1\n      revert\n    tag_39:\n      pop\n      pop\n      jumpi(tag_55, callvalue)\n      dup2\n      add(calldatasize, not(0x03))\n      slt\n      tag_55\n      jumpi\n      0x0160\n      swap1\n      0x01\n      dup1\n      0xa0\n      shl\n      sub\n      dup1\n        /* \"contracts/contracts/protocol/TuliaPool.sol\":1963:1993  LoanDetails public loanDetails */\n      0x05\n        /* \"contracts/contracts/protocol/TuliaPool.sol\":723:11971  contract TuliaPool is ReentrancyGuard {... */\n      sload\n      and\n      swap2\n      dup2\n        /* \"contracts/contracts/protocol/TuliaPool.sol\":1963:1993  LoanDetails public loanDetails */\n      0x06\n        /* \"contracts/contracts/protocol/TuliaPool.sol\":723:11971  contract TuliaPool is ReentrancyGuard {... */\n      sload\n      and\n      swap2\n      dup1\n        /* \"contracts/contracts/protocol/TuliaPool.sol\":1963:1993  LoanDetails public loanDetails */\n      0x07\n        /* \"contracts/contracts/protocol/TuliaPool.sol\":723:11971  contract TuliaPool is ReentrancyGuard {... */\n      sload\n      and\n      swap1\n      dup1\n        /* \"contracts/contracts/protocol/TuliaPool.sol\":1963:1993  LoanDetails public loanDetails */\n      0x08\n        /* \"contracts/contracts/protocol/TuliaPool.sol\":723:11971  contract TuliaPool is ReentrancyGuard {... */\n      sload\n      and\n        /* \"contracts/contracts/protocol/TuliaPool.sol\":1963:1993  LoanDetails public loanDetails */\n      0x09\n        /* \"contracts/contracts/protocol/TuliaPool.sol\":723:11971  contract TuliaPool is ReentrancyGuard {... */\n      sload\n        /* \"contracts/contracts/protocol/TuliaPool.sol\":1963:1993  LoanDetails public loanDetails */\n      0x0a\n        /* \"contracts/contracts/protocol/TuliaPool.sol\":723:11971  contract TuliaPool is ReentrancyGuard {... */\n      sload\n      swap1\n        /* \"contracts/contracts/protocol/TuliaPool.sol\":1963:1993  LoanDetails public loanDetails */\n      0x0b\n        /* \"contracts/contracts/protocol/TuliaPool.sol\":723:11971  contract TuliaPool is ReentrancyGuard {... */\n      sload\n      swap3\n      dup5\n        /* \"contracts/contracts/protocol/TuliaPool.sol\":1963:1993  LoanDetails public loanDetails */\n      0x0c\n        /* \"contracts/contracts/protocol/TuliaPool.sol\":723:11971  contract TuliaPool is ReentrancyGuard {... */\n      sload\n      and\n      swap5\n        /* \"contracts/contracts/protocol/TuliaPool.sol\":1963:1993  LoanDetails public loanDetails */\n      0x0d\n        /* \"contracts/contracts/protocol/TuliaPool.sol\":723:11971  contract TuliaPool is ReentrancyGuard {... */\n      sload\n      and\n      swap6\n        /* \"contracts/contracts/protocol/TuliaPool.sol\":1963:1993  LoanDetails public loanDetails */\n      0x0e\n        /* \"contracts/contracts/protocol/TuliaPool.sol\":723:11971  contract TuliaPool is ReentrancyGuard {... */\n      sload\n      swap8\n        /* \"contracts/contracts/protocol/TuliaPool.sol\":1963:1993  LoanDetails public loanDetails */\n      0x0f\n        /* \"contracts/contracts/protocol/TuliaPool.sol\":723:11971  contract TuliaPool is ReentrancyGuard {... */\n      sload\n      swap10\n      dup2\n      mload\n      swap12\n      dup13\n      mstore\n      0x20\n      dup13\n      add\n      mstore\n      dup11\n      add\n      mstore\n      0x60\n      dup10\n      add\n      mstore\n      0x80\n      dup9\n      add\n      mstore\n      0xa0\n      dup8\n      add\n      mstore\n      0xc0\n      dup7\n      add\n      mstore\n      0xe0\n      dup6\n      add\n      mstore\n      0x0100\n      dup5\n      add\n      mstore\n      0x0120\n      dup4\n      add\n      mstore\n      0x0140\n      dup3\n      add\n      mstore\n      return\n    tag_37:\n      swap1\n      pop\n      jumpi(tag_73, callvalue)\n      dup3\n      add(calldatasize, not(0x03))\n      slt\n      tag_73\n      jumpi\n        /* \"@openzeppelin/contracts/security/ReentrancyGuard.sol\":2227:2330  modifier nonReentrant() {... */\n      tag_182\n      tag_5\n      jump\t// in\n    tag_182:\n        /* \"contracts/contracts/protocol/TuliaPool.sol\":723:11971  contract TuliaPool is ReentrancyGuard {... */\n      0xff\n      dup2\n      sload\n      0xa0\n      shr\n      and\n      0x05\n      dup2\n      lt\n      iszero\n      tag_183\n      jumpi\n      tag_185\n      jumpi\n        /* \"contracts/contracts/protocol/TuliaPool.sol\":6968:7002  LoanFunded(loanDetails.loanAmount) */\n      0x9e71d2fb732e68272b7e74ecfd14638673c1d77e19a5d390a3ffff054d57c44b\n        /* \"contracts/contracts/protocol/TuliaPool.sol\":723:11971  contract TuliaPool is ReentrancyGuard {... */\n      swap2\n      0x20\n      swap2\n        /* \"contracts/contracts/protocol/TuliaPool.sol\":6838:6860  loanDetails.loanAmount */\n      tag_187\n        /* \"contracts/contracts/protocol/TuliaPool.sol\":723:11971  contract TuliaPool is ReentrancyGuard {... */\n      0x01\n      dup1\n      0xa0\n      shl\n      sub\n      dup1\n        /* \"contracts/contracts/protocol/TuliaPool.sol\":6727:6748  loanDetails.loanToken */\n      0x06\n        /* \"contracts/contracts/protocol/TuliaPool.sol\":723:11971  contract TuliaPool is ReentrancyGuard {... */\n      sload\n      and\n      swap1\n      sload(0x05)\n      and\n      swap1\n        /* \"contracts/contracts/protocol/TuliaPool.sol\":6838:6860  loanDetails.loanAmount */\n      0x09\n        /* \"contracts/contracts/protocol/TuliaPool.sol\":723:11971  contract TuliaPool is ReentrancyGuard {... */\n      sload\n        /* \"contracts/contracts/protocol/TuliaPool.sol\":6819:6823  this */\n      swap2\n      address\n        /* \"contracts/contracts/protocol/TuliaPool.sol\":6838:6860  loanDetails.loanAmount */\n      swap2\n      tag_12\n      jump\t// in\n    tag_187:\n        /* \"contracts/contracts/protocol/TuliaPool.sol\":6906:6918  block.number */\n      number\n        /* \"contracts/contracts/protocol/TuliaPool.sol\":6880:6903  loanDetails.fundedBlock */\n      0x0f\n        /* \"@openzeppelin/contracts/security/ReentrancyGuard.sol\":1759:1760  2 */\n      sstore\n        /* \"contracts/contracts/protocol/TuliaPool.sol\":723:11971  contract TuliaPool is ReentrancyGuard {... */\n      dup1\n      sload\n      not(shl(0xa0, 0xff))\n      and\n      shl(0xa0, 0x01)\n      or\n      swap1\n      sstore\n        /* \"contracts/contracts/protocol/TuliaPool.sol\":6838:6860  loanDetails.loanAmount */\n      0x09\n        /* \"contracts/contracts/protocol/TuliaPool.sol\":723:11971  contract TuliaPool is ReentrancyGuard {... */\n      sload\n      swap1\n      mload\n      swap1\n      dup2\n      mstore\n        /* \"contracts/contracts/protocol/TuliaPool.sol\":6968:7002  LoanFunded(loanDetails.loanAmount) */\n      log1\n        /* \"contracts/contracts/protocol/TuliaPool.sol\":723:11971  contract TuliaPool is ReentrancyGuard {... */\n      0x01\n        /* \"@openzeppelin/contracts/security/ReentrancyGuard.sol\":1759:1760  2 */\n      dup2\n      sstore\n        /* \"contracts/contracts/protocol/TuliaPool.sol\":723:11971  contract TuliaPool is ReentrancyGuard {... */\n      dup1\n      return\n    tag_185:\n      0x20\n      0x64\n      swap3\n      mload\n      swap2\n      shl(0xe5, 0x461bcd)\n      dup4\n      mstore\n      dup3\n      add\n      mstore\n      0x1b\n      0x24\n      dup3\n      add\n      mstore\n      0x4c6f616e206e6f7420696e20637265617461626c652073746174650000000000\n      0x44\n      dup3\n      add\n      mstore\n      revert\n    tag_183:\n      shl(0xe0, 0x4e487b71)\n      dup5\n      mstore\n      0x21\n      dup3\n      mstore\n      0x24\n      dup5\n      revert\n    tag_35:\n      pop\n      pop\n      jumpi(tag_55, callvalue)\n      dup2\n      add(calldatasize, not(0x03))\n      slt\n      tag_55\n      jumpi\n      sload(0x03)\n      swap1\n      mload\n      sub(shl(0xa0, 0x01), 0x01)\n      swap1\n      swap2\n      and\n      dup2\n      mstore\n      0x20\n      swap1\n      return\n    tag_33:\n      pop\n      pop\n      jumpi(tag_55, callvalue)\n      dup2\n      add(calldatasize, not(0x03))\n      slt\n      tag_55\n      jumpi\n      0x20\n        /* \"contracts/contracts/protocol/TuliaPool.sol\":10831:10850  calculateInterest() */\n      swap1\n        /* \"contracts/contracts/protocol/TuliaPool.sol\":10867:10911  loanDetails.loanAmount + interestForFullTerm */\n      tag_61\n        /* \"contracts/contracts/protocol/TuliaPool.sol\":10831:10850  calculateInterest() */\n      tag_197\n      tag_14\n      jump\t// in\n    tag_197:\n        /* \"contracts/contracts/protocol/TuliaPool.sol\":10867:10889  loanDetails.loanAmount */\n      0x09\n        /* \"contracts/contracts/protocol/TuliaPool.sol\":723:11971  contract TuliaPool is ReentrancyGuard {... */\n      sload\n        /* \"contracts/contracts/protocol/TuliaPool.sol\":10867:10911  loanDetails.loanAmount + interestForFullTerm */\n      tag_7\n      jump\t// in\n        /* \"contracts/contracts/protocol/TuliaPool.sol\":723:11971  contract TuliaPool is ReentrancyGuard {... */\n    tag_31:\n      dup4\n      dup4\n      jumpi(tag_55, callvalue)\n      0x20\n      swap3\n      dup4\n      add(calldatasize, not(0x03))\n      slt\n      tag_73\n      jumpi\n      dup1\n      calldataload\n      sub(shl(0xa0, 0x01), 0x01)\n      dup2\n      dup2\n      and\n      swap2\n      dup3\n      swap1\n      sub\n      tag_202\n      jumpi\n      swap1\n      0x24\n      dup7\n      swap3\n        /* \"contracts/contracts/protocol/TuliaPool.sol\":11742:11769  loanDetails.collateralVault */\n      0x08\n        /* \"contracts/contracts/protocol/TuliaPool.sol\":723:11971  contract TuliaPool is ReentrancyGuard {... */\n      sload\n      and\n      swap4\n      dup6\n      mload\n      swap5\n      dup6\n      swap4\n      dup5\n      swap3\n      shl(0xe0, 0x70a08231)\n        /* \"contracts/contracts/protocol/TuliaPool.sol\":11742:11785  loanDetails.collateralVault.balanceOf(user) */\n      dup5\n      mstore\n      dup4\n      add\n        /* \"contracts/contracts/protocol/TuliaPool.sol\":723:11971  contract TuliaPool is ReentrancyGuard {... */\n      mstore\n        /* \"contracts/contracts/protocol/TuliaPool.sol\":11742:11785  loanDetails.collateralVault.balanceOf(user) */\n      gas\n      staticcall\n      swap3\n      dup4\n      iszero\n      tag_204\n      jumpi\n      dup1\n      swap4\n      tag_206\n      jumpi\n        /* \"contracts/contracts/protocol/TuliaPool.sol\":723:11971  contract TuliaPool is ReentrancyGuard {... */\n    tag_207:\n      pop\n      pop\n      mload\n      swap1\n      dup2\n      mstore\n      return\n        /* \"contracts/contracts/protocol/TuliaPool.sol\":11742:11785  loanDetails.collateralVault.balanceOf(user) */\n    tag_206:\n      swap1\n      swap2\n      swap3\n      pop\n      dup4\n      dup3\n      dup2\n      returndatasize\n      dup4\n      gt\n      tag_208\n      jumpi\n    tag_209:\n      tag_210\n      dup2\n      dup4\n      tag_3\n      jump\t// in\n    tag_210:\n      dup2\n      add\n        /* \"contracts/contracts/protocol/TuliaPool.sol\":723:11971  contract TuliaPool is ReentrancyGuard {... */\n      sub\n      slt\n      tag_68\n      jumpi\n      pop\n      mload\n        /* \"contracts/contracts/protocol/TuliaPool.sol\":11742:11785  loanDetails.collateralVault.balanceOf(user) */\n      swap1\n      dup4\n      dup1\n      jump(tag_207)\n    tag_208:\n      pop\n      returndatasize\n      jump(tag_209)\n    tag_204:\n        /* \"contracts/contracts/protocol/TuliaPool.sol\":723:11971  contract TuliaPool is ReentrancyGuard {... */\n      dup3\n      mload\n      swap1\n      returndatasize\n      swap1\n      dup3\n      returndatacopy\n      returndatasize\n      swap1\n      revert\n    tag_202:\n      dup5\n      dup1\n      revert\n    tag_29:\n      pop\n      pop\n      jumpi(tag_55, callvalue)\n      dup2\n      add(calldatasize, not(0x03))\n      slt\n      tag_55\n      jumpi\n      0x20\n      swap1\n        /* \"contracts/contracts/protocol/TuliaPool.sol\":11935:11962  loanDetails.repaymentPeriod */\n      0x0b\n        /* \"contracts/contracts/protocol/TuliaPool.sol\":723:11971  contract TuliaPool is ReentrancyGuard {... */\n      sload\n      swap1\n      mload\n      swap1\n      dup2\n      mstore\n      return\n    tag_27:\n      pop\n      pop\n      jumpi(tag_55, callvalue)\n      dup2\n      add(calldatasize, not(0x03))\n      slt\n      tag_55\n      jumpi\n      0x20\n      swap1\n        /* \"contracts/contracts/protocol/TuliaPool.sol\":11536:11560  loanDetails.interestRate */\n      0x0a\n        /* \"contracts/contracts/protocol/TuliaPool.sol\":723:11971  contract TuliaPool is ReentrancyGuard {... */\n      sload\n      swap1\n      mload\n      swap1\n      dup2\n      mstore\n      return\n    tag_25:\n      dup4\n      swap2\n      pop\n      jumpi(tag_55, callvalue)\n      dup2\n      add(calldatasize, not(0x03))\n      slt\n      tag_55\n      jumpi\n        /* \"@openzeppelin/contracts/security/ReentrancyGuard.sol\":2227:2330  modifier nonReentrant() {... */\n      tag_225\n      tag_5\n      jump\t// in\n    tag_225:\n        /* \"contracts/contracts/protocol/TuliaPool.sol\":723:11971  contract TuliaPool is ReentrancyGuard {... */\n      0xff\n      dup2\n      sload\n      0xa0\n      shr\n      and\n      0x05\n      dup2\n      lt\n      iszero\n      tag_226\n      jumpi\n        /* \"contracts/contracts/protocol/TuliaPool.sol\":8705:8721  LoanState.ACTIVE */\n      0x02\n        /* \"contracts/contracts/protocol/TuliaPool.sol\":8696:8721  state == LoanState.ACTIVE */\n      sub\n        /* \"contracts/contracts/protocol/TuliaPool.sol\":723:11971  contract TuliaPool is ReentrancyGuard {... */\n      tag_228\n      jumpi\n        /* \"contracts/contracts/protocol/TuliaPool.sol\":10867:10911  loanDetails.loanAmount + interestForFullTerm */\n      tag_230\n        /* \"contracts/contracts/protocol/TuliaPool.sol\":10831:10850  calculateInterest() */\n      tag_197\n      tag_14\n      jump\t// in\n        /* \"contracts/contracts/protocol/TuliaPool.sol\":10867:10911  loanDetails.loanAmount + interestForFullTerm */\n    tag_230:\n        /* \"contracts/contracts/protocol/TuliaPool.sol\":8841:8867  loanDetails.repaymentToken */\n      0x07\n        /* \"contracts/contracts/protocol/TuliaPool.sol\":723:11971  contract TuliaPool is ReentrancyGuard {... */\n      sload\n      dup5\n      mload\n      shl(0xe1, 0x6eb1769f)\n        /* \"contracts/contracts/protocol/TuliaPool.sol\":8841:8904  loanDetails.repaymentToken.allowance(msg.sender, address(this)) */\n      dup2\n      mstore\n        /* \"contracts/contracts/protocol/TuliaPool.sol\":8878:8888  msg.sender */\n      caller\n        /* \"contracts/contracts/protocol/TuliaPool.sol\":8841:8904  loanDetails.repaymentToken.allowance(msg.sender, address(this)) */\n      dup5\n      dup3\n      add\n        /* \"contracts/contracts/protocol/TuliaPool.sol\":723:11971  contract TuliaPool is ReentrancyGuard {... */\n      swap1\n      dup2\n      mstore\n        /* \"contracts/contracts/protocol/TuliaPool.sol\":8898:8902  this */\n      address\n        /* \"contracts/contracts/protocol/TuliaPool.sol\":8841:8904  loanDetails.repaymentToken.allowance(msg.sender, address(this)) */\n      0x20\n        /* \"contracts/contracts/protocol/TuliaPool.sol\":723:11971  contract TuliaPool is ReentrancyGuard {... */\n      dup3\n      dup2\n      add\n      swap2\n      swap1\n      swap2\n      mstore\n        /* \"contracts/contracts/protocol/TuliaPool.sol\":8841:8904  loanDetails.repaymentToken.allowance(msg.sender, address(this)) */\n      swap5\n      sub(shl(0xa0, 0x01), 0x01)\n        /* \"contracts/contracts/protocol/TuliaPool.sol\":723:11971  contract TuliaPool is ReentrancyGuard {... */\n      swap4\n      dup5\n      and\n      swap4\n      swap3\n      swap1\n      swap2\n        /* \"contracts/contracts/protocol/TuliaPool.sol\":8841:8904  loanDetails.repaymentToken.allowance(msg.sender, address(this)) */\n      dup7\n      swap1\n        /* \"contracts/contracts/protocol/TuliaPool.sol\":723:11971  contract TuliaPool is ReentrancyGuard {... */\n      dup3\n      swap1\n      dup2\n      swap1\n      0x40\n      add\n        /* \"contracts/contracts/protocol/TuliaPool.sol\":8841:8904  loanDetails.repaymentToken.allowance(msg.sender, address(this)) */\n      sub\n      dup2\n      dup8\n      gas\n      staticcall\n      swap1\n      dup2\n      iszero\n      tag_239\n      jumpi\n      swap1\n      dup6\n      swap2\n      dup9\n      swap2\n      tag_235\n      jumpi\n        /* \"contracts/contracts/protocol/TuliaPool.sol\":723:11971  contract TuliaPool is ReentrancyGuard {... */\n    tag_236:\n        /* \"contracts/contracts/protocol/TuliaPool.sol\":8841:8938  loanDetails.repaymentToken.allowance(msg.sender, address(this)) >=... */\n      pop\n      lt\n        /* \"contracts/contracts/protocol/TuliaPool.sol\":723:11971  contract TuliaPool is ReentrancyGuard {... */\n      tag_237\n      jumpi\n      dup7\n      mload\n      shl(0xe0, 0x70a08231)\n        /* \"contracts/contracts/protocol/TuliaPool.sol\":9037:9085  loanDetails.repaymentToken.balanceOf(msg.sender) */\n      dup2\n      mstore\n        /* \"contracts/contracts/protocol/TuliaPool.sol\":8878:8888  msg.sender */\n      caller\n        /* \"contracts/contracts/protocol/TuliaPool.sol\":9037:9085  loanDetails.repaymentToken.balanceOf(msg.sender) */\n      dup3\n      dup3\n      add\n        /* \"contracts/contracts/protocol/TuliaPool.sol\":723:11971  contract TuliaPool is ReentrancyGuard {... */\n      mstore\n        /* \"contracts/contracts/protocol/TuliaPool.sol\":9037:9085  loanDetails.repaymentToken.balanceOf(msg.sender) */\n      dup6\n        /* \"contracts/contracts/protocol/TuliaPool.sol\":723:11971  contract TuliaPool is ReentrancyGuard {... */\n      dup2\n      0x24\n      dup2\n        /* \"contracts/contracts/protocol/TuliaPool.sol\":9037:9085  loanDetails.repaymentToken.balanceOf(msg.sender) */\n      dup8\n      gas\n      staticcall\n      swap1\n      dup2\n      iszero\n      tag_239\n      jumpi\n      swap1\n      dup6\n      swap2\n      dup9\n      swap2\n      tag_241\n      jumpi\n        /* \"contracts/contracts/protocol/TuliaPool.sol\":723:11971  contract TuliaPool is ReentrancyGuard {... */\n    tag_242:\n        /* \"contracts/contracts/protocol/TuliaPool.sol\":9037:9103  loanDetails.repaymentToken.balanceOf(msg.sender) >= totalRepayment */\n      pop\n      lt\n        /* \"contracts/contracts/protocol/TuliaPool.sol\":723:11971  contract TuliaPool is ReentrancyGuard {... */\n      tag_243\n      jumpi\n      pop\n      dup3\n        /* \"contracts/contracts/protocol/TuliaPool.sol\":9484:9513  RepaymentMade(totalRepayment) */\n      0x4002dba848920f438092e08090cfb5fc47144c22704268b402c9553a1b5adfe6\n        /* \"contracts/contracts/protocol/TuliaPool.sol\":723:11971  contract TuliaPool is ReentrancyGuard {... */\n      swap6\n      swap7\n      swap3\n      dup3\n        /* \"contracts/contracts/protocol/TuliaPool.sol\":9299:9313  totalRepayment */\n      tag_245\n        /* \"contracts/contracts/protocol/TuliaPool.sol\":723:11971  contract TuliaPool is ReentrancyGuard {... */\n      swap4\n        /* \"contracts/contracts/protocol/TuliaPool.sol\":9241:9261  loanDetails.borrower */\n      0x0d\n        /* \"contracts/contracts/protocol/TuliaPool.sol\":723:11971  contract TuliaPool is ReentrancyGuard {... */\n      sload\n      and\n      swap1\n      sload(0x05)\n      and\n        /* \"contracts/contracts/protocol/TuliaPool.sol\":9299:9313  totalRepayment */\n      swap2\n      tag_12\n      jump\t// in\n    tag_245:\n      tag_246\n      tag_13\n      jump\t// in\n    tag_246:\n        /* \"contracts/contracts/protocol/TuliaPool.sol\":723:11971  contract TuliaPool is ReentrancyGuard {... */\n      mload\n      swap1\n      dup2\n      mstore\n        /* \"contracts/contracts/protocol/TuliaPool.sol\":9484:9513  RepaymentMade(totalRepayment) */\n      log1\n        /* \"contracts/contracts/protocol/TuliaPool.sol\":723:11971  contract TuliaPool is ReentrancyGuard {... */\n      0x01\n        /* \"@openzeppelin/contracts/security/ReentrancyGuard.sol\":1759:1760  2 */\n      dup2\n      sstore\n        /* \"contracts/contracts/protocol/TuliaPool.sol\":723:11971  contract TuliaPool is ReentrancyGuard {... */\n      dup1\n      return\n    tag_243:\n      dup7\n      mload\n      shl(0xe5, 0x461bcd)\n      dup2\n      mstore\n      swap1\n      dup2\n      add\n      dup6\n      swap1\n      mstore\n      0x28\n      0x24\n      dup3\n      add\n      mstore\n      0x496e73756666696369656e7420746f6b656e2062616c616e636520666f722072\n      0x44\n      dup3\n      add\n      mstore\n      shl(0xc2, 0x195c185e5b595b9d)\n      0x64\n      dup3\n      add\n      mstore\n      0x84\n      swap1\n      revert\n        /* \"contracts/contracts/protocol/TuliaPool.sol\":9037:9085  loanDetails.repaymentToken.balanceOf(msg.sender) */\n    tag_241:\n      dup1\n      swap3\n      pop\n      dup8\n      dup1\n      swap3\n      pop\n      returndatasize\n      dup4\n      gt\n      tag_247\n      jumpi\n    tag_248:\n      tag_249\n      dup2\n      dup4\n      tag_3\n      jump\t// in\n    tag_249:\n      dup2\n      add\n        /* \"contracts/contracts/protocol/TuliaPool.sol\":723:11971  contract TuliaPool is ReentrancyGuard {... */\n      sub\n      slt\n      tag_250\n      jumpi\n      dup5\n      swap1\n      mload\n        /* \"contracts/contracts/protocol/TuliaPool.sol\":9037:9085  loanDetails.repaymentToken.balanceOf(msg.sender) */\n      dup10\n      jump(tag_242)\n        /* \"contracts/contracts/protocol/TuliaPool.sol\":723:11971  contract TuliaPool is ReentrancyGuard {... */\n    tag_250:\n      dup7\n      dup1\n      revert\n        /* \"contracts/contracts/protocol/TuliaPool.sol\":9037:9085  loanDetails.repaymentToken.balanceOf(msg.sender) */\n    tag_247:\n      pop\n      returndatasize\n      jump(tag_248)\n    tag_239:\n        /* \"contracts/contracts/protocol/TuliaPool.sol\":723:11971  contract TuliaPool is ReentrancyGuard {... */\n      dup9\n      mload\n      returndatasize\n      dup10\n      dup3\n      returndatacopy\n      returndatasize\n      swap1\n      revert\n    tag_237:\n      dup7\n      mload\n      shl(0xe5, 0x461bcd)\n      dup2\n      mstore\n      swap1\n      dup2\n      add\n      dup6\n      swap1\n      mstore\n      0x2a\n      0x24\n      dup3\n      add\n      mstore\n      0x496e73756666696369656e7420746f6b656e20616c6c6f77616e636520666f72\n      0x44\n      dup3\n      add\n      mstore\n      shl(0xb2, 0x081c995c185e5b595b9d)\n      0x64\n      dup3\n      add\n      mstore\n      0x84\n      swap1\n      revert\n        /* \"contracts/contracts/protocol/TuliaPool.sol\":8841:8904  loanDetails.repaymentToken.allowance(msg.sender, address(this)) */\n    tag_235:\n      dup1\n      swap3\n      pop\n      dup8\n      dup1\n      swap3\n      pop\n      returndatasize\n      dup4\n      gt\n      tag_252\n      jumpi\n    tag_253:\n      tag_254\n      dup2\n      dup4\n      tag_3\n      jump\t// in\n    tag_254:\n      dup2\n      add\n        /* \"contracts/contracts/protocol/TuliaPool.sol\":723:11971  contract TuliaPool is ReentrancyGuard {... */\n      sub\n      slt\n      tag_250\n      jumpi\n      dup5\n      swap1\n      mload\n        /* \"contracts/contracts/protocol/TuliaPool.sol\":8841:8904  loanDetails.repaymentToken.allowance(msg.sender, address(this)) */\n      dup10\n      jump(tag_236)\n    tag_252:\n      pop\n      returndatasize\n      jump(tag_253)\n        /* \"contracts/contracts/protocol/TuliaPool.sol\":723:11971  contract TuliaPool is ReentrancyGuard {... */\n    tag_228:\n      0x64\n      swap1\n      0x20\n      dup5\n      mload\n      swap2\n      shl(0xe5, 0x461bcd)\n      dup4\n      mstore\n      dup3\n      add\n      mstore\n      0x13\n      0x24\n      dup3\n      add\n      mstore\n      shl(0x68, 0x4c6f616e206d75737420626520616374697665)\n      0x44\n      dup3\n      add\n      mstore\n      revert\n    tag_226:\n      shl(0xe0, 0x4e487b71)\n      dup4\n      mstore\n      0x21\n      dup3\n      mstore\n      0x24\n      dup4\n      revert\n    tag_23:\n      swap2\n      swap1\n      pop\n      jumpi(tag_73, callvalue)\n      dup3\n      add(calldatasize, not(0x03))\n      slt\n      tag_73\n      jumpi\n      dup2\n      sload\n      0xff\n      dup2\n      0xa0\n      shr\n      and\n      0x05\n      dup2\n      lt\n      iszero\n      tag_261\n      jumpi\n        /* \"contracts/contracts/protocol/TuliaPool.sol\":7228:7244  LoanState.ACTIVE */\n      0x02\n        /* \"contracts/contracts/protocol/TuliaPool.sol\":7219:7244  state == LoanState.ACTIVE */\n      sub\n        /* \"contracts/contracts/protocol/TuliaPool.sol\":723:11971  contract TuliaPool is ReentrancyGuard {... */\n      tag_263\n      jumpi\n        /* \"contracts/contracts/protocol/TuliaPool.sol\":7333:7385  loanDetails.startBlock + loanDetails.repaymentPeriod */\n      tag_265\n        /* \"contracts/contracts/protocol/TuliaPool.sol\":7333:7355  loanDetails.startBlock */\n      0x0e\n        /* \"contracts/contracts/protocol/TuliaPool.sol\":723:11971  contract TuliaPool is ReentrancyGuard {... */\n      sload\n        /* \"contracts/contracts/protocol/TuliaPool.sol\":7358:7385  loanDetails.repaymentPeriod */\n      0x0b\n        /* \"contracts/contracts/protocol/TuliaPool.sol\":723:11971  contract TuliaPool is ReentrancyGuard {... */\n      sload\n        /* \"contracts/contracts/protocol/TuliaPool.sol\":7333:7385  loanDetails.startBlock + loanDetails.repaymentPeriod */\n      swap1\n      tag_7\n      jump\t// in\n    tag_265:\n        /* \"contracts/contracts/protocol/TuliaPool.sol\":7298:7313  block.timestamp */\n      timestamp\n        /* \"contracts/contracts/protocol/TuliaPool.sol\":7298:7385  block.timestamp >=... */\n      lt\n        /* \"contracts/contracts/protocol/TuliaPool.sol\":723:11971  contract TuliaPool is ReentrancyGuard {... */\n      tag_266\n      jumpi\n        /* \"contracts/contracts/protocol/TuliaPool.sol\":7480:7524  loanDetails.loanAmount + calculateInterest() */\n      tag_268\n        /* \"contracts/contracts/protocol/TuliaPool.sol\":7333:7355  loanDetails.startBlock */\n      0x09\n        /* \"contracts/contracts/protocol/TuliaPool.sol\":723:11971  contract TuliaPool is ReentrancyGuard {... */\n      sload\n        /* \"contracts/contracts/protocol/TuliaPool.sol\":7505:7524  calculateInterest() */\n      tag_269\n      tag_14\n      jump\t// in\n    tag_269:\n        /* \"contracts/contracts/protocol/TuliaPool.sol\":7480:7524  loanDetails.loanAmount + calculateInterest() */\n      swap1\n      tag_7\n      jump\t// in\n    tag_268:\n        /* \"contracts/contracts/protocol/TuliaPool.sol\":723:11971  contract TuliaPool is ReentrancyGuard {... */\n      swap2\n      0x01\n      dup1\n      0xa0\n      shl\n      sub\n      swap4\n      dup5\n        /* \"contracts/contracts/protocol/TuliaPool.sol\":7559:7585  loanDetails.repaymentToken */\n      0x07\n        /* \"contracts/contracts/protocol/TuliaPool.sol\":723:11971  contract TuliaPool is ReentrancyGuard {... */\n      sload\n      and\n      dup6\n      sload(0x05)\n      and\n      swap4\n      dup4\n      mload\n      swap6\n      dup7\n      shl(0xe0, 0x70a08231)\n        /* \"contracts/contracts/protocol/TuliaPool.sol\":7559:7637  loanDetails.repaymentToken.balanceOf(... */\n      swap4\n      dup5\n      dup3\n      mstore\n      dup8\n      dup7\n      dup4\n      add\n        /* \"contracts/contracts/protocol/TuliaPool.sol\":723:11971  contract TuliaPool is ReentrancyGuard {... */\n      mstore\n        /* \"contracts/contracts/protocol/TuliaPool.sol\":7559:7637  loanDetails.repaymentToken.balanceOf(... */\n      dup2\n        /* \"contracts/contracts/protocol/TuliaPool.sol\":723:11971  contract TuliaPool is ReentrancyGuard {... */\n      0x24\n        /* \"contracts/contracts/protocol/TuliaPool.sol\":7559:7637  loanDetails.repaymentToken.balanceOf(... */\n      0x20\n      swap11\n      dup12\n      swap4\n      gas\n      staticcall\n      swap1\n      dup2\n      iszero\n      tag_91\n      jumpi\n      dup11\n      swap2\n      tag_272\n      jumpi\n        /* \"contracts/contracts/protocol/TuliaPool.sol\":723:11971  contract TuliaPool is ReentrancyGuard {... */\n    tag_273:\n        /* \"contracts/contracts/protocol/TuliaPool.sol\":7668:7699  currentBalance < totalRepayment */\n      pop\n      lt\n        /* \"contracts/contracts/protocol/TuliaPool.sol\":723:11971  contract TuliaPool is ReentrancyGuard {... */\n      iszero\n      tag_274\n      jumpi\n      not(shl(0xa0, 0xff))\n      and\n      shl(0xa2, 0x01)\n      or\n      dup3\n      sstore\n        /* \"contracts/contracts/protocol/TuliaPool.sol\":7984:8011  loanDetails.collateralVault */\n      0x08\n        /* \"contracts/contracts/protocol/TuliaPool.sol\":723:11971  contract TuliaPool is ReentrancyGuard {... */\n      sload\n        /* \"contracts/contracts/protocol/TuliaPool.sol\":8035:8055  loanDetails.borrower */\n      0x0d\n        /* \"contracts/contracts/protocol/TuliaPool.sol\":723:11971  contract TuliaPool is ReentrancyGuard {... */\n      sload\n      dup5\n      mload\n        /* \"contracts/contracts/protocol/TuliaPool.sol\":7984:8102  loanDetails.collateralVault.balanceOf(... */\n      swap3\n      dup4\n      mstore\n        /* \"contracts/contracts/protocol/TuliaPool.sol\":723:11971  contract TuliaPool is ReentrancyGuard {... */\n      dup8\n      and\n        /* \"contracts/contracts/protocol/TuliaPool.sol\":7984:8102  loanDetails.collateralVault.balanceOf(... */\n      dup3\n      dup5\n      add\n        /* \"contracts/contracts/protocol/TuliaPool.sol\":723:11971  contract TuliaPool is ReentrancyGuard {... */\n      dup2\n      swap1\n      mstore\n      swap1\n      dup8\n      and\n      swap3\n      swap1\n      dup9\n      swap1\n        /* \"contracts/contracts/protocol/TuliaPool.sol\":7984:8102  loanDetails.collateralVault.balanceOf(... */\n      dup8\n        /* \"contracts/contracts/protocol/TuliaPool.sol\":723:11971  contract TuliaPool is ReentrancyGuard {... */\n      dup5\n      0x24\n      dup2\n      dup9\n        /* \"contracts/contracts/protocol/TuliaPool.sol\":7984:8102  loanDetails.collateralVault.balanceOf(... */\n      gas\n      staticcall\n      swap4\n      dup5\n      iszero\n      tag_280\n      jumpi\n      dup3\n      swap5\n      tag_278\n      jumpi\n        /* \"contracts/contracts/protocol/TuliaPool.sol\":723:11971  contract TuliaPool is ReentrancyGuard {... */\n    tag_279:\n      pop\n      dup6\n      mload\n      swap4\n      shl(0xe1, 0x63737ac9)\n        /* \"contracts/contracts/protocol/TuliaPool.sol\":8137:8214  loanDetails.collateralVault.convertToShares(... */\n      dup6\n      mstore\n      dup4\n      dup6\n      add\n        /* \"contracts/contracts/protocol/TuliaPool.sol\":723:11971  contract TuliaPool is ReentrancyGuard {... */\n      mstore\n        /* \"contracts/contracts/protocol/TuliaPool.sol\":8137:8214  loanDetails.collateralVault.convertToShares(... */\n      dup8\n      dup5\n        /* \"contracts/contracts/protocol/TuliaPool.sol\":723:11971  contract TuliaPool is ReentrancyGuard {... */\n      0x24\n        /* \"contracts/contracts/protocol/TuliaPool.sol\":8137:8214  loanDetails.collateralVault.convertToShares(... */\n      dup2\n      dup9\n      gas\n      staticcall\n      swap4\n      dup5\n      iszero\n      tag_280\n      jumpi\n      swap1\n      dup3\n      swap2\n      dup10\n      swap6\n      swap5\n      swap4\n      swap5\n      tag_282\n      jumpi\n        /* \"contracts/contracts/protocol/TuliaPool.sol\":723:11971  contract TuliaPool is ReentrancyGuard {... */\n    tag_283:\n      pop\n      swap5\n      0x64\n      swap4\n      swap5\n      swap6\n      dup8\n      mload\n      swap9\n      dup10\n      swap7\n      dup8\n      swap6\n      shl(0xe1, 0x5d043b29)\n        /* \"contracts/contracts/protocol/TuliaPool.sol\":8225:8460  loanDetails.collateralVault.redeem(... */\n      dup8\n      mstore\n      dup7\n      add\n        /* \"contracts/contracts/protocol/TuliaPool.sol\":723:11971  contract TuliaPool is ReentrancyGuard {... */\n      mstore\n      0x24\n      dup6\n      add\n      mstore\n      0x44\n      dup5\n      add\n      mstore\n        /* \"contracts/contracts/protocol/TuliaPool.sol\":8225:8460  loanDetails.collateralVault.redeem(... */\n      gas\n      call\n      swap1\n      dup2\n      iszero\n      tag_284\n      jumpi\n      pop\n      tag_286\n      jumpi\n        /* \"contracts/contracts/protocol/TuliaPool.sol\":723:11971  contract TuliaPool is ReentrancyGuard {... */\n    tag_287:\n      pop\n      pop\n        /* \"contracts/contracts/protocol/TuliaPool.sol\":8035:8055  loanDetails.borrower */\n      0x0d\n        /* \"contracts/contracts/protocol/TuliaPool.sol\":723:11971  contract TuliaPool is ReentrancyGuard {... */\n      sload\n      and\n        /* \"contracts/contracts/protocol/TuliaPool.sol\":8476:8511  LoanDefaulted(loanDetails.borrower) */\n      0xf4e5cf42cbb1d0c6c91e16d925349feb6c5d970652f6ec77b1ff1262f7284cd5\n      dup3\n      dup1\n      log2\n      tag_288\n      tag_13\n      jump\t// in\n    tag_288:\n        /* \"contracts/contracts/protocol/TuliaPool.sol\":723:11971  contract TuliaPool is ReentrancyGuard {... */\n      dup1\n      return\n        /* \"contracts/contracts/protocol/TuliaPool.sol\":8225:8460  loanDetails.collateralVault.redeem(... */\n    tag_286:\n      dup2\n      returndatasize\n      dup4\n      gt\n      tag_289\n      jumpi\n    tag_290:\n      tag_291\n      dup2\n      dup4\n      tag_3\n      jump\t// in\n    tag_291:\n      dup2\n      add\n        /* \"contracts/contracts/protocol/TuliaPool.sol\":723:11971  contract TuliaPool is ReentrancyGuard {... */\n      sub\n      slt\n      tag_55\n      jumpi\n        /* \"contracts/contracts/protocol/TuliaPool.sol\":8225:8460  loanDetails.collateralVault.redeem(... */\n      0x00\n      dup1\n      jump(tag_287)\n    tag_289:\n      pop\n      returndatasize\n      jump(tag_290)\n    tag_284:\n        /* \"contracts/contracts/protocol/TuliaPool.sol\":723:11971  contract TuliaPool is ReentrancyGuard {... */\n      mload\n      returndatasize\n      dup7\n      dup3\n      returndatacopy\n      returndatasize\n      swap1\n      revert\n        /* \"contracts/contracts/protocol/TuliaPool.sol\":8137:8214  loanDetails.collateralVault.convertToShares(... */\n    tag_282:\n      dup1\n      swap5\n      pop\n      dup6\n      swap2\n      swap6\n      returndatasize\n      dup4\n      gt\n      tag_294\n      jumpi\n    tag_295:\n      tag_296\n      dup2\n      dup4\n      tag_3\n      jump\t// in\n    tag_296:\n      dup2\n      add\n        /* \"contracts/contracts/protocol/TuliaPool.sol\":723:11971  contract TuliaPool is ReentrancyGuard {... */\n      sub\n      slt\n      tag_68\n      jumpi\n      swap2\n      mload\n      dup8\n      swap4\n      swap1\n      swap3\n      swap1\n      0x64\n        /* \"contracts/contracts/protocol/TuliaPool.sol\":8137:8214  loanDetails.collateralVault.convertToShares(... */\n      jump(tag_283)\n    tag_294:\n      pop\n      returndatasize\n      jump(tag_295)\n    tag_280:\n        /* \"contracts/contracts/protocol/TuliaPool.sol\":723:11971  contract TuliaPool is ReentrancyGuard {... */\n      dup7\n      mload\n      returndatasize\n      dup5\n      dup3\n      returndatacopy\n      returndatasize\n      swap1\n      revert\n        /* \"contracts/contracts/protocol/TuliaPool.sol\":7984:8102  loanDetails.collateralVault.balanceOf(... */\n    tag_278:\n      swap1\n      swap4\n      pop\n      dup8\n      dup2\n      dup2\n      returndatasize\n      dup4\n      gt\n      tag_299\n      jumpi\n    tag_300:\n      tag_301\n      dup2\n      dup4\n      tag_3\n      jump\t// in\n    tag_301:\n      dup2\n      add\n        /* \"contracts/contracts/protocol/TuliaPool.sol\":723:11971  contract TuliaPool is ReentrancyGuard {... */\n      sub\n      slt\n      tag_55\n      jumpi\n      mload\n        /* \"contracts/contracts/protocol/TuliaPool.sol\":7984:8102  loanDetails.collateralVault.balanceOf(... */\n      swap3\n      0x00\n      jump(tag_279)\n    tag_299:\n      pop\n      returndatasize\n      jump(tag_300)\n        /* \"contracts/contracts/protocol/TuliaPool.sol\":723:11971  contract TuliaPool is ReentrancyGuard {... */\n    tag_274:\n      dup4\n      mload\n      shl(0xe5, 0x461bcd)\n      dup2\n      mstore\n      dup1\n      dup5\n      add\n      dup8\n      swap1\n      mstore\n      0x28\n      0x24\n      dup3\n      add\n      mstore\n      0x496e73756666696369656e7420616d6d6f756e7420666f7220746f74616c2072\n      0x44\n      dup3\n      add\n      mstore\n      shl(0xc2, 0x195c185e5b595b9d)\n      0x64\n      dup3\n      add\n      mstore\n      0x84\n      swap1\n      revert\n        /* \"contracts/contracts/protocol/TuliaPool.sol\":7559:7637  loanDetails.repaymentToken.balanceOf(... */\n    tag_272:\n      swap1\n      pop\n      dup8\n      dup2\n      dup2\n      returndatasize\n      dup4\n      gt\n      tag_304\n      jumpi\n    tag_305:\n      tag_306\n      dup2\n      dup4\n      tag_3\n      jump\t// in\n    tag_306:\n      dup2\n      add\n        /* \"contracts/contracts/protocol/TuliaPool.sol\":723:11971  contract TuliaPool is ReentrancyGuard {... */\n      sub\n      slt\n      tag_160\n      jumpi\n      mload\n        /* \"contracts/contracts/protocol/TuliaPool.sol\":7559:7637  loanDetails.repaymentToken.balanceOf(... */\n      0x00\n      jump(tag_273)\n    tag_304:\n      pop\n      returndatasize\n      jump(tag_305)\n        /* \"contracts/contracts/protocol/TuliaPool.sol\":723:11971  contract TuliaPool is ReentrancyGuard {... */\n    tag_266:\n      dup2\n      mload\n      shl(0xe5, 0x461bcd)\n      dup2\n      mstore\n      0x20\n      dup2\n      dup6\n      add\n      mstore\n      0x22\n      0x24\n      dup3\n      add\n      mstore\n      0x52657061796d656e7420706572696f6420686173206e6f742079657420656e64\n      0x44\n      dup3\n      add\n      mstore\n      shl(0xf2, 0x1959)\n      0x64\n      dup3\n      add\n      mstore\n      0x84\n      swap1\n      revert\n    tag_263:\n      dup2\n      mload\n      shl(0xe5, 0x461bcd)\n      dup2\n      mstore\n      0x20\n      dup2\n      dup6\n      add\n      mstore\n      0x12\n      0x24\n      dup3\n      add\n      mstore\n      shl(0x70, 0x4c6f616e206973206e6f7420616374697665)\n      0x44\n      dup3\n      add\n      mstore\n      0x64\n      swap1\n      revert\n    tag_261:\n      shl(0xe0, 0x4e487b71)\n      dup6\n      mstore\n      0x21\n      dup5\n      mstore\n      0x24\n      dup6\n      revert\n    tag_21:\n      pop\n      pop\n      jumpi(tag_55, callvalue)\n      dup2\n      add(calldatasize, not(0x03))\n      slt\n      tag_55\n      jumpi\n      0x20\n      swap1\n        /* \"contracts/contracts/protocol/TuliaPool.sol\":11065:11088  loanDetails.fundedBlock */\n      0x0f\n        /* \"contracts/contracts/protocol/TuliaPool.sol\":723:11971  contract TuliaPool is ReentrancyGuard {... */\n      sload\n      swap1\n      mload\n      swap1\n      dup2\n      mstore\n      return\n    tag_19:\n      pop\n      pop\n      jumpi(tag_55, callvalue)\n      dup2\n      add(calldatasize, not(0x03))\n      slt\n      tag_55\n      jumpi\n      sload(0x01)\n      swap1\n      mload\n      sub(shl(0xa0, 0x01), 0x01)\n      swap1\n      swap2\n      and\n      dup2\n      mstore\n      0x20\n      swap1\n      return\n    tag_17:\n      dup5\n      swap2\n      jumpi(tag_73, callvalue)\n      dup3\n      add(calldatasize, not(0x03))\n      slt\n      tag_73\n      jumpi\n      sload\n      sub(shl(0xa0, 0x01), 0x01)\n      and\n      dup2\n      mstore\n      0x20\n      swap2\n      pop\n      return\n    tag_1:\n      swap2\n      swap1\n      0x20\n      dup4\n      add\n      swap3\n      0x05\n      dup3\n      lt\n      iszero\n      tag_321\n      jumpi\n      mstore\n      jump\t// out\n    tag_321:\n      mstore(0x00, shl(0xe0, 0x4e487b71))\n      mstore(0x04, 0x21)\n      revert(0x00, 0x24)\n    tag_2:\n      0xffffffffffffffff\n      dup2\n      gt\n      tag_323\n      jumpi\n      0x40\n      mstore\n      jump\t// out\n    tag_323:\n      mstore(0x00, shl(0xe0, 0x4e487b71))\n      mstore(0x04, 0x41)\n      revert(0x00, 0x24)\n    tag_3:\n      swap1\n        /* \"@openzeppelin/contracts/token/ERC20/utils/SafeERC20.sol\":3411:3458  abi.encodeCall(token.approve, (spender, value)) */\n      0x1f\n      dup1\n      not\n        /* \"contracts/contracts/protocol/TuliaPool.sol\":723:11971  contract TuliaPool is ReentrancyGuard {... */\n      swap2\n      add\n      and\n      dup2\n      add\n      swap1\n      dup2\n      lt\n      0xffffffffffffffff\n      dup3\n      gt\n      or\n      tag_323\n      jumpi\n      0x40\n      mstore\n      jump\t// out\n        /* \"@openzeppelin/contracts/security/ReentrancyGuard.sol\":2336:2623  function _nonReentrantBefore() private {... */\n    tag_5:\n        /* \"@openzeppelin/contracts/security/ReentrancyGuard.sol\":1759:1760  2 */\n      0x02\n        /* \"@openzeppelin/contracts/security/ReentrancyGuard.sol\":2468:2475  _status */\n      0x00\n        /* \"contracts/contracts/protocol/TuliaPool.sol\":723:11971  contract TuliaPool is ReentrancyGuard {... */\n      sload\n        /* \"@openzeppelin/contracts/security/ReentrancyGuard.sol\":2468:2487  _status != _ENTERED */\n      eq\n        /* \"@openzeppelin/contracts/security/ReentrancyGuard.sol\":1759:1760  2 */\n      tag_327\n      jumpi\n      0x02\n        /* \"@openzeppelin/contracts/security/ReentrancyGuard.sol\":2468:2475  _status */\n      0x00\n        /* \"@openzeppelin/contracts/security/ReentrancyGuard.sol\":1759:1760  2 */\n      sstore\n        /* \"@openzeppelin/contracts/security/ReentrancyGuard.sol\":2336:2623  function _nonReentrantBefore() private {... */\n      jump\t// out\n        /* \"@openzeppelin/contracts/security/ReentrancyGuard.sol\":1759:1760  2 */\n    tag_327:\n        /* \"contracts/contracts/protocol/TuliaPool.sol\":723:11971  contract TuliaPool is ReentrancyGuard {... */\n      mload(0x40)\n      shl(0xe5, 0x461bcd)\n        /* \"@openzeppelin/contracts/security/ReentrancyGuard.sol\":1759:1760  2 */\n      dup2\n      mstore\n      0x20\n      0x04\n      dup3\n      add\n      mstore\n      0x1f\n      0x24\n      dup3\n      add\n        /* \"contracts/contracts/protocol/TuliaPool.sol\":723:11971  contract TuliaPool is ReentrancyGuard {... */\n      mstore\n        /* \"@openzeppelin/contracts/security/ReentrancyGuard.sol\":1759:1760  2 */\n      0x5265656e7472616e637947756172643a207265656e7472616e742063616c6c00\n        /* \"contracts/contracts/protocol/TuliaPool.sol\":723:11971  contract TuliaPool is ReentrancyGuard {... */\n      0x44\n      dup3\n      add\n        /* \"@openzeppelin/contracts/security/ReentrancyGuard.sol\":1759:1760  2 */\n      mstore\n      0x64\n      swap1\n      revert\n        /* \"contracts/contracts/protocol/TuliaPool.sol\":723:11971  contract TuliaPool is ReentrancyGuard {... */\n    tag_7:\n      swap2\n      swap1\n      dup3\n      add\n      dup1\n      swap3\n      gt\n      tag_329\n      jumpi\n      jump\t// out\n    tag_329:\n      mstore(0x00, shl(0xe0, 0x4e487b71))\n      mstore(0x04, 0x11)\n      revert(0x00, 0x24)\n    tag_8:\n      swap1\n      dup2\n      0x20\n      swap2\n      sub\n      slt\n      tag_333\n      jumpi\n      mload\n      dup1\n      iszero\n      iszero\n      dup2\n      sub\n      tag_333\n      jumpi\n      swap1\n      jump\t// out\n    tag_333:\n      0x00\n      dup1\n      revert\n        /* \"@openzeppelin/contracts/token/ERC20/utils/SafeERC20.sol\":4059:4688  function _callOptionalReturn(IERC20 token, bytes memory data) private {... */\n    tag_9:\n        /* \"@openzeppelin/contracts/utils/Address.sol\":2847:2848  0 */\n      0x00\n        /* \"@openzeppelin/contracts/token/ERC20/utils/SafeERC20.sol\":4059:4688  function _callOptionalReturn(IERC20 token, bytes memory data) private {... */\n      dup1\n        /* \"@openzeppelin/contracts/utils/Address.sol\":3510:3565  verifyCallResultFromTarget(target, success, returndata) */\n      tag_335\n        /* \"@openzeppelin/contracts/token/ERC20/utils/SafeERC20.sol\":4059:4688  function _callOptionalReturn(IERC20 token, bytes memory data) private {... */\n      swap3\n        /* \"contracts/contracts/protocol/TuliaPool.sol\":723:11971  contract TuliaPool is ReentrancyGuard {... */\n      0x01\n      dup1\n      0xa0\n      shl\n      sub\n      and\n        /* \"@openzeppelin/contracts/utils/Address.sol\":3462:3493  target.call{value: value}(data) */\n      swap4\n      0x20\n      dup2\n      mload\n      swap2\n      add\n      dup3\n      dup7\n      gas\n      call\n      tag_336\n      tag_10\n      jump\t// in\n    tag_336:\n        /* \"@openzeppelin/contracts/utils/Address.sol\":3510:3565  verifyCallResultFromTarget(target, success, returndata) */\n      swap1\n      dup4\n      tag_11\n      jump\t// in\n    tag_335:\n        /* \"contracts/contracts/protocol/TuliaPool.sol\":723:11971  contract TuliaPool is ReentrancyGuard {... */\n      dup1\n      mload\n        /* \"@openzeppelin/contracts/token/ERC20/utils/SafeERC20.sol\":4551:4573  returndata.length != 0 */\n      swap1\n      dup2\n      iszero\n      iszero\n        /* \"@openzeppelin/contracts/token/ERC20/utils/SafeERC20.sol\":4551:4608  returndata.length != 0 && !abi.decode(returndata, (bool)) */\n      swap2\n      dup3\n      tag_337\n      jumpi\n        /* \"@openzeppelin/contracts/token/ERC20/utils/SafeERC20.sol\":4059:4688  function _callOptionalReturn(IERC20 token, bytes memory data) private {... */\n    tag_338:\n        /* \"@openzeppelin/contracts/token/ERC20/utils/SafeERC20.sol\":4547:4682  if (returndata.length != 0 && !abi.decode(returndata, (bool))) {... */\n      pop\n      pop\n      tag_339\n      jumpi\n        /* \"@openzeppelin/contracts/token/ERC20/utils/SafeERC20.sol\":4059:4688  function _callOptionalReturn(IERC20 token, bytes memory data) private {... */\n      pop\n      jump\t// out\n        /* \"@openzeppelin/contracts/token/ERC20/utils/SafeERC20.sol\":4547:4682  if (returndata.length != 0 && !abi.decode(returndata, (bool))) {... */\n    tag_339:\n        /* \"contracts/contracts/protocol/TuliaPool.sol\":723:11971  contract TuliaPool is ReentrancyGuard {... */\n      0x24\n      swap1\n      mload(0x40)\n        /* \"@openzeppelin/contracts/token/ERC20/utils/SafeERC20.sol\":4631:4671  SafeERC20FailedOperation(address(token)) */\n      swap1\n      shl(0xe0, 0x5274afe7)\n      dup3\n      mstore\n      0x04\n      dup3\n      add\n        /* \"contracts/contracts/protocol/TuliaPool.sol\":723:11971  contract TuliaPool is ReentrancyGuard {... */\n      mstore\n        /* \"@openzeppelin/contracts/token/ERC20/utils/SafeERC20.sol\":4631:4671  SafeERC20FailedOperation(address(token)) */\n      revert\n        /* \"@openzeppelin/contracts/token/ERC20/utils/SafeERC20.sol\":4551:4608  returndata.length != 0 && !abi.decode(returndata, (bool)) */\n    tag_337:\n        /* \"@openzeppelin/contracts/token/ERC20/utils/SafeERC20.sol\":4578:4608  abi.decode(returndata, (bool)) */\n      tag_341\n      swap3\n      pop\n        /* \"@openzeppelin/contracts/utils/Address.sol\":3462:3493  target.call{value: value}(data) */\n      0x20\n        /* \"@openzeppelin/contracts/token/ERC20/utils/SafeERC20.sol\":4578:4608  abi.decode(returndata, (bool)) */\n      dup1\n      swap2\n      dup4\n      add\n      add\n      swap2\n      add\n      tag_8\n      jump\t// in\n    tag_341:\n        /* \"@openzeppelin/contracts/token/ERC20/utils/SafeERC20.sol\":4577:4608  !abi.decode(returndata, (bool)) */\n      iszero\n        /* \"@openzeppelin/contracts/token/ERC20/utils/SafeERC20.sol\":4551:4608  returndata.length != 0 && !abi.decode(returndata, (bool)) */\n      0x00\n      dup1\n      jump(tag_338)\n        /* \"contracts/contracts/protocol/TuliaPool.sol\":723:11971  contract TuliaPool is ReentrancyGuard {... */\n    tag_10:\n      jumpi(tag_342, iszero(returndatasize))\n      returndatasize\n      swap1\n      0xffffffffffffffff\n      dup3\n      gt\n      tag_323\n      jumpi\n      mload(0x40)\n      swap2\n      tag_346\n        /* \"@openzeppelin/contracts/token/ERC20/utils/SafeERC20.sol\":3411:3458  abi.encodeCall(token.approve, (spender, value)) */\n      0x1f\n        /* \"contracts/contracts/protocol/TuliaPool.sol\":723:11971  contract TuliaPool is ReentrancyGuard {... */\n      dup3\n      add\n      not(0x1f)\n      and\n      0x20\n      add\n      dup5\n      tag_3\n      jump\t// in\n    tag_346:\n      dup3\n      mstore\n      returndatasize\n      0x00\n      0x20\n      dup5\n      add\n      returndatacopy\n      jump\t// out\n    tag_342:\n      0x60\n      swap1\n      jump\t// out\n        /* \"@openzeppelin/contracts/utils/Address.sol\":4625:5207  function verifyCallResultFromTarget(... */\n    tag_11:\n      swap1\n        /* \"@openzeppelin/contracts/utils/Address.sol\":4797:4805  !success */\n      tag_348\n      jumpi\n      pop\n        /* \"contracts/contracts/protocol/TuliaPool.sol\":723:11971  contract TuliaPool is ReentrancyGuard {... */\n      dup1\n      mload\n        /* \"@openzeppelin/contracts/utils/Address.sol\":5874:5895  returndata.length > 0 */\n      iszero\n        /* \"@openzeppelin/contracts/utils/Address.sol\":5874:5891  returndata.length */\n      tag_350\n      jumpi\n        /* \"@openzeppelin/contracts/utils/Address.sol\":6046:6188  assembly {... */\n      dup1\n      mload\n      swap1\n      0x20\n      add\n      revert\n        /* \"@openzeppelin/contracts/utils/Address.sol\":5870:6253  if (returndata.length > 0) {... */\n    tag_350:\n        /* \"contracts/contracts/protocol/TuliaPool.sol\":723:11971  contract TuliaPool is ReentrancyGuard {... */\n      mload(0x40)\n      shl(0xe1, 0x0a12f521)\n        /* \"@openzeppelin/contracts/utils/Address.sol\":6225:6242  FailedInnerCall() */\n      dup2\n      mstore\n      0x04\n      swap1\n      revert\n        /* \"@openzeppelin/contracts/utils/Address.sol\":4793:5201  if (!success) {... */\n    tag_348:\n        /* \"contracts/contracts/protocol/TuliaPool.sol\":723:11971  contract TuliaPool is ReentrancyGuard {... */\n      dup2\n      mload\n        /* \"@openzeppelin/contracts/utils/Address.sol\":5045:5067  returndata.length == 0 */\n      iszero\n        /* \"@openzeppelin/contracts/utils/Address.sol\":5045:5094  returndata.length == 0 && target.code.length == 0 */\n      dup1\n      tag_352\n      jumpi\n        /* \"@openzeppelin/contracts/utils/Address.sol\":4793:5201  if (!success) {... */\n    tag_353:\n        /* \"@openzeppelin/contracts/utils/Address.sol\":5041:5160  if (returndata.length == 0 && target.code.length == 0) {... */\n      tag_354\n      jumpi\n        /* \"@openzeppelin/contracts/utils/Address.sol\":5173:5190  return returndata */\n      pop\n      swap1\n      jump\t// out\n        /* \"@openzeppelin/contracts/utils/Address.sol\":5041:5160  if (returndata.length == 0 && target.code.length == 0) {... */\n    tag_354:\n        /* \"contracts/contracts/protocol/TuliaPool.sol\":723:11971  contract TuliaPool is ReentrancyGuard {... */\n      mload(0x40)\n      shl(0xe0, 0x9996b315)\n        /* \"@openzeppelin/contracts/utils/Address.sol\":5121:5145  AddressEmptyCode(target) */\n      dup2\n      mstore\n      sub(shl(0xa0, 0x01), 0x01)\n        /* \"contracts/contracts/protocol/TuliaPool.sol\":723:11971  contract TuliaPool is ReentrancyGuard {... */\n      swap1\n      swap2\n      and\n        /* \"@openzeppelin/contracts/utils/Address.sol\":5121:5145  AddressEmptyCode(target) */\n      0x04\n      dup3\n      add\n        /* \"contracts/contracts/protocol/TuliaPool.sol\":723:11971  contract TuliaPool is ReentrancyGuard {... */\n      mstore\n      0x24\n      swap1\n        /* \"@openzeppelin/contracts/utils/Address.sol\":5121:5145  AddressEmptyCode(target) */\n      revert\n        /* \"@openzeppelin/contracts/utils/Address.sol\":5045:5094  returndata.length == 0 && target.code.length == 0 */\n    tag_352:\n        /* \"@openzeppelin/contracts/utils/Address.sol\":5071:5089  target.code.length */\n      pop\n      dup1\n      extcodesize\n        /* \"@openzeppelin/contracts/utils/Address.sol\":5071:5094  target.code.length == 0 */\n      iszero\n        /* \"@openzeppelin/contracts/utils/Address.sol\":5045:5094  returndata.length == 0 && target.code.length == 0 */\n      jump(tag_353)\n        /* \"@openzeppelin/contracts/token/ERC20/utils/SafeERC20.sol\":1702:1890  function safeTransferFrom(IERC20 token, address from, address to, uint256 value) internal {... */\n    tag_12:\n        /* \"contracts/contracts/protocol/TuliaPool.sol\":723:11971  contract TuliaPool is ReentrancyGuard {... */\n      mload(0x40)\n      shl(0xe0, 0x23b872dd)\n        /* \"@openzeppelin/contracts/token/ERC20/utils/SafeERC20.sol\":1829:1882  abi.encodeCall(token.transferFrom, (from, to, value)) */\n      0x20\n      dup3\n      add\n      mstore\n      sub(shl(0xa0, 0x01), 0x01)\n        /* \"contracts/contracts/protocol/TuliaPool.sol\":723:11971  contract TuliaPool is ReentrancyGuard {... */\n      swap3\n      dup4\n      and\n        /* \"@openzeppelin/contracts/token/ERC20/utils/SafeERC20.sol\":1829:1882  abi.encodeCall(token.transferFrom, (from, to, value)) */\n      0x24\n      dup3\n      add\n        /* \"contracts/contracts/protocol/TuliaPool.sol\":723:11971  contract TuliaPool is ReentrancyGuard {... */\n      mstore\n      swap3\n      swap1\n      swap2\n      and\n      0x44\n      dup4\n      add\n      mstore\n      0x64\n      dup1\n      dup4\n      add\n      swap4\n      swap1\n      swap4\n      mstore\n        /* \"@openzeppelin/contracts/token/ERC20/utils/SafeERC20.sol\":1829:1882  abi.encodeCall(token.transferFrom, (from, to, value)) */\n      swap2\n      dup2\n      mstore\n        /* \"contracts/contracts/protocol/TuliaPool.sol\":723:11971  contract TuliaPool is ReentrancyGuard {... */\n      0xa0\n      dup2\n      add\n      swap2\n      dup2\n      dup4\n      lt\n      0xffffffffffffffff\n      dup5\n      gt\n      or\n      tag_323\n      jumpi\n        /* \"@openzeppelin/contracts/token/ERC20/utils/SafeERC20.sol\":1829:1882  abi.encodeCall(token.transferFrom, (from, to, value)) */\n      tag_358\n        /* \"contracts/contracts/protocol/TuliaPool.sol\":723:11971  contract TuliaPool is ReentrancyGuard {... */\n      swap3\n      0x40\n      mstore\n        /* \"@openzeppelin/contracts/token/ERC20/utils/SafeERC20.sol\":1829:1882  abi.encodeCall(token.transferFrom, (from, to, value)) */\n      tag_9\n      jump\t// in\n    tag_358:\n        /* \"@openzeppelin/contracts/token/ERC20/utils/SafeERC20.sol\":1702:1890  function safeTransferFrom(IERC20 token, address from, address to, uint256 value) internal {... */\n      jump\t// out\n        /* \"contracts/contracts/protocol/TuliaPool.sol\":9963:10221  function _closeLoan() internal {... */\n    tag_13:\n        /* \"contracts/contracts/protocol/TuliaPool.sol\":10004:10028  state = LoanState.CLOSED */\n      0x04\n        /* \"contracts/contracts/protocol/TuliaPool.sol\":723:11971  contract TuliaPool is ReentrancyGuard {... */\n      dup1\n      sload\n      not(shl(0xa0, 0xff))\n      and\n      shl(0xa0, 0x03)\n      or\n      dup2\n      sstore\n        /* \"contracts/contracts/protocol/TuliaPool.sol\":10038:10051  poolOrganizer */\n      0x02\n        /* \"contracts/contracts/protocol/TuliaPool.sol\":723:11971  contract TuliaPool is ReentrancyGuard {... */\n      sload\n      0x00\n      swap2\n      sub(shl(0xa0, 0x01), 0x01)\n      swap2\n      dup3\n      and\n      swap2\n      swap1\n        /* \"contracts/contracts/protocol/TuliaPool.sol\":10038:10081  poolOrganizer.deregisterPool(address(this)) */\n      dup3\n      extcodesize\n      iszero\n      tag_359\n      jumpi\n        /* \"contracts/contracts/protocol/TuliaPool.sol\":723:11971  contract TuliaPool is ReentrancyGuard {... */\n      0x40\n      swap2\n      dup3\n      mload\n      dup6\n      dup2\n      0x24\n      dup2\n      dup4\n      shl(0xe0, 0x7e72c7d7)\n        /* \"contracts/contracts/protocol/TuliaPool.sol\":10038:10081  poolOrganizer.deregisterPool(address(this)) */\n      swap10\n      dup11\n      dup4\n      mstore\n        /* \"contracts/contracts/protocol/TuliaPool.sol\":10075:10079  this */\n      address\n        /* \"contracts/contracts/protocol/TuliaPool.sol\":10038:10081  poolOrganizer.deregisterPool(address(this)) */\n      dup10\n      dup5\n      add\n        /* \"contracts/contracts/protocol/TuliaPool.sol\":723:11971  contract TuliaPool is ReentrancyGuard {... */\n      mstore\n        /* \"contracts/contracts/protocol/TuliaPool.sol\":10038:10081  poolOrganizer.deregisterPool(address(this)) */\n      gas\n      call\n      dup1\n      iszero\n      tag_367\n      jumpi\n      tag_363\n      jumpi\n        /* \"contracts/contracts/protocol/TuliaPool.sol\":9963:10221  function _closeLoan() internal {... */\n    tag_364:\n        /* \"contracts/contracts/protocol/TuliaPool.sol\":723:11971  contract TuliaPool is ReentrancyGuard {... */\n      pop\n      dup1\n      sload(0x03)\n      and\n        /* \"contracts/contracts/protocol/TuliaPool.sol\":10091:10134  vaultManager.deregisterVault(address(this)) */\n      dup1\n      extcodesize\n      iszero\n      tag_365\n      jumpi\n        /* \"contracts/contracts/protocol/TuliaPool.sol\":723:11971  contract TuliaPool is ReentrancyGuard {... */\n      dup6\n      dup1\n      swap2\n      0x24\n      dup7\n      mload\n      dup1\n      swap5\n      dup2\n      swap4\n      shl(0xe0, 0x38e270ed)\n        /* \"contracts/contracts/protocol/TuliaPool.sol\":10091:10134  vaultManager.deregisterVault(address(this)) */\n      dup4\n      mstore\n        /* \"contracts/contracts/protocol/TuliaPool.sol\":10075:10079  this */\n      address\n        /* \"contracts/contracts/protocol/TuliaPool.sol\":10091:10134  vaultManager.deregisterVault(address(this)) */\n      dup10\n      dup5\n      add\n        /* \"contracts/contracts/protocol/TuliaPool.sol\":723:11971  contract TuliaPool is ReentrancyGuard {... */\n      mstore\n        /* \"contracts/contracts/protocol/TuliaPool.sol\":10091:10134  vaultManager.deregisterVault(address(this)) */\n      gas\n      call\n      dup1\n      iszero\n      tag_367\n      jumpi\n      swap1\n      dup7\n      swap2\n      tag_369\n      jumpi\n        /* \"contracts/contracts/protocol/TuliaPool.sol\":9963:10221  function _closeLoan() internal {... */\n    tag_370:\n        /* \"contracts/contracts/protocol/TuliaPool.sol\":723:11971  contract TuliaPool is ReentrancyGuard {... */\n      pop\n      pop\n      dup2\n      sload\n      and\n        /* \"contracts/contracts/protocol/TuliaPool.sol\":10144:10187  rewardManager.deregisterPool(address(this)) */\n      swap3\n      dup4\n      extcodesize\n      iszero\n      tag_202\n      jumpi\n        /* \"contracts/contracts/protocol/TuliaPool.sol\":723:11971  contract TuliaPool is ReentrancyGuard {... */\n      swap1\n      0x24\n      dup6\n      swap3\n      dup4\n      dup6\n      mload\n        /* \"contracts/contracts/protocol/TuliaPool.sol\":10144:10187  rewardManager.deregisterPool(address(this)) */\n      swap7\n      dup8\n      swap5\n      dup6\n      swap4\n      dup5\n      mstore\n        /* \"contracts/contracts/protocol/TuliaPool.sol\":10075:10079  this */\n      address\n        /* \"contracts/contracts/protocol/TuliaPool.sol\":10144:10187  rewardManager.deregisterPool(address(this)) */\n      swap1\n      dup5\n      add\n        /* \"contracts/contracts/protocol/TuliaPool.sol\":723:11971  contract TuliaPool is ReentrancyGuard {... */\n      mstore\n        /* \"contracts/contracts/protocol/TuliaPool.sol\":10144:10187  rewardManager.deregisterPool(address(this)) */\n      gas\n      call\n      swap1\n      dup2\n      iszero\n      tag_373\n      jumpi\n      pop\n      tag_375\n      jumpi\n        /* \"contracts/contracts/protocol/TuliaPool.sol\":9963:10221  function _closeLoan() internal {... */\n    tag_376:\n        /* \"contracts/contracts/protocol/TuliaPool.sol\":10202:10214  LoanClosed() */\n      pop\n      dup1\n      0x409fced1b85ae32a29fb1e18894d8361a5f2653dc27adf7102d86175c2901d7c\n      swap2\n      log1\n        /* \"contracts/contracts/protocol/TuliaPool.sol\":9963:10221  function _closeLoan() internal {... */\n      jump\t// out\n        /* \"contracts/contracts/protocol/TuliaPool.sol\":10144:10187  rewardManager.deregisterPool(address(this)) */\n    tag_375:\n      tag_377\n      dup3\n      swap2\n      tag_2\n      jump\t// in\n    tag_377:\n        /* \"contracts/contracts/protocol/TuliaPool.sol\":723:11971  contract TuliaPool is ReentrancyGuard {... */\n      tag_68\n      jumpi\n        /* \"contracts/contracts/protocol/TuliaPool.sol\":10144:10187  rewardManager.deregisterPool(address(this)) */\n      0x00\n      jump(tag_376)\n    tag_373:\n        /* \"contracts/contracts/protocol/TuliaPool.sol\":723:11971  contract TuliaPool is ReentrancyGuard {... */\n      mload\n      returndatasize\n      dup5\n      dup3\n      returndatacopy\n      returndatasize\n      swap1\n      revert\n        /* \"contracts/contracts/protocol/TuliaPool.sol\":10091:10134  vaultManager.deregisterVault(address(this)) */\n    tag_369:\n      tag_380\n      swap1\n      tag_2\n      jump\t// in\n    tag_380:\n        /* \"contracts/contracts/protocol/TuliaPool.sol\":723:11971  contract TuliaPool is ReentrancyGuard {... */\n      tag_202\n      jumpi\n        /* \"contracts/contracts/protocol/TuliaPool.sol\":10091:10134  vaultManager.deregisterVault(address(this)) */\n      dup5\n      0x00\n      jump(tag_370)\n    tag_367:\n        /* \"contracts/contracts/protocol/TuliaPool.sol\":723:11971  contract TuliaPool is ReentrancyGuard {... */\n      dup5\n      mload\n      returndatasize\n      dup9\n      dup3\n      returndatacopy\n      returndatasize\n      swap1\n      revert\n        /* \"contracts/contracts/protocol/TuliaPool.sol\":10091:10134  vaultManager.deregisterVault(address(this)) */\n    tag_365:\n        /* \"contracts/contracts/protocol/TuliaPool.sol\":723:11971  contract TuliaPool is ReentrancyGuard {... */\n      dup6\n      dup1\n      revert\n        /* \"contracts/contracts/protocol/TuliaPool.sol\":10038:10081  poolOrganizer.deregisterPool(address(this)) */\n    tag_363:\n      tag_383\n      swap1\n      swap6\n      swap2\n      swap6\n      tag_2\n      jump\t// in\n    tag_383:\n      swap4\n      0x00\n      jump(tag_364)\n    tag_359:\n        /* \"contracts/contracts/protocol/TuliaPool.sol\":723:11971  contract TuliaPool is ReentrancyGuard {... */\n      dup4\n      dup1\n      revert\n        /* \"contracts/contracts/protocol/TuliaPool.sol\":10302:10628  function calculateInterest() public view returns (uint256) {... */\n    tag_14:\n        /* \"contracts/contracts/protocol/TuliaPool.sol\":10405:10427  loanDetails.startBlock */\n      0x0e\n        /* \"contracts/contracts/protocol/TuliaPool.sol\":723:11971  contract TuliaPool is ReentrancyGuard {... */\n      sload\n        /* \"contracts/contracts/protocol/TuliaPool.sol\":10390:10402  block.number */\n      number\n        /* \"contracts/contracts/protocol/TuliaPool.sol\":723:11971  contract TuliaPool is ReentrancyGuard {... */\n      sub\n        /* \"contracts/contracts/protocol/TuliaPool.sol\":10390:10402  block.number */\n      number\n        /* \"contracts/contracts/protocol/TuliaPool.sol\":723:11971  contract TuliaPool is ReentrancyGuard {... */\n      dup2\n      gt\n      tag_329\n      jumpi\n        /* \"contracts/contracts/protocol/TuliaPool.sol\":10456:10621  loanDetails.interestModel.calculateInterest(... */\n      0x20\n        /* \"contracts/contracts/protocol/TuliaPool.sol\":723:11971  contract TuliaPool is ReentrancyGuard {... */\n      0x01\n      dup1\n      0xa0\n      shl\n      sub\n        /* \"contracts/contracts/protocol/TuliaPool.sol\":10456:10481  loanDetails.interestModel */\n      0x0c\n        /* \"contracts/contracts/protocol/TuliaPool.sol\":723:11971  contract TuliaPool is ReentrancyGuard {... */\n      sload\n      and\n      0x64\n        /* \"contracts/contracts/protocol/TuliaPool.sol\":10405:10427  loanDetails.startBlock */\n      0x09\n        /* \"contracts/contracts/protocol/TuliaPool.sol\":723:11971  contract TuliaPool is ReentrancyGuard {... */\n      sload\n        /* \"contracts/contracts/protocol/TuliaPool.sol\":10557:10581  loanDetails.interestRate */\n      0x0a\n        /* \"contracts/contracts/protocol/TuliaPool.sol\":723:11971  contract TuliaPool is ReentrancyGuard {... */\n      sload\n      swap3\n      mload(0x40)\n      swap6\n      dup7\n      swap5\n      dup6\n      swap4\n      shl(0xe2, 0x01786f63)\n        /* \"contracts/contracts/protocol/TuliaPool.sol\":10456:10621  loanDetails.interestModel.calculateInterest(... */\n      dup6\n      mstore\n        /* \"contracts/contracts/protocol/TuliaPool.sol\":10517:10539  loanDetails.loanAmount */\n      0x04\n        /* \"contracts/contracts/protocol/TuliaPool.sol\":10456:10621  loanDetails.interestModel.calculateInterest(... */\n      dup6\n      add\n        /* \"contracts/contracts/protocol/TuliaPool.sol\":723:11971  contract TuliaPool is ReentrancyGuard {... */\n      mstore\n      0x24\n      dup5\n      add\n      mstore\n      0x44\n      dup4\n      add\n      mstore\n        /* \"contracts/contracts/protocol/TuliaPool.sol\":10456:10621  loanDetails.interestModel.calculateInterest(... */\n      gas\n      staticcall\n      swap1\n      dup2\n      iszero\n      tag_386\n      jumpi\n      0x00\n      swap2\n      tag_388\n      jumpi\n        /* \"contracts/contracts/protocol/TuliaPool.sol\":10437:10621  return... */\n      pop\n        /* \"contracts/contracts/protocol/TuliaPool.sol\":10302:10628  function calculateInterest() public view returns (uint256) {... */\n      swap1\n      jump\t// out\n        /* \"contracts/contracts/protocol/TuliaPool.sol\":10456:10621  loanDetails.interestModel.calculateInterest(... */\n    tag_388:\n      swap1\n      0x20\n      dup3\n      returndatasize\n      dup3\n      gt\n      tag_390\n      jumpi\n    tag_391:\n      dup2\n      tag_392\n      0x20\n      swap4\n      dup4\n      tag_3\n      jump\t// in\n    tag_392:\n      dup2\n      add\n        /* \"contracts/contracts/protocol/TuliaPool.sol\":723:11971  contract TuliaPool is ReentrancyGuard {... */\n      sub\n      slt\n      tag_68\n      jumpi\n      pop\n      mload\n        /* \"contracts/contracts/protocol/TuliaPool.sol\":10302:10628  function calculateInterest() public view returns (uint256) {... */\n      swap1\n      jump\t// out\n        /* \"contracts/contracts/protocol/TuliaPool.sol\":10456:10621  loanDetails.interestModel.calculateInterest(... */\n    tag_390:\n      returndatasize\n      swap2\n      pop\n      jump(tag_391)\n    tag_386:\n        /* \"contracts/contracts/protocol/TuliaPool.sol\":723:11971  contract TuliaPool is ReentrancyGuard {... */\n      mload(0x40)\n      returndatasize\n      0x00\n      dup3\n      returndatacopy\n      returndatasize\n      swap1\n      revert\n\n    auxdata: 0xa26469706673582212208af3293a9e0fa058a2ce07b04587d616413b3b14431c82f8218b09f3099d9dbc64736f6c63430008140033\n}\n",
				"bytecode": {
					"linkReferences": {},
					"object": "6080346200038057601f6200185338819003918201601f19168301916001600160401b03831184841017620002ee578084926101809460405283398101031262000380576200004e8162000384565b6200005c6020830162000384565b916200006b6040820162000384565b916200007a6060830162000384565b9260808301519460a08401519360c08101519060e081015160018060a01b03811681036200038057610100820151916001600160a01b03831683036200038057620000c9610120820162000384565b620000e7610160620000df610140850162000384565b930162000384565b60015f55936001600160a01b0389161515806200036d575b806200035a575b8062000347575b156200030257600180546001600160a01b03199081166001600160a01b039384161790915560028054821693831693909317909255600380549092169216919091179055600454604051979093906001600160401b036101608a01908111908a1117620002ee578a5f6101408b7f3d48195705780f5c10a0d217f778f0f6d562cb1a6a699da31c0d6d756aacedfc9d61016060609e0160405260018060a01b038d16825260018060a01b038b16602083015260018060a01b038c16604083015260018060a01b031693848e83015260808201528460a08201528560c082015260018060a01b03871660e08201528261010082015243610120820152015260018060a01b03891660018060a01b0319600554161760055560018060a01b03871660018060a01b0319600654161760065560018060a01b03881660018060a01b0319600754161760075560018060a01b031960085416176008558a600955600a55600b5560018060a01b031660018060a01b0319600c541617600c5560018060a01b0319600d5416600d5543600e555f600f5560018060a01b03169060018060a81b0319161760045560405195865260018060a01b0316602086015260018060a01b0316604085015260018060a01b031692a26040516114b990816200039a8239f35b634e487b7160e01b5f52604160045260245ffd5b60405162461bcd60e51b815260206004820152601760248201527f496e76616c696420696e707574206164647265737365730000000000000000006044820152606490fd5b506001600160a01b03881615156200010d565b506001600160a01b038b16151562000106565b506001600160a01b0387161515620000ff565b5f80fd5b51906001600160a01b0382168203620003805756fe6080604081815260049182361015610015575f80fd5b5f92833560e01c9182630f4ef8a6146110275750816312261ee714610ffe5781632e1283e314610fdf5781633b1baeff14610cb2578163402d888314610a3b5781635257b56614610a1c57816364c4bec0146109fd578163654c62951461095c5781636b6d1955146109345781638a4adf241461090b5781638db579941461081d57816395cb741d146107915781639e9f669c14610154578163b2a9bb6014610184578163c19d93fb1461015457508063c51b95071461012c578063eb0c4955146101095763f4b01b18146100e8575f80fd5b346101055781600319360112610105576020906009549051908152f35b5080fd5b50346101055781600319360112610105576020906101256113f4565b9051908152f35b503461010557816003193601126101055760025490516001600160a01b039091168152602090f35b8284346101815780600319360112610181575060ff61017d925460a01c1690519182918261104b565b0390f35b80fd5b90503461078d578260031936011261078d5761019e6110bc565b6101a66113f4565b906101b46009549283611110565b92336bffffffffffffffffffffffff60a01b600d541617600d5560ff825460a01c16600581101561077a576001036107375733156106f4576005546001600160a01b039290831633146106b2578260085416938251936338d52e0f60e01b8552602094858185818a5afa90811561047b57899161067c575b508451636eb1769f60e11b808252338683019081523060208201529092889183919082900360400190829087165afa908115610672578a91610641575b5088116105f45760065485518281523386820190815230602082015291841694918890829081906040010381885afa9081156105ea578b916105b9575b5010610576578451908152308482019081526001600160a01b03881660208201528690829081906040010381865afa801561047b5788908a90610545575b6102ee9250611110565b845163095ea7b360e01b8782018181526001600160a01b038a166024808501919091526044808501959095529383529298601f199592938c90819061033460648861109a565b86519082875af16103436111be565b81610515575b508061050b575b156104b2575b5050505080600854168582600d541660448a8c89519586948593636e553f6560e01b85528b8501528d8401525af1801561047b57908691610485575b505060065416908351956370a0823160e01b8752308488015285878281865afa96871561047b578997610442575b50845163a9059cbb60e01b878201523391810191825260208201979097527f5150ab7694a22fbc01c642bc10316565247df962fa3f0ac3b5d1a18ba45b485b96610423939092909161041e919084906040010390810184528361109a565b61114d565b805460ff60a01b1916600160a11b179055519283523392a26001815580f35b965090918587813d8311610474575b61045b818361109a565b8101031261047057955195919061041e6103c0565b8880fd5b503d610451565b85513d8b823e3d90fd5b813d83116104ab575b610498818361109a565b810103126104a757845f610392565b8780fd5b503d61048e565b87519189830152898201528a6044820152604481526080810181811067ffffffffffffffff8211176104f9576104f093929161041e9189528261114d565b5f808080610356565b634e487b7160e01b8c5260418752898cfd5b50823b1515610350565b8051801592508b90831561052d575b5050505f610349565b61053d9350820181019101611131565b5f8a81610524565b50508581813d831161056f575b61055c818361109a565b8101031261047057876102ee91516102e4565b503d610552565b845162461bcd60e51b8152808501879052601b60248201527f496e73756666696369656e74206c6f616e20616c6c6f77616e636500000000006044820152606490fd5b90508781813d83116105e3575b6105d0818361109a565b810103126105df57515f6102a6565b8a80fd5b503d6105c6565b87513d8d823e3d90fd5b845162461bcd60e51b8152808501879052602160248201527f496e73756666696369656e7420636f6c6c61746572616c20616c6c6f77616e636044820152606560f81b6064820152608490fd5b90508681813d831161066b575b610658818361109a565b8101031261066757515f610269565b8980fd5b503d61064e565b86513d8c823e3d90fd5b90508581813d83116106ab575b610693818361109a565b8101031261047057518181168103610470575f61022c565b503d610689565b6020606492519162461bcd60e51b8352820152601960248201527f4c656e6465722063616e6e6f7420626520626f72726f776572000000000000006044820152fd5b906020606492519162461bcd60e51b8352820152601860248201527f496e76616c696420626f72726f776572206164647265737300000000000000006044820152fd5b906020606492519162461bcd60e51b8352820152601a60248201527f4c6f616e206e6f7420726561647920746f2061637469766174650000000000006044820152fd5b634e487b7160e01b865260218352602486fd5b8280fd5b5050346101055781600319360112610105576101609060018060a01b038060055416918160065416918060075416908060085416600954600a5490600b549284600c541694600d541695600e5497600f549981519b8c5260208c01528a01526060890152608088015260a087015260c086015260e0850152610100840152610120830152610140820152f35b90503461078d578260031936011261078d576108376110bc565b60ff815460a01c1660058110156108f8576108b6577f9e71d2fb732e68272b7e74ecfd14638673c1d77e19a5d390a3ffff054d57c44b9160209161089160018060a01b038060065416906005541690600954913091611260565b43600f55805460ff60a01b1916600160a01b1790556009549051908152a16001815580f35b6020606492519162461bcd60e51b8352820152601b60248201527f4c6f616e206e6f7420696e20637265617461626c6520737461746500000000006044820152fd5b634e487b7160e01b845260218252602484fd5b50503461010557816003193601126101055760035490516001600160a01b039091168152602090f35b5050346101055781600319360112610105576020906101256109546113f4565b600954611110565b838334610105576020928360031936011261078d5780356001600160a01b03818116918290036109f95790602486926008541693855194859384926370a0823160e01b84528301525afa9283156109ee5780936109bc575b505051908152f35b909192508382813d83116109e7575b6109d5818361109a565b810103126101815750519083806109b4565b503d6109cb565b8251903d90823e3d90fd5b8480fd5b505034610105578160031936011261010557602090600b549051908152f35b505034610105578160031936011261010557602090600a549051908152f35b83915034610105578160031936011261010557610a566110bc565b60ff815460a01c166005811015610c9f57600203610c6657610a796109546113f4565b6007548451636eb1769f60e11b81523384820190815230602082810191909152946001600160a01b03938416939290918690829081906040010381875afa908115610bd5579085918891610c35575b5010610bdf5786516370a0823160e01b815233828201528581602481875afa908115610bd5579085918891610ba0575b5010610b4c5750827f4002dba848920f438092e08090cfb5fc47144c22704268b402c9553a1b5adfe695969282610b3893600d5416906005541691611260565b610b406112bb565b51908152a16001815580f35b865162461bcd60e51b8152908101859052602860248201527f496e73756666696369656e7420746f6b656e2062616c616e636520666f722072604482015267195c185e5b595b9d60c21b6064820152608490fd5b809250878092503d8311610bce575b610bb9818361109a565b81010312610bca5784905189610af8565b8680fd5b503d610baf565b88513d89823e3d90fd5b865162461bcd60e51b8152908101859052602a60248201527f496e73756666696369656e7420746f6b656e20616c6c6f77616e636520666f72604482015269081c995c185e5b595b9d60b21b6064820152608490fd5b809250878092503d8311610c5f575b610c4e818361109a565b81010312610bca5784905189610ac8565b503d610c44565b606490602084519162461bcd60e51b835282015260136024820152724c6f616e206d7573742062652061637469766560681b6044820152fd5b634e487b7160e01b835260218252602483fd5b9190503461078d578260031936011261078d57815460ff8160a01c166005811015610fcc57600203610f9457610ced600e54600b5490611110565b4210610f4657610d07600954610d016113f4565b90611110565b9160018060a01b03938460075416856005541693835195866370a0823160e01b93848252878683015281602460209a8b935afa908115610672578a91610f19575b501015610ec55760ff60a01b1916600160a21b178255600854600d5484519283528716828401819052908716929088908784602481885afa938415610e8c578294610e96575b508551936363737ac960e11b8552838501528784602481885afa938415610e8c579082918995949394610e57575b5094606493949587519889968795635d043b2960e11b8752860152602485015260448401525af1908115610e4e5750610e25575b5050600d54167ff4e5cf42cbb1d0c6c91e16d925349feb6c5d970652f6ec77b1ff1262f7284cd58280a2610e226112bb565b80f35b813d8311610e47575b610e38818361109a565b81010312610105575f80610df0565b503d610e2e565b513d86823e3d90fd5b8094508591953d8311610e85575b610e6f818361109a565b8101031261018157915187939092906064610dbc565b503d610e65565b86513d84823e3d90fd5b9093508781813d8311610ebe575b610eae818361109a565b810103126101055751925f610d8e565b503d610ea4565b835162461bcd60e51b8152808401879052602860248201527f496e73756666696369656e7420616d6d6f756e7420666f7220746f74616c2072604482015267195c185e5b595b9d60c21b6064820152608490fd5b90508781813d8311610f3f575b610f30818361109a565b8101031261066757515f610d48565b503d610f26565b815162461bcd60e51b8152602081850152602260248201527f52657061796d656e7420706572696f6420686173206e6f742079657420656e64604482015261195960f21b6064820152608490fd5b815162461bcd60e51b815260208185015260126024820152714c6f616e206973206e6f742061637469766560701b6044820152606490fd5b634e487b7160e01b855260218452602485fd5b505034610105578160031936011261010557602090600f549051908152f35b50503461010557816003193601126101055760015490516001600160a01b039091168152602090f35b84913461078d578260031936011261078d57546001600160a01b0316815260209150f35b91906020830192600582101561105e5752565b634e487b7160e01b5f52602160045260245ffd5b67ffffffffffffffff811161108657604052565b634e487b7160e01b5f52604160045260245ffd5b90601f8019910116810190811067ffffffffffffffff82111761108657604052565b60025f54146110cb5760025f55565b60405162461bcd60e51b815260206004820152601f60248201527f5265656e7472616e637947756172643a207265656e7472616e742063616c6c006044820152606490fd5b9190820180921161111d57565b634e487b7160e01b5f52601160045260245ffd5b90816020910312611149575180151581036111495790565b5f80fd5b5f806111759260018060a01b03169360208151910182865af161116e6111be565b90836111fd565b80519081151591826111a3575b505061118b5750565b60249060405190635274afe760e01b82526004820152fd5b6111b69250602080918301019101611131565b155f80611182565b3d156111f8573d9067ffffffffffffffff821161108657604051916111ed601f8201601f19166020018461109a565b82523d5f602084013e565b606090565b90611224575080511561121257805190602001fd5b604051630a12f52160e11b8152600490fd5b81511580611257575b611235575090565b604051639996b31560e01b81526001600160a01b039091166004820152602490fd5b50803b1561122d565b6040516323b872dd60e01b60208201526001600160a01b03928316602482015292909116604483015260648083019390935291815260a081019181831067ffffffffffffffff841117611086576112b99260405261114d565b565b6004805460ff60a01b1916600360a01b1781556002545f916001600160a01b039182169190823b156113f0576040918251858160248183637e72c7d760e01b998a835230898401525af180156113cf576113dd575b508060035416803b156113d95785809160248651809481936338e270ed60e01b835230898401525af180156113cf579086916113bb575b505081541692833b156109f95790602485928385519687948593845230908401525af19081156113b2575061139e575b50807f409fced1b85ae32a29fb1e18894d8361a5f2653dc27adf7102d86175c2901d7c91a1565b6113a88291611072565b610181575f611377565b513d84823e3d90fd5b6113c490611072565b6109f957845f611347565b84513d88823e3d90fd5b8580fd5b6113e990959195611072565b935f611310565b8380fd5b600e54430343811161111d57602060018060a01b03600c54166064600954600a549260405195869485936301786f6360e21b85526004850152602484015260448301525afa908115611478575f9161144a575090565b906020823d8211611470575b816114636020938361109a565b8101031261018157505190565b3d9150611456565b6040513d5f823e3d90fdfea26469706673582212208af3293a9e0fa058a2ce07b04587d616413b3b14431c82f8218b09f3099d9dbc64736f6c63430008140033",
					"opcodes": "PUSH1 0x80 CALLVALUE PUSH3 0x380 JUMPI PUSH1 0x1F PUSH3 0x1853 CODESIZE DUP2 SWAP1 SUB SWAP2 DUP3 ADD PUSH1 0x1F NOT AND DUP4 ADD SWAP2 PUSH1 0x1 PUSH1 0x1 PUSH1 0x40 SHL SUB DUP4 GT DUP5 DUP5 LT OR PUSH3 0x2EE JUMPI DUP1 DUP5 SWAP3 PUSH2 0x180 SWAP5 PUSH1 0x40 MSTORE DUP4 CODECOPY DUP2 ADD SUB SLT PUSH3 0x380 JUMPI PUSH3 0x4E DUP2 PUSH3 0x384 JUMP JUMPDEST PUSH3 0x5C PUSH1 0x20 DUP4 ADD PUSH3 0x384 JUMP JUMPDEST SWAP2 PUSH3 0x6B PUSH1 0x40 DUP3 ADD PUSH3 0x384 JUMP JUMPDEST SWAP2 PUSH3 0x7A PUSH1 0x60 DUP4 ADD PUSH3 0x384 JUMP JUMPDEST SWAP3 PUSH1 0x80 DUP4 ADD MLOAD SWAP5 PUSH1 0xA0 DUP5 ADD MLOAD SWAP4 PUSH1 0xC0 DUP2 ADD MLOAD SWAP1 PUSH1 0xE0 DUP2 ADD MLOAD PUSH1 0x1 DUP1 PUSH1 0xA0 SHL SUB DUP2 AND DUP2 SUB PUSH3 0x380 JUMPI PUSH2 0x100 DUP3 ADD MLOAD SWAP2 PUSH1 0x1 PUSH1 0x1 PUSH1 0xA0 SHL SUB DUP4 AND DUP4 SUB PUSH3 0x380 JUMPI PUSH3 0xC9 PUSH2 0x120 DUP3 ADD PUSH3 0x384 JUMP JUMPDEST PUSH3 0xE7 PUSH2 0x160 PUSH3 0xDF PUSH2 0x140 DUP6 ADD PUSH3 0x384 JUMP JUMPDEST SWAP4 ADD PUSH3 0x384 JUMP JUMPDEST PUSH1 0x1 PUSH0 SSTORE SWAP4 PUSH1 0x1 PUSH1 0x1 PUSH1 0xA0 SHL SUB DUP10 AND ISZERO ISZERO DUP1 PUSH3 0x36D JUMPI JUMPDEST DUP1 PUSH3 0x35A JUMPI JUMPDEST DUP1 PUSH3 0x347 JUMPI JUMPDEST ISZERO PUSH3 0x302 JUMPI PUSH1 0x1 DUP1 SLOAD PUSH1 0x1 PUSH1 0x1 PUSH1 0xA0 SHL SUB NOT SWAP1 DUP2 AND PUSH1 0x1 PUSH1 0x1 PUSH1 0xA0 SHL SUB SWAP4 DUP5 AND OR SWAP1 SWAP2 SSTORE PUSH1 0x2 DUP1 SLOAD DUP3 AND SWAP4 DUP4 AND SWAP4 SWAP1 SWAP4 OR SWAP1 SWAP3 SSTORE PUSH1 0x3 DUP1 SLOAD SWAP1 SWAP3 AND SWAP3 AND SWAP2 SWAP1 SWAP2 OR SWAP1 SSTORE PUSH1 0x4 SLOAD PUSH1 0x40 MLOAD SWAP8 SWAP1 SWAP4 SWAP1 PUSH1 0x1 PUSH1 0x1 PUSH1 0x40 SHL SUB PUSH2 0x160 DUP11 ADD SWAP1 DUP2 GT SWAP1 DUP11 GT OR PUSH3 0x2EE JUMPI DUP11 PUSH0 PUSH2 0x140 DUP12 PUSH32 0x3D48195705780F5C10A0D217F778F0F6D562CB1A6A699DA31C0D6D756AACEDFC SWAP14 PUSH2 0x160 PUSH1 0x60 SWAP15 ADD PUSH1 0x40 MSTORE PUSH1 0x1 DUP1 PUSH1 0xA0 SHL SUB DUP14 AND DUP3 MSTORE PUSH1 0x1 DUP1 PUSH1 0xA0 SHL SUB DUP12 AND PUSH1 0x20 DUP4 ADD MSTORE PUSH1 0x1 DUP1 PUSH1 0xA0 SHL SUB DUP13 AND PUSH1 0x40 DUP4 ADD MSTORE PUSH1 0x1 DUP1 PUSH1 0xA0 SHL SUB AND SWAP4 DUP5 DUP15 DUP4 ADD MSTORE PUSH1 0x80 DUP3 ADD MSTORE DUP5 PUSH1 0xA0 DUP3 ADD MSTORE DUP6 PUSH1 0xC0 DUP3 ADD MSTORE PUSH1 0x1 DUP1 PUSH1 0xA0 SHL SUB DUP8 AND PUSH1 0xE0 DUP3 ADD MSTORE DUP3 PUSH2 0x100 DUP3 ADD MSTORE NUMBER PUSH2 0x120 DUP3 ADD MSTORE ADD MSTORE PUSH1 0x1 DUP1 PUSH1 0xA0 SHL SUB DUP10 AND PUSH1 0x1 DUP1 PUSH1 0xA0 SHL SUB NOT PUSH1 0x5 SLOAD AND OR PUSH1 0x5 SSTORE PUSH1 0x1 DUP1 PUSH1 0xA0 SHL SUB DUP8 AND PUSH1 0x1 DUP1 PUSH1 0xA0 SHL SUB NOT PUSH1 0x6 SLOAD AND OR PUSH1 0x6 SSTORE PUSH1 0x1 DUP1 PUSH1 0xA0 SHL SUB DUP9 AND PUSH1 0x1 DUP1 PUSH1 0xA0 SHL SUB NOT PUSH1 0x7 SLOAD AND OR PUSH1 0x7 SSTORE PUSH1 0x1 DUP1 PUSH1 0xA0 SHL SUB NOT PUSH1 0x8 SLOAD AND OR PUSH1 0x8 SSTORE DUP11 PUSH1 0x9 SSTORE PUSH1 0xA SSTORE PUSH1 0xB SSTORE PUSH1 0x1 DUP1 PUSH1 0xA0 SHL SUB AND PUSH1 0x1 DUP1 PUSH1 0xA0 SHL SUB NOT PUSH1 0xC SLOAD AND OR PUSH1 0xC SSTORE PUSH1 0x1 DUP1 PUSH1 0xA0 SHL SUB NOT PUSH1 0xD SLOAD AND PUSH1 0xD SSTORE NUMBER PUSH1 0xE SSTORE PUSH0 PUSH1 0xF SSTORE PUSH1 0x1 DUP1 PUSH1 0xA0 SHL SUB AND SWAP1 PUSH1 0x1 DUP1 PUSH1 0xA8 SHL SUB NOT AND OR PUSH1 0x4 SSTORE PUSH1 0x40 MLOAD SWAP6 DUP7 MSTORE PUSH1 0x1 DUP1 PUSH1 0xA0 SHL SUB AND PUSH1 0x20 DUP7 ADD MSTORE PUSH1 0x1 DUP1 PUSH1 0xA0 SHL SUB AND PUSH1 0x40 DUP6 ADD MSTORE PUSH1 0x1 DUP1 PUSH1 0xA0 SHL SUB AND SWAP3 LOG2 PUSH1 0x40 MLOAD PUSH2 0x14B9 SWAP1 DUP2 PUSH3 0x39A DUP3 CODECOPY RETURN JUMPDEST PUSH4 0x4E487B71 PUSH1 0xE0 SHL PUSH0 MSTORE PUSH1 0x41 PUSH1 0x4 MSTORE PUSH1 0x24 PUSH0 REVERT JUMPDEST PUSH1 0x40 MLOAD PUSH3 0x461BCD PUSH1 0xE5 SHL DUP2 MSTORE PUSH1 0x20 PUSH1 0x4 DUP3 ADD MSTORE PUSH1 0x17 PUSH1 0x24 DUP3 ADD MSTORE PUSH32 0x496E76616C696420696E70757420616464726573736573000000000000000000 PUSH1 0x44 DUP3 ADD MSTORE PUSH1 0x64 SWAP1 REVERT JUMPDEST POP PUSH1 0x1 PUSH1 0x1 PUSH1 0xA0 SHL SUB DUP9 AND ISZERO ISZERO PUSH3 0x10D JUMP JUMPDEST POP PUSH1 0x1 PUSH1 0x1 PUSH1 0xA0 SHL SUB DUP12 AND ISZERO ISZERO PUSH3 0x106 JUMP JUMPDEST POP PUSH1 0x1 PUSH1 0x1 PUSH1 0xA0 SHL SUB DUP8 AND ISZERO ISZERO PUSH3 0xFF JUMP JUMPDEST PUSH0 DUP1 REVERT JUMPDEST MLOAD SWAP1 PUSH1 0x1 PUSH1 0x1 PUSH1 0xA0 SHL SUB DUP3 AND DUP3 SUB PUSH3 0x380 JUMPI JUMP INVALID PUSH1 0x80 PUSH1 0x40 DUP2 DUP2 MSTORE PUSH1 0x4 SWAP2 DUP3 CALLDATASIZE LT ISZERO PUSH2 0x15 JUMPI PUSH0 DUP1 REVERT JUMPDEST PUSH0 SWAP3 DUP4 CALLDATALOAD PUSH1 0xE0 SHR SWAP2 DUP3 PUSH4 0xF4EF8A6 EQ PUSH2 0x1027 JUMPI POP DUP2 PUSH4 0x12261EE7 EQ PUSH2 0xFFE JUMPI DUP2 PUSH4 0x2E1283E3 EQ PUSH2 0xFDF JUMPI DUP2 PUSH4 0x3B1BAEFF EQ PUSH2 0xCB2 JUMPI DUP2 PUSH4 0x402D8883 EQ PUSH2 0xA3B JUMPI DUP2 PUSH4 0x5257B566 EQ PUSH2 0xA1C JUMPI DUP2 PUSH4 0x64C4BEC0 EQ PUSH2 0x9FD JUMPI DUP2 PUSH4 0x654C6295 EQ PUSH2 0x95C JUMPI DUP2 PUSH4 0x6B6D1955 EQ PUSH2 0x934 JUMPI DUP2 PUSH4 0x8A4ADF24 EQ PUSH2 0x90B JUMPI DUP2 PUSH4 0x8DB57994 EQ PUSH2 0x81D JUMPI DUP2 PUSH4 0x95CB741D EQ PUSH2 0x791 JUMPI DUP2 PUSH4 0x9E9F669C EQ PUSH2 0x154 JUMPI DUP2 PUSH4 0xB2A9BB60 EQ PUSH2 0x184 JUMPI DUP2 PUSH4 0xC19D93FB EQ PUSH2 0x154 JUMPI POP DUP1 PUSH4 0xC51B9507 EQ PUSH2 0x12C JUMPI DUP1 PUSH4 0xEB0C4955 EQ PUSH2 0x109 JUMPI PUSH4 0xF4B01B18 EQ PUSH2 0xE8 JUMPI PUSH0 DUP1 REVERT JUMPDEST CALLVALUE PUSH2 0x105 JUMPI DUP2 PUSH1 0x3 NOT CALLDATASIZE ADD SLT PUSH2 0x105 JUMPI PUSH1 0x20 SWAP1 PUSH1 0x9 SLOAD SWAP1 MLOAD SWAP1 DUP2 MSTORE RETURN JUMPDEST POP DUP1 REVERT JUMPDEST POP CALLVALUE PUSH2 0x105 JUMPI DUP2 PUSH1 0x3 NOT CALLDATASIZE ADD SLT PUSH2 0x105 JUMPI PUSH1 0x20 SWAP1 PUSH2 0x125 PUSH2 0x13F4 JUMP JUMPDEST SWAP1 MLOAD SWAP1 DUP2 MSTORE RETURN JUMPDEST POP CALLVALUE PUSH2 0x105 JUMPI DUP2 PUSH1 0x3 NOT CALLDATASIZE ADD SLT PUSH2 0x105 JUMPI PUSH1 0x2 SLOAD SWAP1 MLOAD PUSH1 0x1 PUSH1 0x1 PUSH1 0xA0 SHL SUB SWAP1 SWAP2 AND DUP2 MSTORE PUSH1 0x20 SWAP1 RETURN JUMPDEST DUP3 DUP5 CALLVALUE PUSH2 0x181 JUMPI DUP1 PUSH1 0x3 NOT CALLDATASIZE ADD SLT PUSH2 0x181 JUMPI POP PUSH1 0xFF PUSH2 0x17D SWAP3 SLOAD PUSH1 0xA0 SHR AND SWAP1 MLOAD SWAP2 DUP3 SWAP2 DUP3 PUSH2 0x104B JUMP JUMPDEST SUB SWAP1 RETURN JUMPDEST DUP1 REVERT JUMPDEST SWAP1 POP CALLVALUE PUSH2 0x78D JUMPI DUP3 PUSH1 0x3 NOT CALLDATASIZE ADD SLT PUSH2 0x78D JUMPI PUSH2 0x19E PUSH2 0x10BC JUMP JUMPDEST PUSH2 0x1A6 PUSH2 0x13F4 JUMP JUMPDEST SWAP1 PUSH2 0x1B4 PUSH1 0x9 SLOAD SWAP3 DUP4 PUSH2 0x1110 JUMP JUMPDEST SWAP3 CALLER PUSH12 0xFFFFFFFFFFFFFFFFFFFFFFFF PUSH1 0xA0 SHL PUSH1 0xD SLOAD AND OR PUSH1 0xD SSTORE PUSH1 0xFF DUP3 SLOAD PUSH1 0xA0 SHR AND PUSH1 0x5 DUP2 LT ISZERO PUSH2 0x77A JUMPI PUSH1 0x1 SUB PUSH2 0x737 JUMPI CALLER ISZERO PUSH2 0x6F4 JUMPI PUSH1 0x5 SLOAD PUSH1 0x1 PUSH1 0x1 PUSH1 0xA0 SHL SUB SWAP3 SWAP1 DUP4 AND CALLER EQ PUSH2 0x6B2 JUMPI DUP3 PUSH1 0x8 SLOAD AND SWAP4 DUP3 MLOAD SWAP4 PUSH4 0x38D52E0F PUSH1 0xE0 SHL DUP6 MSTORE PUSH1 0x20 SWAP5 DUP6 DUP2 DUP6 DUP2 DUP11 GAS STATICCALL SWAP1 DUP2 ISZERO PUSH2 0x47B JUMPI DUP10 SWAP2 PUSH2 0x67C JUMPI JUMPDEST POP DUP5 MLOAD PUSH4 0x6EB1769F PUSH1 0xE1 SHL DUP1 DUP3 MSTORE CALLER DUP7 DUP4 ADD SWAP1 DUP2 MSTORE ADDRESS PUSH1 0x20 DUP3 ADD MSTORE SWAP1 SWAP3 DUP9 SWAP2 DUP4 SWAP2 SWAP1 DUP3 SWAP1 SUB PUSH1 0x40 ADD SWAP1 DUP3 SWAP1 DUP8 AND GAS STATICCALL SWAP1 DUP2 ISZERO PUSH2 0x672 JUMPI DUP11 SWAP2 PUSH2 0x641 JUMPI JUMPDEST POP DUP9 GT PUSH2 0x5F4 JUMPI PUSH1 0x6 SLOAD DUP6 MLOAD DUP3 DUP2 MSTORE CALLER DUP7 DUP3 ADD SWAP1 DUP2 MSTORE ADDRESS PUSH1 0x20 DUP3 ADD MSTORE SWAP2 DUP5 AND SWAP5 SWAP2 DUP9 SWAP1 DUP3 SWAP1 DUP2 SWAP1 PUSH1 0x40 ADD SUB DUP2 DUP9 GAS STATICCALL SWAP1 DUP2 ISZERO PUSH2 0x5EA JUMPI DUP12 SWAP2 PUSH2 0x5B9 JUMPI JUMPDEST POP LT PUSH2 0x576 JUMPI DUP5 MLOAD SWAP1 DUP2 MSTORE ADDRESS DUP5 DUP3 ADD SWAP1 DUP2 MSTORE PUSH1 0x1 PUSH1 0x1 PUSH1 0xA0 SHL SUB DUP9 AND PUSH1 0x20 DUP3 ADD MSTORE DUP7 SWAP1 DUP3 SWAP1 DUP2 SWAP1 PUSH1 0x40 ADD SUB DUP2 DUP7 GAS STATICCALL DUP1 ISZERO PUSH2 0x47B JUMPI DUP9 SWAP1 DUP11 SWAP1 PUSH2 0x545 JUMPI JUMPDEST PUSH2 0x2EE SWAP3 POP PUSH2 0x1110 JUMP JUMPDEST DUP5 MLOAD PUSH4 0x95EA7B3 PUSH1 0xE0 SHL DUP8 DUP3 ADD DUP2 DUP2 MSTORE PUSH1 0x1 PUSH1 0x1 PUSH1 0xA0 SHL SUB DUP11 AND PUSH1 0x24 DUP1 DUP6 ADD SWAP2 SWAP1 SWAP2 MSTORE PUSH1 0x44 DUP1 DUP6 ADD SWAP6 SWAP1 SWAP6 MSTORE SWAP4 DUP4 MSTORE SWAP3 SWAP9 PUSH1 0x1F NOT SWAP6 SWAP3 SWAP4 DUP13 SWAP1 DUP2 SWAP1 PUSH2 0x334 PUSH1 0x64 DUP9 PUSH2 0x109A JUMP JUMPDEST DUP7 MLOAD SWAP1 DUP3 DUP8 GAS CALL PUSH2 0x343 PUSH2 0x11BE JUMP JUMPDEST DUP2 PUSH2 0x515 JUMPI JUMPDEST POP DUP1 PUSH2 0x50B JUMPI JUMPDEST ISZERO PUSH2 0x4B2 JUMPI JUMPDEST POP POP POP POP DUP1 PUSH1 0x8 SLOAD AND DUP6 DUP3 PUSH1 0xD SLOAD AND PUSH1 0x44 DUP11 DUP13 DUP10 MLOAD SWAP6 DUP7 SWAP5 DUP6 SWAP4 PUSH4 0x6E553F65 PUSH1 0xE0 SHL DUP6 MSTORE DUP12 DUP6 ADD MSTORE DUP14 DUP5 ADD MSTORE GAS CALL DUP1 ISZERO PUSH2 0x47B JUMPI SWAP1 DUP7 SWAP2 PUSH2 0x485 JUMPI JUMPDEST POP POP PUSH1 0x6 SLOAD AND SWAP1 DUP4 MLOAD SWAP6 PUSH4 0x70A08231 PUSH1 0xE0 SHL DUP8 MSTORE ADDRESS DUP5 DUP9 ADD MSTORE DUP6 DUP8 DUP3 DUP2 DUP7 GAS STATICCALL SWAP7 DUP8 ISZERO PUSH2 0x47B JUMPI DUP10 SWAP8 PUSH2 0x442 JUMPI JUMPDEST POP DUP5 MLOAD PUSH4 0xA9059CBB PUSH1 0xE0 SHL DUP8 DUP3 ADD MSTORE CALLER SWAP2 DUP2 ADD SWAP2 DUP3 MSTORE PUSH1 0x20 DUP3 ADD SWAP8 SWAP1 SWAP8 MSTORE PUSH32 0x5150AB7694A22FBC01C642BC10316565247DF962FA3F0AC3B5D1A18BA45B485B SWAP7 PUSH2 0x423 SWAP4 SWAP1 SWAP3 SWAP1 SWAP2 PUSH2 0x41E SWAP2 SWAP1 DUP5 SWAP1 PUSH1 0x40 ADD SUB SWAP1 DUP2 ADD DUP5 MSTORE DUP4 PUSH2 0x109A JUMP JUMPDEST PUSH2 0x114D JUMP JUMPDEST DUP1 SLOAD PUSH1 0xFF PUSH1 0xA0 SHL NOT AND PUSH1 0x1 PUSH1 0xA1 SHL OR SWAP1 SSTORE MLOAD SWAP3 DUP4 MSTORE CALLER SWAP3 LOG2 PUSH1 0x1 DUP2 SSTORE DUP1 RETURN JUMPDEST SWAP7 POP SWAP1 SWAP2 DUP6 DUP8 DUP2 RETURNDATASIZE DUP4 GT PUSH2 0x474 JUMPI JUMPDEST PUSH2 0x45B DUP2 DUP4 PUSH2 0x109A JUMP JUMPDEST DUP2 ADD SUB SLT PUSH2 0x470 JUMPI SWAP6 MLOAD SWAP6 SWAP2 SWAP1 PUSH2 0x41E PUSH2 0x3C0 JUMP JUMPDEST DUP9 DUP1 REVERT JUMPDEST POP RETURNDATASIZE PUSH2 0x451 JUMP JUMPDEST DUP6 MLOAD RETURNDATASIZE DUP12 DUP3 RETURNDATACOPY RETURNDATASIZE SWAP1 REVERT JUMPDEST DUP2 RETURNDATASIZE DUP4 GT PUSH2 0x4AB JUMPI JUMPDEST PUSH2 0x498 DUP2 DUP4 PUSH2 0x109A JUMP JUMPDEST DUP2 ADD SUB SLT PUSH2 0x4A7 JUMPI DUP5 PUSH0 PUSH2 0x392 JUMP JUMPDEST DUP8 DUP1 REVERT JUMPDEST POP RETURNDATASIZE PUSH2 0x48E JUMP JUMPDEST DUP8 MLOAD SWAP2 DUP10 DUP4 ADD MSTORE DUP10 DUP3 ADD MSTORE DUP11 PUSH1 0x44 DUP3 ADD MSTORE PUSH1 0x44 DUP2 MSTORE PUSH1 0x80 DUP2 ADD DUP2 DUP2 LT PUSH8 0xFFFFFFFFFFFFFFFF DUP3 GT OR PUSH2 0x4F9 JUMPI PUSH2 0x4F0 SWAP4 SWAP3 SWAP2 PUSH2 0x41E SWAP2 DUP10 MSTORE DUP3 PUSH2 0x114D JUMP JUMPDEST PUSH0 DUP1 DUP1 DUP1 PUSH2 0x356 JUMP JUMPDEST PUSH4 0x4E487B71 PUSH1 0xE0 SHL DUP13 MSTORE PUSH1 0x41 DUP8 MSTORE DUP10 DUP13 REVERT JUMPDEST POP DUP3 EXTCODESIZE ISZERO ISZERO PUSH2 0x350 JUMP JUMPDEST DUP1 MLOAD DUP1 ISZERO SWAP3 POP DUP12 SWAP1 DUP4 ISZERO PUSH2 0x52D JUMPI JUMPDEST POP POP POP PUSH0 PUSH2 0x349 JUMP JUMPDEST PUSH2 0x53D SWAP4 POP DUP3 ADD DUP2 ADD SWAP2 ADD PUSH2 0x1131 JUMP JUMPDEST PUSH0 DUP11 DUP2 PUSH2 0x524 JUMP JUMPDEST POP POP DUP6 DUP2 DUP2 RETURNDATASIZE DUP4 GT PUSH2 0x56F JUMPI JUMPDEST PUSH2 0x55C DUP2 DUP4 PUSH2 0x109A JUMP JUMPDEST DUP2 ADD SUB SLT PUSH2 0x470 JUMPI DUP8 PUSH2 0x2EE SWAP2 MLOAD PUSH2 0x2E4 JUMP JUMPDEST POP RETURNDATASIZE PUSH2 0x552 JUMP JUMPDEST DUP5 MLOAD PUSH3 0x461BCD PUSH1 0xE5 SHL DUP2 MSTORE DUP1 DUP6 ADD DUP8 SWAP1 MSTORE PUSH1 0x1B PUSH1 0x24 DUP3 ADD MSTORE PUSH32 0x496E73756666696369656E74206C6F616E20616C6C6F77616E63650000000000 PUSH1 0x44 DUP3 ADD MSTORE PUSH1 0x64 SWAP1 REVERT JUMPDEST SWAP1 POP DUP8 DUP2 DUP2 RETURNDATASIZE DUP4 GT PUSH2 0x5E3 JUMPI JUMPDEST PUSH2 0x5D0 DUP2 DUP4 PUSH2 0x109A JUMP JUMPDEST DUP2 ADD SUB SLT PUSH2 0x5DF JUMPI MLOAD PUSH0 PUSH2 0x2A6 JUMP JUMPDEST DUP11 DUP1 REVERT JUMPDEST POP RETURNDATASIZE PUSH2 0x5C6 JUMP JUMPDEST DUP8 MLOAD RETURNDATASIZE DUP14 DUP3 RETURNDATACOPY RETURNDATASIZE SWAP1 REVERT JUMPDEST DUP5 MLOAD PUSH3 0x461BCD PUSH1 0xE5 SHL DUP2 MSTORE DUP1 DUP6 ADD DUP8 SWAP1 MSTORE PUSH1 0x21 PUSH1 0x24 DUP3 ADD MSTORE PUSH32 0x496E73756666696369656E7420636F6C6C61746572616C20616C6C6F77616E63 PUSH1 0x44 DUP3 ADD MSTORE PUSH1 0x65 PUSH1 0xF8 SHL PUSH1 0x64 DUP3 ADD MSTORE PUSH1 0x84 SWAP1 REVERT JUMPDEST SWAP1 POP DUP7 DUP2 DUP2 RETURNDATASIZE DUP4 GT PUSH2 0x66B JUMPI JUMPDEST PUSH2 0x658 DUP2 DUP4 PUSH2 0x109A JUMP JUMPDEST DUP2 ADD SUB SLT PUSH2 0x667 JUMPI MLOAD PUSH0 PUSH2 0x269 JUMP JUMPDEST DUP10 DUP1 REVERT JUMPDEST POP RETURNDATASIZE PUSH2 0x64E JUMP JUMPDEST DUP7 MLOAD RETURNDATASIZE DUP13 DUP3 RETURNDATACOPY RETURNDATASIZE SWAP1 REVERT JUMPDEST SWAP1 POP DUP6 DUP2 DUP2 RETURNDATASIZE DUP4 GT PUSH2 0x6AB JUMPI JUMPDEST PUSH2 0x693 DUP2 DUP4 PUSH2 0x109A JUMP JUMPDEST DUP2 ADD SUB SLT PUSH2 0x470 JUMPI MLOAD DUP2 DUP2 AND DUP2 SUB PUSH2 0x470 JUMPI PUSH0 PUSH2 0x22C JUMP JUMPDEST POP RETURNDATASIZE PUSH2 0x689 JUMP JUMPDEST PUSH1 0x20 PUSH1 0x64 SWAP3 MLOAD SWAP2 PUSH3 0x461BCD PUSH1 0xE5 SHL DUP4 MSTORE DUP3 ADD MSTORE PUSH1 0x19 PUSH1 0x24 DUP3 ADD MSTORE PUSH32 0x4C656E6465722063616E6E6F7420626520626F72726F77657200000000000000 PUSH1 0x44 DUP3 ADD MSTORE REVERT JUMPDEST SWAP1 PUSH1 0x20 PUSH1 0x64 SWAP3 MLOAD SWAP2 PUSH3 0x461BCD PUSH1 0xE5 SHL DUP4 MSTORE DUP3 ADD MSTORE PUSH1 0x18 PUSH1 0x24 DUP3 ADD MSTORE PUSH32 0x496E76616C696420626F72726F77657220616464726573730000000000000000 PUSH1 0x44 DUP3 ADD MSTORE REVERT JUMPDEST SWAP1 PUSH1 0x20 PUSH1 0x64 SWAP3 MLOAD SWAP2 PUSH3 0x461BCD PUSH1 0xE5 SHL DUP4 MSTORE DUP3 ADD MSTORE PUSH1 0x1A PUSH1 0x24 DUP3 ADD MSTORE PUSH32 0x4C6F616E206E6F7420726561647920746F206163746976617465000000000000 PUSH1 0x44 DUP3 ADD MSTORE REVERT JUMPDEST PUSH4 0x4E487B71 PUSH1 0xE0 SHL DUP7 MSTORE PUSH1 0x21 DUP4 MSTORE PUSH1 0x24 DUP7 REVERT JUMPDEST DUP3 DUP1 REVERT JUMPDEST POP POP CALLVALUE PUSH2 0x105 JUMPI DUP2 PUSH1 0x3 NOT CALLDATASIZE ADD SLT PUSH2 0x105 JUMPI PUSH2 0x160 SWAP1 PUSH1 0x1 DUP1 PUSH1 0xA0 SHL SUB DUP1 PUSH1 0x5 SLOAD AND SWAP2 DUP2 PUSH1 0x6 SLOAD AND SWAP2 DUP1 PUSH1 0x7 SLOAD AND SWAP1 DUP1 PUSH1 0x8 SLOAD AND PUSH1 0x9 SLOAD PUSH1 0xA SLOAD SWAP1 PUSH1 0xB SLOAD SWAP3 DUP5 PUSH1 0xC SLOAD AND SWAP5 PUSH1 0xD SLOAD AND SWAP6 PUSH1 0xE SLOAD SWAP8 PUSH1 0xF SLOAD SWAP10 DUP2 MLOAD SWAP12 DUP13 MSTORE PUSH1 0x20 DUP13 ADD MSTORE DUP11 ADD MSTORE PUSH1 0x60 DUP10 ADD MSTORE PUSH1 0x80 DUP9 ADD MSTORE PUSH1 0xA0 DUP8 ADD MSTORE PUSH1 0xC0 DUP7 ADD MSTORE PUSH1 0xE0 DUP6 ADD MSTORE PUSH2 0x100 DUP5 ADD MSTORE PUSH2 0x120 DUP4 ADD MSTORE PUSH2 0x140 DUP3 ADD MSTORE RETURN JUMPDEST SWAP1 POP CALLVALUE PUSH2 0x78D JUMPI DUP3 PUSH1 0x3 NOT CALLDATASIZE ADD SLT PUSH2 0x78D JUMPI PUSH2 0x837 PUSH2 0x10BC JUMP JUMPDEST PUSH1 0xFF DUP2 SLOAD PUSH1 0xA0 SHR AND PUSH1 0x5 DUP2 LT ISZERO PUSH2 0x8F8 JUMPI PUSH2 0x8B6 JUMPI PUSH32 0x9E71D2FB732E68272B7E74ECFD14638673C1D77E19A5D390A3FFFF054D57C44B SWAP2 PUSH1 0x20 SWAP2 PUSH2 0x891 PUSH1 0x1 DUP1 PUSH1 0xA0 SHL SUB DUP1 PUSH1 0x6 SLOAD AND SWAP1 PUSH1 0x5 SLOAD AND SWAP1 PUSH1 0x9 SLOAD SWAP2 ADDRESS SWAP2 PUSH2 0x1260 JUMP JUMPDEST NUMBER PUSH1 0xF SSTORE DUP1 SLOAD PUSH1 0xFF PUSH1 0xA0 SHL NOT AND PUSH1 0x1 PUSH1 0xA0 SHL OR SWAP1 SSTORE PUSH1 0x9 SLOAD SWAP1 MLOAD SWAP1 DUP2 MSTORE LOG1 PUSH1 0x1 DUP2 SSTORE DUP1 RETURN JUMPDEST PUSH1 0x20 PUSH1 0x64 SWAP3 MLOAD SWAP2 PUSH3 0x461BCD PUSH1 0xE5 SHL DUP4 MSTORE DUP3 ADD MSTORE PUSH1 0x1B PUSH1 0x24 DUP3 ADD MSTORE PUSH32 0x4C6F616E206E6F7420696E20637265617461626C652073746174650000000000 PUSH1 0x44 DUP3 ADD MSTORE REVERT JUMPDEST PUSH4 0x4E487B71 PUSH1 0xE0 SHL DUP5 MSTORE PUSH1 0x21 DUP3 MSTORE PUSH1 0x24 DUP5 REVERT JUMPDEST POP POP CALLVALUE PUSH2 0x105 JUMPI DUP2 PUSH1 0x3 NOT CALLDATASIZE ADD SLT PUSH2 0x105 JUMPI PUSH1 0x3 SLOAD SWAP1 MLOAD PUSH1 0x1 PUSH1 0x1 PUSH1 0xA0 SHL SUB SWAP1 SWAP2 AND DUP2 MSTORE PUSH1 0x20 SWAP1 RETURN JUMPDEST POP POP CALLVALUE PUSH2 0x105 JUMPI DUP2 PUSH1 0x3 NOT CALLDATASIZE ADD SLT PUSH2 0x105 JUMPI PUSH1 0x20 SWAP1 PUSH2 0x125 PUSH2 0x954 PUSH2 0x13F4 JUMP JUMPDEST PUSH1 0x9 SLOAD PUSH2 0x1110 JUMP JUMPDEST DUP4 DUP4 CALLVALUE PUSH2 0x105 JUMPI PUSH1 0x20 SWAP3 DUP4 PUSH1 0x3 NOT CALLDATASIZE ADD SLT PUSH2 0x78D JUMPI DUP1 CALLDATALOAD PUSH1 0x1 PUSH1 0x1 PUSH1 0xA0 SHL SUB DUP2 DUP2 AND SWAP2 DUP3 SWAP1 SUB PUSH2 0x9F9 JUMPI SWAP1 PUSH1 0x24 DUP7 SWAP3 PUSH1 0x8 SLOAD AND SWAP4 DUP6 MLOAD SWAP5 DUP6 SWAP4 DUP5 SWAP3 PUSH4 0x70A08231 PUSH1 0xE0 SHL DUP5 MSTORE DUP4 ADD MSTORE GAS STATICCALL SWAP3 DUP4 ISZERO PUSH2 0x9EE JUMPI DUP1 SWAP4 PUSH2 0x9BC JUMPI JUMPDEST POP POP MLOAD SWAP1 DUP2 MSTORE RETURN JUMPDEST SWAP1 SWAP2 SWAP3 POP DUP4 DUP3 DUP2 RETURNDATASIZE DUP4 GT PUSH2 0x9E7 JUMPI JUMPDEST PUSH2 0x9D5 DUP2 DUP4 PUSH2 0x109A JUMP JUMPDEST DUP2 ADD SUB SLT PUSH2 0x181 JUMPI POP MLOAD SWAP1 DUP4 DUP1 PUSH2 0x9B4 JUMP JUMPDEST POP RETURNDATASIZE PUSH2 0x9CB JUMP JUMPDEST DUP3 MLOAD SWAP1 RETURNDATASIZE SWAP1 DUP3 RETURNDATACOPY RETURNDATASIZE SWAP1 REVERT JUMPDEST DUP5 DUP1 REVERT JUMPDEST POP POP CALLVALUE PUSH2 0x105 JUMPI DUP2 PUSH1 0x3 NOT CALLDATASIZE ADD SLT PUSH2 0x105 JUMPI PUSH1 0x20 SWAP1 PUSH1 0xB SLOAD SWAP1 MLOAD SWAP1 DUP2 MSTORE RETURN JUMPDEST POP POP CALLVALUE PUSH2 0x105 JUMPI DUP2 PUSH1 0x3 NOT CALLDATASIZE ADD SLT PUSH2 0x105 JUMPI PUSH1 0x20 SWAP1 PUSH1 0xA SLOAD SWAP1 MLOAD SWAP1 DUP2 MSTORE RETURN JUMPDEST DUP4 SWAP2 POP CALLVALUE PUSH2 0x105 JUMPI DUP2 PUSH1 0x3 NOT CALLDATASIZE ADD SLT PUSH2 0x105 JUMPI PUSH2 0xA56 PUSH2 0x10BC JUMP JUMPDEST PUSH1 0xFF DUP2 SLOAD PUSH1 0xA0 SHR AND PUSH1 0x5 DUP2 LT ISZERO PUSH2 0xC9F JUMPI PUSH1 0x2 SUB PUSH2 0xC66 JUMPI PUSH2 0xA79 PUSH2 0x954 PUSH2 0x13F4 JUMP JUMPDEST PUSH1 0x7 SLOAD DUP5 MLOAD PUSH4 0x6EB1769F PUSH1 0xE1 SHL DUP2 MSTORE CALLER DUP5 DUP3 ADD SWAP1 DUP2 MSTORE ADDRESS PUSH1 0x20 DUP3 DUP2 ADD SWAP2 SWAP1 SWAP2 MSTORE SWAP5 PUSH1 0x1 PUSH1 0x1 PUSH1 0xA0 SHL SUB SWAP4 DUP5 AND SWAP4 SWAP3 SWAP1 SWAP2 DUP7 SWAP1 DUP3 SWAP1 DUP2 SWAP1 PUSH1 0x40 ADD SUB DUP2 DUP8 GAS STATICCALL SWAP1 DUP2 ISZERO PUSH2 0xBD5 JUMPI SWAP1 DUP6 SWAP2 DUP9 SWAP2 PUSH2 0xC35 JUMPI JUMPDEST POP LT PUSH2 0xBDF JUMPI DUP7 MLOAD PUSH4 0x70A08231 PUSH1 0xE0 SHL DUP2 MSTORE CALLER DUP3 DUP3 ADD MSTORE DUP6 DUP2 PUSH1 0x24 DUP2 DUP8 GAS STATICCALL SWAP1 DUP2 ISZERO PUSH2 0xBD5 JUMPI SWAP1 DUP6 SWAP2 DUP9 SWAP2 PUSH2 0xBA0 JUMPI JUMPDEST POP LT PUSH2 0xB4C JUMPI POP DUP3 PUSH32 0x4002DBA848920F438092E08090CFB5FC47144C22704268B402C9553A1B5ADFE6 SWAP6 SWAP7 SWAP3 DUP3 PUSH2 0xB38 SWAP4 PUSH1 0xD SLOAD AND SWAP1 PUSH1 0x5 SLOAD AND SWAP2 PUSH2 0x1260 JUMP JUMPDEST PUSH2 0xB40 PUSH2 0x12BB JUMP JUMPDEST MLOAD SWAP1 DUP2 MSTORE LOG1 PUSH1 0x1 DUP2 SSTORE DUP1 RETURN JUMPDEST DUP7 MLOAD PUSH3 0x461BCD PUSH1 0xE5 SHL DUP2 MSTORE SWAP1 DUP2 ADD DUP6 SWAP1 MSTORE PUSH1 0x28 PUSH1 0x24 DUP3 ADD MSTORE PUSH32 0x496E73756666696369656E7420746F6B656E2062616C616E636520666F722072 PUSH1 0x44 DUP3 ADD MSTORE PUSH8 0x195C185E5B595B9D PUSH1 0xC2 SHL PUSH1 0x64 DUP3 ADD MSTORE PUSH1 0x84 SWAP1 REVERT JUMPDEST DUP1 SWAP3 POP DUP8 DUP1 SWAP3 POP RETURNDATASIZE DUP4 GT PUSH2 0xBCE JUMPI JUMPDEST PUSH2 0xBB9 DUP2 DUP4 PUSH2 0x109A JUMP JUMPDEST DUP2 ADD SUB SLT PUSH2 0xBCA JUMPI DUP5 SWAP1 MLOAD DUP10 PUSH2 0xAF8 JUMP JUMPDEST DUP7 DUP1 REVERT JUMPDEST POP RETURNDATASIZE PUSH2 0xBAF JUMP JUMPDEST DUP9 MLOAD RETURNDATASIZE DUP10 DUP3 RETURNDATACOPY RETURNDATASIZE SWAP1 REVERT JUMPDEST DUP7 MLOAD PUSH3 0x461BCD PUSH1 0xE5 SHL DUP2 MSTORE SWAP1 DUP2 ADD DUP6 SWAP1 MSTORE PUSH1 0x2A PUSH1 0x24 DUP3 ADD MSTORE PUSH32 0x496E73756666696369656E7420746F6B656E20616C6C6F77616E636520666F72 PUSH1 0x44 DUP3 ADD MSTORE PUSH10 0x81C995C185E5B595B9D PUSH1 0xB2 SHL PUSH1 0x64 DUP3 ADD MSTORE PUSH1 0x84 SWAP1 REVERT JUMPDEST DUP1 SWAP3 POP DUP8 DUP1 SWAP3 POP RETURNDATASIZE DUP4 GT PUSH2 0xC5F JUMPI JUMPDEST PUSH2 0xC4E DUP2 DUP4 PUSH2 0x109A JUMP JUMPDEST DUP2 ADD SUB SLT PUSH2 0xBCA JUMPI DUP5 SWAP1 MLOAD DUP10 PUSH2 0xAC8 JUMP JUMPDEST POP RETURNDATASIZE PUSH2 0xC44 JUMP JUMPDEST PUSH1 0x64 SWAP1 PUSH1 0x20 DUP5 MLOAD SWAP2 PUSH3 0x461BCD PUSH1 0xE5 SHL DUP4 MSTORE DUP3 ADD MSTORE PUSH1 0x13 PUSH1 0x24 DUP3 ADD MSTORE PUSH19 0x4C6F616E206D75737420626520616374697665 PUSH1 0x68 SHL PUSH1 0x44 DUP3 ADD MSTORE REVERT JUMPDEST PUSH4 0x4E487B71 PUSH1 0xE0 SHL DUP4 MSTORE PUSH1 0x21 DUP3 MSTORE PUSH1 0x24 DUP4 REVERT JUMPDEST SWAP2 SWAP1 POP CALLVALUE PUSH2 0x78D JUMPI DUP3 PUSH1 0x3 NOT CALLDATASIZE ADD SLT PUSH2 0x78D JUMPI DUP2 SLOAD PUSH1 0xFF DUP2 PUSH1 0xA0 SHR AND PUSH1 0x5 DUP2 LT ISZERO PUSH2 0xFCC JUMPI PUSH1 0x2 SUB PUSH2 0xF94 JUMPI PUSH2 0xCED PUSH1 0xE SLOAD PUSH1 0xB SLOAD SWAP1 PUSH2 0x1110 JUMP JUMPDEST TIMESTAMP LT PUSH2 0xF46 JUMPI PUSH2 0xD07 PUSH1 0x9 SLOAD PUSH2 0xD01 PUSH2 0x13F4 JUMP JUMPDEST SWAP1 PUSH2 0x1110 JUMP JUMPDEST SWAP2 PUSH1 0x1 DUP1 PUSH1 0xA0 SHL SUB SWAP4 DUP5 PUSH1 0x7 SLOAD AND DUP6 PUSH1 0x5 SLOAD AND SWAP4 DUP4 MLOAD SWAP6 DUP7 PUSH4 0x70A08231 PUSH1 0xE0 SHL SWAP4 DUP5 DUP3 MSTORE DUP8 DUP7 DUP4 ADD MSTORE DUP2 PUSH1 0x24 PUSH1 0x20 SWAP11 DUP12 SWAP4 GAS STATICCALL SWAP1 DUP2 ISZERO PUSH2 0x672 JUMPI DUP11 SWAP2 PUSH2 0xF19 JUMPI JUMPDEST POP LT ISZERO PUSH2 0xEC5 JUMPI PUSH1 0xFF PUSH1 0xA0 SHL NOT AND PUSH1 0x1 PUSH1 0xA2 SHL OR DUP3 SSTORE PUSH1 0x8 SLOAD PUSH1 0xD SLOAD DUP5 MLOAD SWAP3 DUP4 MSTORE DUP8 AND DUP3 DUP5 ADD DUP2 SWAP1 MSTORE SWAP1 DUP8 AND SWAP3 SWAP1 DUP9 SWAP1 DUP8 DUP5 PUSH1 0x24 DUP2 DUP9 GAS STATICCALL SWAP4 DUP5 ISZERO PUSH2 0xE8C JUMPI DUP3 SWAP5 PUSH2 0xE96 JUMPI JUMPDEST POP DUP6 MLOAD SWAP4 PUSH4 0x63737AC9 PUSH1 0xE1 SHL DUP6 MSTORE DUP4 DUP6 ADD MSTORE DUP8 DUP5 PUSH1 0x24 DUP2 DUP9 GAS STATICCALL SWAP4 DUP5 ISZERO PUSH2 0xE8C JUMPI SWAP1 DUP3 SWAP2 DUP10 SWAP6 SWAP5 SWAP4 SWAP5 PUSH2 0xE57 JUMPI JUMPDEST POP SWAP5 PUSH1 0x64 SWAP4 SWAP5 SWAP6 DUP8 MLOAD SWAP9 DUP10 SWAP7 DUP8 SWAP6 PUSH4 0x5D043B29 PUSH1 0xE1 SHL DUP8 MSTORE DUP7 ADD MSTORE PUSH1 0x24 DUP6 ADD MSTORE PUSH1 0x44 DUP5 ADD MSTORE GAS CALL SWAP1 DUP2 ISZERO PUSH2 0xE4E JUMPI POP PUSH2 0xE25 JUMPI JUMPDEST POP POP PUSH1 0xD SLOAD AND PUSH32 0xF4E5CF42CBB1D0C6C91E16D925349FEB6C5D970652F6EC77B1FF1262F7284CD5 DUP3 DUP1 LOG2 PUSH2 0xE22 PUSH2 0x12BB JUMP JUMPDEST DUP1 RETURN JUMPDEST DUP2 RETURNDATASIZE DUP4 GT PUSH2 0xE47 JUMPI JUMPDEST PUSH2 0xE38 DUP2 DUP4 PUSH2 0x109A JUMP JUMPDEST DUP2 ADD SUB SLT PUSH2 0x105 JUMPI PUSH0 DUP1 PUSH2 0xDF0 JUMP JUMPDEST POP RETURNDATASIZE PUSH2 0xE2E JUMP JUMPDEST MLOAD RETURNDATASIZE DUP7 DUP3 RETURNDATACOPY RETURNDATASIZE SWAP1 REVERT JUMPDEST DUP1 SWAP5 POP DUP6 SWAP2 SWAP6 RETURNDATASIZE DUP4 GT PUSH2 0xE85 JUMPI JUMPDEST PUSH2 0xE6F DUP2 DUP4 PUSH2 0x109A JUMP JUMPDEST DUP2 ADD SUB SLT PUSH2 0x181 JUMPI SWAP2 MLOAD DUP8 SWAP4 SWAP1 SWAP3 SWAP1 PUSH1 0x64 PUSH2 0xDBC JUMP JUMPDEST POP RETURNDATASIZE PUSH2 0xE65 JUMP JUMPDEST DUP7 MLOAD RETURNDATASIZE DUP5 DUP3 RETURNDATACOPY RETURNDATASIZE SWAP1 REVERT JUMPDEST SWAP1 SWAP4 POP DUP8 DUP2 DUP2 RETURNDATASIZE DUP4 GT PUSH2 0xEBE JUMPI JUMPDEST PUSH2 0xEAE DUP2 DUP4 PUSH2 0x109A JUMP JUMPDEST DUP2 ADD SUB SLT PUSH2 0x105 JUMPI MLOAD SWAP3 PUSH0 PUSH2 0xD8E JUMP JUMPDEST POP RETURNDATASIZE PUSH2 0xEA4 JUMP JUMPDEST DUP4 MLOAD PUSH3 0x461BCD PUSH1 0xE5 SHL DUP2 MSTORE DUP1 DUP5 ADD DUP8 SWAP1 MSTORE PUSH1 0x28 PUSH1 0x24 DUP3 ADD MSTORE PUSH32 0x496E73756666696369656E7420616D6D6F756E7420666F7220746F74616C2072 PUSH1 0x44 DUP3 ADD MSTORE PUSH8 0x195C185E5B595B9D PUSH1 0xC2 SHL PUSH1 0x64 DUP3 ADD MSTORE PUSH1 0x84 SWAP1 REVERT JUMPDEST SWAP1 POP DUP8 DUP2 DUP2 RETURNDATASIZE DUP4 GT PUSH2 0xF3F JUMPI JUMPDEST PUSH2 0xF30 DUP2 DUP4 PUSH2 0x109A JUMP JUMPDEST DUP2 ADD SUB SLT PUSH2 0x667 JUMPI MLOAD PUSH0 PUSH2 0xD48 JUMP JUMPDEST POP RETURNDATASIZE PUSH2 0xF26 JUMP JUMPDEST DUP2 MLOAD PUSH3 0x461BCD PUSH1 0xE5 SHL DUP2 MSTORE PUSH1 0x20 DUP2 DUP6 ADD MSTORE PUSH1 0x22 PUSH1 0x24 DUP3 ADD MSTORE PUSH32 0x52657061796D656E7420706572696F6420686173206E6F742079657420656E64 PUSH1 0x44 DUP3 ADD MSTORE PUSH2 0x1959 PUSH1 0xF2 SHL PUSH1 0x64 DUP3 ADD MSTORE PUSH1 0x84 SWAP1 REVERT JUMPDEST DUP2 MLOAD PUSH3 0x461BCD PUSH1 0xE5 SHL DUP2 MSTORE PUSH1 0x20 DUP2 DUP6 ADD MSTORE PUSH1 0x12 PUSH1 0x24 DUP3 ADD MSTORE PUSH18 0x4C6F616E206973206E6F7420616374697665 PUSH1 0x70 SHL PUSH1 0x44 DUP3 ADD MSTORE PUSH1 0x64 SWAP1 REVERT JUMPDEST PUSH4 0x4E487B71 PUSH1 0xE0 SHL DUP6 MSTORE PUSH1 0x21 DUP5 MSTORE PUSH1 0x24 DUP6 REVERT JUMPDEST POP POP CALLVALUE PUSH2 0x105 JUMPI DUP2 PUSH1 0x3 NOT CALLDATASIZE ADD SLT PUSH2 0x105 JUMPI PUSH1 0x20 SWAP1 PUSH1 0xF SLOAD SWAP1 MLOAD SWAP1 DUP2 MSTORE RETURN JUMPDEST POP POP CALLVALUE PUSH2 0x105 JUMPI DUP2 PUSH1 0x3 NOT CALLDATASIZE ADD SLT PUSH2 0x105 JUMPI PUSH1 0x1 SLOAD SWAP1 MLOAD PUSH1 0x1 PUSH1 0x1 PUSH1 0xA0 SHL SUB SWAP1 SWAP2 AND DUP2 MSTORE PUSH1 0x20 SWAP1 RETURN JUMPDEST DUP5 SWAP2 CALLVALUE PUSH2 0x78D JUMPI DUP3 PUSH1 0x3 NOT CALLDATASIZE ADD SLT PUSH2 0x78D JUMPI SLOAD PUSH1 0x1 PUSH1 0x1 PUSH1 0xA0 SHL SUB AND DUP2 MSTORE PUSH1 0x20 SWAP2 POP RETURN JUMPDEST SWAP2 SWAP1 PUSH1 0x20 DUP4 ADD SWAP3 PUSH1 0x5 DUP3 LT ISZERO PUSH2 0x105E JUMPI MSTORE JUMP JUMPDEST PUSH4 0x4E487B71 PUSH1 0xE0 SHL PUSH0 MSTORE PUSH1 0x21 PUSH1 0x4 MSTORE PUSH1 0x24 PUSH0 REVERT JUMPDEST PUSH8 0xFFFFFFFFFFFFFFFF DUP2 GT PUSH2 0x1086 JUMPI PUSH1 0x40 MSTORE JUMP JUMPDEST PUSH4 0x4E487B71 PUSH1 0xE0 SHL PUSH0 MSTORE PUSH1 0x41 PUSH1 0x4 MSTORE PUSH1 0x24 PUSH0 REVERT JUMPDEST SWAP1 PUSH1 0x1F DUP1 NOT SWAP2 ADD AND DUP2 ADD SWAP1 DUP2 LT PUSH8 0xFFFFFFFFFFFFFFFF DUP3 GT OR PUSH2 0x1086 JUMPI PUSH1 0x40 MSTORE JUMP JUMPDEST PUSH1 0x2 PUSH0 SLOAD EQ PUSH2 0x10CB JUMPI PUSH1 0x2 PUSH0 SSTORE JUMP JUMPDEST PUSH1 0x40 MLOAD PUSH3 0x461BCD PUSH1 0xE5 SHL DUP2 MSTORE PUSH1 0x20 PUSH1 0x4 DUP3 ADD MSTORE PUSH1 0x1F PUSH1 0x24 DUP3 ADD MSTORE PUSH32 0x5265656E7472616E637947756172643A207265656E7472616E742063616C6C00 PUSH1 0x44 DUP3 ADD MSTORE PUSH1 0x64 SWAP1 REVERT JUMPDEST SWAP2 SWAP1 DUP3 ADD DUP1 SWAP3 GT PUSH2 0x111D JUMPI JUMP JUMPDEST PUSH4 0x4E487B71 PUSH1 0xE0 SHL PUSH0 MSTORE PUSH1 0x11 PUSH1 0x4 MSTORE PUSH1 0x24 PUSH0 REVERT JUMPDEST SWAP1 DUP2 PUSH1 0x20 SWAP2 SUB SLT PUSH2 0x1149 JUMPI MLOAD DUP1 ISZERO ISZERO DUP2 SUB PUSH2 0x1149 JUMPI SWAP1 JUMP JUMPDEST PUSH0 DUP1 REVERT JUMPDEST PUSH0 DUP1 PUSH2 0x1175 SWAP3 PUSH1 0x1 DUP1 PUSH1 0xA0 SHL SUB AND SWAP4 PUSH1 0x20 DUP2 MLOAD SWAP2 ADD DUP3 DUP7 GAS CALL PUSH2 0x116E PUSH2 0x11BE JUMP JUMPDEST SWAP1 DUP4 PUSH2 0x11FD JUMP JUMPDEST DUP1 MLOAD SWAP1 DUP2 ISZERO ISZERO SWAP2 DUP3 PUSH2 0x11A3 JUMPI JUMPDEST POP POP PUSH2 0x118B JUMPI POP JUMP JUMPDEST PUSH1 0x24 SWAP1 PUSH1 0x40 MLOAD SWAP1 PUSH4 0x5274AFE7 PUSH1 0xE0 SHL DUP3 MSTORE PUSH1 0x4 DUP3 ADD MSTORE REVERT JUMPDEST PUSH2 0x11B6 SWAP3 POP PUSH1 0x20 DUP1 SWAP2 DUP4 ADD ADD SWAP2 ADD PUSH2 0x1131 JUMP JUMPDEST ISZERO PUSH0 DUP1 PUSH2 0x1182 JUMP JUMPDEST RETURNDATASIZE ISZERO PUSH2 0x11F8 JUMPI RETURNDATASIZE SWAP1 PUSH8 0xFFFFFFFFFFFFFFFF DUP3 GT PUSH2 0x1086 JUMPI PUSH1 0x40 MLOAD SWAP2 PUSH2 0x11ED PUSH1 0x1F DUP3 ADD PUSH1 0x1F NOT AND PUSH1 0x20 ADD DUP5 PUSH2 0x109A JUMP JUMPDEST DUP3 MSTORE RETURNDATASIZE PUSH0 PUSH1 0x20 DUP5 ADD RETURNDATACOPY JUMP JUMPDEST PUSH1 0x60 SWAP1 JUMP JUMPDEST SWAP1 PUSH2 0x1224 JUMPI POP DUP1 MLOAD ISZERO PUSH2 0x1212 JUMPI DUP1 MLOAD SWAP1 PUSH1 0x20 ADD REVERT JUMPDEST PUSH1 0x40 MLOAD PUSH4 0xA12F521 PUSH1 0xE1 SHL DUP2 MSTORE PUSH1 0x4 SWAP1 REVERT JUMPDEST DUP2 MLOAD ISZERO DUP1 PUSH2 0x1257 JUMPI JUMPDEST PUSH2 0x1235 JUMPI POP SWAP1 JUMP JUMPDEST PUSH1 0x40 MLOAD PUSH4 0x9996B315 PUSH1 0xE0 SHL DUP2 MSTORE PUSH1 0x1 PUSH1 0x1 PUSH1 0xA0 SHL SUB SWAP1 SWAP2 AND PUSH1 0x4 DUP3 ADD MSTORE PUSH1 0x24 SWAP1 REVERT JUMPDEST POP DUP1 EXTCODESIZE ISZERO PUSH2 0x122D JUMP JUMPDEST PUSH1 0x40 MLOAD PUSH4 0x23B872DD PUSH1 0xE0 SHL PUSH1 0x20 DUP3 ADD MSTORE PUSH1 0x1 PUSH1 0x1 PUSH1 0xA0 SHL SUB SWAP3 DUP4 AND PUSH1 0x24 DUP3 ADD MSTORE SWAP3 SWAP1 SWAP2 AND PUSH1 0x44 DUP4 ADD MSTORE PUSH1 0x64 DUP1 DUP4 ADD SWAP4 SWAP1 SWAP4 MSTORE SWAP2 DUP2 MSTORE PUSH1 0xA0 DUP2 ADD SWAP2 DUP2 DUP4 LT PUSH8 0xFFFFFFFFFFFFFFFF DUP5 GT OR PUSH2 0x1086 JUMPI PUSH2 0x12B9 SWAP3 PUSH1 0x40 MSTORE PUSH2 0x114D JUMP JUMPDEST JUMP JUMPDEST PUSH1 0x4 DUP1 SLOAD PUSH1 0xFF PUSH1 0xA0 SHL NOT AND PUSH1 0x3 PUSH1 0xA0 SHL OR DUP2 SSTORE PUSH1 0x2 SLOAD PUSH0 SWAP2 PUSH1 0x1 PUSH1 0x1 PUSH1 0xA0 SHL SUB SWAP2 DUP3 AND SWAP2 SWAP1 DUP3 EXTCODESIZE ISZERO PUSH2 0x13F0 JUMPI PUSH1 0x40 SWAP2 DUP3 MLOAD DUP6 DUP2 PUSH1 0x24 DUP2 DUP4 PUSH4 0x7E72C7D7 PUSH1 0xE0 SHL SWAP10 DUP11 DUP4 MSTORE ADDRESS DUP10 DUP5 ADD MSTORE GAS CALL DUP1 ISZERO PUSH2 0x13CF JUMPI PUSH2 0x13DD JUMPI JUMPDEST POP DUP1 PUSH1 0x3 SLOAD AND DUP1 EXTCODESIZE ISZERO PUSH2 0x13D9 JUMPI DUP6 DUP1 SWAP2 PUSH1 0x24 DUP7 MLOAD DUP1 SWAP5 DUP2 SWAP4 PUSH4 0x38E270ED PUSH1 0xE0 SHL DUP4 MSTORE ADDRESS DUP10 DUP5 ADD MSTORE GAS CALL DUP1 ISZERO PUSH2 0x13CF JUMPI SWAP1 DUP7 SWAP2 PUSH2 0x13BB JUMPI JUMPDEST POP POP DUP2 SLOAD AND SWAP3 DUP4 EXTCODESIZE ISZERO PUSH2 0x9F9 JUMPI SWAP1 PUSH1 0x24 DUP6 SWAP3 DUP4 DUP6 MLOAD SWAP7 DUP8 SWAP5 DUP6 SWAP4 DUP5 MSTORE ADDRESS SWAP1 DUP5 ADD MSTORE GAS CALL SWAP1 DUP2 ISZERO PUSH2 0x13B2 JUMPI POP PUSH2 0x139E JUMPI JUMPDEST POP DUP1 PUSH32 0x409FCED1B85AE32A29FB1E18894D8361A5F2653DC27ADF7102D86175C2901D7C SWAP2 LOG1 JUMP JUMPDEST PUSH2 0x13A8 DUP3 SWAP2 PUSH2 0x1072 JUMP JUMPDEST PUSH2 0x181 JUMPI PUSH0 PUSH2 0x1377 JUMP JUMPDEST MLOAD RETURNDATASIZE DUP5 DUP3 RETURNDATACOPY RETURNDATASIZE SWAP1 REVERT JUMPDEST PUSH2 0x13C4 SWAP1 PUSH2 0x1072 JUMP JUMPDEST PUSH2 0x9F9 JUMPI DUP5 PUSH0 PUSH2 0x1347 JUMP JUMPDEST DUP5 MLOAD RETURNDATASIZE DUP9 DUP3 RETURNDATACOPY RETURNDATASIZE SWAP1 REVERT JUMPDEST DUP6 DUP1 REVERT JUMPDEST PUSH2 0x13E9 SWAP1 SWAP6 SWAP2 SWAP6 PUSH2 0x1072 JUMP JUMPDEST SWAP4 PUSH0 PUSH2 0x1310 JUMP JUMPDEST DUP4 DUP1 REVERT JUMPDEST PUSH1 0xE SLOAD NUMBER SUB NUMBER DUP2 GT PUSH2 0x111D JUMPI PUSH1 0x20 PUSH1 0x1 DUP1 PUSH1 0xA0 SHL SUB PUSH1 0xC SLOAD AND PUSH1 0x64 PUSH1 0x9 SLOAD PUSH1 0xA SLOAD SWAP3 PUSH1 0x40 MLOAD SWAP6 DUP7 SWAP5 DUP6 SWAP4 PUSH4 0x1786F63 PUSH1 0xE2 SHL DUP6 MSTORE PUSH1 0x4 DUP6 ADD MSTORE PUSH1 0x24 DUP5 ADD MSTORE PUSH1 0x44 DUP4 ADD MSTORE GAS STATICCALL SWAP1 DUP2 ISZERO PUSH2 0x1478 JUMPI PUSH0 SWAP2 PUSH2 0x144A JUMPI POP SWAP1 JUMP JUMPDEST SWAP1 PUSH1 0x20 DUP3 RETURNDATASIZE DUP3 GT PUSH2 0x1470 JUMPI JUMPDEST DUP2 PUSH2 0x1463 PUSH1 0x20 SWAP4 DUP4 PUSH2 0x109A JUMP JUMPDEST DUP2 ADD SUB SLT PUSH2 0x181 JUMPI POP MLOAD SWAP1 JUMP JUMPDEST RETURNDATASIZE SWAP2 POP PUSH2 0x1456 JUMP JUMPDEST PUSH1 0x40 MLOAD RETURNDATASIZE PUSH0 DUP3 RETURNDATACOPY RETURNDATASIZE SWAP1 REVERT INVALID LOG2 PUSH5 0x6970667358 0x22 SLT KECCAK256 DUP11 RETURN 0x29 GASPRICE SWAP15 0xF LOG0 PC LOG2 0xCE SMOD 0xB0 GASLIMIT DUP8 0xD6 AND COINBASE EXTCODESIZE EXTCODESIZE EQ NUMBER SHR DUP3 0xF8 0x21 DUP12 MULMOD RETURN MULMOD SWAP14 SWAP14 0xBC PUSH5 0x736F6C6343 STOP ADDMOD EQ STOP CALLER "
				},
				"gasEstimates": {
					"creation": {
						"codeDepositCost": "1061000",
						"executionCost": "infinite",
						"totalCost": "infinite"
					},
					"external": {
						"activateLoan()": "infinite",
						"calculateInterest()": "infinite",
						"calculateRequiredCollateral()": "infinite",
						"checkAndHandleDefault()": "infinite",
						"fundLoan()": "infinite",
						"getCollateralAmount(address)": "infinite",
						"getFundedBlock()": "2323",
						"getInterestRate()": "2389",
						"getLoanAmount()": "2648",
						"getLoanState()": "2637",
						"getRepaymentPeriod()": "2411",
						"loanDetails()": "23773",
						"permit2()": "2322",
						"poolOrganizer()": "2630",
						"repay()": "infinite",
						"rewardManager()": "2287",
						"state()": "2681",
						"vaultManager()": "2498"
					},
					"internal": {
						"_closeLoan()": "infinite",
						"_handleDefault()": "infinite",
						"_releaseCollateral()": "infinite"
					}
				},
				"methodIdentifiers": {
					"activateLoan()": "b2a9bb60",
					"calculateInterest()": "eb0c4955",
					"calculateRequiredCollateral()": "6b6d1955",
					"checkAndHandleDefault()": "3b1baeff",
					"fundLoan()": "8db57994",
					"getCollateralAmount(address)": "654c6295",
					"getFundedBlock()": "2e1283e3",
					"getInterestRate()": "5257b566",
					"getLoanAmount()": "f4b01b18",
					"getLoanState()": "9e9f669c",
					"getRepaymentPeriod()": "64c4bec0",
					"loanDetails()": "95cb741d",
					"permit2()": "12261ee7",
					"poolOrganizer()": "c51b9507",
					"repay()": "402d8883",
					"rewardManager()": "0f4ef8a6",
					"state()": "c19d93fb",
					"vaultManager()": "8a4adf24"
				}
			},
			"storageLayout": {
				"storage": [
					{
						"astId": 317,
						"contract": "contracts/contracts/protocol/TuliaPool.sol:TuliaPool",
						"label": "_status",
						"offset": 0,
						"slot": "0",
						"type": "t_uint256"
					},
					{
						"astId": 3935,
						"contract": "contracts/contracts/protocol/TuliaPool.sol:TuliaPool",
						"label": "permit2",
						"offset": 0,
						"slot": "1",
						"type": "t_contract(IPermit2)3585"
					},
					{
						"astId": 3938,
						"contract": "contracts/contracts/protocol/TuliaPool.sol:TuliaPool",
						"label": "poolOrganizer",
						"offset": 0,
						"slot": "2",
						"type": "t_contract(IPoolOrganizer)3689"
					},
					{
						"astId": 3941,
						"contract": "contracts/contracts/protocol/TuliaPool.sol:TuliaPool",
						"label": "vaultManager",
						"offset": 0,
						"slot": "3",
						"type": "t_contract(IVaultManager)3914"
					},
					{
						"astId": 3944,
						"contract": "contracts/contracts/protocol/TuliaPool.sol:TuliaPool",
						"label": "rewardManager",
						"offset": 0,
						"slot": "4",
						"type": "t_contract(IRewardManager)3736"
					},
					{
						"astId": 3982,
						"contract": "contracts/contracts/protocol/TuliaPool.sol:TuliaPool",
						"label": "state",
						"offset": 20,
						"slot": "4",
						"type": "t_enum(LoanState)3979"
					},
					{
						"astId": 3985,
						"contract": "contracts/contracts/protocol/TuliaPool.sol:TuliaPool",
						"label": "loanDetails",
						"offset": 0,
						"slot": "5",
						"type": "t_struct(LoanDetails)3972_storage"
					}
				],
				"types": {
					"t_address": {
						"encoding": "inplace",
						"label": "address",
						"numberOfBytes": "20"
					},
					"t_contract(IERC20)964": {
						"encoding": "inplace",
						"label": "contract IERC20",
						"numberOfBytes": "20"
					},
					"t_contract(IInterestModel)3573": {
						"encoding": "inplace",
						"label": "contract IInterestModel",
						"numberOfBytes": "20"
					},
					"t_contract(IPermit2)3585": {
						"encoding": "inplace",
						"label": "contract IPermit2",
						"numberOfBytes": "20"
					},
					"t_contract(IPoolOrganizer)3689": {
						"encoding": "inplace",
						"label": "contract IPoolOrganizer",
						"numberOfBytes": "20"
					},
					"t_contract(IRewardManager)3736": {
						"encoding": "inplace",
						"label": "contract IRewardManager",
						"numberOfBytes": "20"
					},
					"t_contract(IVaultManager)3914": {
						"encoding": "inplace",
						"label": "contract IVaultManager",
						"numberOfBytes": "20"
					},
					"t_contract(TuliaVault)4693": {
						"encoding": "inplace",
						"label": "contract TuliaVault",
						"numberOfBytes": "20"
					},
					"t_enum(LoanState)3979": {
						"encoding": "inplace",
						"label": "enum TuliaPool.LoanState",
						"numberOfBytes": "1"
					},
					"t_struct(LoanDetails)3972_storage": {
						"encoding": "inplace",
						"label": "struct TuliaPool.LoanDetails",
						"members": [
							{
								"astId": 3947,
								"contract": "contracts/contracts/protocol/TuliaPool.sol:TuliaPool",
								"label": "lender",
								"offset": 0,
								"slot": "0",
								"type": "t_address"
							},
							{
								"astId": 3950,
								"contract": "contracts/contracts/protocol/TuliaPool.sol:TuliaPool",
								"label": "loanToken",
								"offset": 0,
								"slot": "1",
								"type": "t_contract(IERC20)964"
							},
							{
								"astId": 3953,
								"contract": "contracts/contracts/protocol/TuliaPool.sol:TuliaPool",
								"label": "repaymentToken",
								"offset": 0,
								"slot": "2",
								"type": "t_contract(IERC20)964"
							},
							{
								"astId": 3956,
								"contract": "contracts/contracts/protocol/TuliaPool.sol:TuliaPool",
								"label": "collateralVault",
								"offset": 0,
								"slot": "3",
								"type": "t_contract(TuliaVault)4693"
							},
							{
								"astId": 3958,
								"contract": "contracts/contracts/protocol/TuliaPool.sol:TuliaPool",
								"label": "loanAmount",
								"offset": 0,
								"slot": "4",
								"type": "t_uint256"
							},
							{
								"astId": 3960,
								"contract": "contracts/contracts/protocol/TuliaPool.sol:TuliaPool",
								"label": "interestRate",
								"offset": 0,
								"slot": "5",
								"type": "t_uint256"
							},
							{
								"astId": 3962,
								"contract": "contracts/contracts/protocol/TuliaPool.sol:TuliaPool",
								"label": "repaymentPeriod",
								"offset": 0,
								"slot": "6",
								"type": "t_uint256"
							},
							{
								"astId": 3965,
								"contract": "contracts/contracts/protocol/TuliaPool.sol:TuliaPool",
								"label": "interestModel",
								"offset": 0,
								"slot": "7",
								"type": "t_contract(IInterestModel)3573"
							},
							{
								"astId": 3967,
								"contract": "contracts/contracts/protocol/TuliaPool.sol:TuliaPool",
								"label": "borrower",
								"offset": 0,
								"slot": "8",
								"type": "t_address"
							},
							{
								"astId": 3969,
								"contract": "contracts/contracts/protocol/TuliaPool.sol:TuliaPool",
								"label": "startBlock",
								"offset": 0,
								"slot": "9",
								"type": "t_uint256"
							},
							{
								"astId": 3971,
								"contract": "contracts/contracts/protocol/TuliaPool.sol:TuliaPool",
								"label": "fundedBlock",
								"offset": 0,
								"slot": "10",
								"type": "t_uint256"
							}
						],
						"numberOfBytes": "352"
					},
					"t_uint256": {
						"encoding": "inplace",
						"label": "uint256",
						"numberOfBytes": "32"
					}
				}
			},
			"userdoc": {
				"events": {
					"LoanActivated(address,uint256)": {
						"notice": "Emitted when a loan is activated."
					},
					"LoanClosed()": {
						"notice": "Emitted when a loan is closed."
					},
					"LoanDefaulted(address)": {
						"notice": "Emitted when a loan defaults."
					},
					"LoanFunded(uint256)": {
						"notice": "Emitted when a loan is funded."
					},
					"LoanOfferCreated(address,uint256,address,address)": {
						"notice": "Emitted when a loan offer is created."
					},
					"RepaymentMade(uint256)": {
						"notice": "Emitted when a loan is repaid."
					}
				},
				"kind": "user",
				"methods": {
					"activateLoan()": {
						"notice": "Activates a loan by transferring collateral from the borrower to the vault and transferring the loan amount to the borrower."
					},
					"calculateInterest()": {
						"notice": "Calculates the accrued interest based on the loan details."
					},
					"calculateRequiredCollateral()": {
						"notice": "Calculates the required collateral based on the interest and principal."
					},
					"checkAndHandleDefault()": {
						"notice": "Checks if the loan has defaulted based on repayment conditions and handles the default by claiming the collateral."
					},
					"constructor": {
						"notice": "Constructs the TuliaPool loan management contract."
					},
					"getCollateralAmount(address)": {
						"notice": "Retrieves the amount of collateral stored for a specific user."
					},
					"getFundedBlock()": {
						"notice": "Provides the block number when the loan was funded."
					},
					"getInterestRate()": {
						"notice": "Retrieves the interest rate of the loan."
					},
					"getLoanAmount()": {
						"notice": "Retrieves the total loan amount."
					},
					"getLoanState()": {
						"notice": "Retrieves the current state of the loan."
					},
					"getRepaymentPeriod()": {
						"notice": "Retrieves the repayment period of the loan."
					},
					"repay()": {
						"notice": "Repays the loan and releases collateral back to the borrower."
					}
				},
				"notice": "Manages the lifecycle of loans including creation, funding, repayment, and defaults.",
				"version": 1
			}
		}
	}
}