{
	"contracts/contracts/protocol/TuliaVault.sol": {
		"TuliaVault": {
			"abi": [
				{
					"inputs": [
						{
							"internalType": "contract IERC20",
							"name": "asset",
							"type": "address"
						},
						{
							"internalType": "string",
							"name": "name",
							"type": "string"
						},
						{
							"internalType": "string",
							"name": "symbol",
							"type": "string"
						}
					],
					"stateMutability": "nonpayable",
					"type": "constructor"
				},
				{
					"inputs": [
						{
							"internalType": "address",
							"name": "target",
							"type": "address"
						}
					],
					"name": "AddressEmptyCode",
					"type": "error"
				},
				{
					"inputs": [
						{
							"internalType": "address",
							"name": "account",
							"type": "address"
						}
					],
					"name": "AddressInsufficientBalance",
					"type": "error"
				},
				{
					"inputs": [
						{
							"internalType": "address",
							"name": "spender",
							"type": "address"
						},
						{
							"internalType": "uint256",
							"name": "allowance",
							"type": "uint256"
						},
						{
							"internalType": "uint256",
							"name": "needed",
							"type": "uint256"
						}
					],
					"name": "ERC20InsufficientAllowance",
					"type": "error"
				},
				{
					"inputs": [
						{
							"internalType": "address",
							"name": "sender",
							"type": "address"
						},
						{
							"internalType": "uint256",
							"name": "balance",
							"type": "uint256"
						},
						{
							"internalType": "uint256",
							"name": "needed",
							"type": "uint256"
						}
					],
					"name": "ERC20InsufficientBalance",
					"type": "error"
				},
				{
					"inputs": [
						{
							"internalType": "address",
							"name": "approver",
							"type": "address"
						}
					],
					"name": "ERC20InvalidApprover",
					"type": "error"
				},
				{
					"inputs": [
						{
							"internalType": "address",
							"name": "receiver",
							"type": "address"
						}
					],
					"name": "ERC20InvalidReceiver",
					"type": "error"
				},
				{
					"inputs": [
						{
							"internalType": "address",
							"name": "sender",
							"type": "address"
						}
					],
					"name": "ERC20InvalidSender",
					"type": "error"
				},
				{
					"inputs": [
						{
							"internalType": "address",
							"name": "spender",
							"type": "address"
						}
					],
					"name": "ERC20InvalidSpender",
					"type": "error"
				},
				{
					"inputs": [
						{
							"internalType": "address",
							"name": "receiver",
							"type": "address"
						},
						{
							"internalType": "uint256",
							"name": "assets",
							"type": "uint256"
						},
						{
							"internalType": "uint256",
							"name": "max",
							"type": "uint256"
						}
					],
					"name": "ERC4626ExceededMaxDeposit",
					"type": "error"
				},
				{
					"inputs": [
						{
							"internalType": "address",
							"name": "receiver",
							"type": "address"
						},
						{
							"internalType": "uint256",
							"name": "shares",
							"type": "uint256"
						},
						{
							"internalType": "uint256",
							"name": "max",
							"type": "uint256"
						}
					],
					"name": "ERC4626ExceededMaxMint",
					"type": "error"
				},
				{
					"inputs": [
						{
							"internalType": "address",
							"name": "owner",
							"type": "address"
						},
						{
							"internalType": "uint256",
							"name": "shares",
							"type": "uint256"
						},
						{
							"internalType": "uint256",
							"name": "max",
							"type": "uint256"
						}
					],
					"name": "ERC4626ExceededMaxRedeem",
					"type": "error"
				},
				{
					"inputs": [
						{
							"internalType": "address",
							"name": "owner",
							"type": "address"
						},
						{
							"internalType": "uint256",
							"name": "assets",
							"type": "uint256"
						},
						{
							"internalType": "uint256",
							"name": "max",
							"type": "uint256"
						}
					],
					"name": "ERC4626ExceededMaxWithdraw",
					"type": "error"
				},
				{
					"inputs": [],
					"name": "FailedInnerCall",
					"type": "error"
				},
				{
					"inputs": [],
					"name": "MathOverflowedMulDiv",
					"type": "error"
				},
				{
					"inputs": [
						{
							"internalType": "address",
							"name": "token",
							"type": "address"
						}
					],
					"name": "SafeERC20FailedOperation",
					"type": "error"
				},
				{
					"anonymous": false,
					"inputs": [
						{
							"indexed": true,
							"internalType": "address",
							"name": "owner",
							"type": "address"
						},
						{
							"indexed": true,
							"internalType": "address",
							"name": "spender",
							"type": "address"
						},
						{
							"indexed": false,
							"internalType": "uint256",
							"name": "value",
							"type": "uint256"
						}
					],
					"name": "Approval",
					"type": "event"
				},
				{
					"anonymous": false,
					"inputs": [
						{
							"indexed": true,
							"internalType": "address",
							"name": "sender",
							"type": "address"
						},
						{
							"indexed": true,
							"internalType": "address",
							"name": "owner",
							"type": "address"
						},
						{
							"indexed": false,
							"internalType": "uint256",
							"name": "assets",
							"type": "uint256"
						},
						{
							"indexed": false,
							"internalType": "uint256",
							"name": "shares",
							"type": "uint256"
						}
					],
					"name": "Deposit",
					"type": "event"
				},
				{
					"anonymous": false,
					"inputs": [
						{
							"indexed": true,
							"internalType": "address",
							"name": "from",
							"type": "address"
						},
						{
							"indexed": true,
							"internalType": "address",
							"name": "to",
							"type": "address"
						},
						{
							"indexed": false,
							"internalType": "uint256",
							"name": "value",
							"type": "uint256"
						}
					],
					"name": "Transfer",
					"type": "event"
				},
				{
					"anonymous": false,
					"inputs": [
						{
							"indexed": true,
							"internalType": "address",
							"name": "sender",
							"type": "address"
						},
						{
							"indexed": true,
							"internalType": "address",
							"name": "receiver",
							"type": "address"
						},
						{
							"indexed": true,
							"internalType": "address",
							"name": "owner",
							"type": "address"
						},
						{
							"indexed": false,
							"internalType": "uint256",
							"name": "assets",
							"type": "uint256"
						},
						{
							"indexed": false,
							"internalType": "uint256",
							"name": "shares",
							"type": "uint256"
						}
					],
					"name": "Withdraw",
					"type": "event"
				},
				{
					"inputs": [
						{
							"internalType": "address",
							"name": "owner",
							"type": "address"
						},
						{
							"internalType": "address",
							"name": "spender",
							"type": "address"
						}
					],
					"name": "allowance",
					"outputs": [
						{
							"internalType": "uint256",
							"name": "",
							"type": "uint256"
						}
					],
					"stateMutability": "view",
					"type": "function"
				},
				{
					"inputs": [
						{
							"internalType": "address",
							"name": "spender",
							"type": "address"
						},
						{
							"internalType": "uint256",
							"name": "value",
							"type": "uint256"
						}
					],
					"name": "approve",
					"outputs": [
						{
							"internalType": "bool",
							"name": "",
							"type": "bool"
						}
					],
					"stateMutability": "nonpayable",
					"type": "function"
				},
				{
					"inputs": [],
					"name": "asset",
					"outputs": [
						{
							"internalType": "address",
							"name": "",
							"type": "address"
						}
					],
					"stateMutability": "view",
					"type": "function"
				},
				{
					"inputs": [
						{
							"internalType": "address",
							"name": "account",
							"type": "address"
						}
					],
					"name": "balanceOf",
					"outputs": [
						{
							"internalType": "uint256",
							"name": "",
							"type": "uint256"
						}
					],
					"stateMutability": "view",
					"type": "function"
				},
				{
					"inputs": [
						{
							"internalType": "uint256",
							"name": "shares",
							"type": "uint256"
						}
					],
					"name": "convertToAssets",
					"outputs": [
						{
							"internalType": "uint256",
							"name": "",
							"type": "uint256"
						}
					],
					"stateMutability": "view",
					"type": "function"
				},
				{
					"inputs": [
						{
							"internalType": "uint256",
							"name": "assets",
							"type": "uint256"
						}
					],
					"name": "convertToShares",
					"outputs": [
						{
							"internalType": "uint256",
							"name": "",
							"type": "uint256"
						}
					],
					"stateMutability": "view",
					"type": "function"
				},
				{
					"inputs": [],
					"name": "decimals",
					"outputs": [
						{
							"internalType": "uint8",
							"name": "",
							"type": "uint8"
						}
					],
					"stateMutability": "view",
					"type": "function"
				},
				{
					"inputs": [
						{
							"internalType": "uint256",
							"name": "assets",
							"type": "uint256"
						},
						{
							"internalType": "address",
							"name": "receiver",
							"type": "address"
						}
					],
					"name": "deposit",
					"outputs": [
						{
							"internalType": "uint256",
							"name": "",
							"type": "uint256"
						}
					],
					"stateMutability": "nonpayable",
					"type": "function"
				},
				{
					"inputs": [
						{
							"internalType": "address",
							"name": "",
							"type": "address"
						}
					],
					"name": "maxDeposit",
					"outputs": [
						{
							"internalType": "uint256",
							"name": "",
							"type": "uint256"
						}
					],
					"stateMutability": "view",
					"type": "function"
				},
				{
					"inputs": [
						{
							"internalType": "address",
							"name": "",
							"type": "address"
						}
					],
					"name": "maxMint",
					"outputs": [
						{
							"internalType": "uint256",
							"name": "",
							"type": "uint256"
						}
					],
					"stateMutability": "view",
					"type": "function"
				},
				{
					"inputs": [
						{
							"internalType": "address",
							"name": "owner",
							"type": "address"
						}
					],
					"name": "maxRedeem",
					"outputs": [
						{
							"internalType": "uint256",
							"name": "",
							"type": "uint256"
						}
					],
					"stateMutability": "view",
					"type": "function"
				},
				{
					"inputs": [
						{
							"internalType": "address",
							"name": "owner",
							"type": "address"
						}
					],
					"name": "maxWithdraw",
					"outputs": [
						{
							"internalType": "uint256",
							"name": "",
							"type": "uint256"
						}
					],
					"stateMutability": "view",
					"type": "function"
				},
				{
					"inputs": [
						{
							"internalType": "uint256",
							"name": "shares",
							"type": "uint256"
						},
						{
							"internalType": "address",
							"name": "receiver",
							"type": "address"
						}
					],
					"name": "mint",
					"outputs": [
						{
							"internalType": "uint256",
							"name": "",
							"type": "uint256"
						}
					],
					"stateMutability": "nonpayable",
					"type": "function"
				},
				{
					"inputs": [],
					"name": "name",
					"outputs": [
						{
							"internalType": "string",
							"name": "",
							"type": "string"
						}
					],
					"stateMutability": "view",
					"type": "function"
				},
				{
					"inputs": [
						{
							"internalType": "uint256",
							"name": "assets",
							"type": "uint256"
						}
					],
					"name": "previewDeposit",
					"outputs": [
						{
							"internalType": "uint256",
							"name": "",
							"type": "uint256"
						}
					],
					"stateMutability": "view",
					"type": "function"
				},
				{
					"inputs": [
						{
							"internalType": "uint256",
							"name": "shares",
							"type": "uint256"
						}
					],
					"name": "previewMint",
					"outputs": [
						{
							"internalType": "uint256",
							"name": "",
							"type": "uint256"
						}
					],
					"stateMutability": "view",
					"type": "function"
				},
				{
					"inputs": [
						{
							"internalType": "uint256",
							"name": "shares",
							"type": "uint256"
						}
					],
					"name": "previewRedeem",
					"outputs": [
						{
							"internalType": "uint256",
							"name": "",
							"type": "uint256"
						}
					],
					"stateMutability": "view",
					"type": "function"
				},
				{
					"inputs": [
						{
							"internalType": "uint256",
							"name": "assets",
							"type": "uint256"
						}
					],
					"name": "previewWithdraw",
					"outputs": [
						{
							"internalType": "uint256",
							"name": "",
							"type": "uint256"
						}
					],
					"stateMutability": "view",
					"type": "function"
				},
				{
					"inputs": [
						{
							"internalType": "uint256",
							"name": "shares",
							"type": "uint256"
						},
						{
							"internalType": "address",
							"name": "receiver",
							"type": "address"
						},
						{
							"internalType": "address",
							"name": "owner",
							"type": "address"
						}
					],
					"name": "redeem",
					"outputs": [
						{
							"internalType": "uint256",
							"name": "",
							"type": "uint256"
						}
					],
					"stateMutability": "nonpayable",
					"type": "function"
				},
				{
					"inputs": [],
					"name": "symbol",
					"outputs": [
						{
							"internalType": "string",
							"name": "",
							"type": "string"
						}
					],
					"stateMutability": "view",
					"type": "function"
				},
				{
					"inputs": [],
					"name": "totalAssets",
					"outputs": [
						{
							"internalType": "uint256",
							"name": "",
							"type": "uint256"
						}
					],
					"stateMutability": "view",
					"type": "function"
				},
				{
					"inputs": [],
					"name": "totalSupply",
					"outputs": [
						{
							"internalType": "uint256",
							"name": "",
							"type": "uint256"
						}
					],
					"stateMutability": "view",
					"type": "function"
				},
				{
					"inputs": [
						{
							"internalType": "address",
							"name": "to",
							"type": "address"
						},
						{
							"internalType": "uint256",
							"name": "value",
							"type": "uint256"
						}
					],
					"name": "transfer",
					"outputs": [
						{
							"internalType": "bool",
							"name": "",
							"type": "bool"
						}
					],
					"stateMutability": "nonpayable",
					"type": "function"
				},
				{
					"inputs": [
						{
							"internalType": "address",
							"name": "from",
							"type": "address"
						},
						{
							"internalType": "address",
							"name": "to",
							"type": "address"
						},
						{
							"internalType": "uint256",
							"name": "value",
							"type": "uint256"
						}
					],
					"name": "transferFrom",
					"outputs": [
						{
							"internalType": "bool",
							"name": "",
							"type": "bool"
						}
					],
					"stateMutability": "nonpayable",
					"type": "function"
				},
				{
					"inputs": [
						{
							"internalType": "uint256",
							"name": "assets",
							"type": "uint256"
						},
						{
							"internalType": "address",
							"name": "receiver",
							"type": "address"
						},
						{
							"internalType": "address",
							"name": "owner",
							"type": "address"
						}
					],
					"name": "withdraw",
					"outputs": [
						{
							"internalType": "uint256",
							"name": "",
							"type": "uint256"
						}
					],
					"stateMutability": "nonpayable",
					"type": "function"
				}
			],
			"devdoc": {
				"details": "Extends ERC4626 for asset management.",
				"errors": {
					"AddressEmptyCode(address)": [
						{
							"details": "There's no code at `target` (it is not a contract)."
						}
					],
					"AddressInsufficientBalance(address)": [
						{
							"details": "The ETH balance of the account is not enough to perform the operation."
						}
					],
					"ERC20InsufficientAllowance(address,uint256,uint256)": [
						{
							"details": "Indicates a failure with the `spender`s `allowance`. Used in transfers.",
							"params": {
								"allowance": "Amount of tokens a `spender` is allowed to operate with.",
								"needed": "Minimum amount required to perform a transfer.",
								"spender": "Address that may be allowed to operate on tokens without being their owner."
							}
						}
					],
					"ERC20InsufficientBalance(address,uint256,uint256)": [
						{
							"details": "Indicates an error related to the current `balance` of a `sender`. Used in transfers.",
							"params": {
								"balance": "Current balance for the interacting account.",
								"needed": "Minimum amount required to perform a transfer.",
								"sender": "Address whose tokens are being transferred."
							}
						}
					],
					"ERC20InvalidApprover(address)": [
						{
							"details": "Indicates a failure with the `approver` of a token to be approved. Used in approvals.",
							"params": {
								"approver": "Address initiating an approval operation."
							}
						}
					],
					"ERC20InvalidReceiver(address)": [
						{
							"details": "Indicates a failure with the token `receiver`. Used in transfers.",
							"params": {
								"receiver": "Address to which tokens are being transferred."
							}
						}
					],
					"ERC20InvalidSender(address)": [
						{
							"details": "Indicates a failure with the token `sender`. Used in transfers.",
							"params": {
								"sender": "Address whose tokens are being transferred."
							}
						}
					],
					"ERC20InvalidSpender(address)": [
						{
							"details": "Indicates a failure with the `spender` to be approved. Used in approvals.",
							"params": {
								"spender": "Address that may be allowed to operate on tokens without being their owner."
							}
						}
					],
					"ERC4626ExceededMaxDeposit(address,uint256,uint256)": [
						{
							"details": "Attempted to deposit more assets than the max amount for `receiver`."
						}
					],
					"ERC4626ExceededMaxMint(address,uint256,uint256)": [
						{
							"details": "Attempted to mint more shares than the max amount for `receiver`."
						}
					],
					"ERC4626ExceededMaxRedeem(address,uint256,uint256)": [
						{
							"details": "Attempted to redeem more shares than the max amount for `receiver`."
						}
					],
					"ERC4626ExceededMaxWithdraw(address,uint256,uint256)": [
						{
							"details": "Attempted to withdraw more assets than the max amount for `receiver`."
						}
					],
					"FailedInnerCall()": [
						{
							"details": "A call to an address target failed. The target may have reverted."
						}
					],
					"MathOverflowedMulDiv()": [
						{
							"details": "Muldiv operation overflow."
						}
					],
					"SafeERC20FailedOperation(address)": [
						{
							"details": "An operation with an ERC20 token failed."
						}
					]
				},
				"events": {
					"Approval(address,address,uint256)": {
						"details": "Emitted when the allowance of a `spender` for an `owner` is set by a call to {approve}. `value` is the new allowance."
					},
					"Transfer(address,address,uint256)": {
						"details": "Emitted when `value` tokens are moved from one account (`from`) to another (`to`). Note that `value` may be zero."
					}
				},
				"kind": "dev",
				"methods": {
					"allowance(address,address)": {
						"details": "See {IERC20-allowance}."
					},
					"approve(address,uint256)": {
						"details": "See {IERC20-approve}. NOTE: If `value` is the maximum `uint256`, the allowance is not updated on `transferFrom`. This is semantically equivalent to an infinite approval. Requirements: - `spender` cannot be the zero address."
					},
					"asset()": {
						"details": "See {IERC4626-asset}. "
					},
					"balanceOf(address)": {
						"details": "See {IERC20-balanceOf}."
					},
					"convertToAssets(uint256)": {
						"details": "See {IERC4626-convertToAssets}. "
					},
					"convertToShares(uint256)": {
						"details": "See {IERC4626-convertToShares}. "
					},
					"decimals()": {
						"details": "Decimals are computed by adding the decimal offset on top of the underlying asset's decimals. This \"original\" value is cached during construction of the vault contract. If this read operation fails (e.g., the asset has not been created yet), a default of 18 is used to represent the underlying asset's decimals. See {IERC20Metadata-decimals}."
					},
					"deposit(uint256,address)": {
						"details": "See {IERC4626-deposit}. "
					},
					"maxDeposit(address)": {
						"details": "See {IERC4626-maxDeposit}. "
					},
					"maxMint(address)": {
						"details": "See {IERC4626-maxMint}. "
					},
					"maxRedeem(address)": {
						"details": "See {IERC4626-maxRedeem}. "
					},
					"maxWithdraw(address)": {
						"details": "See {IERC4626-maxWithdraw}. "
					},
					"mint(uint256,address)": {
						"details": "See {IERC4626-mint}. As opposed to {deposit}, minting is allowed even if the vault is in a state where the price of a share is zero. In this case, the shares will be minted without requiring any assets to be deposited."
					},
					"name()": {
						"details": "Returns the name of the token."
					},
					"previewDeposit(uint256)": {
						"details": "See {IERC4626-previewDeposit}. "
					},
					"previewMint(uint256)": {
						"details": "See {IERC4626-previewMint}. "
					},
					"previewRedeem(uint256)": {
						"details": "See {IERC4626-previewRedeem}. "
					},
					"previewWithdraw(uint256)": {
						"details": "See {IERC4626-previewWithdraw}. "
					},
					"redeem(uint256,address,address)": {
						"details": "See {IERC4626-redeem}. "
					},
					"symbol()": {
						"details": "Returns the symbol of the token, usually a shorter version of the name."
					},
					"totalAssets()": {
						"details": "See {IERC4626-totalAssets}. "
					},
					"totalSupply()": {
						"details": "See {IERC20-totalSupply}."
					},
					"transfer(address,uint256)": {
						"details": "See {IERC20-transfer}. Requirements: - `to` cannot be the zero address. - the caller must have a balance of at least `value`."
					},
					"transferFrom(address,address,uint256)": {
						"details": "See {IERC20-transferFrom}. Emits an {Approval} event indicating the updated allowance. This is not required by the EIP. See the note at the beginning of {ERC20}. NOTE: Does not update the allowance if the current allowance is the maximum `uint256`. Requirements: - `from` and `to` cannot be the zero address. - `from` must have a balance of at least `value`. - the caller must have allowance for ``from``'s tokens of at least `value`."
					},
					"withdraw(uint256,address,address)": {
						"details": "See {IERC4626-withdraw}. "
					}
				},
				"title": "TuliaVault",
				"version": 1
			},
			"evm": {
				"assembly": "    /* \"contracts/contracts/protocol/TuliaVault.sol\":390:557  contract TuliaVault is ERC4626 {... */\n  0xc0\n  dup1\n  0x40\n  mstore\n  jumpi(tag_15, callvalue)\n  bytecodeSize\n  dup1\n  codesize\n  sub\n  dup1\n  swap2\n  tag_7\n  dup3\n  dup6\n  tag_1\n  jump\t// in\ntag_7:\n  dup4\n  codecopy\n  dup2\n  add\n  swap1\n  0x60\n  dup2\n  dup4\n  sub\n  slt\n  tag_15\n  jumpi\n  dup1\n  mload\n  swap2\n  sub(shl(0xa0, 0x01), 0x01)\n  dup4\n  and\n  dup4\n  sub\n  tag_15\n  jumpi\n  0x20\n  dup3\n  dup2\n  add\n  mload\n  swap1\n  swap3\n  sub(shl(0x40, 0x01), 0x01)\n  swap2\n  dup3\n  dup2\n  gt\n  tag_15\n  jumpi\n  dup4\n  tag_14\n  swap2\n  dup4\n  add\n  tag_3\n  jump\t// in\ntag_14:\n  swap3\n  0x40\n  dup3\n  add\n  mload\n  dup4\n  dup2\n  gt\n  tag_15\n  jumpi\n  tag_17\n  swap3\n  add\n  tag_3\n  jump\t// in\ntag_17:\n  dup3\n  mload\n  dup3\n  dup2\n  gt\n  tag_31\n  jumpi\n    /* \"@openzeppelin/contracts/token/ERC20/ERC20.sol\":1962:1975  _name = name_ */\n  0x03\n    /* \"contracts/contracts/protocol/TuliaVault.sol\":390:557  contract TuliaVault is ERC4626 {... */\n  swap2\n  dup3\n  sload\n  swap2\n  0x01\n  swap6\n  dup7\n  dup5\n  dup2\n  shr\n  swap5\n  and\n  dup1\n  iszero\n  tag_20\n  jumpi\ntag_21:\n  dup9\n  dup6\n  lt\n  eq\n  tag_22\n  jumpi\n  dup2\n  swap1\n  0x1f\n  swap5\n  dup6\n  dup2\n  gt\n  tag_24\n  jumpi\ntag_25:\n  pop\n  dup9\n  swap1\n  dup6\n  dup4\n  gt\n  0x01\n  eq\n  tag_26\n  jumpi\n  0x00\n  swap3\n  tag_28\n  jumpi\ntag_29:\n  pop\n  pop\n  not(0x00)\n  dup3\n  dup7\n  shl\n  shr\n  not\n  and\n  swap1\n  dup7\n  shl\n  or\n  dup4\n  sstore\ntag_30:\n  dup1\n  mload\n  swap4\n  dup5\n  gt\n  tag_31\n  jumpi\n    /* \"@openzeppelin/contracts/token/ERC20/ERC20.sol\":1985:2002  _symbol = symbol_ */\n  0x04\n    /* \"contracts/contracts/protocol/TuliaVault.sol\":390:557  contract TuliaVault is ERC4626 {... */\n  swap6\n  dup7\n  sload\n  dup7\n  dup2\n  dup2\n  shr\n  swap2\n  and\n  dup1\n  iszero\n  tag_33\n  jumpi\ntag_34:\n  dup3\n  dup3\n  lt\n  eq\n  tag_35\n  jumpi\n  dup4\n  dup2\n  gt\n  tag_37\n  jumpi\ntag_38:\n  pop\n  dup1\n  swap3\n  dup6\n  gt\n  0x01\n  eq\n  tag_39\n  jumpi\n  pop\n  swap4\n  dup4\n  swap5\n  swap2\n  dup5\n  swap3\n  0x00\n  swap6\n  tag_41\n  jumpi\ntag_42:\n  pop\n  pop\n  shl\n  swap3\n  not(0x00)\n  swap2\n  shl\n  shr\n  not\n  and\n  or\n  swap1\n  sstore\ntag_43:\n    /* \"@openzeppelin/contracts/token/ERC20/extensions/ERC4626.sol\":4240:4268  _tryGetAssetDecimals(asset_) */\n  tag_44\n  dup2\n  tag_4\n  jump\t// in\ntag_44:\n    /* \"@openzeppelin/contracts/token/ERC20/extensions/ERC4626.sol\":4300:4328  success ? assetDecimals : 18 */\n  swap1\n  iszero\n  tag_45\n  jumpi\ntag_47:\n    /* \"contracts/contracts/protocol/TuliaVault.sol\":390:557  contract TuliaVault is ERC4626 {... */\n  0xa0\n    /* \"@openzeppelin/contracts/token/ERC20/extensions/ERC4626.sol\":4278:4328  _underlyingDecimals = success ? assetDecimals : 18 */\n  mstore\n    /* \"@openzeppelin/contracts/token/ERC20/extensions/ERC4626.sol\":4338:4353  _asset = asset_ */\n  0x80\n  mstore\n    /* \"contracts/contracts/protocol/TuliaVault.sol\":390:557  contract TuliaVault is ERC4626 {... */\n  mload(0x40)\n  dataSize(sub_0)\n  swap1\n  dup2\n  dataOffset(sub_0)\n  dup3\n  codecopy\n    /* \"@openzeppelin/contracts/token/ERC20/extensions/ERC4626.sol\":4338:4353  _asset = asset_ */\n  0x80\n    /* \"contracts/contracts/protocol/TuliaVault.sol\":390:557  contract TuliaVault is ERC4626 {... */\n  mload\n  dup2\n  assignImmutable(\"0x57d03f72a618a841c753598d7d2cbcbbd5f43a73c69f9abc886bd29cf4101ea1\")\n  mload(0xa0)\n  dup2\n  assignImmutable(\"0xc0bf3ddb79e7c5faf09af1eaa09640fae848e430edf7a04658ec05be9ade7aab\")\n  return\n    /* \"@openzeppelin/contracts/token/ERC20/extensions/ERC4626.sol\":4300:4328  success ? assetDecimals : 18 */\ntag_45:\n  pop\n    /* \"@openzeppelin/contracts/token/ERC20/extensions/ERC4626.sol\":4326:4328  18 */\n  0x12\n    /* \"@openzeppelin/contracts/token/ERC20/extensions/ERC4626.sol\":4300:4328  success ? assetDecimals : 18 */\n  jump(tag_47)\n    /* \"contracts/contracts/protocol/TuliaVault.sol\":390:557  contract TuliaVault is ERC4626 {... */\ntag_41:\n  add\n  mload\n  swap4\n  pop\n  0x00\n  dup1\n  jump(tag_42)\ntag_39:\n  swap3\n  swap2\n  swap1\n  dup5\n  not(0x1f)\n  dup2\n  and\n  dup9\n  0x00\n  mstore\n  dup6\n  0x00\n  keccak256\n  swap6\n  0x00\n  swap1\ntag_48:\n  dup10\n  dup4\n  dup4\n  lt\n  tag_49\n  jumpi\n  pop\n  pop\n  pop\n  lt\n  tag_51\n  jumpi\ntag_52:\n  pop\n  pop\n  pop\n  pop\n  dup2\n  shl\n  add\n  swap1\n  sstore\n  jump(tag_43)\ntag_51:\n  add\n  mload\n  swap1\n  0xf8\n  dup5\n  not(0x00)\n  swap3\n  shl\n  and\n  shr\n  not\n  and\n  swap1\n  sstore\n  0x00\n  dup1\n  dup1\n  dup1\n  jump(tag_52)\ntag_49:\n  dup6\n  dup8\n  add\n  mload\n  dup10\n  sstore\n  swap1\n  swap8\n  add\n  swap7\n  swap5\n  dup6\n  add\n  swap5\n  dup9\n  swap4\n  pop\n  swap1\n  dup2\n  add\n  swap1\n  jump(tag_48)\ntag_37:\n  dup8\n  0x00\n  mstore\n  dup2\n  0x00\n  keccak256\n  dup5\n  dup1\n  dup9\n  add\n  0x05\n  shr\n  dup3\n  add\n  swap3\n  dup5\n  dup10\n  lt\n  tag_53\n  jumpi\ntag_54:\n  add\n  0x05\n  shr\n  add\n  swap1\n  dup8\n  swap1\ntag_55:\n  dup3\n  dup2\n  lt\n  tag_56\n  jumpi\n  pop\n  pop\n  jump(tag_38)\ntag_56:\n  0x00\n  dup2\n  sstore\n  add\n  dup8\n  swap1\n  jump(tag_55)\ntag_53:\n  swap3\n  pop\n  dup2\n  swap3\n  jump(tag_54)\ntag_35:\n  0x22\n  dup9\n  mstore(0x00, shl(0xe0, 0x4e487b71))\n  mstore\n  revert(0x00, 0x24)\ntag_33:\n  swap1\n  0x7f\n  and\n  swap1\n  jump(tag_34)\ntag_31:\n  mstore(0x00, shl(0xe0, 0x4e487b71))\n  0x41\n    /* \"@openzeppelin/contracts/token/ERC20/ERC20.sol\":1985:2002  _symbol = symbol_ */\n  0x04\n    /* \"contracts/contracts/protocol/TuliaVault.sol\":390:557  contract TuliaVault is ERC4626 {... */\n  mstore\n  revert(0x00, 0x24)\ntag_28:\n  add\n  mload\n  swap1\n  pop\n  0x00\n  dup1\n  jump(tag_29)\ntag_26:\n  swap1\n  dup9\n  swap4\n  pop\n  not(0x1f)\n  dup4\n  and\n  swap2\n  dup8\n  0x00\n  mstore\n  dup11\n  0x00\n  keccak256\n  swap3\n  0x00\ntag_58:\n  dup13\n  dup3\n  dup3\n  lt\n  tag_59\n  jumpi\n  pop\n  pop\n  dup5\n  gt\n  tag_61\n  jumpi\ntag_62:\n  pop\n  pop\n  pop\n  dup2\n  shl\n  add\n  dup4\n  sstore\n  jump(tag_30)\ntag_61:\n  add\n  mload\n  not(0x00)\n  dup4\n  dup9\n  shl\n  0xf8\n  and\n  shr\n  not\n  and\n  swap1\n  sstore\n  0x00\n  dup1\n  dup1\n  jump(tag_62)\ntag_59:\n  dup4\n  dup6\n  add\n  mload\n  dup7\n  sstore\n  dup13\n  swap8\n  swap1\n  swap6\n  add\n  swap5\n  swap4\n  dup5\n  add\n  swap4\n  add\n  jump(tag_58)\ntag_24:\n  swap1\n  swap2\n  pop\n  dup6\n  0x00\n  mstore\n  dup9\n  0x00\n  keccak256\n  dup6\n  dup1\n  dup6\n  add\n  0x05\n  shr\n  dup3\n  add\n  swap3\n  dup12\n  dup7\n  lt\n  tag_63\n  jumpi\ntag_64:\n  swap2\n  dup11\n  swap2\n  dup7\n  swap6\n  swap5\n  swap4\n  add\n  0x05\n  shr\n  add\n  swap2\ntag_65:\n  dup3\n  dup2\n  lt\n  tag_66\n  jumpi\n  pop\n  pop\n  jump(tag_25)\ntag_66:\n  0x00\n  dup2\n  sstore\n  dup6\n  swap5\n  pop\n  dup11\n  swap2\n  add\n  jump(tag_65)\ntag_63:\n  swap3\n  pop\n  dup2\n  swap3\n  jump(tag_64)\ntag_22:\n  mstore(0x00, shl(0xe0, 0x4e487b71))\n  mstore(0x04, 0x22)\n  revert(0x00, 0x24)\ntag_20:\n  swap4\n  0x7f\n  and\n  swap4\n  jump(tag_21)\ntag_15:\n  0x00\n  dup1\n  revert\ntag_1:\n  0x1f\n  swap1\n  swap2\n  add\n  not(0x1f)\n  and\n  dup2\n  add\n  swap1\n  sub(shl(0x40, 0x01), 0x01)\n  dup3\n  gt\n  swap1\n  dup3\n  lt\n  or\n  tag_31\n  jumpi\n  0x40\n  mstore\n  jump\t// out\ntag_2:\n  sub(shl(0x40, 0x01), 0x01)\n  dup2\n  gt\n  tag_31\n  jumpi\n  0x1f\n  add\n  not(0x1f)\n  and\n  0x20\n  add\n  swap1\n  jump\t// out\ntag_3:\n  swap2\n  swap1\n  dup1\n  0x1f\n  dup5\n  add\n  slt\n  iszero\n  tag_15\n  jumpi\n  dup3\n  mload\n  swap1\n  tag_74\n  dup3\n  tag_2\n  jump\t// in\ntag_74:\n  swap2\n  tag_75\n  mload(0x40)\n  swap4\n  dup5\n  tag_1\n  jump\t// in\ntag_75:\n  dup1\n  dup4\n  mstore\n  0x20\n  swap2\n  dup3\n  dup3\n  dup8\n  add\n  add\n  gt\n  tag_15\n  jumpi\n  0x00\ntag_78:\n  dup2\n  dup2\n  lt\n  tag_79\n  jumpi\n  pop\n  dup3\n  0x00\n  swap4\n  swap5\n  swap6\n  pop\n  add\n  add\n  mstore\n  swap1\n  jump\t// out\ntag_79:\n  dup6\n  dup2\n  add\n  dup4\n  add\n  mload\n  dup5\n  dup3\n  add\n  dup5\n  add\n  mstore\n  dup3\n  add\n  jump(tag_78)\n    /* \"@openzeppelin/contracts/token/ERC20/extensions/ERC4626.sol\":4503:5036  function _tryGetAssetDecimals(IERC20 asset_) private view returns (bool, uint8) {... */\ntag_4:\n    /* \"contracts/contracts/protocol/TuliaVault.sol\":390:557  contract TuliaVault is ERC4626 {... */\n  0x40\n  dup1\n  mload\n  shl(0xe0, 0x313ce567)\n    /* \"@openzeppelin/contracts/token/ERC20/extensions/ERC4626.sol\":4680:4723  abi.encodeCall(IERC20Metadata.decimals, ()) */\n  0x20\n  dup3\n  add\n  swap1\n  dup2\n  mstore\n  0x04\n  dup3\n  mstore\n    /* \"@openzeppelin/contracts/token/ERC20/extensions/ERC4626.sol\":4503:5036  function _tryGetAssetDecimals(IERC20 asset_) private view returns (bool, uint8) {... */\n  swap3\n  swap4\n  swap3\n    /* \"@openzeppelin/contracts/token/ERC20/extensions/ERC4626.sol\":4680:4723  abi.encodeCall(IERC20Metadata.decimals, ()) */\n  swap2\n    /* \"contracts/contracts/protocol/TuliaVault.sol\":390:557  contract TuliaVault is ERC4626 {... */\n  dup2\n  add\n  sub(shl(0x40, 0x01), 0x01)\n  dup2\n  gt\n  dup3\n  dup3\n  lt\n  or\n  tag_31\n  jumpi\n  0x40\n  mstore\n    /* \"@openzeppelin/contracts/token/ERC20/extensions/ERC4626.sol\":4640:4733  address(asset_).staticcall(... */\n  mload\n    /* \"@openzeppelin/contracts/token/ERC20/extensions/ERC4626.sol\":4680:4723  abi.encodeCall(IERC20Metadata.decimals, ()) */\n  0x00\n  swap4\n  dup5\n  swap3\n  dup4\n  swap3\n    /* \"@openzeppelin/contracts/token/ERC20/extensions/ERC4626.sol\":4640:4733  address(asset_).staticcall(... */\n  swap2\n  sub(shl(0xa0, 0x01), 0x01)\n    /* \"contracts/contracts/protocol/TuliaVault.sol\":390:557  contract TuliaVault is ERC4626 {... */\n  and\n    /* \"@openzeppelin/contracts/token/ERC20/extensions/ERC4626.sol\":4640:4733  address(asset_).staticcall(... */\n  gas\n  staticcall\n    /* \"contracts/contracts/protocol/TuliaVault.sol\":390:557  contract TuliaVault is ERC4626 {... */\n  jumpi(tag_83, iszero(returndatasize))\n  returndatasize\n  swap1\n  tag_85\n  dup3\n  tag_2\n  jump\t// in\ntag_85:\n  swap2\n  tag_86\n  mload(0x40)\n  swap4\n  dup5\n  tag_1\n  jump\t// in\ntag_86:\n  dup3\n  mstore\n  returndatasize\n  dup5\n    /* \"@openzeppelin/contracts/token/ERC20/extensions/ERC4626.sol\":4680:4723  abi.encodeCall(IERC20Metadata.decimals, ()) */\n  0x20\n    /* \"contracts/contracts/protocol/TuliaVault.sol\":390:557  contract TuliaVault is ERC4626 {... */\n  dup5\n  add\n  returndatacopy\ntag_87:\n    /* \"@openzeppelin/contracts/token/ERC20/extensions/ERC4626.sol\":4747:4786  success && encodedDecimals.length >= 32 */\n  dup1\n  tag_88\n  jumpi\n    /* \"contracts/contracts/protocol/TuliaVault.sol\":390:557  contract TuliaVault is ERC4626 {... */\ntag_89:\n    /* \"@openzeppelin/contracts/token/ERC20/extensions/ERC4626.sol\":4743:5003  if (success && encodedDecimals.length >= 32) {... */\n  tag_90\n  jumpi\n    /* \"contracts/contracts/protocol/TuliaVault.sol\":390:557  contract TuliaVault is ERC4626 {... */\ntag_91:\n    /* \"@openzeppelin/contracts/token/ERC20/extensions/ERC4626.sol\":5012:5029  return (false, 0) */\n  pop\n  dup2\n    /* \"@openzeppelin/contracts/token/ERC20/extensions/ERC4626.sol\":4503:5036  function _tryGetAssetDecimals(IERC20 asset_) private view returns (bool, uint8) {... */\n  swap1\n  jump\t// out\n    /* \"@openzeppelin/contracts/token/ERC20/extensions/ERC4626.sol\":4743:5003  if (success && encodedDecimals.length >= 32) {... */\ntag_90:\n    /* \"@openzeppelin/contracts/token/ERC20/extensions/ERC4626.sol\":4680:4723  abi.encodeCall(IERC20Metadata.decimals, ()) */\n  0x20\n    /* \"contracts/contracts/protocol/TuliaVault.sol\":390:557  contract TuliaVault is ERC4626 {... */\n  dup2\n  dup1\n  mload\n    /* \"@openzeppelin/contracts/token/ERC20/extensions/ERC4626.sol\":4829:4867  abi.decode(encodedDecimals, (uint256)) */\n  dup2\n  add\n    /* \"contracts/contracts/protocol/TuliaVault.sol\":390:557  contract TuliaVault is ERC4626 {... */\n  sub\n  slt\n  tag_92\n  jumpi\n    /* \"@openzeppelin/contracts/token/ERC20/extensions/ERC4626.sol\":4680:4723  abi.encodeCall(IERC20Metadata.decimals, ()) */\n  0x20\n    /* \"@openzeppelin/contracts/token/ERC20/extensions/ERC4626.sol\":4829:4867  abi.decode(encodedDecimals, (uint256)) */\n  add\n    /* \"contracts/contracts/protocol/TuliaVault.sol\":390:557  contract TuliaVault is ERC4626 {... */\n  mload\n  0xff\n    /* \"@openzeppelin/contracts/token/ERC20/extensions/ERC4626.sol\":4885:4920  returnedDecimals <= type(uint8).max */\n  dup2\n  gt\n    /* \"@openzeppelin/contracts/token/ERC20/extensions/ERC4626.sol\":4743:5003  if (success && encodedDecimals.length >= 32) {... */\n  tag_91\n    /* \"@openzeppelin/contracts/token/ERC20/extensions/ERC4626.sol\":4881:4993  if (returnedDecimals <= type(uint8).max) {... */\n  jumpi\n    /* \"contracts/contracts/protocol/TuliaVault.sol\":390:557  contract TuliaVault is ERC4626 {... */\n  0x01\n  swap3\n  pop\n  0xff\n  and\n  swap1\n    /* \"@openzeppelin/contracts/token/ERC20/extensions/ERC4626.sol\":4940:4978  return (true, uint8(returnedDecimals)) */\n  jump\t// out\n    /* \"contracts/contracts/protocol/TuliaVault.sol\":390:557  contract TuliaVault is ERC4626 {... */\ntag_92:\n  dup3\n  dup1\n  revert\n    /* \"@openzeppelin/contracts/token/ERC20/extensions/ERC4626.sol\":4747:4786  success && encodedDecimals.length >= 32 */\ntag_88:\n    /* \"contracts/contracts/protocol/TuliaVault.sol\":390:557  contract TuliaVault is ERC4626 {... */\n  pop\n    /* \"@openzeppelin/contracts/token/ERC20/extensions/ERC4626.sol\":4680:4723  abi.encodeCall(IERC20Metadata.decimals, ()) */\n  0x20\n    /* \"contracts/contracts/protocol/TuliaVault.sol\":390:557  contract TuliaVault is ERC4626 {... */\n  dup2\n  mload\n    /* \"@openzeppelin/contracts/token/ERC20/extensions/ERC4626.sol\":4758:4786  encodedDecimals.length >= 32 */\n  lt\n  iszero\n    /* \"@openzeppelin/contracts/token/ERC20/extensions/ERC4626.sol\":4747:4786  success && encodedDecimals.length >= 32 */\n  jump(tag_89)\n    /* \"contracts/contracts/protocol/TuliaVault.sol\":390:557  contract TuliaVault is ERC4626 {... */\ntag_83:\n  0x60\n  swap1\n  jump(tag_87)\nstop\n\nsub_0: assembly {\n        /* \"contracts/contracts/protocol/TuliaVault.sol\":390:557  contract TuliaVault is ERC4626 {... */\n      0x40\n      0x80\n      dup2\n      mstore\n      0x04\n      swap1\n      dup2\n      calldatasize\n      lt\n      iszero\n      tag_24\n      jumpi\n      0x00\n      dup1\n      revert\n    tag_24:\n      0x00\n      swap1\n      dup2\n      calldataload\n      0xe0\n      shr\n      swap3\n      dup4\n      0x01e1d114\n      eq\n      tag_26\n      jumpi\n      dup4\n      0x06fdde03\n      eq\n      tag_28\n      jumpi\n      dup4\n      0x07a2d13a\n      eq\n      tag_46\n      jumpi\n      dup4\n      0x095ea7b3\n      eq\n      tag_32\n      jumpi\n      dup4\n      0x0a28a477\n      eq\n      tag_34\n      jumpi\n      dup4\n      0x18160ddd\n      eq\n      tag_36\n      jumpi\n      dup4\n      0x23b872dd\n      eq\n      tag_38\n      jumpi\n      dup4\n      0x313ce567\n      eq\n      tag_40\n      jumpi\n      dup4\n      0x38d52e0f\n      eq\n      tag_42\n      jumpi\n      dup4\n      0x402d267d\n      eq\n      tag_64\n      jumpi\n      dup4\n      0x4cdad506\n      eq\n      tag_46\n      jumpi\n      dup4\n      0x6e553f65\n      eq\n      tag_48\n      jumpi\n      dup4\n      0x70a08231\n      eq\n      tag_50\n      jumpi\n      dup4\n      0x94bf804d\n      eq\n      tag_52\n      jumpi\n      dup4\n      0x95d89b41\n      eq\n      tag_54\n      jumpi\n      dup4\n      0xa9059cbb\n      eq\n      tag_56\n      jumpi\n      dup4\n      0xb3d7f6b9\n      eq\n      tag_58\n      jumpi\n      dup4\n      0xb460af94\n      eq\n      tag_60\n      jumpi\n      dup4\n      0xba087652\n      eq\n      tag_62\n      jumpi\n      pop\n      dup3\n      0xc63d75b6\n      eq\n      tag_64\n      jumpi\n      dup3\n      0xc6e6f592\n      eq\n      tag_74\n      jumpi\n      dup3\n      0xce96cb77\n      eq\n      tag_68\n      jumpi\n      dup3\n      0xd905777e\n      eq\n      tag_70\n      jumpi\n      dup3\n      0xdd62ed3e\n      eq\n      tag_72\n      jumpi\n      pop\n      pop\n      0xef8b30f7\n      eq\n      tag_74\n      jumpi\n      0x00\n      dup1\n      revert\n    tag_74:\n      tag_7\n      jump\t// in\n    tag_72:\n      jumpi(tag_78, callvalue)\n      dup1\n      add(calldatasize, not(0x03))\n      slt\n      tag_78\n      jumpi\n      dup1\n      0x20\n      swap3\n      tag_80\n      tag_3\n      jump\t// in\n    tag_80:\n      tag_81\n      tag_4\n      jump\t// in\n    tag_81:\n      sub(shl(0xa0, 0x01), 0x01)\n      swap2\n      dup3\n      and\n      dup4\n      mstore\n      0x01\n      dup7\n      mstore\n      dup4\n      dup4\n      keccak256\n      swap2\n      and\n      dup3\n      mstore\n      dup5\n      mstore\n      keccak256\n      sload\n      swap1\n      mload\n      swap1\n      dup2\n      mstore\n      return\n    tag_78:\n      pop\n      dup1\n      revert\n    tag_70:\n      jumpi(tag_78, callvalue)\n      jumpi(tag_78, slt(add(not(0x03), calldatasize), 0x20))\n      0x20\n      swap1\n      tag_86\n      tag_87\n      tag_3\n      jump\t// in\n    tag_87:\n      sub(shl(0xa0, 0x01), 0x01)\n      and\n        /* \"@openzeppelin/contracts/token/ERC20/ERC20.sol\":3390:3399  _balances */\n      0x00\n        /* \"contracts/contracts/protocol/TuliaVault.sol\":390:557  contract TuliaVault is ERC4626 {... */\n      swap1\n      dup2\n      mstore\n      0x20\n      dup2\n      swap1\n      mstore\n      0x40\n      swap1\n      keccak256\n      sload\n      swap1\n        /* \"@openzeppelin/contracts/token/ERC20/ERC20.sol\":3299:3415  function balanceOf(address account) public view virtual returns (uint256) {... */\n      jump\n        /* \"contracts/contracts/protocol/TuliaVault.sol\":390:557  contract TuliaVault is ERC4626 {... */\n    tag_86:\n      swap1\n      mload\n      swap1\n      dup2\n      mstore\n      return\n    tag_68:\n      jumpi(tag_78, callvalue)\n      jumpi(tag_78, slt(add(not(0x03), calldatasize), 0x20))\n      0x20\n      swap2\n        /* \"@openzeppelin/contracts/token/ERC20/extensions/ERC4626.sol\":6749:6804  _convertToAssets(balanceOf(owner), Math.Rounding.Floor) */\n      tag_86\n      swap1\n        /* \"contracts/contracts/protocol/TuliaVault.sol\":390:557  contract TuliaVault is ERC4626 {... */\n      dup3\n      swap1\n      sub(shl(0xa0, 0x01), 0x01)\n      tag_93\n      tag_3\n      jump\t// in\n    tag_93:\n      and\n      dup2\n      mstore\n      dup1\n      dup6\n      mstore\n      keccak256\n      sload\n        /* \"@openzeppelin/contracts/token/ERC20/extensions/ERC4626.sol\":6749:6804  _convertToAssets(balanceOf(owner), Math.Rounding.Floor) */\n      tag_17\n      jump\t// in\n        /* \"contracts/contracts/protocol/TuliaVault.sol\":390:557  contract TuliaVault is ERC4626 {... */\n    tag_64:\n      tag_5\n      jump\t// in\n    tag_62:\n      dup3\n      jumpi(tag_94, callvalue)\n      dup3\n      swap1\n      tag_96\n      calldatasize\n      tag_6\n      jump\t// in\n    tag_96:\n      sub(shl(0xa0, 0x01), 0x01)\n      dup2\n      and\n      dup5\n      mstore\n      0x20\n      dup5\n      swap1\n      mstore\n      swap6\n      swap1\n      swap3\n      keccak256\n      sload\n      swap1\n      swap5\n      swap4\n      swap1\n        /* \"@openzeppelin/contracts/token/ERC20/extensions/ERC4626.sol\":9511:9529  shares > maxShares */\n      dup1\n      dup7\n      gt\n        /* \"@openzeppelin/contracts/token/ERC20/extensions/ERC4626.sol\":9507:9613  if (shares > maxShares) {... */\n      tag_97\n      jumpi\n        /* \"@openzeppelin/contracts/token/ERC20/extensions/ERC4626.sol\":6248:6293  _convertToAssets(shares, Math.Rounding.Floor) */\n      pop\n      pop\n      dup4\n        /* \"@openzeppelin/contracts/token/ERC20/extensions/ERC4626.sol\":9720:9726  shares */\n      tag_99\n        /* \"@openzeppelin/contracts/token/ERC20/extensions/ERC4626.sol\":6248:6293  _convertToAssets(shares, Math.Rounding.Floor) */\n      swap2\n      tag_100\n        /* \"contracts/contracts/protocol/TuliaVault.sol\":390:557  contract TuliaVault is ERC4626 {... */\n      0x20\n        /* \"@openzeppelin/contracts/token/ERC20/extensions/ERC4626.sol\":6248:6293  _convertToAssets(shares, Math.Rounding.Floor) */\n      swap7\n      tag_17\n      jump\t// in\n    tag_100:\n        /* \"@openzeppelin/contracts/utils/Context.sol\":735:745  msg.sender */\n      swap5\n      dup6\n      swap2\n      caller\n        /* \"@openzeppelin/contracts/token/ERC20/extensions/ERC4626.sol\":9720:9726  shares */\n      tag_19\n      jump\t// in\n    tag_99:\n        /* \"contracts/contracts/protocol/TuliaVault.sol\":390:557  contract TuliaVault is ERC4626 {... */\n      mload\n      swap1\n      dup2\n      mstore\n      return\n        /* \"@openzeppelin/contracts/token/ERC20/extensions/ERC4626.sol\":9507:9613  if (shares > maxShares) {... */\n    tag_97:\n        /* \"contracts/contracts/protocol/TuliaVault.sol\":390:557  contract TuliaVault is ERC4626 {... */\n      swap3\n      mload\n      shl(0xe2, 0x2e52afbb)\n        /* \"@openzeppelin/contracts/token/ERC20/extensions/ERC4626.sol\":9552:9602  ERC4626ExceededMaxRedeem(owner, shares, maxShares) */\n      dup2\n      mstore\n      sub(shl(0xa0, 0x01), 0x01)\n        /* \"contracts/contracts/protocol/TuliaVault.sol\":390:557  contract TuliaVault is ERC4626 {... */\n      swap1\n      swap5\n      and\n        /* \"@openzeppelin/contracts/token/ERC20/extensions/ERC4626.sol\":9552:9602  ERC4626ExceededMaxRedeem(owner, shares, maxShares) */\n      swap1\n      dup5\n      add\n        /* \"contracts/contracts/protocol/TuliaVault.sol\":390:557  contract TuliaVault is ERC4626 {... */\n      swap1\n      dup2\n      mstore\n      0x20\n      dup2\n      add\n      swap5\n      swap1\n      swap5\n      mstore\n      pop\n      0x40\n      dup4\n      add\n      mstore\n      swap1\n      dup2\n      swap1\n      0x60\n      add\n        /* \"@openzeppelin/contracts/token/ERC20/extensions/ERC4626.sol\":9552:9602  ERC4626ExceededMaxRedeem(owner, shares, maxShares) */\n      sub\n      swap1\n      revert\n        /* \"contracts/contracts/protocol/TuliaVault.sol\":390:557  contract TuliaVault is ERC4626 {... */\n    tag_94:\n      dup1\n      revert\n    tag_60:\n      dup3\n      swap1\n      jumpi(tag_78, callvalue)\n        /* \"@openzeppelin/contracts/token/ERC20/extensions/ERC4626.sol\":6749:6804  _convertToAssets(balanceOf(owner), Math.Rounding.Floor) */\n      tag_104\n        /* \"contracts/contracts/protocol/TuliaVault.sol\":390:557  contract TuliaVault is ERC4626 {... */\n      swap2\n      dup4\n      swap2\n      tag_105\n      calldatasize\n      tag_6\n      jump\t// in\n    tag_105:\n      sub(shl(0xa0, 0x01), 0x01)\n      dup2\n      and\n      dup6\n      mstore\n      0x20\n      dup6\n      swap1\n      mstore\n      swap7\n      swap1\n      swap4\n      keccak256\n      sload\n      swap1\n      swap6\n      swap5\n      swap1\n        /* \"@openzeppelin/contracts/token/ERC20/extensions/ERC4626.sol\":6749:6804  _convertToAssets(balanceOf(owner), Math.Rounding.Floor) */\n      tag_17\n      jump\t// in\n    tag_104:\n        /* \"@openzeppelin/contracts/token/ERC20/extensions/ERC4626.sol\":9057:9075  assets > maxAssets */\n      dup1\n      dup7\n      gt\n        /* \"@openzeppelin/contracts/token/ERC20/extensions/ERC4626.sol\":9053:9161  if (assets > maxAssets) {... */\n      tag_106\n      jumpi\n        /* \"@openzeppelin/contracts/token/ERC20/extensions/ERC4626.sol\":7514:7558  _convertToShares(assets, Math.Rounding.Ceil) */\n      pop\n      pop\n        /* \"@openzeppelin/contracts/token/ERC20/extensions/ERC4626.sol\":9270:9276  shares */\n      tag_99\n        /* \"@openzeppelin/contracts/token/ERC20/extensions/ERC4626.sol\":7514:7558  _convertToShares(assets, Math.Rounding.Ceil) */\n      swap1\n      dup5\n      tag_109\n        /* \"contracts/contracts/protocol/TuliaVault.sol\":390:557  contract TuliaVault is ERC4626 {... */\n      0x20\n        /* \"@openzeppelin/contracts/token/ERC20/extensions/ERC4626.sol\":7514:7558  _convertToShares(assets, Math.Rounding.Ceil) */\n      swap7\n      tag_14\n      jump\t// in\n    tag_109:\n        /* \"@openzeppelin/contracts/utils/Context.sol\":735:745  msg.sender */\n      swap5\n      dup6\n      swap3\n      caller\n        /* \"@openzeppelin/contracts/token/ERC20/extensions/ERC4626.sol\":9270:9276  shares */\n      tag_19\n      jump\t// in\n        /* \"@openzeppelin/contracts/token/ERC20/extensions/ERC4626.sol\":9053:9161  if (assets > maxAssets) {... */\n    tag_106:\n        /* \"contracts/contracts/protocol/TuliaVault.sol\":390:557  contract TuliaVault is ERC4626 {... */\n      swap3\n      mload\n      shl(0xe2, 0x3fa733bb)\n        /* \"@openzeppelin/contracts/token/ERC20/extensions/ERC4626.sol\":9098:9150  ERC4626ExceededMaxWithdraw(owner, assets, maxAssets) */\n      dup2\n      mstore\n      sub(shl(0xa0, 0x01), 0x01)\n        /* \"contracts/contracts/protocol/TuliaVault.sol\":390:557  contract TuliaVault is ERC4626 {... */\n      swap1\n      swap5\n      and\n        /* \"@openzeppelin/contracts/token/ERC20/extensions/ERC4626.sol\":9098:9150  ERC4626ExceededMaxWithdraw(owner, assets, maxAssets) */\n      swap1\n      dup5\n      add\n        /* \"contracts/contracts/protocol/TuliaVault.sol\":390:557  contract TuliaVault is ERC4626 {... */\n      swap1\n      dup2\n      mstore\n      0x20\n      dup2\n      add\n      swap5\n      swap1\n      swap5\n      mstore\n      pop\n      0x40\n      dup4\n      add\n      mstore\n      swap1\n      dup2\n      swap1\n      0x60\n      add\n        /* \"@openzeppelin/contracts/token/ERC20/extensions/ERC4626.sol\":9552:9602  ERC4626ExceededMaxRedeem(owner, shares, maxShares) */\n      sub\n      swap1\n      revert\n        /* \"contracts/contracts/protocol/TuliaVault.sol\":390:557  contract TuliaVault is ERC4626 {... */\n    tag_58:\n      swap2\n      jumpi(tag_94, callvalue)\n      jumpi(tag_94, slt(add(not(0x03), calldatasize), 0x20))\n      pop\n        /* \"@openzeppelin/contracts/token/ERC20/extensions/ERC4626.sol\":7313:7357  _convertToAssets(shares, Math.Rounding.Ceil) */\n      tag_86\n        /* \"contracts/contracts/protocol/TuliaVault.sol\":390:557  contract TuliaVault is ERC4626 {... */\n      0x20\n      swap3\n      calldataload\n        /* \"@openzeppelin/contracts/token/ERC20/extensions/ERC4626.sol\":7313:7357  _convertToAssets(shares, Math.Rounding.Ceil) */\n      tag_16\n      jump\t// in\n        /* \"contracts/contracts/protocol/TuliaVault.sol\":390:557  contract TuliaVault is ERC4626 {... */\n    tag_56:\n      pop\n      jumpi(tag_78, callvalue)\n      dup1\n      add(calldatasize, not(0x03))\n      slt\n      tag_78\n      jumpi\n      0x20\n      swap1\n        /* \"@openzeppelin/contracts/token/ERC20/ERC20.sol\":3754:3759  value */\n      tag_120\n        /* \"contracts/contracts/protocol/TuliaVault.sol\":390:557  contract TuliaVault is ERC4626 {... */\n      tag_121\n      tag_3\n      jump\t// in\n    tag_121:\n      calldataload(0x24)\n        /* \"@openzeppelin/contracts/utils/Context.sol\":735:745  msg.sender */\n      swap1\n      caller\n        /* \"@openzeppelin/contracts/token/ERC20/ERC20.sol\":3754:3759  value */\n      tag_10\n      jump\t// in\n    tag_120:\n        /* \"contracts/contracts/protocol/TuliaVault.sol\":390:557  contract TuliaVault is ERC4626 {... */\n      mload\n      0x01\n      dup2\n      mstore\n      return\n    tag_54:\n      swap3\n      pop\n      jumpi(tag_78, callvalue)\n      dup2\n      add(calldatasize, not(0x03))\n      slt\n      tag_78\n      jumpi\n      dup1\n      mload\n      swap2\n      dup1\n      swap4\n      dup1\n      sload\n      swap2\n      0x01\n      swap1\n      dup4\n      dup3\n      shr\n      swap3\n      dup3\n      dup6\n      and\n      swap5\n      dup6\n      iszero\n      tag_126\n      jumpi\n    tag_127:\n      0x20\n      swap6\n      dup7\n      dup7\n      lt\n      dup2\n      eq\n      tag_128\n      jumpi\n      dup6\n      dup10\n      mstore\n      swap1\n      dup2\n      iszero\n      tag_130\n      jumpi\n      pop\n      0x01\n      eq\n      tag_132\n      jumpi\n    tag_133:\n      tag_134\n      dup8\n      dup8\n      tag_135\n      dup3\n      dup13\n      sub\n      dup4\n      tag_8\n      jump\t// in\n    tag_135:\n      mload\n      swap2\n      dup3\n      swap2\n      dup3\n      tag_1\n      jump\t// in\n    tag_134:\n      sub\n      swap1\n      return\n    tag_132:\n      dup2\n      mstore\n      swap3\n      swap6\n      pop\n      0x8a35acfbc15ff81a39ae7d344fd709f28e8600b4aa8c65c6b64bfe7fe36bd19b\n    tag_136:\n      dup3\n      dup5\n      lt\n      tag_137\n      jumpi\n      pop\n      pop\n      pop\n      dup3\n      tag_134\n      swap5\n      tag_135\n      swap3\n      dup3\n      add\n      add\n      swap5\n      0x00\n      dup1\n      jump(tag_133)\n    tag_137:\n      dup1\n      sload\n      dup7\n      dup6\n      add\n      dup9\n      add\n      mstore\n      swap3\n      dup7\n      add\n      swap3\n      dup2\n      add\n      jump(tag_136)\n    tag_130:\n      not(0xff)\n      and\n      dup9\n      dup8\n      add\n      mstore\n      pop\n      pop\n      pop\n      pop\n      iszero\n      iszero\n      0x05\n      shl\n      dup4\n      add\n      add\n      swap3\n      pop\n      tag_135\n      dup3\n      tag_134\n      0x00\n      dup1\n      jump(tag_133)\n    tag_128:\n      shl(0xe0, 0x4e487b71)\n      dup5\n      mstore\n      0x22\n      dup4\n      mstore\n      0x24\n      dup5\n      revert\n    tag_126:\n      swap4\n      0x7f\n      and\n      swap4\n      jump(tag_127)\n    tag_52:\n      jumpi(tag_141, callvalue)\n      dup2\n      add(calldatasize, not(0x03))\n      slt\n      tag_141\n      jumpi\n      0x20\n      swap3\n      pop\n      calldataload\n      swap1\n        /* \"@openzeppelin/contracts/token/ERC20/extensions/ERC4626.sol\":8810:8816  shares */\n      tag_99\n        /* \"contracts/contracts/protocol/TuliaVault.sol\":390:557  contract TuliaVault is ERC4626 {... */\n      tag_144\n      tag_4\n      jump\t// in\n    tag_144:\n        /* \"@openzeppelin/contracts/token/ERC20/extensions/ERC4626.sol\":7313:7357  _convertToAssets(shares, Math.Rounding.Ceil) */\n      swap3\n      tag_145\n      dup2\n      tag_16\n      jump\t// in\n    tag_145:\n        /* \"@openzeppelin/contracts/utils/Context.sol\":735:745  msg.sender */\n      dup1\n      swap5\n      caller\n        /* \"@openzeppelin/contracts/token/ERC20/extensions/ERC4626.sol\":8810:8816  shares */\n      tag_18\n      jump\t// in\n        /* \"contracts/contracts/protocol/TuliaVault.sol\":390:557  contract TuliaVault is ERC4626 {... */\n    tag_141:\n      dup3\n      dup1\n      revert\n    tag_50:\n      pop\n      jumpi(tag_78, callvalue)\n      jumpi(tag_78, slt(add(not(0x03), calldatasize), 0x20))\n      0x20\n      swap1\n      tag_86\n      tag_87\n      tag_3\n      jump\t// in\n    tag_48:\n      jumpi(tag_141, callvalue)\n      dup2\n      add(calldatasize, not(0x03))\n      slt\n      tag_141\n      jumpi\n      0x20\n      swap3\n      pop\n      calldataload\n      swap1\n        /* \"@openzeppelin/contracts/token/ERC20/extensions/ERC4626.sol\":8163:8169  shares */\n      tag_99\n        /* \"contracts/contracts/protocol/TuliaVault.sol\":390:557  contract TuliaVault is ERC4626 {... */\n      tag_157\n      tag_4\n      jump\t// in\n    tag_157:\n        /* \"@openzeppelin/contracts/token/ERC20/extensions/ERC4626.sol\":6046:6091  _convertToShares(assets, Math.Rounding.Floor) */\n      tag_158\n      dup5\n      tag_15\n      jump\t// in\n    tag_158:\n        /* \"@openzeppelin/contracts/utils/Context.sol\":735:745  msg.sender */\n      swap4\n      dup5\n      swap2\n      caller\n        /* \"@openzeppelin/contracts/token/ERC20/extensions/ERC4626.sol\":8163:8169  shares */\n      tag_18\n      jump\t// in\n        /* \"contracts/contracts/protocol/TuliaVault.sol\":390:557  contract TuliaVault is ERC4626 {... */\n    tag_46:\n      tag_2\n      jump\t// in\n    tag_42:\n      pop\n      jumpi(tag_78, callvalue)\n      dup2\n      add(calldatasize, not(0x03))\n      slt\n      tag_78\n      jumpi\n      mload\n        /* \"@openzeppelin/contracts/token/ERC20/extensions/ERC4626.sol\":5716:5722  _asset */\n      immutable(\"0x57d03f72a618a841c753598d7d2cbcbbd5f43a73c69f9abc886bd29cf4101ea1\")\n      sub(shl(0xa0, 0x01), 0x01)\n        /* \"contracts/contracts/protocol/TuliaVault.sol\":390:557  contract TuliaVault is ERC4626 {... */\n      and\n      dup2\n      mstore\n      0x20\n      swap1\n      return\n    tag_40:\n      swap3\n      pop\n      jumpi(tag_78, callvalue)\n      dup2\n      add(calldatasize, not(0x03))\n      slt\n      tag_78\n      jumpi\n      0xff\n        /* \"@openzeppelin/contracts/token/ERC20/extensions/ERC4626.sol\":5546:5565  _underlyingDecimals */\n      immutable(\"0xc0bf3ddb79e7c5faf09af1eaa09640fae848e430edf7a04658ec05be9ade7aab\")\n        /* \"contracts/contracts/protocol/TuliaVault.sol\":390:557  contract TuliaVault is ERC4626 {... */\n      and\n      swap2\n      0xff\n      dup4\n      gt\n      tag_167\n      jumpi\n      0x20\n      dup4\n      dup4\n      mload\n      swap1\n      dup2\n      mstore\n      return\n    tag_167:\n      shl(0xe0, 0x4e487b71)\n      dup2\n      mstore\n      0x11\n      dup5\n      mstore\n      0x24\n      swap1\n      revert\n    tag_38:\n      pop\n      jumpi(tag_78, callvalue)\n      jumpi(tag_78, slt(add(not(0x03), calldatasize), 0x60))\n      0x20\n      swap1\n        /* \"@openzeppelin/contracts/token/ERC20/ERC20.sol\":5249:5254  value */\n      tag_120\n        /* \"contracts/contracts/protocol/TuliaVault.sol\":390:557  contract TuliaVault is ERC4626 {... */\n      tag_174\n      tag_3\n      jump\t// in\n    tag_174:\n      tag_175\n      tag_4\n      jump\t// in\n    tag_175:\n      calldataload(0x44)\n        /* \"@openzeppelin/contracts/utils/Context.sol\":735:745  msg.sender */\n      swap2\n        /* \"@openzeppelin/contracts/token/ERC20/ERC20.sol\":5213:5218  value */\n      tag_176\n        /* \"@openzeppelin/contracts/utils/Context.sol\":735:745  msg.sender */\n      dup4\n      caller\n        /* \"@openzeppelin/contracts/token/ERC20/ERC20.sol\":5213:5218  value */\n      dup4\n      tag_12\n      jump\t// in\n    tag_176:\n        /* \"@openzeppelin/contracts/token/ERC20/ERC20.sol\":5249:5254  value */\n      tag_10\n      jump\t// in\n        /* \"contracts/contracts/protocol/TuliaVault.sol\":390:557  contract TuliaVault is ERC4626 {... */\n    tag_36:\n      pop\n      jumpi(tag_78, callvalue)\n      dup2\n      add(calldatasize, not(0x03))\n      slt\n      tag_78\n      jumpi\n      0x20\n      swap1\n        /* \"@openzeppelin/contracts/token/ERC20/ERC20.sol\":3222:3234  _totalSupply */\n      0x02\n        /* \"contracts/contracts/protocol/TuliaVault.sol\":390:557  contract TuliaVault is ERC4626 {... */\n      sload\n      swap1\n      mload\n      swap1\n      dup2\n      mstore\n      return\n    tag_34:\n      swap2\n      jumpi(tag_94, callvalue)\n      jumpi(tag_94, slt(add(not(0x03), calldatasize), 0x20))\n      pop\n        /* \"@openzeppelin/contracts/token/ERC20/extensions/ERC4626.sol\":7514:7558  _convertToShares(assets, Math.Rounding.Ceil) */\n      tag_86\n        /* \"contracts/contracts/protocol/TuliaVault.sol\":390:557  contract TuliaVault is ERC4626 {... */\n      0x20\n      swap3\n      calldataload\n        /* \"@openzeppelin/contracts/token/ERC20/extensions/ERC4626.sol\":7514:7558  _convertToShares(assets, Math.Rounding.Ceil) */\n      tag_14\n      jump\t// in\n        /* \"contracts/contracts/protocol/TuliaVault.sol\":390:557  contract TuliaVault is ERC4626 {... */\n    tag_32:\n      jumpi(tag_141, callvalue)\n      dup2\n      add(calldatasize, not(0x03))\n      slt\n      tag_141\n      jumpi\n      tag_190\n      tag_3\n      jump\t// in\n    tag_190:\n      calldataload(0x24)\n        /* \"@openzeppelin/contracts/utils/Context.sol\":735:745  msg.sender */\n      swap1\n      caller\n        /* \"@openzeppelin/contracts/token/ERC20/ERC20.sol\":10061:10080  owner == address(0) */\n      iszero\n        /* \"@openzeppelin/contracts/token/ERC20/ERC20.sol\":10057:10146  if (owner == address(0)) {... */\n      tag_191\n      jumpi\n      sub(shl(0xa0, 0x01), 0x01)\n        /* \"contracts/contracts/protocol/TuliaVault.sol\":390:557  contract TuliaVault is ERC4626 {... */\n      and\n      swap2\n        /* \"@openzeppelin/contracts/token/ERC20/ERC20.sol\":10159:10180  spender == address(0) */\n      dup3\n      iszero\n        /* \"@openzeppelin/contracts/token/ERC20/ERC20.sol\":10155:10245  if (spender == address(0)) {... */\n      tag_193\n      jumpi\n        /* \"@openzeppelin/contracts/utils/Context.sol\":735:745  msg.sender */\n      pop\n      dup1\n      dup4\n        /* \"contracts/contracts/protocol/TuliaVault.sol\":390:557  contract TuliaVault is ERC4626 {... */\n      0x20\n        /* \"@openzeppelin/contracts/utils/Context.sol\":735:745  msg.sender */\n      swap6\n      caller\n        /* \"contracts/contracts/protocol/TuliaVault.sol\":390:557  contract TuliaVault is ERC4626 {... */\n      dup2\n      mstore\n      0x01\n      dup8\n      mstore\n      dup2\n      dup2\n      keccak256\n      dup6\n      dup3\n      mstore\n      dup8\n      mstore\n      keccak256\n      sstore\n      dup3\n      mload\n      swap1\n      dup2\n      mstore\n        /* \"@openzeppelin/contracts/token/ERC20/ERC20.sol\":10333:10364  Approval(owner, spender, value) */\n      0x8c5be1e5ebec7d5bd14f71427d1e84f3dd0314c0f7b2291e5b200ac8c7c3b925\n        /* \"@openzeppelin/contracts/utils/Context.sol\":735:745  msg.sender */\n      dup5\n      caller\n        /* \"@openzeppelin/contracts/token/ERC20/ERC20.sol\":10333:10364  Approval(owner, spender, value) */\n      swap3\n      log3\n        /* \"contracts/contracts/protocol/TuliaVault.sol\":390:557  contract TuliaVault is ERC4626 {... */\n      mload\n      0x01\n      dup2\n      mstore\n      return\n        /* \"@openzeppelin/contracts/token/ERC20/ERC20.sol\":10155:10245  if (spender == address(0)) {... */\n    tag_193:\n        /* \"contracts/contracts/protocol/TuliaVault.sol\":390:557  contract TuliaVault is ERC4626 {... */\n      dup4\n      mload\n      shl(0xe1, 0x4a1406b1)\n        /* \"@openzeppelin/contracts/token/ERC20/ERC20.sol\":10203:10234  ERC20InvalidSpender(address(0)) */\n      dup2\n      mstore\n      swap1\n      dup2\n      add\n        /* \"contracts/contracts/protocol/TuliaVault.sol\":390:557  contract TuliaVault is ERC4626 {... */\n      dup6\n      swap1\n      mstore\n      0x24\n      swap1\n        /* \"@openzeppelin/contracts/token/ERC20/ERC20.sol\":10203:10234  ERC20InvalidSpender(address(0)) */\n      revert\n        /* \"@openzeppelin/contracts/token/ERC20/ERC20.sol\":10057:10146  if (owner == address(0)) {... */\n    tag_191:\n        /* \"contracts/contracts/protocol/TuliaVault.sol\":390:557  contract TuliaVault is ERC4626 {... */\n      dup4\n      mload\n      shl(0xe0, 0xe602df05)\n        /* \"@openzeppelin/contracts/token/ERC20/ERC20.sol\":10103:10135  ERC20InvalidApprover(address(0)) */\n      dup2\n      mstore\n      dup1\n      dup5\n      add\n        /* \"contracts/contracts/protocol/TuliaVault.sol\":390:557  contract TuliaVault is ERC4626 {... */\n      dup7\n      swap1\n      mstore\n      0x24\n      swap1\n        /* \"@openzeppelin/contracts/token/ERC20/ERC20.sol\":10103:10135  ERC20InvalidApprover(address(0)) */\n      revert\n        /* \"contracts/contracts/protocol/TuliaVault.sol\":390:557  contract TuliaVault is ERC4626 {... */\n    tag_28:\n      swap1\n      jumpi(tag_141, callvalue)\n      dup3\n      add(calldatasize, not(0x03))\n      slt\n      tag_141\n      jumpi\n      dup1\n      mload\n      swap2\n      dup4\n      sload(0x03)\n      swap1\n      0x01\n      swap1\n      dup3\n      dup3\n      shr\n      swap3\n      dup3\n      dup2\n      and\n      dup1\n      iszero\n      tag_199\n      jumpi\n    tag_200:\n      0x20\n      swap6\n      dup7\n      dup7\n      lt\n      dup3\n      eq\n      tag_201\n      jumpi\n      pop\n      dup5\n      dup9\n      mstore\n      swap1\n      dup2\n      iszero\n      tag_203\n      jumpi\n      pop\n      0x01\n      eq\n      tag_205\n      jumpi\n    tag_206:\n      tag_134\n      dup7\n      dup7\n      tag_135\n      dup3\n      dup12\n      sub\n      dup4\n      tag_8\n      jump\t// in\n    tag_205:\n      swap3\n      swap6\n      pop\n      0x03\n      dup4\n      mstore\n      0xc2575a0e9e593c00f959f8c92f12db2869c3395a3b0502d05e2516446f71f85b\n    tag_209:\n      dup3\n      dup5\n      lt\n      tag_210\n      jumpi\n      pop\n      pop\n      pop\n      dup3\n      tag_134\n      swap5\n      tag_135\n      swap3\n      dup3\n      add\n      add\n      swap5\n      dup7\n      jump(tag_206)\n    tag_210:\n      dup1\n      sload\n      dup7\n      dup6\n      add\n      dup9\n      add\n      mstore\n      swap3\n      dup7\n      add\n      swap3\n      dup2\n      add\n      jump(tag_209)\n    tag_203:\n      not(0xff)\n      and\n      dup8\n      dup7\n      add\n      mstore\n      pop\n      pop\n      pop\n      iszero\n      iszero\n      0x05\n      shl\n      dup4\n      add\n      add\n      swap3\n      pop\n      tag_135\n      dup3\n      tag_134\n      dup7\n      jump(tag_206)\n    tag_201:\n      shl(0xe0, 0x4e487b71)\n      dup5\n      mstore\n      0x22\n      swap1\n      mstore\n      0x24\n      dup4\n      revert\n    tag_199:\n      swap4\n      0x7f\n      and\n      swap4\n      jump(tag_200)\n    tag_26:\n      pop\n      jumpi(tag_78, callvalue)\n      dup2\n      add(calldatasize, not(0x03))\n      slt\n      tag_78\n      jumpi\n      0x20\n      swap1\n      tag_86\n      tag_13\n      jump\t// in\n    tag_1:\n      0x20\n      dup1\n      dup3\n      mstore\n      dup3\n      mload\n      dup2\n      dup4\n      add\n      dup2\n      swap1\n      mstore\n      swap1\n      swap4\n      swap3\n      0x00\n    tag_217:\n      dup3\n      dup2\n      lt\n      tag_218\n      jumpi\n      pop\n      pop\n      0x40\n      swap3\n      swap4\n      pop\n      0x00\n      dup4\n      dup3\n      dup5\n      add\n      add\n      mstore\n      0x1f\n      dup1\n      not\n      swap2\n      add\n      and\n      add\n      add\n      swap1\n      jump\t// out\n    tag_218:\n      dup2\n      dup2\n      add\n      dup7\n      add\n      mload\n      dup5\n      dup3\n      add\n      0x40\n      add\n      mstore\n      dup6\n      add\n      jump(tag_217)\n    tag_2:\n      jumpi(tag_222, callvalue)\n      jumpi(tag_222, slt(add(not(0x03), calldatasize), 0x20))\n      0x20\n        /* \"@openzeppelin/contracts/token/ERC20/extensions/ERC4626.sol\":6248:6293  _convertToAssets(shares, Math.Rounding.Floor) */\n      tag_224\n        /* \"contracts/contracts/protocol/TuliaVault.sol\":390:557  contract TuliaVault is ERC4626 {... */\n      calldataload(0x04)\n        /* \"@openzeppelin/contracts/token/ERC20/extensions/ERC4626.sol\":6248:6293  _convertToAssets(shares, Math.Rounding.Floor) */\n      tag_17\n      jump\t// in\n    tag_224:\n        /* \"contracts/contracts/protocol/TuliaVault.sol\":390:557  contract TuliaVault is ERC4626 {... */\n      mload(0x40)\n      swap1\n      dup2\n      mstore\n      return\n    tag_222:\n      0x00\n      dup1\n      revert\n    tag_3:\n      calldataload(0x04)\n      swap1\n      sub(shl(0xa0, 0x01), 0x01)\n      dup3\n      and\n      dup3\n      sub\n      tag_222\n      jumpi\n      jump\t// out\n    tag_4:\n      calldataload(0x24)\n      swap1\n      sub(shl(0xa0, 0x01), 0x01)\n      dup3\n      and\n      dup3\n      sub\n      tag_222\n      jumpi\n      jump\t// out\n    tag_5:\n      jumpi(tag_222, callvalue)\n      jumpi(tag_222, slt(add(not(0x03), calldatasize), 0x20))\n      tag_233\n      tag_3\n      jump\t// in\n    tag_233:\n      pop\n      0x20\n      mload(0x40)\n        /* \"@openzeppelin/contracts/token/ERC20/extensions/ERC4626.sol\":6433:6450  type(uint256).max */\n      not(0x00)\n        /* \"contracts/contracts/protocol/TuliaVault.sol\":390:557  contract TuliaVault is ERC4626 {... */\n      dup2\n      mstore\n      return\n    tag_6:\n      0x60\n      swap1\n      not(0x03)\n      add\n      slt\n      tag_222\n      jumpi\n      calldataload(0x04)\n      swap1\n      sub(shl(0xa0, 0x01), 0x01)\n      swap1\n      calldataload(0x24)\n      dup3\n      dup2\n      and\n      dup2\n      sub\n      tag_222\n      jumpi\n      swap2\n      calldataload(0x44)\n      swap1\n      dup2\n      and\n      dup2\n      sub\n      tag_222\n      jumpi\n      swap1\n      jump\t// out\n    tag_7:\n      jumpi(tag_222, callvalue)\n      jumpi(tag_222, slt(add(not(0x03), calldatasize), 0x20))\n      0x20\n        /* \"@openzeppelin/contracts/token/ERC20/extensions/ERC4626.sol\":6046:6091  _convertToShares(assets, Math.Rounding.Floor) */\n      tag_224\n        /* \"contracts/contracts/protocol/TuliaVault.sol\":390:557  contract TuliaVault is ERC4626 {... */\n      calldataload(0x04)\n        /* \"@openzeppelin/contracts/token/ERC20/extensions/ERC4626.sol\":6046:6091  _convertToShares(assets, Math.Rounding.Floor) */\n      tag_15\n      jump\t// in\n        /* \"contracts/contracts/protocol/TuliaVault.sol\":390:557  contract TuliaVault is ERC4626 {... */\n    tag_8:\n      swap1\n      0x1f\n      dup1\n      not\n      swap2\n      add\n      and\n      dup2\n      add\n      swap1\n      dup2\n      lt\n      0xffffffffffffffff\n      dup3\n      gt\n      or\n      tag_245\n      jumpi\n      0x40\n      mstore\n      jump\t// out\n    tag_245:\n      mstore(0x00, shl(0xe0, 0x4e487b71))\n      mstore(0x04, 0x41)\n      revert(0x00, 0x24)\n        /* \"@openzeppelin/contracts/token/ERC20/ERC20.sol\":5656:5956  function _transfer(address from, address to, uint256 value) internal {... */\n    tag_10:\n      swap2\n      sub(shl(0xa0, 0x01), 0x01)\n        /* \"contracts/contracts/protocol/TuliaVault.sol\":390:557  contract TuliaVault is ERC4626 {... */\n      dup1\n      dup5\n      and\n      swap3\n        /* \"@openzeppelin/contracts/token/ERC20/ERC20.sol\":5739:5757  from == address(0) */\n      dup4\n      iszero\n        /* \"@openzeppelin/contracts/token/ERC20/ERC20.sol\":5735:5821  if (from == address(0)) {... */\n      tag_247\n      jumpi\n        /* \"contracts/contracts/protocol/TuliaVault.sol\":390:557  contract TuliaVault is ERC4626 {... */\n      and\n        /* \"@openzeppelin/contracts/token/ERC20/ERC20.sol\":5834:5850  to == address(0) */\n      swap3\n      dup4\n      iszero\n        /* \"@openzeppelin/contracts/token/ERC20/ERC20.sol\":5830:5916  if (to == address(0)) {... */\n      tag_249\n      jumpi\n        /* \"@openzeppelin/contracts/token/ERC20/ERC20.sol\":6356:6896  if (from == address(0)) {... */\n      0x00\n        /* \"contracts/contracts/protocol/TuliaVault.sol\":390:557  contract TuliaVault is ERC4626 {... */\n      swap1\n      dup4\n      dup3\n      mstore\n      dup2\n      0x20\n      mstore\n      0x40\n      dup3\n      keccak256\n      sload\n        /* \"@openzeppelin/contracts/token/ERC20/ERC20.sol\":6603:6622  fromBalance < value */\n      swap1\n      dup4\n      dup3\n      lt\n        /* \"@openzeppelin/contracts/token/ERC20/ERC20.sol\":6599:6714  if (fromBalance < value) {... */\n      tag_251\n      jumpi\n        /* \"contracts/contracts/protocol/TuliaVault.sol\":390:557  contract TuliaVault is ERC4626 {... */\n      pop\n      swap2\n      0x40\n      dup3\n      dup3\n        /* \"@openzeppelin/contracts/token/ERC20/ERC20.sol\":7346:7371  Transfer(from, to, value) */\n      0xddf252ad1be2c89b69c2b068fc378daa952ba7f163c4a11628f55a4df523b3ef\n        /* \"contracts/contracts/protocol/TuliaVault.sol\":390:557  contract TuliaVault is ERC4626 {... */\n      swap6\n      dup8\n      0x20\n      swap7\n      mstore\n      dup3\n      dup7\n      mstore\n      sub\n      dup3\n      dup3\n      keccak256\n      sstore\n      dup7\n      dup2\n      mstore\n      keccak256\n      dup2\n      dup2\n      sload\n      add\n      swap1\n      sstore\n      mload(0x40)\n      swap1\n      dup2\n      mstore\n        /* \"@openzeppelin/contracts/token/ERC20/ERC20.sol\":7346:7371  Transfer(from, to, value) */\n      log3\n        /* \"@openzeppelin/contracts/token/ERC20/ERC20.sol\":5656:5956  function _transfer(address from, address to, uint256 value) internal {... */\n      jump\t// out\n        /* \"@openzeppelin/contracts/token/ERC20/ERC20.sol\":6599:6714  if (fromBalance < value) {... */\n    tag_251:\n        /* \"contracts/contracts/protocol/TuliaVault.sol\":390:557  contract TuliaVault is ERC4626 {... */\n      mload(0x40)\n      shl(0xe2, 0x391434e3)\n        /* \"@openzeppelin/contracts/token/ERC20/ERC20.sol\":6649:6699  ERC20InsufficientBalance(from, fromBalance, value) */\n      dup2\n      mstore\n      sub(shl(0xa0, 0x01), 0x01)\n        /* \"contracts/contracts/protocol/TuliaVault.sol\":390:557  contract TuliaVault is ERC4626 {... */\n      swap2\n      swap1\n      swap2\n      and\n        /* \"@openzeppelin/contracts/token/ERC20/ERC20.sol\":6649:6699  ERC20InsufficientBalance(from, fromBalance, value) */\n      0x04\n      dup3\n      add\n        /* \"contracts/contracts/protocol/TuliaVault.sol\":390:557  contract TuliaVault is ERC4626 {... */\n      mstore\n      0x24\n      dup2\n      add\n      swap2\n      swap1\n      swap2\n      mstore\n      0x44\n      dup2\n      add\n      dup4\n      swap1\n      mstore\n      0x64\n      swap1\n        /* \"@openzeppelin/contracts/token/ERC20/extensions/ERC4626.sol\":9552:9602  ERC4626ExceededMaxRedeem(owner, shares, maxShares) */\n      revert\n        /* \"@openzeppelin/contracts/token/ERC20/ERC20.sol\":5830:5916  if (to == address(0)) {... */\n    tag_249:\n        /* \"contracts/contracts/protocol/TuliaVault.sol\":390:557  contract TuliaVault is ERC4626 {... */\n      mload(0x40)\n      shl(0xe0, 0xec442f05)\n        /* \"@openzeppelin/contracts/token/ERC20/ERC20.sol\":5873:5905  ERC20InvalidReceiver(address(0)) */\n      dup2\n      mstore\n        /* \"@openzeppelin/contracts/token/ERC20/ERC20.sol\":5755:5756  0 */\n      0x00\n        /* \"@openzeppelin/contracts/token/ERC20/ERC20.sol\":5873:5905  ERC20InvalidReceiver(address(0)) */\n      0x04\n      dup3\n      add\n        /* \"contracts/contracts/protocol/TuliaVault.sol\":390:557  contract TuliaVault is ERC4626 {... */\n      mstore\n      0x24\n      swap1\n        /* \"@openzeppelin/contracts/token/ERC20/ERC20.sol\":5873:5905  ERC20InvalidReceiver(address(0)) */\n      revert\n        /* \"@openzeppelin/contracts/token/ERC20/ERC20.sol\":5735:5821  if (from == address(0)) {... */\n    tag_247:\n        /* \"contracts/contracts/protocol/TuliaVault.sol\":390:557  contract TuliaVault is ERC4626 {... */\n      mload(0x40)\n      shl(0xe1, 0x4b637e8f)\n        /* \"@openzeppelin/contracts/token/ERC20/ERC20.sol\":5780:5810  ERC20InvalidSender(address(0)) */\n      dup2\n      mstore\n        /* \"@openzeppelin/contracts/token/ERC20/ERC20.sol\":5755:5756  0 */\n      0x00\n        /* \"@openzeppelin/contracts/token/ERC20/ERC20.sol\":5780:5810  ERC20InvalidSender(address(0)) */\n      0x04\n      dup3\n      add\n        /* \"contracts/contracts/protocol/TuliaVault.sol\":390:557  contract TuliaVault is ERC4626 {... */\n      mstore\n      0x24\n      swap1\n        /* \"@openzeppelin/contracts/token/ERC20/ERC20.sol\":5780:5810  ERC20InvalidSender(address(0)) */\n      revert\n        /* \"@openzeppelin/contracts/token/ERC20/ERC20.sol\":10663:11140  function _spendAllowance(address owner, address spender, uint256 value) internal virtual {... */\n    tag_12:\n      swap2\n        /* \"contracts/contracts/protocol/TuliaVault.sol\":390:557  contract TuliaVault is ERC4626 {... */\n      0x01\n      dup1\n      0xa0\n      shl\n      sub\n      dup1\n      swap4\n      and\n      swap2\n      0x00\n      swap4\n      dup4\n      dup6\n      mstore\n      mstore(0x20, 0x01)\n      0x40\n      swap4\n      dup5\n      dup7\n      keccak256\n      swap2\n      dup4\n      and\n      swap2\n      dup3\n      dup8\n      mstore\n      0x20\n      mstore\n      dup5\n      dup7\n      keccak256\n      sload\n        /* \"@openzeppelin/contracts/token/ERC20/extensions/ERC4626.sol\":6433:6450  type(uint256).max */\n      swap3\n      not(0x00)\n        /* \"@openzeppelin/contracts/token/ERC20/ERC20.sol\":10828:10865  currentAllowance != type(uint256).max */\n      dup5\n      sub\n        /* \"@openzeppelin/contracts/token/ERC20/ERC20.sol\":10824:11134  if (currentAllowance != type(uint256).max) {... */\n      tag_254\n      jumpi\n        /* \"@openzeppelin/contracts/token/ERC20/ERC20.sol\":10663:11140  function _spendAllowance(address owner, address spender, uint256 value) internal virtual {... */\n    tag_255:\n      pop\n      pop\n      pop\n      pop\n      pop\n      pop\n      pop\n      jump\t// out\n        /* \"@openzeppelin/contracts/token/ERC20/ERC20.sol\":10824:11134  if (currentAllowance != type(uint256).max) {... */\n    tag_254:\n        /* \"@openzeppelin/contracts/token/ERC20/ERC20.sol\":10885:10909  currentAllowance < value */\n      dup5\n      dup5\n      lt\n        /* \"@openzeppelin/contracts/token/ERC20/ERC20.sol\":10881:11011  if (currentAllowance < value) {... */\n      tag_256\n      jumpi\n        /* \"@openzeppelin/contracts/token/ERC20/ERC20.sol\":10061:10080  owner == address(0) */\n      pop\n      dup1\n      iszero\n        /* \"@openzeppelin/contracts/token/ERC20/ERC20.sol\":10057:10146  if (owner == address(0)) {... */\n      tag_258\n      jumpi\n        /* \"@openzeppelin/contracts/token/ERC20/ERC20.sol\":10159:10180  spender == address(0) */\n      dup2\n      iszero\n        /* \"@openzeppelin/contracts/token/ERC20/ERC20.sol\":10155:10245  if (spender == address(0)) {... */\n      tag_260\n      jumpi\n        /* \"contracts/contracts/protocol/TuliaVault.sol\":390:557  contract TuliaVault is ERC4626 {... */\n      dup6\n      mstore\n      mstore(0x20, 0x01)\n      dup4\n      dup6\n      keccak256\n      swap1\n      dup6\n      mstore\n      0x20\n      mstore\n      sub\n      swap2\n      keccak256\n      sstore\n        /* \"@openzeppelin/contracts/token/ERC20/ERC20.sol\":10824:11134  if (currentAllowance != type(uint256).max) {... */\n      0x00\n      dup1\n      dup1\n      dup1\n      dup1\n      dup1\n      dup1\n      jump(tag_255)\n        /* \"@openzeppelin/contracts/token/ERC20/ERC20.sol\":10155:10245  if (spender == address(0)) {... */\n    tag_260:\n        /* \"contracts/contracts/protocol/TuliaVault.sol\":390:557  contract TuliaVault is ERC4626 {... */\n      dup5\n      mload\n      shl(0xe1, 0x4a1406b1)\n        /* \"@openzeppelin/contracts/token/ERC20/ERC20.sol\":10203:10234  ERC20InvalidSpender(address(0)) */\n      dup2\n      mstore\n      0x04\n      dup2\n      add\n        /* \"contracts/contracts/protocol/TuliaVault.sol\":390:557  contract TuliaVault is ERC4626 {... */\n      dup8\n      swap1\n      mstore\n      0x24\n      swap1\n        /* \"@openzeppelin/contracts/token/ERC20/ERC20.sol\":10203:10234  ERC20InvalidSpender(address(0)) */\n      revert\n        /* \"@openzeppelin/contracts/token/ERC20/ERC20.sol\":10057:10146  if (owner == address(0)) {... */\n    tag_258:\n        /* \"contracts/contracts/protocol/TuliaVault.sol\":390:557  contract TuliaVault is ERC4626 {... */\n      dup5\n      mload\n      shl(0xe0, 0xe602df05)\n        /* \"@openzeppelin/contracts/token/ERC20/ERC20.sol\":10103:10135  ERC20InvalidApprover(address(0)) */\n      dup2\n      mstore\n      0x04\n      dup2\n      add\n        /* \"contracts/contracts/protocol/TuliaVault.sol\":390:557  contract TuliaVault is ERC4626 {... */\n      dup8\n      swap1\n      mstore\n      0x24\n      swap1\n        /* \"@openzeppelin/contracts/token/ERC20/ERC20.sol\":10103:10135  ERC20InvalidApprover(address(0)) */\n      revert\n        /* \"@openzeppelin/contracts/token/ERC20/ERC20.sol\":10881:11011  if (currentAllowance < value) {... */\n    tag_256:\n        /* \"contracts/contracts/protocol/TuliaVault.sol\":390:557  contract TuliaVault is ERC4626 {... */\n      dup6\n      mload\n      shl(0xe1, 0x7dc7a0d9)\n        /* \"@openzeppelin/contracts/token/ERC20/ERC20.sol\":10936:10996  ERC20InsufficientAllowance(spender, currentAllowance, value) */\n      dup2\n      mstore\n      sub(shl(0xa0, 0x01), 0x01)\n        /* \"contracts/contracts/protocol/TuliaVault.sol\":390:557  contract TuliaVault is ERC4626 {... */\n      swap2\n      swap1\n      swap2\n      and\n        /* \"@openzeppelin/contracts/token/ERC20/ERC20.sol\":10936:10996  ERC20InsufficientAllowance(spender, currentAllowance, value) */\n      0x04\n      dup3\n      add\n        /* \"contracts/contracts/protocol/TuliaVault.sol\":390:557  contract TuliaVault is ERC4626 {... */\n      mstore\n      0x24\n      dup2\n      add\n      dup5\n      swap1\n      mstore\n      0x44\n      dup2\n      add\n      dup6\n      swap1\n      mstore\n      0x64\n      swap1\n        /* \"@openzeppelin/contracts/token/ERC20/extensions/ERC4626.sol\":9552:9602  ERC4626ExceededMaxRedeem(owner, shares, maxShares) */\n      revert\n        /* \"@openzeppelin/contracts/token/ERC20/extensions/ERC4626.sol\":5780:5896  function totalAssets() public view virtual returns (uint256) {... */\n    tag_13:\n        /* \"contracts/contracts/protocol/TuliaVault.sol\":390:557  contract TuliaVault is ERC4626 {... */\n      mload(0x40)\n      shl(0xe0, 0x70a08231)\n        /* \"@openzeppelin/contracts/token/ERC20/extensions/ERC4626.sol\":5858:5889  _asset.balanceOf(address(this)) */\n      dup2\n      mstore\n        /* \"@openzeppelin/contracts/token/ERC20/extensions/ERC4626.sol\":5883:5887  this */\n      address\n        /* \"@openzeppelin/contracts/token/ERC20/extensions/ERC4626.sol\":5858:5889  _asset.balanceOf(address(this)) */\n      0x04\n      dup3\n      add\n        /* \"contracts/contracts/protocol/TuliaVault.sol\":390:557  contract TuliaVault is ERC4626 {... */\n      mstore\n        /* \"@openzeppelin/contracts/token/ERC20/extensions/ERC4626.sol\":5858:5889  _asset.balanceOf(address(this)) */\n      0x20\n        /* \"contracts/contracts/protocol/TuliaVault.sol\":390:557  contract TuliaVault is ERC4626 {... */\n      dup2\n      0x24\n      dup2\n        /* \"@openzeppelin/contracts/token/ERC20/extensions/ERC4626.sol\":5858:5864  _asset */\n      immutable(\"0x57d03f72a618a841c753598d7d2cbcbbd5f43a73c69f9abc886bd29cf4101ea1\")\n      sub(shl(0xa0, 0x01), 0x01)\n        /* \"contracts/contracts/protocol/TuliaVault.sol\":390:557  contract TuliaVault is ERC4626 {... */\n      and\n        /* \"@openzeppelin/contracts/token/ERC20/extensions/ERC4626.sol\":5858:5889  _asset.balanceOf(address(this)) */\n      gas\n      staticcall\n      swap1\n      dup2\n      iszero\n      tag_263\n      jumpi\n      0x00\n      swap2\n      tag_265\n      jumpi\n        /* \"@openzeppelin/contracts/token/ERC20/extensions/ERC4626.sol\":5851:5889  return _asset.balanceOf(address(this)) */\n      pop\n        /* \"@openzeppelin/contracts/token/ERC20/extensions/ERC4626.sol\":5780:5896  function totalAssets() public view virtual returns (uint256) {... */\n      swap1\n      jump\t// out\n        /* \"@openzeppelin/contracts/token/ERC20/extensions/ERC4626.sol\":5858:5889  _asset.balanceOf(address(this)) */\n    tag_265:\n      swap1\n      0x20\n      dup3\n      returndatasize\n      dup3\n      gt\n      tag_267\n      jumpi\n    tag_268:\n      dup2\n      tag_269\n      0x20\n      swap4\n      dup4\n      tag_8\n      jump\t// in\n    tag_269:\n      dup2\n      add\n        /* \"contracts/contracts/protocol/TuliaVault.sol\":390:557  contract TuliaVault is ERC4626 {... */\n      sub\n      slt\n      tag_94\n      jumpi\n      pop\n      mload\n        /* \"@openzeppelin/contracts/token/ERC20/extensions/ERC4626.sol\":5780:5896  function totalAssets() public view virtual returns (uint256) {... */\n      swap1\n      jump\t// out\n        /* \"@openzeppelin/contracts/token/ERC20/extensions/ERC4626.sol\":5858:5889  _asset.balanceOf(address(this)) */\n    tag_267:\n      returndatasize\n      swap2\n      pop\n      jump(tag_268)\n    tag_263:\n        /* \"contracts/contracts/protocol/TuliaVault.sol\":390:557  contract TuliaVault is ERC4626 {... */\n      mload(0x40)\n      returndatasize\n      0x00\n      dup3\n      returndatacopy\n      returndatasize\n      swap1\n      revert\n        /* \"@openzeppelin/contracts/token/ERC20/extensions/ERC4626.sol\":9882:10095  function _convertToShares(uint256 assets, Math.Rounding rounding) internal view virtual returns (uint256) {... */\n    tag_14:\n        /* \"@openzeppelin/contracts/token/ERC20/ERC20.sol\":3222:3234  _totalSupply */\n      0x02\n        /* \"contracts/contracts/protocol/TuliaVault.sol\":390:557  contract TuliaVault is ERC4626 {... */\n      sload\n      0x01\n      dup2\n      add\n      dup1\n      swap2\n      gt\n      tag_275\n      jumpi\n        /* \"@openzeppelin/contracts/token/ERC20/extensions/ERC4626.sol\":10060:10073  totalAssets() */\n      tag_274\n      tag_13\n      jump\t// in\n    tag_274:\n        /* \"contracts/contracts/protocol/TuliaVault.sol\":390:557  contract TuliaVault is ERC4626 {... */\n      swap1\n      0x01\n      dup3\n      add\n      dup1\n      swap3\n      gt\n      tag_275\n      jumpi\n        /* \"@openzeppelin/contracts/token/ERC20/extensions/ERC4626.sol\":10005:10088  assets.mulDiv(totalSupply() + 10 ** _decimalsOffset(), totalAssets() + 1, rounding) */\n      tag_277\n      swap3\n      tag_22\n      jump\t// in\n    tag_277:\n        /* \"@openzeppelin/contracts/token/ERC20/extensions/ERC4626.sol\":9882:10095  function _convertToShares(uint256 assets, Math.Rounding rounding) internal view virtual returns (uint256) {... */\n      swap1\n      jump\t// out\n        /* \"contracts/contracts/protocol/TuliaVault.sol\":390:557  contract TuliaVault is ERC4626 {... */\n    tag_275:\n      mstore(0x00, shl(0xe0, 0x4e487b71))\n      mstore(0x04, 0x11)\n      revert(0x00, 0x24)\n        /* \"@openzeppelin/contracts/token/ERC20/extensions/ERC4626.sol\":9882:10095  function _convertToShares(uint256 assets, Math.Rounding rounding) internal view virtual returns (uint256) {... */\n    tag_15:\n        /* \"@openzeppelin/contracts/token/ERC20/ERC20.sol\":3222:3234  _totalSupply */\n      0x02\n        /* \"contracts/contracts/protocol/TuliaVault.sol\":390:557  contract TuliaVault is ERC4626 {... */\n      sload\n      0x01\n      dup2\n      add\n      dup1\n      swap2\n      gt\n      tag_275\n      jumpi\n        /* \"@openzeppelin/contracts/token/ERC20/extensions/ERC4626.sol\":10060:10073  totalAssets() */\n      tag_280\n      tag_13\n      jump\t// in\n    tag_280:\n        /* \"contracts/contracts/protocol/TuliaVault.sol\":390:557  contract TuliaVault is ERC4626 {... */\n      swap1\n      0x01\n      dup3\n      add\n      dup1\n      swap3\n      gt\n      tag_275\n      jumpi\n        /* \"@openzeppelin/contracts/utils/math/Math.sol\":8188:8213  mulDiv(x, y, denominator) */\n      tag_277\n      swap3\n      tag_23\n      jump\t// in\n        /* \"@openzeppelin/contracts/token/ERC20/extensions/ERC4626.sol\":10219:10432  function _convertToAssets(uint256 shares, Math.Rounding rounding) internal view virtual returns (uint256) {... */\n    tag_16:\n        /* \"@openzeppelin/contracts/token/ERC20/extensions/ERC4626.sol\":10356:10369  totalAssets() */\n      tag_284\n      tag_13\n      jump\t// in\n    tag_284:\n        /* \"@openzeppelin/contracts/token/ERC20/extensions/ERC4626.sol\":7338:7356  Math.Rounding.Ceil */\n      0x01\n        /* \"contracts/contracts/protocol/TuliaVault.sol\":390:557  contract TuliaVault is ERC4626 {... */\n      dup2\n      add\n      dup1\n      swap2\n      gt\n      tag_275\n      jumpi\n        /* \"@openzeppelin/contracts/token/ERC20/ERC20.sol\":3222:3234  _totalSupply */\n      0x02\n        /* \"contracts/contracts/protocol/TuliaVault.sol\":390:557  contract TuliaVault is ERC4626 {... */\n      sload\n      swap1\n        /* \"@openzeppelin/contracts/token/ERC20/extensions/ERC4626.sol\":7338:7356  Math.Rounding.Ceil */\n      0x01\n        /* \"contracts/contracts/protocol/TuliaVault.sol\":390:557  contract TuliaVault is ERC4626 {... */\n      dup3\n      add\n      dup1\n      swap3\n      gt\n      tag_275\n      jumpi\n        /* \"@openzeppelin/contracts/token/ERC20/extensions/ERC4626.sol\":10342:10425  shares.mulDiv(totalAssets() + 1, totalSupply() + 10 ** _decimalsOffset(), rounding) */\n      tag_277\n      swap3\n      tag_22\n      jump\t// in\n        /* \"@openzeppelin/contracts/token/ERC20/extensions/ERC4626.sol\":10219:10432  function _convertToAssets(uint256 shares, Math.Rounding rounding) internal view virtual returns (uint256) {... */\n    tag_17:\n        /* \"@openzeppelin/contracts/token/ERC20/extensions/ERC4626.sol\":10356:10369  totalAssets() */\n      tag_290\n      tag_13\n      jump\t// in\n    tag_290:\n        /* \"@openzeppelin/contracts/token/ERC20/extensions/ERC4626.sol\":10372:10373  1 */\n      0x01\n        /* \"contracts/contracts/protocol/TuliaVault.sol\":390:557  contract TuliaVault is ERC4626 {... */\n      dup2\n      add\n      dup1\n      swap2\n      gt\n      tag_275\n      jumpi\n        /* \"@openzeppelin/contracts/token/ERC20/ERC20.sol\":3222:3234  _totalSupply */\n      0x02\n        /* \"contracts/contracts/protocol/TuliaVault.sol\":390:557  contract TuliaVault is ERC4626 {... */\n      sload\n      swap1\n        /* \"@openzeppelin/contracts/token/ERC20/extensions/ERC4626.sol\":10372:10373  1 */\n      0x01\n        /* \"contracts/contracts/protocol/TuliaVault.sol\":390:557  contract TuliaVault is ERC4626 {... */\n      dup3\n      add\n      dup1\n      swap3\n      gt\n      tag_275\n      jumpi\n        /* \"@openzeppelin/contracts/utils/math/Math.sol\":8188:8213  mulDiv(x, y, denominator) */\n      tag_277\n      swap3\n      tag_23\n      jump\t// in\n        /* \"@openzeppelin/contracts/token/ERC20/extensions/ERC4626.sol\":10496:11326  function _deposit(address caller, address receiver, uint256 assets, uint256 shares) internal virtual {... */\n    tag_18:\n        /* \"contracts/contracts/protocol/TuliaVault.sol\":390:557  contract TuliaVault is ERC4626 {... */\n      0x40\n      dup1\n      mload\n      shl(0xe0, 0x23b872dd)\n        /* \"@openzeppelin/contracts/token/ERC20/utils/SafeERC20.sol\":1829:1882  abi.encodeCall(token.transferFrom, (from, to, value)) */\n      0x20\n      dup3\n      add\n      mstore\n      sub(shl(0xa0, 0x01), 0x01)\n        /* \"contracts/contracts/protocol/TuliaVault.sol\":390:557  contract TuliaVault is ERC4626 {... */\n      swap3\n      dup4\n      and\n        /* \"@openzeppelin/contracts/token/ERC20/utils/SafeERC20.sol\":1829:1882  abi.encodeCall(token.transferFrom, (from, to, value)) */\n      0x24\n      dup3\n      add\n        /* \"contracts/contracts/protocol/TuliaVault.sol\":390:557  contract TuliaVault is ERC4626 {... */\n      dup2\n      swap1\n      mstore\n        /* \"@openzeppelin/contracts/token/ERC20/extensions/ERC4626.sol\":11215:11219  this */\n      address\n        /* \"contracts/contracts/protocol/TuliaVault.sol\":390:557  contract TuliaVault is ERC4626 {... */\n      0x44\n      dup4\n      add\n      mstore\n      0x64\n      dup1\n      dup4\n      add\n      dup8\n      swap1\n      mstore\n        /* \"@openzeppelin/contracts/token/ERC20/utils/SafeERC20.sol\":1829:1882  abi.encodeCall(token.transferFrom, (from, to, value)) */\n      dup3\n      mstore\n        /* \"@openzeppelin/contracts/token/ERC20/extensions/ERC4626.sol\":10496:11326  function _deposit(address caller, address receiver, uint256 assets, uint256 shares) internal virtual {... */\n      swap5\n      swap6\n      swap4\n        /* \"contracts/contracts/protocol/TuliaVault.sol\":390:557  contract TuliaVault is ERC4626 {... */\n      swap2\n      swap3\n      swap2\n        /* \"@openzeppelin/contracts/token/ERC20/extensions/ERC4626.sol\":10496:11326  function _deposit(address caller, address receiver, uint256 assets, uint256 shares) internal virtual {... */\n      swap1\n        /* \"contracts/contracts/protocol/TuliaVault.sol\":390:557  contract TuliaVault is ERC4626 {... */\n      0xa0\n      dup2\n      add\n      swap1\n      0xffffffffffffffff\n      dup3\n      gt\n      dup2\n      dup4\n      lt\n      or\n      tag_245\n      jumpi\n        /* \"@openzeppelin/contracts/token/ERC20/utils/SafeERC20.sol\":1829:1882  abi.encodeCall(token.transferFrom, (from, to, value)) */\n      tag_298\n        /* \"contracts/contracts/protocol/TuliaVault.sol\":390:557  contract TuliaVault is ERC4626 {... */\n      swap2\n      dup6\n      mstore\n        /* \"@openzeppelin/contracts/token/ERC20/extensions/ERC4626.sol\":11191:11197  _asset */\n      immutable(\"0x57d03f72a618a841c753598d7d2cbcbbd5f43a73c69f9abc886bd29cf4101ea1\")\n        /* \"@openzeppelin/contracts/token/ERC20/utils/SafeERC20.sol\":1829:1882  abi.encodeCall(token.transferFrom, (from, to, value)) */\n      tag_20\n      jump\t// in\n    tag_298:\n        /* \"contracts/contracts/protocol/TuliaVault.sol\":390:557  contract TuliaVault is ERC4626 {... */\n      and\n        /* \"@openzeppelin/contracts/token/ERC20/ERC20.sol\":7791:7812  account == address(0) */\n      swap4\n      dup5\n      iszero\n        /* \"@openzeppelin/contracts/token/ERC20/ERC20.sol\":7787:7878  if (account == address(0)) {... */\n      tag_299\n      jumpi\n        /* \"@openzeppelin/contracts/token/ERC20/ERC20.sol\":6496:6517  _totalSupply += value */\n      0x02\n        /* \"contracts/contracts/protocol/TuliaVault.sol\":390:557  contract TuliaVault is ERC4626 {... */\n      sload\n      swap3\n      dup1\n      dup5\n      add\n      dup1\n      swap5\n      gt\n      tag_275\n      jumpi\n        /* \"@openzeppelin/contracts/token/ERC20/extensions/ERC4626.sol\":11278:11319  Deposit(caller, receiver, assets, shares) */\n      0xdcbc1c05240f31ff3ad067ef1ee35ce4997762752e3a095284754544f4c709d7\n        /* \"contracts/contracts/protocol/TuliaVault.sol\":390:557  contract TuliaVault is ERC4626 {... */\n      swap4\n        /* \"@openzeppelin/contracts/token/ERC20/ERC20.sol\":6496:6517  _totalSupply += value */\n      0x02\n        /* \"contracts/contracts/protocol/TuliaVault.sol\":390:557  contract TuliaVault is ERC4626 {... */\n      sstore\n      dup6\n      0x00\n      mstore\n      0x00\n        /* \"@openzeppelin/contracts/token/ERC20/utils/SafeERC20.sol\":1829:1882  abi.encodeCall(token.transferFrom, (from, to, value)) */\n      0x20\n        /* \"contracts/contracts/protocol/TuliaVault.sol\":390:557  contract TuliaVault is ERC4626 {... */\n      mstore\n      dup3\n      0x00\n      keccak256\n      dup2\n      dup2\n      sload\n      add\n      swap1\n      sstore\n      dup6\n      0x00\n        /* \"@openzeppelin/contracts/token/ERC20/ERC20.sol\":7346:7371  Transfer(from, to, value) */\n      0xddf252ad1be2c89b69c2b068fc378daa952ba7f163c4a11628f55a4df523b3ef\n        /* \"@openzeppelin/contracts/token/ERC20/utils/SafeERC20.sol\":1829:1882  abi.encodeCall(token.transferFrom, (from, to, value)) */\n      0x20\n        /* \"contracts/contracts/protocol/TuliaVault.sol\":390:557  contract TuliaVault is ERC4626 {... */\n      dup7\n      mload\n      dup6\n      dup2\n      mstore\n        /* \"@openzeppelin/contracts/token/ERC20/ERC20.sol\":7346:7371  Transfer(from, to, value) */\n      log3\n        /* \"contracts/contracts/protocol/TuliaVault.sol\":390:557  contract TuliaVault is ERC4626 {... */\n      dup3\n      mload\n      swap2\n      dup3\n      mstore\n        /* \"@openzeppelin/contracts/token/ERC20/utils/SafeERC20.sol\":1829:1882  abi.encodeCall(token.transferFrom, (from, to, value)) */\n      0x20\n        /* \"contracts/contracts/protocol/TuliaVault.sol\":390:557  contract TuliaVault is ERC4626 {... */\n      dup3\n      add\n      mstore\n        /* \"@openzeppelin/contracts/token/ERC20/extensions/ERC4626.sol\":11278:11319  Deposit(caller, receiver, assets, shares) */\n      log3\n        /* \"@openzeppelin/contracts/token/ERC20/extensions/ERC4626.sol\":10496:11326  function _deposit(address caller, address receiver, uint256 assets, uint256 shares) internal virtual {... */\n      jump\t// out\n        /* \"@openzeppelin/contracts/token/ERC20/ERC20.sol\":7787:7878  if (account == address(0)) {... */\n    tag_299:\n        /* \"contracts/contracts/protocol/TuliaVault.sol\":390:557  contract TuliaVault is ERC4626 {... */\n      dup2\n      mload\n      shl(0xe0, 0xec442f05)\n        /* \"@openzeppelin/contracts/token/ERC20/ERC20.sol\":7835:7867  ERC20InvalidReceiver(address(0)) */\n      dup2\n      mstore\n      0x00\n      0x04\n      dup3\n      add\n        /* \"contracts/contracts/protocol/TuliaVault.sol\":390:557  contract TuliaVault is ERC4626 {... */\n      mstore\n        /* \"@openzeppelin/contracts/token/ERC20/utils/SafeERC20.sol\":1829:1882  abi.encodeCall(token.transferFrom, (from, to, value)) */\n      0x24\n      swap1\n        /* \"@openzeppelin/contracts/token/ERC20/ERC20.sol\":7835:7867  ERC20InvalidReceiver(address(0)) */\n      revert\n        /* \"@openzeppelin/contracts/token/ERC20/extensions/ERC4626.sol\":11393:12307  function _withdraw(... */\n    tag_19:\n      sub(shl(0xa0, 0x01), 0x01)\n        /* \"contracts/contracts/protocol/TuliaVault.sol\":390:557  contract TuliaVault is ERC4626 {... */\n      dup1\n      dup5\n      and\n      swap6\n      swap1\n      swap5\n      dup6\n      dup4\n      and\n      swap5\n        /* \"@openzeppelin/contracts/token/ERC20/extensions/ERC4626.sol\":11393:12307  function _withdraw(... */\n      swap4\n      swap1\n      swap3\n      dup3\n        /* \"@openzeppelin/contracts/token/ERC20/extensions/ERC4626.sol\":11570:11585  caller != owner */\n      dup9\n      dup8\n      sub\n        /* \"@openzeppelin/contracts/token/ERC20/extensions/ERC4626.sol\":11566:11650  if (caller != owner) {... */\n      tag_303\n      jumpi\n        /* \"@openzeppelin/contracts/token/ERC20/extensions/ERC4626.sol\":11393:12307  function _withdraw(... */\n    tag_304:\n        /* \"@openzeppelin/contracts/token/ERC20/ERC20.sol\":8317:8338  account == address(0) */\n      pop\n      pop\n      dup7\n      iszero\n        /* \"@openzeppelin/contracts/token/ERC20/ERC20.sol\":8313:8402  if (account == address(0)) {... */\n      tag_247\n      jumpi\n        /* \"@openzeppelin/contracts/token/ERC20/ERC20.sol\":6356:6896  if (from == address(0)) {... */\n      0x00\n        /* \"contracts/contracts/protocol/TuliaVault.sol\":390:557  contract TuliaVault is ERC4626 {... */\n      swap6\n      dup8\n      dup8\n      mstore\n      dup7\n      0x20\n      mstore\n      0x40\n      swap5\n      dup6\n      dup9\n      keccak256\n      sload\n        /* \"@openzeppelin/contracts/token/ERC20/ERC20.sol\":6603:6622  fromBalance < value */\n      swap1\n      dup5\n      dup3\n      lt\n        /* \"@openzeppelin/contracts/token/ERC20/ERC20.sol\":6599:6714  if (fromBalance < value) {... */\n      tag_307\n      jumpi\n        /* \"contracts/contracts/protocol/TuliaVault.sol\":390:557  contract TuliaVault is ERC4626 {... */\n      pop\n      dup4\n      swap1\n      dup10\n      dup10\n      mstore\n      dup9\n      0x20\n      mstore\n      sub\n      dup6\n      dup9\n      keccak256\n      sstore\n      dup3\n        /* \"@openzeppelin/contracts/token/ERC20/ERC20.sol\":7073:7094  _totalSupply -= value */\n      0x02\n        /* \"contracts/contracts/protocol/TuliaVault.sol\":390:557  contract TuliaVault is ERC4626 {... */\n      sload\n      sub\n        /* \"@openzeppelin/contracts/token/ERC20/ERC20.sol\":7073:7094  _totalSupply -= value */\n      0x02\n        /* \"contracts/contracts/protocol/TuliaVault.sol\":390:557  contract TuliaVault is ERC4626 {... */\n      sstore\n      dup7\n      dup9\n        /* \"@openzeppelin/contracts/token/ERC20/ERC20.sol\":7346:7371  Transfer(from, to, value) */\n      0xddf252ad1be2c89b69c2b068fc378daa952ba7f163c4a11628f55a4df523b3ef\n        /* \"contracts/contracts/protocol/TuliaVault.sol\":390:557  contract TuliaVault is ERC4626 {... */\n      0x20\n      dup9\n      mload\n      dup8\n      dup2\n      mstore\n        /* \"@openzeppelin/contracts/token/ERC20/ERC20.sol\":7346:7371  Transfer(from, to, value) */\n      log3\n        /* \"contracts/contracts/protocol/TuliaVault.sol\":390:557  contract TuliaVault is ERC4626 {... */\n      dup5\n      mload\n      swap2\n      shl(0xe0, 0xa9059cbb)\n      0x20\n        /* \"@openzeppelin/contracts/token/ERC20/utils/SafeERC20.sol\":1412:1455  abi.encodeCall(token.transfer, (to, value)) */\n      dup5\n      add\n      mstore\n        /* \"contracts/contracts/protocol/TuliaVault.sol\":390:557  contract TuliaVault is ERC4626 {... */\n      and\n        /* \"@openzeppelin/contracts/token/ERC20/utils/SafeERC20.sol\":1412:1455  abi.encodeCall(token.transfer, (to, value)) */\n      swap6\n      dup7\n      0x24\n      dup4\n      add\n        /* \"contracts/contracts/protocol/TuliaVault.sol\":390:557  contract TuliaVault is ERC4626 {... */\n      mstore\n      dup4\n      0x44\n      dup4\n      add\n      mstore\n      0x44\n        /* \"@openzeppelin/contracts/token/ERC20/utils/SafeERC20.sol\":1412:1455  abi.encodeCall(token.transfer, (to, value)) */\n      dup3\n      mstore\n        /* \"contracts/contracts/protocol/TuliaVault.sol\":390:557  contract TuliaVault is ERC4626 {... */\n      0x80\n      dup3\n      add\n      swap1\n      dup3\n      dup3\n      lt\n      0xffffffffffffffff\n      dup4\n      gt\n      or\n      tag_309\n      jumpi\n      pop\n      dup5\n      swap4\n      swap3\n      swap2\n        /* \"@openzeppelin/contracts/token/ERC20/utils/SafeERC20.sol\":1412:1455  abi.encodeCall(token.transfer, (to, value)) */\n      tag_311\n        /* \"contracts/contracts/protocol/TuliaVault.sol\":390:557  contract TuliaVault is ERC4626 {... */\n      swap2\n        /* \"@openzeppelin/contracts/token/ERC20/extensions/ERC4626.sol\":12251:12300  Withdraw(caller, receiver, owner, assets, shares) */\n      0xfbde797d201c681b91056529119e0b02407c7bb96a4a2c75c01fc9667232c8db\n        /* \"contracts/contracts/protocol/TuliaVault.sol\":390:557  contract TuliaVault is ERC4626 {... */\n      swap7\n      mstore\n        /* \"@openzeppelin/contracts/token/ERC20/extensions/ERC4626.sol\":12210:12216  _asset */\n      immutable(\"0x57d03f72a618a841c753598d7d2cbcbbd5f43a73c69f9abc886bd29cf4101ea1\")\n        /* \"@openzeppelin/contracts/token/ERC20/utils/SafeERC20.sol\":1412:1455  abi.encodeCall(token.transfer, (to, value)) */\n      tag_20\n      jump\t// in\n    tag_311:\n        /* \"contracts/contracts/protocol/TuliaVault.sol\":390:557  contract TuliaVault is ERC4626 {... */\n      dup3\n      mload\n      swap2\n      dup3\n      mstore\n      0x20\n      dup3\n      add\n      mstore\n        /* \"@openzeppelin/contracts/token/ERC20/extensions/ERC4626.sol\":12251:12300  Withdraw(caller, receiver, owner, assets, shares) */\n      log4\n        /* \"@openzeppelin/contracts/token/ERC20/extensions/ERC4626.sol\":11393:12307  function _withdraw(... */\n      jump\t// out\n        /* \"contracts/contracts/protocol/TuliaVault.sol\":390:557  contract TuliaVault is ERC4626 {... */\n    tag_309:\n      shl(0xe0, 0x4e487b71)\n      dup2\n      mstore\n      mstore(0x04, 0x41)\n        /* \"@openzeppelin/contracts/token/ERC20/utils/SafeERC20.sol\":1412:1455  abi.encodeCall(token.transfer, (to, value)) */\n      0x24\n      swap1\n        /* \"contracts/contracts/protocol/TuliaVault.sol\":390:557  contract TuliaVault is ERC4626 {... */\n      revert\n        /* \"@openzeppelin/contracts/token/ERC20/ERC20.sol\":6599:6714  if (fromBalance < value) {... */\n    tag_307:\n        /* \"contracts/contracts/protocol/TuliaVault.sol\":390:557  contract TuliaVault is ERC4626 {... */\n      dup7\n      mload\n      shl(0xe2, 0x391434e3)\n        /* \"@openzeppelin/contracts/token/ERC20/ERC20.sol\":6649:6699  ERC20InsufficientBalance(from, fromBalance, value) */\n      dup2\n      mstore\n      sub(shl(0xa0, 0x01), 0x01)\n        /* \"contracts/contracts/protocol/TuliaVault.sol\":390:557  contract TuliaVault is ERC4626 {... */\n      swap2\n      swap1\n      swap2\n      and\n        /* \"@openzeppelin/contracts/token/ERC20/ERC20.sol\":6649:6699  ERC20InsufficientBalance(from, fromBalance, value) */\n      0x04\n      dup3\n      add\n        /* \"contracts/contracts/protocol/TuliaVault.sol\":390:557  contract TuliaVault is ERC4626 {... */\n      mstore\n      0x24\n      dup2\n      add\n      swap2\n      swap1\n      swap2\n      mstore\n      0x44\n      dup2\n      add\n      dup5\n      swap1\n      mstore\n      0x64\n      swap1\n        /* \"@openzeppelin/contracts/token/ERC20/extensions/ERC4626.sol\":9552:9602  ERC4626ExceededMaxRedeem(owner, shares, maxShares) */\n      revert\n        /* \"@openzeppelin/contracts/token/ERC20/extensions/ERC4626.sol\":11566:11650  if (caller != owner) {... */\n    tag_303:\n        /* \"@openzeppelin/contracts/token/ERC20/extensions/ERC4626.sol\":11632:11638  shares */\n      tag_313\n      swap2\n      dup7\n      tag_12\n      jump\t// in\n    tag_313:\n        /* \"@openzeppelin/contracts/token/ERC20/extensions/ERC4626.sol\":11566:11650  if (caller != owner) {... */\n      0x00\n      dup3\n      jump(tag_304)\n        /* \"@openzeppelin/contracts/token/ERC20/utils/SafeERC20.sol\":4059:4688  function _callOptionalReturn(IERC20 token, bytes memory data) private {... */\n    tag_20:\n        /* \"contracts/contracts/protocol/TuliaVault.sol\":390:557  contract TuliaVault is ERC4626 {... */\n      0x01\n      dup1\n      0xa0\n      shl\n      sub\n      and\n        /* \"@openzeppelin/contracts/utils/Address.sol\":2847:2848  0 */\n      swap1\n      0x00\n        /* \"@openzeppelin/contracts/utils/Address.sol\":3462:3493  target.call{value: value}(data) */\n      dup1\n      dup3\n      0x20\n      dup3\n      swap5\n      mload\n      swap2\n      add\n      dup3\n      dup7\n      gas\n      call\n        /* \"contracts/contracts/protocol/TuliaVault.sol\":390:557  contract TuliaVault is ERC4626 {... */\n      jumpi(tag_314, iszero(returndatasize))\n      returndatasize\n      swap1\n      0xffffffffffffffff\n      dup3\n      gt\n      tag_316\n      jumpi\n      swap1\n        /* \"@openzeppelin/contracts/utils/Address.sol\":3510:3565  verifyCallResultFromTarget(target, success, returndata) */\n      tag_318\n        /* \"contracts/contracts/protocol/TuliaVault.sol\":390:557  contract TuliaVault is ERC4626 {... */\n      swap2\n      mload(0x40)\n      swap2\n      tag_319\n        /* \"@openzeppelin/contracts/utils/Address.sol\":3462:3493  target.call{value: value}(data) */\n      0x20\n        /* \"contracts/contracts/protocol/TuliaVault.sol\":390:557  contract TuliaVault is ERC4626 {... */\n      not(0x1f)\n      0x1f\n      dup5\n      add\n      and\n      add\n      dup5\n      tag_8\n      jump\t// in\n    tag_319:\n      dup3\n      mstore\n      returndatasize\n      dup5\n        /* \"@openzeppelin/contracts/utils/Address.sol\":3462:3493  target.call{value: value}(data) */\n      0x20\n        /* \"contracts/contracts/protocol/TuliaVault.sol\":390:557  contract TuliaVault is ERC4626 {... */\n      dup5\n      add\n      returndatacopy\n    tag_320:\n        /* \"@openzeppelin/contracts/utils/Address.sol\":3510:3565  verifyCallResultFromTarget(target, success, returndata) */\n      dup5\n      tag_21\n      jump\t// in\n    tag_318:\n        /* \"contracts/contracts/protocol/TuliaVault.sol\":390:557  contract TuliaVault is ERC4626 {... */\n      swap1\n      dup2\n      mload\n        /* \"@openzeppelin/contracts/token/ERC20/utils/SafeERC20.sol\":4551:4573  returndata.length != 0 */\n      swap2\n      dup3\n      iszero\n      iszero\n        /* \"@openzeppelin/contracts/token/ERC20/utils/SafeERC20.sol\":4551:4608  returndata.length != 0 && !abi.decode(returndata, (bool)) */\n      swap3\n      dup4\n      tag_321\n      jumpi\n        /* \"contracts/contracts/protocol/TuliaVault.sol\":390:557  contract TuliaVault is ERC4626 {... */\n    tag_322:\n        /* \"@openzeppelin/contracts/token/ERC20/utils/SafeERC20.sol\":4547:4682  if (returndata.length != 0 && !abi.decode(returndata, (bool))) {... */\n      pop\n      pop\n      pop\n      tag_323\n      jumpi\n        /* \"@openzeppelin/contracts/token/ERC20/utils/SafeERC20.sol\":4059:4688  function _callOptionalReturn(IERC20 token, bytes memory data) private {... */\n      pop\n      jump\t// out\n        /* \"@openzeppelin/contracts/token/ERC20/utils/SafeERC20.sol\":4547:4682  if (returndata.length != 0 && !abi.decode(returndata, (bool))) {... */\n    tag_323:\n        /* \"contracts/contracts/protocol/TuliaVault.sol\":390:557  contract TuliaVault is ERC4626 {... */\n      0x24\n      swap1\n      mload(0x40)\n        /* \"@openzeppelin/contracts/token/ERC20/utils/SafeERC20.sol\":4631:4671  SafeERC20FailedOperation(address(token)) */\n      swap1\n      shl(0xe0, 0x5274afe7)\n      dup3\n      mstore\n      0x04\n      dup3\n      add\n        /* \"contracts/contracts/protocol/TuliaVault.sol\":390:557  contract TuliaVault is ERC4626 {... */\n      mstore\n        /* \"@openzeppelin/contracts/token/ERC20/utils/SafeERC20.sol\":4631:4671  SafeERC20FailedOperation(address(token)) */\n      revert\n        /* \"@openzeppelin/contracts/token/ERC20/utils/SafeERC20.sol\":4551:4608  returndata.length != 0 && !abi.decode(returndata, (bool)) */\n    tag_321:\n        /* \"@openzeppelin/contracts/token/ERC20/utils/SafeERC20.sol\":4578:4608  abi.decode(returndata, (bool)) */\n      dup2\n      swap3\n      swap4\n      pop\n      swap1\n        /* \"@openzeppelin/contracts/utils/Address.sol\":3462:3493  target.call{value: value}(data) */\n      0x20\n        /* \"@openzeppelin/contracts/token/ERC20/utils/SafeERC20.sol\":4578:4608  abi.decode(returndata, (bool)) */\n      swap2\n      dup2\n      add\n        /* \"contracts/contracts/protocol/TuliaVault.sol\":390:557  contract TuliaVault is ERC4626 {... */\n      sub\n      slt\n      tag_78\n      jumpi\n        /* \"@openzeppelin/contracts/utils/Address.sol\":3462:3493  target.call{value: value}(data) */\n      0x20\n        /* \"@openzeppelin/contracts/token/ERC20/utils/SafeERC20.sol\":4578:4608  abi.decode(returndata, (bool)) */\n      add\n        /* \"contracts/contracts/protocol/TuliaVault.sol\":390:557  contract TuliaVault is ERC4626 {... */\n      mload\n      swap1\n      dup2\n      iszero\n      swap2\n      dup3\n      iszero\n      sub\n      tag_94\n      jumpi\n        /* \"@openzeppelin/contracts/token/ERC20/utils/SafeERC20.sol\":4551:4608  returndata.length != 0 && !abi.decode(returndata, (bool)) */\n      pop\n      0x00\n      dup1\n      dup1\n      jump(tag_322)\n        /* \"contracts/contracts/protocol/TuliaVault.sol\":390:557  contract TuliaVault is ERC4626 {... */\n    tag_316:\n      shl(0xe0, 0x4e487b71)\n      dup4\n      mstore\n      mstore(0x04, 0x41)\n      0x24\n      dup4\n      revert\n    tag_314:\n        /* \"@openzeppelin/contracts/utils/Address.sol\":3510:3565  verifyCallResultFromTarget(target, success, returndata) */\n      tag_318\n        /* \"contracts/contracts/protocol/TuliaVault.sol\":390:557  contract TuliaVault is ERC4626 {... */\n      swap1\n      0x60\n      swap1\n      jump(tag_320)\n        /* \"@openzeppelin/contracts/utils/Address.sol\":4625:5207  function verifyCallResultFromTarget(... */\n    tag_21:\n      swap1\n        /* \"@openzeppelin/contracts/utils/Address.sol\":4797:4805  !success */\n      tag_329\n      jumpi\n      pop\n        /* \"contracts/contracts/protocol/TuliaVault.sol\":390:557  contract TuliaVault is ERC4626 {... */\n      dup1\n      mload\n        /* \"@openzeppelin/contracts/utils/Address.sol\":5874:5895  returndata.length > 0 */\n      iszero\n        /* \"@openzeppelin/contracts/utils/Address.sol\":5874:5891  returndata.length */\n      tag_331\n      jumpi\n        /* \"@openzeppelin/contracts/utils/Address.sol\":6046:6188  assembly {... */\n      dup1\n      mload\n      swap1\n      0x20\n      add\n      revert\n        /* \"@openzeppelin/contracts/utils/Address.sol\":5870:6253  if (returndata.length > 0) {... */\n    tag_331:\n        /* \"contracts/contracts/protocol/TuliaVault.sol\":390:557  contract TuliaVault is ERC4626 {... */\n      mload(0x40)\n      shl(0xe1, 0x0a12f521)\n        /* \"@openzeppelin/contracts/utils/Address.sol\":6225:6242  FailedInnerCall() */\n      dup2\n      mstore\n      0x04\n      swap1\n      revert\n        /* \"@openzeppelin/contracts/utils/Address.sol\":4793:5201  if (!success) {... */\n    tag_329:\n        /* \"contracts/contracts/protocol/TuliaVault.sol\":390:557  contract TuliaVault is ERC4626 {... */\n      dup2\n      mload\n        /* \"@openzeppelin/contracts/utils/Address.sol\":5045:5067  returndata.length == 0 */\n      iszero\n        /* \"@openzeppelin/contracts/utils/Address.sol\":5045:5094  returndata.length == 0 && target.code.length == 0 */\n      dup1\n      tag_333\n      jumpi\n        /* \"@openzeppelin/contracts/utils/Address.sol\":4793:5201  if (!success) {... */\n    tag_334:\n        /* \"@openzeppelin/contracts/utils/Address.sol\":5041:5160  if (returndata.length == 0 && target.code.length == 0) {... */\n      tag_335\n      jumpi\n        /* \"@openzeppelin/contracts/utils/Address.sol\":5173:5190  return returndata */\n      pop\n      swap1\n      jump\t// out\n        /* \"@openzeppelin/contracts/utils/Address.sol\":5041:5160  if (returndata.length == 0 && target.code.length == 0) {... */\n    tag_335:\n        /* \"contracts/contracts/protocol/TuliaVault.sol\":390:557  contract TuliaVault is ERC4626 {... */\n      mload(0x40)\n      shl(0xe0, 0x9996b315)\n        /* \"@openzeppelin/contracts/utils/Address.sol\":5121:5145  AddressEmptyCode(target) */\n      dup2\n      mstore\n      sub(shl(0xa0, 0x01), 0x01)\n        /* \"contracts/contracts/protocol/TuliaVault.sol\":390:557  contract TuliaVault is ERC4626 {... */\n      swap1\n      swap2\n      and\n        /* \"@openzeppelin/contracts/utils/Address.sol\":5121:5145  AddressEmptyCode(target) */\n      0x04\n      dup3\n      add\n        /* \"contracts/contracts/protocol/TuliaVault.sol\":390:557  contract TuliaVault is ERC4626 {... */\n      mstore\n      0x24\n      swap1\n        /* \"@openzeppelin/contracts/utils/Address.sol\":5121:5145  AddressEmptyCode(target) */\n      revert\n        /* \"@openzeppelin/contracts/utils/Address.sol\":5045:5094  returndata.length == 0 && target.code.length == 0 */\n    tag_333:\n        /* \"@openzeppelin/contracts/utils/Address.sol\":5071:5089  target.code.length */\n      pop\n      dup1\n      extcodesize\n        /* \"@openzeppelin/contracts/utils/Address.sol\":5071:5094  target.code.length == 0 */\n      iszero\n        /* \"@openzeppelin/contracts/utils/Address.sol\":5045:5094  returndata.length == 0 && target.code.length == 0 */\n      jump(tag_334)\n        /* \"@openzeppelin/contracts/utils/math/Math.sol\":8051:8353  function mulDiv(uint256 x, uint256 y, uint256 denominator, Rounding rounding) internal pure returns (uint256) {... */\n    tag_22:\n      swap2\n      swap1\n        /* \"@openzeppelin/contracts/utils/math/Math.sol\":8188:8213  mulDiv(x, y, denominator) */\n      tag_337\n      dup3\n      dup3\n      dup6\n      tag_23\n      jump\t// in\n    tag_337:\n        /* \"@openzeppelin/contracts/utils/math/Math.sol\":8257:8282  mulmod(x, y, denominator) */\n      swap3\n      dup3\n      iszero\n      tag_338\n      jumpi\n      mulmod\n        /* \"@openzeppelin/contracts/utils/math/Math.sol\":8223:8324  if (unsignedRoundsUp(rounding) && mulmod(x, y, denominator) > 0) {... */\n      tag_340\n      jumpi\n        /* \"@openzeppelin/contracts/utils/math/Math.sol\":8051:8353  function mulDiv(uint256 x, uint256 y, uint256 denominator, Rounding rounding) internal pure returns (uint256) {... */\n      swap1\n      jump\t// out\n        /* \"@openzeppelin/contracts/utils/math/Math.sol\":8223:8324  if (unsignedRoundsUp(rounding) && mulmod(x, y, denominator) > 0) {... */\n    tag_340:\n        /* \"contracts/contracts/protocol/TuliaVault.sol\":390:557  contract TuliaVault is ERC4626 {... */\n      0x01\n      dup2\n      add\n      dup1\n      swap2\n      gt\n      tag_275\n      jumpi\n        /* \"@openzeppelin/contracts/utils/math/Math.sol\":8051:8353  function mulDiv(uint256 x, uint256 y, uint256 denominator, Rounding rounding) internal pure returns (uint256) {... */\n      swap1\n      jump\t// out\n        /* \"@openzeppelin/contracts/utils/math/Math.sol\":8257:8282  mulmod(x, y, denominator) */\n    tag_338:\n        /* \"contracts/contracts/protocol/TuliaVault.sol\":390:557  contract TuliaVault is ERC4626 {... */\n      mstore(0x00, shl(0xe0, 0x4e487b71))\n      mstore(0x04, 0x12)\n      revert(0x00, 0x24)\n        /* \"@openzeppelin/contracts/utils/math/Math.sol\":3803:7919  function mulDiv(uint256 x, uint256 y, uint256 denominator) internal pure returns (uint256 result) {... */\n    tag_23:\n      swap1\n      swap2\n        /* \"contracts/contracts/protocol/TuliaVault.sol\":390:557  contract TuliaVault is ERC4626 {... */\n      dup3\n      dup3\n      mul\n      swap2\n      not(0x00)\n        /* \"@openzeppelin/contracts/utils/math/Math.sol\":3803:7919  function mulDiv(uint256 x, uint256 y, uint256 denominator) internal pure returns (uint256 result) {... */\n      dup5\n      dup3\n        /* \"@openzeppelin/contracts/utils/math/Math.sol\":4383:4514  assembly {... */\n      mulmod\n      swap4\n      dup4\n      dup1\n      dup7\n      lt\n      swap6\n      sub\n      swap5\n      dup1\n      dup7\n      sub\n        /* \"@openzeppelin/contracts/utils/math/Math.sol\":4595:4605  prod1 == 0 */\n      swap6\n      eq\n        /* \"@openzeppelin/contracts/utils/math/Math.sol\":4591:4959  if (prod1 == 0) {... */\n      tag_344\n      jumpi\n        /* \"@openzeppelin/contracts/utils/math/Math.sol\":5065:5085  denominator <= prod1 */\n      dup5\n      dup4\n      gt\n      iszero\n        /* \"@openzeppelin/contracts/utils/math/Math.sol\":5061:5149  if (denominator <= prod1) {... */\n      tag_346\n      jumpi\n        /* \"@openzeppelin/contracts/utils/math/Math.sol\":5435:5735  assembly {... */\n      dup3\n      swap2\n      mulmod\n        /* \"contracts/contracts/protocol/TuliaVault.sol\":390:557  contract TuliaVault is ERC4626 {... */\n      dup2\n        /* \"@openzeppelin/contracts/token/ERC20/extensions/ERC4626.sol\":6433:6450  type(uint256).max */\n      0x00\n        /* \"contracts/contracts/protocol/TuliaVault.sol\":390:557  contract TuliaVault is ERC4626 {... */\n      sub\n        /* \"@openzeppelin/contracts/utils/math/Math.sol\":5954:5985  denominator & (0 - denominator) */\n      dup3\n      and\n        /* \"@openzeppelin/contracts/utils/math/Math.sol\":5999:6370  assembly {... */\n      dup1\n      swap3\n      div\n        /* \"@openzeppelin/contracts/utils/math/Math.sol\":6813:6814  2 */\n      0x02\n        /* \"contracts/contracts/protocol/TuliaVault.sol\":390:557  contract TuliaVault is ERC4626 {... */\n      dup1\n      dup3\n        /* \"@openzeppelin/contracts/utils/math/Math.sol\":6794:6795  3 */\n      0x03\n        /* \"contracts/contracts/protocol/TuliaVault.sol\":390:557  contract TuliaVault is ERC4626 {... */\n      mul\n        /* \"@openzeppelin/contracts/utils/math/Math.sol\":6793:6814  (3 * denominator) ^ 2 */\n      xor\n        /* \"contracts/contracts/protocol/TuliaVault.sol\":390:557  contract TuliaVault is ERC4626 {... */\n      dup1\n      dup4\n      mul\n      dup3\n      sub\n      mul\n      dup1\n      dup4\n      mul\n      dup3\n      sub\n      mul\n      dup1\n      dup4\n      mul\n      dup3\n      sub\n      mul\n      dup1\n      dup4\n      mul\n      dup3\n      sub\n      mul\n      dup1\n      dup4\n      mul\n      dup3\n      sub\n      mul\n      dup1\n      swap3\n      mul\n      swap1\n      sub\n      mul\n        /* \"@openzeppelin/contracts/utils/math/Math.sol\":5999:6370  assembly {... */\n      swap4\n      0x01\n      dup4\n      dup1\n        /* \"@openzeppelin/contracts/token/ERC20/extensions/ERC4626.sol\":6433:6450  type(uint256).max */\n      0x00\n        /* \"@openzeppelin/contracts/utils/math/Math.sol\":5999:6370  assembly {... */\n      sub\n      div\n      add\n        /* \"@openzeppelin/contracts/utils/math/Math.sol\":5435:5735  assembly {... */\n      swap1\n      dup5\n      dup4\n      gt\n      swap1\n      sub\n        /* \"contracts/contracts/protocol/TuliaVault.sol\":390:557  contract TuliaVault is ERC4626 {... */\n      mul\n        /* \"@openzeppelin/contracts/utils/math/Math.sol\":5435:5735  assembly {... */\n      swap3\n      sub\n        /* \"@openzeppelin/contracts/utils/math/Math.sol\":5999:6370  assembly {... */\n      div\n        /* \"@openzeppelin/contracts/utils/math/Math.sol\":6436:6457  prod0 |= prod1 * twos */\n      or\n        /* \"contracts/contracts/protocol/TuliaVault.sol\":390:557  contract TuliaVault is ERC4626 {... */\n      mul\n        /* \"@openzeppelin/contracts/utils/math/Math.sol\":3803:7919  function mulDiv(uint256 x, uint256 y, uint256 denominator) internal pure returns (uint256 result) {... */\n      swap1\n      jump\t// out\n        /* \"@openzeppelin/contracts/utils/math/Math.sol\":5061:5149  if (denominator <= prod1) {... */\n    tag_346:\n        /* \"contracts/contracts/protocol/TuliaVault.sol\":390:557  contract TuliaVault is ERC4626 {... */\n      mload(0x40)\n      shl(0xe0, 0x227bc153)\n        /* \"@openzeppelin/contracts/utils/math/Math.sol\":5112:5134  MathOverflowedMulDiv() */\n      dup2\n      mstore\n      0x04\n      swap1\n      revert\n        /* \"@openzeppelin/contracts/utils/math/Math.sol\":4591:4959  if (prod1 == 0) {... */\n    tag_344:\n        /* \"contracts/contracts/protocol/TuliaVault.sol\":390:557  contract TuliaVault is ERC4626 {... */\n      pop\n      pop\n      dup1\n      swap3\n      pop\n      iszero\n      tag_338\n      jumpi\n      div\n        /* \"@openzeppelin/contracts/utils/math/Math.sol\":4918:4944  return prod0 / denominator */\n      swap1\n      jump\t// out\n\n    auxdata: 0xa264697066735822122048caf35bcce67208d7eed95bfff446c149e6fd619e66334f4b435391e89e9dd164736f6c63430008140033\n}\n",
				"bytecode": {
					"linkReferences": {},
					"object": "60c080604052346200036857620015af80380380916200002082856200036c565b833981019060608183031262000368578051916001600160a01b0383168303620003685760208281015190926001600160401b03918281116200036857836200006b918301620003ac565b9260408201518381116200036857620000859201620003ac565b825182811162000273576003918254916001958684811c941680156200035d575b8885101462000349578190601f94858111620002f6575b50889085831160011462000293575f9262000287575b50505f1982861b1c191690861b1783555b8051938411620002735760049586548681811c9116801562000268575b8282101462000255578381116200020d575b5080928511600114620001a357509383949184925f9562000197575b50501b925f19911b1c19161790555b620001498162000414565b90156200018e575b60a0526080526040516110d59081620004da823960805181818161050d01528181610ada01528181610c6b0152610e11015260a051816105520152f35b50601262000151565b015193505f806200012f565b92919084601f198116885f52855f20955f905b89838310620001f25750505010620001d8575b50505050811b0190556200013e565b01519060f8845f19921b161c191690555f808080620001c9565b858701518955909701969485019488935090810190620001b6565b875f52815f208480880160051c8201928489106200024b575b0160051c019087905b8281106200023f57505062000113565b5f81550187906200022f565b9250819262000226565b602288634e487b7160e01b5f525260245ffd5b90607f169062000101565b634e487b7160e01b5f52604160045260245ffd5b015190505f80620000d3565b90889350601f19831691875f528a5f20925f5b8c828210620002df5750508411620002c7575b505050811b018355620000e4565b01515f1983881b60f8161c191690555f8080620002b9565b8385015186558c97909501949384019301620002a6565b909150855f52885f208580850160051c8201928b86106200033f575b918a91869594930160051c01915b82811062000330575050620000bd565b5f81558594508a910162000320565b9250819262000312565b634e487b7160e01b5f52602260045260245ffd5b93607f1693620000a6565b5f80fd5b601f909101601f19168101906001600160401b038211908210176200027357604052565b6001600160401b0381116200027357601f01601f191660200190565b919080601f840112156200036857825190620003c88262000390565b91620003d860405193846200036c565b80835260209182828701011162000368575f5b818110620004005750825f9394955001015290565b8581018301518482018401528201620003eb565b6040805163313ce56760e01b60208201908152600482529293929181016001600160401b038111828210176200027357604052515f9384928392916001600160a01b03165afa3d15620004d0573d906200046e8262000390565b916200047e60405193846200036c565b82523d84602084013e5b80620004c3575b6200049a575b508190565b602081805181010312620004bf576020015160ff811162000495576001925060ff1690565b8280fd5b506020815110156200048f565b6060906200048856fe60406080815260049081361015610014575f80fd5b5f90813560e01c92836301e1d114146107ac57836306fdde03146106b957836307a2d13a146104f4578363095ea7b3146106115783630a28a477146105f257836318160ddd146105d457836323b872dd14610598578363313ce5671461053c57836338d52e0f146104f9578363402d267d146101fc5783634cdad506146104f45783636e553f65146104c157836370a08231146104a157836394bf804d1461046a57836395d89b4114610367578363a9059cbb14610337578363b3d7f6b914610318578363b460af941461028c578363ba0876521461020157508263c63d75b6146101fc578263c6e6f59214610135578263ce96cb77146101c5578263d905777e14610185578263dd62ed3e1461013a57505063ef8b30f714610135575f80fd5b6108bf565b3461018157806003193601126101815780602092610156610839565b61015e61084f565b6001600160a01b0391821683526001865283832091168252845220549051908152f35b5080fd5b34610181576020366003190112610181576020906101be6101a4610839565b6001600160a01b03165f9081526020819052604090205490565b9051908152f35b34610181576020366003190112610181576020916101be9082906001600160a01b036101ef610839565b1681528085522054610be6565b610865565b82346102895782906102123661088a565b6001600160a01b038116845260208490529590922054909493908086116102545750508361024e91610245602096610be6565b94859133610d29565b51908152f35b9251632e52afbb60e21b81526001600160a01b0390941690840190815260208101949094525060408301529081906060010390fd5b80fd5b829034610181576102c19183916102a23661088a565b6001600160a01b03811685526020859052969093205490959490610be6565b8086116102e357505061024e90846102da602096610b4e565b94859233610d29565b9251633fa733bb60e21b81526001600160a01b0390941690840190815260208101949094525060408301529081906060010390fd5b913461028957602036600319011261028957506101be60209235610bbb565b5034610181578060031936011261018157602090610360610356610839565b6024359033610913565b5160018152f35b925034610181578160031936011261018157805191809380549160019083821c92828516948515610460575b602095868610811461044d5785895290811561042957506001146103d1575b6103cd87876103c3828c03836108dd565b51918291826107c8565b0390f35b81529295507f8a35acfbc15ff81a39ae7d344fd709f28e8600b4aa8c65c6b64bfe7fe36bd19b5b82841061041657505050826103cd946103c392820101945f806103b2565b80548685018801529286019281016103f8565b60ff19168887015250505050151560051b83010192506103c3826103cd5f806103b2565b634e487b7160e01b845260228352602484fd5b93607f1693610393565b3461049d578160031936011261049d5760209250359061024e61048b61084f565b9261049581610bbb565b809433610c11565b8280fd5b5034610181576020366003190112610181576020906101be6101a4610839565b3461049d578160031936011261049d5760209250359061024e6104e261084f565b6104eb84610b90565b93849133610c11565b61080f565b5034610181578160031936011261018157517f00000000000000000000000000000000000000000000000000000000000000006001600160a01b03168152602090f35b92503461018157816003193601126101815760ff7f0000000000000000000000000000000000000000000000000000000000000000169160ff8311610585576020838351908152f35b634e487b7160e01b815260118452602490fd5b5034610181576060366003190112610181576020906103606105b8610839565b6105c061084f565b604435916105cf8333836109ee565b610913565b50346101815781600319360112610181576020906002549051908152f35b913461028957602036600319011261028957506101be60209235610b4e565b3461049d578160031936011261049d57610629610839565b6024359033156106a2576001600160a01b031691821561068b57508083602095338152600187528181208582528752205582519081527f8c5be1e5ebec7d5bd14f71427d1e84f3dd0314c0f7b2291e5b200ac8c7c3b925843392a35160018152f35b8351634a1406b160e11b8152908101859052602490fd5b835163e602df0560e01b8152808401869052602490fd5b903461049d578260031936011261049d57805191836003549060019082821c9282811680156107a2575b602095868610821461078f575084885290811561076d5750600114610714575b6103cd86866103c3828b03836108dd565b929550600383527fc2575a0e9e593c00f959f8c92f12db2869c3395a3b0502d05e2516446f71f85b5b82841061075a57505050826103cd946103c3928201019486610703565b805486850188015292860192810161073d565b60ff191687860152505050151560051b83010192506103c3826103cd86610703565b634e487b7160e01b845260229052602483fd5b93607f16936106e3565b50346101815781600319360112610181576020906101be610abf565b602080825282518183018190529093925f5b8281106107fb57505060409293505f838284010152601f8019910116010190565b8181018601518482016040015285016107da565b3461083557602036600319011261083557602061082d600435610be6565b604051908152f35b5f80fd5b600435906001600160a01b038216820361083557565b602435906001600160a01b038216820361083557565b346108355760203660031901126108355761087e610839565b5060206040515f198152f35b606090600319011261083557600435906001600160a01b03906024358281168103610835579160443590811681036108355790565b3461083557602036600319011261083557602061082d600435610b90565b90601f8019910116810190811067ffffffffffffffff8211176108ff57604052565b634e487b7160e01b5f52604160045260245ffd5b916001600160a01b038084169283156109d657169283156109be575f908382528160205260408220549083821061098c575091604082827fddf252ad1be2c89b69c2b068fc378daa952ba7f163c4a11628f55a4df523b3ef958760209652828652038282205586815220818154019055604051908152a3565b60405163391434e360e21b81526001600160a01b03919091166004820152602481019190915260448101839052606490fd5b60405163ec442f0560e01b81525f6004820152602490fd5b604051634b637e8f60e11b81525f6004820152602490fd5b9160018060a01b03809316915f9383855260016020526040938486209183169182875260205284862054925f198403610a2b575b50505050505050565b848410610a8f57508015610a77578115610a5f5785526001602052838520908552602052039120555f808080808080610a22565b8451634a1406b160e11b815260048101879052602490fd5b845163e602df0560e01b815260048101879052602490fd5b8551637dc7a0d960e11b81526001600160a01b039190911660048201526024810184905260448101859052606490fd5b6040516370a0823160e01b81523060048201526020816024817f00000000000000000000000000000000000000000000000000000000000000006001600160a01b03165afa908115610b43575f91610b15575090565b906020823d8211610b3b575b81610b2e602093836108dd565b8101031261028957505190565b3d9150610b21565b6040513d5f823e3d90fd5b60025460018101809111610b7c57610b64610abf565b9060018201809211610b7c57610b7992610fce565b90565b634e487b7160e01b5f52601160045260245ffd5b60025460018101809111610b7c57610ba6610abf565b9060018201809211610b7c57610b799261100c565b610bc3610abf565b60018101809111610b7c576002549060018201809211610b7c57610b7992610fce565b610bee610abf565b60018101809111610b7c576002549060018201809211610b7c57610b799261100c565b604080516323b872dd60e01b60208201526001600160a01b0392831660248201819052306044830152606480830187905282529495939192919060a081019067ffffffffffffffff8211818310176108ff57610c8f9185527f0000000000000000000000000000000000000000000000000000000000000000610e98565b16938415610d125760025492808401809411610b7c577fdcbc1c05240f31ff3ad067ef1ee35ce4997762752e3a095284754544f4c709d793600255855f525f602052825f20818154019055855f7fddf252ad1be2c89b69c2b068fc378daa952ba7f163c4a11628f55a4df523b3ef60208651858152a382519182526020820152a3565b815163ec442f0560e01b81525f6004820152602490fd5b6001600160a01b038084169590948583169493909282888703610e87575b505086156109d6575f95878752866020526040948588205490848210610e5657508390898952886020520385882055826002540360025586887fddf252ad1be2c89b69c2b068fc378daa952ba7f163c4a11628f55a4df523b3ef60208851878152a384519163a9059cbb60e01b6020840152169586602483015283604483015260448252608082019082821067ffffffffffffffff831117610e42575084939291610e35917ffbde797d201c681b91056529119e0b02407c7bb96a4a2c75c01fc9667232c8db96527f0000000000000000000000000000000000000000000000000000000000000000610e98565b82519182526020820152a4565b634e487b7160e01b81526041600452602490fd5b865163391434e360e21b81526001600160a01b03919091166004820152602481019190915260448101849052606490fd5b610e9191866109ee565b5f82610d47565b60018060a01b0316905f80826020829451910182865af13d15610f5f573d9067ffffffffffffffff8211610f4b5790610ef39160405191610ee36020601f19601f84011601846108dd565b82523d84602084013e5b84610f6b565b908151918215159283610f23575b505050610f0b5750565b60249060405190635274afe760e01b82526004820152fd5b81929350906020918101031261018157602001519081159182150361028957505f8080610f01565b634e487b7160e01b83526041600452602483fd5b610ef390606090610eed565b90610f925750805115610f8057805190602001fd5b604051630a12f52160e11b8152600490fd5b81511580610fc5575b610fa3575090565b604051639996b31560e01b81526001600160a01b039091166004820152602490fd5b50803b15610f9b565b9190610fdb82828561100c565b928215610ff85709610fea5790565b60018101809111610b7c5790565b634e487b7160e01b5f52601260045260245ffd5b9091828202915f1984820993838086109503948086039514611091578483111561107f57829109815f038216809204600280826003021880830282030280830282030280830282030280830282030280830282030280920290030293600183805f03040190848311900302920304170290565b60405163227bc15360e01b8152600490fd5b505080925015610ff857049056fea264697066735822122048caf35bcce67208d7eed95bfff446c149e6fd619e66334f4b435391e89e9dd164736f6c63430008140033",
					"opcodes": "PUSH1 0xC0 DUP1 PUSH1 0x40 MSTORE CALLVALUE PUSH3 0x368 JUMPI PUSH3 0x15AF DUP1 CODESIZE SUB DUP1 SWAP2 PUSH3 0x20 DUP3 DUP6 PUSH3 0x36C JUMP JUMPDEST DUP4 CODECOPY DUP2 ADD SWAP1 PUSH1 0x60 DUP2 DUP4 SUB SLT PUSH3 0x368 JUMPI DUP1 MLOAD SWAP2 PUSH1 0x1 PUSH1 0x1 PUSH1 0xA0 SHL SUB DUP4 AND DUP4 SUB PUSH3 0x368 JUMPI PUSH1 0x20 DUP3 DUP2 ADD MLOAD SWAP1 SWAP3 PUSH1 0x1 PUSH1 0x1 PUSH1 0x40 SHL SUB SWAP2 DUP3 DUP2 GT PUSH3 0x368 JUMPI DUP4 PUSH3 0x6B SWAP2 DUP4 ADD PUSH3 0x3AC JUMP JUMPDEST SWAP3 PUSH1 0x40 DUP3 ADD MLOAD DUP4 DUP2 GT PUSH3 0x368 JUMPI PUSH3 0x85 SWAP3 ADD PUSH3 0x3AC JUMP JUMPDEST DUP3 MLOAD DUP3 DUP2 GT PUSH3 0x273 JUMPI PUSH1 0x3 SWAP2 DUP3 SLOAD SWAP2 PUSH1 0x1 SWAP6 DUP7 DUP5 DUP2 SHR SWAP5 AND DUP1 ISZERO PUSH3 0x35D JUMPI JUMPDEST DUP9 DUP6 LT EQ PUSH3 0x349 JUMPI DUP2 SWAP1 PUSH1 0x1F SWAP5 DUP6 DUP2 GT PUSH3 0x2F6 JUMPI JUMPDEST POP DUP9 SWAP1 DUP6 DUP4 GT PUSH1 0x1 EQ PUSH3 0x293 JUMPI PUSH0 SWAP3 PUSH3 0x287 JUMPI JUMPDEST POP POP PUSH0 NOT DUP3 DUP7 SHL SHR NOT AND SWAP1 DUP7 SHL OR DUP4 SSTORE JUMPDEST DUP1 MLOAD SWAP4 DUP5 GT PUSH3 0x273 JUMPI PUSH1 0x4 SWAP6 DUP7 SLOAD DUP7 DUP2 DUP2 SHR SWAP2 AND DUP1 ISZERO PUSH3 0x268 JUMPI JUMPDEST DUP3 DUP3 LT EQ PUSH3 0x255 JUMPI DUP4 DUP2 GT PUSH3 0x20D JUMPI JUMPDEST POP DUP1 SWAP3 DUP6 GT PUSH1 0x1 EQ PUSH3 0x1A3 JUMPI POP SWAP4 DUP4 SWAP5 SWAP2 DUP5 SWAP3 PUSH0 SWAP6 PUSH3 0x197 JUMPI JUMPDEST POP POP SHL SWAP3 PUSH0 NOT SWAP2 SHL SHR NOT AND OR SWAP1 SSTORE JUMPDEST PUSH3 0x149 DUP2 PUSH3 0x414 JUMP JUMPDEST SWAP1 ISZERO PUSH3 0x18E JUMPI JUMPDEST PUSH1 0xA0 MSTORE PUSH1 0x80 MSTORE PUSH1 0x40 MLOAD PUSH2 0x10D5 SWAP1 DUP2 PUSH3 0x4DA DUP3 CODECOPY PUSH1 0x80 MLOAD DUP2 DUP2 DUP2 PUSH2 0x50D ADD MSTORE DUP2 DUP2 PUSH2 0xADA ADD MSTORE DUP2 DUP2 PUSH2 0xC6B ADD MSTORE PUSH2 0xE11 ADD MSTORE PUSH1 0xA0 MLOAD DUP2 PUSH2 0x552 ADD MSTORE RETURN JUMPDEST POP PUSH1 0x12 PUSH3 0x151 JUMP JUMPDEST ADD MLOAD SWAP4 POP PUSH0 DUP1 PUSH3 0x12F JUMP JUMPDEST SWAP3 SWAP2 SWAP1 DUP5 PUSH1 0x1F NOT DUP2 AND DUP9 PUSH0 MSTORE DUP6 PUSH0 KECCAK256 SWAP6 PUSH0 SWAP1 JUMPDEST DUP10 DUP4 DUP4 LT PUSH3 0x1F2 JUMPI POP POP POP LT PUSH3 0x1D8 JUMPI JUMPDEST POP POP POP POP DUP2 SHL ADD SWAP1 SSTORE PUSH3 0x13E JUMP JUMPDEST ADD MLOAD SWAP1 PUSH1 0xF8 DUP5 PUSH0 NOT SWAP3 SHL AND SHR NOT AND SWAP1 SSTORE PUSH0 DUP1 DUP1 DUP1 PUSH3 0x1C9 JUMP JUMPDEST DUP6 DUP8 ADD MLOAD DUP10 SSTORE SWAP1 SWAP8 ADD SWAP7 SWAP5 DUP6 ADD SWAP5 DUP9 SWAP4 POP SWAP1 DUP2 ADD SWAP1 PUSH3 0x1B6 JUMP JUMPDEST DUP8 PUSH0 MSTORE DUP2 PUSH0 KECCAK256 DUP5 DUP1 DUP9 ADD PUSH1 0x5 SHR DUP3 ADD SWAP3 DUP5 DUP10 LT PUSH3 0x24B JUMPI JUMPDEST ADD PUSH1 0x5 SHR ADD SWAP1 DUP8 SWAP1 JUMPDEST DUP3 DUP2 LT PUSH3 0x23F JUMPI POP POP PUSH3 0x113 JUMP JUMPDEST PUSH0 DUP2 SSTORE ADD DUP8 SWAP1 PUSH3 0x22F JUMP JUMPDEST SWAP3 POP DUP2 SWAP3 PUSH3 0x226 JUMP JUMPDEST PUSH1 0x22 DUP9 PUSH4 0x4E487B71 PUSH1 0xE0 SHL PUSH0 MSTORE MSTORE PUSH1 0x24 PUSH0 REVERT JUMPDEST SWAP1 PUSH1 0x7F AND SWAP1 PUSH3 0x101 JUMP JUMPDEST PUSH4 0x4E487B71 PUSH1 0xE0 SHL PUSH0 MSTORE PUSH1 0x41 PUSH1 0x4 MSTORE PUSH1 0x24 PUSH0 REVERT JUMPDEST ADD MLOAD SWAP1 POP PUSH0 DUP1 PUSH3 0xD3 JUMP JUMPDEST SWAP1 DUP9 SWAP4 POP PUSH1 0x1F NOT DUP4 AND SWAP2 DUP8 PUSH0 MSTORE DUP11 PUSH0 KECCAK256 SWAP3 PUSH0 JUMPDEST DUP13 DUP3 DUP3 LT PUSH3 0x2DF JUMPI POP POP DUP5 GT PUSH3 0x2C7 JUMPI JUMPDEST POP POP POP DUP2 SHL ADD DUP4 SSTORE PUSH3 0xE4 JUMP JUMPDEST ADD MLOAD PUSH0 NOT DUP4 DUP9 SHL PUSH1 0xF8 AND SHR NOT AND SWAP1 SSTORE PUSH0 DUP1 DUP1 PUSH3 0x2B9 JUMP JUMPDEST DUP4 DUP6 ADD MLOAD DUP7 SSTORE DUP13 SWAP8 SWAP1 SWAP6 ADD SWAP5 SWAP4 DUP5 ADD SWAP4 ADD PUSH3 0x2A6 JUMP JUMPDEST SWAP1 SWAP2 POP DUP6 PUSH0 MSTORE DUP9 PUSH0 KECCAK256 DUP6 DUP1 DUP6 ADD PUSH1 0x5 SHR DUP3 ADD SWAP3 DUP12 DUP7 LT PUSH3 0x33F JUMPI JUMPDEST SWAP2 DUP11 SWAP2 DUP7 SWAP6 SWAP5 SWAP4 ADD PUSH1 0x5 SHR ADD SWAP2 JUMPDEST DUP3 DUP2 LT PUSH3 0x330 JUMPI POP POP PUSH3 0xBD JUMP JUMPDEST PUSH0 DUP2 SSTORE DUP6 SWAP5 POP DUP11 SWAP2 ADD PUSH3 0x320 JUMP JUMPDEST SWAP3 POP DUP2 SWAP3 PUSH3 0x312 JUMP JUMPDEST PUSH4 0x4E487B71 PUSH1 0xE0 SHL PUSH0 MSTORE PUSH1 0x22 PUSH1 0x4 MSTORE PUSH1 0x24 PUSH0 REVERT JUMPDEST SWAP4 PUSH1 0x7F AND SWAP4 PUSH3 0xA6 JUMP JUMPDEST PUSH0 DUP1 REVERT JUMPDEST PUSH1 0x1F SWAP1 SWAP2 ADD PUSH1 0x1F NOT AND DUP2 ADD SWAP1 PUSH1 0x1 PUSH1 0x1 PUSH1 0x40 SHL SUB DUP3 GT SWAP1 DUP3 LT OR PUSH3 0x273 JUMPI PUSH1 0x40 MSTORE JUMP JUMPDEST PUSH1 0x1 PUSH1 0x1 PUSH1 0x40 SHL SUB DUP2 GT PUSH3 0x273 JUMPI PUSH1 0x1F ADD PUSH1 0x1F NOT AND PUSH1 0x20 ADD SWAP1 JUMP JUMPDEST SWAP2 SWAP1 DUP1 PUSH1 0x1F DUP5 ADD SLT ISZERO PUSH3 0x368 JUMPI DUP3 MLOAD SWAP1 PUSH3 0x3C8 DUP3 PUSH3 0x390 JUMP JUMPDEST SWAP2 PUSH3 0x3D8 PUSH1 0x40 MLOAD SWAP4 DUP5 PUSH3 0x36C JUMP JUMPDEST DUP1 DUP4 MSTORE PUSH1 0x20 SWAP2 DUP3 DUP3 DUP8 ADD ADD GT PUSH3 0x368 JUMPI PUSH0 JUMPDEST DUP2 DUP2 LT PUSH3 0x400 JUMPI POP DUP3 PUSH0 SWAP4 SWAP5 SWAP6 POP ADD ADD MSTORE SWAP1 JUMP JUMPDEST DUP6 DUP2 ADD DUP4 ADD MLOAD DUP5 DUP3 ADD DUP5 ADD MSTORE DUP3 ADD PUSH3 0x3EB JUMP JUMPDEST PUSH1 0x40 DUP1 MLOAD PUSH4 0x313CE567 PUSH1 0xE0 SHL PUSH1 0x20 DUP3 ADD SWAP1 DUP2 MSTORE PUSH1 0x4 DUP3 MSTORE SWAP3 SWAP4 SWAP3 SWAP2 DUP2 ADD PUSH1 0x1 PUSH1 0x1 PUSH1 0x40 SHL SUB DUP2 GT DUP3 DUP3 LT OR PUSH3 0x273 JUMPI PUSH1 0x40 MSTORE MLOAD PUSH0 SWAP4 DUP5 SWAP3 DUP4 SWAP3 SWAP2 PUSH1 0x1 PUSH1 0x1 PUSH1 0xA0 SHL SUB AND GAS STATICCALL RETURNDATASIZE ISZERO PUSH3 0x4D0 JUMPI RETURNDATASIZE SWAP1 PUSH3 0x46E DUP3 PUSH3 0x390 JUMP JUMPDEST SWAP2 PUSH3 0x47E PUSH1 0x40 MLOAD SWAP4 DUP5 PUSH3 0x36C JUMP JUMPDEST DUP3 MSTORE RETURNDATASIZE DUP5 PUSH1 0x20 DUP5 ADD RETURNDATACOPY JUMPDEST DUP1 PUSH3 0x4C3 JUMPI JUMPDEST PUSH3 0x49A JUMPI JUMPDEST POP DUP2 SWAP1 JUMP JUMPDEST PUSH1 0x20 DUP2 DUP1 MLOAD DUP2 ADD SUB SLT PUSH3 0x4BF JUMPI PUSH1 0x20 ADD MLOAD PUSH1 0xFF DUP2 GT PUSH3 0x495 JUMPI PUSH1 0x1 SWAP3 POP PUSH1 0xFF AND SWAP1 JUMP JUMPDEST DUP3 DUP1 REVERT JUMPDEST POP PUSH1 0x20 DUP2 MLOAD LT ISZERO PUSH3 0x48F JUMP JUMPDEST PUSH1 0x60 SWAP1 PUSH3 0x488 JUMP INVALID PUSH1 0x40 PUSH1 0x80 DUP2 MSTORE PUSH1 0x4 SWAP1 DUP2 CALLDATASIZE LT ISZERO PUSH2 0x14 JUMPI PUSH0 DUP1 REVERT JUMPDEST PUSH0 SWAP1 DUP2 CALLDATALOAD PUSH1 0xE0 SHR SWAP3 DUP4 PUSH4 0x1E1D114 EQ PUSH2 0x7AC JUMPI DUP4 PUSH4 0x6FDDE03 EQ PUSH2 0x6B9 JUMPI DUP4 PUSH4 0x7A2D13A EQ PUSH2 0x4F4 JUMPI DUP4 PUSH4 0x95EA7B3 EQ PUSH2 0x611 JUMPI DUP4 PUSH4 0xA28A477 EQ PUSH2 0x5F2 JUMPI DUP4 PUSH4 0x18160DDD EQ PUSH2 0x5D4 JUMPI DUP4 PUSH4 0x23B872DD EQ PUSH2 0x598 JUMPI DUP4 PUSH4 0x313CE567 EQ PUSH2 0x53C JUMPI DUP4 PUSH4 0x38D52E0F EQ PUSH2 0x4F9 JUMPI DUP4 PUSH4 0x402D267D EQ PUSH2 0x1FC JUMPI DUP4 PUSH4 0x4CDAD506 EQ PUSH2 0x4F4 JUMPI DUP4 PUSH4 0x6E553F65 EQ PUSH2 0x4C1 JUMPI DUP4 PUSH4 0x70A08231 EQ PUSH2 0x4A1 JUMPI DUP4 PUSH4 0x94BF804D EQ PUSH2 0x46A JUMPI DUP4 PUSH4 0x95D89B41 EQ PUSH2 0x367 JUMPI DUP4 PUSH4 0xA9059CBB EQ PUSH2 0x337 JUMPI DUP4 PUSH4 0xB3D7F6B9 EQ PUSH2 0x318 JUMPI DUP4 PUSH4 0xB460AF94 EQ PUSH2 0x28C JUMPI DUP4 PUSH4 0xBA087652 EQ PUSH2 0x201 JUMPI POP DUP3 PUSH4 0xC63D75B6 EQ PUSH2 0x1FC JUMPI DUP3 PUSH4 0xC6E6F592 EQ PUSH2 0x135 JUMPI DUP3 PUSH4 0xCE96CB77 EQ PUSH2 0x1C5 JUMPI DUP3 PUSH4 0xD905777E EQ PUSH2 0x185 JUMPI DUP3 PUSH4 0xDD62ED3E EQ PUSH2 0x13A JUMPI POP POP PUSH4 0xEF8B30F7 EQ PUSH2 0x135 JUMPI PUSH0 DUP1 REVERT JUMPDEST PUSH2 0x8BF JUMP JUMPDEST CALLVALUE PUSH2 0x181 JUMPI DUP1 PUSH1 0x3 NOT CALLDATASIZE ADD SLT PUSH2 0x181 JUMPI DUP1 PUSH1 0x20 SWAP3 PUSH2 0x156 PUSH2 0x839 JUMP JUMPDEST PUSH2 0x15E PUSH2 0x84F JUMP JUMPDEST PUSH1 0x1 PUSH1 0x1 PUSH1 0xA0 SHL SUB SWAP2 DUP3 AND DUP4 MSTORE PUSH1 0x1 DUP7 MSTORE DUP4 DUP4 KECCAK256 SWAP2 AND DUP3 MSTORE DUP5 MSTORE KECCAK256 SLOAD SWAP1 MLOAD SWAP1 DUP2 MSTORE RETURN JUMPDEST POP DUP1 REVERT JUMPDEST CALLVALUE PUSH2 0x181 JUMPI PUSH1 0x20 CALLDATASIZE PUSH1 0x3 NOT ADD SLT PUSH2 0x181 JUMPI PUSH1 0x20 SWAP1 PUSH2 0x1BE PUSH2 0x1A4 PUSH2 0x839 JUMP JUMPDEST PUSH1 0x1 PUSH1 0x1 PUSH1 0xA0 SHL SUB AND PUSH0 SWAP1 DUP2 MSTORE PUSH1 0x20 DUP2 SWAP1 MSTORE PUSH1 0x40 SWAP1 KECCAK256 SLOAD SWAP1 JUMP JUMPDEST SWAP1 MLOAD SWAP1 DUP2 MSTORE RETURN JUMPDEST CALLVALUE PUSH2 0x181 JUMPI PUSH1 0x20 CALLDATASIZE PUSH1 0x3 NOT ADD SLT PUSH2 0x181 JUMPI PUSH1 0x20 SWAP2 PUSH2 0x1BE SWAP1 DUP3 SWAP1 PUSH1 0x1 PUSH1 0x1 PUSH1 0xA0 SHL SUB PUSH2 0x1EF PUSH2 0x839 JUMP JUMPDEST AND DUP2 MSTORE DUP1 DUP6 MSTORE KECCAK256 SLOAD PUSH2 0xBE6 JUMP JUMPDEST PUSH2 0x865 JUMP JUMPDEST DUP3 CALLVALUE PUSH2 0x289 JUMPI DUP3 SWAP1 PUSH2 0x212 CALLDATASIZE PUSH2 0x88A JUMP JUMPDEST PUSH1 0x1 PUSH1 0x1 PUSH1 0xA0 SHL SUB DUP2 AND DUP5 MSTORE PUSH1 0x20 DUP5 SWAP1 MSTORE SWAP6 SWAP1 SWAP3 KECCAK256 SLOAD SWAP1 SWAP5 SWAP4 SWAP1 DUP1 DUP7 GT PUSH2 0x254 JUMPI POP POP DUP4 PUSH2 0x24E SWAP2 PUSH2 0x245 PUSH1 0x20 SWAP7 PUSH2 0xBE6 JUMP JUMPDEST SWAP5 DUP6 SWAP2 CALLER PUSH2 0xD29 JUMP JUMPDEST MLOAD SWAP1 DUP2 MSTORE RETURN JUMPDEST SWAP3 MLOAD PUSH4 0x2E52AFBB PUSH1 0xE2 SHL DUP2 MSTORE PUSH1 0x1 PUSH1 0x1 PUSH1 0xA0 SHL SUB SWAP1 SWAP5 AND SWAP1 DUP5 ADD SWAP1 DUP2 MSTORE PUSH1 0x20 DUP2 ADD SWAP5 SWAP1 SWAP5 MSTORE POP PUSH1 0x40 DUP4 ADD MSTORE SWAP1 DUP2 SWAP1 PUSH1 0x60 ADD SUB SWAP1 REVERT JUMPDEST DUP1 REVERT JUMPDEST DUP3 SWAP1 CALLVALUE PUSH2 0x181 JUMPI PUSH2 0x2C1 SWAP2 DUP4 SWAP2 PUSH2 0x2A2 CALLDATASIZE PUSH2 0x88A JUMP JUMPDEST PUSH1 0x1 PUSH1 0x1 PUSH1 0xA0 SHL SUB DUP2 AND DUP6 MSTORE PUSH1 0x20 DUP6 SWAP1 MSTORE SWAP7 SWAP1 SWAP4 KECCAK256 SLOAD SWAP1 SWAP6 SWAP5 SWAP1 PUSH2 0xBE6 JUMP JUMPDEST DUP1 DUP7 GT PUSH2 0x2E3 JUMPI POP POP PUSH2 0x24E SWAP1 DUP5 PUSH2 0x2DA PUSH1 0x20 SWAP7 PUSH2 0xB4E JUMP JUMPDEST SWAP5 DUP6 SWAP3 CALLER PUSH2 0xD29 JUMP JUMPDEST SWAP3 MLOAD PUSH4 0x3FA733BB PUSH1 0xE2 SHL DUP2 MSTORE PUSH1 0x1 PUSH1 0x1 PUSH1 0xA0 SHL SUB SWAP1 SWAP5 AND SWAP1 DUP5 ADD SWAP1 DUP2 MSTORE PUSH1 0x20 DUP2 ADD SWAP5 SWAP1 SWAP5 MSTORE POP PUSH1 0x40 DUP4 ADD MSTORE SWAP1 DUP2 SWAP1 PUSH1 0x60 ADD SUB SWAP1 REVERT JUMPDEST SWAP2 CALLVALUE PUSH2 0x289 JUMPI PUSH1 0x20 CALLDATASIZE PUSH1 0x3 NOT ADD SLT PUSH2 0x289 JUMPI POP PUSH2 0x1BE PUSH1 0x20 SWAP3 CALLDATALOAD PUSH2 0xBBB JUMP JUMPDEST POP CALLVALUE PUSH2 0x181 JUMPI DUP1 PUSH1 0x3 NOT CALLDATASIZE ADD SLT PUSH2 0x181 JUMPI PUSH1 0x20 SWAP1 PUSH2 0x360 PUSH2 0x356 PUSH2 0x839 JUMP JUMPDEST PUSH1 0x24 CALLDATALOAD SWAP1 CALLER PUSH2 0x913 JUMP JUMPDEST MLOAD PUSH1 0x1 DUP2 MSTORE RETURN JUMPDEST SWAP3 POP CALLVALUE PUSH2 0x181 JUMPI DUP2 PUSH1 0x3 NOT CALLDATASIZE ADD SLT PUSH2 0x181 JUMPI DUP1 MLOAD SWAP2 DUP1 SWAP4 DUP1 SLOAD SWAP2 PUSH1 0x1 SWAP1 DUP4 DUP3 SHR SWAP3 DUP3 DUP6 AND SWAP5 DUP6 ISZERO PUSH2 0x460 JUMPI JUMPDEST PUSH1 0x20 SWAP6 DUP7 DUP7 LT DUP2 EQ PUSH2 0x44D JUMPI DUP6 DUP10 MSTORE SWAP1 DUP2 ISZERO PUSH2 0x429 JUMPI POP PUSH1 0x1 EQ PUSH2 0x3D1 JUMPI JUMPDEST PUSH2 0x3CD DUP8 DUP8 PUSH2 0x3C3 DUP3 DUP13 SUB DUP4 PUSH2 0x8DD JUMP JUMPDEST MLOAD SWAP2 DUP3 SWAP2 DUP3 PUSH2 0x7C8 JUMP JUMPDEST SUB SWAP1 RETURN JUMPDEST DUP2 MSTORE SWAP3 SWAP6 POP PUSH32 0x8A35ACFBC15FF81A39AE7D344FD709F28E8600B4AA8C65C6B64BFE7FE36BD19B JUMPDEST DUP3 DUP5 LT PUSH2 0x416 JUMPI POP POP POP DUP3 PUSH2 0x3CD SWAP5 PUSH2 0x3C3 SWAP3 DUP3 ADD ADD SWAP5 PUSH0 DUP1 PUSH2 0x3B2 JUMP JUMPDEST DUP1 SLOAD DUP7 DUP6 ADD DUP9 ADD MSTORE SWAP3 DUP7 ADD SWAP3 DUP2 ADD PUSH2 0x3F8 JUMP JUMPDEST PUSH1 0xFF NOT AND DUP9 DUP8 ADD MSTORE POP POP POP POP ISZERO ISZERO PUSH1 0x5 SHL DUP4 ADD ADD SWAP3 POP PUSH2 0x3C3 DUP3 PUSH2 0x3CD PUSH0 DUP1 PUSH2 0x3B2 JUMP JUMPDEST PUSH4 0x4E487B71 PUSH1 0xE0 SHL DUP5 MSTORE PUSH1 0x22 DUP4 MSTORE PUSH1 0x24 DUP5 REVERT JUMPDEST SWAP4 PUSH1 0x7F AND SWAP4 PUSH2 0x393 JUMP JUMPDEST CALLVALUE PUSH2 0x49D JUMPI DUP2 PUSH1 0x3 NOT CALLDATASIZE ADD SLT PUSH2 0x49D JUMPI PUSH1 0x20 SWAP3 POP CALLDATALOAD SWAP1 PUSH2 0x24E PUSH2 0x48B PUSH2 0x84F JUMP JUMPDEST SWAP3 PUSH2 0x495 DUP2 PUSH2 0xBBB JUMP JUMPDEST DUP1 SWAP5 CALLER PUSH2 0xC11 JUMP JUMPDEST DUP3 DUP1 REVERT JUMPDEST POP CALLVALUE PUSH2 0x181 JUMPI PUSH1 0x20 CALLDATASIZE PUSH1 0x3 NOT ADD SLT PUSH2 0x181 JUMPI PUSH1 0x20 SWAP1 PUSH2 0x1BE PUSH2 0x1A4 PUSH2 0x839 JUMP JUMPDEST CALLVALUE PUSH2 0x49D JUMPI DUP2 PUSH1 0x3 NOT CALLDATASIZE ADD SLT PUSH2 0x49D JUMPI PUSH1 0x20 SWAP3 POP CALLDATALOAD SWAP1 PUSH2 0x24E PUSH2 0x4E2 PUSH2 0x84F JUMP JUMPDEST PUSH2 0x4EB DUP5 PUSH2 0xB90 JUMP JUMPDEST SWAP4 DUP5 SWAP2 CALLER PUSH2 0xC11 JUMP JUMPDEST PUSH2 0x80F JUMP JUMPDEST POP CALLVALUE PUSH2 0x181 JUMPI DUP2 PUSH1 0x3 NOT CALLDATASIZE ADD SLT PUSH2 0x181 JUMPI MLOAD PUSH32 0x0 PUSH1 0x1 PUSH1 0x1 PUSH1 0xA0 SHL SUB AND DUP2 MSTORE PUSH1 0x20 SWAP1 RETURN JUMPDEST SWAP3 POP CALLVALUE PUSH2 0x181 JUMPI DUP2 PUSH1 0x3 NOT CALLDATASIZE ADD SLT PUSH2 0x181 JUMPI PUSH1 0xFF PUSH32 0x0 AND SWAP2 PUSH1 0xFF DUP4 GT PUSH2 0x585 JUMPI PUSH1 0x20 DUP4 DUP4 MLOAD SWAP1 DUP2 MSTORE RETURN JUMPDEST PUSH4 0x4E487B71 PUSH1 0xE0 SHL DUP2 MSTORE PUSH1 0x11 DUP5 MSTORE PUSH1 0x24 SWAP1 REVERT JUMPDEST POP CALLVALUE PUSH2 0x181 JUMPI PUSH1 0x60 CALLDATASIZE PUSH1 0x3 NOT ADD SLT PUSH2 0x181 JUMPI PUSH1 0x20 SWAP1 PUSH2 0x360 PUSH2 0x5B8 PUSH2 0x839 JUMP JUMPDEST PUSH2 0x5C0 PUSH2 0x84F JUMP JUMPDEST PUSH1 0x44 CALLDATALOAD SWAP2 PUSH2 0x5CF DUP4 CALLER DUP4 PUSH2 0x9EE JUMP JUMPDEST PUSH2 0x913 JUMP JUMPDEST POP CALLVALUE PUSH2 0x181 JUMPI DUP2 PUSH1 0x3 NOT CALLDATASIZE ADD SLT PUSH2 0x181 JUMPI PUSH1 0x20 SWAP1 PUSH1 0x2 SLOAD SWAP1 MLOAD SWAP1 DUP2 MSTORE RETURN JUMPDEST SWAP2 CALLVALUE PUSH2 0x289 JUMPI PUSH1 0x20 CALLDATASIZE PUSH1 0x3 NOT ADD SLT PUSH2 0x289 JUMPI POP PUSH2 0x1BE PUSH1 0x20 SWAP3 CALLDATALOAD PUSH2 0xB4E JUMP JUMPDEST CALLVALUE PUSH2 0x49D JUMPI DUP2 PUSH1 0x3 NOT CALLDATASIZE ADD SLT PUSH2 0x49D JUMPI PUSH2 0x629 PUSH2 0x839 JUMP JUMPDEST PUSH1 0x24 CALLDATALOAD SWAP1 CALLER ISZERO PUSH2 0x6A2 JUMPI PUSH1 0x1 PUSH1 0x1 PUSH1 0xA0 SHL SUB AND SWAP2 DUP3 ISZERO PUSH2 0x68B JUMPI POP DUP1 DUP4 PUSH1 0x20 SWAP6 CALLER DUP2 MSTORE PUSH1 0x1 DUP8 MSTORE DUP2 DUP2 KECCAK256 DUP6 DUP3 MSTORE DUP8 MSTORE KECCAK256 SSTORE DUP3 MLOAD SWAP1 DUP2 MSTORE PUSH32 0x8C5BE1E5EBEC7D5BD14F71427D1E84F3DD0314C0F7B2291E5B200AC8C7C3B925 DUP5 CALLER SWAP3 LOG3 MLOAD PUSH1 0x1 DUP2 MSTORE RETURN JUMPDEST DUP4 MLOAD PUSH4 0x4A1406B1 PUSH1 0xE1 SHL DUP2 MSTORE SWAP1 DUP2 ADD DUP6 SWAP1 MSTORE PUSH1 0x24 SWAP1 REVERT JUMPDEST DUP4 MLOAD PUSH4 0xE602DF05 PUSH1 0xE0 SHL DUP2 MSTORE DUP1 DUP5 ADD DUP7 SWAP1 MSTORE PUSH1 0x24 SWAP1 REVERT JUMPDEST SWAP1 CALLVALUE PUSH2 0x49D JUMPI DUP3 PUSH1 0x3 NOT CALLDATASIZE ADD SLT PUSH2 0x49D JUMPI DUP1 MLOAD SWAP2 DUP4 PUSH1 0x3 SLOAD SWAP1 PUSH1 0x1 SWAP1 DUP3 DUP3 SHR SWAP3 DUP3 DUP2 AND DUP1 ISZERO PUSH2 0x7A2 JUMPI JUMPDEST PUSH1 0x20 SWAP6 DUP7 DUP7 LT DUP3 EQ PUSH2 0x78F JUMPI POP DUP5 DUP9 MSTORE SWAP1 DUP2 ISZERO PUSH2 0x76D JUMPI POP PUSH1 0x1 EQ PUSH2 0x714 JUMPI JUMPDEST PUSH2 0x3CD DUP7 DUP7 PUSH2 0x3C3 DUP3 DUP12 SUB DUP4 PUSH2 0x8DD JUMP JUMPDEST SWAP3 SWAP6 POP PUSH1 0x3 DUP4 MSTORE PUSH32 0xC2575A0E9E593C00F959F8C92F12DB2869C3395A3B0502D05E2516446F71F85B JUMPDEST DUP3 DUP5 LT PUSH2 0x75A JUMPI POP POP POP DUP3 PUSH2 0x3CD SWAP5 PUSH2 0x3C3 SWAP3 DUP3 ADD ADD SWAP5 DUP7 PUSH2 0x703 JUMP JUMPDEST DUP1 SLOAD DUP7 DUP6 ADD DUP9 ADD MSTORE SWAP3 DUP7 ADD SWAP3 DUP2 ADD PUSH2 0x73D JUMP JUMPDEST PUSH1 0xFF NOT AND DUP8 DUP7 ADD MSTORE POP POP POP ISZERO ISZERO PUSH1 0x5 SHL DUP4 ADD ADD SWAP3 POP PUSH2 0x3C3 DUP3 PUSH2 0x3CD DUP7 PUSH2 0x703 JUMP JUMPDEST PUSH4 0x4E487B71 PUSH1 0xE0 SHL DUP5 MSTORE PUSH1 0x22 SWAP1 MSTORE PUSH1 0x24 DUP4 REVERT JUMPDEST SWAP4 PUSH1 0x7F AND SWAP4 PUSH2 0x6E3 JUMP JUMPDEST POP CALLVALUE PUSH2 0x181 JUMPI DUP2 PUSH1 0x3 NOT CALLDATASIZE ADD SLT PUSH2 0x181 JUMPI PUSH1 0x20 SWAP1 PUSH2 0x1BE PUSH2 0xABF JUMP JUMPDEST PUSH1 0x20 DUP1 DUP3 MSTORE DUP3 MLOAD DUP2 DUP4 ADD DUP2 SWAP1 MSTORE SWAP1 SWAP4 SWAP3 PUSH0 JUMPDEST DUP3 DUP2 LT PUSH2 0x7FB JUMPI POP POP PUSH1 0x40 SWAP3 SWAP4 POP PUSH0 DUP4 DUP3 DUP5 ADD ADD MSTORE PUSH1 0x1F DUP1 NOT SWAP2 ADD AND ADD ADD SWAP1 JUMP JUMPDEST DUP2 DUP2 ADD DUP7 ADD MLOAD DUP5 DUP3 ADD PUSH1 0x40 ADD MSTORE DUP6 ADD PUSH2 0x7DA JUMP JUMPDEST CALLVALUE PUSH2 0x835 JUMPI PUSH1 0x20 CALLDATASIZE PUSH1 0x3 NOT ADD SLT PUSH2 0x835 JUMPI PUSH1 0x20 PUSH2 0x82D PUSH1 0x4 CALLDATALOAD PUSH2 0xBE6 JUMP JUMPDEST PUSH1 0x40 MLOAD SWAP1 DUP2 MSTORE RETURN JUMPDEST PUSH0 DUP1 REVERT JUMPDEST PUSH1 0x4 CALLDATALOAD SWAP1 PUSH1 0x1 PUSH1 0x1 PUSH1 0xA0 SHL SUB DUP3 AND DUP3 SUB PUSH2 0x835 JUMPI JUMP JUMPDEST PUSH1 0x24 CALLDATALOAD SWAP1 PUSH1 0x1 PUSH1 0x1 PUSH1 0xA0 SHL SUB DUP3 AND DUP3 SUB PUSH2 0x835 JUMPI JUMP JUMPDEST CALLVALUE PUSH2 0x835 JUMPI PUSH1 0x20 CALLDATASIZE PUSH1 0x3 NOT ADD SLT PUSH2 0x835 JUMPI PUSH2 0x87E PUSH2 0x839 JUMP JUMPDEST POP PUSH1 0x20 PUSH1 0x40 MLOAD PUSH0 NOT DUP2 MSTORE RETURN JUMPDEST PUSH1 0x60 SWAP1 PUSH1 0x3 NOT ADD SLT PUSH2 0x835 JUMPI PUSH1 0x4 CALLDATALOAD SWAP1 PUSH1 0x1 PUSH1 0x1 PUSH1 0xA0 SHL SUB SWAP1 PUSH1 0x24 CALLDATALOAD DUP3 DUP2 AND DUP2 SUB PUSH2 0x835 JUMPI SWAP2 PUSH1 0x44 CALLDATALOAD SWAP1 DUP2 AND DUP2 SUB PUSH2 0x835 JUMPI SWAP1 JUMP JUMPDEST CALLVALUE PUSH2 0x835 JUMPI PUSH1 0x20 CALLDATASIZE PUSH1 0x3 NOT ADD SLT PUSH2 0x835 JUMPI PUSH1 0x20 PUSH2 0x82D PUSH1 0x4 CALLDATALOAD PUSH2 0xB90 JUMP JUMPDEST SWAP1 PUSH1 0x1F DUP1 NOT SWAP2 ADD AND DUP2 ADD SWAP1 DUP2 LT PUSH8 0xFFFFFFFFFFFFFFFF DUP3 GT OR PUSH2 0x8FF JUMPI PUSH1 0x40 MSTORE JUMP JUMPDEST PUSH4 0x4E487B71 PUSH1 0xE0 SHL PUSH0 MSTORE PUSH1 0x41 PUSH1 0x4 MSTORE PUSH1 0x24 PUSH0 REVERT JUMPDEST SWAP2 PUSH1 0x1 PUSH1 0x1 PUSH1 0xA0 SHL SUB DUP1 DUP5 AND SWAP3 DUP4 ISZERO PUSH2 0x9D6 JUMPI AND SWAP3 DUP4 ISZERO PUSH2 0x9BE JUMPI PUSH0 SWAP1 DUP4 DUP3 MSTORE DUP2 PUSH1 0x20 MSTORE PUSH1 0x40 DUP3 KECCAK256 SLOAD SWAP1 DUP4 DUP3 LT PUSH2 0x98C JUMPI POP SWAP2 PUSH1 0x40 DUP3 DUP3 PUSH32 0xDDF252AD1BE2C89B69C2B068FC378DAA952BA7F163C4A11628F55A4DF523B3EF SWAP6 DUP8 PUSH1 0x20 SWAP7 MSTORE DUP3 DUP7 MSTORE SUB DUP3 DUP3 KECCAK256 SSTORE DUP7 DUP2 MSTORE KECCAK256 DUP2 DUP2 SLOAD ADD SWAP1 SSTORE PUSH1 0x40 MLOAD SWAP1 DUP2 MSTORE LOG3 JUMP JUMPDEST PUSH1 0x40 MLOAD PUSH4 0x391434E3 PUSH1 0xE2 SHL DUP2 MSTORE PUSH1 0x1 PUSH1 0x1 PUSH1 0xA0 SHL SUB SWAP2 SWAP1 SWAP2 AND PUSH1 0x4 DUP3 ADD MSTORE PUSH1 0x24 DUP2 ADD SWAP2 SWAP1 SWAP2 MSTORE PUSH1 0x44 DUP2 ADD DUP4 SWAP1 MSTORE PUSH1 0x64 SWAP1 REVERT JUMPDEST PUSH1 0x40 MLOAD PUSH4 0xEC442F05 PUSH1 0xE0 SHL DUP2 MSTORE PUSH0 PUSH1 0x4 DUP3 ADD MSTORE PUSH1 0x24 SWAP1 REVERT JUMPDEST PUSH1 0x40 MLOAD PUSH4 0x4B637E8F PUSH1 0xE1 SHL DUP2 MSTORE PUSH0 PUSH1 0x4 DUP3 ADD MSTORE PUSH1 0x24 SWAP1 REVERT JUMPDEST SWAP2 PUSH1 0x1 DUP1 PUSH1 0xA0 SHL SUB DUP1 SWAP4 AND SWAP2 PUSH0 SWAP4 DUP4 DUP6 MSTORE PUSH1 0x1 PUSH1 0x20 MSTORE PUSH1 0x40 SWAP4 DUP5 DUP7 KECCAK256 SWAP2 DUP4 AND SWAP2 DUP3 DUP8 MSTORE PUSH1 0x20 MSTORE DUP5 DUP7 KECCAK256 SLOAD SWAP3 PUSH0 NOT DUP5 SUB PUSH2 0xA2B JUMPI JUMPDEST POP POP POP POP POP POP POP JUMP JUMPDEST DUP5 DUP5 LT PUSH2 0xA8F JUMPI POP DUP1 ISZERO PUSH2 0xA77 JUMPI DUP2 ISZERO PUSH2 0xA5F JUMPI DUP6 MSTORE PUSH1 0x1 PUSH1 0x20 MSTORE DUP4 DUP6 KECCAK256 SWAP1 DUP6 MSTORE PUSH1 0x20 MSTORE SUB SWAP2 KECCAK256 SSTORE PUSH0 DUP1 DUP1 DUP1 DUP1 DUP1 DUP1 PUSH2 0xA22 JUMP JUMPDEST DUP5 MLOAD PUSH4 0x4A1406B1 PUSH1 0xE1 SHL DUP2 MSTORE PUSH1 0x4 DUP2 ADD DUP8 SWAP1 MSTORE PUSH1 0x24 SWAP1 REVERT JUMPDEST DUP5 MLOAD PUSH4 0xE602DF05 PUSH1 0xE0 SHL DUP2 MSTORE PUSH1 0x4 DUP2 ADD DUP8 SWAP1 MSTORE PUSH1 0x24 SWAP1 REVERT JUMPDEST DUP6 MLOAD PUSH4 0x7DC7A0D9 PUSH1 0xE1 SHL DUP2 MSTORE PUSH1 0x1 PUSH1 0x1 PUSH1 0xA0 SHL SUB SWAP2 SWAP1 SWAP2 AND PUSH1 0x4 DUP3 ADD MSTORE PUSH1 0x24 DUP2 ADD DUP5 SWAP1 MSTORE PUSH1 0x44 DUP2 ADD DUP6 SWAP1 MSTORE PUSH1 0x64 SWAP1 REVERT JUMPDEST PUSH1 0x40 MLOAD PUSH4 0x70A08231 PUSH1 0xE0 SHL DUP2 MSTORE ADDRESS PUSH1 0x4 DUP3 ADD MSTORE PUSH1 0x20 DUP2 PUSH1 0x24 DUP2 PUSH32 0x0 PUSH1 0x1 PUSH1 0x1 PUSH1 0xA0 SHL SUB AND GAS STATICCALL SWAP1 DUP2 ISZERO PUSH2 0xB43 JUMPI PUSH0 SWAP2 PUSH2 0xB15 JUMPI POP SWAP1 JUMP JUMPDEST SWAP1 PUSH1 0x20 DUP3 RETURNDATASIZE DUP3 GT PUSH2 0xB3B JUMPI JUMPDEST DUP2 PUSH2 0xB2E PUSH1 0x20 SWAP4 DUP4 PUSH2 0x8DD JUMP JUMPDEST DUP2 ADD SUB SLT PUSH2 0x289 JUMPI POP MLOAD SWAP1 JUMP JUMPDEST RETURNDATASIZE SWAP2 POP PUSH2 0xB21 JUMP JUMPDEST PUSH1 0x40 MLOAD RETURNDATASIZE PUSH0 DUP3 RETURNDATACOPY RETURNDATASIZE SWAP1 REVERT JUMPDEST PUSH1 0x2 SLOAD PUSH1 0x1 DUP2 ADD DUP1 SWAP2 GT PUSH2 0xB7C JUMPI PUSH2 0xB64 PUSH2 0xABF JUMP JUMPDEST SWAP1 PUSH1 0x1 DUP3 ADD DUP1 SWAP3 GT PUSH2 0xB7C JUMPI PUSH2 0xB79 SWAP3 PUSH2 0xFCE JUMP JUMPDEST SWAP1 JUMP JUMPDEST PUSH4 0x4E487B71 PUSH1 0xE0 SHL PUSH0 MSTORE PUSH1 0x11 PUSH1 0x4 MSTORE PUSH1 0x24 PUSH0 REVERT JUMPDEST PUSH1 0x2 SLOAD PUSH1 0x1 DUP2 ADD DUP1 SWAP2 GT PUSH2 0xB7C JUMPI PUSH2 0xBA6 PUSH2 0xABF JUMP JUMPDEST SWAP1 PUSH1 0x1 DUP3 ADD DUP1 SWAP3 GT PUSH2 0xB7C JUMPI PUSH2 0xB79 SWAP3 PUSH2 0x100C JUMP JUMPDEST PUSH2 0xBC3 PUSH2 0xABF JUMP JUMPDEST PUSH1 0x1 DUP2 ADD DUP1 SWAP2 GT PUSH2 0xB7C JUMPI PUSH1 0x2 SLOAD SWAP1 PUSH1 0x1 DUP3 ADD DUP1 SWAP3 GT PUSH2 0xB7C JUMPI PUSH2 0xB79 SWAP3 PUSH2 0xFCE JUMP JUMPDEST PUSH2 0xBEE PUSH2 0xABF JUMP JUMPDEST PUSH1 0x1 DUP2 ADD DUP1 SWAP2 GT PUSH2 0xB7C JUMPI PUSH1 0x2 SLOAD SWAP1 PUSH1 0x1 DUP3 ADD DUP1 SWAP3 GT PUSH2 0xB7C JUMPI PUSH2 0xB79 SWAP3 PUSH2 0x100C JUMP JUMPDEST PUSH1 0x40 DUP1 MLOAD PUSH4 0x23B872DD PUSH1 0xE0 SHL PUSH1 0x20 DUP3 ADD MSTORE PUSH1 0x1 PUSH1 0x1 PUSH1 0xA0 SHL SUB SWAP3 DUP4 AND PUSH1 0x24 DUP3 ADD DUP2 SWAP1 MSTORE ADDRESS PUSH1 0x44 DUP4 ADD MSTORE PUSH1 0x64 DUP1 DUP4 ADD DUP8 SWAP1 MSTORE DUP3 MSTORE SWAP5 SWAP6 SWAP4 SWAP2 SWAP3 SWAP2 SWAP1 PUSH1 0xA0 DUP2 ADD SWAP1 PUSH8 0xFFFFFFFFFFFFFFFF DUP3 GT DUP2 DUP4 LT OR PUSH2 0x8FF JUMPI PUSH2 0xC8F SWAP2 DUP6 MSTORE PUSH32 0x0 PUSH2 0xE98 JUMP JUMPDEST AND SWAP4 DUP5 ISZERO PUSH2 0xD12 JUMPI PUSH1 0x2 SLOAD SWAP3 DUP1 DUP5 ADD DUP1 SWAP5 GT PUSH2 0xB7C JUMPI PUSH32 0xDCBC1C05240F31FF3AD067EF1EE35CE4997762752E3A095284754544F4C709D7 SWAP4 PUSH1 0x2 SSTORE DUP6 PUSH0 MSTORE PUSH0 PUSH1 0x20 MSTORE DUP3 PUSH0 KECCAK256 DUP2 DUP2 SLOAD ADD SWAP1 SSTORE DUP6 PUSH0 PUSH32 0xDDF252AD1BE2C89B69C2B068FC378DAA952BA7F163C4A11628F55A4DF523B3EF PUSH1 0x20 DUP7 MLOAD DUP6 DUP2 MSTORE LOG3 DUP3 MLOAD SWAP2 DUP3 MSTORE PUSH1 0x20 DUP3 ADD MSTORE LOG3 JUMP JUMPDEST DUP2 MLOAD PUSH4 0xEC442F05 PUSH1 0xE0 SHL DUP2 MSTORE PUSH0 PUSH1 0x4 DUP3 ADD MSTORE PUSH1 0x24 SWAP1 REVERT JUMPDEST PUSH1 0x1 PUSH1 0x1 PUSH1 0xA0 SHL SUB DUP1 DUP5 AND SWAP6 SWAP1 SWAP5 DUP6 DUP4 AND SWAP5 SWAP4 SWAP1 SWAP3 DUP3 DUP9 DUP8 SUB PUSH2 0xE87 JUMPI JUMPDEST POP POP DUP7 ISZERO PUSH2 0x9D6 JUMPI PUSH0 SWAP6 DUP8 DUP8 MSTORE DUP7 PUSH1 0x20 MSTORE PUSH1 0x40 SWAP5 DUP6 DUP9 KECCAK256 SLOAD SWAP1 DUP5 DUP3 LT PUSH2 0xE56 JUMPI POP DUP4 SWAP1 DUP10 DUP10 MSTORE DUP9 PUSH1 0x20 MSTORE SUB DUP6 DUP9 KECCAK256 SSTORE DUP3 PUSH1 0x2 SLOAD SUB PUSH1 0x2 SSTORE DUP7 DUP9 PUSH32 0xDDF252AD1BE2C89B69C2B068FC378DAA952BA7F163C4A11628F55A4DF523B3EF PUSH1 0x20 DUP9 MLOAD DUP8 DUP2 MSTORE LOG3 DUP5 MLOAD SWAP2 PUSH4 0xA9059CBB PUSH1 0xE0 SHL PUSH1 0x20 DUP5 ADD MSTORE AND SWAP6 DUP7 PUSH1 0x24 DUP4 ADD MSTORE DUP4 PUSH1 0x44 DUP4 ADD MSTORE PUSH1 0x44 DUP3 MSTORE PUSH1 0x80 DUP3 ADD SWAP1 DUP3 DUP3 LT PUSH8 0xFFFFFFFFFFFFFFFF DUP4 GT OR PUSH2 0xE42 JUMPI POP DUP5 SWAP4 SWAP3 SWAP2 PUSH2 0xE35 SWAP2 PUSH32 0xFBDE797D201C681B91056529119E0B02407C7BB96A4A2C75C01FC9667232C8DB SWAP7 MSTORE PUSH32 0x0 PUSH2 0xE98 JUMP JUMPDEST DUP3 MLOAD SWAP2 DUP3 MSTORE PUSH1 0x20 DUP3 ADD MSTORE LOG4 JUMP JUMPDEST PUSH4 0x4E487B71 PUSH1 0xE0 SHL DUP2 MSTORE PUSH1 0x41 PUSH1 0x4 MSTORE PUSH1 0x24 SWAP1 REVERT JUMPDEST DUP7 MLOAD PUSH4 0x391434E3 PUSH1 0xE2 SHL DUP2 MSTORE PUSH1 0x1 PUSH1 0x1 PUSH1 0xA0 SHL SUB SWAP2 SWAP1 SWAP2 AND PUSH1 0x4 DUP3 ADD MSTORE PUSH1 0x24 DUP2 ADD SWAP2 SWAP1 SWAP2 MSTORE PUSH1 0x44 DUP2 ADD DUP5 SWAP1 MSTORE PUSH1 0x64 SWAP1 REVERT JUMPDEST PUSH2 0xE91 SWAP2 DUP7 PUSH2 0x9EE JUMP JUMPDEST PUSH0 DUP3 PUSH2 0xD47 JUMP JUMPDEST PUSH1 0x1 DUP1 PUSH1 0xA0 SHL SUB AND SWAP1 PUSH0 DUP1 DUP3 PUSH1 0x20 DUP3 SWAP5 MLOAD SWAP2 ADD DUP3 DUP7 GAS CALL RETURNDATASIZE ISZERO PUSH2 0xF5F JUMPI RETURNDATASIZE SWAP1 PUSH8 0xFFFFFFFFFFFFFFFF DUP3 GT PUSH2 0xF4B JUMPI SWAP1 PUSH2 0xEF3 SWAP2 PUSH1 0x40 MLOAD SWAP2 PUSH2 0xEE3 PUSH1 0x20 PUSH1 0x1F NOT PUSH1 0x1F DUP5 ADD AND ADD DUP5 PUSH2 0x8DD JUMP JUMPDEST DUP3 MSTORE RETURNDATASIZE DUP5 PUSH1 0x20 DUP5 ADD RETURNDATACOPY JUMPDEST DUP5 PUSH2 0xF6B JUMP JUMPDEST SWAP1 DUP2 MLOAD SWAP2 DUP3 ISZERO ISZERO SWAP3 DUP4 PUSH2 0xF23 JUMPI JUMPDEST POP POP POP PUSH2 0xF0B JUMPI POP JUMP JUMPDEST PUSH1 0x24 SWAP1 PUSH1 0x40 MLOAD SWAP1 PUSH4 0x5274AFE7 PUSH1 0xE0 SHL DUP3 MSTORE PUSH1 0x4 DUP3 ADD MSTORE REVERT JUMPDEST DUP2 SWAP3 SWAP4 POP SWAP1 PUSH1 0x20 SWAP2 DUP2 ADD SUB SLT PUSH2 0x181 JUMPI PUSH1 0x20 ADD MLOAD SWAP1 DUP2 ISZERO SWAP2 DUP3 ISZERO SUB PUSH2 0x289 JUMPI POP PUSH0 DUP1 DUP1 PUSH2 0xF01 JUMP JUMPDEST PUSH4 0x4E487B71 PUSH1 0xE0 SHL DUP4 MSTORE PUSH1 0x41 PUSH1 0x4 MSTORE PUSH1 0x24 DUP4 REVERT JUMPDEST PUSH2 0xEF3 SWAP1 PUSH1 0x60 SWAP1 PUSH2 0xEED JUMP JUMPDEST SWAP1 PUSH2 0xF92 JUMPI POP DUP1 MLOAD ISZERO PUSH2 0xF80 JUMPI DUP1 MLOAD SWAP1 PUSH1 0x20 ADD REVERT JUMPDEST PUSH1 0x40 MLOAD PUSH4 0xA12F521 PUSH1 0xE1 SHL DUP2 MSTORE PUSH1 0x4 SWAP1 REVERT JUMPDEST DUP2 MLOAD ISZERO DUP1 PUSH2 0xFC5 JUMPI JUMPDEST PUSH2 0xFA3 JUMPI POP SWAP1 JUMP JUMPDEST PUSH1 0x40 MLOAD PUSH4 0x9996B315 PUSH1 0xE0 SHL DUP2 MSTORE PUSH1 0x1 PUSH1 0x1 PUSH1 0xA0 SHL SUB SWAP1 SWAP2 AND PUSH1 0x4 DUP3 ADD MSTORE PUSH1 0x24 SWAP1 REVERT JUMPDEST POP DUP1 EXTCODESIZE ISZERO PUSH2 0xF9B JUMP JUMPDEST SWAP2 SWAP1 PUSH2 0xFDB DUP3 DUP3 DUP6 PUSH2 0x100C JUMP JUMPDEST SWAP3 DUP3 ISZERO PUSH2 0xFF8 JUMPI MULMOD PUSH2 0xFEA JUMPI SWAP1 JUMP JUMPDEST PUSH1 0x1 DUP2 ADD DUP1 SWAP2 GT PUSH2 0xB7C JUMPI SWAP1 JUMP JUMPDEST PUSH4 0x4E487B71 PUSH1 0xE0 SHL PUSH0 MSTORE PUSH1 0x12 PUSH1 0x4 MSTORE PUSH1 0x24 PUSH0 REVERT JUMPDEST SWAP1 SWAP2 DUP3 DUP3 MUL SWAP2 PUSH0 NOT DUP5 DUP3 MULMOD SWAP4 DUP4 DUP1 DUP7 LT SWAP6 SUB SWAP5 DUP1 DUP7 SUB SWAP6 EQ PUSH2 0x1091 JUMPI DUP5 DUP4 GT ISZERO PUSH2 0x107F JUMPI DUP3 SWAP2 MULMOD DUP2 PUSH0 SUB DUP3 AND DUP1 SWAP3 DIV PUSH1 0x2 DUP1 DUP3 PUSH1 0x3 MUL XOR DUP1 DUP4 MUL DUP3 SUB MUL DUP1 DUP4 MUL DUP3 SUB MUL DUP1 DUP4 MUL DUP3 SUB MUL DUP1 DUP4 MUL DUP3 SUB MUL DUP1 DUP4 MUL DUP3 SUB MUL DUP1 SWAP3 MUL SWAP1 SUB MUL SWAP4 PUSH1 0x1 DUP4 DUP1 PUSH0 SUB DIV ADD SWAP1 DUP5 DUP4 GT SWAP1 SUB MUL SWAP3 SUB DIV OR MUL SWAP1 JUMP JUMPDEST PUSH1 0x40 MLOAD PUSH4 0x227BC153 PUSH1 0xE0 SHL DUP2 MSTORE PUSH1 0x4 SWAP1 REVERT JUMPDEST POP POP DUP1 SWAP3 POP ISZERO PUSH2 0xFF8 JUMPI DIV SWAP1 JUMP INVALID LOG2 PUSH5 0x6970667358 0x22 SLT KECCAK256 BASEFEE 0xCA RETURN JUMPDEST 0xCC 0xE6 PUSH19 0x8D7EED95BFFF446C149E6FD619E66334F4B43 MSTORE8 SWAP2 0xE8 SWAP15 SWAP14 0xD1 PUSH5 0x736F6C6343 STOP ADDMOD EQ STOP CALLER "
				},
				"gasEstimates": {
					"creation": {
						"codeDepositCost": "861800",
						"executionCost": "infinite",
						"totalCost": "infinite"
					},
					"external": {
						"allowance(address,address)": "3071",
						"approve(address,uint256)": "24382",
						"asset()": "infinite",
						"balanceOf(address)": "2710",
						"convertToAssets(uint256)": "infinite",
						"convertToShares(uint256)": "infinite",
						"decimals()": "infinite",
						"deposit(uint256,address)": "infinite",
						"maxDeposit(address)": "451",
						"maxMint(address)": "673",
						"maxRedeem(address)": "2930",
						"maxWithdraw(address)": "infinite",
						"mint(uint256,address)": "infinite",
						"name()": "infinite",
						"previewDeposit(uint256)": "infinite",
						"previewMint(uint256)": "infinite",
						"previewRedeem(uint256)": "infinite",
						"previewWithdraw(uint256)": "infinite",
						"redeem(uint256,address,address)": "infinite",
						"symbol()": "infinite",
						"totalAssets()": "infinite",
						"totalSupply()": "2382",
						"transfer(address,uint256)": "51100",
						"transferFrom(address,address,uint256)": "75649",
						"withdraw(uint256,address,address)": "infinite"
					}
				},
				"methodIdentifiers": {
					"allowance(address,address)": "dd62ed3e",
					"approve(address,uint256)": "095ea7b3",
					"asset()": "38d52e0f",
					"balanceOf(address)": "70a08231",
					"convertToAssets(uint256)": "07a2d13a",
					"convertToShares(uint256)": "c6e6f592",
					"decimals()": "313ce567",
					"deposit(uint256,address)": "6e553f65",
					"maxDeposit(address)": "402d267d",
					"maxMint(address)": "c63d75b6",
					"maxRedeem(address)": "d905777e",
					"maxWithdraw(address)": "ce96cb77",
					"mint(uint256,address)": "94bf804d",
					"name()": "06fdde03",
					"previewDeposit(uint256)": "ef8b30f7",
					"previewMint(uint256)": "b3d7f6b9",
					"previewRedeem(uint256)": "4cdad506",
					"previewWithdraw(uint256)": "0a28a477",
					"redeem(uint256,address,address)": "ba087652",
					"symbol()": "95d89b41",
					"totalAssets()": "01e1d114",
					"totalSupply()": "18160ddd",
					"transfer(address,uint256)": "a9059cbb",
					"transferFrom(address,address,uint256)": "23b872dd",
					"withdraw(uint256,address,address)": "b460af94"
				}
			},
			"storageLayout": {
				"storage": [
					{
						"astId": 394,
						"contract": "contracts/contracts/protocol/TuliaVault.sol:TuliaVault",
						"label": "_balances",
						"offset": 0,
						"slot": "0",
						"type": "t_mapping(t_address,t_uint256)"
					},
					{
						"astId": 400,
						"contract": "contracts/contracts/protocol/TuliaVault.sol:TuliaVault",
						"label": "_allowances",
						"offset": 0,
						"slot": "1",
						"type": "t_mapping(t_address,t_mapping(t_address,t_uint256))"
					},
					{
						"astId": 402,
						"contract": "contracts/contracts/protocol/TuliaVault.sol:TuliaVault",
						"label": "_totalSupply",
						"offset": 0,
						"slot": "2",
						"type": "t_uint256"
					},
					{
						"astId": 404,
						"contract": "contracts/contracts/protocol/TuliaVault.sol:TuliaVault",
						"label": "_name",
						"offset": 0,
						"slot": "3",
						"type": "t_string_storage"
					},
					{
						"astId": 406,
						"contract": "contracts/contracts/protocol/TuliaVault.sol:TuliaVault",
						"label": "_symbol",
						"offset": 0,
						"slot": "4",
						"type": "t_string_storage"
					}
				],
				"types": {
					"t_address": {
						"encoding": "inplace",
						"label": "address",
						"numberOfBytes": "20"
					},
					"t_mapping(t_address,t_mapping(t_address,t_uint256))": {
						"encoding": "mapping",
						"key": "t_address",
						"label": "mapping(address => mapping(address => uint256))",
						"numberOfBytes": "32",
						"value": "t_mapping(t_address,t_uint256)"
					},
					"t_mapping(t_address,t_uint256)": {
						"encoding": "mapping",
						"key": "t_address",
						"label": "mapping(address => uint256)",
						"numberOfBytes": "32",
						"value": "t_uint256"
					},
					"t_string_storage": {
						"encoding": "bytes",
						"label": "string",
						"numberOfBytes": "32"
					},
					"t_uint256": {
						"encoding": "inplace",
						"label": "uint256",
						"numberOfBytes": "32"
					}
				}
			},
			"userdoc": {
				"kind": "user",
				"methods": {},
				"notice": "Manages the vault where assets are stored and facilitates tokenized shares representing ownership of the underlying assets.",
				"version": 1
			}
		}
	}
}