{
	"contracts/contracts/tokens/MockTokenCreator.sol": {
		"MockTokenCreator": {
			"abi": [
				{
					"inputs": [
						{
							"internalType": "string",
							"name": "name",
							"type": "string"
						},
						{
							"internalType": "string",
							"name": "symbol",
							"type": "string"
						}
					],
					"stateMutability": "nonpayable",
					"type": "constructor"
				},
				{
					"inputs": [],
					"name": "ECDSAInvalidSignature",
					"type": "error"
				},
				{
					"inputs": [
						{
							"internalType": "uint256",
							"name": "length",
							"type": "uint256"
						}
					],
					"name": "ECDSAInvalidSignatureLength",
					"type": "error"
				},
				{
					"inputs": [
						{
							"internalType": "bytes32",
							"name": "s",
							"type": "bytes32"
						}
					],
					"name": "ECDSAInvalidSignatureS",
					"type": "error"
				},
				{
					"inputs": [
						{
							"internalType": "address",
							"name": "spender",
							"type": "address"
						},
						{
							"internalType": "uint256",
							"name": "allowance",
							"type": "uint256"
						},
						{
							"internalType": "uint256",
							"name": "needed",
							"type": "uint256"
						}
					],
					"name": "ERC20InsufficientAllowance",
					"type": "error"
				},
				{
					"inputs": [
						{
							"internalType": "address",
							"name": "sender",
							"type": "address"
						},
						{
							"internalType": "uint256",
							"name": "balance",
							"type": "uint256"
						},
						{
							"internalType": "uint256",
							"name": "needed",
							"type": "uint256"
						}
					],
					"name": "ERC20InsufficientBalance",
					"type": "error"
				},
				{
					"inputs": [
						{
							"internalType": "address",
							"name": "approver",
							"type": "address"
						}
					],
					"name": "ERC20InvalidApprover",
					"type": "error"
				},
				{
					"inputs": [
						{
							"internalType": "address",
							"name": "receiver",
							"type": "address"
						}
					],
					"name": "ERC20InvalidReceiver",
					"type": "error"
				},
				{
					"inputs": [
						{
							"internalType": "address",
							"name": "sender",
							"type": "address"
						}
					],
					"name": "ERC20InvalidSender",
					"type": "error"
				},
				{
					"inputs": [
						{
							"internalType": "address",
							"name": "spender",
							"type": "address"
						}
					],
					"name": "ERC20InvalidSpender",
					"type": "error"
				},
				{
					"inputs": [
						{
							"internalType": "uint256",
							"name": "deadline",
							"type": "uint256"
						}
					],
					"name": "ERC2612ExpiredSignature",
					"type": "error"
				},
				{
					"inputs": [
						{
							"internalType": "address",
							"name": "signer",
							"type": "address"
						},
						{
							"internalType": "address",
							"name": "owner",
							"type": "address"
						}
					],
					"name": "ERC2612InvalidSigner",
					"type": "error"
				},
				{
					"inputs": [
						{
							"internalType": "address",
							"name": "account",
							"type": "address"
						},
						{
							"internalType": "uint256",
							"name": "currentNonce",
							"type": "uint256"
						}
					],
					"name": "InvalidAccountNonce",
					"type": "error"
				},
				{
					"inputs": [],
					"name": "InvalidShortString",
					"type": "error"
				},
				{
					"inputs": [
						{
							"internalType": "string",
							"name": "str",
							"type": "string"
						}
					],
					"name": "StringTooLong",
					"type": "error"
				},
				{
					"anonymous": false,
					"inputs": [
						{
							"indexed": true,
							"internalType": "address",
							"name": "owner",
							"type": "address"
						},
						{
							"indexed": true,
							"internalType": "address",
							"name": "spender",
							"type": "address"
						},
						{
							"indexed": false,
							"internalType": "uint256",
							"name": "value",
							"type": "uint256"
						}
					],
					"name": "Approval",
					"type": "event"
				},
				{
					"anonymous": false,
					"inputs": [],
					"name": "EIP712DomainChanged",
					"type": "event"
				},
				{
					"anonymous": false,
					"inputs": [
						{
							"indexed": true,
							"internalType": "address",
							"name": "from",
							"type": "address"
						},
						{
							"indexed": true,
							"internalType": "address",
							"name": "to",
							"type": "address"
						},
						{
							"indexed": false,
							"internalType": "uint256",
							"name": "value",
							"type": "uint256"
						}
					],
					"name": "Transfer",
					"type": "event"
				},
				{
					"inputs": [],
					"name": "DOMAIN_SEPARATOR",
					"outputs": [
						{
							"internalType": "bytes32",
							"name": "",
							"type": "bytes32"
						}
					],
					"stateMutability": "view",
					"type": "function"
				},
				{
					"inputs": [
						{
							"internalType": "address",
							"name": "owner",
							"type": "address"
						},
						{
							"internalType": "address",
							"name": "spender",
							"type": "address"
						}
					],
					"name": "allowance",
					"outputs": [
						{
							"internalType": "uint256",
							"name": "",
							"type": "uint256"
						}
					],
					"stateMutability": "view",
					"type": "function"
				},
				{
					"inputs": [
						{
							"internalType": "address",
							"name": "spender",
							"type": "address"
						},
						{
							"internalType": "uint256",
							"name": "value",
							"type": "uint256"
						}
					],
					"name": "approve",
					"outputs": [
						{
							"internalType": "bool",
							"name": "",
							"type": "bool"
						}
					],
					"stateMutability": "nonpayable",
					"type": "function"
				},
				{
					"inputs": [
						{
							"internalType": "address",
							"name": "account",
							"type": "address"
						}
					],
					"name": "balanceOf",
					"outputs": [
						{
							"internalType": "uint256",
							"name": "",
							"type": "uint256"
						}
					],
					"stateMutability": "view",
					"type": "function"
				},
				{
					"inputs": [
						{
							"internalType": "uint256",
							"name": "amount",
							"type": "uint256"
						}
					],
					"name": "burn",
					"outputs": [],
					"stateMutability": "nonpayable",
					"type": "function"
				},
				{
					"inputs": [],
					"name": "decimals",
					"outputs": [
						{
							"internalType": "uint8",
							"name": "",
							"type": "uint8"
						}
					],
					"stateMutability": "view",
					"type": "function"
				},
				{
					"inputs": [],
					"name": "eip712Domain",
					"outputs": [
						{
							"internalType": "bytes1",
							"name": "fields",
							"type": "bytes1"
						},
						{
							"internalType": "string",
							"name": "name",
							"type": "string"
						},
						{
							"internalType": "string",
							"name": "version",
							"type": "string"
						},
						{
							"internalType": "uint256",
							"name": "chainId",
							"type": "uint256"
						},
						{
							"internalType": "address",
							"name": "verifyingContract",
							"type": "address"
						},
						{
							"internalType": "bytes32",
							"name": "salt",
							"type": "bytes32"
						},
						{
							"internalType": "uint256[]",
							"name": "extensions",
							"type": "uint256[]"
						}
					],
					"stateMutability": "view",
					"type": "function"
				},
				{
					"inputs": [
						{
							"internalType": "address",
							"name": "to",
							"type": "address"
						},
						{
							"internalType": "uint256",
							"name": "amount",
							"type": "uint256"
						}
					],
					"name": "mint",
					"outputs": [],
					"stateMutability": "nonpayable",
					"type": "function"
				},
				{
					"inputs": [],
					"name": "name",
					"outputs": [
						{
							"internalType": "string",
							"name": "",
							"type": "string"
						}
					],
					"stateMutability": "view",
					"type": "function"
				},
				{
					"inputs": [
						{
							"internalType": "address",
							"name": "owner",
							"type": "address"
						}
					],
					"name": "nonces",
					"outputs": [
						{
							"internalType": "uint256",
							"name": "",
							"type": "uint256"
						}
					],
					"stateMutability": "view",
					"type": "function"
				},
				{
					"inputs": [
						{
							"internalType": "address",
							"name": "owner",
							"type": "address"
						},
						{
							"internalType": "address",
							"name": "spender",
							"type": "address"
						},
						{
							"internalType": "uint256",
							"name": "value",
							"type": "uint256"
						},
						{
							"internalType": "uint256",
							"name": "deadline",
							"type": "uint256"
						},
						{
							"internalType": "uint8",
							"name": "v",
							"type": "uint8"
						},
						{
							"internalType": "bytes32",
							"name": "r",
							"type": "bytes32"
						},
						{
							"internalType": "bytes32",
							"name": "s",
							"type": "bytes32"
						}
					],
					"name": "permit",
					"outputs": [],
					"stateMutability": "nonpayable",
					"type": "function"
				},
				{
					"inputs": [],
					"name": "symbol",
					"outputs": [
						{
							"internalType": "string",
							"name": "",
							"type": "string"
						}
					],
					"stateMutability": "view",
					"type": "function"
				},
				{
					"inputs": [],
					"name": "totalSupply",
					"outputs": [
						{
							"internalType": "uint256",
							"name": "",
							"type": "uint256"
						}
					],
					"stateMutability": "view",
					"type": "function"
				},
				{
					"inputs": [
						{
							"internalType": "address",
							"name": "to",
							"type": "address"
						},
						{
							"internalType": "uint256",
							"name": "value",
							"type": "uint256"
						}
					],
					"name": "transfer",
					"outputs": [
						{
							"internalType": "bool",
							"name": "",
							"type": "bool"
						}
					],
					"stateMutability": "nonpayable",
					"type": "function"
				},
				{
					"inputs": [
						{
							"internalType": "address",
							"name": "from",
							"type": "address"
						},
						{
							"internalType": "address",
							"name": "to",
							"type": "address"
						},
						{
							"internalType": "uint256",
							"name": "value",
							"type": "uint256"
						}
					],
					"name": "transferFrom",
					"outputs": [
						{
							"internalType": "bool",
							"name": "",
							"type": "bool"
						}
					],
					"stateMutability": "nonpayable",
					"type": "function"
				}
			],
			"devdoc": {
				"details": "Extension of OpenZeppelin's ERC20 and ERC20Permit contract. Allows for minting and burning of tokens, and includes permit functionality.",
				"errors": {
					"ECDSAInvalidSignature()": [
						{
							"details": "The signature derives the `address(0)`."
						}
					],
					"ECDSAInvalidSignatureLength(uint256)": [
						{
							"details": "The signature has an invalid length."
						}
					],
					"ECDSAInvalidSignatureS(bytes32)": [
						{
							"details": "The signature has an S value that is in the upper half order."
						}
					],
					"ERC20InsufficientAllowance(address,uint256,uint256)": [
						{
							"details": "Indicates a failure with the `spender`’s `allowance`. Used in transfers.",
							"params": {
								"allowance": "Amount of tokens a `spender` is allowed to operate with.",
								"needed": "Minimum amount required to perform a transfer.",
								"spender": "Address that may be allowed to operate on tokens without being their owner."
							}
						}
					],
					"ERC20InsufficientBalance(address,uint256,uint256)": [
						{
							"details": "Indicates an error related to the current `balance` of a `sender`. Used in transfers.",
							"params": {
								"balance": "Current balance for the interacting account.",
								"needed": "Minimum amount required to perform a transfer.",
								"sender": "Address whose tokens are being transferred."
							}
						}
					],
					"ERC20InvalidApprover(address)": [
						{
							"details": "Indicates a failure with the `approver` of a token to be approved. Used in approvals.",
							"params": {
								"approver": "Address initiating an approval operation."
							}
						}
					],
					"ERC20InvalidReceiver(address)": [
						{
							"details": "Indicates a failure with the token `receiver`. Used in transfers.",
							"params": {
								"receiver": "Address to which tokens are being transferred."
							}
						}
					],
					"ERC20InvalidSender(address)": [
						{
							"details": "Indicates a failure with the token `sender`. Used in transfers.",
							"params": {
								"sender": "Address whose tokens are being transferred."
							}
						}
					],
					"ERC20InvalidSpender(address)": [
						{
							"details": "Indicates a failure with the `spender` to be approved. Used in approvals.",
							"params": {
								"spender": "Address that may be allowed to operate on tokens without being their owner."
							}
						}
					],
					"ERC2612ExpiredSignature(uint256)": [
						{
							"details": "Permit deadline has expired."
						}
					],
					"ERC2612InvalidSigner(address,address)": [
						{
							"details": "Mismatched signature."
						}
					],
					"InvalidAccountNonce(address,uint256)": [
						{
							"details": "The nonce used for an `account` is not the expected current nonce."
						}
					]
				},
				"events": {
					"Approval(address,address,uint256)": {
						"details": "Emitted when the allowance of a `spender` for an `owner` is set by a call to {approve}. `value` is the new allowance."
					},
					"EIP712DomainChanged()": {
						"details": "MAY be emitted to signal that the domain could have changed."
					},
					"Transfer(address,address,uint256)": {
						"details": "Emitted when `value` tokens are moved from one account (`from`) to another (`to`). Note that `value` may be zero."
					}
				},
				"kind": "dev",
				"methods": {
					"DOMAIN_SEPARATOR()": {
						"details": "Returns the domain separator used in the encoding of the signature for {permit}, as defined by {EIP712}."
					},
					"allowance(address,address)": {
						"details": "See {IERC20-allowance}."
					},
					"approve(address,uint256)": {
						"details": "See {IERC20-approve}. NOTE: If `value` is the maximum `uint256`, the allowance is not updated on `transferFrom`. This is semantically equivalent to an infinite approval. Requirements: - `spender` cannot be the zero address."
					},
					"balanceOf(address)": {
						"details": "See {IERC20-balanceOf}."
					},
					"burn(uint256)": {
						"details": "Caller must have at least `amount` tokens.",
						"params": {
							"amount": "The number of tokens to burn."
						}
					},
					"constructor": {
						"details": "Initializes the contract with the token name and symbol, and sets up permit functionality.",
						"params": {
							"name": "The name of the token.",
							"symbol": "The symbol of the token."
						}
					},
					"decimals()": {
						"details": "Returns the number of decimals used to get its user representation. For example, if `decimals` equals `2`, a balance of `505` tokens should be displayed to a user as `5.05` (`505 / 10 ** 2`). Tokens usually opt for a value of 18, imitating the relationship between Ether and Wei. This is the default value returned by this function, unless it's overridden. NOTE: This information is only used for _display_ purposes: it in no way affects any of the arithmetic of the contract, including {IERC20-balanceOf} and {IERC20-transfer}."
					},
					"eip712Domain()": {
						"details": "See {IERC-5267}."
					},
					"mint(address,uint256)": {
						"details": "Caller must have a role that allows them to mint (not implemented in this simple example).",
						"params": {
							"amount": "The number of tokens to mint.",
							"to": "The address of the recipient."
						}
					},
					"name()": {
						"details": "Returns the name of the token."
					},
					"nonces(address)": {
						"details": "Returns the current nonce for `owner`. This value must be included whenever a signature is generated for {permit}. Every successful call to {permit} increases ``owner``'s nonce by one. This prevents a signature from being used multiple times."
					},
					"permit(address,address,uint256,uint256,uint8,bytes32,bytes32)": {
						"details": "Sets `value` as the allowance of `spender` over ``owner``'s tokens, given ``owner``'s signed approval. IMPORTANT: The same issues {IERC20-approve} has related to transaction ordering also apply here. Emits an {Approval} event. Requirements: - `spender` cannot be the zero address. - `deadline` must be a timestamp in the future. - `v`, `r` and `s` must be a valid `secp256k1` signature from `owner` over the EIP712-formatted function arguments. - the signature must use ``owner``'s current nonce (see {nonces}). For more information on the signature format, see the https://eips.ethereum.org/EIPS/eip-2612#specification[relevant EIP section]. CAUTION: See Security Considerations above."
					},
					"symbol()": {
						"details": "Returns the symbol of the token, usually a shorter version of the name."
					},
					"totalSupply()": {
						"details": "See {IERC20-totalSupply}."
					},
					"transfer(address,uint256)": {
						"details": "See {IERC20-transfer}. Requirements: - `to` cannot be the zero address. - the caller must have a balance of at least `value`."
					},
					"transferFrom(address,address,uint256)": {
						"details": "See {IERC20-transferFrom}. Emits an {Approval} event indicating the updated allowance. This is not required by the EIP. See the note at the beginning of {ERC20}. NOTE: Does not update the allowance if the current allowance is the maximum `uint256`. Requirements: - `from` and `to` cannot be the zero address. - `from` must have a balance of at least `value`. - the caller must have allowance for ``from``'s tokens of at least `value`."
					}
				},
				"title": "MockTokenCreator",
				"version": 1
			},
			"evm": {
				"assembly": "    /* \"contracts/contracts/tokens/MockTokenCreator.sol\":381:1422  contract MockTokenCreator is ERC20, ERC20Permit {... */\n  0x0160\n  dup1\n  0x40\n  mstore\n  jumpi(tag_13, callvalue)\n  bytecodeSize\n  dup1\n  codesize\n  sub\n  dup1\n  swap2\n  tag_7\n  dup3\n  dup6\n  tag_1\n  jump\t// in\ntag_7:\n  dup4\n  codecopy\n  dup2\n  add\n  swap1\n  0x40\n  dup2\n  dup4\n  sub\n  slt\n  tag_13\n  jumpi\n  dup1\n  mload\n  sub(shl(0x40, 0x01), 0x01)\n  dup2\n  gt\n  tag_13\n  jumpi\n  dup3\n  tag_12\n  swap2\n  dup4\n  add\n  tag_2\n  jump\t// in\ntag_12:\n  0x20\n  dup3\n  add\n  mload\n  swap1\n  swap3\n  swap1\n  sub(shl(0x40, 0x01), 0x01)\n  dup2\n  gt\n  tag_13\n  jumpi\n  tag_15\n  swap3\n  add\n  tag_2\n  jump\t// in\ntag_15:\n  swap1\n  0x40\n  swap2\n  dup3\n  mload\n  swap2\n  tag_16\n  dup5\n  dup5\n  tag_1\n  jump\t// in\ntag_16:\n  0x01\n  dup4\n  mstore\n  shl(0xf8, 0x31)\n  0x20\n  dup5\n  add\n  swap1\n  dup2\n  mstore\n  dup2\n  mload\n  swap1\n  swap3\n  swap1\n  sub(shl(0x40, 0x01), 0x01)\n  dup2\n  gt\n  tag_30\n  jumpi\n    /* \"@openzeppelin/contracts/token/ERC20/ERC20.sol\":1962:1975  _name = name_ */\n  0x03\n    /* \"contracts/contracts/tokens/MockTokenCreator.sol\":381:1422  contract MockTokenCreator is ERC20, ERC20Permit {... */\n  sload\n  0x01\n  dup2\n  dup2\n  shr\n  swap2\n  and\n  dup1\n  iszero\n  tag_19\n  jumpi\ntag_20:\n  0x20\n  dup3\n  lt\n  eq\n  tag_34\n  jumpi\n  0x1f\n  dup2\n  gt\n  tag_23\n  jumpi\ntag_24:\n  pop\n  dup1\n  0x20\n  0x1f\n  dup3\n  gt\n  0x01\n  eq\n  tag_25\n  jumpi\n  0x00\n  swap2\n  tag_27\n  jumpi\ntag_28:\n  pop\n  dup2\n  0x01\n  shl\n  swap2\n  not(0x00)\n  swap1\n    /* \"@openzeppelin/contracts/token/ERC20/ERC20.sol\":1962:1975  _name = name_ */\n  0x03\n    /* \"contracts/contracts/tokens/MockTokenCreator.sol\":381:1422  contract MockTokenCreator is ERC20, ERC20Permit {... */\n  shl\n  shr\n  not\n  and\n  or\n    /* \"@openzeppelin/contracts/token/ERC20/ERC20.sol\":1962:1975  _name = name_ */\n  0x03\n    /* \"contracts/contracts/tokens/MockTokenCreator.sol\":381:1422  contract MockTokenCreator is ERC20, ERC20Permit {... */\n  sstore\ntag_29:\n  dup1\n  mload\n  swap1\n  sub(shl(0x40, 0x01), 0x01)\n  dup3\n  gt\n  tag_30\n  jumpi\n    /* \"@openzeppelin/contracts/token/ERC20/ERC20.sol\":1985:2002  _symbol = symbol_ */\n  0x04\n    /* \"contracts/contracts/tokens/MockTokenCreator.sol\":381:1422  contract MockTokenCreator is ERC20, ERC20Permit {... */\n  sload\n  swap1\n  0x01\n  dup3\n  dup2\n  shr\n  swap3\n  and\n  dup1\n  iszero\n  tag_32\n  jumpi\ntag_33:\n  0x20\n  dup4\n  lt\n  eq\n  tag_34\n  jumpi\n  dup2\n  0x1f\n  dup5\n  swap4\n  gt\n  tag_36\n  jumpi\ntag_37:\n  pop\n  0x20\n  swap1\n  0x1f\n  dup4\n  gt\n  0x01\n  eq\n  tag_38\n  jumpi\n  0x00\n  swap3\n  tag_40\n  jumpi\ntag_41:\n  pop\n  pop\n  dup2\n  0x01\n  shl\n  swap2\n  not(0x00)\n  swap1\n    /* \"@openzeppelin/contracts/token/ERC20/ERC20.sol\":1962:1975  _name = name_ */\n  0x03\n    /* \"contracts/contracts/tokens/MockTokenCreator.sol\":381:1422  contract MockTokenCreator is ERC20, ERC20Permit {... */\n  shl\n  shr\n  not\n  and\n  or\n    /* \"@openzeppelin/contracts/token/ERC20/ERC20.sol\":1985:2002  _symbol = symbol_ */\n  0x04\n    /* \"contracts/contracts/tokens/MockTokenCreator.sol\":381:1422  contract MockTokenCreator is ERC20, ERC20Permit {... */\n  sstore\ntag_42:\n    /* \"@openzeppelin/contracts/utils/cryptography/EIP712.sol\":3401:3446  name.toShortStringWithFallback(_nameFallback) */\n  tag_43\n  dup2\n  tag_3\n  jump\t// in\ntag_43:\n    /* \"@openzeppelin/contracts/utils/cryptography/EIP712.sol\":3393:3446  _name = name.toShortStringWithFallback(_nameFallback) */\n  0x0120\n  mstore\n    /* \"@openzeppelin/contracts/utils/cryptography/EIP712.sol\":3467:3518  version.toShortStringWithFallback(_versionFallback) */\n  tag_44\n  dup4\n  tag_4\n  jump\t// in\ntag_44:\n    /* \"@openzeppelin/contracts/utils/cryptography/EIP712.sol\":3456:3518  _version = version.toShortStringWithFallback(_versionFallback) */\n  0x0140\n  mstore\n    /* \"contracts/contracts/tokens/MockTokenCreator.sol\":381:1422  contract MockTokenCreator is ERC20, ERC20Permit {... */\n  0x20\n  dup2\n  mload\n  swap2\n  add\n    /* \"@openzeppelin/contracts/utils/cryptography/EIP712.sol\":3542:3564  keccak256(bytes(name)) */\n  keccak256\n    /* \"@openzeppelin/contracts/utils/cryptography/EIP712.sol\":3528:3564  _hashedName = keccak256(bytes(name)) */\n  swap2\n  dup3\n  0xe0\n  mstore\n    /* \"contracts/contracts/tokens/MockTokenCreator.sol\":381:1422  contract MockTokenCreator is ERC20, ERC20Permit {... */\n  mload\n    /* \"@openzeppelin/contracts/utils/cryptography/EIP712.sol\":3591:3616  keccak256(bytes(version)) */\n  swap1\n  keccak256\n    /* \"@openzeppelin/contracts/utils/cryptography/EIP712.sol\":3574:3616  _hashedVersion = keccak256(bytes(version)) */\n  dup1\n  0x0100\n  mstore\n    /* \"@openzeppelin/contracts/utils/cryptography/EIP712.sol\":3644:3657  block.chainid */\n  chainid\n    /* \"@openzeppelin/contracts/utils/cryptography/EIP712.sol\":3627:3657  _cachedChainId = block.chainid */\n  0xa0\n  mstore\n    /* \"contracts/contracts/tokens/MockTokenCreator.sol\":381:1422  contract MockTokenCreator is ERC20, ERC20Permit {... */\n  dup3\n  mload\n    /* \"@openzeppelin/contracts/utils/cryptography/EIP712.sol\":4204:4284  abi.encode(TYPE_HASH, _hashedName, _hashedVersion, block.chainid, address(this)) */\n  swap1\n    /* \"contracts/contracts/tokens/MockTokenCreator.sol\":381:1422  contract MockTokenCreator is ERC20, ERC20Permit {... */\n  0x20\n    /* \"@openzeppelin/contracts/utils/cryptography/EIP712.sol\":4204:4284  abi.encode(TYPE_HASH, _hashedName, _hashedVersion, block.chainid, address(this)) */\n  dup3\n  add\n    /* \"@openzeppelin/contracts/utils/cryptography/EIP712.sol\":2079:2174  keccak256(\"EIP712Domain(string name,string version,uint256 chainId,address verifyingContract)\") */\n  swap3\n  0x8b73c3c69bb8fe3d512ecc4cf759cc79239f7b179b0ffacaa9a75d522b39400f\n  dup5\n  mstore\n  dup5\n  dup4\n  add\n  mstore\n  0x60\n  dup3\n  add\n  mstore\n    /* \"@openzeppelin/contracts/utils/cryptography/EIP712.sol\":3644:3657  block.chainid */\n  chainid\n    /* \"@openzeppelin/contracts/utils/cryptography/EIP712.sol\":2079:2174  keccak256(\"EIP712Domain(string name,string version,uint256 chainId,address verifyingContract)\") */\n  0x80\n  dup3\n  add\n  mstore\n    /* \"@openzeppelin/contracts/utils/cryptography/EIP712.sol\":4278:4282  this */\n  address\n    /* \"@openzeppelin/contracts/utils/cryptography/EIP712.sol\":3627:3657  _cachedChainId = block.chainid */\n  0xa0\n    /* \"@openzeppelin/contracts/utils/cryptography/EIP712.sol\":2079:2174  keccak256(\"EIP712Domain(string name,string version,uint256 chainId,address verifyingContract)\") */\n  dup3\n  add\n  mstore\n    /* \"@openzeppelin/contracts/utils/cryptography/EIP712.sol\":3627:3657  _cachedChainId = block.chainid */\n  0xa0\n    /* \"@openzeppelin/contracts/utils/cryptography/EIP712.sol\":4204:4284  abi.encode(TYPE_HASH, _hashedName, _hashedVersion, block.chainid, address(this)) */\n  dup2\n  mstore\n  tag_45\n  0xc0\n  dup3\n  tag_1\n  jump\t// in\ntag_45:\n    /* \"contracts/contracts/tokens/MockTokenCreator.sol\":381:1422  contract MockTokenCreator is ERC20, ERC20Permit {... */\n  mload\n    /* \"@openzeppelin/contracts/utils/cryptography/EIP712.sol\":4194:4285  keccak256(abi.encode(TYPE_HASH, _hashedName, _hashedVersion, block.chainid, address(this))) */\n  swap1\n  keccak256\n    /* \"@openzeppelin/contracts/utils/cryptography/EIP712.sol\":2079:2174  keccak256(\"EIP712Domain(string name,string version,uint256 chainId,address verifyingContract)\") */\n  0x80\n    /* \"@openzeppelin/contracts/utils/cryptography/EIP712.sol\":3667:3715  _cachedDomainSeparator = _buildDomainSeparator() */\n  mstore\n    /* \"@openzeppelin/contracts/utils/cryptography/EIP712.sol\":4278:4282  this */\n  address\n    /* \"@openzeppelin/contracts/utils/cryptography/EIP712.sol\":4204:4284  abi.encode(TYPE_HASH, _hashedName, _hashedVersion, block.chainid, address(this)) */\n  0xc0\n    /* \"@openzeppelin/contracts/utils/cryptography/EIP712.sol\":3725:3752  _cachedThis = address(this) */\n  mstore\n    /* \"contracts/contracts/tokens/MockTokenCreator.sol\":381:1422  contract MockTokenCreator is ERC20, ERC20Permit {... */\n  mload\n  dataSize(sub_0)\n  swap1\n  dup2\n  dataOffset(sub_0)\n  dup3\n  codecopy\n    /* \"@openzeppelin/contracts/utils/cryptography/EIP712.sol\":2079:2174  keccak256(\"EIP712Domain(string name,string version,uint256 chainId,address verifyingContract)\") */\n  0x80\n    /* \"contracts/contracts/tokens/MockTokenCreator.sol\":381:1422  contract MockTokenCreator is ERC20, ERC20Permit {... */\n  mload\n  dup2\n  assignImmutable(\"0xf37f94c83e8ae3e86e80cd7576891958f944d71876ecc57afee80c72eff8fc49\")\n    /* \"@openzeppelin/contracts/utils/cryptography/EIP712.sol\":3627:3657  _cachedChainId = block.chainid */\n  0xa0\n    /* \"contracts/contracts/tokens/MockTokenCreator.sol\":381:1422  contract MockTokenCreator is ERC20, ERC20Permit {... */\n  mload\n  dup2\n  assignImmutable(\"0xa1052ef8b67da7b00add39dbc2c49970b165c2dd6ad0127567696a3d88b916bc\")\n    /* \"@openzeppelin/contracts/utils/cryptography/EIP712.sol\":4204:4284  abi.encode(TYPE_HASH, _hashedName, _hashedVersion, block.chainid, address(this)) */\n  0xc0\n    /* \"contracts/contracts/tokens/MockTokenCreator.sol\":381:1422  contract MockTokenCreator is ERC20, ERC20Permit {... */\n  mload\n  dup2\n  assignImmutable(\"0x9da33d66d55da09f78a96a54578b6796f3b81e7e66965d4dd4d51115742e7058\")\n    /* \"@openzeppelin/contracts/utils/cryptography/EIP712.sol\":3528:3564  _hashedName = keccak256(bytes(name)) */\n  0xe0\n    /* \"contracts/contracts/tokens/MockTokenCreator.sol\":381:1422  contract MockTokenCreator is ERC20, ERC20Permit {... */\n  mload\n  dup2\n  assignImmutable(\"0x573faf646ebcc306cf7b1c6d1ae32a5018e46a1d2170a1f8872bcef972ba4a4e\")\n    /* \"@openzeppelin/contracts/utils/cryptography/EIP712.sol\":3574:3616  _hashedVersion = keccak256(bytes(version)) */\n  0x0100\n    /* \"contracts/contracts/tokens/MockTokenCreator.sol\":381:1422  contract MockTokenCreator is ERC20, ERC20Permit {... */\n  mload\n  dup2\n  assignImmutable(\"0xfe1d828b4338e53e7077ae3b70a0e9308af0493fa93d9d1fb6906c3aa839ab4f\")\n    /* \"@openzeppelin/contracts/utils/cryptography/EIP712.sol\":3393:3446  _name = name.toShortStringWithFallback(_nameFallback) */\n  0x0120\n    /* \"contracts/contracts/tokens/MockTokenCreator.sol\":381:1422  contract MockTokenCreator is ERC20, ERC20Permit {... */\n  mload\n  dup2\n  assignImmutable(\"0x3f8d8c3e10e6d437441e5e6c68a97704f762fe5be2aa8fc983333dcb27731db3\")\n    /* \"@openzeppelin/contracts/utils/cryptography/EIP712.sol\":3456:3518  _version = version.toShortStringWithFallback(_versionFallback) */\n  0x0140\n    /* \"contracts/contracts/tokens/MockTokenCreator.sol\":381:1422  contract MockTokenCreator is ERC20, ERC20Permit {... */\n  mload\n  dup2\n  assignImmutable(\"0xad5ff0cf6e1f2374d096d253114cd0e68ad4cfb9965cb5abf09b249289902114\")\n  return\ntag_40:\n  add\n  mload\n  swap1\n  pop\n  0x00\n  dup1\n  jump(tag_41)\ntag_38:\n    /* \"@openzeppelin/contracts/token/ERC20/ERC20.sol\":1985:2002  _symbol = symbol_ */\n  0x04\n  0x00\n    /* \"contracts/contracts/tokens/MockTokenCreator.sol\":381:1422  contract MockTokenCreator is ERC20, ERC20Permit {... */\n  swap1\n  dup2\n  mstore\n  dup3\n  dup2\n  keccak256\n  swap4\n  pop\n  not(0x1f)\n  dup6\n  and\n  swap1\ntag_46:\n  dup2\n  dup2\n  lt\n  tag_47\n  jumpi\n  pop\n  swap1\n  dup5\n  0x01\n  swap6\n  swap5\n  swap4\n  swap3\n  lt\n  tag_49\n  jumpi\ntag_50:\n  pop\n  pop\n  pop\n  dup2\n  shl\n  add\n    /* \"@openzeppelin/contracts/token/ERC20/ERC20.sol\":1985:2002  _symbol = symbol_ */\n  0x04\n    /* \"contracts/contracts/tokens/MockTokenCreator.sol\":381:1422  contract MockTokenCreator is ERC20, ERC20Permit {... */\n  sstore\n  jump(tag_42)\ntag_49:\n  add\n  mload\n  not(0x00)\n  0xf8\n  dup5\n    /* \"@openzeppelin/contracts/token/ERC20/ERC20.sol\":1962:1975  _name = name_ */\n  0x03\n    /* \"contracts/contracts/tokens/MockTokenCreator.sol\":381:1422  contract MockTokenCreator is ERC20, ERC20Permit {... */\n  shl\n  and\n  shr\n  not\n  and\n  swap1\n  sstore\n  0x00\n  dup1\n  dup1\n  jump(tag_50)\ntag_47:\n  swap3\n  swap4\n  0x20\n  0x01\n  dup2\n  swap3\n  dup8\n  dup7\n  add\n  mload\n  dup2\n  sstore\n  add\n  swap6\n  add\n  swap4\n  add\n  jump(tag_46)\ntag_36:\n    /* \"@openzeppelin/contracts/token/ERC20/ERC20.sol\":1985:2002  _symbol = symbol_ */\n  0x04\n  0x00\n    /* \"contracts/contracts/tokens/MockTokenCreator.sol\":381:1422  contract MockTokenCreator is ERC20, ERC20Permit {... */\n  mstore\n  swap1\n  swap2\n  pop\n  0x8a35acfbc15ff81a39ae7d344fd709f28e8600b4aa8c65c6b64bfe7fe36bd19b\n  0x1f\n  dup5\n  add\n  0x05\n  shr\n  dup2\n  add\n  swap2\n  0x20\n  dup6\n  lt\n  tag_51\n  jumpi\ntag_52:\n  swap1\n  0x1f\n  dup6\n  swap5\n  swap4\n  swap3\n  add\n  0x05\n  shr\n  add\n  swap1\ntag_53:\n  dup2\n  dup2\n  lt\n  tag_54\n  jumpi\n  pop\n  jump(tag_37)\ntag_54:\n  0x00\n  dup2\n  sstore\n  dup5\n  swap4\n  pop\n  0x01\n  add\n  jump(tag_53)\ntag_51:\n  swap1\n  swap2\n  pop\n  dup2\n  swap1\n  jump(tag_52)\ntag_34:\n  mstore(0x00, shl(0xe0, 0x4e487b71))\n  0x22\n    /* \"@openzeppelin/contracts/token/ERC20/ERC20.sol\":1985:2002  _symbol = symbol_ */\n  0x04\n    /* \"contracts/contracts/tokens/MockTokenCreator.sol\":381:1422  contract MockTokenCreator is ERC20, ERC20Permit {... */\n  mstore\n  revert(0x00, 0x24)\ntag_32:\n  swap2\n  0x7f\n  and\n  swap2\n  jump(tag_33)\ntag_30:\n  mstore(0x00, shl(0xe0, 0x4e487b71))\n  0x41\n    /* \"@openzeppelin/contracts/token/ERC20/ERC20.sol\":1985:2002  _symbol = symbol_ */\n  0x04\n    /* \"contracts/contracts/tokens/MockTokenCreator.sol\":381:1422  contract MockTokenCreator is ERC20, ERC20Permit {... */\n  mstore\n  revert(0x00, 0x24)\ntag_27:\n  swap1\n  pop\n  dup4\n  add\n  mload\n  0x00\n  jump(tag_28)\ntag_25:\n    /* \"@openzeppelin/contracts/token/ERC20/ERC20.sol\":1962:1975  _name = name_ */\n  0x03\n  0x00\n    /* \"contracts/contracts/tokens/MockTokenCreator.sol\":381:1422  contract MockTokenCreator is ERC20, ERC20Permit {... */\n  swap1\n  dup2\n  mstore\n  dup2\n  dup2\n  keccak256\n  swap3\n  pop\n  not(0x1f)\n  dup5\n  and\n  swap1\ntag_56:\n  dup2\n  dup2\n  lt\n  tag_57\n  jumpi\n  pop\n  swap1\n  dup4\n  0x01\n  swap5\n  swap4\n  swap3\n  lt\n  tag_59\n  jumpi\ntag_60:\n  pop\n  pop\n  dup2\n  shl\n  add\n    /* \"@openzeppelin/contracts/token/ERC20/ERC20.sol\":1962:1975  _name = name_ */\n  0x03\n    /* \"contracts/contracts/tokens/MockTokenCreator.sol\":381:1422  contract MockTokenCreator is ERC20, ERC20Permit {... */\n  sstore\n  jump(tag_29)\ntag_59:\n  dup6\n  add\n  mload\n  not(0x00)\n  0xf8\n  dup5\n    /* \"@openzeppelin/contracts/token/ERC20/ERC20.sol\":1962:1975  _name = name_ */\n  0x03\n    /* \"contracts/contracts/tokens/MockTokenCreator.sol\":381:1422  contract MockTokenCreator is ERC20, ERC20Permit {... */\n  shl\n  and\n  shr\n  not\n  and\n  swap1\n  sstore\n  0x00\n  dup1\n  jump(tag_60)\ntag_57:\n  swap2\n  swap3\n  0x20\n  0x01\n  dup2\n  swap3\n  dup7\n  dup11\n  add\n  mload\n  dup2\n  sstore\n  add\n  swap5\n  add\n  swap3\n  add\n  jump(tag_56)\ntag_23:\n    /* \"@openzeppelin/contracts/token/ERC20/ERC20.sol\":1962:1975  _name = name_ */\n  0x03\n  0x00\n    /* \"contracts/contracts/tokens/MockTokenCreator.sol\":381:1422  contract MockTokenCreator is ERC20, ERC20Permit {... */\n  mstore\n  0xc2575a0e9e593c00f959f8c92f12db2869c3395a3b0502d05e2516446f71f85b\n  0x1f\n  dup4\n  add\n  0x05\n  shr\n  dup2\n  add\n  swap2\n  0x20\n  dup5\n  lt\n  tag_61\n  jumpi\ntag_62:\n  0x1f\n  add\n  0x05\n  shr\n  add\n  swap1\ntag_63:\n  dup2\n  dup2\n  lt\n  tag_64\n  jumpi\n  pop\n  jump(tag_24)\ntag_64:\n  0x00\n  dup2\n  sstore\n  0x01\n  add\n  jump(tag_63)\ntag_61:\n  swap1\n  swap2\n  pop\n  dup2\n  swap1\n  jump(tag_62)\ntag_19:\n  swap1\n  0x7f\n  and\n  swap1\n  jump(tag_20)\ntag_13:\n  0x00\n  dup1\n  revert\ntag_1:\n  0x1f\n  swap1\n  swap2\n  add\n  not(0x1f)\n  and\n  dup2\n  add\n  swap1\n  sub(shl(0x40, 0x01), 0x01)\n  dup3\n  gt\n  swap1\n  dup3\n  lt\n  or\n  tag_30\n  jumpi\n  0x40\n  mstore\n  jump\t// out\ntag_2:\n  dup2\n  0x1f\n  dup3\n  add\n  slt\n  iszero\n  tag_13\n  jumpi\n  dup1\n  mload\n  swap1\n  sub(shl(0x40, 0x01), 0x01)\n  dup3\n  gt\n  tag_30\n  jumpi\n  mload(0x40)\n  swap3\n  tag_72\n  0x1f\n  dup5\n  add\n  not(0x1f)\n  and\n  0x20\n  add\n  dup6\n  tag_1\n  jump\t// in\ntag_72:\n  dup3\n  dup5\n  mstore\n  0x20\n  dup4\n  dup4\n  add\n  add\n  gt\n  tag_13\n  jumpi\n  dup2\n  0x00\n  swap3\n  0x20\n  dup1\n  swap4\n  add\n  dup4\n  dup7\n  add\n  mcopy\n  dup4\n  add\n  add\n  mstore\n  swap1\n  jump\t// out\n    /* \"@openzeppelin/contracts/utils/ShortStrings.sol\":2914:3254  function toShortStringWithFallback(string memory value, string storage store) internal returns (ShortString) {... */\ntag_3:\n  swap1\n    /* \"contracts/contracts/tokens/MockTokenCreator.sol\":381:1422  contract MockTokenCreator is ERC20, ERC20Permit {... */\n  dup2\n  mload\n    /* \"@openzeppelin/contracts/utils/ShortStrings.sol\":3059:3061  32 */\n  0x20\n    /* \"@openzeppelin/contracts/utils/ShortStrings.sol\":3037:3061  bytes(value).length < 32 */\n  dup2\n  lt\n    /* \"@openzeppelin/contracts/utils/ShortStrings.sol\":3033:3248  if (bytes(value).length < 32) {... */\n  0x00\n    /* \"@openzeppelin/contracts/utils/ShortStrings.sol\":3059:3061  32 */\n  eq\n  tag_75\n  jumpi\n    /* \"contracts/contracts/tokens/MockTokenCreator.sol\":381:1422  contract MockTokenCreator is ERC20, ERC20Permit {... */\n  pop\n  swap1\n    /* \"@openzeppelin/contracts/utils/ShortStrings.sol\":1854:1856  31 */\n  0x1f\n    /* \"contracts/contracts/tokens/MockTokenCreator.sol\":381:1422  contract MockTokenCreator is ERC20, ERC20Permit {... */\n  dup2\n  mload\n    /* \"@openzeppelin/contracts/utils/ShortStrings.sol\":1840:1856  bstr.length > 31 */\n  gt\n    /* \"@openzeppelin/contracts/utils/ShortStrings.sol\":1836:1908  if (bstr.length > 31) {... */\n  tag_77\n  jumpi\n    /* \"@openzeppelin/contracts/utils/ShortStrings.sol\":3059:3061  32 */\n  0x20\n    /* \"contracts/contracts/tokens/MockTokenCreator.sol\":381:1422  contract MockTokenCreator is ERC20, ERC20Permit {... */\n  dup2\n  mload\n  swap2\n  add\n    /* \"@openzeppelin/contracts/utils/cryptography/EIP712.sol\":2079:2174  keccak256(\"EIP712Domain(string name,string version,uint256 chainId,address verifyingContract)\") */\n  mload\n    /* \"@openzeppelin/contracts/utils/ShortStrings.sol\":3059:3061  32 */\n  0x20\n    /* \"contracts/contracts/tokens/MockTokenCreator.sol\":381:1422  contract MockTokenCreator is ERC20, ERC20Permit {... */\n  dup3\n  lt\n  tag_79\n  jumpi\n    /* \"@openzeppelin/contracts/utils/ShortStrings.sol\":1949:1985  uint256(bytes32(bstr)) | bstr.length */\n  or\n    /* \"@openzeppelin/contracts/utils/ShortStrings.sol\":3077:3104  return toShortString(value) */\n  swap1\n  jump\t// out\n    /* \"contracts/contracts/tokens/MockTokenCreator.sol\":381:1422  contract MockTokenCreator is ERC20, ERC20Permit {... */\ntag_79:\n  not(0x00)\n  dup3\n    /* \"@openzeppelin/contracts/utils/ShortStrings.sol\":3059:3061  32 */\n  0x20\n    /* \"contracts/contracts/tokens/MockTokenCreator.sol\":381:1422  contract MockTokenCreator is ERC20, ERC20Permit {... */\n  sub\n  0x03\n  shl\n  shl\n  and\n    /* \"@openzeppelin/contracts/utils/ShortStrings.sol\":1949:1985  uint256(bytes32(bstr)) | bstr.length */\n  or\n    /* \"@openzeppelin/contracts/utils/ShortStrings.sol\":3077:3104  return toShortString(value) */\n  swap1\n  jump\t// out\n    /* \"@openzeppelin/contracts/utils/ShortStrings.sol\":1836:1908  if (bstr.length > 31) {... */\ntag_77:\n    /* \"contracts/contracts/tokens/MockTokenCreator.sol\":381:1422  contract MockTokenCreator is ERC20, ERC20Permit {... */\n  0x44\n    /* \"@openzeppelin/contracts/utils/ShortStrings.sol\":3059:3061  32 */\n  0x20\n    /* \"contracts/contracts/tokens/MockTokenCreator.sol\":381:1422  contract MockTokenCreator is ERC20, ERC20Permit {... */\n  swap2\n  mload(0x40)\n    /* \"@openzeppelin/contracts/utils/ShortStrings.sol\":1879:1897  StringTooLong(str) */\n  swap3\n  dup4\n  swap2\n  shl(0xe0, 0x305a27a9)\n  dup4\n  mstore\n  dup2\n  0x04\n  dup5\n  add\n    /* \"contracts/contracts/tokens/MockTokenCreator.sol\":381:1422  contract MockTokenCreator is ERC20, ERC20Permit {... */\n  mstore\n  dup1\n  mload\n  swap2\n  dup3\n  swap2\n  dup3\n  0x24\n  dup7\n  add\n  mstore\n  add\n  dup5\n  dup5\n  add\n  mcopy\n  0x00\n  dup3\n  dup3\n  add\n  dup5\n  add\n  mstore\n    /* \"@openzeppelin/contracts/utils/ShortStrings.sol\":1854:1856  31 */\n  0x1f\n    /* \"contracts/contracts/tokens/MockTokenCreator.sol\":381:1422  contract MockTokenCreator is ERC20, ERC20Permit {... */\n  add\n  not(0x1f)\n  and\n  dup2\n  add\n    /* \"@openzeppelin/contracts/utils/ShortStrings.sol\":1879:1897  StringTooLong(str) */\n  sub\n  add\n  swap1\n  revert\n    /* \"@openzeppelin/contracts/utils/ShortStrings.sol\":3033:3248  if (bytes(value).length < 32) {... */\ntag_75:\n  sub(shl(0x40, 0x01), 0x01)\n    /* \"contracts/contracts/tokens/MockTokenCreator.sol\":381:1422  contract MockTokenCreator is ERC20, ERC20Permit {... */\n  dup2\n  gt\n  tag_30\n  jumpi\n    /* \"@openzeppelin/contracts/utils/cryptography/EIP712.sol\":3432:3445  _nameFallback */\n  0x05\n    /* \"contracts/contracts/tokens/MockTokenCreator.sol\":381:1422  contract MockTokenCreator is ERC20, ERC20Permit {... */\n  sload\n  0x01\n  dup2\n  dup2\n  shr\n  swap2\n  and\n  dup1\n  iszero\n  tag_83\n  jumpi\n    /* \"@openzeppelin/contracts/utils/ShortStrings.sol\":3033:3248  if (bytes(value).length < 32) {... */\ntag_84:\n    /* \"@openzeppelin/contracts/utils/ShortStrings.sol\":3059:3061  32 */\n  0x20\n    /* \"contracts/contracts/tokens/MockTokenCreator.sol\":381:1422  contract MockTokenCreator is ERC20, ERC20Permit {... */\n  dup3\n  lt\n  eq\n  tag_34\n  jumpi\n  0x1f\n  dup2\n  gt\n  tag_87\n  jumpi\n    /* \"@openzeppelin/contracts/utils/ShortStrings.sol\":3033:3248  if (bytes(value).length < 32) {... */\ntag_88:\n    /* \"contracts/contracts/tokens/MockTokenCreator.sol\":381:1422  contract MockTokenCreator is ERC20, ERC20Permit {... */\n  pop\n    /* \"@openzeppelin/contracts/utils/ShortStrings.sol\":3059:3061  32 */\n  0x20\n    /* \"contracts/contracts/tokens/MockTokenCreator.sol\":381:1422  contract MockTokenCreator is ERC20, ERC20Permit {... */\n  swap3\n  0x1f\n  dup3\n  gt\n  0x01\n  eq\n  tag_89\n  jumpi\n  swap3\n  dup2\n  swap3\n  swap4\n  0x00\n  swap3\n  tag_91\n  jumpi\ntag_92:\n  pop\n  pop\n  dup2\n  0x01\n  shl\n  swap2\n  not(0x00)\n  swap1\n  0x03\n  shl\n  shr\n  not\n  and\n  or\n    /* \"@openzeppelin/contracts/utils/cryptography/EIP712.sol\":3432:3445  _nameFallback */\n  0x05\n    /* \"contracts/contracts/tokens/MockTokenCreator.sol\":381:1422  contract MockTokenCreator is ERC20, ERC20Permit {... */\n  sstore\n    /* \"@openzeppelin/contracts/utils/ShortStrings.sol\":1390:1456  0x00000000000000000000000000000000000000000000000000000000000000FF */\n  0xff\n    /* \"@openzeppelin/contracts/utils/ShortStrings.sol\":3195:3237  return ShortString.wrap(FALLBACK_SENTINEL) */\n  swap1\n  jump\t// out\n    /* \"contracts/contracts/tokens/MockTokenCreator.sol\":381:1422  contract MockTokenCreator is ERC20, ERC20Permit {... */\ntag_91:\n  add\n  mload\n  swap1\n  pop\n  0x00\n  dup1\n  jump(tag_92)\ntag_89:\n  not(0x1f)\n  dup3\n  and\n  swap4\n    /* \"@openzeppelin/contracts/utils/cryptography/EIP712.sol\":3432:3445  _nameFallback */\n  0x05\n    /* \"contracts/contracts/tokens/MockTokenCreator.sol\":381:1422  contract MockTokenCreator is ERC20, ERC20Permit {... */\n  0x00\n  mstore\n  dup1\n  0x00\n  keccak256\n  swap2\n  0x00\ntag_94:\n  dup7\n  dup2\n  lt\n  tag_95\n  jumpi\n  pop\n  dup4\n  0x01\n  swap6\n  swap7\n  lt\n  tag_97\n  jumpi\ntag_98:\n  pop\n  pop\n  pop\n  dup2\n  shl\n  add\n    /* \"@openzeppelin/contracts/utils/cryptography/EIP712.sol\":3432:3445  _nameFallback */\n  0x05\n    /* \"contracts/contracts/tokens/MockTokenCreator.sol\":381:1422  contract MockTokenCreator is ERC20, ERC20Permit {... */\n  sstore\n    /* \"@openzeppelin/contracts/utils/ShortStrings.sol\":1390:1456  0x00000000000000000000000000000000000000000000000000000000000000FF */\n  0xff\n    /* \"@openzeppelin/contracts/utils/ShortStrings.sol\":3195:3237  return ShortString.wrap(FALLBACK_SENTINEL) */\n  swap1\n  jump\t// out\n    /* \"contracts/contracts/tokens/MockTokenCreator.sol\":381:1422  contract MockTokenCreator is ERC20, ERC20Permit {... */\ntag_97:\n  add\n  mload\n  not(0x00)\n  0xf8\n  dup5\n  0x03\n  shl\n  and\n  shr\n  not\n  and\n  swap1\n  sstore\n  0x00\n  dup1\n  dup1\n  jump(tag_98)\ntag_95:\n  swap2\n  swap3\n    /* \"@openzeppelin/contracts/utils/ShortStrings.sol\":3059:3061  32 */\n  0x20\n    /* \"contracts/contracts/tokens/MockTokenCreator.sol\":381:1422  contract MockTokenCreator is ERC20, ERC20Permit {... */\n  0x01\n  dup2\n  swap3\n  dup7\n  dup6\n  add\n  mload\n  dup2\n  sstore\n  add\n  swap5\n  add\n  swap3\n  add\n  jump(tag_94)\ntag_87:\n    /* \"@openzeppelin/contracts/utils/cryptography/EIP712.sol\":3432:3445  _nameFallback */\n  0x05\n    /* \"contracts/contracts/tokens/MockTokenCreator.sol\":381:1422  contract MockTokenCreator is ERC20, ERC20Permit {... */\n  0x00\n  mstore\n  0x1f\n    /* \"@openzeppelin/contracts/utils/ShortStrings.sol\":3059:3061  32 */\n  0x20\n    /* \"contracts/contracts/tokens/MockTokenCreator.sol\":381:1422  contract MockTokenCreator is ERC20, ERC20Permit {... */\n  0x00\n  keccak256\n  swap2\n  add\n    /* \"@openzeppelin/contracts/utils/cryptography/EIP712.sol\":3432:3445  _nameFallback */\n  0x05\n    /* \"contracts/contracts/tokens/MockTokenCreator.sol\":381:1422  contract MockTokenCreator is ERC20, ERC20Permit {... */\n  shr\n  dup2\n  add\n  swap1\n  0x1f\n  dup4\n  add\n    /* \"@openzeppelin/contracts/utils/cryptography/EIP712.sol\":3432:3445  _nameFallback */\n  0x05\n    /* \"contracts/contracts/tokens/MockTokenCreator.sol\":381:1422  contract MockTokenCreator is ERC20, ERC20Permit {... */\n  shr\n  add\ntag_99:\n  dup2\n  dup2\n  lt\n  tag_100\n  jumpi\n  pop\n  jump(tag_88)\ntag_100:\n  0x00\n  dup2\n  sstore\n  0x01\n  add\n  jump(tag_99)\ntag_83:\n  swap1\n  0x7f\n  and\n  swap1\n  jump(tag_84)\n    /* \"@openzeppelin/contracts/utils/ShortStrings.sol\":2914:3254  function toShortStringWithFallback(string memory value, string storage store) internal returns (ShortString) {... */\ntag_4:\n  swap1\n    /* \"contracts/contracts/tokens/MockTokenCreator.sol\":381:1422  contract MockTokenCreator is ERC20, ERC20Permit {... */\n  dup2\n  mload\n    /* \"@openzeppelin/contracts/utils/ShortStrings.sol\":3059:3061  32 */\n  0x20\n    /* \"@openzeppelin/contracts/utils/ShortStrings.sol\":3037:3061  bytes(value).length < 32 */\n  dup2\n  lt\n    /* \"@openzeppelin/contracts/utils/ShortStrings.sol\":3033:3248  if (bytes(value).length < 32) {... */\n  0x00\n    /* \"@openzeppelin/contracts/utils/ShortStrings.sol\":3059:3061  32 */\n  eq\n  tag_102\n  jumpi\n    /* \"contracts/contracts/tokens/MockTokenCreator.sol\":381:1422  contract MockTokenCreator is ERC20, ERC20Permit {... */\n  pop\n  swap1\n    /* \"@openzeppelin/contracts/utils/ShortStrings.sol\":1854:1856  31 */\n  0x1f\n    /* \"contracts/contracts/tokens/MockTokenCreator.sol\":381:1422  contract MockTokenCreator is ERC20, ERC20Permit {... */\n  dup2\n  mload\n    /* \"@openzeppelin/contracts/utils/ShortStrings.sol\":1840:1856  bstr.length > 31 */\n  gt\n    /* \"@openzeppelin/contracts/utils/ShortStrings.sol\":1836:1908  if (bstr.length > 31) {... */\n  tag_77\n  jumpi\n    /* \"@openzeppelin/contracts/utils/ShortStrings.sol\":3059:3061  32 */\n  0x20\n    /* \"contracts/contracts/tokens/MockTokenCreator.sol\":381:1422  contract MockTokenCreator is ERC20, ERC20Permit {... */\n  dup2\n  mload\n  swap2\n  add\n    /* \"@openzeppelin/contracts/utils/cryptography/EIP712.sol\":2079:2174  keccak256(\"EIP712Domain(string name,string version,uint256 chainId,address verifyingContract)\") */\n  mload\n    /* \"@openzeppelin/contracts/utils/ShortStrings.sol\":3059:3061  32 */\n  0x20\n    /* \"contracts/contracts/tokens/MockTokenCreator.sol\":381:1422  contract MockTokenCreator is ERC20, ERC20Permit {... */\n  dup3\n  lt\n  tag_79\n  jumpi\n    /* \"@openzeppelin/contracts/utils/ShortStrings.sol\":1949:1985  uint256(bytes32(bstr)) | bstr.length */\n  or\n    /* \"@openzeppelin/contracts/utils/ShortStrings.sol\":3077:3104  return toShortString(value) */\n  swap1\n  jump\t// out\n    /* \"@openzeppelin/contracts/utils/ShortStrings.sol\":3033:3248  if (bytes(value).length < 32) {... */\ntag_102:\n  sub(shl(0x40, 0x01), 0x01)\n    /* \"contracts/contracts/tokens/MockTokenCreator.sol\":381:1422  contract MockTokenCreator is ERC20, ERC20Permit {... */\n  dup2\n  gt\n  tag_30\n  jumpi\n    /* \"@openzeppelin/contracts/utils/cryptography/EIP712.sol\":3501:3517  _versionFallback */\n  0x06\n    /* \"contracts/contracts/tokens/MockTokenCreator.sol\":381:1422  contract MockTokenCreator is ERC20, ERC20Permit {... */\n  sload\n  0x01\n  dup2\n  dup2\n  shr\n  swap2\n  and\n  dup1\n  iszero\n  tag_110\n  jumpi\n    /* \"@openzeppelin/contracts/utils/ShortStrings.sol\":3033:3248  if (bytes(value).length < 32) {... */\ntag_111:\n    /* \"@openzeppelin/contracts/utils/ShortStrings.sol\":3059:3061  32 */\n  0x20\n    /* \"contracts/contracts/tokens/MockTokenCreator.sol\":381:1422  contract MockTokenCreator is ERC20, ERC20Permit {... */\n  dup3\n  lt\n  eq\n  tag_34\n  jumpi\n  0x1f\n  dup2\n  gt\n  tag_114\n  jumpi\n    /* \"@openzeppelin/contracts/utils/ShortStrings.sol\":3033:3248  if (bytes(value).length < 32) {... */\ntag_115:\n    /* \"contracts/contracts/tokens/MockTokenCreator.sol\":381:1422  contract MockTokenCreator is ERC20, ERC20Permit {... */\n  pop\n    /* \"@openzeppelin/contracts/utils/ShortStrings.sol\":3059:3061  32 */\n  0x20\n    /* \"contracts/contracts/tokens/MockTokenCreator.sol\":381:1422  contract MockTokenCreator is ERC20, ERC20Permit {... */\n  swap3\n  0x1f\n  dup3\n  gt\n  0x01\n  eq\n  tag_116\n  jumpi\n  swap3\n  dup2\n  swap3\n  swap4\n  0x00\n  swap3\n  tag_118\n  jumpi\ntag_119:\n  pop\n  pop\n  dup2\n  0x01\n  shl\n  swap2\n  not(0x00)\n  swap1\n  0x03\n  shl\n  shr\n  not\n  and\n  or\n    /* \"@openzeppelin/contracts/utils/cryptography/EIP712.sol\":3501:3517  _versionFallback */\n  0x06\n    /* \"contracts/contracts/tokens/MockTokenCreator.sol\":381:1422  contract MockTokenCreator is ERC20, ERC20Permit {... */\n  sstore\n    /* \"@openzeppelin/contracts/utils/ShortStrings.sol\":1390:1456  0x00000000000000000000000000000000000000000000000000000000000000FF */\n  0xff\n    /* \"@openzeppelin/contracts/utils/ShortStrings.sol\":3195:3237  return ShortString.wrap(FALLBACK_SENTINEL) */\n  swap1\n  jump\t// out\n    /* \"contracts/contracts/tokens/MockTokenCreator.sol\":381:1422  contract MockTokenCreator is ERC20, ERC20Permit {... */\ntag_118:\n  add\n  mload\n  swap1\n  pop\n  0x00\n  dup1\n  jump(tag_119)\ntag_116:\n  not(0x1f)\n  dup3\n  and\n  swap4\n    /* \"@openzeppelin/contracts/utils/cryptography/EIP712.sol\":3501:3517  _versionFallback */\n  0x06\n    /* \"contracts/contracts/tokens/MockTokenCreator.sol\":381:1422  contract MockTokenCreator is ERC20, ERC20Permit {... */\n  0x00\n  mstore\n  dup1\n  0x00\n  keccak256\n  swap2\n  0x00\ntag_121:\n  dup7\n  dup2\n  lt\n  tag_122\n  jumpi\n  pop\n  dup4\n  0x01\n  swap6\n  swap7\n  lt\n  tag_124\n  jumpi\ntag_125:\n  pop\n  pop\n  pop\n  dup2\n  shl\n  add\n    /* \"@openzeppelin/contracts/utils/cryptography/EIP712.sol\":3501:3517  _versionFallback */\n  0x06\n    /* \"contracts/contracts/tokens/MockTokenCreator.sol\":381:1422  contract MockTokenCreator is ERC20, ERC20Permit {... */\n  sstore\n    /* \"@openzeppelin/contracts/utils/ShortStrings.sol\":1390:1456  0x00000000000000000000000000000000000000000000000000000000000000FF */\n  0xff\n    /* \"@openzeppelin/contracts/utils/ShortStrings.sol\":3195:3237  return ShortString.wrap(FALLBACK_SENTINEL) */\n  swap1\n  jump\t// out\n    /* \"contracts/contracts/tokens/MockTokenCreator.sol\":381:1422  contract MockTokenCreator is ERC20, ERC20Permit {... */\ntag_124:\n  add\n  mload\n  not(0x00)\n  0xf8\n  dup5\n  0x03\n  shl\n  and\n  shr\n  not\n  and\n  swap1\n  sstore\n  0x00\n  dup1\n  dup1\n  jump(tag_125)\ntag_122:\n  swap2\n  swap3\n    /* \"@openzeppelin/contracts/utils/ShortStrings.sol\":3059:3061  32 */\n  0x20\n    /* \"contracts/contracts/tokens/MockTokenCreator.sol\":381:1422  contract MockTokenCreator is ERC20, ERC20Permit {... */\n  0x01\n  dup2\n  swap3\n  dup7\n  dup6\n  add\n  mload\n  dup2\n  sstore\n  add\n  swap5\n  add\n  swap3\n  add\n  jump(tag_121)\ntag_114:\n    /* \"@openzeppelin/contracts/utils/cryptography/EIP712.sol\":3501:3517  _versionFallback */\n  0x06\n    /* \"contracts/contracts/tokens/MockTokenCreator.sol\":381:1422  contract MockTokenCreator is ERC20, ERC20Permit {... */\n  0x00\n  mstore\n  0x1f\n    /* \"@openzeppelin/contracts/utils/ShortStrings.sol\":3059:3061  32 */\n  0x20\n    /* \"contracts/contracts/tokens/MockTokenCreator.sol\":381:1422  contract MockTokenCreator is ERC20, ERC20Permit {... */\n  0x00\n  keccak256\n  swap2\n  add\n  0x05\n  shr\n  dup2\n  add\n  swap1\n  0x1f\n  dup4\n  add\n  0x05\n  shr\n  add\ntag_126:\n  dup2\n  dup2\n  lt\n  tag_127\n  jumpi\n  pop\n  jump(tag_115)\ntag_127:\n  0x00\n  dup2\n  sstore\n  0x01\n  add\n  jump(tag_126)\ntag_110:\n  swap1\n  0x7f\n  and\n  swap1\n  jump(tag_111)\nstop\n\nsub_0: assembly {\n        /* \"contracts/contracts/tokens/MockTokenCreator.sol\":381:1422  contract MockTokenCreator is ERC20, ERC20Permit {... */\n      0x80\n      dup1\n      0x40\n      mstore\n      jumpi(tag_14, iszero(lt(calldatasize, 0x04)))\n      0x00\n      dup1\n      revert\n    tag_14:\n      shr(0xe0, calldataload(0x00))\n      swap1\n      dup2\n      0x06fdde03\n      eq\n      tag_16\n      jumpi\n      pop\n      dup1\n      0x095ea7b3\n      eq\n      tag_18\n      jumpi\n      dup1\n      0x18160ddd\n      eq\n      tag_20\n      jumpi\n      dup1\n      0x23b872dd\n      eq\n      tag_22\n      jumpi\n      dup1\n      0x313ce567\n      eq\n      tag_24\n      jumpi\n      dup1\n      0x3644e515\n      eq\n      tag_26\n      jumpi\n      dup1\n      0x40c10f19\n      eq\n      tag_28\n      jumpi\n      dup1\n      0x42966c68\n      eq\n      tag_30\n      jumpi\n      dup1\n      0x70a08231\n      eq\n      tag_32\n      jumpi\n      dup1\n      0x7ecebe00\n      eq\n      tag_34\n      jumpi\n      dup1\n      0x84b0196e\n      eq\n      tag_36\n      jumpi\n      dup1\n      0x95d89b41\n      eq\n      tag_38\n      jumpi\n      dup1\n      0xa9059cbb\n      eq\n      tag_40\n      jumpi\n      dup1\n      0xd505accf\n      eq\n      tag_42\n      jumpi\n      0xdd62ed3e\n      eq\n      tag_44\n      jumpi\n      0x00\n      dup1\n      revert\n    tag_44:\n      jumpi(tag_48, callvalue)\n      jumpi(tag_48, slt(add(not(0x03), calldatasize), 0x40))\n      tag_50\n      tag_2\n      jump\t// in\n    tag_50:\n      tag_51\n      tag_3\n      jump\t// in\n    tag_51:\n      sub(shl(0xa0, 0x01), 0x01)\n      swap2\n      dup3\n      and\n      0x00\n      swap1\n      dup2\n      mstore\n      0x01\n      0x20\n      swap1\n      dup2\n      mstore\n      0x40\n      dup1\n      dup4\n      keccak256\n      swap5\n      swap1\n      swap4\n      and\n      dup3\n      mstore\n      swap3\n      dup4\n      mstore\n      dup2\n      swap1\n      keccak256\n      sload\n      swap1\n      mload\n      swap1\n      dup2\n      mstore\n      return\n    tag_48:\n      0x00\n      dup1\n      revert\n    tag_42:\n      jumpi(tag_48, callvalue)\n      jumpi(tag_48, slt(add(not(0x03), calldatasize), 0xe0))\n      tag_56\n      tag_2\n      jump\t// in\n    tag_56:\n      tag_57\n      tag_3\n      jump\t// in\n    tag_57:\n      calldataload(0x44)\n      swap1\n      calldataload(0x64)\n      swap3\n      calldataload(0x84)\n      0xff\n      dup2\n      and\n      dup2\n      sub\n      tag_48\n      jumpi\n        /* \"@openzeppelin/contracts/token/ERC20/extensions/ERC20Permit.sol\":1883:1898  block.timestamp */\n      dup5\n      timestamp\n        /* \"@openzeppelin/contracts/token/ERC20/extensions/ERC20Permit.sol\":1883:1909  block.timestamp > deadline */\n      gt\n        /* \"@openzeppelin/contracts/token/ERC20/extensions/ERC20Permit.sol\":1879:1976  if (block.timestamp > deadline) {... */\n      tag_60\n      jumpi\n        /* \"@openzeppelin/contracts/utils/cryptography/ECDSA.sol\":6967:6992  tryRecover(hash, v, r, s) */\n      tag_62\n        /* \"@openzeppelin/contracts/utils/cryptography/ECDSA.sol\":7021:7029  errorArg */\n      tag_63\n        /* \"contracts/contracts/tokens/MockTokenCreator.sol\":381:1422  contract MockTokenCreator is ERC20, ERC20Permit {... */\n      swap2\n      0x01\n      dup1\n      0xa0\n      shl\n      sub\n      dup5\n      and\n      swap7\n      dup8\n      0x00\n      mstore\n        /* \"@openzeppelin/contracts/utils/Nonces.sol\":1121:1128  _nonces */\n      0x07\n        /* \"contracts/contracts/tokens/MockTokenCreator.sol\":381:1422  contract MockTokenCreator is ERC20, ERC20Permit {... */\n      0x20\n      mstore\n      keccak256(0x00, 0x40)\n      swap1\n      dup2\n      sload\n      swap2\n      0x01\n      dup4\n      add\n      swap1\n      sstore\n      mload(0x40)\n        /* \"@openzeppelin/contracts/token/ERC20/extensions/ERC20Permit.sol\":2017:2095  abi.encode(PERMIT_TYPEHASH, owner, spender, value, _useNonce(owner), deadline) */\n      swap1\n        /* \"contracts/contracts/tokens/MockTokenCreator.sol\":381:1422  contract MockTokenCreator is ERC20, ERC20Permit {... */\n      0x20\n        /* \"@openzeppelin/contracts/token/ERC20/extensions/ERC20Permit.sol\":2017:2095  abi.encode(PERMIT_TYPEHASH, owner, spender, value, _useNonce(owner), deadline) */\n      dup3\n      add\n        /* \"contracts/contracts/tokens/MockTokenCreator.sol\":381:1422  contract MockTokenCreator is ERC20, ERC20Permit {... */\n      swap3\n        /* \"@openzeppelin/contracts/token/ERC20/extensions/ERC20Permit.sol\":1022:1117  keccak256(\"Permit(address owner,address spender,uint256 value,uint256 nonce,uint256 deadline)\") */\n      0x6e71edae12b1b97f4d1f60370fef10105fa2faae0126114a169c64845d6126c9\n        /* \"contracts/contracts/tokens/MockTokenCreator.sol\":381:1422  contract MockTokenCreator is ERC20, ERC20Permit {... */\n      dup5\n      mstore\n        /* \"@openzeppelin/contracts/token/ERC20/extensions/ERC20Permit.sol\":1022:1117  keccak256(\"Permit(address owner,address spender,uint256 value,uint256 nonce,uint256 deadline)\") */\n      dup11\n        /* \"contracts/contracts/tokens/MockTokenCreator.sol\":381:1422  contract MockTokenCreator is ERC20, ERC20Permit {... */\n      0x40\n        /* \"@openzeppelin/contracts/token/ERC20/extensions/ERC20Permit.sol\":1022:1117  keccak256(\"Permit(address owner,address spender,uint256 value,uint256 nonce,uint256 deadline)\") */\n      dup5\n      add\n        /* \"contracts/contracts/tokens/MockTokenCreator.sol\":381:1422  contract MockTokenCreator is ERC20, ERC20Permit {... */\n      mstore\n      0x01\n      dup1\n      0xa0\n      shl\n      sub\n      dup10\n      and\n      0x60\n        /* \"@openzeppelin/contracts/token/ERC20/extensions/ERC20Permit.sol\":1022:1117  keccak256(\"Permit(address owner,address spender,uint256 value,uint256 nonce,uint256 deadline)\") */\n      dup5\n      add\n        /* \"contracts/contracts/tokens/MockTokenCreator.sol\":381:1422  contract MockTokenCreator is ERC20, ERC20Permit {... */\n      mstore\n        /* \"@openzeppelin/contracts/token/ERC20/extensions/ERC20Permit.sol\":1022:1117  keccak256(\"Permit(address owner,address spender,uint256 value,uint256 nonce,uint256 deadline)\") */\n      dup10\n        /* \"contracts/contracts/tokens/MockTokenCreator.sol\":381:1422  contract MockTokenCreator is ERC20, ERC20Permit {... */\n      0x80\n        /* \"@openzeppelin/contracts/token/ERC20/extensions/ERC20Permit.sol\":1022:1117  keccak256(\"Permit(address owner,address spender,uint256 value,uint256 nonce,uint256 deadline)\") */\n      dup5\n      add\n        /* \"contracts/contracts/tokens/MockTokenCreator.sol\":381:1422  contract MockTokenCreator is ERC20, ERC20Permit {... */\n      mstore\n      0xa0\n        /* \"@openzeppelin/contracts/token/ERC20/extensions/ERC20Permit.sol\":1022:1117  keccak256(\"Permit(address owner,address spender,uint256 value,uint256 nonce,uint256 deadline)\") */\n      dup4\n      add\n        /* \"contracts/contracts/tokens/MockTokenCreator.sol\":381:1422  contract MockTokenCreator is ERC20, ERC20Permit {... */\n      mstore\n      0xc0\n        /* \"@openzeppelin/contracts/token/ERC20/extensions/ERC20Permit.sol\":1022:1117  keccak256(\"Permit(address owner,address spender,uint256 value,uint256 nonce,uint256 deadline)\") */\n      dup3\n      add\n        /* \"contracts/contracts/tokens/MockTokenCreator.sol\":381:1422  contract MockTokenCreator is ERC20, ERC20Permit {... */\n      mstore\n      0xc0\n        /* \"@openzeppelin/contracts/token/ERC20/extensions/ERC20Permit.sol\":2017:2095  abi.encode(PERMIT_TYPEHASH, owner, spender, value, _useNonce(owner), deadline) */\n      dup2\n      mstore\n      tag_64\n        /* \"contracts/contracts/tokens/MockTokenCreator.sol\":381:1422  contract MockTokenCreator is ERC20, ERC20Permit {... */\n      0xe0\n        /* \"@openzeppelin/contracts/token/ERC20/extensions/ERC20Permit.sol\":2017:2095  abi.encode(PERMIT_TYPEHASH, owner, spender, value, _useNonce(owner), deadline) */\n      dup3\n      tag_6\n      jump\t// in\n    tag_64:\n        /* \"contracts/contracts/tokens/MockTokenCreator.sol\":381:1422  contract MockTokenCreator is ERC20, ERC20Permit {... */\n      mload\n        /* \"@openzeppelin/contracts/token/ERC20/extensions/ERC20Permit.sol\":2007:2096  keccak256(abi.encode(PERMIT_TYPEHASH, owner, spender, value, _useNonce(owner), deadline)) */\n      swap1\n      keccak256\n        /* \"@openzeppelin/contracts/utils/cryptography/EIP712.sol\":5053:5073  _domainSeparatorV4() */\n      tag_65\n      tag_8\n      jump\t// in\n    tag_65:\n        /* \"@openzeppelin/contracts/utils/cryptography/MessageHashUtils.sol\":3515:3748  assembly {... */\n      swap1\n        /* \"contracts/contracts/tokens/MockTokenCreator.sol\":381:1422  contract MockTokenCreator is ERC20, ERC20Permit {... */\n      0x40\n        /* \"@openzeppelin/contracts/utils/cryptography/MessageHashUtils.sol\":3515:3748  assembly {... */\n      mload\n      swap2\n      shl(0xf0, 0x1901)\n      dup4\n      mstore\n      0x02\n      dup4\n      add\n      mstore\n      0x22\n      dup3\n      add\n      mstore\n        /* \"contracts/contracts/tokens/MockTokenCreator.sol\":381:1422  contract MockTokenCreator is ERC20, ERC20Permit {... */\n      calldataload(0xc4)\n      swap2\n        /* \"@openzeppelin/contracts/utils/cryptography/MessageHashUtils.sol\":3515:3748  assembly {... */\n      0x42\n        /* \"contracts/contracts/tokens/MockTokenCreator.sol\":381:1422  contract MockTokenCreator is ERC20, ERC20Permit {... */\n      calldataload(0xa4)\n        /* \"@openzeppelin/contracts/utils/cryptography/MessageHashUtils.sol\":3515:3748  assembly {... */\n      swap3\n      keccak256\n        /* \"@openzeppelin/contracts/utils/cryptography/ECDSA.sol\":6967:6992  tryRecover(hash, v, r, s) */\n      tag_12\n      jump\t// in\n    tag_62:\n        /* \"@openzeppelin/contracts/utils/cryptography/ECDSA.sol\":7021:7029  errorArg */\n      swap1\n      swap3\n      swap2\n      swap3\n      tag_13\n      jump\t// in\n    tag_63:\n      sub(shl(0xa0, 0x01), 0x01)\n        /* \"contracts/contracts/tokens/MockTokenCreator.sol\":381:1422  contract MockTokenCreator is ERC20, ERC20Permit {... */\n      and\n        /* \"@openzeppelin/contracts/token/ERC20/extensions/ERC20Permit.sol\":2220:2235  signer != owner */\n      dup5\n      dup2\n      sub\n        /* \"@openzeppelin/contracts/token/ERC20/extensions/ERC20Permit.sol\":2216:2304  if (signer != owner) {... */\n      tag_66\n      jumpi\n        /* \"@openzeppelin/contracts/token/ERC20/ERC20.sol\":9105:9109  true */\n      pop\n      tag_68\n      swap4\n      pop\n      tag_9\n      jump\t// in\n    tag_68:\n        /* \"contracts/contracts/tokens/MockTokenCreator.sol\":381:1422  contract MockTokenCreator is ERC20, ERC20Permit {... */\n      stop\n        /* \"@openzeppelin/contracts/token/ERC20/extensions/ERC20Permit.sol\":2216:2304  if (signer != owner) {... */\n    tag_66:\n        /* \"@openzeppelin/contracts/token/ERC20/extensions/ERC20Permit.sol\":2258:2293  ERC2612InvalidSigner(signer, owner) */\n      dup5\n      swap1\n      shl(0xe1, 0x25c00723)\n        /* \"contracts/contracts/tokens/MockTokenCreator.sol\":381:1422  contract MockTokenCreator is ERC20, ERC20Permit {... */\n      0x00\n        /* \"@openzeppelin/contracts/token/ERC20/extensions/ERC20Permit.sol\":2258:2293  ERC2612InvalidSigner(signer, owner) */\n      mstore\n        /* \"contracts/contracts/tokens/MockTokenCreator.sol\":381:1422  contract MockTokenCreator is ERC20, ERC20Permit {... */\n      0x04\n      mstore\n      0x24\n      mstore\n      0x44\n      0x00\n        /* \"@openzeppelin/contracts/token/ERC20/extensions/ERC20Permit.sol\":2258:2293  ERC2612InvalidSigner(signer, owner) */\n      revert\n        /* \"@openzeppelin/contracts/token/ERC20/extensions/ERC20Permit.sol\":1879:1976  if (block.timestamp > deadline) {... */\n    tag_60:\n        /* \"@openzeppelin/contracts/token/ERC20/extensions/ERC20Permit.sol\":1932:1965  ERC2612ExpiredSignature(deadline) */\n      dup5\n      shl(0xe1, 0x313c8981)\n        /* \"contracts/contracts/tokens/MockTokenCreator.sol\":381:1422  contract MockTokenCreator is ERC20, ERC20Permit {... */\n      0x00\n        /* \"@openzeppelin/contracts/token/ERC20/extensions/ERC20Permit.sol\":1932:1965  ERC2612ExpiredSignature(deadline) */\n      mstore\n        /* \"contracts/contracts/tokens/MockTokenCreator.sol\":381:1422  contract MockTokenCreator is ERC20, ERC20Permit {... */\n      0x04\n      mstore\n      0x24\n      0x00\n        /* \"@openzeppelin/contracts/token/ERC20/extensions/ERC20Permit.sol\":1932:1965  ERC2612ExpiredSignature(deadline) */\n      revert\n        /* \"contracts/contracts/tokens/MockTokenCreator.sol\":381:1422  contract MockTokenCreator is ERC20, ERC20Permit {... */\n    tag_40:\n      jumpi(tag_48, callvalue)\n      jumpi(tag_48, slt(add(not(0x03), calldatasize), 0x40))\n        /* \"@openzeppelin/contracts/token/ERC20/ERC20.sol\":3754:3759  value */\n      tag_73\n        /* \"contracts/contracts/tokens/MockTokenCreator.sol\":381:1422  contract MockTokenCreator is ERC20, ERC20Permit {... */\n      tag_74\n      tag_2\n      jump\t// in\n    tag_74:\n      calldataload(0x24)\n        /* \"@openzeppelin/contracts/utils/Context.sol\":735:745  msg.sender */\n      swap1\n      caller\n        /* \"@openzeppelin/contracts/token/ERC20/ERC20.sol\":3754:3759  value */\n      tag_7\n      jump\t// in\n    tag_73:\n        /* \"contracts/contracts/tokens/MockTokenCreator.sol\":381:1422  contract MockTokenCreator is ERC20, ERC20Permit {... */\n      0x20\n      mload(0x40)\n      0x01\n      dup2\n      mstore\n      return\n    tag_38:\n      jumpi(tag_48, callvalue)\n      jumpi(tag_48, slt(add(not(0x03), calldatasize), 0x00))\n      mload(0x40)\n      0x00\n      sload(0x04)\n      tag_79\n      dup2\n      tag_4\n      jump\t// in\n    tag_79:\n      dup1\n      dup5\n      mstore\n      swap1\n      0x01\n      dup2\n      and\n      swap1\n      dup2\n      iszero\n      tag_80\n      jumpi\n      pop\n      0x01\n      eq\n      tag_82\n      jumpi\n    tag_83:\n      tag_84\n      dup4\n      tag_85\n      dup2\n      dup6\n      sub\n      dup3\n      tag_6\n      jump\t// in\n    tag_85:\n      mload(0x40)\n      swap2\n      dup3\n      swap2\n      0x20\n      dup4\n      mstore\n      0x20\n      dup4\n      add\n      swap1\n      tag_1\n      jump\t// in\n    tag_84:\n      sub\n      swap1\n      return\n    tag_82:\n      0x04\n      0x00\n      swap1\n      dup2\n      mstore\n      0x8a35acfbc15ff81a39ae7d344fd709f28e8600b4aa8c65c6b64bfe7fe36bd19b\n      swap4\n      swap3\n      pop\n      swap1\n    tag_86:\n      dup1\n      dup3\n      lt\n      tag_87\n      jumpi\n      pop\n      swap1\n      swap2\n      pop\n      dup2\n      add\n      0x20\n      add\n      tag_85\n      jump(tag_83)\n    tag_87:\n      swap2\n      swap3\n      0x01\n      dup2\n      0x20\n      swap3\n      sload\n      dup4\n      dup6\n      dup9\n      add\n      add\n      mstore\n      add\n      swap2\n      add\n      swap1\n      swap3\n      swap2\n      jump(tag_86)\n    tag_80:\n      not(0xff)\n      and\n      0x20\n      dup1\n      dup7\n      add\n      swap2\n      swap1\n      swap2\n      mstore\n      swap2\n      iszero\n      iszero\n      0x05\n      shl\n      dup5\n      add\n      swap1\n      swap2\n      add\n      swap2\n      pop\n      tag_85\n      swap1\n      pop\n      jump(tag_83)\n    tag_36:\n      jumpi(tag_48, callvalue)\n      jumpi(tag_48, slt(add(not(0x03), calldatasize), 0x00))\n      tag_93\n        /* \"@openzeppelin/contracts/utils/cryptography/EIP712.sol\":6099:6140  _name.toStringWithFallback(_nameFallback) */\n      tag_94\n        /* \"@openzeppelin/contracts/utils/cryptography/EIP712.sol\":6099:6104  _name */\n      immutable(\"0x3f8d8c3e10e6d437441e5e6c68a97704f762fe5be2aa8fc983333dcb27731db3\")\n        /* \"@openzeppelin/contracts/utils/cryptography/EIP712.sol\":6099:6140  _name.toStringWithFallback(_nameFallback) */\n      tag_10\n      jump\t// in\n    tag_94:\n        /* \"@openzeppelin/contracts/utils/cryptography/EIP712.sol\":6554:6601  _version.toStringWithFallback(_versionFallback) */\n      tag_95\n        /* \"@openzeppelin/contracts/utils/cryptography/EIP712.sol\":6554:6562  _version */\n      immutable(\"0xad5ff0cf6e1f2374d096d253114cd0e68ad4cfb9965cb5abf09b249289902114\")\n        /* \"@openzeppelin/contracts/utils/cryptography/EIP712.sol\":6554:6601  _version.toStringWithFallback(_versionFallback) */\n      tag_11\n      jump\t// in\n    tag_95:\n        /* \"contracts/contracts/tokens/MockTokenCreator.sol\":381:1422  contract MockTokenCreator is ERC20, ERC20Permit {... */\n      0x20\n      tag_96\n      mload(0x40)\n      swap3\n      tag_97\n      dup4\n      dup6\n      tag_6\n      jump\t// in\n    tag_97:\n      0x00\n      dup5\n      mstore\n      0x00\n      calldatasize\n      dup2\n      calldatacopy\n      mload(0x40)\n      swap6\n      dup7\n      swap6\n      shl(0xf8, 0x0f)\n      dup8\n      mstore\n      0xe0\n      dup6\n      dup9\n      add\n      mstore\n      0xe0\n      dup8\n      add\n      swap1\n      tag_1\n      jump\t// in\n    tag_93:\n      swap1\n      dup6\n      dup3\n      sub\n      0x40\n      dup8\n      add\n      mstore\n      tag_1\n      jump\t// in\n    tag_96:\n        /* \"@openzeppelin/contracts/utils/cryptography/EIP712.sol\":5590:5603  block.chainid */\n      chainid\n        /* \"contracts/contracts/tokens/MockTokenCreator.sol\":381:1422  contract MockTokenCreator is ERC20, ERC20Permit {... */\n      0x60\n      dup6\n      add\n      mstore\n        /* \"@openzeppelin/contracts/utils/cryptography/EIP712.sol\":5625:5629  this */\n      address\n        /* \"contracts/contracts/tokens/MockTokenCreator.sol\":381:1422  contract MockTokenCreator is ERC20, ERC20Permit {... */\n      0x80\n      dup6\n      add\n      mstore\n      0x00\n      0xa0\n      dup6\n      add\n      mstore\n      dup4\n      dup2\n      sub\n      0xc0\n      dup6\n      add\n      mstore\n      dup2\n      dup1\n      dup5\n      mload\n      swap3\n      dup4\n      dup2\n      mstore\n      add\n      swap4\n      add\n      swap2\n      0x00\n    tag_98:\n      dup3\n      dup2\n      lt\n      tag_99\n      jumpi\n      pop\n      pop\n      pop\n      pop\n      sub\n      swap1\n      return\n    tag_99:\n      dup4\n      mload\n      dup6\n      mstore\n      dup7\n      swap6\n      pop\n      swap4\n      dup2\n      add\n      swap4\n      swap3\n      dup2\n      add\n      swap3\n      0x01\n      add\n      jump(tag_98)\n    tag_34:\n      jumpi(tag_48, callvalue)\n      jumpi(tag_48, slt(add(not(0x03), calldatasize), 0x20))\n      sub(shl(0xa0, 0x01), 0x01)\n      tag_105\n      tag_2\n      jump\t// in\n    tag_105:\n      and\n      0x00\n      mstore\n        /* \"@openzeppelin/contracts/utils/Nonces.sol\":624:631  _nonces */\n      0x07\n        /* \"contracts/contracts/tokens/MockTokenCreator.sol\":381:1422  contract MockTokenCreator is ERC20, ERC20Permit {... */\n      0x20\n      mstore\n      0x20\n      sload(keccak256(0x00, 0x40))\n      mload(0x40)\n      swap1\n      dup2\n      mstore\n      return\n    tag_32:\n      jumpi(tag_48, callvalue)\n      jumpi(tag_48, slt(add(not(0x03), calldatasize), 0x20))\n      sub(shl(0xa0, 0x01), 0x01)\n      tag_110\n      tag_2\n      jump\t// in\n    tag_110:\n      and\n      0x00\n      mstore\n      mstore(0x20, 0x00)\n      0x20\n      sload(keccak256(0x00, 0x40))\n      mload(0x40)\n      swap1\n      dup2\n      mstore\n      return\n    tag_30:\n      jumpi(tag_48, callvalue)\n      jumpi(tag_48, slt(add(not(0x03), calldatasize), 0x20))\n      calldataload(0x04)\n        /* \"@openzeppelin/contracts/utils/Context.sol\":735:745  msg.sender */\n      caller\n        /* \"@openzeppelin/contracts/token/ERC20/ERC20.sol\":8317:8338  account == address(0) */\n      iszero\n        /* \"@openzeppelin/contracts/token/ERC20/ERC20.sol\":8313:8402  if (account == address(0)) {... */\n      tag_115\n      jumpi\n        /* \"@openzeppelin/contracts/utils/Context.sol\":735:745  msg.sender */\n      caller\n        /* \"contracts/contracts/tokens/MockTokenCreator.sol\":381:1422  contract MockTokenCreator is ERC20, ERC20Permit {... */\n      0x00\n      mstore\n      mstore(0x20, 0x00)\n      sload(keccak256(0x00, 0x40))\n        /* \"@openzeppelin/contracts/token/ERC20/ERC20.sol\":6603:6622  fromBalance < value */\n      dup2\n      dup2\n      lt\n        /* \"@openzeppelin/contracts/token/ERC20/ERC20.sol\":6599:6714  if (fromBalance < value) {... */\n      tag_117\n      jumpi\n        /* \"@openzeppelin/contracts/utils/Context.sol\":735:745  msg.sender */\n      swap1\n      dup1\n        /* \"contracts/contracts/tokens/MockTokenCreator.sol\":381:1422  contract MockTokenCreator is ERC20, ERC20Permit {... */\n      0x00\n        /* \"@openzeppelin/contracts/utils/Context.sol\":735:745  msg.sender */\n      swap3\n      caller\n        /* \"contracts/contracts/tokens/MockTokenCreator.sol\":381:1422  contract MockTokenCreator is ERC20, ERC20Permit {... */\n      dup5\n      mstore\n      dup4\n      0x20\n      mstore\n      sub\n      0x40\n      dup4\n      keccak256\n      sstore\n      dup1\n        /* \"@openzeppelin/contracts/token/ERC20/ERC20.sol\":7073:7094  _totalSupply -= value */\n      0x02\n        /* \"contracts/contracts/tokens/MockTokenCreator.sol\":381:1422  contract MockTokenCreator is ERC20, ERC20Permit {... */\n      sload\n      sub\n        /* \"@openzeppelin/contracts/token/ERC20/ERC20.sol\":7073:7094  _totalSupply -= value */\n      0x02\n        /* \"contracts/contracts/tokens/MockTokenCreator.sol\":381:1422  contract MockTokenCreator is ERC20, ERC20Permit {... */\n      sstore\n      mload(0x40)\n      swap1\n      dup2\n      mstore\n        /* \"@openzeppelin/contracts/token/ERC20/ERC20.sol\":7346:7371  Transfer(from, to, value) */\n      0xddf252ad1be2c89b69c2b068fc378daa952ba7f163c4a11628f55a4df523b3ef\n        /* \"contracts/contracts/tokens/MockTokenCreator.sol\":381:1422  contract MockTokenCreator is ERC20, ERC20Permit {... */\n      0x20\n        /* \"@openzeppelin/contracts/utils/Context.sol\":735:745  msg.sender */\n      caller\n        /* \"@openzeppelin/contracts/token/ERC20/ERC20.sol\":7346:7371  Transfer(from, to, value) */\n      swap3\n      log3\n        /* \"contracts/contracts/tokens/MockTokenCreator.sol\":381:1422  contract MockTokenCreator is ERC20, ERC20Permit {... */\n      stop\n        /* \"@openzeppelin/contracts/token/ERC20/ERC20.sol\":6599:6714  if (fromBalance < value) {... */\n    tag_117:\n        /* \"@openzeppelin/contracts/token/ERC20/ERC20.sol\":6649:6699  ERC20InsufficientBalance(from, fromBalance, value) */\n      shl(0xe2, 0x391434e3)\n        /* \"contracts/contracts/tokens/MockTokenCreator.sol\":381:1422  contract MockTokenCreator is ERC20, ERC20Permit {... */\n      0x00\n        /* \"@openzeppelin/contracts/token/ERC20/ERC20.sol\":6649:6699  ERC20InsufficientBalance(from, fromBalance, value) */\n      mstore\n        /* \"@openzeppelin/contracts/utils/Context.sol\":735:745  msg.sender */\n      caller\n        /* \"contracts/contracts/tokens/MockTokenCreator.sol\":381:1422  contract MockTokenCreator is ERC20, ERC20Permit {... */\n      0x04\n      mstore\n      0x24\n      mstore\n      0x44\n      mstore\n      0x64\n      0x00\n        /* \"@openzeppelin/contracts/token/ERC20/ERC20.sol\":6649:6699  ERC20InsufficientBalance(from, fromBalance, value) */\n      revert\n        /* \"@openzeppelin/contracts/token/ERC20/ERC20.sol\":8313:8402  if (account == address(0)) {... */\n    tag_115:\n        /* \"@openzeppelin/contracts/token/ERC20/ERC20.sol\":8361:8391  ERC20InvalidSender(address(0)) */\n      shl(0xe1, 0x4b637e8f)\n        /* \"contracts/contracts/tokens/MockTokenCreator.sol\":381:1422  contract MockTokenCreator is ERC20, ERC20Permit {... */\n      0x00\n        /* \"@openzeppelin/contracts/token/ERC20/ERC20.sol\":8361:8391  ERC20InvalidSender(address(0)) */\n      mstore\n        /* \"contracts/contracts/tokens/MockTokenCreator.sol\":381:1422  contract MockTokenCreator is ERC20, ERC20Permit {... */\n      mstore(0x04, 0x00)\n      0x24\n      0x00\n        /* \"@openzeppelin/contracts/token/ERC20/ERC20.sol\":8361:8391  ERC20InvalidSender(address(0)) */\n      revert\n        /* \"contracts/contracts/tokens/MockTokenCreator.sol\":381:1422  contract MockTokenCreator is ERC20, ERC20Permit {... */\n    tag_28:\n      jumpi(tag_48, callvalue)\n      jumpi(tag_48, slt(add(not(0x03), calldatasize), 0x40))\n      tag_123\n      tag_2\n      jump\t// in\n    tag_123:\n      sub(shl(0xa0, 0x01), 0x01)\n      and\n      calldataload(0x24)\n        /* \"@openzeppelin/contracts/token/ERC20/ERC20.sol\":7791:7812  account == address(0) */\n      dup2\n      iszero\n        /* \"@openzeppelin/contracts/token/ERC20/ERC20.sol\":7787:7878  if (account == address(0)) {... */\n      tag_124\n      jumpi\n        /* \"@openzeppelin/contracts/token/ERC20/ERC20.sol\":6496:6517  _totalSupply += value */\n      0x02\n        /* \"contracts/contracts/tokens/MockTokenCreator.sol\":381:1422  contract MockTokenCreator is ERC20, ERC20Permit {... */\n      sload\n      swap1\n      dup1\n      dup3\n      add\n      dup1\n      swap3\n      gt\n      tag_126\n      jumpi\n      0x20\n        /* \"@openzeppelin/contracts/token/ERC20/ERC20.sol\":7346:7371  Transfer(from, to, value) */\n      0xddf252ad1be2c89b69c2b068fc378daa952ba7f163c4a11628f55a4df523b3ef\n        /* \"contracts/contracts/tokens/MockTokenCreator.sol\":381:1422  contract MockTokenCreator is ERC20, ERC20Permit {... */\n      swap2\n      0x00\n      swap4\n        /* \"@openzeppelin/contracts/token/ERC20/ERC20.sol\":6496:6517  _totalSupply += value */\n      0x02\n        /* \"contracts/contracts/tokens/MockTokenCreator.sol\":381:1422  contract MockTokenCreator is ERC20, ERC20Permit {... */\n      sstore\n      dup5\n      dup5\n      mstore\n      dup4\n      dup3\n      mstore\n      0x40\n      dup5\n      keccak256\n      dup2\n      dup2\n      sload\n      add\n      swap1\n      sstore\n      mload(0x40)\n      swap1\n      dup2\n      mstore\n        /* \"@openzeppelin/contracts/token/ERC20/ERC20.sol\":7346:7371  Transfer(from, to, value) */\n      log3\n        /* \"contracts/contracts/tokens/MockTokenCreator.sol\":381:1422  contract MockTokenCreator is ERC20, ERC20Permit {... */\n      stop\n    tag_126:\n      mstore(0x00, shl(0xe0, 0x4e487b71))\n      mstore(0x04, 0x11)\n      revert(0x00, 0x24)\n        /* \"@openzeppelin/contracts/token/ERC20/ERC20.sol\":7787:7878  if (account == address(0)) {... */\n    tag_124:\n        /* \"@openzeppelin/contracts/token/ERC20/ERC20.sol\":7835:7867  ERC20InvalidReceiver(address(0)) */\n      shl(0xe0, 0xec442f05)\n        /* \"contracts/contracts/tokens/MockTokenCreator.sol\":381:1422  contract MockTokenCreator is ERC20, ERC20Permit {... */\n      0x00\n        /* \"@openzeppelin/contracts/token/ERC20/ERC20.sol\":7835:7867  ERC20InvalidReceiver(address(0)) */\n      mstore\n        /* \"contracts/contracts/tokens/MockTokenCreator.sol\":381:1422  contract MockTokenCreator is ERC20, ERC20Permit {... */\n      mstore(0x04, 0x00)\n      0x24\n      0x00\n        /* \"@openzeppelin/contracts/token/ERC20/ERC20.sol\":7835:7867  ERC20InvalidReceiver(address(0)) */\n      revert\n        /* \"contracts/contracts/tokens/MockTokenCreator.sol\":381:1422  contract MockTokenCreator is ERC20, ERC20Permit {... */\n    tag_26:\n      jumpi(tag_48, callvalue)\n      jumpi(tag_48, slt(add(not(0x03), calldatasize), 0x00))\n      0x20\n        /* \"@openzeppelin/contracts/token/ERC20/extensions/ERC20Permit.sol\":2741:2761  _domainSeparatorV4() */\n      tag_132\n      tag_8\n      jump\t// in\n    tag_132:\n        /* \"contracts/contracts/tokens/MockTokenCreator.sol\":381:1422  contract MockTokenCreator is ERC20, ERC20Permit {... */\n      mload(0x40)\n      swap1\n      dup2\n      mstore\n      return\n    tag_24:\n      jumpi(tag_48, callvalue)\n      jumpi(tag_48, slt(add(not(0x03), calldatasize), 0x00))\n      0x20\n      mload(0x40)\n        /* \"@openzeppelin/contracts/token/ERC20/ERC20.sol\":3075:3077  18 */\n      0x12\n        /* \"contracts/contracts/tokens/MockTokenCreator.sol\":381:1422  contract MockTokenCreator is ERC20, ERC20Permit {... */\n      dup2\n      mstore\n      return\n    tag_22:\n      jumpi(tag_48, callvalue)\n      jumpi(tag_48, slt(add(not(0x03), calldatasize), 0x60))\n      tag_141\n      tag_2\n      jump\t// in\n    tag_141:\n      tag_142\n      tag_3\n      jump\t// in\n    tag_142:\n      sub(shl(0xa0, 0x01), 0x01)\n      dup3\n      and\n      0x00\n      dup2\n      dup2\n      mstore\n      0x01\n      0x20\n      dup2\n      dup2\n      mstore\n      0x40\n      dup1\n      dup5\n      keccak256\n        /* \"@openzeppelin/contracts/utils/Context.sol\":735:745  msg.sender */\n      caller\n        /* \"contracts/contracts/tokens/MockTokenCreator.sol\":381:1422  contract MockTokenCreator is ERC20, ERC20Permit {... */\n      dup6\n      mstore\n      swap1\n      swap2\n      mstore\n      swap1\n      swap2\n      keccak256\n      sload\n      swap2\n      swap4\n      calldataload(0x44)\n      swap4\n      swap3\n      swap1\n      swap2\n        /* \"@openzeppelin/contracts/token/ERC20/ERC20.sol\":10828:10865  currentAllowance != type(uint256).max */\n      dup2\n      add\n        /* \"@openzeppelin/contracts/token/ERC20/ERC20.sol\":10824:11134  if (currentAllowance != type(uint256).max) {... */\n      tag_143\n      jumpi\n        /* \"contracts/contracts/tokens/MockTokenCreator.sol\":381:1422  contract MockTokenCreator is ERC20, ERC20Permit {... */\n    tag_144:\n        /* \"@openzeppelin/contracts/token/ERC20/ERC20.sol\":5249:5254  value */\n      pop\n      tag_73\n      swap4\n      pop\n      tag_7\n      jump\t// in\n        /* \"@openzeppelin/contracts/token/ERC20/ERC20.sol\":10824:11134  if (currentAllowance != type(uint256).max) {... */\n    tag_143:\n        /* \"@openzeppelin/contracts/token/ERC20/ERC20.sol\":10885:10909  currentAllowance < value */\n      dup4\n      dup2\n      lt\n        /* \"@openzeppelin/contracts/token/ERC20/ERC20.sol\":10881:11011  if (currentAllowance < value) {... */\n      tag_146\n      jumpi\n        /* \"@openzeppelin/contracts/token/ERC20/ERC20.sol\":10061:10080  owner == address(0) */\n      dup5\n      iszero\n        /* \"@openzeppelin/contracts/token/ERC20/ERC20.sol\":10057:10146  if (owner == address(0)) {... */\n      tag_148\n      jumpi\n        /* \"@openzeppelin/contracts/utils/Context.sol\":735:745  msg.sender */\n      caller\n        /* \"@openzeppelin/contracts/token/ERC20/ERC20.sol\":10159:10180  spender == address(0) */\n      iszero\n        /* \"@openzeppelin/contracts/token/ERC20/ERC20.sol\":10155:10245  if (spender == address(0)) {... */\n      tag_150\n      jumpi\n        /* \"@openzeppelin/contracts/token/ERC20/ERC20.sol\":5249:5254  value */\n      tag_73\n        /* \"contracts/contracts/tokens/MockTokenCreator.sol\":381:1422  contract MockTokenCreator is ERC20, ERC20Permit {... */\n      swap5\n      0x00\n      mstore\n      mstore(0x20, 0x01)\n      keccak256(0x00, 0x40)\n      0x01\n      dup1\n      0xa0\n      shl\n      sub\n        /* \"@openzeppelin/contracts/utils/Context.sol\":735:745  msg.sender */\n      caller\n        /* \"contracts/contracts/tokens/MockTokenCreator.sol\":381:1422  contract MockTokenCreator is ERC20, ERC20Permit {... */\n      and\n      0x00\n      mstore\n      0x20\n      mstore\n      dup4\n      keccak256(0x00, 0x40)\n      swap2\n      sub\n      swap1\n      sstore\n        /* \"@openzeppelin/contracts/token/ERC20/ERC20.sol\":10824:11134  if (currentAllowance != type(uint256).max) {... */\n      dup5\n      jump(tag_144)\n        /* \"@openzeppelin/contracts/token/ERC20/ERC20.sol\":10155:10245  if (spender == address(0)) {... */\n    tag_150:\n        /* \"@openzeppelin/contracts/token/ERC20/ERC20.sol\":10203:10234  ERC20InvalidSpender(address(0)) */\n      shl(0xe1, 0x4a1406b1)\n        /* \"contracts/contracts/tokens/MockTokenCreator.sol\":381:1422  contract MockTokenCreator is ERC20, ERC20Permit {... */\n      0x00\n        /* \"@openzeppelin/contracts/token/ERC20/ERC20.sol\":10203:10234  ERC20InvalidSpender(address(0)) */\n      mstore\n        /* \"contracts/contracts/tokens/MockTokenCreator.sol\":381:1422  contract MockTokenCreator is ERC20, ERC20Permit {... */\n      mstore(0x04, 0x00)\n      0x24\n      0x00\n        /* \"@openzeppelin/contracts/token/ERC20/ERC20.sol\":10203:10234  ERC20InvalidSpender(address(0)) */\n      revert\n        /* \"@openzeppelin/contracts/token/ERC20/ERC20.sol\":10057:10146  if (owner == address(0)) {... */\n    tag_148:\n        /* \"@openzeppelin/contracts/token/ERC20/ERC20.sol\":10103:10135  ERC20InvalidApprover(address(0)) */\n      shl(0xe0, 0xe602df05)\n        /* \"contracts/contracts/tokens/MockTokenCreator.sol\":381:1422  contract MockTokenCreator is ERC20, ERC20Permit {... */\n      0x00\n        /* \"@openzeppelin/contracts/token/ERC20/ERC20.sol\":10103:10135  ERC20InvalidApprover(address(0)) */\n      mstore\n        /* \"contracts/contracts/tokens/MockTokenCreator.sol\":381:1422  contract MockTokenCreator is ERC20, ERC20Permit {... */\n      mstore(0x04, 0x00)\n      0x24\n      0x00\n        /* \"@openzeppelin/contracts/token/ERC20/ERC20.sol\":10103:10135  ERC20InvalidApprover(address(0)) */\n      revert\n        /* \"@openzeppelin/contracts/token/ERC20/ERC20.sol\":10881:11011  if (currentAllowance < value) {... */\n    tag_146:\n        /* \"@openzeppelin/contracts/token/ERC20/ERC20.sol\":10936:10996  ERC20InsufficientAllowance(spender, currentAllowance, value) */\n      dup4\n      swap1\n      shl(0xe1, 0x7dc7a0d9)\n        /* \"contracts/contracts/tokens/MockTokenCreator.sol\":381:1422  contract MockTokenCreator is ERC20, ERC20Permit {... */\n      0x00\n        /* \"@openzeppelin/contracts/token/ERC20/ERC20.sol\":10936:10996  ERC20InsufficientAllowance(spender, currentAllowance, value) */\n      mstore\n        /* \"@openzeppelin/contracts/utils/Context.sol\":735:745  msg.sender */\n      caller\n        /* \"contracts/contracts/tokens/MockTokenCreator.sol\":381:1422  contract MockTokenCreator is ERC20, ERC20Permit {... */\n      0x04\n      mstore\n      0x24\n      mstore\n      0x44\n      mstore\n      0x64\n      0x00\n        /* \"@openzeppelin/contracts/token/ERC20/ERC20.sol\":10936:10996  ERC20InsufficientAllowance(spender, currentAllowance, value) */\n      revert\n        /* \"contracts/contracts/tokens/MockTokenCreator.sol\":381:1422  contract MockTokenCreator is ERC20, ERC20Permit {... */\n    tag_20:\n      jumpi(tag_48, callvalue)\n      jumpi(tag_48, slt(add(not(0x03), calldatasize), 0x00))\n      0x20\n        /* \"@openzeppelin/contracts/token/ERC20/ERC20.sol\":3222:3234  _totalSupply */\n      0x02\n        /* \"contracts/contracts/tokens/MockTokenCreator.sol\":381:1422  contract MockTokenCreator is ERC20, ERC20Permit {... */\n      sload\n      mload(0x40)\n      swap1\n      dup2\n      mstore\n      return\n    tag_18:\n      jumpi(tag_48, callvalue)\n      jumpi(tag_48, slt(add(not(0x03), calldatasize), 0x40))\n        /* \"@openzeppelin/contracts/token/ERC20/ERC20.sol\":9105:9109  true */\n      tag_73\n        /* \"contracts/contracts/tokens/MockTokenCreator.sol\":381:1422  contract MockTokenCreator is ERC20, ERC20Permit {... */\n      tag_161\n      tag_2\n      jump\t// in\n    tag_161:\n      calldataload(0x24)\n        /* \"@openzeppelin/contracts/utils/Context.sol\":735:745  msg.sender */\n      swap1\n      caller\n        /* \"@openzeppelin/contracts/token/ERC20/ERC20.sol\":9105:9109  true */\n      tag_9\n      jump\t// in\n        /* \"contracts/contracts/tokens/MockTokenCreator.sol\":381:1422  contract MockTokenCreator is ERC20, ERC20Permit {... */\n    tag_16:\n      jumpi(tag_48, callvalue)\n      jumpi(tag_48, slt(add(not(0x03), calldatasize), 0x00))\n      0x00\n        /* \"@openzeppelin/contracts/token/ERC20/ERC20.sol\":2151:2156  _name */\n      0x03\n        /* \"contracts/contracts/tokens/MockTokenCreator.sol\":381:1422  contract MockTokenCreator is ERC20, ERC20Permit {... */\n      sload\n      tag_166\n      dup2\n      tag_4\n      jump\t// in\n    tag_166:\n      dup1\n      dup5\n      mstore\n      swap1\n      0x01\n      dup2\n      and\n      swap1\n      dup2\n      iszero\n      tag_80\n      jumpi\n      pop\n      0x01\n      eq\n      tag_169\n      jumpi\n      tag_84\n      dup4\n      tag_85\n      dup2\n      dup6\n      sub\n      dup3\n      tag_6\n      jump\t// in\n    tag_169:\n        /* \"@openzeppelin/contracts/token/ERC20/ERC20.sol\":2151:2156  _name */\n      0x03\n        /* \"contracts/contracts/tokens/MockTokenCreator.sol\":381:1422  contract MockTokenCreator is ERC20, ERC20Permit {... */\n      0x00\n      swap1\n      dup2\n      mstore\n      0xc2575a0e9e593c00f959f8c92f12db2869c3395a3b0502d05e2516446f71f85b\n      swap4\n      swap3\n      pop\n      swap1\n    tag_173:\n      dup1\n      dup3\n      lt\n      tag_174\n      jumpi\n      pop\n      swap1\n      swap2\n      pop\n      dup2\n      add\n      0x20\n      add\n      tag_85\n      jump(tag_83)\n    tag_174:\n      swap2\n      swap3\n      0x01\n      dup2\n      0x20\n      swap3\n      sload\n      dup4\n      dup6\n      dup9\n      add\n      add\n      mstore\n      add\n      swap2\n      add\n      swap1\n      swap3\n      swap2\n      jump(tag_173)\n    tag_1:\n      dup1\n      mload\n      dup1\n      dup4\n      mstore\n      0x20\n      swap3\n      swap2\n      dup2\n      swap1\n      dup5\n      add\n      dup5\n      dup5\n      add\n      mcopy\n      0x00\n      dup3\n      dup3\n      add\n      dup5\n      add\n      mstore\n      0x1f\n      add\n      not(0x1f)\n      and\n      add\n      add\n      swap1\n      jump\t// out\n    tag_2:\n      calldataload(0x04)\n      swap1\n      sub(shl(0xa0, 0x01), 0x01)\n      dup3\n      and\n      dup3\n      sub\n      tag_48\n      jumpi\n      jump\t// out\n    tag_3:\n      calldataload(0x24)\n      swap1\n      sub(shl(0xa0, 0x01), 0x01)\n      dup3\n      and\n      dup3\n      sub\n      tag_48\n      jumpi\n      jump\t// out\n    tag_4:\n      swap1\n      0x01\n      dup3\n      dup2\n      shr\n      swap3\n      and\n      dup1\n      iszero\n      tag_180\n      jumpi\n    tag_181:\n      0x20\n      dup4\n      lt\n      eq\n      tag_182\n      jumpi\n      jump\t// out\n    tag_182:\n      mstore(0x00, shl(0xe0, 0x4e487b71))\n      mstore(0x04, 0x22)\n      revert(0x00, 0x24)\n    tag_180:\n      swap2\n      0x7f\n      and\n      swap2\n      jump(tag_181)\n    tag_5:\n      0x00\n      swap3\n      swap2\n      dup2\n      sload\n      swap2\n      tag_184\n      dup4\n      tag_4\n      jump\t// in\n    tag_184:\n      dup1\n      dup4\n      mstore\n      swap3\n      0x01\n      dup2\n      and\n      swap1\n      dup2\n      iszero\n      tag_185\n      jumpi\n      pop\n      0x01\n      eq\n      tag_187\n      jumpi\n      pop\n      pop\n      pop\n      jump\t// out\n    tag_187:\n      0x00\n      swap1\n      dup2\n      mstore\n      0x20\n      dup2\n      keccak256\n      swap4\n      swap5\n      pop\n      swap2\n      swap3\n    tag_189:\n      dup4\n      dup4\n      lt\n      tag_190\n      jumpi\n      pop\n      0x20\n      swap3\n      pop\n      add\n      add\n      swap1\n      jump\t// out\n    tag_190:\n      0x01\n      dup2\n      0x20\n      swap3\n      swap5\n      swap4\n      swap5\n      sload\n      dup4\n      dup6\n      dup8\n      add\n      add\n      mstore\n      add\n      swap2\n      add\n      swap2\n      swap1\n      jump(tag_189)\n    tag_185:\n      swap2\n      pop\n      pop\n      0x20\n      swap4\n      swap5\n      pop\n      0xff\n      swap3\n      swap2\n      swap3\n      not\n      and\n      dup4\n      dup4\n      add\n      mstore\n      iszero\n      iszero\n      0x05\n      shl\n      add\n      add\n      swap1\n      jump\t// out\n    tag_6:\n      swap1\n      0x1f\n      dup1\n      not\n      swap2\n      add\n      and\n      dup2\n      add\n      swap1\n      dup2\n      lt\n      0xffffffffffffffff\n      dup3\n      gt\n      or\n      tag_192\n      jumpi\n      0x40\n      mstore\n      jump\t// out\n    tag_192:\n      mstore(0x00, shl(0xe0, 0x4e487b71))\n      mstore(0x04, 0x41)\n      revert(0x00, 0x24)\n        /* \"@openzeppelin/contracts/token/ERC20/ERC20.sol\":5656:5956  function _transfer(address from, address to, uint256 value) internal {... */\n    tag_7:\n      sub(shl(0xa0, 0x01), 0x01)\n        /* \"contracts/contracts/tokens/MockTokenCreator.sol\":381:1422  contract MockTokenCreator is ERC20, ERC20Permit {... */\n      and\n      swap1\n        /* \"@openzeppelin/contracts/token/ERC20/ERC20.sol\":5739:5757  from == address(0) */\n      dup2\n      iszero\n        /* \"@openzeppelin/contracts/token/ERC20/ERC20.sol\":5735:5821  if (from == address(0)) {... */\n      tag_115\n      jumpi\n      sub(shl(0xa0, 0x01), 0x01)\n        /* \"contracts/contracts/tokens/MockTokenCreator.sol\":381:1422  contract MockTokenCreator is ERC20, ERC20Permit {... */\n      and\n      swap2\n        /* \"@openzeppelin/contracts/token/ERC20/ERC20.sol\":5834:5850  to == address(0) */\n      dup3\n      iszero\n        /* \"@openzeppelin/contracts/token/ERC20/ERC20.sol\":5830:5916  if (to == address(0)) {... */\n      tag_124\n      jumpi\n        /* \"contracts/contracts/tokens/MockTokenCreator.sol\":381:1422  contract MockTokenCreator is ERC20, ERC20Permit {... */\n      dup2\n        /* \"@openzeppelin/contracts/token/ERC20/ERC20.sol\":5755:5756  0 */\n      0x00\n        /* \"contracts/contracts/tokens/MockTokenCreator.sol\":381:1422  contract MockTokenCreator is ERC20, ERC20Permit {... */\n      mstore\n        /* \"@openzeppelin/contracts/token/ERC20/ERC20.sol\":5755:5756  0 */\n      0x00\n        /* \"contracts/contracts/tokens/MockTokenCreator.sol\":381:1422  contract MockTokenCreator is ERC20, ERC20Permit {... */\n      0x20\n      mstore\n      0x40\n        /* \"@openzeppelin/contracts/token/ERC20/ERC20.sol\":5755:5756  0 */\n      0x00\n        /* \"contracts/contracts/tokens/MockTokenCreator.sol\":381:1422  contract MockTokenCreator is ERC20, ERC20Permit {... */\n      keccak256\n      sload\n        /* \"@openzeppelin/contracts/token/ERC20/ERC20.sol\":6603:6622  fromBalance < value */\n      dup2\n      dup2\n      lt\n        /* \"@openzeppelin/contracts/token/ERC20/ERC20.sol\":6599:6714  if (fromBalance < value) {... */\n      tag_198\n      jumpi\n        /* \"contracts/contracts/tokens/MockTokenCreator.sol\":381:1422  contract MockTokenCreator is ERC20, ERC20Permit {... */\n      dup2\n        /* \"@openzeppelin/contracts/token/ERC20/ERC20.sol\":7346:7371  Transfer(from, to, value) */\n      0xddf252ad1be2c89b69c2b068fc378daa952ba7f163c4a11628f55a4df523b3ef\n        /* \"contracts/contracts/tokens/MockTokenCreator.sol\":381:1422  contract MockTokenCreator is ERC20, ERC20Permit {... */\n      swap3\n      0x20\n      swap3\n      dup6\n        /* \"@openzeppelin/contracts/token/ERC20/ERC20.sol\":5755:5756  0 */\n      0x00\n        /* \"contracts/contracts/tokens/MockTokenCreator.sol\":381:1422  contract MockTokenCreator is ERC20, ERC20Permit {... */\n      mstore\n        /* \"@openzeppelin/contracts/token/ERC20/ERC20.sol\":5755:5756  0 */\n      0x00\n        /* \"contracts/contracts/tokens/MockTokenCreator.sol\":381:1422  contract MockTokenCreator is ERC20, ERC20Permit {... */\n      dup5\n      mstore\n      sub\n      0x40\n        /* \"@openzeppelin/contracts/token/ERC20/ERC20.sol\":5755:5756  0 */\n      0x00\n        /* \"contracts/contracts/tokens/MockTokenCreator.sol\":381:1422  contract MockTokenCreator is ERC20, ERC20Permit {... */\n      keccak256\n      sstore\n      dup5\n        /* \"@openzeppelin/contracts/token/ERC20/ERC20.sol\":5755:5756  0 */\n      0x00\n        /* \"contracts/contracts/tokens/MockTokenCreator.sol\":381:1422  contract MockTokenCreator is ERC20, ERC20Permit {... */\n      mstore\n        /* \"@openzeppelin/contracts/token/ERC20/ERC20.sol\":5755:5756  0 */\n      0x00\n        /* \"contracts/contracts/tokens/MockTokenCreator.sol\":381:1422  contract MockTokenCreator is ERC20, ERC20Permit {... */\n      dup3\n      mstore\n      0x40\n        /* \"@openzeppelin/contracts/token/ERC20/ERC20.sol\":5755:5756  0 */\n      0x00\n        /* \"contracts/contracts/tokens/MockTokenCreator.sol\":381:1422  contract MockTokenCreator is ERC20, ERC20Permit {... */\n      keccak256\n      dup2\n      dup2\n      sload\n      add\n      swap1\n      sstore\n      mload(0x40)\n      swap1\n      dup2\n      mstore\n        /* \"@openzeppelin/contracts/token/ERC20/ERC20.sol\":7346:7371  Transfer(from, to, value) */\n      log3\n        /* \"@openzeppelin/contracts/token/ERC20/ERC20.sol\":5656:5956  function _transfer(address from, address to, uint256 value) internal {... */\n      jump\t// out\n        /* \"@openzeppelin/contracts/token/ERC20/ERC20.sol\":6599:6714  if (fromBalance < value) {... */\n    tag_198:\n        /* \"@openzeppelin/contracts/token/ERC20/ERC20.sol\":6649:6699  ERC20InsufficientBalance(from, fromBalance, value) */\n      dup3\n      shl(0xe2, 0x391434e3)\n        /* \"@openzeppelin/contracts/token/ERC20/ERC20.sol\":5755:5756  0 */\n      0x00\n        /* \"@openzeppelin/contracts/token/ERC20/ERC20.sol\":6649:6699  ERC20InsufficientBalance(from, fromBalance, value) */\n      mstore\n      0x04\n        /* \"contracts/contracts/tokens/MockTokenCreator.sol\":381:1422  contract MockTokenCreator is ERC20, ERC20Permit {... */\n      mstore\n      0x24\n      mstore\n      0x44\n      mstore\n      0x64\n        /* \"@openzeppelin/contracts/token/ERC20/ERC20.sol\":5755:5756  0 */\n      0x00\n        /* \"@openzeppelin/contracts/token/ERC20/ERC20.sol\":6649:6699  ERC20InsufficientBalance(from, fromBalance, value) */\n      revert\n        /* \"@openzeppelin/contracts/utils/cryptography/EIP712.sol\":3845:4107  function _domainSeparatorV4() internal view returns (bytes32) {... */\n    tag_8:\n        /* \"@openzeppelin/contracts/utils/cryptography/EIP712.sol\":3929:3933  this */\n      address\n        /* \"@openzeppelin/contracts/utils/cryptography/EIP712.sol\":3938:3949  _cachedThis */\n      immutable(\"0x9da33d66d55da09f78a96a54578b6796f3b81e7e66965d4dd4d51115742e7058\")\n      sub(shl(0xa0, 0x01), 0x01)\n        /* \"contracts/contracts/tokens/MockTokenCreator.sol\":381:1422  contract MockTokenCreator is ERC20, ERC20Permit {... */\n      and\n        /* \"@openzeppelin/contracts/utils/cryptography/EIP712.sol\":3921:3949  address(this) == _cachedThis */\n      eq\n      dup1\n        /* \"@openzeppelin/contracts/utils/cryptography/EIP712.sol\":3921:3984  address(this) == _cachedThis && block.chainid == _cachedChainId */\n      tag_200\n      jumpi\n        /* \"@openzeppelin/contracts/utils/cryptography/EIP712.sol\":3845:4107  function _domainSeparatorV4() internal view returns (bytes32) {... */\n    tag_201:\n        /* \"@openzeppelin/contracts/utils/cryptography/EIP712.sol\":3917:4101  if (address(this) == _cachedThis && block.chainid == _cachedChainId) {... */\n      iszero\n      tag_202\n      jumpi\n        /* \"@openzeppelin/contracts/utils/cryptography/EIP712.sol\":4007:4029  _cachedDomainSeparator */\n      immutable(\"0xf37f94c83e8ae3e86e80cd7576891958f944d71876ecc57afee80c72eff8fc49\")\n        /* \"@openzeppelin/contracts/utils/cryptography/EIP712.sol\":4000:4029  return _cachedDomainSeparator */\n      swap1\n      jump\t// out\n        /* \"@openzeppelin/contracts/utils/cryptography/EIP712.sol\":3917:4101  if (address(this) == _cachedThis && block.chainid == _cachedChainId) {... */\n    tag_202:\n        /* \"contracts/contracts/tokens/MockTokenCreator.sol\":381:1422  contract MockTokenCreator is ERC20, ERC20Permit {... */\n      mload(0x40)\n        /* \"@openzeppelin/contracts/utils/cryptography/EIP712.sol\":4204:4284  abi.encode(TYPE_HASH, _hashedName, _hashedVersion, block.chainid, address(this)) */\n      0x20\n      dup2\n      add\n        /* \"contracts/contracts/tokens/MockTokenCreator.sol\":381:1422  contract MockTokenCreator is ERC20, ERC20Permit {... */\n      swap1\n        /* \"@openzeppelin/contracts/utils/cryptography/EIP712.sol\":2079:2174  keccak256(\"EIP712Domain(string name,string version,uint256 chainId,address verifyingContract)\") */\n      0x8b73c3c69bb8fe3d512ecc4cf759cc79239f7b179b0ffacaa9a75d522b39400f\n        /* \"contracts/contracts/tokens/MockTokenCreator.sol\":381:1422  contract MockTokenCreator is ERC20, ERC20Permit {... */\n      dup3\n      mstore\n        /* \"@openzeppelin/contracts/utils/cryptography/EIP712.sol\":4226:4237  _hashedName */\n      immutable(\"0x573faf646ebcc306cf7b1c6d1ae32a5018e46a1d2170a1f8872bcef972ba4a4e\")\n        /* \"contracts/contracts/tokens/MockTokenCreator.sol\":381:1422  contract MockTokenCreator is ERC20, ERC20Permit {... */\n      0x40\n        /* \"@openzeppelin/contracts/utils/cryptography/EIP712.sol\":2079:2174  keccak256(\"EIP712Domain(string name,string version,uint256 chainId,address verifyingContract)\") */\n      dup3\n      add\n        /* \"contracts/contracts/tokens/MockTokenCreator.sol\":381:1422  contract MockTokenCreator is ERC20, ERC20Permit {... */\n      mstore\n        /* \"@openzeppelin/contracts/utils/cryptography/EIP712.sol\":4239:4253  _hashedVersion */\n      immutable(\"0xfe1d828b4338e53e7077ae3b70a0e9308af0493fa93d9d1fb6906c3aa839ab4f\")\n        /* \"@openzeppelin/contracts/utils/cryptography/EIP712.sol\":2079:2174  keccak256(\"EIP712Domain(string name,string version,uint256 chainId,address verifyingContract)\") */\n      0x60\n      dup3\n      add\n        /* \"contracts/contracts/tokens/MockTokenCreator.sol\":381:1422  contract MockTokenCreator is ERC20, ERC20Permit {... */\n      mstore\n        /* \"@openzeppelin/contracts/utils/cryptography/EIP712.sol\":4255:4268  block.chainid */\n      chainid\n        /* \"@openzeppelin/contracts/utils/cryptography/EIP712.sol\":2079:2174  keccak256(\"EIP712Domain(string name,string version,uint256 chainId,address verifyingContract)\") */\n      0x80\n      dup3\n      add\n        /* \"contracts/contracts/tokens/MockTokenCreator.sol\":381:1422  contract MockTokenCreator is ERC20, ERC20Permit {... */\n      mstore\n        /* \"@openzeppelin/contracts/utils/cryptography/EIP712.sol\":3929:3933  this */\n      address\n        /* \"@openzeppelin/contracts/utils/cryptography/EIP712.sol\":2079:2174  keccak256(\"EIP712Domain(string name,string version,uint256 chainId,address verifyingContract)\") */\n      0xa0\n      dup3\n      add\n        /* \"contracts/contracts/tokens/MockTokenCreator.sol\":381:1422  contract MockTokenCreator is ERC20, ERC20Permit {... */\n      mstore\n        /* \"@openzeppelin/contracts/utils/cryptography/EIP712.sol\":2079:2174  keccak256(\"EIP712Domain(string name,string version,uint256 chainId,address verifyingContract)\") */\n      0xa0\n        /* \"@openzeppelin/contracts/utils/cryptography/EIP712.sol\":4204:4284  abi.encode(TYPE_HASH, _hashedName, _hashedVersion, block.chainid, address(this)) */\n      dup2\n      mstore\n      tag_204\n      0xc0\n      dup3\n      tag_6\n      jump\t// in\n    tag_204:\n        /* \"contracts/contracts/tokens/MockTokenCreator.sol\":381:1422  contract MockTokenCreator is ERC20, ERC20Permit {... */\n      mload\n        /* \"@openzeppelin/contracts/utils/cryptography/EIP712.sol\":4194:4285  keccak256(abi.encode(TYPE_HASH, _hashedName, _hashedVersion, block.chainid, address(this))) */\n      swap1\n      keccak256\n        /* \"@openzeppelin/contracts/utils/cryptography/EIP712.sol\":4060:4090  return _buildDomainSeparator() */\n      swap1\n      jump\t// out\n        /* \"@openzeppelin/contracts/utils/cryptography/EIP712.sol\":3921:3984  address(this) == _cachedThis && block.chainid == _cachedChainId */\n    tag_200:\n        /* \"@openzeppelin/contracts/utils/cryptography/EIP712.sol\":3970:3984  _cachedChainId */\n      pop\n      immutable(\"0xa1052ef8b67da7b00add39dbc2c49970b165c2dd6ad0127567696a3d88b916bc\")\n        /* \"@openzeppelin/contracts/utils/cryptography/EIP712.sol\":3953:3966  block.chainid */\n      chainid\n        /* \"@openzeppelin/contracts/utils/cryptography/EIP712.sol\":3953:3984  block.chainid == _cachedChainId */\n      eq\n        /* \"@openzeppelin/contracts/utils/cryptography/EIP712.sol\":3921:3984  address(this) == _cachedThis && block.chainid == _cachedChainId */\n      jump(tag_201)\n        /* \"@openzeppelin/contracts/token/ERC20/ERC20.sol\":9949:10381  function _approve(address owner, address spender, uint256 value, bool emitEvent) internal virtual {... */\n    tag_9:\n      sub(shl(0xa0, 0x01), 0x01)\n        /* \"contracts/contracts/tokens/MockTokenCreator.sol\":381:1422  contract MockTokenCreator is ERC20, ERC20Permit {... */\n      and\n      swap1\n        /* \"@openzeppelin/contracts/token/ERC20/ERC20.sol\":10061:10080  owner == address(0) */\n      dup2\n      iszero\n        /* \"@openzeppelin/contracts/token/ERC20/ERC20.sol\":10057:10146  if (owner == address(0)) {... */\n      tag_148\n      jumpi\n      sub(shl(0xa0, 0x01), 0x01)\n        /* \"contracts/contracts/tokens/MockTokenCreator.sol\":381:1422  contract MockTokenCreator is ERC20, ERC20Permit {... */\n      and\n      swap2\n        /* \"@openzeppelin/contracts/token/ERC20/ERC20.sol\":10159:10180  spender == address(0) */\n      dup3\n      iszero\n        /* \"@openzeppelin/contracts/token/ERC20/ERC20.sol\":10155:10245  if (spender == address(0)) {... */\n      tag_150\n      jumpi\n        /* \"contracts/contracts/tokens/MockTokenCreator.sol\":381:1422  contract MockTokenCreator is ERC20, ERC20Permit {... */\n      0x20\n        /* \"@openzeppelin/contracts/token/ERC20/ERC20.sol\":10333:10364  Approval(owner, spender, value) */\n      0x8c5be1e5ebec7d5bd14f71427d1e84f3dd0314c0f7b2291e5b200ac8c7c3b925\n        /* \"contracts/contracts/tokens/MockTokenCreator.sol\":381:1422  contract MockTokenCreator is ERC20, ERC20Permit {... */\n      swap2\n      dup4\n        /* \"@openzeppelin/contracts/token/ERC20/ERC20.sol\":10078:10079  0 */\n      0x00\n        /* \"contracts/contracts/tokens/MockTokenCreator.sol\":381:1422  contract MockTokenCreator is ERC20, ERC20Permit {... */\n      mstore\n        /* \"@openzeppelin/contracts/token/ERC20/ERC20.sol\":9105:9109  true */\n      0x01\n        /* \"contracts/contracts/tokens/MockTokenCreator.sol\":381:1422  contract MockTokenCreator is ERC20, ERC20Permit {... */\n      dup3\n      mstore\n      0x40\n        /* \"@openzeppelin/contracts/token/ERC20/ERC20.sol\":10078:10079  0 */\n      0x00\n        /* \"contracts/contracts/tokens/MockTokenCreator.sol\":381:1422  contract MockTokenCreator is ERC20, ERC20Permit {... */\n      keccak256\n      dup6\n      0x00\n      mstore\n      dup3\n      mstore\n      dup1\n      keccak256(0x00, 0x40)\n      sstore\n      mload(0x40)\n      swap1\n      dup2\n      mstore\n        /* \"@openzeppelin/contracts/token/ERC20/ERC20.sol\":10333:10364  Approval(owner, spender, value) */\n      log3\n        /* \"@openzeppelin/contracts/token/ERC20/ERC20.sol\":9949:10381  function _approve(address owner, address spender, uint256 value, bool emitEvent) internal virtual {... */\n      jump\t// out\n        /* \"@openzeppelin/contracts/utils/ShortStrings.sol\":3385:3652  function toStringWithFallback(ShortString value, string storage store) internal pure returns (string memory) {... */\n    tag_10:\n        /* \"@openzeppelin/contracts/utils/ShortStrings.sol\":1390:1456  0x00000000000000000000000000000000000000000000000000000000000000FF */\n      0xff\n        /* \"@openzeppelin/contracts/utils/ShortStrings.sol\":3508:3554  ShortString.unwrap(value) != FALLBACK_SENTINEL */\n      dup2\n      eq\n        /* \"@openzeppelin/contracts/utils/ShortStrings.sol\":1390:1456  0x00000000000000000000000000000000000000000000000000000000000000FF */\n      tag_209\n      jumpi\n      0xff\n        /* \"@openzeppelin/contracts/utils/ShortStrings.sol\":2652:2692  uint256(ShortString.unwrap(sstr)) & 0xFF */\n      dup2\n      and\n        /* \"@openzeppelin/contracts/utils/ShortStrings.sol\":2706:2717  result > 31 */\n      swap1\n        /* \"@openzeppelin/contracts/utils/ShortStrings.sol\":2715:2717  31 */\n      0x1f\n        /* \"@openzeppelin/contracts/utils/ShortStrings.sol\":2706:2717  result > 31 */\n      dup3\n      gt\n        /* \"@openzeppelin/contracts/utils/ShortStrings.sol\":2702:2771  if (result > 31) {... */\n      tag_211\n      jumpi\n        /* \"contracts/contracts/tokens/MockTokenCreator.sol\":381:1422  contract MockTokenCreator is ERC20, ERC20Permit {... */\n      mload(0x40)\n      swap2\n      tag_213\n      0x40\n      dup5\n      tag_6\n      jump\t// in\n    tag_213:\n        /* \"@openzeppelin/contracts/utils/ShortStrings.sol\":2311:2313  32 */\n      0x20\n        /* \"contracts/contracts/tokens/MockTokenCreator.sol\":381:1422  contract MockTokenCreator is ERC20, ERC20Permit {... */\n      dup1\n      dup5\n      mstore\n      dup4\n      dup2\n      add\n      swap2\n      swap1\n      calldatasize\n      dup4\n      calldatacopy\n        /* \"@openzeppelin/contracts/utils/ShortStrings.sol\":2367:2457  assembly {... */\n      dup4\n      mstore\n      mstore\n        /* \"@openzeppelin/contracts/utils/ShortStrings.sol\":3570:3592  return toString(value) */\n      swap1\n      jump\t// out\n        /* \"@openzeppelin/contracts/utils/ShortStrings.sol\":2702:2771  if (result > 31) {... */\n    tag_211:\n        /* \"@openzeppelin/contracts/utils/ShortStrings.sol\":2740:2760  InvalidShortString() */\n      mstore(0x00, shl(0xe2, 0x2cd44ac3))\n      revert(0x00, 0x04)\n        /* \"@openzeppelin/contracts/utils/ShortStrings.sol\":3504:3646  if (ShortString.unwrap(value) != FALLBACK_SENTINEL) {... */\n    tag_209:\n        /* \"contracts/contracts/tokens/MockTokenCreator.sol\":381:1422  contract MockTokenCreator is ERC20, ERC20Permit {... */\n      pop\n      mload(0x40)\n        /* \"@openzeppelin/contracts/utils/ShortStrings.sol\":1390:1456  0x00000000000000000000000000000000000000000000000000000000000000FF */\n      tag_214\n      dup2\n      tag_215\n      dup2\n        /* \"@openzeppelin/contracts/utils/cryptography/EIP712.sol\":6126:6139  _nameFallback */\n      0x05\n        /* \"@openzeppelin/contracts/utils/ShortStrings.sol\":1390:1456  0x00000000000000000000000000000000000000000000000000000000000000FF */\n      tag_5\n      jump\t// in\n    tag_215:\n      sub\n      dup3\n      tag_6\n      jump\t// in\n    tag_214:\n        /* \"@openzeppelin/contracts/utils/ShortStrings.sol\":3623:3635  return store */\n      swap1\n      jump\t// out\n        /* \"@openzeppelin/contracts/utils/ShortStrings.sol\":3385:3652  function toStringWithFallback(ShortString value, string storage store) internal pure returns (string memory) {... */\n    tag_11:\n        /* \"@openzeppelin/contracts/utils/ShortStrings.sol\":1390:1456  0x00000000000000000000000000000000000000000000000000000000000000FF */\n      0xff\n        /* \"@openzeppelin/contracts/utils/ShortStrings.sol\":3508:3554  ShortString.unwrap(value) != FALLBACK_SENTINEL */\n      dup2\n      eq\n        /* \"@openzeppelin/contracts/utils/ShortStrings.sol\":1390:1456  0x00000000000000000000000000000000000000000000000000000000000000FF */\n      tag_216\n      jumpi\n      0xff\n        /* \"@openzeppelin/contracts/utils/ShortStrings.sol\":2652:2692  uint256(ShortString.unwrap(sstr)) & 0xFF */\n      dup2\n      and\n        /* \"@openzeppelin/contracts/utils/ShortStrings.sol\":2706:2717  result > 31 */\n      swap1\n        /* \"@openzeppelin/contracts/utils/ShortStrings.sol\":2715:2717  31 */\n      0x1f\n        /* \"@openzeppelin/contracts/utils/ShortStrings.sol\":2706:2717  result > 31 */\n      dup3\n      gt\n        /* \"@openzeppelin/contracts/utils/ShortStrings.sol\":2702:2771  if (result > 31) {... */\n      tag_211\n      jumpi\n        /* \"contracts/contracts/tokens/MockTokenCreator.sol\":381:1422  contract MockTokenCreator is ERC20, ERC20Permit {... */\n      mload(0x40)\n      swap2\n      tag_213\n      0x40\n      dup5\n      tag_6\n      jump\t// in\n        /* \"@openzeppelin/contracts/utils/ShortStrings.sol\":3504:3646  if (ShortString.unwrap(value) != FALLBACK_SENTINEL) {... */\n    tag_216:\n        /* \"contracts/contracts/tokens/MockTokenCreator.sol\":381:1422  contract MockTokenCreator is ERC20, ERC20Permit {... */\n      pop\n      mload(0x40)\n        /* \"@openzeppelin/contracts/utils/ShortStrings.sol\":1390:1456  0x00000000000000000000000000000000000000000000000000000000000000FF */\n      tag_214\n      dup2\n      tag_215\n      dup2\n        /* \"@openzeppelin/contracts/utils/cryptography/EIP712.sol\":6584:6600  _versionFallback */\n      0x06\n        /* \"@openzeppelin/contracts/utils/ShortStrings.sol\":1390:1456  0x00000000000000000000000000000000000000000000000000000000000000FF */\n      tag_5\n      jump\t// in\n        /* \"@openzeppelin/contracts/utils/cryptography/ECDSA.sol\":5140:6670  function tryRecover(... */\n    tag_12:\n      swap2\n      swap1\n        /* \"@openzeppelin/contracts/utils/cryptography/ECDSA.sol\":6199:6265  0x7FFFFFFFFFFFFFFFFFFFFFFFFFFFFFFF5D576E7357A4501DDFE92F46681B20A0 */\n      0x7fffffffffffffffffffffffffffffff5d576e7357a4501ddfe92f46681b20a0\n        /* \"@openzeppelin/contracts/utils/cryptography/ECDSA.sol\":6186:6265  uint256(s) > 0x7FFFFFFFFFFFFFFFFFFFFFFFFFFFFFFF5D576E7357A4501DDFE92F46681B20A0 */\n      dup5\n      gt\n        /* \"@openzeppelin/contracts/utils/cryptography/ECDSA.sol\":6182:6346  if (uint256(s) > 0x7FFFFFFFFFFFFFFFFFFFFFFFFFFFFFFF5D576E7357A4501DDFE92F46681B20A0) {... */\n      tag_223\n      jumpi\n        /* \"contracts/contracts/tokens/MockTokenCreator.sol\":381:1422  contract MockTokenCreator is ERC20, ERC20Permit {... */\n      swap2\n      0x20\n      swap4\n      0x80\n      swap3\n      0xff\n      0x00\n      swap6\n      mload(0x40)\n      swap5\n      dup6\n      mstore\n      and\n      dup7\n      dup5\n      add\n      mstore\n      0x40\n      dup4\n      add\n      mstore\n      0x60\n      dup3\n      add\n      mstore\n        /* \"@openzeppelin/contracts/utils/cryptography/ECDSA.sol\":6457:6481  ecrecover(hash, v, r, s) */\n      dup3\n      dup1\n      mstore\n      0x01\n      gas\n      staticcall\n      iszero\n      tag_225\n      jumpi\n      mload(0x00)\n      sub(shl(0xa0, 0x01), 0x01)\n        /* \"contracts/contracts/tokens/MockTokenCreator.sol\":381:1422  contract MockTokenCreator is ERC20, ERC20Permit {... */\n      dup2\n      and\n        /* \"@openzeppelin/contracts/utils/cryptography/ECDSA.sol\":6495:6515  signer == address(0) */\n      iszero\n        /* \"@openzeppelin/contracts/utils/cryptography/ECDSA.sol\":6491:6604  if (signer == address(0)) {... */\n      tag_227\n      jumpi\n        /* \"@openzeppelin/contracts/utils/cryptography/ECDSA.sol\":6614:6663  return (signer, RecoverError.NoError, bytes32(0)) */\n      swap1\n      0x00\n      swap1\n      0x00\n        /* \"@openzeppelin/contracts/utils/cryptography/ECDSA.sol\":5140:6670  function tryRecover(... */\n      swap1\n      jump\t// out\n        /* \"@openzeppelin/contracts/utils/cryptography/ECDSA.sol\":6491:6604  if (signer == address(0)) {... */\n    tag_227:\n        /* \"@openzeppelin/contracts/utils/cryptography/ECDSA.sol\":6531:6593  return (address(0), RecoverError.InvalidSignature, bytes32(0)) */\n      pop\n      0x00\n      swap1\n        /* \"@openzeppelin/contracts/utils/cryptography/ECDSA.sol\":6457:6481  ecrecover(hash, v, r, s) */\n      0x01\n        /* \"@openzeppelin/contracts/utils/cryptography/ECDSA.sol\":6531:6593  return (address(0), RecoverError.InvalidSignature, bytes32(0)) */\n      swap1\n      0x00\n      swap1\n      jump\t// out\n        /* \"@openzeppelin/contracts/utils/cryptography/ECDSA.sol\":6457:6481  ecrecover(hash, v, r, s) */\n    tag_225:\n        /* \"contracts/contracts/tokens/MockTokenCreator.sol\":381:1422  contract MockTokenCreator is ERC20, ERC20Permit {... */\n      mload(0x40)\n      returndatasize\n      0x00\n      dup3\n      returndatacopy\n      returndatasize\n      swap1\n      revert\n        /* \"@openzeppelin/contracts/utils/cryptography/ECDSA.sol\":6182:6346  if (uint256(s) > 0x7FFFFFFFFFFFFFFFFFFFFFFFFFFFFFFF5D576E7357A4501DDFE92F46681B20A0) {... */\n    tag_223:\n        /* \"@openzeppelin/contracts/utils/cryptography/ECDSA.sol\":6281:6335  return (address(0), RecoverError.InvalidSignatureS, s) */\n      pop\n      pop\n      pop\n        /* \"@openzeppelin/contracts/utils/cryptography/ECDSA.sol\":6297:6298  0 */\n      0x00\n        /* \"@openzeppelin/contracts/utils/cryptography/ECDSA.sol\":6281:6335  return (address(0), RecoverError.InvalidSignatureS, s) */\n      swap2\n        /* \"@openzeppelin/contracts/utils/cryptography/ECDSA.sol\":6301:6331  RecoverError.InvalidSignatureS */\n      0x03\n        /* \"@openzeppelin/contracts/utils/cryptography/ECDSA.sol\":6281:6335  return (address(0), RecoverError.InvalidSignatureS, s) */\n      swap2\n      swap1\n      jump\t// out\n        /* \"@openzeppelin/contracts/utils/cryptography/ECDSA.sol\":7196:7728  function _throwError(RecoverError error, bytes32 errorArg) private pure {... */\n    tag_13:\n        /* \"contracts/contracts/tokens/MockTokenCreator.sol\":381:1422  contract MockTokenCreator is ERC20, ERC20Permit {... */\n      0x04\n      dup2\n      lt\n      iszero\n      tag_229\n      jumpi\n        /* \"@openzeppelin/contracts/utils/cryptography/ECDSA.sol\":7282:7311  error == RecoverError.NoError */\n      dup1\n      tag_231\n      jumpi\n        /* \"@openzeppelin/contracts/utils/cryptography/ECDSA.sol\":7327:7334  return; */\n      pop\n      pop\n      jump\t// out\n        /* \"@openzeppelin/contracts/utils/cryptography/ECDSA.sol\":7278:7722  if (error == RecoverError.NoError) {... */\n    tag_231:\n        /* \"contracts/contracts/tokens/MockTokenCreator.sol\":381:1422  contract MockTokenCreator is ERC20, ERC20Permit {... */\n      0x01\n        /* \"@openzeppelin/contracts/utils/cryptography/ECDSA.sol\":7378:7416  error == RecoverError.InvalidSignature */\n      dup2\n      sub\n        /* \"contracts/contracts/tokens/MockTokenCreator.sol\":381:1422  contract MockTokenCreator is ERC20, ERC20Permit {... */\n      tag_233\n      jumpi\n        /* \"@openzeppelin/contracts/utils/cryptography/ECDSA.sol\":7439:7462  ECDSAInvalidSignature() */\n      shl(0xe0, 0xf645eedf)\n        /* \"@openzeppelin/contracts/utils/cryptography/ECDSA.sol\":7291:7311  RecoverError.NoError */\n      0x00\n        /* \"@openzeppelin/contracts/utils/cryptography/ECDSA.sol\":7439:7462  ECDSAInvalidSignature() */\n      mstore\n        /* \"contracts/contracts/tokens/MockTokenCreator.sol\":381:1422  contract MockTokenCreator is ERC20, ERC20Permit {... */\n      0x04\n        /* \"@openzeppelin/contracts/utils/cryptography/ECDSA.sol\":7291:7311  RecoverError.NoError */\n      0x00\n        /* \"@openzeppelin/contracts/utils/cryptography/ECDSA.sol\":7439:7462  ECDSAInvalidSignature() */\n      revert\n        /* \"@openzeppelin/contracts/utils/cryptography/ECDSA.sol\":7374:7722  if (error == RecoverError.InvalidSignature) {... */\n    tag_233:\n        /* \"@openzeppelin/contracts/utils/cryptography/ECDSA.sol\":7492:7527  RecoverError.InvalidSignatureLength */\n      0x02\n        /* \"@openzeppelin/contracts/utils/cryptography/ECDSA.sol\":7483:7527  error == RecoverError.InvalidSignatureLength */\n      dup2\n      sub\n        /* \"@openzeppelin/contracts/utils/cryptography/ECDSA.sol\":7492:7527  RecoverError.InvalidSignatureLength */\n      tag_235\n      jumpi\n        /* \"@openzeppelin/contracts/utils/cryptography/ECDSA.sol\":7550:7596  ECDSAInvalidSignatureLength(uint256(errorArg)) */\n      pop\n      shl(0xe0, 0xfce698f7)\n        /* \"@openzeppelin/contracts/utils/cryptography/ECDSA.sol\":7291:7311  RecoverError.NoError */\n      0x00\n        /* \"@openzeppelin/contracts/utils/cryptography/ECDSA.sol\":7550:7596  ECDSAInvalidSignatureLength(uint256(errorArg)) */\n      mstore\n        /* \"contracts/contracts/tokens/MockTokenCreator.sol\":381:1422  contract MockTokenCreator is ERC20, ERC20Permit {... */\n      0x04\n      mstore\n      0x24\n        /* \"@openzeppelin/contracts/utils/cryptography/ECDSA.sol\":7291:7311  RecoverError.NoError */\n      0x00\n        /* \"@openzeppelin/contracts/utils/cryptography/ECDSA.sol\":7550:7596  ECDSAInvalidSignatureLength(uint256(errorArg)) */\n      revert\n        /* \"@openzeppelin/contracts/utils/cryptography/ECDSA.sol\":7479:7722  if (error == RecoverError.InvalidSignatureLength) {... */\n    tag_235:\n        /* \"@openzeppelin/contracts/utils/cryptography/ECDSA.sol\":7626:7656  RecoverError.InvalidSignatureS */\n      0x03\n        /* \"@openzeppelin/contracts/utils/cryptography/ECDSA.sol\":7617:7656  error == RecoverError.InvalidSignatureS */\n      eq\n        /* \"@openzeppelin/contracts/utils/cryptography/ECDSA.sol\":7613:7722  if (error == RecoverError.InvalidSignatureS) {... */\n      tag_237\n      jumpi\n        /* \"@openzeppelin/contracts/utils/cryptography/ECDSA.sol\":7479:7722  if (error == RecoverError.InvalidSignatureLength) {... */\n      pop\n        /* \"@openzeppelin/contracts/utils/cryptography/ECDSA.sol\":7196:7728  function _throwError(RecoverError error, bytes32 errorArg) private pure {... */\n      jump\t// out\n        /* \"@openzeppelin/contracts/utils/cryptography/ECDSA.sol\":7613:7722  if (error == RecoverError.InvalidSignatureS) {... */\n    tag_237:\n        /* \"@openzeppelin/contracts/utils/cryptography/ECDSA.sol\":7679:7711  ECDSAInvalidSignatureS(errorArg) */\n      shl(0xe2, 0x35e2f383)\n        /* \"@openzeppelin/contracts/utils/cryptography/ECDSA.sol\":7291:7311  RecoverError.NoError */\n      0x00\n        /* \"@openzeppelin/contracts/utils/cryptography/ECDSA.sol\":7679:7711  ECDSAInvalidSignatureS(errorArg) */\n      mstore\n        /* \"contracts/contracts/tokens/MockTokenCreator.sol\":381:1422  contract MockTokenCreator is ERC20, ERC20Permit {... */\n      0x04\n      mstore\n      0x24\n        /* \"@openzeppelin/contracts/utils/cryptography/ECDSA.sol\":7291:7311  RecoverError.NoError */\n      0x00\n        /* \"@openzeppelin/contracts/utils/cryptography/ECDSA.sol\":7679:7711  ECDSAInvalidSignatureS(errorArg) */\n      revert\n        /* \"contracts/contracts/tokens/MockTokenCreator.sol\":381:1422  contract MockTokenCreator is ERC20, ERC20Permit {... */\n    tag_229:\n      shl(0xe0, 0x4e487b71)\n        /* \"@openzeppelin/contracts/utils/cryptography/ECDSA.sol\":7291:7311  RecoverError.NoError */\n      0x00\n        /* \"contracts/contracts/tokens/MockTokenCreator.sol\":381:1422  contract MockTokenCreator is ERC20, ERC20Permit {... */\n      mstore\n      mstore(0x04, 0x21)\n      0x24\n        /* \"@openzeppelin/contracts/utils/cryptography/ECDSA.sol\":7291:7311  RecoverError.NoError */\n      0x00\n        /* \"contracts/contracts/tokens/MockTokenCreator.sol\":381:1422  contract MockTokenCreator is ERC20, ERC20Permit {... */\n      revert\n\n    auxdata: 0xa2646970667358221220fb9dca15c6e0c64f903a913768ff079e803838f0b288832a05b8a5228380594f64736f6c634300081a0033\n}\n",
				"bytecode": {
					"linkReferences": {},
					"object": "61016080604052346104125761148c803803809161001d8285610416565b83398101906040818303126104125780516001600160401b0381116104125782610048918301610439565b60208201519092906001600160401b038111610412576100689201610439565b906040918251916100798484610416565b60018352603160f81b6020840190815281519092906001600160401b03811161032257600354600181811c91168015610408575b602082101461030457601f81116103a5575b50806020601f8211600114610341575f91610336575b508160011b915f199060031b1c1916176003555b8051906001600160401b0382116103225760045490600182811c92168015610318575b60208310146103045781601f849311610296575b50602090601f8311600114610230575f92610225575b50508160011b915f199060031b1c1916176004555b6101548161048e565b6101205261016183610615565b6101405260208151910120918260e05251902080610100524660a05282519060208201927f8b73c3c69bb8fe3d512ecc4cf759cc79239f7b179b0ffacaa9a75d522b39400f84528483015260608201524660808201523060a082015260a081526101cc60c082610416565b5190206080523060c05251610d3e908161074e823960805181610a27015260a05181610ae4015260c051816109f1015260e05181610a7601526101005181610a9c01526101205181610385015261014051816103ae0152f35b015190505f80610136565b60045f9081528281209350601f198516905b81811061027e5750908460019594939210610266575b505050811b0160045561014b565b01515f1960f88460031b161c191690555f8080610258565b92936020600181928786015181550195019301610242565b60045f529091507f8a35acfbc15ff81a39ae7d344fd709f28e8600b4aa8c65c6b64bfe7fe36bd19b601f840160051c810191602085106102fa575b90601f859493920160051c01905b8181106102ec5750610120565b5f81558493506001016102df565b90915081906102d1565b634e487b7160e01b5f52602260045260245ffd5b91607f169161010c565b634e487b7160e01b5f52604160045260245ffd5b90508301515f6100d5565b60035f9081528181209250601f198416905b81811061038d57509083600194939210610375575b5050811b016003556100e9565b8501515f1960f88460031b161c191690555f80610368565b9192602060018192868a015181550194019201610353565b60035f527fc2575a0e9e593c00f959f8c92f12db2869c3395a3b0502d05e2516446f71f85b601f830160051c810191602084106103fe575b601f0160051c01905b8181106103f357506100bf565b5f81556001016103e6565b90915081906103dd565b90607f16906100ad565b5f80fd5b601f909101601f19168101906001600160401b0382119082101761032257604052565b81601f82011215610412578051906001600160401b038211610322576040519261046d601f8401601f191660200185610416565b8284526020838301011161041257815f9260208093018386015e8301015290565b908151602081105f14610508575090601f8151116104c85760208151910151602082106104b9571790565b5f198260200360031b1b161790565b604460209160405192839163305a27a960e01b83528160048401528051918291826024860152018484015e5f828201840152601f01601f19168101030190fd5b6001600160401b03811161032257600554600181811c9116801561060b575b602082101461030457601f81116105d8575b50602092601f821160011461057757928192935f9261056c575b50508160011b915f199060031b1c19161760055560ff90565b015190505f80610553565b601f1982169360055f52805f20915f5b8681106105c057508360019596106105a8575b505050811b0160055560ff90565b01515f1960f88460031b161c191690555f808061059a565b91926020600181928685015181550194019201610587565b60055f52601f60205f20910160051c810190601f830160051c015b8181106106005750610539565b5f81556001016105f3565b90607f1690610527565b908151602081105f14610640575090601f8151116104c85760208151910151602082106104b9571790565b6001600160401b03811161032257600654600181811c91168015610743575b602082101461030457601f8111610710575b50602092601f82116001146106af57928192935f926106a4575b50508160011b915f199060031b1c19161760065560ff90565b015190505f8061068b565b601f1982169360065f52805f20915f5b8681106106f857508360019596106106e0575b505050811b0160065560ff90565b01515f1960f88460031b161c191690555f80806106d2565b919260206001819286850151815501940192016106bf565b60065f52601f60205f20910160051c810190601f830160051c015b8181106107385750610671565b5f815560010161072b565b90607f169061065f56fe6080806040526004361015610012575f80fd5b5f3560e01c90816306fdde031461077657508063095ea7b31461075057806318160ddd1461073357806323b872dd14610653578063313ce567146106385780633644e5151461061657806340c10f191461057457806342966c68146104d457806370a082311461049d5780637ecebe001461046557806384b0196e1461036d57806395d89b411461028b578063a9059cbb1461025a578063d505accf146101155763dd62ed3e146100c1575f80fd5b34610111576040366003190112610111576100da61083c565b6100e2610852565b6001600160a01b039182165f908152600160209081526040808320949093168252928352819020549051908152f35b5f80fd5b346101115760e03660031901126101115761012e61083c565b610136610852565b604435906064359260843560ff81168103610111578442116102475761020a6102139160018060a01b03841696875f52600760205260405f20908154916001830190556040519060208201927f6e71edae12b1b97f4d1f60370fef10105fa2faae0126114a169c64845d6126c984528a604084015260018060a01b038916606084015289608084015260a083015260c082015260c081526101d860e082610921565b5190206101e36109ee565b906040519161190160f01b83526002830152602282015260c43591604260a4359220610c07565b90929192610c94565b6001600160a01b0316848103610230575061022e9350610b0a565b005b84906325c0072360e11b5f5260045260245260445ffd5b8463313c898160e11b5f5260045260245ffd5b346101115760403660031901126101115761028061027661083c565b6024359033610957565b602060405160018152f35b34610111575f366003190112610111576040515f6004546102ab81610868565b808452906001811690811561034957506001146102eb575b6102e7836102d381850382610921565b604051918291602083526020830190610818565b0390f35b60045f9081527f8a35acfbc15ff81a39ae7d344fd709f28e8600b4aa8c65c6b64bfe7fe36bd19b939250905b80821061032f575090915081016020016102d36102c3565b919260018160209254838588010152019101909291610317565b60ff191660208086019190915291151560051b840190910191506102d390506102c3565b34610111575f366003190112610111576104096103a97f0000000000000000000000000000000000000000000000000000000000000000610b6d565b6103d27f0000000000000000000000000000000000000000000000000000000000000000610bd0565b6020610417604051926103e58385610921565b5f84525f368137604051958695600f60f81b875260e08588015260e0870190610818565b908582036040870152610818565b4660608501523060808501525f60a085015283810360c08501528180845192838152019301915f5b82811061044e57505050500390f35b83518552869550938101939281019260010161043f565b34610111576020366003190112610111576001600160a01b0361048661083c565b165f526007602052602060405f2054604051908152f35b34610111576020366003190112610111576001600160a01b036104be61083c565b165f525f602052602060405f2054604051908152f35b3461011157602036600319011261011157600435331561056157335f525f60205260405f20548181106105485790805f923384528360205203604083205580600254036002556040519081527fddf252ad1be2c89b69c2b068fc378daa952ba7f163c4a11628f55a4df523b3ef60203392a3005b63391434e360e21b5f523360045260245260445260645ffd5b634b637e8f60e11b5f525f60045260245ffd5b346101115760403660031901126101115761058d61083c565b6001600160a01b0316602435811561060357600254908082018092116105ef5760207fddf252ad1be2c89b69c2b068fc378daa952ba7f163c4a11628f55a4df523b3ef915f9360025584845283825260408420818154019055604051908152a3005b634e487b7160e01b5f52601160045260245ffd5b63ec442f0560e01b5f525f60045260245ffd5b34610111575f3660031901126101115760206106306109ee565b604051908152f35b34610111575f36600319011261011157602060405160128152f35b346101115760603660031901126101115761066c61083c565b610674610852565b6001600160a01b0382165f8181526001602081815260408084203385529091529091205491936044359392909181016106b3575b506102809350610957565b8381106107185784156107055733156106f257610280945f52600160205260405f2060018060a01b0333165f526020528360405f2091039055846106a8565b634a1406b160e11b5f525f60045260245ffd5b63e602df0560e01b5f525f60045260245ffd5b8390637dc7a0d960e11b5f523360045260245260445260645ffd5b34610111575f366003190112610111576020600254604051908152f35b346101115760403660031901126101115761028061076c61083c565b6024359033610b0a565b34610111575f366003190112610111575f60035461079381610868565b808452906001811690811561034957506001146107ba576102e7836102d381850382610921565b60035f9081527fc2575a0e9e593c00f959f8c92f12db2869c3395a3b0502d05e2516446f71f85b939250905b8082106107fe575090915081016020016102d36102c3565b9192600181602092548385880101520191019092916107e6565b805180835260209291819084018484015e5f828201840152601f01601f1916010190565b600435906001600160a01b038216820361011157565b602435906001600160a01b038216820361011157565b90600182811c92168015610896575b602083101461088257565b634e487b7160e01b5f52602260045260245ffd5b91607f1691610877565b5f92918154916108af83610868565b808352926001811690811561090457506001146108cb57505050565b5f9081526020812093945091925b8383106108ea575060209250010190565b6001816020929493945483858701015201910191906108d9565b915050602093945060ff929192191683830152151560051b010190565b90601f8019910116810190811067ffffffffffffffff82111761094357604052565b634e487b7160e01b5f52604160045260245ffd5b6001600160a01b0316908115610561576001600160a01b031691821561060357815f525f60205260405f20548181106109d557817fddf252ad1be2c89b69c2b068fc378daa952ba7f163c4a11628f55a4df523b3ef92602092855f525f84520360405f2055845f525f825260405f20818154019055604051908152a3565b8263391434e360e21b5f5260045260245260445260645ffd5b307f00000000000000000000000000000000000000000000000000000000000000006001600160a01b03161480610ae1575b15610a49577f000000000000000000000000000000000000000000000000000000000000000090565b60405160208101907f8b73c3c69bb8fe3d512ecc4cf759cc79239f7b179b0ffacaa9a75d522b39400f82527f000000000000000000000000000000000000000000000000000000000000000060408201527f000000000000000000000000000000000000000000000000000000000000000060608201524660808201523060a082015260a08152610adb60c082610921565b51902090565b507f00000000000000000000000000000000000000000000000000000000000000004614610a20565b6001600160a01b0316908115610705576001600160a01b03169182156106f25760207f8c5be1e5ebec7d5bd14f71427d1e84f3dd0314c0f7b2291e5b200ac8c7c3b92591835f526001825260405f20855f5282528060405f2055604051908152a3565b60ff8114610bb35760ff811690601f8211610ba45760405191610b91604084610921565b6020808452838101919036833783525290565b632cd44ac360e21b5f5260045ffd5b50604051610bcd81610bc68160056108a0565b0382610921565b90565b60ff8114610bf45760ff811690601f8211610ba45760405191610b91604084610921565b50604051610bcd81610bc68160066108a0565b91907f7fffffffffffffffffffffffffffffff5d576e7357a4501ddfe92f46681b20a08411610c89579160209360809260ff5f9560405194855216868401526040830152606082015282805260015afa15610c7e575f516001600160a01b03811615610c7457905f905f90565b505f906001905f90565b6040513d5f823e3d90fd5b5050505f9160039190565b6004811015610cf45780610ca6575050565b60018103610cbd5763f645eedf60e01b5f5260045ffd5b60028103610cd8575063fce698f760e01b5f5260045260245ffd5b600314610ce25750565b6335e2f38360e21b5f5260045260245ffd5b634e487b7160e01b5f52602160045260245ffdfea2646970667358221220fb9dca15c6e0c64f903a913768ff079e803838f0b288832a05b8a5228380594f64736f6c634300081a0033",
					"opcodes": "PUSH2 0x160 DUP1 PUSH1 0x40 MSTORE CALLVALUE PUSH2 0x412 JUMPI PUSH2 0x148C DUP1 CODESIZE SUB DUP1 SWAP2 PUSH2 0x1D DUP3 DUP6 PUSH2 0x416 JUMP JUMPDEST DUP4 CODECOPY DUP2 ADD SWAP1 PUSH1 0x40 DUP2 DUP4 SUB SLT PUSH2 0x412 JUMPI DUP1 MLOAD PUSH1 0x1 PUSH1 0x1 PUSH1 0x40 SHL SUB DUP2 GT PUSH2 0x412 JUMPI DUP3 PUSH2 0x48 SWAP2 DUP4 ADD PUSH2 0x439 JUMP JUMPDEST PUSH1 0x20 DUP3 ADD MLOAD SWAP1 SWAP3 SWAP1 PUSH1 0x1 PUSH1 0x1 PUSH1 0x40 SHL SUB DUP2 GT PUSH2 0x412 JUMPI PUSH2 0x68 SWAP3 ADD PUSH2 0x439 JUMP JUMPDEST SWAP1 PUSH1 0x40 SWAP2 DUP3 MLOAD SWAP2 PUSH2 0x79 DUP5 DUP5 PUSH2 0x416 JUMP JUMPDEST PUSH1 0x1 DUP4 MSTORE PUSH1 0x31 PUSH1 0xF8 SHL PUSH1 0x20 DUP5 ADD SWAP1 DUP2 MSTORE DUP2 MLOAD SWAP1 SWAP3 SWAP1 PUSH1 0x1 PUSH1 0x1 PUSH1 0x40 SHL SUB DUP2 GT PUSH2 0x322 JUMPI PUSH1 0x3 SLOAD PUSH1 0x1 DUP2 DUP2 SHR SWAP2 AND DUP1 ISZERO PUSH2 0x408 JUMPI JUMPDEST PUSH1 0x20 DUP3 LT EQ PUSH2 0x304 JUMPI PUSH1 0x1F DUP2 GT PUSH2 0x3A5 JUMPI JUMPDEST POP DUP1 PUSH1 0x20 PUSH1 0x1F DUP3 GT PUSH1 0x1 EQ PUSH2 0x341 JUMPI PUSH0 SWAP2 PUSH2 0x336 JUMPI JUMPDEST POP DUP2 PUSH1 0x1 SHL SWAP2 PUSH0 NOT SWAP1 PUSH1 0x3 SHL SHR NOT AND OR PUSH1 0x3 SSTORE JUMPDEST DUP1 MLOAD SWAP1 PUSH1 0x1 PUSH1 0x1 PUSH1 0x40 SHL SUB DUP3 GT PUSH2 0x322 JUMPI PUSH1 0x4 SLOAD SWAP1 PUSH1 0x1 DUP3 DUP2 SHR SWAP3 AND DUP1 ISZERO PUSH2 0x318 JUMPI JUMPDEST PUSH1 0x20 DUP4 LT EQ PUSH2 0x304 JUMPI DUP2 PUSH1 0x1F DUP5 SWAP4 GT PUSH2 0x296 JUMPI JUMPDEST POP PUSH1 0x20 SWAP1 PUSH1 0x1F DUP4 GT PUSH1 0x1 EQ PUSH2 0x230 JUMPI PUSH0 SWAP3 PUSH2 0x225 JUMPI JUMPDEST POP POP DUP2 PUSH1 0x1 SHL SWAP2 PUSH0 NOT SWAP1 PUSH1 0x3 SHL SHR NOT AND OR PUSH1 0x4 SSTORE JUMPDEST PUSH2 0x154 DUP2 PUSH2 0x48E JUMP JUMPDEST PUSH2 0x120 MSTORE PUSH2 0x161 DUP4 PUSH2 0x615 JUMP JUMPDEST PUSH2 0x140 MSTORE PUSH1 0x20 DUP2 MLOAD SWAP2 ADD KECCAK256 SWAP2 DUP3 PUSH1 0xE0 MSTORE MLOAD SWAP1 KECCAK256 DUP1 PUSH2 0x100 MSTORE CHAINID PUSH1 0xA0 MSTORE DUP3 MLOAD SWAP1 PUSH1 0x20 DUP3 ADD SWAP3 PUSH32 0x8B73C3C69BB8FE3D512ECC4CF759CC79239F7B179B0FFACAA9A75D522B39400F DUP5 MSTORE DUP5 DUP4 ADD MSTORE PUSH1 0x60 DUP3 ADD MSTORE CHAINID PUSH1 0x80 DUP3 ADD MSTORE ADDRESS PUSH1 0xA0 DUP3 ADD MSTORE PUSH1 0xA0 DUP2 MSTORE PUSH2 0x1CC PUSH1 0xC0 DUP3 PUSH2 0x416 JUMP JUMPDEST MLOAD SWAP1 KECCAK256 PUSH1 0x80 MSTORE ADDRESS PUSH1 0xC0 MSTORE MLOAD PUSH2 0xD3E SWAP1 DUP2 PUSH2 0x74E DUP3 CODECOPY PUSH1 0x80 MLOAD DUP2 PUSH2 0xA27 ADD MSTORE PUSH1 0xA0 MLOAD DUP2 PUSH2 0xAE4 ADD MSTORE PUSH1 0xC0 MLOAD DUP2 PUSH2 0x9F1 ADD MSTORE PUSH1 0xE0 MLOAD DUP2 PUSH2 0xA76 ADD MSTORE PUSH2 0x100 MLOAD DUP2 PUSH2 0xA9C ADD MSTORE PUSH2 0x120 MLOAD DUP2 PUSH2 0x385 ADD MSTORE PUSH2 0x140 MLOAD DUP2 PUSH2 0x3AE ADD MSTORE RETURN JUMPDEST ADD MLOAD SWAP1 POP PUSH0 DUP1 PUSH2 0x136 JUMP JUMPDEST PUSH1 0x4 PUSH0 SWAP1 DUP2 MSTORE DUP3 DUP2 KECCAK256 SWAP4 POP PUSH1 0x1F NOT DUP6 AND SWAP1 JUMPDEST DUP2 DUP2 LT PUSH2 0x27E JUMPI POP SWAP1 DUP5 PUSH1 0x1 SWAP6 SWAP5 SWAP4 SWAP3 LT PUSH2 0x266 JUMPI JUMPDEST POP POP POP DUP2 SHL ADD PUSH1 0x4 SSTORE PUSH2 0x14B JUMP JUMPDEST ADD MLOAD PUSH0 NOT PUSH1 0xF8 DUP5 PUSH1 0x3 SHL AND SHR NOT AND SWAP1 SSTORE PUSH0 DUP1 DUP1 PUSH2 0x258 JUMP JUMPDEST SWAP3 SWAP4 PUSH1 0x20 PUSH1 0x1 DUP2 SWAP3 DUP8 DUP7 ADD MLOAD DUP2 SSTORE ADD SWAP6 ADD SWAP4 ADD PUSH2 0x242 JUMP JUMPDEST PUSH1 0x4 PUSH0 MSTORE SWAP1 SWAP2 POP PUSH32 0x8A35ACFBC15FF81A39AE7D344FD709F28E8600B4AA8C65C6B64BFE7FE36BD19B PUSH1 0x1F DUP5 ADD PUSH1 0x5 SHR DUP2 ADD SWAP2 PUSH1 0x20 DUP6 LT PUSH2 0x2FA JUMPI JUMPDEST SWAP1 PUSH1 0x1F DUP6 SWAP5 SWAP4 SWAP3 ADD PUSH1 0x5 SHR ADD SWAP1 JUMPDEST DUP2 DUP2 LT PUSH2 0x2EC JUMPI POP PUSH2 0x120 JUMP JUMPDEST PUSH0 DUP2 SSTORE DUP5 SWAP4 POP PUSH1 0x1 ADD PUSH2 0x2DF JUMP JUMPDEST SWAP1 SWAP2 POP DUP2 SWAP1 PUSH2 0x2D1 JUMP JUMPDEST PUSH4 0x4E487B71 PUSH1 0xE0 SHL PUSH0 MSTORE PUSH1 0x22 PUSH1 0x4 MSTORE PUSH1 0x24 PUSH0 REVERT JUMPDEST SWAP2 PUSH1 0x7F AND SWAP2 PUSH2 0x10C JUMP JUMPDEST PUSH4 0x4E487B71 PUSH1 0xE0 SHL PUSH0 MSTORE PUSH1 0x41 PUSH1 0x4 MSTORE PUSH1 0x24 PUSH0 REVERT JUMPDEST SWAP1 POP DUP4 ADD MLOAD PUSH0 PUSH2 0xD5 JUMP JUMPDEST PUSH1 0x3 PUSH0 SWAP1 DUP2 MSTORE DUP2 DUP2 KECCAK256 SWAP3 POP PUSH1 0x1F NOT DUP5 AND SWAP1 JUMPDEST DUP2 DUP2 LT PUSH2 0x38D JUMPI POP SWAP1 DUP4 PUSH1 0x1 SWAP5 SWAP4 SWAP3 LT PUSH2 0x375 JUMPI JUMPDEST POP POP DUP2 SHL ADD PUSH1 0x3 SSTORE PUSH2 0xE9 JUMP JUMPDEST DUP6 ADD MLOAD PUSH0 NOT PUSH1 0xF8 DUP5 PUSH1 0x3 SHL AND SHR NOT AND SWAP1 SSTORE PUSH0 DUP1 PUSH2 0x368 JUMP JUMPDEST SWAP2 SWAP3 PUSH1 0x20 PUSH1 0x1 DUP2 SWAP3 DUP7 DUP11 ADD MLOAD DUP2 SSTORE ADD SWAP5 ADD SWAP3 ADD PUSH2 0x353 JUMP JUMPDEST PUSH1 0x3 PUSH0 MSTORE PUSH32 0xC2575A0E9E593C00F959F8C92F12DB2869C3395A3B0502D05E2516446F71F85B PUSH1 0x1F DUP4 ADD PUSH1 0x5 SHR DUP2 ADD SWAP2 PUSH1 0x20 DUP5 LT PUSH2 0x3FE JUMPI JUMPDEST PUSH1 0x1F ADD PUSH1 0x5 SHR ADD SWAP1 JUMPDEST DUP2 DUP2 LT PUSH2 0x3F3 JUMPI POP PUSH2 0xBF JUMP JUMPDEST PUSH0 DUP2 SSTORE PUSH1 0x1 ADD PUSH2 0x3E6 JUMP JUMPDEST SWAP1 SWAP2 POP DUP2 SWAP1 PUSH2 0x3DD JUMP JUMPDEST SWAP1 PUSH1 0x7F AND SWAP1 PUSH2 0xAD JUMP JUMPDEST PUSH0 DUP1 REVERT JUMPDEST PUSH1 0x1F SWAP1 SWAP2 ADD PUSH1 0x1F NOT AND DUP2 ADD SWAP1 PUSH1 0x1 PUSH1 0x1 PUSH1 0x40 SHL SUB DUP3 GT SWAP1 DUP3 LT OR PUSH2 0x322 JUMPI PUSH1 0x40 MSTORE JUMP JUMPDEST DUP2 PUSH1 0x1F DUP3 ADD SLT ISZERO PUSH2 0x412 JUMPI DUP1 MLOAD SWAP1 PUSH1 0x1 PUSH1 0x1 PUSH1 0x40 SHL SUB DUP3 GT PUSH2 0x322 JUMPI PUSH1 0x40 MLOAD SWAP3 PUSH2 0x46D PUSH1 0x1F DUP5 ADD PUSH1 0x1F NOT AND PUSH1 0x20 ADD DUP6 PUSH2 0x416 JUMP JUMPDEST DUP3 DUP5 MSTORE PUSH1 0x20 DUP4 DUP4 ADD ADD GT PUSH2 0x412 JUMPI DUP2 PUSH0 SWAP3 PUSH1 0x20 DUP1 SWAP4 ADD DUP4 DUP7 ADD MCOPY DUP4 ADD ADD MSTORE SWAP1 JUMP JUMPDEST SWAP1 DUP2 MLOAD PUSH1 0x20 DUP2 LT PUSH0 EQ PUSH2 0x508 JUMPI POP SWAP1 PUSH1 0x1F DUP2 MLOAD GT PUSH2 0x4C8 JUMPI PUSH1 0x20 DUP2 MLOAD SWAP2 ADD MLOAD PUSH1 0x20 DUP3 LT PUSH2 0x4B9 JUMPI OR SWAP1 JUMP JUMPDEST PUSH0 NOT DUP3 PUSH1 0x20 SUB PUSH1 0x3 SHL SHL AND OR SWAP1 JUMP JUMPDEST PUSH1 0x44 PUSH1 0x20 SWAP2 PUSH1 0x40 MLOAD SWAP3 DUP4 SWAP2 PUSH4 0x305A27A9 PUSH1 0xE0 SHL DUP4 MSTORE DUP2 PUSH1 0x4 DUP5 ADD MSTORE DUP1 MLOAD SWAP2 DUP3 SWAP2 DUP3 PUSH1 0x24 DUP7 ADD MSTORE ADD DUP5 DUP5 ADD MCOPY PUSH0 DUP3 DUP3 ADD DUP5 ADD MSTORE PUSH1 0x1F ADD PUSH1 0x1F NOT AND DUP2 ADD SUB ADD SWAP1 REVERT JUMPDEST PUSH1 0x1 PUSH1 0x1 PUSH1 0x40 SHL SUB DUP2 GT PUSH2 0x322 JUMPI PUSH1 0x5 SLOAD PUSH1 0x1 DUP2 DUP2 SHR SWAP2 AND DUP1 ISZERO PUSH2 0x60B JUMPI JUMPDEST PUSH1 0x20 DUP3 LT EQ PUSH2 0x304 JUMPI PUSH1 0x1F DUP2 GT PUSH2 0x5D8 JUMPI JUMPDEST POP PUSH1 0x20 SWAP3 PUSH1 0x1F DUP3 GT PUSH1 0x1 EQ PUSH2 0x577 JUMPI SWAP3 DUP2 SWAP3 SWAP4 PUSH0 SWAP3 PUSH2 0x56C JUMPI JUMPDEST POP POP DUP2 PUSH1 0x1 SHL SWAP2 PUSH0 NOT SWAP1 PUSH1 0x3 SHL SHR NOT AND OR PUSH1 0x5 SSTORE PUSH1 0xFF SWAP1 JUMP JUMPDEST ADD MLOAD SWAP1 POP PUSH0 DUP1 PUSH2 0x553 JUMP JUMPDEST PUSH1 0x1F NOT DUP3 AND SWAP4 PUSH1 0x5 PUSH0 MSTORE DUP1 PUSH0 KECCAK256 SWAP2 PUSH0 JUMPDEST DUP7 DUP2 LT PUSH2 0x5C0 JUMPI POP DUP4 PUSH1 0x1 SWAP6 SWAP7 LT PUSH2 0x5A8 JUMPI JUMPDEST POP POP POP DUP2 SHL ADD PUSH1 0x5 SSTORE PUSH1 0xFF SWAP1 JUMP JUMPDEST ADD MLOAD PUSH0 NOT PUSH1 0xF8 DUP5 PUSH1 0x3 SHL AND SHR NOT AND SWAP1 SSTORE PUSH0 DUP1 DUP1 PUSH2 0x59A JUMP JUMPDEST SWAP2 SWAP3 PUSH1 0x20 PUSH1 0x1 DUP2 SWAP3 DUP7 DUP6 ADD MLOAD DUP2 SSTORE ADD SWAP5 ADD SWAP3 ADD PUSH2 0x587 JUMP JUMPDEST PUSH1 0x5 PUSH0 MSTORE PUSH1 0x1F PUSH1 0x20 PUSH0 KECCAK256 SWAP2 ADD PUSH1 0x5 SHR DUP2 ADD SWAP1 PUSH1 0x1F DUP4 ADD PUSH1 0x5 SHR ADD JUMPDEST DUP2 DUP2 LT PUSH2 0x600 JUMPI POP PUSH2 0x539 JUMP JUMPDEST PUSH0 DUP2 SSTORE PUSH1 0x1 ADD PUSH2 0x5F3 JUMP JUMPDEST SWAP1 PUSH1 0x7F AND SWAP1 PUSH2 0x527 JUMP JUMPDEST SWAP1 DUP2 MLOAD PUSH1 0x20 DUP2 LT PUSH0 EQ PUSH2 0x640 JUMPI POP SWAP1 PUSH1 0x1F DUP2 MLOAD GT PUSH2 0x4C8 JUMPI PUSH1 0x20 DUP2 MLOAD SWAP2 ADD MLOAD PUSH1 0x20 DUP3 LT PUSH2 0x4B9 JUMPI OR SWAP1 JUMP JUMPDEST PUSH1 0x1 PUSH1 0x1 PUSH1 0x40 SHL SUB DUP2 GT PUSH2 0x322 JUMPI PUSH1 0x6 SLOAD PUSH1 0x1 DUP2 DUP2 SHR SWAP2 AND DUP1 ISZERO PUSH2 0x743 JUMPI JUMPDEST PUSH1 0x20 DUP3 LT EQ PUSH2 0x304 JUMPI PUSH1 0x1F DUP2 GT PUSH2 0x710 JUMPI JUMPDEST POP PUSH1 0x20 SWAP3 PUSH1 0x1F DUP3 GT PUSH1 0x1 EQ PUSH2 0x6AF JUMPI SWAP3 DUP2 SWAP3 SWAP4 PUSH0 SWAP3 PUSH2 0x6A4 JUMPI JUMPDEST POP POP DUP2 PUSH1 0x1 SHL SWAP2 PUSH0 NOT SWAP1 PUSH1 0x3 SHL SHR NOT AND OR PUSH1 0x6 SSTORE PUSH1 0xFF SWAP1 JUMP JUMPDEST ADD MLOAD SWAP1 POP PUSH0 DUP1 PUSH2 0x68B JUMP JUMPDEST PUSH1 0x1F NOT DUP3 AND SWAP4 PUSH1 0x6 PUSH0 MSTORE DUP1 PUSH0 KECCAK256 SWAP2 PUSH0 JUMPDEST DUP7 DUP2 LT PUSH2 0x6F8 JUMPI POP DUP4 PUSH1 0x1 SWAP6 SWAP7 LT PUSH2 0x6E0 JUMPI JUMPDEST POP POP POP DUP2 SHL ADD PUSH1 0x6 SSTORE PUSH1 0xFF SWAP1 JUMP JUMPDEST ADD MLOAD PUSH0 NOT PUSH1 0xF8 DUP5 PUSH1 0x3 SHL AND SHR NOT AND SWAP1 SSTORE PUSH0 DUP1 DUP1 PUSH2 0x6D2 JUMP JUMPDEST SWAP2 SWAP3 PUSH1 0x20 PUSH1 0x1 DUP2 SWAP3 DUP7 DUP6 ADD MLOAD DUP2 SSTORE ADD SWAP5 ADD SWAP3 ADD PUSH2 0x6BF JUMP JUMPDEST PUSH1 0x6 PUSH0 MSTORE PUSH1 0x1F PUSH1 0x20 PUSH0 KECCAK256 SWAP2 ADD PUSH1 0x5 SHR DUP2 ADD SWAP1 PUSH1 0x1F DUP4 ADD PUSH1 0x5 SHR ADD JUMPDEST DUP2 DUP2 LT PUSH2 0x738 JUMPI POP PUSH2 0x671 JUMP JUMPDEST PUSH0 DUP2 SSTORE PUSH1 0x1 ADD PUSH2 0x72B JUMP JUMPDEST SWAP1 PUSH1 0x7F AND SWAP1 PUSH2 0x65F JUMP INVALID PUSH1 0x80 DUP1 PUSH1 0x40 MSTORE PUSH1 0x4 CALLDATASIZE LT ISZERO PUSH2 0x12 JUMPI PUSH0 DUP1 REVERT JUMPDEST PUSH0 CALLDATALOAD PUSH1 0xE0 SHR SWAP1 DUP2 PUSH4 0x6FDDE03 EQ PUSH2 0x776 JUMPI POP DUP1 PUSH4 0x95EA7B3 EQ PUSH2 0x750 JUMPI DUP1 PUSH4 0x18160DDD EQ PUSH2 0x733 JUMPI DUP1 PUSH4 0x23B872DD EQ PUSH2 0x653 JUMPI DUP1 PUSH4 0x313CE567 EQ PUSH2 0x638 JUMPI DUP1 PUSH4 0x3644E515 EQ PUSH2 0x616 JUMPI DUP1 PUSH4 0x40C10F19 EQ PUSH2 0x574 JUMPI DUP1 PUSH4 0x42966C68 EQ PUSH2 0x4D4 JUMPI DUP1 PUSH4 0x70A08231 EQ PUSH2 0x49D JUMPI DUP1 PUSH4 0x7ECEBE00 EQ PUSH2 0x465 JUMPI DUP1 PUSH4 0x84B0196E EQ PUSH2 0x36D JUMPI DUP1 PUSH4 0x95D89B41 EQ PUSH2 0x28B JUMPI DUP1 PUSH4 0xA9059CBB EQ PUSH2 0x25A JUMPI DUP1 PUSH4 0xD505ACCF EQ PUSH2 0x115 JUMPI PUSH4 0xDD62ED3E EQ PUSH2 0xC1 JUMPI PUSH0 DUP1 REVERT JUMPDEST CALLVALUE PUSH2 0x111 JUMPI PUSH1 0x40 CALLDATASIZE PUSH1 0x3 NOT ADD SLT PUSH2 0x111 JUMPI PUSH2 0xDA PUSH2 0x83C JUMP JUMPDEST PUSH2 0xE2 PUSH2 0x852 JUMP JUMPDEST PUSH1 0x1 PUSH1 0x1 PUSH1 0xA0 SHL SUB SWAP2 DUP3 AND PUSH0 SWAP1 DUP2 MSTORE PUSH1 0x1 PUSH1 0x20 SWAP1 DUP2 MSTORE PUSH1 0x40 DUP1 DUP4 KECCAK256 SWAP5 SWAP1 SWAP4 AND DUP3 MSTORE SWAP3 DUP4 MSTORE DUP2 SWAP1 KECCAK256 SLOAD SWAP1 MLOAD SWAP1 DUP2 MSTORE RETURN JUMPDEST PUSH0 DUP1 REVERT JUMPDEST CALLVALUE PUSH2 0x111 JUMPI PUSH1 0xE0 CALLDATASIZE PUSH1 0x3 NOT ADD SLT PUSH2 0x111 JUMPI PUSH2 0x12E PUSH2 0x83C JUMP JUMPDEST PUSH2 0x136 PUSH2 0x852 JUMP JUMPDEST PUSH1 0x44 CALLDATALOAD SWAP1 PUSH1 0x64 CALLDATALOAD SWAP3 PUSH1 0x84 CALLDATALOAD PUSH1 0xFF DUP2 AND DUP2 SUB PUSH2 0x111 JUMPI DUP5 TIMESTAMP GT PUSH2 0x247 JUMPI PUSH2 0x20A PUSH2 0x213 SWAP2 PUSH1 0x1 DUP1 PUSH1 0xA0 SHL SUB DUP5 AND SWAP7 DUP8 PUSH0 MSTORE PUSH1 0x7 PUSH1 0x20 MSTORE PUSH1 0x40 PUSH0 KECCAK256 SWAP1 DUP2 SLOAD SWAP2 PUSH1 0x1 DUP4 ADD SWAP1 SSTORE PUSH1 0x40 MLOAD SWAP1 PUSH1 0x20 DUP3 ADD SWAP3 PUSH32 0x6E71EDAE12B1B97F4D1F60370FEF10105FA2FAAE0126114A169C64845D6126C9 DUP5 MSTORE DUP11 PUSH1 0x40 DUP5 ADD MSTORE PUSH1 0x1 DUP1 PUSH1 0xA0 SHL SUB DUP10 AND PUSH1 0x60 DUP5 ADD MSTORE DUP10 PUSH1 0x80 DUP5 ADD MSTORE PUSH1 0xA0 DUP4 ADD MSTORE PUSH1 0xC0 DUP3 ADD MSTORE PUSH1 0xC0 DUP2 MSTORE PUSH2 0x1D8 PUSH1 0xE0 DUP3 PUSH2 0x921 JUMP JUMPDEST MLOAD SWAP1 KECCAK256 PUSH2 0x1E3 PUSH2 0x9EE JUMP JUMPDEST SWAP1 PUSH1 0x40 MLOAD SWAP2 PUSH2 0x1901 PUSH1 0xF0 SHL DUP4 MSTORE PUSH1 0x2 DUP4 ADD MSTORE PUSH1 0x22 DUP3 ADD MSTORE PUSH1 0xC4 CALLDATALOAD SWAP2 PUSH1 0x42 PUSH1 0xA4 CALLDATALOAD SWAP3 KECCAK256 PUSH2 0xC07 JUMP JUMPDEST SWAP1 SWAP3 SWAP2 SWAP3 PUSH2 0xC94 JUMP JUMPDEST PUSH1 0x1 PUSH1 0x1 PUSH1 0xA0 SHL SUB AND DUP5 DUP2 SUB PUSH2 0x230 JUMPI POP PUSH2 0x22E SWAP4 POP PUSH2 0xB0A JUMP JUMPDEST STOP JUMPDEST DUP5 SWAP1 PUSH4 0x25C00723 PUSH1 0xE1 SHL PUSH0 MSTORE PUSH1 0x4 MSTORE PUSH1 0x24 MSTORE PUSH1 0x44 PUSH0 REVERT JUMPDEST DUP5 PUSH4 0x313C8981 PUSH1 0xE1 SHL PUSH0 MSTORE PUSH1 0x4 MSTORE PUSH1 0x24 PUSH0 REVERT JUMPDEST CALLVALUE PUSH2 0x111 JUMPI PUSH1 0x40 CALLDATASIZE PUSH1 0x3 NOT ADD SLT PUSH2 0x111 JUMPI PUSH2 0x280 PUSH2 0x276 PUSH2 0x83C JUMP JUMPDEST PUSH1 0x24 CALLDATALOAD SWAP1 CALLER PUSH2 0x957 JUMP JUMPDEST PUSH1 0x20 PUSH1 0x40 MLOAD PUSH1 0x1 DUP2 MSTORE RETURN JUMPDEST CALLVALUE PUSH2 0x111 JUMPI PUSH0 CALLDATASIZE PUSH1 0x3 NOT ADD SLT PUSH2 0x111 JUMPI PUSH1 0x40 MLOAD PUSH0 PUSH1 0x4 SLOAD PUSH2 0x2AB DUP2 PUSH2 0x868 JUMP JUMPDEST DUP1 DUP5 MSTORE SWAP1 PUSH1 0x1 DUP2 AND SWAP1 DUP2 ISZERO PUSH2 0x349 JUMPI POP PUSH1 0x1 EQ PUSH2 0x2EB JUMPI JUMPDEST PUSH2 0x2E7 DUP4 PUSH2 0x2D3 DUP2 DUP6 SUB DUP3 PUSH2 0x921 JUMP JUMPDEST PUSH1 0x40 MLOAD SWAP2 DUP3 SWAP2 PUSH1 0x20 DUP4 MSTORE PUSH1 0x20 DUP4 ADD SWAP1 PUSH2 0x818 JUMP JUMPDEST SUB SWAP1 RETURN JUMPDEST PUSH1 0x4 PUSH0 SWAP1 DUP2 MSTORE PUSH32 0x8A35ACFBC15FF81A39AE7D344FD709F28E8600B4AA8C65C6B64BFE7FE36BD19B SWAP4 SWAP3 POP SWAP1 JUMPDEST DUP1 DUP3 LT PUSH2 0x32F JUMPI POP SWAP1 SWAP2 POP DUP2 ADD PUSH1 0x20 ADD PUSH2 0x2D3 PUSH2 0x2C3 JUMP JUMPDEST SWAP2 SWAP3 PUSH1 0x1 DUP2 PUSH1 0x20 SWAP3 SLOAD DUP4 DUP6 DUP9 ADD ADD MSTORE ADD SWAP2 ADD SWAP1 SWAP3 SWAP2 PUSH2 0x317 JUMP JUMPDEST PUSH1 0xFF NOT AND PUSH1 0x20 DUP1 DUP7 ADD SWAP2 SWAP1 SWAP2 MSTORE SWAP2 ISZERO ISZERO PUSH1 0x5 SHL DUP5 ADD SWAP1 SWAP2 ADD SWAP2 POP PUSH2 0x2D3 SWAP1 POP PUSH2 0x2C3 JUMP JUMPDEST CALLVALUE PUSH2 0x111 JUMPI PUSH0 CALLDATASIZE PUSH1 0x3 NOT ADD SLT PUSH2 0x111 JUMPI PUSH2 0x409 PUSH2 0x3A9 PUSH32 0x0 PUSH2 0xB6D JUMP JUMPDEST PUSH2 0x3D2 PUSH32 0x0 PUSH2 0xBD0 JUMP JUMPDEST PUSH1 0x20 PUSH2 0x417 PUSH1 0x40 MLOAD SWAP3 PUSH2 0x3E5 DUP4 DUP6 PUSH2 0x921 JUMP JUMPDEST PUSH0 DUP5 MSTORE PUSH0 CALLDATASIZE DUP2 CALLDATACOPY PUSH1 0x40 MLOAD SWAP6 DUP7 SWAP6 PUSH1 0xF PUSH1 0xF8 SHL DUP8 MSTORE PUSH1 0xE0 DUP6 DUP9 ADD MSTORE PUSH1 0xE0 DUP8 ADD SWAP1 PUSH2 0x818 JUMP JUMPDEST SWAP1 DUP6 DUP3 SUB PUSH1 0x40 DUP8 ADD MSTORE PUSH2 0x818 JUMP JUMPDEST CHAINID PUSH1 0x60 DUP6 ADD MSTORE ADDRESS PUSH1 0x80 DUP6 ADD MSTORE PUSH0 PUSH1 0xA0 DUP6 ADD MSTORE DUP4 DUP2 SUB PUSH1 0xC0 DUP6 ADD MSTORE DUP2 DUP1 DUP5 MLOAD SWAP3 DUP4 DUP2 MSTORE ADD SWAP4 ADD SWAP2 PUSH0 JUMPDEST DUP3 DUP2 LT PUSH2 0x44E JUMPI POP POP POP POP SUB SWAP1 RETURN JUMPDEST DUP4 MLOAD DUP6 MSTORE DUP7 SWAP6 POP SWAP4 DUP2 ADD SWAP4 SWAP3 DUP2 ADD SWAP3 PUSH1 0x1 ADD PUSH2 0x43F JUMP JUMPDEST CALLVALUE PUSH2 0x111 JUMPI PUSH1 0x20 CALLDATASIZE PUSH1 0x3 NOT ADD SLT PUSH2 0x111 JUMPI PUSH1 0x1 PUSH1 0x1 PUSH1 0xA0 SHL SUB PUSH2 0x486 PUSH2 0x83C JUMP JUMPDEST AND PUSH0 MSTORE PUSH1 0x7 PUSH1 0x20 MSTORE PUSH1 0x20 PUSH1 0x40 PUSH0 KECCAK256 SLOAD PUSH1 0x40 MLOAD SWAP1 DUP2 MSTORE RETURN JUMPDEST CALLVALUE PUSH2 0x111 JUMPI PUSH1 0x20 CALLDATASIZE PUSH1 0x3 NOT ADD SLT PUSH2 0x111 JUMPI PUSH1 0x1 PUSH1 0x1 PUSH1 0xA0 SHL SUB PUSH2 0x4BE PUSH2 0x83C JUMP JUMPDEST AND PUSH0 MSTORE PUSH0 PUSH1 0x20 MSTORE PUSH1 0x20 PUSH1 0x40 PUSH0 KECCAK256 SLOAD PUSH1 0x40 MLOAD SWAP1 DUP2 MSTORE RETURN JUMPDEST CALLVALUE PUSH2 0x111 JUMPI PUSH1 0x20 CALLDATASIZE PUSH1 0x3 NOT ADD SLT PUSH2 0x111 JUMPI PUSH1 0x4 CALLDATALOAD CALLER ISZERO PUSH2 0x561 JUMPI CALLER PUSH0 MSTORE PUSH0 PUSH1 0x20 MSTORE PUSH1 0x40 PUSH0 KECCAK256 SLOAD DUP2 DUP2 LT PUSH2 0x548 JUMPI SWAP1 DUP1 PUSH0 SWAP3 CALLER DUP5 MSTORE DUP4 PUSH1 0x20 MSTORE SUB PUSH1 0x40 DUP4 KECCAK256 SSTORE DUP1 PUSH1 0x2 SLOAD SUB PUSH1 0x2 SSTORE PUSH1 0x40 MLOAD SWAP1 DUP2 MSTORE PUSH32 0xDDF252AD1BE2C89B69C2B068FC378DAA952BA7F163C4A11628F55A4DF523B3EF PUSH1 0x20 CALLER SWAP3 LOG3 STOP JUMPDEST PUSH4 0x391434E3 PUSH1 0xE2 SHL PUSH0 MSTORE CALLER PUSH1 0x4 MSTORE PUSH1 0x24 MSTORE PUSH1 0x44 MSTORE PUSH1 0x64 PUSH0 REVERT JUMPDEST PUSH4 0x4B637E8F PUSH1 0xE1 SHL PUSH0 MSTORE PUSH0 PUSH1 0x4 MSTORE PUSH1 0x24 PUSH0 REVERT JUMPDEST CALLVALUE PUSH2 0x111 JUMPI PUSH1 0x40 CALLDATASIZE PUSH1 0x3 NOT ADD SLT PUSH2 0x111 JUMPI PUSH2 0x58D PUSH2 0x83C JUMP JUMPDEST PUSH1 0x1 PUSH1 0x1 PUSH1 0xA0 SHL SUB AND PUSH1 0x24 CALLDATALOAD DUP2 ISZERO PUSH2 0x603 JUMPI PUSH1 0x2 SLOAD SWAP1 DUP1 DUP3 ADD DUP1 SWAP3 GT PUSH2 0x5EF JUMPI PUSH1 0x20 PUSH32 0xDDF252AD1BE2C89B69C2B068FC378DAA952BA7F163C4A11628F55A4DF523B3EF SWAP2 PUSH0 SWAP4 PUSH1 0x2 SSTORE DUP5 DUP5 MSTORE DUP4 DUP3 MSTORE PUSH1 0x40 DUP5 KECCAK256 DUP2 DUP2 SLOAD ADD SWAP1 SSTORE PUSH1 0x40 MLOAD SWAP1 DUP2 MSTORE LOG3 STOP JUMPDEST PUSH4 0x4E487B71 PUSH1 0xE0 SHL PUSH0 MSTORE PUSH1 0x11 PUSH1 0x4 MSTORE PUSH1 0x24 PUSH0 REVERT JUMPDEST PUSH4 0xEC442F05 PUSH1 0xE0 SHL PUSH0 MSTORE PUSH0 PUSH1 0x4 MSTORE PUSH1 0x24 PUSH0 REVERT JUMPDEST CALLVALUE PUSH2 0x111 JUMPI PUSH0 CALLDATASIZE PUSH1 0x3 NOT ADD SLT PUSH2 0x111 JUMPI PUSH1 0x20 PUSH2 0x630 PUSH2 0x9EE JUMP JUMPDEST PUSH1 0x40 MLOAD SWAP1 DUP2 MSTORE RETURN JUMPDEST CALLVALUE PUSH2 0x111 JUMPI PUSH0 CALLDATASIZE PUSH1 0x3 NOT ADD SLT PUSH2 0x111 JUMPI PUSH1 0x20 PUSH1 0x40 MLOAD PUSH1 0x12 DUP2 MSTORE RETURN JUMPDEST CALLVALUE PUSH2 0x111 JUMPI PUSH1 0x60 CALLDATASIZE PUSH1 0x3 NOT ADD SLT PUSH2 0x111 JUMPI PUSH2 0x66C PUSH2 0x83C JUMP JUMPDEST PUSH2 0x674 PUSH2 0x852 JUMP JUMPDEST PUSH1 0x1 PUSH1 0x1 PUSH1 0xA0 SHL SUB DUP3 AND PUSH0 DUP2 DUP2 MSTORE PUSH1 0x1 PUSH1 0x20 DUP2 DUP2 MSTORE PUSH1 0x40 DUP1 DUP5 KECCAK256 CALLER DUP6 MSTORE SWAP1 SWAP2 MSTORE SWAP1 SWAP2 KECCAK256 SLOAD SWAP2 SWAP4 PUSH1 0x44 CALLDATALOAD SWAP4 SWAP3 SWAP1 SWAP2 DUP2 ADD PUSH2 0x6B3 JUMPI JUMPDEST POP PUSH2 0x280 SWAP4 POP PUSH2 0x957 JUMP JUMPDEST DUP4 DUP2 LT PUSH2 0x718 JUMPI DUP5 ISZERO PUSH2 0x705 JUMPI CALLER ISZERO PUSH2 0x6F2 JUMPI PUSH2 0x280 SWAP5 PUSH0 MSTORE PUSH1 0x1 PUSH1 0x20 MSTORE PUSH1 0x40 PUSH0 KECCAK256 PUSH1 0x1 DUP1 PUSH1 0xA0 SHL SUB CALLER AND PUSH0 MSTORE PUSH1 0x20 MSTORE DUP4 PUSH1 0x40 PUSH0 KECCAK256 SWAP2 SUB SWAP1 SSTORE DUP5 PUSH2 0x6A8 JUMP JUMPDEST PUSH4 0x4A1406B1 PUSH1 0xE1 SHL PUSH0 MSTORE PUSH0 PUSH1 0x4 MSTORE PUSH1 0x24 PUSH0 REVERT JUMPDEST PUSH4 0xE602DF05 PUSH1 0xE0 SHL PUSH0 MSTORE PUSH0 PUSH1 0x4 MSTORE PUSH1 0x24 PUSH0 REVERT JUMPDEST DUP4 SWAP1 PUSH4 0x7DC7A0D9 PUSH1 0xE1 SHL PUSH0 MSTORE CALLER PUSH1 0x4 MSTORE PUSH1 0x24 MSTORE PUSH1 0x44 MSTORE PUSH1 0x64 PUSH0 REVERT JUMPDEST CALLVALUE PUSH2 0x111 JUMPI PUSH0 CALLDATASIZE PUSH1 0x3 NOT ADD SLT PUSH2 0x111 JUMPI PUSH1 0x20 PUSH1 0x2 SLOAD PUSH1 0x40 MLOAD SWAP1 DUP2 MSTORE RETURN JUMPDEST CALLVALUE PUSH2 0x111 JUMPI PUSH1 0x40 CALLDATASIZE PUSH1 0x3 NOT ADD SLT PUSH2 0x111 JUMPI PUSH2 0x280 PUSH2 0x76C PUSH2 0x83C JUMP JUMPDEST PUSH1 0x24 CALLDATALOAD SWAP1 CALLER PUSH2 0xB0A JUMP JUMPDEST CALLVALUE PUSH2 0x111 JUMPI PUSH0 CALLDATASIZE PUSH1 0x3 NOT ADD SLT PUSH2 0x111 JUMPI PUSH0 PUSH1 0x3 SLOAD PUSH2 0x793 DUP2 PUSH2 0x868 JUMP JUMPDEST DUP1 DUP5 MSTORE SWAP1 PUSH1 0x1 DUP2 AND SWAP1 DUP2 ISZERO PUSH2 0x349 JUMPI POP PUSH1 0x1 EQ PUSH2 0x7BA JUMPI PUSH2 0x2E7 DUP4 PUSH2 0x2D3 DUP2 DUP6 SUB DUP3 PUSH2 0x921 JUMP JUMPDEST PUSH1 0x3 PUSH0 SWAP1 DUP2 MSTORE PUSH32 0xC2575A0E9E593C00F959F8C92F12DB2869C3395A3B0502D05E2516446F71F85B SWAP4 SWAP3 POP SWAP1 JUMPDEST DUP1 DUP3 LT PUSH2 0x7FE JUMPI POP SWAP1 SWAP2 POP DUP2 ADD PUSH1 0x20 ADD PUSH2 0x2D3 PUSH2 0x2C3 JUMP JUMPDEST SWAP2 SWAP3 PUSH1 0x1 DUP2 PUSH1 0x20 SWAP3 SLOAD DUP4 DUP6 DUP9 ADD ADD MSTORE ADD SWAP2 ADD SWAP1 SWAP3 SWAP2 PUSH2 0x7E6 JUMP JUMPDEST DUP1 MLOAD DUP1 DUP4 MSTORE PUSH1 0x20 SWAP3 SWAP2 DUP2 SWAP1 DUP5 ADD DUP5 DUP5 ADD MCOPY PUSH0 DUP3 DUP3 ADD DUP5 ADD MSTORE PUSH1 0x1F ADD PUSH1 0x1F NOT AND ADD ADD SWAP1 JUMP JUMPDEST PUSH1 0x4 CALLDATALOAD SWAP1 PUSH1 0x1 PUSH1 0x1 PUSH1 0xA0 SHL SUB DUP3 AND DUP3 SUB PUSH2 0x111 JUMPI JUMP JUMPDEST PUSH1 0x24 CALLDATALOAD SWAP1 PUSH1 0x1 PUSH1 0x1 PUSH1 0xA0 SHL SUB DUP3 AND DUP3 SUB PUSH2 0x111 JUMPI JUMP JUMPDEST SWAP1 PUSH1 0x1 DUP3 DUP2 SHR SWAP3 AND DUP1 ISZERO PUSH2 0x896 JUMPI JUMPDEST PUSH1 0x20 DUP4 LT EQ PUSH2 0x882 JUMPI JUMP JUMPDEST PUSH4 0x4E487B71 PUSH1 0xE0 SHL PUSH0 MSTORE PUSH1 0x22 PUSH1 0x4 MSTORE PUSH1 0x24 PUSH0 REVERT JUMPDEST SWAP2 PUSH1 0x7F AND SWAP2 PUSH2 0x877 JUMP JUMPDEST PUSH0 SWAP3 SWAP2 DUP2 SLOAD SWAP2 PUSH2 0x8AF DUP4 PUSH2 0x868 JUMP JUMPDEST DUP1 DUP4 MSTORE SWAP3 PUSH1 0x1 DUP2 AND SWAP1 DUP2 ISZERO PUSH2 0x904 JUMPI POP PUSH1 0x1 EQ PUSH2 0x8CB JUMPI POP POP POP JUMP JUMPDEST PUSH0 SWAP1 DUP2 MSTORE PUSH1 0x20 DUP2 KECCAK256 SWAP4 SWAP5 POP SWAP2 SWAP3 JUMPDEST DUP4 DUP4 LT PUSH2 0x8EA JUMPI POP PUSH1 0x20 SWAP3 POP ADD ADD SWAP1 JUMP JUMPDEST PUSH1 0x1 DUP2 PUSH1 0x20 SWAP3 SWAP5 SWAP4 SWAP5 SLOAD DUP4 DUP6 DUP8 ADD ADD MSTORE ADD SWAP2 ADD SWAP2 SWAP1 PUSH2 0x8D9 JUMP JUMPDEST SWAP2 POP POP PUSH1 0x20 SWAP4 SWAP5 POP PUSH1 0xFF SWAP3 SWAP2 SWAP3 NOT AND DUP4 DUP4 ADD MSTORE ISZERO ISZERO PUSH1 0x5 SHL ADD ADD SWAP1 JUMP JUMPDEST SWAP1 PUSH1 0x1F DUP1 NOT SWAP2 ADD AND DUP2 ADD SWAP1 DUP2 LT PUSH8 0xFFFFFFFFFFFFFFFF DUP3 GT OR PUSH2 0x943 JUMPI PUSH1 0x40 MSTORE JUMP JUMPDEST PUSH4 0x4E487B71 PUSH1 0xE0 SHL PUSH0 MSTORE PUSH1 0x41 PUSH1 0x4 MSTORE PUSH1 0x24 PUSH0 REVERT JUMPDEST PUSH1 0x1 PUSH1 0x1 PUSH1 0xA0 SHL SUB AND SWAP1 DUP2 ISZERO PUSH2 0x561 JUMPI PUSH1 0x1 PUSH1 0x1 PUSH1 0xA0 SHL SUB AND SWAP2 DUP3 ISZERO PUSH2 0x603 JUMPI DUP2 PUSH0 MSTORE PUSH0 PUSH1 0x20 MSTORE PUSH1 0x40 PUSH0 KECCAK256 SLOAD DUP2 DUP2 LT PUSH2 0x9D5 JUMPI DUP2 PUSH32 0xDDF252AD1BE2C89B69C2B068FC378DAA952BA7F163C4A11628F55A4DF523B3EF SWAP3 PUSH1 0x20 SWAP3 DUP6 PUSH0 MSTORE PUSH0 DUP5 MSTORE SUB PUSH1 0x40 PUSH0 KECCAK256 SSTORE DUP5 PUSH0 MSTORE PUSH0 DUP3 MSTORE PUSH1 0x40 PUSH0 KECCAK256 DUP2 DUP2 SLOAD ADD SWAP1 SSTORE PUSH1 0x40 MLOAD SWAP1 DUP2 MSTORE LOG3 JUMP JUMPDEST DUP3 PUSH4 0x391434E3 PUSH1 0xE2 SHL PUSH0 MSTORE PUSH1 0x4 MSTORE PUSH1 0x24 MSTORE PUSH1 0x44 MSTORE PUSH1 0x64 PUSH0 REVERT JUMPDEST ADDRESS PUSH32 0x0 PUSH1 0x1 PUSH1 0x1 PUSH1 0xA0 SHL SUB AND EQ DUP1 PUSH2 0xAE1 JUMPI JUMPDEST ISZERO PUSH2 0xA49 JUMPI PUSH32 0x0 SWAP1 JUMP JUMPDEST PUSH1 0x40 MLOAD PUSH1 0x20 DUP2 ADD SWAP1 PUSH32 0x8B73C3C69BB8FE3D512ECC4CF759CC79239F7B179B0FFACAA9A75D522B39400F DUP3 MSTORE PUSH32 0x0 PUSH1 0x40 DUP3 ADD MSTORE PUSH32 0x0 PUSH1 0x60 DUP3 ADD MSTORE CHAINID PUSH1 0x80 DUP3 ADD MSTORE ADDRESS PUSH1 0xA0 DUP3 ADD MSTORE PUSH1 0xA0 DUP2 MSTORE PUSH2 0xADB PUSH1 0xC0 DUP3 PUSH2 0x921 JUMP JUMPDEST MLOAD SWAP1 KECCAK256 SWAP1 JUMP JUMPDEST POP PUSH32 0x0 CHAINID EQ PUSH2 0xA20 JUMP JUMPDEST PUSH1 0x1 PUSH1 0x1 PUSH1 0xA0 SHL SUB AND SWAP1 DUP2 ISZERO PUSH2 0x705 JUMPI PUSH1 0x1 PUSH1 0x1 PUSH1 0xA0 SHL SUB AND SWAP2 DUP3 ISZERO PUSH2 0x6F2 JUMPI PUSH1 0x20 PUSH32 0x8C5BE1E5EBEC7D5BD14F71427D1E84F3DD0314C0F7B2291E5B200AC8C7C3B925 SWAP2 DUP4 PUSH0 MSTORE PUSH1 0x1 DUP3 MSTORE PUSH1 0x40 PUSH0 KECCAK256 DUP6 PUSH0 MSTORE DUP3 MSTORE DUP1 PUSH1 0x40 PUSH0 KECCAK256 SSTORE PUSH1 0x40 MLOAD SWAP1 DUP2 MSTORE LOG3 JUMP JUMPDEST PUSH1 0xFF DUP2 EQ PUSH2 0xBB3 JUMPI PUSH1 0xFF DUP2 AND SWAP1 PUSH1 0x1F DUP3 GT PUSH2 0xBA4 JUMPI PUSH1 0x40 MLOAD SWAP2 PUSH2 0xB91 PUSH1 0x40 DUP5 PUSH2 0x921 JUMP JUMPDEST PUSH1 0x20 DUP1 DUP5 MSTORE DUP4 DUP2 ADD SWAP2 SWAP1 CALLDATASIZE DUP4 CALLDATACOPY DUP4 MSTORE MSTORE SWAP1 JUMP JUMPDEST PUSH4 0x2CD44AC3 PUSH1 0xE2 SHL PUSH0 MSTORE PUSH1 0x4 PUSH0 REVERT JUMPDEST POP PUSH1 0x40 MLOAD PUSH2 0xBCD DUP2 PUSH2 0xBC6 DUP2 PUSH1 0x5 PUSH2 0x8A0 JUMP JUMPDEST SUB DUP3 PUSH2 0x921 JUMP JUMPDEST SWAP1 JUMP JUMPDEST PUSH1 0xFF DUP2 EQ PUSH2 0xBF4 JUMPI PUSH1 0xFF DUP2 AND SWAP1 PUSH1 0x1F DUP3 GT PUSH2 0xBA4 JUMPI PUSH1 0x40 MLOAD SWAP2 PUSH2 0xB91 PUSH1 0x40 DUP5 PUSH2 0x921 JUMP JUMPDEST POP PUSH1 0x40 MLOAD PUSH2 0xBCD DUP2 PUSH2 0xBC6 DUP2 PUSH1 0x6 PUSH2 0x8A0 JUMP JUMPDEST SWAP2 SWAP1 PUSH32 0x7FFFFFFFFFFFFFFFFFFFFFFFFFFFFFFF5D576E7357A4501DDFE92F46681B20A0 DUP5 GT PUSH2 0xC89 JUMPI SWAP2 PUSH1 0x20 SWAP4 PUSH1 0x80 SWAP3 PUSH1 0xFF PUSH0 SWAP6 PUSH1 0x40 MLOAD SWAP5 DUP6 MSTORE AND DUP7 DUP5 ADD MSTORE PUSH1 0x40 DUP4 ADD MSTORE PUSH1 0x60 DUP3 ADD MSTORE DUP3 DUP1 MSTORE PUSH1 0x1 GAS STATICCALL ISZERO PUSH2 0xC7E JUMPI PUSH0 MLOAD PUSH1 0x1 PUSH1 0x1 PUSH1 0xA0 SHL SUB DUP2 AND ISZERO PUSH2 0xC74 JUMPI SWAP1 PUSH0 SWAP1 PUSH0 SWAP1 JUMP JUMPDEST POP PUSH0 SWAP1 PUSH1 0x1 SWAP1 PUSH0 SWAP1 JUMP JUMPDEST PUSH1 0x40 MLOAD RETURNDATASIZE PUSH0 DUP3 RETURNDATACOPY RETURNDATASIZE SWAP1 REVERT JUMPDEST POP POP POP PUSH0 SWAP2 PUSH1 0x3 SWAP2 SWAP1 JUMP JUMPDEST PUSH1 0x4 DUP2 LT ISZERO PUSH2 0xCF4 JUMPI DUP1 PUSH2 0xCA6 JUMPI POP POP JUMP JUMPDEST PUSH1 0x1 DUP2 SUB PUSH2 0xCBD JUMPI PUSH4 0xF645EEDF PUSH1 0xE0 SHL PUSH0 MSTORE PUSH1 0x4 PUSH0 REVERT JUMPDEST PUSH1 0x2 DUP2 SUB PUSH2 0xCD8 JUMPI POP PUSH4 0xFCE698F7 PUSH1 0xE0 SHL PUSH0 MSTORE PUSH1 0x4 MSTORE PUSH1 0x24 PUSH0 REVERT JUMPDEST PUSH1 0x3 EQ PUSH2 0xCE2 JUMPI POP JUMP JUMPDEST PUSH4 0x35E2F383 PUSH1 0xE2 SHL PUSH0 MSTORE PUSH1 0x4 MSTORE PUSH1 0x24 PUSH0 REVERT JUMPDEST PUSH4 0x4E487B71 PUSH1 0xE0 SHL PUSH0 MSTORE PUSH1 0x21 PUSH1 0x4 MSTORE PUSH1 0x24 PUSH0 REVERT INVALID LOG2 PUSH5 0x6970667358 0x22 SLT KECCAK256 0xFB SWAP14 0xCA ISZERO 0xC6 0xE0 0xC6 0x4F SWAP1 GASPRICE SWAP2 CALLDATACOPY PUSH9 0xFF079E803838F0B288 DUP4 0x2A SDIV 0xB8 0xA5 0x22 DUP4 DUP1 MSIZE 0x4F PUSH5 0x736F6C6343 STOP ADDMOD BYTE STOP CALLER "
				},
				"gasEstimates": {
					"creation": {
						"codeDepositCost": "678000",
						"executionCost": "infinite",
						"totalCost": "infinite"
					},
					"external": {
						"DOMAIN_SEPARATOR()": "infinite",
						"allowance(address,address)": "2878",
						"approve(address,uint256)": "24372",
						"balanceOf(address)": "2581",
						"burn(uint256)": "50671",
						"decimals()": "241",
						"eip712Domain()": "infinite",
						"mint(address,uint256)": "50687",
						"name()": "infinite",
						"nonces(address)": "2604",
						"permit(address,address,uint256,uint256,uint8,bytes32,bytes32)": "infinite",
						"symbol()": "infinite",
						"totalSupply()": "2300",
						"transfer(address,uint256)": "51018",
						"transferFrom(address,address,uint256)": "75527"
					}
				},
				"methodIdentifiers": {
					"DOMAIN_SEPARATOR()": "3644e515",
					"allowance(address,address)": "dd62ed3e",
					"approve(address,uint256)": "095ea7b3",
					"balanceOf(address)": "70a08231",
					"burn(uint256)": "42966c68",
					"decimals()": "313ce567",
					"eip712Domain()": "84b0196e",
					"mint(address,uint256)": "40c10f19",
					"name()": "06fdde03",
					"nonces(address)": "7ecebe00",
					"permit(address,address,uint256,uint256,uint8,bytes32,bytes32)": "d505accf",
					"symbol()": "95d89b41",
					"totalSupply()": "18160ddd",
					"transfer(address,uint256)": "a9059cbb",
					"transferFrom(address,address,uint256)": "23b872dd"
				}
			},
			"storageLayout": {
				"storage": [
					{
						"astId": 184,
						"contract": "contracts/contracts/tokens/MockTokenCreator.sol:MockTokenCreator",
						"label": "_balances",
						"offset": 0,
						"slot": "0",
						"type": "t_mapping(t_address,t_uint256)"
					},
					{
						"astId": 190,
						"contract": "contracts/contracts/tokens/MockTokenCreator.sol:MockTokenCreator",
						"label": "_allowances",
						"offset": 0,
						"slot": "1",
						"type": "t_mapping(t_address,t_mapping(t_address,t_uint256))"
					},
					{
						"astId": 192,
						"contract": "contracts/contracts/tokens/MockTokenCreator.sol:MockTokenCreator",
						"label": "_totalSupply",
						"offset": 0,
						"slot": "2",
						"type": "t_uint256"
					},
					{
						"astId": 194,
						"contract": "contracts/contracts/tokens/MockTokenCreator.sol:MockTokenCreator",
						"label": "_name",
						"offset": 0,
						"slot": "3",
						"type": "t_string_storage"
					},
					{
						"astId": 196,
						"contract": "contracts/contracts/tokens/MockTokenCreator.sol:MockTokenCreator",
						"label": "_symbol",
						"offset": 0,
						"slot": "4",
						"type": "t_string_storage"
					},
					{
						"astId": 2104,
						"contract": "contracts/contracts/tokens/MockTokenCreator.sol:MockTokenCreator",
						"label": "_nameFallback",
						"offset": 0,
						"slot": "5",
						"type": "t_string_storage"
					},
					{
						"astId": 2106,
						"contract": "contracts/contracts/tokens/MockTokenCreator.sol:MockTokenCreator",
						"label": "_versionFallback",
						"offset": 0,
						"slot": "6",
						"type": "t_string_storage"
					},
					{
						"astId": 1014,
						"contract": "contracts/contracts/tokens/MockTokenCreator.sol:MockTokenCreator",
						"label": "_nonces",
						"offset": 0,
						"slot": "7",
						"type": "t_mapping(t_address,t_uint256)"
					}
				],
				"types": {
					"t_address": {
						"encoding": "inplace",
						"label": "address",
						"numberOfBytes": "20"
					},
					"t_mapping(t_address,t_mapping(t_address,t_uint256))": {
						"encoding": "mapping",
						"key": "t_address",
						"label": "mapping(address => mapping(address => uint256))",
						"numberOfBytes": "32",
						"value": "t_mapping(t_address,t_uint256)"
					},
					"t_mapping(t_address,t_uint256)": {
						"encoding": "mapping",
						"key": "t_address",
						"label": "mapping(address => uint256)",
						"numberOfBytes": "32",
						"value": "t_uint256"
					},
					"t_string_storage": {
						"encoding": "bytes",
						"label": "string",
						"numberOfBytes": "32"
					},
					"t_uint256": {
						"encoding": "inplace",
						"label": "uint256",
						"numberOfBytes": "32"
					}
				}
			},
			"userdoc": {
				"kind": "user",
				"methods": {
					"burn(uint256)": {
						"notice": "Burns `amount` tokens from the caller’s account."
					},
					"mint(address,uint256)": {
						"notice": "Mints `amount` tokens to address `to`."
					}
				},
				"version": 1
			}
		}
	}
}