{
	"contracts/contracts/lib/FlashPoolRewardManager.sol": {
		"FlashPoolRewardManager": {
			"abi": [
				{
					"inputs": [
						{
							"internalType": "address",
							"name": "_apyManager",
							"type": "address"
						}
					],
					"stateMutability": "nonpayable",
					"type": "constructor"
				},
				{
					"inputs": [],
					"name": "ReentrancyGuardReentrantCall",
					"type": "error"
				},
				{
					"anonymous": false,
					"inputs": [
						{
							"indexed": true,
							"internalType": "address",
							"name": "pool",
							"type": "address"
						}
					],
					"name": "PoolDeregistered",
					"type": "event"
				},
				{
					"anonymous": false,
					"inputs": [
						{
							"indexed": true,
							"internalType": "address",
							"name": "pool",
							"type": "address"
						}
					],
					"name": "PoolRegistered",
					"type": "event"
				},
				{
					"anonymous": false,
					"inputs": [
						{
							"indexed": true,
							"internalType": "address",
							"name": "pool",
							"type": "address"
						},
						{
							"indexed": false,
							"internalType": "uint256",
							"name": "reward",
							"type": "uint256"
						}
					],
					"name": "RewardAccrued",
					"type": "event"
				},
				{
					"anonymous": false,
					"inputs": [
						{
							"indexed": true,
							"internalType": "address",
							"name": "pool",
							"type": "address"
						},
						{
							"indexed": false,
							"internalType": "address",
							"name": "claimant",
							"type": "address"
						},
						{
							"indexed": false,
							"internalType": "uint256",
							"name": "reward",
							"type": "uint256"
						}
					],
					"name": "RewardClaimed",
					"type": "event"
				},
				{
					"inputs": [
						{
							"internalType": "address",
							"name": "pool",
							"type": "address"
						}
					],
					"name": "accrueRewards",
					"outputs": [],
					"stateMutability": "nonpayable",
					"type": "function"
				},
				{
					"inputs": [],
					"name": "apyManager",
					"outputs": [
						{
							"internalType": "contract IAdvancedAPYManager",
							"name": "",
							"type": "address"
						}
					],
					"stateMutability": "view",
					"type": "function"
				},
				{
					"inputs": [
						{
							"internalType": "address",
							"name": "pool",
							"type": "address"
						}
					],
					"name": "calculateClaimableInterest",
					"outputs": [
						{
							"internalType": "uint256",
							"name": "",
							"type": "uint256"
						}
					],
					"stateMutability": "view",
					"type": "function"
				},
				{
					"inputs": [
						{
							"internalType": "address",
							"name": "pool",
							"type": "address"
						}
					],
					"name": "claimRewards",
					"outputs": [],
					"stateMutability": "nonpayable",
					"type": "function"
				},
				{
					"inputs": [
						{
							"internalType": "address",
							"name": "pool",
							"type": "address"
						}
					],
					"name": "deregisterPool",
					"outputs": [],
					"stateMutability": "nonpayable",
					"type": "function"
				},
				{
					"inputs": [
						{
							"internalType": "address",
							"name": "pool",
							"type": "address"
						}
					],
					"name": "getRewardDetails",
					"outputs": [
						{
							"internalType": "address",
							"name": "rewardToken",
							"type": "address"
						},
						{
							"internalType": "uint256",
							"name": "rewardsAccrued",
							"type": "uint256"
						},
						{
							"internalType": "uint256",
							"name": "lastRewardBlock",
							"type": "uint256"
						},
						{
							"internalType": "uint256",
							"name": "rewardRate",
							"type": "uint256"
						},
						{
							"internalType": "uint256",
							"name": "lenderClaimedRewards",
							"type": "uint256"
						},
						{
							"internalType": "bool",
							"name": "isAccruing",
							"type": "bool"
						}
					],
					"stateMutability": "view",
					"type": "function"
				},
				{
					"inputs": [
						{
							"internalType": "address",
							"name": "pool",
							"type": "address"
						},
						{
							"internalType": "address",
							"name": "rewardToken",
							"type": "address"
						}
					],
					"name": "registerPool",
					"outputs": [],
					"stateMutability": "nonpayable",
					"type": "function"
				},
				{
					"inputs": [
						{
							"internalType": "address",
							"name": "",
							"type": "address"
						}
					],
					"name": "rewardDetails",
					"outputs": [
						{
							"internalType": "contract IERC20",
							"name": "rewardToken",
							"type": "address"
						},
						{
							"internalType": "uint256",
							"name": "rewardsAccrued",
							"type": "uint256"
						},
						{
							"internalType": "uint256",
							"name": "lastRewardBlock",
							"type": "uint256"
						},
						{
							"internalType": "uint256",
							"name": "rewardRate",
							"type": "uint256"
						},
						{
							"internalType": "uint256",
							"name": "lenderClaimedRewards",
							"type": "uint256"
						},
						{
							"internalType": "bool",
							"name": "isAccruing",
							"type": "bool"
						}
					],
					"stateMutability": "view",
					"type": "function"
				}
			],
			"devdoc": {
				"details": "Manages dynamic rewards specifically for flash loan pools, incorporating APY adjustments. This contract handles the allocation, accrual, and claiming of rewards based on loan activities.",
				"errors": {
					"ReentrancyGuardReentrantCall()": [
						{
							"details": "Unauthorized reentrant call."
						}
					]
				},
				"kind": "dev",
				"methods": {
					"accrueRewards(address)": {
						"params": {
							"pool": "The address of the pool for which to accrue rewards."
						}
					},
					"calculateClaimableInterest(address)": {
						"params": {
							"pool": "The address of the pool."
						},
						"returns": {
							"_0": "uint256 The amount of interest that can be claimed."
						}
					},
					"claimRewards(address)": {
						"params": {
							"pool": "The address of the flash pool."
						}
					},
					"constructor": {
						"params": {
							"_apyManager": "The address of the APYManager contract."
						}
					},
					"deregisterPool(address)": {
						"params": {
							"pool": "The address of the pool to deregister."
						}
					},
					"getRewardDetails(address)": {
						"params": {
							"pool": "The address of the pool."
						},
						"returns": {
							"isAccruing": "Flag to indicate if the pool is accruing rewards.",
							"lastRewardBlock": "Last block number when rewards were calculated.",
							"lenderClaimedRewards": "Amount of rewards claimed by the lender.",
							"rewardRate": "Dynamic reward rate based on APY.",
							"rewardToken": "The token used for rewards.",
							"rewardsAccrued": "Total accrued rewards."
						}
					},
					"registerPool(address,address)": {
						"params": {
							"pool": "The address of the pool to register.",
							"rewardToken": "The ERC20 token used as the reward token."
						}
					}
				},
				"title": "FlashPoolRewardManager",
				"version": 1
			},
			"evm": {
				"assembly": "    /* \"contracts/contracts/lib/FlashPoolRewardManager.sol\":570:6457  contract FlashPoolRewardManager is ReentrancyGuard, IFlashPoolRewardManager {... */\n  0x80\n  jumpi(tag_7, callvalue)\n  0x1f\n  bytecodeSize\n  codesize\n  dup2\n  swap1\n  sub\n  swap2\n  dup3\n  add\n  not(0x1f)\n  and\n  dup4\n  add\n  swap2\n  sub(shl(0x40, 0x01), 0x01)\n  dup4\n  gt\n  dup5\n  dup5\n  lt\n  or\n  tag_3\n  jumpi\n  dup1\n  dup5\n  swap3\n  0x20\n  swap5\n  0x40\n  mstore\n  dup4\n  codecopy\n  dup2\n  add\n  sub\n  slt\n  tag_7\n  jumpi\n  mload\n  sub(shl(0xa0, 0x01), 0x01)\n  dup2\n  and\n  swap1\n  dup2\n  swap1\n  sub\n  tag_7\n  jumpi\n    /* \"@openzeppelin/contracts/utils/ReentrancyGuard.sol\":1713:1714  1 */\n  sstore(0x00, 0x01)\n    /* \"contracts/contracts/lib/FlashPoolRewardManager.sol\":1843:1868  _apyManager != address(0) */\n  dup1\n  iszero\n    /* \"contracts/contracts/lib/FlashPoolRewardManager.sol\":570:6457  contract FlashPoolRewardManager is ReentrancyGuard, IFlashPoolRewardManager {... */\n  tag_9\n  jumpi\n  0x01\n  dup1\n  sload\n  not(sub(shl(0xa0, 0x01), 0x01))\n  and\n  swap2\n  swap1\n  swap2\n  or\n  swap1\n  sstore\n  mload(0x40)\n  dataSize(sub_0)\n  swap1\n  dup2\n  dataOffset(sub_0)\n  dup3\n  codecopy\n  return\ntag_9:\n  mload(0x40)\n  shl(0xe5, 0x461bcd)\n  dup2\n  mstore\n  0x20\n  0x04\n  dup3\n  add\n  mstore\n  0x1b\n  0x24\n  dup3\n  add\n  mstore\n  0x496e76616c696420415059206d616e6167657220616464726573730000000000\n  0x44\n  dup3\n  add\n  mstore\n  0x64\n  swap1\n  revert\ntag_7:\n  0x00\n  dup1\n  revert\ntag_3:\n  mstore(0x00, shl(0xe0, 0x4e487b71))\n  mstore(0x04, 0x41)\n  revert(0x00, 0x24)\nstop\n\nsub_0: assembly {\n        /* \"contracts/contracts/lib/FlashPoolRewardManager.sol\":570:6457  contract FlashPoolRewardManager is ReentrancyGuard, IFlashPoolRewardManager {... */\n      0x80\n      dup1\n      0x40\n      mstore\n      jumpi(tag_8, iszero(lt(calldatasize, 0x04)))\n      0x00\n      dup1\n      revert\n    tag_8:\n      0x00\n      swap1\n      shr(0xe0, calldataload(0x00))\n      swap1\n      dup2\n      0x01ec2d03\n      eq\n      tag_10\n      jumpi\n      pop\n      dup1\n      0x3d39955c\n      eq\n      tag_12\n      jumpi\n      dup1\n      0x51b2d521\n      eq\n      tag_14\n      jumpi\n      dup1\n      0x7286e5e5\n      eq\n      tag_16\n      jumpi\n      dup1\n      0x7e72c7d7\n      eq\n      tag_18\n      jumpi\n      dup1\n      0xcf172403\n      eq\n      tag_22\n      jumpi\n      dup1\n      0xd919007e\n      eq\n      tag_22\n      jumpi\n      0xef5cfb8c\n      eq\n      tag_24\n      jumpi\n      0x00\n      dup1\n      revert\n    tag_24:\n      jumpi(tag_38, callvalue)\n      jumpi(tag_38, slt(add(not(0x03), calldatasize), 0x20))\n      tag_30\n      tag_1\n      jump\t// in\n    tag_30:\n        /* \"@openzeppelin/contracts/utils/ReentrancyGuard.sol\":1755:1756  2 */\n      0x02\n        /* \"contracts/contracts/lib/FlashPoolRewardManager.sol\":570:6457  contract FlashPoolRewardManager is ReentrancyGuard, IFlashPoolRewardManager {... */\n      sload(0x00)\n        /* \"@openzeppelin/contracts/utils/ReentrancyGuard.sol\":2558:2576  _status == ENTERED */\n      eq\n        /* \"@openzeppelin/contracts/utils/ReentrancyGuard.sol\":2554:2640  if (_status == ENTERED) {... */\n      tag_31\n      jumpi\n        /* \"@openzeppelin/contracts/utils/ReentrancyGuard.sol\":1755:1756  2 */\n      0x02\n        /* \"contracts/contracts/lib/FlashPoolRewardManager.sol\":570:6457  contract FlashPoolRewardManager is ReentrancyGuard, IFlashPoolRewardManager {... */\n      0x00\n      sstore\n        /* \"contracts/contracts/lib/FlashPoolRewardManager.sol\":3020:3024  pool */\n      tag_33\n      dup2\n      tag_5\n      jump\t// in\n    tag_33:\n      sub(shl(0xa0, 0x01), 0x01)\n        /* \"contracts/contracts/lib/FlashPoolRewardManager.sol\":570:6457  contract FlashPoolRewardManager is ReentrancyGuard, IFlashPoolRewardManager {... */\n      and\n      0x00\n      dup2\n      dup2\n      mstore\n        /* \"@openzeppelin/contracts/utils/ReentrancyGuard.sol\":1755:1756  2 */\n      0x02\n        /* \"contracts/contracts/lib/FlashPoolRewardManager.sol\":570:6457  contract FlashPoolRewardManager is ReentrancyGuard, IFlashPoolRewardManager {... */\n      0x20\n      mstore\n      0x40\n      swap1\n      keccak256\n      0x01\n        /* \"contracts/contracts/lib/FlashPoolRewardManager.sol\":3127:3149  details.rewardsAccrued */\n      dup2\n      add\n        /* \"contracts/contracts/lib/FlashPoolRewardManager.sol\":570:6457  contract FlashPoolRewardManager is ReentrancyGuard, IFlashPoolRewardManager {... */\n      sload\n      0x04\n        /* \"contracts/contracts/lib/FlashPoolRewardManager.sol\":3152:3180  details.lenderClaimedRewards */\n      dup3\n      add\n        /* \"contracts/contracts/lib/FlashPoolRewardManager.sol\":570:6457  contract FlashPoolRewardManager is ReentrancyGuard, IFlashPoolRewardManager {... */\n      dup1\n      sload\n      swap3\n      swap2\n        /* \"contracts/contracts/lib/FlashPoolRewardManager.sol\":3127:3180  details.rewardsAccrued - details.lenderClaimedRewards */\n      tag_34\n      swap1\n        /* \"contracts/contracts/lib/FlashPoolRewardManager.sol\":570:6457  contract FlashPoolRewardManager is ReentrancyGuard, IFlashPoolRewardManager {... */\n      dup5\n      swap1\n        /* \"contracts/contracts/lib/FlashPoolRewardManager.sol\":3127:3180  details.rewardsAccrued - details.lenderClaimedRewards */\n      tag_2\n      jump\t// in\n    tag_34:\n        /* \"contracts/contracts/lib/FlashPoolRewardManager.sol\":3201:3221  claimableRewards > 0 */\n      swap3\n      dup4\n      iszero\n        /* \"contracts/contracts/lib/FlashPoolRewardManager.sol\":570:6457  contract FlashPoolRewardManager is ReentrancyGuard, IFlashPoolRewardManager {... */\n      tag_35\n      jumpi\n        /* \"contracts/contracts/lib/FlashPoolRewardManager.sol\":3258:3306  details.lenderClaimedRewards += claimableRewards */\n      dup4\n      tag_37\n      swap2\n      tag_4\n      jump\t// in\n    tag_37:\n        /* \"contracts/contracts/lib/FlashPoolRewardManager.sol\":570:6457  contract FlashPoolRewardManager is ReentrancyGuard, IFlashPoolRewardManager {... */\n      swap1\n      sstore\n      sload\n      sub(shl(0xa0, 0x01), 0x01)\n      and\n        /* \"contracts/contracts/lib/FlashPoolRewardManager.sol\":3319:3437  MockTokenCreator(address(details.rewardToken)).mint(... */\n      dup1\n      extcodesize\n      iszero\n      tag_38\n      jumpi\n        /* \"contracts/contracts/lib/FlashPoolRewardManager.sol\":570:6457  contract FlashPoolRewardManager is ReentrancyGuard, IFlashPoolRewardManager {... */\n      mload(0x40)\n      shl(0xe0, 0x40c10f19)\n        /* \"contracts/contracts/lib/FlashPoolRewardManager.sol\":3319:3437  MockTokenCreator(address(details.rewardToken)).mint(... */\n      dup2\n      mstore\n        /* \"contracts/contracts/lib/FlashPoolRewardManager.sol\":3385:3395  msg.sender */\n      caller\n        /* \"contracts/contracts/lib/FlashPoolRewardManager.sol\":570:6457  contract FlashPoolRewardManager is ReentrancyGuard, IFlashPoolRewardManager {... */\n      0x04\n        /* \"contracts/contracts/lib/FlashPoolRewardManager.sol\":3319:3437  MockTokenCreator(address(details.rewardToken)).mint(... */\n      dup3\n      add\n        /* \"contracts/contracts/lib/FlashPoolRewardManager.sol\":570:6457  contract FlashPoolRewardManager is ReentrancyGuard, IFlashPoolRewardManager {... */\n      mstore\n      0x24\n      dup2\n      add\n      dup4\n      swap1\n      mstore\n      swap1\n      0x00\n      swap1\n      dup3\n      swap1\n      0x44\n      swap1\n      dup3\n      swap1\n      dup5\n      swap1\n        /* \"contracts/contracts/lib/FlashPoolRewardManager.sol\":3319:3437  MockTokenCreator(address(details.rewardToken)).mint(... */\n      gas\n      call\n      dup1\n      iszero\n      tag_41\n      jumpi\n      tag_43\n      jumpi\n        /* \"contracts/contracts/lib/FlashPoolRewardManager.sol\":570:6457  contract FlashPoolRewardManager is ReentrancyGuard, IFlashPoolRewardManager {... */\n    tag_44:\n      pop\n      0x40\n      dup1\n      mload\n        /* \"contracts/contracts/lib/FlashPoolRewardManager.sol\":3385:3395  msg.sender */\n      caller\n        /* \"contracts/contracts/lib/FlashPoolRewardManager.sol\":570:6457  contract FlashPoolRewardManager is ReentrancyGuard, IFlashPoolRewardManager {... */\n      dup2\n      mstore\n      0x20\n      dup2\n      add\n      swap3\n      swap1\n      swap3\n      mstore\n        /* \"contracts/contracts/lib/FlashPoolRewardManager.sol\":3453:3502  RewardClaimed(pool, msg.sender, claimableRewards) */\n      0x0aa4d283470c904c551d18bb894d37e17674920f3261a7f854be501e25f421b7\n      swap2\n        /* \"contracts/contracts/lib/FlashPoolRewardManager.sol\":570:6457  contract FlashPoolRewardManager is ReentrancyGuard, IFlashPoolRewardManager {... */\n      swap1\n      dup2\n      swap1\n      dup2\n      add\n        /* \"contracts/contracts/lib/FlashPoolRewardManager.sol\":3453:3502  RewardClaimed(pool, msg.sender, claimableRewards) */\n    tag_45:\n      sub\n      swap1\n      log2\n        /* \"contracts/contracts/lib/FlashPoolRewardManager.sol\":3127:3149  details.rewardsAccrued */\n      0x01\n        /* \"contracts/contracts/lib/FlashPoolRewardManager.sol\":570:6457  contract FlashPoolRewardManager is ReentrancyGuard, IFlashPoolRewardManager {... */\n      dup2\n      sstore\n      dup1\n      return\n        /* \"contracts/contracts/lib/FlashPoolRewardManager.sol\":3319:3437  MockTokenCreator(address(details.rewardToken)).mint(... */\n    tag_43:\n      tag_46\n      swap2\n      swap4\n      pop\n        /* \"contracts/contracts/lib/FlashPoolRewardManager.sol\":570:6457  contract FlashPoolRewardManager is ReentrancyGuard, IFlashPoolRewardManager {... */\n      0x00\n        /* \"contracts/contracts/lib/FlashPoolRewardManager.sol\":3319:3437  MockTokenCreator(address(details.rewardToken)).mint(... */\n      swap1\n      tag_6\n      jump\t// in\n    tag_46:\n        /* \"contracts/contracts/lib/FlashPoolRewardManager.sol\":570:6457  contract FlashPoolRewardManager is ReentrancyGuard, IFlashPoolRewardManager {... */\n      0x00\n      swap2\n        /* \"contracts/contracts/lib/FlashPoolRewardManager.sol\":3453:3502  RewardClaimed(pool, msg.sender, claimableRewards) */\n      tag_45\n        /* \"contracts/contracts/lib/FlashPoolRewardManager.sol\":3319:3437  MockTokenCreator(address(details.rewardToken)).mint(... */\n      jump(tag_44)\n    tag_41:\n        /* \"contracts/contracts/lib/FlashPoolRewardManager.sol\":570:6457  contract FlashPoolRewardManager is ReentrancyGuard, IFlashPoolRewardManager {... */\n      mload(0x40)\n      returndatasize\n      0x00\n      dup3\n      returndatacopy\n      returndatasize\n      swap1\n      revert\n        /* \"contracts/contracts/lib/FlashPoolRewardManager.sol\":3319:3437  MockTokenCreator(address(details.rewardToken)).mint(... */\n    tag_38:\n        /* \"contracts/contracts/lib/FlashPoolRewardManager.sol\":570:6457  contract FlashPoolRewardManager is ReentrancyGuard, IFlashPoolRewardManager {... */\n      0x00\n      dup1\n      revert\n    tag_35:\n      mload(0x40)\n      shl(0xe5, 0x461bcd)\n      dup2\n      mstore\n      0x20\n      0x04\n      dup3\n      add\n      mstore\n      0x13\n      0x24\n      dup3\n      add\n      mstore\n      shl(0x68, 0x4e6f207265776172647320746f20636c61696d)\n      0x44\n      dup3\n      add\n      mstore\n      0x64\n      swap1\n      revert\n        /* \"@openzeppelin/contracts/utils/ReentrancyGuard.sol\":2554:2640  if (_status == ENTERED) {... */\n    tag_31:\n        /* \"@openzeppelin/contracts/utils/ReentrancyGuard.sol\":2599:2629  ReentrancyGuardReentrantCall() */\n      shl(0xe0, 0x3ee5aeb5)\n        /* \"contracts/contracts/lib/FlashPoolRewardManager.sol\":570:6457  contract FlashPoolRewardManager is ReentrancyGuard, IFlashPoolRewardManager {... */\n      0x00\n        /* \"@openzeppelin/contracts/utils/ReentrancyGuard.sol\":2599:2629  ReentrancyGuardReentrantCall() */\n      mstore\n        /* \"contracts/contracts/lib/FlashPoolRewardManager.sol\":570:6457  contract FlashPoolRewardManager is ReentrancyGuard, IFlashPoolRewardManager {... */\n      0x04\n      0x00\n        /* \"@openzeppelin/contracts/utils/ReentrancyGuard.sol\":2599:2629  ReentrancyGuardReentrantCall() */\n      revert\n        /* \"contracts/contracts/lib/FlashPoolRewardManager.sol\":570:6457  contract FlashPoolRewardManager is ReentrancyGuard, IFlashPoolRewardManager {... */\n    tag_22:\n      jumpi(tag_38, callvalue)\n      jumpi(tag_38, slt(add(not(0x03), calldatasize), 0x20))\n      sub(shl(0xa0, 0x01), 0x01)\n      tag_51\n      tag_1\n      jump\t// in\n    tag_51:\n      and\n      0x00\n      mstore\n        /* \"contracts/contracts/lib/FlashPoolRewardManager.sol\":6171:6184  rewardDetails */\n      0x02\n        /* \"contracts/contracts/lib/FlashPoolRewardManager.sol\":570:6457  contract FlashPoolRewardManager is ReentrancyGuard, IFlashPoolRewardManager {... */\n      0x20\n      mstore\n      0xc0\n      keccak256(0x00, 0x40)\n      0x01\n      dup1\n      0xa0\n      shl\n      sub\n      dup2\n      sload\n      and\n        /* \"contracts/contracts/lib/FlashPoolRewardManager.sol\":6266:6288  details.rewardsAccrued */\n      swap1\n      0x01\n      dup2\n      add\n        /* \"contracts/contracts/lib/FlashPoolRewardManager.sol\":570:6457  contract FlashPoolRewardManager is ReentrancyGuard, IFlashPoolRewardManager {... */\n      sload\n        /* \"contracts/contracts/lib/FlashPoolRewardManager.sol\":6303:6326  details.lastRewardBlock */\n      swap1\n        /* \"contracts/contracts/lib/FlashPoolRewardManager.sol\":6171:6184  rewardDetails */\n      0x02\n        /* \"contracts/contracts/lib/FlashPoolRewardManager.sol\":6303:6326  details.lastRewardBlock */\n      dup2\n      add\n        /* \"contracts/contracts/lib/FlashPoolRewardManager.sol\":570:6457  contract FlashPoolRewardManager is ReentrancyGuard, IFlashPoolRewardManager {... */\n      sload\n        /* \"contracts/contracts/lib/FlashPoolRewardManager.sol\":6341:6359  details.rewardRate */\n      0x03\n      dup3\n      add\n        /* \"contracts/contracts/lib/FlashPoolRewardManager.sol\":570:6457  contract FlashPoolRewardManager is ReentrancyGuard, IFlashPoolRewardManager {... */\n      sload\n        /* \"contracts/contracts/lib/FlashPoolRewardManager.sol\":6374:6402  details.lenderClaimedRewards */\n      swap1\n        /* \"contracts/contracts/lib/FlashPoolRewardManager.sol\":570:6457  contract FlashPoolRewardManager is ReentrancyGuard, IFlashPoolRewardManager {... */\n      0xff\n        /* \"contracts/contracts/lib/FlashPoolRewardManager.sol\":6417:6435  details.isAccruing */\n      0x05\n        /* \"contracts/contracts/lib/FlashPoolRewardManager.sol\":570:6457  contract FlashPoolRewardManager is ReentrancyGuard, IFlashPoolRewardManager {... */\n      0x04\n        /* \"contracts/contracts/lib/FlashPoolRewardManager.sol\":6374:6402  details.lenderClaimedRewards */\n      dup6\n      add\n        /* \"contracts/contracts/lib/FlashPoolRewardManager.sol\":570:6457  contract FlashPoolRewardManager is ReentrancyGuard, IFlashPoolRewardManager {... */\n      sload\n        /* \"contracts/contracts/lib/FlashPoolRewardManager.sol\":6417:6435  details.isAccruing */\n      swap5\n      add\n        /* \"contracts/contracts/lib/FlashPoolRewardManager.sol\":570:6457  contract FlashPoolRewardManager is ReentrancyGuard, IFlashPoolRewardManager {... */\n      sload\n      and\n      swap4\n      mload(0x40)\n      swap6\n      dup7\n      mstore\n      0x20\n      dup7\n      add\n      mstore\n      0x40\n      dup6\n      add\n      mstore\n      0x60\n      dup5\n      add\n      mstore\n      0x80\n      dup4\n      add\n      mstore\n      iszero\n      iszero\n      0xa0\n      dup3\n      add\n      mstore\n      return\n    tag_18:\n      jumpi(tag_38, callvalue)\n      jumpi(tag_38, slt(add(not(0x03), calldatasize), 0x20))\n      sub(shl(0xa0, 0x01), 0x01)\n      tag_61\n      tag_1\n      jump\t// in\n    tag_61:\n      and\n        /* \"contracts/contracts/lib/FlashPoolRewardManager.sol\":5122:5140  pool != address(0) */\n      dup1\n      iszero\n        /* \"contracts/contracts/lib/FlashPoolRewardManager.sol\":570:6457  contract FlashPoolRewardManager is ReentrancyGuard, IFlashPoolRewardManager {... */\n      tag_62\n      jumpi\n      dup1\n      0x00\n      mstore\n        /* \"contracts/contracts/lib/FlashPoolRewardManager.sol\":5183:5196  rewardDetails */\n      0x02\n        /* \"contracts/contracts/lib/FlashPoolRewardManager.sol\":570:6457  contract FlashPoolRewardManager is ReentrancyGuard, IFlashPoolRewardManager {... */\n      0x20\n      mstore\n      0x00\n      0x05\n      0x40\n      dup3\n      keccak256\n      dup3\n      dup2\n      sstore\n      dup3\n      0x01\n      dup3\n      add\n      sstore\n      dup3\n        /* \"contracts/contracts/lib/FlashPoolRewardManager.sol\":5183:5196  rewardDetails */\n      0x02\n        /* \"contracts/contracts/lib/FlashPoolRewardManager.sol\":570:6457  contract FlashPoolRewardManager is ReentrancyGuard, IFlashPoolRewardManager {... */\n      dup3\n      add\n      sstore\n      dup3\n      0x03\n      dup3\n      add\n      sstore\n      dup3\n      0x04\n      dup3\n      add\n      sstore\n      add\n      sstore\n        /* \"contracts/contracts/lib/FlashPoolRewardManager.sol\":5218:5240  PoolDeregistered(pool) */\n      0x334d0b2111287dfddebe4b4c1c5af3ae644909d7fcd024377bf601e236ed5abb\n        /* \"contracts/contracts/lib/FlashPoolRewardManager.sol\":570:6457  contract FlashPoolRewardManager is ReentrancyGuard, IFlashPoolRewardManager {... */\n      0x00\n        /* \"contracts/contracts/lib/FlashPoolRewardManager.sol\":5218:5240  PoolDeregistered(pool) */\n      dup1\n      log2\n        /* \"contracts/contracts/lib/FlashPoolRewardManager.sol\":570:6457  contract FlashPoolRewardManager is ReentrancyGuard, IFlashPoolRewardManager {... */\n      stop\n    tag_62:\n      mload(0x40)\n      shl(0xe5, 0x461bcd)\n      dup2\n      mstore\n      0x20\n      0x04\n      dup3\n      add\n      mstore\n      0x14\n      0x24\n      dup3\n      add\n      mstore\n      shl(0x60, 0x496e76616c696420706f6f6c2061646472657373)\n      0x44\n      dup3\n      add\n      mstore\n      0x64\n      swap1\n      revert\n    tag_16:\n      jumpi(tag_38, callvalue)\n      jumpi(tag_38, slt(add(not(0x03), calldatasize), 0x40))\n      tag_68\n      tag_1\n      jump\t// in\n    tag_68:\n      calldataload(0x24)\n      sub(shl(0xa0, 0x01), 0x01)\n      dup2\n      and\n      swap2\n      swap1\n      dup3\n      swap1\n      sub\n      tag_38\n      jumpi\n      sub(shl(0xa0, 0x01), 0x01)\n      and\n      swap1\n        /* \"contracts/contracts/lib/FlashPoolRewardManager.sol\":2305:2323  pool != address(0) */\n      dup2\n      iszero\n      iszero\n      dup1\n        /* \"contracts/contracts/lib/FlashPoolRewardManager.sol\":2305:2352  pool != address(0) && rewardToken != address(0) */\n      tag_71\n      jumpi\n        /* \"contracts/contracts/lib/FlashPoolRewardManager.sol\":570:6457  contract FlashPoolRewardManager is ReentrancyGuard, IFlashPoolRewardManager {... */\n    tag_72:\n      iszero\n      tag_73\n      jumpi\n      sload(0x01)\n      mload(0x40)\n      shl(0xe1, 0x4b16524b)\n        /* \"contracts/contracts/lib/FlashPoolRewardManager.sol\":2571:2597  apyManager.getCurrentAPY() */\n      dup2\n      mstore\n        /* \"contracts/contracts/lib/FlashPoolRewardManager.sol\":570:6457  contract FlashPoolRewardManager is ReentrancyGuard, IFlashPoolRewardManager {... */\n      swap2\n      swap1\n      0x20\n      swap1\n      dup4\n      swap1\n      0x04\n      swap1\n      dup3\n      swap1\n      sub(shl(0xa0, 0x01), 0x01)\n      and\n        /* \"contracts/contracts/lib/FlashPoolRewardManager.sol\":2571:2597  apyManager.getCurrentAPY() */\n      gas\n      staticcall\n      swap2\n      dup3\n      iszero\n      tag_41\n      jumpi\n        /* \"contracts/contracts/lib/FlashPoolRewardManager.sol\":570:6457  contract FlashPoolRewardManager is ReentrancyGuard, IFlashPoolRewardManager {... */\n      0x00\n        /* \"contracts/contracts/lib/FlashPoolRewardManager.sol\":2571:2597  apyManager.getCurrentAPY() */\n      swap3\n      tag_77\n      jumpi\n        /* \"contracts/contracts/lib/FlashPoolRewardManager.sol\":570:6457  contract FlashPoolRewardManager is ReentrancyGuard, IFlashPoolRewardManager {... */\n    tag_78:\n      pop\n      mload(0x40)\n      0xc0\n      dup2\n      add\n      swap2\n      dup2\n      dup4\n      lt\n      0xffffffffffffffff\n      dup5\n      gt\n      or\n      tag_79\n      jumpi\n      0x05\n      swap3\n      0x40\n      mstore\n      dup2\n      mstore\n      0x20\n        /* \"contracts/contracts/lib/FlashPoolRewardManager.sol\":2407:2739  RewardDetails({... */\n      dup2\n      add\n        /* \"contracts/contracts/lib/FlashPoolRewardManager.sol\":570:6457  contract FlashPoolRewardManager is ReentrancyGuard, IFlashPoolRewardManager {... */\n      swap3\n      0x00\n      dup5\n      mstore\n      0x40\n        /* \"contracts/contracts/lib/FlashPoolRewardManager.sol\":2407:2739  RewardDetails({... */\n      dup3\n      add\n        /* \"contracts/contracts/lib/FlashPoolRewardManager.sol\":2532:2544  block.number */\n      swap1\n      number\n        /* \"contracts/contracts/lib/FlashPoolRewardManager.sol\":570:6457  contract FlashPoolRewardManager is ReentrancyGuard, IFlashPoolRewardManager {... */\n      dup3\n      mstore\n        /* \"contracts/contracts/lib/FlashPoolRewardManager.sol\":2407:2739  RewardDetails({... */\n      0x60\n      dup4\n      add\n        /* \"contracts/contracts/lib/FlashPoolRewardManager.sol\":570:6457  contract FlashPoolRewardManager is ReentrancyGuard, IFlashPoolRewardManager {... */\n      swap1\n      dup2\n      mstore\n        /* \"contracts/contracts/lib/FlashPoolRewardManager.sol\":2407:2739  RewardDetails({... */\n      0x80\n      dup4\n      add\n        /* \"contracts/contracts/lib/FlashPoolRewardManager.sol\":570:6457  contract FlashPoolRewardManager is ReentrancyGuard, IFlashPoolRewardManager {... */\n      swap2\n      0x00\n      dup4\n      mstore\n        /* \"contracts/contracts/lib/FlashPoolRewardManager.sol\":2407:2739  RewardDetails({... */\n      0xa0\n      dup5\n      add\n        /* \"contracts/contracts/lib/FlashPoolRewardManager.sol\":570:6457  contract FlashPoolRewardManager is ReentrancyGuard, IFlashPoolRewardManager {... */\n      swap6\n        /* \"contracts/contracts/lib/FlashPoolRewardManager.sol\":2571:2581  apyManager */\n      0x01\n        /* \"contracts/contracts/lib/FlashPoolRewardManager.sol\":570:6457  contract FlashPoolRewardManager is ReentrancyGuard, IFlashPoolRewardManager {... */\n      dup8\n      mstore\n      dup8\n      0x00\n      mstore\n        /* \"contracts/contracts/lib/FlashPoolRewardManager.sol\":2385:2398  rewardDetails */\n      0x02\n        /* \"contracts/contracts/lib/FlashPoolRewardManager.sol\":570:6457  contract FlashPoolRewardManager is ReentrancyGuard, IFlashPoolRewardManager {... */\n      0x20\n      mstore\n      keccak256(0x00, 0x40)\n      swap5\n      0x01\n      dup1\n      0xa0\n      shl\n      sub\n      swap1\n      mload\n      and\n      shl(0xa0, 0xffffffffffffffffffffffff)\n      dup7\n      sload\n      and\n      or\n      dup6\n      sstore\n      mload\n        /* \"contracts/contracts/lib/FlashPoolRewardManager.sol\":2571:2581  apyManager */\n      0x01\n        /* \"contracts/contracts/lib/FlashPoolRewardManager.sol\":570:6457  contract FlashPoolRewardManager is ReentrancyGuard, IFlashPoolRewardManager {... */\n      dup6\n      add\n      sstore\n      mload\n        /* \"contracts/contracts/lib/FlashPoolRewardManager.sol\":2385:2398  rewardDetails */\n      0x02\n        /* \"contracts/contracts/lib/FlashPoolRewardManager.sol\":570:6457  contract FlashPoolRewardManager is ReentrancyGuard, IFlashPoolRewardManager {... */\n      dup5\n      add\n      sstore\n      mload\n      0x03\n      dup4\n      add\n      sstore\n      mload\n      0x04\n      dup3\n      add\n      sstore\n      add\n      swap1\n      mload\n      iszero\n      iszero\n      0xff\n      dup1\n      not\n      dup4\n      sload\n      and\n      swap2\n      and\n      or\n      swap1\n      sstore\n        /* \"contracts/contracts/lib/FlashPoolRewardManager.sol\":2755:2775  PoolRegistered(pool) */\n      0x9cc152f4650ca2829a210a21551537f4cc4d48c2611ec06974f835e911921b90\n        /* \"contracts/contracts/lib/FlashPoolRewardManager.sol\":570:6457  contract FlashPoolRewardManager is ReentrancyGuard, IFlashPoolRewardManager {... */\n      0x00\n        /* \"contracts/contracts/lib/FlashPoolRewardManager.sol\":2755:2775  PoolRegistered(pool) */\n      dup1\n      log2\n        /* \"contracts/contracts/lib/FlashPoolRewardManager.sol\":570:6457  contract FlashPoolRewardManager is ReentrancyGuard, IFlashPoolRewardManager {... */\n      stop\n    tag_79:\n      mstore(0x00, shl(0xe0, 0x4e487b71))\n      mstore(0x04, 0x41)\n      revert(0x00, 0x24)\n        /* \"contracts/contracts/lib/FlashPoolRewardManager.sol\":2571:2597  apyManager.getCurrentAPY() */\n    tag_77:\n      swap1\n      swap2\n      pop\n        /* \"contracts/contracts/lib/FlashPoolRewardManager.sol\":570:6457  contract FlashPoolRewardManager is ReentrancyGuard, IFlashPoolRewardManager {... */\n      0x20\n        /* \"contracts/contracts/lib/FlashPoolRewardManager.sol\":2571:2597  apyManager.getCurrentAPY() */\n      dup2\n      returndatasize\n        /* \"contracts/contracts/lib/FlashPoolRewardManager.sol\":570:6457  contract FlashPoolRewardManager is ReentrancyGuard, IFlashPoolRewardManager {... */\n      0x20\n        /* \"contracts/contracts/lib/FlashPoolRewardManager.sol\":2571:2597  apyManager.getCurrentAPY() */\n      gt\n      tag_81\n      jumpi\n    tag_82:\n      dup2\n      tag_83\n        /* \"contracts/contracts/lib/FlashPoolRewardManager.sol\":570:6457  contract FlashPoolRewardManager is ReentrancyGuard, IFlashPoolRewardManager {... */\n      0x20\n        /* \"contracts/contracts/lib/FlashPoolRewardManager.sol\":2571:2597  apyManager.getCurrentAPY() */\n      swap4\n      dup4\n      tag_6\n      jump\t// in\n    tag_83:\n      dup2\n      add\n        /* \"contracts/contracts/lib/FlashPoolRewardManager.sol\":570:6457  contract FlashPoolRewardManager is ReentrancyGuard, IFlashPoolRewardManager {... */\n      sub\n      slt\n      tag_38\n      jumpi\n      mload\n        /* \"contracts/contracts/lib/FlashPoolRewardManager.sol\":2571:2597  apyManager.getCurrentAPY() */\n      swap1\n      dup4\n      jump(tag_78)\n    tag_81:\n      returndatasize\n      swap2\n      pop\n      jump(tag_82)\n        /* \"contracts/contracts/lib/FlashPoolRewardManager.sol\":570:6457  contract FlashPoolRewardManager is ReentrancyGuard, IFlashPoolRewardManager {... */\n    tag_73:\n      mload(0x40)\n      shl(0xe5, 0x461bcd)\n      dup2\n      mstore\n      0x20\n      0x04\n      dup3\n      add\n      mstore\n      0x11\n      0x24\n      dup3\n      add\n      mstore\n      shl(0x78, 0x496e76616c696420616464726573736573)\n      0x44\n      dup3\n      add\n      mstore\n      0x64\n      swap1\n      revert\n        /* \"contracts/contracts/lib/FlashPoolRewardManager.sol\":2305:2352  pool != address(0) && rewardToken != address(0) */\n    tag_71:\n        /* \"contracts/contracts/lib/FlashPoolRewardManager.sol\":2327:2352  rewardToken != address(0) */\n      pop\n      dup1\n      iszero\n      iszero\n        /* \"contracts/contracts/lib/FlashPoolRewardManager.sol\":2305:2352  pool != address(0) && rewardToken != address(0) */\n      jump(tag_72)\n        /* \"contracts/contracts/lib/FlashPoolRewardManager.sol\":570:6457  contract FlashPoolRewardManager is ReentrancyGuard, IFlashPoolRewardManager {... */\n    tag_14:\n      jumpi(tag_38, callvalue)\n      jumpi(tag_38, slt(add(not(0x03), calldatasize), 0x20))\n      sub(shl(0xa0, 0x01), 0x01)\n      tag_90\n      tag_1\n      jump\t// in\n    tag_90:\n      and\n      0x00\n      mstore\n        /* \"contracts/contracts/lib/FlashPoolRewardManager.sol\":3884:3897  rewardDetails */\n      0x02\n        /* \"contracts/contracts/lib/FlashPoolRewardManager.sol\":570:6457  contract FlashPoolRewardManager is ReentrancyGuard, IFlashPoolRewardManager {... */\n      0x20\n      mstore\n      0x20\n        /* \"contracts/contracts/lib/FlashPoolRewardManager.sol\":4123:4166  totalRewards - details.lenderClaimedRewards */\n      tag_91\n        /* \"contracts/contracts/lib/FlashPoolRewardManager.sol\":570:6457  contract FlashPoolRewardManager is ReentrancyGuard, IFlashPoolRewardManager {... */\n      keccak256(0x00, 0x40)\n      0x04\n        /* \"contracts/contracts/lib/FlashPoolRewardManager.sol\":4072:4103  details.rewardsAccrued + reward */\n      tag_92\n        /* \"contracts/contracts/lib/FlashPoolRewardManager.sol\":4005:4038  blocksPassed * details.rewardRate */\n      tag_93\n        /* \"contracts/contracts/lib/FlashPoolRewardManager.sol\":3939:3977  block.number - details.lastRewardBlock */\n      tag_94\n        /* \"contracts/contracts/lib/FlashPoolRewardManager.sol\":3884:3897  rewardDetails */\n      0x02\n        /* \"contracts/contracts/lib/FlashPoolRewardManager.sol\":3954:3977  details.lastRewardBlock */\n      dup6\n      add\n        /* \"contracts/contracts/lib/FlashPoolRewardManager.sol\":570:6457  contract FlashPoolRewardManager is ReentrancyGuard, IFlashPoolRewardManager {... */\n      sload\n        /* \"contracts/contracts/lib/FlashPoolRewardManager.sol\":3939:3951  block.number */\n      number\n        /* \"contracts/contracts/lib/FlashPoolRewardManager.sol\":3939:3977  block.number - details.lastRewardBlock */\n      tag_2\n      jump\t// in\n    tag_94:\n        /* \"contracts/contracts/lib/FlashPoolRewardManager.sol\":4020:4038  details.rewardRate */\n      0x03\n      dup6\n      add\n        /* \"contracts/contracts/lib/FlashPoolRewardManager.sol\":570:6457  contract FlashPoolRewardManager is ReentrancyGuard, IFlashPoolRewardManager {... */\n      sload\n        /* \"contracts/contracts/lib/FlashPoolRewardManager.sol\":4005:4038  blocksPassed * details.rewardRate */\n      swap1\n      tag_3\n      jump\t// in\n    tag_93:\n        /* \"contracts/contracts/lib/FlashPoolRewardManager.sol\":4072:4094  details.rewardsAccrued */\n      0x01\n      dup5\n      add\n        /* \"contracts/contracts/lib/FlashPoolRewardManager.sol\":570:6457  contract FlashPoolRewardManager is ReentrancyGuard, IFlashPoolRewardManager {... */\n      sload\n        /* \"contracts/contracts/lib/FlashPoolRewardManager.sol\":4072:4103  details.rewardsAccrued + reward */\n      tag_4\n      jump\t// in\n    tag_92:\n        /* \"contracts/contracts/lib/FlashPoolRewardManager.sol\":4138:4166  details.lenderClaimedRewards */\n      swap2\n      add\n        /* \"contracts/contracts/lib/FlashPoolRewardManager.sol\":570:6457  contract FlashPoolRewardManager is ReentrancyGuard, IFlashPoolRewardManager {... */\n      sload\n        /* \"contracts/contracts/lib/FlashPoolRewardManager.sol\":4123:4166  totalRewards - details.lenderClaimedRewards */\n      swap1\n      tag_2\n      jump\t// in\n    tag_91:\n        /* \"contracts/contracts/lib/FlashPoolRewardManager.sol\":570:6457  contract FlashPoolRewardManager is ReentrancyGuard, IFlashPoolRewardManager {... */\n      mload(0x40)\n      swap1\n      dup2\n      mstore\n      return\n    tag_12:\n      jumpi(tag_38, callvalue)\n      jumpi(tag_38, slt(add(not(0x03), calldatasize), 0x20))\n      tag_99\n      tag_100\n      tag_1\n      jump\t// in\n    tag_100:\n      tag_5\n      jump\t// in\n    tag_99:\n      stop\n    tag_10:\n      jumpi(tag_38, callvalue)\n      jumpi(tag_38, slt(add(not(0x03), calldatasize), 0x00))\n      and(sub(shl(0xa0, 0x01), 0x01), sload(0x01))\n      dup2\n      mstore\n      0x20\n      swap1\n      return\n    tag_1:\n      calldataload(0x04)\n      swap1\n      sub(shl(0xa0, 0x01), 0x01)\n      dup3\n      and\n      dup3\n      sub\n      tag_38\n      jumpi\n      jump\t// out\n    tag_2:\n      swap2\n      swap1\n      dup3\n      sub\n      swap2\n      dup3\n      gt\n      tag_107\n      jumpi\n      jump\t// out\n    tag_107:\n      mstore(0x00, shl(0xe0, 0x4e487b71))\n      mstore(0x04, 0x11)\n      revert(0x00, 0x24)\n    tag_3:\n      dup2\n      dup2\n      mul\n      swap3\n      swap2\n      dup2\n      iszero\n      swap2\n      dup5\n      div\n      eq\n      or\n      iszero\n      tag_107\n      jumpi\n      jump\t// out\n    tag_4:\n      swap2\n      swap1\n      dup3\n      add\n      dup1\n      swap3\n      gt\n      tag_107\n      jumpi\n      jump\t// out\n        /* \"contracts/contracts/lib/FlashPoolRewardManager.sol\":4372:4883  function accrueRewards(address pool) public override {... */\n    tag_5:\n      sub(shl(0xa0, 0x01), 0x01)\n        /* \"contracts/contracts/lib/FlashPoolRewardManager.sol\":570:6457  contract FlashPoolRewardManager is ReentrancyGuard, IFlashPoolRewardManager {... */\n      and\n      0x00\n      dup2\n      dup2\n      mstore\n        /* \"contracts/contracts/lib/FlashPoolRewardManager.sol\":4468:4481  rewardDetails */\n      0x02\n        /* \"contracts/contracts/lib/FlashPoolRewardManager.sol\":570:6457  contract FlashPoolRewardManager is ReentrancyGuard, IFlashPoolRewardManager {... */\n      0x20\n      mstore\n      0x40\n      swap1\n      keccak256\n        /* \"contracts/contracts/lib/FlashPoolRewardManager.sol\":4505:4523  details.isAccruing */\n      0x05\n      dup2\n      add\n        /* \"contracts/contracts/lib/FlashPoolRewardManager.sol\":570:6457  contract FlashPoolRewardManager is ReentrancyGuard, IFlashPoolRewardManager {... */\n      sload\n      0xff\n      and\n        /* \"contracts/contracts/lib/FlashPoolRewardManager.sol\":4504:4523  !details.isAccruing */\n      iszero\n        /* \"contracts/contracts/lib/FlashPoolRewardManager.sol\":4500:4602  if (!details.isAccruing) {... */\n      tag_113\n      jumpi\n        /* \"contracts/contracts/lib/FlashPoolRewardManager.sol\":570:6457  contract FlashPoolRewardManager is ReentrancyGuard, IFlashPoolRewardManager {... */\n      0x20\n        /* \"contracts/contracts/lib/FlashPoolRewardManager.sol\":4652:4675  details.lastRewardBlock */\n      dup2\n        /* \"contracts/contracts/lib/FlashPoolRewardManager.sol\":4468:4481  rewardDetails */\n      0x02\n        /* \"contracts/contracts/lib/FlashPoolRewardManager.sol\":4848:4875  RewardAccrued(pool, reward) */\n      0x578afab8065b30a5e9827120e4905b8a1810e180d2f793ca54af6f7633f4e57a\n        /* \"contracts/contracts/lib/FlashPoolRewardManager.sol\":4652:4675  details.lastRewardBlock */\n      swap4\n      add\n        /* \"contracts/contracts/lib/FlashPoolRewardManager.sol\":4749:4771  details.rewardsAccrued */\n      0x01\n        /* \"contracts/contracts/lib/FlashPoolRewardManager.sol\":4703:4736  blocksPassed * details.rewardRate */\n      tag_115\n        /* \"contracts/contracts/lib/FlashPoolRewardManager.sol\":4637:4675  block.number - details.lastRewardBlock */\n      tag_94\n        /* \"contracts/contracts/lib/FlashPoolRewardManager.sol\":570:6457  contract FlashPoolRewardManager is ReentrancyGuard, IFlashPoolRewardManager {... */\n      dup4\n      sload\n        /* \"contracts/contracts/lib/FlashPoolRewardManager.sol\":4637:4649  block.number */\n      number\n        /* \"contracts/contracts/lib/FlashPoolRewardManager.sol\":4637:4675  block.number - details.lastRewardBlock */\n      tag_2\n      jump\t// in\n        /* \"contracts/contracts/lib/FlashPoolRewardManager.sol\":4703:4736  blocksPassed * details.rewardRate */\n    tag_115:\n        /* \"contracts/contracts/lib/FlashPoolRewardManager.sol\":4749:4771  details.rewardsAccrued */\n      swap3\n      add\n        /* \"contracts/contracts/lib/FlashPoolRewardManager.sol\":4749:4781  details.rewardsAccrued += reward */\n      tag_117\n        /* \"contracts/contracts/lib/FlashPoolRewardManager.sol\":570:6457  contract FlashPoolRewardManager is ReentrancyGuard, IFlashPoolRewardManager {... */\n      dup4\n      dup3\n      sload\n        /* \"contracts/contracts/lib/FlashPoolRewardManager.sol\":4749:4781  details.rewardsAccrued += reward */\n      tag_4\n      jump\t// in\n    tag_117:\n        /* \"contracts/contracts/lib/FlashPoolRewardManager.sol\":570:6457  contract FlashPoolRewardManager is ReentrancyGuard, IFlashPoolRewardManager {... */\n      swap1\n      sstore\n        /* \"contracts/contracts/lib/FlashPoolRewardManager.sol\":4637:4649  block.number */\n      number\n        /* \"contracts/contracts/lib/FlashPoolRewardManager.sol\":570:6457  contract FlashPoolRewardManager is ReentrancyGuard, IFlashPoolRewardManager {... */\n      swap1\n      sstore\n      mload(0x40)\n      swap1\n      dup2\n      mstore\n        /* \"contracts/contracts/lib/FlashPoolRewardManager.sol\":4848:4875  RewardAccrued(pool, reward) */\n      log2\n        /* \"contracts/contracts/lib/FlashPoolRewardManager.sol\":4372:4883  function accrueRewards(address pool) public override {... */\n      jump\t// out\n        /* \"contracts/contracts/lib/FlashPoolRewardManager.sol\":4500:4602  if (!details.isAccruing) {... */\n    tag_113:\n        /* \"contracts/contracts/lib/FlashPoolRewardManager.sol\":4540:4547  return; */\n      pop\n      pop\n      jump\t// out\n        /* \"contracts/contracts/lib/FlashPoolRewardManager.sol\":570:6457  contract FlashPoolRewardManager is ReentrancyGuard, IFlashPoolRewardManager {... */\n    tag_6:\n      swap1\n      0x1f\n      dup1\n      not\n      swap2\n      add\n      and\n      dup2\n      add\n      swap1\n      dup2\n      lt\n      0xffffffffffffffff\n      dup3\n      gt\n      or\n      tag_79\n      jumpi\n      0x40\n      mstore\n      jump\t// out\n\n    auxdata: 0xa26469706673582212204b838248375ac7feeea4c7c5bfb6921cb1ec8b90ccc61f914bb11c5b83bcf33964736f6c634300081a0033\n}\n",
				"bytecode": {
					"linkReferences": {},
					"object": "60803460be57601f61079038819003918201601f19168301916001600160401b0383118484101760c25780849260209460405283398101031260be57516001600160a01b0381169081900360be5760015f558015607957600180546001600160a01b0319169190911790556040516106b990816100d78239f35b60405162461bcd60e51b815260206004820152601b60248201527f496e76616c696420415059206d616e61676572206164647265737300000000006044820152606490fd5b5f80fd5b634e487b7160e01b5f52604160045260245ffdfe6080806040526004361015610012575f80fd5b5f905f3560e01c90816301ec2d031461056d575080633d39955c1461054a57806351b2d521146104dc5780637286e5e51461030e5780637e72c7d714610258578063cf172403146101dc578063d919007e146101dc5763ef5cfb8c14610076575f80fd5b3461018e57602036600319011261018e5761008f610590565b60025f54146101cd5760025f556100a5816105e7565b6001600160a01b03165f818152600260205260409020600181015460048201805492916100d39084906105a6565b92831561019257836100e4916105da565b9055546001600160a01b0316803b1561018e576040516340c10f1960e01b815233600482015260248101839052905f908290604490829084905af180156101835761016c575b506040805133815260208101929092527f0aa4d283470c904c551d18bb894d37e17674920f3261a7f854be501e25f421b79190819081015b0390a26001815580f35b6101799193505f90610661565b5f9161016261012a565b6040513d5f823e3d90fd5b5f80fd5b60405162461bcd60e51b81526020600482015260136024820152724e6f207265776172647320746f20636c61696d60681b6044820152606490fd5b633ee5aeb560e01b5f5260045ffd5b3461018e57602036600319011261018e576001600160a01b036101fd610590565b165f52600260205260c060405f2060018060a01b0381541690600181015490600281015460038201549060ff6005600485015494015416936040519586526020860152604085015260608401526080830152151560a0820152f35b3461018e57602036600319011261018e576001600160a01b03610279610590565b1680156102d257805f5260026020525f60056040822082815582600182015582600282015582600382015582600482015501557f334d0b2111287dfddebe4b4c1c5af3ae644909d7fcd024377bf601e236ed5abb5f80a2005b60405162461bcd60e51b8152602060048201526014602482015273496e76616c696420706f6f6c206164647265737360601b6044820152606490fd5b3461018e57604036600319011261018e57610327610590565b6024356001600160a01b038116919082900361018e576001600160a01b031690811515806104d3575b1561049a57600154604051634b16524b60e11b81529190602090839060049082906001600160a01b03165afa918215610183575f92610466575b5060405160c081019181831067ffffffffffffffff84111761045257600592604052815260208101925f845260408201904382526060830190815260808301915f835260a084019560018752875f52600260205260405f209460018060a01b039051166bffffffffffffffffffffffff60a01b865416178555516001850155516002840155516003830155516004820155019051151560ff801983541691161790557f9cc152f4650ca2829a210a21551537f4cc4d48c2611ec06974f835e911921b905f80a2005b634e487b7160e01b5f52604160045260245ffd5b9091506020813d602011610492575b8161048260209383610661565b8101031261018e5751908361038a565b3d9150610475565b60405162461bcd60e51b8152602060048201526011602482015270496e76616c69642061646472657373657360781b6044820152606490fd5b50801515610350565b3461018e57602036600319011261018e576001600160a01b036104fd610590565b165f526002602052602061054260405f20600461053961052f6105246002850154436105a6565b6003850154906105c7565b60018401546105da565b910154906105a6565b604051908152f35b3461018e57602036600319011261018e5761056b610566610590565b6105e7565b005b3461018e575f36600319011261018e576001546001600160a01b03168152602090f35b600435906001600160a01b038216820361018e57565b919082039182116105b357565b634e487b7160e01b5f52601160045260245ffd5b818102929181159184041417156105b357565b919082018092116105b357565b6001600160a01b03165f818152600260205260409020600581015460ff161561065d5760208160027f578afab8065b30a5e9827120e4905b8a1810e180d2f793ca54af6f7633f4e57a930160016106426105248354436105a6565b920161064f8382546105da565b9055439055604051908152a2565b5050565b90601f8019910116810190811067ffffffffffffffff8211176104525760405256fea26469706673582212204b838248375ac7feeea4c7c5bfb6921cb1ec8b90ccc61f914bb11c5b83bcf33964736f6c634300081a0033",
					"opcodes": "PUSH1 0x80 CALLVALUE PUSH1 0xBE JUMPI PUSH1 0x1F PUSH2 0x790 CODESIZE DUP2 SWAP1 SUB SWAP2 DUP3 ADD PUSH1 0x1F NOT AND DUP4 ADD SWAP2 PUSH1 0x1 PUSH1 0x1 PUSH1 0x40 SHL SUB DUP4 GT DUP5 DUP5 LT OR PUSH1 0xC2 JUMPI DUP1 DUP5 SWAP3 PUSH1 0x20 SWAP5 PUSH1 0x40 MSTORE DUP4 CODECOPY DUP2 ADD SUB SLT PUSH1 0xBE JUMPI MLOAD PUSH1 0x1 PUSH1 0x1 PUSH1 0xA0 SHL SUB DUP2 AND SWAP1 DUP2 SWAP1 SUB PUSH1 0xBE JUMPI PUSH1 0x1 PUSH0 SSTORE DUP1 ISZERO PUSH1 0x79 JUMPI PUSH1 0x1 DUP1 SLOAD PUSH1 0x1 PUSH1 0x1 PUSH1 0xA0 SHL SUB NOT AND SWAP2 SWAP1 SWAP2 OR SWAP1 SSTORE PUSH1 0x40 MLOAD PUSH2 0x6B9 SWAP1 DUP2 PUSH2 0xD7 DUP3 CODECOPY RETURN JUMPDEST PUSH1 0x40 MLOAD PUSH3 0x461BCD PUSH1 0xE5 SHL DUP2 MSTORE PUSH1 0x20 PUSH1 0x4 DUP3 ADD MSTORE PUSH1 0x1B PUSH1 0x24 DUP3 ADD MSTORE PUSH32 0x496E76616C696420415059206D616E6167657220616464726573730000000000 PUSH1 0x44 DUP3 ADD MSTORE PUSH1 0x64 SWAP1 REVERT JUMPDEST PUSH0 DUP1 REVERT JUMPDEST PUSH4 0x4E487B71 PUSH1 0xE0 SHL PUSH0 MSTORE PUSH1 0x41 PUSH1 0x4 MSTORE PUSH1 0x24 PUSH0 REVERT INVALID PUSH1 0x80 DUP1 PUSH1 0x40 MSTORE PUSH1 0x4 CALLDATASIZE LT ISZERO PUSH2 0x12 JUMPI PUSH0 DUP1 REVERT JUMPDEST PUSH0 SWAP1 PUSH0 CALLDATALOAD PUSH1 0xE0 SHR SWAP1 DUP2 PUSH4 0x1EC2D03 EQ PUSH2 0x56D JUMPI POP DUP1 PUSH4 0x3D39955C EQ PUSH2 0x54A JUMPI DUP1 PUSH4 0x51B2D521 EQ PUSH2 0x4DC JUMPI DUP1 PUSH4 0x7286E5E5 EQ PUSH2 0x30E JUMPI DUP1 PUSH4 0x7E72C7D7 EQ PUSH2 0x258 JUMPI DUP1 PUSH4 0xCF172403 EQ PUSH2 0x1DC JUMPI DUP1 PUSH4 0xD919007E EQ PUSH2 0x1DC JUMPI PUSH4 0xEF5CFB8C EQ PUSH2 0x76 JUMPI PUSH0 DUP1 REVERT JUMPDEST CALLVALUE PUSH2 0x18E JUMPI PUSH1 0x20 CALLDATASIZE PUSH1 0x3 NOT ADD SLT PUSH2 0x18E JUMPI PUSH2 0x8F PUSH2 0x590 JUMP JUMPDEST PUSH1 0x2 PUSH0 SLOAD EQ PUSH2 0x1CD JUMPI PUSH1 0x2 PUSH0 SSTORE PUSH2 0xA5 DUP2 PUSH2 0x5E7 JUMP JUMPDEST PUSH1 0x1 PUSH1 0x1 PUSH1 0xA0 SHL SUB AND PUSH0 DUP2 DUP2 MSTORE PUSH1 0x2 PUSH1 0x20 MSTORE PUSH1 0x40 SWAP1 KECCAK256 PUSH1 0x1 DUP2 ADD SLOAD PUSH1 0x4 DUP3 ADD DUP1 SLOAD SWAP3 SWAP2 PUSH2 0xD3 SWAP1 DUP5 SWAP1 PUSH2 0x5A6 JUMP JUMPDEST SWAP3 DUP4 ISZERO PUSH2 0x192 JUMPI DUP4 PUSH2 0xE4 SWAP2 PUSH2 0x5DA JUMP JUMPDEST SWAP1 SSTORE SLOAD PUSH1 0x1 PUSH1 0x1 PUSH1 0xA0 SHL SUB AND DUP1 EXTCODESIZE ISZERO PUSH2 0x18E JUMPI PUSH1 0x40 MLOAD PUSH4 0x40C10F19 PUSH1 0xE0 SHL DUP2 MSTORE CALLER PUSH1 0x4 DUP3 ADD MSTORE PUSH1 0x24 DUP2 ADD DUP4 SWAP1 MSTORE SWAP1 PUSH0 SWAP1 DUP3 SWAP1 PUSH1 0x44 SWAP1 DUP3 SWAP1 DUP5 SWAP1 GAS CALL DUP1 ISZERO PUSH2 0x183 JUMPI PUSH2 0x16C JUMPI JUMPDEST POP PUSH1 0x40 DUP1 MLOAD CALLER DUP2 MSTORE PUSH1 0x20 DUP2 ADD SWAP3 SWAP1 SWAP3 MSTORE PUSH32 0xAA4D283470C904C551D18BB894D37E17674920F3261A7F854BE501E25F421B7 SWAP2 SWAP1 DUP2 SWAP1 DUP2 ADD JUMPDEST SUB SWAP1 LOG2 PUSH1 0x1 DUP2 SSTORE DUP1 RETURN JUMPDEST PUSH2 0x179 SWAP2 SWAP4 POP PUSH0 SWAP1 PUSH2 0x661 JUMP JUMPDEST PUSH0 SWAP2 PUSH2 0x162 PUSH2 0x12A JUMP JUMPDEST PUSH1 0x40 MLOAD RETURNDATASIZE PUSH0 DUP3 RETURNDATACOPY RETURNDATASIZE SWAP1 REVERT JUMPDEST PUSH0 DUP1 REVERT JUMPDEST PUSH1 0x40 MLOAD PUSH3 0x461BCD PUSH1 0xE5 SHL DUP2 MSTORE PUSH1 0x20 PUSH1 0x4 DUP3 ADD MSTORE PUSH1 0x13 PUSH1 0x24 DUP3 ADD MSTORE PUSH19 0x4E6F207265776172647320746F20636C61696D PUSH1 0x68 SHL PUSH1 0x44 DUP3 ADD MSTORE PUSH1 0x64 SWAP1 REVERT JUMPDEST PUSH4 0x3EE5AEB5 PUSH1 0xE0 SHL PUSH0 MSTORE PUSH1 0x4 PUSH0 REVERT JUMPDEST CALLVALUE PUSH2 0x18E JUMPI PUSH1 0x20 CALLDATASIZE PUSH1 0x3 NOT ADD SLT PUSH2 0x18E JUMPI PUSH1 0x1 PUSH1 0x1 PUSH1 0xA0 SHL SUB PUSH2 0x1FD PUSH2 0x590 JUMP JUMPDEST AND PUSH0 MSTORE PUSH1 0x2 PUSH1 0x20 MSTORE PUSH1 0xC0 PUSH1 0x40 PUSH0 KECCAK256 PUSH1 0x1 DUP1 PUSH1 0xA0 SHL SUB DUP2 SLOAD AND SWAP1 PUSH1 0x1 DUP2 ADD SLOAD SWAP1 PUSH1 0x2 DUP2 ADD SLOAD PUSH1 0x3 DUP3 ADD SLOAD SWAP1 PUSH1 0xFF PUSH1 0x5 PUSH1 0x4 DUP6 ADD SLOAD SWAP5 ADD SLOAD AND SWAP4 PUSH1 0x40 MLOAD SWAP6 DUP7 MSTORE PUSH1 0x20 DUP7 ADD MSTORE PUSH1 0x40 DUP6 ADD MSTORE PUSH1 0x60 DUP5 ADD MSTORE PUSH1 0x80 DUP4 ADD MSTORE ISZERO ISZERO PUSH1 0xA0 DUP3 ADD MSTORE RETURN JUMPDEST CALLVALUE PUSH2 0x18E JUMPI PUSH1 0x20 CALLDATASIZE PUSH1 0x3 NOT ADD SLT PUSH2 0x18E JUMPI PUSH1 0x1 PUSH1 0x1 PUSH1 0xA0 SHL SUB PUSH2 0x279 PUSH2 0x590 JUMP JUMPDEST AND DUP1 ISZERO PUSH2 0x2D2 JUMPI DUP1 PUSH0 MSTORE PUSH1 0x2 PUSH1 0x20 MSTORE PUSH0 PUSH1 0x5 PUSH1 0x40 DUP3 KECCAK256 DUP3 DUP2 SSTORE DUP3 PUSH1 0x1 DUP3 ADD SSTORE DUP3 PUSH1 0x2 DUP3 ADD SSTORE DUP3 PUSH1 0x3 DUP3 ADD SSTORE DUP3 PUSH1 0x4 DUP3 ADD SSTORE ADD SSTORE PUSH32 0x334D0B2111287DFDDEBE4B4C1C5AF3AE644909D7FCD024377BF601E236ED5ABB PUSH0 DUP1 LOG2 STOP JUMPDEST PUSH1 0x40 MLOAD PUSH3 0x461BCD PUSH1 0xE5 SHL DUP2 MSTORE PUSH1 0x20 PUSH1 0x4 DUP3 ADD MSTORE PUSH1 0x14 PUSH1 0x24 DUP3 ADD MSTORE PUSH20 0x496E76616C696420706F6F6C2061646472657373 PUSH1 0x60 SHL PUSH1 0x44 DUP3 ADD MSTORE PUSH1 0x64 SWAP1 REVERT JUMPDEST CALLVALUE PUSH2 0x18E JUMPI PUSH1 0x40 CALLDATASIZE PUSH1 0x3 NOT ADD SLT PUSH2 0x18E JUMPI PUSH2 0x327 PUSH2 0x590 JUMP JUMPDEST PUSH1 0x24 CALLDATALOAD PUSH1 0x1 PUSH1 0x1 PUSH1 0xA0 SHL SUB DUP2 AND SWAP2 SWAP1 DUP3 SWAP1 SUB PUSH2 0x18E JUMPI PUSH1 0x1 PUSH1 0x1 PUSH1 0xA0 SHL SUB AND SWAP1 DUP2 ISZERO ISZERO DUP1 PUSH2 0x4D3 JUMPI JUMPDEST ISZERO PUSH2 0x49A JUMPI PUSH1 0x1 SLOAD PUSH1 0x40 MLOAD PUSH4 0x4B16524B PUSH1 0xE1 SHL DUP2 MSTORE SWAP2 SWAP1 PUSH1 0x20 SWAP1 DUP4 SWAP1 PUSH1 0x4 SWAP1 DUP3 SWAP1 PUSH1 0x1 PUSH1 0x1 PUSH1 0xA0 SHL SUB AND GAS STATICCALL SWAP2 DUP3 ISZERO PUSH2 0x183 JUMPI PUSH0 SWAP3 PUSH2 0x466 JUMPI JUMPDEST POP PUSH1 0x40 MLOAD PUSH1 0xC0 DUP2 ADD SWAP2 DUP2 DUP4 LT PUSH8 0xFFFFFFFFFFFFFFFF DUP5 GT OR PUSH2 0x452 JUMPI PUSH1 0x5 SWAP3 PUSH1 0x40 MSTORE DUP2 MSTORE PUSH1 0x20 DUP2 ADD SWAP3 PUSH0 DUP5 MSTORE PUSH1 0x40 DUP3 ADD SWAP1 NUMBER DUP3 MSTORE PUSH1 0x60 DUP4 ADD SWAP1 DUP2 MSTORE PUSH1 0x80 DUP4 ADD SWAP2 PUSH0 DUP4 MSTORE PUSH1 0xA0 DUP5 ADD SWAP6 PUSH1 0x1 DUP8 MSTORE DUP8 PUSH0 MSTORE PUSH1 0x2 PUSH1 0x20 MSTORE PUSH1 0x40 PUSH0 KECCAK256 SWAP5 PUSH1 0x1 DUP1 PUSH1 0xA0 SHL SUB SWAP1 MLOAD AND PUSH12 0xFFFFFFFFFFFFFFFFFFFFFFFF PUSH1 0xA0 SHL DUP7 SLOAD AND OR DUP6 SSTORE MLOAD PUSH1 0x1 DUP6 ADD SSTORE MLOAD PUSH1 0x2 DUP5 ADD SSTORE MLOAD PUSH1 0x3 DUP4 ADD SSTORE MLOAD PUSH1 0x4 DUP3 ADD SSTORE ADD SWAP1 MLOAD ISZERO ISZERO PUSH1 0xFF DUP1 NOT DUP4 SLOAD AND SWAP2 AND OR SWAP1 SSTORE PUSH32 0x9CC152F4650CA2829A210A21551537F4CC4D48C2611EC06974F835E911921B90 PUSH0 DUP1 LOG2 STOP JUMPDEST PUSH4 0x4E487B71 PUSH1 0xE0 SHL PUSH0 MSTORE PUSH1 0x41 PUSH1 0x4 MSTORE PUSH1 0x24 PUSH0 REVERT JUMPDEST SWAP1 SWAP2 POP PUSH1 0x20 DUP2 RETURNDATASIZE PUSH1 0x20 GT PUSH2 0x492 JUMPI JUMPDEST DUP2 PUSH2 0x482 PUSH1 0x20 SWAP4 DUP4 PUSH2 0x661 JUMP JUMPDEST DUP2 ADD SUB SLT PUSH2 0x18E JUMPI MLOAD SWAP1 DUP4 PUSH2 0x38A JUMP JUMPDEST RETURNDATASIZE SWAP2 POP PUSH2 0x475 JUMP JUMPDEST PUSH1 0x40 MLOAD PUSH3 0x461BCD PUSH1 0xE5 SHL DUP2 MSTORE PUSH1 0x20 PUSH1 0x4 DUP3 ADD MSTORE PUSH1 0x11 PUSH1 0x24 DUP3 ADD MSTORE PUSH17 0x496E76616C696420616464726573736573 PUSH1 0x78 SHL PUSH1 0x44 DUP3 ADD MSTORE PUSH1 0x64 SWAP1 REVERT JUMPDEST POP DUP1 ISZERO ISZERO PUSH2 0x350 JUMP JUMPDEST CALLVALUE PUSH2 0x18E JUMPI PUSH1 0x20 CALLDATASIZE PUSH1 0x3 NOT ADD SLT PUSH2 0x18E JUMPI PUSH1 0x1 PUSH1 0x1 PUSH1 0xA0 SHL SUB PUSH2 0x4FD PUSH2 0x590 JUMP JUMPDEST AND PUSH0 MSTORE PUSH1 0x2 PUSH1 0x20 MSTORE PUSH1 0x20 PUSH2 0x542 PUSH1 0x40 PUSH0 KECCAK256 PUSH1 0x4 PUSH2 0x539 PUSH2 0x52F PUSH2 0x524 PUSH1 0x2 DUP6 ADD SLOAD NUMBER PUSH2 0x5A6 JUMP JUMPDEST PUSH1 0x3 DUP6 ADD SLOAD SWAP1 PUSH2 0x5C7 JUMP JUMPDEST PUSH1 0x1 DUP5 ADD SLOAD PUSH2 0x5DA JUMP JUMPDEST SWAP2 ADD SLOAD SWAP1 PUSH2 0x5A6 JUMP JUMPDEST PUSH1 0x40 MLOAD SWAP1 DUP2 MSTORE RETURN JUMPDEST CALLVALUE PUSH2 0x18E JUMPI PUSH1 0x20 CALLDATASIZE PUSH1 0x3 NOT ADD SLT PUSH2 0x18E JUMPI PUSH2 0x56B PUSH2 0x566 PUSH2 0x590 JUMP JUMPDEST PUSH2 0x5E7 JUMP JUMPDEST STOP JUMPDEST CALLVALUE PUSH2 0x18E JUMPI PUSH0 CALLDATASIZE PUSH1 0x3 NOT ADD SLT PUSH2 0x18E JUMPI PUSH1 0x1 SLOAD PUSH1 0x1 PUSH1 0x1 PUSH1 0xA0 SHL SUB AND DUP2 MSTORE PUSH1 0x20 SWAP1 RETURN JUMPDEST PUSH1 0x4 CALLDATALOAD SWAP1 PUSH1 0x1 PUSH1 0x1 PUSH1 0xA0 SHL SUB DUP3 AND DUP3 SUB PUSH2 0x18E JUMPI JUMP JUMPDEST SWAP2 SWAP1 DUP3 SUB SWAP2 DUP3 GT PUSH2 0x5B3 JUMPI JUMP JUMPDEST PUSH4 0x4E487B71 PUSH1 0xE0 SHL PUSH0 MSTORE PUSH1 0x11 PUSH1 0x4 MSTORE PUSH1 0x24 PUSH0 REVERT JUMPDEST DUP2 DUP2 MUL SWAP3 SWAP2 DUP2 ISZERO SWAP2 DUP5 DIV EQ OR ISZERO PUSH2 0x5B3 JUMPI JUMP JUMPDEST SWAP2 SWAP1 DUP3 ADD DUP1 SWAP3 GT PUSH2 0x5B3 JUMPI JUMP JUMPDEST PUSH1 0x1 PUSH1 0x1 PUSH1 0xA0 SHL SUB AND PUSH0 DUP2 DUP2 MSTORE PUSH1 0x2 PUSH1 0x20 MSTORE PUSH1 0x40 SWAP1 KECCAK256 PUSH1 0x5 DUP2 ADD SLOAD PUSH1 0xFF AND ISZERO PUSH2 0x65D JUMPI PUSH1 0x20 DUP2 PUSH1 0x2 PUSH32 0x578AFAB8065B30A5E9827120E4905B8A1810E180D2F793CA54AF6F7633F4E57A SWAP4 ADD PUSH1 0x1 PUSH2 0x642 PUSH2 0x524 DUP4 SLOAD NUMBER PUSH2 0x5A6 JUMP JUMPDEST SWAP3 ADD PUSH2 0x64F DUP4 DUP3 SLOAD PUSH2 0x5DA JUMP JUMPDEST SWAP1 SSTORE NUMBER SWAP1 SSTORE PUSH1 0x40 MLOAD SWAP1 DUP2 MSTORE LOG2 JUMP JUMPDEST POP POP JUMP JUMPDEST SWAP1 PUSH1 0x1F DUP1 NOT SWAP2 ADD AND DUP2 ADD SWAP1 DUP2 LT PUSH8 0xFFFFFFFFFFFFFFFF DUP3 GT OR PUSH2 0x452 JUMPI PUSH1 0x40 MSTORE JUMP INVALID LOG2 PUSH5 0x6970667358 0x22 SLT KECCAK256 0x4B DUP4 DUP3 BASEFEE CALLDATACOPY GAS 0xC7 INVALID 0xEE LOG4 0xC7 0xC5 0xBF 0xB6 SWAP3 SHR 0xB1 0xEC DUP12 SWAP1 0xCC 0xC6 0x1F SWAP2 0x4B 0xB1 SHR JUMPDEST DUP4 0xBC RETURN CODECOPY PUSH5 0x736F6C6343 STOP ADDMOD BYTE STOP CALLER "
				},
				"gasEstimates": {
					"creation": {
						"codeDepositCost": "344200",
						"executionCost": "infinite",
						"totalCost": "infinite"
					},
					"external": {
						"accrueRewards(address)": "54627",
						"apyManager()": "2271",
						"calculateClaimableInterest(address)": "infinite",
						"claimRewards(address)": "infinite",
						"deregisterPool(address)": "31593",
						"getRewardDetails(address)": "13208",
						"registerPool(address,address)": "infinite",
						"rewardDetails(address)": "13186"
					}
				},
				"methodIdentifiers": {
					"accrueRewards(address)": "3d39955c",
					"apyManager()": "01ec2d03",
					"calculateClaimableInterest(address)": "51b2d521",
					"claimRewards(address)": "ef5cfb8c",
					"deregisterPool(address)": "7e72c7d7",
					"getRewardDetails(address)": "d919007e",
					"registerPool(address,address)": "7286e5e5",
					"rewardDetails(address)": "cf172403"
				}
			},
			"storageLayout": {
				"storage": [
					{
						"astId": 1079,
						"contract": "contracts/contracts/lib/FlashPoolRewardManager.sol:FlashPoolRewardManager",
						"label": "_status",
						"offset": 0,
						"slot": "0",
						"type": "t_uint256"
					},
					{
						"astId": 3634,
						"contract": "contracts/contracts/lib/FlashPoolRewardManager.sol:FlashPoolRewardManager",
						"label": "apyManager",
						"offset": 0,
						"slot": "1",
						"type": "t_contract(IAdvancedAPYManager)3550"
					},
					{
						"astId": 3639,
						"contract": "contracts/contracts/lib/FlashPoolRewardManager.sol:FlashPoolRewardManager",
						"label": "rewardDetails",
						"offset": 0,
						"slot": "2",
						"type": "t_mapping(t_address,t_struct(RewardDetails)3631_storage)"
					}
				],
				"types": {
					"t_address": {
						"encoding": "inplace",
						"label": "address",
						"numberOfBytes": "20"
					},
					"t_bool": {
						"encoding": "inplace",
						"label": "bool",
						"numberOfBytes": "1"
					},
					"t_contract(IAdvancedAPYManager)3550": {
						"encoding": "inplace",
						"label": "contract IAdvancedAPYManager",
						"numberOfBytes": "20"
					},
					"t_contract(IERC20)754": {
						"encoding": "inplace",
						"label": "contract IERC20",
						"numberOfBytes": "20"
					},
					"t_mapping(t_address,t_struct(RewardDetails)3631_storage)": {
						"encoding": "mapping",
						"key": "t_address",
						"label": "mapping(address => struct FlashPoolRewardManager.RewardDetails)",
						"numberOfBytes": "32",
						"value": "t_struct(RewardDetails)3631_storage"
					},
					"t_struct(RewardDetails)3631_storage": {
						"encoding": "inplace",
						"label": "struct FlashPoolRewardManager.RewardDetails",
						"members": [
							{
								"astId": 3620,
								"contract": "contracts/contracts/lib/FlashPoolRewardManager.sol:FlashPoolRewardManager",
								"label": "rewardToken",
								"offset": 0,
								"slot": "0",
								"type": "t_contract(IERC20)754"
							},
							{
								"astId": 3622,
								"contract": "contracts/contracts/lib/FlashPoolRewardManager.sol:FlashPoolRewardManager",
								"label": "rewardsAccrued",
								"offset": 0,
								"slot": "1",
								"type": "t_uint256"
							},
							{
								"astId": 3624,
								"contract": "contracts/contracts/lib/FlashPoolRewardManager.sol:FlashPoolRewardManager",
								"label": "lastRewardBlock",
								"offset": 0,
								"slot": "2",
								"type": "t_uint256"
							},
							{
								"astId": 3626,
								"contract": "contracts/contracts/lib/FlashPoolRewardManager.sol:FlashPoolRewardManager",
								"label": "rewardRate",
								"offset": 0,
								"slot": "3",
								"type": "t_uint256"
							},
							{
								"astId": 3628,
								"contract": "contracts/contracts/lib/FlashPoolRewardManager.sol:FlashPoolRewardManager",
								"label": "lenderClaimedRewards",
								"offset": 0,
								"slot": "4",
								"type": "t_uint256"
							},
							{
								"astId": 3630,
								"contract": "contracts/contracts/lib/FlashPoolRewardManager.sol:FlashPoolRewardManager",
								"label": "isAccruing",
								"offset": 0,
								"slot": "5",
								"type": "t_bool"
							}
						],
						"numberOfBytes": "192"
					},
					"t_uint256": {
						"encoding": "inplace",
						"label": "uint256",
						"numberOfBytes": "32"
					}
				}
			},
			"userdoc": {
				"kind": "user",
				"methods": {
					"accrueRewards(address)": {
						"notice": "Accrues rewards for a specific pool based on the current APY and block difference."
					},
					"calculateClaimableInterest(address)": {
						"notice": "Calculates claimable interest for the lender."
					},
					"claimRewards(address)": {
						"notice": "Claims rewards for the lender from a specific pool."
					},
					"constructor": {
						"notice": "Initializes the FlashPoolRewardManager contract with a reference to the APYManager for reward calculations."
					},
					"deregisterPool(address)": {
						"notice": "Deregisters a pool, stopping it from accruing further rewards."
					},
					"getRewardDetails(address)": {
						"notice": "Returns the reward details for a specific pool."
					},
					"registerPool(address,address)": {
						"notice": "Registers a pool to start accruing rewards, initializing the reward mechanism."
					}
				},
				"version": 1
			}
		}
	}
}