{
	"contracts/contracts/protocol/TuliaPool.sol": {
		"TuliaPool": {
			"abi": [
				{
					"inputs": [
						{
							"internalType": "address",
							"name": "lender",
							"type": "address"
						},
						{
							"internalType": "address",
							"name": "loanTokenAddress",
							"type": "address"
						},
						{
							"internalType": "address",
							"name": "repaymentTokenAddress",
							"type": "address"
						},
						{
							"internalType": "address",
							"name": "collateralVaultAddress",
							"type": "address"
						},
						{
							"internalType": "uint256",
							"name": "loanAmount",
							"type": "uint256"
						},
						{
							"internalType": "uint256",
							"name": "interestRate",
							"type": "uint256"
						},
						{
							"internalType": "uint256",
							"name": "repaymentPeriod",
							"type": "uint256"
						},
						{
							"internalType": "contract IInterestModel",
							"name": "interestModel",
							"type": "address"
						},
						{
							"internalType": "contract IPermit2",
							"name": "_permit2",
							"type": "address"
						},
						{
							"internalType": "address",
							"name": "poolOrganizerAddress",
							"type": "address"
						}
					],
					"stateMutability": "nonpayable",
					"type": "constructor"
				},
				{
					"inputs": [
						{
							"internalType": "address",
							"name": "target",
							"type": "address"
						}
					],
					"name": "AddressEmptyCode",
					"type": "error"
				},
				{
					"inputs": [
						{
							"internalType": "address",
							"name": "account",
							"type": "address"
						}
					],
					"name": "AddressInsufficientBalance",
					"type": "error"
				},
				{
					"inputs": [],
					"name": "FailedInnerCall",
					"type": "error"
				},
				{
					"inputs": [
						{
							"internalType": "address",
							"name": "token",
							"type": "address"
						}
					],
					"name": "SafeERC20FailedOperation",
					"type": "error"
				},
				{
					"anonymous": false,
					"inputs": [
						{
							"indexed": true,
							"internalType": "address",
							"name": "borrower",
							"type": "address"
						},
						{
							"indexed": false,
							"internalType": "uint256",
							"name": "collateralAmount",
							"type": "uint256"
						}
					],
					"name": "LoanActivated",
					"type": "event"
				},
				{
					"anonymous": false,
					"inputs": [],
					"name": "LoanClosed",
					"type": "event"
				},
				{
					"anonymous": false,
					"inputs": [
						{
							"indexed": false,
							"internalType": "uint256",
							"name": "loanAmount",
							"type": "uint256"
						}
					],
					"name": "LoanFunded",
					"type": "event"
				},
				{
					"anonymous": false,
					"inputs": [
						{
							"indexed": true,
							"internalType": "address",
							"name": "lender",
							"type": "address"
						},
						{
							"indexed": false,
							"internalType": "uint256",
							"name": "loanAmount",
							"type": "uint256"
						},
						{
							"indexed": false,
							"internalType": "address",
							"name": "loanToken",
							"type": "address"
						},
						{
							"indexed": false,
							"internalType": "address",
							"name": "repaymentToken",
							"type": "address"
						}
					],
					"name": "LoanOfferCreated",
					"type": "event"
				},
				{
					"anonymous": false,
					"inputs": [
						{
							"indexed": false,
							"internalType": "uint256",
							"name": "amountRepaid",
							"type": "uint256"
						}
					],
					"name": "RepaymentMade",
					"type": "event"
				},
				{
					"inputs": [
						{
							"internalType": "address",
							"name": "borrower",
							"type": "address"
						},
						{
							"internalType": "uint256",
							"name": "collateralAmount",
							"type": "uint256"
						}
					],
					"name": "activateLoan",
					"outputs": [],
					"stateMutability": "nonpayable",
					"type": "function"
				},
				{
					"inputs": [],
					"name": "calculateInterest",
					"outputs": [
						{
							"internalType": "uint256",
							"name": "",
							"type": "uint256"
						}
					],
					"stateMutability": "view",
					"type": "function"
				},
				{
					"inputs": [],
					"name": "calculateRequiredCollateral",
					"outputs": [
						{
							"internalType": "uint256",
							"name": "",
							"type": "uint256"
						}
					],
					"stateMutability": "view",
					"type": "function"
				},
				{
					"inputs": [],
					"name": "fundLoan",
					"outputs": [],
					"stateMutability": "nonpayable",
					"type": "function"
				},
				{
					"inputs": [
						{
							"internalType": "address",
							"name": "user",
							"type": "address"
						}
					],
					"name": "getCollateralAmount",
					"outputs": [
						{
							"internalType": "uint256",
							"name": "",
							"type": "uint256"
						}
					],
					"stateMutability": "view",
					"type": "function"
				},
				{
					"inputs": [],
					"name": "getFundedBlock",
					"outputs": [
						{
							"internalType": "uint256",
							"name": "",
							"type": "uint256"
						}
					],
					"stateMutability": "view",
					"type": "function"
				},
				{
					"inputs": [],
					"name": "getLoanAmount",
					"outputs": [
						{
							"internalType": "uint256",
							"name": "",
							"type": "uint256"
						}
					],
					"stateMutability": "view",
					"type": "function"
				},
				{
					"inputs": [],
					"name": "getLoanState",
					"outputs": [
						{
							"internalType": "enum TuliaPool.LoanState",
							"name": "",
							"type": "uint8"
						}
					],
					"stateMutability": "view",
					"type": "function"
				},
				{
					"inputs": [],
					"name": "loanDetails",
					"outputs": [
						{
							"internalType": "address",
							"name": "lender",
							"type": "address"
						},
						{
							"internalType": "contract IERC20",
							"name": "loanToken",
							"type": "address"
						},
						{
							"internalType": "contract IERC20",
							"name": "repaymentToken",
							"type": "address"
						},
						{
							"internalType": "contract TuliaVault",
							"name": "collateralVault",
							"type": "address"
						},
						{
							"internalType": "uint256",
							"name": "loanAmount",
							"type": "uint256"
						},
						{
							"internalType": "uint256",
							"name": "interestRate",
							"type": "uint256"
						},
						{
							"internalType": "uint256",
							"name": "repaymentPeriod",
							"type": "uint256"
						},
						{
							"internalType": "contract IInterestModel",
							"name": "interestModel",
							"type": "address"
						},
						{
							"internalType": "address",
							"name": "borrower",
							"type": "address"
						},
						{
							"internalType": "uint256",
							"name": "startBlock",
							"type": "uint256"
						},
						{
							"internalType": "uint256",
							"name": "fundedBlock",
							"type": "uint256"
						}
					],
					"stateMutability": "view",
					"type": "function"
				},
				{
					"inputs": [],
					"name": "permit2",
					"outputs": [
						{
							"internalType": "contract IPermit2",
							"name": "",
							"type": "address"
						}
					],
					"stateMutability": "view",
					"type": "function"
				},
				{
					"inputs": [],
					"name": "poolOrganizer",
					"outputs": [
						{
							"internalType": "contract IPoolOrganizer",
							"name": "",
							"type": "address"
						}
					],
					"stateMutability": "view",
					"type": "function"
				},
				{
					"inputs": [
						{
							"internalType": "uint256",
							"name": "amount",
							"type": "uint256"
						}
					],
					"name": "repay",
					"outputs": [],
					"stateMutability": "nonpayable",
					"type": "function"
				},
				{
					"inputs": [],
					"name": "state",
					"outputs": [
						{
							"internalType": "enum TuliaPool.LoanState",
							"name": "",
							"type": "uint8"
						}
					],
					"stateMutability": "view",
					"type": "function"
				}
			],
			"devdoc": {
				"details": "Manages the lifecycle of loans including creation, funding, repayment, and defaults.",
				"errors": {
					"AddressEmptyCode(address)": [
						{
							"details": "There's no code at `target` (it is not a contract)."
						}
					],
					"AddressInsufficientBalance(address)": [
						{
							"details": "The ETH balance of the account is not enough to perform the operation."
						}
					],
					"FailedInnerCall()": [
						{
							"details": "A call to an address target failed. The target may have reverted."
						}
					],
					"SafeERC20FailedOperation(address)": [
						{
							"details": "An operation with an ERC20 token failed."
						}
					]
				},
				"kind": "dev",
				"methods": {
					"constructor": {
						"params": {
							"_permit2": "The Permit2 contract for ERC20 token operations",
							"collateralVaultAddress": "The address of the vault where collateral will be stored",
							"interestModel": "The contract that calculates interest",
							"interestRate": "The interest rate",
							"lender": "The address of the lender",
							"loanAmount": "The amount of the loan",
							"loanTokenAddress": "The address of the token to be loaned",
							"poolOrganizerAddress": "The Pool Organizer contract for managing pool registrations",
							"repaymentPeriod": "The duration over which the loan must be repaid",
							"repaymentTokenAddress": "The token address in which repayments are to be made"
						}
					}
				},
				"title": "TuliaPool",
				"version": 1
			},
			"evm": {
				"assembly": "    /* \"contracts/contracts/protocol/TuliaPool.sol\":509:5942  contract TuliaPool is ReentrancyGuard {... */\n  0x80\n  jumpi(tag_14, callvalue)\n  0x1f\n  bytecodeSize\n  codesize\n  dup2\n  swap1\n  sub\n  swap2\n  dup3\n  add\n  not(0x1f)\n  and\n  dup4\n  add\n  swap2\n  sub(shl(0x40, 0x01), 0x01)\n  dup4\n  gt\n  dup5\n  dup5\n  lt\n  or\n  tag_25\n  jumpi\n  dup1\n  dup5\n  swap3\n  0x0140\n  swap5\n  0x40\n  mstore\n  dup4\n  codecopy\n  dup2\n  add\n  sub\n  slt\n  tag_14\n  jumpi\n  tag_8\n  dup2\n  tag_1\n  jump\t// in\ntag_8:\n  tag_9\n  0x20\n  dup4\n  add\n  tag_1\n  jump\t// in\ntag_9:\n  swap2\n  tag_10\n  0x40\n  dup3\n  add\n  tag_1\n  jump\t// in\ntag_10:\n  swap2\n  tag_11\n  0x60\n  dup4\n  add\n  tag_1\n  jump\t// in\ntag_11:\n  swap3\n  0x80\n  dup4\n  add\n  mload\n  swap5\n  0xa0\n  dup5\n  add\n  mload\n  swap4\n  0xc0\n  dup2\n  add\n  mload\n  swap1\n  0xe0\n  dup2\n  add\n  mload\n  0x01\n  dup1\n  0xa0\n  shl\n  sub\n  dup2\n  and\n  dup2\n  sub\n  tag_14\n  jumpi\n  0x0100\n  dup3\n  add\n  mload\n  sub(shl(0xa0, 0x01), 0x01)\n  dup2\n  and\n  swap3\n  swap1\n  dup4\n  swap1\n  sub\n  tag_14\n  jumpi\n  0x0120\n  tag_16\n  swap2\n  add\n  tag_1\n  jump\t// in\ntag_16:\n  sstore(0x00, 0x01)\n  swap2\n  sub(shl(0xa0, 0x01), 0x01)\n  dup8\n  and\n    /* \"contracts/contracts/protocol/TuliaPool.sol\":2537:2557  lender != address(0) */\n  iszero\n  iszero\n  dup1\n    /* \"contracts/contracts/protocol/TuliaPool.sol\":2537:2591  lender != address(0) && loanTokenAddress != address(0) */\n  tag_17\n  jumpi\ntag_18:\n    /* \"contracts/contracts/protocol/TuliaPool.sol\":2537:2631  lender != address(0) && loanTokenAddress != address(0) && collateralVaultAddress != address(0) */\n  dup1\n  tag_19\n  jumpi\ntag_20:\n    /* \"contracts/contracts/protocol/TuliaPool.sol\":2537:2670  lender != address(0) && loanTokenAddress != address(0) && collateralVaultAddress != address(0) && repaymentTokenAddress != address(0) */\n  dup1\n  tag_21\n  jumpi\ntag_22:\n    /* \"contracts/contracts/protocol/TuliaPool.sol\":509:5942  contract TuliaPool is ReentrancyGuard {... */\n  iszero\n  tag_23\n  jumpi\n  0x01\n  dup1\n  sload\n  not(sub(shl(0xa0, 0x01), 0x01))\n  and\n  swap2\n  swap1\n  swap2\n  or\n  swap1\n  sstore\n    /* \"contracts/contracts/protocol/TuliaPool.sol\":2736:2788  poolOrganizer = IPoolOrganizer(poolOrganizerAddress) */\n  0x02\n    /* \"contracts/contracts/protocol/TuliaPool.sol\":509:5942  contract TuliaPool is ReentrancyGuard {... */\n  sload\n  mload(0x40)\n  swap8\n  swap1\n  swap4\n  swap1\n  sub(shl(0x40, 0x01), 0x01)\n  0x0160\n  dup11\n  add\n  swap1\n  dup2\n  gt\n  swap1\n  dup11\n  gt\n  or\n  tag_25\n  jumpi\n    /* \"contracts/contracts/protocol/TuliaPool.sol\":3353:3430  LoanOfferCreated(lender, loanAmount, loanTokenAddress, repaymentTokenAddress) */\n  0x3d48195705780f5c10a0d217f778f0f6d562cb1a6a699da31c0d6d756aacedfc\n    /* \"contracts/contracts/protocol/TuliaPool.sol\":509:5942  contract TuliaPool is ReentrancyGuard {... */\n  swap10\n  0x00\n  0x0140\n  dup12\n  dup15\n  0x0160\n  0x60\n  swap15\n  add\n  0x40\n  mstore\n  0x01\n  dup1\n  0xa0\n  shl\n  sub\n  dup14\n  and\n  dup3\n  mstore\n  0x01\n  dup1\n  0xa0\n  shl\n  sub\n  dup12\n  and\n  0x20\n    /* \"contracts/contracts/protocol/TuliaPool.sol\":2812:3303  LoanDetails({... */\n  dup4\n  add\n    /* \"contracts/contracts/protocol/TuliaPool.sol\":509:5942  contract TuliaPool is ReentrancyGuard {... */\n  mstore\n  0x01\n  dup1\n  0xa0\n  shl\n  sub\n  dup13\n  and\n  0x40\n    /* \"contracts/contracts/protocol/TuliaPool.sol\":2812:3303  LoanDetails({... */\n  dup4\n  add\n    /* \"contracts/contracts/protocol/TuliaPool.sol\":509:5942  contract TuliaPool is ReentrancyGuard {... */\n  mstore\n  0x01\n  dup1\n  0xa0\n  shl\n  sub\n  dup6\n  and\n    /* \"contracts/contracts/protocol/TuliaPool.sol\":2812:3303  LoanDetails({... */\n  dup15\n  dup4\n  add\n    /* \"contracts/contracts/protocol/TuliaPool.sol\":509:5942  contract TuliaPool is ReentrancyGuard {... */\n  mstore\n  0x80\n    /* \"contracts/contracts/protocol/TuliaPool.sol\":2812:3303  LoanDetails({... */\n  dup3\n  add\n    /* \"contracts/contracts/protocol/TuliaPool.sol\":509:5942  contract TuliaPool is ReentrancyGuard {... */\n  mstore\n    /* \"contracts/contracts/protocol/TuliaPool.sol\":2812:3303  LoanDetails({... */\n  dup5\n    /* \"contracts/contracts/protocol/TuliaPool.sol\":509:5942  contract TuliaPool is ReentrancyGuard {... */\n  0xa0\n    /* \"contracts/contracts/protocol/TuliaPool.sol\":2812:3303  LoanDetails({... */\n  dup3\n  add\n    /* \"contracts/contracts/protocol/TuliaPool.sol\":509:5942  contract TuliaPool is ReentrancyGuard {... */\n  mstore\n    /* \"contracts/contracts/protocol/TuliaPool.sol\":2812:3303  LoanDetails({... */\n  dup6\n    /* \"contracts/contracts/protocol/TuliaPool.sol\":509:5942  contract TuliaPool is ReentrancyGuard {... */\n  0xc0\n    /* \"contracts/contracts/protocol/TuliaPool.sol\":2812:3303  LoanDetails({... */\n  dup3\n  add\n    /* \"contracts/contracts/protocol/TuliaPool.sol\":509:5942  contract TuliaPool is ReentrancyGuard {... */\n  mstore\n  0x01\n  dup1\n  0xa0\n  shl\n  sub\n  dup8\n  and\n  0xe0\n    /* \"contracts/contracts/protocol/TuliaPool.sol\":2812:3303  LoanDetails({... */\n  dup3\n  add\n    /* \"contracts/contracts/protocol/TuliaPool.sol\":509:5942  contract TuliaPool is ReentrancyGuard {... */\n  mstore\n    /* \"contracts/contracts/protocol/TuliaPool.sol\":2812:3303  LoanDetails({... */\n  dup3\n    /* \"contracts/contracts/protocol/TuliaPool.sol\":509:5942  contract TuliaPool is ReentrancyGuard {... */\n  0x0100\n    /* \"contracts/contracts/protocol/TuliaPool.sol\":2812:3303  LoanDetails({... */\n  dup3\n  add\n    /* \"contracts/contracts/protocol/TuliaPool.sol\":509:5942  contract TuliaPool is ReentrancyGuard {... */\n  mstore\n    /* \"contracts/contracts/protocol/TuliaPool.sol\":3249:3264  block.timestamp */\n  timestamp\n    /* \"contracts/contracts/protocol/TuliaPool.sol\":509:5942  contract TuliaPool is ReentrancyGuard {... */\n  0x0120\n    /* \"contracts/contracts/protocol/TuliaPool.sol\":2812:3303  LoanDetails({... */\n  dup3\n  add\n    /* \"contracts/contracts/protocol/TuliaPool.sol\":509:5942  contract TuliaPool is ReentrancyGuard {... */\n  mstore\n    /* \"contracts/contracts/protocol/TuliaPool.sol\":2812:3303  LoanDetails({... */\n  add\n    /* \"contracts/contracts/protocol/TuliaPool.sol\":509:5942  contract TuliaPool is ReentrancyGuard {... */\n  mstore\n  0x01\n  dup1\n  0xa0\n  shl\n  sub\n  dup10\n  and\n  0x01\n  dup1\n  0xa0\n  shl\n  sub\n  not\n    /* \"contracts/contracts/protocol/TuliaPool.sol\":2798:3303  loanDetails = LoanDetails({... */\n  0x03\n    /* \"contracts/contracts/protocol/TuliaPool.sol\":509:5942  contract TuliaPool is ReentrancyGuard {... */\n  sload\n  and\n  or\n    /* \"contracts/contracts/protocol/TuliaPool.sol\":2798:3303  loanDetails = LoanDetails({... */\n  0x03\n    /* \"contracts/contracts/protocol/TuliaPool.sol\":509:5942  contract TuliaPool is ReentrancyGuard {... */\n  sstore\n  0x01\n  dup1\n  0xa0\n  shl\n  sub\n  dup8\n  and\n  0x01\n  dup1\n  0xa0\n  shl\n  sub\n  not\n  sload(0x04)\n  and\n  or\n  0x04\n  sstore\n  0x01\n  dup1\n  0xa0\n  shl\n  sub\n  dup9\n  and\n  0x01\n  dup1\n  0xa0\n  shl\n  sub\n  not\n  sload(0x05)\n  and\n  or\n  0x05\n  sstore\n  0x01\n  dup1\n  0xa0\n  shl\n  sub\n  and\n  0x01\n  dup1\n  0xa0\n  shl\n  sub\n  not\n  sload(0x06)\n  and\n  or\n  0x06\n  sstore\n  dup11\n  0x07\n  sstore\n  0x08\n  sstore\n  0x09\n  sstore\n  0x01\n  dup1\n  0xa0\n  shl\n  sub\n  and\n  0x01\n  dup1\n  0xa0\n  shl\n  sub\n  not\n  sload(0x0a)\n  and\n  or\n  0x0a\n  sstore\n  0x01\n  dup1\n  0xa0\n  shl\n  sub\n  not\n  sload(0x0b)\n  and\n  0x0b\n  sstore\n    /* \"contracts/contracts/protocol/TuliaPool.sol\":3249:3264  block.timestamp */\n  timestamp\n    /* \"contracts/contracts/protocol/TuliaPool.sol\":509:5942  contract TuliaPool is ReentrancyGuard {... */\n  0x0c\n  sstore\n  sstore(0x0d, 0x00)\n  0x01\n  dup1\n  0xa0\n  shl\n  sub\n  and\n  swap1\n  0x01\n  dup1\n  0xa8\n  shl\n  sub\n  not\n  and\n  or\n    /* \"contracts/contracts/protocol/TuliaPool.sol\":2736:2788  poolOrganizer = IPoolOrganizer(poolOrganizerAddress) */\n  0x02\n    /* \"contracts/contracts/protocol/TuliaPool.sol\":509:5942  contract TuliaPool is ReentrancyGuard {... */\n  sstore\n  mload(0x40)\n  swap6\n  dup7\n  mstore\n  0x01\n  dup1\n  0xa0\n  shl\n  sub\n  and\n  0x20\n  dup7\n  add\n  mstore\n  0x01\n  dup1\n  0xa0\n  shl\n  sub\n  and\n  0x40\n  dup6\n  add\n  mstore\n  0x01\n  dup1\n  0xa0\n  shl\n  sub\n  and\n    /* \"contracts/contracts/protocol/TuliaPool.sol\":3353:3430  LoanOfferCreated(lender, loanAmount, loanTokenAddress, repaymentTokenAddress) */\n  swap3\n  log2\n    /* \"contracts/contracts/protocol/TuliaPool.sol\":509:5942  contract TuliaPool is ReentrancyGuard {... */\n  mload(0x40)\n  dataSize(sub_0)\n  swap1\n  dup2\n  dataOffset(sub_0)\n  dup3\n  codecopy\n  return\ntag_25:\n  mstore(0x00, shl(0xe0, 0x4e487b71))\n  mstore(0x04, 0x41)\n  revert(0x00, 0x24)\ntag_23:\n  mload(0x40)\n  shl(0xe5, 0x461bcd)\n  dup2\n  mstore\n  0x20\n  0x04\n  dup3\n  add\n  mstore\n  0x17\n  0x24\n  dup3\n  add\n  mstore\n  0x496e76616c696420696e70757420616464726573736573000000000000000000\n  0x44\n  dup3\n  add\n  mstore\n  0x64\n  swap1\n  revert\n    /* \"contracts/contracts/protocol/TuliaPool.sol\":2537:2670  lender != address(0) && loanTokenAddress != address(0) && collateralVaultAddress != address(0) && repaymentTokenAddress != address(0) */\ntag_21:\n  pop\n  sub(shl(0xa0, 0x01), 0x01)\n    /* \"contracts/contracts/protocol/TuliaPool.sol\":509:5942  contract TuliaPool is ReentrancyGuard {... */\n  dup7\n  and\n    /* \"contracts/contracts/protocol/TuliaPool.sol\":2635:2670  repaymentTokenAddress != address(0) */\n  iszero\n  iszero\n    /* \"contracts/contracts/protocol/TuliaPool.sol\":2537:2670  lender != address(0) && loanTokenAddress != address(0) && collateralVaultAddress != address(0) && repaymentTokenAddress != address(0) */\n  jump(tag_22)\n    /* \"contracts/contracts/protocol/TuliaPool.sol\":2537:2631  lender != address(0) && loanTokenAddress != address(0) && collateralVaultAddress != address(0) */\ntag_19:\n  pop\n  sub(shl(0xa0, 0x01), 0x01)\n    /* \"contracts/contracts/protocol/TuliaPool.sol\":509:5942  contract TuliaPool is ReentrancyGuard {... */\n  dup10\n  and\n    /* \"contracts/contracts/protocol/TuliaPool.sol\":2595:2631  collateralVaultAddress != address(0) */\n  iszero\n  iszero\n    /* \"contracts/contracts/protocol/TuliaPool.sol\":2537:2631  lender != address(0) && loanTokenAddress != address(0) && collateralVaultAddress != address(0) */\n  jump(tag_20)\n    /* \"contracts/contracts/protocol/TuliaPool.sol\":2537:2591  lender != address(0) && loanTokenAddress != address(0) */\ntag_17:\n  pop\n  sub(shl(0xa0, 0x01), 0x01)\n    /* \"contracts/contracts/protocol/TuliaPool.sol\":509:5942  contract TuliaPool is ReentrancyGuard {... */\n  dup6\n  and\n    /* \"contracts/contracts/protocol/TuliaPool.sol\":2561:2591  loanTokenAddress != address(0) */\n  iszero\n  iszero\n    /* \"contracts/contracts/protocol/TuliaPool.sol\":2537:2591  lender != address(0) && loanTokenAddress != address(0) */\n  jump(tag_18)\n    /* \"contracts/contracts/protocol/TuliaPool.sol\":509:5942  contract TuliaPool is ReentrancyGuard {... */\ntag_14:\n  0x00\n  dup1\n  revert\ntag_1:\n  mload\n  swap1\n  sub(shl(0xa0, 0x01), 0x01)\n  dup3\n  and\n  dup3\n  sub\n  tag_14\n  jumpi\n  jump\t// out\nstop\n\nsub_0: assembly {\n        /* \"contracts/contracts/protocol/TuliaPool.sol\":509:5942  contract TuliaPool is ReentrancyGuard {... */\n      0x80\n      0x40\n      dup2\n      dup2\n      mstore\n      0x04\n      swap2\n      dup3\n      calldatasize\n      lt\n      iszero\n      tag_9\n      jumpi\n      0x00\n      dup1\n      revert\n    tag_9:\n      0x00\n      swap3\n      shr(0xe0, calldataload(0x00))\n      swap2\n      dup3\n      0x12261ee7\n      eq\n      tag_11\n      jumpi\n      pop\n      dup2\n      0x2e1283e3\n      eq\n      tag_13\n      jumpi\n      dup2\n      0x371fd8e6\n      eq\n      tag_15\n      jumpi\n      dup2\n      0x654c6295\n      eq\n      tag_17\n      jumpi\n      dup2\n      0x6b6d1955\n      eq\n      tag_19\n      jumpi\n      dup2\n      0x8db57994\n      eq\n      tag_21\n      jumpi\n      dup2\n      0x95cb741d\n      eq\n      tag_23\n      jumpi\n      dup2\n      0x9e9f669c\n      eq\n      tag_27\n      jumpi\n      dup2\n      0xc19d93fb\n      eq\n      tag_27\n      jumpi\n      dup2\n      0xc51b9507\n      eq\n      tag_29\n      jumpi\n      dup2\n      0xeb0c4955\n      eq\n      tag_31\n      jumpi\n      dup2\n      0xf30f29dd\n      eq\n      tag_33\n      jumpi\n      pop\n      0xf4b01b18\n      eq\n      tag_35\n      jumpi\n      0x00\n      dup1\n      revert\n    tag_35:\n      jumpi(tag_39, callvalue)\n      dup2\n      add(calldatasize, not(0x03))\n      slt\n      tag_39\n      jumpi\n      0x20\n      swap1\n        /* \"contracts/contracts/protocol/TuliaPool.sol\":5740:5762  loanDetails.loanAmount */\n      0x07\n        /* \"contracts/contracts/protocol/TuliaPool.sol\":509:5942  contract TuliaPool is ReentrancyGuard {... */\n      sload\n      swap1\n      mload\n      swap1\n      dup2\n      mstore\n      return\n    tag_39:\n      pop\n      dup1\n      revert\n    tag_33:\n      swap1\n      pop\n      jumpi(tag_43, callvalue)\n      dup2\n      add(calldatasize, not(0x03))\n      slt\n      tag_43\n      jumpi\n      tag_45\n      tag_1\n      jump\t// in\n    tag_45:\n      swap2\n      0x24\n      dup1\n      calldataload\n      swap3\n      0xff\n        /* \"contracts/contracts/protocol/TuliaPool.sol\":3536:3541  state */\n      0x02\n        /* \"contracts/contracts/protocol/TuliaPool.sol\":509:5942  contract TuliaPool is ReentrancyGuard {... */\n      sload\n      0xa0\n      shr\n      and\n      0x05\n      dup2\n      lt\n      iszero\n      tag_46\n      jumpi\n      tag_48\n      jumpi\n      sub(shl(0xa0, 0x01), 0x01)\n      swap5\n      dup6\n      and\n      swap5\n        /* \"contracts/contracts/protocol/TuliaPool.sol\":3612:3634  borrower != address(0) */\n      dup6\n      iszero\n        /* \"contracts/contracts/protocol/TuliaPool.sol\":509:5942  contract TuliaPool is ReentrancyGuard {... */\n      tag_50\n      jumpi\n        /* \"contracts/contracts/protocol/TuliaPool.sol\":5432:5476  loanDetails.loanAmount + interestForFullTerm */\n      tag_52\n        /* \"contracts/contracts/protocol/TuliaPool.sol\":5396:5415  calculateInterest() */\n      tag_53\n      tag_5\n      jump\t// in\n    tag_53:\n        /* \"contracts/contracts/protocol/TuliaPool.sol\":5432:5454  loanDetails.loanAmount */\n      0x07\n        /* \"contracts/contracts/protocol/TuliaPool.sol\":509:5942  contract TuliaPool is ReentrancyGuard {... */\n      sload\n        /* \"contracts/contracts/protocol/TuliaPool.sol\":5432:5476  loanDetails.loanAmount + interestForFullTerm */\n      tag_3\n      jump\t// in\n    tag_52:\n        /* \"contracts/contracts/protocol/TuliaPool.sol\":3749:3787  collateralAmount >= requiredCollateral */\n      dup6\n      lt\n        /* \"contracts/contracts/protocol/TuliaPool.sol\":509:5942  contract TuliaPool is ReentrancyGuard {... */\n      tag_54\n      jumpi\n      0x44\n      0x20\n      swap3\n      dup9\n      dup8\n      swap4\n        /* \"contracts/contracts/protocol/TuliaPool.sol\":3826:3853  loanDetails.collateralVault */\n      0x06\n        /* \"contracts/contracts/protocol/TuliaPool.sol\":509:5942  contract TuliaPool is ReentrancyGuard {... */\n      sload\n      and\n      dup10\n      dup9\n      mload\n      swap8\n      dup9\n      swap7\n      dup8\n      swap6\n      shl(0xe0, 0x6e553f65)\n        /* \"contracts/contracts/protocol/TuliaPool.sol\":3826:3889  loanDetails.collateralVault.deposit(collateralAmount, borrower) */\n      dup8\n      mstore\n      dup7\n      add\n        /* \"contracts/contracts/protocol/TuliaPool.sol\":509:5942  contract TuliaPool is ReentrancyGuard {... */\n      mstore\n      dup5\n      add\n      mstore\n        /* \"contracts/contracts/protocol/TuliaPool.sol\":3826:3889  loanDetails.collateralVault.deposit(collateralAmount, borrower) */\n      gas\n      call\n      dup1\n      iszero\n      tag_56\n      jumpi\n      tag_58\n      jumpi\n        /* \"contracts/contracts/protocol/TuliaPool.sol\":509:5942  contract TuliaPool is ReentrancyGuard {... */\n    tag_59:\n      pop\n        /* \"contracts/contracts/protocol/TuliaPool.sol\":3899:3919  loanDetails.borrower */\n      0x0b\n        /* \"contracts/contracts/protocol/TuliaPool.sol\":509:5942  contract TuliaPool is ReentrancyGuard {... */\n      dup1\n      sload\n      not(sub(shl(0xa0, 0x01), 0x01))\n      and\n      dup5\n      or\n      swap1\n      sstore\n        /* \"contracts/contracts/protocol/TuliaPool.sol\":3536:3541  state */\n      0x02\n        /* \"contracts/contracts/protocol/TuliaPool.sol\":509:5942  contract TuliaPool is ReentrancyGuard {... */\n      dup1\n      sload\n      not(shl(0xa0, 0xff))\n      and\n      shl(0xa0, 0x01)\n      or\n      swap1\n      sstore\n      mload\n      swap1\n      dup2\n      mstore\n        /* \"contracts/contracts/protocol/TuliaPool.sol\":3980:4021  LoanActivated(borrower, collateralAmount) */\n      0x5150ab7694a22fbc01c642bc10316565247df962fa3f0ac3b5d1a18ba45b485b\n      swap1\n        /* \"contracts/contracts/protocol/TuliaPool.sol\":509:5942  contract TuliaPool is ReentrancyGuard {... */\n      0x20\n      swap1\n        /* \"contracts/contracts/protocol/TuliaPool.sol\":3980:4021  LoanActivated(borrower, collateralAmount) */\n      log2\n        /* \"contracts/contracts/protocol/TuliaPool.sol\":509:5942  contract TuliaPool is ReentrancyGuard {... */\n      dup1\n      return\n        /* \"contracts/contracts/protocol/TuliaPool.sol\":3826:3889  loanDetails.collateralVault.deposit(collateralAmount, borrower) */\n    tag_58:\n        /* \"contracts/contracts/protocol/TuliaPool.sol\":509:5942  contract TuliaPool is ReentrancyGuard {... */\n      0x20\n        /* \"contracts/contracts/protocol/TuliaPool.sol\":3826:3889  loanDetails.collateralVault.deposit(collateralAmount, borrower) */\n      swap1\n      dup2\n      returndatasize\n      dup4\n      gt\n      tag_60\n      jumpi\n    tag_61:\n      tag_62\n      dup2\n      dup4\n      tag_4\n      jump\t// in\n    tag_62:\n      dup2\n      add\n        /* \"contracts/contracts/protocol/TuliaPool.sol\":509:5942  contract TuliaPool is ReentrancyGuard {... */\n      sub\n      slt\n      tag_63\n      jumpi\n        /* \"contracts/contracts/protocol/TuliaPool.sol\":3826:3889  loanDetails.collateralVault.deposit(collateralAmount, borrower) */\n      0x00\n      jump(tag_59)\n        /* \"contracts/contracts/protocol/TuliaPool.sol\":509:5942  contract TuliaPool is ReentrancyGuard {... */\n    tag_63:\n      0x00\n      dup1\n      revert\n        /* \"contracts/contracts/protocol/TuliaPool.sol\":3826:3889  loanDetails.collateralVault.deposit(collateralAmount, borrower) */\n    tag_60:\n      pop\n      returndatasize\n      jump(tag_61)\n    tag_56:\n        /* \"contracts/contracts/protocol/TuliaPool.sol\":509:5942  contract TuliaPool is ReentrancyGuard {... */\n      dup3\n      mload\n      returndatasize\n      dup8\n      dup3\n      returndatacopy\n      returndatasize\n      swap1\n      revert\n    tag_54:\n      pop\n      0x17\n      0x64\n      swap3\n      0x20\n      dup6\n      mload\n      swap4\n      shl(0xe5, 0x461bcd)\n      dup6\n      mstore\n      dup5\n      add\n      mstore\n      dup3\n      add\n      mstore\n      0x496e73756666696369656e7420636f6c6c61746572616c000000000000000000\n      0x44\n      dup3\n      add\n      mstore\n      revert\n    tag_50:\n      pop\n      0x18\n      0x64\n      swap3\n      0x20\n      dup6\n      mload\n      swap4\n      shl(0xe5, 0x461bcd)\n      dup6\n      mstore\n      dup5\n      add\n      mstore\n      dup3\n      add\n      mstore\n      0x496e76616c696420626f72726f77657220616464726573730000000000000000\n      0x44\n      dup3\n      add\n      mstore\n      revert\n    tag_48:\n      0x1b\n      0x64\n      swap3\n      0x20\n      dup6\n      mload\n      swap4\n      shl(0xe5, 0x461bcd)\n      dup6\n      mstore\n      dup5\n      add\n      mstore\n      dup3\n      add\n      mstore\n      0x4c6f616e206e6f7420696e20637265617461626c652073746174650000000000\n      0x44\n      dup3\n      add\n      mstore\n      revert\n    tag_46:\n      pop\n      shl(0xe0, 0x4e487b71)\n      dup7\n      mstore\n      0x21\n      swap1\n      mstore\n      dup5\n      revert\n    tag_43:\n      dup3\n      dup1\n      revert\n    tag_31:\n      pop\n      pop\n      jumpi(tag_39, callvalue)\n      dup2\n      add(calldatasize, not(0x03))\n      slt\n      tag_39\n      jumpi\n      0x20\n      swap1\n      tag_69\n      tag_5\n      jump\t// in\n    tag_69:\n      swap1\n      mload\n      swap1\n      dup2\n      mstore\n      return\n    tag_29:\n      pop\n      pop\n      jumpi(tag_39, callvalue)\n      dup2\n      add(calldatasize, not(0x03))\n      slt\n      tag_39\n      jumpi\n        /* \"contracts/contracts/protocol/TuliaPool.sol\":615:650  IPoolOrganizer public poolOrganizer */\n      0x02\n        /* \"contracts/contracts/protocol/TuliaPool.sol\":509:5942  contract TuliaPool is ReentrancyGuard {... */\n      sload\n      swap1\n      mload\n      sub(shl(0xa0, 0x01), 0x01)\n      swap1\n      swap2\n      and\n      dup2\n      mstore\n      0x20\n      swap1\n      return\n    tag_27:\n      pop\n      pop\n      jumpi(tag_39, callvalue)\n      dup2\n      add(calldatasize, not(0x03))\n      slt\n      tag_39\n      jumpi\n      tag_78\n      swap1\n      0xff\n        /* \"contracts/contracts/protocol/TuliaPool.sol\":1086:1108  LoanState public state */\n      0x02\n        /* \"contracts/contracts/protocol/TuliaPool.sol\":509:5942  contract TuliaPool is ReentrancyGuard {... */\n      sload\n      0xa0\n      shr\n      and\n      swap1\n      mload\n      swap2\n      dup3\n      swap2\n      dup3\n      tag_2\n      jump\t// in\n    tag_78:\n      sub\n      swap1\n      return\n    tag_23:\n      swap2\n      swap1\n      pop\n      jumpi(tag_43, callvalue)\n      dup3\n      add(calldatasize, not(0x03))\n      slt\n      tag_43\n      jumpi\n      0x0160\n      swap3\n      pop\n      0x01\n      dup1\n      0xa0\n      shl\n      sub\n      swap1\n      dup2\n      dup1\n        /* \"contracts/contracts/protocol/TuliaPool.sol\":1115:1145  LoanDetails public loanDetails */\n      0x03\n        /* \"contracts/contracts/protocol/TuliaPool.sol\":509:5942  contract TuliaPool is ReentrancyGuard {... */\n      sload\n      and\n      swap4\n      sload\n      and\n      swap2\n      dup1\n        /* \"contracts/contracts/protocol/TuliaPool.sol\":1115:1145  LoanDetails public loanDetails */\n      0x05\n        /* \"contracts/contracts/protocol/TuliaPool.sol\":509:5942  contract TuliaPool is ReentrancyGuard {... */\n      sload\n      and\n      swap1\n      dup1\n        /* \"contracts/contracts/protocol/TuliaPool.sol\":1115:1145  LoanDetails public loanDetails */\n      0x06\n        /* \"contracts/contracts/protocol/TuliaPool.sol\":509:5942  contract TuliaPool is ReentrancyGuard {... */\n      sload\n      and\n        /* \"contracts/contracts/protocol/TuliaPool.sol\":1115:1145  LoanDetails public loanDetails */\n      0x07\n        /* \"contracts/contracts/protocol/TuliaPool.sol\":509:5942  contract TuliaPool is ReentrancyGuard {... */\n      sload\n        /* \"contracts/contracts/protocol/TuliaPool.sol\":1115:1145  LoanDetails public loanDetails */\n      0x08\n        /* \"contracts/contracts/protocol/TuliaPool.sol\":509:5942  contract TuliaPool is ReentrancyGuard {... */\n      sload\n      swap1\n        /* \"contracts/contracts/protocol/TuliaPool.sol\":1115:1145  LoanDetails public loanDetails */\n      0x09\n        /* \"contracts/contracts/protocol/TuliaPool.sol\":509:5942  contract TuliaPool is ReentrancyGuard {... */\n      sload\n      swap3\n      dup5\n        /* \"contracts/contracts/protocol/TuliaPool.sol\":1115:1145  LoanDetails public loanDetails */\n      0x0a\n        /* \"contracts/contracts/protocol/TuliaPool.sol\":509:5942  contract TuliaPool is ReentrancyGuard {... */\n      sload\n      and\n      swap5\n        /* \"contracts/contracts/protocol/TuliaPool.sol\":1115:1145  LoanDetails public loanDetails */\n      0x0b\n        /* \"contracts/contracts/protocol/TuliaPool.sol\":509:5942  contract TuliaPool is ReentrancyGuard {... */\n      sload\n      and\n      swap6\n        /* \"contracts/contracts/protocol/TuliaPool.sol\":1115:1145  LoanDetails public loanDetails */\n      0x0c\n        /* \"contracts/contracts/protocol/TuliaPool.sol\":509:5942  contract TuliaPool is ReentrancyGuard {... */\n      sload\n      swap8\n        /* \"contracts/contracts/protocol/TuliaPool.sol\":1115:1145  LoanDetails public loanDetails */\n      0x0d\n        /* \"contracts/contracts/protocol/TuliaPool.sol\":509:5942  contract TuliaPool is ReentrancyGuard {... */\n      sload\n      swap10\n      dup2\n      mload\n      swap12\n      dup13\n      mstore\n      0x20\n      dup13\n      add\n      mstore\n      dup11\n      add\n      mstore\n      0x60\n      dup10\n      add\n      mstore\n      0x80\n      dup9\n      add\n      mstore\n      0xa0\n      dup8\n      add\n      mstore\n      0xc0\n      dup7\n      add\n      mstore\n      0xe0\n      dup6\n      add\n      mstore\n      0x0100\n      dup5\n      add\n      mstore\n      0x0120\n      dup4\n      add\n      mstore\n      0x0140\n      dup3\n      add\n      mstore\n      return\n    tag_21:\n      swap1\n      pop\n      jumpi(tag_43, callvalue)\n      dup3\n      add(calldatasize, not(0x03))\n      slt\n      tag_43\n      jumpi\n        /* \"@openzeppelin/contracts/security/ReentrancyGuard.sol\":2227:2330  modifier nonReentrant() {... */\n      tag_92\n      tag_6\n      jump\t// in\n    tag_92:\n        /* \"contracts/contracts/protocol/TuliaPool.sol\":509:5942  contract TuliaPool is ReentrancyGuard {... */\n      0xff\n        /* \"contracts/contracts/protocol/TuliaPool.sol\":4094:4099  state */\n      0x02\n        /* \"contracts/contracts/protocol/TuliaPool.sol\":509:5942  contract TuliaPool is ReentrancyGuard {... */\n      sload\n      0xa0\n      shr\n      and\n      0x05\n      dup2\n      lt\n      iszero\n      tag_93\n      jumpi\n        /* \"contracts/contracts/protocol/TuliaPool.sol\":4103:4120  LoanState.PENDING */\n      0x01\n        /* \"contracts/contracts/protocol/TuliaPool.sol\":4094:4120  state == LoanState.PENDING */\n      sub\n        /* \"contracts/contracts/protocol/TuliaPool.sol\":509:5942  contract TuliaPool is ReentrancyGuard {... */\n      tag_95\n      jumpi\n      sload\n        /* \"contracts/contracts/protocol/TuliaPool.sol\":4164:4175  loanDetails */\n      0x03\n        /* \"contracts/contracts/protocol/TuliaPool.sol\":509:5942  contract TuliaPool is ReentrancyGuard {... */\n      sload\n        /* \"contracts/contracts/protocol/TuliaPool.sol\":4238:4260  loanDetails.loanAmount */\n      0x07\n        /* \"contracts/contracts/protocol/TuliaPool.sol\":509:5942  contract TuliaPool is ReentrancyGuard {... */\n      sload\n        /* \"contracts/contracts/protocol/TuliaPool.sol\":4361:4395  LoanFunded(loanDetails.loanAmount) */\n      0x9e71d2fb732e68272b7e74ecfd14638673c1d77e19a5d390a3ffff054d57c44b\n      swap4\n        /* \"contracts/contracts/protocol/TuliaPool.sol\":509:5942  contract TuliaPool is ReentrancyGuard {... */\n      0x20\n      swap4\n      swap1\n      swap3\n        /* \"contracts/contracts/protocol/TuliaPool.sol\":4238:4260  loanDetails.loanAmount */\n      tag_97\n      swap3\n        /* \"contracts/contracts/protocol/TuliaPool.sol\":509:5942  contract TuliaPool is ReentrancyGuard {... */\n      swap2\n        /* \"contracts/contracts/protocol/TuliaPool.sol\":4231:4235  this */\n      address\n      swap2\n      sub(shl(0xa0, 0x01), 0x01)\n        /* \"contracts/contracts/protocol/TuliaPool.sol\":509:5942  contract TuliaPool is ReentrancyGuard {... */\n      swap1\n      dup2\n      and\n      swap2\n      and\n        /* \"contracts/contracts/protocol/TuliaPool.sol\":4238:4260  loanDetails.loanAmount */\n      tag_7\n      jump\t// in\n    tag_97:\n        /* \"contracts/contracts/protocol/TuliaPool.sol\":4297:4312  block.timestamp */\n      timestamp\n        /* \"contracts/contracts/protocol/TuliaPool.sol\":4271:4294  loanDetails.fundedBlock */\n      0x0d\n        /* \"contracts/contracts/protocol/TuliaPool.sol\":509:5942  contract TuliaPool is ReentrancyGuard {... */\n      sstore\n        /* \"contracts/contracts/protocol/TuliaPool.sol\":4094:4099  state */\n      0x02\n        /* \"contracts/contracts/protocol/TuliaPool.sol\":509:5942  contract TuliaPool is ReentrancyGuard {... */\n      dup1\n      sload\n      not(shl(0xa0, 0xff))\n      and\n      shl(0xa1, 0x01)\n      or\n      swap1\n      sstore\n        /* \"contracts/contracts/protocol/TuliaPool.sol\":4238:4260  loanDetails.loanAmount */\n      0x07\n        /* \"contracts/contracts/protocol/TuliaPool.sol\":509:5942  contract TuliaPool is ReentrancyGuard {... */\n      sload\n      swap1\n      mload\n      swap1\n      dup2\n      mstore\n        /* \"contracts/contracts/protocol/TuliaPool.sol\":4361:4395  LoanFunded(loanDetails.loanAmount) */\n      log1\n        /* \"contracts/contracts/protocol/TuliaPool.sol\":4103:4120  LoanState.PENDING */\n      0x01\n        /* \"contracts/contracts/protocol/TuliaPool.sol\":509:5942  contract TuliaPool is ReentrancyGuard {... */\n      dup2\n      sstore\n      dup1\n      return\n    tag_95:\n      0x20\n      0x64\n      swap3\n      mload\n      swap2\n      shl(0xe5, 0x461bcd)\n      dup4\n      mstore\n      dup3\n      add\n      mstore\n      0x1d\n      0x24\n      dup3\n      add\n      mstore\n      0x4c6f616e206d75737420626520696e2070656e64696e67207374617465000000\n      0x44\n      dup3\n      add\n      mstore\n      revert\n    tag_93:\n      shl(0xe0, 0x4e487b71)\n      dup5\n      mstore\n      0x21\n      dup3\n      mstore\n      0x24\n      dup5\n      revert\n    tag_19:\n      pop\n      pop\n      jumpi(tag_39, callvalue)\n      dup2\n      add(calldatasize, not(0x03))\n      slt\n      tag_39\n      jumpi\n      0x20\n        /* \"contracts/contracts/protocol/TuliaPool.sol\":5396:5415  calculateInterest() */\n      swap1\n        /* \"contracts/contracts/protocol/TuliaPool.sol\":5432:5476  loanDetails.loanAmount + interestForFullTerm */\n      tag_69\n        /* \"contracts/contracts/protocol/TuliaPool.sol\":5396:5415  calculateInterest() */\n      tag_53\n      tag_5\n      jump\t// in\n        /* \"contracts/contracts/protocol/TuliaPool.sol\":509:5942  contract TuliaPool is ReentrancyGuard {... */\n    tag_17:\n      dup4\n      dup4\n      jumpi(tag_39, callvalue)\n      0x20\n      swap3\n      dup4\n      add(calldatasize, not(0x03))\n      slt\n      tag_43\n      jumpi\n      dup4\n      tag_108\n      tag_1\n      jump\t// in\n    tag_108:\n        /* \"contracts/contracts/protocol/TuliaPool.sol\":5853:5880  loanDetails.collateralVault */\n      0x06\n        /* \"contracts/contracts/protocol/TuliaPool.sol\":509:5942  contract TuliaPool is ReentrancyGuard {... */\n      sload\n      dup5\n      mload\n      shl(0xe0, 0x70a08231)\n        /* \"contracts/contracts/protocol/TuliaPool.sol\":5853:5896  loanDetails.collateralVault.balanceOf(user) */\n      dup2\n      mstore\n      sub(shl(0xa0, 0x01), 0x01)\n        /* \"contracts/contracts/protocol/TuliaPool.sol\":509:5942  contract TuliaPool is ReentrancyGuard {... */\n      swap3\n      dup4\n      and\n        /* \"contracts/contracts/protocol/TuliaPool.sol\":5853:5896  loanDetails.collateralVault.balanceOf(user) */\n      swap5\n      dup2\n      add\n        /* \"contracts/contracts/protocol/TuliaPool.sol\":509:5942  contract TuliaPool is ReentrancyGuard {... */\n      swap5\n      swap1\n      swap5\n      mstore\n      dup4\n      swap2\n      0x24\n      swap2\n      dup4\n      swap2\n      and\n        /* \"contracts/contracts/protocol/TuliaPool.sol\":5853:5896  loanDetails.collateralVault.balanceOf(user) */\n      gas\n      staticcall\n      swap3\n      dup4\n      iszero\n      tag_109\n      jumpi\n      swap3\n      tag_111\n      jumpi\n        /* \"contracts/contracts/protocol/TuliaPool.sol\":509:5942  contract TuliaPool is ReentrancyGuard {... */\n    tag_112:\n      pop\n      mload\n      swap1\n      dup2\n      mstore\n      return\n        /* \"contracts/contracts/protocol/TuliaPool.sol\":5853:5896  loanDetails.collateralVault.balanceOf(user) */\n    tag_111:\n      swap1\n      swap2\n      pop\n      dup3\n      dup2\n      dup2\n      returndatasize\n      dup4\n      gt\n      tag_113\n      jumpi\n    tag_114:\n      tag_115\n      dup2\n      dup4\n      tag_4\n      jump\t// in\n    tag_115:\n      dup2\n      add\n        /* \"contracts/contracts/protocol/TuliaPool.sol\":509:5942  contract TuliaPool is ReentrancyGuard {... */\n      sub\n      slt\n      tag_63\n      jumpi\n      mload\n        /* \"contracts/contracts/protocol/TuliaPool.sol\":5853:5896  loanDetails.collateralVault.balanceOf(user) */\n      swap1\n      dup4\n      jump(tag_112)\n    tag_113:\n      pop\n      returndatasize\n      jump(tag_114)\n    tag_109:\n        /* \"contracts/contracts/protocol/TuliaPool.sol\":509:5942  contract TuliaPool is ReentrancyGuard {... */\n      dup3\n      mload\n      swap1\n      returndatasize\n      swap1\n      dup3\n      returndatacopy\n      returndatasize\n      swap1\n      revert\n    tag_15:\n      swap2\n      swap1\n      pop\n      jumpi(tag_63, callvalue)\n      jumpi(tag_63, slt(add(not(0x03), calldatasize), 0x20))\n        /* \"@openzeppelin/contracts/security/ReentrancyGuard.sol\":2227:2330  modifier nonReentrant() {... */\n      tag_122\n      tag_6\n      jump\t// in\n    tag_122:\n        /* \"contracts/contracts/protocol/TuliaPool.sol\":509:5942  contract TuliaPool is ReentrancyGuard {... */\n      0xff\n        /* \"contracts/contracts/protocol/TuliaPool.sol\":4479:4484  state */\n      0x02\n        /* \"contracts/contracts/protocol/TuliaPool.sol\":509:5942  contract TuliaPool is ReentrancyGuard {... */\n      sload\n      0xa0\n      shr\n      and\n      0x05\n      dup2\n      lt\n      iszero\n      tag_123\n      jumpi\n        /* \"contracts/contracts/protocol/TuliaPool.sol\":4479:4484  state */\n      0x02\n        /* \"contracts/contracts/protocol/TuliaPool.sol\":4479:4504  state == LoanState.ACTIVE */\n      sub\n        /* \"contracts/contracts/protocol/TuliaPool.sol\":509:5942  contract TuliaPool is ReentrancyGuard {... */\n      tag_125\n      jumpi\n        /* \"contracts/contracts/protocol/TuliaPool.sol\":4563:4607  loanDetails.loanAmount + calculateInterest() */\n      tag_127\n        /* \"contracts/contracts/protocol/TuliaPool.sol\":4563:4585  loanDetails.loanAmount */\n      0x07\n        /* \"contracts/contracts/protocol/TuliaPool.sol\":509:5942  contract TuliaPool is ReentrancyGuard {... */\n      sload\n        /* \"contracts/contracts/protocol/TuliaPool.sol\":4588:4607  calculateInterest() */\n      tag_128\n      tag_5\n      jump\t// in\n    tag_128:\n        /* \"contracts/contracts/protocol/TuliaPool.sol\":4563:4607  loanDetails.loanAmount + calculateInterest() */\n      swap1\n      tag_3\n      jump\t// in\n    tag_127:\n        /* \"contracts/contracts/protocol/TuliaPool.sol\":509:5942  contract TuliaPool is ReentrancyGuard {... */\n      swap2\n      dup3\n      dup2\n      calldataload\n        /* \"contracts/contracts/protocol/TuliaPool.sol\":4625:4649  amount >= totalRepayment */\n      lt\n        /* \"contracts/contracts/protocol/TuliaPool.sol\":509:5942  contract TuliaPool is ReentrancyGuard {... */\n      tag_129\n      jumpi\n      0x01\n      dup1\n      0xa0\n      shl\n      sub\n        /* \"contracts/contracts/protocol/TuliaPool.sol\":4774:4788  totalRepayment */\n      tag_131\n        /* \"contracts/contracts/protocol/TuliaPool.sol\":509:5942  contract TuliaPool is ReentrancyGuard {... */\n      dup5\n      dup3\n      sload(0x05)\n      and\n      dup4\n        /* \"contracts/contracts/protocol/TuliaPool.sol\":4563:4574  loanDetails */\n      0x03\n        /* \"contracts/contracts/protocol/TuliaPool.sol\":509:5942  contract TuliaPool is ReentrancyGuard {... */\n      sload\n      and\n        /* \"contracts/contracts/protocol/TuliaPool.sol\":4742:4752  msg.sender */\n      swap1\n      caller\n        /* \"contracts/contracts/protocol/TuliaPool.sol\":4774:4788  totalRepayment */\n      swap1\n      tag_7\n      jump\t// in\n    tag_131:\n        /* \"contracts/contracts/protocol/TuliaPool.sol\":4479:4484  state */\n      0x02\n        /* \"contracts/contracts/protocol/TuliaPool.sol\":509:5942  contract TuliaPool is ReentrancyGuard {... */\n      dup1\n      sload\n      not(shl(0xa0, 0xff))\n      dup2\n      and\n      shl(0xa0, 0x03)\n      or\n      swap1\n      swap2\n      sstore\n      and\n      swap1\n        /* \"contracts/contracts/protocol/TuliaPool.sol\":4943:4986  poolOrganizer.deregisterPool(address(this)) */\n      dup2\n      extcodesize\n      iszero\n      tag_63\n      jumpi\n        /* \"contracts/contracts/protocol/TuliaPool.sol\":509:5942  contract TuliaPool is ReentrancyGuard {... */\n      0x00\n      dup1\n      swap3\n      0x24\n      dup6\n      mload\n      dup1\n      swap6\n      dup2\n      swap4\n      shl(0xe0, 0x7e72c7d7)\n        /* \"contracts/contracts/protocol/TuliaPool.sol\":4943:4986  poolOrganizer.deregisterPool(address(this)) */\n      dup4\n      mstore\n        /* \"contracts/contracts/protocol/TuliaPool.sol\":4980:4984  this */\n      address\n        /* \"contracts/contracts/protocol/TuliaPool.sol\":4943:4986  poolOrganizer.deregisterPool(address(this)) */\n      dup8\n      dup5\n      add\n        /* \"contracts/contracts/protocol/TuliaPool.sol\":509:5942  contract TuliaPool is ReentrancyGuard {... */\n      mstore\n        /* \"contracts/contracts/protocol/TuliaPool.sol\":4943:4986  poolOrganizer.deregisterPool(address(this)) */\n      gas\n      call\n      dup1\n      iszero\n      tag_134\n      jumpi\n      tag_136\n      jumpi\n        /* \"contracts/contracts/protocol/TuliaPool.sol\":509:5942  contract TuliaPool is ReentrancyGuard {... */\n    tag_137:\n      dup5\n        /* \"contracts/contracts/protocol/TuliaPool.sol\":4826:4855  RepaymentMade(totalRepayment) */\n      0x4002dba848920f438092e08090cfb5fc47144c22704268b402c9553a1b5adfe6\n        /* \"contracts/contracts/protocol/TuliaPool.sol\":509:5942  contract TuliaPool is ReentrancyGuard {... */\n      0x20\n      dup7\n      dup7\n      mload\n        /* \"contracts/contracts/protocol/TuliaPool.sol\":5001:5013  LoanClosed() */\n      swap1\n      0x409fced1b85ae32a29fb1e18894d8361a5f2653dc27adf7102d86175c2901d7c\n      dup6\n      dup1\n      log1\n        /* \"contracts/contracts/protocol/TuliaPool.sol\":509:5942  contract TuliaPool is ReentrancyGuard {... */\n      dup2\n      mstore\n        /* \"contracts/contracts/protocol/TuliaPool.sol\":4826:4855  RepaymentMade(totalRepayment) */\n      log1\n        /* \"contracts/contracts/protocol/TuliaPool.sol\":509:5942  contract TuliaPool is ReentrancyGuard {... */\n      0x01\n      dup2\n      sstore\n      dup1\n      return\n        /* \"contracts/contracts/protocol/TuliaPool.sol\":4943:4986  poolOrganizer.deregisterPool(address(this)) */\n    tag_136:\n        /* \"contracts/contracts/protocol/TuliaPool.sol\":509:5942  contract TuliaPool is ReentrancyGuard {... */\n      swap1\n      swap2\n      swap4\n      pop\n      0xffffffffffffffff\n      dup3\n      gt\n      tag_138\n      jumpi\n      pop\n      dup3\n      mstore\n      0x00\n      swap2\n      dup2\n      0x20\n        /* \"contracts/contracts/protocol/TuliaPool.sol\":4943:4986  poolOrganizer.deregisterPool(address(this)) */\n      jump(tag_137)\n        /* \"contracts/contracts/protocol/TuliaPool.sol\":509:5942  contract TuliaPool is ReentrancyGuard {... */\n    tag_138:\n      0x41\n      swap1\n      mstore(0x00, shl(0xe0, 0x4e487b71))\n      mstore\n      revert(0x00, 0x24)\n        /* \"contracts/contracts/protocol/TuliaPool.sol\":4943:4986  poolOrganizer.deregisterPool(address(this)) */\n    tag_134:\n        /* \"contracts/contracts/protocol/TuliaPool.sol\":509:5942  contract TuliaPool is ReentrancyGuard {... */\n      dup4\n      mload\n      returndatasize\n      0x00\n      dup3\n      returndatacopy\n      returndatasize\n      swap1\n      revert\n    tag_129:\n      0x20\n      0x84\n      swap3\n      mload\n      swap2\n      shl(0xe5, 0x461bcd)\n      dup4\n      mstore\n      dup3\n      add\n      mstore\n      0x21\n      0x24\n      dup3\n      add\n      mstore\n      0x496e73756666696369656e7420616d6f756e7420666f722072657061796d656e\n      0x44\n      dup3\n      add\n      mstore\n      shl(0xfa, 0x1d)\n      0x64\n      dup3\n      add\n      mstore\n      revert\n    tag_125:\n      swap1\n      0x20\n      0x64\n      swap3\n      mload\n      swap2\n      shl(0xe5, 0x461bcd)\n      dup4\n      mstore\n      dup3\n      add\n      mstore\n      0x13\n      0x24\n      dup3\n      add\n      mstore\n      shl(0x68, 0x4c6f616e206d75737420626520616374697665)\n      0x44\n      dup3\n      add\n      mstore\n      revert\n    tag_123:\n      0x21\n      dup4\n      mstore(0x00, shl(0xe0, 0x4e487b71))\n      mstore\n      revert(0x00, 0x24)\n    tag_13:\n      dup3\n      jumpi(tag_63, callvalue)\n      jumpi(tag_63, slt(add(not(0x03), calldatasize), 0x00))\n      0x20\n      swap1\n        /* \"contracts/contracts/protocol/TuliaPool.sol\":5562:5585  loanDetails.fundedBlock */\n      0x0d\n        /* \"contracts/contracts/protocol/TuliaPool.sol\":509:5942  contract TuliaPool is ReentrancyGuard {... */\n      sload\n      swap1\n      mload\n      swap1\n      dup2\n      mstore\n      return\n    tag_11:\n      jumpi(tag_63, callvalue)\n      jumpi(tag_63, slt(add(not(0x03), calldatasize), 0x00))\n      and(sub(shl(0xa0, 0x01), 0x01), sload(0x01))\n      dup2\n      mstore\n      0x20\n      swap1\n      return\n    tag_1:\n      calldataload(0x04)\n      swap1\n      sub(shl(0xa0, 0x01), 0x01)\n      dup3\n      and\n      dup3\n      sub\n      tag_63\n      jumpi\n      jump\t// out\n    tag_2:\n      swap2\n      swap1\n      0x20\n      dup4\n      add\n      swap3\n      0x05\n      dup3\n      lt\n      iszero\n      tag_150\n      jumpi\n      mstore\n      jump\t// out\n    tag_150:\n      mstore(0x00, shl(0xe0, 0x4e487b71))\n      mstore(0x04, 0x21)\n      revert(0x00, 0x24)\n    tag_3:\n      swap2\n      swap1\n      dup3\n      add\n      dup1\n      swap3\n      gt\n      tag_152\n      jumpi\n      jump\t// out\n    tag_152:\n      mstore(0x00, shl(0xe0, 0x4e487b71))\n      mstore(0x04, 0x11)\n      revert(0x00, 0x24)\n    tag_4:\n      swap1\n      0x1f\n      dup1\n      not\n      swap2\n      add\n      and\n      dup2\n      add\n      swap1\n      dup2\n      lt\n      0xffffffffffffffff\n      dup3\n      gt\n      or\n      tag_154\n      jumpi\n      0x40\n      mstore\n      jump\t// out\n    tag_154:\n      mstore(0x00, shl(0xe0, 0x4e487b71))\n      mstore(0x04, 0x41)\n      revert(0x00, 0x24)\n        /* \"contracts/contracts/protocol/TuliaPool.sol\":5026:5281  function calculateInterest() public view returns (uint256) {... */\n    tag_5:\n        /* \"contracts/contracts/protocol/TuliaPool.sol\":5132:5154  loanDetails.startBlock */\n      0x0c\n        /* \"contracts/contracts/protocol/TuliaPool.sol\":509:5942  contract TuliaPool is ReentrancyGuard {... */\n      sload\n        /* \"contracts/contracts/protocol/TuliaPool.sol\":5114:5129  block.timestamp */\n      timestamp\n        /* \"contracts/contracts/protocol/TuliaPool.sol\":509:5942  contract TuliaPool is ReentrancyGuard {... */\n      sub\n        /* \"contracts/contracts/protocol/TuliaPool.sol\":5114:5129  block.timestamp */\n      timestamp\n        /* \"contracts/contracts/protocol/TuliaPool.sol\":509:5942  contract TuliaPool is ReentrancyGuard {... */\n      dup2\n      gt\n      tag_152\n      jumpi\n        /* \"contracts/contracts/protocol/TuliaPool.sol\":5171:5274  loanDetails.interestModel.calculateInterest(loanDetails.loanAmount, loanDetails.interestRate, duration) */\n      0x20\n        /* \"contracts/contracts/protocol/TuliaPool.sol\":509:5942  contract TuliaPool is ReentrancyGuard {... */\n      0x01\n      dup1\n      0xa0\n      shl\n      sub\n        /* \"contracts/contracts/protocol/TuliaPool.sol\":5171:5196  loanDetails.interestModel */\n      0x0a\n        /* \"contracts/contracts/protocol/TuliaPool.sol\":509:5942  contract TuliaPool is ReentrancyGuard {... */\n      sload\n      and\n      0x64\n        /* \"contracts/contracts/protocol/TuliaPool.sol\":5171:5196  loanDetails.interestModel */\n      0x07\n        /* \"contracts/contracts/protocol/TuliaPool.sol\":509:5942  contract TuliaPool is ReentrancyGuard {... */\n      sload\n        /* \"contracts/contracts/protocol/TuliaPool.sol\":5239:5263  loanDetails.interestRate */\n      0x08\n        /* \"contracts/contracts/protocol/TuliaPool.sol\":509:5942  contract TuliaPool is ReentrancyGuard {... */\n      sload\n      swap3\n      mload(0x40)\n      swap6\n      dup7\n      swap5\n      dup6\n      swap4\n      shl(0xe2, 0x01786f63)\n        /* \"contracts/contracts/protocol/TuliaPool.sol\":5171:5274  loanDetails.interestModel.calculateInterest(loanDetails.loanAmount, loanDetails.interestRate, duration) */\n      dup6\n      mstore\n        /* \"contracts/contracts/protocol/TuliaPool.sol\":5215:5237  loanDetails.loanAmount */\n      0x04\n        /* \"contracts/contracts/protocol/TuliaPool.sol\":5171:5274  loanDetails.interestModel.calculateInterest(loanDetails.loanAmount, loanDetails.interestRate, duration) */\n      dup6\n      add\n        /* \"contracts/contracts/protocol/TuliaPool.sol\":509:5942  contract TuliaPool is ReentrancyGuard {... */\n      mstore\n      0x24\n      dup5\n      add\n      mstore\n      0x44\n      dup4\n      add\n      mstore\n        /* \"contracts/contracts/protocol/TuliaPool.sol\":5171:5274  loanDetails.interestModel.calculateInterest(loanDetails.loanAmount, loanDetails.interestRate, duration) */\n      gas\n      staticcall\n      swap1\n      dup2\n      iszero\n      tag_158\n      jumpi\n      0x00\n      swap2\n      tag_160\n      jumpi\n        /* \"contracts/contracts/protocol/TuliaPool.sol\":5164:5274  return loanDetails.interestModel.calculateInterest(loanDetails.loanAmount, loanDetails.interestRate, duration) */\n      pop\n        /* \"contracts/contracts/protocol/TuliaPool.sol\":5026:5281  function calculateInterest() public view returns (uint256) {... */\n      swap1\n      jump\t// out\n        /* \"contracts/contracts/protocol/TuliaPool.sol\":5171:5274  loanDetails.interestModel.calculateInterest(loanDetails.loanAmount, loanDetails.interestRate, duration) */\n    tag_160:\n      swap1\n      pop\n      0x20\n      dup2\n      jumpi(tag_162, gt(0x20, returndatasize))\n    tag_163:\n      dup2\n      tag_164\n      0x20\n      swap4\n      dup4\n      tag_4\n      jump\t// in\n    tag_164:\n      dup2\n      add\n        /* \"contracts/contracts/protocol/TuliaPool.sol\":509:5942  contract TuliaPool is ReentrancyGuard {... */\n      sub\n      slt\n      tag_63\n      jumpi\n      mload\n        /* \"contracts/contracts/protocol/TuliaPool.sol\":5026:5281  function calculateInterest() public view returns (uint256) {... */\n      swap1\n      jump\t// out\n        /* \"contracts/contracts/protocol/TuliaPool.sol\":5171:5274  loanDetails.interestModel.calculateInterest(loanDetails.loanAmount, loanDetails.interestRate, duration) */\n    tag_162:\n      returndatasize\n      swap2\n      pop\n      jump(tag_163)\n    tag_158:\n        /* \"contracts/contracts/protocol/TuliaPool.sol\":509:5942  contract TuliaPool is ReentrancyGuard {... */\n      mload(0x40)\n      returndatasize\n      0x00\n      dup3\n      returndatacopy\n      returndatasize\n      swap1\n      revert\n        /* \"@openzeppelin/contracts/security/ReentrancyGuard.sol\":2336:2623  function _nonReentrantBefore() private {... */\n    tag_6:\n        /* \"@openzeppelin/contracts/security/ReentrancyGuard.sol\":1759:1760  2 */\n      0x02\n        /* \"@openzeppelin/contracts/security/ReentrancyGuard.sol\":2468:2475  _status */\n      0x00\n        /* \"contracts/contracts/protocol/TuliaPool.sol\":509:5942  contract TuliaPool is ReentrancyGuard {... */\n      sload\n        /* \"@openzeppelin/contracts/security/ReentrancyGuard.sol\":2468:2487  _status != _ENTERED */\n      eq\n        /* \"@openzeppelin/contracts/security/ReentrancyGuard.sol\":1759:1760  2 */\n      tag_167\n      jumpi\n      0x02\n        /* \"@openzeppelin/contracts/security/ReentrancyGuard.sol\":2468:2475  _status */\n      0x00\n        /* \"contracts/contracts/protocol/TuliaPool.sol\":509:5942  contract TuliaPool is ReentrancyGuard {... */\n      sstore\n        /* \"@openzeppelin/contracts/security/ReentrancyGuard.sol\":2336:2623  function _nonReentrantBefore() private {... */\n      jump\t// out\n        /* \"@openzeppelin/contracts/security/ReentrancyGuard.sol\":1759:1760  2 */\n    tag_167:\n        /* \"contracts/contracts/protocol/TuliaPool.sol\":509:5942  contract TuliaPool is ReentrancyGuard {... */\n      mload(0x40)\n      shl(0xe5, 0x461bcd)\n        /* \"@openzeppelin/contracts/security/ReentrancyGuard.sol\":1759:1760  2 */\n      dup2\n      mstore\n      0x20\n      0x04\n      dup3\n      add\n      mstore\n      0x1f\n      0x24\n      dup3\n      add\n        /* \"contracts/contracts/protocol/TuliaPool.sol\":509:5942  contract TuliaPool is ReentrancyGuard {... */\n      mstore\n        /* \"@openzeppelin/contracts/security/ReentrancyGuard.sol\":1759:1760  2 */\n      0x5265656e7472616e637947756172643a207265656e7472616e742063616c6c00\n        /* \"contracts/contracts/protocol/TuliaPool.sol\":509:5942  contract TuliaPool is ReentrancyGuard {... */\n      0x44\n      dup3\n      add\n        /* \"@openzeppelin/contracts/security/ReentrancyGuard.sol\":1759:1760  2 */\n      mstore\n      0x64\n      swap1\n      revert\n        /* \"@openzeppelin/contracts/token/ERC20/utils/SafeERC20.sol\":1702:1890  function safeTransferFrom(IERC20 token, address from, address to, uint256 value) internal {... */\n    tag_7:\n        /* \"contracts/contracts/protocol/TuliaPool.sol\":509:5942  contract TuliaPool is ReentrancyGuard {... */\n      mload(0x40)\n      shl(0xe0, 0x23b872dd)\n        /* \"@openzeppelin/contracts/token/ERC20/utils/SafeERC20.sol\":1829:1882  abi.encodeCall(token.transferFrom, (from, to, value)) */\n      0x20\n      dup3\n      add\n      swap1\n      dup2\n      mstore\n      sub(shl(0xa0, 0x01), 0x01)\n        /* \"contracts/contracts/protocol/TuliaPool.sol\":509:5942  contract TuliaPool is ReentrancyGuard {... */\n      swap4\n      dup5\n      and\n        /* \"@openzeppelin/contracts/token/ERC20/utils/SafeERC20.sol\":1829:1882  abi.encodeCall(token.transferFrom, (from, to, value)) */\n      0x24\n      dup4\n      add\n        /* \"contracts/contracts/protocol/TuliaPool.sol\":509:5942  contract TuliaPool is ReentrancyGuard {... */\n      mstore\n      swap4\n      dup4\n      and\n      0x44\n      dup3\n      add\n      mstore\n      0x64\n      dup1\n      dup3\n      add\n      swap6\n      swap1\n      swap6\n      mstore\n        /* \"@openzeppelin/contracts/token/ERC20/utils/SafeERC20.sol\":1829:1882  abi.encodeCall(token.transferFrom, (from, to, value)) */\n      swap4\n      dup5\n      mstore\n        /* \"contracts/contracts/protocol/TuliaPool.sol\":509:5942  contract TuliaPool is ReentrancyGuard {... */\n      0xffffffffffffffff\n      swap3\n        /* \"@openzeppelin/contracts/token/ERC20/utils/SafeERC20.sol\":1702:1890  function safeTransferFrom(IERC20 token, address from, address to, uint256 value) internal {... */\n      swap1\n      swap2\n        /* \"contracts/contracts/protocol/TuliaPool.sol\":509:5942  contract TuliaPool is ReentrancyGuard {... */\n      0xa0\n      dup6\n      add\n      swap2\n        /* \"@openzeppelin/contracts/token/ERC20/utils/SafeERC20.sol\":1829:1882  abi.encodeCall(token.transferFrom, (from, to, value)) */\n      swap1\n        /* \"contracts/contracts/protocol/TuliaPool.sol\":509:5942  contract TuliaPool is ReentrancyGuard {... */\n      dup5\n      dup4\n      gt\n      dup7\n      dup5\n      lt\n      or\n      tag_154\n      jumpi\n      0x00\n      swap4\n      dup5\n      swap4\n      0x40\n      mstore\n      and\n        /* \"@openzeppelin/contracts/utils/Address.sol\":3462:3493  target.call{value: value}(data) */\n      swap5\n      mload\n      swap1\n      dup3\n      dup7\n      gas\n      call\n      swap1\n        /* \"contracts/contracts/protocol/TuliaPool.sol\":509:5942  contract TuliaPool is ReentrancyGuard {... */\n      jumpi(tag_171, iszero(returndatasize))\n      returndatasize\n      swap1\n      dup2\n      gt\n      tag_154\n      jumpi\n        /* \"@openzeppelin/contracts/utils/Address.sol\":3510:3565  verifyCallResultFromTarget(target, success, returndata) */\n      tag_175\n        /* \"contracts/contracts/protocol/TuliaPool.sol\":509:5942  contract TuliaPool is ReentrancyGuard {... */\n      swap2\n      mload(0x40)\n      swap2\n      tag_176\n        /* \"@openzeppelin/contracts/token/ERC20/utils/SafeERC20.sol\":1829:1882  abi.encodeCall(token.transferFrom, (from, to, value)) */\n      0x20\n        /* \"contracts/contracts/protocol/TuliaPool.sol\":509:5942  contract TuliaPool is ReentrancyGuard {... */\n      not(0x1f)\n      0x1f\n      dup5\n      add\n      and\n      add\n      dup5\n      tag_4\n      jump\t// in\n    tag_176:\n      dup3\n      mstore\n      returndatasize\n      0x00\n        /* \"@openzeppelin/contracts/token/ERC20/utils/SafeERC20.sol\":1829:1882  abi.encodeCall(token.transferFrom, (from, to, value)) */\n      0x20\n        /* \"contracts/contracts/protocol/TuliaPool.sol\":509:5942  contract TuliaPool is ReentrancyGuard {... */\n      dup5\n      add\n      returndatacopy\n    tag_177:\n        /* \"@openzeppelin/contracts/utils/Address.sol\":3510:3565  verifyCallResultFromTarget(target, success, returndata) */\n      dup4\n      tag_8\n      jump\t// in\n    tag_175:\n        /* \"contracts/contracts/protocol/TuliaPool.sol\":509:5942  contract TuliaPool is ReentrancyGuard {... */\n      dup1\n      mload\n        /* \"@openzeppelin/contracts/token/ERC20/utils/SafeERC20.sol\":4551:4573  returndata.length != 0 */\n      swap1\n      dup2\n      iszero\n      iszero\n        /* \"@openzeppelin/contracts/token/ERC20/utils/SafeERC20.sol\":4551:4608  returndata.length != 0 && !abi.decode(returndata, (bool)) */\n      swap2\n      dup3\n      tag_178\n      jumpi\n        /* \"contracts/contracts/protocol/TuliaPool.sol\":509:5942  contract TuliaPool is ReentrancyGuard {... */\n    tag_179:\n        /* \"@openzeppelin/contracts/token/ERC20/utils/SafeERC20.sol\":4547:4682  if (returndata.length != 0 && !abi.decode(returndata, (bool))) {... */\n      pop\n      pop\n      tag_180\n      jumpi\n        /* \"@openzeppelin/contracts/token/ERC20/utils/SafeERC20.sol\":1702:1890  function safeTransferFrom(IERC20 token, address from, address to, uint256 value) internal {... */\n      pop\n      jump\t// out\n        /* \"@openzeppelin/contracts/token/ERC20/utils/SafeERC20.sol\":4547:4682  if (returndata.length != 0 && !abi.decode(returndata, (bool))) {... */\n    tag_180:\n        /* \"@openzeppelin/contracts/token/ERC20/utils/SafeERC20.sol\":1829:1882  abi.encodeCall(token.transferFrom, (from, to, value)) */\n      0x24\n        /* \"contracts/contracts/protocol/TuliaPool.sol\":509:5942  contract TuliaPool is ReentrancyGuard {... */\n      swap1\n      mload(0x40)\n        /* \"@openzeppelin/contracts/token/ERC20/utils/SafeERC20.sol\":4631:4671  SafeERC20FailedOperation(address(token)) */\n      swap1\n      shl(0xe0, 0x5274afe7)\n      dup3\n      mstore\n      0x04\n      dup3\n      add\n        /* \"contracts/contracts/protocol/TuliaPool.sol\":509:5942  contract TuliaPool is ReentrancyGuard {... */\n      mstore\n        /* \"@openzeppelin/contracts/token/ERC20/utils/SafeERC20.sol\":4631:4671  SafeERC20FailedOperation(address(token)) */\n      revert\n        /* \"@openzeppelin/contracts/token/ERC20/utils/SafeERC20.sol\":4551:4608  returndata.length != 0 && !abi.decode(returndata, (bool)) */\n    tag_178:\n        /* \"@openzeppelin/contracts/token/ERC20/utils/SafeERC20.sol\":4578:4608  abi.decode(returndata, (bool)) */\n      dup2\n      swap3\n      pop\n      swap1\n        /* \"@openzeppelin/contracts/token/ERC20/utils/SafeERC20.sol\":1829:1882  abi.encodeCall(token.transferFrom, (from, to, value)) */\n      0x20\n        /* \"@openzeppelin/contracts/token/ERC20/utils/SafeERC20.sol\":4578:4608  abi.decode(returndata, (bool)) */\n      swap2\n      dup2\n      add\n        /* \"contracts/contracts/protocol/TuliaPool.sol\":509:5942  contract TuliaPool is ReentrancyGuard {... */\n      sub\n      slt\n      tag_63\n      jumpi\n        /* \"@openzeppelin/contracts/token/ERC20/utils/SafeERC20.sol\":1829:1882  abi.encodeCall(token.transferFrom, (from, to, value)) */\n      0x20\n        /* \"@openzeppelin/contracts/token/ERC20/utils/SafeERC20.sol\":4578:4608  abi.decode(returndata, (bool)) */\n      add\n        /* \"contracts/contracts/protocol/TuliaPool.sol\":509:5942  contract TuliaPool is ReentrancyGuard {... */\n      mload\n      dup1\n      iszero\n      swap1\n      dup2\n      iszero\n      sub\n      tag_63\n      jumpi\n        /* \"@openzeppelin/contracts/token/ERC20/utils/SafeERC20.sol\":4551:4608  returndata.length != 0 && !abi.decode(returndata, (bool)) */\n      0x00\n      dup1\n      jump(tag_179)\n        /* \"contracts/contracts/protocol/TuliaPool.sol\":509:5942  contract TuliaPool is ReentrancyGuard {... */\n    tag_171:\n      pop\n        /* \"@openzeppelin/contracts/utils/Address.sol\":3510:3565  verifyCallResultFromTarget(target, success, returndata) */\n      tag_175\n        /* \"contracts/contracts/protocol/TuliaPool.sol\":509:5942  contract TuliaPool is ReentrancyGuard {... */\n      swap1\n      0x60\n      swap1\n      jump(tag_177)\n        /* \"@openzeppelin/contracts/utils/Address.sol\":4625:5207  function verifyCallResultFromTarget(... */\n    tag_8:\n      swap1\n        /* \"@openzeppelin/contracts/utils/Address.sol\":4797:4805  !success */\n      tag_186\n      jumpi\n      pop\n        /* \"contracts/contracts/protocol/TuliaPool.sol\":509:5942  contract TuliaPool is ReentrancyGuard {... */\n      dup1\n      mload\n        /* \"@openzeppelin/contracts/utils/Address.sol\":5874:5895  returndata.length > 0 */\n      iszero\n        /* \"@openzeppelin/contracts/utils/Address.sol\":5874:5891  returndata.length */\n      tag_188\n      jumpi\n        /* \"@openzeppelin/contracts/utils/Address.sol\":6046:6188  assembly {... */\n      dup1\n      mload\n      swap1\n      0x20\n      add\n      revert\n        /* \"@openzeppelin/contracts/utils/Address.sol\":5870:6253  if (returndata.length > 0) {... */\n    tag_188:\n        /* \"contracts/contracts/protocol/TuliaPool.sol\":509:5942  contract TuliaPool is ReentrancyGuard {... */\n      mload(0x40)\n      shl(0xe1, 0x0a12f521)\n        /* \"@openzeppelin/contracts/utils/Address.sol\":6225:6242  FailedInnerCall() */\n      dup2\n      mstore\n      0x04\n      swap1\n      revert\n        /* \"@openzeppelin/contracts/utils/Address.sol\":4793:5201  if (!success) {... */\n    tag_186:\n        /* \"contracts/contracts/protocol/TuliaPool.sol\":509:5942  contract TuliaPool is ReentrancyGuard {... */\n      dup2\n      mload\n        /* \"@openzeppelin/contracts/utils/Address.sol\":5045:5067  returndata.length == 0 */\n      iszero\n        /* \"@openzeppelin/contracts/utils/Address.sol\":5045:5094  returndata.length == 0 && target.code.length == 0 */\n      dup1\n      tag_190\n      jumpi\n        /* \"@openzeppelin/contracts/utils/Address.sol\":4793:5201  if (!success) {... */\n    tag_191:\n        /* \"@openzeppelin/contracts/utils/Address.sol\":5041:5160  if (returndata.length == 0 && target.code.length == 0) {... */\n      tag_192\n      jumpi\n        /* \"@openzeppelin/contracts/utils/Address.sol\":5173:5190  return returndata */\n      pop\n      swap1\n      jump\t// out\n        /* \"@openzeppelin/contracts/utils/Address.sol\":5041:5160  if (returndata.length == 0 && target.code.length == 0) {... */\n    tag_192:\n        /* \"contracts/contracts/protocol/TuliaPool.sol\":509:5942  contract TuliaPool is ReentrancyGuard {... */\n      mload(0x40)\n      shl(0xe0, 0x9996b315)\n        /* \"@openzeppelin/contracts/utils/Address.sol\":5121:5145  AddressEmptyCode(target) */\n      dup2\n      mstore\n      sub(shl(0xa0, 0x01), 0x01)\n        /* \"contracts/contracts/protocol/TuliaPool.sol\":509:5942  contract TuliaPool is ReentrancyGuard {... */\n      swap1\n      swap2\n      and\n        /* \"@openzeppelin/contracts/utils/Address.sol\":5121:5145  AddressEmptyCode(target) */\n      0x04\n      dup3\n      add\n        /* \"contracts/contracts/protocol/TuliaPool.sol\":509:5942  contract TuliaPool is ReentrancyGuard {... */\n      mstore\n      0x24\n      swap1\n        /* \"@openzeppelin/contracts/utils/Address.sol\":5121:5145  AddressEmptyCode(target) */\n      revert\n        /* \"@openzeppelin/contracts/utils/Address.sol\":5045:5094  returndata.length == 0 && target.code.length == 0 */\n    tag_190:\n        /* \"@openzeppelin/contracts/utils/Address.sol\":5071:5089  target.code.length */\n      pop\n      dup1\n      extcodesize\n        /* \"@openzeppelin/contracts/utils/Address.sol\":5071:5094  target.code.length == 0 */\n      iszero\n        /* \"@openzeppelin/contracts/utils/Address.sol\":5045:5094  returndata.length == 0 && target.code.length == 0 */\n      jump(tag_191)\n\n    auxdata: 0xa26469706673582212203d1e43bc6e9f3be7edce4c664a25e6a3faad2f65bf82a01f8696f3b47a83edc964736f6c63430008190033\n}\n",
				"bytecode": {
					"linkReferences": {},
					"object": "60803461032857601f610dee38819003918201601f19168301916001600160401b038311848410176102995780849261014094604052833981010312610328576100488161032c565b6100546020830161032c565b916100616040820161032c565b9161006e6060830161032c565b9260808301519460a08401519360c08101519060e081015160018060a01b0381168103610328576101008201516001600160a01b0381169290839003610328576101206100bb910161032c565b60015f55916001600160a01b038716151580610316575b80610304575b806102f2575b156102ad57600180546001600160a01b031916919091179055600254604051979093906001600160401b036101608a01908111908a1117610299577f3d48195705780f5c10a0d217f778f0f6d562cb1a6a699da31c0d6d756aacedfc995f6101408b8e61016060609e0160405260018060a01b038d16825260018060a01b038b16602083015260018060a01b038c16604083015260018060a01b0385168e83015260808201528460a08201528560c082015260018060a01b03871660e08201528261010082015242610120820152015260018060a01b03891660018060a01b0319600354161760035560018060a01b03871660018060a01b0319600454161760045560018060a01b03881660018060a01b0319600554161760055560018060a01b031660018060a01b031960065416176006558a60075560085560095560018060a01b031660018060a01b0319600a541617600a5560018060a01b0319600b5416600b5542600c555f600d5560018060a01b03169060018060a81b0319161760025560405195865260018060a01b0316602086015260018060a01b0316604085015260018060a01b031692a2604051610aad90816103418239f35b634e487b7160e01b5f52604160045260245ffd5b60405162461bcd60e51b815260206004820152601760248201527f496e76616c696420696e707574206164647265737365730000000000000000006044820152606490fd5b506001600160a01b03861615156100de565b506001600160a01b03891615156100d8565b506001600160a01b03851615156100d2565b5f80fd5b51906001600160a01b03821682036103285756fe6080604081815260049182361015610015575f80fd5b5f925f3560e01c91826312261ee71461077d575081632e1283e31461075f578163371fd8e614610580578163654c6295146104e95781636b6d1955146104c95781638db57994146103d357816395cb741d146103465781639e9f669c14610318578163c19d93fb14610318578163c51b9507146102ef578163eb0c4955146102cb578163f30f29dd146100d2575063f4b01b18146100b1575f80fd5b346100ce57816003193601126100ce576020906007549051908152f35b5080fd5b9050346102c757816003193601126102c7576100ec6107a0565b91602480359260ff60025460a01c1660058110156102b557610274576001600160a01b039485169485156102325761012d610125610834565b6007546107dd565b85106101f0576044602092888793600654168988519788968795636e553f6560e01b87528601528401525af180156101e6576101b7575b50600b80546001600160a01b031916841790556002805460ff60a01b1916600160a01b179055519081527f5150ab7694a22fbc01c642bc10316565247df962fa3f0ac3b5d1a18ba45b485b90602090a280f35b602090813d83116101df575b6101cd81836107fe565b810103126101db575f610164565b5f80fd5b503d6101c3565b82513d87823e3d90fd5b506017606492602085519362461bcd60e51b85528401528201527f496e73756666696369656e7420636f6c6c61746572616c0000000000000000006044820152fd5b506018606492602085519362461bcd60e51b85528401528201527f496e76616c696420626f72726f776572206164647265737300000000000000006044820152fd5b601b606492602085519362461bcd60e51b85528401528201527f4c6f616e206e6f7420696e20637265617461626c6520737461746500000000006044820152fd5b50634e487b7160e01b86526021905284fd5b8280fd5b5050346100ce57816003193601126100ce576020906102e8610834565b9051908152f35b5050346100ce57816003193601126100ce5760025490516001600160a01b039091168152602090f35b5050346100ce57816003193601126100ce576103429060ff60025460a01c169051918291826107b6565b0390f35b919050346102c757826003193601126102c757610160925060018060a01b0390818060035416935416918060055416908060065416600754600854906009549284600a541694600b541695600c5497600d549981519b8c5260208c01528a01526060890152608088015260a087015260c086015260e0850152610100840152610120830152610140820152f35b9050346102c757826003193601126102c7576103ed6108c4565b60ff60025460a01c1660058110156104b65760010361047457546003546007547f9e71d2fb732e68272b7e74ecfd14638673c1d77e19a5d390a3ffff054d57c44b93602093909261044d929130916001600160a01b039081169116610918565b42600d556002805460ff60a01b1916600160a11b1790556007549051908152a16001815580f35b6020606492519162461bcd60e51b8352820152601d60248201527f4c6f616e206d75737420626520696e2070656e64696e672073746174650000006044820152fd5b634e487b7160e01b845260218252602484fd5b5050346100ce57816003193601126100ce576020906102e8610125610834565b8383346100ce57602092836003193601126102c757836105076107a0565b60065484516370a0823160e01b81526001600160a01b039283169481019490945283916024918391165afa9283156105755792610546575b5051908152f35b9091508281813d831161056e575b61055e81836107fe565b810103126101db5751908361053f565b503d610554565b8251903d90823e3d90fd5b919050346101db5760203660031901126101db5761059c6108c4565b60ff60025460a01c16600581101561074c57600203610713576105c96007546105c3610834565b906107dd565b91828135106106c75760018060a01b036105ef8482600554168360035416903390610918565b6002805460ff60a01b198116600360a01b179091551690813b156101db575f80926024855180958193637e72c7d760e01b835230878401525af180156106bd5761068a575b847f4002dba848920f438092e08090cfb5fc47144c22704268b402c9553a1b5adfe66020868651907f409fced1b85ae32a29fb1e18894d8361a5f2653dc27adf7102d86175c2901d7c8580a18152a16001815580f35b9091935067ffffffffffffffff82116106aa575082525f91816020610634565b604190634e487b7160e01b5f525260245ffd5b83513d5f823e3d90fd5b6020608492519162461bcd60e51b8352820152602160248201527f496e73756666696369656e7420616d6f756e7420666f722072657061796d656e6044820152601d60fa1b6064820152fd5b906020606492519162461bcd60e51b835282015260136024820152724c6f616e206d7573742062652061637469766560681b6044820152fd5b602183634e487b7160e01b5f525260245ffd5b82346101db575f3660031901126101db57602090600d549051908152f35b346101db575f3660031901126101db576001546001600160a01b03168152602090f35b600435906001600160a01b03821682036101db57565b9190602083019260058210156107c95752565b634e487b7160e01b5f52602160045260245ffd5b919082018092116107ea57565b634e487b7160e01b5f52601160045260245ffd5b90601f8019910116810190811067ffffffffffffffff82111761082057604052565b634e487b7160e01b5f52604160045260245ffd5b600c5442034281116107ea57602060018060a01b03600a541660646007546008549260405195869485936301786f6360e21b85526004850152602484015260448301525afa9081156108b9575f9161088a575090565b90506020813d6020116108b1575b816108a5602093836107fe565b810103126101db575190565b3d9150610898565b6040513d5f823e3d90fd5b60025f54146108d35760025f55565b60405162461bcd60e51b815260206004820152601f60248201527f5265656e7472616e637947756172643a207265656e7472616e742063616c6c006044820152606490fd5b6040516323b872dd60e01b602082019081526001600160a01b039384166024830152938316604482015260648082019590955293845267ffffffffffffffff92909160a08501919084831186841017610820575f9384936040521694519082865af1903d15610a07573d908111610820576109b591604051916109a56020601f19601f84011601846107fe565b82523d5f602084013e5b83610a14565b80519081151591826109e3575b50506109cb5750565b60249060405190635274afe760e01b82526004820152fd5b81925090602091810103126101db57602001518015908115036101db575f806109c2565b506109b5906060906109af565b90610a3b5750805115610a2957805190602001fd5b604051630a12f52160e11b8152600490fd5b81511580610a6e575b610a4c575090565b604051639996b31560e01b81526001600160a01b039091166004820152602490fd5b50803b15610a4456fea26469706673582212203d1e43bc6e9f3be7edce4c664a25e6a3faad2f65bf82a01f8696f3b47a83edc964736f6c63430008190033",
					"opcodes": "PUSH1 0x80 CALLVALUE PUSH2 0x328 JUMPI PUSH1 0x1F PUSH2 0xDEE CODESIZE DUP2 SWAP1 SUB SWAP2 DUP3 ADD PUSH1 0x1F NOT AND DUP4 ADD SWAP2 PUSH1 0x1 PUSH1 0x1 PUSH1 0x40 SHL SUB DUP4 GT DUP5 DUP5 LT OR PUSH2 0x299 JUMPI DUP1 DUP5 SWAP3 PUSH2 0x140 SWAP5 PUSH1 0x40 MSTORE DUP4 CODECOPY DUP2 ADD SUB SLT PUSH2 0x328 JUMPI PUSH2 0x48 DUP2 PUSH2 0x32C JUMP JUMPDEST PUSH2 0x54 PUSH1 0x20 DUP4 ADD PUSH2 0x32C JUMP JUMPDEST SWAP2 PUSH2 0x61 PUSH1 0x40 DUP3 ADD PUSH2 0x32C JUMP JUMPDEST SWAP2 PUSH2 0x6E PUSH1 0x60 DUP4 ADD PUSH2 0x32C JUMP JUMPDEST SWAP3 PUSH1 0x80 DUP4 ADD MLOAD SWAP5 PUSH1 0xA0 DUP5 ADD MLOAD SWAP4 PUSH1 0xC0 DUP2 ADD MLOAD SWAP1 PUSH1 0xE0 DUP2 ADD MLOAD PUSH1 0x1 DUP1 PUSH1 0xA0 SHL SUB DUP2 AND DUP2 SUB PUSH2 0x328 JUMPI PUSH2 0x100 DUP3 ADD MLOAD PUSH1 0x1 PUSH1 0x1 PUSH1 0xA0 SHL SUB DUP2 AND SWAP3 SWAP1 DUP4 SWAP1 SUB PUSH2 0x328 JUMPI PUSH2 0x120 PUSH2 0xBB SWAP2 ADD PUSH2 0x32C JUMP JUMPDEST PUSH1 0x1 PUSH0 SSTORE SWAP2 PUSH1 0x1 PUSH1 0x1 PUSH1 0xA0 SHL SUB DUP8 AND ISZERO ISZERO DUP1 PUSH2 0x316 JUMPI JUMPDEST DUP1 PUSH2 0x304 JUMPI JUMPDEST DUP1 PUSH2 0x2F2 JUMPI JUMPDEST ISZERO PUSH2 0x2AD JUMPI PUSH1 0x1 DUP1 SLOAD PUSH1 0x1 PUSH1 0x1 PUSH1 0xA0 SHL SUB NOT AND SWAP2 SWAP1 SWAP2 OR SWAP1 SSTORE PUSH1 0x2 SLOAD PUSH1 0x40 MLOAD SWAP8 SWAP1 SWAP4 SWAP1 PUSH1 0x1 PUSH1 0x1 PUSH1 0x40 SHL SUB PUSH2 0x160 DUP11 ADD SWAP1 DUP2 GT SWAP1 DUP11 GT OR PUSH2 0x299 JUMPI PUSH32 0x3D48195705780F5C10A0D217F778F0F6D562CB1A6A699DA31C0D6D756AACEDFC SWAP10 PUSH0 PUSH2 0x140 DUP12 DUP15 PUSH2 0x160 PUSH1 0x60 SWAP15 ADD PUSH1 0x40 MSTORE PUSH1 0x1 DUP1 PUSH1 0xA0 SHL SUB DUP14 AND DUP3 MSTORE PUSH1 0x1 DUP1 PUSH1 0xA0 SHL SUB DUP12 AND PUSH1 0x20 DUP4 ADD MSTORE PUSH1 0x1 DUP1 PUSH1 0xA0 SHL SUB DUP13 AND PUSH1 0x40 DUP4 ADD MSTORE PUSH1 0x1 DUP1 PUSH1 0xA0 SHL SUB DUP6 AND DUP15 DUP4 ADD MSTORE PUSH1 0x80 DUP3 ADD MSTORE DUP5 PUSH1 0xA0 DUP3 ADD MSTORE DUP6 PUSH1 0xC0 DUP3 ADD MSTORE PUSH1 0x1 DUP1 PUSH1 0xA0 SHL SUB DUP8 AND PUSH1 0xE0 DUP3 ADD MSTORE DUP3 PUSH2 0x100 DUP3 ADD MSTORE TIMESTAMP PUSH2 0x120 DUP3 ADD MSTORE ADD MSTORE PUSH1 0x1 DUP1 PUSH1 0xA0 SHL SUB DUP10 AND PUSH1 0x1 DUP1 PUSH1 0xA0 SHL SUB NOT PUSH1 0x3 SLOAD AND OR PUSH1 0x3 SSTORE PUSH1 0x1 DUP1 PUSH1 0xA0 SHL SUB DUP8 AND PUSH1 0x1 DUP1 PUSH1 0xA0 SHL SUB NOT PUSH1 0x4 SLOAD AND OR PUSH1 0x4 SSTORE PUSH1 0x1 DUP1 PUSH1 0xA0 SHL SUB DUP9 AND PUSH1 0x1 DUP1 PUSH1 0xA0 SHL SUB NOT PUSH1 0x5 SLOAD AND OR PUSH1 0x5 SSTORE PUSH1 0x1 DUP1 PUSH1 0xA0 SHL SUB AND PUSH1 0x1 DUP1 PUSH1 0xA0 SHL SUB NOT PUSH1 0x6 SLOAD AND OR PUSH1 0x6 SSTORE DUP11 PUSH1 0x7 SSTORE PUSH1 0x8 SSTORE PUSH1 0x9 SSTORE PUSH1 0x1 DUP1 PUSH1 0xA0 SHL SUB AND PUSH1 0x1 DUP1 PUSH1 0xA0 SHL SUB NOT PUSH1 0xA SLOAD AND OR PUSH1 0xA SSTORE PUSH1 0x1 DUP1 PUSH1 0xA0 SHL SUB NOT PUSH1 0xB SLOAD AND PUSH1 0xB SSTORE TIMESTAMP PUSH1 0xC SSTORE PUSH0 PUSH1 0xD SSTORE PUSH1 0x1 DUP1 PUSH1 0xA0 SHL SUB AND SWAP1 PUSH1 0x1 DUP1 PUSH1 0xA8 SHL SUB NOT AND OR PUSH1 0x2 SSTORE PUSH1 0x40 MLOAD SWAP6 DUP7 MSTORE PUSH1 0x1 DUP1 PUSH1 0xA0 SHL SUB AND PUSH1 0x20 DUP7 ADD MSTORE PUSH1 0x1 DUP1 PUSH1 0xA0 SHL SUB AND PUSH1 0x40 DUP6 ADD MSTORE PUSH1 0x1 DUP1 PUSH1 0xA0 SHL SUB AND SWAP3 LOG2 PUSH1 0x40 MLOAD PUSH2 0xAAD SWAP1 DUP2 PUSH2 0x341 DUP3 CODECOPY RETURN JUMPDEST PUSH4 0x4E487B71 PUSH1 0xE0 SHL PUSH0 MSTORE PUSH1 0x41 PUSH1 0x4 MSTORE PUSH1 0x24 PUSH0 REVERT JUMPDEST PUSH1 0x40 MLOAD PUSH3 0x461BCD PUSH1 0xE5 SHL DUP2 MSTORE PUSH1 0x20 PUSH1 0x4 DUP3 ADD MSTORE PUSH1 0x17 PUSH1 0x24 DUP3 ADD MSTORE PUSH32 0x496E76616C696420696E70757420616464726573736573000000000000000000 PUSH1 0x44 DUP3 ADD MSTORE PUSH1 0x64 SWAP1 REVERT JUMPDEST POP PUSH1 0x1 PUSH1 0x1 PUSH1 0xA0 SHL SUB DUP7 AND ISZERO ISZERO PUSH2 0xDE JUMP JUMPDEST POP PUSH1 0x1 PUSH1 0x1 PUSH1 0xA0 SHL SUB DUP10 AND ISZERO ISZERO PUSH2 0xD8 JUMP JUMPDEST POP PUSH1 0x1 PUSH1 0x1 PUSH1 0xA0 SHL SUB DUP6 AND ISZERO ISZERO PUSH2 0xD2 JUMP JUMPDEST PUSH0 DUP1 REVERT JUMPDEST MLOAD SWAP1 PUSH1 0x1 PUSH1 0x1 PUSH1 0xA0 SHL SUB DUP3 AND DUP3 SUB PUSH2 0x328 JUMPI JUMP INVALID PUSH1 0x80 PUSH1 0x40 DUP2 DUP2 MSTORE PUSH1 0x4 SWAP2 DUP3 CALLDATASIZE LT ISZERO PUSH2 0x15 JUMPI PUSH0 DUP1 REVERT JUMPDEST PUSH0 SWAP3 PUSH0 CALLDATALOAD PUSH1 0xE0 SHR SWAP2 DUP3 PUSH4 0x12261EE7 EQ PUSH2 0x77D JUMPI POP DUP2 PUSH4 0x2E1283E3 EQ PUSH2 0x75F JUMPI DUP2 PUSH4 0x371FD8E6 EQ PUSH2 0x580 JUMPI DUP2 PUSH4 0x654C6295 EQ PUSH2 0x4E9 JUMPI DUP2 PUSH4 0x6B6D1955 EQ PUSH2 0x4C9 JUMPI DUP2 PUSH4 0x8DB57994 EQ PUSH2 0x3D3 JUMPI DUP2 PUSH4 0x95CB741D EQ PUSH2 0x346 JUMPI DUP2 PUSH4 0x9E9F669C EQ PUSH2 0x318 JUMPI DUP2 PUSH4 0xC19D93FB EQ PUSH2 0x318 JUMPI DUP2 PUSH4 0xC51B9507 EQ PUSH2 0x2EF JUMPI DUP2 PUSH4 0xEB0C4955 EQ PUSH2 0x2CB JUMPI DUP2 PUSH4 0xF30F29DD EQ PUSH2 0xD2 JUMPI POP PUSH4 0xF4B01B18 EQ PUSH2 0xB1 JUMPI PUSH0 DUP1 REVERT JUMPDEST CALLVALUE PUSH2 0xCE JUMPI DUP2 PUSH1 0x3 NOT CALLDATASIZE ADD SLT PUSH2 0xCE JUMPI PUSH1 0x20 SWAP1 PUSH1 0x7 SLOAD SWAP1 MLOAD SWAP1 DUP2 MSTORE RETURN JUMPDEST POP DUP1 REVERT JUMPDEST SWAP1 POP CALLVALUE PUSH2 0x2C7 JUMPI DUP2 PUSH1 0x3 NOT CALLDATASIZE ADD SLT PUSH2 0x2C7 JUMPI PUSH2 0xEC PUSH2 0x7A0 JUMP JUMPDEST SWAP2 PUSH1 0x24 DUP1 CALLDATALOAD SWAP3 PUSH1 0xFF PUSH1 0x2 SLOAD PUSH1 0xA0 SHR AND PUSH1 0x5 DUP2 LT ISZERO PUSH2 0x2B5 JUMPI PUSH2 0x274 JUMPI PUSH1 0x1 PUSH1 0x1 PUSH1 0xA0 SHL SUB SWAP5 DUP6 AND SWAP5 DUP6 ISZERO PUSH2 0x232 JUMPI PUSH2 0x12D PUSH2 0x125 PUSH2 0x834 JUMP JUMPDEST PUSH1 0x7 SLOAD PUSH2 0x7DD JUMP JUMPDEST DUP6 LT PUSH2 0x1F0 JUMPI PUSH1 0x44 PUSH1 0x20 SWAP3 DUP9 DUP8 SWAP4 PUSH1 0x6 SLOAD AND DUP10 DUP9 MLOAD SWAP8 DUP9 SWAP7 DUP8 SWAP6 PUSH4 0x6E553F65 PUSH1 0xE0 SHL DUP8 MSTORE DUP7 ADD MSTORE DUP5 ADD MSTORE GAS CALL DUP1 ISZERO PUSH2 0x1E6 JUMPI PUSH2 0x1B7 JUMPI JUMPDEST POP PUSH1 0xB DUP1 SLOAD PUSH1 0x1 PUSH1 0x1 PUSH1 0xA0 SHL SUB NOT AND DUP5 OR SWAP1 SSTORE PUSH1 0x2 DUP1 SLOAD PUSH1 0xFF PUSH1 0xA0 SHL NOT AND PUSH1 0x1 PUSH1 0xA0 SHL OR SWAP1 SSTORE MLOAD SWAP1 DUP2 MSTORE PUSH32 0x5150AB7694A22FBC01C642BC10316565247DF962FA3F0AC3B5D1A18BA45B485B SWAP1 PUSH1 0x20 SWAP1 LOG2 DUP1 RETURN JUMPDEST PUSH1 0x20 SWAP1 DUP2 RETURNDATASIZE DUP4 GT PUSH2 0x1DF JUMPI JUMPDEST PUSH2 0x1CD DUP2 DUP4 PUSH2 0x7FE JUMP JUMPDEST DUP2 ADD SUB SLT PUSH2 0x1DB JUMPI PUSH0 PUSH2 0x164 JUMP JUMPDEST PUSH0 DUP1 REVERT JUMPDEST POP RETURNDATASIZE PUSH2 0x1C3 JUMP JUMPDEST DUP3 MLOAD RETURNDATASIZE DUP8 DUP3 RETURNDATACOPY RETURNDATASIZE SWAP1 REVERT JUMPDEST POP PUSH1 0x17 PUSH1 0x64 SWAP3 PUSH1 0x20 DUP6 MLOAD SWAP4 PUSH3 0x461BCD PUSH1 0xE5 SHL DUP6 MSTORE DUP5 ADD MSTORE DUP3 ADD MSTORE PUSH32 0x496E73756666696369656E7420636F6C6C61746572616C000000000000000000 PUSH1 0x44 DUP3 ADD MSTORE REVERT JUMPDEST POP PUSH1 0x18 PUSH1 0x64 SWAP3 PUSH1 0x20 DUP6 MLOAD SWAP4 PUSH3 0x461BCD PUSH1 0xE5 SHL DUP6 MSTORE DUP5 ADD MSTORE DUP3 ADD MSTORE PUSH32 0x496E76616C696420626F72726F77657220616464726573730000000000000000 PUSH1 0x44 DUP3 ADD MSTORE REVERT JUMPDEST PUSH1 0x1B PUSH1 0x64 SWAP3 PUSH1 0x20 DUP6 MLOAD SWAP4 PUSH3 0x461BCD PUSH1 0xE5 SHL DUP6 MSTORE DUP5 ADD MSTORE DUP3 ADD MSTORE PUSH32 0x4C6F616E206E6F7420696E20637265617461626C652073746174650000000000 PUSH1 0x44 DUP3 ADD MSTORE REVERT JUMPDEST POP PUSH4 0x4E487B71 PUSH1 0xE0 SHL DUP7 MSTORE PUSH1 0x21 SWAP1 MSTORE DUP5 REVERT JUMPDEST DUP3 DUP1 REVERT JUMPDEST POP POP CALLVALUE PUSH2 0xCE JUMPI DUP2 PUSH1 0x3 NOT CALLDATASIZE ADD SLT PUSH2 0xCE JUMPI PUSH1 0x20 SWAP1 PUSH2 0x2E8 PUSH2 0x834 JUMP JUMPDEST SWAP1 MLOAD SWAP1 DUP2 MSTORE RETURN JUMPDEST POP POP CALLVALUE PUSH2 0xCE JUMPI DUP2 PUSH1 0x3 NOT CALLDATASIZE ADD SLT PUSH2 0xCE JUMPI PUSH1 0x2 SLOAD SWAP1 MLOAD PUSH1 0x1 PUSH1 0x1 PUSH1 0xA0 SHL SUB SWAP1 SWAP2 AND DUP2 MSTORE PUSH1 0x20 SWAP1 RETURN JUMPDEST POP POP CALLVALUE PUSH2 0xCE JUMPI DUP2 PUSH1 0x3 NOT CALLDATASIZE ADD SLT PUSH2 0xCE JUMPI PUSH2 0x342 SWAP1 PUSH1 0xFF PUSH1 0x2 SLOAD PUSH1 0xA0 SHR AND SWAP1 MLOAD SWAP2 DUP3 SWAP2 DUP3 PUSH2 0x7B6 JUMP JUMPDEST SUB SWAP1 RETURN JUMPDEST SWAP2 SWAP1 POP CALLVALUE PUSH2 0x2C7 JUMPI DUP3 PUSH1 0x3 NOT CALLDATASIZE ADD SLT PUSH2 0x2C7 JUMPI PUSH2 0x160 SWAP3 POP PUSH1 0x1 DUP1 PUSH1 0xA0 SHL SUB SWAP1 DUP2 DUP1 PUSH1 0x3 SLOAD AND SWAP4 SLOAD AND SWAP2 DUP1 PUSH1 0x5 SLOAD AND SWAP1 DUP1 PUSH1 0x6 SLOAD AND PUSH1 0x7 SLOAD PUSH1 0x8 SLOAD SWAP1 PUSH1 0x9 SLOAD SWAP3 DUP5 PUSH1 0xA SLOAD AND SWAP5 PUSH1 0xB SLOAD AND SWAP6 PUSH1 0xC SLOAD SWAP8 PUSH1 0xD SLOAD SWAP10 DUP2 MLOAD SWAP12 DUP13 MSTORE PUSH1 0x20 DUP13 ADD MSTORE DUP11 ADD MSTORE PUSH1 0x60 DUP10 ADD MSTORE PUSH1 0x80 DUP9 ADD MSTORE PUSH1 0xA0 DUP8 ADD MSTORE PUSH1 0xC0 DUP7 ADD MSTORE PUSH1 0xE0 DUP6 ADD MSTORE PUSH2 0x100 DUP5 ADD MSTORE PUSH2 0x120 DUP4 ADD MSTORE PUSH2 0x140 DUP3 ADD MSTORE RETURN JUMPDEST SWAP1 POP CALLVALUE PUSH2 0x2C7 JUMPI DUP3 PUSH1 0x3 NOT CALLDATASIZE ADD SLT PUSH2 0x2C7 JUMPI PUSH2 0x3ED PUSH2 0x8C4 JUMP JUMPDEST PUSH1 0xFF PUSH1 0x2 SLOAD PUSH1 0xA0 SHR AND PUSH1 0x5 DUP2 LT ISZERO PUSH2 0x4B6 JUMPI PUSH1 0x1 SUB PUSH2 0x474 JUMPI SLOAD PUSH1 0x3 SLOAD PUSH1 0x7 SLOAD PUSH32 0x9E71D2FB732E68272B7E74ECFD14638673C1D77E19A5D390A3FFFF054D57C44B SWAP4 PUSH1 0x20 SWAP4 SWAP1 SWAP3 PUSH2 0x44D SWAP3 SWAP2 ADDRESS SWAP2 PUSH1 0x1 PUSH1 0x1 PUSH1 0xA0 SHL SUB SWAP1 DUP2 AND SWAP2 AND PUSH2 0x918 JUMP JUMPDEST TIMESTAMP PUSH1 0xD SSTORE PUSH1 0x2 DUP1 SLOAD PUSH1 0xFF PUSH1 0xA0 SHL NOT AND PUSH1 0x1 PUSH1 0xA1 SHL OR SWAP1 SSTORE PUSH1 0x7 SLOAD SWAP1 MLOAD SWAP1 DUP2 MSTORE LOG1 PUSH1 0x1 DUP2 SSTORE DUP1 RETURN JUMPDEST PUSH1 0x20 PUSH1 0x64 SWAP3 MLOAD SWAP2 PUSH3 0x461BCD PUSH1 0xE5 SHL DUP4 MSTORE DUP3 ADD MSTORE PUSH1 0x1D PUSH1 0x24 DUP3 ADD MSTORE PUSH32 0x4C6F616E206D75737420626520696E2070656E64696E67207374617465000000 PUSH1 0x44 DUP3 ADD MSTORE REVERT JUMPDEST PUSH4 0x4E487B71 PUSH1 0xE0 SHL DUP5 MSTORE PUSH1 0x21 DUP3 MSTORE PUSH1 0x24 DUP5 REVERT JUMPDEST POP POP CALLVALUE PUSH2 0xCE JUMPI DUP2 PUSH1 0x3 NOT CALLDATASIZE ADD SLT PUSH2 0xCE JUMPI PUSH1 0x20 SWAP1 PUSH2 0x2E8 PUSH2 0x125 PUSH2 0x834 JUMP JUMPDEST DUP4 DUP4 CALLVALUE PUSH2 0xCE JUMPI PUSH1 0x20 SWAP3 DUP4 PUSH1 0x3 NOT CALLDATASIZE ADD SLT PUSH2 0x2C7 JUMPI DUP4 PUSH2 0x507 PUSH2 0x7A0 JUMP JUMPDEST PUSH1 0x6 SLOAD DUP5 MLOAD PUSH4 0x70A08231 PUSH1 0xE0 SHL DUP2 MSTORE PUSH1 0x1 PUSH1 0x1 PUSH1 0xA0 SHL SUB SWAP3 DUP4 AND SWAP5 DUP2 ADD SWAP5 SWAP1 SWAP5 MSTORE DUP4 SWAP2 PUSH1 0x24 SWAP2 DUP4 SWAP2 AND GAS STATICCALL SWAP3 DUP4 ISZERO PUSH2 0x575 JUMPI SWAP3 PUSH2 0x546 JUMPI JUMPDEST POP MLOAD SWAP1 DUP2 MSTORE RETURN JUMPDEST SWAP1 SWAP2 POP DUP3 DUP2 DUP2 RETURNDATASIZE DUP4 GT PUSH2 0x56E JUMPI JUMPDEST PUSH2 0x55E DUP2 DUP4 PUSH2 0x7FE JUMP JUMPDEST DUP2 ADD SUB SLT PUSH2 0x1DB JUMPI MLOAD SWAP1 DUP4 PUSH2 0x53F JUMP JUMPDEST POP RETURNDATASIZE PUSH2 0x554 JUMP JUMPDEST DUP3 MLOAD SWAP1 RETURNDATASIZE SWAP1 DUP3 RETURNDATACOPY RETURNDATASIZE SWAP1 REVERT JUMPDEST SWAP2 SWAP1 POP CALLVALUE PUSH2 0x1DB JUMPI PUSH1 0x20 CALLDATASIZE PUSH1 0x3 NOT ADD SLT PUSH2 0x1DB JUMPI PUSH2 0x59C PUSH2 0x8C4 JUMP JUMPDEST PUSH1 0xFF PUSH1 0x2 SLOAD PUSH1 0xA0 SHR AND PUSH1 0x5 DUP2 LT ISZERO PUSH2 0x74C JUMPI PUSH1 0x2 SUB PUSH2 0x713 JUMPI PUSH2 0x5C9 PUSH1 0x7 SLOAD PUSH2 0x5C3 PUSH2 0x834 JUMP JUMPDEST SWAP1 PUSH2 0x7DD JUMP JUMPDEST SWAP2 DUP3 DUP2 CALLDATALOAD LT PUSH2 0x6C7 JUMPI PUSH1 0x1 DUP1 PUSH1 0xA0 SHL SUB PUSH2 0x5EF DUP5 DUP3 PUSH1 0x5 SLOAD AND DUP4 PUSH1 0x3 SLOAD AND SWAP1 CALLER SWAP1 PUSH2 0x918 JUMP JUMPDEST PUSH1 0x2 DUP1 SLOAD PUSH1 0xFF PUSH1 0xA0 SHL NOT DUP2 AND PUSH1 0x3 PUSH1 0xA0 SHL OR SWAP1 SWAP2 SSTORE AND SWAP1 DUP2 EXTCODESIZE ISZERO PUSH2 0x1DB JUMPI PUSH0 DUP1 SWAP3 PUSH1 0x24 DUP6 MLOAD DUP1 SWAP6 DUP2 SWAP4 PUSH4 0x7E72C7D7 PUSH1 0xE0 SHL DUP4 MSTORE ADDRESS DUP8 DUP5 ADD MSTORE GAS CALL DUP1 ISZERO PUSH2 0x6BD JUMPI PUSH2 0x68A JUMPI JUMPDEST DUP5 PUSH32 0x4002DBA848920F438092E08090CFB5FC47144C22704268B402C9553A1B5ADFE6 PUSH1 0x20 DUP7 DUP7 MLOAD SWAP1 PUSH32 0x409FCED1B85AE32A29FB1E18894D8361A5F2653DC27ADF7102D86175C2901D7C DUP6 DUP1 LOG1 DUP2 MSTORE LOG1 PUSH1 0x1 DUP2 SSTORE DUP1 RETURN JUMPDEST SWAP1 SWAP2 SWAP4 POP PUSH8 0xFFFFFFFFFFFFFFFF DUP3 GT PUSH2 0x6AA JUMPI POP DUP3 MSTORE PUSH0 SWAP2 DUP2 PUSH1 0x20 PUSH2 0x634 JUMP JUMPDEST PUSH1 0x41 SWAP1 PUSH4 0x4E487B71 PUSH1 0xE0 SHL PUSH0 MSTORE MSTORE PUSH1 0x24 PUSH0 REVERT JUMPDEST DUP4 MLOAD RETURNDATASIZE PUSH0 DUP3 RETURNDATACOPY RETURNDATASIZE SWAP1 REVERT JUMPDEST PUSH1 0x20 PUSH1 0x84 SWAP3 MLOAD SWAP2 PUSH3 0x461BCD PUSH1 0xE5 SHL DUP4 MSTORE DUP3 ADD MSTORE PUSH1 0x21 PUSH1 0x24 DUP3 ADD MSTORE PUSH32 0x496E73756666696369656E7420616D6F756E7420666F722072657061796D656E PUSH1 0x44 DUP3 ADD MSTORE PUSH1 0x1D PUSH1 0xFA SHL PUSH1 0x64 DUP3 ADD MSTORE REVERT JUMPDEST SWAP1 PUSH1 0x20 PUSH1 0x64 SWAP3 MLOAD SWAP2 PUSH3 0x461BCD PUSH1 0xE5 SHL DUP4 MSTORE DUP3 ADD MSTORE PUSH1 0x13 PUSH1 0x24 DUP3 ADD MSTORE PUSH19 0x4C6F616E206D75737420626520616374697665 PUSH1 0x68 SHL PUSH1 0x44 DUP3 ADD MSTORE REVERT JUMPDEST PUSH1 0x21 DUP4 PUSH4 0x4E487B71 PUSH1 0xE0 SHL PUSH0 MSTORE MSTORE PUSH1 0x24 PUSH0 REVERT JUMPDEST DUP3 CALLVALUE PUSH2 0x1DB JUMPI PUSH0 CALLDATASIZE PUSH1 0x3 NOT ADD SLT PUSH2 0x1DB JUMPI PUSH1 0x20 SWAP1 PUSH1 0xD SLOAD SWAP1 MLOAD SWAP1 DUP2 MSTORE RETURN JUMPDEST CALLVALUE PUSH2 0x1DB JUMPI PUSH0 CALLDATASIZE PUSH1 0x3 NOT ADD SLT PUSH2 0x1DB JUMPI PUSH1 0x1 SLOAD PUSH1 0x1 PUSH1 0x1 PUSH1 0xA0 SHL SUB AND DUP2 MSTORE PUSH1 0x20 SWAP1 RETURN JUMPDEST PUSH1 0x4 CALLDATALOAD SWAP1 PUSH1 0x1 PUSH1 0x1 PUSH1 0xA0 SHL SUB DUP3 AND DUP3 SUB PUSH2 0x1DB JUMPI JUMP JUMPDEST SWAP2 SWAP1 PUSH1 0x20 DUP4 ADD SWAP3 PUSH1 0x5 DUP3 LT ISZERO PUSH2 0x7C9 JUMPI MSTORE JUMP JUMPDEST PUSH4 0x4E487B71 PUSH1 0xE0 SHL PUSH0 MSTORE PUSH1 0x21 PUSH1 0x4 MSTORE PUSH1 0x24 PUSH0 REVERT JUMPDEST SWAP2 SWAP1 DUP3 ADD DUP1 SWAP3 GT PUSH2 0x7EA JUMPI JUMP JUMPDEST PUSH4 0x4E487B71 PUSH1 0xE0 SHL PUSH0 MSTORE PUSH1 0x11 PUSH1 0x4 MSTORE PUSH1 0x24 PUSH0 REVERT JUMPDEST SWAP1 PUSH1 0x1F DUP1 NOT SWAP2 ADD AND DUP2 ADD SWAP1 DUP2 LT PUSH8 0xFFFFFFFFFFFFFFFF DUP3 GT OR PUSH2 0x820 JUMPI PUSH1 0x40 MSTORE JUMP JUMPDEST PUSH4 0x4E487B71 PUSH1 0xE0 SHL PUSH0 MSTORE PUSH1 0x41 PUSH1 0x4 MSTORE PUSH1 0x24 PUSH0 REVERT JUMPDEST PUSH1 0xC SLOAD TIMESTAMP SUB TIMESTAMP DUP2 GT PUSH2 0x7EA JUMPI PUSH1 0x20 PUSH1 0x1 DUP1 PUSH1 0xA0 SHL SUB PUSH1 0xA SLOAD AND PUSH1 0x64 PUSH1 0x7 SLOAD PUSH1 0x8 SLOAD SWAP3 PUSH1 0x40 MLOAD SWAP6 DUP7 SWAP5 DUP6 SWAP4 PUSH4 0x1786F63 PUSH1 0xE2 SHL DUP6 MSTORE PUSH1 0x4 DUP6 ADD MSTORE PUSH1 0x24 DUP5 ADD MSTORE PUSH1 0x44 DUP4 ADD MSTORE GAS STATICCALL SWAP1 DUP2 ISZERO PUSH2 0x8B9 JUMPI PUSH0 SWAP2 PUSH2 0x88A JUMPI POP SWAP1 JUMP JUMPDEST SWAP1 POP PUSH1 0x20 DUP2 RETURNDATASIZE PUSH1 0x20 GT PUSH2 0x8B1 JUMPI JUMPDEST DUP2 PUSH2 0x8A5 PUSH1 0x20 SWAP4 DUP4 PUSH2 0x7FE JUMP JUMPDEST DUP2 ADD SUB SLT PUSH2 0x1DB JUMPI MLOAD SWAP1 JUMP JUMPDEST RETURNDATASIZE SWAP2 POP PUSH2 0x898 JUMP JUMPDEST PUSH1 0x40 MLOAD RETURNDATASIZE PUSH0 DUP3 RETURNDATACOPY RETURNDATASIZE SWAP1 REVERT JUMPDEST PUSH1 0x2 PUSH0 SLOAD EQ PUSH2 0x8D3 JUMPI PUSH1 0x2 PUSH0 SSTORE JUMP JUMPDEST PUSH1 0x40 MLOAD PUSH3 0x461BCD PUSH1 0xE5 SHL DUP2 MSTORE PUSH1 0x20 PUSH1 0x4 DUP3 ADD MSTORE PUSH1 0x1F PUSH1 0x24 DUP3 ADD MSTORE PUSH32 0x5265656E7472616E637947756172643A207265656E7472616E742063616C6C00 PUSH1 0x44 DUP3 ADD MSTORE PUSH1 0x64 SWAP1 REVERT JUMPDEST PUSH1 0x40 MLOAD PUSH4 0x23B872DD PUSH1 0xE0 SHL PUSH1 0x20 DUP3 ADD SWAP1 DUP2 MSTORE PUSH1 0x1 PUSH1 0x1 PUSH1 0xA0 SHL SUB SWAP4 DUP5 AND PUSH1 0x24 DUP4 ADD MSTORE SWAP4 DUP4 AND PUSH1 0x44 DUP3 ADD MSTORE PUSH1 0x64 DUP1 DUP3 ADD SWAP6 SWAP1 SWAP6 MSTORE SWAP4 DUP5 MSTORE PUSH8 0xFFFFFFFFFFFFFFFF SWAP3 SWAP1 SWAP2 PUSH1 0xA0 DUP6 ADD SWAP2 SWAP1 DUP5 DUP4 GT DUP7 DUP5 LT OR PUSH2 0x820 JUMPI PUSH0 SWAP4 DUP5 SWAP4 PUSH1 0x40 MSTORE AND SWAP5 MLOAD SWAP1 DUP3 DUP7 GAS CALL SWAP1 RETURNDATASIZE ISZERO PUSH2 0xA07 JUMPI RETURNDATASIZE SWAP1 DUP2 GT PUSH2 0x820 JUMPI PUSH2 0x9B5 SWAP2 PUSH1 0x40 MLOAD SWAP2 PUSH2 0x9A5 PUSH1 0x20 PUSH1 0x1F NOT PUSH1 0x1F DUP5 ADD AND ADD DUP5 PUSH2 0x7FE JUMP JUMPDEST DUP3 MSTORE RETURNDATASIZE PUSH0 PUSH1 0x20 DUP5 ADD RETURNDATACOPY JUMPDEST DUP4 PUSH2 0xA14 JUMP JUMPDEST DUP1 MLOAD SWAP1 DUP2 ISZERO ISZERO SWAP2 DUP3 PUSH2 0x9E3 JUMPI JUMPDEST POP POP PUSH2 0x9CB JUMPI POP JUMP JUMPDEST PUSH1 0x24 SWAP1 PUSH1 0x40 MLOAD SWAP1 PUSH4 0x5274AFE7 PUSH1 0xE0 SHL DUP3 MSTORE PUSH1 0x4 DUP3 ADD MSTORE REVERT JUMPDEST DUP2 SWAP3 POP SWAP1 PUSH1 0x20 SWAP2 DUP2 ADD SUB SLT PUSH2 0x1DB JUMPI PUSH1 0x20 ADD MLOAD DUP1 ISZERO SWAP1 DUP2 ISZERO SUB PUSH2 0x1DB JUMPI PUSH0 DUP1 PUSH2 0x9C2 JUMP JUMPDEST POP PUSH2 0x9B5 SWAP1 PUSH1 0x60 SWAP1 PUSH2 0x9AF JUMP JUMPDEST SWAP1 PUSH2 0xA3B JUMPI POP DUP1 MLOAD ISZERO PUSH2 0xA29 JUMPI DUP1 MLOAD SWAP1 PUSH1 0x20 ADD REVERT JUMPDEST PUSH1 0x40 MLOAD PUSH4 0xA12F521 PUSH1 0xE1 SHL DUP2 MSTORE PUSH1 0x4 SWAP1 REVERT JUMPDEST DUP2 MLOAD ISZERO DUP1 PUSH2 0xA6E JUMPI JUMPDEST PUSH2 0xA4C JUMPI POP SWAP1 JUMP JUMPDEST PUSH1 0x40 MLOAD PUSH4 0x9996B315 PUSH1 0xE0 SHL DUP2 MSTORE PUSH1 0x1 PUSH1 0x1 PUSH1 0xA0 SHL SUB SWAP1 SWAP2 AND PUSH1 0x4 DUP3 ADD MSTORE PUSH1 0x24 SWAP1 REVERT JUMPDEST POP DUP1 EXTCODESIZE ISZERO PUSH2 0xA44 JUMP INVALID LOG2 PUSH5 0x6970667358 0x22 SLT KECCAK256 RETURNDATASIZE 0x1E NUMBER 0xBC PUSH15 0x9F3BE7EDCE4C664A25E6A3FAAD2F65 0xBF DUP3 LOG0 0x1F DUP7 SWAP7 RETURN 0xB4 PUSH27 0x83EDC964736F6C6343000819003300000000000000000000000000 "
				},
				"gasEstimates": {
					"creation": {
						"codeDepositCost": "546600",
						"executionCost": "infinite",
						"totalCost": "infinite"
					},
					"external": {
						"activateLoan(address,uint256)": "infinite",
						"calculateInterest()": "infinite",
						"calculateRequiredCollateral()": "infinite",
						"fundLoan()": "infinite",
						"getCollateralAmount(address)": "infinite",
						"getFundedBlock()": "2298",
						"getLoanAmount()": "2537",
						"getLoanState()": "2525",
						"loanDetails()": "23668",
						"permit2()": "2280",
						"poolOrganizer()": "2497",
						"repay(uint256)": "infinite",
						"state()": "2547"
					},
					"internal": {
						"_closeLoan()": "infinite"
					}
				},
				"methodIdentifiers": {
					"activateLoan(address,uint256)": "f30f29dd",
					"calculateInterest()": "eb0c4955",
					"calculateRequiredCollateral()": "6b6d1955",
					"fundLoan()": "8db57994",
					"getCollateralAmount(address)": "654c6295",
					"getFundedBlock()": "2e1283e3",
					"getLoanAmount()": "f4b01b18",
					"getLoanState()": "9e9f669c",
					"loanDetails()": "95cb741d",
					"permit2()": "12261ee7",
					"poolOrganizer()": "c51b9507",
					"repay(uint256)": "371fd8e6",
					"state()": "c19d93fb"
				}
			},
			"storageLayout": {
				"storage": [
					{
						"astId": 317,
						"contract": "contracts/contracts/protocol/TuliaPool.sol:TuliaPool",
						"label": "_status",
						"offset": 0,
						"slot": "0",
						"type": "t_uint256"
					},
					{
						"astId": 3834,
						"contract": "contracts/contracts/protocol/TuliaPool.sol:TuliaPool",
						"label": "permit2",
						"offset": 0,
						"slot": "1",
						"type": "t_contract(IPermit2)3585"
					},
					{
						"astId": 3837,
						"contract": "contracts/contracts/protocol/TuliaPool.sol:TuliaPool",
						"label": "poolOrganizer",
						"offset": 0,
						"slot": "2",
						"type": "t_contract(IPoolOrganizer)3675"
					},
					{
						"astId": 3873,
						"contract": "contracts/contracts/protocol/TuliaPool.sol:TuliaPool",
						"label": "state",
						"offset": 20,
						"slot": "2",
						"type": "t_enum(LoanState)3870"
					},
					{
						"astId": 3876,
						"contract": "contracts/contracts/protocol/TuliaPool.sol:TuliaPool",
						"label": "loanDetails",
						"offset": 0,
						"slot": "3",
						"type": "t_struct(LoanDetails)3864_storage"
					}
				],
				"types": {
					"t_address": {
						"encoding": "inplace",
						"label": "address",
						"numberOfBytes": "20"
					},
					"t_contract(IERC20)964": {
						"encoding": "inplace",
						"label": "contract IERC20",
						"numberOfBytes": "20"
					},
					"t_contract(IInterestModel)3573": {
						"encoding": "inplace",
						"label": "contract IInterestModel",
						"numberOfBytes": "20"
					},
					"t_contract(IPermit2)3585": {
						"encoding": "inplace",
						"label": "contract IPermit2",
						"numberOfBytes": "20"
					},
					"t_contract(IPoolOrganizer)3675": {
						"encoding": "inplace",
						"label": "contract IPoolOrganizer",
						"numberOfBytes": "20"
					},
					"t_contract(TuliaVault)4430": {
						"encoding": "inplace",
						"label": "contract TuliaVault",
						"numberOfBytes": "20"
					},
					"t_enum(LoanState)3870": {
						"encoding": "inplace",
						"label": "enum TuliaPool.LoanState",
						"numberOfBytes": "1"
					},
					"t_struct(LoanDetails)3864_storage": {
						"encoding": "inplace",
						"label": "struct TuliaPool.LoanDetails",
						"members": [
							{
								"astId": 3839,
								"contract": "contracts/contracts/protocol/TuliaPool.sol:TuliaPool",
								"label": "lender",
								"offset": 0,
								"slot": "0",
								"type": "t_address"
							},
							{
								"astId": 3842,
								"contract": "contracts/contracts/protocol/TuliaPool.sol:TuliaPool",
								"label": "loanToken",
								"offset": 0,
								"slot": "1",
								"type": "t_contract(IERC20)964"
							},
							{
								"astId": 3845,
								"contract": "contracts/contracts/protocol/TuliaPool.sol:TuliaPool",
								"label": "repaymentToken",
								"offset": 0,
								"slot": "2",
								"type": "t_contract(IERC20)964"
							},
							{
								"astId": 3848,
								"contract": "contracts/contracts/protocol/TuliaPool.sol:TuliaPool",
								"label": "collateralVault",
								"offset": 0,
								"slot": "3",
								"type": "t_contract(TuliaVault)4430"
							},
							{
								"astId": 3850,
								"contract": "contracts/contracts/protocol/TuliaPool.sol:TuliaPool",
								"label": "loanAmount",
								"offset": 0,
								"slot": "4",
								"type": "t_uint256"
							},
							{
								"astId": 3852,
								"contract": "contracts/contracts/protocol/TuliaPool.sol:TuliaPool",
								"label": "interestRate",
								"offset": 0,
								"slot": "5",
								"type": "t_uint256"
							},
							{
								"astId": 3854,
								"contract": "contracts/contracts/protocol/TuliaPool.sol:TuliaPool",
								"label": "repaymentPeriod",
								"offset": 0,
								"slot": "6",
								"type": "t_uint256"
							},
							{
								"astId": 3857,
								"contract": "contracts/contracts/protocol/TuliaPool.sol:TuliaPool",
								"label": "interestModel",
								"offset": 0,
								"slot": "7",
								"type": "t_contract(IInterestModel)3573"
							},
							{
								"astId": 3859,
								"contract": "contracts/contracts/protocol/TuliaPool.sol:TuliaPool",
								"label": "borrower",
								"offset": 0,
								"slot": "8",
								"type": "t_address"
							},
							{
								"astId": 3861,
								"contract": "contracts/contracts/protocol/TuliaPool.sol:TuliaPool",
								"label": "startBlock",
								"offset": 0,
								"slot": "9",
								"type": "t_uint256"
							},
							{
								"astId": 3863,
								"contract": "contracts/contracts/protocol/TuliaPool.sol:TuliaPool",
								"label": "fundedBlock",
								"offset": 0,
								"slot": "10",
								"type": "t_uint256"
							}
						],
						"numberOfBytes": "352"
					},
					"t_uint256": {
						"encoding": "inplace",
						"label": "uint256",
						"numberOfBytes": "32"
					}
				}
			},
			"userdoc": {
				"kind": "user",
				"methods": {},
				"version": 1
			}
		}
	}
}