{
	"contracts/contracts/protocol/TuliaVault.sol": {
		"TuliaVault": {
			"abi": [
				{
					"inputs": [
						{
							"internalType": "contract IERC20",
							"name": "asset",
							"type": "address"
						},
						{
							"internalType": "string",
							"name": "name",
							"type": "string"
						},
						{
							"internalType": "string",
							"name": "symbol",
							"type": "string"
						},
						{
							"internalType": "contract IPermit2",
							"name": "_permitSystem",
							"type": "address"
						}
					],
					"stateMutability": "nonpayable",
					"type": "constructor"
				},
				{
					"inputs": [
						{
							"internalType": "address",
							"name": "target",
							"type": "address"
						}
					],
					"name": "AddressEmptyCode",
					"type": "error"
				},
				{
					"inputs": [
						{
							"internalType": "address",
							"name": "account",
							"type": "address"
						}
					],
					"name": "AddressInsufficientBalance",
					"type": "error"
				},
				{
					"inputs": [
						{
							"internalType": "address",
							"name": "spender",
							"type": "address"
						},
						{
							"internalType": "uint256",
							"name": "allowance",
							"type": "uint256"
						},
						{
							"internalType": "uint256",
							"name": "needed",
							"type": "uint256"
						}
					],
					"name": "ERC20InsufficientAllowance",
					"type": "error"
				},
				{
					"inputs": [
						{
							"internalType": "address",
							"name": "sender",
							"type": "address"
						},
						{
							"internalType": "uint256",
							"name": "balance",
							"type": "uint256"
						},
						{
							"internalType": "uint256",
							"name": "needed",
							"type": "uint256"
						}
					],
					"name": "ERC20InsufficientBalance",
					"type": "error"
				},
				{
					"inputs": [
						{
							"internalType": "address",
							"name": "approver",
							"type": "address"
						}
					],
					"name": "ERC20InvalidApprover",
					"type": "error"
				},
				{
					"inputs": [
						{
							"internalType": "address",
							"name": "receiver",
							"type": "address"
						}
					],
					"name": "ERC20InvalidReceiver",
					"type": "error"
				},
				{
					"inputs": [
						{
							"internalType": "address",
							"name": "sender",
							"type": "address"
						}
					],
					"name": "ERC20InvalidSender",
					"type": "error"
				},
				{
					"inputs": [
						{
							"internalType": "address",
							"name": "spender",
							"type": "address"
						}
					],
					"name": "ERC20InvalidSpender",
					"type": "error"
				},
				{
					"inputs": [
						{
							"internalType": "address",
							"name": "receiver",
							"type": "address"
						},
						{
							"internalType": "uint256",
							"name": "assets",
							"type": "uint256"
						},
						{
							"internalType": "uint256",
							"name": "max",
							"type": "uint256"
						}
					],
					"name": "ERC4626ExceededMaxDeposit",
					"type": "error"
				},
				{
					"inputs": [
						{
							"internalType": "address",
							"name": "receiver",
							"type": "address"
						},
						{
							"internalType": "uint256",
							"name": "shares",
							"type": "uint256"
						},
						{
							"internalType": "uint256",
							"name": "max",
							"type": "uint256"
						}
					],
					"name": "ERC4626ExceededMaxMint",
					"type": "error"
				},
				{
					"inputs": [
						{
							"internalType": "address",
							"name": "owner",
							"type": "address"
						},
						{
							"internalType": "uint256",
							"name": "shares",
							"type": "uint256"
						},
						{
							"internalType": "uint256",
							"name": "max",
							"type": "uint256"
						}
					],
					"name": "ERC4626ExceededMaxRedeem",
					"type": "error"
				},
				{
					"inputs": [
						{
							"internalType": "address",
							"name": "owner",
							"type": "address"
						},
						{
							"internalType": "uint256",
							"name": "assets",
							"type": "uint256"
						},
						{
							"internalType": "uint256",
							"name": "max",
							"type": "uint256"
						}
					],
					"name": "ERC4626ExceededMaxWithdraw",
					"type": "error"
				},
				{
					"inputs": [],
					"name": "FailedInnerCall",
					"type": "error"
				},
				{
					"inputs": [],
					"name": "MathOverflowedMulDiv",
					"type": "error"
				},
				{
					"inputs": [
						{
							"internalType": "address",
							"name": "token",
							"type": "address"
						}
					],
					"name": "SafeERC20FailedOperation",
					"type": "error"
				},
				{
					"anonymous": false,
					"inputs": [
						{
							"indexed": true,
							"internalType": "address",
							"name": "owner",
							"type": "address"
						},
						{
							"indexed": true,
							"internalType": "address",
							"name": "spender",
							"type": "address"
						},
						{
							"indexed": false,
							"internalType": "uint256",
							"name": "value",
							"type": "uint256"
						}
					],
					"name": "Approval",
					"type": "event"
				},
				{
					"anonymous": false,
					"inputs": [
						{
							"indexed": true,
							"internalType": "address",
							"name": "sender",
							"type": "address"
						},
						{
							"indexed": true,
							"internalType": "address",
							"name": "owner",
							"type": "address"
						},
						{
							"indexed": false,
							"internalType": "uint256",
							"name": "assets",
							"type": "uint256"
						},
						{
							"indexed": false,
							"internalType": "uint256",
							"name": "shares",
							"type": "uint256"
						}
					],
					"name": "Deposit",
					"type": "event"
				},
				{
					"anonymous": false,
					"inputs": [
						{
							"indexed": true,
							"internalType": "address",
							"name": "from",
							"type": "address"
						},
						{
							"indexed": true,
							"internalType": "address",
							"name": "to",
							"type": "address"
						},
						{
							"indexed": false,
							"internalType": "uint256",
							"name": "value",
							"type": "uint256"
						}
					],
					"name": "Transfer",
					"type": "event"
				},
				{
					"anonymous": false,
					"inputs": [
						{
							"indexed": true,
							"internalType": "address",
							"name": "sender",
							"type": "address"
						},
						{
							"indexed": true,
							"internalType": "address",
							"name": "receiver",
							"type": "address"
						},
						{
							"indexed": true,
							"internalType": "address",
							"name": "owner",
							"type": "address"
						},
						{
							"indexed": false,
							"internalType": "uint256",
							"name": "assets",
							"type": "uint256"
						},
						{
							"indexed": false,
							"internalType": "uint256",
							"name": "shares",
							"type": "uint256"
						}
					],
					"name": "Withdraw",
					"type": "event"
				},
				{
					"inputs": [
						{
							"internalType": "address",
							"name": "owner",
							"type": "address"
						},
						{
							"internalType": "address",
							"name": "spender",
							"type": "address"
						}
					],
					"name": "allowance",
					"outputs": [
						{
							"internalType": "uint256",
							"name": "",
							"type": "uint256"
						}
					],
					"stateMutability": "view",
					"type": "function"
				},
				{
					"inputs": [
						{
							"internalType": "address",
							"name": "spender",
							"type": "address"
						},
						{
							"internalType": "uint256",
							"name": "value",
							"type": "uint256"
						}
					],
					"name": "approve",
					"outputs": [
						{
							"internalType": "bool",
							"name": "",
							"type": "bool"
						}
					],
					"stateMutability": "nonpayable",
					"type": "function"
				},
				{
					"inputs": [],
					"name": "asset",
					"outputs": [
						{
							"internalType": "address",
							"name": "",
							"type": "address"
						}
					],
					"stateMutability": "view",
					"type": "function"
				},
				{
					"inputs": [
						{
							"internalType": "address",
							"name": "account",
							"type": "address"
						}
					],
					"name": "balanceOf",
					"outputs": [
						{
							"internalType": "uint256",
							"name": "",
							"type": "uint256"
						}
					],
					"stateMutability": "view",
					"type": "function"
				},
				{
					"inputs": [
						{
							"internalType": "uint256",
							"name": "shares",
							"type": "uint256"
						}
					],
					"name": "convertToAssets",
					"outputs": [
						{
							"internalType": "uint256",
							"name": "",
							"type": "uint256"
						}
					],
					"stateMutability": "view",
					"type": "function"
				},
				{
					"inputs": [
						{
							"internalType": "uint256",
							"name": "assets",
							"type": "uint256"
						}
					],
					"name": "convertToShares",
					"outputs": [
						{
							"internalType": "uint256",
							"name": "",
							"type": "uint256"
						}
					],
					"stateMutability": "view",
					"type": "function"
				},
				{
					"inputs": [],
					"name": "decimals",
					"outputs": [
						{
							"internalType": "uint8",
							"name": "",
							"type": "uint8"
						}
					],
					"stateMutability": "view",
					"type": "function"
				},
				{
					"inputs": [
						{
							"internalType": "uint256",
							"name": "assets",
							"type": "uint256"
						},
						{
							"internalType": "address",
							"name": "receiver",
							"type": "address"
						}
					],
					"name": "deposit",
					"outputs": [
						{
							"internalType": "uint256",
							"name": "",
							"type": "uint256"
						}
					],
					"stateMutability": "nonpayable",
					"type": "function"
				},
				{
					"inputs": [
						{
							"components": [
								{
									"components": [
										{
											"internalType": "address",
											"name": "token",
											"type": "address"
										},
										{
											"internalType": "uint160",
											"name": "amount",
											"type": "uint160"
										},
										{
											"internalType": "uint48",
											"name": "expiration",
											"type": "uint48"
										},
										{
											"internalType": "uint48",
											"name": "nonce",
											"type": "uint48"
										}
									],
									"internalType": "struct IAllowanceTransfer.PermitDetails[]",
									"name": "details",
									"type": "tuple[]"
								},
								{
									"internalType": "address",
									"name": "spender",
									"type": "address"
								},
								{
									"internalType": "uint256",
									"name": "sigDeadline",
									"type": "uint256"
								}
							],
							"internalType": "struct IAllowanceTransfer.PermitBatch[]",
							"name": "permitData",
							"type": "tuple[]"
						},
						{
							"internalType": "bytes[]",
							"name": "signatures",
							"type": "bytes[]"
						},
						{
							"internalType": "address",
							"name": "receiver",
							"type": "address"
						}
					],
					"name": "depositWithBatchPermit",
					"outputs": [
						{
							"internalType": "uint256",
							"name": "shares",
							"type": "uint256"
						}
					],
					"stateMutability": "nonpayable",
					"type": "function"
				},
				{
					"inputs": [
						{
							"internalType": "uint256",
							"name": "amount",
							"type": "uint256"
						},
						{
							"components": [
								{
									"components": [
										{
											"internalType": "address",
											"name": "token",
											"type": "address"
										},
										{
											"internalType": "uint160",
											"name": "amount",
											"type": "uint160"
										},
										{
											"internalType": "uint48",
											"name": "expiration",
											"type": "uint48"
										},
										{
											"internalType": "uint48",
											"name": "nonce",
											"type": "uint48"
										}
									],
									"internalType": "struct IAllowanceTransfer.PermitDetails",
									"name": "details",
									"type": "tuple"
								},
								{
									"internalType": "address",
									"name": "spender",
									"type": "address"
								},
								{
									"internalType": "uint256",
									"name": "sigDeadline",
									"type": "uint256"
								}
							],
							"internalType": "struct IAllowanceTransfer.PermitSingle",
							"name": "permitData",
							"type": "tuple"
						},
						{
							"internalType": "bytes",
							"name": "signature",
							"type": "bytes"
						},
						{
							"internalType": "address",
							"name": "receiver",
							"type": "address"
						}
					],
					"name": "depositWithPermit",
					"outputs": [
						{
							"internalType": "uint256",
							"name": "shares",
							"type": "uint256"
						}
					],
					"stateMutability": "nonpayable",
					"type": "function"
				},
				{
					"inputs": [
						{
							"internalType": "address",
							"name": "",
							"type": "address"
						}
					],
					"name": "maxDeposit",
					"outputs": [
						{
							"internalType": "uint256",
							"name": "",
							"type": "uint256"
						}
					],
					"stateMutability": "view",
					"type": "function"
				},
				{
					"inputs": [
						{
							"internalType": "address",
							"name": "",
							"type": "address"
						}
					],
					"name": "maxMint",
					"outputs": [
						{
							"internalType": "uint256",
							"name": "",
							"type": "uint256"
						}
					],
					"stateMutability": "view",
					"type": "function"
				},
				{
					"inputs": [
						{
							"internalType": "address",
							"name": "owner",
							"type": "address"
						}
					],
					"name": "maxRedeem",
					"outputs": [
						{
							"internalType": "uint256",
							"name": "",
							"type": "uint256"
						}
					],
					"stateMutability": "view",
					"type": "function"
				},
				{
					"inputs": [
						{
							"internalType": "address",
							"name": "owner",
							"type": "address"
						}
					],
					"name": "maxWithdraw",
					"outputs": [
						{
							"internalType": "uint256",
							"name": "",
							"type": "uint256"
						}
					],
					"stateMutability": "view",
					"type": "function"
				},
				{
					"inputs": [
						{
							"internalType": "uint256",
							"name": "shares",
							"type": "uint256"
						},
						{
							"internalType": "address",
							"name": "receiver",
							"type": "address"
						}
					],
					"name": "mint",
					"outputs": [
						{
							"internalType": "uint256",
							"name": "",
							"type": "uint256"
						}
					],
					"stateMutability": "nonpayable",
					"type": "function"
				},
				{
					"inputs": [],
					"name": "name",
					"outputs": [
						{
							"internalType": "string",
							"name": "",
							"type": "string"
						}
					],
					"stateMutability": "view",
					"type": "function"
				},
				{
					"inputs": [],
					"name": "permitSystem",
					"outputs": [
						{
							"internalType": "contract IPermit2",
							"name": "",
							"type": "address"
						}
					],
					"stateMutability": "view",
					"type": "function"
				},
				{
					"inputs": [
						{
							"internalType": "uint256",
							"name": "assets",
							"type": "uint256"
						}
					],
					"name": "previewDeposit",
					"outputs": [
						{
							"internalType": "uint256",
							"name": "",
							"type": "uint256"
						}
					],
					"stateMutability": "view",
					"type": "function"
				},
				{
					"inputs": [
						{
							"internalType": "uint256",
							"name": "shares",
							"type": "uint256"
						}
					],
					"name": "previewMint",
					"outputs": [
						{
							"internalType": "uint256",
							"name": "",
							"type": "uint256"
						}
					],
					"stateMutability": "view",
					"type": "function"
				},
				{
					"inputs": [
						{
							"internalType": "uint256",
							"name": "shares",
							"type": "uint256"
						}
					],
					"name": "previewRedeem",
					"outputs": [
						{
							"internalType": "uint256",
							"name": "",
							"type": "uint256"
						}
					],
					"stateMutability": "view",
					"type": "function"
				},
				{
					"inputs": [
						{
							"internalType": "uint256",
							"name": "assets",
							"type": "uint256"
						}
					],
					"name": "previewWithdraw",
					"outputs": [
						{
							"internalType": "uint256",
							"name": "",
							"type": "uint256"
						}
					],
					"stateMutability": "view",
					"type": "function"
				},
				{
					"inputs": [
						{
							"internalType": "uint256",
							"name": "shares",
							"type": "uint256"
						},
						{
							"internalType": "address",
							"name": "receiver",
							"type": "address"
						},
						{
							"internalType": "address",
							"name": "owner",
							"type": "address"
						}
					],
					"name": "redeem",
					"outputs": [
						{
							"internalType": "uint256",
							"name": "",
							"type": "uint256"
						}
					],
					"stateMutability": "nonpayable",
					"type": "function"
				},
				{
					"inputs": [],
					"name": "symbol",
					"outputs": [
						{
							"internalType": "string",
							"name": "",
							"type": "string"
						}
					],
					"stateMutability": "view",
					"type": "function"
				},
				{
					"inputs": [],
					"name": "totalAssets",
					"outputs": [
						{
							"internalType": "uint256",
							"name": "",
							"type": "uint256"
						}
					],
					"stateMutability": "view",
					"type": "function"
				},
				{
					"inputs": [],
					"name": "totalSupply",
					"outputs": [
						{
							"internalType": "uint256",
							"name": "",
							"type": "uint256"
						}
					],
					"stateMutability": "view",
					"type": "function"
				},
				{
					"inputs": [
						{
							"internalType": "address",
							"name": "to",
							"type": "address"
						},
						{
							"internalType": "uint256",
							"name": "value",
							"type": "uint256"
						}
					],
					"name": "transfer",
					"outputs": [
						{
							"internalType": "bool",
							"name": "",
							"type": "bool"
						}
					],
					"stateMutability": "nonpayable",
					"type": "function"
				},
				{
					"inputs": [
						{
							"internalType": "address",
							"name": "from",
							"type": "address"
						},
						{
							"internalType": "address",
							"name": "to",
							"type": "address"
						},
						{
							"internalType": "uint256",
							"name": "value",
							"type": "uint256"
						}
					],
					"name": "transferFrom",
					"outputs": [
						{
							"internalType": "bool",
							"name": "",
							"type": "bool"
						}
					],
					"stateMutability": "nonpayable",
					"type": "function"
				},
				{
					"inputs": [
						{
							"internalType": "uint256",
							"name": "assets",
							"type": "uint256"
						},
						{
							"internalType": "address",
							"name": "receiver",
							"type": "address"
						},
						{
							"internalType": "address",
							"name": "owner",
							"type": "address"
						}
					],
					"name": "withdraw",
					"outputs": [
						{
							"internalType": "uint256",
							"name": "",
							"type": "uint256"
						}
					],
					"stateMutability": "nonpayable",
					"type": "function"
				}
			],
			"devdoc": {
				"details": "Extends ERC4626 to utilize a permit system for streamlined deposit operations.",
				"errors": {
					"AddressEmptyCode(address)": [
						{
							"details": "There's no code at `target` (it is not a contract)."
						}
					],
					"AddressInsufficientBalance(address)": [
						{
							"details": "The ETH balance of the account is not enough to perform the operation."
						}
					],
					"ERC20InsufficientAllowance(address,uint256,uint256)": [
						{
							"details": "Indicates a failure with the `spender`s `allowance`. Used in transfers.",
							"params": {
								"allowance": "Amount of tokens a `spender` is allowed to operate with.",
								"needed": "Minimum amount required to perform a transfer.",
								"spender": "Address that may be allowed to operate on tokens without being their owner."
							}
						}
					],
					"ERC20InsufficientBalance(address,uint256,uint256)": [
						{
							"details": "Indicates an error related to the current `balance` of a `sender`. Used in transfers.",
							"params": {
								"balance": "Current balance for the interacting account.",
								"needed": "Minimum amount required to perform a transfer.",
								"sender": "Address whose tokens are being transferred."
							}
						}
					],
					"ERC20InvalidApprover(address)": [
						{
							"details": "Indicates a failure with the `approver` of a token to be approved. Used in approvals.",
							"params": {
								"approver": "Address initiating an approval operation."
							}
						}
					],
					"ERC20InvalidReceiver(address)": [
						{
							"details": "Indicates a failure with the token `receiver`. Used in transfers.",
							"params": {
								"receiver": "Address to which tokens are being transferred."
							}
						}
					],
					"ERC20InvalidSender(address)": [
						{
							"details": "Indicates a failure with the token `sender`. Used in transfers.",
							"params": {
								"sender": "Address whose tokens are being transferred."
							}
						}
					],
					"ERC20InvalidSpender(address)": [
						{
							"details": "Indicates a failure with the `spender` to be approved. Used in approvals.",
							"params": {
								"spender": "Address that may be allowed to operate on tokens without being their owner."
							}
						}
					],
					"ERC4626ExceededMaxDeposit(address,uint256,uint256)": [
						{
							"details": "Attempted to deposit more assets than the max amount for `receiver`."
						}
					],
					"ERC4626ExceededMaxMint(address,uint256,uint256)": [
						{
							"details": "Attempted to mint more shares than the max amount for `receiver`."
						}
					],
					"ERC4626ExceededMaxRedeem(address,uint256,uint256)": [
						{
							"details": "Attempted to redeem more shares than the max amount for `receiver`."
						}
					],
					"ERC4626ExceededMaxWithdraw(address,uint256,uint256)": [
						{
							"details": "Attempted to withdraw more assets than the max amount for `receiver`."
						}
					],
					"FailedInnerCall()": [
						{
							"details": "A call to an address target failed. The target may have reverted."
						}
					],
					"MathOverflowedMulDiv()": [
						{
							"details": "Muldiv operation overflow."
						}
					],
					"SafeERC20FailedOperation(address)": [
						{
							"details": "An operation with an ERC20 token failed."
						}
					]
				},
				"events": {
					"Approval(address,address,uint256)": {
						"details": "Emitted when the allowance of a `spender` for an `owner` is set by a call to {approve}. `value` is the new allowance."
					},
					"Transfer(address,address,uint256)": {
						"details": "Emitted when `value` tokens are moved from one account (`from`) to another (`to`). Note that `value` may be zero."
					}
				},
				"kind": "dev",
				"methods": {
					"allowance(address,address)": {
						"details": "See {IERC20-allowance}."
					},
					"approve(address,uint256)": {
						"details": "See {IERC20-approve}. NOTE: If `value` is the maximum `uint256`, the allowance is not updated on `transferFrom`. This is semantically equivalent to an infinite approval. Requirements: - `spender` cannot be the zero address."
					},
					"asset()": {
						"details": "See {IERC4626-asset}. "
					},
					"balanceOf(address)": {
						"details": "See {IERC20-balanceOf}."
					},
					"constructor": {
						"details": "Initializes the TuliaVault with necessary details and links to the permit system for handling token operations securely.",
						"params": {
							"_permitSystem": "Address of the Permit2 contract used for ERC20 token operations.",
							"asset": "The ERC20 token that this vault will accept.",
							"name": "The name of the vault token.",
							"symbol": "The symbol of the vault token."
						}
					},
					"convertToAssets(uint256)": {
						"details": "See {IERC4626-convertToAssets}. "
					},
					"convertToShares(uint256)": {
						"details": "See {IERC4626-convertToShares}. "
					},
					"decimals()": {
						"details": "Decimals are computed by adding the decimal offset on top of the underlying asset's decimals. This \"original\" value is cached during construction of the vault contract. If this read operation fails (e.g., the asset has not been created yet), a default of 18 is used to represent the underlying asset's decimals. See {IERC20Metadata-decimals}."
					},
					"deposit(uint256,address)": {
						"details": "See {IERC4626-deposit}. "
					},
					"depositWithBatchPermit(((address,uint160,uint48,uint48)[],address,uint256)[],bytes[],address)": {
						"params": {
							"permitData": "Array of permit data for each deposit.",
							"receiver": "Address receiving the vault shares for all deposits.",
							"signatures": "Array of signatures corresponding to each permit data."
						},
						"returns": {
							"shares": "The total number of shares issued to the receiver for all deposits."
						}
					},
					"depositWithPermit(uint256,((address,uint160,uint48,uint48),address,uint256),bytes,address)": {
						"params": {
							"amount": "The amount of the underlying asset to deposit.",
							"permitData": "Data required for the permit including details about the approval.",
							"receiver": "Address receiving the vault shares.",
							"signature": "Signature from the token holder approving the deposit."
						},
						"returns": {
							"shares": "The number of shares issued to the receiver."
						}
					},
					"maxDeposit(address)": {
						"details": "See {IERC4626-maxDeposit}. "
					},
					"maxMint(address)": {
						"details": "See {IERC4626-maxMint}. "
					},
					"maxRedeem(address)": {
						"details": "See {IERC4626-maxRedeem}. "
					},
					"maxWithdraw(address)": {
						"details": "See {IERC4626-maxWithdraw}. "
					},
					"mint(uint256,address)": {
						"details": "See {IERC4626-mint}. As opposed to {deposit}, minting is allowed even if the vault is in a state where the price of a share is zero. In this case, the shares will be minted without requiring any assets to be deposited."
					},
					"name()": {
						"details": "Returns the name of the token."
					},
					"previewDeposit(uint256)": {
						"details": "See {IERC4626-previewDeposit}. "
					},
					"previewMint(uint256)": {
						"details": "See {IERC4626-previewMint}. "
					},
					"previewRedeem(uint256)": {
						"details": "See {IERC4626-previewRedeem}. "
					},
					"previewWithdraw(uint256)": {
						"details": "See {IERC4626-previewWithdraw}. "
					},
					"redeem(uint256,address,address)": {
						"details": "See {IERC4626-redeem}. "
					},
					"symbol()": {
						"details": "Returns the symbol of the token, usually a shorter version of the name."
					},
					"totalAssets()": {
						"details": "See {IERC4626-totalAssets}. "
					},
					"totalSupply()": {
						"details": "See {IERC20-totalSupply}."
					},
					"transfer(address,uint256)": {
						"details": "See {IERC20-transfer}. Requirements: - `to` cannot be the zero address. - the caller must have a balance of at least `value`."
					},
					"transferFrom(address,address,uint256)": {
						"details": "See {IERC20-transferFrom}. Emits an {Approval} event indicating the updated allowance. This is not required by the EIP. See the note at the beginning of {ERC20}. NOTE: Does not update the allowance if the current allowance is the maximum `uint256`. Requirements: - `from` and `to` cannot be the zero address. - `from` must have a balance of at least `value`. - the caller must have allowance for ``from``'s tokens of at least `value`."
					},
					"withdraw(uint256,address,address)": {
						"details": "See {IERC4626-withdraw}. "
					}
				},
				"title": "TuliaVault",
				"version": 1
			},
			"evm": {
				"assembly": "    /* \"contracts/contracts/protocol/TuliaVault.sol\":530:3428  contract TuliaVault is ERC4626, ReentrancyGuard {... */\n  0xe0\n  dup1\n  0x40\n  mstore\n  jumpi(tag_18, callvalue)\n  bytecodeSize\n  dup1\n  codesize\n  sub\n  dup1\n  swap2\n  tag_7\n  dup3\n  dup6\n  tag_1\n  jump\t// in\ntag_7:\n  dup4\n  codecopy\n  dup2\n  add\n  0x80\n  dup3\n  dup3\n  sub\n  slt\n  tag_18\n  jumpi\n  dup2\n  mload\n  sub(shl(0xa0, 0x01), 0x01)\n  swap3\n  dup4\n  dup3\n  and\n  dup3\n  sub\n  tag_18\n  jumpi\n  0x20\n  dup2\n  dup2\n  add\n  mload\n  swap1\n  swap2\n  sub(shl(0x40, 0x01), 0x01)\n  swap2\n  dup3\n  dup2\n  gt\n  tag_18\n  jumpi\n  dup6\n  tag_14\n  swap2\n  dup4\n  add\n  tag_3\n  jump\t// in\ntag_14:\n  swap5\n  0x40\n  dup3\n  add\n  mload\n  dup4\n  dup2\n  gt\n  tag_18\n  jumpi\n  0x60\n  swap2\n  tag_17\n  swap2\n  dup5\n  add\n  tag_3\n  jump\t// in\ntag_17:\n  swap2\n  add\n  mload\n  swap6\n  dup7\n  and\n  dup7\n  sub\n  tag_18\n  jumpi\n  dup5\n  mload\n  dup3\n  dup2\n  gt\n  tag_33\n  jumpi\n    /* \"@openzeppelin/contracts/token/ERC20/ERC20.sol\":1962:1975  _name = name_ */\n  0x03\n    /* \"contracts/contracts/protocol/TuliaVault.sol\":530:3428  contract TuliaVault is ERC4626, ReentrancyGuard {... */\n  swap2\n  dup3\n  sload\n  swap2\n  0x01\n  swap8\n  dup9\n  dup5\n  dup2\n  shr\n  swap5\n  and\n  dup1\n  iszero\n  tag_22\n  jumpi\ntag_23:\n  dup8\n  dup6\n  lt\n  eq\n  tag_24\n  jumpi\n  dup2\n  swap1\n  0x1f\n  swap5\n  dup6\n  dup2\n  gt\n  tag_26\n  jumpi\ntag_27:\n  pop\n  dup8\n  swap1\n  dup6\n  dup4\n  gt\n  0x01\n  eq\n  tag_28\n  jumpi\n  0x00\n  swap3\n  tag_30\n  jumpi\ntag_31:\n  pop\n  pop\n  not(0x00)\n  dup3\n  dup7\n  shl\n  shr\n  not\n  and\n  swap1\n  dup9\n  shl\n  or\n  dup4\n  sstore\ntag_32:\n  dup1\n  mload\n  swap4\n  dup5\n  gt\n  tag_33\n  jumpi\n    /* \"@openzeppelin/contracts/token/ERC20/ERC20.sol\":1985:2002  _symbol = symbol_ */\n  0x04\n    /* \"contracts/contracts/protocol/TuliaVault.sol\":530:3428  contract TuliaVault is ERC4626, ReentrancyGuard {... */\n  swap5\n  dup6\n  sload\n  dup9\n  dup2\n  dup2\n  shr\n  swap2\n  and\n  dup1\n  iszero\n  tag_35\n  jumpi\ntag_36:\n  dup3\n  dup3\n  lt\n  eq\n  tag_37\n  jumpi\n  swap1\n  dup2\n  dup5\n  dup8\n  swap7\n  swap6\n  swap5\n  swap4\n  gt\n  tag_39\n  jumpi\ntag_40:\n  pop\n  dup1\n  swap3\n  dup6\n  gt\n  0x01\n  eq\n  tag_41\n  jumpi\n  pop\n  0x00\n  swap4\n  tag_43\n  jumpi\ntag_44:\n  pop\n  pop\n  dup3\n  dup7\n  shl\n  swap3\n  not(0x00)\n  swap2\n  shl\n  shr\n  not\n  and\n  or\n  swap1\n  sstore\ntag_45:\n    /* \"@openzeppelin/contracts/token/ERC20/extensions/ERC4626.sol\":4240:4268  _tryGetAssetDecimals(asset_) */\n  tag_46\n  dup2\n  tag_4\n  jump\t// in\ntag_46:\n    /* \"@openzeppelin/contracts/token/ERC20/extensions/ERC4626.sol\":4300:4328  success ? assetDecimals : 18 */\n  swap1\n  iszero\n  tag_47\n  jumpi\ntag_49:\n    /* \"@openzeppelin/contracts/token/ERC20/extensions/ERC4626.sol\":4278:4328  _underlyingDecimals = success ? assetDecimals : 18 */\n  0xa0\n  mstore\n    /* \"contracts/contracts/protocol/TuliaVault.sol\":530:3428  contract TuliaVault is ERC4626, ReentrancyGuard {... */\n  0x80\n    /* \"@openzeppelin/contracts/token/ERC20/extensions/ERC4626.sol\":4338:4353  _asset = asset_ */\n  mstore\n    /* \"@openzeppelin/contracts/security/ReentrancyGuard.sol\":1821:1843  _status = _NOT_ENTERED */\n  0x05\n    /* \"@openzeppelin/contracts/security/ReentrancyGuard.sol\":1716:1717  1 */\n  sstore\n    /* \"contracts/contracts/protocol/TuliaVault.sol\":1200:1228  permitSystem = _permitSystem */\n  0xc0\n  mstore\n    /* \"contracts/contracts/protocol/TuliaVault.sol\":530:3428  contract TuliaVault is ERC4626, ReentrancyGuard {... */\n  mload(0x40)\n  dataSize(sub_0)\n  swap1\n  dup2\n  dataOffset(sub_0)\n  dup3\n  codecopy\n  mload(0x80)\n  dup2\n  assignImmutable(\"0x57d03f72a618a841c753598d7d2cbcbbd5f43a73c69f9abc886bd29cf4101ea1\")\n    /* \"@openzeppelin/contracts/token/ERC20/extensions/ERC4626.sol\":4278:4328  _underlyingDecimals = success ? assetDecimals : 18 */\n  0xa0\n    /* \"contracts/contracts/protocol/TuliaVault.sol\":530:3428  contract TuliaVault is ERC4626, ReentrancyGuard {... */\n  mload\n  dup2\n  assignImmutable(\"0xc0bf3ddb79e7c5faf09af1eaa09640fae848e430edf7a04658ec05be9ade7aab\")\n    /* \"contracts/contracts/protocol/TuliaVault.sol\":1200:1228  permitSystem = _permitSystem */\n  0xc0\n    /* \"contracts/contracts/protocol/TuliaVault.sol\":530:3428  contract TuliaVault is ERC4626, ReentrancyGuard {... */\n  mload\n  dup2\n  assignImmutable(\"0xa2d87bfed9ffce410eeb73db13b543e4f8e1158244deff94c16e8199a16f75b2\")\n  return\n    /* \"@openzeppelin/contracts/token/ERC20/extensions/ERC4626.sol\":4300:4328  success ? assetDecimals : 18 */\ntag_47:\n  pop\n    /* \"@openzeppelin/contracts/token/ERC20/extensions/ERC4626.sol\":4326:4328  18 */\n  0x12\n    /* \"@openzeppelin/contracts/token/ERC20/extensions/ERC4626.sol\":4300:4328  success ? assetDecimals : 18 */\n  jump(tag_49)\n    /* \"contracts/contracts/protocol/TuliaVault.sol\":530:3428  contract TuliaVault is ERC4626, ReentrancyGuard {... */\ntag_43:\n  add\n  mload\n  swap2\n  pop\n  0x00\n  dup1\n  jump(tag_44)\ntag_41:\n  swap3\n  swap2\n  swap1\n  dup9\n  swap6\n  pop\n  not(0x1f)\n  dup6\n  and\n  dup8\n  0x00\n  mstore\n  dup5\n  0x00\n  keccak256\n  swap5\n  0x00\n  swap1\ntag_50:\n  dup3\n  dup3\n  lt\n  tag_51\n  jumpi\n  pop\n  pop\n  dup6\n  gt\n  tag_53\n  jumpi\ntag_54:\n  pop\n  pop\n  pop\n  pop\n  dup2\n  shl\n  add\n  swap1\n  sstore\n  jump(tag_45)\ntag_53:\n  add\n  mload\n  swap1\n  0xf8\n  dup5\n  not(0x00)\n  swap3\n  shl\n  and\n  shr\n  not\n  and\n  swap1\n  sstore\n  0x00\n  dup1\n  dup1\n  dup1\n  jump(tag_54)\ntag_51:\n  dup5\n  dup5\n  add\n  mload\n  dup8\n  sstore\n  dup12\n  swap9\n  swap1\n  swap7\n  add\n  swap6\n  swap4\n  dup5\n  add\n  swap4\n  swap1\n  dup2\n  add\n  swap1\n  jump(tag_50)\ntag_39:\n  swap1\n  swap2\n  swap3\n  swap4\n  swap5\n  pop\n  dup7\n  0x00\n  mstore\n  dup2\n  0x00\n  keccak256\n  dup5\n  dup1\n  dup9\n  add\n  0x05\n  shr\n  dup3\n  add\n  swap3\n  dup5\n  dup10\n  lt\n  tag_55\n  jumpi\ntag_56:\n  swap2\n  dup12\n  swap2\n  dup10\n  swap9\n  swap8\n  swap7\n  swap6\n  swap5\n  swap4\n  add\n  0x05\n  shr\n  add\n  swap2\ntag_57:\n  dup3\n  dup2\n  lt\n  tag_58\n  jumpi\n  pop\n  pop\n  jump(tag_40)\ntag_58:\n  0x00\n  dup2\n  sstore\n  dup9\n  swap8\n  pop\n  dup12\n  swap2\n  add\n  jump(tag_57)\ntag_55:\n  swap3\n  pop\n  dup2\n  swap3\n  jump(tag_56)\ntag_37:\n  0x22\n  dup8\n  mstore(0x00, shl(0xe0, 0x4e487b71))\n  mstore\n  revert(0x00, 0x24)\ntag_35:\n  swap1\n  0x7f\n  and\n  swap1\n  jump(tag_36)\ntag_33:\n  mstore(0x00, shl(0xe0, 0x4e487b71))\n  0x41\n    /* \"@openzeppelin/contracts/token/ERC20/ERC20.sol\":1985:2002  _symbol = symbol_ */\n  0x04\n    /* \"contracts/contracts/protocol/TuliaVault.sol\":530:3428  contract TuliaVault is ERC4626, ReentrancyGuard {... */\n  mstore\n  revert(0x00, 0x24)\ntag_30:\n  add\n  mload\n  swap1\n  pop\n  0x00\n  dup1\n  jump(tag_31)\ntag_28:\n  swap1\n  dup11\n  swap4\n  pop\n  not(0x1f)\n  dup4\n  and\n  swap2\n  dup8\n  0x00\n  mstore\n  dup10\n  0x00\n  keccak256\n  swap3\n  0x00\ntag_60:\n  dup12\n  dup3\n  dup3\n  lt\n  tag_61\n  jumpi\n  pop\n  pop\n  dup5\n  gt\n  tag_63\n  jumpi\ntag_64:\n  pop\n  pop\n  pop\n  dup2\n  shl\n  add\n  dup4\n  sstore\n  jump(tag_32)\ntag_63:\n  add\n  mload\n  not(0x00)\n  dup4\n  dup9\n  shl\n  0xf8\n  and\n  shr\n  not\n  and\n  swap1\n  sstore\n  0x00\n  dup1\n  dup1\n  jump(tag_64)\ntag_61:\n  dup4\n  dup6\n  add\n  mload\n  dup7\n  sstore\n  dup15\n  swap8\n  swap1\n  swap6\n  add\n  swap5\n  swap4\n  dup5\n  add\n  swap4\n  add\n  jump(tag_60)\ntag_26:\n  swap1\n  swap2\n  pop\n  dup6\n  0x00\n  mstore\n  dup8\n  0x00\n  keccak256\n  dup6\n  dup1\n  dup6\n  add\n  0x05\n  shr\n  dup3\n  add\n  swap3\n  dup11\n  dup7\n  lt\n  tag_65\n  jumpi\ntag_66:\n  swap2\n  dup13\n  swap2\n  dup7\n  swap6\n  swap5\n  swap4\n  add\n  0x05\n  shr\n  add\n  swap2\ntag_67:\n  dup3\n  dup2\n  lt\n  tag_68\n  jumpi\n  pop\n  pop\n  jump(tag_27)\ntag_68:\n  0x00\n  dup2\n  sstore\n  dup6\n  swap5\n  pop\n  dup13\n  swap2\n  add\n  jump(tag_67)\ntag_65:\n  swap3\n  pop\n  dup2\n  swap3\n  jump(tag_66)\ntag_24:\n  mstore(0x00, shl(0xe0, 0x4e487b71))\n  mstore(0x04, 0x22)\n  revert(0x00, 0x24)\ntag_22:\n  swap4\n  0x7f\n  and\n  swap4\n  jump(tag_23)\ntag_18:\n  0x00\n  dup1\n  revert\ntag_1:\n  0x1f\n  swap1\n  swap2\n  add\n  not(0x1f)\n  and\n  dup2\n  add\n  swap1\n  sub(shl(0x40, 0x01), 0x01)\n  dup3\n  gt\n  swap1\n  dup3\n  lt\n  or\n  tag_33\n  jumpi\n  0x40\n  mstore\n  jump\t// out\ntag_2:\n  sub(shl(0x40, 0x01), 0x01)\n  dup2\n  gt\n  tag_33\n  jumpi\n  0x1f\n  add\n  not(0x1f)\n  and\n  0x20\n  add\n  swap1\n  jump\t// out\ntag_3:\n  dup2\n  0x1f\n  dup3\n  add\n  slt\n  iszero\n  tag_18\n  jumpi\n  dup1\n  mload\n  swap1\n  tag_76\n  dup3\n  tag_2\n  jump\t// in\ntag_76:\n  swap3\n  tag_77\n  mload(0x40)\n  swap5\n  dup6\n  tag_1\n  jump\t// in\ntag_77:\n  dup3\n  dup5\n  mstore\n  0x20\n  dup4\n  dup4\n  add\n  add\n  gt\n  tag_18\n  jumpi\n  dup2\n  0x00\n  swap3\n  0x20\n  dup1\n  swap4\n  add\n  dup4\n  dup7\n  add\n  mcopy\n  dup4\n  add\n  add\n  mstore\n  swap1\n  jump\t// out\n    /* \"@openzeppelin/contracts/token/ERC20/extensions/ERC4626.sol\":4503:5036  function _tryGetAssetDecimals(IERC20 asset_) private view returns (bool, uint8) {... */\ntag_4:\n    /* \"contracts/contracts/protocol/TuliaVault.sol\":530:3428  contract TuliaVault is ERC4626, ReentrancyGuard {... */\n  0x40\n  dup1\n  mload\n  shl(0xe0, 0x313ce567)\n    /* \"@openzeppelin/contracts/token/ERC20/extensions/ERC4626.sol\":4680:4723  abi.encodeCall(IERC20Metadata.decimals, ()) */\n  0x20\n  dup3\n  add\n  swap1\n  dup2\n  mstore\n  0x04\n  dup3\n  mstore\n    /* \"contracts/contracts/protocol/TuliaVault.sol\":530:3428  contract TuliaVault is ERC4626, ReentrancyGuard {... */\n  swap1\n  swap3\n  swap2\n  dup4\n  add\n  swap2\n    /* \"@openzeppelin/contracts/token/ERC20/extensions/ERC4626.sol\":4680:4723  abi.encodeCall(IERC20Metadata.decimals, ()) */\n  swap1\n  sub(shl(0x40, 0x01), 0x01)\n    /* \"contracts/contracts/protocol/TuliaVault.sol\":530:3428  contract TuliaVault is ERC4626, ReentrancyGuard {... */\n  dup4\n  gt\n  dup5\n  dup5\n  lt\n  or\n  tag_33\n  jumpi\n    /* \"@openzeppelin/contracts/token/ERC20/extensions/ERC4626.sol\":4680:4723  abi.encodeCall(IERC20Metadata.decimals, ()) */\n  0x00\n    /* \"contracts/contracts/protocol/TuliaVault.sol\":530:3428  contract TuliaVault is ERC4626, ReentrancyGuard {... */\n  swap4\n  dup5\n  swap4\n  0x40\n  mstore\n    /* \"@openzeppelin/contracts/token/ERC20/extensions/ERC4626.sol\":4640:4733  address(asset_).staticcall(... */\n  mload\n    /* \"contracts/contracts/protocol/TuliaVault.sol\":530:3428  contract TuliaVault is ERC4626, ReentrancyGuard {... */\n  swap2\n  0x01\n  dup1\n  0xa0\n  shl\n  sub\n  and\n    /* \"@openzeppelin/contracts/token/ERC20/extensions/ERC4626.sol\":4640:4733  address(asset_).staticcall(... */\n  gas\n  staticcall\n    /* \"contracts/contracts/protocol/TuliaVault.sol\":530:3428  contract TuliaVault is ERC4626, ReentrancyGuard {... */\n  jumpi(tag_82, iszero(returndatasize))\n  returndatasize\n  swap1\n  tag_84\n  dup3\n  tag_2\n  jump\t// in\ntag_84:\n  swap2\n  tag_85\n  mload(0x40)\n  swap4\n  dup5\n  tag_1\n  jump\t// in\ntag_85:\n  dup3\n  mstore\n  returndatasize\n    /* \"@openzeppelin/contracts/token/ERC20/extensions/ERC4626.sol\":4680:4723  abi.encodeCall(IERC20Metadata.decimals, ()) */\n  0x00\n  0x20\n    /* \"contracts/contracts/protocol/TuliaVault.sol\":530:3428  contract TuliaVault is ERC4626, ReentrancyGuard {... */\n  dup5\n  add\n  returndatacopy\ntag_86:\n    /* \"@openzeppelin/contracts/token/ERC20/extensions/ERC4626.sol\":4747:4786  success && encodedDecimals.length >= 32 */\n  dup1\n  tag_87\n  jumpi\n    /* \"contracts/contracts/protocol/TuliaVault.sol\":530:3428  contract TuliaVault is ERC4626, ReentrancyGuard {... */\ntag_88:\n    /* \"@openzeppelin/contracts/token/ERC20/extensions/ERC4626.sol\":4743:5003  if (success && encodedDecimals.length >= 32) {... */\n  tag_89\n  jumpi\n    /* \"contracts/contracts/protocol/TuliaVault.sol\":530:3428  contract TuliaVault is ERC4626, ReentrancyGuard {... */\ntag_90:\n    /* \"@openzeppelin/contracts/token/ERC20/extensions/ERC4626.sol\":5012:5029  return (false, 0) */\n  pop\n    /* \"@openzeppelin/contracts/token/ERC20/extensions/ERC4626.sol\":4680:4723  abi.encodeCall(IERC20Metadata.decimals, ()) */\n  0x00\n    /* \"@openzeppelin/contracts/token/ERC20/extensions/ERC4626.sol\":5012:5029  return (false, 0) */\n  swap1\n    /* \"@openzeppelin/contracts/token/ERC20/extensions/ERC4626.sol\":4680:4723  abi.encodeCall(IERC20Metadata.decimals, ()) */\n  0x00\n    /* \"@openzeppelin/contracts/token/ERC20/extensions/ERC4626.sol\":4503:5036  function _tryGetAssetDecimals(IERC20 asset_) private view returns (bool, uint8) {... */\n  swap1\n  jump\t// out\n    /* \"@openzeppelin/contracts/token/ERC20/extensions/ERC4626.sol\":4743:5003  if (success && encodedDecimals.length >= 32) {... */\ntag_89:\n    /* \"@openzeppelin/contracts/token/ERC20/extensions/ERC4626.sol\":4680:4723  abi.encodeCall(IERC20Metadata.decimals, ()) */\n  0x20\n    /* \"contracts/contracts/protocol/TuliaVault.sol\":530:3428  contract TuliaVault is ERC4626, ReentrancyGuard {... */\n  dup2\n  dup1\n  mload\n    /* \"@openzeppelin/contracts/token/ERC20/extensions/ERC4626.sol\":4829:4867  abi.decode(encodedDecimals, (uint256)) */\n  dup2\n  add\n    /* \"contracts/contracts/protocol/TuliaVault.sol\":530:3428  contract TuliaVault is ERC4626, ReentrancyGuard {... */\n  sub\n  slt\n  tag_18\n  jumpi\n    /* \"@openzeppelin/contracts/token/ERC20/extensions/ERC4626.sol\":4680:4723  abi.encodeCall(IERC20Metadata.decimals, ()) */\n  0x20\n    /* \"@openzeppelin/contracts/token/ERC20/extensions/ERC4626.sol\":4829:4867  abi.decode(encodedDecimals, (uint256)) */\n  add\n    /* \"contracts/contracts/protocol/TuliaVault.sol\":530:3428  contract TuliaVault is ERC4626, ReentrancyGuard {... */\n  mload\n  0xff\n    /* \"@openzeppelin/contracts/token/ERC20/extensions/ERC4626.sol\":4885:4920  returnedDecimals <= type(uint8).max */\n  dup2\n  gt\n    /* \"@openzeppelin/contracts/token/ERC20/extensions/ERC4626.sol\":4743:5003  if (success && encodedDecimals.length >= 32) {... */\n  tag_90\n    /* \"@openzeppelin/contracts/token/ERC20/extensions/ERC4626.sol\":4881:4993  if (returnedDecimals <= type(uint8).max) {... */\n  jumpi\n    /* \"@openzeppelin/contracts/token/ERC20/extensions/ERC4626.sol\":4940:4978  return (true, uint8(returnedDecimals)) */\n  swap1\n    /* \"contracts/contracts/protocol/TuliaVault.sol\":530:3428  contract TuliaVault is ERC4626, ReentrancyGuard {... */\n  0xff\n  0x01\n  swap3\n  and\n    /* \"@openzeppelin/contracts/token/ERC20/extensions/ERC4626.sol\":4940:4978  return (true, uint8(returnedDecimals)) */\n  swap1\n  jump\t// out\n    /* \"@openzeppelin/contracts/token/ERC20/extensions/ERC4626.sol\":4747:4786  success && encodedDecimals.length >= 32 */\ntag_87:\n    /* \"contracts/contracts/protocol/TuliaVault.sol\":530:3428  contract TuliaVault is ERC4626, ReentrancyGuard {... */\n  pop\n    /* \"@openzeppelin/contracts/token/ERC20/extensions/ERC4626.sol\":4680:4723  abi.encodeCall(IERC20Metadata.decimals, ()) */\n  0x20\n    /* \"contracts/contracts/protocol/TuliaVault.sol\":530:3428  contract TuliaVault is ERC4626, ReentrancyGuard {... */\n  dup2\n  mload\n    /* \"@openzeppelin/contracts/token/ERC20/extensions/ERC4626.sol\":4758:4786  encodedDecimals.length >= 32 */\n  lt\n  iszero\n    /* \"@openzeppelin/contracts/token/ERC20/extensions/ERC4626.sol\":4747:4786  success && encodedDecimals.length >= 32 */\n  jump(tag_88)\n    /* \"contracts/contracts/protocol/TuliaVault.sol\":530:3428  contract TuliaVault is ERC4626, ReentrancyGuard {... */\ntag_82:\n  0x60\n  swap1\n  jump(tag_86)\nstop\n\nsub_0: assembly {\n        /* \"contracts/contracts/protocol/TuliaVault.sol\":530:3428  contract TuliaVault is ERC4626, ReentrancyGuard {... */\n      mstore(0x40, 0x80)\n      jumpi(tag_35, iszero(lt(calldatasize, 0x04)))\n      0x00\n      dup1\n      revert\n    tag_35:\n      shr(0xe0, calldataload(0x00))\n      dup1\n      0x01e1d114\n      eq\n      tag_37\n      jumpi\n      dup1\n      0x06fdde03\n      eq\n      tag_39\n      jumpi\n      dup1\n      0x07a2d13a\n      eq\n      tag_59\n      jumpi\n      dup1\n      0x095ea7b3\n      eq\n      tag_43\n      jumpi\n      dup1\n      0x0a28a477\n      eq\n      tag_45\n      jumpi\n      dup1\n      0x18160ddd\n      eq\n      tag_47\n      jumpi\n      dup1\n      0x23b872dd\n      eq\n      tag_49\n      jumpi\n      dup1\n      0x313ce567\n      eq\n      tag_51\n      jumpi\n      dup1\n      0x38d52e0f\n      eq\n      tag_53\n      jumpi\n      dup1\n      0x402d267d\n      eq\n      tag_79\n      jumpi\n      dup1\n      0x464582cb\n      eq\n      tag_57\n      jumpi\n      dup1\n      0x4cdad506\n      eq\n      tag_59\n      jumpi\n      dup1\n      0x6e553f65\n      eq\n      tag_61\n      jumpi\n      dup1\n      0x70a08231\n      eq\n      tag_85\n      jumpi\n      dup1\n      0x7b17edf2\n      eq\n      tag_65\n      jumpi\n      dup1\n      0x94bf804d\n      eq\n      tag_67\n      jumpi\n      dup1\n      0x95d89b41\n      eq\n      tag_69\n      jumpi\n      dup1\n      0xa9059cbb\n      eq\n      tag_71\n      jumpi\n      dup1\n      0xb3d7f6b9\n      eq\n      tag_73\n      jumpi\n      dup1\n      0xb460af94\n      eq\n      tag_75\n      jumpi\n      dup1\n      0xba087652\n      eq\n      tag_77\n      jumpi\n      dup1\n      0xc63d75b6\n      eq\n      tag_79\n      jumpi\n      dup1\n      0xc6e6f592\n      eq\n      tag_91\n      jumpi\n      dup1\n      0xce96cb77\n      eq\n      tag_83\n      jumpi\n      dup1\n      0xd905777e\n      eq\n      tag_85\n      jumpi\n      dup1\n      0xdd62ed3e\n      eq\n      tag_87\n      jumpi\n      dup1\n      0xe6adb29c\n      eq\n      tag_89\n      jumpi\n      0xef8b30f7\n      eq\n      tag_91\n      jumpi\n      0x00\n      dup1\n      revert\n    tag_91:\n      tag_14\n      jump\t// in\n    tag_89:\n      jumpi(tag_124, callvalue)\n      jumpi(tag_124, slt(add(not(0x03), calldatasize), 0x0120))\n      add(not(0x23), calldatasize)\n      calldataload(0x04)\n      0xc0\n      dup3\n      slt\n      tag_124\n      jumpi\n      0x80\n      mload(0x40)\n      swap3\n      tag_99\n      dup5\n      tag_7\n      jump\t// in\n    tag_99:\n      slt\n      tag_124\n      jumpi\n      mload(0x40)\n      swap2\n      tag_102\n      dup4\n      tag_9\n      jump\t// in\n    tag_102:\n      sub(shl(0xa0, 0x01), 0x01)\n      swap3\n      calldataload(0x24)\n      dup5\n      dup2\n      and\n      dup2\n      sub\n      tag_124\n      jumpi\n      dup2\n      mstore\n      calldataload(0x44)\n      dup5\n      dup2\n      and\n      dup2\n      sub\n      tag_124\n      jumpi\n      0x20\n      dup3\n      add\n      mstore\n      0xffffffffffff\n      calldataload(0x64)\n      dup2\n      dup2\n      and\n      dup2\n      sub\n      tag_124\n      jumpi\n      0x40\n      dup4\n      add\n      mstore\n      calldataload(0x84)\n      swap1\n      dup2\n      and\n      dup2\n      sub\n      tag_124\n      jumpi\n      0x60\n      dup3\n      add\n      mstore\n      dup2\n      mstore\n      calldataload(0xa4)\n      dup4\n      dup2\n      and\n      dup2\n      sub\n      tag_124\n      jumpi\n      0x20\n      dup3\n      add\n      swap1\n      dup2\n      mstore\n      0x40\n      dup3\n      add\n      swap1\n      calldataload(0xc4)\n      dup3\n      mstore\n      calldataload(0xe4)\n      swap2\n      sub(shl(0x40, 0x01), 0x01)\n      dup1\n      dup5\n      gt\n      tag_124\n      jumpi\n      calldatasize\n      0x23\n      dup6\n      add\n      slt\n      iszero\n      tag_124\n      jumpi\n      dup4\n      0x04\n      add\n      calldataload\n      swap1\n      dup2\n      gt\n      tag_124\n      jumpi\n      calldatasize\n      0x24\n      dup3\n      dup7\n      add\n      add\n      gt\n      tag_124\n      jumpi\n      0x0104\n      swap2\n      dup3\n      calldataload\n      swap6\n      dup9\n      dup8\n      and\n      dup8\n      sub\n      tag_124\n      jumpi\n        /* \"@openzeppelin/contracts/security/ReentrancyGuard.sol\":2227:2330  modifier nonReentrant() {... */\n      tag_123\n      tag_29\n      jump\t// in\n    tag_123:\n        /* \"contracts/contracts/protocol/TuliaVault.sol\":1998:2010  permitSystem */\n      dup9\n      immutable(\"0xa2d87bfed9ffce410eeb73db13b543e4f8e1158244deff94c16e8199a16f75b2\")\n        /* \"contracts/contracts/protocol/TuliaVault.sol\":530:3428  contract TuliaVault is ERC4626, ReentrancyGuard {... */\n      and\n        /* \"contracts/contracts/protocol/TuliaVault.sol\":1998:2052  permitSystem.permit(msg.sender, permitData, signature) */\n      swap4\n      dup5\n      extcodesize\n      iszero\n      tag_124\n      jumpi\n        /* \"contracts/contracts/protocol/TuliaVault.sol\":530:3428  contract TuliaVault is ERC4626, ReentrancyGuard {... */\n      0x00\n      swap7\n      tag_126\n      swap5\n      0x24\n      tag_127\n      swap4\n      dup11\n      swap7\n      mload(0x40)\n      swap15\n      dup16\n      swap12\n      dup13\n      swap11\n      dup12\n      swap10\n      shl(0xe4, 0x02b67b57)\n        /* \"contracts/contracts/protocol/TuliaVault.sol\":1998:2052  permitSystem.permit(msg.sender, permitData, signature) */\n      dup12\n      mstore\n        /* \"contracts/contracts/protocol/TuliaVault.sol\":2018:2028  msg.sender */\n      caller\n        /* \"contracts/contracts/protocol/TuliaVault.sol\":530:3428  contract TuliaVault is ERC4626, ReentrancyGuard {... */\n      0x04\n        /* \"contracts/contracts/protocol/TuliaVault.sol\":1998:2052  permitSystem.permit(msg.sender, permitData, signature) */\n      dup13\n      add\n        /* \"contracts/contracts/protocol/TuliaVault.sol\":530:3428  contract TuliaVault is ERC4626, ReentrancyGuard {... */\n      mstore\n      dup7\n      dup12\n      add\n      swap1\n      mload\n      0x60\n      swap1\n      0x01\n      dup1\n      0xa0\n      shl\n      sub\n      dup1\n      dup3\n      mload\n      and\n      dup5\n      mstore\n      0x20\n      dup3\n      add\n      mload\n      and\n      0x20\n      dup5\n      add\n      mstore\n      dup2\n      0x40\n      dup3\n      add\n      mload\n      swap2\n      0xffffffffffff\n      dup1\n      swap4\n      and\n      0x40\n      dup7\n      add\n      mstore\n      add\n      mload\n      and\n      swap2\n      add\n      mstore\n      jump\n    tag_126:\n      mload\n      and\n      0xa4\n      dup9\n      add\n      mstore\n      mload\n      0xc4\n      dup8\n      add\n      mstore\n      0x0100\n      0xe4\n      dup8\n      add\n      mstore\n      dup6\n      add\n      swap3\n      add\n      tag_20\n      jump\t// in\n    tag_127:\n        /* \"contracts/contracts/protocol/TuliaVault.sol\":1998:2052  permitSystem.permit(msg.sender, permitData, signature) */\n      sub\n      swap3\n      gas\n      call\n      swap1\n      dup2\n      iszero\n      tag_128\n      jumpi\n        /* \"contracts/contracts/protocol/TuliaVault.sol\":530:3428  contract TuliaVault is ERC4626, ReentrancyGuard {... */\n      0x20\n        /* \"contracts/contracts/protocol/TuliaVault.sol\":1998:2052  permitSystem.permit(msg.sender, permitData, signature) */\n      swap4\n        /* \"@openzeppelin/contracts/token/ERC20/extensions/ERC4626.sol\":8163:8169  shares */\n      tag_130\n        /* \"contracts/contracts/protocol/TuliaVault.sol\":1998:2052  permitSystem.permit(msg.sender, permitData, signature) */\n      swap3\n      tag_131\n      jumpi\n        /* \"contracts/contracts/protocol/TuliaVault.sol\":530:3428  contract TuliaVault is ERC4626, ReentrancyGuard {... */\n    tag_132:\n        /* \"@openzeppelin/contracts/token/ERC20/extensions/ERC4626.sol\":6046:6091  _convertToShares(assets, Math.Rounding.Floor) */\n      pop\n      tag_133\n      dup4\n      tag_25\n      jump\t// in\n    tag_133:\n        /* \"contracts/contracts/protocol/TuliaVault.sol\":2018:2028  msg.sender */\n      swap3\n      dup4\n      swap2\n      caller\n        /* \"@openzeppelin/contracts/token/ERC20/extensions/ERC4626.sol\":8163:8169  shares */\n      tag_28\n      jump\t// in\n    tag_130:\n        /* \"contracts/contracts/protocol/TuliaVault.sol\":530:3428  contract TuliaVault is ERC4626, ReentrancyGuard {... */\n      0x01\n        /* \"@openzeppelin/contracts/security/ReentrancyGuard.sol\":2809:2831  _status = _NOT_ENTERED */\n      0x05\n        /* \"@openzeppelin/contracts/security/ReentrancyGuard.sol\":1759:1760  2 */\n      sstore\n        /* \"contracts/contracts/protocol/TuliaVault.sol\":530:3428  contract TuliaVault is ERC4626, ReentrancyGuard {... */\n      mload(0x40)\n      swap1\n      dup2\n      mstore\n      return\n        /* \"contracts/contracts/protocol/TuliaVault.sol\":1998:2052  permitSystem.permit(msg.sender, permitData, signature) */\n    tag_131:\n      tag_134\n      swap1\n      tag_8\n      jump\t// in\n    tag_134:\n      dup5\n      jump(tag_132)\n    tag_128:\n        /* \"contracts/contracts/protocol/TuliaVault.sol\":530:3428  contract TuliaVault is ERC4626, ReentrancyGuard {... */\n      mload(0x40)\n      returndatasize\n      0x00\n      dup3\n      returndatacopy\n      returndatasize\n      swap1\n      revert\n        /* \"contracts/contracts/protocol/TuliaVault.sol\":1998:2052  permitSystem.permit(msg.sender, permitData, signature) */\n    tag_124:\n        /* \"contracts/contracts/protocol/TuliaVault.sol\":530:3428  contract TuliaVault is ERC4626, ReentrancyGuard {... */\n      0x00\n      dup1\n      revert\n    tag_87:\n      jumpi(tag_124, callvalue)\n      jumpi(tag_124, slt(add(not(0x03), calldatasize), 0x40))\n      tag_139\n      tag_3\n      jump\t// in\n    tag_139:\n      tag_140\n      tag_4\n      jump\t// in\n    tag_140:\n      swap1\n      0x01\n      dup1\n      0xa0\n      shl\n      sub\n      dup1\n      swap2\n      and\n      0x00\n      mstore\n        /* \"@openzeppelin/contracts/token/ERC20/ERC20.sol\":3952:3963  _allowances */\n      0x01\n        /* \"contracts/contracts/protocol/TuliaVault.sol\":530:3428  contract TuliaVault is ERC4626, ReentrancyGuard {... */\n      0x20\n      mstore\n      keccak256(0x00, 0x40)\n      swap2\n      and\n      0x00\n      mstore\n      0x20\n      mstore\n      0x20\n      sload(keccak256(0x00, 0x40))\n      mload(0x40)\n      swap1\n      dup2\n      mstore\n      return\n    tag_85:\n      jumpi(tag_124, callvalue)\n      jumpi(tag_124, slt(add(not(0x03), calldatasize), 0x20))\n      0x20\n      tag_145\n      tag_146\n      tag_3\n      jump\t// in\n    tag_146:\n      sub(shl(0xa0, 0x01), 0x01)\n      and\n        /* \"@openzeppelin/contracts/token/ERC20/ERC20.sol\":3390:3399  _balances */\n      0x00\n        /* \"contracts/contracts/protocol/TuliaVault.sol\":530:3428  contract TuliaVault is ERC4626, ReentrancyGuard {... */\n      swap1\n      dup2\n      mstore\n      0x20\n      dup2\n      swap1\n      mstore\n      0x40\n      swap1\n      keccak256\n      sload\n      swap1\n        /* \"@openzeppelin/contracts/token/ERC20/ERC20.sol\":3299:3415  function balanceOf(address account) public view virtual returns (uint256) {... */\n      jump\n        /* \"contracts/contracts/protocol/TuliaVault.sol\":530:3428  contract TuliaVault is ERC4626, ReentrancyGuard {... */\n    tag_145:\n      mload(0x40)\n      swap1\n      dup2\n      mstore\n      return\n    tag_83:\n      jumpi(tag_124, callvalue)\n      jumpi(tag_124, slt(add(not(0x03), calldatasize), 0x20))\n      sub(shl(0xa0, 0x01), 0x01)\n      tag_151\n      tag_3\n      jump\t// in\n    tag_151:\n      and\n      0x00\n      mstore\n      mstore(0x20, 0x00)\n      0x20\n        /* \"@openzeppelin/contracts/token/ERC20/extensions/ERC4626.sol\":6749:6804  _convertToAssets(balanceOf(owner), Math.Rounding.Floor) */\n      tag_145\n        /* \"contracts/contracts/protocol/TuliaVault.sol\":530:3428  contract TuliaVault is ERC4626, ReentrancyGuard {... */\n      sload(keccak256(0x00, 0x40))\n        /* \"@openzeppelin/contracts/token/ERC20/extensions/ERC4626.sol\":6749:6804  _convertToAssets(balanceOf(owner), Math.Rounding.Floor) */\n      tag_23\n      jump\t// in\n        /* \"contracts/contracts/protocol/TuliaVault.sol\":530:3428  contract TuliaVault is ERC4626, ReentrancyGuard {... */\n    tag_79:\n      tag_6\n      jump\t// in\n    tag_77:\n      jumpi(tag_124, callvalue)\n      tag_155\n      calldatasize\n      tag_13\n      jump\t// in\n    tag_155:\n        /* \"@openzeppelin/contracts/token/ERC20/extensions/ERC4626.sol\":6948:6964  balanceOf(owner) */\n      swap1\n      tag_156\n      dup3\n        /* \"contracts/contracts/protocol/TuliaVault.sol\":530:3428  contract TuliaVault is ERC4626, ReentrancyGuard {... */\n      0x01\n      dup1\n      0xa0\n      shl\n      sub\n      and\n        /* \"@openzeppelin/contracts/token/ERC20/ERC20.sol\":3390:3399  _balances */\n      0x00\n        /* \"contracts/contracts/protocol/TuliaVault.sol\":530:3428  contract TuliaVault is ERC4626, ReentrancyGuard {... */\n      mstore\n        /* \"@openzeppelin/contracts/token/ERC20/ERC20.sol\":3390:3399  _balances */\n      0x00\n        /* \"contracts/contracts/protocol/TuliaVault.sol\":530:3428  contract TuliaVault is ERC4626, ReentrancyGuard {... */\n      0x20\n      mstore\n      0x40\n        /* \"@openzeppelin/contracts/token/ERC20/ERC20.sol\":3390:3399  _balances */\n      0x00\n        /* \"contracts/contracts/protocol/TuliaVault.sol\":530:3428  contract TuliaVault is ERC4626, ReentrancyGuard {... */\n      keccak256\n      sload\n        /* \"@openzeppelin/contracts/token/ERC20/ERC20.sol\":3299:3415  function balanceOf(address account) public view virtual returns (uint256) {... */\n      swap1\n      jump\n        /* \"@openzeppelin/contracts/token/ERC20/extensions/ERC4626.sol\":6948:6964  balanceOf(owner) */\n    tag_156:\n        /* \"@openzeppelin/contracts/token/ERC20/extensions/ERC4626.sol\":9511:9529  shares > maxShares */\n      dup1\n      dup5\n      gt\n        /* \"@openzeppelin/contracts/token/ERC20/extensions/ERC4626.sol\":9507:9613  if (shares > maxShares) {... */\n      tag_157\n      jumpi\n        /* \"@openzeppelin/contracts/token/ERC20/extensions/ERC4626.sol\":6248:6293  _convertToAssets(shares, Math.Rounding.Floor) */\n      pop\n      dup3\n        /* \"@openzeppelin/contracts/token/ERC20/extensions/ERC4626.sol\":9720:9726  shares */\n      tag_145\n        /* \"@openzeppelin/contracts/token/ERC20/extensions/ERC4626.sol\":6248:6293  _convertToAssets(shares, Math.Rounding.Floor) */\n      swap2\n      tag_160\n        /* \"contracts/contracts/protocol/TuliaVault.sol\":530:3428  contract TuliaVault is ERC4626, ReentrancyGuard {... */\n      0x20\n        /* \"@openzeppelin/contracts/token/ERC20/extensions/ERC4626.sol\":6248:6293  _convertToAssets(shares, Math.Rounding.Floor) */\n      swap6\n      tag_23\n      jump\t// in\n    tag_160:\n        /* \"@openzeppelin/contracts/utils/Context.sol\":735:745  msg.sender */\n      swap4\n      dup5\n      swap2\n      caller\n        /* \"@openzeppelin/contracts/token/ERC20/extensions/ERC4626.sol\":9720:9726  shares */\n      tag_30\n      jump\t// in\n        /* \"@openzeppelin/contracts/token/ERC20/extensions/ERC4626.sol\":9507:9613  if (shares > maxShares) {... */\n    tag_157:\n        /* \"contracts/contracts/protocol/TuliaVault.sol\":530:3428  contract TuliaVault is ERC4626, ReentrancyGuard {... */\n      mload(0x40)\n      shl(0xe2, 0x2e52afbb)\n        /* \"@openzeppelin/contracts/token/ERC20/extensions/ERC4626.sol\":9552:9602  ERC4626ExceededMaxRedeem(owner, shares, maxShares) */\n      dup2\n      mstore\n      sub(shl(0xa0, 0x01), 0x01)\n        /* \"contracts/contracts/protocol/TuliaVault.sol\":530:3428  contract TuliaVault is ERC4626, ReentrancyGuard {... */\n      swap4\n      swap1\n      swap4\n      and\n      0x04\n        /* \"@openzeppelin/contracts/token/ERC20/extensions/ERC4626.sol\":9552:9602  ERC4626ExceededMaxRedeem(owner, shares, maxShares) */\n      dup5\n      add\n        /* \"contracts/contracts/protocol/TuliaVault.sol\":530:3428  contract TuliaVault is ERC4626, ReentrancyGuard {... */\n      mstore\n      0x24\n      dup4\n      add\n      swap4\n      swap1\n      swap4\n      mstore\n      pop\n      0x44\n      dup2\n      add\n      swap2\n      swap1\n      swap2\n      mstore\n      0x64\n      swap1\n        /* \"@openzeppelin/contracts/token/ERC20/extensions/ERC4626.sol\":9552:9602  ERC4626ExceededMaxRedeem(owner, shares, maxShares) */\n      revert\n        /* \"contracts/contracts/protocol/TuliaVault.sol\":530:3428  contract TuliaVault is ERC4626, ReentrancyGuard {... */\n    tag_75:\n      jumpi(tag_124, callvalue)\n      tag_164\n      calldatasize\n      tag_13\n      jump\t// in\n    tag_164:\n        /* \"@openzeppelin/contracts/token/ERC20/extensions/ERC4626.sol\":6766:6782  balanceOf(owner) */\n      swap1\n        /* \"@openzeppelin/contracts/token/ERC20/extensions/ERC4626.sol\":6749:6804  _convertToAssets(balanceOf(owner), Math.Rounding.Floor) */\n      tag_165\n        /* \"@openzeppelin/contracts/token/ERC20/extensions/ERC4626.sol\":6766:6782  balanceOf(owner) */\n      tag_166\n      dup4\n        /* \"contracts/contracts/protocol/TuliaVault.sol\":530:3428  contract TuliaVault is ERC4626, ReentrancyGuard {... */\n      0x01\n      dup1\n      0xa0\n      shl\n      sub\n      and\n        /* \"@openzeppelin/contracts/token/ERC20/ERC20.sol\":3390:3399  _balances */\n      0x00\n        /* \"contracts/contracts/protocol/TuliaVault.sol\":530:3428  contract TuliaVault is ERC4626, ReentrancyGuard {... */\n      mstore\n        /* \"@openzeppelin/contracts/token/ERC20/ERC20.sol\":3390:3399  _balances */\n      0x00\n        /* \"contracts/contracts/protocol/TuliaVault.sol\":530:3428  contract TuliaVault is ERC4626, ReentrancyGuard {... */\n      0x20\n      mstore\n      0x40\n        /* \"@openzeppelin/contracts/token/ERC20/ERC20.sol\":3390:3399  _balances */\n      0x00\n        /* \"contracts/contracts/protocol/TuliaVault.sol\":530:3428  contract TuliaVault is ERC4626, ReentrancyGuard {... */\n      keccak256\n      sload\n        /* \"@openzeppelin/contracts/token/ERC20/ERC20.sol\":3299:3415  function balanceOf(address account) public view virtual returns (uint256) {... */\n      swap1\n      jump\n        /* \"@openzeppelin/contracts/token/ERC20/extensions/ERC4626.sol\":6766:6782  balanceOf(owner) */\n    tag_166:\n        /* \"@openzeppelin/contracts/token/ERC20/extensions/ERC4626.sol\":6749:6804  _convertToAssets(balanceOf(owner), Math.Rounding.Floor) */\n      tag_23\n      jump\t// in\n    tag_165:\n        /* \"@openzeppelin/contracts/token/ERC20/extensions/ERC4626.sol\":9057:9075  assets > maxAssets */\n      dup1\n      dup5\n      gt\n        /* \"@openzeppelin/contracts/token/ERC20/extensions/ERC4626.sol\":9053:9161  if (assets > maxAssets) {... */\n      tag_167\n      jumpi\n        /* \"@openzeppelin/contracts/token/ERC20/extensions/ERC4626.sol\":7514:7558  _convertToShares(assets, Math.Rounding.Ceil) */\n      pop\n        /* \"@openzeppelin/contracts/token/ERC20/extensions/ERC4626.sol\":9270:9276  shares */\n      tag_145\n        /* \"@openzeppelin/contracts/token/ERC20/extensions/ERC4626.sol\":7514:7558  _convertToShares(assets, Math.Rounding.Ceil) */\n      swap1\n      dup4\n      tag_170\n        /* \"contracts/contracts/protocol/TuliaVault.sol\":530:3428  contract TuliaVault is ERC4626, ReentrancyGuard {... */\n      0x20\n        /* \"@openzeppelin/contracts/token/ERC20/extensions/ERC4626.sol\":7514:7558  _convertToShares(assets, Math.Rounding.Ceil) */\n      swap6\n      tag_24\n      jump\t// in\n    tag_170:\n        /* \"@openzeppelin/contracts/utils/Context.sol\":735:745  msg.sender */\n      swap4\n      dup5\n      swap3\n      caller\n        /* \"@openzeppelin/contracts/token/ERC20/extensions/ERC4626.sol\":9270:9276  shares */\n      tag_30\n      jump\t// in\n        /* \"@openzeppelin/contracts/token/ERC20/extensions/ERC4626.sol\":9053:9161  if (assets > maxAssets) {... */\n    tag_167:\n        /* \"contracts/contracts/protocol/TuliaVault.sol\":530:3428  contract TuliaVault is ERC4626, ReentrancyGuard {... */\n      mload(0x40)\n      shl(0xe2, 0x3fa733bb)\n        /* \"@openzeppelin/contracts/token/ERC20/extensions/ERC4626.sol\":9098:9150  ERC4626ExceededMaxWithdraw(owner, assets, maxAssets) */\n      dup2\n      mstore\n      sub(shl(0xa0, 0x01), 0x01)\n        /* \"contracts/contracts/protocol/TuliaVault.sol\":530:3428  contract TuliaVault is ERC4626, ReentrancyGuard {... */\n      swap4\n      swap1\n      swap4\n      and\n      0x04\n        /* \"@openzeppelin/contracts/token/ERC20/extensions/ERC4626.sol\":9098:9150  ERC4626ExceededMaxWithdraw(owner, assets, maxAssets) */\n      dup5\n      add\n        /* \"contracts/contracts/protocol/TuliaVault.sol\":530:3428  contract TuliaVault is ERC4626, ReentrancyGuard {... */\n      mstore\n      0x24\n      dup4\n      add\n      swap4\n      swap1\n      swap4\n      mstore\n      pop\n      0x44\n      dup2\n      add\n      swap2\n      swap1\n      swap2\n      mstore\n      0x64\n      swap1\n        /* \"@openzeppelin/contracts/token/ERC20/extensions/ERC4626.sol\":9552:9602  ERC4626ExceededMaxRedeem(owner, shares, maxShares) */\n      revert\n        /* \"contracts/contracts/protocol/TuliaVault.sol\":530:3428  contract TuliaVault is ERC4626, ReentrancyGuard {... */\n    tag_73:\n      jumpi(tag_124, callvalue)\n      jumpi(tag_124, slt(add(not(0x03), calldatasize), 0x20))\n      0x20\n        /* \"@openzeppelin/contracts/token/ERC20/extensions/ERC4626.sol\":7313:7357  _convertToAssets(shares, Math.Rounding.Ceil) */\n      tag_145\n        /* \"contracts/contracts/protocol/TuliaVault.sol\":530:3428  contract TuliaVault is ERC4626, ReentrancyGuard {... */\n      calldataload(0x04)\n        /* \"@openzeppelin/contracts/token/ERC20/extensions/ERC4626.sol\":7313:7357  _convertToAssets(shares, Math.Rounding.Ceil) */\n      tag_22\n      jump\t// in\n        /* \"contracts/contracts/protocol/TuliaVault.sol\":530:3428  contract TuliaVault is ERC4626, ReentrancyGuard {... */\n    tag_71:\n      jumpi(tag_124, callvalue)\n      jumpi(tag_124, slt(add(not(0x03), calldatasize), 0x40))\n        /* \"@openzeppelin/contracts/token/ERC20/ERC20.sol\":3754:3759  value */\n      tag_181\n        /* \"contracts/contracts/protocol/TuliaVault.sol\":530:3428  contract TuliaVault is ERC4626, ReentrancyGuard {... */\n      tag_182\n      tag_3\n      jump\t// in\n    tag_182:\n      calldataload(0x24)\n        /* \"@openzeppelin/contracts/utils/Context.sol\":735:745  msg.sender */\n      swap1\n      caller\n        /* \"@openzeppelin/contracts/token/ERC20/ERC20.sol\":3754:3759  value */\n      tag_27\n      jump\t// in\n    tag_181:\n        /* \"contracts/contracts/protocol/TuliaVault.sol\":530:3428  contract TuliaVault is ERC4626, ReentrancyGuard {... */\n      0x20\n      mload(0x40)\n      0x01\n      dup2\n      mstore\n      return\n    tag_69:\n      jumpi(tag_124, callvalue)\n      jumpi(tag_124, slt(add(not(0x03), calldatasize), 0x00))\n      mload(0x40)\n      0x00\n      swap1\n      sload(0x04)\n      0x01\n      dup2\n      0x01\n      shr\n      swap1\n      0x01\n      dup4\n      and\n      swap3\n      dup4\n      iszero\n      tag_187\n      jumpi\n    tag_188:\n      0x20\n      swap4\n      dup5\n      dup5\n      lt\n      dup2\n      eq\n      tag_189\n      jumpi\n      dup4\n      dup7\n      mstore\n      swap1\n      dup2\n      iszero\n      tag_191\n      jumpi\n      pop\n      0x01\n      eq\n      tag_193\n      jumpi\n    tag_194:\n      tag_195\n      dup5\n      tag_196\n      dup2\n      dup9\n      sub\n      dup3\n      tag_10\n      jump\t// in\n    tag_196:\n      mload(0x40)\n      swap2\n      dup3\n      swap2\n      dup3\n      tag_1\n      jump\t// in\n    tag_195:\n      sub\n      swap1\n      return\n    tag_193:\n      0x04\n      0x00\n      swap1\n      dup2\n      mstore\n      swap3\n      swap5\n      pop\n      0x8a35acfbc15ff81a39ae7d344fd709f28e8600b4aa8c65c6b64bfe7fe36bd19b\n    tag_197:\n      dup3\n      dup5\n      lt\n      tag_198\n      jumpi\n      pop\n      pop\n      pop\n      dup2\n      tag_195\n      swap4\n      tag_196\n      swap3\n      dup3\n      add\n      add\n      swap4\n      jump(tag_194)\n    tag_198:\n      dup1\n      sload\n      dup6\n      dup6\n      add\n      dup8\n      add\n      mstore\n      swap3\n      dup6\n      add\n      swap3\n      dup2\n      add\n      jump(tag_197)\n    tag_191:\n      not(0xff)\n      and\n      dup6\n      dup6\n      add\n      mstore\n      pop\n      pop\n      iszero\n      iszero\n      0x05\n      shl\n      dup3\n      add\n      add\n      swap2\n      pop\n      tag_196\n      dup2\n      tag_195\n      jump(tag_194)\n    tag_189:\n      mstore(0x00, shl(0xe0, 0x4e487b71))\n      mstore(0x04, 0x22)\n      revert(0x00, 0x24)\n    tag_187:\n      swap2\n      0x7f\n      and\n      swap2\n      jump(tag_188)\n    tag_67:\n      jumpi(tag_124, callvalue)\n      jumpi(tag_124, slt(add(not(0x03), calldatasize), 0x40))\n      0x20\n      calldataload(0x04)\n        /* \"@openzeppelin/contracts/token/ERC20/extensions/ERC4626.sol\":8810:8816  shares */\n      tag_145\n        /* \"contracts/contracts/protocol/TuliaVault.sol\":530:3428  contract TuliaVault is ERC4626, ReentrancyGuard {... */\n      tag_205\n      tag_4\n      jump\t// in\n    tag_205:\n        /* \"@openzeppelin/contracts/token/ERC20/extensions/ERC4626.sol\":7313:7357  _convertToAssets(shares, Math.Rounding.Ceil) */\n      swap2\n      tag_206\n      dup2\n      tag_22\n      jump\t// in\n    tag_206:\n        /* \"@openzeppelin/contracts/utils/Context.sol\":735:745  msg.sender */\n      dup1\n      swap4\n      caller\n        /* \"@openzeppelin/contracts/token/ERC20/extensions/ERC4626.sol\":8810:8816  shares */\n      tag_28\n      jump\t// in\n        /* \"contracts/contracts/protocol/TuliaVault.sol\":530:3428  contract TuliaVault is ERC4626, ReentrancyGuard {... */\n    tag_65:\n      jumpi(tag_124, callvalue)\n      jumpi(tag_124, slt(add(not(0x03), calldatasize), 0x60))\n      jumpi(tag_124, gt(calldataload(0x04), sub(shl(0x40, 0x01), 0x01)))\n      jumpi(tag_124, iszero(slt(add(calldataload(0x04), 0x23), calldatasize)))\n      calldataload(add(0x04, calldataload(0x04)))\n      tag_215\n      dup2\n      tag_11\n      jump\t// in\n    tag_215:\n      swap1\n      tag_216\n      mload(0x40)\n      swap3\n      dup4\n      tag_10\n      jump\t// in\n    tag_216:\n      dup1\n      dup3\n      mstore\n      0x20\n      dup3\n      add\n      swap1\n      calldatasize\n      0x24\n      dup3\n      0x05\n      shl\n      calldataload(0x04)\n      add\n      add\n      gt\n      tag_124\n      jumpi\n      add(calldataload(0x04), 0x24)\n      swap2\n    tag_219:\n      0x24\n      dup3\n      0x05\n      shl\n      calldataload(0x04)\n      add\n      add\n      dup4\n      lt\n      tag_220\n      jumpi\n      dup4\n      jumpi(tag_124, gt(calldataload(0x24), sub(shl(0x40, 0x01), 0x01)))\n      jumpi(tag_124, iszero(slt(add(calldataload(0x24), 0x23), calldatasize)))\n      jumpi(tag_124, gt(calldataload(add(0x04, calldataload(0x24))), sub(shl(0x40, 0x01), 0x01)))\n      calldatasize\n      0x24\n      dup1\n      calldataload\n      0x04\n      add\n      calldataload\n      0x05\n      shl\n      dup2\n      calldataload\n      add\n      add\n      gt\n      tag_124\n      jumpi\n      calldataload(0x44)\n      sub(shl(0xa0, 0x01), 0x01)\n      dup2\n      and\n      swap1\n      sub\n      tag_124\n      jumpi\n        /* \"@openzeppelin/contracts/security/ReentrancyGuard.sol\":2227:2330  modifier nonReentrant() {... */\n      tag_232\n      tag_29\n      jump\t// in\n    tag_232:\n        /* \"contracts/contracts/protocol/TuliaVault.sol\":530:3428  contract TuliaVault is ERC4626, ReentrancyGuard {... */\n      0x00\n        /* \"contracts/contracts/protocol/TuliaVault.sol\":2856:2869  uint256 i = 0 */\n      swap1\n        /* \"contracts/contracts/protocol/TuliaVault.sol\":530:3428  contract TuliaVault is ERC4626, ReentrancyGuard {... */\n      0x00\n        /* \"contracts/contracts/protocol/TuliaVault.sol\":2851:3279  for (uint256 i = 0; i < permitData.length; i++) {... */\n      swap1\n        /* \"contracts/contracts/protocol/TuliaVault.sol\":2894:2897  i++ */\n    tag_233:\n        /* \"contracts/contracts/protocol/TuliaVault.sol\":530:3428  contract TuliaVault is ERC4626, ReentrancyGuard {... */\n      dup1\n      mload\n        /* \"contracts/contracts/protocol/TuliaVault.sol\":2871:2892  i < permitData.length */\n      dup3\n      lt\n      iszero\n      tag_234\n      jumpi\n        /* \"contracts/contracts/protocol/TuliaVault.sol\":3010:3023  permitData[i] */\n      tag_236\n      dup3\n      dup3\n      tag_18\n      jump\t// in\n    tag_236:\n      mload\n        /* \"contracts/contracts/protocol/TuliaVault.sol\":530:3428  contract TuliaVault is ERC4626, ReentrancyGuard {... */\n      calldataload(add(0x04, calldataload(0x24)))\n      dup4\n      lt\n      iszero\n      tag_237\n      jumpi\n      add(sub(calldatasize, calldataload(0x24)), not(0x42))\n      0x24\n      dup5\n      0x05\n      shl\n      dup2\n      calldataload\n      add\n      add\n      calldataload\n      slt\n      iszero\n      tag_124\n      jumpi\n      0x24\n      dup4\n      0x05\n      shl\n      dup2\n      calldataload\n      add\n      add\n      calldataload\n      calldataload(0x24)\n      add\n      swap1\n      sub(shl(0x40, 0x01), 0x01)\n      0x24\n      dup4\n      add\n      calldataload\n      gt\n      tag_124\n      jumpi\n      0x24\n      dup3\n      add\n      calldataload\n      calldatasize\n      sub\n      0x44\n      dup4\n      add\n      sgt\n      tag_124\n      jumpi\n        /* \"contracts/contracts/protocol/TuliaVault.sol\":2978:2990  permitSystem */\n      immutable(\"0xa2d87bfed9ffce410eeb73db13b543e4f8e1158244deff94c16e8199a16f75b2\")\n      sub(shl(0xa0, 0x01), 0x01)\n        /* \"contracts/contracts/protocol/TuliaVault.sol\":530:3428  contract TuliaVault is ERC4626, ReentrancyGuard {... */\n      and\n        /* \"contracts/contracts/protocol/TuliaVault.sol\":2978:3039  permitSystem.permit(msg.sender, permitData[i], signatures[i]) */\n      extcodesize\n      iszero\n      tag_124\n      jumpi\n        /* \"contracts/contracts/protocol/TuliaVault.sol\":530:3428  contract TuliaVault is ERC4626, ReentrancyGuard {... */\n      mload(0x40)\n      swap2\n      shl(0xe0, 0x2a2d80d1)\n        /* \"contracts/contracts/protocol/TuliaVault.sol\":2978:3039  permitSystem.permit(msg.sender, permitData[i], signatures[i]) */\n      dup4\n      mstore\n        /* \"contracts/contracts/protocol/TuliaVault.sol\":2998:3008  msg.sender */\n      caller\n        /* \"contracts/contracts/protocol/TuliaVault.sol\":530:3428  contract TuliaVault is ERC4626, ReentrancyGuard {... */\n      0x04\n        /* \"contracts/contracts/protocol/TuliaVault.sol\":2978:3039  permitSystem.permit(msg.sender, permitData[i], signatures[i]) */\n      dup5\n      add\n        /* \"contracts/contracts/protocol/TuliaVault.sol\":530:3428  contract TuliaVault is ERC4626, ReentrancyGuard {... */\n      mstore\n      0x60\n      0x24\n      dup5\n      add\n      mstore\n      0xc4\n      dup4\n      add\n      swap2\n      dup1\n      mload\n      swap3\n      0x60\n      0x64\n      dup7\n      add\n      mstore\n      dup4\n      mload\n      dup1\n      swap2\n      mstore\n      0x20\n      0xe4\n      dup7\n      add\n      swap5\n      add\n      swap1\n      0x00\n    tag_247:\n      dup2\n      dup2\n      lt\n      tag_248\n      jumpi\n      pop\n      pop\n      pop\n      tag_250\n      0x00\n      swap4\n      dup6\n      swap4\n      0x40\n      dup6\n      swap5\n      0x01\n      dup1\n      0xa0\n      shl\n      sub\n      0x20\n      dup3\n      add\n      mload\n      and\n      0x84\n      dup8\n      add\n      mstore\n      add\n      mload\n      0xa4\n      dup6\n      add\n      mstore\n      not(0x03)\n      dup5\n      dup4\n      sub\n      add\n      0x44\n      dup6\n      add\n      mstore\n      0x44\n      0x24\n      dup3\n      add\n      calldataload\n      swap2\n      add\n      tag_20\n      jump\t// in\n    tag_250:\n        /* \"contracts/contracts/protocol/TuliaVault.sol\":2978:3039  permitSystem.permit(msg.sender, permitData[i], signatures[i]) */\n      sub\n        /* \"contracts/contracts/protocol/TuliaVault.sol\":530:3428  contract TuliaVault is ERC4626, ReentrancyGuard {... */\n      dup2\n      dup4\n        /* \"contracts/contracts/protocol/TuliaVault.sol\":2978:2990  permitSystem */\n      immutable(\"0xa2d87bfed9ffce410eeb73db13b543e4f8e1158244deff94c16e8199a16f75b2\")\n      sub(shl(0xa0, 0x01), 0x01)\n        /* \"contracts/contracts/protocol/TuliaVault.sol\":530:3428  contract TuliaVault is ERC4626, ReentrancyGuard {... */\n      and\n        /* \"contracts/contracts/protocol/TuliaVault.sol\":2978:3039  permitSystem.permit(msg.sender, permitData[i], signatures[i]) */\n      gas\n      call\n      dup1\n      iszero\n      tag_128\n      jumpi\n      tag_253\n      jumpi\n        /* \"contracts/contracts/protocol/TuliaVault.sol\":530:3428  contract TuliaVault is ERC4626, ReentrancyGuard {... */\n    tag_254:\n        /* \"contracts/contracts/protocol/TuliaVault.sol\":3136:3149  uint256 j = 0 */\n      pop\n        /* \"contracts/contracts/protocol/TuliaVault.sol\":530:3428  contract TuliaVault is ERC4626, ReentrancyGuard {... */\n      0x00\n        /* \"contracts/contracts/protocol/TuliaVault.sol\":3185:3188  j++ */\n    tag_255:\n        /* \"contracts/contracts/protocol/TuliaVault.sol\":3155:3168  permitData[i] */\n      tag_256\n      dup4\n      dup4\n      tag_18\n      jump\t// in\n    tag_256:\n      mload\n        /* \"contracts/contracts/protocol/TuliaVault.sol\":3155:3176  permitData[i].details */\n      mload\n        /* \"contracts/contracts/protocol/TuliaVault.sol\":530:3428  contract TuliaVault is ERC4626, ReentrancyGuard {... */\n      mload\n        /* \"contracts/contracts/protocol/TuliaVault.sol\":3151:3183  j < permitData[i].details.length */\n      dup2\n      lt\n      iszero\n      tag_257\n      jumpi\n        /* \"contracts/contracts/protocol/TuliaVault.sol\":530:3428  contract TuliaVault is ERC4626, ReentrancyGuard {... */\n      0x01\n      swap4\n      dup5\n      swap1\n        /* \"contracts/contracts/protocol/TuliaVault.sol\":3208:3254  totalAmount += permitData[i].details[j].amount */\n      tag_259\n      swap1\n      sub(shl(0xa0, 0x01), 0x01)\n        /* \"contracts/contracts/protocol/TuliaVault.sol\":530:3428  contract TuliaVault is ERC4626, ReentrancyGuard {... */\n      0x20\n        /* \"contracts/contracts/protocol/TuliaVault.sol\":3223:3247  permitData[i].details[j] */\n      tag_260\n        /* \"contracts/contracts/protocol/TuliaVault.sol\":3223:3236  permitData[i] */\n      dup7\n      tag_261\n      dup11\n      dup11\n      tag_18\n      jump\t// in\n    tag_261:\n      mload\n        /* \"contracts/contracts/protocol/TuliaVault.sol\":3223:3244  permitData[i].details */\n      mload\n        /* \"contracts/contracts/protocol/TuliaVault.sol\":3223:3247  permitData[i].details[j] */\n      tag_18\n      jump\t// in\n    tag_260:\n      mload\n        /* \"contracts/contracts/protocol/TuliaVault.sol\":3223:3254  permitData[i].details[j].amount */\n      add\n        /* \"contracts/contracts/protocol/TuliaVault.sol\":530:3428  contract TuliaVault is ERC4626, ReentrancyGuard {... */\n      mload\n      and\n        /* \"contracts/contracts/protocol/TuliaVault.sol\":3208:3254  totalAmount += permitData[i].details[j].amount */\n      swap1\n      tag_21\n      jump\t// in\n    tag_259:\n        /* \"contracts/contracts/protocol/TuliaVault.sol\":3185:3188  j++ */\n      swap5\n      pop\n        /* \"contracts/contracts/protocol/TuliaVault.sol\":530:3428  contract TuliaVault is ERC4626, ReentrancyGuard {... */\n      add\n        /* \"contracts/contracts/protocol/TuliaVault.sol\":3136:3149  uint256 j = 0 */\n      jump(tag_255)\n        /* \"contracts/contracts/protocol/TuliaVault.sol\":3151:3183  j < permitData[i].details.length */\n    tag_257:\n      pop\n      swap1\n        /* \"contracts/contracts/protocol/TuliaVault.sol\":530:3428  contract TuliaVault is ERC4626, ReentrancyGuard {... */\n      0x01\n      add\n        /* \"contracts/contracts/protocol/TuliaVault.sol\":2856:2869  uint256 i = 0 */\n      swap1\n      jump(tag_233)\n        /* \"contracts/contracts/protocol/TuliaVault.sol\":2978:3039  permitSystem.permit(msg.sender, permitData[i], signatures[i]) */\n    tag_253:\n      tag_262\n      swap1\n      tag_8\n      jump\t// in\n    tag_262:\n      dup4\n      jump(tag_254)\n        /* \"contracts/contracts/protocol/TuliaVault.sol\":530:3428  contract TuliaVault is ERC4626, ReentrancyGuard {... */\n    tag_248:\n      swap1\n      swap2\n      swap5\n      0x20\n      0x80\n      dup3\n      tag_263\n      0x01\n      swap5\n      dup11\n      swap15\n      swap12\n      swap15\n      mload\n      0x60\n      swap1\n      0x01\n      dup1\n      0xa0\n      shl\n      sub\n      dup1\n      dup3\n      mload\n      and\n      dup5\n      mstore\n      0x20\n      dup3\n      add\n      mload\n      and\n      0x20\n      dup5\n      add\n      mstore\n      dup2\n      0x40\n      dup3\n      add\n      mload\n      swap2\n      0xffffffffffff\n      dup1\n      swap4\n      and\n      0x40\n      dup7\n      add\n      mstore\n      add\n      mload\n      and\n      swap2\n      add\n      mstore\n      jump\n    tag_263:\n      swap9\n      swap12\n      swap9\n      add\n      swap7\n      add\n      swap3\n      swap2\n      add\n      jump(tag_247)\n    tag_237:\n      mstore(0x00, shl(0xe0, 0x4e487b71))\n      mstore(0x04, 0x32)\n      revert(0x00, 0x24)\n        /* \"contracts/contracts/protocol/TuliaVault.sol\":2871:2892  i < permitData.length */\n    tag_234:\n        /* \"contracts/contracts/protocol/TuliaVault.sol\":530:3428  contract TuliaVault is ERC4626, ReentrancyGuard {... */\n      0x20\n        /* \"contracts/contracts/protocol/TuliaVault.sol\":2871:2892  i < permitData.length */\n      dup4\n        /* \"@openzeppelin/contracts/token/ERC20/extensions/ERC4626.sol\":8163:8169  shares */\n      tag_130\n        /* \"@openzeppelin/contracts/token/ERC20/extensions/ERC4626.sol\":6046:6091  _convertToShares(assets, Math.Rounding.Floor) */\n      tag_265\n      dup3\n      tag_25\n      jump\t// in\n    tag_265:\n        /* \"contracts/contracts/protocol/TuliaVault.sol\":530:3428  contract TuliaVault is ERC4626, ReentrancyGuard {... */\n      dup1\n      swap3\n      calldataload(0x44)\n        /* \"contracts/contracts/protocol/TuliaVault.sol\":2998:3008  msg.sender */\n      caller\n        /* \"@openzeppelin/contracts/token/ERC20/extensions/ERC4626.sol\":8163:8169  shares */\n      tag_28\n      jump\t// in\n        /* \"contracts/contracts/protocol/TuliaVault.sol\":530:3428  contract TuliaVault is ERC4626, ReentrancyGuard {... */\n    tag_220:\n      dup3\n      calldataload\n      sub(shl(0x40, 0x01), 0x01)\n      dup2\n      gt\n      tag_124\n      jumpi\n      0x60\n      calldataload(0x04)\n      dup3\n      add\n      calldatasize\n      sub\n      not(0x23)\n      add\n      slt\n      tag_124\n      jumpi\n      mload(0x40)\n      swap1\n      tag_270\n      dup3\n      tag_7\n      jump\t// in\n    tag_270:\n      0x24\n      dup2\n      calldataload(0x04)\n      add\n      add\n      calldataload\n      sub(shl(0x40, 0x01), 0x01)\n      dup2\n      gt\n      tag_124\n      jumpi\n      dup2\n      calldataload(0x04)\n      add\n      add\n      calldatasize\n      0x43\n      dup3\n      add\n      slt\n      iszero\n      tag_124\n      jumpi\n      0x24\n      dup2\n      add\n      calldataload\n      swap1\n      tag_275\n      dup3\n      tag_11\n      jump\t// in\n    tag_275:\n      swap2\n      tag_276\n      mload(0x40)\n      swap4\n      dup5\n      tag_10\n      jump\t// in\n    tag_276:\n      dup1\n      dup4\n      mstore\n      0x20\n      dup4\n      add\n      calldatasize\n      0x44\n      dup4\n      0x07\n      shl\n      dup6\n      add\n      add\n      gt\n      tag_124\n      jumpi\n      0x44\n      dup4\n      add\n      swap1\n    tag_279:\n      0x44\n      dup4\n      0x07\n      shl\n      dup6\n      add\n      add\n      dup3\n      lt\n      tag_280\n      jumpi\n      pop\n      pop\n      pop\n      pop\n      swap3\n      dup3\n      0x64\n      0x20\n      swap5\n      swap4\n      0x24\n      swap7\n      dup7\n      swap6\n      mstore\n      tag_282\n      0x44\n      dup3\n      calldataload(0x04)\n      add\n      add\n      tag_5\n      jump\t// in\n    tag_282:\n      dup6\n      dup5\n      add\n      mstore\n      calldataload(0x04)\n      add\n      add\n      calldataload\n      0x40\n      dup3\n      add\n      mstore\n      dup2\n      mstore\n      add\n      swap4\n      add\n      swap3\n      swap1\n      pop\n      jump(tag_219)\n    tag_280:\n      0x80\n      dup3\n      calldatasize\n      sub\n      slt\n      tag_124\n      jumpi\n      mload(0x40)\n      swap1\n      tag_285\n      dup3\n      tag_9\n      jump\t// in\n    tag_285:\n      tag_286\n      dup4\n      tag_5\n      jump\t// in\n    tag_286:\n      dup3\n      mstore\n      0x20\n      dup4\n      add\n      calldataload\n      swap1\n      sub(shl(0xa0, 0x01), 0x01)\n      dup3\n      and\n      dup3\n      sub\n      tag_124\n      jumpi\n      dup3\n      0x20\n      swap3\n      dup4\n      0x80\n      swap6\n      add\n      mstore\n      tag_289\n      0x40\n      dup7\n      add\n      tag_12\n      jump\t// in\n    tag_289:\n      0x40\n      dup3\n      add\n      mstore\n      tag_290\n      0x60\n      dup7\n      add\n      tag_12\n      jump\t// in\n    tag_290:\n      0x60\n      dup3\n      add\n      mstore\n      dup2\n      mstore\n      add\n      swap2\n      add\n      swap1\n      jump(tag_279)\n    tag_61:\n      jumpi(tag_124, callvalue)\n      jumpi(tag_124, slt(add(not(0x03), calldatasize), 0x40))\n      0x20\n      calldataload(0x04)\n        /* \"@openzeppelin/contracts/token/ERC20/extensions/ERC4626.sol\":8163:8169  shares */\n      tag_145\n        /* \"contracts/contracts/protocol/TuliaVault.sol\":530:3428  contract TuliaVault is ERC4626, ReentrancyGuard {... */\n      tag_302\n      tag_4\n      jump\t// in\n    tag_302:\n        /* \"@openzeppelin/contracts/token/ERC20/extensions/ERC4626.sol\":6046:6091  _convertToShares(assets, Math.Rounding.Floor) */\n      tag_133\n      dup4\n      tag_25\n      jump\t// in\n        /* \"contracts/contracts/protocol/TuliaVault.sol\":530:3428  contract TuliaVault is ERC4626, ReentrancyGuard {... */\n    tag_59:\n      tag_2\n      jump\t// in\n    tag_57:\n      jumpi(tag_124, callvalue)\n      jumpi(tag_124, slt(add(not(0x03), calldatasize), 0x00))\n      mload(0x40)\n        /* \"contracts/contracts/protocol/TuliaVault.sol\":584:622  IPermit2 public immutable permitSystem */\n      immutable(\"0xa2d87bfed9ffce410eeb73db13b543e4f8e1158244deff94c16e8199a16f75b2\")\n      sub(shl(0xa0, 0x01), 0x01)\n        /* \"contracts/contracts/protocol/TuliaVault.sol\":530:3428  contract TuliaVault is ERC4626, ReentrancyGuard {... */\n      and\n      dup2\n      mstore\n      0x20\n      swap1\n      return\n    tag_53:\n      jumpi(tag_124, callvalue)\n      jumpi(tag_124, slt(add(not(0x03), calldatasize), 0x00))\n      mload(0x40)\n        /* \"@openzeppelin/contracts/token/ERC20/extensions/ERC4626.sol\":5716:5722  _asset */\n      immutable(\"0x57d03f72a618a841c753598d7d2cbcbbd5f43a73c69f9abc886bd29cf4101ea1\")\n      sub(shl(0xa0, 0x01), 0x01)\n        /* \"contracts/contracts/protocol/TuliaVault.sol\":530:3428  contract TuliaVault is ERC4626, ReentrancyGuard {... */\n      and\n      dup2\n      mstore\n      0x20\n      swap1\n      return\n    tag_51:\n      jumpi(tag_124, callvalue)\n      jumpi(tag_124, slt(add(not(0x03), calldatasize), 0x00))\n      0xff\n        /* \"@openzeppelin/contracts/token/ERC20/extensions/ERC4626.sol\":5546:5565  _underlyingDecimals */\n      immutable(\"0xc0bf3ddb79e7c5faf09af1eaa09640fae848e430edf7a04658ec05be9ade7aab\")\n        /* \"contracts/contracts/protocol/TuliaVault.sol\":530:3428  contract TuliaVault is ERC4626, ReentrancyGuard {... */\n      and\n      0xff\n      dup2\n      gt\n      tag_316\n      jumpi\n      0x20\n      swap1\n      mload(0x40)\n      swap1\n      dup2\n      mstore\n      return\n    tag_316:\n      mstore(0x00, shl(0xe0, 0x4e487b71))\n      mstore(0x04, 0x11)\n      revert(0x00, 0x24)\n    tag_49:\n      jumpi(tag_124, callvalue)\n      jumpi(tag_124, slt(add(not(0x03), calldatasize), 0x60))\n        /* \"@openzeppelin/contracts/token/ERC20/ERC20.sol\":5249:5254  value */\n      tag_181\n        /* \"contracts/contracts/protocol/TuliaVault.sol\":530:3428  contract TuliaVault is ERC4626, ReentrancyGuard {... */\n      tag_323\n      tag_3\n      jump\t// in\n    tag_323:\n      tag_324\n      tag_4\n      jump\t// in\n    tag_324:\n      calldataload(0x44)\n        /* \"@openzeppelin/contracts/utils/Context.sol\":735:745  msg.sender */\n      swap2\n        /* \"@openzeppelin/contracts/token/ERC20/ERC20.sol\":5213:5218  value */\n      tag_325\n        /* \"@openzeppelin/contracts/utils/Context.sol\":735:745  msg.sender */\n      dup4\n      caller\n        /* \"@openzeppelin/contracts/token/ERC20/ERC20.sol\":5213:5218  value */\n      dup4\n      tag_26\n      jump\t// in\n    tag_325:\n        /* \"@openzeppelin/contracts/token/ERC20/ERC20.sol\":5249:5254  value */\n      tag_27\n      jump\t// in\n        /* \"contracts/contracts/protocol/TuliaVault.sol\":530:3428  contract TuliaVault is ERC4626, ReentrancyGuard {... */\n    tag_47:\n      jumpi(tag_124, callvalue)\n      jumpi(tag_124, slt(add(not(0x03), calldatasize), 0x00))\n      0x20\n        /* \"@openzeppelin/contracts/token/ERC20/ERC20.sol\":3222:3234  _totalSupply */\n      0x02\n        /* \"contracts/contracts/protocol/TuliaVault.sol\":530:3428  contract TuliaVault is ERC4626, ReentrancyGuard {... */\n      sload\n      mload(0x40)\n      swap1\n      dup2\n      mstore\n      return\n    tag_45:\n      jumpi(tag_124, callvalue)\n      jumpi(tag_124, slt(add(not(0x03), calldatasize), 0x20))\n      0x20\n        /* \"@openzeppelin/contracts/token/ERC20/extensions/ERC4626.sol\":7514:7558  _convertToShares(assets, Math.Rounding.Ceil) */\n      tag_145\n        /* \"contracts/contracts/protocol/TuliaVault.sol\":530:3428  contract TuliaVault is ERC4626, ReentrancyGuard {... */\n      calldataload(0x04)\n        /* \"@openzeppelin/contracts/token/ERC20/extensions/ERC4626.sol\":7514:7558  _convertToShares(assets, Math.Rounding.Ceil) */\n      tag_24\n      jump\t// in\n        /* \"contracts/contracts/protocol/TuliaVault.sol\":530:3428  contract TuliaVault is ERC4626, ReentrancyGuard {... */\n    tag_43:\n      jumpi(tag_124, callvalue)\n      jumpi(tag_124, slt(add(not(0x03), calldatasize), 0x40))\n      tag_339\n      tag_3\n      jump\t// in\n    tag_339:\n      calldataload(0x24)\n        /* \"@openzeppelin/contracts/utils/Context.sol\":735:745  msg.sender */\n      swap1\n      caller\n        /* \"@openzeppelin/contracts/token/ERC20/ERC20.sol\":10061:10080  owner == address(0) */\n      iszero\n        /* \"@openzeppelin/contracts/token/ERC20/ERC20.sol\":10057:10146  if (owner == address(0)) {... */\n      tag_340\n      jumpi\n      sub(shl(0xa0, 0x01), 0x01)\n        /* \"contracts/contracts/protocol/TuliaVault.sol\":530:3428  contract TuliaVault is ERC4626, ReentrancyGuard {... */\n      and\n      swap1\n        /* \"@openzeppelin/contracts/token/ERC20/ERC20.sol\":10159:10180  spender == address(0) */\n      dup2\n      iszero\n        /* \"@openzeppelin/contracts/token/ERC20/ERC20.sol\":10155:10245  if (spender == address(0)) {... */\n      tag_342\n      jumpi\n        /* \"@openzeppelin/contracts/utils/Context.sol\":735:745  msg.sender */\n      caller\n        /* \"contracts/contracts/protocol/TuliaVault.sol\":530:3428  contract TuliaVault is ERC4626, ReentrancyGuard {... */\n      0x00\n      mstore\n        /* \"@openzeppelin/contracts/token/ERC20/ERC20.sol\":9105:9109  true */\n      0x01\n        /* \"contracts/contracts/protocol/TuliaVault.sol\":530:3428  contract TuliaVault is ERC4626, ReentrancyGuard {... */\n      0x20\n      mstore\n      keccak256(0x00, 0x40)\n      dup3\n      0x00\n      mstore\n      0x20\n      mstore\n      dup1\n      keccak256(0x00, 0x40)\n        /* \"@openzeppelin/contracts/security/ReentrancyGuard.sol\":1759:1760  2 */\n      sstore\n        /* \"contracts/contracts/protocol/TuliaVault.sol\":530:3428  contract TuliaVault is ERC4626, ReentrancyGuard {... */\n      mload(0x40)\n      swap1\n      dup2\n      mstore\n        /* \"@openzeppelin/contracts/token/ERC20/ERC20.sol\":10333:10364  Approval(owner, spender, value) */\n      0x8c5be1e5ebec7d5bd14f71427d1e84f3dd0314c0f7b2291e5b200ac8c7c3b925\n        /* \"contracts/contracts/protocol/TuliaVault.sol\":530:3428  contract TuliaVault is ERC4626, ReentrancyGuard {... */\n      0x20\n        /* \"@openzeppelin/contracts/utils/Context.sol\":735:745  msg.sender */\n      caller\n        /* \"@openzeppelin/contracts/token/ERC20/ERC20.sol\":10333:10364  Approval(owner, spender, value) */\n      swap3\n      log3\n        /* \"contracts/contracts/protocol/TuliaVault.sol\":530:3428  contract TuliaVault is ERC4626, ReentrancyGuard {... */\n      0x20\n      mload(0x40)\n        /* \"@openzeppelin/contracts/token/ERC20/ERC20.sol\":9105:9109  true */\n      0x01\n        /* \"contracts/contracts/protocol/TuliaVault.sol\":530:3428  contract TuliaVault is ERC4626, ReentrancyGuard {... */\n      dup2\n      mstore\n      return\n        /* \"@openzeppelin/contracts/token/ERC20/ERC20.sol\":10155:10245  if (spender == address(0)) {... */\n    tag_342:\n        /* \"contracts/contracts/protocol/TuliaVault.sol\":530:3428  contract TuliaVault is ERC4626, ReentrancyGuard {... */\n      mload(0x40)\n      shl(0xe1, 0x4a1406b1)\n        /* \"@openzeppelin/contracts/token/ERC20/ERC20.sol\":10203:10234  ERC20InvalidSpender(address(0)) */\n      dup2\n      mstore\n        /* \"contracts/contracts/protocol/TuliaVault.sol\":530:3428  contract TuliaVault is ERC4626, ReentrancyGuard {... */\n      0x00\n      0x04\n        /* \"@openzeppelin/contracts/token/ERC20/ERC20.sol\":10203:10234  ERC20InvalidSpender(address(0)) */\n      dup3\n      add\n        /* \"contracts/contracts/protocol/TuliaVault.sol\":530:3428  contract TuliaVault is ERC4626, ReentrancyGuard {... */\n      mstore\n      0x24\n      swap1\n        /* \"@openzeppelin/contracts/token/ERC20/ERC20.sol\":10203:10234  ERC20InvalidSpender(address(0)) */\n      revert\n        /* \"@openzeppelin/contracts/token/ERC20/ERC20.sol\":10057:10146  if (owner == address(0)) {... */\n    tag_340:\n        /* \"contracts/contracts/protocol/TuliaVault.sol\":530:3428  contract TuliaVault is ERC4626, ReentrancyGuard {... */\n      mload(0x40)\n      shl(0xe0, 0xe602df05)\n        /* \"@openzeppelin/contracts/token/ERC20/ERC20.sol\":10103:10135  ERC20InvalidApprover(address(0)) */\n      dup2\n      mstore\n        /* \"contracts/contracts/protocol/TuliaVault.sol\":530:3428  contract TuliaVault is ERC4626, ReentrancyGuard {... */\n      0x00\n      0x04\n        /* \"@openzeppelin/contracts/token/ERC20/ERC20.sol\":10103:10135  ERC20InvalidApprover(address(0)) */\n      dup3\n      add\n        /* \"contracts/contracts/protocol/TuliaVault.sol\":530:3428  contract TuliaVault is ERC4626, ReentrancyGuard {... */\n      mstore\n      0x24\n      swap1\n        /* \"@openzeppelin/contracts/token/ERC20/ERC20.sol\":10103:10135  ERC20InvalidApprover(address(0)) */\n      revert\n        /* \"contracts/contracts/protocol/TuliaVault.sol\":530:3428  contract TuliaVault is ERC4626, ReentrancyGuard {... */\n    tag_39:\n      jumpi(tag_124, callvalue)\n      jumpi(tag_124, slt(add(not(0x03), calldatasize), 0x00))\n      mload(0x40)\n      0x00\n      swap1\n        /* \"@openzeppelin/contracts/token/ERC20/ERC20.sol\":2151:2156  _name */\n      0x03\n        /* \"contracts/contracts/protocol/TuliaVault.sol\":530:3428  contract TuliaVault is ERC4626, ReentrancyGuard {... */\n      sload\n      0x01\n      dup2\n      0x01\n      shr\n      swap1\n      0x01\n      dup4\n      and\n      swap3\n      dup4\n      iszero\n      tag_348\n      jumpi\n    tag_349:\n      0x20\n      swap4\n      dup5\n      dup5\n      lt\n      dup2\n      eq\n      tag_189\n      jumpi\n      dup4\n      dup7\n      mstore\n      swap1\n      dup2\n      iszero\n      tag_191\n      jumpi\n      pop\n      0x01\n      eq\n      tag_354\n      jumpi\n      tag_195\n      dup5\n      tag_196\n      dup2\n      dup9\n      sub\n      dup3\n      tag_10\n      jump\t// in\n    tag_354:\n        /* \"@openzeppelin/contracts/token/ERC20/ERC20.sol\":2151:2156  _name */\n      0x03\n        /* \"contracts/contracts/protocol/TuliaVault.sol\":530:3428  contract TuliaVault is ERC4626, ReentrancyGuard {... */\n      0x00\n      swap1\n      dup2\n      mstore\n      swap3\n      swap5\n      pop\n      0xc2575a0e9e593c00f959f8c92f12db2869c3395a3b0502d05e2516446f71f85b\n    tag_358:\n      dup3\n      dup5\n      lt\n      tag_359\n      jumpi\n      pop\n      pop\n      pop\n      dup2\n      tag_195\n      swap4\n      tag_196\n      swap3\n      dup3\n      add\n      add\n      swap4\n      jump(tag_194)\n    tag_359:\n      dup1\n      sload\n      dup6\n      dup6\n      add\n      dup8\n      add\n      mstore\n      swap3\n      dup6\n      add\n      swap3\n      dup2\n      add\n      jump(tag_358)\n    tag_348:\n      swap2\n      0x7f\n      and\n      swap2\n      jump(tag_349)\n    tag_37:\n      jumpi(tag_124, callvalue)\n      jumpi(tag_124, slt(add(not(0x03), calldatasize), 0x00))\n      0x20\n      tag_145\n      tag_15\n      jump\t// in\n    tag_1:\n      0x20\n      0x40\n      swap3\n      dup2\n      dup4\n      mstore\n      dup1\n      mload\n      swap2\n      dup3\n      swap2\n      dup3\n      dup3\n      dup7\n      add\n      mstore\n      add\n      dup5\n      dup5\n      add\n      mcopy\n      0x00\n      dup3\n      dup3\n      add\n      dup5\n      add\n      mstore\n      0x1f\n      add\n      not(0x1f)\n      and\n      add\n      add\n      swap1\n      jump\t// out\n    tag_2:\n      jumpi(tag_124, callvalue)\n      jumpi(tag_124, slt(add(not(0x03), calldatasize), 0x20))\n      0x20\n        /* \"@openzeppelin/contracts/token/ERC20/extensions/ERC4626.sol\":6248:6293  _convertToAssets(shares, Math.Rounding.Floor) */\n      tag_145\n        /* \"contracts/contracts/protocol/TuliaVault.sol\":530:3428  contract TuliaVault is ERC4626, ReentrancyGuard {... */\n      calldataload(0x04)\n        /* \"@openzeppelin/contracts/token/ERC20/extensions/ERC4626.sol\":6248:6293  _convertToAssets(shares, Math.Rounding.Floor) */\n      tag_23\n      jump\t// in\n        /* \"contracts/contracts/protocol/TuliaVault.sol\":530:3428  contract TuliaVault is ERC4626, ReentrancyGuard {... */\n    tag_3:\n      calldataload(0x04)\n      swap1\n      sub(shl(0xa0, 0x01), 0x01)\n      dup3\n      and\n      dup3\n      sub\n      tag_124\n      jumpi\n      jump\t// out\n    tag_4:\n      calldataload(0x24)\n      swap1\n      sub(shl(0xa0, 0x01), 0x01)\n      dup3\n      and\n      dup3\n      sub\n      tag_124\n      jumpi\n      jump\t// out\n    tag_5:\n      calldataload\n      swap1\n      sub(shl(0xa0, 0x01), 0x01)\n      dup3\n      and\n      dup3\n      sub\n      tag_124\n      jumpi\n      jump\t// out\n    tag_6:\n      jumpi(tag_124, callvalue)\n      jumpi(tag_124, slt(add(not(0x03), calldatasize), 0x20))\n      tag_381\n      tag_3\n      jump\t// in\n    tag_381:\n      pop\n      0x20\n      mload(0x40)\n        /* \"@openzeppelin/contracts/token/ERC20/extensions/ERC4626.sol\":6433:6450  type(uint256).max */\n      not(0x00)\n        /* \"contracts/contracts/protocol/TuliaVault.sol\":530:3428  contract TuliaVault is ERC4626, ReentrancyGuard {... */\n      dup2\n      mstore\n      return\n    tag_7:\n      0x60\n      dup2\n      add\n      swap1\n      dup2\n      lt\n      sub(shl(0x40, 0x01), 0x01)\n      dup3\n      gt\n      or\n      tag_382\n      jumpi\n      0x40\n      mstore\n      jump\t// out\n    tag_382:\n      mstore(0x00, shl(0xe0, 0x4e487b71))\n      mstore(0x04, 0x41)\n      revert(0x00, 0x24)\n    tag_8:\n      sub(shl(0x40, 0x01), 0x01)\n      dup2\n      gt\n      tag_382\n      jumpi\n      0x40\n      mstore\n      jump\t// out\n    tag_9:\n      0x80\n      dup2\n      add\n      swap1\n      dup2\n      lt\n      sub(shl(0x40, 0x01), 0x01)\n      dup3\n      gt\n      or\n      tag_382\n      jumpi\n      0x40\n      mstore\n      jump\t// out\n    tag_10:\n      swap1\n      0x1f\n      dup1\n      not\n      swap2\n      add\n      and\n      dup2\n      add\n      swap1\n      dup2\n      lt\n      sub(shl(0x40, 0x01), 0x01)\n      dup3\n      gt\n      or\n      tag_382\n      jumpi\n      0x40\n      mstore\n      jump\t// out\n    tag_11:\n      sub(shl(0x40, 0x01), 0x01)\n      dup2\n      gt\n      tag_382\n      jumpi\n      0x05\n      shl\n      0x20\n      add\n      swap1\n      jump\t// out\n    tag_12:\n      calldataload\n      swap1\n      0xffffffffffff\n      dup3\n      and\n      dup3\n      sub\n      tag_124\n      jumpi\n      jump\t// out\n    tag_13:\n      0x60\n      swap1\n      not(0x03)\n      add\n      slt\n      tag_124\n      jumpi\n      calldataload(0x04)\n      swap1\n      sub(shl(0xa0, 0x01), 0x01)\n      swap1\n      calldataload(0x24)\n      dup3\n      dup2\n      and\n      dup2\n      sub\n      tag_124\n      jumpi\n      swap2\n      calldataload(0x44)\n      swap1\n      dup2\n      and\n      dup2\n      sub\n      tag_124\n      jumpi\n      swap1\n      jump\t// out\n    tag_14:\n      jumpi(tag_124, callvalue)\n      jumpi(tag_124, slt(add(not(0x03), calldatasize), 0x20))\n      0x20\n        /* \"@openzeppelin/contracts/token/ERC20/extensions/ERC4626.sol\":6046:6091  _convertToShares(assets, Math.Rounding.Floor) */\n      tag_145\n        /* \"contracts/contracts/protocol/TuliaVault.sol\":530:3428  contract TuliaVault is ERC4626, ReentrancyGuard {... */\n      calldataload(0x04)\n        /* \"@openzeppelin/contracts/token/ERC20/extensions/ERC4626.sol\":6046:6091  _convertToShares(assets, Math.Rounding.Floor) */\n      tag_25\n      jump\t// in\n        /* \"@openzeppelin/contracts/token/ERC20/extensions/ERC4626.sol\":5780:5896  function totalAssets() public view virtual returns (uint256) {... */\n    tag_15:\n        /* \"contracts/contracts/protocol/TuliaVault.sol\":530:3428  contract TuliaVault is ERC4626, ReentrancyGuard {... */\n      mload(0x40)\n      shl(0xe0, 0x70a08231)\n        /* \"@openzeppelin/contracts/token/ERC20/extensions/ERC4626.sol\":5858:5889  _asset.balanceOf(address(this)) */\n      dup2\n      mstore\n        /* \"@openzeppelin/contracts/token/ERC20/extensions/ERC4626.sol\":5883:5887  this */\n      address\n        /* \"@openzeppelin/contracts/token/ERC20/extensions/ERC4626.sol\":5858:5889  _asset.balanceOf(address(this)) */\n      0x04\n      dup3\n      add\n        /* \"contracts/contracts/protocol/TuliaVault.sol\":530:3428  contract TuliaVault is ERC4626, ReentrancyGuard {... */\n      mstore\n        /* \"@openzeppelin/contracts/token/ERC20/extensions/ERC4626.sol\":5858:5889  _asset.balanceOf(address(this)) */\n      0x20\n        /* \"contracts/contracts/protocol/TuliaVault.sol\":530:3428  contract TuliaVault is ERC4626, ReentrancyGuard {... */\n      dup2\n      0x24\n      dup2\n        /* \"@openzeppelin/contracts/token/ERC20/extensions/ERC4626.sol\":5858:5864  _asset */\n      immutable(\"0x57d03f72a618a841c753598d7d2cbcbbd5f43a73c69f9abc886bd29cf4101ea1\")\n      sub(shl(0xa0, 0x01), 0x01)\n        /* \"contracts/contracts/protocol/TuliaVault.sol\":530:3428  contract TuliaVault is ERC4626, ReentrancyGuard {... */\n      and\n        /* \"@openzeppelin/contracts/token/ERC20/extensions/ERC4626.sol\":5858:5889  _asset.balanceOf(address(this)) */\n      gas\n      staticcall\n      swap1\n      dup2\n      iszero\n      tag_128\n      jumpi\n      0x00\n      swap2\n      tag_407\n      jumpi\n        /* \"@openzeppelin/contracts/token/ERC20/extensions/ERC4626.sol\":5851:5889  return _asset.balanceOf(address(this)) */\n      pop\n        /* \"@openzeppelin/contracts/token/ERC20/extensions/ERC4626.sol\":5780:5896  function totalAssets() public view virtual returns (uint256) {... */\n      swap1\n      jump\t// out\n        /* \"@openzeppelin/contracts/token/ERC20/extensions/ERC4626.sol\":5858:5889  _asset.balanceOf(address(this)) */\n    tag_407:\n      swap1\n      pop\n      0x20\n      dup2\n      jumpi(tag_409, gt(0x20, returndatasize))\n    tag_410:\n      dup2\n      tag_411\n      0x20\n      swap4\n      dup4\n      tag_10\n      jump\t// in\n    tag_411:\n      dup2\n      add\n        /* \"contracts/contracts/protocol/TuliaVault.sol\":530:3428  contract TuliaVault is ERC4626, ReentrancyGuard {... */\n      sub\n      slt\n      tag_124\n      jumpi\n      mload\n        /* \"@openzeppelin/contracts/token/ERC20/extensions/ERC4626.sol\":5780:5896  function totalAssets() public view virtual returns (uint256) {... */\n      swap1\n      jump\t// out\n        /* \"@openzeppelin/contracts/token/ERC20/extensions/ERC4626.sol\":5858:5889  _asset.balanceOf(address(this)) */\n    tag_409:\n      returndatasize\n      swap2\n      pop\n      jump(tag_410)\n        /* \"contracts/contracts/protocol/TuliaVault.sol\":530:3428  contract TuliaVault is ERC4626, ReentrancyGuard {... */\n    tag_18:\n      dup1\n      mload\n      dup3\n      lt\n      iszero\n      tag_237\n      jumpi\n      0x20\n      swap2\n      0x05\n      shl\n      add\n      add\n      swap1\n      jump\t// out\n    tag_20:\n      swap1\n      dup1\n      0x20\n      swap4\n      swap3\n      dup2\n      dup5\n      mstore\n      dup5\n      dup5\n      add\n      calldatacopy\n      0x00\n      dup3\n      dup3\n      add\n      dup5\n      add\n      mstore\n      0x1f\n      add\n      not(0x1f)\n      and\n      add\n      add\n      swap1\n      jump\t// out\n    tag_21:\n      swap2\n      swap1\n      dup3\n      add\n      dup1\n      swap3\n      gt\n      tag_316\n      jumpi\n      jump\t// out\n        /* \"@openzeppelin/contracts/token/ERC20/extensions/ERC4626.sol\":10219:10432  function _convertToAssets(uint256 shares, Math.Rounding rounding) internal view virtual returns (uint256) {... */\n    tag_22:\n        /* \"@openzeppelin/contracts/token/ERC20/extensions/ERC4626.sol\":10356:10369  totalAssets() */\n      tag_418\n      tag_15\n      jump\t// in\n    tag_418:\n        /* \"@openzeppelin/contracts/token/ERC20/extensions/ERC4626.sol\":7338:7356  Math.Rounding.Ceil */\n      0x01\n        /* \"contracts/contracts/protocol/TuliaVault.sol\":530:3428  contract TuliaVault is ERC4626, ReentrancyGuard {... */\n      dup2\n      add\n      dup1\n      swap2\n      gt\n      tag_316\n      jumpi\n        /* \"@openzeppelin/contracts/token/ERC20/ERC20.sol\":3222:3234  _totalSupply */\n      0x02\n        /* \"contracts/contracts/protocol/TuliaVault.sol\":530:3428  contract TuliaVault is ERC4626, ReentrancyGuard {... */\n      sload\n      swap1\n        /* \"@openzeppelin/contracts/token/ERC20/extensions/ERC4626.sol\":7338:7356  Math.Rounding.Ceil */\n      0x01\n        /* \"contracts/contracts/protocol/TuliaVault.sol\":530:3428  contract TuliaVault is ERC4626, ReentrancyGuard {... */\n      dup3\n      add\n      dup1\n      swap3\n      gt\n      tag_316\n      jumpi\n        /* \"@openzeppelin/contracts/token/ERC20/extensions/ERC4626.sol\":10342:10425  shares.mulDiv(totalAssets() + 1, totalSupply() + 10 ** _decimalsOffset(), rounding) */\n      tag_423\n      swap3\n      tag_31\n      jump\t// in\n    tag_423:\n        /* \"@openzeppelin/contracts/token/ERC20/extensions/ERC4626.sol\":10219:10432  function _convertToAssets(uint256 shares, Math.Rounding rounding) internal view virtual returns (uint256) {... */\n      swap1\n      jump\t// out\n    tag_23:\n        /* \"@openzeppelin/contracts/token/ERC20/extensions/ERC4626.sol\":10356:10369  totalAssets() */\n      tag_424\n      tag_15\n      jump\t// in\n    tag_424:\n        /* \"@openzeppelin/contracts/token/ERC20/extensions/ERC4626.sol\":10372:10373  1 */\n      0x01\n        /* \"contracts/contracts/protocol/TuliaVault.sol\":530:3428  contract TuliaVault is ERC4626, ReentrancyGuard {... */\n      dup2\n      add\n      dup1\n      swap2\n      gt\n      tag_316\n      jumpi\n        /* \"@openzeppelin/contracts/token/ERC20/ERC20.sol\":3222:3234  _totalSupply */\n      0x02\n        /* \"contracts/contracts/protocol/TuliaVault.sol\":530:3428  contract TuliaVault is ERC4626, ReentrancyGuard {... */\n      sload\n      swap1\n        /* \"@openzeppelin/contracts/token/ERC20/extensions/ERC4626.sol\":10372:10373  1 */\n      0x01\n        /* \"contracts/contracts/protocol/TuliaVault.sol\":530:3428  contract TuliaVault is ERC4626, ReentrancyGuard {... */\n      dup3\n      add\n      dup1\n      swap3\n      gt\n      tag_316\n      jumpi\n        /* \"@openzeppelin/contracts/utils/math/Math.sol\":8188:8213  mulDiv(x, y, denominator) */\n      tag_423\n      swap3\n      tag_32\n      jump\t// in\n        /* \"@openzeppelin/contracts/token/ERC20/extensions/ERC4626.sol\":9882:10095  function _convertToShares(uint256 assets, Math.Rounding rounding) internal view virtual returns (uint256) {... */\n    tag_24:\n        /* \"@openzeppelin/contracts/token/ERC20/ERC20.sol\":3222:3234  _totalSupply */\n      0x02\n        /* \"contracts/contracts/protocol/TuliaVault.sol\":530:3428  contract TuliaVault is ERC4626, ReentrancyGuard {... */\n      sload\n      0x01\n      dup2\n      add\n      dup1\n      swap2\n      gt\n      tag_316\n      jumpi\n        /* \"@openzeppelin/contracts/token/ERC20/extensions/ERC4626.sol\":10060:10073  totalAssets() */\n      tag_432\n      tag_15\n      jump\t// in\n    tag_432:\n        /* \"contracts/contracts/protocol/TuliaVault.sol\":530:3428  contract TuliaVault is ERC4626, ReentrancyGuard {... */\n      swap1\n      0x01\n      dup3\n      add\n      dup1\n      swap3\n      gt\n      tag_316\n      jumpi\n        /* \"@openzeppelin/contracts/token/ERC20/extensions/ERC4626.sol\":10005:10088  assets.mulDiv(totalSupply() + 10 ** _decimalsOffset(), totalAssets() + 1, rounding) */\n      tag_423\n      swap3\n      tag_31\n      jump\t// in\n        /* \"@openzeppelin/contracts/token/ERC20/extensions/ERC4626.sol\":9882:10095  function _convertToShares(uint256 assets, Math.Rounding rounding) internal view virtual returns (uint256) {... */\n    tag_25:\n        /* \"@openzeppelin/contracts/token/ERC20/ERC20.sol\":3222:3234  _totalSupply */\n      0x02\n        /* \"contracts/contracts/protocol/TuliaVault.sol\":530:3428  contract TuliaVault is ERC4626, ReentrancyGuard {... */\n      sload\n      0x01\n      dup2\n      add\n      dup1\n      swap2\n      gt\n      tag_316\n      jumpi\n        /* \"@openzeppelin/contracts/token/ERC20/extensions/ERC4626.sol\":10060:10073  totalAssets() */\n      tag_438\n      tag_15\n      jump\t// in\n    tag_438:\n        /* \"contracts/contracts/protocol/TuliaVault.sol\":530:3428  contract TuliaVault is ERC4626, ReentrancyGuard {... */\n      swap1\n      0x01\n      dup3\n      add\n      dup1\n      swap3\n      gt\n      tag_316\n      jumpi\n        /* \"@openzeppelin/contracts/utils/math/Math.sol\":8188:8213  mulDiv(x, y, denominator) */\n      tag_423\n      swap3\n      tag_32\n      jump\t// in\n        /* \"@openzeppelin/contracts/token/ERC20/ERC20.sol\":10663:11140  function _spendAllowance(address owner, address spender, uint256 value) internal virtual {... */\n    tag_26:\n      swap2\n      swap1\n        /* \"contracts/contracts/protocol/TuliaVault.sol\":530:3428  contract TuliaVault is ERC4626, ReentrancyGuard {... */\n      0x01\n      dup1\n      0xa0\n      shl\n      sub\n      dup1\n      swap4\n      and\n      swap3\n      dup4\n      0x00\n      mstore\n        /* \"@openzeppelin/contracts/token/ERC20/ERC20.sol\":3952:3963  _allowances */\n      0x01\n        /* \"contracts/contracts/protocol/TuliaVault.sol\":530:3428  contract TuliaVault is ERC4626, ReentrancyGuard {... */\n      0x20\n      mstore\n      0x40\n      swap4\n      dup5\n      0x00\n      keccak256\n      swap2\n      dup4\n      and\n      swap2\n      dup3\n      0x00\n      mstore\n      0x20\n      mstore\n      dup5\n      0x00\n      keccak256\n      sload\n        /* \"@openzeppelin/contracts/token/ERC20/extensions/ERC4626.sol\":6433:6450  type(uint256).max */\n      swap3\n      not(0x00)\n        /* \"@openzeppelin/contracts/token/ERC20/ERC20.sol\":10828:10865  currentAllowance != type(uint256).max */\n      dup5\n      sub\n        /* \"@openzeppelin/contracts/token/ERC20/ERC20.sol\":10824:11134  if (currentAllowance != type(uint256).max) {... */\n      tag_442\n      jumpi\n        /* \"@openzeppelin/contracts/token/ERC20/ERC20.sol\":10663:11140  function _spendAllowance(address owner, address spender, uint256 value) internal virtual {... */\n    tag_443:\n      pop\n      pop\n      pop\n      pop\n      pop\n      pop\n      jump\t// out\n        /* \"@openzeppelin/contracts/token/ERC20/ERC20.sol\":10824:11134  if (currentAllowance != type(uint256).max) {... */\n    tag_442:\n        /* \"@openzeppelin/contracts/token/ERC20/ERC20.sol\":10885:10909  currentAllowance < value */\n      dup5\n      dup5\n      lt\n        /* \"@openzeppelin/contracts/token/ERC20/ERC20.sol\":10881:11011  if (currentAllowance < value) {... */\n      tag_444\n      jumpi\n        /* \"@openzeppelin/contracts/token/ERC20/ERC20.sol\":10061:10080  owner == address(0) */\n      pop\n      dup1\n      iszero\n        /* \"@openzeppelin/contracts/token/ERC20/ERC20.sol\":10057:10146  if (owner == address(0)) {... */\n      tag_446\n      jumpi\n        /* \"@openzeppelin/contracts/token/ERC20/ERC20.sol\":10159:10180  spender == address(0) */\n      dup2\n      iszero\n        /* \"@openzeppelin/contracts/token/ERC20/ERC20.sol\":10155:10245  if (spender == address(0)) {... */\n      tag_448\n      jumpi\n      0x00\n        /* \"contracts/contracts/protocol/TuliaVault.sol\":530:3428  contract TuliaVault is ERC4626, ReentrancyGuard {... */\n      mstore\n        /* \"@openzeppelin/contracts/token/ERC20/ERC20.sol\":3952:3963  _allowances */\n      0x01\n        /* \"contracts/contracts/protocol/TuliaVault.sol\":530:3428  contract TuliaVault is ERC4626, ReentrancyGuard {... */\n      0x20\n      mstore\n      dup4\n      0x00\n      keccak256\n      swap1\n      0x00\n      mstore\n      0x20\n      mstore\n      sub\n      swap1\n      0x00\n      keccak256\n        /* \"@openzeppelin/contracts/security/ReentrancyGuard.sol\":1759:1760  2 */\n      sstore\n        /* \"@openzeppelin/contracts/token/ERC20/ERC20.sol\":10824:11134  if (currentAllowance != type(uint256).max) {... */\n      0x00\n      dup1\n      dup1\n      dup1\n      dup1\n      dup1\n      jump(tag_443)\n        /* \"@openzeppelin/contracts/token/ERC20/ERC20.sol\":10155:10245  if (spender == address(0)) {... */\n    tag_448:\n        /* \"contracts/contracts/protocol/TuliaVault.sol\":530:3428  contract TuliaVault is ERC4626, ReentrancyGuard {... */\n      dup5\n      mload\n      shl(0xe1, 0x4a1406b1)\n        /* \"@openzeppelin/contracts/token/ERC20/ERC20.sol\":10203:10234  ERC20InvalidSpender(address(0)) */\n      dup2\n      mstore\n      0x00\n      0x04\n      dup3\n      add\n        /* \"contracts/contracts/protocol/TuliaVault.sol\":530:3428  contract TuliaVault is ERC4626, ReentrancyGuard {... */\n      mstore\n      0x24\n      swap1\n        /* \"@openzeppelin/contracts/token/ERC20/ERC20.sol\":10203:10234  ERC20InvalidSpender(address(0)) */\n      revert\n        /* \"@openzeppelin/contracts/token/ERC20/ERC20.sol\":10057:10146  if (owner == address(0)) {... */\n    tag_446:\n        /* \"contracts/contracts/protocol/TuliaVault.sol\":530:3428  contract TuliaVault is ERC4626, ReentrancyGuard {... */\n      dup5\n      mload\n      shl(0xe0, 0xe602df05)\n        /* \"@openzeppelin/contracts/token/ERC20/ERC20.sol\":10103:10135  ERC20InvalidApprover(address(0)) */\n      dup2\n      mstore\n      0x00\n      0x04\n      dup3\n      add\n        /* \"contracts/contracts/protocol/TuliaVault.sol\":530:3428  contract TuliaVault is ERC4626, ReentrancyGuard {... */\n      mstore\n      0x24\n      swap1\n        /* \"@openzeppelin/contracts/token/ERC20/ERC20.sol\":10103:10135  ERC20InvalidApprover(address(0)) */\n      revert\n        /* \"@openzeppelin/contracts/token/ERC20/ERC20.sol\":10881:11011  if (currentAllowance < value) {... */\n    tag_444:\n        /* \"contracts/contracts/protocol/TuliaVault.sol\":530:3428  contract TuliaVault is ERC4626, ReentrancyGuard {... */\n      dup6\n      mload\n      shl(0xe1, 0x7dc7a0d9)\n        /* \"@openzeppelin/contracts/token/ERC20/ERC20.sol\":10936:10996  ERC20InsufficientAllowance(spender, currentAllowance, value) */\n      dup2\n      mstore\n      sub(shl(0xa0, 0x01), 0x01)\n        /* \"contracts/contracts/protocol/TuliaVault.sol\":530:3428  contract TuliaVault is ERC4626, ReentrancyGuard {... */\n      swap2\n      swap1\n      swap2\n      and\n        /* \"@openzeppelin/contracts/token/ERC20/ERC20.sol\":10936:10996  ERC20InsufficientAllowance(spender, currentAllowance, value) */\n      0x04\n      dup3\n      add\n        /* \"contracts/contracts/protocol/TuliaVault.sol\":530:3428  contract TuliaVault is ERC4626, ReentrancyGuard {... */\n      mstore\n      0x24\n      dup2\n      add\n      dup5\n      swap1\n      mstore\n      0x44\n      dup2\n      add\n      dup6\n      swap1\n      mstore\n      0x64\n      swap1\n        /* \"@openzeppelin/contracts/token/ERC20/extensions/ERC4626.sol\":9552:9602  ERC4626ExceededMaxRedeem(owner, shares, maxShares) */\n      revert\n        /* \"@openzeppelin/contracts/token/ERC20/ERC20.sol\":5656:5956  function _transfer(address from, address to, uint256 value) internal {... */\n    tag_27:\n      swap2\n      sub(shl(0xa0, 0x01), 0x01)\n        /* \"contracts/contracts/protocol/TuliaVault.sol\":530:3428  contract TuliaVault is ERC4626, ReentrancyGuard {... */\n      dup1\n      dup5\n      and\n      swap3\n        /* \"@openzeppelin/contracts/token/ERC20/ERC20.sol\":5739:5757  from == address(0) */\n      dup4\n      iszero\n        /* \"@openzeppelin/contracts/token/ERC20/ERC20.sol\":5735:5821  if (from == address(0)) {... */\n      tag_451\n      jumpi\n        /* \"contracts/contracts/protocol/TuliaVault.sol\":530:3428  contract TuliaVault is ERC4626, ReentrancyGuard {... */\n      and\n        /* \"@openzeppelin/contracts/token/ERC20/ERC20.sol\":5834:5850  to == address(0) */\n      swap3\n      dup4\n      iszero\n        /* \"@openzeppelin/contracts/token/ERC20/ERC20.sol\":5830:5916  if (to == address(0)) {... */\n      tag_453\n      jumpi\n        /* \"contracts/contracts/protocol/TuliaVault.sol\":530:3428  contract TuliaVault is ERC4626, ReentrancyGuard {... */\n      dup3\n        /* \"@openzeppelin/contracts/token/ERC20/ERC20.sol\":6356:6896  if (from == address(0)) {... */\n      0x00\n        /* \"contracts/contracts/protocol/TuliaVault.sol\":530:3428  contract TuliaVault is ERC4626, ReentrancyGuard {... */\n      mstore\n        /* \"@openzeppelin/contracts/token/ERC20/ERC20.sol\":6356:6896  if (from == address(0)) {... */\n      0x00\n        /* \"contracts/contracts/protocol/TuliaVault.sol\":530:3428  contract TuliaVault is ERC4626, ReentrancyGuard {... */\n      0x20\n      mstore\n      0x40\n        /* \"@openzeppelin/contracts/token/ERC20/ERC20.sol\":6356:6896  if (from == address(0)) {... */\n      0x00\n        /* \"contracts/contracts/protocol/TuliaVault.sol\":530:3428  contract TuliaVault is ERC4626, ReentrancyGuard {... */\n      keccak256\n      sload\n        /* \"@openzeppelin/contracts/token/ERC20/ERC20.sol\":6603:6622  fromBalance < value */\n      swap1\n      dup3\n      dup3\n      lt\n        /* \"@openzeppelin/contracts/token/ERC20/ERC20.sol\":6599:6714  if (fromBalance < value) {... */\n      tag_455\n      jumpi\n        /* \"contracts/contracts/protocol/TuliaVault.sol\":530:3428  contract TuliaVault is ERC4626, ReentrancyGuard {... */\n      pop\n      dup2\n        /* \"@openzeppelin/contracts/token/ERC20/ERC20.sol\":7346:7371  Transfer(from, to, value) */\n      0xddf252ad1be2c89b69c2b068fc378daa952ba7f163c4a11628f55a4df523b3ef\n        /* \"contracts/contracts/protocol/TuliaVault.sol\":530:3428  contract TuliaVault is ERC4626, ReentrancyGuard {... */\n      swap3\n      0x20\n      swap3\n      dup6\n        /* \"@openzeppelin/contracts/token/ERC20/ERC20.sol\":6356:6896  if (from == address(0)) {... */\n      0x00\n        /* \"contracts/contracts/protocol/TuliaVault.sol\":530:3428  contract TuliaVault is ERC4626, ReentrancyGuard {... */\n      mstore\n        /* \"@openzeppelin/contracts/token/ERC20/ERC20.sol\":6356:6896  if (from == address(0)) {... */\n      0x00\n        /* \"contracts/contracts/protocol/TuliaVault.sol\":530:3428  contract TuliaVault is ERC4626, ReentrancyGuard {... */\n      dup5\n      mstore\n      sub\n      0x40\n        /* \"@openzeppelin/contracts/token/ERC20/ERC20.sol\":6356:6896  if (from == address(0)) {... */\n      0x00\n        /* \"contracts/contracts/protocol/TuliaVault.sol\":530:3428  contract TuliaVault is ERC4626, ReentrancyGuard {... */\n      keccak256\n        /* \"@openzeppelin/contracts/security/ReentrancyGuard.sol\":1759:1760  2 */\n      sstore\n        /* \"contracts/contracts/protocol/TuliaVault.sol\":530:3428  contract TuliaVault is ERC4626, ReentrancyGuard {... */\n      dup5\n        /* \"@openzeppelin/contracts/token/ERC20/ERC20.sol\":6356:6896  if (from == address(0)) {... */\n      0x00\n        /* \"contracts/contracts/protocol/TuliaVault.sol\":530:3428  contract TuliaVault is ERC4626, ReentrancyGuard {... */\n      mstore\n      0x40\n        /* \"@openzeppelin/contracts/token/ERC20/ERC20.sol\":6356:6896  if (from == address(0)) {... */\n      0x00\n        /* \"contracts/contracts/protocol/TuliaVault.sol\":530:3428  contract TuliaVault is ERC4626, ReentrancyGuard {... */\n      keccak256\n      dup2\n      dup2\n      sload\n      add\n        /* \"@openzeppelin/contracts/security/ReentrancyGuard.sol\":1759:1760  2 */\n      swap1\n      sstore\n        /* \"contracts/contracts/protocol/TuliaVault.sol\":530:3428  contract TuliaVault is ERC4626, ReentrancyGuard {... */\n      mload(0x40)\n      swap1\n      dup2\n      mstore\n        /* \"@openzeppelin/contracts/token/ERC20/ERC20.sol\":7346:7371  Transfer(from, to, value) */\n      log3\n        /* \"@openzeppelin/contracts/token/ERC20/ERC20.sol\":5656:5956  function _transfer(address from, address to, uint256 value) internal {... */\n      jump\t// out\n        /* \"@openzeppelin/contracts/token/ERC20/ERC20.sol\":6599:6714  if (fromBalance < value) {... */\n    tag_455:\n        /* \"contracts/contracts/protocol/TuliaVault.sol\":530:3428  contract TuliaVault is ERC4626, ReentrancyGuard {... */\n      mload(0x40)\n      shl(0xe2, 0x391434e3)\n        /* \"@openzeppelin/contracts/token/ERC20/ERC20.sol\":6649:6699  ERC20InsufficientBalance(from, fromBalance, value) */\n      dup2\n      mstore\n      sub(shl(0xa0, 0x01), 0x01)\n        /* \"contracts/contracts/protocol/TuliaVault.sol\":530:3428  contract TuliaVault is ERC4626, ReentrancyGuard {... */\n      swap2\n      swap1\n      swap2\n      and\n        /* \"@openzeppelin/contracts/token/ERC20/ERC20.sol\":6649:6699  ERC20InsufficientBalance(from, fromBalance, value) */\n      0x04\n      dup3\n      add\n        /* \"contracts/contracts/protocol/TuliaVault.sol\":530:3428  contract TuliaVault is ERC4626, ReentrancyGuard {... */\n      mstore\n      0x24\n      dup2\n      add\n      swap2\n      swap1\n      swap2\n      mstore\n      0x44\n      dup2\n      add\n      dup3\n      swap1\n      mstore\n      0x64\n      swap1\n        /* \"@openzeppelin/contracts/token/ERC20/extensions/ERC4626.sol\":9552:9602  ERC4626ExceededMaxRedeem(owner, shares, maxShares) */\n      revert\n        /* \"@openzeppelin/contracts/token/ERC20/ERC20.sol\":5830:5916  if (to == address(0)) {... */\n    tag_453:\n        /* \"contracts/contracts/protocol/TuliaVault.sol\":530:3428  contract TuliaVault is ERC4626, ReentrancyGuard {... */\n      mload(0x40)\n      shl(0xe0, 0xec442f05)\n        /* \"@openzeppelin/contracts/token/ERC20/ERC20.sol\":5873:5905  ERC20InvalidReceiver(address(0)) */\n      dup2\n      mstore\n        /* \"@openzeppelin/contracts/token/ERC20/ERC20.sol\":5755:5756  0 */\n      0x00\n        /* \"@openzeppelin/contracts/token/ERC20/ERC20.sol\":5873:5905  ERC20InvalidReceiver(address(0)) */\n      0x04\n      dup3\n      add\n        /* \"contracts/contracts/protocol/TuliaVault.sol\":530:3428  contract TuliaVault is ERC4626, ReentrancyGuard {... */\n      mstore\n      0x24\n      swap1\n        /* \"@openzeppelin/contracts/token/ERC20/ERC20.sol\":5873:5905  ERC20InvalidReceiver(address(0)) */\n      revert\n        /* \"@openzeppelin/contracts/token/ERC20/ERC20.sol\":5735:5821  if (from == address(0)) {... */\n    tag_451:\n        /* \"contracts/contracts/protocol/TuliaVault.sol\":530:3428  contract TuliaVault is ERC4626, ReentrancyGuard {... */\n      mload(0x40)\n      shl(0xe1, 0x4b637e8f)\n        /* \"@openzeppelin/contracts/token/ERC20/ERC20.sol\":5780:5810  ERC20InvalidSender(address(0)) */\n      dup2\n      mstore\n        /* \"@openzeppelin/contracts/token/ERC20/ERC20.sol\":5755:5756  0 */\n      0x00\n        /* \"@openzeppelin/contracts/token/ERC20/ERC20.sol\":5780:5810  ERC20InvalidSender(address(0)) */\n      0x04\n      dup3\n      add\n        /* \"contracts/contracts/protocol/TuliaVault.sol\":530:3428  contract TuliaVault is ERC4626, ReentrancyGuard {... */\n      mstore\n      0x24\n      swap1\n        /* \"@openzeppelin/contracts/token/ERC20/ERC20.sol\":5780:5810  ERC20InvalidSender(address(0)) */\n      revert\n        /* \"@openzeppelin/contracts/token/ERC20/extensions/ERC4626.sol\":10496:11326  function _deposit(address caller, address receiver, uint256 assets, uint256 shares) internal virtual {... */\n    tag_28:\n        /* \"contracts/contracts/protocol/TuliaVault.sol\":530:3428  contract TuliaVault is ERC4626, ReentrancyGuard {... */\n      0x40\n      dup1\n      mload\n      shl(0xe0, 0x23b872dd)\n        /* \"@openzeppelin/contracts/token/ERC20/utils/SafeERC20.sol\":1829:1882  abi.encodeCall(token.transferFrom, (from, to, value)) */\n      0x20\n      dup3\n      add\n      mstore\n      sub(shl(0xa0, 0x01), 0x01)\n        /* \"contracts/contracts/protocol/TuliaVault.sol\":530:3428  contract TuliaVault is ERC4626, ReentrancyGuard {... */\n      swap3\n      dup4\n      and\n        /* \"@openzeppelin/contracts/token/ERC20/utils/SafeERC20.sol\":1829:1882  abi.encodeCall(token.transferFrom, (from, to, value)) */\n      0x24\n      dup3\n      add\n        /* \"contracts/contracts/protocol/TuliaVault.sol\":530:3428  contract TuliaVault is ERC4626, ReentrancyGuard {... */\n      dup2\n      swap1\n      mstore\n        /* \"@openzeppelin/contracts/token/ERC20/extensions/ERC4626.sol\":11215:11219  this */\n      address\n        /* \"contracts/contracts/protocol/TuliaVault.sol\":530:3428  contract TuliaVault is ERC4626, ReentrancyGuard {... */\n      0x44\n      dup4\n      add\n      mstore\n      0x64\n      dup1\n      dup4\n      add\n      dup8\n      swap1\n      mstore\n        /* \"@openzeppelin/contracts/token/ERC20/utils/SafeERC20.sol\":1829:1882  abi.encodeCall(token.transferFrom, (from, to, value)) */\n      dup3\n      mstore\n        /* \"contracts/contracts/protocol/TuliaVault.sol\":530:3428  contract TuliaVault is ERC4626, ReentrancyGuard {... */\n      swap5\n      swap2\n      swap4\n        /* \"@openzeppelin/contracts/token/ERC20/extensions/ERC4626.sol\":10496:11326  function _deposit(address caller, address receiver, uint256 assets, uint256 shares) internal virtual {... */\n      swap2\n      swap3\n        /* \"contracts/contracts/protocol/TuliaVault.sol\":530:3428  contract TuliaVault is ERC4626, ReentrancyGuard {... */\n      swap2\n        /* \"@openzeppelin/contracts/token/ERC20/extensions/ERC4626.sol\":10496:11326  function _deposit(address caller, address receiver, uint256 assets, uint256 shares) internal virtual {... */\n      swap1\n        /* \"contracts/contracts/protocol/TuliaVault.sol\":530:3428  contract TuliaVault is ERC4626, ReentrancyGuard {... */\n      0xa0\n      dup2\n      add\n      swap1\n      sub(shl(0x40, 0x01), 0x01)\n      dup3\n      gt\n      dup2\n      dup4\n      lt\n      or\n      tag_382\n      jumpi\n        /* \"@openzeppelin/contracts/token/ERC20/utils/SafeERC20.sol\":1829:1882  abi.encodeCall(token.transferFrom, (from, to, value)) */\n      tag_460\n        /* \"contracts/contracts/protocol/TuliaVault.sol\":530:3428  contract TuliaVault is ERC4626, ReentrancyGuard {... */\n      swap2\n      dup7\n      mstore\n        /* \"@openzeppelin/contracts/token/ERC20/extensions/ERC4626.sol\":11191:11197  _asset */\n      immutable(\"0x57d03f72a618a841c753598d7d2cbcbbd5f43a73c69f9abc886bd29cf4101ea1\")\n        /* \"@openzeppelin/contracts/token/ERC20/utils/SafeERC20.sol\":1829:1882  abi.encodeCall(token.transferFrom, (from, to, value)) */\n      tag_33\n      jump\t// in\n    tag_460:\n        /* \"contracts/contracts/protocol/TuliaVault.sol\":530:3428  contract TuliaVault is ERC4626, ReentrancyGuard {... */\n      and\n        /* \"@openzeppelin/contracts/token/ERC20/ERC20.sol\":7791:7812  account == address(0) */\n      swap4\n      dup5\n      iszero\n        /* \"@openzeppelin/contracts/token/ERC20/ERC20.sol\":7787:7878  if (account == address(0)) {... */\n      tag_461\n      jumpi\n        /* \"contracts/contracts/protocol/TuliaVault.sol\":530:3428  contract TuliaVault is ERC4626, ReentrancyGuard {... */\n      swap1\n      dup2\n        /* \"@openzeppelin/contracts/token/ERC20/ERC20.sol\":6496:6517  _totalSupply += value */\n      tag_463\n        /* \"@openzeppelin/contracts/token/ERC20/extensions/ERC4626.sol\":11278:11319  Deposit(caller, receiver, assets, shares) */\n      0xdcbc1c05240f31ff3ad067ef1ee35ce4997762752e3a095284754544f4c709d7\n        /* \"contracts/contracts/protocol/TuliaVault.sol\":530:3428  contract TuliaVault is ERC4626, ReentrancyGuard {... */\n      swap5\n      swap4\n        /* \"@openzeppelin/contracts/token/ERC20/ERC20.sol\":6496:6517  _totalSupply += value */\n      0x02\n        /* \"contracts/contracts/protocol/TuliaVault.sol\":530:3428  contract TuliaVault is ERC4626, ReentrancyGuard {... */\n      sload\n        /* \"@openzeppelin/contracts/token/ERC20/ERC20.sol\":6496:6517  _totalSupply += value */\n      tag_21\n      jump\t// in\n    tag_463:\n      0x02\n        /* \"@openzeppelin/contracts/security/ReentrancyGuard.sol\":1759:1760  2 */\n      sstore\n        /* \"contracts/contracts/protocol/TuliaVault.sol\":530:3428  contract TuliaVault is ERC4626, ReentrancyGuard {... */\n      dup6\n        /* \"@openzeppelin/contracts/token/ERC20/ERC20.sol\":6906:7331  if (to == address(0)) {... */\n      0x00\n        /* \"contracts/contracts/protocol/TuliaVault.sol\":530:3428  contract TuliaVault is ERC4626, ReentrancyGuard {... */\n      mstore\n        /* \"@openzeppelin/contracts/token/ERC20/ERC20.sol\":6906:7331  if (to == address(0)) {... */\n      0x00\n        /* \"@openzeppelin/contracts/token/ERC20/utils/SafeERC20.sol\":1829:1882  abi.encodeCall(token.transferFrom, (from, to, value)) */\n      0x20\n        /* \"contracts/contracts/protocol/TuliaVault.sol\":530:3428  contract TuliaVault is ERC4626, ReentrancyGuard {... */\n      mstore\n      dup3\n        /* \"@openzeppelin/contracts/token/ERC20/ERC20.sol\":6906:7331  if (to == address(0)) {... */\n      0x00\n        /* \"contracts/contracts/protocol/TuliaVault.sol\":530:3428  contract TuliaVault is ERC4626, ReentrancyGuard {... */\n      keccak256\n      dup2\n      dup2\n      sload\n      add\n        /* \"@openzeppelin/contracts/security/ReentrancyGuard.sol\":1759:1760  2 */\n      swap1\n      sstore\n        /* \"contracts/contracts/protocol/TuliaVault.sol\":530:3428  contract TuliaVault is ERC4626, ReentrancyGuard {... */\n      dup6\n        /* \"@openzeppelin/contracts/token/ERC20/ERC20.sol\":6906:7331  if (to == address(0)) {... */\n      0x00\n        /* \"@openzeppelin/contracts/token/ERC20/ERC20.sol\":7346:7371  Transfer(from, to, value) */\n      0xddf252ad1be2c89b69c2b068fc378daa952ba7f163c4a11628f55a4df523b3ef\n        /* \"@openzeppelin/contracts/token/ERC20/utils/SafeERC20.sol\":1829:1882  abi.encodeCall(token.transferFrom, (from, to, value)) */\n      0x20\n        /* \"contracts/contracts/protocol/TuliaVault.sol\":530:3428  contract TuliaVault is ERC4626, ReentrancyGuard {... */\n      dup7\n      mload\n      dup6\n      dup2\n      mstore\n        /* \"@openzeppelin/contracts/token/ERC20/ERC20.sol\":7346:7371  Transfer(from, to, value) */\n      log3\n        /* \"contracts/contracts/protocol/TuliaVault.sol\":530:3428  contract TuliaVault is ERC4626, ReentrancyGuard {... */\n      dup3\n      mload\n      swap2\n      dup3\n      mstore\n        /* \"@openzeppelin/contracts/token/ERC20/utils/SafeERC20.sol\":1829:1882  abi.encodeCall(token.transferFrom, (from, to, value)) */\n      0x20\n        /* \"contracts/contracts/protocol/TuliaVault.sol\":530:3428  contract TuliaVault is ERC4626, ReentrancyGuard {... */\n      dup3\n      add\n      mstore\n        /* \"@openzeppelin/contracts/token/ERC20/extensions/ERC4626.sol\":11278:11319  Deposit(caller, receiver, assets, shares) */\n      log3\n        /* \"@openzeppelin/contracts/token/ERC20/extensions/ERC4626.sol\":10496:11326  function _deposit(address caller, address receiver, uint256 assets, uint256 shares) internal virtual {... */\n      jump\t// out\n        /* \"@openzeppelin/contracts/token/ERC20/ERC20.sol\":7787:7878  if (account == address(0)) {... */\n    tag_461:\n        /* \"contracts/contracts/protocol/TuliaVault.sol\":530:3428  contract TuliaVault is ERC4626, ReentrancyGuard {... */\n      dup3\n      mload\n      shl(0xe0, 0xec442f05)\n        /* \"@openzeppelin/contracts/token/ERC20/ERC20.sol\":7835:7867  ERC20InvalidReceiver(address(0)) */\n      dup2\n      mstore\n      0x00\n      0x04\n      dup3\n      add\n        /* \"contracts/contracts/protocol/TuliaVault.sol\":530:3428  contract TuliaVault is ERC4626, ReentrancyGuard {... */\n      mstore\n        /* \"@openzeppelin/contracts/token/ERC20/utils/SafeERC20.sol\":1829:1882  abi.encodeCall(token.transferFrom, (from, to, value)) */\n      0x24\n      swap1\n        /* \"@openzeppelin/contracts/token/ERC20/ERC20.sol\":7835:7867  ERC20InvalidReceiver(address(0)) */\n      revert\n        /* \"@openzeppelin/contracts/security/ReentrancyGuard.sol\":2336:2623  function _nonReentrantBefore() private {... */\n    tag_29:\n        /* \"@openzeppelin/contracts/security/ReentrancyGuard.sol\":1759:1760  2 */\n      0x02\n        /* \"@openzeppelin/contracts/security/ReentrancyGuard.sol\":2468:2475  _status */\n      0x05\n        /* \"contracts/contracts/protocol/TuliaVault.sol\":530:3428  contract TuliaVault is ERC4626, ReentrancyGuard {... */\n      sload\n        /* \"@openzeppelin/contracts/security/ReentrancyGuard.sol\":2468:2487  _status != _ENTERED */\n      eq\n        /* \"@openzeppelin/contracts/security/ReentrancyGuard.sol\":1759:1760  2 */\n      tag_464\n      jumpi\n      0x02\n        /* \"@openzeppelin/contracts/security/ReentrancyGuard.sol\":2468:2475  _status */\n      0x05\n        /* \"@openzeppelin/contracts/security/ReentrancyGuard.sol\":1759:1760  2 */\n      sstore\n        /* \"@openzeppelin/contracts/security/ReentrancyGuard.sol\":2336:2623  function _nonReentrantBefore() private {... */\n      jump\t// out\n        /* \"@openzeppelin/contracts/security/ReentrancyGuard.sol\":1759:1760  2 */\n    tag_464:\n        /* \"contracts/contracts/protocol/TuliaVault.sol\":530:3428  contract TuliaVault is ERC4626, ReentrancyGuard {... */\n      mload(0x40)\n      shl(0xe5, 0x461bcd)\n        /* \"@openzeppelin/contracts/security/ReentrancyGuard.sol\":1759:1760  2 */\n      dup2\n      mstore\n      0x20\n      0x04\n      dup3\n      add\n      mstore\n      0x1f\n      0x24\n      dup3\n      add\n        /* \"contracts/contracts/protocol/TuliaVault.sol\":530:3428  contract TuliaVault is ERC4626, ReentrancyGuard {... */\n      mstore\n        /* \"@openzeppelin/contracts/security/ReentrancyGuard.sol\":1759:1760  2 */\n      0x5265656e7472616e637947756172643a207265656e7472616e742063616c6c00\n        /* \"contracts/contracts/protocol/TuliaVault.sol\":530:3428  contract TuliaVault is ERC4626, ReentrancyGuard {... */\n      0x44\n      dup3\n      add\n        /* \"@openzeppelin/contracts/security/ReentrancyGuard.sol\":1759:1760  2 */\n      mstore\n      0x64\n      swap1\n      revert\n        /* \"@openzeppelin/contracts/token/ERC20/extensions/ERC4626.sol\":11393:12307  function _withdraw(... */\n    tag_30:\n      swap2\n      swap1\n      swap3\n        /* \"contracts/contracts/protocol/TuliaVault.sol\":530:3428  contract TuliaVault is ERC4626, ReentrancyGuard {... */\n      0x01\n      dup1\n      0xa0\n      shl\n      sub\n      swap5\n      dup6\n      dup4\n      and\n      swap6\n      dup1\n      dup6\n      and\n        /* \"@openzeppelin/contracts/token/ERC20/extensions/ERC4626.sol\":11570:11585  caller != owner */\n      swap5\n      dup3\n      dup9\n      dup8\n      sub\n        /* \"@openzeppelin/contracts/token/ERC20/extensions/ERC4626.sol\":11566:11650  if (caller != owner) {... */\n      tag_466\n      jumpi\n        /* \"@openzeppelin/contracts/token/ERC20/extensions/ERC4626.sol\":11393:12307  function _withdraw(... */\n    tag_467:\n        /* \"@openzeppelin/contracts/token/ERC20/ERC20.sol\":8317:8338  account == address(0) */\n      pop\n      pop\n      dup7\n      iszero\n        /* \"@openzeppelin/contracts/token/ERC20/ERC20.sol\":8313:8402  if (account == address(0)) {... */\n      tag_451\n      jumpi\n        /* \"contracts/contracts/protocol/TuliaVault.sol\":530:3428  contract TuliaVault is ERC4626, ReentrancyGuard {... */\n      dup7\n        /* \"@openzeppelin/contracts/token/ERC20/ERC20.sol\":6356:6896  if (from == address(0)) {... */\n      0x00\n        /* \"contracts/contracts/protocol/TuliaVault.sol\":530:3428  contract TuliaVault is ERC4626, ReentrancyGuard {... */\n      mstore\n        /* \"@openzeppelin/contracts/token/ERC20/ERC20.sol\":6356:6896  if (from == address(0)) {... */\n      0x00\n        /* \"contracts/contracts/protocol/TuliaVault.sol\":530:3428  contract TuliaVault is ERC4626, ReentrancyGuard {... */\n      0x20\n      mstore\n      0x40\n      swap4\n      dup5\n        /* \"@openzeppelin/contracts/token/ERC20/ERC20.sol\":6356:6896  if (from == address(0)) {... */\n      0x00\n        /* \"contracts/contracts/protocol/TuliaVault.sol\":530:3428  contract TuliaVault is ERC4626, ReentrancyGuard {... */\n      keccak256\n      sload\n        /* \"@openzeppelin/contracts/token/ERC20/ERC20.sol\":6603:6622  fromBalance < value */\n      swap1\n      dup4\n      dup3\n      lt\n        /* \"@openzeppelin/contracts/token/ERC20/ERC20.sol\":6599:6714  if (fromBalance < value) {... */\n      tag_470\n      jumpi\n        /* \"contracts/contracts/protocol/TuliaVault.sol\":530:3428  contract TuliaVault is ERC4626, ReentrancyGuard {... */\n      pop\n      dup3\n      swap2\n        /* \"@openzeppelin/contracts/token/ERC20/extensions/ERC4626.sol\":12251:12300  Withdraw(caller, receiver, owner, assets, shares) */\n      0xfbde797d201c681b91056529119e0b02407c7bb96a4a2c75c01fc9667232c8db\n        /* \"contracts/contracts/protocol/TuliaVault.sol\":530:3428  contract TuliaVault is ERC4626, ReentrancyGuard {... */\n      swap6\n      swap5\n      swap4\n        /* \"@openzeppelin/contracts/token/ERC20/utils/SafeERC20.sol\":1412:1455  abi.encodeCall(token.transfer, (to, value)) */\n      tag_472\n        /* \"contracts/contracts/protocol/TuliaVault.sol\":530:3428  contract TuliaVault is ERC4626, ReentrancyGuard {... */\n      swap3\n      dup11\n        /* \"@openzeppelin/contracts/token/ERC20/ERC20.sol\":6356:6896  if (from == address(0)) {... */\n      0x00\n        /* \"contracts/contracts/protocol/TuliaVault.sol\":530:3428  contract TuliaVault is ERC4626, ReentrancyGuard {... */\n      mstore\n        /* \"@openzeppelin/contracts/token/ERC20/ERC20.sol\":6356:6896  if (from == address(0)) {... */\n      0x00\n        /* \"contracts/contracts/protocol/TuliaVault.sol\":530:3428  contract TuliaVault is ERC4626, ReentrancyGuard {... */\n      0x20\n      mstore\n      sub\n      dup6\n        /* \"@openzeppelin/contracts/token/ERC20/ERC20.sol\":6356:6896  if (from == address(0)) {... */\n      0x00\n        /* \"contracts/contracts/protocol/TuliaVault.sol\":530:3428  contract TuliaVault is ERC4626, ReentrancyGuard {... */\n      keccak256\n        /* \"@openzeppelin/contracts/security/ReentrancyGuard.sol\":1759:1760  2 */\n      sstore\n        /* \"contracts/contracts/protocol/TuliaVault.sol\":530:3428  contract TuliaVault is ERC4626, ReentrancyGuard {... */\n      dup3\n        /* \"@openzeppelin/contracts/token/ERC20/ERC20.sol\":7073:7094  _totalSupply -= value */\n      0x02\n        /* \"contracts/contracts/protocol/TuliaVault.sol\":530:3428  contract TuliaVault is ERC4626, ReentrancyGuard {... */\n      sload\n      sub\n        /* \"@openzeppelin/contracts/token/ERC20/ERC20.sol\":7073:7094  _totalSupply -= value */\n      0x02\n        /* \"@openzeppelin/contracts/security/ReentrancyGuard.sol\":1759:1760  2 */\n      sstore\n        /* \"@openzeppelin/contracts/token/ERC20/ERC20.sol\":6356:6896  if (from == address(0)) {... */\n      0x00\n        /* \"contracts/contracts/protocol/TuliaVault.sol\":530:3428  contract TuliaVault is ERC4626, ReentrancyGuard {... */\n      dup10\n        /* \"@openzeppelin/contracts/token/ERC20/ERC20.sol\":7346:7371  Transfer(from, to, value) */\n      0xddf252ad1be2c89b69c2b068fc378daa952ba7f163c4a11628f55a4df523b3ef\n        /* \"contracts/contracts/protocol/TuliaVault.sol\":530:3428  contract TuliaVault is ERC4626, ReentrancyGuard {... */\n      0x20\n      dup9\n      mload\n      dup8\n      dup2\n      mstore\n        /* \"@openzeppelin/contracts/token/ERC20/ERC20.sol\":7346:7371  Transfer(from, to, value) */\n      log3\n        /* \"contracts/contracts/protocol/TuliaVault.sol\":530:3428  contract TuliaVault is ERC4626, ReentrancyGuard {... */\n      dup5\n      mload\n      swap8\n      shl(0xe0, 0xa9059cbb)\n      0x20\n        /* \"@openzeppelin/contracts/token/ERC20/utils/SafeERC20.sol\":1412:1455  abi.encodeCall(token.transfer, (to, value)) */\n      dup11\n      add\n      mstore\n        /* \"contracts/contracts/protocol/TuliaVault.sol\":530:3428  contract TuliaVault is ERC4626, ReentrancyGuard {... */\n      and\n        /* \"@openzeppelin/contracts/token/ERC20/utils/SafeERC20.sol\":1412:1455  abi.encodeCall(token.transfer, (to, value)) */\n      swap7\n      dup8\n      0x24\n      dup3\n      add\n        /* \"contracts/contracts/protocol/TuliaVault.sol\":530:3428  contract TuliaVault is ERC4626, ReentrancyGuard {... */\n      mstore\n      dup4\n      0x44\n      dup3\n      add\n      mstore\n      0x44\n        /* \"@openzeppelin/contracts/token/ERC20/utils/SafeERC20.sol\":1412:1455  abi.encodeCall(token.transfer, (to, value)) */\n      dup2\n      mstore\n      tag_473\n      dup2\n      tag_9\n      jump\t// in\n    tag_473:\n        /* \"@openzeppelin/contracts/token/ERC20/extensions/ERC4626.sol\":12210:12216  _asset */\n      immutable(\"0x57d03f72a618a841c753598d7d2cbcbbd5f43a73c69f9abc886bd29cf4101ea1\")\n        /* \"@openzeppelin/contracts/token/ERC20/utils/SafeERC20.sol\":1412:1455  abi.encodeCall(token.transfer, (to, value)) */\n      tag_33\n      jump\t// in\n    tag_472:\n        /* \"contracts/contracts/protocol/TuliaVault.sol\":530:3428  contract TuliaVault is ERC4626, ReentrancyGuard {... */\n      dup3\n      mload\n      swap2\n      dup3\n      mstore\n      0x20\n      dup3\n      add\n      mstore\n        /* \"@openzeppelin/contracts/token/ERC20/extensions/ERC4626.sol\":12251:12300  Withdraw(caller, receiver, owner, assets, shares) */\n      log4\n        /* \"@openzeppelin/contracts/token/ERC20/extensions/ERC4626.sol\":11393:12307  function _withdraw(... */\n      jump\t// out\n        /* \"@openzeppelin/contracts/token/ERC20/ERC20.sol\":6599:6714  if (fromBalance < value) {... */\n    tag_470:\n        /* \"contracts/contracts/protocol/TuliaVault.sol\":530:3428  contract TuliaVault is ERC4626, ReentrancyGuard {... */\n      dup6\n      mload\n      shl(0xe2, 0x391434e3)\n        /* \"@openzeppelin/contracts/token/ERC20/ERC20.sol\":6649:6699  ERC20InsufficientBalance(from, fromBalance, value) */\n      dup2\n      mstore\n      sub(shl(0xa0, 0x01), 0x01)\n        /* \"contracts/contracts/protocol/TuliaVault.sol\":530:3428  contract TuliaVault is ERC4626, ReentrancyGuard {... */\n      swap2\n      swap1\n      swap2\n      and\n        /* \"@openzeppelin/contracts/token/ERC20/ERC20.sol\":6649:6699  ERC20InsufficientBalance(from, fromBalance, value) */\n      0x04\n      dup3\n      add\n        /* \"contracts/contracts/protocol/TuliaVault.sol\":530:3428  contract TuliaVault is ERC4626, ReentrancyGuard {... */\n      mstore\n      0x24\n      dup2\n      add\n      swap2\n      swap1\n      swap2\n      mstore\n      0x44\n      dup2\n      add\n      dup4\n      swap1\n      mstore\n      0x64\n      swap1\n        /* \"@openzeppelin/contracts/token/ERC20/extensions/ERC4626.sol\":9552:9602  ERC4626ExceededMaxRedeem(owner, shares, maxShares) */\n      revert\n        /* \"@openzeppelin/contracts/token/ERC20/extensions/ERC4626.sol\":11566:11650  if (caller != owner) {... */\n    tag_466:\n        /* \"@openzeppelin/contracts/token/ERC20/extensions/ERC4626.sol\":11632:11638  shares */\n      tag_475\n      swap2\n      dup7\n      tag_26\n      jump\t// in\n    tag_475:\n        /* \"@openzeppelin/contracts/token/ERC20/extensions/ERC4626.sol\":11566:11650  if (caller != owner) {... */\n      0x00\n      dup3\n      jump(tag_467)\n        /* \"@openzeppelin/contracts/utils/math/Math.sol\":8051:8353  function mulDiv(uint256 x, uint256 y, uint256 denominator, Rounding rounding) internal pure returns (uint256) {... */\n    tag_31:\n      swap2\n      swap1\n        /* \"@openzeppelin/contracts/utils/math/Math.sol\":8188:8213  mulDiv(x, y, denominator) */\n      tag_476\n      dup3\n      dup3\n      dup6\n      tag_32\n      jump\t// in\n    tag_476:\n        /* \"@openzeppelin/contracts/utils/math/Math.sol\":8257:8282  mulmod(x, y, denominator) */\n      swap3\n      dup3\n      iszero\n      tag_477\n      jumpi\n      mulmod\n        /* \"@openzeppelin/contracts/utils/math/Math.sol\":8223:8324  if (unsignedRoundsUp(rounding) && mulmod(x, y, denominator) > 0) {... */\n      tag_479\n      jumpi\n        /* \"@openzeppelin/contracts/utils/math/Math.sol\":8051:8353  function mulDiv(uint256 x, uint256 y, uint256 denominator, Rounding rounding) internal pure returns (uint256) {... */\n      swap1\n      jump\t// out\n        /* \"@openzeppelin/contracts/utils/math/Math.sol\":8223:8324  if (unsignedRoundsUp(rounding) && mulmod(x, y, denominator) > 0) {... */\n    tag_479:\n        /* \"@openzeppelin/contracts/token/ERC20/extensions/ERC4626.sol\":7338:7356  Math.Rounding.Ceil */\n      0x01\n        /* \"contracts/contracts/protocol/TuliaVault.sol\":530:3428  contract TuliaVault is ERC4626, ReentrancyGuard {... */\n      dup2\n      add\n      dup1\n      swap2\n      gt\n      tag_316\n      jumpi\n        /* \"@openzeppelin/contracts/utils/math/Math.sol\":8051:8353  function mulDiv(uint256 x, uint256 y, uint256 denominator, Rounding rounding) internal pure returns (uint256) {... */\n      swap1\n      jump\t// out\n        /* \"@openzeppelin/contracts/utils/math/Math.sol\":8257:8282  mulmod(x, y, denominator) */\n    tag_477:\n        /* \"contracts/contracts/protocol/TuliaVault.sol\":530:3428  contract TuliaVault is ERC4626, ReentrancyGuard {... */\n      mstore(0x00, shl(0xe0, 0x4e487b71))\n      mstore(0x04, 0x12)\n      revert(0x00, 0x24)\n        /* \"@openzeppelin/contracts/utils/math/Math.sol\":3803:7919  function mulDiv(uint256 x, uint256 y, uint256 denominator) internal pure returns (uint256 result) {... */\n    tag_32:\n      swap1\n      swap2\n        /* \"contracts/contracts/protocol/TuliaVault.sol\":530:3428  contract TuliaVault is ERC4626, ReentrancyGuard {... */\n      dup3\n      dup3\n      mul\n      swap2\n      not(0x00)\n        /* \"@openzeppelin/contracts/utils/math/Math.sol\":3803:7919  function mulDiv(uint256 x, uint256 y, uint256 denominator) internal pure returns (uint256 result) {... */\n      dup5\n      dup3\n        /* \"@openzeppelin/contracts/utils/math/Math.sol\":4383:4514  assembly {... */\n      mulmod\n      swap4\n      dup4\n      dup1\n      dup7\n      lt\n      swap6\n      sub\n      swap5\n      dup1\n      dup7\n      sub\n        /* \"@openzeppelin/contracts/utils/math/Math.sol\":4595:4605  prod1 == 0 */\n      swap6\n      eq\n        /* \"@openzeppelin/contracts/utils/math/Math.sol\":4591:4959  if (prod1 == 0) {... */\n      tag_483\n      jumpi\n        /* \"@openzeppelin/contracts/utils/math/Math.sol\":5065:5085  denominator <= prod1 */\n      dup5\n      dup4\n      gt\n      iszero\n        /* \"@openzeppelin/contracts/utils/math/Math.sol\":5061:5149  if (denominator <= prod1) {... */\n      tag_485\n      jumpi\n        /* \"@openzeppelin/contracts/utils/math/Math.sol\":5435:5735  assembly {... */\n      dup3\n      swap2\n      mulmod\n        /* \"contracts/contracts/protocol/TuliaVault.sol\":530:3428  contract TuliaVault is ERC4626, ReentrancyGuard {... */\n      dup2\n      0x00\n      sub\n        /* \"@openzeppelin/contracts/utils/math/Math.sol\":5954:5985  denominator & (0 - denominator) */\n      dup3\n      and\n        /* \"@openzeppelin/contracts/utils/math/Math.sol\":5999:6370  assembly {... */\n      dup1\n      swap3\n      div\n        /* \"@openzeppelin/contracts/utils/math/Math.sol\":6813:6814  2 */\n      0x02\n        /* \"contracts/contracts/protocol/TuliaVault.sol\":530:3428  contract TuliaVault is ERC4626, ReentrancyGuard {... */\n      dup1\n      dup3\n        /* \"@openzeppelin/contracts/utils/math/Math.sol\":6794:6795  3 */\n      0x03\n        /* \"contracts/contracts/protocol/TuliaVault.sol\":530:3428  contract TuliaVault is ERC4626, ReentrancyGuard {... */\n      mul\n        /* \"@openzeppelin/contracts/utils/math/Math.sol\":6793:6814  (3 * denominator) ^ 2 */\n      xor\n        /* \"contracts/contracts/protocol/TuliaVault.sol\":530:3428  contract TuliaVault is ERC4626, ReentrancyGuard {... */\n      dup1\n      dup4\n      mul\n      dup3\n      sub\n      mul\n      dup1\n      dup4\n      mul\n      dup3\n      sub\n      mul\n      dup1\n      dup4\n      mul\n      dup3\n      sub\n      mul\n      dup1\n      dup4\n      mul\n      dup3\n      sub\n      mul\n      dup1\n      dup4\n      mul\n      dup3\n      sub\n      mul\n      dup1\n      swap3\n      mul\n      swap1\n      sub\n      mul\n        /* \"@openzeppelin/contracts/utils/math/Math.sol\":5999:6370  assembly {... */\n      swap4\n      0x01\n      dup4\n      dup1\n      0x00\n      sub\n      div\n      add\n        /* \"@openzeppelin/contracts/utils/math/Math.sol\":5435:5735  assembly {... */\n      swap1\n      dup5\n      dup4\n      gt\n      swap1\n      sub\n        /* \"contracts/contracts/protocol/TuliaVault.sol\":530:3428  contract TuliaVault is ERC4626, ReentrancyGuard {... */\n      mul\n        /* \"@openzeppelin/contracts/utils/math/Math.sol\":5435:5735  assembly {... */\n      swap3\n      sub\n        /* \"@openzeppelin/contracts/utils/math/Math.sol\":5999:6370  assembly {... */\n      div\n        /* \"@openzeppelin/contracts/utils/math/Math.sol\":6436:6457  prod0 |= prod1 * twos */\n      or\n        /* \"contracts/contracts/protocol/TuliaVault.sol\":530:3428  contract TuliaVault is ERC4626, ReentrancyGuard {... */\n      mul\n        /* \"@openzeppelin/contracts/utils/math/Math.sol\":3803:7919  function mulDiv(uint256 x, uint256 y, uint256 denominator) internal pure returns (uint256 result) {... */\n      swap1\n      jump\t// out\n        /* \"@openzeppelin/contracts/utils/math/Math.sol\":5061:5149  if (denominator <= prod1) {... */\n    tag_485:\n        /* \"contracts/contracts/protocol/TuliaVault.sol\":530:3428  contract TuliaVault is ERC4626, ReentrancyGuard {... */\n      mload(0x40)\n      shl(0xe0, 0x227bc153)\n        /* \"@openzeppelin/contracts/utils/math/Math.sol\":5112:5134  MathOverflowedMulDiv() */\n      dup2\n      mstore\n      0x04\n      swap1\n      revert\n        /* \"@openzeppelin/contracts/utils/math/Math.sol\":4591:4959  if (prod1 == 0) {... */\n    tag_483:\n        /* \"contracts/contracts/protocol/TuliaVault.sol\":530:3428  contract TuliaVault is ERC4626, ReentrancyGuard {... */\n      pop\n      pop\n      dup1\n      swap3\n      pop\n      iszero\n      tag_477\n      jumpi\n      div\n        /* \"@openzeppelin/contracts/utils/math/Math.sol\":4918:4944  return prod0 / denominator */\n      swap1\n      jump\t// out\n        /* \"@openzeppelin/contracts/token/ERC20/utils/SafeERC20.sol\":4059:4688  function _callOptionalReturn(IERC20 token, bytes memory data) private {... */\n    tag_33:\n        /* \"@openzeppelin/contracts/utils/Address.sol\":3462:3493  target.call{value: value}(data) */\n      dup2\n      mload\n      sub(shl(0xa0, 0x01), 0x01)\n        /* \"contracts/contracts/protocol/TuliaVault.sol\":530:3428  contract TuliaVault is ERC4626, ReentrancyGuard {... */\n      swap1\n      swap2\n      and\n      swap2\n        /* \"@openzeppelin/contracts/utils/Address.sol\":2847:2848  0 */\n      0x00\n      swap2\n      dup3\n      swap2\n        /* \"@openzeppelin/contracts/utils/Address.sol\":3462:3493  target.call{value: value}(data) */\n      0x20\n      add\n        /* \"@openzeppelin/contracts/utils/Address.sol\":2847:2848  0 */\n      dup3\n        /* \"contracts/contracts/protocol/TuliaVault.sol\":530:3428  contract TuliaVault is ERC4626, ReentrancyGuard {... */\n      dup6\n        /* \"@openzeppelin/contracts/utils/Address.sol\":3462:3493  target.call{value: value}(data) */\n      gas\n      call\n        /* \"contracts/contracts/protocol/TuliaVault.sol\":530:3428  contract TuliaVault is ERC4626, ReentrancyGuard {... */\n      jumpi(tag_489, iszero(returndatasize))\n      returndatasize\n      sub(shl(0x40, 0x01), 0x01)\n      dup2\n      gt\n      tag_382\n      jumpi\n        /* \"@openzeppelin/contracts/utils/Address.sol\":3510:3565  verifyCallResultFromTarget(target, success, returndata) */\n      tag_493\n        /* \"contracts/contracts/protocol/TuliaVault.sol\":530:3428  contract TuliaVault is ERC4626, ReentrancyGuard {... */\n      swap2\n      mload(0x40)\n      swap2\n      tag_494\n        /* \"@openzeppelin/contracts/utils/Address.sol\":3462:3493  target.call{value: value}(data) */\n      0x20\n        /* \"contracts/contracts/protocol/TuliaVault.sol\":530:3428  contract TuliaVault is ERC4626, ReentrancyGuard {... */\n      not(0x1f)\n      0x1f\n      dup5\n      add\n      and\n      add\n      dup5\n      tag_10\n      jump\t// in\n    tag_494:\n      dup3\n      mstore\n      returndatasize\n        /* \"@openzeppelin/contracts/utils/Address.sol\":2847:2848  0 */\n      0x00\n        /* \"@openzeppelin/contracts/utils/Address.sol\":3462:3493  target.call{value: value}(data) */\n      0x20\n        /* \"contracts/contracts/protocol/TuliaVault.sol\":530:3428  contract TuliaVault is ERC4626, ReentrancyGuard {... */\n      dup5\n      add\n      returndatacopy\n    tag_495:\n        /* \"@openzeppelin/contracts/utils/Address.sol\":3510:3565  verifyCallResultFromTarget(target, success, returndata) */\n      dup4\n      tag_34\n      jump\t// in\n    tag_493:\n        /* \"contracts/contracts/protocol/TuliaVault.sol\":530:3428  contract TuliaVault is ERC4626, ReentrancyGuard {... */\n      dup1\n      mload\n        /* \"@openzeppelin/contracts/token/ERC20/utils/SafeERC20.sol\":4551:4573  returndata.length != 0 */\n      swap1\n      dup2\n      iszero\n      iszero\n        /* \"@openzeppelin/contracts/token/ERC20/utils/SafeERC20.sol\":4551:4608  returndata.length != 0 && !abi.decode(returndata, (bool)) */\n      swap2\n      dup3\n      tag_496\n      jumpi\n        /* \"contracts/contracts/protocol/TuliaVault.sol\":530:3428  contract TuliaVault is ERC4626, ReentrancyGuard {... */\n    tag_497:\n        /* \"@openzeppelin/contracts/token/ERC20/utils/SafeERC20.sol\":4547:4682  if (returndata.length != 0 && !abi.decode(returndata, (bool))) {... */\n      pop\n      pop\n      tag_498\n      jumpi\n        /* \"@openzeppelin/contracts/token/ERC20/utils/SafeERC20.sol\":4059:4688  function _callOptionalReturn(IERC20 token, bytes memory data) private {... */\n      pop\n      jump\t// out\n        /* \"@openzeppelin/contracts/token/ERC20/utils/SafeERC20.sol\":4547:4682  if (returndata.length != 0 && !abi.decode(returndata, (bool))) {... */\n    tag_498:\n        /* \"contracts/contracts/protocol/TuliaVault.sol\":530:3428  contract TuliaVault is ERC4626, ReentrancyGuard {... */\n      0x24\n      swap1\n      mload(0x40)\n        /* \"@openzeppelin/contracts/token/ERC20/utils/SafeERC20.sol\":4631:4671  SafeERC20FailedOperation(address(token)) */\n      swap1\n      shl(0xe0, 0x5274afe7)\n      dup3\n      mstore\n      0x04\n      dup3\n      add\n        /* \"contracts/contracts/protocol/TuliaVault.sol\":530:3428  contract TuliaVault is ERC4626, ReentrancyGuard {... */\n      mstore\n        /* \"@openzeppelin/contracts/token/ERC20/utils/SafeERC20.sol\":4631:4671  SafeERC20FailedOperation(address(token)) */\n      revert\n        /* \"@openzeppelin/contracts/token/ERC20/utils/SafeERC20.sol\":4551:4608  returndata.length != 0 && !abi.decode(returndata, (bool)) */\n    tag_496:\n        /* \"@openzeppelin/contracts/token/ERC20/utils/SafeERC20.sol\":4578:4608  abi.decode(returndata, (bool)) */\n      dup2\n      swap3\n      pop\n      swap1\n        /* \"@openzeppelin/contracts/utils/Address.sol\":3462:3493  target.call{value: value}(data) */\n      0x20\n        /* \"@openzeppelin/contracts/token/ERC20/utils/SafeERC20.sol\":4578:4608  abi.decode(returndata, (bool)) */\n      swap2\n      dup2\n      add\n        /* \"contracts/contracts/protocol/TuliaVault.sol\":530:3428  contract TuliaVault is ERC4626, ReentrancyGuard {... */\n      sub\n      slt\n      tag_124\n      jumpi\n        /* \"@openzeppelin/contracts/utils/Address.sol\":3462:3493  target.call{value: value}(data) */\n      0x20\n        /* \"@openzeppelin/contracts/token/ERC20/utils/SafeERC20.sol\":4578:4608  abi.decode(returndata, (bool)) */\n      add\n        /* \"contracts/contracts/protocol/TuliaVault.sol\":530:3428  contract TuliaVault is ERC4626, ReentrancyGuard {... */\n      mload\n      dup1\n      iszero\n      swap1\n      dup2\n      iszero\n      sub\n      tag_124\n      jumpi\n        /* \"@openzeppelin/contracts/token/ERC20/utils/SafeERC20.sol\":4551:4608  returndata.length != 0 && !abi.decode(returndata, (bool)) */\n      0x00\n      dup1\n      jump(tag_497)\n        /* \"contracts/contracts/protocol/TuliaVault.sol\":530:3428  contract TuliaVault is ERC4626, ReentrancyGuard {... */\n    tag_489:\n        /* \"@openzeppelin/contracts/utils/Address.sol\":3510:3565  verifyCallResultFromTarget(target, success, returndata) */\n      tag_493\n        /* \"contracts/contracts/protocol/TuliaVault.sol\":530:3428  contract TuliaVault is ERC4626, ReentrancyGuard {... */\n      swap1\n      0x60\n      swap1\n      jump(tag_495)\n        /* \"@openzeppelin/contracts/utils/Address.sol\":4625:5207  function verifyCallResultFromTarget(... */\n    tag_34:\n      swap1\n        /* \"@openzeppelin/contracts/utils/Address.sol\":4797:4805  !success */\n      tag_504\n      jumpi\n      pop\n        /* \"contracts/contracts/protocol/TuliaVault.sol\":530:3428  contract TuliaVault is ERC4626, ReentrancyGuard {... */\n      dup1\n      mload\n        /* \"@openzeppelin/contracts/utils/Address.sol\":5874:5895  returndata.length > 0 */\n      iszero\n        /* \"@openzeppelin/contracts/utils/Address.sol\":5874:5891  returndata.length */\n      tag_506\n      jumpi\n        /* \"@openzeppelin/contracts/utils/Address.sol\":6046:6188  assembly {... */\n      dup1\n      mload\n      swap1\n      0x20\n      add\n      revert\n        /* \"@openzeppelin/contracts/utils/Address.sol\":5870:6253  if (returndata.length > 0) {... */\n    tag_506:\n        /* \"contracts/contracts/protocol/TuliaVault.sol\":530:3428  contract TuliaVault is ERC4626, ReentrancyGuard {... */\n      mload(0x40)\n      shl(0xe1, 0x0a12f521)\n        /* \"@openzeppelin/contracts/utils/Address.sol\":6225:6242  FailedInnerCall() */\n      dup2\n      mstore\n      0x04\n      swap1\n      revert\n        /* \"@openzeppelin/contracts/utils/Address.sol\":4793:5201  if (!success) {... */\n    tag_504:\n        /* \"contracts/contracts/protocol/TuliaVault.sol\":530:3428  contract TuliaVault is ERC4626, ReentrancyGuard {... */\n      dup2\n      mload\n        /* \"@openzeppelin/contracts/utils/Address.sol\":5045:5067  returndata.length == 0 */\n      iszero\n        /* \"@openzeppelin/contracts/utils/Address.sol\":5045:5094  returndata.length == 0 && target.code.length == 0 */\n      dup1\n      tag_508\n      jumpi\n        /* \"@openzeppelin/contracts/utils/Address.sol\":4793:5201  if (!success) {... */\n    tag_509:\n        /* \"@openzeppelin/contracts/utils/Address.sol\":5041:5160  if (returndata.length == 0 && target.code.length == 0) {... */\n      tag_510\n      jumpi\n        /* \"@openzeppelin/contracts/utils/Address.sol\":5173:5190  return returndata */\n      pop\n      swap1\n      jump\t// out\n        /* \"@openzeppelin/contracts/utils/Address.sol\":5041:5160  if (returndata.length == 0 && target.code.length == 0) {... */\n    tag_510:\n        /* \"contracts/contracts/protocol/TuliaVault.sol\":530:3428  contract TuliaVault is ERC4626, ReentrancyGuard {... */\n      mload(0x40)\n      shl(0xe0, 0x9996b315)\n        /* \"@openzeppelin/contracts/utils/Address.sol\":5121:5145  AddressEmptyCode(target) */\n      dup2\n      mstore\n      sub(shl(0xa0, 0x01), 0x01)\n        /* \"contracts/contracts/protocol/TuliaVault.sol\":530:3428  contract TuliaVault is ERC4626, ReentrancyGuard {... */\n      swap1\n      swap2\n      and\n        /* \"@openzeppelin/contracts/utils/Address.sol\":5121:5145  AddressEmptyCode(target) */\n      0x04\n      dup3\n      add\n        /* \"contracts/contracts/protocol/TuliaVault.sol\":530:3428  contract TuliaVault is ERC4626, ReentrancyGuard {... */\n      mstore\n      0x24\n      swap1\n        /* \"@openzeppelin/contracts/utils/Address.sol\":5121:5145  AddressEmptyCode(target) */\n      revert\n        /* \"@openzeppelin/contracts/utils/Address.sol\":5045:5094  returndata.length == 0 && target.code.length == 0 */\n    tag_508:\n        /* \"@openzeppelin/contracts/utils/Address.sol\":5071:5089  target.code.length */\n      pop\n      dup1\n      extcodesize\n        /* \"@openzeppelin/contracts/utils/Address.sol\":5071:5094  target.code.length == 0 */\n      iszero\n        /* \"@openzeppelin/contracts/utils/Address.sol\":5045:5094  returndata.length == 0 && target.code.length == 0 */\n      jump(tag_509)\n\n    auxdata: 0xa2646970667358221220494dd450443988db0e80bc15ebb6687a8d8c71b3a695b5e59e9d7e87bb2d0a5564736f6c63430008190033\n}\n",
				"bytecode": {
					"linkReferences": {},
					"object": "60e0806040523461037a57611c83803803809161001c828561037e565b8339810160808282031261037a5781516001600160a01b0392838216820361037a5760208181015190916001600160401b039182811161037a57856100629183016103bc565b94604082015183811161037a5760609161007d9184016103bc565b910151958616860361037a578451828111610291576003918254916001978884811c94168015610370575b8785101461035c578190601f9485811161030e575b5087908583116001146102b0575f926102a5575b50505f1982861b1c191690881b1783555b80519384116102915760049485548881811c91168015610287575b8282101461027457908184879695949311610220575b50809285116001146101bb57505f936101b0575b505082861b925f19911b1c19161790555b61014181610402565b90156101a8575b60a05260805260055560c0526040516117cb90816104b88239608051818181610bae01528181610ff7015281816113510152611536015260a05181610bf1015260c051818181610256015281816107fd015281816108b20152610b6a0152f35b506012610148565b015191505f80610127565b929190889550601f198516875f52845f20945f905b82821061020757505085116101ee575b50505050811b019055610138565b01519060f8845f19921b161c191690555f8080806101e0565b8484015187558b989096019593840193908101906101d0565b909192939450865f52815f208480880160051c82019284891061026b575b918b91899897969594930160051c01915b82811061025d575050610113565b5f81558897508b910161024f565b9250819261023e565b602287634e487b7160e01b5f525260245ffd5b90607f16906100fd565b634e487b7160e01b5f52604160045260245ffd5b015190505f806100d1565b908a9350601f19831691875f52895f20925f5b8b8282106102f857505084116102e1575b505050811b0183556100e2565b01515f1983881b60f8161c191690555f80806102d4565b8385015186558e979095019493840193016102c3565b909150855f52875f208580850160051c8201928a8610610353575b918c91869594930160051c01915b8281106103455750506100bd565b5f81558594508c9101610337565b92508192610329565b634e487b7160e01b5f52602260045260245ffd5b93607f16936100a8565b5f80fd5b601f909101601f19168101906001600160401b0382119082101761029157604052565b6001600160401b03811161029157601f01601f191660200190565b81601f8201121561037a578051906103d3826103a1565b926103e1604051948561037e565b8284526020838301011161037a57815f9260208093018386015e8301015290565b6040805163313ce56760e01b6020820190815260048252909291830191906001600160401b03831184841017610291575f938493604052519160018060a01b03165afa3d156104af573d90610456826103a1565b91610464604051938461037e565b82523d5f602084013e5b806104a3575b610480575b505f905f90565b60208180518101031261037a576020015160ff8111610479579060ff6001921690565b50602081511015610474565b60609061046e56fe60806040526004361015610011575f80fd5b5f3560e01c806301e1d11414610e1a57806306fdde0314610d5d57806307a2d13a14610b50578063095ea7b314610cab5780630a28a47714610c8d57806318160ddd14610c7057806323b872dd14610c38578063313ce56714610bdd57806338d52e0f14610b99578063402d267d1461041b578063464582cb14610b555780634cdad50614610b505780636e553f6514610b2657806370a08231146103a45780637b17edf2146106a857806394bf804d1461067557806395d89b4114610573578063a9059cbb14610542578063b3d7f6b914610524578063b460af941461049e578063ba08765214610420578063c63d75b61461041b578063c6e6f5921461014d578063ce96cb77146103e4578063d905777e146103a4578063dd62ed3e14610357578063e6adb29c146101525763ef8b30f71461014d575f80fd5b610fbe565b346103535761012036600319011261035357366023190160043560c082126103535760806040519261018384610ee1565b12610353576040519161019583610f23565b6001600160a01b03926024358481168103610353578152604435848116810361035357602082015265ffffffffffff60643581811681036103535760408301526084359081168103610353576060820152815260a43583811681036103535760208201908152604082019060c435825260e435916001600160401b038084116103535736602385011215610353578360040135908111610353573660248286010111610353576101049182359588871687036103535761025361140f565b887f00000000000000000000000000000000000000000000000000000000000000001693843b15610353575f966102e4946024610302938a966040519e8f9b8c9a8b996302b67b5760e41b8b523360048c0152868b01905160609060018060a01b0380825116845260208201511660208401528160408201519165ffffffffffff8093166040860152015116910152565b511660a48801525160c487015261010060e487015285019201611075565b03925af19081156103485760209361032c92610339575b5061032383611126565b928391336112f8565b6001600555604051908152f35b61034290610f10565b84610319565b6040513d5f823e3d90fd5b5f80fd5b3461035357604036600319011261035357610370610e7c565b610378610e92565b9060018060a01b038091165f52600160205260405f2091165f52602052602060405f2054604051908152f35b346103535760203660031901126103535760206103dc6103c2610e7c565b6001600160a01b03165f9081526020819052604090205490565b604051908152f35b34610353576020366003190112610353576001600160a01b03610405610e7c565b165f525f60205260206103dc60405f20546110d0565b610ebc565b346103535761042e36610f89565b906104498260018060a01b03165f525f60205260405f205490565b80841161046a5750826103dc916104616020956110d0565b93849133611465565b604051632e52afbb60e21b81526001600160a01b039390931660048401526024830193909352506044810191909152606490fd5b34610353576104ac36610f89565b906104cf6104ca8360018060a01b03165f525f60205260405f205490565b6110d0565b8084116104f057506103dc90836104e76020956110fb565b93849233611465565b604051633fa733bb60e21b81526001600160a01b039390931660048401526024830193909352506044810191909152606490fd5b346103535760203660031901126103535760206103dc6004356110a2565b346103535760403660031901126103535761056861055e610e7c565b602435903361121e565b602060405160018152f35b34610353575f366003190112610353576040515f9060045460018160011c906001831692831561066b575b60209384841081146106575783865290811561063757506001146105dd575b6105d9846105cd81880382610f3e565b60405191829182610e34565b0390f35b60045f9081529294507f8a35acfbc15ff81a39ae7d344fd709f28e8600b4aa8c65c6b64bfe7fe36bd19b5b82841061062457505050816105d9936105cd92820101936105bd565b8054858501870152928501928101610608565b60ff1916858501525050151560051b82010191506105cd816105d96105bd565b634e487b7160e01b5f52602260045260245ffd5b91607f169161059e565b346103535760403660031901126103535760206004356103dc610696610e92565b916106a0816110a2565b8093336112f8565b34610353576060366003190112610353576001600160401b03600435116103535736602360043501121561035357600435600401356106e681610f5f565b906106f46040519283610f3e565b80825260208201903660248260051b60043501011161035357602460043501915b60248260051b600435010183106109da57836001600160401b036024351161035357366023602435011215610353576001600160401b0360243560040135116103535736602480356004013560051b8135010111610353576044356001600160a01b03811690036103535761078861140f565b5f905f905b80518210156109c0576107a08282611061565b51602435600401358310156109ac5760421960243536030160248460051b813501013512156103535760248360051b813501013560243501906001600160401b0360248301351161035357602482013536036044830113610353577f00000000000000000000000000000000000000000000000000000000000000006001600160a01b03163b156103535760405191632a2d80d160e01b83523360048401526060602484015260c4830191805192606060648601528351809152602060e486019401905f5b818110610952575050506108ad5f9385936040859460018060a01b036020820151166084870152015160a4850152600319848303016044850152604460248201359101611075565b0381837f00000000000000000000000000000000000000000000000000000000000000006001600160a01b03165af1801561034857610943575b505f5b6108f48383611061565b515151811015610938576001938490610930906001600160a01b0360206109268661091f8a8a611061565b5151611061565b5101511690611095565b9450016108ea565b50906001019061078d565b61094c90610f10565b836108e7565b909194602060808261099e6001948a9e9b9e5160609060018060a01b0380825116845260208201511660208401528160408201519165ffffffffffff8093166040860152015116910152565b989b98019601929101610865565b634e487b7160e01b5f52603260045260245ffd5b60208361032c6109cf82611126565b8092604435336112f8565b82356001600160401b0381116103535760606004358201360360231901126103535760405190610a0982610ee1565b6024816004350101356001600160401b038111610353578160043501013660438201121561035357602481013590610a4082610f5f565b91610a4e6040519384610f3e565b808352602083013660448360071b850101116103535760448301905b60448360071b8501018210610ab757505050509282606460209493602496869552610a9b6044826004350101610ea8565b8584015260043501013560408201528152019301929050610715565b6080823603126103535760405190610ace82610f23565b610ad783610ea8565b82526020830135906001600160a01b03821682036103535782602092836080950152610b0560408601610f76565b6040820152610b1660608601610f76565b6060820152815201910190610a6a565b346103535760403660031901126103535760206004356103dc610b47610e92565b61032383611126565b610e5e565b34610353575f366003190112610353576040517f00000000000000000000000000000000000000000000000000000000000000006001600160a01b03168152602090f35b34610353575f366003190112610353576040517f00000000000000000000000000000000000000000000000000000000000000006001600160a01b03168152602090f35b34610353575f3660031901126103535760ff7f00000000000000000000000000000000000000000000000000000000000000001660ff8111610c2457602090604051908152f35b634e487b7160e01b5f52601160045260245ffd5b3461035357606036600319011261035357610568610c54610e7c565b610c5c610e92565b60443591610c6b833383611151565b61121e565b34610353575f366003190112610353576020600254604051908152f35b346103535760203660031901126103535760206103dc6004356110fb565b3461035357604036600319011261035357610cc4610e7c565b602435903315610d45576001600160a01b0316908115610d2d57335f52600160205260405f20825f526020528060405f20556040519081527f8c5be1e5ebec7d5bd14f71427d1e84f3dd0314c0f7b2291e5b200ac8c7c3b92560203392a3602060405160018152f35b604051634a1406b160e11b81525f6004820152602490fd5b60405163e602df0560e01b81525f6004820152602490fd5b34610353575f366003190112610353576040515f9060035460018160011c9060018316928315610e10575b6020938484108114610657578386529081156106375750600114610db6576105d9846105cd81880382610f3e565b60035f9081529294507fc2575a0e9e593c00f959f8c92f12db2869c3395a3b0502d05e2516446f71f85b5b828410610dfd57505050816105d9936105cd92820101936105bd565b8054858501870152928501928101610de1565b91607f1691610d88565b34610353575f3660031901126103535760206103dc610fdc565b602060409281835280519182918282860152018484015e5f828201840152601f01601f1916010190565b346103535760203660031901126103535760206103dc6004356110d0565b600435906001600160a01b038216820361035357565b602435906001600160a01b038216820361035357565b35906001600160a01b038216820361035357565b3461035357602036600319011261035357610ed5610e7c565b5060206040515f198152f35b606081019081106001600160401b03821117610efc57604052565b634e487b7160e01b5f52604160045260245ffd5b6001600160401b038111610efc57604052565b608081019081106001600160401b03821117610efc57604052565b90601f801991011681019081106001600160401b03821117610efc57604052565b6001600160401b038111610efc5760051b60200190565b359065ffffffffffff8216820361035357565b606090600319011261035357600435906001600160a01b03906024358281168103610353579160443590811681036103535790565b346103535760203660031901126103535760206103dc600435611126565b6040516370a0823160e01b81523060048201526020816024817f00000000000000000000000000000000000000000000000000000000000000006001600160a01b03165afa908115610348575f91611032575090565b90506020813d602011611059575b8161104d60209383610f3e565b81010312610353575190565b3d9150611040565b80518210156109ac5760209160051b010190565b908060209392818452848401375f828201840152601f01601f1916010190565b91908201809211610c2457565b6110aa610fdc565b60018101809111610c24576002549060018201809211610c24576110cd926115a9565b90565b6110d8610fdc565b60018101809111610c24576002549060018201809211610c24576110cd926115e7565b60025460018101809111610c2457611111610fdc565b9060018201809211610c24576110cd926115a9565b60025460018101809111610c245761113c610fdc565b9060018201809211610c24576110cd926115e7565b919060018060a01b0380931692835f526001602052604093845f2091831691825f52602052845f2054925f19840361118c575b505050505050565b8484106111ee575080156111d75781156111c0575f526001602052835f20905f5260205203905f20555f8080808080611184565b8451634a1406b160e11b81525f6004820152602490fd5b845163e602df0560e01b81525f6004820152602490fd5b8551637dc7a0d960e11b81526001600160a01b039190911660048201526024810184905260448101859052606490fd5b916001600160a01b038084169283156112e057169283156112c857825f525f60205260405f2054908282106112965750817fddf252ad1be2c89b69c2b068fc378daa952ba7f163c4a11628f55a4df523b3ef92602092855f525f84520360405f2055845f5260405f20818154019055604051908152a3565b60405163391434e360e21b81526001600160a01b03919091166004820152602481019190915260448101829052606490fd5b60405163ec442f0560e01b81525f6004820152602490fd5b604051634b637e8f60e11b81525f6004820152602490fd5b604080516323b872dd60e01b60208201526001600160a01b0392831660248201819052306044830152606480830187905282529491939192919060a08101906001600160401b03821181831017610efc576113759186527f000000000000000000000000000000000000000000000000000000000000000061167a565b169384156113f85790816113ad7fdcbc1c05240f31ff3ad067ef1ee35ce4997762752e3a095284754544f4c709d79493600254611095565b600255855f525f602052825f20818154019055855f7fddf252ad1be2c89b69c2b068fc378daa952ba7f163c4a11628f55a4df523b3ef60208651858152a382519182526020820152a3565b825163ec442f0560e01b81525f6004820152602490fd5b600260055414611420576002600555565b60405162461bcd60e51b815260206004820152601f60248201527f5265656e7472616e637947756172643a207265656e7472616e742063616c6c006044820152606490fd5b91909260018060a01b0394858316958085169482888703611598575b505086156112e057865f525f602052604093845f205490838210611567575082917ffbde797d201c681b91056529119e0b02407c7bb96a4a2c75c01fc9667232c8db95949361155a928a5f525f60205203855f205582600254036002555f897fddf252ad1be2c89b69c2b068fc378daa952ba7f163c4a11628f55a4df523b3ef60208851878152a384519763a9059cbb60e01b60208a015216968760248201528360448201526044815261153481610f23565b7f000000000000000000000000000000000000000000000000000000000000000061167a565b82519182526020820152a4565b855163391434e360e21b81526001600160a01b03919091166004820152602481019190915260448101839052606490fd5b6115a29186611151565b5f82611481565b91906115b68282856115e7565b9282156115d357096115c55790565b60018101809111610c245790565b634e487b7160e01b5f52601260045260245ffd5b9091828202915f198482099383808610950394808603951461166c578483111561165a57829109815f038216809204600280826003021880830282030280830282030280830282030280830282030280830282030280920290030293600183805f03040190848311900302920304170290565b60405163227bc15360e01b8152600490fd5b5050809250156115d3570490565b81516001600160a01b03909116915f91829160200182855af13d15611726573d6001600160401b038111610efc576116d491604051916116c46020601f19601f8401160184610f3e565b82523d5f602084013e5b83611732565b8051908115159182611702575b50506116ea5750565b60249060405190635274afe760e01b82526004820152fd5b81925090602091810103126103535760200151801590811503610353575f806116e1565b6116d4906060906116ce565b90611759575080511561174757805190602001fd5b604051630a12f52160e11b8152600490fd5b8151158061178c575b61176a575090565b604051639996b31560e01b81526001600160a01b039091166004820152602490fd5b50803b1561176256fea2646970667358221220494dd450443988db0e80bc15ebb6687a8d8c71b3a695b5e59e9d7e87bb2d0a5564736f6c63430008190033",
					"opcodes": "PUSH1 0xE0 DUP1 PUSH1 0x40 MSTORE CALLVALUE PUSH2 0x37A JUMPI PUSH2 0x1C83 DUP1 CODESIZE SUB DUP1 SWAP2 PUSH2 0x1C DUP3 DUP6 PUSH2 0x37E JUMP JUMPDEST DUP4 CODECOPY DUP2 ADD PUSH1 0x80 DUP3 DUP3 SUB SLT PUSH2 0x37A JUMPI DUP2 MLOAD PUSH1 0x1 PUSH1 0x1 PUSH1 0xA0 SHL SUB SWAP3 DUP4 DUP3 AND DUP3 SUB PUSH2 0x37A JUMPI PUSH1 0x20 DUP2 DUP2 ADD MLOAD SWAP1 SWAP2 PUSH1 0x1 PUSH1 0x1 PUSH1 0x40 SHL SUB SWAP2 DUP3 DUP2 GT PUSH2 0x37A JUMPI DUP6 PUSH2 0x62 SWAP2 DUP4 ADD PUSH2 0x3BC JUMP JUMPDEST SWAP5 PUSH1 0x40 DUP3 ADD MLOAD DUP4 DUP2 GT PUSH2 0x37A JUMPI PUSH1 0x60 SWAP2 PUSH2 0x7D SWAP2 DUP5 ADD PUSH2 0x3BC JUMP JUMPDEST SWAP2 ADD MLOAD SWAP6 DUP7 AND DUP7 SUB PUSH2 0x37A JUMPI DUP5 MLOAD DUP3 DUP2 GT PUSH2 0x291 JUMPI PUSH1 0x3 SWAP2 DUP3 SLOAD SWAP2 PUSH1 0x1 SWAP8 DUP9 DUP5 DUP2 SHR SWAP5 AND DUP1 ISZERO PUSH2 0x370 JUMPI JUMPDEST DUP8 DUP6 LT EQ PUSH2 0x35C JUMPI DUP2 SWAP1 PUSH1 0x1F SWAP5 DUP6 DUP2 GT PUSH2 0x30E JUMPI JUMPDEST POP DUP8 SWAP1 DUP6 DUP4 GT PUSH1 0x1 EQ PUSH2 0x2B0 JUMPI PUSH0 SWAP3 PUSH2 0x2A5 JUMPI JUMPDEST POP POP PUSH0 NOT DUP3 DUP7 SHL SHR NOT AND SWAP1 DUP9 SHL OR DUP4 SSTORE JUMPDEST DUP1 MLOAD SWAP4 DUP5 GT PUSH2 0x291 JUMPI PUSH1 0x4 SWAP5 DUP6 SLOAD DUP9 DUP2 DUP2 SHR SWAP2 AND DUP1 ISZERO PUSH2 0x287 JUMPI JUMPDEST DUP3 DUP3 LT EQ PUSH2 0x274 JUMPI SWAP1 DUP2 DUP5 DUP8 SWAP7 SWAP6 SWAP5 SWAP4 GT PUSH2 0x220 JUMPI JUMPDEST POP DUP1 SWAP3 DUP6 GT PUSH1 0x1 EQ PUSH2 0x1BB JUMPI POP PUSH0 SWAP4 PUSH2 0x1B0 JUMPI JUMPDEST POP POP DUP3 DUP7 SHL SWAP3 PUSH0 NOT SWAP2 SHL SHR NOT AND OR SWAP1 SSTORE JUMPDEST PUSH2 0x141 DUP2 PUSH2 0x402 JUMP JUMPDEST SWAP1 ISZERO PUSH2 0x1A8 JUMPI JUMPDEST PUSH1 0xA0 MSTORE PUSH1 0x80 MSTORE PUSH1 0x5 SSTORE PUSH1 0xC0 MSTORE PUSH1 0x40 MLOAD PUSH2 0x17CB SWAP1 DUP2 PUSH2 0x4B8 DUP3 CODECOPY PUSH1 0x80 MLOAD DUP2 DUP2 DUP2 PUSH2 0xBAE ADD MSTORE DUP2 DUP2 PUSH2 0xFF7 ADD MSTORE DUP2 DUP2 PUSH2 0x1351 ADD MSTORE PUSH2 0x1536 ADD MSTORE PUSH1 0xA0 MLOAD DUP2 PUSH2 0xBF1 ADD MSTORE PUSH1 0xC0 MLOAD DUP2 DUP2 DUP2 PUSH2 0x256 ADD MSTORE DUP2 DUP2 PUSH2 0x7FD ADD MSTORE DUP2 DUP2 PUSH2 0x8B2 ADD MSTORE PUSH2 0xB6A ADD MSTORE RETURN JUMPDEST POP PUSH1 0x12 PUSH2 0x148 JUMP JUMPDEST ADD MLOAD SWAP2 POP PUSH0 DUP1 PUSH2 0x127 JUMP JUMPDEST SWAP3 SWAP2 SWAP1 DUP9 SWAP6 POP PUSH1 0x1F NOT DUP6 AND DUP8 PUSH0 MSTORE DUP5 PUSH0 KECCAK256 SWAP5 PUSH0 SWAP1 JUMPDEST DUP3 DUP3 LT PUSH2 0x207 JUMPI POP POP DUP6 GT PUSH2 0x1EE JUMPI JUMPDEST POP POP POP POP DUP2 SHL ADD SWAP1 SSTORE PUSH2 0x138 JUMP JUMPDEST ADD MLOAD SWAP1 PUSH1 0xF8 DUP5 PUSH0 NOT SWAP3 SHL AND SHR NOT AND SWAP1 SSTORE PUSH0 DUP1 DUP1 DUP1 PUSH2 0x1E0 JUMP JUMPDEST DUP5 DUP5 ADD MLOAD DUP8 SSTORE DUP12 SWAP9 SWAP1 SWAP7 ADD SWAP6 SWAP4 DUP5 ADD SWAP4 SWAP1 DUP2 ADD SWAP1 PUSH2 0x1D0 JUMP JUMPDEST SWAP1 SWAP2 SWAP3 SWAP4 SWAP5 POP DUP7 PUSH0 MSTORE DUP2 PUSH0 KECCAK256 DUP5 DUP1 DUP9 ADD PUSH1 0x5 SHR DUP3 ADD SWAP3 DUP5 DUP10 LT PUSH2 0x26B JUMPI JUMPDEST SWAP2 DUP12 SWAP2 DUP10 SWAP9 SWAP8 SWAP7 SWAP6 SWAP5 SWAP4 ADD PUSH1 0x5 SHR ADD SWAP2 JUMPDEST DUP3 DUP2 LT PUSH2 0x25D JUMPI POP POP PUSH2 0x113 JUMP JUMPDEST PUSH0 DUP2 SSTORE DUP9 SWAP8 POP DUP12 SWAP2 ADD PUSH2 0x24F JUMP JUMPDEST SWAP3 POP DUP2 SWAP3 PUSH2 0x23E JUMP JUMPDEST PUSH1 0x22 DUP8 PUSH4 0x4E487B71 PUSH1 0xE0 SHL PUSH0 MSTORE MSTORE PUSH1 0x24 PUSH0 REVERT JUMPDEST SWAP1 PUSH1 0x7F AND SWAP1 PUSH2 0xFD JUMP JUMPDEST PUSH4 0x4E487B71 PUSH1 0xE0 SHL PUSH0 MSTORE PUSH1 0x41 PUSH1 0x4 MSTORE PUSH1 0x24 PUSH0 REVERT JUMPDEST ADD MLOAD SWAP1 POP PUSH0 DUP1 PUSH2 0xD1 JUMP JUMPDEST SWAP1 DUP11 SWAP4 POP PUSH1 0x1F NOT DUP4 AND SWAP2 DUP8 PUSH0 MSTORE DUP10 PUSH0 KECCAK256 SWAP3 PUSH0 JUMPDEST DUP12 DUP3 DUP3 LT PUSH2 0x2F8 JUMPI POP POP DUP5 GT PUSH2 0x2E1 JUMPI JUMPDEST POP POP POP DUP2 SHL ADD DUP4 SSTORE PUSH2 0xE2 JUMP JUMPDEST ADD MLOAD PUSH0 NOT DUP4 DUP9 SHL PUSH1 0xF8 AND SHR NOT AND SWAP1 SSTORE PUSH0 DUP1 DUP1 PUSH2 0x2D4 JUMP JUMPDEST DUP4 DUP6 ADD MLOAD DUP7 SSTORE DUP15 SWAP8 SWAP1 SWAP6 ADD SWAP5 SWAP4 DUP5 ADD SWAP4 ADD PUSH2 0x2C3 JUMP JUMPDEST SWAP1 SWAP2 POP DUP6 PUSH0 MSTORE DUP8 PUSH0 KECCAK256 DUP6 DUP1 DUP6 ADD PUSH1 0x5 SHR DUP3 ADD SWAP3 DUP11 DUP7 LT PUSH2 0x353 JUMPI JUMPDEST SWAP2 DUP13 SWAP2 DUP7 SWAP6 SWAP5 SWAP4 ADD PUSH1 0x5 SHR ADD SWAP2 JUMPDEST DUP3 DUP2 LT PUSH2 0x345 JUMPI POP POP PUSH2 0xBD JUMP JUMPDEST PUSH0 DUP2 SSTORE DUP6 SWAP5 POP DUP13 SWAP2 ADD PUSH2 0x337 JUMP JUMPDEST SWAP3 POP DUP2 SWAP3 PUSH2 0x329 JUMP JUMPDEST PUSH4 0x4E487B71 PUSH1 0xE0 SHL PUSH0 MSTORE PUSH1 0x22 PUSH1 0x4 MSTORE PUSH1 0x24 PUSH0 REVERT JUMPDEST SWAP4 PUSH1 0x7F AND SWAP4 PUSH2 0xA8 JUMP JUMPDEST PUSH0 DUP1 REVERT JUMPDEST PUSH1 0x1F SWAP1 SWAP2 ADD PUSH1 0x1F NOT AND DUP2 ADD SWAP1 PUSH1 0x1 PUSH1 0x1 PUSH1 0x40 SHL SUB DUP3 GT SWAP1 DUP3 LT OR PUSH2 0x291 JUMPI PUSH1 0x40 MSTORE JUMP JUMPDEST PUSH1 0x1 PUSH1 0x1 PUSH1 0x40 SHL SUB DUP2 GT PUSH2 0x291 JUMPI PUSH1 0x1F ADD PUSH1 0x1F NOT AND PUSH1 0x20 ADD SWAP1 JUMP JUMPDEST DUP2 PUSH1 0x1F DUP3 ADD SLT ISZERO PUSH2 0x37A JUMPI DUP1 MLOAD SWAP1 PUSH2 0x3D3 DUP3 PUSH2 0x3A1 JUMP JUMPDEST SWAP3 PUSH2 0x3E1 PUSH1 0x40 MLOAD SWAP5 DUP6 PUSH2 0x37E JUMP JUMPDEST DUP3 DUP5 MSTORE PUSH1 0x20 DUP4 DUP4 ADD ADD GT PUSH2 0x37A JUMPI DUP2 PUSH0 SWAP3 PUSH1 0x20 DUP1 SWAP4 ADD DUP4 DUP7 ADD MCOPY DUP4 ADD ADD MSTORE SWAP1 JUMP JUMPDEST PUSH1 0x40 DUP1 MLOAD PUSH4 0x313CE567 PUSH1 0xE0 SHL PUSH1 0x20 DUP3 ADD SWAP1 DUP2 MSTORE PUSH1 0x4 DUP3 MSTORE SWAP1 SWAP3 SWAP2 DUP4 ADD SWAP2 SWAP1 PUSH1 0x1 PUSH1 0x1 PUSH1 0x40 SHL SUB DUP4 GT DUP5 DUP5 LT OR PUSH2 0x291 JUMPI PUSH0 SWAP4 DUP5 SWAP4 PUSH1 0x40 MSTORE MLOAD SWAP2 PUSH1 0x1 DUP1 PUSH1 0xA0 SHL SUB AND GAS STATICCALL RETURNDATASIZE ISZERO PUSH2 0x4AF JUMPI RETURNDATASIZE SWAP1 PUSH2 0x456 DUP3 PUSH2 0x3A1 JUMP JUMPDEST SWAP2 PUSH2 0x464 PUSH1 0x40 MLOAD SWAP4 DUP5 PUSH2 0x37E JUMP JUMPDEST DUP3 MSTORE RETURNDATASIZE PUSH0 PUSH1 0x20 DUP5 ADD RETURNDATACOPY JUMPDEST DUP1 PUSH2 0x4A3 JUMPI JUMPDEST PUSH2 0x480 JUMPI JUMPDEST POP PUSH0 SWAP1 PUSH0 SWAP1 JUMP JUMPDEST PUSH1 0x20 DUP2 DUP1 MLOAD DUP2 ADD SUB SLT PUSH2 0x37A JUMPI PUSH1 0x20 ADD MLOAD PUSH1 0xFF DUP2 GT PUSH2 0x479 JUMPI SWAP1 PUSH1 0xFF PUSH1 0x1 SWAP3 AND SWAP1 JUMP JUMPDEST POP PUSH1 0x20 DUP2 MLOAD LT ISZERO PUSH2 0x474 JUMP JUMPDEST PUSH1 0x60 SWAP1 PUSH2 0x46E JUMP INVALID PUSH1 0x80 PUSH1 0x40 MSTORE PUSH1 0x4 CALLDATASIZE LT ISZERO PUSH2 0x11 JUMPI PUSH0 DUP1 REVERT JUMPDEST PUSH0 CALLDATALOAD PUSH1 0xE0 SHR DUP1 PUSH4 0x1E1D114 EQ PUSH2 0xE1A JUMPI DUP1 PUSH4 0x6FDDE03 EQ PUSH2 0xD5D JUMPI DUP1 PUSH4 0x7A2D13A EQ PUSH2 0xB50 JUMPI DUP1 PUSH4 0x95EA7B3 EQ PUSH2 0xCAB JUMPI DUP1 PUSH4 0xA28A477 EQ PUSH2 0xC8D JUMPI DUP1 PUSH4 0x18160DDD EQ PUSH2 0xC70 JUMPI DUP1 PUSH4 0x23B872DD EQ PUSH2 0xC38 JUMPI DUP1 PUSH4 0x313CE567 EQ PUSH2 0xBDD JUMPI DUP1 PUSH4 0x38D52E0F EQ PUSH2 0xB99 JUMPI DUP1 PUSH4 0x402D267D EQ PUSH2 0x41B JUMPI DUP1 PUSH4 0x464582CB EQ PUSH2 0xB55 JUMPI DUP1 PUSH4 0x4CDAD506 EQ PUSH2 0xB50 JUMPI DUP1 PUSH4 0x6E553F65 EQ PUSH2 0xB26 JUMPI DUP1 PUSH4 0x70A08231 EQ PUSH2 0x3A4 JUMPI DUP1 PUSH4 0x7B17EDF2 EQ PUSH2 0x6A8 JUMPI DUP1 PUSH4 0x94BF804D EQ PUSH2 0x675 JUMPI DUP1 PUSH4 0x95D89B41 EQ PUSH2 0x573 JUMPI DUP1 PUSH4 0xA9059CBB EQ PUSH2 0x542 JUMPI DUP1 PUSH4 0xB3D7F6B9 EQ PUSH2 0x524 JUMPI DUP1 PUSH4 0xB460AF94 EQ PUSH2 0x49E JUMPI DUP1 PUSH4 0xBA087652 EQ PUSH2 0x420 JUMPI DUP1 PUSH4 0xC63D75B6 EQ PUSH2 0x41B JUMPI DUP1 PUSH4 0xC6E6F592 EQ PUSH2 0x14D JUMPI DUP1 PUSH4 0xCE96CB77 EQ PUSH2 0x3E4 JUMPI DUP1 PUSH4 0xD905777E EQ PUSH2 0x3A4 JUMPI DUP1 PUSH4 0xDD62ED3E EQ PUSH2 0x357 JUMPI DUP1 PUSH4 0xE6ADB29C EQ PUSH2 0x152 JUMPI PUSH4 0xEF8B30F7 EQ PUSH2 0x14D JUMPI PUSH0 DUP1 REVERT JUMPDEST PUSH2 0xFBE JUMP JUMPDEST CALLVALUE PUSH2 0x353 JUMPI PUSH2 0x120 CALLDATASIZE PUSH1 0x3 NOT ADD SLT PUSH2 0x353 JUMPI CALLDATASIZE PUSH1 0x23 NOT ADD PUSH1 0x4 CALLDATALOAD PUSH1 0xC0 DUP3 SLT PUSH2 0x353 JUMPI PUSH1 0x80 PUSH1 0x40 MLOAD SWAP3 PUSH2 0x183 DUP5 PUSH2 0xEE1 JUMP JUMPDEST SLT PUSH2 0x353 JUMPI PUSH1 0x40 MLOAD SWAP2 PUSH2 0x195 DUP4 PUSH2 0xF23 JUMP JUMPDEST PUSH1 0x1 PUSH1 0x1 PUSH1 0xA0 SHL SUB SWAP3 PUSH1 0x24 CALLDATALOAD DUP5 DUP2 AND DUP2 SUB PUSH2 0x353 JUMPI DUP2 MSTORE PUSH1 0x44 CALLDATALOAD DUP5 DUP2 AND DUP2 SUB PUSH2 0x353 JUMPI PUSH1 0x20 DUP3 ADD MSTORE PUSH6 0xFFFFFFFFFFFF PUSH1 0x64 CALLDATALOAD DUP2 DUP2 AND DUP2 SUB PUSH2 0x353 JUMPI PUSH1 0x40 DUP4 ADD MSTORE PUSH1 0x84 CALLDATALOAD SWAP1 DUP2 AND DUP2 SUB PUSH2 0x353 JUMPI PUSH1 0x60 DUP3 ADD MSTORE DUP2 MSTORE PUSH1 0xA4 CALLDATALOAD DUP4 DUP2 AND DUP2 SUB PUSH2 0x353 JUMPI PUSH1 0x20 DUP3 ADD SWAP1 DUP2 MSTORE PUSH1 0x40 DUP3 ADD SWAP1 PUSH1 0xC4 CALLDATALOAD DUP3 MSTORE PUSH1 0xE4 CALLDATALOAD SWAP2 PUSH1 0x1 PUSH1 0x1 PUSH1 0x40 SHL SUB DUP1 DUP5 GT PUSH2 0x353 JUMPI CALLDATASIZE PUSH1 0x23 DUP6 ADD SLT ISZERO PUSH2 0x353 JUMPI DUP4 PUSH1 0x4 ADD CALLDATALOAD SWAP1 DUP2 GT PUSH2 0x353 JUMPI CALLDATASIZE PUSH1 0x24 DUP3 DUP7 ADD ADD GT PUSH2 0x353 JUMPI PUSH2 0x104 SWAP2 DUP3 CALLDATALOAD SWAP6 DUP9 DUP8 AND DUP8 SUB PUSH2 0x353 JUMPI PUSH2 0x253 PUSH2 0x140F JUMP JUMPDEST DUP9 PUSH32 0x0 AND SWAP4 DUP5 EXTCODESIZE ISZERO PUSH2 0x353 JUMPI PUSH0 SWAP7 PUSH2 0x2E4 SWAP5 PUSH1 0x24 PUSH2 0x302 SWAP4 DUP11 SWAP7 PUSH1 0x40 MLOAD SWAP15 DUP16 SWAP12 DUP13 SWAP11 DUP12 SWAP10 PUSH4 0x2B67B57 PUSH1 0xE4 SHL DUP12 MSTORE CALLER PUSH1 0x4 DUP13 ADD MSTORE DUP7 DUP12 ADD SWAP1 MLOAD PUSH1 0x60 SWAP1 PUSH1 0x1 DUP1 PUSH1 0xA0 SHL SUB DUP1 DUP3 MLOAD AND DUP5 MSTORE PUSH1 0x20 DUP3 ADD MLOAD AND PUSH1 0x20 DUP5 ADD MSTORE DUP2 PUSH1 0x40 DUP3 ADD MLOAD SWAP2 PUSH6 0xFFFFFFFFFFFF DUP1 SWAP4 AND PUSH1 0x40 DUP7 ADD MSTORE ADD MLOAD AND SWAP2 ADD MSTORE JUMP JUMPDEST MLOAD AND PUSH1 0xA4 DUP9 ADD MSTORE MLOAD PUSH1 0xC4 DUP8 ADD MSTORE PUSH2 0x100 PUSH1 0xE4 DUP8 ADD MSTORE DUP6 ADD SWAP3 ADD PUSH2 0x1075 JUMP JUMPDEST SUB SWAP3 GAS CALL SWAP1 DUP2 ISZERO PUSH2 0x348 JUMPI PUSH1 0x20 SWAP4 PUSH2 0x32C SWAP3 PUSH2 0x339 JUMPI JUMPDEST POP PUSH2 0x323 DUP4 PUSH2 0x1126 JUMP JUMPDEST SWAP3 DUP4 SWAP2 CALLER PUSH2 0x12F8 JUMP JUMPDEST PUSH1 0x1 PUSH1 0x5 SSTORE PUSH1 0x40 MLOAD SWAP1 DUP2 MSTORE RETURN JUMPDEST PUSH2 0x342 SWAP1 PUSH2 0xF10 JUMP JUMPDEST DUP5 PUSH2 0x319 JUMP JUMPDEST PUSH1 0x40 MLOAD RETURNDATASIZE PUSH0 DUP3 RETURNDATACOPY RETURNDATASIZE SWAP1 REVERT JUMPDEST PUSH0 DUP1 REVERT JUMPDEST CALLVALUE PUSH2 0x353 JUMPI PUSH1 0x40 CALLDATASIZE PUSH1 0x3 NOT ADD SLT PUSH2 0x353 JUMPI PUSH2 0x370 PUSH2 0xE7C JUMP JUMPDEST PUSH2 0x378 PUSH2 0xE92 JUMP JUMPDEST SWAP1 PUSH1 0x1 DUP1 PUSH1 0xA0 SHL SUB DUP1 SWAP2 AND PUSH0 MSTORE PUSH1 0x1 PUSH1 0x20 MSTORE PUSH1 0x40 PUSH0 KECCAK256 SWAP2 AND PUSH0 MSTORE PUSH1 0x20 MSTORE PUSH1 0x20 PUSH1 0x40 PUSH0 KECCAK256 SLOAD PUSH1 0x40 MLOAD SWAP1 DUP2 MSTORE RETURN JUMPDEST CALLVALUE PUSH2 0x353 JUMPI PUSH1 0x20 CALLDATASIZE PUSH1 0x3 NOT ADD SLT PUSH2 0x353 JUMPI PUSH1 0x20 PUSH2 0x3DC PUSH2 0x3C2 PUSH2 0xE7C JUMP JUMPDEST PUSH1 0x1 PUSH1 0x1 PUSH1 0xA0 SHL SUB AND PUSH0 SWAP1 DUP2 MSTORE PUSH1 0x20 DUP2 SWAP1 MSTORE PUSH1 0x40 SWAP1 KECCAK256 SLOAD SWAP1 JUMP JUMPDEST PUSH1 0x40 MLOAD SWAP1 DUP2 MSTORE RETURN JUMPDEST CALLVALUE PUSH2 0x353 JUMPI PUSH1 0x20 CALLDATASIZE PUSH1 0x3 NOT ADD SLT PUSH2 0x353 JUMPI PUSH1 0x1 PUSH1 0x1 PUSH1 0xA0 SHL SUB PUSH2 0x405 PUSH2 0xE7C JUMP JUMPDEST AND PUSH0 MSTORE PUSH0 PUSH1 0x20 MSTORE PUSH1 0x20 PUSH2 0x3DC PUSH1 0x40 PUSH0 KECCAK256 SLOAD PUSH2 0x10D0 JUMP JUMPDEST PUSH2 0xEBC JUMP JUMPDEST CALLVALUE PUSH2 0x353 JUMPI PUSH2 0x42E CALLDATASIZE PUSH2 0xF89 JUMP JUMPDEST SWAP1 PUSH2 0x449 DUP3 PUSH1 0x1 DUP1 PUSH1 0xA0 SHL SUB AND PUSH0 MSTORE PUSH0 PUSH1 0x20 MSTORE PUSH1 0x40 PUSH0 KECCAK256 SLOAD SWAP1 JUMP JUMPDEST DUP1 DUP5 GT PUSH2 0x46A JUMPI POP DUP3 PUSH2 0x3DC SWAP2 PUSH2 0x461 PUSH1 0x20 SWAP6 PUSH2 0x10D0 JUMP JUMPDEST SWAP4 DUP5 SWAP2 CALLER PUSH2 0x1465 JUMP JUMPDEST PUSH1 0x40 MLOAD PUSH4 0x2E52AFBB PUSH1 0xE2 SHL DUP2 MSTORE PUSH1 0x1 PUSH1 0x1 PUSH1 0xA0 SHL SUB SWAP4 SWAP1 SWAP4 AND PUSH1 0x4 DUP5 ADD MSTORE PUSH1 0x24 DUP4 ADD SWAP4 SWAP1 SWAP4 MSTORE POP PUSH1 0x44 DUP2 ADD SWAP2 SWAP1 SWAP2 MSTORE PUSH1 0x64 SWAP1 REVERT JUMPDEST CALLVALUE PUSH2 0x353 JUMPI PUSH2 0x4AC CALLDATASIZE PUSH2 0xF89 JUMP JUMPDEST SWAP1 PUSH2 0x4CF PUSH2 0x4CA DUP4 PUSH1 0x1 DUP1 PUSH1 0xA0 SHL SUB AND PUSH0 MSTORE PUSH0 PUSH1 0x20 MSTORE PUSH1 0x40 PUSH0 KECCAK256 SLOAD SWAP1 JUMP JUMPDEST PUSH2 0x10D0 JUMP JUMPDEST DUP1 DUP5 GT PUSH2 0x4F0 JUMPI POP PUSH2 0x3DC SWAP1 DUP4 PUSH2 0x4E7 PUSH1 0x20 SWAP6 PUSH2 0x10FB JUMP JUMPDEST SWAP4 DUP5 SWAP3 CALLER PUSH2 0x1465 JUMP JUMPDEST PUSH1 0x40 MLOAD PUSH4 0x3FA733BB PUSH1 0xE2 SHL DUP2 MSTORE PUSH1 0x1 PUSH1 0x1 PUSH1 0xA0 SHL SUB SWAP4 SWAP1 SWAP4 AND PUSH1 0x4 DUP5 ADD MSTORE PUSH1 0x24 DUP4 ADD SWAP4 SWAP1 SWAP4 MSTORE POP PUSH1 0x44 DUP2 ADD SWAP2 SWAP1 SWAP2 MSTORE PUSH1 0x64 SWAP1 REVERT JUMPDEST CALLVALUE PUSH2 0x353 JUMPI PUSH1 0x20 CALLDATASIZE PUSH1 0x3 NOT ADD SLT PUSH2 0x353 JUMPI PUSH1 0x20 PUSH2 0x3DC PUSH1 0x4 CALLDATALOAD PUSH2 0x10A2 JUMP JUMPDEST CALLVALUE PUSH2 0x353 JUMPI PUSH1 0x40 CALLDATASIZE PUSH1 0x3 NOT ADD SLT PUSH2 0x353 JUMPI PUSH2 0x568 PUSH2 0x55E PUSH2 0xE7C JUMP JUMPDEST PUSH1 0x24 CALLDATALOAD SWAP1 CALLER PUSH2 0x121E JUMP JUMPDEST PUSH1 0x20 PUSH1 0x40 MLOAD PUSH1 0x1 DUP2 MSTORE RETURN JUMPDEST CALLVALUE PUSH2 0x353 JUMPI PUSH0 CALLDATASIZE PUSH1 0x3 NOT ADD SLT PUSH2 0x353 JUMPI PUSH1 0x40 MLOAD PUSH0 SWAP1 PUSH1 0x4 SLOAD PUSH1 0x1 DUP2 PUSH1 0x1 SHR SWAP1 PUSH1 0x1 DUP4 AND SWAP3 DUP4 ISZERO PUSH2 0x66B JUMPI JUMPDEST PUSH1 0x20 SWAP4 DUP5 DUP5 LT DUP2 EQ PUSH2 0x657 JUMPI DUP4 DUP7 MSTORE SWAP1 DUP2 ISZERO PUSH2 0x637 JUMPI POP PUSH1 0x1 EQ PUSH2 0x5DD JUMPI JUMPDEST PUSH2 0x5D9 DUP5 PUSH2 0x5CD DUP2 DUP9 SUB DUP3 PUSH2 0xF3E JUMP JUMPDEST PUSH1 0x40 MLOAD SWAP2 DUP3 SWAP2 DUP3 PUSH2 0xE34 JUMP JUMPDEST SUB SWAP1 RETURN JUMPDEST PUSH1 0x4 PUSH0 SWAP1 DUP2 MSTORE SWAP3 SWAP5 POP PUSH32 0x8A35ACFBC15FF81A39AE7D344FD709F28E8600B4AA8C65C6B64BFE7FE36BD19B JUMPDEST DUP3 DUP5 LT PUSH2 0x624 JUMPI POP POP POP DUP2 PUSH2 0x5D9 SWAP4 PUSH2 0x5CD SWAP3 DUP3 ADD ADD SWAP4 PUSH2 0x5BD JUMP JUMPDEST DUP1 SLOAD DUP6 DUP6 ADD DUP8 ADD MSTORE SWAP3 DUP6 ADD SWAP3 DUP2 ADD PUSH2 0x608 JUMP JUMPDEST PUSH1 0xFF NOT AND DUP6 DUP6 ADD MSTORE POP POP ISZERO ISZERO PUSH1 0x5 SHL DUP3 ADD ADD SWAP2 POP PUSH2 0x5CD DUP2 PUSH2 0x5D9 PUSH2 0x5BD JUMP JUMPDEST PUSH4 0x4E487B71 PUSH1 0xE0 SHL PUSH0 MSTORE PUSH1 0x22 PUSH1 0x4 MSTORE PUSH1 0x24 PUSH0 REVERT JUMPDEST SWAP2 PUSH1 0x7F AND SWAP2 PUSH2 0x59E JUMP JUMPDEST CALLVALUE PUSH2 0x353 JUMPI PUSH1 0x40 CALLDATASIZE PUSH1 0x3 NOT ADD SLT PUSH2 0x353 JUMPI PUSH1 0x20 PUSH1 0x4 CALLDATALOAD PUSH2 0x3DC PUSH2 0x696 PUSH2 0xE92 JUMP JUMPDEST SWAP2 PUSH2 0x6A0 DUP2 PUSH2 0x10A2 JUMP JUMPDEST DUP1 SWAP4 CALLER PUSH2 0x12F8 JUMP JUMPDEST CALLVALUE PUSH2 0x353 JUMPI PUSH1 0x60 CALLDATASIZE PUSH1 0x3 NOT ADD SLT PUSH2 0x353 JUMPI PUSH1 0x1 PUSH1 0x1 PUSH1 0x40 SHL SUB PUSH1 0x4 CALLDATALOAD GT PUSH2 0x353 JUMPI CALLDATASIZE PUSH1 0x23 PUSH1 0x4 CALLDATALOAD ADD SLT ISZERO PUSH2 0x353 JUMPI PUSH1 0x4 CALLDATALOAD PUSH1 0x4 ADD CALLDATALOAD PUSH2 0x6E6 DUP2 PUSH2 0xF5F JUMP JUMPDEST SWAP1 PUSH2 0x6F4 PUSH1 0x40 MLOAD SWAP3 DUP4 PUSH2 0xF3E JUMP JUMPDEST DUP1 DUP3 MSTORE PUSH1 0x20 DUP3 ADD SWAP1 CALLDATASIZE PUSH1 0x24 DUP3 PUSH1 0x5 SHL PUSH1 0x4 CALLDATALOAD ADD ADD GT PUSH2 0x353 JUMPI PUSH1 0x24 PUSH1 0x4 CALLDATALOAD ADD SWAP2 JUMPDEST PUSH1 0x24 DUP3 PUSH1 0x5 SHL PUSH1 0x4 CALLDATALOAD ADD ADD DUP4 LT PUSH2 0x9DA JUMPI DUP4 PUSH1 0x1 PUSH1 0x1 PUSH1 0x40 SHL SUB PUSH1 0x24 CALLDATALOAD GT PUSH2 0x353 JUMPI CALLDATASIZE PUSH1 0x23 PUSH1 0x24 CALLDATALOAD ADD SLT ISZERO PUSH2 0x353 JUMPI PUSH1 0x1 PUSH1 0x1 PUSH1 0x40 SHL SUB PUSH1 0x24 CALLDATALOAD PUSH1 0x4 ADD CALLDATALOAD GT PUSH2 0x353 JUMPI CALLDATASIZE PUSH1 0x24 DUP1 CALLDATALOAD PUSH1 0x4 ADD CALLDATALOAD PUSH1 0x5 SHL DUP2 CALLDATALOAD ADD ADD GT PUSH2 0x353 JUMPI PUSH1 0x44 CALLDATALOAD PUSH1 0x1 PUSH1 0x1 PUSH1 0xA0 SHL SUB DUP2 AND SWAP1 SUB PUSH2 0x353 JUMPI PUSH2 0x788 PUSH2 0x140F JUMP JUMPDEST PUSH0 SWAP1 PUSH0 SWAP1 JUMPDEST DUP1 MLOAD DUP3 LT ISZERO PUSH2 0x9C0 JUMPI PUSH2 0x7A0 DUP3 DUP3 PUSH2 0x1061 JUMP JUMPDEST MLOAD PUSH1 0x24 CALLDATALOAD PUSH1 0x4 ADD CALLDATALOAD DUP4 LT ISZERO PUSH2 0x9AC JUMPI PUSH1 0x42 NOT PUSH1 0x24 CALLDATALOAD CALLDATASIZE SUB ADD PUSH1 0x24 DUP5 PUSH1 0x5 SHL DUP2 CALLDATALOAD ADD ADD CALLDATALOAD SLT ISZERO PUSH2 0x353 JUMPI PUSH1 0x24 DUP4 PUSH1 0x5 SHL DUP2 CALLDATALOAD ADD ADD CALLDATALOAD PUSH1 0x24 CALLDATALOAD ADD SWAP1 PUSH1 0x1 PUSH1 0x1 PUSH1 0x40 SHL SUB PUSH1 0x24 DUP4 ADD CALLDATALOAD GT PUSH2 0x353 JUMPI PUSH1 0x24 DUP3 ADD CALLDATALOAD CALLDATASIZE SUB PUSH1 0x44 DUP4 ADD SGT PUSH2 0x353 JUMPI PUSH32 0x0 PUSH1 0x1 PUSH1 0x1 PUSH1 0xA0 SHL SUB AND EXTCODESIZE ISZERO PUSH2 0x353 JUMPI PUSH1 0x40 MLOAD SWAP2 PUSH4 0x2A2D80D1 PUSH1 0xE0 SHL DUP4 MSTORE CALLER PUSH1 0x4 DUP5 ADD MSTORE PUSH1 0x60 PUSH1 0x24 DUP5 ADD MSTORE PUSH1 0xC4 DUP4 ADD SWAP2 DUP1 MLOAD SWAP3 PUSH1 0x60 PUSH1 0x64 DUP7 ADD MSTORE DUP4 MLOAD DUP1 SWAP2 MSTORE PUSH1 0x20 PUSH1 0xE4 DUP7 ADD SWAP5 ADD SWAP1 PUSH0 JUMPDEST DUP2 DUP2 LT PUSH2 0x952 JUMPI POP POP POP PUSH2 0x8AD PUSH0 SWAP4 DUP6 SWAP4 PUSH1 0x40 DUP6 SWAP5 PUSH1 0x1 DUP1 PUSH1 0xA0 SHL SUB PUSH1 0x20 DUP3 ADD MLOAD AND PUSH1 0x84 DUP8 ADD MSTORE ADD MLOAD PUSH1 0xA4 DUP6 ADD MSTORE PUSH1 0x3 NOT DUP5 DUP4 SUB ADD PUSH1 0x44 DUP6 ADD MSTORE PUSH1 0x44 PUSH1 0x24 DUP3 ADD CALLDATALOAD SWAP2 ADD PUSH2 0x1075 JUMP JUMPDEST SUB DUP2 DUP4 PUSH32 0x0 PUSH1 0x1 PUSH1 0x1 PUSH1 0xA0 SHL SUB AND GAS CALL DUP1 ISZERO PUSH2 0x348 JUMPI PUSH2 0x943 JUMPI JUMPDEST POP PUSH0 JUMPDEST PUSH2 0x8F4 DUP4 DUP4 PUSH2 0x1061 JUMP JUMPDEST MLOAD MLOAD MLOAD DUP2 LT ISZERO PUSH2 0x938 JUMPI PUSH1 0x1 SWAP4 DUP5 SWAP1 PUSH2 0x930 SWAP1 PUSH1 0x1 PUSH1 0x1 PUSH1 0xA0 SHL SUB PUSH1 0x20 PUSH2 0x926 DUP7 PUSH2 0x91F DUP11 DUP11 PUSH2 0x1061 JUMP JUMPDEST MLOAD MLOAD PUSH2 0x1061 JUMP JUMPDEST MLOAD ADD MLOAD AND SWAP1 PUSH2 0x1095 JUMP JUMPDEST SWAP5 POP ADD PUSH2 0x8EA JUMP JUMPDEST POP SWAP1 PUSH1 0x1 ADD SWAP1 PUSH2 0x78D JUMP JUMPDEST PUSH2 0x94C SWAP1 PUSH2 0xF10 JUMP JUMPDEST DUP4 PUSH2 0x8E7 JUMP JUMPDEST SWAP1 SWAP2 SWAP5 PUSH1 0x20 PUSH1 0x80 DUP3 PUSH2 0x99E PUSH1 0x1 SWAP5 DUP11 SWAP15 SWAP12 SWAP15 MLOAD PUSH1 0x60 SWAP1 PUSH1 0x1 DUP1 PUSH1 0xA0 SHL SUB DUP1 DUP3 MLOAD AND DUP5 MSTORE PUSH1 0x20 DUP3 ADD MLOAD AND PUSH1 0x20 DUP5 ADD MSTORE DUP2 PUSH1 0x40 DUP3 ADD MLOAD SWAP2 PUSH6 0xFFFFFFFFFFFF DUP1 SWAP4 AND PUSH1 0x40 DUP7 ADD MSTORE ADD MLOAD AND SWAP2 ADD MSTORE JUMP JUMPDEST SWAP9 SWAP12 SWAP9 ADD SWAP7 ADD SWAP3 SWAP2 ADD PUSH2 0x865 JUMP JUMPDEST PUSH4 0x4E487B71 PUSH1 0xE0 SHL PUSH0 MSTORE PUSH1 0x32 PUSH1 0x4 MSTORE PUSH1 0x24 PUSH0 REVERT JUMPDEST PUSH1 0x20 DUP4 PUSH2 0x32C PUSH2 0x9CF DUP3 PUSH2 0x1126 JUMP JUMPDEST DUP1 SWAP3 PUSH1 0x44 CALLDATALOAD CALLER PUSH2 0x12F8 JUMP JUMPDEST DUP3 CALLDATALOAD PUSH1 0x1 PUSH1 0x1 PUSH1 0x40 SHL SUB DUP2 GT PUSH2 0x353 JUMPI PUSH1 0x60 PUSH1 0x4 CALLDATALOAD DUP3 ADD CALLDATASIZE SUB PUSH1 0x23 NOT ADD SLT PUSH2 0x353 JUMPI PUSH1 0x40 MLOAD SWAP1 PUSH2 0xA09 DUP3 PUSH2 0xEE1 JUMP JUMPDEST PUSH1 0x24 DUP2 PUSH1 0x4 CALLDATALOAD ADD ADD CALLDATALOAD PUSH1 0x1 PUSH1 0x1 PUSH1 0x40 SHL SUB DUP2 GT PUSH2 0x353 JUMPI DUP2 PUSH1 0x4 CALLDATALOAD ADD ADD CALLDATASIZE PUSH1 0x43 DUP3 ADD SLT ISZERO PUSH2 0x353 JUMPI PUSH1 0x24 DUP2 ADD CALLDATALOAD SWAP1 PUSH2 0xA40 DUP3 PUSH2 0xF5F JUMP JUMPDEST SWAP2 PUSH2 0xA4E PUSH1 0x40 MLOAD SWAP4 DUP5 PUSH2 0xF3E JUMP JUMPDEST DUP1 DUP4 MSTORE PUSH1 0x20 DUP4 ADD CALLDATASIZE PUSH1 0x44 DUP4 PUSH1 0x7 SHL DUP6 ADD ADD GT PUSH2 0x353 JUMPI PUSH1 0x44 DUP4 ADD SWAP1 JUMPDEST PUSH1 0x44 DUP4 PUSH1 0x7 SHL DUP6 ADD ADD DUP3 LT PUSH2 0xAB7 JUMPI POP POP POP POP SWAP3 DUP3 PUSH1 0x64 PUSH1 0x20 SWAP5 SWAP4 PUSH1 0x24 SWAP7 DUP7 SWAP6 MSTORE PUSH2 0xA9B PUSH1 0x44 DUP3 PUSH1 0x4 CALLDATALOAD ADD ADD PUSH2 0xEA8 JUMP JUMPDEST DUP6 DUP5 ADD MSTORE PUSH1 0x4 CALLDATALOAD ADD ADD CALLDATALOAD PUSH1 0x40 DUP3 ADD MSTORE DUP2 MSTORE ADD SWAP4 ADD SWAP3 SWAP1 POP PUSH2 0x715 JUMP JUMPDEST PUSH1 0x80 DUP3 CALLDATASIZE SUB SLT PUSH2 0x353 JUMPI PUSH1 0x40 MLOAD SWAP1 PUSH2 0xACE DUP3 PUSH2 0xF23 JUMP JUMPDEST PUSH2 0xAD7 DUP4 PUSH2 0xEA8 JUMP JUMPDEST DUP3 MSTORE PUSH1 0x20 DUP4 ADD CALLDATALOAD SWAP1 PUSH1 0x1 PUSH1 0x1 PUSH1 0xA0 SHL SUB DUP3 AND DUP3 SUB PUSH2 0x353 JUMPI DUP3 PUSH1 0x20 SWAP3 DUP4 PUSH1 0x80 SWAP6 ADD MSTORE PUSH2 0xB05 PUSH1 0x40 DUP7 ADD PUSH2 0xF76 JUMP JUMPDEST PUSH1 0x40 DUP3 ADD MSTORE PUSH2 0xB16 PUSH1 0x60 DUP7 ADD PUSH2 0xF76 JUMP JUMPDEST PUSH1 0x60 DUP3 ADD MSTORE DUP2 MSTORE ADD SWAP2 ADD SWAP1 PUSH2 0xA6A JUMP JUMPDEST CALLVALUE PUSH2 0x353 JUMPI PUSH1 0x40 CALLDATASIZE PUSH1 0x3 NOT ADD SLT PUSH2 0x353 JUMPI PUSH1 0x20 PUSH1 0x4 CALLDATALOAD PUSH2 0x3DC PUSH2 0xB47 PUSH2 0xE92 JUMP JUMPDEST PUSH2 0x323 DUP4 PUSH2 0x1126 JUMP JUMPDEST PUSH2 0xE5E JUMP JUMPDEST CALLVALUE PUSH2 0x353 JUMPI PUSH0 CALLDATASIZE PUSH1 0x3 NOT ADD SLT PUSH2 0x353 JUMPI PUSH1 0x40 MLOAD PUSH32 0x0 PUSH1 0x1 PUSH1 0x1 PUSH1 0xA0 SHL SUB AND DUP2 MSTORE PUSH1 0x20 SWAP1 RETURN JUMPDEST CALLVALUE PUSH2 0x353 JUMPI PUSH0 CALLDATASIZE PUSH1 0x3 NOT ADD SLT PUSH2 0x353 JUMPI PUSH1 0x40 MLOAD PUSH32 0x0 PUSH1 0x1 PUSH1 0x1 PUSH1 0xA0 SHL SUB AND DUP2 MSTORE PUSH1 0x20 SWAP1 RETURN JUMPDEST CALLVALUE PUSH2 0x353 JUMPI PUSH0 CALLDATASIZE PUSH1 0x3 NOT ADD SLT PUSH2 0x353 JUMPI PUSH1 0xFF PUSH32 0x0 AND PUSH1 0xFF DUP2 GT PUSH2 0xC24 JUMPI PUSH1 0x20 SWAP1 PUSH1 0x40 MLOAD SWAP1 DUP2 MSTORE RETURN JUMPDEST PUSH4 0x4E487B71 PUSH1 0xE0 SHL PUSH0 MSTORE PUSH1 0x11 PUSH1 0x4 MSTORE PUSH1 0x24 PUSH0 REVERT JUMPDEST CALLVALUE PUSH2 0x353 JUMPI PUSH1 0x60 CALLDATASIZE PUSH1 0x3 NOT ADD SLT PUSH2 0x353 JUMPI PUSH2 0x568 PUSH2 0xC54 PUSH2 0xE7C JUMP JUMPDEST PUSH2 0xC5C PUSH2 0xE92 JUMP JUMPDEST PUSH1 0x44 CALLDATALOAD SWAP2 PUSH2 0xC6B DUP4 CALLER DUP4 PUSH2 0x1151 JUMP JUMPDEST PUSH2 0x121E JUMP JUMPDEST CALLVALUE PUSH2 0x353 JUMPI PUSH0 CALLDATASIZE PUSH1 0x3 NOT ADD SLT PUSH2 0x353 JUMPI PUSH1 0x20 PUSH1 0x2 SLOAD PUSH1 0x40 MLOAD SWAP1 DUP2 MSTORE RETURN JUMPDEST CALLVALUE PUSH2 0x353 JUMPI PUSH1 0x20 CALLDATASIZE PUSH1 0x3 NOT ADD SLT PUSH2 0x353 JUMPI PUSH1 0x20 PUSH2 0x3DC PUSH1 0x4 CALLDATALOAD PUSH2 0x10FB JUMP JUMPDEST CALLVALUE PUSH2 0x353 JUMPI PUSH1 0x40 CALLDATASIZE PUSH1 0x3 NOT ADD SLT PUSH2 0x353 JUMPI PUSH2 0xCC4 PUSH2 0xE7C JUMP JUMPDEST PUSH1 0x24 CALLDATALOAD SWAP1 CALLER ISZERO PUSH2 0xD45 JUMPI PUSH1 0x1 PUSH1 0x1 PUSH1 0xA0 SHL SUB AND SWAP1 DUP2 ISZERO PUSH2 0xD2D JUMPI CALLER PUSH0 MSTORE PUSH1 0x1 PUSH1 0x20 MSTORE PUSH1 0x40 PUSH0 KECCAK256 DUP3 PUSH0 MSTORE PUSH1 0x20 MSTORE DUP1 PUSH1 0x40 PUSH0 KECCAK256 SSTORE PUSH1 0x40 MLOAD SWAP1 DUP2 MSTORE PUSH32 0x8C5BE1E5EBEC7D5BD14F71427D1E84F3DD0314C0F7B2291E5B200AC8C7C3B925 PUSH1 0x20 CALLER SWAP3 LOG3 PUSH1 0x20 PUSH1 0x40 MLOAD PUSH1 0x1 DUP2 MSTORE RETURN JUMPDEST PUSH1 0x40 MLOAD PUSH4 0x4A1406B1 PUSH1 0xE1 SHL DUP2 MSTORE PUSH0 PUSH1 0x4 DUP3 ADD MSTORE PUSH1 0x24 SWAP1 REVERT JUMPDEST PUSH1 0x40 MLOAD PUSH4 0xE602DF05 PUSH1 0xE0 SHL DUP2 MSTORE PUSH0 PUSH1 0x4 DUP3 ADD MSTORE PUSH1 0x24 SWAP1 REVERT JUMPDEST CALLVALUE PUSH2 0x353 JUMPI PUSH0 CALLDATASIZE PUSH1 0x3 NOT ADD SLT PUSH2 0x353 JUMPI PUSH1 0x40 MLOAD PUSH0 SWAP1 PUSH1 0x3 SLOAD PUSH1 0x1 DUP2 PUSH1 0x1 SHR SWAP1 PUSH1 0x1 DUP4 AND SWAP3 DUP4 ISZERO PUSH2 0xE10 JUMPI JUMPDEST PUSH1 0x20 SWAP4 DUP5 DUP5 LT DUP2 EQ PUSH2 0x657 JUMPI DUP4 DUP7 MSTORE SWAP1 DUP2 ISZERO PUSH2 0x637 JUMPI POP PUSH1 0x1 EQ PUSH2 0xDB6 JUMPI PUSH2 0x5D9 DUP5 PUSH2 0x5CD DUP2 DUP9 SUB DUP3 PUSH2 0xF3E JUMP JUMPDEST PUSH1 0x3 PUSH0 SWAP1 DUP2 MSTORE SWAP3 SWAP5 POP PUSH32 0xC2575A0E9E593C00F959F8C92F12DB2869C3395A3B0502D05E2516446F71F85B JUMPDEST DUP3 DUP5 LT PUSH2 0xDFD JUMPI POP POP POP DUP2 PUSH2 0x5D9 SWAP4 PUSH2 0x5CD SWAP3 DUP3 ADD ADD SWAP4 PUSH2 0x5BD JUMP JUMPDEST DUP1 SLOAD DUP6 DUP6 ADD DUP8 ADD MSTORE SWAP3 DUP6 ADD SWAP3 DUP2 ADD PUSH2 0xDE1 JUMP JUMPDEST SWAP2 PUSH1 0x7F AND SWAP2 PUSH2 0xD88 JUMP JUMPDEST CALLVALUE PUSH2 0x353 JUMPI PUSH0 CALLDATASIZE PUSH1 0x3 NOT ADD SLT PUSH2 0x353 JUMPI PUSH1 0x20 PUSH2 0x3DC PUSH2 0xFDC JUMP JUMPDEST PUSH1 0x20 PUSH1 0x40 SWAP3 DUP2 DUP4 MSTORE DUP1 MLOAD SWAP2 DUP3 SWAP2 DUP3 DUP3 DUP7 ADD MSTORE ADD DUP5 DUP5 ADD MCOPY PUSH0 DUP3 DUP3 ADD DUP5 ADD MSTORE PUSH1 0x1F ADD PUSH1 0x1F NOT AND ADD ADD SWAP1 JUMP JUMPDEST CALLVALUE PUSH2 0x353 JUMPI PUSH1 0x20 CALLDATASIZE PUSH1 0x3 NOT ADD SLT PUSH2 0x353 JUMPI PUSH1 0x20 PUSH2 0x3DC PUSH1 0x4 CALLDATALOAD PUSH2 0x10D0 JUMP JUMPDEST PUSH1 0x4 CALLDATALOAD SWAP1 PUSH1 0x1 PUSH1 0x1 PUSH1 0xA0 SHL SUB DUP3 AND DUP3 SUB PUSH2 0x353 JUMPI JUMP JUMPDEST PUSH1 0x24 CALLDATALOAD SWAP1 PUSH1 0x1 PUSH1 0x1 PUSH1 0xA0 SHL SUB DUP3 AND DUP3 SUB PUSH2 0x353 JUMPI JUMP JUMPDEST CALLDATALOAD SWAP1 PUSH1 0x1 PUSH1 0x1 PUSH1 0xA0 SHL SUB DUP3 AND DUP3 SUB PUSH2 0x353 JUMPI JUMP JUMPDEST CALLVALUE PUSH2 0x353 JUMPI PUSH1 0x20 CALLDATASIZE PUSH1 0x3 NOT ADD SLT PUSH2 0x353 JUMPI PUSH2 0xED5 PUSH2 0xE7C JUMP JUMPDEST POP PUSH1 0x20 PUSH1 0x40 MLOAD PUSH0 NOT DUP2 MSTORE RETURN JUMPDEST PUSH1 0x60 DUP2 ADD SWAP1 DUP2 LT PUSH1 0x1 PUSH1 0x1 PUSH1 0x40 SHL SUB DUP3 GT OR PUSH2 0xEFC JUMPI PUSH1 0x40 MSTORE JUMP JUMPDEST PUSH4 0x4E487B71 PUSH1 0xE0 SHL PUSH0 MSTORE PUSH1 0x41 PUSH1 0x4 MSTORE PUSH1 0x24 PUSH0 REVERT JUMPDEST PUSH1 0x1 PUSH1 0x1 PUSH1 0x40 SHL SUB DUP2 GT PUSH2 0xEFC JUMPI PUSH1 0x40 MSTORE JUMP JUMPDEST PUSH1 0x80 DUP2 ADD SWAP1 DUP2 LT PUSH1 0x1 PUSH1 0x1 PUSH1 0x40 SHL SUB DUP3 GT OR PUSH2 0xEFC JUMPI PUSH1 0x40 MSTORE JUMP JUMPDEST SWAP1 PUSH1 0x1F DUP1 NOT SWAP2 ADD AND DUP2 ADD SWAP1 DUP2 LT PUSH1 0x1 PUSH1 0x1 PUSH1 0x40 SHL SUB DUP3 GT OR PUSH2 0xEFC JUMPI PUSH1 0x40 MSTORE JUMP JUMPDEST PUSH1 0x1 PUSH1 0x1 PUSH1 0x40 SHL SUB DUP2 GT PUSH2 0xEFC JUMPI PUSH1 0x5 SHL PUSH1 0x20 ADD SWAP1 JUMP JUMPDEST CALLDATALOAD SWAP1 PUSH6 0xFFFFFFFFFFFF DUP3 AND DUP3 SUB PUSH2 0x353 JUMPI JUMP JUMPDEST PUSH1 0x60 SWAP1 PUSH1 0x3 NOT ADD SLT PUSH2 0x353 JUMPI PUSH1 0x4 CALLDATALOAD SWAP1 PUSH1 0x1 PUSH1 0x1 PUSH1 0xA0 SHL SUB SWAP1 PUSH1 0x24 CALLDATALOAD DUP3 DUP2 AND DUP2 SUB PUSH2 0x353 JUMPI SWAP2 PUSH1 0x44 CALLDATALOAD SWAP1 DUP2 AND DUP2 SUB PUSH2 0x353 JUMPI SWAP1 JUMP JUMPDEST CALLVALUE PUSH2 0x353 JUMPI PUSH1 0x20 CALLDATASIZE PUSH1 0x3 NOT ADD SLT PUSH2 0x353 JUMPI PUSH1 0x20 PUSH2 0x3DC PUSH1 0x4 CALLDATALOAD PUSH2 0x1126 JUMP JUMPDEST PUSH1 0x40 MLOAD PUSH4 0x70A08231 PUSH1 0xE0 SHL DUP2 MSTORE ADDRESS PUSH1 0x4 DUP3 ADD MSTORE PUSH1 0x20 DUP2 PUSH1 0x24 DUP2 PUSH32 0x0 PUSH1 0x1 PUSH1 0x1 PUSH1 0xA0 SHL SUB AND GAS STATICCALL SWAP1 DUP2 ISZERO PUSH2 0x348 JUMPI PUSH0 SWAP2 PUSH2 0x1032 JUMPI POP SWAP1 JUMP JUMPDEST SWAP1 POP PUSH1 0x20 DUP2 RETURNDATASIZE PUSH1 0x20 GT PUSH2 0x1059 JUMPI JUMPDEST DUP2 PUSH2 0x104D PUSH1 0x20 SWAP4 DUP4 PUSH2 0xF3E JUMP JUMPDEST DUP2 ADD SUB SLT PUSH2 0x353 JUMPI MLOAD SWAP1 JUMP JUMPDEST RETURNDATASIZE SWAP2 POP PUSH2 0x1040 JUMP JUMPDEST DUP1 MLOAD DUP3 LT ISZERO PUSH2 0x9AC JUMPI PUSH1 0x20 SWAP2 PUSH1 0x5 SHL ADD ADD SWAP1 JUMP JUMPDEST SWAP1 DUP1 PUSH1 0x20 SWAP4 SWAP3 DUP2 DUP5 MSTORE DUP5 DUP5 ADD CALLDATACOPY PUSH0 DUP3 DUP3 ADD DUP5 ADD MSTORE PUSH1 0x1F ADD PUSH1 0x1F NOT AND ADD ADD SWAP1 JUMP JUMPDEST SWAP2 SWAP1 DUP3 ADD DUP1 SWAP3 GT PUSH2 0xC24 JUMPI JUMP JUMPDEST PUSH2 0x10AA PUSH2 0xFDC JUMP JUMPDEST PUSH1 0x1 DUP2 ADD DUP1 SWAP2 GT PUSH2 0xC24 JUMPI PUSH1 0x2 SLOAD SWAP1 PUSH1 0x1 DUP3 ADD DUP1 SWAP3 GT PUSH2 0xC24 JUMPI PUSH2 0x10CD SWAP3 PUSH2 0x15A9 JUMP JUMPDEST SWAP1 JUMP JUMPDEST PUSH2 0x10D8 PUSH2 0xFDC JUMP JUMPDEST PUSH1 0x1 DUP2 ADD DUP1 SWAP2 GT PUSH2 0xC24 JUMPI PUSH1 0x2 SLOAD SWAP1 PUSH1 0x1 DUP3 ADD DUP1 SWAP3 GT PUSH2 0xC24 JUMPI PUSH2 0x10CD SWAP3 PUSH2 0x15E7 JUMP JUMPDEST PUSH1 0x2 SLOAD PUSH1 0x1 DUP2 ADD DUP1 SWAP2 GT PUSH2 0xC24 JUMPI PUSH2 0x1111 PUSH2 0xFDC JUMP JUMPDEST SWAP1 PUSH1 0x1 DUP3 ADD DUP1 SWAP3 GT PUSH2 0xC24 JUMPI PUSH2 0x10CD SWAP3 PUSH2 0x15A9 JUMP JUMPDEST PUSH1 0x2 SLOAD PUSH1 0x1 DUP2 ADD DUP1 SWAP2 GT PUSH2 0xC24 JUMPI PUSH2 0x113C PUSH2 0xFDC JUMP JUMPDEST SWAP1 PUSH1 0x1 DUP3 ADD DUP1 SWAP3 GT PUSH2 0xC24 JUMPI PUSH2 0x10CD SWAP3 PUSH2 0x15E7 JUMP JUMPDEST SWAP2 SWAP1 PUSH1 0x1 DUP1 PUSH1 0xA0 SHL SUB DUP1 SWAP4 AND SWAP3 DUP4 PUSH0 MSTORE PUSH1 0x1 PUSH1 0x20 MSTORE PUSH1 0x40 SWAP4 DUP5 PUSH0 KECCAK256 SWAP2 DUP4 AND SWAP2 DUP3 PUSH0 MSTORE PUSH1 0x20 MSTORE DUP5 PUSH0 KECCAK256 SLOAD SWAP3 PUSH0 NOT DUP5 SUB PUSH2 0x118C JUMPI JUMPDEST POP POP POP POP POP POP JUMP JUMPDEST DUP5 DUP5 LT PUSH2 0x11EE JUMPI POP DUP1 ISZERO PUSH2 0x11D7 JUMPI DUP2 ISZERO PUSH2 0x11C0 JUMPI PUSH0 MSTORE PUSH1 0x1 PUSH1 0x20 MSTORE DUP4 PUSH0 KECCAK256 SWAP1 PUSH0 MSTORE PUSH1 0x20 MSTORE SUB SWAP1 PUSH0 KECCAK256 SSTORE PUSH0 DUP1 DUP1 DUP1 DUP1 DUP1 PUSH2 0x1184 JUMP JUMPDEST DUP5 MLOAD PUSH4 0x4A1406B1 PUSH1 0xE1 SHL DUP2 MSTORE PUSH0 PUSH1 0x4 DUP3 ADD MSTORE PUSH1 0x24 SWAP1 REVERT JUMPDEST DUP5 MLOAD PUSH4 0xE602DF05 PUSH1 0xE0 SHL DUP2 MSTORE PUSH0 PUSH1 0x4 DUP3 ADD MSTORE PUSH1 0x24 SWAP1 REVERT JUMPDEST DUP6 MLOAD PUSH4 0x7DC7A0D9 PUSH1 0xE1 SHL DUP2 MSTORE PUSH1 0x1 PUSH1 0x1 PUSH1 0xA0 SHL SUB SWAP2 SWAP1 SWAP2 AND PUSH1 0x4 DUP3 ADD MSTORE PUSH1 0x24 DUP2 ADD DUP5 SWAP1 MSTORE PUSH1 0x44 DUP2 ADD DUP6 SWAP1 MSTORE PUSH1 0x64 SWAP1 REVERT JUMPDEST SWAP2 PUSH1 0x1 PUSH1 0x1 PUSH1 0xA0 SHL SUB DUP1 DUP5 AND SWAP3 DUP4 ISZERO PUSH2 0x12E0 JUMPI AND SWAP3 DUP4 ISZERO PUSH2 0x12C8 JUMPI DUP3 PUSH0 MSTORE PUSH0 PUSH1 0x20 MSTORE PUSH1 0x40 PUSH0 KECCAK256 SLOAD SWAP1 DUP3 DUP3 LT PUSH2 0x1296 JUMPI POP DUP2 PUSH32 0xDDF252AD1BE2C89B69C2B068FC378DAA952BA7F163C4A11628F55A4DF523B3EF SWAP3 PUSH1 0x20 SWAP3 DUP6 PUSH0 MSTORE PUSH0 DUP5 MSTORE SUB PUSH1 0x40 PUSH0 KECCAK256 SSTORE DUP5 PUSH0 MSTORE PUSH1 0x40 PUSH0 KECCAK256 DUP2 DUP2 SLOAD ADD SWAP1 SSTORE PUSH1 0x40 MLOAD SWAP1 DUP2 MSTORE LOG3 JUMP JUMPDEST PUSH1 0x40 MLOAD PUSH4 0x391434E3 PUSH1 0xE2 SHL DUP2 MSTORE PUSH1 0x1 PUSH1 0x1 PUSH1 0xA0 SHL SUB SWAP2 SWAP1 SWAP2 AND PUSH1 0x4 DUP3 ADD MSTORE PUSH1 0x24 DUP2 ADD SWAP2 SWAP1 SWAP2 MSTORE PUSH1 0x44 DUP2 ADD DUP3 SWAP1 MSTORE PUSH1 0x64 SWAP1 REVERT JUMPDEST PUSH1 0x40 MLOAD PUSH4 0xEC442F05 PUSH1 0xE0 SHL DUP2 MSTORE PUSH0 PUSH1 0x4 DUP3 ADD MSTORE PUSH1 0x24 SWAP1 REVERT JUMPDEST PUSH1 0x40 MLOAD PUSH4 0x4B637E8F PUSH1 0xE1 SHL DUP2 MSTORE PUSH0 PUSH1 0x4 DUP3 ADD MSTORE PUSH1 0x24 SWAP1 REVERT JUMPDEST PUSH1 0x40 DUP1 MLOAD PUSH4 0x23B872DD PUSH1 0xE0 SHL PUSH1 0x20 DUP3 ADD MSTORE PUSH1 0x1 PUSH1 0x1 PUSH1 0xA0 SHL SUB SWAP3 DUP4 AND PUSH1 0x24 DUP3 ADD DUP2 SWAP1 MSTORE ADDRESS PUSH1 0x44 DUP4 ADD MSTORE PUSH1 0x64 DUP1 DUP4 ADD DUP8 SWAP1 MSTORE DUP3 MSTORE SWAP5 SWAP2 SWAP4 SWAP2 SWAP3 SWAP2 SWAP1 PUSH1 0xA0 DUP2 ADD SWAP1 PUSH1 0x1 PUSH1 0x1 PUSH1 0x40 SHL SUB DUP3 GT DUP2 DUP4 LT OR PUSH2 0xEFC JUMPI PUSH2 0x1375 SWAP2 DUP7 MSTORE PUSH32 0x0 PUSH2 0x167A JUMP JUMPDEST AND SWAP4 DUP5 ISZERO PUSH2 0x13F8 JUMPI SWAP1 DUP2 PUSH2 0x13AD PUSH32 0xDCBC1C05240F31FF3AD067EF1EE35CE4997762752E3A095284754544F4C709D7 SWAP5 SWAP4 PUSH1 0x2 SLOAD PUSH2 0x1095 JUMP JUMPDEST PUSH1 0x2 SSTORE DUP6 PUSH0 MSTORE PUSH0 PUSH1 0x20 MSTORE DUP3 PUSH0 KECCAK256 DUP2 DUP2 SLOAD ADD SWAP1 SSTORE DUP6 PUSH0 PUSH32 0xDDF252AD1BE2C89B69C2B068FC378DAA952BA7F163C4A11628F55A4DF523B3EF PUSH1 0x20 DUP7 MLOAD DUP6 DUP2 MSTORE LOG3 DUP3 MLOAD SWAP2 DUP3 MSTORE PUSH1 0x20 DUP3 ADD MSTORE LOG3 JUMP JUMPDEST DUP3 MLOAD PUSH4 0xEC442F05 PUSH1 0xE0 SHL DUP2 MSTORE PUSH0 PUSH1 0x4 DUP3 ADD MSTORE PUSH1 0x24 SWAP1 REVERT JUMPDEST PUSH1 0x2 PUSH1 0x5 SLOAD EQ PUSH2 0x1420 JUMPI PUSH1 0x2 PUSH1 0x5 SSTORE JUMP JUMPDEST PUSH1 0x40 MLOAD PUSH3 0x461BCD PUSH1 0xE5 SHL DUP2 MSTORE PUSH1 0x20 PUSH1 0x4 DUP3 ADD MSTORE PUSH1 0x1F PUSH1 0x24 DUP3 ADD MSTORE PUSH32 0x5265656E7472616E637947756172643A207265656E7472616E742063616C6C00 PUSH1 0x44 DUP3 ADD MSTORE PUSH1 0x64 SWAP1 REVERT JUMPDEST SWAP2 SWAP1 SWAP3 PUSH1 0x1 DUP1 PUSH1 0xA0 SHL SUB SWAP5 DUP6 DUP4 AND SWAP6 DUP1 DUP6 AND SWAP5 DUP3 DUP9 DUP8 SUB PUSH2 0x1598 JUMPI JUMPDEST POP POP DUP7 ISZERO PUSH2 0x12E0 JUMPI DUP7 PUSH0 MSTORE PUSH0 PUSH1 0x20 MSTORE PUSH1 0x40 SWAP4 DUP5 PUSH0 KECCAK256 SLOAD SWAP1 DUP4 DUP3 LT PUSH2 0x1567 JUMPI POP DUP3 SWAP2 PUSH32 0xFBDE797D201C681B91056529119E0B02407C7BB96A4A2C75C01FC9667232C8DB SWAP6 SWAP5 SWAP4 PUSH2 0x155A SWAP3 DUP11 PUSH0 MSTORE PUSH0 PUSH1 0x20 MSTORE SUB DUP6 PUSH0 KECCAK256 SSTORE DUP3 PUSH1 0x2 SLOAD SUB PUSH1 0x2 SSTORE PUSH0 DUP10 PUSH32 0xDDF252AD1BE2C89B69C2B068FC378DAA952BA7F163C4A11628F55A4DF523B3EF PUSH1 0x20 DUP9 MLOAD DUP8 DUP2 MSTORE LOG3 DUP5 MLOAD SWAP8 PUSH4 0xA9059CBB PUSH1 0xE0 SHL PUSH1 0x20 DUP11 ADD MSTORE AND SWAP7 DUP8 PUSH1 0x24 DUP3 ADD MSTORE DUP4 PUSH1 0x44 DUP3 ADD MSTORE PUSH1 0x44 DUP2 MSTORE PUSH2 0x1534 DUP2 PUSH2 0xF23 JUMP JUMPDEST PUSH32 0x0 PUSH2 0x167A JUMP JUMPDEST DUP3 MLOAD SWAP2 DUP3 MSTORE PUSH1 0x20 DUP3 ADD MSTORE LOG4 JUMP JUMPDEST DUP6 MLOAD PUSH4 0x391434E3 PUSH1 0xE2 SHL DUP2 MSTORE PUSH1 0x1 PUSH1 0x1 PUSH1 0xA0 SHL SUB SWAP2 SWAP1 SWAP2 AND PUSH1 0x4 DUP3 ADD MSTORE PUSH1 0x24 DUP2 ADD SWAP2 SWAP1 SWAP2 MSTORE PUSH1 0x44 DUP2 ADD DUP4 SWAP1 MSTORE PUSH1 0x64 SWAP1 REVERT JUMPDEST PUSH2 0x15A2 SWAP2 DUP7 PUSH2 0x1151 JUMP JUMPDEST PUSH0 DUP3 PUSH2 0x1481 JUMP JUMPDEST SWAP2 SWAP1 PUSH2 0x15B6 DUP3 DUP3 DUP6 PUSH2 0x15E7 JUMP JUMPDEST SWAP3 DUP3 ISZERO PUSH2 0x15D3 JUMPI MULMOD PUSH2 0x15C5 JUMPI SWAP1 JUMP JUMPDEST PUSH1 0x1 DUP2 ADD DUP1 SWAP2 GT PUSH2 0xC24 JUMPI SWAP1 JUMP JUMPDEST PUSH4 0x4E487B71 PUSH1 0xE0 SHL PUSH0 MSTORE PUSH1 0x12 PUSH1 0x4 MSTORE PUSH1 0x24 PUSH0 REVERT JUMPDEST SWAP1 SWAP2 DUP3 DUP3 MUL SWAP2 PUSH0 NOT DUP5 DUP3 MULMOD SWAP4 DUP4 DUP1 DUP7 LT SWAP6 SUB SWAP5 DUP1 DUP7 SUB SWAP6 EQ PUSH2 0x166C JUMPI DUP5 DUP4 GT ISZERO PUSH2 0x165A JUMPI DUP3 SWAP2 MULMOD DUP2 PUSH0 SUB DUP3 AND DUP1 SWAP3 DIV PUSH1 0x2 DUP1 DUP3 PUSH1 0x3 MUL XOR DUP1 DUP4 MUL DUP3 SUB MUL DUP1 DUP4 MUL DUP3 SUB MUL DUP1 DUP4 MUL DUP3 SUB MUL DUP1 DUP4 MUL DUP3 SUB MUL DUP1 DUP4 MUL DUP3 SUB MUL DUP1 SWAP3 MUL SWAP1 SUB MUL SWAP4 PUSH1 0x1 DUP4 DUP1 PUSH0 SUB DIV ADD SWAP1 DUP5 DUP4 GT SWAP1 SUB MUL SWAP3 SUB DIV OR MUL SWAP1 JUMP JUMPDEST PUSH1 0x40 MLOAD PUSH4 0x227BC153 PUSH1 0xE0 SHL DUP2 MSTORE PUSH1 0x4 SWAP1 REVERT JUMPDEST POP POP DUP1 SWAP3 POP ISZERO PUSH2 0x15D3 JUMPI DIV SWAP1 JUMP JUMPDEST DUP2 MLOAD PUSH1 0x1 PUSH1 0x1 PUSH1 0xA0 SHL SUB SWAP1 SWAP2 AND SWAP2 PUSH0 SWAP2 DUP3 SWAP2 PUSH1 0x20 ADD DUP3 DUP6 GAS CALL RETURNDATASIZE ISZERO PUSH2 0x1726 JUMPI RETURNDATASIZE PUSH1 0x1 PUSH1 0x1 PUSH1 0x40 SHL SUB DUP2 GT PUSH2 0xEFC JUMPI PUSH2 0x16D4 SWAP2 PUSH1 0x40 MLOAD SWAP2 PUSH2 0x16C4 PUSH1 0x20 PUSH1 0x1F NOT PUSH1 0x1F DUP5 ADD AND ADD DUP5 PUSH2 0xF3E JUMP JUMPDEST DUP3 MSTORE RETURNDATASIZE PUSH0 PUSH1 0x20 DUP5 ADD RETURNDATACOPY JUMPDEST DUP4 PUSH2 0x1732 JUMP JUMPDEST DUP1 MLOAD SWAP1 DUP2 ISZERO ISZERO SWAP2 DUP3 PUSH2 0x1702 JUMPI JUMPDEST POP POP PUSH2 0x16EA JUMPI POP JUMP JUMPDEST PUSH1 0x24 SWAP1 PUSH1 0x40 MLOAD SWAP1 PUSH4 0x5274AFE7 PUSH1 0xE0 SHL DUP3 MSTORE PUSH1 0x4 DUP3 ADD MSTORE REVERT JUMPDEST DUP2 SWAP3 POP SWAP1 PUSH1 0x20 SWAP2 DUP2 ADD SUB SLT PUSH2 0x353 JUMPI PUSH1 0x20 ADD MLOAD DUP1 ISZERO SWAP1 DUP2 ISZERO SUB PUSH2 0x353 JUMPI PUSH0 DUP1 PUSH2 0x16E1 JUMP JUMPDEST PUSH2 0x16D4 SWAP1 PUSH1 0x60 SWAP1 PUSH2 0x16CE JUMP JUMPDEST SWAP1 PUSH2 0x1759 JUMPI POP DUP1 MLOAD ISZERO PUSH2 0x1747 JUMPI DUP1 MLOAD SWAP1 PUSH1 0x20 ADD REVERT JUMPDEST PUSH1 0x40 MLOAD PUSH4 0xA12F521 PUSH1 0xE1 SHL DUP2 MSTORE PUSH1 0x4 SWAP1 REVERT JUMPDEST DUP2 MLOAD ISZERO DUP1 PUSH2 0x178C JUMPI JUMPDEST PUSH2 0x176A JUMPI POP SWAP1 JUMP JUMPDEST PUSH1 0x40 MLOAD PUSH4 0x9996B315 PUSH1 0xE0 SHL DUP2 MSTORE PUSH1 0x1 PUSH1 0x1 PUSH1 0xA0 SHL SUB SWAP1 SWAP2 AND PUSH1 0x4 DUP3 ADD MSTORE PUSH1 0x24 SWAP1 REVERT JUMPDEST POP DUP1 EXTCODESIZE ISZERO PUSH2 0x1762 JUMP INVALID LOG2 PUSH5 0x6970667358 0x22 SLT KECCAK256 BLOBHASH 0x4D 0xD4 POP PREVRANDAO CODECOPY DUP9 0xDB 0xE DUP1 0xBC ISZERO 0xEB 0xB6 PUSH9 0x7A8D8C71B3A695B5E5 SWAP15 SWAP14 PUSH31 0x87BB2D0A5564736F6C63430008190033000000000000000000000000000000 "
				},
				"gasEstimates": {
					"creation": {
						"codeDepositCost": "1218200",
						"executionCost": "infinite",
						"totalCost": "infinite"
					},
					"external": {
						"allowance(address,address)": "3094",
						"approve(address,uint256)": "24361",
						"asset()": "infinite",
						"balanceOf(address)": "2709",
						"convertToAssets(uint256)": "infinite",
						"convertToShares(uint256)": "infinite",
						"decimals()": "infinite",
						"deposit(uint256,address)": "infinite",
						"depositWithBatchPermit(((address,uint160,uint48,uint48)[],address,uint256)[],bytes[],address)": "infinite",
						"depositWithPermit(uint256,((address,uint160,uint48,uint48),address,uint256),bytes,address)": "infinite",
						"maxDeposit(address)": "433",
						"maxMint(address)": "697",
						"maxRedeem(address)": "2951",
						"maxWithdraw(address)": "infinite",
						"mint(uint256,address)": "infinite",
						"name()": "infinite",
						"permitSystem()": "infinite",
						"previewDeposit(uint256)": "infinite",
						"previewMint(uint256)": "infinite",
						"previewRedeem(uint256)": "infinite",
						"previewWithdraw(uint256)": "infinite",
						"redeem(uint256,address,address)": "infinite",
						"symbol()": "infinite",
						"totalAssets()": "infinite",
						"totalSupply()": "2358",
						"transfer(address,uint256)": "51111",
						"transferFrom(address,address,uint256)": "75604",
						"withdraw(uint256,address,address)": "infinite"
					}
				},
				"methodIdentifiers": {
					"allowance(address,address)": "dd62ed3e",
					"approve(address,uint256)": "095ea7b3",
					"asset()": "38d52e0f",
					"balanceOf(address)": "70a08231",
					"convertToAssets(uint256)": "07a2d13a",
					"convertToShares(uint256)": "c6e6f592",
					"decimals()": "313ce567",
					"deposit(uint256,address)": "6e553f65",
					"depositWithBatchPermit(((address,uint160,uint48,uint48)[],address,uint256)[],bytes[],address)": "7b17edf2",
					"depositWithPermit(uint256,((address,uint160,uint48,uint48),address,uint256),bytes,address)": "e6adb29c",
					"maxDeposit(address)": "402d267d",
					"maxMint(address)": "c63d75b6",
					"maxRedeem(address)": "d905777e",
					"maxWithdraw(address)": "ce96cb77",
					"mint(uint256,address)": "94bf804d",
					"name()": "06fdde03",
					"permitSystem()": "464582cb",
					"previewDeposit(uint256)": "ef8b30f7",
					"previewMint(uint256)": "b3d7f6b9",
					"previewRedeem(uint256)": "4cdad506",
					"previewWithdraw(uint256)": "0a28a477",
					"redeem(uint256,address,address)": "ba087652",
					"symbol()": "95d89b41",
					"totalAssets()": "01e1d114",
					"totalSupply()": "18160ddd",
					"transfer(address,uint256)": "a9059cbb",
					"transferFrom(address,address,uint256)": "23b872dd",
					"withdraw(uint256,address,address)": "b460af94"
				}
			},
			"storageLayout": {
				"storage": [
					{
						"astId": 394,
						"contract": "contracts/contracts/protocol/TuliaVault.sol:TuliaVault",
						"label": "_balances",
						"offset": 0,
						"slot": "0",
						"type": "t_mapping(t_address,t_uint256)"
					},
					{
						"astId": 400,
						"contract": "contracts/contracts/protocol/TuliaVault.sol:TuliaVault",
						"label": "_allowances",
						"offset": 0,
						"slot": "1",
						"type": "t_mapping(t_address,t_mapping(t_address,t_uint256))"
					},
					{
						"astId": 402,
						"contract": "contracts/contracts/protocol/TuliaVault.sol:TuliaVault",
						"label": "_totalSupply",
						"offset": 0,
						"slot": "2",
						"type": "t_uint256"
					},
					{
						"astId": 404,
						"contract": "contracts/contracts/protocol/TuliaVault.sol:TuliaVault",
						"label": "_name",
						"offset": 0,
						"slot": "3",
						"type": "t_string_storage"
					},
					{
						"astId": 406,
						"contract": "contracts/contracts/protocol/TuliaVault.sol:TuliaVault",
						"label": "_symbol",
						"offset": 0,
						"slot": "4",
						"type": "t_string_storage"
					},
					{
						"astId": 317,
						"contract": "contracts/contracts/protocol/TuliaVault.sol:TuliaVault",
						"label": "_status",
						"offset": 0,
						"slot": "5",
						"type": "t_uint256"
					}
				],
				"types": {
					"t_address": {
						"encoding": "inplace",
						"label": "address",
						"numberOfBytes": "20"
					},
					"t_mapping(t_address,t_mapping(t_address,t_uint256))": {
						"encoding": "mapping",
						"key": "t_address",
						"label": "mapping(address => mapping(address => uint256))",
						"numberOfBytes": "32",
						"value": "t_mapping(t_address,t_uint256)"
					},
					"t_mapping(t_address,t_uint256)": {
						"encoding": "mapping",
						"key": "t_address",
						"label": "mapping(address => uint256)",
						"numberOfBytes": "32",
						"value": "t_uint256"
					},
					"t_string_storage": {
						"encoding": "bytes",
						"label": "string",
						"numberOfBytes": "32"
					},
					"t_uint256": {
						"encoding": "inplace",
						"label": "uint256",
						"numberOfBytes": "32"
					}
				}
			},
			"userdoc": {
				"kind": "user",
				"methods": {
					"depositWithBatchPermit(((address,uint160,uint48,uint48)[],address,uint256)[],bytes[],address)": {
						"notice": "Allows batch deposits using multiple permits for efficiency in transactions."
					},
					"depositWithPermit(uint256,((address,uint160,uint48,uint48),address,uint256),bytes,address)": {
						"notice": "Deposits assets into the vault with permit approval, issuing shares of the vault in return."
					}
				},
				"notice": "Manages the vault where assets are stored and facilitates tokenized shares representing ownership of the underlying assets.",
				"version": 1
			}
		}
	}
}