{
  "_format": "hh-sol-artifact-1",
  "contractName": "BulkMinter",
  "sourceName": "contracts/tokens/BulkMinter.sol",
  "abi": [
    {
      "inputs": [
        {
          "internalType": "address",
          "name": "initialOwner",
          "type": "address"
        }
      ],
      "stateMutability": "nonpayable",
      "type": "constructor"
    },
    {
      "inputs": [
        {
          "internalType": "address",
          "name": "owner",
          "type": "address"
        }
      ],
      "name": "OwnableInvalidOwner",
      "type": "error"
    },
    {
      "inputs": [
        {
          "internalType": "address",
          "name": "account",
          "type": "address"
        }
      ],
      "name": "OwnableUnauthorizedAccount",
      "type": "error"
    },
    {
      "anonymous": false,
      "inputs": [
        {
          "indexed": true,
          "internalType": "address",
          "name": "previousOwner",
          "type": "address"
        },
        {
          "indexed": true,
          "internalType": "address",
          "name": "newOwner",
          "type": "address"
        }
      ],
      "name": "OwnershipTransferred",
      "type": "event"
    },
    {
      "inputs": [
        {
          "internalType": "address",
          "name": "token",
          "type": "address"
        }
      ],
      "name": "addToken",
      "outputs": [],
      "stateMutability": "nonpayable",
      "type": "function"
    },
    {
      "inputs": [],
      "name": "getTokenCount",
      "outputs": [
        {
          "internalType": "uint256",
          "name": "",
          "type": "uint256"
        }
      ],
      "stateMutability": "view",
      "type": "function"
    },
    {
      "inputs": [
        {
          "internalType": "uint256[]",
          "name": "amounts",
          "type": "uint256[]"
        }
      ],
      "name": "mintAll",
      "outputs": [],
      "stateMutability": "nonpayable",
      "type": "function"
    },
    {
      "inputs": [],
      "name": "owner",
      "outputs": [
        {
          "internalType": "address",
          "name": "",
          "type": "address"
        }
      ],
      "stateMutability": "view",
      "type": "function"
    },
    {
      "inputs": [],
      "name": "renounceOwnership",
      "outputs": [],
      "stateMutability": "nonpayable",
      "type": "function"
    },
    {
      "inputs": [
        {
          "internalType": "uint256",
          "name": "",
          "type": "uint256"
        }
      ],
      "name": "tokens",
      "outputs": [
        {
          "internalType": "contract MockTokenCreator",
          "name": "",
          "type": "address"
        }
      ],
      "stateMutability": "view",
      "type": "function"
    },
    {
      "inputs": [
        {
          "internalType": "address",
          "name": "newOwner",
          "type": "address"
        }
      ],
      "name": "transferOwnership",
      "outputs": [],
      "stateMutability": "nonpayable",
      "type": "function"
    }
  ],
  "bytecode": "0x60806040523462000037576200001e6200001862000116565b6200013c565b620000286200003d565b610b0d620003468239610b0d90f35b62000043565b60405190565b600080fd5b601f801991011690565b634e487b7160e01b600052604160045260246000fd5b90620000749062000048565b810190811060018060401b038211176200008d57604052565b62000052565b90620000aa620000a26200003d565b928362000068565b565b600080fd5b60018060a01b031690565b620000c790620000b1565b90565b620000d581620000bc565b03620000dd57565b600080fd5b90505190620000f182620000ca565b565b9060208282031262000110576200010d91600001620000e2565b90565b620000ac565b6200013962000e53803803806200012d8162000093565b928339810190620000f3565b90565b6200014790620001a6565b565b90565b90565b62000168620001626200016e9262000149565b6200014c565b620000b1565b90565b6200017c906200014f565b90565b6200018a90620000bc565b9052565b9190620001a4906000602085019401906200017f565b565b80620001c8620001c1620001bb600062000171565b620000bc565b91620000bc565b14620001db57620001d990620002d8565b565b6200020c620001eb600062000171565b620001f56200003d565b918291631e4fbdf760e01b8352600483016200018e565b0390fd5b60001c90565b60018060a01b031690565b62000230620002369162000210565b62000216565b90565b62000245905462000221565b90565b60001b90565b906200026160018060a01b039162000248565b9181191691161790565b620002846200027e6200028a92620000b1565b6200014c565b620000b1565b90565b62000298906200026b565b90565b620002a6906200028d565b90565b90565b90620002c6620002c0620002ce926200029b565b620002a9565b82546200024e565b9055565b60000190565b620002e4600062000239565b620002f1826000620002ac565b9062000329620003227f8be0079c531659141344cd1fd0a4f28419497f9722a3daafe3b4186f6b6457e0936200029b565b916200029b565b91620003346200003d565b806200034081620002d2565b0390a356fe60806040526004361015610013575b61049f565b61001e60003561008d565b80634f64b2be14610088578063715018a61461008357806378a895671461007e57806385e5d7ee146100795780638da5cb5b14610074578063d48bfca71461006f5763f2fde38b0361000e5761046c565b610439565b6103c1565b61035e565b6102a4565b61024e565b610203565b60e01c90565b60405190565b600080fd5b600080fd5b600080fd5b90565b6100b4816100a8565b036100bb57565b600080fd5b905035906100cd826100ab565b565b906020828203126100e9576100e6916000016100c0565b90565b61009e565b634e487b7160e01b600052603260045260246000fd5b5490565b600052602060002090565b61011c81610104565b8210156101375761012e600191610108565b91020190600090565b6100ee565b1c90565b60018060a01b031690565b61015b906008610160930261013c565b610140565b90565b9061016e915461014b565b90565b600161017c81610104565b821015610199576101969161019091610113565b90610163565b90565b600080fd5b60018060a01b031690565b90565b6101c06101bb6101c59261019e565b6101a9565b61019e565b90565b6101d1906101ac565b90565b6101dd906101c8565b90565b6101e9906101d4565b9052565b9190610201906000602085019401906101e0565b565b346102335761022f61021e6102193660046100cf565b610171565b610226610093565b918291826101ed565b0390f35b610099565b600091031261024357565b61009e565b60000190565b3461027c5761025e366004610238565b6102666104f5565b61026e610093565b8061027881610248565b0390f35b610099565b61028a906100a8565b9052565b91906102a290600060208501940190610281565b565b346102d4576102b4366004610238565b6102d06102bf610504565b6102c7610093565b9182918261028e565b0390f35b610099565b600080fd5b600080fd5b600080fd5b909182601f830112156103225781359167ffffffffffffffff831161031d57602001926020830284011161031857565b6102e3565b6102de565b6102d9565b9060208282031261035957600082013567ffffffffffffffff81116103545761035092016102e8565b9091565b6100a3565b61009e565b3461038d57610377610371366004610327565b906106b7565b61037f610093565b8061038981610248565b0390f35b610099565b61039b9061019e565b90565b6103a790610392565b9052565b91906103bf9060006020850194019061039e565b565b346103f1576103d1366004610238565b6103ed6103dc610811565b6103e4610093565b918291826103ab565b0390f35b610099565b6103ff81610392565b0361040657565b600080fd5b90503590610418826103f6565b565b90602082820312610434576104319160000161040b565b90565b61009e565b346104675761045161044c36600461041a565b610940565b610459610093565b8061046381610248565b0390f35b610099565b3461049a5761048461047f36600461041a565b6109b9565b61048c610093565b8061049681610248565b0390f35b610099565b600080fd5b6104ac6109c4565b6104b46104e1565b565b90565b6104cd6104c86104d2926104b6565b6101a9565b61019e565b90565b6104de906104b9565b90565b6104f36104ee60006104d5565b610a69565b565b6104fd6104a4565b565b600090565b61050c6104ff565b506105176001610104565b90565b5090565b60209181520190565b60207f746f6b656e73206172726179206c656e6774682e000000000000000000000000917f416d6f756e7473206172726179206c656e677468206d757374206d617463682060008201520152565b610582603460409261051e565b61058b81610527565b0190565b6105a59060208101906000818303910152610575565b90565b156105af57565b6105b7610093565b62461bcd60e51b8152806105cd6004820161058f565b0390fd5b6105e56105e06105ea926104b6565b6101a9565b6100a8565b90565b60016105f991016100a8565b90565b919081101561060c576020020190565b6100ee565b3561061b816100ab565b90565b600080fd5b601f801991011690565b634e487b7160e01b600052604160045260246000fd5b9061064d90610623565b810190811067ffffffffffffffff82111761066757604052565b61062d565b60e01b90565b600091031261067d57565b61009e565b9160206106a492949361069d6040820196600083019061039e565b0190610281565b565b6106ae610093565b3d6000823e3d90fd5b91906106e86106c784839061051a565b6106e26106dc6106d76001610104565b6100a8565b916100a8565b146105a8565b6106f260006105d1565b5b8061070f6107096107046001610104565b6100a8565b916100a8565b10156107d45761073261072d61072760018490610113565b90610163565b6101d4565b906340c10f193361074d610748888786916105fc565b610611565b93803b156107cf576107736000809461077e610767610093565b9889968795869461066c565b845260048401610682565b03925af19182156107ca576107989261079d575b506105ed565b6106f3565b6107bd9060003d81116107c3575b6107b58183610643565b810190610672565b38610792565b503d6107ab565b6106a6565b61061e565b50509050565b600090565b60001c90565b60018060a01b031690565b6107fc610801916107df565b6107e5565b90565b61080e90546107f0565b90565b6108196107da565b506108246000610804565b90565b610838906108336109c4565b610921565b565b90565b610846906101ac565b90565b6108529061083d565b90565b600052602060002090565b5490565b61086d81610860565b8210156108885761087f600191610855565b91020190600090565b6100ee565b1b90565b919060086108b19102916108ab60018060a01b038461088d565b9261088d565b9181191691161790565b6108c49061083d565b90565b90565b91906108e06108db6108e8936108bb565b6108c7565b908354610891565b9055565b908154916801000000000000000083101561091c578261091491600161091a95018155610864565b906108ca565b565b61062d565b61093e90610938610932600161083a565b91610849565b906108ec565b565b61094990610827565b565b61095c906109576109c4565b61095e565b565b8061097a61097461096f60006104d5565b610392565b91610392565b1461098a5761098890610a69565b565b6109b561099760006104d5565b61099f610093565b918291631e4fbdf760e01b8352600483016103ab565b0390fd5b6109c29061094b565b565b6109cc610811565b6109e56109df6109da610aca565b610392565b91610392565b036109ec57565b610a156109f7610aca565b6109ff610093565b91829163118cdaa760e01b8352600483016103ab565b0390fd5b60001b90565b90610a3060018060a01b0391610a19565b9181191691161790565b610a43906101c8565b90565b90565b90610a5e610a59610a6592610a3a565b610a46565b8254610a1f565b9055565b610a736000610804565b610a7e826000610a49565b90610ab2610aac7f8be0079c531659141344cd1fd0a4f28419497f9722a3daafe3b4186f6b6457e093610a3a565b91610a3a565b91610abb610093565b80610ac581610248565b0390a3565b610ad26107da565b50339056fea264697066735822122023e7d31064e327bb86bcf783223345b114e51eb33d576cd8a44cbe5047240d2464736f6c63430008180033",
  "linkReferences": {},
  "deployedLinkReferences": {}
}