{
  "_format": "hh-sol-artifact-1",
  "contractName": "FeeManager",
  "sourceName": "contracts/lib/EmissionManager.sol",
  "abi": [
    {
      "inputs": [
        {
          "internalType": "uint256",
          "name": "initialtuliaPoolFeeRate",
          "type": "uint256"
        },
        {
          "internalType": "uint256",
          "name": "initialflashPoolFeeRate",
          "type": "uint256"
        }
      ],
      "stateMutability": "nonpayable",
      "type": "constructor"
    },
    {
      "anonymous": false,
      "inputs": [
        {
          "indexed": false,
          "internalType": "uint256",
          "name": "newFeeRate",
          "type": "uint256"
        }
      ],
      "name": "flashPoolFeeRateUpdated",
      "type": "event"
    },
    {
      "anonymous": false,
      "inputs": [
        {
          "indexed": false,
          "internalType": "uint256",
          "name": "newFeeRate",
          "type": "uint256"
        }
      ],
      "name": "tuliaPoolFeeRateUpdated",
      "type": "event"
    },
    {
      "inputs": [],
      "name": "MAX_FEE_RATE",
      "outputs": [
        {
          "internalType": "uint256",
          "name": "",
          "type": "uint256"
        }
      ],
      "stateMutability": "view",
      "type": "function"
    },
    {
      "inputs": [],
      "name": "flashPoolFeeRate",
      "outputs": [
        {
          "internalType": "uint256",
          "name": "",
          "type": "uint256"
        }
      ],
      "stateMutability": "view",
      "type": "function"
    },
    {
      "inputs": [],
      "name": "getflashPoolFeeRate",
      "outputs": [
        {
          "internalType": "uint256",
          "name": "",
          "type": "uint256"
        }
      ],
      "stateMutability": "view",
      "type": "function"
    },
    {
      "inputs": [],
      "name": "gettuliaPoolFeeRate",
      "outputs": [
        {
          "internalType": "uint256",
          "name": "",
          "type": "uint256"
        }
      ],
      "stateMutability": "view",
      "type": "function"
    },
    {
      "inputs": [
        {
          "internalType": "uint256",
          "name": "newFeeRate",
          "type": "uint256"
        }
      ],
      "name": "setflashPoolFeeRate",
      "outputs": [],
      "stateMutability": "nonpayable",
      "type": "function"
    },
    {
      "inputs": [
        {
          "internalType": "uint256",
          "name": "newFeeRate",
          "type": "uint256"
        }
      ],
      "name": "settuliaPoolFeeRate",
      "outputs": [],
      "stateMutability": "nonpayable",
      "type": "function"
    },
    {
      "inputs": [],
      "name": "tuliaPoolFeeRate",
      "outputs": [
        {
          "internalType": "uint256",
          "name": "",
          "type": "uint256"
        }
      ],
      "stateMutability": "view",
      "type": "function"
    }
  ],
  "bytecode": "0x60806040523462000038576200001f6200001862000112565b906200034e565b620000296200003e565b610637620003c3823961063790f35b62000044565b60405190565b600080fd5b601f801991011690565b634e487b7160e01b600052604160045260246000fd5b90620000759062000049565b810190811060018060401b038211176200008e57604052565b62000053565b90620000ab620000a36200003e565b928362000069565b565b600080fd5b90565b620000c081620000b2565b03620000c857565b600080fd5b90505190620000dc82620000b5565b565b91906040838203126200010c5780620000ff620001099260008601620000cd565b93602001620000cd565b90565b620000ad565b62000135620009fa80380380620001298162000094565b928339810190620000de565b9091565b90565b90565b62000158620001526200015e9262000139565b6200013c565b620000b2565b90565b6200016e6101f46200013f565b90565b60209181520190565b60207f6f20686967680000000000000000000000000000000000000000000000000000917f496e697469616c2074756c6961506f6f6c20666565207261746520697320746f60008201520152565b620001d7602660409262000171565b620001e2816200017a565b0190565b620001fe9060208101906000818303910152620001c8565b90565b156200020957565b620002136200003e565b62461bcd60e51b8152806200022b60048201620001e6565b0390fd5b60207f6f20686967680000000000000000000000000000000000000000000000000000917f496e697469616c20666c617368506f6f6c20666565207261746520697320746f60008201520152565b6200028c602660409262000171565b62000297816200022f565b0190565b620002b390602081019060008183039101526200027d565b90565b15620002be57565b620002c86200003e565b62461bcd60e51b815280620002e0600482016200029b565b0390fd5b60001b90565b90620002f960001991620002e4565b9181191691161790565b6200031c620003166200032292620000b2565b6200013c565b620000b2565b90565b90565b90620003426200033c6200034a9262000303565b62000325565b8254620002ea565b9055565b90620003b8620003c09262000384816200037c620003756200036f62000161565b620000b2565b91620000b2565b111562000201565b620003b083620003a8620003a16200039b62000161565b620000b2565b91620000b2565b1115620002b6565b600062000328565b600162000328565b56fe60806040526004361015610013575b610317565b61001e60003561008d565b806301b3e0a414610088578063053e755b14610083578063203f31491461007e57806324d8af8d1461007957806326d03cd914610074578063369058bb1461006f576392f6576e0361000e576102e2565b610274565b61023f565b61020c565b61018e565b61014b565b610116565b60e01c90565b60405190565b600080fd5b600080fd5b60009103126100ae57565b61009e565b1c90565b90565b6100ca9060086100cf93026100b3565b6100b7565b90565b906100dd91546100ba565b90565b6100ed60016000906100d2565b90565b90565b6100fc906100f0565b9052565b9190610114906000602085019401906100f3565b565b34610146576101263660046100a3565b6101426101316100e0565b610139610093565b91829182610100565b0390f35b610099565b3461017b5761015b3660046100a3565b610177610166610348565b61016e610093565b91829182610100565b0390f35b610099565b61018b6000806100d2565b90565b346101be5761019e3660046100a3565b6101ba6101a9610180565b6101b1610093565b91829182610100565b0390f35b610099565b6101cc816100f0565b036101d357565b600080fd5b905035906101e5826101c3565b565b90602082820312610201576101fe916000016101d8565b90565b61009e565b60000190565b3461023a5761022461021f3660046101e7565b61046d565b61022c610093565b8061023681610206565b0390f35b610099565b3461026f5761024f3660046100a3565b61026b61025a6104d7565b610262610093565b91829182610100565b0390f35b610099565b346102a25761028c6102873660046101e7565b610597565b610294610093565b8061029e81610206565b0390f35b610099565b90565b90565b6102c16102bc6102c6926102a7565b6102aa565b6100f0565b90565b6102d46101f46102ad565b90565b6102df6102c9565b90565b34610312576102f23660046100a3565b61030e6102fd6102d7565b610305610093565b91829182610100565b0390f35b610099565b600080fd5b600090565b60001c90565b61033361033891610321565b6100b7565b90565b6103459054610327565b90565b61035061031c565b5061035b600161033b565b90565b60209181520190565b60207f6768000000000000000000000000000000000000000000000000000000000000917f4e65772074756c6961506f6f6c20666565207261746520697320746f6f20686960008201520152565b6103c2602260409261035e565b6103cb81610367565b0190565b6103e590602081019060008183039101526103b5565b90565b156103ef57565b6103f7610093565b62461bcd60e51b81528061040d600482016103cf565b0390fd5b60001b90565b9061042460001991610411565b9181191691161790565b61044261043d610447926100f0565b6102aa565b6100f0565b90565b90565b9061046261045d6104699261042e565b61044a565b8254610417565b9055565b6104918161048a61048461047f6102c9565b6100f0565b916100f0565b11156103e8565b61049c81600061044d565b6104d27f7319226f48bdce05a3e89ab188c3a70245772b46d6ffedcb9d05b6786bfaa8fc916104c9610093565b91829182610100565b0390a1565b6104df61031c565b506104ea600061033b565b90565b60207f6768000000000000000000000000000000000000000000000000000000000000917f4e657720666c617368506f6f6c20666565207261746520697320746f6f20686960008201520152565b610548602260409261035e565b610551816104ed565b0190565b61056b906020810190600081830391015261053b565b90565b1561057557565b61057d610093565b62461bcd60e51b81528061059360048201610555565b0390fd5b6105bb816105b46105ae6105a96102c9565b6100f0565b916100f0565b111561056e565b6105c681600161044d565b6105fc7f93785b15ebbc916d52986b4f3f53b719a4895974f421918b77407c81cd9dfbc8916105f3610093565b91829182610100565b0390a156fea2646970667358221220e772719080ded9ab4f6fcabd6344f756865fd9f153e025c2e3384ddaced319b964736f6c63430008180033",
  "linkReferences": {},
  "deployedLinkReferences": {}
}