{
	"data": {
		"bytecode": {
			"linkReferences": {},
			"object": "608034620003ab57601f6200195a38819003918201601f19168301916001600160401b03831184841017620003055780849261018094604052833981010312620003ab576200004e81620003af565b6200005c60208301620003af565b916200006b60408201620003af565b916200007a60608301620003af565b9260808301519460a08401519360c08101519060e081015160018060a01b0381168103620003ab57610100820151916001600160a01b0383168303620003ab57620000c96101208201620003af565b620000e7610160620000df6101408501620003af565b9301620003af565b60015f55936001600160a01b03891615158062000398575b8062000385575b8062000372575b156200032d57600180546001600160a01b03199081166001600160a01b0393841617909155600280548216938316939093179092556003805490921692169190911790556004549262015180908015828202829004831417156200031957604051986001600160401b036101608b01908111908b111762000305578b5f6101408c7f3d48195705780f5c10a0d217f778f0f6d562cb1a6a699da31c0d6d756aacedfc9e61016060609f016040528d60018060a01b0316825260018060a01b038c16602083015260018060a01b038d16604083015260018060a01b031693848f83015260808201528460a082015286860260c082015260018060a01b03881660e08201528261010082015242610120820152015260018060a01b038a1660018060a01b0319600554161760055560018060a01b03881660018060a01b0319600654161760065560018060a01b03891660018060a01b0319600754161760075560018060a01b031960085416176008558b600955600a5502600b5560018060a01b031660018060a01b0319600c541617600c5560018060a01b0319600d5416600d5542600e555f600f5560018060a01b03169060018060a81b0319161760045560405195865260018060a01b0316602086015260018060a01b0316604085015260018060a01b031692a26040516115959081620003c58239f35b634e487b7160e01b5f52604160045260245ffd5b634e487b7160e01b5f52601160045260245ffd5b60405162461bcd60e51b815260206004820152601760248201527f496e76616c696420696e707574206164647265737365730000000000000000006044820152606490fd5b506001600160a01b03881615156200010d565b506001600160a01b038b16151562000106565b506001600160a01b0387161515620000ff565b5f80fd5b51906001600160a01b0382168203620003ab5756fe6080604081815260049182361015610015575f80fd5b5f92833560e01c9182630c7277de14611308575081630f4ef8a6146112e057816312261ee7146112b75781632e1283e3146112985781633b1baeff14611036578163402d888314610a205781635257b56614610a0157816364c4bec0146109e2578163654c6295146109465781636b6d1955146109265781638a4adf24146108fd5781638db57994146107bd57816395cb741d146107315781639e9f669c1461015f578163b2a9bb601461018f578163c19d93fb1461015f57508063c51b950714610137578063eb0c4955146101145763f4b01b18146100f3575f80fd5b346101105781600319360112610110576020906009549051908152f35b5080fd5b503461011057816003193601126101105760209061013061151c565b9051908152f35b503461011057816003193601126101105760025490516001600160a01b039091168152602090f35b82843461018c578060031936011261018c575060ff610188925460a01c1690519182918261132d565b0390f35b80fd5b90503461072d578260031936011261072d576101a9611354565b60ff815460a01c16600681101561071a576001036106d8573315610696576005546001600160a01b039081169190338314610653576101e661151c565b926101f4600954948561140a565b6007548651636eb1769f60e11b8082523387830190815230602082810191909152989387169593949192908990829081906040010381895afa908115610649578b9161061c575b50106105cf5760065488519182526001600160a01b039092168682019081523060208201529091879183918716908290819060400103915afa80156105c55782918991610594575b5010610551579086949392916102a061029a61151c565b8261140a565b6102a861151c565b88516323b872dd60e01b808252338883019081523060208201526040810194909452909490928891869182908c90829060600103925af19182156105475761033094889361052a575b50856007541690898760035416918c51978895869485938452338d850160409194939294606082019560018060a01b0380921683521660208201520152565b03925af1918215610503576103819261050d575b50848184600754168560085416898b5180978195829463095ea7b360e01b84528c840160209093929193604081019460018060a01b031681520152565b03925af190811561050357869286926104e6575b50604484600854169189519485938492636e553f6560e01b8452898401523360248401525af180156104dc576104aa575b50600654600954865163a9059cbb60e01b815233858201908152602081019290925295859387931691839190829060400103925af19283156104a0577f5150ab7694a22fbc01c642bc10316565247df962fa3f0ac3b5d1a18ba45b485b93610473575b50600d80546001600160a01b0319163317905542600e55805460ff60a01b1916600160a11b17905561046461045c61151c565b60095461140a565b92519283523392a26001815580f35b61049290833d8511610499575b61048a81836113d0565b8101906113f2565b505f610429565b503d610480565b84513d87823e3d90fd5b83809295503d83116104d5575b6104c181836113d0565b810103126104d15784925f6103c6565b5f80fd5b503d6104b7565b86513d87823e3d90fd5b6104fc90833d85116104995761048a81836113d0565b505f610395565b87513d88823e3d90fd5b61052390863d88116104995761048a81836113d0565b505f610344565b61054090843d86116104995761048a81836113d0565b505f6102f1565b89513d8a823e3d90fd5b855162461bcd60e51b8152808501869052601b60248201527f496e73756666696369656e74206c6f616e20616c6c6f77616e636500000000006044820152606490fd5b809250878092503d83116105be575b6105ad81836113d0565b810103126104d1578190515f610283565b503d6105a3565b87513d8a823e3d90fd5b875162461bcd60e51b8152808701889052602160248201527f496e73756666696369656e7420636f6c6c61746572616c20616c6c6f77616e636044820152606560f81b6064820152608490fd5b90508881813d8311610642575b61063381836113d0565b810103126104d157515f61023b565b503d610629565b8a513d8d823e3d90fd5b835162461bcd60e51b8152602081840152601960248201527f4c656e6465722063616e6e6f7420626520626f72726f776572000000000000006044820152606490fd5b6020606492519162461bcd60e51b8352820152601860248201527f496e76616c696420626f72726f776572206164647265737300000000000000006044820152fd5b6020606492519162461bcd60e51b8352820152601a60248201527f4c6f616e206e6f7420726561647920746f2061637469766174650000000000006044820152fd5b634e487b7160e01b845260218252602484fd5b8280fd5b5050346101105781600319360112610110576101609060018060a01b038060055416918160065416918060075416908060085416600954600a5490600b549284600c541694600d541695600e5497600f549981519b8c5260208c01528a01526060890152608088015260a087015260c086015260e0850152610100840152610120830152610140820152f35b90503461072d578260031936011261072d576107d7611354565b60ff815460a01c16600681101561071a576108bb5760065460055460095484516323b872dd60e01b81526001600160a01b03928316858201908152306020828101919091526040820193909352909391928492169082908890829060600103925af180156108ae57917f9e71d2fb732e68272b7e74ecfd14638673c1d77e19a5d390a3ffff054d57c44b9391602093610891575b5042600f55805460ff60a01b1916600160a01b1790556009549051908152a16001815580f35b6108a790843d81116104995761048a81836113d0565b505f61086b565b50505051903d90823e3d90fd5b6020606492519162461bcd60e51b8352820152601b60248201527f4c6f616e206e6f7420696e20637265617461626c6520737461746500000000006044820152fd5b50503461011057816003193601126101105760035490516001600160a01b039091168152602090f35b50503461011057816003193601126101105760209061013061045c61151c565b838334610110576020928360031936011261072d5780356001600160a01b03818116918290036109de5790602486926008541693855194859384926370a0823160e01b84528301525afa9283156109d357926109a4575b5051908152f35b9091508281813d83116109cc575b6109bc81836113d0565b810103126104d15751908361099d565b503d6109b2565b8251903d90823e3d90fd5b8480fd5b505034610110578160031936011261011057602090600b549051908152f35b505034610110578160031936011261011057602090600a549051908152f35b838334610110578160031936011261011057610a3a611354565b60095460ff845460a01c1660068110156110235760058114610fe957848114610fad57600314610f76576005546001600160a01b039081169290610a85610a7f61151c565b8461140a565b6007548351636eb1769f60e11b815233898201908152306020828101919091529793969392851691908890829081906040010381855afa908115610f6c579087918a91610f37575b5010610ee15784516370a0823160e01b8152338a820152908790829060249082905afa908115610e31579086918991610eac575b5010610e585760065484516323b872dd60e01b815233818b019081523060208201526040810185905290918891839187169082908c90829060600103925af18015610e3157610e3b575b50600754845163095ea7b360e01b81526001600160a01b038316818b019081526020810185905290918891839187169082908c90829060400103925af18015610e3157610bd39288928592610e14575b508560075416908a8c89519687958694859363a9059cbb60e01b8552840160209093929193604081019460018060a01b031681520152565b03925af18015610daa57610df7575b50610bee61045c61151c565b8103610db4578160085416908351906363737ac960e11b8252888201528581602481855afa908115610daa579086918891610d75575b508451635d043b2960e11b8152808a019182523360208301819052604083015292839182908a9082906060015b03925af18015610d6b57908591610d42575b5050806003541690600d5416813b15610d3e5782516356f78a1d60e01b8152308882019081526001600160a01b03909216602083015291869183919082908490829060400103925af18015610d3457610d03575b50845460ff60a01b1916600160a21b1790945591927f4002dba848920f438092e08090cfb5fc47144c22704268b402c9553a1b5adfe69290610cf761142b565b51908152a16001815580f35b93610d2e7f4002dba848920f438092e08090cfb5fc47144c22704268b402c9553a1b5adfe6956113a8565b93610cb7565b82513d87823e3d90fd5b8580fd5b813d8311610d64575b610d5581836113d0565b810103126109de578387610c63565b503d610d4b565b83513d88823e3d90fd5b82819392503d8311610da3575b610d8c81836113d0565b81010312610d9f57518590610c51610c24565b8680fd5b503d610d82565b84513d89823e3d90fd5b825162461bcd60e51b8152808801869052601e60248201527f436f6c6c61746572616c20696e707574206d7573742062652073616d652100006044820152606490fd5b610e0d90863d88116104995761048a81836113d0565b5087610be2565b610e2a90843d86116104995761048a81836113d0565b508b610b9b565b85513d8a823e3d90fd5b610e5190873d89116104995761048a81836113d0565b5088610b4b565b835162461bcd60e51b8152808901879052602860248201527f496e73756666696369656e7420746f6b656e2062616c616e636520666f722072604482015267195c185e5b595b9d60c21b6064820152608490fd5b809250888092503d8311610eda575b610ec581836113d0565b81010312610ed6578590518a610b01565b8780fd5b503d610ebb565b845162461bcd60e51b8152808a01889052602a60248201527f496e73756666696369656e7420746f6b656e20616c6c6f77616e636520666f72604482015269081c995c185e5b595b9d60b21b6064820152608490fd5b809250898092503d8311610f65575b610f5081836113d0565b81010312610f61578690518b610acd565b8880fd5b503d610f46565b86513d8b823e3d90fd5b815162461bcd60e51b81526020818601526011602482015270131bd85b881a5cc8111959985d5b1d1959607a1b6044820152606490fd5b825162461bcd60e51b81526020818701526016602482015275131bd85b881a5cc8185b1c9958591e4814915410525160521b6044820152606490fd5b825162461bcd60e51b815260208187015260146024820152734c6f616e20696e20436c6f73656420537461746560601b6044820152606490fd5b634e487b7160e01b845260218552602484fd5b90503461072d578260031936011261072d5760ff815460a01c16600681101561071a576002036112615761106f600e54600b549061140a565b421061121457600854600d5483516370a0823160e01b81526001600160a01b03918216848201819052919460209386169290918481602481875afa9081156111dd5788916111e7575b508251906363737ac960e11b8252868201528481602481875afa9081156111dd579085929189916111aa575b506005548451635d043b2960e11b81528881019283526001600160a01b03918a1682166020840152921660408201529093849182908a9082906060015b03925af19081156111a15750611178575b5050805460ff60a01b1916600360a01b17905561114d61142b565b600d54167ff4e5cf42cbb1d0c6c91e16d925349feb6c5d970652f6ec77b1ff1262f7284cd58280a280f35b813d831161119a575b61118b81836113d0565b8101031261072d575f80611132565b503d611181565b513d87823e3d90fd5b83819492503d83116111d6575b6111c181836113d0565b81010312610ed65790518491906111216110e4565b503d6111b7565b83513d8a823e3d90fd5b90508481813d831161120d575b6111fe81836113d0565b81010312610ed657515f6110b8565b503d6111f4565b6020608492519162461bcd60e51b8352820152602260248201527f52657061796d656e7420706572696f6420686173206e6f742079657420656e64604482015261195960f21b6064820152fd5b6020606492519162461bcd60e51b835282015260126024820152714c6f616e206973206e6f742061637469766560701b6044820152fd5b505034610110578160031936011261011057602090600f549051908152f35b50503461011057816003193601126101105760015490516001600160a01b039091168152602090f35b90503461072d578260031936011261072d575490516001600160a01b03909116815260209150f35b8490346101105781600319360112610110576007546001600160a01b03168152602090f35b9190602083019260068210156113405752565b634e487b7160e01b5f52602160045260245ffd5b60025f54146113635760025f55565b60405162461bcd60e51b815260206004820152601f60248201527f5265656e7472616e637947756172643a207265656e7472616e742063616c6c006044820152606490fd5b67ffffffffffffffff81116113bc57604052565b634e487b7160e01b5f52604160045260245ffd5b90601f8019910116810190811067ffffffffffffffff8211176113bc57604052565b908160209103126104d1575180151581036104d15790565b9190820180921161141757565b634e487b7160e01b5f52601160045260245ffd5b6004805460ff60a01b1916600560a01b1790556002546001600160a01b03905f908216803b1561011057818091602460405180948193637e72c7d760e01b83523060048401525af180156114ef576114fa575b509060035416803b15610110578180916024604051809481936338e270ed60e01b83523060048401525af180156114ef576114db575b50807f409fced1b85ae32a29fb1e18894d8361a5f2653dc27adf7102d86175c2901d7c91a1565b6114e582916113a8565b61018c575f6114b4565b6040513d84823e3d90fd5b611503906113a8565b5f61147e565b8181029291811591840414171561141757565b600a54670de0b6b3a764000090818102908082048314901517156114175761155c9161155660646301e13380600b54049304600954611509565b04611509565b9056fea26469706673582212204a7487f1a41f296d2c744a146dd206626a810e1de90e0cfa43346b6bf7fc8b2064736f6c63430008140033",
			"opcodes": "PUSH1 0x80 CALLVALUE PUSH3 0x3AB JUMPI PUSH1 0x1F PUSH3 0x195A CODESIZE DUP2 SWAP1 SUB SWAP2 DUP3 ADD PUSH1 0x1F NOT AND DUP4 ADD SWAP2 PUSH1 0x1 PUSH1 0x1 PUSH1 0x40 SHL SUB DUP4 GT DUP5 DUP5 LT OR PUSH3 0x305 JUMPI DUP1 DUP5 SWAP3 PUSH2 0x180 SWAP5 PUSH1 0x40 MSTORE DUP4 CODECOPY DUP2 ADD SUB SLT PUSH3 0x3AB JUMPI PUSH3 0x4E DUP2 PUSH3 0x3AF JUMP JUMPDEST PUSH3 0x5C PUSH1 0x20 DUP4 ADD PUSH3 0x3AF JUMP JUMPDEST SWAP2 PUSH3 0x6B PUSH1 0x40 DUP3 ADD PUSH3 0x3AF JUMP JUMPDEST SWAP2 PUSH3 0x7A PUSH1 0x60 DUP4 ADD PUSH3 0x3AF JUMP JUMPDEST SWAP3 PUSH1 0x80 DUP4 ADD MLOAD SWAP5 PUSH1 0xA0 DUP5 ADD MLOAD SWAP4 PUSH1 0xC0 DUP2 ADD MLOAD SWAP1 PUSH1 0xE0 DUP2 ADD MLOAD PUSH1 0x1 DUP1 PUSH1 0xA0 SHL SUB DUP2 AND DUP2 SUB PUSH3 0x3AB JUMPI PUSH2 0x100 DUP3 ADD MLOAD SWAP2 PUSH1 0x1 PUSH1 0x1 PUSH1 0xA0 SHL SUB DUP4 AND DUP4 SUB PUSH3 0x3AB JUMPI PUSH3 0xC9 PUSH2 0x120 DUP3 ADD PUSH3 0x3AF JUMP JUMPDEST PUSH3 0xE7 PUSH2 0x160 PUSH3 0xDF PUSH2 0x140 DUP6 ADD PUSH3 0x3AF JUMP JUMPDEST SWAP4 ADD PUSH3 0x3AF JUMP JUMPDEST PUSH1 0x1 PUSH0 SSTORE SWAP4 PUSH1 0x1 PUSH1 0x1 PUSH1 0xA0 SHL SUB DUP10 AND ISZERO ISZERO DUP1 PUSH3 0x398 JUMPI JUMPDEST DUP1 PUSH3 0x385 JUMPI JUMPDEST DUP1 PUSH3 0x372 JUMPI JUMPDEST ISZERO PUSH3 0x32D JUMPI PUSH1 0x1 DUP1 SLOAD PUSH1 0x1 PUSH1 0x1 PUSH1 0xA0 SHL SUB NOT SWAP1 DUP2 AND PUSH1 0x1 PUSH1 0x1 PUSH1 0xA0 SHL SUB SWAP4 DUP5 AND OR SWAP1 SWAP2 SSTORE PUSH1 0x2 DUP1 SLOAD DUP3 AND SWAP4 DUP4 AND SWAP4 SWAP1 SWAP4 OR SWAP1 SWAP3 SSTORE PUSH1 0x3 DUP1 SLOAD SWAP1 SWAP3 AND SWAP3 AND SWAP2 SWAP1 SWAP2 OR SWAP1 SSTORE PUSH1 0x4 SLOAD SWAP3 PUSH3 0x15180 SWAP1 DUP1 ISZERO DUP3 DUP3 MUL DUP3 SWAP1 DIV DUP4 EQ OR ISZERO PUSH3 0x319 JUMPI PUSH1 0x40 MLOAD SWAP9 PUSH1 0x1 PUSH1 0x1 PUSH1 0x40 SHL SUB PUSH2 0x160 DUP12 ADD SWAP1 DUP2 GT SWAP1 DUP12 GT OR PUSH3 0x305 JUMPI DUP12 PUSH0 PUSH2 0x140 DUP13 PUSH32 0x3D48195705780F5C10A0D217F778F0F6D562CB1A6A699DA31C0D6D756AACEDFC SWAP15 PUSH2 0x160 PUSH1 0x60 SWAP16 ADD PUSH1 0x40 MSTORE DUP14 PUSH1 0x1 DUP1 PUSH1 0xA0 SHL SUB AND DUP3 MSTORE PUSH1 0x1 DUP1 PUSH1 0xA0 SHL SUB DUP13 AND PUSH1 0x20 DUP4 ADD MSTORE PUSH1 0x1 DUP1 PUSH1 0xA0 SHL SUB DUP14 AND PUSH1 0x40 DUP4 ADD MSTORE PUSH1 0x1 DUP1 PUSH1 0xA0 SHL SUB AND SWAP4 DUP5 DUP16 DUP4 ADD MSTORE PUSH1 0x80 DUP3 ADD MSTORE DUP5 PUSH1 0xA0 DUP3 ADD MSTORE DUP7 DUP7 MUL PUSH1 0xC0 DUP3 ADD MSTORE PUSH1 0x1 DUP1 PUSH1 0xA0 SHL SUB DUP9 AND PUSH1 0xE0 DUP3 ADD MSTORE DUP3 PUSH2 0x100 DUP3 ADD MSTORE TIMESTAMP PUSH2 0x120 DUP3 ADD MSTORE ADD MSTORE PUSH1 0x1 DUP1 PUSH1 0xA0 SHL SUB DUP11 AND PUSH1 0x1 DUP1 PUSH1 0xA0 SHL SUB NOT PUSH1 0x5 SLOAD AND OR PUSH1 0x5 SSTORE PUSH1 0x1 DUP1 PUSH1 0xA0 SHL SUB DUP9 AND PUSH1 0x1 DUP1 PUSH1 0xA0 SHL SUB NOT PUSH1 0x6 SLOAD AND OR PUSH1 0x6 SSTORE PUSH1 0x1 DUP1 PUSH1 0xA0 SHL SUB DUP10 AND PUSH1 0x1 DUP1 PUSH1 0xA0 SHL SUB NOT PUSH1 0x7 SLOAD AND OR PUSH1 0x7 SSTORE PUSH1 0x1 DUP1 PUSH1 0xA0 SHL SUB NOT PUSH1 0x8 SLOAD AND OR PUSH1 0x8 SSTORE DUP12 PUSH1 0x9 SSTORE PUSH1 0xA SSTORE MUL PUSH1 0xB SSTORE PUSH1 0x1 DUP1 PUSH1 0xA0 SHL SUB AND PUSH1 0x1 DUP1 PUSH1 0xA0 SHL SUB NOT PUSH1 0xC SLOAD AND OR PUSH1 0xC SSTORE PUSH1 0x1 DUP1 PUSH1 0xA0 SHL SUB NOT PUSH1 0xD SLOAD AND PUSH1 0xD SSTORE TIMESTAMP PUSH1 0xE SSTORE PUSH0 PUSH1 0xF SSTORE PUSH1 0x1 DUP1 PUSH1 0xA0 SHL SUB AND SWAP1 PUSH1 0x1 DUP1 PUSH1 0xA8 SHL SUB NOT AND OR PUSH1 0x4 SSTORE PUSH1 0x40 MLOAD SWAP6 DUP7 MSTORE PUSH1 0x1 DUP1 PUSH1 0xA0 SHL SUB AND PUSH1 0x20 DUP7 ADD MSTORE PUSH1 0x1 DUP1 PUSH1 0xA0 SHL SUB AND PUSH1 0x40 DUP6 ADD MSTORE PUSH1 0x1 DUP1 PUSH1 0xA0 SHL SUB AND SWAP3 LOG2 PUSH1 0x40 MLOAD PUSH2 0x1595 SWAP1 DUP2 PUSH3 0x3C5 DUP3 CODECOPY RETURN JUMPDEST PUSH4 0x4E487B71 PUSH1 0xE0 SHL PUSH0 MSTORE PUSH1 0x41 PUSH1 0x4 MSTORE PUSH1 0x24 PUSH0 REVERT JUMPDEST PUSH4 0x4E487B71 PUSH1 0xE0 SHL PUSH0 MSTORE PUSH1 0x11 PUSH1 0x4 MSTORE PUSH1 0x24 PUSH0 REVERT JUMPDEST PUSH1 0x40 MLOAD PUSH3 0x461BCD PUSH1 0xE5 SHL DUP2 MSTORE PUSH1 0x20 PUSH1 0x4 DUP3 ADD MSTORE PUSH1 0x17 PUSH1 0x24 DUP3 ADD MSTORE PUSH32 0x496E76616C696420696E70757420616464726573736573000000000000000000 PUSH1 0x44 DUP3 ADD MSTORE PUSH1 0x64 SWAP1 REVERT JUMPDEST POP PUSH1 0x1 PUSH1 0x1 PUSH1 0xA0 SHL SUB DUP9 AND ISZERO ISZERO PUSH3 0x10D JUMP JUMPDEST POP PUSH1 0x1 PUSH1 0x1 PUSH1 0xA0 SHL SUB DUP12 AND ISZERO ISZERO PUSH3 0x106 JUMP JUMPDEST POP PUSH1 0x1 PUSH1 0x1 PUSH1 0xA0 SHL SUB DUP8 AND ISZERO ISZERO PUSH3 0xFF JUMP JUMPDEST PUSH0 DUP1 REVERT JUMPDEST MLOAD SWAP1 PUSH1 0x1 PUSH1 0x1 PUSH1 0xA0 SHL SUB DUP3 AND DUP3 SUB PUSH3 0x3AB JUMPI JUMP INVALID PUSH1 0x80 PUSH1 0x40 DUP2 DUP2 MSTORE PUSH1 0x4 SWAP2 DUP3 CALLDATASIZE LT ISZERO PUSH2 0x15 JUMPI PUSH0 DUP1 REVERT JUMPDEST PUSH0 SWAP3 DUP4 CALLDATALOAD PUSH1 0xE0 SHR SWAP2 DUP3 PUSH4 0xC7277DE EQ PUSH2 0x1308 JUMPI POP DUP2 PUSH4 0xF4EF8A6 EQ PUSH2 0x12E0 JUMPI DUP2 PUSH4 0x12261EE7 EQ PUSH2 0x12B7 JUMPI DUP2 PUSH4 0x2E1283E3 EQ PUSH2 0x1298 JUMPI DUP2 PUSH4 0x3B1BAEFF EQ PUSH2 0x1036 JUMPI DUP2 PUSH4 0x402D8883 EQ PUSH2 0xA20 JUMPI DUP2 PUSH4 0x5257B566 EQ PUSH2 0xA01 JUMPI DUP2 PUSH4 0x64C4BEC0 EQ PUSH2 0x9E2 JUMPI DUP2 PUSH4 0x654C6295 EQ PUSH2 0x946 JUMPI DUP2 PUSH4 0x6B6D1955 EQ PUSH2 0x926 JUMPI DUP2 PUSH4 0x8A4ADF24 EQ PUSH2 0x8FD JUMPI DUP2 PUSH4 0x8DB57994 EQ PUSH2 0x7BD JUMPI DUP2 PUSH4 0x95CB741D EQ PUSH2 0x731 JUMPI DUP2 PUSH4 0x9E9F669C EQ PUSH2 0x15F JUMPI DUP2 PUSH4 0xB2A9BB60 EQ PUSH2 0x18F JUMPI DUP2 PUSH4 0xC19D93FB EQ PUSH2 0x15F JUMPI POP DUP1 PUSH4 0xC51B9507 EQ PUSH2 0x137 JUMPI DUP1 PUSH4 0xEB0C4955 EQ PUSH2 0x114 JUMPI PUSH4 0xF4B01B18 EQ PUSH2 0xF3 JUMPI PUSH0 DUP1 REVERT JUMPDEST CALLVALUE PUSH2 0x110 JUMPI DUP2 PUSH1 0x3 NOT CALLDATASIZE ADD SLT PUSH2 0x110 JUMPI PUSH1 0x20 SWAP1 PUSH1 0x9 SLOAD SWAP1 MLOAD SWAP1 DUP2 MSTORE RETURN JUMPDEST POP DUP1 REVERT JUMPDEST POP CALLVALUE PUSH2 0x110 JUMPI DUP2 PUSH1 0x3 NOT CALLDATASIZE ADD SLT PUSH2 0x110 JUMPI PUSH1 0x20 SWAP1 PUSH2 0x130 PUSH2 0x151C JUMP JUMPDEST SWAP1 MLOAD SWAP1 DUP2 MSTORE RETURN JUMPDEST POP CALLVALUE PUSH2 0x110 JUMPI DUP2 PUSH1 0x3 NOT CALLDATASIZE ADD SLT PUSH2 0x110 JUMPI PUSH1 0x2 SLOAD SWAP1 MLOAD PUSH1 0x1 PUSH1 0x1 PUSH1 0xA0 SHL SUB SWAP1 SWAP2 AND DUP2 MSTORE PUSH1 0x20 SWAP1 RETURN JUMPDEST DUP3 DUP5 CALLVALUE PUSH2 0x18C JUMPI DUP1 PUSH1 0x3 NOT CALLDATASIZE ADD SLT PUSH2 0x18C JUMPI POP PUSH1 0xFF PUSH2 0x188 SWAP3 SLOAD PUSH1 0xA0 SHR AND SWAP1 MLOAD SWAP2 DUP3 SWAP2 DUP3 PUSH2 0x132D JUMP JUMPDEST SUB SWAP1 RETURN JUMPDEST DUP1 REVERT JUMPDEST SWAP1 POP CALLVALUE PUSH2 0x72D JUMPI DUP3 PUSH1 0x3 NOT CALLDATASIZE ADD SLT PUSH2 0x72D JUMPI PUSH2 0x1A9 PUSH2 0x1354 JUMP JUMPDEST PUSH1 0xFF DUP2 SLOAD PUSH1 0xA0 SHR AND PUSH1 0x6 DUP2 LT ISZERO PUSH2 0x71A JUMPI PUSH1 0x1 SUB PUSH2 0x6D8 JUMPI CALLER ISZERO PUSH2 0x696 JUMPI PUSH1 0x5 SLOAD PUSH1 0x1 PUSH1 0x1 PUSH1 0xA0 SHL SUB SWAP1 DUP2 AND SWAP2 SWAP1 CALLER DUP4 EQ PUSH2 0x653 JUMPI PUSH2 0x1E6 PUSH2 0x151C JUMP JUMPDEST SWAP3 PUSH2 0x1F4 PUSH1 0x9 SLOAD SWAP5 DUP6 PUSH2 0x140A JUMP JUMPDEST PUSH1 0x7 SLOAD DUP7 MLOAD PUSH4 0x6EB1769F PUSH1 0xE1 SHL DUP1 DUP3 MSTORE CALLER DUP8 DUP4 ADD SWAP1 DUP2 MSTORE ADDRESS PUSH1 0x20 DUP3 DUP2 ADD SWAP2 SWAP1 SWAP2 MSTORE SWAP9 SWAP4 DUP8 AND SWAP6 SWAP4 SWAP5 SWAP2 SWAP3 SWAP1 DUP10 SWAP1 DUP3 SWAP1 DUP2 SWAP1 PUSH1 0x40 ADD SUB DUP2 DUP10 GAS STATICCALL SWAP1 DUP2 ISZERO PUSH2 0x649 JUMPI DUP12 SWAP2 PUSH2 0x61C JUMPI JUMPDEST POP LT PUSH2 0x5CF JUMPI PUSH1 0x6 SLOAD DUP9 MLOAD SWAP2 DUP3 MSTORE PUSH1 0x1 PUSH1 0x1 PUSH1 0xA0 SHL SUB SWAP1 SWAP3 AND DUP7 DUP3 ADD SWAP1 DUP2 MSTORE ADDRESS PUSH1 0x20 DUP3 ADD MSTORE SWAP1 SWAP2 DUP8 SWAP2 DUP4 SWAP2 DUP8 AND SWAP1 DUP3 SWAP1 DUP2 SWAP1 PUSH1 0x40 ADD SUB SWAP2 GAS STATICCALL DUP1 ISZERO PUSH2 0x5C5 JUMPI DUP3 SWAP2 DUP10 SWAP2 PUSH2 0x594 JUMPI JUMPDEST POP LT PUSH2 0x551 JUMPI SWAP1 DUP7 SWAP5 SWAP4 SWAP3 SWAP2 PUSH2 0x2A0 PUSH2 0x29A PUSH2 0x151C JUMP JUMPDEST DUP3 PUSH2 0x140A JUMP JUMPDEST PUSH2 0x2A8 PUSH2 0x151C JUMP JUMPDEST DUP9 MLOAD PUSH4 0x23B872DD PUSH1 0xE0 SHL DUP1 DUP3 MSTORE CALLER DUP9 DUP4 ADD SWAP1 DUP2 MSTORE ADDRESS PUSH1 0x20 DUP3 ADD MSTORE PUSH1 0x40 DUP2 ADD SWAP5 SWAP1 SWAP5 MSTORE SWAP1 SWAP5 SWAP1 SWAP3 DUP9 SWAP2 DUP7 SWAP2 DUP3 SWAP1 DUP13 SWAP1 DUP3 SWAP1 PUSH1 0x60 ADD SUB SWAP3 GAS CALL SWAP2 DUP3 ISZERO PUSH2 0x547 JUMPI PUSH2 0x330 SWAP5 DUP9 SWAP4 PUSH2 0x52A JUMPI JUMPDEST POP DUP6 PUSH1 0x7 SLOAD AND SWAP1 DUP10 DUP8 PUSH1 0x3 SLOAD AND SWAP2 DUP13 MLOAD SWAP8 DUP9 SWAP6 DUP7 SWAP5 DUP6 SWAP4 DUP5 MSTORE CALLER DUP14 DUP6 ADD PUSH1 0x40 SWAP2 SWAP5 SWAP4 SWAP3 SWAP5 PUSH1 0x60 DUP3 ADD SWAP6 PUSH1 0x1 DUP1 PUSH1 0xA0 SHL SUB DUP1 SWAP3 AND DUP4 MSTORE AND PUSH1 0x20 DUP3 ADD MSTORE ADD MSTORE JUMP JUMPDEST SUB SWAP3 GAS CALL SWAP2 DUP3 ISZERO PUSH2 0x503 JUMPI PUSH2 0x381 SWAP3 PUSH2 0x50D JUMPI JUMPDEST POP DUP5 DUP2 DUP5 PUSH1 0x7 SLOAD AND DUP6 PUSH1 0x8 SLOAD AND DUP10 DUP12 MLOAD DUP1 SWAP8 DUP2 SWAP6 DUP3 SWAP5 PUSH4 0x95EA7B3 PUSH1 0xE0 SHL DUP5 MSTORE DUP13 DUP5 ADD PUSH1 0x20 SWAP1 SWAP4 SWAP3 SWAP2 SWAP4 PUSH1 0x40 DUP2 ADD SWAP5 PUSH1 0x1 DUP1 PUSH1 0xA0 SHL SUB AND DUP2 MSTORE ADD MSTORE JUMP JUMPDEST SUB SWAP3 GAS CALL SWAP1 DUP2 ISZERO PUSH2 0x503 JUMPI DUP7 SWAP3 DUP7 SWAP3 PUSH2 0x4E6 JUMPI JUMPDEST POP PUSH1 0x44 DUP5 PUSH1 0x8 SLOAD AND SWAP2 DUP10 MLOAD SWAP5 DUP6 SWAP4 DUP5 SWAP3 PUSH4 0x6E553F65 PUSH1 0xE0 SHL DUP5 MSTORE DUP10 DUP5 ADD MSTORE CALLER PUSH1 0x24 DUP5 ADD MSTORE GAS CALL DUP1 ISZERO PUSH2 0x4DC JUMPI PUSH2 0x4AA JUMPI JUMPDEST POP PUSH1 0x6 SLOAD PUSH1 0x9 SLOAD DUP7 MLOAD PUSH4 0xA9059CBB PUSH1 0xE0 SHL DUP2 MSTORE CALLER DUP6 DUP3 ADD SWAP1 DUP2 MSTORE PUSH1 0x20 DUP2 ADD SWAP3 SWAP1 SWAP3 MSTORE SWAP6 DUP6 SWAP4 DUP8 SWAP4 AND SWAP2 DUP4 SWAP2 SWAP1 DUP3 SWAP1 PUSH1 0x40 ADD SUB SWAP3 GAS CALL SWAP3 DUP4 ISZERO PUSH2 0x4A0 JUMPI PUSH32 0x5150AB7694A22FBC01C642BC10316565247DF962FA3F0AC3B5D1A18BA45B485B SWAP4 PUSH2 0x473 JUMPI JUMPDEST POP PUSH1 0xD DUP1 SLOAD PUSH1 0x1 PUSH1 0x1 PUSH1 0xA0 SHL SUB NOT AND CALLER OR SWAP1 SSTORE TIMESTAMP PUSH1 0xE SSTORE DUP1 SLOAD PUSH1 0xFF PUSH1 0xA0 SHL NOT AND PUSH1 0x1 PUSH1 0xA1 SHL OR SWAP1 SSTORE PUSH2 0x464 PUSH2 0x45C PUSH2 0x151C JUMP JUMPDEST PUSH1 0x9 SLOAD PUSH2 0x140A JUMP JUMPDEST SWAP3 MLOAD SWAP3 DUP4 MSTORE CALLER SWAP3 LOG2 PUSH1 0x1 DUP2 SSTORE DUP1 RETURN JUMPDEST PUSH2 0x492 SWAP1 DUP4 RETURNDATASIZE DUP6 GT PUSH2 0x499 JUMPI JUMPDEST PUSH2 0x48A DUP2 DUP4 PUSH2 0x13D0 JUMP JUMPDEST DUP2 ADD SWAP1 PUSH2 0x13F2 JUMP JUMPDEST POP PUSH0 PUSH2 0x429 JUMP JUMPDEST POP RETURNDATASIZE PUSH2 0x480 JUMP JUMPDEST DUP5 MLOAD RETURNDATASIZE DUP8 DUP3 RETURNDATACOPY RETURNDATASIZE SWAP1 REVERT JUMPDEST DUP4 DUP1 SWAP3 SWAP6 POP RETURNDATASIZE DUP4 GT PUSH2 0x4D5 JUMPI JUMPDEST PUSH2 0x4C1 DUP2 DUP4 PUSH2 0x13D0 JUMP JUMPDEST DUP2 ADD SUB SLT PUSH2 0x4D1 JUMPI DUP5 SWAP3 PUSH0 PUSH2 0x3C6 JUMP JUMPDEST PUSH0 DUP1 REVERT JUMPDEST POP RETURNDATASIZE PUSH2 0x4B7 JUMP JUMPDEST DUP7 MLOAD RETURNDATASIZE DUP8 DUP3 RETURNDATACOPY RETURNDATASIZE SWAP1 REVERT JUMPDEST PUSH2 0x4FC SWAP1 DUP4 RETURNDATASIZE DUP6 GT PUSH2 0x499 JUMPI PUSH2 0x48A DUP2 DUP4 PUSH2 0x13D0 JUMP JUMPDEST POP PUSH0 PUSH2 0x395 JUMP JUMPDEST DUP8 MLOAD RETURNDATASIZE DUP9 DUP3 RETURNDATACOPY RETURNDATASIZE SWAP1 REVERT JUMPDEST PUSH2 0x523 SWAP1 DUP7 RETURNDATASIZE DUP9 GT PUSH2 0x499 JUMPI PUSH2 0x48A DUP2 DUP4 PUSH2 0x13D0 JUMP JUMPDEST POP PUSH0 PUSH2 0x344 JUMP JUMPDEST PUSH2 0x540 SWAP1 DUP5 RETURNDATASIZE DUP7 GT PUSH2 0x499 JUMPI PUSH2 0x48A DUP2 DUP4 PUSH2 0x13D0 JUMP JUMPDEST POP PUSH0 PUSH2 0x2F1 JUMP JUMPDEST DUP10 MLOAD RETURNDATASIZE DUP11 DUP3 RETURNDATACOPY RETURNDATASIZE SWAP1 REVERT JUMPDEST DUP6 MLOAD PUSH3 0x461BCD PUSH1 0xE5 SHL DUP2 MSTORE DUP1 DUP6 ADD DUP7 SWAP1 MSTORE PUSH1 0x1B PUSH1 0x24 DUP3 ADD MSTORE PUSH32 0x496E73756666696369656E74206C6F616E20616C6C6F77616E63650000000000 PUSH1 0x44 DUP3 ADD MSTORE PUSH1 0x64 SWAP1 REVERT JUMPDEST DUP1 SWAP3 POP DUP8 DUP1 SWAP3 POP RETURNDATASIZE DUP4 GT PUSH2 0x5BE JUMPI JUMPDEST PUSH2 0x5AD DUP2 DUP4 PUSH2 0x13D0 JUMP JUMPDEST DUP2 ADD SUB SLT PUSH2 0x4D1 JUMPI DUP2 SWAP1 MLOAD PUSH0 PUSH2 0x283 JUMP JUMPDEST POP RETURNDATASIZE PUSH2 0x5A3 JUMP JUMPDEST DUP8 MLOAD RETURNDATASIZE DUP11 DUP3 RETURNDATACOPY RETURNDATASIZE SWAP1 REVERT JUMPDEST DUP8 MLOAD PUSH3 0x461BCD PUSH1 0xE5 SHL DUP2 MSTORE DUP1 DUP8 ADD DUP9 SWAP1 MSTORE PUSH1 0x21 PUSH1 0x24 DUP3 ADD MSTORE PUSH32 0x496E73756666696369656E7420636F6C6C61746572616C20616C6C6F77616E63 PUSH1 0x44 DUP3 ADD MSTORE PUSH1 0x65 PUSH1 0xF8 SHL PUSH1 0x64 DUP3 ADD MSTORE PUSH1 0x84 SWAP1 REVERT JUMPDEST SWAP1 POP DUP9 DUP2 DUP2 RETURNDATASIZE DUP4 GT PUSH2 0x642 JUMPI JUMPDEST PUSH2 0x633 DUP2 DUP4 PUSH2 0x13D0 JUMP JUMPDEST DUP2 ADD SUB SLT PUSH2 0x4D1 JUMPI MLOAD PUSH0 PUSH2 0x23B JUMP JUMPDEST POP RETURNDATASIZE PUSH2 0x629 JUMP JUMPDEST DUP11 MLOAD RETURNDATASIZE DUP14 DUP3 RETURNDATACOPY RETURNDATASIZE SWAP1 REVERT JUMPDEST DUP4 MLOAD PUSH3 0x461BCD PUSH1 0xE5 SHL DUP2 MSTORE PUSH1 0x20 DUP2 DUP5 ADD MSTORE PUSH1 0x19 PUSH1 0x24 DUP3 ADD MSTORE PUSH32 0x4C656E6465722063616E6E6F7420626520626F72726F77657200000000000000 PUSH1 0x44 DUP3 ADD MSTORE PUSH1 0x64 SWAP1 REVERT JUMPDEST PUSH1 0x20 PUSH1 0x64 SWAP3 MLOAD SWAP2 PUSH3 0x461BCD PUSH1 0xE5 SHL DUP4 MSTORE DUP3 ADD MSTORE PUSH1 0x18 PUSH1 0x24 DUP3 ADD MSTORE PUSH32 0x496E76616C696420626F72726F77657220616464726573730000000000000000 PUSH1 0x44 DUP3 ADD MSTORE REVERT JUMPDEST PUSH1 0x20 PUSH1 0x64 SWAP3 MLOAD SWAP2 PUSH3 0x461BCD PUSH1 0xE5 SHL DUP4 MSTORE DUP3 ADD MSTORE PUSH1 0x1A PUSH1 0x24 DUP3 ADD MSTORE PUSH32 0x4C6F616E206E6F7420726561647920746F206163746976617465000000000000 PUSH1 0x44 DUP3 ADD MSTORE REVERT JUMPDEST PUSH4 0x4E487B71 PUSH1 0xE0 SHL DUP5 MSTORE PUSH1 0x21 DUP3 MSTORE PUSH1 0x24 DUP5 REVERT JUMPDEST DUP3 DUP1 REVERT JUMPDEST POP POP CALLVALUE PUSH2 0x110 JUMPI DUP2 PUSH1 0x3 NOT CALLDATASIZE ADD SLT PUSH2 0x110 JUMPI PUSH2 0x160 SWAP1 PUSH1 0x1 DUP1 PUSH1 0xA0 SHL SUB DUP1 PUSH1 0x5 SLOAD AND SWAP2 DUP2 PUSH1 0x6 SLOAD AND SWAP2 DUP1 PUSH1 0x7 SLOAD AND SWAP1 DUP1 PUSH1 0x8 SLOAD AND PUSH1 0x9 SLOAD PUSH1 0xA SLOAD SWAP1 PUSH1 0xB SLOAD SWAP3 DUP5 PUSH1 0xC SLOAD AND SWAP5 PUSH1 0xD SLOAD AND SWAP6 PUSH1 0xE SLOAD SWAP8 PUSH1 0xF SLOAD SWAP10 DUP2 MLOAD SWAP12 DUP13 MSTORE PUSH1 0x20 DUP13 ADD MSTORE DUP11 ADD MSTORE PUSH1 0x60 DUP10 ADD MSTORE PUSH1 0x80 DUP9 ADD MSTORE PUSH1 0xA0 DUP8 ADD MSTORE PUSH1 0xC0 DUP7 ADD MSTORE PUSH1 0xE0 DUP6 ADD MSTORE PUSH2 0x100 DUP5 ADD MSTORE PUSH2 0x120 DUP4 ADD MSTORE PUSH2 0x140 DUP3 ADD MSTORE RETURN JUMPDEST SWAP1 POP CALLVALUE PUSH2 0x72D JUMPI DUP3 PUSH1 0x3 NOT CALLDATASIZE ADD SLT PUSH2 0x72D JUMPI PUSH2 0x7D7 PUSH2 0x1354 JUMP JUMPDEST PUSH1 0xFF DUP2 SLOAD PUSH1 0xA0 SHR AND PUSH1 0x6 DUP2 LT ISZERO PUSH2 0x71A JUMPI PUSH2 0x8BB JUMPI PUSH1 0x6 SLOAD PUSH1 0x5 SLOAD PUSH1 0x9 SLOAD DUP5 MLOAD PUSH4 0x23B872DD PUSH1 0xE0 SHL DUP2 MSTORE PUSH1 0x1 PUSH1 0x1 PUSH1 0xA0 SHL SUB SWAP3 DUP4 AND DUP6 DUP3 ADD SWAP1 DUP2 MSTORE ADDRESS PUSH1 0x20 DUP3 DUP2 ADD SWAP2 SWAP1 SWAP2 MSTORE PUSH1 0x40 DUP3 ADD SWAP4 SWAP1 SWAP4 MSTORE SWAP1 SWAP4 SWAP2 SWAP3 DUP5 SWAP3 AND SWAP1 DUP3 SWAP1 DUP9 SWAP1 DUP3 SWAP1 PUSH1 0x60 ADD SUB SWAP3 GAS CALL DUP1 ISZERO PUSH2 0x8AE JUMPI SWAP2 PUSH32 0x9E71D2FB732E68272B7E74ECFD14638673C1D77E19A5D390A3FFFF054D57C44B SWAP4 SWAP2 PUSH1 0x20 SWAP4 PUSH2 0x891 JUMPI JUMPDEST POP TIMESTAMP PUSH1 0xF SSTORE DUP1 SLOAD PUSH1 0xFF PUSH1 0xA0 SHL NOT AND PUSH1 0x1 PUSH1 0xA0 SHL OR SWAP1 SSTORE PUSH1 0x9 SLOAD SWAP1 MLOAD SWAP1 DUP2 MSTORE LOG1 PUSH1 0x1 DUP2 SSTORE DUP1 RETURN JUMPDEST PUSH2 0x8A7 SWAP1 DUP5 RETURNDATASIZE DUP2 GT PUSH2 0x499 JUMPI PUSH2 0x48A DUP2 DUP4 PUSH2 0x13D0 JUMP JUMPDEST POP PUSH0 PUSH2 0x86B JUMP JUMPDEST POP POP POP MLOAD SWAP1 RETURNDATASIZE SWAP1 DUP3 RETURNDATACOPY RETURNDATASIZE SWAP1 REVERT JUMPDEST PUSH1 0x20 PUSH1 0x64 SWAP3 MLOAD SWAP2 PUSH3 0x461BCD PUSH1 0xE5 SHL DUP4 MSTORE DUP3 ADD MSTORE PUSH1 0x1B PUSH1 0x24 DUP3 ADD MSTORE PUSH32 0x4C6F616E206E6F7420696E20637265617461626C652073746174650000000000 PUSH1 0x44 DUP3 ADD MSTORE REVERT JUMPDEST POP POP CALLVALUE PUSH2 0x110 JUMPI DUP2 PUSH1 0x3 NOT CALLDATASIZE ADD SLT PUSH2 0x110 JUMPI PUSH1 0x3 SLOAD SWAP1 MLOAD PUSH1 0x1 PUSH1 0x1 PUSH1 0xA0 SHL SUB SWAP1 SWAP2 AND DUP2 MSTORE PUSH1 0x20 SWAP1 RETURN JUMPDEST POP POP CALLVALUE PUSH2 0x110 JUMPI DUP2 PUSH1 0x3 NOT CALLDATASIZE ADD SLT PUSH2 0x110 JUMPI PUSH1 0x20 SWAP1 PUSH2 0x130 PUSH2 0x45C PUSH2 0x151C JUMP JUMPDEST DUP4 DUP4 CALLVALUE PUSH2 0x110 JUMPI PUSH1 0x20 SWAP3 DUP4 PUSH1 0x3 NOT CALLDATASIZE ADD SLT PUSH2 0x72D JUMPI DUP1 CALLDATALOAD PUSH1 0x1 PUSH1 0x1 PUSH1 0xA0 SHL SUB DUP2 DUP2 AND SWAP2 DUP3 SWAP1 SUB PUSH2 0x9DE JUMPI SWAP1 PUSH1 0x24 DUP7 SWAP3 PUSH1 0x8 SLOAD AND SWAP4 DUP6 MLOAD SWAP5 DUP6 SWAP4 DUP5 SWAP3 PUSH4 0x70A08231 PUSH1 0xE0 SHL DUP5 MSTORE DUP4 ADD MSTORE GAS STATICCALL SWAP3 DUP4 ISZERO PUSH2 0x9D3 JUMPI SWAP3 PUSH2 0x9A4 JUMPI JUMPDEST POP MLOAD SWAP1 DUP2 MSTORE RETURN JUMPDEST SWAP1 SWAP2 POP DUP3 DUP2 DUP2 RETURNDATASIZE DUP4 GT PUSH2 0x9CC JUMPI JUMPDEST PUSH2 0x9BC DUP2 DUP4 PUSH2 0x13D0 JUMP JUMPDEST DUP2 ADD SUB SLT PUSH2 0x4D1 JUMPI MLOAD SWAP1 DUP4 PUSH2 0x99D JUMP JUMPDEST POP RETURNDATASIZE PUSH2 0x9B2 JUMP JUMPDEST DUP3 MLOAD SWAP1 RETURNDATASIZE SWAP1 DUP3 RETURNDATACOPY RETURNDATASIZE SWAP1 REVERT JUMPDEST DUP5 DUP1 REVERT JUMPDEST POP POP CALLVALUE PUSH2 0x110 JUMPI DUP2 PUSH1 0x3 NOT CALLDATASIZE ADD SLT PUSH2 0x110 JUMPI PUSH1 0x20 SWAP1 PUSH1 0xB SLOAD SWAP1 MLOAD SWAP1 DUP2 MSTORE RETURN JUMPDEST POP POP CALLVALUE PUSH2 0x110 JUMPI DUP2 PUSH1 0x3 NOT CALLDATASIZE ADD SLT PUSH2 0x110 JUMPI PUSH1 0x20 SWAP1 PUSH1 0xA SLOAD SWAP1 MLOAD SWAP1 DUP2 MSTORE RETURN JUMPDEST DUP4 DUP4 CALLVALUE PUSH2 0x110 JUMPI DUP2 PUSH1 0x3 NOT CALLDATASIZE ADD SLT PUSH2 0x110 JUMPI PUSH2 0xA3A PUSH2 0x1354 JUMP JUMPDEST PUSH1 0x9 SLOAD PUSH1 0xFF DUP5 SLOAD PUSH1 0xA0 SHR AND PUSH1 0x6 DUP2 LT ISZERO PUSH2 0x1023 JUMPI PUSH1 0x5 DUP2 EQ PUSH2 0xFE9 JUMPI DUP5 DUP2 EQ PUSH2 0xFAD JUMPI PUSH1 0x3 EQ PUSH2 0xF76 JUMPI PUSH1 0x5 SLOAD PUSH1 0x1 PUSH1 0x1 PUSH1 0xA0 SHL SUB SWAP1 DUP2 AND SWAP3 SWAP1 PUSH2 0xA85 PUSH2 0xA7F PUSH2 0x151C JUMP JUMPDEST DUP5 PUSH2 0x140A JUMP JUMPDEST PUSH1 0x7 SLOAD DUP4 MLOAD PUSH4 0x6EB1769F PUSH1 0xE1 SHL DUP2 MSTORE CALLER DUP10 DUP3 ADD SWAP1 DUP2 MSTORE ADDRESS PUSH1 0x20 DUP3 DUP2 ADD SWAP2 SWAP1 SWAP2 MSTORE SWAP8 SWAP4 SWAP7 SWAP4 SWAP3 DUP6 AND SWAP2 SWAP1 DUP9 SWAP1 DUP3 SWAP1 DUP2 SWAP1 PUSH1 0x40 ADD SUB DUP2 DUP6 GAS STATICCALL SWAP1 DUP2 ISZERO PUSH2 0xF6C JUMPI SWAP1 DUP8 SWAP2 DUP11 SWAP2 PUSH2 0xF37 JUMPI JUMPDEST POP LT PUSH2 0xEE1 JUMPI DUP5 MLOAD PUSH4 0x70A08231 PUSH1 0xE0 SHL DUP2 MSTORE CALLER DUP11 DUP3 ADD MSTORE SWAP1 DUP8 SWAP1 DUP3 SWAP1 PUSH1 0x24 SWAP1 DUP3 SWAP1 GAS STATICCALL SWAP1 DUP2 ISZERO PUSH2 0xE31 JUMPI SWAP1 DUP7 SWAP2 DUP10 SWAP2 PUSH2 0xEAC JUMPI JUMPDEST POP LT PUSH2 0xE58 JUMPI PUSH1 0x6 SLOAD DUP5 MLOAD PUSH4 0x23B872DD PUSH1 0xE0 SHL DUP2 MSTORE CALLER DUP2 DUP12 ADD SWAP1 DUP2 MSTORE ADDRESS PUSH1 0x20 DUP3 ADD MSTORE PUSH1 0x40 DUP2 ADD DUP6 SWAP1 MSTORE SWAP1 SWAP2 DUP9 SWAP2 DUP4 SWAP2 DUP8 AND SWAP1 DUP3 SWAP1 DUP13 SWAP1 DUP3 SWAP1 PUSH1 0x60 ADD SUB SWAP3 GAS CALL DUP1 ISZERO PUSH2 0xE31 JUMPI PUSH2 0xE3B JUMPI JUMPDEST POP PUSH1 0x7 SLOAD DUP5 MLOAD PUSH4 0x95EA7B3 PUSH1 0xE0 SHL DUP2 MSTORE PUSH1 0x1 PUSH1 0x1 PUSH1 0xA0 SHL SUB DUP4 AND DUP2 DUP12 ADD SWAP1 DUP2 MSTORE PUSH1 0x20 DUP2 ADD DUP6 SWAP1 MSTORE SWAP1 SWAP2 DUP9 SWAP2 DUP4 SWAP2 DUP8 AND SWAP1 DUP3 SWAP1 DUP13 SWAP1 DUP3 SWAP1 PUSH1 0x40 ADD SUB SWAP3 GAS CALL DUP1 ISZERO PUSH2 0xE31 JUMPI PUSH2 0xBD3 SWAP3 DUP9 SWAP3 DUP6 SWAP3 PUSH2 0xE14 JUMPI JUMPDEST POP DUP6 PUSH1 0x7 SLOAD AND SWAP1 DUP11 DUP13 DUP10 MLOAD SWAP7 DUP8 SWAP6 DUP7 SWAP5 DUP6 SWAP4 PUSH4 0xA9059CBB PUSH1 0xE0 SHL DUP6 MSTORE DUP5 ADD PUSH1 0x20 SWAP1 SWAP4 SWAP3 SWAP2 SWAP4 PUSH1 0x40 DUP2 ADD SWAP5 PUSH1 0x1 DUP1 PUSH1 0xA0 SHL SUB AND DUP2 MSTORE ADD MSTORE JUMP JUMPDEST SUB SWAP3 GAS CALL DUP1 ISZERO PUSH2 0xDAA JUMPI PUSH2 0xDF7 JUMPI JUMPDEST POP PUSH2 0xBEE PUSH2 0x45C PUSH2 0x151C JUMP JUMPDEST DUP2 SUB PUSH2 0xDB4 JUMPI DUP2 PUSH1 0x8 SLOAD AND SWAP1 DUP4 MLOAD SWAP1 PUSH4 0x63737AC9 PUSH1 0xE1 SHL DUP3 MSTORE DUP9 DUP3 ADD MSTORE DUP6 DUP2 PUSH1 0x24 DUP2 DUP6 GAS STATICCALL SWAP1 DUP2 ISZERO PUSH2 0xDAA JUMPI SWAP1 DUP7 SWAP2 DUP9 SWAP2 PUSH2 0xD75 JUMPI JUMPDEST POP DUP5 MLOAD PUSH4 0x5D043B29 PUSH1 0xE1 SHL DUP2 MSTORE DUP1 DUP11 ADD SWAP2 DUP3 MSTORE CALLER PUSH1 0x20 DUP4 ADD DUP2 SWAP1 MSTORE PUSH1 0x40 DUP4 ADD MSTORE SWAP3 DUP4 SWAP2 DUP3 SWAP1 DUP11 SWAP1 DUP3 SWAP1 PUSH1 0x60 ADD JUMPDEST SUB SWAP3 GAS CALL DUP1 ISZERO PUSH2 0xD6B JUMPI SWAP1 DUP6 SWAP2 PUSH2 0xD42 JUMPI JUMPDEST POP POP DUP1 PUSH1 0x3 SLOAD AND SWAP1 PUSH1 0xD SLOAD AND DUP2 EXTCODESIZE ISZERO PUSH2 0xD3E JUMPI DUP3 MLOAD PUSH4 0x56F78A1D PUSH1 0xE0 SHL DUP2 MSTORE ADDRESS DUP9 DUP3 ADD SWAP1 DUP2 MSTORE PUSH1 0x1 PUSH1 0x1 PUSH1 0xA0 SHL SUB SWAP1 SWAP3 AND PUSH1 0x20 DUP4 ADD MSTORE SWAP2 DUP7 SWAP2 DUP4 SWAP2 SWAP1 DUP3 SWAP1 DUP5 SWAP1 DUP3 SWAP1 PUSH1 0x40 ADD SUB SWAP3 GAS CALL DUP1 ISZERO PUSH2 0xD34 JUMPI PUSH2 0xD03 JUMPI JUMPDEST POP DUP5 SLOAD PUSH1 0xFF PUSH1 0xA0 SHL NOT AND PUSH1 0x1 PUSH1 0xA2 SHL OR SWAP1 SWAP5 SSTORE SWAP2 SWAP3 PUSH32 0x4002DBA848920F438092E08090CFB5FC47144C22704268B402C9553A1B5ADFE6 SWAP3 SWAP1 PUSH2 0xCF7 PUSH2 0x142B JUMP JUMPDEST MLOAD SWAP1 DUP2 MSTORE LOG1 PUSH1 0x1 DUP2 SSTORE DUP1 RETURN JUMPDEST SWAP4 PUSH2 0xD2E PUSH32 0x4002DBA848920F438092E08090CFB5FC47144C22704268B402C9553A1B5ADFE6 SWAP6 PUSH2 0x13A8 JUMP JUMPDEST SWAP4 PUSH2 0xCB7 JUMP JUMPDEST DUP3 MLOAD RETURNDATASIZE DUP8 DUP3 RETURNDATACOPY RETURNDATASIZE SWAP1 REVERT JUMPDEST DUP6 DUP1 REVERT JUMPDEST DUP2 RETURNDATASIZE DUP4 GT PUSH2 0xD64 JUMPI JUMPDEST PUSH2 0xD55 DUP2 DUP4 PUSH2 0x13D0 JUMP JUMPDEST DUP2 ADD SUB SLT PUSH2 0x9DE JUMPI DUP4 DUP8 PUSH2 0xC63 JUMP JUMPDEST POP RETURNDATASIZE PUSH2 0xD4B JUMP JUMPDEST DUP4 MLOAD RETURNDATASIZE DUP9 DUP3 RETURNDATACOPY RETURNDATASIZE SWAP1 REVERT JUMPDEST DUP3 DUP2 SWAP4 SWAP3 POP RETURNDATASIZE DUP4 GT PUSH2 0xDA3 JUMPI JUMPDEST PUSH2 0xD8C DUP2 DUP4 PUSH2 0x13D0 JUMP JUMPDEST DUP2 ADD SUB SLT PUSH2 0xD9F JUMPI MLOAD DUP6 SWAP1 PUSH2 0xC51 PUSH2 0xC24 JUMP JUMPDEST DUP7 DUP1 REVERT JUMPDEST POP RETURNDATASIZE PUSH2 0xD82 JUMP JUMPDEST DUP5 MLOAD RETURNDATASIZE DUP10 DUP3 RETURNDATACOPY RETURNDATASIZE SWAP1 REVERT JUMPDEST DUP3 MLOAD PUSH3 0x461BCD PUSH1 0xE5 SHL DUP2 MSTORE DUP1 DUP9 ADD DUP7 SWAP1 MSTORE PUSH1 0x1E PUSH1 0x24 DUP3 ADD MSTORE PUSH32 0x436F6C6C61746572616C20696E707574206D7573742062652073616D65210000 PUSH1 0x44 DUP3 ADD MSTORE PUSH1 0x64 SWAP1 REVERT JUMPDEST PUSH2 0xE0D SWAP1 DUP7 RETURNDATASIZE DUP9 GT PUSH2 0x499 JUMPI PUSH2 0x48A DUP2 DUP4 PUSH2 0x13D0 JUMP JUMPDEST POP DUP8 PUSH2 0xBE2 JUMP JUMPDEST PUSH2 0xE2A SWAP1 DUP5 RETURNDATASIZE DUP7 GT PUSH2 0x499 JUMPI PUSH2 0x48A DUP2 DUP4 PUSH2 0x13D0 JUMP JUMPDEST POP DUP12 PUSH2 0xB9B JUMP JUMPDEST DUP6 MLOAD RETURNDATASIZE DUP11 DUP3 RETURNDATACOPY RETURNDATASIZE SWAP1 REVERT JUMPDEST PUSH2 0xE51 SWAP1 DUP8 RETURNDATASIZE DUP10 GT PUSH2 0x499 JUMPI PUSH2 0x48A DUP2 DUP4 PUSH2 0x13D0 JUMP JUMPDEST POP DUP9 PUSH2 0xB4B JUMP JUMPDEST DUP4 MLOAD PUSH3 0x461BCD PUSH1 0xE5 SHL DUP2 MSTORE DUP1 DUP10 ADD DUP8 SWAP1 MSTORE PUSH1 0x28 PUSH1 0x24 DUP3 ADD MSTORE PUSH32 0x496E73756666696369656E7420746F6B656E2062616C616E636520666F722072 PUSH1 0x44 DUP3 ADD MSTORE PUSH8 0x195C185E5B595B9D PUSH1 0xC2 SHL PUSH1 0x64 DUP3 ADD MSTORE PUSH1 0x84 SWAP1 REVERT JUMPDEST DUP1 SWAP3 POP DUP9 DUP1 SWAP3 POP RETURNDATASIZE DUP4 GT PUSH2 0xEDA JUMPI JUMPDEST PUSH2 0xEC5 DUP2 DUP4 PUSH2 0x13D0 JUMP JUMPDEST DUP2 ADD SUB SLT PUSH2 0xED6 JUMPI DUP6 SWAP1 MLOAD DUP11 PUSH2 0xB01 JUMP JUMPDEST DUP8 DUP1 REVERT JUMPDEST POP RETURNDATASIZE PUSH2 0xEBB JUMP JUMPDEST DUP5 MLOAD PUSH3 0x461BCD PUSH1 0xE5 SHL DUP2 MSTORE DUP1 DUP11 ADD DUP9 SWAP1 MSTORE PUSH1 0x2A PUSH1 0x24 DUP3 ADD MSTORE PUSH32 0x496E73756666696369656E7420746F6B656E20616C6C6F77616E636520666F72 PUSH1 0x44 DUP3 ADD MSTORE PUSH10 0x81C995C185E5B595B9D PUSH1 0xB2 SHL PUSH1 0x64 DUP3 ADD MSTORE PUSH1 0x84 SWAP1 REVERT JUMPDEST DUP1 SWAP3 POP DUP10 DUP1 SWAP3 POP RETURNDATASIZE DUP4 GT PUSH2 0xF65 JUMPI JUMPDEST PUSH2 0xF50 DUP2 DUP4 PUSH2 0x13D0 JUMP JUMPDEST DUP2 ADD SUB SLT PUSH2 0xF61 JUMPI DUP7 SWAP1 MLOAD DUP12 PUSH2 0xACD JUMP JUMPDEST DUP9 DUP1 REVERT JUMPDEST POP RETURNDATASIZE PUSH2 0xF46 JUMP JUMPDEST DUP7 MLOAD RETURNDATASIZE DUP12 DUP3 RETURNDATACOPY RETURNDATASIZE SWAP1 REVERT JUMPDEST DUP2 MLOAD PUSH3 0x461BCD PUSH1 0xE5 SHL DUP2 MSTORE PUSH1 0x20 DUP2 DUP7 ADD MSTORE PUSH1 0x11 PUSH1 0x24 DUP3 ADD MSTORE PUSH17 0x131BD85B881A5CC8111959985D5B1D1959 PUSH1 0x7A SHL PUSH1 0x44 DUP3 ADD MSTORE PUSH1 0x64 SWAP1 REVERT JUMPDEST DUP3 MLOAD PUSH3 0x461BCD PUSH1 0xE5 SHL DUP2 MSTORE PUSH1 0x20 DUP2 DUP8 ADD MSTORE PUSH1 0x16 PUSH1 0x24 DUP3 ADD MSTORE PUSH22 0x131BD85B881A5CC8185B1C9958591E48149154105251 PUSH1 0x52 SHL PUSH1 0x44 DUP3 ADD MSTORE PUSH1 0x64 SWAP1 REVERT JUMPDEST DUP3 MLOAD PUSH3 0x461BCD PUSH1 0xE5 SHL DUP2 MSTORE PUSH1 0x20 DUP2 DUP8 ADD MSTORE PUSH1 0x14 PUSH1 0x24 DUP3 ADD MSTORE PUSH20 0x4C6F616E20696E20436C6F736564205374617465 PUSH1 0x60 SHL PUSH1 0x44 DUP3 ADD MSTORE PUSH1 0x64 SWAP1 REVERT JUMPDEST PUSH4 0x4E487B71 PUSH1 0xE0 SHL DUP5 MSTORE PUSH1 0x21 DUP6 MSTORE PUSH1 0x24 DUP5 REVERT JUMPDEST SWAP1 POP CALLVALUE PUSH2 0x72D JUMPI DUP3 PUSH1 0x3 NOT CALLDATASIZE ADD SLT PUSH2 0x72D JUMPI PUSH1 0xFF DUP2 SLOAD PUSH1 0xA0 SHR AND PUSH1 0x6 DUP2 LT ISZERO PUSH2 0x71A JUMPI PUSH1 0x2 SUB PUSH2 0x1261 JUMPI PUSH2 0x106F PUSH1 0xE SLOAD PUSH1 0xB SLOAD SWAP1 PUSH2 0x140A JUMP JUMPDEST TIMESTAMP LT PUSH2 0x1214 JUMPI PUSH1 0x8 SLOAD PUSH1 0xD SLOAD DUP4 MLOAD PUSH4 0x70A08231 PUSH1 0xE0 SHL DUP2 MSTORE PUSH1 0x1 PUSH1 0x1 PUSH1 0xA0 SHL SUB SWAP2 DUP3 AND DUP5 DUP3 ADD DUP2 SWAP1 MSTORE SWAP2 SWAP5 PUSH1 0x20 SWAP4 DUP7 AND SWAP3 SWAP1 SWAP2 DUP5 DUP2 PUSH1 0x24 DUP2 DUP8 GAS STATICCALL SWAP1 DUP2 ISZERO PUSH2 0x11DD JUMPI DUP9 SWAP2 PUSH2 0x11E7 JUMPI JUMPDEST POP DUP3 MLOAD SWAP1 PUSH4 0x63737AC9 PUSH1 0xE1 SHL DUP3 MSTORE DUP7 DUP3 ADD MSTORE DUP5 DUP2 PUSH1 0x24 DUP2 DUP8 GAS STATICCALL SWAP1 DUP2 ISZERO PUSH2 0x11DD JUMPI SWAP1 DUP6 SWAP3 SWAP2 DUP10 SWAP2 PUSH2 0x11AA JUMPI JUMPDEST POP PUSH1 0x5 SLOAD DUP5 MLOAD PUSH4 0x5D043B29 PUSH1 0xE1 SHL DUP2 MSTORE DUP9 DUP2 ADD SWAP3 DUP4 MSTORE PUSH1 0x1 PUSH1 0x1 PUSH1 0xA0 SHL SUB SWAP2 DUP11 AND DUP3 AND PUSH1 0x20 DUP5 ADD MSTORE SWAP3 AND PUSH1 0x40 DUP3 ADD MSTORE SWAP1 SWAP4 DUP5 SWAP2 DUP3 SWAP1 DUP11 SWAP1 DUP3 SWAP1 PUSH1 0x60 ADD JUMPDEST SUB SWAP3 GAS CALL SWAP1 DUP2 ISZERO PUSH2 0x11A1 JUMPI POP PUSH2 0x1178 JUMPI JUMPDEST POP POP DUP1 SLOAD PUSH1 0xFF PUSH1 0xA0 SHL NOT AND PUSH1 0x3 PUSH1 0xA0 SHL OR SWAP1 SSTORE PUSH2 0x114D PUSH2 0x142B JUMP JUMPDEST PUSH1 0xD SLOAD AND PUSH32 0xF4E5CF42CBB1D0C6C91E16D925349FEB6C5D970652F6EC77B1FF1262F7284CD5 DUP3 DUP1 LOG2 DUP1 RETURN JUMPDEST DUP2 RETURNDATASIZE DUP4 GT PUSH2 0x119A JUMPI JUMPDEST PUSH2 0x118B DUP2 DUP4 PUSH2 0x13D0 JUMP JUMPDEST DUP2 ADD SUB SLT PUSH2 0x72D JUMPI PUSH0 DUP1 PUSH2 0x1132 JUMP JUMPDEST POP RETURNDATASIZE PUSH2 0x1181 JUMP JUMPDEST MLOAD RETURNDATASIZE DUP8 DUP3 RETURNDATACOPY RETURNDATASIZE SWAP1 REVERT JUMPDEST DUP4 DUP2 SWAP5 SWAP3 POP RETURNDATASIZE DUP4 GT PUSH2 0x11D6 JUMPI JUMPDEST PUSH2 0x11C1 DUP2 DUP4 PUSH2 0x13D0 JUMP JUMPDEST DUP2 ADD SUB SLT PUSH2 0xED6 JUMPI SWAP1 MLOAD DUP5 SWAP2 SWAP1 PUSH2 0x1121 PUSH2 0x10E4 JUMP JUMPDEST POP RETURNDATASIZE PUSH2 0x11B7 JUMP JUMPDEST DUP4 MLOAD RETURNDATASIZE DUP11 DUP3 RETURNDATACOPY RETURNDATASIZE SWAP1 REVERT JUMPDEST SWAP1 POP DUP5 DUP2 DUP2 RETURNDATASIZE DUP4 GT PUSH2 0x120D JUMPI JUMPDEST PUSH2 0x11FE DUP2 DUP4 PUSH2 0x13D0 JUMP JUMPDEST DUP2 ADD SUB SLT PUSH2 0xED6 JUMPI MLOAD PUSH0 PUSH2 0x10B8 JUMP JUMPDEST POP RETURNDATASIZE PUSH2 0x11F4 JUMP JUMPDEST PUSH1 0x20 PUSH1 0x84 SWAP3 MLOAD SWAP2 PUSH3 0x461BCD PUSH1 0xE5 SHL DUP4 MSTORE DUP3 ADD MSTORE PUSH1 0x22 PUSH1 0x24 DUP3 ADD MSTORE PUSH32 0x52657061796D656E7420706572696F6420686173206E6F742079657420656E64 PUSH1 0x44 DUP3 ADD MSTORE PUSH2 0x1959 PUSH1 0xF2 SHL PUSH1 0x64 DUP3 ADD MSTORE REVERT JUMPDEST PUSH1 0x20 PUSH1 0x64 SWAP3 MLOAD SWAP2 PUSH3 0x461BCD PUSH1 0xE5 SHL DUP4 MSTORE DUP3 ADD MSTORE PUSH1 0x12 PUSH1 0x24 DUP3 ADD MSTORE PUSH18 0x4C6F616E206973206E6F7420616374697665 PUSH1 0x70 SHL PUSH1 0x44 DUP3 ADD MSTORE REVERT JUMPDEST POP POP CALLVALUE PUSH2 0x110 JUMPI DUP2 PUSH1 0x3 NOT CALLDATASIZE ADD SLT PUSH2 0x110 JUMPI PUSH1 0x20 SWAP1 PUSH1 0xF SLOAD SWAP1 MLOAD SWAP1 DUP2 MSTORE RETURN JUMPDEST POP POP CALLVALUE PUSH2 0x110 JUMPI DUP2 PUSH1 0x3 NOT CALLDATASIZE ADD SLT PUSH2 0x110 JUMPI PUSH1 0x1 SLOAD SWAP1 MLOAD PUSH1 0x1 PUSH1 0x1 PUSH1 0xA0 SHL SUB SWAP1 SWAP2 AND DUP2 MSTORE PUSH1 0x20 SWAP1 RETURN JUMPDEST SWAP1 POP CALLVALUE PUSH2 0x72D JUMPI DUP3 PUSH1 0x3 NOT CALLDATASIZE ADD SLT PUSH2 0x72D JUMPI SLOAD SWAP1 MLOAD PUSH1 0x1 PUSH1 0x1 PUSH1 0xA0 SHL SUB SWAP1 SWAP2 AND DUP2 MSTORE PUSH1 0x20 SWAP2 POP RETURN JUMPDEST DUP5 SWAP1 CALLVALUE PUSH2 0x110 JUMPI DUP2 PUSH1 0x3 NOT CALLDATASIZE ADD SLT PUSH2 0x110 JUMPI PUSH1 0x7 SLOAD PUSH1 0x1 PUSH1 0x1 PUSH1 0xA0 SHL SUB AND DUP2 MSTORE PUSH1 0x20 SWAP1 RETURN JUMPDEST SWAP2 SWAP1 PUSH1 0x20 DUP4 ADD SWAP3 PUSH1 0x6 DUP3 LT ISZERO PUSH2 0x1340 JUMPI MSTORE JUMP JUMPDEST PUSH4 0x4E487B71 PUSH1 0xE0 SHL PUSH0 MSTORE PUSH1 0x21 PUSH1 0x4 MSTORE PUSH1 0x24 PUSH0 REVERT JUMPDEST PUSH1 0x2 PUSH0 SLOAD EQ PUSH2 0x1363 JUMPI PUSH1 0x2 PUSH0 SSTORE JUMP JUMPDEST PUSH1 0x40 MLOAD PUSH3 0x461BCD PUSH1 0xE5 SHL DUP2 MSTORE PUSH1 0x20 PUSH1 0x4 DUP3 ADD MSTORE PUSH1 0x1F PUSH1 0x24 DUP3 ADD MSTORE PUSH32 0x5265656E7472616E637947756172643A207265656E7472616E742063616C6C00 PUSH1 0x44 DUP3 ADD MSTORE PUSH1 0x64 SWAP1 REVERT JUMPDEST PUSH8 0xFFFFFFFFFFFFFFFF DUP2 GT PUSH2 0x13BC JUMPI PUSH1 0x40 MSTORE JUMP JUMPDEST PUSH4 0x4E487B71 PUSH1 0xE0 SHL PUSH0 MSTORE PUSH1 0x41 PUSH1 0x4 MSTORE PUSH1 0x24 PUSH0 REVERT JUMPDEST SWAP1 PUSH1 0x1F DUP1 NOT SWAP2 ADD AND DUP2 ADD SWAP1 DUP2 LT PUSH8 0xFFFFFFFFFFFFFFFF DUP3 GT OR PUSH2 0x13BC JUMPI PUSH1 0x40 MSTORE JUMP JUMPDEST SWAP1 DUP2 PUSH1 0x20 SWAP2 SUB SLT PUSH2 0x4D1 JUMPI MLOAD DUP1 ISZERO ISZERO DUP2 SUB PUSH2 0x4D1 JUMPI SWAP1 JUMP JUMPDEST SWAP2 SWAP1 DUP3 ADD DUP1 SWAP3 GT PUSH2 0x1417 JUMPI JUMP JUMPDEST PUSH4 0x4E487B71 PUSH1 0xE0 SHL PUSH0 MSTORE PUSH1 0x11 PUSH1 0x4 MSTORE PUSH1 0x24 PUSH0 REVERT JUMPDEST PUSH1 0x4 DUP1 SLOAD PUSH1 0xFF PUSH1 0xA0 SHL NOT AND PUSH1 0x5 PUSH1 0xA0 SHL OR SWAP1 SSTORE PUSH1 0x2 SLOAD PUSH1 0x1 PUSH1 0x1 PUSH1 0xA0 SHL SUB SWAP1 PUSH0 SWAP1 DUP3 AND DUP1 EXTCODESIZE ISZERO PUSH2 0x110 JUMPI DUP2 DUP1 SWAP2 PUSH1 0x24 PUSH1 0x40 MLOAD DUP1 SWAP5 DUP2 SWAP4 PUSH4 0x7E72C7D7 PUSH1 0xE0 SHL DUP4 MSTORE ADDRESS PUSH1 0x4 DUP5 ADD MSTORE GAS CALL DUP1 ISZERO PUSH2 0x14EF JUMPI PUSH2 0x14FA JUMPI JUMPDEST POP SWAP1 PUSH1 0x3 SLOAD AND DUP1 EXTCODESIZE ISZERO PUSH2 0x110 JUMPI DUP2 DUP1 SWAP2 PUSH1 0x24 PUSH1 0x40 MLOAD DUP1 SWAP5 DUP2 SWAP4 PUSH4 0x38E270ED PUSH1 0xE0 SHL DUP4 MSTORE ADDRESS PUSH1 0x4 DUP5 ADD MSTORE GAS CALL DUP1 ISZERO PUSH2 0x14EF JUMPI PUSH2 0x14DB JUMPI JUMPDEST POP DUP1 PUSH32 0x409FCED1B85AE32A29FB1E18894D8361A5F2653DC27ADF7102D86175C2901D7C SWAP2 LOG1 JUMP JUMPDEST PUSH2 0x14E5 DUP3 SWAP2 PUSH2 0x13A8 JUMP JUMPDEST PUSH2 0x18C JUMPI PUSH0 PUSH2 0x14B4 JUMP JUMPDEST PUSH1 0x40 MLOAD RETURNDATASIZE DUP5 DUP3 RETURNDATACOPY RETURNDATASIZE SWAP1 REVERT JUMPDEST PUSH2 0x1503 SWAP1 PUSH2 0x13A8 JUMP JUMPDEST PUSH0 PUSH2 0x147E JUMP JUMPDEST DUP2 DUP2 MUL SWAP3 SWAP2 DUP2 ISZERO SWAP2 DUP5 DIV EQ OR ISZERO PUSH2 0x1417 JUMPI JUMP JUMPDEST PUSH1 0xA SLOAD PUSH8 0xDE0B6B3A7640000 SWAP1 DUP2 DUP2 MUL SWAP1 DUP1 DUP3 DIV DUP4 EQ SWAP1 ISZERO OR ISZERO PUSH2 0x1417 JUMPI PUSH2 0x155C SWAP2 PUSH2 0x1556 PUSH1 0x64 PUSH4 0x1E13380 PUSH1 0xB SLOAD DIV SWAP4 DIV PUSH1 0x9 SLOAD PUSH2 0x1509 JUMP JUMPDEST DIV PUSH2 0x1509 JUMP JUMPDEST SWAP1 JUMP INVALID LOG2 PUSH5 0x6970667358 0x22 SLT KECCAK256 0x4A PUSH21 0x87F1A41F296D2C744A146DD206626A810E1DE90E0C STATICCALL NUMBER CALLVALUE PUSH12 0x6BF7FC8B2064736F6C634300 ADDMOD EQ STOP CALLER "
		},
		"gasEstimates": {
			"creation": {
				"codeDepositCost": "1105000",
				"executionCost": "infinite",
				"totalCost": "infinite"
			},
			"external": {
				"activateLoan()": "infinite",
				"calculateInterest()": "infinite",
				"calculateRequiredCollateral()": "infinite",
				"checkAndHandleDefault()": "infinite",
				"fundLoan()": "infinite",
				"getCollateralAmount(address)": "infinite",
				"getFundedBlock()": "2345",
				"getInterestRate()": "2411",
				"getLoanAmount()": "2670",
				"getLoanState()": "2659",
				"getRepaymentPeriod()": "2433",
				"getRepaymentToken()": "2288",
				"loanDetails()": "23795",
				"permit2()": "2344",
				"poolOrganizer()": "2652",
				"repay()": "infinite",
				"rewardManager()": "2322",
				"state()": "2703",
				"vaultManager()": "2520"
			},
			"internal": {
				"_checkPreconditions()": "infinite",
				"_closeLoan()": "infinite",
				"_disburseLoan()": "infinite",
				"_finalizeActivation()": "infinite",
				"_handleCollateral()": "infinite",
				"_handleDefault()": "infinite",
				"_releaseCollateral(address,uint256)": "infinite"
			}
		},
		"methodIdentifiers": {
			"activateLoan()": "b2a9bb60",
			"calculateInterest()": "eb0c4955",
			"calculateRequiredCollateral()": "6b6d1955",
			"checkAndHandleDefault()": "3b1baeff",
			"fundLoan()": "8db57994",
			"getCollateralAmount(address)": "654c6295",
			"getFundedBlock()": "2e1283e3",
			"getInterestRate()": "5257b566",
			"getLoanAmount()": "f4b01b18",
			"getLoanState()": "9e9f669c",
			"getRepaymentPeriod()": "64c4bec0",
			"getRepaymentToken()": "0c7277de",
			"loanDetails()": "95cb741d",
			"permit2()": "12261ee7",
			"poolOrganizer()": "c51b9507",
			"repay()": "402d8883",
			"rewardManager()": "0f4ef8a6",
			"state()": "c19d93fb",
			"vaultManager()": "8a4adf24"
		}
	},
	"abi": [
		{
			"inputs": [
				{
					"internalType": "address",
					"name": "lender",
					"type": "address"
				},
				{
					"internalType": "contract IERC20",
					"name": "loanTokenAddress",
					"type": "address"
				},
				{
					"internalType": "contract IERC20",
					"name": "repaymentTokenAddress",
					"type": "address"
				},
				{
					"internalType": "address",
					"name": "collateralVaultAddress",
					"type": "address"
				},
				{
					"internalType": "uint256",
					"name": "loanAmount",
					"type": "uint256"
				},
				{
					"internalType": "uint256",
					"name": "interestRate",
					"type": "uint256"
				},
				{
					"internalType": "uint256",
					"name": "repaymentPeriodInDays",
					"type": "uint256"
				},
				{
					"internalType": "contract IInterestModel",
					"name": "interestModel",
					"type": "address"
				},
				{
					"internalType": "contract IPermit2",
					"name": "_permit2",
					"type": "address"
				},
				{
					"internalType": "address",
					"name": "poolOrganizerAddress",
					"type": "address"
				},
				{
					"internalType": "address",
					"name": "vaultManagerAddress",
					"type": "address"
				},
				{
					"internalType": "address",
					"name": "rewardManagerAddress",
					"type": "address"
				}
			],
			"stateMutability": "nonpayable",
			"type": "constructor"
		},
		{
			"anonymous": false,
			"inputs": [
				{
					"indexed": false,
					"internalType": "uint256",
					"name": "collateralAmount",
					"type": "uint256"
				}
			],
			"name": "CollateralFunded",
			"type": "event"
		},
		{
			"anonymous": false,
			"inputs": [
				{
					"indexed": true,
					"internalType": "address",
					"name": "borrower",
					"type": "address"
				},
				{
					"indexed": false,
					"internalType": "uint256",
					"name": "collateralAmount",
					"type": "uint256"
				}
			],
			"name": "LoanActivated",
			"type": "event"
		},
		{
			"anonymous": false,
			"inputs": [],
			"name": "LoanClosed",
			"type": "event"
		},
		{
			"anonymous": false,
			"inputs": [
				{
					"indexed": true,
					"internalType": "address",
					"name": "borrower",
					"type": "address"
				}
			],
			"name": "LoanDefaulted",
			"type": "event"
		},
		{
			"anonymous": false,
			"inputs": [
				{
					"indexed": false,
					"internalType": "uint256",
					"name": "loanAmount",
					"type": "uint256"
				}
			],
			"name": "LoanFunded",
			"type": "event"
		},
		{
			"anonymous": false,
			"inputs": [
				{
					"indexed": true,
					"internalType": "address",
					"name": "lender",
					"type": "address"
				},
				{
					"indexed": false,
					"internalType": "uint256",
					"name": "loanAmount",
					"type": "uint256"
				},
				{
					"indexed": false,
					"internalType": "contract IERC20",
					"name": "loanToken",
					"type": "address"
				},
				{
					"indexed": false,
					"internalType": "contract IERC20",
					"name": "repaymentToken",
					"type": "address"
				}
			],
			"name": "LoanOfferCreated",
			"type": "event"
		},
		{
			"anonymous": false,
			"inputs": [
				{
					"indexed": false,
					"internalType": "uint256",
					"name": "amountRepaid",
					"type": "uint256"
				}
			],
			"name": "RepaymentMade",
			"type": "event"
		},
		{
			"inputs": [],
			"name": "activateLoan",
			"outputs": [],
			"stateMutability": "nonpayable",
			"type": "function"
		},
		{
			"inputs": [],
			"name": "calculateInterest",
			"outputs": [
				{
					"internalType": "uint256",
					"name": "",
					"type": "uint256"
				}
			],
			"stateMutability": "view",
			"type": "function"
		},
		{
			"inputs": [],
			"name": "calculateRequiredCollateral",
			"outputs": [
				{
					"internalType": "uint256",
					"name": "",
					"type": "uint256"
				}
			],
			"stateMutability": "view",
			"type": "function"
		},
		{
			"inputs": [],
			"name": "checkAndHandleDefault",
			"outputs": [],
			"stateMutability": "nonpayable",
			"type": "function"
		},
		{
			"inputs": [],
			"name": "fundLoan",
			"outputs": [],
			"stateMutability": "nonpayable",
			"type": "function"
		},
		{
			"inputs": [
				{
					"internalType": "address",
					"name": "user",
					"type": "address"
				}
			],
			"name": "getCollateralAmount",
			"outputs": [
				{
					"internalType": "uint256",
					"name": "",
					"type": "uint256"
				}
			],
			"stateMutability": "view",
			"type": "function"
		},
		{
			"inputs": [],
			"name": "getFundedBlock",
			"outputs": [
				{
					"internalType": "uint256",
					"name": "",
					"type": "uint256"
				}
			],
			"stateMutability": "view",
			"type": "function"
		},
		{
			"inputs": [],
			"name": "getInterestRate",
			"outputs": [
				{
					"internalType": "uint256",
					"name": "",
					"type": "uint256"
				}
			],
			"stateMutability": "view",
			"type": "function"
		},
		{
			"inputs": [],
			"name": "getLoanAmount",
			"outputs": [
				{
					"internalType": "uint256",
					"name": "",
					"type": "uint256"
				}
			],
			"stateMutability": "view",
			"type": "function"
		},
		{
			"inputs": [],
			"name": "getLoanState",
			"outputs": [
				{
					"internalType": "enum TuliaPool.LoanState",
					"name": "",
					"type": "uint8"
				}
			],
			"stateMutability": "view",
			"type": "function"
		},
		{
			"inputs": [],
			"name": "getRepaymentPeriod",
			"outputs": [
				{
					"internalType": "uint256",
					"name": "",
					"type": "uint256"
				}
			],
			"stateMutability": "view",
			"type": "function"
		},
		{
			"inputs": [],
			"name": "getRepaymentToken",
			"outputs": [
				{
					"internalType": "contract IERC20",
					"name": "",
					"type": "address"
				}
			],
			"stateMutability": "view",
			"type": "function"
		},
		{
			"inputs": [],
			"name": "loanDetails",
			"outputs": [
				{
					"internalType": "address",
					"name": "lender",
					"type": "address"
				},
				{
					"internalType": "contract IERC20",
					"name": "loanToken",
					"type": "address"
				},
				{
					"internalType": "contract IERC20",
					"name": "repaymentToken",
					"type": "address"
				},
				{
					"internalType": "contract TuliaVault",
					"name": "collateralVault",
					"type": "address"
				},
				{
					"internalType": "uint256",
					"name": "loanAmount",
					"type": "uint256"
				},
				{
					"internalType": "uint256",
					"name": "interestRate",
					"type": "uint256"
				},
				{
					"internalType": "uint256",
					"name": "repaymentPeriod",
					"type": "uint256"
				},
				{
					"internalType": "contract IInterestModel",
					"name": "interestModel",
					"type": "address"
				},
				{
					"internalType": "address",
					"name": "borrower",
					"type": "address"
				},
				{
					"internalType": "uint256",
					"name": "startBlock",
					"type": "uint256"
				},
				{
					"internalType": "uint256",
					"name": "fundedBlock",
					"type": "uint256"
				}
			],
			"stateMutability": "view",
			"type": "function"
		},
		{
			"inputs": [],
			"name": "permit2",
			"outputs": [
				{
					"internalType": "contract IPermit2",
					"name": "",
					"type": "address"
				}
			],
			"stateMutability": "view",
			"type": "function"
		},
		{
			"inputs": [],
			"name": "poolOrganizer",
			"outputs": [
				{
					"internalType": "contract IPoolOrganizer",
					"name": "",
					"type": "address"
				}
			],
			"stateMutability": "view",
			"type": "function"
		},
		{
			"inputs": [],
			"name": "repay",
			"outputs": [],
			"stateMutability": "nonpayable",
			"type": "function"
		},
		{
			"inputs": [],
			"name": "rewardManager",
			"outputs": [
				{
					"internalType": "contract IRewardManager",
					"name": "",
					"type": "address"
				}
			],
			"stateMutability": "view",
			"type": "function"
		},
		{
			"inputs": [],
			"name": "state",
			"outputs": [
				{
					"internalType": "enum TuliaPool.LoanState",
					"name": "",
					"type": "uint8"
				}
			],
			"stateMutability": "view",
			"type": "function"
		},
		{
			"inputs": [],
			"name": "vaultManager",
			"outputs": [
				{
					"internalType": "contract IVaultManager",
					"name": "",
					"type": "address"
				}
			],
			"stateMutability": "view",
			"type": "function"
		}
	]
}