{
	"data": {
		"bytecode": {
			"linkReferences": {},
			"object": "60803461029757601f6200469238819003918201601f191683019291906001600160401b0384118385101761029b578160a092849260409687528339810103126102975761004c816102af565b9060209161005b8383016102af565b916100678582016102af565b61007f6080610078606085016102af565b93016102af565b6001600160a01b039384169490939085156102425781169182156101f35781169283156101a157811693841561014c57169485156100f9575060018060a01b031993845f5416175f558360015416176001558260025416176002558160035416176003556004541617600455516143ce9081620002c48239f35b60849087519062461bcd60e51b82526004820152602760248201527f5661756c744d616e616765722063616e6e6f7420626520746865207a65726f206044820152666164647265737360c81b6064820152fd5b875162461bcd60e51b815260048101889052602860248201527f5265776172644d616e616765722063616e6e6f7420626520746865207a65726f604482015267206164647265737360c01b6064820152608490fd5b875162461bcd60e51b815260048101889052602560248201527f4665654d616e616765722063616e6e6f7420626520746865207a65726f206164604482015264647265737360d81b6064820152608490fd5b875162461bcd60e51b815260048101889052602260248201527f5065726d6974322063616e6e6f7420626520746865207a65726f206164647265604482015261737360f01b6064820152608490fd5b875162461bcd60e51b815260048101889052602860248201527f506f6f6c4f7267616e697a65722063616e6e6f7420626520746865207a65726f604482015267206164647265737360c01b6064820152608490fd5b5f80fd5b634e487b7160e01b5f52604160045260245ffd5b51906001600160a01b03821682036102975756fe60a06040818152600436101562000014575f80fd5b5f91823560e01c9081630f4ef8a6146200020f5750806312261ee714620001e55780638a4adf2414620001bb5780638c41fd091462000108578063a622ee7c14620000ca578063c51b950714620000a15763d0fb02031462000074575f80fd5b346200009d57816003193601126200009d5760025490516001600160a01b039091168152602090f35b5080fd5b50346200009d57816003193601126200009d57905490516001600160a01b039091168152602090f35b50346200009d5760203660031901126200009d576020916001600160a01b0390829082620000f762000236565b168152600585522054169051908152f35b50346200009d576101403660031901126200009d576200012762000236565b6001600160a01b0390602435908282168203620001b757604435918383168303620001b357606435928484168403620001af5760e435918583168303620001ab5761010435936002851015620001a7576200019696979850610124359560c4359360a43593608435936200037e565b835191831682529091166020820152f35b8880fd5b8780fd5b8680fd5b8580fd5b8480fd5b50346200009d57816003193601126200009d5760045490516001600160a01b039091168152602090f35b50346200009d57816003193601126200009d5760015490516001600160a01b039091168152602090f35b8390346200009d57816003193601126200009d576003546001600160a01b03168152602090f35b600435906001600160a01b03821682036200024d57565b5f80fd5b67ffffffffffffffff81116200026657604052565b634e487b7160e01b5f52604160045260245ffd5b90601f8019910116810190811067ffffffffffffffff8211176200026657604052565b5f5b838110620002af5750505f910152565b81810151838201526020016200029f565b6020818303126200024d57805167ffffffffffffffff918282116200024d57019082601f830112156200024d57815190811162000266576040519262000311601f8301601f1916602001856200027a565b818452602082840101116200024d576200033291602080850191016200029d565b90565b9060209162000350815180928185528580860191016200029d565b601f01601f1916010190565b9060028210156200036a5752565b634e487b7160e01b5f52602160045260245ffd5b9799989397965f96919592949192916001600160a01b03891615158062000b73575b1562000b3a576040516395d89b4160e01b815288816004816001600160a01b038b165afa90811562000b2f57899162000b11575b506200041160226040518093612a2b60f11b60208301526200040081518092602086860191016200029d565b81010360028101845201826200027a565b6040516395d89b4160e01b81529089826004816001600160a01b038c165afa91821562000b06578e908b9362000ad9575b506002906200048a602a604051809669151d5b1a5855985d5b1d60b21b60208301526200047981518092602086860191016200029d565b810103600a8101875201856200027a565b8b608052101562000ac5578d15620009e6575b50508b620007d257506001548754600454600354604051946001600160a01b0391821694928216938216929091169067ffffffffffffffff61191b870190811190871117620007be5761191b620014cf873960018060a01b038d1661191b87015260018060a01b038b16602061191b8801015260018060a01b038916604061191b8801015260018060a01b0360805116606061191b880101528d608061191b880101528660a061191b880101528760c061191b8801015260018060a01b031660e061191b8701015261010061191b8601015261012061191b8501015261014061191b8401015261016061191b830101526101808161191b810103019087f0978815620007b35786546001600160a01b031693843b15620001ab5760405163021bab0160e51b81526001600160a01b03808c166004830152808b166024830152604482018a905260805181166064830152888116608483015296871660a4820152951660c486015260e48501526101048401526101248301528390829061016490829084906200063161014484018e6200035c565b5af1801562000790579083916200079b575b50506003546001600160a01b0316803b156200077457604051637286e5e560e01b81526001600160a01b038681166004830152831660248201529083908290604490829084905af18015620007905790839162000778575b50506003546001600160a01b031690813b1562000774576040516372e462b960e11b81526001600160a01b0386811660048301529190911660248201529082908290604490829084905af1801562000769576200074e575b50506200070460405180956200035c565b6080516001600160a01b039081169485928216918416907f645ee41665486bc487a04a91a2bd296d2d2395cabf7747b152436dd15f9d4f8f90602090a46001600160a01b03169190565b6200075a829162000251565b620007665780620006f3565b80fd5b6040513d84823e3d90fd5b8280fd5b620007839062000251565b6200009d57815f6200069b565b6040513d85823e3d90fd5b620007a69062000251565b6200009d57815f62000643565b6040513d88823e3d90fd5b634e487b7160e01b8c52604160045260248cfd5b949591939892505060018a97969a14620008235760405162461bcd60e51b8152602060048201526015602482015274556e737570706f7274656420706f6f6c207479706560581b6044820152606490fd5b60018060a01b03600154169360018060a01b0360025416604051928361094881011067ffffffffffffffff61094886011117620009d257908c96959493929161094862000b8785396001600160a01b03166109488401818152602081019790975260408701919091526060860191909152938190036080019085f0978815620009c75784546001600160a01b03998a169916803b15620001b35760405163021bab0160e51b8152600481018b90526001600160a01b0389811660248301526044820188905260648201889052608482019690965296851660a4880152931660c486015260e48501526101048401526101248301829052829061016490829084906200093361014484018a6200035c565b5af18015620007b35762000988575b5090827f645ee41665486bc487a04a91a2bd296d2d2395cabf7747b152436dd15f9d4f8f602087946200097960405180966200035c565b6001600160a01b031693a49190565b7f645ee41665486bc487a04a91a2bd296d2d2395cabf7747b152436dd15f9d4f8f602096620009bb869395949562000251565b96505091909162000942565b6040513d86823e3d90fd5b634e487b7160e01b8d52604160045260248dfd5b60405191826115af81011067ffffffffffffffff6115af8501111762000ab157829162000a3d62000a54926115af62002dea86396001600160a01b038c166115af8601908152606060208201819052019062000335565b906115af8401820360406115af8601015262000335565b039089f0801562000aa65760808190526040516001600160a01b038881168252909116907f5d9c31ffa0fecffd7cf379989a3c7af252f0335e0d2a1320b55245912c781f5390602090a25f806200049d565b6040513d8a823e3d90fd5b634e487b7160e01b8b52604160045260248bfd5b634e487b7160e01b8a52602160045260248afd5b600291935062000afe908c3d8091833e62000af581836200027a565b810190620002c0565b929062000442565b6040513d8c823e3d90fd5b62000b2891503d808b833e62000af581836200027a565b5f620003d4565b6040513d8b823e3d90fd5b60405162461bcd60e51b8152602060048201526011602482015270496e76616c69642061646472657373657360781b6044820152606490fd5b506001600160a01b0387161515620003a056fe6080346100bb57601f61094838819003918201601f19168301916001600160401b038311848410176100bf578084926080946040528339810103126100bb5780516001600160a01b0390818116908190036100bb576020830151928284168094036100bb5760408101519283168093036100bb57606001519260015f5560018060a01b031991826001541617600155816002541617600255600354161760035560045560ff196005541660055560405161087490816100d48239f35b5f80fd5b634e487b7160e01b5f52604160045260245ffdfe6080806040526004361015610012575f80fd5b5f3560e01c90816312261ee71461069c5750806338d52e0f146106745780635cffe9de146101cf578063613255ab146101295780638c9f305f1461010c578063c19d93fb146100cf578063d0fb0203146100a75763d9d98ce414610074575f80fd5b346100a35760403660031901126100a357602061009b6100926106bf565b6024359061077f565b604051908152f35b5f80fd5b346100a3575f3660031901126100a3576003546040516001600160a01b039091168152602090f35b346100a3575f3660031901126100a35760ff6005541660405160038210156100f8576020918152f35b634e487b7160e01b5f52602160045260245ffd5b346100a3575f3660031901126100a3576020600454604051908152f35b346100a3576020806003193601126100a3576101436106bf565b6001546001600160a01b039081169183911682036101c7576040516370a0823160e01b815230600482015291829060249082905afa9081156101bc575f9161018f575b50604051908152f35b90508181813d83116101b5575b6101a681836106d5565b810103126100a3575182610186565b503d61019c565b6040513d5f823e3d90fd5b50505f61009b565b346100a35760803660031901126100a3576004356001600160a01b03811681036100a357602435906001600160a01b03821682036100a35767ffffffffffffffff80606435116100a3573660236064350112156100a35760643560040135116100a357366024606435600401356064350101116100a35760025f541461062f5760025f556001546001600160a01b039081169290610270908216841461070b565b60ff6005541660038110156100f8576105ea5761028f6044358261077f565b90604051936370a0823160e01b8552306004860152602085602481845afa9485156101bc575f956105b5575b5060405163a9059cbb60e01b81526001600160a01b03851660048201526044803560248301529091602091839182905f905af180156101bc57610596575b50604051906323e30c8b60e01b825233600483015260018060a01b03166024820152604435604482015281606482015260a060848201526064356004013560a48201526064356004013560246064350160c48301375f60c4606435600401358301015260208160c481601f19601f60643560040135011681010301815f60018060a01b0388165af180156101bc575f90610544575b7f439148f0bbc682ca079e46d6e2c2f0c1e3b820f1a291b069d8882abf8cf18dd991500361050b576103c4602091604435610772565b6001546040516323b872dd60e01b81526001600160a01b03948516600482015230602482015260448101929092529092839160649183915f91165af180156101bc576104dc575b506001546040516370a0823160e01b815230600482015290602090829060249082906001600160a01b03165afa9081156101bc575f916104aa575b50106104655760ff196005541660055560015f55602060405160018152f35b60405162461bcd60e51b815260206004820152601b60248201527f466c617368206c6f616e2072657061796d656e74206661696c656400000000006044820152606490fd5b90506020813d6020116104d4575b816104c5602093836106d5565b810103126100a3575182610446565b3d91506104b8565b6104fd9060203d602011610504575b6104f581836106d5565b810190610826565b508161040b565b503d6104eb565b60405162461bcd60e51b8152602060048201526011602482015270119b185cda081b1bd85b8819985a5b1959607a1b6044820152606490fd5b506020813d60201161058e575b8161055e602093836106d5565b810103126100a3577f439148f0bbc682ca079e46d6e2c2f0c1e3b820f1a291b069d8882abf8cf18dd9905161038e565b3d9150610551565b6105ae9060203d602011610504576104f581836106d5565b50846102f9565b9094506020813d6020116105e2575b816105d1602093836106d5565b810103126100a357519360206102bb565b3d91506105c4565b60405162461bcd60e51b815260206004820152601860248201527f466c617368206c6f616e206e6f7420617661696c61626c6500000000000000006044820152606490fd5b60405162461bcd60e51b815260206004820152601f60248201527f5265656e7472616e637947756172643a207265656e7472616e742063616c6c006044820152606490fd5b346100a3575f3660031901126100a3576001546040516001600160a01b039091168152602090f35b346100a3575f3660031901126100a3576002546001600160a01b03168152602090f35b600435906001600160a01b03821682036100a357565b90601f8019910116810190811067ffffffffffffffff8211176106f757604052565b634e487b7160e01b5f52604160045260245ffd5b1561071257565b60405162461bcd60e51b81526020600482015260116024820152702ab739bab83837b93a32b2103a37b5b2b760791b6044820152606490fd5b8181029291811591840414171561075e57565b634e487b7160e01b5f52601160045260245ffd5b9190820180921161075e57565b6001549192916001600160a01b039161079d9183169083161461070b565b61271060046020826107b083548861074b565b0493600354166040519283809263053e755b60e01b82525afa9081156101bc575f916107f0575b506107e6906107ed949561074b565b0490610772565b90565b906020823d821161081e575b81610809602093836106d5565b8101031261081b5750516107ed6107d7565b80fd5b3d91506107fc565b908160209103126100a3575180151581036100a3579056fea2646970667358221220ce7c22914dc40e9d9f217a72d9addf7a5687ed65ee6609ee9f2dba98beba5f7264736f6c63430008140033608034620003d257601f6200191b38819003918201601f19168301916001600160401b038311848410176200032c5780849261018094604052833981010312620003d2576200004e81620003d6565b6200005c60208301620003d6565b916200006b60408201620003d6565b916200007a60608301620003d6565b9260808301519460a08401519360c08101519060e081015160018060a01b0381168103620003d257610100820151916001600160a01b0383168303620003d257620000c96101208201620003d6565b620000e7610160620000df6101408501620003d6565b9301620003d6565b60015f55936001600160a01b038916151580620003bf575b80620003ac575b8062000399575b156200035457600180546001600160a01b03199081166001600160a01b039384161790915560028054821693831693909317909255600380549092169083161790556004549362015180908015828202829004831417156200034057604051996001600160401b036101808c01908111908c11176200032c578c5f6101608d7f3d48195705780f5c10a0d217f778f0f6d562cb1a6a699da31c0d6d756aacedfc9f60609f8f906101800160405260018060a01b0316825260018060a01b038d1660208301528d60018060a01b0316604083015260018060a01b0316938f859083015260808201528460a082015286860260c082015260018060a01b03881660e082015260018060a01b0389166101008201528261012082015242610140820152015260018060a01b038b1660018060a01b0319600554161760055560018060a01b03891660018060a01b0319600654161760065560018060a01b038a1660018060a01b0319600754161760075560018060a01b031960085416176008558c600955600a5502600b5560018060a01b031660018060a01b0319600c541617600c5560018060a01b031660018060a01b0319600d541617600d5560018060a01b0319600e5416600e5542600f555f60105560018060a01b03169060018060a81b0319161760045560405195865260018060a01b0316602086015260018060a01b0316604085015260018060a01b031692a260405161152f9081620003ec8239f35b634e487b7160e01b5f52604160045260245ffd5b634e487b7160e01b5f52601160045260245ffd5b60405162461bcd60e51b815260206004820152601760248201527f496e76616c696420696e707574206164647265737365730000000000000000006044820152606490fd5b506001600160a01b03881615156200010d565b506001600160a01b038b16151562000106565b506001600160a01b0387161515620000ff565b5f80fd5b51906001600160a01b0382168203620003d25756fe6080604081815260049182361015610015575f80fd5b5f92833560e01c9182630c7277de14611275575081630f4ef8a61461124d57816312261ee7146112245781632e1283e3146112055781633b1baeff14610f5f578163402d888314610a905781635257b56614610a7157816364c4bec014610a52578163654c6295146109b65781636b6d1955146109965781638a4adf241461096d5781638db579941461081a57816395cb741d146107835781639e9f669c1461015f578163b2a9bb601461018f578163c19d93fb1461015f57508063c51b950714610137578063eb0c4955146101145763f4b01b18146100f3575f80fd5b346101105781600319360112610110576020906009549051908152f35b5080fd5b5034610110578160031936011261011057602090610130611476565b9051908152f35b503461011057816003193601126101105760025490516001600160a01b039091168152602090f35b82843461018c578060031936011261018c575060ff610188925460a01c1690519182918261129a565b0390f35b80fd5b919050346104cc57826003193601126104cc576101aa6112c1565b60ff825460a01c1660068110156107705760010361072d5733156106ea576005546001600160a01b0392908316903382146106a7576101e7611476565b6101f46009549182611377565b6007548551636eb1769f60e11b808252338683019081523060208281019190915297938a16949192908890829081906040010381885afa90811561069d578b91610670575b50106106235760065487519182526001600160a01b039092168582019081523060208201529091869183918a16908290819060400103915afa9081156106195790839189916105e8575b50106105a5579086929161029e610298611476565b83611377565b6102a6611476565b87516323b872dd60e01b808252338783019081523060208201526040810194909452919391929091889183919082908a90829060600103925af1801561059b57916103329391889361057e575b50896007541690878b60035416918b51968795869485938452338c850160409194939294606082019560018060a01b0380921683521660208201520152565b03925af1801561055757610561575b50600754600854865163095ea7b360e01b81529088166001600160a01b0316848201908152602081018490529091869183918a169082908890829060400103925af1801561055757918591859361053a575b50604488600854169188519485938492636e553f6560e01b8452888401523360248401525af180156104fd57908491610507575b50600654600954865163a9059cbb60e01b81523385820190815260208101929092529291839182900360400190829087908b165af180156104fd576104d0575b50600e80546001600160a01b0319163317905542600f55805460ff60a01b1916600160a11b17815561044261043a611476565b600954611377565b946003541690813b156104cc5782916024839287519485938492632914526d60e11b845230908401525af180156104c2576104aa575b50507f5150ab7694a22fbc01c642bc10316565247df962fa3f0ac3b5d1a18ba45b485b91519283523392a26001815580f35b6104b390611315565b6104be57835f610478565b8380fd5b84513d84823e3d90fd5b8280fd5b6104ef90843d86116104f6575b6104e7818361133d565b81019061135f565b505f610407565b503d6104dd565b85513d85823e3d90fd5b90809293503d8311610533575b61051e818361133d565b8101031261052f578490825f6103c7565b5f80fd5b503d610514565b61055090833d85116104f6576104e7818361133d565b505f610393565b86513d86823e3d90fd5b61057790853d87116104f6576104e7818361133d565b505f610341565b61059490843d86116104f6576104e7818361133d565b505f6102f3565b88513d88823e3d90fd5b845162461bcd60e51b8152808401859052601b60248201527f496e73756666696369656e74206c6f616e20616c6c6f77616e636500000000006044820152606490fd5b809250868092503d8311610612575b610601818361133d565b8101031261052f578290515f610283565b503d6105f7565b86513d8a823e3d90fd5b865162461bcd60e51b8152808601879052602160248201527f496e73756666696369656e7420636f6c6c61746572616c20616c6c6f77616e636044820152606560f81b6064820152608490fd5b90508781813d8311610696575b610687818361133d565b8101031261052f57515f610239565b503d61067d565b89513d8d823e3d90fd5b606490602084519162461bcd60e51b8352820152601960248201527f4c656e6465722063616e6e6f7420626520626f72726f776572000000000000006044820152fd5b906020606492519162461bcd60e51b8352820152601860248201527f496e76616c696420626f72726f776572206164647265737300000000000000006044820152fd5b906020606492519162461bcd60e51b8352820152601a60248201527f4c6f616e206e6f7420726561647920746f2061637469766174650000000000006044820152fd5b634e487b7160e01b845260218352602484fd5b5050346101105781600319360112610110576101809060018060a01b038060055416918160065416918060075416908060085416600954600a54600b549184600c54169385600d541695600e541696600f54986010549a81519c8d5260208d01528b015260608a0152608089015260a088015260c087015260e0860152610100850152610120840152610140830152610160820152f35b9050346104cc57826003193601126104cc576108346112c1565b60ff815460a01c16600681101561095a576109185760065460055460095484516323b872dd60e01b81526001600160a01b03928316858201908152306020828101919091526040820193909352909391928492169082908890829060600103925af1801561090b57917f9e71d2fb732e68272b7e74ecfd14638673c1d77e19a5d390a3ffff054d57c44b93916020936108ee575b5042601055805460ff60a01b1916600160a01b1790556009549051908152a16001815580f35b61090490843d81116104f6576104e7818361133d565b505f6108c8565b50505051903d90823e3d90fd5b6020606492519162461bcd60e51b8352820152601b60248201527f4c6f616e206e6f7420696e20637265617461626c6520737461746500000000006044820152fd5b634e487b7160e01b845260218252602484fd5b50503461011057816003193601126101105760035490516001600160a01b039091168152602090f35b50503461011057816003193601126101105760209061013061043a611476565b83833461011057602092836003193601126104cc5780356001600160a01b0381811691829003610a4e5790602486926008541693855194859384926370a0823160e01b84528301525afa928315610a435792610a14575b5051908152f35b9091508281813d8311610a3c575b610a2c818361133d565b8101031261052f57519083610a0d565b503d610a22565b8251903d90823e3d90fd5b8480fd5b505034610110578160031936011261011057602090600b549051908152f35b505034610110578160031936011261011057602090600a549051908152f35b919050346104cc57826003193601126104cc57610aab6112c1565b600e546001600160a01b03919082163303610f0b5760ff835460a01c166006811015610ef857600203610e9f57610ae361043a611476565b91610aec611476565b830390838211610e8c576007548351636eb1769f60e11b81523387820190815230602082810191909152969284169291908790829081906040010381865afa908115610dfa579082918a91610e5b575b5010610e045784516370a0823160e01b815233888201528681602481865afa908115610dfa578991610dcd575b5010610d785760055484516323b872dd60e01b8152338882019081529184166001600160a01b03166020830152604082018590528894939290918791839182908890829060600103925af18015610d5157610d5b575b508060035416803b156104be5784516356f78a1d60e01b8152308882019081523360208201529091859183919082908490829060400103925af18015610d5157908491610d3d575b505060085416908351906363737ac960e11b8252868201528481602481855afa908115610d3357908592918491610cfe575b508451635d043b2960e11b8152878101918252336020830181905260408301529384929183919082906060015b03925af18015610cf457610cca575b50825460ff60a01b1916600160a21b179092557f4002dba848920f438092e08090cfb5fc47144c22704268b402c9553a1b5adfe691610cb2611398565b610cbd61043a611476565b9051908152a16001815580f35b8290813d8311610ced575b610cdf818361133d565b8101031261052f575f610c75565b503d610cd5565b82513d87823e3d90fd5b9350509082813d8311610d2c575b610d16818361133d565b8101031261052f57905185918491610c66610c39565b503d610d0c565b84513d85823e3d90fd5b610d4690611315565b6104cc57825f610c07565b85513d86823e3d90fd5b610d7190863d88116104f6576104e7818361133d565b505f610bbf565b835162461bcd60e51b8152808701869052602960248201527f496e73756666696369656e7420746f6b656e2062616c616e636520666f72207260448201526832b830bcb6b2b73a1760b91b6064820152608490fd5b90508681813d8311610df3575b610de4818361133d565b8101031261052f57515f610b69565b503d610dda565b86513d8b823e3d90fd5b845162461bcd60e51b8152808801879052602b60248201527f496e73756666696369656e7420746f6b656e20616c6c6f77616e636520666f7260448201526a103932b830bcb6b2b73a1760a91b6064820152608490fd5b809250888092503d8311610e85575b610e74818361133d565b8101031261052f578190515f610b3c565b503d610e6a565b634e487b7160e01b865260118552602486fd5b5162461bcd60e51b8152602081840152602e60248201527f4c6f616e206d7573742062652061637469766520746f2070726f63656564207760448201526d34ba34103932b830bcb6b2b73a1760911b6064820152608490fd5b634e487b7160e01b855260218452602485fd5b5162461bcd60e51b8152602081840152602960248201527f4f6e6c792074686520626f72726f7765722063616e20696e697469617465207260448201526832b830bcb6b2b73a1760b91b6064820152608490fd5b838334610110578160031936011261011057825460ff8160a01c1660068110156111f2576002036111ba57610f99600f54600b5490611377565b421015610fa4578280f35b60ff60a01b1916600360a01b178355600854600e5482516370a0823160e01b81526001600160a01b039182168187018190529195926020929087168383602481845afa92831561118157879361118b575b508551926363737ac960e11b8452858401528383602481845afa801561118157908492918890611148575b6005548851635d043b2960e11b81528881019283526001600160a01b03918c16821660208401529316604082015291935083918290899082906060015b03925af1801561113e57611115575b50508360035416846005541691813b15610a4e57835163389e006760e11b8152309181019182526001600160a01b0390931660208201529192918491849182908490829060400103925af190811561110c57506110fd575b50906110ce611398565b600e54167ff4e5cf42cbb1d0c6c91e16d925349feb6c5d970652f6ec77b1ff1262f7284cd58280a28082808280f35b61110690611315565b826110c4565b513d84823e3d90fd5b813d8311611137575b611128818361133d565b810103126104cc57848061106c565b503d61111e565b84513d87823e3d90fd5b509183819492943d831161117a575b611161818361133d565b810103126111765791839161105d9351611020565b8680fd5b503d611157565b86513d89823e3d90fd5b9092508381813d83116111b3575b6111a3818361133d565b8101031261117657519188610ff5565b503d611199565b815162461bcd60e51b815260208186015260126024820152714c6f616e206973206e6f742061637469766560701b6044820152606490fd5b634e487b7160e01b845260218552602484fd5b5050346101105781600319360112610110576020906010549051908152f35b50503461011057816003193601126101105760015490516001600160a01b039091168152602090f35b9050346104cc57826003193601126104cc575490516001600160a01b03909116815260209150f35b8490346101105781600319360112610110576007546001600160a01b03168152602090f35b9190602083019260068210156112ad5752565b634e487b7160e01b5f52602160045260245ffd5b60025f54146112d05760025f55565b60405162461bcd60e51b815260206004820152601f60248201527f5265656e7472616e637947756172643a207265656e7472616e742063616c6c006044820152606490fd5b67ffffffffffffffff811161132957604052565b634e487b7160e01b5f52604160045260245ffd5b90601f8019910116810190811067ffffffffffffffff82111761132957604052565b9081602091031261052f5751801515810361052f5790565b9190820180921161138457565b634e487b7160e01b5f52601160045260245ffd5b6004805460ff60a01b1916600560a01b1790556002546001600160a01b03905f908216803b1561011057818091602460405180948193637e72c7d760e01b83523060048401525af1801561145c57611467575b509060035416803b15610110578180916024604051809481936338e270ed60e01b83523060048401525af1801561145c57611448575b50807f409fced1b85ae32a29fb1e18894d8361a5f2653dc27adf7102d86175c2901d7c91a1565b6114528291611315565b61018c575f611421565b6040513d84823e3d90fd5b61147090611315565b5f6113eb565b600d54600954600a5460405163efdd7c0760e01b81526004810192909252602482015290602090829060449082906001600160a01b03165afa9081156114ee575f916114c0575090565b906020823d82116114e6575b816114d96020938361133d565b8101031261018c57505190565b3d91506114cc565b6040513d5f823e3d90fdfea26469706673582212206d09c4945cd58932995304704a2c7326076f78cfdbc5f86f17047661021de0dc64736f6c6343000814003360c080604052346200036857620015af80380380916200002082856200036c565b833981019060608183031262000368578051916001600160a01b0383168303620003685760208281015190926001600160401b03918281116200036857836200006b918301620003ac565b9260408201518381116200036857620000859201620003ac565b825182811162000273576003918254916001958684811c941680156200035d575b8885101462000349578190601f94858111620002f6575b50889085831160011462000293575f9262000287575b50505f1982861b1c191690861b1783555b8051938411620002735760049586548681811c9116801562000268575b8282101462000255578381116200020d575b5080928511600114620001a357509383949184925f9562000197575b50501b925f19911b1c19161790555b620001498162000414565b90156200018e575b60a0526080526040516110d59081620004da823960805181818161050d01528181610ada01528181610c6b0152610e11015260a051816105520152f35b50601262000151565b015193505f806200012f565b92919084601f198116885f52855f20955f905b89838310620001f25750505010620001d8575b50505050811b0190556200013e565b01519060f8845f19921b161c191690555f808080620001c9565b858701518955909701969485019488935090810190620001b6565b875f52815f208480880160051c8201928489106200024b575b0160051c019087905b8281106200023f57505062000113565b5f81550187906200022f565b9250819262000226565b602288634e487b7160e01b5f525260245ffd5b90607f169062000101565b634e487b7160e01b5f52604160045260245ffd5b015190505f80620000d3565b90889350601f19831691875f528a5f20925f5b8c828210620002df5750508411620002c7575b505050811b018355620000e4565b01515f1983881b60f8161c191690555f8080620002b9565b8385015186558c97909501949384019301620002a6565b909150855f52885f208580850160051c8201928b86106200033f575b918a91869594930160051c01915b82811062000330575050620000bd565b5f81558594508a910162000320565b9250819262000312565b634e487b7160e01b5f52602260045260245ffd5b93607f1693620000a6565b5f80fd5b601f909101601f19168101906001600160401b038211908210176200027357604052565b6001600160401b0381116200027357601f01601f191660200190565b919080601f840112156200036857825190620003c88262000390565b91620003d860405193846200036c565b80835260209182828701011162000368575f5b818110620004005750825f9394955001015290565b8581018301518482018401528201620003eb565b6040805163313ce56760e01b60208201908152600482529293929181016001600160401b038111828210176200027357604052515f9384928392916001600160a01b03165afa3d15620004d0573d906200046e8262000390565b916200047e60405193846200036c565b82523d84602084013e5b80620004c3575b6200049a575b508190565b602081805181010312620004bf576020015160ff811162000495576001925060ff1690565b8280fd5b506020815110156200048f565b6060906200048856fe60406080815260049081361015610014575f80fd5b5f90813560e01c92836301e1d114146107ac57836306fdde03146106b957836307a2d13a146104f4578363095ea7b3146106115783630a28a477146105f257836318160ddd146105d457836323b872dd14610598578363313ce5671461053c57836338d52e0f146104f9578363402d267d146101fc5783634cdad506146104f45783636e553f65146104c157836370a08231146104a157836394bf804d1461046a57836395d89b4114610367578363a9059cbb14610337578363b3d7f6b914610318578363b460af941461028c578363ba0876521461020157508263c63d75b6146101fc578263c6e6f59214610135578263ce96cb77146101c5578263d905777e14610185578263dd62ed3e1461013a57505063ef8b30f714610135575f80fd5b6108bf565b3461018157806003193601126101815780602092610156610839565b61015e61084f565b6001600160a01b0391821683526001865283832091168252845220549051908152f35b5080fd5b34610181576020366003190112610181576020906101be6101a4610839565b6001600160a01b03165f9081526020819052604090205490565b9051908152f35b34610181576020366003190112610181576020916101be9082906001600160a01b036101ef610839565b1681528085522054610be6565b610865565b82346102895782906102123661088a565b6001600160a01b038116845260208490529590922054909493908086116102545750508361024e91610245602096610be6565b94859133610d29565b51908152f35b9251632e52afbb60e21b81526001600160a01b0390941690840190815260208101949094525060408301529081906060010390fd5b80fd5b829034610181576102c19183916102a23661088a565b6001600160a01b03811685526020859052969093205490959490610be6565b8086116102e357505061024e90846102da602096610b4e565b94859233610d29565b9251633fa733bb60e21b81526001600160a01b0390941690840190815260208101949094525060408301529081906060010390fd5b913461028957602036600319011261028957506101be60209235610bbb565b5034610181578060031936011261018157602090610360610356610839565b6024359033610913565b5160018152f35b925034610181578160031936011261018157805191809380549160019083821c92828516948515610460575b602095868610811461044d5785895290811561042957506001146103d1575b6103cd87876103c3828c03836108dd565b51918291826107c8565b0390f35b81529295507f8a35acfbc15ff81a39ae7d344fd709f28e8600b4aa8c65c6b64bfe7fe36bd19b5b82841061041657505050826103cd946103c392820101945f806103b2565b80548685018801529286019281016103f8565b60ff19168887015250505050151560051b83010192506103c3826103cd5f806103b2565b634e487b7160e01b845260228352602484fd5b93607f1693610393565b3461049d578160031936011261049d5760209250359061024e61048b61084f565b9261049581610bbb565b809433610c11565b8280fd5b5034610181576020366003190112610181576020906101be6101a4610839565b3461049d578160031936011261049d5760209250359061024e6104e261084f565b6104eb84610b90565b93849133610c11565b61080f565b5034610181578160031936011261018157517f00000000000000000000000000000000000000000000000000000000000000006001600160a01b03168152602090f35b92503461018157816003193601126101815760ff7f0000000000000000000000000000000000000000000000000000000000000000169160ff8311610585576020838351908152f35b634e487b7160e01b815260118452602490fd5b5034610181576060366003190112610181576020906103606105b8610839565b6105c061084f565b604435916105cf8333836109ee565b610913565b50346101815781600319360112610181576020906002549051908152f35b913461028957602036600319011261028957506101be60209235610b4e565b3461049d578160031936011261049d57610629610839565b6024359033156106a2576001600160a01b031691821561068b57508083602095338152600187528181208582528752205582519081527f8c5be1e5ebec7d5bd14f71427d1e84f3dd0314c0f7b2291e5b200ac8c7c3b925843392a35160018152f35b8351634a1406b160e11b8152908101859052602490fd5b835163e602df0560e01b8152808401869052602490fd5b903461049d578260031936011261049d57805191836003549060019082821c9282811680156107a2575b602095868610821461078f575084885290811561076d5750600114610714575b6103cd86866103c3828b03836108dd565b929550600383527fc2575a0e9e593c00f959f8c92f12db2869c3395a3b0502d05e2516446f71f85b5b82841061075a57505050826103cd946103c3928201019486610703565b805486850188015292860192810161073d565b60ff191687860152505050151560051b83010192506103c3826103cd86610703565b634e487b7160e01b845260229052602483fd5b93607f16936106e3565b50346101815781600319360112610181576020906101be610abf565b602080825282518183018190529093925f5b8281106107fb57505060409293505f838284010152601f8019910116010190565b8181018601518482016040015285016107da565b3461083557602036600319011261083557602061082d600435610be6565b604051908152f35b5f80fd5b600435906001600160a01b038216820361083557565b602435906001600160a01b038216820361083557565b346108355760203660031901126108355761087e610839565b5060206040515f198152f35b606090600319011261083557600435906001600160a01b03906024358281168103610835579160443590811681036108355790565b3461083557602036600319011261083557602061082d600435610b90565b90601f8019910116810190811067ffffffffffffffff8211176108ff57604052565b634e487b7160e01b5f52604160045260245ffd5b916001600160a01b038084169283156109d657169283156109be575f908382528160205260408220549083821061098c575091604082827fddf252ad1be2c89b69c2b068fc378daa952ba7f163c4a11628f55a4df523b3ef958760209652828652038282205586815220818154019055604051908152a3565b60405163391434e360e21b81526001600160a01b03919091166004820152602481019190915260448101839052606490fd5b60405163ec442f0560e01b81525f6004820152602490fd5b604051634b637e8f60e11b81525f6004820152602490fd5b9160018060a01b03809316915f9383855260016020526040938486209183169182875260205284862054925f198403610a2b575b50505050505050565b848410610a8f57508015610a77578115610a5f5785526001602052838520908552602052039120555f808080808080610a22565b8451634a1406b160e11b815260048101879052602490fd5b845163e602df0560e01b815260048101879052602490fd5b8551637dc7a0d960e11b81526001600160a01b039190911660048201526024810184905260448101859052606490fd5b6040516370a0823160e01b81523060048201526020816024817f00000000000000000000000000000000000000000000000000000000000000006001600160a01b03165afa908115610b43575f91610b15575090565b906020823d8211610b3b575b81610b2e602093836108dd565b8101031261028957505190565b3d9150610b21565b6040513d5f823e3d90fd5b60025460018101809111610b7c57610b64610abf565b9060018201809211610b7c57610b7992610fce565b90565b634e487b7160e01b5f52601160045260245ffd5b60025460018101809111610b7c57610ba6610abf565b9060018201809211610b7c57610b799261100c565b610bc3610abf565b60018101809111610b7c576002549060018201809211610b7c57610b7992610fce565b610bee610abf565b60018101809111610b7c576002549060018201809211610b7c57610b799261100c565b604080516323b872dd60e01b60208201526001600160a01b0392831660248201819052306044830152606480830187905282529495939192919060a081019067ffffffffffffffff8211818310176108ff57610c8f9185527f0000000000000000000000000000000000000000000000000000000000000000610e98565b16938415610d125760025492808401809411610b7c577fdcbc1c05240f31ff3ad067ef1ee35ce4997762752e3a095284754544f4c709d793600255855f525f602052825f20818154019055855f7fddf252ad1be2c89b69c2b068fc378daa952ba7f163c4a11628f55a4df523b3ef60208651858152a382519182526020820152a3565b815163ec442f0560e01b81525f6004820152602490fd5b6001600160a01b038084169590948583169493909282888703610e87575b505086156109d6575f95878752866020526040948588205490848210610e5657508390898952886020520385882055826002540360025586887fddf252ad1be2c89b69c2b068fc378daa952ba7f163c4a11628f55a4df523b3ef60208851878152a384519163a9059cbb60e01b6020840152169586602483015283604483015260448252608082019082821067ffffffffffffffff831117610e42575084939291610e35917ffbde797d201c681b91056529119e0b02407c7bb96a4a2c75c01fc9667232c8db96527f0000000000000000000000000000000000000000000000000000000000000000610e98565b82519182526020820152a4565b634e487b7160e01b81526041600452602490fd5b865163391434e360e21b81526001600160a01b03919091166004820152602481019190915260448101849052606490fd5b610e9191866109ee565b5f82610d47565b60018060a01b0316905f80826020829451910182865af13d15610f5f573d9067ffffffffffffffff8211610f4b5790610ef39160405191610ee36020601f19601f84011601846108dd565b82523d84602084013e5b84610f6b565b908151918215159283610f23575b505050610f0b5750565b60249060405190635274afe760e01b82526004820152fd5b81929350906020918101031261018157602001519081159182150361028957505f8080610f01565b634e487b7160e01b83526041600452602483fd5b610ef390606090610eed565b90610f925750805115610f8057805190602001fd5b604051630a12f52160e11b8152600490fd5b81511580610fc5575b610fa3575090565b604051639996b31560e01b81526001600160a01b039091166004820152602490fd5b50803b15610f9b565b9190610fdb82828561100c565b928215610ff85709610fea5790565b60018101809111610b7c5790565b634e487b7160e01b5f52601260045260245ffd5b9091828202915f1984820993838086109503948086039514611091578483111561107f57829109815f038216809204600280826003021880830282030280830282030280830282030280830282030280830282030280920290030293600183805f03040190848311900302920304170290565b60405163227bc15360e01b8152600490fd5b505080925015610ff857049056fea26469706673582212200cdcf8cea3aebeb77295123987aa077467951540b1679c1067c1e2e4e6aa0e8a64736f6c63430008140033a26469706673582212206d6eb419b85387a1d6531d18e9cc998619dd1c3883b6c8268b59534f782c385964736f6c63430008140033",
			"opcodes": "PUSH1 0x80 CALLVALUE PUSH2 0x297 JUMPI PUSH1 0x1F PUSH3 0x4692 CODESIZE DUP2 SWAP1 SUB SWAP2 DUP3 ADD PUSH1 0x1F NOT AND DUP4 ADD SWAP3 SWAP2 SWAP1 PUSH1 0x1 PUSH1 0x1 PUSH1 0x40 SHL SUB DUP5 GT DUP4 DUP6 LT OR PUSH2 0x29B JUMPI DUP2 PUSH1 0xA0 SWAP3 DUP5 SWAP3 PUSH1 0x40 SWAP7 DUP8 MSTORE DUP4 CODECOPY DUP2 ADD SUB SLT PUSH2 0x297 JUMPI PUSH2 0x4C DUP2 PUSH2 0x2AF JUMP JUMPDEST SWAP1 PUSH1 0x20 SWAP2 PUSH2 0x5B DUP4 DUP4 ADD PUSH2 0x2AF JUMP JUMPDEST SWAP2 PUSH2 0x67 DUP6 DUP3 ADD PUSH2 0x2AF JUMP JUMPDEST PUSH2 0x7F PUSH1 0x80 PUSH2 0x78 PUSH1 0x60 DUP6 ADD PUSH2 0x2AF JUMP JUMPDEST SWAP4 ADD PUSH2 0x2AF JUMP JUMPDEST PUSH1 0x1 PUSH1 0x1 PUSH1 0xA0 SHL SUB SWAP4 DUP5 AND SWAP5 SWAP1 SWAP4 SWAP1 DUP6 ISZERO PUSH2 0x242 JUMPI DUP2 AND SWAP2 DUP3 ISZERO PUSH2 0x1F3 JUMPI DUP2 AND SWAP3 DUP4 ISZERO PUSH2 0x1A1 JUMPI DUP2 AND SWAP4 DUP5 ISZERO PUSH2 0x14C JUMPI AND SWAP5 DUP6 ISZERO PUSH2 0xF9 JUMPI POP PUSH1 0x1 DUP1 PUSH1 0xA0 SHL SUB NOT SWAP4 DUP5 PUSH0 SLOAD AND OR PUSH0 SSTORE DUP4 PUSH1 0x1 SLOAD AND OR PUSH1 0x1 SSTORE DUP3 PUSH1 0x2 SLOAD AND OR PUSH1 0x2 SSTORE DUP2 PUSH1 0x3 SLOAD AND OR PUSH1 0x3 SSTORE PUSH1 0x4 SLOAD AND OR PUSH1 0x4 SSTORE MLOAD PUSH2 0x43CE SWAP1 DUP2 PUSH3 0x2C4 DUP3 CODECOPY RETURN JUMPDEST PUSH1 0x84 SWAP1 DUP8 MLOAD SWAP1 PUSH3 0x461BCD PUSH1 0xE5 SHL DUP3 MSTORE PUSH1 0x4 DUP3 ADD MSTORE PUSH1 0x27 PUSH1 0x24 DUP3 ADD MSTORE PUSH32 0x5661756C744D616E616765722063616E6E6F7420626520746865207A65726F20 PUSH1 0x44 DUP3 ADD MSTORE PUSH7 0x61646472657373 PUSH1 0xC8 SHL PUSH1 0x64 DUP3 ADD MSTORE REVERT JUMPDEST DUP8 MLOAD PUSH3 0x461BCD PUSH1 0xE5 SHL DUP2 MSTORE PUSH1 0x4 DUP2 ADD DUP9 SWAP1 MSTORE PUSH1 0x28 PUSH1 0x24 DUP3 ADD MSTORE PUSH32 0x5265776172644D616E616765722063616E6E6F7420626520746865207A65726F PUSH1 0x44 DUP3 ADD MSTORE PUSH8 0x2061646472657373 PUSH1 0xC0 SHL PUSH1 0x64 DUP3 ADD MSTORE PUSH1 0x84 SWAP1 REVERT JUMPDEST DUP8 MLOAD PUSH3 0x461BCD PUSH1 0xE5 SHL DUP2 MSTORE PUSH1 0x4 DUP2 ADD DUP9 SWAP1 MSTORE PUSH1 0x25 PUSH1 0x24 DUP3 ADD MSTORE PUSH32 0x4665654D616E616765722063616E6E6F7420626520746865207A65726F206164 PUSH1 0x44 DUP3 ADD MSTORE PUSH5 0x6472657373 PUSH1 0xD8 SHL PUSH1 0x64 DUP3 ADD MSTORE PUSH1 0x84 SWAP1 REVERT JUMPDEST DUP8 MLOAD PUSH3 0x461BCD PUSH1 0xE5 SHL DUP2 MSTORE PUSH1 0x4 DUP2 ADD DUP9 SWAP1 MSTORE PUSH1 0x22 PUSH1 0x24 DUP3 ADD MSTORE PUSH32 0x5065726D6974322063616E6E6F7420626520746865207A65726F206164647265 PUSH1 0x44 DUP3 ADD MSTORE PUSH2 0x7373 PUSH1 0xF0 SHL PUSH1 0x64 DUP3 ADD MSTORE PUSH1 0x84 SWAP1 REVERT JUMPDEST DUP8 MLOAD PUSH3 0x461BCD PUSH1 0xE5 SHL DUP2 MSTORE PUSH1 0x4 DUP2 ADD DUP9 SWAP1 MSTORE PUSH1 0x28 PUSH1 0x24 DUP3 ADD MSTORE PUSH32 0x506F6F6C4F7267616E697A65722063616E6E6F7420626520746865207A65726F PUSH1 0x44 DUP3 ADD MSTORE PUSH8 0x2061646472657373 PUSH1 0xC0 SHL PUSH1 0x64 DUP3 ADD MSTORE PUSH1 0x84 SWAP1 REVERT JUMPDEST PUSH0 DUP1 REVERT JUMPDEST PUSH4 0x4E487B71 PUSH1 0xE0 SHL PUSH0 MSTORE PUSH1 0x41 PUSH1 0x4 MSTORE PUSH1 0x24 PUSH0 REVERT JUMPDEST MLOAD SWAP1 PUSH1 0x1 PUSH1 0x1 PUSH1 0xA0 SHL SUB DUP3 AND DUP3 SUB PUSH2 0x297 JUMPI JUMP INVALID PUSH1 0xA0 PUSH1 0x40 DUP2 DUP2 MSTORE PUSH1 0x4 CALLDATASIZE LT ISZERO PUSH3 0x14 JUMPI PUSH0 DUP1 REVERT JUMPDEST PUSH0 SWAP2 DUP3 CALLDATALOAD PUSH1 0xE0 SHR SWAP1 DUP2 PUSH4 0xF4EF8A6 EQ PUSH3 0x20F JUMPI POP DUP1 PUSH4 0x12261EE7 EQ PUSH3 0x1E5 JUMPI DUP1 PUSH4 0x8A4ADF24 EQ PUSH3 0x1BB JUMPI DUP1 PUSH4 0x8C41FD09 EQ PUSH3 0x108 JUMPI DUP1 PUSH4 0xA622EE7C EQ PUSH3 0xCA JUMPI DUP1 PUSH4 0xC51B9507 EQ PUSH3 0xA1 JUMPI PUSH4 0xD0FB0203 EQ PUSH3 0x74 JUMPI PUSH0 DUP1 REVERT JUMPDEST CALLVALUE PUSH3 0x9D JUMPI DUP2 PUSH1 0x3 NOT CALLDATASIZE ADD SLT PUSH3 0x9D JUMPI PUSH1 0x2 SLOAD SWAP1 MLOAD PUSH1 0x1 PUSH1 0x1 PUSH1 0xA0 SHL SUB SWAP1 SWAP2 AND DUP2 MSTORE PUSH1 0x20 SWAP1 RETURN JUMPDEST POP DUP1 REVERT JUMPDEST POP CALLVALUE PUSH3 0x9D JUMPI DUP2 PUSH1 0x3 NOT CALLDATASIZE ADD SLT PUSH3 0x9D JUMPI SWAP1 SLOAD SWAP1 MLOAD PUSH1 0x1 PUSH1 0x1 PUSH1 0xA0 SHL SUB SWAP1 SWAP2 AND DUP2 MSTORE PUSH1 0x20 SWAP1 RETURN JUMPDEST POP CALLVALUE PUSH3 0x9D JUMPI PUSH1 0x20 CALLDATASIZE PUSH1 0x3 NOT ADD SLT PUSH3 0x9D JUMPI PUSH1 0x20 SWAP2 PUSH1 0x1 PUSH1 0x1 PUSH1 0xA0 SHL SUB SWAP1 DUP3 SWAP1 DUP3 PUSH3 0xF7 PUSH3 0x236 JUMP JUMPDEST AND DUP2 MSTORE PUSH1 0x5 DUP6 MSTORE KECCAK256 SLOAD AND SWAP1 MLOAD SWAP1 DUP2 MSTORE RETURN JUMPDEST POP CALLVALUE PUSH3 0x9D JUMPI PUSH2 0x140 CALLDATASIZE PUSH1 0x3 NOT ADD SLT PUSH3 0x9D JUMPI PUSH3 0x127 PUSH3 0x236 JUMP JUMPDEST PUSH1 0x1 PUSH1 0x1 PUSH1 0xA0 SHL SUB SWAP1 PUSH1 0x24 CALLDATALOAD SWAP1 DUP3 DUP3 AND DUP3 SUB PUSH3 0x1B7 JUMPI PUSH1 0x44 CALLDATALOAD SWAP2 DUP4 DUP4 AND DUP4 SUB PUSH3 0x1B3 JUMPI PUSH1 0x64 CALLDATALOAD SWAP3 DUP5 DUP5 AND DUP5 SUB PUSH3 0x1AF JUMPI PUSH1 0xE4 CALLDATALOAD SWAP2 DUP6 DUP4 AND DUP4 SUB PUSH3 0x1AB JUMPI PUSH2 0x104 CALLDATALOAD SWAP4 PUSH1 0x2 DUP6 LT ISZERO PUSH3 0x1A7 JUMPI PUSH3 0x196 SWAP7 SWAP8 SWAP9 POP PUSH2 0x124 CALLDATALOAD SWAP6 PUSH1 0xC4 CALLDATALOAD SWAP4 PUSH1 0xA4 CALLDATALOAD SWAP4 PUSH1 0x84 CALLDATALOAD SWAP4 PUSH3 0x37E JUMP JUMPDEST DUP4 MLOAD SWAP2 DUP4 AND DUP3 MSTORE SWAP1 SWAP2 AND PUSH1 0x20 DUP3 ADD MSTORE RETURN JUMPDEST DUP9 DUP1 REVERT JUMPDEST DUP8 DUP1 REVERT JUMPDEST DUP7 DUP1 REVERT JUMPDEST DUP6 DUP1 REVERT JUMPDEST DUP5 DUP1 REVERT JUMPDEST POP CALLVALUE PUSH3 0x9D JUMPI DUP2 PUSH1 0x3 NOT CALLDATASIZE ADD SLT PUSH3 0x9D JUMPI PUSH1 0x4 SLOAD SWAP1 MLOAD PUSH1 0x1 PUSH1 0x1 PUSH1 0xA0 SHL SUB SWAP1 SWAP2 AND DUP2 MSTORE PUSH1 0x20 SWAP1 RETURN JUMPDEST POP CALLVALUE PUSH3 0x9D JUMPI DUP2 PUSH1 0x3 NOT CALLDATASIZE ADD SLT PUSH3 0x9D JUMPI PUSH1 0x1 SLOAD SWAP1 MLOAD PUSH1 0x1 PUSH1 0x1 PUSH1 0xA0 SHL SUB SWAP1 SWAP2 AND DUP2 MSTORE PUSH1 0x20 SWAP1 RETURN JUMPDEST DUP4 SWAP1 CALLVALUE PUSH3 0x9D JUMPI DUP2 PUSH1 0x3 NOT CALLDATASIZE ADD SLT PUSH3 0x9D JUMPI PUSH1 0x3 SLOAD PUSH1 0x1 PUSH1 0x1 PUSH1 0xA0 SHL SUB AND DUP2 MSTORE PUSH1 0x20 SWAP1 RETURN JUMPDEST PUSH1 0x4 CALLDATALOAD SWAP1 PUSH1 0x1 PUSH1 0x1 PUSH1 0xA0 SHL SUB DUP3 AND DUP3 SUB PUSH3 0x24D JUMPI JUMP JUMPDEST PUSH0 DUP1 REVERT JUMPDEST PUSH8 0xFFFFFFFFFFFFFFFF DUP2 GT PUSH3 0x266 JUMPI PUSH1 0x40 MSTORE JUMP JUMPDEST PUSH4 0x4E487B71 PUSH1 0xE0 SHL PUSH0 MSTORE PUSH1 0x41 PUSH1 0x4 MSTORE PUSH1 0x24 PUSH0 REVERT JUMPDEST SWAP1 PUSH1 0x1F DUP1 NOT SWAP2 ADD AND DUP2 ADD SWAP1 DUP2 LT PUSH8 0xFFFFFFFFFFFFFFFF DUP3 GT OR PUSH3 0x266 JUMPI PUSH1 0x40 MSTORE JUMP JUMPDEST PUSH0 JUMPDEST DUP4 DUP2 LT PUSH3 0x2AF JUMPI POP POP PUSH0 SWAP2 ADD MSTORE JUMP JUMPDEST DUP2 DUP2 ADD MLOAD DUP4 DUP3 ADD MSTORE PUSH1 0x20 ADD PUSH3 0x29F JUMP JUMPDEST PUSH1 0x20 DUP2 DUP4 SUB SLT PUSH3 0x24D JUMPI DUP1 MLOAD PUSH8 0xFFFFFFFFFFFFFFFF SWAP2 DUP3 DUP3 GT PUSH3 0x24D JUMPI ADD SWAP1 DUP3 PUSH1 0x1F DUP4 ADD SLT ISZERO PUSH3 0x24D JUMPI DUP2 MLOAD SWAP1 DUP2 GT PUSH3 0x266 JUMPI PUSH1 0x40 MLOAD SWAP3 PUSH3 0x311 PUSH1 0x1F DUP4 ADD PUSH1 0x1F NOT AND PUSH1 0x20 ADD DUP6 PUSH3 0x27A JUMP JUMPDEST DUP2 DUP5 MSTORE PUSH1 0x20 DUP3 DUP5 ADD ADD GT PUSH3 0x24D JUMPI PUSH3 0x332 SWAP2 PUSH1 0x20 DUP1 DUP6 ADD SWAP2 ADD PUSH3 0x29D JUMP JUMPDEST SWAP1 JUMP JUMPDEST SWAP1 PUSH1 0x20 SWAP2 PUSH3 0x350 DUP2 MLOAD DUP1 SWAP3 DUP2 DUP6 MSTORE DUP6 DUP1 DUP7 ADD SWAP2 ADD PUSH3 0x29D JUMP JUMPDEST PUSH1 0x1F ADD PUSH1 0x1F NOT AND ADD ADD SWAP1 JUMP JUMPDEST SWAP1 PUSH1 0x2 DUP3 LT ISZERO PUSH3 0x36A JUMPI MSTORE JUMP JUMPDEST PUSH4 0x4E487B71 PUSH1 0xE0 SHL PUSH0 MSTORE PUSH1 0x21 PUSH1 0x4 MSTORE PUSH1 0x24 PUSH0 REVERT JUMPDEST SWAP8 SWAP10 SWAP9 SWAP4 SWAP8 SWAP7 PUSH0 SWAP7 SWAP2 SWAP6 SWAP3 SWAP5 SWAP2 SWAP3 SWAP2 PUSH1 0x1 PUSH1 0x1 PUSH1 0xA0 SHL SUB DUP10 AND ISZERO ISZERO DUP1 PUSH3 0xB73 JUMPI JUMPDEST ISZERO PUSH3 0xB3A JUMPI PUSH1 0x40 MLOAD PUSH4 0x95D89B41 PUSH1 0xE0 SHL DUP2 MSTORE DUP9 DUP2 PUSH1 0x4 DUP2 PUSH1 0x1 PUSH1 0x1 PUSH1 0xA0 SHL SUB DUP12 AND GAS STATICCALL SWAP1 DUP2 ISZERO PUSH3 0xB2F JUMPI DUP10 SWAP2 PUSH3 0xB11 JUMPI JUMPDEST POP PUSH3 0x411 PUSH1 0x22 PUSH1 0x40 MLOAD DUP1 SWAP4 PUSH2 0x2A2B PUSH1 0xF1 SHL PUSH1 0x20 DUP4 ADD MSTORE PUSH3 0x400 DUP2 MLOAD DUP1 SWAP3 PUSH1 0x20 DUP7 DUP7 ADD SWAP2 ADD PUSH3 0x29D JUMP JUMPDEST DUP2 ADD SUB PUSH1 0x2 DUP2 ADD DUP5 MSTORE ADD DUP3 PUSH3 0x27A JUMP JUMPDEST PUSH1 0x40 MLOAD PUSH4 0x95D89B41 PUSH1 0xE0 SHL DUP2 MSTORE SWAP1 DUP10 DUP3 PUSH1 0x4 DUP2 PUSH1 0x1 PUSH1 0x1 PUSH1 0xA0 SHL SUB DUP13 AND GAS STATICCALL SWAP2 DUP3 ISZERO PUSH3 0xB06 JUMPI DUP15 SWAP1 DUP12 SWAP4 PUSH3 0xAD9 JUMPI JUMPDEST POP PUSH1 0x2 SWAP1 PUSH3 0x48A PUSH1 0x2A PUSH1 0x40 MLOAD DUP1 SWAP7 PUSH10 0x151D5B1A5855985D5B1D PUSH1 0xB2 SHL PUSH1 0x20 DUP4 ADD MSTORE PUSH3 0x479 DUP2 MLOAD DUP1 SWAP3 PUSH1 0x20 DUP7 DUP7 ADD SWAP2 ADD PUSH3 0x29D JUMP JUMPDEST DUP2 ADD SUB PUSH1 0xA DUP2 ADD DUP8 MSTORE ADD DUP6 PUSH3 0x27A JUMP JUMPDEST DUP12 PUSH1 0x80 MSTORE LT ISZERO PUSH3 0xAC5 JUMPI DUP14 ISZERO PUSH3 0x9E6 JUMPI JUMPDEST POP POP DUP12 PUSH3 0x7D2 JUMPI POP PUSH1 0x1 SLOAD DUP8 SLOAD PUSH1 0x4 SLOAD PUSH1 0x3 SLOAD PUSH1 0x40 MLOAD SWAP5 PUSH1 0x1 PUSH1 0x1 PUSH1 0xA0 SHL SUB SWAP2 DUP3 AND SWAP5 SWAP3 DUP3 AND SWAP4 DUP3 AND SWAP3 SWAP1 SWAP2 AND SWAP1 PUSH8 0xFFFFFFFFFFFFFFFF PUSH2 0x191B DUP8 ADD SWAP1 DUP2 GT SWAP1 DUP8 GT OR PUSH3 0x7BE JUMPI PUSH2 0x191B PUSH3 0x14CF DUP8 CODECOPY PUSH1 0x1 DUP1 PUSH1 0xA0 SHL SUB DUP14 AND PUSH2 0x191B DUP8 ADD MSTORE PUSH1 0x1 DUP1 PUSH1 0xA0 SHL SUB DUP12 AND PUSH1 0x20 PUSH2 0x191B DUP9 ADD ADD MSTORE PUSH1 0x1 DUP1 PUSH1 0xA0 SHL SUB DUP10 AND PUSH1 0x40 PUSH2 0x191B DUP9 ADD ADD MSTORE PUSH1 0x1 DUP1 PUSH1 0xA0 SHL SUB PUSH1 0x80 MLOAD AND PUSH1 0x60 PUSH2 0x191B DUP9 ADD ADD MSTORE DUP14 PUSH1 0x80 PUSH2 0x191B DUP9 ADD ADD MSTORE DUP7 PUSH1 0xA0 PUSH2 0x191B DUP9 ADD ADD MSTORE DUP8 PUSH1 0xC0 PUSH2 0x191B DUP9 ADD ADD MSTORE PUSH1 0x1 DUP1 PUSH1 0xA0 SHL SUB AND PUSH1 0xE0 PUSH2 0x191B DUP8 ADD ADD MSTORE PUSH2 0x100 PUSH2 0x191B DUP7 ADD ADD MSTORE PUSH2 0x120 PUSH2 0x191B DUP6 ADD ADD MSTORE PUSH2 0x140 PUSH2 0x191B DUP5 ADD ADD MSTORE PUSH2 0x160 PUSH2 0x191B DUP4 ADD ADD MSTORE PUSH2 0x180 DUP2 PUSH2 0x191B DUP2 ADD SUB ADD SWAP1 DUP8 CREATE SWAP8 DUP9 ISZERO PUSH3 0x7B3 JUMPI DUP7 SLOAD PUSH1 0x1 PUSH1 0x1 PUSH1 0xA0 SHL SUB AND SWAP4 DUP5 EXTCODESIZE ISZERO PUSH3 0x1AB JUMPI PUSH1 0x40 MLOAD PUSH4 0x21BAB01 PUSH1 0xE5 SHL DUP2 MSTORE PUSH1 0x1 PUSH1 0x1 PUSH1 0xA0 SHL SUB DUP1 DUP13 AND PUSH1 0x4 DUP4 ADD MSTORE DUP1 DUP12 AND PUSH1 0x24 DUP4 ADD MSTORE PUSH1 0x44 DUP3 ADD DUP11 SWAP1 MSTORE PUSH1 0x80 MLOAD DUP2 AND PUSH1 0x64 DUP4 ADD MSTORE DUP9 DUP2 AND PUSH1 0x84 DUP4 ADD MSTORE SWAP7 DUP8 AND PUSH1 0xA4 DUP3 ADD MSTORE SWAP6 AND PUSH1 0xC4 DUP7 ADD MSTORE PUSH1 0xE4 DUP6 ADD MSTORE PUSH2 0x104 DUP5 ADD MSTORE PUSH2 0x124 DUP4 ADD MSTORE DUP4 SWAP1 DUP3 SWAP1 PUSH2 0x164 SWAP1 DUP3 SWAP1 DUP5 SWAP1 PUSH3 0x631 PUSH2 0x144 DUP5 ADD DUP15 PUSH3 0x35C JUMP JUMPDEST GAS CALL DUP1 ISZERO PUSH3 0x790 JUMPI SWAP1 DUP4 SWAP2 PUSH3 0x79B JUMPI JUMPDEST POP POP PUSH1 0x3 SLOAD PUSH1 0x1 PUSH1 0x1 PUSH1 0xA0 SHL SUB AND DUP1 EXTCODESIZE ISZERO PUSH3 0x774 JUMPI PUSH1 0x40 MLOAD PUSH4 0x7286E5E5 PUSH1 0xE0 SHL DUP2 MSTORE PUSH1 0x1 PUSH1 0x1 PUSH1 0xA0 SHL SUB DUP7 DUP2 AND PUSH1 0x4 DUP4 ADD MSTORE DUP4 AND PUSH1 0x24 DUP3 ADD MSTORE SWAP1 DUP4 SWAP1 DUP3 SWAP1 PUSH1 0x44 SWAP1 DUP3 SWAP1 DUP5 SWAP1 GAS CALL DUP1 ISZERO PUSH3 0x790 JUMPI SWAP1 DUP4 SWAP2 PUSH3 0x778 JUMPI JUMPDEST POP POP PUSH1 0x3 SLOAD PUSH1 0x1 PUSH1 0x1 PUSH1 0xA0 SHL SUB AND SWAP1 DUP2 EXTCODESIZE ISZERO PUSH3 0x774 JUMPI PUSH1 0x40 MLOAD PUSH4 0x72E462B9 PUSH1 0xE1 SHL DUP2 MSTORE PUSH1 0x1 PUSH1 0x1 PUSH1 0xA0 SHL SUB DUP7 DUP2 AND PUSH1 0x4 DUP4 ADD MSTORE SWAP2 SWAP1 SWAP2 AND PUSH1 0x24 DUP3 ADD MSTORE SWAP1 DUP3 SWAP1 DUP3 SWAP1 PUSH1 0x44 SWAP1 DUP3 SWAP1 DUP5 SWAP1 GAS CALL DUP1 ISZERO PUSH3 0x769 JUMPI PUSH3 0x74E JUMPI JUMPDEST POP POP PUSH3 0x704 PUSH1 0x40 MLOAD DUP1 SWAP6 PUSH3 0x35C JUMP JUMPDEST PUSH1 0x80 MLOAD PUSH1 0x1 PUSH1 0x1 PUSH1 0xA0 SHL SUB SWAP1 DUP2 AND SWAP5 DUP6 SWAP3 DUP3 AND SWAP2 DUP5 AND SWAP1 PUSH32 0x645EE41665486BC487A04A91A2BD296D2D2395CABF7747B152436DD15F9D4F8F SWAP1 PUSH1 0x20 SWAP1 LOG4 PUSH1 0x1 PUSH1 0x1 PUSH1 0xA0 SHL SUB AND SWAP2 SWAP1 JUMP JUMPDEST PUSH3 0x75A DUP3 SWAP2 PUSH3 0x251 JUMP JUMPDEST PUSH3 0x766 JUMPI DUP1 PUSH3 0x6F3 JUMP JUMPDEST DUP1 REVERT JUMPDEST PUSH1 0x40 MLOAD RETURNDATASIZE DUP5 DUP3 RETURNDATACOPY RETURNDATASIZE SWAP1 REVERT JUMPDEST DUP3 DUP1 REVERT JUMPDEST PUSH3 0x783 SWAP1 PUSH3 0x251 JUMP JUMPDEST PUSH3 0x9D JUMPI DUP2 PUSH0 PUSH3 0x69B JUMP JUMPDEST PUSH1 0x40 MLOAD RETURNDATASIZE DUP6 DUP3 RETURNDATACOPY RETURNDATASIZE SWAP1 REVERT JUMPDEST PUSH3 0x7A6 SWAP1 PUSH3 0x251 JUMP JUMPDEST PUSH3 0x9D JUMPI DUP2 PUSH0 PUSH3 0x643 JUMP JUMPDEST PUSH1 0x40 MLOAD RETURNDATASIZE DUP9 DUP3 RETURNDATACOPY RETURNDATASIZE SWAP1 REVERT JUMPDEST PUSH4 0x4E487B71 PUSH1 0xE0 SHL DUP13 MSTORE PUSH1 0x41 PUSH1 0x4 MSTORE PUSH1 0x24 DUP13 REVERT JUMPDEST SWAP5 SWAP6 SWAP2 SWAP4 SWAP9 SWAP3 POP POP PUSH1 0x1 DUP11 SWAP8 SWAP7 SWAP11 EQ PUSH3 0x823 JUMPI PUSH1 0x40 MLOAD PUSH3 0x461BCD PUSH1 0xE5 SHL DUP2 MSTORE PUSH1 0x20 PUSH1 0x4 DUP3 ADD MSTORE PUSH1 0x15 PUSH1 0x24 DUP3 ADD MSTORE PUSH21 0x556E737570706F7274656420706F6F6C2074797065 PUSH1 0x58 SHL PUSH1 0x44 DUP3 ADD MSTORE PUSH1 0x64 SWAP1 REVERT JUMPDEST PUSH1 0x1 DUP1 PUSH1 0xA0 SHL SUB PUSH1 0x1 SLOAD AND SWAP4 PUSH1 0x1 DUP1 PUSH1 0xA0 SHL SUB PUSH1 0x2 SLOAD AND PUSH1 0x40 MLOAD SWAP3 DUP4 PUSH2 0x948 DUP2 ADD LT PUSH8 0xFFFFFFFFFFFFFFFF PUSH2 0x948 DUP7 ADD GT OR PUSH3 0x9D2 JUMPI SWAP1 DUP13 SWAP7 SWAP6 SWAP5 SWAP4 SWAP3 SWAP2 PUSH2 0x948 PUSH3 0xB87 DUP6 CODECOPY PUSH1 0x1 PUSH1 0x1 PUSH1 0xA0 SHL SUB AND PUSH2 0x948 DUP5 ADD DUP2 DUP2 MSTORE PUSH1 0x20 DUP2 ADD SWAP8 SWAP1 SWAP8 MSTORE PUSH1 0x40 DUP8 ADD SWAP2 SWAP1 SWAP2 MSTORE PUSH1 0x60 DUP7 ADD SWAP2 SWAP1 SWAP2 MSTORE SWAP4 DUP2 SWAP1 SUB PUSH1 0x80 ADD SWAP1 DUP6 CREATE SWAP8 DUP9 ISZERO PUSH3 0x9C7 JUMPI DUP5 SLOAD PUSH1 0x1 PUSH1 0x1 PUSH1 0xA0 SHL SUB SWAP10 DUP11 AND SWAP10 AND DUP1 EXTCODESIZE ISZERO PUSH3 0x1B3 JUMPI PUSH1 0x40 MLOAD PUSH4 0x21BAB01 PUSH1 0xE5 SHL DUP2 MSTORE PUSH1 0x4 DUP2 ADD DUP12 SWAP1 MSTORE PUSH1 0x1 PUSH1 0x1 PUSH1 0xA0 SHL SUB DUP10 DUP2 AND PUSH1 0x24 DUP4 ADD MSTORE PUSH1 0x44 DUP3 ADD DUP9 SWAP1 MSTORE PUSH1 0x64 DUP3 ADD DUP9 SWAP1 MSTORE PUSH1 0x84 DUP3 ADD SWAP7 SWAP1 SWAP7 MSTORE SWAP7 DUP6 AND PUSH1 0xA4 DUP9 ADD MSTORE SWAP4 AND PUSH1 0xC4 DUP7 ADD MSTORE PUSH1 0xE4 DUP6 ADD MSTORE PUSH2 0x104 DUP5 ADD MSTORE PUSH2 0x124 DUP4 ADD DUP3 SWAP1 MSTORE DUP3 SWAP1 PUSH2 0x164 SWAP1 DUP3 SWAP1 DUP5 SWAP1 PUSH3 0x933 PUSH2 0x144 DUP5 ADD DUP11 PUSH3 0x35C JUMP JUMPDEST GAS CALL DUP1 ISZERO PUSH3 0x7B3 JUMPI PUSH3 0x988 JUMPI JUMPDEST POP SWAP1 DUP3 PUSH32 0x645EE41665486BC487A04A91A2BD296D2D2395CABF7747B152436DD15F9D4F8F PUSH1 0x20 DUP8 SWAP5 PUSH3 0x979 PUSH1 0x40 MLOAD DUP1 SWAP7 PUSH3 0x35C JUMP JUMPDEST PUSH1 0x1 PUSH1 0x1 PUSH1 0xA0 SHL SUB AND SWAP4 LOG4 SWAP2 SWAP1 JUMP JUMPDEST PUSH32 0x645EE41665486BC487A04A91A2BD296D2D2395CABF7747B152436DD15F9D4F8F PUSH1 0x20 SWAP7 PUSH3 0x9BB DUP7 SWAP4 SWAP6 SWAP5 SWAP6 PUSH3 0x251 JUMP JUMPDEST SWAP7 POP POP SWAP2 SWAP1 SWAP2 PUSH3 0x942 JUMP JUMPDEST PUSH1 0x40 MLOAD RETURNDATASIZE DUP7 DUP3 RETURNDATACOPY RETURNDATASIZE SWAP1 REVERT JUMPDEST PUSH4 0x4E487B71 PUSH1 0xE0 SHL DUP14 MSTORE PUSH1 0x41 PUSH1 0x4 MSTORE PUSH1 0x24 DUP14 REVERT JUMPDEST PUSH1 0x40 MLOAD SWAP2 DUP3 PUSH2 0x15AF DUP2 ADD LT PUSH8 0xFFFFFFFFFFFFFFFF PUSH2 0x15AF DUP6 ADD GT OR PUSH3 0xAB1 JUMPI DUP3 SWAP2 PUSH3 0xA3D PUSH3 0xA54 SWAP3 PUSH2 0x15AF PUSH3 0x2DEA DUP7 CODECOPY PUSH1 0x1 PUSH1 0x1 PUSH1 0xA0 SHL SUB DUP13 AND PUSH2 0x15AF DUP7 ADD SWAP1 DUP2 MSTORE PUSH1 0x60 PUSH1 0x20 DUP3 ADD DUP2 SWAP1 MSTORE ADD SWAP1 PUSH3 0x335 JUMP JUMPDEST SWAP1 PUSH2 0x15AF DUP5 ADD DUP3 SUB PUSH1 0x40 PUSH2 0x15AF DUP7 ADD ADD MSTORE PUSH3 0x335 JUMP JUMPDEST SUB SWAP1 DUP10 CREATE DUP1 ISZERO PUSH3 0xAA6 JUMPI PUSH1 0x80 DUP2 SWAP1 MSTORE PUSH1 0x40 MLOAD PUSH1 0x1 PUSH1 0x1 PUSH1 0xA0 SHL SUB DUP9 DUP2 AND DUP3 MSTORE SWAP1 SWAP2 AND SWAP1 PUSH32 0x5D9C31FFA0FECFFD7CF379989A3C7AF252F0335E0D2A1320B55245912C781F53 SWAP1 PUSH1 0x20 SWAP1 LOG2 PUSH0 DUP1 PUSH3 0x49D JUMP JUMPDEST PUSH1 0x40 MLOAD RETURNDATASIZE DUP11 DUP3 RETURNDATACOPY RETURNDATASIZE SWAP1 REVERT JUMPDEST PUSH4 0x4E487B71 PUSH1 0xE0 SHL DUP12 MSTORE PUSH1 0x41 PUSH1 0x4 MSTORE PUSH1 0x24 DUP12 REVERT JUMPDEST PUSH4 0x4E487B71 PUSH1 0xE0 SHL DUP11 MSTORE PUSH1 0x21 PUSH1 0x4 MSTORE PUSH1 0x24 DUP11 REVERT JUMPDEST PUSH1 0x2 SWAP2 SWAP4 POP PUSH3 0xAFE SWAP1 DUP13 RETURNDATASIZE DUP1 SWAP2 DUP4 RETURNDATACOPY PUSH3 0xAF5 DUP2 DUP4 PUSH3 0x27A JUMP JUMPDEST DUP2 ADD SWAP1 PUSH3 0x2C0 JUMP JUMPDEST SWAP3 SWAP1 PUSH3 0x442 JUMP JUMPDEST PUSH1 0x40 MLOAD RETURNDATASIZE DUP13 DUP3 RETURNDATACOPY RETURNDATASIZE SWAP1 REVERT JUMPDEST PUSH3 0xB28 SWAP2 POP RETURNDATASIZE DUP1 DUP12 DUP4 RETURNDATACOPY PUSH3 0xAF5 DUP2 DUP4 PUSH3 0x27A JUMP JUMPDEST PUSH0 PUSH3 0x3D4 JUMP JUMPDEST PUSH1 0x40 MLOAD RETURNDATASIZE DUP12 DUP3 RETURNDATACOPY RETURNDATASIZE SWAP1 REVERT JUMPDEST PUSH1 0x40 MLOAD PUSH3 0x461BCD PUSH1 0xE5 SHL DUP2 MSTORE PUSH1 0x20 PUSH1 0x4 DUP3 ADD MSTORE PUSH1 0x11 PUSH1 0x24 DUP3 ADD MSTORE PUSH17 0x496E76616C696420616464726573736573 PUSH1 0x78 SHL PUSH1 0x44 DUP3 ADD MSTORE PUSH1 0x64 SWAP1 REVERT JUMPDEST POP PUSH1 0x1 PUSH1 0x1 PUSH1 0xA0 SHL SUB DUP8 AND ISZERO ISZERO PUSH3 0x3A0 JUMP INVALID PUSH1 0x80 CALLVALUE PUSH2 0xBB JUMPI PUSH1 0x1F PUSH2 0x948 CODESIZE DUP2 SWAP1 SUB SWAP2 DUP3 ADD PUSH1 0x1F NOT AND DUP4 ADD SWAP2 PUSH1 0x1 PUSH1 0x1 PUSH1 0x40 SHL SUB DUP4 GT DUP5 DUP5 LT OR PUSH2 0xBF JUMPI DUP1 DUP5 SWAP3 PUSH1 0x80 SWAP5 PUSH1 0x40 MSTORE DUP4 CODECOPY DUP2 ADD SUB SLT PUSH2 0xBB JUMPI DUP1 MLOAD PUSH1 0x1 PUSH1 0x1 PUSH1 0xA0 SHL SUB SWAP1 DUP2 DUP2 AND SWAP1 DUP2 SWAP1 SUB PUSH2 0xBB JUMPI PUSH1 0x20 DUP4 ADD MLOAD SWAP3 DUP3 DUP5 AND DUP1 SWAP5 SUB PUSH2 0xBB JUMPI PUSH1 0x40 DUP2 ADD MLOAD SWAP3 DUP4 AND DUP1 SWAP4 SUB PUSH2 0xBB JUMPI PUSH1 0x60 ADD MLOAD SWAP3 PUSH1 0x1 PUSH0 SSTORE PUSH1 0x1 DUP1 PUSH1 0xA0 SHL SUB NOT SWAP2 DUP3 PUSH1 0x1 SLOAD AND OR PUSH1 0x1 SSTORE DUP2 PUSH1 0x2 SLOAD AND OR PUSH1 0x2 SSTORE PUSH1 0x3 SLOAD AND OR PUSH1 0x3 SSTORE PUSH1 0x4 SSTORE PUSH1 0xFF NOT PUSH1 0x5 SLOAD AND PUSH1 0x5 SSTORE PUSH1 0x40 MLOAD PUSH2 0x874 SWAP1 DUP2 PUSH2 0xD4 DUP3 CODECOPY RETURN JUMPDEST PUSH0 DUP1 REVERT JUMPDEST PUSH4 0x4E487B71 PUSH1 0xE0 SHL PUSH0 MSTORE PUSH1 0x41 PUSH1 0x4 MSTORE PUSH1 0x24 PUSH0 REVERT INVALID PUSH1 0x80 DUP1 PUSH1 0x40 MSTORE PUSH1 0x4 CALLDATASIZE LT ISZERO PUSH2 0x12 JUMPI PUSH0 DUP1 REVERT JUMPDEST PUSH0 CALLDATALOAD PUSH1 0xE0 SHR SWAP1 DUP2 PUSH4 0x12261EE7 EQ PUSH2 0x69C JUMPI POP DUP1 PUSH4 0x38D52E0F EQ PUSH2 0x674 JUMPI DUP1 PUSH4 0x5CFFE9DE EQ PUSH2 0x1CF JUMPI DUP1 PUSH4 0x613255AB EQ PUSH2 0x129 JUMPI DUP1 PUSH4 0x8C9F305F EQ PUSH2 0x10C JUMPI DUP1 PUSH4 0xC19D93FB EQ PUSH2 0xCF JUMPI DUP1 PUSH4 0xD0FB0203 EQ PUSH2 0xA7 JUMPI PUSH4 0xD9D98CE4 EQ PUSH2 0x74 JUMPI PUSH0 DUP1 REVERT JUMPDEST CALLVALUE PUSH2 0xA3 JUMPI PUSH1 0x40 CALLDATASIZE PUSH1 0x3 NOT ADD SLT PUSH2 0xA3 JUMPI PUSH1 0x20 PUSH2 0x9B PUSH2 0x92 PUSH2 0x6BF JUMP JUMPDEST PUSH1 0x24 CALLDATALOAD SWAP1 PUSH2 0x77F JUMP JUMPDEST PUSH1 0x40 MLOAD SWAP1 DUP2 MSTORE RETURN JUMPDEST PUSH0 DUP1 REVERT JUMPDEST CALLVALUE PUSH2 0xA3 JUMPI PUSH0 CALLDATASIZE PUSH1 0x3 NOT ADD SLT PUSH2 0xA3 JUMPI PUSH1 0x3 SLOAD PUSH1 0x40 MLOAD PUSH1 0x1 PUSH1 0x1 PUSH1 0xA0 SHL SUB SWAP1 SWAP2 AND DUP2 MSTORE PUSH1 0x20 SWAP1 RETURN JUMPDEST CALLVALUE PUSH2 0xA3 JUMPI PUSH0 CALLDATASIZE PUSH1 0x3 NOT ADD SLT PUSH2 0xA3 JUMPI PUSH1 0xFF PUSH1 0x5 SLOAD AND PUSH1 0x40 MLOAD PUSH1 0x3 DUP3 LT ISZERO PUSH2 0xF8 JUMPI PUSH1 0x20 SWAP2 DUP2 MSTORE RETURN JUMPDEST PUSH4 0x4E487B71 PUSH1 0xE0 SHL PUSH0 MSTORE PUSH1 0x21 PUSH1 0x4 MSTORE PUSH1 0x24 PUSH0 REVERT JUMPDEST CALLVALUE PUSH2 0xA3 JUMPI PUSH0 CALLDATASIZE PUSH1 0x3 NOT ADD SLT PUSH2 0xA3 JUMPI PUSH1 0x20 PUSH1 0x4 SLOAD PUSH1 0x40 MLOAD SWAP1 DUP2 MSTORE RETURN JUMPDEST CALLVALUE PUSH2 0xA3 JUMPI PUSH1 0x20 DUP1 PUSH1 0x3 NOT CALLDATASIZE ADD SLT PUSH2 0xA3 JUMPI PUSH2 0x143 PUSH2 0x6BF JUMP JUMPDEST PUSH1 0x1 SLOAD PUSH1 0x1 PUSH1 0x1 PUSH1 0xA0 SHL SUB SWAP1 DUP2 AND SWAP2 DUP4 SWAP2 AND DUP3 SUB PUSH2 0x1C7 JUMPI PUSH1 0x40 MLOAD PUSH4 0x70A08231 PUSH1 0xE0 SHL DUP2 MSTORE ADDRESS PUSH1 0x4 DUP3 ADD MSTORE SWAP2 DUP3 SWAP1 PUSH1 0x24 SWAP1 DUP3 SWAP1 GAS STATICCALL SWAP1 DUP2 ISZERO PUSH2 0x1BC JUMPI PUSH0 SWAP2 PUSH2 0x18F JUMPI JUMPDEST POP PUSH1 0x40 MLOAD SWAP1 DUP2 MSTORE RETURN JUMPDEST SWAP1 POP DUP2 DUP2 DUP2 RETURNDATASIZE DUP4 GT PUSH2 0x1B5 JUMPI JUMPDEST PUSH2 0x1A6 DUP2 DUP4 PUSH2 0x6D5 JUMP JUMPDEST DUP2 ADD SUB SLT PUSH2 0xA3 JUMPI MLOAD DUP3 PUSH2 0x186 JUMP JUMPDEST POP RETURNDATASIZE PUSH2 0x19C JUMP JUMPDEST PUSH1 0x40 MLOAD RETURNDATASIZE PUSH0 DUP3 RETURNDATACOPY RETURNDATASIZE SWAP1 REVERT JUMPDEST POP POP PUSH0 PUSH2 0x9B JUMP JUMPDEST CALLVALUE PUSH2 0xA3 JUMPI PUSH1 0x80 CALLDATASIZE PUSH1 0x3 NOT ADD SLT PUSH2 0xA3 JUMPI PUSH1 0x4 CALLDATALOAD PUSH1 0x1 PUSH1 0x1 PUSH1 0xA0 SHL SUB DUP2 AND DUP2 SUB PUSH2 0xA3 JUMPI PUSH1 0x24 CALLDATALOAD SWAP1 PUSH1 0x1 PUSH1 0x1 PUSH1 0xA0 SHL SUB DUP3 AND DUP3 SUB PUSH2 0xA3 JUMPI PUSH8 0xFFFFFFFFFFFFFFFF DUP1 PUSH1 0x64 CALLDATALOAD GT PUSH2 0xA3 JUMPI CALLDATASIZE PUSH1 0x23 PUSH1 0x64 CALLDATALOAD ADD SLT ISZERO PUSH2 0xA3 JUMPI PUSH1 0x64 CALLDATALOAD PUSH1 0x4 ADD CALLDATALOAD GT PUSH2 0xA3 JUMPI CALLDATASIZE PUSH1 0x24 PUSH1 0x64 CALLDATALOAD PUSH1 0x4 ADD CALLDATALOAD PUSH1 0x64 CALLDATALOAD ADD ADD GT PUSH2 0xA3 JUMPI PUSH1 0x2 PUSH0 SLOAD EQ PUSH2 0x62F JUMPI PUSH1 0x2 PUSH0 SSTORE PUSH1 0x1 SLOAD PUSH1 0x1 PUSH1 0x1 PUSH1 0xA0 SHL SUB SWAP1 DUP2 AND SWAP3 SWAP1 PUSH2 0x270 SWAP1 DUP3 AND DUP5 EQ PUSH2 0x70B JUMP JUMPDEST PUSH1 0xFF PUSH1 0x5 SLOAD AND PUSH1 0x3 DUP2 LT ISZERO PUSH2 0xF8 JUMPI PUSH2 0x5EA JUMPI PUSH2 0x28F PUSH1 0x44 CALLDATALOAD DUP3 PUSH2 0x77F JUMP JUMPDEST SWAP1 PUSH1 0x40 MLOAD SWAP4 PUSH4 0x70A08231 PUSH1 0xE0 SHL DUP6 MSTORE ADDRESS PUSH1 0x4 DUP7 ADD MSTORE PUSH1 0x20 DUP6 PUSH1 0x24 DUP2 DUP5 GAS STATICCALL SWAP5 DUP6 ISZERO PUSH2 0x1BC JUMPI PUSH0 SWAP6 PUSH2 0x5B5 JUMPI JUMPDEST POP PUSH1 0x40 MLOAD PUSH4 0xA9059CBB PUSH1 0xE0 SHL DUP2 MSTORE PUSH1 0x1 PUSH1 0x1 PUSH1 0xA0 SHL SUB DUP6 AND PUSH1 0x4 DUP3 ADD MSTORE PUSH1 0x44 DUP1 CALLDATALOAD PUSH1 0x24 DUP4 ADD MSTORE SWAP1 SWAP2 PUSH1 0x20 SWAP2 DUP4 SWAP2 DUP3 SWAP1 PUSH0 SWAP1 GAS CALL DUP1 ISZERO PUSH2 0x1BC JUMPI PUSH2 0x596 JUMPI JUMPDEST POP PUSH1 0x40 MLOAD SWAP1 PUSH4 0x23E30C8B PUSH1 0xE0 SHL DUP3 MSTORE CALLER PUSH1 0x4 DUP4 ADD MSTORE PUSH1 0x1 DUP1 PUSH1 0xA0 SHL SUB AND PUSH1 0x24 DUP3 ADD MSTORE PUSH1 0x44 CALLDATALOAD PUSH1 0x44 DUP3 ADD MSTORE DUP2 PUSH1 0x64 DUP3 ADD MSTORE PUSH1 0xA0 PUSH1 0x84 DUP3 ADD MSTORE PUSH1 0x64 CALLDATALOAD PUSH1 0x4 ADD CALLDATALOAD PUSH1 0xA4 DUP3 ADD MSTORE PUSH1 0x64 CALLDATALOAD PUSH1 0x4 ADD CALLDATALOAD PUSH1 0x24 PUSH1 0x64 CALLDATALOAD ADD PUSH1 0xC4 DUP4 ADD CALLDATACOPY PUSH0 PUSH1 0xC4 PUSH1 0x64 CALLDATALOAD PUSH1 0x4 ADD CALLDATALOAD DUP4 ADD ADD MSTORE PUSH1 0x20 DUP2 PUSH1 0xC4 DUP2 PUSH1 0x1F NOT PUSH1 0x1F PUSH1 0x64 CALLDATALOAD PUSH1 0x4 ADD CALLDATALOAD ADD AND DUP2 ADD SUB ADD DUP2 PUSH0 PUSH1 0x1 DUP1 PUSH1 0xA0 SHL SUB DUP9 AND GAS CALL DUP1 ISZERO PUSH2 0x1BC JUMPI PUSH0 SWAP1 PUSH2 0x544 JUMPI JUMPDEST PUSH32 0x439148F0BBC682CA079E46D6E2C2F0C1E3B820F1A291B069D8882ABF8CF18DD9 SWAP2 POP SUB PUSH2 0x50B JUMPI PUSH2 0x3C4 PUSH1 0x20 SWAP2 PUSH1 0x44 CALLDATALOAD PUSH2 0x772 JUMP JUMPDEST PUSH1 0x1 SLOAD PUSH1 0x40 MLOAD PUSH4 0x23B872DD PUSH1 0xE0 SHL DUP2 MSTORE PUSH1 0x1 PUSH1 0x1 PUSH1 0xA0 SHL SUB SWAP5 DUP6 AND PUSH1 0x4 DUP3 ADD MSTORE ADDRESS PUSH1 0x24 DUP3 ADD MSTORE PUSH1 0x44 DUP2 ADD SWAP3 SWAP1 SWAP3 MSTORE SWAP1 SWAP3 DUP4 SWAP2 PUSH1 0x64 SWAP2 DUP4 SWAP2 PUSH0 SWAP2 AND GAS CALL DUP1 ISZERO PUSH2 0x1BC JUMPI PUSH2 0x4DC JUMPI JUMPDEST POP PUSH1 0x1 SLOAD PUSH1 0x40 MLOAD PUSH4 0x70A08231 PUSH1 0xE0 SHL DUP2 MSTORE ADDRESS PUSH1 0x4 DUP3 ADD MSTORE SWAP1 PUSH1 0x20 SWAP1 DUP3 SWAP1 PUSH1 0x24 SWAP1 DUP3 SWAP1 PUSH1 0x1 PUSH1 0x1 PUSH1 0xA0 SHL SUB AND GAS STATICCALL SWAP1 DUP2 ISZERO PUSH2 0x1BC JUMPI PUSH0 SWAP2 PUSH2 0x4AA JUMPI JUMPDEST POP LT PUSH2 0x465 JUMPI PUSH1 0xFF NOT PUSH1 0x5 SLOAD AND PUSH1 0x5 SSTORE PUSH1 0x1 PUSH0 SSTORE PUSH1 0x20 PUSH1 0x40 MLOAD PUSH1 0x1 DUP2 MSTORE RETURN JUMPDEST PUSH1 0x40 MLOAD PUSH3 0x461BCD PUSH1 0xE5 SHL DUP2 MSTORE PUSH1 0x20 PUSH1 0x4 DUP3 ADD MSTORE PUSH1 0x1B PUSH1 0x24 DUP3 ADD MSTORE PUSH32 0x466C617368206C6F616E2072657061796D656E74206661696C65640000000000 PUSH1 0x44 DUP3 ADD MSTORE PUSH1 0x64 SWAP1 REVERT JUMPDEST SWAP1 POP PUSH1 0x20 DUP2 RETURNDATASIZE PUSH1 0x20 GT PUSH2 0x4D4 JUMPI JUMPDEST DUP2 PUSH2 0x4C5 PUSH1 0x20 SWAP4 DUP4 PUSH2 0x6D5 JUMP JUMPDEST DUP2 ADD SUB SLT PUSH2 0xA3 JUMPI MLOAD DUP3 PUSH2 0x446 JUMP JUMPDEST RETURNDATASIZE SWAP2 POP PUSH2 0x4B8 JUMP JUMPDEST PUSH2 0x4FD SWAP1 PUSH1 0x20 RETURNDATASIZE PUSH1 0x20 GT PUSH2 0x504 JUMPI JUMPDEST PUSH2 0x4F5 DUP2 DUP4 PUSH2 0x6D5 JUMP JUMPDEST DUP2 ADD SWAP1 PUSH2 0x826 JUMP JUMPDEST POP DUP2 PUSH2 0x40B JUMP JUMPDEST POP RETURNDATASIZE PUSH2 0x4EB JUMP JUMPDEST PUSH1 0x40 MLOAD PUSH3 0x461BCD PUSH1 0xE5 SHL DUP2 MSTORE PUSH1 0x20 PUSH1 0x4 DUP3 ADD MSTORE PUSH1 0x11 PUSH1 0x24 DUP3 ADD MSTORE PUSH17 0x119B185CDA081B1BD85B8819985A5B1959 PUSH1 0x7A SHL PUSH1 0x44 DUP3 ADD MSTORE PUSH1 0x64 SWAP1 REVERT JUMPDEST POP PUSH1 0x20 DUP2 RETURNDATASIZE PUSH1 0x20 GT PUSH2 0x58E JUMPI JUMPDEST DUP2 PUSH2 0x55E PUSH1 0x20 SWAP4 DUP4 PUSH2 0x6D5 JUMP JUMPDEST DUP2 ADD SUB SLT PUSH2 0xA3 JUMPI PUSH32 0x439148F0BBC682CA079E46D6E2C2F0C1E3B820F1A291B069D8882ABF8CF18DD9 SWAP1 MLOAD PUSH2 0x38E JUMP JUMPDEST RETURNDATASIZE SWAP2 POP PUSH2 0x551 JUMP JUMPDEST PUSH2 0x5AE SWAP1 PUSH1 0x20 RETURNDATASIZE PUSH1 0x20 GT PUSH2 0x504 JUMPI PUSH2 0x4F5 DUP2 DUP4 PUSH2 0x6D5 JUMP JUMPDEST POP DUP5 PUSH2 0x2F9 JUMP JUMPDEST SWAP1 SWAP5 POP PUSH1 0x20 DUP2 RETURNDATASIZE PUSH1 0x20 GT PUSH2 0x5E2 JUMPI JUMPDEST DUP2 PUSH2 0x5D1 PUSH1 0x20 SWAP4 DUP4 PUSH2 0x6D5 JUMP JUMPDEST DUP2 ADD SUB SLT PUSH2 0xA3 JUMPI MLOAD SWAP4 PUSH1 0x20 PUSH2 0x2BB JUMP JUMPDEST RETURNDATASIZE SWAP2 POP PUSH2 0x5C4 JUMP JUMPDEST PUSH1 0x40 MLOAD PUSH3 0x461BCD PUSH1 0xE5 SHL DUP2 MSTORE PUSH1 0x20 PUSH1 0x4 DUP3 ADD MSTORE PUSH1 0x18 PUSH1 0x24 DUP3 ADD MSTORE PUSH32 0x466C617368206C6F616E206E6F7420617661696C61626C650000000000000000 PUSH1 0x44 DUP3 ADD MSTORE PUSH1 0x64 SWAP1 REVERT JUMPDEST PUSH1 0x40 MLOAD PUSH3 0x461BCD PUSH1 0xE5 SHL DUP2 MSTORE PUSH1 0x20 PUSH1 0x4 DUP3 ADD MSTORE PUSH1 0x1F PUSH1 0x24 DUP3 ADD MSTORE PUSH32 0x5265656E7472616E637947756172643A207265656E7472616E742063616C6C00 PUSH1 0x44 DUP3 ADD MSTORE PUSH1 0x64 SWAP1 REVERT JUMPDEST CALLVALUE PUSH2 0xA3 JUMPI PUSH0 CALLDATASIZE PUSH1 0x3 NOT ADD SLT PUSH2 0xA3 JUMPI PUSH1 0x1 SLOAD PUSH1 0x40 MLOAD PUSH1 0x1 PUSH1 0x1 PUSH1 0xA0 SHL SUB SWAP1 SWAP2 AND DUP2 MSTORE PUSH1 0x20 SWAP1 RETURN JUMPDEST CALLVALUE PUSH2 0xA3 JUMPI PUSH0 CALLDATASIZE PUSH1 0x3 NOT ADD SLT PUSH2 0xA3 JUMPI PUSH1 0x2 SLOAD PUSH1 0x1 PUSH1 0x1 PUSH1 0xA0 SHL SUB AND DUP2 MSTORE PUSH1 0x20 SWAP1 RETURN JUMPDEST PUSH1 0x4 CALLDATALOAD SWAP1 PUSH1 0x1 PUSH1 0x1 PUSH1 0xA0 SHL SUB DUP3 AND DUP3 SUB PUSH2 0xA3 JUMPI JUMP JUMPDEST SWAP1 PUSH1 0x1F DUP1 NOT SWAP2 ADD AND DUP2 ADD SWAP1 DUP2 LT PUSH8 0xFFFFFFFFFFFFFFFF DUP3 GT OR PUSH2 0x6F7 JUMPI PUSH1 0x40 MSTORE JUMP JUMPDEST PUSH4 0x4E487B71 PUSH1 0xE0 SHL PUSH0 MSTORE PUSH1 0x41 PUSH1 0x4 MSTORE PUSH1 0x24 PUSH0 REVERT JUMPDEST ISZERO PUSH2 0x712 JUMPI JUMP JUMPDEST PUSH1 0x40 MLOAD PUSH3 0x461BCD PUSH1 0xE5 SHL DUP2 MSTORE PUSH1 0x20 PUSH1 0x4 DUP3 ADD MSTORE PUSH1 0x11 PUSH1 0x24 DUP3 ADD MSTORE PUSH17 0x2AB739BAB83837B93A32B2103A37B5B2B7 PUSH1 0x79 SHL PUSH1 0x44 DUP3 ADD MSTORE PUSH1 0x64 SWAP1 REVERT JUMPDEST DUP2 DUP2 MUL SWAP3 SWAP2 DUP2 ISZERO SWAP2 DUP5 DIV EQ OR ISZERO PUSH2 0x75E JUMPI JUMP JUMPDEST PUSH4 0x4E487B71 PUSH1 0xE0 SHL PUSH0 MSTORE PUSH1 0x11 PUSH1 0x4 MSTORE PUSH1 0x24 PUSH0 REVERT JUMPDEST SWAP2 SWAP1 DUP3 ADD DUP1 SWAP3 GT PUSH2 0x75E JUMPI JUMP JUMPDEST PUSH1 0x1 SLOAD SWAP2 SWAP3 SWAP2 PUSH1 0x1 PUSH1 0x1 PUSH1 0xA0 SHL SUB SWAP2 PUSH2 0x79D SWAP2 DUP4 AND SWAP1 DUP4 AND EQ PUSH2 0x70B JUMP JUMPDEST PUSH2 0x2710 PUSH1 0x4 PUSH1 0x20 DUP3 PUSH2 0x7B0 DUP4 SLOAD DUP9 PUSH2 0x74B JUMP JUMPDEST DIV SWAP4 PUSH1 0x3 SLOAD AND PUSH1 0x40 MLOAD SWAP3 DUP4 DUP1 SWAP3 PUSH4 0x53E755B PUSH1 0xE0 SHL DUP3 MSTORE GAS STATICCALL SWAP1 DUP2 ISZERO PUSH2 0x1BC JUMPI PUSH0 SWAP2 PUSH2 0x7F0 JUMPI JUMPDEST POP PUSH2 0x7E6 SWAP1 PUSH2 0x7ED SWAP5 SWAP6 PUSH2 0x74B JUMP JUMPDEST DIV SWAP1 PUSH2 0x772 JUMP JUMPDEST SWAP1 JUMP JUMPDEST SWAP1 PUSH1 0x20 DUP3 RETURNDATASIZE DUP3 GT PUSH2 0x81E JUMPI JUMPDEST DUP2 PUSH2 0x809 PUSH1 0x20 SWAP4 DUP4 PUSH2 0x6D5 JUMP JUMPDEST DUP2 ADD SUB SLT PUSH2 0x81B JUMPI POP MLOAD PUSH2 0x7ED PUSH2 0x7D7 JUMP JUMPDEST DUP1 REVERT JUMPDEST RETURNDATASIZE SWAP2 POP PUSH2 0x7FC JUMP JUMPDEST SWAP1 DUP2 PUSH1 0x20 SWAP2 SUB SLT PUSH2 0xA3 JUMPI MLOAD DUP1 ISZERO ISZERO DUP2 SUB PUSH2 0xA3 JUMPI SWAP1 JUMP INVALID LOG2 PUSH5 0x6970667358 0x22 SLT KECCAK256 0xCE PUSH29 0x22914DC40E9D9F217A72D9ADDF7A5687ED65EE6609EE9F2DBA98BEBA5F PUSH19 0x64736F6C63430008140033608034620003D257 PUSH1 0x1F PUSH3 0x191B CODESIZE DUP2 SWAP1 SUB SWAP2 DUP3 ADD PUSH1 0x1F NOT AND DUP4 ADD SWAP2 PUSH1 0x1 PUSH1 0x1 PUSH1 0x40 SHL SUB DUP4 GT DUP5 DUP5 LT OR PUSH3 0x32C JUMPI DUP1 DUP5 SWAP3 PUSH2 0x180 SWAP5 PUSH1 0x40 MSTORE DUP4 CODECOPY DUP2 ADD SUB SLT PUSH3 0x3D2 JUMPI PUSH3 0x4E DUP2 PUSH3 0x3D6 JUMP JUMPDEST PUSH3 0x5C PUSH1 0x20 DUP4 ADD PUSH3 0x3D6 JUMP JUMPDEST SWAP2 PUSH3 0x6B PUSH1 0x40 DUP3 ADD PUSH3 0x3D6 JUMP JUMPDEST SWAP2 PUSH3 0x7A PUSH1 0x60 DUP4 ADD PUSH3 0x3D6 JUMP JUMPDEST SWAP3 PUSH1 0x80 DUP4 ADD MLOAD SWAP5 PUSH1 0xA0 DUP5 ADD MLOAD SWAP4 PUSH1 0xC0 DUP2 ADD MLOAD SWAP1 PUSH1 0xE0 DUP2 ADD MLOAD PUSH1 0x1 DUP1 PUSH1 0xA0 SHL SUB DUP2 AND DUP2 SUB PUSH3 0x3D2 JUMPI PUSH2 0x100 DUP3 ADD MLOAD SWAP2 PUSH1 0x1 PUSH1 0x1 PUSH1 0xA0 SHL SUB DUP4 AND DUP4 SUB PUSH3 0x3D2 JUMPI PUSH3 0xC9 PUSH2 0x120 DUP3 ADD PUSH3 0x3D6 JUMP JUMPDEST PUSH3 0xE7 PUSH2 0x160 PUSH3 0xDF PUSH2 0x140 DUP6 ADD PUSH3 0x3D6 JUMP JUMPDEST SWAP4 ADD PUSH3 0x3D6 JUMP JUMPDEST PUSH1 0x1 PUSH0 SSTORE SWAP4 PUSH1 0x1 PUSH1 0x1 PUSH1 0xA0 SHL SUB DUP10 AND ISZERO ISZERO DUP1 PUSH3 0x3BF JUMPI JUMPDEST DUP1 PUSH3 0x3AC JUMPI JUMPDEST DUP1 PUSH3 0x399 JUMPI JUMPDEST ISZERO PUSH3 0x354 JUMPI PUSH1 0x1 DUP1 SLOAD PUSH1 0x1 PUSH1 0x1 PUSH1 0xA0 SHL SUB NOT SWAP1 DUP2 AND PUSH1 0x1 PUSH1 0x1 PUSH1 0xA0 SHL SUB SWAP4 DUP5 AND OR SWAP1 SWAP2 SSTORE PUSH1 0x2 DUP1 SLOAD DUP3 AND SWAP4 DUP4 AND SWAP4 SWAP1 SWAP4 OR SWAP1 SWAP3 SSTORE PUSH1 0x3 DUP1 SLOAD SWAP1 SWAP3 AND SWAP1 DUP4 AND OR SWAP1 SSTORE PUSH1 0x4 SLOAD SWAP4 PUSH3 0x15180 SWAP1 DUP1 ISZERO DUP3 DUP3 MUL DUP3 SWAP1 DIV DUP4 EQ OR ISZERO PUSH3 0x340 JUMPI PUSH1 0x40 MLOAD SWAP10 PUSH1 0x1 PUSH1 0x1 PUSH1 0x40 SHL SUB PUSH2 0x180 DUP13 ADD SWAP1 DUP2 GT SWAP1 DUP13 GT OR PUSH3 0x32C JUMPI DUP13 PUSH0 PUSH2 0x160 DUP14 PUSH32 0x3D48195705780F5C10A0D217F778F0F6D562CB1A6A699DA31C0D6D756AACEDFC SWAP16 PUSH1 0x60 SWAP16 DUP16 SWAP1 PUSH2 0x180 ADD PUSH1 0x40 MSTORE PUSH1 0x1 DUP1 PUSH1 0xA0 SHL SUB AND DUP3 MSTORE PUSH1 0x1 DUP1 PUSH1 0xA0 SHL SUB DUP14 AND PUSH1 0x20 DUP4 ADD MSTORE DUP14 PUSH1 0x1 DUP1 PUSH1 0xA0 SHL SUB AND PUSH1 0x40 DUP4 ADD MSTORE PUSH1 0x1 DUP1 PUSH1 0xA0 SHL SUB AND SWAP4 DUP16 DUP6 SWAP1 DUP4 ADD MSTORE PUSH1 0x80 DUP3 ADD MSTORE DUP5 PUSH1 0xA0 DUP3 ADD MSTORE DUP7 DUP7 MUL PUSH1 0xC0 DUP3 ADD MSTORE PUSH1 0x1 DUP1 PUSH1 0xA0 SHL SUB DUP9 AND PUSH1 0xE0 DUP3 ADD MSTORE PUSH1 0x1 DUP1 PUSH1 0xA0 SHL SUB DUP10 AND PUSH2 0x100 DUP3 ADD MSTORE DUP3 PUSH2 0x120 DUP3 ADD MSTORE TIMESTAMP PUSH2 0x140 DUP3 ADD MSTORE ADD MSTORE PUSH1 0x1 DUP1 PUSH1 0xA0 SHL SUB DUP12 AND PUSH1 0x1 DUP1 PUSH1 0xA0 SHL SUB NOT PUSH1 0x5 SLOAD AND OR PUSH1 0x5 SSTORE PUSH1 0x1 DUP1 PUSH1 0xA0 SHL SUB DUP10 AND PUSH1 0x1 DUP1 PUSH1 0xA0 SHL SUB NOT PUSH1 0x6 SLOAD AND OR PUSH1 0x6 SSTORE PUSH1 0x1 DUP1 PUSH1 0xA0 SHL SUB DUP11 AND PUSH1 0x1 DUP1 PUSH1 0xA0 SHL SUB NOT PUSH1 0x7 SLOAD AND OR PUSH1 0x7 SSTORE PUSH1 0x1 DUP1 PUSH1 0xA0 SHL SUB NOT PUSH1 0x8 SLOAD AND OR PUSH1 0x8 SSTORE DUP13 PUSH1 0x9 SSTORE PUSH1 0xA SSTORE MUL PUSH1 0xB SSTORE PUSH1 0x1 DUP1 PUSH1 0xA0 SHL SUB AND PUSH1 0x1 DUP1 PUSH1 0xA0 SHL SUB NOT PUSH1 0xC SLOAD AND OR PUSH1 0xC SSTORE PUSH1 0x1 DUP1 PUSH1 0xA0 SHL SUB AND PUSH1 0x1 DUP1 PUSH1 0xA0 SHL SUB NOT PUSH1 0xD SLOAD AND OR PUSH1 0xD SSTORE PUSH1 0x1 DUP1 PUSH1 0xA0 SHL SUB NOT PUSH1 0xE SLOAD AND PUSH1 0xE SSTORE TIMESTAMP PUSH1 0xF SSTORE PUSH0 PUSH1 0x10 SSTORE PUSH1 0x1 DUP1 PUSH1 0xA0 SHL SUB AND SWAP1 PUSH1 0x1 DUP1 PUSH1 0xA8 SHL SUB NOT AND OR PUSH1 0x4 SSTORE PUSH1 0x40 MLOAD SWAP6 DUP7 MSTORE PUSH1 0x1 DUP1 PUSH1 0xA0 SHL SUB AND PUSH1 0x20 DUP7 ADD MSTORE PUSH1 0x1 DUP1 PUSH1 0xA0 SHL SUB AND PUSH1 0x40 DUP6 ADD MSTORE PUSH1 0x1 DUP1 PUSH1 0xA0 SHL SUB AND SWAP3 LOG2 PUSH1 0x40 MLOAD PUSH2 0x152F SWAP1 DUP2 PUSH3 0x3EC DUP3 CODECOPY RETURN JUMPDEST PUSH4 0x4E487B71 PUSH1 0xE0 SHL PUSH0 MSTORE PUSH1 0x41 PUSH1 0x4 MSTORE PUSH1 0x24 PUSH0 REVERT JUMPDEST PUSH4 0x4E487B71 PUSH1 0xE0 SHL PUSH0 MSTORE PUSH1 0x11 PUSH1 0x4 MSTORE PUSH1 0x24 PUSH0 REVERT JUMPDEST PUSH1 0x40 MLOAD PUSH3 0x461BCD PUSH1 0xE5 SHL DUP2 MSTORE PUSH1 0x20 PUSH1 0x4 DUP3 ADD MSTORE PUSH1 0x17 PUSH1 0x24 DUP3 ADD MSTORE PUSH32 0x496E76616C696420696E70757420616464726573736573000000000000000000 PUSH1 0x44 DUP3 ADD MSTORE PUSH1 0x64 SWAP1 REVERT JUMPDEST POP PUSH1 0x1 PUSH1 0x1 PUSH1 0xA0 SHL SUB DUP9 AND ISZERO ISZERO PUSH3 0x10D JUMP JUMPDEST POP PUSH1 0x1 PUSH1 0x1 PUSH1 0xA0 SHL SUB DUP12 AND ISZERO ISZERO PUSH3 0x106 JUMP JUMPDEST POP PUSH1 0x1 PUSH1 0x1 PUSH1 0xA0 SHL SUB DUP8 AND ISZERO ISZERO PUSH3 0xFF JUMP JUMPDEST PUSH0 DUP1 REVERT JUMPDEST MLOAD SWAP1 PUSH1 0x1 PUSH1 0x1 PUSH1 0xA0 SHL SUB DUP3 AND DUP3 SUB PUSH3 0x3D2 JUMPI JUMP INVALID PUSH1 0x80 PUSH1 0x40 DUP2 DUP2 MSTORE PUSH1 0x4 SWAP2 DUP3 CALLDATASIZE LT ISZERO PUSH2 0x15 JUMPI PUSH0 DUP1 REVERT JUMPDEST PUSH0 SWAP3 DUP4 CALLDATALOAD PUSH1 0xE0 SHR SWAP2 DUP3 PUSH4 0xC7277DE EQ PUSH2 0x1275 JUMPI POP DUP2 PUSH4 0xF4EF8A6 EQ PUSH2 0x124D JUMPI DUP2 PUSH4 0x12261EE7 EQ PUSH2 0x1224 JUMPI DUP2 PUSH4 0x2E1283E3 EQ PUSH2 0x1205 JUMPI DUP2 PUSH4 0x3B1BAEFF EQ PUSH2 0xF5F JUMPI DUP2 PUSH4 0x402D8883 EQ PUSH2 0xA90 JUMPI DUP2 PUSH4 0x5257B566 EQ PUSH2 0xA71 JUMPI DUP2 PUSH4 0x64C4BEC0 EQ PUSH2 0xA52 JUMPI DUP2 PUSH4 0x654C6295 EQ PUSH2 0x9B6 JUMPI DUP2 PUSH4 0x6B6D1955 EQ PUSH2 0x996 JUMPI DUP2 PUSH4 0x8A4ADF24 EQ PUSH2 0x96D JUMPI DUP2 PUSH4 0x8DB57994 EQ PUSH2 0x81A JUMPI DUP2 PUSH4 0x95CB741D EQ PUSH2 0x783 JUMPI DUP2 PUSH4 0x9E9F669C EQ PUSH2 0x15F JUMPI DUP2 PUSH4 0xB2A9BB60 EQ PUSH2 0x18F JUMPI DUP2 PUSH4 0xC19D93FB EQ PUSH2 0x15F JUMPI POP DUP1 PUSH4 0xC51B9507 EQ PUSH2 0x137 JUMPI DUP1 PUSH4 0xEB0C4955 EQ PUSH2 0x114 JUMPI PUSH4 0xF4B01B18 EQ PUSH2 0xF3 JUMPI PUSH0 DUP1 REVERT JUMPDEST CALLVALUE PUSH2 0x110 JUMPI DUP2 PUSH1 0x3 NOT CALLDATASIZE ADD SLT PUSH2 0x110 JUMPI PUSH1 0x20 SWAP1 PUSH1 0x9 SLOAD SWAP1 MLOAD SWAP1 DUP2 MSTORE RETURN JUMPDEST POP DUP1 REVERT JUMPDEST POP CALLVALUE PUSH2 0x110 JUMPI DUP2 PUSH1 0x3 NOT CALLDATASIZE ADD SLT PUSH2 0x110 JUMPI PUSH1 0x20 SWAP1 PUSH2 0x130 PUSH2 0x1476 JUMP JUMPDEST SWAP1 MLOAD SWAP1 DUP2 MSTORE RETURN JUMPDEST POP CALLVALUE PUSH2 0x110 JUMPI DUP2 PUSH1 0x3 NOT CALLDATASIZE ADD SLT PUSH2 0x110 JUMPI PUSH1 0x2 SLOAD SWAP1 MLOAD PUSH1 0x1 PUSH1 0x1 PUSH1 0xA0 SHL SUB SWAP1 SWAP2 AND DUP2 MSTORE PUSH1 0x20 SWAP1 RETURN JUMPDEST DUP3 DUP5 CALLVALUE PUSH2 0x18C JUMPI DUP1 PUSH1 0x3 NOT CALLDATASIZE ADD SLT PUSH2 0x18C JUMPI POP PUSH1 0xFF PUSH2 0x188 SWAP3 SLOAD PUSH1 0xA0 SHR AND SWAP1 MLOAD SWAP2 DUP3 SWAP2 DUP3 PUSH2 0x129A JUMP JUMPDEST SUB SWAP1 RETURN JUMPDEST DUP1 REVERT JUMPDEST SWAP2 SWAP1 POP CALLVALUE PUSH2 0x4CC JUMPI DUP3 PUSH1 0x3 NOT CALLDATASIZE ADD SLT PUSH2 0x4CC JUMPI PUSH2 0x1AA PUSH2 0x12C1 JUMP JUMPDEST PUSH1 0xFF DUP3 SLOAD PUSH1 0xA0 SHR AND PUSH1 0x6 DUP2 LT ISZERO PUSH2 0x770 JUMPI PUSH1 0x1 SUB PUSH2 0x72D JUMPI CALLER ISZERO PUSH2 0x6EA JUMPI PUSH1 0x5 SLOAD PUSH1 0x1 PUSH1 0x1 PUSH1 0xA0 SHL SUB SWAP3 SWAP1 DUP4 AND SWAP1 CALLER DUP3 EQ PUSH2 0x6A7 JUMPI PUSH2 0x1E7 PUSH2 0x1476 JUMP JUMPDEST PUSH2 0x1F4 PUSH1 0x9 SLOAD SWAP2 DUP3 PUSH2 0x1377 JUMP JUMPDEST PUSH1 0x7 SLOAD DUP6 MLOAD PUSH4 0x6EB1769F PUSH1 0xE1 SHL DUP1 DUP3 MSTORE CALLER DUP7 DUP4 ADD SWAP1 DUP2 MSTORE ADDRESS PUSH1 0x20 DUP3 DUP2 ADD SWAP2 SWAP1 SWAP2 MSTORE SWAP8 SWAP4 DUP11 AND SWAP5 SWAP2 SWAP3 SWAP1 DUP9 SWAP1 DUP3 SWAP1 DUP2 SWAP1 PUSH1 0x40 ADD SUB DUP2 DUP9 GAS STATICCALL SWAP1 DUP2 ISZERO PUSH2 0x69D JUMPI DUP12 SWAP2 PUSH2 0x670 JUMPI JUMPDEST POP LT PUSH2 0x623 JUMPI PUSH1 0x6 SLOAD DUP8 MLOAD SWAP2 DUP3 MSTORE PUSH1 0x1 PUSH1 0x1 PUSH1 0xA0 SHL SUB SWAP1 SWAP3 AND DUP6 DUP3 ADD SWAP1 DUP2 MSTORE ADDRESS PUSH1 0x20 DUP3 ADD MSTORE SWAP1 SWAP2 DUP7 SWAP2 DUP4 SWAP2 DUP11 AND SWAP1 DUP3 SWAP1 DUP2 SWAP1 PUSH1 0x40 ADD SUB SWAP2 GAS STATICCALL SWAP1 DUP2 ISZERO PUSH2 0x619 JUMPI SWAP1 DUP4 SWAP2 DUP10 SWAP2 PUSH2 0x5E8 JUMPI JUMPDEST POP LT PUSH2 0x5A5 JUMPI SWAP1 DUP7 SWAP3 SWAP2 PUSH2 0x29E PUSH2 0x298 PUSH2 0x1476 JUMP JUMPDEST DUP4 PUSH2 0x1377 JUMP JUMPDEST PUSH2 0x2A6 PUSH2 0x1476 JUMP JUMPDEST DUP8 MLOAD PUSH4 0x23B872DD PUSH1 0xE0 SHL DUP1 DUP3 MSTORE CALLER DUP8 DUP4 ADD SWAP1 DUP2 MSTORE ADDRESS PUSH1 0x20 DUP3 ADD MSTORE PUSH1 0x40 DUP2 ADD SWAP5 SWAP1 SWAP5 MSTORE SWAP2 SWAP4 SWAP2 SWAP3 SWAP1 SWAP2 DUP9 SWAP2 DUP4 SWAP2 SWAP1 DUP3 SWAP1 DUP11 SWAP1 DUP3 SWAP1 PUSH1 0x60 ADD SUB SWAP3 GAS CALL DUP1 ISZERO PUSH2 0x59B JUMPI SWAP2 PUSH2 0x332 SWAP4 SWAP2 DUP9 SWAP4 PUSH2 0x57E JUMPI JUMPDEST POP DUP10 PUSH1 0x7 SLOAD AND SWAP1 DUP8 DUP12 PUSH1 0x3 SLOAD AND SWAP2 DUP12 MLOAD SWAP7 DUP8 SWAP6 DUP7 SWAP5 DUP6 SWAP4 DUP5 MSTORE CALLER DUP13 DUP6 ADD PUSH1 0x40 SWAP2 SWAP5 SWAP4 SWAP3 SWAP5 PUSH1 0x60 DUP3 ADD SWAP6 PUSH1 0x1 DUP1 PUSH1 0xA0 SHL SUB DUP1 SWAP3 AND DUP4 MSTORE AND PUSH1 0x20 DUP3 ADD MSTORE ADD MSTORE JUMP JUMPDEST SUB SWAP3 GAS CALL DUP1 ISZERO PUSH2 0x557 JUMPI PUSH2 0x561 JUMPI JUMPDEST POP PUSH1 0x7 SLOAD PUSH1 0x8 SLOAD DUP7 MLOAD PUSH4 0x95EA7B3 PUSH1 0xE0 SHL DUP2 MSTORE SWAP1 DUP9 AND PUSH1 0x1 PUSH1 0x1 PUSH1 0xA0 SHL SUB AND DUP5 DUP3 ADD SWAP1 DUP2 MSTORE PUSH1 0x20 DUP2 ADD DUP5 SWAP1 MSTORE SWAP1 SWAP2 DUP7 SWAP2 DUP4 SWAP2 DUP11 AND SWAP1 DUP3 SWAP1 DUP9 SWAP1 DUP3 SWAP1 PUSH1 0x40 ADD SUB SWAP3 GAS CALL DUP1 ISZERO PUSH2 0x557 JUMPI SWAP2 DUP6 SWAP2 DUP6 SWAP4 PUSH2 0x53A JUMPI JUMPDEST POP PUSH1 0x44 DUP9 PUSH1 0x8 SLOAD AND SWAP2 DUP9 MLOAD SWAP5 DUP6 SWAP4 DUP5 SWAP3 PUSH4 0x6E553F65 PUSH1 0xE0 SHL DUP5 MSTORE DUP9 DUP5 ADD MSTORE CALLER PUSH1 0x24 DUP5 ADD MSTORE GAS CALL DUP1 ISZERO PUSH2 0x4FD JUMPI SWAP1 DUP5 SWAP2 PUSH2 0x507 JUMPI JUMPDEST POP PUSH1 0x6 SLOAD PUSH1 0x9 SLOAD DUP7 MLOAD PUSH4 0xA9059CBB PUSH1 0xE0 SHL DUP2 MSTORE CALLER DUP6 DUP3 ADD SWAP1 DUP2 MSTORE PUSH1 0x20 DUP2 ADD SWAP3 SWAP1 SWAP3 MSTORE SWAP3 SWAP2 DUP4 SWAP2 DUP3 SWAP1 SUB PUSH1 0x40 ADD SWAP1 DUP3 SWAP1 DUP8 SWAP1 DUP12 AND GAS CALL DUP1 ISZERO PUSH2 0x4FD JUMPI PUSH2 0x4D0 JUMPI JUMPDEST POP PUSH1 0xE DUP1 SLOAD PUSH1 0x1 PUSH1 0x1 PUSH1 0xA0 SHL SUB NOT AND CALLER OR SWAP1 SSTORE TIMESTAMP PUSH1 0xF SSTORE DUP1 SLOAD PUSH1 0xFF PUSH1 0xA0 SHL NOT AND PUSH1 0x1 PUSH1 0xA1 SHL OR DUP2 SSTORE PUSH2 0x442 PUSH2 0x43A PUSH2 0x1476 JUMP JUMPDEST PUSH1 0x9 SLOAD PUSH2 0x1377 JUMP JUMPDEST SWAP5 PUSH1 0x3 SLOAD AND SWAP1 DUP2 EXTCODESIZE ISZERO PUSH2 0x4CC JUMPI DUP3 SWAP2 PUSH1 0x24 DUP4 SWAP3 DUP8 MLOAD SWAP5 DUP6 SWAP4 DUP5 SWAP3 PUSH4 0x2914526D PUSH1 0xE1 SHL DUP5 MSTORE ADDRESS SWAP1 DUP5 ADD MSTORE GAS CALL DUP1 ISZERO PUSH2 0x4C2 JUMPI PUSH2 0x4AA JUMPI JUMPDEST POP POP PUSH32 0x5150AB7694A22FBC01C642BC10316565247DF962FA3F0AC3B5D1A18BA45B485B SWAP2 MLOAD SWAP3 DUP4 MSTORE CALLER SWAP3 LOG2 PUSH1 0x1 DUP2 SSTORE DUP1 RETURN JUMPDEST PUSH2 0x4B3 SWAP1 PUSH2 0x1315 JUMP JUMPDEST PUSH2 0x4BE JUMPI DUP4 PUSH0 PUSH2 0x478 JUMP JUMPDEST DUP4 DUP1 REVERT JUMPDEST DUP5 MLOAD RETURNDATASIZE DUP5 DUP3 RETURNDATACOPY RETURNDATASIZE SWAP1 REVERT JUMPDEST DUP3 DUP1 REVERT JUMPDEST PUSH2 0x4EF SWAP1 DUP5 RETURNDATASIZE DUP7 GT PUSH2 0x4F6 JUMPI JUMPDEST PUSH2 0x4E7 DUP2 DUP4 PUSH2 0x133D JUMP JUMPDEST DUP2 ADD SWAP1 PUSH2 0x135F JUMP JUMPDEST POP PUSH0 PUSH2 0x407 JUMP JUMPDEST POP RETURNDATASIZE PUSH2 0x4DD JUMP JUMPDEST DUP6 MLOAD RETURNDATASIZE DUP6 DUP3 RETURNDATACOPY RETURNDATASIZE SWAP1 REVERT JUMPDEST SWAP1 DUP1 SWAP3 SWAP4 POP RETURNDATASIZE DUP4 GT PUSH2 0x533 JUMPI JUMPDEST PUSH2 0x51E DUP2 DUP4 PUSH2 0x133D JUMP JUMPDEST DUP2 ADD SUB SLT PUSH2 0x52F JUMPI DUP5 SWAP1 DUP3 PUSH0 PUSH2 0x3C7 JUMP JUMPDEST PUSH0 DUP1 REVERT JUMPDEST POP RETURNDATASIZE PUSH2 0x514 JUMP JUMPDEST PUSH2 0x550 SWAP1 DUP4 RETURNDATASIZE DUP6 GT PUSH2 0x4F6 JUMPI PUSH2 0x4E7 DUP2 DUP4 PUSH2 0x133D JUMP JUMPDEST POP PUSH0 PUSH2 0x393 JUMP JUMPDEST DUP7 MLOAD RETURNDATASIZE DUP7 DUP3 RETURNDATACOPY RETURNDATASIZE SWAP1 REVERT JUMPDEST PUSH2 0x577 SWAP1 DUP6 RETURNDATASIZE DUP8 GT PUSH2 0x4F6 JUMPI PUSH2 0x4E7 DUP2 DUP4 PUSH2 0x133D JUMP JUMPDEST POP PUSH0 PUSH2 0x341 JUMP JUMPDEST PUSH2 0x594 SWAP1 DUP5 RETURNDATASIZE DUP7 GT PUSH2 0x4F6 JUMPI PUSH2 0x4E7 DUP2 DUP4 PUSH2 0x133D JUMP JUMPDEST POP PUSH0 PUSH2 0x2F3 JUMP JUMPDEST DUP9 MLOAD RETURNDATASIZE DUP9 DUP3 RETURNDATACOPY RETURNDATASIZE SWAP1 REVERT JUMPDEST DUP5 MLOAD PUSH3 0x461BCD PUSH1 0xE5 SHL DUP2 MSTORE DUP1 DUP5 ADD DUP6 SWAP1 MSTORE PUSH1 0x1B PUSH1 0x24 DUP3 ADD MSTORE PUSH32 0x496E73756666696369656E74206C6F616E20616C6C6F77616E63650000000000 PUSH1 0x44 DUP3 ADD MSTORE PUSH1 0x64 SWAP1 REVERT JUMPDEST DUP1 SWAP3 POP DUP7 DUP1 SWAP3 POP RETURNDATASIZE DUP4 GT PUSH2 0x612 JUMPI JUMPDEST PUSH2 0x601 DUP2 DUP4 PUSH2 0x133D JUMP JUMPDEST DUP2 ADD SUB SLT PUSH2 0x52F JUMPI DUP3 SWAP1 MLOAD PUSH0 PUSH2 0x283 JUMP JUMPDEST POP RETURNDATASIZE PUSH2 0x5F7 JUMP JUMPDEST DUP7 MLOAD RETURNDATASIZE DUP11 DUP3 RETURNDATACOPY RETURNDATASIZE SWAP1 REVERT JUMPDEST DUP7 MLOAD PUSH3 0x461BCD PUSH1 0xE5 SHL DUP2 MSTORE DUP1 DUP7 ADD DUP8 SWAP1 MSTORE PUSH1 0x21 PUSH1 0x24 DUP3 ADD MSTORE PUSH32 0x496E73756666696369656E7420636F6C6C61746572616C20616C6C6F77616E63 PUSH1 0x44 DUP3 ADD MSTORE PUSH1 0x65 PUSH1 0xF8 SHL PUSH1 0x64 DUP3 ADD MSTORE PUSH1 0x84 SWAP1 REVERT JUMPDEST SWAP1 POP DUP8 DUP2 DUP2 RETURNDATASIZE DUP4 GT PUSH2 0x696 JUMPI JUMPDEST PUSH2 0x687 DUP2 DUP4 PUSH2 0x133D JUMP JUMPDEST DUP2 ADD SUB SLT PUSH2 0x52F JUMPI MLOAD PUSH0 PUSH2 0x239 JUMP JUMPDEST POP RETURNDATASIZE PUSH2 0x67D JUMP JUMPDEST DUP10 MLOAD RETURNDATASIZE DUP14 DUP3 RETURNDATACOPY RETURNDATASIZE SWAP1 REVERT JUMPDEST PUSH1 0x64 SWAP1 PUSH1 0x20 DUP5 MLOAD SWAP2 PUSH3 0x461BCD PUSH1 0xE5 SHL DUP4 MSTORE DUP3 ADD MSTORE PUSH1 0x19 PUSH1 0x24 DUP3 ADD MSTORE PUSH32 0x4C656E6465722063616E6E6F7420626520626F72726F77657200000000000000 PUSH1 0x44 DUP3 ADD MSTORE REVERT JUMPDEST SWAP1 PUSH1 0x20 PUSH1 0x64 SWAP3 MLOAD SWAP2 PUSH3 0x461BCD PUSH1 0xE5 SHL DUP4 MSTORE DUP3 ADD MSTORE PUSH1 0x18 PUSH1 0x24 DUP3 ADD MSTORE PUSH32 0x496E76616C696420626F72726F77657220616464726573730000000000000000 PUSH1 0x44 DUP3 ADD MSTORE REVERT JUMPDEST SWAP1 PUSH1 0x20 PUSH1 0x64 SWAP3 MLOAD SWAP2 PUSH3 0x461BCD PUSH1 0xE5 SHL DUP4 MSTORE DUP3 ADD MSTORE PUSH1 0x1A PUSH1 0x24 DUP3 ADD MSTORE PUSH32 0x4C6F616E206E6F7420726561647920746F206163746976617465000000000000 PUSH1 0x44 DUP3 ADD MSTORE REVERT JUMPDEST PUSH4 0x4E487B71 PUSH1 0xE0 SHL DUP5 MSTORE PUSH1 0x21 DUP4 MSTORE PUSH1 0x24 DUP5 REVERT JUMPDEST POP POP CALLVALUE PUSH2 0x110 JUMPI DUP2 PUSH1 0x3 NOT CALLDATASIZE ADD SLT PUSH2 0x110 JUMPI PUSH2 0x180 SWAP1 PUSH1 0x1 DUP1 PUSH1 0xA0 SHL SUB DUP1 PUSH1 0x5 SLOAD AND SWAP2 DUP2 PUSH1 0x6 SLOAD AND SWAP2 DUP1 PUSH1 0x7 SLOAD AND SWAP1 DUP1 PUSH1 0x8 SLOAD AND PUSH1 0x9 SLOAD PUSH1 0xA SLOAD PUSH1 0xB SLOAD SWAP2 DUP5 PUSH1 0xC SLOAD AND SWAP4 DUP6 PUSH1 0xD SLOAD AND SWAP6 PUSH1 0xE SLOAD AND SWAP7 PUSH1 0xF SLOAD SWAP9 PUSH1 0x10 SLOAD SWAP11 DUP2 MLOAD SWAP13 DUP14 MSTORE PUSH1 0x20 DUP14 ADD MSTORE DUP12 ADD MSTORE PUSH1 0x60 DUP11 ADD MSTORE PUSH1 0x80 DUP10 ADD MSTORE PUSH1 0xA0 DUP9 ADD MSTORE PUSH1 0xC0 DUP8 ADD MSTORE PUSH1 0xE0 DUP7 ADD MSTORE PUSH2 0x100 DUP6 ADD MSTORE PUSH2 0x120 DUP5 ADD MSTORE PUSH2 0x140 DUP4 ADD MSTORE PUSH2 0x160 DUP3 ADD MSTORE RETURN JUMPDEST SWAP1 POP CALLVALUE PUSH2 0x4CC JUMPI DUP3 PUSH1 0x3 NOT CALLDATASIZE ADD SLT PUSH2 0x4CC JUMPI PUSH2 0x834 PUSH2 0x12C1 JUMP JUMPDEST PUSH1 0xFF DUP2 SLOAD PUSH1 0xA0 SHR AND PUSH1 0x6 DUP2 LT ISZERO PUSH2 0x95A JUMPI PUSH2 0x918 JUMPI PUSH1 0x6 SLOAD PUSH1 0x5 SLOAD PUSH1 0x9 SLOAD DUP5 MLOAD PUSH4 0x23B872DD PUSH1 0xE0 SHL DUP2 MSTORE PUSH1 0x1 PUSH1 0x1 PUSH1 0xA0 SHL SUB SWAP3 DUP4 AND DUP6 DUP3 ADD SWAP1 DUP2 MSTORE ADDRESS PUSH1 0x20 DUP3 DUP2 ADD SWAP2 SWAP1 SWAP2 MSTORE PUSH1 0x40 DUP3 ADD SWAP4 SWAP1 SWAP4 MSTORE SWAP1 SWAP4 SWAP2 SWAP3 DUP5 SWAP3 AND SWAP1 DUP3 SWAP1 DUP9 SWAP1 DUP3 SWAP1 PUSH1 0x60 ADD SUB SWAP3 GAS CALL DUP1 ISZERO PUSH2 0x90B JUMPI SWAP2 PUSH32 0x9E71D2FB732E68272B7E74ECFD14638673C1D77E19A5D390A3FFFF054D57C44B SWAP4 SWAP2 PUSH1 0x20 SWAP4 PUSH2 0x8EE JUMPI JUMPDEST POP TIMESTAMP PUSH1 0x10 SSTORE DUP1 SLOAD PUSH1 0xFF PUSH1 0xA0 SHL NOT AND PUSH1 0x1 PUSH1 0xA0 SHL OR SWAP1 SSTORE PUSH1 0x9 SLOAD SWAP1 MLOAD SWAP1 DUP2 MSTORE LOG1 PUSH1 0x1 DUP2 SSTORE DUP1 RETURN JUMPDEST PUSH2 0x904 SWAP1 DUP5 RETURNDATASIZE DUP2 GT PUSH2 0x4F6 JUMPI PUSH2 0x4E7 DUP2 DUP4 PUSH2 0x133D JUMP JUMPDEST POP PUSH0 PUSH2 0x8C8 JUMP JUMPDEST POP POP POP MLOAD SWAP1 RETURNDATASIZE SWAP1 DUP3 RETURNDATACOPY RETURNDATASIZE SWAP1 REVERT JUMPDEST PUSH1 0x20 PUSH1 0x64 SWAP3 MLOAD SWAP2 PUSH3 0x461BCD PUSH1 0xE5 SHL DUP4 MSTORE DUP3 ADD MSTORE PUSH1 0x1B PUSH1 0x24 DUP3 ADD MSTORE PUSH32 0x4C6F616E206E6F7420696E20637265617461626C652073746174650000000000 PUSH1 0x44 DUP3 ADD MSTORE REVERT JUMPDEST PUSH4 0x4E487B71 PUSH1 0xE0 SHL DUP5 MSTORE PUSH1 0x21 DUP3 MSTORE PUSH1 0x24 DUP5 REVERT JUMPDEST POP POP CALLVALUE PUSH2 0x110 JUMPI DUP2 PUSH1 0x3 NOT CALLDATASIZE ADD SLT PUSH2 0x110 JUMPI PUSH1 0x3 SLOAD SWAP1 MLOAD PUSH1 0x1 PUSH1 0x1 PUSH1 0xA0 SHL SUB SWAP1 SWAP2 AND DUP2 MSTORE PUSH1 0x20 SWAP1 RETURN JUMPDEST POP POP CALLVALUE PUSH2 0x110 JUMPI DUP2 PUSH1 0x3 NOT CALLDATASIZE ADD SLT PUSH2 0x110 JUMPI PUSH1 0x20 SWAP1 PUSH2 0x130 PUSH2 0x43A PUSH2 0x1476 JUMP JUMPDEST DUP4 DUP4 CALLVALUE PUSH2 0x110 JUMPI PUSH1 0x20 SWAP3 DUP4 PUSH1 0x3 NOT CALLDATASIZE ADD SLT PUSH2 0x4CC JUMPI DUP1 CALLDATALOAD PUSH1 0x1 PUSH1 0x1 PUSH1 0xA0 SHL SUB DUP2 DUP2 AND SWAP2 DUP3 SWAP1 SUB PUSH2 0xA4E JUMPI SWAP1 PUSH1 0x24 DUP7 SWAP3 PUSH1 0x8 SLOAD AND SWAP4 DUP6 MLOAD SWAP5 DUP6 SWAP4 DUP5 SWAP3 PUSH4 0x70A08231 PUSH1 0xE0 SHL DUP5 MSTORE DUP4 ADD MSTORE GAS STATICCALL SWAP3 DUP4 ISZERO PUSH2 0xA43 JUMPI SWAP3 PUSH2 0xA14 JUMPI JUMPDEST POP MLOAD SWAP1 DUP2 MSTORE RETURN JUMPDEST SWAP1 SWAP2 POP DUP3 DUP2 DUP2 RETURNDATASIZE DUP4 GT PUSH2 0xA3C JUMPI JUMPDEST PUSH2 0xA2C DUP2 DUP4 PUSH2 0x133D JUMP JUMPDEST DUP2 ADD SUB SLT PUSH2 0x52F JUMPI MLOAD SWAP1 DUP4 PUSH2 0xA0D JUMP JUMPDEST POP RETURNDATASIZE PUSH2 0xA22 JUMP JUMPDEST DUP3 MLOAD SWAP1 RETURNDATASIZE SWAP1 DUP3 RETURNDATACOPY RETURNDATASIZE SWAP1 REVERT JUMPDEST DUP5 DUP1 REVERT JUMPDEST POP POP CALLVALUE PUSH2 0x110 JUMPI DUP2 PUSH1 0x3 NOT CALLDATASIZE ADD SLT PUSH2 0x110 JUMPI PUSH1 0x20 SWAP1 PUSH1 0xB SLOAD SWAP1 MLOAD SWAP1 DUP2 MSTORE RETURN JUMPDEST POP POP CALLVALUE PUSH2 0x110 JUMPI DUP2 PUSH1 0x3 NOT CALLDATASIZE ADD SLT PUSH2 0x110 JUMPI PUSH1 0x20 SWAP1 PUSH1 0xA SLOAD SWAP1 MLOAD SWAP1 DUP2 MSTORE RETURN JUMPDEST SWAP2 SWAP1 POP CALLVALUE PUSH2 0x4CC JUMPI DUP3 PUSH1 0x3 NOT CALLDATASIZE ADD SLT PUSH2 0x4CC JUMPI PUSH2 0xAAB PUSH2 0x12C1 JUMP JUMPDEST PUSH1 0xE SLOAD PUSH1 0x1 PUSH1 0x1 PUSH1 0xA0 SHL SUB SWAP2 SWAP1 DUP3 AND CALLER SUB PUSH2 0xF0B JUMPI PUSH1 0xFF DUP4 SLOAD PUSH1 0xA0 SHR AND PUSH1 0x6 DUP2 LT ISZERO PUSH2 0xEF8 JUMPI PUSH1 0x2 SUB PUSH2 0xE9F JUMPI PUSH2 0xAE3 PUSH2 0x43A PUSH2 0x1476 JUMP JUMPDEST SWAP2 PUSH2 0xAEC PUSH2 0x1476 JUMP JUMPDEST DUP4 SUB SWAP1 DUP4 DUP3 GT PUSH2 0xE8C JUMPI PUSH1 0x7 SLOAD DUP4 MLOAD PUSH4 0x6EB1769F PUSH1 0xE1 SHL DUP2 MSTORE CALLER DUP8 DUP3 ADD SWAP1 DUP2 MSTORE ADDRESS PUSH1 0x20 DUP3 DUP2 ADD SWAP2 SWAP1 SWAP2 MSTORE SWAP7 SWAP3 DUP5 AND SWAP3 SWAP2 SWAP1 DUP8 SWAP1 DUP3 SWAP1 DUP2 SWAP1 PUSH1 0x40 ADD SUB DUP2 DUP7 GAS STATICCALL SWAP1 DUP2 ISZERO PUSH2 0xDFA JUMPI SWAP1 DUP3 SWAP2 DUP11 SWAP2 PUSH2 0xE5B JUMPI JUMPDEST POP LT PUSH2 0xE04 JUMPI DUP5 MLOAD PUSH4 0x70A08231 PUSH1 0xE0 SHL DUP2 MSTORE CALLER DUP9 DUP3 ADD MSTORE DUP7 DUP2 PUSH1 0x24 DUP2 DUP7 GAS STATICCALL SWAP1 DUP2 ISZERO PUSH2 0xDFA JUMPI DUP10 SWAP2 PUSH2 0xDCD JUMPI JUMPDEST POP LT PUSH2 0xD78 JUMPI PUSH1 0x5 SLOAD DUP5 MLOAD PUSH4 0x23B872DD PUSH1 0xE0 SHL DUP2 MSTORE CALLER DUP9 DUP3 ADD SWAP1 DUP2 MSTORE SWAP2 DUP5 AND PUSH1 0x1 PUSH1 0x1 PUSH1 0xA0 SHL SUB AND PUSH1 0x20 DUP4 ADD MSTORE PUSH1 0x40 DUP3 ADD DUP6 SWAP1 MSTORE DUP9 SWAP5 SWAP4 SWAP3 SWAP1 SWAP2 DUP8 SWAP2 DUP4 SWAP2 DUP3 SWAP1 DUP9 SWAP1 DUP3 SWAP1 PUSH1 0x60 ADD SUB SWAP3 GAS CALL DUP1 ISZERO PUSH2 0xD51 JUMPI PUSH2 0xD5B JUMPI JUMPDEST POP DUP1 PUSH1 0x3 SLOAD AND DUP1 EXTCODESIZE ISZERO PUSH2 0x4BE JUMPI DUP5 MLOAD PUSH4 0x56F78A1D PUSH1 0xE0 SHL DUP2 MSTORE ADDRESS DUP9 DUP3 ADD SWAP1 DUP2 MSTORE CALLER PUSH1 0x20 DUP3 ADD MSTORE SWAP1 SWAP2 DUP6 SWAP2 DUP4 SWAP2 SWAP1 DUP3 SWAP1 DUP5 SWAP1 DUP3 SWAP1 PUSH1 0x40 ADD SUB SWAP3 GAS CALL DUP1 ISZERO PUSH2 0xD51 JUMPI SWAP1 DUP5 SWAP2 PUSH2 0xD3D JUMPI JUMPDEST POP POP PUSH1 0x8 SLOAD AND SWAP1 DUP4 MLOAD SWAP1 PUSH4 0x63737AC9 PUSH1 0xE1 SHL DUP3 MSTORE DUP7 DUP3 ADD MSTORE DUP5 DUP2 PUSH1 0x24 DUP2 DUP6 GAS STATICCALL SWAP1 DUP2 ISZERO PUSH2 0xD33 JUMPI SWAP1 DUP6 SWAP3 SWAP2 DUP5 SWAP2 PUSH2 0xCFE JUMPI JUMPDEST POP DUP5 MLOAD PUSH4 0x5D043B29 PUSH1 0xE1 SHL DUP2 MSTORE DUP8 DUP2 ADD SWAP2 DUP3 MSTORE CALLER PUSH1 0x20 DUP4 ADD DUP2 SWAP1 MSTORE PUSH1 0x40 DUP4 ADD MSTORE SWAP4 DUP5 SWAP3 SWAP2 DUP4 SWAP2 SWAP1 DUP3 SWAP1 PUSH1 0x60 ADD JUMPDEST SUB SWAP3 GAS CALL DUP1 ISZERO PUSH2 0xCF4 JUMPI PUSH2 0xCCA JUMPI JUMPDEST POP DUP3 SLOAD PUSH1 0xFF PUSH1 0xA0 SHL NOT AND PUSH1 0x1 PUSH1 0xA2 SHL OR SWAP1 SWAP3 SSTORE PUSH32 0x4002DBA848920F438092E08090CFB5FC47144C22704268B402C9553A1B5ADFE6 SWAP2 PUSH2 0xCB2 PUSH2 0x1398 JUMP JUMPDEST PUSH2 0xCBD PUSH2 0x43A PUSH2 0x1476 JUMP JUMPDEST SWAP1 MLOAD SWAP1 DUP2 MSTORE LOG1 PUSH1 0x1 DUP2 SSTORE DUP1 RETURN JUMPDEST DUP3 SWAP1 DUP2 RETURNDATASIZE DUP4 GT PUSH2 0xCED JUMPI JUMPDEST PUSH2 0xCDF DUP2 DUP4 PUSH2 0x133D JUMP JUMPDEST DUP2 ADD SUB SLT PUSH2 0x52F JUMPI PUSH0 PUSH2 0xC75 JUMP JUMPDEST POP RETURNDATASIZE PUSH2 0xCD5 JUMP JUMPDEST DUP3 MLOAD RETURNDATASIZE DUP8 DUP3 RETURNDATACOPY RETURNDATASIZE SWAP1 REVERT JUMPDEST SWAP4 POP POP SWAP1 DUP3 DUP2 RETURNDATASIZE DUP4 GT PUSH2 0xD2C JUMPI JUMPDEST PUSH2 0xD16 DUP2 DUP4 PUSH2 0x133D JUMP JUMPDEST DUP2 ADD SUB SLT PUSH2 0x52F JUMPI SWAP1 MLOAD DUP6 SWAP2 DUP5 SWAP2 PUSH2 0xC66 PUSH2 0xC39 JUMP JUMPDEST POP RETURNDATASIZE PUSH2 0xD0C JUMP JUMPDEST DUP5 MLOAD RETURNDATASIZE DUP6 DUP3 RETURNDATACOPY RETURNDATASIZE SWAP1 REVERT JUMPDEST PUSH2 0xD46 SWAP1 PUSH2 0x1315 JUMP JUMPDEST PUSH2 0x4CC JUMPI DUP3 PUSH0 PUSH2 0xC07 JUMP JUMPDEST DUP6 MLOAD RETURNDATASIZE DUP7 DUP3 RETURNDATACOPY RETURNDATASIZE SWAP1 REVERT JUMPDEST PUSH2 0xD71 SWAP1 DUP7 RETURNDATASIZE DUP9 GT PUSH2 0x4F6 JUMPI PUSH2 0x4E7 DUP2 DUP4 PUSH2 0x133D JUMP JUMPDEST POP PUSH0 PUSH2 0xBBF JUMP JUMPDEST DUP4 MLOAD PUSH3 0x461BCD PUSH1 0xE5 SHL DUP2 MSTORE DUP1 DUP8 ADD DUP7 SWAP1 MSTORE PUSH1 0x29 PUSH1 0x24 DUP3 ADD MSTORE PUSH32 0x496E73756666696369656E7420746F6B656E2062616C616E636520666F722072 PUSH1 0x44 DUP3 ADD MSTORE PUSH9 0x32B830BCB6B2B73A17 PUSH1 0xB9 SHL PUSH1 0x64 DUP3 ADD MSTORE PUSH1 0x84 SWAP1 REVERT JUMPDEST SWAP1 POP DUP7 DUP2 DUP2 RETURNDATASIZE DUP4 GT PUSH2 0xDF3 JUMPI JUMPDEST PUSH2 0xDE4 DUP2 DUP4 PUSH2 0x133D JUMP JUMPDEST DUP2 ADD SUB SLT PUSH2 0x52F JUMPI MLOAD PUSH0 PUSH2 0xB69 JUMP JUMPDEST POP RETURNDATASIZE PUSH2 0xDDA JUMP JUMPDEST DUP7 MLOAD RETURNDATASIZE DUP12 DUP3 RETURNDATACOPY RETURNDATASIZE SWAP1 REVERT JUMPDEST DUP5 MLOAD PUSH3 0x461BCD PUSH1 0xE5 SHL DUP2 MSTORE DUP1 DUP9 ADD DUP8 SWAP1 MSTORE PUSH1 0x2B PUSH1 0x24 DUP3 ADD MSTORE PUSH32 0x496E73756666696369656E7420746F6B656E20616C6C6F77616E636520666F72 PUSH1 0x44 DUP3 ADD MSTORE PUSH11 0x103932B830BCB6B2B73A17 PUSH1 0xA9 SHL PUSH1 0x64 DUP3 ADD MSTORE PUSH1 0x84 SWAP1 REVERT JUMPDEST DUP1 SWAP3 POP DUP9 DUP1 SWAP3 POP RETURNDATASIZE DUP4 GT PUSH2 0xE85 JUMPI JUMPDEST PUSH2 0xE74 DUP2 DUP4 PUSH2 0x133D JUMP JUMPDEST DUP2 ADD SUB SLT PUSH2 0x52F JUMPI DUP2 SWAP1 MLOAD PUSH0 PUSH2 0xB3C JUMP JUMPDEST POP RETURNDATASIZE PUSH2 0xE6A JUMP JUMPDEST PUSH4 0x4E487B71 PUSH1 0xE0 SHL DUP7 MSTORE PUSH1 0x11 DUP6 MSTORE PUSH1 0x24 DUP7 REVERT JUMPDEST MLOAD PUSH3 0x461BCD PUSH1 0xE5 SHL DUP2 MSTORE PUSH1 0x20 DUP2 DUP5 ADD MSTORE PUSH1 0x2E PUSH1 0x24 DUP3 ADD MSTORE PUSH32 0x4C6F616E206D7573742062652061637469766520746F2070726F636565642077 PUSH1 0x44 DUP3 ADD MSTORE PUSH14 0x34BA34103932B830BCB6B2B73A17 PUSH1 0x91 SHL PUSH1 0x64 DUP3 ADD MSTORE PUSH1 0x84 SWAP1 REVERT JUMPDEST PUSH4 0x4E487B71 PUSH1 0xE0 SHL DUP6 MSTORE PUSH1 0x21 DUP5 MSTORE PUSH1 0x24 DUP6 REVERT JUMPDEST MLOAD PUSH3 0x461BCD PUSH1 0xE5 SHL DUP2 MSTORE PUSH1 0x20 DUP2 DUP5 ADD MSTORE PUSH1 0x29 PUSH1 0x24 DUP3 ADD MSTORE PUSH32 0x4F6E6C792074686520626F72726F7765722063616E20696E6974696174652072 PUSH1 0x44 DUP3 ADD MSTORE PUSH9 0x32B830BCB6B2B73A17 PUSH1 0xB9 SHL PUSH1 0x64 DUP3 ADD MSTORE PUSH1 0x84 SWAP1 REVERT JUMPDEST DUP4 DUP4 CALLVALUE PUSH2 0x110 JUMPI DUP2 PUSH1 0x3 NOT CALLDATASIZE ADD SLT PUSH2 0x110 JUMPI DUP3 SLOAD PUSH1 0xFF DUP2 PUSH1 0xA0 SHR AND PUSH1 0x6 DUP2 LT ISZERO PUSH2 0x11F2 JUMPI PUSH1 0x2 SUB PUSH2 0x11BA JUMPI PUSH2 0xF99 PUSH1 0xF SLOAD PUSH1 0xB SLOAD SWAP1 PUSH2 0x1377 JUMP JUMPDEST TIMESTAMP LT ISZERO PUSH2 0xFA4 JUMPI DUP3 DUP1 RETURN JUMPDEST PUSH1 0xFF PUSH1 0xA0 SHL NOT AND PUSH1 0x3 PUSH1 0xA0 SHL OR DUP4 SSTORE PUSH1 0x8 SLOAD PUSH1 0xE SLOAD DUP3 MLOAD PUSH4 0x70A08231 PUSH1 0xE0 SHL DUP2 MSTORE PUSH1 0x1 PUSH1 0x1 PUSH1 0xA0 SHL SUB SWAP2 DUP3 AND DUP2 DUP8 ADD DUP2 SWAP1 MSTORE SWAP2 SWAP6 SWAP3 PUSH1 0x20 SWAP3 SWAP1 DUP8 AND DUP4 DUP4 PUSH1 0x24 DUP2 DUP5 GAS STATICCALL SWAP3 DUP4 ISZERO PUSH2 0x1181 JUMPI DUP8 SWAP4 PUSH2 0x118B JUMPI JUMPDEST POP DUP6 MLOAD SWAP3 PUSH4 0x63737AC9 PUSH1 0xE1 SHL DUP5 MSTORE DUP6 DUP5 ADD MSTORE DUP4 DUP4 PUSH1 0x24 DUP2 DUP5 GAS STATICCALL DUP1 ISZERO PUSH2 0x1181 JUMPI SWAP1 DUP5 SWAP3 SWAP2 DUP9 SWAP1 PUSH2 0x1148 JUMPI JUMPDEST PUSH1 0x5 SLOAD DUP9 MLOAD PUSH4 0x5D043B29 PUSH1 0xE1 SHL DUP2 MSTORE DUP9 DUP2 ADD SWAP3 DUP4 MSTORE PUSH1 0x1 PUSH1 0x1 PUSH1 0xA0 SHL SUB SWAP2 DUP13 AND DUP3 AND PUSH1 0x20 DUP5 ADD MSTORE SWAP4 AND PUSH1 0x40 DUP3 ADD MSTORE SWAP2 SWAP4 POP DUP4 SWAP2 DUP3 SWAP1 DUP10 SWAP1 DUP3 SWAP1 PUSH1 0x60 ADD JUMPDEST SUB SWAP3 GAS CALL DUP1 ISZERO PUSH2 0x113E JUMPI PUSH2 0x1115 JUMPI JUMPDEST POP POP DUP4 PUSH1 0x3 SLOAD AND DUP5 PUSH1 0x5 SLOAD AND SWAP2 DUP2 EXTCODESIZE ISZERO PUSH2 0xA4E JUMPI DUP4 MLOAD PUSH4 0x389E0067 PUSH1 0xE1 SHL DUP2 MSTORE ADDRESS SWAP2 DUP2 ADD SWAP2 DUP3 MSTORE PUSH1 0x1 PUSH1 0x1 PUSH1 0xA0 SHL SUB SWAP1 SWAP4 AND PUSH1 0x20 DUP3 ADD MSTORE SWAP2 SWAP3 SWAP2 DUP5 SWAP2 DUP5 SWAP2 DUP3 SWAP1 DUP5 SWAP1 DUP3 SWAP1 PUSH1 0x40 ADD SUB SWAP3 GAS CALL SWAP1 DUP2 ISZERO PUSH2 0x110C JUMPI POP PUSH2 0x10FD JUMPI JUMPDEST POP SWAP1 PUSH2 0x10CE PUSH2 0x1398 JUMP JUMPDEST PUSH1 0xE SLOAD AND PUSH32 0xF4E5CF42CBB1D0C6C91E16D925349FEB6C5D970652F6EC77B1FF1262F7284CD5 DUP3 DUP1 LOG2 DUP1 DUP3 DUP1 DUP3 DUP1 RETURN JUMPDEST PUSH2 0x1106 SWAP1 PUSH2 0x1315 JUMP JUMPDEST DUP3 PUSH2 0x10C4 JUMP JUMPDEST MLOAD RETURNDATASIZE DUP5 DUP3 RETURNDATACOPY RETURNDATASIZE SWAP1 REVERT JUMPDEST DUP2 RETURNDATASIZE DUP4 GT PUSH2 0x1137 JUMPI JUMPDEST PUSH2 0x1128 DUP2 DUP4 PUSH2 0x133D JUMP JUMPDEST DUP2 ADD SUB SLT PUSH2 0x4CC JUMPI DUP5 DUP1 PUSH2 0x106C JUMP JUMPDEST POP RETURNDATASIZE PUSH2 0x111E JUMP JUMPDEST DUP5 MLOAD RETURNDATASIZE DUP8 DUP3 RETURNDATACOPY RETURNDATASIZE SWAP1 REVERT JUMPDEST POP SWAP2 DUP4 DUP2 SWAP5 SWAP3 SWAP5 RETURNDATASIZE DUP4 GT PUSH2 0x117A JUMPI JUMPDEST PUSH2 0x1161 DUP2 DUP4 PUSH2 0x133D JUMP JUMPDEST DUP2 ADD SUB SLT PUSH2 0x1176 JUMPI SWAP2 DUP4 SWAP2 PUSH2 0x105D SWAP4 MLOAD PUSH2 0x1020 JUMP JUMPDEST DUP7 DUP1 REVERT JUMPDEST POP RETURNDATASIZE PUSH2 0x1157 JUMP JUMPDEST DUP7 MLOAD RETURNDATASIZE DUP10 DUP3 RETURNDATACOPY RETURNDATASIZE SWAP1 REVERT JUMPDEST SWAP1 SWAP3 POP DUP4 DUP2 DUP2 RETURNDATASIZE DUP4 GT PUSH2 0x11B3 JUMPI JUMPDEST PUSH2 0x11A3 DUP2 DUP4 PUSH2 0x133D JUMP JUMPDEST DUP2 ADD SUB SLT PUSH2 0x1176 JUMPI MLOAD SWAP2 DUP9 PUSH2 0xFF5 JUMP JUMPDEST POP RETURNDATASIZE PUSH2 0x1199 JUMP JUMPDEST DUP2 MLOAD PUSH3 0x461BCD PUSH1 0xE5 SHL DUP2 MSTORE PUSH1 0x20 DUP2 DUP7 ADD MSTORE PUSH1 0x12 PUSH1 0x24 DUP3 ADD MSTORE PUSH18 0x4C6F616E206973206E6F7420616374697665 PUSH1 0x70 SHL PUSH1 0x44 DUP3 ADD MSTORE PUSH1 0x64 SWAP1 REVERT JUMPDEST PUSH4 0x4E487B71 PUSH1 0xE0 SHL DUP5 MSTORE PUSH1 0x21 DUP6 MSTORE PUSH1 0x24 DUP5 REVERT JUMPDEST POP POP CALLVALUE PUSH2 0x110 JUMPI DUP2 PUSH1 0x3 NOT CALLDATASIZE ADD SLT PUSH2 0x110 JUMPI PUSH1 0x20 SWAP1 PUSH1 0x10 SLOAD SWAP1 MLOAD SWAP1 DUP2 MSTORE RETURN JUMPDEST POP POP CALLVALUE PUSH2 0x110 JUMPI DUP2 PUSH1 0x3 NOT CALLDATASIZE ADD SLT PUSH2 0x110 JUMPI PUSH1 0x1 SLOAD SWAP1 MLOAD PUSH1 0x1 PUSH1 0x1 PUSH1 0xA0 SHL SUB SWAP1 SWAP2 AND DUP2 MSTORE PUSH1 0x20 SWAP1 RETURN JUMPDEST SWAP1 POP CALLVALUE PUSH2 0x4CC JUMPI DUP3 PUSH1 0x3 NOT CALLDATASIZE ADD SLT PUSH2 0x4CC JUMPI SLOAD SWAP1 MLOAD PUSH1 0x1 PUSH1 0x1 PUSH1 0xA0 SHL SUB SWAP1 SWAP2 AND DUP2 MSTORE PUSH1 0x20 SWAP2 POP RETURN JUMPDEST DUP5 SWAP1 CALLVALUE PUSH2 0x110 JUMPI DUP2 PUSH1 0x3 NOT CALLDATASIZE ADD SLT PUSH2 0x110 JUMPI PUSH1 0x7 SLOAD PUSH1 0x1 PUSH1 0x1 PUSH1 0xA0 SHL SUB AND DUP2 MSTORE PUSH1 0x20 SWAP1 RETURN JUMPDEST SWAP2 SWAP1 PUSH1 0x20 DUP4 ADD SWAP3 PUSH1 0x6 DUP3 LT ISZERO PUSH2 0x12AD JUMPI MSTORE JUMP JUMPDEST PUSH4 0x4E487B71 PUSH1 0xE0 SHL PUSH0 MSTORE PUSH1 0x21 PUSH1 0x4 MSTORE PUSH1 0x24 PUSH0 REVERT JUMPDEST PUSH1 0x2 PUSH0 SLOAD EQ PUSH2 0x12D0 JUMPI PUSH1 0x2 PUSH0 SSTORE JUMP JUMPDEST PUSH1 0x40 MLOAD PUSH3 0x461BCD PUSH1 0xE5 SHL DUP2 MSTORE PUSH1 0x20 PUSH1 0x4 DUP3 ADD MSTORE PUSH1 0x1F PUSH1 0x24 DUP3 ADD MSTORE PUSH32 0x5265656E7472616E637947756172643A207265656E7472616E742063616C6C00 PUSH1 0x44 DUP3 ADD MSTORE PUSH1 0x64 SWAP1 REVERT JUMPDEST PUSH8 0xFFFFFFFFFFFFFFFF DUP2 GT PUSH2 0x1329 JUMPI PUSH1 0x40 MSTORE JUMP JUMPDEST PUSH4 0x4E487B71 PUSH1 0xE0 SHL PUSH0 MSTORE PUSH1 0x41 PUSH1 0x4 MSTORE PUSH1 0x24 PUSH0 REVERT JUMPDEST SWAP1 PUSH1 0x1F DUP1 NOT SWAP2 ADD AND DUP2 ADD SWAP1 DUP2 LT PUSH8 0xFFFFFFFFFFFFFFFF DUP3 GT OR PUSH2 0x1329 JUMPI PUSH1 0x40 MSTORE JUMP JUMPDEST SWAP1 DUP2 PUSH1 0x20 SWAP2 SUB SLT PUSH2 0x52F JUMPI MLOAD DUP1 ISZERO ISZERO DUP2 SUB PUSH2 0x52F JUMPI SWAP1 JUMP JUMPDEST SWAP2 SWAP1 DUP3 ADD DUP1 SWAP3 GT PUSH2 0x1384 JUMPI JUMP JUMPDEST PUSH4 0x4E487B71 PUSH1 0xE0 SHL PUSH0 MSTORE PUSH1 0x11 PUSH1 0x4 MSTORE PUSH1 0x24 PUSH0 REVERT JUMPDEST PUSH1 0x4 DUP1 SLOAD PUSH1 0xFF PUSH1 0xA0 SHL NOT AND PUSH1 0x5 PUSH1 0xA0 SHL OR SWAP1 SSTORE PUSH1 0x2 SLOAD PUSH1 0x1 PUSH1 0x1 PUSH1 0xA0 SHL SUB SWAP1 PUSH0 SWAP1 DUP3 AND DUP1 EXTCODESIZE ISZERO PUSH2 0x110 JUMPI DUP2 DUP1 SWAP2 PUSH1 0x24 PUSH1 0x40 MLOAD DUP1 SWAP5 DUP2 SWAP4 PUSH4 0x7E72C7D7 PUSH1 0xE0 SHL DUP4 MSTORE ADDRESS PUSH1 0x4 DUP5 ADD MSTORE GAS CALL DUP1 ISZERO PUSH2 0x145C JUMPI PUSH2 0x1467 JUMPI JUMPDEST POP SWAP1 PUSH1 0x3 SLOAD AND DUP1 EXTCODESIZE ISZERO PUSH2 0x110 JUMPI DUP2 DUP1 SWAP2 PUSH1 0x24 PUSH1 0x40 MLOAD DUP1 SWAP5 DUP2 SWAP4 PUSH4 0x38E270ED PUSH1 0xE0 SHL DUP4 MSTORE ADDRESS PUSH1 0x4 DUP5 ADD MSTORE GAS CALL DUP1 ISZERO PUSH2 0x145C JUMPI PUSH2 0x1448 JUMPI JUMPDEST POP DUP1 PUSH32 0x409FCED1B85AE32A29FB1E18894D8361A5F2653DC27ADF7102D86175C2901D7C SWAP2 LOG1 JUMP JUMPDEST PUSH2 0x1452 DUP3 SWAP2 PUSH2 0x1315 JUMP JUMPDEST PUSH2 0x18C JUMPI PUSH0 PUSH2 0x1421 JUMP JUMPDEST PUSH1 0x40 MLOAD RETURNDATASIZE DUP5 DUP3 RETURNDATACOPY RETURNDATASIZE SWAP1 REVERT JUMPDEST PUSH2 0x1470 SWAP1 PUSH2 0x1315 JUMP JUMPDEST PUSH0 PUSH2 0x13EB JUMP JUMPDEST PUSH1 0xD SLOAD PUSH1 0x9 SLOAD PUSH1 0xA SLOAD PUSH1 0x40 MLOAD PUSH4 0xEFDD7C07 PUSH1 0xE0 SHL DUP2 MSTORE PUSH1 0x4 DUP2 ADD SWAP3 SWAP1 SWAP3 MSTORE PUSH1 0x24 DUP3 ADD MSTORE SWAP1 PUSH1 0x20 SWAP1 DUP3 SWAP1 PUSH1 0x44 SWAP1 DUP3 SWAP1 PUSH1 0x1 PUSH1 0x1 PUSH1 0xA0 SHL SUB AND GAS STATICCALL SWAP1 DUP2 ISZERO PUSH2 0x14EE JUMPI PUSH0 SWAP2 PUSH2 0x14C0 JUMPI POP SWAP1 JUMP JUMPDEST SWAP1 PUSH1 0x20 DUP3 RETURNDATASIZE DUP3 GT PUSH2 0x14E6 JUMPI JUMPDEST DUP2 PUSH2 0x14D9 PUSH1 0x20 SWAP4 DUP4 PUSH2 0x133D JUMP JUMPDEST DUP2 ADD SUB SLT PUSH2 0x18C JUMPI POP MLOAD SWAP1 JUMP JUMPDEST RETURNDATASIZE SWAP2 POP PUSH2 0x14CC JUMP JUMPDEST PUSH1 0x40 MLOAD RETURNDATASIZE PUSH0 DUP3 RETURNDATACOPY RETURNDATASIZE SWAP1 REVERT INVALID LOG2 PUSH5 0x6970667358 0x22 SLT KECCAK256 PUSH14 0x9C4945CD58932995304704A2C73 0x26 SMOD PUSH16 0x78CFDBC5F86F17047661021DE0DC6473 PUSH16 0x6C6343000814003360C0806040523462 STOP SUB PUSH9 0x57620015AF80380380 SWAP2 PUSH3 0x20 DUP3 DUP6 PUSH3 0x36C JUMP JUMPDEST DUP4 CODECOPY DUP2 ADD SWAP1 PUSH1 0x60 DUP2 DUP4 SUB SLT PUSH3 0x368 JUMPI DUP1 MLOAD SWAP2 PUSH1 0x1 PUSH1 0x1 PUSH1 0xA0 SHL SUB DUP4 AND DUP4 SUB PUSH3 0x368 JUMPI PUSH1 0x20 DUP3 DUP2 ADD MLOAD SWAP1 SWAP3 PUSH1 0x1 PUSH1 0x1 PUSH1 0x40 SHL SUB SWAP2 DUP3 DUP2 GT PUSH3 0x368 JUMPI DUP4 PUSH3 0x6B SWAP2 DUP4 ADD PUSH3 0x3AC JUMP JUMPDEST SWAP3 PUSH1 0x40 DUP3 ADD MLOAD DUP4 DUP2 GT PUSH3 0x368 JUMPI PUSH3 0x85 SWAP3 ADD PUSH3 0x3AC JUMP JUMPDEST DUP3 MLOAD DUP3 DUP2 GT PUSH3 0x273 JUMPI PUSH1 0x3 SWAP2 DUP3 SLOAD SWAP2 PUSH1 0x1 SWAP6 DUP7 DUP5 DUP2 SHR SWAP5 AND DUP1 ISZERO PUSH3 0x35D JUMPI JUMPDEST DUP9 DUP6 LT EQ PUSH3 0x349 JUMPI DUP2 SWAP1 PUSH1 0x1F SWAP5 DUP6 DUP2 GT PUSH3 0x2F6 JUMPI JUMPDEST POP DUP9 SWAP1 DUP6 DUP4 GT PUSH1 0x1 EQ PUSH3 0x293 JUMPI PUSH0 SWAP3 PUSH3 0x287 JUMPI JUMPDEST POP POP PUSH0 NOT DUP3 DUP7 SHL SHR NOT AND SWAP1 DUP7 SHL OR DUP4 SSTORE JUMPDEST DUP1 MLOAD SWAP4 DUP5 GT PUSH3 0x273 JUMPI PUSH1 0x4 SWAP6 DUP7 SLOAD DUP7 DUP2 DUP2 SHR SWAP2 AND DUP1 ISZERO PUSH3 0x268 JUMPI JUMPDEST DUP3 DUP3 LT EQ PUSH3 0x255 JUMPI DUP4 DUP2 GT PUSH3 0x20D JUMPI JUMPDEST POP DUP1 SWAP3 DUP6 GT PUSH1 0x1 EQ PUSH3 0x1A3 JUMPI POP SWAP4 DUP4 SWAP5 SWAP2 DUP5 SWAP3 PUSH0 SWAP6 PUSH3 0x197 JUMPI JUMPDEST POP POP SHL SWAP3 PUSH0 NOT SWAP2 SHL SHR NOT AND OR SWAP1 SSTORE JUMPDEST PUSH3 0x149 DUP2 PUSH3 0x414 JUMP JUMPDEST SWAP1 ISZERO PUSH3 0x18E JUMPI JUMPDEST PUSH1 0xA0 MSTORE PUSH1 0x80 MSTORE PUSH1 0x40 MLOAD PUSH2 0x10D5 SWAP1 DUP2 PUSH3 0x4DA DUP3 CODECOPY PUSH1 0x80 MLOAD DUP2 DUP2 DUP2 PUSH2 0x50D ADD MSTORE DUP2 DUP2 PUSH2 0xADA ADD MSTORE DUP2 DUP2 PUSH2 0xC6B ADD MSTORE PUSH2 0xE11 ADD MSTORE PUSH1 0xA0 MLOAD DUP2 PUSH2 0x552 ADD MSTORE RETURN JUMPDEST POP PUSH1 0x12 PUSH3 0x151 JUMP JUMPDEST ADD MLOAD SWAP4 POP PUSH0 DUP1 PUSH3 0x12F JUMP JUMPDEST SWAP3 SWAP2 SWAP1 DUP5 PUSH1 0x1F NOT DUP2 AND DUP9 PUSH0 MSTORE DUP6 PUSH0 KECCAK256 SWAP6 PUSH0 SWAP1 JUMPDEST DUP10 DUP4 DUP4 LT PUSH3 0x1F2 JUMPI POP POP POP LT PUSH3 0x1D8 JUMPI JUMPDEST POP POP POP POP DUP2 SHL ADD SWAP1 SSTORE PUSH3 0x13E JUMP JUMPDEST ADD MLOAD SWAP1 PUSH1 0xF8 DUP5 PUSH0 NOT SWAP3 SHL AND SHR NOT AND SWAP1 SSTORE PUSH0 DUP1 DUP1 DUP1 PUSH3 0x1C9 JUMP JUMPDEST DUP6 DUP8 ADD MLOAD DUP10 SSTORE SWAP1 SWAP8 ADD SWAP7 SWAP5 DUP6 ADD SWAP5 DUP9 SWAP4 POP SWAP1 DUP2 ADD SWAP1 PUSH3 0x1B6 JUMP JUMPDEST DUP8 PUSH0 MSTORE DUP2 PUSH0 KECCAK256 DUP5 DUP1 DUP9 ADD PUSH1 0x5 SHR DUP3 ADD SWAP3 DUP5 DUP10 LT PUSH3 0x24B JUMPI JUMPDEST ADD PUSH1 0x5 SHR ADD SWAP1 DUP8 SWAP1 JUMPDEST DUP3 DUP2 LT PUSH3 0x23F JUMPI POP POP PUSH3 0x113 JUMP JUMPDEST PUSH0 DUP2 SSTORE ADD DUP8 SWAP1 PUSH3 0x22F JUMP JUMPDEST SWAP3 POP DUP2 SWAP3 PUSH3 0x226 JUMP JUMPDEST PUSH1 0x22 DUP9 PUSH4 0x4E487B71 PUSH1 0xE0 SHL PUSH0 MSTORE MSTORE PUSH1 0x24 PUSH0 REVERT JUMPDEST SWAP1 PUSH1 0x7F AND SWAP1 PUSH3 0x101 JUMP JUMPDEST PUSH4 0x4E487B71 PUSH1 0xE0 SHL PUSH0 MSTORE PUSH1 0x41 PUSH1 0x4 MSTORE PUSH1 0x24 PUSH0 REVERT JUMPDEST ADD MLOAD SWAP1 POP PUSH0 DUP1 PUSH3 0xD3 JUMP JUMPDEST SWAP1 DUP9 SWAP4 POP PUSH1 0x1F NOT DUP4 AND SWAP2 DUP8 PUSH0 MSTORE DUP11 PUSH0 KECCAK256 SWAP3 PUSH0 JUMPDEST DUP13 DUP3 DUP3 LT PUSH3 0x2DF JUMPI POP POP DUP5 GT PUSH3 0x2C7 JUMPI JUMPDEST POP POP POP DUP2 SHL ADD DUP4 SSTORE PUSH3 0xE4 JUMP JUMPDEST ADD MLOAD PUSH0 NOT DUP4 DUP9 SHL PUSH1 0xF8 AND SHR NOT AND SWAP1 SSTORE PUSH0 DUP1 DUP1 PUSH3 0x2B9 JUMP JUMPDEST DUP4 DUP6 ADD MLOAD DUP7 SSTORE DUP13 SWAP8 SWAP1 SWAP6 ADD SWAP5 SWAP4 DUP5 ADD SWAP4 ADD PUSH3 0x2A6 JUMP JUMPDEST SWAP1 SWAP2 POP DUP6 PUSH0 MSTORE DUP9 PUSH0 KECCAK256 DUP6 DUP1 DUP6 ADD PUSH1 0x5 SHR DUP3 ADD SWAP3 DUP12 DUP7 LT PUSH3 0x33F JUMPI JUMPDEST SWAP2 DUP11 SWAP2 DUP7 SWAP6 SWAP5 SWAP4 ADD PUSH1 0x5 SHR ADD SWAP2 JUMPDEST DUP3 DUP2 LT PUSH3 0x330 JUMPI POP POP PUSH3 0xBD JUMP JUMPDEST PUSH0 DUP2 SSTORE DUP6 SWAP5 POP DUP11 SWAP2 ADD PUSH3 0x320 JUMP JUMPDEST SWAP3 POP DUP2 SWAP3 PUSH3 0x312 JUMP JUMPDEST PUSH4 0x4E487B71 PUSH1 0xE0 SHL PUSH0 MSTORE PUSH1 0x22 PUSH1 0x4 MSTORE PUSH1 0x24 PUSH0 REVERT JUMPDEST SWAP4 PUSH1 0x7F AND SWAP4 PUSH3 0xA6 JUMP JUMPDEST PUSH0 DUP1 REVERT JUMPDEST PUSH1 0x1F SWAP1 SWAP2 ADD PUSH1 0x1F NOT AND DUP2 ADD SWAP1 PUSH1 0x1 PUSH1 0x1 PUSH1 0x40 SHL SUB DUP3 GT SWAP1 DUP3 LT OR PUSH3 0x273 JUMPI PUSH1 0x40 MSTORE JUMP JUMPDEST PUSH1 0x1 PUSH1 0x1 PUSH1 0x40 SHL SUB DUP2 GT PUSH3 0x273 JUMPI PUSH1 0x1F ADD PUSH1 0x1F NOT AND PUSH1 0x20 ADD SWAP1 JUMP JUMPDEST SWAP2 SWAP1 DUP1 PUSH1 0x1F DUP5 ADD SLT ISZERO PUSH3 0x368 JUMPI DUP3 MLOAD SWAP1 PUSH3 0x3C8 DUP3 PUSH3 0x390 JUMP JUMPDEST SWAP2 PUSH3 0x3D8 PUSH1 0x40 MLOAD SWAP4 DUP5 PUSH3 0x36C JUMP JUMPDEST DUP1 DUP4 MSTORE PUSH1 0x20 SWAP2 DUP3 DUP3 DUP8 ADD ADD GT PUSH3 0x368 JUMPI PUSH0 JUMPDEST DUP2 DUP2 LT PUSH3 0x400 JUMPI POP DUP3 PUSH0 SWAP4 SWAP5 SWAP6 POP ADD ADD MSTORE SWAP1 JUMP JUMPDEST DUP6 DUP2 ADD DUP4 ADD MLOAD DUP5 DUP3 ADD DUP5 ADD MSTORE DUP3 ADD PUSH3 0x3EB JUMP JUMPDEST PUSH1 0x40 DUP1 MLOAD PUSH4 0x313CE567 PUSH1 0xE0 SHL PUSH1 0x20 DUP3 ADD SWAP1 DUP2 MSTORE PUSH1 0x4 DUP3 MSTORE SWAP3 SWAP4 SWAP3 SWAP2 DUP2 ADD PUSH1 0x1 PUSH1 0x1 PUSH1 0x40 SHL SUB DUP2 GT DUP3 DUP3 LT OR PUSH3 0x273 JUMPI PUSH1 0x40 MSTORE MLOAD PUSH0 SWAP4 DUP5 SWAP3 DUP4 SWAP3 SWAP2 PUSH1 0x1 PUSH1 0x1 PUSH1 0xA0 SHL SUB AND GAS STATICCALL RETURNDATASIZE ISZERO PUSH3 0x4D0 JUMPI RETURNDATASIZE SWAP1 PUSH3 0x46E DUP3 PUSH3 0x390 JUMP JUMPDEST SWAP2 PUSH3 0x47E PUSH1 0x40 MLOAD SWAP4 DUP5 PUSH3 0x36C JUMP JUMPDEST DUP3 MSTORE RETURNDATASIZE DUP5 PUSH1 0x20 DUP5 ADD RETURNDATACOPY JUMPDEST DUP1 PUSH3 0x4C3 JUMPI JUMPDEST PUSH3 0x49A JUMPI JUMPDEST POP DUP2 SWAP1 JUMP JUMPDEST PUSH1 0x20 DUP2 DUP1 MLOAD DUP2 ADD SUB SLT PUSH3 0x4BF JUMPI PUSH1 0x20 ADD MLOAD PUSH1 0xFF DUP2 GT PUSH3 0x495 JUMPI PUSH1 0x1 SWAP3 POP PUSH1 0xFF AND SWAP1 JUMP JUMPDEST DUP3 DUP1 REVERT JUMPDEST POP PUSH1 0x20 DUP2 MLOAD LT ISZERO PUSH3 0x48F JUMP JUMPDEST PUSH1 0x60 SWAP1 PUSH3 0x488 JUMP INVALID PUSH1 0x40 PUSH1 0x80 DUP2 MSTORE PUSH1 0x4 SWAP1 DUP2 CALLDATASIZE LT ISZERO PUSH2 0x14 JUMPI PUSH0 DUP1 REVERT JUMPDEST PUSH0 SWAP1 DUP2 CALLDATALOAD PUSH1 0xE0 SHR SWAP3 DUP4 PUSH4 0x1E1D114 EQ PUSH2 0x7AC JUMPI DUP4 PUSH4 0x6FDDE03 EQ PUSH2 0x6B9 JUMPI DUP4 PUSH4 0x7A2D13A EQ PUSH2 0x4F4 JUMPI DUP4 PUSH4 0x95EA7B3 EQ PUSH2 0x611 JUMPI DUP4 PUSH4 0xA28A477 EQ PUSH2 0x5F2 JUMPI DUP4 PUSH4 0x18160DDD EQ PUSH2 0x5D4 JUMPI DUP4 PUSH4 0x23B872DD EQ PUSH2 0x598 JUMPI DUP4 PUSH4 0x313CE567 EQ PUSH2 0x53C JUMPI DUP4 PUSH4 0x38D52E0F EQ PUSH2 0x4F9 JUMPI DUP4 PUSH4 0x402D267D EQ PUSH2 0x1FC JUMPI DUP4 PUSH4 0x4CDAD506 EQ PUSH2 0x4F4 JUMPI DUP4 PUSH4 0x6E553F65 EQ PUSH2 0x4C1 JUMPI DUP4 PUSH4 0x70A08231 EQ PUSH2 0x4A1 JUMPI DUP4 PUSH4 0x94BF804D EQ PUSH2 0x46A JUMPI DUP4 PUSH4 0x95D89B41 EQ PUSH2 0x367 JUMPI DUP4 PUSH4 0xA9059CBB EQ PUSH2 0x337 JUMPI DUP4 PUSH4 0xB3D7F6B9 EQ PUSH2 0x318 JUMPI DUP4 PUSH4 0xB460AF94 EQ PUSH2 0x28C JUMPI DUP4 PUSH4 0xBA087652 EQ PUSH2 0x201 JUMPI POP DUP3 PUSH4 0xC63D75B6 EQ PUSH2 0x1FC JUMPI DUP3 PUSH4 0xC6E6F592 EQ PUSH2 0x135 JUMPI DUP3 PUSH4 0xCE96CB77 EQ PUSH2 0x1C5 JUMPI DUP3 PUSH4 0xD905777E EQ PUSH2 0x185 JUMPI DUP3 PUSH4 0xDD62ED3E EQ PUSH2 0x13A JUMPI POP POP PUSH4 0xEF8B30F7 EQ PUSH2 0x135 JUMPI PUSH0 DUP1 REVERT JUMPDEST PUSH2 0x8BF JUMP JUMPDEST CALLVALUE PUSH2 0x181 JUMPI DUP1 PUSH1 0x3 NOT CALLDATASIZE ADD SLT PUSH2 0x181 JUMPI DUP1 PUSH1 0x20 SWAP3 PUSH2 0x156 PUSH2 0x839 JUMP JUMPDEST PUSH2 0x15E PUSH2 0x84F JUMP JUMPDEST PUSH1 0x1 PUSH1 0x1 PUSH1 0xA0 SHL SUB SWAP2 DUP3 AND DUP4 MSTORE PUSH1 0x1 DUP7 MSTORE DUP4 DUP4 KECCAK256 SWAP2 AND DUP3 MSTORE DUP5 MSTORE KECCAK256 SLOAD SWAP1 MLOAD SWAP1 DUP2 MSTORE RETURN JUMPDEST POP DUP1 REVERT JUMPDEST CALLVALUE PUSH2 0x181 JUMPI PUSH1 0x20 CALLDATASIZE PUSH1 0x3 NOT ADD SLT PUSH2 0x181 JUMPI PUSH1 0x20 SWAP1 PUSH2 0x1BE PUSH2 0x1A4 PUSH2 0x839 JUMP JUMPDEST PUSH1 0x1 PUSH1 0x1 PUSH1 0xA0 SHL SUB AND PUSH0 SWAP1 DUP2 MSTORE PUSH1 0x20 DUP2 SWAP1 MSTORE PUSH1 0x40 SWAP1 KECCAK256 SLOAD SWAP1 JUMP JUMPDEST SWAP1 MLOAD SWAP1 DUP2 MSTORE RETURN JUMPDEST CALLVALUE PUSH2 0x181 JUMPI PUSH1 0x20 CALLDATASIZE PUSH1 0x3 NOT ADD SLT PUSH2 0x181 JUMPI PUSH1 0x20 SWAP2 PUSH2 0x1BE SWAP1 DUP3 SWAP1 PUSH1 0x1 PUSH1 0x1 PUSH1 0xA0 SHL SUB PUSH2 0x1EF PUSH2 0x839 JUMP JUMPDEST AND DUP2 MSTORE DUP1 DUP6 MSTORE KECCAK256 SLOAD PUSH2 0xBE6 JUMP JUMPDEST PUSH2 0x865 JUMP JUMPDEST DUP3 CALLVALUE PUSH2 0x289 JUMPI DUP3 SWAP1 PUSH2 0x212 CALLDATASIZE PUSH2 0x88A JUMP JUMPDEST PUSH1 0x1 PUSH1 0x1 PUSH1 0xA0 SHL SUB DUP2 AND DUP5 MSTORE PUSH1 0x20 DUP5 SWAP1 MSTORE SWAP6 SWAP1 SWAP3 KECCAK256 SLOAD SWAP1 SWAP5 SWAP4 SWAP1 DUP1 DUP7 GT PUSH2 0x254 JUMPI POP POP DUP4 PUSH2 0x24E SWAP2 PUSH2 0x245 PUSH1 0x20 SWAP7 PUSH2 0xBE6 JUMP JUMPDEST SWAP5 DUP6 SWAP2 CALLER PUSH2 0xD29 JUMP JUMPDEST MLOAD SWAP1 DUP2 MSTORE RETURN JUMPDEST SWAP3 MLOAD PUSH4 0x2E52AFBB PUSH1 0xE2 SHL DUP2 MSTORE PUSH1 0x1 PUSH1 0x1 PUSH1 0xA0 SHL SUB SWAP1 SWAP5 AND SWAP1 DUP5 ADD SWAP1 DUP2 MSTORE PUSH1 0x20 DUP2 ADD SWAP5 SWAP1 SWAP5 MSTORE POP PUSH1 0x40 DUP4 ADD MSTORE SWAP1 DUP2 SWAP1 PUSH1 0x60 ADD SUB SWAP1 REVERT JUMPDEST DUP1 REVERT JUMPDEST DUP3 SWAP1 CALLVALUE PUSH2 0x181 JUMPI PUSH2 0x2C1 SWAP2 DUP4 SWAP2 PUSH2 0x2A2 CALLDATASIZE PUSH2 0x88A JUMP JUMPDEST PUSH1 0x1 PUSH1 0x1 PUSH1 0xA0 SHL SUB DUP2 AND DUP6 MSTORE PUSH1 0x20 DUP6 SWAP1 MSTORE SWAP7 SWAP1 SWAP4 KECCAK256 SLOAD SWAP1 SWAP6 SWAP5 SWAP1 PUSH2 0xBE6 JUMP JUMPDEST DUP1 DUP7 GT PUSH2 0x2E3 JUMPI POP POP PUSH2 0x24E SWAP1 DUP5 PUSH2 0x2DA PUSH1 0x20 SWAP7 PUSH2 0xB4E JUMP JUMPDEST SWAP5 DUP6 SWAP3 CALLER PUSH2 0xD29 JUMP JUMPDEST SWAP3 MLOAD PUSH4 0x3FA733BB PUSH1 0xE2 SHL DUP2 MSTORE PUSH1 0x1 PUSH1 0x1 PUSH1 0xA0 SHL SUB SWAP1 SWAP5 AND SWAP1 DUP5 ADD SWAP1 DUP2 MSTORE PUSH1 0x20 DUP2 ADD SWAP5 SWAP1 SWAP5 MSTORE POP PUSH1 0x40 DUP4 ADD MSTORE SWAP1 DUP2 SWAP1 PUSH1 0x60 ADD SUB SWAP1 REVERT JUMPDEST SWAP2 CALLVALUE PUSH2 0x289 JUMPI PUSH1 0x20 CALLDATASIZE PUSH1 0x3 NOT ADD SLT PUSH2 0x289 JUMPI POP PUSH2 0x1BE PUSH1 0x20 SWAP3 CALLDATALOAD PUSH2 0xBBB JUMP JUMPDEST POP CALLVALUE PUSH2 0x181 JUMPI DUP1 PUSH1 0x3 NOT CALLDATASIZE ADD SLT PUSH2 0x181 JUMPI PUSH1 0x20 SWAP1 PUSH2 0x360 PUSH2 0x356 PUSH2 0x839 JUMP JUMPDEST PUSH1 0x24 CALLDATALOAD SWAP1 CALLER PUSH2 0x913 JUMP JUMPDEST MLOAD PUSH1 0x1 DUP2 MSTORE RETURN JUMPDEST SWAP3 POP CALLVALUE PUSH2 0x181 JUMPI DUP2 PUSH1 0x3 NOT CALLDATASIZE ADD SLT PUSH2 0x181 JUMPI DUP1 MLOAD SWAP2 DUP1 SWAP4 DUP1 SLOAD SWAP2 PUSH1 0x1 SWAP1 DUP4 DUP3 SHR SWAP3 DUP3 DUP6 AND SWAP5 DUP6 ISZERO PUSH2 0x460 JUMPI JUMPDEST PUSH1 0x20 SWAP6 DUP7 DUP7 LT DUP2 EQ PUSH2 0x44D JUMPI DUP6 DUP10 MSTORE SWAP1 DUP2 ISZERO PUSH2 0x429 JUMPI POP PUSH1 0x1 EQ PUSH2 0x3D1 JUMPI JUMPDEST PUSH2 0x3CD DUP8 DUP8 PUSH2 0x3C3 DUP3 DUP13 SUB DUP4 PUSH2 0x8DD JUMP JUMPDEST MLOAD SWAP2 DUP3 SWAP2 DUP3 PUSH2 0x7C8 JUMP JUMPDEST SUB SWAP1 RETURN JUMPDEST DUP2 MSTORE SWAP3 SWAP6 POP PUSH32 0x8A35ACFBC15FF81A39AE7D344FD709F28E8600B4AA8C65C6B64BFE7FE36BD19B JUMPDEST DUP3 DUP5 LT PUSH2 0x416 JUMPI POP POP POP DUP3 PUSH2 0x3CD SWAP5 PUSH2 0x3C3 SWAP3 DUP3 ADD ADD SWAP5 PUSH0 DUP1 PUSH2 0x3B2 JUMP JUMPDEST DUP1 SLOAD DUP7 DUP6 ADD DUP9 ADD MSTORE SWAP3 DUP7 ADD SWAP3 DUP2 ADD PUSH2 0x3F8 JUMP JUMPDEST PUSH1 0xFF NOT AND DUP9 DUP8 ADD MSTORE POP POP POP POP ISZERO ISZERO PUSH1 0x5 SHL DUP4 ADD ADD SWAP3 POP PUSH2 0x3C3 DUP3 PUSH2 0x3CD PUSH0 DUP1 PUSH2 0x3B2 JUMP JUMPDEST PUSH4 0x4E487B71 PUSH1 0xE0 SHL DUP5 MSTORE PUSH1 0x22 DUP4 MSTORE PUSH1 0x24 DUP5 REVERT JUMPDEST SWAP4 PUSH1 0x7F AND SWAP4 PUSH2 0x393 JUMP JUMPDEST CALLVALUE PUSH2 0x49D JUMPI DUP2 PUSH1 0x3 NOT CALLDATASIZE ADD SLT PUSH2 0x49D JUMPI PUSH1 0x20 SWAP3 POP CALLDATALOAD SWAP1 PUSH2 0x24E PUSH2 0x48B PUSH2 0x84F JUMP JUMPDEST SWAP3 PUSH2 0x495 DUP2 PUSH2 0xBBB JUMP JUMPDEST DUP1 SWAP5 CALLER PUSH2 0xC11 JUMP JUMPDEST DUP3 DUP1 REVERT JUMPDEST POP CALLVALUE PUSH2 0x181 JUMPI PUSH1 0x20 CALLDATASIZE PUSH1 0x3 NOT ADD SLT PUSH2 0x181 JUMPI PUSH1 0x20 SWAP1 PUSH2 0x1BE PUSH2 0x1A4 PUSH2 0x839 JUMP JUMPDEST CALLVALUE PUSH2 0x49D JUMPI DUP2 PUSH1 0x3 NOT CALLDATASIZE ADD SLT PUSH2 0x49D JUMPI PUSH1 0x20 SWAP3 POP CALLDATALOAD SWAP1 PUSH2 0x24E PUSH2 0x4E2 PUSH2 0x84F JUMP JUMPDEST PUSH2 0x4EB DUP5 PUSH2 0xB90 JUMP JUMPDEST SWAP4 DUP5 SWAP2 CALLER PUSH2 0xC11 JUMP JUMPDEST PUSH2 0x80F JUMP JUMPDEST POP CALLVALUE PUSH2 0x181 JUMPI DUP2 PUSH1 0x3 NOT CALLDATASIZE ADD SLT PUSH2 0x181 JUMPI MLOAD PUSH32 0x0 PUSH1 0x1 PUSH1 0x1 PUSH1 0xA0 SHL SUB AND DUP2 MSTORE PUSH1 0x20 SWAP1 RETURN JUMPDEST SWAP3 POP CALLVALUE PUSH2 0x181 JUMPI DUP2 PUSH1 0x3 NOT CALLDATASIZE ADD SLT PUSH2 0x181 JUMPI PUSH1 0xFF PUSH32 0x0 AND SWAP2 PUSH1 0xFF DUP4 GT PUSH2 0x585 JUMPI PUSH1 0x20 DUP4 DUP4 MLOAD SWAP1 DUP2 MSTORE RETURN JUMPDEST PUSH4 0x4E487B71 PUSH1 0xE0 SHL DUP2 MSTORE PUSH1 0x11 DUP5 MSTORE PUSH1 0x24 SWAP1 REVERT JUMPDEST POP CALLVALUE PUSH2 0x181 JUMPI PUSH1 0x60 CALLDATASIZE PUSH1 0x3 NOT ADD SLT PUSH2 0x181 JUMPI PUSH1 0x20 SWAP1 PUSH2 0x360 PUSH2 0x5B8 PUSH2 0x839 JUMP JUMPDEST PUSH2 0x5C0 PUSH2 0x84F JUMP JUMPDEST PUSH1 0x44 CALLDATALOAD SWAP2 PUSH2 0x5CF DUP4 CALLER DUP4 PUSH2 0x9EE JUMP JUMPDEST PUSH2 0x913 JUMP JUMPDEST POP CALLVALUE PUSH2 0x181 JUMPI DUP2 PUSH1 0x3 NOT CALLDATASIZE ADD SLT PUSH2 0x181 JUMPI PUSH1 0x20 SWAP1 PUSH1 0x2 SLOAD SWAP1 MLOAD SWAP1 DUP2 MSTORE RETURN JUMPDEST SWAP2 CALLVALUE PUSH2 0x289 JUMPI PUSH1 0x20 CALLDATASIZE PUSH1 0x3 NOT ADD SLT PUSH2 0x289 JUMPI POP PUSH2 0x1BE PUSH1 0x20 SWAP3 CALLDATALOAD PUSH2 0xB4E JUMP JUMPDEST CALLVALUE PUSH2 0x49D JUMPI DUP2 PUSH1 0x3 NOT CALLDATASIZE ADD SLT PUSH2 0x49D JUMPI PUSH2 0x629 PUSH2 0x839 JUMP JUMPDEST PUSH1 0x24 CALLDATALOAD SWAP1 CALLER ISZERO PUSH2 0x6A2 JUMPI PUSH1 0x1 PUSH1 0x1 PUSH1 0xA0 SHL SUB AND SWAP2 DUP3 ISZERO PUSH2 0x68B JUMPI POP DUP1 DUP4 PUSH1 0x20 SWAP6 CALLER DUP2 MSTORE PUSH1 0x1 DUP8 MSTORE DUP2 DUP2 KECCAK256 DUP6 DUP3 MSTORE DUP8 MSTORE KECCAK256 SSTORE DUP3 MLOAD SWAP1 DUP2 MSTORE PUSH32 0x8C5BE1E5EBEC7D5BD14F71427D1E84F3DD0314C0F7B2291E5B200AC8C7C3B925 DUP5 CALLER SWAP3 LOG3 MLOAD PUSH1 0x1 DUP2 MSTORE RETURN JUMPDEST DUP4 MLOAD PUSH4 0x4A1406B1 PUSH1 0xE1 SHL DUP2 MSTORE SWAP1 DUP2 ADD DUP6 SWAP1 MSTORE PUSH1 0x24 SWAP1 REVERT JUMPDEST DUP4 MLOAD PUSH4 0xE602DF05 PUSH1 0xE0 SHL DUP2 MSTORE DUP1 DUP5 ADD DUP7 SWAP1 MSTORE PUSH1 0x24 SWAP1 REVERT JUMPDEST SWAP1 CALLVALUE PUSH2 0x49D JUMPI DUP3 PUSH1 0x3 NOT CALLDATASIZE ADD SLT PUSH2 0x49D JUMPI DUP1 MLOAD SWAP2 DUP4 PUSH1 0x3 SLOAD SWAP1 PUSH1 0x1 SWAP1 DUP3 DUP3 SHR SWAP3 DUP3 DUP2 AND DUP1 ISZERO PUSH2 0x7A2 JUMPI JUMPDEST PUSH1 0x20 SWAP6 DUP7 DUP7 LT DUP3 EQ PUSH2 0x78F JUMPI POP DUP5 DUP9 MSTORE SWAP1 DUP2 ISZERO PUSH2 0x76D JUMPI POP PUSH1 0x1 EQ PUSH2 0x714 JUMPI JUMPDEST PUSH2 0x3CD DUP7 DUP7 PUSH2 0x3C3 DUP3 DUP12 SUB DUP4 PUSH2 0x8DD JUMP JUMPDEST SWAP3 SWAP6 POP PUSH1 0x3 DUP4 MSTORE PUSH32 0xC2575A0E9E593C00F959F8C92F12DB2869C3395A3B0502D05E2516446F71F85B JUMPDEST DUP3 DUP5 LT PUSH2 0x75A JUMPI POP POP POP DUP3 PUSH2 0x3CD SWAP5 PUSH2 0x3C3 SWAP3 DUP3 ADD ADD SWAP5 DUP7 PUSH2 0x703 JUMP JUMPDEST DUP1 SLOAD DUP7 DUP6 ADD DUP9 ADD MSTORE SWAP3 DUP7 ADD SWAP3 DUP2 ADD PUSH2 0x73D JUMP JUMPDEST PUSH1 0xFF NOT AND DUP8 DUP7 ADD MSTORE POP POP POP ISZERO ISZERO PUSH1 0x5 SHL DUP4 ADD ADD SWAP3 POP PUSH2 0x3C3 DUP3 PUSH2 0x3CD DUP7 PUSH2 0x703 JUMP JUMPDEST PUSH4 0x4E487B71 PUSH1 0xE0 SHL DUP5 MSTORE PUSH1 0x22 SWAP1 MSTORE PUSH1 0x24 DUP4 REVERT JUMPDEST SWAP4 PUSH1 0x7F AND SWAP4 PUSH2 0x6E3 JUMP JUMPDEST POP CALLVALUE PUSH2 0x181 JUMPI DUP2 PUSH1 0x3 NOT CALLDATASIZE ADD SLT PUSH2 0x181 JUMPI PUSH1 0x20 SWAP1 PUSH2 0x1BE PUSH2 0xABF JUMP JUMPDEST PUSH1 0x20 DUP1 DUP3 MSTORE DUP3 MLOAD DUP2 DUP4 ADD DUP2 SWAP1 MSTORE SWAP1 SWAP4 SWAP3 PUSH0 JUMPDEST DUP3 DUP2 LT PUSH2 0x7FB JUMPI POP POP PUSH1 0x40 SWAP3 SWAP4 POP PUSH0 DUP4 DUP3 DUP5 ADD ADD MSTORE PUSH1 0x1F DUP1 NOT SWAP2 ADD AND ADD ADD SWAP1 JUMP JUMPDEST DUP2 DUP2 ADD DUP7 ADD MLOAD DUP5 DUP3 ADD PUSH1 0x40 ADD MSTORE DUP6 ADD PUSH2 0x7DA JUMP JUMPDEST CALLVALUE PUSH2 0x835 JUMPI PUSH1 0x20 CALLDATASIZE PUSH1 0x3 NOT ADD SLT PUSH2 0x835 JUMPI PUSH1 0x20 PUSH2 0x82D PUSH1 0x4 CALLDATALOAD PUSH2 0xBE6 JUMP JUMPDEST PUSH1 0x40 MLOAD SWAP1 DUP2 MSTORE RETURN JUMPDEST PUSH0 DUP1 REVERT JUMPDEST PUSH1 0x4 CALLDATALOAD SWAP1 PUSH1 0x1 PUSH1 0x1 PUSH1 0xA0 SHL SUB DUP3 AND DUP3 SUB PUSH2 0x835 JUMPI JUMP JUMPDEST PUSH1 0x24 CALLDATALOAD SWAP1 PUSH1 0x1 PUSH1 0x1 PUSH1 0xA0 SHL SUB DUP3 AND DUP3 SUB PUSH2 0x835 JUMPI JUMP JUMPDEST CALLVALUE PUSH2 0x835 JUMPI PUSH1 0x20 CALLDATASIZE PUSH1 0x3 NOT ADD SLT PUSH2 0x835 JUMPI PUSH2 0x87E PUSH2 0x839 JUMP JUMPDEST POP PUSH1 0x20 PUSH1 0x40 MLOAD PUSH0 NOT DUP2 MSTORE RETURN JUMPDEST PUSH1 0x60 SWAP1 PUSH1 0x3 NOT ADD SLT PUSH2 0x835 JUMPI PUSH1 0x4 CALLDATALOAD SWAP1 PUSH1 0x1 PUSH1 0x1 PUSH1 0xA0 SHL SUB SWAP1 PUSH1 0x24 CALLDATALOAD DUP3 DUP2 AND DUP2 SUB PUSH2 0x835 JUMPI SWAP2 PUSH1 0x44 CALLDATALOAD SWAP1 DUP2 AND DUP2 SUB PUSH2 0x835 JUMPI SWAP1 JUMP JUMPDEST CALLVALUE PUSH2 0x835 JUMPI PUSH1 0x20 CALLDATASIZE PUSH1 0x3 NOT ADD SLT PUSH2 0x835 JUMPI PUSH1 0x20 PUSH2 0x82D PUSH1 0x4 CALLDATALOAD PUSH2 0xB90 JUMP JUMPDEST SWAP1 PUSH1 0x1F DUP1 NOT SWAP2 ADD AND DUP2 ADD SWAP1 DUP2 LT PUSH8 0xFFFFFFFFFFFFFFFF DUP3 GT OR PUSH2 0x8FF JUMPI PUSH1 0x40 MSTORE JUMP JUMPDEST PUSH4 0x4E487B71 PUSH1 0xE0 SHL PUSH0 MSTORE PUSH1 0x41 PUSH1 0x4 MSTORE PUSH1 0x24 PUSH0 REVERT JUMPDEST SWAP2 PUSH1 0x1 PUSH1 0x1 PUSH1 0xA0 SHL SUB DUP1 DUP5 AND SWAP3 DUP4 ISZERO PUSH2 0x9D6 JUMPI AND SWAP3 DUP4 ISZERO PUSH2 0x9BE JUMPI PUSH0 SWAP1 DUP4 DUP3 MSTORE DUP2 PUSH1 0x20 MSTORE PUSH1 0x40 DUP3 KECCAK256 SLOAD SWAP1 DUP4 DUP3 LT PUSH2 0x98C JUMPI POP SWAP2 PUSH1 0x40 DUP3 DUP3 PUSH32 0xDDF252AD1BE2C89B69C2B068FC378DAA952BA7F163C4A11628F55A4DF523B3EF SWAP6 DUP8 PUSH1 0x20 SWAP7 MSTORE DUP3 DUP7 MSTORE SUB DUP3 DUP3 KECCAK256 SSTORE DUP7 DUP2 MSTORE KECCAK256 DUP2 DUP2 SLOAD ADD SWAP1 SSTORE PUSH1 0x40 MLOAD SWAP1 DUP2 MSTORE LOG3 JUMP JUMPDEST PUSH1 0x40 MLOAD PUSH4 0x391434E3 PUSH1 0xE2 SHL DUP2 MSTORE PUSH1 0x1 PUSH1 0x1 PUSH1 0xA0 SHL SUB SWAP2 SWAP1 SWAP2 AND PUSH1 0x4 DUP3 ADD MSTORE PUSH1 0x24 DUP2 ADD SWAP2 SWAP1 SWAP2 MSTORE PUSH1 0x44 DUP2 ADD DUP4 SWAP1 MSTORE PUSH1 0x64 SWAP1 REVERT JUMPDEST PUSH1 0x40 MLOAD PUSH4 0xEC442F05 PUSH1 0xE0 SHL DUP2 MSTORE PUSH0 PUSH1 0x4 DUP3 ADD MSTORE PUSH1 0x24 SWAP1 REVERT JUMPDEST PUSH1 0x40 MLOAD PUSH4 0x4B637E8F PUSH1 0xE1 SHL DUP2 MSTORE PUSH0 PUSH1 0x4 DUP3 ADD MSTORE PUSH1 0x24 SWAP1 REVERT JUMPDEST SWAP2 PUSH1 0x1 DUP1 PUSH1 0xA0 SHL SUB DUP1 SWAP4 AND SWAP2 PUSH0 SWAP4 DUP4 DUP6 MSTORE PUSH1 0x1 PUSH1 0x20 MSTORE PUSH1 0x40 SWAP4 DUP5 DUP7 KECCAK256 SWAP2 DUP4 AND SWAP2 DUP3 DUP8 MSTORE PUSH1 0x20 MSTORE DUP5 DUP7 KECCAK256 SLOAD SWAP3 PUSH0 NOT DUP5 SUB PUSH2 0xA2B JUMPI JUMPDEST POP POP POP POP POP POP POP JUMP JUMPDEST DUP5 DUP5 LT PUSH2 0xA8F JUMPI POP DUP1 ISZERO PUSH2 0xA77 JUMPI DUP2 ISZERO PUSH2 0xA5F JUMPI DUP6 MSTORE PUSH1 0x1 PUSH1 0x20 MSTORE DUP4 DUP6 KECCAK256 SWAP1 DUP6 MSTORE PUSH1 0x20 MSTORE SUB SWAP2 KECCAK256 SSTORE PUSH0 DUP1 DUP1 DUP1 DUP1 DUP1 DUP1 PUSH2 0xA22 JUMP JUMPDEST DUP5 MLOAD PUSH4 0x4A1406B1 PUSH1 0xE1 SHL DUP2 MSTORE PUSH1 0x4 DUP2 ADD DUP8 SWAP1 MSTORE PUSH1 0x24 SWAP1 REVERT JUMPDEST DUP5 MLOAD PUSH4 0xE602DF05 PUSH1 0xE0 SHL DUP2 MSTORE PUSH1 0x4 DUP2 ADD DUP8 SWAP1 MSTORE PUSH1 0x24 SWAP1 REVERT JUMPDEST DUP6 MLOAD PUSH4 0x7DC7A0D9 PUSH1 0xE1 SHL DUP2 MSTORE PUSH1 0x1 PUSH1 0x1 PUSH1 0xA0 SHL SUB SWAP2 SWAP1 SWAP2 AND PUSH1 0x4 DUP3 ADD MSTORE PUSH1 0x24 DUP2 ADD DUP5 SWAP1 MSTORE PUSH1 0x44 DUP2 ADD DUP6 SWAP1 MSTORE PUSH1 0x64 SWAP1 REVERT JUMPDEST PUSH1 0x40 MLOAD PUSH4 0x70A08231 PUSH1 0xE0 SHL DUP2 MSTORE ADDRESS PUSH1 0x4 DUP3 ADD MSTORE PUSH1 0x20 DUP2 PUSH1 0x24 DUP2 PUSH32 0x0 PUSH1 0x1 PUSH1 0x1 PUSH1 0xA0 SHL SUB AND GAS STATICCALL SWAP1 DUP2 ISZERO PUSH2 0xB43 JUMPI PUSH0 SWAP2 PUSH2 0xB15 JUMPI POP SWAP1 JUMP JUMPDEST SWAP1 PUSH1 0x20 DUP3 RETURNDATASIZE DUP3 GT PUSH2 0xB3B JUMPI JUMPDEST DUP2 PUSH2 0xB2E PUSH1 0x20 SWAP4 DUP4 PUSH2 0x8DD JUMP JUMPDEST DUP2 ADD SUB SLT PUSH2 0x289 JUMPI POP MLOAD SWAP1 JUMP JUMPDEST RETURNDATASIZE SWAP2 POP PUSH2 0xB21 JUMP JUMPDEST PUSH1 0x40 MLOAD RETURNDATASIZE PUSH0 DUP3 RETURNDATACOPY RETURNDATASIZE SWAP1 REVERT JUMPDEST PUSH1 0x2 SLOAD PUSH1 0x1 DUP2 ADD DUP1 SWAP2 GT PUSH2 0xB7C JUMPI PUSH2 0xB64 PUSH2 0xABF JUMP JUMPDEST SWAP1 PUSH1 0x1 DUP3 ADD DUP1 SWAP3 GT PUSH2 0xB7C JUMPI PUSH2 0xB79 SWAP3 PUSH2 0xFCE JUMP JUMPDEST SWAP1 JUMP JUMPDEST PUSH4 0x4E487B71 PUSH1 0xE0 SHL PUSH0 MSTORE PUSH1 0x11 PUSH1 0x4 MSTORE PUSH1 0x24 PUSH0 REVERT JUMPDEST PUSH1 0x2 SLOAD PUSH1 0x1 DUP2 ADD DUP1 SWAP2 GT PUSH2 0xB7C JUMPI PUSH2 0xBA6 PUSH2 0xABF JUMP JUMPDEST SWAP1 PUSH1 0x1 DUP3 ADD DUP1 SWAP3 GT PUSH2 0xB7C JUMPI PUSH2 0xB79 SWAP3 PUSH2 0x100C JUMP JUMPDEST PUSH2 0xBC3 PUSH2 0xABF JUMP JUMPDEST PUSH1 0x1 DUP2 ADD DUP1 SWAP2 GT PUSH2 0xB7C JUMPI PUSH1 0x2 SLOAD SWAP1 PUSH1 0x1 DUP3 ADD DUP1 SWAP3 GT PUSH2 0xB7C JUMPI PUSH2 0xB79 SWAP3 PUSH2 0xFCE JUMP JUMPDEST PUSH2 0xBEE PUSH2 0xABF JUMP JUMPDEST PUSH1 0x1 DUP2 ADD DUP1 SWAP2 GT PUSH2 0xB7C JUMPI PUSH1 0x2 SLOAD SWAP1 PUSH1 0x1 DUP3 ADD DUP1 SWAP3 GT PUSH2 0xB7C JUMPI PUSH2 0xB79 SWAP3 PUSH2 0x100C JUMP JUMPDEST PUSH1 0x40 DUP1 MLOAD PUSH4 0x23B872DD PUSH1 0xE0 SHL PUSH1 0x20 DUP3 ADD MSTORE PUSH1 0x1 PUSH1 0x1 PUSH1 0xA0 SHL SUB SWAP3 DUP4 AND PUSH1 0x24 DUP3 ADD DUP2 SWAP1 MSTORE ADDRESS PUSH1 0x44 DUP4 ADD MSTORE PUSH1 0x64 DUP1 DUP4 ADD DUP8 SWAP1 MSTORE DUP3 MSTORE SWAP5 SWAP6 SWAP4 SWAP2 SWAP3 SWAP2 SWAP1 PUSH1 0xA0 DUP2 ADD SWAP1 PUSH8 0xFFFFFFFFFFFFFFFF DUP3 GT DUP2 DUP4 LT OR PUSH2 0x8FF JUMPI PUSH2 0xC8F SWAP2 DUP6 MSTORE PUSH32 0x0 PUSH2 0xE98 JUMP JUMPDEST AND SWAP4 DUP5 ISZERO PUSH2 0xD12 JUMPI PUSH1 0x2 SLOAD SWAP3 DUP1 DUP5 ADD DUP1 SWAP5 GT PUSH2 0xB7C JUMPI PUSH32 0xDCBC1C05240F31FF3AD067EF1EE35CE4997762752E3A095284754544F4C709D7 SWAP4 PUSH1 0x2 SSTORE DUP6 PUSH0 MSTORE PUSH0 PUSH1 0x20 MSTORE DUP3 PUSH0 KECCAK256 DUP2 DUP2 SLOAD ADD SWAP1 SSTORE DUP6 PUSH0 PUSH32 0xDDF252AD1BE2C89B69C2B068FC378DAA952BA7F163C4A11628F55A4DF523B3EF PUSH1 0x20 DUP7 MLOAD DUP6 DUP2 MSTORE LOG3 DUP3 MLOAD SWAP2 DUP3 MSTORE PUSH1 0x20 DUP3 ADD MSTORE LOG3 JUMP JUMPDEST DUP2 MLOAD PUSH4 0xEC442F05 PUSH1 0xE0 SHL DUP2 MSTORE PUSH0 PUSH1 0x4 DUP3 ADD MSTORE PUSH1 0x24 SWAP1 REVERT JUMPDEST PUSH1 0x1 PUSH1 0x1 PUSH1 0xA0 SHL SUB DUP1 DUP5 AND SWAP6 SWAP1 SWAP5 DUP6 DUP4 AND SWAP5 SWAP4 SWAP1 SWAP3 DUP3 DUP9 DUP8 SUB PUSH2 0xE87 JUMPI JUMPDEST POP POP DUP7 ISZERO PUSH2 0x9D6 JUMPI PUSH0 SWAP6 DUP8 DUP8 MSTORE DUP7 PUSH1 0x20 MSTORE PUSH1 0x40 SWAP5 DUP6 DUP9 KECCAK256 SLOAD SWAP1 DUP5 DUP3 LT PUSH2 0xE56 JUMPI POP DUP4 SWAP1 DUP10 DUP10 MSTORE DUP9 PUSH1 0x20 MSTORE SUB DUP6 DUP9 KECCAK256 SSTORE DUP3 PUSH1 0x2 SLOAD SUB PUSH1 0x2 SSTORE DUP7 DUP9 PUSH32 0xDDF252AD1BE2C89B69C2B068FC378DAA952BA7F163C4A11628F55A4DF523B3EF PUSH1 0x20 DUP9 MLOAD DUP8 DUP2 MSTORE LOG3 DUP5 MLOAD SWAP2 PUSH4 0xA9059CBB PUSH1 0xE0 SHL PUSH1 0x20 DUP5 ADD MSTORE AND SWAP6 DUP7 PUSH1 0x24 DUP4 ADD MSTORE DUP4 PUSH1 0x44 DUP4 ADD MSTORE PUSH1 0x44 DUP3 MSTORE PUSH1 0x80 DUP3 ADD SWAP1 DUP3 DUP3 LT PUSH8 0xFFFFFFFFFFFFFFFF DUP4 GT OR PUSH2 0xE42 JUMPI POP DUP5 SWAP4 SWAP3 SWAP2 PUSH2 0xE35 SWAP2 PUSH32 0xFBDE797D201C681B91056529119E0B02407C7BB96A4A2C75C01FC9667232C8DB SWAP7 MSTORE PUSH32 0x0 PUSH2 0xE98 JUMP JUMPDEST DUP3 MLOAD SWAP2 DUP3 MSTORE PUSH1 0x20 DUP3 ADD MSTORE LOG4 JUMP JUMPDEST PUSH4 0x4E487B71 PUSH1 0xE0 SHL DUP2 MSTORE PUSH1 0x41 PUSH1 0x4 MSTORE PUSH1 0x24 SWAP1 REVERT JUMPDEST DUP7 MLOAD PUSH4 0x391434E3 PUSH1 0xE2 SHL DUP2 MSTORE PUSH1 0x1 PUSH1 0x1 PUSH1 0xA0 SHL SUB SWAP2 SWAP1 SWAP2 AND PUSH1 0x4 DUP3 ADD MSTORE PUSH1 0x24 DUP2 ADD SWAP2 SWAP1 SWAP2 MSTORE PUSH1 0x44 DUP2 ADD DUP5 SWAP1 MSTORE PUSH1 0x64 SWAP1 REVERT JUMPDEST PUSH2 0xE91 SWAP2 DUP7 PUSH2 0x9EE JUMP JUMPDEST PUSH0 DUP3 PUSH2 0xD47 JUMP JUMPDEST PUSH1 0x1 DUP1 PUSH1 0xA0 SHL SUB AND SWAP1 PUSH0 DUP1 DUP3 PUSH1 0x20 DUP3 SWAP5 MLOAD SWAP2 ADD DUP3 DUP7 GAS CALL RETURNDATASIZE ISZERO PUSH2 0xF5F JUMPI RETURNDATASIZE SWAP1 PUSH8 0xFFFFFFFFFFFFFFFF DUP3 GT PUSH2 0xF4B JUMPI SWAP1 PUSH2 0xEF3 SWAP2 PUSH1 0x40 MLOAD SWAP2 PUSH2 0xEE3 PUSH1 0x20 PUSH1 0x1F NOT PUSH1 0x1F DUP5 ADD AND ADD DUP5 PUSH2 0x8DD JUMP JUMPDEST DUP3 MSTORE RETURNDATASIZE DUP5 PUSH1 0x20 DUP5 ADD RETURNDATACOPY JUMPDEST DUP5 PUSH2 0xF6B JUMP JUMPDEST SWAP1 DUP2 MLOAD SWAP2 DUP3 ISZERO ISZERO SWAP3 DUP4 PUSH2 0xF23 JUMPI JUMPDEST POP POP POP PUSH2 0xF0B JUMPI POP JUMP JUMPDEST PUSH1 0x24 SWAP1 PUSH1 0x40 MLOAD SWAP1 PUSH4 0x5274AFE7 PUSH1 0xE0 SHL DUP3 MSTORE PUSH1 0x4 DUP3 ADD MSTORE REVERT JUMPDEST DUP2 SWAP3 SWAP4 POP SWAP1 PUSH1 0x20 SWAP2 DUP2 ADD SUB SLT PUSH2 0x181 JUMPI PUSH1 0x20 ADD MLOAD SWAP1 DUP2 ISZERO SWAP2 DUP3 ISZERO SUB PUSH2 0x289 JUMPI POP PUSH0 DUP1 DUP1 PUSH2 0xF01 JUMP JUMPDEST PUSH4 0x4E487B71 PUSH1 0xE0 SHL DUP4 MSTORE PUSH1 0x41 PUSH1 0x4 MSTORE PUSH1 0x24 DUP4 REVERT JUMPDEST PUSH2 0xEF3 SWAP1 PUSH1 0x60 SWAP1 PUSH2 0xEED JUMP JUMPDEST SWAP1 PUSH2 0xF92 JUMPI POP DUP1 MLOAD ISZERO PUSH2 0xF80 JUMPI DUP1 MLOAD SWAP1 PUSH1 0x20 ADD REVERT JUMPDEST PUSH1 0x40 MLOAD PUSH4 0xA12F521 PUSH1 0xE1 SHL DUP2 MSTORE PUSH1 0x4 SWAP1 REVERT JUMPDEST DUP2 MLOAD ISZERO DUP1 PUSH2 0xFC5 JUMPI JUMPDEST PUSH2 0xFA3 JUMPI POP SWAP1 JUMP JUMPDEST PUSH1 0x40 MLOAD PUSH4 0x9996B315 PUSH1 0xE0 SHL DUP2 MSTORE PUSH1 0x1 PUSH1 0x1 PUSH1 0xA0 SHL SUB SWAP1 SWAP2 AND PUSH1 0x4 DUP3 ADD MSTORE PUSH1 0x24 SWAP1 REVERT JUMPDEST POP DUP1 EXTCODESIZE ISZERO PUSH2 0xF9B JUMP JUMPDEST SWAP2 SWAP1 PUSH2 0xFDB DUP3 DUP3 DUP6 PUSH2 0x100C JUMP JUMPDEST SWAP3 DUP3 ISZERO PUSH2 0xFF8 JUMPI MULMOD PUSH2 0xFEA JUMPI SWAP1 JUMP JUMPDEST PUSH1 0x1 DUP2 ADD DUP1 SWAP2 GT PUSH2 0xB7C JUMPI SWAP1 JUMP JUMPDEST PUSH4 0x4E487B71 PUSH1 0xE0 SHL PUSH0 MSTORE PUSH1 0x12 PUSH1 0x4 MSTORE PUSH1 0x24 PUSH0 REVERT JUMPDEST SWAP1 SWAP2 DUP3 DUP3 MUL SWAP2 PUSH0 NOT DUP5 DUP3 MULMOD SWAP4 DUP4 DUP1 DUP7 LT SWAP6 SUB SWAP5 DUP1 DUP7 SUB SWAP6 EQ PUSH2 0x1091 JUMPI DUP5 DUP4 GT ISZERO PUSH2 0x107F JUMPI DUP3 SWAP2 MULMOD DUP2 PUSH0 SUB DUP3 AND DUP1 SWAP3 DIV PUSH1 0x2 DUP1 DUP3 PUSH1 0x3 MUL XOR DUP1 DUP4 MUL DUP3 SUB MUL DUP1 DUP4 MUL DUP3 SUB MUL DUP1 DUP4 MUL DUP3 SUB MUL DUP1 DUP4 MUL DUP3 SUB MUL DUP1 DUP4 MUL DUP3 SUB MUL DUP1 SWAP3 MUL SWAP1 SUB MUL SWAP4 PUSH1 0x1 DUP4 DUP1 PUSH0 SUB DIV ADD SWAP1 DUP5 DUP4 GT SWAP1 SUB MUL SWAP3 SUB DIV OR MUL SWAP1 JUMP JUMPDEST PUSH1 0x40 MLOAD PUSH4 0x227BC153 PUSH1 0xE0 SHL DUP2 MSTORE PUSH1 0x4 SWAP1 REVERT JUMPDEST POP POP DUP1 SWAP3 POP ISZERO PUSH2 0xFF8 JUMPI DIV SWAP1 JUMP INVALID LOG2 PUSH5 0x6970667358 0x22 SLT KECCAK256 0xC 0xDC 0xF8 0xCE LOG3 0xAE 0xBE 0xB7 PUSH19 0x95123987AA077467951540B1679C1067C1E2E4 0xE6 0xAA 0xE DUP11 PUSH5 0x736F6C6343 STOP ADDMOD EQ STOP CALLER LOG2 PUSH5 0x6970667358 0x22 SLT KECCAK256 PUSH14 0x6EB419B85387A1D6531D18E9CC99 DUP7 NOT 0xDD SHR CODESIZE DUP4 0xB6 0xC8 0x26 DUP12 MSIZE MSTORE8 0x4F PUSH25 0x2C385964736F6C634300081400330000000000000000000000 "
		},
		"gasEstimates": {
			"creation": {
				"codeDepositCost": "3471600",
				"executionCost": "infinite",
				"totalCost": "infinite"
			},
			"external": {
				"createTuliaPool(address,address,address,address,uint256,uint256,uint256,address,uint8,uint256)": "infinite",
				"feeManager()": "2422",
				"permit2()": "2317",
				"poolOrganizer()": "2405",
				"rewardManager()": "2285",
				"vaultManager()": "2339",
				"vaults(address)": "2522"
			}
		},
		"methodIdentifiers": {
			"createTuliaPool(address,address,address,address,uint256,uint256,uint256,address,uint8,uint256)": "8c41fd09",
			"feeManager()": "d0fb0203",
			"permit2()": "12261ee7",
			"poolOrganizer()": "c51b9507",
			"rewardManager()": "0f4ef8a6",
			"vaultManager()": "8a4adf24",
			"vaults(address)": "a622ee7c"
		}
	},
	"abi": [
		{
			"inputs": [
				{
					"internalType": "address",
					"name": "_poolOrganizer",
					"type": "address"
				},
				{
					"internalType": "address",
					"name": "_permit2",
					"type": "address"
				},
				{
					"internalType": "address",
					"name": "_feeManager",
					"type": "address"
				},
				{
					"internalType": "address",
					"name": "_rewardManager",
					"type": "address"
				},
				{
					"internalType": "address",
					"name": "_vaultManager",
					"type": "address"
				}
			],
			"stateMutability": "nonpayable",
			"type": "constructor"
		},
		{
			"anonymous": false,
			"inputs": [
				{
					"indexed": true,
					"internalType": "address",
					"name": "pool",
					"type": "address"
				},
				{
					"indexed": true,
					"internalType": "address",
					"name": "lender",
					"type": "address"
				},
				{
					"indexed": true,
					"internalType": "address",
					"name": "vault",
					"type": "address"
				},
				{
					"indexed": false,
					"internalType": "enum IPoolOrganizer.PoolType",
					"name": "poolType",
					"type": "uint8"
				}
			],
			"name": "PoolCreated",
			"type": "event"
		},
		{
			"anonymous": false,
			"inputs": [
				{
					"indexed": true,
					"internalType": "address",
					"name": "vault",
					"type": "address"
				},
				{
					"indexed": false,
					"internalType": "address",
					"name": "assetToken",
					"type": "address"
				}
			],
			"name": "VaultCreated",
			"type": "event"
		},
		{
			"inputs": [
				{
					"internalType": "address",
					"name": "lender",
					"type": "address"
				},
				{
					"internalType": "contract IERC20",
					"name": "loanTokenAddress",
					"type": "address"
				},
				{
					"internalType": "contract IERC20",
					"name": "assetToken",
					"type": "address"
				},
				{
					"internalType": "contract IERC20",
					"name": "repaymentTokenAddress",
					"type": "address"
				},
				{
					"internalType": "uint256",
					"name": "loanAmount",
					"type": "uint256"
				},
				{
					"internalType": "uint256",
					"name": "interestRate",
					"type": "uint256"
				},
				{
					"internalType": "uint256",
					"name": "repaymentPeriod",
					"type": "uint256"
				},
				{
					"internalType": "contract IInterestModel",
					"name": "interestModel",
					"type": "address"
				},
				{
					"internalType": "enum IPoolOrganizer.PoolType",
					"name": "poolType",
					"type": "uint8"
				},
				{
					"internalType": "uint256",
					"name": "optionalFlashLoanFeeRate",
					"type": "uint256"
				}
			],
			"name": "createTuliaPool",
			"outputs": [
				{
					"internalType": "address",
					"name": "poolAddress",
					"type": "address"
				},
				{
					"internalType": "address",
					"name": "vaultAddress",
					"type": "address"
				}
			],
			"stateMutability": "nonpayable",
			"type": "function"
		},
		{
			"inputs": [],
			"name": "feeManager",
			"outputs": [
				{
					"internalType": "contract IFeeManager",
					"name": "",
					"type": "address"
				}
			],
			"stateMutability": "view",
			"type": "function"
		},
		{
			"inputs": [],
			"name": "permit2",
			"outputs": [
				{
					"internalType": "contract IPermit2",
					"name": "",
					"type": "address"
				}
			],
			"stateMutability": "view",
			"type": "function"
		},
		{
			"inputs": [],
			"name": "poolOrganizer",
			"outputs": [
				{
					"internalType": "contract IPoolOrganizer",
					"name": "",
					"type": "address"
				}
			],
			"stateMutability": "view",
			"type": "function"
		},
		{
			"inputs": [],
			"name": "rewardManager",
			"outputs": [
				{
					"internalType": "contract IRewardManager",
					"name": "",
					"type": "address"
				}
			],
			"stateMutability": "view",
			"type": "function"
		},
		{
			"inputs": [],
			"name": "vaultManager",
			"outputs": [
				{
					"internalType": "contract IVaultManager",
					"name": "",
					"type": "address"
				}
			],
			"stateMutability": "view",
			"type": "function"
		},
		{
			"inputs": [
				{
					"internalType": "address",
					"name": "",
					"type": "address"
				}
			],
			"name": "vaults",
			"outputs": [
				{
					"internalType": "contract TuliaVault",
					"name": "",
					"type": "address"
				}
			],
			"stateMutability": "view",
			"type": "function"
		}
	]
}