{
	"data": {
		"bytecode": {
			"linkReferences": {},
			"object": "608034620003d257601f6200191b38819003918201601f19168301916001600160401b038311848410176200032c5780849261018094604052833981010312620003d2576200004e81620003d6565b6200005c60208301620003d6565b916200006b60408201620003d6565b916200007a60608301620003d6565b9260808301519460a08401519360c08101519060e081015160018060a01b0381168103620003d257610100820151916001600160a01b0383168303620003d257620000c96101208201620003d6565b620000e7610160620000df6101408501620003d6565b9301620003d6565b60015f55936001600160a01b038916151580620003bf575b80620003ac575b8062000399575b156200035457600180546001600160a01b03199081166001600160a01b039384161790915560028054821693831693909317909255600380549092169083161790556004549362015180908015828202829004831417156200034057604051996001600160401b036101808c01908111908c11176200032c578c5f6101608d7f3d48195705780f5c10a0d217f778f0f6d562cb1a6a699da31c0d6d756aacedfc9f60609f8f906101800160405260018060a01b0316825260018060a01b038d1660208301528d60018060a01b0316604083015260018060a01b0316938f859083015260808201528460a082015286860260c082015260018060a01b03881660e082015260018060a01b0389166101008201528261012082015242610140820152015260018060a01b038b1660018060a01b0319600554161760055560018060a01b03891660018060a01b0319600654161760065560018060a01b038a1660018060a01b0319600754161760075560018060a01b031960085416176008558c600955600a5502600b5560018060a01b031660018060a01b0319600c541617600c5560018060a01b031660018060a01b0319600d541617600d5560018060a01b0319600e5416600e5542600f555f60105560018060a01b03169060018060a81b0319161760045560405195865260018060a01b0316602086015260018060a01b0316604085015260018060a01b031692a260405161152f9081620003ec8239f35b634e487b7160e01b5f52604160045260245ffd5b634e487b7160e01b5f52601160045260245ffd5b60405162461bcd60e51b815260206004820152601760248201527f496e76616c696420696e707574206164647265737365730000000000000000006044820152606490fd5b506001600160a01b03881615156200010d565b506001600160a01b038b16151562000106565b506001600160a01b0387161515620000ff565b5f80fd5b51906001600160a01b0382168203620003d25756fe6080604081815260049182361015610015575f80fd5b5f92833560e01c9182630c7277de14611275575081630f4ef8a61461124d57816312261ee7146112245781632e1283e3146112055781633b1baeff14610f5f578163402d888314610a905781635257b56614610a7157816364c4bec014610a52578163654c6295146109b65781636b6d1955146109965781638a4adf241461096d5781638db579941461081a57816395cb741d146107835781639e9f669c1461015f578163b2a9bb601461018f578163c19d93fb1461015f57508063c51b950714610137578063eb0c4955146101145763f4b01b18146100f3575f80fd5b346101105781600319360112610110576020906009549051908152f35b5080fd5b5034610110578160031936011261011057602090610130611476565b9051908152f35b503461011057816003193601126101105760025490516001600160a01b039091168152602090f35b82843461018c578060031936011261018c575060ff610188925460a01c1690519182918261129a565b0390f35b80fd5b919050346104cc57826003193601126104cc576101aa6112c1565b60ff825460a01c1660068110156107705760010361072d5733156106ea576005546001600160a01b0392908316903382146106a7576101e7611476565b6101f46009549182611377565b6007548551636eb1769f60e11b808252338683019081523060208281019190915297938a16949192908890829081906040010381885afa90811561069d578b91610670575b50106106235760065487519182526001600160a01b039092168582019081523060208201529091869183918a16908290819060400103915afa9081156106195790839189916105e8575b50106105a5579086929161029e610298611476565b83611377565b6102a6611476565b87516323b872dd60e01b808252338783019081523060208201526040810194909452919391929091889183919082908a90829060600103925af1801561059b57916103329391889361057e575b50896007541690878b60035416918b51968795869485938452338c850160409194939294606082019560018060a01b0380921683521660208201520152565b03925af1801561055757610561575b50600754600854865163095ea7b360e01b81529088166001600160a01b0316848201908152602081018490529091869183918a169082908890829060400103925af1801561055757918591859361053a575b50604488600854169188519485938492636e553f6560e01b8452888401523360248401525af180156104fd57908491610507575b50600654600954865163a9059cbb60e01b81523385820190815260208101929092529291839182900360400190829087908b165af180156104fd576104d0575b50600e80546001600160a01b0319163317905542600f55805460ff60a01b1916600160a11b17815561044261043a611476565b600954611377565b946003541690813b156104cc5782916024839287519485938492632914526d60e11b845230908401525af180156104c2576104aa575b50507f5150ab7694a22fbc01c642bc10316565247df962fa3f0ac3b5d1a18ba45b485b91519283523392a26001815580f35b6104b390611315565b6104be57835f610478565b8380fd5b84513d84823e3d90fd5b8280fd5b6104ef90843d86116104f6575b6104e7818361133d565b81019061135f565b505f610407565b503d6104dd565b85513d85823e3d90fd5b90809293503d8311610533575b61051e818361133d565b8101031261052f578490825f6103c7565b5f80fd5b503d610514565b61055090833d85116104f6576104e7818361133d565b505f610393565b86513d86823e3d90fd5b61057790853d87116104f6576104e7818361133d565b505f610341565b61059490843d86116104f6576104e7818361133d565b505f6102f3565b88513d88823e3d90fd5b845162461bcd60e51b8152808401859052601b60248201527f496e73756666696369656e74206c6f616e20616c6c6f77616e636500000000006044820152606490fd5b809250868092503d8311610612575b610601818361133d565b8101031261052f578290515f610283565b503d6105f7565b86513d8a823e3d90fd5b865162461bcd60e51b8152808601879052602160248201527f496e73756666696369656e7420636f6c6c61746572616c20616c6c6f77616e636044820152606560f81b6064820152608490fd5b90508781813d8311610696575b610687818361133d565b8101031261052f57515f610239565b503d61067d565b89513d8d823e3d90fd5b606490602084519162461bcd60e51b8352820152601960248201527f4c656e6465722063616e6e6f7420626520626f72726f776572000000000000006044820152fd5b906020606492519162461bcd60e51b8352820152601860248201527f496e76616c696420626f72726f776572206164647265737300000000000000006044820152fd5b906020606492519162461bcd60e51b8352820152601a60248201527f4c6f616e206e6f7420726561647920746f2061637469766174650000000000006044820152fd5b634e487b7160e01b845260218352602484fd5b5050346101105781600319360112610110576101809060018060a01b038060055416918160065416918060075416908060085416600954600a54600b549184600c54169385600d541695600e541696600f54986010549a81519c8d5260208d01528b015260608a0152608089015260a088015260c087015260e0860152610100850152610120840152610140830152610160820152f35b9050346104cc57826003193601126104cc576108346112c1565b60ff815460a01c16600681101561095a576109185760065460055460095484516323b872dd60e01b81526001600160a01b03928316858201908152306020828101919091526040820193909352909391928492169082908890829060600103925af1801561090b57917f9e71d2fb732e68272b7e74ecfd14638673c1d77e19a5d390a3ffff054d57c44b93916020936108ee575b5042601055805460ff60a01b1916600160a01b1790556009549051908152a16001815580f35b61090490843d81116104f6576104e7818361133d565b505f6108c8565b50505051903d90823e3d90fd5b6020606492519162461bcd60e51b8352820152601b60248201527f4c6f616e206e6f7420696e20637265617461626c6520737461746500000000006044820152fd5b634e487b7160e01b845260218252602484fd5b50503461011057816003193601126101105760035490516001600160a01b039091168152602090f35b50503461011057816003193601126101105760209061013061043a611476565b83833461011057602092836003193601126104cc5780356001600160a01b0381811691829003610a4e5790602486926008541693855194859384926370a0823160e01b84528301525afa928315610a435792610a14575b5051908152f35b9091508281813d8311610a3c575b610a2c818361133d565b8101031261052f57519083610a0d565b503d610a22565b8251903d90823e3d90fd5b8480fd5b505034610110578160031936011261011057602090600b549051908152f35b505034610110578160031936011261011057602090600a549051908152f35b919050346104cc57826003193601126104cc57610aab6112c1565b600e546001600160a01b03919082163303610f0b5760ff835460a01c166006811015610ef857600203610e9f57610ae361043a611476565b91610aec611476565b830390838211610e8c576007548351636eb1769f60e11b81523387820190815230602082810191909152969284169291908790829081906040010381865afa908115610dfa579082918a91610e5b575b5010610e045784516370a0823160e01b815233888201528681602481865afa908115610dfa578991610dcd575b5010610d785760055484516323b872dd60e01b8152338882019081529184166001600160a01b03166020830152604082018590528894939290918791839182908890829060600103925af18015610d5157610d5b575b508060035416803b156104be5784516356f78a1d60e01b8152308882019081523360208201529091859183919082908490829060400103925af18015610d5157908491610d3d575b505060085416908351906363737ac960e11b8252868201528481602481855afa908115610d3357908592918491610cfe575b508451635d043b2960e11b8152878101918252336020830181905260408301529384929183919082906060015b03925af18015610cf457610cca575b50825460ff60a01b1916600160a21b179092557f4002dba848920f438092e08090cfb5fc47144c22704268b402c9553a1b5adfe691610cb2611398565b610cbd61043a611476565b9051908152a16001815580f35b8290813d8311610ced575b610cdf818361133d565b8101031261052f575f610c75565b503d610cd5565b82513d87823e3d90fd5b9350509082813d8311610d2c575b610d16818361133d565b8101031261052f57905185918491610c66610c39565b503d610d0c565b84513d85823e3d90fd5b610d4690611315565b6104cc57825f610c07565b85513d86823e3d90fd5b610d7190863d88116104f6576104e7818361133d565b505f610bbf565b835162461bcd60e51b8152808701869052602960248201527f496e73756666696369656e7420746f6b656e2062616c616e636520666f72207260448201526832b830bcb6b2b73a1760b91b6064820152608490fd5b90508681813d8311610df3575b610de4818361133d565b8101031261052f57515f610b69565b503d610dda565b86513d8b823e3d90fd5b845162461bcd60e51b8152808801879052602b60248201527f496e73756666696369656e7420746f6b656e20616c6c6f77616e636520666f7260448201526a103932b830bcb6b2b73a1760a91b6064820152608490fd5b809250888092503d8311610e85575b610e74818361133d565b8101031261052f578190515f610b3c565b503d610e6a565b634e487b7160e01b865260118552602486fd5b5162461bcd60e51b8152602081840152602e60248201527f4c6f616e206d7573742062652061637469766520746f2070726f63656564207760448201526d34ba34103932b830bcb6b2b73a1760911b6064820152608490fd5b634e487b7160e01b855260218452602485fd5b5162461bcd60e51b8152602081840152602960248201527f4f6e6c792074686520626f72726f7765722063616e20696e697469617465207260448201526832b830bcb6b2b73a1760b91b6064820152608490fd5b838334610110578160031936011261011057825460ff8160a01c1660068110156111f2576002036111ba57610f99600f54600b5490611377565b421015610fa4578280f35b60ff60a01b1916600360a01b178355600854600e5482516370a0823160e01b81526001600160a01b039182168187018190529195926020929087168383602481845afa92831561118157879361118b575b508551926363737ac960e11b8452858401528383602481845afa801561118157908492918890611148575b6005548851635d043b2960e11b81528881019283526001600160a01b03918c16821660208401529316604082015291935083918290899082906060015b03925af1801561113e57611115575b50508360035416846005541691813b15610a4e57835163389e006760e11b8152309181019182526001600160a01b0390931660208201529192918491849182908490829060400103925af190811561110c57506110fd575b50906110ce611398565b600e54167ff4e5cf42cbb1d0c6c91e16d925349feb6c5d970652f6ec77b1ff1262f7284cd58280a28082808280f35b61110690611315565b826110c4565b513d84823e3d90fd5b813d8311611137575b611128818361133d565b810103126104cc57848061106c565b503d61111e565b84513d87823e3d90fd5b509183819492943d831161117a575b611161818361133d565b810103126111765791839161105d9351611020565b8680fd5b503d611157565b86513d89823e3d90fd5b9092508381813d83116111b3575b6111a3818361133d565b8101031261117657519188610ff5565b503d611199565b815162461bcd60e51b815260208186015260126024820152714c6f616e206973206e6f742061637469766560701b6044820152606490fd5b634e487b7160e01b845260218552602484fd5b5050346101105781600319360112610110576020906010549051908152f35b50503461011057816003193601126101105760015490516001600160a01b039091168152602090f35b9050346104cc57826003193601126104cc575490516001600160a01b03909116815260209150f35b8490346101105781600319360112610110576007546001600160a01b03168152602090f35b9190602083019260068210156112ad5752565b634e487b7160e01b5f52602160045260245ffd5b60025f54146112d05760025f55565b60405162461bcd60e51b815260206004820152601f60248201527f5265656e7472616e637947756172643a207265656e7472616e742063616c6c006044820152606490fd5b67ffffffffffffffff811161132957604052565b634e487b7160e01b5f52604160045260245ffd5b90601f8019910116810190811067ffffffffffffffff82111761132957604052565b9081602091031261052f5751801515810361052f5790565b9190820180921161138457565b634e487b7160e01b5f52601160045260245ffd5b6004805460ff60a01b1916600560a01b1790556002546001600160a01b03905f908216803b1561011057818091602460405180948193637e72c7d760e01b83523060048401525af1801561145c57611467575b509060035416803b15610110578180916024604051809481936338e270ed60e01b83523060048401525af1801561145c57611448575b50807f409fced1b85ae32a29fb1e18894d8361a5f2653dc27adf7102d86175c2901d7c91a1565b6114528291611315565b61018c575f611421565b6040513d84823e3d90fd5b61147090611315565b5f6113eb565b600d54600954600a5460405163efdd7c0760e01b81526004810192909252602482015290602090829060449082906001600160a01b03165afa9081156114ee575f916114c0575090565b906020823d82116114e6575b816114d96020938361133d565b8101031261018c57505190565b3d91506114cc565b6040513d5f823e3d90fdfea26469706673582212206d09c4945cd58932995304704a2c7326076f78cfdbc5f86f17047661021de0dc64736f6c63430008140033",
			"opcodes": "PUSH1 0x80 CALLVALUE PUSH3 0x3D2 JUMPI PUSH1 0x1F PUSH3 0x191B CODESIZE DUP2 SWAP1 SUB SWAP2 DUP3 ADD PUSH1 0x1F NOT AND DUP4 ADD SWAP2 PUSH1 0x1 PUSH1 0x1 PUSH1 0x40 SHL SUB DUP4 GT DUP5 DUP5 LT OR PUSH3 0x32C JUMPI DUP1 DUP5 SWAP3 PUSH2 0x180 SWAP5 PUSH1 0x40 MSTORE DUP4 CODECOPY DUP2 ADD SUB SLT PUSH3 0x3D2 JUMPI PUSH3 0x4E DUP2 PUSH3 0x3D6 JUMP JUMPDEST PUSH3 0x5C PUSH1 0x20 DUP4 ADD PUSH3 0x3D6 JUMP JUMPDEST SWAP2 PUSH3 0x6B PUSH1 0x40 DUP3 ADD PUSH3 0x3D6 JUMP JUMPDEST SWAP2 PUSH3 0x7A PUSH1 0x60 DUP4 ADD PUSH3 0x3D6 JUMP JUMPDEST SWAP3 PUSH1 0x80 DUP4 ADD MLOAD SWAP5 PUSH1 0xA0 DUP5 ADD MLOAD SWAP4 PUSH1 0xC0 DUP2 ADD MLOAD SWAP1 PUSH1 0xE0 DUP2 ADD MLOAD PUSH1 0x1 DUP1 PUSH1 0xA0 SHL SUB DUP2 AND DUP2 SUB PUSH3 0x3D2 JUMPI PUSH2 0x100 DUP3 ADD MLOAD SWAP2 PUSH1 0x1 PUSH1 0x1 PUSH1 0xA0 SHL SUB DUP4 AND DUP4 SUB PUSH3 0x3D2 JUMPI PUSH3 0xC9 PUSH2 0x120 DUP3 ADD PUSH3 0x3D6 JUMP JUMPDEST PUSH3 0xE7 PUSH2 0x160 PUSH3 0xDF PUSH2 0x140 DUP6 ADD PUSH3 0x3D6 JUMP JUMPDEST SWAP4 ADD PUSH3 0x3D6 JUMP JUMPDEST PUSH1 0x1 PUSH0 SSTORE SWAP4 PUSH1 0x1 PUSH1 0x1 PUSH1 0xA0 SHL SUB DUP10 AND ISZERO ISZERO DUP1 PUSH3 0x3BF JUMPI JUMPDEST DUP1 PUSH3 0x3AC JUMPI JUMPDEST DUP1 PUSH3 0x399 JUMPI JUMPDEST ISZERO PUSH3 0x354 JUMPI PUSH1 0x1 DUP1 SLOAD PUSH1 0x1 PUSH1 0x1 PUSH1 0xA0 SHL SUB NOT SWAP1 DUP2 AND PUSH1 0x1 PUSH1 0x1 PUSH1 0xA0 SHL SUB SWAP4 DUP5 AND OR SWAP1 SWAP2 SSTORE PUSH1 0x2 DUP1 SLOAD DUP3 AND SWAP4 DUP4 AND SWAP4 SWAP1 SWAP4 OR SWAP1 SWAP3 SSTORE PUSH1 0x3 DUP1 SLOAD SWAP1 SWAP3 AND SWAP1 DUP4 AND OR SWAP1 SSTORE PUSH1 0x4 SLOAD SWAP4 PUSH3 0x15180 SWAP1 DUP1 ISZERO DUP3 DUP3 MUL DUP3 SWAP1 DIV DUP4 EQ OR ISZERO PUSH3 0x340 JUMPI PUSH1 0x40 MLOAD SWAP10 PUSH1 0x1 PUSH1 0x1 PUSH1 0x40 SHL SUB PUSH2 0x180 DUP13 ADD SWAP1 DUP2 GT SWAP1 DUP13 GT OR PUSH3 0x32C JUMPI DUP13 PUSH0 PUSH2 0x160 DUP14 PUSH32 0x3D48195705780F5C10A0D217F778F0F6D562CB1A6A699DA31C0D6D756AACEDFC SWAP16 PUSH1 0x60 SWAP16 DUP16 SWAP1 PUSH2 0x180 ADD PUSH1 0x40 MSTORE PUSH1 0x1 DUP1 PUSH1 0xA0 SHL SUB AND DUP3 MSTORE PUSH1 0x1 DUP1 PUSH1 0xA0 SHL SUB DUP14 AND PUSH1 0x20 DUP4 ADD MSTORE DUP14 PUSH1 0x1 DUP1 PUSH1 0xA0 SHL SUB AND PUSH1 0x40 DUP4 ADD MSTORE PUSH1 0x1 DUP1 PUSH1 0xA0 SHL SUB AND SWAP4 DUP16 DUP6 SWAP1 DUP4 ADD MSTORE PUSH1 0x80 DUP3 ADD MSTORE DUP5 PUSH1 0xA0 DUP3 ADD MSTORE DUP7 DUP7 MUL PUSH1 0xC0 DUP3 ADD MSTORE PUSH1 0x1 DUP1 PUSH1 0xA0 SHL SUB DUP9 AND PUSH1 0xE0 DUP3 ADD MSTORE PUSH1 0x1 DUP1 PUSH1 0xA0 SHL SUB DUP10 AND PUSH2 0x100 DUP3 ADD MSTORE DUP3 PUSH2 0x120 DUP3 ADD MSTORE TIMESTAMP PUSH2 0x140 DUP3 ADD MSTORE ADD MSTORE PUSH1 0x1 DUP1 PUSH1 0xA0 SHL SUB DUP12 AND PUSH1 0x1 DUP1 PUSH1 0xA0 SHL SUB NOT PUSH1 0x5 SLOAD AND OR PUSH1 0x5 SSTORE PUSH1 0x1 DUP1 PUSH1 0xA0 SHL SUB DUP10 AND PUSH1 0x1 DUP1 PUSH1 0xA0 SHL SUB NOT PUSH1 0x6 SLOAD AND OR PUSH1 0x6 SSTORE PUSH1 0x1 DUP1 PUSH1 0xA0 SHL SUB DUP11 AND PUSH1 0x1 DUP1 PUSH1 0xA0 SHL SUB NOT PUSH1 0x7 SLOAD AND OR PUSH1 0x7 SSTORE PUSH1 0x1 DUP1 PUSH1 0xA0 SHL SUB NOT PUSH1 0x8 SLOAD AND OR PUSH1 0x8 SSTORE DUP13 PUSH1 0x9 SSTORE PUSH1 0xA SSTORE MUL PUSH1 0xB SSTORE PUSH1 0x1 DUP1 PUSH1 0xA0 SHL SUB AND PUSH1 0x1 DUP1 PUSH1 0xA0 SHL SUB NOT PUSH1 0xC SLOAD AND OR PUSH1 0xC SSTORE PUSH1 0x1 DUP1 PUSH1 0xA0 SHL SUB AND PUSH1 0x1 DUP1 PUSH1 0xA0 SHL SUB NOT PUSH1 0xD SLOAD AND OR PUSH1 0xD SSTORE PUSH1 0x1 DUP1 PUSH1 0xA0 SHL SUB NOT PUSH1 0xE SLOAD AND PUSH1 0xE SSTORE TIMESTAMP PUSH1 0xF SSTORE PUSH0 PUSH1 0x10 SSTORE PUSH1 0x1 DUP1 PUSH1 0xA0 SHL SUB AND SWAP1 PUSH1 0x1 DUP1 PUSH1 0xA8 SHL SUB NOT AND OR PUSH1 0x4 SSTORE PUSH1 0x40 MLOAD SWAP6 DUP7 MSTORE PUSH1 0x1 DUP1 PUSH1 0xA0 SHL SUB AND PUSH1 0x20 DUP7 ADD MSTORE PUSH1 0x1 DUP1 PUSH1 0xA0 SHL SUB AND PUSH1 0x40 DUP6 ADD MSTORE PUSH1 0x1 DUP1 PUSH1 0xA0 SHL SUB AND SWAP3 LOG2 PUSH1 0x40 MLOAD PUSH2 0x152F SWAP1 DUP2 PUSH3 0x3EC DUP3 CODECOPY RETURN JUMPDEST PUSH4 0x4E487B71 PUSH1 0xE0 SHL PUSH0 MSTORE PUSH1 0x41 PUSH1 0x4 MSTORE PUSH1 0x24 PUSH0 REVERT JUMPDEST PUSH4 0x4E487B71 PUSH1 0xE0 SHL PUSH0 MSTORE PUSH1 0x11 PUSH1 0x4 MSTORE PUSH1 0x24 PUSH0 REVERT JUMPDEST PUSH1 0x40 MLOAD PUSH3 0x461BCD PUSH1 0xE5 SHL DUP2 MSTORE PUSH1 0x20 PUSH1 0x4 DUP3 ADD MSTORE PUSH1 0x17 PUSH1 0x24 DUP3 ADD MSTORE PUSH32 0x496E76616C696420696E70757420616464726573736573000000000000000000 PUSH1 0x44 DUP3 ADD MSTORE PUSH1 0x64 SWAP1 REVERT JUMPDEST POP PUSH1 0x1 PUSH1 0x1 PUSH1 0xA0 SHL SUB DUP9 AND ISZERO ISZERO PUSH3 0x10D JUMP JUMPDEST POP PUSH1 0x1 PUSH1 0x1 PUSH1 0xA0 SHL SUB DUP12 AND ISZERO ISZERO PUSH3 0x106 JUMP JUMPDEST POP PUSH1 0x1 PUSH1 0x1 PUSH1 0xA0 SHL SUB DUP8 AND ISZERO ISZERO PUSH3 0xFF JUMP JUMPDEST PUSH0 DUP1 REVERT JUMPDEST MLOAD SWAP1 PUSH1 0x1 PUSH1 0x1 PUSH1 0xA0 SHL SUB DUP3 AND DUP3 SUB PUSH3 0x3D2 JUMPI JUMP INVALID PUSH1 0x80 PUSH1 0x40 DUP2 DUP2 MSTORE PUSH1 0x4 SWAP2 DUP3 CALLDATASIZE LT ISZERO PUSH2 0x15 JUMPI PUSH0 DUP1 REVERT JUMPDEST PUSH0 SWAP3 DUP4 CALLDATALOAD PUSH1 0xE0 SHR SWAP2 DUP3 PUSH4 0xC7277DE EQ PUSH2 0x1275 JUMPI POP DUP2 PUSH4 0xF4EF8A6 EQ PUSH2 0x124D JUMPI DUP2 PUSH4 0x12261EE7 EQ PUSH2 0x1224 JUMPI DUP2 PUSH4 0x2E1283E3 EQ PUSH2 0x1205 JUMPI DUP2 PUSH4 0x3B1BAEFF EQ PUSH2 0xF5F JUMPI DUP2 PUSH4 0x402D8883 EQ PUSH2 0xA90 JUMPI DUP2 PUSH4 0x5257B566 EQ PUSH2 0xA71 JUMPI DUP2 PUSH4 0x64C4BEC0 EQ PUSH2 0xA52 JUMPI DUP2 PUSH4 0x654C6295 EQ PUSH2 0x9B6 JUMPI DUP2 PUSH4 0x6B6D1955 EQ PUSH2 0x996 JUMPI DUP2 PUSH4 0x8A4ADF24 EQ PUSH2 0x96D JUMPI DUP2 PUSH4 0x8DB57994 EQ PUSH2 0x81A JUMPI DUP2 PUSH4 0x95CB741D EQ PUSH2 0x783 JUMPI DUP2 PUSH4 0x9E9F669C EQ PUSH2 0x15F JUMPI DUP2 PUSH4 0xB2A9BB60 EQ PUSH2 0x18F JUMPI DUP2 PUSH4 0xC19D93FB EQ PUSH2 0x15F JUMPI POP DUP1 PUSH4 0xC51B9507 EQ PUSH2 0x137 JUMPI DUP1 PUSH4 0xEB0C4955 EQ PUSH2 0x114 JUMPI PUSH4 0xF4B01B18 EQ PUSH2 0xF3 JUMPI PUSH0 DUP1 REVERT JUMPDEST CALLVALUE PUSH2 0x110 JUMPI DUP2 PUSH1 0x3 NOT CALLDATASIZE ADD SLT PUSH2 0x110 JUMPI PUSH1 0x20 SWAP1 PUSH1 0x9 SLOAD SWAP1 MLOAD SWAP1 DUP2 MSTORE RETURN JUMPDEST POP DUP1 REVERT JUMPDEST POP CALLVALUE PUSH2 0x110 JUMPI DUP2 PUSH1 0x3 NOT CALLDATASIZE ADD SLT PUSH2 0x110 JUMPI PUSH1 0x20 SWAP1 PUSH2 0x130 PUSH2 0x1476 JUMP JUMPDEST SWAP1 MLOAD SWAP1 DUP2 MSTORE RETURN JUMPDEST POP CALLVALUE PUSH2 0x110 JUMPI DUP2 PUSH1 0x3 NOT CALLDATASIZE ADD SLT PUSH2 0x110 JUMPI PUSH1 0x2 SLOAD SWAP1 MLOAD PUSH1 0x1 PUSH1 0x1 PUSH1 0xA0 SHL SUB SWAP1 SWAP2 AND DUP2 MSTORE PUSH1 0x20 SWAP1 RETURN JUMPDEST DUP3 DUP5 CALLVALUE PUSH2 0x18C JUMPI DUP1 PUSH1 0x3 NOT CALLDATASIZE ADD SLT PUSH2 0x18C JUMPI POP PUSH1 0xFF PUSH2 0x188 SWAP3 SLOAD PUSH1 0xA0 SHR AND SWAP1 MLOAD SWAP2 DUP3 SWAP2 DUP3 PUSH2 0x129A JUMP JUMPDEST SUB SWAP1 RETURN JUMPDEST DUP1 REVERT JUMPDEST SWAP2 SWAP1 POP CALLVALUE PUSH2 0x4CC JUMPI DUP3 PUSH1 0x3 NOT CALLDATASIZE ADD SLT PUSH2 0x4CC JUMPI PUSH2 0x1AA PUSH2 0x12C1 JUMP JUMPDEST PUSH1 0xFF DUP3 SLOAD PUSH1 0xA0 SHR AND PUSH1 0x6 DUP2 LT ISZERO PUSH2 0x770 JUMPI PUSH1 0x1 SUB PUSH2 0x72D JUMPI CALLER ISZERO PUSH2 0x6EA JUMPI PUSH1 0x5 SLOAD PUSH1 0x1 PUSH1 0x1 PUSH1 0xA0 SHL SUB SWAP3 SWAP1 DUP4 AND SWAP1 CALLER DUP3 EQ PUSH2 0x6A7 JUMPI PUSH2 0x1E7 PUSH2 0x1476 JUMP JUMPDEST PUSH2 0x1F4 PUSH1 0x9 SLOAD SWAP2 DUP3 PUSH2 0x1377 JUMP JUMPDEST PUSH1 0x7 SLOAD DUP6 MLOAD PUSH4 0x6EB1769F PUSH1 0xE1 SHL DUP1 DUP3 MSTORE CALLER DUP7 DUP4 ADD SWAP1 DUP2 MSTORE ADDRESS PUSH1 0x20 DUP3 DUP2 ADD SWAP2 SWAP1 SWAP2 MSTORE SWAP8 SWAP4 DUP11 AND SWAP5 SWAP2 SWAP3 SWAP1 DUP9 SWAP1 DUP3 SWAP1 DUP2 SWAP1 PUSH1 0x40 ADD SUB DUP2 DUP9 GAS STATICCALL SWAP1 DUP2 ISZERO PUSH2 0x69D JUMPI DUP12 SWAP2 PUSH2 0x670 JUMPI JUMPDEST POP LT PUSH2 0x623 JUMPI PUSH1 0x6 SLOAD DUP8 MLOAD SWAP2 DUP3 MSTORE PUSH1 0x1 PUSH1 0x1 PUSH1 0xA0 SHL SUB SWAP1 SWAP3 AND DUP6 DUP3 ADD SWAP1 DUP2 MSTORE ADDRESS PUSH1 0x20 DUP3 ADD MSTORE SWAP1 SWAP2 DUP7 SWAP2 DUP4 SWAP2 DUP11 AND SWAP1 DUP3 SWAP1 DUP2 SWAP1 PUSH1 0x40 ADD SUB SWAP2 GAS STATICCALL SWAP1 DUP2 ISZERO PUSH2 0x619 JUMPI SWAP1 DUP4 SWAP2 DUP10 SWAP2 PUSH2 0x5E8 JUMPI JUMPDEST POP LT PUSH2 0x5A5 JUMPI SWAP1 DUP7 SWAP3 SWAP2 PUSH2 0x29E PUSH2 0x298 PUSH2 0x1476 JUMP JUMPDEST DUP4 PUSH2 0x1377 JUMP JUMPDEST PUSH2 0x2A6 PUSH2 0x1476 JUMP JUMPDEST DUP8 MLOAD PUSH4 0x23B872DD PUSH1 0xE0 SHL DUP1 DUP3 MSTORE CALLER DUP8 DUP4 ADD SWAP1 DUP2 MSTORE ADDRESS PUSH1 0x20 DUP3 ADD MSTORE PUSH1 0x40 DUP2 ADD SWAP5 SWAP1 SWAP5 MSTORE SWAP2 SWAP4 SWAP2 SWAP3 SWAP1 SWAP2 DUP9 SWAP2 DUP4 SWAP2 SWAP1 DUP3 SWAP1 DUP11 SWAP1 DUP3 SWAP1 PUSH1 0x60 ADD SUB SWAP3 GAS CALL DUP1 ISZERO PUSH2 0x59B JUMPI SWAP2 PUSH2 0x332 SWAP4 SWAP2 DUP9 SWAP4 PUSH2 0x57E JUMPI JUMPDEST POP DUP10 PUSH1 0x7 SLOAD AND SWAP1 DUP8 DUP12 PUSH1 0x3 SLOAD AND SWAP2 DUP12 MLOAD SWAP7 DUP8 SWAP6 DUP7 SWAP5 DUP6 SWAP4 DUP5 MSTORE CALLER DUP13 DUP6 ADD PUSH1 0x40 SWAP2 SWAP5 SWAP4 SWAP3 SWAP5 PUSH1 0x60 DUP3 ADD SWAP6 PUSH1 0x1 DUP1 PUSH1 0xA0 SHL SUB DUP1 SWAP3 AND DUP4 MSTORE AND PUSH1 0x20 DUP3 ADD MSTORE ADD MSTORE JUMP JUMPDEST SUB SWAP3 GAS CALL DUP1 ISZERO PUSH2 0x557 JUMPI PUSH2 0x561 JUMPI JUMPDEST POP PUSH1 0x7 SLOAD PUSH1 0x8 SLOAD DUP7 MLOAD PUSH4 0x95EA7B3 PUSH1 0xE0 SHL DUP2 MSTORE SWAP1 DUP9 AND PUSH1 0x1 PUSH1 0x1 PUSH1 0xA0 SHL SUB AND DUP5 DUP3 ADD SWAP1 DUP2 MSTORE PUSH1 0x20 DUP2 ADD DUP5 SWAP1 MSTORE SWAP1 SWAP2 DUP7 SWAP2 DUP4 SWAP2 DUP11 AND SWAP1 DUP3 SWAP1 DUP9 SWAP1 DUP3 SWAP1 PUSH1 0x40 ADD SUB SWAP3 GAS CALL DUP1 ISZERO PUSH2 0x557 JUMPI SWAP2 DUP6 SWAP2 DUP6 SWAP4 PUSH2 0x53A JUMPI JUMPDEST POP PUSH1 0x44 DUP9 PUSH1 0x8 SLOAD AND SWAP2 DUP9 MLOAD SWAP5 DUP6 SWAP4 DUP5 SWAP3 PUSH4 0x6E553F65 PUSH1 0xE0 SHL DUP5 MSTORE DUP9 DUP5 ADD MSTORE CALLER PUSH1 0x24 DUP5 ADD MSTORE GAS CALL DUP1 ISZERO PUSH2 0x4FD JUMPI SWAP1 DUP5 SWAP2 PUSH2 0x507 JUMPI JUMPDEST POP PUSH1 0x6 SLOAD PUSH1 0x9 SLOAD DUP7 MLOAD PUSH4 0xA9059CBB PUSH1 0xE0 SHL DUP2 MSTORE CALLER DUP6 DUP3 ADD SWAP1 DUP2 MSTORE PUSH1 0x20 DUP2 ADD SWAP3 SWAP1 SWAP3 MSTORE SWAP3 SWAP2 DUP4 SWAP2 DUP3 SWAP1 SUB PUSH1 0x40 ADD SWAP1 DUP3 SWAP1 DUP8 SWAP1 DUP12 AND GAS CALL DUP1 ISZERO PUSH2 0x4FD JUMPI PUSH2 0x4D0 JUMPI JUMPDEST POP PUSH1 0xE DUP1 SLOAD PUSH1 0x1 PUSH1 0x1 PUSH1 0xA0 SHL SUB NOT AND CALLER OR SWAP1 SSTORE TIMESTAMP PUSH1 0xF SSTORE DUP1 SLOAD PUSH1 0xFF PUSH1 0xA0 SHL NOT AND PUSH1 0x1 PUSH1 0xA1 SHL OR DUP2 SSTORE PUSH2 0x442 PUSH2 0x43A PUSH2 0x1476 JUMP JUMPDEST PUSH1 0x9 SLOAD PUSH2 0x1377 JUMP JUMPDEST SWAP5 PUSH1 0x3 SLOAD AND SWAP1 DUP2 EXTCODESIZE ISZERO PUSH2 0x4CC JUMPI DUP3 SWAP2 PUSH1 0x24 DUP4 SWAP3 DUP8 MLOAD SWAP5 DUP6 SWAP4 DUP5 SWAP3 PUSH4 0x2914526D PUSH1 0xE1 SHL DUP5 MSTORE ADDRESS SWAP1 DUP5 ADD MSTORE GAS CALL DUP1 ISZERO PUSH2 0x4C2 JUMPI PUSH2 0x4AA JUMPI JUMPDEST POP POP PUSH32 0x5150AB7694A22FBC01C642BC10316565247DF962FA3F0AC3B5D1A18BA45B485B SWAP2 MLOAD SWAP3 DUP4 MSTORE CALLER SWAP3 LOG2 PUSH1 0x1 DUP2 SSTORE DUP1 RETURN JUMPDEST PUSH2 0x4B3 SWAP1 PUSH2 0x1315 JUMP JUMPDEST PUSH2 0x4BE JUMPI DUP4 PUSH0 PUSH2 0x478 JUMP JUMPDEST DUP4 DUP1 REVERT JUMPDEST DUP5 MLOAD RETURNDATASIZE DUP5 DUP3 RETURNDATACOPY RETURNDATASIZE SWAP1 REVERT JUMPDEST DUP3 DUP1 REVERT JUMPDEST PUSH2 0x4EF SWAP1 DUP5 RETURNDATASIZE DUP7 GT PUSH2 0x4F6 JUMPI JUMPDEST PUSH2 0x4E7 DUP2 DUP4 PUSH2 0x133D JUMP JUMPDEST DUP2 ADD SWAP1 PUSH2 0x135F JUMP JUMPDEST POP PUSH0 PUSH2 0x407 JUMP JUMPDEST POP RETURNDATASIZE PUSH2 0x4DD JUMP JUMPDEST DUP6 MLOAD RETURNDATASIZE DUP6 DUP3 RETURNDATACOPY RETURNDATASIZE SWAP1 REVERT JUMPDEST SWAP1 DUP1 SWAP3 SWAP4 POP RETURNDATASIZE DUP4 GT PUSH2 0x533 JUMPI JUMPDEST PUSH2 0x51E DUP2 DUP4 PUSH2 0x133D JUMP JUMPDEST DUP2 ADD SUB SLT PUSH2 0x52F JUMPI DUP5 SWAP1 DUP3 PUSH0 PUSH2 0x3C7 JUMP JUMPDEST PUSH0 DUP1 REVERT JUMPDEST POP RETURNDATASIZE PUSH2 0x514 JUMP JUMPDEST PUSH2 0x550 SWAP1 DUP4 RETURNDATASIZE DUP6 GT PUSH2 0x4F6 JUMPI PUSH2 0x4E7 DUP2 DUP4 PUSH2 0x133D JUMP JUMPDEST POP PUSH0 PUSH2 0x393 JUMP JUMPDEST DUP7 MLOAD RETURNDATASIZE DUP7 DUP3 RETURNDATACOPY RETURNDATASIZE SWAP1 REVERT JUMPDEST PUSH2 0x577 SWAP1 DUP6 RETURNDATASIZE DUP8 GT PUSH2 0x4F6 JUMPI PUSH2 0x4E7 DUP2 DUP4 PUSH2 0x133D JUMP JUMPDEST POP PUSH0 PUSH2 0x341 JUMP JUMPDEST PUSH2 0x594 SWAP1 DUP5 RETURNDATASIZE DUP7 GT PUSH2 0x4F6 JUMPI PUSH2 0x4E7 DUP2 DUP4 PUSH2 0x133D JUMP JUMPDEST POP PUSH0 PUSH2 0x2F3 JUMP JUMPDEST DUP9 MLOAD RETURNDATASIZE DUP9 DUP3 RETURNDATACOPY RETURNDATASIZE SWAP1 REVERT JUMPDEST DUP5 MLOAD PUSH3 0x461BCD PUSH1 0xE5 SHL DUP2 MSTORE DUP1 DUP5 ADD DUP6 SWAP1 MSTORE PUSH1 0x1B PUSH1 0x24 DUP3 ADD MSTORE PUSH32 0x496E73756666696369656E74206C6F616E20616C6C6F77616E63650000000000 PUSH1 0x44 DUP3 ADD MSTORE PUSH1 0x64 SWAP1 REVERT JUMPDEST DUP1 SWAP3 POP DUP7 DUP1 SWAP3 POP RETURNDATASIZE DUP4 GT PUSH2 0x612 JUMPI JUMPDEST PUSH2 0x601 DUP2 DUP4 PUSH2 0x133D JUMP JUMPDEST DUP2 ADD SUB SLT PUSH2 0x52F JUMPI DUP3 SWAP1 MLOAD PUSH0 PUSH2 0x283 JUMP JUMPDEST POP RETURNDATASIZE PUSH2 0x5F7 JUMP JUMPDEST DUP7 MLOAD RETURNDATASIZE DUP11 DUP3 RETURNDATACOPY RETURNDATASIZE SWAP1 REVERT JUMPDEST DUP7 MLOAD PUSH3 0x461BCD PUSH1 0xE5 SHL DUP2 MSTORE DUP1 DUP7 ADD DUP8 SWAP1 MSTORE PUSH1 0x21 PUSH1 0x24 DUP3 ADD MSTORE PUSH32 0x496E73756666696369656E7420636F6C6C61746572616C20616C6C6F77616E63 PUSH1 0x44 DUP3 ADD MSTORE PUSH1 0x65 PUSH1 0xF8 SHL PUSH1 0x64 DUP3 ADD MSTORE PUSH1 0x84 SWAP1 REVERT JUMPDEST SWAP1 POP DUP8 DUP2 DUP2 RETURNDATASIZE DUP4 GT PUSH2 0x696 JUMPI JUMPDEST PUSH2 0x687 DUP2 DUP4 PUSH2 0x133D JUMP JUMPDEST DUP2 ADD SUB SLT PUSH2 0x52F JUMPI MLOAD PUSH0 PUSH2 0x239 JUMP JUMPDEST POP RETURNDATASIZE PUSH2 0x67D JUMP JUMPDEST DUP10 MLOAD RETURNDATASIZE DUP14 DUP3 RETURNDATACOPY RETURNDATASIZE SWAP1 REVERT JUMPDEST PUSH1 0x64 SWAP1 PUSH1 0x20 DUP5 MLOAD SWAP2 PUSH3 0x461BCD PUSH1 0xE5 SHL DUP4 MSTORE DUP3 ADD MSTORE PUSH1 0x19 PUSH1 0x24 DUP3 ADD MSTORE PUSH32 0x4C656E6465722063616E6E6F7420626520626F72726F77657200000000000000 PUSH1 0x44 DUP3 ADD MSTORE REVERT JUMPDEST SWAP1 PUSH1 0x20 PUSH1 0x64 SWAP3 MLOAD SWAP2 PUSH3 0x461BCD PUSH1 0xE5 SHL DUP4 MSTORE DUP3 ADD MSTORE PUSH1 0x18 PUSH1 0x24 DUP3 ADD MSTORE PUSH32 0x496E76616C696420626F72726F77657220616464726573730000000000000000 PUSH1 0x44 DUP3 ADD MSTORE REVERT JUMPDEST SWAP1 PUSH1 0x20 PUSH1 0x64 SWAP3 MLOAD SWAP2 PUSH3 0x461BCD PUSH1 0xE5 SHL DUP4 MSTORE DUP3 ADD MSTORE PUSH1 0x1A PUSH1 0x24 DUP3 ADD MSTORE PUSH32 0x4C6F616E206E6F7420726561647920746F206163746976617465000000000000 PUSH1 0x44 DUP3 ADD MSTORE REVERT JUMPDEST PUSH4 0x4E487B71 PUSH1 0xE0 SHL DUP5 MSTORE PUSH1 0x21 DUP4 MSTORE PUSH1 0x24 DUP5 REVERT JUMPDEST POP POP CALLVALUE PUSH2 0x110 JUMPI DUP2 PUSH1 0x3 NOT CALLDATASIZE ADD SLT PUSH2 0x110 JUMPI PUSH2 0x180 SWAP1 PUSH1 0x1 DUP1 PUSH1 0xA0 SHL SUB DUP1 PUSH1 0x5 SLOAD AND SWAP2 DUP2 PUSH1 0x6 SLOAD AND SWAP2 DUP1 PUSH1 0x7 SLOAD AND SWAP1 DUP1 PUSH1 0x8 SLOAD AND PUSH1 0x9 SLOAD PUSH1 0xA SLOAD PUSH1 0xB SLOAD SWAP2 DUP5 PUSH1 0xC SLOAD AND SWAP4 DUP6 PUSH1 0xD SLOAD AND SWAP6 PUSH1 0xE SLOAD AND SWAP7 PUSH1 0xF SLOAD SWAP9 PUSH1 0x10 SLOAD SWAP11 DUP2 MLOAD SWAP13 DUP14 MSTORE PUSH1 0x20 DUP14 ADD MSTORE DUP12 ADD MSTORE PUSH1 0x60 DUP11 ADD MSTORE PUSH1 0x80 DUP10 ADD MSTORE PUSH1 0xA0 DUP9 ADD MSTORE PUSH1 0xC0 DUP8 ADD MSTORE PUSH1 0xE0 DUP7 ADD MSTORE PUSH2 0x100 DUP6 ADD MSTORE PUSH2 0x120 DUP5 ADD MSTORE PUSH2 0x140 DUP4 ADD MSTORE PUSH2 0x160 DUP3 ADD MSTORE RETURN JUMPDEST SWAP1 POP CALLVALUE PUSH2 0x4CC JUMPI DUP3 PUSH1 0x3 NOT CALLDATASIZE ADD SLT PUSH2 0x4CC JUMPI PUSH2 0x834 PUSH2 0x12C1 JUMP JUMPDEST PUSH1 0xFF DUP2 SLOAD PUSH1 0xA0 SHR AND PUSH1 0x6 DUP2 LT ISZERO PUSH2 0x95A JUMPI PUSH2 0x918 JUMPI PUSH1 0x6 SLOAD PUSH1 0x5 SLOAD PUSH1 0x9 SLOAD DUP5 MLOAD PUSH4 0x23B872DD PUSH1 0xE0 SHL DUP2 MSTORE PUSH1 0x1 PUSH1 0x1 PUSH1 0xA0 SHL SUB SWAP3 DUP4 AND DUP6 DUP3 ADD SWAP1 DUP2 MSTORE ADDRESS PUSH1 0x20 DUP3 DUP2 ADD SWAP2 SWAP1 SWAP2 MSTORE PUSH1 0x40 DUP3 ADD SWAP4 SWAP1 SWAP4 MSTORE SWAP1 SWAP4 SWAP2 SWAP3 DUP5 SWAP3 AND SWAP1 DUP3 SWAP1 DUP9 SWAP1 DUP3 SWAP1 PUSH1 0x60 ADD SUB SWAP3 GAS CALL DUP1 ISZERO PUSH2 0x90B JUMPI SWAP2 PUSH32 0x9E71D2FB732E68272B7E74ECFD14638673C1D77E19A5D390A3FFFF054D57C44B SWAP4 SWAP2 PUSH1 0x20 SWAP4 PUSH2 0x8EE JUMPI JUMPDEST POP TIMESTAMP PUSH1 0x10 SSTORE DUP1 SLOAD PUSH1 0xFF PUSH1 0xA0 SHL NOT AND PUSH1 0x1 PUSH1 0xA0 SHL OR SWAP1 SSTORE PUSH1 0x9 SLOAD SWAP1 MLOAD SWAP1 DUP2 MSTORE LOG1 PUSH1 0x1 DUP2 SSTORE DUP1 RETURN JUMPDEST PUSH2 0x904 SWAP1 DUP5 RETURNDATASIZE DUP2 GT PUSH2 0x4F6 JUMPI PUSH2 0x4E7 DUP2 DUP4 PUSH2 0x133D JUMP JUMPDEST POP PUSH0 PUSH2 0x8C8 JUMP JUMPDEST POP POP POP MLOAD SWAP1 RETURNDATASIZE SWAP1 DUP3 RETURNDATACOPY RETURNDATASIZE SWAP1 REVERT JUMPDEST PUSH1 0x20 PUSH1 0x64 SWAP3 MLOAD SWAP2 PUSH3 0x461BCD PUSH1 0xE5 SHL DUP4 MSTORE DUP3 ADD MSTORE PUSH1 0x1B PUSH1 0x24 DUP3 ADD MSTORE PUSH32 0x4C6F616E206E6F7420696E20637265617461626C652073746174650000000000 PUSH1 0x44 DUP3 ADD MSTORE REVERT JUMPDEST PUSH4 0x4E487B71 PUSH1 0xE0 SHL DUP5 MSTORE PUSH1 0x21 DUP3 MSTORE PUSH1 0x24 DUP5 REVERT JUMPDEST POP POP CALLVALUE PUSH2 0x110 JUMPI DUP2 PUSH1 0x3 NOT CALLDATASIZE ADD SLT PUSH2 0x110 JUMPI PUSH1 0x3 SLOAD SWAP1 MLOAD PUSH1 0x1 PUSH1 0x1 PUSH1 0xA0 SHL SUB SWAP1 SWAP2 AND DUP2 MSTORE PUSH1 0x20 SWAP1 RETURN JUMPDEST POP POP CALLVALUE PUSH2 0x110 JUMPI DUP2 PUSH1 0x3 NOT CALLDATASIZE ADD SLT PUSH2 0x110 JUMPI PUSH1 0x20 SWAP1 PUSH2 0x130 PUSH2 0x43A PUSH2 0x1476 JUMP JUMPDEST DUP4 DUP4 CALLVALUE PUSH2 0x110 JUMPI PUSH1 0x20 SWAP3 DUP4 PUSH1 0x3 NOT CALLDATASIZE ADD SLT PUSH2 0x4CC JUMPI DUP1 CALLDATALOAD PUSH1 0x1 PUSH1 0x1 PUSH1 0xA0 SHL SUB DUP2 DUP2 AND SWAP2 DUP3 SWAP1 SUB PUSH2 0xA4E JUMPI SWAP1 PUSH1 0x24 DUP7 SWAP3 PUSH1 0x8 SLOAD AND SWAP4 DUP6 MLOAD SWAP5 DUP6 SWAP4 DUP5 SWAP3 PUSH4 0x70A08231 PUSH1 0xE0 SHL DUP5 MSTORE DUP4 ADD MSTORE GAS STATICCALL SWAP3 DUP4 ISZERO PUSH2 0xA43 JUMPI SWAP3 PUSH2 0xA14 JUMPI JUMPDEST POP MLOAD SWAP1 DUP2 MSTORE RETURN JUMPDEST SWAP1 SWAP2 POP DUP3 DUP2 DUP2 RETURNDATASIZE DUP4 GT PUSH2 0xA3C JUMPI JUMPDEST PUSH2 0xA2C DUP2 DUP4 PUSH2 0x133D JUMP JUMPDEST DUP2 ADD SUB SLT PUSH2 0x52F JUMPI MLOAD SWAP1 DUP4 PUSH2 0xA0D JUMP JUMPDEST POP RETURNDATASIZE PUSH2 0xA22 JUMP JUMPDEST DUP3 MLOAD SWAP1 RETURNDATASIZE SWAP1 DUP3 RETURNDATACOPY RETURNDATASIZE SWAP1 REVERT JUMPDEST DUP5 DUP1 REVERT JUMPDEST POP POP CALLVALUE PUSH2 0x110 JUMPI DUP2 PUSH1 0x3 NOT CALLDATASIZE ADD SLT PUSH2 0x110 JUMPI PUSH1 0x20 SWAP1 PUSH1 0xB SLOAD SWAP1 MLOAD SWAP1 DUP2 MSTORE RETURN JUMPDEST POP POP CALLVALUE PUSH2 0x110 JUMPI DUP2 PUSH1 0x3 NOT CALLDATASIZE ADD SLT PUSH2 0x110 JUMPI PUSH1 0x20 SWAP1 PUSH1 0xA SLOAD SWAP1 MLOAD SWAP1 DUP2 MSTORE RETURN JUMPDEST SWAP2 SWAP1 POP CALLVALUE PUSH2 0x4CC JUMPI DUP3 PUSH1 0x3 NOT CALLDATASIZE ADD SLT PUSH2 0x4CC JUMPI PUSH2 0xAAB PUSH2 0x12C1 JUMP JUMPDEST PUSH1 0xE SLOAD PUSH1 0x1 PUSH1 0x1 PUSH1 0xA0 SHL SUB SWAP2 SWAP1 DUP3 AND CALLER SUB PUSH2 0xF0B JUMPI PUSH1 0xFF DUP4 SLOAD PUSH1 0xA0 SHR AND PUSH1 0x6 DUP2 LT ISZERO PUSH2 0xEF8 JUMPI PUSH1 0x2 SUB PUSH2 0xE9F JUMPI PUSH2 0xAE3 PUSH2 0x43A PUSH2 0x1476 JUMP JUMPDEST SWAP2 PUSH2 0xAEC PUSH2 0x1476 JUMP JUMPDEST DUP4 SUB SWAP1 DUP4 DUP3 GT PUSH2 0xE8C JUMPI PUSH1 0x7 SLOAD DUP4 MLOAD PUSH4 0x6EB1769F PUSH1 0xE1 SHL DUP2 MSTORE CALLER DUP8 DUP3 ADD SWAP1 DUP2 MSTORE ADDRESS PUSH1 0x20 DUP3 DUP2 ADD SWAP2 SWAP1 SWAP2 MSTORE SWAP7 SWAP3 DUP5 AND SWAP3 SWAP2 SWAP1 DUP8 SWAP1 DUP3 SWAP1 DUP2 SWAP1 PUSH1 0x40 ADD SUB DUP2 DUP7 GAS STATICCALL SWAP1 DUP2 ISZERO PUSH2 0xDFA JUMPI SWAP1 DUP3 SWAP2 DUP11 SWAP2 PUSH2 0xE5B JUMPI JUMPDEST POP LT PUSH2 0xE04 JUMPI DUP5 MLOAD PUSH4 0x70A08231 PUSH1 0xE0 SHL DUP2 MSTORE CALLER DUP9 DUP3 ADD MSTORE DUP7 DUP2 PUSH1 0x24 DUP2 DUP7 GAS STATICCALL SWAP1 DUP2 ISZERO PUSH2 0xDFA JUMPI DUP10 SWAP2 PUSH2 0xDCD JUMPI JUMPDEST POP LT PUSH2 0xD78 JUMPI PUSH1 0x5 SLOAD DUP5 MLOAD PUSH4 0x23B872DD PUSH1 0xE0 SHL DUP2 MSTORE CALLER DUP9 DUP3 ADD SWAP1 DUP2 MSTORE SWAP2 DUP5 AND PUSH1 0x1 PUSH1 0x1 PUSH1 0xA0 SHL SUB AND PUSH1 0x20 DUP4 ADD MSTORE PUSH1 0x40 DUP3 ADD DUP6 SWAP1 MSTORE DUP9 SWAP5 SWAP4 SWAP3 SWAP1 SWAP2 DUP8 SWAP2 DUP4 SWAP2 DUP3 SWAP1 DUP9 SWAP1 DUP3 SWAP1 PUSH1 0x60 ADD SUB SWAP3 GAS CALL DUP1 ISZERO PUSH2 0xD51 JUMPI PUSH2 0xD5B JUMPI JUMPDEST POP DUP1 PUSH1 0x3 SLOAD AND DUP1 EXTCODESIZE ISZERO PUSH2 0x4BE JUMPI DUP5 MLOAD PUSH4 0x56F78A1D PUSH1 0xE0 SHL DUP2 MSTORE ADDRESS DUP9 DUP3 ADD SWAP1 DUP2 MSTORE CALLER PUSH1 0x20 DUP3 ADD MSTORE SWAP1 SWAP2 DUP6 SWAP2 DUP4 SWAP2 SWAP1 DUP3 SWAP1 DUP5 SWAP1 DUP3 SWAP1 PUSH1 0x40 ADD SUB SWAP3 GAS CALL DUP1 ISZERO PUSH2 0xD51 JUMPI SWAP1 DUP5 SWAP2 PUSH2 0xD3D JUMPI JUMPDEST POP POP PUSH1 0x8 SLOAD AND SWAP1 DUP4 MLOAD SWAP1 PUSH4 0x63737AC9 PUSH1 0xE1 SHL DUP3 MSTORE DUP7 DUP3 ADD MSTORE DUP5 DUP2 PUSH1 0x24 DUP2 DUP6 GAS STATICCALL SWAP1 DUP2 ISZERO PUSH2 0xD33 JUMPI SWAP1 DUP6 SWAP3 SWAP2 DUP5 SWAP2 PUSH2 0xCFE JUMPI JUMPDEST POP DUP5 MLOAD PUSH4 0x5D043B29 PUSH1 0xE1 SHL DUP2 MSTORE DUP8 DUP2 ADD SWAP2 DUP3 MSTORE CALLER PUSH1 0x20 DUP4 ADD DUP2 SWAP1 MSTORE PUSH1 0x40 DUP4 ADD MSTORE SWAP4 DUP5 SWAP3 SWAP2 DUP4 SWAP2 SWAP1 DUP3 SWAP1 PUSH1 0x60 ADD JUMPDEST SUB SWAP3 GAS CALL DUP1 ISZERO PUSH2 0xCF4 JUMPI PUSH2 0xCCA JUMPI JUMPDEST POP DUP3 SLOAD PUSH1 0xFF PUSH1 0xA0 SHL NOT AND PUSH1 0x1 PUSH1 0xA2 SHL OR SWAP1 SWAP3 SSTORE PUSH32 0x4002DBA848920F438092E08090CFB5FC47144C22704268B402C9553A1B5ADFE6 SWAP2 PUSH2 0xCB2 PUSH2 0x1398 JUMP JUMPDEST PUSH2 0xCBD PUSH2 0x43A PUSH2 0x1476 JUMP JUMPDEST SWAP1 MLOAD SWAP1 DUP2 MSTORE LOG1 PUSH1 0x1 DUP2 SSTORE DUP1 RETURN JUMPDEST DUP3 SWAP1 DUP2 RETURNDATASIZE DUP4 GT PUSH2 0xCED JUMPI JUMPDEST PUSH2 0xCDF DUP2 DUP4 PUSH2 0x133D JUMP JUMPDEST DUP2 ADD SUB SLT PUSH2 0x52F JUMPI PUSH0 PUSH2 0xC75 JUMP JUMPDEST POP RETURNDATASIZE PUSH2 0xCD5 JUMP JUMPDEST DUP3 MLOAD RETURNDATASIZE DUP8 DUP3 RETURNDATACOPY RETURNDATASIZE SWAP1 REVERT JUMPDEST SWAP4 POP POP SWAP1 DUP3 DUP2 RETURNDATASIZE DUP4 GT PUSH2 0xD2C JUMPI JUMPDEST PUSH2 0xD16 DUP2 DUP4 PUSH2 0x133D JUMP JUMPDEST DUP2 ADD SUB SLT PUSH2 0x52F JUMPI SWAP1 MLOAD DUP6 SWAP2 DUP5 SWAP2 PUSH2 0xC66 PUSH2 0xC39 JUMP JUMPDEST POP RETURNDATASIZE PUSH2 0xD0C JUMP JUMPDEST DUP5 MLOAD RETURNDATASIZE DUP6 DUP3 RETURNDATACOPY RETURNDATASIZE SWAP1 REVERT JUMPDEST PUSH2 0xD46 SWAP1 PUSH2 0x1315 JUMP JUMPDEST PUSH2 0x4CC JUMPI DUP3 PUSH0 PUSH2 0xC07 JUMP JUMPDEST DUP6 MLOAD RETURNDATASIZE DUP7 DUP3 RETURNDATACOPY RETURNDATASIZE SWAP1 REVERT JUMPDEST PUSH2 0xD71 SWAP1 DUP7 RETURNDATASIZE DUP9 GT PUSH2 0x4F6 JUMPI PUSH2 0x4E7 DUP2 DUP4 PUSH2 0x133D JUMP JUMPDEST POP PUSH0 PUSH2 0xBBF JUMP JUMPDEST DUP4 MLOAD PUSH3 0x461BCD PUSH1 0xE5 SHL DUP2 MSTORE DUP1 DUP8 ADD DUP7 SWAP1 MSTORE PUSH1 0x29 PUSH1 0x24 DUP3 ADD MSTORE PUSH32 0x496E73756666696369656E7420746F6B656E2062616C616E636520666F722072 PUSH1 0x44 DUP3 ADD MSTORE PUSH9 0x32B830BCB6B2B73A17 PUSH1 0xB9 SHL PUSH1 0x64 DUP3 ADD MSTORE PUSH1 0x84 SWAP1 REVERT JUMPDEST SWAP1 POP DUP7 DUP2 DUP2 RETURNDATASIZE DUP4 GT PUSH2 0xDF3 JUMPI JUMPDEST PUSH2 0xDE4 DUP2 DUP4 PUSH2 0x133D JUMP JUMPDEST DUP2 ADD SUB SLT PUSH2 0x52F JUMPI MLOAD PUSH0 PUSH2 0xB69 JUMP JUMPDEST POP RETURNDATASIZE PUSH2 0xDDA JUMP JUMPDEST DUP7 MLOAD RETURNDATASIZE DUP12 DUP3 RETURNDATACOPY RETURNDATASIZE SWAP1 REVERT JUMPDEST DUP5 MLOAD PUSH3 0x461BCD PUSH1 0xE5 SHL DUP2 MSTORE DUP1 DUP9 ADD DUP8 SWAP1 MSTORE PUSH1 0x2B PUSH1 0x24 DUP3 ADD MSTORE PUSH32 0x496E73756666696369656E7420746F6B656E20616C6C6F77616E636520666F72 PUSH1 0x44 DUP3 ADD MSTORE PUSH11 0x103932B830BCB6B2B73A17 PUSH1 0xA9 SHL PUSH1 0x64 DUP3 ADD MSTORE PUSH1 0x84 SWAP1 REVERT JUMPDEST DUP1 SWAP3 POP DUP9 DUP1 SWAP3 POP RETURNDATASIZE DUP4 GT PUSH2 0xE85 JUMPI JUMPDEST PUSH2 0xE74 DUP2 DUP4 PUSH2 0x133D JUMP JUMPDEST DUP2 ADD SUB SLT PUSH2 0x52F JUMPI DUP2 SWAP1 MLOAD PUSH0 PUSH2 0xB3C JUMP JUMPDEST POP RETURNDATASIZE PUSH2 0xE6A JUMP JUMPDEST PUSH4 0x4E487B71 PUSH1 0xE0 SHL DUP7 MSTORE PUSH1 0x11 DUP6 MSTORE PUSH1 0x24 DUP7 REVERT JUMPDEST MLOAD PUSH3 0x461BCD PUSH1 0xE5 SHL DUP2 MSTORE PUSH1 0x20 DUP2 DUP5 ADD MSTORE PUSH1 0x2E PUSH1 0x24 DUP3 ADD MSTORE PUSH32 0x4C6F616E206D7573742062652061637469766520746F2070726F636565642077 PUSH1 0x44 DUP3 ADD MSTORE PUSH14 0x34BA34103932B830BCB6B2B73A17 PUSH1 0x91 SHL PUSH1 0x64 DUP3 ADD MSTORE PUSH1 0x84 SWAP1 REVERT JUMPDEST PUSH4 0x4E487B71 PUSH1 0xE0 SHL DUP6 MSTORE PUSH1 0x21 DUP5 MSTORE PUSH1 0x24 DUP6 REVERT JUMPDEST MLOAD PUSH3 0x461BCD PUSH1 0xE5 SHL DUP2 MSTORE PUSH1 0x20 DUP2 DUP5 ADD MSTORE PUSH1 0x29 PUSH1 0x24 DUP3 ADD MSTORE PUSH32 0x4F6E6C792074686520626F72726F7765722063616E20696E6974696174652072 PUSH1 0x44 DUP3 ADD MSTORE PUSH9 0x32B830BCB6B2B73A17 PUSH1 0xB9 SHL PUSH1 0x64 DUP3 ADD MSTORE PUSH1 0x84 SWAP1 REVERT JUMPDEST DUP4 DUP4 CALLVALUE PUSH2 0x110 JUMPI DUP2 PUSH1 0x3 NOT CALLDATASIZE ADD SLT PUSH2 0x110 JUMPI DUP3 SLOAD PUSH1 0xFF DUP2 PUSH1 0xA0 SHR AND PUSH1 0x6 DUP2 LT ISZERO PUSH2 0x11F2 JUMPI PUSH1 0x2 SUB PUSH2 0x11BA JUMPI PUSH2 0xF99 PUSH1 0xF SLOAD PUSH1 0xB SLOAD SWAP1 PUSH2 0x1377 JUMP JUMPDEST TIMESTAMP LT ISZERO PUSH2 0xFA4 JUMPI DUP3 DUP1 RETURN JUMPDEST PUSH1 0xFF PUSH1 0xA0 SHL NOT AND PUSH1 0x3 PUSH1 0xA0 SHL OR DUP4 SSTORE PUSH1 0x8 SLOAD PUSH1 0xE SLOAD DUP3 MLOAD PUSH4 0x70A08231 PUSH1 0xE0 SHL DUP2 MSTORE PUSH1 0x1 PUSH1 0x1 PUSH1 0xA0 SHL SUB SWAP2 DUP3 AND DUP2 DUP8 ADD DUP2 SWAP1 MSTORE SWAP2 SWAP6 SWAP3 PUSH1 0x20 SWAP3 SWAP1 DUP8 AND DUP4 DUP4 PUSH1 0x24 DUP2 DUP5 GAS STATICCALL SWAP3 DUP4 ISZERO PUSH2 0x1181 JUMPI DUP8 SWAP4 PUSH2 0x118B JUMPI JUMPDEST POP DUP6 MLOAD SWAP3 PUSH4 0x63737AC9 PUSH1 0xE1 SHL DUP5 MSTORE DUP6 DUP5 ADD MSTORE DUP4 DUP4 PUSH1 0x24 DUP2 DUP5 GAS STATICCALL DUP1 ISZERO PUSH2 0x1181 JUMPI SWAP1 DUP5 SWAP3 SWAP2 DUP9 SWAP1 PUSH2 0x1148 JUMPI JUMPDEST PUSH1 0x5 SLOAD DUP9 MLOAD PUSH4 0x5D043B29 PUSH1 0xE1 SHL DUP2 MSTORE DUP9 DUP2 ADD SWAP3 DUP4 MSTORE PUSH1 0x1 PUSH1 0x1 PUSH1 0xA0 SHL SUB SWAP2 DUP13 AND DUP3 AND PUSH1 0x20 DUP5 ADD MSTORE SWAP4 AND PUSH1 0x40 DUP3 ADD MSTORE SWAP2 SWAP4 POP DUP4 SWAP2 DUP3 SWAP1 DUP10 SWAP1 DUP3 SWAP1 PUSH1 0x60 ADD JUMPDEST SUB SWAP3 GAS CALL DUP1 ISZERO PUSH2 0x113E JUMPI PUSH2 0x1115 JUMPI JUMPDEST POP POP DUP4 PUSH1 0x3 SLOAD AND DUP5 PUSH1 0x5 SLOAD AND SWAP2 DUP2 EXTCODESIZE ISZERO PUSH2 0xA4E JUMPI DUP4 MLOAD PUSH4 0x389E0067 PUSH1 0xE1 SHL DUP2 MSTORE ADDRESS SWAP2 DUP2 ADD SWAP2 DUP3 MSTORE PUSH1 0x1 PUSH1 0x1 PUSH1 0xA0 SHL SUB SWAP1 SWAP4 AND PUSH1 0x20 DUP3 ADD MSTORE SWAP2 SWAP3 SWAP2 DUP5 SWAP2 DUP5 SWAP2 DUP3 SWAP1 DUP5 SWAP1 DUP3 SWAP1 PUSH1 0x40 ADD SUB SWAP3 GAS CALL SWAP1 DUP2 ISZERO PUSH2 0x110C JUMPI POP PUSH2 0x10FD JUMPI JUMPDEST POP SWAP1 PUSH2 0x10CE PUSH2 0x1398 JUMP JUMPDEST PUSH1 0xE SLOAD AND PUSH32 0xF4E5CF42CBB1D0C6C91E16D925349FEB6C5D970652F6EC77B1FF1262F7284CD5 DUP3 DUP1 LOG2 DUP1 DUP3 DUP1 DUP3 DUP1 RETURN JUMPDEST PUSH2 0x1106 SWAP1 PUSH2 0x1315 JUMP JUMPDEST DUP3 PUSH2 0x10C4 JUMP JUMPDEST MLOAD RETURNDATASIZE DUP5 DUP3 RETURNDATACOPY RETURNDATASIZE SWAP1 REVERT JUMPDEST DUP2 RETURNDATASIZE DUP4 GT PUSH2 0x1137 JUMPI JUMPDEST PUSH2 0x1128 DUP2 DUP4 PUSH2 0x133D JUMP JUMPDEST DUP2 ADD SUB SLT PUSH2 0x4CC JUMPI DUP5 DUP1 PUSH2 0x106C JUMP JUMPDEST POP RETURNDATASIZE PUSH2 0x111E JUMP JUMPDEST DUP5 MLOAD RETURNDATASIZE DUP8 DUP3 RETURNDATACOPY RETURNDATASIZE SWAP1 REVERT JUMPDEST POP SWAP2 DUP4 DUP2 SWAP5 SWAP3 SWAP5 RETURNDATASIZE DUP4 GT PUSH2 0x117A JUMPI JUMPDEST PUSH2 0x1161 DUP2 DUP4 PUSH2 0x133D JUMP JUMPDEST DUP2 ADD SUB SLT PUSH2 0x1176 JUMPI SWAP2 DUP4 SWAP2 PUSH2 0x105D SWAP4 MLOAD PUSH2 0x1020 JUMP JUMPDEST DUP7 DUP1 REVERT JUMPDEST POP RETURNDATASIZE PUSH2 0x1157 JUMP JUMPDEST DUP7 MLOAD RETURNDATASIZE DUP10 DUP3 RETURNDATACOPY RETURNDATASIZE SWAP1 REVERT JUMPDEST SWAP1 SWAP3 POP DUP4 DUP2 DUP2 RETURNDATASIZE DUP4 GT PUSH2 0x11B3 JUMPI JUMPDEST PUSH2 0x11A3 DUP2 DUP4 PUSH2 0x133D JUMP JUMPDEST DUP2 ADD SUB SLT PUSH2 0x1176 JUMPI MLOAD SWAP2 DUP9 PUSH2 0xFF5 JUMP JUMPDEST POP RETURNDATASIZE PUSH2 0x1199 JUMP JUMPDEST DUP2 MLOAD PUSH3 0x461BCD PUSH1 0xE5 SHL DUP2 MSTORE PUSH1 0x20 DUP2 DUP7 ADD MSTORE PUSH1 0x12 PUSH1 0x24 DUP3 ADD MSTORE PUSH18 0x4C6F616E206973206E6F7420616374697665 PUSH1 0x70 SHL PUSH1 0x44 DUP3 ADD MSTORE PUSH1 0x64 SWAP1 REVERT JUMPDEST PUSH4 0x4E487B71 PUSH1 0xE0 SHL DUP5 MSTORE PUSH1 0x21 DUP6 MSTORE PUSH1 0x24 DUP5 REVERT JUMPDEST POP POP CALLVALUE PUSH2 0x110 JUMPI DUP2 PUSH1 0x3 NOT CALLDATASIZE ADD SLT PUSH2 0x110 JUMPI PUSH1 0x20 SWAP1 PUSH1 0x10 SLOAD SWAP1 MLOAD SWAP1 DUP2 MSTORE RETURN JUMPDEST POP POP CALLVALUE PUSH2 0x110 JUMPI DUP2 PUSH1 0x3 NOT CALLDATASIZE ADD SLT PUSH2 0x110 JUMPI PUSH1 0x1 SLOAD SWAP1 MLOAD PUSH1 0x1 PUSH1 0x1 PUSH1 0xA0 SHL SUB SWAP1 SWAP2 AND DUP2 MSTORE PUSH1 0x20 SWAP1 RETURN JUMPDEST SWAP1 POP CALLVALUE PUSH2 0x4CC JUMPI DUP3 PUSH1 0x3 NOT CALLDATASIZE ADD SLT PUSH2 0x4CC JUMPI SLOAD SWAP1 MLOAD PUSH1 0x1 PUSH1 0x1 PUSH1 0xA0 SHL SUB SWAP1 SWAP2 AND DUP2 MSTORE PUSH1 0x20 SWAP2 POP RETURN JUMPDEST DUP5 SWAP1 CALLVALUE PUSH2 0x110 JUMPI DUP2 PUSH1 0x3 NOT CALLDATASIZE ADD SLT PUSH2 0x110 JUMPI PUSH1 0x7 SLOAD PUSH1 0x1 PUSH1 0x1 PUSH1 0xA0 SHL SUB AND DUP2 MSTORE PUSH1 0x20 SWAP1 RETURN JUMPDEST SWAP2 SWAP1 PUSH1 0x20 DUP4 ADD SWAP3 PUSH1 0x6 DUP3 LT ISZERO PUSH2 0x12AD JUMPI MSTORE JUMP JUMPDEST PUSH4 0x4E487B71 PUSH1 0xE0 SHL PUSH0 MSTORE PUSH1 0x21 PUSH1 0x4 MSTORE PUSH1 0x24 PUSH0 REVERT JUMPDEST PUSH1 0x2 PUSH0 SLOAD EQ PUSH2 0x12D0 JUMPI PUSH1 0x2 PUSH0 SSTORE JUMP JUMPDEST PUSH1 0x40 MLOAD PUSH3 0x461BCD PUSH1 0xE5 SHL DUP2 MSTORE PUSH1 0x20 PUSH1 0x4 DUP3 ADD MSTORE PUSH1 0x1F PUSH1 0x24 DUP3 ADD MSTORE PUSH32 0x5265656E7472616E637947756172643A207265656E7472616E742063616C6C00 PUSH1 0x44 DUP3 ADD MSTORE PUSH1 0x64 SWAP1 REVERT JUMPDEST PUSH8 0xFFFFFFFFFFFFFFFF DUP2 GT PUSH2 0x1329 JUMPI PUSH1 0x40 MSTORE JUMP JUMPDEST PUSH4 0x4E487B71 PUSH1 0xE0 SHL PUSH0 MSTORE PUSH1 0x41 PUSH1 0x4 MSTORE PUSH1 0x24 PUSH0 REVERT JUMPDEST SWAP1 PUSH1 0x1F DUP1 NOT SWAP2 ADD AND DUP2 ADD SWAP1 DUP2 LT PUSH8 0xFFFFFFFFFFFFFFFF DUP3 GT OR PUSH2 0x1329 JUMPI PUSH1 0x40 MSTORE JUMP JUMPDEST SWAP1 DUP2 PUSH1 0x20 SWAP2 SUB SLT PUSH2 0x52F JUMPI MLOAD DUP1 ISZERO ISZERO DUP2 SUB PUSH2 0x52F JUMPI SWAP1 JUMP JUMPDEST SWAP2 SWAP1 DUP3 ADD DUP1 SWAP3 GT PUSH2 0x1384 JUMPI JUMP JUMPDEST PUSH4 0x4E487B71 PUSH1 0xE0 SHL PUSH0 MSTORE PUSH1 0x11 PUSH1 0x4 MSTORE PUSH1 0x24 PUSH0 REVERT JUMPDEST PUSH1 0x4 DUP1 SLOAD PUSH1 0xFF PUSH1 0xA0 SHL NOT AND PUSH1 0x5 PUSH1 0xA0 SHL OR SWAP1 SSTORE PUSH1 0x2 SLOAD PUSH1 0x1 PUSH1 0x1 PUSH1 0xA0 SHL SUB SWAP1 PUSH0 SWAP1 DUP3 AND DUP1 EXTCODESIZE ISZERO PUSH2 0x110 JUMPI DUP2 DUP1 SWAP2 PUSH1 0x24 PUSH1 0x40 MLOAD DUP1 SWAP5 DUP2 SWAP4 PUSH4 0x7E72C7D7 PUSH1 0xE0 SHL DUP4 MSTORE ADDRESS PUSH1 0x4 DUP5 ADD MSTORE GAS CALL DUP1 ISZERO PUSH2 0x145C JUMPI PUSH2 0x1467 JUMPI JUMPDEST POP SWAP1 PUSH1 0x3 SLOAD AND DUP1 EXTCODESIZE ISZERO PUSH2 0x110 JUMPI DUP2 DUP1 SWAP2 PUSH1 0x24 PUSH1 0x40 MLOAD DUP1 SWAP5 DUP2 SWAP4 PUSH4 0x38E270ED PUSH1 0xE0 SHL DUP4 MSTORE ADDRESS PUSH1 0x4 DUP5 ADD MSTORE GAS CALL DUP1 ISZERO PUSH2 0x145C JUMPI PUSH2 0x1448 JUMPI JUMPDEST POP DUP1 PUSH32 0x409FCED1B85AE32A29FB1E18894D8361A5F2653DC27ADF7102D86175C2901D7C SWAP2 LOG1 JUMP JUMPDEST PUSH2 0x1452 DUP3 SWAP2 PUSH2 0x1315 JUMP JUMPDEST PUSH2 0x18C JUMPI PUSH0 PUSH2 0x1421 JUMP JUMPDEST PUSH1 0x40 MLOAD RETURNDATASIZE DUP5 DUP3 RETURNDATACOPY RETURNDATASIZE SWAP1 REVERT JUMPDEST PUSH2 0x1470 SWAP1 PUSH2 0x1315 JUMP JUMPDEST PUSH0 PUSH2 0x13EB JUMP JUMPDEST PUSH1 0xD SLOAD PUSH1 0x9 SLOAD PUSH1 0xA SLOAD PUSH1 0x40 MLOAD PUSH4 0xEFDD7C07 PUSH1 0xE0 SHL DUP2 MSTORE PUSH1 0x4 DUP2 ADD SWAP3 SWAP1 SWAP3 MSTORE PUSH1 0x24 DUP3 ADD MSTORE SWAP1 PUSH1 0x20 SWAP1 DUP3 SWAP1 PUSH1 0x44 SWAP1 DUP3 SWAP1 PUSH1 0x1 PUSH1 0x1 PUSH1 0xA0 SHL SUB AND GAS STATICCALL SWAP1 DUP2 ISZERO PUSH2 0x14EE JUMPI PUSH0 SWAP2 PUSH2 0x14C0 JUMPI POP SWAP1 JUMP JUMPDEST SWAP1 PUSH1 0x20 DUP3 RETURNDATASIZE DUP3 GT PUSH2 0x14E6 JUMPI JUMPDEST DUP2 PUSH2 0x14D9 PUSH1 0x20 SWAP4 DUP4 PUSH2 0x133D JUMP JUMPDEST DUP2 ADD SUB SLT PUSH2 0x18C JUMPI POP MLOAD SWAP1 JUMP JUMPDEST RETURNDATASIZE SWAP2 POP PUSH2 0x14CC JUMP JUMPDEST PUSH1 0x40 MLOAD RETURNDATASIZE PUSH0 DUP3 RETURNDATACOPY RETURNDATASIZE SWAP1 REVERT INVALID LOG2 PUSH5 0x6970667358 0x22 SLT KECCAK256 PUSH14 0x9C4945CD58932995304704A2C73 0x26 SMOD PUSH16 0x78CFDBC5F86F17047661021DE0DC6473 PUSH16 0x6C634300081400330000000000000000 "
		},
		"gasEstimates": {
			"creation": {
				"codeDepositCost": "1084600",
				"executionCost": "infinite",
				"totalCost": "infinite"
			},
			"external": {
				"activateLoan()": "infinite",
				"calculateInterest()": "infinite",
				"calculateRequiredCollateral()": "infinite",
				"checkAndHandleDefault()": "infinite",
				"fundLoan()": "infinite",
				"getCollateralAmount(address)": "infinite",
				"getFundedBlock()": "2345",
				"getInterestRate()": "2411",
				"getLoanAmount()": "2670",
				"getLoanState()": "2659",
				"getRepaymentPeriod()": "2433",
				"getRepaymentToken()": "2288",
				"loanDetails()": "25919",
				"permit2()": "2344",
				"poolOrganizer()": "2652",
				"repay()": "infinite",
				"rewardManager()": "2322",
				"state()": "2703",
				"vaultManager()": "2520"
			},
			"internal": {
				"_checkPreconditions()": "infinite",
				"_closeLoan()": "infinite",
				"_disburseLoan()": "infinite",
				"_finalizeActivation()": "infinite",
				"_handleCollateral()": "infinite",
				"_handleDefault()": "infinite",
				"_isPastDue()": "infinite",
				"_redeemCollateralToLender()": "infinite",
				"_refundRemainingInterest()": "infinite",
				"_releaseCollateral(uint256)": "infinite",
				"_transferFunds(address,uint256)": "infinite",
				"_transitionToClosed()": "infinite",
				"_updateLoanStateToRepaid()": "infinite",
				"_validateRepayment(uint256)": "infinite"
			}
		},
		"methodIdentifiers": {
			"activateLoan()": "b2a9bb60",
			"calculateInterest()": "eb0c4955",
			"calculateRequiredCollateral()": "6b6d1955",
			"checkAndHandleDefault()": "3b1baeff",
			"fundLoan()": "8db57994",
			"getCollateralAmount(address)": "654c6295",
			"getFundedBlock()": "2e1283e3",
			"getInterestRate()": "5257b566",
			"getLoanAmount()": "f4b01b18",
			"getLoanState()": "9e9f669c",
			"getRepaymentPeriod()": "64c4bec0",
			"getRepaymentToken()": "0c7277de",
			"loanDetails()": "95cb741d",
			"permit2()": "12261ee7",
			"poolOrganizer()": "c51b9507",
			"repay()": "402d8883",
			"rewardManager()": "0f4ef8a6",
			"state()": "c19d93fb",
			"vaultManager()": "8a4adf24"
		}
	},
	"abi": [
		{
			"inputs": [
				{
					"internalType": "address",
					"name": "lender",
					"type": "address"
				},
				{
					"internalType": "contract IERC20",
					"name": "loanTokenAddress",
					"type": "address"
				},
				{
					"internalType": "contract IERC20",
					"name": "repaymentTokenAddress",
					"type": "address"
				},
				{
					"internalType": "address",
					"name": "collateralVaultAddress",
					"type": "address"
				},
				{
					"internalType": "uint256",
					"name": "loanAmount",
					"type": "uint256"
				},
				{
					"internalType": "uint256",
					"name": "interestRate",
					"type": "uint256"
				},
				{
					"internalType": "uint256",
					"name": "repaymentPeriodInDays",
					"type": "uint256"
				},
				{
					"internalType": "contract IInterestModel",
					"name": "interestModel",
					"type": "address"
				},
				{
					"internalType": "contract IPermit2",
					"name": "_permit2",
					"type": "address"
				},
				{
					"internalType": "address",
					"name": "poolOrganizerAddress",
					"type": "address"
				},
				{
					"internalType": "address",
					"name": "vaultManagerAddress",
					"type": "address"
				},
				{
					"internalType": "address",
					"name": "rewardManagerAddress",
					"type": "address"
				}
			],
			"stateMutability": "nonpayable",
			"type": "constructor"
		},
		{
			"anonymous": false,
			"inputs": [
				{
					"indexed": false,
					"internalType": "uint256",
					"name": "collateralAmount",
					"type": "uint256"
				}
			],
			"name": "CollateralFunded",
			"type": "event"
		},
		{
			"anonymous": false,
			"inputs": [
				{
					"indexed": true,
					"internalType": "address",
					"name": "borrower",
					"type": "address"
				},
				{
					"indexed": false,
					"internalType": "uint256",
					"name": "collateralAmount",
					"type": "uint256"
				}
			],
			"name": "LoanActivated",
			"type": "event"
		},
		{
			"anonymous": false,
			"inputs": [],
			"name": "LoanClosed",
			"type": "event"
		},
		{
			"anonymous": false,
			"inputs": [
				{
					"indexed": true,
					"internalType": "address",
					"name": "borrower",
					"type": "address"
				}
			],
			"name": "LoanDefaulted",
			"type": "event"
		},
		{
			"anonymous": false,
			"inputs": [
				{
					"indexed": false,
					"internalType": "uint256",
					"name": "loanAmount",
					"type": "uint256"
				}
			],
			"name": "LoanFunded",
			"type": "event"
		},
		{
			"anonymous": false,
			"inputs": [
				{
					"indexed": true,
					"internalType": "address",
					"name": "lender",
					"type": "address"
				},
				{
					"indexed": false,
					"internalType": "uint256",
					"name": "loanAmount",
					"type": "uint256"
				},
				{
					"indexed": false,
					"internalType": "contract IERC20",
					"name": "loanToken",
					"type": "address"
				},
				{
					"indexed": false,
					"internalType": "contract IERC20",
					"name": "repaymentToken",
					"type": "address"
				}
			],
			"name": "LoanOfferCreated",
			"type": "event"
		},
		{
			"anonymous": false,
			"inputs": [
				{
					"indexed": false,
					"internalType": "uint256",
					"name": "amountRepaid",
					"type": "uint256"
				}
			],
			"name": "RepaymentMade",
			"type": "event"
		},
		{
			"inputs": [],
			"name": "activateLoan",
			"outputs": [],
			"stateMutability": "nonpayable",
			"type": "function"
		},
		{
			"inputs": [],
			"name": "calculateInterest",
			"outputs": [
				{
					"internalType": "uint256",
					"name": "",
					"type": "uint256"
				}
			],
			"stateMutability": "view",
			"type": "function"
		},
		{
			"inputs": [],
			"name": "calculateRequiredCollateral",
			"outputs": [
				{
					"internalType": "uint256",
					"name": "",
					"type": "uint256"
				}
			],
			"stateMutability": "view",
			"type": "function"
		},
		{
			"inputs": [],
			"name": "checkAndHandleDefault",
			"outputs": [],
			"stateMutability": "nonpayable",
			"type": "function"
		},
		{
			"inputs": [],
			"name": "fundLoan",
			"outputs": [],
			"stateMutability": "nonpayable",
			"type": "function"
		},
		{
			"inputs": [
				{
					"internalType": "address",
					"name": "user",
					"type": "address"
				}
			],
			"name": "getCollateralAmount",
			"outputs": [
				{
					"internalType": "uint256",
					"name": "",
					"type": "uint256"
				}
			],
			"stateMutability": "view",
			"type": "function"
		},
		{
			"inputs": [],
			"name": "getFundedBlock",
			"outputs": [
				{
					"internalType": "uint256",
					"name": "",
					"type": "uint256"
				}
			],
			"stateMutability": "view",
			"type": "function"
		},
		{
			"inputs": [],
			"name": "getInterestRate",
			"outputs": [
				{
					"internalType": "uint256",
					"name": "",
					"type": "uint256"
				}
			],
			"stateMutability": "view",
			"type": "function"
		},
		{
			"inputs": [],
			"name": "getLoanAmount",
			"outputs": [
				{
					"internalType": "uint256",
					"name": "",
					"type": "uint256"
				}
			],
			"stateMutability": "view",
			"type": "function"
		},
		{
			"inputs": [],
			"name": "getLoanState",
			"outputs": [
				{
					"internalType": "enum TuliaPool.LoanState",
					"name": "",
					"type": "uint8"
				}
			],
			"stateMutability": "view",
			"type": "function"
		},
		{
			"inputs": [],
			"name": "getRepaymentPeriod",
			"outputs": [
				{
					"internalType": "uint256",
					"name": "",
					"type": "uint256"
				}
			],
			"stateMutability": "view",
			"type": "function"
		},
		{
			"inputs": [],
			"name": "getRepaymentToken",
			"outputs": [
				{
					"internalType": "contract IERC20",
					"name": "",
					"type": "address"
				}
			],
			"stateMutability": "view",
			"type": "function"
		},
		{
			"inputs": [],
			"name": "loanDetails",
			"outputs": [
				{
					"internalType": "address",
					"name": "lender",
					"type": "address"
				},
				{
					"internalType": "contract IERC20",
					"name": "loanToken",
					"type": "address"
				},
				{
					"internalType": "contract IERC20",
					"name": "repaymentToken",
					"type": "address"
				},
				{
					"internalType": "contract TuliaVault",
					"name": "collateralVault",
					"type": "address"
				},
				{
					"internalType": "uint256",
					"name": "loanAmount",
					"type": "uint256"
				},
				{
					"internalType": "uint256",
					"name": "interestRate",
					"type": "uint256"
				},
				{
					"internalType": "uint256",
					"name": "repaymentPeriod",
					"type": "uint256"
				},
				{
					"internalType": "contract IVaultManager",
					"name": "vaultManager",
					"type": "address"
				},
				{
					"internalType": "contract IInterestModel",
					"name": "interestModel",
					"type": "address"
				},
				{
					"internalType": "address",
					"name": "borrower",
					"type": "address"
				},
				{
					"internalType": "uint256",
					"name": "startBlock",
					"type": "uint256"
				},
				{
					"internalType": "uint256",
					"name": "fundedBlock",
					"type": "uint256"
				}
			],
			"stateMutability": "view",
			"type": "function"
		},
		{
			"inputs": [],
			"name": "permit2",
			"outputs": [
				{
					"internalType": "contract IPermit2",
					"name": "",
					"type": "address"
				}
			],
			"stateMutability": "view",
			"type": "function"
		},
		{
			"inputs": [],
			"name": "poolOrganizer",
			"outputs": [
				{
					"internalType": "contract IPoolOrganizer",
					"name": "",
					"type": "address"
				}
			],
			"stateMutability": "view",
			"type": "function"
		},
		{
			"inputs": [],
			"name": "repay",
			"outputs": [],
			"stateMutability": "nonpayable",
			"type": "function"
		},
		{
			"inputs": [],
			"name": "rewardManager",
			"outputs": [
				{
					"internalType": "contract IRewardManager",
					"name": "",
					"type": "address"
				}
			],
			"stateMutability": "view",
			"type": "function"
		},
		{
			"inputs": [],
			"name": "state",
			"outputs": [
				{
					"internalType": "enum TuliaPool.LoanState",
					"name": "",
					"type": "uint8"
				}
			],
			"stateMutability": "view",
			"type": "function"
		},
		{
			"inputs": [],
			"name": "vaultManager",
			"outputs": [
				{
					"internalType": "contract IVaultManager",
					"name": "",
					"type": "address"
				}
			],
			"stateMutability": "view",
			"type": "function"
		}
	]
}