{
	"data": {
		"bytecode": {
			"linkReferences": {},
			"object": "6080806040523461001a5760015f55610846908161001f8239f35b5f80fdfe6080604081815260049081361015610015575f80fd5b5f92833560e01c9081632552aa1f1461062d575080635997bb37146106115780637286e5e51461053a5780637e72c7d714610482578063978e08d714610334578063cf172403146102ec578063e5c8c572146101f25763ef5cfb8c14610079575f80fd5b346101ee576020806003193601126101ea57610093610665565b60028554146101a857600285556001600160a01b0390811680865260018084528487209081018054929692939190841561016f57859288928a60449355541693898851958694859363a9059cbb60e01b85528401528760248401525af180156101655761012a575b507f106f923f993c2149d49b4255ff723acafa1f2d94393f561d3eda32ae348f72419251908152a26001815580f35b8281813d831161015e575b61013f81836106b0565b8101031261015a575180151503610156575f6100fb565b8480fd5b8580fd5b503d610135565b84513d88823e3d90fd5b865162461bcd60e51b815280850187905260136024820152724e6f207265776172647320746f20636c61696d60681b6044820152606490fd5b50905162461bcd60e51b815291820152601f60248201527f5265656e7472616e637947756172643a207265656e7472616e742063616c6c006044820152606490fd5b8380fd5b8280fd5b5090346101ee576102023661067f565b6001600160a01b0391821693919084156102a9571691821561026757508284526001602090815281852080546001600160a01b0319168417905590519182527f327ea7ac6c8d64c471a5261e5af88d6da3caeb804a8a5f96f1c335815a4f331d91a280f35b6020606492519162461bcd60e51b8352820152601b60248201527f52657761726420746f6b656e2063616e6e6f74206265207a65726f00000000006044820152fd5b825162461bcd60e51b8152602081860152601b60248201527f506f6f6c20616464726573732063616e6e6f74206265207a65726f00000000006044820152606490fd5b508234610331576020366003190112610331576001600160a01b0390600190839083610316610665565b16815282602052209182541691015482519182526020820152f35b80fd5b5082903461047e576020806003193601126101ee576001600160a01b03610359610665565b169180516327a7d9a760e21b815282818781875afa90811561047457859161043e575b50600681101561042b576001036103f257610396836106e6565b90838552600183526001818620018054908382018092116103df577f578afab8065b30a5e9827120e4905b8a1810e180d2f793ca54af6f7633f4e57a959697505551908152a280f35b634e487b7160e01b875260118852602487fd5b5162461bcd60e51b8152808501919091526013602482015272506f6f6c206973206e6f742070656e64696e6760681b6044820152606490fd5b634e487b7160e01b855260218652602485fd5b90508281813d831161046d575b61045581836106b0565b8101031261015657516006811015610156578661037c565b503d61044b565b82513d87823e3d90fd5b5080fd5b50346101ee5760203660031901126101ee576001600160a01b036104a4610665565b169182156104ec5750816020917f334d0b2111287dfddebe4b4c1c5af3ae644909d7fcd024377bf601e236ed5abb93855260018352846001828220828155015551908152a180f35b6020608492519162461bcd60e51b8352820152602360248201527f4e6f20706f6f6c207265676973746572656420666f722074686973206164647260448201526265737360e81b6064820152fd5b5082903461047e5761054b3661067f565b916001600160a01b03918216919082151580610606575b156105d05780519381850185811067ffffffffffffffff8211176105bd5792829160019594829452168552602085019286845286528360205285209351166bffffffffffffffffffffffff60a01b8454161783555191015580f35b634e487b7160e01b875260418852602487fd5b5162461bcd60e51b81526020818701526011602482015270496e76616c69642061646472657373657360781b6044820152606490fd5b508184161515610562565b83823461047e578160031936011261047e576020905160648152f35b925050346101ee5760203660031901126101ee57602092600191906001600160a01b03610658610665565b1681528285522001548152f35b600435906001600160a01b038216820361067b57565b5f80fd5b604090600319011261067b576001600160a01b0390600435828116810361067b5791602435908116810361067b5790565b90601f8019910116810190811067ffffffffffffffff8211176106d257604052565b634e487b7160e01b5f52604160045260245ffd5b604051632e1283e360e01b81526020916001600160a01b0316908281600481855afa9081156107c7575f916107e3575b50801580156107d9575b6107d257430391438311610787578060049260405193848092631e96036360e31b82525afa9081156107c7575f9161079b575b5090508181029181830414901517156107875760648102908082046064149015171561078757670de0b6b3a7640000900490565b634e487b7160e01b5f52601160045260245ffd5b82813d83116107c0575b6107af81836106b0565b81010312610331575051805f610753565b503d6107a5565b6040513d5f823e3d90fd5b5050505f90565b5080431115610720565b908382813d8311610809575b6107f981836106b0565b810103126103315750515f610716565b503d6107ef56fea2646970667358221220dc69f6dc89d4774d93ccfe3d9519511e613d4632fdf433fa0fe24346b2f5c15c64736f6c63430008140033",
			"opcodes": "PUSH1 0x80 DUP1 PUSH1 0x40 MSTORE CALLVALUE PUSH2 0x1A JUMPI PUSH1 0x1 PUSH0 SSTORE PUSH2 0x846 SWAP1 DUP2 PUSH2 0x1F DUP3 CODECOPY RETURN JUMPDEST PUSH0 DUP1 REVERT INVALID PUSH1 0x80 PUSH1 0x40 DUP2 DUP2 MSTORE PUSH1 0x4 SWAP1 DUP2 CALLDATASIZE LT ISZERO PUSH2 0x15 JUMPI PUSH0 DUP1 REVERT JUMPDEST PUSH0 SWAP3 DUP4 CALLDATALOAD PUSH1 0xE0 SHR SWAP1 DUP2 PUSH4 0x2552AA1F EQ PUSH2 0x62D JUMPI POP DUP1 PUSH4 0x5997BB37 EQ PUSH2 0x611 JUMPI DUP1 PUSH4 0x7286E5E5 EQ PUSH2 0x53A JUMPI DUP1 PUSH4 0x7E72C7D7 EQ PUSH2 0x482 JUMPI DUP1 PUSH4 0x978E08D7 EQ PUSH2 0x334 JUMPI DUP1 PUSH4 0xCF172403 EQ PUSH2 0x2EC JUMPI DUP1 PUSH4 0xE5C8C572 EQ PUSH2 0x1F2 JUMPI PUSH4 0xEF5CFB8C EQ PUSH2 0x79 JUMPI PUSH0 DUP1 REVERT JUMPDEST CALLVALUE PUSH2 0x1EE JUMPI PUSH1 0x20 DUP1 PUSH1 0x3 NOT CALLDATASIZE ADD SLT PUSH2 0x1EA JUMPI PUSH2 0x93 PUSH2 0x665 JUMP JUMPDEST PUSH1 0x2 DUP6 SLOAD EQ PUSH2 0x1A8 JUMPI PUSH1 0x2 DUP6 SSTORE PUSH1 0x1 PUSH1 0x1 PUSH1 0xA0 SHL SUB SWAP1 DUP2 AND DUP1 DUP7 MSTORE PUSH1 0x1 DUP1 DUP5 MSTORE DUP5 DUP8 KECCAK256 SWAP1 DUP2 ADD DUP1 SLOAD SWAP3 SWAP7 SWAP3 SWAP4 SWAP2 SWAP1 DUP5 ISZERO PUSH2 0x16F JUMPI DUP6 SWAP3 DUP9 SWAP3 DUP11 PUSH1 0x44 SWAP4 SSTORE SLOAD AND SWAP4 DUP10 DUP9 MLOAD SWAP6 DUP7 SWAP5 DUP6 SWAP4 PUSH4 0xA9059CBB PUSH1 0xE0 SHL DUP6 MSTORE DUP5 ADD MSTORE DUP8 PUSH1 0x24 DUP5 ADD MSTORE GAS CALL DUP1 ISZERO PUSH2 0x165 JUMPI PUSH2 0x12A JUMPI JUMPDEST POP PUSH32 0x106F923F993C2149D49B4255FF723ACAFA1F2D94393F561D3EDA32AE348F7241 SWAP3 MLOAD SWAP1 DUP2 MSTORE LOG2 PUSH1 0x1 DUP2 SSTORE DUP1 RETURN JUMPDEST DUP3 DUP2 DUP2 RETURNDATASIZE DUP4 GT PUSH2 0x15E JUMPI JUMPDEST PUSH2 0x13F DUP2 DUP4 PUSH2 0x6B0 JUMP JUMPDEST DUP2 ADD SUB SLT PUSH2 0x15A JUMPI MLOAD DUP1 ISZERO ISZERO SUB PUSH2 0x156 JUMPI PUSH0 PUSH2 0xFB JUMP JUMPDEST DUP5 DUP1 REVERT JUMPDEST DUP6 DUP1 REVERT JUMPDEST POP RETURNDATASIZE PUSH2 0x135 JUMP JUMPDEST DUP5 MLOAD RETURNDATASIZE DUP9 DUP3 RETURNDATACOPY RETURNDATASIZE SWAP1 REVERT JUMPDEST DUP7 MLOAD PUSH3 0x461BCD PUSH1 0xE5 SHL DUP2 MSTORE DUP1 DUP6 ADD DUP8 SWAP1 MSTORE PUSH1 0x13 PUSH1 0x24 DUP3 ADD MSTORE PUSH19 0x4E6F207265776172647320746F20636C61696D PUSH1 0x68 SHL PUSH1 0x44 DUP3 ADD MSTORE PUSH1 0x64 SWAP1 REVERT JUMPDEST POP SWAP1 MLOAD PUSH3 0x461BCD PUSH1 0xE5 SHL DUP2 MSTORE SWAP2 DUP3 ADD MSTORE PUSH1 0x1F PUSH1 0x24 DUP3 ADD MSTORE PUSH32 0x5265656E7472616E637947756172643A207265656E7472616E742063616C6C00 PUSH1 0x44 DUP3 ADD MSTORE PUSH1 0x64 SWAP1 REVERT JUMPDEST DUP4 DUP1 REVERT JUMPDEST DUP3 DUP1 REVERT JUMPDEST POP SWAP1 CALLVALUE PUSH2 0x1EE JUMPI PUSH2 0x202 CALLDATASIZE PUSH2 0x67F JUMP JUMPDEST PUSH1 0x1 PUSH1 0x1 PUSH1 0xA0 SHL SUB SWAP2 DUP3 AND SWAP4 SWAP2 SWAP1 DUP5 ISZERO PUSH2 0x2A9 JUMPI AND SWAP2 DUP3 ISZERO PUSH2 0x267 JUMPI POP DUP3 DUP5 MSTORE PUSH1 0x1 PUSH1 0x20 SWAP1 DUP2 MSTORE DUP2 DUP6 KECCAK256 DUP1 SLOAD PUSH1 0x1 PUSH1 0x1 PUSH1 0xA0 SHL SUB NOT AND DUP5 OR SWAP1 SSTORE SWAP1 MLOAD SWAP2 DUP3 MSTORE PUSH32 0x327EA7AC6C8D64C471A5261E5AF88D6DA3CAEB804A8A5F96F1C335815A4F331D SWAP2 LOG2 DUP1 RETURN JUMPDEST PUSH1 0x20 PUSH1 0x64 SWAP3 MLOAD SWAP2 PUSH3 0x461BCD PUSH1 0xE5 SHL DUP4 MSTORE DUP3 ADD MSTORE PUSH1 0x1B PUSH1 0x24 DUP3 ADD MSTORE PUSH32 0x52657761726420746F6B656E2063616E6E6F74206265207A65726F0000000000 PUSH1 0x44 DUP3 ADD MSTORE REVERT JUMPDEST DUP3 MLOAD PUSH3 0x461BCD PUSH1 0xE5 SHL DUP2 MSTORE PUSH1 0x20 DUP2 DUP7 ADD MSTORE PUSH1 0x1B PUSH1 0x24 DUP3 ADD MSTORE PUSH32 0x506F6F6C20616464726573732063616E6E6F74206265207A65726F0000000000 PUSH1 0x44 DUP3 ADD MSTORE PUSH1 0x64 SWAP1 REVERT JUMPDEST POP DUP3 CALLVALUE PUSH2 0x331 JUMPI PUSH1 0x20 CALLDATASIZE PUSH1 0x3 NOT ADD SLT PUSH2 0x331 JUMPI PUSH1 0x1 PUSH1 0x1 PUSH1 0xA0 SHL SUB SWAP1 PUSH1 0x1 SWAP1 DUP4 SWAP1 DUP4 PUSH2 0x316 PUSH2 0x665 JUMP JUMPDEST AND DUP2 MSTORE DUP3 PUSH1 0x20 MSTORE KECCAK256 SWAP2 DUP3 SLOAD AND SWAP2 ADD SLOAD DUP3 MLOAD SWAP2 DUP3 MSTORE PUSH1 0x20 DUP3 ADD MSTORE RETURN JUMPDEST DUP1 REVERT JUMPDEST POP DUP3 SWAP1 CALLVALUE PUSH2 0x47E JUMPI PUSH1 0x20 DUP1 PUSH1 0x3 NOT CALLDATASIZE ADD SLT PUSH2 0x1EE JUMPI PUSH1 0x1 PUSH1 0x1 PUSH1 0xA0 SHL SUB PUSH2 0x359 PUSH2 0x665 JUMP JUMPDEST AND SWAP2 DUP1 MLOAD PUSH4 0x27A7D9A7 PUSH1 0xE2 SHL DUP2 MSTORE DUP3 DUP2 DUP8 DUP2 DUP8 GAS STATICCALL SWAP1 DUP2 ISZERO PUSH2 0x474 JUMPI DUP6 SWAP2 PUSH2 0x43E JUMPI JUMPDEST POP PUSH1 0x6 DUP2 LT ISZERO PUSH2 0x42B JUMPI PUSH1 0x1 SUB PUSH2 0x3F2 JUMPI PUSH2 0x396 DUP4 PUSH2 0x6E6 JUMP JUMPDEST SWAP1 DUP4 DUP6 MSTORE PUSH1 0x1 DUP4 MSTORE PUSH1 0x1 DUP2 DUP7 KECCAK256 ADD DUP1 SLOAD SWAP1 DUP4 DUP3 ADD DUP1 SWAP3 GT PUSH2 0x3DF JUMPI PUSH32 0x578AFAB8065B30A5E9827120E4905B8A1810E180D2F793CA54AF6F7633F4E57A SWAP6 SWAP7 SWAP8 POP SSTORE MLOAD SWAP1 DUP2 MSTORE LOG2 DUP1 RETURN JUMPDEST PUSH4 0x4E487B71 PUSH1 0xE0 SHL DUP8 MSTORE PUSH1 0x11 DUP9 MSTORE PUSH1 0x24 DUP8 REVERT JUMPDEST MLOAD PUSH3 0x461BCD PUSH1 0xE5 SHL DUP2 MSTORE DUP1 DUP6 ADD SWAP2 SWAP1 SWAP2 MSTORE PUSH1 0x13 PUSH1 0x24 DUP3 ADD MSTORE PUSH19 0x506F6F6C206973206E6F742070656E64696E67 PUSH1 0x68 SHL PUSH1 0x44 DUP3 ADD MSTORE PUSH1 0x64 SWAP1 REVERT JUMPDEST PUSH4 0x4E487B71 PUSH1 0xE0 SHL DUP6 MSTORE PUSH1 0x21 DUP7 MSTORE PUSH1 0x24 DUP6 REVERT JUMPDEST SWAP1 POP DUP3 DUP2 DUP2 RETURNDATASIZE DUP4 GT PUSH2 0x46D JUMPI JUMPDEST PUSH2 0x455 DUP2 DUP4 PUSH2 0x6B0 JUMP JUMPDEST DUP2 ADD SUB SLT PUSH2 0x156 JUMPI MLOAD PUSH1 0x6 DUP2 LT ISZERO PUSH2 0x156 JUMPI DUP7 PUSH2 0x37C JUMP JUMPDEST POP RETURNDATASIZE PUSH2 0x44B JUMP JUMPDEST DUP3 MLOAD RETURNDATASIZE DUP8 DUP3 RETURNDATACOPY RETURNDATASIZE SWAP1 REVERT JUMPDEST POP DUP1 REVERT JUMPDEST POP CALLVALUE PUSH2 0x1EE JUMPI PUSH1 0x20 CALLDATASIZE PUSH1 0x3 NOT ADD SLT PUSH2 0x1EE JUMPI PUSH1 0x1 PUSH1 0x1 PUSH1 0xA0 SHL SUB PUSH2 0x4A4 PUSH2 0x665 JUMP JUMPDEST AND SWAP2 DUP3 ISZERO PUSH2 0x4EC JUMPI POP DUP2 PUSH1 0x20 SWAP2 PUSH32 0x334D0B2111287DFDDEBE4B4C1C5AF3AE644909D7FCD024377BF601E236ED5ABB SWAP4 DUP6 MSTORE PUSH1 0x1 DUP4 MSTORE DUP5 PUSH1 0x1 DUP3 DUP3 KECCAK256 DUP3 DUP2 SSTORE ADD SSTORE MLOAD SWAP1 DUP2 MSTORE LOG1 DUP1 RETURN JUMPDEST PUSH1 0x20 PUSH1 0x84 SWAP3 MLOAD SWAP2 PUSH3 0x461BCD PUSH1 0xE5 SHL DUP4 MSTORE DUP3 ADD MSTORE PUSH1 0x23 PUSH1 0x24 DUP3 ADD MSTORE PUSH32 0x4E6F20706F6F6C207265676973746572656420666F7220746869732061646472 PUSH1 0x44 DUP3 ADD MSTORE PUSH3 0x657373 PUSH1 0xE8 SHL PUSH1 0x64 DUP3 ADD MSTORE REVERT JUMPDEST POP DUP3 SWAP1 CALLVALUE PUSH2 0x47E JUMPI PUSH2 0x54B CALLDATASIZE PUSH2 0x67F JUMP JUMPDEST SWAP2 PUSH1 0x1 PUSH1 0x1 PUSH1 0xA0 SHL SUB SWAP2 DUP3 AND SWAP2 SWAP1 DUP3 ISZERO ISZERO DUP1 PUSH2 0x606 JUMPI JUMPDEST ISZERO PUSH2 0x5D0 JUMPI DUP1 MLOAD SWAP4 DUP2 DUP6 ADD DUP6 DUP2 LT PUSH8 0xFFFFFFFFFFFFFFFF DUP3 GT OR PUSH2 0x5BD JUMPI SWAP3 DUP3 SWAP2 PUSH1 0x1 SWAP6 SWAP5 DUP3 SWAP5 MSTORE AND DUP6 MSTORE PUSH1 0x20 DUP6 ADD SWAP3 DUP7 DUP5 MSTORE DUP7 MSTORE DUP4 PUSH1 0x20 MSTORE DUP6 KECCAK256 SWAP4 MLOAD AND PUSH12 0xFFFFFFFFFFFFFFFFFFFFFFFF PUSH1 0xA0 SHL DUP5 SLOAD AND OR DUP4 SSTORE MLOAD SWAP2 ADD SSTORE DUP1 RETURN JUMPDEST PUSH4 0x4E487B71 PUSH1 0xE0 SHL DUP8 MSTORE PUSH1 0x41 DUP9 MSTORE PUSH1 0x24 DUP8 REVERT JUMPDEST MLOAD PUSH3 0x461BCD PUSH1 0xE5 SHL DUP2 MSTORE PUSH1 0x20 DUP2 DUP8 ADD MSTORE PUSH1 0x11 PUSH1 0x24 DUP3 ADD MSTORE PUSH17 0x496E76616C696420616464726573736573 PUSH1 0x78 SHL PUSH1 0x44 DUP3 ADD MSTORE PUSH1 0x64 SWAP1 REVERT JUMPDEST POP DUP2 DUP5 AND ISZERO ISZERO PUSH2 0x562 JUMP JUMPDEST DUP4 DUP3 CALLVALUE PUSH2 0x47E JUMPI DUP2 PUSH1 0x3 NOT CALLDATASIZE ADD SLT PUSH2 0x47E JUMPI PUSH1 0x20 SWAP1 MLOAD PUSH1 0x64 DUP2 MSTORE RETURN JUMPDEST SWAP3 POP POP CALLVALUE PUSH2 0x1EE JUMPI PUSH1 0x20 CALLDATASIZE PUSH1 0x3 NOT ADD SLT PUSH2 0x1EE JUMPI PUSH1 0x20 SWAP3 PUSH1 0x1 SWAP2 SWAP1 PUSH1 0x1 PUSH1 0x1 PUSH1 0xA0 SHL SUB PUSH2 0x658 PUSH2 0x665 JUMP JUMPDEST AND DUP2 MSTORE DUP3 DUP6 MSTORE KECCAK256 ADD SLOAD DUP2 MSTORE RETURN JUMPDEST PUSH1 0x4 CALLDATALOAD SWAP1 PUSH1 0x1 PUSH1 0x1 PUSH1 0xA0 SHL SUB DUP3 AND DUP3 SUB PUSH2 0x67B JUMPI JUMP JUMPDEST PUSH0 DUP1 REVERT JUMPDEST PUSH1 0x40 SWAP1 PUSH1 0x3 NOT ADD SLT PUSH2 0x67B JUMPI PUSH1 0x1 PUSH1 0x1 PUSH1 0xA0 SHL SUB SWAP1 PUSH1 0x4 CALLDATALOAD DUP3 DUP2 AND DUP2 SUB PUSH2 0x67B JUMPI SWAP2 PUSH1 0x24 CALLDATALOAD SWAP1 DUP2 AND DUP2 SUB PUSH2 0x67B JUMPI SWAP1 JUMP JUMPDEST SWAP1 PUSH1 0x1F DUP1 NOT SWAP2 ADD AND DUP2 ADD SWAP1 DUP2 LT PUSH8 0xFFFFFFFFFFFFFFFF DUP3 GT OR PUSH2 0x6D2 JUMPI PUSH1 0x40 MSTORE JUMP JUMPDEST PUSH4 0x4E487B71 PUSH1 0xE0 SHL PUSH0 MSTORE PUSH1 0x41 PUSH1 0x4 MSTORE PUSH1 0x24 PUSH0 REVERT JUMPDEST PUSH1 0x40 MLOAD PUSH4 0x2E1283E3 PUSH1 0xE0 SHL DUP2 MSTORE PUSH1 0x20 SWAP2 PUSH1 0x1 PUSH1 0x1 PUSH1 0xA0 SHL SUB AND SWAP1 DUP3 DUP2 PUSH1 0x4 DUP2 DUP6 GAS STATICCALL SWAP1 DUP2 ISZERO PUSH2 0x7C7 JUMPI PUSH0 SWAP2 PUSH2 0x7E3 JUMPI JUMPDEST POP DUP1 ISZERO DUP1 ISZERO PUSH2 0x7D9 JUMPI JUMPDEST PUSH2 0x7D2 JUMPI NUMBER SUB SWAP2 NUMBER DUP4 GT PUSH2 0x787 JUMPI DUP1 PUSH1 0x4 SWAP3 PUSH1 0x40 MLOAD SWAP4 DUP5 DUP1 SWAP3 PUSH4 0x1E960363 PUSH1 0xE3 SHL DUP3 MSTORE GAS STATICCALL SWAP1 DUP2 ISZERO PUSH2 0x7C7 JUMPI PUSH0 SWAP2 PUSH2 0x79B JUMPI JUMPDEST POP SWAP1 POP DUP2 DUP2 MUL SWAP2 DUP2 DUP4 DIV EQ SWAP1 ISZERO OR ISZERO PUSH2 0x787 JUMPI PUSH1 0x64 DUP2 MUL SWAP1 DUP1 DUP3 DIV PUSH1 0x64 EQ SWAP1 ISZERO OR ISZERO PUSH2 0x787 JUMPI PUSH8 0xDE0B6B3A7640000 SWAP1 DIV SWAP1 JUMP JUMPDEST PUSH4 0x4E487B71 PUSH1 0xE0 SHL PUSH0 MSTORE PUSH1 0x11 PUSH1 0x4 MSTORE PUSH1 0x24 PUSH0 REVERT JUMPDEST DUP3 DUP2 RETURNDATASIZE DUP4 GT PUSH2 0x7C0 JUMPI JUMPDEST PUSH2 0x7AF DUP2 DUP4 PUSH2 0x6B0 JUMP JUMPDEST DUP2 ADD SUB SLT PUSH2 0x331 JUMPI POP MLOAD DUP1 PUSH0 PUSH2 0x753 JUMP JUMPDEST POP RETURNDATASIZE PUSH2 0x7A5 JUMP JUMPDEST PUSH1 0x40 MLOAD RETURNDATASIZE PUSH0 DUP3 RETURNDATACOPY RETURNDATASIZE SWAP1 REVERT JUMPDEST POP POP POP PUSH0 SWAP1 JUMP JUMPDEST POP DUP1 NUMBER GT ISZERO PUSH2 0x720 JUMP JUMPDEST SWAP1 DUP4 DUP3 DUP2 RETURNDATASIZE DUP4 GT PUSH2 0x809 JUMPI JUMPDEST PUSH2 0x7F9 DUP2 DUP4 PUSH2 0x6B0 JUMP JUMPDEST DUP2 ADD SUB SLT PUSH2 0x331 JUMPI POP MLOAD PUSH0 PUSH2 0x716 JUMP JUMPDEST POP RETURNDATASIZE PUSH2 0x7EF JUMP INVALID LOG2 PUSH5 0x6970667358 0x22 SLT KECCAK256 0xDC PUSH10 0xF6DC89D4774D93CCFE3D SWAP6 NOT MLOAD 0x1E PUSH2 0x3D46 ORIGIN REVERT DELEGATECALL CALLER STATICCALL 0xF 0xE2 NUMBER CHAINID 0xB2 CREATE2 0xC1 0x5C PUSH5 0x736F6C6343 STOP ADDMOD EQ STOP CALLER "
		},
		"gasEstimates": {
			"creation": {
				"codeDepositCost": "423600",
				"executionCost": "22573",
				"totalCost": "446173"
			},
			"external": {
				"REWARD_RATE()": "197",
				"accrueReward(address)": "infinite",
				"claimRewards(address)": "infinite",
				"deregisterPool(address)": "11448",
				"getAccruedRewards(address)": "2428",
				"registerPool(address,address)": "29840",
				"rewardDetails(address)": "4677",
				"setRewardToken(address,address)": "26196"
			},
			"internal": {
				"calculateReward(contract TuliaPool)": "infinite"
			}
		},
		"methodIdentifiers": {
			"REWARD_RATE()": "5997bb37",
			"accrueReward(address)": "978e08d7",
			"claimRewards(address)": "ef5cfb8c",
			"deregisterPool(address)": "7e72c7d7",
			"getAccruedRewards(address)": "2552aa1f",
			"registerPool(address,address)": "7286e5e5",
			"rewardDetails(address)": "cf172403",
			"setRewardToken(address,address)": "e5c8c572"
		}
	},
	"abi": [
		{
			"anonymous": false,
			"inputs": [
				{
					"indexed": false,
					"internalType": "address",
					"name": "pool",
					"type": "address"
				}
			],
			"name": "PoolDeregistered",
			"type": "event"
		},
		{
			"anonymous": false,
			"inputs": [
				{
					"indexed": true,
					"internalType": "address",
					"name": "pool",
					"type": "address"
				},
				{
					"indexed": false,
					"internalType": "uint256",
					"name": "reward",
					"type": "uint256"
				}
			],
			"name": "RewardAccrued",
			"type": "event"
		},
		{
			"anonymous": false,
			"inputs": [
				{
					"indexed": true,
					"internalType": "address",
					"name": "pool",
					"type": "address"
				},
				{
					"indexed": false,
					"internalType": "uint256",
					"name": "reward",
					"type": "uint256"
				}
			],
			"name": "RewardClaimed",
			"type": "event"
		},
		{
			"anonymous": false,
			"inputs": [
				{
					"indexed": true,
					"internalType": "address",
					"name": "pool",
					"type": "address"
				},
				{
					"indexed": false,
					"internalType": "address",
					"name": "rewardToken",
					"type": "address"
				}
			],
			"name": "RewardTokenSet",
			"type": "event"
		},
		{
			"inputs": [],
			"name": "REWARD_RATE",
			"outputs": [
				{
					"internalType": "uint256",
					"name": "",
					"type": "uint256"
				}
			],
			"stateMutability": "view",
			"type": "function"
		},
		{
			"inputs": [
				{
					"internalType": "address",
					"name": "pool",
					"type": "address"
				}
			],
			"name": "accrueReward",
			"outputs": [],
			"stateMutability": "nonpayable",
			"type": "function"
		},
		{
			"inputs": [
				{
					"internalType": "address",
					"name": "pool",
					"type": "address"
				}
			],
			"name": "claimRewards",
			"outputs": [],
			"stateMutability": "nonpayable",
			"type": "function"
		},
		{
			"inputs": [
				{
					"internalType": "address",
					"name": "pool",
					"type": "address"
				}
			],
			"name": "deregisterPool",
			"outputs": [],
			"stateMutability": "nonpayable",
			"type": "function"
		},
		{
			"inputs": [
				{
					"internalType": "address",
					"name": "pool",
					"type": "address"
				}
			],
			"name": "getAccruedRewards",
			"outputs": [
				{
					"internalType": "uint256",
					"name": "reward",
					"type": "uint256"
				}
			],
			"stateMutability": "view",
			"type": "function"
		},
		{
			"inputs": [
				{
					"internalType": "address",
					"name": "pool",
					"type": "address"
				},
				{
					"internalType": "contract IERC20",
					"name": "rewardToken",
					"type": "address"
				}
			],
			"name": "registerPool",
			"outputs": [],
			"stateMutability": "nonpayable",
			"type": "function"
		},
		{
			"inputs": [
				{
					"internalType": "address",
					"name": "",
					"type": "address"
				}
			],
			"name": "rewardDetails",
			"outputs": [
				{
					"internalType": "contract IERC20",
					"name": "rewardToken",
					"type": "address"
				},
				{
					"internalType": "uint256",
					"name": "rewardsAccrued",
					"type": "uint256"
				}
			],
			"stateMutability": "view",
			"type": "function"
		},
		{
			"inputs": [
				{
					"internalType": "address",
					"name": "pool",
					"type": "address"
				},
				{
					"internalType": "contract IERC20",
					"name": "rewardToken",
					"type": "address"
				}
			],
			"name": "setRewardToken",
			"outputs": [],
			"stateMutability": "nonpayable",
			"type": "function"
		}
	]
}