{
	"data": {
		"bytecode": {
			"linkReferences": {},
			"object": "6080806040523461001657610fb9908161001b8239f35b5f80fdfe60406080815260049081361015610014575f80fd5b5f91823560e01c90816338e270ed14610bf357816351b2d52114610bc65781635228a4da146108fc57816356f78a1d146106cd578163713c00ce14610408578163d302bf76146100cd575063fb96b1351461006d575f80fd5b346100c95760203660031901126100c95760809181906001600160a01b03610093610cc6565b16815280602052209081549160018101549160ff6003600284015493015416928151948552602085015283015215156060820152f35b5080fd5b919050346104045780600319360112610404576100e8610cc6565b6100f0610ce0565b82516306393bef60e11b8152926001600160a01b038084169360209391929084878981895afa9687156103fa5789976103c7575b5061012e90610e1d565b95851515806103bc575b156103875781516327a7d9a760e21b815285818a818a5afa9081156102dd578a9161035a575b506006811015610347576002036102e75783169681516370a0823160e01b8152308282015285816024818c5afa9081156102dd579088918b916102a8575b50106102725788876101ab5780f35b825163a9059cbb60e01b81526001600160a01b038516928101928352602083018990529886928a928391829060400103925af1968715610268577ff75e0f5f6602ca4c59226d587ca078ea5a4ac300638072b99386035b776f264495969761023b575b50858852878452600281892001610226888254610da6565b9055519586521693a35f808080808080808880f35b61025a90853d8711610261575b6102528183610cf6565b810190610dd4565b505f61020e565b503d610248565b81513d8a823e3d90fd5b84606492519162461bcd60e51b83528201526012602482015271496e73756666696369656e742066756e647360701b6044820152fd5b809250878092503d83116102d6575b6102c18183610cf6565b810103126102d2578790515f61019c565b8980fd5b503d6102b7565b83513d8c823e3d90fd5b815162461bcd60e51b8152808901869052603460248201527f496e7465726573742063616e206f6e6c79206265206469737472696275746564604482015273207768656e206c6f616e2069732061637469766560601b6064820152608490fd5b634e487b7160e01b8a526021895260248afd5b61037a9150863d8811610380575b6103728183610cf6565b810190610d2c565b5f61015e565b503d610368565b815162461bcd60e51b8152808901869052600f60248201526e496e76616c6964206164647265737360881b6044820152606490fd5b508383161515610138565b61012e9197506103ec90863d88116103f3575b6103e48183610cf6565b810190610d87565b9690610124565b503d6103da565b82513d8b823e3d90fd5b8280fd5b905034610404578160031936011261040457610422610cc6565b9061042b610ce0565b6001600160a01b038381169391929190610446851515610d44565b85516327a7d9a760e21b815260209490858186818a5afa9081156105d75789916106b0575b50600681101561069d576003036106495785885287855286882093888851946306393bef60e11b8652878684818c5afa95861561063f57829661061c575b506104b390610e1d565b6002870154908181116104e7575b828a5f80516020610f648339815191528b8e60038d0160ff19815416905551848152a280f35b85916104f291610dc7565b95169189516370a0823160e01b815230828201528881602481875afa801561061257879184916105e1575b50101561052b575b806104c1565b895163a9059cbb60e01b81526001600160a01b038516918101918252602082018790529288928492839190829060400103925af180156105d7578688999694600396945f80516020610f648339815191529a947ff75e0f5f6602ca4c59226d587ca078ea5a4ac300638072b99386035b776f2644946105ba575b5088519586521693a39194935f808881610525565b6105d090843d8611610261576102528183610cf6565b505f6105a5565b88513d8b823e3d90fd5b8092508a8092503d831161060b575b6105fa8183610cf6565b81010312610404578690515f61051d565b503d6105f0565b8b513d85823e3d90fd5b6104b391965061063890893d8b116103f3576103e48183610cf6565b95906104a9565b8a513d84823e3d90fd5b865162461bcd60e51b8152808501869052602860248201527f4c6f616e206d7573742062652064656661756c74656420746f2068616e646c6560448201526708191959985d5b1d60c21b6064820152608490fd5b634e487b7160e01b895260218552602489fd5b6106c79150863d8811610380576103728183610cf6565b5f61046b565b9050346104045781600319360112610404576106e7610cc6565b6106ef610ce0565b6001600160a01b03918216808652602086815285872086516306393bef60e11b8152969294919391929084888881895afa9788156103fa5789986108dd575b506107488154610742600184015442610dc7565b90610dec565b825163019312fb60e61b81529086828a818b5afa9182156108d35790869392918c9261089b575b5060029161077c91610dff565b910154808211156108925761079091610dc7565b975b82516370a0823160e01b8152308982015291169785826024818c5afa80156102dd578a90610863575b6107c59250610dc7565b9588876107cf5780f35b825163a9059cbb60e01b81526001600160a01b038516928101928352602083018990529886928a928391829060400103925af1968715610268577fdc8f7dbb2bda12e6e832594febb6bd75a56d911f037d5bdcae843e72c7f21796959697610846575b50519586521693a35f808080808080808880f35b61085c90853d8711610261576102528183610cf6565b505f610832565b508582813d831161088b575b6108798183610cf6565b810103126102d2576107c591516107bb565b503d61086f565b50508897610792565b935090508683813d81116108cc575b6108b48183610cf6565b810103126108c8579151859261077c61076f565b8a80fd5b503d6108aa565b84513d8d823e3d90fd5b6108f5919850853d87116103f3576103e48183610cf6565b965f61072e565b919050346104045760209081600319360112610bc2576001600160a01b0380610923610cc6565b169382516327a7d9a760e21b815284818381895afa908115610b45578791610ba5575b506006811015610b9257600203610b4f57610962851515610d44565b82516306393bef60e11b815284818381895afa908115610b45578791610b28575b5083516080810181811067ffffffffffffffff821117610b15579086929186528881526003838201914283528781018b81526060820193600185528b8d528c8752898d2092518355516001830155516002820155019051151560ff8019835416911617905560248551809581936370a0823160e01b83523087840152165afa918215610b0b578692610ad8575b5084865285845260ff600384882001541615610a80575090837f85d2feed54527387baa716f3fb424c4c041debdb684687477ea362fdc1bf278c845f80516020610f648339815191529594838952888252848920610a6f828254610da6565b90558451908152a25160018152a280f35b825162461bcd60e51b8152908101849052602c60248201527f496e746572657374206163637275616c206973206e6f7420616374697665206660448201526b1bdc881d1a1a5cc81c1bdbdb60a21b6064820152608490fd5b9091508381813d8311610b04575b610af08183610cf6565b81010312610b005751905f610a10565b8580fd5b503d610ae6565b83513d88823e3d90fd5b634e487b7160e01b895260418452602489fd5b610b3f9150853d87116103f3576103e48183610cf6565b5f610983565b84513d89823e3d90fd5b825162461bcd60e51b8152908101849052601f60248201527f4c6f616e206d7573742062652061637469766520746f207265676973746572006044820152606490fd5b634e487b7160e01b875260218252602487fd5b610bbc9150853d8711610380576103728183610cf6565b5f610946565b8380fd5b5050346100c95760203660031901126100c957602090610bec610be7610cc6565b610e1d565b9051908152f35b91905034610404576020366003190112610404576001600160a01b03610c17610cc6565b1691610c24831515610d44565b8284528360205260ff600383862001541615610c71575060205f80516020610f6483398151915291838552848252846003828220828155826001820155826002820155015551848152a280f35b6020608492519162461bcd60e51b8352820152602a60248201527f506f6f6c206973206e6f7420616374697665206f7220616c72656164792064656044820152691c9959da5cdd195c995960b21b6064820152fd5b600435906001600160a01b0382168203610cdc57565b5f80fd5b602435906001600160a01b0382168203610cdc57565b90601f8019910116810190811067ffffffffffffffff821117610d1857604052565b634e487b7160e01b5f52604160045260245ffd5b90816020910312610cdc57516006811015610cdc5790565b15610d4b57565b60405162461bcd60e51b8152602060048201526014602482015273496e76616c696420706f6f6c206164647265737360601b6044820152606490fd5b90816020910312610cdc57516001600160a01b0381168103610cdc5790565b91908201809211610db357565b634e487b7160e01b5f52601160045260245ffd5b91908203918211610db357565b90816020910312610cdc57518015158103610cdc5790565b81810292918115918404141715610db357565b8115610e09570490565b634e487b7160e01b5f52601260045260245ffd5b6001600160a01b0316610e31811515610d44565b5f90808252602090828252604083209160ff60038401541615610f5d57806004926040519384809263019312fb60e61b82525afa918215610f52578492610f23575b508115610ecc5750610ea7600291610e8f600185015442610dc7565b818111610ec5575b610ea2908554610dec565b610dff565b9101549081811115610ec057610ebd9250610dc7565b90565b505090565b5080610e97565b6084906040519062461bcd60e51b82526004820152602a60248201527f52657061796d656e7420706572696f64206d7573742062652067726561746572604482015269207468616e207a65726f60b01b6064820152fd5b9080925081813d8311610f4b575b610f3b8183610cf6565b81010312610bc25751905f610e73565b503d610f31565b6040513d86823e3d90fd5b5050509056fed73d30acc098b20bed08c7438ffe13e0fc22f72e047310ea82346fd5f2157694a264697066735822122097b0f7e7c28e95f8e6bb906f9ee09ac0a82b96aaeb45c4d936e9c9f3e6534e3464736f6c63430008140033",
			"opcodes": "PUSH1 0x80 DUP1 PUSH1 0x40 MSTORE CALLVALUE PUSH2 0x16 JUMPI PUSH2 0xFB9 SWAP1 DUP2 PUSH2 0x1B DUP3 CODECOPY RETURN JUMPDEST PUSH0 DUP1 REVERT INVALID PUSH1 0x40 PUSH1 0x80 DUP2 MSTORE PUSH1 0x4 SWAP1 DUP2 CALLDATASIZE LT ISZERO PUSH2 0x14 JUMPI PUSH0 DUP1 REVERT JUMPDEST PUSH0 SWAP2 DUP3 CALLDATALOAD PUSH1 0xE0 SHR SWAP1 DUP2 PUSH4 0x38E270ED EQ PUSH2 0xBF3 JUMPI DUP2 PUSH4 0x51B2D521 EQ PUSH2 0xBC6 JUMPI DUP2 PUSH4 0x5228A4DA EQ PUSH2 0x8FC JUMPI DUP2 PUSH4 0x56F78A1D EQ PUSH2 0x6CD JUMPI DUP2 PUSH4 0x713C00CE EQ PUSH2 0x408 JUMPI DUP2 PUSH4 0xD302BF76 EQ PUSH2 0xCD JUMPI POP PUSH4 0xFB96B135 EQ PUSH2 0x6D JUMPI PUSH0 DUP1 REVERT JUMPDEST CALLVALUE PUSH2 0xC9 JUMPI PUSH1 0x20 CALLDATASIZE PUSH1 0x3 NOT ADD SLT PUSH2 0xC9 JUMPI PUSH1 0x80 SWAP2 DUP2 SWAP1 PUSH1 0x1 PUSH1 0x1 PUSH1 0xA0 SHL SUB PUSH2 0x93 PUSH2 0xCC6 JUMP JUMPDEST AND DUP2 MSTORE DUP1 PUSH1 0x20 MSTORE KECCAK256 SWAP1 DUP2 SLOAD SWAP2 PUSH1 0x1 DUP2 ADD SLOAD SWAP2 PUSH1 0xFF PUSH1 0x3 PUSH1 0x2 DUP5 ADD SLOAD SWAP4 ADD SLOAD AND SWAP3 DUP2 MLOAD SWAP5 DUP6 MSTORE PUSH1 0x20 DUP6 ADD MSTORE DUP4 ADD MSTORE ISZERO ISZERO PUSH1 0x60 DUP3 ADD MSTORE RETURN JUMPDEST POP DUP1 REVERT JUMPDEST SWAP2 SWAP1 POP CALLVALUE PUSH2 0x404 JUMPI DUP1 PUSH1 0x3 NOT CALLDATASIZE ADD SLT PUSH2 0x404 JUMPI PUSH2 0xE8 PUSH2 0xCC6 JUMP JUMPDEST PUSH2 0xF0 PUSH2 0xCE0 JUMP JUMPDEST DUP3 MLOAD PUSH4 0x6393BEF PUSH1 0xE1 SHL DUP2 MSTORE SWAP3 PUSH1 0x1 PUSH1 0x1 PUSH1 0xA0 SHL SUB DUP1 DUP5 AND SWAP4 PUSH1 0x20 SWAP4 SWAP2 SWAP3 SWAP1 DUP5 DUP8 DUP10 DUP2 DUP10 GAS STATICCALL SWAP7 DUP8 ISZERO PUSH2 0x3FA JUMPI DUP10 SWAP8 PUSH2 0x3C7 JUMPI JUMPDEST POP PUSH2 0x12E SWAP1 PUSH2 0xE1D JUMP JUMPDEST SWAP6 DUP6 ISZERO ISZERO DUP1 PUSH2 0x3BC JUMPI JUMPDEST ISZERO PUSH2 0x387 JUMPI DUP2 MLOAD PUSH4 0x27A7D9A7 PUSH1 0xE2 SHL DUP2 MSTORE DUP6 DUP2 DUP11 DUP2 DUP11 GAS STATICCALL SWAP1 DUP2 ISZERO PUSH2 0x2DD JUMPI DUP11 SWAP2 PUSH2 0x35A JUMPI JUMPDEST POP PUSH1 0x6 DUP2 LT ISZERO PUSH2 0x347 JUMPI PUSH1 0x2 SUB PUSH2 0x2E7 JUMPI DUP4 AND SWAP7 DUP2 MLOAD PUSH4 0x70A08231 PUSH1 0xE0 SHL DUP2 MSTORE ADDRESS DUP3 DUP3 ADD MSTORE DUP6 DUP2 PUSH1 0x24 DUP2 DUP13 GAS STATICCALL SWAP1 DUP2 ISZERO PUSH2 0x2DD JUMPI SWAP1 DUP9 SWAP2 DUP12 SWAP2 PUSH2 0x2A8 JUMPI JUMPDEST POP LT PUSH2 0x272 JUMPI DUP9 DUP8 PUSH2 0x1AB JUMPI DUP1 RETURN JUMPDEST DUP3 MLOAD PUSH4 0xA9059CBB PUSH1 0xE0 SHL DUP2 MSTORE PUSH1 0x1 PUSH1 0x1 PUSH1 0xA0 SHL SUB DUP6 AND SWAP3 DUP2 ADD SWAP3 DUP4 MSTORE PUSH1 0x20 DUP4 ADD DUP10 SWAP1 MSTORE SWAP9 DUP7 SWAP3 DUP11 SWAP3 DUP4 SWAP2 DUP3 SWAP1 PUSH1 0x40 ADD SUB SWAP3 GAS CALL SWAP7 DUP8 ISZERO PUSH2 0x268 JUMPI PUSH32 0xF75E0F5F6602CA4C59226D587CA078EA5A4AC300638072B99386035B776F2644 SWAP6 SWAP7 SWAP8 PUSH2 0x23B JUMPI JUMPDEST POP DUP6 DUP9 MSTORE DUP8 DUP5 MSTORE PUSH1 0x2 DUP2 DUP10 KECCAK256 ADD PUSH2 0x226 DUP9 DUP3 SLOAD PUSH2 0xDA6 JUMP JUMPDEST SWAP1 SSTORE MLOAD SWAP6 DUP7 MSTORE AND SWAP4 LOG3 PUSH0 DUP1 DUP1 DUP1 DUP1 DUP1 DUP1 DUP1 DUP9 DUP1 RETURN JUMPDEST PUSH2 0x25A SWAP1 DUP6 RETURNDATASIZE DUP8 GT PUSH2 0x261 JUMPI JUMPDEST PUSH2 0x252 DUP2 DUP4 PUSH2 0xCF6 JUMP JUMPDEST DUP2 ADD SWAP1 PUSH2 0xDD4 JUMP JUMPDEST POP PUSH0 PUSH2 0x20E JUMP JUMPDEST POP RETURNDATASIZE PUSH2 0x248 JUMP JUMPDEST DUP2 MLOAD RETURNDATASIZE DUP11 DUP3 RETURNDATACOPY RETURNDATASIZE SWAP1 REVERT JUMPDEST DUP5 PUSH1 0x64 SWAP3 MLOAD SWAP2 PUSH3 0x461BCD PUSH1 0xE5 SHL DUP4 MSTORE DUP3 ADD MSTORE PUSH1 0x12 PUSH1 0x24 DUP3 ADD MSTORE PUSH18 0x496E73756666696369656E742066756E6473 PUSH1 0x70 SHL PUSH1 0x44 DUP3 ADD MSTORE REVERT JUMPDEST DUP1 SWAP3 POP DUP8 DUP1 SWAP3 POP RETURNDATASIZE DUP4 GT PUSH2 0x2D6 JUMPI JUMPDEST PUSH2 0x2C1 DUP2 DUP4 PUSH2 0xCF6 JUMP JUMPDEST DUP2 ADD SUB SLT PUSH2 0x2D2 JUMPI DUP8 SWAP1 MLOAD PUSH0 PUSH2 0x19C JUMP JUMPDEST DUP10 DUP1 REVERT JUMPDEST POP RETURNDATASIZE PUSH2 0x2B7 JUMP JUMPDEST DUP4 MLOAD RETURNDATASIZE DUP13 DUP3 RETURNDATACOPY RETURNDATASIZE SWAP1 REVERT JUMPDEST DUP2 MLOAD PUSH3 0x461BCD PUSH1 0xE5 SHL DUP2 MSTORE DUP1 DUP10 ADD DUP7 SWAP1 MSTORE PUSH1 0x34 PUSH1 0x24 DUP3 ADD MSTORE PUSH32 0x496E7465726573742063616E206F6E6C79206265206469737472696275746564 PUSH1 0x44 DUP3 ADD MSTORE PUSH20 0x207768656E206C6F616E20697320616374697665 PUSH1 0x60 SHL PUSH1 0x64 DUP3 ADD MSTORE PUSH1 0x84 SWAP1 REVERT JUMPDEST PUSH4 0x4E487B71 PUSH1 0xE0 SHL DUP11 MSTORE PUSH1 0x21 DUP10 MSTORE PUSH1 0x24 DUP11 REVERT JUMPDEST PUSH2 0x37A SWAP2 POP DUP7 RETURNDATASIZE DUP9 GT PUSH2 0x380 JUMPI JUMPDEST PUSH2 0x372 DUP2 DUP4 PUSH2 0xCF6 JUMP JUMPDEST DUP2 ADD SWAP1 PUSH2 0xD2C JUMP JUMPDEST PUSH0 PUSH2 0x15E JUMP JUMPDEST POP RETURNDATASIZE PUSH2 0x368 JUMP JUMPDEST DUP2 MLOAD PUSH3 0x461BCD PUSH1 0xE5 SHL DUP2 MSTORE DUP1 DUP10 ADD DUP7 SWAP1 MSTORE PUSH1 0xF PUSH1 0x24 DUP3 ADD MSTORE PUSH15 0x496E76616C69642061646472657373 PUSH1 0x88 SHL PUSH1 0x44 DUP3 ADD MSTORE PUSH1 0x64 SWAP1 REVERT JUMPDEST POP DUP4 DUP4 AND ISZERO ISZERO PUSH2 0x138 JUMP JUMPDEST PUSH2 0x12E SWAP2 SWAP8 POP PUSH2 0x3EC SWAP1 DUP7 RETURNDATASIZE DUP9 GT PUSH2 0x3F3 JUMPI JUMPDEST PUSH2 0x3E4 DUP2 DUP4 PUSH2 0xCF6 JUMP JUMPDEST DUP2 ADD SWAP1 PUSH2 0xD87 JUMP JUMPDEST SWAP7 SWAP1 PUSH2 0x124 JUMP JUMPDEST POP RETURNDATASIZE PUSH2 0x3DA JUMP JUMPDEST DUP3 MLOAD RETURNDATASIZE DUP12 DUP3 RETURNDATACOPY RETURNDATASIZE SWAP1 REVERT JUMPDEST DUP3 DUP1 REVERT JUMPDEST SWAP1 POP CALLVALUE PUSH2 0x404 JUMPI DUP2 PUSH1 0x3 NOT CALLDATASIZE ADD SLT PUSH2 0x404 JUMPI PUSH2 0x422 PUSH2 0xCC6 JUMP JUMPDEST SWAP1 PUSH2 0x42B PUSH2 0xCE0 JUMP JUMPDEST PUSH1 0x1 PUSH1 0x1 PUSH1 0xA0 SHL SUB DUP4 DUP2 AND SWAP4 SWAP2 SWAP3 SWAP2 SWAP1 PUSH2 0x446 DUP6 ISZERO ISZERO PUSH2 0xD44 JUMP JUMPDEST DUP6 MLOAD PUSH4 0x27A7D9A7 PUSH1 0xE2 SHL DUP2 MSTORE PUSH1 0x20 SWAP5 SWAP1 DUP6 DUP2 DUP7 DUP2 DUP11 GAS STATICCALL SWAP1 DUP2 ISZERO PUSH2 0x5D7 JUMPI DUP10 SWAP2 PUSH2 0x6B0 JUMPI JUMPDEST POP PUSH1 0x6 DUP2 LT ISZERO PUSH2 0x69D JUMPI PUSH1 0x3 SUB PUSH2 0x649 JUMPI DUP6 DUP9 MSTORE DUP8 DUP6 MSTORE DUP7 DUP9 KECCAK256 SWAP4 DUP9 DUP9 MLOAD SWAP5 PUSH4 0x6393BEF PUSH1 0xE1 SHL DUP7 MSTORE DUP8 DUP7 DUP5 DUP2 DUP13 GAS STATICCALL SWAP6 DUP7 ISZERO PUSH2 0x63F JUMPI DUP3 SWAP7 PUSH2 0x61C JUMPI JUMPDEST POP PUSH2 0x4B3 SWAP1 PUSH2 0xE1D JUMP JUMPDEST PUSH1 0x2 DUP8 ADD SLOAD SWAP1 DUP2 DUP2 GT PUSH2 0x4E7 JUMPI JUMPDEST DUP3 DUP11 PUSH0 DUP1 MLOAD PUSH1 0x20 PUSH2 0xF64 DUP4 CODECOPY DUP2 MLOAD SWAP2 MSTORE DUP12 DUP15 PUSH1 0x3 DUP14 ADD PUSH1 0xFF NOT DUP2 SLOAD AND SWAP1 SSTORE MLOAD DUP5 DUP2 MSTORE LOG2 DUP1 RETURN JUMPDEST DUP6 SWAP2 PUSH2 0x4F2 SWAP2 PUSH2 0xDC7 JUMP JUMPDEST SWAP6 AND SWAP2 DUP10 MLOAD PUSH4 0x70A08231 PUSH1 0xE0 SHL DUP2 MSTORE ADDRESS DUP3 DUP3 ADD MSTORE DUP9 DUP2 PUSH1 0x24 DUP2 DUP8 GAS STATICCALL DUP1 ISZERO PUSH2 0x612 JUMPI DUP8 SWAP2 DUP5 SWAP2 PUSH2 0x5E1 JUMPI JUMPDEST POP LT ISZERO PUSH2 0x52B JUMPI JUMPDEST DUP1 PUSH2 0x4C1 JUMP JUMPDEST DUP10 MLOAD PUSH4 0xA9059CBB PUSH1 0xE0 SHL DUP2 MSTORE PUSH1 0x1 PUSH1 0x1 PUSH1 0xA0 SHL SUB DUP6 AND SWAP2 DUP2 ADD SWAP2 DUP3 MSTORE PUSH1 0x20 DUP3 ADD DUP8 SWAP1 MSTORE SWAP3 DUP9 SWAP3 DUP5 SWAP3 DUP4 SWAP2 SWAP1 DUP3 SWAP1 PUSH1 0x40 ADD SUB SWAP3 GAS CALL DUP1 ISZERO PUSH2 0x5D7 JUMPI DUP7 DUP9 SWAP10 SWAP7 SWAP5 PUSH1 0x3 SWAP7 SWAP5 PUSH0 DUP1 MLOAD PUSH1 0x20 PUSH2 0xF64 DUP4 CODECOPY DUP2 MLOAD SWAP2 MSTORE SWAP11 SWAP5 PUSH32 0xF75E0F5F6602CA4C59226D587CA078EA5A4AC300638072B99386035B776F2644 SWAP5 PUSH2 0x5BA JUMPI JUMPDEST POP DUP9 MLOAD SWAP6 DUP7 MSTORE AND SWAP4 LOG3 SWAP2 SWAP5 SWAP4 PUSH0 DUP1 DUP9 DUP2 PUSH2 0x525 JUMP JUMPDEST PUSH2 0x5D0 SWAP1 DUP5 RETURNDATASIZE DUP7 GT PUSH2 0x261 JUMPI PUSH2 0x252 DUP2 DUP4 PUSH2 0xCF6 JUMP JUMPDEST POP PUSH0 PUSH2 0x5A5 JUMP JUMPDEST DUP9 MLOAD RETURNDATASIZE DUP12 DUP3 RETURNDATACOPY RETURNDATASIZE SWAP1 REVERT JUMPDEST DUP1 SWAP3 POP DUP11 DUP1 SWAP3 POP RETURNDATASIZE DUP4 GT PUSH2 0x60B JUMPI JUMPDEST PUSH2 0x5FA DUP2 DUP4 PUSH2 0xCF6 JUMP JUMPDEST DUP2 ADD SUB SLT PUSH2 0x404 JUMPI DUP7 SWAP1 MLOAD PUSH0 PUSH2 0x51D JUMP JUMPDEST POP RETURNDATASIZE PUSH2 0x5F0 JUMP JUMPDEST DUP12 MLOAD RETURNDATASIZE DUP6 DUP3 RETURNDATACOPY RETURNDATASIZE SWAP1 REVERT JUMPDEST PUSH2 0x4B3 SWAP2 SWAP7 POP PUSH2 0x638 SWAP1 DUP10 RETURNDATASIZE DUP12 GT PUSH2 0x3F3 JUMPI PUSH2 0x3E4 DUP2 DUP4 PUSH2 0xCF6 JUMP JUMPDEST SWAP6 SWAP1 PUSH2 0x4A9 JUMP JUMPDEST DUP11 MLOAD RETURNDATASIZE DUP5 DUP3 RETURNDATACOPY RETURNDATASIZE SWAP1 REVERT JUMPDEST DUP7 MLOAD PUSH3 0x461BCD PUSH1 0xE5 SHL DUP2 MSTORE DUP1 DUP6 ADD DUP7 SWAP1 MSTORE PUSH1 0x28 PUSH1 0x24 DUP3 ADD MSTORE PUSH32 0x4C6F616E206D7573742062652064656661756C74656420746F2068616E646C65 PUSH1 0x44 DUP3 ADD MSTORE PUSH8 0x8191959985D5B1D PUSH1 0xC2 SHL PUSH1 0x64 DUP3 ADD MSTORE PUSH1 0x84 SWAP1 REVERT JUMPDEST PUSH4 0x4E487B71 PUSH1 0xE0 SHL DUP10 MSTORE PUSH1 0x21 DUP6 MSTORE PUSH1 0x24 DUP10 REVERT JUMPDEST PUSH2 0x6C7 SWAP2 POP DUP7 RETURNDATASIZE DUP9 GT PUSH2 0x380 JUMPI PUSH2 0x372 DUP2 DUP4 PUSH2 0xCF6 JUMP JUMPDEST PUSH0 PUSH2 0x46B JUMP JUMPDEST SWAP1 POP CALLVALUE PUSH2 0x404 JUMPI DUP2 PUSH1 0x3 NOT CALLDATASIZE ADD SLT PUSH2 0x404 JUMPI PUSH2 0x6E7 PUSH2 0xCC6 JUMP JUMPDEST PUSH2 0x6EF PUSH2 0xCE0 JUMP JUMPDEST PUSH1 0x1 PUSH1 0x1 PUSH1 0xA0 SHL SUB SWAP2 DUP3 AND DUP1 DUP7 MSTORE PUSH1 0x20 DUP7 DUP2 MSTORE DUP6 DUP8 KECCAK256 DUP7 MLOAD PUSH4 0x6393BEF PUSH1 0xE1 SHL DUP2 MSTORE SWAP7 SWAP3 SWAP5 SWAP2 SWAP4 SWAP2 SWAP3 SWAP1 DUP5 DUP9 DUP9 DUP2 DUP10 GAS STATICCALL SWAP8 DUP9 ISZERO PUSH2 0x3FA JUMPI DUP10 SWAP9 PUSH2 0x8DD JUMPI JUMPDEST POP PUSH2 0x748 DUP2 SLOAD PUSH2 0x742 PUSH1 0x1 DUP5 ADD SLOAD TIMESTAMP PUSH2 0xDC7 JUMP JUMPDEST SWAP1 PUSH2 0xDEC JUMP JUMPDEST DUP3 MLOAD PUSH4 0x19312FB PUSH1 0xE6 SHL DUP2 MSTORE SWAP1 DUP7 DUP3 DUP11 DUP2 DUP12 GAS STATICCALL SWAP2 DUP3 ISZERO PUSH2 0x8D3 JUMPI SWAP1 DUP7 SWAP4 SWAP3 SWAP2 DUP13 SWAP3 PUSH2 0x89B JUMPI JUMPDEST POP PUSH1 0x2 SWAP2 PUSH2 0x77C SWAP2 PUSH2 0xDFF JUMP JUMPDEST SWAP2 ADD SLOAD DUP1 DUP3 GT ISZERO PUSH2 0x892 JUMPI PUSH2 0x790 SWAP2 PUSH2 0xDC7 JUMP JUMPDEST SWAP8 JUMPDEST DUP3 MLOAD PUSH4 0x70A08231 PUSH1 0xE0 SHL DUP2 MSTORE ADDRESS DUP10 DUP3 ADD MSTORE SWAP2 AND SWAP8 DUP6 DUP3 PUSH1 0x24 DUP2 DUP13 GAS STATICCALL DUP1 ISZERO PUSH2 0x2DD JUMPI DUP11 SWAP1 PUSH2 0x863 JUMPI JUMPDEST PUSH2 0x7C5 SWAP3 POP PUSH2 0xDC7 JUMP JUMPDEST SWAP6 DUP9 DUP8 PUSH2 0x7CF JUMPI DUP1 RETURN JUMPDEST DUP3 MLOAD PUSH4 0xA9059CBB PUSH1 0xE0 SHL DUP2 MSTORE PUSH1 0x1 PUSH1 0x1 PUSH1 0xA0 SHL SUB DUP6 AND SWAP3 DUP2 ADD SWAP3 DUP4 MSTORE PUSH1 0x20 DUP4 ADD DUP10 SWAP1 MSTORE SWAP9 DUP7 SWAP3 DUP11 SWAP3 DUP4 SWAP2 DUP3 SWAP1 PUSH1 0x40 ADD SUB SWAP3 GAS CALL SWAP7 DUP8 ISZERO PUSH2 0x268 JUMPI PUSH32 0xDC8F7DBB2BDA12E6E832594FEBB6BD75A56D911F037D5BDCAE843E72C7F21796 SWAP6 SWAP7 SWAP8 PUSH2 0x846 JUMPI JUMPDEST POP MLOAD SWAP6 DUP7 MSTORE AND SWAP4 LOG3 PUSH0 DUP1 DUP1 DUP1 DUP1 DUP1 DUP1 DUP1 DUP9 DUP1 RETURN JUMPDEST PUSH2 0x85C SWAP1 DUP6 RETURNDATASIZE DUP8 GT PUSH2 0x261 JUMPI PUSH2 0x252 DUP2 DUP4 PUSH2 0xCF6 JUMP JUMPDEST POP PUSH0 PUSH2 0x832 JUMP JUMPDEST POP DUP6 DUP3 DUP2 RETURNDATASIZE DUP4 GT PUSH2 0x88B JUMPI JUMPDEST PUSH2 0x879 DUP2 DUP4 PUSH2 0xCF6 JUMP JUMPDEST DUP2 ADD SUB SLT PUSH2 0x2D2 JUMPI PUSH2 0x7C5 SWAP2 MLOAD PUSH2 0x7BB JUMP JUMPDEST POP RETURNDATASIZE PUSH2 0x86F JUMP JUMPDEST POP POP DUP9 SWAP8 PUSH2 0x792 JUMP JUMPDEST SWAP4 POP SWAP1 POP DUP7 DUP4 DUP2 RETURNDATASIZE DUP2 GT PUSH2 0x8CC JUMPI JUMPDEST PUSH2 0x8B4 DUP2 DUP4 PUSH2 0xCF6 JUMP JUMPDEST DUP2 ADD SUB SLT PUSH2 0x8C8 JUMPI SWAP2 MLOAD DUP6 SWAP3 PUSH2 0x77C PUSH2 0x76F JUMP JUMPDEST DUP11 DUP1 REVERT JUMPDEST POP RETURNDATASIZE PUSH2 0x8AA JUMP JUMPDEST DUP5 MLOAD RETURNDATASIZE DUP14 DUP3 RETURNDATACOPY RETURNDATASIZE SWAP1 REVERT JUMPDEST PUSH2 0x8F5 SWAP2 SWAP9 POP DUP6 RETURNDATASIZE DUP8 GT PUSH2 0x3F3 JUMPI PUSH2 0x3E4 DUP2 DUP4 PUSH2 0xCF6 JUMP JUMPDEST SWAP7 PUSH0 PUSH2 0x72E JUMP JUMPDEST SWAP2 SWAP1 POP CALLVALUE PUSH2 0x404 JUMPI PUSH1 0x20 SWAP1 DUP2 PUSH1 0x3 NOT CALLDATASIZE ADD SLT PUSH2 0xBC2 JUMPI PUSH1 0x1 PUSH1 0x1 PUSH1 0xA0 SHL SUB DUP1 PUSH2 0x923 PUSH2 0xCC6 JUMP JUMPDEST AND SWAP4 DUP3 MLOAD PUSH4 0x27A7D9A7 PUSH1 0xE2 SHL DUP2 MSTORE DUP5 DUP2 DUP4 DUP2 DUP10 GAS STATICCALL SWAP1 DUP2 ISZERO PUSH2 0xB45 JUMPI DUP8 SWAP2 PUSH2 0xBA5 JUMPI JUMPDEST POP PUSH1 0x6 DUP2 LT ISZERO PUSH2 0xB92 JUMPI PUSH1 0x2 SUB PUSH2 0xB4F JUMPI PUSH2 0x962 DUP6 ISZERO ISZERO PUSH2 0xD44 JUMP JUMPDEST DUP3 MLOAD PUSH4 0x6393BEF PUSH1 0xE1 SHL DUP2 MSTORE DUP5 DUP2 DUP4 DUP2 DUP10 GAS STATICCALL SWAP1 DUP2 ISZERO PUSH2 0xB45 JUMPI DUP8 SWAP2 PUSH2 0xB28 JUMPI JUMPDEST POP DUP4 MLOAD PUSH1 0x80 DUP2 ADD DUP2 DUP2 LT PUSH8 0xFFFFFFFFFFFFFFFF DUP3 GT OR PUSH2 0xB15 JUMPI SWAP1 DUP7 SWAP3 SWAP2 DUP7 MSTORE DUP9 DUP2 MSTORE PUSH1 0x3 DUP4 DUP3 ADD SWAP2 TIMESTAMP DUP4 MSTORE DUP8 DUP2 ADD DUP12 DUP2 MSTORE PUSH1 0x60 DUP3 ADD SWAP4 PUSH1 0x1 DUP6 MSTORE DUP12 DUP14 MSTORE DUP13 DUP8 MSTORE DUP10 DUP14 KECCAK256 SWAP3 MLOAD DUP4 SSTORE MLOAD PUSH1 0x1 DUP4 ADD SSTORE MLOAD PUSH1 0x2 DUP3 ADD SSTORE ADD SWAP1 MLOAD ISZERO ISZERO PUSH1 0xFF DUP1 NOT DUP4 SLOAD AND SWAP2 AND OR SWAP1 SSTORE PUSH1 0x24 DUP6 MLOAD DUP1 SWAP6 DUP2 SWAP4 PUSH4 0x70A08231 PUSH1 0xE0 SHL DUP4 MSTORE ADDRESS DUP8 DUP5 ADD MSTORE AND GAS STATICCALL SWAP2 DUP3 ISZERO PUSH2 0xB0B JUMPI DUP7 SWAP3 PUSH2 0xAD8 JUMPI JUMPDEST POP DUP5 DUP7 MSTORE DUP6 DUP5 MSTORE PUSH1 0xFF PUSH1 0x3 DUP5 DUP9 KECCAK256 ADD SLOAD AND ISZERO PUSH2 0xA80 JUMPI POP SWAP1 DUP4 PUSH32 0x85D2FEED54527387BAA716F3FB424C4C041DEBDB684687477EA362FDC1BF278C DUP5 PUSH0 DUP1 MLOAD PUSH1 0x20 PUSH2 0xF64 DUP4 CODECOPY DUP2 MLOAD SWAP2 MSTORE SWAP6 SWAP5 DUP4 DUP10 MSTORE DUP9 DUP3 MSTORE DUP5 DUP10 KECCAK256 PUSH2 0xA6F DUP3 DUP3 SLOAD PUSH2 0xDA6 JUMP JUMPDEST SWAP1 SSTORE DUP5 MLOAD SWAP1 DUP2 MSTORE LOG2 MLOAD PUSH1 0x1 DUP2 MSTORE LOG2 DUP1 RETURN JUMPDEST DUP3 MLOAD PUSH3 0x461BCD PUSH1 0xE5 SHL DUP2 MSTORE SWAP1 DUP2 ADD DUP5 SWAP1 MSTORE PUSH1 0x2C PUSH1 0x24 DUP3 ADD MSTORE PUSH32 0x496E746572657374206163637275616C206973206E6F74206163746976652066 PUSH1 0x44 DUP3 ADD MSTORE PUSH12 0x1BDC881D1A1A5CC81C1BDBDB PUSH1 0xA2 SHL PUSH1 0x64 DUP3 ADD MSTORE PUSH1 0x84 SWAP1 REVERT JUMPDEST SWAP1 SWAP2 POP DUP4 DUP2 DUP2 RETURNDATASIZE DUP4 GT PUSH2 0xB04 JUMPI JUMPDEST PUSH2 0xAF0 DUP2 DUP4 PUSH2 0xCF6 JUMP JUMPDEST DUP2 ADD SUB SLT PUSH2 0xB00 JUMPI MLOAD SWAP1 PUSH0 PUSH2 0xA10 JUMP JUMPDEST DUP6 DUP1 REVERT JUMPDEST POP RETURNDATASIZE PUSH2 0xAE6 JUMP JUMPDEST DUP4 MLOAD RETURNDATASIZE DUP9 DUP3 RETURNDATACOPY RETURNDATASIZE SWAP1 REVERT JUMPDEST PUSH4 0x4E487B71 PUSH1 0xE0 SHL DUP10 MSTORE PUSH1 0x41 DUP5 MSTORE PUSH1 0x24 DUP10 REVERT JUMPDEST PUSH2 0xB3F SWAP2 POP DUP6 RETURNDATASIZE DUP8 GT PUSH2 0x3F3 JUMPI PUSH2 0x3E4 DUP2 DUP4 PUSH2 0xCF6 JUMP JUMPDEST PUSH0 PUSH2 0x983 JUMP JUMPDEST DUP5 MLOAD RETURNDATASIZE DUP10 DUP3 RETURNDATACOPY RETURNDATASIZE SWAP1 REVERT JUMPDEST DUP3 MLOAD PUSH3 0x461BCD PUSH1 0xE5 SHL DUP2 MSTORE SWAP1 DUP2 ADD DUP5 SWAP1 MSTORE PUSH1 0x1F PUSH1 0x24 DUP3 ADD MSTORE PUSH32 0x4C6F616E206D7573742062652061637469766520746F20726567697374657200 PUSH1 0x44 DUP3 ADD MSTORE PUSH1 0x64 SWAP1 REVERT JUMPDEST PUSH4 0x4E487B71 PUSH1 0xE0 SHL DUP8 MSTORE PUSH1 0x21 DUP3 MSTORE PUSH1 0x24 DUP8 REVERT JUMPDEST PUSH2 0xBBC SWAP2 POP DUP6 RETURNDATASIZE DUP8 GT PUSH2 0x380 JUMPI PUSH2 0x372 DUP2 DUP4 PUSH2 0xCF6 JUMP JUMPDEST PUSH0 PUSH2 0x946 JUMP JUMPDEST DUP4 DUP1 REVERT JUMPDEST POP POP CALLVALUE PUSH2 0xC9 JUMPI PUSH1 0x20 CALLDATASIZE PUSH1 0x3 NOT ADD SLT PUSH2 0xC9 JUMPI PUSH1 0x20 SWAP1 PUSH2 0xBEC PUSH2 0xBE7 PUSH2 0xCC6 JUMP JUMPDEST PUSH2 0xE1D JUMP JUMPDEST SWAP1 MLOAD SWAP1 DUP2 MSTORE RETURN JUMPDEST SWAP2 SWAP1 POP CALLVALUE PUSH2 0x404 JUMPI PUSH1 0x20 CALLDATASIZE PUSH1 0x3 NOT ADD SLT PUSH2 0x404 JUMPI PUSH1 0x1 PUSH1 0x1 PUSH1 0xA0 SHL SUB PUSH2 0xC17 PUSH2 0xCC6 JUMP JUMPDEST AND SWAP2 PUSH2 0xC24 DUP4 ISZERO ISZERO PUSH2 0xD44 JUMP JUMPDEST DUP3 DUP5 MSTORE DUP4 PUSH1 0x20 MSTORE PUSH1 0xFF PUSH1 0x3 DUP4 DUP7 KECCAK256 ADD SLOAD AND ISZERO PUSH2 0xC71 JUMPI POP PUSH1 0x20 PUSH0 DUP1 MLOAD PUSH1 0x20 PUSH2 0xF64 DUP4 CODECOPY DUP2 MLOAD SWAP2 MSTORE SWAP2 DUP4 DUP6 MSTORE DUP5 DUP3 MSTORE DUP5 PUSH1 0x3 DUP3 DUP3 KECCAK256 DUP3 DUP2 SSTORE DUP3 PUSH1 0x1 DUP3 ADD SSTORE DUP3 PUSH1 0x2 DUP3 ADD SSTORE ADD SSTORE MLOAD DUP5 DUP2 MSTORE LOG2 DUP1 RETURN JUMPDEST PUSH1 0x20 PUSH1 0x84 SWAP3 MLOAD SWAP2 PUSH3 0x461BCD PUSH1 0xE5 SHL DUP4 MSTORE DUP3 ADD MSTORE PUSH1 0x2A PUSH1 0x24 DUP3 ADD MSTORE PUSH32 0x506F6F6C206973206E6F7420616374697665206F7220616C7265616479206465 PUSH1 0x44 DUP3 ADD MSTORE PUSH10 0x1C9959DA5CDD195C9959 PUSH1 0xB2 SHL PUSH1 0x64 DUP3 ADD MSTORE REVERT JUMPDEST PUSH1 0x4 CALLDATALOAD SWAP1 PUSH1 0x1 PUSH1 0x1 PUSH1 0xA0 SHL SUB DUP3 AND DUP3 SUB PUSH2 0xCDC JUMPI JUMP JUMPDEST PUSH0 DUP1 REVERT JUMPDEST PUSH1 0x24 CALLDATALOAD SWAP1 PUSH1 0x1 PUSH1 0x1 PUSH1 0xA0 SHL SUB DUP3 AND DUP3 SUB PUSH2 0xCDC JUMPI JUMP JUMPDEST SWAP1 PUSH1 0x1F DUP1 NOT SWAP2 ADD AND DUP2 ADD SWAP1 DUP2 LT PUSH8 0xFFFFFFFFFFFFFFFF DUP3 GT OR PUSH2 0xD18 JUMPI PUSH1 0x40 MSTORE JUMP JUMPDEST PUSH4 0x4E487B71 PUSH1 0xE0 SHL PUSH0 MSTORE PUSH1 0x41 PUSH1 0x4 MSTORE PUSH1 0x24 PUSH0 REVERT JUMPDEST SWAP1 DUP2 PUSH1 0x20 SWAP2 SUB SLT PUSH2 0xCDC JUMPI MLOAD PUSH1 0x6 DUP2 LT ISZERO PUSH2 0xCDC JUMPI SWAP1 JUMP JUMPDEST ISZERO PUSH2 0xD4B JUMPI JUMP JUMPDEST PUSH1 0x40 MLOAD PUSH3 0x461BCD PUSH1 0xE5 SHL DUP2 MSTORE PUSH1 0x20 PUSH1 0x4 DUP3 ADD MSTORE PUSH1 0x14 PUSH1 0x24 DUP3 ADD MSTORE PUSH20 0x496E76616C696420706F6F6C2061646472657373 PUSH1 0x60 SHL PUSH1 0x44 DUP3 ADD MSTORE PUSH1 0x64 SWAP1 REVERT JUMPDEST SWAP1 DUP2 PUSH1 0x20 SWAP2 SUB SLT PUSH2 0xCDC JUMPI MLOAD PUSH1 0x1 PUSH1 0x1 PUSH1 0xA0 SHL SUB DUP2 AND DUP2 SUB PUSH2 0xCDC JUMPI SWAP1 JUMP JUMPDEST SWAP2 SWAP1 DUP3 ADD DUP1 SWAP3 GT PUSH2 0xDB3 JUMPI JUMP JUMPDEST PUSH4 0x4E487B71 PUSH1 0xE0 SHL PUSH0 MSTORE PUSH1 0x11 PUSH1 0x4 MSTORE PUSH1 0x24 PUSH0 REVERT JUMPDEST SWAP2 SWAP1 DUP3 SUB SWAP2 DUP3 GT PUSH2 0xDB3 JUMPI JUMP JUMPDEST SWAP1 DUP2 PUSH1 0x20 SWAP2 SUB SLT PUSH2 0xCDC JUMPI MLOAD DUP1 ISZERO ISZERO DUP2 SUB PUSH2 0xCDC JUMPI SWAP1 JUMP JUMPDEST DUP2 DUP2 MUL SWAP3 SWAP2 DUP2 ISZERO SWAP2 DUP5 DIV EQ OR ISZERO PUSH2 0xDB3 JUMPI JUMP JUMPDEST DUP2 ISZERO PUSH2 0xE09 JUMPI DIV SWAP1 JUMP JUMPDEST PUSH4 0x4E487B71 PUSH1 0xE0 SHL PUSH0 MSTORE PUSH1 0x12 PUSH1 0x4 MSTORE PUSH1 0x24 PUSH0 REVERT JUMPDEST PUSH1 0x1 PUSH1 0x1 PUSH1 0xA0 SHL SUB AND PUSH2 0xE31 DUP2 ISZERO ISZERO PUSH2 0xD44 JUMP JUMPDEST PUSH0 SWAP1 DUP1 DUP3 MSTORE PUSH1 0x20 SWAP1 DUP3 DUP3 MSTORE PUSH1 0x40 DUP4 KECCAK256 SWAP2 PUSH1 0xFF PUSH1 0x3 DUP5 ADD SLOAD AND ISZERO PUSH2 0xF5D JUMPI DUP1 PUSH1 0x4 SWAP3 PUSH1 0x40 MLOAD SWAP4 DUP5 DUP1 SWAP3 PUSH4 0x19312FB PUSH1 0xE6 SHL DUP3 MSTORE GAS STATICCALL SWAP2 DUP3 ISZERO PUSH2 0xF52 JUMPI DUP5 SWAP3 PUSH2 0xF23 JUMPI JUMPDEST POP DUP2 ISZERO PUSH2 0xECC JUMPI POP PUSH2 0xEA7 PUSH1 0x2 SWAP2 PUSH2 0xE8F PUSH1 0x1 DUP6 ADD SLOAD TIMESTAMP PUSH2 0xDC7 JUMP JUMPDEST DUP2 DUP2 GT PUSH2 0xEC5 JUMPI JUMPDEST PUSH2 0xEA2 SWAP1 DUP6 SLOAD PUSH2 0xDEC JUMP JUMPDEST PUSH2 0xDFF JUMP JUMPDEST SWAP2 ADD SLOAD SWAP1 DUP2 DUP2 GT ISZERO PUSH2 0xEC0 JUMPI PUSH2 0xEBD SWAP3 POP PUSH2 0xDC7 JUMP JUMPDEST SWAP1 JUMP JUMPDEST POP POP SWAP1 JUMP JUMPDEST POP DUP1 PUSH2 0xE97 JUMP JUMPDEST PUSH1 0x84 SWAP1 PUSH1 0x40 MLOAD SWAP1 PUSH3 0x461BCD PUSH1 0xE5 SHL DUP3 MSTORE PUSH1 0x4 DUP3 ADD MSTORE PUSH1 0x2A PUSH1 0x24 DUP3 ADD MSTORE PUSH32 0x52657061796D656E7420706572696F64206D7573742062652067726561746572 PUSH1 0x44 DUP3 ADD MSTORE PUSH10 0x207468616E207A65726F PUSH1 0xB0 SHL PUSH1 0x64 DUP3 ADD MSTORE REVERT JUMPDEST SWAP1 DUP1 SWAP3 POP DUP2 DUP2 RETURNDATASIZE DUP4 GT PUSH2 0xF4B JUMPI JUMPDEST PUSH2 0xF3B DUP2 DUP4 PUSH2 0xCF6 JUMP JUMPDEST DUP2 ADD SUB SLT PUSH2 0xBC2 JUMPI MLOAD SWAP1 PUSH0 PUSH2 0xE73 JUMP JUMPDEST POP RETURNDATASIZE PUSH2 0xF31 JUMP JUMPDEST PUSH1 0x40 MLOAD RETURNDATASIZE DUP7 DUP3 RETURNDATACOPY RETURNDATASIZE SWAP1 REVERT JUMPDEST POP POP POP SWAP1 JUMP INVALID 0xD7 RETURNDATASIZE ADDRESS 0xAC 0xC0 SWAP9 0xB2 SIGNEXTEND 0xED ADDMOD 0xC7 NUMBER DUP16 INVALID SGT 0xE0 0xFC 0x22 0xF7 0x2E DIV PUSH20 0x10EA82346FD5F2157694A2646970667358221220 SWAP8 0xB0 0xF7 0xE7 0xC2 DUP15 SWAP6 0xF8 0xE6 0xBB SWAP1 PUSH16 0x9EE09AC0A82B96AAEB45C4D936E9C9F3 0xE6 MSTORE8 0x4E CALLVALUE PUSH5 0x736F6C6343 STOP ADDMOD EQ STOP CALLER "
		},
		"gasEstimates": {
			"creation": {
				"codeDepositCost": "805000",
				"executionCost": "846",
				"totalCost": "805846"
			},
			"external": {
				"calculateClaimableInterest(address)": "infinite",
				"deregisterVault(address)": "infinite",
				"distributeInterest(address,address)": "infinite",
				"handleDefault(address,address)": "infinite",
				"interestInfo(address)": "8948",
				"refundRemainingInterest(address,address)": "infinite",
				"registerPoolVault(address)": "infinite"
			},
			"internal": {
				"handleInterest(address,uint256)": "infinite"
			}
		},
		"methodIdentifiers": {
			"calculateClaimableInterest(address)": "51b2d521",
			"deregisterVault(address)": "38e270ed",
			"distributeInterest(address,address)": "d302bf76",
			"handleDefault(address,address)": "713c00ce",
			"interestInfo(address)": "fb96b135",
			"refundRemainingInterest(address,address)": "56f78a1d",
			"registerPoolVault(address)": "5228a4da"
		}
	},
	"abi": [
		{
			"anonymous": false,
			"inputs": [
				{
					"indexed": true,
					"internalType": "address",
					"name": "pool",
					"type": "address"
				},
				{
					"indexed": false,
					"internalType": "bool",
					"name": "status",
					"type": "bool"
				}
			],
			"name": "InterestAccrualToggled",
			"type": "event"
		},
		{
			"anonymous": false,
			"inputs": [
				{
					"indexed": true,
					"internalType": "address",
					"name": "pool",
					"type": "address"
				},
				{
					"indexed": false,
					"internalType": "uint256",
					"name": "amount",
					"type": "uint256"
				}
			],
			"name": "InterestDeposited",
			"type": "event"
		},
		{
			"anonymous": false,
			"inputs": [
				{
					"indexed": true,
					"internalType": "address",
					"name": "pool",
					"type": "address"
				},
				{
					"indexed": true,
					"internalType": "address",
					"name": "to",
					"type": "address"
				},
				{
					"indexed": false,
					"internalType": "uint256",
					"name": "amount",
					"type": "uint256"
				}
			],
			"name": "InterestPaid",
			"type": "event"
		},
		{
			"anonymous": false,
			"inputs": [
				{
					"indexed": true,
					"internalType": "address",
					"name": "pool",
					"type": "address"
				},
				{
					"indexed": true,
					"internalType": "address",
					"name": "to",
					"type": "address"
				},
				{
					"indexed": false,
					"internalType": "uint256",
					"name": "amount",
					"type": "uint256"
				}
			],
			"name": "InterestRefunded",
			"type": "event"
		},
		{
			"inputs": [
				{
					"internalType": "address",
					"name": "pool",
					"type": "address"
				}
			],
			"name": "calculateClaimableInterest",
			"outputs": [
				{
					"internalType": "uint256",
					"name": "",
					"type": "uint256"
				}
			],
			"stateMutability": "view",
			"type": "function"
		},
		{
			"inputs": [
				{
					"internalType": "address",
					"name": "pool",
					"type": "address"
				}
			],
			"name": "deregisterVault",
			"outputs": [],
			"stateMutability": "nonpayable",
			"type": "function"
		},
		{
			"inputs": [
				{
					"internalType": "address",
					"name": "pool",
					"type": "address"
				},
				{
					"internalType": "address",
					"name": "to",
					"type": "address"
				}
			],
			"name": "distributeInterest",
			"outputs": [],
			"stateMutability": "nonpayable",
			"type": "function"
		},
		{
			"inputs": [
				{
					"internalType": "address",
					"name": "pool",
					"type": "address"
				},
				{
					"internalType": "address",
					"name": "lender",
					"type": "address"
				}
			],
			"name": "handleDefault",
			"outputs": [],
			"stateMutability": "nonpayable",
			"type": "function"
		},
		{
			"inputs": [
				{
					"internalType": "address",
					"name": "",
					"type": "address"
				}
			],
			"name": "interestInfo",
			"outputs": [
				{
					"internalType": "uint256",
					"name": "totalInterest",
					"type": "uint256"
				},
				{
					"internalType": "uint256",
					"name": "paymentStartBlock",
					"type": "uint256"
				},
				{
					"internalType": "uint256",
					"name": "interestPaid",
					"type": "uint256"
				},
				{
					"internalType": "bool",
					"name": "isAccruing",
					"type": "bool"
				}
			],
			"stateMutability": "view",
			"type": "function"
		},
		{
			"inputs": [
				{
					"internalType": "address",
					"name": "pool",
					"type": "address"
				},
				{
					"internalType": "address",
					"name": "borrower",
					"type": "address"
				}
			],
			"name": "refundRemainingInterest",
			"outputs": [],
			"stateMutability": "nonpayable",
			"type": "function"
		},
		{
			"inputs": [
				{
					"internalType": "address",
					"name": "pool",
					"type": "address"
				}
			],
			"name": "registerPoolVault",
			"outputs": [],
			"stateMutability": "nonpayable",
			"type": "function"
		}
	]
}