{
	"data": {
		"bytecode": {
			"linkReferences": {},
			"object": "60808060405234601557610c44908161001a8239f35b5f80fdfe6080604090808252600480361015610015575f80fd5b5f3560e01c91826338e270ed146109145750816351b2d521146108e85781635228a4da1461078157816356f78a1d14610570578163d026759d14610495578163d302bf76146100cd575063fb96b1351461006d575f80fd5b346100c95760203660031901126100c9576080906001600160a01b036100916109ec565b165f525f602052805f209081549160018101549160ff6003600284015493015416928151948552602085015283015215156060820152f35b5f80fd5b9050346100c957816003193601126100c9576100e76109ec565b6100ef610a02565b83516306393bef60e11b8152936001600160a01b038084169360209391929084888881895afa97881561048b575f98610458575b5061012d90610aa0565b968515158061044d575b156104185781516327a7d9a760e21b8152858189818a5afa90811561036e575f916103eb575b5060068110156103d8576002036103785783169581516370a0823160e01b8152308282015285816024818b5afa90811561036e579089915f9161033d575b501061030757815163a9059cbb60e01b8082526001600160a01b038516838301908152602081018b905290919087908290819060400103815f8d5af19081156102fd575f916102e0575b50156102ac57886101f257005b82519081526001600160a01b038416918101918252602082018990529796859189919082905f90829060400103925af19687156102a2577ff75e0f5f6602ca4c59226d587ca078ea5a4ac300638072b99386035b776f2644959697610275575b50855f525f84526002815f200161026a888254610c01565b9055519586521693a3005b61029490853d871161029b575b61028c8183610a18565b810190610be9565b505f610252565b503d610282565b50513d5f823e3d90fd5b5084606492519162461bcd60e51b8352820152600f60248201526e151c985b9cd9995c8819985a5b1959608a1b6044820152fd5b6102f79150873d891161029b5761028c8183610a18565b5f6101e5565b84513d5f823e3d90fd5b84606492519162461bcd60e51b83528201526012602482015271496e73756666696369656e742066756e647360701b6044820152fd5b809250878092503d8311610367575b6103568183610a18565b810103126100c9578890515f61019b565b503d61034c565b83513d5f823e3d90fd5b815162461bcd60e51b8152808801869052603460248201527f496e7465726573742063616e206f6e6c79206265206469737472696275746564604482015273207768656e206c6f616e2069732061637469766560601b6064820152608490fd5b602188634e487b7160e01b5f525260245ffd5b61040b9150863d8811610411575b6104038183610a18565b810190610bb2565b5f61015d565b503d6103f9565b815162461bcd60e51b8152808801869052600f60248201526e496e76616c6964206164647265737360881b6044820152606490fd5b508383161515610137565b61012d91985061047d90863d8811610484575b6104758183610a18565b810190610bca565b9790610123565b503d61046b565b82513d5f823e3d90fd5b82346100c957806003193601126100c9576104ae6109ec565b6001600160a01b03165f8181526020819052829020600301549092602435929160ff161561051957507f85d2feed54527387baa716f3fb424c4c041debdb684687477ea362fdc1bf278c91602091845f525f8352805f20610510838254610c01565b905551908152a2005b6020608492519162461bcd60e51b8352820152602c60248201527f496e746572657374206163637275616c206973206e6f7420616374697665206660448201526b1bdc881d1a1a5cc81c1bdbdb60a21b6064820152fd5b82346100c957806003193601126100c9576105896109ec565b610591610a02565b60018060a01b0380921691825f526020915f8352845f20948051956306393bef60e11b875284878981895afa96871561048b575f97610762575b506105e581546105df600184015443610a4e565b90610a6f565b825163019312fb60e61b81529086828b818b5afa9182156102fd5790869392915f9261072e575b5060029161061991610a82565b910154808211156107255761062d91610a4e565b965b82516370a0823160e01b8152308a82015291169685826024818b5afa801561036e575f906106f6575b6106629250610a4e565b958661066a57005b815163a9059cbb60e01b81526001600160a01b03841698810198895260208901889052978591899182905f90829060400103925af19687156102a2577fdc8f7dbb2bda12e6e832594febb6bd75a56d911f037d5bdcae843e72c7f217969596976106d9575b50519586521693a3005b6106ef90853d871161029b5761028c8183610a18565b50876106cf565b508582813d831161071e575b61070c8183610a18565b810103126100c9576106629151610658565b503d610702565b50505f9661062f565b935090508683813d811161075b575b6107478183610a18565b810103126100c9579151859261061961060c565b503d61073d565b61077a919750853d8711610484576104758183610a18565b95886105cb565b82346100c9576020806003193601126100c9576001600160a01b036107a46109ec565b169180516327a7d9a760e21b815282818681875afa90811561048b575f916108cb575b5060068110156108b8576002036108775780516080810181811067ffffffffffffffff821117610864577fd73d30acc098b20bed08c7438ffe13e0fc22f72e047310ea82346fd5f215769494955082525f81526003838201914383528381015f8152606082019360018552885f525f8752855f2092518355516001830155516002820155019051151560ff801983541691161790555160018152a2005b604186634e487b7160e01b5f525260245ffd5b5162461bcd60e51b81529283015250601f60248201527f4c6f616e206d7573742062652061637469766520746f207265676973746572006044820152606490fd5b602185634e487b7160e01b5f525260245ffd5b6108e29150833d8511610411576104038183610a18565b856107c7565b82346100c95760203660031901126100c95760209061090d6109086109ec565b610aa0565b9051908152f35b8390346100c95760203660031901126100c9576001600160a01b036109376109ec565b1692835f525f60205260ff6003845f200154161561099857837fd73d30acc098b20bed08c7438ffe13e0fc22f72e047310ea82346fd5f2157694602085835f525f82525f60038282208281558260018201558260028201550155515f8152a2005b62461bcd60e51b8252602090820152602a60248201527f506f6f6c206973206e6f7420616374697665206f7220616c72656164792064656044820152691c9959da5cdd195c995960b21b6064820152608490fd5b600435906001600160a01b03821682036100c957565b602435906001600160a01b03821682036100c957565b90601f8019910116810190811067ffffffffffffffff821117610a3a57604052565b634e487b7160e01b5f52604160045260245ffd5b91908203918211610a5b57565b634e487b7160e01b5f52601160045260245ffd5b81810292918115918404141715610a5b57565b8115610a8c570490565b634e487b7160e01b5f52601260045260245ffd5b6001600160a01b03168015610b7657805f525f60205260405f2060ff60038201541615610b705760206004926040519384809263019312fb60e61b82525afa918215610b65575f92610b30575b506002610b1d610b2693610b05600185015443610a4e565b818111610b29575b610b18908554610a6f565b610a82565b91015490610a4e565b90565b5080610b0d565b91506020823d602011610b5d575b81610b4b60209383610a18565b810103126100c9579051906002610aed565b3d9150610b3e565b6040513d5f823e3d90fd5b50505f90565b60405162461bcd60e51b8152602060048201526014602482015273496e76616c696420706f6f6c206164647265737360601b6044820152606490fd5b908160209103126100c9575160068110156100c95790565b908160209103126100c957516001600160a01b03811681036100c95790565b908160209103126100c9575180151581036100c95790565b91908201809211610a5b5756fea264697066735822122031c68be69ed3cb0b3960f910c31d3b81909fdc1ae731f5ddd69c317b0647a4f264736f6c63430008190033",
			"opcodes": "PUSH1 0x80 DUP1 PUSH1 0x40 MSTORE CALLVALUE PUSH1 0x15 JUMPI PUSH2 0xC44 SWAP1 DUP2 PUSH2 0x1A DUP3 CODECOPY RETURN JUMPDEST PUSH0 DUP1 REVERT INVALID PUSH1 0x80 PUSH1 0x40 SWAP1 DUP1 DUP3 MSTORE PUSH1 0x4 DUP1 CALLDATASIZE LT ISZERO PUSH2 0x15 JUMPI PUSH0 DUP1 REVERT JUMPDEST PUSH0 CALLDATALOAD PUSH1 0xE0 SHR SWAP2 DUP3 PUSH4 0x38E270ED EQ PUSH2 0x914 JUMPI POP DUP2 PUSH4 0x51B2D521 EQ PUSH2 0x8E8 JUMPI DUP2 PUSH4 0x5228A4DA EQ PUSH2 0x781 JUMPI DUP2 PUSH4 0x56F78A1D EQ PUSH2 0x570 JUMPI DUP2 PUSH4 0xD026759D EQ PUSH2 0x495 JUMPI DUP2 PUSH4 0xD302BF76 EQ PUSH2 0xCD JUMPI POP PUSH4 0xFB96B135 EQ PUSH2 0x6D JUMPI PUSH0 DUP1 REVERT JUMPDEST CALLVALUE PUSH2 0xC9 JUMPI PUSH1 0x20 CALLDATASIZE PUSH1 0x3 NOT ADD SLT PUSH2 0xC9 JUMPI PUSH1 0x80 SWAP1 PUSH1 0x1 PUSH1 0x1 PUSH1 0xA0 SHL SUB PUSH2 0x91 PUSH2 0x9EC JUMP JUMPDEST AND PUSH0 MSTORE PUSH0 PUSH1 0x20 MSTORE DUP1 PUSH0 KECCAK256 SWAP1 DUP2 SLOAD SWAP2 PUSH1 0x1 DUP2 ADD SLOAD SWAP2 PUSH1 0xFF PUSH1 0x3 PUSH1 0x2 DUP5 ADD SLOAD SWAP4 ADD SLOAD AND SWAP3 DUP2 MLOAD SWAP5 DUP6 MSTORE PUSH1 0x20 DUP6 ADD MSTORE DUP4 ADD MSTORE ISZERO ISZERO PUSH1 0x60 DUP3 ADD MSTORE RETURN JUMPDEST PUSH0 DUP1 REVERT JUMPDEST SWAP1 POP CALLVALUE PUSH2 0xC9 JUMPI DUP2 PUSH1 0x3 NOT CALLDATASIZE ADD SLT PUSH2 0xC9 JUMPI PUSH2 0xE7 PUSH2 0x9EC JUMP JUMPDEST PUSH2 0xEF PUSH2 0xA02 JUMP JUMPDEST DUP4 MLOAD PUSH4 0x6393BEF PUSH1 0xE1 SHL DUP2 MSTORE SWAP4 PUSH1 0x1 PUSH1 0x1 PUSH1 0xA0 SHL SUB DUP1 DUP5 AND SWAP4 PUSH1 0x20 SWAP4 SWAP2 SWAP3 SWAP1 DUP5 DUP9 DUP9 DUP2 DUP10 GAS STATICCALL SWAP8 DUP9 ISZERO PUSH2 0x48B JUMPI PUSH0 SWAP9 PUSH2 0x458 JUMPI JUMPDEST POP PUSH2 0x12D SWAP1 PUSH2 0xAA0 JUMP JUMPDEST SWAP7 DUP6 ISZERO ISZERO DUP1 PUSH2 0x44D JUMPI JUMPDEST ISZERO PUSH2 0x418 JUMPI DUP2 MLOAD PUSH4 0x27A7D9A7 PUSH1 0xE2 SHL DUP2 MSTORE DUP6 DUP2 DUP10 DUP2 DUP11 GAS STATICCALL SWAP1 DUP2 ISZERO PUSH2 0x36E JUMPI PUSH0 SWAP2 PUSH2 0x3EB JUMPI JUMPDEST POP PUSH1 0x6 DUP2 LT ISZERO PUSH2 0x3D8 JUMPI PUSH1 0x2 SUB PUSH2 0x378 JUMPI DUP4 AND SWAP6 DUP2 MLOAD PUSH4 0x70A08231 PUSH1 0xE0 SHL DUP2 MSTORE ADDRESS DUP3 DUP3 ADD MSTORE DUP6 DUP2 PUSH1 0x24 DUP2 DUP12 GAS STATICCALL SWAP1 DUP2 ISZERO PUSH2 0x36E JUMPI SWAP1 DUP10 SWAP2 PUSH0 SWAP2 PUSH2 0x33D JUMPI JUMPDEST POP LT PUSH2 0x307 JUMPI DUP2 MLOAD PUSH4 0xA9059CBB PUSH1 0xE0 SHL DUP1 DUP3 MSTORE PUSH1 0x1 PUSH1 0x1 PUSH1 0xA0 SHL SUB DUP6 AND DUP4 DUP4 ADD SWAP1 DUP2 MSTORE PUSH1 0x20 DUP2 ADD DUP12 SWAP1 MSTORE SWAP1 SWAP2 SWAP1 DUP8 SWAP1 DUP3 SWAP1 DUP2 SWAP1 PUSH1 0x40 ADD SUB DUP2 PUSH0 DUP14 GAS CALL SWAP1 DUP2 ISZERO PUSH2 0x2FD JUMPI PUSH0 SWAP2 PUSH2 0x2E0 JUMPI JUMPDEST POP ISZERO PUSH2 0x2AC JUMPI DUP9 PUSH2 0x1F2 JUMPI STOP JUMPDEST DUP3 MLOAD SWAP1 DUP2 MSTORE PUSH1 0x1 PUSH1 0x1 PUSH1 0xA0 SHL SUB DUP5 AND SWAP2 DUP2 ADD SWAP2 DUP3 MSTORE PUSH1 0x20 DUP3 ADD DUP10 SWAP1 MSTORE SWAP8 SWAP7 DUP6 SWAP2 DUP10 SWAP2 SWAP1 DUP3 SWAP1 PUSH0 SWAP1 DUP3 SWAP1 PUSH1 0x40 ADD SUB SWAP3 GAS CALL SWAP7 DUP8 ISZERO PUSH2 0x2A2 JUMPI PUSH32 0xF75E0F5F6602CA4C59226D587CA078EA5A4AC300638072B99386035B776F2644 SWAP6 SWAP7 SWAP8 PUSH2 0x275 JUMPI JUMPDEST POP DUP6 PUSH0 MSTORE PUSH0 DUP5 MSTORE PUSH1 0x2 DUP2 PUSH0 KECCAK256 ADD PUSH2 0x26A DUP9 DUP3 SLOAD PUSH2 0xC01 JUMP JUMPDEST SWAP1 SSTORE MLOAD SWAP6 DUP7 MSTORE AND SWAP4 LOG3 STOP JUMPDEST PUSH2 0x294 SWAP1 DUP6 RETURNDATASIZE DUP8 GT PUSH2 0x29B JUMPI JUMPDEST PUSH2 0x28C DUP2 DUP4 PUSH2 0xA18 JUMP JUMPDEST DUP2 ADD SWAP1 PUSH2 0xBE9 JUMP JUMPDEST POP PUSH0 PUSH2 0x252 JUMP JUMPDEST POP RETURNDATASIZE PUSH2 0x282 JUMP JUMPDEST POP MLOAD RETURNDATASIZE PUSH0 DUP3 RETURNDATACOPY RETURNDATASIZE SWAP1 REVERT JUMPDEST POP DUP5 PUSH1 0x64 SWAP3 MLOAD SWAP2 PUSH3 0x461BCD PUSH1 0xE5 SHL DUP4 MSTORE DUP3 ADD MSTORE PUSH1 0xF PUSH1 0x24 DUP3 ADD MSTORE PUSH15 0x151C985B9CD9995C8819985A5B1959 PUSH1 0x8A SHL PUSH1 0x44 DUP3 ADD MSTORE REVERT JUMPDEST PUSH2 0x2F7 SWAP2 POP DUP8 RETURNDATASIZE DUP10 GT PUSH2 0x29B JUMPI PUSH2 0x28C DUP2 DUP4 PUSH2 0xA18 JUMP JUMPDEST PUSH0 PUSH2 0x1E5 JUMP JUMPDEST DUP5 MLOAD RETURNDATASIZE PUSH0 DUP3 RETURNDATACOPY RETURNDATASIZE SWAP1 REVERT JUMPDEST DUP5 PUSH1 0x64 SWAP3 MLOAD SWAP2 PUSH3 0x461BCD PUSH1 0xE5 SHL DUP4 MSTORE DUP3 ADD MSTORE PUSH1 0x12 PUSH1 0x24 DUP3 ADD MSTORE PUSH18 0x496E73756666696369656E742066756E6473 PUSH1 0x70 SHL PUSH1 0x44 DUP3 ADD MSTORE REVERT JUMPDEST DUP1 SWAP3 POP DUP8 DUP1 SWAP3 POP RETURNDATASIZE DUP4 GT PUSH2 0x367 JUMPI JUMPDEST PUSH2 0x356 DUP2 DUP4 PUSH2 0xA18 JUMP JUMPDEST DUP2 ADD SUB SLT PUSH2 0xC9 JUMPI DUP9 SWAP1 MLOAD PUSH0 PUSH2 0x19B JUMP JUMPDEST POP RETURNDATASIZE PUSH2 0x34C JUMP JUMPDEST DUP4 MLOAD RETURNDATASIZE PUSH0 DUP3 RETURNDATACOPY RETURNDATASIZE SWAP1 REVERT JUMPDEST DUP2 MLOAD PUSH3 0x461BCD PUSH1 0xE5 SHL DUP2 MSTORE DUP1 DUP9 ADD DUP7 SWAP1 MSTORE PUSH1 0x34 PUSH1 0x24 DUP3 ADD MSTORE PUSH32 0x496E7465726573742063616E206F6E6C79206265206469737472696275746564 PUSH1 0x44 DUP3 ADD MSTORE PUSH20 0x207768656E206C6F616E20697320616374697665 PUSH1 0x60 SHL PUSH1 0x64 DUP3 ADD MSTORE PUSH1 0x84 SWAP1 REVERT JUMPDEST PUSH1 0x21 DUP9 PUSH4 0x4E487B71 PUSH1 0xE0 SHL PUSH0 MSTORE MSTORE PUSH1 0x24 PUSH0 REVERT JUMPDEST PUSH2 0x40B SWAP2 POP DUP7 RETURNDATASIZE DUP9 GT PUSH2 0x411 JUMPI JUMPDEST PUSH2 0x403 DUP2 DUP4 PUSH2 0xA18 JUMP JUMPDEST DUP2 ADD SWAP1 PUSH2 0xBB2 JUMP JUMPDEST PUSH0 PUSH2 0x15D JUMP JUMPDEST POP RETURNDATASIZE PUSH2 0x3F9 JUMP JUMPDEST DUP2 MLOAD PUSH3 0x461BCD PUSH1 0xE5 SHL DUP2 MSTORE DUP1 DUP9 ADD DUP7 SWAP1 MSTORE PUSH1 0xF PUSH1 0x24 DUP3 ADD MSTORE PUSH15 0x496E76616C69642061646472657373 PUSH1 0x88 SHL PUSH1 0x44 DUP3 ADD MSTORE PUSH1 0x64 SWAP1 REVERT JUMPDEST POP DUP4 DUP4 AND ISZERO ISZERO PUSH2 0x137 JUMP JUMPDEST PUSH2 0x12D SWAP2 SWAP9 POP PUSH2 0x47D SWAP1 DUP7 RETURNDATASIZE DUP9 GT PUSH2 0x484 JUMPI JUMPDEST PUSH2 0x475 DUP2 DUP4 PUSH2 0xA18 JUMP JUMPDEST DUP2 ADD SWAP1 PUSH2 0xBCA JUMP JUMPDEST SWAP8 SWAP1 PUSH2 0x123 JUMP JUMPDEST POP RETURNDATASIZE PUSH2 0x46B JUMP JUMPDEST DUP3 MLOAD RETURNDATASIZE PUSH0 DUP3 RETURNDATACOPY RETURNDATASIZE SWAP1 REVERT JUMPDEST DUP3 CALLVALUE PUSH2 0xC9 JUMPI DUP1 PUSH1 0x3 NOT CALLDATASIZE ADD SLT PUSH2 0xC9 JUMPI PUSH2 0x4AE PUSH2 0x9EC JUMP JUMPDEST PUSH1 0x1 PUSH1 0x1 PUSH1 0xA0 SHL SUB AND PUSH0 DUP2 DUP2 MSTORE PUSH1 0x20 DUP2 SWAP1 MSTORE DUP3 SWAP1 KECCAK256 PUSH1 0x3 ADD SLOAD SWAP1 SWAP3 PUSH1 0x24 CALLDATALOAD SWAP3 SWAP2 PUSH1 0xFF AND ISZERO PUSH2 0x519 JUMPI POP PUSH32 0x85D2FEED54527387BAA716F3FB424C4C041DEBDB684687477EA362FDC1BF278C SWAP2 PUSH1 0x20 SWAP2 DUP5 PUSH0 MSTORE PUSH0 DUP4 MSTORE DUP1 PUSH0 KECCAK256 PUSH2 0x510 DUP4 DUP3 SLOAD PUSH2 0xC01 JUMP JUMPDEST SWAP1 SSTORE MLOAD SWAP1 DUP2 MSTORE LOG2 STOP JUMPDEST PUSH1 0x20 PUSH1 0x84 SWAP3 MLOAD SWAP2 PUSH3 0x461BCD PUSH1 0xE5 SHL DUP4 MSTORE DUP3 ADD MSTORE PUSH1 0x2C PUSH1 0x24 DUP3 ADD MSTORE PUSH32 0x496E746572657374206163637275616C206973206E6F74206163746976652066 PUSH1 0x44 DUP3 ADD MSTORE PUSH12 0x1BDC881D1A1A5CC81C1BDBDB PUSH1 0xA2 SHL PUSH1 0x64 DUP3 ADD MSTORE REVERT JUMPDEST DUP3 CALLVALUE PUSH2 0xC9 JUMPI DUP1 PUSH1 0x3 NOT CALLDATASIZE ADD SLT PUSH2 0xC9 JUMPI PUSH2 0x589 PUSH2 0x9EC JUMP JUMPDEST PUSH2 0x591 PUSH2 0xA02 JUMP JUMPDEST PUSH1 0x1 DUP1 PUSH1 0xA0 SHL SUB DUP1 SWAP3 AND SWAP2 DUP3 PUSH0 MSTORE PUSH1 0x20 SWAP2 PUSH0 DUP4 MSTORE DUP5 PUSH0 KECCAK256 SWAP5 DUP1 MLOAD SWAP6 PUSH4 0x6393BEF PUSH1 0xE1 SHL DUP8 MSTORE DUP5 DUP8 DUP10 DUP2 DUP10 GAS STATICCALL SWAP7 DUP8 ISZERO PUSH2 0x48B JUMPI PUSH0 SWAP8 PUSH2 0x762 JUMPI JUMPDEST POP PUSH2 0x5E5 DUP2 SLOAD PUSH2 0x5DF PUSH1 0x1 DUP5 ADD SLOAD NUMBER PUSH2 0xA4E JUMP JUMPDEST SWAP1 PUSH2 0xA6F JUMP JUMPDEST DUP3 MLOAD PUSH4 0x19312FB PUSH1 0xE6 SHL DUP2 MSTORE SWAP1 DUP7 DUP3 DUP12 DUP2 DUP12 GAS STATICCALL SWAP2 DUP3 ISZERO PUSH2 0x2FD JUMPI SWAP1 DUP7 SWAP4 SWAP3 SWAP2 PUSH0 SWAP3 PUSH2 0x72E JUMPI JUMPDEST POP PUSH1 0x2 SWAP2 PUSH2 0x619 SWAP2 PUSH2 0xA82 JUMP JUMPDEST SWAP2 ADD SLOAD DUP1 DUP3 GT ISZERO PUSH2 0x725 JUMPI PUSH2 0x62D SWAP2 PUSH2 0xA4E JUMP JUMPDEST SWAP7 JUMPDEST DUP3 MLOAD PUSH4 0x70A08231 PUSH1 0xE0 SHL DUP2 MSTORE ADDRESS DUP11 DUP3 ADD MSTORE SWAP2 AND SWAP7 DUP6 DUP3 PUSH1 0x24 DUP2 DUP12 GAS STATICCALL DUP1 ISZERO PUSH2 0x36E JUMPI PUSH0 SWAP1 PUSH2 0x6F6 JUMPI JUMPDEST PUSH2 0x662 SWAP3 POP PUSH2 0xA4E JUMP JUMPDEST SWAP6 DUP7 PUSH2 0x66A JUMPI STOP JUMPDEST DUP2 MLOAD PUSH4 0xA9059CBB PUSH1 0xE0 SHL DUP2 MSTORE PUSH1 0x1 PUSH1 0x1 PUSH1 0xA0 SHL SUB DUP5 AND SWAP9 DUP2 ADD SWAP9 DUP10 MSTORE PUSH1 0x20 DUP10 ADD DUP9 SWAP1 MSTORE SWAP8 DUP6 SWAP2 DUP10 SWAP2 DUP3 SWAP1 PUSH0 SWAP1 DUP3 SWAP1 PUSH1 0x40 ADD SUB SWAP3 GAS CALL SWAP7 DUP8 ISZERO PUSH2 0x2A2 JUMPI PUSH32 0xDC8F7DBB2BDA12E6E832594FEBB6BD75A56D911F037D5BDCAE843E72C7F21796 SWAP6 SWAP7 SWAP8 PUSH2 0x6D9 JUMPI JUMPDEST POP MLOAD SWAP6 DUP7 MSTORE AND SWAP4 LOG3 STOP JUMPDEST PUSH2 0x6EF SWAP1 DUP6 RETURNDATASIZE DUP8 GT PUSH2 0x29B JUMPI PUSH2 0x28C DUP2 DUP4 PUSH2 0xA18 JUMP JUMPDEST POP DUP8 PUSH2 0x6CF JUMP JUMPDEST POP DUP6 DUP3 DUP2 RETURNDATASIZE DUP4 GT PUSH2 0x71E JUMPI JUMPDEST PUSH2 0x70C DUP2 DUP4 PUSH2 0xA18 JUMP JUMPDEST DUP2 ADD SUB SLT PUSH2 0xC9 JUMPI PUSH2 0x662 SWAP2 MLOAD PUSH2 0x658 JUMP JUMPDEST POP RETURNDATASIZE PUSH2 0x702 JUMP JUMPDEST POP POP PUSH0 SWAP7 PUSH2 0x62F JUMP JUMPDEST SWAP4 POP SWAP1 POP DUP7 DUP4 DUP2 RETURNDATASIZE DUP2 GT PUSH2 0x75B JUMPI JUMPDEST PUSH2 0x747 DUP2 DUP4 PUSH2 0xA18 JUMP JUMPDEST DUP2 ADD SUB SLT PUSH2 0xC9 JUMPI SWAP2 MLOAD DUP6 SWAP3 PUSH2 0x619 PUSH2 0x60C JUMP JUMPDEST POP RETURNDATASIZE PUSH2 0x73D JUMP JUMPDEST PUSH2 0x77A SWAP2 SWAP8 POP DUP6 RETURNDATASIZE DUP8 GT PUSH2 0x484 JUMPI PUSH2 0x475 DUP2 DUP4 PUSH2 0xA18 JUMP JUMPDEST SWAP6 DUP9 PUSH2 0x5CB JUMP JUMPDEST DUP3 CALLVALUE PUSH2 0xC9 JUMPI PUSH1 0x20 DUP1 PUSH1 0x3 NOT CALLDATASIZE ADD SLT PUSH2 0xC9 JUMPI PUSH1 0x1 PUSH1 0x1 PUSH1 0xA0 SHL SUB PUSH2 0x7A4 PUSH2 0x9EC JUMP JUMPDEST AND SWAP2 DUP1 MLOAD PUSH4 0x27A7D9A7 PUSH1 0xE2 SHL DUP2 MSTORE DUP3 DUP2 DUP7 DUP2 DUP8 GAS STATICCALL SWAP1 DUP2 ISZERO PUSH2 0x48B JUMPI PUSH0 SWAP2 PUSH2 0x8CB JUMPI JUMPDEST POP PUSH1 0x6 DUP2 LT ISZERO PUSH2 0x8B8 JUMPI PUSH1 0x2 SUB PUSH2 0x877 JUMPI DUP1 MLOAD PUSH1 0x80 DUP2 ADD DUP2 DUP2 LT PUSH8 0xFFFFFFFFFFFFFFFF DUP3 GT OR PUSH2 0x864 JUMPI PUSH32 0xD73D30ACC098B20BED08C7438FFE13E0FC22F72E047310EA82346FD5F2157694 SWAP5 SWAP6 POP DUP3 MSTORE PUSH0 DUP2 MSTORE PUSH1 0x3 DUP4 DUP3 ADD SWAP2 NUMBER DUP4 MSTORE DUP4 DUP2 ADD PUSH0 DUP2 MSTORE PUSH1 0x60 DUP3 ADD SWAP4 PUSH1 0x1 DUP6 MSTORE DUP9 PUSH0 MSTORE PUSH0 DUP8 MSTORE DUP6 PUSH0 KECCAK256 SWAP3 MLOAD DUP4 SSTORE MLOAD PUSH1 0x1 DUP4 ADD SSTORE MLOAD PUSH1 0x2 DUP3 ADD SSTORE ADD SWAP1 MLOAD ISZERO ISZERO PUSH1 0xFF DUP1 NOT DUP4 SLOAD AND SWAP2 AND OR SWAP1 SSTORE MLOAD PUSH1 0x1 DUP2 MSTORE LOG2 STOP JUMPDEST PUSH1 0x41 DUP7 PUSH4 0x4E487B71 PUSH1 0xE0 SHL PUSH0 MSTORE MSTORE PUSH1 0x24 PUSH0 REVERT JUMPDEST MLOAD PUSH3 0x461BCD PUSH1 0xE5 SHL DUP2 MSTORE SWAP3 DUP4 ADD MSTORE POP PUSH1 0x1F PUSH1 0x24 DUP3 ADD MSTORE PUSH32 0x4C6F616E206D7573742062652061637469766520746F20726567697374657200 PUSH1 0x44 DUP3 ADD MSTORE PUSH1 0x64 SWAP1 REVERT JUMPDEST PUSH1 0x21 DUP6 PUSH4 0x4E487B71 PUSH1 0xE0 SHL PUSH0 MSTORE MSTORE PUSH1 0x24 PUSH0 REVERT JUMPDEST PUSH2 0x8E2 SWAP2 POP DUP4 RETURNDATASIZE DUP6 GT PUSH2 0x411 JUMPI PUSH2 0x403 DUP2 DUP4 PUSH2 0xA18 JUMP JUMPDEST DUP6 PUSH2 0x7C7 JUMP JUMPDEST DUP3 CALLVALUE PUSH2 0xC9 JUMPI PUSH1 0x20 CALLDATASIZE PUSH1 0x3 NOT ADD SLT PUSH2 0xC9 JUMPI PUSH1 0x20 SWAP1 PUSH2 0x90D PUSH2 0x908 PUSH2 0x9EC JUMP JUMPDEST PUSH2 0xAA0 JUMP JUMPDEST SWAP1 MLOAD SWAP1 DUP2 MSTORE RETURN JUMPDEST DUP4 SWAP1 CALLVALUE PUSH2 0xC9 JUMPI PUSH1 0x20 CALLDATASIZE PUSH1 0x3 NOT ADD SLT PUSH2 0xC9 JUMPI PUSH1 0x1 PUSH1 0x1 PUSH1 0xA0 SHL SUB PUSH2 0x937 PUSH2 0x9EC JUMP JUMPDEST AND SWAP3 DUP4 PUSH0 MSTORE PUSH0 PUSH1 0x20 MSTORE PUSH1 0xFF PUSH1 0x3 DUP5 PUSH0 KECCAK256 ADD SLOAD AND ISZERO PUSH2 0x998 JUMPI DUP4 PUSH32 0xD73D30ACC098B20BED08C7438FFE13E0FC22F72E047310EA82346FD5F2157694 PUSH1 0x20 DUP6 DUP4 PUSH0 MSTORE PUSH0 DUP3 MSTORE PUSH0 PUSH1 0x3 DUP3 DUP3 KECCAK256 DUP3 DUP2 SSTORE DUP3 PUSH1 0x1 DUP3 ADD SSTORE DUP3 PUSH1 0x2 DUP3 ADD SSTORE ADD SSTORE MLOAD PUSH0 DUP2 MSTORE LOG2 STOP JUMPDEST PUSH3 0x461BCD PUSH1 0xE5 SHL DUP3 MSTORE PUSH1 0x20 SWAP1 DUP3 ADD MSTORE PUSH1 0x2A PUSH1 0x24 DUP3 ADD MSTORE PUSH32 0x506F6F6C206973206E6F7420616374697665206F7220616C7265616479206465 PUSH1 0x44 DUP3 ADD MSTORE PUSH10 0x1C9959DA5CDD195C9959 PUSH1 0xB2 SHL PUSH1 0x64 DUP3 ADD MSTORE PUSH1 0x84 SWAP1 REVERT JUMPDEST PUSH1 0x4 CALLDATALOAD SWAP1 PUSH1 0x1 PUSH1 0x1 PUSH1 0xA0 SHL SUB DUP3 AND DUP3 SUB PUSH2 0xC9 JUMPI JUMP JUMPDEST PUSH1 0x24 CALLDATALOAD SWAP1 PUSH1 0x1 PUSH1 0x1 PUSH1 0xA0 SHL SUB DUP3 AND DUP3 SUB PUSH2 0xC9 JUMPI JUMP JUMPDEST SWAP1 PUSH1 0x1F DUP1 NOT SWAP2 ADD AND DUP2 ADD SWAP1 DUP2 LT PUSH8 0xFFFFFFFFFFFFFFFF DUP3 GT OR PUSH2 0xA3A JUMPI PUSH1 0x40 MSTORE JUMP JUMPDEST PUSH4 0x4E487B71 PUSH1 0xE0 SHL PUSH0 MSTORE PUSH1 0x41 PUSH1 0x4 MSTORE PUSH1 0x24 PUSH0 REVERT JUMPDEST SWAP2 SWAP1 DUP3 SUB SWAP2 DUP3 GT PUSH2 0xA5B JUMPI JUMP JUMPDEST PUSH4 0x4E487B71 PUSH1 0xE0 SHL PUSH0 MSTORE PUSH1 0x11 PUSH1 0x4 MSTORE PUSH1 0x24 PUSH0 REVERT JUMPDEST DUP2 DUP2 MUL SWAP3 SWAP2 DUP2 ISZERO SWAP2 DUP5 DIV EQ OR ISZERO PUSH2 0xA5B JUMPI JUMP JUMPDEST DUP2 ISZERO PUSH2 0xA8C JUMPI DIV SWAP1 JUMP JUMPDEST PUSH4 0x4E487B71 PUSH1 0xE0 SHL PUSH0 MSTORE PUSH1 0x12 PUSH1 0x4 MSTORE PUSH1 0x24 PUSH0 REVERT JUMPDEST PUSH1 0x1 PUSH1 0x1 PUSH1 0xA0 SHL SUB AND DUP1 ISZERO PUSH2 0xB76 JUMPI DUP1 PUSH0 MSTORE PUSH0 PUSH1 0x20 MSTORE PUSH1 0x40 PUSH0 KECCAK256 PUSH1 0xFF PUSH1 0x3 DUP3 ADD SLOAD AND ISZERO PUSH2 0xB70 JUMPI PUSH1 0x20 PUSH1 0x4 SWAP3 PUSH1 0x40 MLOAD SWAP4 DUP5 DUP1 SWAP3 PUSH4 0x19312FB PUSH1 0xE6 SHL DUP3 MSTORE GAS STATICCALL SWAP2 DUP3 ISZERO PUSH2 0xB65 JUMPI PUSH0 SWAP3 PUSH2 0xB30 JUMPI JUMPDEST POP PUSH1 0x2 PUSH2 0xB1D PUSH2 0xB26 SWAP4 PUSH2 0xB05 PUSH1 0x1 DUP6 ADD SLOAD NUMBER PUSH2 0xA4E JUMP JUMPDEST DUP2 DUP2 GT PUSH2 0xB29 JUMPI JUMPDEST PUSH2 0xB18 SWAP1 DUP6 SLOAD PUSH2 0xA6F JUMP JUMPDEST PUSH2 0xA82 JUMP JUMPDEST SWAP2 ADD SLOAD SWAP1 PUSH2 0xA4E JUMP JUMPDEST SWAP1 JUMP JUMPDEST POP DUP1 PUSH2 0xB0D JUMP JUMPDEST SWAP2 POP PUSH1 0x20 DUP3 RETURNDATASIZE PUSH1 0x20 GT PUSH2 0xB5D JUMPI JUMPDEST DUP2 PUSH2 0xB4B PUSH1 0x20 SWAP4 DUP4 PUSH2 0xA18 JUMP JUMPDEST DUP2 ADD SUB SLT PUSH2 0xC9 JUMPI SWAP1 MLOAD SWAP1 PUSH1 0x2 PUSH2 0xAED JUMP JUMPDEST RETURNDATASIZE SWAP2 POP PUSH2 0xB3E JUMP JUMPDEST PUSH1 0x40 MLOAD RETURNDATASIZE PUSH0 DUP3 RETURNDATACOPY RETURNDATASIZE SWAP1 REVERT JUMPDEST POP POP PUSH0 SWAP1 JUMP JUMPDEST PUSH1 0x40 MLOAD PUSH3 0x461BCD PUSH1 0xE5 SHL DUP2 MSTORE PUSH1 0x20 PUSH1 0x4 DUP3 ADD MSTORE PUSH1 0x14 PUSH1 0x24 DUP3 ADD MSTORE PUSH20 0x496E76616C696420706F6F6C2061646472657373 PUSH1 0x60 SHL PUSH1 0x44 DUP3 ADD MSTORE PUSH1 0x64 SWAP1 REVERT JUMPDEST SWAP1 DUP2 PUSH1 0x20 SWAP2 SUB SLT PUSH2 0xC9 JUMPI MLOAD PUSH1 0x6 DUP2 LT ISZERO PUSH2 0xC9 JUMPI SWAP1 JUMP JUMPDEST SWAP1 DUP2 PUSH1 0x20 SWAP2 SUB SLT PUSH2 0xC9 JUMPI MLOAD PUSH1 0x1 PUSH1 0x1 PUSH1 0xA0 SHL SUB DUP2 AND DUP2 SUB PUSH2 0xC9 JUMPI SWAP1 JUMP JUMPDEST SWAP1 DUP2 PUSH1 0x20 SWAP2 SUB SLT PUSH2 0xC9 JUMPI MLOAD DUP1 ISZERO ISZERO DUP2 SUB PUSH2 0xC9 JUMPI SWAP1 JUMP JUMPDEST SWAP2 SWAP1 DUP3 ADD DUP1 SWAP3 GT PUSH2 0xA5B JUMPI JUMP INVALID LOG2 PUSH5 0x6970667358 0x22 SLT KECCAK256 BALANCE 0xC6 DUP12 0xE6 SWAP15 0xD3 0xCB SIGNEXTEND CODECOPY PUSH1 0xF9 LT 0xC3 SAR EXTCODESIZE DUP2 SWAP1 SWAP16 0xDC BYTE 0xE7 BALANCE CREATE2 0xDD 0xD6 SWAP13 BALANCE PUSH28 0x647A4F264736F6C6343000819003300000000000000000000000000 "
		},
		"gasEstimates": {
			"creation": {
				"codeDepositCost": "628000",
				"executionCost": "671",
				"totalCost": "628671"
			},
			"external": {
				"calculateClaimableInterest(address)": "infinite",
				"deregisterVault(address)": "23940",
				"distributeInterest(address,address)": "infinite",
				"handleInterest(address,uint256)": "28281",
				"interestInfo(address)": "8944",
				"refundRemainingInterest(address,address)": "infinite",
				"registerPoolVault(address)": "infinite"
			}
		},
		"methodIdentifiers": {
			"calculateClaimableInterest(address)": "51b2d521",
			"deregisterVault(address)": "38e270ed",
			"distributeInterest(address,address)": "d302bf76",
			"handleInterest(address,uint256)": "d026759d",
			"interestInfo(address)": "fb96b135",
			"refundRemainingInterest(address,address)": "56f78a1d",
			"registerPoolVault(address)": "5228a4da"
		}
	},
	"abi": [
		{
			"anonymous": false,
			"inputs": [
				{
					"indexed": true,
					"internalType": "address",
					"name": "pool",
					"type": "address"
				},
				{
					"indexed": false,
					"internalType": "bool",
					"name": "status",
					"type": "bool"
				}
			],
			"name": "InterestAccrualToggled",
			"type": "event"
		},
		{
			"anonymous": false,
			"inputs": [
				{
					"indexed": true,
					"internalType": "address",
					"name": "pool",
					"type": "address"
				},
				{
					"indexed": false,
					"internalType": "uint256",
					"name": "amount",
					"type": "uint256"
				}
			],
			"name": "InterestDeposited",
			"type": "event"
		},
		{
			"anonymous": false,
			"inputs": [
				{
					"indexed": true,
					"internalType": "address",
					"name": "pool",
					"type": "address"
				},
				{
					"indexed": true,
					"internalType": "address",
					"name": "to",
					"type": "address"
				},
				{
					"indexed": false,
					"internalType": "uint256",
					"name": "amount",
					"type": "uint256"
				}
			],
			"name": "InterestPaid",
			"type": "event"
		},
		{
			"anonymous": false,
			"inputs": [
				{
					"indexed": true,
					"internalType": "address",
					"name": "pool",
					"type": "address"
				},
				{
					"indexed": true,
					"internalType": "address",
					"name": "to",
					"type": "address"
				},
				{
					"indexed": false,
					"internalType": "uint256",
					"name": "amount",
					"type": "uint256"
				}
			],
			"name": "InterestRefunded",
			"type": "event"
		},
		{
			"inputs": [
				{
					"internalType": "address",
					"name": "pool",
					"type": "address"
				}
			],
			"name": "calculateClaimableInterest",
			"outputs": [
				{
					"internalType": "uint256",
					"name": "",
					"type": "uint256"
				}
			],
			"stateMutability": "view",
			"type": "function"
		},
		{
			"inputs": [
				{
					"internalType": "address",
					"name": "pool",
					"type": "address"
				}
			],
			"name": "deregisterVault",
			"outputs": [],
			"stateMutability": "nonpayable",
			"type": "function"
		},
		{
			"inputs": [
				{
					"internalType": "address",
					"name": "pool",
					"type": "address"
				},
				{
					"internalType": "address",
					"name": "to",
					"type": "address"
				}
			],
			"name": "distributeInterest",
			"outputs": [],
			"stateMutability": "nonpayable",
			"type": "function"
		},
		{
			"inputs": [
				{
					"internalType": "address",
					"name": "pool",
					"type": "address"
				},
				{
					"internalType": "uint256",
					"name": "amount",
					"type": "uint256"
				}
			],
			"name": "handleInterest",
			"outputs": [],
			"stateMutability": "nonpayable",
			"type": "function"
		},
		{
			"inputs": [
				{
					"internalType": "address",
					"name": "",
					"type": "address"
				}
			],
			"name": "interestInfo",
			"outputs": [
				{
					"internalType": "uint256",
					"name": "totalInterest",
					"type": "uint256"
				},
				{
					"internalType": "uint256",
					"name": "paymentStartBlock",
					"type": "uint256"
				},
				{
					"internalType": "uint256",
					"name": "interestPaid",
					"type": "uint256"
				},
				{
					"internalType": "bool",
					"name": "isAccruing",
					"type": "bool"
				}
			],
			"stateMutability": "view",
			"type": "function"
		},
		{
			"inputs": [
				{
					"internalType": "address",
					"name": "pool",
					"type": "address"
				},
				{
					"internalType": "address",
					"name": "borrower",
					"type": "address"
				}
			],
			"name": "refundRemainingInterest",
			"outputs": [],
			"stateMutability": "nonpayable",
			"type": "function"
		},
		{
			"inputs": [
				{
					"internalType": "address",
					"name": "pool",
					"type": "address"
				}
			],
			"name": "registerPoolVault",
			"outputs": [],
			"stateMutability": "nonpayable",
			"type": "function"
		}
	]
}