{
	"contracts/contracts/mockFlashLoan/mockFlashLoan.sol": {
		"MockFlashLoanBorrower": {
			"abi": [
				{
					"inputs": [
						{
							"internalType": "address",
							"name": "_lender",
							"type": "address"
						}
					],
					"stateMutability": "nonpayable",
					"type": "constructor"
				},
				{
					"inputs": [
						{
							"internalType": "address",
							"name": "target",
							"type": "address"
						}
					],
					"name": "AddressEmptyCode",
					"type": "error"
				},
				{
					"inputs": [
						{
							"internalType": "address",
							"name": "account",
							"type": "address"
						}
					],
					"name": "AddressInsufficientBalance",
					"type": "error"
				},
				{
					"inputs": [],
					"name": "FailedInnerCall",
					"type": "error"
				},
				{
					"inputs": [
						{
							"internalType": "address",
							"name": "token",
							"type": "address"
						}
					],
					"name": "SafeERC20FailedOperation",
					"type": "error"
				},
				{
					"inputs": [],
					"name": "CALLBACK_SUCCESS",
					"outputs": [
						{
							"internalType": "bytes32",
							"name": "",
							"type": "bytes32"
						}
					],
					"stateMutability": "view",
					"type": "function"
				},
				{
					"inputs": [
						{
							"internalType": "address",
							"name": "token",
							"type": "address"
						},
						{
							"internalType": "uint256",
							"name": "amount",
							"type": "uint256"
						}
					],
					"name": "initiateFlashLoan",
					"outputs": [],
					"stateMutability": "nonpayable",
					"type": "function"
				},
				{
					"inputs": [],
					"name": "lender",
					"outputs": [
						{
							"internalType": "contract IERC3156FlashLender",
							"name": "",
							"type": "address"
						}
					],
					"stateMutability": "view",
					"type": "function"
				},
				{
					"inputs": [
						{
							"internalType": "address",
							"name": "initiator",
							"type": "address"
						},
						{
							"internalType": "address",
							"name": "token",
							"type": "address"
						},
						{
							"internalType": "uint256",
							"name": "amount",
							"type": "uint256"
						},
						{
							"internalType": "uint256",
							"name": "fee",
							"type": "uint256"
						},
						{
							"internalType": "bytes",
							"name": "data",
							"type": "bytes"
						}
					],
					"name": "onFlashLoan",
					"outputs": [
						{
							"internalType": "bytes32",
							"name": "",
							"type": "bytes32"
						}
					],
					"stateMutability": "nonpayable",
					"type": "function"
				}
			],
			"devdoc": {
				"errors": {
					"AddressEmptyCode(address)": [
						{
							"details": "There's no code at `target` (it is not a contract)."
						}
					],
					"AddressInsufficientBalance(address)": [
						{
							"details": "The ETH balance of the account is not enough to perform the operation."
						}
					],
					"FailedInnerCall()": [
						{
							"details": "A call to an address target failed. The target may have reverted."
						}
					],
					"SafeERC20FailedOperation(address)": [
						{
							"details": "An operation with an ERC20 token failed."
						}
					]
				},
				"kind": "dev",
				"methods": {
					"onFlashLoan(address,address,uint256,uint256,bytes)": {
						"details": "Receive a flash loan.",
						"params": {
							"amount": "The amount of tokens lent.",
							"data": "Arbitrary data structure, intended to contain user-defined parameters.",
							"fee": "The additional amount of tokens to repay.",
							"initiator": "The initiator of the loan.",
							"token": "The loan currency."
						},
						"returns": {
							"_0": "The keccak256 hash of \"ERC3156FlashBorrower.onFlashLoan\""
						}
					}
				},
				"version": 1
			},
			"evm": {
				"assembly": "    /* \"contracts/contracts/mockFlashLoan/mockFlashLoan.sol\":329:1919  contract MockFlashLoanBorrower is IERC3156FlashBorrower {... */\n  0x80\n  jumpi(tag_7, callvalue)\n  0x1f\n  bytecodeSize\n  codesize\n  dup2\n  swap1\n  sub\n  swap2\n  dup3\n  add\n  not(0x1f)\n  and\n  dup4\n  add\n  swap2\n  sub(shl(0x40, 0x01), 0x01)\n  dup4\n  gt\n  dup5\n  dup5\n  lt\n  or\n  tag_3\n  jumpi\n  dup1\n  dup5\n  swap3\n  0x20\n  swap5\n  0x40\n  mstore\n  dup4\n  codecopy\n  dup2\n  add\n  sub\n  slt\n  tag_7\n  jumpi\n  mload\n  sub(shl(0xa0, 0x01), 0x01)\n  dup2\n  and\n  swap1\n  dup2\n  swap1\n  sub\n  tag_7\n  jumpi\n  0x00\n  dup1\n  sload\n  not(sub(shl(0xa0, 0x01), 0x01))\n  and\n  swap2\n  swap1\n  swap2\n  or\n  swap1\n  sstore\n  mload(0x40)\n  dataSize(sub_0)\n  swap1\n  dup2\n  dataOffset(sub_0)\n  dup3\n  codecopy\n  return\ntag_7:\n  0x00\n  dup1\n  revert\ntag_3:\n  mstore(0x00, shl(0xe0, 0x4e487b71))\n  mstore(0x04, 0x41)\n  revert(0x00, 0x24)\nstop\n\nsub_0: assembly {\n        /* \"contracts/contracts/mockFlashLoan/mockFlashLoan.sol\":329:1919  contract MockFlashLoanBorrower is IERC3156FlashBorrower {... */\n      0x80\n      0x40\n      swap1\n      dup1\n      dup3\n      mstore\n      0x04\n      dup1\n      calldatasize\n      lt\n      iszero\n      tag_9\n      jumpi\n      0x00\n      dup1\n      revert\n    tag_9:\n      shr(0xe0, calldataload(0x00))\n      swap2\n      dup3\n      0x23e30c8b\n      eq\n      tag_11\n      jumpi\n      pop\n      dup2\n      0x5e2c1b3a\n      eq\n      tag_13\n      jumpi\n      pop\n      dup1\n      0x8237e538\n      eq\n      tag_15\n      jumpi\n      0xbcead63e\n      eq\n      tag_17\n      jumpi\n      0x00\n      dup1\n      revert\n    tag_17:\n      jumpi(tag_21, callvalue)\n      jumpi(tag_21, slt(add(not(0x03), calldatasize), 0x00))\n      sload(0x00)\n      swap1\n      mload\n      sub(shl(0xa0, 0x01), 0x01)\n      swap1\n      swap2\n      and\n      dup2\n      mstore\n      0x20\n      swap1\n      return\n    tag_21:\n      0x00\n      dup1\n      revert\n    tag_15:\n      pop\n      jumpi(tag_21, callvalue)\n      jumpi(tag_21, slt(add(not(0x03), calldatasize), 0x00))\n      0x20\n      swap1\n      mload\n        /* \"contracts/contracts/mockFlashLoan/mockFlashLoan.sol\":510:555  keccak256(\"ERC3156FlashBorrower.onFlashLoan\") */\n      0x439148f0bbc682ca079e46d6e2c2f0c1e3b820f1a291b069d8882abf8cf18dd9\n        /* \"contracts/contracts/mockFlashLoan/mockFlashLoan.sol\":329:1919  contract MockFlashLoanBorrower is IERC3156FlashBorrower {... */\n      dup2\n      mstore\n      return\n    tag_13:\n      swap1\n      pop\n      jumpi(tag_21, callvalue)\n      dup2\n      add(calldatasize, not(0x03))\n      slt\n      tag_21\n      jumpi\n      tag_31\n      tag_1\n      jump\t// in\n    tag_31:\n      sload(0x00)\n      dup4\n      mload\n      sub(shl(0xa0, 0x01), 0x01)\n      swap5\n      swap3\n      swap2\n      dup6\n      and\n      swap1\n      dup1\n      dup5\n      add\n      0xffffffffffffffff\n      dup2\n      gt\n      dup3\n      dup3\n      lt\n      or\n      tag_32\n      jumpi\n      dup5\n      swap7\n      swap4\n      swap6\n      swap3\n      swap2\n      swap7\n      mstore\n      0x0e\n      dup7\n      mstore\n      0x20\n      swap6\n      dup7\n      swap4\n      shl(0x90, 0x4172626974726172792064617461)\n      dup6\n      dup4\n      add\n      mstore\n      dup6\n      mload\n      swap7\n      dup8\n      swap5\n      shl(0xe1, 0x2e7ff4ef)\n        /* \"contracts/contracts/mockFlashLoan/mockFlashLoan.sol\":851:913  lender.flashLoan(this, token, amount, bytes(\"Arbitrary data\")) */\n      dup7\n      mstore\n        /* \"contracts/contracts/mockFlashLoan/mockFlashLoan.sol\":868:872  this */\n      address\n        /* \"contracts/contracts/mockFlashLoan/mockFlashLoan.sol\":851:913  lender.flashLoan(this, token, amount, bytes(\"Arbitrary data\")) */\n      swap1\n      dup7\n      add\n        /* \"contracts/contracts/mockFlashLoan/mockFlashLoan.sol\":329:1919  contract MockFlashLoanBorrower is IERC3156FlashBorrower {... */\n      mstore\n      and\n      0x24\n      dup5\n      add\n      mstore\n      calldataload(0x24)\n      0x44\n      dup5\n      add\n      mstore\n      0x80\n      0x64\n      dup5\n      add\n      mstore\n      dup1\n      mload\n      swap1\n      dup2\n      0x84\n      dup6\n      add\n      mstore\n      dup5\n      0x00\n    tag_34:\n      dup4\n      dup2\n      lt\n      tag_35\n      jumpi\n      pop\n      pop\n      pop\n      0x00\n      0xa4\n      dup5\n      dup4\n      dup4\n      dup4\n      dup4\n      swap7\n      dup5\n      add\n      add\n      mstore\n      0x1f\n      dup1\n      not\n      swap2\n      add\n      and\n      dup2\n      add\n        /* \"contracts/contracts/mockFlashLoan/mockFlashLoan.sol\":851:913  lender.flashLoan(this, token, amount, bytes(\"Arbitrary data\")) */\n      sub\n      add\n      swap3\n      gas\n      call\n      swap1\n      dup2\n      iszero\n      tag_37\n      jumpi\n      pop\n      tag_39\n      jumpi\n        /* \"contracts/contracts/mockFlashLoan/mockFlashLoan.sol\":329:1919  contract MockFlashLoanBorrower is IERC3156FlashBorrower {... */\n      stop\n        /* \"contracts/contracts/mockFlashLoan/mockFlashLoan.sol\":851:913  lender.flashLoan(this, token, amount, bytes(\"Arbitrary data\")) */\n    tag_39:\n      dup2\n      tag_41\n      swap3\n      swap1\n      returndatasize\n      lt\n      tag_42\n      jumpi\n    tag_43:\n      tag_44\n      dup2\n      dup4\n      tag_4\n      jump\t// in\n    tag_44:\n      dup2\n      add\n      swap1\n      tag_5\n      jump\t// in\n    tag_41:\n        /* \"contracts/contracts/mockFlashLoan/mockFlashLoan.sol\":329:1919  contract MockFlashLoanBorrower is IERC3156FlashBorrower {... */\n      stop\n        /* \"contracts/contracts/mockFlashLoan/mockFlashLoan.sol\":851:913  lender.flashLoan(this, token, amount, bytes(\"Arbitrary data\")) */\n    tag_42:\n      pop\n      returndatasize\n      jump(tag_43)\n    tag_37:\n        /* \"contracts/contracts/mockFlashLoan/mockFlashLoan.sol\":329:1919  contract MockFlashLoanBorrower is IERC3156FlashBorrower {... */\n      mload\n      returndatasize\n      0x00\n      dup3\n      returndatacopy\n      returndatasize\n      swap1\n      revert\n    tag_35:\n      dup3\n      dup2\n      add\n      dup3\n      add\n      mload\n      dup10\n      dup3\n      add\n      0xa4\n      add\n      mstore\n      dup9\n      swap6\n      pop\n      dup7\n      swap2\n      add\n      jump(tag_34)\n    tag_32:\n      0x41\n      dup7\n      mstore(0x00, shl(0xe0, 0x4e487b71))\n      mstore\n      revert(0x00, 0x24)\n    tag_11:\n      dup4\n      jumpi(tag_21, callvalue)\n      jumpi(tag_21, slt(add(not(0x03), calldatasize), 0xa0))\n      tag_49\n      tag_1\n      jump\t// in\n    tag_49:\n      0x24\n      swap4\n      sub(shl(0xa0, 0x01), 0x01)\n      swap2\n      dup6\n      calldataload\n      dup4\n      dup2\n      and\n      swap3\n      swap1\n      dup4\n      swap1\n      sub\n      tag_21\n      jumpi\n      0x44\n      swap4\n      0xffffffffffffffff\n      swap3\n      calldataload(0x84)\n      dup5\n      dup2\n      gt\n      tag_21\n      jumpi\n      calldatasize\n      0x23\n      dup3\n      add\n      slt\n      iszero\n      tag_21\n      jumpi\n      dup1\n      dup5\n      add\n      calldataload\n      dup6\n      dup2\n      gt\n      tag_21\n      jumpi\n      calldatasize\n      swap2\n      add\n      dup11\n      add\n      gt\n      tag_21\n      jumpi\n      dup2\n      sload(0x00)\n      and\n        /* \"contracts/contracts/mockFlashLoan/mockFlashLoan.sol\":1208:1218  msg.sender */\n      swap8\n      dup9\n      caller\n        /* \"contracts/contracts/mockFlashLoan/mockFlashLoan.sol\":1208:1237  msg.sender == address(lender) */\n      sub\n        /* \"contracts/contracts/mockFlashLoan/mockFlashLoan.sol\":329:1919  contract MockFlashLoanBorrower is IERC3156FlashBorrower {... */\n      tag_60\n      jumpi\n        /* \"contracts/contracts/mockFlashLoan/mockFlashLoan.sol\":1316:1320  this */\n      pop\n      dup2\n      address\n        /* \"contracts/contracts/mockFlashLoan/mockFlashLoan.sol\":329:1919  contract MockFlashLoanBorrower is IERC3156FlashBorrower {... */\n      swap2\n      and\n        /* \"contracts/contracts/mockFlashLoan/mockFlashLoan.sol\":1295:1321  initiator == address(this) */\n      sub\n        /* \"contracts/contracts/mockFlashLoan/mockFlashLoan.sol\":329:1919  contract MockFlashLoanBorrower is IERC3156FlashBorrower {... */\n      tag_62\n      jumpi\n        /* \"contracts/contracts/mockFlashLoan/mockFlashLoan.sol\":1632:1644  amount + fee */\n      tag_64\n        /* \"contracts/contracts/mockFlashLoan/mockFlashLoan.sol\":329:1919  contract MockFlashLoanBorrower is IERC3156FlashBorrower {... */\n      calldataload(0x64)\n      dup7\n      calldataload\n        /* \"contracts/contracts/mockFlashLoan/mockFlashLoan.sol\":1632:1644  amount + fee */\n      tag_2\n      jump\t// in\n    tag_64:\n        /* \"contracts/contracts/mockFlashLoan/mockFlashLoan.sol\":329:1919  contract MockFlashLoanBorrower is IERC3156FlashBorrower {... */\n      swap1\n      dup7\n      mload\n      swap8\n      shl(0xe1, 0x6eb1769f)\n        /* \"@openzeppelin/contracts/token/ERC20/utils/SafeERC20.sol\":2200:2239  token.allowance(address(this), spender) */\n      dup10\n      mstore\n        /* \"contracts/contracts/mockFlashLoan/mockFlashLoan.sol\":1316:1320  this */\n      address\n        /* \"@openzeppelin/contracts/token/ERC20/utils/SafeERC20.sol\":2200:2239  token.allowance(address(this), spender) */\n      dup5\n      dup11\n      add\n        /* \"contracts/contracts/mockFlashLoan/mockFlashLoan.sol\":329:1919  contract MockFlashLoanBorrower is IERC3156FlashBorrower {... */\n      mstore\n      dup1\n      dup11\n      dup11\n      add\n      mstore\n      0x20\n        /* \"@openzeppelin/contracts/token/ERC20/utils/SafeERC20.sol\":2200:2239  token.allowance(address(this), spender) */\n      swap9\n      dup10\n      dup2\n      dup10\n      dup2\n      dup11\n      gas\n      staticcall\n      swap1\n      dup2\n      iszero\n      tag_65\n      jumpi\n      dup12\n      swap3\n      swap2\n      dup6\n      swap2\n        /* \"contracts/contracts/mockFlashLoan/mockFlashLoan.sol\":329:1919  contract MockFlashLoanBorrower is IERC3156FlashBorrower {... */\n      0x00\n        /* \"@openzeppelin/contracts/token/ERC20/utils/SafeERC20.sol\":2200:2239  token.allowance(address(this), spender) */\n      swap2\n      tag_67\n      jumpi\n        /* \"contracts/contracts/mockFlashLoan/mockFlashLoan.sol\":329:1919  contract MockFlashLoanBorrower is IERC3156FlashBorrower {... */\n    tag_68:\n        /* \"@openzeppelin/contracts/token/ERC20/utils/SafeERC20.sol\":2278:2298  oldAllowance + value */\n      pop\n      swap1\n      tag_69\n      swap2\n      tag_2\n      jump\t// in\n    tag_69:\n        /* \"contracts/contracts/mockFlashLoan/mockFlashLoan.sol\":329:1919  contract MockFlashLoanBorrower is IERC3156FlashBorrower {... */\n      swap1\n      0x00\n      dup1\n      dup12\n      mload\n        /* \"@openzeppelin/contracts/token/ERC20/utils/SafeERC20.sol\":3411:3458  abi.encodeCall(token.approve, (spender, value)) */\n      swap4\n      dup14\n      dup6\n      add\n        /* \"contracts/contracts/mockFlashLoan/mockFlashLoan.sol\":329:1919  contract MockFlashLoanBorrower is IERC3156FlashBorrower {... */\n      swap1\n      dup5\n      shl(0xe0, 0x095ea7b3)\n        /* \"@openzeppelin/contracts/token/ERC20/utils/SafeERC20.sol\":3411:3458  abi.encodeCall(token.approve, (spender, value)) */\n      swap8\n      dup9\n      dup5\n      mstore\n      dup8\n      add\n        /* \"contracts/contracts/mockFlashLoan/mockFlashLoan.sol\":329:1919  contract MockFlashLoanBorrower is IERC3156FlashBorrower {... */\n      mstore\n      dup13\n      dup7\n      add\n      mstore\n        /* \"@openzeppelin/contracts/token/ERC20/utils/SafeERC20.sol\":3411:3458  abi.encodeCall(token.approve, (spender, value)) */\n      dup12\n      dup6\n      mstore\n      tag_70\n      dup6\n      tag_3\n      jump\t// in\n    tag_70:\n        /* \"@openzeppelin/contracts/token/ERC20/utils/SafeERC20.sol\":5615:5640  address(token).call(data) */\n      dup5\n      mload\n      swap1\n      dup3\n      dup13\n      gas\n      call\n      tag_71\n      tag_7\n      jump\t// in\n    tag_71:\n        /* \"@openzeppelin/contracts/token/ERC20/utils/SafeERC20.sol\":5657:5726  success && (returndata.length == 0 || abi.decode(returndata, (bool))) */\n      dup2\n      tag_72\n      jumpi\n        /* \"contracts/contracts/mockFlashLoan/mockFlashLoan.sol\":329:1919  contract MockFlashLoanBorrower is IERC3156FlashBorrower {... */\n    tag_73:\n        /* \"@openzeppelin/contracts/token/ERC20/utils/SafeERC20.sol\":5657:5760  success && (returndata.length == 0 || abi.decode(returndata, (bool))) && address(token).code.length > 0 */\n      pop\n      dup1\n      tag_74\n      jumpi\n        /* \"contracts/contracts/mockFlashLoan/mockFlashLoan.sol\":329:1919  contract MockFlashLoanBorrower is IERC3156FlashBorrower {... */\n    tag_75:\n        /* \"@openzeppelin/contracts/token/ERC20/utils/SafeERC20.sol\":3473:3518  !_callOptionalReturnBool(token, approvalCall) */\n      iszero\n        /* \"@openzeppelin/contracts/token/ERC20/utils/SafeERC20.sol\":3469:3670  if (!_callOptionalReturnBool(token, approvalCall)) {... */\n      tag_76\n      jumpi\n        /* \"contracts/contracts/mockFlashLoan/mockFlashLoan.sol\":329:1919  contract MockFlashLoanBorrower is IERC3156FlashBorrower {... */\n    tag_77:\n      pop\n      pop\n      pop\n      sload(0x00)\n      and\n      dup7\n      mload\n      swap6\n      shl(0xe0, 0x23b872dd)\n        /* \"@openzeppelin/contracts/token/ERC20/utils/SafeERC20.sol\":1829:1882  abi.encodeCall(token.transferFrom, (from, to, value)) */\n      dup10\n      dup9\n      add\n      mstore\n        /* \"contracts/contracts/mockFlashLoan/mockFlashLoan.sol\":1316:1320  this */\n      address\n        /* \"@openzeppelin/contracts/token/ERC20/utils/SafeERC20.sol\":1829:1882  abi.encodeCall(token.transferFrom, (from, to, value)) */\n      dup11\n      dup9\n      add\n        /* \"contracts/contracts/mockFlashLoan/mockFlashLoan.sol\":329:1919  contract MockFlashLoanBorrower is IERC3156FlashBorrower {... */\n      mstore\n      dup7\n      add\n      mstore\n      0x64\n      dup6\n      add\n      mstore\n      0x64\n        /* \"@openzeppelin/contracts/token/ERC20/utils/SafeERC20.sol\":1829:1882  abi.encodeCall(token.transferFrom, (from, to, value)) */\n      dup5\n      mstore\n        /* \"contracts/contracts/mockFlashLoan/mockFlashLoan.sol\":329:1919  contract MockFlashLoanBorrower is IERC3156FlashBorrower {... */\n      0xa0\n      dup5\n      add\n      swap2\n      dup5\n      dup4\n      lt\n      swap1\n      dup4\n      gt\n      or\n      tag_78\n      jumpi\n      pop\n      dup4\n      mstore\n        /* \"@openzeppelin/contracts/token/ERC20/utils/SafeERC20.sol\":1829:1882  abi.encodeCall(token.transferFrom, (from, to, value)) */\n      tag_80\n      swap2\n        /* \"contracts/contracts/mockFlashLoan/mockFlashLoan.sol\":329:1919  contract MockFlashLoanBorrower is IERC3156FlashBorrower {... */\n      swap1\n        /* \"@openzeppelin/contracts/token/ERC20/utils/SafeERC20.sol\":1829:1882  abi.encodeCall(token.transferFrom, (from, to, value)) */\n      tag_6\n      jump\t// in\n    tag_80:\n        /* \"contracts/contracts/mockFlashLoan/mockFlashLoan.sol\":329:1919  contract MockFlashLoanBorrower is IERC3156FlashBorrower {... */\n      mload\n        /* \"contracts/contracts/mockFlashLoan/mockFlashLoan.sol\":510:555  keccak256(\"ERC3156FlashBorrower.onFlashLoan\") */\n      0x439148f0bbc682ca079e46d6e2c2f0c1e3b820f1a291b069d8882abf8cf18dd9\n        /* \"contracts/contracts/mockFlashLoan/mockFlashLoan.sol\":329:1919  contract MockFlashLoanBorrower is IERC3156FlashBorrower {... */\n      dup2\n      mstore\n      return\n    tag_78:\n      0x41\n      dup8\n      swap2\n      mstore(0x00, shl(0xe0, 0x4e487b71))\n      mstore\n      0x00\n      revert\n        /* \"@openzeppelin/contracts/token/ERC20/utils/SafeERC20.sol\":3469:3670  if (!_callOptionalReturnBool(token, approvalCall)) {... */\n    tag_76:\n        /* \"@openzeppelin/contracts/token/ERC20/utils/SafeERC20.sol\":3646:3658  approvalCall */\n      tag_81\n        /* \"contracts/contracts/mockFlashLoan/mockFlashLoan.sol\":329:1919  contract MockFlashLoanBorrower is IERC3156FlashBorrower {... */\n      swap3\n        /* \"@openzeppelin/contracts/token/ERC20/utils/SafeERC20.sol\":3561:3604  abi.encodeCall(token.approve, (spender, 0)) */\n      tag_82\n        /* \"contracts/contracts/mockFlashLoan/mockFlashLoan.sol\":329:1919  contract MockFlashLoanBorrower is IERC3156FlashBorrower {... */\n      swap2\n      dup12\n      mload\n        /* \"@openzeppelin/contracts/token/ERC20/utils/SafeERC20.sol\":3561:3604  abi.encodeCall(token.approve, (spender, 0)) */\n      swap2\n      dup14\n      dup4\n      add\n      mstore\n      dup14\n      dup3\n      add\n        /* \"contracts/contracts/mockFlashLoan/mockFlashLoan.sol\":329:1919  contract MockFlashLoanBorrower is IERC3156FlashBorrower {... */\n      mstore\n      0x00\n      dup11\n      dup3\n      add\n      mstore\n        /* \"@openzeppelin/contracts/token/ERC20/utils/SafeERC20.sol\":3561:3604  abi.encodeCall(token.approve, (spender, 0)) */\n      dup10\n      dup2\n      mstore\n      tag_83\n      dup2\n      tag_3\n      jump\t// in\n    tag_83:\n      dup9\n      tag_6\n      jump\t// in\n    tag_82:\n        /* \"@openzeppelin/contracts/token/ERC20/utils/SafeERC20.sol\":3646:3658  approvalCall */\n      dup7\n      tag_6\n      jump\t// in\n    tag_81:\n        /* \"@openzeppelin/contracts/token/ERC20/utils/SafeERC20.sol\":3469:3670  if (!_callOptionalReturnBool(token, approvalCall)) {... */\n      dup10\n      dup1\n      dup1\n      jump(tag_77)\n        /* \"@openzeppelin/contracts/token/ERC20/utils/SafeERC20.sol\":5657:5760  success && (returndata.length == 0 || abi.decode(returndata, (bool))) && address(token).code.length > 0 */\n    tag_74:\n        /* \"@openzeppelin/contracts/token/ERC20/utils/SafeERC20.sol\":5730:5756  address(token).code.length */\n      pop\n      dup8\n      extcodesize\n        /* \"@openzeppelin/contracts/token/ERC20/utils/SafeERC20.sol\":5730:5760  address(token).code.length > 0 */\n      iszero\n      iszero\n        /* \"@openzeppelin/contracts/token/ERC20/utils/SafeERC20.sol\":5657:5760  success && (returndata.length == 0 || abi.decode(returndata, (bool))) && address(token).code.length > 0 */\n      jump(tag_75)\n        /* \"@openzeppelin/contracts/token/ERC20/utils/SafeERC20.sol\":5657:5726  success && (returndata.length == 0 || abi.decode(returndata, (bool))) */\n    tag_72:\n        /* \"contracts/contracts/mockFlashLoan/mockFlashLoan.sol\":329:1919  contract MockFlashLoanBorrower is IERC3156FlashBorrower {... */\n      dup1\n      mload\n        /* \"@openzeppelin/contracts/token/ERC20/utils/SafeERC20.sol\":5669:5691  returndata.length == 0 */\n      dup1\n      iszero\n      swap3\n      pop\n      dup14\n      swap1\n        /* \"@openzeppelin/contracts/token/ERC20/utils/SafeERC20.sol\":5669:5725  returndata.length == 0 || abi.decode(returndata, (bool)) */\n      dup4\n      iszero\n      tag_84\n      jumpi\n        /* \"@openzeppelin/contracts/token/ERC20/utils/SafeERC20.sol\":5657:5726  success && (returndata.length == 0 || abi.decode(returndata, (bool))) */\n    tag_85:\n      pop\n      pop\n      pop\n      dup14\n      jump(tag_73)\n        /* \"@openzeppelin/contracts/token/ERC20/utils/SafeERC20.sol\":5669:5725  returndata.length == 0 || abi.decode(returndata, (bool)) */\n    tag_84:\n        /* \"@openzeppelin/contracts/token/ERC20/utils/SafeERC20.sol\":5695:5725  abi.decode(returndata, (bool)) */\n      tag_86\n      swap4\n      pop\n      dup3\n      add\n      dup2\n      add\n      swap2\n      add\n      tag_5\n      jump\t// in\n    tag_86:\n        /* \"@openzeppelin/contracts/token/ERC20/utils/SafeERC20.sol\":5669:5725  returndata.length == 0 || abi.decode(returndata, (bool)) */\n      dup14\n      dup13\n      dup2\n      jump(tag_85)\n        /* \"@openzeppelin/contracts/token/ERC20/utils/SafeERC20.sol\":2200:2239  token.allowance(address(this), spender) */\n    tag_67:\n      swap4\n      pop\n      pop\n      pop\n      dup10\n      dup3\n      dup2\n      returndatasize\n      dup4\n      gt\n      tag_87\n      jumpi\n    tag_88:\n      tag_89\n      dup2\n      dup4\n      tag_4\n      jump\t// in\n    tag_89:\n      dup2\n      add\n        /* \"contracts/contracts/mockFlashLoan/mockFlashLoan.sol\":329:1919  contract MockFlashLoanBorrower is IERC3156FlashBorrower {... */\n      sub\n      slt\n      tag_21\n      jumpi\n        /* \"@openzeppelin/contracts/token/ERC20/utils/SafeERC20.sol\":2278:2298  oldAllowance + value */\n      tag_69\n        /* \"contracts/contracts/mockFlashLoan/mockFlashLoan.sol\":329:1919  contract MockFlashLoanBorrower is IERC3156FlashBorrower {... */\n      dup5\n      dup13\n      swap4\n      mload\n        /* \"@openzeppelin/contracts/token/ERC20/utils/SafeERC20.sol\":2200:2239  token.allowance(address(this), spender) */\n      swap1\n      swap2\n      jump(tag_68)\n    tag_87:\n      pop\n      returndatasize\n      jump(tag_88)\n    tag_65:\n        /* \"contracts/contracts/mockFlashLoan/mockFlashLoan.sol\":329:1919  contract MockFlashLoanBorrower is IERC3156FlashBorrower {... */\n      dup10\n      mload\n      returndatasize\n      0x00\n      dup3\n      returndatacopy\n      returndatasize\n      swap1\n      revert\n    tag_62:\n      dup6\n      mload\n      shl(0xe5, 0x461bcd)\n      dup2\n      mstore\n      0x20\n      dup2\n      dup5\n      add\n      mstore\n      0x18\n      dup2\n      dup11\n      add\n      mstore\n      0x556e74727573746564206c6f616e20696e69746961746f720000000000000000\n      dup2\n      dup8\n      add\n      mstore\n      0x64\n      swap1\n      revert\n    tag_60:\n      shl(0xe5, 0x461bcd)\n      dup2\n      mstore\n      0x20\n      dup5\n      dup3\n      add\n      mstore\n      0x22\n      dup11\n      dup3\n      add\n      mstore\n      0x4f6e6c79206c656e6465722063616e2063616c6c20746869732066756e637469\n      dup8\n      dup3\n      add\n      mstore\n      shl(0xf1, 0x37b7)\n      0x64\n      dup3\n      add\n      mstore\n      0x84\n      swap1\n      revert\n    tag_1:\n      calldataload(0x04)\n      swap1\n      sub(shl(0xa0, 0x01), 0x01)\n      dup3\n      and\n      dup3\n      sub\n      tag_21\n      jumpi\n      jump\t// out\n    tag_2:\n      swap2\n      swap1\n      dup3\n      add\n      dup1\n      swap3\n      gt\n      tag_94\n      jumpi\n      jump\t// out\n    tag_94:\n      mstore(0x00, shl(0xe0, 0x4e487b71))\n      mstore(0x04, 0x11)\n      revert(0x00, 0x24)\n    tag_3:\n      0x80\n      dup2\n      add\n      swap1\n      dup2\n      lt\n      0xffffffffffffffff\n      dup3\n      gt\n      or\n      tag_96\n      jumpi\n      0x40\n      mstore\n      jump\t// out\n    tag_96:\n      mstore(0x00, shl(0xe0, 0x4e487b71))\n      mstore(0x04, 0x41)\n      revert(0x00, 0x24)\n    tag_4:\n      swap1\n      0x1f\n      dup1\n      not\n      swap2\n      add\n      and\n      dup2\n      add\n      swap1\n      dup2\n      lt\n      0xffffffffffffffff\n      dup3\n      gt\n      or\n      tag_96\n      jumpi\n      0x40\n      mstore\n      jump\t// out\n    tag_5:\n      swap1\n      dup2\n      0x20\n      swap2\n      sub\n      slt\n      tag_21\n      jumpi\n      mload\n      dup1\n      iszero\n      iszero\n      dup2\n      sub\n      tag_21\n      jumpi\n      swap1\n      jump\t// out\n        /* \"@openzeppelin/contracts/token/ERC20/utils/SafeERC20.sol\":4059:4688  function _callOptionalReturn(IERC20 token, bytes memory data) private {... */\n    tag_6:\n        /* \"@openzeppelin/contracts/utils/Address.sol\":2847:2848  0 */\n      0x00\n        /* \"@openzeppelin/contracts/token/ERC20/utils/SafeERC20.sol\":4059:4688  function _callOptionalReturn(IERC20 token, bytes memory data) private {... */\n      dup1\n        /* \"@openzeppelin/contracts/utils/Address.sol\":3510:3565  verifyCallResultFromTarget(target, success, returndata) */\n      tag_104\n        /* \"@openzeppelin/contracts/token/ERC20/utils/SafeERC20.sol\":4059:4688  function _callOptionalReturn(IERC20 token, bytes memory data) private {... */\n      swap3\n        /* \"contracts/contracts/mockFlashLoan/mockFlashLoan.sol\":329:1919  contract MockFlashLoanBorrower is IERC3156FlashBorrower {... */\n      0x01\n      dup1\n      0xa0\n      shl\n      sub\n      and\n        /* \"@openzeppelin/contracts/utils/Address.sol\":3462:3493  target.call{value: value}(data) */\n      swap4\n      0x20\n      dup2\n      mload\n      swap2\n      add\n      dup3\n      dup7\n      gas\n      call\n      tag_105\n      tag_7\n      jump\t// in\n    tag_105:\n        /* \"@openzeppelin/contracts/utils/Address.sol\":3510:3565  verifyCallResultFromTarget(target, success, returndata) */\n      swap1\n      dup4\n      tag_8\n      jump\t// in\n    tag_104:\n        /* \"contracts/contracts/mockFlashLoan/mockFlashLoan.sol\":329:1919  contract MockFlashLoanBorrower is IERC3156FlashBorrower {... */\n      dup1\n      mload\n        /* \"@openzeppelin/contracts/token/ERC20/utils/SafeERC20.sol\":4551:4573  returndata.length != 0 */\n      swap1\n      dup2\n      iszero\n      iszero\n        /* \"@openzeppelin/contracts/token/ERC20/utils/SafeERC20.sol\":4551:4608  returndata.length != 0 && !abi.decode(returndata, (bool)) */\n      swap2\n      dup3\n      tag_106\n      jumpi\n        /* \"@openzeppelin/contracts/token/ERC20/utils/SafeERC20.sol\":4059:4688  function _callOptionalReturn(IERC20 token, bytes memory data) private {... */\n    tag_107:\n        /* \"@openzeppelin/contracts/token/ERC20/utils/SafeERC20.sol\":4547:4682  if (returndata.length != 0 && !abi.decode(returndata, (bool))) {... */\n      pop\n      pop\n      tag_108\n      jumpi\n        /* \"@openzeppelin/contracts/token/ERC20/utils/SafeERC20.sol\":4059:4688  function _callOptionalReturn(IERC20 token, bytes memory data) private {... */\n      pop\n      jump\t// out\n        /* \"@openzeppelin/contracts/token/ERC20/utils/SafeERC20.sol\":4547:4682  if (returndata.length != 0 && !abi.decode(returndata, (bool))) {... */\n    tag_108:\n        /* \"contracts/contracts/mockFlashLoan/mockFlashLoan.sol\":329:1919  contract MockFlashLoanBorrower is IERC3156FlashBorrower {... */\n      0x24\n      swap1\n      mload(0x40)\n        /* \"@openzeppelin/contracts/token/ERC20/utils/SafeERC20.sol\":4631:4671  SafeERC20FailedOperation(address(token)) */\n      swap1\n      shl(0xe0, 0x5274afe7)\n      dup3\n      mstore\n      0x04\n      dup3\n      add\n        /* \"contracts/contracts/mockFlashLoan/mockFlashLoan.sol\":329:1919  contract MockFlashLoanBorrower is IERC3156FlashBorrower {... */\n      mstore\n        /* \"@openzeppelin/contracts/token/ERC20/utils/SafeERC20.sol\":4631:4671  SafeERC20FailedOperation(address(token)) */\n      revert\n        /* \"@openzeppelin/contracts/token/ERC20/utils/SafeERC20.sol\":4551:4608  returndata.length != 0 && !abi.decode(returndata, (bool)) */\n    tag_106:\n        /* \"@openzeppelin/contracts/token/ERC20/utils/SafeERC20.sol\":4578:4608  abi.decode(returndata, (bool)) */\n      tag_110\n      swap3\n      pop\n        /* \"@openzeppelin/contracts/utils/Address.sol\":3462:3493  target.call{value: value}(data) */\n      0x20\n        /* \"@openzeppelin/contracts/token/ERC20/utils/SafeERC20.sol\":4578:4608  abi.decode(returndata, (bool)) */\n      dup1\n      swap2\n      dup4\n      add\n      add\n      swap2\n      add\n      tag_5\n      jump\t// in\n    tag_110:\n        /* \"@openzeppelin/contracts/token/ERC20/utils/SafeERC20.sol\":4577:4608  !abi.decode(returndata, (bool)) */\n      iszero\n        /* \"@openzeppelin/contracts/token/ERC20/utils/SafeERC20.sol\":4551:4608  returndata.length != 0 && !abi.decode(returndata, (bool)) */\n      0x00\n      dup1\n      jump(tag_107)\n        /* \"contracts/contracts/mockFlashLoan/mockFlashLoan.sol\":329:1919  contract MockFlashLoanBorrower is IERC3156FlashBorrower {... */\n    tag_7:\n      jumpi(tag_111, iszero(returndatasize))\n      returndatasize\n      swap1\n      0xffffffffffffffff\n      dup3\n      gt\n      tag_96\n      jumpi\n      mload(0x40)\n      swap2\n      tag_115\n      0x1f\n      dup3\n      add\n      not(0x1f)\n      and\n      0x20\n      add\n      dup5\n      tag_4\n      jump\t// in\n    tag_115:\n      dup3\n      mstore\n      returndatasize\n      0x00\n      0x20\n      dup5\n      add\n      returndatacopy\n      jump\t// out\n    tag_111:\n      0x60\n      swap1\n      jump\t// out\n        /* \"@openzeppelin/contracts/utils/Address.sol\":4625:5207  function verifyCallResultFromTarget(... */\n    tag_8:\n      swap1\n        /* \"@openzeppelin/contracts/utils/Address.sol\":4797:4805  !success */\n      tag_117\n      jumpi\n      pop\n        /* \"contracts/contracts/mockFlashLoan/mockFlashLoan.sol\":329:1919  contract MockFlashLoanBorrower is IERC3156FlashBorrower {... */\n      dup1\n      mload\n        /* \"@openzeppelin/contracts/utils/Address.sol\":5874:5895  returndata.length > 0 */\n      iszero\n        /* \"@openzeppelin/contracts/utils/Address.sol\":5874:5891  returndata.length */\n      tag_119\n      jumpi\n        /* \"@openzeppelin/contracts/utils/Address.sol\":6046:6188  assembly {... */\n      dup1\n      mload\n      swap1\n      0x20\n      add\n      revert\n        /* \"@openzeppelin/contracts/utils/Address.sol\":5870:6253  if (returndata.length > 0) {... */\n    tag_119:\n        /* \"contracts/contracts/mockFlashLoan/mockFlashLoan.sol\":329:1919  contract MockFlashLoanBorrower is IERC3156FlashBorrower {... */\n      mload(0x40)\n      shl(0xe1, 0x0a12f521)\n        /* \"@openzeppelin/contracts/utils/Address.sol\":6225:6242  FailedInnerCall() */\n      dup2\n      mstore\n      0x04\n      swap1\n      revert\n        /* \"@openzeppelin/contracts/utils/Address.sol\":4793:5201  if (!success) {... */\n    tag_117:\n        /* \"contracts/contracts/mockFlashLoan/mockFlashLoan.sol\":329:1919  contract MockFlashLoanBorrower is IERC3156FlashBorrower {... */\n      dup2\n      mload\n        /* \"@openzeppelin/contracts/utils/Address.sol\":5045:5067  returndata.length == 0 */\n      iszero\n        /* \"@openzeppelin/contracts/utils/Address.sol\":5045:5094  returndata.length == 0 && target.code.length == 0 */\n      dup1\n      tag_121\n      jumpi\n        /* \"@openzeppelin/contracts/utils/Address.sol\":4793:5201  if (!success) {... */\n    tag_122:\n        /* \"@openzeppelin/contracts/utils/Address.sol\":5041:5160  if (returndata.length == 0 && target.code.length == 0) {... */\n      tag_123\n      jumpi\n        /* \"@openzeppelin/contracts/utils/Address.sol\":5173:5190  return returndata */\n      pop\n      swap1\n      jump\t// out\n        /* \"@openzeppelin/contracts/utils/Address.sol\":5041:5160  if (returndata.length == 0 && target.code.length == 0) {... */\n    tag_123:\n        /* \"contracts/contracts/mockFlashLoan/mockFlashLoan.sol\":329:1919  contract MockFlashLoanBorrower is IERC3156FlashBorrower {... */\n      mload(0x40)\n      shl(0xe0, 0x9996b315)\n        /* \"@openzeppelin/contracts/utils/Address.sol\":5121:5145  AddressEmptyCode(target) */\n      dup2\n      mstore\n      sub(shl(0xa0, 0x01), 0x01)\n        /* \"contracts/contracts/mockFlashLoan/mockFlashLoan.sol\":329:1919  contract MockFlashLoanBorrower is IERC3156FlashBorrower {... */\n      swap1\n      swap2\n      and\n        /* \"@openzeppelin/contracts/utils/Address.sol\":5121:5145  AddressEmptyCode(target) */\n      0x04\n      dup3\n      add\n        /* \"contracts/contracts/mockFlashLoan/mockFlashLoan.sol\":329:1919  contract MockFlashLoanBorrower is IERC3156FlashBorrower {... */\n      mstore\n      0x24\n      swap1\n        /* \"@openzeppelin/contracts/utils/Address.sol\":5121:5145  AddressEmptyCode(target) */\n      revert\n        /* \"@openzeppelin/contracts/utils/Address.sol\":5045:5094  returndata.length == 0 && target.code.length == 0 */\n    tag_121:\n        /* \"@openzeppelin/contracts/utils/Address.sol\":5071:5089  target.code.length */\n      pop\n      dup1\n      extcodesize\n        /* \"@openzeppelin/contracts/utils/Address.sol\":5071:5094  target.code.length == 0 */\n      iszero\n        /* \"@openzeppelin/contracts/utils/Address.sol\":5045:5094  returndata.length == 0 && target.code.length == 0 */\n      jump(tag_122)\n\n    auxdata: 0xa26469706673582212203b9e0ae2cc812465e6a00f60d256a0480856c798acb590d45e32922ff80252eb64736f6c63430008180033\n}\n",
				"bytecode": {
					"linkReferences": {},
					"object": "60803461007357601f61072538819003918201601f19168301916001600160401b038311848410176100775780849260209460405283398101031261007357516001600160a01b03811690819003610073575f80546001600160a01b031916919091179055604051610699908161008c8239f35b5f80fd5b634e487b7160e01b5f52604160045260245ffdfe6080604090808252600480361015610015575f80fd5b5f3560e01c91826323e30c8b146101dd575081635e2c1b3a146100b0575080638237e538146100765763bcead63e1461004c575f80fd5b34610072575f366003190112610072575f5490516001600160a01b039091168152602090f35b5f80fd5b5034610072575f36600319011261007257602090517f439148f0bbc682ca079e46d6e2c2f0c1e3b820f1a291b069d8882abf8cf18dd98152f35b9050346100725781600319360112610072576100ca6104af565b5f5483516001600160a01b0394929185169080840167ffffffffffffffff8111828210176101ca578496939592919652600e865260209586936d417262697472617279206461746160901b858301528551968794632e7ff4ef60e11b86523090860152166024840152602435604484015260806064840152805190816084850152845f5b8381106101b2575050505f60a484838383839684010152601f801991011681010301925af19081156101a9575061018157005b816101a092903d106101a2575b6101988183610516565b810190610538565b005b503d61018e565b513d5f823e3d90fd5b82810182015189820160a4015288955086910161014e565b604186634e487b7160e01b5f525260245ffd5b83346100725760a0366003190112610072576101f76104af565b6024936001600160a01b0391853583811692908390036100725760449367ffffffffffffffff9260843584811161007257366023820112156100725780840135858111610072573691018a011161007257815f541697883303610465575081309116036104245761026b60643586356104c5565b90865197636eb1769f60e11b895230848a0152808a8a0152602098898189818a5afa90811561041a578b929185915f916103e4575b50906102ab916104c5565b905f808b51938d8501908463095ea7b360e01b978884528701528c8601528b85526102d5856104e6565b845190828c5af16102e46105c1565b816103b4575b50806103aa575b15610372575b5050505f54168651956323b872dd60e01b89880152308a88015286015260648501526064845260a0840191848310908311176103605750835261033a9190610550565b517f439148f0bbc682ca079e46d6e2c2f0c1e3b820f1a291b069d8882abf8cf18dd98152f35b60418791634e487b7160e01b5f52525ffd5b6103a29261039c918b51918d8301528d8201525f8a820152898152610396816104e6565b88610550565b86610550565b8980806102f7565b50873b15156102f1565b8051801592508d9083156103cc575b5050508d6102ea565b6103dc9350820181019101610538565b8d8c816103c3565b935050508982813d8311610413575b6103fd8183610516565b81010312610072576102ab848c935190916102a0565b503d6103f3565b89513d5f823e3d90fd5b855162461bcd60e51b81526020818401526018818a01527f556e74727573746564206c6f616e20696e69746961746f72000000000000000081870152606490fd5b62461bcd60e51b815260208482015260228a8201527f4f6e6c79206c656e6465722063616e2063616c6c20746869732066756e637469878201526137b760f11b6064820152608490fd5b600435906001600160a01b038216820361007257565b919082018092116104d257565b634e487b7160e01b5f52601160045260245ffd5b6080810190811067ffffffffffffffff82111761050257604052565b634e487b7160e01b5f52604160045260245ffd5b90601f8019910116810190811067ffffffffffffffff82111761050257604052565b90816020910312610072575180151581036100725790565b5f806105789260018060a01b03169360208151910182865af16105716105c1565b9083610600565b80519081151591826105a6575b505061058e5750565b60249060405190635274afe760e01b82526004820152fd5b6105b99250602080918301019101610538565b155f80610585565b3d156105fb573d9067ffffffffffffffff821161050257604051916105f0601f8201601f191660200184610516565b82523d5f602084013e565b606090565b90610627575080511561061557805190602001fd5b604051630a12f52160e11b8152600490fd5b8151158061065a575b610638575090565b604051639996b31560e01b81526001600160a01b039091166004820152602490fd5b50803b1561063056fea26469706673582212203b9e0ae2cc812465e6a00f60d256a0480856c798acb590d45e32922ff80252eb64736f6c63430008180033",
					"opcodes": "PUSH1 0x80 CALLVALUE PUSH2 0x73 JUMPI PUSH1 0x1F PUSH2 0x725 CODESIZE DUP2 SWAP1 SUB SWAP2 DUP3 ADD PUSH1 0x1F NOT AND DUP4 ADD SWAP2 PUSH1 0x1 PUSH1 0x1 PUSH1 0x40 SHL SUB DUP4 GT DUP5 DUP5 LT OR PUSH2 0x77 JUMPI DUP1 DUP5 SWAP3 PUSH1 0x20 SWAP5 PUSH1 0x40 MSTORE DUP4 CODECOPY DUP2 ADD SUB SLT PUSH2 0x73 JUMPI MLOAD PUSH1 0x1 PUSH1 0x1 PUSH1 0xA0 SHL SUB DUP2 AND SWAP1 DUP2 SWAP1 SUB PUSH2 0x73 JUMPI PUSH0 DUP1 SLOAD PUSH1 0x1 PUSH1 0x1 PUSH1 0xA0 SHL SUB NOT AND SWAP2 SWAP1 SWAP2 OR SWAP1 SSTORE PUSH1 0x40 MLOAD PUSH2 0x699 SWAP1 DUP2 PUSH2 0x8C DUP3 CODECOPY RETURN JUMPDEST PUSH0 DUP1 REVERT JUMPDEST PUSH4 0x4E487B71 PUSH1 0xE0 SHL PUSH0 MSTORE PUSH1 0x41 PUSH1 0x4 MSTORE PUSH1 0x24 PUSH0 REVERT INVALID PUSH1 0x80 PUSH1 0x40 SWAP1 DUP1 DUP3 MSTORE PUSH1 0x4 DUP1 CALLDATASIZE LT ISZERO PUSH2 0x15 JUMPI PUSH0 DUP1 REVERT JUMPDEST PUSH0 CALLDATALOAD PUSH1 0xE0 SHR SWAP2 DUP3 PUSH4 0x23E30C8B EQ PUSH2 0x1DD JUMPI POP DUP2 PUSH4 0x5E2C1B3A EQ PUSH2 0xB0 JUMPI POP DUP1 PUSH4 0x8237E538 EQ PUSH2 0x76 JUMPI PUSH4 0xBCEAD63E EQ PUSH2 0x4C JUMPI PUSH0 DUP1 REVERT JUMPDEST CALLVALUE PUSH2 0x72 JUMPI PUSH0 CALLDATASIZE PUSH1 0x3 NOT ADD SLT PUSH2 0x72 JUMPI PUSH0 SLOAD SWAP1 MLOAD PUSH1 0x1 PUSH1 0x1 PUSH1 0xA0 SHL SUB SWAP1 SWAP2 AND DUP2 MSTORE PUSH1 0x20 SWAP1 RETURN JUMPDEST PUSH0 DUP1 REVERT JUMPDEST POP CALLVALUE PUSH2 0x72 JUMPI PUSH0 CALLDATASIZE PUSH1 0x3 NOT ADD SLT PUSH2 0x72 JUMPI PUSH1 0x20 SWAP1 MLOAD PUSH32 0x439148F0BBC682CA079E46D6E2C2F0C1E3B820F1A291B069D8882ABF8CF18DD9 DUP2 MSTORE RETURN JUMPDEST SWAP1 POP CALLVALUE PUSH2 0x72 JUMPI DUP2 PUSH1 0x3 NOT CALLDATASIZE ADD SLT PUSH2 0x72 JUMPI PUSH2 0xCA PUSH2 0x4AF JUMP JUMPDEST PUSH0 SLOAD DUP4 MLOAD PUSH1 0x1 PUSH1 0x1 PUSH1 0xA0 SHL SUB SWAP5 SWAP3 SWAP2 DUP6 AND SWAP1 DUP1 DUP5 ADD PUSH8 0xFFFFFFFFFFFFFFFF DUP2 GT DUP3 DUP3 LT OR PUSH2 0x1CA JUMPI DUP5 SWAP7 SWAP4 SWAP6 SWAP3 SWAP2 SWAP7 MSTORE PUSH1 0xE DUP7 MSTORE PUSH1 0x20 SWAP6 DUP7 SWAP4 PUSH14 0x4172626974726172792064617461 PUSH1 0x90 SHL DUP6 DUP4 ADD MSTORE DUP6 MLOAD SWAP7 DUP8 SWAP5 PUSH4 0x2E7FF4EF PUSH1 0xE1 SHL DUP7 MSTORE ADDRESS SWAP1 DUP7 ADD MSTORE AND PUSH1 0x24 DUP5 ADD MSTORE PUSH1 0x24 CALLDATALOAD PUSH1 0x44 DUP5 ADD MSTORE PUSH1 0x80 PUSH1 0x64 DUP5 ADD MSTORE DUP1 MLOAD SWAP1 DUP2 PUSH1 0x84 DUP6 ADD MSTORE DUP5 PUSH0 JUMPDEST DUP4 DUP2 LT PUSH2 0x1B2 JUMPI POP POP POP PUSH0 PUSH1 0xA4 DUP5 DUP4 DUP4 DUP4 DUP4 SWAP7 DUP5 ADD ADD MSTORE PUSH1 0x1F DUP1 NOT SWAP2 ADD AND DUP2 ADD SUB ADD SWAP3 GAS CALL SWAP1 DUP2 ISZERO PUSH2 0x1A9 JUMPI POP PUSH2 0x181 JUMPI STOP JUMPDEST DUP2 PUSH2 0x1A0 SWAP3 SWAP1 RETURNDATASIZE LT PUSH2 0x1A2 JUMPI JUMPDEST PUSH2 0x198 DUP2 DUP4 PUSH2 0x516 JUMP JUMPDEST DUP2 ADD SWAP1 PUSH2 0x538 JUMP JUMPDEST STOP JUMPDEST POP RETURNDATASIZE PUSH2 0x18E JUMP JUMPDEST MLOAD RETURNDATASIZE PUSH0 DUP3 RETURNDATACOPY RETURNDATASIZE SWAP1 REVERT JUMPDEST DUP3 DUP2 ADD DUP3 ADD MLOAD DUP10 DUP3 ADD PUSH1 0xA4 ADD MSTORE DUP9 SWAP6 POP DUP7 SWAP2 ADD PUSH2 0x14E JUMP JUMPDEST PUSH1 0x41 DUP7 PUSH4 0x4E487B71 PUSH1 0xE0 SHL PUSH0 MSTORE MSTORE PUSH1 0x24 PUSH0 REVERT JUMPDEST DUP4 CALLVALUE PUSH2 0x72 JUMPI PUSH1 0xA0 CALLDATASIZE PUSH1 0x3 NOT ADD SLT PUSH2 0x72 JUMPI PUSH2 0x1F7 PUSH2 0x4AF JUMP JUMPDEST PUSH1 0x24 SWAP4 PUSH1 0x1 PUSH1 0x1 PUSH1 0xA0 SHL SUB SWAP2 DUP6 CALLDATALOAD DUP4 DUP2 AND SWAP3 SWAP1 DUP4 SWAP1 SUB PUSH2 0x72 JUMPI PUSH1 0x44 SWAP4 PUSH8 0xFFFFFFFFFFFFFFFF SWAP3 PUSH1 0x84 CALLDATALOAD DUP5 DUP2 GT PUSH2 0x72 JUMPI CALLDATASIZE PUSH1 0x23 DUP3 ADD SLT ISZERO PUSH2 0x72 JUMPI DUP1 DUP5 ADD CALLDATALOAD DUP6 DUP2 GT PUSH2 0x72 JUMPI CALLDATASIZE SWAP2 ADD DUP11 ADD GT PUSH2 0x72 JUMPI DUP2 PUSH0 SLOAD AND SWAP8 DUP9 CALLER SUB PUSH2 0x465 JUMPI POP DUP2 ADDRESS SWAP2 AND SUB PUSH2 0x424 JUMPI PUSH2 0x26B PUSH1 0x64 CALLDATALOAD DUP7 CALLDATALOAD PUSH2 0x4C5 JUMP JUMPDEST SWAP1 DUP7 MLOAD SWAP8 PUSH4 0x6EB1769F PUSH1 0xE1 SHL DUP10 MSTORE ADDRESS DUP5 DUP11 ADD MSTORE DUP1 DUP11 DUP11 ADD MSTORE PUSH1 0x20 SWAP9 DUP10 DUP2 DUP10 DUP2 DUP11 GAS STATICCALL SWAP1 DUP2 ISZERO PUSH2 0x41A JUMPI DUP12 SWAP3 SWAP2 DUP6 SWAP2 PUSH0 SWAP2 PUSH2 0x3E4 JUMPI JUMPDEST POP SWAP1 PUSH2 0x2AB SWAP2 PUSH2 0x4C5 JUMP JUMPDEST SWAP1 PUSH0 DUP1 DUP12 MLOAD SWAP4 DUP14 DUP6 ADD SWAP1 DUP5 PUSH4 0x95EA7B3 PUSH1 0xE0 SHL SWAP8 DUP9 DUP5 MSTORE DUP8 ADD MSTORE DUP13 DUP7 ADD MSTORE DUP12 DUP6 MSTORE PUSH2 0x2D5 DUP6 PUSH2 0x4E6 JUMP JUMPDEST DUP5 MLOAD SWAP1 DUP3 DUP13 GAS CALL PUSH2 0x2E4 PUSH2 0x5C1 JUMP JUMPDEST DUP2 PUSH2 0x3B4 JUMPI JUMPDEST POP DUP1 PUSH2 0x3AA JUMPI JUMPDEST ISZERO PUSH2 0x372 JUMPI JUMPDEST POP POP POP PUSH0 SLOAD AND DUP7 MLOAD SWAP6 PUSH4 0x23B872DD PUSH1 0xE0 SHL DUP10 DUP9 ADD MSTORE ADDRESS DUP11 DUP9 ADD MSTORE DUP7 ADD MSTORE PUSH1 0x64 DUP6 ADD MSTORE PUSH1 0x64 DUP5 MSTORE PUSH1 0xA0 DUP5 ADD SWAP2 DUP5 DUP4 LT SWAP1 DUP4 GT OR PUSH2 0x360 JUMPI POP DUP4 MSTORE PUSH2 0x33A SWAP2 SWAP1 PUSH2 0x550 JUMP JUMPDEST MLOAD PUSH32 0x439148F0BBC682CA079E46D6E2C2F0C1E3B820F1A291B069D8882ABF8CF18DD9 DUP2 MSTORE RETURN JUMPDEST PUSH1 0x41 DUP8 SWAP2 PUSH4 0x4E487B71 PUSH1 0xE0 SHL PUSH0 MSTORE MSTORE PUSH0 REVERT JUMPDEST PUSH2 0x3A2 SWAP3 PUSH2 0x39C SWAP2 DUP12 MLOAD SWAP2 DUP14 DUP4 ADD MSTORE DUP14 DUP3 ADD MSTORE PUSH0 DUP11 DUP3 ADD MSTORE DUP10 DUP2 MSTORE PUSH2 0x396 DUP2 PUSH2 0x4E6 JUMP JUMPDEST DUP9 PUSH2 0x550 JUMP JUMPDEST DUP7 PUSH2 0x550 JUMP JUMPDEST DUP10 DUP1 DUP1 PUSH2 0x2F7 JUMP JUMPDEST POP DUP8 EXTCODESIZE ISZERO ISZERO PUSH2 0x2F1 JUMP JUMPDEST DUP1 MLOAD DUP1 ISZERO SWAP3 POP DUP14 SWAP1 DUP4 ISZERO PUSH2 0x3CC JUMPI JUMPDEST POP POP POP DUP14 PUSH2 0x2EA JUMP JUMPDEST PUSH2 0x3DC SWAP4 POP DUP3 ADD DUP2 ADD SWAP2 ADD PUSH2 0x538 JUMP JUMPDEST DUP14 DUP13 DUP2 PUSH2 0x3C3 JUMP JUMPDEST SWAP4 POP POP POP DUP10 DUP3 DUP2 RETURNDATASIZE DUP4 GT PUSH2 0x413 JUMPI JUMPDEST PUSH2 0x3FD DUP2 DUP4 PUSH2 0x516 JUMP JUMPDEST DUP2 ADD SUB SLT PUSH2 0x72 JUMPI PUSH2 0x2AB DUP5 DUP13 SWAP4 MLOAD SWAP1 SWAP2 PUSH2 0x2A0 JUMP JUMPDEST POP RETURNDATASIZE PUSH2 0x3F3 JUMP JUMPDEST DUP10 MLOAD RETURNDATASIZE PUSH0 DUP3 RETURNDATACOPY RETURNDATASIZE SWAP1 REVERT JUMPDEST DUP6 MLOAD PUSH3 0x461BCD PUSH1 0xE5 SHL DUP2 MSTORE PUSH1 0x20 DUP2 DUP5 ADD MSTORE PUSH1 0x18 DUP2 DUP11 ADD MSTORE PUSH32 0x556E74727573746564206C6F616E20696E69746961746F720000000000000000 DUP2 DUP8 ADD MSTORE PUSH1 0x64 SWAP1 REVERT JUMPDEST PUSH3 0x461BCD PUSH1 0xE5 SHL DUP2 MSTORE PUSH1 0x20 DUP5 DUP3 ADD MSTORE PUSH1 0x22 DUP11 DUP3 ADD MSTORE PUSH32 0x4F6E6C79206C656E6465722063616E2063616C6C20746869732066756E637469 DUP8 DUP3 ADD MSTORE PUSH2 0x37B7 PUSH1 0xF1 SHL PUSH1 0x64 DUP3 ADD MSTORE PUSH1 0x84 SWAP1 REVERT JUMPDEST PUSH1 0x4 CALLDATALOAD SWAP1 PUSH1 0x1 PUSH1 0x1 PUSH1 0xA0 SHL SUB DUP3 AND DUP3 SUB PUSH2 0x72 JUMPI JUMP JUMPDEST SWAP2 SWAP1 DUP3 ADD DUP1 SWAP3 GT PUSH2 0x4D2 JUMPI JUMP JUMPDEST PUSH4 0x4E487B71 PUSH1 0xE0 SHL PUSH0 MSTORE PUSH1 0x11 PUSH1 0x4 MSTORE PUSH1 0x24 PUSH0 REVERT JUMPDEST PUSH1 0x80 DUP2 ADD SWAP1 DUP2 LT PUSH8 0xFFFFFFFFFFFFFFFF DUP3 GT OR PUSH2 0x502 JUMPI PUSH1 0x40 MSTORE JUMP JUMPDEST PUSH4 0x4E487B71 PUSH1 0xE0 SHL PUSH0 MSTORE PUSH1 0x41 PUSH1 0x4 MSTORE PUSH1 0x24 PUSH0 REVERT JUMPDEST SWAP1 PUSH1 0x1F DUP1 NOT SWAP2 ADD AND DUP2 ADD SWAP1 DUP2 LT PUSH8 0xFFFFFFFFFFFFFFFF DUP3 GT OR PUSH2 0x502 JUMPI PUSH1 0x40 MSTORE JUMP JUMPDEST SWAP1 DUP2 PUSH1 0x20 SWAP2 SUB SLT PUSH2 0x72 JUMPI MLOAD DUP1 ISZERO ISZERO DUP2 SUB PUSH2 0x72 JUMPI SWAP1 JUMP JUMPDEST PUSH0 DUP1 PUSH2 0x578 SWAP3 PUSH1 0x1 DUP1 PUSH1 0xA0 SHL SUB AND SWAP4 PUSH1 0x20 DUP2 MLOAD SWAP2 ADD DUP3 DUP7 GAS CALL PUSH2 0x571 PUSH2 0x5C1 JUMP JUMPDEST SWAP1 DUP4 PUSH2 0x600 JUMP JUMPDEST DUP1 MLOAD SWAP1 DUP2 ISZERO ISZERO SWAP2 DUP3 PUSH2 0x5A6 JUMPI JUMPDEST POP POP PUSH2 0x58E JUMPI POP JUMP JUMPDEST PUSH1 0x24 SWAP1 PUSH1 0x40 MLOAD SWAP1 PUSH4 0x5274AFE7 PUSH1 0xE0 SHL DUP3 MSTORE PUSH1 0x4 DUP3 ADD MSTORE REVERT JUMPDEST PUSH2 0x5B9 SWAP3 POP PUSH1 0x20 DUP1 SWAP2 DUP4 ADD ADD SWAP2 ADD PUSH2 0x538 JUMP JUMPDEST ISZERO PUSH0 DUP1 PUSH2 0x585 JUMP JUMPDEST RETURNDATASIZE ISZERO PUSH2 0x5FB JUMPI RETURNDATASIZE SWAP1 PUSH8 0xFFFFFFFFFFFFFFFF DUP3 GT PUSH2 0x502 JUMPI PUSH1 0x40 MLOAD SWAP2 PUSH2 0x5F0 PUSH1 0x1F DUP3 ADD PUSH1 0x1F NOT AND PUSH1 0x20 ADD DUP5 PUSH2 0x516 JUMP JUMPDEST DUP3 MSTORE RETURNDATASIZE PUSH0 PUSH1 0x20 DUP5 ADD RETURNDATACOPY JUMP JUMPDEST PUSH1 0x60 SWAP1 JUMP JUMPDEST SWAP1 PUSH2 0x627 JUMPI POP DUP1 MLOAD ISZERO PUSH2 0x615 JUMPI DUP1 MLOAD SWAP1 PUSH1 0x20 ADD REVERT JUMPDEST PUSH1 0x40 MLOAD PUSH4 0xA12F521 PUSH1 0xE1 SHL DUP2 MSTORE PUSH1 0x4 SWAP1 REVERT JUMPDEST DUP2 MLOAD ISZERO DUP1 PUSH2 0x65A JUMPI JUMPDEST PUSH2 0x638 JUMPI POP SWAP1 JUMP JUMPDEST PUSH1 0x40 MLOAD PUSH4 0x9996B315 PUSH1 0xE0 SHL DUP2 MSTORE PUSH1 0x1 PUSH1 0x1 PUSH1 0xA0 SHL SUB SWAP1 SWAP2 AND PUSH1 0x4 DUP3 ADD MSTORE PUSH1 0x24 SWAP1 REVERT JUMPDEST POP DUP1 EXTCODESIZE ISZERO PUSH2 0x630 JUMP INVALID LOG2 PUSH5 0x6970667358 0x22 SLT KECCAK256 EXTCODESIZE SWAP15 EXP 0xE2 0xCC DUP2 0x24 PUSH6 0xE6A00F60D256 LOG0 BASEFEE ADDMOD JUMP 0xC7 SWAP9 0xAC 0xB5 SWAP1 0xD4 MCOPY ORIGIN SWAP3 0x2F 0xF8 MUL MSTORE 0xEB PUSH5 0x736F6C6343 STOP ADDMOD XOR STOP CALLER "
				},
				"gasEstimates": {
					"creation": {
						"codeDepositCost": "337800",
						"executionCost": "infinite",
						"totalCost": "infinite"
					},
					"external": {
						"CALLBACK_SUCCESS()": "210",
						"initiateFlashLoan(address,uint256)": "infinite",
						"lender()": "2353",
						"onFlashLoan(address,address,uint256,uint256,bytes)": "infinite"
					}
				},
				"methodIdentifiers": {
					"CALLBACK_SUCCESS()": "8237e538",
					"initiateFlashLoan(address,uint256)": "5e2c1b3a",
					"lender()": "bcead63e",
					"onFlashLoan(address,address,uint256,uint256,bytes)": "23e30c8b"
				}
			},
			"storageLayout": {
				"storage": [
					{
						"astId": 730,
						"contract": "contracts/contracts/mockFlashLoan/mockFlashLoan.sol:MockFlashLoanBorrower",
						"label": "lender",
						"offset": 0,
						"slot": "0",
						"type": "t_contract(IERC3156FlashLender)58"
					}
				],
				"types": {
					"t_contract(IERC3156FlashLender)58": {
						"encoding": "inplace",
						"label": "contract IERC3156FlashLender",
						"numberOfBytes": "20"
					}
				}
			},
			"userdoc": {
				"kind": "user",
				"methods": {},
				"version": 1
			}
		}
	}
}