{
	"data": {
		"bytecode": {
			"linkReferences": {},
			"object": "60803461007357601f61075a38819003918201601f19168301916001600160401b038311848410176100775780849260209460405283398101031261007357516001600160a01b03811690819003610073575f80546001600160a01b0319169190911790556040516106ce908161008c8239f35b5f80fd5b634e487b7160e01b5f52604160045260245ffdfe6080604081815260049182361015610015575f80fd5b5f92833560e01c91826323e30c8b146101ee575081635e2c1b3a146100b2575080638237e538146100785763bcead63e1461004e575f80fd5b34610074578160031936011261007457905490516001600160a01b039091168152602090f35b5080fd5b5034610074578160031936011261007457602090517f439148f0bbc682ca079e46d6e2c2f0c1e3b820f1a291b069d8882abf8cf18dd98152f35b9050346101ea57816003193601126101ea576100cc6104e0565b835483519193916001600160a01b039182169181840167ffffffffffffffff8111838210176101d757849695929693919352600e86528660209687946d417262697472617279206461746160901b868301528651978895632e7ff4ef60e11b87523090870152166024850152602435604485015260806064850152805190816084860152825b8281106101bc5750509060a484838383839684010152601f801991011681010301925af19081156101b35750610186578280f35b816101a592903d106101ac575b61019d818361052a565b81019061054c565b505f808280f35b503d610193565b513d85823e3d90fd5b81810187015189820160a4015289968996508b945001610152565b634e487b7160e01b885260418652602488fd5b8280fd5b929150346104dc5760a03660031901126104dc5761020a6104e0565b6024946001600160a01b03928635848116939291908490036100745767ffffffffffffffff926084358481116104dc57366023820112156104dc57808301358581116104d8573691018a01116101ea57858354169788330361048d5750853091160361044b576044946102806064358735610564565b90875198636eb1769f60e11b8a5230848b0152808b8b01526020998a818a818b5afa908115610441578b8d93868c948e948b91610400575b50906102c391610564565b9489808d8651978689019063095ea7b360e01b9a8b835287878c0152818b015289526102ee896104fa565b828951925af16102fc6105f6565b816103d0575b50806103c6575b1561038e575b5050505050508354168751966323b872dd60e01b8a890152308b89015287015260648601526064855260a08501928584109084111761037c57505083526103569190610585565b517f439148f0bbc682ca079e46d6e2c2f0c1e3b820f1a291b069d8882abf8cf18dd98152f35b634e487b7160e01b8252604190528690fd5b6103bb956103b5945193840152820152878b8201528a81526103af816104fa565b89610585565b87610585565b5f80898b828e61030f565b508b3b1515610309565b805180159250859083156103e8575b5050505f610302565b6103f8935082018101910161054c565b5f84816103df565b955050509350905081813d831161043a575b61041c818361052a565b8101031261043657898b8d936102c3878d955190916102b8565b8580fd5b503d610412565b8a513d88823e3d90fd5b606490601889602089519362461bcd60e51b85528401528201527f556e74727573746564206c6f616e20696e69746961746f7200000000000000006044820152fd5b62461bcd60e51b815260208382015260228a8201527f4f6e6c79206c656e6465722063616e2063616c6c20746869732066756e63746960448201526137b760f11b6064820152608490fd5b8480fd5b8380fd5b600435906001600160a01b03821682036104f657565b5f80fd5b6080810190811067ffffffffffffffff82111761051657604052565b634e487b7160e01b5f52604160045260245ffd5b90601f8019910116810190811067ffffffffffffffff82111761051657604052565b908160209103126104f6575180151581036104f65790565b9190820180921161057157565b634e487b7160e01b5f52601160045260245ffd5b5f806105ad9260018060a01b03169360208151910182865af16105a66105f6565b9083610635565b80519081151591826105db575b50506105c35750565b60249060405190635274afe760e01b82526004820152fd5b6105ee925060208091830101910161054c565b155f806105ba565b3d15610630573d9067ffffffffffffffff82116105165760405191610625601f8201601f19166020018461052a565b82523d5f602084013e565b606090565b9061065c575080511561064a57805190602001fd5b604051630a12f52160e11b8152600490fd5b8151158061068f575b61066d575090565b604051639996b31560e01b81526001600160a01b039091166004820152602490fd5b50803b1561066556fea264697066735822122095becf8f1fa6c4291bb3edefc5b7fe01c68c577774fe1d1193beaae1aa5a432b64736f6c63430008140033",
			"opcodes": "PUSH1 0x80 CALLVALUE PUSH2 0x73 JUMPI PUSH1 0x1F PUSH2 0x75A CODESIZE DUP2 SWAP1 SUB SWAP2 DUP3 ADD PUSH1 0x1F NOT AND DUP4 ADD SWAP2 PUSH1 0x1 PUSH1 0x1 PUSH1 0x40 SHL SUB DUP4 GT DUP5 DUP5 LT OR PUSH2 0x77 JUMPI DUP1 DUP5 SWAP3 PUSH1 0x20 SWAP5 PUSH1 0x40 MSTORE DUP4 CODECOPY DUP2 ADD SUB SLT PUSH2 0x73 JUMPI MLOAD PUSH1 0x1 PUSH1 0x1 PUSH1 0xA0 SHL SUB DUP2 AND SWAP1 DUP2 SWAP1 SUB PUSH2 0x73 JUMPI PUSH0 DUP1 SLOAD PUSH1 0x1 PUSH1 0x1 PUSH1 0xA0 SHL SUB NOT AND SWAP2 SWAP1 SWAP2 OR SWAP1 SSTORE PUSH1 0x40 MLOAD PUSH2 0x6CE SWAP1 DUP2 PUSH2 0x8C DUP3 CODECOPY RETURN JUMPDEST PUSH0 DUP1 REVERT JUMPDEST PUSH4 0x4E487B71 PUSH1 0xE0 SHL PUSH0 MSTORE PUSH1 0x41 PUSH1 0x4 MSTORE PUSH1 0x24 PUSH0 REVERT INVALID PUSH1 0x80 PUSH1 0x40 DUP2 DUP2 MSTORE PUSH1 0x4 SWAP2 DUP3 CALLDATASIZE LT ISZERO PUSH2 0x15 JUMPI PUSH0 DUP1 REVERT JUMPDEST PUSH0 SWAP3 DUP4 CALLDATALOAD PUSH1 0xE0 SHR SWAP2 DUP3 PUSH4 0x23E30C8B EQ PUSH2 0x1EE JUMPI POP DUP2 PUSH4 0x5E2C1B3A EQ PUSH2 0xB2 JUMPI POP DUP1 PUSH4 0x8237E538 EQ PUSH2 0x78 JUMPI PUSH4 0xBCEAD63E EQ PUSH2 0x4E JUMPI PUSH0 DUP1 REVERT JUMPDEST CALLVALUE PUSH2 0x74 JUMPI DUP2 PUSH1 0x3 NOT CALLDATASIZE ADD SLT PUSH2 0x74 JUMPI SWAP1 SLOAD SWAP1 MLOAD PUSH1 0x1 PUSH1 0x1 PUSH1 0xA0 SHL SUB SWAP1 SWAP2 AND DUP2 MSTORE PUSH1 0x20 SWAP1 RETURN JUMPDEST POP DUP1 REVERT JUMPDEST POP CALLVALUE PUSH2 0x74 JUMPI DUP2 PUSH1 0x3 NOT CALLDATASIZE ADD SLT PUSH2 0x74 JUMPI PUSH1 0x20 SWAP1 MLOAD PUSH32 0x439148F0BBC682CA079E46D6E2C2F0C1E3B820F1A291B069D8882ABF8CF18DD9 DUP2 MSTORE RETURN JUMPDEST SWAP1 POP CALLVALUE PUSH2 0x1EA JUMPI DUP2 PUSH1 0x3 NOT CALLDATASIZE ADD SLT PUSH2 0x1EA JUMPI PUSH2 0xCC PUSH2 0x4E0 JUMP JUMPDEST DUP4 SLOAD DUP4 MLOAD SWAP2 SWAP4 SWAP2 PUSH1 0x1 PUSH1 0x1 PUSH1 0xA0 SHL SUB SWAP2 DUP3 AND SWAP2 DUP2 DUP5 ADD PUSH8 0xFFFFFFFFFFFFFFFF DUP2 GT DUP4 DUP3 LT OR PUSH2 0x1D7 JUMPI DUP5 SWAP7 SWAP6 SWAP3 SWAP7 SWAP4 SWAP2 SWAP4 MSTORE PUSH1 0xE DUP7 MSTORE DUP7 PUSH1 0x20 SWAP7 DUP8 SWAP5 PUSH14 0x4172626974726172792064617461 PUSH1 0x90 SHL DUP7 DUP4 ADD MSTORE DUP7 MLOAD SWAP8 DUP9 SWAP6 PUSH4 0x2E7FF4EF PUSH1 0xE1 SHL DUP8 MSTORE ADDRESS SWAP1 DUP8 ADD MSTORE AND PUSH1 0x24 DUP6 ADD MSTORE PUSH1 0x24 CALLDATALOAD PUSH1 0x44 DUP6 ADD MSTORE PUSH1 0x80 PUSH1 0x64 DUP6 ADD MSTORE DUP1 MLOAD SWAP1 DUP2 PUSH1 0x84 DUP7 ADD MSTORE DUP3 JUMPDEST DUP3 DUP2 LT PUSH2 0x1BC JUMPI POP POP SWAP1 PUSH1 0xA4 DUP5 DUP4 DUP4 DUP4 DUP4 SWAP7 DUP5 ADD ADD MSTORE PUSH1 0x1F DUP1 NOT SWAP2 ADD AND DUP2 ADD SUB ADD SWAP3 GAS CALL SWAP1 DUP2 ISZERO PUSH2 0x1B3 JUMPI POP PUSH2 0x186 JUMPI DUP3 DUP1 RETURN JUMPDEST DUP2 PUSH2 0x1A5 SWAP3 SWAP1 RETURNDATASIZE LT PUSH2 0x1AC JUMPI JUMPDEST PUSH2 0x19D DUP2 DUP4 PUSH2 0x52A JUMP JUMPDEST DUP2 ADD SWAP1 PUSH2 0x54C JUMP JUMPDEST POP PUSH0 DUP1 DUP3 DUP1 RETURN JUMPDEST POP RETURNDATASIZE PUSH2 0x193 JUMP JUMPDEST MLOAD RETURNDATASIZE DUP6 DUP3 RETURNDATACOPY RETURNDATASIZE SWAP1 REVERT JUMPDEST DUP2 DUP2 ADD DUP8 ADD MLOAD DUP10 DUP3 ADD PUSH1 0xA4 ADD MSTORE DUP10 SWAP7 DUP10 SWAP7 POP DUP12 SWAP5 POP ADD PUSH2 0x152 JUMP JUMPDEST PUSH4 0x4E487B71 PUSH1 0xE0 SHL DUP9 MSTORE PUSH1 0x41 DUP7 MSTORE PUSH1 0x24 DUP9 REVERT JUMPDEST DUP3 DUP1 REVERT JUMPDEST SWAP3 SWAP2 POP CALLVALUE PUSH2 0x4DC JUMPI PUSH1 0xA0 CALLDATASIZE PUSH1 0x3 NOT ADD SLT PUSH2 0x4DC JUMPI PUSH2 0x20A PUSH2 0x4E0 JUMP JUMPDEST PUSH1 0x24 SWAP5 PUSH1 0x1 PUSH1 0x1 PUSH1 0xA0 SHL SUB SWAP3 DUP7 CALLDATALOAD DUP5 DUP2 AND SWAP4 SWAP3 SWAP2 SWAP1 DUP5 SWAP1 SUB PUSH2 0x74 JUMPI PUSH8 0xFFFFFFFFFFFFFFFF SWAP3 PUSH1 0x84 CALLDATALOAD DUP5 DUP2 GT PUSH2 0x4DC JUMPI CALLDATASIZE PUSH1 0x23 DUP3 ADD SLT ISZERO PUSH2 0x4DC JUMPI DUP1 DUP4 ADD CALLDATALOAD DUP6 DUP2 GT PUSH2 0x4D8 JUMPI CALLDATASIZE SWAP2 ADD DUP11 ADD GT PUSH2 0x1EA JUMPI DUP6 DUP4 SLOAD AND SWAP8 DUP9 CALLER SUB PUSH2 0x48D JUMPI POP DUP6 ADDRESS SWAP2 AND SUB PUSH2 0x44B JUMPI PUSH1 0x44 SWAP5 PUSH2 0x280 PUSH1 0x64 CALLDATALOAD DUP8 CALLDATALOAD PUSH2 0x564 JUMP JUMPDEST SWAP1 DUP8 MLOAD SWAP9 PUSH4 0x6EB1769F PUSH1 0xE1 SHL DUP11 MSTORE ADDRESS DUP5 DUP12 ADD MSTORE DUP1 DUP12 DUP12 ADD MSTORE PUSH1 0x20 SWAP10 DUP11 DUP2 DUP11 DUP2 DUP12 GAS STATICCALL SWAP1 DUP2 ISZERO PUSH2 0x441 JUMPI DUP12 DUP14 SWAP4 DUP7 DUP13 SWAP5 DUP15 SWAP5 DUP12 SWAP2 PUSH2 0x400 JUMPI JUMPDEST POP SWAP1 PUSH2 0x2C3 SWAP2 PUSH2 0x564 JUMP JUMPDEST SWAP5 DUP10 DUP1 DUP14 DUP7 MLOAD SWAP8 DUP7 DUP10 ADD SWAP1 PUSH4 0x95EA7B3 PUSH1 0xE0 SHL SWAP11 DUP12 DUP4 MSTORE DUP8 DUP8 DUP13 ADD MSTORE DUP2 DUP12 ADD MSTORE DUP10 MSTORE PUSH2 0x2EE DUP10 PUSH2 0x4FA JUMP JUMPDEST DUP3 DUP10 MLOAD SWAP3 GAS CALL PUSH2 0x2FC PUSH2 0x5F6 JUMP JUMPDEST DUP2 PUSH2 0x3D0 JUMPI JUMPDEST POP DUP1 PUSH2 0x3C6 JUMPI JUMPDEST ISZERO PUSH2 0x38E JUMPI JUMPDEST POP POP POP POP POP POP DUP4 SLOAD AND DUP8 MLOAD SWAP7 PUSH4 0x23B872DD PUSH1 0xE0 SHL DUP11 DUP10 ADD MSTORE ADDRESS DUP12 DUP10 ADD MSTORE DUP8 ADD MSTORE PUSH1 0x64 DUP7 ADD MSTORE PUSH1 0x64 DUP6 MSTORE PUSH1 0xA0 DUP6 ADD SWAP3 DUP6 DUP5 LT SWAP1 DUP5 GT OR PUSH2 0x37C JUMPI POP POP DUP4 MSTORE PUSH2 0x356 SWAP2 SWAP1 PUSH2 0x585 JUMP JUMPDEST MLOAD PUSH32 0x439148F0BBC682CA079E46D6E2C2F0C1E3B820F1A291B069D8882ABF8CF18DD9 DUP2 MSTORE RETURN JUMPDEST PUSH4 0x4E487B71 PUSH1 0xE0 SHL DUP3 MSTORE PUSH1 0x41 SWAP1 MSTORE DUP7 SWAP1 REVERT JUMPDEST PUSH2 0x3BB SWAP6 PUSH2 0x3B5 SWAP5 MLOAD SWAP4 DUP5 ADD MSTORE DUP3 ADD MSTORE DUP8 DUP12 DUP3 ADD MSTORE DUP11 DUP2 MSTORE PUSH2 0x3AF DUP2 PUSH2 0x4FA JUMP JUMPDEST DUP10 PUSH2 0x585 JUMP JUMPDEST DUP8 PUSH2 0x585 JUMP JUMPDEST PUSH0 DUP1 DUP10 DUP12 DUP3 DUP15 PUSH2 0x30F JUMP JUMPDEST POP DUP12 EXTCODESIZE ISZERO ISZERO PUSH2 0x309 JUMP JUMPDEST DUP1 MLOAD DUP1 ISZERO SWAP3 POP DUP6 SWAP1 DUP4 ISZERO PUSH2 0x3E8 JUMPI JUMPDEST POP POP POP PUSH0 PUSH2 0x302 JUMP JUMPDEST PUSH2 0x3F8 SWAP4 POP DUP3 ADD DUP2 ADD SWAP2 ADD PUSH2 0x54C JUMP JUMPDEST PUSH0 DUP5 DUP2 PUSH2 0x3DF JUMP JUMPDEST SWAP6 POP POP POP SWAP4 POP SWAP1 POP DUP2 DUP2 RETURNDATASIZE DUP4 GT PUSH2 0x43A JUMPI JUMPDEST PUSH2 0x41C DUP2 DUP4 PUSH2 0x52A JUMP JUMPDEST DUP2 ADD SUB SLT PUSH2 0x436 JUMPI DUP10 DUP12 DUP14 SWAP4 PUSH2 0x2C3 DUP8 DUP14 SWAP6 MLOAD SWAP1 SWAP2 PUSH2 0x2B8 JUMP JUMPDEST DUP6 DUP1 REVERT JUMPDEST POP RETURNDATASIZE PUSH2 0x412 JUMP JUMPDEST DUP11 MLOAD RETURNDATASIZE DUP9 DUP3 RETURNDATACOPY RETURNDATASIZE SWAP1 REVERT JUMPDEST PUSH1 0x64 SWAP1 PUSH1 0x18 DUP10 PUSH1 0x20 DUP10 MLOAD SWAP4 PUSH3 0x461BCD PUSH1 0xE5 SHL DUP6 MSTORE DUP5 ADD MSTORE DUP3 ADD MSTORE PUSH32 0x556E74727573746564206C6F616E20696E69746961746F720000000000000000 PUSH1 0x44 DUP3 ADD MSTORE REVERT JUMPDEST PUSH3 0x461BCD PUSH1 0xE5 SHL DUP2 MSTORE PUSH1 0x20 DUP4 DUP3 ADD MSTORE PUSH1 0x22 DUP11 DUP3 ADD MSTORE PUSH32 0x4F6E6C79206C656E6465722063616E2063616C6C20746869732066756E637469 PUSH1 0x44 DUP3 ADD MSTORE PUSH2 0x37B7 PUSH1 0xF1 SHL PUSH1 0x64 DUP3 ADD MSTORE PUSH1 0x84 SWAP1 REVERT JUMPDEST DUP5 DUP1 REVERT JUMPDEST DUP4 DUP1 REVERT JUMPDEST PUSH1 0x4 CALLDATALOAD SWAP1 PUSH1 0x1 PUSH1 0x1 PUSH1 0xA0 SHL SUB DUP3 AND DUP3 SUB PUSH2 0x4F6 JUMPI JUMP JUMPDEST PUSH0 DUP1 REVERT JUMPDEST PUSH1 0x80 DUP2 ADD SWAP1 DUP2 LT PUSH8 0xFFFFFFFFFFFFFFFF DUP3 GT OR PUSH2 0x516 JUMPI PUSH1 0x40 MSTORE JUMP JUMPDEST PUSH4 0x4E487B71 PUSH1 0xE0 SHL PUSH0 MSTORE PUSH1 0x41 PUSH1 0x4 MSTORE PUSH1 0x24 PUSH0 REVERT JUMPDEST SWAP1 PUSH1 0x1F DUP1 NOT SWAP2 ADD AND DUP2 ADD SWAP1 DUP2 LT PUSH8 0xFFFFFFFFFFFFFFFF DUP3 GT OR PUSH2 0x516 JUMPI PUSH1 0x40 MSTORE JUMP JUMPDEST SWAP1 DUP2 PUSH1 0x20 SWAP2 SUB SLT PUSH2 0x4F6 JUMPI MLOAD DUP1 ISZERO ISZERO DUP2 SUB PUSH2 0x4F6 JUMPI SWAP1 JUMP JUMPDEST SWAP2 SWAP1 DUP3 ADD DUP1 SWAP3 GT PUSH2 0x571 JUMPI JUMP JUMPDEST PUSH4 0x4E487B71 PUSH1 0xE0 SHL PUSH0 MSTORE PUSH1 0x11 PUSH1 0x4 MSTORE PUSH1 0x24 PUSH0 REVERT JUMPDEST PUSH0 DUP1 PUSH2 0x5AD SWAP3 PUSH1 0x1 DUP1 PUSH1 0xA0 SHL SUB AND SWAP4 PUSH1 0x20 DUP2 MLOAD SWAP2 ADD DUP3 DUP7 GAS CALL PUSH2 0x5A6 PUSH2 0x5F6 JUMP JUMPDEST SWAP1 DUP4 PUSH2 0x635 JUMP JUMPDEST DUP1 MLOAD SWAP1 DUP2 ISZERO ISZERO SWAP2 DUP3 PUSH2 0x5DB JUMPI JUMPDEST POP POP PUSH2 0x5C3 JUMPI POP JUMP JUMPDEST PUSH1 0x24 SWAP1 PUSH1 0x40 MLOAD SWAP1 PUSH4 0x5274AFE7 PUSH1 0xE0 SHL DUP3 MSTORE PUSH1 0x4 DUP3 ADD MSTORE REVERT JUMPDEST PUSH2 0x5EE SWAP3 POP PUSH1 0x20 DUP1 SWAP2 DUP4 ADD ADD SWAP2 ADD PUSH2 0x54C JUMP JUMPDEST ISZERO PUSH0 DUP1 PUSH2 0x5BA JUMP JUMPDEST RETURNDATASIZE ISZERO PUSH2 0x630 JUMPI RETURNDATASIZE SWAP1 PUSH8 0xFFFFFFFFFFFFFFFF DUP3 GT PUSH2 0x516 JUMPI PUSH1 0x40 MLOAD SWAP2 PUSH2 0x625 PUSH1 0x1F DUP3 ADD PUSH1 0x1F NOT AND PUSH1 0x20 ADD DUP5 PUSH2 0x52A JUMP JUMPDEST DUP3 MSTORE RETURNDATASIZE PUSH0 PUSH1 0x20 DUP5 ADD RETURNDATACOPY JUMP JUMPDEST PUSH1 0x60 SWAP1 JUMP JUMPDEST SWAP1 PUSH2 0x65C JUMPI POP DUP1 MLOAD ISZERO PUSH2 0x64A JUMPI DUP1 MLOAD SWAP1 PUSH1 0x20 ADD REVERT JUMPDEST PUSH1 0x40 MLOAD PUSH4 0xA12F521 PUSH1 0xE1 SHL DUP2 MSTORE PUSH1 0x4 SWAP1 REVERT JUMPDEST DUP2 MLOAD ISZERO DUP1 PUSH2 0x68F JUMPI JUMPDEST PUSH2 0x66D JUMPI POP SWAP1 JUMP JUMPDEST PUSH1 0x40 MLOAD PUSH4 0x9996B315 PUSH1 0xE0 SHL DUP2 MSTORE PUSH1 0x1 PUSH1 0x1 PUSH1 0xA0 SHL SUB SWAP1 SWAP2 AND PUSH1 0x4 DUP3 ADD MSTORE PUSH1 0x24 SWAP1 REVERT JUMPDEST POP DUP1 EXTCODESIZE ISZERO PUSH2 0x665 JUMP INVALID LOG2 PUSH5 0x6970667358 0x22 SLT KECCAK256 SWAP6 0xBE 0xCF DUP16 0x1F 0xA6 0xC4 0x29 SHL 0xB3 0xED 0xEF 0xC5 0xB7 INVALID ADD 0xC6 DUP13 JUMPI PUSH24 0x74FE1D1193BEAAE1AA5A432B64736F6C6343000814003300 "
		},
		"gasEstimates": {
			"creation": {
				"codeDepositCost": "348400",
				"executionCost": "infinite",
				"totalCost": "infinite"
			},
			"external": {
				"CALLBACK_SUCCESS()": "217",
				"initiateFlashLoan(address,uint256)": "infinite",
				"lender()": "2361",
				"onFlashLoan(address,address,uint256,uint256,bytes)": "infinite"
			}
		},
		"methodIdentifiers": {
			"CALLBACK_SUCCESS()": "8237e538",
			"initiateFlashLoan(address,uint256)": "5e2c1b3a",
			"lender()": "bcead63e",
			"onFlashLoan(address,address,uint256,uint256,bytes)": "23e30c8b"
		}
	},
	"abi": [
		{
			"inputs": [
				{
					"internalType": "address",
					"name": "_lender",
					"type": "address"
				}
			],
			"stateMutability": "nonpayable",
			"type": "constructor"
		},
		{
			"inputs": [
				{
					"internalType": "address",
					"name": "target",
					"type": "address"
				}
			],
			"name": "AddressEmptyCode",
			"type": "error"
		},
		{
			"inputs": [
				{
					"internalType": "address",
					"name": "account",
					"type": "address"
				}
			],
			"name": "AddressInsufficientBalance",
			"type": "error"
		},
		{
			"inputs": [],
			"name": "FailedInnerCall",
			"type": "error"
		},
		{
			"inputs": [
				{
					"internalType": "address",
					"name": "token",
					"type": "address"
				}
			],
			"name": "SafeERC20FailedOperation",
			"type": "error"
		},
		{
			"inputs": [],
			"name": "CALLBACK_SUCCESS",
			"outputs": [
				{
					"internalType": "bytes32",
					"name": "",
					"type": "bytes32"
				}
			],
			"stateMutability": "view",
			"type": "function"
		},
		{
			"inputs": [
				{
					"internalType": "address",
					"name": "token",
					"type": "address"
				},
				{
					"internalType": "uint256",
					"name": "amount",
					"type": "uint256"
				}
			],
			"name": "initiateFlashLoan",
			"outputs": [],
			"stateMutability": "nonpayable",
			"type": "function"
		},
		{
			"inputs": [],
			"name": "lender",
			"outputs": [
				{
					"internalType": "contract IERC3156FlashLender",
					"name": "",
					"type": "address"
				}
			],
			"stateMutability": "view",
			"type": "function"
		},
		{
			"inputs": [
				{
					"internalType": "address",
					"name": "initiator",
					"type": "address"
				},
				{
					"internalType": "address",
					"name": "token",
					"type": "address"
				},
				{
					"internalType": "uint256",
					"name": "amount",
					"type": "uint256"
				},
				{
					"internalType": "uint256",
					"name": "fee",
					"type": "uint256"
				},
				{
					"internalType": "bytes",
					"name": "data",
					"type": "bytes"
				}
			],
			"name": "onFlashLoan",
			"outputs": [
				{
					"internalType": "bytes32",
					"name": "",
					"type": "bytes32"
				}
			],
			"stateMutability": "nonpayable",
			"type": "function"
		}
	]
}