{
  "_format": "hh-sol-artifact-1",
  "contractName": "AdvancedAPYManager",
  "sourceName": "contracts/lib/AdvancedAPYManager.sol",
  "abi": [
    {
      "inputs": [],
      "stateMutability": "nonpayable",
      "type": "constructor"
    },
    {
      "inputs": [],
      "name": "baseAPY",
      "outputs": [
        {
          "internalType": "uint256",
          "name": "",
          "type": "uint256"
        }
      ],
      "stateMutability": "view",
      "type": "function"
    },
    {
      "inputs": [
        {
          "internalType": "uint256",
          "name": "loanAmount",
          "type": "uint256"
        },
        {
          "internalType": "uint256",
          "name": "durationSeconds",
          "type": "uint256"
        }
      ],
      "name": "calculateAPY",
      "outputs": [
        {
          "internalType": "uint256",
          "name": "",
          "type": "uint256"
        }
      ],
      "stateMutability": "view",
      "type": "function"
    },
    {
      "inputs": [],
      "name": "durationBonusFactor",
      "outputs": [
        {
          "internalType": "uint256",
          "name": "",
          "type": "uint256"
        }
      ],
      "stateMutability": "view",
      "type": "function"
    },
    {
      "inputs": [
        {
          "internalType": "uint256",
          "name": "",
          "type": "uint256"
        }
      ],
      "name": "riskPremiumRates",
      "outputs": [
        {
          "internalType": "uint256",
          "name": "",
          "type": "uint256"
        }
      ],
      "stateMutability": "view",
      "type": "function"
    },
    {
      "inputs": [
        {
          "internalType": "uint256",
          "name": "",
          "type": "uint256"
        }
      ],
      "name": "riskPremiumThresholds",
      "outputs": [
        {
          "internalType": "uint256",
          "name": "",
          "type": "uint256"
        }
      ],
      "stateMutability": "view",
      "type": "function"
    },
    {
      "inputs": [
        {
          "internalType": "uint256",
          "name": "_baseAPY",
          "type": "uint256"
        }
      ],
      "name": "setBaseAPY",
      "outputs": [],
      "stateMutability": "nonpayable",
      "type": "function"
    },
    {
      "inputs": [
        {
          "internalType": "uint256",
          "name": "_factor",
          "type": "uint256"
        }
      ],
      "name": "setDurationBonusFactor",
      "outputs": [],
      "stateMutability": "nonpayable",
      "type": "function"
    },
    {
      "inputs": [
        {
          "internalType": "uint256[]",
          "name": "_thresholds",
          "type": "uint256[]"
        },
        {
          "internalType": "uint256[]",
          "name": "_rates",
          "type": "uint256[]"
        }
      ],
      "name": "setRiskPremiums",
      "outputs": [],
      "stateMutability": "nonpayable",
      "type": "function"
    }
  ],
  "bytecode": "0x6080604052346200002d5762000014620000fc565b6200001e62000033565b610a076200011b8239610a0790f35b62000039565b60405190565b600080fd5b60001b90565b9062000053600019916200003e565b9181191691161790565b90565b90565b90565b6200007f6200007962000085926200005d565b62000063565b62000060565b90565b90565b90620000a56200009f620000ad9262000066565b62000088565b825462000044565b9055565b90565b620000cd620000c7620000d392620000b1565b62000063565b62000060565b90565b90620000f0620000ea620000f892620000b4565b62000088565b825462000044565b9055565b6200010a606460006200008b565b6200011860196003620000d6565b56fe60806040526004361015610013575b6104ad565b61001e60003561009d565b8063057c041214610098578063214405a9146100935780634a7dfc8e1461008e5780635ee6efd014610089578063b873995a14610084578063c134f4a11461007f578063c90b71921461007a5763e2c9313f0361000e57610478565b610418565b6103e3565b61039d565b61033c565b610305565b61021c565b6101c9565b60e01c90565b60405190565b600080fd5b600080fd5b600080fd5b90565b6100c4816100b8565b036100cb57565b600080fd5b905035906100dd826100bb565b565b906020828203126100f9576100f6916000016100d0565b90565b6100ae565b634e487b7160e01b600052603260045260246000fd5b5490565b600052602060002090565b61012c81610114565b8210156101475761013e600191610118565b91020190600090565b6100fe565b1c90565b90565b610163906008610168930261014c565b610150565b90565b906101769154610153565b90565b600161018481610114565b8210156101a15761019e9161019891610123565b9061016b565b90565b600080fd5b6101af906100b8565b9052565b91906101c7906000602085019401906101a6565b565b346101f9576101f56101e46101df3660046100df565b610179565b6101ec6100a3565b918291826101b3565b0390f35b6100a9565b600091031261020957565b6100ae565b61021960008061016b565b90565b3461024c5761022c3660046101fe565b61024861023761020e565b61023f6100a3565b918291826101b3565b0390f35b6100a9565b600080fd5b600080fd5b600080fd5b909182601f8301121561029a5781359167ffffffffffffffff831161029557602001926020830284011161029057565b61025b565b610256565b610251565b90916040828403126102fa57600082013567ffffffffffffffff81116102f557836102cb918401610260565b929093602082013567ffffffffffffffff81116102f0576102ec9201610260565b9091565b6100b3565b6100b3565b6100ae565b60000190565b346103375761032161031836600461029f565b92919091610756565b6103296100a3565b80610333816102ff565b0390f35b6100a9565b3461036a5761035461034f3660046100df565b6107dd565b61035c6100a3565b80610366816102ff565b0390f35b6100a9565b9190604083820312610398578061038c61039592600086016100d0565b936020016100d0565b90565b6100ae565b346103ce576103ca6103b96103b336600461036f565b90610836565b6103c16100a3565b918291826101b3565b0390f35b6100a9565b6103e0600360009061016b565b90565b34610413576103f33660046101fe565b61040f6103fe6103d3565b6104066100a3565b918291826101b3565b0390f35b6100a9565b346104465761043061042b3660046100df565b610870565b6104386100a3565b80610442816102ff565b0390f35b6100a9565b600261045681610114565b821015610473576104709161046a91610123565b9061016b565b90565b600080fd5b346104a8576104a461049361048e3660046100df565b61044b565b61049b6100a3565b918291826101b3565b0390f35b6100a9565b600080fd5b5090565b60209181520190565b60007f4d69736d61746368656420696e707574206c656e677468730000000000000000910152565b6104f460186020926104b6565b6104fd816104bf565b0190565b61051790602081019060008183039101526104e7565b90565b1561052157565b6105296100a3565b62461bcd60e51b81528061053f60048201610501565b0390fd5b634e487b7160e01b600052604160045260246000fd5b634e487b7160e01b600052601160045260246000fd5b61057e610584919392936100b8565b926100b8565b916105908382026100b8565b92818404149015171561059f57565b610559565b600190818003010490565b1b90565b919060086105cf9102916105c9600019846105af565b926105af565b9181191691161790565b90565b6105f06105eb6105f5926100b8565b6105d9565b6100b8565b90565b90565b919061061161060c610619936105dc565b6105f8565b9083546105b3565b9055565b600090565b6106349161062e61061d565b916105fb565b565b5b818110610642575050565b806106506000600193610622565b01610637565b9091828110610665575b505050565b61068361067d61067761068e956105a4565b926105a4565b92610118565b918201910190610636565b388080610660565b906801000000000000000081116106bf57816106b46106bd93610114565b90828155610656565b565b610543565b356106ce816100bb565b90565b90565b90916106e090836104b2565b9167ffffffffffffffff83116107445761070e6107086001926107038686610696565b6106d1565b92610118565b92049160005b8381106107215750505050565b6001906020610737610732866106c4565b6105f8565b9401938184015501610714565b610543565b9061075492916106d4565b565b61079e9392916107979161079061076e8284906104b2565b61078a61078461077f888a906104b2565b6100b8565b916100b8565b1461051a565b6001610749565b6002610749565b565b60001b90565b906107b3600019916107a0565b9181191691161790565b906107d26107cd6107d9926105dc565b6105f8565b82546107a6565b9055565b6107e89060006107bd565b565b60001c90565b6107fc610801916107ea565b610150565b90565b61080e90546107f0565b90565b610820610826919392936100b8565b926100b8565b820180921161083157565b610559565b9061086861085861085261086d9461084c61061d565b506108ab565b9261099b565b916108636000610804565b610811565b610811565b90565b61087b9060036107bd565b565b90565b61089461088f6108999261087d565b6105d9565b6100b8565b90565b60016108a891016100b8565b90565b6108b361061d565b506108be6000610880565b5b806108db6108d56108d06001610114565b6100b8565b916100b8565b101561093557816109086109026108fd6108f760018690610123565b9061016b565b6100b8565b916100b8565b111561091c576109179061089c565b6108bf565b610932915061092c906002610123565b9061016b565b90565b50506109416000610880565b90565b90565b61095b61095661096092610944565b6105d9565b6100b8565b90565b634e487b7160e01b600052601260045260246000fd5b61098561098b916100b8565b916100b8565b908115610996570490565b610963565b6109be6109ce916109aa61061d565b506109b86301e13380610947565b90610979565b6109c86003610804565b9061056f565b9056fea264697066735822122084580afac9dc0dab926253d75ca472164f36d0c0f35a8d7bff746f734787247c64736f6c63430008180033",
  "linkReferences": {},
  "deployedLinkReferences": {}
}