{
  "_format": "hh-sol-artifact-1",
  "contractName": "MockTokenCreator",
  "sourceName": "contracts/tokens/MockTokenCreator.sol",
  "abi": [
    {
      "inputs": [
        {
          "internalType": "string",
          "name": "name",
          "type": "string"
        },
        {
          "internalType": "string",
          "name": "symbol",
          "type": "string"
        }
      ],
      "stateMutability": "nonpayable",
      "type": "constructor"
    },
    {
      "inputs": [],
      "name": "ECDSAInvalidSignature",
      "type": "error"
    },
    {
      "inputs": [
        {
          "internalType": "uint256",
          "name": "length",
          "type": "uint256"
        }
      ],
      "name": "ECDSAInvalidSignatureLength",
      "type": "error"
    },
    {
      "inputs": [
        {
          "internalType": "bytes32",
          "name": "s",
          "type": "bytes32"
        }
      ],
      "name": "ECDSAInvalidSignatureS",
      "type": "error"
    },
    {
      "inputs": [
        {
          "internalType": "address",
          "name": "spender",
          "type": "address"
        },
        {
          "internalType": "uint256",
          "name": "allowance",
          "type": "uint256"
        },
        {
          "internalType": "uint256",
          "name": "needed",
          "type": "uint256"
        }
      ],
      "name": "ERC20InsufficientAllowance",
      "type": "error"
    },
    {
      "inputs": [
        {
          "internalType": "address",
          "name": "sender",
          "type": "address"
        },
        {
          "internalType": "uint256",
          "name": "balance",
          "type": "uint256"
        },
        {
          "internalType": "uint256",
          "name": "needed",
          "type": "uint256"
        }
      ],
      "name": "ERC20InsufficientBalance",
      "type": "error"
    },
    {
      "inputs": [
        {
          "internalType": "address",
          "name": "approver",
          "type": "address"
        }
      ],
      "name": "ERC20InvalidApprover",
      "type": "error"
    },
    {
      "inputs": [
        {
          "internalType": "address",
          "name": "receiver",
          "type": "address"
        }
      ],
      "name": "ERC20InvalidReceiver",
      "type": "error"
    },
    {
      "inputs": [
        {
          "internalType": "address",
          "name": "sender",
          "type": "address"
        }
      ],
      "name": "ERC20InvalidSender",
      "type": "error"
    },
    {
      "inputs": [
        {
          "internalType": "address",
          "name": "spender",
          "type": "address"
        }
      ],
      "name": "ERC20InvalidSpender",
      "type": "error"
    },
    {
      "inputs": [
        {
          "internalType": "uint256",
          "name": "deadline",
          "type": "uint256"
        }
      ],
      "name": "ERC2612ExpiredSignature",
      "type": "error"
    },
    {
      "inputs": [
        {
          "internalType": "address",
          "name": "signer",
          "type": "address"
        },
        {
          "internalType": "address",
          "name": "owner",
          "type": "address"
        }
      ],
      "name": "ERC2612InvalidSigner",
      "type": "error"
    },
    {
      "inputs": [
        {
          "internalType": "address",
          "name": "account",
          "type": "address"
        },
        {
          "internalType": "uint256",
          "name": "currentNonce",
          "type": "uint256"
        }
      ],
      "name": "InvalidAccountNonce",
      "type": "error"
    },
    {
      "inputs": [],
      "name": "InvalidShortString",
      "type": "error"
    },
    {
      "inputs": [
        {
          "internalType": "string",
          "name": "str",
          "type": "string"
        }
      ],
      "name": "StringTooLong",
      "type": "error"
    },
    {
      "anonymous": false,
      "inputs": [
        {
          "indexed": true,
          "internalType": "address",
          "name": "owner",
          "type": "address"
        },
        {
          "indexed": true,
          "internalType": "address",
          "name": "spender",
          "type": "address"
        },
        {
          "indexed": false,
          "internalType": "uint256",
          "name": "value",
          "type": "uint256"
        }
      ],
      "name": "Approval",
      "type": "event"
    },
    {
      "anonymous": false,
      "inputs": [],
      "name": "EIP712DomainChanged",
      "type": "event"
    },
    {
      "anonymous": false,
      "inputs": [
        {
          "indexed": true,
          "internalType": "address",
          "name": "from",
          "type": "address"
        },
        {
          "indexed": true,
          "internalType": "address",
          "name": "to",
          "type": "address"
        },
        {
          "indexed": false,
          "internalType": "uint256",
          "name": "value",
          "type": "uint256"
        }
      ],
      "name": "Transfer",
      "type": "event"
    },
    {
      "inputs": [],
      "name": "DOMAIN_SEPARATOR",
      "outputs": [
        {
          "internalType": "bytes32",
          "name": "",
          "type": "bytes32"
        }
      ],
      "stateMutability": "view",
      "type": "function"
    },
    {
      "inputs": [
        {
          "internalType": "address",
          "name": "owner",
          "type": "address"
        },
        {
          "internalType": "address",
          "name": "spender",
          "type": "address"
        }
      ],
      "name": "allowance",
      "outputs": [
        {
          "internalType": "uint256",
          "name": "",
          "type": "uint256"
        }
      ],
      "stateMutability": "view",
      "type": "function"
    },
    {
      "inputs": [
        {
          "internalType": "address",
          "name": "spender",
          "type": "address"
        },
        {
          "internalType": "uint256",
          "name": "value",
          "type": "uint256"
        }
      ],
      "name": "approve",
      "outputs": [
        {
          "internalType": "bool",
          "name": "",
          "type": "bool"
        }
      ],
      "stateMutability": "nonpayable",
      "type": "function"
    },
    {
      "inputs": [
        {
          "internalType": "address",
          "name": "account",
          "type": "address"
        }
      ],
      "name": "balanceOf",
      "outputs": [
        {
          "internalType": "uint256",
          "name": "",
          "type": "uint256"
        }
      ],
      "stateMutability": "view",
      "type": "function"
    },
    {
      "inputs": [
        {
          "internalType": "uint256",
          "name": "amount",
          "type": "uint256"
        }
      ],
      "name": "burn",
      "outputs": [],
      "stateMutability": "nonpayable",
      "type": "function"
    },
    {
      "inputs": [],
      "name": "decimals",
      "outputs": [
        {
          "internalType": "uint8",
          "name": "",
          "type": "uint8"
        }
      ],
      "stateMutability": "view",
      "type": "function"
    },
    {
      "inputs": [],
      "name": "eip712Domain",
      "outputs": [
        {
          "internalType": "bytes1",
          "name": "fields",
          "type": "bytes1"
        },
        {
          "internalType": "string",
          "name": "name",
          "type": "string"
        },
        {
          "internalType": "string",
          "name": "version",
          "type": "string"
        },
        {
          "internalType": "uint256",
          "name": "chainId",
          "type": "uint256"
        },
        {
          "internalType": "address",
          "name": "verifyingContract",
          "type": "address"
        },
        {
          "internalType": "bytes32",
          "name": "salt",
          "type": "bytes32"
        },
        {
          "internalType": "uint256[]",
          "name": "extensions",
          "type": "uint256[]"
        }
      ],
      "stateMutability": "view",
      "type": "function"
    },
    {
      "inputs": [
        {
          "internalType": "address",
          "name": "to",
          "type": "address"
        },
        {
          "internalType": "uint256",
          "name": "amount",
          "type": "uint256"
        }
      ],
      "name": "mint",
      "outputs": [],
      "stateMutability": "nonpayable",
      "type": "function"
    },
    {
      "inputs": [],
      "name": "name",
      "outputs": [
        {
          "internalType": "string",
          "name": "",
          "type": "string"
        }
      ],
      "stateMutability": "view",
      "type": "function"
    },
    {
      "inputs": [
        {
          "internalType": "address",
          "name": "owner",
          "type": "address"
        }
      ],
      "name": "nonces",
      "outputs": [
        {
          "internalType": "uint256",
          "name": "",
          "type": "uint256"
        }
      ],
      "stateMutability": "view",
      "type": "function"
    },
    {
      "inputs": [
        {
          "internalType": "address",
          "name": "owner",
          "type": "address"
        },
        {
          "internalType": "address",
          "name": "spender",
          "type": "address"
        },
        {
          "internalType": "uint256",
          "name": "value",
          "type": "uint256"
        },
        {
          "internalType": "uint256",
          "name": "deadline",
          "type": "uint256"
        },
        {
          "internalType": "uint8",
          "name": "v",
          "type": "uint8"
        },
        {
          "internalType": "bytes32",
          "name": "r",
          "type": "bytes32"
        },
        {
          "internalType": "bytes32",
          "name": "s",
          "type": "bytes32"
        }
      ],
      "name": "permit",
      "outputs": [],
      "stateMutability": "nonpayable",
      "type": "function"
    },
    {
      "inputs": [],
      "name": "symbol",
      "outputs": [
        {
          "internalType": "string",
          "name": "",
          "type": "string"
        }
      ],
      "stateMutability": "view",
      "type": "function"
    },
    {
      "inputs": [],
      "name": "totalSupply",
      "outputs": [
        {
          "internalType": "uint256",
          "name": "",
          "type": "uint256"
        }
      ],
      "stateMutability": "view",
      "type": "function"
    },
    {
      "inputs": [
        {
          "internalType": "address",
          "name": "to",
          "type": "address"
        },
        {
          "internalType": "uint256",
          "name": "value",
          "type": "uint256"
        }
      ],
      "name": "transfer",
      "outputs": [
        {
          "internalType": "bool",
          "name": "",
          "type": "bool"
        }
      ],
      "stateMutability": "nonpayable",
      "type": "function"
    },
    {
      "inputs": [
        {
          "internalType": "address",
          "name": "from",
          "type": "address"
        },
        {
          "internalType": "address",
          "name": "to",
          "type": "address"
        },
        {
          "internalType": "uint256",
          "name": "value",
          "type": "uint256"
        }
      ],
      "name": "transferFrom",
      "outputs": [
        {
          "internalType": "bool",
          "name": "",
          "type": "bool"
        }
      ],
      "stateMutability": "nonpayable",
      "type": "function"
    }
  ],
  "bytecode": "0x610160604052346200007b57620000206200001962000219565b9062000240565b6200002a62000081565b611ddb62000ac7823960805181611160015260a05181611197015260c05181611126015260e05181611785015261010051816117aa015261012051816112c8015261014051816113080152611ddb90f35b62000087565b60405190565b600080fd5b601f801991011690565b634e487b7160e01b600052604160045260246000fd5b90620000b8906200008c565b810190811060018060401b03821117620000d157604052565b62000096565b90620000ee620000e662000081565b9283620000ac565b565b600080fd5b600080fd5b600080fd5b600080fd5b60018060401b03811162000123576200011f6020916200008c565b0190565b62000096565b60005b8381106200013e575050906000910152565b8060209183015181850152016200012c565b9092919262000169620001638262000104565b620000d7565b938185526020850190828401116200018857620001869262000129565b565b620000ff565b9080601f83011215620001af57816020620001ac9351910162000150565b90565b620000fa565b9190916040818403126200021357600081015160018060401b0381116200020d5783620001e49183016200018e565b92602082015160018060401b03811162000207576200020492016200018e565b90565b620000f5565b620000f5565b620000f0565b6200023c620028a2803803806200023081620000d7565b928339810190620001b5565b9091565b6200024e91819091620002bd565b565b9062000266620002608362000104565b620000d7565b918252565b60007f3100000000000000000000000000000000000000000000000000000000000000910152565b6200029f600162000250565b90620002ae602083016200026b565b565b620002ba62000293565b90565b90620002d59291620002ce620002b0565b90620002d7565b565b90620002e593929162000343565b565b90565b90565b60200190565b5190565b60018060a01b031690565b90565b6200031e620003186200032492620002f7565b62000302565b620002f7565b90565b620003329062000305565b90565b620003409062000327565b90565b62000358620003b694620003969394620003f2565b6200037081620003696005620002e7565b9062000742565b610120526200038c83620003856006620002e7565b9062000742565b61014052620002ea565b620003ac620003a582620002f3565b91620002ed565b2060e052620002ea565b620003cc620003c582620002f3565b91620002ed565b20610100524660a052620003df6200088d565b608052620003ed3062000335565b60c052565b90620003fe9162000400565b565b906200040c91620006b1565b565b5190565b634e487b7160e01b600052602260045260246000fd5b90600160028304921680156200044b575b60208310146200044557565b62000412565b91607f169162000439565b600052602060002090565b601f602091010490565b1b90565b919060086200048f91029162000488600019846200046b565b926200046b565b9181191691161790565b90565b620004b5620004af620004bb9262000499565b62000302565b62000499565b90565b90565b9190620004dc620004d6620004e5936200049c565b620004be565b9083546200046f565b9055565b600090565b6200050491620004fd620004e9565b91620004c1565b565b5b81811062000513575050565b80620005236000600193620004ee565b0162000507565b9190601f81116200053b575b505050565b6200054a620005759362000456565b906020620005588462000461565b830193106200057e575b6200056d9062000461565b019062000506565b38808062000536565b91506200056d8192905062000562565b1c90565b90620005a590600019906008026200058e565b191690565b81620005b69162000592565b906002021790565b90620005ca816200040e565b9060018060401b0382116200069d57620005f182620005ea855462000428565b856200052a565b602090601f83116001146200062b5791809162000619936000926200061e575b5050620005aa565b90555b565b9091500151388062000611565b601f198316916200063c8562000456565b9260005b818110620006845750916002939185600196941062000667575b505050020190556200061c565b62000679910151601f84169062000592565b90553880806200065a565b9193602060018192878701518155019501920162000640565b62000096565b90620006af91620005be565b565b90620006c3620006cb926003620006a3565b6004620006a3565b565b600090565b90565b620006ee620006e8620006f492620006d2565b62000302565b62000499565b90565b90565b90565b60001b90565b6200071c620007166200072292620006f7565b620006fd565b620006fa565b90565b6200073160ff62000703565b90565b6200073f90620006fa565b90565b906200074d620006cd565b50620007636200075d83620002ea565b620002f3565b6200077a620007736020620006d5565b9162000499565b106000146200079257506200078f9062000a23565b90565b6000620007a4620007ab939262000912565b01620006a3565b620007bf620007b962000725565b62000734565b90565b600090565b7f8b73c3c69bb8fe3d512ecc4cf759cc79239f7b179b0ffacaa9a75d522b39400f90565b620007f79051620006fa565b90565b6200080590620006fa565b9052565b620008149062000499565b9052565b6200082390620002f7565b90565b620008319062000818565b9052565b909594926200088b946200087862000883926200086d6080966200086260a088019c6000890190620007fa565b6020870190620007fa565b6040850190620007fa565b606083019062000809565b019062000826565b565b62000897620007c2565b50620008a2620007c7565b620008f8620008b260e0620007eb565b91620008e8620008c4610100620007eb565b46620008d03062000335565b91620008db62000081565b9687956020870162000835565b60208201810382520382620000ac565b6200090e6200090782620002f3565b91620002ed565b2090565b90565b90565b620009316200092b620009379262000915565b62000302565b62000499565b90565b60209181520190565b620009686200097260209362000978936200095e816200040e565b938480936200093a565b9586910162000129565b6200008c565b0190565b62000994916020820191600081840391015262000943565b90565b620009b7620009b1620009aa83620002f3565b92620002ed565b620007eb565b9060208110620009c6575b5090565b620009db90600019906020036008026200046b565b1638620009c2565b60001c90565b620009f8620009fe91620009e3565b6200049c565b90565b62000a1a62000a1462000a209262000499565b620006fd565b620006fa565b90565b62000a2d620006cd565b5062000a3981620002ea565b9062000a4582620002f3565b62000a5c62000a55601f62000918565b9162000499565b1162000a9c575062000a938162000a8c62000a8562000a7f62000a999562000997565b620009e9565b91620002f3565b1762000a01565b62000734565b90565b62000ac29062000aab62000081565b91829163305a27a960e01b8352600483016200097c565b0390fdfe60806040526004361015610013575b610892565b61001e60003561010d565b806306fdde0314610108578063095ea7b31461010357806318160ddd146100fe57806323b872dd146100f9578063313ce567146100f45780633644e515146100ef57806340c10f19146100ea57806342966c68146100e557806370a08231146100e05780637ecebe00146100db57806384b0196e146100d657806395d89b41146100d1578063a9059cbb146100cc578063d505accf146100c75763dd62ed3e0361000e5761085c565b6107f4565b610705565b6106d0565b610694565b61053e565b610509565b6104b7565b610464565b610429565b6103ce565b61036f565b6102ff565b6102a6565b6101b9565b60e01c90565b60405190565b600080fd5b600080fd5b600091031261012e57565b61011e565b5190565b60209181520190565b60005b838110610154575050906000910152565b806020918301518185015201610143565b601f801991011690565b61018e61019760209361019c9361018581610133565b93848093610137565b95869101610140565b610165565b0190565b6101b6916020820191600081840391015261016f565b90565b346101e9576101c9366004610123565b6101e56101d46109f9565b6101dc610113565b918291826101a0565b0390f35b610119565b60018060a01b031690565b610202906101ee565b90565b61020e816101f9565b0361021557565b600080fd5b9050359061022782610205565b565b90565b61023581610229565b0361023c57565b600080fd5b9050359061024e8261022c565b565b9190604083820312610279578061026d610276926000860161021a565b93602001610241565b90565b61011e565b151590565b61028c9061027e565b9052565b91906102a490600060208501940190610283565b565b346102d7576102d36102c26102bc366004610250565b90610a14565b6102ca610113565b91829182610290565b0390f35b610119565b6102e590610229565b9052565b91906102fd906000602085019401906102dc565b565b3461032f5761030f366004610123565b61032b61031a610a65565b610322610113565b918291826102e9565b0390f35b610119565b909160608284031261036a57610367610350846000850161021a565b9361035e816020860161021a565b93604001610241565b90565b61011e565b346103a05761039c61038b610385366004610334565b91610a7b565b610393610113565b91829182610290565b0390f35b610119565b60ff1690565b6103b4906103a5565b9052565b91906103cc906000602085019401906103ab565b565b346103fe576103de366004610123565b6103fa6103e9610ad1565b6103f1610113565b918291826103b8565b0390f35b610119565b90565b61040f90610403565b9052565b919061042790600060208501940190610406565b565b3461045957610439366004610123565b610455610444610aec565b61044c610113565b91829182610413565b0390f35b610119565b60000190565b346104935761047d610477366004610250565b90610b00565b610485610113565b8061048f8161045e565b0390f35b610119565b906020828203126104b2576104af91600001610241565b90565b61011e565b346104e5576104cf6104ca366004610498565b610b0c565b6104d7610113565b806104e18161045e565b0390f35b610119565b90602082820312610504576105019160000161021a565b90565b61011e565b346105395761053561052461051f3660046104ea565b610b6b565b61052c610113565b918291826102e9565b0390f35b610119565b3461056e5761056a6105596105543660046104ea565b610b8a565b610561610113565b918291826102e9565b0390f35b610119565b60ff60f81b1690565b61058590610573565b9052565b610592906101f9565b9052565b5190565b60209181520190565b60200190565b6105b290610229565b9052565b906105c3816020936105a9565b0190565b60200190565b906105ea6105e46105dd84610596565b809361059a565b926105a3565b9060005b8181106105fb5750505090565b90919261061461060e60019286516105b6565b946105c7565b91019190916105ee565b939591946106706106656106849561065761067a956106919c9a61064a60e08c019260008d019061057c565b8a820360208c015261016f565b9088820360408a015261016f565b9760608701906102dc565b6080850190610589565b60a0830190610406565b60c08184039101526105cd565b90565b346106cb576106a4366004610123565b6106c76106af610c78565b936106be979597939193610113565b9788978861061e565b0390f35b610119565b34610700576106e0366004610123565b6106fc6106eb610d04565b6106f3610113565b918291826101a0565b0390f35b610119565b346107365761073261072161071b366004610250565b90610d1a565b610729610113565b91829182610290565b0390f35b610119565b610744816103a5565b0361074b57565b600080fd5b9050359061075d8261073b565b565b61076881610403565b0361076f57565b600080fd5b905035906107818261075f565b565b60e0818303126107ef5761079a826000830161021a565b926107a8836020840161021a565b926107b68160408501610241565b926107c48260608301610241565b926107ec6107d58460808501610750565b936107e38160a08601610774565b9360c001610774565b90565b61011e565b3461082957610813610807366004610783565b95949094939193610dea565b61081b610113565b806108258161045e565b0390f35b610119565b9190604083820312610857578061084b610854926000860161021a565b9360200161021a565b90565b61011e565b3461088d5761088961087861087236600461082e565b90610f04565b610880610113565b918291826102e9565b0390f35b610119565b600080fd5b606090565b634e487b7160e01b600052602260045260246000fd5b90600160028304921680156108d2575b60208310146108cd57565b61089c565b91607f16916108c2565b60209181520190565b600052602060002090565b906000929180549061090b610904836108b2565b80946108dc565b916001811690816000146109645750600114610927575b505050565b61093491929394506108e5565b916000925b81841061094c5750500190388080610922565b60018160209295939554848601520191019290610939565b92949550505060ff1916825215156020020190388080610922565b90610989916108f0565b90565b634e487b7160e01b600052604160045260246000fd5b906109ac90610165565b810190811067ffffffffffffffff8211176109c657604052565b61098c565b906109eb6109e4926109db610113565b9384809261097f565b03836109a2565b565b6109f6906109cb565b90565b610a01610897565b50610a0c60036109ed565b90565b600090565b610a3191610a20610a0f565b50610a29610f2c565b919091610f39565b600190565b600090565b60001c90565b90565b610a50610a5591610a3b565b610a41565b90565b610a629054610a44565b90565b610a6d610a36565b50610a786002610a58565b90565b91610aa592610a88610a0f565b50610a9d610a94610f2c565b82908491610f8a565b91909161105d565b600190565b600090565b90565b90565b610ac9610ac4610ace92610aaf565b610ab2565b6103a5565b90565b610ad9610aaa565b50610ae46012610ab5565b90565b600090565b610af4610ae7565b50610afd61110c565b90565b90610b0a916111c7565b565b610b1d90610b18610f2c565b61122f565b565b610b33610b2e610b38926101ee565b610ab2565b6101ee565b90565b610b4490610b1f565b90565b610b5090610b3b565b90565b90610b5d90610b47565b600052602052604060002090565b610b82610b8791610b7a610a36565b506000610b53565b610a58565b90565b610b9c90610b96610a36565b50611298565b90565b600090565b600090565b606090565b610bb790610b3b565b90565b90565b60001b90565b610bd7610bd2610bdc92610bba565b610bbd565b610403565b90565b610bf3610bee610bf892610bba565b610ab2565b610229565b90565b90610c0e610c07610113565b92836109a2565b565b67ffffffffffffffff8111610c285760208091020190565b61098c565b90610c3f610c3a83610c10565b610bfb565b918252565b369037565b90610c6e610c5683610c2d565b92602080610c648693610c10565b9201910390610c44565b565b600f60f81b90565b610c80610b9f565b50610c89610897565b50610c92610897565b50610c9b610a36565b50610ca4610ba4565b50610cad610ae7565b50610cb6610ba9565b50610cbf6112ba565b90610cc86112fa565b904690610cd430610bae565b90610cdf6000610bc3565b90610cf2610ced6000610bdf565b610c49565b90610cfb610c70565b96959493929190565b610d0c610897565b50610d1760046109ed565b90565b610d3791610d26610a0f565b50610d2f610f2c565b91909161105d565b600190565b7f6e71edae12b1b97f4d1f60370fef10105fa2faae0126114a169c64845d6126c990565b9194610da9610db392989795610d9f60a096610d95610dba9a610d8b60c08a019e60008b0190610406565b6020890190610589565b6040870190610589565b60608501906102dc565b60808301906102dc565b01906102dc565b565b60200190565b5190565b916020610de8929493610de160408201966000830190610589565b0190610589565b565b969591939294909442610e05610dff83610229565b91610229565b11610ec65790610e6e610e77949392610e56610e1f610d3c565b610e478c80948c91610e318d9161139f565b9192610e3b610113565b97889660208801610d60565b602082018103825203826109a2565b610e68610e6282610dc2565b91610dbc565b206113d2565b929091926113ef565b80610e8a610e84876101f9565b916101f9565b03610e9f5750610e9d9293919091610f39565b565b8490610ec2610eac610113565b9283926325c0072360e11b845260048401610dc6565b0390fd5b610ee890610ed2610113565b91829163313c898160e11b8352600483016102e9565b0390fd5b90610ef690610b47565b600052602052604060002090565b610f2991610f1f610f2492610f17610a36565b506001610eec565b610b53565b610a58565b90565b610f34610ba4565b503390565b91610f479291600192611416565b565b604090610f73610f7a9496959396610f6960608401986000850190610589565b60208301906102dc565b01906102dc565b565b90610f879103610229565b90565b929192610f98818390610f04565b9081610fae610fa8600019610229565b91610229565b03610fbb575b5050509050565b81610fce610fc887610229565b91610229565b10610ff557610fec9394610fe3919392610f7c565b90600092611416565b80388080610fb4565b5061101b84929192611005610113565b938493637dc7a0d960e11b855260048501610f49565b0390fd5b61103361102e61103892610bba565b610ab2565b6101ee565b90565b6110449061101f565b90565b919061105b90600060208501940190610589565b565b918261107a61107461106f600061103b565b6101f9565b916101f9565b146110dd578161109b611095611090600061103b565b6101f9565b916101f9565b146110ae576110ac92919091611580565b565b6110d96110bb600061103b565b6110c3610113565b91829163ec442f0560e01b835260048301611047565b0390fd5b6111086110ea600061103b565b6110f2610113565b918291634b637e8f60e11b835260048301611047565b0390fd5b611114610ae7565b5061111e30610bae565b61115061114a7f00000000000000000000000000000000000000000000000000000000000000006101f9565b916101f9565b148061118d575b600014611182577f000000000000000000000000000000000000000000000000000000000000000090565b61118a61176f565b90565b50466111c16111bb7f0000000000000000000000000000000000000000000000000000000000000000610229565b91610229565b14611157565b806111e36111dd6111d8600061103b565b6101f9565b916101f9565b14611200576111fe916111f6600061103b565b919091611580565b565b61122b61120d600061103b565b611215610113565b91829163ec442f0560e01b835260048301611047565b0390fd5b908161124c611246611241600061103b565b6101f9565b916101f9565b14611269576112679190611260600061103b565b9091611580565b565b611294611276600061103b565b61127e610113565b918291634b637e8f60e11b835260048301611047565b0390fd5b6112af6112b4916112a7610a36565b506007610b53565b610a58565b90565b90565b6112c2610897565b506112f77f00000000000000000000000000000000000000000000000000000000000000006112f160056112b7565b9061191a565b90565b611302610897565b506113377f000000000000000000000000000000000000000000000000000000000000000061133160066112b7565b9061191a565b90565b60016113469101610229565b90565b9061135660001991610bbd565b9181191691161790565b61137461136f61137992610229565b610ab2565b610229565b90565b90565b9061139461138f61139b92611360565b61137c565b8254611349565b9055565b6113b3906113ab610a36565b506007610b53565b6113cf6113bf82610a58565b916113c98361133a565b9061137f565b90565b6113ec906113de610ae7565b506113e761110c565b611969565b90565b9261140a9261141394611400610ba4565b5092909192611a32565b90929192611b67565b90565b90928161143461142e611429600061103b565b6101f9565b916101f9565b14611508578361145561144f61144a600061103b565b6101f9565b916101f9565b146114d9576114798361147461146d60018690610eec565b8790610b53565b61137f565b611483575b505050565b9190916114ce6114bc6114b67f8c5be1e5ebec7d5bd14f71427d1e84f3dd0314c0f7b2291e5b200ac8c7c3b92593610b47565b93610b47565b936114c5610113565b918291826102e9565b0390a338808061147e565b6115046114e6600061103b565b6114ee610113565b918291634a1406b160e11b835260048301611047565b0390fd5b611533611515600061103b565b61151d610113565b91829163e602df0560e01b835260048301611047565b0390fd5b634e487b7160e01b600052601160045260246000fd5b61155c61156291939293610229565b92610229565b820180921161156d57565b611537565b9061157d9101610229565b90565b9190918061159f611599611594600061103b565b6101f9565b916101f9565b14600014611684576115c46115bd836115b86002610a58565b61154d565b600261137f565b5b826115e16115db6115d6600061103b565b6101f9565b916101f9565b14600014611657576116066115ff836115fa6002610a58565b610f7c565b600261137f565b5b91909161165261164061163a7fddf252ad1be2c89b69c2b068fc378daa952ba7f163c4a11628f55a4df523b3ef93610b47565b93610b47565b93611649610113565b918291826102e9565b0390a3565b61167f8261167961166a60008790610b53565b9161167483610a58565b611572565b9061137f565b611607565b61169861169360008390610b53565b610a58565b806116ab6116a585610229565b91610229565b106116d4576116be6116cf918490610f7c565b6116ca60008490610b53565b61137f565b6115c5565b906116f99091926116e3610113565b93849363391434e360e21b855260048501610f49565b0390fd5b7f8b73c3c69bb8fe3d512ecc4cf759cc79239f7b179b0ffacaa9a75d522b39400f90565b9095949261176d9461175c6117669261175260809661174860a088019c6000890190610406565b6020870190610406565b6040850190610406565b60608301906102dc565b0190610589565b565b611777610ae7565b506117806116fd565b6117f77f0000000000000000000000000000000000000000000000000000000000000000916117e87f0000000000000000000000000000000000000000000000000000000000000000466117d330610bae565b916117dc610113565b96879560208701611721565b602082018103825203826109a2565b61180961180382610dc2565b91610dbc565b2090565b61181690610403565b90565b90565b61183061182b61183592611819565b610bbd565b610403565b90565b61184260ff61181c565b90565b600052602060002090565b906000929180549061186b611864836108b2565b80946108dc565b916001811690816000146118c45750600114611887575b505050565b6118949192939450611845565b916000925b8184106118ac5750500190388080611882565b60018160209295939554848601520191019290611899565b92949550505060ff1916825215156020020190388080611882565b906118e991611850565b90565b9061190c611905926118fc610113565b938480926118df565b03836109a2565b565b611917906118ec565b90565b90611923610897565b5061192d8261180d565b61194661194061193b611838565b610403565b91610403565b141560001461195c575061195990611cd6565b90565b611966915061190e565b90565b604291611974610ae7565b50604051917f19010000000000000000000000000000000000000000000000000000000000008352600283015260228201522090565b600090565b6119bb6119c091610a3b565b611360565b90565b90565b6119da6119d56119df926119c3565b610ab2565b610229565b90565b611a18611a1f94611a0e606094989795611a04608086019a6000870190610406565b60208501906103ab565b6040830190610406565b0190610406565b565b611a29610113565b3d6000823e3d90fd5b939293611a3d610ba4565b50611a466119aa565b50611a4f610ae7565b50611a59856119af565b611a8b611a857f7fffffffffffffffffffffffffffffff5d576e7357a4501ddfe92f46681b20a06119c6565b91610229565b11611b1f5790611aaf60209495600094939293611aa6610113565b948594856119e2565b838052039060015afa15611b1a57611ac8600051610bbd565b80611ae4611ade611ad9600061103b565b6101f9565b916101f9565b14611afc57600091611af66000610bc3565b91929190565b50611b07600061103b565b600191611b146000610bc3565b91929190565b611a21565b505050611b2c600061103b565b9060039291929190565b634e487b7160e01b600052602160045260246000fd5b60041115611b5657565b611b36565b90611b6582611b4c565b565b80611b7b611b756000611b5b565b91611b5b565b14600014611b87575050565b80611b9b611b956001611b5b565b91611b5b565b14600014611bc657611bab610113565b63f645eedf60e01b815280611bc26004820161045e565b0390fd5b80611bda611bd46002611b5b565b91611b5b565b14600014611c1057611c0c611bee836119af565b611bf6610113565b91829163fce698f760e01b8352600483016102e9565b0390fd5b611c23611c1d6003611b5b565b91611b5b565b14611c2b5750565b611c4d90611c37610113565b9182916335e2f38360e21b835260048301610413565b0390fd5b90565b611c68611c63611c6d92611c51565b610ab2565b610229565b90565b67ffffffffffffffff8111611c8e57611c8a602091610165565b0190565b61098c565b90611ca5611ca083611c70565b610bfb565b918252565b369037565b90611cd4611cbc83611c93565b92602080611cca8693611c70565b9201910390611caa565b565b611cde610897565b50611ce881611d41565b90611cfb611cf66020611c54565b611caf565b918252602082015290565b611d1a611d15611d1f92611819565b610ab2565b610229565b90565b90565b611d39611d34611d3e92611d22565b610ab2565b610229565b90565b611d56611d5b91611d50610a36565b5061180d565b6119af565b611d6560ff611d06565b1680611d7a611d74601f611d25565b91610229565b11611d825790565b611d8a610113565b632cd44ac360e21b815280611da16004820161045e565b0390fdfea264697066735822122017480ac7deeb8e24089f7f6ac5b5476e33c138eb50e1c940016c23420ee8e1ab64736f6c63430008180033",
  "linkReferences": {},
  "deployedLinkReferences": {}
}