{
  "_format": "hh-sol-artifact-1",
  "contractName": "PoolOrganizer",
  "sourceName": "contracts/protocol/PoolOrganizer.sol",
  "abi": [
    {
      "inputs": [],
      "stateMutability": "nonpayable",
      "type": "constructor"
    },
    {
      "inputs": [],
      "name": "AccessControlBadConfirmation",
      "type": "error"
    },
    {
      "inputs": [
        {
          "internalType": "address",
          "name": "account",
          "type": "address"
        },
        {
          "internalType": "bytes32",
          "name": "neededRole",
          "type": "bytes32"
        }
      ],
      "name": "AccessControlUnauthorizedAccount",
      "type": "error"
    },
    {
      "anonymous": false,
      "inputs": [
        {
          "indexed": true,
          "internalType": "address",
          "name": "pool",
          "type": "address"
        },
        {
          "indexed": false,
          "internalType": "enum IPoolOrganizer.LoanState",
          "name": "oldState",
          "type": "uint8"
        },
        {
          "indexed": false,
          "internalType": "enum IPoolOrganizer.LoanState",
          "name": "newState",
          "type": "uint8"
        }
      ],
      "name": "LoanStateUpdated",
      "type": "event"
    },
    {
      "anonymous": false,
      "inputs": [
        {
          "indexed": false,
          "internalType": "address",
          "name": "vaultManager",
          "type": "address"
        },
        {
          "indexed": false,
          "internalType": "address",
          "name": "rewardManager",
          "type": "address"
        }
      ],
      "name": "ManagerRegistered",
      "type": "event"
    },
    {
      "anonymous": false,
      "inputs": [
        {
          "indexed": true,
          "internalType": "address",
          "name": "pool",
          "type": "address"
        }
      ],
      "name": "PoolDeregistered",
      "type": "event"
    },
    {
      "anonymous": false,
      "inputs": [
        {
          "indexed": true,
          "internalType": "address",
          "name": "pool",
          "type": "address"
        },
        {
          "indexed": true,
          "internalType": "address",
          "name": "lender",
          "type": "address"
        },
        {
          "indexed": true,
          "internalType": "address",
          "name": "borrower",
          "type": "address"
        },
        {
          "indexed": false,
          "internalType": "address",
          "name": "vault",
          "type": "address"
        },
        {
          "indexed": false,
          "internalType": "enum IPoolOrganizer.PoolType",
          "name": "poolType",
          "type": "uint8"
        }
      ],
      "name": "PoolRegistered",
      "type": "event"
    },
    {
      "anonymous": false,
      "inputs": [
        {
          "indexed": true,
          "internalType": "bytes32",
          "name": "role",
          "type": "bytes32"
        },
        {
          "indexed": true,
          "internalType": "bytes32",
          "name": "previousAdminRole",
          "type": "bytes32"
        },
        {
          "indexed": true,
          "internalType": "bytes32",
          "name": "newAdminRole",
          "type": "bytes32"
        }
      ],
      "name": "RoleAdminChanged",
      "type": "event"
    },
    {
      "anonymous": false,
      "inputs": [
        {
          "indexed": true,
          "internalType": "bytes32",
          "name": "role",
          "type": "bytes32"
        },
        {
          "indexed": true,
          "internalType": "address",
          "name": "account",
          "type": "address"
        },
        {
          "indexed": true,
          "internalType": "address",
          "name": "sender",
          "type": "address"
        }
      ],
      "name": "RoleGranted",
      "type": "event"
    },
    {
      "anonymous": false,
      "inputs": [
        {
          "indexed": true,
          "internalType": "bytes32",
          "name": "role",
          "type": "bytes32"
        },
        {
          "indexed": true,
          "internalType": "address",
          "name": "account",
          "type": "address"
        },
        {
          "indexed": true,
          "internalType": "address",
          "name": "sender",
          "type": "address"
        }
      ],
      "name": "RoleRevoked",
      "type": "event"
    },
    {
      "anonymous": false,
      "inputs": [
        {
          "indexed": true,
          "internalType": "address",
          "name": "pool",
          "type": "address"
        },
        {
          "indexed": true,
          "internalType": "address",
          "name": "vault",
          "type": "address"
        }
      ],
      "name": "VaultRegistered",
      "type": "event"
    },
    {
      "inputs": [],
      "name": "DEFAULT_ADMIN_ROLE",
      "outputs": [
        {
          "internalType": "bytes32",
          "name": "",
          "type": "bytes32"
        }
      ],
      "stateMutability": "view",
      "type": "function"
    },
    {
      "inputs": [],
      "name": "POOL_MANAGER_ROLE",
      "outputs": [
        {
          "internalType": "bytes32",
          "name": "",
          "type": "bytes32"
        }
      ],
      "stateMutability": "view",
      "type": "function"
    },
    {
      "inputs": [
        {
          "internalType": "address",
          "name": "pool",
          "type": "address"
        }
      ],
      "name": "deregisterPool",
      "outputs": [],
      "stateMutability": "nonpayable",
      "type": "function"
    },
    {
      "inputs": [
        {
          "internalType": "address",
          "name": "lender",
          "type": "address"
        }
      ],
      "name": "getAllLenderPoolDetails",
      "outputs": [
        {
          "components": [
            {
              "internalType": "address",
              "name": "lender",
              "type": "address"
            },
            {
              "internalType": "address",
              "name": "borrower",
              "type": "address"
            },
            {
              "internalType": "uint256",
              "name": "creationTime",
              "type": "uint256"
            },
            {
              "internalType": "address",
              "name": "vault",
              "type": "address"
            },
            {
              "internalType": "contract IERC20",
              "name": "loanToken",
              "type": "address"
            },
            {
              "internalType": "contract IERC20",
              "name": "assetToken",
              "type": "address"
            },
            {
              "internalType": "contract IERC20",
              "name": "repaymentToken",
              "type": "address"
            },
            {
              "internalType": "uint256",
              "name": "loanAmount",
              "type": "uint256"
            },
            {
              "internalType": "uint256",
              "name": "interestRate",
              "type": "uint256"
            },
            {
              "internalType": "uint256",
              "name": "repaymentPeriod",
              "type": "uint256"
            },
            {
              "internalType": "enum IPoolOrganizer.PoolType",
              "name": "poolType",
              "type": "uint8"
            },
            {
              "internalType": "bool",
              "name": "funded",
              "type": "bool"
            },
            {
              "internalType": "enum IPoolOrganizer.LoanState",
              "name": "loanState",
              "type": "uint8"
            },
            {
              "internalType": "address",
              "name": "pool",
              "type": "address"
            }
          ],
          "internalType": "struct IPoolOrganizer.PoolDetails[]",
          "name": "",
          "type": "tuple[]"
        }
      ],
      "stateMutability": "view",
      "type": "function"
    },
    {
      "inputs": [],
      "name": "getAllPoolAddresses",
      "outputs": [
        {
          "internalType": "address[]",
          "name": "",
          "type": "address[]"
        }
      ],
      "stateMutability": "view",
      "type": "function"
    },
    {
      "inputs": [
        {
          "internalType": "address",
          "name": "borrower",
          "type": "address"
        }
      ],
      "name": "getBorrowerPoolDetails",
      "outputs": [
        {
          "components": [
            {
              "internalType": "address",
              "name": "lender",
              "type": "address"
            },
            {
              "internalType": "address",
              "name": "borrower",
              "type": "address"
            },
            {
              "internalType": "uint256",
              "name": "creationTime",
              "type": "uint256"
            },
            {
              "internalType": "address",
              "name": "vault",
              "type": "address"
            },
            {
              "internalType": "contract IERC20",
              "name": "loanToken",
              "type": "address"
            },
            {
              "internalType": "contract IERC20",
              "name": "assetToken",
              "type": "address"
            },
            {
              "internalType": "contract IERC20",
              "name": "repaymentToken",
              "type": "address"
            },
            {
              "internalType": "uint256",
              "name": "loanAmount",
              "type": "uint256"
            },
            {
              "internalType": "uint256",
              "name": "interestRate",
              "type": "uint256"
            },
            {
              "internalType": "uint256",
              "name": "repaymentPeriod",
              "type": "uint256"
            },
            {
              "internalType": "enum IPoolOrganizer.PoolType",
              "name": "poolType",
              "type": "uint8"
            },
            {
              "internalType": "bool",
              "name": "funded",
              "type": "bool"
            },
            {
              "internalType": "enum IPoolOrganizer.LoanState",
              "name": "loanState",
              "type": "uint8"
            },
            {
              "internalType": "address",
              "name": "pool",
              "type": "address"
            }
          ],
          "internalType": "struct IPoolOrganizer.PoolDetails[]",
          "name": "",
          "type": "tuple[]"
        }
      ],
      "stateMutability": "view",
      "type": "function"
    },
    {
      "inputs": [
        {
          "internalType": "address",
          "name": "pool",
          "type": "address"
        }
      ],
      "name": "getLoanState",
      "outputs": [
        {
          "internalType": "enum IPoolOrganizer.LoanState",
          "name": "",
          "type": "uint8"
        }
      ],
      "stateMutability": "view",
      "type": "function"
    },
    {
      "inputs": [],
      "name": "getManagers",
      "outputs": [
        {
          "internalType": "address",
          "name": "",
          "type": "address"
        },
        {
          "internalType": "address",
          "name": "",
          "type": "address"
        }
      ],
      "stateMutability": "view",
      "type": "function"
    },
    {
      "inputs": [
        {
          "internalType": "address",
          "name": "pool",
          "type": "address"
        }
      ],
      "name": "getPoolDetails",
      "outputs": [
        {
          "components": [
            {
              "internalType": "address",
              "name": "lender",
              "type": "address"
            },
            {
              "internalType": "address",
              "name": "borrower",
              "type": "address"
            },
            {
              "internalType": "uint256",
              "name": "creationTime",
              "type": "uint256"
            },
            {
              "internalType": "address",
              "name": "vault",
              "type": "address"
            },
            {
              "internalType": "contract IERC20",
              "name": "loanToken",
              "type": "address"
            },
            {
              "internalType": "contract IERC20",
              "name": "assetToken",
              "type": "address"
            },
            {
              "internalType": "contract IERC20",
              "name": "repaymentToken",
              "type": "address"
            },
            {
              "internalType": "uint256",
              "name": "loanAmount",
              "type": "uint256"
            },
            {
              "internalType": "uint256",
              "name": "interestRate",
              "type": "uint256"
            },
            {
              "internalType": "uint256",
              "name": "repaymentPeriod",
              "type": "uint256"
            },
            {
              "internalType": "enum IPoolOrganizer.PoolType",
              "name": "poolType",
              "type": "uint8"
            },
            {
              "internalType": "bool",
              "name": "funded",
              "type": "bool"
            },
            {
              "internalType": "enum IPoolOrganizer.LoanState",
              "name": "loanState",
              "type": "uint8"
            },
            {
              "internalType": "address",
              "name": "pool",
              "type": "address"
            }
          ],
          "internalType": "struct IPoolOrganizer.PoolDetails",
          "name": "",
          "type": "tuple"
        }
      ],
      "stateMutability": "view",
      "type": "function"
    },
    {
      "inputs": [
        {
          "internalType": "address",
          "name": "borrower",
          "type": "address"
        }
      ],
      "name": "getPoolsByBorrower",
      "outputs": [
        {
          "internalType": "address[]",
          "name": "",
          "type": "address[]"
        }
      ],
      "stateMutability": "view",
      "type": "function"
    },
    {
      "inputs": [
        {
          "internalType": "address",
          "name": "lender",
          "type": "address"
        }
      ],
      "name": "getPoolsByLender",
      "outputs": [
        {
          "internalType": "address[]",
          "name": "",
          "type": "address[]"
        }
      ],
      "stateMutability": "view",
      "type": "function"
    },
    {
      "inputs": [
        {
          "internalType": "bytes32",
          "name": "role",
          "type": "bytes32"
        }
      ],
      "name": "getRoleAdmin",
      "outputs": [
        {
          "internalType": "bytes32",
          "name": "",
          "type": "bytes32"
        }
      ],
      "stateMutability": "view",
      "type": "function"
    },
    {
      "inputs": [],
      "name": "getTotalPools",
      "outputs": [
        {
          "internalType": "uint256",
          "name": "",
          "type": "uint256"
        }
      ],
      "stateMutability": "view",
      "type": "function"
    },
    {
      "inputs": [
        {
          "internalType": "address",
          "name": "pool",
          "type": "address"
        }
      ],
      "name": "getVaultForPool",
      "outputs": [
        {
          "internalType": "address",
          "name": "",
          "type": "address"
        }
      ],
      "stateMutability": "view",
      "type": "function"
    },
    {
      "inputs": [
        {
          "internalType": "address",
          "name": "factoryAddress",
          "type": "address"
        }
      ],
      "name": "grantFactoryAccess",
      "outputs": [],
      "stateMutability": "nonpayable",
      "type": "function"
    },
    {
      "inputs": [
        {
          "internalType": "bytes32",
          "name": "role",
          "type": "bytes32"
        },
        {
          "internalType": "address",
          "name": "account",
          "type": "address"
        }
      ],
      "name": "grantRole",
      "outputs": [],
      "stateMutability": "nonpayable",
      "type": "function"
    },
    {
      "inputs": [
        {
          "internalType": "bytes32",
          "name": "role",
          "type": "bytes32"
        },
        {
          "internalType": "address",
          "name": "account",
          "type": "address"
        }
      ],
      "name": "hasRole",
      "outputs": [
        {
          "internalType": "bool",
          "name": "",
          "type": "bool"
        }
      ],
      "stateMutability": "view",
      "type": "function"
    },
    {
      "inputs": [
        {
          "internalType": "address",
          "name": "pool",
          "type": "address"
        }
      ],
      "name": "markPoolAsFunded",
      "outputs": [],
      "stateMutability": "nonpayable",
      "type": "function"
    },
    {
      "inputs": [
        {
          "internalType": "address",
          "name": "",
          "type": "address"
        }
      ],
      "name": "poolVaults",
      "outputs": [
        {
          "internalType": "address",
          "name": "",
          "type": "address"
        }
      ],
      "stateMutability": "view",
      "type": "function"
    },
    {
      "inputs": [
        {
          "internalType": "address",
          "name": "_vaultManager",
          "type": "address"
        },
        {
          "internalType": "address",
          "name": "_rewardManager",
          "type": "address"
        }
      ],
      "name": "registerManagers",
      "outputs": [],
      "stateMutability": "nonpayable",
      "type": "function"
    },
    {
      "inputs": [
        {
          "internalType": "address",
          "name": "pool",
          "type": "address"
        },
        {
          "internalType": "address",
          "name": "lender",
          "type": "address"
        },
        {
          "internalType": "address",
          "name": "borrower",
          "type": "address"
        },
        {
          "internalType": "address",
          "name": "vault",
          "type": "address"
        },
        {
          "internalType": "contract IERC20",
          "name": "loanToken",
          "type": "address"
        },
        {
          "internalType": "contract IERC20",
          "name": "assetToken",
          "type": "address"
        },
        {
          "internalType": "contract IERC20",
          "name": "repaymentToken",
          "type": "address"
        },
        {
          "internalType": "uint256",
          "name": "loanAmount",
          "type": "uint256"
        },
        {
          "internalType": "uint256",
          "name": "interestRate",
          "type": "uint256"
        },
        {
          "internalType": "uint256",
          "name": "repaymentPeriod",
          "type": "uint256"
        },
        {
          "internalType": "enum IPoolOrganizer.PoolType",
          "name": "poolType",
          "type": "uint8"
        }
      ],
      "name": "registerPool",
      "outputs": [],
      "stateMutability": "nonpayable",
      "type": "function"
    },
    {
      "inputs": [
        {
          "internalType": "address",
          "name": "pool",
          "type": "address"
        },
        {
          "internalType": "address",
          "name": "vault",
          "type": "address"
        }
      ],
      "name": "registerVault",
      "outputs": [],
      "stateMutability": "nonpayable",
      "type": "function"
    },
    {
      "inputs": [
        {
          "internalType": "bytes32",
          "name": "role",
          "type": "bytes32"
        },
        {
          "internalType": "address",
          "name": "callerConfirmation",
          "type": "address"
        }
      ],
      "name": "renounceRole",
      "outputs": [],
      "stateMutability": "nonpayable",
      "type": "function"
    },
    {
      "inputs": [
        {
          "internalType": "bytes32",
          "name": "role",
          "type": "bytes32"
        },
        {
          "internalType": "address",
          "name": "account",
          "type": "address"
        }
      ],
      "name": "revokeRole",
      "outputs": [],
      "stateMutability": "nonpayable",
      "type": "function"
    },
    {
      "inputs": [],
      "name": "rewardManager",
      "outputs": [
        {
          "internalType": "contract IRewardManager",
          "name": "",
          "type": "address"
        }
      ],
      "stateMutability": "view",
      "type": "function"
    },
    {
      "inputs": [
        {
          "internalType": "address",
          "name": "pool",
          "type": "address"
        },
        {
          "internalType": "address",
          "name": "newBorrower",
          "type": "address"
        }
      ],
      "name": "setBorrowerForPool",
      "outputs": [],
      "stateMutability": "nonpayable",
      "type": "function"
    },
    {
      "inputs": [
        {
          "internalType": "bytes4",
          "name": "interfaceId",
          "type": "bytes4"
        }
      ],
      "name": "supportsInterface",
      "outputs": [
        {
          "internalType": "bool",
          "name": "",
          "type": "bool"
        }
      ],
      "stateMutability": "view",
      "type": "function"
    },
    {
      "inputs": [
        {
          "internalType": "address",
          "name": "pool",
          "type": "address"
        },
        {
          "internalType": "enum IPoolOrganizer.LoanState",
          "name": "newState",
          "type": "uint8"
        }
      ],
      "name": "updateLoanState",
      "outputs": [],
      "stateMutability": "nonpayable",
      "type": "function"
    },
    {
      "inputs": [],
      "name": "vaultManager",
      "outputs": [
        {
          "internalType": "contract IVaultManager",
          "name": "",
          "type": "address"
        }
      ],
      "stateMutability": "view",
      "type": "function"
    }
  ],
  "bytecode": "0x6080604052346200002d57620000146200009f565b6200001e62000033565b6136a8620002fd82396136a890f35b62000039565b60405190565b600080fd5b90565b90565b60001b90565b620000636200005d62000069926200003e565b62000044565b62000041565b90565b6200007860006200004a565b90565b7f6077685936c8169d09204a1d97db12e41713588c38e1d29a61867d3dcee98aff90565b620000b5620000ad6200006c565b3390620001bc565b50620000cc620000c46200007b565b3390620001bc565b50565b600090565b151590565b620000e49062000041565b90565b90620000f390620000d9565b600052602052604060002090565b60018060a01b031690565b90565b62000128620001226200012e9262000101565b6200010c565b62000101565b90565b6200013c906200010f565b90565b6200014a9062000131565b90565b9062000159906200013f565b600052602052604060002090565b906200017560ff9162000044565b9181191691161790565b6200018a90620000d4565b90565b90565b90620001aa620001a4620001b2926200017f565b6200018d565b825462000167565b9055565b60000190565b620001c6620000cf565b50620001df620001d8828490620002b6565b15620000d4565b6000146200027c576200020f600162000209600062000200818690620000e7565b0185906200014d565b62000190565b906200021a620002ed565b906200025d620002566200024f7f2f8788117e7eff1d82e926ec794901d17c78024a50270940304540a733656f0d95620000d9565b926200013f565b926200013f565b926200026862000033565b806200027481620001b6565b0390a4600190565b5050600090565b60001c90565b60ff1690565b6200029e620002a49162000283565b62000289565b90565b620002b390546200028f565b90565b620002e5916000620002d8620002df93620002d0620000cf565b5082620000e7565b016200014d565b620002a7565b90565b600090565b620002f7620002e8565b50339056fe60806040526004361015610013575b6111a7565b61001e6000356101ed565b806301ffc9a7146101e857806305c4fdf9146101e35780630f4ef8a6146101de5780631e4966ab146101d95780631f2f2e14146101d4578063248a9ca3146101cf57806324a44efb146101ca5780632f2ff15d146101c557806336568abe146101c057806337e238c5146101bb57806343756020146101b657806352fc9b0e146101b157806356d73568146101ac5780635d102df7146101a75780637570e389146101a25780637e72c7d71461019d5780638a4adf241461019857806391d1485414610193578063a217fddf1461018e578063a8d088bb14610189578063a956239b14610184578063c489579d1461017f578063c56f1b441461017a578063c81c3bef14610175578063d3e90fa014610170578063d3ffe67a1461016b578063d547741f14610166578063e7ef32f7146101615763ec2095440361000e57611172565b61113d565b611109565b6110d4565b61107c565b610f27565b610ecf565b610e9b565b610e67565b610de5565b610d8c565b610d19565b610ce4565b610c41565b610c0c565b610bd9565b610ba4565b610b40565b6108b1565b610759565b610725565b6106f1565b61068e565b6105b8565b61051c565b6104e7565b610401565b61031e565b61027a565b60e01c90565b60405190565b600080fd5b600080fd5b63ffffffff60e01b1690565b61021881610203565b0361021f57565b600080fd5b905035906102318261020f565b565b9060208282031261024d5761024a91600001610224565b90565b6101fe565b151590565b61026090610252565b9052565b919061027890600060208501940190610257565b565b346102aa576102a6610295610290366004610233565b6111b1565b61029d6101f3565b91829182610264565b0390f35b6101f9565b60018060a01b031690565b6102c3906102af565b90565b6102cf816102ba565b036102d657565b600080fd5b905035906102e8826102c6565b565b9190604083820312610313578061030761031092600086016102db565b936020016102db565b90565b6101fe565b60000190565b3461034d576103376103313660046102ea565b90611451565b61033f6101f3565b8061034981610318565b0390f35b6101f9565b600091031261035d57565b6101fe565b1c90565b60018060a01b031690565b6103819060086103869302610362565b610366565b90565b906103949154610371565b90565b6103a46002600090610389565b90565b90565b6103be6103b96103c3926102af565b6103a7565b6102af565b90565b6103cf906103aa565b90565b6103db906103c6565b90565b6103e7906103d2565b9052565b91906103ff906000602085019401906103de565b565b3461043157610411366004610352565b61042d61041c610397565b6104246101f3565b918291826103eb565b0390f35b6101f9565b906020828203126104505761044d916000016102db565b90565b6101fe565b61045e906103c6565b90565b9061046b90610455565b600052602052604060002090565b60018060a01b031690565b6104949060086104999302610362565b610479565b90565b906104a79154610484565b90565b6104c1906104bc600691600092610461565b61049c565b90565b6104cd906102ba565b9052565b91906104e5906000602085019401906104c4565b565b34610517576105136105026104fd366004610436565b6104aa565b61050a6101f3565b918291826104d1565b0390f35b6101f9565b3461054a5761053461052f366004610436565b6115c8565b61053c6101f3565b8061054681610318565b0390f35b6101f9565b90565b61055b8161054f565b0361056257565b600080fd5b9050359061057482610552565b565b906020828203126105905761058d91600001610567565b90565b6101fe565b61059e9061054f565b9052565b91906105b690600060208501940190610595565b565b346105e8576105e46105d36105ce366004610576565b61166c565b6105db6101f3565b918291826105a2565b0390f35b6101f9565b5190565b60209181520190565b60200190565b610609906102ba565b9052565b9061061a81602093610600565b0190565b60200190565b9061064161063b610634846105ed565b80936105f1565b926105fa565b9060005b8181106106525750505090565b90919261066b610665600192865161060d565b9461061e565b9101919091610645565b61068b9160208201916000818403910152610624565b90565b346106be576106ba6106a96106a4366004610436565b6117b2565b6106b16101f3565b91829182610675565b0390f35b6101f9565b91906040838203126106ec57806106e06106e99260008601610567565b936020016102db565b90565b6101fe565b346107205761070a6107043660046106c3565b906117fb565b6107126101f3565b8061071c81610318565b0390f35b6101f9565b346107545761073e6107383660046106c3565b90611807565b6107466101f3565b8061075081610318565b0390f35b6101f9565b346107885761077261076c3660046102ea565b906119d6565b61077a6101f3565b8061078481610318565b0390f35b6101f9565b610796906102ba565b90565b6107a28161078d565b036107a957565b600080fd5b905035906107bb82610799565b565b90565b6107c9816107bd565b036107d057565b600080fd5b905035906107e2826107c0565b565b600211156107ee57565b600080fd5b90503590610800826107e4565b565b9190610160838203126108ac5761081c81600085016102db565b9261082a82602083016102db565b9261083883604084016102db565b9261084681606085016102db565b9261085482608083016107ae565b926108628360a084016107ae565b926108708160c085016107ae565b9261087e8260e083016107d5565b926108a96108908461010085016107d5565b9361089f8161012086016107d5565b93610140016107f3565b90565b6101fe565b346108ec576108d66108c4366004610802565b99989098979197969296959395612004565b6108de6101f3565b806108e881610318565b0390f35b6101f9565b5190565b60209181520190565b60200190565b61090d906107bd565b9052565b61091a906103c6565b90565b61092690610911565b9052565b634e487b7160e01b600052602160045260246000fd5b6002111561094a57565b61092a565b9061095982610940565b565b6109649061094f565b90565b6109709061095b565b9052565b61097d90610252565b9052565b6007111561098b57565b61092a565b9061099a82610981565b565b6109a590610990565b90565b6109b19061099c565b9052565b906101a080610abc936109d060008201516000860190610600565b6109e260208201516020860190610600565b6109f460408201516040860190610904565b610a0660608201516060860190610600565b610a186080820151608086019061091d565b610a2a60a082015160a086019061091d565b610a3c60c082015160c086019061091d565b610a4e60e082015160e0860190610904565b610a62610100820151610100860190610904565b610a76610120820151610120860190610904565b610a8a610140820151610140860190610967565b610a9e610160820151610160860190610974565b610ab26101808201516101808601906109a8565b0151910190610600565b565b90610acc816101c0936109b5565b0190565b60200190565b90610af3610aed610ae6846108f1565b80936108f5565b926108fe565b9060005b818110610b045750505090565b909192610b1d610b176001928651610abe565b94610ad0565b9101919091610af7565b610b3d9160208201916000818403910152610ad6565b90565b34610b7057610b6c610b5b610b56366004610436565b612662565b610b636101f3565b91829182610b27565b0390f35b6101f9565b7f6077685936c8169d09204a1d97db12e41713588c38e1d29a61867d3dcee98aff90565b610ba1610b75565b90565b34610bd457610bb4366004610352565b610bd0610bbf610b99565b610bc76101f3565b918291826105a2565b0390f35b6101f9565b34610c0757610bf1610bec366004610436565b612791565b610bf96101f3565b80610c0381610318565b0390f35b6101f9565b34610c3c57610c38610c27610c22366004610436565b61287f565b610c2f6101f3565b918291826104d1565b0390f35b6101f9565b34610c6f57610c59610c54366004610436565b612a10565b610c616101f3565b80610c6b81610318565b0390f35b6101f9565b60018060a01b031690565b610c8f906008610c949302610362565b610c74565b90565b90610ca29154610c7f565b90565b610cb26001600090610c97565b90565b610cbe906103c6565b90565b610cca90610cb5565b9052565b9190610ce290600060208501940190610cc1565b565b34610d1457610cf4366004610352565b610d10610cff610ca5565b610d076101f3565b91829182610cce565b0390f35b6101f9565b34610d4a57610d46610d35610d2f3660046106c3565b90612b1d565b610d3d6101f3565b91829182610264565b0390f35b6101f9565b90565b60001b90565b610d6c610d67610d7192610d4f565b610d52565b61054f565b90565b610d7e6000610d58565b90565b610d89610d74565b90565b34610dbc57610d9c366004610352565b610db8610da7610d81565b610daf6101f3565b918291826105a2565b0390f35b6101f9565b916020610de3929493610ddc604082019660008301906104c4565b01906104c4565b565b34610e1657610df5366004610352565b610dfd612b89565b90610e12610e096101f3565b92839283610dc1565b0390f35b6101f9565b60071115610e2557565b600080fd5b90503590610e3782610e1b565b565b9190604083820312610e625780610e56610e5f92600086016102db565b93602001610e2a565b90565b6101fe565b34610e9657610e80610e7a366004610e39565b90612c08565b610e886101f3565b80610e9281610318565b0390f35b6101f9565b34610eca57610eb4610eae3660046102ea565b90612f60565b610ebc6101f3565b80610ec681610318565b0390f35b6101f9565b34610eff57610edf366004610352565b610efb610eea612f6c565b610ef26101f3565b91829182610675565b0390f35b6101f9565b610f0d9061099c565b9052565b9190610f2590600060208501940190610f04565b565b34610f5757610f53610f42610f3d366004610436565b612f82565b610f4a6101f3565b91829182610f11565b0390f35b6101f9565b906101a08061106393610f7760008201516000860190610600565b610f8960208201516020860190610600565b610f9b60408201516040860190610904565b610fad60608201516060860190610600565b610fbf6080820151608086019061091d565b610fd160a082015160a086019061091d565b610fe360c082015160c086019061091d565b610ff560e082015160e0860190610904565b611009610100820151610100860190610904565b61101d610120820151610120860190610904565b611031610140820151610140860190610967565b611045610160820151610160860190610974565b6110596101808201516101808601906109a8565b0151910190610600565b565b919061107a9060006101c08501940190610f5c565b565b346110ac576110a8611097611092366004610436565b612fac565b61109f6101f3565b91829182611065565b0390f35b6101f9565b6110ba906107bd565b9052565b91906110d2906000602085019401906110b1565b565b34611104576110e4366004610352565b6111006110ef613007565b6110f76101f3565b918291826110be565b0390f35b6101f9565b346111385761112261111c3660046106c3565b90613047565b61112a6101f3565b8061113481610318565b0390f35b6101f9565b3461116d57611169611158611153366004610436565b613053565b6111606101f3565b91829182610675565b0390f35b6101f9565b346111a25761119e61118d611188366004610436565b613072565b6111956101f3565b91829182610b27565b0390f35b6101f9565b600080fd5b600090565b6111b96111ac565b50806111d46111ce637965db0b60e01b610203565b91610203565b149081156111e1575b5090565b6111eb915061311d565b386111dd565b61120561120061120a92610d4f565b6103a7565b6102af565b90565b611216906111f1565b90565b60209181520190565b60007f496e76616c696420616464726573736573000000000000000000000000000000910152565b6112576011602092611219565b61126081611222565b0190565b61127a906020810190600081830391015261124a565b90565b1561128457565b61128c6101f3565b62461bcd60e51b8152806112a260048201611264565b0390fd5b906112b090610455565b600052602052604060002090565b60001c90565b6112d06112d5916112be565b610479565b90565b6112e290546112c4565b90565b60007f506f6f6c206e6f74207265676973746572656400000000000000000000000000910152565b61131a6013602092611219565b611323816112e5565b0190565b61133d906020810190600081830391015261130d565b90565b1561134757565b61134f6101f3565b62461bcd60e51b81528061136560048201611327565b0390fd5b60207f7320706f6f6c0000000000000000000000000000000000000000000000000000917f5661756c7420616c7265616479207265676973746572656420666f722074686960008201520152565b6113c46026604092611219565b6113cd81611369565b0190565b6113e790602081019060008183039101526113b7565b90565b156113f157565b6113f96101f3565b62461bcd60e51b81528061140f600482016113d1565b0390fd5b9061142460018060a01b0391610d52565b9181191691161790565b90565b9061144661144161144d92610455565b61142e565b8254611413565b9055565b8061146d611467611462600061120d565b6102ba565b916102ba565b141580611553575b61147e9061127d565b6114ba6114986000611492600485906112a6565b016112d8565b6114b36114ad6114a8600061120d565b6102ba565b916102ba565b1415611340565b6114f26114d16114cc60068490610461565b6112d8565b6114ec6114e66114e1600061120d565b6102ba565b916102ba565b146113ea565b6115078261150260068490610461565b611431565b9061153b6115357ff8ee9039d8e4d43426638703c71517008894fdea742bb2d2dbff5a46fb07abdb93610455565b91610455565b916115446101f3565b8061154e81610318565b0390a3565b5061147e8261157361156d611568600061120d565b6102ba565b916102ba565b14159050611475565b60081b90565b9061158f61ff009161157c565b9181191691161790565b6115a290610252565b90565b90565b906115bd6115b86115c492611599565b6115a5565b8254611582565b9055565b61161d906116086115e660006115e0600485906112a6565b016112d8565b6116016115fb6115f6600061120d565b6102ba565b916102ba565b1415611340565b600a61161760019260046112a6565b016115a8565b565b600090565b61162d9061054f565b90565b9061163a90611624565b600052602052604060002090565b90565b61165761165c916112be565b611648565b90565b611669905461164b565b90565b600161168561168b9261167d61161f565b506000611630565b0161165f565b90565b606090565b9061169d90610455565b600052602052604060002090565b5490565b60209181520190565b600052602060002090565b6116cd90546112c4565b90565b60010190565b906116f36116ed6116e6846116ab565b80936116af565b926116b8565b9060005b8181106117045750505090565b90919261172461171e600192611719876116c3565b61060d565b946116d0565b91019190916116f7565b90611738916116d6565b90565b601f801991011690565b634e487b7160e01b600052604160045260246000fd5b906117659061173b565b810190811067ffffffffffffffff82111761177f57604052565b611745565b906117a461179d926117946101f3565b9384809261172e565b038361175b565b565b6117af90611784565b90565b6117c96117ce916117c161168e565b506005611693565b6117a6565b90565b906117ec916117e76117e28261166c565b613143565b6117ee565b565b906117f891613177565b50565b90611805916117d1565b565b908061182261181c611817613225565b6102ba565b916102ba565b036118335761183091613232565b50565b61183b6101f3565b63334bd91960e11b81528061185260048201610318565b0390fd5b60207f6573730000000000000000000000000000000000000000000000000000000000917f426f72726f7765722063616e6e6f7420626520746865207a65726f206164647260008201520152565b6118b16023604092611219565b6118ba81611856565b0190565b6118d490602081019060008183039101526118a4565b90565b156118de57565b6118e66101f3565b62461bcd60e51b8152806118fc600482016118be565b0390fd5b90565b600052602060002090565b634e487b7160e01b600052603260045260246000fd5b5490565b61193181611924565b82101561194c57611943600191611903565b91020190600090565b61190e565b1b90565b9190600861197591029161196f60018060a01b0384611951565b92611951565b9181191691161790565b919061199561199061199d93610455565b61142e565b908354611955565b9055565b90815491680100000000000000008310156119d157826119c99160016119cf95018155611928565b9061197f565b565b611745565b611a126119f060006119ea600485906112a6565b016112d8565b611a0b611a05611a00600061120d565b6102ba565b916102ba565b1415611340565b611a3882611a31611a2b611a26600061120d565b6102ba565b916102ba565b14156118d7565b611a4f6001611a49600484906112a6565b016112d8565b9182611a63611a5d836102ba565b916102ba565b03611a6e575b505050565b611ac160019184611ac795611a94611a8e611a89600061120d565b6102ba565b916102ba565b03611acf575b50611ab9611ab2611aad60078490611693565b611900565b85906119a1565b9260046112a6565b01611431565b388080611a69565b611ada9085906133b3565b38611a9a565b60007f506f6f6c20616464726573732063616e6e6f74206265207a65726f0000000000910152565b611b15601b602092611219565b611b1e81611ae0565b0190565b611b389060208101906000818303910152611b08565b90565b15611b4257565b611b4a6101f3565b62461bcd60e51b815280611b6060048201611b22565b0390fd5b60007f506f6f6c20616c72656164792072656769737465726564000000000000000000910152565b611b996017602092611219565b611ba281611b64565b0190565b611bbc9060208101906000818303910152611b8c565b90565b15611bc657565b611bce6101f3565b62461bcd60e51b815280611be460048201611ba6565b0390fd5b90611bfb611bf46101f3565b928361175b565b565b611c086101c0611be8565b90565b90611c15906102ba565b9052565b90611c23906107bd565b9052565b90611c319061078d565b9052565b90611c3f9061094f565b9052565b90611c4d90610252565b9052565b90611c5b90610990565b9052565b634e487b7160e01b600052600060045260246000fd5b611c7f90516102ba565b90565b611c8c90516107bd565b90565b90611c9c60001991610d52565b9181191691161790565b611cba611cb5611cbf926107bd565b6103a7565b6107bd565b90565b90565b90611cda611cd5611ce192611ca6565b611cc2565b8254611c8f565b9055565b611cef905161078d565b90565b611cfb906103aa565b90565b611d0790611cf2565b90565b90565b90611d22611d1d611d2992611cfe565b611d0a565b8254611413565b9055565b611d37905161094f565b90565b90611d4660ff91610d52565b9181191691161790565b611d599061094f565b90565b90565b90611d74611d6f611d7b92611d50565b611d5c565b8254611d3a565b9055565b611d899051610252565b90565b611d969051610990565b90565b60101b90565b90611dad62ff000091611d99565b9181191691161790565b611dc090610990565b90565b90565b90611ddb611dd6611de292611db7565b611dc3565b8254611d9f565b9055565b60181b90565b90611e016301000000600160b81b0391611de6565b9181191691161790565b90611e20611e1b611e2792610455565b61142e565b8254611dec565b9055565b90611f876101a0600a611f8d94611e5160008201611e4b60008801611c75565b90611431565b611e6a60018201611e6460208801611c75565b90611431565b611e8360028201611e7d60408801611c82565b90611cc5565b611e9c60038201611e9660608801611c75565b90611431565b611eb560048201611eaf60808801611ce5565b90611d0d565b611ece60058201611ec860a08801611ce5565b90611d0d565b611ee760068201611ee160c08801611ce5565b90611d0d565b611f0060078201611efa60e08801611c82565b90611cc5565b611f1a60088201611f146101008801611c82565b90611cc5565b611f3460098201611f2e6101208801611c82565b90611cc5565b611f4d828201611f476101408801611d2d565b90611d5f565b611f66828201611f606101608801611d7f565b906115a8565b611f7f828201611f796101808801611d8c565b90611dc6565b019201611c75565b90611e0b565b565b90611f9991611e2b565b565b90611fa590610455565b600052602052604060002090565b90611fc8611fc3611fcf92611db7565b611dc3565b8254611d3a565b9055565b611fdc9061095b565b9052565b916020612002929493611ffb604082019660008301906104c4565b0190611fd3565b565b9592988a909895919794929887600061201c9061120d565b612025906102ba565b9061202f906102ba565b141561203a90611b3b565b600488612046916112a6565b600001612052906112d8565b600061205d9061120d565b612066906102ba565b90612070906102ba565b1461207a90611bbf565b88968a9642968d96959091929394956000976000998d9b612099611bfd565b809e60008201906120a991611c0b565b602001906120b691611c0b565b60408d01906120c491611c19565b60608c01906120d291611c0b565b60808b01906120e091611c27565b60a08a01906120ee91611c27565b60c08901906120fc91611c27565b60e088019061210a91611c19565b61010087019061211991611c19565b61012086019061212891611c19565b61014085019061213791611c35565b61016084019061214691611c43565b61018083019061215591611c51565b6101a082019061216491611c0b565b600482612170916112a6565b9061217a91611f8f565b60058261218691611693565b61218f90611900565b81612199916119a1565b60036121a490611900565b816121ae916119a1565b60006008826121bc91611f9b565b906121c691611fb3565b9091927f8f723e49dc038e67c41b41307a1e0c65653d50125a0c474a21ac32d9a0b24d2b916121f490610455565b926121fe90610455565b9361220890610455565b946122116101f3565b91829161221e9183611fe0565b0390a4565b606090565b67ffffffffffffffff81116122405760208091020190565b611745565b9061225761225283612228565b611be8565b918252565b6122676101c0611be8565b90565b600090565b600090565b600090565b600090565b600090565b600090565b602090818080808080808080808080806122a061225c565b9e8f6122aa61226a565b8152016122b561226a565b8152016122c061226f565b8152016122cb61226a565b8152016122d6612274565b8152016122e1612274565b8152016122ec612274565b8152016122f761226f565b81520161230261226f565b81520161230d61226f565b815201612318612279565b81520161232361227e565b81520161232e612283565b81520161233961226a565b81525050565b612347612288565b90565b60005b82811061235957505050565b60209061236461233f565b818401520161234d565b9061239361237b83612245565b926020806123898693612228565b920191039061234a565b565b6123a96123a46123ae92610d4f565b6103a7565b6107bd565b90565b60016123bd91016107bd565b90565b906123ca826105ed565b8110156123db576020809102010190565b61190e565b906123ea826108f1565b8110156123fb576020809102010190565b61190e565b90565b61240f612414916112be565b612400565b90565b6124219054612403565b90565b60018060a01b031690565b61243b612440916112be565b612424565b90565b61244d905461242f565b90565b60ff1690565b612462612467916112be565b612450565b90565b6124749054612456565b90565b60081c90565b60ff1690565b61248f61249491612477565b61247d565b90565b6124a19054612483565b90565b60101c90565b60ff1690565b6124bc6124c1916124a4565b6124aa565b90565b6124ce90546124b0565b90565b60181c90565b6124e36124e8916124d1565b610479565b90565b6124f590546124d7565b90565b9061265461264a600a61250961225c565b94612522612519600083016112d8565b60008801611c0b565b61253a612531600183016112d8565b60208801611c0b565b61255261254960028301612417565b60408801611c19565b61256a612561600383016112d8565b60608801611c0b565b61258261257960048301612443565b60808801611c27565b61259a61259160058301612443565b60a08801611c27565b6125b26125a960068301612443565b60c08801611c27565b6125ca6125c160078301612417565b60e08801611c19565b6125e36125d960088301612417565b6101008801611c19565b6125fc6125f260098301612417565b6101208801611c19565b61261461260a83830161246a565b6101408801611c35565b61262c612622838301612497565b6101608801611c43565b61264461263a8383016124c4565b6101808801611c51565b016124eb565b6101a08401611c0b565b565b61265f906124f8565b90565b61267961267e91612671612223565b506005611693565b6117a6565b61268f61268a826105ed565b61236e565b9061269a6000612395565b5b806126b66126b06126ab856105ed565b6107bd565b916107bd565b101561270857612703906126fc6126e160046126db6126d68786906123c0565b611c75565b906112a6565b856126ec8492612656565b6126f683836123e0565b526123e0565b51506123b1565b61269b565b505090565b60007f43616c6c6572206973206e6f7420616e2061646d696e00000000000000000000910152565b6127426016602092611219565b61274b8161270d565b0190565b6127659060208101906000818303910152612735565b90565b1561276f57565b6127776101f3565b62461bcd60e51b81528061278d6004820161274f565b0390fd5b6127ce906127af6127aa6127a3610d74565b3390612b1d565b612768565b6127c16127ba610b75565b82906117fb565b6127c9610d74565b6117fb565b565b600090565b60207f756c740000000000000000000000000000000000000000000000000000000000917f506f6f6c206e6f742072656769737465726564206f7220686173206e6f20766160008201520152565b6128306023604092611219565b612839816127d5565b0190565b6128539060208101906000818303910152612823565b90565b1561285d57565b6128656101f3565b62461bcd60e51b81528061287b6004820161283d565b0390fd5b6128cf6128d49161288e6127d0565b506128c86128a66128a160068490610461565b6112d8565b6128c16128bb6128b6600061120d565b6102ba565b916102ba565b1415612856565b6006610461565b6112d8565b90565b919060086128f39102916128ed60001984611951565b92611951565b9181191691161790565b919061291361290e61291b93611ca6565b611cc2565b9083546128d7565b9055565b600090565b6129369161293061291f565b916128fd565b565b600a60009182808201558260018201556129558360028301612924565b82600382015582600482015582600582015582600682015561297a8360078301612924565b6129878360088301612924565b6129948360098301612924565b0155565b906000036129ab576129a990612938565b565b611c5f565b919060086129cb9102916129c560ff84611951565b92611951565b9181191691161790565b91906129eb6129e66129f393611db7565b611dc3565b9083546129b0565b9055565b600090565b612a0e91612a086129f7565b916129d5565b565b612a4c612a2a6000612a24600485906112a6565b016112d8565b612a45612a3f612a3a600061120d565b6102ba565b916102ba565b1415611340565b612a6d612a666000612a60600485906112a6565b016112d8565b8290613487565b612a7681613523565b612a8c6000612a87600484906112a6565b612998565b612aa26000612a9d60088490611f9b565b6129fc565b612acc7f334d0b2111287dfddebe4b4c1c5af3ae644909d7fcd024377bf601e236ed5abb91610455565b90612ad56101f3565b80612adf81610318565b0390a2565b90612aee90610455565b600052602052604060002090565b612b08612b0d916112be565b61247d565b90565b612b1a9054612afc565b90565b612b44916000612b39612b3f93612b326111ac565b5082611630565b01612ae4565b612b10565b90565b612b53612b58916112be565b610c74565b90565b612b659054612b47565b90565b612b74612b79916112be565b610366565b90565b612b869054612b68565b90565b612b916127d0565b50612b9a6127d0565b50612bad612ba86001612b5b565b610cb5565b90612bc0612bbb6002612b7c565b6103d2565b90565b612bcf612bd4916112be565b6124aa565b90565b612be19054612bc3565b90565b916020612c06929493612bff60408201966000830190610f04565b0190610f04565b565b612c44612c226000612c1c600485906112a6565b016112d8565b612c3d612c37612c32600061120d565b6102ba565b916102ba565b1415611340565b612c58612c5360088390611f9b565b612bd7565b90612c6e83612c6960088490611f9b565b611fb3565b9091612c9a7f0a61679a80e33b8ccd7049ed35b83f875349aa2875ef98ce5ba441a88761fb4e92610455565b92612caf612ca66101f3565b92839283612be4565b0390a2565b90612cce91612cc9612cc4610d74565b613143565b612eb2565b565b60207f6573730000000000000000000000000000000000000000000000000000000000917f5661756c744d616e616765722063616e6e6f74206265207a65726f206164647260008201520152565b612d2b6023604092611219565b612d3481612cd0565b0190565b612d4e9060208101906000818303910152612d1e565b90565b15612d5857565b612d606101f3565b62461bcd60e51b815280612d7660048201612d38565b0390fd5b60207f7265737300000000000000000000000000000000000000000000000000000000917f5265776172644d616e616765722063616e6e6f74206265207a65726f2061646460008201520152565b612dd56024604092611219565b612dde81612d7a565b0190565b612df89060208101906000818303910152612dc8565b90565b15612e0257565b612e0a6101f3565b62461bcd60e51b815280612e2060048201612de2565b0390fd5b612e2d906103aa565b90565b612e3990612e24565b90565b612e4590612e24565b90565b90565b90612e60612e5b612e6792612e3c565b612e48565b8254611413565b9055565b612e74906103aa565b90565b612e8090612e6b565b90565b612e8c90612e6b565b90565b90565b90612ea7612ea2612eae92612e83565b612e8f565b8254611413565b9055565b612ed881612ed1612ecb612ec6600061120d565b6102ba565b916102ba565b1415612d51565b612efe82612ef7612ef1612eec600061120d565b6102ba565b916102ba565b1415612dfb565b612f11612f0a82612e30565b6001612e4b565b612f24612f1d83612e77565b6002612e92565b907f8fc18cc172f74c81235145b7927190d2bd0e351fc45bfb17bb572593273cef2191612f5b612f526101f3565b92839283610dc1565b0390a1565b90612f6a91612cb4565b565b612f7461168e565b50612f7f60036117a6565b90565b612f99612f9e91612f916129f7565b506008611f9b565b612bd7565b90565b612fa9612288565b90565b612fff61300491612fbb612fa1565b50612ff8612fd66000612fd0600485906112a6565b016112d8565b612ff1612feb612fe6600061120d565b6102ba565b916102ba565b1415611340565b60046112a6565b612656565b90565b61300f61291f565b5061301a60036116ab565b90565b906130389161303361302e8261166c565b613143565b61303a565b565b9061304491613232565b50565b906130519161301d565b565b61306a61306f9161306261168e565b506007611693565b6117a6565b90565b61308961308e91613081612223565b506007611693565b6117a6565b61309f61309a826105ed565b61236e565b906130aa6000612395565b5b806130c66130c06130bb856105ed565b6107bd565b916107bd565b1015613118576131139061310c6130f160046130eb6130e68786906123c0565b611c75565b906112a6565b856130fc8492612656565b61310683836123e0565b526123e0565b51506123b1565b6130ab565b505090565b6131256111ac565b5061313f6131396301ffc9a760e01b610203565b91610203565b1490565b6131559061314f613225565b906135b2565b565b9061316c61316761317392611599565b6115a5565b8254611d3a565b9055565b61317f6111ac565b5061319461318e828490612b1d565b15610252565b60001461321e576131bd60016131b860006131b0818690611630565b018590612ae4565b613157565b906131c6613225565b906132036131fd6131f77f2f8788117e7eff1d82e926ec794901d17c78024a50270940304540a733656f0d95611624565b92610455565b92610455565b9261320c6101f3565b8061321681610318565b0390a4600190565b5050600090565b61322d6127d0565b503390565b61323a6111ac565b50613246818390612b1d565b6000146132d05761326f600061326a6000613262818690611630565b018590612ae4565b613157565b90613278613225565b906132b56132af6132a97ff6391f5c32d9c69d2a47ea670b442974b53935d1edc7fd64eb21e047a839171b95611624565b92610455565b92610455565b926132be6101f3565b806132c881610318565b0390a4600190565b5050600090565b90565b6132ee6132e96132f3926132d7565b6103a7565b6107bd565b90565b634e487b7160e01b600052601160045260246000fd5b61331b613321919392936107bd565b926107bd565b820391821161332c57565b6132f6565b61333a816116ab565b8210156133555761334c6001916116b8565b91020190600090565b61190e565b634e487b7160e01b600052603160045260246000fd5b6133829161337c6127d0565b9161197f565b565b61338d81611924565b80156133ae5760019003906133ab6133a58383611928565b90613370565b55565b61335a565b906133d1906133cc6133c760078590611693565b611900565b6135f4565b90816133f86133f26133ed6133e860078690611693565b6116ab565b6107bd565b916107bd565b10613402575b5050565b61347661347b9161346f6134809461346961345761345161344061343061342b60078990611693565b6116ab565b61343a60016132da565b9061330c565b61344c60078890611693565b613331565b9061049c565b9161346460078690611693565b613331565b9061197f565b6007611693565b611900565b613384565b38806133fe565b61351761351c916135106134b1613521956134ac6134a760058690611693565b611900565b6135f4565b61350a6134f86134f26134e16134d16134cc60058990611693565b6116ab565b6134db60016132da565b9061330c565b6134ed60058890611693565b613331565b9061049c565b9161350560058690611693565b613331565b9061197f565b6005611693565b611900565b613384565b565b61353961357a916135346003611900565b6135f4565b61357461356c61356661355f61354f60036116ab565b61355960016132da565b9061330c565b6003613331565b9061049c565b916003613331565b9061197f565b61358c6135876003611900565b613384565b565b9160206135b09294936135a9604082019660008301906104c4565b0190610595565b565b906135c76135c1838390612b1d565b15610252565b6135cf575050565b6135f06135da6101f3565b92839263e2517d3f60e01b84526004840161358e565b0390fd5b906135fd61291f565b506136086000612395565b5b8061362461361e61361986611924565b6107bd565b916107bd565b10156136695761363e613638848390611928565b9061049c565b61365061364a846102ba565b916102ba565b146136635761365e906123b1565b613609565b91505090565b5050506000199056fea26469706673582212201a2fcae7e7bf8efa9a85019276297ea60eff798c1d80bd35dbc13da5e8896c2964736f6c63430008180033",
  "linkReferences": {},
  "deployedLinkReferences": {}
}