{
	"contracts/contracts/protocol/PoolOrganizer.sol": {
		"PoolOrganizer": {
			"abi": [
				{
					"inputs": [],
					"stateMutability": "nonpayable",
					"type": "constructor"
				},
				{
					"inputs": [],
					"name": "AccessControlBadConfirmation",
					"type": "error"
				},
				{
					"inputs": [
						{
							"internalType": "address",
							"name": "account",
							"type": "address"
						},
						{
							"internalType": "bytes32",
							"name": "neededRole",
							"type": "bytes32"
						}
					],
					"name": "AccessControlUnauthorizedAccount",
					"type": "error"
				},
				{
					"anonymous": false,
					"inputs": [
						{
							"indexed": false,
							"internalType": "address",
							"name": "vaultManager",
							"type": "address"
						},
						{
							"indexed": false,
							"internalType": "address",
							"name": "rewardManager",
							"type": "address"
						}
					],
					"name": "ManagerRegistered",
					"type": "event"
				},
				{
					"anonymous": false,
					"inputs": [
						{
							"indexed": true,
							"internalType": "address",
							"name": "pool",
							"type": "address"
						}
					],
					"name": "PoolDeregistered",
					"type": "event"
				},
				{
					"anonymous": false,
					"inputs": [
						{
							"indexed": true,
							"internalType": "address",
							"name": "pool",
							"type": "address"
						},
						{
							"indexed": true,
							"internalType": "address",
							"name": "lender",
							"type": "address"
						},
						{
							"indexed": true,
							"internalType": "address",
							"name": "borrower",
							"type": "address"
						},
						{
							"indexed": false,
							"internalType": "address",
							"name": "vault",
							"type": "address"
						},
						{
							"indexed": false,
							"internalType": "enum IPoolOrganizer.PoolType",
							"name": "poolType",
							"type": "uint8"
						}
					],
					"name": "PoolRegistered",
					"type": "event"
				},
				{
					"anonymous": false,
					"inputs": [
						{
							"indexed": true,
							"internalType": "bytes32",
							"name": "role",
							"type": "bytes32"
						},
						{
							"indexed": true,
							"internalType": "bytes32",
							"name": "previousAdminRole",
							"type": "bytes32"
						},
						{
							"indexed": true,
							"internalType": "bytes32",
							"name": "newAdminRole",
							"type": "bytes32"
						}
					],
					"name": "RoleAdminChanged",
					"type": "event"
				},
				{
					"anonymous": false,
					"inputs": [
						{
							"indexed": true,
							"internalType": "bytes32",
							"name": "role",
							"type": "bytes32"
						},
						{
							"indexed": true,
							"internalType": "address",
							"name": "account",
							"type": "address"
						},
						{
							"indexed": true,
							"internalType": "address",
							"name": "sender",
							"type": "address"
						}
					],
					"name": "RoleGranted",
					"type": "event"
				},
				{
					"anonymous": false,
					"inputs": [
						{
							"indexed": true,
							"internalType": "bytes32",
							"name": "role",
							"type": "bytes32"
						},
						{
							"indexed": true,
							"internalType": "address",
							"name": "account",
							"type": "address"
						},
						{
							"indexed": true,
							"internalType": "address",
							"name": "sender",
							"type": "address"
						}
					],
					"name": "RoleRevoked",
					"type": "event"
				},
				{
					"anonymous": false,
					"inputs": [
						{
							"indexed": true,
							"internalType": "address",
							"name": "pool",
							"type": "address"
						},
						{
							"indexed": true,
							"internalType": "address",
							"name": "vault",
							"type": "address"
						}
					],
					"name": "VaultRegistered",
					"type": "event"
				},
				{
					"inputs": [],
					"name": "DEFAULT_ADMIN_ROLE",
					"outputs": [
						{
							"internalType": "bytes32",
							"name": "",
							"type": "bytes32"
						}
					],
					"stateMutability": "view",
					"type": "function"
				},
				{
					"inputs": [],
					"name": "POOL_MANAGER_ROLE",
					"outputs": [
						{
							"internalType": "bytes32",
							"name": "",
							"type": "bytes32"
						}
					],
					"stateMutability": "view",
					"type": "function"
				},
				{
					"inputs": [
						{
							"internalType": "address",
							"name": "pool",
							"type": "address"
						}
					],
					"name": "deregisterPool",
					"outputs": [],
					"stateMutability": "nonpayable",
					"type": "function"
				},
				{
					"inputs": [],
					"name": "getManagers",
					"outputs": [
						{
							"internalType": "address",
							"name": "",
							"type": "address"
						},
						{
							"internalType": "address",
							"name": "",
							"type": "address"
						}
					],
					"stateMutability": "view",
					"type": "function"
				},
				{
					"inputs": [
						{
							"internalType": "address",
							"name": "pool",
							"type": "address"
						}
					],
					"name": "getPoolDetails",
					"outputs": [
						{
							"components": [
								{
									"internalType": "address",
									"name": "lender",
									"type": "address"
								},
								{
									"internalType": "address",
									"name": "borrower",
									"type": "address"
								},
								{
									"internalType": "uint256",
									"name": "creationTime",
									"type": "uint256"
								},
								{
									"internalType": "address",
									"name": "vault",
									"type": "address"
								},
								{
									"internalType": "contract IERC20",
									"name": "loanToken",
									"type": "address"
								},
								{
									"internalType": "contract IERC20",
									"name": "assetToken",
									"type": "address"
								},
								{
									"internalType": "contract IERC20",
									"name": "repaymentToken",
									"type": "address"
								},
								{
									"internalType": "uint256",
									"name": "loanAmount",
									"type": "uint256"
								},
								{
									"internalType": "uint256",
									"name": "interestRate",
									"type": "uint256"
								},
								{
									"internalType": "uint256",
									"name": "repaymentPeriod",
									"type": "uint256"
								},
								{
									"internalType": "enum IPoolOrganizer.PoolType",
									"name": "poolType",
									"type": "uint8"
								}
							],
							"internalType": "struct IPoolOrganizer.PoolDetails",
							"name": "",
							"type": "tuple"
						}
					],
					"stateMutability": "view",
					"type": "function"
				},
				{
					"inputs": [
						{
							"internalType": "address",
							"name": "lender",
							"type": "address"
						}
					],
					"name": "getPoolsByLender",
					"outputs": [
						{
							"internalType": "address[]",
							"name": "",
							"type": "address[]"
						}
					],
					"stateMutability": "view",
					"type": "function"
				},
				{
					"inputs": [
						{
							"internalType": "bytes32",
							"name": "role",
							"type": "bytes32"
						}
					],
					"name": "getRoleAdmin",
					"outputs": [
						{
							"internalType": "bytes32",
							"name": "",
							"type": "bytes32"
						}
					],
					"stateMutability": "view",
					"type": "function"
				},
				{
					"inputs": [],
					"name": "getTotalPools",
					"outputs": [
						{
							"internalType": "uint256",
							"name": "",
							"type": "uint256"
						}
					],
					"stateMutability": "view",
					"type": "function"
				},
				{
					"inputs": [
						{
							"internalType": "address",
							"name": "pool",
							"type": "address"
						}
					],
					"name": "getVaultForPool",
					"outputs": [
						{
							"internalType": "address",
							"name": "",
							"type": "address"
						}
					],
					"stateMutability": "view",
					"type": "function"
				},
				{
					"inputs": [
						{
							"internalType": "address",
							"name": "factoryAddress",
							"type": "address"
						}
					],
					"name": "grantFactoryAccess",
					"outputs": [],
					"stateMutability": "nonpayable",
					"type": "function"
				},
				{
					"inputs": [
						{
							"internalType": "bytes32",
							"name": "role",
							"type": "bytes32"
						},
						{
							"internalType": "address",
							"name": "account",
							"type": "address"
						}
					],
					"name": "grantRole",
					"outputs": [],
					"stateMutability": "nonpayable",
					"type": "function"
				},
				{
					"inputs": [
						{
							"internalType": "bytes32",
							"name": "role",
							"type": "bytes32"
						},
						{
							"internalType": "address",
							"name": "account",
							"type": "address"
						}
					],
					"name": "hasRole",
					"outputs": [
						{
							"internalType": "bool",
							"name": "",
							"type": "bool"
						}
					],
					"stateMutability": "view",
					"type": "function"
				},
				{
					"inputs": [
						{
							"internalType": "address",
							"name": "",
							"type": "address"
						}
					],
					"name": "poolVaults",
					"outputs": [
						{
							"internalType": "address",
							"name": "",
							"type": "address"
						}
					],
					"stateMutability": "view",
					"type": "function"
				},
				{
					"inputs": [
						{
							"internalType": "address",
							"name": "_vaultManager",
							"type": "address"
						},
						{
							"internalType": "address",
							"name": "_rewardManager",
							"type": "address"
						}
					],
					"name": "registerManagers",
					"outputs": [],
					"stateMutability": "nonpayable",
					"type": "function"
				},
				{
					"inputs": [
						{
							"internalType": "address",
							"name": "pool",
							"type": "address"
						},
						{
							"internalType": "address",
							"name": "lender",
							"type": "address"
						},
						{
							"internalType": "address",
							"name": "borrower",
							"type": "address"
						},
						{
							"internalType": "address",
							"name": "vault",
							"type": "address"
						},
						{
							"internalType": "contract IERC20",
							"name": "loanToken",
							"type": "address"
						},
						{
							"internalType": "contract IERC20",
							"name": "assetToken",
							"type": "address"
						},
						{
							"internalType": "contract IERC20",
							"name": "repaymentToken",
							"type": "address"
						},
						{
							"internalType": "uint256",
							"name": "loanAmount",
							"type": "uint256"
						},
						{
							"internalType": "uint256",
							"name": "interestRate",
							"type": "uint256"
						},
						{
							"internalType": "uint256",
							"name": "repaymentPeriod",
							"type": "uint256"
						},
						{
							"internalType": "enum IPoolOrganizer.PoolType",
							"name": "poolType",
							"type": "uint8"
						}
					],
					"name": "registerPool",
					"outputs": [],
					"stateMutability": "nonpayable",
					"type": "function"
				},
				{
					"inputs": [
						{
							"internalType": "address",
							"name": "pool",
							"type": "address"
						},
						{
							"internalType": "address",
							"name": "vault",
							"type": "address"
						}
					],
					"name": "registerVault",
					"outputs": [],
					"stateMutability": "nonpayable",
					"type": "function"
				},
				{
					"inputs": [
						{
							"internalType": "bytes32",
							"name": "role",
							"type": "bytes32"
						},
						{
							"internalType": "address",
							"name": "callerConfirmation",
							"type": "address"
						}
					],
					"name": "renounceRole",
					"outputs": [],
					"stateMutability": "nonpayable",
					"type": "function"
				},
				{
					"inputs": [
						{
							"internalType": "bytes32",
							"name": "role",
							"type": "bytes32"
						},
						{
							"internalType": "address",
							"name": "account",
							"type": "address"
						}
					],
					"name": "revokeRole",
					"outputs": [],
					"stateMutability": "nonpayable",
					"type": "function"
				},
				{
					"inputs": [],
					"name": "rewardManager",
					"outputs": [
						{
							"internalType": "contract IRewardManager",
							"name": "",
							"type": "address"
						}
					],
					"stateMutability": "view",
					"type": "function"
				},
				{
					"inputs": [
						{
							"internalType": "bytes4",
							"name": "interfaceId",
							"type": "bytes4"
						}
					],
					"name": "supportsInterface",
					"outputs": [
						{
							"internalType": "bool",
							"name": "",
							"type": "bool"
						}
					],
					"stateMutability": "view",
					"type": "function"
				},
				{
					"inputs": [],
					"name": "vaultManager",
					"outputs": [
						{
							"internalType": "contract IVaultManager",
							"name": "",
							"type": "address"
						}
					],
					"stateMutability": "view",
					"type": "function"
				}
			],
			"devdoc": {
				"details": "Implements access control and management for pool lifecycle and integration with external managers.",
				"errors": {
					"AccessControlBadConfirmation()": [
						{
							"details": "The caller of a function is not the expected one. NOTE: Don't confuse with {AccessControlUnauthorizedAccount}."
						}
					],
					"AccessControlUnauthorizedAccount(address,bytes32)": [
						{
							"details": "The `account` is missing a role."
						}
					]
				},
				"events": {
					"ManagerRegistered(address,address)": {
						"details": "Emitted when managers are registered."
					},
					"PoolDeregistered(address)": {
						"details": "Emitted when a pool is deregistered."
					},
					"PoolRegistered(address,address,address,address,uint8)": {
						"details": "Emitted when a pool is registered."
					},
					"RoleAdminChanged(bytes32,bytes32,bytes32)": {
						"details": "Emitted when `newAdminRole` is set as ``role``'s admin role, replacing `previousAdminRole` `DEFAULT_ADMIN_ROLE` is the starting admin for all roles, despite {RoleAdminChanged} not being emitted signaling this."
					},
					"RoleGranted(bytes32,address,address)": {
						"details": "Emitted when `account` is granted `role`. `sender` is the account that originated the contract call, an admin role bearer except when using {AccessControl-_setupRole}."
					},
					"RoleRevoked(bytes32,address,address)": {
						"details": "Emitted when `account` is revoked `role`. `sender` is the account that originated the contract call:   - if using `revokeRole`, it is the admin role bearer   - if using `renounceRole`, it is the role bearer (i.e. `account`)"
					}
				},
				"kind": "dev",
				"methods": {
					"deregisterPool(address)": {
						"params": {
							"pool": "The address of the pool to deregister."
						}
					},
					"getManagers()": {
						"returns": {
							"_0": "A tuple containing the addresses of the VaultManager and RewardManager."
						}
					},
					"getPoolDetails(address)": {
						"params": {
							"pool": "The address of the pool."
						},
						"returns": {
							"_0": "Details of the specified pool."
						}
					},
					"getPoolsByLender(address)": {
						"params": {
							"lender": "The address of the lender."
						},
						"returns": {
							"_0": "An array of pool addresses."
						}
					},
					"getRoleAdmin(bytes32)": {
						"details": "Returns the admin role that controls `role`. See {grantRole} and {revokeRole}. To change a role's admin, use {_setRoleAdmin}."
					},
					"getTotalPools()": {
						"returns": {
							"_0": "The total number of pools."
						}
					},
					"getVaultForPool(address)": {
						"params": {
							"pool": "The address of the pool."
						},
						"returns": {
							"_0": "The address of the vault linked to the pool."
						}
					},
					"grantFactoryAccess(address)": {
						"params": {
							"factoryAddress": "The address of the factory to be granted access."
						}
					},
					"grantRole(bytes32,address)": {
						"details": "Grants `role` to `account`. If `account` had not been already granted `role`, emits a {RoleGranted} event. Requirements: - the caller must have ``role``'s admin role. May emit a {RoleGranted} event."
					},
					"hasRole(bytes32,address)": {
						"details": "Returns `true` if `account` has been granted `role`."
					},
					"registerManagers(address,address)": {
						"params": {
							"_rewardManager": "Address of the RewardManager contract.",
							"_vaultManager": "Address of the VaultManager contract."
						}
					},
					"registerPool(address,address,address,address,address,address,address,uint256,uint256,uint256,uint8)": {
						"params": {
							"assetToken": "The address of the asset token used as collateral.",
							"borrower": "The address of the borrower (if known at this point, otherwise zero).",
							"interestRate": "The interest rate of the loan.",
							"lender": "The address of the lender.",
							"loanAmount": "The amount of the loan.",
							"loanToken": "The address of the loan token.",
							"pool": "The address of the new pool.",
							"poolType": "The type of the pool (standard or flash).",
							"repaymentPeriod": "The period over which the loan is to be repaid.",
							"repaymentToken": "address of the repaymentToken",
							"vault": "The address of the vault associated with the pool."
						}
					},
					"registerVault(address,address)": {
						"details": "This function can only be called by authorized roles, typically the PoolFactory.",
						"params": {
							"pool": "The address of the pool for which the vault is being registered.",
							"vault": "The address of the newly created vault."
						}
					},
					"renounceRole(bytes32,address)": {
						"details": "Revokes `role` from the calling account. Roles are often managed via {grantRole} and {revokeRole}: this function's purpose is to provide a mechanism for accounts to lose their privileges if they are compromised (such as when a trusted device is misplaced). If the calling account had been revoked `role`, emits a {RoleRevoked} event. Requirements: - the caller must be `callerConfirmation`. May emit a {RoleRevoked} event."
					},
					"revokeRole(bytes32,address)": {
						"details": "Revokes `role` from `account`. If `account` had been granted `role`, emits a {RoleRevoked} event. Requirements: - the caller must have ``role``'s admin role. May emit a {RoleRevoked} event."
					},
					"supportsInterface(bytes4)": {
						"details": "See {IERC165-supportsInterface}."
					}
				},
				"title": "Pool Organizer for managing pools, vaults, and rewards.",
				"version": 1
			},
			"evm": {
				"assembly": "    /* \"contracts/contracts/protocol/PoolOrganizer.sol\":422:8364  contract PoolOrganizer is AccessControl, IPoolOrganizer {... */\n  mstore(0x40, 0x80)\n  jumpi(tag_3, callvalue)\n    /* \"contracts/contracts/protocol/PoolOrganizer.sol\":1388:1430  _grantRole(DEFAULT_ADMIN_ROLE, msg.sender) */\n  tag_5\n    /* \"contracts/contracts/protocol/PoolOrganizer.sol\":1419:1429  msg.sender */\n  caller\n    /* \"contracts/contracts/protocol/PoolOrganizer.sol\":1388:1430  _grantRole(DEFAULT_ADMIN_ROLE, msg.sender) */\n  tag_1\n  jump\t// in\ntag_5:\n  pop\n    /* \"contracts/contracts/protocol/PoolOrganizer.sol\":1440:1481  _grantRole(POOL_MANAGER_ROLE, msg.sender) */\n  tag_6\n    /* \"contracts/contracts/protocol/PoolOrganizer.sol\":1419:1429  msg.sender */\n  caller\n    /* \"contracts/contracts/protocol/PoolOrganizer.sol\":1440:1481  _grantRole(POOL_MANAGER_ROLE, msg.sender) */\n  tag_2\n  jump\t// in\ntag_6:\n  pop\n    /* \"contracts/contracts/protocol/PoolOrganizer.sol\":422:8364  contract PoolOrganizer is AccessControl, IPoolOrganizer {... */\n  mload(0x40)\n  dataSize(sub_0)\n  swap1\n  dup2\n  dataOffset(sub_0)\n  dup3\n  codecopy\n  return\ntag_3:\n  0x00\n  dup1\n  revert\n    /* \"@openzeppelin/contracts/access/AccessControl.sol\":6179:6495  function _grantRole(bytes32 role, address account) internal virtual returns (bool) {... */\ntag_1:\n  sub(shl(0xa0, 0x01), 0x01)\n    /* \"contracts/contracts/protocol/PoolOrganizer.sol\":422:8364  contract PoolOrganizer is AccessControl, IPoolOrganizer {... */\n  and\n    /* \"@openzeppelin/contracts/access/AccessControl.sol\":2232:2236  0x00 */\n  0x00\n    /* \"contracts/contracts/protocol/PoolOrganizer.sol\":422:8364  contract PoolOrganizer is AccessControl, IPoolOrganizer {... */\n  dup2\n  dup2\n  mstore\n  mstore(0x20, 0xad3228b676f7d3cd4284a5443f17f1962b36e491b30a40b2405849e597ba5fb5)\n  0x40\n  dup2\n  keccak256\n  sload\n    /* \"@openzeppelin/contracts/access/AccessControl.sol\":2232:2236  0x00 */\n  swap1\n  swap2\n    /* \"contracts/contracts/protocol/PoolOrganizer.sol\":422:8364  contract PoolOrganizer is AccessControl, IPoolOrganizer {... */\n  swap1\n  0xff\n  and\n  tag_7\n  jumpi\n  dup2\n  dup1\n  mstore\n  dup2\n  0x20\n  mstore\n  0x40\n  dup3\n  keccak256\n  dup2\n  dup4\n  mstore\n  0x20\n  mstore\n  0x40\n  dup3\n  keccak256\n  0x01\n  not(0xff)\n  dup3\n  sload\n  and\n  or\n  swap1\n  sstore\n    /* \"@openzeppelin/contracts/utils/Context.sol\":735:745  msg.sender */\n  caller\n    /* \"@openzeppelin/contracts/access/AccessControl.sol\":6370:6410  RoleGranted(role, account, _msgSender()) */\n  swap2\n  0x00\n  dup1\n  mload\n  0x20\n  data_01400fe2f234cf888b5e4c66700c7903f33f31bfc9675e51cb0119f915eb534d\n  dup4\n  codecopy\n  dup2\n  mload\n  swap2\n  mstore\n  dup2\n  dup1\n  log4\n    /* \"contracts/contracts/protocol/PoolOrganizer.sol\":422:8364  contract PoolOrganizer is AccessControl, IPoolOrganizer {... */\n  0x01\n    /* \"@openzeppelin/contracts/access/AccessControl.sol\":6424:6435  return true */\n  swap1\n  jump\t// out\n    /* \"@openzeppelin/contracts/access/AccessControl.sol\":6272:6489  if (!hasRole(role, account)) {... */\ntag_7:\n    /* \"@openzeppelin/contracts/access/AccessControl.sol\":6466:6478  return false */\n  pop\n  swap1\n  jump\t// out\n    /* \"@openzeppelin/contracts/access/AccessControl.sol\":6179:6495  function _grantRole(bytes32 role, address account) internal virtual returns (bool) {... */\ntag_2:\n  sub(shl(0xa0, 0x01), 0x01)\n    /* \"contracts/contracts/protocol/PoolOrganizer.sol\":422:8364  contract PoolOrganizer is AccessControl, IPoolOrganizer {... */\n  and\n    /* \"@openzeppelin/contracts/access/AccessControl.sol\":2954:2960  _roles */\n  0x00\n    /* \"contracts/contracts/protocol/PoolOrganizer.sol\":422:8364  contract PoolOrganizer is AccessControl, IPoolOrganizer {... */\n  dup2\n  dup2\n  mstore\n  mstore(0x20, 0x729ef9451dd492832bd2a98139702ced95dfa0cec7e99526dbbcb957abcbc476)\n  0x40\n  dup2\n  keccak256\n  sload\n    /* \"@openzeppelin/contracts/access/AccessControl.sol\":2954:2960  _roles */\n  swap1\n  swap2\n    /* \"contracts/contracts/protocol/PoolOrganizer.sol\":422:8364  contract PoolOrganizer is AccessControl, IPoolOrganizer {... */\n  swap1\n    /* \"contracts/contracts/protocol/PoolOrganizer.sol\":528:558  keccak256(\"POOL_MANAGER_ROLE\") */\n  0x6077685936c8169d09204a1d97db12e41713588c38e1d29a61867d3dcee98aff\n  swap1\n    /* \"contracts/contracts/protocol/PoolOrganizer.sol\":422:8364  contract PoolOrganizer is AccessControl, IPoolOrganizer {... */\n  0xff\n  and\n  tag_9\n  jumpi\n  dup1\n  dup4\n  mstore\n  dup3\n  0x20\n  mstore\n  0x40\n  dup4\n  keccak256\n  dup3\n  dup5\n  mstore\n  0x20\n  mstore\n  0x40\n  dup4\n  keccak256\n  0x01\n  not(0xff)\n  dup3\n  sload\n  and\n  or\n  swap1\n  sstore\n  0x00\n  dup1\n  mload\n  0x20\n  data_01400fe2f234cf888b5e4c66700c7903f33f31bfc9675e51cb0119f915eb534d\n  dup4\n  codecopy\n  dup2\n  mload\n  swap2\n  mstore\n    /* \"@openzeppelin/contracts/utils/Context.sol\":735:745  msg.sender */\n  caller\n    /* \"@openzeppelin/contracts/access/AccessControl.sol\":6370:6410  RoleGranted(role, account, _msgSender()) */\n  swap4\n  dup1\n  log4\n    /* \"contracts/contracts/protocol/PoolOrganizer.sol\":422:8364  contract PoolOrganizer is AccessControl, IPoolOrganizer {... */\n  0x01\n    /* \"@openzeppelin/contracts/access/AccessControl.sol\":6424:6435  return true */\n  swap1\n  jump\t// out\n    /* \"@openzeppelin/contracts/access/AccessControl.sol\":6272:6489  if (!hasRole(role, account)) {... */\ntag_9:\n    /* \"@openzeppelin/contracts/access/AccessControl.sol\":6466:6478  return false */\n  pop\n  pop\n  swap1\n  jump\t// out\nstop\ndata_01400fe2f234cf888b5e4c66700c7903f33f31bfc9675e51cb0119f915eb534d 2f8788117e7eff1d82e926ec794901d17c78024a50270940304540a733656f0d\n\nsub_0: assembly {\n        /* \"contracts/contracts/protocol/PoolOrganizer.sol\":422:8364  contract PoolOrganizer is AccessControl, IPoolOrganizer {... */\n      0x80\n      dup1\n      0x40\n      mstore\n      jumpi(tag_19, iszero(lt(calldatasize, 0x04)))\n      0x00\n      dup1\n      revert\n    tag_19:\n      shr(0xe0, calldataload(0x00))\n      swap1\n      dup2\n      0x01ffc9a7\n      eq\n      tag_21\n      jumpi\n      pop\n      dup1\n      0x05c4fdf9\n      eq\n      tag_23\n      jumpi\n      dup1\n      0x0f4ef8a6\n      eq\n      tag_25\n      jumpi\n      dup1\n      0x1e4966ab\n      eq\n      tag_27\n      jumpi\n      dup1\n      0x248a9ca3\n      eq\n      tag_29\n      jumpi\n      dup1\n      0x24a44efb\n      eq\n      tag_31\n      jumpi\n      dup1\n      0x2f2ff15d\n      eq\n      tag_33\n      jumpi\n      dup1\n      0x36568abe\n      eq\n      tag_35\n      jumpi\n      dup1\n      0x43756020\n      eq\n      tag_37\n      jumpi\n      dup1\n      0x56d73568\n      eq\n      tag_39\n      jumpi\n      dup1\n      0x5d102df7\n      eq\n      tag_41\n      jumpi\n      dup1\n      0x7570e389\n      eq\n      tag_43\n      jumpi\n      dup1\n      0x7e72c7d7\n      eq\n      tag_45\n      jumpi\n      dup1\n      0x8a4adf24\n      eq\n      tag_47\n      jumpi\n      dup1\n      0x91d14854\n      eq\n      tag_49\n      jumpi\n      dup1\n      0xa217fddf\n      eq\n      tag_51\n      jumpi\n      dup1\n      0xa8d088bb\n      eq\n      tag_53\n      jumpi\n      dup1\n      0xc489579d\n      eq\n      tag_55\n      jumpi\n      dup1\n      0xd3e90fa0\n      eq\n      tag_57\n      jumpi\n      dup1\n      0xd3ffe67a\n      eq\n      tag_59\n      jumpi\n      0xd547741f\n      eq\n      tag_61\n      jumpi\n      0x00\n      dup1\n      revert\n    tag_61:\n      jumpi(tag_65, callvalue)\n      jumpi(tag_65, slt(add(not(0x03), calldatasize), 0x40))\n        /* \"@openzeppelin/contracts/access/AccessControl.sol\":4747:4773  _revokeRole(role, account) */\n      tag_67\n        /* \"contracts/contracts/protocol/PoolOrganizer.sol\":422:8364  contract PoolOrganizer is AccessControl, IPoolOrganizer {... */\n      calldataload(0x04)\n      tag_68\n      tag_2\n      jump\t// in\n    tag_68:\n      swap1\n      dup1\n      0x00\n      mstore\n      mstore(0x20, 0x00)\n        /* \"@openzeppelin/contracts/access/AccessControl.sol\":2475:2479  role */\n      tag_69\n        /* \"contracts/contracts/protocol/PoolOrganizer.sol\":422:8364  contract PoolOrganizer is AccessControl, IPoolOrganizer {... */\n      0x01\n      keccak256(0x00, 0x40)\n        /* \"@openzeppelin/contracts/access/AccessControl.sol\":3901:3923  _roles[role].adminRole */\n      add\n        /* \"contracts/contracts/protocol/PoolOrganizer.sol\":422:8364  contract PoolOrganizer is AccessControl, IPoolOrganizer {... */\n      sload\n        /* \"@openzeppelin/contracts/access/AccessControl.sol\":2475:2479  role */\n      tag_6\n      jump\t// in\n    tag_69:\n        /* \"@openzeppelin/contracts/access/AccessControl.sol\":4747:4773  _revokeRole(role, account) */\n      tag_9\n      jump\t// in\n    tag_67:\n        /* \"contracts/contracts/protocol/PoolOrganizer.sol\":422:8364  contract PoolOrganizer is AccessControl, IPoolOrganizer {... */\n      stop\n    tag_65:\n      0x00\n      dup1\n      revert\n    tag_59:\n      jumpi(tag_65, callvalue)\n      jumpi(tag_65, slt(add(not(0x03), calldatasize), 0x00))\n      0x20\n      sload(0x03)\n      mload(0x40)\n      swap1\n      dup2\n      mstore\n      return\n    tag_57:\n      jumpi(tag_65, callvalue)\n      jumpi(tag_65, slt(add(not(0x03), calldatasize), 0x20))\n      tag_78\n      tag_1\n      jump\t// in\n    tag_78:\n      0x00\n      0x0140\n      mload(0x40)\n      tag_79\n      dup2\n      tag_10\n      jump\t// in\n    tag_79:\n      dup3\n      dup2\n      mstore\n      dup3\n      0x20\n      dup3\n      add\n      mstore\n      dup3\n      0x40\n      dup3\n      add\n      mstore\n      dup3\n      0x60\n      dup3\n      add\n      mstore\n      dup3\n      0x80\n      dup3\n      add\n      mstore\n      dup3\n      0xa0\n      dup3\n      add\n      mstore\n      dup3\n      0xc0\n      dup3\n      add\n      mstore\n      dup3\n      0xe0\n      dup3\n      add\n      mstore\n      dup3\n      0x0100\n      dup3\n      add\n      mstore\n      dup3\n      0x0120\n      dup3\n      add\n      mstore\n      add\n      mstore\n      0x01\n      dup1\n      0xa0\n      shl\n      sub\n      and\n      dup1\n      0x00\n      mstore\n      mstore(0x20, 0x04)\n        /* \"contracts/contracts/protocol/PoolOrganizer.sol\":5785:5855  require(poolDetails[pool].lender != address(0), \"Pool not registered\") */\n      tag_80\n        /* \"contracts/contracts/protocol/PoolOrganizer.sol\":422:8364  contract PoolOrganizer is AccessControl, IPoolOrganizer {... */\n      0x01\n      dup1\n      0xa0\n      shl\n      sub\n      sload(keccak256(0x00, 0x40))\n      and\n        /* \"contracts/contracts/protocol/PoolOrganizer.sol\":5793:5831  poolDetails[pool].lender != address(0) */\n      iszero\n      iszero\n        /* \"contracts/contracts/protocol/PoolOrganizer.sol\":5785:5855  require(poolDetails[pool].lender != address(0), \"Pool not registered\") */\n      tag_16\n      jump\t// in\n    tag_80:\n        /* \"contracts/contracts/protocol/PoolOrganizer.sol\":422:8364  contract PoolOrganizer is AccessControl, IPoolOrganizer {... */\n      0x00\n      mstore\n      mstore(0x20, 0x04)\n      0x0160\n      keccak256(0x00, 0x40)\n      tag_81\n      0xff\n      0x0a\n      mload(0x40)\n      swap4\n      tag_82\n      dup6\n      tag_10\n      jump\t// in\n    tag_82:\n      dup1\n      sload\n      sub(shl(0xa0, 0x01), 0x01)\n      swap1\n      dup2\n      and\n      dup7\n      mstore\n      0x01\n      dup3\n      add\n      sload\n      dup2\n      and\n      0x20\n      dup8\n      add\n      mstore\n      0x02\n      dup3\n      add\n      sload\n      0x40\n      dup8\n      add\n      mstore\n      0x03\n      dup3\n      add\n      sload\n      dup2\n      and\n      0x60\n      dup8\n      add\n      mstore\n      0x04\n      dup3\n      add\n      sload\n      dup2\n      and\n      0x80\n      dup8\n      add\n      mstore\n      0x05\n      dup3\n      add\n      sload\n      dup2\n      and\n      0xa0\n      dup8\n      add\n      mstore\n      0x06\n      dup3\n      add\n      sload\n      and\n      0xc0\n      dup7\n      add\n      mstore\n      0x07\n      dup2\n      add\n      sload\n      0xe0\n      dup7\n      add\n      mstore\n      0x08\n      dup2\n      add\n      sload\n      0x0100\n      dup7\n      add\n      mstore\n      0x09\n      dup2\n      add\n      sload\n      0x0120\n      dup7\n      add\n      mstore\n      add\n      sload\n      and\n      0x0140\n      dup4\n      add\n      tag_11\n      jump\t// in\n    tag_81:\n      0x40\n      dup1\n      mload\n      dup3\n      mload\n      sub(shl(0xa0, 0x01), 0x01)\n      swap1\n      dup2\n      and\n      dup3\n      mstore\n      0x20\n      dup1\n      dup6\n      add\n      mload\n      dup3\n      and\n      swap1\n      dup4\n      add\n      mstore\n      dup4\n      dup4\n      add\n      mload\n      swap3\n      dup3\n      add\n      swap3\n      swap1\n      swap3\n      mstore\n      0x60\n      dup1\n      dup5\n      add\n      mload\n      dup4\n      and\n      swap1\n      dup3\n      add\n      mstore\n      0x80\n      dup1\n      dup5\n      add\n      mload\n      dup4\n      and\n      swap1\n      dup3\n      add\n      mstore\n      0xa0\n      dup1\n      dup5\n      add\n      mload\n      dup4\n      and\n      swap1\n      dup3\n      add\n      mstore\n      0xc0\n      dup1\n      dup5\n      add\n      mload\n      swap1\n      swap3\n      and\n      swap2\n      dup2\n      add\n      swap2\n      swap1\n      swap2\n      mstore\n      0xe0\n      dup1\n      dup4\n      add\n      mload\n      swap1\n      dup3\n      add\n      mstore\n      0x0100\n      dup1\n      dup4\n      add\n      mload\n      swap1\n      dup3\n      add\n      mstore\n      0x0120\n      dup1\n      dup4\n      add\n      mload\n      swap1\n      dup3\n      add\n      mstore\n      0x0140\n      swap2\n      dup3\n      add\n      mload\n      swap1\n      swap2\n      tag_83\n      swap2\n      swap1\n      dup4\n      add\n      swap1\n      tag_4\n      jump\t// in\n    tag_83:\n      return\n    tag_55:\n      jumpi(tag_65, callvalue)\n      jumpi(tag_65, slt(add(not(0x03), calldatasize), 0x40))\n      tag_88\n      tag_1\n      jump\t// in\n    tag_88:\n      tag_89\n      tag_2\n      jump\t// in\n    tag_89:\n        /* \"@openzeppelin/contracts/utils/Context.sol\":735:745  msg.sender */\n      caller\n        /* \"contracts/contracts/protocol/PoolOrganizer.sol\":422:8364  contract PoolOrganizer is AccessControl, IPoolOrganizer {... */\n      0x00\n      swap1\n      dup2\n      mstore\n      mstore(0x20, 0xad3228b676f7d3cd4284a5443f17f1962b36e491b30a40b2405849e597ba5fb5)\n      0x40\n      swap1\n      keccak256\n      sload\n      0xff\n      and\n        /* \"@openzeppelin/contracts/access/AccessControl.sol\":3519:3542  !hasRole(role, account) */\n      iszero\n        /* \"@openzeppelin/contracts/access/AccessControl.sol\":3515:3623  if (!hasRole(role, account)) {... */\n      tag_90\n      jumpi\n      sub(shl(0xa0, 0x01), 0x01)\n        /* \"contracts/contracts/protocol/PoolOrganizer.sol\":422:8364  contract PoolOrganizer is AccessControl, IPoolOrganizer {... */\n      dup3\n      dup2\n      and\n      swap3\n      swap1\n        /* \"contracts/contracts/protocol/PoolOrganizer.sol\":4287:4314  _vaultManager != address(0) */\n      dup4\n      iszero\n        /* \"contracts/contracts/protocol/PoolOrganizer.sol\":422:8364  contract PoolOrganizer is AccessControl, IPoolOrganizer {... */\n      tag_92\n      jumpi\n      dup3\n      and\n        /* \"contracts/contracts/protocol/PoolOrganizer.sol\":4406:4434  _rewardManager != address(0) */\n      dup1\n      iszero\n        /* \"contracts/contracts/protocol/PoolOrganizer.sol\":422:8364  contract PoolOrganizer is AccessControl, IPoolOrganizer {... */\n      tag_94\n      jumpi\n      0x01\n      dup1\n      sload\n      not(sub(shl(0xa0, 0x01), 0x01))\n      swap1\n      dup2\n      and\n      swap6\n      swap1\n      swap6\n      or\n      swap1\n      sstore\n        /* \"contracts/contracts/protocol/PoolOrganizer.sol\":4560:4606  rewardManager = IRewardManager(_rewardManager) */\n      0x02\n        /* \"contracts/contracts/protocol/PoolOrganizer.sol\":422:8364  contract PoolOrganizer is AccessControl, IPoolOrganizer {... */\n      dup1\n      sload\n      swap1\n      swap5\n      and\n      or\n      swap1\n      swap3\n      sstore\n      0x40\n      dup1\n      mload\n      sub(shl(0xa0, 0x01), 0x01)\n      swap4\n      dup5\n      and\n      dup2\n      mstore\n      swap2\n      swap1\n      swap3\n      and\n      0x20\n      dup3\n      add\n      mstore\n        /* \"contracts/contracts/protocol/PoolOrganizer.sol\":4622:4670  ManagerRegistered(_vaultManager, _rewardManager) */\n      0x8fc18cc172f74c81235145b7927190d2bd0e351fc45bfb17bb572593273cef21\n      swap2\n        /* \"contracts/contracts/protocol/PoolOrganizer.sol\":422:8364  contract PoolOrganizer is AccessControl, IPoolOrganizer {... */\n      swap1\n        /* \"contracts/contracts/protocol/PoolOrganizer.sol\":4622:4670  ManagerRegistered(_vaultManager, _rewardManager) */\n      log1\n        /* \"contracts/contracts/protocol/PoolOrganizer.sol\":422:8364  contract PoolOrganizer is AccessControl, IPoolOrganizer {... */\n      stop\n    tag_94:\n      mload(0x40)\n      shl(0xe5, 0x461bcd)\n      dup2\n      mstore\n      0x20\n      0x04\n      dup3\n      add\n      mstore\n      0x24\n      dup1\n      dup3\n      add\n      mstore\n      0x5265776172644d616e616765722063616e6e6f74206265207a65726f20616464\n      0x44\n      dup3\n      add\n      mstore\n      shl(0xe0, 0x72657373)\n      0x64\n      dup3\n      add\n      mstore\n      0x84\n      swap1\n      revert\n    tag_92:\n      mload(0x40)\n      shl(0xe5, 0x461bcd)\n      dup2\n      mstore\n      0x20\n      0x04\n      dup3\n      add\n      mstore\n      0x23\n      0x24\n      dup3\n      add\n      mstore\n      0x5661756c744d616e616765722063616e6e6f74206265207a65726f2061646472\n      0x44\n      dup3\n      add\n      mstore\n      shl(0xe8, 0x657373)\n      0x64\n      dup3\n      add\n      mstore\n      0x84\n      swap1\n      revert\n        /* \"@openzeppelin/contracts/access/AccessControl.sol\":3515:3623  if (!hasRole(role, account)) {... */\n    tag_90:\n        /* \"contracts/contracts/protocol/PoolOrganizer.sol\":422:8364  contract PoolOrganizer is AccessControl, IPoolOrganizer {... */\n      mload(0x40)\n      shl(0xe0, 0xe2517d3f)\n        /* \"@openzeppelin/contracts/access/AccessControl.sol\":3565:3612  AccessControlUnauthorizedAccount(account, role) */\n      dup2\n      mstore\n        /* \"@openzeppelin/contracts/utils/Context.sol\":735:745  msg.sender */\n      caller\n        /* \"contracts/contracts/protocol/PoolOrganizer.sol\":422:8364  contract PoolOrganizer is AccessControl, IPoolOrganizer {... */\n      0x04\n        /* \"@openzeppelin/contracts/access/AccessControl.sol\":3565:3612  AccessControlUnauthorizedAccount(account, role) */\n      dup3\n      add\n        /* \"contracts/contracts/protocol/PoolOrganizer.sol\":422:8364  contract PoolOrganizer is AccessControl, IPoolOrganizer {... */\n      mstore\n      0x00\n      0x24\n      dup3\n      add\n      mstore\n      0x44\n      swap1\n        /* \"@openzeppelin/contracts/access/AccessControl.sol\":3565:3612  AccessControlUnauthorizedAccount(account, role) */\n      revert\n        /* \"contracts/contracts/protocol/PoolOrganizer.sol\":422:8364  contract PoolOrganizer is AccessControl, IPoolOrganizer {... */\n    tag_53:\n      jumpi(tag_65, callvalue)\n      jumpi(tag_65, slt(add(not(0x03), calldatasize), 0x00))\n      sload(0x01)\n        /* \"contracts/contracts/protocol/PoolOrganizer.sol\":4961:4974  rewardManager */\n      0x02\n        /* \"contracts/contracts/protocol/PoolOrganizer.sol\":422:8364  contract PoolOrganizer is AccessControl, IPoolOrganizer {... */\n      sload\n      0x40\n      dup1\n      mload\n      sub(shl(0xa0, 0x01), 0x01)\n      swap4\n      dup5\n      and\n      dup2\n      mstore\n      swap3\n      swap1\n      swap2\n      and\n      0x20\n      dup4\n      add\n      mstore\n      swap1\n      return\n    tag_51:\n      jumpi(tag_65, callvalue)\n      jumpi(tag_65, slt(add(not(0x03), calldatasize), 0x00))\n      0x20\n      mload(0x40)\n      0x00\n      dup2\n      mstore\n      return\n    tag_49:\n      jumpi(tag_65, callvalue)\n      jumpi(tag_65, slt(add(not(0x03), calldatasize), 0x40))\n      tag_110\n      tag_2\n      jump\t// in\n    tag_110:\n      mstore(0x00, calldataload(0x04))\n      mstore(0x20, 0x00)\n      keccak256(0x00, 0x40)\n      swap1\n      0x01\n      dup1\n      0xa0\n      shl\n      sub\n      and\n      0x00\n      mstore\n      0x20\n      mstore\n      0x20\n      and(sload(keccak256(0x00, 0x40)), 0xff)\n      mload(0x40)\n      swap1\n      iszero\n      iszero\n      dup2\n      mstore\n      return\n    tag_47:\n      jumpi(tag_65, callvalue)\n      jumpi(tag_65, slt(add(not(0x03), calldatasize), 0x00))\n      sload(0x01)\n      mload(0x40)\n      sub(shl(0xa0, 0x01), 0x01)\n      swap1\n      swap2\n      and\n      dup2\n      mstore\n      0x20\n      swap1\n      return\n    tag_45:\n      jumpi(tag_65, callvalue)\n      0x20\n      dup1\n      add(calldatasize, not(0x03))\n      slt\n      tag_65\n      jumpi\n      tag_119\n      tag_1\n      jump\t// in\n    tag_119:\n        /* \"@openzeppelin/contracts/access/AccessControl.sol\":2475:2479  role */\n      swap1\n      tag_120\n      tag_5\n      jump\t// in\n    tag_120:\n        /* \"contracts/contracts/protocol/PoolOrganizer.sol\":422:8364  contract PoolOrganizer is AccessControl, IPoolOrganizer {... */\n      0x01\n      dup1\n      0xa0\n      shl\n      sub\n      swap1\n      dup2\n      dup4\n      and\n      swap3\n      dup4\n      0x00\n      mstore\n      0x04\n      dup3\n      mstore\n        /* \"contracts/contracts/protocol/PoolOrganizer.sol\":3611:3681  require(poolDetails[pool].lender != address(0), \"Pool not registered\") */\n      tag_121\n        /* \"contracts/contracts/protocol/PoolOrganizer.sol\":422:8364  contract PoolOrganizer is AccessControl, IPoolOrganizer {... */\n      dup4\n      sload(keccak256(0x00, 0x40))\n      and\n        /* \"contracts/contracts/protocol/PoolOrganizer.sol\":3619:3657  poolDetails[pool].lender != address(0) */\n      iszero\n      iszero\n        /* \"contracts/contracts/protocol/PoolOrganizer.sol\":3611:3681  require(poolDetails[pool].lender != address(0), \"Pool not registered\") */\n      tag_16\n      jump\t// in\n    tag_121:\n        /* \"contracts/contracts/protocol/PoolOrganizer.sol\":422:8364  contract PoolOrganizer is AccessControl, IPoolOrganizer {... */\n      dup4\n      0x00\n      mstore\n      0x04\n      dup3\n      mstore\n      dup3\n      sload(keccak256(0x00, 0x40))\n      and\n      dup1\n      0x00\n      mstore\n        /* \"contracts/contracts/protocol/PoolOrganizer.sol\":6849:6860  lenderPools */\n      0x05\n        /* \"contracts/contracts/protocol/PoolOrganizer.sol\":422:8364  contract PoolOrganizer is AccessControl, IPoolOrganizer {... */\n      swap4\n      dup5\n      dup5\n      mstore\n        /* \"contracts/contracts/protocol/PoolOrganizer.sol\":6832:6875  findIndexInArray(lenderPools[lender], pool) */\n      tag_122\n        /* \"contracts/contracts/protocol/PoolOrganizer.sol\":422:8364  contract PoolOrganizer is AccessControl, IPoolOrganizer {... */\n      dup4\n      keccak256(0x00, 0x40)\n        /* \"contracts/contracts/protocol/PoolOrganizer.sol\":6832:6875  findIndexInArray(lenderPools[lender], pool) */\n      tag_18\n      jump\t// in\n    tag_122:\n        /* \"contracts/contracts/protocol/PoolOrganizer.sol\":422:8364  contract PoolOrganizer is AccessControl, IPoolOrganizer {... */\n      swap3\n      dup3\n      0x00\n      mstore\n      dup6\n      dup6\n      mstore\n      sload(keccak256(0x00, 0x40))\n      swap3\n      not(0x00)\n      swap4\n      dup5\n      dup2\n      add\n      swap1\n      dup2\n      gt\n      tag_133\n      jumpi\n        /* \"contracts/contracts/protocol/PoolOrganizer.sol\":6945:6971  lenderPools[lender][index] */\n      tag_125\n        /* \"contracts/contracts/protocol/PoolOrganizer.sol\":422:8364  contract PoolOrganizer is AccessControl, IPoolOrganizer {... */\n      swap6\n      dup5\n        /* \"contracts/contracts/protocol/PoolOrganizer.sol\":6974:7004  lenderPools[lender][lastIndex] */\n      tag_126\n        /* \"contracts/contracts/protocol/PoolOrganizer.sol\":6945:7004  lenderPools[lender][index] = lenderPools[lender][lastIndex] */\n      tag_127\n        /* \"contracts/contracts/protocol/PoolOrganizer.sol\":422:8364  contract PoolOrganizer is AccessControl, IPoolOrganizer {... */\n      swap4\n      dup6\n      0x00\n      mstore\n      dup12\n      dup12\n      mstore\n      keccak256(0x00, 0x40)\n        /* \"contracts/contracts/protocol/PoolOrganizer.sol\":6974:7004  lenderPools[lender][lastIndex] */\n      tag_13\n      jump\t// in\n    tag_126:\n        /* \"contracts/contracts/protocol/PoolOrganizer.sol\":422:8364  contract PoolOrganizer is AccessControl, IPoolOrganizer {... */\n      swap9\n      swap1\n      sload\n      swap3\n      dup6\n      0x00\n      mstore\n      dup12\n      dup12\n      mstore\n      keccak256(0x00, 0x40)\n        /* \"contracts/contracts/protocol/PoolOrganizer.sol\":6945:6971  lenderPools[lender][index] */\n      tag_13\n      jump\t// in\n    tag_125:\n        /* \"contracts/contracts/protocol/PoolOrganizer.sol\":422:8364  contract PoolOrganizer is AccessControl, IPoolOrganizer {... */\n      swap2\n      swap1\n      swap3\n      0x03\n      swap10\n      dup11\n      shl\n      shr\n      and\n      swap1\n      dup3\n      sload\n      swap1\n      0x03\n      shl\n      swap2\n      0x01\n      dup1\n      0xa0\n      shl\n      sub\n      dup1\n      swap2\n      and\n      dup4\n      shl\n      swap3\n      shl\n      not\n      and\n      or\n      swap1\n      sstore\n      jump\n        /* \"contracts/contracts/protocol/PoolOrganizer.sol\":6945:7004  lenderPools[lender][index] = lenderPools[lender][lastIndex] */\n    tag_127:\n        /* \"contracts/contracts/protocol/PoolOrganizer.sol\":422:8364  contract PoolOrganizer is AccessControl, IPoolOrganizer {... */\n      0x00\n      mstore\n      dup6\n      dup6\n      mstore\n      keccak256(0x00, 0x40)\n      swap1\n      dup2\n      sload\n      swap2\n      dup3\n      iszero\n      tag_138\n      jumpi\n      dup5\n        /* \"contracts/contracts/protocol/PoolOrganizer.sol\":7134:7163  findIndexInArray(pools, pool) */\n      tag_130\n        /* \"contracts/contracts/protocol/PoolOrganizer.sol\":422:8364  contract PoolOrganizer is AccessControl, IPoolOrganizer {... */\n      swap4\n      add\n      swap1\n      tag_131\n      tag_132\n      dup4\n      dup4\n      tag_13\n      jump\t// in\n    tag_132:\n      dup2\n      sload\n      swap1\n      0x01\n      dup1\n      0xa0\n      shl\n      sub\n      swap1\n      0x03\n      shl\n      shl\n      not\n      and\n      swap1\n      sstore\n      jump\n    tag_131:\n      sstore\n        /* \"contracts/contracts/protocol/PoolOrganizer.sol\":7134:7163  findIndexInArray(pools, pool) */\n      tag_17\n      jump\t// in\n    tag_130:\n        /* \"contracts/contracts/protocol/PoolOrganizer.sol\":422:8364  contract PoolOrganizer is AccessControl, IPoolOrganizer {... */\n      dup4\n      sload\n      dup4\n      dup2\n      add\n      swap1\n      dup2\n      gt\n      tag_133\n      jumpi\n        /* \"contracts/contracts/protocol/PoolOrganizer.sol\":7219:7250  pools[index] = pools[lastIndex] */\n      tag_135\n        /* \"contracts/contracts/protocol/PoolOrganizer.sol\":7234:7250  pools[lastIndex] */\n      swap3\n      tag_136\n        /* \"contracts/contracts/protocol/PoolOrganizer.sol\":7219:7231  pools[index] */\n      tag_137\n        /* \"contracts/contracts/protocol/PoolOrganizer.sol\":7234:7250  pools[lastIndex] */\n      swap3\n      tag_12\n      jump\t// in\n    tag_136:\n        /* \"contracts/contracts/protocol/PoolOrganizer.sol\":422:8364  contract PoolOrganizer is AccessControl, IPoolOrganizer {... */\n      swap1\n      sload\n      swap1\n      dup8\n      shl\n      shr\n      and\n        /* \"contracts/contracts/protocol/PoolOrganizer.sol\":7219:7231  pools[index] */\n      swap2\n      tag_12\n      jump\t// in\n    tag_137:\n        /* \"contracts/contracts/protocol/PoolOrganizer.sol\":7219:7250  pools[index] = pools[lastIndex] */\n      swap1\n        /* \"contracts/contracts/protocol/PoolOrganizer.sol\":422:8364  contract PoolOrganizer is AccessControl, IPoolOrganizer {... */\n      swap2\n      swap1\n      dup3\n      sload\n      swap1\n      0x03\n      shl\n      swap2\n      0x01\n      dup1\n      0xa0\n      shl\n      sub\n      dup1\n      swap2\n      and\n      dup4\n      shl\n      swap3\n      shl\n      not\n      and\n      or\n      swap1\n      sstore\n      jump\n        /* \"contracts/contracts/protocol/PoolOrganizer.sol\":7219:7250  pools[index] = pools[lastIndex] */\n    tag_135:\n        /* \"contracts/contracts/protocol/PoolOrganizer.sol\":422:8364  contract PoolOrganizer is AccessControl, IPoolOrganizer {... */\n      dup2\n      sload\n      swap4\n      dup5\n      iszero\n      tag_138\n      jumpi\n      0x04\n      0x0a\n      swap5\n      0x00\n      swap7\n      swap4\n      dup8\n      swap5\n      add\n      tag_140\n      tag_132\n      dup3\n      tag_12\n      jump\t// in\n    tag_140:\n      dup6\n      sstore\n      dup8\n      dup5\n      mstore\n      mstore\n      dup2\n      0x40\n      dup2\n      keccak256\n      swap4\n      dup2\n      dup6\n      sstore\n      dup2\n      0x01\n      dup7\n      add\n      sstore\n      dup2\n      0x02\n      dup7\n      add\n      sstore\n      dup5\n      add\n      sstore\n      dup2\n      0x04\n      dup5\n      add\n      sstore\n      dup3\n      add\n      sstore\n      dup3\n      0x06\n      dup3\n      add\n      sstore\n      dup3\n      0x07\n      dup3\n      add\n      sstore\n      dup3\n      0x08\n      dup3\n      add\n      sstore\n      dup3\n      0x09\n      dup3\n      add\n      sstore\n      add\n      sstore\n        /* \"contracts/contracts/protocol/PoolOrganizer.sol\":3873:3895  PoolDeregistered(pool) */\n      0x334d0b2111287dfddebe4b4c1c5af3ae644909d7fcd024377bf601e236ed5abb\n        /* \"contracts/contracts/protocol/PoolOrganizer.sol\":422:8364  contract PoolOrganizer is AccessControl, IPoolOrganizer {... */\n      0x00\n        /* \"contracts/contracts/protocol/PoolOrganizer.sol\":3873:3895  PoolDeregistered(pool) */\n      dup1\n      log2\n        /* \"contracts/contracts/protocol/PoolOrganizer.sol\":422:8364  contract PoolOrganizer is AccessControl, IPoolOrganizer {... */\n      stop\n    tag_138:\n      mstore(0x00, shl(0xe0, 0x4e487b71))\n      mstore(0x04, 0x31)\n      revert(0x00, 0x24)\n    tag_133:\n      mstore(0x00, shl(0xe0, 0x4e487b71))\n      mstore(0x04, 0x11)\n      revert(0x00, 0x24)\n    tag_43:\n      jumpi(tag_65, callvalue)\n      jumpi(tag_65, slt(add(not(0x03), calldatasize), 0x20))\n      sub(shl(0xa0, 0x01), 0x01)\n      dup1\n      tag_146\n      tag_1\n      jump\t// in\n    tag_146:\n      and\n      swap1\n      dup2\n      0x00\n      mstore\n        /* \"contracts/contracts/protocol/PoolOrganizer.sol\":6182:6192  poolVaults */\n      0x06\n        /* \"contracts/contracts/protocol/PoolOrganizer.sol\":422:8364  contract PoolOrganizer is AccessControl, IPoolOrganizer {... */\n      0x20\n      mstore\n      dup1\n      sload(keccak256(0x00, 0x40))\n      and\n        /* \"contracts/contracts/protocol/PoolOrganizer.sol\":6182:6212  poolVaults[pool] != address(0) */\n      iszero\n        /* \"contracts/contracts/protocol/PoolOrganizer.sol\":422:8364  contract PoolOrganizer is AccessControl, IPoolOrganizer {... */\n      tag_147\n      jumpi\n      0x20\n      swap2\n      0x00\n      mstore\n        /* \"contracts/contracts/protocol/PoolOrganizer.sol\":6182:6192  poolVaults */\n      0x06\n        /* \"contracts/contracts/protocol/PoolOrganizer.sol\":422:8364  contract PoolOrganizer is AccessControl, IPoolOrganizer {... */\n      dup3\n      mstore\n      sload(keccak256(0x00, 0x40))\n      and\n      mload(0x40)\n      swap1\n      dup2\n      mstore\n      return\n    tag_147:\n      mload(0x40)\n      shl(0xe5, 0x461bcd)\n      dup2\n      mstore\n      0x20\n      0x04\n      dup3\n      add\n      mstore\n      0x23\n      0x24\n      dup3\n      add\n      mstore\n      0x506f6f6c206e6f742072656769737465726564206f7220686173206e6f207661\n      0x44\n      dup3\n      add\n      mstore\n      shl(0xea, 0x1d5b1d)\n      0x64\n      dup3\n      add\n      mstore\n      0x84\n      swap1\n      revert\n    tag_41:\n      jumpi(tag_65, callvalue)\n      jumpi(tag_65, slt(add(not(0x03), calldatasize), 0x20))\n      tag_153\n      tag_1\n      jump\t// in\n    tag_153:\n        /* \"contracts/contracts/protocol/PoolOrganizer.sol\":6574:6584  msg.sender */\n      caller\n        /* \"contracts/contracts/protocol/PoolOrganizer.sol\":422:8364  contract PoolOrganizer is AccessControl, IPoolOrganizer {... */\n      0x00\n      swap1\n      dup2\n      mstore\n      mstore(0x20, 0xad3228b676f7d3cd4284a5443f17f1962b36e491b30a40b2405849e597ba5fb5)\n      0x40\n      swap1\n      keccak256\n      sload\n      0xff\n      and\n      iszero\n      tag_154\n      jumpi\n      0x00\n      dup1\n      mload\n      0x20\n      data_cea5b988323acc73cd81db0e6f2932cdc75f39072539d65cbfa79c56b2a64e51\n      dup4\n      codecopy\n      dup2\n      mload\n      swap2\n      mstore\n      0x00\n      swap1\n      dup2\n      mstore\n      0x20\n      mstore\n        /* \"@openzeppelin/contracts/access/AccessControl.sol\":3901:3923  _roles[role].adminRole */\n      0x729ef9451dd492832bd2a98139702ced95dfa0cec7e99526dbbcb957abcbc477\n        /* \"contracts/contracts/protocol/PoolOrganizer.sol\":422:8364  contract PoolOrganizer is AccessControl, IPoolOrganizer {... */\n      sload\n        /* \"@openzeppelin/contracts/access/AccessControl.sol\":4330:4355  _grantRole(role, account) */\n      tag_67\n      swap2\n        /* \"contracts/contracts/protocol/PoolOrganizer.sol\":422:8364  contract PoolOrganizer is AccessControl, IPoolOrganizer {... */\n      swap1\n        /* \"@openzeppelin/contracts/access/AccessControl.sol\":2475:2479  role */\n      tag_157\n      swap1\n      tag_6\n      jump\t// in\n    tag_157:\n        /* \"@openzeppelin/contracts/access/AccessControl.sol\":4330:4355  _grantRole(role, account) */\n      tag_7\n      jump\t// in\n        /* \"contracts/contracts/protocol/PoolOrganizer.sol\":422:8364  contract PoolOrganizer is AccessControl, IPoolOrganizer {... */\n    tag_154:\n      mload(0x40)\n      shl(0xe5, 0x461bcd)\n      dup2\n      mstore\n      0x20\n      0x04\n      dup3\n      add\n      mstore\n      0x16\n      0x24\n      dup3\n      add\n      mstore\n      shl(0x51, 0x21b0b63632b91034b9903737ba1030b71030b236b4b7)\n      0x44\n      dup3\n      add\n      mstore\n      0x64\n      swap1\n      revert\n    tag_39:\n      jumpi(tag_65, callvalue)\n      jumpi(tag_65, slt(add(not(0x03), calldatasize), 0x00))\n      0x20\n      mload(0x40)\n      0x00\n      dup1\n      mload\n      0x20\n      data_cea5b988323acc73cd81db0e6f2932cdc75f39072539d65cbfa79c56b2a64e51\n      dup4\n      codecopy\n      dup2\n      mload\n      swap2\n      mstore\n      dup2\n      mstore\n      return\n    tag_37:\n      jumpi(tag_65, callvalue)\n      jumpi(tag_65, slt(add(not(0x03), calldatasize), 0x0160))\n      tag_166\n      tag_1\n      jump\t// in\n    tag_166:\n      tag_167\n      tag_2\n      jump\t// in\n    tag_167:\n      swap1\n      calldataload(0x44)\n      sub(shl(0xa0, 0x01), 0x01)\n      dup2\n      and\n      dup2\n      sub\n      tag_65\n      jumpi\n      calldataload(0x64)\n      swap1\n      sub(shl(0xa0, 0x01), 0x01)\n      dup3\n      and\n      dup3\n      sub\n      tag_65\n      jumpi\n      calldataload(0x84)\n      sub(shl(0xa0, 0x01), 0x01)\n      dup2\n      and\n      dup2\n      sub\n      tag_65\n      jumpi\n      calldataload(0xa4)\n      sub(shl(0xa0, 0x01), 0x01)\n      dup2\n      and\n      dup2\n      sub\n      tag_65\n      jumpi\n      calldataload(0xc4)\n      swap1\n      sub(shl(0xa0, 0x01), 0x01)\n      dup3\n      and\n      dup3\n      sub\n      tag_65\n      jumpi\n      jumpi(tag_65, iszero(lt(calldataload(0x0144), 0x02)))\n        /* \"@openzeppelin/contracts/access/AccessControl.sol\":2475:2479  role */\n      tag_180\n      tag_5\n      jump\t// in\n    tag_180:\n      sub(shl(0xa0, 0x01), 0x01)\n        /* \"contracts/contracts/protocol/PoolOrganizer.sol\":422:8364  contract PoolOrganizer is AccessControl, IPoolOrganizer {... */\n      dup7\n      and\n        /* \"contracts/contracts/protocol/PoolOrganizer.sol\":2644:2662  pool != address(0) */\n      iszero\n        /* \"contracts/contracts/protocol/PoolOrganizer.sol\":422:8364  contract PoolOrganizer is AccessControl, IPoolOrganizer {... */\n      tag_181\n      jumpi\n      sub(shl(0xa0, 0x01), 0x01)\n      dup7\n      dup2\n      and\n      0x00\n      swap1\n      dup2\n      mstore\n      mstore(0x20, 0x04)\n      0x40\n      swap1\n      keccak256\n      sload\n      and\n      tag_183\n      jumpi\n      mload(0x40)\n      swap3\n      tag_185\n      dup5\n      tag_10\n      jump\t// in\n    tag_185:\n      sub(shl(0xa0, 0x01), 0x01)\n      dup9\n      dup2\n      and\n      dup6\n      mstore\n      dup6\n      dup2\n      and\n      0x20\n        /* \"contracts/contracts/protocol/PoolOrganizer.sol\":2843:3263  PoolDetails({... */\n      dup7\n      add\n        /* \"contracts/contracts/protocol/PoolOrganizer.sol\":422:8364  contract PoolOrganizer is AccessControl, IPoolOrganizer {... */\n      mstore\n        /* \"contracts/contracts/protocol/PoolOrganizer.sol\":2943:2958  block.timestamp */\n      timestamp\n        /* \"contracts/contracts/protocol/PoolOrganizer.sol\":422:8364  contract PoolOrganizer is AccessControl, IPoolOrganizer {... */\n      0x40\n        /* \"contracts/contracts/protocol/PoolOrganizer.sol\":2843:3263  PoolDetails({... */\n      dup7\n      add\n        /* \"contracts/contracts/protocol/PoolOrganizer.sol\":422:8364  contract PoolOrganizer is AccessControl, IPoolOrganizer {... */\n      mstore\n      dup7\n      dup2\n      and\n      0x60\n        /* \"contracts/contracts/protocol/PoolOrganizer.sol\":2843:3263  PoolDetails({... */\n      dup7\n      add\n        /* \"contracts/contracts/protocol/PoolOrganizer.sol\":422:8364  contract PoolOrganizer is AccessControl, IPoolOrganizer {... */\n      mstore\n      swap1\n      dup2\n      and\n      0x80\n        /* \"contracts/contracts/protocol/PoolOrganizer.sol\":2843:3263  PoolDetails({... */\n      dup6\n      add\n        /* \"contracts/contracts/protocol/PoolOrganizer.sol\":422:8364  contract PoolOrganizer is AccessControl, IPoolOrganizer {... */\n      mstore\n      swap1\n      dup2\n      and\n      0xa0\n        /* \"contracts/contracts/protocol/PoolOrganizer.sol\":2843:3263  PoolDetails({... */\n      dup5\n      add\n        /* \"contracts/contracts/protocol/PoolOrganizer.sol\":422:8364  contract PoolOrganizer is AccessControl, IPoolOrganizer {... */\n      mstore\n      and\n      0xc0\n        /* \"contracts/contracts/protocol/PoolOrganizer.sol\":2843:3263  PoolDetails({... */\n      dup3\n      add\n        /* \"contracts/contracts/protocol/PoolOrganizer.sol\":422:8364  contract PoolOrganizer is AccessControl, IPoolOrganizer {... */\n      mstore\n      calldataload(0xe4)\n      0xe0\n        /* \"contracts/contracts/protocol/PoolOrganizer.sol\":2843:3263  PoolDetails({... */\n      dup3\n      add\n        /* \"contracts/contracts/protocol/PoolOrganizer.sol\":422:8364  contract PoolOrganizer is AccessControl, IPoolOrganizer {... */\n      mstore\n      calldataload(0x0104)\n      0x0100\n        /* \"contracts/contracts/protocol/PoolOrganizer.sol\":2843:3263  PoolDetails({... */\n      dup3\n      add\n        /* \"contracts/contracts/protocol/PoolOrganizer.sol\":422:8364  contract PoolOrganizer is AccessControl, IPoolOrganizer {... */\n      mstore\n      calldataload(0x0124)\n      0x0120\n        /* \"contracts/contracts/protocol/PoolOrganizer.sol\":2843:3263  PoolDetails({... */\n      dup3\n      add\n        /* \"contracts/contracts/protocol/PoolOrganizer.sol\":422:8364  contract PoolOrganizer is AccessControl, IPoolOrganizer {... */\n      mstore\n        /* \"contracts/contracts/protocol/PoolOrganizer.sol\":2843:3263  PoolDetails({... */\n      tag_186\n        /* \"contracts/contracts/protocol/PoolOrganizer.sol\":422:8364  contract PoolOrganizer is AccessControl, IPoolOrganizer {... */\n      calldataload(0x0144)\n      0x0140\n        /* \"contracts/contracts/protocol/PoolOrganizer.sol\":2843:3263  PoolDetails({... */\n      dup4\n      add\n      tag_11\n      jump\t// in\n    tag_186:\n        /* \"contracts/contracts/protocol/PoolOrganizer.sol\":422:8364  contract PoolOrganizer is AccessControl, IPoolOrganizer {... */\n      0x01\n      dup1\n      0xa0\n      shl\n      sub\n      dup5\n      and\n      0x00\n      mstore\n      mstore(0x20, 0x04)\n      0x0140\n      0x0a\n      keccak256(0x00, 0x40)\n      0x01\n      dup1\n      0xa0\n      shl\n      sub\n      dup5\n      mload\n      and\n      shl(0xa0, 0xffffffffffffffffffffffff)\n      swap1\n      dup2\n      dup4\n      sload\n      and\n      or\n      dup3\n      sstore\n      0x01\n      dup3\n      add\n      0x01\n      dup1\n      0xa0\n      shl\n      sub\n      0x20\n        /* \"contracts/contracts/protocol/PoolOrganizer.sol\":2843:3263  PoolDetails({... */\n      dup8\n      add\n        /* \"contracts/contracts/protocol/PoolOrganizer.sol\":422:8364  contract PoolOrganizer is AccessControl, IPoolOrganizer {... */\n      mload\n      and\n      dup3\n      dup3\n      sload\n      and\n      or\n      swap1\n      sstore\n      0x40\n        /* \"contracts/contracts/protocol/PoolOrganizer.sol\":2843:3263  PoolDetails({... */\n      dup6\n      add\n        /* \"contracts/contracts/protocol/PoolOrganizer.sol\":422:8364  contract PoolOrganizer is AccessControl, IPoolOrganizer {... */\n      mload\n      0x02\n      dup4\n      add\n      sstore\n      0x03\n      dup3\n      add\n      0x01\n      dup1\n      0xa0\n      shl\n      sub\n      0x60\n        /* \"contracts/contracts/protocol/PoolOrganizer.sol\":2843:3263  PoolDetails({... */\n      dup8\n      add\n        /* \"contracts/contracts/protocol/PoolOrganizer.sol\":422:8364  contract PoolOrganizer is AccessControl, IPoolOrganizer {... */\n      mload\n      and\n      dup3\n      dup3\n      sload\n      and\n      or\n      swap1\n      sstore\n      0x04\n      dup3\n      add\n      0x01\n      dup1\n      0xa0\n      shl\n      sub\n      0x80\n        /* \"contracts/contracts/protocol/PoolOrganizer.sol\":2843:3263  PoolDetails({... */\n      dup8\n      add\n        /* \"contracts/contracts/protocol/PoolOrganizer.sol\":422:8364  contract PoolOrganizer is AccessControl, IPoolOrganizer {... */\n      mload\n      and\n      dup3\n      dup3\n      sload\n      and\n      or\n      swap1\n      sstore\n      0x05\n      dup3\n      add\n      0x01\n      dup1\n      0xa0\n      shl\n      sub\n      0xa0\n        /* \"contracts/contracts/protocol/PoolOrganizer.sol\":2843:3263  PoolDetails({... */\n      dup8\n      add\n        /* \"contracts/contracts/protocol/PoolOrganizer.sol\":422:8364  contract PoolOrganizer is AccessControl, IPoolOrganizer {... */\n      mload\n      and\n      dup3\n      dup3\n      sload\n      and\n      or\n      swap1\n      sstore\n      0x06\n      dup3\n      add\n      swap1\n      0x01\n      dup1\n      0xa0\n      shl\n      sub\n      0xc0\n        /* \"contracts/contracts/protocol/PoolOrganizer.sol\":2843:3263  PoolDetails({... */\n      dup8\n      add\n        /* \"contracts/contracts/protocol/PoolOrganizer.sol\":422:8364  contract PoolOrganizer is AccessControl, IPoolOrganizer {... */\n      mload\n      and\n      swap1\n      dup3\n      sload\n      and\n      or\n      swap1\n      sstore\n      0xe0\n        /* \"contracts/contracts/protocol/PoolOrganizer.sol\":2843:3263  PoolDetails({... */\n      dup5\n      add\n        /* \"contracts/contracts/protocol/PoolOrganizer.sol\":422:8364  contract PoolOrganizer is AccessControl, IPoolOrganizer {... */\n      mload\n      0x07\n      dup3\n      add\n      sstore\n      0x0100\n        /* \"contracts/contracts/protocol/PoolOrganizer.sol\":2843:3263  PoolDetails({... */\n      dup5\n      add\n        /* \"contracts/contracts/protocol/PoolOrganizer.sol\":422:8364  contract PoolOrganizer is AccessControl, IPoolOrganizer {... */\n      mload\n      0x08\n      dup3\n      add\n      sstore\n      0x0120\n        /* \"contracts/contracts/protocol/PoolOrganizer.sol\":2843:3263  PoolDetails({... */\n      dup5\n      add\n        /* \"contracts/contracts/protocol/PoolOrganizer.sol\":422:8364  contract PoolOrganizer is AccessControl, IPoolOrganizer {... */\n      mload\n      0x09\n      dup3\n      add\n      sstore\n      add\n        /* \"contracts/contracts/protocol/PoolOrganizer.sol\":2843:3263  PoolDetails({... */\n      swap2\n      add\n        /* \"contracts/contracts/protocol/PoolOrganizer.sol\":422:8364  contract PoolOrganizer is AccessControl, IPoolOrganizer {... */\n      mload\n      0x02\n      dup2\n      lt\n      iszero\n      tag_187\n      jumpi\n      0xff\n      dup1\n      not\n      dup4\n      sload\n      and\n      swap2\n      and\n      or\n      swap1\n      sstore\n      0x01\n      dup1\n      0xa0\n      shl\n      sub\n      dup5\n      and\n      0x00\n      mstore\n      mstore(0x20, 0x05)\n      keccak256(0x00, 0x40)\n      dup1\n      sload\n      swap1\n      0x010000000000000000\n      swap2\n      dup3\n      dup2\n      lt\n      iszero\n      tag_193\n      jumpi\n      tag_137\n      dup2\n      tag_192\n      swap4\n      0x01\n      dup10\n      swap5\n      add\n      dup2\n      sstore\n      tag_13\n      jump\t// in\n    tag_192:\n      sload(0x03)\n      swap1\n      dup2\n      lt\n      iszero\n      tag_193\n      jumpi\n        /* \"contracts/contracts/protocol/PoolOrganizer.sol\":3344:3399  PoolRegistered(pool, lender, borrower, vault, poolType) */\n      0x8f723e49dc038e67c41b41307a1e0c65653d50125a0c474a21ac32d9a0b24d2b\n        /* \"contracts/contracts/protocol/PoolOrganizer.sol\":422:8364  contract PoolOrganizer is AccessControl, IPoolOrganizer {... */\n      swap2\n      tag_195\n      dup6\n      tag_137\n      dup5\n      0x01\n      0x40\n      swap7\n      add\n      0x03\n      sstore\n      tag_12\n      jump\t// in\n    tag_195:\n      dup2\n      mload\n      sub(shl(0xa0, 0x01), 0x01)\n      swap1\n      swap5\n      and\n      dup5\n      mstore\n      tag_197\n      0x20\n      dup6\n      add\n      calldataload(0x0144)\n      tag_4\n      jump\t// in\n    tag_197:\n      sub(shl(0xa0, 0x01), 0x01)\n      swap1\n      dup2\n      and\n      swap6\n      dup2\n      and\n      swap5\n      and\n      swap3\n        /* \"contracts/contracts/protocol/PoolOrganizer.sol\":3344:3399  PoolRegistered(pool, lender, borrower, vault, poolType) */\n      log4\n        /* \"contracts/contracts/protocol/PoolOrganizer.sol\":422:8364  contract PoolOrganizer is AccessControl, IPoolOrganizer {... */\n      stop\n    tag_193:\n      mstore(0x00, shl(0xe0, 0x4e487b71))\n      mstore(0x04, 0x41)\n      revert(0x00, 0x24)\n    tag_187:\n      mstore(0x00, shl(0xe0, 0x4e487b71))\n      mstore(0x04, 0x21)\n      revert(0x00, 0x24)\n    tag_183:\n      mload(0x40)\n      shl(0xe5, 0x461bcd)\n      dup2\n      mstore\n      0x20\n      0x04\n      dup3\n      add\n      mstore\n      0x17\n      0x24\n      dup3\n      add\n      mstore\n      0x506f6f6c20616c72656164792072656769737465726564000000000000000000\n      0x44\n      dup3\n      add\n      mstore\n      0x64\n      swap1\n      revert\n    tag_181:\n      mload(0x40)\n      shl(0xe5, 0x461bcd)\n      dup2\n      mstore\n      0x20\n      0x04\n      dup3\n      add\n      mstore\n      0x1b\n      0x24\n      dup3\n      add\n      mstore\n      0x506f6f6c20616464726573732063616e6e6f74206265207a65726f0000000000\n      0x44\n      dup3\n      add\n      mstore\n      0x64\n      swap1\n      revert\n    tag_35:\n      jumpi(tag_65, callvalue)\n      jumpi(tag_65, slt(add(not(0x03), calldatasize), 0x40))\n      tag_202\n      tag_2\n      jump\t// in\n    tag_202:\n        /* \"@openzeppelin/contracts/utils/Context.sol\":735:745  msg.sender */\n      caller\n      sub(shl(0xa0, 0x01), 0x01)\n        /* \"contracts/contracts/protocol/PoolOrganizer.sol\":422:8364  contract PoolOrganizer is AccessControl, IPoolOrganizer {... */\n      dup3\n      and\n        /* \"@openzeppelin/contracts/access/AccessControl.sol\":5421:5455  callerConfirmation != _msgSender() */\n      sub\n        /* \"@openzeppelin/contracts/access/AccessControl.sol\":5417:5519  if (callerConfirmation != _msgSender()) {... */\n      tag_203\n      jumpi\n        /* \"@openzeppelin/contracts/access/AccessControl.sol\":5529:5566  _revokeRole(role, callerConfirmation) */\n      tag_67\n        /* \"contracts/contracts/protocol/PoolOrganizer.sol\":422:8364  contract PoolOrganizer is AccessControl, IPoolOrganizer {... */\n      swap1\n      calldataload(0x04)\n        /* \"@openzeppelin/contracts/access/AccessControl.sol\":5529:5566  _revokeRole(role, callerConfirmation) */\n      tag_9\n      jump\t// in\n        /* \"@openzeppelin/contracts/access/AccessControl.sol\":5417:5519  if (callerConfirmation != _msgSender()) {... */\n    tag_203:\n        /* \"contracts/contracts/protocol/PoolOrganizer.sol\":422:8364  contract PoolOrganizer is AccessControl, IPoolOrganizer {... */\n      mload(0x40)\n      shl(0xe1, 0x334bd919)\n        /* \"@openzeppelin/contracts/access/AccessControl.sol\":5478:5508  AccessControlBadConfirmation() */\n      dup2\n      mstore\n        /* \"contracts/contracts/protocol/PoolOrganizer.sol\":422:8364  contract PoolOrganizer is AccessControl, IPoolOrganizer {... */\n      0x04\n      swap1\n        /* \"@openzeppelin/contracts/access/AccessControl.sol\":5478:5508  AccessControlBadConfirmation() */\n      revert\n        /* \"contracts/contracts/protocol/PoolOrganizer.sol\":422:8364  contract PoolOrganizer is AccessControl, IPoolOrganizer {... */\n    tag_33:\n      jumpi(tag_65, callvalue)\n      jumpi(tag_65, slt(add(not(0x03), calldatasize), 0x40))\n        /* \"@openzeppelin/contracts/access/AccessControl.sol\":4330:4355  _grantRole(role, account) */\n      tag_67\n        /* \"contracts/contracts/protocol/PoolOrganizer.sol\":422:8364  contract PoolOrganizer is AccessControl, IPoolOrganizer {... */\n      calldataload(0x04)\n      tag_211\n      tag_2\n      jump\t// in\n    tag_211:\n      swap1\n      dup1\n      0x00\n      mstore\n      mstore(0x20, 0x00)\n        /* \"@openzeppelin/contracts/access/AccessControl.sol\":2475:2479  role */\n      tag_212\n        /* \"contracts/contracts/protocol/PoolOrganizer.sol\":422:8364  contract PoolOrganizer is AccessControl, IPoolOrganizer {... */\n      0x01\n      keccak256(0x00, 0x40)\n        /* \"@openzeppelin/contracts/access/AccessControl.sol\":3901:3923  _roles[role].adminRole */\n      add\n        /* \"contracts/contracts/protocol/PoolOrganizer.sol\":422:8364  contract PoolOrganizer is AccessControl, IPoolOrganizer {... */\n      sload\n        /* \"@openzeppelin/contracts/access/AccessControl.sol\":2475:2479  role */\n      tag_6\n      jump\t// in\n    tag_212:\n        /* \"@openzeppelin/contracts/access/AccessControl.sol\":4330:4355  _grantRole(role, account) */\n      tag_8\n      jump\t// in\n        /* \"contracts/contracts/protocol/PoolOrganizer.sol\":422:8364  contract PoolOrganizer is AccessControl, IPoolOrganizer {... */\n    tag_31:\n      jumpi(tag_65, callvalue)\n      0x20\n      dup1\n      add(calldatasize, not(0x03))\n      slt\n      tag_65\n      jumpi\n      sub(shl(0xa0, 0x01), 0x01)\n      swap1\n      dup2\n      tag_217\n      tag_1\n      jump\t// in\n    tag_217:\n      and\n      0x00\n      mstore\n        /* \"contracts/contracts/protocol/PoolOrganizer.sol\":5487:5498  lenderPools */\n      0x05\n        /* \"contracts/contracts/protocol/PoolOrganizer.sol\":422:8364  contract PoolOrganizer is AccessControl, IPoolOrganizer {... */\n      dup2\n      mstore\n      keccak256(0x00, 0x40)\n      mload(0x40)\n      dup1\n      dup4\n      dup4\n      sload\n      swap2\n      dup3\n      dup2\n      mstore\n      add\n      swap1\n      dup2\n      swap4\n      0x00\n      mstore\n      dup5\n      0x00\n      keccak256\n      swap1\n      0x00\n    tag_218:\n      dup7\n      dup3\n      dup3\n      lt\n      tag_219\n      jumpi\n      pop\n      pop\n      pop\n      pop\n      dup2\n      swap1\n      sub\n      0x1f\n      add\n      not(0x1f)\n      and\n      dup2\n      add\n      swap3\n      0xffffffffffffffff\n      dup5\n      gt\n      dup3\n      dup6\n      lt\n      or\n      tag_193\n      jumpi\n      swap1\n      dup4\n      0x40\n      mstore\n      dup2\n      dup5\n      add\n      swap1\n      dup3\n      dup6\n      mstore\n      mload\n      dup1\n      swap2\n      mstore\n      0x40\n      dup5\n      add\n      swap3\n      swap2\n      0x00\n    tag_223:\n      dup3\n      dup2\n      lt\n      tag_224\n      jumpi\n      dup6\n      dup6\n      sub\n      dup7\n      return\n    tag_224:\n      dup4\n      mload\n      dup8\n      and\n      dup6\n      mstore\n      swap4\n      dup2\n      add\n      swap4\n      swap3\n      dup2\n      add\n      swap3\n      0x01\n      add\n      jump(tag_223)\n    tag_219:\n      dup4\n      sload\n      dup10\n      and\n      dup6\n      mstore\n      swap1\n      swap4\n      add\n      swap3\n      0x01\n      swap3\n      dup4\n      add\n      swap3\n      add\n      jump(tag_218)\n    tag_29:\n      jumpi(tag_65, callvalue)\n      jumpi(tag_65, slt(add(not(0x03), calldatasize), 0x20))\n      mstore(0x00, calldataload(0x04))\n      mstore(0x20, 0x00)\n      0x20\n      0x01\n      keccak256(0x00, 0x40)\n        /* \"@openzeppelin/contracts/access/AccessControl.sol\":3901:3923  _roles[role].adminRole */\n      add\n        /* \"contracts/contracts/protocol/PoolOrganizer.sol\":422:8364  contract PoolOrganizer is AccessControl, IPoolOrganizer {... */\n      sload\n      mload(0x40)\n      swap1\n      dup2\n      mstore\n      return\n    tag_27:\n      jumpi(tag_65, callvalue)\n      jumpi(tag_65, slt(add(not(0x03), calldatasize), 0x20))\n      0x20\n      sub(shl(0xa0, 0x01), 0x01)\n      dup1\n      tag_234\n      tag_1\n      jump\t// in\n    tag_234:\n      and\n      0x00\n      mstore\n        /* \"contracts/contracts/protocol/PoolOrganizer.sol\":787:832  mapping(address => address) public poolVaults */\n      0x06\n        /* \"contracts/contracts/protocol/PoolOrganizer.sol\":422:8364  contract PoolOrganizer is AccessControl, IPoolOrganizer {... */\n      dup3\n      mstore\n      sload(keccak256(0x00, 0x40))\n      and\n      mload(0x40)\n      swap1\n      dup2\n      mstore\n      return\n    tag_25:\n      jumpi(tag_65, callvalue)\n      jumpi(tag_65, slt(add(not(0x03), calldatasize), 0x00))\n        /* \"contracts/contracts/protocol/PoolOrganizer.sol\":604:639  IRewardManager public rewardManager */\n      0x02\n        /* \"contracts/contracts/protocol/PoolOrganizer.sol\":422:8364  contract PoolOrganizer is AccessControl, IPoolOrganizer {... */\n      sload\n      mload(0x40)\n      sub(shl(0xa0, 0x01), 0x01)\n      swap1\n      swap2\n      and\n      dup2\n      mstore\n      0x20\n      swap1\n      return\n    tag_23:\n      jumpi(tag_65, callvalue)\n      jumpi(tag_65, slt(add(not(0x03), calldatasize), 0x40))\n      tag_243\n      tag_1\n      jump\t// in\n    tag_243:\n      tag_244\n      tag_2\n      jump\t// in\n    tag_244:\n        /* \"@openzeppelin/contracts/access/AccessControl.sol\":2475:2479  role */\n      swap1\n      tag_245\n      tag_5\n      jump\t// in\n    tag_245:\n      sub(shl(0xa0, 0x01), 0x01)\n        /* \"contracts/contracts/protocol/PoolOrganizer.sol\":422:8364  contract PoolOrganizer is AccessControl, IPoolOrganizer {... */\n      swap1\n      dup2\n      and\n      swap1\n        /* \"contracts/contracts/protocol/PoolOrganizer.sol\":8009:8027  pool != address(0) */\n      dup2\n      iszero\n      iszero\n      dup1\n        /* \"contracts/contracts/protocol/PoolOrganizer.sol\":8009:8050  pool != address(0) && vault != address(0) */\n      tag_246\n      jumpi\n        /* \"contracts/contracts/protocol/PoolOrganizer.sol\":422:8364  contract PoolOrganizer is AccessControl, IPoolOrganizer {... */\n    tag_247:\n      iszero\n      tag_248\n      jumpi\n      dup2\n      0x00\n      mstore\n      mstore(0x20, 0x04)\n        /* \"contracts/contracts/protocol/PoolOrganizer.sol\":8082:8152  require(poolDetails[pool].lender != address(0), \"Pool not registered\") */\n      tag_250\n        /* \"contracts/contracts/protocol/PoolOrganizer.sol\":422:8364  contract PoolOrganizer is AccessControl, IPoolOrganizer {... */\n      dup2\n      sload(keccak256(0x00, 0x40))\n      and\n        /* \"contracts/contracts/protocol/PoolOrganizer.sol\":8090:8128  poolDetails[pool].lender != address(0) */\n      iszero\n      iszero\n        /* \"contracts/contracts/protocol/PoolOrganizer.sol\":8082:8152  require(poolDetails[pool].lender != address(0), \"Pool not registered\") */\n      tag_16\n      jump\t// in\n    tag_250:\n        /* \"contracts/contracts/protocol/PoolOrganizer.sol\":422:8364  contract PoolOrganizer is AccessControl, IPoolOrganizer {... */\n      dup2\n      0x00\n      mstore\n        /* \"contracts/contracts/protocol/PoolOrganizer.sol\":8183:8193  poolVaults */\n      0x06\n        /* \"contracts/contracts/protocol/PoolOrganizer.sol\":422:8364  contract PoolOrganizer is AccessControl, IPoolOrganizer {... */\n      0x20\n      mstore\n      dup1\n      sload(keccak256(0x00, 0x40))\n      and\n      tag_251\n      jumpi\n      dup2\n      0x00\n      mstore\n        /* \"contracts/contracts/protocol/PoolOrganizer.sol\":8183:8193  poolVaults */\n      0x06\n        /* \"contracts/contracts/protocol/PoolOrganizer.sol\":422:8364  contract PoolOrganizer is AccessControl, IPoolOrganizer {... */\n      0x20\n      mstore\n      keccak256(0x00, 0x40)\n      swap3\n      and\n      swap2\n      dup3\n      shl(0xa0, 0xffffffffffffffffffffffff)\n      dup3\n      sload\n      and\n      or\n      swap1\n      sstore\n        /* \"contracts/contracts/protocol/PoolOrganizer.sol\":8327:8355  VaultRegistered(pool, vault) */\n      0xf8ee9039d8e4d43426638703c71517008894fdea742bb2d2dbff5a46fb07abdb\n        /* \"contracts/contracts/protocol/PoolOrganizer.sol\":422:8364  contract PoolOrganizer is AccessControl, IPoolOrganizer {... */\n      0x00\n        /* \"contracts/contracts/protocol/PoolOrganizer.sol\":8327:8355  VaultRegistered(pool, vault) */\n      dup1\n      log3\n        /* \"contracts/contracts/protocol/PoolOrganizer.sol\":422:8364  contract PoolOrganizer is AccessControl, IPoolOrganizer {... */\n      stop\n    tag_251:\n      mload(0x40)\n      shl(0xe5, 0x461bcd)\n      dup2\n      mstore\n      0x20\n      0x04\n      dup3\n      add\n      mstore\n      0x26\n      0x24\n      dup3\n      add\n      mstore\n      0x5661756c7420616c7265616479207265676973746572656420666f7220746869\n      0x44\n      dup3\n      add\n      mstore\n      shl(0xd2, 0x1cc81c1bdbdb)\n      0x64\n      dup3\n      add\n      mstore\n      0x84\n      swap1\n      revert\n    tag_248:\n      mload(0x40)\n      shl(0xe5, 0x461bcd)\n      dup2\n      mstore\n      0x20\n      0x04\n      dup3\n      add\n      mstore\n      0x11\n      0x24\n      dup3\n      add\n      mstore\n      shl(0x78, 0x496e76616c696420616464726573736573)\n      0x44\n      dup3\n      add\n      mstore\n      0x64\n      swap1\n      revert\n        /* \"contracts/contracts/protocol/PoolOrganizer.sol\":8009:8050  pool != address(0) && vault != address(0) */\n    tag_246:\n        /* \"contracts/contracts/protocol/PoolOrganizer.sol\":422:8364  contract PoolOrganizer is AccessControl, IPoolOrganizer {... */\n      pop\n      dup1\n      dup4\n      and\n        /* \"contracts/contracts/protocol/PoolOrganizer.sol\":8031:8050  vault != address(0) */\n      iszero\n      iszero\n        /* \"contracts/contracts/protocol/PoolOrganizer.sol\":8009:8050  pool != address(0) && vault != address(0) */\n      jump(tag_247)\n        /* \"contracts/contracts/protocol/PoolOrganizer.sol\":422:8364  contract PoolOrganizer is AccessControl, IPoolOrganizer {... */\n    tag_21:\n      jumpi(tag_65, callvalue)\n      jumpi(tag_65, slt(add(not(0x03), calldatasize), 0x20))\n      calldataload(0x04)\n      swap1\n      shl(0xe0, 0xffffffff)\n      dup3\n      and\n      dup1\n      swap3\n      sub\n      tag_65\n      jumpi\n      0x20\n      swap2\n      shl(0xe0, 0x7965db0b)\n        /* \"@openzeppelin/contracts/access/AccessControl.sol\":2673:2720  interfaceId == type(IAccessControl).interfaceId */\n      dup2\n      eq\n      swap1\n        /* \"@openzeppelin/contracts/access/AccessControl.sol\":2673:2760  interfaceId == type(IAccessControl).interfaceId || super.supportsInterface(interfaceId) */\n      dup2\n      iszero\n      tag_259\n      jumpi\n        /* \"contracts/contracts/protocol/PoolOrganizer.sol\":422:8364  contract PoolOrganizer is AccessControl, IPoolOrganizer {... */\n    tag_260:\n      pop\n      iszero\n      iszero\n      dup2\n      mstore\n      return\n        /* \"@openzeppelin/contracts/access/AccessControl.sol\":2673:2760  interfaceId == type(IAccessControl).interfaceId || super.supportsInterface(interfaceId) */\n    tag_259:\n      shl(0xe0, 0x01ffc9a7)\n        /* \"@openzeppelin/contracts/utils/introspection/ERC165.sol\":861:901  interfaceId == type(IERC165).interfaceId */\n      eq\n      swap1\n      pop\n        /* \"@openzeppelin/contracts/access/AccessControl.sol\":2673:2760  interfaceId == type(IAccessControl).interfaceId || super.supportsInterface(interfaceId) */\n      dup4\n      jump(tag_260)\n        /* \"contracts/contracts/protocol/PoolOrganizer.sol\":422:8364  contract PoolOrganizer is AccessControl, IPoolOrganizer {... */\n    tag_1:\n      calldataload(0x04)\n      swap1\n      sub(shl(0xa0, 0x01), 0x01)\n      dup3\n      and\n      dup3\n      sub\n      tag_65\n      jumpi\n      jump\t// out\n    tag_2:\n      calldataload(0x24)\n      swap1\n      sub(shl(0xa0, 0x01), 0x01)\n      dup3\n      and\n      dup3\n      sub\n      tag_65\n      jumpi\n      jump\t// out\n    tag_4:\n      swap1\n      0x02\n      dup3\n      lt\n      iszero\n      tag_187\n      jumpi\n      mstore\n      jump\t// out\n        /* \"@openzeppelin/contracts/access/AccessControl.sol\":3199:3302  function _checkRole(bytes32 role) internal view virtual {... */\n    tag_5:\n        /* \"@openzeppelin/contracts/utils/Context.sol\":735:745  msg.sender */\n      caller\n        /* \"@openzeppelin/contracts/access/AccessControl.sol\":2954:2960  _roles */\n      0x00\n        /* \"contracts/contracts/protocol/PoolOrganizer.sol\":422:8364  contract PoolOrganizer is AccessControl, IPoolOrganizer {... */\n      swap1\n      dup2\n      mstore\n      mstore(0x20, 0x729ef9451dd492832bd2a98139702ced95dfa0cec7e99526dbbcb957abcbc476)\n      0x40\n      swap1\n      keccak256\n      sload\n      0x00\n      dup1\n      mload\n      0x20\n      data_cea5b988323acc73cd81db0e6f2932cdc75f39072539d65cbfa79c56b2a64e51\n      dup4\n      codecopy\n      dup2\n      mload\n      swap2\n      mstore\n        /* \"contracts/contracts/protocol/PoolOrganizer.sol\":528:558  keccak256(\"POOL_MANAGER_ROLE\") */\n      swap1\n        /* \"contracts/contracts/protocol/PoolOrganizer.sol\":422:8364  contract PoolOrganizer is AccessControl, IPoolOrganizer {... */\n      0xff\n      and\n        /* \"@openzeppelin/contracts/access/AccessControl.sol\":3519:3542  !hasRole(role, account) */\n      iszero\n        /* \"@openzeppelin/contracts/access/AccessControl.sol\":3515:3623  if (!hasRole(role, account)) {... */\n      tag_267\n      jumpi\n        /* \"@openzeppelin/contracts/access/AccessControl.sol\":3199:3302  function _checkRole(bytes32 role) internal view virtual {... */\n      pop\n      jump\t// out\n        /* \"@openzeppelin/contracts/access/AccessControl.sol\":3515:3623  if (!hasRole(role, account)) {... */\n    tag_267:\n        /* \"contracts/contracts/protocol/PoolOrganizer.sol\":422:8364  contract PoolOrganizer is AccessControl, IPoolOrganizer {... */\n      0x44\n      swap1\n      mload(0x40)\n        /* \"@openzeppelin/contracts/access/AccessControl.sol\":3565:3612  AccessControlUnauthorizedAccount(account, role) */\n      swap1\n      shl(0xe0, 0xe2517d3f)\n      dup3\n      mstore\n        /* \"@openzeppelin/contracts/utils/Context.sol\":735:745  msg.sender */\n      caller\n        /* \"@openzeppelin/contracts/access/AccessControl.sol\":3565:3612  AccessControlUnauthorizedAccount(account, role) */\n      0x04\n      dup4\n      add\n        /* \"contracts/contracts/protocol/PoolOrganizer.sol\":422:8364  contract PoolOrganizer is AccessControl, IPoolOrganizer {... */\n      mstore\n      0x24\n      dup3\n      add\n      mstore\n        /* \"@openzeppelin/contracts/access/AccessControl.sol\":3565:3612  AccessControlUnauthorizedAccount(account, role) */\n      revert\n        /* \"@openzeppelin/contracts/access/AccessControl.sol\":3199:3302  function _checkRole(bytes32 role) internal view virtual {... */\n    tag_6:\n        /* \"contracts/contracts/protocol/PoolOrganizer.sol\":422:8364  contract PoolOrganizer is AccessControl, IPoolOrganizer {... */\n      dup1\n        /* \"@openzeppelin/contracts/access/AccessControl.sol\":2954:2960  _roles */\n      0x00\n        /* \"contracts/contracts/protocol/PoolOrganizer.sol\":422:8364  contract PoolOrganizer is AccessControl, IPoolOrganizer {... */\n      mstore\n        /* \"@openzeppelin/contracts/access/AccessControl.sol\":2954:2960  _roles */\n      0x00\n        /* \"contracts/contracts/protocol/PoolOrganizer.sol\":422:8364  contract PoolOrganizer is AccessControl, IPoolOrganizer {... */\n      0x20\n      mstore\n      0x40\n        /* \"@openzeppelin/contracts/access/AccessControl.sol\":2954:2960  _roles */\n      0x00\n        /* \"contracts/contracts/protocol/PoolOrganizer.sol\":422:8364  contract PoolOrganizer is AccessControl, IPoolOrganizer {... */\n      keccak256\n        /* \"@openzeppelin/contracts/utils/Context.sol\":735:745  msg.sender */\n      caller\n        /* \"@openzeppelin/contracts/access/AccessControl.sol\":2954:2960  _roles */\n      0x00\n        /* \"contracts/contracts/protocol/PoolOrganizer.sol\":422:8364  contract PoolOrganizer is AccessControl, IPoolOrganizer {... */\n      mstore\n      0x20\n      mstore\n      0xff\n      0x40\n        /* \"@openzeppelin/contracts/access/AccessControl.sol\":2954:2960  _roles */\n      0x00\n        /* \"contracts/contracts/protocol/PoolOrganizer.sol\":422:8364  contract PoolOrganizer is AccessControl, IPoolOrganizer {... */\n      keccak256\n      sload\n      and\n        /* \"@openzeppelin/contracts/access/AccessControl.sol\":3519:3542  !hasRole(role, account) */\n      iszero\n        /* \"@openzeppelin/contracts/access/AccessControl.sol\":3515:3623  if (!hasRole(role, account)) {... */\n      tag_267\n      jumpi\n        /* \"@openzeppelin/contracts/access/AccessControl.sol\":3199:3302  function _checkRole(bytes32 role) internal view virtual {... */\n      pop\n      jump\t// out\n        /* \"@openzeppelin/contracts/access/AccessControl.sol\":6179:6495  function _grantRole(bytes32 role, address account) internal virtual returns (bool) {... */\n    tag_7:\n      sub(shl(0xa0, 0x01), 0x01)\n        /* \"contracts/contracts/protocol/PoolOrganizer.sol\":422:8364  contract PoolOrganizer is AccessControl, IPoolOrganizer {... */\n      and\n        /* \"@openzeppelin/contracts/access/AccessControl.sol\":2954:2960  _roles */\n      0x00\n        /* \"contracts/contracts/protocol/PoolOrganizer.sol\":422:8364  contract PoolOrganizer is AccessControl, IPoolOrganizer {... */\n      dup2\n      dup2\n      mstore\n      mstore(0x20, 0x729ef9451dd492832bd2a98139702ced95dfa0cec7e99526dbbcb957abcbc476)\n      0x40\n      dup2\n      keccak256\n      sload\n        /* \"@openzeppelin/contracts/access/AccessControl.sol\":2954:2960  _roles */\n      swap1\n      swap2\n        /* \"contracts/contracts/protocol/PoolOrganizer.sol\":422:8364  contract PoolOrganizer is AccessControl, IPoolOrganizer {... */\n      swap1\n      0x00\n      dup1\n      mload\n      0x20\n      data_cea5b988323acc73cd81db0e6f2932cdc75f39072539d65cbfa79c56b2a64e51\n      dup4\n      codecopy\n      dup2\n      mload\n      swap2\n      mstore\n        /* \"contracts/contracts/protocol/PoolOrganizer.sol\":528:558  keccak256(\"POOL_MANAGER_ROLE\") */\n      swap1\n        /* \"contracts/contracts/protocol/PoolOrganizer.sol\":422:8364  contract PoolOrganizer is AccessControl, IPoolOrganizer {... */\n      0xff\n      and\n      tag_271\n      jumpi\n      dup1\n      dup4\n      mstore\n      dup3\n      0x20\n      mstore\n      0x40\n      dup4\n      keccak256\n      dup3\n      dup5\n      mstore\n      0x20\n      mstore\n      0x40\n      dup4\n      keccak256\n      0x01\n      not(0xff)\n      dup3\n      sload\n      and\n      or\n      swap1\n      sstore\n        /* \"@openzeppelin/contracts/access/AccessControl.sol\":6370:6410  RoleGranted(role, account, _msgSender()) */\n      0x2f8788117e7eff1d82e926ec794901d17c78024a50270940304540a733656f0d\n        /* \"@openzeppelin/contracts/utils/Context.sol\":735:745  msg.sender */\n      caller\n        /* \"@openzeppelin/contracts/access/AccessControl.sol\":6370:6410  RoleGranted(role, account, _msgSender()) */\n      swap4\n      dup1\n      log4\n        /* \"contracts/contracts/protocol/PoolOrganizer.sol\":422:8364  contract PoolOrganizer is AccessControl, IPoolOrganizer {... */\n      0x01\n        /* \"@openzeppelin/contracts/access/AccessControl.sol\":6424:6435  return true */\n      swap1\n      jump\t// out\n        /* \"@openzeppelin/contracts/access/AccessControl.sol\":6272:6489  if (!hasRole(role, account)) {... */\n    tag_271:\n        /* \"@openzeppelin/contracts/access/AccessControl.sol\":6466:6478  return false */\n      pop\n      pop\n      swap1\n      jump\t// out\n        /* \"@openzeppelin/contracts/access/AccessControl.sol\":6179:6495  function _grantRole(bytes32 role, address account) internal virtual returns (bool) {... */\n    tag_8:\n      swap1\n        /* \"@openzeppelin/contracts/access/AccessControl.sol\":2954:2960  _roles */\n      0x00\n        /* \"contracts/contracts/protocol/PoolOrganizer.sol\":422:8364  contract PoolOrganizer is AccessControl, IPoolOrganizer {... */\n      swap2\n      dup1\n      dup4\n      mstore\n      dup3\n      0x20\n      mstore\n      0x40\n      dup4\n      keccak256\n      swap2\n      0x01\n      dup1\n      0xa0\n      shl\n      sub\n      and\n      swap2\n      dup3\n      dup5\n      mstore\n      0x20\n      mstore\n      0xff\n      0x40\n      dup5\n      keccak256\n      sload\n      and\n        /* \"@openzeppelin/contracts/access/AccessControl.sol\":6276:6299  !hasRole(role, account) */\n      iszero\n        /* \"@openzeppelin/contracts/access/AccessControl.sol\":6272:6489  if (!hasRole(role, account)) {... */\n      0x00\n        /* \"contracts/contracts/protocol/PoolOrganizer.sol\":422:8364  contract PoolOrganizer is AccessControl, IPoolOrganizer {... */\n      eq\n      tag_271\n      jumpi\n      dup1\n      dup4\n      mstore\n      dup3\n      0x20\n      mstore\n      0x40\n      dup4\n      keccak256\n      dup3\n      dup5\n      mstore\n      0x20\n      mstore\n      0x40\n      dup4\n      keccak256\n      0x01\n      not(0xff)\n      dup3\n      sload\n      and\n      or\n      swap1\n      sstore\n        /* \"@openzeppelin/contracts/access/AccessControl.sol\":6370:6410  RoleGranted(role, account, _msgSender()) */\n      0x2f8788117e7eff1d82e926ec794901d17c78024a50270940304540a733656f0d\n        /* \"@openzeppelin/contracts/utils/Context.sol\":735:745  msg.sender */\n      caller\n        /* \"@openzeppelin/contracts/access/AccessControl.sol\":6370:6410  RoleGranted(role, account, _msgSender()) */\n      swap4\n      dup1\n      log4\n        /* \"contracts/contracts/protocol/PoolOrganizer.sol\":422:8364  contract PoolOrganizer is AccessControl, IPoolOrganizer {... */\n      0x01\n        /* \"@openzeppelin/contracts/access/AccessControl.sol\":6424:6435  return true */\n      swap1\n      jump\t// out\n        /* \"@openzeppelin/contracts/access/AccessControl.sol\":6730:7047  function _revokeRole(bytes32 role, address account) internal virtual returns (bool) {... */\n    tag_9:\n      swap1\n        /* \"@openzeppelin/contracts/access/AccessControl.sol\":2954:2960  _roles */\n      0x00\n        /* \"contracts/contracts/protocol/PoolOrganizer.sol\":422:8364  contract PoolOrganizer is AccessControl, IPoolOrganizer {... */\n      swap2\n      dup1\n      dup4\n      mstore\n      dup3\n      0x20\n      mstore\n      0x40\n      dup4\n      keccak256\n      swap2\n      0x01\n      dup1\n      0xa0\n      shl\n      sub\n      and\n      swap2\n      dup3\n      dup5\n      mstore\n      0x20\n      mstore\n      0xff\n      0x40\n      dup5\n      keccak256\n      sload\n      and\n        /* \"@openzeppelin/contracts/access/AccessControl.sol\":6824:7041  if (hasRole(role, account)) {... */\n      0x00\n        /* \"contracts/contracts/protocol/PoolOrganizer.sol\":422:8364  contract PoolOrganizer is AccessControl, IPoolOrganizer {... */\n      eq\n      tag_271\n      jumpi\n      dup1\n      dup4\n      mstore\n      dup3\n      0x20\n      mstore\n      0x40\n      dup4\n      keccak256\n      dup3\n      dup5\n      mstore\n      0x20\n      mstore\n      0x40\n      dup4\n      keccak256\n      not(0xff)\n      dup2\n      sload\n      and\n      swap1\n      sstore\n        /* \"@openzeppelin/contracts/access/AccessControl.sol\":6922:6962  RoleRevoked(role, account, _msgSender()) */\n      0xf6391f5c32d9c69d2a47ea670b442974b53935d1edc7fd64eb21e047a839171b\n        /* \"@openzeppelin/contracts/utils/Context.sol\":735:745  msg.sender */\n      caller\n        /* \"@openzeppelin/contracts/access/AccessControl.sol\":6922:6962  RoleRevoked(role, account, _msgSender()) */\n      swap4\n      dup1\n      log4\n        /* \"contracts/contracts/protocol/PoolOrganizer.sol\":422:8364  contract PoolOrganizer is AccessControl, IPoolOrganizer {... */\n      0x01\n        /* \"@openzeppelin/contracts/access/AccessControl.sol\":6976:6987  return true */\n      swap1\n      jump\t// out\n        /* \"contracts/contracts/protocol/PoolOrganizer.sol\":422:8364  contract PoolOrganizer is AccessControl, IPoolOrganizer {... */\n    tag_10:\n      0x0160\n      dup2\n      add\n      swap1\n      dup2\n      lt\n      0xffffffffffffffff\n      dup3\n      gt\n      or\n      tag_193\n      jumpi\n      0x40\n      mstore\n      jump\t// out\n    tag_11:\n      0x02\n      dup3\n      lt\n      iszero\n      tag_187\n      jumpi\n      mstore\n      jump\t// out\n    tag_12:\n      sload(0x03)\n      dup2\n      lt\n      iszero\n      tag_281\n      jumpi\n      mstore(0x00, 0x03)\n      0xc2575a0e9e593c00f959f8c92f12db2869c3395a3b0502d05e2516446f71f85b\n      add\n      swap1\n      0x00\n      swap1\n      jump\t// out\n    tag_281:\n      mstore(0x00, shl(0xe0, 0x4e487b71))\n      mstore(0x04, 0x32)\n      revert(0x00, 0x24)\n    tag_13:\n      dup1\n      sload\n      dup3\n      lt\n      iszero\n      tag_281\n      jumpi\n      0x00\n      mstore\n      keccak256(0x00, 0x20)\n      add\n      swap1\n      0x00\n      swap1\n      jump\t// out\n    tag_16:\n      iszero\n      tag_285\n      jumpi\n      jump\t// out\n    tag_285:\n      mload(0x40)\n      shl(0xe5, 0x461bcd)\n      dup2\n      mstore\n      0x20\n      0x04\n      dup3\n      add\n      mstore\n      0x13\n      0x24\n      dup3\n      add\n      mstore\n      shl(0x6a, 0x141bdbdb081b9bdd081c9959da5cdd195c9959)\n      0x44\n      dup3\n      add\n      mstore\n      0x64\n      swap1\n      revert\n        /* \"contracts/contracts/protocol/PoolOrganizer.sol\":7284:7583  function findIndexInArray(address[] storage array, address target)... */\n    tag_17:\n        /* \"contracts/contracts/protocol/PoolOrganizer.sol\":7437:7438  0 */\n      0x00\n        /* \"contracts/contracts/protocol/PoolOrganizer.sol\":7425:7438  uint256 i = 0 */\n      dup1\n        /* \"contracts/contracts/protocol/PoolOrganizer.sol\":422:8364  contract PoolOrganizer is AccessControl, IPoolOrganizer {... */\n      swap2\n      0x03\n      dup1\n      sload\n        /* \"contracts/contracts/protocol/PoolOrganizer.sol\":7420:7520  for (uint256 i = 0; i < array.length; i++) {... */\n      swap4\n        /* \"contracts/contracts/protocol/PoolOrganizer.sol\":7440:7456  i < array.length */\n    tag_287:\n      dup5\n      dup2\n      lt\n      tag_288\n      jumpi\n        /* \"contracts/contracts/protocol/PoolOrganizer.sol\":422:8364  contract PoolOrganizer is AccessControl, IPoolOrganizer {... */\n      pop\n      pop\n      pop\n      pop\n      pop\n      not(0x00)\n        /* \"contracts/contracts/protocol/PoolOrganizer.sol\":7284:7583  function findIndexInArray(address[] storage array, address target)... */\n      swap1\n      jump\t// out\n        /* \"contracts/contracts/protocol/PoolOrganizer.sol\":7458:7461  i++ */\n    tag_288:\n        /* \"contracts/contracts/protocol/PoolOrganizer.sol\":7481:7489  array[i] */\n      tag_290\n      dup2\n      tag_12\n      jump\t// in\n    tag_290:\n        /* \"contracts/contracts/protocol/PoolOrganizer.sol\":422:8364  contract PoolOrganizer is AccessControl, IPoolOrganizer {... */\n      swap1\n      sload\n      swap1\n      dup4\n      shl\n      shr\n      sub(shl(0xa0, 0x01), 0x01)\n      swap1\n      dup2\n      and\n      swap1\n      dup5\n      and\n        /* \"contracts/contracts/protocol/PoolOrganizer.sol\":7481:7499  array[i] == target */\n      eq\n        /* \"contracts/contracts/protocol/PoolOrganizer.sol\":7477:7509  if (array[i] == target) return i */\n      tag_291\n      jumpi\n      not(0x00)\n        /* \"contracts/contracts/protocol/PoolOrganizer.sol\":422:8364  contract PoolOrganizer is AccessControl, IPoolOrganizer {... */\n      dup2\n      eq\n      tag_293\n      jumpi\n      0x01\n      add\n        /* \"contracts/contracts/protocol/PoolOrganizer.sol\":7425:7438  uint256 i = 0 */\n      jump(tag_287)\n        /* \"contracts/contracts/protocol/PoolOrganizer.sol\":422:8364  contract PoolOrganizer is AccessControl, IPoolOrganizer {... */\n    tag_293:\n      shl(0xe0, 0x4e487b71)\n      dup5\n      mstore\n      mstore(0x04, 0x11)\n      0x24\n      dup5\n      revert\n        /* \"contracts/contracts/protocol/PoolOrganizer.sol\":7477:7509  if (array[i] == target) return i */\n    tag_291:\n        /* \"contracts/contracts/protocol/PoolOrganizer.sol\":7501:7509  return i */\n      swap4\n      pop\n      pop\n      pop\n      pop\n      swap1\n      jump\t// out\n        /* \"contracts/contracts/protocol/PoolOrganizer.sol\":7284:7583  function findIndexInArray(address[] storage array, address target)... */\n    tag_18:\n      swap2\n        /* \"contracts/contracts/protocol/PoolOrganizer.sol\":7437:7438  0 */\n      0x00\n        /* \"contracts/contracts/protocol/PoolOrganizer.sol\":7425:7438  uint256 i = 0 */\n      swap2\n      dup3\n        /* \"contracts/contracts/protocol/PoolOrganizer.sol\":7458:7461  i++ */\n    tag_295:\n        /* \"contracts/contracts/protocol/PoolOrganizer.sol\":422:8364  contract PoolOrganizer is AccessControl, IPoolOrganizer {... */\n      dup5\n      sload\n        /* \"contracts/contracts/protocol/PoolOrganizer.sol\":7440:7456  i < array.length */\n      dup2\n      lt\n      iszero\n      tag_296\n      jumpi\n        /* \"contracts/contracts/protocol/PoolOrganizer.sol\":7481:7489  array[i] */\n      tag_298\n      dup2\n      dup7\n      tag_13\n      jump\t// in\n    tag_298:\n        /* \"contracts/contracts/protocol/PoolOrganizer.sol\":422:8364  contract PoolOrganizer is AccessControl, IPoolOrganizer {... */\n      swap1\n      sload\n      0x03\n      swap2\n      swap1\n      swap2\n      shl\n      shr\n      sub(shl(0xa0, 0x01), 0x01)\n      swap1\n      dup2\n      and\n      swap1\n      dup4\n      and\n        /* \"contracts/contracts/protocol/PoolOrganizer.sol\":7481:7499  array[i] == target */\n      eq\n        /* \"contracts/contracts/protocol/PoolOrganizer.sol\":7477:7509  if (array[i] == target) return i */\n      tag_299\n      jumpi\n      not(0x00)\n        /* \"contracts/contracts/protocol/PoolOrganizer.sol\":422:8364  contract PoolOrganizer is AccessControl, IPoolOrganizer {... */\n      dup2\n      eq\n      tag_293\n      jumpi\n      0x01\n      add\n        /* \"contracts/contracts/protocol/PoolOrganizer.sol\":7425:7438  uint256 i = 0 */\n      jump(tag_295)\n        /* \"contracts/contracts/protocol/PoolOrganizer.sol\":7477:7509  if (array[i] == target) return i */\n    tag_299:\n        /* \"contracts/contracts/protocol/PoolOrganizer.sol\":7501:7509  return i */\n      swap3\n      pop\n      pop\n      swap2\n      pop\n      swap1\n      jump\t// out\n        /* \"contracts/contracts/protocol/PoolOrganizer.sol\":7440:7456  i < array.length */\n    tag_296:\n      pop\n      pop\n      swap2\n      pop\n      pop\n        /* \"contracts/contracts/protocol/PoolOrganizer.sol\":422:8364  contract PoolOrganizer is AccessControl, IPoolOrganizer {... */\n      not(0x00)\n        /* \"contracts/contracts/protocol/PoolOrganizer.sol\":7284:7583  function findIndexInArray(address[] storage array, address target)... */\n      swap1\n      jump\t// out\n    stop\n    data_cea5b988323acc73cd81db0e6f2932cdc75f39072539d65cbfa79c56b2a64e51 6077685936c8169d09204a1d97db12e41713588c38e1d29a61867d3dcee98aff\n\n    auxdata: 0xa2646970667358221220fb5d92765489ab15f32d4afe74332568398a4068b84c9f66f7c536cd07074a2564736f6c63430008140033\n}\n",
				"bytecode": {
					"linkReferences": {},
					"object": "60806040523461002c5761001233610030565b5061001c336100ac565b5060405161145d908161014b8239f35b5f80fd5b6001600160a01b03165f8181527fad3228b676f7d3cd4284a5443f17f1962b36e491b30a40b2405849e597ba5fb5602052604081205490919060ff166100a857818052816020526040822081835260205260408220600160ff1982541617905533915f805160206115a88339815191528180a4600190565b5090565b6001600160a01b03165f8181527f729ef9451dd492832bd2a98139702ced95dfa0cec7e99526dbbcb957abcbc47660205260408120549091907f6077685936c8169d09204a1d97db12e41713588c38e1d29a61867d3dcee98aff9060ff1661014557808352826020526040832082845260205260408320600160ff198254161790555f805160206115a8833981519152339380a4600190565b50509056fe6080806040526004361015610012575f80fd5b5f3560e01c90816301ffc9a714610fe55750806305c4fdf914610e915780630f4ef8a614610e695780631e4966ab14610e30578063248a9ca314610e0457806324a44efb14610d415780632f2ff15d14610d0557806336568abe14610cbe578063437560201461092957806356d73568146109025780635d102df71461082b5780637570e3891461078b5780637e72c7d7146105785780638a4adf241461055057806391d1485414610508578063a217fddf146104ee578063a8d088bb146104bb578063c489579d14610328578063d3e90fa014610162578063d3ffe67a146101455763d547741f14610103575f80fd5b346101415760403660031901126101415761013f60043561012261104e565b90805f525f60205261013a600160405f2001546110d7565b61120d565b005b5f80fd5b34610141575f366003190112610141576020600354604051908152f35b346101415760203660031901126101415761017b611038565b5f61014060405161018b81611280565b8281528260208201528260408201528260608201528260808201528260a08201528260c08201528260e08201528261010082015282610120820152015260018060a01b0316805f5260046020526101ef60018060a01b0360405f2054161515611307565b5f52600460205261016060405f2061029260ff600a6040519361021185611280565b80546001600160a01b039081168652600182015481166020870152600282015460408701526003820154811660608701526004820154811660808701526005820154811660a087015260068201541660c0860152600781015460e086015260088101546101008601526009810154610120860152015416610140830161129d565b6040805182516001600160a01b039081168252602080850151821690830152838301519282019290925260608084015183169082015260808084015183169082015260a08084015183169082015260c0808401519092169181019190915260e08083015190820152610100808301519082015261012080830151908201526101409182015190916103269190830190611064565bf35b3461014157604036600319011261014157610341611038565b61034961104e565b335f9081527fad3228b676f7d3cd4284a5443f17f1962b36e491b30a40b2405849e597ba5fb5602052604090205460ff161561049d576001600160a01b038281169290831561044c57821680156103fb57600180546001600160a01b03199081169590951790556002805490941617909255604080516001600160a01b0393841681529190921660208201527f8fc18cc172f74c81235145b7927190d2bd0e351fc45bfb17bb572593273cef219190a1005b60405162461bcd60e51b8152602060048201526024808201527f5265776172644d616e616765722063616e6e6f74206265207a65726f206164646044820152637265737360e01b6064820152608490fd5b60405162461bcd60e51b815260206004820152602360248201527f5661756c744d616e616765722063616e6e6f74206265207a65726f206164647260448201526265737360e81b6064820152608490fd5b60405163e2517d3f60e01b81523360048201525f6024820152604490fd5b34610141575f36600319011261014157600154600254604080516001600160a01b03938416815292909116602083015290f35b34610141575f3660031901126101415760206040515f8152f35b346101415760403660031901126101415761052161104e565b6004355f525f60205260405f209060018060a01b03165f52602052602060ff60405f2054166040519015158152f35b34610141575f366003190112610141576001546040516001600160a01b039091168152602090f35b346101415760208060031936011261014157610592611038565b9061059b611071565b60018060a01b039081831692835f52600482526105bf8360405f2054161515611307565b835f52600482528260405f205416805f526005938484526105e38360405f206113b1565b92825f5285855260405f2054925f19938481019081116107775761062b958461061861065293855f528b8b5260405f206112f2565b98905492855f528b8b5260405f206112f2565b9190926003998a1b1c169082549060031b9160018060a01b03809116831b921b1916179055565b5f5285855260405f20908154918215610763578461069493019061068e61067983836112f2565b81549060018060a01b039060031b1b19169055565b55611349565b8354838101908111610777576106dc926106b06106bd926112a9565b905490871b1c16916112a9565b90919082549060031b9160018060a01b03809116831b921b1916179055565b8154938415610763576004600a945f96938794016106fc610679826112a9565b85558784525281604081209381855581600186015581600286015584015581600484015582015582600682015582600782015582600882015582600982015501557f334d0b2111287dfddebe4b4c1c5af3ae644909d7fcd024377bf601e236ed5abb5f80a2005b634e487b7160e01b5f52603160045260245ffd5b634e487b7160e01b5f52601160045260245ffd5b34610141576020366003190112610141576001600160a01b03806107ad611038565b1690815f5260066020528060405f205416156107da576020915f526006825260405f205416604051908152f35b60405162461bcd60e51b815260206004820152602360248201527f506f6f6c206e6f742072656769737465726564206f7220686173206e6f2076616044820152621d5b1d60ea1b6064820152608490fd5b3461014157602036600319011261014157610844611038565b335f9081527fad3228b676f7d3cd4284a5443f17f1962b36e491b30a40b2405849e597ba5fb5602052604090205460ff16156108c4575f805160206114088339815191525f9081526020527f729ef9451dd492832bd2a98139702ced95dfa0cec7e99526dbbcb957abcbc4775461013f91906108bf906110d7565b6110f8565b60405162461bcd60e51b815260206004820152601660248201527521b0b63632b91034b9903737ba1030b71030b236b4b760511b6044820152606490fd5b34610141575f3660031901126101415760206040515f805160206114088339815191528152f35b346101415761016036600319011261014157610943611038565b61094b61104e565b906044356001600160a01b038116810361014157606435906001600160a01b0382168203610141576084356001600160a01b03811681036101415760a4356001600160a01b03811681036101415760c435906001600160a01b0382168203610141576002610144351015610141576109c1611071565b6001600160a01b03861615610c79576001600160a01b038681165f9081526004602052604090205416610c3457604051926109fb84611280565b6001600160a01b03888116855285811660208601524260408601528681166060860152908116608085015290811660a08401521660c082015260e43560e08201526101043561010082015261012435610120820152610a6161014435610140830161129d565b60018060a01b0384165f526004602052610140600a60405f2060018060a01b038451166bffffffffffffffffffffffff60a01b90818354161782556001820160018060a01b0360208701511682825416179055604085015160028301556003820160018060a01b03606087015116828254161790556004820160018060a01b03608087015116828254161790556005820160018060a01b0360a08701511682825416179055600682019060018060a01b0360c0870151169082541617905560e0840151600782015561010084015160088201556101208401516009820155019101516002811015610c205760ff8019835416911617905560018060a01b0384165f52600560205260405f20805490680100000000000000009182811015610c0c576106bd81610b9693600189940181556112f2565b60035490811015610c0c577f8f723e49dc038e67c41b41307a1e0c65653d50125a0c474a21ac32d9a0b24d2b91610bd9856106bd846001604096016003556112a9565b81516001600160a01b039094168452610bf86020850161014435611064565b6001600160a01b03908116958116941692a4005b634e487b7160e01b5f52604160045260245ffd5b634e487b7160e01b5f52602160045260245ffd5b60405162461bcd60e51b815260206004820152601760248201527f506f6f6c20616c726561647920726567697374657265640000000000000000006044820152606490fd5b60405162461bcd60e51b815260206004820152601b60248201527f506f6f6c20616464726573732063616e6e6f74206265207a65726f00000000006044820152606490fd5b3461014157604036600319011261014157610cd761104e565b336001600160a01b03821603610cf35761013f9060043561120d565b60405163334bd91960e11b8152600490fd5b346101415760403660031901126101415761013f600435610d2461104e565b90805f525f602052610d3c600160405f2001546110d7565b611196565b3461014157602080600319360112610141576001600160a01b039081610d65611038565b165f526005815260405f206040518083835491828152019081935f52845f20905f5b86828210610dee5750505050819003601f01601f191681019267ffffffffffffffff841182851017610c0c57908360405281840190828552518091526040840192915f5b828110610dd85785850386f35b8351871685529381019392810192600101610dcb565b8354891685529093019260019283019201610d87565b34610141576020366003190112610141576004355f525f6020526020600160405f200154604051908152f35b346101415760203660031901126101415760206001600160a01b0380610e54611038565b165f526006825260405f205416604051908152f35b34610141575f366003190112610141576002546040516001600160a01b039091168152602090f35b3461014157604036600319011261014157610eaa611038565b610eb261104e565b90610ebb611071565b6001600160a01b039081169081151580610fda575b15610fa157815f526004602052610eee8160405f2054161515611307565b815f5260066020528060405f205416610f4d57815f52600660205260405f20921691826bffffffffffffffffffffffff60a01b8254161790557ff8ee9039d8e4d43426638703c71517008894fdea742bb2d2dbff5a46fb07abdb5f80a3005b60405162461bcd60e51b815260206004820152602660248201527f5661756c7420616c7265616479207265676973746572656420666f72207468696044820152651cc81c1bdbdb60d21b6064820152608490fd5b60405162461bcd60e51b8152602060048201526011602482015270496e76616c69642061646472657373657360781b6044820152606490fd5b508083161515610ed0565b34610141576020366003190112610141576004359063ffffffff60e01b821680920361014157602091637965db0b60e01b8114908115611027575b5015158152f35b6301ffc9a760e01b14905083611020565b600435906001600160a01b038216820361014157565b602435906001600160a01b038216820361014157565b906002821015610c205752565b335f9081527f729ef9451dd492832bd2a98139702ced95dfa0cec7e99526dbbcb957abcbc47660205260409020545f805160206114088339815191529060ff16156110b95750565b6044906040519063e2517d3f60e01b82523360048301526024820152fd5b805f525f60205260405f20335f5260205260ff60405f205416156110b95750565b6001600160a01b03165f8181527f729ef9451dd492832bd2a98139702ced95dfa0cec7e99526dbbcb957abcbc47660205260408120549091905f805160206114088339815191529060ff1661119157808352826020526040832082845260205260408320600160ff198254161790557f2f8788117e7eff1d82e926ec794901d17c78024a50270940304540a733656f0d339380a4600190565b505090565b905f9180835282602052604083209160018060a01b03169182845260205260ff604084205416155f1461119157808352826020526040832082845260205260408320600160ff198254161790557f2f8788117e7eff1d82e926ec794901d17c78024a50270940304540a733656f0d339380a4600190565b905f9180835282602052604083209160018060a01b03169182845260205260ff6040842054165f146111915780835282602052604083208284526020526040832060ff1981541690557ff6391f5c32d9c69d2a47ea670b442974b53935d1edc7fd64eb21e047a839171b339380a4600190565b610160810190811067ffffffffffffffff821117610c0c57604052565b6002821015610c205752565b6003548110156112de5760035f527fc2575a0e9e593c00f959f8c92f12db2869c3395a3b0502d05e2516446f71f85b01905f90565b634e487b7160e01b5f52603260045260245ffd5b80548210156112de575f5260205f2001905f90565b1561130e57565b60405162461bcd60e51b8152602060048201526013602482015272141bdbdb081b9bdd081c9959da5cdd195c9959606a1b6044820152606490fd5b5f809160038054935b8481106113635750505050505f1990565b61136c816112a9565b905490831b1c6001600160a01b03908116908416146113a9575f19811461139557600101611352565b634e487b7160e01b84526011600452602484fd5b935050505090565b915f91825b84548110156113fd576113c981866112f2565b905460039190911b1c6001600160a01b03908116908316146113f5575f198114611395576001016113b6565b925050915090565b50509150505f199056fe6077685936c8169d09204a1d97db12e41713588c38e1d29a61867d3dcee98affa2646970667358221220fb5d92765489ab15f32d4afe74332568398a4068b84c9f66f7c536cd07074a2564736f6c634300081400332f8788117e7eff1d82e926ec794901d17c78024a50270940304540a733656f0d",
					"opcodes": "PUSH1 0x80 PUSH1 0x40 MSTORE CALLVALUE PUSH2 0x2C JUMPI PUSH2 0x12 CALLER PUSH2 0x30 JUMP JUMPDEST POP PUSH2 0x1C CALLER PUSH2 0xAC JUMP JUMPDEST POP PUSH1 0x40 MLOAD PUSH2 0x145D SWAP1 DUP2 PUSH2 0x14B DUP3 CODECOPY RETURN JUMPDEST PUSH0 DUP1 REVERT JUMPDEST PUSH1 0x1 PUSH1 0x1 PUSH1 0xA0 SHL SUB AND PUSH0 DUP2 DUP2 MSTORE PUSH32 0xAD3228B676F7D3CD4284A5443F17F1962B36E491B30A40B2405849E597BA5FB5 PUSH1 0x20 MSTORE PUSH1 0x40 DUP2 KECCAK256 SLOAD SWAP1 SWAP2 SWAP1 PUSH1 0xFF AND PUSH2 0xA8 JUMPI DUP2 DUP1 MSTORE DUP2 PUSH1 0x20 MSTORE PUSH1 0x40 DUP3 KECCAK256 DUP2 DUP4 MSTORE PUSH1 0x20 MSTORE PUSH1 0x40 DUP3 KECCAK256 PUSH1 0x1 PUSH1 0xFF NOT DUP3 SLOAD AND OR SWAP1 SSTORE CALLER SWAP2 PUSH0 DUP1 MLOAD PUSH1 0x20 PUSH2 0x15A8 DUP4 CODECOPY DUP2 MLOAD SWAP2 MSTORE DUP2 DUP1 LOG4 PUSH1 0x1 SWAP1 JUMP JUMPDEST POP SWAP1 JUMP JUMPDEST PUSH1 0x1 PUSH1 0x1 PUSH1 0xA0 SHL SUB AND PUSH0 DUP2 DUP2 MSTORE PUSH32 0x729EF9451DD492832BD2A98139702CED95DFA0CEC7E99526DBBCB957ABCBC476 PUSH1 0x20 MSTORE PUSH1 0x40 DUP2 KECCAK256 SLOAD SWAP1 SWAP2 SWAP1 PUSH32 0x6077685936C8169D09204A1D97DB12E41713588C38E1D29A61867D3DCEE98AFF SWAP1 PUSH1 0xFF AND PUSH2 0x145 JUMPI DUP1 DUP4 MSTORE DUP3 PUSH1 0x20 MSTORE PUSH1 0x40 DUP4 KECCAK256 DUP3 DUP5 MSTORE PUSH1 0x20 MSTORE PUSH1 0x40 DUP4 KECCAK256 PUSH1 0x1 PUSH1 0xFF NOT DUP3 SLOAD AND OR SWAP1 SSTORE PUSH0 DUP1 MLOAD PUSH1 0x20 PUSH2 0x15A8 DUP4 CODECOPY DUP2 MLOAD SWAP2 MSTORE CALLER SWAP4 DUP1 LOG4 PUSH1 0x1 SWAP1 JUMP JUMPDEST POP POP SWAP1 JUMP INVALID PUSH1 0x80 DUP1 PUSH1 0x40 MSTORE PUSH1 0x4 CALLDATASIZE LT ISZERO PUSH2 0x12 JUMPI PUSH0 DUP1 REVERT JUMPDEST PUSH0 CALLDATALOAD PUSH1 0xE0 SHR SWAP1 DUP2 PUSH4 0x1FFC9A7 EQ PUSH2 0xFE5 JUMPI POP DUP1 PUSH4 0x5C4FDF9 EQ PUSH2 0xE91 JUMPI DUP1 PUSH4 0xF4EF8A6 EQ PUSH2 0xE69 JUMPI DUP1 PUSH4 0x1E4966AB EQ PUSH2 0xE30 JUMPI DUP1 PUSH4 0x248A9CA3 EQ PUSH2 0xE04 JUMPI DUP1 PUSH4 0x24A44EFB EQ PUSH2 0xD41 JUMPI DUP1 PUSH4 0x2F2FF15D EQ PUSH2 0xD05 JUMPI DUP1 PUSH4 0x36568ABE EQ PUSH2 0xCBE JUMPI DUP1 PUSH4 0x43756020 EQ PUSH2 0x929 JUMPI DUP1 PUSH4 0x56D73568 EQ PUSH2 0x902 JUMPI DUP1 PUSH4 0x5D102DF7 EQ PUSH2 0x82B JUMPI DUP1 PUSH4 0x7570E389 EQ PUSH2 0x78B JUMPI DUP1 PUSH4 0x7E72C7D7 EQ PUSH2 0x578 JUMPI DUP1 PUSH4 0x8A4ADF24 EQ PUSH2 0x550 JUMPI DUP1 PUSH4 0x91D14854 EQ PUSH2 0x508 JUMPI DUP1 PUSH4 0xA217FDDF EQ PUSH2 0x4EE JUMPI DUP1 PUSH4 0xA8D088BB EQ PUSH2 0x4BB JUMPI DUP1 PUSH4 0xC489579D EQ PUSH2 0x328 JUMPI DUP1 PUSH4 0xD3E90FA0 EQ PUSH2 0x162 JUMPI DUP1 PUSH4 0xD3FFE67A EQ PUSH2 0x145 JUMPI PUSH4 0xD547741F EQ PUSH2 0x103 JUMPI PUSH0 DUP1 REVERT JUMPDEST CALLVALUE PUSH2 0x141 JUMPI PUSH1 0x40 CALLDATASIZE PUSH1 0x3 NOT ADD SLT PUSH2 0x141 JUMPI PUSH2 0x13F PUSH1 0x4 CALLDATALOAD PUSH2 0x122 PUSH2 0x104E JUMP JUMPDEST SWAP1 DUP1 PUSH0 MSTORE PUSH0 PUSH1 0x20 MSTORE PUSH2 0x13A PUSH1 0x1 PUSH1 0x40 PUSH0 KECCAK256 ADD SLOAD PUSH2 0x10D7 JUMP JUMPDEST PUSH2 0x120D JUMP JUMPDEST STOP JUMPDEST PUSH0 DUP1 REVERT JUMPDEST CALLVALUE PUSH2 0x141 JUMPI PUSH0 CALLDATASIZE PUSH1 0x3 NOT ADD SLT PUSH2 0x141 JUMPI PUSH1 0x20 PUSH1 0x3 SLOAD PUSH1 0x40 MLOAD SWAP1 DUP2 MSTORE RETURN JUMPDEST CALLVALUE PUSH2 0x141 JUMPI PUSH1 0x20 CALLDATASIZE PUSH1 0x3 NOT ADD SLT PUSH2 0x141 JUMPI PUSH2 0x17B PUSH2 0x1038 JUMP JUMPDEST PUSH0 PUSH2 0x140 PUSH1 0x40 MLOAD PUSH2 0x18B DUP2 PUSH2 0x1280 JUMP JUMPDEST DUP3 DUP2 MSTORE DUP3 PUSH1 0x20 DUP3 ADD MSTORE DUP3 PUSH1 0x40 DUP3 ADD MSTORE DUP3 PUSH1 0x60 DUP3 ADD MSTORE DUP3 PUSH1 0x80 DUP3 ADD MSTORE DUP3 PUSH1 0xA0 DUP3 ADD MSTORE DUP3 PUSH1 0xC0 DUP3 ADD MSTORE DUP3 PUSH1 0xE0 DUP3 ADD MSTORE DUP3 PUSH2 0x100 DUP3 ADD MSTORE DUP3 PUSH2 0x120 DUP3 ADD MSTORE ADD MSTORE PUSH1 0x1 DUP1 PUSH1 0xA0 SHL SUB AND DUP1 PUSH0 MSTORE PUSH1 0x4 PUSH1 0x20 MSTORE PUSH2 0x1EF PUSH1 0x1 DUP1 PUSH1 0xA0 SHL SUB PUSH1 0x40 PUSH0 KECCAK256 SLOAD AND ISZERO ISZERO PUSH2 0x1307 JUMP JUMPDEST PUSH0 MSTORE PUSH1 0x4 PUSH1 0x20 MSTORE PUSH2 0x160 PUSH1 0x40 PUSH0 KECCAK256 PUSH2 0x292 PUSH1 0xFF PUSH1 0xA PUSH1 0x40 MLOAD SWAP4 PUSH2 0x211 DUP6 PUSH2 0x1280 JUMP JUMPDEST DUP1 SLOAD PUSH1 0x1 PUSH1 0x1 PUSH1 0xA0 SHL SUB SWAP1 DUP2 AND DUP7 MSTORE PUSH1 0x1 DUP3 ADD SLOAD DUP2 AND PUSH1 0x20 DUP8 ADD MSTORE PUSH1 0x2 DUP3 ADD SLOAD PUSH1 0x40 DUP8 ADD MSTORE PUSH1 0x3 DUP3 ADD SLOAD DUP2 AND PUSH1 0x60 DUP8 ADD MSTORE PUSH1 0x4 DUP3 ADD SLOAD DUP2 AND PUSH1 0x80 DUP8 ADD MSTORE PUSH1 0x5 DUP3 ADD SLOAD DUP2 AND PUSH1 0xA0 DUP8 ADD MSTORE PUSH1 0x6 DUP3 ADD SLOAD AND PUSH1 0xC0 DUP7 ADD MSTORE PUSH1 0x7 DUP2 ADD SLOAD PUSH1 0xE0 DUP7 ADD MSTORE PUSH1 0x8 DUP2 ADD SLOAD PUSH2 0x100 DUP7 ADD MSTORE PUSH1 0x9 DUP2 ADD SLOAD PUSH2 0x120 DUP7 ADD MSTORE ADD SLOAD AND PUSH2 0x140 DUP4 ADD PUSH2 0x129D JUMP JUMPDEST PUSH1 0x40 DUP1 MLOAD DUP3 MLOAD PUSH1 0x1 PUSH1 0x1 PUSH1 0xA0 SHL SUB SWAP1 DUP2 AND DUP3 MSTORE PUSH1 0x20 DUP1 DUP6 ADD MLOAD DUP3 AND SWAP1 DUP4 ADD MSTORE DUP4 DUP4 ADD MLOAD SWAP3 DUP3 ADD SWAP3 SWAP1 SWAP3 MSTORE PUSH1 0x60 DUP1 DUP5 ADD MLOAD DUP4 AND SWAP1 DUP3 ADD MSTORE PUSH1 0x80 DUP1 DUP5 ADD MLOAD DUP4 AND SWAP1 DUP3 ADD MSTORE PUSH1 0xA0 DUP1 DUP5 ADD MLOAD DUP4 AND SWAP1 DUP3 ADD MSTORE PUSH1 0xC0 DUP1 DUP5 ADD MLOAD SWAP1 SWAP3 AND SWAP2 DUP2 ADD SWAP2 SWAP1 SWAP2 MSTORE PUSH1 0xE0 DUP1 DUP4 ADD MLOAD SWAP1 DUP3 ADD MSTORE PUSH2 0x100 DUP1 DUP4 ADD MLOAD SWAP1 DUP3 ADD MSTORE PUSH2 0x120 DUP1 DUP4 ADD MLOAD SWAP1 DUP3 ADD MSTORE PUSH2 0x140 SWAP2 DUP3 ADD MLOAD SWAP1 SWAP2 PUSH2 0x326 SWAP2 SWAP1 DUP4 ADD SWAP1 PUSH2 0x1064 JUMP JUMPDEST RETURN JUMPDEST CALLVALUE PUSH2 0x141 JUMPI PUSH1 0x40 CALLDATASIZE PUSH1 0x3 NOT ADD SLT PUSH2 0x141 JUMPI PUSH2 0x341 PUSH2 0x1038 JUMP JUMPDEST PUSH2 0x349 PUSH2 0x104E JUMP JUMPDEST CALLER PUSH0 SWAP1 DUP2 MSTORE PUSH32 0xAD3228B676F7D3CD4284A5443F17F1962B36E491B30A40B2405849E597BA5FB5 PUSH1 0x20 MSTORE PUSH1 0x40 SWAP1 KECCAK256 SLOAD PUSH1 0xFF AND ISZERO PUSH2 0x49D JUMPI PUSH1 0x1 PUSH1 0x1 PUSH1 0xA0 SHL SUB DUP3 DUP2 AND SWAP3 SWAP1 DUP4 ISZERO PUSH2 0x44C JUMPI DUP3 AND DUP1 ISZERO PUSH2 0x3FB JUMPI PUSH1 0x1 DUP1 SLOAD PUSH1 0x1 PUSH1 0x1 PUSH1 0xA0 SHL SUB NOT SWAP1 DUP2 AND SWAP6 SWAP1 SWAP6 OR SWAP1 SSTORE PUSH1 0x2 DUP1 SLOAD SWAP1 SWAP5 AND OR SWAP1 SWAP3 SSTORE PUSH1 0x40 DUP1 MLOAD PUSH1 0x1 PUSH1 0x1 PUSH1 0xA0 SHL SUB SWAP4 DUP5 AND DUP2 MSTORE SWAP2 SWAP1 SWAP3 AND PUSH1 0x20 DUP3 ADD MSTORE PUSH32 0x8FC18CC172F74C81235145B7927190D2BD0E351FC45BFB17BB572593273CEF21 SWAP2 SWAP1 LOG1 STOP JUMPDEST PUSH1 0x40 MLOAD PUSH3 0x461BCD PUSH1 0xE5 SHL DUP2 MSTORE PUSH1 0x20 PUSH1 0x4 DUP3 ADD MSTORE PUSH1 0x24 DUP1 DUP3 ADD MSTORE PUSH32 0x5265776172644D616E616765722063616E6E6F74206265207A65726F20616464 PUSH1 0x44 DUP3 ADD MSTORE PUSH4 0x72657373 PUSH1 0xE0 SHL PUSH1 0x64 DUP3 ADD MSTORE PUSH1 0x84 SWAP1 REVERT JUMPDEST PUSH1 0x40 MLOAD PUSH3 0x461BCD PUSH1 0xE5 SHL DUP2 MSTORE PUSH1 0x20 PUSH1 0x4 DUP3 ADD MSTORE PUSH1 0x23 PUSH1 0x24 DUP3 ADD MSTORE PUSH32 0x5661756C744D616E616765722063616E6E6F74206265207A65726F2061646472 PUSH1 0x44 DUP3 ADD MSTORE PUSH3 0x657373 PUSH1 0xE8 SHL PUSH1 0x64 DUP3 ADD MSTORE PUSH1 0x84 SWAP1 REVERT JUMPDEST PUSH1 0x40 MLOAD PUSH4 0xE2517D3F PUSH1 0xE0 SHL DUP2 MSTORE CALLER PUSH1 0x4 DUP3 ADD MSTORE PUSH0 PUSH1 0x24 DUP3 ADD MSTORE PUSH1 0x44 SWAP1 REVERT JUMPDEST CALLVALUE PUSH2 0x141 JUMPI PUSH0 CALLDATASIZE PUSH1 0x3 NOT ADD SLT PUSH2 0x141 JUMPI PUSH1 0x1 SLOAD PUSH1 0x2 SLOAD PUSH1 0x40 DUP1 MLOAD PUSH1 0x1 PUSH1 0x1 PUSH1 0xA0 SHL SUB SWAP4 DUP5 AND DUP2 MSTORE SWAP3 SWAP1 SWAP2 AND PUSH1 0x20 DUP4 ADD MSTORE SWAP1 RETURN JUMPDEST CALLVALUE PUSH2 0x141 JUMPI PUSH0 CALLDATASIZE PUSH1 0x3 NOT ADD SLT PUSH2 0x141 JUMPI PUSH1 0x20 PUSH1 0x40 MLOAD PUSH0 DUP2 MSTORE RETURN JUMPDEST CALLVALUE PUSH2 0x141 JUMPI PUSH1 0x40 CALLDATASIZE PUSH1 0x3 NOT ADD SLT PUSH2 0x141 JUMPI PUSH2 0x521 PUSH2 0x104E JUMP JUMPDEST PUSH1 0x4 CALLDATALOAD PUSH0 MSTORE PUSH0 PUSH1 0x20 MSTORE PUSH1 0x40 PUSH0 KECCAK256 SWAP1 PUSH1 0x1 DUP1 PUSH1 0xA0 SHL SUB AND PUSH0 MSTORE PUSH1 0x20 MSTORE PUSH1 0x20 PUSH1 0xFF PUSH1 0x40 PUSH0 KECCAK256 SLOAD AND PUSH1 0x40 MLOAD SWAP1 ISZERO ISZERO DUP2 MSTORE RETURN JUMPDEST CALLVALUE PUSH2 0x141 JUMPI PUSH0 CALLDATASIZE PUSH1 0x3 NOT ADD SLT PUSH2 0x141 JUMPI PUSH1 0x1 SLOAD PUSH1 0x40 MLOAD PUSH1 0x1 PUSH1 0x1 PUSH1 0xA0 SHL SUB SWAP1 SWAP2 AND DUP2 MSTORE PUSH1 0x20 SWAP1 RETURN JUMPDEST CALLVALUE PUSH2 0x141 JUMPI PUSH1 0x20 DUP1 PUSH1 0x3 NOT CALLDATASIZE ADD SLT PUSH2 0x141 JUMPI PUSH2 0x592 PUSH2 0x1038 JUMP JUMPDEST SWAP1 PUSH2 0x59B PUSH2 0x1071 JUMP JUMPDEST PUSH1 0x1 DUP1 PUSH1 0xA0 SHL SUB SWAP1 DUP2 DUP4 AND SWAP3 DUP4 PUSH0 MSTORE PUSH1 0x4 DUP3 MSTORE PUSH2 0x5BF DUP4 PUSH1 0x40 PUSH0 KECCAK256 SLOAD AND ISZERO ISZERO PUSH2 0x1307 JUMP JUMPDEST DUP4 PUSH0 MSTORE PUSH1 0x4 DUP3 MSTORE DUP3 PUSH1 0x40 PUSH0 KECCAK256 SLOAD AND DUP1 PUSH0 MSTORE PUSH1 0x5 SWAP4 DUP5 DUP5 MSTORE PUSH2 0x5E3 DUP4 PUSH1 0x40 PUSH0 KECCAK256 PUSH2 0x13B1 JUMP JUMPDEST SWAP3 DUP3 PUSH0 MSTORE DUP6 DUP6 MSTORE PUSH1 0x40 PUSH0 KECCAK256 SLOAD SWAP3 PUSH0 NOT SWAP4 DUP5 DUP2 ADD SWAP1 DUP2 GT PUSH2 0x777 JUMPI PUSH2 0x62B SWAP6 DUP5 PUSH2 0x618 PUSH2 0x652 SWAP4 DUP6 PUSH0 MSTORE DUP12 DUP12 MSTORE PUSH1 0x40 PUSH0 KECCAK256 PUSH2 0x12F2 JUMP JUMPDEST SWAP9 SWAP1 SLOAD SWAP3 DUP6 PUSH0 MSTORE DUP12 DUP12 MSTORE PUSH1 0x40 PUSH0 KECCAK256 PUSH2 0x12F2 JUMP JUMPDEST SWAP2 SWAP1 SWAP3 PUSH1 0x3 SWAP10 DUP11 SHL SHR AND SWAP1 DUP3 SLOAD SWAP1 PUSH1 0x3 SHL SWAP2 PUSH1 0x1 DUP1 PUSH1 0xA0 SHL SUB DUP1 SWAP2 AND DUP4 SHL SWAP3 SHL NOT AND OR SWAP1 SSTORE JUMP JUMPDEST PUSH0 MSTORE DUP6 DUP6 MSTORE PUSH1 0x40 PUSH0 KECCAK256 SWAP1 DUP2 SLOAD SWAP2 DUP3 ISZERO PUSH2 0x763 JUMPI DUP5 PUSH2 0x694 SWAP4 ADD SWAP1 PUSH2 0x68E PUSH2 0x679 DUP4 DUP4 PUSH2 0x12F2 JUMP JUMPDEST DUP2 SLOAD SWAP1 PUSH1 0x1 DUP1 PUSH1 0xA0 SHL SUB SWAP1 PUSH1 0x3 SHL SHL NOT AND SWAP1 SSTORE JUMP JUMPDEST SSTORE PUSH2 0x1349 JUMP JUMPDEST DUP4 SLOAD DUP4 DUP2 ADD SWAP1 DUP2 GT PUSH2 0x777 JUMPI PUSH2 0x6DC SWAP3 PUSH2 0x6B0 PUSH2 0x6BD SWAP3 PUSH2 0x12A9 JUMP JUMPDEST SWAP1 SLOAD SWAP1 DUP8 SHL SHR AND SWAP2 PUSH2 0x12A9 JUMP JUMPDEST SWAP1 SWAP2 SWAP1 DUP3 SLOAD SWAP1 PUSH1 0x3 SHL SWAP2 PUSH1 0x1 DUP1 PUSH1 0xA0 SHL SUB DUP1 SWAP2 AND DUP4 SHL SWAP3 SHL NOT AND OR SWAP1 SSTORE JUMP JUMPDEST DUP2 SLOAD SWAP4 DUP5 ISZERO PUSH2 0x763 JUMPI PUSH1 0x4 PUSH1 0xA SWAP5 PUSH0 SWAP7 SWAP4 DUP8 SWAP5 ADD PUSH2 0x6FC PUSH2 0x679 DUP3 PUSH2 0x12A9 JUMP JUMPDEST DUP6 SSTORE DUP8 DUP5 MSTORE MSTORE DUP2 PUSH1 0x40 DUP2 KECCAK256 SWAP4 DUP2 DUP6 SSTORE DUP2 PUSH1 0x1 DUP7 ADD SSTORE DUP2 PUSH1 0x2 DUP7 ADD SSTORE DUP5 ADD SSTORE DUP2 PUSH1 0x4 DUP5 ADD SSTORE DUP3 ADD SSTORE DUP3 PUSH1 0x6 DUP3 ADD SSTORE DUP3 PUSH1 0x7 DUP3 ADD SSTORE DUP3 PUSH1 0x8 DUP3 ADD SSTORE DUP3 PUSH1 0x9 DUP3 ADD SSTORE ADD SSTORE PUSH32 0x334D0B2111287DFDDEBE4B4C1C5AF3AE644909D7FCD024377BF601E236ED5ABB PUSH0 DUP1 LOG2 STOP JUMPDEST PUSH4 0x4E487B71 PUSH1 0xE0 SHL PUSH0 MSTORE PUSH1 0x31 PUSH1 0x4 MSTORE PUSH1 0x24 PUSH0 REVERT JUMPDEST PUSH4 0x4E487B71 PUSH1 0xE0 SHL PUSH0 MSTORE PUSH1 0x11 PUSH1 0x4 MSTORE PUSH1 0x24 PUSH0 REVERT JUMPDEST CALLVALUE PUSH2 0x141 JUMPI PUSH1 0x20 CALLDATASIZE PUSH1 0x3 NOT ADD SLT PUSH2 0x141 JUMPI PUSH1 0x1 PUSH1 0x1 PUSH1 0xA0 SHL SUB DUP1 PUSH2 0x7AD PUSH2 0x1038 JUMP JUMPDEST AND SWAP1 DUP2 PUSH0 MSTORE PUSH1 0x6 PUSH1 0x20 MSTORE DUP1 PUSH1 0x40 PUSH0 KECCAK256 SLOAD AND ISZERO PUSH2 0x7DA JUMPI PUSH1 0x20 SWAP2 PUSH0 MSTORE PUSH1 0x6 DUP3 MSTORE PUSH1 0x40 PUSH0 KECCAK256 SLOAD AND PUSH1 0x40 MLOAD SWAP1 DUP2 MSTORE RETURN JUMPDEST PUSH1 0x40 MLOAD PUSH3 0x461BCD PUSH1 0xE5 SHL DUP2 MSTORE PUSH1 0x20 PUSH1 0x4 DUP3 ADD MSTORE PUSH1 0x23 PUSH1 0x24 DUP3 ADD MSTORE PUSH32 0x506F6F6C206E6F742072656769737465726564206F7220686173206E6F207661 PUSH1 0x44 DUP3 ADD MSTORE PUSH3 0x1D5B1D PUSH1 0xEA SHL PUSH1 0x64 DUP3 ADD MSTORE PUSH1 0x84 SWAP1 REVERT JUMPDEST CALLVALUE PUSH2 0x141 JUMPI PUSH1 0x20 CALLDATASIZE PUSH1 0x3 NOT ADD SLT PUSH2 0x141 JUMPI PUSH2 0x844 PUSH2 0x1038 JUMP JUMPDEST CALLER PUSH0 SWAP1 DUP2 MSTORE PUSH32 0xAD3228B676F7D3CD4284A5443F17F1962B36E491B30A40B2405849E597BA5FB5 PUSH1 0x20 MSTORE PUSH1 0x40 SWAP1 KECCAK256 SLOAD PUSH1 0xFF AND ISZERO PUSH2 0x8C4 JUMPI PUSH0 DUP1 MLOAD PUSH1 0x20 PUSH2 0x1408 DUP4 CODECOPY DUP2 MLOAD SWAP2 MSTORE PUSH0 SWAP1 DUP2 MSTORE PUSH1 0x20 MSTORE PUSH32 0x729EF9451DD492832BD2A98139702CED95DFA0CEC7E99526DBBCB957ABCBC477 SLOAD PUSH2 0x13F SWAP2 SWAP1 PUSH2 0x8BF SWAP1 PUSH2 0x10D7 JUMP JUMPDEST PUSH2 0x10F8 JUMP JUMPDEST PUSH1 0x40 MLOAD PUSH3 0x461BCD PUSH1 0xE5 SHL DUP2 MSTORE PUSH1 0x20 PUSH1 0x4 DUP3 ADD MSTORE PUSH1 0x16 PUSH1 0x24 DUP3 ADD MSTORE PUSH22 0x21B0B63632B91034B9903737BA1030B71030B236B4B7 PUSH1 0x51 SHL PUSH1 0x44 DUP3 ADD MSTORE PUSH1 0x64 SWAP1 REVERT JUMPDEST CALLVALUE PUSH2 0x141 JUMPI PUSH0 CALLDATASIZE PUSH1 0x3 NOT ADD SLT PUSH2 0x141 JUMPI PUSH1 0x20 PUSH1 0x40 MLOAD PUSH0 DUP1 MLOAD PUSH1 0x20 PUSH2 0x1408 DUP4 CODECOPY DUP2 MLOAD SWAP2 MSTORE DUP2 MSTORE RETURN JUMPDEST CALLVALUE PUSH2 0x141 JUMPI PUSH2 0x160 CALLDATASIZE PUSH1 0x3 NOT ADD SLT PUSH2 0x141 JUMPI PUSH2 0x943 PUSH2 0x1038 JUMP JUMPDEST PUSH2 0x94B PUSH2 0x104E JUMP JUMPDEST SWAP1 PUSH1 0x44 CALLDATALOAD PUSH1 0x1 PUSH1 0x1 PUSH1 0xA0 SHL SUB DUP2 AND DUP2 SUB PUSH2 0x141 JUMPI PUSH1 0x64 CALLDATALOAD SWAP1 PUSH1 0x1 PUSH1 0x1 PUSH1 0xA0 SHL SUB DUP3 AND DUP3 SUB PUSH2 0x141 JUMPI PUSH1 0x84 CALLDATALOAD PUSH1 0x1 PUSH1 0x1 PUSH1 0xA0 SHL SUB DUP2 AND DUP2 SUB PUSH2 0x141 JUMPI PUSH1 0xA4 CALLDATALOAD PUSH1 0x1 PUSH1 0x1 PUSH1 0xA0 SHL SUB DUP2 AND DUP2 SUB PUSH2 0x141 JUMPI PUSH1 0xC4 CALLDATALOAD SWAP1 PUSH1 0x1 PUSH1 0x1 PUSH1 0xA0 SHL SUB DUP3 AND DUP3 SUB PUSH2 0x141 JUMPI PUSH1 0x2 PUSH2 0x144 CALLDATALOAD LT ISZERO PUSH2 0x141 JUMPI PUSH2 0x9C1 PUSH2 0x1071 JUMP JUMPDEST PUSH1 0x1 PUSH1 0x1 PUSH1 0xA0 SHL SUB DUP7 AND ISZERO PUSH2 0xC79 JUMPI PUSH1 0x1 PUSH1 0x1 PUSH1 0xA0 SHL SUB DUP7 DUP2 AND PUSH0 SWAP1 DUP2 MSTORE PUSH1 0x4 PUSH1 0x20 MSTORE PUSH1 0x40 SWAP1 KECCAK256 SLOAD AND PUSH2 0xC34 JUMPI PUSH1 0x40 MLOAD SWAP3 PUSH2 0x9FB DUP5 PUSH2 0x1280 JUMP JUMPDEST PUSH1 0x1 PUSH1 0x1 PUSH1 0xA0 SHL SUB DUP9 DUP2 AND DUP6 MSTORE DUP6 DUP2 AND PUSH1 0x20 DUP7 ADD MSTORE TIMESTAMP PUSH1 0x40 DUP7 ADD MSTORE DUP7 DUP2 AND PUSH1 0x60 DUP7 ADD MSTORE SWAP1 DUP2 AND PUSH1 0x80 DUP6 ADD MSTORE SWAP1 DUP2 AND PUSH1 0xA0 DUP5 ADD MSTORE AND PUSH1 0xC0 DUP3 ADD MSTORE PUSH1 0xE4 CALLDATALOAD PUSH1 0xE0 DUP3 ADD MSTORE PUSH2 0x104 CALLDATALOAD PUSH2 0x100 DUP3 ADD MSTORE PUSH2 0x124 CALLDATALOAD PUSH2 0x120 DUP3 ADD MSTORE PUSH2 0xA61 PUSH2 0x144 CALLDATALOAD PUSH2 0x140 DUP4 ADD PUSH2 0x129D JUMP JUMPDEST PUSH1 0x1 DUP1 PUSH1 0xA0 SHL SUB DUP5 AND PUSH0 MSTORE PUSH1 0x4 PUSH1 0x20 MSTORE PUSH2 0x140 PUSH1 0xA PUSH1 0x40 PUSH0 KECCAK256 PUSH1 0x1 DUP1 PUSH1 0xA0 SHL SUB DUP5 MLOAD AND PUSH12 0xFFFFFFFFFFFFFFFFFFFFFFFF PUSH1 0xA0 SHL SWAP1 DUP2 DUP4 SLOAD AND OR DUP3 SSTORE PUSH1 0x1 DUP3 ADD PUSH1 0x1 DUP1 PUSH1 0xA0 SHL SUB PUSH1 0x20 DUP8 ADD MLOAD AND DUP3 DUP3 SLOAD AND OR SWAP1 SSTORE PUSH1 0x40 DUP6 ADD MLOAD PUSH1 0x2 DUP4 ADD SSTORE PUSH1 0x3 DUP3 ADD PUSH1 0x1 DUP1 PUSH1 0xA0 SHL SUB PUSH1 0x60 DUP8 ADD MLOAD AND DUP3 DUP3 SLOAD AND OR SWAP1 SSTORE PUSH1 0x4 DUP3 ADD PUSH1 0x1 DUP1 PUSH1 0xA0 SHL SUB PUSH1 0x80 DUP8 ADD MLOAD AND DUP3 DUP3 SLOAD AND OR SWAP1 SSTORE PUSH1 0x5 DUP3 ADD PUSH1 0x1 DUP1 PUSH1 0xA0 SHL SUB PUSH1 0xA0 DUP8 ADD MLOAD AND DUP3 DUP3 SLOAD AND OR SWAP1 SSTORE PUSH1 0x6 DUP3 ADD SWAP1 PUSH1 0x1 DUP1 PUSH1 0xA0 SHL SUB PUSH1 0xC0 DUP8 ADD MLOAD AND SWAP1 DUP3 SLOAD AND OR SWAP1 SSTORE PUSH1 0xE0 DUP5 ADD MLOAD PUSH1 0x7 DUP3 ADD SSTORE PUSH2 0x100 DUP5 ADD MLOAD PUSH1 0x8 DUP3 ADD SSTORE PUSH2 0x120 DUP5 ADD MLOAD PUSH1 0x9 DUP3 ADD SSTORE ADD SWAP2 ADD MLOAD PUSH1 0x2 DUP2 LT ISZERO PUSH2 0xC20 JUMPI PUSH1 0xFF DUP1 NOT DUP4 SLOAD AND SWAP2 AND OR SWAP1 SSTORE PUSH1 0x1 DUP1 PUSH1 0xA0 SHL SUB DUP5 AND PUSH0 MSTORE PUSH1 0x5 PUSH1 0x20 MSTORE PUSH1 0x40 PUSH0 KECCAK256 DUP1 SLOAD SWAP1 PUSH9 0x10000000000000000 SWAP2 DUP3 DUP2 LT ISZERO PUSH2 0xC0C JUMPI PUSH2 0x6BD DUP2 PUSH2 0xB96 SWAP4 PUSH1 0x1 DUP10 SWAP5 ADD DUP2 SSTORE PUSH2 0x12F2 JUMP JUMPDEST PUSH1 0x3 SLOAD SWAP1 DUP2 LT ISZERO PUSH2 0xC0C JUMPI PUSH32 0x8F723E49DC038E67C41B41307A1E0C65653D50125A0C474A21AC32D9A0B24D2B SWAP2 PUSH2 0xBD9 DUP6 PUSH2 0x6BD DUP5 PUSH1 0x1 PUSH1 0x40 SWAP7 ADD PUSH1 0x3 SSTORE PUSH2 0x12A9 JUMP JUMPDEST DUP2 MLOAD PUSH1 0x1 PUSH1 0x1 PUSH1 0xA0 SHL SUB SWAP1 SWAP5 AND DUP5 MSTORE PUSH2 0xBF8 PUSH1 0x20 DUP6 ADD PUSH2 0x144 CALLDATALOAD PUSH2 0x1064 JUMP JUMPDEST PUSH1 0x1 PUSH1 0x1 PUSH1 0xA0 SHL SUB SWAP1 DUP2 AND SWAP6 DUP2 AND SWAP5 AND SWAP3 LOG4 STOP JUMPDEST PUSH4 0x4E487B71 PUSH1 0xE0 SHL PUSH0 MSTORE PUSH1 0x41 PUSH1 0x4 MSTORE PUSH1 0x24 PUSH0 REVERT JUMPDEST PUSH4 0x4E487B71 PUSH1 0xE0 SHL PUSH0 MSTORE PUSH1 0x21 PUSH1 0x4 MSTORE PUSH1 0x24 PUSH0 REVERT JUMPDEST PUSH1 0x40 MLOAD PUSH3 0x461BCD PUSH1 0xE5 SHL DUP2 MSTORE PUSH1 0x20 PUSH1 0x4 DUP3 ADD MSTORE PUSH1 0x17 PUSH1 0x24 DUP3 ADD MSTORE PUSH32 0x506F6F6C20616C72656164792072656769737465726564000000000000000000 PUSH1 0x44 DUP3 ADD MSTORE PUSH1 0x64 SWAP1 REVERT JUMPDEST PUSH1 0x40 MLOAD PUSH3 0x461BCD PUSH1 0xE5 SHL DUP2 MSTORE PUSH1 0x20 PUSH1 0x4 DUP3 ADD MSTORE PUSH1 0x1B PUSH1 0x24 DUP3 ADD MSTORE PUSH32 0x506F6F6C20616464726573732063616E6E6F74206265207A65726F0000000000 PUSH1 0x44 DUP3 ADD MSTORE PUSH1 0x64 SWAP1 REVERT JUMPDEST CALLVALUE PUSH2 0x141 JUMPI PUSH1 0x40 CALLDATASIZE PUSH1 0x3 NOT ADD SLT PUSH2 0x141 JUMPI PUSH2 0xCD7 PUSH2 0x104E JUMP JUMPDEST CALLER PUSH1 0x1 PUSH1 0x1 PUSH1 0xA0 SHL SUB DUP3 AND SUB PUSH2 0xCF3 JUMPI PUSH2 0x13F SWAP1 PUSH1 0x4 CALLDATALOAD PUSH2 0x120D JUMP JUMPDEST PUSH1 0x40 MLOAD PUSH4 0x334BD919 PUSH1 0xE1 SHL DUP2 MSTORE PUSH1 0x4 SWAP1 REVERT JUMPDEST CALLVALUE PUSH2 0x141 JUMPI PUSH1 0x40 CALLDATASIZE PUSH1 0x3 NOT ADD SLT PUSH2 0x141 JUMPI PUSH2 0x13F PUSH1 0x4 CALLDATALOAD PUSH2 0xD24 PUSH2 0x104E JUMP JUMPDEST SWAP1 DUP1 PUSH0 MSTORE PUSH0 PUSH1 0x20 MSTORE PUSH2 0xD3C PUSH1 0x1 PUSH1 0x40 PUSH0 KECCAK256 ADD SLOAD PUSH2 0x10D7 JUMP JUMPDEST PUSH2 0x1196 JUMP JUMPDEST CALLVALUE PUSH2 0x141 JUMPI PUSH1 0x20 DUP1 PUSH1 0x3 NOT CALLDATASIZE ADD SLT PUSH2 0x141 JUMPI PUSH1 0x1 PUSH1 0x1 PUSH1 0xA0 SHL SUB SWAP1 DUP2 PUSH2 0xD65 PUSH2 0x1038 JUMP JUMPDEST AND PUSH0 MSTORE PUSH1 0x5 DUP2 MSTORE PUSH1 0x40 PUSH0 KECCAK256 PUSH1 0x40 MLOAD DUP1 DUP4 DUP4 SLOAD SWAP2 DUP3 DUP2 MSTORE ADD SWAP1 DUP2 SWAP4 PUSH0 MSTORE DUP5 PUSH0 KECCAK256 SWAP1 PUSH0 JUMPDEST DUP7 DUP3 DUP3 LT PUSH2 0xDEE JUMPI POP POP POP POP DUP2 SWAP1 SUB PUSH1 0x1F ADD PUSH1 0x1F NOT AND DUP2 ADD SWAP3 PUSH8 0xFFFFFFFFFFFFFFFF DUP5 GT DUP3 DUP6 LT OR PUSH2 0xC0C JUMPI SWAP1 DUP4 PUSH1 0x40 MSTORE DUP2 DUP5 ADD SWAP1 DUP3 DUP6 MSTORE MLOAD DUP1 SWAP2 MSTORE PUSH1 0x40 DUP5 ADD SWAP3 SWAP2 PUSH0 JUMPDEST DUP3 DUP2 LT PUSH2 0xDD8 JUMPI DUP6 DUP6 SUB DUP7 RETURN JUMPDEST DUP4 MLOAD DUP8 AND DUP6 MSTORE SWAP4 DUP2 ADD SWAP4 SWAP3 DUP2 ADD SWAP3 PUSH1 0x1 ADD PUSH2 0xDCB JUMP JUMPDEST DUP4 SLOAD DUP10 AND DUP6 MSTORE SWAP1 SWAP4 ADD SWAP3 PUSH1 0x1 SWAP3 DUP4 ADD SWAP3 ADD PUSH2 0xD87 JUMP JUMPDEST CALLVALUE PUSH2 0x141 JUMPI PUSH1 0x20 CALLDATASIZE PUSH1 0x3 NOT ADD SLT PUSH2 0x141 JUMPI PUSH1 0x4 CALLDATALOAD PUSH0 MSTORE PUSH0 PUSH1 0x20 MSTORE PUSH1 0x20 PUSH1 0x1 PUSH1 0x40 PUSH0 KECCAK256 ADD SLOAD PUSH1 0x40 MLOAD SWAP1 DUP2 MSTORE RETURN JUMPDEST CALLVALUE PUSH2 0x141 JUMPI PUSH1 0x20 CALLDATASIZE PUSH1 0x3 NOT ADD SLT PUSH2 0x141 JUMPI PUSH1 0x20 PUSH1 0x1 PUSH1 0x1 PUSH1 0xA0 SHL SUB DUP1 PUSH2 0xE54 PUSH2 0x1038 JUMP JUMPDEST AND PUSH0 MSTORE PUSH1 0x6 DUP3 MSTORE PUSH1 0x40 PUSH0 KECCAK256 SLOAD AND PUSH1 0x40 MLOAD SWAP1 DUP2 MSTORE RETURN JUMPDEST CALLVALUE PUSH2 0x141 JUMPI PUSH0 CALLDATASIZE PUSH1 0x3 NOT ADD SLT PUSH2 0x141 JUMPI PUSH1 0x2 SLOAD PUSH1 0x40 MLOAD PUSH1 0x1 PUSH1 0x1 PUSH1 0xA0 SHL SUB SWAP1 SWAP2 AND DUP2 MSTORE PUSH1 0x20 SWAP1 RETURN JUMPDEST CALLVALUE PUSH2 0x141 JUMPI PUSH1 0x40 CALLDATASIZE PUSH1 0x3 NOT ADD SLT PUSH2 0x141 JUMPI PUSH2 0xEAA PUSH2 0x1038 JUMP JUMPDEST PUSH2 0xEB2 PUSH2 0x104E JUMP JUMPDEST SWAP1 PUSH2 0xEBB PUSH2 0x1071 JUMP JUMPDEST PUSH1 0x1 PUSH1 0x1 PUSH1 0xA0 SHL SUB SWAP1 DUP2 AND SWAP1 DUP2 ISZERO ISZERO DUP1 PUSH2 0xFDA JUMPI JUMPDEST ISZERO PUSH2 0xFA1 JUMPI DUP2 PUSH0 MSTORE PUSH1 0x4 PUSH1 0x20 MSTORE PUSH2 0xEEE DUP2 PUSH1 0x40 PUSH0 KECCAK256 SLOAD AND ISZERO ISZERO PUSH2 0x1307 JUMP JUMPDEST DUP2 PUSH0 MSTORE PUSH1 0x6 PUSH1 0x20 MSTORE DUP1 PUSH1 0x40 PUSH0 KECCAK256 SLOAD AND PUSH2 0xF4D JUMPI DUP2 PUSH0 MSTORE PUSH1 0x6 PUSH1 0x20 MSTORE PUSH1 0x40 PUSH0 KECCAK256 SWAP3 AND SWAP2 DUP3 PUSH12 0xFFFFFFFFFFFFFFFFFFFFFFFF PUSH1 0xA0 SHL DUP3 SLOAD AND OR SWAP1 SSTORE PUSH32 0xF8EE9039D8E4D43426638703C71517008894FDEA742BB2D2DBFF5A46FB07ABDB PUSH0 DUP1 LOG3 STOP JUMPDEST PUSH1 0x40 MLOAD PUSH3 0x461BCD PUSH1 0xE5 SHL DUP2 MSTORE PUSH1 0x20 PUSH1 0x4 DUP3 ADD MSTORE PUSH1 0x26 PUSH1 0x24 DUP3 ADD MSTORE PUSH32 0x5661756C7420616C7265616479207265676973746572656420666F7220746869 PUSH1 0x44 DUP3 ADD MSTORE PUSH6 0x1CC81C1BDBDB PUSH1 0xD2 SHL PUSH1 0x64 DUP3 ADD MSTORE PUSH1 0x84 SWAP1 REVERT JUMPDEST PUSH1 0x40 MLOAD PUSH3 0x461BCD PUSH1 0xE5 SHL DUP2 MSTORE PUSH1 0x20 PUSH1 0x4 DUP3 ADD MSTORE PUSH1 0x11 PUSH1 0x24 DUP3 ADD MSTORE PUSH17 0x496E76616C696420616464726573736573 PUSH1 0x78 SHL PUSH1 0x44 DUP3 ADD MSTORE PUSH1 0x64 SWAP1 REVERT JUMPDEST POP DUP1 DUP4 AND ISZERO ISZERO PUSH2 0xED0 JUMP JUMPDEST CALLVALUE PUSH2 0x141 JUMPI PUSH1 0x20 CALLDATASIZE PUSH1 0x3 NOT ADD SLT PUSH2 0x141 JUMPI PUSH1 0x4 CALLDATALOAD SWAP1 PUSH4 0xFFFFFFFF PUSH1 0xE0 SHL DUP3 AND DUP1 SWAP3 SUB PUSH2 0x141 JUMPI PUSH1 0x20 SWAP2 PUSH4 0x7965DB0B PUSH1 0xE0 SHL DUP2 EQ SWAP1 DUP2 ISZERO PUSH2 0x1027 JUMPI JUMPDEST POP ISZERO ISZERO DUP2 MSTORE RETURN JUMPDEST PUSH4 0x1FFC9A7 PUSH1 0xE0 SHL EQ SWAP1 POP DUP4 PUSH2 0x1020 JUMP JUMPDEST PUSH1 0x4 CALLDATALOAD SWAP1 PUSH1 0x1 PUSH1 0x1 PUSH1 0xA0 SHL SUB DUP3 AND DUP3 SUB PUSH2 0x141 JUMPI JUMP JUMPDEST PUSH1 0x24 CALLDATALOAD SWAP1 PUSH1 0x1 PUSH1 0x1 PUSH1 0xA0 SHL SUB DUP3 AND DUP3 SUB PUSH2 0x141 JUMPI JUMP JUMPDEST SWAP1 PUSH1 0x2 DUP3 LT ISZERO PUSH2 0xC20 JUMPI MSTORE JUMP JUMPDEST CALLER PUSH0 SWAP1 DUP2 MSTORE PUSH32 0x729EF9451DD492832BD2A98139702CED95DFA0CEC7E99526DBBCB957ABCBC476 PUSH1 0x20 MSTORE PUSH1 0x40 SWAP1 KECCAK256 SLOAD PUSH0 DUP1 MLOAD PUSH1 0x20 PUSH2 0x1408 DUP4 CODECOPY DUP2 MLOAD SWAP2 MSTORE SWAP1 PUSH1 0xFF AND ISZERO PUSH2 0x10B9 JUMPI POP JUMP JUMPDEST PUSH1 0x44 SWAP1 PUSH1 0x40 MLOAD SWAP1 PUSH4 0xE2517D3F PUSH1 0xE0 SHL DUP3 MSTORE CALLER PUSH1 0x4 DUP4 ADD MSTORE PUSH1 0x24 DUP3 ADD MSTORE REVERT JUMPDEST DUP1 PUSH0 MSTORE PUSH0 PUSH1 0x20 MSTORE PUSH1 0x40 PUSH0 KECCAK256 CALLER PUSH0 MSTORE PUSH1 0x20 MSTORE PUSH1 0xFF PUSH1 0x40 PUSH0 KECCAK256 SLOAD AND ISZERO PUSH2 0x10B9 JUMPI POP JUMP JUMPDEST PUSH1 0x1 PUSH1 0x1 PUSH1 0xA0 SHL SUB AND PUSH0 DUP2 DUP2 MSTORE PUSH32 0x729EF9451DD492832BD2A98139702CED95DFA0CEC7E99526DBBCB957ABCBC476 PUSH1 0x20 MSTORE PUSH1 0x40 DUP2 KECCAK256 SLOAD SWAP1 SWAP2 SWAP1 PUSH0 DUP1 MLOAD PUSH1 0x20 PUSH2 0x1408 DUP4 CODECOPY DUP2 MLOAD SWAP2 MSTORE SWAP1 PUSH1 0xFF AND PUSH2 0x1191 JUMPI DUP1 DUP4 MSTORE DUP3 PUSH1 0x20 MSTORE PUSH1 0x40 DUP4 KECCAK256 DUP3 DUP5 MSTORE PUSH1 0x20 MSTORE PUSH1 0x40 DUP4 KECCAK256 PUSH1 0x1 PUSH1 0xFF NOT DUP3 SLOAD AND OR SWAP1 SSTORE PUSH32 0x2F8788117E7EFF1D82E926EC794901D17C78024A50270940304540A733656F0D CALLER SWAP4 DUP1 LOG4 PUSH1 0x1 SWAP1 JUMP JUMPDEST POP POP SWAP1 JUMP JUMPDEST SWAP1 PUSH0 SWAP2 DUP1 DUP4 MSTORE DUP3 PUSH1 0x20 MSTORE PUSH1 0x40 DUP4 KECCAK256 SWAP2 PUSH1 0x1 DUP1 PUSH1 0xA0 SHL SUB AND SWAP2 DUP3 DUP5 MSTORE PUSH1 0x20 MSTORE PUSH1 0xFF PUSH1 0x40 DUP5 KECCAK256 SLOAD AND ISZERO PUSH0 EQ PUSH2 0x1191 JUMPI DUP1 DUP4 MSTORE DUP3 PUSH1 0x20 MSTORE PUSH1 0x40 DUP4 KECCAK256 DUP3 DUP5 MSTORE PUSH1 0x20 MSTORE PUSH1 0x40 DUP4 KECCAK256 PUSH1 0x1 PUSH1 0xFF NOT DUP3 SLOAD AND OR SWAP1 SSTORE PUSH32 0x2F8788117E7EFF1D82E926EC794901D17C78024A50270940304540A733656F0D CALLER SWAP4 DUP1 LOG4 PUSH1 0x1 SWAP1 JUMP JUMPDEST SWAP1 PUSH0 SWAP2 DUP1 DUP4 MSTORE DUP3 PUSH1 0x20 MSTORE PUSH1 0x40 DUP4 KECCAK256 SWAP2 PUSH1 0x1 DUP1 PUSH1 0xA0 SHL SUB AND SWAP2 DUP3 DUP5 MSTORE PUSH1 0x20 MSTORE PUSH1 0xFF PUSH1 0x40 DUP5 KECCAK256 SLOAD AND PUSH0 EQ PUSH2 0x1191 JUMPI DUP1 DUP4 MSTORE DUP3 PUSH1 0x20 MSTORE PUSH1 0x40 DUP4 KECCAK256 DUP3 DUP5 MSTORE PUSH1 0x20 MSTORE PUSH1 0x40 DUP4 KECCAK256 PUSH1 0xFF NOT DUP2 SLOAD AND SWAP1 SSTORE PUSH32 0xF6391F5C32D9C69D2A47EA670B442974B53935D1EDC7FD64EB21E047A839171B CALLER SWAP4 DUP1 LOG4 PUSH1 0x1 SWAP1 JUMP JUMPDEST PUSH2 0x160 DUP2 ADD SWAP1 DUP2 LT PUSH8 0xFFFFFFFFFFFFFFFF DUP3 GT OR PUSH2 0xC0C JUMPI PUSH1 0x40 MSTORE JUMP JUMPDEST PUSH1 0x2 DUP3 LT ISZERO PUSH2 0xC20 JUMPI MSTORE JUMP JUMPDEST PUSH1 0x3 SLOAD DUP2 LT ISZERO PUSH2 0x12DE JUMPI PUSH1 0x3 PUSH0 MSTORE PUSH32 0xC2575A0E9E593C00F959F8C92F12DB2869C3395A3B0502D05E2516446F71F85B ADD SWAP1 PUSH0 SWAP1 JUMP JUMPDEST PUSH4 0x4E487B71 PUSH1 0xE0 SHL PUSH0 MSTORE PUSH1 0x32 PUSH1 0x4 MSTORE PUSH1 0x24 PUSH0 REVERT JUMPDEST DUP1 SLOAD DUP3 LT ISZERO PUSH2 0x12DE JUMPI PUSH0 MSTORE PUSH1 0x20 PUSH0 KECCAK256 ADD SWAP1 PUSH0 SWAP1 JUMP JUMPDEST ISZERO PUSH2 0x130E JUMPI JUMP JUMPDEST PUSH1 0x40 MLOAD PUSH3 0x461BCD PUSH1 0xE5 SHL DUP2 MSTORE PUSH1 0x20 PUSH1 0x4 DUP3 ADD MSTORE PUSH1 0x13 PUSH1 0x24 DUP3 ADD MSTORE PUSH19 0x141BDBDB081B9BDD081C9959DA5CDD195C9959 PUSH1 0x6A SHL PUSH1 0x44 DUP3 ADD MSTORE PUSH1 0x64 SWAP1 REVERT JUMPDEST PUSH0 DUP1 SWAP2 PUSH1 0x3 DUP1 SLOAD SWAP4 JUMPDEST DUP5 DUP2 LT PUSH2 0x1363 JUMPI POP POP POP POP POP PUSH0 NOT SWAP1 JUMP JUMPDEST PUSH2 0x136C DUP2 PUSH2 0x12A9 JUMP JUMPDEST SWAP1 SLOAD SWAP1 DUP4 SHL SHR PUSH1 0x1 PUSH1 0x1 PUSH1 0xA0 SHL SUB SWAP1 DUP2 AND SWAP1 DUP5 AND EQ PUSH2 0x13A9 JUMPI PUSH0 NOT DUP2 EQ PUSH2 0x1395 JUMPI PUSH1 0x1 ADD PUSH2 0x1352 JUMP JUMPDEST PUSH4 0x4E487B71 PUSH1 0xE0 SHL DUP5 MSTORE PUSH1 0x11 PUSH1 0x4 MSTORE PUSH1 0x24 DUP5 REVERT JUMPDEST SWAP4 POP POP POP POP SWAP1 JUMP JUMPDEST SWAP2 PUSH0 SWAP2 DUP3 JUMPDEST DUP5 SLOAD DUP2 LT ISZERO PUSH2 0x13FD JUMPI PUSH2 0x13C9 DUP2 DUP7 PUSH2 0x12F2 JUMP JUMPDEST SWAP1 SLOAD PUSH1 0x3 SWAP2 SWAP1 SWAP2 SHL SHR PUSH1 0x1 PUSH1 0x1 PUSH1 0xA0 SHL SUB SWAP1 DUP2 AND SWAP1 DUP4 AND EQ PUSH2 0x13F5 JUMPI PUSH0 NOT DUP2 EQ PUSH2 0x1395 JUMPI PUSH1 0x1 ADD PUSH2 0x13B6 JUMP JUMPDEST SWAP3 POP POP SWAP2 POP SWAP1 JUMP JUMPDEST POP POP SWAP2 POP POP PUSH0 NOT SWAP1 JUMP INVALID PUSH1 0x77 PUSH9 0x5936C8169D09204A1D SWAP8 0xDB SLT 0xE4 OR SGT PC DUP13 CODESIZE 0xE1 0xD2 SWAP11 PUSH2 0x867D RETURNDATASIZE 0xCE 0xE9 DUP11 SELFDESTRUCT LOG2 PUSH5 0x6970667358 0x22 SLT KECCAK256 0xFB 0x5D SWAP3 PUSH23 0x5489AB15F32D4AFE74332568398A4068B84C9F66F7C536 0xCD SMOD SMOD 0x4A 0x25 PUSH5 0x736F6C6343 STOP ADDMOD EQ STOP CALLER 0x2F DUP8 DUP9 GT PUSH31 0x7EFF1D82E926EC794901D17C78024A50270940304540A733656F0D00000000 "
				},
				"gasEstimates": {
					"creation": {
						"codeDepositCost": "1042600",
						"executionCost": "infinite",
						"totalCost": "infinite"
					},
					"external": {
						"DEFAULT_ADMIN_ROLE()": "482",
						"POOL_MANAGER_ROLE()": "383",
						"deregisterPool(address)": "infinite",
						"getManagers()": "4762",
						"getPoolDetails(address)": "infinite",
						"getPoolsByLender(address)": "infinite",
						"getRoleAdmin(bytes32)": "2414",
						"getTotalPools()": "2674",
						"getVaultForPool(address)": "4846",
						"grantFactoryAccess(address)": "infinite",
						"grantRole(bytes32,address)": "33338",
						"hasRole(bytes32,address)": "2792",
						"poolVaults(address)": "2478",
						"registerManagers(address,address)": "52731",
						"registerPool(address,address,address,address,address,address,address,uint256,uint256,uint256,uint8)": "infinite",
						"registerVault(address,address)": "infinite",
						"renounceRole(bytes32,address)": "28950",
						"revokeRole(bytes32,address)": "33634",
						"rewardManager()": "2324",
						"supportsInterface(bytes4)": "270",
						"vaultManager()": "2566"
					},
					"internal": {
						"_removePoolFromLenderArray(address,address)": "infinite",
						"_removePoolFromMainArray(address)": "infinite",
						"findIndexInArray(address[] storage pointer,address)": "infinite"
					}
				},
				"methodIdentifiers": {
					"DEFAULT_ADMIN_ROLE()": "a217fddf",
					"POOL_MANAGER_ROLE()": "56d73568",
					"deregisterPool(address)": "7e72c7d7",
					"getManagers()": "a8d088bb",
					"getPoolDetails(address)": "d3e90fa0",
					"getPoolsByLender(address)": "24a44efb",
					"getRoleAdmin(bytes32)": "248a9ca3",
					"getTotalPools()": "d3ffe67a",
					"getVaultForPool(address)": "7570e389",
					"grantFactoryAccess(address)": "5d102df7",
					"grantRole(bytes32,address)": "2f2ff15d",
					"hasRole(bytes32,address)": "91d14854",
					"poolVaults(address)": "1e4966ab",
					"registerManagers(address,address)": "c489579d",
					"registerPool(address,address,address,address,address,address,address,uint256,uint256,uint256,uint8)": "43756020",
					"registerVault(address,address)": "05c4fdf9",
					"renounceRole(bytes32,address)": "36568abe",
					"revokeRole(bytes32,address)": "d547741f",
					"rewardManager()": "0f4ef8a6",
					"supportsInterface(bytes4)": "01ffc9a7",
					"vaultManager()": "8a4adf24"
				}
			},
			"storageLayout": {
				"storage": [
					{
						"astId": 26,
						"contract": "contracts/contracts/protocol/PoolOrganizer.sol:PoolOrganizer",
						"label": "_roles",
						"offset": 0,
						"slot": "0",
						"type": "t_mapping(t_bytes32,t_struct(RoleData)21_storage)"
					},
					{
						"astId": 761,
						"contract": "contracts/contracts/protocol/PoolOrganizer.sol:PoolOrganizer",
						"label": "vaultManager",
						"offset": 0,
						"slot": "1",
						"type": "t_contract(IVaultManager)742"
					},
					{
						"astId": 764,
						"contract": "contracts/contracts/protocol/PoolOrganizer.sol:PoolOrganizer",
						"label": "rewardManager",
						"offset": 0,
						"slot": "2",
						"type": "t_contract(IRewardManager)686"
					},
					{
						"astId": 767,
						"contract": "contracts/contracts/protocol/PoolOrganizer.sol:PoolOrganizer",
						"label": "pools",
						"offset": 0,
						"slot": "3",
						"type": "t_array(t_address)dyn_storage"
					},
					{
						"astId": 772,
						"contract": "contracts/contracts/protocol/PoolOrganizer.sol:PoolOrganizer",
						"label": "poolDetails",
						"offset": 0,
						"slot": "4",
						"type": "t_mapping(t_address,t_struct(PoolDetails)555_storage)"
					},
					{
						"astId": 777,
						"contract": "contracts/contracts/protocol/PoolOrganizer.sol:PoolOrganizer",
						"label": "lenderPools",
						"offset": 0,
						"slot": "5",
						"type": "t_mapping(t_address,t_array(t_address)dyn_storage)"
					},
					{
						"astId": 781,
						"contract": "contracts/contracts/protocol/PoolOrganizer.sol:PoolOrganizer",
						"label": "poolVaults",
						"offset": 0,
						"slot": "6",
						"type": "t_mapping(t_address,t_address)"
					}
				],
				"types": {
					"t_address": {
						"encoding": "inplace",
						"label": "address",
						"numberOfBytes": "20"
					},
					"t_array(t_address)dyn_storage": {
						"base": "t_address",
						"encoding": "dynamic_array",
						"label": "address[]",
						"numberOfBytes": "32"
					},
					"t_bool": {
						"encoding": "inplace",
						"label": "bool",
						"numberOfBytes": "1"
					},
					"t_bytes32": {
						"encoding": "inplace",
						"label": "bytes32",
						"numberOfBytes": "32"
					},
					"t_contract(IERC20)456": {
						"encoding": "inplace",
						"label": "contract IERC20",
						"numberOfBytes": "20"
					},
					"t_contract(IRewardManager)686": {
						"encoding": "inplace",
						"label": "contract IRewardManager",
						"numberOfBytes": "20"
					},
					"t_contract(IVaultManager)742": {
						"encoding": "inplace",
						"label": "contract IVaultManager",
						"numberOfBytes": "20"
					},
					"t_enum(PoolType)528": {
						"encoding": "inplace",
						"label": "enum IPoolOrganizer.PoolType",
						"numberOfBytes": "1"
					},
					"t_mapping(t_address,t_address)": {
						"encoding": "mapping",
						"key": "t_address",
						"label": "mapping(address => address)",
						"numberOfBytes": "32",
						"value": "t_address"
					},
					"t_mapping(t_address,t_array(t_address)dyn_storage)": {
						"encoding": "mapping",
						"key": "t_address",
						"label": "mapping(address => address[])",
						"numberOfBytes": "32",
						"value": "t_array(t_address)dyn_storage"
					},
					"t_mapping(t_address,t_bool)": {
						"encoding": "mapping",
						"key": "t_address",
						"label": "mapping(address => bool)",
						"numberOfBytes": "32",
						"value": "t_bool"
					},
					"t_mapping(t_address,t_struct(PoolDetails)555_storage)": {
						"encoding": "mapping",
						"key": "t_address",
						"label": "mapping(address => struct IPoolOrganizer.PoolDetails)",
						"numberOfBytes": "32",
						"value": "t_struct(PoolDetails)555_storage"
					},
					"t_mapping(t_bytes32,t_struct(RoleData)21_storage)": {
						"encoding": "mapping",
						"key": "t_bytes32",
						"label": "mapping(bytes32 => struct AccessControl.RoleData)",
						"numberOfBytes": "32",
						"value": "t_struct(RoleData)21_storage"
					},
					"t_struct(PoolDetails)555_storage": {
						"encoding": "inplace",
						"label": "struct IPoolOrganizer.PoolDetails",
						"members": [
							{
								"astId": 530,
								"contract": "contracts/contracts/protocol/PoolOrganizer.sol:PoolOrganizer",
								"label": "lender",
								"offset": 0,
								"slot": "0",
								"type": "t_address"
							},
							{
								"astId": 532,
								"contract": "contracts/contracts/protocol/PoolOrganizer.sol:PoolOrganizer",
								"label": "borrower",
								"offset": 0,
								"slot": "1",
								"type": "t_address"
							},
							{
								"astId": 534,
								"contract": "contracts/contracts/protocol/PoolOrganizer.sol:PoolOrganizer",
								"label": "creationTime",
								"offset": 0,
								"slot": "2",
								"type": "t_uint256"
							},
							{
								"astId": 536,
								"contract": "contracts/contracts/protocol/PoolOrganizer.sol:PoolOrganizer",
								"label": "vault",
								"offset": 0,
								"slot": "3",
								"type": "t_address"
							},
							{
								"astId": 539,
								"contract": "contracts/contracts/protocol/PoolOrganizer.sol:PoolOrganizer",
								"label": "loanToken",
								"offset": 0,
								"slot": "4",
								"type": "t_contract(IERC20)456"
							},
							{
								"astId": 542,
								"contract": "contracts/contracts/protocol/PoolOrganizer.sol:PoolOrganizer",
								"label": "assetToken",
								"offset": 0,
								"slot": "5",
								"type": "t_contract(IERC20)456"
							},
							{
								"astId": 545,
								"contract": "contracts/contracts/protocol/PoolOrganizer.sol:PoolOrganizer",
								"label": "repaymentToken",
								"offset": 0,
								"slot": "6",
								"type": "t_contract(IERC20)456"
							},
							{
								"astId": 547,
								"contract": "contracts/contracts/protocol/PoolOrganizer.sol:PoolOrganizer",
								"label": "loanAmount",
								"offset": 0,
								"slot": "7",
								"type": "t_uint256"
							},
							{
								"astId": 549,
								"contract": "contracts/contracts/protocol/PoolOrganizer.sol:PoolOrganizer",
								"label": "interestRate",
								"offset": 0,
								"slot": "8",
								"type": "t_uint256"
							},
							{
								"astId": 551,
								"contract": "contracts/contracts/protocol/PoolOrganizer.sol:PoolOrganizer",
								"label": "repaymentPeriod",
								"offset": 0,
								"slot": "9",
								"type": "t_uint256"
							},
							{
								"astId": 554,
								"contract": "contracts/contracts/protocol/PoolOrganizer.sol:PoolOrganizer",
								"label": "poolType",
								"offset": 0,
								"slot": "10",
								"type": "t_enum(PoolType)528"
							}
						],
						"numberOfBytes": "352"
					},
					"t_struct(RoleData)21_storage": {
						"encoding": "inplace",
						"label": "struct AccessControl.RoleData",
						"members": [
							{
								"astId": 18,
								"contract": "contracts/contracts/protocol/PoolOrganizer.sol:PoolOrganizer",
								"label": "hasRole",
								"offset": 0,
								"slot": "0",
								"type": "t_mapping(t_address,t_bool)"
							},
							{
								"astId": 20,
								"contract": "contracts/contracts/protocol/PoolOrganizer.sol:PoolOrganizer",
								"label": "adminRole",
								"offset": 0,
								"slot": "1",
								"type": "t_bytes32"
							}
						],
						"numberOfBytes": "64"
					},
					"t_uint256": {
						"encoding": "inplace",
						"label": "uint256",
						"numberOfBytes": "32"
					}
				}
			},
			"userdoc": {
				"kind": "user",
				"methods": {
					"deregisterPool(address)": {
						"notice": "Deregisters a pool from the organizer."
					},
					"getManagers()": {
						"notice": "Returns the addresses of the VaultManager and RewardManager."
					},
					"getPoolDetails(address)": {
						"notice": "Retrieves details for a specific pool."
					},
					"getPoolsByLender(address)": {
						"notice": "Retrieves all pools associated with a specific lender."
					},
					"getTotalPools()": {
						"notice": "Retrieves the total number of registered pools."
					},
					"getVaultForPool(address)": {
						"notice": "Retrieves the vault associated with a specific pool."
					},
					"grantFactoryAccess(address)": {
						"notice": "Grants factory access to manage pools."
					},
					"registerManagers(address,address)": {
						"notice": "Registers the manager contracts for managing vaults and rewards."
					},
					"registerPool(address,address,address,address,address,address,address,uint256,uint256,uint256,uint8)": {
						"notice": "Registers a new pool within the organizer."
					},
					"registerVault(address,address)": {
						"notice": "Registers a vault for a given pool."
					}
				},
				"version": 1
			}
		}
	}
}