{
	"contracts/contracts/protocol/PoolOrganizer.sol": {
		"PoolOrganizer": {
			"abi": [
				{
					"inputs": [],
					"stateMutability": "nonpayable",
					"type": "constructor"
				},
				{
					"inputs": [],
					"name": "AccessControlBadConfirmation",
					"type": "error"
				},
				{
					"inputs": [
						{
							"internalType": "address",
							"name": "account",
							"type": "address"
						},
						{
							"internalType": "bytes32",
							"name": "neededRole",
							"type": "bytes32"
						}
					],
					"name": "AccessControlUnauthorizedAccount",
					"type": "error"
				},
				{
					"anonymous": false,
					"inputs": [
						{
							"indexed": false,
							"internalType": "address",
							"name": "vaultManager",
							"type": "address"
						},
						{
							"indexed": false,
							"internalType": "address",
							"name": "rewardManager",
							"type": "address"
						}
					],
					"name": "ManagerRegistered",
					"type": "event"
				},
				{
					"anonymous": false,
					"inputs": [
						{
							"indexed": true,
							"internalType": "address",
							"name": "pool",
							"type": "address"
						}
					],
					"name": "PoolDeregistered",
					"type": "event"
				},
				{
					"anonymous": false,
					"inputs": [
						{
							"indexed": true,
							"internalType": "address",
							"name": "pool",
							"type": "address"
						},
						{
							"indexed": true,
							"internalType": "address",
							"name": "lender",
							"type": "address"
						},
						{
							"indexed": true,
							"internalType": "address",
							"name": "borrower",
							"type": "address"
						},
						{
							"indexed": false,
							"internalType": "address",
							"name": "vault",
							"type": "address"
						},
						{
							"indexed": false,
							"internalType": "enum IPoolOrganizer.PoolType",
							"name": "poolType",
							"type": "uint8"
						}
					],
					"name": "PoolRegistered",
					"type": "event"
				},
				{
					"anonymous": false,
					"inputs": [
						{
							"indexed": true,
							"internalType": "bytes32",
							"name": "role",
							"type": "bytes32"
						},
						{
							"indexed": true,
							"internalType": "bytes32",
							"name": "previousAdminRole",
							"type": "bytes32"
						},
						{
							"indexed": true,
							"internalType": "bytes32",
							"name": "newAdminRole",
							"type": "bytes32"
						}
					],
					"name": "RoleAdminChanged",
					"type": "event"
				},
				{
					"anonymous": false,
					"inputs": [
						{
							"indexed": true,
							"internalType": "bytes32",
							"name": "role",
							"type": "bytes32"
						},
						{
							"indexed": true,
							"internalType": "address",
							"name": "account",
							"type": "address"
						},
						{
							"indexed": true,
							"internalType": "address",
							"name": "sender",
							"type": "address"
						}
					],
					"name": "RoleGranted",
					"type": "event"
				},
				{
					"anonymous": false,
					"inputs": [
						{
							"indexed": true,
							"internalType": "bytes32",
							"name": "role",
							"type": "bytes32"
						},
						{
							"indexed": true,
							"internalType": "address",
							"name": "account",
							"type": "address"
						},
						{
							"indexed": true,
							"internalType": "address",
							"name": "sender",
							"type": "address"
						}
					],
					"name": "RoleRevoked",
					"type": "event"
				},
				{
					"anonymous": false,
					"inputs": [
						{
							"indexed": true,
							"internalType": "address",
							"name": "pool",
							"type": "address"
						},
						{
							"indexed": true,
							"internalType": "address",
							"name": "vault",
							"type": "address"
						}
					],
					"name": "VaultRegistered",
					"type": "event"
				},
				{
					"inputs": [],
					"name": "DEFAULT_ADMIN_ROLE",
					"outputs": [
						{
							"internalType": "bytes32",
							"name": "",
							"type": "bytes32"
						}
					],
					"stateMutability": "view",
					"type": "function"
				},
				{
					"inputs": [],
					"name": "POOL_MANAGER_ROLE",
					"outputs": [
						{
							"internalType": "bytes32",
							"name": "",
							"type": "bytes32"
						}
					],
					"stateMutability": "view",
					"type": "function"
				},
				{
					"inputs": [
						{
							"internalType": "address",
							"name": "pool",
							"type": "address"
						}
					],
					"name": "deregisterPool",
					"outputs": [],
					"stateMutability": "nonpayable",
					"type": "function"
				},
				{
					"inputs": [],
					"name": "getManagers",
					"outputs": [
						{
							"internalType": "address",
							"name": "",
							"type": "address"
						},
						{
							"internalType": "address",
							"name": "",
							"type": "address"
						}
					],
					"stateMutability": "view",
					"type": "function"
				},
				{
					"inputs": [
						{
							"internalType": "address",
							"name": "pool",
							"type": "address"
						}
					],
					"name": "getPoolDetails",
					"outputs": [
						{
							"components": [
								{
									"internalType": "address",
									"name": "lender",
									"type": "address"
								},
								{
									"internalType": "address",
									"name": "borrower",
									"type": "address"
								},
								{
									"internalType": "uint256",
									"name": "creationTime",
									"type": "uint256"
								},
								{
									"internalType": "address",
									"name": "vault",
									"type": "address"
								},
								{
									"internalType": "address",
									"name": "loanToken",
									"type": "address"
								},
								{
									"internalType": "address",
									"name": "assetToken",
									"type": "address"
								},
								{
									"internalType": "uint256",
									"name": "loanAmount",
									"type": "uint256"
								},
								{
									"internalType": "uint256",
									"name": "interestRate",
									"type": "uint256"
								},
								{
									"internalType": "uint256",
									"name": "repaymentPeriod",
									"type": "uint256"
								},
								{
									"internalType": "enum IPoolOrganizer.PoolType",
									"name": "poolType",
									"type": "uint8"
								}
							],
							"internalType": "struct IPoolOrganizer.PoolDetails",
							"name": "",
							"type": "tuple"
						}
					],
					"stateMutability": "view",
					"type": "function"
				},
				{
					"inputs": [
						{
							"internalType": "address",
							"name": "lender",
							"type": "address"
						}
					],
					"name": "getPoolsByLender",
					"outputs": [
						{
							"internalType": "address[]",
							"name": "",
							"type": "address[]"
						}
					],
					"stateMutability": "view",
					"type": "function"
				},
				{
					"inputs": [
						{
							"internalType": "bytes32",
							"name": "role",
							"type": "bytes32"
						}
					],
					"name": "getRoleAdmin",
					"outputs": [
						{
							"internalType": "bytes32",
							"name": "",
							"type": "bytes32"
						}
					],
					"stateMutability": "view",
					"type": "function"
				},
				{
					"inputs": [],
					"name": "getTotalPools",
					"outputs": [
						{
							"internalType": "uint256",
							"name": "",
							"type": "uint256"
						}
					],
					"stateMutability": "view",
					"type": "function"
				},
				{
					"inputs": [
						{
							"internalType": "address",
							"name": "pool",
							"type": "address"
						}
					],
					"name": "getVaultForPool",
					"outputs": [
						{
							"internalType": "address",
							"name": "",
							"type": "address"
						}
					],
					"stateMutability": "view",
					"type": "function"
				},
				{
					"inputs": [
						{
							"internalType": "address",
							"name": "factoryAddress",
							"type": "address"
						}
					],
					"name": "grantFactoryAccess",
					"outputs": [],
					"stateMutability": "nonpayable",
					"type": "function"
				},
				{
					"inputs": [
						{
							"internalType": "bytes32",
							"name": "role",
							"type": "bytes32"
						},
						{
							"internalType": "address",
							"name": "account",
							"type": "address"
						}
					],
					"name": "grantRole",
					"outputs": [],
					"stateMutability": "nonpayable",
					"type": "function"
				},
				{
					"inputs": [
						{
							"internalType": "bytes32",
							"name": "role",
							"type": "bytes32"
						},
						{
							"internalType": "address",
							"name": "account",
							"type": "address"
						}
					],
					"name": "hasRole",
					"outputs": [
						{
							"internalType": "bool",
							"name": "",
							"type": "bool"
						}
					],
					"stateMutability": "view",
					"type": "function"
				},
				{
					"inputs": [
						{
							"internalType": "address",
							"name": "",
							"type": "address"
						}
					],
					"name": "poolVaults",
					"outputs": [
						{
							"internalType": "address",
							"name": "",
							"type": "address"
						}
					],
					"stateMutability": "view",
					"type": "function"
				},
				{
					"inputs": [
						{
							"internalType": "address",
							"name": "_vaultManager",
							"type": "address"
						},
						{
							"internalType": "address",
							"name": "_rewardManager",
							"type": "address"
						}
					],
					"name": "registerManagers",
					"outputs": [],
					"stateMutability": "nonpayable",
					"type": "function"
				},
				{
					"inputs": [
						{
							"internalType": "address",
							"name": "pool",
							"type": "address"
						},
						{
							"internalType": "address",
							"name": "lender",
							"type": "address"
						},
						{
							"internalType": "address",
							"name": "borrower",
							"type": "address"
						},
						{
							"internalType": "address",
							"name": "vault",
							"type": "address"
						},
						{
							"internalType": "address",
							"name": "loanToken",
							"type": "address"
						},
						{
							"internalType": "address",
							"name": "assetToken",
							"type": "address"
						},
						{
							"internalType": "uint256",
							"name": "loanAmount",
							"type": "uint256"
						},
						{
							"internalType": "uint256",
							"name": "interestRate",
							"type": "uint256"
						},
						{
							"internalType": "uint256",
							"name": "repaymentPeriod",
							"type": "uint256"
						},
						{
							"internalType": "enum IPoolOrganizer.PoolType",
							"name": "poolType",
							"type": "uint8"
						}
					],
					"name": "registerPool",
					"outputs": [],
					"stateMutability": "nonpayable",
					"type": "function"
				},
				{
					"inputs": [
						{
							"internalType": "address",
							"name": "pool",
							"type": "address"
						},
						{
							"internalType": "address",
							"name": "vault",
							"type": "address"
						}
					],
					"name": "registerVault",
					"outputs": [],
					"stateMutability": "nonpayable",
					"type": "function"
				},
				{
					"inputs": [
						{
							"internalType": "bytes32",
							"name": "role",
							"type": "bytes32"
						},
						{
							"internalType": "address",
							"name": "callerConfirmation",
							"type": "address"
						}
					],
					"name": "renounceRole",
					"outputs": [],
					"stateMutability": "nonpayable",
					"type": "function"
				},
				{
					"inputs": [
						{
							"internalType": "bytes32",
							"name": "role",
							"type": "bytes32"
						},
						{
							"internalType": "address",
							"name": "account",
							"type": "address"
						}
					],
					"name": "revokeRole",
					"outputs": [],
					"stateMutability": "nonpayable",
					"type": "function"
				},
				{
					"inputs": [],
					"name": "rewardManager",
					"outputs": [
						{
							"internalType": "contract IRewardManager",
							"name": "",
							"type": "address"
						}
					],
					"stateMutability": "view",
					"type": "function"
				},
				{
					"inputs": [
						{
							"internalType": "bytes4",
							"name": "interfaceId",
							"type": "bytes4"
						}
					],
					"name": "supportsInterface",
					"outputs": [
						{
							"internalType": "bool",
							"name": "",
							"type": "bool"
						}
					],
					"stateMutability": "view",
					"type": "function"
				},
				{
					"inputs": [],
					"name": "vaultManager",
					"outputs": [
						{
							"internalType": "contract IVaultManager",
							"name": "",
							"type": "address"
						}
					],
					"stateMutability": "view",
					"type": "function"
				}
			],
			"devdoc": {
				"details": "Implements access control and management for pool lifecycle and integration with external managers.",
				"errors": {
					"AccessControlBadConfirmation()": [
						{
							"details": "The caller of a function is not the expected one. NOTE: Don't confuse with {AccessControlUnauthorizedAccount}."
						}
					],
					"AccessControlUnauthorizedAccount(address,bytes32)": [
						{
							"details": "The `account` is missing a role."
						}
					]
				},
				"events": {
					"ManagerRegistered(address,address)": {
						"details": "Emitted when managers are registered."
					},
					"PoolDeregistered(address)": {
						"details": "Emitted when a pool is deregistered."
					},
					"PoolRegistered(address,address,address,address,uint8)": {
						"details": "Emitted when a pool is registered."
					},
					"RoleAdminChanged(bytes32,bytes32,bytes32)": {
						"details": "Emitted when `newAdminRole` is set as ``role``'s admin role, replacing `previousAdminRole` `DEFAULT_ADMIN_ROLE` is the starting admin for all roles, despite {RoleAdminChanged} not being emitted signaling this."
					},
					"RoleGranted(bytes32,address,address)": {
						"details": "Emitted when `account` is granted `role`. `sender` is the account that originated the contract call, an admin role bearer except when using {AccessControl-_setupRole}."
					},
					"RoleRevoked(bytes32,address,address)": {
						"details": "Emitted when `account` is revoked `role`. `sender` is the account that originated the contract call:   - if using `revokeRole`, it is the admin role bearer   - if using `renounceRole`, it is the role bearer (i.e. `account`)"
					}
				},
				"kind": "dev",
				"methods": {
					"deregisterPool(address)": {
						"params": {
							"pool": "The address of the pool to deregister."
						}
					},
					"getManagers()": {
						"returns": {
							"_0": "A tuple containing the addresses of the VaultManager and RewardManager."
						}
					},
					"getPoolDetails(address)": {
						"params": {
							"pool": "The address of the pool."
						},
						"returns": {
							"_0": "Details of the specified pool."
						}
					},
					"getPoolsByLender(address)": {
						"params": {
							"lender": "The address of the lender."
						},
						"returns": {
							"_0": "An array of pool addresses."
						}
					},
					"getRoleAdmin(bytes32)": {
						"details": "Returns the admin role that controls `role`. See {grantRole} and {revokeRole}. To change a role's admin, use {_setRoleAdmin}."
					},
					"getTotalPools()": {
						"returns": {
							"_0": "The total number of pools."
						}
					},
					"getVaultForPool(address)": {
						"params": {
							"pool": "The address of the pool."
						},
						"returns": {
							"_0": "The address of the vault linked to the pool."
						}
					},
					"grantFactoryAccess(address)": {
						"params": {
							"factoryAddress": "The address of the factory to be granted access."
						}
					},
					"grantRole(bytes32,address)": {
						"details": "Grants `role` to `account`. If `account` had not been already granted `role`, emits a {RoleGranted} event. Requirements: - the caller must have ``role``'s admin role. May emit a {RoleGranted} event."
					},
					"hasRole(bytes32,address)": {
						"details": "Returns `true` if `account` has been granted `role`."
					},
					"registerManagers(address,address)": {
						"params": {
							"_rewardManager": "Address of the RewardManager contract.",
							"_vaultManager": "Address of the VaultManager contract."
						}
					},
					"registerPool(address,address,address,address,address,address,uint256,uint256,uint256,uint8)": {
						"params": {
							"assetToken": "The address of the asset token used as collateral.",
							"borrower": "The address of the borrower (if known at this point, otherwise zero).",
							"interestRate": "The interest rate of the loan.",
							"lender": "The address of the lender.",
							"loanAmount": "The amount of the loan.",
							"loanToken": "The address of the loan token.",
							"pool": "The address of the new pool.",
							"poolType": "The type of the pool (standard or flash).",
							"repaymentPeriod": "The period over which the loan is to be repaid.",
							"vault": "The address of the vault associated with the pool."
						}
					},
					"registerVault(address,address)": {
						"details": "This function can only be called by authorized roles, typically the PoolFactory.",
						"params": {
							"pool": "The address of the pool for which the vault is being registered.",
							"vault": "The address of the newly created vault."
						}
					},
					"renounceRole(bytes32,address)": {
						"details": "Revokes `role` from the calling account. Roles are often managed via {grantRole} and {revokeRole}: this function's purpose is to provide a mechanism for accounts to lose their privileges if they are compromised (such as when a trusted device is misplaced). If the calling account had been revoked `role`, emits a {RoleRevoked} event. Requirements: - the caller must be `callerConfirmation`. May emit a {RoleRevoked} event."
					},
					"revokeRole(bytes32,address)": {
						"details": "Revokes `role` from `account`. If `account` had been granted `role`, emits a {RoleRevoked} event. Requirements: - the caller must have ``role``'s admin role. May emit a {RoleRevoked} event."
					},
					"supportsInterface(bytes4)": {
						"details": "See {IERC165-supportsInterface}."
					}
				},
				"title": "Pool Organizer for managing pools, vaults, and rewards.",
				"version": 1
			},
			"evm": {
				"assembly": "    /* \"contracts/contracts/protocol/PoolOrganizer.sol\":431:7920  contract PoolOrganizer is AccessControl, IPoolOrganizer {... */\n  mstore(0x40, 0x80)\n  jumpi(tag_3, callvalue)\n    /* \"contracts/contracts/protocol/PoolOrganizer.sol\":1372:1414  _grantRole(DEFAULT_ADMIN_ROLE, msg.sender) */\n  tag_5\n    /* \"contracts/contracts/protocol/PoolOrganizer.sol\":1403:1413  msg.sender */\n  caller\n    /* \"contracts/contracts/protocol/PoolOrganizer.sol\":1372:1414  _grantRole(DEFAULT_ADMIN_ROLE, msg.sender) */\n  tag_1\n  jump\t// in\ntag_5:\n  pop\n    /* \"contracts/contracts/protocol/PoolOrganizer.sol\":1425:1466  _grantRole(POOL_MANAGER_ROLE, msg.sender) */\n  tag_6\n    /* \"contracts/contracts/protocol/PoolOrganizer.sol\":1403:1413  msg.sender */\n  caller\n    /* \"contracts/contracts/protocol/PoolOrganizer.sol\":1425:1466  _grantRole(POOL_MANAGER_ROLE, msg.sender) */\n  tag_2\n  jump\t// in\ntag_6:\n  pop\n    /* \"contracts/contracts/protocol/PoolOrganizer.sol\":431:7920  contract PoolOrganizer is AccessControl, IPoolOrganizer {... */\n  mload(0x40)\n  dataSize(sub_0)\n  swap1\n  dup2\n  dataOffset(sub_0)\n  dup3\n  codecopy\n  return\ntag_3:\n  0x00\n  dup1\n  revert\n    /* \"@openzeppelin/contracts/access/AccessControl.sol\":6179:6495  function _grantRole(bytes32 role, address account) internal virtual returns (bool) {... */\ntag_1:\n  sub(shl(0xa0, 0x01), 0x01)\n    /* \"contracts/contracts/protocol/PoolOrganizer.sol\":431:7920  contract PoolOrganizer is AccessControl, IPoolOrganizer {... */\n  and\n    /* \"@openzeppelin/contracts/access/AccessControl.sol\":2232:2236  0x00 */\n  0x00\n    /* \"contracts/contracts/protocol/PoolOrganizer.sol\":431:7920  contract PoolOrganizer is AccessControl, IPoolOrganizer {... */\n  dup2\n  dup2\n  mstore\n  0x00\n  dup1\n  mload\n  0x20\n  data_f0df3dcda05b4fbd9c655cde3d5ceb211e019e72ec816e127a59e7195f2cd7f5\n  dup4\n  codecopy\n  dup2\n  mload\n  swap2\n  mstore\n  0x20\n  mstore\n  0x40\n  swap1\n  keccak256\n  sload\n  0xff\n  and\n  tag_7\n  jumpi\n    /* \"@openzeppelin/contracts/access/AccessControl.sol\":2232:2236  0x00 */\n  0x00\n    /* \"contracts/contracts/protocol/PoolOrganizer.sol\":431:7920  contract PoolOrganizer is AccessControl, IPoolOrganizer {... */\n  dup2\n  dup2\n  mstore\n  0x00\n  dup1\n  mload\n  0x20\n  data_f0df3dcda05b4fbd9c655cde3d5ceb211e019e72ec816e127a59e7195f2cd7f5\n  dup4\n  codecopy\n  dup2\n  mload\n  swap2\n  mstore\n  0x20\n  mstore\n  0x40\n  dup2\n  keccak256\n  dup1\n  sload\n  not(0xff)\n  and\n    /* \"@openzeppelin/contracts/access/AccessControl.sol\":6347:6351  true */\n  0x01\n    /* \"contracts/contracts/protocol/PoolOrganizer.sol\":431:7920  contract PoolOrganizer is AccessControl, IPoolOrganizer {... */\n  or\n  swap1\n  sstore\n    /* \"@openzeppelin/contracts/utils/Context.sol\":735:745  msg.sender */\n  caller\n  swap2\n    /* \"contracts/contracts/protocol/PoolOrganizer.sol\":431:7920  contract PoolOrganizer is AccessControl, IPoolOrganizer {... */\n  swap1\n  0x00\n  dup1\n  mload\n  0x20\n  data_01400fe2f234cf888b5e4c66700c7903f33f31bfc9675e51cb0119f915eb534d\n  dup4\n  codecopy\n  dup2\n  mload\n  swap2\n  mstore\n    /* \"@openzeppelin/contracts/access/AccessControl.sol\":2232:2236  0x00 */\n  dup2\n  dup1\n    /* \"@openzeppelin/contracts/access/AccessControl.sol\":6370:6410  RoleGranted(role, account, _msgSender()) */\n  log4\n    /* \"@openzeppelin/contracts/access/AccessControl.sol\":6347:6351  true */\n  0x01\n    /* \"@openzeppelin/contracts/access/AccessControl.sol\":6424:6435  return true */\n  swap1\n  jump\t// out\n    /* \"@openzeppelin/contracts/access/AccessControl.sol\":6272:6489  if (!hasRole(role, account)) {... */\ntag_7:\n    /* \"@openzeppelin/contracts/access/AccessControl.sol\":6466:6478  return false */\n  pop\n    /* \"@openzeppelin/contracts/access/AccessControl.sol\":2232:2236  0x00 */\n  0x00\n    /* \"@openzeppelin/contracts/access/AccessControl.sol\":6466:6478  return false */\n  swap1\n  jump\t// out\n    /* \"@openzeppelin/contracts/access/AccessControl.sol\":6179:6495  function _grantRole(bytes32 role, address account) internal virtual returns (bool) {... */\ntag_2:\n  sub(shl(0xa0, 0x01), 0x01)\n    /* \"contracts/contracts/protocol/PoolOrganizer.sol\":431:7920  contract PoolOrganizer is AccessControl, IPoolOrganizer {... */\n  and\n    /* \"@openzeppelin/contracts/access/AccessControl.sol\":2954:2960  _roles */\n  0x00\n    /* \"contracts/contracts/protocol/PoolOrganizer.sol\":431:7920  contract PoolOrganizer is AccessControl, IPoolOrganizer {... */\n  dup2\n  dup2\n  mstore\n  mstore(0x20, 0x729ef9451dd492832bd2a98139702ced95dfa0cec7e99526dbbcb957abcbc476)\n  0x40\n  swap1\n  keccak256\n  sload\n    /* \"contracts/contracts/protocol/PoolOrganizer.sol\":538:568  keccak256(\"POOL_MANAGER_ROLE\") */\n  0x6077685936c8169d09204a1d97db12e41713588c38e1d29a61867d3dcee98aff\n  swap2\n    /* \"contracts/contracts/protocol/PoolOrganizer.sol\":431:7920  contract PoolOrganizer is AccessControl, IPoolOrganizer {... */\n  swap1\n  0xff\n  and\n  tag_9\n  jumpi\n  dup2\n    /* \"@openzeppelin/contracts/access/AccessControl.sol\":2954:2960  _roles */\n  0x00\n    /* \"contracts/contracts/protocol/PoolOrganizer.sol\":431:7920  contract PoolOrganizer is AccessControl, IPoolOrganizer {... */\n  mstore\n    /* \"@openzeppelin/contracts/access/AccessControl.sol\":2954:2960  _roles */\n  0x00\n    /* \"contracts/contracts/protocol/PoolOrganizer.sol\":431:7920  contract PoolOrganizer is AccessControl, IPoolOrganizer {... */\n  0x20\n  mstore\n  0x40\n    /* \"@openzeppelin/contracts/access/AccessControl.sol\":2954:2960  _roles */\n  0x00\n    /* \"contracts/contracts/protocol/PoolOrganizer.sol\":431:7920  contract PoolOrganizer is AccessControl, IPoolOrganizer {... */\n  keccak256\n  dup2\n    /* \"@openzeppelin/contracts/access/AccessControl.sol\":2954:2960  _roles */\n  0x00\n    /* \"contracts/contracts/protocol/PoolOrganizer.sol\":431:7920  contract PoolOrganizer is AccessControl, IPoolOrganizer {... */\n  mstore\n  0x20\n  mstore\n  0x40\n    /* \"@openzeppelin/contracts/access/AccessControl.sol\":2954:2960  _roles */\n  0x00\n    /* \"contracts/contracts/protocol/PoolOrganizer.sol\":431:7920  contract PoolOrganizer is AccessControl, IPoolOrganizer {... */\n  keccak256\n    /* \"@openzeppelin/contracts/access/AccessControl.sol\":6347:6351  true */\n  0x01\n    /* \"contracts/contracts/protocol/PoolOrganizer.sol\":431:7920  contract PoolOrganizer is AccessControl, IPoolOrganizer {... */\n  not(0xff)\n  dup3\n  sload\n  and\n  or\n  swap1\n  sstore\n    /* \"@openzeppelin/contracts/utils/Context.sol\":735:745  msg.sender */\n  caller\n    /* \"@openzeppelin/contracts/access/AccessControl.sol\":6370:6410  RoleGranted(role, account, _msgSender()) */\n  swap2\n  0x00\n  dup1\n  mload\n  0x20\n  data_01400fe2f234cf888b5e4c66700c7903f33f31bfc9675e51cb0119f915eb534d\n  dup4\n  codecopy\n  dup2\n  mload\n  swap2\n  mstore\n    /* \"@openzeppelin/contracts/access/AccessControl.sol\":2954:2960  _roles */\n  0x00\n    /* \"@openzeppelin/contracts/access/AccessControl.sol\":6370:6410  RoleGranted(role, account, _msgSender()) */\n  dup1\n  log4\n    /* \"@openzeppelin/contracts/access/AccessControl.sol\":6347:6351  true */\n  0x01\n    /* \"@openzeppelin/contracts/access/AccessControl.sol\":6424:6435  return true */\n  swap1\n  jump\t// out\n    /* \"@openzeppelin/contracts/access/AccessControl.sol\":6272:6489  if (!hasRole(role, account)) {... */\ntag_9:\n    /* \"@openzeppelin/contracts/access/AccessControl.sol\":6466:6478  return false */\n  pop\n  pop\n    /* \"@openzeppelin/contracts/access/AccessControl.sol\":2954:2960  _roles */\n  0x00\n    /* \"@openzeppelin/contracts/access/AccessControl.sol\":6466:6478  return false */\n  swap1\n  jump\t// out\nstop\ndata_01400fe2f234cf888b5e4c66700c7903f33f31bfc9675e51cb0119f915eb534d 2f8788117e7eff1d82e926ec794901d17c78024a50270940304540a733656f0d\ndata_f0df3dcda05b4fbd9c655cde3d5ceb211e019e72ec816e127a59e7195f2cd7f5 ad3228b676f7d3cd4284a5443f17f1962b36e491b30a40b2405849e597ba5fb5\n\nsub_0: assembly {\n        /* \"contracts/contracts/protocol/PoolOrganizer.sol\":431:7920  contract PoolOrganizer is AccessControl, IPoolOrganizer {... */\n      0x80\n      dup1\n      0x40\n      mstore\n      0x04\n      swap1\n      dup2\n      calldatasize\n      lt\n      iszero\n      tag_19\n      jumpi\n      0x00\n      dup1\n      revert\n    tag_19:\n      shr(0xe0, calldataload(0x00))\n      swap1\n      dup2\n      0x01ffc9a7\n      eq\n      tag_21\n      jumpi\n      pop\n      dup1\n      0x05c4fdf9\n      eq\n      tag_23\n      jumpi\n      dup1\n      0x0f4ef8a6\n      eq\n      tag_25\n      jumpi\n      dup1\n      0x1e4966ab\n      eq\n      tag_27\n      jumpi\n      dup1\n      0x2437769a\n      eq\n      tag_29\n      jumpi\n      dup1\n      0x248a9ca3\n      eq\n      tag_31\n      jumpi\n      dup1\n      0x24a44efb\n      eq\n      tag_33\n      jumpi\n      dup1\n      0x2f2ff15d\n      eq\n      tag_35\n      jumpi\n      dup1\n      0x36568abe\n      eq\n      tag_37\n      jumpi\n      dup1\n      0x56d73568\n      eq\n      tag_39\n      jumpi\n      dup1\n      0x5d102df7\n      eq\n      tag_41\n      jumpi\n      dup1\n      0x7570e389\n      eq\n      tag_43\n      jumpi\n      dup1\n      0x7e72c7d7\n      eq\n      tag_45\n      jumpi\n      dup1\n      0x8a4adf24\n      eq\n      tag_47\n      jumpi\n      dup1\n      0x91d14854\n      eq\n      tag_49\n      jumpi\n      dup1\n      0xa217fddf\n      eq\n      tag_51\n      jumpi\n      dup1\n      0xa8d088bb\n      eq\n      tag_53\n      jumpi\n      dup1\n      0xc489579d\n      eq\n      tag_55\n      jumpi\n      dup1\n      0xd3e90fa0\n      eq\n      tag_57\n      jumpi\n      dup1\n      0xd3ffe67a\n      eq\n      tag_59\n      jumpi\n      0xd547741f\n      eq\n      tag_61\n      jumpi\n      0x00\n      dup1\n      revert\n    tag_61:\n      jumpi(tag_65, callvalue)\n      jumpi(tag_65, slt(add(not(0x03), calldatasize), 0x40))\n        /* \"@openzeppelin/contracts/access/AccessControl.sol\":4747:4773  _revokeRole(role, account) */\n      tag_67\n        /* \"contracts/contracts/protocol/PoolOrganizer.sol\":431:7920  contract PoolOrganizer is AccessControl, IPoolOrganizer {... */\n      swap1\n      calldataload\n      tag_68\n      tag_2\n      jump\t// in\n    tag_68:\n      swap1\n      dup1\n      0x00\n      mstore\n      mstore(0x20, 0x00)\n        /* \"@openzeppelin/contracts/access/AccessControl.sol\":2475:2479  role */\n      tag_69\n        /* \"contracts/contracts/protocol/PoolOrganizer.sol\":431:7920  contract PoolOrganizer is AccessControl, IPoolOrganizer {... */\n      0x01\n      keccak256(0x00, 0x40)\n        /* \"@openzeppelin/contracts/access/AccessControl.sol\":3901:3923  _roles[role].adminRole */\n      add\n        /* \"contracts/contracts/protocol/PoolOrganizer.sol\":431:7920  contract PoolOrganizer is AccessControl, IPoolOrganizer {... */\n      sload\n        /* \"@openzeppelin/contracts/access/AccessControl.sol\":2475:2479  role */\n      tag_13\n      jump\t// in\n    tag_69:\n        /* \"@openzeppelin/contracts/access/AccessControl.sol\":4747:4773  _revokeRole(role, account) */\n      tag_16\n      jump\t// in\n    tag_67:\n        /* \"contracts/contracts/protocol/PoolOrganizer.sol\":431:7920  contract PoolOrganizer is AccessControl, IPoolOrganizer {... */\n      stop\n    tag_65:\n      0x00\n      dup1\n      revert\n    tag_59:\n      jumpi(tag_65, callvalue)\n      jumpi(tag_65, slt(add(not(0x03), calldatasize), 0x00))\n      0x20\n        /* \"contracts/contracts/protocol/PoolOrganizer.sol\":4908:4913  pools */\n      0x03\n        /* \"contracts/contracts/protocol/PoolOrganizer.sol\":431:7920  contract PoolOrganizer is AccessControl, IPoolOrganizer {... */\n      sload\n      mload(0x40)\n      swap1\n      dup2\n      mstore\n      return\n    tag_57:\n      pop\n      jumpi(tag_65, callvalue)\n      jumpi(tag_65, slt(add(not(0x03), calldatasize), 0x20))\n      0x0140\n      swap1\n      tag_78\n      tag_1\n      jump\t// in\n    tag_78:\n      0x00\n      0x0120\n      mload(0x40)\n      tag_79\n      dup2\n      tag_6\n      jump\t// in\n    tag_79:\n      dup3\n      dup2\n      mstore\n      dup3\n      0x20\n      dup3\n      add\n      mstore\n      dup3\n      0x40\n      dup3\n      add\n      mstore\n      dup3\n      0x60\n      dup3\n      add\n      mstore\n      dup3\n      0x80\n      dup3\n      add\n      mstore\n      dup3\n      0xa0\n      dup3\n      add\n      mstore\n      dup3\n      0xc0\n      dup3\n      add\n      mstore\n      dup3\n      0xe0\n      dup3\n      add\n      mstore\n      dup3\n      0x0100\n      dup3\n      add\n      mstore\n      add\n      mstore\n      0x01\n      dup1\n      0xa0\n      shl\n      sub\n      and\n      dup1\n      0x00\n      mstore\n      dup2\n      0x20\n      mstore\n        /* \"contracts/contracts/protocol/PoolOrganizer.sol\":5481:5551  require(poolDetails[pool].lender != address(0), \"Pool not registered\") */\n      tag_80\n        /* \"contracts/contracts/protocol/PoolOrganizer.sol\":431:7920  contract PoolOrganizer is AccessControl, IPoolOrganizer {... */\n      0x01\n      dup1\n      0xa0\n      shl\n      sub\n      sload(keccak256(0x00, 0x40))\n      and\n        /* \"contracts/contracts/protocol/PoolOrganizer.sol\":5489:5527  poolDetails[pool].lender != address(0) */\n      iszero\n      iszero\n        /* \"contracts/contracts/protocol/PoolOrganizer.sol\":5481:5551  require(poolDetails[pool].lender != address(0), \"Pool not registered\") */\n      tag_5\n      jump\t// in\n    tag_80:\n        /* \"contracts/contracts/protocol/PoolOrganizer.sol\":431:7920  contract PoolOrganizer is AccessControl, IPoolOrganizer {... */\n      0x00\n      mstore\n      dup1\n      0x20\n      mstore\n      tag_81\n      0xff\n      0x09\n      keccak256(0x00, 0x40)\n      mload(0x40)\n      swap5\n      tag_82\n      dup7\n      tag_6\n      jump\t// in\n    tag_82:\n      dup2\n      sload\n      sub(shl(0xa0, 0x01), 0x01)\n      swap1\n      dup2\n      and\n      dup8\n      mstore\n      0x01\n      dup4\n      add\n      sload\n      dup2\n      and\n      0x20\n      dup9\n      add\n      mstore\n      0x02\n      dup4\n      add\n      sload\n      0x40\n      dup9\n      add\n      mstore\n      0x03\n      dup4\n      add\n      sload\n      dup2\n      and\n      0x60\n      dup9\n      add\n      mstore\n      swap1\n      dup3\n      add\n      sload\n      dup2\n      and\n      0x80\n      dup8\n      add\n      mstore\n      0x05\n      dup3\n      add\n      sload\n      and\n      0xa0\n      dup7\n      add\n      mstore\n      0x06\n      dup2\n      add\n      sload\n      0xc0\n      dup7\n      add\n      mstore\n      0x07\n      dup2\n      add\n      sload\n      0xe0\n      dup7\n      add\n      mstore\n      0x08\n      dup2\n      add\n      sload\n      0x0100\n      dup7\n      add\n      mstore\n      add\n      sload\n      and\n      0x0120\n      dup4\n      add\n      tag_7\n      jump\t// in\n    tag_81:\n      tag_83\n      0x0120\n      mload(0x40)\n      swap3\n      0x01\n      dup1\n      0xa0\n      shl\n      sub\n      dup2\n      mload\n      and\n      dup5\n      mstore\n      0x01\n      dup1\n      0xa0\n      shl\n      sub\n      0x20\n      dup3\n      add\n      mload\n      and\n      0x20\n      dup6\n      add\n      mstore\n      0x40\n      dup2\n      add\n      mload\n      0x40\n      dup6\n      add\n      mstore\n      0x01\n      dup1\n      0xa0\n      shl\n      sub\n      0x60\n      dup3\n      add\n      mload\n      and\n      0x60\n      dup6\n      add\n      mstore\n      0x01\n      dup1\n      0xa0\n      shl\n      sub\n      0x80\n      dup3\n      add\n      mload\n      and\n      0x80\n      dup6\n      add\n      mstore\n      0x01\n      dup1\n      0xa0\n      shl\n      sub\n      0xa0\n      dup3\n      add\n      mload\n      and\n      0xa0\n      dup6\n      add\n      mstore\n      0xc0\n      dup2\n      add\n      mload\n      0xc0\n      dup6\n      add\n      mstore\n      0xe0\n      dup2\n      add\n      mload\n      0xe0\n      dup6\n      add\n      mstore\n      0x0100\n      dup2\n      add\n      mload\n      0x0100\n      dup6\n      add\n      mstore\n      add\n      mload\n      0x0120\n      dup4\n      add\n      swap1\n      tag_4\n      jump\t// in\n    tag_83:\n      return\n    tag_55:\n      pop\n      jumpi(tag_65, callvalue)\n      jumpi(tag_65, slt(add(not(0x03), calldatasize), 0x40))\n      tag_88\n      tag_1\n      jump\t// in\n    tag_88:\n      tag_89\n      tag_2\n      jump\t// in\n    tag_89:\n        /* \"@openzeppelin/contracts/utils/Context.sol\":735:745  msg.sender */\n      caller\n        /* \"contracts/contracts/protocol/PoolOrganizer.sol\":431:7920  contract PoolOrganizer is AccessControl, IPoolOrganizer {... */\n      0x00\n      swap1\n      dup2\n      mstore\n      mstore(0x20, 0xad3228b676f7d3cd4284a5443f17f1962b36e491b30a40b2405849e597ba5fb5)\n      0x40\n      swap1\n      keccak256\n      sload\n      swap1\n      swap2\n      swap1\n      0xff\n      and\n        /* \"@openzeppelin/contracts/access/AccessControl.sol\":3519:3542  !hasRole(role, account) */\n      iszero\n        /* \"@openzeppelin/contracts/access/AccessControl.sol\":3515:3623  if (!hasRole(role, account)) {... */\n      tag_90\n      jumpi\n      sub(shl(0xa0, 0x01), 0x01)\n        /* \"contracts/contracts/protocol/PoolOrganizer.sol\":431:7920  contract PoolOrganizer is AccessControl, IPoolOrganizer {... */\n      dup2\n      dup2\n      and\n      swap1\n        /* \"contracts/contracts/protocol/PoolOrganizer.sol\":4062:4089  _vaultManager != address(0) */\n      dup2\n      iszero\n        /* \"contracts/contracts/protocol/PoolOrganizer.sol\":431:7920  contract PoolOrganizer is AccessControl, IPoolOrganizer {... */\n      tag_92\n      jumpi\n      dup4\n      and\n        /* \"contracts/contracts/protocol/PoolOrganizer.sol\":4148:4176  _rewardManager != address(0) */\n      swap1\n      dup2\n      iszero\n        /* \"contracts/contracts/protocol/PoolOrganizer.sol\":431:7920  contract PoolOrganizer is AccessControl, IPoolOrganizer {... */\n      tag_94\n      jumpi\n        /* \"contracts/contracts/protocol/PoolOrganizer.sol\":4230:4273  vaultManager = IVaultManager(_vaultManager) */\n      0x01\n        /* \"contracts/contracts/protocol/PoolOrganizer.sol\":431:7920  contract PoolOrganizer is AccessControl, IPoolOrganizer {... */\n      dup1\n      sload\n      not(sub(shl(0xa0, 0x01), 0x01))\n      swap1\n      dup2\n      and\n      swap3\n      swap1\n      swap3\n      or\n      swap1\n      sstore\n        /* \"contracts/contracts/protocol/PoolOrganizer.sol\":4284:4330  rewardManager = IRewardManager(_rewardManager) */\n      0x02\n        /* \"contracts/contracts/protocol/PoolOrganizer.sol\":431:7920  contract PoolOrganizer is AccessControl, IPoolOrganizer {... */\n      dup1\n      sload\n      swap1\n      swap2\n      and\n      swap2\n      swap1\n      swap2\n      or\n      swap1\n      sstore\n      0x40\n      dup1\n      mload\n      sub(shl(0xa0, 0x01), 0x01)\n      swap3\n      dup4\n      and\n      dup2\n      mstore\n      swap3\n      swap1\n      swap2\n      and\n      0x20\n      dup4\n      add\n      mstore\n        /* \"contracts/contracts/protocol/PoolOrganizer.sol\":4348:4396  ManagerRegistered(_vaultManager, _rewardManager) */\n      0x8fc18cc172f74c81235145b7927190d2bd0e351fc45bfb17bb572593273cef21\n      swap3\n      pop\n        /* \"contracts/contracts/protocol/PoolOrganizer.sol\":431:7920  contract PoolOrganizer is AccessControl, IPoolOrganizer {... */\n      swap1\n        /* \"contracts/contracts/protocol/PoolOrganizer.sol\":4348:4396  ManagerRegistered(_vaultManager, _rewardManager) */\n      log1\n        /* \"contracts/contracts/protocol/PoolOrganizer.sol\":431:7920  contract PoolOrganizer is AccessControl, IPoolOrganizer {... */\n      stop\n    tag_94:\n      mload(0x40)\n      shl(0xe5, 0x461bcd)\n      dup2\n      mstore\n      0x20\n      dup2\n      dup8\n      add\n      mstore\n      0x24\n      dup1\n      dup3\n      add\n      mstore\n      0x5265776172644d616e616765722063616e6e6f74206265207a65726f20616464\n      0x44\n      dup3\n      add\n      mstore\n      shl(0xe0, 0x72657373)\n      0x64\n      dup3\n      add\n      mstore\n      0x84\n      swap1\n      revert\n    tag_92:\n      mload(0x40)\n      shl(0xe5, 0x461bcd)\n      dup2\n      mstore\n      0x20\n      dup2\n      dup8\n      add\n      mstore\n      0x23\n      0x24\n      dup3\n      add\n      mstore\n      0x5661756c744d616e616765722063616e6e6f74206265207a65726f2061646472\n      0x44\n      dup3\n      add\n      mstore\n      shl(0xe8, 0x657373)\n      0x64\n      dup3\n      add\n      mstore\n      0x84\n      swap1\n      revert\n        /* \"@openzeppelin/contracts/access/AccessControl.sol\":3515:3623  if (!hasRole(role, account)) {... */\n    tag_90:\n        /* \"contracts/contracts/protocol/PoolOrganizer.sol\":431:7920  contract PoolOrganizer is AccessControl, IPoolOrganizer {... */\n      mload(0x40)\n      shl(0xe0, 0xe2517d3f)\n        /* \"@openzeppelin/contracts/access/AccessControl.sol\":3565:3612  AccessControlUnauthorizedAccount(account, role) */\n      dup2\n      mstore\n        /* \"@openzeppelin/contracts/utils/Context.sol\":735:745  msg.sender */\n      caller\n        /* \"@openzeppelin/contracts/access/AccessControl.sol\":3565:3612  AccessControlUnauthorizedAccount(account, role) */\n      dup2\n      dup6\n      add\n        /* \"contracts/contracts/protocol/PoolOrganizer.sol\":431:7920  contract PoolOrganizer is AccessControl, IPoolOrganizer {... */\n      mstore\n      0x00\n      0x24\n      dup3\n      add\n      mstore\n      0x44\n      swap1\n        /* \"@openzeppelin/contracts/access/AccessControl.sol\":3565:3612  AccessControlUnauthorizedAccount(account, role) */\n      revert\n        /* \"contracts/contracts/protocol/PoolOrganizer.sol\":431:7920  contract PoolOrganizer is AccessControl, IPoolOrganizer {... */\n    tag_53:\n      jumpi(tag_65, callvalue)\n      jumpi(tag_65, slt(add(not(0x03), calldatasize), 0x00))\n      sload(0x01)\n        /* \"contracts/contracts/protocol/PoolOrganizer.sol\":4693:4706  rewardManager */\n      0x02\n        /* \"contracts/contracts/protocol/PoolOrganizer.sol\":431:7920  contract PoolOrganizer is AccessControl, IPoolOrganizer {... */\n      sload\n      0x40\n      dup1\n      mload\n      sub(shl(0xa0, 0x01), 0x01)\n      swap4\n      dup5\n      and\n      dup2\n      mstore\n      swap3\n      swap1\n      swap2\n      and\n      0x20\n      dup4\n      add\n      mstore\n      swap1\n      return\n    tag_51:\n      jumpi(tag_65, callvalue)\n      jumpi(tag_65, slt(add(not(0x03), calldatasize), 0x00))\n      0x20\n      mload(0x40)\n      0x00\n      dup2\n      mstore\n      return\n    tag_49:\n      pop\n      jumpi(tag_65, callvalue)\n      jumpi(tag_65, slt(add(not(0x03), calldatasize), 0x40))\n      tag_110\n      tag_2\n      jump\t// in\n    tag_110:\n      swap1\n      calldataload\n      0x00\n      mstore\n      mstore(0x20, 0x00)\n      keccak256(0x00, 0x40)\n      swap1\n      0x01\n      dup1\n      0xa0\n      shl\n      sub\n      and\n      0x00\n      mstore\n      0x20\n      mstore\n      0x20\n      and(sload(keccak256(0x00, 0x40)), 0xff)\n      mload(0x40)\n      swap1\n      iszero\n      iszero\n      dup2\n      mstore\n      return\n    tag_47:\n      jumpi(tag_65, callvalue)\n      jumpi(tag_65, slt(add(not(0x03), calldatasize), 0x00))\n      sload(0x01)\n      mload(0x40)\n      sub(shl(0xa0, 0x01), 0x01)\n      swap1\n      swap2\n      and\n      dup2\n      mstore\n      0x20\n      swap1\n      return\n    tag_45:\n      pop\n      jumpi(tag_65, callvalue)\n      0x20\n      swap1\n      dup2\n      add(calldatasize, not(0x03))\n      slt\n      tag_65\n      jumpi\n      tag_119\n      tag_1\n      jump\t// in\n    tag_119:\n        /* \"@openzeppelin/contracts/access/AccessControl.sol\":2475:2479  role */\n      swap1\n      tag_120\n      tag_12\n      jump\t// in\n    tag_120:\n        /* \"contracts/contracts/protocol/PoolOrganizer.sol\":431:7920  contract PoolOrganizer is AccessControl, IPoolOrganizer {... */\n      0x01\n      dup1\n      0xa0\n      shl\n      sub\n      swap1\n      dup2\n      dup4\n      and\n      swap4\n      dup5\n      0x00\n      mstore\n      dup2\n      dup2\n      mstore\n        /* \"contracts/contracts/protocol/PoolOrganizer.sol\":3439:3509  require(poolDetails[pool].lender != address(0), \"Pool not registered\") */\n      tag_121\n        /* \"contracts/contracts/protocol/PoolOrganizer.sol\":431:7920  contract PoolOrganizer is AccessControl, IPoolOrganizer {... */\n      dup4\n      sload(keccak256(0x00, 0x40))\n      and\n        /* \"contracts/contracts/protocol/PoolOrganizer.sol\":3447:3485  poolDetails[pool].lender != address(0) */\n      iszero\n      iszero\n        /* \"contracts/contracts/protocol/PoolOrganizer.sol\":3439:3509  require(poolDetails[pool].lender != address(0), \"Pool not registered\") */\n      tag_5\n      jump\t// in\n    tag_121:\n        /* \"contracts/contracts/protocol/PoolOrganizer.sol\":431:7920  contract PoolOrganizer is AccessControl, IPoolOrganizer {... */\n      dup5\n      0x00\n      mstore\n      dup2\n      dup2\n      mstore\n      dup3\n      sload(keccak256(0x00, 0x40))\n      and\n      dup1\n      0x00\n      mstore\n        /* \"contracts/contracts/protocol/PoolOrganizer.sol\":6494:6505  lenderPools */\n      0x05\n        /* \"contracts/contracts/protocol/PoolOrganizer.sol\":431:7920  contract PoolOrganizer is AccessControl, IPoolOrganizer {... */\n      swap4\n      dup5\n      dup4\n      mstore\n        /* \"contracts/contracts/protocol/PoolOrganizer.sol\":6477:6520  findIndexInArray(lenderPools[lender], pool) */\n      tag_122\n        /* \"contracts/contracts/protocol/PoolOrganizer.sol\":431:7920  contract PoolOrganizer is AccessControl, IPoolOrganizer {... */\n      dup7\n      keccak256(0x00, 0x40)\n        /* \"contracts/contracts/protocol/PoolOrganizer.sol\":6477:6520  findIndexInArray(lenderPools[lender], pool) */\n      tag_18\n      jump\t// in\n    tag_122:\n        /* \"contracts/contracts/protocol/PoolOrganizer.sol\":431:7920  contract PoolOrganizer is AccessControl, IPoolOrganizer {... */\n      swap6\n      dup3\n      0x00\n      mstore\n      dup6\n      dup5\n      mstore\n      sload(keccak256(0x00, 0x40))\n      swap3\n      not(0x00)\n      swap4\n      dup5\n      dup2\n      add\n      swap1\n      dup2\n      gt\n      tag_123\n      jumpi\n        /* \"contracts/contracts/protocol/PoolOrganizer.sol\":6621:6651  lenderPools[lender][lastIndex] */\n      tag_125\n        /* \"contracts/contracts/protocol/PoolOrganizer.sol\":6592:6651  lenderPools[lender][index] = lenderPools[lender][lastIndex] */\n      tag_126\n        /* \"contracts/contracts/protocol/PoolOrganizer.sol\":431:7920  contract PoolOrganizer is AccessControl, IPoolOrganizer {... */\n      swap2\n      dup4\n      0x00\n      mstore\n      dup10\n      dup9\n      mstore\n      keccak256(0x00, 0x40)\n        /* \"contracts/contracts/protocol/PoolOrganizer.sol\":6621:6651  lenderPools[lender][lastIndex] */\n      tag_9\n      jump\t// in\n    tag_125:\n        /* \"contracts/contracts/protocol/PoolOrganizer.sol\":431:7920  contract PoolOrganizer is AccessControl, IPoolOrganizer {... */\n      swap1\n      sload\n      dup6\n        /* \"contracts/contracts/protocol/PoolOrganizer.sol\":6592:6618  lenderPools[lender][index] */\n      tag_127\n        /* \"contracts/contracts/protocol/PoolOrganizer.sol\":431:7920  contract PoolOrganizer is AccessControl, IPoolOrganizer {... */\n      0x03\n      swap13\n      dup7\n      0x00\n      mstore\n      dup13\n      dup12\n      mstore\n      keccak256(0x00, 0x40)\n        /* \"contracts/contracts/protocol/PoolOrganizer.sol\":6592:6618  lenderPools[lender][index] */\n      tag_9\n      jump\t// in\n    tag_127:\n        /* \"contracts/contracts/protocol/PoolOrganizer.sol\":431:7920  contract PoolOrganizer is AccessControl, IPoolOrganizer {... */\n      swap3\n      swap1\n      swap4\n      dup14\n      shl\n      shr\n      and\n      swap1\n      0x01\n      dup1\n      0xa0\n      shl\n      sub\n      dup1\n      dup5\n      sload\n      swap3\n      0x03\n      shl\n      swap4\n      and\n      dup4\n      shl\n      swap3\n      shl\n      not\n      and\n      or\n      swap1\n      sstore\n      jump\n        /* \"contracts/contracts/protocol/PoolOrganizer.sol\":6592:6651  lenderPools[lender][index] = lenderPools[lender][lastIndex] */\n    tag_126:\n        /* \"contracts/contracts/protocol/PoolOrganizer.sol\":431:7920  contract PoolOrganizer is AccessControl, IPoolOrganizer {... */\n      0x00\n      mstore\n      dup6\n      dup5\n      mstore\n      keccak256(0x00, 0x40)\n      dup1\n      sload\n      dup1\n      iszero\n      tag_128\n      jumpi\n      swap1\n      dup5\n        /* \"contracts/contracts/protocol/PoolOrganizer.sol\":6786:6815  findIndexInArray(pools, pool) */\n      tag_130\n        /* \"contracts/contracts/protocol/PoolOrganizer.sol\":431:7920  contract PoolOrganizer is AccessControl, IPoolOrganizer {... */\n      swap4\n      swap3\n      add\n      swap1\n      tag_131\n      tag_132\n      dup4\n      dup4\n      tag_9\n      jump\t// in\n    tag_132:\n      dup2\n      sload\n      swap1\n      0x01\n      dup1\n      0xa0\n      shl\n      sub\n      swap1\n      0x03\n      shl\n      shl\n      not\n      and\n      swap1\n      sstore\n      jump\n    tag_131:\n      sstore\n        /* \"contracts/contracts/protocol/PoolOrganizer.sol\":6786:6815  findIndexInArray(pools, pool) */\n      tag_17\n      jump\t// in\n    tag_130:\n        /* \"contracts/contracts/protocol/PoolOrganizer.sol\":431:7920  contract PoolOrganizer is AccessControl, IPoolOrganizer {... */\n      swap1\n      dup7\n      sload\n      dup4\n      dup2\n      add\n      swap1\n      dup2\n      gt\n      tag_133\n      jumpi\n        /* \"contracts/contracts/protocol/PoolOrganizer.sol\":6873:6904  pools[index] = pools[lastIndex] */\n      tag_135\n        /* \"contracts/contracts/protocol/PoolOrganizer.sol\":6888:6904  pools[lastIndex] */\n      swap3\n      swap2\n      tag_136\n        /* \"contracts/contracts/protocol/PoolOrganizer.sol\":6873:6885  pools[index] */\n      tag_137\n        /* \"contracts/contracts/protocol/PoolOrganizer.sol\":6888:6904  pools[lastIndex] */\n      swap3\n      tag_8\n      jump\t// in\n    tag_136:\n        /* \"contracts/contracts/protocol/PoolOrganizer.sol\":431:7920  contract PoolOrganizer is AccessControl, IPoolOrganizer {... */\n      swap1\n      sload\n      swap1\n      dup11\n      shl\n      shr\n      and\n        /* \"contracts/contracts/protocol/PoolOrganizer.sol\":6873:6885  pools[index] */\n      swap2\n      tag_8\n      jump\t// in\n    tag_137:\n        /* \"contracts/contracts/protocol/PoolOrganizer.sol\":6873:6904  pools[index] = pools[lastIndex] */\n      swap1\n        /* \"contracts/contracts/protocol/PoolOrganizer.sol\":431:7920  contract PoolOrganizer is AccessControl, IPoolOrganizer {... */\n      swap2\n      swap1\n      0x01\n      dup1\n      0xa0\n      shl\n      sub\n      dup1\n      dup5\n      sload\n      swap3\n      0x03\n      shl\n      swap4\n      and\n      dup4\n      shl\n      swap3\n      shl\n      not\n      and\n      or\n      swap1\n      sstore\n      jump\n        /* \"contracts/contracts/protocol/PoolOrganizer.sol\":6873:6904  pools[index] = pools[lastIndex] */\n    tag_135:\n        /* \"contracts/contracts/protocol/PoolOrganizer.sol\":431:7920  contract PoolOrganizer is AccessControl, IPoolOrganizer {... */\n      dup5\n      sload\n      dup1\n      iszero\n      tag_138\n      jumpi\n      dup4\n      0x00\n      swap7\n      swap5\n      dup8\n      swap5\n      0x09\n      swap8\n      swap5\n      dup7\n      swap5\n      add\n      tag_140\n      tag_132\n      dup3\n      tag_8\n      jump\t// in\n    tag_140:\n      dup8\n      sstore\n      dup10\n      dup5\n      mstore\n      mstore\n      dup2\n      0x40\n      dup2\n      keccak256\n      swap6\n      dup2\n      dup8\n      sstore\n      dup2\n        /* \"contracts/contracts/protocol/PoolOrganizer.sol\":6580:6581  1 */\n      0x01\n        /* \"contracts/contracts/protocol/PoolOrganizer.sol\":431:7920  contract PoolOrganizer is AccessControl, IPoolOrganizer {... */\n      dup9\n      add\n      sstore\n      dup2\n      0x02\n      dup9\n      add\n      sstore\n      dup7\n      add\n      sstore\n      dup5\n      add\n      sstore\n      dup3\n      add\n      sstore\n      dup3\n      0x06\n      dup3\n      add\n      sstore\n      dup3\n      0x07\n      dup3\n      add\n      sstore\n      dup3\n      0x08\n      dup3\n      add\n      sstore\n      add\n      sstore\n        /* \"contracts/contracts/protocol/PoolOrganizer.sol\":3674:3696  PoolDeregistered(pool) */\n      0x334d0b2111287dfddebe4b4c1c5af3ae644909d7fcd024377bf601e236ed5abb\n        /* \"contracts/contracts/protocol/PoolOrganizer.sol\":431:7920  contract PoolOrganizer is AccessControl, IPoolOrganizer {... */\n      0x00\n        /* \"contracts/contracts/protocol/PoolOrganizer.sol\":3674:3696  PoolDeregistered(pool) */\n      dup1\n      log2\n        /* \"contracts/contracts/protocol/PoolOrganizer.sol\":431:7920  contract PoolOrganizer is AccessControl, IPoolOrganizer {... */\n      stop\n    tag_138:\n      0x31\n      dup5\n      mstore(0x00, shl(0xe0, 0x4e487b71))\n      mstore\n      revert(0x00, 0x24)\n    tag_133:\n      0x11\n      dup7\n      mstore(0x00, shl(0xe0, 0x4e487b71))\n      mstore\n      revert(0x00, 0x24)\n    tag_128:\n      0x31\n      dup8\n      mstore(0x00, shl(0xe0, 0x4e487b71))\n      mstore\n      revert(0x00, 0x24)\n    tag_123:\n      0x11\n      dup8\n      mstore(0x00, shl(0xe0, 0x4e487b71))\n      mstore\n      revert(0x00, 0x24)\n    tag_43:\n      pop\n      jumpi(tag_65, callvalue)\n      jumpi(tag_65, slt(add(not(0x03), calldatasize), 0x20))\n      sub(shl(0xa0, 0x01), 0x01)\n      dup1\n      tag_146\n      tag_1\n      jump\t// in\n    tag_146:\n      and\n      dup1\n      0x00\n      mstore\n        /* \"contracts/contracts/protocol/PoolOrganizer.sol\":5870:5880  poolVaults */\n      0x06\n        /* \"contracts/contracts/protocol/PoolOrganizer.sol\":431:7920  contract PoolOrganizer is AccessControl, IPoolOrganizer {... */\n      0x20\n      mstore\n      dup2\n      sload(keccak256(0x00, 0x40))\n      and\n        /* \"contracts/contracts/protocol/PoolOrganizer.sol\":5870:5900  poolVaults[pool] != address(0) */\n      iszero\n        /* \"contracts/contracts/protocol/PoolOrganizer.sol\":431:7920  contract PoolOrganizer is AccessControl, IPoolOrganizer {... */\n      tag_147\n      jumpi\n      0x20\n      swap3\n      pop\n      0x00\n      mstore\n        /* \"contracts/contracts/protocol/PoolOrganizer.sol\":5870:5880  poolVaults */\n      0x06\n        /* \"contracts/contracts/protocol/PoolOrganizer.sol\":431:7920  contract PoolOrganizer is AccessControl, IPoolOrganizer {... */\n      dup3\n      mstore\n      sload(keccak256(0x00, 0x40))\n      and\n      mload(0x40)\n      swap1\n      dup2\n      mstore\n      return\n    tag_147:\n      mload(0x40)\n      shl(0xe5, 0x461bcd)\n      dup2\n      mstore\n      0x20\n      dup2\n      dup6\n      add\n      mstore\n      0x23\n      0x24\n      dup3\n      add\n      mstore\n      0x506f6f6c206e6f742072656769737465726564206f7220686173206e6f207661\n      0x44\n      dup3\n      add\n      mstore\n      shl(0xea, 0x1d5b1d)\n      0x64\n      dup3\n      add\n      mstore\n      0x84\n      swap1\n      revert\n    tag_41:\n      pop\n      jumpi(tag_65, callvalue)\n      jumpi(tag_65, slt(add(not(0x03), calldatasize), 0x20))\n      tag_153\n      tag_1\n      jump\t// in\n    tag_153:\n        /* \"contracts/contracts/protocol/PoolOrganizer.sol\":6234:6244  msg.sender */\n      caller\n        /* \"contracts/contracts/protocol/PoolOrganizer.sol\":431:7920  contract PoolOrganizer is AccessControl, IPoolOrganizer {... */\n      0x00\n      swap1\n      dup2\n      mstore\n      mstore(0x20, 0xad3228b676f7d3cd4284a5443f17f1962b36e491b30a40b2405849e597ba5fb5)\n      0x40\n      swap1\n      keccak256\n      sload\n      swap1\n      swap2\n      swap1\n      0xff\n      and\n      iszero\n      tag_154\n      jumpi\n        /* \"@openzeppelin/contracts/access/AccessControl.sol\":4330:4355  _grantRole(role, account) */\n      tag_67\n        /* \"contracts/contracts/protocol/PoolOrganizer.sol\":431:7920  contract PoolOrganizer is AccessControl, IPoolOrganizer {... */\n      dup3\n      0x00\n      dup1\n      mload\n      0x20\n      data_cea5b988323acc73cd81db0e6f2932cdc75f39072539d65cbfa79c56b2a64e51\n      dup4\n      codecopy\n      dup2\n      mload\n      swap2\n      mstore\n      0x00\n      mstore\n      mstore(0x20, 0x00)\n        /* \"@openzeppelin/contracts/access/AccessControl.sol\":2475:2479  role */\n      tag_157\n        /* \"@openzeppelin/contracts/access/AccessControl.sol\":3901:3923  _roles[role].adminRole */\n      0x01\n        /* \"contracts/contracts/protocol/PoolOrganizer.sol\":431:7920  contract PoolOrganizer is AccessControl, IPoolOrganizer {... */\n      keccak256(0x00, 0x40)\n        /* \"@openzeppelin/contracts/access/AccessControl.sol\":3901:3923  _roles[role].adminRole */\n      add\n        /* \"contracts/contracts/protocol/PoolOrganizer.sol\":431:7920  contract PoolOrganizer is AccessControl, IPoolOrganizer {... */\n      sload\n        /* \"@openzeppelin/contracts/access/AccessControl.sol\":2475:2479  role */\n      tag_13\n      jump\t// in\n    tag_157:\n        /* \"@openzeppelin/contracts/access/AccessControl.sol\":4330:4355  _grantRole(role, account) */\n      tag_14\n      jump\t// in\n        /* \"contracts/contracts/protocol/PoolOrganizer.sol\":431:7920  contract PoolOrganizer is AccessControl, IPoolOrganizer {... */\n    tag_154:\n      0x64\n      swap1\n      0x20\n      mload(0x40)\n      swap2\n      shl(0xe5, 0x461bcd)\n      dup4\n      mstore\n      dup3\n      add\n      mstore\n      0x16\n      0x24\n      dup3\n      add\n      mstore\n      shl(0x51, 0x21b0b63632b91034b9903737ba1030b71030b236b4b7)\n      0x44\n      dup3\n      add\n      mstore\n      revert\n    tag_39:\n      jumpi(tag_65, callvalue)\n      jumpi(tag_65, slt(add(not(0x03), calldatasize), 0x00))\n      0x20\n      mload(0x40)\n      0x00\n      dup1\n      mload\n      0x20\n      data_cea5b988323acc73cd81db0e6f2932cdc75f39072539d65cbfa79c56b2a64e51\n      dup4\n      codecopy\n      dup2\n      mload\n      swap2\n      mstore\n      dup2\n      mstore\n      return\n    tag_37:\n      pop\n      jumpi(tag_65, callvalue)\n      jumpi(tag_65, slt(add(not(0x03), calldatasize), 0x40))\n      tag_166\n      tag_2\n      jump\t// in\n    tag_166:\n        /* \"@openzeppelin/contracts/utils/Context.sol\":735:745  msg.sender */\n      caller\n      sub(shl(0xa0, 0x01), 0x01)\n        /* \"contracts/contracts/protocol/PoolOrganizer.sol\":431:7920  contract PoolOrganizer is AccessControl, IPoolOrganizer {... */\n      dup3\n      and\n        /* \"@openzeppelin/contracts/access/AccessControl.sol\":5421:5455  callerConfirmation != _msgSender() */\n      sub\n        /* \"@openzeppelin/contracts/access/AccessControl.sol\":5417:5519  if (callerConfirmation != _msgSender()) {... */\n      tag_167\n      jumpi\n        /* \"@openzeppelin/contracts/access/AccessControl.sol\":5529:5566  _revokeRole(role, callerConfirmation) */\n      tag_67\n        /* \"contracts/contracts/protocol/PoolOrganizer.sol\":431:7920  contract PoolOrganizer is AccessControl, IPoolOrganizer {... */\n      swap2\n      calldataload\n        /* \"@openzeppelin/contracts/access/AccessControl.sol\":5529:5566  _revokeRole(role, callerConfirmation) */\n      tag_16\n      jump\t// in\n        /* \"@openzeppelin/contracts/access/AccessControl.sol\":5417:5519  if (callerConfirmation != _msgSender()) {... */\n    tag_167:\n      pop\n        /* \"contracts/contracts/protocol/PoolOrganizer.sol\":431:7920  contract PoolOrganizer is AccessControl, IPoolOrganizer {... */\n      mload(0x40)\n      shl(0xe1, 0x334bd919)\n        /* \"@openzeppelin/contracts/access/AccessControl.sol\":5478:5508  AccessControlBadConfirmation() */\n      dup2\n      mstore\n      revert\n        /* \"contracts/contracts/protocol/PoolOrganizer.sol\":431:7920  contract PoolOrganizer is AccessControl, IPoolOrganizer {... */\n    tag_35:\n      pop\n      jumpi(tag_65, callvalue)\n      jumpi(tag_65, slt(add(not(0x03), calldatasize), 0x40))\n        /* \"@openzeppelin/contracts/access/AccessControl.sol\":4330:4355  _grantRole(role, account) */\n      tag_67\n        /* \"contracts/contracts/protocol/PoolOrganizer.sol\":431:7920  contract PoolOrganizer is AccessControl, IPoolOrganizer {... */\n      swap1\n      calldataload\n      tag_175\n      tag_2\n      jump\t// in\n    tag_175:\n      swap1\n      dup1\n      0x00\n      mstore\n      mstore(0x20, 0x00)\n        /* \"@openzeppelin/contracts/access/AccessControl.sol\":2475:2479  role */\n      tag_176\n        /* \"contracts/contracts/protocol/PoolOrganizer.sol\":431:7920  contract PoolOrganizer is AccessControl, IPoolOrganizer {... */\n      0x01\n      keccak256(0x00, 0x40)\n        /* \"@openzeppelin/contracts/access/AccessControl.sol\":3901:3923  _roles[role].adminRole */\n      add\n        /* \"contracts/contracts/protocol/PoolOrganizer.sol\":431:7920  contract PoolOrganizer is AccessControl, IPoolOrganizer {... */\n      sload\n        /* \"@openzeppelin/contracts/access/AccessControl.sol\":2475:2479  role */\n      tag_13\n      jump\t// in\n    tag_176:\n        /* \"@openzeppelin/contracts/access/AccessControl.sol\":4330:4355  _grantRole(role, account) */\n      tag_15\n      jump\t// in\n        /* \"contracts/contracts/protocol/PoolOrganizer.sol\":431:7920  contract PoolOrganizer is AccessControl, IPoolOrganizer {... */\n    tag_33:\n      pop\n      jumpi(tag_65, callvalue)\n      0x20\n      swap1\n      dup2\n      add(calldatasize, not(0x03))\n      slt\n      tag_65\n      jumpi\n      sub(shl(0xa0, 0x01), 0x01)\n      swap2\n      dup3\n      tag_181\n      tag_1\n      jump\t// in\n    tag_181:\n      and\n      0x00\n      mstore\n        /* \"contracts/contracts/protocol/PoolOrganizer.sol\":5204:5215  lenderPools */\n      0x05\n        /* \"contracts/contracts/protocol/PoolOrganizer.sol\":431:7920  contract PoolOrganizer is AccessControl, IPoolOrganizer {... */\n      dup2\n      mstore\n      keccak256(0x00, 0x40)\n      swap1\n      mload(0x40)\n      swap1\n      dup2\n      dup2\n      dup5\n      sload\n      swap2\n      dup3\n      dup2\n      mstore\n      add\n      swap1\n      dup2\n      swap5\n      0x00\n      mstore\n      dup3\n      0x00\n      keccak256\n      swap1\n      0x00\n    tag_182:\n      dup5\n      dup3\n      dup3\n      lt\n      tag_183\n      jumpi\n      pop\n      pop\n      pop\n      pop\n      dup3\n      swap1\n      sub\n      0x1f\n      add\n      not(0x1f)\n      and\n      dup3\n      add\n      swap4\n      0xffffffffffffffff\n      dup6\n      gt\n      dup4\n      dup7\n      lt\n      or\n      tag_185\n      jumpi\n      pop\n      swap1\n      dup4\n      0x40\n      mstore\n      dup2\n      dup5\n      add\n      swap1\n      dup3\n      dup6\n      mstore\n      mload\n      dup1\n      swap2\n      mstore\n      0x40\n      dup5\n      add\n      swap3\n      swap2\n      0x00\n    tag_187:\n      dup3\n      dup2\n      lt\n      tag_188\n      jumpi\n      dup6\n      dup6\n      sub\n      dup7\n      return\n    tag_188:\n      dup4\n      mload\n      dup8\n      and\n      dup6\n      mstore\n      swap4\n      dup2\n      add\n      swap4\n      swap3\n      dup2\n      add\n      swap3\n      0x01\n      add\n      jump(tag_187)\n    tag_185:\n      0x41\n      swap1\n      mstore(0x00, shl(0xe0, 0x4e487b71))\n      mstore\n      revert(0x00, 0x24)\n    tag_183:\n      dup4\n      sload\n      dup11\n      and\n      dup6\n      mstore\n      swap1\n      swap4\n      add\n      swap3\n      0x01\n      swap3\n      dup4\n      add\n      swap3\n      add\n      jump(tag_182)\n    tag_31:\n      pop\n      jumpi(tag_65, callvalue)\n      jumpi(tag_65, slt(add(not(0x03), calldatasize), 0x20))\n      calldataload\n      0x00\n      mstore\n      mstore(0x20, 0x00)\n      0x20\n      0x01\n      keccak256(0x00, 0x40)\n        /* \"@openzeppelin/contracts/access/AccessControl.sol\":3901:3923  _roles[role].adminRole */\n      add\n        /* \"contracts/contracts/protocol/PoolOrganizer.sol\":431:7920  contract PoolOrganizer is AccessControl, IPoolOrganizer {... */\n      sload\n      mload(0x40)\n      swap1\n      dup2\n      mstore\n      return\n    tag_29:\n      pop\n      jumpi(tag_65, callvalue)\n      jumpi(tag_65, slt(add(not(0x03), calldatasize), 0x0140))\n      tag_198\n      tag_1\n      jump\t// in\n    tag_198:\n      swap1\n      tag_199\n      tag_2\n      jump\t// in\n    tag_199:\n      swap1\n      calldataload(0x44)\n      swap3\n      0x01\n      dup1\n      0xa0\n      shl\n      sub\n      dup1\n      dup6\n      and\n      dup1\n      swap6\n      sub\n      tag_65\n      jumpi\n      calldataload(0x64)\n      swap2\n      dup2\n      dup4\n      and\n      dup1\n      swap4\n      sub\n      tag_65\n      jumpi\n      calldataload(0x84)\n      swap4\n      dup3\n      dup6\n      and\n      dup1\n      swap6\n      sub\n      tag_65\n      jumpi\n      calldataload(0xa4)\n      swap6\n      dup4\n      dup8\n      and\n      dup1\n      swap8\n      sub\n      tag_65\n      jumpi\n      calldataload(0x0124)\n      swap4\n      0x02\n      dup6\n      lt\n      iszero\n      tag_65\n      jumpi\n        /* \"@openzeppelin/contracts/access/AccessControl.sol\":2475:2479  role */\n      tag_210\n      tag_12\n      jump\t// in\n    tag_210:\n        /* \"contracts/contracts/protocol/PoolOrganizer.sol\":431:7920  contract PoolOrganizer is AccessControl, IPoolOrganizer {... */\n      dup1\n      dup5\n      and\n        /* \"contracts/contracts/protocol/PoolOrganizer.sol\":2566:2584  pool != address(0) */\n      swap7\n      dup8\n      iszero\n        /* \"contracts/contracts/protocol/PoolOrganizer.sol\":431:7920  contract PoolOrganizer is AccessControl, IPoolOrganizer {... */\n      tag_211\n      jumpi\n      dup8\n      0x00\n      mstore\n      dup4\n      0x20\n      mstore\n      dup2\n      sload(keccak256(0x00, 0x40))\n      and\n      tag_213\n      jumpi\n      swap2\n      dup8\n      dup3\n      dup8\n      swap5\n      0x09\n      swap5\n      mload(0x40)\n      swap5\n      tag_215\n      dup7\n      tag_6\n      jump\t// in\n    tag_215:\n      and\n      swap12\n      dup13\n      dup6\n      mstore\n        /* \"contracts/contracts/protocol/PoolOrganizer.sol\":2734:3121  PoolDetails({... */\n      dup14\n        /* \"contracts/contracts/protocol/PoolOrganizer.sol\":431:7920  contract PoolOrganizer is AccessControl, IPoolOrganizer {... */\n      0x20\n        /* \"contracts/contracts/protocol/PoolOrganizer.sol\":2734:3121  PoolDetails({... */\n      dup7\n      add\n        /* \"contracts/contracts/protocol/PoolOrganizer.sol\":431:7920  contract PoolOrganizer is AccessControl, IPoolOrganizer {... */\n      swap1\n      dup2\n      mstore\n      0x40\n        /* \"contracts/contracts/protocol/PoolOrganizer.sol\":2734:3121  PoolDetails({... */\n      dup7\n      add\n        /* \"contracts/contracts/protocol/PoolOrganizer.sol\":2837:2852  block.timestamp */\n      swap4\n      timestamp\n        /* \"contracts/contracts/protocol/PoolOrganizer.sol\":431:7920  contract PoolOrganizer is AccessControl, IPoolOrganizer {... */\n      dup6\n      mstore\n      0x60\n        /* \"contracts/contracts/protocol/PoolOrganizer.sol\":2734:3121  PoolDetails({... */\n      dup8\n      add\n        /* \"contracts/contracts/protocol/PoolOrganizer.sol\":431:7920  contract PoolOrganizer is AccessControl, IPoolOrganizer {... */\n      swap4\n      dup14\n      dup6\n      mstore\n      0x80\n        /* \"contracts/contracts/protocol/PoolOrganizer.sol\":2734:3121  PoolDetails({... */\n      dup9\n      add\n        /* \"contracts/contracts/protocol/PoolOrganizer.sol\":431:7920  contract PoolOrganizer is AccessControl, IPoolOrganizer {... */\n      swap1\n      dup2\n      mstore\n      0xa0\n        /* \"contracts/contracts/protocol/PoolOrganizer.sol\":2734:3121  PoolDetails({... */\n      dup9\n      add\n        /* \"contracts/contracts/protocol/PoolOrganizer.sol\":431:7920  contract PoolOrganizer is AccessControl, IPoolOrganizer {... */\n      swap4\n      dup5\n      mstore\n      0xc0\n        /* \"contracts/contracts/protocol/PoolOrganizer.sol\":2734:3121  PoolDetails({... */\n      dup9\n      add\n        /* \"contracts/contracts/protocol/PoolOrganizer.sol\":431:7920  contract PoolOrganizer is AccessControl, IPoolOrganizer {... */\n      swap5\n      calldataload(0xc4)\n      dup7\n      mstore\n      0xe0\n        /* \"contracts/contracts/protocol/PoolOrganizer.sol\":2734:3121  PoolDetails({... */\n      dup10\n      add\n        /* \"contracts/contracts/protocol/PoolOrganizer.sol\":431:7920  contract PoolOrganizer is AccessControl, IPoolOrganizer {... */\n      swap7\n      calldataload(0xe4)\n      dup9\n      mstore\n      0x0100\n        /* \"contracts/contracts/protocol/PoolOrganizer.sol\":2734:3121  PoolDetails({... */\n      dup11\n      add\n        /* \"contracts/contracts/protocol/PoolOrganizer.sol\":431:7920  contract PoolOrganizer is AccessControl, IPoolOrganizer {... */\n      swap9\n      calldataload(0x0104)\n      dup11\n      mstore\n        /* \"contracts/contracts/protocol/PoolOrganizer.sol\":2734:3121  PoolDetails({... */\n      tag_216\n        /* \"contracts/contracts/protocol/PoolOrganizer.sol\":431:7920  contract PoolOrganizer is AccessControl, IPoolOrganizer {... */\n      0x0120\n        /* \"contracts/contracts/protocol/PoolOrganizer.sol\":2734:3121  PoolDetails({... */\n      dup13\n      add\n      swap14\n      dup15\n      tag_7\n      jump\t// in\n    tag_216:\n        /* \"contracts/contracts/protocol/PoolOrganizer.sol\":431:7920  contract PoolOrganizer is AccessControl, IPoolOrganizer {... */\n      0x00\n      mstore\n      dup13\n      0x20\n      mstore\n      dup4\n      keccak256(0x00, 0x40)\n      swap11\n      mload\n      and\n      swap5\n      shl(0xa0, 0xffffffffffffffffffffffff)\n      swap6\n      dup7\n      dup13\n      sload\n      and\n      or\n      dup12\n      sstore\n      dup5\n      0x01\n      dup13\n      add\n      swap2\n      mload\n      and\n      dup7\n      dup3\n      sload\n      and\n      or\n      swap1\n      sstore\n      mload\n      0x02\n      dup11\n      add\n      sstore\n      dup3\n      0x03\n      dup11\n      add\n      swap2\n      mload\n      and\n      dup5\n      dup3\n      sload\n      and\n      or\n      swap1\n      sstore\n      dup2\n      dup12\n      dup10\n      add\n      swap2\n      mload\n      and\n      dup4\n      dup3\n      sload\n      and\n      or\n      swap1\n      sstore\n      0x05\n      dup8\n      add\n      swap3\n      mload\n      and\n      swap1\n      dup3\n      sload\n      and\n      or\n      swap1\n      sstore\n      mload\n      0x06\n      dup5\n      add\n      sstore\n      mload\n      0x07\n      dup4\n      add\n      sstore\n      mload\n      0x08\n      dup3\n      add\n      sstore\n      add\n      swap1\n      mload\n      0x02\n      dup2\n      lt\n      iszero\n      tag_217\n      jumpi\n      0xff\n      dup1\n      not\n      dup4\n      sload\n      and\n      swap2\n      and\n      or\n      swap1\n      sstore\n      sload(0x03)\n      swap1\n      0x010000000000000000\n      dup3\n      lt\n      iszero\n      tag_185\n      jumpi\n      pop\n      0x40\n      swap3\n      tag_221\n        /* \"contracts/contracts/protocol/PoolOrganizer.sol\":3166:3221  PoolRegistered(pool, lender, borrower, vault, poolType) */\n      0x8f723e49dc038e67c41b41307a1e0c65653d50125a0c474a21ac32d9a0b24d2b\n        /* \"contracts/contracts/protocol/PoolOrganizer.sol\":431:7920  contract PoolOrganizer is AccessControl, IPoolOrganizer {... */\n      swap6\n      swap4\n      tag_137\n      dup5\n      0x01\n      tag_223\n      swap7\n      add\n      0x03\n      sstore\n      tag_8\n      jump\t// in\n    tag_221:\n      dup4\n      mload\n      swap3\n      dup4\n      mstore\n      0x20\n      dup4\n      add\n      swap1\n      tag_4\n      jump\t// in\n    tag_223:\n        /* \"contracts/contracts/protocol/PoolOrganizer.sol\":3166:3221  PoolRegistered(pool, lender, borrower, vault, poolType) */\n      log4\n        /* \"contracts/contracts/protocol/PoolOrganizer.sol\":431:7920  contract PoolOrganizer is AccessControl, IPoolOrganizer {... */\n      stop\n    tag_217:\n      0x21\n      dup4\n      mstore(0x00, shl(0xe0, 0x4e487b71))\n      mstore\n      revert(0x00, 0x24)\n    tag_213:\n      mload(0x40)\n      shl(0xe5, 0x461bcd)\n      dup2\n      mstore\n      0x20\n      dup2\n      dup7\n      add\n      mstore\n      0x17\n      0x24\n      dup3\n      add\n      mstore\n      0x506f6f6c20616c72656164792072656769737465726564000000000000000000\n      0x44\n      dup3\n      add\n      mstore\n      0x64\n      swap1\n      revert\n    tag_211:\n      mload(0x40)\n      shl(0xe5, 0x461bcd)\n      dup2\n      mstore\n      0x20\n      dup2\n      dup7\n      add\n      mstore\n      0x1b\n      0x24\n      dup3\n      add\n      mstore\n      0x506f6f6c20616464726573732063616e6e6f74206265207a65726f0000000000\n      0x44\n      dup3\n      add\n      mstore\n      0x64\n      swap1\n      revert\n    tag_27:\n      jumpi(tag_65, callvalue)\n      jumpi(tag_65, slt(add(not(0x03), calldatasize), 0x20))\n      0x20\n      sub(shl(0xa0, 0x01), 0x01)\n      dup1\n      tag_228\n      tag_1\n      jump\t// in\n    tag_228:\n      and\n      0x00\n      mstore\n        /* \"contracts/contracts/protocol/PoolOrganizer.sol\":805:850  mapping(address => address) public poolVaults */\n      0x06\n        /* \"contracts/contracts/protocol/PoolOrganizer.sol\":431:7920  contract PoolOrganizer is AccessControl, IPoolOrganizer {... */\n      dup3\n      mstore\n      sload(keccak256(0x00, 0x40))\n      and\n      mload(0x40)\n      swap1\n      dup2\n      mstore\n      return\n    tag_25:\n      jumpi(tag_65, callvalue)\n      jumpi(tag_65, slt(add(not(0x03), calldatasize), 0x00))\n        /* \"contracts/contracts/protocol/PoolOrganizer.sol\":617:652  IRewardManager public rewardManager */\n      0x02\n        /* \"contracts/contracts/protocol/PoolOrganizer.sol\":431:7920  contract PoolOrganizer is AccessControl, IPoolOrganizer {... */\n      sload\n      mload(0x40)\n      sub(shl(0xa0, 0x01), 0x01)\n      swap1\n      swap2\n      and\n      dup2\n      mstore\n      0x20\n      swap1\n      return\n    tag_23:\n      pop\n      jumpi(tag_65, callvalue)\n      jumpi(tag_65, slt(add(not(0x03), calldatasize), 0x40))\n      tag_237\n      tag_1\n      jump\t// in\n    tag_237:\n      swap1\n      tag_238\n      tag_2\n      jump\t// in\n    tag_238:\n        /* \"@openzeppelin/contracts/access/AccessControl.sol\":2475:2479  role */\n      swap2\n      tag_239\n      tag_12\n      jump\t// in\n    tag_239:\n      sub(shl(0xa0, 0x01), 0x01)\n        /* \"contracts/contracts/protocol/PoolOrganizer.sol\":431:7920  contract PoolOrganizer is AccessControl, IPoolOrganizer {... */\n      swap1\n      dup2\n      and\n      swap2\n        /* \"contracts/contracts/protocol/PoolOrganizer.sol\":7610:7628  pool != address(0) */\n      dup3\n      iszero\n      iszero\n      dup1\n        /* \"contracts/contracts/protocol/PoolOrganizer.sol\":7610:7651  pool != address(0) && vault != address(0) */\n      tag_240\n      jumpi\n        /* \"contracts/contracts/protocol/PoolOrganizer.sol\":431:7920  contract PoolOrganizer is AccessControl, IPoolOrganizer {... */\n    tag_241:\n      iszero\n      tag_242\n      jumpi\n      dup3\n      0x00\n      mstore\n      dup1\n      0x20\n      mstore\n        /* \"contracts/contracts/protocol/PoolOrganizer.sol\":7680:7750  require(poolDetails[pool].lender != address(0), \"Pool not registered\") */\n      tag_244\n        /* \"contracts/contracts/protocol/PoolOrganizer.sol\":431:7920  contract PoolOrganizer is AccessControl, IPoolOrganizer {... */\n      dup3\n      sload(keccak256(0x00, 0x40))\n      and\n        /* \"contracts/contracts/protocol/PoolOrganizer.sol\":7688:7726  poolDetails[pool].lender != address(0) */\n      iszero\n      iszero\n        /* \"contracts/contracts/protocol/PoolOrganizer.sol\":7680:7750  require(poolDetails[pool].lender != address(0), \"Pool not registered\") */\n      tag_5\n      jump\t// in\n    tag_244:\n        /* \"contracts/contracts/protocol/PoolOrganizer.sol\":431:7920  contract PoolOrganizer is AccessControl, IPoolOrganizer {... */\n      dup3\n      0x00\n      mstore\n        /* \"contracts/contracts/protocol/PoolOrganizer.sol\":7765:7775  poolVaults */\n      0x06\n        /* \"contracts/contracts/protocol/PoolOrganizer.sol\":431:7920  contract PoolOrganizer is AccessControl, IPoolOrganizer {... */\n      0x20\n      mstore\n      dup2\n      sload(keccak256(0x00, 0x40))\n      and\n      tag_245\n      jumpi\n      pop\n      dup2\n      0x00\n      mstore\n        /* \"contracts/contracts/protocol/PoolOrganizer.sol\":7765:7775  poolVaults */\n      0x06\n        /* \"contracts/contracts/protocol/PoolOrganizer.sol\":431:7920  contract PoolOrganizer is AccessControl, IPoolOrganizer {... */\n      0x20\n      mstore\n      keccak256(0x00, 0x40)\n      swap3\n      and\n      swap2\n      dup3\n      shl(0xa0, 0xffffffffffffffffffffffff)\n      dup3\n      sload\n      and\n      or\n      swap1\n      sstore\n        /* \"contracts/contracts/protocol/PoolOrganizer.sol\":7883:7911  VaultRegistered(pool, vault) */\n      0xf8ee9039d8e4d43426638703c71517008894fdea742bb2d2dbff5a46fb07abdb\n        /* \"contracts/contracts/protocol/PoolOrganizer.sol\":431:7920  contract PoolOrganizer is AccessControl, IPoolOrganizer {... */\n      0x00\n        /* \"contracts/contracts/protocol/PoolOrganizer.sol\":7883:7911  VaultRegistered(pool, vault) */\n      dup1\n      log3\n        /* \"contracts/contracts/protocol/PoolOrganizer.sol\":431:7920  contract PoolOrganizer is AccessControl, IPoolOrganizer {... */\n      stop\n    tag_245:\n      0x84\n      swap1\n      0x20\n      mload(0x40)\n      swap2\n      shl(0xe5, 0x461bcd)\n      dup4\n      mstore\n      dup3\n      add\n      mstore\n      0x26\n      0x24\n      dup3\n      add\n      mstore\n      0x5661756c7420616c7265616479207265676973746572656420666f7220746869\n      0x44\n      dup3\n      add\n      mstore\n      shl(0xd2, 0x1cc81c1bdbdb)\n      0x64\n      dup3\n      add\n      mstore\n      revert\n    tag_242:\n      0x64\n      swap1\n      0x20\n      mload(0x40)\n      swap2\n      shl(0xe5, 0x461bcd)\n      dup4\n      mstore\n      dup3\n      add\n      mstore\n      0x11\n      0x24\n      dup3\n      add\n      mstore\n      shl(0x78, 0x496e76616c696420616464726573736573)\n      0x44\n      dup3\n      add\n      mstore\n      revert\n        /* \"contracts/contracts/protocol/PoolOrganizer.sol\":7610:7651  pool != address(0) && vault != address(0) */\n    tag_240:\n        /* \"contracts/contracts/protocol/PoolOrganizer.sol\":431:7920  contract PoolOrganizer is AccessControl, IPoolOrganizer {... */\n      pop\n      dup2\n      dup5\n      and\n        /* \"contracts/contracts/protocol/PoolOrganizer.sol\":7632:7651  vault != address(0) */\n      iszero\n      iszero\n        /* \"contracts/contracts/protocol/PoolOrganizer.sol\":7610:7651  pool != address(0) && vault != address(0) */\n      jump(tag_241)\n        /* \"contracts/contracts/protocol/PoolOrganizer.sol\":431:7920  contract PoolOrganizer is AccessControl, IPoolOrganizer {... */\n    tag_21:\n      dup3\n      jumpi(tag_65, callvalue)\n      jumpi(tag_65, slt(add(not(0x03), calldatasize), 0x20))\n      calldataload\n      swap1\n      shl(0xe0, 0xffffffff)\n      dup3\n      and\n      dup1\n      swap3\n      sub\n      tag_65\n      jumpi\n      0x20\n      swap2\n      shl(0xe0, 0x7965db0b)\n        /* \"@openzeppelin/contracts/access/AccessControl.sol\":2673:2720  interfaceId == type(IAccessControl).interfaceId */\n      dup2\n      eq\n      swap1\n        /* \"@openzeppelin/contracts/access/AccessControl.sol\":2673:2760  interfaceId == type(IAccessControl).interfaceId || super.supportsInterface(interfaceId) */\n      dup2\n      iszero\n      tag_253\n      jumpi\n        /* \"contracts/contracts/protocol/PoolOrganizer.sol\":431:7920  contract PoolOrganizer is AccessControl, IPoolOrganizer {... */\n    tag_254:\n      pop\n      iszero\n      iszero\n      dup2\n      mstore\n      return\n        /* \"@openzeppelin/contracts/access/AccessControl.sol\":2673:2760  interfaceId == type(IAccessControl).interfaceId || super.supportsInterface(interfaceId) */\n    tag_253:\n      shl(0xe0, 0x01ffc9a7)\n        /* \"@openzeppelin/contracts/utils/introspection/ERC165.sol\":861:901  interfaceId == type(IERC165).interfaceId */\n      eq\n      swap1\n      pop\n        /* \"@openzeppelin/contracts/access/AccessControl.sol\":2673:2760  interfaceId == type(IAccessControl).interfaceId || super.supportsInterface(interfaceId) */\n      dup4\n      jump(tag_254)\n        /* \"contracts/contracts/protocol/PoolOrganizer.sol\":431:7920  contract PoolOrganizer is AccessControl, IPoolOrganizer {... */\n    tag_1:\n      calldataload(0x04)\n      swap1\n      sub(shl(0xa0, 0x01), 0x01)\n      dup3\n      and\n      dup3\n      sub\n      tag_65\n      jumpi\n      jump\t// out\n    tag_2:\n      calldataload(0x24)\n      swap1\n      sub(shl(0xa0, 0x01), 0x01)\n      dup3\n      and\n      dup3\n      sub\n      tag_65\n      jumpi\n      jump\t// out\n    tag_4:\n      swap1\n      0x02\n      dup3\n      lt\n      iszero\n      tag_259\n      jumpi\n      mstore\n      jump\t// out\n    tag_259:\n      mstore(0x00, shl(0xe0, 0x4e487b71))\n      mstore(0x04, 0x21)\n      revert(0x00, 0x24)\n    tag_5:\n      iszero\n      tag_261\n      jumpi\n      jump\t// out\n    tag_261:\n      mload(0x40)\n      shl(0xe5, 0x461bcd)\n      dup2\n      mstore\n      0x20\n      0x04\n      dup3\n      add\n      mstore\n      0x13\n      0x24\n      dup3\n      add\n      mstore\n      shl(0x6a, 0x141bdbdb081b9bdd081c9959da5cdd195c9959)\n      0x44\n      dup3\n      add\n      mstore\n      0x64\n      swap1\n      revert\n    tag_6:\n      0x0140\n      dup2\n      add\n      swap1\n      dup2\n      lt\n      0xffffffffffffffff\n      dup3\n      gt\n      or\n      tag_263\n      jumpi\n      0x40\n      mstore\n      jump\t// out\n    tag_263:\n      mstore(0x00, shl(0xe0, 0x4e487b71))\n      mstore(0x04, 0x41)\n      revert(0x00, 0x24)\n    tag_7:\n      0x02\n      dup3\n      lt\n      iszero\n      tag_259\n      jumpi\n      mstore\n      jump\t// out\n    tag_8:\n      sload(0x03)\n      dup2\n      lt\n      iszero\n      tag_267\n      jumpi\n      mstore(0x00, 0x03)\n      0xc2575a0e9e593c00f959f8c92f12db2869c3395a3b0502d05e2516446f71f85b\n      add\n      swap1\n      0x00\n      swap1\n      jump\t// out\n    tag_267:\n      mstore(0x00, shl(0xe0, 0x4e487b71))\n      mstore(0x04, 0x32)\n      revert(0x00, 0x24)\n    tag_9:\n      dup1\n      sload\n      dup3\n      lt\n      iszero\n      tag_267\n      jumpi\n      0x00\n      mstore\n      keccak256(0x00, 0x20)\n      add\n      swap1\n      0x00\n      swap1\n      jump\t// out\n        /* \"@openzeppelin/contracts/access/AccessControl.sol\":3199:3302  function _checkRole(bytes32 role) internal view virtual {... */\n    tag_12:\n        /* \"@openzeppelin/contracts/utils/Context.sol\":735:745  msg.sender */\n      caller\n        /* \"@openzeppelin/contracts/access/AccessControl.sol\":2954:2960  _roles */\n      0x00\n        /* \"contracts/contracts/protocol/PoolOrganizer.sol\":431:7920  contract PoolOrganizer is AccessControl, IPoolOrganizer {... */\n      swap1\n      dup2\n      mstore\n      mstore(0x20, 0x729ef9451dd492832bd2a98139702ced95dfa0cec7e99526dbbcb957abcbc476)\n      0x40\n      swap1\n      keccak256\n      sload\n      0x00\n      dup1\n      mload\n      0x20\n      data_cea5b988323acc73cd81db0e6f2932cdc75f39072539d65cbfa79c56b2a64e51\n      dup4\n      codecopy\n      dup2\n      mload\n      swap2\n      mstore\n        /* \"contracts/contracts/protocol/PoolOrganizer.sol\":538:568  keccak256(\"POOL_MANAGER_ROLE\") */\n      swap1\n        /* \"contracts/contracts/protocol/PoolOrganizer.sol\":431:7920  contract PoolOrganizer is AccessControl, IPoolOrganizer {... */\n      0xff\n      and\n        /* \"@openzeppelin/contracts/access/AccessControl.sol\":3519:3542  !hasRole(role, account) */\n      iszero\n        /* \"@openzeppelin/contracts/access/AccessControl.sol\":3515:3623  if (!hasRole(role, account)) {... */\n      tag_271\n      jumpi\n        /* \"@openzeppelin/contracts/access/AccessControl.sol\":3199:3302  function _checkRole(bytes32 role) internal view virtual {... */\n      pop\n      jump\t// out\n        /* \"@openzeppelin/contracts/access/AccessControl.sol\":3515:3623  if (!hasRole(role, account)) {... */\n    tag_271:\n        /* \"contracts/contracts/protocol/PoolOrganizer.sol\":431:7920  contract PoolOrganizer is AccessControl, IPoolOrganizer {... */\n      0x44\n      swap1\n      mload(0x40)\n        /* \"@openzeppelin/contracts/access/AccessControl.sol\":3565:3612  AccessControlUnauthorizedAccount(account, role) */\n      swap1\n      shl(0xe0, 0xe2517d3f)\n      dup3\n      mstore\n        /* \"@openzeppelin/contracts/utils/Context.sol\":735:745  msg.sender */\n      caller\n        /* \"@openzeppelin/contracts/access/AccessControl.sol\":3565:3612  AccessControlUnauthorizedAccount(account, role) */\n      0x04\n      dup4\n      add\n        /* \"contracts/contracts/protocol/PoolOrganizer.sol\":431:7920  contract PoolOrganizer is AccessControl, IPoolOrganizer {... */\n      mstore\n      0x24\n      dup3\n      add\n      mstore\n        /* \"@openzeppelin/contracts/access/AccessControl.sol\":3565:3612  AccessControlUnauthorizedAccount(account, role) */\n      revert\n        /* \"@openzeppelin/contracts/access/AccessControl.sol\":3199:3302  function _checkRole(bytes32 role) internal view virtual {... */\n    tag_13:\n        /* \"contracts/contracts/protocol/PoolOrganizer.sol\":431:7920  contract PoolOrganizer is AccessControl, IPoolOrganizer {... */\n      dup1\n        /* \"@openzeppelin/contracts/access/AccessControl.sol\":2954:2960  _roles */\n      0x00\n        /* \"contracts/contracts/protocol/PoolOrganizer.sol\":431:7920  contract PoolOrganizer is AccessControl, IPoolOrganizer {... */\n      mstore\n        /* \"@openzeppelin/contracts/access/AccessControl.sol\":2954:2960  _roles */\n      0x00\n        /* \"contracts/contracts/protocol/PoolOrganizer.sol\":431:7920  contract PoolOrganizer is AccessControl, IPoolOrganizer {... */\n      0x20\n      mstore\n      0x40\n        /* \"@openzeppelin/contracts/access/AccessControl.sol\":2954:2960  _roles */\n      0x00\n        /* \"contracts/contracts/protocol/PoolOrganizer.sol\":431:7920  contract PoolOrganizer is AccessControl, IPoolOrganizer {... */\n      keccak256\n        /* \"@openzeppelin/contracts/utils/Context.sol\":735:745  msg.sender */\n      caller\n        /* \"@openzeppelin/contracts/access/AccessControl.sol\":2954:2960  _roles */\n      0x00\n        /* \"contracts/contracts/protocol/PoolOrganizer.sol\":431:7920  contract PoolOrganizer is AccessControl, IPoolOrganizer {... */\n      mstore\n      0x20\n      mstore\n      0xff\n      0x40\n        /* \"@openzeppelin/contracts/access/AccessControl.sol\":2954:2960  _roles */\n      0x00\n        /* \"contracts/contracts/protocol/PoolOrganizer.sol\":431:7920  contract PoolOrganizer is AccessControl, IPoolOrganizer {... */\n      keccak256\n      sload\n      and\n        /* \"@openzeppelin/contracts/access/AccessControl.sol\":3519:3542  !hasRole(role, account) */\n      iszero\n        /* \"@openzeppelin/contracts/access/AccessControl.sol\":3515:3623  if (!hasRole(role, account)) {... */\n      tag_271\n      jumpi\n        /* \"@openzeppelin/contracts/access/AccessControl.sol\":3199:3302  function _checkRole(bytes32 role) internal view virtual {... */\n      pop\n      jump\t// out\n        /* \"@openzeppelin/contracts/access/AccessControl.sol\":6179:6495  function _grantRole(bytes32 role, address account) internal virtual returns (bool) {... */\n    tag_14:\n      sub(shl(0xa0, 0x01), 0x01)\n        /* \"contracts/contracts/protocol/PoolOrganizer.sol\":431:7920  contract PoolOrganizer is AccessControl, IPoolOrganizer {... */\n      and\n        /* \"@openzeppelin/contracts/access/AccessControl.sol\":2954:2960  _roles */\n      0x00\n        /* \"contracts/contracts/protocol/PoolOrganizer.sol\":431:7920  contract PoolOrganizer is AccessControl, IPoolOrganizer {... */\n      dup2\n      dup2\n      mstore\n      mstore(0x20, 0x729ef9451dd492832bd2a98139702ced95dfa0cec7e99526dbbcb957abcbc476)\n      0x40\n      swap1\n      keccak256\n      sload\n      0x00\n      dup1\n      mload\n      0x20\n      data_cea5b988323acc73cd81db0e6f2932cdc75f39072539d65cbfa79c56b2a64e51\n      dup4\n      codecopy\n      dup2\n      mload\n      swap2\n      mstore\n        /* \"contracts/contracts/protocol/PoolOrganizer.sol\":538:568  keccak256(\"POOL_MANAGER_ROLE\") */\n      swap2\n        /* \"contracts/contracts/protocol/PoolOrganizer.sol\":431:7920  contract PoolOrganizer is AccessControl, IPoolOrganizer {... */\n      swap1\n      0xff\n      and\n      tag_275\n      jumpi\n      dup2\n        /* \"@openzeppelin/contracts/access/AccessControl.sol\":2954:2960  _roles */\n      0x00\n        /* \"contracts/contracts/protocol/PoolOrganizer.sol\":431:7920  contract PoolOrganizer is AccessControl, IPoolOrganizer {... */\n      mstore\n        /* \"@openzeppelin/contracts/access/AccessControl.sol\":2954:2960  _roles */\n      0x00\n        /* \"contracts/contracts/protocol/PoolOrganizer.sol\":431:7920  contract PoolOrganizer is AccessControl, IPoolOrganizer {... */\n      0x20\n      mstore\n      0x40\n        /* \"@openzeppelin/contracts/access/AccessControl.sol\":2954:2960  _roles */\n      0x00\n        /* \"contracts/contracts/protocol/PoolOrganizer.sol\":431:7920  contract PoolOrganizer is AccessControl, IPoolOrganizer {... */\n      keccak256\n      dup2\n        /* \"@openzeppelin/contracts/access/AccessControl.sol\":2954:2960  _roles */\n      0x00\n        /* \"contracts/contracts/protocol/PoolOrganizer.sol\":431:7920  contract PoolOrganizer is AccessControl, IPoolOrganizer {... */\n      mstore\n      0x20\n      mstore\n      0x40\n        /* \"@openzeppelin/contracts/access/AccessControl.sol\":2954:2960  _roles */\n      0x00\n        /* \"contracts/contracts/protocol/PoolOrganizer.sol\":431:7920  contract PoolOrganizer is AccessControl, IPoolOrganizer {... */\n      keccak256\n        /* \"@openzeppelin/contracts/access/AccessControl.sol\":6347:6351  true */\n      0x01\n        /* \"contracts/contracts/protocol/PoolOrganizer.sol\":431:7920  contract PoolOrganizer is AccessControl, IPoolOrganizer {... */\n      not(0xff)\n      dup3\n      sload\n      and\n      or\n      swap1\n      sstore\n        /* \"@openzeppelin/contracts/utils/Context.sol\":735:745  msg.sender */\n      caller\n        /* \"@openzeppelin/contracts/access/AccessControl.sol\":6370:6410  RoleGranted(role, account, _msgSender()) */\n      swap2\n      0x2f8788117e7eff1d82e926ec794901d17c78024a50270940304540a733656f0d\n        /* \"@openzeppelin/contracts/access/AccessControl.sol\":2954:2960  _roles */\n      0x00\n        /* \"@openzeppelin/contracts/access/AccessControl.sol\":6370:6410  RoleGranted(role, account, _msgSender()) */\n      dup1\n      log4\n        /* \"@openzeppelin/contracts/access/AccessControl.sol\":6347:6351  true */\n      0x01\n        /* \"@openzeppelin/contracts/access/AccessControl.sol\":6424:6435  return true */\n      swap1\n      jump\t// out\n        /* \"@openzeppelin/contracts/access/AccessControl.sol\":6272:6489  if (!hasRole(role, account)) {... */\n    tag_275:\n        /* \"@openzeppelin/contracts/access/AccessControl.sol\":6466:6478  return false */\n      pop\n      pop\n        /* \"@openzeppelin/contracts/access/AccessControl.sol\":2954:2960  _roles */\n      0x00\n        /* \"@openzeppelin/contracts/access/AccessControl.sol\":6466:6478  return false */\n      swap1\n      jump\t// out\n        /* \"@openzeppelin/contracts/access/AccessControl.sol\":6179:6495  function _grantRole(bytes32 role, address account) internal virtual returns (bool) {... */\n    tag_15:\n      swap1\n        /* \"contracts/contracts/protocol/PoolOrganizer.sol\":431:7920  contract PoolOrganizer is AccessControl, IPoolOrganizer {... */\n      dup2\n        /* \"@openzeppelin/contracts/access/AccessControl.sol\":2954:2960  _roles */\n      0x00\n        /* \"contracts/contracts/protocol/PoolOrganizer.sol\":431:7920  contract PoolOrganizer is AccessControl, IPoolOrganizer {... */\n      mstore\n        /* \"@openzeppelin/contracts/access/AccessControl.sol\":2954:2960  _roles */\n      0x00\n        /* \"contracts/contracts/protocol/PoolOrganizer.sol\":431:7920  contract PoolOrganizer is AccessControl, IPoolOrganizer {... */\n      0x20\n      mstore\n      0x40\n        /* \"@openzeppelin/contracts/access/AccessControl.sol\":2954:2960  _roles */\n      0x00\n        /* \"contracts/contracts/protocol/PoolOrganizer.sol\":431:7920  contract PoolOrganizer is AccessControl, IPoolOrganizer {... */\n      keccak256\n      swap1\n      0x01\n      dup1\n      0xa0\n      shl\n      sub\n      and\n      swap1\n      dup2\n        /* \"@openzeppelin/contracts/access/AccessControl.sol\":2954:2960  _roles */\n      0x00\n        /* \"contracts/contracts/protocol/PoolOrganizer.sol\":431:7920  contract PoolOrganizer is AccessControl, IPoolOrganizer {... */\n      mstore\n      0x20\n      mstore\n      0xff\n      0x40\n        /* \"@openzeppelin/contracts/access/AccessControl.sol\":2954:2960  _roles */\n      0x00\n        /* \"contracts/contracts/protocol/PoolOrganizer.sol\":431:7920  contract PoolOrganizer is AccessControl, IPoolOrganizer {... */\n      keccak256\n      sload\n      and\n        /* \"@openzeppelin/contracts/access/AccessControl.sol\":6276:6299  !hasRole(role, account) */\n      iszero\n        /* \"@openzeppelin/contracts/access/AccessControl.sol\":6272:6489  if (!hasRole(role, account)) {... */\n      0x00\n        /* \"contracts/contracts/protocol/PoolOrganizer.sol\":431:7920  contract PoolOrganizer is AccessControl, IPoolOrganizer {... */\n      eq\n      tag_275\n      jumpi\n      dup2\n        /* \"@openzeppelin/contracts/access/AccessControl.sol\":2954:2960  _roles */\n      0x00\n        /* \"contracts/contracts/protocol/PoolOrganizer.sol\":431:7920  contract PoolOrganizer is AccessControl, IPoolOrganizer {... */\n      mstore\n        /* \"@openzeppelin/contracts/access/AccessControl.sol\":2954:2960  _roles */\n      0x00\n        /* \"contracts/contracts/protocol/PoolOrganizer.sol\":431:7920  contract PoolOrganizer is AccessControl, IPoolOrganizer {... */\n      0x20\n      mstore\n      0x40\n        /* \"@openzeppelin/contracts/access/AccessControl.sol\":2954:2960  _roles */\n      0x00\n        /* \"contracts/contracts/protocol/PoolOrganizer.sol\":431:7920  contract PoolOrganizer is AccessControl, IPoolOrganizer {... */\n      keccak256\n      dup2\n        /* \"@openzeppelin/contracts/access/AccessControl.sol\":2954:2960  _roles */\n      0x00\n        /* \"contracts/contracts/protocol/PoolOrganizer.sol\":431:7920  contract PoolOrganizer is AccessControl, IPoolOrganizer {... */\n      mstore\n      0x20\n      mstore\n      0x40\n        /* \"@openzeppelin/contracts/access/AccessControl.sol\":2954:2960  _roles */\n      0x00\n        /* \"contracts/contracts/protocol/PoolOrganizer.sol\":431:7920  contract PoolOrganizer is AccessControl, IPoolOrganizer {... */\n      keccak256\n        /* \"@openzeppelin/contracts/access/AccessControl.sol\":6347:6351  true */\n      0x01\n        /* \"contracts/contracts/protocol/PoolOrganizer.sol\":431:7920  contract PoolOrganizer is AccessControl, IPoolOrganizer {... */\n      not(0xff)\n      dup3\n      sload\n      and\n      or\n      swap1\n      sstore\n        /* \"@openzeppelin/contracts/utils/Context.sol\":735:745  msg.sender */\n      caller\n        /* \"@openzeppelin/contracts/access/AccessControl.sol\":6370:6410  RoleGranted(role, account, _msgSender()) */\n      swap2\n      0x2f8788117e7eff1d82e926ec794901d17c78024a50270940304540a733656f0d\n        /* \"@openzeppelin/contracts/access/AccessControl.sol\":2954:2960  _roles */\n      0x00\n        /* \"@openzeppelin/contracts/access/AccessControl.sol\":6370:6410  RoleGranted(role, account, _msgSender()) */\n      dup1\n      log4\n        /* \"@openzeppelin/contracts/access/AccessControl.sol\":6347:6351  true */\n      0x01\n        /* \"@openzeppelin/contracts/access/AccessControl.sol\":6424:6435  return true */\n      swap1\n      jump\t// out\n        /* \"@openzeppelin/contracts/access/AccessControl.sol\":6730:7047  function _revokeRole(bytes32 role, address account) internal virtual returns (bool) {... */\n    tag_16:\n      swap1\n        /* \"contracts/contracts/protocol/PoolOrganizer.sol\":431:7920  contract PoolOrganizer is AccessControl, IPoolOrganizer {... */\n      dup2\n        /* \"@openzeppelin/contracts/access/AccessControl.sol\":2954:2960  _roles */\n      0x00\n        /* \"contracts/contracts/protocol/PoolOrganizer.sol\":431:7920  contract PoolOrganizer is AccessControl, IPoolOrganizer {... */\n      mstore\n        /* \"@openzeppelin/contracts/access/AccessControl.sol\":2954:2960  _roles */\n      0x00\n        /* \"contracts/contracts/protocol/PoolOrganizer.sol\":431:7920  contract PoolOrganizer is AccessControl, IPoolOrganizer {... */\n      0x20\n      mstore\n      0x40\n        /* \"@openzeppelin/contracts/access/AccessControl.sol\":2954:2960  _roles */\n      0x00\n        /* \"contracts/contracts/protocol/PoolOrganizer.sol\":431:7920  contract PoolOrganizer is AccessControl, IPoolOrganizer {... */\n      keccak256\n      swap1\n      0x01\n      dup1\n      0xa0\n      shl\n      sub\n      and\n      swap1\n      dup2\n        /* \"@openzeppelin/contracts/access/AccessControl.sol\":2954:2960  _roles */\n      0x00\n        /* \"contracts/contracts/protocol/PoolOrganizer.sol\":431:7920  contract PoolOrganizer is AccessControl, IPoolOrganizer {... */\n      mstore\n      0x20\n      mstore\n      0xff\n      0x40\n        /* \"@openzeppelin/contracts/access/AccessControl.sol\":2954:2960  _roles */\n      0x00\n        /* \"contracts/contracts/protocol/PoolOrganizer.sol\":431:7920  contract PoolOrganizer is AccessControl, IPoolOrganizer {... */\n      keccak256\n      sload\n      and\n        /* \"@openzeppelin/contracts/access/AccessControl.sol\":6824:7041  if (hasRole(role, account)) {... */\n      0x00\n        /* \"contracts/contracts/protocol/PoolOrganizer.sol\":431:7920  contract PoolOrganizer is AccessControl, IPoolOrganizer {... */\n      eq\n      tag_275\n      jumpi\n      dup2\n        /* \"@openzeppelin/contracts/access/AccessControl.sol\":2954:2960  _roles */\n      0x00\n        /* \"contracts/contracts/protocol/PoolOrganizer.sol\":431:7920  contract PoolOrganizer is AccessControl, IPoolOrganizer {... */\n      mstore\n        /* \"@openzeppelin/contracts/access/AccessControl.sol\":2954:2960  _roles */\n      0x00\n        /* \"contracts/contracts/protocol/PoolOrganizer.sol\":431:7920  contract PoolOrganizer is AccessControl, IPoolOrganizer {... */\n      0x20\n      mstore\n      0x40\n        /* \"@openzeppelin/contracts/access/AccessControl.sol\":2954:2960  _roles */\n      0x00\n        /* \"contracts/contracts/protocol/PoolOrganizer.sol\":431:7920  contract PoolOrganizer is AccessControl, IPoolOrganizer {... */\n      keccak256\n      dup2\n        /* \"@openzeppelin/contracts/access/AccessControl.sol\":2954:2960  _roles */\n      0x00\n        /* \"contracts/contracts/protocol/PoolOrganizer.sol\":431:7920  contract PoolOrganizer is AccessControl, IPoolOrganizer {... */\n      mstore\n      0x20\n      mstore\n      0x40\n        /* \"@openzeppelin/contracts/access/AccessControl.sol\":2954:2960  _roles */\n      0x00\n        /* \"contracts/contracts/protocol/PoolOrganizer.sol\":431:7920  contract PoolOrganizer is AccessControl, IPoolOrganizer {... */\n      keccak256\n      not(0xff)\n      dup2\n      sload\n      and\n      swap1\n      sstore\n        /* \"@openzeppelin/contracts/utils/Context.sol\":735:745  msg.sender */\n      caller\n        /* \"@openzeppelin/contracts/access/AccessControl.sol\":6922:6962  RoleRevoked(role, account, _msgSender()) */\n      swap2\n      0xf6391f5c32d9c69d2a47ea670b442974b53935d1edc7fd64eb21e047a839171b\n        /* \"@openzeppelin/contracts/access/AccessControl.sol\":2954:2960  _roles */\n      0x00\n        /* \"@openzeppelin/contracts/access/AccessControl.sol\":6922:6962  RoleRevoked(role, account, _msgSender()) */\n      dup1\n      log4\n        /* \"contracts/contracts/protocol/PoolOrganizer.sol\":431:7920  contract PoolOrganizer is AccessControl, IPoolOrganizer {... */\n      0x01\n        /* \"@openzeppelin/contracts/access/AccessControl.sol\":6976:6987  return true */\n      swap1\n      jump\t// out\n        /* \"contracts/contracts/protocol/PoolOrganizer.sol\":6942:7218  function findIndexInArray(address[] storage array, address target) private view returns (uint256) {... */\n    tag_17:\n        /* \"contracts/contracts/protocol/PoolOrganizer.sol\":7068:7069  0 */\n      0x00\n        /* \"contracts/contracts/protocol/PoolOrganizer.sol\":431:7920  contract PoolOrganizer is AccessControl, IPoolOrganizer {... */\n      swap1\n      0x03\n      dup1\n      sload\n        /* \"contracts/contracts/protocol/PoolOrganizer.sol\":7051:7153  for (uint256 i = 0; i < array.length; i++) {... */\n      swap3\n        /* \"contracts/contracts/protocol/PoolOrganizer.sol\":7071:7087  i < array.length */\n    tag_281:\n      dup4\n      dup2\n      lt\n      tag_282\n      jumpi\n        /* \"contracts/contracts/protocol/PoolOrganizer.sol\":431:7920  contract PoolOrganizer is AccessControl, IPoolOrganizer {... */\n      pop\n      pop\n      pop\n      pop\n      not(0x00)\n        /* \"contracts/contracts/protocol/PoolOrganizer.sol\":6942:7218  function findIndexInArray(address[] storage array, address target) private view returns (uint256) {... */\n      swap1\n      jump\t// out\n        /* \"contracts/contracts/protocol/PoolOrganizer.sol\":7089:7092  i++ */\n    tag_282:\n        /* \"contracts/contracts/protocol/PoolOrganizer.sol\":7113:7121  array[i] */\n      tag_284\n      dup2\n      tag_8\n      jump\t// in\n    tag_284:\n        /* \"contracts/contracts/protocol/PoolOrganizer.sol\":431:7920  contract PoolOrganizer is AccessControl, IPoolOrganizer {... */\n      swap1\n      sload\n      swap1\n      dup4\n      shl\n      shr\n      sub(shl(0xa0, 0x01), 0x01)\n      swap1\n      dup2\n      and\n      swap1\n      dup5\n      and\n        /* \"contracts/contracts/protocol/PoolOrganizer.sol\":7113:7131  array[i] == target */\n      eq\n        /* \"contracts/contracts/protocol/PoolOrganizer.sol\":7109:7141  if (array[i] == target) return i */\n      tag_285\n      jumpi\n        /* \"contracts/contracts/protocol/PoolOrganizer.sol\":431:7920  contract PoolOrganizer is AccessControl, IPoolOrganizer {... */\n      0x01\n      add\n        /* \"contracts/contracts/protocol/PoolOrganizer.sol\":7056:7069  uint256 i = 0 */\n      jump(tag_281)\n        /* \"contracts/contracts/protocol/PoolOrganizer.sol\":7109:7141  if (array[i] == target) return i */\n    tag_285:\n        /* \"contracts/contracts/protocol/PoolOrganizer.sol\":7133:7141  return i */\n      swap3\n      pop\n      pop\n      pop\n      swap1\n      jump\t// out\n        /* \"contracts/contracts/protocol/PoolOrganizer.sol\":6942:7218  function findIndexInArray(address[] storage array, address target) private view returns (uint256) {... */\n    tag_18:\n      swap1\n        /* \"contracts/contracts/protocol/PoolOrganizer.sol\":7068:7069  0 */\n      0x00\n        /* \"contracts/contracts/protocol/PoolOrganizer.sol\":7089:7092  i++ */\n    tag_287:\n        /* \"contracts/contracts/protocol/PoolOrganizer.sol\":431:7920  contract PoolOrganizer is AccessControl, IPoolOrganizer {... */\n      dup3\n      sload\n        /* \"contracts/contracts/protocol/PoolOrganizer.sol\":7071:7087  i < array.length */\n      dup2\n      lt\n      iszero\n      tag_288\n      jumpi\n        /* \"contracts/contracts/protocol/PoolOrganizer.sol\":7113:7121  array[i] */\n      tag_290\n      dup2\n      dup5\n      tag_9\n      jump\t// in\n    tag_290:\n        /* \"contracts/contracts/protocol/PoolOrganizer.sol\":431:7920  contract PoolOrganizer is AccessControl, IPoolOrganizer {... */\n      swap1\n      sload\n      0x03\n      swap2\n      swap1\n      swap2\n      shl\n      shr\n      sub(shl(0xa0, 0x01), 0x01)\n      swap1\n      dup2\n      and\n      swap1\n      dup4\n      and\n        /* \"contracts/contracts/protocol/PoolOrganizer.sol\":7113:7131  array[i] == target */\n      eq\n        /* \"contracts/contracts/protocol/PoolOrganizer.sol\":7109:7141  if (array[i] == target) return i */\n      tag_291\n      jumpi\n        /* \"contracts/contracts/protocol/PoolOrganizer.sol\":431:7920  contract PoolOrganizer is AccessControl, IPoolOrganizer {... */\n      0x01\n      add\n        /* \"contracts/contracts/protocol/PoolOrganizer.sol\":7056:7069  uint256 i = 0 */\n      jump(tag_287)\n        /* \"contracts/contracts/protocol/PoolOrganizer.sol\":7109:7141  if (array[i] == target) return i */\n    tag_291:\n        /* \"contracts/contracts/protocol/PoolOrganizer.sol\":7133:7141  return i */\n      swap2\n      pop\n      pop\n      swap1\n      jump\t// out\n        /* \"contracts/contracts/protocol/PoolOrganizer.sol\":7071:7087  i < array.length */\n    tag_288:\n      pop\n      pop\n      pop\n        /* \"contracts/contracts/protocol/PoolOrganizer.sol\":431:7920  contract PoolOrganizer is AccessControl, IPoolOrganizer {... */\n      not(0x00)\n        /* \"contracts/contracts/protocol/PoolOrganizer.sol\":6942:7218  function findIndexInArray(address[] storage array, address target) private view returns (uint256) {... */\n      swap1\n      jump\t// out\n    stop\n    data_cea5b988323acc73cd81db0e6f2932cdc75f39072539d65cbfa79c56b2a64e51 6077685936c8169d09204a1d97db12e41713588c38e1d29a61867d3dcee98aff\n\n    auxdata: 0xa2646970667358221220ee4c1fec84c61dde24174d484c96a18f461bc0a4423f4b2d6014c3283a2bff3164736f6c63430008190033\n}\n",
				"bytecode": {
					"linkReferences": {},
					"object": "60806040523461002c5761001233610030565b5061001c3361009c565b50604051611359908161013b8239f35b5f80fd5b6001600160a01b03165f8181525f805160206114b4833981519152602052604090205460ff16610097575f8181525f805160206114b483398151915260205260408120805460ff191660011790553391905f805160206114948339815191528180a4600190565b505f90565b6001600160a01b03165f8181527f729ef9451dd492832bd2a98139702ced95dfa0cec7e99526dbbcb957abcbc47660205260409020547f6077685936c8169d09204a1d97db12e41713588c38e1d29a61867d3dcee98aff919060ff1661013457815f525f60205260405f20815f5260205260405f20600160ff1982541617905533915f805160206114948339815191525f80a4600190565b50505f9056fe60808060405260049081361015610014575f80fd5b5f3560e01c90816301ffc9a714610ee95750806305c4fdf914610d955780630f4ef8a614610d6d5780631e4966ab14610d345780632437769a14610a9f578063248a9ca314610a7457806324a44efb146109995780632f2ff15d1461095d57806336568abe1461091957806356d73568146108f25780635d102df7146108355780637570e389146107955780637e72c7d7146105695780638a4adf241461054157806391d14854146104f9578063a217fddf146104df578063a8d088bb146104ac578063c489579d14610315578063d3e90fa014610163578063d3ffe67a146101465763d547741f14610105575f80fd5b34610142576040366003190112610142576101409035610123610f51565b90805f525f60205261013b600160405f2001546110cb565b611200565b005b5f80fd5b34610142575f366003190112610142576020600354604051908152f35b50346101425760203660031901126101425761014090610181610f3b565b5f61012060405161019181610fca565b8281528260208201528260408201528260608201528260808201528260a08201528260c08201528260e082015282610100820152015260018060a01b0316805f52816020526101ed60018060a01b0360405f2054161515610f88565b5f528060205261027e60ff600960405f206040519461020b86610fca565b81546001600160a01b03908116875260018301548116602088015260028301546040880152600383015481166060880152908201548116608087015260058201541660a0860152600681015460c0860152600781015460e086015260088101546101008601520154166101208301610ffb565b6103136101206040519260018060a01b03815116845260018060a01b0360208201511660208501526040810151604085015260018060a01b03606082015116606085015260018060a01b03608082015116608085015260018060a01b0360a08201511660a085015260c081015160c085015260e081015160e08501526101008101516101008501520151610120830190610f67565bf35b50346101425760403660031901126101425761032f610f3b565b610337610f51565b335f9081527fad3228b676f7d3cd4284a5443f17f1962b36e491b30a40b2405849e597ba5fb5602052604090205490919060ff161561048f576001600160a01b0381811690811561043f5783169081156103ef57600180546001600160a01b031990811692909217905560028054909116919091179055604080516001600160a01b0392831681529290911660208301527f8fc18cc172f74c81235145b7927190d2bd0e351fc45bfb17bb572593273cef21925090a1005b60405162461bcd60e51b81526020818701526024808201527f5265776172644d616e616765722063616e6e6f74206265207a65726f206164646044820152637265737360e01b6064820152608490fd5b60405162461bcd60e51b8152602081870152602360248201527f5661756c744d616e616765722063616e6e6f74206265207a65726f206164647260448201526265737360e81b6064820152608490fd5b60405163e2517d3f60e01b815233818501525f6024820152604490fd5b34610142575f36600319011261014257600154600254604080516001600160a01b03938416815292909116602083015290f35b34610142575f3660031901126101425760206040515f8152f35b503461014257604036600319011261014257610513610f51565b90355f525f60205260405f209060018060a01b03165f52602052602060ff60405f2054166040519015158152f35b34610142575f366003190112610142576001546040516001600160a01b039091168152602090f35b5034610142576020908160031936011261014257610585610f3b565b9061058e611065565b60018060a01b039081831693845f528181526105b18360405f2054161515610f88565b845f528181528260405f205416805f526005938483526105d48660405f206112bb565b95825f5285845260405f2054925f19938481019081116107825761060461063f91835f5289885260405f20611050565b90548561061c60039c865f528c8b5260405f20611050565b9290938d1b1c169060018060a01b038084549260031b9316831b921b1916179055565b5f5285845260405f208054801561076f5790846106819392019061067b6106668383611050565b81549060018060a01b039060031b1b19169055565b55611272565b90865483810190811161075c576106ca929161069f6106ac92611007565b9054908a1b1c1691611007565b90919060018060a01b038084549260031b9316831b921b1916179055565b8454801561074957835f96948794600997948694016106eb61066682611007565b87558984525281604081209581875581600188015581600288015586015584015582015582600682015582600782015582600882015501557f334d0b2111287dfddebe4b4c1c5af3ae644909d7fcd024377bf601e236ed5abb5f80a2005b603184634e487b7160e01b5f525260245ffd5b601186634e487b7160e01b5f525260245ffd5b603187634e487b7160e01b5f525260245ffd5b601187634e487b7160e01b5f525260245ffd5b5034610142576020366003190112610142576001600160a01b03806107b8610f3b565b16805f5260066020528160405f205416156107e557602092505f526006825260405f205416604051908152f35b60405162461bcd60e51b8152602081850152602360248201527f506f6f6c206e6f742072656769737465726564206f7220686173206e6f2076616044820152621d5b1d60ea1b6064820152608490fd5b50346101425760203660031901126101425761084f610f3b565b335f9081527fad3228b676f7d3cd4284a5443f17f1962b36e491b30a40b2405849e597ba5fb5602052604090205490919060ff16156108b557610140825f805160206113048339815191525f525f6020526108b0600160405f2001546110cb565b6110ec565b60649060206040519162461bcd60e51b8352820152601660248201527521b0b63632b91034b9903737ba1030b71030b236b4b760511b6044820152fd5b34610142575f3660031901126101425760206040515f805160206113048339815191528152f35b503461014257604036600319011261014257610933610f51565b336001600160a01b0382160361094d576101409135611200565b5060405163334bd91960e11b8152fd5b503461014257604036600319011261014257610140903561097c610f51565b90805f525f602052610994600160405f2001546110cb565b61118a565b50346101425760209081600319360112610142576001600160a01b0391826109bf610f3b565b165f526005815260405f2090604051908181845491828152019081945f52825f20905f5b84828210610a5e5750505050829003601f01601f191682019367ffffffffffffffff851183861017610a4b5750908360405281840190828552518091526040840192915f5b828110610a355785850386f35b8351871685529381019392810192600101610a28565b604190634e487b7160e01b5f525260245ffd5b83548a16855290930192600192830192016109e3565b503461014257602036600319011261014257355f525f6020526020600160405f200154604051908152f35b50346101425761014036600319011261014257610aba610f3b565b90610ac3610f51565b906044359260018060a01b03808516809503610142576064359181831680930361014257608435938285168095036101425760a43595838716809703610142576101243593600285101561014257610b19611065565b808416968715610cf057875f52836020528160405f205416610cac57918782879460099460405194610b4a86610fca565b169b8c85528d60208601908152604086019342855260608701938d85526080880190815260a0880193845260c088019460c435865260e089019660e43588526101008a0198610104358a52610ba46101208c019d8e610ffb565b5f528c6020528360405f209a5116946bffffffffffffffffffffffff60a01b95868c5416178b558460018c01915116868254161790555160028a01558260038a0191511684825416179055818b89019151168382541617905560058701925116908254161790555160068401555160078301555160088201550190516002811015610c995760ff801983541691161790556003549068010000000000000000821015610a4b5750604092610c877f8f723e49dc038e67c41b41307a1e0c65653d50125a0c474a21ac32d9a0b24d2b95936106ac846001610c969601600355611007565b83519283526020830190610f67565ba4005b602183634e487b7160e01b5f525260245ffd5b60405162461bcd60e51b8152602081860152601760248201527f506f6f6c20616c726561647920726567697374657265640000000000000000006044820152606490fd5b60405162461bcd60e51b8152602081860152601b60248201527f506f6f6c20616464726573732063616e6e6f74206265207a65726f00000000006044820152606490fd5b346101425760203660031901126101425760206001600160a01b0380610d58610f3b565b165f526006825260405f205416604051908152f35b34610142575f366003190112610142576002546040516001600160a01b039091168152602090f35b503461014257604036600319011261014257610daf610f3b565b90610db8610f51565b91610dc1611065565b6001600160a01b039081169182151580610ede575b15610ea657825f5280602052610df38260405f2054161515610f88565b825f5260066020528160405f205416610e535750815f52600660205260405f20921691826bffffffffffffffffffffffff60a01b8254161790557ff8ee9039d8e4d43426638703c71517008894fdea742bb2d2dbff5a46fb07abdb5f80a3005b60849060206040519162461bcd60e51b8352820152602660248201527f5661756c7420616c7265616479207265676973746572656420666f72207468696044820152651cc81c1bdbdb60d21b6064820152fd5b60649060206040519162461bcd60e51b83528201526011602482015270496e76616c69642061646472657373657360781b6044820152fd5b508184161515610dd6565b823461014257602036600319011261014257359063ffffffff60e01b821680920361014257602091637965db0b60e01b8114908115610f2a575b5015158152f35b6301ffc9a760e01b14905083610f23565b600435906001600160a01b038216820361014257565b602435906001600160a01b038216820361014257565b906002821015610f745752565b634e487b7160e01b5f52602160045260245ffd5b15610f8f57565b60405162461bcd60e51b8152602060048201526013602482015272141bdbdb081b9bdd081c9959da5cdd195c9959606a1b6044820152606490fd5b610140810190811067ffffffffffffffff821117610fe757604052565b634e487b7160e01b5f52604160045260245ffd5b6002821015610f745752565b60035481101561103c5760035f527fc2575a0e9e593c00f959f8c92f12db2869c3395a3b0502d05e2516446f71f85b01905f90565b634e487b7160e01b5f52603260045260245ffd5b805482101561103c575f5260205f2001905f90565b335f9081527f729ef9451dd492832bd2a98139702ced95dfa0cec7e99526dbbcb957abcbc47660205260409020545f805160206113048339815191529060ff16156110ad5750565b6044906040519063e2517d3f60e01b82523360048301526024820152fd5b805f525f60205260405f20335f5260205260ff60405f205416156110ad5750565b6001600160a01b03165f8181527f729ef9451dd492832bd2a98139702ced95dfa0cec7e99526dbbcb957abcbc47660205260409020545f80516020611304833981519152919060ff1661118457815f525f60205260405f20815f5260205260405f20600160ff1982541617905533917f2f8788117e7eff1d82e926ec794901d17c78024a50270940304540a733656f0d5f80a4600190565b50505f90565b90815f525f60205260405f209060018060a01b031690815f5260205260ff60405f205416155f1461118457815f525f60205260405f20815f5260205260405f20600160ff1982541617905533917f2f8788117e7eff1d82e926ec794901d17c78024a50270940304540a733656f0d5f80a4600190565b90815f525f60205260405f209060018060a01b031690815f5260205260ff60405f2054165f1461118457815f525f60205260405f20815f5260205260405f2060ff19815416905533917ff6391f5c32d9c69d2a47ea670b442974b53935d1edc7fd64eb21e047a839171b5f80a4600190565b5f9060038054925b83811061128a57505050505f1990565b61129381611007565b905490831b1c6001600160a01b03908116908416146112b45760010161127a565b9250505090565b905f5b82548110156112fb576112d18184611050565b905460039190911b1c6001600160a01b03908116908316146112f5576001016112be565b91505090565b5050505f199056fe6077685936c8169d09204a1d97db12e41713588c38e1d29a61867d3dcee98affa2646970667358221220ee4c1fec84c61dde24174d484c96a18f461bc0a4423f4b2d6014c3283a2bff3164736f6c634300081900332f8788117e7eff1d82e926ec794901d17c78024a50270940304540a733656f0dad3228b676f7d3cd4284a5443f17f1962b36e491b30a40b2405849e597ba5fb5",
					"opcodes": "PUSH1 0x80 PUSH1 0x40 MSTORE CALLVALUE PUSH2 0x2C JUMPI PUSH2 0x12 CALLER PUSH2 0x30 JUMP JUMPDEST POP PUSH2 0x1C CALLER PUSH2 0x9C JUMP JUMPDEST POP PUSH1 0x40 MLOAD PUSH2 0x1359 SWAP1 DUP2 PUSH2 0x13B DUP3 CODECOPY RETURN JUMPDEST PUSH0 DUP1 REVERT JUMPDEST PUSH1 0x1 PUSH1 0x1 PUSH1 0xA0 SHL SUB AND PUSH0 DUP2 DUP2 MSTORE PUSH0 DUP1 MLOAD PUSH1 0x20 PUSH2 0x14B4 DUP4 CODECOPY DUP2 MLOAD SWAP2 MSTORE PUSH1 0x20 MSTORE PUSH1 0x40 SWAP1 KECCAK256 SLOAD PUSH1 0xFF AND PUSH2 0x97 JUMPI PUSH0 DUP2 DUP2 MSTORE PUSH0 DUP1 MLOAD PUSH1 0x20 PUSH2 0x14B4 DUP4 CODECOPY DUP2 MLOAD SWAP2 MSTORE PUSH1 0x20 MSTORE PUSH1 0x40 DUP2 KECCAK256 DUP1 SLOAD PUSH1 0xFF NOT AND PUSH1 0x1 OR SWAP1 SSTORE CALLER SWAP2 SWAP1 PUSH0 DUP1 MLOAD PUSH1 0x20 PUSH2 0x1494 DUP4 CODECOPY DUP2 MLOAD SWAP2 MSTORE DUP2 DUP1 LOG4 PUSH1 0x1 SWAP1 JUMP JUMPDEST POP PUSH0 SWAP1 JUMP JUMPDEST PUSH1 0x1 PUSH1 0x1 PUSH1 0xA0 SHL SUB AND PUSH0 DUP2 DUP2 MSTORE PUSH32 0x729EF9451DD492832BD2A98139702CED95DFA0CEC7E99526DBBCB957ABCBC476 PUSH1 0x20 MSTORE PUSH1 0x40 SWAP1 KECCAK256 SLOAD PUSH32 0x6077685936C8169D09204A1D97DB12E41713588C38E1D29A61867D3DCEE98AFF SWAP2 SWAP1 PUSH1 0xFF AND PUSH2 0x134 JUMPI DUP2 PUSH0 MSTORE PUSH0 PUSH1 0x20 MSTORE PUSH1 0x40 PUSH0 KECCAK256 DUP2 PUSH0 MSTORE PUSH1 0x20 MSTORE PUSH1 0x40 PUSH0 KECCAK256 PUSH1 0x1 PUSH1 0xFF NOT DUP3 SLOAD AND OR SWAP1 SSTORE CALLER SWAP2 PUSH0 DUP1 MLOAD PUSH1 0x20 PUSH2 0x1494 DUP4 CODECOPY DUP2 MLOAD SWAP2 MSTORE PUSH0 DUP1 LOG4 PUSH1 0x1 SWAP1 JUMP JUMPDEST POP POP PUSH0 SWAP1 JUMP INVALID PUSH1 0x80 DUP1 PUSH1 0x40 MSTORE PUSH1 0x4 SWAP1 DUP2 CALLDATASIZE LT ISZERO PUSH2 0x14 JUMPI PUSH0 DUP1 REVERT JUMPDEST PUSH0 CALLDATALOAD PUSH1 0xE0 SHR SWAP1 DUP2 PUSH4 0x1FFC9A7 EQ PUSH2 0xEE9 JUMPI POP DUP1 PUSH4 0x5C4FDF9 EQ PUSH2 0xD95 JUMPI DUP1 PUSH4 0xF4EF8A6 EQ PUSH2 0xD6D JUMPI DUP1 PUSH4 0x1E4966AB EQ PUSH2 0xD34 JUMPI DUP1 PUSH4 0x2437769A EQ PUSH2 0xA9F JUMPI DUP1 PUSH4 0x248A9CA3 EQ PUSH2 0xA74 JUMPI DUP1 PUSH4 0x24A44EFB EQ PUSH2 0x999 JUMPI DUP1 PUSH4 0x2F2FF15D EQ PUSH2 0x95D JUMPI DUP1 PUSH4 0x36568ABE EQ PUSH2 0x919 JUMPI DUP1 PUSH4 0x56D73568 EQ PUSH2 0x8F2 JUMPI DUP1 PUSH4 0x5D102DF7 EQ PUSH2 0x835 JUMPI DUP1 PUSH4 0x7570E389 EQ PUSH2 0x795 JUMPI DUP1 PUSH4 0x7E72C7D7 EQ PUSH2 0x569 JUMPI DUP1 PUSH4 0x8A4ADF24 EQ PUSH2 0x541 JUMPI DUP1 PUSH4 0x91D14854 EQ PUSH2 0x4F9 JUMPI DUP1 PUSH4 0xA217FDDF EQ PUSH2 0x4DF JUMPI DUP1 PUSH4 0xA8D088BB EQ PUSH2 0x4AC JUMPI DUP1 PUSH4 0xC489579D EQ PUSH2 0x315 JUMPI DUP1 PUSH4 0xD3E90FA0 EQ PUSH2 0x163 JUMPI DUP1 PUSH4 0xD3FFE67A EQ PUSH2 0x146 JUMPI PUSH4 0xD547741F EQ PUSH2 0x105 JUMPI PUSH0 DUP1 REVERT JUMPDEST CALLVALUE PUSH2 0x142 JUMPI PUSH1 0x40 CALLDATASIZE PUSH1 0x3 NOT ADD SLT PUSH2 0x142 JUMPI PUSH2 0x140 SWAP1 CALLDATALOAD PUSH2 0x123 PUSH2 0xF51 JUMP JUMPDEST SWAP1 DUP1 PUSH0 MSTORE PUSH0 PUSH1 0x20 MSTORE PUSH2 0x13B PUSH1 0x1 PUSH1 0x40 PUSH0 KECCAK256 ADD SLOAD PUSH2 0x10CB JUMP JUMPDEST PUSH2 0x1200 JUMP JUMPDEST STOP JUMPDEST PUSH0 DUP1 REVERT JUMPDEST CALLVALUE PUSH2 0x142 JUMPI PUSH0 CALLDATASIZE PUSH1 0x3 NOT ADD SLT PUSH2 0x142 JUMPI PUSH1 0x20 PUSH1 0x3 SLOAD PUSH1 0x40 MLOAD SWAP1 DUP2 MSTORE RETURN JUMPDEST POP CALLVALUE PUSH2 0x142 JUMPI PUSH1 0x20 CALLDATASIZE PUSH1 0x3 NOT ADD SLT PUSH2 0x142 JUMPI PUSH2 0x140 SWAP1 PUSH2 0x181 PUSH2 0xF3B JUMP JUMPDEST PUSH0 PUSH2 0x120 PUSH1 0x40 MLOAD PUSH2 0x191 DUP2 PUSH2 0xFCA JUMP JUMPDEST DUP3 DUP2 MSTORE DUP3 PUSH1 0x20 DUP3 ADD MSTORE DUP3 PUSH1 0x40 DUP3 ADD MSTORE DUP3 PUSH1 0x60 DUP3 ADD MSTORE DUP3 PUSH1 0x80 DUP3 ADD MSTORE DUP3 PUSH1 0xA0 DUP3 ADD MSTORE DUP3 PUSH1 0xC0 DUP3 ADD MSTORE DUP3 PUSH1 0xE0 DUP3 ADD MSTORE DUP3 PUSH2 0x100 DUP3 ADD MSTORE ADD MSTORE PUSH1 0x1 DUP1 PUSH1 0xA0 SHL SUB AND DUP1 PUSH0 MSTORE DUP2 PUSH1 0x20 MSTORE PUSH2 0x1ED PUSH1 0x1 DUP1 PUSH1 0xA0 SHL SUB PUSH1 0x40 PUSH0 KECCAK256 SLOAD AND ISZERO ISZERO PUSH2 0xF88 JUMP JUMPDEST PUSH0 MSTORE DUP1 PUSH1 0x20 MSTORE PUSH2 0x27E PUSH1 0xFF PUSH1 0x9 PUSH1 0x40 PUSH0 KECCAK256 PUSH1 0x40 MLOAD SWAP5 PUSH2 0x20B DUP7 PUSH2 0xFCA JUMP JUMPDEST DUP2 SLOAD PUSH1 0x1 PUSH1 0x1 PUSH1 0xA0 SHL SUB SWAP1 DUP2 AND DUP8 MSTORE PUSH1 0x1 DUP4 ADD SLOAD DUP2 AND PUSH1 0x20 DUP9 ADD MSTORE PUSH1 0x2 DUP4 ADD SLOAD PUSH1 0x40 DUP9 ADD MSTORE PUSH1 0x3 DUP4 ADD SLOAD DUP2 AND PUSH1 0x60 DUP9 ADD MSTORE SWAP1 DUP3 ADD SLOAD DUP2 AND PUSH1 0x80 DUP8 ADD MSTORE PUSH1 0x5 DUP3 ADD SLOAD AND PUSH1 0xA0 DUP7 ADD MSTORE PUSH1 0x6 DUP2 ADD SLOAD PUSH1 0xC0 DUP7 ADD MSTORE PUSH1 0x7 DUP2 ADD SLOAD PUSH1 0xE0 DUP7 ADD MSTORE PUSH1 0x8 DUP2 ADD SLOAD PUSH2 0x100 DUP7 ADD MSTORE ADD SLOAD AND PUSH2 0x120 DUP4 ADD PUSH2 0xFFB JUMP JUMPDEST PUSH2 0x313 PUSH2 0x120 PUSH1 0x40 MLOAD SWAP3 PUSH1 0x1 DUP1 PUSH1 0xA0 SHL SUB DUP2 MLOAD AND DUP5 MSTORE PUSH1 0x1 DUP1 PUSH1 0xA0 SHL SUB PUSH1 0x20 DUP3 ADD MLOAD AND PUSH1 0x20 DUP6 ADD MSTORE PUSH1 0x40 DUP2 ADD MLOAD PUSH1 0x40 DUP6 ADD MSTORE PUSH1 0x1 DUP1 PUSH1 0xA0 SHL SUB PUSH1 0x60 DUP3 ADD MLOAD AND PUSH1 0x60 DUP6 ADD MSTORE PUSH1 0x1 DUP1 PUSH1 0xA0 SHL SUB PUSH1 0x80 DUP3 ADD MLOAD AND PUSH1 0x80 DUP6 ADD MSTORE PUSH1 0x1 DUP1 PUSH1 0xA0 SHL SUB PUSH1 0xA0 DUP3 ADD MLOAD AND PUSH1 0xA0 DUP6 ADD MSTORE PUSH1 0xC0 DUP2 ADD MLOAD PUSH1 0xC0 DUP6 ADD MSTORE PUSH1 0xE0 DUP2 ADD MLOAD PUSH1 0xE0 DUP6 ADD MSTORE PUSH2 0x100 DUP2 ADD MLOAD PUSH2 0x100 DUP6 ADD MSTORE ADD MLOAD PUSH2 0x120 DUP4 ADD SWAP1 PUSH2 0xF67 JUMP JUMPDEST RETURN JUMPDEST POP CALLVALUE PUSH2 0x142 JUMPI PUSH1 0x40 CALLDATASIZE PUSH1 0x3 NOT ADD SLT PUSH2 0x142 JUMPI PUSH2 0x32F PUSH2 0xF3B JUMP JUMPDEST PUSH2 0x337 PUSH2 0xF51 JUMP JUMPDEST CALLER PUSH0 SWAP1 DUP2 MSTORE PUSH32 0xAD3228B676F7D3CD4284A5443F17F1962B36E491B30A40B2405849E597BA5FB5 PUSH1 0x20 MSTORE PUSH1 0x40 SWAP1 KECCAK256 SLOAD SWAP1 SWAP2 SWAP1 PUSH1 0xFF AND ISZERO PUSH2 0x48F JUMPI PUSH1 0x1 PUSH1 0x1 PUSH1 0xA0 SHL SUB DUP2 DUP2 AND SWAP1 DUP2 ISZERO PUSH2 0x43F JUMPI DUP4 AND SWAP1 DUP2 ISZERO PUSH2 0x3EF JUMPI PUSH1 0x1 DUP1 SLOAD PUSH1 0x1 PUSH1 0x1 PUSH1 0xA0 SHL SUB NOT SWAP1 DUP2 AND SWAP3 SWAP1 SWAP3 OR SWAP1 SSTORE PUSH1 0x2 DUP1 SLOAD SWAP1 SWAP2 AND SWAP2 SWAP1 SWAP2 OR SWAP1 SSTORE PUSH1 0x40 DUP1 MLOAD PUSH1 0x1 PUSH1 0x1 PUSH1 0xA0 SHL SUB SWAP3 DUP4 AND DUP2 MSTORE SWAP3 SWAP1 SWAP2 AND PUSH1 0x20 DUP4 ADD MSTORE PUSH32 0x8FC18CC172F74C81235145B7927190D2BD0E351FC45BFB17BB572593273CEF21 SWAP3 POP SWAP1 LOG1 STOP JUMPDEST PUSH1 0x40 MLOAD PUSH3 0x461BCD PUSH1 0xE5 SHL DUP2 MSTORE PUSH1 0x20 DUP2 DUP8 ADD MSTORE PUSH1 0x24 DUP1 DUP3 ADD MSTORE PUSH32 0x5265776172644D616E616765722063616E6E6F74206265207A65726F20616464 PUSH1 0x44 DUP3 ADD MSTORE PUSH4 0x72657373 PUSH1 0xE0 SHL PUSH1 0x64 DUP3 ADD MSTORE PUSH1 0x84 SWAP1 REVERT JUMPDEST PUSH1 0x40 MLOAD PUSH3 0x461BCD PUSH1 0xE5 SHL DUP2 MSTORE PUSH1 0x20 DUP2 DUP8 ADD MSTORE PUSH1 0x23 PUSH1 0x24 DUP3 ADD MSTORE PUSH32 0x5661756C744D616E616765722063616E6E6F74206265207A65726F2061646472 PUSH1 0x44 DUP3 ADD MSTORE PUSH3 0x657373 PUSH1 0xE8 SHL PUSH1 0x64 DUP3 ADD MSTORE PUSH1 0x84 SWAP1 REVERT JUMPDEST PUSH1 0x40 MLOAD PUSH4 0xE2517D3F PUSH1 0xE0 SHL DUP2 MSTORE CALLER DUP2 DUP6 ADD MSTORE PUSH0 PUSH1 0x24 DUP3 ADD MSTORE PUSH1 0x44 SWAP1 REVERT JUMPDEST CALLVALUE PUSH2 0x142 JUMPI PUSH0 CALLDATASIZE PUSH1 0x3 NOT ADD SLT PUSH2 0x142 JUMPI PUSH1 0x1 SLOAD PUSH1 0x2 SLOAD PUSH1 0x40 DUP1 MLOAD PUSH1 0x1 PUSH1 0x1 PUSH1 0xA0 SHL SUB SWAP4 DUP5 AND DUP2 MSTORE SWAP3 SWAP1 SWAP2 AND PUSH1 0x20 DUP4 ADD MSTORE SWAP1 RETURN JUMPDEST CALLVALUE PUSH2 0x142 JUMPI PUSH0 CALLDATASIZE PUSH1 0x3 NOT ADD SLT PUSH2 0x142 JUMPI PUSH1 0x20 PUSH1 0x40 MLOAD PUSH0 DUP2 MSTORE RETURN JUMPDEST POP CALLVALUE PUSH2 0x142 JUMPI PUSH1 0x40 CALLDATASIZE PUSH1 0x3 NOT ADD SLT PUSH2 0x142 JUMPI PUSH2 0x513 PUSH2 0xF51 JUMP JUMPDEST SWAP1 CALLDATALOAD PUSH0 MSTORE PUSH0 PUSH1 0x20 MSTORE PUSH1 0x40 PUSH0 KECCAK256 SWAP1 PUSH1 0x1 DUP1 PUSH1 0xA0 SHL SUB AND PUSH0 MSTORE PUSH1 0x20 MSTORE PUSH1 0x20 PUSH1 0xFF PUSH1 0x40 PUSH0 KECCAK256 SLOAD AND PUSH1 0x40 MLOAD SWAP1 ISZERO ISZERO DUP2 MSTORE RETURN JUMPDEST CALLVALUE PUSH2 0x142 JUMPI PUSH0 CALLDATASIZE PUSH1 0x3 NOT ADD SLT PUSH2 0x142 JUMPI PUSH1 0x1 SLOAD PUSH1 0x40 MLOAD PUSH1 0x1 PUSH1 0x1 PUSH1 0xA0 SHL SUB SWAP1 SWAP2 AND DUP2 MSTORE PUSH1 0x20 SWAP1 RETURN JUMPDEST POP CALLVALUE PUSH2 0x142 JUMPI PUSH1 0x20 SWAP1 DUP2 PUSH1 0x3 NOT CALLDATASIZE ADD SLT PUSH2 0x142 JUMPI PUSH2 0x585 PUSH2 0xF3B JUMP JUMPDEST SWAP1 PUSH2 0x58E PUSH2 0x1065 JUMP JUMPDEST PUSH1 0x1 DUP1 PUSH1 0xA0 SHL SUB SWAP1 DUP2 DUP4 AND SWAP4 DUP5 PUSH0 MSTORE DUP2 DUP2 MSTORE PUSH2 0x5B1 DUP4 PUSH1 0x40 PUSH0 KECCAK256 SLOAD AND ISZERO ISZERO PUSH2 0xF88 JUMP JUMPDEST DUP5 PUSH0 MSTORE DUP2 DUP2 MSTORE DUP3 PUSH1 0x40 PUSH0 KECCAK256 SLOAD AND DUP1 PUSH0 MSTORE PUSH1 0x5 SWAP4 DUP5 DUP4 MSTORE PUSH2 0x5D4 DUP7 PUSH1 0x40 PUSH0 KECCAK256 PUSH2 0x12BB JUMP JUMPDEST SWAP6 DUP3 PUSH0 MSTORE DUP6 DUP5 MSTORE PUSH1 0x40 PUSH0 KECCAK256 SLOAD SWAP3 PUSH0 NOT SWAP4 DUP5 DUP2 ADD SWAP1 DUP2 GT PUSH2 0x782 JUMPI PUSH2 0x604 PUSH2 0x63F SWAP2 DUP4 PUSH0 MSTORE DUP10 DUP9 MSTORE PUSH1 0x40 PUSH0 KECCAK256 PUSH2 0x1050 JUMP JUMPDEST SWAP1 SLOAD DUP6 PUSH2 0x61C PUSH1 0x3 SWAP13 DUP7 PUSH0 MSTORE DUP13 DUP12 MSTORE PUSH1 0x40 PUSH0 KECCAK256 PUSH2 0x1050 JUMP JUMPDEST SWAP3 SWAP1 SWAP4 DUP14 SHL SHR AND SWAP1 PUSH1 0x1 DUP1 PUSH1 0xA0 SHL SUB DUP1 DUP5 SLOAD SWAP3 PUSH1 0x3 SHL SWAP4 AND DUP4 SHL SWAP3 SHL NOT AND OR SWAP1 SSTORE JUMP JUMPDEST PUSH0 MSTORE DUP6 DUP5 MSTORE PUSH1 0x40 PUSH0 KECCAK256 DUP1 SLOAD DUP1 ISZERO PUSH2 0x76F JUMPI SWAP1 DUP5 PUSH2 0x681 SWAP4 SWAP3 ADD SWAP1 PUSH2 0x67B PUSH2 0x666 DUP4 DUP4 PUSH2 0x1050 JUMP JUMPDEST DUP2 SLOAD SWAP1 PUSH1 0x1 DUP1 PUSH1 0xA0 SHL SUB SWAP1 PUSH1 0x3 SHL SHL NOT AND SWAP1 SSTORE JUMP JUMPDEST SSTORE PUSH2 0x1272 JUMP JUMPDEST SWAP1 DUP7 SLOAD DUP4 DUP2 ADD SWAP1 DUP2 GT PUSH2 0x75C JUMPI PUSH2 0x6CA SWAP3 SWAP2 PUSH2 0x69F PUSH2 0x6AC SWAP3 PUSH2 0x1007 JUMP JUMPDEST SWAP1 SLOAD SWAP1 DUP11 SHL SHR AND SWAP2 PUSH2 0x1007 JUMP JUMPDEST SWAP1 SWAP2 SWAP1 PUSH1 0x1 DUP1 PUSH1 0xA0 SHL SUB DUP1 DUP5 SLOAD SWAP3 PUSH1 0x3 SHL SWAP4 AND DUP4 SHL SWAP3 SHL NOT AND OR SWAP1 SSTORE JUMP JUMPDEST DUP5 SLOAD DUP1 ISZERO PUSH2 0x749 JUMPI DUP4 PUSH0 SWAP7 SWAP5 DUP8 SWAP5 PUSH1 0x9 SWAP8 SWAP5 DUP7 SWAP5 ADD PUSH2 0x6EB PUSH2 0x666 DUP3 PUSH2 0x1007 JUMP JUMPDEST DUP8 SSTORE DUP10 DUP5 MSTORE MSTORE DUP2 PUSH1 0x40 DUP2 KECCAK256 SWAP6 DUP2 DUP8 SSTORE DUP2 PUSH1 0x1 DUP9 ADD SSTORE DUP2 PUSH1 0x2 DUP9 ADD SSTORE DUP7 ADD SSTORE DUP5 ADD SSTORE DUP3 ADD SSTORE DUP3 PUSH1 0x6 DUP3 ADD SSTORE DUP3 PUSH1 0x7 DUP3 ADD SSTORE DUP3 PUSH1 0x8 DUP3 ADD SSTORE ADD SSTORE PUSH32 0x334D0B2111287DFDDEBE4B4C1C5AF3AE644909D7FCD024377BF601E236ED5ABB PUSH0 DUP1 LOG2 STOP JUMPDEST PUSH1 0x31 DUP5 PUSH4 0x4E487B71 PUSH1 0xE0 SHL PUSH0 MSTORE MSTORE PUSH1 0x24 PUSH0 REVERT JUMPDEST PUSH1 0x11 DUP7 PUSH4 0x4E487B71 PUSH1 0xE0 SHL PUSH0 MSTORE MSTORE PUSH1 0x24 PUSH0 REVERT JUMPDEST PUSH1 0x31 DUP8 PUSH4 0x4E487B71 PUSH1 0xE0 SHL PUSH0 MSTORE MSTORE PUSH1 0x24 PUSH0 REVERT JUMPDEST PUSH1 0x11 DUP8 PUSH4 0x4E487B71 PUSH1 0xE0 SHL PUSH0 MSTORE MSTORE PUSH1 0x24 PUSH0 REVERT JUMPDEST POP CALLVALUE PUSH2 0x142 JUMPI PUSH1 0x20 CALLDATASIZE PUSH1 0x3 NOT ADD SLT PUSH2 0x142 JUMPI PUSH1 0x1 PUSH1 0x1 PUSH1 0xA0 SHL SUB DUP1 PUSH2 0x7B8 PUSH2 0xF3B JUMP JUMPDEST AND DUP1 PUSH0 MSTORE PUSH1 0x6 PUSH1 0x20 MSTORE DUP2 PUSH1 0x40 PUSH0 KECCAK256 SLOAD AND ISZERO PUSH2 0x7E5 JUMPI PUSH1 0x20 SWAP3 POP PUSH0 MSTORE PUSH1 0x6 DUP3 MSTORE PUSH1 0x40 PUSH0 KECCAK256 SLOAD AND PUSH1 0x40 MLOAD SWAP1 DUP2 MSTORE RETURN JUMPDEST PUSH1 0x40 MLOAD PUSH3 0x461BCD PUSH1 0xE5 SHL DUP2 MSTORE PUSH1 0x20 DUP2 DUP6 ADD MSTORE PUSH1 0x23 PUSH1 0x24 DUP3 ADD MSTORE PUSH32 0x506F6F6C206E6F742072656769737465726564206F7220686173206E6F207661 PUSH1 0x44 DUP3 ADD MSTORE PUSH3 0x1D5B1D PUSH1 0xEA SHL PUSH1 0x64 DUP3 ADD MSTORE PUSH1 0x84 SWAP1 REVERT JUMPDEST POP CALLVALUE PUSH2 0x142 JUMPI PUSH1 0x20 CALLDATASIZE PUSH1 0x3 NOT ADD SLT PUSH2 0x142 JUMPI PUSH2 0x84F PUSH2 0xF3B JUMP JUMPDEST CALLER PUSH0 SWAP1 DUP2 MSTORE PUSH32 0xAD3228B676F7D3CD4284A5443F17F1962B36E491B30A40B2405849E597BA5FB5 PUSH1 0x20 MSTORE PUSH1 0x40 SWAP1 KECCAK256 SLOAD SWAP1 SWAP2 SWAP1 PUSH1 0xFF AND ISZERO PUSH2 0x8B5 JUMPI PUSH2 0x140 DUP3 PUSH0 DUP1 MLOAD PUSH1 0x20 PUSH2 0x1304 DUP4 CODECOPY DUP2 MLOAD SWAP2 MSTORE PUSH0 MSTORE PUSH0 PUSH1 0x20 MSTORE PUSH2 0x8B0 PUSH1 0x1 PUSH1 0x40 PUSH0 KECCAK256 ADD SLOAD PUSH2 0x10CB JUMP JUMPDEST PUSH2 0x10EC JUMP JUMPDEST PUSH1 0x64 SWAP1 PUSH1 0x20 PUSH1 0x40 MLOAD SWAP2 PUSH3 0x461BCD PUSH1 0xE5 SHL DUP4 MSTORE DUP3 ADD MSTORE PUSH1 0x16 PUSH1 0x24 DUP3 ADD MSTORE PUSH22 0x21B0B63632B91034B9903737BA1030B71030B236B4B7 PUSH1 0x51 SHL PUSH1 0x44 DUP3 ADD MSTORE REVERT JUMPDEST CALLVALUE PUSH2 0x142 JUMPI PUSH0 CALLDATASIZE PUSH1 0x3 NOT ADD SLT PUSH2 0x142 JUMPI PUSH1 0x20 PUSH1 0x40 MLOAD PUSH0 DUP1 MLOAD PUSH1 0x20 PUSH2 0x1304 DUP4 CODECOPY DUP2 MLOAD SWAP2 MSTORE DUP2 MSTORE RETURN JUMPDEST POP CALLVALUE PUSH2 0x142 JUMPI PUSH1 0x40 CALLDATASIZE PUSH1 0x3 NOT ADD SLT PUSH2 0x142 JUMPI PUSH2 0x933 PUSH2 0xF51 JUMP JUMPDEST CALLER PUSH1 0x1 PUSH1 0x1 PUSH1 0xA0 SHL SUB DUP3 AND SUB PUSH2 0x94D JUMPI PUSH2 0x140 SWAP2 CALLDATALOAD PUSH2 0x1200 JUMP JUMPDEST POP PUSH1 0x40 MLOAD PUSH4 0x334BD919 PUSH1 0xE1 SHL DUP2 MSTORE REVERT JUMPDEST POP CALLVALUE PUSH2 0x142 JUMPI PUSH1 0x40 CALLDATASIZE PUSH1 0x3 NOT ADD SLT PUSH2 0x142 JUMPI PUSH2 0x140 SWAP1 CALLDATALOAD PUSH2 0x97C PUSH2 0xF51 JUMP JUMPDEST SWAP1 DUP1 PUSH0 MSTORE PUSH0 PUSH1 0x20 MSTORE PUSH2 0x994 PUSH1 0x1 PUSH1 0x40 PUSH0 KECCAK256 ADD SLOAD PUSH2 0x10CB JUMP JUMPDEST PUSH2 0x118A JUMP JUMPDEST POP CALLVALUE PUSH2 0x142 JUMPI PUSH1 0x20 SWAP1 DUP2 PUSH1 0x3 NOT CALLDATASIZE ADD SLT PUSH2 0x142 JUMPI PUSH1 0x1 PUSH1 0x1 PUSH1 0xA0 SHL SUB SWAP2 DUP3 PUSH2 0x9BF PUSH2 0xF3B JUMP JUMPDEST AND PUSH0 MSTORE PUSH1 0x5 DUP2 MSTORE PUSH1 0x40 PUSH0 KECCAK256 SWAP1 PUSH1 0x40 MLOAD SWAP1 DUP2 DUP2 DUP5 SLOAD SWAP2 DUP3 DUP2 MSTORE ADD SWAP1 DUP2 SWAP5 PUSH0 MSTORE DUP3 PUSH0 KECCAK256 SWAP1 PUSH0 JUMPDEST DUP5 DUP3 DUP3 LT PUSH2 0xA5E JUMPI POP POP POP POP DUP3 SWAP1 SUB PUSH1 0x1F ADD PUSH1 0x1F NOT AND DUP3 ADD SWAP4 PUSH8 0xFFFFFFFFFFFFFFFF DUP6 GT DUP4 DUP7 LT OR PUSH2 0xA4B JUMPI POP SWAP1 DUP4 PUSH1 0x40 MSTORE DUP2 DUP5 ADD SWAP1 DUP3 DUP6 MSTORE MLOAD DUP1 SWAP2 MSTORE PUSH1 0x40 DUP5 ADD SWAP3 SWAP2 PUSH0 JUMPDEST DUP3 DUP2 LT PUSH2 0xA35 JUMPI DUP6 DUP6 SUB DUP7 RETURN JUMPDEST DUP4 MLOAD DUP8 AND DUP6 MSTORE SWAP4 DUP2 ADD SWAP4 SWAP3 DUP2 ADD SWAP3 PUSH1 0x1 ADD PUSH2 0xA28 JUMP JUMPDEST PUSH1 0x41 SWAP1 PUSH4 0x4E487B71 PUSH1 0xE0 SHL PUSH0 MSTORE MSTORE PUSH1 0x24 PUSH0 REVERT JUMPDEST DUP4 SLOAD DUP11 AND DUP6 MSTORE SWAP1 SWAP4 ADD SWAP3 PUSH1 0x1 SWAP3 DUP4 ADD SWAP3 ADD PUSH2 0x9E3 JUMP JUMPDEST POP CALLVALUE PUSH2 0x142 JUMPI PUSH1 0x20 CALLDATASIZE PUSH1 0x3 NOT ADD SLT PUSH2 0x142 JUMPI CALLDATALOAD PUSH0 MSTORE PUSH0 PUSH1 0x20 MSTORE PUSH1 0x20 PUSH1 0x1 PUSH1 0x40 PUSH0 KECCAK256 ADD SLOAD PUSH1 0x40 MLOAD SWAP1 DUP2 MSTORE RETURN JUMPDEST POP CALLVALUE PUSH2 0x142 JUMPI PUSH2 0x140 CALLDATASIZE PUSH1 0x3 NOT ADD SLT PUSH2 0x142 JUMPI PUSH2 0xABA PUSH2 0xF3B JUMP JUMPDEST SWAP1 PUSH2 0xAC3 PUSH2 0xF51 JUMP JUMPDEST SWAP1 PUSH1 0x44 CALLDATALOAD SWAP3 PUSH1 0x1 DUP1 PUSH1 0xA0 SHL SUB DUP1 DUP6 AND DUP1 SWAP6 SUB PUSH2 0x142 JUMPI PUSH1 0x64 CALLDATALOAD SWAP2 DUP2 DUP4 AND DUP1 SWAP4 SUB PUSH2 0x142 JUMPI PUSH1 0x84 CALLDATALOAD SWAP4 DUP3 DUP6 AND DUP1 SWAP6 SUB PUSH2 0x142 JUMPI PUSH1 0xA4 CALLDATALOAD SWAP6 DUP4 DUP8 AND DUP1 SWAP8 SUB PUSH2 0x142 JUMPI PUSH2 0x124 CALLDATALOAD SWAP4 PUSH1 0x2 DUP6 LT ISZERO PUSH2 0x142 JUMPI PUSH2 0xB19 PUSH2 0x1065 JUMP JUMPDEST DUP1 DUP5 AND SWAP7 DUP8 ISZERO PUSH2 0xCF0 JUMPI DUP8 PUSH0 MSTORE DUP4 PUSH1 0x20 MSTORE DUP2 PUSH1 0x40 PUSH0 KECCAK256 SLOAD AND PUSH2 0xCAC JUMPI SWAP2 DUP8 DUP3 DUP8 SWAP5 PUSH1 0x9 SWAP5 PUSH1 0x40 MLOAD SWAP5 PUSH2 0xB4A DUP7 PUSH2 0xFCA JUMP JUMPDEST AND SWAP12 DUP13 DUP6 MSTORE DUP14 PUSH1 0x20 DUP7 ADD SWAP1 DUP2 MSTORE PUSH1 0x40 DUP7 ADD SWAP4 TIMESTAMP DUP6 MSTORE PUSH1 0x60 DUP8 ADD SWAP4 DUP14 DUP6 MSTORE PUSH1 0x80 DUP9 ADD SWAP1 DUP2 MSTORE PUSH1 0xA0 DUP9 ADD SWAP4 DUP5 MSTORE PUSH1 0xC0 DUP9 ADD SWAP5 PUSH1 0xC4 CALLDATALOAD DUP7 MSTORE PUSH1 0xE0 DUP10 ADD SWAP7 PUSH1 0xE4 CALLDATALOAD DUP9 MSTORE PUSH2 0x100 DUP11 ADD SWAP9 PUSH2 0x104 CALLDATALOAD DUP11 MSTORE PUSH2 0xBA4 PUSH2 0x120 DUP13 ADD SWAP14 DUP15 PUSH2 0xFFB JUMP JUMPDEST PUSH0 MSTORE DUP13 PUSH1 0x20 MSTORE DUP4 PUSH1 0x40 PUSH0 KECCAK256 SWAP11 MLOAD AND SWAP5 PUSH12 0xFFFFFFFFFFFFFFFFFFFFFFFF PUSH1 0xA0 SHL SWAP6 DUP7 DUP13 SLOAD AND OR DUP12 SSTORE DUP5 PUSH1 0x1 DUP13 ADD SWAP2 MLOAD AND DUP7 DUP3 SLOAD AND OR SWAP1 SSTORE MLOAD PUSH1 0x2 DUP11 ADD SSTORE DUP3 PUSH1 0x3 DUP11 ADD SWAP2 MLOAD AND DUP5 DUP3 SLOAD AND OR SWAP1 SSTORE DUP2 DUP12 DUP10 ADD SWAP2 MLOAD AND DUP4 DUP3 SLOAD AND OR SWAP1 SSTORE PUSH1 0x5 DUP8 ADD SWAP3 MLOAD AND SWAP1 DUP3 SLOAD AND OR SWAP1 SSTORE MLOAD PUSH1 0x6 DUP5 ADD SSTORE MLOAD PUSH1 0x7 DUP4 ADD SSTORE MLOAD PUSH1 0x8 DUP3 ADD SSTORE ADD SWAP1 MLOAD PUSH1 0x2 DUP2 LT ISZERO PUSH2 0xC99 JUMPI PUSH1 0xFF DUP1 NOT DUP4 SLOAD AND SWAP2 AND OR SWAP1 SSTORE PUSH1 0x3 SLOAD SWAP1 PUSH9 0x10000000000000000 DUP3 LT ISZERO PUSH2 0xA4B JUMPI POP PUSH1 0x40 SWAP3 PUSH2 0xC87 PUSH32 0x8F723E49DC038E67C41B41307A1E0C65653D50125A0C474A21AC32D9A0B24D2B SWAP6 SWAP4 PUSH2 0x6AC DUP5 PUSH1 0x1 PUSH2 0xC96 SWAP7 ADD PUSH1 0x3 SSTORE PUSH2 0x1007 JUMP JUMPDEST DUP4 MLOAD SWAP3 DUP4 MSTORE PUSH1 0x20 DUP4 ADD SWAP1 PUSH2 0xF67 JUMP JUMPDEST LOG4 STOP JUMPDEST PUSH1 0x21 DUP4 PUSH4 0x4E487B71 PUSH1 0xE0 SHL PUSH0 MSTORE MSTORE PUSH1 0x24 PUSH0 REVERT JUMPDEST PUSH1 0x40 MLOAD PUSH3 0x461BCD PUSH1 0xE5 SHL DUP2 MSTORE PUSH1 0x20 DUP2 DUP7 ADD MSTORE PUSH1 0x17 PUSH1 0x24 DUP3 ADD MSTORE PUSH32 0x506F6F6C20616C72656164792072656769737465726564000000000000000000 PUSH1 0x44 DUP3 ADD MSTORE PUSH1 0x64 SWAP1 REVERT JUMPDEST PUSH1 0x40 MLOAD PUSH3 0x461BCD PUSH1 0xE5 SHL DUP2 MSTORE PUSH1 0x20 DUP2 DUP7 ADD MSTORE PUSH1 0x1B PUSH1 0x24 DUP3 ADD MSTORE PUSH32 0x506F6F6C20616464726573732063616E6E6F74206265207A65726F0000000000 PUSH1 0x44 DUP3 ADD MSTORE PUSH1 0x64 SWAP1 REVERT JUMPDEST CALLVALUE PUSH2 0x142 JUMPI PUSH1 0x20 CALLDATASIZE PUSH1 0x3 NOT ADD SLT PUSH2 0x142 JUMPI PUSH1 0x20 PUSH1 0x1 PUSH1 0x1 PUSH1 0xA0 SHL SUB DUP1 PUSH2 0xD58 PUSH2 0xF3B JUMP JUMPDEST AND PUSH0 MSTORE PUSH1 0x6 DUP3 MSTORE PUSH1 0x40 PUSH0 KECCAK256 SLOAD AND PUSH1 0x40 MLOAD SWAP1 DUP2 MSTORE RETURN JUMPDEST CALLVALUE PUSH2 0x142 JUMPI PUSH0 CALLDATASIZE PUSH1 0x3 NOT ADD SLT PUSH2 0x142 JUMPI PUSH1 0x2 SLOAD PUSH1 0x40 MLOAD PUSH1 0x1 PUSH1 0x1 PUSH1 0xA0 SHL SUB SWAP1 SWAP2 AND DUP2 MSTORE PUSH1 0x20 SWAP1 RETURN JUMPDEST POP CALLVALUE PUSH2 0x142 JUMPI PUSH1 0x40 CALLDATASIZE PUSH1 0x3 NOT ADD SLT PUSH2 0x142 JUMPI PUSH2 0xDAF PUSH2 0xF3B JUMP JUMPDEST SWAP1 PUSH2 0xDB8 PUSH2 0xF51 JUMP JUMPDEST SWAP2 PUSH2 0xDC1 PUSH2 0x1065 JUMP JUMPDEST PUSH1 0x1 PUSH1 0x1 PUSH1 0xA0 SHL SUB SWAP1 DUP2 AND SWAP2 DUP3 ISZERO ISZERO DUP1 PUSH2 0xEDE JUMPI JUMPDEST ISZERO PUSH2 0xEA6 JUMPI DUP3 PUSH0 MSTORE DUP1 PUSH1 0x20 MSTORE PUSH2 0xDF3 DUP3 PUSH1 0x40 PUSH0 KECCAK256 SLOAD AND ISZERO ISZERO PUSH2 0xF88 JUMP JUMPDEST DUP3 PUSH0 MSTORE PUSH1 0x6 PUSH1 0x20 MSTORE DUP2 PUSH1 0x40 PUSH0 KECCAK256 SLOAD AND PUSH2 0xE53 JUMPI POP DUP2 PUSH0 MSTORE PUSH1 0x6 PUSH1 0x20 MSTORE PUSH1 0x40 PUSH0 KECCAK256 SWAP3 AND SWAP2 DUP3 PUSH12 0xFFFFFFFFFFFFFFFFFFFFFFFF PUSH1 0xA0 SHL DUP3 SLOAD AND OR SWAP1 SSTORE PUSH32 0xF8EE9039D8E4D43426638703C71517008894FDEA742BB2D2DBFF5A46FB07ABDB PUSH0 DUP1 LOG3 STOP JUMPDEST PUSH1 0x84 SWAP1 PUSH1 0x20 PUSH1 0x40 MLOAD SWAP2 PUSH3 0x461BCD PUSH1 0xE5 SHL DUP4 MSTORE DUP3 ADD MSTORE PUSH1 0x26 PUSH1 0x24 DUP3 ADD MSTORE PUSH32 0x5661756C7420616C7265616479207265676973746572656420666F7220746869 PUSH1 0x44 DUP3 ADD MSTORE PUSH6 0x1CC81C1BDBDB PUSH1 0xD2 SHL PUSH1 0x64 DUP3 ADD MSTORE REVERT JUMPDEST PUSH1 0x64 SWAP1 PUSH1 0x20 PUSH1 0x40 MLOAD SWAP2 PUSH3 0x461BCD PUSH1 0xE5 SHL DUP4 MSTORE DUP3 ADD MSTORE PUSH1 0x11 PUSH1 0x24 DUP3 ADD MSTORE PUSH17 0x496E76616C696420616464726573736573 PUSH1 0x78 SHL PUSH1 0x44 DUP3 ADD MSTORE REVERT JUMPDEST POP DUP2 DUP5 AND ISZERO ISZERO PUSH2 0xDD6 JUMP JUMPDEST DUP3 CALLVALUE PUSH2 0x142 JUMPI PUSH1 0x20 CALLDATASIZE PUSH1 0x3 NOT ADD SLT PUSH2 0x142 JUMPI CALLDATALOAD SWAP1 PUSH4 0xFFFFFFFF PUSH1 0xE0 SHL DUP3 AND DUP1 SWAP3 SUB PUSH2 0x142 JUMPI PUSH1 0x20 SWAP2 PUSH4 0x7965DB0B PUSH1 0xE0 SHL DUP2 EQ SWAP1 DUP2 ISZERO PUSH2 0xF2A JUMPI JUMPDEST POP ISZERO ISZERO DUP2 MSTORE RETURN JUMPDEST PUSH4 0x1FFC9A7 PUSH1 0xE0 SHL EQ SWAP1 POP DUP4 PUSH2 0xF23 JUMP JUMPDEST PUSH1 0x4 CALLDATALOAD SWAP1 PUSH1 0x1 PUSH1 0x1 PUSH1 0xA0 SHL SUB DUP3 AND DUP3 SUB PUSH2 0x142 JUMPI JUMP JUMPDEST PUSH1 0x24 CALLDATALOAD SWAP1 PUSH1 0x1 PUSH1 0x1 PUSH1 0xA0 SHL SUB DUP3 AND DUP3 SUB PUSH2 0x142 JUMPI JUMP JUMPDEST SWAP1 PUSH1 0x2 DUP3 LT ISZERO PUSH2 0xF74 JUMPI MSTORE JUMP JUMPDEST PUSH4 0x4E487B71 PUSH1 0xE0 SHL PUSH0 MSTORE PUSH1 0x21 PUSH1 0x4 MSTORE PUSH1 0x24 PUSH0 REVERT JUMPDEST ISZERO PUSH2 0xF8F JUMPI JUMP JUMPDEST PUSH1 0x40 MLOAD PUSH3 0x461BCD PUSH1 0xE5 SHL DUP2 MSTORE PUSH1 0x20 PUSH1 0x4 DUP3 ADD MSTORE PUSH1 0x13 PUSH1 0x24 DUP3 ADD MSTORE PUSH19 0x141BDBDB081B9BDD081C9959DA5CDD195C9959 PUSH1 0x6A SHL PUSH1 0x44 DUP3 ADD MSTORE PUSH1 0x64 SWAP1 REVERT JUMPDEST PUSH2 0x140 DUP2 ADD SWAP1 DUP2 LT PUSH8 0xFFFFFFFFFFFFFFFF DUP3 GT OR PUSH2 0xFE7 JUMPI PUSH1 0x40 MSTORE JUMP JUMPDEST PUSH4 0x4E487B71 PUSH1 0xE0 SHL PUSH0 MSTORE PUSH1 0x41 PUSH1 0x4 MSTORE PUSH1 0x24 PUSH0 REVERT JUMPDEST PUSH1 0x2 DUP3 LT ISZERO PUSH2 0xF74 JUMPI MSTORE JUMP JUMPDEST PUSH1 0x3 SLOAD DUP2 LT ISZERO PUSH2 0x103C JUMPI PUSH1 0x3 PUSH0 MSTORE PUSH32 0xC2575A0E9E593C00F959F8C92F12DB2869C3395A3B0502D05E2516446F71F85B ADD SWAP1 PUSH0 SWAP1 JUMP JUMPDEST PUSH4 0x4E487B71 PUSH1 0xE0 SHL PUSH0 MSTORE PUSH1 0x32 PUSH1 0x4 MSTORE PUSH1 0x24 PUSH0 REVERT JUMPDEST DUP1 SLOAD DUP3 LT ISZERO PUSH2 0x103C JUMPI PUSH0 MSTORE PUSH1 0x20 PUSH0 KECCAK256 ADD SWAP1 PUSH0 SWAP1 JUMP JUMPDEST CALLER PUSH0 SWAP1 DUP2 MSTORE PUSH32 0x729EF9451DD492832BD2A98139702CED95DFA0CEC7E99526DBBCB957ABCBC476 PUSH1 0x20 MSTORE PUSH1 0x40 SWAP1 KECCAK256 SLOAD PUSH0 DUP1 MLOAD PUSH1 0x20 PUSH2 0x1304 DUP4 CODECOPY DUP2 MLOAD SWAP2 MSTORE SWAP1 PUSH1 0xFF AND ISZERO PUSH2 0x10AD JUMPI POP JUMP JUMPDEST PUSH1 0x44 SWAP1 PUSH1 0x40 MLOAD SWAP1 PUSH4 0xE2517D3F PUSH1 0xE0 SHL DUP3 MSTORE CALLER PUSH1 0x4 DUP4 ADD MSTORE PUSH1 0x24 DUP3 ADD MSTORE REVERT JUMPDEST DUP1 PUSH0 MSTORE PUSH0 PUSH1 0x20 MSTORE PUSH1 0x40 PUSH0 KECCAK256 CALLER PUSH0 MSTORE PUSH1 0x20 MSTORE PUSH1 0xFF PUSH1 0x40 PUSH0 KECCAK256 SLOAD AND ISZERO PUSH2 0x10AD JUMPI POP JUMP JUMPDEST PUSH1 0x1 PUSH1 0x1 PUSH1 0xA0 SHL SUB AND PUSH0 DUP2 DUP2 MSTORE PUSH32 0x729EF9451DD492832BD2A98139702CED95DFA0CEC7E99526DBBCB957ABCBC476 PUSH1 0x20 MSTORE PUSH1 0x40 SWAP1 KECCAK256 SLOAD PUSH0 DUP1 MLOAD PUSH1 0x20 PUSH2 0x1304 DUP4 CODECOPY DUP2 MLOAD SWAP2 MSTORE SWAP2 SWAP1 PUSH1 0xFF AND PUSH2 0x1184 JUMPI DUP2 PUSH0 MSTORE PUSH0 PUSH1 0x20 MSTORE PUSH1 0x40 PUSH0 KECCAK256 DUP2 PUSH0 MSTORE PUSH1 0x20 MSTORE PUSH1 0x40 PUSH0 KECCAK256 PUSH1 0x1 PUSH1 0xFF NOT DUP3 SLOAD AND OR SWAP1 SSTORE CALLER SWAP2 PUSH32 0x2F8788117E7EFF1D82E926EC794901D17C78024A50270940304540A733656F0D PUSH0 DUP1 LOG4 PUSH1 0x1 SWAP1 JUMP JUMPDEST POP POP PUSH0 SWAP1 JUMP JUMPDEST SWAP1 DUP2 PUSH0 MSTORE PUSH0 PUSH1 0x20 MSTORE PUSH1 0x40 PUSH0 KECCAK256 SWAP1 PUSH1 0x1 DUP1 PUSH1 0xA0 SHL SUB AND SWAP1 DUP2 PUSH0 MSTORE PUSH1 0x20 MSTORE PUSH1 0xFF PUSH1 0x40 PUSH0 KECCAK256 SLOAD AND ISZERO PUSH0 EQ PUSH2 0x1184 JUMPI DUP2 PUSH0 MSTORE PUSH0 PUSH1 0x20 MSTORE PUSH1 0x40 PUSH0 KECCAK256 DUP2 PUSH0 MSTORE PUSH1 0x20 MSTORE PUSH1 0x40 PUSH0 KECCAK256 PUSH1 0x1 PUSH1 0xFF NOT DUP3 SLOAD AND OR SWAP1 SSTORE CALLER SWAP2 PUSH32 0x2F8788117E7EFF1D82E926EC794901D17C78024A50270940304540A733656F0D PUSH0 DUP1 LOG4 PUSH1 0x1 SWAP1 JUMP JUMPDEST SWAP1 DUP2 PUSH0 MSTORE PUSH0 PUSH1 0x20 MSTORE PUSH1 0x40 PUSH0 KECCAK256 SWAP1 PUSH1 0x1 DUP1 PUSH1 0xA0 SHL SUB AND SWAP1 DUP2 PUSH0 MSTORE PUSH1 0x20 MSTORE PUSH1 0xFF PUSH1 0x40 PUSH0 KECCAK256 SLOAD AND PUSH0 EQ PUSH2 0x1184 JUMPI DUP2 PUSH0 MSTORE PUSH0 PUSH1 0x20 MSTORE PUSH1 0x40 PUSH0 KECCAK256 DUP2 PUSH0 MSTORE PUSH1 0x20 MSTORE PUSH1 0x40 PUSH0 KECCAK256 PUSH1 0xFF NOT DUP2 SLOAD AND SWAP1 SSTORE CALLER SWAP2 PUSH32 0xF6391F5C32D9C69D2A47EA670B442974B53935D1EDC7FD64EB21E047A839171B PUSH0 DUP1 LOG4 PUSH1 0x1 SWAP1 JUMP JUMPDEST PUSH0 SWAP1 PUSH1 0x3 DUP1 SLOAD SWAP3 JUMPDEST DUP4 DUP2 LT PUSH2 0x128A JUMPI POP POP POP POP PUSH0 NOT SWAP1 JUMP JUMPDEST PUSH2 0x1293 DUP2 PUSH2 0x1007 JUMP JUMPDEST SWAP1 SLOAD SWAP1 DUP4 SHL SHR PUSH1 0x1 PUSH1 0x1 PUSH1 0xA0 SHL SUB SWAP1 DUP2 AND SWAP1 DUP5 AND EQ PUSH2 0x12B4 JUMPI PUSH1 0x1 ADD PUSH2 0x127A JUMP JUMPDEST SWAP3 POP POP POP SWAP1 JUMP JUMPDEST SWAP1 PUSH0 JUMPDEST DUP3 SLOAD DUP2 LT ISZERO PUSH2 0x12FB JUMPI PUSH2 0x12D1 DUP2 DUP5 PUSH2 0x1050 JUMP JUMPDEST SWAP1 SLOAD PUSH1 0x3 SWAP2 SWAP1 SWAP2 SHL SHR PUSH1 0x1 PUSH1 0x1 PUSH1 0xA0 SHL SUB SWAP1 DUP2 AND SWAP1 DUP4 AND EQ PUSH2 0x12F5 JUMPI PUSH1 0x1 ADD PUSH2 0x12BE JUMP JUMPDEST SWAP2 POP POP SWAP1 JUMP JUMPDEST POP POP POP PUSH0 NOT SWAP1 JUMP INVALID PUSH1 0x77 PUSH9 0x5936C8169D09204A1D SWAP8 0xDB SLT 0xE4 OR SGT PC DUP13 CODESIZE 0xE1 0xD2 SWAP11 PUSH2 0x867D RETURNDATASIZE 0xCE 0xE9 DUP11 SELFDESTRUCT LOG2 PUSH5 0x6970667358 0x22 SLT KECCAK256 0xEE 0x4C 0x1F 0xEC DUP5 0xC6 SAR 0xDE 0x24 OR 0x4D BASEFEE 0x4C SWAP7 LOG1 DUP16 CHAINID SHL 0xC0 LOG4 TIMESTAMP EXTCODEHASH 0x4B 0x2D PUSH1 0x14 0xC3 0x28 GASPRICE 0x2B SELFDESTRUCT BALANCE PUSH5 0x736F6C6343 STOP ADDMOD NOT STOP CALLER 0x2F DUP8 DUP9 GT PUSH31 0x7EFF1D82E926EC794901D17C78024A50270940304540A733656F0DAD3228B6 PUSH23 0xF7D3CD4284A5443F17F1962B36E491B30A40B2405849E5 SWAP8 0xBA PUSH0 0xB5 "
				},
				"gasEstimates": {
					"creation": {
						"codeDepositCost": "990600",
						"executionCost": "infinite",
						"totalCost": "infinite"
					},
					"external": {
						"DEFAULT_ADMIN_ROLE()": "488",
						"POOL_MANAGER_ROLE()": "389",
						"deregisterPool(address)": "infinite",
						"getManagers()": "4768",
						"getPoolDetails(address)": "infinite",
						"getPoolsByLender(address)": "infinite",
						"getRoleAdmin(bytes32)": "2441",
						"getTotalPools()": "2680",
						"getVaultForPool(address)": "4853",
						"grantFactoryAccess(address)": "infinite",
						"grantRole(bytes32,address)": "33355",
						"hasRole(bytes32,address)": "2800",
						"poolVaults(address)": "2484",
						"registerManagers(address,address)": "52756",
						"registerPool(address,address,address,address,address,address,uint256,uint256,uint256,uint8)": "infinite",
						"registerVault(address,address)": "infinite",
						"renounceRole(bytes32,address)": "28964",
						"revokeRole(bytes32,address)": "33627",
						"rewardManager()": "2330",
						"supportsInterface(bytes4)": "276",
						"vaultManager()": "2572"
					},
					"internal": {
						"_removePoolFromLenderArray(address,address)": "infinite",
						"_removePoolFromMainArray(address)": "infinite",
						"findIndexInArray(address[] storage pointer,address)": "infinite"
					}
				},
				"methodIdentifiers": {
					"DEFAULT_ADMIN_ROLE()": "a217fddf",
					"POOL_MANAGER_ROLE()": "56d73568",
					"deregisterPool(address)": "7e72c7d7",
					"getManagers()": "a8d088bb",
					"getPoolDetails(address)": "d3e90fa0",
					"getPoolsByLender(address)": "24a44efb",
					"getRoleAdmin(bytes32)": "248a9ca3",
					"getTotalPools()": "d3ffe67a",
					"getVaultForPool(address)": "7570e389",
					"grantFactoryAccess(address)": "5d102df7",
					"grantRole(bytes32,address)": "2f2ff15d",
					"hasRole(bytes32,address)": "91d14854",
					"poolVaults(address)": "1e4966ab",
					"registerManagers(address,address)": "c489579d",
					"registerPool(address,address,address,address,address,address,uint256,uint256,uint256,uint8)": "2437769a",
					"registerVault(address,address)": "05c4fdf9",
					"renounceRole(bytes32,address)": "36568abe",
					"revokeRole(bytes32,address)": "d547741f",
					"rewardManager()": "0f4ef8a6",
					"supportsInterface(bytes4)": "01ffc9a7",
					"vaultManager()": "8a4adf24"
				}
			},
			"storageLayout": {
				"storage": [
					{
						"astId": 26,
						"contract": "contracts/contracts/protocol/PoolOrganizer.sol:PoolOrganizer",
						"label": "_roles",
						"offset": 0,
						"slot": "0",
						"type": "t_mapping(t_bytes32,t_struct(RoleData)21_storage)"
					},
					{
						"astId": 626,
						"contract": "contracts/contracts/protocol/PoolOrganizer.sol:PoolOrganizer",
						"label": "vaultManager",
						"offset": 0,
						"slot": "1",
						"type": "t_contract(IVaultManager)607"
					},
					{
						"astId": 629,
						"contract": "contracts/contracts/protocol/PoolOrganizer.sol:PoolOrganizer",
						"label": "rewardManager",
						"offset": 0,
						"slot": "2",
						"type": "t_contract(IRewardManager)569"
					},
					{
						"astId": 632,
						"contract": "contracts/contracts/protocol/PoolOrganizer.sol:PoolOrganizer",
						"label": "pools",
						"offset": 0,
						"slot": "3",
						"type": "t_array(t_address)dyn_storage"
					},
					{
						"astId": 637,
						"contract": "contracts/contracts/protocol/PoolOrganizer.sol:PoolOrganizer",
						"label": "poolDetails",
						"offset": 0,
						"slot": "4",
						"type": "t_mapping(t_address,t_struct(PoolDetails)471_storage)"
					},
					{
						"astId": 642,
						"contract": "contracts/contracts/protocol/PoolOrganizer.sol:PoolOrganizer",
						"label": "lenderPools",
						"offset": 0,
						"slot": "5",
						"type": "t_mapping(t_address,t_array(t_address)dyn_storage)"
					},
					{
						"astId": 646,
						"contract": "contracts/contracts/protocol/PoolOrganizer.sol:PoolOrganizer",
						"label": "poolVaults",
						"offset": 0,
						"slot": "6",
						"type": "t_mapping(t_address,t_address)"
					}
				],
				"types": {
					"t_address": {
						"encoding": "inplace",
						"label": "address",
						"numberOfBytes": "20"
					},
					"t_array(t_address)dyn_storage": {
						"base": "t_address",
						"encoding": "dynamic_array",
						"label": "address[]",
						"numberOfBytes": "32"
					},
					"t_bool": {
						"encoding": "inplace",
						"label": "bool",
						"numberOfBytes": "1"
					},
					"t_bytes32": {
						"encoding": "inplace",
						"label": "bytes32",
						"numberOfBytes": "32"
					},
					"t_contract(IRewardManager)569": {
						"encoding": "inplace",
						"label": "contract IRewardManager",
						"numberOfBytes": "20"
					},
					"t_contract(IVaultManager)607": {
						"encoding": "inplace",
						"label": "contract IVaultManager",
						"numberOfBytes": "20"
					},
					"t_enum(PoolType)449": {
						"encoding": "inplace",
						"label": "enum IPoolOrganizer.PoolType",
						"numberOfBytes": "1"
					},
					"t_mapping(t_address,t_address)": {
						"encoding": "mapping",
						"key": "t_address",
						"label": "mapping(address => address)",
						"numberOfBytes": "32",
						"value": "t_address"
					},
					"t_mapping(t_address,t_array(t_address)dyn_storage)": {
						"encoding": "mapping",
						"key": "t_address",
						"label": "mapping(address => address[])",
						"numberOfBytes": "32",
						"value": "t_array(t_address)dyn_storage"
					},
					"t_mapping(t_address,t_bool)": {
						"encoding": "mapping",
						"key": "t_address",
						"label": "mapping(address => bool)",
						"numberOfBytes": "32",
						"value": "t_bool"
					},
					"t_mapping(t_address,t_struct(PoolDetails)471_storage)": {
						"encoding": "mapping",
						"key": "t_address",
						"label": "mapping(address => struct IPoolOrganizer.PoolDetails)",
						"numberOfBytes": "32",
						"value": "t_struct(PoolDetails)471_storage"
					},
					"t_mapping(t_bytes32,t_struct(RoleData)21_storage)": {
						"encoding": "mapping",
						"key": "t_bytes32",
						"label": "mapping(bytes32 => struct AccessControl.RoleData)",
						"numberOfBytes": "32",
						"value": "t_struct(RoleData)21_storage"
					},
					"t_struct(PoolDetails)471_storage": {
						"encoding": "inplace",
						"label": "struct IPoolOrganizer.PoolDetails",
						"members": [
							{
								"astId": 451,
								"contract": "contracts/contracts/protocol/PoolOrganizer.sol:PoolOrganizer",
								"label": "lender",
								"offset": 0,
								"slot": "0",
								"type": "t_address"
							},
							{
								"astId": 453,
								"contract": "contracts/contracts/protocol/PoolOrganizer.sol:PoolOrganizer",
								"label": "borrower",
								"offset": 0,
								"slot": "1",
								"type": "t_address"
							},
							{
								"astId": 455,
								"contract": "contracts/contracts/protocol/PoolOrganizer.sol:PoolOrganizer",
								"label": "creationTime",
								"offset": 0,
								"slot": "2",
								"type": "t_uint256"
							},
							{
								"astId": 457,
								"contract": "contracts/contracts/protocol/PoolOrganizer.sol:PoolOrganizer",
								"label": "vault",
								"offset": 0,
								"slot": "3",
								"type": "t_address"
							},
							{
								"astId": 459,
								"contract": "contracts/contracts/protocol/PoolOrganizer.sol:PoolOrganizer",
								"label": "loanToken",
								"offset": 0,
								"slot": "4",
								"type": "t_address"
							},
							{
								"astId": 461,
								"contract": "contracts/contracts/protocol/PoolOrganizer.sol:PoolOrganizer",
								"label": "assetToken",
								"offset": 0,
								"slot": "5",
								"type": "t_address"
							},
							{
								"astId": 463,
								"contract": "contracts/contracts/protocol/PoolOrganizer.sol:PoolOrganizer",
								"label": "loanAmount",
								"offset": 0,
								"slot": "6",
								"type": "t_uint256"
							},
							{
								"astId": 465,
								"contract": "contracts/contracts/protocol/PoolOrganizer.sol:PoolOrganizer",
								"label": "interestRate",
								"offset": 0,
								"slot": "7",
								"type": "t_uint256"
							},
							{
								"astId": 467,
								"contract": "contracts/contracts/protocol/PoolOrganizer.sol:PoolOrganizer",
								"label": "repaymentPeriod",
								"offset": 0,
								"slot": "8",
								"type": "t_uint256"
							},
							{
								"astId": 470,
								"contract": "contracts/contracts/protocol/PoolOrganizer.sol:PoolOrganizer",
								"label": "poolType",
								"offset": 0,
								"slot": "9",
								"type": "t_enum(PoolType)449"
							}
						],
						"numberOfBytes": "320"
					},
					"t_struct(RoleData)21_storage": {
						"encoding": "inplace",
						"label": "struct AccessControl.RoleData",
						"members": [
							{
								"astId": 18,
								"contract": "contracts/contracts/protocol/PoolOrganizer.sol:PoolOrganizer",
								"label": "hasRole",
								"offset": 0,
								"slot": "0",
								"type": "t_mapping(t_address,t_bool)"
							},
							{
								"astId": 20,
								"contract": "contracts/contracts/protocol/PoolOrganizer.sol:PoolOrganizer",
								"label": "adminRole",
								"offset": 0,
								"slot": "1",
								"type": "t_bytes32"
							}
						],
						"numberOfBytes": "64"
					},
					"t_uint256": {
						"encoding": "inplace",
						"label": "uint256",
						"numberOfBytes": "32"
					}
				}
			},
			"userdoc": {
				"kind": "user",
				"methods": {
					"deregisterPool(address)": {
						"notice": "Deregisters a pool from the organizer."
					},
					"getManagers()": {
						"notice": "Returns the addresses of the VaultManager and RewardManager."
					},
					"getPoolDetails(address)": {
						"notice": "Retrieves details for a specific pool."
					},
					"getPoolsByLender(address)": {
						"notice": "Retrieves all pools associated with a specific lender."
					},
					"getTotalPools()": {
						"notice": "Retrieves the total number of registered pools."
					},
					"getVaultForPool(address)": {
						"notice": "Retrieves the vault associated with a specific pool."
					},
					"grantFactoryAccess(address)": {
						"notice": "Grants factory access to manage pools."
					},
					"registerManagers(address,address)": {
						"notice": "Registers the manager contracts for managing vaults and rewards."
					},
					"registerPool(address,address,address,address,address,address,uint256,uint256,uint256,uint8)": {
						"notice": "Registers a new pool within the organizer."
					},
					"registerVault(address,address)": {
						"notice": "Registers a vault for a given pool."
					}
				},
				"version": 1
			}
		}
	}
}