{
	"data": {
		"bytecode": {
			"linkReferences": {},
			"object": "6080604052346200003257620000153362000036565b506200002133620000b4565b50604051611acf9081620001558239f35b5f80fd5b6001600160a01b03165f8181527fad3228b676f7d3cd4284a5443f17f1962b36e491b30a40b2405849e597ba5fb5602052604081205490919060ff16620000b057818052816020526040822081835260205260408220600160ff1982541617905533915f8051602062001c248339815191528180a4600190565b5090565b6001600160a01b03165f8181527f729ef9451dd492832bd2a98139702ced95dfa0cec7e99526dbbcb957abcbc47660205260408120549091907f6077685936c8169d09204a1d97db12e41713588c38e1d29a61867d3dcee98aff9060ff166200014f57808352826020526040832082845260205260408320600160ff198254161790555f8051602062001c24833981519152339380a4600190565b50509056fe6080806040526004361015610012575f80fd5b5f3560e01c90816301ffc9a7146113c95750806305c4fdf91461127a5780630f4ef8a6146112525780631e4966ab146112195780631f2f2e14146111b2578063248a9ca31461118657806324a44efb146110d95780632f2ff15d1461109d57806336568abe1461105657806337e238c514610ea25780634375602014610b1357806352fc9b0e146109d557806356d73568146109ae5780635d102df7146108ef5780637570e3891461084f5780637e72c7d7146106515780638a4adf241461062957806391d14854146105e1578063a217fddf146105c7578063a8d088bb14610594578063c489579d14610401578063d3e90fa014610302578063d3ffe67a146102e5578063d547741f146102a75763da7be20b1461012f575f80fd5b346102a3576020806003193601126102a3576001600160a01b038061015261141c565b165f5260079182815260405f20916040518084848296549384815201905f52845f20925f5b8682821061028b5750505061018e925003846117eb565b610198835161194f565b935f5b84518110156102795780836101b361027493886119ac565b51165f526004855260405f20604051906101cc826117ce565b8581541682528560018201541687830152600281015460408301528560038201541660608301528560048201541660808301528560058201541660a08301528560068201541660c08301528481015460e0830152600a600891828101546101008501526009810154610120850152015460ff9161024f838316610140860161180d565b1c16151561016082015261026382896119ac565b5261026e81886119ac565b5061199e565b61019b565b6040518061028788826114e8565b0390f35b85548716845260019586019589955093019201610177565b5f80fd5b346102a35760403660031901126102a3576102e36004356102c6611432565b90805f525f6020526102de600160405f200154611596565b61175b565b005b346102a3575f3660031901126102a3576020600354604051908152f35b346102a35760203660031901126102a35761018061031e61141c565b6103266118f6565b506001600160a01b039081165f8181526004602052604090205461034d908316151561189c565b5f52600460205260ff600a60405f2060405193610369856117ce565b808254168552806001830154166020860152600282015460408601528060038301541660608601528060048301541660808601528060058301541660a086015260068201541660c0850152600781015460e08501526008810154610100850152600981015461012085015201546103e6828216610140850161180d565b60081c1615156101608201526103ff6040518092611455565bf35b346102a35760403660031901126102a35761041a61141c565b610422611432565b335f9081527fad3228b676f7d3cd4284a5443f17f1962b36e491b30a40b2405849e597ba5fb5602052604090205460ff1615610576576001600160a01b038281169290831561052557821680156104d457600180546001600160a01b03199081169590951790556002805490941617909255604080516001600160a01b0393841681529190921660208201527f8fc18cc172f74c81235145b7927190d2bd0e351fc45bfb17bb572593273cef219190a1005b60405162461bcd60e51b8152602060048201526024808201527f5265776172644d616e616765722063616e6e6f74206265207a65726f206164646044820152637265737360e01b6064820152608490fd5b60405162461bcd60e51b815260206004820152602360248201527f5661756c744d616e616765722063616e6e6f74206265207a65726f206164647260448201526265737360e81b6064820152608490fd5b60405163e2517d3f60e01b81523360048201525f6024820152604490fd5b346102a3575f3660031901126102a357600154600254604080516001600160a01b03938416815292909116602083015290f35b346102a3575f3660031901126102a35760206040515f8152f35b346102a35760403660031901126102a3576105fa611432565b6004355f525f60205260405f209060018060a01b03165f52602052602060ff60405f2054166040519015158152f35b346102a3575f3660031901126102a3576001546040516001600160a01b039091168152602090f35b346102a3576020806003193601126102a35761066b61141c565b90610674611530565b60018060a01b039081831692835f52600482526106988360405f205416151561189c565b835f52600482528260405f205416805f526005938484526106bc8360405f20611a2b565b825f5285855260405f2054935f199384860195861161083b5761072d61074393856106f361070699855f528c8c5260405f20611862565b99905492855f528c8c5260405f20611862565b91909260039a8b1b1c169082549060031b9160018060a01b03809116831b921b1916179055565b5f5286865261073e60405f206119c0565b6119dc565b835483810190811161083b5761078b9261075f61076c92611819565b905490871b1c1691611819565b90919082549060031b9160018060a01b03809116831b921b1916179055565b8154938415610827576004600a945f96938794016107c06107ab82611819565b81549060018060a01b039060031b1b19169055565b85558784525281604081209381855581600186015581600286015584015581600484015582015582600682015582600782015582600882015582600982015501557f334d0b2111287dfddebe4b4c1c5af3ae644909d7fcd024377bf601e236ed5abb5f80a2005b634e487b7160e01b5f52603160045260245ffd5b634e487b7160e01b5f52601160045260245ffd5b346102a35760203660031901126102a3576001600160a01b038061087161141c565b1690815f5260066020528060405f2054161561089e576020915f526006825260405f205416604051908152f35b60405162461bcd60e51b815260206004820152602360248201527f506f6f6c206e6f742072656769737465726564206f7220686173206e6f2076616044820152621d5b1d60ea1b6064820152608490fd5b346102a3576020806003193601126102a35761090961141c565b5f80525f825260405f20335f52825260ff60405f20541615610970575f6102e3925f80516020611a7a833981519152825281815261094d6001604084200154611596565b610956836115b7565b508180525261096b600160405f200154611596565b611655565b60405162461bcd60e51b815260048101839052601660248201527521b0b63632b91034b9903737ba1030b71030b236b4b760511b6044820152606490fd5b346102a3575f3660031901126102a35760206040515f80516020611a7a8339815191528152f35b346102a3576020806003193601126102a3576001600160a01b0390816109f961141c565b165f5260059081815260405f20916040518084848296549384815201905f52845f20925f5b86828210610afb57505050610a35925003846117eb565b610a3f835161194f565b935f5b8451811015610279578082610a5a610af693886119ac565b51165f526004855260405f2060405190610a73826117ce565b84815416825284600182015416878301526002810154604083015284600382015416606083015284600482015416608083015284868201541660a08301528460068201541660c0830152600781015460e0830152600a600891828101546101008501526009810154610120850152015460ff9161024f838316610140860161180d565b610a42565b85548a16845260019586019589955093019201610a1e565b346102a3576101603660031901126102a357610b2d61141c565b610b35611432565b906044356001600160a01b03811681036102a357606435906001600160a01b03821682036102a3576084356001600160a01b03811681036102a35760a4356001600160a01b03811681036102a35760c435906001600160a01b03821682036102a35760026101443510156102a357610bab611530565b6001600160a01b03861615610e5d576001600160a01b038681165f9081526004602052604090205416610e185760405192610be5846117ce565b6001600160a01b03888116855285811660208601524260408601528681166060860152908116608085015290811660a08401521660c082015260e43560e08201526101043561010082015261012435610120820152610c4b61014435610140830161180d565b5f61016082015260018060a01b0384165f526004602052600a60405f2060018060a01b038351166001600160601b0360a01b90818354161782556001820160018060a01b0360208601511682825416179055604084015160028301556003820160018060a01b03606086015116828254161790556004820160018060a01b03608086015116828254161790556005820160018060a01b0360a08601511682825416179055600682019060018060a01b0360c0860151169082541617905560e08301516007820155610100830151600882015561012083015160098201550190610140810151906002821015610e045760ff61ff006101608554930151151560081b1692169061ffff19161717905560018060a01b0384165f526005602052610d768360405f20611877565b600354600160401b811015610df0577f8f723e49dc038e67c41b41307a1e0c65653d50125a0c474a21ac32d9a0b24d2b91610dbd8561076c84600160409601600355611819565b81516001600160a01b039094168452610ddc6020850161014435611448565b6001600160a01b03908116958116941692a4005b634e487b7160e01b5f52604160045260245ffd5b634e487b7160e01b5f52602160045260245ffd5b60405162461bcd60e51b815260206004820152601760248201527f506f6f6c20616c726561647920726567697374657265640000000000000000006044820152606490fd5b60405162461bcd60e51b815260206004820152601b60248201527f506f6f6c20616464726573732063616e6e6f74206265207a65726f00000000006044820152606490fd5b346102a35760403660031901126102a357610ebb61141c565b610ec3611432565b90610ecc611530565b60018060a01b0391828216805f528360209260048452610ef38260405f205416151561189c565b1693841561100557815f526004835280600160405f20015416858103610f1557005b80610f53575b5050610f33600493855f526007845260405f20611877565b5f5252600160405f2001906001600160601b0360a01b8254161790555f80f35b805f5260078452610f678560405f20611a2b565b90805f526007855260405f205492838310610f84575b5050610f1b565b5f198401969293871161083b57610fc6610f3394610feb92610fb260049a865f5260078b5260405f20611862565b93905492865f5260078b5260405f20611862565b92909360031b1c169082549060031b9160018060a01b03809116831b921b1916179055565b5f5260078452610ffd60405f206119c0565b938680610f7d565b60405162461bcd60e51b815260048101849052602360248201527f426f72726f7765722063616e6e6f7420626520746865207a65726f206164647260448201526265737360e81b6064820152608490fd5b346102a35760403660031901126102a35761106f611432565b336001600160a01b0382160361108b576102e39060043561175b565b60405163334bd91960e11b8152600490fd5b346102a35760403660031901126102a3576102e36004356110bc611432565b90805f525f6020526110d4600160405f200154611596565b6116e4565b346102a3576020806003193601126102a3576001600160a01b0390816110fd61141c565b165f526005815260405f20604051918281835491828152019081935f52825f20905f5b81811061117057505050836111369103846117eb565b6040519281840190828552518091526040840192915f5b82811061115a5785850386f35b835187168552938101939281019260010161114d565b8254881684529284019260019283019201611120565b346102a35760203660031901126102a3576004355f525f6020526020600160405f200154604051908152f35b346102a35760203660031901126102a3576111cb61141c565b6111d3611530565b6001600160a01b039081165f8181526004602052604090205490916111fa9116151561189c565b5f908152600460205260409020600a01805461ff001916610100179055005b346102a35760203660031901126102a35760206001600160a01b038061123d61141c565b165f526006825260405f205416604051908152f35b346102a3575f3660031901126102a3576002546040516001600160a01b039091168152602090f35b346102a35760403660031901126102a35761129361141c565b61129b611432565b906112a4611530565b6001600160a01b0390811690811515806113be575b1561138557815f5260046020526112d78160405f205416151561189c565b815f5260066020528060405f20541661133157815f52600660205260405f20921691826001600160601b0360a01b8254161790557ff8ee9039d8e4d43426638703c71517008894fdea742bb2d2dbff5a46fb07abdb5f80a3005b60405162461bcd60e51b815260206004820152602660248201527f5661756c7420616c7265616479207265676973746572656420666f72207468696044820152651cc81c1bdbdb60d21b6064820152608490fd5b60405162461bcd60e51b8152602060048201526011602482015270496e76616c69642061646472657373657360781b6044820152606490fd5b5080831615156112b9565b346102a35760203660031901126102a3576004359063ffffffff60e01b82168092036102a357602091637965db0b60e01b811490811561140b575b5015158152f35b6301ffc9a760e01b14905083611404565b600435906001600160a01b03821682036102a357565b602435906001600160a01b03821682036102a357565b906002821015610e045752565b60018060a01b03808251168352806020830151166020840152604082015160408401528060608301511660608401528060808301511660808401528060a08301511660a084015260c08201511660c083015260e081015160e0830152610100808201519083015261012080820151908301526114da6101408083015190840190611448565b610160809101511515910152565b602090816040818301928281528551809452019301915f5b82811061150e575050505090565b9091929382610180826115246001948951611455565b01950193929101611500565b335f9081527f729ef9451dd492832bd2a98139702ced95dfa0cec7e99526dbbcb957abcbc47660205260409020545f80516020611a7a8339815191529060ff16156115785750565b6044906040519063e2517d3f60e01b82523360048301526024820152fd5b805f525f60205260405f20335f5260205260ff60405f205416156115785750565b6001600160a01b03165f8181527f729ef9451dd492832bd2a98139702ced95dfa0cec7e99526dbbcb957abcbc47660205260408120549091905f80516020611a7a8339815191529060ff1661165057808352826020526040832082845260205260408320600160ff198254161790557f2f8788117e7eff1d82e926ec794901d17c78024a50270940304540a733656f0d339380a4600190565b505090565b6001600160a01b03165f8181527fad3228b676f7d3cd4284a5443f17f1962b36e491b30a40b2405849e597ba5fb5602052604081205490919060ff166116e057818052816020526040822081835260205260408220600160ff1982541617905533917f2f8788117e7eff1d82e926ec794901d17c78024a50270940304540a733656f0d8180a4600190565b5090565b905f9180835282602052604083209160018060a01b03169182845260205260ff604084205416155f1461165057808352826020526040832082845260205260408320600160ff198254161790557f2f8788117e7eff1d82e926ec794901d17c78024a50270940304540a733656f0d339380a4600190565b905f9180835282602052604083209160018060a01b03169182845260205260ff6040842054165f146116505780835282602052604083208284526020526040832060ff1981541690557ff6391f5c32d9c69d2a47ea670b442974b53935d1edc7fd64eb21e047a839171b339380a4600190565b610180810190811067ffffffffffffffff821117610df057604052565b90601f8019910116810190811067ffffffffffffffff821117610df057604052565b6002821015610e045752565b60035481101561184e5760035f527fc2575a0e9e593c00f959f8c92f12db2869c3395a3b0502d05e2516446f71f85b01905f90565b634e487b7160e01b5f52603260045260245ffd5b805482101561184e575f5260205f2001905f90565b90815491600160401b831015610df0578261076c91600161189a95018155611862565b565b156118a357565b60405162461bcd60e51b8152602060048201526013602482015272141bdbdb081b9bdd081c9959da5cdd195c9959606a1b6044820152606490fd5b67ffffffffffffffff8111610df05760051b60200190565b60405190611903826117ce565b816101605f918281528260208201528260408201528260608201528260808201528260a08201528260c08201528260e08201528261010082015282610120820152826101408201520152565b90611959826118de565b61196660405191826117eb565b8281528092611977601f19916118de565b01905f5b82811061198757505050565b6020906119926118f6565b8282850101520161197b565b5f19811461083b5760010190565b805182101561184e5760209160051b010190565b80548015610827575f1901906119d96107ab8383611862565b55565b5f9060038054925b8381106119f457505050505f1990565b6119fd81611819565b905490831b1c6001600160a01b0390811690841614611a2457611a1f9061199e565b6119e4565b9250505090565b905f5b8254811015611a7157611a418184611862565b905460039190911b1c6001600160a01b0390811690831614611a6b57611a669061199e565b611a2e565b91505090565b5050505f199056fe6077685936c8169d09204a1d97db12e41713588c38e1d29a61867d3dcee98affa2646970667358221220a497a7f716fbadce4f1fcc726161983bb8477e214d52ff1b9e67f517220e08e964736f6c634300081400332f8788117e7eff1d82e926ec794901d17c78024a50270940304540a733656f0d",
			"opcodes": "PUSH1 0x80 PUSH1 0x40 MSTORE CALLVALUE PUSH3 0x32 JUMPI PUSH3 0x15 CALLER PUSH3 0x36 JUMP JUMPDEST POP PUSH3 0x21 CALLER PUSH3 0xB4 JUMP JUMPDEST POP PUSH1 0x40 MLOAD PUSH2 0x1ACF SWAP1 DUP2 PUSH3 0x155 DUP3 CODECOPY RETURN JUMPDEST PUSH0 DUP1 REVERT JUMPDEST PUSH1 0x1 PUSH1 0x1 PUSH1 0xA0 SHL SUB AND PUSH0 DUP2 DUP2 MSTORE PUSH32 0xAD3228B676F7D3CD4284A5443F17F1962B36E491B30A40B2405849E597BA5FB5 PUSH1 0x20 MSTORE PUSH1 0x40 DUP2 KECCAK256 SLOAD SWAP1 SWAP2 SWAP1 PUSH1 0xFF AND PUSH3 0xB0 JUMPI DUP2 DUP1 MSTORE DUP2 PUSH1 0x20 MSTORE PUSH1 0x40 DUP3 KECCAK256 DUP2 DUP4 MSTORE PUSH1 0x20 MSTORE PUSH1 0x40 DUP3 KECCAK256 PUSH1 0x1 PUSH1 0xFF NOT DUP3 SLOAD AND OR SWAP1 SSTORE CALLER SWAP2 PUSH0 DUP1 MLOAD PUSH1 0x20 PUSH3 0x1C24 DUP4 CODECOPY DUP2 MLOAD SWAP2 MSTORE DUP2 DUP1 LOG4 PUSH1 0x1 SWAP1 JUMP JUMPDEST POP SWAP1 JUMP JUMPDEST PUSH1 0x1 PUSH1 0x1 PUSH1 0xA0 SHL SUB AND PUSH0 DUP2 DUP2 MSTORE PUSH32 0x729EF9451DD492832BD2A98139702CED95DFA0CEC7E99526DBBCB957ABCBC476 PUSH1 0x20 MSTORE PUSH1 0x40 DUP2 KECCAK256 SLOAD SWAP1 SWAP2 SWAP1 PUSH32 0x6077685936C8169D09204A1D97DB12E41713588C38E1D29A61867D3DCEE98AFF SWAP1 PUSH1 0xFF AND PUSH3 0x14F JUMPI DUP1 DUP4 MSTORE DUP3 PUSH1 0x20 MSTORE PUSH1 0x40 DUP4 KECCAK256 DUP3 DUP5 MSTORE PUSH1 0x20 MSTORE PUSH1 0x40 DUP4 KECCAK256 PUSH1 0x1 PUSH1 0xFF NOT DUP3 SLOAD AND OR SWAP1 SSTORE PUSH0 DUP1 MLOAD PUSH1 0x20 PUSH3 0x1C24 DUP4 CODECOPY DUP2 MLOAD SWAP2 MSTORE CALLER SWAP4 DUP1 LOG4 PUSH1 0x1 SWAP1 JUMP JUMPDEST POP POP SWAP1 JUMP INVALID PUSH1 0x80 DUP1 PUSH1 0x40 MSTORE PUSH1 0x4 CALLDATASIZE LT ISZERO PUSH2 0x12 JUMPI PUSH0 DUP1 REVERT JUMPDEST PUSH0 CALLDATALOAD PUSH1 0xE0 SHR SWAP1 DUP2 PUSH4 0x1FFC9A7 EQ PUSH2 0x13C9 JUMPI POP DUP1 PUSH4 0x5C4FDF9 EQ PUSH2 0x127A JUMPI DUP1 PUSH4 0xF4EF8A6 EQ PUSH2 0x1252 JUMPI DUP1 PUSH4 0x1E4966AB EQ PUSH2 0x1219 JUMPI DUP1 PUSH4 0x1F2F2E14 EQ PUSH2 0x11B2 JUMPI DUP1 PUSH4 0x248A9CA3 EQ PUSH2 0x1186 JUMPI DUP1 PUSH4 0x24A44EFB EQ PUSH2 0x10D9 JUMPI DUP1 PUSH4 0x2F2FF15D EQ PUSH2 0x109D JUMPI DUP1 PUSH4 0x36568ABE EQ PUSH2 0x1056 JUMPI DUP1 PUSH4 0x37E238C5 EQ PUSH2 0xEA2 JUMPI DUP1 PUSH4 0x43756020 EQ PUSH2 0xB13 JUMPI DUP1 PUSH4 0x52FC9B0E EQ PUSH2 0x9D5 JUMPI DUP1 PUSH4 0x56D73568 EQ PUSH2 0x9AE JUMPI DUP1 PUSH4 0x5D102DF7 EQ PUSH2 0x8EF JUMPI DUP1 PUSH4 0x7570E389 EQ PUSH2 0x84F JUMPI DUP1 PUSH4 0x7E72C7D7 EQ PUSH2 0x651 JUMPI DUP1 PUSH4 0x8A4ADF24 EQ PUSH2 0x629 JUMPI DUP1 PUSH4 0x91D14854 EQ PUSH2 0x5E1 JUMPI DUP1 PUSH4 0xA217FDDF EQ PUSH2 0x5C7 JUMPI DUP1 PUSH4 0xA8D088BB EQ PUSH2 0x594 JUMPI DUP1 PUSH4 0xC489579D EQ PUSH2 0x401 JUMPI DUP1 PUSH4 0xD3E90FA0 EQ PUSH2 0x302 JUMPI DUP1 PUSH4 0xD3FFE67A EQ PUSH2 0x2E5 JUMPI DUP1 PUSH4 0xD547741F EQ PUSH2 0x2A7 JUMPI PUSH4 0xDA7BE20B EQ PUSH2 0x12F JUMPI PUSH0 DUP1 REVERT JUMPDEST CALLVALUE PUSH2 0x2A3 JUMPI PUSH1 0x20 DUP1 PUSH1 0x3 NOT CALLDATASIZE ADD SLT PUSH2 0x2A3 JUMPI PUSH1 0x1 PUSH1 0x1 PUSH1 0xA0 SHL SUB DUP1 PUSH2 0x152 PUSH2 0x141C JUMP JUMPDEST AND PUSH0 MSTORE PUSH1 0x7 SWAP2 DUP3 DUP2 MSTORE PUSH1 0x40 PUSH0 KECCAK256 SWAP2 PUSH1 0x40 MLOAD DUP1 DUP5 DUP5 DUP3 SWAP7 SLOAD SWAP4 DUP5 DUP2 MSTORE ADD SWAP1 PUSH0 MSTORE DUP5 PUSH0 KECCAK256 SWAP3 PUSH0 JUMPDEST DUP7 DUP3 DUP3 LT PUSH2 0x28B JUMPI POP POP POP PUSH2 0x18E SWAP3 POP SUB DUP5 PUSH2 0x17EB JUMP JUMPDEST PUSH2 0x198 DUP4 MLOAD PUSH2 0x194F JUMP JUMPDEST SWAP4 PUSH0 JUMPDEST DUP5 MLOAD DUP2 LT ISZERO PUSH2 0x279 JUMPI DUP1 DUP4 PUSH2 0x1B3 PUSH2 0x274 SWAP4 DUP9 PUSH2 0x19AC JUMP JUMPDEST MLOAD AND PUSH0 MSTORE PUSH1 0x4 DUP6 MSTORE PUSH1 0x40 PUSH0 KECCAK256 PUSH1 0x40 MLOAD SWAP1 PUSH2 0x1CC DUP3 PUSH2 0x17CE JUMP JUMPDEST DUP6 DUP2 SLOAD AND DUP3 MSTORE DUP6 PUSH1 0x1 DUP3 ADD SLOAD AND DUP8 DUP4 ADD MSTORE PUSH1 0x2 DUP2 ADD SLOAD PUSH1 0x40 DUP4 ADD MSTORE DUP6 PUSH1 0x3 DUP3 ADD SLOAD AND PUSH1 0x60 DUP4 ADD MSTORE DUP6 PUSH1 0x4 DUP3 ADD SLOAD AND PUSH1 0x80 DUP4 ADD MSTORE DUP6 PUSH1 0x5 DUP3 ADD SLOAD AND PUSH1 0xA0 DUP4 ADD MSTORE DUP6 PUSH1 0x6 DUP3 ADD SLOAD AND PUSH1 0xC0 DUP4 ADD MSTORE DUP5 DUP2 ADD SLOAD PUSH1 0xE0 DUP4 ADD MSTORE PUSH1 0xA PUSH1 0x8 SWAP2 DUP3 DUP2 ADD SLOAD PUSH2 0x100 DUP6 ADD MSTORE PUSH1 0x9 DUP2 ADD SLOAD PUSH2 0x120 DUP6 ADD MSTORE ADD SLOAD PUSH1 0xFF SWAP2 PUSH2 0x24F DUP4 DUP4 AND PUSH2 0x140 DUP7 ADD PUSH2 0x180D JUMP JUMPDEST SHR AND ISZERO ISZERO PUSH2 0x160 DUP3 ADD MSTORE PUSH2 0x263 DUP3 DUP10 PUSH2 0x19AC JUMP JUMPDEST MSTORE PUSH2 0x26E DUP2 DUP9 PUSH2 0x19AC JUMP JUMPDEST POP PUSH2 0x199E JUMP JUMPDEST PUSH2 0x19B JUMP JUMPDEST PUSH1 0x40 MLOAD DUP1 PUSH2 0x287 DUP9 DUP3 PUSH2 0x14E8 JUMP JUMPDEST SUB SWAP1 RETURN JUMPDEST DUP6 SLOAD DUP8 AND DUP5 MSTORE PUSH1 0x1 SWAP6 DUP7 ADD SWAP6 DUP10 SWAP6 POP SWAP4 ADD SWAP3 ADD PUSH2 0x177 JUMP JUMPDEST PUSH0 DUP1 REVERT JUMPDEST CALLVALUE PUSH2 0x2A3 JUMPI PUSH1 0x40 CALLDATASIZE PUSH1 0x3 NOT ADD SLT PUSH2 0x2A3 JUMPI PUSH2 0x2E3 PUSH1 0x4 CALLDATALOAD PUSH2 0x2C6 PUSH2 0x1432 JUMP JUMPDEST SWAP1 DUP1 PUSH0 MSTORE PUSH0 PUSH1 0x20 MSTORE PUSH2 0x2DE PUSH1 0x1 PUSH1 0x40 PUSH0 KECCAK256 ADD SLOAD PUSH2 0x1596 JUMP JUMPDEST PUSH2 0x175B JUMP JUMPDEST STOP JUMPDEST CALLVALUE PUSH2 0x2A3 JUMPI PUSH0 CALLDATASIZE PUSH1 0x3 NOT ADD SLT PUSH2 0x2A3 JUMPI PUSH1 0x20 PUSH1 0x3 SLOAD PUSH1 0x40 MLOAD SWAP1 DUP2 MSTORE RETURN JUMPDEST CALLVALUE PUSH2 0x2A3 JUMPI PUSH1 0x20 CALLDATASIZE PUSH1 0x3 NOT ADD SLT PUSH2 0x2A3 JUMPI PUSH2 0x180 PUSH2 0x31E PUSH2 0x141C JUMP JUMPDEST PUSH2 0x326 PUSH2 0x18F6 JUMP JUMPDEST POP PUSH1 0x1 PUSH1 0x1 PUSH1 0xA0 SHL SUB SWAP1 DUP2 AND PUSH0 DUP2 DUP2 MSTORE PUSH1 0x4 PUSH1 0x20 MSTORE PUSH1 0x40 SWAP1 KECCAK256 SLOAD PUSH2 0x34D SWAP1 DUP4 AND ISZERO ISZERO PUSH2 0x189C JUMP JUMPDEST PUSH0 MSTORE PUSH1 0x4 PUSH1 0x20 MSTORE PUSH1 0xFF PUSH1 0xA PUSH1 0x40 PUSH0 KECCAK256 PUSH1 0x40 MLOAD SWAP4 PUSH2 0x369 DUP6 PUSH2 0x17CE JUMP JUMPDEST DUP1 DUP3 SLOAD AND DUP6 MSTORE DUP1 PUSH1 0x1 DUP4 ADD SLOAD AND PUSH1 0x20 DUP7 ADD MSTORE PUSH1 0x2 DUP3 ADD SLOAD PUSH1 0x40 DUP7 ADD MSTORE DUP1 PUSH1 0x3 DUP4 ADD SLOAD AND PUSH1 0x60 DUP7 ADD MSTORE DUP1 PUSH1 0x4 DUP4 ADD SLOAD AND PUSH1 0x80 DUP7 ADD MSTORE DUP1 PUSH1 0x5 DUP4 ADD SLOAD AND PUSH1 0xA0 DUP7 ADD MSTORE PUSH1 0x6 DUP3 ADD SLOAD AND PUSH1 0xC0 DUP6 ADD MSTORE PUSH1 0x7 DUP2 ADD SLOAD PUSH1 0xE0 DUP6 ADD MSTORE PUSH1 0x8 DUP2 ADD SLOAD PUSH2 0x100 DUP6 ADD MSTORE PUSH1 0x9 DUP2 ADD SLOAD PUSH2 0x120 DUP6 ADD MSTORE ADD SLOAD PUSH2 0x3E6 DUP3 DUP3 AND PUSH2 0x140 DUP6 ADD PUSH2 0x180D JUMP JUMPDEST PUSH1 0x8 SHR AND ISZERO ISZERO PUSH2 0x160 DUP3 ADD MSTORE PUSH2 0x3FF PUSH1 0x40 MLOAD DUP1 SWAP3 PUSH2 0x1455 JUMP JUMPDEST RETURN JUMPDEST CALLVALUE PUSH2 0x2A3 JUMPI PUSH1 0x40 CALLDATASIZE PUSH1 0x3 NOT ADD SLT PUSH2 0x2A3 JUMPI PUSH2 0x41A PUSH2 0x141C JUMP JUMPDEST PUSH2 0x422 PUSH2 0x1432 JUMP JUMPDEST CALLER PUSH0 SWAP1 DUP2 MSTORE PUSH32 0xAD3228B676F7D3CD4284A5443F17F1962B36E491B30A40B2405849E597BA5FB5 PUSH1 0x20 MSTORE PUSH1 0x40 SWAP1 KECCAK256 SLOAD PUSH1 0xFF AND ISZERO PUSH2 0x576 JUMPI PUSH1 0x1 PUSH1 0x1 PUSH1 0xA0 SHL SUB DUP3 DUP2 AND SWAP3 SWAP1 DUP4 ISZERO PUSH2 0x525 JUMPI DUP3 AND DUP1 ISZERO PUSH2 0x4D4 JUMPI PUSH1 0x1 DUP1 SLOAD PUSH1 0x1 PUSH1 0x1 PUSH1 0xA0 SHL SUB NOT SWAP1 DUP2 AND SWAP6 SWAP1 SWAP6 OR SWAP1 SSTORE PUSH1 0x2 DUP1 SLOAD SWAP1 SWAP5 AND OR SWAP1 SWAP3 SSTORE PUSH1 0x40 DUP1 MLOAD PUSH1 0x1 PUSH1 0x1 PUSH1 0xA0 SHL SUB SWAP4 DUP5 AND DUP2 MSTORE SWAP2 SWAP1 SWAP3 AND PUSH1 0x20 DUP3 ADD MSTORE PUSH32 0x8FC18CC172F74C81235145B7927190D2BD0E351FC45BFB17BB572593273CEF21 SWAP2 SWAP1 LOG1 STOP JUMPDEST PUSH1 0x40 MLOAD PUSH3 0x461BCD PUSH1 0xE5 SHL DUP2 MSTORE PUSH1 0x20 PUSH1 0x4 DUP3 ADD MSTORE PUSH1 0x24 DUP1 DUP3 ADD MSTORE PUSH32 0x5265776172644D616E616765722063616E6E6F74206265207A65726F20616464 PUSH1 0x44 DUP3 ADD MSTORE PUSH4 0x72657373 PUSH1 0xE0 SHL PUSH1 0x64 DUP3 ADD MSTORE PUSH1 0x84 SWAP1 REVERT JUMPDEST PUSH1 0x40 MLOAD PUSH3 0x461BCD PUSH1 0xE5 SHL DUP2 MSTORE PUSH1 0x20 PUSH1 0x4 DUP3 ADD MSTORE PUSH1 0x23 PUSH1 0x24 DUP3 ADD MSTORE PUSH32 0x5661756C744D616E616765722063616E6E6F74206265207A65726F2061646472 PUSH1 0x44 DUP3 ADD MSTORE PUSH3 0x657373 PUSH1 0xE8 SHL PUSH1 0x64 DUP3 ADD MSTORE PUSH1 0x84 SWAP1 REVERT JUMPDEST PUSH1 0x40 MLOAD PUSH4 0xE2517D3F PUSH1 0xE0 SHL DUP2 MSTORE CALLER PUSH1 0x4 DUP3 ADD MSTORE PUSH0 PUSH1 0x24 DUP3 ADD MSTORE PUSH1 0x44 SWAP1 REVERT JUMPDEST CALLVALUE PUSH2 0x2A3 JUMPI PUSH0 CALLDATASIZE PUSH1 0x3 NOT ADD SLT PUSH2 0x2A3 JUMPI PUSH1 0x1 SLOAD PUSH1 0x2 SLOAD PUSH1 0x40 DUP1 MLOAD PUSH1 0x1 PUSH1 0x1 PUSH1 0xA0 SHL SUB SWAP4 DUP5 AND DUP2 MSTORE SWAP3 SWAP1 SWAP2 AND PUSH1 0x20 DUP4 ADD MSTORE SWAP1 RETURN JUMPDEST CALLVALUE PUSH2 0x2A3 JUMPI PUSH0 CALLDATASIZE PUSH1 0x3 NOT ADD SLT PUSH2 0x2A3 JUMPI PUSH1 0x20 PUSH1 0x40 MLOAD PUSH0 DUP2 MSTORE RETURN JUMPDEST CALLVALUE PUSH2 0x2A3 JUMPI PUSH1 0x40 CALLDATASIZE PUSH1 0x3 NOT ADD SLT PUSH2 0x2A3 JUMPI PUSH2 0x5FA PUSH2 0x1432 JUMP JUMPDEST PUSH1 0x4 CALLDATALOAD PUSH0 MSTORE PUSH0 PUSH1 0x20 MSTORE PUSH1 0x40 PUSH0 KECCAK256 SWAP1 PUSH1 0x1 DUP1 PUSH1 0xA0 SHL SUB AND PUSH0 MSTORE PUSH1 0x20 MSTORE PUSH1 0x20 PUSH1 0xFF PUSH1 0x40 PUSH0 KECCAK256 SLOAD AND PUSH1 0x40 MLOAD SWAP1 ISZERO ISZERO DUP2 MSTORE RETURN JUMPDEST CALLVALUE PUSH2 0x2A3 JUMPI PUSH0 CALLDATASIZE PUSH1 0x3 NOT ADD SLT PUSH2 0x2A3 JUMPI PUSH1 0x1 SLOAD PUSH1 0x40 MLOAD PUSH1 0x1 PUSH1 0x1 PUSH1 0xA0 SHL SUB SWAP1 SWAP2 AND DUP2 MSTORE PUSH1 0x20 SWAP1 RETURN JUMPDEST CALLVALUE PUSH2 0x2A3 JUMPI PUSH1 0x20 DUP1 PUSH1 0x3 NOT CALLDATASIZE ADD SLT PUSH2 0x2A3 JUMPI PUSH2 0x66B PUSH2 0x141C JUMP JUMPDEST SWAP1 PUSH2 0x674 PUSH2 0x1530 JUMP JUMPDEST PUSH1 0x1 DUP1 PUSH1 0xA0 SHL SUB SWAP1 DUP2 DUP4 AND SWAP3 DUP4 PUSH0 MSTORE PUSH1 0x4 DUP3 MSTORE PUSH2 0x698 DUP4 PUSH1 0x40 PUSH0 KECCAK256 SLOAD AND ISZERO ISZERO PUSH2 0x189C JUMP JUMPDEST DUP4 PUSH0 MSTORE PUSH1 0x4 DUP3 MSTORE DUP3 PUSH1 0x40 PUSH0 KECCAK256 SLOAD AND DUP1 PUSH0 MSTORE PUSH1 0x5 SWAP4 DUP5 DUP5 MSTORE PUSH2 0x6BC DUP4 PUSH1 0x40 PUSH0 KECCAK256 PUSH2 0x1A2B JUMP JUMPDEST DUP3 PUSH0 MSTORE DUP6 DUP6 MSTORE PUSH1 0x40 PUSH0 KECCAK256 SLOAD SWAP4 PUSH0 NOT SWAP4 DUP5 DUP7 ADD SWAP6 DUP7 GT PUSH2 0x83B JUMPI PUSH2 0x72D PUSH2 0x743 SWAP4 DUP6 PUSH2 0x6F3 PUSH2 0x706 SWAP10 DUP6 PUSH0 MSTORE DUP13 DUP13 MSTORE PUSH1 0x40 PUSH0 KECCAK256 PUSH2 0x1862 JUMP JUMPDEST SWAP10 SWAP1 SLOAD SWAP3 DUP6 PUSH0 MSTORE DUP13 DUP13 MSTORE PUSH1 0x40 PUSH0 KECCAK256 PUSH2 0x1862 JUMP JUMPDEST SWAP2 SWAP1 SWAP3 PUSH1 0x3 SWAP11 DUP12 SHL SHR AND SWAP1 DUP3 SLOAD SWAP1 PUSH1 0x3 SHL SWAP2 PUSH1 0x1 DUP1 PUSH1 0xA0 SHL SUB DUP1 SWAP2 AND DUP4 SHL SWAP3 SHL NOT AND OR SWAP1 SSTORE JUMP JUMPDEST PUSH0 MSTORE DUP7 DUP7 MSTORE PUSH2 0x73E PUSH1 0x40 PUSH0 KECCAK256 PUSH2 0x19C0 JUMP JUMPDEST PUSH2 0x19DC JUMP JUMPDEST DUP4 SLOAD DUP4 DUP2 ADD SWAP1 DUP2 GT PUSH2 0x83B JUMPI PUSH2 0x78B SWAP3 PUSH2 0x75F PUSH2 0x76C SWAP3 PUSH2 0x1819 JUMP JUMPDEST SWAP1 SLOAD SWAP1 DUP8 SHL SHR AND SWAP2 PUSH2 0x1819 JUMP JUMPDEST SWAP1 SWAP2 SWAP1 DUP3 SLOAD SWAP1 PUSH1 0x3 SHL SWAP2 PUSH1 0x1 DUP1 PUSH1 0xA0 SHL SUB DUP1 SWAP2 AND DUP4 SHL SWAP3 SHL NOT AND OR SWAP1 SSTORE JUMP JUMPDEST DUP2 SLOAD SWAP4 DUP5 ISZERO PUSH2 0x827 JUMPI PUSH1 0x4 PUSH1 0xA SWAP5 PUSH0 SWAP7 SWAP4 DUP8 SWAP5 ADD PUSH2 0x7C0 PUSH2 0x7AB DUP3 PUSH2 0x1819 JUMP JUMPDEST DUP2 SLOAD SWAP1 PUSH1 0x1 DUP1 PUSH1 0xA0 SHL SUB SWAP1 PUSH1 0x3 SHL SHL NOT AND SWAP1 SSTORE JUMP JUMPDEST DUP6 SSTORE DUP8 DUP5 MSTORE MSTORE DUP2 PUSH1 0x40 DUP2 KECCAK256 SWAP4 DUP2 DUP6 SSTORE DUP2 PUSH1 0x1 DUP7 ADD SSTORE DUP2 PUSH1 0x2 DUP7 ADD SSTORE DUP5 ADD SSTORE DUP2 PUSH1 0x4 DUP5 ADD SSTORE DUP3 ADD SSTORE DUP3 PUSH1 0x6 DUP3 ADD SSTORE DUP3 PUSH1 0x7 DUP3 ADD SSTORE DUP3 PUSH1 0x8 DUP3 ADD SSTORE DUP3 PUSH1 0x9 DUP3 ADD SSTORE ADD SSTORE PUSH32 0x334D0B2111287DFDDEBE4B4C1C5AF3AE644909D7FCD024377BF601E236ED5ABB PUSH0 DUP1 LOG2 STOP JUMPDEST PUSH4 0x4E487B71 PUSH1 0xE0 SHL PUSH0 MSTORE PUSH1 0x31 PUSH1 0x4 MSTORE PUSH1 0x24 PUSH0 REVERT JUMPDEST PUSH4 0x4E487B71 PUSH1 0xE0 SHL PUSH0 MSTORE PUSH1 0x11 PUSH1 0x4 MSTORE PUSH1 0x24 PUSH0 REVERT JUMPDEST CALLVALUE PUSH2 0x2A3 JUMPI PUSH1 0x20 CALLDATASIZE PUSH1 0x3 NOT ADD SLT PUSH2 0x2A3 JUMPI PUSH1 0x1 PUSH1 0x1 PUSH1 0xA0 SHL SUB DUP1 PUSH2 0x871 PUSH2 0x141C JUMP JUMPDEST AND SWAP1 DUP2 PUSH0 MSTORE PUSH1 0x6 PUSH1 0x20 MSTORE DUP1 PUSH1 0x40 PUSH0 KECCAK256 SLOAD AND ISZERO PUSH2 0x89E JUMPI PUSH1 0x20 SWAP2 PUSH0 MSTORE PUSH1 0x6 DUP3 MSTORE PUSH1 0x40 PUSH0 KECCAK256 SLOAD AND PUSH1 0x40 MLOAD SWAP1 DUP2 MSTORE RETURN JUMPDEST PUSH1 0x40 MLOAD PUSH3 0x461BCD PUSH1 0xE5 SHL DUP2 MSTORE PUSH1 0x20 PUSH1 0x4 DUP3 ADD MSTORE PUSH1 0x23 PUSH1 0x24 DUP3 ADD MSTORE PUSH32 0x506F6F6C206E6F742072656769737465726564206F7220686173206E6F207661 PUSH1 0x44 DUP3 ADD MSTORE PUSH3 0x1D5B1D PUSH1 0xEA SHL PUSH1 0x64 DUP3 ADD MSTORE PUSH1 0x84 SWAP1 REVERT JUMPDEST CALLVALUE PUSH2 0x2A3 JUMPI PUSH1 0x20 DUP1 PUSH1 0x3 NOT CALLDATASIZE ADD SLT PUSH2 0x2A3 JUMPI PUSH2 0x909 PUSH2 0x141C JUMP JUMPDEST PUSH0 DUP1 MSTORE PUSH0 DUP3 MSTORE PUSH1 0x40 PUSH0 KECCAK256 CALLER PUSH0 MSTORE DUP3 MSTORE PUSH1 0xFF PUSH1 0x40 PUSH0 KECCAK256 SLOAD AND ISZERO PUSH2 0x970 JUMPI PUSH0 PUSH2 0x2E3 SWAP3 PUSH0 DUP1 MLOAD PUSH1 0x20 PUSH2 0x1A7A DUP4 CODECOPY DUP2 MLOAD SWAP2 MSTORE DUP3 MSTORE DUP2 DUP2 MSTORE PUSH2 0x94D PUSH1 0x1 PUSH1 0x40 DUP5 KECCAK256 ADD SLOAD PUSH2 0x1596 JUMP JUMPDEST PUSH2 0x956 DUP4 PUSH2 0x15B7 JUMP JUMPDEST POP DUP2 DUP1 MSTORE MSTORE PUSH2 0x96B PUSH1 0x1 PUSH1 0x40 PUSH0 KECCAK256 ADD SLOAD PUSH2 0x1596 JUMP JUMPDEST PUSH2 0x1655 JUMP JUMPDEST PUSH1 0x40 MLOAD PUSH3 0x461BCD PUSH1 0xE5 SHL DUP2 MSTORE PUSH1 0x4 DUP2 ADD DUP4 SWAP1 MSTORE PUSH1 0x16 PUSH1 0x24 DUP3 ADD MSTORE PUSH22 0x21B0B63632B91034B9903737BA1030B71030B236B4B7 PUSH1 0x51 SHL PUSH1 0x44 DUP3 ADD MSTORE PUSH1 0x64 SWAP1 REVERT JUMPDEST CALLVALUE PUSH2 0x2A3 JUMPI PUSH0 CALLDATASIZE PUSH1 0x3 NOT ADD SLT PUSH2 0x2A3 JUMPI PUSH1 0x20 PUSH1 0x40 MLOAD PUSH0 DUP1 MLOAD PUSH1 0x20 PUSH2 0x1A7A DUP4 CODECOPY DUP2 MLOAD SWAP2 MSTORE DUP2 MSTORE RETURN JUMPDEST CALLVALUE PUSH2 0x2A3 JUMPI PUSH1 0x20 DUP1 PUSH1 0x3 NOT CALLDATASIZE ADD SLT PUSH2 0x2A3 JUMPI PUSH1 0x1 PUSH1 0x1 PUSH1 0xA0 SHL SUB SWAP1 DUP2 PUSH2 0x9F9 PUSH2 0x141C JUMP JUMPDEST AND PUSH0 MSTORE PUSH1 0x5 SWAP1 DUP2 DUP2 MSTORE PUSH1 0x40 PUSH0 KECCAK256 SWAP2 PUSH1 0x40 MLOAD DUP1 DUP5 DUP5 DUP3 SWAP7 SLOAD SWAP4 DUP5 DUP2 MSTORE ADD SWAP1 PUSH0 MSTORE DUP5 PUSH0 KECCAK256 SWAP3 PUSH0 JUMPDEST DUP7 DUP3 DUP3 LT PUSH2 0xAFB JUMPI POP POP POP PUSH2 0xA35 SWAP3 POP SUB DUP5 PUSH2 0x17EB JUMP JUMPDEST PUSH2 0xA3F DUP4 MLOAD PUSH2 0x194F JUMP JUMPDEST SWAP4 PUSH0 JUMPDEST DUP5 MLOAD DUP2 LT ISZERO PUSH2 0x279 JUMPI DUP1 DUP3 PUSH2 0xA5A PUSH2 0xAF6 SWAP4 DUP9 PUSH2 0x19AC JUMP JUMPDEST MLOAD AND PUSH0 MSTORE PUSH1 0x4 DUP6 MSTORE PUSH1 0x40 PUSH0 KECCAK256 PUSH1 0x40 MLOAD SWAP1 PUSH2 0xA73 DUP3 PUSH2 0x17CE JUMP JUMPDEST DUP5 DUP2 SLOAD AND DUP3 MSTORE DUP5 PUSH1 0x1 DUP3 ADD SLOAD AND DUP8 DUP4 ADD MSTORE PUSH1 0x2 DUP2 ADD SLOAD PUSH1 0x40 DUP4 ADD MSTORE DUP5 PUSH1 0x3 DUP3 ADD SLOAD AND PUSH1 0x60 DUP4 ADD MSTORE DUP5 PUSH1 0x4 DUP3 ADD SLOAD AND PUSH1 0x80 DUP4 ADD MSTORE DUP5 DUP7 DUP3 ADD SLOAD AND PUSH1 0xA0 DUP4 ADD MSTORE DUP5 PUSH1 0x6 DUP3 ADD SLOAD AND PUSH1 0xC0 DUP4 ADD MSTORE PUSH1 0x7 DUP2 ADD SLOAD PUSH1 0xE0 DUP4 ADD MSTORE PUSH1 0xA PUSH1 0x8 SWAP2 DUP3 DUP2 ADD SLOAD PUSH2 0x100 DUP6 ADD MSTORE PUSH1 0x9 DUP2 ADD SLOAD PUSH2 0x120 DUP6 ADD MSTORE ADD SLOAD PUSH1 0xFF SWAP2 PUSH2 0x24F DUP4 DUP4 AND PUSH2 0x140 DUP7 ADD PUSH2 0x180D JUMP JUMPDEST PUSH2 0xA42 JUMP JUMPDEST DUP6 SLOAD DUP11 AND DUP5 MSTORE PUSH1 0x1 SWAP6 DUP7 ADD SWAP6 DUP10 SWAP6 POP SWAP4 ADD SWAP3 ADD PUSH2 0xA1E JUMP JUMPDEST CALLVALUE PUSH2 0x2A3 JUMPI PUSH2 0x160 CALLDATASIZE PUSH1 0x3 NOT ADD SLT PUSH2 0x2A3 JUMPI PUSH2 0xB2D PUSH2 0x141C JUMP JUMPDEST PUSH2 0xB35 PUSH2 0x1432 JUMP JUMPDEST SWAP1 PUSH1 0x44 CALLDATALOAD PUSH1 0x1 PUSH1 0x1 PUSH1 0xA0 SHL SUB DUP2 AND DUP2 SUB PUSH2 0x2A3 JUMPI PUSH1 0x64 CALLDATALOAD SWAP1 PUSH1 0x1 PUSH1 0x1 PUSH1 0xA0 SHL SUB DUP3 AND DUP3 SUB PUSH2 0x2A3 JUMPI PUSH1 0x84 CALLDATALOAD PUSH1 0x1 PUSH1 0x1 PUSH1 0xA0 SHL SUB DUP2 AND DUP2 SUB PUSH2 0x2A3 JUMPI PUSH1 0xA4 CALLDATALOAD PUSH1 0x1 PUSH1 0x1 PUSH1 0xA0 SHL SUB DUP2 AND DUP2 SUB PUSH2 0x2A3 JUMPI PUSH1 0xC4 CALLDATALOAD SWAP1 PUSH1 0x1 PUSH1 0x1 PUSH1 0xA0 SHL SUB DUP3 AND DUP3 SUB PUSH2 0x2A3 JUMPI PUSH1 0x2 PUSH2 0x144 CALLDATALOAD LT ISZERO PUSH2 0x2A3 JUMPI PUSH2 0xBAB PUSH2 0x1530 JUMP JUMPDEST PUSH1 0x1 PUSH1 0x1 PUSH1 0xA0 SHL SUB DUP7 AND ISZERO PUSH2 0xE5D JUMPI PUSH1 0x1 PUSH1 0x1 PUSH1 0xA0 SHL SUB DUP7 DUP2 AND PUSH0 SWAP1 DUP2 MSTORE PUSH1 0x4 PUSH1 0x20 MSTORE PUSH1 0x40 SWAP1 KECCAK256 SLOAD AND PUSH2 0xE18 JUMPI PUSH1 0x40 MLOAD SWAP3 PUSH2 0xBE5 DUP5 PUSH2 0x17CE JUMP JUMPDEST PUSH1 0x1 PUSH1 0x1 PUSH1 0xA0 SHL SUB DUP9 DUP2 AND DUP6 MSTORE DUP6 DUP2 AND PUSH1 0x20 DUP7 ADD MSTORE TIMESTAMP PUSH1 0x40 DUP7 ADD MSTORE DUP7 DUP2 AND PUSH1 0x60 DUP7 ADD MSTORE SWAP1 DUP2 AND PUSH1 0x80 DUP6 ADD MSTORE SWAP1 DUP2 AND PUSH1 0xA0 DUP5 ADD MSTORE AND PUSH1 0xC0 DUP3 ADD MSTORE PUSH1 0xE4 CALLDATALOAD PUSH1 0xE0 DUP3 ADD MSTORE PUSH2 0x104 CALLDATALOAD PUSH2 0x100 DUP3 ADD MSTORE PUSH2 0x124 CALLDATALOAD PUSH2 0x120 DUP3 ADD MSTORE PUSH2 0xC4B PUSH2 0x144 CALLDATALOAD PUSH2 0x140 DUP4 ADD PUSH2 0x180D JUMP JUMPDEST PUSH0 PUSH2 0x160 DUP3 ADD MSTORE PUSH1 0x1 DUP1 PUSH1 0xA0 SHL SUB DUP5 AND PUSH0 MSTORE PUSH1 0x4 PUSH1 0x20 MSTORE PUSH1 0xA PUSH1 0x40 PUSH0 KECCAK256 PUSH1 0x1 DUP1 PUSH1 0xA0 SHL SUB DUP4 MLOAD AND PUSH1 0x1 PUSH1 0x1 PUSH1 0x60 SHL SUB PUSH1 0xA0 SHL SWAP1 DUP2 DUP4 SLOAD AND OR DUP3 SSTORE PUSH1 0x1 DUP3 ADD PUSH1 0x1 DUP1 PUSH1 0xA0 SHL SUB PUSH1 0x20 DUP7 ADD MLOAD AND DUP3 DUP3 SLOAD AND OR SWAP1 SSTORE PUSH1 0x40 DUP5 ADD MLOAD PUSH1 0x2 DUP4 ADD SSTORE PUSH1 0x3 DUP3 ADD PUSH1 0x1 DUP1 PUSH1 0xA0 SHL SUB PUSH1 0x60 DUP7 ADD MLOAD AND DUP3 DUP3 SLOAD AND OR SWAP1 SSTORE PUSH1 0x4 DUP3 ADD PUSH1 0x1 DUP1 PUSH1 0xA0 SHL SUB PUSH1 0x80 DUP7 ADD MLOAD AND DUP3 DUP3 SLOAD AND OR SWAP1 SSTORE PUSH1 0x5 DUP3 ADD PUSH1 0x1 DUP1 PUSH1 0xA0 SHL SUB PUSH1 0xA0 DUP7 ADD MLOAD AND DUP3 DUP3 SLOAD AND OR SWAP1 SSTORE PUSH1 0x6 DUP3 ADD SWAP1 PUSH1 0x1 DUP1 PUSH1 0xA0 SHL SUB PUSH1 0xC0 DUP7 ADD MLOAD AND SWAP1 DUP3 SLOAD AND OR SWAP1 SSTORE PUSH1 0xE0 DUP4 ADD MLOAD PUSH1 0x7 DUP3 ADD SSTORE PUSH2 0x100 DUP4 ADD MLOAD PUSH1 0x8 DUP3 ADD SSTORE PUSH2 0x120 DUP4 ADD MLOAD PUSH1 0x9 DUP3 ADD SSTORE ADD SWAP1 PUSH2 0x140 DUP2 ADD MLOAD SWAP1 PUSH1 0x2 DUP3 LT ISZERO PUSH2 0xE04 JUMPI PUSH1 0xFF PUSH2 0xFF00 PUSH2 0x160 DUP6 SLOAD SWAP4 ADD MLOAD ISZERO ISZERO PUSH1 0x8 SHL AND SWAP3 AND SWAP1 PUSH2 0xFFFF NOT AND OR OR SWAP1 SSTORE PUSH1 0x1 DUP1 PUSH1 0xA0 SHL SUB DUP5 AND PUSH0 MSTORE PUSH1 0x5 PUSH1 0x20 MSTORE PUSH2 0xD76 DUP4 PUSH1 0x40 PUSH0 KECCAK256 PUSH2 0x1877 JUMP JUMPDEST PUSH1 0x3 SLOAD PUSH1 0x1 PUSH1 0x40 SHL DUP2 LT ISZERO PUSH2 0xDF0 JUMPI PUSH32 0x8F723E49DC038E67C41B41307A1E0C65653D50125A0C474A21AC32D9A0B24D2B SWAP2 PUSH2 0xDBD DUP6 PUSH2 0x76C DUP5 PUSH1 0x1 PUSH1 0x40 SWAP7 ADD PUSH1 0x3 SSTORE PUSH2 0x1819 JUMP JUMPDEST DUP2 MLOAD PUSH1 0x1 PUSH1 0x1 PUSH1 0xA0 SHL SUB SWAP1 SWAP5 AND DUP5 MSTORE PUSH2 0xDDC PUSH1 0x20 DUP6 ADD PUSH2 0x144 CALLDATALOAD PUSH2 0x1448 JUMP JUMPDEST PUSH1 0x1 PUSH1 0x1 PUSH1 0xA0 SHL SUB SWAP1 DUP2 AND SWAP6 DUP2 AND SWAP5 AND SWAP3 LOG4 STOP JUMPDEST PUSH4 0x4E487B71 PUSH1 0xE0 SHL PUSH0 MSTORE PUSH1 0x41 PUSH1 0x4 MSTORE PUSH1 0x24 PUSH0 REVERT JUMPDEST PUSH4 0x4E487B71 PUSH1 0xE0 SHL PUSH0 MSTORE PUSH1 0x21 PUSH1 0x4 MSTORE PUSH1 0x24 PUSH0 REVERT JUMPDEST PUSH1 0x40 MLOAD PUSH3 0x461BCD PUSH1 0xE5 SHL DUP2 MSTORE PUSH1 0x20 PUSH1 0x4 DUP3 ADD MSTORE PUSH1 0x17 PUSH1 0x24 DUP3 ADD MSTORE PUSH32 0x506F6F6C20616C72656164792072656769737465726564000000000000000000 PUSH1 0x44 DUP3 ADD MSTORE PUSH1 0x64 SWAP1 REVERT JUMPDEST PUSH1 0x40 MLOAD PUSH3 0x461BCD PUSH1 0xE5 SHL DUP2 MSTORE PUSH1 0x20 PUSH1 0x4 DUP3 ADD MSTORE PUSH1 0x1B PUSH1 0x24 DUP3 ADD MSTORE PUSH32 0x506F6F6C20616464726573732063616E6E6F74206265207A65726F0000000000 PUSH1 0x44 DUP3 ADD MSTORE PUSH1 0x64 SWAP1 REVERT JUMPDEST CALLVALUE PUSH2 0x2A3 JUMPI PUSH1 0x40 CALLDATASIZE PUSH1 0x3 NOT ADD SLT PUSH2 0x2A3 JUMPI PUSH2 0xEBB PUSH2 0x141C JUMP JUMPDEST PUSH2 0xEC3 PUSH2 0x1432 JUMP JUMPDEST SWAP1 PUSH2 0xECC PUSH2 0x1530 JUMP JUMPDEST PUSH1 0x1 DUP1 PUSH1 0xA0 SHL SUB SWAP2 DUP3 DUP3 AND DUP1 PUSH0 MSTORE DUP4 PUSH1 0x20 SWAP3 PUSH1 0x4 DUP5 MSTORE PUSH2 0xEF3 DUP3 PUSH1 0x40 PUSH0 KECCAK256 SLOAD AND ISZERO ISZERO PUSH2 0x189C JUMP JUMPDEST AND SWAP4 DUP5 ISZERO PUSH2 0x1005 JUMPI DUP2 PUSH0 MSTORE PUSH1 0x4 DUP4 MSTORE DUP1 PUSH1 0x1 PUSH1 0x40 PUSH0 KECCAK256 ADD SLOAD AND DUP6 DUP2 SUB PUSH2 0xF15 JUMPI STOP JUMPDEST DUP1 PUSH2 0xF53 JUMPI JUMPDEST POP POP PUSH2 0xF33 PUSH1 0x4 SWAP4 DUP6 PUSH0 MSTORE PUSH1 0x7 DUP5 MSTORE PUSH1 0x40 PUSH0 KECCAK256 PUSH2 0x1877 JUMP JUMPDEST PUSH0 MSTORE MSTORE PUSH1 0x1 PUSH1 0x40 PUSH0 KECCAK256 ADD SWAP1 PUSH1 0x1 PUSH1 0x1 PUSH1 0x60 SHL SUB PUSH1 0xA0 SHL DUP3 SLOAD AND OR SWAP1 SSTORE PUSH0 DUP1 RETURN JUMPDEST DUP1 PUSH0 MSTORE PUSH1 0x7 DUP5 MSTORE PUSH2 0xF67 DUP6 PUSH1 0x40 PUSH0 KECCAK256 PUSH2 0x1A2B JUMP JUMPDEST SWAP1 DUP1 PUSH0 MSTORE PUSH1 0x7 DUP6 MSTORE PUSH1 0x40 PUSH0 KECCAK256 SLOAD SWAP3 DUP4 DUP4 LT PUSH2 0xF84 JUMPI JUMPDEST POP POP PUSH2 0xF1B JUMP JUMPDEST PUSH0 NOT DUP5 ADD SWAP7 SWAP3 SWAP4 DUP8 GT PUSH2 0x83B JUMPI PUSH2 0xFC6 PUSH2 0xF33 SWAP5 PUSH2 0xFEB SWAP3 PUSH2 0xFB2 PUSH1 0x4 SWAP11 DUP7 PUSH0 MSTORE PUSH1 0x7 DUP12 MSTORE PUSH1 0x40 PUSH0 KECCAK256 PUSH2 0x1862 JUMP JUMPDEST SWAP4 SWAP1 SLOAD SWAP3 DUP7 PUSH0 MSTORE PUSH1 0x7 DUP12 MSTORE PUSH1 0x40 PUSH0 KECCAK256 PUSH2 0x1862 JUMP JUMPDEST SWAP3 SWAP1 SWAP4 PUSH1 0x3 SHL SHR AND SWAP1 DUP3 SLOAD SWAP1 PUSH1 0x3 SHL SWAP2 PUSH1 0x1 DUP1 PUSH1 0xA0 SHL SUB DUP1 SWAP2 AND DUP4 SHL SWAP3 SHL NOT AND OR SWAP1 SSTORE JUMP JUMPDEST PUSH0 MSTORE PUSH1 0x7 DUP5 MSTORE PUSH2 0xFFD PUSH1 0x40 PUSH0 KECCAK256 PUSH2 0x19C0 JUMP JUMPDEST SWAP4 DUP7 DUP1 PUSH2 0xF7D JUMP JUMPDEST PUSH1 0x40 MLOAD PUSH3 0x461BCD PUSH1 0xE5 SHL DUP2 MSTORE PUSH1 0x4 DUP2 ADD DUP5 SWAP1 MSTORE PUSH1 0x23 PUSH1 0x24 DUP3 ADD MSTORE PUSH32 0x426F72726F7765722063616E6E6F7420626520746865207A65726F2061646472 PUSH1 0x44 DUP3 ADD MSTORE PUSH3 0x657373 PUSH1 0xE8 SHL PUSH1 0x64 DUP3 ADD MSTORE PUSH1 0x84 SWAP1 REVERT JUMPDEST CALLVALUE PUSH2 0x2A3 JUMPI PUSH1 0x40 CALLDATASIZE PUSH1 0x3 NOT ADD SLT PUSH2 0x2A3 JUMPI PUSH2 0x106F PUSH2 0x1432 JUMP JUMPDEST CALLER PUSH1 0x1 PUSH1 0x1 PUSH1 0xA0 SHL SUB DUP3 AND SUB PUSH2 0x108B JUMPI PUSH2 0x2E3 SWAP1 PUSH1 0x4 CALLDATALOAD PUSH2 0x175B JUMP JUMPDEST PUSH1 0x40 MLOAD PUSH4 0x334BD919 PUSH1 0xE1 SHL DUP2 MSTORE PUSH1 0x4 SWAP1 REVERT JUMPDEST CALLVALUE PUSH2 0x2A3 JUMPI PUSH1 0x40 CALLDATASIZE PUSH1 0x3 NOT ADD SLT PUSH2 0x2A3 JUMPI PUSH2 0x2E3 PUSH1 0x4 CALLDATALOAD PUSH2 0x10BC PUSH2 0x1432 JUMP JUMPDEST SWAP1 DUP1 PUSH0 MSTORE PUSH0 PUSH1 0x20 MSTORE PUSH2 0x10D4 PUSH1 0x1 PUSH1 0x40 PUSH0 KECCAK256 ADD SLOAD PUSH2 0x1596 JUMP JUMPDEST PUSH2 0x16E4 JUMP JUMPDEST CALLVALUE PUSH2 0x2A3 JUMPI PUSH1 0x20 DUP1 PUSH1 0x3 NOT CALLDATASIZE ADD SLT PUSH2 0x2A3 JUMPI PUSH1 0x1 PUSH1 0x1 PUSH1 0xA0 SHL SUB SWAP1 DUP2 PUSH2 0x10FD PUSH2 0x141C JUMP JUMPDEST AND PUSH0 MSTORE PUSH1 0x5 DUP2 MSTORE PUSH1 0x40 PUSH0 KECCAK256 PUSH1 0x40 MLOAD SWAP2 DUP3 DUP2 DUP4 SLOAD SWAP2 DUP3 DUP2 MSTORE ADD SWAP1 DUP2 SWAP4 PUSH0 MSTORE DUP3 PUSH0 KECCAK256 SWAP1 PUSH0 JUMPDEST DUP2 DUP2 LT PUSH2 0x1170 JUMPI POP POP POP DUP4 PUSH2 0x1136 SWAP2 SUB DUP5 PUSH2 0x17EB JUMP JUMPDEST PUSH1 0x40 MLOAD SWAP3 DUP2 DUP5 ADD SWAP1 DUP3 DUP6 MSTORE MLOAD DUP1 SWAP2 MSTORE PUSH1 0x40 DUP5 ADD SWAP3 SWAP2 PUSH0 JUMPDEST DUP3 DUP2 LT PUSH2 0x115A JUMPI DUP6 DUP6 SUB DUP7 RETURN JUMPDEST DUP4 MLOAD DUP8 AND DUP6 MSTORE SWAP4 DUP2 ADD SWAP4 SWAP3 DUP2 ADD SWAP3 PUSH1 0x1 ADD PUSH2 0x114D JUMP JUMPDEST DUP3 SLOAD DUP9 AND DUP5 MSTORE SWAP3 DUP5 ADD SWAP3 PUSH1 0x1 SWAP3 DUP4 ADD SWAP3 ADD PUSH2 0x1120 JUMP JUMPDEST CALLVALUE PUSH2 0x2A3 JUMPI PUSH1 0x20 CALLDATASIZE PUSH1 0x3 NOT ADD SLT PUSH2 0x2A3 JUMPI PUSH1 0x4 CALLDATALOAD PUSH0 MSTORE PUSH0 PUSH1 0x20 MSTORE PUSH1 0x20 PUSH1 0x1 PUSH1 0x40 PUSH0 KECCAK256 ADD SLOAD PUSH1 0x40 MLOAD SWAP1 DUP2 MSTORE RETURN JUMPDEST CALLVALUE PUSH2 0x2A3 JUMPI PUSH1 0x20 CALLDATASIZE PUSH1 0x3 NOT ADD SLT PUSH2 0x2A3 JUMPI PUSH2 0x11CB PUSH2 0x141C JUMP JUMPDEST PUSH2 0x11D3 PUSH2 0x1530 JUMP JUMPDEST PUSH1 0x1 PUSH1 0x1 PUSH1 0xA0 SHL SUB SWAP1 DUP2 AND PUSH0 DUP2 DUP2 MSTORE PUSH1 0x4 PUSH1 0x20 MSTORE PUSH1 0x40 SWAP1 KECCAK256 SLOAD SWAP1 SWAP2 PUSH2 0x11FA SWAP2 AND ISZERO ISZERO PUSH2 0x189C JUMP JUMPDEST PUSH0 SWAP1 DUP2 MSTORE PUSH1 0x4 PUSH1 0x20 MSTORE PUSH1 0x40 SWAP1 KECCAK256 PUSH1 0xA ADD DUP1 SLOAD PUSH2 0xFF00 NOT AND PUSH2 0x100 OR SWAP1 SSTORE STOP JUMPDEST CALLVALUE PUSH2 0x2A3 JUMPI PUSH1 0x20 CALLDATASIZE PUSH1 0x3 NOT ADD SLT PUSH2 0x2A3 JUMPI PUSH1 0x20 PUSH1 0x1 PUSH1 0x1 PUSH1 0xA0 SHL SUB DUP1 PUSH2 0x123D PUSH2 0x141C JUMP JUMPDEST AND PUSH0 MSTORE PUSH1 0x6 DUP3 MSTORE PUSH1 0x40 PUSH0 KECCAK256 SLOAD AND PUSH1 0x40 MLOAD SWAP1 DUP2 MSTORE RETURN JUMPDEST CALLVALUE PUSH2 0x2A3 JUMPI PUSH0 CALLDATASIZE PUSH1 0x3 NOT ADD SLT PUSH2 0x2A3 JUMPI PUSH1 0x2 SLOAD PUSH1 0x40 MLOAD PUSH1 0x1 PUSH1 0x1 PUSH1 0xA0 SHL SUB SWAP1 SWAP2 AND DUP2 MSTORE PUSH1 0x20 SWAP1 RETURN JUMPDEST CALLVALUE PUSH2 0x2A3 JUMPI PUSH1 0x40 CALLDATASIZE PUSH1 0x3 NOT ADD SLT PUSH2 0x2A3 JUMPI PUSH2 0x1293 PUSH2 0x141C JUMP JUMPDEST PUSH2 0x129B PUSH2 0x1432 JUMP JUMPDEST SWAP1 PUSH2 0x12A4 PUSH2 0x1530 JUMP JUMPDEST PUSH1 0x1 PUSH1 0x1 PUSH1 0xA0 SHL SUB SWAP1 DUP2 AND SWAP1 DUP2 ISZERO ISZERO DUP1 PUSH2 0x13BE JUMPI JUMPDEST ISZERO PUSH2 0x1385 JUMPI DUP2 PUSH0 MSTORE PUSH1 0x4 PUSH1 0x20 MSTORE PUSH2 0x12D7 DUP2 PUSH1 0x40 PUSH0 KECCAK256 SLOAD AND ISZERO ISZERO PUSH2 0x189C JUMP JUMPDEST DUP2 PUSH0 MSTORE PUSH1 0x6 PUSH1 0x20 MSTORE DUP1 PUSH1 0x40 PUSH0 KECCAK256 SLOAD AND PUSH2 0x1331 JUMPI DUP2 PUSH0 MSTORE PUSH1 0x6 PUSH1 0x20 MSTORE PUSH1 0x40 PUSH0 KECCAK256 SWAP3 AND SWAP2 DUP3 PUSH1 0x1 PUSH1 0x1 PUSH1 0x60 SHL SUB PUSH1 0xA0 SHL DUP3 SLOAD AND OR SWAP1 SSTORE PUSH32 0xF8EE9039D8E4D43426638703C71517008894FDEA742BB2D2DBFF5A46FB07ABDB PUSH0 DUP1 LOG3 STOP JUMPDEST PUSH1 0x40 MLOAD PUSH3 0x461BCD PUSH1 0xE5 SHL DUP2 MSTORE PUSH1 0x20 PUSH1 0x4 DUP3 ADD MSTORE PUSH1 0x26 PUSH1 0x24 DUP3 ADD MSTORE PUSH32 0x5661756C7420616C7265616479207265676973746572656420666F7220746869 PUSH1 0x44 DUP3 ADD MSTORE PUSH6 0x1CC81C1BDBDB PUSH1 0xD2 SHL PUSH1 0x64 DUP3 ADD MSTORE PUSH1 0x84 SWAP1 REVERT JUMPDEST PUSH1 0x40 MLOAD PUSH3 0x461BCD PUSH1 0xE5 SHL DUP2 MSTORE PUSH1 0x20 PUSH1 0x4 DUP3 ADD MSTORE PUSH1 0x11 PUSH1 0x24 DUP3 ADD MSTORE PUSH17 0x496E76616C696420616464726573736573 PUSH1 0x78 SHL PUSH1 0x44 DUP3 ADD MSTORE PUSH1 0x64 SWAP1 REVERT JUMPDEST POP DUP1 DUP4 AND ISZERO ISZERO PUSH2 0x12B9 JUMP JUMPDEST CALLVALUE PUSH2 0x2A3 JUMPI PUSH1 0x20 CALLDATASIZE PUSH1 0x3 NOT ADD SLT PUSH2 0x2A3 JUMPI PUSH1 0x4 CALLDATALOAD SWAP1 PUSH4 0xFFFFFFFF PUSH1 0xE0 SHL DUP3 AND DUP1 SWAP3 SUB PUSH2 0x2A3 JUMPI PUSH1 0x20 SWAP2 PUSH4 0x7965DB0B PUSH1 0xE0 SHL DUP2 EQ SWAP1 DUP2 ISZERO PUSH2 0x140B JUMPI JUMPDEST POP ISZERO ISZERO DUP2 MSTORE RETURN JUMPDEST PUSH4 0x1FFC9A7 PUSH1 0xE0 SHL EQ SWAP1 POP DUP4 PUSH2 0x1404 JUMP JUMPDEST PUSH1 0x4 CALLDATALOAD SWAP1 PUSH1 0x1 PUSH1 0x1 PUSH1 0xA0 SHL SUB DUP3 AND DUP3 SUB PUSH2 0x2A3 JUMPI JUMP JUMPDEST PUSH1 0x24 CALLDATALOAD SWAP1 PUSH1 0x1 PUSH1 0x1 PUSH1 0xA0 SHL SUB DUP3 AND DUP3 SUB PUSH2 0x2A3 JUMPI JUMP JUMPDEST SWAP1 PUSH1 0x2 DUP3 LT ISZERO PUSH2 0xE04 JUMPI MSTORE JUMP JUMPDEST PUSH1 0x1 DUP1 PUSH1 0xA0 SHL SUB DUP1 DUP3 MLOAD AND DUP4 MSTORE DUP1 PUSH1 0x20 DUP4 ADD MLOAD AND PUSH1 0x20 DUP5 ADD MSTORE PUSH1 0x40 DUP3 ADD MLOAD PUSH1 0x40 DUP5 ADD MSTORE DUP1 PUSH1 0x60 DUP4 ADD MLOAD AND PUSH1 0x60 DUP5 ADD MSTORE DUP1 PUSH1 0x80 DUP4 ADD MLOAD AND PUSH1 0x80 DUP5 ADD MSTORE DUP1 PUSH1 0xA0 DUP4 ADD MLOAD AND PUSH1 0xA0 DUP5 ADD MSTORE PUSH1 0xC0 DUP3 ADD MLOAD AND PUSH1 0xC0 DUP4 ADD MSTORE PUSH1 0xE0 DUP2 ADD MLOAD PUSH1 0xE0 DUP4 ADD MSTORE PUSH2 0x100 DUP1 DUP3 ADD MLOAD SWAP1 DUP4 ADD MSTORE PUSH2 0x120 DUP1 DUP3 ADD MLOAD SWAP1 DUP4 ADD MSTORE PUSH2 0x14DA PUSH2 0x140 DUP1 DUP4 ADD MLOAD SWAP1 DUP5 ADD SWAP1 PUSH2 0x1448 JUMP JUMPDEST PUSH2 0x160 DUP1 SWAP2 ADD MLOAD ISZERO ISZERO SWAP2 ADD MSTORE JUMP JUMPDEST PUSH1 0x20 SWAP1 DUP2 PUSH1 0x40 DUP2 DUP4 ADD SWAP3 DUP3 DUP2 MSTORE DUP6 MLOAD DUP1 SWAP5 MSTORE ADD SWAP4 ADD SWAP2 PUSH0 JUMPDEST DUP3 DUP2 LT PUSH2 0x150E JUMPI POP POP POP POP SWAP1 JUMP JUMPDEST SWAP1 SWAP2 SWAP3 SWAP4 DUP3 PUSH2 0x180 DUP3 PUSH2 0x1524 PUSH1 0x1 SWAP5 DUP10 MLOAD PUSH2 0x1455 JUMP JUMPDEST ADD SWAP6 ADD SWAP4 SWAP3 SWAP2 ADD PUSH2 0x1500 JUMP JUMPDEST CALLER PUSH0 SWAP1 DUP2 MSTORE PUSH32 0x729EF9451DD492832BD2A98139702CED95DFA0CEC7E99526DBBCB957ABCBC476 PUSH1 0x20 MSTORE PUSH1 0x40 SWAP1 KECCAK256 SLOAD PUSH0 DUP1 MLOAD PUSH1 0x20 PUSH2 0x1A7A DUP4 CODECOPY DUP2 MLOAD SWAP2 MSTORE SWAP1 PUSH1 0xFF AND ISZERO PUSH2 0x1578 JUMPI POP JUMP JUMPDEST PUSH1 0x44 SWAP1 PUSH1 0x40 MLOAD SWAP1 PUSH4 0xE2517D3F PUSH1 0xE0 SHL DUP3 MSTORE CALLER PUSH1 0x4 DUP4 ADD MSTORE PUSH1 0x24 DUP3 ADD MSTORE REVERT JUMPDEST DUP1 PUSH0 MSTORE PUSH0 PUSH1 0x20 MSTORE PUSH1 0x40 PUSH0 KECCAK256 CALLER PUSH0 MSTORE PUSH1 0x20 MSTORE PUSH1 0xFF PUSH1 0x40 PUSH0 KECCAK256 SLOAD AND ISZERO PUSH2 0x1578 JUMPI POP JUMP JUMPDEST PUSH1 0x1 PUSH1 0x1 PUSH1 0xA0 SHL SUB AND PUSH0 DUP2 DUP2 MSTORE PUSH32 0x729EF9451DD492832BD2A98139702CED95DFA0CEC7E99526DBBCB957ABCBC476 PUSH1 0x20 MSTORE PUSH1 0x40 DUP2 KECCAK256 SLOAD SWAP1 SWAP2 SWAP1 PUSH0 DUP1 MLOAD PUSH1 0x20 PUSH2 0x1A7A DUP4 CODECOPY DUP2 MLOAD SWAP2 MSTORE SWAP1 PUSH1 0xFF AND PUSH2 0x1650 JUMPI DUP1 DUP4 MSTORE DUP3 PUSH1 0x20 MSTORE PUSH1 0x40 DUP4 KECCAK256 DUP3 DUP5 MSTORE PUSH1 0x20 MSTORE PUSH1 0x40 DUP4 KECCAK256 PUSH1 0x1 PUSH1 0xFF NOT DUP3 SLOAD AND OR SWAP1 SSTORE PUSH32 0x2F8788117E7EFF1D82E926EC794901D17C78024A50270940304540A733656F0D CALLER SWAP4 DUP1 LOG4 PUSH1 0x1 SWAP1 JUMP JUMPDEST POP POP SWAP1 JUMP JUMPDEST PUSH1 0x1 PUSH1 0x1 PUSH1 0xA0 SHL SUB AND PUSH0 DUP2 DUP2 MSTORE PUSH32 0xAD3228B676F7D3CD4284A5443F17F1962B36E491B30A40B2405849E597BA5FB5 PUSH1 0x20 MSTORE PUSH1 0x40 DUP2 KECCAK256 SLOAD SWAP1 SWAP2 SWAP1 PUSH1 0xFF AND PUSH2 0x16E0 JUMPI DUP2 DUP1 MSTORE DUP2 PUSH1 0x20 MSTORE PUSH1 0x40 DUP3 KECCAK256 DUP2 DUP4 MSTORE PUSH1 0x20 MSTORE PUSH1 0x40 DUP3 KECCAK256 PUSH1 0x1 PUSH1 0xFF NOT DUP3 SLOAD AND OR SWAP1 SSTORE CALLER SWAP2 PUSH32 0x2F8788117E7EFF1D82E926EC794901D17C78024A50270940304540A733656F0D DUP2 DUP1 LOG4 PUSH1 0x1 SWAP1 JUMP JUMPDEST POP SWAP1 JUMP JUMPDEST SWAP1 PUSH0 SWAP2 DUP1 DUP4 MSTORE DUP3 PUSH1 0x20 MSTORE PUSH1 0x40 DUP4 KECCAK256 SWAP2 PUSH1 0x1 DUP1 PUSH1 0xA0 SHL SUB AND SWAP2 DUP3 DUP5 MSTORE PUSH1 0x20 MSTORE PUSH1 0xFF PUSH1 0x40 DUP5 KECCAK256 SLOAD AND ISZERO PUSH0 EQ PUSH2 0x1650 JUMPI DUP1 DUP4 MSTORE DUP3 PUSH1 0x20 MSTORE PUSH1 0x40 DUP4 KECCAK256 DUP3 DUP5 MSTORE PUSH1 0x20 MSTORE PUSH1 0x40 DUP4 KECCAK256 PUSH1 0x1 PUSH1 0xFF NOT DUP3 SLOAD AND OR SWAP1 SSTORE PUSH32 0x2F8788117E7EFF1D82E926EC794901D17C78024A50270940304540A733656F0D CALLER SWAP4 DUP1 LOG4 PUSH1 0x1 SWAP1 JUMP JUMPDEST SWAP1 PUSH0 SWAP2 DUP1 DUP4 MSTORE DUP3 PUSH1 0x20 MSTORE PUSH1 0x40 DUP4 KECCAK256 SWAP2 PUSH1 0x1 DUP1 PUSH1 0xA0 SHL SUB AND SWAP2 DUP3 DUP5 MSTORE PUSH1 0x20 MSTORE PUSH1 0xFF PUSH1 0x40 DUP5 KECCAK256 SLOAD AND PUSH0 EQ PUSH2 0x1650 JUMPI DUP1 DUP4 MSTORE DUP3 PUSH1 0x20 MSTORE PUSH1 0x40 DUP4 KECCAK256 DUP3 DUP5 MSTORE PUSH1 0x20 MSTORE PUSH1 0x40 DUP4 KECCAK256 PUSH1 0xFF NOT DUP2 SLOAD AND SWAP1 SSTORE PUSH32 0xF6391F5C32D9C69D2A47EA670B442974B53935D1EDC7FD64EB21E047A839171B CALLER SWAP4 DUP1 LOG4 PUSH1 0x1 SWAP1 JUMP JUMPDEST PUSH2 0x180 DUP2 ADD SWAP1 DUP2 LT PUSH8 0xFFFFFFFFFFFFFFFF DUP3 GT OR PUSH2 0xDF0 JUMPI PUSH1 0x40 MSTORE JUMP JUMPDEST SWAP1 PUSH1 0x1F DUP1 NOT SWAP2 ADD AND DUP2 ADD SWAP1 DUP2 LT PUSH8 0xFFFFFFFFFFFFFFFF DUP3 GT OR PUSH2 0xDF0 JUMPI PUSH1 0x40 MSTORE JUMP JUMPDEST PUSH1 0x2 DUP3 LT ISZERO PUSH2 0xE04 JUMPI MSTORE JUMP JUMPDEST PUSH1 0x3 SLOAD DUP2 LT ISZERO PUSH2 0x184E JUMPI PUSH1 0x3 PUSH0 MSTORE PUSH32 0xC2575A0E9E593C00F959F8C92F12DB2869C3395A3B0502D05E2516446F71F85B ADD SWAP1 PUSH0 SWAP1 JUMP JUMPDEST PUSH4 0x4E487B71 PUSH1 0xE0 SHL PUSH0 MSTORE PUSH1 0x32 PUSH1 0x4 MSTORE PUSH1 0x24 PUSH0 REVERT JUMPDEST DUP1 SLOAD DUP3 LT ISZERO PUSH2 0x184E JUMPI PUSH0 MSTORE PUSH1 0x20 PUSH0 KECCAK256 ADD SWAP1 PUSH0 SWAP1 JUMP JUMPDEST SWAP1 DUP2 SLOAD SWAP2 PUSH1 0x1 PUSH1 0x40 SHL DUP4 LT ISZERO PUSH2 0xDF0 JUMPI DUP3 PUSH2 0x76C SWAP2 PUSH1 0x1 PUSH2 0x189A SWAP6 ADD DUP2 SSTORE PUSH2 0x1862 JUMP JUMPDEST JUMP JUMPDEST ISZERO PUSH2 0x18A3 JUMPI JUMP JUMPDEST PUSH1 0x40 MLOAD PUSH3 0x461BCD PUSH1 0xE5 SHL DUP2 MSTORE PUSH1 0x20 PUSH1 0x4 DUP3 ADD MSTORE PUSH1 0x13 PUSH1 0x24 DUP3 ADD MSTORE PUSH19 0x141BDBDB081B9BDD081C9959DA5CDD195C9959 PUSH1 0x6A SHL PUSH1 0x44 DUP3 ADD MSTORE PUSH1 0x64 SWAP1 REVERT JUMPDEST PUSH8 0xFFFFFFFFFFFFFFFF DUP2 GT PUSH2 0xDF0 JUMPI PUSH1 0x5 SHL PUSH1 0x20 ADD SWAP1 JUMP JUMPDEST PUSH1 0x40 MLOAD SWAP1 PUSH2 0x1903 DUP3 PUSH2 0x17CE JUMP JUMPDEST DUP2 PUSH2 0x160 PUSH0 SWAP2 DUP3 DUP2 MSTORE DUP3 PUSH1 0x20 DUP3 ADD MSTORE DUP3 PUSH1 0x40 DUP3 ADD MSTORE DUP3 PUSH1 0x60 DUP3 ADD MSTORE DUP3 PUSH1 0x80 DUP3 ADD MSTORE DUP3 PUSH1 0xA0 DUP3 ADD MSTORE DUP3 PUSH1 0xC0 DUP3 ADD MSTORE DUP3 PUSH1 0xE0 DUP3 ADD MSTORE DUP3 PUSH2 0x100 DUP3 ADD MSTORE DUP3 PUSH2 0x120 DUP3 ADD MSTORE DUP3 PUSH2 0x140 DUP3 ADD MSTORE ADD MSTORE JUMP JUMPDEST SWAP1 PUSH2 0x1959 DUP3 PUSH2 0x18DE JUMP JUMPDEST PUSH2 0x1966 PUSH1 0x40 MLOAD SWAP2 DUP3 PUSH2 0x17EB JUMP JUMPDEST DUP3 DUP2 MSTORE DUP1 SWAP3 PUSH2 0x1977 PUSH1 0x1F NOT SWAP2 PUSH2 0x18DE JUMP JUMPDEST ADD SWAP1 PUSH0 JUMPDEST DUP3 DUP2 LT PUSH2 0x1987 JUMPI POP POP POP JUMP JUMPDEST PUSH1 0x20 SWAP1 PUSH2 0x1992 PUSH2 0x18F6 JUMP JUMPDEST DUP3 DUP3 DUP6 ADD ADD MSTORE ADD PUSH2 0x197B JUMP JUMPDEST PUSH0 NOT DUP2 EQ PUSH2 0x83B JUMPI PUSH1 0x1 ADD SWAP1 JUMP JUMPDEST DUP1 MLOAD DUP3 LT ISZERO PUSH2 0x184E JUMPI PUSH1 0x20 SWAP2 PUSH1 0x5 SHL ADD ADD SWAP1 JUMP JUMPDEST DUP1 SLOAD DUP1 ISZERO PUSH2 0x827 JUMPI PUSH0 NOT ADD SWAP1 PUSH2 0x19D9 PUSH2 0x7AB DUP4 DUP4 PUSH2 0x1862 JUMP JUMPDEST SSTORE JUMP JUMPDEST PUSH0 SWAP1 PUSH1 0x3 DUP1 SLOAD SWAP3 JUMPDEST DUP4 DUP2 LT PUSH2 0x19F4 JUMPI POP POP POP POP PUSH0 NOT SWAP1 JUMP JUMPDEST PUSH2 0x19FD DUP2 PUSH2 0x1819 JUMP JUMPDEST SWAP1 SLOAD SWAP1 DUP4 SHL SHR PUSH1 0x1 PUSH1 0x1 PUSH1 0xA0 SHL SUB SWAP1 DUP2 AND SWAP1 DUP5 AND EQ PUSH2 0x1A24 JUMPI PUSH2 0x1A1F SWAP1 PUSH2 0x199E JUMP JUMPDEST PUSH2 0x19E4 JUMP JUMPDEST SWAP3 POP POP POP SWAP1 JUMP JUMPDEST SWAP1 PUSH0 JUMPDEST DUP3 SLOAD DUP2 LT ISZERO PUSH2 0x1A71 JUMPI PUSH2 0x1A41 DUP2 DUP5 PUSH2 0x1862 JUMP JUMPDEST SWAP1 SLOAD PUSH1 0x3 SWAP2 SWAP1 SWAP2 SHL SHR PUSH1 0x1 PUSH1 0x1 PUSH1 0xA0 SHL SUB SWAP1 DUP2 AND SWAP1 DUP4 AND EQ PUSH2 0x1A6B JUMPI PUSH2 0x1A66 SWAP1 PUSH2 0x199E JUMP JUMPDEST PUSH2 0x1A2E JUMP JUMPDEST SWAP2 POP POP SWAP1 JUMP JUMPDEST POP POP POP PUSH0 NOT SWAP1 JUMP INVALID PUSH1 0x77 PUSH9 0x5936C8169D09204A1D SWAP8 0xDB SLT 0xE4 OR SGT PC DUP13 CODESIZE 0xE1 0xD2 SWAP11 PUSH2 0x867D RETURNDATASIZE 0xCE 0xE9 DUP11 SELFDESTRUCT LOG2 PUSH5 0x6970667358 0x22 SLT KECCAK256 LOG4 SWAP8 0xA7 0xF7 AND 0xFB 0xAD 0xCE 0x4F 0x1F 0xCC PUSH19 0x6161983BB8477E214D52FF1B9E67F517220E08 0xE9 PUSH5 0x736F6C6343 STOP ADDMOD EQ STOP CALLER 0x2F DUP8 DUP9 GT PUSH31 0x7EFF1D82E926EC794901D17C78024A50270940304540A733656F0D00000000 "
		},
		"gasEstimates": {
			"creation": {
				"codeDepositCost": "1372600",
				"executionCost": "infinite",
				"totalCost": "infinite"
			},
			"external": {
				"DEFAULT_ADMIN_ROLE()": "548",
				"POOL_MANAGER_ROLE()": "449",
				"deregisterPool(address)": "infinite",
				"getAllBorrowerPoolDetails(address)": "infinite",
				"getAllLenderPoolDetails(address)": "infinite",
				"getManagers()": "4828",
				"getPoolDetails(address)": "infinite",
				"getPoolsByLender(address)": "infinite",
				"getRoleAdmin(bytes32)": "2436",
				"getTotalPools()": "2740",
				"getVaultForPool(address)": "4912",
				"grantFactoryAccess(address)": "infinite",
				"grantRole(bytes32,address)": "33360",
				"hasRole(bytes32,address)": "2858",
				"markPoolAsFunded(address)": "infinite",
				"poolVaults(address)": "2478",
				"registerManagers(address,address)": "52797",
				"registerPool(address,address,address,address,address,address,address,uint256,uint256,uint256,uint8)": "infinite",
				"registerVault(address,address)": "infinite",
				"renounceRole(bytes32,address)": "28972",
				"revokeRole(bytes32,address)": "33703",
				"rewardManager()": "2324",
				"setBorrowerForPool(address,address)": "infinite",
				"supportsInterface(bytes4)": "270",
				"vaultManager()": "2632"
			},
			"internal": {
				"_removePoolFromBorrowerArray(address,address)": "infinite",
				"_removePoolFromLenderArray(address,address)": "infinite",
				"_removePoolFromMainArray(address)": "infinite",
				"findIndexInArray(address[] storage pointer,address)": "infinite"
			}
		},
		"methodIdentifiers": {
			"DEFAULT_ADMIN_ROLE()": "a217fddf",
			"POOL_MANAGER_ROLE()": "56d73568",
			"deregisterPool(address)": "7e72c7d7",
			"getAllBorrowerPoolDetails(address)": "da7be20b",
			"getAllLenderPoolDetails(address)": "52fc9b0e",
			"getManagers()": "a8d088bb",
			"getPoolDetails(address)": "d3e90fa0",
			"getPoolsByLender(address)": "24a44efb",
			"getRoleAdmin(bytes32)": "248a9ca3",
			"getTotalPools()": "d3ffe67a",
			"getVaultForPool(address)": "7570e389",
			"grantFactoryAccess(address)": "5d102df7",
			"grantRole(bytes32,address)": "2f2ff15d",
			"hasRole(bytes32,address)": "91d14854",
			"markPoolAsFunded(address)": "1f2f2e14",
			"poolVaults(address)": "1e4966ab",
			"registerManagers(address,address)": "c489579d",
			"registerPool(address,address,address,address,address,address,address,uint256,uint256,uint256,uint8)": "43756020",
			"registerVault(address,address)": "05c4fdf9",
			"renounceRole(bytes32,address)": "36568abe",
			"revokeRole(bytes32,address)": "d547741f",
			"rewardManager()": "0f4ef8a6",
			"setBorrowerForPool(address,address)": "37e238c5",
			"supportsInterface(bytes4)": "01ffc9a7",
			"vaultManager()": "8a4adf24"
		}
	},
	"abi": [
		{
			"inputs": [],
			"stateMutability": "nonpayable",
			"type": "constructor"
		},
		{
			"inputs": [],
			"name": "AccessControlBadConfirmation",
			"type": "error"
		},
		{
			"inputs": [
				{
					"internalType": "address",
					"name": "account",
					"type": "address"
				},
				{
					"internalType": "bytes32",
					"name": "neededRole",
					"type": "bytes32"
				}
			],
			"name": "AccessControlUnauthorizedAccount",
			"type": "error"
		},
		{
			"anonymous": false,
			"inputs": [
				{
					"indexed": false,
					"internalType": "address",
					"name": "vaultManager",
					"type": "address"
				},
				{
					"indexed": false,
					"internalType": "address",
					"name": "rewardManager",
					"type": "address"
				}
			],
			"name": "ManagerRegistered",
			"type": "event"
		},
		{
			"anonymous": false,
			"inputs": [
				{
					"indexed": true,
					"internalType": "address",
					"name": "pool",
					"type": "address"
				}
			],
			"name": "PoolDeregistered",
			"type": "event"
		},
		{
			"anonymous": false,
			"inputs": [
				{
					"indexed": true,
					"internalType": "address",
					"name": "pool",
					"type": "address"
				},
				{
					"indexed": true,
					"internalType": "address",
					"name": "lender",
					"type": "address"
				},
				{
					"indexed": true,
					"internalType": "address",
					"name": "borrower",
					"type": "address"
				},
				{
					"indexed": false,
					"internalType": "address",
					"name": "vault",
					"type": "address"
				},
				{
					"indexed": false,
					"internalType": "enum IPoolOrganizer.PoolType",
					"name": "poolType",
					"type": "uint8"
				}
			],
			"name": "PoolRegistered",
			"type": "event"
		},
		{
			"anonymous": false,
			"inputs": [
				{
					"indexed": true,
					"internalType": "bytes32",
					"name": "role",
					"type": "bytes32"
				},
				{
					"indexed": true,
					"internalType": "bytes32",
					"name": "previousAdminRole",
					"type": "bytes32"
				},
				{
					"indexed": true,
					"internalType": "bytes32",
					"name": "newAdminRole",
					"type": "bytes32"
				}
			],
			"name": "RoleAdminChanged",
			"type": "event"
		},
		{
			"anonymous": false,
			"inputs": [
				{
					"indexed": true,
					"internalType": "bytes32",
					"name": "role",
					"type": "bytes32"
				},
				{
					"indexed": true,
					"internalType": "address",
					"name": "account",
					"type": "address"
				},
				{
					"indexed": true,
					"internalType": "address",
					"name": "sender",
					"type": "address"
				}
			],
			"name": "RoleGranted",
			"type": "event"
		},
		{
			"anonymous": false,
			"inputs": [
				{
					"indexed": true,
					"internalType": "bytes32",
					"name": "role",
					"type": "bytes32"
				},
				{
					"indexed": true,
					"internalType": "address",
					"name": "account",
					"type": "address"
				},
				{
					"indexed": true,
					"internalType": "address",
					"name": "sender",
					"type": "address"
				}
			],
			"name": "RoleRevoked",
			"type": "event"
		},
		{
			"anonymous": false,
			"inputs": [
				{
					"indexed": true,
					"internalType": "address",
					"name": "pool",
					"type": "address"
				},
				{
					"indexed": true,
					"internalType": "address",
					"name": "vault",
					"type": "address"
				}
			],
			"name": "VaultRegistered",
			"type": "event"
		},
		{
			"inputs": [],
			"name": "DEFAULT_ADMIN_ROLE",
			"outputs": [
				{
					"internalType": "bytes32",
					"name": "",
					"type": "bytes32"
				}
			],
			"stateMutability": "view",
			"type": "function"
		},
		{
			"inputs": [],
			"name": "POOL_MANAGER_ROLE",
			"outputs": [
				{
					"internalType": "bytes32",
					"name": "",
					"type": "bytes32"
				}
			],
			"stateMutability": "view",
			"type": "function"
		},
		{
			"inputs": [
				{
					"internalType": "address",
					"name": "pool",
					"type": "address"
				}
			],
			"name": "deregisterPool",
			"outputs": [],
			"stateMutability": "nonpayable",
			"type": "function"
		},
		{
			"inputs": [
				{
					"internalType": "address",
					"name": "borrower",
					"type": "address"
				}
			],
			"name": "getAllBorrowerPoolDetails",
			"outputs": [
				{
					"components": [
						{
							"internalType": "address",
							"name": "lender",
							"type": "address"
						},
						{
							"internalType": "address",
							"name": "borrower",
							"type": "address"
						},
						{
							"internalType": "uint256",
							"name": "creationTime",
							"type": "uint256"
						},
						{
							"internalType": "address",
							"name": "vault",
							"type": "address"
						},
						{
							"internalType": "contract IERC20",
							"name": "loanToken",
							"type": "address"
						},
						{
							"internalType": "contract IERC20",
							"name": "assetToken",
							"type": "address"
						},
						{
							"internalType": "contract IERC20",
							"name": "repaymentToken",
							"type": "address"
						},
						{
							"internalType": "uint256",
							"name": "loanAmount",
							"type": "uint256"
						},
						{
							"internalType": "uint256",
							"name": "interestRate",
							"type": "uint256"
						},
						{
							"internalType": "uint256",
							"name": "repaymentPeriod",
							"type": "uint256"
						},
						{
							"internalType": "enum IPoolOrganizer.PoolType",
							"name": "poolType",
							"type": "uint8"
						},
						{
							"internalType": "bool",
							"name": "funded",
							"type": "bool"
						}
					],
					"internalType": "struct IPoolOrganizer.PoolDetails[]",
					"name": "",
					"type": "tuple[]"
				}
			],
			"stateMutability": "view",
			"type": "function"
		},
		{
			"inputs": [
				{
					"internalType": "address",
					"name": "lender",
					"type": "address"
				}
			],
			"name": "getAllLenderPoolDetails",
			"outputs": [
				{
					"components": [
						{
							"internalType": "address",
							"name": "lender",
							"type": "address"
						},
						{
							"internalType": "address",
							"name": "borrower",
							"type": "address"
						},
						{
							"internalType": "uint256",
							"name": "creationTime",
							"type": "uint256"
						},
						{
							"internalType": "address",
							"name": "vault",
							"type": "address"
						},
						{
							"internalType": "contract IERC20",
							"name": "loanToken",
							"type": "address"
						},
						{
							"internalType": "contract IERC20",
							"name": "assetToken",
							"type": "address"
						},
						{
							"internalType": "contract IERC20",
							"name": "repaymentToken",
							"type": "address"
						},
						{
							"internalType": "uint256",
							"name": "loanAmount",
							"type": "uint256"
						},
						{
							"internalType": "uint256",
							"name": "interestRate",
							"type": "uint256"
						},
						{
							"internalType": "uint256",
							"name": "repaymentPeriod",
							"type": "uint256"
						},
						{
							"internalType": "enum IPoolOrganizer.PoolType",
							"name": "poolType",
							"type": "uint8"
						},
						{
							"internalType": "bool",
							"name": "funded",
							"type": "bool"
						}
					],
					"internalType": "struct IPoolOrganizer.PoolDetails[]",
					"name": "",
					"type": "tuple[]"
				}
			],
			"stateMutability": "view",
			"type": "function"
		},
		{
			"inputs": [],
			"name": "getManagers",
			"outputs": [
				{
					"internalType": "address",
					"name": "",
					"type": "address"
				},
				{
					"internalType": "address",
					"name": "",
					"type": "address"
				}
			],
			"stateMutability": "view",
			"type": "function"
		},
		{
			"inputs": [
				{
					"internalType": "address",
					"name": "pool",
					"type": "address"
				}
			],
			"name": "getPoolDetails",
			"outputs": [
				{
					"components": [
						{
							"internalType": "address",
							"name": "lender",
							"type": "address"
						},
						{
							"internalType": "address",
							"name": "borrower",
							"type": "address"
						},
						{
							"internalType": "uint256",
							"name": "creationTime",
							"type": "uint256"
						},
						{
							"internalType": "address",
							"name": "vault",
							"type": "address"
						},
						{
							"internalType": "contract IERC20",
							"name": "loanToken",
							"type": "address"
						},
						{
							"internalType": "contract IERC20",
							"name": "assetToken",
							"type": "address"
						},
						{
							"internalType": "contract IERC20",
							"name": "repaymentToken",
							"type": "address"
						},
						{
							"internalType": "uint256",
							"name": "loanAmount",
							"type": "uint256"
						},
						{
							"internalType": "uint256",
							"name": "interestRate",
							"type": "uint256"
						},
						{
							"internalType": "uint256",
							"name": "repaymentPeriod",
							"type": "uint256"
						},
						{
							"internalType": "enum IPoolOrganizer.PoolType",
							"name": "poolType",
							"type": "uint8"
						},
						{
							"internalType": "bool",
							"name": "funded",
							"type": "bool"
						}
					],
					"internalType": "struct IPoolOrganizer.PoolDetails",
					"name": "",
					"type": "tuple"
				}
			],
			"stateMutability": "view",
			"type": "function"
		},
		{
			"inputs": [
				{
					"internalType": "address",
					"name": "lender",
					"type": "address"
				}
			],
			"name": "getPoolsByLender",
			"outputs": [
				{
					"internalType": "address[]",
					"name": "",
					"type": "address[]"
				}
			],
			"stateMutability": "view",
			"type": "function"
		},
		{
			"inputs": [
				{
					"internalType": "bytes32",
					"name": "role",
					"type": "bytes32"
				}
			],
			"name": "getRoleAdmin",
			"outputs": [
				{
					"internalType": "bytes32",
					"name": "",
					"type": "bytes32"
				}
			],
			"stateMutability": "view",
			"type": "function"
		},
		{
			"inputs": [],
			"name": "getTotalPools",
			"outputs": [
				{
					"internalType": "uint256",
					"name": "",
					"type": "uint256"
				}
			],
			"stateMutability": "view",
			"type": "function"
		},
		{
			"inputs": [
				{
					"internalType": "address",
					"name": "pool",
					"type": "address"
				}
			],
			"name": "getVaultForPool",
			"outputs": [
				{
					"internalType": "address",
					"name": "",
					"type": "address"
				}
			],
			"stateMutability": "view",
			"type": "function"
		},
		{
			"inputs": [
				{
					"internalType": "address",
					"name": "factoryAddress",
					"type": "address"
				}
			],
			"name": "grantFactoryAccess",
			"outputs": [],
			"stateMutability": "nonpayable",
			"type": "function"
		},
		{
			"inputs": [
				{
					"internalType": "bytes32",
					"name": "role",
					"type": "bytes32"
				},
				{
					"internalType": "address",
					"name": "account",
					"type": "address"
				}
			],
			"name": "grantRole",
			"outputs": [],
			"stateMutability": "nonpayable",
			"type": "function"
		},
		{
			"inputs": [
				{
					"internalType": "bytes32",
					"name": "role",
					"type": "bytes32"
				},
				{
					"internalType": "address",
					"name": "account",
					"type": "address"
				}
			],
			"name": "hasRole",
			"outputs": [
				{
					"internalType": "bool",
					"name": "",
					"type": "bool"
				}
			],
			"stateMutability": "view",
			"type": "function"
		},
		{
			"inputs": [
				{
					"internalType": "address",
					"name": "pool",
					"type": "address"
				}
			],
			"name": "markPoolAsFunded",
			"outputs": [],
			"stateMutability": "nonpayable",
			"type": "function"
		},
		{
			"inputs": [
				{
					"internalType": "address",
					"name": "",
					"type": "address"
				}
			],
			"name": "poolVaults",
			"outputs": [
				{
					"internalType": "address",
					"name": "",
					"type": "address"
				}
			],
			"stateMutability": "view",
			"type": "function"
		},
		{
			"inputs": [
				{
					"internalType": "address",
					"name": "_vaultManager",
					"type": "address"
				},
				{
					"internalType": "address",
					"name": "_rewardManager",
					"type": "address"
				}
			],
			"name": "registerManagers",
			"outputs": [],
			"stateMutability": "nonpayable",
			"type": "function"
		},
		{
			"inputs": [
				{
					"internalType": "address",
					"name": "pool",
					"type": "address"
				},
				{
					"internalType": "address",
					"name": "lender",
					"type": "address"
				},
				{
					"internalType": "address",
					"name": "borrower",
					"type": "address"
				},
				{
					"internalType": "address",
					"name": "vault",
					"type": "address"
				},
				{
					"internalType": "contract IERC20",
					"name": "loanToken",
					"type": "address"
				},
				{
					"internalType": "contract IERC20",
					"name": "assetToken",
					"type": "address"
				},
				{
					"internalType": "contract IERC20",
					"name": "repaymentToken",
					"type": "address"
				},
				{
					"internalType": "uint256",
					"name": "loanAmount",
					"type": "uint256"
				},
				{
					"internalType": "uint256",
					"name": "interestRate",
					"type": "uint256"
				},
				{
					"internalType": "uint256",
					"name": "repaymentPeriod",
					"type": "uint256"
				},
				{
					"internalType": "enum IPoolOrganizer.PoolType",
					"name": "poolType",
					"type": "uint8"
				}
			],
			"name": "registerPool",
			"outputs": [],
			"stateMutability": "nonpayable",
			"type": "function"
		},
		{
			"inputs": [
				{
					"internalType": "address",
					"name": "pool",
					"type": "address"
				},
				{
					"internalType": "address",
					"name": "vault",
					"type": "address"
				}
			],
			"name": "registerVault",
			"outputs": [],
			"stateMutability": "nonpayable",
			"type": "function"
		},
		{
			"inputs": [
				{
					"internalType": "bytes32",
					"name": "role",
					"type": "bytes32"
				},
				{
					"internalType": "address",
					"name": "callerConfirmation",
					"type": "address"
				}
			],
			"name": "renounceRole",
			"outputs": [],
			"stateMutability": "nonpayable",
			"type": "function"
		},
		{
			"inputs": [
				{
					"internalType": "bytes32",
					"name": "role",
					"type": "bytes32"
				},
				{
					"internalType": "address",
					"name": "account",
					"type": "address"
				}
			],
			"name": "revokeRole",
			"outputs": [],
			"stateMutability": "nonpayable",
			"type": "function"
		},
		{
			"inputs": [],
			"name": "rewardManager",
			"outputs": [
				{
					"internalType": "contract IRewardManager",
					"name": "",
					"type": "address"
				}
			],
			"stateMutability": "view",
			"type": "function"
		},
		{
			"inputs": [
				{
					"internalType": "address",
					"name": "pool",
					"type": "address"
				},
				{
					"internalType": "address",
					"name": "newBorrower",
					"type": "address"
				}
			],
			"name": "setBorrowerForPool",
			"outputs": [],
			"stateMutability": "nonpayable",
			"type": "function"
		},
		{
			"inputs": [
				{
					"internalType": "bytes4",
					"name": "interfaceId",
					"type": "bytes4"
				}
			],
			"name": "supportsInterface",
			"outputs": [
				{
					"internalType": "bool",
					"name": "",
					"type": "bool"
				}
			],
			"stateMutability": "view",
			"type": "function"
		},
		{
			"inputs": [],
			"name": "vaultManager",
			"outputs": [
				{
					"internalType": "contract IVaultManager",
					"name": "",
					"type": "address"
				}
			],
			"stateMutability": "view",
			"type": "function"
		}
	]
}