{
	"data": {
		"bytecode": {
			"linkReferences": {},
			"object": "60806040523461002c5761001233610030565b5061001c3361009c565b506040516114b6908161013b8239f35b5f80fd5b6001600160a01b03165f8181525f80516020611611833981519152602052604090205460ff16610097575f8181525f8051602061161183398151915260205260408120805460ff191660011790553391905f805160206115f18339815191528180a4600190565b505f90565b6001600160a01b03165f8181527f729ef9451dd492832bd2a98139702ced95dfa0cec7e99526dbbcb957abcbc47660205260409020547f6077685936c8169d09204a1d97db12e41713588c38e1d29a61867d3dcee98aff919060ff1661013457815f525f60205260405f20815f5260205260405f20600160ff1982541617905533915f805160206115f18339815191525f80a4600190565b50505f9056fe6080806040526004361015610012575f80fd5b5f3560e01c90816301ffc9a714610fc85750806305c4fdf914610e745780630f4ef8a614610e4c5780631e4966ab14610e13578063248a9ca314610de757806324a44efb14610d245780632f2ff15d14610ce857806336568abe14610ca1578063437560201461090c57806356d73568146108e55780635d102df7146108265780637570e389146107865780637e72c7d7146105785780638a4adf241461055057806391d1485414610508578063a217fddf146104ee578063a8d088bb146104bb578063c489579d14610328578063d3e90fa014610162578063d3ffe67a146101455763d547741f14610103575f80fd5b346101415760403660031901126101415761013f600435610122611031565b90805f525f60205261013a600160405f200154611183565b61135d565b005b5f80fd5b34610141575f366003190112610141576020600354604051908152f35b346101415760203660031901126101415761017b61101b565b5f61014060405161018b81611096565b8281528260208201528260408201528260608201528260808201528260a08201528260c08201528260e08201528261010082015282610120820152015260018060a01b0316805f5260046020526101ef60018060a01b0360405f2054161515611054565b5f52600460205261016060405f2061029260ff600a6040519361021185611096565b80546001600160a01b039081168652600182015481166020870152600282015460408701526003820154811660608701526004820154811660808701526005820154811660a087015260068201541660c0860152600781015460e08601526008810154610100860152600981015461012086015201541661014083016110b3565b6040805182516001600160a01b039081168252602080850151821690830152838301519282019290925260608084015183169082015260808084015183169082015260a08084015183169082015260c0808401519092169181019190915260e08083015190820152610100808301519082015261012080830151908201526101409182015190916103269190830190611047565bf35b346101415760403660031901126101415761034161101b565b610349611031565b335f9081527fad3228b676f7d3cd4284a5443f17f1962b36e491b30a40b2405849e597ba5fb5602052604090205460ff161561049d576001600160a01b038281169290831561044c57821680156103fb57600180546001600160a01b03199081169590951790556002805490941617909255604080516001600160a01b0393841681529190921660208201527f8fc18cc172f74c81235145b7927190d2bd0e351fc45bfb17bb572593273cef219190a1005b60405162461bcd60e51b8152602060048201526024808201527f5265776172644d616e616765722063616e6e6f74206265207a65726f206164646044820152637265737360e01b6064820152608490fd5b60405162461bcd60e51b815260206004820152602360248201527f5661756c744d616e616765722063616e6e6f74206265207a65726f206164647260448201526265737360e81b6064820152608490fd5b60405163e2517d3f60e01b81523360048201525f6024820152604490fd5b34610141575f36600319011261014157600154600254604080516001600160a01b03938416815292909116602083015290f35b34610141575f3660031901126101415760206040515f8152f35b3461014157604036600319011261014157610521611031565b6004355f525f60205260405f209060018060a01b03165f52602052602060ff60405f2054166040519015158152f35b34610141575f366003190112610141576001546040516001600160a01b039091168152602090f35b34610141576020806003193601126101415761059261101b565b9061059b61111d565b60018060a01b039081831692835f52600482526105bf8360405f2054161515611054565b835f52600482528260405f205416805f526005938484526105e38360405f20611418565b92825f5285855260405f2054925f19938481019081116107725761061361064e91835f5289895260405f20611108565b90548561062b600399865f528c8c5260405f20611108565b9290938a1b1c169060018060a01b038084549260031b9316831b921b1916179055565b5f5285855260405f2090815491821561075e578461069093019061068a6106758383611108565b81549060018060a01b039060031b1b19169055565b556113cf565b8354838101908111610772576106d7926106ac6106b9926110bf565b905490871b1c16916110bf565b90919060018060a01b038084549260031b9316831b921b1916179055565b815493841561075e576004600a945f96938794016106f7610675826110bf565b85558784525281604081209381855581600186015581600286015584015581600484015582015582600682015582600782015582600882015582600982015501557f334d0b2111287dfddebe4b4c1c5af3ae644909d7fcd024377bf601e236ed5abb5f80a2005b634e487b7160e01b5f52603160045260245ffd5b634e487b7160e01b5f52601160045260245ffd5b34610141576020366003190112610141576001600160a01b03806107a861101b565b1690815f5260066020528060405f205416156107d5576020915f526006825260405f205416604051908152f35b60405162461bcd60e51b815260206004820152602360248201527f506f6f6c206e6f742072656769737465726564206f7220686173206e6f2076616044820152621d5b1d60ea1b6064820152608490fd5b34610141576020806003193601126101415761084061101b565b5f80525f825260405f20335f52825260ff60405f205416156108a7575f61013f925f8051602061146183398151915282528181526108846001604084200154611183565b61088d836111a4565b50818052526108a2600160405f200154611183565b611242565b60405162461bcd60e51b815260048101839052601660248201527521b0b63632b91034b9903737ba1030b71030b236b4b760511b6044820152606490fd5b34610141575f3660031901126101415760206040515f805160206114618339815191528152f35b34610141576101603660031901126101415761092661101b565b61092e611031565b906044356001600160a01b038116810361014157606435906001600160a01b0382168203610141576084356001600160a01b03811681036101415760a4356001600160a01b03811681036101415760c435906001600160a01b0382168203610141576002610144351015610141576109a461111d565b6001600160a01b03861615610c5c576001600160a01b038681165f9081526004602052604090205416610c1757604051926109de84611096565b6001600160a01b03888116855285811660208601524260408601528681166060860152908116608085015290811660a08401521660c082015260e43560e08201526101043561010082015261012435610120820152610a446101443561014083016110b3565b60018060a01b0384165f526004602052610140600a60405f2060018060a01b038451166bffffffffffffffffffffffff60a01b90818354161782556001820160018060a01b0360208701511682825416179055604085015160028301556003820160018060a01b03606087015116828254161790556004820160018060a01b03608087015116828254161790556005820160018060a01b0360a08701511682825416179055600682019060018060a01b0360c0870151169082541617905560e0840151600782015561010084015160088201556101208401516009820155019101516002811015610c035760ff8019835416911617905560018060a01b0384165f52600560205260405f20805490680100000000000000009182811015610bef576106b981610b799360018994018155611108565b60035490811015610bef577f8f723e49dc038e67c41b41307a1e0c65653d50125a0c474a21ac32d9a0b24d2b91610bbc856106b9846001604096016003556110bf565b81516001600160a01b039094168452610bdb6020850161014435611047565b6001600160a01b03908116958116941692a4005b634e487b7160e01b5f52604160045260245ffd5b634e487b7160e01b5f52602160045260245ffd5b60405162461bcd60e51b815260206004820152601760248201527f506f6f6c20616c726561647920726567697374657265640000000000000000006044820152606490fd5b60405162461bcd60e51b815260206004820152601b60248201527f506f6f6c20616464726573732063616e6e6f74206265207a65726f00000000006044820152606490fd5b3461014157604036600319011261014157610cba611031565b336001600160a01b03821603610cd65761013f9060043561135d565b60405163334bd91960e11b8152600490fd5b346101415760403660031901126101415761013f600435610d07611031565b90805f525f602052610d1f600160405f200154611183565b6112e7565b3461014157602080600319360112610141576001600160a01b039081610d4861101b565b165f526005815260405f206040518083835491828152019081935f52845f20905f5b86828210610dd15750505050819003601f01601f191681019267ffffffffffffffff841182851017610bef57908360405281840190828552518091526040840192915f5b828110610dbb5785850386f35b8351871685529381019392810192600101610dae565b8354891685529093019260019283019201610d6a565b34610141576020366003190112610141576004355f525f6020526020600160405f200154604051908152f35b346101415760203660031901126101415760206001600160a01b0380610e3761101b565b165f526006825260405f205416604051908152f35b34610141575f366003190112610141576002546040516001600160a01b039091168152602090f35b3461014157604036600319011261014157610e8d61101b565b610e95611031565b90610e9e61111d565b6001600160a01b039081169081151580610fbd575b15610f8457815f526004602052610ed18160405f2054161515611054565b815f5260066020528060405f205416610f3057815f52600660205260405f20921691826bffffffffffffffffffffffff60a01b8254161790557ff8ee9039d8e4d43426638703c71517008894fdea742bb2d2dbff5a46fb07abdb5f80a3005b60405162461bcd60e51b815260206004820152602660248201527f5661756c7420616c7265616479207265676973746572656420666f72207468696044820152651cc81c1bdbdb60d21b6064820152608490fd5b60405162461bcd60e51b8152602060048201526011602482015270496e76616c69642061646472657373657360781b6044820152606490fd5b508083161515610eb3565b34610141576020366003190112610141576004359063ffffffff60e01b821680920361014157602091637965db0b60e01b811490811561100a575b5015158152f35b6301ffc9a760e01b14905083611003565b600435906001600160a01b038216820361014157565b602435906001600160a01b038216820361014157565b906002821015610c035752565b1561105b57565b60405162461bcd60e51b8152602060048201526013602482015272141bdbdb081b9bdd081c9959da5cdd195c9959606a1b6044820152606490fd5b610160810190811067ffffffffffffffff821117610bef57604052565b6002821015610c035752565b6003548110156110f45760035f527fc2575a0e9e593c00f959f8c92f12db2869c3395a3b0502d05e2516446f71f85b01905f90565b634e487b7160e01b5f52603260045260245ffd5b80548210156110f4575f5260205f2001905f90565b335f9081527f729ef9451dd492832bd2a98139702ced95dfa0cec7e99526dbbcb957abcbc47660205260409020545f805160206114618339815191529060ff16156111655750565b6044906040519063e2517d3f60e01b82523360048301526024820152fd5b805f525f60205260405f20335f5260205260ff60405f205416156111655750565b6001600160a01b03165f8181527f729ef9451dd492832bd2a98139702ced95dfa0cec7e99526dbbcb957abcbc47660205260409020545f80516020611461833981519152919060ff1661123c57815f525f60205260405f20815f5260205260405f20600160ff1982541617905533917f2f8788117e7eff1d82e926ec794901d17c78024a50270940304540a733656f0d5f80a4600190565b50505f90565b6001600160a01b03165f8181527fad3228b676f7d3cd4284a5443f17f1962b36e491b30a40b2405849e597ba5fb5602052604090205460ff166112e2575f8181527fad3228b676f7d3cd4284a5443f17f1962b36e491b30a40b2405849e597ba5fb560205260408120805460ff191660011790553391907f2f8788117e7eff1d82e926ec794901d17c78024a50270940304540a733656f0d8180a4600190565b505f90565b90815f525f60205260405f209060018060a01b031690815f5260205260ff60405f205416155f1461123c57815f525f60205260405f20815f5260205260405f20600160ff1982541617905533917f2f8788117e7eff1d82e926ec794901d17c78024a50270940304540a733656f0d5f80a4600190565b90815f525f60205260405f209060018060a01b031690815f5260205260ff60405f2054165f1461123c57815f525f60205260405f20815f5260205260405f2060ff19815416905533917ff6391f5c32d9c69d2a47ea670b442974b53935d1edc7fd64eb21e047a839171b5f80a4600190565b5f9060038054925b8381106113e757505050505f1990565b6113f0816110bf565b905490831b1c6001600160a01b0390811690841614611411576001016113d7565b9250505090565b905f5b82548110156114585761142e8184611108565b905460039190911b1c6001600160a01b03908116908316146114525760010161141b565b91505090565b5050505f199056fe6077685936c8169d09204a1d97db12e41713588c38e1d29a61867d3dcee98affa2646970667358221220512b33603693a8f311a5d79356a2577023d7feaf5e1960c6a1a90950138c5d1f64736f6c634300081900332f8788117e7eff1d82e926ec794901d17c78024a50270940304540a733656f0dad3228b676f7d3cd4284a5443f17f1962b36e491b30a40b2405849e597ba5fb5",
			"opcodes": "PUSH1 0x80 PUSH1 0x40 MSTORE CALLVALUE PUSH2 0x2C JUMPI PUSH2 0x12 CALLER PUSH2 0x30 JUMP JUMPDEST POP PUSH2 0x1C CALLER PUSH2 0x9C JUMP JUMPDEST POP PUSH1 0x40 MLOAD PUSH2 0x14B6 SWAP1 DUP2 PUSH2 0x13B DUP3 CODECOPY RETURN JUMPDEST PUSH0 DUP1 REVERT JUMPDEST PUSH1 0x1 PUSH1 0x1 PUSH1 0xA0 SHL SUB AND PUSH0 DUP2 DUP2 MSTORE PUSH0 DUP1 MLOAD PUSH1 0x20 PUSH2 0x1611 DUP4 CODECOPY DUP2 MLOAD SWAP2 MSTORE PUSH1 0x20 MSTORE PUSH1 0x40 SWAP1 KECCAK256 SLOAD PUSH1 0xFF AND PUSH2 0x97 JUMPI PUSH0 DUP2 DUP2 MSTORE PUSH0 DUP1 MLOAD PUSH1 0x20 PUSH2 0x1611 DUP4 CODECOPY DUP2 MLOAD SWAP2 MSTORE PUSH1 0x20 MSTORE PUSH1 0x40 DUP2 KECCAK256 DUP1 SLOAD PUSH1 0xFF NOT AND PUSH1 0x1 OR SWAP1 SSTORE CALLER SWAP2 SWAP1 PUSH0 DUP1 MLOAD PUSH1 0x20 PUSH2 0x15F1 DUP4 CODECOPY DUP2 MLOAD SWAP2 MSTORE DUP2 DUP1 LOG4 PUSH1 0x1 SWAP1 JUMP JUMPDEST POP PUSH0 SWAP1 JUMP JUMPDEST PUSH1 0x1 PUSH1 0x1 PUSH1 0xA0 SHL SUB AND PUSH0 DUP2 DUP2 MSTORE PUSH32 0x729EF9451DD492832BD2A98139702CED95DFA0CEC7E99526DBBCB957ABCBC476 PUSH1 0x20 MSTORE PUSH1 0x40 SWAP1 KECCAK256 SLOAD PUSH32 0x6077685936C8169D09204A1D97DB12E41713588C38E1D29A61867D3DCEE98AFF SWAP2 SWAP1 PUSH1 0xFF AND PUSH2 0x134 JUMPI DUP2 PUSH0 MSTORE PUSH0 PUSH1 0x20 MSTORE PUSH1 0x40 PUSH0 KECCAK256 DUP2 PUSH0 MSTORE PUSH1 0x20 MSTORE PUSH1 0x40 PUSH0 KECCAK256 PUSH1 0x1 PUSH1 0xFF NOT DUP3 SLOAD AND OR SWAP1 SSTORE CALLER SWAP2 PUSH0 DUP1 MLOAD PUSH1 0x20 PUSH2 0x15F1 DUP4 CODECOPY DUP2 MLOAD SWAP2 MSTORE PUSH0 DUP1 LOG4 PUSH1 0x1 SWAP1 JUMP JUMPDEST POP POP PUSH0 SWAP1 JUMP INVALID PUSH1 0x80 DUP1 PUSH1 0x40 MSTORE PUSH1 0x4 CALLDATASIZE LT ISZERO PUSH2 0x12 JUMPI PUSH0 DUP1 REVERT JUMPDEST PUSH0 CALLDATALOAD PUSH1 0xE0 SHR SWAP1 DUP2 PUSH4 0x1FFC9A7 EQ PUSH2 0xFC8 JUMPI POP DUP1 PUSH4 0x5C4FDF9 EQ PUSH2 0xE74 JUMPI DUP1 PUSH4 0xF4EF8A6 EQ PUSH2 0xE4C JUMPI DUP1 PUSH4 0x1E4966AB EQ PUSH2 0xE13 JUMPI DUP1 PUSH4 0x248A9CA3 EQ PUSH2 0xDE7 JUMPI DUP1 PUSH4 0x24A44EFB EQ PUSH2 0xD24 JUMPI DUP1 PUSH4 0x2F2FF15D EQ PUSH2 0xCE8 JUMPI DUP1 PUSH4 0x36568ABE EQ PUSH2 0xCA1 JUMPI DUP1 PUSH4 0x43756020 EQ PUSH2 0x90C JUMPI DUP1 PUSH4 0x56D73568 EQ PUSH2 0x8E5 JUMPI DUP1 PUSH4 0x5D102DF7 EQ PUSH2 0x826 JUMPI DUP1 PUSH4 0x7570E389 EQ PUSH2 0x786 JUMPI DUP1 PUSH4 0x7E72C7D7 EQ PUSH2 0x578 JUMPI DUP1 PUSH4 0x8A4ADF24 EQ PUSH2 0x550 JUMPI DUP1 PUSH4 0x91D14854 EQ PUSH2 0x508 JUMPI DUP1 PUSH4 0xA217FDDF EQ PUSH2 0x4EE JUMPI DUP1 PUSH4 0xA8D088BB EQ PUSH2 0x4BB JUMPI DUP1 PUSH4 0xC489579D EQ PUSH2 0x328 JUMPI DUP1 PUSH4 0xD3E90FA0 EQ PUSH2 0x162 JUMPI DUP1 PUSH4 0xD3FFE67A EQ PUSH2 0x145 JUMPI PUSH4 0xD547741F EQ PUSH2 0x103 JUMPI PUSH0 DUP1 REVERT JUMPDEST CALLVALUE PUSH2 0x141 JUMPI PUSH1 0x40 CALLDATASIZE PUSH1 0x3 NOT ADD SLT PUSH2 0x141 JUMPI PUSH2 0x13F PUSH1 0x4 CALLDATALOAD PUSH2 0x122 PUSH2 0x1031 JUMP JUMPDEST SWAP1 DUP1 PUSH0 MSTORE PUSH0 PUSH1 0x20 MSTORE PUSH2 0x13A PUSH1 0x1 PUSH1 0x40 PUSH0 KECCAK256 ADD SLOAD PUSH2 0x1183 JUMP JUMPDEST PUSH2 0x135D JUMP JUMPDEST STOP JUMPDEST PUSH0 DUP1 REVERT JUMPDEST CALLVALUE PUSH2 0x141 JUMPI PUSH0 CALLDATASIZE PUSH1 0x3 NOT ADD SLT PUSH2 0x141 JUMPI PUSH1 0x20 PUSH1 0x3 SLOAD PUSH1 0x40 MLOAD SWAP1 DUP2 MSTORE RETURN JUMPDEST CALLVALUE PUSH2 0x141 JUMPI PUSH1 0x20 CALLDATASIZE PUSH1 0x3 NOT ADD SLT PUSH2 0x141 JUMPI PUSH2 0x17B PUSH2 0x101B JUMP JUMPDEST PUSH0 PUSH2 0x140 PUSH1 0x40 MLOAD PUSH2 0x18B DUP2 PUSH2 0x1096 JUMP JUMPDEST DUP3 DUP2 MSTORE DUP3 PUSH1 0x20 DUP3 ADD MSTORE DUP3 PUSH1 0x40 DUP3 ADD MSTORE DUP3 PUSH1 0x60 DUP3 ADD MSTORE DUP3 PUSH1 0x80 DUP3 ADD MSTORE DUP3 PUSH1 0xA0 DUP3 ADD MSTORE DUP3 PUSH1 0xC0 DUP3 ADD MSTORE DUP3 PUSH1 0xE0 DUP3 ADD MSTORE DUP3 PUSH2 0x100 DUP3 ADD MSTORE DUP3 PUSH2 0x120 DUP3 ADD MSTORE ADD MSTORE PUSH1 0x1 DUP1 PUSH1 0xA0 SHL SUB AND DUP1 PUSH0 MSTORE PUSH1 0x4 PUSH1 0x20 MSTORE PUSH2 0x1EF PUSH1 0x1 DUP1 PUSH1 0xA0 SHL SUB PUSH1 0x40 PUSH0 KECCAK256 SLOAD AND ISZERO ISZERO PUSH2 0x1054 JUMP JUMPDEST PUSH0 MSTORE PUSH1 0x4 PUSH1 0x20 MSTORE PUSH2 0x160 PUSH1 0x40 PUSH0 KECCAK256 PUSH2 0x292 PUSH1 0xFF PUSH1 0xA PUSH1 0x40 MLOAD SWAP4 PUSH2 0x211 DUP6 PUSH2 0x1096 JUMP JUMPDEST DUP1 SLOAD PUSH1 0x1 PUSH1 0x1 PUSH1 0xA0 SHL SUB SWAP1 DUP2 AND DUP7 MSTORE PUSH1 0x1 DUP3 ADD SLOAD DUP2 AND PUSH1 0x20 DUP8 ADD MSTORE PUSH1 0x2 DUP3 ADD SLOAD PUSH1 0x40 DUP8 ADD MSTORE PUSH1 0x3 DUP3 ADD SLOAD DUP2 AND PUSH1 0x60 DUP8 ADD MSTORE PUSH1 0x4 DUP3 ADD SLOAD DUP2 AND PUSH1 0x80 DUP8 ADD MSTORE PUSH1 0x5 DUP3 ADD SLOAD DUP2 AND PUSH1 0xA0 DUP8 ADD MSTORE PUSH1 0x6 DUP3 ADD SLOAD AND PUSH1 0xC0 DUP7 ADD MSTORE PUSH1 0x7 DUP2 ADD SLOAD PUSH1 0xE0 DUP7 ADD MSTORE PUSH1 0x8 DUP2 ADD SLOAD PUSH2 0x100 DUP7 ADD MSTORE PUSH1 0x9 DUP2 ADD SLOAD PUSH2 0x120 DUP7 ADD MSTORE ADD SLOAD AND PUSH2 0x140 DUP4 ADD PUSH2 0x10B3 JUMP JUMPDEST PUSH1 0x40 DUP1 MLOAD DUP3 MLOAD PUSH1 0x1 PUSH1 0x1 PUSH1 0xA0 SHL SUB SWAP1 DUP2 AND DUP3 MSTORE PUSH1 0x20 DUP1 DUP6 ADD MLOAD DUP3 AND SWAP1 DUP4 ADD MSTORE DUP4 DUP4 ADD MLOAD SWAP3 DUP3 ADD SWAP3 SWAP1 SWAP3 MSTORE PUSH1 0x60 DUP1 DUP5 ADD MLOAD DUP4 AND SWAP1 DUP3 ADD MSTORE PUSH1 0x80 DUP1 DUP5 ADD MLOAD DUP4 AND SWAP1 DUP3 ADD MSTORE PUSH1 0xA0 DUP1 DUP5 ADD MLOAD DUP4 AND SWAP1 DUP3 ADD MSTORE PUSH1 0xC0 DUP1 DUP5 ADD MLOAD SWAP1 SWAP3 AND SWAP2 DUP2 ADD SWAP2 SWAP1 SWAP2 MSTORE PUSH1 0xE0 DUP1 DUP4 ADD MLOAD SWAP1 DUP3 ADD MSTORE PUSH2 0x100 DUP1 DUP4 ADD MLOAD SWAP1 DUP3 ADD MSTORE PUSH2 0x120 DUP1 DUP4 ADD MLOAD SWAP1 DUP3 ADD MSTORE PUSH2 0x140 SWAP2 DUP3 ADD MLOAD SWAP1 SWAP2 PUSH2 0x326 SWAP2 SWAP1 DUP4 ADD SWAP1 PUSH2 0x1047 JUMP JUMPDEST RETURN JUMPDEST CALLVALUE PUSH2 0x141 JUMPI PUSH1 0x40 CALLDATASIZE PUSH1 0x3 NOT ADD SLT PUSH2 0x141 JUMPI PUSH2 0x341 PUSH2 0x101B JUMP JUMPDEST PUSH2 0x349 PUSH2 0x1031 JUMP JUMPDEST CALLER PUSH0 SWAP1 DUP2 MSTORE PUSH32 0xAD3228B676F7D3CD4284A5443F17F1962B36E491B30A40B2405849E597BA5FB5 PUSH1 0x20 MSTORE PUSH1 0x40 SWAP1 KECCAK256 SLOAD PUSH1 0xFF AND ISZERO PUSH2 0x49D JUMPI PUSH1 0x1 PUSH1 0x1 PUSH1 0xA0 SHL SUB DUP3 DUP2 AND SWAP3 SWAP1 DUP4 ISZERO PUSH2 0x44C JUMPI DUP3 AND DUP1 ISZERO PUSH2 0x3FB JUMPI PUSH1 0x1 DUP1 SLOAD PUSH1 0x1 PUSH1 0x1 PUSH1 0xA0 SHL SUB NOT SWAP1 DUP2 AND SWAP6 SWAP1 SWAP6 OR SWAP1 SSTORE PUSH1 0x2 DUP1 SLOAD SWAP1 SWAP5 AND OR SWAP1 SWAP3 SSTORE PUSH1 0x40 DUP1 MLOAD PUSH1 0x1 PUSH1 0x1 PUSH1 0xA0 SHL SUB SWAP4 DUP5 AND DUP2 MSTORE SWAP2 SWAP1 SWAP3 AND PUSH1 0x20 DUP3 ADD MSTORE PUSH32 0x8FC18CC172F74C81235145B7927190D2BD0E351FC45BFB17BB572593273CEF21 SWAP2 SWAP1 LOG1 STOP JUMPDEST PUSH1 0x40 MLOAD PUSH3 0x461BCD PUSH1 0xE5 SHL DUP2 MSTORE PUSH1 0x20 PUSH1 0x4 DUP3 ADD MSTORE PUSH1 0x24 DUP1 DUP3 ADD MSTORE PUSH32 0x5265776172644D616E616765722063616E6E6F74206265207A65726F20616464 PUSH1 0x44 DUP3 ADD MSTORE PUSH4 0x72657373 PUSH1 0xE0 SHL PUSH1 0x64 DUP3 ADD MSTORE PUSH1 0x84 SWAP1 REVERT JUMPDEST PUSH1 0x40 MLOAD PUSH3 0x461BCD PUSH1 0xE5 SHL DUP2 MSTORE PUSH1 0x20 PUSH1 0x4 DUP3 ADD MSTORE PUSH1 0x23 PUSH1 0x24 DUP3 ADD MSTORE PUSH32 0x5661756C744D616E616765722063616E6E6F74206265207A65726F2061646472 PUSH1 0x44 DUP3 ADD MSTORE PUSH3 0x657373 PUSH1 0xE8 SHL PUSH1 0x64 DUP3 ADD MSTORE PUSH1 0x84 SWAP1 REVERT JUMPDEST PUSH1 0x40 MLOAD PUSH4 0xE2517D3F PUSH1 0xE0 SHL DUP2 MSTORE CALLER PUSH1 0x4 DUP3 ADD MSTORE PUSH0 PUSH1 0x24 DUP3 ADD MSTORE PUSH1 0x44 SWAP1 REVERT JUMPDEST CALLVALUE PUSH2 0x141 JUMPI PUSH0 CALLDATASIZE PUSH1 0x3 NOT ADD SLT PUSH2 0x141 JUMPI PUSH1 0x1 SLOAD PUSH1 0x2 SLOAD PUSH1 0x40 DUP1 MLOAD PUSH1 0x1 PUSH1 0x1 PUSH1 0xA0 SHL SUB SWAP4 DUP5 AND DUP2 MSTORE SWAP3 SWAP1 SWAP2 AND PUSH1 0x20 DUP4 ADD MSTORE SWAP1 RETURN JUMPDEST CALLVALUE PUSH2 0x141 JUMPI PUSH0 CALLDATASIZE PUSH1 0x3 NOT ADD SLT PUSH2 0x141 JUMPI PUSH1 0x20 PUSH1 0x40 MLOAD PUSH0 DUP2 MSTORE RETURN JUMPDEST CALLVALUE PUSH2 0x141 JUMPI PUSH1 0x40 CALLDATASIZE PUSH1 0x3 NOT ADD SLT PUSH2 0x141 JUMPI PUSH2 0x521 PUSH2 0x1031 JUMP JUMPDEST PUSH1 0x4 CALLDATALOAD PUSH0 MSTORE PUSH0 PUSH1 0x20 MSTORE PUSH1 0x40 PUSH0 KECCAK256 SWAP1 PUSH1 0x1 DUP1 PUSH1 0xA0 SHL SUB AND PUSH0 MSTORE PUSH1 0x20 MSTORE PUSH1 0x20 PUSH1 0xFF PUSH1 0x40 PUSH0 KECCAK256 SLOAD AND PUSH1 0x40 MLOAD SWAP1 ISZERO ISZERO DUP2 MSTORE RETURN JUMPDEST CALLVALUE PUSH2 0x141 JUMPI PUSH0 CALLDATASIZE PUSH1 0x3 NOT ADD SLT PUSH2 0x141 JUMPI PUSH1 0x1 SLOAD PUSH1 0x40 MLOAD PUSH1 0x1 PUSH1 0x1 PUSH1 0xA0 SHL SUB SWAP1 SWAP2 AND DUP2 MSTORE PUSH1 0x20 SWAP1 RETURN JUMPDEST CALLVALUE PUSH2 0x141 JUMPI PUSH1 0x20 DUP1 PUSH1 0x3 NOT CALLDATASIZE ADD SLT PUSH2 0x141 JUMPI PUSH2 0x592 PUSH2 0x101B JUMP JUMPDEST SWAP1 PUSH2 0x59B PUSH2 0x111D JUMP JUMPDEST PUSH1 0x1 DUP1 PUSH1 0xA0 SHL SUB SWAP1 DUP2 DUP4 AND SWAP3 DUP4 PUSH0 MSTORE PUSH1 0x4 DUP3 MSTORE PUSH2 0x5BF DUP4 PUSH1 0x40 PUSH0 KECCAK256 SLOAD AND ISZERO ISZERO PUSH2 0x1054 JUMP JUMPDEST DUP4 PUSH0 MSTORE PUSH1 0x4 DUP3 MSTORE DUP3 PUSH1 0x40 PUSH0 KECCAK256 SLOAD AND DUP1 PUSH0 MSTORE PUSH1 0x5 SWAP4 DUP5 DUP5 MSTORE PUSH2 0x5E3 DUP4 PUSH1 0x40 PUSH0 KECCAK256 PUSH2 0x1418 JUMP JUMPDEST SWAP3 DUP3 PUSH0 MSTORE DUP6 DUP6 MSTORE PUSH1 0x40 PUSH0 KECCAK256 SLOAD SWAP3 PUSH0 NOT SWAP4 DUP5 DUP2 ADD SWAP1 DUP2 GT PUSH2 0x772 JUMPI PUSH2 0x613 PUSH2 0x64E SWAP2 DUP4 PUSH0 MSTORE DUP10 DUP10 MSTORE PUSH1 0x40 PUSH0 KECCAK256 PUSH2 0x1108 JUMP JUMPDEST SWAP1 SLOAD DUP6 PUSH2 0x62B PUSH1 0x3 SWAP10 DUP7 PUSH0 MSTORE DUP13 DUP13 MSTORE PUSH1 0x40 PUSH0 KECCAK256 PUSH2 0x1108 JUMP JUMPDEST SWAP3 SWAP1 SWAP4 DUP11 SHL SHR AND SWAP1 PUSH1 0x1 DUP1 PUSH1 0xA0 SHL SUB DUP1 DUP5 SLOAD SWAP3 PUSH1 0x3 SHL SWAP4 AND DUP4 SHL SWAP3 SHL NOT AND OR SWAP1 SSTORE JUMP JUMPDEST PUSH0 MSTORE DUP6 DUP6 MSTORE PUSH1 0x40 PUSH0 KECCAK256 SWAP1 DUP2 SLOAD SWAP2 DUP3 ISZERO PUSH2 0x75E JUMPI DUP5 PUSH2 0x690 SWAP4 ADD SWAP1 PUSH2 0x68A PUSH2 0x675 DUP4 DUP4 PUSH2 0x1108 JUMP JUMPDEST DUP2 SLOAD SWAP1 PUSH1 0x1 DUP1 PUSH1 0xA0 SHL SUB SWAP1 PUSH1 0x3 SHL SHL NOT AND SWAP1 SSTORE JUMP JUMPDEST SSTORE PUSH2 0x13CF JUMP JUMPDEST DUP4 SLOAD DUP4 DUP2 ADD SWAP1 DUP2 GT PUSH2 0x772 JUMPI PUSH2 0x6D7 SWAP3 PUSH2 0x6AC PUSH2 0x6B9 SWAP3 PUSH2 0x10BF JUMP JUMPDEST SWAP1 SLOAD SWAP1 DUP8 SHL SHR AND SWAP2 PUSH2 0x10BF JUMP JUMPDEST SWAP1 SWAP2 SWAP1 PUSH1 0x1 DUP1 PUSH1 0xA0 SHL SUB DUP1 DUP5 SLOAD SWAP3 PUSH1 0x3 SHL SWAP4 AND DUP4 SHL SWAP3 SHL NOT AND OR SWAP1 SSTORE JUMP JUMPDEST DUP2 SLOAD SWAP4 DUP5 ISZERO PUSH2 0x75E JUMPI PUSH1 0x4 PUSH1 0xA SWAP5 PUSH0 SWAP7 SWAP4 DUP8 SWAP5 ADD PUSH2 0x6F7 PUSH2 0x675 DUP3 PUSH2 0x10BF JUMP JUMPDEST DUP6 SSTORE DUP8 DUP5 MSTORE MSTORE DUP2 PUSH1 0x40 DUP2 KECCAK256 SWAP4 DUP2 DUP6 SSTORE DUP2 PUSH1 0x1 DUP7 ADD SSTORE DUP2 PUSH1 0x2 DUP7 ADD SSTORE DUP5 ADD SSTORE DUP2 PUSH1 0x4 DUP5 ADD SSTORE DUP3 ADD SSTORE DUP3 PUSH1 0x6 DUP3 ADD SSTORE DUP3 PUSH1 0x7 DUP3 ADD SSTORE DUP3 PUSH1 0x8 DUP3 ADD SSTORE DUP3 PUSH1 0x9 DUP3 ADD SSTORE ADD SSTORE PUSH32 0x334D0B2111287DFDDEBE4B4C1C5AF3AE644909D7FCD024377BF601E236ED5ABB PUSH0 DUP1 LOG2 STOP JUMPDEST PUSH4 0x4E487B71 PUSH1 0xE0 SHL PUSH0 MSTORE PUSH1 0x31 PUSH1 0x4 MSTORE PUSH1 0x24 PUSH0 REVERT JUMPDEST PUSH4 0x4E487B71 PUSH1 0xE0 SHL PUSH0 MSTORE PUSH1 0x11 PUSH1 0x4 MSTORE PUSH1 0x24 PUSH0 REVERT JUMPDEST CALLVALUE PUSH2 0x141 JUMPI PUSH1 0x20 CALLDATASIZE PUSH1 0x3 NOT ADD SLT PUSH2 0x141 JUMPI PUSH1 0x1 PUSH1 0x1 PUSH1 0xA0 SHL SUB DUP1 PUSH2 0x7A8 PUSH2 0x101B JUMP JUMPDEST AND SWAP1 DUP2 PUSH0 MSTORE PUSH1 0x6 PUSH1 0x20 MSTORE DUP1 PUSH1 0x40 PUSH0 KECCAK256 SLOAD AND ISZERO PUSH2 0x7D5 JUMPI PUSH1 0x20 SWAP2 PUSH0 MSTORE PUSH1 0x6 DUP3 MSTORE PUSH1 0x40 PUSH0 KECCAK256 SLOAD AND PUSH1 0x40 MLOAD SWAP1 DUP2 MSTORE RETURN JUMPDEST PUSH1 0x40 MLOAD PUSH3 0x461BCD PUSH1 0xE5 SHL DUP2 MSTORE PUSH1 0x20 PUSH1 0x4 DUP3 ADD MSTORE PUSH1 0x23 PUSH1 0x24 DUP3 ADD MSTORE PUSH32 0x506F6F6C206E6F742072656769737465726564206F7220686173206E6F207661 PUSH1 0x44 DUP3 ADD MSTORE PUSH3 0x1D5B1D PUSH1 0xEA SHL PUSH1 0x64 DUP3 ADD MSTORE PUSH1 0x84 SWAP1 REVERT JUMPDEST CALLVALUE PUSH2 0x141 JUMPI PUSH1 0x20 DUP1 PUSH1 0x3 NOT CALLDATASIZE ADD SLT PUSH2 0x141 JUMPI PUSH2 0x840 PUSH2 0x101B JUMP JUMPDEST PUSH0 DUP1 MSTORE PUSH0 DUP3 MSTORE PUSH1 0x40 PUSH0 KECCAK256 CALLER PUSH0 MSTORE DUP3 MSTORE PUSH1 0xFF PUSH1 0x40 PUSH0 KECCAK256 SLOAD AND ISZERO PUSH2 0x8A7 JUMPI PUSH0 PUSH2 0x13F SWAP3 PUSH0 DUP1 MLOAD PUSH1 0x20 PUSH2 0x1461 DUP4 CODECOPY DUP2 MLOAD SWAP2 MSTORE DUP3 MSTORE DUP2 DUP2 MSTORE PUSH2 0x884 PUSH1 0x1 PUSH1 0x40 DUP5 KECCAK256 ADD SLOAD PUSH2 0x1183 JUMP JUMPDEST PUSH2 0x88D DUP4 PUSH2 0x11A4 JUMP JUMPDEST POP DUP2 DUP1 MSTORE MSTORE PUSH2 0x8A2 PUSH1 0x1 PUSH1 0x40 PUSH0 KECCAK256 ADD SLOAD PUSH2 0x1183 JUMP JUMPDEST PUSH2 0x1242 JUMP JUMPDEST PUSH1 0x40 MLOAD PUSH3 0x461BCD PUSH1 0xE5 SHL DUP2 MSTORE PUSH1 0x4 DUP2 ADD DUP4 SWAP1 MSTORE PUSH1 0x16 PUSH1 0x24 DUP3 ADD MSTORE PUSH22 0x21B0B63632B91034B9903737BA1030B71030B236B4B7 PUSH1 0x51 SHL PUSH1 0x44 DUP3 ADD MSTORE PUSH1 0x64 SWAP1 REVERT JUMPDEST CALLVALUE PUSH2 0x141 JUMPI PUSH0 CALLDATASIZE PUSH1 0x3 NOT ADD SLT PUSH2 0x141 JUMPI PUSH1 0x20 PUSH1 0x40 MLOAD PUSH0 DUP1 MLOAD PUSH1 0x20 PUSH2 0x1461 DUP4 CODECOPY DUP2 MLOAD SWAP2 MSTORE DUP2 MSTORE RETURN JUMPDEST CALLVALUE PUSH2 0x141 JUMPI PUSH2 0x160 CALLDATASIZE PUSH1 0x3 NOT ADD SLT PUSH2 0x141 JUMPI PUSH2 0x926 PUSH2 0x101B JUMP JUMPDEST PUSH2 0x92E PUSH2 0x1031 JUMP JUMPDEST SWAP1 PUSH1 0x44 CALLDATALOAD PUSH1 0x1 PUSH1 0x1 PUSH1 0xA0 SHL SUB DUP2 AND DUP2 SUB PUSH2 0x141 JUMPI PUSH1 0x64 CALLDATALOAD SWAP1 PUSH1 0x1 PUSH1 0x1 PUSH1 0xA0 SHL SUB DUP3 AND DUP3 SUB PUSH2 0x141 JUMPI PUSH1 0x84 CALLDATALOAD PUSH1 0x1 PUSH1 0x1 PUSH1 0xA0 SHL SUB DUP2 AND DUP2 SUB PUSH2 0x141 JUMPI PUSH1 0xA4 CALLDATALOAD PUSH1 0x1 PUSH1 0x1 PUSH1 0xA0 SHL SUB DUP2 AND DUP2 SUB PUSH2 0x141 JUMPI PUSH1 0xC4 CALLDATALOAD SWAP1 PUSH1 0x1 PUSH1 0x1 PUSH1 0xA0 SHL SUB DUP3 AND DUP3 SUB PUSH2 0x141 JUMPI PUSH1 0x2 PUSH2 0x144 CALLDATALOAD LT ISZERO PUSH2 0x141 JUMPI PUSH2 0x9A4 PUSH2 0x111D JUMP JUMPDEST PUSH1 0x1 PUSH1 0x1 PUSH1 0xA0 SHL SUB DUP7 AND ISZERO PUSH2 0xC5C JUMPI PUSH1 0x1 PUSH1 0x1 PUSH1 0xA0 SHL SUB DUP7 DUP2 AND PUSH0 SWAP1 DUP2 MSTORE PUSH1 0x4 PUSH1 0x20 MSTORE PUSH1 0x40 SWAP1 KECCAK256 SLOAD AND PUSH2 0xC17 JUMPI PUSH1 0x40 MLOAD SWAP3 PUSH2 0x9DE DUP5 PUSH2 0x1096 JUMP JUMPDEST PUSH1 0x1 PUSH1 0x1 PUSH1 0xA0 SHL SUB DUP9 DUP2 AND DUP6 MSTORE DUP6 DUP2 AND PUSH1 0x20 DUP7 ADD MSTORE TIMESTAMP PUSH1 0x40 DUP7 ADD MSTORE DUP7 DUP2 AND PUSH1 0x60 DUP7 ADD MSTORE SWAP1 DUP2 AND PUSH1 0x80 DUP6 ADD MSTORE SWAP1 DUP2 AND PUSH1 0xA0 DUP5 ADD MSTORE AND PUSH1 0xC0 DUP3 ADD MSTORE PUSH1 0xE4 CALLDATALOAD PUSH1 0xE0 DUP3 ADD MSTORE PUSH2 0x104 CALLDATALOAD PUSH2 0x100 DUP3 ADD MSTORE PUSH2 0x124 CALLDATALOAD PUSH2 0x120 DUP3 ADD MSTORE PUSH2 0xA44 PUSH2 0x144 CALLDATALOAD PUSH2 0x140 DUP4 ADD PUSH2 0x10B3 JUMP JUMPDEST PUSH1 0x1 DUP1 PUSH1 0xA0 SHL SUB DUP5 AND PUSH0 MSTORE PUSH1 0x4 PUSH1 0x20 MSTORE PUSH2 0x140 PUSH1 0xA PUSH1 0x40 PUSH0 KECCAK256 PUSH1 0x1 DUP1 PUSH1 0xA0 SHL SUB DUP5 MLOAD AND PUSH12 0xFFFFFFFFFFFFFFFFFFFFFFFF PUSH1 0xA0 SHL SWAP1 DUP2 DUP4 SLOAD AND OR DUP3 SSTORE PUSH1 0x1 DUP3 ADD PUSH1 0x1 DUP1 PUSH1 0xA0 SHL SUB PUSH1 0x20 DUP8 ADD MLOAD AND DUP3 DUP3 SLOAD AND OR SWAP1 SSTORE PUSH1 0x40 DUP6 ADD MLOAD PUSH1 0x2 DUP4 ADD SSTORE PUSH1 0x3 DUP3 ADD PUSH1 0x1 DUP1 PUSH1 0xA0 SHL SUB PUSH1 0x60 DUP8 ADD MLOAD AND DUP3 DUP3 SLOAD AND OR SWAP1 SSTORE PUSH1 0x4 DUP3 ADD PUSH1 0x1 DUP1 PUSH1 0xA0 SHL SUB PUSH1 0x80 DUP8 ADD MLOAD AND DUP3 DUP3 SLOAD AND OR SWAP1 SSTORE PUSH1 0x5 DUP3 ADD PUSH1 0x1 DUP1 PUSH1 0xA0 SHL SUB PUSH1 0xA0 DUP8 ADD MLOAD AND DUP3 DUP3 SLOAD AND OR SWAP1 SSTORE PUSH1 0x6 DUP3 ADD SWAP1 PUSH1 0x1 DUP1 PUSH1 0xA0 SHL SUB PUSH1 0xC0 DUP8 ADD MLOAD AND SWAP1 DUP3 SLOAD AND OR SWAP1 SSTORE PUSH1 0xE0 DUP5 ADD MLOAD PUSH1 0x7 DUP3 ADD SSTORE PUSH2 0x100 DUP5 ADD MLOAD PUSH1 0x8 DUP3 ADD SSTORE PUSH2 0x120 DUP5 ADD MLOAD PUSH1 0x9 DUP3 ADD SSTORE ADD SWAP2 ADD MLOAD PUSH1 0x2 DUP2 LT ISZERO PUSH2 0xC03 JUMPI PUSH1 0xFF DUP1 NOT DUP4 SLOAD AND SWAP2 AND OR SWAP1 SSTORE PUSH1 0x1 DUP1 PUSH1 0xA0 SHL SUB DUP5 AND PUSH0 MSTORE PUSH1 0x5 PUSH1 0x20 MSTORE PUSH1 0x40 PUSH0 KECCAK256 DUP1 SLOAD SWAP1 PUSH9 0x10000000000000000 SWAP2 DUP3 DUP2 LT ISZERO PUSH2 0xBEF JUMPI PUSH2 0x6B9 DUP2 PUSH2 0xB79 SWAP4 PUSH1 0x1 DUP10 SWAP5 ADD DUP2 SSTORE PUSH2 0x1108 JUMP JUMPDEST PUSH1 0x3 SLOAD SWAP1 DUP2 LT ISZERO PUSH2 0xBEF JUMPI PUSH32 0x8F723E49DC038E67C41B41307A1E0C65653D50125A0C474A21AC32D9A0B24D2B SWAP2 PUSH2 0xBBC DUP6 PUSH2 0x6B9 DUP5 PUSH1 0x1 PUSH1 0x40 SWAP7 ADD PUSH1 0x3 SSTORE PUSH2 0x10BF JUMP JUMPDEST DUP2 MLOAD PUSH1 0x1 PUSH1 0x1 PUSH1 0xA0 SHL SUB SWAP1 SWAP5 AND DUP5 MSTORE PUSH2 0xBDB PUSH1 0x20 DUP6 ADD PUSH2 0x144 CALLDATALOAD PUSH2 0x1047 JUMP JUMPDEST PUSH1 0x1 PUSH1 0x1 PUSH1 0xA0 SHL SUB SWAP1 DUP2 AND SWAP6 DUP2 AND SWAP5 AND SWAP3 LOG4 STOP JUMPDEST PUSH4 0x4E487B71 PUSH1 0xE0 SHL PUSH0 MSTORE PUSH1 0x41 PUSH1 0x4 MSTORE PUSH1 0x24 PUSH0 REVERT JUMPDEST PUSH4 0x4E487B71 PUSH1 0xE0 SHL PUSH0 MSTORE PUSH1 0x21 PUSH1 0x4 MSTORE PUSH1 0x24 PUSH0 REVERT JUMPDEST PUSH1 0x40 MLOAD PUSH3 0x461BCD PUSH1 0xE5 SHL DUP2 MSTORE PUSH1 0x20 PUSH1 0x4 DUP3 ADD MSTORE PUSH1 0x17 PUSH1 0x24 DUP3 ADD MSTORE PUSH32 0x506F6F6C20616C72656164792072656769737465726564000000000000000000 PUSH1 0x44 DUP3 ADD MSTORE PUSH1 0x64 SWAP1 REVERT JUMPDEST PUSH1 0x40 MLOAD PUSH3 0x461BCD PUSH1 0xE5 SHL DUP2 MSTORE PUSH1 0x20 PUSH1 0x4 DUP3 ADD MSTORE PUSH1 0x1B PUSH1 0x24 DUP3 ADD MSTORE PUSH32 0x506F6F6C20616464726573732063616E6E6F74206265207A65726F0000000000 PUSH1 0x44 DUP3 ADD MSTORE PUSH1 0x64 SWAP1 REVERT JUMPDEST CALLVALUE PUSH2 0x141 JUMPI PUSH1 0x40 CALLDATASIZE PUSH1 0x3 NOT ADD SLT PUSH2 0x141 JUMPI PUSH2 0xCBA PUSH2 0x1031 JUMP JUMPDEST CALLER PUSH1 0x1 PUSH1 0x1 PUSH1 0xA0 SHL SUB DUP3 AND SUB PUSH2 0xCD6 JUMPI PUSH2 0x13F SWAP1 PUSH1 0x4 CALLDATALOAD PUSH2 0x135D JUMP JUMPDEST PUSH1 0x40 MLOAD PUSH4 0x334BD919 PUSH1 0xE1 SHL DUP2 MSTORE PUSH1 0x4 SWAP1 REVERT JUMPDEST CALLVALUE PUSH2 0x141 JUMPI PUSH1 0x40 CALLDATASIZE PUSH1 0x3 NOT ADD SLT PUSH2 0x141 JUMPI PUSH2 0x13F PUSH1 0x4 CALLDATALOAD PUSH2 0xD07 PUSH2 0x1031 JUMP JUMPDEST SWAP1 DUP1 PUSH0 MSTORE PUSH0 PUSH1 0x20 MSTORE PUSH2 0xD1F PUSH1 0x1 PUSH1 0x40 PUSH0 KECCAK256 ADD SLOAD PUSH2 0x1183 JUMP JUMPDEST PUSH2 0x12E7 JUMP JUMPDEST CALLVALUE PUSH2 0x141 JUMPI PUSH1 0x20 DUP1 PUSH1 0x3 NOT CALLDATASIZE ADD SLT PUSH2 0x141 JUMPI PUSH1 0x1 PUSH1 0x1 PUSH1 0xA0 SHL SUB SWAP1 DUP2 PUSH2 0xD48 PUSH2 0x101B JUMP JUMPDEST AND PUSH0 MSTORE PUSH1 0x5 DUP2 MSTORE PUSH1 0x40 PUSH0 KECCAK256 PUSH1 0x40 MLOAD DUP1 DUP4 DUP4 SLOAD SWAP2 DUP3 DUP2 MSTORE ADD SWAP1 DUP2 SWAP4 PUSH0 MSTORE DUP5 PUSH0 KECCAK256 SWAP1 PUSH0 JUMPDEST DUP7 DUP3 DUP3 LT PUSH2 0xDD1 JUMPI POP POP POP POP DUP2 SWAP1 SUB PUSH1 0x1F ADD PUSH1 0x1F NOT AND DUP2 ADD SWAP3 PUSH8 0xFFFFFFFFFFFFFFFF DUP5 GT DUP3 DUP6 LT OR PUSH2 0xBEF JUMPI SWAP1 DUP4 PUSH1 0x40 MSTORE DUP2 DUP5 ADD SWAP1 DUP3 DUP6 MSTORE MLOAD DUP1 SWAP2 MSTORE PUSH1 0x40 DUP5 ADD SWAP3 SWAP2 PUSH0 JUMPDEST DUP3 DUP2 LT PUSH2 0xDBB JUMPI DUP6 DUP6 SUB DUP7 RETURN JUMPDEST DUP4 MLOAD DUP8 AND DUP6 MSTORE SWAP4 DUP2 ADD SWAP4 SWAP3 DUP2 ADD SWAP3 PUSH1 0x1 ADD PUSH2 0xDAE JUMP JUMPDEST DUP4 SLOAD DUP10 AND DUP6 MSTORE SWAP1 SWAP4 ADD SWAP3 PUSH1 0x1 SWAP3 DUP4 ADD SWAP3 ADD PUSH2 0xD6A JUMP JUMPDEST CALLVALUE PUSH2 0x141 JUMPI PUSH1 0x20 CALLDATASIZE PUSH1 0x3 NOT ADD SLT PUSH2 0x141 JUMPI PUSH1 0x4 CALLDATALOAD PUSH0 MSTORE PUSH0 PUSH1 0x20 MSTORE PUSH1 0x20 PUSH1 0x1 PUSH1 0x40 PUSH0 KECCAK256 ADD SLOAD PUSH1 0x40 MLOAD SWAP1 DUP2 MSTORE RETURN JUMPDEST CALLVALUE PUSH2 0x141 JUMPI PUSH1 0x20 CALLDATASIZE PUSH1 0x3 NOT ADD SLT PUSH2 0x141 JUMPI PUSH1 0x20 PUSH1 0x1 PUSH1 0x1 PUSH1 0xA0 SHL SUB DUP1 PUSH2 0xE37 PUSH2 0x101B JUMP JUMPDEST AND PUSH0 MSTORE PUSH1 0x6 DUP3 MSTORE PUSH1 0x40 PUSH0 KECCAK256 SLOAD AND PUSH1 0x40 MLOAD SWAP1 DUP2 MSTORE RETURN JUMPDEST CALLVALUE PUSH2 0x141 JUMPI PUSH0 CALLDATASIZE PUSH1 0x3 NOT ADD SLT PUSH2 0x141 JUMPI PUSH1 0x2 SLOAD PUSH1 0x40 MLOAD PUSH1 0x1 PUSH1 0x1 PUSH1 0xA0 SHL SUB SWAP1 SWAP2 AND DUP2 MSTORE PUSH1 0x20 SWAP1 RETURN JUMPDEST CALLVALUE PUSH2 0x141 JUMPI PUSH1 0x40 CALLDATASIZE PUSH1 0x3 NOT ADD SLT PUSH2 0x141 JUMPI PUSH2 0xE8D PUSH2 0x101B JUMP JUMPDEST PUSH2 0xE95 PUSH2 0x1031 JUMP JUMPDEST SWAP1 PUSH2 0xE9E PUSH2 0x111D JUMP JUMPDEST PUSH1 0x1 PUSH1 0x1 PUSH1 0xA0 SHL SUB SWAP1 DUP2 AND SWAP1 DUP2 ISZERO ISZERO DUP1 PUSH2 0xFBD JUMPI JUMPDEST ISZERO PUSH2 0xF84 JUMPI DUP2 PUSH0 MSTORE PUSH1 0x4 PUSH1 0x20 MSTORE PUSH2 0xED1 DUP2 PUSH1 0x40 PUSH0 KECCAK256 SLOAD AND ISZERO ISZERO PUSH2 0x1054 JUMP JUMPDEST DUP2 PUSH0 MSTORE PUSH1 0x6 PUSH1 0x20 MSTORE DUP1 PUSH1 0x40 PUSH0 KECCAK256 SLOAD AND PUSH2 0xF30 JUMPI DUP2 PUSH0 MSTORE PUSH1 0x6 PUSH1 0x20 MSTORE PUSH1 0x40 PUSH0 KECCAK256 SWAP3 AND SWAP2 DUP3 PUSH12 0xFFFFFFFFFFFFFFFFFFFFFFFF PUSH1 0xA0 SHL DUP3 SLOAD AND OR SWAP1 SSTORE PUSH32 0xF8EE9039D8E4D43426638703C71517008894FDEA742BB2D2DBFF5A46FB07ABDB PUSH0 DUP1 LOG3 STOP JUMPDEST PUSH1 0x40 MLOAD PUSH3 0x461BCD PUSH1 0xE5 SHL DUP2 MSTORE PUSH1 0x20 PUSH1 0x4 DUP3 ADD MSTORE PUSH1 0x26 PUSH1 0x24 DUP3 ADD MSTORE PUSH32 0x5661756C7420616C7265616479207265676973746572656420666F7220746869 PUSH1 0x44 DUP3 ADD MSTORE PUSH6 0x1CC81C1BDBDB PUSH1 0xD2 SHL PUSH1 0x64 DUP3 ADD MSTORE PUSH1 0x84 SWAP1 REVERT JUMPDEST PUSH1 0x40 MLOAD PUSH3 0x461BCD PUSH1 0xE5 SHL DUP2 MSTORE PUSH1 0x20 PUSH1 0x4 DUP3 ADD MSTORE PUSH1 0x11 PUSH1 0x24 DUP3 ADD MSTORE PUSH17 0x496E76616C696420616464726573736573 PUSH1 0x78 SHL PUSH1 0x44 DUP3 ADD MSTORE PUSH1 0x64 SWAP1 REVERT JUMPDEST POP DUP1 DUP4 AND ISZERO ISZERO PUSH2 0xEB3 JUMP JUMPDEST CALLVALUE PUSH2 0x141 JUMPI PUSH1 0x20 CALLDATASIZE PUSH1 0x3 NOT ADD SLT PUSH2 0x141 JUMPI PUSH1 0x4 CALLDATALOAD SWAP1 PUSH4 0xFFFFFFFF PUSH1 0xE0 SHL DUP3 AND DUP1 SWAP3 SUB PUSH2 0x141 JUMPI PUSH1 0x20 SWAP2 PUSH4 0x7965DB0B PUSH1 0xE0 SHL DUP2 EQ SWAP1 DUP2 ISZERO PUSH2 0x100A JUMPI JUMPDEST POP ISZERO ISZERO DUP2 MSTORE RETURN JUMPDEST PUSH4 0x1FFC9A7 PUSH1 0xE0 SHL EQ SWAP1 POP DUP4 PUSH2 0x1003 JUMP JUMPDEST PUSH1 0x4 CALLDATALOAD SWAP1 PUSH1 0x1 PUSH1 0x1 PUSH1 0xA0 SHL SUB DUP3 AND DUP3 SUB PUSH2 0x141 JUMPI JUMP JUMPDEST PUSH1 0x24 CALLDATALOAD SWAP1 PUSH1 0x1 PUSH1 0x1 PUSH1 0xA0 SHL SUB DUP3 AND DUP3 SUB PUSH2 0x141 JUMPI JUMP JUMPDEST SWAP1 PUSH1 0x2 DUP3 LT ISZERO PUSH2 0xC03 JUMPI MSTORE JUMP JUMPDEST ISZERO PUSH2 0x105B JUMPI JUMP JUMPDEST PUSH1 0x40 MLOAD PUSH3 0x461BCD PUSH1 0xE5 SHL DUP2 MSTORE PUSH1 0x20 PUSH1 0x4 DUP3 ADD MSTORE PUSH1 0x13 PUSH1 0x24 DUP3 ADD MSTORE PUSH19 0x141BDBDB081B9BDD081C9959DA5CDD195C9959 PUSH1 0x6A SHL PUSH1 0x44 DUP3 ADD MSTORE PUSH1 0x64 SWAP1 REVERT JUMPDEST PUSH2 0x160 DUP2 ADD SWAP1 DUP2 LT PUSH8 0xFFFFFFFFFFFFFFFF DUP3 GT OR PUSH2 0xBEF JUMPI PUSH1 0x40 MSTORE JUMP JUMPDEST PUSH1 0x2 DUP3 LT ISZERO PUSH2 0xC03 JUMPI MSTORE JUMP JUMPDEST PUSH1 0x3 SLOAD DUP2 LT ISZERO PUSH2 0x10F4 JUMPI PUSH1 0x3 PUSH0 MSTORE PUSH32 0xC2575A0E9E593C00F959F8C92F12DB2869C3395A3B0502D05E2516446F71F85B ADD SWAP1 PUSH0 SWAP1 JUMP JUMPDEST PUSH4 0x4E487B71 PUSH1 0xE0 SHL PUSH0 MSTORE PUSH1 0x32 PUSH1 0x4 MSTORE PUSH1 0x24 PUSH0 REVERT JUMPDEST DUP1 SLOAD DUP3 LT ISZERO PUSH2 0x10F4 JUMPI PUSH0 MSTORE PUSH1 0x20 PUSH0 KECCAK256 ADD SWAP1 PUSH0 SWAP1 JUMP JUMPDEST CALLER PUSH0 SWAP1 DUP2 MSTORE PUSH32 0x729EF9451DD492832BD2A98139702CED95DFA0CEC7E99526DBBCB957ABCBC476 PUSH1 0x20 MSTORE PUSH1 0x40 SWAP1 KECCAK256 SLOAD PUSH0 DUP1 MLOAD PUSH1 0x20 PUSH2 0x1461 DUP4 CODECOPY DUP2 MLOAD SWAP2 MSTORE SWAP1 PUSH1 0xFF AND ISZERO PUSH2 0x1165 JUMPI POP JUMP JUMPDEST PUSH1 0x44 SWAP1 PUSH1 0x40 MLOAD SWAP1 PUSH4 0xE2517D3F PUSH1 0xE0 SHL DUP3 MSTORE CALLER PUSH1 0x4 DUP4 ADD MSTORE PUSH1 0x24 DUP3 ADD MSTORE REVERT JUMPDEST DUP1 PUSH0 MSTORE PUSH0 PUSH1 0x20 MSTORE PUSH1 0x40 PUSH0 KECCAK256 CALLER PUSH0 MSTORE PUSH1 0x20 MSTORE PUSH1 0xFF PUSH1 0x40 PUSH0 KECCAK256 SLOAD AND ISZERO PUSH2 0x1165 JUMPI POP JUMP JUMPDEST PUSH1 0x1 PUSH1 0x1 PUSH1 0xA0 SHL SUB AND PUSH0 DUP2 DUP2 MSTORE PUSH32 0x729EF9451DD492832BD2A98139702CED95DFA0CEC7E99526DBBCB957ABCBC476 PUSH1 0x20 MSTORE PUSH1 0x40 SWAP1 KECCAK256 SLOAD PUSH0 DUP1 MLOAD PUSH1 0x20 PUSH2 0x1461 DUP4 CODECOPY DUP2 MLOAD SWAP2 MSTORE SWAP2 SWAP1 PUSH1 0xFF AND PUSH2 0x123C JUMPI DUP2 PUSH0 MSTORE PUSH0 PUSH1 0x20 MSTORE PUSH1 0x40 PUSH0 KECCAK256 DUP2 PUSH0 MSTORE PUSH1 0x20 MSTORE PUSH1 0x40 PUSH0 KECCAK256 PUSH1 0x1 PUSH1 0xFF NOT DUP3 SLOAD AND OR SWAP1 SSTORE CALLER SWAP2 PUSH32 0x2F8788117E7EFF1D82E926EC794901D17C78024A50270940304540A733656F0D PUSH0 DUP1 LOG4 PUSH1 0x1 SWAP1 JUMP JUMPDEST POP POP PUSH0 SWAP1 JUMP JUMPDEST PUSH1 0x1 PUSH1 0x1 PUSH1 0xA0 SHL SUB AND PUSH0 DUP2 DUP2 MSTORE PUSH32 0xAD3228B676F7D3CD4284A5443F17F1962B36E491B30A40B2405849E597BA5FB5 PUSH1 0x20 MSTORE PUSH1 0x40 SWAP1 KECCAK256 SLOAD PUSH1 0xFF AND PUSH2 0x12E2 JUMPI PUSH0 DUP2 DUP2 MSTORE PUSH32 0xAD3228B676F7D3CD4284A5443F17F1962B36E491B30A40B2405849E597BA5FB5 PUSH1 0x20 MSTORE PUSH1 0x40 DUP2 KECCAK256 DUP1 SLOAD PUSH1 0xFF NOT AND PUSH1 0x1 OR SWAP1 SSTORE CALLER SWAP2 SWAP1 PUSH32 0x2F8788117E7EFF1D82E926EC794901D17C78024A50270940304540A733656F0D DUP2 DUP1 LOG4 PUSH1 0x1 SWAP1 JUMP JUMPDEST POP PUSH0 SWAP1 JUMP JUMPDEST SWAP1 DUP2 PUSH0 MSTORE PUSH0 PUSH1 0x20 MSTORE PUSH1 0x40 PUSH0 KECCAK256 SWAP1 PUSH1 0x1 DUP1 PUSH1 0xA0 SHL SUB AND SWAP1 DUP2 PUSH0 MSTORE PUSH1 0x20 MSTORE PUSH1 0xFF PUSH1 0x40 PUSH0 KECCAK256 SLOAD AND ISZERO PUSH0 EQ PUSH2 0x123C JUMPI DUP2 PUSH0 MSTORE PUSH0 PUSH1 0x20 MSTORE PUSH1 0x40 PUSH0 KECCAK256 DUP2 PUSH0 MSTORE PUSH1 0x20 MSTORE PUSH1 0x40 PUSH0 KECCAK256 PUSH1 0x1 PUSH1 0xFF NOT DUP3 SLOAD AND OR SWAP1 SSTORE CALLER SWAP2 PUSH32 0x2F8788117E7EFF1D82E926EC794901D17C78024A50270940304540A733656F0D PUSH0 DUP1 LOG4 PUSH1 0x1 SWAP1 JUMP JUMPDEST SWAP1 DUP2 PUSH0 MSTORE PUSH0 PUSH1 0x20 MSTORE PUSH1 0x40 PUSH0 KECCAK256 SWAP1 PUSH1 0x1 DUP1 PUSH1 0xA0 SHL SUB AND SWAP1 DUP2 PUSH0 MSTORE PUSH1 0x20 MSTORE PUSH1 0xFF PUSH1 0x40 PUSH0 KECCAK256 SLOAD AND PUSH0 EQ PUSH2 0x123C JUMPI DUP2 PUSH0 MSTORE PUSH0 PUSH1 0x20 MSTORE PUSH1 0x40 PUSH0 KECCAK256 DUP2 PUSH0 MSTORE PUSH1 0x20 MSTORE PUSH1 0x40 PUSH0 KECCAK256 PUSH1 0xFF NOT DUP2 SLOAD AND SWAP1 SSTORE CALLER SWAP2 PUSH32 0xF6391F5C32D9C69D2A47EA670B442974B53935D1EDC7FD64EB21E047A839171B PUSH0 DUP1 LOG4 PUSH1 0x1 SWAP1 JUMP JUMPDEST PUSH0 SWAP1 PUSH1 0x3 DUP1 SLOAD SWAP3 JUMPDEST DUP4 DUP2 LT PUSH2 0x13E7 JUMPI POP POP POP POP PUSH0 NOT SWAP1 JUMP JUMPDEST PUSH2 0x13F0 DUP2 PUSH2 0x10BF JUMP JUMPDEST SWAP1 SLOAD SWAP1 DUP4 SHL SHR PUSH1 0x1 PUSH1 0x1 PUSH1 0xA0 SHL SUB SWAP1 DUP2 AND SWAP1 DUP5 AND EQ PUSH2 0x1411 JUMPI PUSH1 0x1 ADD PUSH2 0x13D7 JUMP JUMPDEST SWAP3 POP POP POP SWAP1 JUMP JUMPDEST SWAP1 PUSH0 JUMPDEST DUP3 SLOAD DUP2 LT ISZERO PUSH2 0x1458 JUMPI PUSH2 0x142E DUP2 DUP5 PUSH2 0x1108 JUMP JUMPDEST SWAP1 SLOAD PUSH1 0x3 SWAP2 SWAP1 SWAP2 SHL SHR PUSH1 0x1 PUSH1 0x1 PUSH1 0xA0 SHL SUB SWAP1 DUP2 AND SWAP1 DUP4 AND EQ PUSH2 0x1452 JUMPI PUSH1 0x1 ADD PUSH2 0x141B JUMP JUMPDEST SWAP2 POP POP SWAP1 JUMP JUMPDEST POP POP POP PUSH0 NOT SWAP1 JUMP INVALID PUSH1 0x77 PUSH9 0x5936C8169D09204A1D SWAP8 0xDB SLT 0xE4 OR SGT PC DUP13 CODESIZE 0xE1 0xD2 SWAP11 PUSH2 0x867D RETURNDATASIZE 0xCE 0xE9 DUP11 SELFDESTRUCT LOG2 PUSH5 0x6970667358 0x22 SLT KECCAK256 MLOAD 0x2B CALLER PUSH1 0x36 SWAP4 0xA8 RETURN GT 0xA5 0xD7 SWAP4 JUMP LOG2 JUMPI PUSH17 0x23D7FEAF5E1960C6A1A90950138C5D1F64 PUSH20 0x6F6C634300081900332F8788117E7EFF1D82E926 0xEC PUSH26 0x4901D17C78024A50270940304540A733656F0DAD3228B676F7D3 0xCD TIMESTAMP DUP5 0xA5 PREVRANDAO EXTCODEHASH OR CALL SWAP7 0x2B CALLDATASIZE 0xE4 SWAP2 0xB3 EXP BLOCKHASH 0xB2 BLOCKHASH PC BLOBHASH 0xE5 SWAP8 0xBA PUSH0 0xB5 "
		},
		"gasEstimates": {
			"creation": {
				"codeDepositCost": "1060400",
				"executionCost": "infinite",
				"totalCost": "infinite"
			},
			"external": {
				"DEFAULT_ADMIN_ROLE()": "482",
				"POOL_MANAGER_ROLE()": "383",
				"deregisterPool(address)": "infinite",
				"getManagers()": "4762",
				"getPoolDetails(address)": "infinite",
				"getPoolsByLender(address)": "infinite",
				"getRoleAdmin(bytes32)": "2414",
				"getTotalPools()": "2674",
				"getVaultForPool(address)": "4846",
				"grantFactoryAccess(address)": "infinite",
				"grantRole(bytes32,address)": "33325",
				"hasRole(bytes32,address)": "2792",
				"poolVaults(address)": "2478",
				"registerManagers(address,address)": "52731",
				"registerPool(address,address,address,address,address,address,address,uint256,uint256,uint256,uint8)": "infinite",
				"registerVault(address,address)": "infinite",
				"renounceRole(bytes32,address)": "28937",
				"revokeRole(bytes32,address)": "33621",
				"rewardManager()": "2324",
				"supportsInterface(bytes4)": "270",
				"vaultManager()": "2566"
			},
			"internal": {
				"_removePoolFromLenderArray(address,address)": "infinite",
				"_removePoolFromMainArray(address)": "infinite",
				"findIndexInArray(address[] storage pointer,address)": "infinite"
			}
		},
		"methodIdentifiers": {
			"DEFAULT_ADMIN_ROLE()": "a217fddf",
			"POOL_MANAGER_ROLE()": "56d73568",
			"deregisterPool(address)": "7e72c7d7",
			"getManagers()": "a8d088bb",
			"getPoolDetails(address)": "d3e90fa0",
			"getPoolsByLender(address)": "24a44efb",
			"getRoleAdmin(bytes32)": "248a9ca3",
			"getTotalPools()": "d3ffe67a",
			"getVaultForPool(address)": "7570e389",
			"grantFactoryAccess(address)": "5d102df7",
			"grantRole(bytes32,address)": "2f2ff15d",
			"hasRole(bytes32,address)": "91d14854",
			"poolVaults(address)": "1e4966ab",
			"registerManagers(address,address)": "c489579d",
			"registerPool(address,address,address,address,address,address,address,uint256,uint256,uint256,uint8)": "43756020",
			"registerVault(address,address)": "05c4fdf9",
			"renounceRole(bytes32,address)": "36568abe",
			"revokeRole(bytes32,address)": "d547741f",
			"rewardManager()": "0f4ef8a6",
			"supportsInterface(bytes4)": "01ffc9a7",
			"vaultManager()": "8a4adf24"
		}
	},
	"abi": [
		{
			"inputs": [],
			"stateMutability": "nonpayable",
			"type": "constructor"
		},
		{
			"inputs": [],
			"name": "AccessControlBadConfirmation",
			"type": "error"
		},
		{
			"inputs": [
				{
					"internalType": "address",
					"name": "account",
					"type": "address"
				},
				{
					"internalType": "bytes32",
					"name": "neededRole",
					"type": "bytes32"
				}
			],
			"name": "AccessControlUnauthorizedAccount",
			"type": "error"
		},
		{
			"anonymous": false,
			"inputs": [
				{
					"indexed": false,
					"internalType": "address",
					"name": "vaultManager",
					"type": "address"
				},
				{
					"indexed": false,
					"internalType": "address",
					"name": "rewardManager",
					"type": "address"
				}
			],
			"name": "ManagerRegistered",
			"type": "event"
		},
		{
			"anonymous": false,
			"inputs": [
				{
					"indexed": true,
					"internalType": "address",
					"name": "pool",
					"type": "address"
				}
			],
			"name": "PoolDeregistered",
			"type": "event"
		},
		{
			"anonymous": false,
			"inputs": [
				{
					"indexed": true,
					"internalType": "address",
					"name": "pool",
					"type": "address"
				},
				{
					"indexed": true,
					"internalType": "address",
					"name": "lender",
					"type": "address"
				},
				{
					"indexed": true,
					"internalType": "address",
					"name": "borrower",
					"type": "address"
				},
				{
					"indexed": false,
					"internalType": "address",
					"name": "vault",
					"type": "address"
				},
				{
					"indexed": false,
					"internalType": "enum IPoolOrganizer.PoolType",
					"name": "poolType",
					"type": "uint8"
				}
			],
			"name": "PoolRegistered",
			"type": "event"
		},
		{
			"anonymous": false,
			"inputs": [
				{
					"indexed": true,
					"internalType": "bytes32",
					"name": "role",
					"type": "bytes32"
				},
				{
					"indexed": true,
					"internalType": "bytes32",
					"name": "previousAdminRole",
					"type": "bytes32"
				},
				{
					"indexed": true,
					"internalType": "bytes32",
					"name": "newAdminRole",
					"type": "bytes32"
				}
			],
			"name": "RoleAdminChanged",
			"type": "event"
		},
		{
			"anonymous": false,
			"inputs": [
				{
					"indexed": true,
					"internalType": "bytes32",
					"name": "role",
					"type": "bytes32"
				},
				{
					"indexed": true,
					"internalType": "address",
					"name": "account",
					"type": "address"
				},
				{
					"indexed": true,
					"internalType": "address",
					"name": "sender",
					"type": "address"
				}
			],
			"name": "RoleGranted",
			"type": "event"
		},
		{
			"anonymous": false,
			"inputs": [
				{
					"indexed": true,
					"internalType": "bytes32",
					"name": "role",
					"type": "bytes32"
				},
				{
					"indexed": true,
					"internalType": "address",
					"name": "account",
					"type": "address"
				},
				{
					"indexed": true,
					"internalType": "address",
					"name": "sender",
					"type": "address"
				}
			],
			"name": "RoleRevoked",
			"type": "event"
		},
		{
			"anonymous": false,
			"inputs": [
				{
					"indexed": true,
					"internalType": "address",
					"name": "pool",
					"type": "address"
				},
				{
					"indexed": true,
					"internalType": "address",
					"name": "vault",
					"type": "address"
				}
			],
			"name": "VaultRegistered",
			"type": "event"
		},
		{
			"inputs": [],
			"name": "DEFAULT_ADMIN_ROLE",
			"outputs": [
				{
					"internalType": "bytes32",
					"name": "",
					"type": "bytes32"
				}
			],
			"stateMutability": "view",
			"type": "function"
		},
		{
			"inputs": [],
			"name": "POOL_MANAGER_ROLE",
			"outputs": [
				{
					"internalType": "bytes32",
					"name": "",
					"type": "bytes32"
				}
			],
			"stateMutability": "view",
			"type": "function"
		},
		{
			"inputs": [
				{
					"internalType": "address",
					"name": "pool",
					"type": "address"
				}
			],
			"name": "deregisterPool",
			"outputs": [],
			"stateMutability": "nonpayable",
			"type": "function"
		},
		{
			"inputs": [],
			"name": "getManagers",
			"outputs": [
				{
					"internalType": "address",
					"name": "",
					"type": "address"
				},
				{
					"internalType": "address",
					"name": "",
					"type": "address"
				}
			],
			"stateMutability": "view",
			"type": "function"
		},
		{
			"inputs": [
				{
					"internalType": "address",
					"name": "pool",
					"type": "address"
				}
			],
			"name": "getPoolDetails",
			"outputs": [
				{
					"components": [
						{
							"internalType": "address",
							"name": "lender",
							"type": "address"
						},
						{
							"internalType": "address",
							"name": "borrower",
							"type": "address"
						},
						{
							"internalType": "uint256",
							"name": "creationTime",
							"type": "uint256"
						},
						{
							"internalType": "address",
							"name": "vault",
							"type": "address"
						},
						{
							"internalType": "contract IERC20",
							"name": "loanToken",
							"type": "address"
						},
						{
							"internalType": "contract IERC20",
							"name": "assetToken",
							"type": "address"
						},
						{
							"internalType": "contract IERC20",
							"name": "repaymentToken",
							"type": "address"
						},
						{
							"internalType": "uint256",
							"name": "loanAmount",
							"type": "uint256"
						},
						{
							"internalType": "uint256",
							"name": "interestRate",
							"type": "uint256"
						},
						{
							"internalType": "uint256",
							"name": "repaymentPeriod",
							"type": "uint256"
						},
						{
							"internalType": "enum IPoolOrganizer.PoolType",
							"name": "poolType",
							"type": "uint8"
						}
					],
					"internalType": "struct IPoolOrganizer.PoolDetails",
					"name": "",
					"type": "tuple"
				}
			],
			"stateMutability": "view",
			"type": "function"
		},
		{
			"inputs": [
				{
					"internalType": "address",
					"name": "lender",
					"type": "address"
				}
			],
			"name": "getPoolsByLender",
			"outputs": [
				{
					"internalType": "address[]",
					"name": "",
					"type": "address[]"
				}
			],
			"stateMutability": "view",
			"type": "function"
		},
		{
			"inputs": [
				{
					"internalType": "bytes32",
					"name": "role",
					"type": "bytes32"
				}
			],
			"name": "getRoleAdmin",
			"outputs": [
				{
					"internalType": "bytes32",
					"name": "",
					"type": "bytes32"
				}
			],
			"stateMutability": "view",
			"type": "function"
		},
		{
			"inputs": [],
			"name": "getTotalPools",
			"outputs": [
				{
					"internalType": "uint256",
					"name": "",
					"type": "uint256"
				}
			],
			"stateMutability": "view",
			"type": "function"
		},
		{
			"inputs": [
				{
					"internalType": "address",
					"name": "pool",
					"type": "address"
				}
			],
			"name": "getVaultForPool",
			"outputs": [
				{
					"internalType": "address",
					"name": "",
					"type": "address"
				}
			],
			"stateMutability": "view",
			"type": "function"
		},
		{
			"inputs": [
				{
					"internalType": "address",
					"name": "factoryAddress",
					"type": "address"
				}
			],
			"name": "grantFactoryAccess",
			"outputs": [],
			"stateMutability": "nonpayable",
			"type": "function"
		},
		{
			"inputs": [
				{
					"internalType": "bytes32",
					"name": "role",
					"type": "bytes32"
				},
				{
					"internalType": "address",
					"name": "account",
					"type": "address"
				}
			],
			"name": "grantRole",
			"outputs": [],
			"stateMutability": "nonpayable",
			"type": "function"
		},
		{
			"inputs": [
				{
					"internalType": "bytes32",
					"name": "role",
					"type": "bytes32"
				},
				{
					"internalType": "address",
					"name": "account",
					"type": "address"
				}
			],
			"name": "hasRole",
			"outputs": [
				{
					"internalType": "bool",
					"name": "",
					"type": "bool"
				}
			],
			"stateMutability": "view",
			"type": "function"
		},
		{
			"inputs": [
				{
					"internalType": "address",
					"name": "",
					"type": "address"
				}
			],
			"name": "poolVaults",
			"outputs": [
				{
					"internalType": "address",
					"name": "",
					"type": "address"
				}
			],
			"stateMutability": "view",
			"type": "function"
		},
		{
			"inputs": [
				{
					"internalType": "address",
					"name": "_vaultManager",
					"type": "address"
				},
				{
					"internalType": "address",
					"name": "_rewardManager",
					"type": "address"
				}
			],
			"name": "registerManagers",
			"outputs": [],
			"stateMutability": "nonpayable",
			"type": "function"
		},
		{
			"inputs": [
				{
					"internalType": "address",
					"name": "pool",
					"type": "address"
				},
				{
					"internalType": "address",
					"name": "lender",
					"type": "address"
				},
				{
					"internalType": "address",
					"name": "borrower",
					"type": "address"
				},
				{
					"internalType": "address",
					"name": "vault",
					"type": "address"
				},
				{
					"internalType": "contract IERC20",
					"name": "loanToken",
					"type": "address"
				},
				{
					"internalType": "contract IERC20",
					"name": "assetToken",
					"type": "address"
				},
				{
					"internalType": "contract IERC20",
					"name": "repaymentToken",
					"type": "address"
				},
				{
					"internalType": "uint256",
					"name": "loanAmount",
					"type": "uint256"
				},
				{
					"internalType": "uint256",
					"name": "interestRate",
					"type": "uint256"
				},
				{
					"internalType": "uint256",
					"name": "repaymentPeriod",
					"type": "uint256"
				},
				{
					"internalType": "enum IPoolOrganizer.PoolType",
					"name": "poolType",
					"type": "uint8"
				}
			],
			"name": "registerPool",
			"outputs": [],
			"stateMutability": "nonpayable",
			"type": "function"
		},
		{
			"inputs": [
				{
					"internalType": "address",
					"name": "pool",
					"type": "address"
				},
				{
					"internalType": "address",
					"name": "vault",
					"type": "address"
				}
			],
			"name": "registerVault",
			"outputs": [],
			"stateMutability": "nonpayable",
			"type": "function"
		},
		{
			"inputs": [
				{
					"internalType": "bytes32",
					"name": "role",
					"type": "bytes32"
				},
				{
					"internalType": "address",
					"name": "callerConfirmation",
					"type": "address"
				}
			],
			"name": "renounceRole",
			"outputs": [],
			"stateMutability": "nonpayable",
			"type": "function"
		},
		{
			"inputs": [
				{
					"internalType": "bytes32",
					"name": "role",
					"type": "bytes32"
				},
				{
					"internalType": "address",
					"name": "account",
					"type": "address"
				}
			],
			"name": "revokeRole",
			"outputs": [],
			"stateMutability": "nonpayable",
			"type": "function"
		},
		{
			"inputs": [],
			"name": "rewardManager",
			"outputs": [
				{
					"internalType": "contract IRewardManager",
					"name": "",
					"type": "address"
				}
			],
			"stateMutability": "view",
			"type": "function"
		},
		{
			"inputs": [
				{
					"internalType": "bytes4",
					"name": "interfaceId",
					"type": "bytes4"
				}
			],
			"name": "supportsInterface",
			"outputs": [
				{
					"internalType": "bool",
					"name": "",
					"type": "bool"
				}
			],
			"stateMutability": "view",
			"type": "function"
		},
		{
			"inputs": [],
			"name": "vaultManager",
			"outputs": [
				{
					"internalType": "contract IVaultManager",
					"name": "",
					"type": "address"
				}
			],
			"stateMutability": "view",
			"type": "function"
		}
	]
}