{
	"data": {
		"bytecode": {
			"linkReferences": {},
			"object": "60e08060405234620003b05762001d508038038091620000208285620003b4565b83398101608082820312620003b05781516001600160a01b03928382168203620003b05760208181015190916001600160401b0391828111620003b057856200006b918301620003f4565b946040820151838111620003b05760609162000089918401620003f4565b9101519586168603620003b0578451828111620002bb576003918254916001978884811c94168015620003a5575b8785101462000391578190601f948581116200033e575b508790858311600114620002db575f92620002cf575b50505f1982861b1c191690881b1783555b8051938411620002bb5760049485548881811c91168015620002b0575b828210146200029d5790818487969594931162000244575b5080928511600114620001da57505f93620001ce575b505082861b925f19911b1c19161790555b6200015c816200045c565b9015620001c5575b60a05260805260055560c05260405161182e9081620005228239608051818181610bc2015281816111df0152818161135301526114e3015260a05181610c05015260c051818181610256015281816107ec015281816108a10152610b7e0152f35b50601262000164565b015191505f8062000140565b929190889550601f198516875f52845f20945f905b8282106200022a575050851162000210575b50505050811b01905562000151565b01519060f8845f19921b161c191690555f80808062000201565b8484015187558b98909601959384019390810190620001ef565b909192939450865f52815f208480880160051c82019284891062000293575b918b91899897969594930160051c01915b828110620002845750506200012a565b5f81558897508b910162000274565b9250819262000263565b602287634e487b7160e01b5f525260245ffd5b90607f169062000112565b634e487b7160e01b5f52604160045260245ffd5b015190505f80620000e4565b908a9350601f19831691875f52895f20925f5b8b8282106200032757505084116200030f575b505050811b018355620000f5565b01515f1983881b60f8161c191690555f808062000301565b8385015186558e97909501949384019301620002ee565b909150855f52875f208580850160051c8201928a861062000387575b918c91869594930160051c01915b82811062000378575050620000ce565b5f81558594508c910162000368565b925081926200035a565b634e487b7160e01b5f52602260045260245ffd5b93607f1693620000b7565b5f80fd5b601f909101601f19168101906001600160401b03821190821017620002bb57604052565b6001600160401b038111620002bb57601f01601f191660200190565b919080601f84011215620003b0578251906200041082620003d8565b91620004206040519384620003b4565b808352602091828287010111620003b0575f5b818110620004485750825f9394955001015290565b858101830151848201840152820162000433565b6040805163313ce56760e01b60208201908152600482529293929181016001600160401b03811182821017620002bb57604052515f9384928392916001600160a01b03165afa3d1562000518573d90620004b682620003d8565b91620004c66040519384620003b4565b82523d84602084013e5b806200050b575b620004e2575b508190565b60208180518101031262000507576020015160ff8111620004dd576001925060ff1690565b8280fd5b50602081511015620004d7565b606090620004d056fe60806040526004361015610011575f80fd5b5f3560e01c806301e1d11414610e2c57806306fdde0314610d7157806307a2d13a14610b64578063095ea7b314610cbf5780630a28a47714610ca157806318160ddd14610c8457806323b872dd14610c4c578063313ce56714610bf157806338d52e0f14610bad578063402d267d1461041a578063464582cb14610b695780634cdad50614610b645780636e553f6514610b3a57806370a08231146103a35780637b17edf21461069957806394bf804d1461066657806395d89b4114610566578063a9059cbb14610535578063b3d7f6b914610517578063b460af9414610497578063ba0876521461041f578063c63d75b61461041a578063c6e6f5921461014d578063ce96cb77146103e3578063d905777e146103a3578063dd62ed3e14610356578063e6adb29c146101525763ef8b30f71461014d575f80fd5b610fed565b346103525761012036600319011261035257366023190160043560c082126103525760806040519261018384610f10565b12610352576040519161019583610f52565b6001600160a01b03926024358481168103610352578152604435848116810361035257602082015265ffffffffffff60643581811681036103525760408301526084359081168103610352576060820152815260a43583811681036103525760208201908152604082019060c435825260e435916001600160401b0380841161035257366023850112156103525783600401359081116103525736602482860101116103525761010491823595888716870361035257610253611780565b887f00000000000000000000000000000000000000000000000000000000000000001693843b15610352575f966102e3946024610301938a966040519e8f9b8c9a8b996302b67b5760e41b8b523360048c0152868b01905160609060018060a01b0380825116845260208201511660208401528165ffffffffffff91826040820151166040860152015116910152565b511660a48801525160c487015261010060e487015285019201611760565b03925af19081156103475760209361032b92610338575b5061032283611279565b928391336112fa565b6001600555604051908152f35b61034190610f3f565b84610318565b6040513d5f823e3d90fd5b5f80fd5b346103525760403660031901126103525761036f610eab565b610377610ec1565b9060018060a01b038091165f52600160205260405f2091165f52602052602060405f2054604051908152f35b346103525760203660031901126103525760206103db6103c1610eab565b6001600160a01b03165f9081526020819052604090205490565b604051908152f35b34610352576020366003190112610352576001600160a01b03610404610eab565b165f525f60205260206103db60405f20546112cf565b610eeb565b346103525761042d36610fb8565b9060018060a01b0382165f525f60205260405f20548084116104635750826103db9161045a6020956112cf565b93849133611411565b604051632e52afbb60e21b81526001600160a01b039390931660048401526024830193909352506044810191909152606490fd5b34610352576104a536610fb8565b9060018060a01b0382165f525f6020526104c260405f20546112cf565b8084116104e357506103db90836104da60209561124b565b93849233611411565b604051633fa733bb60e21b81526001600160a01b039390931660048401526024830193909352506044810191909152606490fd5b346103525760203660031901126103525760206103db6004356112a4565b346103525760403660031901126103525761055b610551610eab565b602435903361100b565b602060405160018152f35b34610352575f366003190112610352576040515f90600454600181811c9080831692831561065c575b60209384841081146106485783865290811561062857506001146105ce575b6105ca846105be81880382610f6d565b60405191829182610e46565b0390f35b60045f9081529294507f8a35acfbc15ff81a39ae7d344fd709f28e8600b4aa8c65c6b64bfe7fe36bd19b5b82841061061557505050816105ca936105be92820101936105ae565b80548585018701529285019281016105f9565b60ff1916858501525050151560051b82010191506105be816105ca6105ae565b634e487b7160e01b5f52602260045260245ffd5b91607f169161058f565b346103525760403660031901126103525760206004356103db610687610ec1565b91610691816112a4565b8093336112fa565b34610352576060366003190112610352576001600160401b03600435116103525736602360043501121561035257600435600401356106d781610f8e565b906106e56040519283610f6d565b80825260208201903660248260051b60043501011161035257602460043501915b60248260051b600435010183106109d457836001600160401b036024351161035257366023602435011215610352576001600160401b0360243560040135116103525736602480356004013560051b8135010111610352576044356001600160a01b038116900361035257610779611780565b5f90815b81518310156109ba5761079083836117e4565b51602435600401358410156109a65760421960243536030160248560051b813501013512156103525760248460051b8135010135602435016001600160401b0360248201351161035257602481013536036044820113610352577f00000000000000000000000000000000000000000000000000000000000000006001600160a01b03163b15610352576040518092632a2d80d160e01b82523360048301526060602483015260c4820190805191606060648501528251809152602060e485019301905f5b81811061094b5750505082915f94604061089c9360018060a01b036020820151166084870152015160a4850152600319848303016044850152604460248201359101611760565b0381837f00000000000000000000000000000000000000000000000000000000000000006001600160a01b03165af180156103475761093c575b505f905b6108e484846117e4565b51515182101561092b576109259061091f906001600160a01b0360206109158661090e8a8a6117e4565b51516117e4565b51015116906110e6565b916117d6565b906108da565b9261093691506117d6565b9161077d565b61094590610f3f565b836108d6565b91959450919260206080826109966001948a5160609060018060a01b0380825116845260208201511660208401528165ffffffffffff91826040820151166040860152015116910152565b0196019101918694959392610855565b634e487b7160e01b5f52603260045260245ffd5b60209061032b6109c982611279565b8092604435336112fa565b82356001600160401b0381116103525760606004358201360360231901126103525760405190610a0382610f10565b6024816004350101356001600160401b038111610352573660438284600435010101121561035257602481836004350101013590610a4082610f8e565b91610a4e6040519384610f6d565b808352602083013660448360071b858860043501010101116103525760448386600435010101905b60448360071b8588600435010101018210610ac957505050509282606460209493602496869552610aad6044826004350101610ed7565b8584015260043501013560408201528152019301929050610706565b60808236031261035257604051610adf81610f52565b610ae883610ed7565b815260208301356001600160a01b0381169003610352576080916020918285013583820152610b1960408601610fa5565b6040820152610b2a60608601610fa5565b6060820152815201910190610a76565b346103525760403660031901126103525760206004356103db610b5b610ec1565b61032283611279565b610e8d565b34610352575f366003190112610352576040517f00000000000000000000000000000000000000000000000000000000000000006001600160a01b03168152602090f35b34610352575f366003190112610352576040517f00000000000000000000000000000000000000000000000000000000000000006001600160a01b03168152602090f35b34610352575f3660031901126103525760ff7f00000000000000000000000000000000000000000000000000000000000000001660ff8111610c3857602090604051908152f35b634e487b7160e01b5f52601160045260245ffd5b346103525760603660031901126103525761055b610c68610eab565b610c70610ec1565b60443591610c7f8333836110f3565b61100b565b34610352575f366003190112610352576020600254604051908152f35b346103525760203660031901126103525760206103db60043561124b565b3461035257604036600319011261035257610cd8610eab565b602435903315610d59576001600160a01b0316908115610d4157335f52600160205260405f20825f526020528060405f20556040519081527f8c5be1e5ebec7d5bd14f71427d1e84f3dd0314c0f7b2291e5b200ac8c7c3b92560203392a3602060405160018152f35b604051634a1406b160e11b81525f6004820152602490fd5b60405163e602df0560e01b81525f6004820152602490fd5b34610352575f366003190112610352576040515f90600354600181811c90808316928315610e22575b6020938484108114610648578386529081156106285750600114610dc8576105ca846105be81880382610f6d565b60035f9081529294507fc2575a0e9e593c00f959f8c92f12db2869c3395a3b0502d05e2516446f71f85b5b828410610e0f57505050816105ca936105be92820101936105ae565b8054858501870152928501928101610df3565b91607f1691610d9a565b34610352575f3660031901126103525760206103db6111c4565b602080825282518183018190529093925f5b828110610e7957505060409293505f838284010152601f8019910116010190565b818101860151848201604001528501610e58565b346103525760203660031901126103525760206103db6004356112cf565b600435906001600160a01b038216820361035257565b602435906001600160a01b038216820361035257565b35906001600160a01b038216820361035257565b3461035257602036600319011261035257610f04610eab565b5060206040515f198152f35b606081019081106001600160401b03821117610f2b57604052565b634e487b7160e01b5f52604160045260245ffd5b6001600160401b038111610f2b57604052565b608081019081106001600160401b03821117610f2b57604052565b90601f801991011681019081106001600160401b03821117610f2b57604052565b6001600160401b038111610f2b5760051b60200190565b359065ffffffffffff8216820361035257565b606090600319011261035257600435906001600160a01b03906024358281168103610352579160443590811681036103525790565b346103525760203660031901126103525760206103db600435611279565b916001600160a01b038084169283156110ce57169283156110b6575f9083825281602052604082205490838210611084575091604082827fddf252ad1be2c89b69c2b068fc378daa952ba7f163c4a11628f55a4df523b3ef958760209652828652038282205586815220818154019055604051908152a3565b60405163391434e360e21b81526001600160a01b03919091166004820152602481019190915260448101839052606490fd5b60405163ec442f0560e01b81525f6004820152602490fd5b604051634b637e8f60e11b81525f6004820152602490fd5b91908201809211610c3857565b9160018060a01b03809316915f9383855260016020526040938486209183169182875260205284862054925f198403611130575b50505050505050565b8484106111945750801561117c5781156111645785526001602052838520908552602052039120555f808080808080611127565b8451634a1406b160e11b815260048101879052602490fd5b845163e602df0560e01b815260048101879052602490fd5b8551637dc7a0d960e11b81526001600160a01b039190911660048201526024810184905260448101859052606490fd5b6040516370a0823160e01b81523060048201526020816024817f00000000000000000000000000000000000000000000000000000000000000006001600160a01b03165afa908115610347575f9161121a575090565b906020823d8211611243575b8161123360209383610f6d565b8101031261124057505190565b80fd5b3d9150611226565b60025460018101809111610c38576112616111c4565b9060018201809211610c38576112769261168f565b90565b60025460018101809111610c385761128f6111c4565b9060018201809211610c3857611276926116cd565b6112ac6111c4565b60018101809111610c38576002549060018201809211610c38576112769261168f565b6112d76111c4565b60018101809111610c38576002549060018201809211610c3857611276926116cd565b604080516323b872dd60e01b60208201526001600160a01b0392831660248201819052306044830152606480830187905282529491939192919060a08101906001600160401b03821181831017610f2b576113779186527f0000000000000000000000000000000000000000000000000000000000000000611556565b169384156113fa5790816113af7fdcbc1c05240f31ff3ad067ef1ee35ce4997762752e3a095284754544f4c709d794936002546110e6565b600255855f525f602052825f20818154019055855f7fddf252ad1be2c89b69c2b068fc378daa952ba7f163c4a11628f55a4df523b3ef60208651858152a382519182526020820152a3565b825163ec442f0560e01b81525f6004820152602490fd5b91909260018060a01b0394858316958085169482888703611545575b505086156110ce575f87815280602052604094858220549084821061151457509181847ffbde797d201c681b91056529119e0b02407c7bb96a4a2c75c01fc9667232c8db979695948b61150795528260205203868220558360025403600255897fddf252ad1be2c89b69c2b068fc378daa952ba7f163c4a11628f55a4df523b3ef60208851878152a384519763a9059cbb60e01b60208a01521696876024820152836044820152604481526114e181610f52565b7f0000000000000000000000000000000000000000000000000000000000000000611556565b82519182526020820152a4565b865163391434e360e21b81526001600160a01b03919091166004820152602481019190915260448101849052606490fd5b61154f91866110f3565b5f8261142d565b60018060a01b0316905f80826020829451910182865af13d15611620573d906001600160401b03821161160c57906115b091604051916115a06020601f19601f8401160184610f6d565b82523d84602084013e5b8461162c565b9081519182151592836115e0575b5050506115c85750565b60249060405190635274afe760e01b82526004820152fd5b81929350906020918101031261160857602001519081159182150361124057505f80806115be565b5080fd5b634e487b7160e01b83526041600452602483fd5b6115b0906060906115aa565b90611653575080511561164157805190602001fd5b604051630a12f52160e11b8152600490fd5b81511580611686575b611664575090565b604051639996b31560e01b81526001600160a01b039091166004820152602490fd5b50803b1561165c565b919061169c8282856116cd565b9282156116b957096116ab5790565b60018101809111610c385790565b634e487b7160e01b5f52601260045260245ffd5b9091828202915f1984820993838086109503948086039514611752578483111561174057829109815f038216809204600280826003021880830282030280830282030280830282030280830282030280830282030280920290030293600183805f03040190848311900302920304170290565b60405163227bc15360e01b8152600490fd5b5050809250156116b9570490565b908060209392818452848401375f828201840152601f01601f1916010190565b600260055414611791576002600555565b60405162461bcd60e51b815260206004820152601f60248201527f5265656e7472616e637947756172643a207265656e7472616e742063616c6c006044820152606490fd5b5f198114610c385760010190565b80518210156109a65760209160051b01019056fea264697066735822122010f80328a4f1789f0f95bbb132a01d7f563077070af78b2a0bba6cd5b3a97ef364736f6c63430008140033",
			"opcodes": "PUSH1 0xE0 DUP1 PUSH1 0x40 MSTORE CALLVALUE PUSH3 0x3B0 JUMPI PUSH3 0x1D50 DUP1 CODESIZE SUB DUP1 SWAP2 PUSH3 0x20 DUP3 DUP6 PUSH3 0x3B4 JUMP JUMPDEST DUP4 CODECOPY DUP2 ADD PUSH1 0x80 DUP3 DUP3 SUB SLT PUSH3 0x3B0 JUMPI DUP2 MLOAD PUSH1 0x1 PUSH1 0x1 PUSH1 0xA0 SHL SUB SWAP3 DUP4 DUP3 AND DUP3 SUB PUSH3 0x3B0 JUMPI PUSH1 0x20 DUP2 DUP2 ADD MLOAD SWAP1 SWAP2 PUSH1 0x1 PUSH1 0x1 PUSH1 0x40 SHL SUB SWAP2 DUP3 DUP2 GT PUSH3 0x3B0 JUMPI DUP6 PUSH3 0x6B SWAP2 DUP4 ADD PUSH3 0x3F4 JUMP JUMPDEST SWAP5 PUSH1 0x40 DUP3 ADD MLOAD DUP4 DUP2 GT PUSH3 0x3B0 JUMPI PUSH1 0x60 SWAP2 PUSH3 0x89 SWAP2 DUP5 ADD PUSH3 0x3F4 JUMP JUMPDEST SWAP2 ADD MLOAD SWAP6 DUP7 AND DUP7 SUB PUSH3 0x3B0 JUMPI DUP5 MLOAD DUP3 DUP2 GT PUSH3 0x2BB JUMPI PUSH1 0x3 SWAP2 DUP3 SLOAD SWAP2 PUSH1 0x1 SWAP8 DUP9 DUP5 DUP2 SHR SWAP5 AND DUP1 ISZERO PUSH3 0x3A5 JUMPI JUMPDEST DUP8 DUP6 LT EQ PUSH3 0x391 JUMPI DUP2 SWAP1 PUSH1 0x1F SWAP5 DUP6 DUP2 GT PUSH3 0x33E JUMPI JUMPDEST POP DUP8 SWAP1 DUP6 DUP4 GT PUSH1 0x1 EQ PUSH3 0x2DB JUMPI PUSH0 SWAP3 PUSH3 0x2CF JUMPI JUMPDEST POP POP PUSH0 NOT DUP3 DUP7 SHL SHR NOT AND SWAP1 DUP9 SHL OR DUP4 SSTORE JUMPDEST DUP1 MLOAD SWAP4 DUP5 GT PUSH3 0x2BB JUMPI PUSH1 0x4 SWAP5 DUP6 SLOAD DUP9 DUP2 DUP2 SHR SWAP2 AND DUP1 ISZERO PUSH3 0x2B0 JUMPI JUMPDEST DUP3 DUP3 LT EQ PUSH3 0x29D JUMPI SWAP1 DUP2 DUP5 DUP8 SWAP7 SWAP6 SWAP5 SWAP4 GT PUSH3 0x244 JUMPI JUMPDEST POP DUP1 SWAP3 DUP6 GT PUSH1 0x1 EQ PUSH3 0x1DA JUMPI POP PUSH0 SWAP4 PUSH3 0x1CE JUMPI JUMPDEST POP POP DUP3 DUP7 SHL SWAP3 PUSH0 NOT SWAP2 SHL SHR NOT AND OR SWAP1 SSTORE JUMPDEST PUSH3 0x15C DUP2 PUSH3 0x45C JUMP JUMPDEST SWAP1 ISZERO PUSH3 0x1C5 JUMPI JUMPDEST PUSH1 0xA0 MSTORE PUSH1 0x80 MSTORE PUSH1 0x5 SSTORE PUSH1 0xC0 MSTORE PUSH1 0x40 MLOAD PUSH2 0x182E SWAP1 DUP2 PUSH3 0x522 DUP3 CODECOPY PUSH1 0x80 MLOAD DUP2 DUP2 DUP2 PUSH2 0xBC2 ADD MSTORE DUP2 DUP2 PUSH2 0x11DF ADD MSTORE DUP2 DUP2 PUSH2 0x1353 ADD MSTORE PUSH2 0x14E3 ADD MSTORE PUSH1 0xA0 MLOAD DUP2 PUSH2 0xC05 ADD MSTORE PUSH1 0xC0 MLOAD DUP2 DUP2 DUP2 PUSH2 0x256 ADD MSTORE DUP2 DUP2 PUSH2 0x7EC ADD MSTORE DUP2 DUP2 PUSH2 0x8A1 ADD MSTORE PUSH2 0xB7E ADD MSTORE RETURN JUMPDEST POP PUSH1 0x12 PUSH3 0x164 JUMP JUMPDEST ADD MLOAD SWAP2 POP PUSH0 DUP1 PUSH3 0x140 JUMP JUMPDEST SWAP3 SWAP2 SWAP1 DUP9 SWAP6 POP PUSH1 0x1F NOT DUP6 AND DUP8 PUSH0 MSTORE DUP5 PUSH0 KECCAK256 SWAP5 PUSH0 SWAP1 JUMPDEST DUP3 DUP3 LT PUSH3 0x22A JUMPI POP POP DUP6 GT PUSH3 0x210 JUMPI JUMPDEST POP POP POP POP DUP2 SHL ADD SWAP1 SSTORE PUSH3 0x151 JUMP JUMPDEST ADD MLOAD SWAP1 PUSH1 0xF8 DUP5 PUSH0 NOT SWAP3 SHL AND SHR NOT AND SWAP1 SSTORE PUSH0 DUP1 DUP1 DUP1 PUSH3 0x201 JUMP JUMPDEST DUP5 DUP5 ADD MLOAD DUP8 SSTORE DUP12 SWAP9 SWAP1 SWAP7 ADD SWAP6 SWAP4 DUP5 ADD SWAP4 SWAP1 DUP2 ADD SWAP1 PUSH3 0x1EF JUMP JUMPDEST SWAP1 SWAP2 SWAP3 SWAP4 SWAP5 POP DUP7 PUSH0 MSTORE DUP2 PUSH0 KECCAK256 DUP5 DUP1 DUP9 ADD PUSH1 0x5 SHR DUP3 ADD SWAP3 DUP5 DUP10 LT PUSH3 0x293 JUMPI JUMPDEST SWAP2 DUP12 SWAP2 DUP10 SWAP9 SWAP8 SWAP7 SWAP6 SWAP5 SWAP4 ADD PUSH1 0x5 SHR ADD SWAP2 JUMPDEST DUP3 DUP2 LT PUSH3 0x284 JUMPI POP POP PUSH3 0x12A JUMP JUMPDEST PUSH0 DUP2 SSTORE DUP9 SWAP8 POP DUP12 SWAP2 ADD PUSH3 0x274 JUMP JUMPDEST SWAP3 POP DUP2 SWAP3 PUSH3 0x263 JUMP JUMPDEST PUSH1 0x22 DUP8 PUSH4 0x4E487B71 PUSH1 0xE0 SHL PUSH0 MSTORE MSTORE PUSH1 0x24 PUSH0 REVERT JUMPDEST SWAP1 PUSH1 0x7F AND SWAP1 PUSH3 0x112 JUMP JUMPDEST PUSH4 0x4E487B71 PUSH1 0xE0 SHL PUSH0 MSTORE PUSH1 0x41 PUSH1 0x4 MSTORE PUSH1 0x24 PUSH0 REVERT JUMPDEST ADD MLOAD SWAP1 POP PUSH0 DUP1 PUSH3 0xE4 JUMP JUMPDEST SWAP1 DUP11 SWAP4 POP PUSH1 0x1F NOT DUP4 AND SWAP2 DUP8 PUSH0 MSTORE DUP10 PUSH0 KECCAK256 SWAP3 PUSH0 JUMPDEST DUP12 DUP3 DUP3 LT PUSH3 0x327 JUMPI POP POP DUP5 GT PUSH3 0x30F JUMPI JUMPDEST POP POP POP DUP2 SHL ADD DUP4 SSTORE PUSH3 0xF5 JUMP JUMPDEST ADD MLOAD PUSH0 NOT DUP4 DUP9 SHL PUSH1 0xF8 AND SHR NOT AND SWAP1 SSTORE PUSH0 DUP1 DUP1 PUSH3 0x301 JUMP JUMPDEST DUP4 DUP6 ADD MLOAD DUP7 SSTORE DUP15 SWAP8 SWAP1 SWAP6 ADD SWAP5 SWAP4 DUP5 ADD SWAP4 ADD PUSH3 0x2EE JUMP JUMPDEST SWAP1 SWAP2 POP DUP6 PUSH0 MSTORE DUP8 PUSH0 KECCAK256 DUP6 DUP1 DUP6 ADD PUSH1 0x5 SHR DUP3 ADD SWAP3 DUP11 DUP7 LT PUSH3 0x387 JUMPI JUMPDEST SWAP2 DUP13 SWAP2 DUP7 SWAP6 SWAP5 SWAP4 ADD PUSH1 0x5 SHR ADD SWAP2 JUMPDEST DUP3 DUP2 LT PUSH3 0x378 JUMPI POP POP PUSH3 0xCE JUMP JUMPDEST PUSH0 DUP2 SSTORE DUP6 SWAP5 POP DUP13 SWAP2 ADD PUSH3 0x368 JUMP JUMPDEST SWAP3 POP DUP2 SWAP3 PUSH3 0x35A JUMP JUMPDEST PUSH4 0x4E487B71 PUSH1 0xE0 SHL PUSH0 MSTORE PUSH1 0x22 PUSH1 0x4 MSTORE PUSH1 0x24 PUSH0 REVERT JUMPDEST SWAP4 PUSH1 0x7F AND SWAP4 PUSH3 0xB7 JUMP JUMPDEST PUSH0 DUP1 REVERT JUMPDEST PUSH1 0x1F SWAP1 SWAP2 ADD PUSH1 0x1F NOT AND DUP2 ADD SWAP1 PUSH1 0x1 PUSH1 0x1 PUSH1 0x40 SHL SUB DUP3 GT SWAP1 DUP3 LT OR PUSH3 0x2BB JUMPI PUSH1 0x40 MSTORE JUMP JUMPDEST PUSH1 0x1 PUSH1 0x1 PUSH1 0x40 SHL SUB DUP2 GT PUSH3 0x2BB JUMPI PUSH1 0x1F ADD PUSH1 0x1F NOT AND PUSH1 0x20 ADD SWAP1 JUMP JUMPDEST SWAP2 SWAP1 DUP1 PUSH1 0x1F DUP5 ADD SLT ISZERO PUSH3 0x3B0 JUMPI DUP3 MLOAD SWAP1 PUSH3 0x410 DUP3 PUSH3 0x3D8 JUMP JUMPDEST SWAP2 PUSH3 0x420 PUSH1 0x40 MLOAD SWAP4 DUP5 PUSH3 0x3B4 JUMP JUMPDEST DUP1 DUP4 MSTORE PUSH1 0x20 SWAP2 DUP3 DUP3 DUP8 ADD ADD GT PUSH3 0x3B0 JUMPI PUSH0 JUMPDEST DUP2 DUP2 LT PUSH3 0x448 JUMPI POP DUP3 PUSH0 SWAP4 SWAP5 SWAP6 POP ADD ADD MSTORE SWAP1 JUMP JUMPDEST DUP6 DUP2 ADD DUP4 ADD MLOAD DUP5 DUP3 ADD DUP5 ADD MSTORE DUP3 ADD PUSH3 0x433 JUMP JUMPDEST PUSH1 0x40 DUP1 MLOAD PUSH4 0x313CE567 PUSH1 0xE0 SHL PUSH1 0x20 DUP3 ADD SWAP1 DUP2 MSTORE PUSH1 0x4 DUP3 MSTORE SWAP3 SWAP4 SWAP3 SWAP2 DUP2 ADD PUSH1 0x1 PUSH1 0x1 PUSH1 0x40 SHL SUB DUP2 GT DUP3 DUP3 LT OR PUSH3 0x2BB JUMPI PUSH1 0x40 MSTORE MLOAD PUSH0 SWAP4 DUP5 SWAP3 DUP4 SWAP3 SWAP2 PUSH1 0x1 PUSH1 0x1 PUSH1 0xA0 SHL SUB AND GAS STATICCALL RETURNDATASIZE ISZERO PUSH3 0x518 JUMPI RETURNDATASIZE SWAP1 PUSH3 0x4B6 DUP3 PUSH3 0x3D8 JUMP JUMPDEST SWAP2 PUSH3 0x4C6 PUSH1 0x40 MLOAD SWAP4 DUP5 PUSH3 0x3B4 JUMP JUMPDEST DUP3 MSTORE RETURNDATASIZE DUP5 PUSH1 0x20 DUP5 ADD RETURNDATACOPY JUMPDEST DUP1 PUSH3 0x50B JUMPI JUMPDEST PUSH3 0x4E2 JUMPI JUMPDEST POP DUP2 SWAP1 JUMP JUMPDEST PUSH1 0x20 DUP2 DUP1 MLOAD DUP2 ADD SUB SLT PUSH3 0x507 JUMPI PUSH1 0x20 ADD MLOAD PUSH1 0xFF DUP2 GT PUSH3 0x4DD JUMPI PUSH1 0x1 SWAP3 POP PUSH1 0xFF AND SWAP1 JUMP JUMPDEST DUP3 DUP1 REVERT JUMPDEST POP PUSH1 0x20 DUP2 MLOAD LT ISZERO PUSH3 0x4D7 JUMP JUMPDEST PUSH1 0x60 SWAP1 PUSH3 0x4D0 JUMP INVALID PUSH1 0x80 PUSH1 0x40 MSTORE PUSH1 0x4 CALLDATASIZE LT ISZERO PUSH2 0x11 JUMPI PUSH0 DUP1 REVERT JUMPDEST PUSH0 CALLDATALOAD PUSH1 0xE0 SHR DUP1 PUSH4 0x1E1D114 EQ PUSH2 0xE2C JUMPI DUP1 PUSH4 0x6FDDE03 EQ PUSH2 0xD71 JUMPI DUP1 PUSH4 0x7A2D13A EQ PUSH2 0xB64 JUMPI DUP1 PUSH4 0x95EA7B3 EQ PUSH2 0xCBF JUMPI DUP1 PUSH4 0xA28A477 EQ PUSH2 0xCA1 JUMPI DUP1 PUSH4 0x18160DDD EQ PUSH2 0xC84 JUMPI DUP1 PUSH4 0x23B872DD EQ PUSH2 0xC4C JUMPI DUP1 PUSH4 0x313CE567 EQ PUSH2 0xBF1 JUMPI DUP1 PUSH4 0x38D52E0F EQ PUSH2 0xBAD JUMPI DUP1 PUSH4 0x402D267D EQ PUSH2 0x41A JUMPI DUP1 PUSH4 0x464582CB EQ PUSH2 0xB69 JUMPI DUP1 PUSH4 0x4CDAD506 EQ PUSH2 0xB64 JUMPI DUP1 PUSH4 0x6E553F65 EQ PUSH2 0xB3A JUMPI DUP1 PUSH4 0x70A08231 EQ PUSH2 0x3A3 JUMPI DUP1 PUSH4 0x7B17EDF2 EQ PUSH2 0x699 JUMPI DUP1 PUSH4 0x94BF804D EQ PUSH2 0x666 JUMPI DUP1 PUSH4 0x95D89B41 EQ PUSH2 0x566 JUMPI DUP1 PUSH4 0xA9059CBB EQ PUSH2 0x535 JUMPI DUP1 PUSH4 0xB3D7F6B9 EQ PUSH2 0x517 JUMPI DUP1 PUSH4 0xB460AF94 EQ PUSH2 0x497 JUMPI DUP1 PUSH4 0xBA087652 EQ PUSH2 0x41F JUMPI DUP1 PUSH4 0xC63D75B6 EQ PUSH2 0x41A JUMPI DUP1 PUSH4 0xC6E6F592 EQ PUSH2 0x14D JUMPI DUP1 PUSH4 0xCE96CB77 EQ PUSH2 0x3E3 JUMPI DUP1 PUSH4 0xD905777E EQ PUSH2 0x3A3 JUMPI DUP1 PUSH4 0xDD62ED3E EQ PUSH2 0x356 JUMPI DUP1 PUSH4 0xE6ADB29C EQ PUSH2 0x152 JUMPI PUSH4 0xEF8B30F7 EQ PUSH2 0x14D JUMPI PUSH0 DUP1 REVERT JUMPDEST PUSH2 0xFED JUMP JUMPDEST CALLVALUE PUSH2 0x352 JUMPI PUSH2 0x120 CALLDATASIZE PUSH1 0x3 NOT ADD SLT PUSH2 0x352 JUMPI CALLDATASIZE PUSH1 0x23 NOT ADD PUSH1 0x4 CALLDATALOAD PUSH1 0xC0 DUP3 SLT PUSH2 0x352 JUMPI PUSH1 0x80 PUSH1 0x40 MLOAD SWAP3 PUSH2 0x183 DUP5 PUSH2 0xF10 JUMP JUMPDEST SLT PUSH2 0x352 JUMPI PUSH1 0x40 MLOAD SWAP2 PUSH2 0x195 DUP4 PUSH2 0xF52 JUMP JUMPDEST PUSH1 0x1 PUSH1 0x1 PUSH1 0xA0 SHL SUB SWAP3 PUSH1 0x24 CALLDATALOAD DUP5 DUP2 AND DUP2 SUB PUSH2 0x352 JUMPI DUP2 MSTORE PUSH1 0x44 CALLDATALOAD DUP5 DUP2 AND DUP2 SUB PUSH2 0x352 JUMPI PUSH1 0x20 DUP3 ADD MSTORE PUSH6 0xFFFFFFFFFFFF PUSH1 0x64 CALLDATALOAD DUP2 DUP2 AND DUP2 SUB PUSH2 0x352 JUMPI PUSH1 0x40 DUP4 ADD MSTORE PUSH1 0x84 CALLDATALOAD SWAP1 DUP2 AND DUP2 SUB PUSH2 0x352 JUMPI PUSH1 0x60 DUP3 ADD MSTORE DUP2 MSTORE PUSH1 0xA4 CALLDATALOAD DUP4 DUP2 AND DUP2 SUB PUSH2 0x352 JUMPI PUSH1 0x20 DUP3 ADD SWAP1 DUP2 MSTORE PUSH1 0x40 DUP3 ADD SWAP1 PUSH1 0xC4 CALLDATALOAD DUP3 MSTORE PUSH1 0xE4 CALLDATALOAD SWAP2 PUSH1 0x1 PUSH1 0x1 PUSH1 0x40 SHL SUB DUP1 DUP5 GT PUSH2 0x352 JUMPI CALLDATASIZE PUSH1 0x23 DUP6 ADD SLT ISZERO PUSH2 0x352 JUMPI DUP4 PUSH1 0x4 ADD CALLDATALOAD SWAP1 DUP2 GT PUSH2 0x352 JUMPI CALLDATASIZE PUSH1 0x24 DUP3 DUP7 ADD ADD GT PUSH2 0x352 JUMPI PUSH2 0x104 SWAP2 DUP3 CALLDATALOAD SWAP6 DUP9 DUP8 AND DUP8 SUB PUSH2 0x352 JUMPI PUSH2 0x253 PUSH2 0x1780 JUMP JUMPDEST DUP9 PUSH32 0x0 AND SWAP4 DUP5 EXTCODESIZE ISZERO PUSH2 0x352 JUMPI PUSH0 SWAP7 PUSH2 0x2E3 SWAP5 PUSH1 0x24 PUSH2 0x301 SWAP4 DUP11 SWAP7 PUSH1 0x40 MLOAD SWAP15 DUP16 SWAP12 DUP13 SWAP11 DUP12 SWAP10 PUSH4 0x2B67B57 PUSH1 0xE4 SHL DUP12 MSTORE CALLER PUSH1 0x4 DUP13 ADD MSTORE DUP7 DUP12 ADD SWAP1 MLOAD PUSH1 0x60 SWAP1 PUSH1 0x1 DUP1 PUSH1 0xA0 SHL SUB DUP1 DUP3 MLOAD AND DUP5 MSTORE PUSH1 0x20 DUP3 ADD MLOAD AND PUSH1 0x20 DUP5 ADD MSTORE DUP2 PUSH6 0xFFFFFFFFFFFF SWAP2 DUP3 PUSH1 0x40 DUP3 ADD MLOAD AND PUSH1 0x40 DUP7 ADD MSTORE ADD MLOAD AND SWAP2 ADD MSTORE JUMP JUMPDEST MLOAD AND PUSH1 0xA4 DUP9 ADD MSTORE MLOAD PUSH1 0xC4 DUP8 ADD MSTORE PUSH2 0x100 PUSH1 0xE4 DUP8 ADD MSTORE DUP6 ADD SWAP3 ADD PUSH2 0x1760 JUMP JUMPDEST SUB SWAP3 GAS CALL SWAP1 DUP2 ISZERO PUSH2 0x347 JUMPI PUSH1 0x20 SWAP4 PUSH2 0x32B SWAP3 PUSH2 0x338 JUMPI JUMPDEST POP PUSH2 0x322 DUP4 PUSH2 0x1279 JUMP JUMPDEST SWAP3 DUP4 SWAP2 CALLER PUSH2 0x12FA JUMP JUMPDEST PUSH1 0x1 PUSH1 0x5 SSTORE PUSH1 0x40 MLOAD SWAP1 DUP2 MSTORE RETURN JUMPDEST PUSH2 0x341 SWAP1 PUSH2 0xF3F JUMP JUMPDEST DUP5 PUSH2 0x318 JUMP JUMPDEST PUSH1 0x40 MLOAD RETURNDATASIZE PUSH0 DUP3 RETURNDATACOPY RETURNDATASIZE SWAP1 REVERT JUMPDEST PUSH0 DUP1 REVERT JUMPDEST CALLVALUE PUSH2 0x352 JUMPI PUSH1 0x40 CALLDATASIZE PUSH1 0x3 NOT ADD SLT PUSH2 0x352 JUMPI PUSH2 0x36F PUSH2 0xEAB JUMP JUMPDEST PUSH2 0x377 PUSH2 0xEC1 JUMP JUMPDEST SWAP1 PUSH1 0x1 DUP1 PUSH1 0xA0 SHL SUB DUP1 SWAP2 AND PUSH0 MSTORE PUSH1 0x1 PUSH1 0x20 MSTORE PUSH1 0x40 PUSH0 KECCAK256 SWAP2 AND PUSH0 MSTORE PUSH1 0x20 MSTORE PUSH1 0x20 PUSH1 0x40 PUSH0 KECCAK256 SLOAD PUSH1 0x40 MLOAD SWAP1 DUP2 MSTORE RETURN JUMPDEST CALLVALUE PUSH2 0x352 JUMPI PUSH1 0x20 CALLDATASIZE PUSH1 0x3 NOT ADD SLT PUSH2 0x352 JUMPI PUSH1 0x20 PUSH2 0x3DB PUSH2 0x3C1 PUSH2 0xEAB JUMP JUMPDEST PUSH1 0x1 PUSH1 0x1 PUSH1 0xA0 SHL SUB AND PUSH0 SWAP1 DUP2 MSTORE PUSH1 0x20 DUP2 SWAP1 MSTORE PUSH1 0x40 SWAP1 KECCAK256 SLOAD SWAP1 JUMP JUMPDEST PUSH1 0x40 MLOAD SWAP1 DUP2 MSTORE RETURN JUMPDEST CALLVALUE PUSH2 0x352 JUMPI PUSH1 0x20 CALLDATASIZE PUSH1 0x3 NOT ADD SLT PUSH2 0x352 JUMPI PUSH1 0x1 PUSH1 0x1 PUSH1 0xA0 SHL SUB PUSH2 0x404 PUSH2 0xEAB JUMP JUMPDEST AND PUSH0 MSTORE PUSH0 PUSH1 0x20 MSTORE PUSH1 0x20 PUSH2 0x3DB PUSH1 0x40 PUSH0 KECCAK256 SLOAD PUSH2 0x12CF JUMP JUMPDEST PUSH2 0xEEB JUMP JUMPDEST CALLVALUE PUSH2 0x352 JUMPI PUSH2 0x42D CALLDATASIZE PUSH2 0xFB8 JUMP JUMPDEST SWAP1 PUSH1 0x1 DUP1 PUSH1 0xA0 SHL SUB DUP3 AND PUSH0 MSTORE PUSH0 PUSH1 0x20 MSTORE PUSH1 0x40 PUSH0 KECCAK256 SLOAD DUP1 DUP5 GT PUSH2 0x463 JUMPI POP DUP3 PUSH2 0x3DB SWAP2 PUSH2 0x45A PUSH1 0x20 SWAP6 PUSH2 0x12CF JUMP JUMPDEST SWAP4 DUP5 SWAP2 CALLER PUSH2 0x1411 JUMP JUMPDEST PUSH1 0x40 MLOAD PUSH4 0x2E52AFBB PUSH1 0xE2 SHL DUP2 MSTORE PUSH1 0x1 PUSH1 0x1 PUSH1 0xA0 SHL SUB SWAP4 SWAP1 SWAP4 AND PUSH1 0x4 DUP5 ADD MSTORE PUSH1 0x24 DUP4 ADD SWAP4 SWAP1 SWAP4 MSTORE POP PUSH1 0x44 DUP2 ADD SWAP2 SWAP1 SWAP2 MSTORE PUSH1 0x64 SWAP1 REVERT JUMPDEST CALLVALUE PUSH2 0x352 JUMPI PUSH2 0x4A5 CALLDATASIZE PUSH2 0xFB8 JUMP JUMPDEST SWAP1 PUSH1 0x1 DUP1 PUSH1 0xA0 SHL SUB DUP3 AND PUSH0 MSTORE PUSH0 PUSH1 0x20 MSTORE PUSH2 0x4C2 PUSH1 0x40 PUSH0 KECCAK256 SLOAD PUSH2 0x12CF JUMP JUMPDEST DUP1 DUP5 GT PUSH2 0x4E3 JUMPI POP PUSH2 0x3DB SWAP1 DUP4 PUSH2 0x4DA PUSH1 0x20 SWAP6 PUSH2 0x124B JUMP JUMPDEST SWAP4 DUP5 SWAP3 CALLER PUSH2 0x1411 JUMP JUMPDEST PUSH1 0x40 MLOAD PUSH4 0x3FA733BB PUSH1 0xE2 SHL DUP2 MSTORE PUSH1 0x1 PUSH1 0x1 PUSH1 0xA0 SHL SUB SWAP4 SWAP1 SWAP4 AND PUSH1 0x4 DUP5 ADD MSTORE PUSH1 0x24 DUP4 ADD SWAP4 SWAP1 SWAP4 MSTORE POP PUSH1 0x44 DUP2 ADD SWAP2 SWAP1 SWAP2 MSTORE PUSH1 0x64 SWAP1 REVERT JUMPDEST CALLVALUE PUSH2 0x352 JUMPI PUSH1 0x20 CALLDATASIZE PUSH1 0x3 NOT ADD SLT PUSH2 0x352 JUMPI PUSH1 0x20 PUSH2 0x3DB PUSH1 0x4 CALLDATALOAD PUSH2 0x12A4 JUMP JUMPDEST CALLVALUE PUSH2 0x352 JUMPI PUSH1 0x40 CALLDATASIZE PUSH1 0x3 NOT ADD SLT PUSH2 0x352 JUMPI PUSH2 0x55B PUSH2 0x551 PUSH2 0xEAB JUMP JUMPDEST PUSH1 0x24 CALLDATALOAD SWAP1 CALLER PUSH2 0x100B JUMP JUMPDEST PUSH1 0x20 PUSH1 0x40 MLOAD PUSH1 0x1 DUP2 MSTORE RETURN JUMPDEST CALLVALUE PUSH2 0x352 JUMPI PUSH0 CALLDATASIZE PUSH1 0x3 NOT ADD SLT PUSH2 0x352 JUMPI PUSH1 0x40 MLOAD PUSH0 SWAP1 PUSH1 0x4 SLOAD PUSH1 0x1 DUP2 DUP2 SHR SWAP1 DUP1 DUP4 AND SWAP3 DUP4 ISZERO PUSH2 0x65C JUMPI JUMPDEST PUSH1 0x20 SWAP4 DUP5 DUP5 LT DUP2 EQ PUSH2 0x648 JUMPI DUP4 DUP7 MSTORE SWAP1 DUP2 ISZERO PUSH2 0x628 JUMPI POP PUSH1 0x1 EQ PUSH2 0x5CE JUMPI JUMPDEST PUSH2 0x5CA DUP5 PUSH2 0x5BE DUP2 DUP9 SUB DUP3 PUSH2 0xF6D JUMP JUMPDEST PUSH1 0x40 MLOAD SWAP2 DUP3 SWAP2 DUP3 PUSH2 0xE46 JUMP JUMPDEST SUB SWAP1 RETURN JUMPDEST PUSH1 0x4 PUSH0 SWAP1 DUP2 MSTORE SWAP3 SWAP5 POP PUSH32 0x8A35ACFBC15FF81A39AE7D344FD709F28E8600B4AA8C65C6B64BFE7FE36BD19B JUMPDEST DUP3 DUP5 LT PUSH2 0x615 JUMPI POP POP POP DUP2 PUSH2 0x5CA SWAP4 PUSH2 0x5BE SWAP3 DUP3 ADD ADD SWAP4 PUSH2 0x5AE JUMP JUMPDEST DUP1 SLOAD DUP6 DUP6 ADD DUP8 ADD MSTORE SWAP3 DUP6 ADD SWAP3 DUP2 ADD PUSH2 0x5F9 JUMP JUMPDEST PUSH1 0xFF NOT AND DUP6 DUP6 ADD MSTORE POP POP ISZERO ISZERO PUSH1 0x5 SHL DUP3 ADD ADD SWAP2 POP PUSH2 0x5BE DUP2 PUSH2 0x5CA PUSH2 0x5AE JUMP JUMPDEST PUSH4 0x4E487B71 PUSH1 0xE0 SHL PUSH0 MSTORE PUSH1 0x22 PUSH1 0x4 MSTORE PUSH1 0x24 PUSH0 REVERT JUMPDEST SWAP2 PUSH1 0x7F AND SWAP2 PUSH2 0x58F JUMP JUMPDEST CALLVALUE PUSH2 0x352 JUMPI PUSH1 0x40 CALLDATASIZE PUSH1 0x3 NOT ADD SLT PUSH2 0x352 JUMPI PUSH1 0x20 PUSH1 0x4 CALLDATALOAD PUSH2 0x3DB PUSH2 0x687 PUSH2 0xEC1 JUMP JUMPDEST SWAP2 PUSH2 0x691 DUP2 PUSH2 0x12A4 JUMP JUMPDEST DUP1 SWAP4 CALLER PUSH2 0x12FA JUMP JUMPDEST CALLVALUE PUSH2 0x352 JUMPI PUSH1 0x60 CALLDATASIZE PUSH1 0x3 NOT ADD SLT PUSH2 0x352 JUMPI PUSH1 0x1 PUSH1 0x1 PUSH1 0x40 SHL SUB PUSH1 0x4 CALLDATALOAD GT PUSH2 0x352 JUMPI CALLDATASIZE PUSH1 0x23 PUSH1 0x4 CALLDATALOAD ADD SLT ISZERO PUSH2 0x352 JUMPI PUSH1 0x4 CALLDATALOAD PUSH1 0x4 ADD CALLDATALOAD PUSH2 0x6D7 DUP2 PUSH2 0xF8E JUMP JUMPDEST SWAP1 PUSH2 0x6E5 PUSH1 0x40 MLOAD SWAP3 DUP4 PUSH2 0xF6D JUMP JUMPDEST DUP1 DUP3 MSTORE PUSH1 0x20 DUP3 ADD SWAP1 CALLDATASIZE PUSH1 0x24 DUP3 PUSH1 0x5 SHL PUSH1 0x4 CALLDATALOAD ADD ADD GT PUSH2 0x352 JUMPI PUSH1 0x24 PUSH1 0x4 CALLDATALOAD ADD SWAP2 JUMPDEST PUSH1 0x24 DUP3 PUSH1 0x5 SHL PUSH1 0x4 CALLDATALOAD ADD ADD DUP4 LT PUSH2 0x9D4 JUMPI DUP4 PUSH1 0x1 PUSH1 0x1 PUSH1 0x40 SHL SUB PUSH1 0x24 CALLDATALOAD GT PUSH2 0x352 JUMPI CALLDATASIZE PUSH1 0x23 PUSH1 0x24 CALLDATALOAD ADD SLT ISZERO PUSH2 0x352 JUMPI PUSH1 0x1 PUSH1 0x1 PUSH1 0x40 SHL SUB PUSH1 0x24 CALLDATALOAD PUSH1 0x4 ADD CALLDATALOAD GT PUSH2 0x352 JUMPI CALLDATASIZE PUSH1 0x24 DUP1 CALLDATALOAD PUSH1 0x4 ADD CALLDATALOAD PUSH1 0x5 SHL DUP2 CALLDATALOAD ADD ADD GT PUSH2 0x352 JUMPI PUSH1 0x44 CALLDATALOAD PUSH1 0x1 PUSH1 0x1 PUSH1 0xA0 SHL SUB DUP2 AND SWAP1 SUB PUSH2 0x352 JUMPI PUSH2 0x779 PUSH2 0x1780 JUMP JUMPDEST PUSH0 SWAP1 DUP2 JUMPDEST DUP2 MLOAD DUP4 LT ISZERO PUSH2 0x9BA JUMPI PUSH2 0x790 DUP4 DUP4 PUSH2 0x17E4 JUMP JUMPDEST MLOAD PUSH1 0x24 CALLDATALOAD PUSH1 0x4 ADD CALLDATALOAD DUP5 LT ISZERO PUSH2 0x9A6 JUMPI PUSH1 0x42 NOT PUSH1 0x24 CALLDATALOAD CALLDATASIZE SUB ADD PUSH1 0x24 DUP6 PUSH1 0x5 SHL DUP2 CALLDATALOAD ADD ADD CALLDATALOAD SLT ISZERO PUSH2 0x352 JUMPI PUSH1 0x24 DUP5 PUSH1 0x5 SHL DUP2 CALLDATALOAD ADD ADD CALLDATALOAD PUSH1 0x24 CALLDATALOAD ADD PUSH1 0x1 PUSH1 0x1 PUSH1 0x40 SHL SUB PUSH1 0x24 DUP3 ADD CALLDATALOAD GT PUSH2 0x352 JUMPI PUSH1 0x24 DUP2 ADD CALLDATALOAD CALLDATASIZE SUB PUSH1 0x44 DUP3 ADD SGT PUSH2 0x352 JUMPI PUSH32 0x0 PUSH1 0x1 PUSH1 0x1 PUSH1 0xA0 SHL SUB AND EXTCODESIZE ISZERO PUSH2 0x352 JUMPI PUSH1 0x40 MLOAD DUP1 SWAP3 PUSH4 0x2A2D80D1 PUSH1 0xE0 SHL DUP3 MSTORE CALLER PUSH1 0x4 DUP4 ADD MSTORE PUSH1 0x60 PUSH1 0x24 DUP4 ADD MSTORE PUSH1 0xC4 DUP3 ADD SWAP1 DUP1 MLOAD SWAP2 PUSH1 0x60 PUSH1 0x64 DUP6 ADD MSTORE DUP3 MLOAD DUP1 SWAP2 MSTORE PUSH1 0x20 PUSH1 0xE4 DUP6 ADD SWAP4 ADD SWAP1 PUSH0 JUMPDEST DUP2 DUP2 LT PUSH2 0x94B JUMPI POP POP POP DUP3 SWAP2 PUSH0 SWAP5 PUSH1 0x40 PUSH2 0x89C SWAP4 PUSH1 0x1 DUP1 PUSH1 0xA0 SHL SUB PUSH1 0x20 DUP3 ADD MLOAD AND PUSH1 0x84 DUP8 ADD MSTORE ADD MLOAD PUSH1 0xA4 DUP6 ADD MSTORE PUSH1 0x3 NOT DUP5 DUP4 SUB ADD PUSH1 0x44 DUP6 ADD MSTORE PUSH1 0x44 PUSH1 0x24 DUP3 ADD CALLDATALOAD SWAP2 ADD PUSH2 0x1760 JUMP JUMPDEST SUB DUP2 DUP4 PUSH32 0x0 PUSH1 0x1 PUSH1 0x1 PUSH1 0xA0 SHL SUB AND GAS CALL DUP1 ISZERO PUSH2 0x347 JUMPI PUSH2 0x93C JUMPI JUMPDEST POP PUSH0 SWAP1 JUMPDEST PUSH2 0x8E4 DUP5 DUP5 PUSH2 0x17E4 JUMP JUMPDEST MLOAD MLOAD MLOAD DUP3 LT ISZERO PUSH2 0x92B JUMPI PUSH2 0x925 SWAP1 PUSH2 0x91F SWAP1 PUSH1 0x1 PUSH1 0x1 PUSH1 0xA0 SHL SUB PUSH1 0x20 PUSH2 0x915 DUP7 PUSH2 0x90E DUP11 DUP11 PUSH2 0x17E4 JUMP JUMPDEST MLOAD MLOAD PUSH2 0x17E4 JUMP JUMPDEST MLOAD ADD MLOAD AND SWAP1 PUSH2 0x10E6 JUMP JUMPDEST SWAP2 PUSH2 0x17D6 JUMP JUMPDEST SWAP1 PUSH2 0x8DA JUMP JUMPDEST SWAP3 PUSH2 0x936 SWAP2 POP PUSH2 0x17D6 JUMP JUMPDEST SWAP2 PUSH2 0x77D JUMP JUMPDEST PUSH2 0x945 SWAP1 PUSH2 0xF3F JUMP JUMPDEST DUP4 PUSH2 0x8D6 JUMP JUMPDEST SWAP2 SWAP6 SWAP5 POP SWAP2 SWAP3 PUSH1 0x20 PUSH1 0x80 DUP3 PUSH2 0x996 PUSH1 0x1 SWAP5 DUP11 MLOAD PUSH1 0x60 SWAP1 PUSH1 0x1 DUP1 PUSH1 0xA0 SHL SUB DUP1 DUP3 MLOAD AND DUP5 MSTORE PUSH1 0x20 DUP3 ADD MLOAD AND PUSH1 0x20 DUP5 ADD MSTORE DUP2 PUSH6 0xFFFFFFFFFFFF SWAP2 DUP3 PUSH1 0x40 DUP3 ADD MLOAD AND PUSH1 0x40 DUP7 ADD MSTORE ADD MLOAD AND SWAP2 ADD MSTORE JUMP JUMPDEST ADD SWAP7 ADD SWAP2 ADD SWAP2 DUP7 SWAP5 SWAP6 SWAP4 SWAP3 PUSH2 0x855 JUMP JUMPDEST PUSH4 0x4E487B71 PUSH1 0xE0 SHL PUSH0 MSTORE PUSH1 0x32 PUSH1 0x4 MSTORE PUSH1 0x24 PUSH0 REVERT JUMPDEST PUSH1 0x20 SWAP1 PUSH2 0x32B PUSH2 0x9C9 DUP3 PUSH2 0x1279 JUMP JUMPDEST DUP1 SWAP3 PUSH1 0x44 CALLDATALOAD CALLER PUSH2 0x12FA JUMP JUMPDEST DUP3 CALLDATALOAD PUSH1 0x1 PUSH1 0x1 PUSH1 0x40 SHL SUB DUP2 GT PUSH2 0x352 JUMPI PUSH1 0x60 PUSH1 0x4 CALLDATALOAD DUP3 ADD CALLDATASIZE SUB PUSH1 0x23 NOT ADD SLT PUSH2 0x352 JUMPI PUSH1 0x40 MLOAD SWAP1 PUSH2 0xA03 DUP3 PUSH2 0xF10 JUMP JUMPDEST PUSH1 0x24 DUP2 PUSH1 0x4 CALLDATALOAD ADD ADD CALLDATALOAD PUSH1 0x1 PUSH1 0x1 PUSH1 0x40 SHL SUB DUP2 GT PUSH2 0x352 JUMPI CALLDATASIZE PUSH1 0x43 DUP3 DUP5 PUSH1 0x4 CALLDATALOAD ADD ADD ADD SLT ISZERO PUSH2 0x352 JUMPI PUSH1 0x24 DUP2 DUP4 PUSH1 0x4 CALLDATALOAD ADD ADD ADD CALLDATALOAD SWAP1 PUSH2 0xA40 DUP3 PUSH2 0xF8E JUMP JUMPDEST SWAP2 PUSH2 0xA4E PUSH1 0x40 MLOAD SWAP4 DUP5 PUSH2 0xF6D JUMP JUMPDEST DUP1 DUP4 MSTORE PUSH1 0x20 DUP4 ADD CALLDATASIZE PUSH1 0x44 DUP4 PUSH1 0x7 SHL DUP6 DUP9 PUSH1 0x4 CALLDATALOAD ADD ADD ADD ADD GT PUSH2 0x352 JUMPI PUSH1 0x44 DUP4 DUP7 PUSH1 0x4 CALLDATALOAD ADD ADD ADD SWAP1 JUMPDEST PUSH1 0x44 DUP4 PUSH1 0x7 SHL DUP6 DUP9 PUSH1 0x4 CALLDATALOAD ADD ADD ADD ADD DUP3 LT PUSH2 0xAC9 JUMPI POP POP POP POP SWAP3 DUP3 PUSH1 0x64 PUSH1 0x20 SWAP5 SWAP4 PUSH1 0x24 SWAP7 DUP7 SWAP6 MSTORE PUSH2 0xAAD PUSH1 0x44 DUP3 PUSH1 0x4 CALLDATALOAD ADD ADD PUSH2 0xED7 JUMP JUMPDEST DUP6 DUP5 ADD MSTORE PUSH1 0x4 CALLDATALOAD ADD ADD CALLDATALOAD PUSH1 0x40 DUP3 ADD MSTORE DUP2 MSTORE ADD SWAP4 ADD SWAP3 SWAP1 POP PUSH2 0x706 JUMP JUMPDEST PUSH1 0x80 DUP3 CALLDATASIZE SUB SLT PUSH2 0x352 JUMPI PUSH1 0x40 MLOAD PUSH2 0xADF DUP2 PUSH2 0xF52 JUMP JUMPDEST PUSH2 0xAE8 DUP4 PUSH2 0xED7 JUMP JUMPDEST DUP2 MSTORE PUSH1 0x20 DUP4 ADD CALLDATALOAD PUSH1 0x1 PUSH1 0x1 PUSH1 0xA0 SHL SUB DUP2 AND SWAP1 SUB PUSH2 0x352 JUMPI PUSH1 0x80 SWAP2 PUSH1 0x20 SWAP2 DUP3 DUP6 ADD CALLDATALOAD DUP4 DUP3 ADD MSTORE PUSH2 0xB19 PUSH1 0x40 DUP7 ADD PUSH2 0xFA5 JUMP JUMPDEST PUSH1 0x40 DUP3 ADD MSTORE PUSH2 0xB2A PUSH1 0x60 DUP7 ADD PUSH2 0xFA5 JUMP JUMPDEST PUSH1 0x60 DUP3 ADD MSTORE DUP2 MSTORE ADD SWAP2 ADD SWAP1 PUSH2 0xA76 JUMP JUMPDEST CALLVALUE PUSH2 0x352 JUMPI PUSH1 0x40 CALLDATASIZE PUSH1 0x3 NOT ADD SLT PUSH2 0x352 JUMPI PUSH1 0x20 PUSH1 0x4 CALLDATALOAD PUSH2 0x3DB PUSH2 0xB5B PUSH2 0xEC1 JUMP JUMPDEST PUSH2 0x322 DUP4 PUSH2 0x1279 JUMP JUMPDEST PUSH2 0xE8D JUMP JUMPDEST CALLVALUE PUSH2 0x352 JUMPI PUSH0 CALLDATASIZE PUSH1 0x3 NOT ADD SLT PUSH2 0x352 JUMPI PUSH1 0x40 MLOAD PUSH32 0x0 PUSH1 0x1 PUSH1 0x1 PUSH1 0xA0 SHL SUB AND DUP2 MSTORE PUSH1 0x20 SWAP1 RETURN JUMPDEST CALLVALUE PUSH2 0x352 JUMPI PUSH0 CALLDATASIZE PUSH1 0x3 NOT ADD SLT PUSH2 0x352 JUMPI PUSH1 0x40 MLOAD PUSH32 0x0 PUSH1 0x1 PUSH1 0x1 PUSH1 0xA0 SHL SUB AND DUP2 MSTORE PUSH1 0x20 SWAP1 RETURN JUMPDEST CALLVALUE PUSH2 0x352 JUMPI PUSH0 CALLDATASIZE PUSH1 0x3 NOT ADD SLT PUSH2 0x352 JUMPI PUSH1 0xFF PUSH32 0x0 AND PUSH1 0xFF DUP2 GT PUSH2 0xC38 JUMPI PUSH1 0x20 SWAP1 PUSH1 0x40 MLOAD SWAP1 DUP2 MSTORE RETURN JUMPDEST PUSH4 0x4E487B71 PUSH1 0xE0 SHL PUSH0 MSTORE PUSH1 0x11 PUSH1 0x4 MSTORE PUSH1 0x24 PUSH0 REVERT JUMPDEST CALLVALUE PUSH2 0x352 JUMPI PUSH1 0x60 CALLDATASIZE PUSH1 0x3 NOT ADD SLT PUSH2 0x352 JUMPI PUSH2 0x55B PUSH2 0xC68 PUSH2 0xEAB JUMP JUMPDEST PUSH2 0xC70 PUSH2 0xEC1 JUMP JUMPDEST PUSH1 0x44 CALLDATALOAD SWAP2 PUSH2 0xC7F DUP4 CALLER DUP4 PUSH2 0x10F3 JUMP JUMPDEST PUSH2 0x100B JUMP JUMPDEST CALLVALUE PUSH2 0x352 JUMPI PUSH0 CALLDATASIZE PUSH1 0x3 NOT ADD SLT PUSH2 0x352 JUMPI PUSH1 0x20 PUSH1 0x2 SLOAD PUSH1 0x40 MLOAD SWAP1 DUP2 MSTORE RETURN JUMPDEST CALLVALUE PUSH2 0x352 JUMPI PUSH1 0x20 CALLDATASIZE PUSH1 0x3 NOT ADD SLT PUSH2 0x352 JUMPI PUSH1 0x20 PUSH2 0x3DB PUSH1 0x4 CALLDATALOAD PUSH2 0x124B JUMP JUMPDEST CALLVALUE PUSH2 0x352 JUMPI PUSH1 0x40 CALLDATASIZE PUSH1 0x3 NOT ADD SLT PUSH2 0x352 JUMPI PUSH2 0xCD8 PUSH2 0xEAB JUMP JUMPDEST PUSH1 0x24 CALLDATALOAD SWAP1 CALLER ISZERO PUSH2 0xD59 JUMPI PUSH1 0x1 PUSH1 0x1 PUSH1 0xA0 SHL SUB AND SWAP1 DUP2 ISZERO PUSH2 0xD41 JUMPI CALLER PUSH0 MSTORE PUSH1 0x1 PUSH1 0x20 MSTORE PUSH1 0x40 PUSH0 KECCAK256 DUP3 PUSH0 MSTORE PUSH1 0x20 MSTORE DUP1 PUSH1 0x40 PUSH0 KECCAK256 SSTORE PUSH1 0x40 MLOAD SWAP1 DUP2 MSTORE PUSH32 0x8C5BE1E5EBEC7D5BD14F71427D1E84F3DD0314C0F7B2291E5B200AC8C7C3B925 PUSH1 0x20 CALLER SWAP3 LOG3 PUSH1 0x20 PUSH1 0x40 MLOAD PUSH1 0x1 DUP2 MSTORE RETURN JUMPDEST PUSH1 0x40 MLOAD PUSH4 0x4A1406B1 PUSH1 0xE1 SHL DUP2 MSTORE PUSH0 PUSH1 0x4 DUP3 ADD MSTORE PUSH1 0x24 SWAP1 REVERT JUMPDEST PUSH1 0x40 MLOAD PUSH4 0xE602DF05 PUSH1 0xE0 SHL DUP2 MSTORE PUSH0 PUSH1 0x4 DUP3 ADD MSTORE PUSH1 0x24 SWAP1 REVERT JUMPDEST CALLVALUE PUSH2 0x352 JUMPI PUSH0 CALLDATASIZE PUSH1 0x3 NOT ADD SLT PUSH2 0x352 JUMPI PUSH1 0x40 MLOAD PUSH0 SWAP1 PUSH1 0x3 SLOAD PUSH1 0x1 DUP2 DUP2 SHR SWAP1 DUP1 DUP4 AND SWAP3 DUP4 ISZERO PUSH2 0xE22 JUMPI JUMPDEST PUSH1 0x20 SWAP4 DUP5 DUP5 LT DUP2 EQ PUSH2 0x648 JUMPI DUP4 DUP7 MSTORE SWAP1 DUP2 ISZERO PUSH2 0x628 JUMPI POP PUSH1 0x1 EQ PUSH2 0xDC8 JUMPI PUSH2 0x5CA DUP5 PUSH2 0x5BE DUP2 DUP9 SUB DUP3 PUSH2 0xF6D JUMP JUMPDEST PUSH1 0x3 PUSH0 SWAP1 DUP2 MSTORE SWAP3 SWAP5 POP PUSH32 0xC2575A0E9E593C00F959F8C92F12DB2869C3395A3B0502D05E2516446F71F85B JUMPDEST DUP3 DUP5 LT PUSH2 0xE0F JUMPI POP POP POP DUP2 PUSH2 0x5CA SWAP4 PUSH2 0x5BE SWAP3 DUP3 ADD ADD SWAP4 PUSH2 0x5AE JUMP JUMPDEST DUP1 SLOAD DUP6 DUP6 ADD DUP8 ADD MSTORE SWAP3 DUP6 ADD SWAP3 DUP2 ADD PUSH2 0xDF3 JUMP JUMPDEST SWAP2 PUSH1 0x7F AND SWAP2 PUSH2 0xD9A JUMP JUMPDEST CALLVALUE PUSH2 0x352 JUMPI PUSH0 CALLDATASIZE PUSH1 0x3 NOT ADD SLT PUSH2 0x352 JUMPI PUSH1 0x20 PUSH2 0x3DB PUSH2 0x11C4 JUMP JUMPDEST PUSH1 0x20 DUP1 DUP3 MSTORE DUP3 MLOAD DUP2 DUP4 ADD DUP2 SWAP1 MSTORE SWAP1 SWAP4 SWAP3 PUSH0 JUMPDEST DUP3 DUP2 LT PUSH2 0xE79 JUMPI POP POP PUSH1 0x40 SWAP3 SWAP4 POP PUSH0 DUP4 DUP3 DUP5 ADD ADD MSTORE PUSH1 0x1F DUP1 NOT SWAP2 ADD AND ADD ADD SWAP1 JUMP JUMPDEST DUP2 DUP2 ADD DUP7 ADD MLOAD DUP5 DUP3 ADD PUSH1 0x40 ADD MSTORE DUP6 ADD PUSH2 0xE58 JUMP JUMPDEST CALLVALUE PUSH2 0x352 JUMPI PUSH1 0x20 CALLDATASIZE PUSH1 0x3 NOT ADD SLT PUSH2 0x352 JUMPI PUSH1 0x20 PUSH2 0x3DB PUSH1 0x4 CALLDATALOAD PUSH2 0x12CF JUMP JUMPDEST PUSH1 0x4 CALLDATALOAD SWAP1 PUSH1 0x1 PUSH1 0x1 PUSH1 0xA0 SHL SUB DUP3 AND DUP3 SUB PUSH2 0x352 JUMPI JUMP JUMPDEST PUSH1 0x24 CALLDATALOAD SWAP1 PUSH1 0x1 PUSH1 0x1 PUSH1 0xA0 SHL SUB DUP3 AND DUP3 SUB PUSH2 0x352 JUMPI JUMP JUMPDEST CALLDATALOAD SWAP1 PUSH1 0x1 PUSH1 0x1 PUSH1 0xA0 SHL SUB DUP3 AND DUP3 SUB PUSH2 0x352 JUMPI JUMP JUMPDEST CALLVALUE PUSH2 0x352 JUMPI PUSH1 0x20 CALLDATASIZE PUSH1 0x3 NOT ADD SLT PUSH2 0x352 JUMPI PUSH2 0xF04 PUSH2 0xEAB JUMP JUMPDEST POP PUSH1 0x20 PUSH1 0x40 MLOAD PUSH0 NOT DUP2 MSTORE RETURN JUMPDEST PUSH1 0x60 DUP2 ADD SWAP1 DUP2 LT PUSH1 0x1 PUSH1 0x1 PUSH1 0x40 SHL SUB DUP3 GT OR PUSH2 0xF2B JUMPI PUSH1 0x40 MSTORE JUMP JUMPDEST PUSH4 0x4E487B71 PUSH1 0xE0 SHL PUSH0 MSTORE PUSH1 0x41 PUSH1 0x4 MSTORE PUSH1 0x24 PUSH0 REVERT JUMPDEST PUSH1 0x1 PUSH1 0x1 PUSH1 0x40 SHL SUB DUP2 GT PUSH2 0xF2B JUMPI PUSH1 0x40 MSTORE JUMP JUMPDEST PUSH1 0x80 DUP2 ADD SWAP1 DUP2 LT PUSH1 0x1 PUSH1 0x1 PUSH1 0x40 SHL SUB DUP3 GT OR PUSH2 0xF2B JUMPI PUSH1 0x40 MSTORE JUMP JUMPDEST SWAP1 PUSH1 0x1F DUP1 NOT SWAP2 ADD AND DUP2 ADD SWAP1 DUP2 LT PUSH1 0x1 PUSH1 0x1 PUSH1 0x40 SHL SUB DUP3 GT OR PUSH2 0xF2B JUMPI PUSH1 0x40 MSTORE JUMP JUMPDEST PUSH1 0x1 PUSH1 0x1 PUSH1 0x40 SHL SUB DUP2 GT PUSH2 0xF2B JUMPI PUSH1 0x5 SHL PUSH1 0x20 ADD SWAP1 JUMP JUMPDEST CALLDATALOAD SWAP1 PUSH6 0xFFFFFFFFFFFF DUP3 AND DUP3 SUB PUSH2 0x352 JUMPI JUMP JUMPDEST PUSH1 0x60 SWAP1 PUSH1 0x3 NOT ADD SLT PUSH2 0x352 JUMPI PUSH1 0x4 CALLDATALOAD SWAP1 PUSH1 0x1 PUSH1 0x1 PUSH1 0xA0 SHL SUB SWAP1 PUSH1 0x24 CALLDATALOAD DUP3 DUP2 AND DUP2 SUB PUSH2 0x352 JUMPI SWAP2 PUSH1 0x44 CALLDATALOAD SWAP1 DUP2 AND DUP2 SUB PUSH2 0x352 JUMPI SWAP1 JUMP JUMPDEST CALLVALUE PUSH2 0x352 JUMPI PUSH1 0x20 CALLDATASIZE PUSH1 0x3 NOT ADD SLT PUSH2 0x352 JUMPI PUSH1 0x20 PUSH2 0x3DB PUSH1 0x4 CALLDATALOAD PUSH2 0x1279 JUMP JUMPDEST SWAP2 PUSH1 0x1 PUSH1 0x1 PUSH1 0xA0 SHL SUB DUP1 DUP5 AND SWAP3 DUP4 ISZERO PUSH2 0x10CE JUMPI AND SWAP3 DUP4 ISZERO PUSH2 0x10B6 JUMPI PUSH0 SWAP1 DUP4 DUP3 MSTORE DUP2 PUSH1 0x20 MSTORE PUSH1 0x40 DUP3 KECCAK256 SLOAD SWAP1 DUP4 DUP3 LT PUSH2 0x1084 JUMPI POP SWAP2 PUSH1 0x40 DUP3 DUP3 PUSH32 0xDDF252AD1BE2C89B69C2B068FC378DAA952BA7F163C4A11628F55A4DF523B3EF SWAP6 DUP8 PUSH1 0x20 SWAP7 MSTORE DUP3 DUP7 MSTORE SUB DUP3 DUP3 KECCAK256 SSTORE DUP7 DUP2 MSTORE KECCAK256 DUP2 DUP2 SLOAD ADD SWAP1 SSTORE PUSH1 0x40 MLOAD SWAP1 DUP2 MSTORE LOG3 JUMP JUMPDEST PUSH1 0x40 MLOAD PUSH4 0x391434E3 PUSH1 0xE2 SHL DUP2 MSTORE PUSH1 0x1 PUSH1 0x1 PUSH1 0xA0 SHL SUB SWAP2 SWAP1 SWAP2 AND PUSH1 0x4 DUP3 ADD MSTORE PUSH1 0x24 DUP2 ADD SWAP2 SWAP1 SWAP2 MSTORE PUSH1 0x44 DUP2 ADD DUP4 SWAP1 MSTORE PUSH1 0x64 SWAP1 REVERT JUMPDEST PUSH1 0x40 MLOAD PUSH4 0xEC442F05 PUSH1 0xE0 SHL DUP2 MSTORE PUSH0 PUSH1 0x4 DUP3 ADD MSTORE PUSH1 0x24 SWAP1 REVERT JUMPDEST PUSH1 0x40 MLOAD PUSH4 0x4B637E8F PUSH1 0xE1 SHL DUP2 MSTORE PUSH0 PUSH1 0x4 DUP3 ADD MSTORE PUSH1 0x24 SWAP1 REVERT JUMPDEST SWAP2 SWAP1 DUP3 ADD DUP1 SWAP3 GT PUSH2 0xC38 JUMPI JUMP JUMPDEST SWAP2 PUSH1 0x1 DUP1 PUSH1 0xA0 SHL SUB DUP1 SWAP4 AND SWAP2 PUSH0 SWAP4 DUP4 DUP6 MSTORE PUSH1 0x1 PUSH1 0x20 MSTORE PUSH1 0x40 SWAP4 DUP5 DUP7 KECCAK256 SWAP2 DUP4 AND SWAP2 DUP3 DUP8 MSTORE PUSH1 0x20 MSTORE DUP5 DUP7 KECCAK256 SLOAD SWAP3 PUSH0 NOT DUP5 SUB PUSH2 0x1130 JUMPI JUMPDEST POP POP POP POP POP POP POP JUMP JUMPDEST DUP5 DUP5 LT PUSH2 0x1194 JUMPI POP DUP1 ISZERO PUSH2 0x117C JUMPI DUP2 ISZERO PUSH2 0x1164 JUMPI DUP6 MSTORE PUSH1 0x1 PUSH1 0x20 MSTORE DUP4 DUP6 KECCAK256 SWAP1 DUP6 MSTORE PUSH1 0x20 MSTORE SUB SWAP2 KECCAK256 SSTORE PUSH0 DUP1 DUP1 DUP1 DUP1 DUP1 DUP1 PUSH2 0x1127 JUMP JUMPDEST DUP5 MLOAD PUSH4 0x4A1406B1 PUSH1 0xE1 SHL DUP2 MSTORE PUSH1 0x4 DUP2 ADD DUP8 SWAP1 MSTORE PUSH1 0x24 SWAP1 REVERT JUMPDEST DUP5 MLOAD PUSH4 0xE602DF05 PUSH1 0xE0 SHL DUP2 MSTORE PUSH1 0x4 DUP2 ADD DUP8 SWAP1 MSTORE PUSH1 0x24 SWAP1 REVERT JUMPDEST DUP6 MLOAD PUSH4 0x7DC7A0D9 PUSH1 0xE1 SHL DUP2 MSTORE PUSH1 0x1 PUSH1 0x1 PUSH1 0xA0 SHL SUB SWAP2 SWAP1 SWAP2 AND PUSH1 0x4 DUP3 ADD MSTORE PUSH1 0x24 DUP2 ADD DUP5 SWAP1 MSTORE PUSH1 0x44 DUP2 ADD DUP6 SWAP1 MSTORE PUSH1 0x64 SWAP1 REVERT JUMPDEST PUSH1 0x40 MLOAD PUSH4 0x70A08231 PUSH1 0xE0 SHL DUP2 MSTORE ADDRESS PUSH1 0x4 DUP3 ADD MSTORE PUSH1 0x20 DUP2 PUSH1 0x24 DUP2 PUSH32 0x0 PUSH1 0x1 PUSH1 0x1 PUSH1 0xA0 SHL SUB AND GAS STATICCALL SWAP1 DUP2 ISZERO PUSH2 0x347 JUMPI PUSH0 SWAP2 PUSH2 0x121A JUMPI POP SWAP1 JUMP JUMPDEST SWAP1 PUSH1 0x20 DUP3 RETURNDATASIZE DUP3 GT PUSH2 0x1243 JUMPI JUMPDEST DUP2 PUSH2 0x1233 PUSH1 0x20 SWAP4 DUP4 PUSH2 0xF6D JUMP JUMPDEST DUP2 ADD SUB SLT PUSH2 0x1240 JUMPI POP MLOAD SWAP1 JUMP JUMPDEST DUP1 REVERT JUMPDEST RETURNDATASIZE SWAP2 POP PUSH2 0x1226 JUMP JUMPDEST PUSH1 0x2 SLOAD PUSH1 0x1 DUP2 ADD DUP1 SWAP2 GT PUSH2 0xC38 JUMPI PUSH2 0x1261 PUSH2 0x11C4 JUMP JUMPDEST SWAP1 PUSH1 0x1 DUP3 ADD DUP1 SWAP3 GT PUSH2 0xC38 JUMPI PUSH2 0x1276 SWAP3 PUSH2 0x168F JUMP JUMPDEST SWAP1 JUMP JUMPDEST PUSH1 0x2 SLOAD PUSH1 0x1 DUP2 ADD DUP1 SWAP2 GT PUSH2 0xC38 JUMPI PUSH2 0x128F PUSH2 0x11C4 JUMP JUMPDEST SWAP1 PUSH1 0x1 DUP3 ADD DUP1 SWAP3 GT PUSH2 0xC38 JUMPI PUSH2 0x1276 SWAP3 PUSH2 0x16CD JUMP JUMPDEST PUSH2 0x12AC PUSH2 0x11C4 JUMP JUMPDEST PUSH1 0x1 DUP2 ADD DUP1 SWAP2 GT PUSH2 0xC38 JUMPI PUSH1 0x2 SLOAD SWAP1 PUSH1 0x1 DUP3 ADD DUP1 SWAP3 GT PUSH2 0xC38 JUMPI PUSH2 0x1276 SWAP3 PUSH2 0x168F JUMP JUMPDEST PUSH2 0x12D7 PUSH2 0x11C4 JUMP JUMPDEST PUSH1 0x1 DUP2 ADD DUP1 SWAP2 GT PUSH2 0xC38 JUMPI PUSH1 0x2 SLOAD SWAP1 PUSH1 0x1 DUP3 ADD DUP1 SWAP3 GT PUSH2 0xC38 JUMPI PUSH2 0x1276 SWAP3 PUSH2 0x16CD JUMP JUMPDEST PUSH1 0x40 DUP1 MLOAD PUSH4 0x23B872DD PUSH1 0xE0 SHL PUSH1 0x20 DUP3 ADD MSTORE PUSH1 0x1 PUSH1 0x1 PUSH1 0xA0 SHL SUB SWAP3 DUP4 AND PUSH1 0x24 DUP3 ADD DUP2 SWAP1 MSTORE ADDRESS PUSH1 0x44 DUP4 ADD MSTORE PUSH1 0x64 DUP1 DUP4 ADD DUP8 SWAP1 MSTORE DUP3 MSTORE SWAP5 SWAP2 SWAP4 SWAP2 SWAP3 SWAP2 SWAP1 PUSH1 0xA0 DUP2 ADD SWAP1 PUSH1 0x1 PUSH1 0x1 PUSH1 0x40 SHL SUB DUP3 GT DUP2 DUP4 LT OR PUSH2 0xF2B JUMPI PUSH2 0x1377 SWAP2 DUP7 MSTORE PUSH32 0x0 PUSH2 0x1556 JUMP JUMPDEST AND SWAP4 DUP5 ISZERO PUSH2 0x13FA JUMPI SWAP1 DUP2 PUSH2 0x13AF PUSH32 0xDCBC1C05240F31FF3AD067EF1EE35CE4997762752E3A095284754544F4C709D7 SWAP5 SWAP4 PUSH1 0x2 SLOAD PUSH2 0x10E6 JUMP JUMPDEST PUSH1 0x2 SSTORE DUP6 PUSH0 MSTORE PUSH0 PUSH1 0x20 MSTORE DUP3 PUSH0 KECCAK256 DUP2 DUP2 SLOAD ADD SWAP1 SSTORE DUP6 PUSH0 PUSH32 0xDDF252AD1BE2C89B69C2B068FC378DAA952BA7F163C4A11628F55A4DF523B3EF PUSH1 0x20 DUP7 MLOAD DUP6 DUP2 MSTORE LOG3 DUP3 MLOAD SWAP2 DUP3 MSTORE PUSH1 0x20 DUP3 ADD MSTORE LOG3 JUMP JUMPDEST DUP3 MLOAD PUSH4 0xEC442F05 PUSH1 0xE0 SHL DUP2 MSTORE PUSH0 PUSH1 0x4 DUP3 ADD MSTORE PUSH1 0x24 SWAP1 REVERT JUMPDEST SWAP2 SWAP1 SWAP3 PUSH1 0x1 DUP1 PUSH1 0xA0 SHL SUB SWAP5 DUP6 DUP4 AND SWAP6 DUP1 DUP6 AND SWAP5 DUP3 DUP9 DUP8 SUB PUSH2 0x1545 JUMPI JUMPDEST POP POP DUP7 ISZERO PUSH2 0x10CE JUMPI PUSH0 DUP8 DUP2 MSTORE DUP1 PUSH1 0x20 MSTORE PUSH1 0x40 SWAP5 DUP6 DUP3 KECCAK256 SLOAD SWAP1 DUP5 DUP3 LT PUSH2 0x1514 JUMPI POP SWAP2 DUP2 DUP5 PUSH32 0xFBDE797D201C681B91056529119E0B02407C7BB96A4A2C75C01FC9667232C8DB SWAP8 SWAP7 SWAP6 SWAP5 DUP12 PUSH2 0x1507 SWAP6 MSTORE DUP3 PUSH1 0x20 MSTORE SUB DUP7 DUP3 KECCAK256 SSTORE DUP4 PUSH1 0x2 SLOAD SUB PUSH1 0x2 SSTORE DUP10 PUSH32 0xDDF252AD1BE2C89B69C2B068FC378DAA952BA7F163C4A11628F55A4DF523B3EF PUSH1 0x20 DUP9 MLOAD DUP8 DUP2 MSTORE LOG3 DUP5 MLOAD SWAP8 PUSH4 0xA9059CBB PUSH1 0xE0 SHL PUSH1 0x20 DUP11 ADD MSTORE AND SWAP7 DUP8 PUSH1 0x24 DUP3 ADD MSTORE DUP4 PUSH1 0x44 DUP3 ADD MSTORE PUSH1 0x44 DUP2 MSTORE PUSH2 0x14E1 DUP2 PUSH2 0xF52 JUMP JUMPDEST PUSH32 0x0 PUSH2 0x1556 JUMP JUMPDEST DUP3 MLOAD SWAP2 DUP3 MSTORE PUSH1 0x20 DUP3 ADD MSTORE LOG4 JUMP JUMPDEST DUP7 MLOAD PUSH4 0x391434E3 PUSH1 0xE2 SHL DUP2 MSTORE PUSH1 0x1 PUSH1 0x1 PUSH1 0xA0 SHL SUB SWAP2 SWAP1 SWAP2 AND PUSH1 0x4 DUP3 ADD MSTORE PUSH1 0x24 DUP2 ADD SWAP2 SWAP1 SWAP2 MSTORE PUSH1 0x44 DUP2 ADD DUP5 SWAP1 MSTORE PUSH1 0x64 SWAP1 REVERT JUMPDEST PUSH2 0x154F SWAP2 DUP7 PUSH2 0x10F3 JUMP JUMPDEST PUSH0 DUP3 PUSH2 0x142D JUMP JUMPDEST PUSH1 0x1 DUP1 PUSH1 0xA0 SHL SUB AND SWAP1 PUSH0 DUP1 DUP3 PUSH1 0x20 DUP3 SWAP5 MLOAD SWAP2 ADD DUP3 DUP7 GAS CALL RETURNDATASIZE ISZERO PUSH2 0x1620 JUMPI RETURNDATASIZE SWAP1 PUSH1 0x1 PUSH1 0x1 PUSH1 0x40 SHL SUB DUP3 GT PUSH2 0x160C JUMPI SWAP1 PUSH2 0x15B0 SWAP2 PUSH1 0x40 MLOAD SWAP2 PUSH2 0x15A0 PUSH1 0x20 PUSH1 0x1F NOT PUSH1 0x1F DUP5 ADD AND ADD DUP5 PUSH2 0xF6D JUMP JUMPDEST DUP3 MSTORE RETURNDATASIZE DUP5 PUSH1 0x20 DUP5 ADD RETURNDATACOPY JUMPDEST DUP5 PUSH2 0x162C JUMP JUMPDEST SWAP1 DUP2 MLOAD SWAP2 DUP3 ISZERO ISZERO SWAP3 DUP4 PUSH2 0x15E0 JUMPI JUMPDEST POP POP POP PUSH2 0x15C8 JUMPI POP JUMP JUMPDEST PUSH1 0x24 SWAP1 PUSH1 0x40 MLOAD SWAP1 PUSH4 0x5274AFE7 PUSH1 0xE0 SHL DUP3 MSTORE PUSH1 0x4 DUP3 ADD MSTORE REVERT JUMPDEST DUP2 SWAP3 SWAP4 POP SWAP1 PUSH1 0x20 SWAP2 DUP2 ADD SUB SLT PUSH2 0x1608 JUMPI PUSH1 0x20 ADD MLOAD SWAP1 DUP2 ISZERO SWAP2 DUP3 ISZERO SUB PUSH2 0x1240 JUMPI POP PUSH0 DUP1 DUP1 PUSH2 0x15BE JUMP JUMPDEST POP DUP1 REVERT JUMPDEST PUSH4 0x4E487B71 PUSH1 0xE0 SHL DUP4 MSTORE PUSH1 0x41 PUSH1 0x4 MSTORE PUSH1 0x24 DUP4 REVERT JUMPDEST PUSH2 0x15B0 SWAP1 PUSH1 0x60 SWAP1 PUSH2 0x15AA JUMP JUMPDEST SWAP1 PUSH2 0x1653 JUMPI POP DUP1 MLOAD ISZERO PUSH2 0x1641 JUMPI DUP1 MLOAD SWAP1 PUSH1 0x20 ADD REVERT JUMPDEST PUSH1 0x40 MLOAD PUSH4 0xA12F521 PUSH1 0xE1 SHL DUP2 MSTORE PUSH1 0x4 SWAP1 REVERT JUMPDEST DUP2 MLOAD ISZERO DUP1 PUSH2 0x1686 JUMPI JUMPDEST PUSH2 0x1664 JUMPI POP SWAP1 JUMP JUMPDEST PUSH1 0x40 MLOAD PUSH4 0x9996B315 PUSH1 0xE0 SHL DUP2 MSTORE PUSH1 0x1 PUSH1 0x1 PUSH1 0xA0 SHL SUB SWAP1 SWAP2 AND PUSH1 0x4 DUP3 ADD MSTORE PUSH1 0x24 SWAP1 REVERT JUMPDEST POP DUP1 EXTCODESIZE ISZERO PUSH2 0x165C JUMP JUMPDEST SWAP2 SWAP1 PUSH2 0x169C DUP3 DUP3 DUP6 PUSH2 0x16CD JUMP JUMPDEST SWAP3 DUP3 ISZERO PUSH2 0x16B9 JUMPI MULMOD PUSH2 0x16AB JUMPI SWAP1 JUMP JUMPDEST PUSH1 0x1 DUP2 ADD DUP1 SWAP2 GT PUSH2 0xC38 JUMPI SWAP1 JUMP JUMPDEST PUSH4 0x4E487B71 PUSH1 0xE0 SHL PUSH0 MSTORE PUSH1 0x12 PUSH1 0x4 MSTORE PUSH1 0x24 PUSH0 REVERT JUMPDEST SWAP1 SWAP2 DUP3 DUP3 MUL SWAP2 PUSH0 NOT DUP5 DUP3 MULMOD SWAP4 DUP4 DUP1 DUP7 LT SWAP6 SUB SWAP5 DUP1 DUP7 SUB SWAP6 EQ PUSH2 0x1752 JUMPI DUP5 DUP4 GT ISZERO PUSH2 0x1740 JUMPI DUP3 SWAP2 MULMOD DUP2 PUSH0 SUB DUP3 AND DUP1 SWAP3 DIV PUSH1 0x2 DUP1 DUP3 PUSH1 0x3 MUL XOR DUP1 DUP4 MUL DUP3 SUB MUL DUP1 DUP4 MUL DUP3 SUB MUL DUP1 DUP4 MUL DUP3 SUB MUL DUP1 DUP4 MUL DUP3 SUB MUL DUP1 DUP4 MUL DUP3 SUB MUL DUP1 SWAP3 MUL SWAP1 SUB MUL SWAP4 PUSH1 0x1 DUP4 DUP1 PUSH0 SUB DIV ADD SWAP1 DUP5 DUP4 GT SWAP1 SUB MUL SWAP3 SUB DIV OR MUL SWAP1 JUMP JUMPDEST PUSH1 0x40 MLOAD PUSH4 0x227BC153 PUSH1 0xE0 SHL DUP2 MSTORE PUSH1 0x4 SWAP1 REVERT JUMPDEST POP POP DUP1 SWAP3 POP ISZERO PUSH2 0x16B9 JUMPI DIV SWAP1 JUMP JUMPDEST SWAP1 DUP1 PUSH1 0x20 SWAP4 SWAP3 DUP2 DUP5 MSTORE DUP5 DUP5 ADD CALLDATACOPY PUSH0 DUP3 DUP3 ADD DUP5 ADD MSTORE PUSH1 0x1F ADD PUSH1 0x1F NOT AND ADD ADD SWAP1 JUMP JUMPDEST PUSH1 0x2 PUSH1 0x5 SLOAD EQ PUSH2 0x1791 JUMPI PUSH1 0x2 PUSH1 0x5 SSTORE JUMP JUMPDEST PUSH1 0x40 MLOAD PUSH3 0x461BCD PUSH1 0xE5 SHL DUP2 MSTORE PUSH1 0x20 PUSH1 0x4 DUP3 ADD MSTORE PUSH1 0x1F PUSH1 0x24 DUP3 ADD MSTORE PUSH32 0x5265656E7472616E637947756172643A207265656E7472616E742063616C6C00 PUSH1 0x44 DUP3 ADD MSTORE PUSH1 0x64 SWAP1 REVERT JUMPDEST PUSH0 NOT DUP2 EQ PUSH2 0xC38 JUMPI PUSH1 0x1 ADD SWAP1 JUMP JUMPDEST DUP1 MLOAD DUP3 LT ISZERO PUSH2 0x9A6 JUMPI PUSH1 0x20 SWAP2 PUSH1 0x5 SHL ADD ADD SWAP1 JUMP INVALID LOG2 PUSH5 0x6970667358 0x22 SLT KECCAK256 LT 0xF8 SUB 0x28 LOG4 CALL PUSH25 0x9F0F95BBB132A01D7F563077070AF78B2A0BBA6CD5B3A97EF3 PUSH5 0x736F6C6343 STOP ADDMOD EQ STOP CALLER "
		},
		"gasEstimates": {
			"creation": {
				"codeDepositCost": "1238000",
				"executionCost": "infinite",
				"totalCost": "infinite"
			},
			"external": {
				"allowance(address,address)": "3094",
				"approve(address,uint256)": "24361",
				"asset()": "infinite",
				"balanceOf(address)": "2709",
				"convertToAssets(uint256)": "infinite",
				"convertToShares(uint256)": "infinite",
				"decimals()": "infinite",
				"deposit(uint256,address)": "infinite",
				"depositWithBatchPermit(((address,uint160,uint48,uint48)[],address,uint256)[],bytes[],address)": "infinite",
				"depositWithPermit(uint256,((address,uint160,uint48,uint48),address,uint256),bytes,address)": "infinite",
				"maxDeposit(address)": "433",
				"maxMint(address)": "697",
				"maxRedeem(address)": "2951",
				"maxWithdraw(address)": "infinite",
				"mint(uint256,address)": "infinite",
				"name()": "infinite",
				"permitSystem()": "infinite",
				"previewDeposit(uint256)": "infinite",
				"previewMint(uint256)": "infinite",
				"previewRedeem(uint256)": "infinite",
				"previewWithdraw(uint256)": "infinite",
				"redeem(uint256,address,address)": "infinite",
				"symbol()": "infinite",
				"totalAssets()": "infinite",
				"totalSupply()": "2358",
				"transfer(address,uint256)": "51124",
				"transferFrom(address,address,uint256)": "75629",
				"withdraw(uint256,address,address)": "infinite"
			}
		},
		"methodIdentifiers": {
			"allowance(address,address)": "dd62ed3e",
			"approve(address,uint256)": "095ea7b3",
			"asset()": "38d52e0f",
			"balanceOf(address)": "70a08231",
			"convertToAssets(uint256)": "07a2d13a",
			"convertToShares(uint256)": "c6e6f592",
			"decimals()": "313ce567",
			"deposit(uint256,address)": "6e553f65",
			"depositWithBatchPermit(((address,uint160,uint48,uint48)[],address,uint256)[],bytes[],address)": "7b17edf2",
			"depositWithPermit(uint256,((address,uint160,uint48,uint48),address,uint256),bytes,address)": "e6adb29c",
			"maxDeposit(address)": "402d267d",
			"maxMint(address)": "c63d75b6",
			"maxRedeem(address)": "d905777e",
			"maxWithdraw(address)": "ce96cb77",
			"mint(uint256,address)": "94bf804d",
			"name()": "06fdde03",
			"permitSystem()": "464582cb",
			"previewDeposit(uint256)": "ef8b30f7",
			"previewMint(uint256)": "b3d7f6b9",
			"previewRedeem(uint256)": "4cdad506",
			"previewWithdraw(uint256)": "0a28a477",
			"redeem(uint256,address,address)": "ba087652",
			"symbol()": "95d89b41",
			"totalAssets()": "01e1d114",
			"totalSupply()": "18160ddd",
			"transfer(address,uint256)": "a9059cbb",
			"transferFrom(address,address,uint256)": "23b872dd",
			"withdraw(uint256,address,address)": "b460af94"
		}
	},
	"abi": [
		{
			"inputs": [
				{
					"internalType": "contract IERC20",
					"name": "asset",
					"type": "address"
				},
				{
					"internalType": "string",
					"name": "name",
					"type": "string"
				},
				{
					"internalType": "string",
					"name": "symbol",
					"type": "string"
				},
				{
					"internalType": "contract IPermit2",
					"name": "_permitSystem",
					"type": "address"
				}
			],
			"stateMutability": "nonpayable",
			"type": "constructor"
		},
		{
			"inputs": [
				{
					"internalType": "address",
					"name": "target",
					"type": "address"
				}
			],
			"name": "AddressEmptyCode",
			"type": "error"
		},
		{
			"inputs": [
				{
					"internalType": "address",
					"name": "account",
					"type": "address"
				}
			],
			"name": "AddressInsufficientBalance",
			"type": "error"
		},
		{
			"inputs": [
				{
					"internalType": "address",
					"name": "spender",
					"type": "address"
				},
				{
					"internalType": "uint256",
					"name": "allowance",
					"type": "uint256"
				},
				{
					"internalType": "uint256",
					"name": "needed",
					"type": "uint256"
				}
			],
			"name": "ERC20InsufficientAllowance",
			"type": "error"
		},
		{
			"inputs": [
				{
					"internalType": "address",
					"name": "sender",
					"type": "address"
				},
				{
					"internalType": "uint256",
					"name": "balance",
					"type": "uint256"
				},
				{
					"internalType": "uint256",
					"name": "needed",
					"type": "uint256"
				}
			],
			"name": "ERC20InsufficientBalance",
			"type": "error"
		},
		{
			"inputs": [
				{
					"internalType": "address",
					"name": "approver",
					"type": "address"
				}
			],
			"name": "ERC20InvalidApprover",
			"type": "error"
		},
		{
			"inputs": [
				{
					"internalType": "address",
					"name": "receiver",
					"type": "address"
				}
			],
			"name": "ERC20InvalidReceiver",
			"type": "error"
		},
		{
			"inputs": [
				{
					"internalType": "address",
					"name": "sender",
					"type": "address"
				}
			],
			"name": "ERC20InvalidSender",
			"type": "error"
		},
		{
			"inputs": [
				{
					"internalType": "address",
					"name": "spender",
					"type": "address"
				}
			],
			"name": "ERC20InvalidSpender",
			"type": "error"
		},
		{
			"inputs": [
				{
					"internalType": "address",
					"name": "receiver",
					"type": "address"
				},
				{
					"internalType": "uint256",
					"name": "assets",
					"type": "uint256"
				},
				{
					"internalType": "uint256",
					"name": "max",
					"type": "uint256"
				}
			],
			"name": "ERC4626ExceededMaxDeposit",
			"type": "error"
		},
		{
			"inputs": [
				{
					"internalType": "address",
					"name": "receiver",
					"type": "address"
				},
				{
					"internalType": "uint256",
					"name": "shares",
					"type": "uint256"
				},
				{
					"internalType": "uint256",
					"name": "max",
					"type": "uint256"
				}
			],
			"name": "ERC4626ExceededMaxMint",
			"type": "error"
		},
		{
			"inputs": [
				{
					"internalType": "address",
					"name": "owner",
					"type": "address"
				},
				{
					"internalType": "uint256",
					"name": "shares",
					"type": "uint256"
				},
				{
					"internalType": "uint256",
					"name": "max",
					"type": "uint256"
				}
			],
			"name": "ERC4626ExceededMaxRedeem",
			"type": "error"
		},
		{
			"inputs": [
				{
					"internalType": "address",
					"name": "owner",
					"type": "address"
				},
				{
					"internalType": "uint256",
					"name": "assets",
					"type": "uint256"
				},
				{
					"internalType": "uint256",
					"name": "max",
					"type": "uint256"
				}
			],
			"name": "ERC4626ExceededMaxWithdraw",
			"type": "error"
		},
		{
			"inputs": [],
			"name": "FailedInnerCall",
			"type": "error"
		},
		{
			"inputs": [],
			"name": "MathOverflowedMulDiv",
			"type": "error"
		},
		{
			"inputs": [
				{
					"internalType": "address",
					"name": "token",
					"type": "address"
				}
			],
			"name": "SafeERC20FailedOperation",
			"type": "error"
		},
		{
			"anonymous": false,
			"inputs": [
				{
					"indexed": true,
					"internalType": "address",
					"name": "owner",
					"type": "address"
				},
				{
					"indexed": true,
					"internalType": "address",
					"name": "spender",
					"type": "address"
				},
				{
					"indexed": false,
					"internalType": "uint256",
					"name": "value",
					"type": "uint256"
				}
			],
			"name": "Approval",
			"type": "event"
		},
		{
			"anonymous": false,
			"inputs": [
				{
					"indexed": true,
					"internalType": "address",
					"name": "sender",
					"type": "address"
				},
				{
					"indexed": true,
					"internalType": "address",
					"name": "owner",
					"type": "address"
				},
				{
					"indexed": false,
					"internalType": "uint256",
					"name": "assets",
					"type": "uint256"
				},
				{
					"indexed": false,
					"internalType": "uint256",
					"name": "shares",
					"type": "uint256"
				}
			],
			"name": "Deposit",
			"type": "event"
		},
		{
			"anonymous": false,
			"inputs": [
				{
					"indexed": true,
					"internalType": "address",
					"name": "from",
					"type": "address"
				},
				{
					"indexed": true,
					"internalType": "address",
					"name": "to",
					"type": "address"
				},
				{
					"indexed": false,
					"internalType": "uint256",
					"name": "value",
					"type": "uint256"
				}
			],
			"name": "Transfer",
			"type": "event"
		},
		{
			"anonymous": false,
			"inputs": [
				{
					"indexed": true,
					"internalType": "address",
					"name": "sender",
					"type": "address"
				},
				{
					"indexed": true,
					"internalType": "address",
					"name": "receiver",
					"type": "address"
				},
				{
					"indexed": true,
					"internalType": "address",
					"name": "owner",
					"type": "address"
				},
				{
					"indexed": false,
					"internalType": "uint256",
					"name": "assets",
					"type": "uint256"
				},
				{
					"indexed": false,
					"internalType": "uint256",
					"name": "shares",
					"type": "uint256"
				}
			],
			"name": "Withdraw",
			"type": "event"
		},
		{
			"inputs": [
				{
					"internalType": "address",
					"name": "owner",
					"type": "address"
				},
				{
					"internalType": "address",
					"name": "spender",
					"type": "address"
				}
			],
			"name": "allowance",
			"outputs": [
				{
					"internalType": "uint256",
					"name": "",
					"type": "uint256"
				}
			],
			"stateMutability": "view",
			"type": "function"
		},
		{
			"inputs": [
				{
					"internalType": "address",
					"name": "spender",
					"type": "address"
				},
				{
					"internalType": "uint256",
					"name": "value",
					"type": "uint256"
				}
			],
			"name": "approve",
			"outputs": [
				{
					"internalType": "bool",
					"name": "",
					"type": "bool"
				}
			],
			"stateMutability": "nonpayable",
			"type": "function"
		},
		{
			"inputs": [],
			"name": "asset",
			"outputs": [
				{
					"internalType": "address",
					"name": "",
					"type": "address"
				}
			],
			"stateMutability": "view",
			"type": "function"
		},
		{
			"inputs": [
				{
					"internalType": "address",
					"name": "account",
					"type": "address"
				}
			],
			"name": "balanceOf",
			"outputs": [
				{
					"internalType": "uint256",
					"name": "",
					"type": "uint256"
				}
			],
			"stateMutability": "view",
			"type": "function"
		},
		{
			"inputs": [
				{
					"internalType": "uint256",
					"name": "shares",
					"type": "uint256"
				}
			],
			"name": "convertToAssets",
			"outputs": [
				{
					"internalType": "uint256",
					"name": "",
					"type": "uint256"
				}
			],
			"stateMutability": "view",
			"type": "function"
		},
		{
			"inputs": [
				{
					"internalType": "uint256",
					"name": "assets",
					"type": "uint256"
				}
			],
			"name": "convertToShares",
			"outputs": [
				{
					"internalType": "uint256",
					"name": "",
					"type": "uint256"
				}
			],
			"stateMutability": "view",
			"type": "function"
		},
		{
			"inputs": [],
			"name": "decimals",
			"outputs": [
				{
					"internalType": "uint8",
					"name": "",
					"type": "uint8"
				}
			],
			"stateMutability": "view",
			"type": "function"
		},
		{
			"inputs": [
				{
					"internalType": "uint256",
					"name": "assets",
					"type": "uint256"
				},
				{
					"internalType": "address",
					"name": "receiver",
					"type": "address"
				}
			],
			"name": "deposit",
			"outputs": [
				{
					"internalType": "uint256",
					"name": "",
					"type": "uint256"
				}
			],
			"stateMutability": "nonpayable",
			"type": "function"
		},
		{
			"inputs": [
				{
					"components": [
						{
							"components": [
								{
									"internalType": "address",
									"name": "token",
									"type": "address"
								},
								{
									"internalType": "uint160",
									"name": "amount",
									"type": "uint160"
								},
								{
									"internalType": "uint48",
									"name": "expiration",
									"type": "uint48"
								},
								{
									"internalType": "uint48",
									"name": "nonce",
									"type": "uint48"
								}
							],
							"internalType": "struct IAllowanceTransfer.PermitDetails[]",
							"name": "details",
							"type": "tuple[]"
						},
						{
							"internalType": "address",
							"name": "spender",
							"type": "address"
						},
						{
							"internalType": "uint256",
							"name": "sigDeadline",
							"type": "uint256"
						}
					],
					"internalType": "struct IAllowanceTransfer.PermitBatch[]",
					"name": "permitData",
					"type": "tuple[]"
				},
				{
					"internalType": "bytes[]",
					"name": "signatures",
					"type": "bytes[]"
				},
				{
					"internalType": "address",
					"name": "receiver",
					"type": "address"
				}
			],
			"name": "depositWithBatchPermit",
			"outputs": [
				{
					"internalType": "uint256",
					"name": "shares",
					"type": "uint256"
				}
			],
			"stateMutability": "nonpayable",
			"type": "function"
		},
		{
			"inputs": [
				{
					"internalType": "uint256",
					"name": "amount",
					"type": "uint256"
				},
				{
					"components": [
						{
							"components": [
								{
									"internalType": "address",
									"name": "token",
									"type": "address"
								},
								{
									"internalType": "uint160",
									"name": "amount",
									"type": "uint160"
								},
								{
									"internalType": "uint48",
									"name": "expiration",
									"type": "uint48"
								},
								{
									"internalType": "uint48",
									"name": "nonce",
									"type": "uint48"
								}
							],
							"internalType": "struct IAllowanceTransfer.PermitDetails",
							"name": "details",
							"type": "tuple"
						},
						{
							"internalType": "address",
							"name": "spender",
							"type": "address"
						},
						{
							"internalType": "uint256",
							"name": "sigDeadline",
							"type": "uint256"
						}
					],
					"internalType": "struct IAllowanceTransfer.PermitSingle",
					"name": "permitData",
					"type": "tuple"
				},
				{
					"internalType": "bytes",
					"name": "signature",
					"type": "bytes"
				},
				{
					"internalType": "address",
					"name": "receiver",
					"type": "address"
				}
			],
			"name": "depositWithPermit",
			"outputs": [
				{
					"internalType": "uint256",
					"name": "shares",
					"type": "uint256"
				}
			],
			"stateMutability": "nonpayable",
			"type": "function"
		},
		{
			"inputs": [
				{
					"internalType": "address",
					"name": "",
					"type": "address"
				}
			],
			"name": "maxDeposit",
			"outputs": [
				{
					"internalType": "uint256",
					"name": "",
					"type": "uint256"
				}
			],
			"stateMutability": "view",
			"type": "function"
		},
		{
			"inputs": [
				{
					"internalType": "address",
					"name": "",
					"type": "address"
				}
			],
			"name": "maxMint",
			"outputs": [
				{
					"internalType": "uint256",
					"name": "",
					"type": "uint256"
				}
			],
			"stateMutability": "view",
			"type": "function"
		},
		{
			"inputs": [
				{
					"internalType": "address",
					"name": "owner",
					"type": "address"
				}
			],
			"name": "maxRedeem",
			"outputs": [
				{
					"internalType": "uint256",
					"name": "",
					"type": "uint256"
				}
			],
			"stateMutability": "view",
			"type": "function"
		},
		{
			"inputs": [
				{
					"internalType": "address",
					"name": "owner",
					"type": "address"
				}
			],
			"name": "maxWithdraw",
			"outputs": [
				{
					"internalType": "uint256",
					"name": "",
					"type": "uint256"
				}
			],
			"stateMutability": "view",
			"type": "function"
		},
		{
			"inputs": [
				{
					"internalType": "uint256",
					"name": "shares",
					"type": "uint256"
				},
				{
					"internalType": "address",
					"name": "receiver",
					"type": "address"
				}
			],
			"name": "mint",
			"outputs": [
				{
					"internalType": "uint256",
					"name": "",
					"type": "uint256"
				}
			],
			"stateMutability": "nonpayable",
			"type": "function"
		},
		{
			"inputs": [],
			"name": "name",
			"outputs": [
				{
					"internalType": "string",
					"name": "",
					"type": "string"
				}
			],
			"stateMutability": "view",
			"type": "function"
		},
		{
			"inputs": [],
			"name": "permitSystem",
			"outputs": [
				{
					"internalType": "contract IPermit2",
					"name": "",
					"type": "address"
				}
			],
			"stateMutability": "view",
			"type": "function"
		},
		{
			"inputs": [
				{
					"internalType": "uint256",
					"name": "assets",
					"type": "uint256"
				}
			],
			"name": "previewDeposit",
			"outputs": [
				{
					"internalType": "uint256",
					"name": "",
					"type": "uint256"
				}
			],
			"stateMutability": "view",
			"type": "function"
		},
		{
			"inputs": [
				{
					"internalType": "uint256",
					"name": "shares",
					"type": "uint256"
				}
			],
			"name": "previewMint",
			"outputs": [
				{
					"internalType": "uint256",
					"name": "",
					"type": "uint256"
				}
			],
			"stateMutability": "view",
			"type": "function"
		},
		{
			"inputs": [
				{
					"internalType": "uint256",
					"name": "shares",
					"type": "uint256"
				}
			],
			"name": "previewRedeem",
			"outputs": [
				{
					"internalType": "uint256",
					"name": "",
					"type": "uint256"
				}
			],
			"stateMutability": "view",
			"type": "function"
		},
		{
			"inputs": [
				{
					"internalType": "uint256",
					"name": "assets",
					"type": "uint256"
				}
			],
			"name": "previewWithdraw",
			"outputs": [
				{
					"internalType": "uint256",
					"name": "",
					"type": "uint256"
				}
			],
			"stateMutability": "view",
			"type": "function"
		},
		{
			"inputs": [
				{
					"internalType": "uint256",
					"name": "shares",
					"type": "uint256"
				},
				{
					"internalType": "address",
					"name": "receiver",
					"type": "address"
				},
				{
					"internalType": "address",
					"name": "owner",
					"type": "address"
				}
			],
			"name": "redeem",
			"outputs": [
				{
					"internalType": "uint256",
					"name": "",
					"type": "uint256"
				}
			],
			"stateMutability": "nonpayable",
			"type": "function"
		},
		{
			"inputs": [],
			"name": "symbol",
			"outputs": [
				{
					"internalType": "string",
					"name": "",
					"type": "string"
				}
			],
			"stateMutability": "view",
			"type": "function"
		},
		{
			"inputs": [],
			"name": "totalAssets",
			"outputs": [
				{
					"internalType": "uint256",
					"name": "",
					"type": "uint256"
				}
			],
			"stateMutability": "view",
			"type": "function"
		},
		{
			"inputs": [],
			"name": "totalSupply",
			"outputs": [
				{
					"internalType": "uint256",
					"name": "",
					"type": "uint256"
				}
			],
			"stateMutability": "view",
			"type": "function"
		},
		{
			"inputs": [
				{
					"internalType": "address",
					"name": "to",
					"type": "address"
				},
				{
					"internalType": "uint256",
					"name": "value",
					"type": "uint256"
				}
			],
			"name": "transfer",
			"outputs": [
				{
					"internalType": "bool",
					"name": "",
					"type": "bool"
				}
			],
			"stateMutability": "nonpayable",
			"type": "function"
		},
		{
			"inputs": [
				{
					"internalType": "address",
					"name": "from",
					"type": "address"
				},
				{
					"internalType": "address",
					"name": "to",
					"type": "address"
				},
				{
					"internalType": "uint256",
					"name": "value",
					"type": "uint256"
				}
			],
			"name": "transferFrom",
			"outputs": [
				{
					"internalType": "bool",
					"name": "",
					"type": "bool"
				}
			],
			"stateMutability": "nonpayable",
			"type": "function"
		},
		{
			"inputs": [
				{
					"internalType": "uint256",
					"name": "assets",
					"type": "uint256"
				},
				{
					"internalType": "address",
					"name": "receiver",
					"type": "address"
				},
				{
					"internalType": "address",
					"name": "owner",
					"type": "address"
				}
			],
			"name": "withdraw",
			"outputs": [
				{
					"internalType": "uint256",
					"name": "",
					"type": "uint256"
				}
			],
			"stateMutability": "nonpayable",
			"type": "function"
		}
	]
}