{
	"data": {
		"bytecode": {
			"linkReferences": {},
			"object": "60803461036a57601f61111e38819003918201601f19168301916001600160401b038311848410176102db578084926101809460405283398101031261036a576100488161036e565b6100546020830161036e565b916100616040820161036e565b9161006e6060830161036e565b9260808301519460a08401519360c08101519060e081015160018060a01b038116810361036a57610100820151916001600160a01b038316830361036a576100b9610120820161036e565b6100d36101606100cc610140850161036e565b930161036e565b60015f55936001600160a01b038916151580610358575b80610346575b80610334575b156102ef57600180546001600160a01b03199081166001600160a01b039384161790915560028054821693831693909317909255600380549092169216919091179055600454604051979093906001600160401b036101608a01908111908a11176102db577f3d48195705780f5c10a0d217f778f0f6d562cb1a6a699da31c0d6d756aacedfc995f6101408b8e61016060609e0160405260018060a01b038d16825260018060a01b038b16602083015260018060a01b038c16604083015260018060a01b0385168e83015260808201528460a08201528560c082015260018060a01b03871660e08201528261010082015243610120820152015260018060a01b03891660018060a01b0319600554161760055560018060a01b03871660018060a01b0319600654161760065560018060a01b03881660018060a01b0319600754161760075560018060a01b031660018060a01b031960085416176008558a600955600a55600b5560018060a01b031660018060a01b0319600c541617600c5560018060a01b0319600d5416600d5543600e555f600f5560018060a01b03169060018060a81b0319161760045560405195865260018060a01b0316602086015260018060a01b0316604085015260018060a01b031692a2604051610d9b90816103838239f35b634e487b7160e01b5f52604160045260245ffd5b60405162461bcd60e51b815260206004820152601760248201527f496e76616c696420696e707574206164647265737365730000000000000000006044820152606490fd5b506001600160a01b03881615156100f6565b506001600160a01b038b1615156100f0565b506001600160a01b03871615156100ea565b5f80fd5b51906001600160a01b038216820361036a5756fe6080604081815260049182361015610015575f80fd5b5f925f3560e01c9182630f4ef8a614610a155750816312261ee7146109ed5781632e1283e3146109cf578163371fd8e6146107625781635257b5661461074357816364c4bec014610724578163654c62951461068d5781636b6d19551461066d5781638a4adf24146106445781638db579941461055657816395cb741d146104ca5781639e9f669c1461049a578163c19d93fb1461049a578163c51b950714610471578163eb0c49551461044d578163f30f29dd146100fe575063f4b01b18146100dd575f80fd5b346100fa57816003193601126100fa576020906009549051908152f35b5080fd5b905034610449578160031936011261044957610118610a37565b60249283359060ff845460a01c166005811015610437576001036103f6576001600160a01b039283169485156103b45761015b610153610afb565b600954610a74565b83106103725783600654169380600854169088845192636eb1769f60e11b84523089850152808585015260209760449489818781855afa9081156103685791898d96949286948d99979161032d575b50906101b591610a74565b918884808c51958b8701908563095ea7b360e01b958684528901528a8801528987526101e087610abd565b86519082875af16101ef610cc3565b816102fd575b50806102f3575b156102bb575b505050505060085416938a86519586948593636e553f6560e01b85528a8d8601528401525af180156102b157610283575b50600d80546001600160a01b03191686179055835460ff60a01b1916600160a11b1790935591519182527f5150ab7694a22fbc01c642bc10316565247df962fa3f0ac3b5d1a18ba45b485b91a280f35b8390813d83116102aa575b6102988183610ad9565b810103126102a6575f610233565b5f80fd5b503d61028e565b82513d89823e3d90fd5b6102e9946102e4928c51928b8401528b830152878201528681526102de81610abd565b82610c52565b610c52565b8a5f808080610202565b50823b15156101fc565b8051801592508b908315610315575b5050505f6101f5565b6103259350820181019101610c3a565b5f8a8161030c565b9450505094509481813d8311610361575b6103488183610ad9565b810103126102a6575188948b948d928a906101b56101aa565b503d61033e565b88513d86823e3d90fd5b601785916020606494519362461bcd60e51b85528401528201527f496e73756666696369656e7420636f6c6c61746572616c0000000000000000006044820152fd5b601885916020606494519362461bcd60e51b85528401528201527f496e76616c696420626f72726f776572206164647265737300000000000000006044820152fd5b5162461bcd60e51b8152602081850152601a818601527f4c6f616e206e6f7420726561647920746f2061637469766174650000000000006044820152606490fd5b634e487b7160e01b8752602185528587fd5b8280fd5b5050346100fa57816003193601126100fa5760209061046a610afb565b9051908152f35b5050346100fa57816003193601126100fa5760025490516001600160a01b039091168152602090f35b8284346104c757806003193601126104c7575060ff6104c3925460a01c16905191829182610a4d565b0390f35b80fd5b5050346100fa57816003193601126100fa576101609060018060a01b038060055416918160065416918060075416908060085416600954600a5490600b549284600c541694600d541695600e5497600f549981519b8c5260208c01528a01526060890152608088015260a087015260c086015260e0850152610100840152610120830152610140820152f35b905034610449578260031936011261044957610570610b8b565b60ff815460a01c166005811015610631576105ef577f9e71d2fb732e68272b7e74ecfd14638673c1d77e19a5d390a3ffff054d57c44b916020916105ca60018060a01b038060065416906005541690600954913091610bdf565b43600f55805460ff60a01b1916600160a01b1790556009549051908152a16001815580f35b6020606492519162461bcd60e51b8352820152601b60248201527f4c6f616e206e6f7420696e20637265617461626c6520737461746500000000006044820152fd5b634e487b7160e01b845260218252602484fd5b5050346100fa57816003193601126100fa5760035490516001600160a01b039091168152602090f35b5050346100fa57816003193601126100fa5760209061046a610153610afb565b8383346100fa576020928360031936011261044957836106ab610a37565b60085484516370a0823160e01b81526001600160a01b039283169481019490945283916024918391165afa92831561071957926106ea575b5051908152f35b9091508281813d8311610712575b6107028183610ad9565b810103126102a6575190836106e3565b503d6106f8565b8251903d90823e3d90fd5b5050346100fa57816003193601126100fa57602090600b549051908152f35b5050346100fa57816003193601126100fa57602090600a549051908152f35b919050346102a65760203660031901126102a65761077e610b8b565b60ff825460a01c1660058110156109bc57600203610983576107aa6009546107a4610afb565b90610a74565b91828135106109375760018060a01b036107d08482600754168360055416903390610bdf565b815460ff60a01b1916600360a01b178255600254811690813b156102a65783515f8160248183637e72c7d760e01b97888352308a8401525af1801561092d57610916575b50908186939260035416803b156109125784809160248851809481936338e270ed60e01b8352308a8401525af18015610908579085916108f4575b505082541691823b156108f057602484928387519586948593845230908401525af180156108e6576108d2575b507f4002dba848920f438092e08090cfb5fc47144c22704268b402c9553a1b5adfe66020848451907f409fced1b85ae32a29fb1e18894d8361a5f2653dc27adf7102d86175c2901d7c8580a18152a16001815580f35b6108db90610a95565b61044957825f61087c565b83513d84823e3d90fd5b8380fd5b6108fd90610a95565b6108f057835f61084f565b86513d87823e3d90fd5b8480fd5b6109239193929650610a95565b5f9490915f610814565b85513d5f823e3d90fd5b6020608492519162461bcd60e51b8352820152602160248201527f496e73756666696369656e7420616d6f756e7420666f722072657061796d656e6044820152601d60fa1b6064820152fd5b906020606492519162461bcd60e51b835282015260136024820152724c6f616e206d7573742062652061637469766560681b6044820152fd5b602183634e487b7160e01b5f525260245ffd5b82346102a6575f3660031901126102a657602090600f549051908152f35b82346102a6575f3660031901126102a65760015490516001600160a01b039091168152602090f35b346102a6575f3660031901126102a65790546001600160a01b03168152602090f35b600435906001600160a01b03821682036102a657565b919060208301926005821015610a605752565b634e487b7160e01b5f52602160045260245ffd5b91908201809211610a8157565b634e487b7160e01b5f52601160045260245ffd5b67ffffffffffffffff8111610aa957604052565b634e487b7160e01b5f52604160045260245ffd5b6080810190811067ffffffffffffffff821117610aa957604052565b90601f8019910116810190811067ffffffffffffffff821117610aa957604052565b600e544303438111610a8157602060018060a01b03600c54166064600954600a549260405195869485936301786f6360e21b85526004850152602484015260448301525afa908115610b80575f91610b51575090565b90506020813d602011610b78575b81610b6c60209383610ad9565b810103126102a6575190565b3d9150610b5f565b6040513d5f823e3d90fd5b60025f5414610b9a5760025f55565b60405162461bcd60e51b815260206004820152601f60248201527f5265656e7472616e637947756172643a207265656e7472616e742063616c6c006044820152606490fd5b6040516323b872dd60e01b60208201526001600160a01b03928316602482015292909116604483015260648083019390935291815260a081019181831067ffffffffffffffff841117610aa957610c3892604052610c52565b565b908160209103126102a6575180151581036102a65790565b5f80610c7a9260018060a01b03169360208151910182865af1610c73610cc3565b9083610d02565b8051908115159182610ca8575b5050610c905750565b60249060405190635274afe760e01b82526004820152fd5b610cbb9250602080918301019101610c3a565b155f80610c87565b3d15610cfd573d9067ffffffffffffffff8211610aa95760405191610cf2601f8201601f191660200184610ad9565b82523d5f602084013e565b606090565b90610d295750805115610d1757805190602001fd5b604051630a12f52160e11b8152600490fd5b81511580610d5c575b610d3a575090565b604051639996b31560e01b81526001600160a01b039091166004820152602490fd5b50803b15610d3256fea2646970667358221220d170ca7f2547ee07a53c1b586a5228e3e1b439444b5d91554b90678dd37176ee64736f6c63430008190033",
			"opcodes": "PUSH1 0x80 CALLVALUE PUSH2 0x36A JUMPI PUSH1 0x1F PUSH2 0x111E CODESIZE DUP2 SWAP1 SUB SWAP2 DUP3 ADD PUSH1 0x1F NOT AND DUP4 ADD SWAP2 PUSH1 0x1 PUSH1 0x1 PUSH1 0x40 SHL SUB DUP4 GT DUP5 DUP5 LT OR PUSH2 0x2DB JUMPI DUP1 DUP5 SWAP3 PUSH2 0x180 SWAP5 PUSH1 0x40 MSTORE DUP4 CODECOPY DUP2 ADD SUB SLT PUSH2 0x36A JUMPI PUSH2 0x48 DUP2 PUSH2 0x36E JUMP JUMPDEST PUSH2 0x54 PUSH1 0x20 DUP4 ADD PUSH2 0x36E JUMP JUMPDEST SWAP2 PUSH2 0x61 PUSH1 0x40 DUP3 ADD PUSH2 0x36E JUMP JUMPDEST SWAP2 PUSH2 0x6E PUSH1 0x60 DUP4 ADD PUSH2 0x36E JUMP JUMPDEST SWAP3 PUSH1 0x80 DUP4 ADD MLOAD SWAP5 PUSH1 0xA0 DUP5 ADD MLOAD SWAP4 PUSH1 0xC0 DUP2 ADD MLOAD SWAP1 PUSH1 0xE0 DUP2 ADD MLOAD PUSH1 0x1 DUP1 PUSH1 0xA0 SHL SUB DUP2 AND DUP2 SUB PUSH2 0x36A JUMPI PUSH2 0x100 DUP3 ADD MLOAD SWAP2 PUSH1 0x1 PUSH1 0x1 PUSH1 0xA0 SHL SUB DUP4 AND DUP4 SUB PUSH2 0x36A JUMPI PUSH2 0xB9 PUSH2 0x120 DUP3 ADD PUSH2 0x36E JUMP JUMPDEST PUSH2 0xD3 PUSH2 0x160 PUSH2 0xCC PUSH2 0x140 DUP6 ADD PUSH2 0x36E JUMP JUMPDEST SWAP4 ADD PUSH2 0x36E JUMP JUMPDEST PUSH1 0x1 PUSH0 SSTORE SWAP4 PUSH1 0x1 PUSH1 0x1 PUSH1 0xA0 SHL SUB DUP10 AND ISZERO ISZERO DUP1 PUSH2 0x358 JUMPI JUMPDEST DUP1 PUSH2 0x346 JUMPI JUMPDEST DUP1 PUSH2 0x334 JUMPI JUMPDEST ISZERO PUSH2 0x2EF JUMPI PUSH1 0x1 DUP1 SLOAD PUSH1 0x1 PUSH1 0x1 PUSH1 0xA0 SHL SUB NOT SWAP1 DUP2 AND PUSH1 0x1 PUSH1 0x1 PUSH1 0xA0 SHL SUB SWAP4 DUP5 AND OR SWAP1 SWAP2 SSTORE PUSH1 0x2 DUP1 SLOAD DUP3 AND SWAP4 DUP4 AND SWAP4 SWAP1 SWAP4 OR SWAP1 SWAP3 SSTORE PUSH1 0x3 DUP1 SLOAD SWAP1 SWAP3 AND SWAP3 AND SWAP2 SWAP1 SWAP2 OR SWAP1 SSTORE PUSH1 0x4 SLOAD PUSH1 0x40 MLOAD SWAP8 SWAP1 SWAP4 SWAP1 PUSH1 0x1 PUSH1 0x1 PUSH1 0x40 SHL SUB PUSH2 0x160 DUP11 ADD SWAP1 DUP2 GT SWAP1 DUP11 GT OR PUSH2 0x2DB JUMPI PUSH32 0x3D48195705780F5C10A0D217F778F0F6D562CB1A6A699DA31C0D6D756AACEDFC SWAP10 PUSH0 PUSH2 0x140 DUP12 DUP15 PUSH2 0x160 PUSH1 0x60 SWAP15 ADD PUSH1 0x40 MSTORE PUSH1 0x1 DUP1 PUSH1 0xA0 SHL SUB DUP14 AND DUP3 MSTORE PUSH1 0x1 DUP1 PUSH1 0xA0 SHL SUB DUP12 AND PUSH1 0x20 DUP4 ADD MSTORE PUSH1 0x1 DUP1 PUSH1 0xA0 SHL SUB DUP13 AND PUSH1 0x40 DUP4 ADD MSTORE PUSH1 0x1 DUP1 PUSH1 0xA0 SHL SUB DUP6 AND DUP15 DUP4 ADD MSTORE PUSH1 0x80 DUP3 ADD MSTORE DUP5 PUSH1 0xA0 DUP3 ADD MSTORE DUP6 PUSH1 0xC0 DUP3 ADD MSTORE PUSH1 0x1 DUP1 PUSH1 0xA0 SHL SUB DUP8 AND PUSH1 0xE0 DUP3 ADD MSTORE DUP3 PUSH2 0x100 DUP3 ADD MSTORE NUMBER PUSH2 0x120 DUP3 ADD MSTORE ADD MSTORE PUSH1 0x1 DUP1 PUSH1 0xA0 SHL SUB DUP10 AND PUSH1 0x1 DUP1 PUSH1 0xA0 SHL SUB NOT PUSH1 0x5 SLOAD AND OR PUSH1 0x5 SSTORE PUSH1 0x1 DUP1 PUSH1 0xA0 SHL SUB DUP8 AND PUSH1 0x1 DUP1 PUSH1 0xA0 SHL SUB NOT PUSH1 0x6 SLOAD AND OR PUSH1 0x6 SSTORE PUSH1 0x1 DUP1 PUSH1 0xA0 SHL SUB DUP9 AND PUSH1 0x1 DUP1 PUSH1 0xA0 SHL SUB NOT PUSH1 0x7 SLOAD AND OR PUSH1 0x7 SSTORE PUSH1 0x1 DUP1 PUSH1 0xA0 SHL SUB AND PUSH1 0x1 DUP1 PUSH1 0xA0 SHL SUB NOT PUSH1 0x8 SLOAD AND OR PUSH1 0x8 SSTORE DUP11 PUSH1 0x9 SSTORE PUSH1 0xA SSTORE PUSH1 0xB SSTORE PUSH1 0x1 DUP1 PUSH1 0xA0 SHL SUB AND PUSH1 0x1 DUP1 PUSH1 0xA0 SHL SUB NOT PUSH1 0xC SLOAD AND OR PUSH1 0xC SSTORE PUSH1 0x1 DUP1 PUSH1 0xA0 SHL SUB NOT PUSH1 0xD SLOAD AND PUSH1 0xD SSTORE NUMBER PUSH1 0xE SSTORE PUSH0 PUSH1 0xF SSTORE PUSH1 0x1 DUP1 PUSH1 0xA0 SHL SUB AND SWAP1 PUSH1 0x1 DUP1 PUSH1 0xA8 SHL SUB NOT AND OR PUSH1 0x4 SSTORE PUSH1 0x40 MLOAD SWAP6 DUP7 MSTORE PUSH1 0x1 DUP1 PUSH1 0xA0 SHL SUB AND PUSH1 0x20 DUP7 ADD MSTORE PUSH1 0x1 DUP1 PUSH1 0xA0 SHL SUB AND PUSH1 0x40 DUP6 ADD MSTORE PUSH1 0x1 DUP1 PUSH1 0xA0 SHL SUB AND SWAP3 LOG2 PUSH1 0x40 MLOAD PUSH2 0xD9B SWAP1 DUP2 PUSH2 0x383 DUP3 CODECOPY RETURN JUMPDEST PUSH4 0x4E487B71 PUSH1 0xE0 SHL PUSH0 MSTORE PUSH1 0x41 PUSH1 0x4 MSTORE PUSH1 0x24 PUSH0 REVERT JUMPDEST PUSH1 0x40 MLOAD PUSH3 0x461BCD PUSH1 0xE5 SHL DUP2 MSTORE PUSH1 0x20 PUSH1 0x4 DUP3 ADD MSTORE PUSH1 0x17 PUSH1 0x24 DUP3 ADD MSTORE PUSH32 0x496E76616C696420696E70757420616464726573736573000000000000000000 PUSH1 0x44 DUP3 ADD MSTORE PUSH1 0x64 SWAP1 REVERT JUMPDEST POP PUSH1 0x1 PUSH1 0x1 PUSH1 0xA0 SHL SUB DUP9 AND ISZERO ISZERO PUSH2 0xF6 JUMP JUMPDEST POP PUSH1 0x1 PUSH1 0x1 PUSH1 0xA0 SHL SUB DUP12 AND ISZERO ISZERO PUSH2 0xF0 JUMP JUMPDEST POP PUSH1 0x1 PUSH1 0x1 PUSH1 0xA0 SHL SUB DUP8 AND ISZERO ISZERO PUSH2 0xEA JUMP JUMPDEST PUSH0 DUP1 REVERT JUMPDEST MLOAD SWAP1 PUSH1 0x1 PUSH1 0x1 PUSH1 0xA0 SHL SUB DUP3 AND DUP3 SUB PUSH2 0x36A JUMPI JUMP INVALID PUSH1 0x80 PUSH1 0x40 DUP2 DUP2 MSTORE PUSH1 0x4 SWAP2 DUP3 CALLDATASIZE LT ISZERO PUSH2 0x15 JUMPI PUSH0 DUP1 REVERT JUMPDEST PUSH0 SWAP3 PUSH0 CALLDATALOAD PUSH1 0xE0 SHR SWAP2 DUP3 PUSH4 0xF4EF8A6 EQ PUSH2 0xA15 JUMPI POP DUP2 PUSH4 0x12261EE7 EQ PUSH2 0x9ED JUMPI DUP2 PUSH4 0x2E1283E3 EQ PUSH2 0x9CF JUMPI DUP2 PUSH4 0x371FD8E6 EQ PUSH2 0x762 JUMPI DUP2 PUSH4 0x5257B566 EQ PUSH2 0x743 JUMPI DUP2 PUSH4 0x64C4BEC0 EQ PUSH2 0x724 JUMPI DUP2 PUSH4 0x654C6295 EQ PUSH2 0x68D JUMPI DUP2 PUSH4 0x6B6D1955 EQ PUSH2 0x66D JUMPI DUP2 PUSH4 0x8A4ADF24 EQ PUSH2 0x644 JUMPI DUP2 PUSH4 0x8DB57994 EQ PUSH2 0x556 JUMPI DUP2 PUSH4 0x95CB741D EQ PUSH2 0x4CA JUMPI DUP2 PUSH4 0x9E9F669C EQ PUSH2 0x49A JUMPI DUP2 PUSH4 0xC19D93FB EQ PUSH2 0x49A JUMPI DUP2 PUSH4 0xC51B9507 EQ PUSH2 0x471 JUMPI DUP2 PUSH4 0xEB0C4955 EQ PUSH2 0x44D JUMPI DUP2 PUSH4 0xF30F29DD EQ PUSH2 0xFE JUMPI POP PUSH4 0xF4B01B18 EQ PUSH2 0xDD JUMPI PUSH0 DUP1 REVERT JUMPDEST CALLVALUE PUSH2 0xFA JUMPI DUP2 PUSH1 0x3 NOT CALLDATASIZE ADD SLT PUSH2 0xFA JUMPI PUSH1 0x20 SWAP1 PUSH1 0x9 SLOAD SWAP1 MLOAD SWAP1 DUP2 MSTORE RETURN JUMPDEST POP DUP1 REVERT JUMPDEST SWAP1 POP CALLVALUE PUSH2 0x449 JUMPI DUP2 PUSH1 0x3 NOT CALLDATASIZE ADD SLT PUSH2 0x449 JUMPI PUSH2 0x118 PUSH2 0xA37 JUMP JUMPDEST PUSH1 0x24 SWAP3 DUP4 CALLDATALOAD SWAP1 PUSH1 0xFF DUP5 SLOAD PUSH1 0xA0 SHR AND PUSH1 0x5 DUP2 LT ISZERO PUSH2 0x437 JUMPI PUSH1 0x1 SUB PUSH2 0x3F6 JUMPI PUSH1 0x1 PUSH1 0x1 PUSH1 0xA0 SHL SUB SWAP3 DUP4 AND SWAP5 DUP6 ISZERO PUSH2 0x3B4 JUMPI PUSH2 0x15B PUSH2 0x153 PUSH2 0xAFB JUMP JUMPDEST PUSH1 0x9 SLOAD PUSH2 0xA74 JUMP JUMPDEST DUP4 LT PUSH2 0x372 JUMPI DUP4 PUSH1 0x6 SLOAD AND SWAP4 DUP1 PUSH1 0x8 SLOAD AND SWAP1 DUP9 DUP5 MLOAD SWAP3 PUSH4 0x6EB1769F PUSH1 0xE1 SHL DUP5 MSTORE ADDRESS DUP10 DUP6 ADD MSTORE DUP1 DUP6 DUP6 ADD MSTORE PUSH1 0x20 SWAP8 PUSH1 0x44 SWAP5 DUP10 DUP2 DUP8 DUP2 DUP6 GAS STATICCALL SWAP1 DUP2 ISZERO PUSH2 0x368 JUMPI SWAP2 DUP10 DUP14 SWAP7 SWAP5 SWAP3 DUP7 SWAP5 DUP14 SWAP10 SWAP8 SWAP2 PUSH2 0x32D JUMPI JUMPDEST POP SWAP1 PUSH2 0x1B5 SWAP2 PUSH2 0xA74 JUMP JUMPDEST SWAP2 DUP9 DUP5 DUP1 DUP13 MLOAD SWAP6 DUP12 DUP8 ADD SWAP1 DUP6 PUSH4 0x95EA7B3 PUSH1 0xE0 SHL SWAP6 DUP7 DUP5 MSTORE DUP10 ADD MSTORE DUP11 DUP9 ADD MSTORE DUP10 DUP8 MSTORE PUSH2 0x1E0 DUP8 PUSH2 0xABD JUMP JUMPDEST DUP7 MLOAD SWAP1 DUP3 DUP8 GAS CALL PUSH2 0x1EF PUSH2 0xCC3 JUMP JUMPDEST DUP2 PUSH2 0x2FD JUMPI JUMPDEST POP DUP1 PUSH2 0x2F3 JUMPI JUMPDEST ISZERO PUSH2 0x2BB JUMPI JUMPDEST POP POP POP POP POP PUSH1 0x8 SLOAD AND SWAP4 DUP11 DUP7 MLOAD SWAP6 DUP7 SWAP5 DUP6 SWAP4 PUSH4 0x6E553F65 PUSH1 0xE0 SHL DUP6 MSTORE DUP11 DUP14 DUP7 ADD MSTORE DUP5 ADD MSTORE GAS CALL DUP1 ISZERO PUSH2 0x2B1 JUMPI PUSH2 0x283 JUMPI JUMPDEST POP PUSH1 0xD DUP1 SLOAD PUSH1 0x1 PUSH1 0x1 PUSH1 0xA0 SHL SUB NOT AND DUP7 OR SWAP1 SSTORE DUP4 SLOAD PUSH1 0xFF PUSH1 0xA0 SHL NOT AND PUSH1 0x1 PUSH1 0xA1 SHL OR SWAP1 SWAP4 SSTORE SWAP2 MLOAD SWAP2 DUP3 MSTORE PUSH32 0x5150AB7694A22FBC01C642BC10316565247DF962FA3F0AC3B5D1A18BA45B485B SWAP2 LOG2 DUP1 RETURN JUMPDEST DUP4 SWAP1 DUP2 RETURNDATASIZE DUP4 GT PUSH2 0x2AA JUMPI JUMPDEST PUSH2 0x298 DUP2 DUP4 PUSH2 0xAD9 JUMP JUMPDEST DUP2 ADD SUB SLT PUSH2 0x2A6 JUMPI PUSH0 PUSH2 0x233 JUMP JUMPDEST PUSH0 DUP1 REVERT JUMPDEST POP RETURNDATASIZE PUSH2 0x28E JUMP JUMPDEST DUP3 MLOAD RETURNDATASIZE DUP10 DUP3 RETURNDATACOPY RETURNDATASIZE SWAP1 REVERT JUMPDEST PUSH2 0x2E9 SWAP5 PUSH2 0x2E4 SWAP3 DUP13 MLOAD SWAP3 DUP12 DUP5 ADD MSTORE DUP12 DUP4 ADD MSTORE DUP8 DUP3 ADD MSTORE DUP7 DUP2 MSTORE PUSH2 0x2DE DUP2 PUSH2 0xABD JUMP JUMPDEST DUP3 PUSH2 0xC52 JUMP JUMPDEST PUSH2 0xC52 JUMP JUMPDEST DUP11 PUSH0 DUP1 DUP1 DUP1 PUSH2 0x202 JUMP JUMPDEST POP DUP3 EXTCODESIZE ISZERO ISZERO PUSH2 0x1FC JUMP JUMPDEST DUP1 MLOAD DUP1 ISZERO SWAP3 POP DUP12 SWAP1 DUP4 ISZERO PUSH2 0x315 JUMPI JUMPDEST POP POP POP PUSH0 PUSH2 0x1F5 JUMP JUMPDEST PUSH2 0x325 SWAP4 POP DUP3 ADD DUP2 ADD SWAP2 ADD PUSH2 0xC3A JUMP JUMPDEST PUSH0 DUP11 DUP2 PUSH2 0x30C JUMP JUMPDEST SWAP5 POP POP POP SWAP5 POP SWAP5 DUP2 DUP2 RETURNDATASIZE DUP4 GT PUSH2 0x361 JUMPI JUMPDEST PUSH2 0x348 DUP2 DUP4 PUSH2 0xAD9 JUMP JUMPDEST DUP2 ADD SUB SLT PUSH2 0x2A6 JUMPI MLOAD DUP9 SWAP5 DUP12 SWAP5 DUP14 SWAP3 DUP11 SWAP1 PUSH2 0x1B5 PUSH2 0x1AA JUMP JUMPDEST POP RETURNDATASIZE PUSH2 0x33E JUMP JUMPDEST DUP9 MLOAD RETURNDATASIZE DUP7 DUP3 RETURNDATACOPY RETURNDATASIZE SWAP1 REVERT JUMPDEST PUSH1 0x17 DUP6 SWAP2 PUSH1 0x20 PUSH1 0x64 SWAP5 MLOAD SWAP4 PUSH3 0x461BCD PUSH1 0xE5 SHL DUP6 MSTORE DUP5 ADD MSTORE DUP3 ADD MSTORE PUSH32 0x496E73756666696369656E7420636F6C6C61746572616C000000000000000000 PUSH1 0x44 DUP3 ADD MSTORE REVERT JUMPDEST PUSH1 0x18 DUP6 SWAP2 PUSH1 0x20 PUSH1 0x64 SWAP5 MLOAD SWAP4 PUSH3 0x461BCD PUSH1 0xE5 SHL DUP6 MSTORE DUP5 ADD MSTORE DUP3 ADD MSTORE PUSH32 0x496E76616C696420626F72726F77657220616464726573730000000000000000 PUSH1 0x44 DUP3 ADD MSTORE REVERT JUMPDEST MLOAD PUSH3 0x461BCD PUSH1 0xE5 SHL DUP2 MSTORE PUSH1 0x20 DUP2 DUP6 ADD MSTORE PUSH1 0x1A DUP2 DUP7 ADD MSTORE PUSH32 0x4C6F616E206E6F7420726561647920746F206163746976617465000000000000 PUSH1 0x44 DUP3 ADD MSTORE PUSH1 0x64 SWAP1 REVERT JUMPDEST PUSH4 0x4E487B71 PUSH1 0xE0 SHL DUP8 MSTORE PUSH1 0x21 DUP6 MSTORE DUP6 DUP8 REVERT JUMPDEST DUP3 DUP1 REVERT JUMPDEST POP POP CALLVALUE PUSH2 0xFA JUMPI DUP2 PUSH1 0x3 NOT CALLDATASIZE ADD SLT PUSH2 0xFA JUMPI PUSH1 0x20 SWAP1 PUSH2 0x46A PUSH2 0xAFB JUMP JUMPDEST SWAP1 MLOAD SWAP1 DUP2 MSTORE RETURN JUMPDEST POP POP CALLVALUE PUSH2 0xFA JUMPI DUP2 PUSH1 0x3 NOT CALLDATASIZE ADD SLT PUSH2 0xFA JUMPI PUSH1 0x2 SLOAD SWAP1 MLOAD PUSH1 0x1 PUSH1 0x1 PUSH1 0xA0 SHL SUB SWAP1 SWAP2 AND DUP2 MSTORE PUSH1 0x20 SWAP1 RETURN JUMPDEST DUP3 DUP5 CALLVALUE PUSH2 0x4C7 JUMPI DUP1 PUSH1 0x3 NOT CALLDATASIZE ADD SLT PUSH2 0x4C7 JUMPI POP PUSH1 0xFF PUSH2 0x4C3 SWAP3 SLOAD PUSH1 0xA0 SHR AND SWAP1 MLOAD SWAP2 DUP3 SWAP2 DUP3 PUSH2 0xA4D JUMP JUMPDEST SUB SWAP1 RETURN JUMPDEST DUP1 REVERT JUMPDEST POP POP CALLVALUE PUSH2 0xFA JUMPI DUP2 PUSH1 0x3 NOT CALLDATASIZE ADD SLT PUSH2 0xFA JUMPI PUSH2 0x160 SWAP1 PUSH1 0x1 DUP1 PUSH1 0xA0 SHL SUB DUP1 PUSH1 0x5 SLOAD AND SWAP2 DUP2 PUSH1 0x6 SLOAD AND SWAP2 DUP1 PUSH1 0x7 SLOAD AND SWAP1 DUP1 PUSH1 0x8 SLOAD AND PUSH1 0x9 SLOAD PUSH1 0xA SLOAD SWAP1 PUSH1 0xB SLOAD SWAP3 DUP5 PUSH1 0xC SLOAD AND SWAP5 PUSH1 0xD SLOAD AND SWAP6 PUSH1 0xE SLOAD SWAP8 PUSH1 0xF SLOAD SWAP10 DUP2 MLOAD SWAP12 DUP13 MSTORE PUSH1 0x20 DUP13 ADD MSTORE DUP11 ADD MSTORE PUSH1 0x60 DUP10 ADD MSTORE PUSH1 0x80 DUP9 ADD MSTORE PUSH1 0xA0 DUP8 ADD MSTORE PUSH1 0xC0 DUP7 ADD MSTORE PUSH1 0xE0 DUP6 ADD MSTORE PUSH2 0x100 DUP5 ADD MSTORE PUSH2 0x120 DUP4 ADD MSTORE PUSH2 0x140 DUP3 ADD MSTORE RETURN JUMPDEST SWAP1 POP CALLVALUE PUSH2 0x449 JUMPI DUP3 PUSH1 0x3 NOT CALLDATASIZE ADD SLT PUSH2 0x449 JUMPI PUSH2 0x570 PUSH2 0xB8B JUMP JUMPDEST PUSH1 0xFF DUP2 SLOAD PUSH1 0xA0 SHR AND PUSH1 0x5 DUP2 LT ISZERO PUSH2 0x631 JUMPI PUSH2 0x5EF JUMPI PUSH32 0x9E71D2FB732E68272B7E74ECFD14638673C1D77E19A5D390A3FFFF054D57C44B SWAP2 PUSH1 0x20 SWAP2 PUSH2 0x5CA PUSH1 0x1 DUP1 PUSH1 0xA0 SHL SUB DUP1 PUSH1 0x6 SLOAD AND SWAP1 PUSH1 0x5 SLOAD AND SWAP1 PUSH1 0x9 SLOAD SWAP2 ADDRESS SWAP2 PUSH2 0xBDF JUMP JUMPDEST NUMBER PUSH1 0xF SSTORE DUP1 SLOAD PUSH1 0xFF PUSH1 0xA0 SHL NOT AND PUSH1 0x1 PUSH1 0xA0 SHL OR SWAP1 SSTORE PUSH1 0x9 SLOAD SWAP1 MLOAD SWAP1 DUP2 MSTORE LOG1 PUSH1 0x1 DUP2 SSTORE DUP1 RETURN JUMPDEST PUSH1 0x20 PUSH1 0x64 SWAP3 MLOAD SWAP2 PUSH3 0x461BCD PUSH1 0xE5 SHL DUP4 MSTORE DUP3 ADD MSTORE PUSH1 0x1B PUSH1 0x24 DUP3 ADD MSTORE PUSH32 0x4C6F616E206E6F7420696E20637265617461626C652073746174650000000000 PUSH1 0x44 DUP3 ADD MSTORE REVERT JUMPDEST PUSH4 0x4E487B71 PUSH1 0xE0 SHL DUP5 MSTORE PUSH1 0x21 DUP3 MSTORE PUSH1 0x24 DUP5 REVERT JUMPDEST POP POP CALLVALUE PUSH2 0xFA JUMPI DUP2 PUSH1 0x3 NOT CALLDATASIZE ADD SLT PUSH2 0xFA JUMPI PUSH1 0x3 SLOAD SWAP1 MLOAD PUSH1 0x1 PUSH1 0x1 PUSH1 0xA0 SHL SUB SWAP1 SWAP2 AND DUP2 MSTORE PUSH1 0x20 SWAP1 RETURN JUMPDEST POP POP CALLVALUE PUSH2 0xFA JUMPI DUP2 PUSH1 0x3 NOT CALLDATASIZE ADD SLT PUSH2 0xFA JUMPI PUSH1 0x20 SWAP1 PUSH2 0x46A PUSH2 0x153 PUSH2 0xAFB JUMP JUMPDEST DUP4 DUP4 CALLVALUE PUSH2 0xFA JUMPI PUSH1 0x20 SWAP3 DUP4 PUSH1 0x3 NOT CALLDATASIZE ADD SLT PUSH2 0x449 JUMPI DUP4 PUSH2 0x6AB PUSH2 0xA37 JUMP JUMPDEST PUSH1 0x8 SLOAD DUP5 MLOAD PUSH4 0x70A08231 PUSH1 0xE0 SHL DUP2 MSTORE PUSH1 0x1 PUSH1 0x1 PUSH1 0xA0 SHL SUB SWAP3 DUP4 AND SWAP5 DUP2 ADD SWAP5 SWAP1 SWAP5 MSTORE DUP4 SWAP2 PUSH1 0x24 SWAP2 DUP4 SWAP2 AND GAS STATICCALL SWAP3 DUP4 ISZERO PUSH2 0x719 JUMPI SWAP3 PUSH2 0x6EA JUMPI JUMPDEST POP MLOAD SWAP1 DUP2 MSTORE RETURN JUMPDEST SWAP1 SWAP2 POP DUP3 DUP2 DUP2 RETURNDATASIZE DUP4 GT PUSH2 0x712 JUMPI JUMPDEST PUSH2 0x702 DUP2 DUP4 PUSH2 0xAD9 JUMP JUMPDEST DUP2 ADD SUB SLT PUSH2 0x2A6 JUMPI MLOAD SWAP1 DUP4 PUSH2 0x6E3 JUMP JUMPDEST POP RETURNDATASIZE PUSH2 0x6F8 JUMP JUMPDEST DUP3 MLOAD SWAP1 RETURNDATASIZE SWAP1 DUP3 RETURNDATACOPY RETURNDATASIZE SWAP1 REVERT JUMPDEST POP POP CALLVALUE PUSH2 0xFA JUMPI DUP2 PUSH1 0x3 NOT CALLDATASIZE ADD SLT PUSH2 0xFA JUMPI PUSH1 0x20 SWAP1 PUSH1 0xB SLOAD SWAP1 MLOAD SWAP1 DUP2 MSTORE RETURN JUMPDEST POP POP CALLVALUE PUSH2 0xFA JUMPI DUP2 PUSH1 0x3 NOT CALLDATASIZE ADD SLT PUSH2 0xFA JUMPI PUSH1 0x20 SWAP1 PUSH1 0xA SLOAD SWAP1 MLOAD SWAP1 DUP2 MSTORE RETURN JUMPDEST SWAP2 SWAP1 POP CALLVALUE PUSH2 0x2A6 JUMPI PUSH1 0x20 CALLDATASIZE PUSH1 0x3 NOT ADD SLT PUSH2 0x2A6 JUMPI PUSH2 0x77E PUSH2 0xB8B JUMP JUMPDEST PUSH1 0xFF DUP3 SLOAD PUSH1 0xA0 SHR AND PUSH1 0x5 DUP2 LT ISZERO PUSH2 0x9BC JUMPI PUSH1 0x2 SUB PUSH2 0x983 JUMPI PUSH2 0x7AA PUSH1 0x9 SLOAD PUSH2 0x7A4 PUSH2 0xAFB JUMP JUMPDEST SWAP1 PUSH2 0xA74 JUMP JUMPDEST SWAP2 DUP3 DUP2 CALLDATALOAD LT PUSH2 0x937 JUMPI PUSH1 0x1 DUP1 PUSH1 0xA0 SHL SUB PUSH2 0x7D0 DUP5 DUP3 PUSH1 0x7 SLOAD AND DUP4 PUSH1 0x5 SLOAD AND SWAP1 CALLER SWAP1 PUSH2 0xBDF JUMP JUMPDEST DUP2 SLOAD PUSH1 0xFF PUSH1 0xA0 SHL NOT AND PUSH1 0x3 PUSH1 0xA0 SHL OR DUP3 SSTORE PUSH1 0x2 SLOAD DUP2 AND SWAP1 DUP2 EXTCODESIZE ISZERO PUSH2 0x2A6 JUMPI DUP4 MLOAD PUSH0 DUP2 PUSH1 0x24 DUP2 DUP4 PUSH4 0x7E72C7D7 PUSH1 0xE0 SHL SWAP8 DUP9 DUP4 MSTORE ADDRESS DUP11 DUP5 ADD MSTORE GAS CALL DUP1 ISZERO PUSH2 0x92D JUMPI PUSH2 0x916 JUMPI JUMPDEST POP SWAP1 DUP2 DUP7 SWAP4 SWAP3 PUSH1 0x3 SLOAD AND DUP1 EXTCODESIZE ISZERO PUSH2 0x912 JUMPI DUP5 DUP1 SWAP2 PUSH1 0x24 DUP9 MLOAD DUP1 SWAP5 DUP2 SWAP4 PUSH4 0x38E270ED PUSH1 0xE0 SHL DUP4 MSTORE ADDRESS DUP11 DUP5 ADD MSTORE GAS CALL DUP1 ISZERO PUSH2 0x908 JUMPI SWAP1 DUP6 SWAP2 PUSH2 0x8F4 JUMPI JUMPDEST POP POP DUP3 SLOAD AND SWAP2 DUP3 EXTCODESIZE ISZERO PUSH2 0x8F0 JUMPI PUSH1 0x24 DUP5 SWAP3 DUP4 DUP8 MLOAD SWAP6 DUP7 SWAP5 DUP6 SWAP4 DUP5 MSTORE ADDRESS SWAP1 DUP5 ADD MSTORE GAS CALL DUP1 ISZERO PUSH2 0x8E6 JUMPI PUSH2 0x8D2 JUMPI JUMPDEST POP PUSH32 0x4002DBA848920F438092E08090CFB5FC47144C22704268B402C9553A1B5ADFE6 PUSH1 0x20 DUP5 DUP5 MLOAD SWAP1 PUSH32 0x409FCED1B85AE32A29FB1E18894D8361A5F2653DC27ADF7102D86175C2901D7C DUP6 DUP1 LOG1 DUP2 MSTORE LOG1 PUSH1 0x1 DUP2 SSTORE DUP1 RETURN JUMPDEST PUSH2 0x8DB SWAP1 PUSH2 0xA95 JUMP JUMPDEST PUSH2 0x449 JUMPI DUP3 PUSH0 PUSH2 0x87C JUMP JUMPDEST DUP4 MLOAD RETURNDATASIZE DUP5 DUP3 RETURNDATACOPY RETURNDATASIZE SWAP1 REVERT JUMPDEST DUP4 DUP1 REVERT JUMPDEST PUSH2 0x8FD SWAP1 PUSH2 0xA95 JUMP JUMPDEST PUSH2 0x8F0 JUMPI DUP4 PUSH0 PUSH2 0x84F JUMP JUMPDEST DUP7 MLOAD RETURNDATASIZE DUP8 DUP3 RETURNDATACOPY RETURNDATASIZE SWAP1 REVERT JUMPDEST DUP5 DUP1 REVERT JUMPDEST PUSH2 0x923 SWAP2 SWAP4 SWAP3 SWAP7 POP PUSH2 0xA95 JUMP JUMPDEST PUSH0 SWAP5 SWAP1 SWAP2 PUSH0 PUSH2 0x814 JUMP JUMPDEST DUP6 MLOAD RETURNDATASIZE PUSH0 DUP3 RETURNDATACOPY RETURNDATASIZE SWAP1 REVERT JUMPDEST PUSH1 0x20 PUSH1 0x84 SWAP3 MLOAD SWAP2 PUSH3 0x461BCD PUSH1 0xE5 SHL DUP4 MSTORE DUP3 ADD MSTORE PUSH1 0x21 PUSH1 0x24 DUP3 ADD MSTORE PUSH32 0x496E73756666696369656E7420616D6F756E7420666F722072657061796D656E PUSH1 0x44 DUP3 ADD MSTORE PUSH1 0x1D PUSH1 0xFA SHL PUSH1 0x64 DUP3 ADD MSTORE REVERT JUMPDEST SWAP1 PUSH1 0x20 PUSH1 0x64 SWAP3 MLOAD SWAP2 PUSH3 0x461BCD PUSH1 0xE5 SHL DUP4 MSTORE DUP3 ADD MSTORE PUSH1 0x13 PUSH1 0x24 DUP3 ADD MSTORE PUSH19 0x4C6F616E206D75737420626520616374697665 PUSH1 0x68 SHL PUSH1 0x44 DUP3 ADD MSTORE REVERT JUMPDEST PUSH1 0x21 DUP4 PUSH4 0x4E487B71 PUSH1 0xE0 SHL PUSH0 MSTORE MSTORE PUSH1 0x24 PUSH0 REVERT JUMPDEST DUP3 CALLVALUE PUSH2 0x2A6 JUMPI PUSH0 CALLDATASIZE PUSH1 0x3 NOT ADD SLT PUSH2 0x2A6 JUMPI PUSH1 0x20 SWAP1 PUSH1 0xF SLOAD SWAP1 MLOAD SWAP1 DUP2 MSTORE RETURN JUMPDEST DUP3 CALLVALUE PUSH2 0x2A6 JUMPI PUSH0 CALLDATASIZE PUSH1 0x3 NOT ADD SLT PUSH2 0x2A6 JUMPI PUSH1 0x1 SLOAD SWAP1 MLOAD PUSH1 0x1 PUSH1 0x1 PUSH1 0xA0 SHL SUB SWAP1 SWAP2 AND DUP2 MSTORE PUSH1 0x20 SWAP1 RETURN JUMPDEST CALLVALUE PUSH2 0x2A6 JUMPI PUSH0 CALLDATASIZE PUSH1 0x3 NOT ADD SLT PUSH2 0x2A6 JUMPI SWAP1 SLOAD PUSH1 0x1 PUSH1 0x1 PUSH1 0xA0 SHL SUB AND DUP2 MSTORE PUSH1 0x20 SWAP1 RETURN JUMPDEST PUSH1 0x4 CALLDATALOAD SWAP1 PUSH1 0x1 PUSH1 0x1 PUSH1 0xA0 SHL SUB DUP3 AND DUP3 SUB PUSH2 0x2A6 JUMPI JUMP JUMPDEST SWAP2 SWAP1 PUSH1 0x20 DUP4 ADD SWAP3 PUSH1 0x5 DUP3 LT ISZERO PUSH2 0xA60 JUMPI MSTORE JUMP JUMPDEST PUSH4 0x4E487B71 PUSH1 0xE0 SHL PUSH0 MSTORE PUSH1 0x21 PUSH1 0x4 MSTORE PUSH1 0x24 PUSH0 REVERT JUMPDEST SWAP2 SWAP1 DUP3 ADD DUP1 SWAP3 GT PUSH2 0xA81 JUMPI JUMP JUMPDEST PUSH4 0x4E487B71 PUSH1 0xE0 SHL PUSH0 MSTORE PUSH1 0x11 PUSH1 0x4 MSTORE PUSH1 0x24 PUSH0 REVERT JUMPDEST PUSH8 0xFFFFFFFFFFFFFFFF DUP2 GT PUSH2 0xAA9 JUMPI PUSH1 0x40 MSTORE JUMP JUMPDEST PUSH4 0x4E487B71 PUSH1 0xE0 SHL PUSH0 MSTORE PUSH1 0x41 PUSH1 0x4 MSTORE PUSH1 0x24 PUSH0 REVERT JUMPDEST PUSH1 0x80 DUP2 ADD SWAP1 DUP2 LT PUSH8 0xFFFFFFFFFFFFFFFF DUP3 GT OR PUSH2 0xAA9 JUMPI PUSH1 0x40 MSTORE JUMP JUMPDEST SWAP1 PUSH1 0x1F DUP1 NOT SWAP2 ADD AND DUP2 ADD SWAP1 DUP2 LT PUSH8 0xFFFFFFFFFFFFFFFF DUP3 GT OR PUSH2 0xAA9 JUMPI PUSH1 0x40 MSTORE JUMP JUMPDEST PUSH1 0xE SLOAD NUMBER SUB NUMBER DUP2 GT PUSH2 0xA81 JUMPI PUSH1 0x20 PUSH1 0x1 DUP1 PUSH1 0xA0 SHL SUB PUSH1 0xC SLOAD AND PUSH1 0x64 PUSH1 0x9 SLOAD PUSH1 0xA SLOAD SWAP3 PUSH1 0x40 MLOAD SWAP6 DUP7 SWAP5 DUP6 SWAP4 PUSH4 0x1786F63 PUSH1 0xE2 SHL DUP6 MSTORE PUSH1 0x4 DUP6 ADD MSTORE PUSH1 0x24 DUP5 ADD MSTORE PUSH1 0x44 DUP4 ADD MSTORE GAS STATICCALL SWAP1 DUP2 ISZERO PUSH2 0xB80 JUMPI PUSH0 SWAP2 PUSH2 0xB51 JUMPI POP SWAP1 JUMP JUMPDEST SWAP1 POP PUSH1 0x20 DUP2 RETURNDATASIZE PUSH1 0x20 GT PUSH2 0xB78 JUMPI JUMPDEST DUP2 PUSH2 0xB6C PUSH1 0x20 SWAP4 DUP4 PUSH2 0xAD9 JUMP JUMPDEST DUP2 ADD SUB SLT PUSH2 0x2A6 JUMPI MLOAD SWAP1 JUMP JUMPDEST RETURNDATASIZE SWAP2 POP PUSH2 0xB5F JUMP JUMPDEST PUSH1 0x40 MLOAD RETURNDATASIZE PUSH0 DUP3 RETURNDATACOPY RETURNDATASIZE SWAP1 REVERT JUMPDEST PUSH1 0x2 PUSH0 SLOAD EQ PUSH2 0xB9A JUMPI PUSH1 0x2 PUSH0 SSTORE JUMP JUMPDEST PUSH1 0x40 MLOAD PUSH3 0x461BCD PUSH1 0xE5 SHL DUP2 MSTORE PUSH1 0x20 PUSH1 0x4 DUP3 ADD MSTORE PUSH1 0x1F PUSH1 0x24 DUP3 ADD MSTORE PUSH32 0x5265656E7472616E637947756172643A207265656E7472616E742063616C6C00 PUSH1 0x44 DUP3 ADD MSTORE PUSH1 0x64 SWAP1 REVERT JUMPDEST PUSH1 0x40 MLOAD PUSH4 0x23B872DD PUSH1 0xE0 SHL PUSH1 0x20 DUP3 ADD MSTORE PUSH1 0x1 PUSH1 0x1 PUSH1 0xA0 SHL SUB SWAP3 DUP4 AND PUSH1 0x24 DUP3 ADD MSTORE SWAP3 SWAP1 SWAP2 AND PUSH1 0x44 DUP4 ADD MSTORE PUSH1 0x64 DUP1 DUP4 ADD SWAP4 SWAP1 SWAP4 MSTORE SWAP2 DUP2 MSTORE PUSH1 0xA0 DUP2 ADD SWAP2 DUP2 DUP4 LT PUSH8 0xFFFFFFFFFFFFFFFF DUP5 GT OR PUSH2 0xAA9 JUMPI PUSH2 0xC38 SWAP3 PUSH1 0x40 MSTORE PUSH2 0xC52 JUMP JUMPDEST JUMP JUMPDEST SWAP1 DUP2 PUSH1 0x20 SWAP2 SUB SLT PUSH2 0x2A6 JUMPI MLOAD DUP1 ISZERO ISZERO DUP2 SUB PUSH2 0x2A6 JUMPI SWAP1 JUMP JUMPDEST PUSH0 DUP1 PUSH2 0xC7A SWAP3 PUSH1 0x1 DUP1 PUSH1 0xA0 SHL SUB AND SWAP4 PUSH1 0x20 DUP2 MLOAD SWAP2 ADD DUP3 DUP7 GAS CALL PUSH2 0xC73 PUSH2 0xCC3 JUMP JUMPDEST SWAP1 DUP4 PUSH2 0xD02 JUMP JUMPDEST DUP1 MLOAD SWAP1 DUP2 ISZERO ISZERO SWAP2 DUP3 PUSH2 0xCA8 JUMPI JUMPDEST POP POP PUSH2 0xC90 JUMPI POP JUMP JUMPDEST PUSH1 0x24 SWAP1 PUSH1 0x40 MLOAD SWAP1 PUSH4 0x5274AFE7 PUSH1 0xE0 SHL DUP3 MSTORE PUSH1 0x4 DUP3 ADD MSTORE REVERT JUMPDEST PUSH2 0xCBB SWAP3 POP PUSH1 0x20 DUP1 SWAP2 DUP4 ADD ADD SWAP2 ADD PUSH2 0xC3A JUMP JUMPDEST ISZERO PUSH0 DUP1 PUSH2 0xC87 JUMP JUMPDEST RETURNDATASIZE ISZERO PUSH2 0xCFD JUMPI RETURNDATASIZE SWAP1 PUSH8 0xFFFFFFFFFFFFFFFF DUP3 GT PUSH2 0xAA9 JUMPI PUSH1 0x40 MLOAD SWAP2 PUSH2 0xCF2 PUSH1 0x1F DUP3 ADD PUSH1 0x1F NOT AND PUSH1 0x20 ADD DUP5 PUSH2 0xAD9 JUMP JUMPDEST DUP3 MSTORE RETURNDATASIZE PUSH0 PUSH1 0x20 DUP5 ADD RETURNDATACOPY JUMP JUMPDEST PUSH1 0x60 SWAP1 JUMP JUMPDEST SWAP1 PUSH2 0xD29 JUMPI POP DUP1 MLOAD ISZERO PUSH2 0xD17 JUMPI DUP1 MLOAD SWAP1 PUSH1 0x20 ADD REVERT JUMPDEST PUSH1 0x40 MLOAD PUSH4 0xA12F521 PUSH1 0xE1 SHL DUP2 MSTORE PUSH1 0x4 SWAP1 REVERT JUMPDEST DUP2 MLOAD ISZERO DUP1 PUSH2 0xD5C JUMPI JUMPDEST PUSH2 0xD3A JUMPI POP SWAP1 JUMP JUMPDEST PUSH1 0x40 MLOAD PUSH4 0x9996B315 PUSH1 0xE0 SHL DUP2 MSTORE PUSH1 0x1 PUSH1 0x1 PUSH1 0xA0 SHL SUB SWAP1 SWAP2 AND PUSH1 0x4 DUP3 ADD MSTORE PUSH1 0x24 SWAP1 REVERT JUMPDEST POP DUP1 EXTCODESIZE ISZERO PUSH2 0xD32 JUMP INVALID LOG2 PUSH5 0x6970667358 0x22 SLT KECCAK256 0xD1 PUSH17 0xCA7F2547EE07A53C1B586A5228E3E1B439 PREVRANDAO 0x4B TSTORE SWAP2 SSTORE 0x4B SWAP1 PUSH8 0x8DD37176EE64736F PUSH13 0x63430008190033000000000000 "
		},
		"gasEstimates": {
			"creation": {
				"codeDepositCost": "696600",
				"executionCost": "infinite",
				"totalCost": "infinite"
			},
			"external": {
				"activateLoan(address,uint256)": "infinite",
				"calculateInterest()": "infinite",
				"calculateRequiredCollateral()": "infinite",
				"fundLoan()": "infinite",
				"getCollateralAmount(address)": "infinite",
				"getFundedBlock()": "2320",
				"getInterestRate()": "2366",
				"getLoanAmount()": "2625",
				"getLoanState()": "2614",
				"getRepaymentPeriod()": "2388",
				"loanDetails()": "23750",
				"permit2()": "2319",
				"poolOrganizer()": "2585",
				"repay(uint256)": "infinite",
				"rewardManager()": "2280",
				"state()": "2636",
				"vaultManager()": "2475"
			},
			"internal": {
				"_closeLoan()": "infinite"
			}
		},
		"methodIdentifiers": {
			"activateLoan(address,uint256)": "f30f29dd",
			"calculateInterest()": "eb0c4955",
			"calculateRequiredCollateral()": "6b6d1955",
			"fundLoan()": "8db57994",
			"getCollateralAmount(address)": "654c6295",
			"getFundedBlock()": "2e1283e3",
			"getInterestRate()": "5257b566",
			"getLoanAmount()": "f4b01b18",
			"getLoanState()": "9e9f669c",
			"getRepaymentPeriod()": "64c4bec0",
			"loanDetails()": "95cb741d",
			"permit2()": "12261ee7",
			"poolOrganizer()": "c51b9507",
			"repay(uint256)": "371fd8e6",
			"rewardManager()": "0f4ef8a6",
			"state()": "c19d93fb",
			"vaultManager()": "8a4adf24"
		}
	},
	"abi": [
		{
			"inputs": [
				{
					"internalType": "address",
					"name": "lender",
					"type": "address"
				},
				{
					"internalType": "address",
					"name": "loanTokenAddress",
					"type": "address"
				},
				{
					"internalType": "address",
					"name": "repaymentTokenAddress",
					"type": "address"
				},
				{
					"internalType": "address",
					"name": "collateralVaultAddress",
					"type": "address"
				},
				{
					"internalType": "uint256",
					"name": "loanAmount",
					"type": "uint256"
				},
				{
					"internalType": "uint256",
					"name": "interestRate",
					"type": "uint256"
				},
				{
					"internalType": "uint256",
					"name": "repaymentPeriod",
					"type": "uint256"
				},
				{
					"internalType": "contract IInterestModel",
					"name": "interestModel",
					"type": "address"
				},
				{
					"internalType": "contract IPermit2",
					"name": "_permit2",
					"type": "address"
				},
				{
					"internalType": "address",
					"name": "poolOrganizerAddress",
					"type": "address"
				},
				{
					"internalType": "address",
					"name": "vaultManagerAddress",
					"type": "address"
				},
				{
					"internalType": "address",
					"name": "rewardManagerAddress",
					"type": "address"
				}
			],
			"stateMutability": "nonpayable",
			"type": "constructor"
		},
		{
			"inputs": [
				{
					"internalType": "address",
					"name": "target",
					"type": "address"
				}
			],
			"name": "AddressEmptyCode",
			"type": "error"
		},
		{
			"inputs": [
				{
					"internalType": "address",
					"name": "account",
					"type": "address"
				}
			],
			"name": "AddressInsufficientBalance",
			"type": "error"
		},
		{
			"inputs": [],
			"name": "FailedInnerCall",
			"type": "error"
		},
		{
			"inputs": [
				{
					"internalType": "address",
					"name": "token",
					"type": "address"
				}
			],
			"name": "SafeERC20FailedOperation",
			"type": "error"
		},
		{
			"anonymous": false,
			"inputs": [
				{
					"indexed": true,
					"internalType": "address",
					"name": "borrower",
					"type": "address"
				},
				{
					"indexed": false,
					"internalType": "uint256",
					"name": "collateralAmount",
					"type": "uint256"
				}
			],
			"name": "LoanActivated",
			"type": "event"
		},
		{
			"anonymous": false,
			"inputs": [],
			"name": "LoanClosed",
			"type": "event"
		},
		{
			"anonymous": false,
			"inputs": [
				{
					"indexed": false,
					"internalType": "uint256",
					"name": "loanAmount",
					"type": "uint256"
				}
			],
			"name": "LoanFunded",
			"type": "event"
		},
		{
			"anonymous": false,
			"inputs": [
				{
					"indexed": true,
					"internalType": "address",
					"name": "lender",
					"type": "address"
				},
				{
					"indexed": false,
					"internalType": "uint256",
					"name": "loanAmount",
					"type": "uint256"
				},
				{
					"indexed": false,
					"internalType": "address",
					"name": "loanToken",
					"type": "address"
				},
				{
					"indexed": false,
					"internalType": "address",
					"name": "repaymentToken",
					"type": "address"
				}
			],
			"name": "LoanOfferCreated",
			"type": "event"
		},
		{
			"anonymous": false,
			"inputs": [
				{
					"indexed": false,
					"internalType": "uint256",
					"name": "amountRepaid",
					"type": "uint256"
				}
			],
			"name": "RepaymentMade",
			"type": "event"
		},
		{
			"inputs": [
				{
					"internalType": "address",
					"name": "borrower",
					"type": "address"
				},
				{
					"internalType": "uint256",
					"name": "collateralAmount",
					"type": "uint256"
				}
			],
			"name": "activateLoan",
			"outputs": [],
			"stateMutability": "nonpayable",
			"type": "function"
		},
		{
			"inputs": [],
			"name": "calculateInterest",
			"outputs": [
				{
					"internalType": "uint256",
					"name": "",
					"type": "uint256"
				}
			],
			"stateMutability": "view",
			"type": "function"
		},
		{
			"inputs": [],
			"name": "calculateRequiredCollateral",
			"outputs": [
				{
					"internalType": "uint256",
					"name": "",
					"type": "uint256"
				}
			],
			"stateMutability": "view",
			"type": "function"
		},
		{
			"inputs": [],
			"name": "fundLoan",
			"outputs": [],
			"stateMutability": "nonpayable",
			"type": "function"
		},
		{
			"inputs": [
				{
					"internalType": "address",
					"name": "user",
					"type": "address"
				}
			],
			"name": "getCollateralAmount",
			"outputs": [
				{
					"internalType": "uint256",
					"name": "",
					"type": "uint256"
				}
			],
			"stateMutability": "view",
			"type": "function"
		},
		{
			"inputs": [],
			"name": "getFundedBlock",
			"outputs": [
				{
					"internalType": "uint256",
					"name": "",
					"type": "uint256"
				}
			],
			"stateMutability": "view",
			"type": "function"
		},
		{
			"inputs": [],
			"name": "getInterestRate",
			"outputs": [
				{
					"internalType": "uint256",
					"name": "",
					"type": "uint256"
				}
			],
			"stateMutability": "view",
			"type": "function"
		},
		{
			"inputs": [],
			"name": "getLoanAmount",
			"outputs": [
				{
					"internalType": "uint256",
					"name": "",
					"type": "uint256"
				}
			],
			"stateMutability": "view",
			"type": "function"
		},
		{
			"inputs": [],
			"name": "getLoanState",
			"outputs": [
				{
					"internalType": "enum TuliaPool.LoanState",
					"name": "",
					"type": "uint8"
				}
			],
			"stateMutability": "view",
			"type": "function"
		},
		{
			"inputs": [],
			"name": "getRepaymentPeriod",
			"outputs": [
				{
					"internalType": "uint256",
					"name": "",
					"type": "uint256"
				}
			],
			"stateMutability": "view",
			"type": "function"
		},
		{
			"inputs": [],
			"name": "loanDetails",
			"outputs": [
				{
					"internalType": "address",
					"name": "lender",
					"type": "address"
				},
				{
					"internalType": "contract IERC20",
					"name": "loanToken",
					"type": "address"
				},
				{
					"internalType": "contract IERC20",
					"name": "repaymentToken",
					"type": "address"
				},
				{
					"internalType": "contract TuliaVault",
					"name": "collateralVault",
					"type": "address"
				},
				{
					"internalType": "uint256",
					"name": "loanAmount",
					"type": "uint256"
				},
				{
					"internalType": "uint256",
					"name": "interestRate",
					"type": "uint256"
				},
				{
					"internalType": "uint256",
					"name": "repaymentPeriod",
					"type": "uint256"
				},
				{
					"internalType": "contract IInterestModel",
					"name": "interestModel",
					"type": "address"
				},
				{
					"internalType": "address",
					"name": "borrower",
					"type": "address"
				},
				{
					"internalType": "uint256",
					"name": "startBlock",
					"type": "uint256"
				},
				{
					"internalType": "uint256",
					"name": "fundedBlock",
					"type": "uint256"
				}
			],
			"stateMutability": "view",
			"type": "function"
		},
		{
			"inputs": [],
			"name": "permit2",
			"outputs": [
				{
					"internalType": "contract IPermit2",
					"name": "",
					"type": "address"
				}
			],
			"stateMutability": "view",
			"type": "function"
		},
		{
			"inputs": [],
			"name": "poolOrganizer",
			"outputs": [
				{
					"internalType": "contract IPoolOrganizer",
					"name": "",
					"type": "address"
				}
			],
			"stateMutability": "view",
			"type": "function"
		},
		{
			"inputs": [
				{
					"internalType": "uint256",
					"name": "amount",
					"type": "uint256"
				}
			],
			"name": "repay",
			"outputs": [],
			"stateMutability": "nonpayable",
			"type": "function"
		},
		{
			"inputs": [],
			"name": "rewardManager",
			"outputs": [
				{
					"internalType": "contract IRewardManager",
					"name": "",
					"type": "address"
				}
			],
			"stateMutability": "view",
			"type": "function"
		},
		{
			"inputs": [],
			"name": "state",
			"outputs": [
				{
					"internalType": "enum TuliaPool.LoanState",
					"name": "",
					"type": "uint8"
				}
			],
			"stateMutability": "view",
			"type": "function"
		},
		{
			"inputs": [],
			"name": "vaultManager",
			"outputs": [
				{
					"internalType": "contract IVaultManager",
					"name": "",
					"type": "address"
				}
			],
			"stateMutability": "view",
			"type": "function"
		}
	]
}