{
	"data": {
		"bytecode": {
			"linkReferences": {},
			"object": "6080346101b357601f615a3138819003918201601f191683019291906001600160401b038411838510176101b75781606092849260409687528339810103126101b35761004b816101cb565b906100638361005c602084016101cb565b92016101cb565b916001600160a01b0390811691821561015e57811692831561010957169182156100b55760018060a01b031991825f5416175f5581600154161760015560025416176002555161585190816101e08239f35b835162461bcd60e51b815260206004820152602760248201527f5661756c744d616e616765722063616e6e6f7420626520746865207a65726f206044820152666164647265737360c81b6064820152608490fd5b845162461bcd60e51b815260206004820152602860248201527f5265776172644d616e616765722063616e6e6f7420626520746865207a65726f604482015267206164647265737360c01b6064820152608490fd5b845162461bcd60e51b815260206004820152602860248201527f506f6f6c4f7267616e697a65722063616e6e6f7420626520746865207a65726f604482015267206164647265737360c01b6064820152608490fd5b5f80fd5b634e487b7160e01b5f52604160045260245ffd5b51906001600160a01b03821682036101b35756fe60806040818152600436101562000014575f80fd5b5f91823560e01c9081630f4ef8a614620001a3575080638a4adf2414620001795780638c41fd0914620000c6578063a622ee7c14620000885763c51b9507146200005c575f80fd5b346200008457816003193601126200008457905490516001600160a01b039091168152602090f35b5080fd5b50346200008457602036600319011262000084576020916001600160a01b0390829082620000b5620001ca565b168152600385522054169051908152f35b503462000084576101403660031901126200008457620000e5620001ca565b6001600160a01b0390602435908282168203620001755760443591838316830362000171576064359284841684036200016d5760e43591858316830362000169576101043593600285101562000165576200015496979850610124359560c4359360a435936084359362000312565b835191831682529091166020820152f35b8880fd5b8780fd5b8680fd5b8580fd5b8480fd5b5034620000845781600319360112620000845760025490516001600160a01b039091168152602090f35b83903462000084578160031936011262000084576001546001600160a01b03168152602090f35b600435906001600160a01b0382168203620001e157565b5f80fd5b67ffffffffffffffff8111620001fa57604052565b634e487b7160e01b5f52604160045260245ffd5b90601f8019910116810190811067ffffffffffffffff821117620001fa57604052565b5f5b838110620002435750505f910152565b818101518382015260200162000233565b602081830312620001e157805167ffffffffffffffff91828211620001e157019082601f83011215620001e1578151908111620001fa5760405192620002a5601f8301601f1916602001856200020e565b81845260208284010111620001e157620002c6916020808501910162000231565b90565b90602091620002e48151809281855285808601910162000231565b601f01601f1916010190565b906002821015620002fe5752565b634e487b7160e01b5f52602160045260245ffd5b9694919795929998999390935f9560018060a01b03891615158062000aeb575b1562000ab2576040516395d89b4160e01b81529b878d6004816001600160a01b038f165afa9c8d1562000aa75760229d620003a8918a9162000a89575b506040519e8f8092612a2b60f11b602083015262000397815180926020868601910162000231565b81010360028101835201906200020e565b6004888c604051928380926395d89b4160e01b825260018060a01b03165afa9081156200095157899162000a62575b506200041c602a604051809369151d5b1a5855985d5b1d60b21b60208301526200040b815180926020868601910162000231565b810103600a8101845201826200020e565b889d60028b101562000a4e578a1562000970575b5050886200069f57508654600254600154604051936001600160a01b0391821693928216929091169067ffffffffffffffff6126358601908111908611176200068b578f61263562001c3887396001600160a01b03808f1661263588019081528c82166020820152888216604082015291811660608301526080820189905260a082018a905260c082018b90529190911660e0820152610100810191909152610120810191909152610140810191909152819003610160019087f0988915620006805786546001600160a01b031695863b15620001695760405163021bab0160e51b81526001600160a01b03808d166004830152808c166024830152604482018a9052808f166064830152918216608482015291811660a483015290911660c482015260e4810191909152610104810191909152610124810191909152908290829061016490829084906200058a61014484018a620002f0565b5af180156200065d5790829162000668575b505080546001600160a01b0316803b156200008457604051635d102df760e01b81526001600160a01b03861660048201529082908290602490829084905af180156200065d5762000642575b5050620005f96040518092620002f0565b6001600160a01b0385811692811691908416907f645ee41665486bc487a04a91a2bd296d2d2395cabf7747b152436dd15f9d4f8f90602090a46001600160a01b03908116921690565b6200064e8291620001e5565b6200065a5780620005e8565b80fd5b6040513d84823e3d90fd5b6200067390620001e5565b6200065a57805f6200059c565b6040513d88823e3d90fd5b634e487b7160e01b8b52604160045260248bfd5b9b505096949897939190925060018614620006f15760405162461bcd60e51b8152602060048201526015602482015274556e737570706f7274656420706f6f6c207479706560581b6044820152606490fd5b88546040516111398082019c91926001600160a01b0316919067ffffffffffffffff8e11848f10176200095c579c60609284928e9f62000aff85396001600160a01b0388168352602083015260408201520301908af092831562000951576001546001600160a01b0316803b156200094d576040516377ff76e760e01b81523060048201526001600160a01b0385166024820152600160448201529b8b918d916064918391905af18015620009425762000927575b8954999a5097986001600160a01b03938416988b989490911693843b15620001655760405163021bab0160e51b8152600481018b90526001600160a01b038881166024830152604482018b9052606482018b9052948516608482015295841660a487015290921660c485015260e484019190915261010483015261012482018590528490829061016490829084906200084461014484018a620002f0565b5af1908115620009005784916200090f575b505082546001600160a01b031690813b156200090b57838092602460405180958193635d102df760e01b83528a60048401525af18015620009005785928591620008df575b505060207f645ee41665486bc487a04a91a2bd296d2d2395cabf7747b152436dd15f9d4f8f91620008d06040518096620002f0565b6001600160a01b031693a49190565b620008ed91929350620001e5565b620008fc578390835f6200089b565b8280fd5b6040513d86823e3d90fd5b8380fd5b6200091a90620001e5565b620008fc57825f62000856565b96979890996200093790620001e5565b9796958990620007a6565b6040513d8c823e3d90fd5b8a80fd5b6040513d8b823e3d90fd5b634e487b7160e01b8d52604160045260248dfd5b90919d5060405191826115af81011067ffffffffffffffff6115af8501111762000a3a578291620009cb620009e2928f6115af6200426d87396001600160a01b03166115af86019081526060602082018190520190620002c9565b906115af8401820360406115af86010152620002c9565b039088f09b8c1562000a2f576040516001600160a01b03808d1682528e16907f5d9c31ffa0fecffd7cf379989a3c7af252f0335e0d2a1320b55245912c781f5390602090a25f8062000430565b6040513d89823e3d90fd5b634e487b7160e01b8a52604160045260248afd5b634e487b7160e01b8a52602160045260248afd5b62000a8291503d808b833e62000a7981836200020e565b81019062000254565b5f620003d7565b62000aa091503d808c833e62000a7981836200020e565b5f6200036f565b6040513d8a823e3d90fd5b60405162461bcd60e51b8152602060048201526011602482015270496e76616c69642061646472657373657360781b6044820152606490fd5b506001600160a01b03861615156200033256fe60803461009857601f61113938819003918201601f19168301916001600160401b0383118484101761009c578084926060946040528339810103126100985780516001600160a01b03918282169182900361009857604060208201519101519283168093036100985760015f5560018060a01b031991826002541617600255600555600354161760035560405161108890816100b18239f35b5f80fd5b634e487b7160e01b5f52604160045260245ffdfe6080806040526004361015610012575f80fd5b5f90813560e01c908162abafe114610ccc5750806301ffc9a714610c75578063248a9ca314610c495780632f2ff15d14610c0b57806336568abe14610bc357806338d52e0f14610b9a5780635cffe9de14610569578063613255ab146104c2578063846b909a146102625780638c9f305f1461024457806391d14854146101fa578063a217fddf146101de578063bcead63e146101b5578063c19d93fb14610175578063c51b95071461014c578063d547741f1461010a5763d9d98ce4146100d8575f80fd5b346101075760403660031901126101075760206100ff6100f6610d1c565b60243590611008565b604051908152f35b80fd5b50346101075760403660031901126101075761014860043561012a610d06565b9080845260016020526101436001604086200154610d32565b610e9d565b5080f35b50346101075780600319360112610107576003546040516001600160a01b039091168152602090f35b503461010757806003193601126101075760ff600654166040519060028110156101a157602092508152f35b634e487b7160e01b83526021600452602483fd5b50346101075780600319360112610107576004546040516001600160a01b039091168152602090f35b5034610107578060031936011261010757602090604051908152f35b5034610107576040366003190112610107576040610216610d06565b9160043581526001602052209060018060a01b03165f52602052602060ff60405f2054166040519015158152f35b50346101075780600319360112610107576020600554604051908152f35b5034610107576020806003193601126103c05760043590610281610f74565b811561047f57600254604051636eb1769f60e11b81523360048201523060248201526001600160a01b03918216908381604481855afa8015610474578591879161043f575b50106103fc576040516323b872dd60e01b81523360048201523060248201526044810185905285929184908290606490829087905af180156103f1576103c4575b5061031133610d72565b50600480546001600160a01b031916331790556006805460ff1916905560035416803b156103c05781809160446040518094819363a956239b60e01b8352306004840152600660248401525af180156103b55761039d575b50507f726d5f1a838fe31748f737fa3ae5539ccff95952adfc593a1299532b643ff7a8906040519283523392a26001815580f35b6103a690610f12565b6103b157825f610369565b8280fd5b6040513d84823e3d90fd5b5080fd5b6103e390843d86116103ea575b6103db8183610f3a565b810190610f5c565b505f610307565b503d6103d1565b6040513d85823e3d90fd5b6064836040519062461bcd60e51b825280600483015260248201527f416c6c6f77616e6365206e6f742073657420666f722074686520616d6f756e746044820152fd5b809250858092503d831161046d575b6104588183610f3a565b81010312610469578490515f6102c6565b5f80fd5b503d61044e565b6040513d88823e3d90fd5b6064906040519062461bcd60e51b825280600483015260248201527f416d6f756e74206d7573742062652067726561746572207468616e207a65726f6044820152fd5b50346101075760209081600319360112610107576104de610d1c565b6002546001600160a01b03908116918491168203610562576040516370a0823160e01b815230600482015291829060249082905afa9182156105565791610529575b50604051908152f35b90508181813d831161054f575b6105408183610f3a565b8101031261046957515f610520565b503d610536565b604051903d90823e3d90fd5b50506100ff565b5034610107576080366003190112610107576004356001600160a01b03811681036103c057610596610d06565b9167ffffffffffffffff80606435116103c0573660236064350112156103c05760643560040135116101075736602460643560040135606435010111610107576105de610f74565b60ff600654166002811015610b8657610b4f576003546001600160a01b0316803b156103c05781809160446040518094819363a956239b60e01b8352306004840152600160248401525af180156103b557610b40575b506002549091906001600160a01b03908116906106549085168214610fc8565b61066060443585611008565b6040516370a0823160e01b81523060048201529091602082602481845afa918215610a20578592610b0c575b5060405163a9059cbb60e01b81526001600160a01b038516600482015260448035602483015290916020918391829089905af18015610a2057610aed575b506040516323e30c8b60e01b815233600482015260018060a01b0386166024820152604435604482015282606482015260a060848201526064356004013560a48201526064356004013560246064350160c483013760c46064356004013582810182018790526020918391601f19601f9091011682018290030181886001600160a01b0389165af18015610a20578590610a97575b7f439148f0bbc682ca079e46d6e2c2f0c1e3b820f1a291b069d8882abf8cf18dd9915003610a5e57816044350160443511610a4a576002546040516323b872dd60e01b81526001600160a01b038581166004830152306024830152604480358601908301529091602091839160649183918a91165af18015610a2057610a2b575b506002546040516370a0823160e01b815230600482015290602090829060249082906001600160a01b03165afa908115610a205785916109ee575b50106109a9576006805460ff191660011790556003546001600160a01b0316803b156109915783809160446040518094819363a956239b60e01b8352306004840152600460248401525af1801561097257908491610995575b50506003546001600160a01b0316803b1561099157838091602460405180948193637e72c7d760e01b83523060048401525af180156109725790849161097d575b506002546004805460405163a9059cbb60e01b81526001600160a01b039182169281019290925260448035860160248401529193602093859392849291165af18015610972576001957f9d0d497e678f62d6b162c97b9724a39f45fe674650dcd4a5e88ff6317e63764f92604092610953575b5081519360443585526020850152868060a01b031693868060a01b031692a355602060405160018152f35b61096b9060203d6020116103ea576103db8183610f3a565b505f610928565b6040513d86823e3d90fd5b61098690610f12565b6103b157825f6108b5565b8380fd5b61099e90610f12565b6103b157825f610874565b60405162461bcd60e51b815260206004820152601b60248201527f466c617368206c6f616e2072657061796d656e74206661696c656400000000006044820152606490fd5b90506020813d602011610a18575b81610a0960209383610f3a565b8101031261046957515f61081b565b3d91506109fc565b6040513d87823e3d90fd5b610a439060203d6020116103ea576103db8183610f3a565b505f6107e0565b634e487b7160e01b84526011600452602484fd5b60405162461bcd60e51b8152602060048201526011602482015270119b185cda081b1bd85b8819985a5b1959607a1b6044820152606490fd5b506020813d602011610ae5575b81610ab160209383610f3a565b81010312610ae1577f439148f0bbc682ca079e46d6e2c2f0c1e3b820f1a291b069d8882abf8cf18dd9905161075f565b8480fd5b3d9150610aa4565b610b059060203d6020116103ea576103db8183610f3a565b505f6106ca565b9091506020813d602011610b38575b81610b2860209383610f3a565b810103126104695751905f61068c565b3d9150610b1b565b610b4990610f12565b5f610634565b60405162461bcd60e51b815260206004820152600f60248201526e141bdbdb081b9bdd08199d5b991959608a1b6044820152606490fd5b634e487b7160e01b82526021600452602482fd5b50346101075780600319360112610107576002546040516001600160a01b039091168152602090f35b503461010757604036600319011261010757610bdd610d06565b336001600160a01b03821603610bf95761014890600435610e9d565b60405163334bd91960e11b8152600490fd5b503461010757604036600319011261010757610148600435610c2b610d06565b908084526001602052610c446001604086200154610d32565b610e24565b503461010757602036600319011261010757600160406020926004358152828452200154604051908152f35b50346101075760203660031901126101075760043563ffffffff60e01b81168091036103c057602090637965db0b60e01b8114908115610cbb575b506040519015158152f35b6301ffc9a760e01b14905082610cb0565b9050346103c057816003193601126103c057807fc60d7a62d8843f2b14bc63f2a5240b187980481ad8c001a3caf4916aef3f667e60209252f35b602435906001600160a01b038216820361046957565b600435906001600160a01b038216820361046957565b805f52600160205260405f20335f5260205260ff60405f20541615610d545750565b6044906040519063e2517d3f60e01b82523360048301526024820152fd5b6001600160a01b03165f8181527f95902c4d6c8ea17825d5632af066dcb87e033f1b2a91b49a7ad79e83f02c4dec60205260408120549091907fc60d7a62d8843f2b14bc63f2a5240b187980481ad8c001a3caf4916aef3f667e9060ff16610e1f5780835260016020526040832082845260205260408320600160ff198254161790557f2f8788117e7eff1d82e926ec794901d17c78024a50270940304540a733656f0d339380a4600190565b505090565b905f918083526001602052604083209160018060a01b03169182845260205260ff604084205416155f14610e1f5780835260016020526040832082845260205260408320600160ff198254161790557f2f8788117e7eff1d82e926ec794901d17c78024a50270940304540a733656f0d339380a4600190565b905f918083526001602052604083209160018060a01b03169182845260205260ff6040842054165f14610e1f578083526001602052604083208284526020526040832060ff1981541690557ff6391f5c32d9c69d2a47ea670b442974b53935d1edc7fd64eb21e047a839171b339380a4600190565b67ffffffffffffffff8111610f2657604052565b634e487b7160e01b5f52604160045260245ffd5b90601f8019910116810190811067ffffffffffffffff821117610f2657604052565b90816020910312610469575180151581036104695790565b60025f5414610f835760025f55565b60405162461bcd60e51b815260206004820152601f60248201527f5265656e7472616e637947756172643a207265656e7472616e742063616c6c006044820152606490fd5b15610fcf57565b60405162461bcd60e51b81526020600482015260116024820152702ab739bab83837b93a32b2103a37b5b2b760791b6044820152606490fd5b600254611022916001600160a01b03908116911614610fc8565b6005549081810291818304149015171561103e57612710900490565b634e487b7160e01b5f52601160045260245ffdfea264697066735822122048dc883d9efca27fa825c657d166a87a4002483e7178af6a982d62d72944c02664736f6c63430008140033608034620003ba57601f6200263538819003918201601f19168301916001600160401b03831184841017620003145780849261016094604052833981010312620003ba576200004e81620003be565b6200005c60208301620003be565b916200006b60408201620003be565b916200007a60608301620003be565b9260808301519460a08401519360c08101519060e081015160018060a01b0381168103620003ba57620000b16101008301620003be565b91620000d0610140620000c86101208401620003be565b9201620003be565b60015f55926001600160a01b038816151580620003a7575b8062000394575b8062000381575b156200033c576200010788620003d3565b50600280546001600160a01b03199081166001600160a01b0393841617909155600380549091169183169190911790556004549362015180908015828202829004831417156200032857604051996001600160401b036101808c01908111908c111762000314578c5f6101608d7f3d48195705780f5c10a0d217f778f0f6d562cb1a6a699da31c0d6d756aacedfc9f60609f8f906101800160405260018060a01b0316825260018060a01b038d1660208301528d60018060a01b0316604083015260018060a01b0316938f859083015260808201528460a082015286860260c082015260018060a01b03881660e082015260018060a01b0389166101008201528261012082015242610140820152015260018060a01b038b1660018060a01b0319600554161760055560018060a01b03891660018060a01b0319600654161760065560018060a01b038a1660018060a01b0319600754161760075560018060a01b031960085416176008558c600955600a5502600b5560018060a01b031660018060a01b0319600c541617600c5560018060a01b031660018060a01b0319600d541617600d5560018060a01b0319600e5416600e5542600f555f60105560018060a01b03169060018060a81b0319161760045560405195865260018060a01b0316602086015260018060a01b0316604085015260018060a01b031692a26040516121ae9081620004878239f35b634e487b7160e01b5f52604160045260245ffd5b634e487b7160e01b5f52601160045260245ffd5b60405162461bcd60e51b815260206004820152601760248201527f496e76616c696420696e707574206164647265737365730000000000000000006044820152606490fd5b506001600160a01b0387161515620000f6565b506001600160a01b038a161515620000ef565b506001600160a01b0386161515620000e8565b5f80fd5b51906001600160a01b0382168203620003ba57565b6001600160a01b03165f8181527f95902c4d6c8ea17825d5632af066dcb87e033f1b2a91b49a7ad79e83f02c4dec60205260408120549091907fc60d7a62d8843f2b14bc63f2a5240b187980481ad8c001a3caf4916aef3f667e9060ff16620004815780835260016020526040832082845260205260408320600160ff198254161790557f2f8788117e7eff1d82e926ec794901d17c78024a50270940304540a733656f0d339380a4600190565b50509056fe6080604081815260049182361015610015575f80fd5b5f92833560e01c918262abafe114611c375750816301ffc9a714611be15781630c7277de14611bb85781630e7b949e14611b7d5781630f4ef8a614611b555781631cb0c3e714611b2c578163248a9ca314611b025781632e1283e314611ae35781632f2ff15d14611ab957816336568abe14611a735781633b1baeff1461172b578163402d8883146111555781635257b5661461113657816364c4bec014611117578163654c6295146110805781636b6d1955146110605781638a4adf24146110375781638db5799414610d7557816391d1485414610d3157816395cb741d14610c9a5781639861f3e514610c715781639e9f669c146105a7578163a217fddf14610c56578163b2a9bb60146105d4578163c19d93fb146105a7578163c51b95071461057e578163d547741f1461053b578163d724a4c0146101af57508063eb0c49551461018c5763f4b01b181461016b575f80fd5b346101885781600319360112610188576020906009549051908152f35b5080fd5b50346101885781600319360112610188576020906101a86120f5565b9051908152f35b839150346101885781600319360112610188576101ca611ed8565b7fc60d7a62d8843f2b14bc63f2a5240b187980481ad8c001a3caf4916aef3f667e825260209260018452808320335f52845260ff815f205416156104ed5760ff825460a01c1660068110156104da5760010361049857600e546001600160a01b039081166104555784610277859683600654168460055416906009549189885180968195829463a9059cbb60e01b84528d840160209093929193604081019460018060a01b031681520152565b03925af1801561040957610427575b5050825460ff60a01b1916600560a01b1783556002548116803b15610405578251858160248183637e72c7d760e01b96878352308b8401525af1801561040957908691610413575b50508160035416803b156103ed5785809160248651809481936338e270ed60e01b8352308b8401525af18015610409579086916103f1575b50508184541690813b156103ed57859160248392865194859384928352308a8401525af180156103e3579085916103cf575b505060025416803b156103ca57815163a956239b60e01b81523093810193845260056020850152928491849182908490829060400103925af19081156103c157506103aa575b50807f409fced1b85ae32a29fb1e18894d8361a5f2653dc27adf7102d86175c2901d7c91a16001815580f35b6103b390611e8e565b6103be57808261037e565b80fd5b513d84823e3d90fd5b505050fd5b6103d890611e8e565b6103ca578386610338565b83513d87823e3d90fd5b8580fd5b6103fa90611e8e565b610405578487610306565b8480fd5b84513d88823e3d90fd5b61041c90611e8e565b6104055784876102ce565b8161044692903d1061044e575b61043e8183611eb6565b810190611f2c565b508580610286565b503d610434565b815162461bcd60e51b8152808401869052601760248201527f426f72726f77657220616c7265616479206578697374730000000000000000006044820152606490fd5b5162461bcd60e51b8152908101839052601f60248201527f4c6f616e206d75737420626520696e20612070656e64696e67207374617465006044820152606490fd5b634e487b7160e01b845260218352602484fd5b5162461bcd60e51b81529081018390526024808201527f4f6e6c7920746865206c656e6465722063616e207265636c61696d20746865206044820152633637b0b760e11b6064820152608490fd5b9190503461057a578060031936011261057a5761057691356105716001610560611c71565b938387528160205286200154611cae565b611e19565b5080f35b8280fd5b50503461018857816003193601126101885760025490516001600160a01b039091168152602090f35b8284346103be57806003193601126103be575060ff6105d0925460a01c16905191829182611c87565b0390f35b839150346101885781600319360112610188576105ef611ed8565b60ff815460a01c166006811015610c4357600103610c00573315610bbd576005546001600160a01b039081169390338514610b7a5761067a61062f6120f5565b61063c6009549182611f44565b6007548551636eb1769f60e11b80825233898301908152306020828101919091529388169b939693949193919291879183918e918391829160400190565b03915afa908115610b70578a91610b43575b5010610af65760065486519182526001600160a01b039092168782019081523060208201529091849183918716908290819060400103915afa9081156109b1579082918891610ac5575b5010610a825785968587846107336106f56106ef6120f5565b87611f44565b946106fe6120f5565b8a516323b872dd60e01b8082523397820197885230602089015260408801989098529096959094859384928391606090910190565b03925af18015610a785790859291610a5b575b506007546003548851928352338a84019081529088166001600160a01b0316602082015260408101949094529092839187169082908b90829060600103925af180156109b157610a3e575b50600754600854855163095ea7b360e01b81529085166001600160a01b03168782019081526020810184905290918491839187169082908b90829060400103925af180156109b1579183918893610a21575b50604485600854169187519485938492636e553f6560e01b84528b8401523360248401525af18015610409576109f0575b5061081e33611cee565b508160025416803b156103ed5783516337e238c560e01b8152308682019081523360208201529091879183919082908490829060400103925af18015610409579086916109dc575b50600654600954855163a9059cbb60e01b8152338882019081526020810192909252928492849283900360400191839188165af18015610409576109bf575b50600e80546001600160a01b0319163317905542600f55835460ff60a01b1916600160a11b1784556108e06108d86120f5565b600954611f44565b908260035416803b156109bb578680916024875180948193632914526d60e11b8352308c8401525af180156109b15790879161099d575b50507f5150ab7694a22fbc01c642bc10316565247df962fa3f0ac3b5d1a18ba45b485b9084519283523392a26002541691823b156103ca578392604484928451958693849263a956239b60e01b84523090840152600260248401525af19081156103c15750610989575b506001905580f35b61099290611e8e565b6103be578082610981565b6109a690611e8e565b6103ed578588610917565b85513d89823e3d90fd5b8680fd5b6109d590823d841161044e5761043e8183611eb6565b50866108a5565b6109e590611e8e565b610405578487610866565b818096503d8311610a1a575b610a068183611eb6565b81010312610a1657849386610814565b5f80fd5b503d6109fc565b610a3790833d851161044e5761043e8183611eb6565b50896107e3565b610a5490833d851161044e5761043e8183611eb6565b5087610791565b610a7190833d851161044e5761043e8183611eb6565b508a610746565b87513d8b823e3d90fd5b835162461bcd60e51b8152808601839052601b60248201527f496e73756666696369656e74206c6f616e20616c6c6f77616e636500000000006044820152606490fd5b809250848092503d8311610aef575b610ade8183611eb6565b81010312610a1657819051896106d6565b503d610ad4565b855162461bcd60e51b8152808801859052602160248201527f496e73756666696369656e7420636f6c6c61746572616c20616c6c6f77616e636044820152606560f81b6064820152608490fd5b90508581813d8311610b69575b610b5a8183611eb6565b81010312610a1657518b61068c565b503d610b50565b88513d8c823e3d90fd5b815162461bcd60e51b8152602081850152601960248201527f4c656e6465722063616e6e6f7420626520626f72726f776572000000000000006044820152606490fd5b606490602084519162461bcd60e51b8352820152601860248201527f496e76616c696420626f72726f776572206164647265737300000000000000006044820152fd5b606490602084519162461bcd60e51b8352820152601a60248201527f4c6f616e206e6f7420726561647920746f2061637469766174650000000000006044820152fd5b634e487b7160e01b835260218252602483fd5b50503461018857816003193601126101885751908152602090f35b50503461018857816003193601126101885760055490516001600160a01b039091168152602090f35b5050346101885781600319360112610188576101809060018060a01b038060055416918160065416918060075416908060085416600954600a54600b549184600c54169385600d541695600e541696600f54986010549a81519c8d5260208d01528b015260608a0152608089015260a088015260c087015260e0860152610100850152610120840152610140830152610160820152f35b90503461057a578160031936011261057a5781602093610d4f611c71565b9235815260018552209060018060a01b03165f52825260ff815f20541690519015158152f35b90503461057a578260031936011261057a57610d8f611ed8565b60ff815460a01c16600681101561102457610fe2577fc60d7a62d8843f2b14bc63f2a5240b187980481ad8c001a3caf4916aef3f667e835260209060018252828420335f52825260ff835f20541615610fb25760065460055460095485516323b872dd60e01b81526001600160a01b039283168582019081523060208201526040810192909252879493909186918391829003606001908290889087165af18015610f7357610f95575b5042601055815460ff60a01b198116600160a01b178355600654908216908216813b1561040557849160648392895194859384926377ff76e760e01b8452308a85015260248401528160448401525af1908115610f73578491610f81575b50508060025416803b15610f7d5783809160248851809481936307cbcb8560e21b835230898401525af1908115610f73578491610f5f575b50506002541690813b1561057a578291604483928751948593849263a956239b60e01b84523090840152600160248401525af18015610f5557610f41575b50507f9e71d2fb732e68272b7e74ecfd14638673c1d77e19a5d390a3ffff054d57c44b916009549051908152a16001815580f35b610f4a90611e8e565b61057a57825f610f0d565b84513d84823e3d90fd5b610f6890611e8e565b61057a57825f610ecf565b86513d86823e3d90fd5b8380fd5b610f8a90611e8e565b61057a57825f610e97565b610fab90853d871161044e5761043e8183611eb6565b505f610e39565b915162461bcd60e51b815291820152600c60248201526b496e76616c696420526f6c6560a01b6044820152606490fd5b6020606492519162461bcd60e51b8352820152601b60248201527f4c6f616e206e6f7420696e20637265617461626c6520737461746500000000006044820152fd5b634e487b7160e01b845260218252602484fd5b50503461018857816003193601126101885760035490516001600160a01b039091168152602090f35b5050346101885781600319360112610188576020906101a86108d86120f5565b838334610188576020928360031936011261057a576001600160a01b03813581811690819003610a1657602486926008541693855194859384926370a0823160e01b84528301525afa92831561110c57926110dd575b5051908152f35b9091508281813d8311611105575b6110f58183611eb6565b81010312610a16575190836110d6565b503d6110eb565b8251903d90823e3d90fd5b505034610188578160031936011261018857602090600b549051908152f35b505034610188578160031936011261018857602090600a549051908152f35b90503461057a578260031936011261057a5761116f611ed8565b600e546001600160a01b039190821633036116d65760ff815460a01c1660068110156116c357600203611669576111a76108d86120f5565b916111b06120f5565b830392808411611656576007548551636eb1769f60e11b815233858201908152306020828101919091529692851691908790829081906040010381855afa801561164c5784918a9161161b575b50106115c45786516370a0823160e01b808252338783015293908781602481865afa9081156115ba578a9161158d575b50106115385760055487516323b872dd60e01b8152338782019081529186166001600160a01b031660208301526040820184905289969594939290918891839182908a90829060600103925af180156114fd5761151b575b508260035416803b156103ed5787516356f78a1d60e01b8152308682019081523360208201529091879183919082908490829060400103925af19081156114fd578691611507575b505082600854168751916363737ac960e11b8352858301528682602481845afa80156114fd57879287916114c9575b508851635d043b2960e11b8152868101918252336020830181905260408301529291839182908990829060600103925af190811561149057869161149a575b5050825460ff60a01b1916600160a21b1783556007548651918252308285015282168582602481845afa8015611490578692869161145c575b50875163a9059cbb60e01b81523386820190815260208101929092529291839182908890829060400103925af18015610f735761143f575b506113b5611f65565b6002541690813b1561057a578291604483928751948593849263a956239b60e01b8452308185015260248401525af18015610f555761142b575b50507f4002dba848920f438092e08090cfb5fc47144c22704268b402c9553a1b5adfe69161141e6108d86120f5565b9051908152a16001815580f35b61143490611e8e565b61057a57825f6113ef565b61145590853d871161044e5761043e8183611eb6565b505f6113ac565b92809296508391503d8311611489575b6114768183611eb6565b81010312610a1657518693859185611374565b503d61146c565b87513d87823e3d90fd5b90809295503d83116114c2575b6114b18183611eb6565b81010312610a16578592845f61133b565b503d6114a7565b92809297508391503d83116114f6575b6114e38183611eb6565b81010312610a16575187948691866112fc565b503d6114d9565b88513d88823e3d90fd5b61151090611e8e565b61040557845f6112cd565b61153190873d891161044e5761043e8183611eb6565b505f611285565b865162461bcd60e51b8152808601879052602960248201527f496e73756666696369656e7420746f6b656e2062616c616e636520666f72207260448201526832b830bcb6b2b73a1760b91b6064820152608490fd5b90508781813d83116115b3575b6115a48183611eb6565b81010312610a1657515f61122d565b503d61159a565b89513d8c823e3d90fd5b865162461bcd60e51b8152808601879052602b60248201527f496e73756666696369656e7420746f6b656e20616c6c6f77616e636520666f7260448201526a103932b830bcb6b2b73a1760a91b6064820152608490fd5b809250888092503d8311611645575b6116348183611eb6565b81010312610a16578390515f6111fd565b503d61162a565b88513d8b823e3d90fd5b634e487b7160e01b865260118352602486fd5b608490602084519162461bcd60e51b8352820152602e60248201527f4c6f616e206d7573742062652061637469766520746f2070726f63656564207760448201526d34ba34103932b830bcb6b2b73a1760911b6064820152fd5b634e487b7160e01b855260218252602485fd5b608490602084519162461bcd60e51b8352820152602960248201527f4f6e6c792074686520626f72726f7765722063616e20696e697469617465207260448201526832b830bcb6b2b73a1760b91b6064820152fd5b90503461057a578260031936011261057a57805460ff8160a01c166006811015611a6057600203611a2857611765600f54600b5490611f44565b421015611770578380f35b60ff60a01b1916600360a01b1781556002546001600160a01b0392908316803b1561040557815185816044818363a956239b60e01b96878352308a840152600360248401525af18015611a1e57611a07575b5090849291846008541685600e541683516370a0823160e01b815281868201526020928382602481845afa9182156119cb5788926119d5575b508551916363737ac960e11b8352878301528382602481845afa9182156119cb578892611999575b506005548651635d043b2960e11b81528089019384526001600160a01b03918b168216602085015293166040830152839183919082908a90829060600103925af180156104095761196a575b50508460035416856005541690803b156103ed57835163389e006760e11b8152308682019081526001600160a01b039093166020840152918691839182908490829060400103925af180156103e357908591611956575b50506118d0611f65565b846002541692833b1561040557825191825230908201908152600560208201529092849184919082908490829060400103925af19081156103c15750611942575b5050600e54167ff4e5cf42cbb1d0c6c91e16d925349feb6c5d970652f6ec77b1ff1262f7284cd58280a25f80808380f35b61194b90611e8e565b61018857815f611911565b61195f90611e8e565b610f7d57835f6118c6565b90809295503d8311611992575b6119818183611eb6565b81010312610a165784925f8061186f565b503d611977565b84809299508193503d83116119c4575b6119b38183611eb6565b81010312610a165751889683611823565b503d6119a9565b86513d8a823e3d90fd5b975090508287813d8111611a00575b6119ee8183611eb6565b81010312610a1657889651905f6117fb565b503d6119e4565b611a15909591939295611e8e565b9390915f6117c2565b83513d88823e3d90fd5b506020606492519162461bcd60e51b835282015260126024820152714c6f616e206973206e6f742061637469766560701b6044820152fd5b634e487b7160e01b855260218352602485fd5b838334610188578060031936011261018857611a8d611c71565b90336001600160a01b03831603611aaa5750610576919235611e19565b5163334bd91960e11b81528390fd5b9190503461057a578060031936011261057a576105769135611ade6001610560611c71565b611da0565b5050346101885781600319360112610188576020906010549051908152f35b90503461057a57602036600319011261057a57816020936001923581528285522001549051908152f35b505034610188578160031936011261018857600e5490516001600160a01b039091168152602090f35b90503461057a578260031936011261057a575490516001600160a01b03909116815260209150f35b505034610188578160031936011261018857602090517f2344277e405079ec07749d374ba0b5862a4e45a6a05ac889dbb4a991c6f9354d8152f35b50503461018857816003193601126101885760075490516001600160a01b039091168152602090f35b90503461057a57602036600319011261057a57359063ffffffff60e01b821680920361057a5760209250637965db0b60e01b8214918215611c26575b50519015158152f35b6301ffc9a760e01b1491505f611c1d565b849034610188578160031936011261018857807fc60d7a62d8843f2b14bc63f2a5240b187980481ad8c001a3caf4916aef3f667e60209252f35b602435906001600160a01b0382168203610a1657565b919060208301926006821015611c9a5752565b634e487b7160e01b5f52602160045260245ffd5b805f52600160205260405f20335f5260205260ff60405f20541615611cd05750565b6044906040519063e2517d3f60e01b82523360048301526024820152fd5b6001600160a01b03165f8181527f37796693c9136991966ecabeb225dddf75f7ae82d42c98571afc1843b5b26acd60205260408120549091907f2344277e405079ec07749d374ba0b5862a4e45a6a05ac889dbb4a991c6f9354d9060ff16611d9b5780835260016020526040832082845260205260408320600160ff198254161790557f2f8788117e7eff1d82e926ec794901d17c78024a50270940304540a733656f0d339380a4600190565b505090565b905f918083526001602052604083209160018060a01b03169182845260205260ff604084205416155f14611d9b5780835260016020526040832082845260205260408320600160ff198254161790557f2f8788117e7eff1d82e926ec794901d17c78024a50270940304540a733656f0d339380a4600190565b905f918083526001602052604083209160018060a01b03169182845260205260ff6040842054165f14611d9b578083526001602052604083208284526020526040832060ff1981541690557ff6391f5c32d9c69d2a47ea670b442974b53935d1edc7fd64eb21e047a839171b339380a4600190565b67ffffffffffffffff8111611ea257604052565b634e487b7160e01b5f52604160045260245ffd5b90601f8019910116810190811067ffffffffffffffff821117611ea257604052565b60025f5414611ee75760025f55565b60405162461bcd60e51b815260206004820152601f60248201527f5265656e7472616e637947756172643a207265656e7472616e742063616c6c006044820152606490fd5b90816020910312610a1657518015158103610a165790565b91908201809211611f5157565b634e487b7160e01b5f52601160045260245ffd5b6004805460ff60a01b1916600560a01b1781556002545f916001600160a01b0391821691823b15610f7d576040928351858160248183637e72c7d760e01b96878352308a8401525af180156120d8576120e2575b508160035416803b156103ed5785809160248751809481936338e270ed60e01b8352308a8401525af180156120d8579086916120c4575b50508183541690813b156103ed5785916024839287519485938492835230898401525af180156120ba579085916120a6575b50506002541690813b15610f7d57825163a956239b60e01b815230918101918252600560208301529291849184919082908490829060400103925af19081156103c15750612092575b50807f409fced1b85ae32a29fb1e18894d8361a5f2653dc27adf7102d86175c2901d7c91a1565b61209c8291611e8e565b6103be575f61206b565b6120af90611e8e565b610f7d57835f612022565b84513d87823e3d90fd5b6120cd90611e8e565b61040557845f611ff0565b85513d88823e3d90fd5b6120ee90959195611e8e565b935f611fb9565b600d54600954600a5460405163efdd7c0760e01b81526004810192909252602482015290602090829060449082906001600160a01b03165afa90811561216d575f9161213f575090565b906020823d8211612165575b8161215860209383611eb6565b810103126103be57505190565b3d915061214b565b6040513d5f823e3d90fdfea26469706673582212209afc0848dd5d0fe89978afd1660e0075da118aa4633c911c8b6c5ce3084a6f0564736f6c6343000814003360c080604052346200036857620015af80380380916200002082856200036c565b833981019060608183031262000368578051916001600160a01b0383168303620003685760208281015190926001600160401b03918281116200036857836200006b918301620003ac565b9260408201518381116200036857620000859201620003ac565b825182811162000273576003918254916001958684811c941680156200035d575b8885101462000349578190601f94858111620002f6575b50889085831160011462000293575f9262000287575b50505f1982861b1c191690861b1783555b8051938411620002735760049586548681811c9116801562000268575b8282101462000255578381116200020d575b5080928511600114620001a357509383949184925f9562000197575b50501b925f19911b1c19161790555b620001498162000414565b90156200018e575b60a0526080526040516110d59081620004da823960805181818161050d01528181610ada01528181610c6b0152610e11015260a051816105520152f35b50601262000151565b015193505f806200012f565b92919084601f198116885f52855f20955f905b89838310620001f25750505010620001d8575b50505050811b0190556200013e565b01519060f8845f19921b161c191690555f808080620001c9565b858701518955909701969485019488935090810190620001b6565b875f52815f208480880160051c8201928489106200024b575b0160051c019087905b8281106200023f57505062000113565b5f81550187906200022f565b9250819262000226565b602288634e487b7160e01b5f525260245ffd5b90607f169062000101565b634e487b7160e01b5f52604160045260245ffd5b015190505f80620000d3565b90889350601f19831691875f528a5f20925f5b8c828210620002df5750508411620002c7575b505050811b018355620000e4565b01515f1983881b60f8161c191690555f8080620002b9565b8385015186558c97909501949384019301620002a6565b909150855f52885f208580850160051c8201928b86106200033f575b918a91869594930160051c01915b82811062000330575050620000bd565b5f81558594508a910162000320565b9250819262000312565b634e487b7160e01b5f52602260045260245ffd5b93607f1693620000a6565b5f80fd5b601f909101601f19168101906001600160401b038211908210176200027357604052565b6001600160401b0381116200027357601f01601f191660200190565b919080601f840112156200036857825190620003c88262000390565b91620003d860405193846200036c565b80835260209182828701011162000368575f5b818110620004005750825f9394955001015290565b8581018301518482018401528201620003eb565b6040805163313ce56760e01b60208201908152600482529293929181016001600160401b038111828210176200027357604052515f9384928392916001600160a01b03165afa3d15620004d0573d906200046e8262000390565b916200047e60405193846200036c565b82523d84602084013e5b80620004c3575b6200049a575b508190565b602081805181010312620004bf576020015160ff811162000495576001925060ff1690565b8280fd5b506020815110156200048f565b6060906200048856fe60406080815260049081361015610014575f80fd5b5f90813560e01c92836301e1d114146107ac57836306fdde03146106b957836307a2d13a146104f4578363095ea7b3146106115783630a28a477146105f257836318160ddd146105d457836323b872dd14610598578363313ce5671461053c57836338d52e0f146104f9578363402d267d146101fc5783634cdad506146104f45783636e553f65146104c157836370a08231146104a157836394bf804d1461046a57836395d89b4114610367578363a9059cbb14610337578363b3d7f6b914610318578363b460af941461028c578363ba0876521461020157508263c63d75b6146101fc578263c6e6f59214610135578263ce96cb77146101c5578263d905777e14610185578263dd62ed3e1461013a57505063ef8b30f714610135575f80fd5b6108bf565b3461018157806003193601126101815780602092610156610839565b61015e61084f565b6001600160a01b0391821683526001865283832091168252845220549051908152f35b5080fd5b34610181576020366003190112610181576020906101be6101a4610839565b6001600160a01b03165f9081526020819052604090205490565b9051908152f35b34610181576020366003190112610181576020916101be9082906001600160a01b036101ef610839565b1681528085522054610be6565b610865565b82346102895782906102123661088a565b6001600160a01b038116845260208490529590922054909493908086116102545750508361024e91610245602096610be6565b94859133610d29565b51908152f35b9251632e52afbb60e21b81526001600160a01b0390941690840190815260208101949094525060408301529081906060010390fd5b80fd5b829034610181576102c19183916102a23661088a565b6001600160a01b03811685526020859052969093205490959490610be6565b8086116102e357505061024e90846102da602096610b4e565b94859233610d29565b9251633fa733bb60e21b81526001600160a01b0390941690840190815260208101949094525060408301529081906060010390fd5b913461028957602036600319011261028957506101be60209235610bbb565b5034610181578060031936011261018157602090610360610356610839565b6024359033610913565b5160018152f35b925034610181578160031936011261018157805191809380549160019083821c92828516948515610460575b602095868610811461044d5785895290811561042957506001146103d1575b6103cd87876103c3828c03836108dd565b51918291826107c8565b0390f35b81529295507f8a35acfbc15ff81a39ae7d344fd709f28e8600b4aa8c65c6b64bfe7fe36bd19b5b82841061041657505050826103cd946103c392820101945f806103b2565b80548685018801529286019281016103f8565b60ff19168887015250505050151560051b83010192506103c3826103cd5f806103b2565b634e487b7160e01b845260228352602484fd5b93607f1693610393565b3461049d578160031936011261049d5760209250359061024e61048b61084f565b9261049581610bbb565b809433610c11565b8280fd5b5034610181576020366003190112610181576020906101be6101a4610839565b3461049d578160031936011261049d5760209250359061024e6104e261084f565b6104eb84610b90565b93849133610c11565b61080f565b5034610181578160031936011261018157517f00000000000000000000000000000000000000000000000000000000000000006001600160a01b03168152602090f35b92503461018157816003193601126101815760ff7f0000000000000000000000000000000000000000000000000000000000000000169160ff8311610585576020838351908152f35b634e487b7160e01b815260118452602490fd5b5034610181576060366003190112610181576020906103606105b8610839565b6105c061084f565b604435916105cf8333836109ee565b610913565b50346101815781600319360112610181576020906002549051908152f35b913461028957602036600319011261028957506101be60209235610b4e565b3461049d578160031936011261049d57610629610839565b6024359033156106a2576001600160a01b031691821561068b57508083602095338152600187528181208582528752205582519081527f8c5be1e5ebec7d5bd14f71427d1e84f3dd0314c0f7b2291e5b200ac8c7c3b925843392a35160018152f35b8351634a1406b160e11b8152908101859052602490fd5b835163e602df0560e01b8152808401869052602490fd5b903461049d578260031936011261049d57805191836003549060019082821c9282811680156107a2575b602095868610821461078f575084885290811561076d5750600114610714575b6103cd86866103c3828b03836108dd565b929550600383527fc2575a0e9e593c00f959f8c92f12db2869c3395a3b0502d05e2516446f71f85b5b82841061075a57505050826103cd946103c3928201019486610703565b805486850188015292860192810161073d565b60ff191687860152505050151560051b83010192506103c3826103cd86610703565b634e487b7160e01b845260229052602483fd5b93607f16936106e3565b50346101815781600319360112610181576020906101be610abf565b602080825282518183018190529093925f5b8281106107fb57505060409293505f838284010152601f8019910116010190565b8181018601518482016040015285016107da565b3461083557602036600319011261083557602061082d600435610be6565b604051908152f35b5f80fd5b600435906001600160a01b038216820361083557565b602435906001600160a01b038216820361083557565b346108355760203660031901126108355761087e610839565b5060206040515f198152f35b606090600319011261083557600435906001600160a01b03906024358281168103610835579160443590811681036108355790565b3461083557602036600319011261083557602061082d600435610b90565b90601f8019910116810190811067ffffffffffffffff8211176108ff57604052565b634e487b7160e01b5f52604160045260245ffd5b916001600160a01b038084169283156109d657169283156109be575f908382528160205260408220549083821061098c575091604082827fddf252ad1be2c89b69c2b068fc378daa952ba7f163c4a11628f55a4df523b3ef958760209652828652038282205586815220818154019055604051908152a3565b60405163391434e360e21b81526001600160a01b03919091166004820152602481019190915260448101839052606490fd5b60405163ec442f0560e01b81525f6004820152602490fd5b604051634b637e8f60e11b81525f6004820152602490fd5b9160018060a01b03809316915f9383855260016020526040938486209183169182875260205284862054925f198403610a2b575b50505050505050565b848410610a8f57508015610a77578115610a5f5785526001602052838520908552602052039120555f808080808080610a22565b8451634a1406b160e11b815260048101879052602490fd5b845163e602df0560e01b815260048101879052602490fd5b8551637dc7a0d960e11b81526001600160a01b039190911660048201526024810184905260448101859052606490fd5b6040516370a0823160e01b81523060048201526020816024817f00000000000000000000000000000000000000000000000000000000000000006001600160a01b03165afa908115610b43575f91610b15575090565b906020823d8211610b3b575b81610b2e602093836108dd565b8101031261028957505190565b3d9150610b21565b6040513d5f823e3d90fd5b60025460018101809111610b7c57610b64610abf565b9060018201809211610b7c57610b7992610fce565b90565b634e487b7160e01b5f52601160045260245ffd5b60025460018101809111610b7c57610ba6610abf565b9060018201809211610b7c57610b799261100c565b610bc3610abf565b60018101809111610b7c576002549060018201809211610b7c57610b7992610fce565b610bee610abf565b60018101809111610b7c576002549060018201809211610b7c57610b799261100c565b604080516323b872dd60e01b60208201526001600160a01b0392831660248201819052306044830152606480830187905282529495939192919060a081019067ffffffffffffffff8211818310176108ff57610c8f9185527f0000000000000000000000000000000000000000000000000000000000000000610e98565b16938415610d125760025492808401809411610b7c577fdcbc1c05240f31ff3ad067ef1ee35ce4997762752e3a095284754544f4c709d793600255855f525f602052825f20818154019055855f7fddf252ad1be2c89b69c2b068fc378daa952ba7f163c4a11628f55a4df523b3ef60208651858152a382519182526020820152a3565b815163ec442f0560e01b81525f6004820152602490fd5b6001600160a01b038084169590948583169493909282888703610e87575b505086156109d6575f95878752866020526040948588205490848210610e5657508390898952886020520385882055826002540360025586887fddf252ad1be2c89b69c2b068fc378daa952ba7f163c4a11628f55a4df523b3ef60208851878152a384519163a9059cbb60e01b6020840152169586602483015283604483015260448252608082019082821067ffffffffffffffff831117610e42575084939291610e35917ffbde797d201c681b91056529119e0b02407c7bb96a4a2c75c01fc9667232c8db96527f0000000000000000000000000000000000000000000000000000000000000000610e98565b82519182526020820152a4565b634e487b7160e01b81526041600452602490fd5b865163391434e360e21b81526001600160a01b03919091166004820152602481019190915260448101849052606490fd5b610e9191866109ee565b5f82610d47565b60018060a01b0316905f80826020829451910182865af13d15610f5f573d9067ffffffffffffffff8211610f4b5790610ef39160405191610ee36020601f19601f84011601846108dd565b82523d84602084013e5b84610f6b565b908151918215159283610f23575b505050610f0b5750565b60249060405190635274afe760e01b82526004820152fd5b81929350906020918101031261018157602001519081159182150361028957505f8080610f01565b634e487b7160e01b83526041600452602483fd5b610ef390606090610eed565b90610f925750805115610f8057805190602001fd5b604051630a12f52160e11b8152600490fd5b81511580610fc5575b610fa3575090565b604051639996b31560e01b81526001600160a01b039091166004820152602490fd5b50803b15610f9b565b9190610fdb82828561100c565b928215610ff85709610fea5790565b60018101809111610b7c5790565b634e487b7160e01b5f52601260045260245ffd5b9091828202915f1984820993838086109503948086039514611091578483111561107f57829109815f038216809204600280826003021880830282030280830282030280830282030280830282030280830282030280920290030293600183805f03040190848311900302920304170290565b60405163227bc15360e01b8152600490fd5b505080925015610ff857049056fea2646970667358221220ab4d930c3090c8fa46a7c66d777c11dcbf8296e506333f4aa381d962183e27d564736f6c63430008140033a2646970667358221220725fd1f8132250c990700ed396913f75ae25d68e7f9b15558b8aa9165e72b22064736f6c63430008140033",
			"opcodes": "PUSH1 0x80 CALLVALUE PUSH2 0x1B3 JUMPI PUSH1 0x1F PUSH2 0x5A31 CODESIZE DUP2 SWAP1 SUB SWAP2 DUP3 ADD PUSH1 0x1F NOT AND DUP4 ADD SWAP3 SWAP2 SWAP1 PUSH1 0x1 PUSH1 0x1 PUSH1 0x40 SHL SUB DUP5 GT DUP4 DUP6 LT OR PUSH2 0x1B7 JUMPI DUP2 PUSH1 0x60 SWAP3 DUP5 SWAP3 PUSH1 0x40 SWAP7 DUP8 MSTORE DUP4 CODECOPY DUP2 ADD SUB SLT PUSH2 0x1B3 JUMPI PUSH2 0x4B DUP2 PUSH2 0x1CB JUMP JUMPDEST SWAP1 PUSH2 0x63 DUP4 PUSH2 0x5C PUSH1 0x20 DUP5 ADD PUSH2 0x1CB JUMP JUMPDEST SWAP3 ADD PUSH2 0x1CB JUMP JUMPDEST SWAP2 PUSH1 0x1 PUSH1 0x1 PUSH1 0xA0 SHL SUB SWAP1 DUP2 AND SWAP2 DUP3 ISZERO PUSH2 0x15E JUMPI DUP2 AND SWAP3 DUP4 ISZERO PUSH2 0x109 JUMPI AND SWAP2 DUP3 ISZERO PUSH2 0xB5 JUMPI PUSH1 0x1 DUP1 PUSH1 0xA0 SHL SUB NOT SWAP2 DUP3 PUSH0 SLOAD AND OR PUSH0 SSTORE DUP2 PUSH1 0x1 SLOAD AND OR PUSH1 0x1 SSTORE PUSH1 0x2 SLOAD AND OR PUSH1 0x2 SSTORE MLOAD PUSH2 0x5851 SWAP1 DUP2 PUSH2 0x1E0 DUP3 CODECOPY RETURN JUMPDEST DUP4 MLOAD PUSH3 0x461BCD PUSH1 0xE5 SHL DUP2 MSTORE PUSH1 0x20 PUSH1 0x4 DUP3 ADD MSTORE PUSH1 0x27 PUSH1 0x24 DUP3 ADD MSTORE PUSH32 0x5661756C744D616E616765722063616E6E6F7420626520746865207A65726F20 PUSH1 0x44 DUP3 ADD MSTORE PUSH7 0x61646472657373 PUSH1 0xC8 SHL PUSH1 0x64 DUP3 ADD MSTORE PUSH1 0x84 SWAP1 REVERT JUMPDEST DUP5 MLOAD PUSH3 0x461BCD PUSH1 0xE5 SHL DUP2 MSTORE PUSH1 0x20 PUSH1 0x4 DUP3 ADD MSTORE PUSH1 0x28 PUSH1 0x24 DUP3 ADD MSTORE PUSH32 0x5265776172644D616E616765722063616E6E6F7420626520746865207A65726F PUSH1 0x44 DUP3 ADD MSTORE PUSH8 0x2061646472657373 PUSH1 0xC0 SHL PUSH1 0x64 DUP3 ADD MSTORE PUSH1 0x84 SWAP1 REVERT JUMPDEST DUP5 MLOAD PUSH3 0x461BCD PUSH1 0xE5 SHL DUP2 MSTORE PUSH1 0x20 PUSH1 0x4 DUP3 ADD MSTORE PUSH1 0x28 PUSH1 0x24 DUP3 ADD MSTORE PUSH32 0x506F6F6C4F7267616E697A65722063616E6E6F7420626520746865207A65726F PUSH1 0x44 DUP3 ADD MSTORE PUSH8 0x2061646472657373 PUSH1 0xC0 SHL PUSH1 0x64 DUP3 ADD MSTORE PUSH1 0x84 SWAP1 REVERT JUMPDEST PUSH0 DUP1 REVERT JUMPDEST PUSH4 0x4E487B71 PUSH1 0xE0 SHL PUSH0 MSTORE PUSH1 0x41 PUSH1 0x4 MSTORE PUSH1 0x24 PUSH0 REVERT JUMPDEST MLOAD SWAP1 PUSH1 0x1 PUSH1 0x1 PUSH1 0xA0 SHL SUB DUP3 AND DUP3 SUB PUSH2 0x1B3 JUMPI JUMP INVALID PUSH1 0x80 PUSH1 0x40 DUP2 DUP2 MSTORE PUSH1 0x4 CALLDATASIZE LT ISZERO PUSH3 0x14 JUMPI PUSH0 DUP1 REVERT JUMPDEST PUSH0 SWAP2 DUP3 CALLDATALOAD PUSH1 0xE0 SHR SWAP1 DUP2 PUSH4 0xF4EF8A6 EQ PUSH3 0x1A3 JUMPI POP DUP1 PUSH4 0x8A4ADF24 EQ PUSH3 0x179 JUMPI DUP1 PUSH4 0x8C41FD09 EQ PUSH3 0xC6 JUMPI DUP1 PUSH4 0xA622EE7C EQ PUSH3 0x88 JUMPI PUSH4 0xC51B9507 EQ PUSH3 0x5C JUMPI PUSH0 DUP1 REVERT JUMPDEST CALLVALUE PUSH3 0x84 JUMPI DUP2 PUSH1 0x3 NOT CALLDATASIZE ADD SLT PUSH3 0x84 JUMPI SWAP1 SLOAD SWAP1 MLOAD PUSH1 0x1 PUSH1 0x1 PUSH1 0xA0 SHL SUB SWAP1 SWAP2 AND DUP2 MSTORE PUSH1 0x20 SWAP1 RETURN JUMPDEST POP DUP1 REVERT JUMPDEST POP CALLVALUE PUSH3 0x84 JUMPI PUSH1 0x20 CALLDATASIZE PUSH1 0x3 NOT ADD SLT PUSH3 0x84 JUMPI PUSH1 0x20 SWAP2 PUSH1 0x1 PUSH1 0x1 PUSH1 0xA0 SHL SUB SWAP1 DUP3 SWAP1 DUP3 PUSH3 0xB5 PUSH3 0x1CA JUMP JUMPDEST AND DUP2 MSTORE PUSH1 0x3 DUP6 MSTORE KECCAK256 SLOAD AND SWAP1 MLOAD SWAP1 DUP2 MSTORE RETURN JUMPDEST POP CALLVALUE PUSH3 0x84 JUMPI PUSH2 0x140 CALLDATASIZE PUSH1 0x3 NOT ADD SLT PUSH3 0x84 JUMPI PUSH3 0xE5 PUSH3 0x1CA JUMP JUMPDEST PUSH1 0x1 PUSH1 0x1 PUSH1 0xA0 SHL SUB SWAP1 PUSH1 0x24 CALLDATALOAD SWAP1 DUP3 DUP3 AND DUP3 SUB PUSH3 0x175 JUMPI PUSH1 0x44 CALLDATALOAD SWAP2 DUP4 DUP4 AND DUP4 SUB PUSH3 0x171 JUMPI PUSH1 0x64 CALLDATALOAD SWAP3 DUP5 DUP5 AND DUP5 SUB PUSH3 0x16D JUMPI PUSH1 0xE4 CALLDATALOAD SWAP2 DUP6 DUP4 AND DUP4 SUB PUSH3 0x169 JUMPI PUSH2 0x104 CALLDATALOAD SWAP4 PUSH1 0x2 DUP6 LT ISZERO PUSH3 0x165 JUMPI PUSH3 0x154 SWAP7 SWAP8 SWAP9 POP PUSH2 0x124 CALLDATALOAD SWAP6 PUSH1 0xC4 CALLDATALOAD SWAP4 PUSH1 0xA4 CALLDATALOAD SWAP4 PUSH1 0x84 CALLDATALOAD SWAP4 PUSH3 0x312 JUMP JUMPDEST DUP4 MLOAD SWAP2 DUP4 AND DUP3 MSTORE SWAP1 SWAP2 AND PUSH1 0x20 DUP3 ADD MSTORE RETURN JUMPDEST DUP9 DUP1 REVERT JUMPDEST DUP8 DUP1 REVERT JUMPDEST DUP7 DUP1 REVERT JUMPDEST DUP6 DUP1 REVERT JUMPDEST DUP5 DUP1 REVERT JUMPDEST POP CALLVALUE PUSH3 0x84 JUMPI DUP2 PUSH1 0x3 NOT CALLDATASIZE ADD SLT PUSH3 0x84 JUMPI PUSH1 0x2 SLOAD SWAP1 MLOAD PUSH1 0x1 PUSH1 0x1 PUSH1 0xA0 SHL SUB SWAP1 SWAP2 AND DUP2 MSTORE PUSH1 0x20 SWAP1 RETURN JUMPDEST DUP4 SWAP1 CALLVALUE PUSH3 0x84 JUMPI DUP2 PUSH1 0x3 NOT CALLDATASIZE ADD SLT PUSH3 0x84 JUMPI PUSH1 0x1 SLOAD PUSH1 0x1 PUSH1 0x1 PUSH1 0xA0 SHL SUB AND DUP2 MSTORE PUSH1 0x20 SWAP1 RETURN JUMPDEST PUSH1 0x4 CALLDATALOAD SWAP1 PUSH1 0x1 PUSH1 0x1 PUSH1 0xA0 SHL SUB DUP3 AND DUP3 SUB PUSH3 0x1E1 JUMPI JUMP JUMPDEST PUSH0 DUP1 REVERT JUMPDEST PUSH8 0xFFFFFFFFFFFFFFFF DUP2 GT PUSH3 0x1FA JUMPI PUSH1 0x40 MSTORE JUMP JUMPDEST PUSH4 0x4E487B71 PUSH1 0xE0 SHL PUSH0 MSTORE PUSH1 0x41 PUSH1 0x4 MSTORE PUSH1 0x24 PUSH0 REVERT JUMPDEST SWAP1 PUSH1 0x1F DUP1 NOT SWAP2 ADD AND DUP2 ADD SWAP1 DUP2 LT PUSH8 0xFFFFFFFFFFFFFFFF DUP3 GT OR PUSH3 0x1FA JUMPI PUSH1 0x40 MSTORE JUMP JUMPDEST PUSH0 JUMPDEST DUP4 DUP2 LT PUSH3 0x243 JUMPI POP POP PUSH0 SWAP2 ADD MSTORE JUMP JUMPDEST DUP2 DUP2 ADD MLOAD DUP4 DUP3 ADD MSTORE PUSH1 0x20 ADD PUSH3 0x233 JUMP JUMPDEST PUSH1 0x20 DUP2 DUP4 SUB SLT PUSH3 0x1E1 JUMPI DUP1 MLOAD PUSH8 0xFFFFFFFFFFFFFFFF SWAP2 DUP3 DUP3 GT PUSH3 0x1E1 JUMPI ADD SWAP1 DUP3 PUSH1 0x1F DUP4 ADD SLT ISZERO PUSH3 0x1E1 JUMPI DUP2 MLOAD SWAP1 DUP2 GT PUSH3 0x1FA JUMPI PUSH1 0x40 MLOAD SWAP3 PUSH3 0x2A5 PUSH1 0x1F DUP4 ADD PUSH1 0x1F NOT AND PUSH1 0x20 ADD DUP6 PUSH3 0x20E JUMP JUMPDEST DUP2 DUP5 MSTORE PUSH1 0x20 DUP3 DUP5 ADD ADD GT PUSH3 0x1E1 JUMPI PUSH3 0x2C6 SWAP2 PUSH1 0x20 DUP1 DUP6 ADD SWAP2 ADD PUSH3 0x231 JUMP JUMPDEST SWAP1 JUMP JUMPDEST SWAP1 PUSH1 0x20 SWAP2 PUSH3 0x2E4 DUP2 MLOAD DUP1 SWAP3 DUP2 DUP6 MSTORE DUP6 DUP1 DUP7 ADD SWAP2 ADD PUSH3 0x231 JUMP JUMPDEST PUSH1 0x1F ADD PUSH1 0x1F NOT AND ADD ADD SWAP1 JUMP JUMPDEST SWAP1 PUSH1 0x2 DUP3 LT ISZERO PUSH3 0x2FE JUMPI MSTORE JUMP JUMPDEST PUSH4 0x4E487B71 PUSH1 0xE0 SHL PUSH0 MSTORE PUSH1 0x21 PUSH1 0x4 MSTORE PUSH1 0x24 PUSH0 REVERT JUMPDEST SWAP7 SWAP5 SWAP2 SWAP8 SWAP6 SWAP3 SWAP10 SWAP9 SWAP10 SWAP4 SWAP1 SWAP4 PUSH0 SWAP6 PUSH1 0x1 DUP1 PUSH1 0xA0 SHL SUB DUP10 AND ISZERO ISZERO DUP1 PUSH3 0xAEB JUMPI JUMPDEST ISZERO PUSH3 0xAB2 JUMPI PUSH1 0x40 MLOAD PUSH4 0x95D89B41 PUSH1 0xE0 SHL DUP2 MSTORE SWAP12 DUP8 DUP14 PUSH1 0x4 DUP2 PUSH1 0x1 PUSH1 0x1 PUSH1 0xA0 SHL SUB DUP16 AND GAS STATICCALL SWAP13 DUP14 ISZERO PUSH3 0xAA7 JUMPI PUSH1 0x22 SWAP14 PUSH3 0x3A8 SWAP2 DUP11 SWAP2 PUSH3 0xA89 JUMPI JUMPDEST POP PUSH1 0x40 MLOAD SWAP15 DUP16 DUP1 SWAP3 PUSH2 0x2A2B PUSH1 0xF1 SHL PUSH1 0x20 DUP4 ADD MSTORE PUSH3 0x397 DUP2 MLOAD DUP1 SWAP3 PUSH1 0x20 DUP7 DUP7 ADD SWAP2 ADD PUSH3 0x231 JUMP JUMPDEST DUP2 ADD SUB PUSH1 0x2 DUP2 ADD DUP4 MSTORE ADD SWAP1 PUSH3 0x20E JUMP JUMPDEST PUSH1 0x4 DUP9 DUP13 PUSH1 0x40 MLOAD SWAP3 DUP4 DUP1 SWAP3 PUSH4 0x95D89B41 PUSH1 0xE0 SHL DUP3 MSTORE PUSH1 0x1 DUP1 PUSH1 0xA0 SHL SUB AND GAS STATICCALL SWAP1 DUP2 ISZERO PUSH3 0x951 JUMPI DUP10 SWAP2 PUSH3 0xA62 JUMPI JUMPDEST POP PUSH3 0x41C PUSH1 0x2A PUSH1 0x40 MLOAD DUP1 SWAP4 PUSH10 0x151D5B1A5855985D5B1D PUSH1 0xB2 SHL PUSH1 0x20 DUP4 ADD MSTORE PUSH3 0x40B DUP2 MLOAD DUP1 SWAP3 PUSH1 0x20 DUP7 DUP7 ADD SWAP2 ADD PUSH3 0x231 JUMP JUMPDEST DUP2 ADD SUB PUSH1 0xA DUP2 ADD DUP5 MSTORE ADD DUP3 PUSH3 0x20E JUMP JUMPDEST DUP9 SWAP14 PUSH1 0x2 DUP12 LT ISZERO PUSH3 0xA4E JUMPI DUP11 ISZERO PUSH3 0x970 JUMPI JUMPDEST POP POP DUP9 PUSH3 0x69F JUMPI POP DUP7 SLOAD PUSH1 0x2 SLOAD PUSH1 0x1 SLOAD PUSH1 0x40 MLOAD SWAP4 PUSH1 0x1 PUSH1 0x1 PUSH1 0xA0 SHL SUB SWAP2 DUP3 AND SWAP4 SWAP3 DUP3 AND SWAP3 SWAP1 SWAP2 AND SWAP1 PUSH8 0xFFFFFFFFFFFFFFFF PUSH2 0x2635 DUP7 ADD SWAP1 DUP2 GT SWAP1 DUP7 GT OR PUSH3 0x68B JUMPI DUP16 PUSH2 0x2635 PUSH3 0x1C38 DUP8 CODECOPY PUSH1 0x1 PUSH1 0x1 PUSH1 0xA0 SHL SUB DUP1 DUP16 AND PUSH2 0x2635 DUP9 ADD SWAP1 DUP2 MSTORE DUP13 DUP3 AND PUSH1 0x20 DUP3 ADD MSTORE DUP9 DUP3 AND PUSH1 0x40 DUP3 ADD MSTORE SWAP2 DUP2 AND PUSH1 0x60 DUP4 ADD MSTORE PUSH1 0x80 DUP3 ADD DUP10 SWAP1 MSTORE PUSH1 0xA0 DUP3 ADD DUP11 SWAP1 MSTORE PUSH1 0xC0 DUP3 ADD DUP12 SWAP1 MSTORE SWAP2 SWAP1 SWAP2 AND PUSH1 0xE0 DUP3 ADD MSTORE PUSH2 0x100 DUP2 ADD SWAP2 SWAP1 SWAP2 MSTORE PUSH2 0x120 DUP2 ADD SWAP2 SWAP1 SWAP2 MSTORE PUSH2 0x140 DUP2 ADD SWAP2 SWAP1 SWAP2 MSTORE DUP2 SWAP1 SUB PUSH2 0x160 ADD SWAP1 DUP8 CREATE SWAP9 DUP10 ISZERO PUSH3 0x680 JUMPI DUP7 SLOAD PUSH1 0x1 PUSH1 0x1 PUSH1 0xA0 SHL SUB AND SWAP6 DUP7 EXTCODESIZE ISZERO PUSH3 0x169 JUMPI PUSH1 0x40 MLOAD PUSH4 0x21BAB01 PUSH1 0xE5 SHL DUP2 MSTORE PUSH1 0x1 PUSH1 0x1 PUSH1 0xA0 SHL SUB DUP1 DUP14 AND PUSH1 0x4 DUP4 ADD MSTORE DUP1 DUP13 AND PUSH1 0x24 DUP4 ADD MSTORE PUSH1 0x44 DUP3 ADD DUP11 SWAP1 MSTORE DUP1 DUP16 AND PUSH1 0x64 DUP4 ADD MSTORE SWAP2 DUP3 AND PUSH1 0x84 DUP3 ADD MSTORE SWAP2 DUP2 AND PUSH1 0xA4 DUP4 ADD MSTORE SWAP1 SWAP2 AND PUSH1 0xC4 DUP3 ADD MSTORE PUSH1 0xE4 DUP2 ADD SWAP2 SWAP1 SWAP2 MSTORE PUSH2 0x104 DUP2 ADD SWAP2 SWAP1 SWAP2 MSTORE PUSH2 0x124 DUP2 ADD SWAP2 SWAP1 SWAP2 MSTORE SWAP1 DUP3 SWAP1 DUP3 SWAP1 PUSH2 0x164 SWAP1 DUP3 SWAP1 DUP5 SWAP1 PUSH3 0x58A PUSH2 0x144 DUP5 ADD DUP11 PUSH3 0x2F0 JUMP JUMPDEST GAS CALL DUP1 ISZERO PUSH3 0x65D JUMPI SWAP1 DUP3 SWAP2 PUSH3 0x668 JUMPI JUMPDEST POP POP DUP1 SLOAD PUSH1 0x1 PUSH1 0x1 PUSH1 0xA0 SHL SUB AND DUP1 EXTCODESIZE ISZERO PUSH3 0x84 JUMPI PUSH1 0x40 MLOAD PUSH4 0x5D102DF7 PUSH1 0xE0 SHL DUP2 MSTORE PUSH1 0x1 PUSH1 0x1 PUSH1 0xA0 SHL SUB DUP7 AND PUSH1 0x4 DUP3 ADD MSTORE SWAP1 DUP3 SWAP1 DUP3 SWAP1 PUSH1 0x24 SWAP1 DUP3 SWAP1 DUP5 SWAP1 GAS CALL DUP1 ISZERO PUSH3 0x65D JUMPI PUSH3 0x642 JUMPI JUMPDEST POP POP PUSH3 0x5F9 PUSH1 0x40 MLOAD DUP1 SWAP3 PUSH3 0x2F0 JUMP JUMPDEST PUSH1 0x1 PUSH1 0x1 PUSH1 0xA0 SHL SUB DUP6 DUP2 AND SWAP3 DUP2 AND SWAP2 SWAP1 DUP5 AND SWAP1 PUSH32 0x645EE41665486BC487A04A91A2BD296D2D2395CABF7747B152436DD15F9D4F8F SWAP1 PUSH1 0x20 SWAP1 LOG4 PUSH1 0x1 PUSH1 0x1 PUSH1 0xA0 SHL SUB SWAP1 DUP2 AND SWAP3 AND SWAP1 JUMP JUMPDEST PUSH3 0x64E DUP3 SWAP2 PUSH3 0x1E5 JUMP JUMPDEST PUSH3 0x65A JUMPI DUP1 PUSH3 0x5E8 JUMP JUMPDEST DUP1 REVERT JUMPDEST PUSH1 0x40 MLOAD RETURNDATASIZE DUP5 DUP3 RETURNDATACOPY RETURNDATASIZE SWAP1 REVERT JUMPDEST PUSH3 0x673 SWAP1 PUSH3 0x1E5 JUMP JUMPDEST PUSH3 0x65A JUMPI DUP1 PUSH0 PUSH3 0x59C JUMP JUMPDEST PUSH1 0x40 MLOAD RETURNDATASIZE DUP9 DUP3 RETURNDATACOPY RETURNDATASIZE SWAP1 REVERT JUMPDEST PUSH4 0x4E487B71 PUSH1 0xE0 SHL DUP12 MSTORE PUSH1 0x41 PUSH1 0x4 MSTORE PUSH1 0x24 DUP12 REVERT JUMPDEST SWAP12 POP POP SWAP7 SWAP5 SWAP9 SWAP8 SWAP4 SWAP2 SWAP1 SWAP3 POP PUSH1 0x1 DUP7 EQ PUSH3 0x6F1 JUMPI PUSH1 0x40 MLOAD PUSH3 0x461BCD PUSH1 0xE5 SHL DUP2 MSTORE PUSH1 0x20 PUSH1 0x4 DUP3 ADD MSTORE PUSH1 0x15 PUSH1 0x24 DUP3 ADD MSTORE PUSH21 0x556E737570706F7274656420706F6F6C2074797065 PUSH1 0x58 SHL PUSH1 0x44 DUP3 ADD MSTORE PUSH1 0x64 SWAP1 REVERT JUMPDEST DUP9 SLOAD PUSH1 0x40 MLOAD PUSH2 0x1139 DUP1 DUP3 ADD SWAP13 SWAP2 SWAP3 PUSH1 0x1 PUSH1 0x1 PUSH1 0xA0 SHL SUB AND SWAP2 SWAP1 PUSH8 0xFFFFFFFFFFFFFFFF DUP15 GT DUP5 DUP16 LT OR PUSH3 0x95C JUMPI SWAP13 PUSH1 0x60 SWAP3 DUP5 SWAP3 DUP15 SWAP16 PUSH3 0xAFF DUP6 CODECOPY PUSH1 0x1 PUSH1 0x1 PUSH1 0xA0 SHL SUB DUP9 AND DUP4 MSTORE PUSH1 0x20 DUP4 ADD MSTORE PUSH1 0x40 DUP3 ADD MSTORE SUB ADD SWAP1 DUP11 CREATE SWAP3 DUP4 ISZERO PUSH3 0x951 JUMPI PUSH1 0x1 SLOAD PUSH1 0x1 PUSH1 0x1 PUSH1 0xA0 SHL SUB AND DUP1 EXTCODESIZE ISZERO PUSH3 0x94D JUMPI PUSH1 0x40 MLOAD PUSH4 0x77FF76E7 PUSH1 0xE0 SHL DUP2 MSTORE ADDRESS PUSH1 0x4 DUP3 ADD MSTORE PUSH1 0x1 PUSH1 0x1 PUSH1 0xA0 SHL SUB DUP6 AND PUSH1 0x24 DUP3 ADD MSTORE PUSH1 0x1 PUSH1 0x44 DUP3 ADD MSTORE SWAP12 DUP12 SWAP2 DUP14 SWAP2 PUSH1 0x64 SWAP2 DUP4 SWAP2 SWAP1 GAS CALL DUP1 ISZERO PUSH3 0x942 JUMPI PUSH3 0x927 JUMPI JUMPDEST DUP10 SLOAD SWAP10 SWAP11 POP SWAP8 SWAP9 PUSH1 0x1 PUSH1 0x1 PUSH1 0xA0 SHL SUB SWAP4 DUP5 AND SWAP9 DUP12 SWAP9 SWAP5 SWAP1 SWAP2 AND SWAP4 DUP5 EXTCODESIZE ISZERO PUSH3 0x165 JUMPI PUSH1 0x40 MLOAD PUSH4 0x21BAB01 PUSH1 0xE5 SHL DUP2 MSTORE PUSH1 0x4 DUP2 ADD DUP12 SWAP1 MSTORE PUSH1 0x1 PUSH1 0x1 PUSH1 0xA0 SHL SUB DUP9 DUP2 AND PUSH1 0x24 DUP4 ADD MSTORE PUSH1 0x44 DUP3 ADD DUP12 SWAP1 MSTORE PUSH1 0x64 DUP3 ADD DUP12 SWAP1 MSTORE SWAP5 DUP6 AND PUSH1 0x84 DUP3 ADD MSTORE SWAP6 DUP5 AND PUSH1 0xA4 DUP8 ADD MSTORE SWAP1 SWAP3 AND PUSH1 0xC4 DUP6 ADD MSTORE PUSH1 0xE4 DUP5 ADD SWAP2 SWAP1 SWAP2 MSTORE PUSH2 0x104 DUP4 ADD MSTORE PUSH2 0x124 DUP3 ADD DUP6 SWAP1 MSTORE DUP5 SWAP1 DUP3 SWAP1 PUSH2 0x164 SWAP1 DUP3 SWAP1 DUP5 SWAP1 PUSH3 0x844 PUSH2 0x144 DUP5 ADD DUP11 PUSH3 0x2F0 JUMP JUMPDEST GAS CALL SWAP1 DUP2 ISZERO PUSH3 0x900 JUMPI DUP5 SWAP2 PUSH3 0x90F JUMPI JUMPDEST POP POP DUP3 SLOAD PUSH1 0x1 PUSH1 0x1 PUSH1 0xA0 SHL SUB AND SWAP1 DUP2 EXTCODESIZE ISZERO PUSH3 0x90B JUMPI DUP4 DUP1 SWAP3 PUSH1 0x24 PUSH1 0x40 MLOAD DUP1 SWAP6 DUP2 SWAP4 PUSH4 0x5D102DF7 PUSH1 0xE0 SHL DUP4 MSTORE DUP11 PUSH1 0x4 DUP5 ADD MSTORE GAS CALL DUP1 ISZERO PUSH3 0x900 JUMPI DUP6 SWAP3 DUP6 SWAP2 PUSH3 0x8DF JUMPI JUMPDEST POP POP PUSH1 0x20 PUSH32 0x645EE41665486BC487A04A91A2BD296D2D2395CABF7747B152436DD15F9D4F8F SWAP2 PUSH3 0x8D0 PUSH1 0x40 MLOAD DUP1 SWAP7 PUSH3 0x2F0 JUMP JUMPDEST PUSH1 0x1 PUSH1 0x1 PUSH1 0xA0 SHL SUB AND SWAP4 LOG4 SWAP2 SWAP1 JUMP JUMPDEST PUSH3 0x8ED SWAP2 SWAP3 SWAP4 POP PUSH3 0x1E5 JUMP JUMPDEST PUSH3 0x8FC JUMPI DUP4 SWAP1 DUP4 PUSH0 PUSH3 0x89B JUMP JUMPDEST DUP3 DUP1 REVERT JUMPDEST PUSH1 0x40 MLOAD RETURNDATASIZE DUP7 DUP3 RETURNDATACOPY RETURNDATASIZE SWAP1 REVERT JUMPDEST DUP4 DUP1 REVERT JUMPDEST PUSH3 0x91A SWAP1 PUSH3 0x1E5 JUMP JUMPDEST PUSH3 0x8FC JUMPI DUP3 PUSH0 PUSH3 0x856 JUMP JUMPDEST SWAP7 SWAP8 SWAP9 SWAP1 SWAP10 PUSH3 0x937 SWAP1 PUSH3 0x1E5 JUMP JUMPDEST SWAP8 SWAP7 SWAP6 DUP10 SWAP1 PUSH3 0x7A6 JUMP JUMPDEST PUSH1 0x40 MLOAD RETURNDATASIZE DUP13 DUP3 RETURNDATACOPY RETURNDATASIZE SWAP1 REVERT JUMPDEST DUP11 DUP1 REVERT JUMPDEST PUSH1 0x40 MLOAD RETURNDATASIZE DUP12 DUP3 RETURNDATACOPY RETURNDATASIZE SWAP1 REVERT JUMPDEST PUSH4 0x4E487B71 PUSH1 0xE0 SHL DUP14 MSTORE PUSH1 0x41 PUSH1 0x4 MSTORE PUSH1 0x24 DUP14 REVERT JUMPDEST SWAP1 SWAP2 SWAP14 POP PUSH1 0x40 MLOAD SWAP2 DUP3 PUSH2 0x15AF DUP2 ADD LT PUSH8 0xFFFFFFFFFFFFFFFF PUSH2 0x15AF DUP6 ADD GT OR PUSH3 0xA3A JUMPI DUP3 SWAP2 PUSH3 0x9CB PUSH3 0x9E2 SWAP3 DUP16 PUSH2 0x15AF PUSH3 0x426D DUP8 CODECOPY PUSH1 0x1 PUSH1 0x1 PUSH1 0xA0 SHL SUB AND PUSH2 0x15AF DUP7 ADD SWAP1 DUP2 MSTORE PUSH1 0x60 PUSH1 0x20 DUP3 ADD DUP2 SWAP1 MSTORE ADD SWAP1 PUSH3 0x2C9 JUMP JUMPDEST SWAP1 PUSH2 0x15AF DUP5 ADD DUP3 SUB PUSH1 0x40 PUSH2 0x15AF DUP7 ADD ADD MSTORE PUSH3 0x2C9 JUMP JUMPDEST SUB SWAP1 DUP9 CREATE SWAP12 DUP13 ISZERO PUSH3 0xA2F JUMPI PUSH1 0x40 MLOAD PUSH1 0x1 PUSH1 0x1 PUSH1 0xA0 SHL SUB DUP1 DUP14 AND DUP3 MSTORE DUP15 AND SWAP1 PUSH32 0x5D9C31FFA0FECFFD7CF379989A3C7AF252F0335E0D2A1320B55245912C781F53 SWAP1 PUSH1 0x20 SWAP1 LOG2 PUSH0 DUP1 PUSH3 0x430 JUMP JUMPDEST PUSH1 0x40 MLOAD RETURNDATASIZE DUP10 DUP3 RETURNDATACOPY RETURNDATASIZE SWAP1 REVERT JUMPDEST PUSH4 0x4E487B71 PUSH1 0xE0 SHL DUP11 MSTORE PUSH1 0x41 PUSH1 0x4 MSTORE PUSH1 0x24 DUP11 REVERT JUMPDEST PUSH4 0x4E487B71 PUSH1 0xE0 SHL DUP11 MSTORE PUSH1 0x21 PUSH1 0x4 MSTORE PUSH1 0x24 DUP11 REVERT JUMPDEST PUSH3 0xA82 SWAP2 POP RETURNDATASIZE DUP1 DUP12 DUP4 RETURNDATACOPY PUSH3 0xA79 DUP2 DUP4 PUSH3 0x20E JUMP JUMPDEST DUP2 ADD SWAP1 PUSH3 0x254 JUMP JUMPDEST PUSH0 PUSH3 0x3D7 JUMP JUMPDEST PUSH3 0xAA0 SWAP2 POP RETURNDATASIZE DUP1 DUP13 DUP4 RETURNDATACOPY PUSH3 0xA79 DUP2 DUP4 PUSH3 0x20E JUMP JUMPDEST PUSH0 PUSH3 0x36F JUMP JUMPDEST PUSH1 0x40 MLOAD RETURNDATASIZE DUP11 DUP3 RETURNDATACOPY RETURNDATASIZE SWAP1 REVERT JUMPDEST PUSH1 0x40 MLOAD PUSH3 0x461BCD PUSH1 0xE5 SHL DUP2 MSTORE PUSH1 0x20 PUSH1 0x4 DUP3 ADD MSTORE PUSH1 0x11 PUSH1 0x24 DUP3 ADD MSTORE PUSH17 0x496E76616C696420616464726573736573 PUSH1 0x78 SHL PUSH1 0x44 DUP3 ADD MSTORE PUSH1 0x64 SWAP1 REVERT JUMPDEST POP PUSH1 0x1 PUSH1 0x1 PUSH1 0xA0 SHL SUB DUP7 AND ISZERO ISZERO PUSH3 0x332 JUMP INVALID PUSH1 0x80 CALLVALUE PUSH2 0x98 JUMPI PUSH1 0x1F PUSH2 0x1139 CODESIZE DUP2 SWAP1 SUB SWAP2 DUP3 ADD PUSH1 0x1F NOT AND DUP4 ADD SWAP2 PUSH1 0x1 PUSH1 0x1 PUSH1 0x40 SHL SUB DUP4 GT DUP5 DUP5 LT OR PUSH2 0x9C JUMPI DUP1 DUP5 SWAP3 PUSH1 0x60 SWAP5 PUSH1 0x40 MSTORE DUP4 CODECOPY DUP2 ADD SUB SLT PUSH2 0x98 JUMPI DUP1 MLOAD PUSH1 0x1 PUSH1 0x1 PUSH1 0xA0 SHL SUB SWAP2 DUP3 DUP3 AND SWAP2 DUP3 SWAP1 SUB PUSH2 0x98 JUMPI PUSH1 0x40 PUSH1 0x20 DUP3 ADD MLOAD SWAP2 ADD MLOAD SWAP3 DUP4 AND DUP1 SWAP4 SUB PUSH2 0x98 JUMPI PUSH1 0x1 PUSH0 SSTORE PUSH1 0x1 DUP1 PUSH1 0xA0 SHL SUB NOT SWAP2 DUP3 PUSH1 0x2 SLOAD AND OR PUSH1 0x2 SSTORE PUSH1 0x5 SSTORE PUSH1 0x3 SLOAD AND OR PUSH1 0x3 SSTORE PUSH1 0x40 MLOAD PUSH2 0x1088 SWAP1 DUP2 PUSH2 0xB1 DUP3 CODECOPY RETURN JUMPDEST PUSH0 DUP1 REVERT JUMPDEST PUSH4 0x4E487B71 PUSH1 0xE0 SHL PUSH0 MSTORE PUSH1 0x41 PUSH1 0x4 MSTORE PUSH1 0x24 PUSH0 REVERT INVALID PUSH1 0x80 DUP1 PUSH1 0x40 MSTORE PUSH1 0x4 CALLDATASIZE LT ISZERO PUSH2 0x12 JUMPI PUSH0 DUP1 REVERT JUMPDEST PUSH0 SWAP1 DUP2 CALLDATALOAD PUSH1 0xE0 SHR SWAP1 DUP2 PUSH3 0xABAFE1 EQ PUSH2 0xCCC JUMPI POP DUP1 PUSH4 0x1FFC9A7 EQ PUSH2 0xC75 JUMPI DUP1 PUSH4 0x248A9CA3 EQ PUSH2 0xC49 JUMPI DUP1 PUSH4 0x2F2FF15D EQ PUSH2 0xC0B JUMPI DUP1 PUSH4 0x36568ABE EQ PUSH2 0xBC3 JUMPI DUP1 PUSH4 0x38D52E0F EQ PUSH2 0xB9A JUMPI DUP1 PUSH4 0x5CFFE9DE EQ PUSH2 0x569 JUMPI DUP1 PUSH4 0x613255AB EQ PUSH2 0x4C2 JUMPI DUP1 PUSH4 0x846B909A EQ PUSH2 0x262 JUMPI DUP1 PUSH4 0x8C9F305F EQ PUSH2 0x244 JUMPI DUP1 PUSH4 0x91D14854 EQ PUSH2 0x1FA JUMPI DUP1 PUSH4 0xA217FDDF EQ PUSH2 0x1DE JUMPI DUP1 PUSH4 0xBCEAD63E EQ PUSH2 0x1B5 JUMPI DUP1 PUSH4 0xC19D93FB EQ PUSH2 0x175 JUMPI DUP1 PUSH4 0xC51B9507 EQ PUSH2 0x14C JUMPI DUP1 PUSH4 0xD547741F EQ PUSH2 0x10A JUMPI PUSH4 0xD9D98CE4 EQ PUSH2 0xD8 JUMPI PUSH0 DUP1 REVERT JUMPDEST CALLVALUE PUSH2 0x107 JUMPI PUSH1 0x40 CALLDATASIZE PUSH1 0x3 NOT ADD SLT PUSH2 0x107 JUMPI PUSH1 0x20 PUSH2 0xFF PUSH2 0xF6 PUSH2 0xD1C JUMP JUMPDEST PUSH1 0x24 CALLDATALOAD SWAP1 PUSH2 0x1008 JUMP JUMPDEST PUSH1 0x40 MLOAD SWAP1 DUP2 MSTORE RETURN JUMPDEST DUP1 REVERT JUMPDEST POP CALLVALUE PUSH2 0x107 JUMPI PUSH1 0x40 CALLDATASIZE PUSH1 0x3 NOT ADD SLT PUSH2 0x107 JUMPI PUSH2 0x148 PUSH1 0x4 CALLDATALOAD PUSH2 0x12A PUSH2 0xD06 JUMP JUMPDEST SWAP1 DUP1 DUP5 MSTORE PUSH1 0x1 PUSH1 0x20 MSTORE PUSH2 0x143 PUSH1 0x1 PUSH1 0x40 DUP7 KECCAK256 ADD SLOAD PUSH2 0xD32 JUMP JUMPDEST PUSH2 0xE9D JUMP JUMPDEST POP DUP1 RETURN JUMPDEST POP CALLVALUE PUSH2 0x107 JUMPI DUP1 PUSH1 0x3 NOT CALLDATASIZE ADD SLT PUSH2 0x107 JUMPI PUSH1 0x3 SLOAD PUSH1 0x40 MLOAD PUSH1 0x1 PUSH1 0x1 PUSH1 0xA0 SHL SUB SWAP1 SWAP2 AND DUP2 MSTORE PUSH1 0x20 SWAP1 RETURN JUMPDEST POP CALLVALUE PUSH2 0x107 JUMPI DUP1 PUSH1 0x3 NOT CALLDATASIZE ADD SLT PUSH2 0x107 JUMPI PUSH1 0xFF PUSH1 0x6 SLOAD AND PUSH1 0x40 MLOAD SWAP1 PUSH1 0x2 DUP2 LT ISZERO PUSH2 0x1A1 JUMPI PUSH1 0x20 SWAP3 POP DUP2 MSTORE RETURN JUMPDEST PUSH4 0x4E487B71 PUSH1 0xE0 SHL DUP4 MSTORE PUSH1 0x21 PUSH1 0x4 MSTORE PUSH1 0x24 DUP4 REVERT JUMPDEST POP CALLVALUE PUSH2 0x107 JUMPI DUP1 PUSH1 0x3 NOT CALLDATASIZE ADD SLT PUSH2 0x107 JUMPI PUSH1 0x4 SLOAD PUSH1 0x40 MLOAD PUSH1 0x1 PUSH1 0x1 PUSH1 0xA0 SHL SUB SWAP1 SWAP2 AND DUP2 MSTORE PUSH1 0x20 SWAP1 RETURN JUMPDEST POP CALLVALUE PUSH2 0x107 JUMPI DUP1 PUSH1 0x3 NOT CALLDATASIZE ADD SLT PUSH2 0x107 JUMPI PUSH1 0x20 SWAP1 PUSH1 0x40 MLOAD SWAP1 DUP2 MSTORE RETURN JUMPDEST POP CALLVALUE PUSH2 0x107 JUMPI PUSH1 0x40 CALLDATASIZE PUSH1 0x3 NOT ADD SLT PUSH2 0x107 JUMPI PUSH1 0x40 PUSH2 0x216 PUSH2 0xD06 JUMP JUMPDEST SWAP2 PUSH1 0x4 CALLDATALOAD DUP2 MSTORE PUSH1 0x1 PUSH1 0x20 MSTORE KECCAK256 SWAP1 PUSH1 0x1 DUP1 PUSH1 0xA0 SHL SUB AND PUSH0 MSTORE PUSH1 0x20 MSTORE PUSH1 0x20 PUSH1 0xFF PUSH1 0x40 PUSH0 KECCAK256 SLOAD AND PUSH1 0x40 MLOAD SWAP1 ISZERO ISZERO DUP2 MSTORE RETURN JUMPDEST POP CALLVALUE PUSH2 0x107 JUMPI DUP1 PUSH1 0x3 NOT CALLDATASIZE ADD SLT PUSH2 0x107 JUMPI PUSH1 0x20 PUSH1 0x5 SLOAD PUSH1 0x40 MLOAD SWAP1 DUP2 MSTORE RETURN JUMPDEST POP CALLVALUE PUSH2 0x107 JUMPI PUSH1 0x20 DUP1 PUSH1 0x3 NOT CALLDATASIZE ADD SLT PUSH2 0x3C0 JUMPI PUSH1 0x4 CALLDATALOAD SWAP1 PUSH2 0x281 PUSH2 0xF74 JUMP JUMPDEST DUP2 ISZERO PUSH2 0x47F JUMPI PUSH1 0x2 SLOAD PUSH1 0x40 MLOAD PUSH4 0x6EB1769F PUSH1 0xE1 SHL DUP2 MSTORE CALLER PUSH1 0x4 DUP3 ADD MSTORE ADDRESS PUSH1 0x24 DUP3 ADD MSTORE PUSH1 0x1 PUSH1 0x1 PUSH1 0xA0 SHL SUB SWAP2 DUP3 AND SWAP1 DUP4 DUP2 PUSH1 0x44 DUP2 DUP6 GAS STATICCALL DUP1 ISZERO PUSH2 0x474 JUMPI DUP6 SWAP2 DUP8 SWAP2 PUSH2 0x43F JUMPI JUMPDEST POP LT PUSH2 0x3FC JUMPI PUSH1 0x40 MLOAD PUSH4 0x23B872DD PUSH1 0xE0 SHL DUP2 MSTORE CALLER PUSH1 0x4 DUP3 ADD MSTORE ADDRESS PUSH1 0x24 DUP3 ADD MSTORE PUSH1 0x44 DUP2 ADD DUP6 SWAP1 MSTORE DUP6 SWAP3 SWAP2 DUP5 SWAP1 DUP3 SWAP1 PUSH1 0x64 SWAP1 DUP3 SWAP1 DUP8 SWAP1 GAS CALL DUP1 ISZERO PUSH2 0x3F1 JUMPI PUSH2 0x3C4 JUMPI JUMPDEST POP PUSH2 0x311 CALLER PUSH2 0xD72 JUMP JUMPDEST POP PUSH1 0x4 DUP1 SLOAD PUSH1 0x1 PUSH1 0x1 PUSH1 0xA0 SHL SUB NOT AND CALLER OR SWAP1 SSTORE PUSH1 0x6 DUP1 SLOAD PUSH1 0xFF NOT AND SWAP1 SSTORE PUSH1 0x3 SLOAD AND DUP1 EXTCODESIZE ISZERO PUSH2 0x3C0 JUMPI DUP2 DUP1 SWAP2 PUSH1 0x44 PUSH1 0x40 MLOAD DUP1 SWAP5 DUP2 SWAP4 PUSH4 0xA956239B PUSH1 0xE0 SHL DUP4 MSTORE ADDRESS PUSH1 0x4 DUP5 ADD MSTORE PUSH1 0x6 PUSH1 0x24 DUP5 ADD MSTORE GAS CALL DUP1 ISZERO PUSH2 0x3B5 JUMPI PUSH2 0x39D JUMPI JUMPDEST POP POP PUSH32 0x726D5F1A838FE31748F737FA3AE5539CCFF95952ADFC593A1299532B643FF7A8 SWAP1 PUSH1 0x40 MLOAD SWAP3 DUP4 MSTORE CALLER SWAP3 LOG2 PUSH1 0x1 DUP2 SSTORE DUP1 RETURN JUMPDEST PUSH2 0x3A6 SWAP1 PUSH2 0xF12 JUMP JUMPDEST PUSH2 0x3B1 JUMPI DUP3 PUSH0 PUSH2 0x369 JUMP JUMPDEST DUP3 DUP1 REVERT JUMPDEST PUSH1 0x40 MLOAD RETURNDATASIZE DUP5 DUP3 RETURNDATACOPY RETURNDATASIZE SWAP1 REVERT JUMPDEST POP DUP1 REVERT JUMPDEST PUSH2 0x3E3 SWAP1 DUP5 RETURNDATASIZE DUP7 GT PUSH2 0x3EA JUMPI JUMPDEST PUSH2 0x3DB DUP2 DUP4 PUSH2 0xF3A JUMP JUMPDEST DUP2 ADD SWAP1 PUSH2 0xF5C JUMP JUMPDEST POP PUSH0 PUSH2 0x307 JUMP JUMPDEST POP RETURNDATASIZE PUSH2 0x3D1 JUMP JUMPDEST PUSH1 0x40 MLOAD RETURNDATASIZE DUP6 DUP3 RETURNDATACOPY RETURNDATASIZE SWAP1 REVERT JUMPDEST PUSH1 0x64 DUP4 PUSH1 0x40 MLOAD SWAP1 PUSH3 0x461BCD PUSH1 0xE5 SHL DUP3 MSTORE DUP1 PUSH1 0x4 DUP4 ADD MSTORE PUSH1 0x24 DUP3 ADD MSTORE PUSH32 0x416C6C6F77616E6365206E6F742073657420666F722074686520616D6F756E74 PUSH1 0x44 DUP3 ADD MSTORE REVERT JUMPDEST DUP1 SWAP3 POP DUP6 DUP1 SWAP3 POP RETURNDATASIZE DUP4 GT PUSH2 0x46D JUMPI JUMPDEST PUSH2 0x458 DUP2 DUP4 PUSH2 0xF3A JUMP JUMPDEST DUP2 ADD SUB SLT PUSH2 0x469 JUMPI DUP5 SWAP1 MLOAD PUSH0 PUSH2 0x2C6 JUMP JUMPDEST PUSH0 DUP1 REVERT JUMPDEST POP RETURNDATASIZE PUSH2 0x44E JUMP JUMPDEST PUSH1 0x40 MLOAD RETURNDATASIZE DUP9 DUP3 RETURNDATACOPY RETURNDATASIZE SWAP1 REVERT JUMPDEST PUSH1 0x64 SWAP1 PUSH1 0x40 MLOAD SWAP1 PUSH3 0x461BCD PUSH1 0xE5 SHL DUP3 MSTORE DUP1 PUSH1 0x4 DUP4 ADD MSTORE PUSH1 0x24 DUP3 ADD MSTORE PUSH32 0x416D6F756E74206D7573742062652067726561746572207468616E207A65726F PUSH1 0x44 DUP3 ADD MSTORE REVERT JUMPDEST POP CALLVALUE PUSH2 0x107 JUMPI PUSH1 0x20 SWAP1 DUP2 PUSH1 0x3 NOT CALLDATASIZE ADD SLT PUSH2 0x107 JUMPI PUSH2 0x4DE PUSH2 0xD1C JUMP JUMPDEST PUSH1 0x2 SLOAD PUSH1 0x1 PUSH1 0x1 PUSH1 0xA0 SHL SUB SWAP1 DUP2 AND SWAP2 DUP5 SWAP2 AND DUP3 SUB PUSH2 0x562 JUMPI PUSH1 0x40 MLOAD PUSH4 0x70A08231 PUSH1 0xE0 SHL DUP2 MSTORE ADDRESS PUSH1 0x4 DUP3 ADD MSTORE SWAP2 DUP3 SWAP1 PUSH1 0x24 SWAP1 DUP3 SWAP1 GAS STATICCALL SWAP2 DUP3 ISZERO PUSH2 0x556 JUMPI SWAP2 PUSH2 0x529 JUMPI JUMPDEST POP PUSH1 0x40 MLOAD SWAP1 DUP2 MSTORE RETURN JUMPDEST SWAP1 POP DUP2 DUP2 DUP2 RETURNDATASIZE DUP4 GT PUSH2 0x54F JUMPI JUMPDEST PUSH2 0x540 DUP2 DUP4 PUSH2 0xF3A JUMP JUMPDEST DUP2 ADD SUB SLT PUSH2 0x469 JUMPI MLOAD PUSH0 PUSH2 0x520 JUMP JUMPDEST POP RETURNDATASIZE PUSH2 0x536 JUMP JUMPDEST PUSH1 0x40 MLOAD SWAP1 RETURNDATASIZE SWAP1 DUP3 RETURNDATACOPY RETURNDATASIZE SWAP1 REVERT JUMPDEST POP POP PUSH2 0xFF JUMP JUMPDEST POP CALLVALUE PUSH2 0x107 JUMPI PUSH1 0x80 CALLDATASIZE PUSH1 0x3 NOT ADD SLT PUSH2 0x107 JUMPI PUSH1 0x4 CALLDATALOAD PUSH1 0x1 PUSH1 0x1 PUSH1 0xA0 SHL SUB DUP2 AND DUP2 SUB PUSH2 0x3C0 JUMPI PUSH2 0x596 PUSH2 0xD06 JUMP JUMPDEST SWAP2 PUSH8 0xFFFFFFFFFFFFFFFF DUP1 PUSH1 0x64 CALLDATALOAD GT PUSH2 0x3C0 JUMPI CALLDATASIZE PUSH1 0x23 PUSH1 0x64 CALLDATALOAD ADD SLT ISZERO PUSH2 0x3C0 JUMPI PUSH1 0x64 CALLDATALOAD PUSH1 0x4 ADD CALLDATALOAD GT PUSH2 0x107 JUMPI CALLDATASIZE PUSH1 0x24 PUSH1 0x64 CALLDATALOAD PUSH1 0x4 ADD CALLDATALOAD PUSH1 0x64 CALLDATALOAD ADD ADD GT PUSH2 0x107 JUMPI PUSH2 0x5DE PUSH2 0xF74 JUMP JUMPDEST PUSH1 0xFF PUSH1 0x6 SLOAD AND PUSH1 0x2 DUP2 LT ISZERO PUSH2 0xB86 JUMPI PUSH2 0xB4F JUMPI PUSH1 0x3 SLOAD PUSH1 0x1 PUSH1 0x1 PUSH1 0xA0 SHL SUB AND DUP1 EXTCODESIZE ISZERO PUSH2 0x3C0 JUMPI DUP2 DUP1 SWAP2 PUSH1 0x44 PUSH1 0x40 MLOAD DUP1 SWAP5 DUP2 SWAP4 PUSH4 0xA956239B PUSH1 0xE0 SHL DUP4 MSTORE ADDRESS PUSH1 0x4 DUP5 ADD MSTORE PUSH1 0x1 PUSH1 0x24 DUP5 ADD MSTORE GAS CALL DUP1 ISZERO PUSH2 0x3B5 JUMPI PUSH2 0xB40 JUMPI JUMPDEST POP PUSH1 0x2 SLOAD SWAP1 SWAP2 SWAP1 PUSH1 0x1 PUSH1 0x1 PUSH1 0xA0 SHL SUB SWAP1 DUP2 AND SWAP1 PUSH2 0x654 SWAP1 DUP6 AND DUP3 EQ PUSH2 0xFC8 JUMP JUMPDEST PUSH2 0x660 PUSH1 0x44 CALLDATALOAD DUP6 PUSH2 0x1008 JUMP JUMPDEST PUSH1 0x40 MLOAD PUSH4 0x70A08231 PUSH1 0xE0 SHL DUP2 MSTORE ADDRESS PUSH1 0x4 DUP3 ADD MSTORE SWAP1 SWAP2 PUSH1 0x20 DUP3 PUSH1 0x24 DUP2 DUP5 GAS STATICCALL SWAP2 DUP3 ISZERO PUSH2 0xA20 JUMPI DUP6 SWAP3 PUSH2 0xB0C JUMPI JUMPDEST POP PUSH1 0x40 MLOAD PUSH4 0xA9059CBB PUSH1 0xE0 SHL DUP2 MSTORE PUSH1 0x1 PUSH1 0x1 PUSH1 0xA0 SHL SUB DUP6 AND PUSH1 0x4 DUP3 ADD MSTORE PUSH1 0x44 DUP1 CALLDATALOAD PUSH1 0x24 DUP4 ADD MSTORE SWAP1 SWAP2 PUSH1 0x20 SWAP2 DUP4 SWAP2 DUP3 SWAP1 DUP10 SWAP1 GAS CALL DUP1 ISZERO PUSH2 0xA20 JUMPI PUSH2 0xAED JUMPI JUMPDEST POP PUSH1 0x40 MLOAD PUSH4 0x23E30C8B PUSH1 0xE0 SHL DUP2 MSTORE CALLER PUSH1 0x4 DUP3 ADD MSTORE PUSH1 0x1 DUP1 PUSH1 0xA0 SHL SUB DUP7 AND PUSH1 0x24 DUP3 ADD MSTORE PUSH1 0x44 CALLDATALOAD PUSH1 0x44 DUP3 ADD MSTORE DUP3 PUSH1 0x64 DUP3 ADD MSTORE PUSH1 0xA0 PUSH1 0x84 DUP3 ADD MSTORE PUSH1 0x64 CALLDATALOAD PUSH1 0x4 ADD CALLDATALOAD PUSH1 0xA4 DUP3 ADD MSTORE PUSH1 0x64 CALLDATALOAD PUSH1 0x4 ADD CALLDATALOAD PUSH1 0x24 PUSH1 0x64 CALLDATALOAD ADD PUSH1 0xC4 DUP4 ADD CALLDATACOPY PUSH1 0xC4 PUSH1 0x64 CALLDATALOAD PUSH1 0x4 ADD CALLDATALOAD DUP3 DUP2 ADD DUP3 ADD DUP8 SWAP1 MSTORE PUSH1 0x20 SWAP2 DUP4 SWAP2 PUSH1 0x1F NOT PUSH1 0x1F SWAP1 SWAP2 ADD AND DUP3 ADD DUP3 SWAP1 SUB ADD DUP2 DUP9 PUSH1 0x1 PUSH1 0x1 PUSH1 0xA0 SHL SUB DUP10 AND GAS CALL DUP1 ISZERO PUSH2 0xA20 JUMPI DUP6 SWAP1 PUSH2 0xA97 JUMPI JUMPDEST PUSH32 0x439148F0BBC682CA079E46D6E2C2F0C1E3B820F1A291B069D8882ABF8CF18DD9 SWAP2 POP SUB PUSH2 0xA5E JUMPI DUP2 PUSH1 0x44 CALLDATALOAD ADD PUSH1 0x44 CALLDATALOAD GT PUSH2 0xA4A JUMPI PUSH1 0x2 SLOAD PUSH1 0x40 MLOAD PUSH4 0x23B872DD PUSH1 0xE0 SHL DUP2 MSTORE PUSH1 0x1 PUSH1 0x1 PUSH1 0xA0 SHL SUB DUP6 DUP2 AND PUSH1 0x4 DUP4 ADD MSTORE ADDRESS PUSH1 0x24 DUP4 ADD MSTORE PUSH1 0x44 DUP1 CALLDATALOAD DUP7 ADD SWAP1 DUP4 ADD MSTORE SWAP1 SWAP2 PUSH1 0x20 SWAP2 DUP4 SWAP2 PUSH1 0x64 SWAP2 DUP4 SWAP2 DUP11 SWAP2 AND GAS CALL DUP1 ISZERO PUSH2 0xA20 JUMPI PUSH2 0xA2B JUMPI JUMPDEST POP PUSH1 0x2 SLOAD PUSH1 0x40 MLOAD PUSH4 0x70A08231 PUSH1 0xE0 SHL DUP2 MSTORE ADDRESS PUSH1 0x4 DUP3 ADD MSTORE SWAP1 PUSH1 0x20 SWAP1 DUP3 SWAP1 PUSH1 0x24 SWAP1 DUP3 SWAP1 PUSH1 0x1 PUSH1 0x1 PUSH1 0xA0 SHL SUB AND GAS STATICCALL SWAP1 DUP2 ISZERO PUSH2 0xA20 JUMPI DUP6 SWAP2 PUSH2 0x9EE JUMPI JUMPDEST POP LT PUSH2 0x9A9 JUMPI PUSH1 0x6 DUP1 SLOAD PUSH1 0xFF NOT AND PUSH1 0x1 OR SWAP1 SSTORE PUSH1 0x3 SLOAD PUSH1 0x1 PUSH1 0x1 PUSH1 0xA0 SHL SUB AND DUP1 EXTCODESIZE ISZERO PUSH2 0x991 JUMPI DUP4 DUP1 SWAP2 PUSH1 0x44 PUSH1 0x40 MLOAD DUP1 SWAP5 DUP2 SWAP4 PUSH4 0xA956239B PUSH1 0xE0 SHL DUP4 MSTORE ADDRESS PUSH1 0x4 DUP5 ADD MSTORE PUSH1 0x4 PUSH1 0x24 DUP5 ADD MSTORE GAS CALL DUP1 ISZERO PUSH2 0x972 JUMPI SWAP1 DUP5 SWAP2 PUSH2 0x995 JUMPI JUMPDEST POP POP PUSH1 0x3 SLOAD PUSH1 0x1 PUSH1 0x1 PUSH1 0xA0 SHL SUB AND DUP1 EXTCODESIZE ISZERO PUSH2 0x991 JUMPI DUP4 DUP1 SWAP2 PUSH1 0x24 PUSH1 0x40 MLOAD DUP1 SWAP5 DUP2 SWAP4 PUSH4 0x7E72C7D7 PUSH1 0xE0 SHL DUP4 MSTORE ADDRESS PUSH1 0x4 DUP5 ADD MSTORE GAS CALL DUP1 ISZERO PUSH2 0x972 JUMPI SWAP1 DUP5 SWAP2 PUSH2 0x97D JUMPI JUMPDEST POP PUSH1 0x2 SLOAD PUSH1 0x4 DUP1 SLOAD PUSH1 0x40 MLOAD PUSH4 0xA9059CBB PUSH1 0xE0 SHL DUP2 MSTORE PUSH1 0x1 PUSH1 0x1 PUSH1 0xA0 SHL SUB SWAP2 DUP3 AND SWAP3 DUP2 ADD SWAP3 SWAP1 SWAP3 MSTORE PUSH1 0x44 DUP1 CALLDATALOAD DUP7 ADD PUSH1 0x24 DUP5 ADD MSTORE SWAP2 SWAP4 PUSH1 0x20 SWAP4 DUP6 SWAP4 SWAP3 DUP5 SWAP3 SWAP2 AND GAS CALL DUP1 ISZERO PUSH2 0x972 JUMPI PUSH1 0x1 SWAP6 PUSH32 0x9D0D497E678F62D6B162C97B9724A39F45FE674650DCD4A5E88FF6317E63764F SWAP3 PUSH1 0x40 SWAP3 PUSH2 0x953 JUMPI JUMPDEST POP DUP2 MLOAD SWAP4 PUSH1 0x44 CALLDATALOAD DUP6 MSTORE PUSH1 0x20 DUP6 ADD MSTORE DUP7 DUP1 PUSH1 0xA0 SHL SUB AND SWAP4 DUP7 DUP1 PUSH1 0xA0 SHL SUB AND SWAP3 LOG3 SSTORE PUSH1 0x20 PUSH1 0x40 MLOAD PUSH1 0x1 DUP2 MSTORE RETURN JUMPDEST PUSH2 0x96B SWAP1 PUSH1 0x20 RETURNDATASIZE PUSH1 0x20 GT PUSH2 0x3EA JUMPI PUSH2 0x3DB DUP2 DUP4 PUSH2 0xF3A JUMP JUMPDEST POP PUSH0 PUSH2 0x928 JUMP JUMPDEST PUSH1 0x40 MLOAD RETURNDATASIZE DUP7 DUP3 RETURNDATACOPY RETURNDATASIZE SWAP1 REVERT JUMPDEST PUSH2 0x986 SWAP1 PUSH2 0xF12 JUMP JUMPDEST PUSH2 0x3B1 JUMPI DUP3 PUSH0 PUSH2 0x8B5 JUMP JUMPDEST DUP4 DUP1 REVERT JUMPDEST PUSH2 0x99E SWAP1 PUSH2 0xF12 JUMP JUMPDEST PUSH2 0x3B1 JUMPI DUP3 PUSH0 PUSH2 0x874 JUMP JUMPDEST PUSH1 0x40 MLOAD PUSH3 0x461BCD PUSH1 0xE5 SHL DUP2 MSTORE PUSH1 0x20 PUSH1 0x4 DUP3 ADD MSTORE PUSH1 0x1B PUSH1 0x24 DUP3 ADD MSTORE PUSH32 0x466C617368206C6F616E2072657061796D656E74206661696C65640000000000 PUSH1 0x44 DUP3 ADD MSTORE PUSH1 0x64 SWAP1 REVERT JUMPDEST SWAP1 POP PUSH1 0x20 DUP2 RETURNDATASIZE PUSH1 0x20 GT PUSH2 0xA18 JUMPI JUMPDEST DUP2 PUSH2 0xA09 PUSH1 0x20 SWAP4 DUP4 PUSH2 0xF3A JUMP JUMPDEST DUP2 ADD SUB SLT PUSH2 0x469 JUMPI MLOAD PUSH0 PUSH2 0x81B JUMP JUMPDEST RETURNDATASIZE SWAP2 POP PUSH2 0x9FC JUMP JUMPDEST PUSH1 0x40 MLOAD RETURNDATASIZE DUP8 DUP3 RETURNDATACOPY RETURNDATASIZE SWAP1 REVERT JUMPDEST PUSH2 0xA43 SWAP1 PUSH1 0x20 RETURNDATASIZE PUSH1 0x20 GT PUSH2 0x3EA JUMPI PUSH2 0x3DB DUP2 DUP4 PUSH2 0xF3A JUMP JUMPDEST POP PUSH0 PUSH2 0x7E0 JUMP JUMPDEST PUSH4 0x4E487B71 PUSH1 0xE0 SHL DUP5 MSTORE PUSH1 0x11 PUSH1 0x4 MSTORE PUSH1 0x24 DUP5 REVERT JUMPDEST PUSH1 0x40 MLOAD PUSH3 0x461BCD PUSH1 0xE5 SHL DUP2 MSTORE PUSH1 0x20 PUSH1 0x4 DUP3 ADD MSTORE PUSH1 0x11 PUSH1 0x24 DUP3 ADD MSTORE PUSH17 0x119B185CDA081B1BD85B8819985A5B1959 PUSH1 0x7A SHL PUSH1 0x44 DUP3 ADD MSTORE PUSH1 0x64 SWAP1 REVERT JUMPDEST POP PUSH1 0x20 DUP2 RETURNDATASIZE PUSH1 0x20 GT PUSH2 0xAE5 JUMPI JUMPDEST DUP2 PUSH2 0xAB1 PUSH1 0x20 SWAP4 DUP4 PUSH2 0xF3A JUMP JUMPDEST DUP2 ADD SUB SLT PUSH2 0xAE1 JUMPI PUSH32 0x439148F0BBC682CA079E46D6E2C2F0C1E3B820F1A291B069D8882ABF8CF18DD9 SWAP1 MLOAD PUSH2 0x75F JUMP JUMPDEST DUP5 DUP1 REVERT JUMPDEST RETURNDATASIZE SWAP2 POP PUSH2 0xAA4 JUMP JUMPDEST PUSH2 0xB05 SWAP1 PUSH1 0x20 RETURNDATASIZE PUSH1 0x20 GT PUSH2 0x3EA JUMPI PUSH2 0x3DB DUP2 DUP4 PUSH2 0xF3A JUMP JUMPDEST POP PUSH0 PUSH2 0x6CA JUMP JUMPDEST SWAP1 SWAP2 POP PUSH1 0x20 DUP2 RETURNDATASIZE PUSH1 0x20 GT PUSH2 0xB38 JUMPI JUMPDEST DUP2 PUSH2 0xB28 PUSH1 0x20 SWAP4 DUP4 PUSH2 0xF3A JUMP JUMPDEST DUP2 ADD SUB SLT PUSH2 0x469 JUMPI MLOAD SWAP1 PUSH0 PUSH2 0x68C JUMP JUMPDEST RETURNDATASIZE SWAP2 POP PUSH2 0xB1B JUMP JUMPDEST PUSH2 0xB49 SWAP1 PUSH2 0xF12 JUMP JUMPDEST PUSH0 PUSH2 0x634 JUMP JUMPDEST PUSH1 0x40 MLOAD PUSH3 0x461BCD PUSH1 0xE5 SHL DUP2 MSTORE PUSH1 0x20 PUSH1 0x4 DUP3 ADD MSTORE PUSH1 0xF PUSH1 0x24 DUP3 ADD MSTORE PUSH15 0x141BDBDB081B9BDD08199D5B991959 PUSH1 0x8A SHL PUSH1 0x44 DUP3 ADD MSTORE PUSH1 0x64 SWAP1 REVERT JUMPDEST PUSH4 0x4E487B71 PUSH1 0xE0 SHL DUP3 MSTORE PUSH1 0x21 PUSH1 0x4 MSTORE PUSH1 0x24 DUP3 REVERT JUMPDEST POP CALLVALUE PUSH2 0x107 JUMPI DUP1 PUSH1 0x3 NOT CALLDATASIZE ADD SLT PUSH2 0x107 JUMPI PUSH1 0x2 SLOAD PUSH1 0x40 MLOAD PUSH1 0x1 PUSH1 0x1 PUSH1 0xA0 SHL SUB SWAP1 SWAP2 AND DUP2 MSTORE PUSH1 0x20 SWAP1 RETURN JUMPDEST POP CALLVALUE PUSH2 0x107 JUMPI PUSH1 0x40 CALLDATASIZE PUSH1 0x3 NOT ADD SLT PUSH2 0x107 JUMPI PUSH2 0xBDD PUSH2 0xD06 JUMP JUMPDEST CALLER PUSH1 0x1 PUSH1 0x1 PUSH1 0xA0 SHL SUB DUP3 AND SUB PUSH2 0xBF9 JUMPI PUSH2 0x148 SWAP1 PUSH1 0x4 CALLDATALOAD PUSH2 0xE9D JUMP JUMPDEST PUSH1 0x40 MLOAD PUSH4 0x334BD919 PUSH1 0xE1 SHL DUP2 MSTORE PUSH1 0x4 SWAP1 REVERT JUMPDEST POP CALLVALUE PUSH2 0x107 JUMPI PUSH1 0x40 CALLDATASIZE PUSH1 0x3 NOT ADD SLT PUSH2 0x107 JUMPI PUSH2 0x148 PUSH1 0x4 CALLDATALOAD PUSH2 0xC2B PUSH2 0xD06 JUMP JUMPDEST SWAP1 DUP1 DUP5 MSTORE PUSH1 0x1 PUSH1 0x20 MSTORE PUSH2 0xC44 PUSH1 0x1 PUSH1 0x40 DUP7 KECCAK256 ADD SLOAD PUSH2 0xD32 JUMP JUMPDEST PUSH2 0xE24 JUMP JUMPDEST POP CALLVALUE PUSH2 0x107 JUMPI PUSH1 0x20 CALLDATASIZE PUSH1 0x3 NOT ADD SLT PUSH2 0x107 JUMPI PUSH1 0x1 PUSH1 0x40 PUSH1 0x20 SWAP3 PUSH1 0x4 CALLDATALOAD DUP2 MSTORE DUP3 DUP5 MSTORE KECCAK256 ADD SLOAD PUSH1 0x40 MLOAD SWAP1 DUP2 MSTORE RETURN JUMPDEST POP CALLVALUE PUSH2 0x107 JUMPI PUSH1 0x20 CALLDATASIZE PUSH1 0x3 NOT ADD SLT PUSH2 0x107 JUMPI PUSH1 0x4 CALLDATALOAD PUSH4 0xFFFFFFFF PUSH1 0xE0 SHL DUP2 AND DUP1 SWAP2 SUB PUSH2 0x3C0 JUMPI PUSH1 0x20 SWAP1 PUSH4 0x7965DB0B PUSH1 0xE0 SHL DUP2 EQ SWAP1 DUP2 ISZERO PUSH2 0xCBB JUMPI JUMPDEST POP PUSH1 0x40 MLOAD SWAP1 ISZERO ISZERO DUP2 MSTORE RETURN JUMPDEST PUSH4 0x1FFC9A7 PUSH1 0xE0 SHL EQ SWAP1 POP DUP3 PUSH2 0xCB0 JUMP JUMPDEST SWAP1 POP CALLVALUE PUSH2 0x3C0 JUMPI DUP2 PUSH1 0x3 NOT CALLDATASIZE ADD SLT PUSH2 0x3C0 JUMPI DUP1 PUSH32 0xC60D7A62D8843F2B14BC63F2A5240B187980481AD8C001A3CAF4916AEF3F667E PUSH1 0x20 SWAP3 MSTORE RETURN JUMPDEST PUSH1 0x24 CALLDATALOAD SWAP1 PUSH1 0x1 PUSH1 0x1 PUSH1 0xA0 SHL SUB DUP3 AND DUP3 SUB PUSH2 0x469 JUMPI JUMP JUMPDEST PUSH1 0x4 CALLDATALOAD SWAP1 PUSH1 0x1 PUSH1 0x1 PUSH1 0xA0 SHL SUB DUP3 AND DUP3 SUB PUSH2 0x469 JUMPI JUMP JUMPDEST DUP1 PUSH0 MSTORE PUSH1 0x1 PUSH1 0x20 MSTORE PUSH1 0x40 PUSH0 KECCAK256 CALLER PUSH0 MSTORE PUSH1 0x20 MSTORE PUSH1 0xFF PUSH1 0x40 PUSH0 KECCAK256 SLOAD AND ISZERO PUSH2 0xD54 JUMPI POP JUMP JUMPDEST PUSH1 0x44 SWAP1 PUSH1 0x40 MLOAD SWAP1 PUSH4 0xE2517D3F PUSH1 0xE0 SHL DUP3 MSTORE CALLER PUSH1 0x4 DUP4 ADD MSTORE PUSH1 0x24 DUP3 ADD MSTORE REVERT JUMPDEST PUSH1 0x1 PUSH1 0x1 PUSH1 0xA0 SHL SUB AND PUSH0 DUP2 DUP2 MSTORE PUSH32 0x95902C4D6C8EA17825D5632AF066DCB87E033F1B2A91B49A7AD79E83F02C4DEC PUSH1 0x20 MSTORE PUSH1 0x40 DUP2 KECCAK256 SLOAD SWAP1 SWAP2 SWAP1 PUSH32 0xC60D7A62D8843F2B14BC63F2A5240B187980481AD8C001A3CAF4916AEF3F667E SWAP1 PUSH1 0xFF AND PUSH2 0xE1F JUMPI DUP1 DUP4 MSTORE PUSH1 0x1 PUSH1 0x20 MSTORE PUSH1 0x40 DUP4 KECCAK256 DUP3 DUP5 MSTORE PUSH1 0x20 MSTORE PUSH1 0x40 DUP4 KECCAK256 PUSH1 0x1 PUSH1 0xFF NOT DUP3 SLOAD AND OR SWAP1 SSTORE PUSH32 0x2F8788117E7EFF1D82E926EC794901D17C78024A50270940304540A733656F0D CALLER SWAP4 DUP1 LOG4 PUSH1 0x1 SWAP1 JUMP JUMPDEST POP POP SWAP1 JUMP JUMPDEST SWAP1 PUSH0 SWAP2 DUP1 DUP4 MSTORE PUSH1 0x1 PUSH1 0x20 MSTORE PUSH1 0x40 DUP4 KECCAK256 SWAP2 PUSH1 0x1 DUP1 PUSH1 0xA0 SHL SUB AND SWAP2 DUP3 DUP5 MSTORE PUSH1 0x20 MSTORE PUSH1 0xFF PUSH1 0x40 DUP5 KECCAK256 SLOAD AND ISZERO PUSH0 EQ PUSH2 0xE1F JUMPI DUP1 DUP4 MSTORE PUSH1 0x1 PUSH1 0x20 MSTORE PUSH1 0x40 DUP4 KECCAK256 DUP3 DUP5 MSTORE PUSH1 0x20 MSTORE PUSH1 0x40 DUP4 KECCAK256 PUSH1 0x1 PUSH1 0xFF NOT DUP3 SLOAD AND OR SWAP1 SSTORE PUSH32 0x2F8788117E7EFF1D82E926EC794901D17C78024A50270940304540A733656F0D CALLER SWAP4 DUP1 LOG4 PUSH1 0x1 SWAP1 JUMP JUMPDEST SWAP1 PUSH0 SWAP2 DUP1 DUP4 MSTORE PUSH1 0x1 PUSH1 0x20 MSTORE PUSH1 0x40 DUP4 KECCAK256 SWAP2 PUSH1 0x1 DUP1 PUSH1 0xA0 SHL SUB AND SWAP2 DUP3 DUP5 MSTORE PUSH1 0x20 MSTORE PUSH1 0xFF PUSH1 0x40 DUP5 KECCAK256 SLOAD AND PUSH0 EQ PUSH2 0xE1F JUMPI DUP1 DUP4 MSTORE PUSH1 0x1 PUSH1 0x20 MSTORE PUSH1 0x40 DUP4 KECCAK256 DUP3 DUP5 MSTORE PUSH1 0x20 MSTORE PUSH1 0x40 DUP4 KECCAK256 PUSH1 0xFF NOT DUP2 SLOAD AND SWAP1 SSTORE PUSH32 0xF6391F5C32D9C69D2A47EA670B442974B53935D1EDC7FD64EB21E047A839171B CALLER SWAP4 DUP1 LOG4 PUSH1 0x1 SWAP1 JUMP JUMPDEST PUSH8 0xFFFFFFFFFFFFFFFF DUP2 GT PUSH2 0xF26 JUMPI PUSH1 0x40 MSTORE JUMP JUMPDEST PUSH4 0x4E487B71 PUSH1 0xE0 SHL PUSH0 MSTORE PUSH1 0x41 PUSH1 0x4 MSTORE PUSH1 0x24 PUSH0 REVERT JUMPDEST SWAP1 PUSH1 0x1F DUP1 NOT SWAP2 ADD AND DUP2 ADD SWAP1 DUP2 LT PUSH8 0xFFFFFFFFFFFFFFFF DUP3 GT OR PUSH2 0xF26 JUMPI PUSH1 0x40 MSTORE JUMP JUMPDEST SWAP1 DUP2 PUSH1 0x20 SWAP2 SUB SLT PUSH2 0x469 JUMPI MLOAD DUP1 ISZERO ISZERO DUP2 SUB PUSH2 0x469 JUMPI SWAP1 JUMP JUMPDEST PUSH1 0x2 PUSH0 SLOAD EQ PUSH2 0xF83 JUMPI PUSH1 0x2 PUSH0 SSTORE JUMP JUMPDEST PUSH1 0x40 MLOAD PUSH3 0x461BCD PUSH1 0xE5 SHL DUP2 MSTORE PUSH1 0x20 PUSH1 0x4 DUP3 ADD MSTORE PUSH1 0x1F PUSH1 0x24 DUP3 ADD MSTORE PUSH32 0x5265656E7472616E637947756172643A207265656E7472616E742063616C6C00 PUSH1 0x44 DUP3 ADD MSTORE PUSH1 0x64 SWAP1 REVERT JUMPDEST ISZERO PUSH2 0xFCF JUMPI JUMP JUMPDEST PUSH1 0x40 MLOAD PUSH3 0x461BCD PUSH1 0xE5 SHL DUP2 MSTORE PUSH1 0x20 PUSH1 0x4 DUP3 ADD MSTORE PUSH1 0x11 PUSH1 0x24 DUP3 ADD MSTORE PUSH17 0x2AB739BAB83837B93A32B2103A37B5B2B7 PUSH1 0x79 SHL PUSH1 0x44 DUP3 ADD MSTORE PUSH1 0x64 SWAP1 REVERT JUMPDEST PUSH1 0x2 SLOAD PUSH2 0x1022 SWAP2 PUSH1 0x1 PUSH1 0x1 PUSH1 0xA0 SHL SUB SWAP1 DUP2 AND SWAP2 AND EQ PUSH2 0xFC8 JUMP JUMPDEST PUSH1 0x5 SLOAD SWAP1 DUP2 DUP2 MUL SWAP2 DUP2 DUP4 DIV EQ SWAP1 ISZERO OR ISZERO PUSH2 0x103E JUMPI PUSH2 0x2710 SWAP1 DIV SWAP1 JUMP JUMPDEST PUSH4 0x4E487B71 PUSH1 0xE0 SHL PUSH0 MSTORE PUSH1 0x11 PUSH1 0x4 MSTORE PUSH1 0x24 PUSH0 REVERT INVALID LOG2 PUSH5 0x6970667358 0x22 SLT KECCAK256 BASEFEE 0xDC DUP9 RETURNDATASIZE SWAP15 0xFC LOG2 PUSH32 0xA825C657D166A87A4002483E7178AF6A982D62D72944C02664736F6C63430008 EQ STOP CALLER PUSH1 0x80 CALLVALUE PUSH3 0x3BA JUMPI PUSH1 0x1F PUSH3 0x2635 CODESIZE DUP2 SWAP1 SUB SWAP2 DUP3 ADD PUSH1 0x1F NOT AND DUP4 ADD SWAP2 PUSH1 0x1 PUSH1 0x1 PUSH1 0x40 SHL SUB DUP4 GT DUP5 DUP5 LT OR PUSH3 0x314 JUMPI DUP1 DUP5 SWAP3 PUSH2 0x160 SWAP5 PUSH1 0x40 MSTORE DUP4 CODECOPY DUP2 ADD SUB SLT PUSH3 0x3BA JUMPI PUSH3 0x4E DUP2 PUSH3 0x3BE JUMP JUMPDEST PUSH3 0x5C PUSH1 0x20 DUP4 ADD PUSH3 0x3BE JUMP JUMPDEST SWAP2 PUSH3 0x6B PUSH1 0x40 DUP3 ADD PUSH3 0x3BE JUMP JUMPDEST SWAP2 PUSH3 0x7A PUSH1 0x60 DUP4 ADD PUSH3 0x3BE JUMP JUMPDEST SWAP3 PUSH1 0x80 DUP4 ADD MLOAD SWAP5 PUSH1 0xA0 DUP5 ADD MLOAD SWAP4 PUSH1 0xC0 DUP2 ADD MLOAD SWAP1 PUSH1 0xE0 DUP2 ADD MLOAD PUSH1 0x1 DUP1 PUSH1 0xA0 SHL SUB DUP2 AND DUP2 SUB PUSH3 0x3BA JUMPI PUSH3 0xB1 PUSH2 0x100 DUP4 ADD PUSH3 0x3BE JUMP JUMPDEST SWAP2 PUSH3 0xD0 PUSH2 0x140 PUSH3 0xC8 PUSH2 0x120 DUP5 ADD PUSH3 0x3BE JUMP JUMPDEST SWAP3 ADD PUSH3 0x3BE JUMP JUMPDEST PUSH1 0x1 PUSH0 SSTORE SWAP3 PUSH1 0x1 PUSH1 0x1 PUSH1 0xA0 SHL SUB DUP9 AND ISZERO ISZERO DUP1 PUSH3 0x3A7 JUMPI JUMPDEST DUP1 PUSH3 0x394 JUMPI JUMPDEST DUP1 PUSH3 0x381 JUMPI JUMPDEST ISZERO PUSH3 0x33C JUMPI PUSH3 0x107 DUP9 PUSH3 0x3D3 JUMP JUMPDEST POP PUSH1 0x2 DUP1 SLOAD PUSH1 0x1 PUSH1 0x1 PUSH1 0xA0 SHL SUB NOT SWAP1 DUP2 AND PUSH1 0x1 PUSH1 0x1 PUSH1 0xA0 SHL SUB SWAP4 DUP5 AND OR SWAP1 SWAP2 SSTORE PUSH1 0x3 DUP1 SLOAD SWAP1 SWAP2 AND SWAP2 DUP4 AND SWAP2 SWAP1 SWAP2 OR SWAP1 SSTORE PUSH1 0x4 SLOAD SWAP4 PUSH3 0x15180 SWAP1 DUP1 ISZERO DUP3 DUP3 MUL DUP3 SWAP1 DIV DUP4 EQ OR ISZERO PUSH3 0x328 JUMPI PUSH1 0x40 MLOAD SWAP10 PUSH1 0x1 PUSH1 0x1 PUSH1 0x40 SHL SUB PUSH2 0x180 DUP13 ADD SWAP1 DUP2 GT SWAP1 DUP13 GT OR PUSH3 0x314 JUMPI DUP13 PUSH0 PUSH2 0x160 DUP14 PUSH32 0x3D48195705780F5C10A0D217F778F0F6D562CB1A6A699DA31C0D6D756AACEDFC SWAP16 PUSH1 0x60 SWAP16 DUP16 SWAP1 PUSH2 0x180 ADD PUSH1 0x40 MSTORE PUSH1 0x1 DUP1 PUSH1 0xA0 SHL SUB AND DUP3 MSTORE PUSH1 0x1 DUP1 PUSH1 0xA0 SHL SUB DUP14 AND PUSH1 0x20 DUP4 ADD MSTORE DUP14 PUSH1 0x1 DUP1 PUSH1 0xA0 SHL SUB AND PUSH1 0x40 DUP4 ADD MSTORE PUSH1 0x1 DUP1 PUSH1 0xA0 SHL SUB AND SWAP4 DUP16 DUP6 SWAP1 DUP4 ADD MSTORE PUSH1 0x80 DUP3 ADD MSTORE DUP5 PUSH1 0xA0 DUP3 ADD MSTORE DUP7 DUP7 MUL PUSH1 0xC0 DUP3 ADD MSTORE PUSH1 0x1 DUP1 PUSH1 0xA0 SHL SUB DUP9 AND PUSH1 0xE0 DUP3 ADD MSTORE PUSH1 0x1 DUP1 PUSH1 0xA0 SHL SUB DUP10 AND PUSH2 0x100 DUP3 ADD MSTORE DUP3 PUSH2 0x120 DUP3 ADD MSTORE TIMESTAMP PUSH2 0x140 DUP3 ADD MSTORE ADD MSTORE PUSH1 0x1 DUP1 PUSH1 0xA0 SHL SUB DUP12 AND PUSH1 0x1 DUP1 PUSH1 0xA0 SHL SUB NOT PUSH1 0x5 SLOAD AND OR PUSH1 0x5 SSTORE PUSH1 0x1 DUP1 PUSH1 0xA0 SHL SUB DUP10 AND PUSH1 0x1 DUP1 PUSH1 0xA0 SHL SUB NOT PUSH1 0x6 SLOAD AND OR PUSH1 0x6 SSTORE PUSH1 0x1 DUP1 PUSH1 0xA0 SHL SUB DUP11 AND PUSH1 0x1 DUP1 PUSH1 0xA0 SHL SUB NOT PUSH1 0x7 SLOAD AND OR PUSH1 0x7 SSTORE PUSH1 0x1 DUP1 PUSH1 0xA0 SHL SUB NOT PUSH1 0x8 SLOAD AND OR PUSH1 0x8 SSTORE DUP13 PUSH1 0x9 SSTORE PUSH1 0xA SSTORE MUL PUSH1 0xB SSTORE PUSH1 0x1 DUP1 PUSH1 0xA0 SHL SUB AND PUSH1 0x1 DUP1 PUSH1 0xA0 SHL SUB NOT PUSH1 0xC SLOAD AND OR PUSH1 0xC SSTORE PUSH1 0x1 DUP1 PUSH1 0xA0 SHL SUB AND PUSH1 0x1 DUP1 PUSH1 0xA0 SHL SUB NOT PUSH1 0xD SLOAD AND OR PUSH1 0xD SSTORE PUSH1 0x1 DUP1 PUSH1 0xA0 SHL SUB NOT PUSH1 0xE SLOAD AND PUSH1 0xE SSTORE TIMESTAMP PUSH1 0xF SSTORE PUSH0 PUSH1 0x10 SSTORE PUSH1 0x1 DUP1 PUSH1 0xA0 SHL SUB AND SWAP1 PUSH1 0x1 DUP1 PUSH1 0xA8 SHL SUB NOT AND OR PUSH1 0x4 SSTORE PUSH1 0x40 MLOAD SWAP6 DUP7 MSTORE PUSH1 0x1 DUP1 PUSH1 0xA0 SHL SUB AND PUSH1 0x20 DUP7 ADD MSTORE PUSH1 0x1 DUP1 PUSH1 0xA0 SHL SUB AND PUSH1 0x40 DUP6 ADD MSTORE PUSH1 0x1 DUP1 PUSH1 0xA0 SHL SUB AND SWAP3 LOG2 PUSH1 0x40 MLOAD PUSH2 0x21AE SWAP1 DUP2 PUSH3 0x487 DUP3 CODECOPY RETURN JUMPDEST PUSH4 0x4E487B71 PUSH1 0xE0 SHL PUSH0 MSTORE PUSH1 0x41 PUSH1 0x4 MSTORE PUSH1 0x24 PUSH0 REVERT JUMPDEST PUSH4 0x4E487B71 PUSH1 0xE0 SHL PUSH0 MSTORE PUSH1 0x11 PUSH1 0x4 MSTORE PUSH1 0x24 PUSH0 REVERT JUMPDEST PUSH1 0x40 MLOAD PUSH3 0x461BCD PUSH1 0xE5 SHL DUP2 MSTORE PUSH1 0x20 PUSH1 0x4 DUP3 ADD MSTORE PUSH1 0x17 PUSH1 0x24 DUP3 ADD MSTORE PUSH32 0x496E76616C696420696E70757420616464726573736573000000000000000000 PUSH1 0x44 DUP3 ADD MSTORE PUSH1 0x64 SWAP1 REVERT JUMPDEST POP PUSH1 0x1 PUSH1 0x1 PUSH1 0xA0 SHL SUB DUP8 AND ISZERO ISZERO PUSH3 0xF6 JUMP JUMPDEST POP PUSH1 0x1 PUSH1 0x1 PUSH1 0xA0 SHL SUB DUP11 AND ISZERO ISZERO PUSH3 0xEF JUMP JUMPDEST POP PUSH1 0x1 PUSH1 0x1 PUSH1 0xA0 SHL SUB DUP7 AND ISZERO ISZERO PUSH3 0xE8 JUMP JUMPDEST PUSH0 DUP1 REVERT JUMPDEST MLOAD SWAP1 PUSH1 0x1 PUSH1 0x1 PUSH1 0xA0 SHL SUB DUP3 AND DUP3 SUB PUSH3 0x3BA JUMPI JUMP JUMPDEST PUSH1 0x1 PUSH1 0x1 PUSH1 0xA0 SHL SUB AND PUSH0 DUP2 DUP2 MSTORE PUSH32 0x95902C4D6C8EA17825D5632AF066DCB87E033F1B2A91B49A7AD79E83F02C4DEC PUSH1 0x20 MSTORE PUSH1 0x40 DUP2 KECCAK256 SLOAD SWAP1 SWAP2 SWAP1 PUSH32 0xC60D7A62D8843F2B14BC63F2A5240B187980481AD8C001A3CAF4916AEF3F667E SWAP1 PUSH1 0xFF AND PUSH3 0x481 JUMPI DUP1 DUP4 MSTORE PUSH1 0x1 PUSH1 0x20 MSTORE PUSH1 0x40 DUP4 KECCAK256 DUP3 DUP5 MSTORE PUSH1 0x20 MSTORE PUSH1 0x40 DUP4 KECCAK256 PUSH1 0x1 PUSH1 0xFF NOT DUP3 SLOAD AND OR SWAP1 SSTORE PUSH32 0x2F8788117E7EFF1D82E926EC794901D17C78024A50270940304540A733656F0D CALLER SWAP4 DUP1 LOG4 PUSH1 0x1 SWAP1 JUMP JUMPDEST POP POP SWAP1 JUMP INVALID PUSH1 0x80 PUSH1 0x40 DUP2 DUP2 MSTORE PUSH1 0x4 SWAP2 DUP3 CALLDATASIZE LT ISZERO PUSH2 0x15 JUMPI PUSH0 DUP1 REVERT JUMPDEST PUSH0 SWAP3 DUP4 CALLDATALOAD PUSH1 0xE0 SHR SWAP2 DUP3 PUSH3 0xABAFE1 EQ PUSH2 0x1C37 JUMPI POP DUP2 PUSH4 0x1FFC9A7 EQ PUSH2 0x1BE1 JUMPI DUP2 PUSH4 0xC7277DE EQ PUSH2 0x1BB8 JUMPI DUP2 PUSH4 0xE7B949E EQ PUSH2 0x1B7D JUMPI DUP2 PUSH4 0xF4EF8A6 EQ PUSH2 0x1B55 JUMPI DUP2 PUSH4 0x1CB0C3E7 EQ PUSH2 0x1B2C JUMPI DUP2 PUSH4 0x248A9CA3 EQ PUSH2 0x1B02 JUMPI DUP2 PUSH4 0x2E1283E3 EQ PUSH2 0x1AE3 JUMPI DUP2 PUSH4 0x2F2FF15D EQ PUSH2 0x1AB9 JUMPI DUP2 PUSH4 0x36568ABE EQ PUSH2 0x1A73 JUMPI DUP2 PUSH4 0x3B1BAEFF EQ PUSH2 0x172B JUMPI DUP2 PUSH4 0x402D8883 EQ PUSH2 0x1155 JUMPI DUP2 PUSH4 0x5257B566 EQ PUSH2 0x1136 JUMPI DUP2 PUSH4 0x64C4BEC0 EQ PUSH2 0x1117 JUMPI DUP2 PUSH4 0x654C6295 EQ PUSH2 0x1080 JUMPI DUP2 PUSH4 0x6B6D1955 EQ PUSH2 0x1060 JUMPI DUP2 PUSH4 0x8A4ADF24 EQ PUSH2 0x1037 JUMPI DUP2 PUSH4 0x8DB57994 EQ PUSH2 0xD75 JUMPI DUP2 PUSH4 0x91D14854 EQ PUSH2 0xD31 JUMPI DUP2 PUSH4 0x95CB741D EQ PUSH2 0xC9A JUMPI DUP2 PUSH4 0x9861F3E5 EQ PUSH2 0xC71 JUMPI DUP2 PUSH4 0x9E9F669C EQ PUSH2 0x5A7 JUMPI DUP2 PUSH4 0xA217FDDF EQ PUSH2 0xC56 JUMPI DUP2 PUSH4 0xB2A9BB60 EQ PUSH2 0x5D4 JUMPI DUP2 PUSH4 0xC19D93FB EQ PUSH2 0x5A7 JUMPI DUP2 PUSH4 0xC51B9507 EQ PUSH2 0x57E JUMPI DUP2 PUSH4 0xD547741F EQ PUSH2 0x53B JUMPI DUP2 PUSH4 0xD724A4C0 EQ PUSH2 0x1AF JUMPI POP DUP1 PUSH4 0xEB0C4955 EQ PUSH2 0x18C JUMPI PUSH4 0xF4B01B18 EQ PUSH2 0x16B JUMPI PUSH0 DUP1 REVERT JUMPDEST CALLVALUE PUSH2 0x188 JUMPI DUP2 PUSH1 0x3 NOT CALLDATASIZE ADD SLT PUSH2 0x188 JUMPI PUSH1 0x20 SWAP1 PUSH1 0x9 SLOAD SWAP1 MLOAD SWAP1 DUP2 MSTORE RETURN JUMPDEST POP DUP1 REVERT JUMPDEST POP CALLVALUE PUSH2 0x188 JUMPI DUP2 PUSH1 0x3 NOT CALLDATASIZE ADD SLT PUSH2 0x188 JUMPI PUSH1 0x20 SWAP1 PUSH2 0x1A8 PUSH2 0x20F5 JUMP JUMPDEST SWAP1 MLOAD SWAP1 DUP2 MSTORE RETURN JUMPDEST DUP4 SWAP2 POP CALLVALUE PUSH2 0x188 JUMPI DUP2 PUSH1 0x3 NOT CALLDATASIZE ADD SLT PUSH2 0x188 JUMPI PUSH2 0x1CA PUSH2 0x1ED8 JUMP JUMPDEST PUSH32 0xC60D7A62D8843F2B14BC63F2A5240B187980481AD8C001A3CAF4916AEF3F667E DUP3 MSTORE PUSH1 0x20 SWAP3 PUSH1 0x1 DUP5 MSTORE DUP1 DUP4 KECCAK256 CALLER PUSH0 MSTORE DUP5 MSTORE PUSH1 0xFF DUP2 PUSH0 KECCAK256 SLOAD AND ISZERO PUSH2 0x4ED JUMPI PUSH1 0xFF DUP3 SLOAD PUSH1 0xA0 SHR AND PUSH1 0x6 DUP2 LT ISZERO PUSH2 0x4DA JUMPI PUSH1 0x1 SUB PUSH2 0x498 JUMPI PUSH1 0xE SLOAD PUSH1 0x1 PUSH1 0x1 PUSH1 0xA0 SHL SUB SWAP1 DUP2 AND PUSH2 0x455 JUMPI DUP5 PUSH2 0x277 DUP6 SWAP7 DUP4 PUSH1 0x6 SLOAD AND DUP5 PUSH1 0x5 SLOAD AND SWAP1 PUSH1 0x9 SLOAD SWAP2 DUP10 DUP9 MLOAD DUP1 SWAP7 DUP2 SWAP6 DUP3 SWAP5 PUSH4 0xA9059CBB PUSH1 0xE0 SHL DUP5 MSTORE DUP14 DUP5 ADD PUSH1 0x20 SWAP1 SWAP4 SWAP3 SWAP2 SWAP4 PUSH1 0x40 DUP2 ADD SWAP5 PUSH1 0x1 DUP1 PUSH1 0xA0 SHL SUB AND DUP2 MSTORE ADD MSTORE JUMP JUMPDEST SUB SWAP3 GAS CALL DUP1 ISZERO PUSH2 0x409 JUMPI PUSH2 0x427 JUMPI JUMPDEST POP POP DUP3 SLOAD PUSH1 0xFF PUSH1 0xA0 SHL NOT AND PUSH1 0x5 PUSH1 0xA0 SHL OR DUP4 SSTORE PUSH1 0x2 SLOAD DUP2 AND DUP1 EXTCODESIZE ISZERO PUSH2 0x405 JUMPI DUP3 MLOAD DUP6 DUP2 PUSH1 0x24 DUP2 DUP4 PUSH4 0x7E72C7D7 PUSH1 0xE0 SHL SWAP7 DUP8 DUP4 MSTORE ADDRESS DUP12 DUP5 ADD MSTORE GAS CALL DUP1 ISZERO PUSH2 0x409 JUMPI SWAP1 DUP7 SWAP2 PUSH2 0x413 JUMPI JUMPDEST POP POP DUP2 PUSH1 0x3 SLOAD AND DUP1 EXTCODESIZE ISZERO PUSH2 0x3ED JUMPI DUP6 DUP1 SWAP2 PUSH1 0x24 DUP7 MLOAD DUP1 SWAP5 DUP2 SWAP4 PUSH4 0x38E270ED PUSH1 0xE0 SHL DUP4 MSTORE ADDRESS DUP12 DUP5 ADD MSTORE GAS CALL DUP1 ISZERO PUSH2 0x409 JUMPI SWAP1 DUP7 SWAP2 PUSH2 0x3F1 JUMPI JUMPDEST POP POP DUP2 DUP5 SLOAD AND SWAP1 DUP2 EXTCODESIZE ISZERO PUSH2 0x3ED JUMPI DUP6 SWAP2 PUSH1 0x24 DUP4 SWAP3 DUP7 MLOAD SWAP5 DUP6 SWAP4 DUP5 SWAP3 DUP4 MSTORE ADDRESS DUP11 DUP5 ADD MSTORE GAS CALL DUP1 ISZERO PUSH2 0x3E3 JUMPI SWAP1 DUP6 SWAP2 PUSH2 0x3CF JUMPI JUMPDEST POP POP PUSH1 0x2 SLOAD AND DUP1 EXTCODESIZE ISZERO PUSH2 0x3CA JUMPI DUP2 MLOAD PUSH4 0xA956239B PUSH1 0xE0 SHL DUP2 MSTORE ADDRESS SWAP4 DUP2 ADD SWAP4 DUP5 MSTORE PUSH1 0x5 PUSH1 0x20 DUP6 ADD MSTORE SWAP3 DUP5 SWAP2 DUP5 SWAP2 DUP3 SWAP1 DUP5 SWAP1 DUP3 SWAP1 PUSH1 0x40 ADD SUB SWAP3 GAS CALL SWAP1 DUP2 ISZERO PUSH2 0x3C1 JUMPI POP PUSH2 0x3AA JUMPI JUMPDEST POP DUP1 PUSH32 0x409FCED1B85AE32A29FB1E18894D8361A5F2653DC27ADF7102D86175C2901D7C SWAP2 LOG1 PUSH1 0x1 DUP2 SSTORE DUP1 RETURN JUMPDEST PUSH2 0x3B3 SWAP1 PUSH2 0x1E8E JUMP JUMPDEST PUSH2 0x3BE JUMPI DUP1 DUP3 PUSH2 0x37E JUMP JUMPDEST DUP1 REVERT JUMPDEST MLOAD RETURNDATASIZE DUP5 DUP3 RETURNDATACOPY RETURNDATASIZE SWAP1 REVERT JUMPDEST POP POP POP REVERT JUMPDEST PUSH2 0x3D8 SWAP1 PUSH2 0x1E8E JUMP JUMPDEST PUSH2 0x3CA JUMPI DUP4 DUP7 PUSH2 0x338 JUMP JUMPDEST DUP4 MLOAD RETURNDATASIZE DUP8 DUP3 RETURNDATACOPY RETURNDATASIZE SWAP1 REVERT JUMPDEST DUP6 DUP1 REVERT JUMPDEST PUSH2 0x3FA SWAP1 PUSH2 0x1E8E JUMP JUMPDEST PUSH2 0x405 JUMPI DUP5 DUP8 PUSH2 0x306 JUMP JUMPDEST DUP5 DUP1 REVERT JUMPDEST DUP5 MLOAD RETURNDATASIZE DUP9 DUP3 RETURNDATACOPY RETURNDATASIZE SWAP1 REVERT JUMPDEST PUSH2 0x41C SWAP1 PUSH2 0x1E8E JUMP JUMPDEST PUSH2 0x405 JUMPI DUP5 DUP8 PUSH2 0x2CE JUMP JUMPDEST DUP2 PUSH2 0x446 SWAP3 SWAP1 RETURNDATASIZE LT PUSH2 0x44E JUMPI JUMPDEST PUSH2 0x43E DUP2 DUP4 PUSH2 0x1EB6 JUMP JUMPDEST DUP2 ADD SWAP1 PUSH2 0x1F2C JUMP JUMPDEST POP DUP6 DUP1 PUSH2 0x286 JUMP JUMPDEST POP RETURNDATASIZE PUSH2 0x434 JUMP JUMPDEST DUP2 MLOAD PUSH3 0x461BCD PUSH1 0xE5 SHL DUP2 MSTORE DUP1 DUP5 ADD DUP7 SWAP1 MSTORE PUSH1 0x17 PUSH1 0x24 DUP3 ADD MSTORE PUSH32 0x426F72726F77657220616C726561647920657869737473000000000000000000 PUSH1 0x44 DUP3 ADD MSTORE PUSH1 0x64 SWAP1 REVERT JUMPDEST MLOAD PUSH3 0x461BCD PUSH1 0xE5 SHL DUP2 MSTORE SWAP1 DUP2 ADD DUP4 SWAP1 MSTORE PUSH1 0x1F PUSH1 0x24 DUP3 ADD MSTORE PUSH32 0x4C6F616E206D75737420626520696E20612070656E64696E6720737461746500 PUSH1 0x44 DUP3 ADD MSTORE PUSH1 0x64 SWAP1 REVERT JUMPDEST PUSH4 0x4E487B71 PUSH1 0xE0 SHL DUP5 MSTORE PUSH1 0x21 DUP4 MSTORE PUSH1 0x24 DUP5 REVERT JUMPDEST MLOAD PUSH3 0x461BCD PUSH1 0xE5 SHL DUP2 MSTORE SWAP1 DUP2 ADD DUP4 SWAP1 MSTORE PUSH1 0x24 DUP1 DUP3 ADD MSTORE PUSH32 0x4F6E6C7920746865206C656E6465722063616E207265636C61696D2074686520 PUSH1 0x44 DUP3 ADD MSTORE PUSH4 0x3637B0B7 PUSH1 0xE1 SHL PUSH1 0x64 DUP3 ADD MSTORE PUSH1 0x84 SWAP1 REVERT JUMPDEST SWAP2 SWAP1 POP CALLVALUE PUSH2 0x57A JUMPI DUP1 PUSH1 0x3 NOT CALLDATASIZE ADD SLT PUSH2 0x57A JUMPI PUSH2 0x576 SWAP2 CALLDATALOAD PUSH2 0x571 PUSH1 0x1 PUSH2 0x560 PUSH2 0x1C71 JUMP JUMPDEST SWAP4 DUP4 DUP8 MSTORE DUP2 PUSH1 0x20 MSTORE DUP7 KECCAK256 ADD SLOAD PUSH2 0x1CAE JUMP JUMPDEST PUSH2 0x1E19 JUMP JUMPDEST POP DUP1 RETURN JUMPDEST DUP3 DUP1 REVERT JUMPDEST POP POP CALLVALUE PUSH2 0x188 JUMPI DUP2 PUSH1 0x3 NOT CALLDATASIZE ADD SLT PUSH2 0x188 JUMPI PUSH1 0x2 SLOAD SWAP1 MLOAD PUSH1 0x1 PUSH1 0x1 PUSH1 0xA0 SHL SUB SWAP1 SWAP2 AND DUP2 MSTORE PUSH1 0x20 SWAP1 RETURN JUMPDEST DUP3 DUP5 CALLVALUE PUSH2 0x3BE JUMPI DUP1 PUSH1 0x3 NOT CALLDATASIZE ADD SLT PUSH2 0x3BE JUMPI POP PUSH1 0xFF PUSH2 0x5D0 SWAP3 SLOAD PUSH1 0xA0 SHR AND SWAP1 MLOAD SWAP2 DUP3 SWAP2 DUP3 PUSH2 0x1C87 JUMP JUMPDEST SUB SWAP1 RETURN JUMPDEST DUP4 SWAP2 POP CALLVALUE PUSH2 0x188 JUMPI DUP2 PUSH1 0x3 NOT CALLDATASIZE ADD SLT PUSH2 0x188 JUMPI PUSH2 0x5EF PUSH2 0x1ED8 JUMP JUMPDEST PUSH1 0xFF DUP2 SLOAD PUSH1 0xA0 SHR AND PUSH1 0x6 DUP2 LT ISZERO PUSH2 0xC43 JUMPI PUSH1 0x1 SUB PUSH2 0xC00 JUMPI CALLER ISZERO PUSH2 0xBBD JUMPI PUSH1 0x5 SLOAD PUSH1 0x1 PUSH1 0x1 PUSH1 0xA0 SHL SUB SWAP1 DUP2 AND SWAP4 SWAP1 CALLER DUP6 EQ PUSH2 0xB7A JUMPI PUSH2 0x67A PUSH2 0x62F PUSH2 0x20F5 JUMP JUMPDEST PUSH2 0x63C PUSH1 0x9 SLOAD SWAP2 DUP3 PUSH2 0x1F44 JUMP JUMPDEST PUSH1 0x7 SLOAD DUP6 MLOAD PUSH4 0x6EB1769F PUSH1 0xE1 SHL DUP1 DUP3 MSTORE CALLER DUP10 DUP4 ADD SWAP1 DUP2 MSTORE ADDRESS PUSH1 0x20 DUP3 DUP2 ADD SWAP2 SWAP1 SWAP2 MSTORE SWAP4 DUP9 AND SWAP12 SWAP4 SWAP7 SWAP4 SWAP5 SWAP2 SWAP4 SWAP2 SWAP3 SWAP2 DUP8 SWAP2 DUP4 SWAP2 DUP15 SWAP2 DUP4 SWAP2 DUP3 SWAP2 PUSH1 0x40 ADD SWAP1 JUMP JUMPDEST SUB SWAP2 GAS STATICCALL SWAP1 DUP2 ISZERO PUSH2 0xB70 JUMPI DUP11 SWAP2 PUSH2 0xB43 JUMPI JUMPDEST POP LT PUSH2 0xAF6 JUMPI PUSH1 0x6 SLOAD DUP7 MLOAD SWAP2 DUP3 MSTORE PUSH1 0x1 PUSH1 0x1 PUSH1 0xA0 SHL SUB SWAP1 SWAP3 AND DUP8 DUP3 ADD SWAP1 DUP2 MSTORE ADDRESS PUSH1 0x20 DUP3 ADD MSTORE SWAP1 SWAP2 DUP5 SWAP2 DUP4 SWAP2 DUP8 AND SWAP1 DUP3 SWAP1 DUP2 SWAP1 PUSH1 0x40 ADD SUB SWAP2 GAS STATICCALL SWAP1 DUP2 ISZERO PUSH2 0x9B1 JUMPI SWAP1 DUP3 SWAP2 DUP9 SWAP2 PUSH2 0xAC5 JUMPI JUMPDEST POP LT PUSH2 0xA82 JUMPI DUP6 SWAP7 DUP6 DUP8 DUP5 PUSH2 0x733 PUSH2 0x6F5 PUSH2 0x6EF PUSH2 0x20F5 JUMP JUMPDEST DUP8 PUSH2 0x1F44 JUMP JUMPDEST SWAP5 PUSH2 0x6FE PUSH2 0x20F5 JUMP JUMPDEST DUP11 MLOAD PUSH4 0x23B872DD PUSH1 0xE0 SHL DUP1 DUP3 MSTORE CALLER SWAP8 DUP3 ADD SWAP8 DUP9 MSTORE ADDRESS PUSH1 0x20 DUP10 ADD MSTORE PUSH1 0x40 DUP9 ADD SWAP9 SWAP1 SWAP9 MSTORE SWAP1 SWAP7 SWAP6 SWAP1 SWAP5 DUP6 SWAP4 DUP5 SWAP3 DUP4 SWAP2 PUSH1 0x60 SWAP1 SWAP2 ADD SWAP1 JUMP JUMPDEST SUB SWAP3 GAS CALL DUP1 ISZERO PUSH2 0xA78 JUMPI SWAP1 DUP6 SWAP3 SWAP2 PUSH2 0xA5B JUMPI JUMPDEST POP PUSH1 0x7 SLOAD PUSH1 0x3 SLOAD DUP9 MLOAD SWAP3 DUP4 MSTORE CALLER DUP11 DUP5 ADD SWAP1 DUP2 MSTORE SWAP1 DUP9 AND PUSH1 0x1 PUSH1 0x1 PUSH1 0xA0 SHL SUB AND PUSH1 0x20 DUP3 ADD MSTORE PUSH1 0x40 DUP2 ADD SWAP5 SWAP1 SWAP5 MSTORE SWAP1 SWAP3 DUP4 SWAP2 DUP8 AND SWAP1 DUP3 SWAP1 DUP12 SWAP1 DUP3 SWAP1 PUSH1 0x60 ADD SUB SWAP3 GAS CALL DUP1 ISZERO PUSH2 0x9B1 JUMPI PUSH2 0xA3E JUMPI JUMPDEST POP PUSH1 0x7 SLOAD PUSH1 0x8 SLOAD DUP6 MLOAD PUSH4 0x95EA7B3 PUSH1 0xE0 SHL DUP2 MSTORE SWAP1 DUP6 AND PUSH1 0x1 PUSH1 0x1 PUSH1 0xA0 SHL SUB AND DUP8 DUP3 ADD SWAP1 DUP2 MSTORE PUSH1 0x20 DUP2 ADD DUP5 SWAP1 MSTORE SWAP1 SWAP2 DUP5 SWAP2 DUP4 SWAP2 DUP8 AND SWAP1 DUP3 SWAP1 DUP12 SWAP1 DUP3 SWAP1 PUSH1 0x40 ADD SUB SWAP3 GAS CALL DUP1 ISZERO PUSH2 0x9B1 JUMPI SWAP2 DUP4 SWAP2 DUP9 SWAP4 PUSH2 0xA21 JUMPI JUMPDEST POP PUSH1 0x44 DUP6 PUSH1 0x8 SLOAD AND SWAP2 DUP8 MLOAD SWAP5 DUP6 SWAP4 DUP5 SWAP3 PUSH4 0x6E553F65 PUSH1 0xE0 SHL DUP5 MSTORE DUP12 DUP5 ADD MSTORE CALLER PUSH1 0x24 DUP5 ADD MSTORE GAS CALL DUP1 ISZERO PUSH2 0x409 JUMPI PUSH2 0x9F0 JUMPI JUMPDEST POP PUSH2 0x81E CALLER PUSH2 0x1CEE JUMP JUMPDEST POP DUP2 PUSH1 0x2 SLOAD AND DUP1 EXTCODESIZE ISZERO PUSH2 0x3ED JUMPI DUP4 MLOAD PUSH4 0x37E238C5 PUSH1 0xE0 SHL DUP2 MSTORE ADDRESS DUP7 DUP3 ADD SWAP1 DUP2 MSTORE CALLER PUSH1 0x20 DUP3 ADD MSTORE SWAP1 SWAP2 DUP8 SWAP2 DUP4 SWAP2 SWAP1 DUP3 SWAP1 DUP5 SWAP1 DUP3 SWAP1 PUSH1 0x40 ADD SUB SWAP3 GAS CALL DUP1 ISZERO PUSH2 0x409 JUMPI SWAP1 DUP7 SWAP2 PUSH2 0x9DC JUMPI JUMPDEST POP PUSH1 0x6 SLOAD PUSH1 0x9 SLOAD DUP6 MLOAD PUSH4 0xA9059CBB PUSH1 0xE0 SHL DUP2 MSTORE CALLER DUP9 DUP3 ADD SWAP1 DUP2 MSTORE PUSH1 0x20 DUP2 ADD SWAP3 SWAP1 SWAP3 MSTORE SWAP3 DUP5 SWAP3 DUP5 SWAP3 DUP4 SWAP1 SUB PUSH1 0x40 ADD SWAP2 DUP4 SWAP2 DUP9 AND GAS CALL DUP1 ISZERO PUSH2 0x409 JUMPI PUSH2 0x9BF JUMPI JUMPDEST POP PUSH1 0xE DUP1 SLOAD PUSH1 0x1 PUSH1 0x1 PUSH1 0xA0 SHL SUB NOT AND CALLER OR SWAP1 SSTORE TIMESTAMP PUSH1 0xF SSTORE DUP4 SLOAD PUSH1 0xFF PUSH1 0xA0 SHL NOT AND PUSH1 0x1 PUSH1 0xA1 SHL OR DUP5 SSTORE PUSH2 0x8E0 PUSH2 0x8D8 PUSH2 0x20F5 JUMP JUMPDEST PUSH1 0x9 SLOAD PUSH2 0x1F44 JUMP JUMPDEST SWAP1 DUP3 PUSH1 0x3 SLOAD AND DUP1 EXTCODESIZE ISZERO PUSH2 0x9BB JUMPI DUP7 DUP1 SWAP2 PUSH1 0x24 DUP8 MLOAD DUP1 SWAP5 DUP2 SWAP4 PUSH4 0x2914526D PUSH1 0xE1 SHL DUP4 MSTORE ADDRESS DUP13 DUP5 ADD MSTORE GAS CALL DUP1 ISZERO PUSH2 0x9B1 JUMPI SWAP1 DUP8 SWAP2 PUSH2 0x99D JUMPI JUMPDEST POP POP PUSH32 0x5150AB7694A22FBC01C642BC10316565247DF962FA3F0AC3B5D1A18BA45B485B SWAP1 DUP5 MLOAD SWAP3 DUP4 MSTORE CALLER SWAP3 LOG2 PUSH1 0x2 SLOAD AND SWAP2 DUP3 EXTCODESIZE ISZERO PUSH2 0x3CA JUMPI DUP4 SWAP3 PUSH1 0x44 DUP5 SWAP3 DUP5 MLOAD SWAP6 DUP7 SWAP4 DUP5 SWAP3 PUSH4 0xA956239B PUSH1 0xE0 SHL DUP5 MSTORE ADDRESS SWAP1 DUP5 ADD MSTORE PUSH1 0x2 PUSH1 0x24 DUP5 ADD MSTORE GAS CALL SWAP1 DUP2 ISZERO PUSH2 0x3C1 JUMPI POP PUSH2 0x989 JUMPI JUMPDEST POP PUSH1 0x1 SWAP1 SSTORE DUP1 RETURN JUMPDEST PUSH2 0x992 SWAP1 PUSH2 0x1E8E JUMP JUMPDEST PUSH2 0x3BE JUMPI DUP1 DUP3 PUSH2 0x981 JUMP JUMPDEST PUSH2 0x9A6 SWAP1 PUSH2 0x1E8E JUMP JUMPDEST PUSH2 0x3ED JUMPI DUP6 DUP9 PUSH2 0x917 JUMP JUMPDEST DUP6 MLOAD RETURNDATASIZE DUP10 DUP3 RETURNDATACOPY RETURNDATASIZE SWAP1 REVERT JUMPDEST DUP7 DUP1 REVERT JUMPDEST PUSH2 0x9D5 SWAP1 DUP3 RETURNDATASIZE DUP5 GT PUSH2 0x44E JUMPI PUSH2 0x43E DUP2 DUP4 PUSH2 0x1EB6 JUMP JUMPDEST POP DUP7 PUSH2 0x8A5 JUMP JUMPDEST PUSH2 0x9E5 SWAP1 PUSH2 0x1E8E JUMP JUMPDEST PUSH2 0x405 JUMPI DUP5 DUP8 PUSH2 0x866 JUMP JUMPDEST DUP2 DUP1 SWAP7 POP RETURNDATASIZE DUP4 GT PUSH2 0xA1A JUMPI JUMPDEST PUSH2 0xA06 DUP2 DUP4 PUSH2 0x1EB6 JUMP JUMPDEST DUP2 ADD SUB SLT PUSH2 0xA16 JUMPI DUP5 SWAP4 DUP7 PUSH2 0x814 JUMP JUMPDEST PUSH0 DUP1 REVERT JUMPDEST POP RETURNDATASIZE PUSH2 0x9FC JUMP JUMPDEST PUSH2 0xA37 SWAP1 DUP4 RETURNDATASIZE DUP6 GT PUSH2 0x44E JUMPI PUSH2 0x43E DUP2 DUP4 PUSH2 0x1EB6 JUMP JUMPDEST POP DUP10 PUSH2 0x7E3 JUMP JUMPDEST PUSH2 0xA54 SWAP1 DUP4 RETURNDATASIZE DUP6 GT PUSH2 0x44E JUMPI PUSH2 0x43E DUP2 DUP4 PUSH2 0x1EB6 JUMP JUMPDEST POP DUP8 PUSH2 0x791 JUMP JUMPDEST PUSH2 0xA71 SWAP1 DUP4 RETURNDATASIZE DUP6 GT PUSH2 0x44E JUMPI PUSH2 0x43E DUP2 DUP4 PUSH2 0x1EB6 JUMP JUMPDEST POP DUP11 PUSH2 0x746 JUMP JUMPDEST DUP8 MLOAD RETURNDATASIZE DUP12 DUP3 RETURNDATACOPY RETURNDATASIZE SWAP1 REVERT JUMPDEST DUP4 MLOAD PUSH3 0x461BCD PUSH1 0xE5 SHL DUP2 MSTORE DUP1 DUP7 ADD DUP4 SWAP1 MSTORE PUSH1 0x1B PUSH1 0x24 DUP3 ADD MSTORE PUSH32 0x496E73756666696369656E74206C6F616E20616C6C6F77616E63650000000000 PUSH1 0x44 DUP3 ADD MSTORE PUSH1 0x64 SWAP1 REVERT JUMPDEST DUP1 SWAP3 POP DUP5 DUP1 SWAP3 POP RETURNDATASIZE DUP4 GT PUSH2 0xAEF JUMPI JUMPDEST PUSH2 0xADE DUP2 DUP4 PUSH2 0x1EB6 JUMP JUMPDEST DUP2 ADD SUB SLT PUSH2 0xA16 JUMPI DUP2 SWAP1 MLOAD DUP10 PUSH2 0x6D6 JUMP JUMPDEST POP RETURNDATASIZE PUSH2 0xAD4 JUMP JUMPDEST DUP6 MLOAD PUSH3 0x461BCD PUSH1 0xE5 SHL DUP2 MSTORE DUP1 DUP9 ADD DUP6 SWAP1 MSTORE PUSH1 0x21 PUSH1 0x24 DUP3 ADD MSTORE PUSH32 0x496E73756666696369656E7420636F6C6C61746572616C20616C6C6F77616E63 PUSH1 0x44 DUP3 ADD MSTORE PUSH1 0x65 PUSH1 0xF8 SHL PUSH1 0x64 DUP3 ADD MSTORE PUSH1 0x84 SWAP1 REVERT JUMPDEST SWAP1 POP DUP6 DUP2 DUP2 RETURNDATASIZE DUP4 GT PUSH2 0xB69 JUMPI JUMPDEST PUSH2 0xB5A DUP2 DUP4 PUSH2 0x1EB6 JUMP JUMPDEST DUP2 ADD SUB SLT PUSH2 0xA16 JUMPI MLOAD DUP12 PUSH2 0x68C JUMP JUMPDEST POP RETURNDATASIZE PUSH2 0xB50 JUMP JUMPDEST DUP9 MLOAD RETURNDATASIZE DUP13 DUP3 RETURNDATACOPY RETURNDATASIZE SWAP1 REVERT JUMPDEST DUP2 MLOAD PUSH3 0x461BCD PUSH1 0xE5 SHL DUP2 MSTORE PUSH1 0x20 DUP2 DUP6 ADD MSTORE PUSH1 0x19 PUSH1 0x24 DUP3 ADD MSTORE PUSH32 0x4C656E6465722063616E6E6F7420626520626F72726F77657200000000000000 PUSH1 0x44 DUP3 ADD MSTORE PUSH1 0x64 SWAP1 REVERT JUMPDEST PUSH1 0x64 SWAP1 PUSH1 0x20 DUP5 MLOAD SWAP2 PUSH3 0x461BCD PUSH1 0xE5 SHL DUP4 MSTORE DUP3 ADD MSTORE PUSH1 0x18 PUSH1 0x24 DUP3 ADD MSTORE PUSH32 0x496E76616C696420626F72726F77657220616464726573730000000000000000 PUSH1 0x44 DUP3 ADD MSTORE REVERT JUMPDEST PUSH1 0x64 SWAP1 PUSH1 0x20 DUP5 MLOAD SWAP2 PUSH3 0x461BCD PUSH1 0xE5 SHL DUP4 MSTORE DUP3 ADD MSTORE PUSH1 0x1A PUSH1 0x24 DUP3 ADD MSTORE PUSH32 0x4C6F616E206E6F7420726561647920746F206163746976617465000000000000 PUSH1 0x44 DUP3 ADD MSTORE REVERT JUMPDEST PUSH4 0x4E487B71 PUSH1 0xE0 SHL DUP4 MSTORE PUSH1 0x21 DUP3 MSTORE PUSH1 0x24 DUP4 REVERT JUMPDEST POP POP CALLVALUE PUSH2 0x188 JUMPI DUP2 PUSH1 0x3 NOT CALLDATASIZE ADD SLT PUSH2 0x188 JUMPI MLOAD SWAP1 DUP2 MSTORE PUSH1 0x20 SWAP1 RETURN JUMPDEST POP POP CALLVALUE PUSH2 0x188 JUMPI DUP2 PUSH1 0x3 NOT CALLDATASIZE ADD SLT PUSH2 0x188 JUMPI PUSH1 0x5 SLOAD SWAP1 MLOAD PUSH1 0x1 PUSH1 0x1 PUSH1 0xA0 SHL SUB SWAP1 SWAP2 AND DUP2 MSTORE PUSH1 0x20 SWAP1 RETURN JUMPDEST POP POP CALLVALUE PUSH2 0x188 JUMPI DUP2 PUSH1 0x3 NOT CALLDATASIZE ADD SLT PUSH2 0x188 JUMPI PUSH2 0x180 SWAP1 PUSH1 0x1 DUP1 PUSH1 0xA0 SHL SUB DUP1 PUSH1 0x5 SLOAD AND SWAP2 DUP2 PUSH1 0x6 SLOAD AND SWAP2 DUP1 PUSH1 0x7 SLOAD AND SWAP1 DUP1 PUSH1 0x8 SLOAD AND PUSH1 0x9 SLOAD PUSH1 0xA SLOAD PUSH1 0xB SLOAD SWAP2 DUP5 PUSH1 0xC SLOAD AND SWAP4 DUP6 PUSH1 0xD SLOAD AND SWAP6 PUSH1 0xE SLOAD AND SWAP7 PUSH1 0xF SLOAD SWAP9 PUSH1 0x10 SLOAD SWAP11 DUP2 MLOAD SWAP13 DUP14 MSTORE PUSH1 0x20 DUP14 ADD MSTORE DUP12 ADD MSTORE PUSH1 0x60 DUP11 ADD MSTORE PUSH1 0x80 DUP10 ADD MSTORE PUSH1 0xA0 DUP9 ADD MSTORE PUSH1 0xC0 DUP8 ADD MSTORE PUSH1 0xE0 DUP7 ADD MSTORE PUSH2 0x100 DUP6 ADD MSTORE PUSH2 0x120 DUP5 ADD MSTORE PUSH2 0x140 DUP4 ADD MSTORE PUSH2 0x160 DUP3 ADD MSTORE RETURN JUMPDEST SWAP1 POP CALLVALUE PUSH2 0x57A JUMPI DUP2 PUSH1 0x3 NOT CALLDATASIZE ADD SLT PUSH2 0x57A JUMPI DUP2 PUSH1 0x20 SWAP4 PUSH2 0xD4F PUSH2 0x1C71 JUMP JUMPDEST SWAP3 CALLDATALOAD DUP2 MSTORE PUSH1 0x1 DUP6 MSTORE KECCAK256 SWAP1 PUSH1 0x1 DUP1 PUSH1 0xA0 SHL SUB AND PUSH0 MSTORE DUP3 MSTORE PUSH1 0xFF DUP2 PUSH0 KECCAK256 SLOAD AND SWAP1 MLOAD SWAP1 ISZERO ISZERO DUP2 MSTORE RETURN JUMPDEST SWAP1 POP CALLVALUE PUSH2 0x57A JUMPI DUP3 PUSH1 0x3 NOT CALLDATASIZE ADD SLT PUSH2 0x57A JUMPI PUSH2 0xD8F PUSH2 0x1ED8 JUMP JUMPDEST PUSH1 0xFF DUP2 SLOAD PUSH1 0xA0 SHR AND PUSH1 0x6 DUP2 LT ISZERO PUSH2 0x1024 JUMPI PUSH2 0xFE2 JUMPI PUSH32 0xC60D7A62D8843F2B14BC63F2A5240B187980481AD8C001A3CAF4916AEF3F667E DUP4 MSTORE PUSH1 0x20 SWAP1 PUSH1 0x1 DUP3 MSTORE DUP3 DUP5 KECCAK256 CALLER PUSH0 MSTORE DUP3 MSTORE PUSH1 0xFF DUP4 PUSH0 KECCAK256 SLOAD AND ISZERO PUSH2 0xFB2 JUMPI PUSH1 0x6 SLOAD PUSH1 0x5 SLOAD PUSH1 0x9 SLOAD DUP6 MLOAD PUSH4 0x23B872DD PUSH1 0xE0 SHL DUP2 MSTORE PUSH1 0x1 PUSH1 0x1 PUSH1 0xA0 SHL SUB SWAP3 DUP4 AND DUP6 DUP3 ADD SWAP1 DUP2 MSTORE ADDRESS PUSH1 0x20 DUP3 ADD MSTORE PUSH1 0x40 DUP2 ADD SWAP3 SWAP1 SWAP3 MSTORE DUP8 SWAP5 SWAP4 SWAP1 SWAP2 DUP7 SWAP2 DUP4 SWAP2 DUP3 SWAP1 SUB PUSH1 0x60 ADD SWAP1 DUP3 SWAP1 DUP9 SWAP1 DUP8 AND GAS CALL DUP1 ISZERO PUSH2 0xF73 JUMPI PUSH2 0xF95 JUMPI JUMPDEST POP TIMESTAMP PUSH1 0x10 SSTORE DUP2 SLOAD PUSH1 0xFF PUSH1 0xA0 SHL NOT DUP2 AND PUSH1 0x1 PUSH1 0xA0 SHL OR DUP4 SSTORE PUSH1 0x6 SLOAD SWAP1 DUP3 AND SWAP1 DUP3 AND DUP2 EXTCODESIZE ISZERO PUSH2 0x405 JUMPI DUP5 SWAP2 PUSH1 0x64 DUP4 SWAP3 DUP10 MLOAD SWAP5 DUP6 SWAP4 DUP5 SWAP3 PUSH4 0x77FF76E7 PUSH1 0xE0 SHL DUP5 MSTORE ADDRESS DUP11 DUP6 ADD MSTORE PUSH1 0x24 DUP5 ADD MSTORE DUP2 PUSH1 0x44 DUP5 ADD MSTORE GAS CALL SWAP1 DUP2 ISZERO PUSH2 0xF73 JUMPI DUP5 SWAP2 PUSH2 0xF81 JUMPI JUMPDEST POP POP DUP1 PUSH1 0x2 SLOAD AND DUP1 EXTCODESIZE ISZERO PUSH2 0xF7D JUMPI DUP4 DUP1 SWAP2 PUSH1 0x24 DUP9 MLOAD DUP1 SWAP5 DUP2 SWAP4 PUSH4 0x7CBCB85 PUSH1 0xE2 SHL DUP4 MSTORE ADDRESS DUP10 DUP5 ADD MSTORE GAS CALL SWAP1 DUP2 ISZERO PUSH2 0xF73 JUMPI DUP5 SWAP2 PUSH2 0xF5F JUMPI JUMPDEST POP POP PUSH1 0x2 SLOAD AND SWAP1 DUP2 EXTCODESIZE ISZERO PUSH2 0x57A JUMPI DUP3 SWAP2 PUSH1 0x44 DUP4 SWAP3 DUP8 MLOAD SWAP5 DUP6 SWAP4 DUP5 SWAP3 PUSH4 0xA956239B PUSH1 0xE0 SHL DUP5 MSTORE ADDRESS SWAP1 DUP5 ADD MSTORE PUSH1 0x1 PUSH1 0x24 DUP5 ADD MSTORE GAS CALL DUP1 ISZERO PUSH2 0xF55 JUMPI PUSH2 0xF41 JUMPI JUMPDEST POP POP PUSH32 0x9E71D2FB732E68272B7E74ECFD14638673C1D77E19A5D390A3FFFF054D57C44B SWAP2 PUSH1 0x9 SLOAD SWAP1 MLOAD SWAP1 DUP2 MSTORE LOG1 PUSH1 0x1 DUP2 SSTORE DUP1 RETURN JUMPDEST PUSH2 0xF4A SWAP1 PUSH2 0x1E8E JUMP JUMPDEST PUSH2 0x57A JUMPI DUP3 PUSH0 PUSH2 0xF0D JUMP JUMPDEST DUP5 MLOAD RETURNDATASIZE DUP5 DUP3 RETURNDATACOPY RETURNDATASIZE SWAP1 REVERT JUMPDEST PUSH2 0xF68 SWAP1 PUSH2 0x1E8E JUMP JUMPDEST PUSH2 0x57A JUMPI DUP3 PUSH0 PUSH2 0xECF JUMP JUMPDEST DUP7 MLOAD RETURNDATASIZE DUP7 DUP3 RETURNDATACOPY RETURNDATASIZE SWAP1 REVERT JUMPDEST DUP4 DUP1 REVERT JUMPDEST PUSH2 0xF8A SWAP1 PUSH2 0x1E8E JUMP JUMPDEST PUSH2 0x57A JUMPI DUP3 PUSH0 PUSH2 0xE97 JUMP JUMPDEST PUSH2 0xFAB SWAP1 DUP6 RETURNDATASIZE DUP8 GT PUSH2 0x44E JUMPI PUSH2 0x43E DUP2 DUP4 PUSH2 0x1EB6 JUMP JUMPDEST POP PUSH0 PUSH2 0xE39 JUMP JUMPDEST SWAP2 MLOAD PUSH3 0x461BCD PUSH1 0xE5 SHL DUP2 MSTORE SWAP2 DUP3 ADD MSTORE PUSH1 0xC PUSH1 0x24 DUP3 ADD MSTORE PUSH12 0x496E76616C696420526F6C65 PUSH1 0xA0 SHL PUSH1 0x44 DUP3 ADD MSTORE PUSH1 0x64 SWAP1 REVERT JUMPDEST PUSH1 0x20 PUSH1 0x64 SWAP3 MLOAD SWAP2 PUSH3 0x461BCD PUSH1 0xE5 SHL DUP4 MSTORE DUP3 ADD MSTORE PUSH1 0x1B PUSH1 0x24 DUP3 ADD MSTORE PUSH32 0x4C6F616E206E6F7420696E20637265617461626C652073746174650000000000 PUSH1 0x44 DUP3 ADD MSTORE REVERT JUMPDEST PUSH4 0x4E487B71 PUSH1 0xE0 SHL DUP5 MSTORE PUSH1 0x21 DUP3 MSTORE PUSH1 0x24 DUP5 REVERT JUMPDEST POP POP CALLVALUE PUSH2 0x188 JUMPI DUP2 PUSH1 0x3 NOT CALLDATASIZE ADD SLT PUSH2 0x188 JUMPI PUSH1 0x3 SLOAD SWAP1 MLOAD PUSH1 0x1 PUSH1 0x1 PUSH1 0xA0 SHL SUB SWAP1 SWAP2 AND DUP2 MSTORE PUSH1 0x20 SWAP1 RETURN JUMPDEST POP POP CALLVALUE PUSH2 0x188 JUMPI DUP2 PUSH1 0x3 NOT CALLDATASIZE ADD SLT PUSH2 0x188 JUMPI PUSH1 0x20 SWAP1 PUSH2 0x1A8 PUSH2 0x8D8 PUSH2 0x20F5 JUMP JUMPDEST DUP4 DUP4 CALLVALUE PUSH2 0x188 JUMPI PUSH1 0x20 SWAP3 DUP4 PUSH1 0x3 NOT CALLDATASIZE ADD SLT PUSH2 0x57A JUMPI PUSH1 0x1 PUSH1 0x1 PUSH1 0xA0 SHL SUB DUP2 CALLDATALOAD DUP2 DUP2 AND SWAP1 DUP2 SWAP1 SUB PUSH2 0xA16 JUMPI PUSH1 0x24 DUP7 SWAP3 PUSH1 0x8 SLOAD AND SWAP4 DUP6 MLOAD SWAP5 DUP6 SWAP4 DUP5 SWAP3 PUSH4 0x70A08231 PUSH1 0xE0 SHL DUP5 MSTORE DUP4 ADD MSTORE GAS STATICCALL SWAP3 DUP4 ISZERO PUSH2 0x110C JUMPI SWAP3 PUSH2 0x10DD JUMPI JUMPDEST POP MLOAD SWAP1 DUP2 MSTORE RETURN JUMPDEST SWAP1 SWAP2 POP DUP3 DUP2 DUP2 RETURNDATASIZE DUP4 GT PUSH2 0x1105 JUMPI JUMPDEST PUSH2 0x10F5 DUP2 DUP4 PUSH2 0x1EB6 JUMP JUMPDEST DUP2 ADD SUB SLT PUSH2 0xA16 JUMPI MLOAD SWAP1 DUP4 PUSH2 0x10D6 JUMP JUMPDEST POP RETURNDATASIZE PUSH2 0x10EB JUMP JUMPDEST DUP3 MLOAD SWAP1 RETURNDATASIZE SWAP1 DUP3 RETURNDATACOPY RETURNDATASIZE SWAP1 REVERT JUMPDEST POP POP CALLVALUE PUSH2 0x188 JUMPI DUP2 PUSH1 0x3 NOT CALLDATASIZE ADD SLT PUSH2 0x188 JUMPI PUSH1 0x20 SWAP1 PUSH1 0xB SLOAD SWAP1 MLOAD SWAP1 DUP2 MSTORE RETURN JUMPDEST POP POP CALLVALUE PUSH2 0x188 JUMPI DUP2 PUSH1 0x3 NOT CALLDATASIZE ADD SLT PUSH2 0x188 JUMPI PUSH1 0x20 SWAP1 PUSH1 0xA SLOAD SWAP1 MLOAD SWAP1 DUP2 MSTORE RETURN JUMPDEST SWAP1 POP CALLVALUE PUSH2 0x57A JUMPI DUP3 PUSH1 0x3 NOT CALLDATASIZE ADD SLT PUSH2 0x57A JUMPI PUSH2 0x116F PUSH2 0x1ED8 JUMP JUMPDEST PUSH1 0xE SLOAD PUSH1 0x1 PUSH1 0x1 PUSH1 0xA0 SHL SUB SWAP2 SWAP1 DUP3 AND CALLER SUB PUSH2 0x16D6 JUMPI PUSH1 0xFF DUP2 SLOAD PUSH1 0xA0 SHR AND PUSH1 0x6 DUP2 LT ISZERO PUSH2 0x16C3 JUMPI PUSH1 0x2 SUB PUSH2 0x1669 JUMPI PUSH2 0x11A7 PUSH2 0x8D8 PUSH2 0x20F5 JUMP JUMPDEST SWAP2 PUSH2 0x11B0 PUSH2 0x20F5 JUMP JUMPDEST DUP4 SUB SWAP3 DUP1 DUP5 GT PUSH2 0x1656 JUMPI PUSH1 0x7 SLOAD DUP6 MLOAD PUSH4 0x6EB1769F PUSH1 0xE1 SHL DUP2 MSTORE CALLER DUP6 DUP3 ADD SWAP1 DUP2 MSTORE ADDRESS PUSH1 0x20 DUP3 DUP2 ADD SWAP2 SWAP1 SWAP2 MSTORE SWAP7 SWAP3 DUP6 AND SWAP2 SWAP1 DUP8 SWAP1 DUP3 SWAP1 DUP2 SWAP1 PUSH1 0x40 ADD SUB DUP2 DUP6 GAS STATICCALL DUP1 ISZERO PUSH2 0x164C JUMPI DUP5 SWAP2 DUP11 SWAP2 PUSH2 0x161B JUMPI JUMPDEST POP LT PUSH2 0x15C4 JUMPI DUP7 MLOAD PUSH4 0x70A08231 PUSH1 0xE0 SHL DUP1 DUP3 MSTORE CALLER DUP8 DUP4 ADD MSTORE SWAP4 SWAP1 DUP8 DUP2 PUSH1 0x24 DUP2 DUP7 GAS STATICCALL SWAP1 DUP2 ISZERO PUSH2 0x15BA JUMPI DUP11 SWAP2 PUSH2 0x158D JUMPI JUMPDEST POP LT PUSH2 0x1538 JUMPI PUSH1 0x5 SLOAD DUP8 MLOAD PUSH4 0x23B872DD PUSH1 0xE0 SHL DUP2 MSTORE CALLER DUP8 DUP3 ADD SWAP1 DUP2 MSTORE SWAP2 DUP7 AND PUSH1 0x1 PUSH1 0x1 PUSH1 0xA0 SHL SUB AND PUSH1 0x20 DUP4 ADD MSTORE PUSH1 0x40 DUP3 ADD DUP5 SWAP1 MSTORE DUP10 SWAP7 SWAP6 SWAP5 SWAP4 SWAP3 SWAP1 SWAP2 DUP9 SWAP2 DUP4 SWAP2 DUP3 SWAP1 DUP11 SWAP1 DUP3 SWAP1 PUSH1 0x60 ADD SUB SWAP3 GAS CALL DUP1 ISZERO PUSH2 0x14FD JUMPI PUSH2 0x151B JUMPI JUMPDEST POP DUP3 PUSH1 0x3 SLOAD AND DUP1 EXTCODESIZE ISZERO PUSH2 0x3ED JUMPI DUP8 MLOAD PUSH4 0x56F78A1D PUSH1 0xE0 SHL DUP2 MSTORE ADDRESS DUP7 DUP3 ADD SWAP1 DUP2 MSTORE CALLER PUSH1 0x20 DUP3 ADD MSTORE SWAP1 SWAP2 DUP8 SWAP2 DUP4 SWAP2 SWAP1 DUP3 SWAP1 DUP5 SWAP1 DUP3 SWAP1 PUSH1 0x40 ADD SUB SWAP3 GAS CALL SWAP1 DUP2 ISZERO PUSH2 0x14FD JUMPI DUP7 SWAP2 PUSH2 0x1507 JUMPI JUMPDEST POP POP DUP3 PUSH1 0x8 SLOAD AND DUP8 MLOAD SWAP2 PUSH4 0x63737AC9 PUSH1 0xE1 SHL DUP4 MSTORE DUP6 DUP4 ADD MSTORE DUP7 DUP3 PUSH1 0x24 DUP2 DUP5 GAS STATICCALL DUP1 ISZERO PUSH2 0x14FD JUMPI DUP8 SWAP3 DUP8 SWAP2 PUSH2 0x14C9 JUMPI JUMPDEST POP DUP9 MLOAD PUSH4 0x5D043B29 PUSH1 0xE1 SHL DUP2 MSTORE DUP7 DUP2 ADD SWAP2 DUP3 MSTORE CALLER PUSH1 0x20 DUP4 ADD DUP2 SWAP1 MSTORE PUSH1 0x40 DUP4 ADD MSTORE SWAP3 SWAP2 DUP4 SWAP2 DUP3 SWAP1 DUP10 SWAP1 DUP3 SWAP1 PUSH1 0x60 ADD SUB SWAP3 GAS CALL SWAP1 DUP2 ISZERO PUSH2 0x1490 JUMPI DUP7 SWAP2 PUSH2 0x149A JUMPI JUMPDEST POP POP DUP3 SLOAD PUSH1 0xFF PUSH1 0xA0 SHL NOT AND PUSH1 0x1 PUSH1 0xA2 SHL OR DUP4 SSTORE PUSH1 0x7 SLOAD DUP7 MLOAD SWAP2 DUP3 MSTORE ADDRESS DUP3 DUP6 ADD MSTORE DUP3 AND DUP6 DUP3 PUSH1 0x24 DUP2 DUP5 GAS STATICCALL DUP1 ISZERO PUSH2 0x1490 JUMPI DUP7 SWAP3 DUP7 SWAP2 PUSH2 0x145C JUMPI JUMPDEST POP DUP8 MLOAD PUSH4 0xA9059CBB PUSH1 0xE0 SHL DUP2 MSTORE CALLER DUP7 DUP3 ADD SWAP1 DUP2 MSTORE PUSH1 0x20 DUP2 ADD SWAP3 SWAP1 SWAP3 MSTORE SWAP3 SWAP2 DUP4 SWAP2 DUP3 SWAP1 DUP9 SWAP1 DUP3 SWAP1 PUSH1 0x40 ADD SUB SWAP3 GAS CALL DUP1 ISZERO PUSH2 0xF73 JUMPI PUSH2 0x143F JUMPI JUMPDEST POP PUSH2 0x13B5 PUSH2 0x1F65 JUMP JUMPDEST PUSH1 0x2 SLOAD AND SWAP1 DUP2 EXTCODESIZE ISZERO PUSH2 0x57A JUMPI DUP3 SWAP2 PUSH1 0x44 DUP4 SWAP3 DUP8 MLOAD SWAP5 DUP6 SWAP4 DUP5 SWAP3 PUSH4 0xA956239B PUSH1 0xE0 SHL DUP5 MSTORE ADDRESS DUP2 DUP6 ADD MSTORE PUSH1 0x24 DUP5 ADD MSTORE GAS CALL DUP1 ISZERO PUSH2 0xF55 JUMPI PUSH2 0x142B JUMPI JUMPDEST POP POP PUSH32 0x4002DBA848920F438092E08090CFB5FC47144C22704268B402C9553A1B5ADFE6 SWAP2 PUSH2 0x141E PUSH2 0x8D8 PUSH2 0x20F5 JUMP JUMPDEST SWAP1 MLOAD SWAP1 DUP2 MSTORE LOG1 PUSH1 0x1 DUP2 SSTORE DUP1 RETURN JUMPDEST PUSH2 0x1434 SWAP1 PUSH2 0x1E8E JUMP JUMPDEST PUSH2 0x57A JUMPI DUP3 PUSH0 PUSH2 0x13EF JUMP JUMPDEST PUSH2 0x1455 SWAP1 DUP6 RETURNDATASIZE DUP8 GT PUSH2 0x44E JUMPI PUSH2 0x43E DUP2 DUP4 PUSH2 0x1EB6 JUMP JUMPDEST POP PUSH0 PUSH2 0x13AC JUMP JUMPDEST SWAP3 DUP1 SWAP3 SWAP7 POP DUP4 SWAP2 POP RETURNDATASIZE DUP4 GT PUSH2 0x1489 JUMPI JUMPDEST PUSH2 0x1476 DUP2 DUP4 PUSH2 0x1EB6 JUMP JUMPDEST DUP2 ADD SUB SLT PUSH2 0xA16 JUMPI MLOAD DUP7 SWAP4 DUP6 SWAP2 DUP6 PUSH2 0x1374 JUMP JUMPDEST POP RETURNDATASIZE PUSH2 0x146C JUMP JUMPDEST DUP8 MLOAD RETURNDATASIZE DUP8 DUP3 RETURNDATACOPY RETURNDATASIZE SWAP1 REVERT JUMPDEST SWAP1 DUP1 SWAP3 SWAP6 POP RETURNDATASIZE DUP4 GT PUSH2 0x14C2 JUMPI JUMPDEST PUSH2 0x14B1 DUP2 DUP4 PUSH2 0x1EB6 JUMP JUMPDEST DUP2 ADD SUB SLT PUSH2 0xA16 JUMPI DUP6 SWAP3 DUP5 PUSH0 PUSH2 0x133B JUMP JUMPDEST POP RETURNDATASIZE PUSH2 0x14A7 JUMP JUMPDEST SWAP3 DUP1 SWAP3 SWAP8 POP DUP4 SWAP2 POP RETURNDATASIZE DUP4 GT PUSH2 0x14F6 JUMPI JUMPDEST PUSH2 0x14E3 DUP2 DUP4 PUSH2 0x1EB6 JUMP JUMPDEST DUP2 ADD SUB SLT PUSH2 0xA16 JUMPI MLOAD DUP8 SWAP5 DUP7 SWAP2 DUP7 PUSH2 0x12FC JUMP JUMPDEST POP RETURNDATASIZE PUSH2 0x14D9 JUMP JUMPDEST DUP9 MLOAD RETURNDATASIZE DUP9 DUP3 RETURNDATACOPY RETURNDATASIZE SWAP1 REVERT JUMPDEST PUSH2 0x1510 SWAP1 PUSH2 0x1E8E JUMP JUMPDEST PUSH2 0x405 JUMPI DUP5 PUSH0 PUSH2 0x12CD JUMP JUMPDEST PUSH2 0x1531 SWAP1 DUP8 RETURNDATASIZE DUP10 GT PUSH2 0x44E JUMPI PUSH2 0x43E DUP2 DUP4 PUSH2 0x1EB6 JUMP JUMPDEST POP PUSH0 PUSH2 0x1285 JUMP JUMPDEST DUP7 MLOAD PUSH3 0x461BCD PUSH1 0xE5 SHL DUP2 MSTORE DUP1 DUP7 ADD DUP8 SWAP1 MSTORE PUSH1 0x29 PUSH1 0x24 DUP3 ADD MSTORE PUSH32 0x496E73756666696369656E7420746F6B656E2062616C616E636520666F722072 PUSH1 0x44 DUP3 ADD MSTORE PUSH9 0x32B830BCB6B2B73A17 PUSH1 0xB9 SHL PUSH1 0x64 DUP3 ADD MSTORE PUSH1 0x84 SWAP1 REVERT JUMPDEST SWAP1 POP DUP8 DUP2 DUP2 RETURNDATASIZE DUP4 GT PUSH2 0x15B3 JUMPI JUMPDEST PUSH2 0x15A4 DUP2 DUP4 PUSH2 0x1EB6 JUMP JUMPDEST DUP2 ADD SUB SLT PUSH2 0xA16 JUMPI MLOAD PUSH0 PUSH2 0x122D JUMP JUMPDEST POP RETURNDATASIZE PUSH2 0x159A JUMP JUMPDEST DUP10 MLOAD RETURNDATASIZE DUP13 DUP3 RETURNDATACOPY RETURNDATASIZE SWAP1 REVERT JUMPDEST DUP7 MLOAD PUSH3 0x461BCD PUSH1 0xE5 SHL DUP2 MSTORE DUP1 DUP7 ADD DUP8 SWAP1 MSTORE PUSH1 0x2B PUSH1 0x24 DUP3 ADD MSTORE PUSH32 0x496E73756666696369656E7420746F6B656E20616C6C6F77616E636520666F72 PUSH1 0x44 DUP3 ADD MSTORE PUSH11 0x103932B830BCB6B2B73A17 PUSH1 0xA9 SHL PUSH1 0x64 DUP3 ADD MSTORE PUSH1 0x84 SWAP1 REVERT JUMPDEST DUP1 SWAP3 POP DUP9 DUP1 SWAP3 POP RETURNDATASIZE DUP4 GT PUSH2 0x1645 JUMPI JUMPDEST PUSH2 0x1634 DUP2 DUP4 PUSH2 0x1EB6 JUMP JUMPDEST DUP2 ADD SUB SLT PUSH2 0xA16 JUMPI DUP4 SWAP1 MLOAD PUSH0 PUSH2 0x11FD JUMP JUMPDEST POP RETURNDATASIZE PUSH2 0x162A JUMP JUMPDEST DUP9 MLOAD RETURNDATASIZE DUP12 DUP3 RETURNDATACOPY RETURNDATASIZE SWAP1 REVERT JUMPDEST PUSH4 0x4E487B71 PUSH1 0xE0 SHL DUP7 MSTORE PUSH1 0x11 DUP4 MSTORE PUSH1 0x24 DUP7 REVERT JUMPDEST PUSH1 0x84 SWAP1 PUSH1 0x20 DUP5 MLOAD SWAP2 PUSH3 0x461BCD PUSH1 0xE5 SHL DUP4 MSTORE DUP3 ADD MSTORE PUSH1 0x2E PUSH1 0x24 DUP3 ADD MSTORE PUSH32 0x4C6F616E206D7573742062652061637469766520746F2070726F636565642077 PUSH1 0x44 DUP3 ADD MSTORE PUSH14 0x34BA34103932B830BCB6B2B73A17 PUSH1 0x91 SHL PUSH1 0x64 DUP3 ADD MSTORE REVERT JUMPDEST PUSH4 0x4E487B71 PUSH1 0xE0 SHL DUP6 MSTORE PUSH1 0x21 DUP3 MSTORE PUSH1 0x24 DUP6 REVERT JUMPDEST PUSH1 0x84 SWAP1 PUSH1 0x20 DUP5 MLOAD SWAP2 PUSH3 0x461BCD PUSH1 0xE5 SHL DUP4 MSTORE DUP3 ADD MSTORE PUSH1 0x29 PUSH1 0x24 DUP3 ADD MSTORE PUSH32 0x4F6E6C792074686520626F72726F7765722063616E20696E6974696174652072 PUSH1 0x44 DUP3 ADD MSTORE PUSH9 0x32B830BCB6B2B73A17 PUSH1 0xB9 SHL PUSH1 0x64 DUP3 ADD MSTORE REVERT JUMPDEST SWAP1 POP CALLVALUE PUSH2 0x57A JUMPI DUP3 PUSH1 0x3 NOT CALLDATASIZE ADD SLT PUSH2 0x57A JUMPI DUP1 SLOAD PUSH1 0xFF DUP2 PUSH1 0xA0 SHR AND PUSH1 0x6 DUP2 LT ISZERO PUSH2 0x1A60 JUMPI PUSH1 0x2 SUB PUSH2 0x1A28 JUMPI PUSH2 0x1765 PUSH1 0xF SLOAD PUSH1 0xB SLOAD SWAP1 PUSH2 0x1F44 JUMP JUMPDEST TIMESTAMP LT ISZERO PUSH2 0x1770 JUMPI DUP4 DUP1 RETURN JUMPDEST PUSH1 0xFF PUSH1 0xA0 SHL NOT AND PUSH1 0x3 PUSH1 0xA0 SHL OR DUP2 SSTORE PUSH1 0x2 SLOAD PUSH1 0x1 PUSH1 0x1 PUSH1 0xA0 SHL SUB SWAP3 SWAP1 DUP4 AND DUP1 EXTCODESIZE ISZERO PUSH2 0x405 JUMPI DUP2 MLOAD DUP6 DUP2 PUSH1 0x44 DUP2 DUP4 PUSH4 0xA956239B PUSH1 0xE0 SHL SWAP7 DUP8 DUP4 MSTORE ADDRESS DUP11 DUP5 ADD MSTORE PUSH1 0x3 PUSH1 0x24 DUP5 ADD MSTORE GAS CALL DUP1 ISZERO PUSH2 0x1A1E JUMPI PUSH2 0x1A07 JUMPI JUMPDEST POP SWAP1 DUP5 SWAP3 SWAP2 DUP5 PUSH1 0x8 SLOAD AND DUP6 PUSH1 0xE SLOAD AND DUP4 MLOAD PUSH4 0x70A08231 PUSH1 0xE0 SHL DUP2 MSTORE DUP2 DUP7 DUP3 ADD MSTORE PUSH1 0x20 SWAP3 DUP4 DUP3 PUSH1 0x24 DUP2 DUP5 GAS STATICCALL SWAP2 DUP3 ISZERO PUSH2 0x19CB JUMPI DUP9 SWAP3 PUSH2 0x19D5 JUMPI JUMPDEST POP DUP6 MLOAD SWAP2 PUSH4 0x63737AC9 PUSH1 0xE1 SHL DUP4 MSTORE DUP8 DUP4 ADD MSTORE DUP4 DUP3 PUSH1 0x24 DUP2 DUP5 GAS STATICCALL SWAP2 DUP3 ISZERO PUSH2 0x19CB JUMPI DUP9 SWAP3 PUSH2 0x1999 JUMPI JUMPDEST POP PUSH1 0x5 SLOAD DUP7 MLOAD PUSH4 0x5D043B29 PUSH1 0xE1 SHL DUP2 MSTORE DUP1 DUP10 ADD SWAP4 DUP5 MSTORE PUSH1 0x1 PUSH1 0x1 PUSH1 0xA0 SHL SUB SWAP2 DUP12 AND DUP3 AND PUSH1 0x20 DUP6 ADD MSTORE SWAP4 AND PUSH1 0x40 DUP4 ADD MSTORE DUP4 SWAP2 DUP4 SWAP2 SWAP1 DUP3 SWAP1 DUP11 SWAP1 DUP3 SWAP1 PUSH1 0x60 ADD SUB SWAP3 GAS CALL DUP1 ISZERO PUSH2 0x409 JUMPI PUSH2 0x196A JUMPI JUMPDEST POP POP DUP5 PUSH1 0x3 SLOAD AND DUP6 PUSH1 0x5 SLOAD AND SWAP1 DUP1 EXTCODESIZE ISZERO PUSH2 0x3ED JUMPI DUP4 MLOAD PUSH4 0x389E0067 PUSH1 0xE1 SHL DUP2 MSTORE ADDRESS DUP7 DUP3 ADD SWAP1 DUP2 MSTORE PUSH1 0x1 PUSH1 0x1 PUSH1 0xA0 SHL SUB SWAP1 SWAP4 AND PUSH1 0x20 DUP5 ADD MSTORE SWAP2 DUP7 SWAP2 DUP4 SWAP2 DUP3 SWAP1 DUP5 SWAP1 DUP3 SWAP1 PUSH1 0x40 ADD SUB SWAP3 GAS CALL DUP1 ISZERO PUSH2 0x3E3 JUMPI SWAP1 DUP6 SWAP2 PUSH2 0x1956 JUMPI JUMPDEST POP POP PUSH2 0x18D0 PUSH2 0x1F65 JUMP JUMPDEST DUP5 PUSH1 0x2 SLOAD AND SWAP3 DUP4 EXTCODESIZE ISZERO PUSH2 0x405 JUMPI DUP3 MLOAD SWAP2 DUP3 MSTORE ADDRESS SWAP1 DUP3 ADD SWAP1 DUP2 MSTORE PUSH1 0x5 PUSH1 0x20 DUP3 ADD MSTORE SWAP1 SWAP3 DUP5 SWAP2 DUP5 SWAP2 SWAP1 DUP3 SWAP1 DUP5 SWAP1 DUP3 SWAP1 PUSH1 0x40 ADD SUB SWAP3 GAS CALL SWAP1 DUP2 ISZERO PUSH2 0x3C1 JUMPI POP PUSH2 0x1942 JUMPI JUMPDEST POP POP PUSH1 0xE SLOAD AND PUSH32 0xF4E5CF42CBB1D0C6C91E16D925349FEB6C5D970652F6EC77B1FF1262F7284CD5 DUP3 DUP1 LOG2 PUSH0 DUP1 DUP1 DUP4 DUP1 RETURN JUMPDEST PUSH2 0x194B SWAP1 PUSH2 0x1E8E JUMP JUMPDEST PUSH2 0x188 JUMPI DUP2 PUSH0 PUSH2 0x1911 JUMP JUMPDEST PUSH2 0x195F SWAP1 PUSH2 0x1E8E JUMP JUMPDEST PUSH2 0xF7D JUMPI DUP4 PUSH0 PUSH2 0x18C6 JUMP JUMPDEST SWAP1 DUP1 SWAP3 SWAP6 POP RETURNDATASIZE DUP4 GT PUSH2 0x1992 JUMPI JUMPDEST PUSH2 0x1981 DUP2 DUP4 PUSH2 0x1EB6 JUMP JUMPDEST DUP2 ADD SUB SLT PUSH2 0xA16 JUMPI DUP5 SWAP3 PUSH0 DUP1 PUSH2 0x186F JUMP JUMPDEST POP RETURNDATASIZE PUSH2 0x1977 JUMP JUMPDEST DUP5 DUP1 SWAP3 SWAP10 POP DUP2 SWAP4 POP RETURNDATASIZE DUP4 GT PUSH2 0x19C4 JUMPI JUMPDEST PUSH2 0x19B3 DUP2 DUP4 PUSH2 0x1EB6 JUMP JUMPDEST DUP2 ADD SUB SLT PUSH2 0xA16 JUMPI MLOAD DUP9 SWAP7 DUP4 PUSH2 0x1823 JUMP JUMPDEST POP RETURNDATASIZE PUSH2 0x19A9 JUMP JUMPDEST DUP7 MLOAD RETURNDATASIZE DUP11 DUP3 RETURNDATACOPY RETURNDATASIZE SWAP1 REVERT JUMPDEST SWAP8 POP SWAP1 POP DUP3 DUP8 DUP2 RETURNDATASIZE DUP2 GT PUSH2 0x1A00 JUMPI JUMPDEST PUSH2 0x19EE DUP2 DUP4 PUSH2 0x1EB6 JUMP JUMPDEST DUP2 ADD SUB SLT PUSH2 0xA16 JUMPI DUP9 SWAP7 MLOAD SWAP1 PUSH0 PUSH2 0x17FB JUMP JUMPDEST POP RETURNDATASIZE PUSH2 0x19E4 JUMP JUMPDEST PUSH2 0x1A15 SWAP1 SWAP6 SWAP2 SWAP4 SWAP3 SWAP6 PUSH2 0x1E8E JUMP JUMPDEST SWAP4 SWAP1 SWAP2 PUSH0 PUSH2 0x17C2 JUMP JUMPDEST DUP4 MLOAD RETURNDATASIZE DUP9 DUP3 RETURNDATACOPY RETURNDATASIZE SWAP1 REVERT JUMPDEST POP PUSH1 0x20 PUSH1 0x64 SWAP3 MLOAD SWAP2 PUSH3 0x461BCD PUSH1 0xE5 SHL DUP4 MSTORE DUP3 ADD MSTORE PUSH1 0x12 PUSH1 0x24 DUP3 ADD MSTORE PUSH18 0x4C6F616E206973206E6F7420616374697665 PUSH1 0x70 SHL PUSH1 0x44 DUP3 ADD MSTORE REVERT JUMPDEST PUSH4 0x4E487B71 PUSH1 0xE0 SHL DUP6 MSTORE PUSH1 0x21 DUP4 MSTORE PUSH1 0x24 DUP6 REVERT JUMPDEST DUP4 DUP4 CALLVALUE PUSH2 0x188 JUMPI DUP1 PUSH1 0x3 NOT CALLDATASIZE ADD SLT PUSH2 0x188 JUMPI PUSH2 0x1A8D PUSH2 0x1C71 JUMP JUMPDEST SWAP1 CALLER PUSH1 0x1 PUSH1 0x1 PUSH1 0xA0 SHL SUB DUP4 AND SUB PUSH2 0x1AAA JUMPI POP PUSH2 0x576 SWAP2 SWAP3 CALLDATALOAD PUSH2 0x1E19 JUMP JUMPDEST MLOAD PUSH4 0x334BD919 PUSH1 0xE1 SHL DUP2 MSTORE DUP4 SWAP1 REVERT JUMPDEST SWAP2 SWAP1 POP CALLVALUE PUSH2 0x57A JUMPI DUP1 PUSH1 0x3 NOT CALLDATASIZE ADD SLT PUSH2 0x57A JUMPI PUSH2 0x576 SWAP2 CALLDATALOAD PUSH2 0x1ADE PUSH1 0x1 PUSH2 0x560 PUSH2 0x1C71 JUMP JUMPDEST PUSH2 0x1DA0 JUMP JUMPDEST POP POP CALLVALUE PUSH2 0x188 JUMPI DUP2 PUSH1 0x3 NOT CALLDATASIZE ADD SLT PUSH2 0x188 JUMPI PUSH1 0x20 SWAP1 PUSH1 0x10 SLOAD SWAP1 MLOAD SWAP1 DUP2 MSTORE RETURN JUMPDEST SWAP1 POP CALLVALUE PUSH2 0x57A JUMPI PUSH1 0x20 CALLDATASIZE PUSH1 0x3 NOT ADD SLT PUSH2 0x57A JUMPI DUP2 PUSH1 0x20 SWAP4 PUSH1 0x1 SWAP3 CALLDATALOAD DUP2 MSTORE DUP3 DUP6 MSTORE KECCAK256 ADD SLOAD SWAP1 MLOAD SWAP1 DUP2 MSTORE RETURN JUMPDEST POP POP CALLVALUE PUSH2 0x188 JUMPI DUP2 PUSH1 0x3 NOT CALLDATASIZE ADD SLT PUSH2 0x188 JUMPI PUSH1 0xE SLOAD SWAP1 MLOAD PUSH1 0x1 PUSH1 0x1 PUSH1 0xA0 SHL SUB SWAP1 SWAP2 AND DUP2 MSTORE PUSH1 0x20 SWAP1 RETURN JUMPDEST SWAP1 POP CALLVALUE PUSH2 0x57A JUMPI DUP3 PUSH1 0x3 NOT CALLDATASIZE ADD SLT PUSH2 0x57A JUMPI SLOAD SWAP1 MLOAD PUSH1 0x1 PUSH1 0x1 PUSH1 0xA0 SHL SUB SWAP1 SWAP2 AND DUP2 MSTORE PUSH1 0x20 SWAP2 POP RETURN JUMPDEST POP POP CALLVALUE PUSH2 0x188 JUMPI DUP2 PUSH1 0x3 NOT CALLDATASIZE ADD SLT PUSH2 0x188 JUMPI PUSH1 0x20 SWAP1 MLOAD PUSH32 0x2344277E405079EC07749D374BA0B5862A4E45A6A05AC889DBB4A991C6F9354D DUP2 MSTORE RETURN JUMPDEST POP POP CALLVALUE PUSH2 0x188 JUMPI DUP2 PUSH1 0x3 NOT CALLDATASIZE ADD SLT PUSH2 0x188 JUMPI PUSH1 0x7 SLOAD SWAP1 MLOAD PUSH1 0x1 PUSH1 0x1 PUSH1 0xA0 SHL SUB SWAP1 SWAP2 AND DUP2 MSTORE PUSH1 0x20 SWAP1 RETURN JUMPDEST SWAP1 POP CALLVALUE PUSH2 0x57A JUMPI PUSH1 0x20 CALLDATASIZE PUSH1 0x3 NOT ADD SLT PUSH2 0x57A JUMPI CALLDATALOAD SWAP1 PUSH4 0xFFFFFFFF PUSH1 0xE0 SHL DUP3 AND DUP1 SWAP3 SUB PUSH2 0x57A JUMPI PUSH1 0x20 SWAP3 POP PUSH4 0x7965DB0B PUSH1 0xE0 SHL DUP3 EQ SWAP2 DUP3 ISZERO PUSH2 0x1C26 JUMPI JUMPDEST POP MLOAD SWAP1 ISZERO ISZERO DUP2 MSTORE RETURN JUMPDEST PUSH4 0x1FFC9A7 PUSH1 0xE0 SHL EQ SWAP2 POP PUSH0 PUSH2 0x1C1D JUMP JUMPDEST DUP5 SWAP1 CALLVALUE PUSH2 0x188 JUMPI DUP2 PUSH1 0x3 NOT CALLDATASIZE ADD SLT PUSH2 0x188 JUMPI DUP1 PUSH32 0xC60D7A62D8843F2B14BC63F2A5240B187980481AD8C001A3CAF4916AEF3F667E PUSH1 0x20 SWAP3 MSTORE RETURN JUMPDEST PUSH1 0x24 CALLDATALOAD SWAP1 PUSH1 0x1 PUSH1 0x1 PUSH1 0xA0 SHL SUB DUP3 AND DUP3 SUB PUSH2 0xA16 JUMPI JUMP JUMPDEST SWAP2 SWAP1 PUSH1 0x20 DUP4 ADD SWAP3 PUSH1 0x6 DUP3 LT ISZERO PUSH2 0x1C9A JUMPI MSTORE JUMP JUMPDEST PUSH4 0x4E487B71 PUSH1 0xE0 SHL PUSH0 MSTORE PUSH1 0x21 PUSH1 0x4 MSTORE PUSH1 0x24 PUSH0 REVERT JUMPDEST DUP1 PUSH0 MSTORE PUSH1 0x1 PUSH1 0x20 MSTORE PUSH1 0x40 PUSH0 KECCAK256 CALLER PUSH0 MSTORE PUSH1 0x20 MSTORE PUSH1 0xFF PUSH1 0x40 PUSH0 KECCAK256 SLOAD AND ISZERO PUSH2 0x1CD0 JUMPI POP JUMP JUMPDEST PUSH1 0x44 SWAP1 PUSH1 0x40 MLOAD SWAP1 PUSH4 0xE2517D3F PUSH1 0xE0 SHL DUP3 MSTORE CALLER PUSH1 0x4 DUP4 ADD MSTORE PUSH1 0x24 DUP3 ADD MSTORE REVERT JUMPDEST PUSH1 0x1 PUSH1 0x1 PUSH1 0xA0 SHL SUB AND PUSH0 DUP2 DUP2 MSTORE PUSH32 0x37796693C9136991966ECABEB225DDDF75F7AE82D42C98571AFC1843B5B26ACD PUSH1 0x20 MSTORE PUSH1 0x40 DUP2 KECCAK256 SLOAD SWAP1 SWAP2 SWAP1 PUSH32 0x2344277E405079EC07749D374BA0B5862A4E45A6A05AC889DBB4A991C6F9354D SWAP1 PUSH1 0xFF AND PUSH2 0x1D9B JUMPI DUP1 DUP4 MSTORE PUSH1 0x1 PUSH1 0x20 MSTORE PUSH1 0x40 DUP4 KECCAK256 DUP3 DUP5 MSTORE PUSH1 0x20 MSTORE PUSH1 0x40 DUP4 KECCAK256 PUSH1 0x1 PUSH1 0xFF NOT DUP3 SLOAD AND OR SWAP1 SSTORE PUSH32 0x2F8788117E7EFF1D82E926EC794901D17C78024A50270940304540A733656F0D CALLER SWAP4 DUP1 LOG4 PUSH1 0x1 SWAP1 JUMP JUMPDEST POP POP SWAP1 JUMP JUMPDEST SWAP1 PUSH0 SWAP2 DUP1 DUP4 MSTORE PUSH1 0x1 PUSH1 0x20 MSTORE PUSH1 0x40 DUP4 KECCAK256 SWAP2 PUSH1 0x1 DUP1 PUSH1 0xA0 SHL SUB AND SWAP2 DUP3 DUP5 MSTORE PUSH1 0x20 MSTORE PUSH1 0xFF PUSH1 0x40 DUP5 KECCAK256 SLOAD AND ISZERO PUSH0 EQ PUSH2 0x1D9B JUMPI DUP1 DUP4 MSTORE PUSH1 0x1 PUSH1 0x20 MSTORE PUSH1 0x40 DUP4 KECCAK256 DUP3 DUP5 MSTORE PUSH1 0x20 MSTORE PUSH1 0x40 DUP4 KECCAK256 PUSH1 0x1 PUSH1 0xFF NOT DUP3 SLOAD AND OR SWAP1 SSTORE PUSH32 0x2F8788117E7EFF1D82E926EC794901D17C78024A50270940304540A733656F0D CALLER SWAP4 DUP1 LOG4 PUSH1 0x1 SWAP1 JUMP JUMPDEST SWAP1 PUSH0 SWAP2 DUP1 DUP4 MSTORE PUSH1 0x1 PUSH1 0x20 MSTORE PUSH1 0x40 DUP4 KECCAK256 SWAP2 PUSH1 0x1 DUP1 PUSH1 0xA0 SHL SUB AND SWAP2 DUP3 DUP5 MSTORE PUSH1 0x20 MSTORE PUSH1 0xFF PUSH1 0x40 DUP5 KECCAK256 SLOAD AND PUSH0 EQ PUSH2 0x1D9B JUMPI DUP1 DUP4 MSTORE PUSH1 0x1 PUSH1 0x20 MSTORE PUSH1 0x40 DUP4 KECCAK256 DUP3 DUP5 MSTORE PUSH1 0x20 MSTORE PUSH1 0x40 DUP4 KECCAK256 PUSH1 0xFF NOT DUP2 SLOAD AND SWAP1 SSTORE PUSH32 0xF6391F5C32D9C69D2A47EA670B442974B53935D1EDC7FD64EB21E047A839171B CALLER SWAP4 DUP1 LOG4 PUSH1 0x1 SWAP1 JUMP JUMPDEST PUSH8 0xFFFFFFFFFFFFFFFF DUP2 GT PUSH2 0x1EA2 JUMPI PUSH1 0x40 MSTORE JUMP JUMPDEST PUSH4 0x4E487B71 PUSH1 0xE0 SHL PUSH0 MSTORE PUSH1 0x41 PUSH1 0x4 MSTORE PUSH1 0x24 PUSH0 REVERT JUMPDEST SWAP1 PUSH1 0x1F DUP1 NOT SWAP2 ADD AND DUP2 ADD SWAP1 DUP2 LT PUSH8 0xFFFFFFFFFFFFFFFF DUP3 GT OR PUSH2 0x1EA2 JUMPI PUSH1 0x40 MSTORE JUMP JUMPDEST PUSH1 0x2 PUSH0 SLOAD EQ PUSH2 0x1EE7 JUMPI PUSH1 0x2 PUSH0 SSTORE JUMP JUMPDEST PUSH1 0x40 MLOAD PUSH3 0x461BCD PUSH1 0xE5 SHL DUP2 MSTORE PUSH1 0x20 PUSH1 0x4 DUP3 ADD MSTORE PUSH1 0x1F PUSH1 0x24 DUP3 ADD MSTORE PUSH32 0x5265656E7472616E637947756172643A207265656E7472616E742063616C6C00 PUSH1 0x44 DUP3 ADD MSTORE PUSH1 0x64 SWAP1 REVERT JUMPDEST SWAP1 DUP2 PUSH1 0x20 SWAP2 SUB SLT PUSH2 0xA16 JUMPI MLOAD DUP1 ISZERO ISZERO DUP2 SUB PUSH2 0xA16 JUMPI SWAP1 JUMP JUMPDEST SWAP2 SWAP1 DUP3 ADD DUP1 SWAP3 GT PUSH2 0x1F51 JUMPI JUMP JUMPDEST PUSH4 0x4E487B71 PUSH1 0xE0 SHL PUSH0 MSTORE PUSH1 0x11 PUSH1 0x4 MSTORE PUSH1 0x24 PUSH0 REVERT JUMPDEST PUSH1 0x4 DUP1 SLOAD PUSH1 0xFF PUSH1 0xA0 SHL NOT AND PUSH1 0x5 PUSH1 0xA0 SHL OR DUP2 SSTORE PUSH1 0x2 SLOAD PUSH0 SWAP2 PUSH1 0x1 PUSH1 0x1 PUSH1 0xA0 SHL SUB SWAP2 DUP3 AND SWAP2 DUP3 EXTCODESIZE ISZERO PUSH2 0xF7D JUMPI PUSH1 0x40 SWAP3 DUP4 MLOAD DUP6 DUP2 PUSH1 0x24 DUP2 DUP4 PUSH4 0x7E72C7D7 PUSH1 0xE0 SHL SWAP7 DUP8 DUP4 MSTORE ADDRESS DUP11 DUP5 ADD MSTORE GAS CALL DUP1 ISZERO PUSH2 0x20D8 JUMPI PUSH2 0x20E2 JUMPI JUMPDEST POP DUP2 PUSH1 0x3 SLOAD AND DUP1 EXTCODESIZE ISZERO PUSH2 0x3ED JUMPI DUP6 DUP1 SWAP2 PUSH1 0x24 DUP8 MLOAD DUP1 SWAP5 DUP2 SWAP4 PUSH4 0x38E270ED PUSH1 0xE0 SHL DUP4 MSTORE ADDRESS DUP11 DUP5 ADD MSTORE GAS CALL DUP1 ISZERO PUSH2 0x20D8 JUMPI SWAP1 DUP7 SWAP2 PUSH2 0x20C4 JUMPI JUMPDEST POP POP DUP2 DUP4 SLOAD AND SWAP1 DUP2 EXTCODESIZE ISZERO PUSH2 0x3ED JUMPI DUP6 SWAP2 PUSH1 0x24 DUP4 SWAP3 DUP8 MLOAD SWAP5 DUP6 SWAP4 DUP5 SWAP3 DUP4 MSTORE ADDRESS DUP10 DUP5 ADD MSTORE GAS CALL DUP1 ISZERO PUSH2 0x20BA JUMPI SWAP1 DUP6 SWAP2 PUSH2 0x20A6 JUMPI JUMPDEST POP POP PUSH1 0x2 SLOAD AND SWAP1 DUP2 EXTCODESIZE ISZERO PUSH2 0xF7D JUMPI DUP3 MLOAD PUSH4 0xA956239B PUSH1 0xE0 SHL DUP2 MSTORE ADDRESS SWAP2 DUP2 ADD SWAP2 DUP3 MSTORE PUSH1 0x5 PUSH1 0x20 DUP4 ADD MSTORE SWAP3 SWAP2 DUP5 SWAP2 DUP5 SWAP2 SWAP1 DUP3 SWAP1 DUP5 SWAP1 DUP3 SWAP1 PUSH1 0x40 ADD SUB SWAP3 GAS CALL SWAP1 DUP2 ISZERO PUSH2 0x3C1 JUMPI POP PUSH2 0x2092 JUMPI JUMPDEST POP DUP1 PUSH32 0x409FCED1B85AE32A29FB1E18894D8361A5F2653DC27ADF7102D86175C2901D7C SWAP2 LOG1 JUMP JUMPDEST PUSH2 0x209C DUP3 SWAP2 PUSH2 0x1E8E JUMP JUMPDEST PUSH2 0x3BE JUMPI PUSH0 PUSH2 0x206B JUMP JUMPDEST PUSH2 0x20AF SWAP1 PUSH2 0x1E8E JUMP JUMPDEST PUSH2 0xF7D JUMPI DUP4 PUSH0 PUSH2 0x2022 JUMP JUMPDEST DUP5 MLOAD RETURNDATASIZE DUP8 DUP3 RETURNDATACOPY RETURNDATASIZE SWAP1 REVERT JUMPDEST PUSH2 0x20CD SWAP1 PUSH2 0x1E8E JUMP JUMPDEST PUSH2 0x405 JUMPI DUP5 PUSH0 PUSH2 0x1FF0 JUMP JUMPDEST DUP6 MLOAD RETURNDATASIZE DUP9 DUP3 RETURNDATACOPY RETURNDATASIZE SWAP1 REVERT JUMPDEST PUSH2 0x20EE SWAP1 SWAP6 SWAP2 SWAP6 PUSH2 0x1E8E JUMP JUMPDEST SWAP4 PUSH0 PUSH2 0x1FB9 JUMP JUMPDEST PUSH1 0xD SLOAD PUSH1 0x9 SLOAD PUSH1 0xA SLOAD PUSH1 0x40 MLOAD PUSH4 0xEFDD7C07 PUSH1 0xE0 SHL DUP2 MSTORE PUSH1 0x4 DUP2 ADD SWAP3 SWAP1 SWAP3 MSTORE PUSH1 0x24 DUP3 ADD MSTORE SWAP1 PUSH1 0x20 SWAP1 DUP3 SWAP1 PUSH1 0x44 SWAP1 DUP3 SWAP1 PUSH1 0x1 PUSH1 0x1 PUSH1 0xA0 SHL SUB AND GAS STATICCALL SWAP1 DUP2 ISZERO PUSH2 0x216D JUMPI PUSH0 SWAP2 PUSH2 0x213F JUMPI POP SWAP1 JUMP JUMPDEST SWAP1 PUSH1 0x20 DUP3 RETURNDATASIZE DUP3 GT PUSH2 0x2165 JUMPI JUMPDEST DUP2 PUSH2 0x2158 PUSH1 0x20 SWAP4 DUP4 PUSH2 0x1EB6 JUMP JUMPDEST DUP2 ADD SUB SLT PUSH2 0x3BE JUMPI POP MLOAD SWAP1 JUMP JUMPDEST RETURNDATASIZE SWAP2 POP PUSH2 0x214B JUMP JUMPDEST PUSH1 0x40 MLOAD RETURNDATASIZE PUSH0 DUP3 RETURNDATACOPY RETURNDATASIZE SWAP1 REVERT INVALID LOG2 PUSH5 0x6970667358 0x22 SLT KECCAK256 SWAP11 0xFC ADDMOD BASEFEE 0xDD 0x5D 0xF 0xE8 SWAP10 PUSH25 0xAFD1660E0075DA118AA4633C911C8B6C5CE3084A6F0564736F PUSH13 0x6343000814003360C080604052 CALLVALUE PUSH3 0x368 JUMPI PUSH3 0x15AF DUP1 CODESIZE SUB DUP1 SWAP2 PUSH3 0x20 DUP3 DUP6 PUSH3 0x36C JUMP JUMPDEST DUP4 CODECOPY DUP2 ADD SWAP1 PUSH1 0x60 DUP2 DUP4 SUB SLT PUSH3 0x368 JUMPI DUP1 MLOAD SWAP2 PUSH1 0x1 PUSH1 0x1 PUSH1 0xA0 SHL SUB DUP4 AND DUP4 SUB PUSH3 0x368 JUMPI PUSH1 0x20 DUP3 DUP2 ADD MLOAD SWAP1 SWAP3 PUSH1 0x1 PUSH1 0x1 PUSH1 0x40 SHL SUB SWAP2 DUP3 DUP2 GT PUSH3 0x368 JUMPI DUP4 PUSH3 0x6B SWAP2 DUP4 ADD PUSH3 0x3AC JUMP JUMPDEST SWAP3 PUSH1 0x40 DUP3 ADD MLOAD DUP4 DUP2 GT PUSH3 0x368 JUMPI PUSH3 0x85 SWAP3 ADD PUSH3 0x3AC JUMP JUMPDEST DUP3 MLOAD DUP3 DUP2 GT PUSH3 0x273 JUMPI PUSH1 0x3 SWAP2 DUP3 SLOAD SWAP2 PUSH1 0x1 SWAP6 DUP7 DUP5 DUP2 SHR SWAP5 AND DUP1 ISZERO PUSH3 0x35D JUMPI JUMPDEST DUP9 DUP6 LT EQ PUSH3 0x349 JUMPI DUP2 SWAP1 PUSH1 0x1F SWAP5 DUP6 DUP2 GT PUSH3 0x2F6 JUMPI JUMPDEST POP DUP9 SWAP1 DUP6 DUP4 GT PUSH1 0x1 EQ PUSH3 0x293 JUMPI PUSH0 SWAP3 PUSH3 0x287 JUMPI JUMPDEST POP POP PUSH0 NOT DUP3 DUP7 SHL SHR NOT AND SWAP1 DUP7 SHL OR DUP4 SSTORE JUMPDEST DUP1 MLOAD SWAP4 DUP5 GT PUSH3 0x273 JUMPI PUSH1 0x4 SWAP6 DUP7 SLOAD DUP7 DUP2 DUP2 SHR SWAP2 AND DUP1 ISZERO PUSH3 0x268 JUMPI JUMPDEST DUP3 DUP3 LT EQ PUSH3 0x255 JUMPI DUP4 DUP2 GT PUSH3 0x20D JUMPI JUMPDEST POP DUP1 SWAP3 DUP6 GT PUSH1 0x1 EQ PUSH3 0x1A3 JUMPI POP SWAP4 DUP4 SWAP5 SWAP2 DUP5 SWAP3 PUSH0 SWAP6 PUSH3 0x197 JUMPI JUMPDEST POP POP SHL SWAP3 PUSH0 NOT SWAP2 SHL SHR NOT AND OR SWAP1 SSTORE JUMPDEST PUSH3 0x149 DUP2 PUSH3 0x414 JUMP JUMPDEST SWAP1 ISZERO PUSH3 0x18E JUMPI JUMPDEST PUSH1 0xA0 MSTORE PUSH1 0x80 MSTORE PUSH1 0x40 MLOAD PUSH2 0x10D5 SWAP1 DUP2 PUSH3 0x4DA DUP3 CODECOPY PUSH1 0x80 MLOAD DUP2 DUP2 DUP2 PUSH2 0x50D ADD MSTORE DUP2 DUP2 PUSH2 0xADA ADD MSTORE DUP2 DUP2 PUSH2 0xC6B ADD MSTORE PUSH2 0xE11 ADD MSTORE PUSH1 0xA0 MLOAD DUP2 PUSH2 0x552 ADD MSTORE RETURN JUMPDEST POP PUSH1 0x12 PUSH3 0x151 JUMP JUMPDEST ADD MLOAD SWAP4 POP PUSH0 DUP1 PUSH3 0x12F JUMP JUMPDEST SWAP3 SWAP2 SWAP1 DUP5 PUSH1 0x1F NOT DUP2 AND DUP9 PUSH0 MSTORE DUP6 PUSH0 KECCAK256 SWAP6 PUSH0 SWAP1 JUMPDEST DUP10 DUP4 DUP4 LT PUSH3 0x1F2 JUMPI POP POP POP LT PUSH3 0x1D8 JUMPI JUMPDEST POP POP POP POP DUP2 SHL ADD SWAP1 SSTORE PUSH3 0x13E JUMP JUMPDEST ADD MLOAD SWAP1 PUSH1 0xF8 DUP5 PUSH0 NOT SWAP3 SHL AND SHR NOT AND SWAP1 SSTORE PUSH0 DUP1 DUP1 DUP1 PUSH3 0x1C9 JUMP JUMPDEST DUP6 DUP8 ADD MLOAD DUP10 SSTORE SWAP1 SWAP8 ADD SWAP7 SWAP5 DUP6 ADD SWAP5 DUP9 SWAP4 POP SWAP1 DUP2 ADD SWAP1 PUSH3 0x1B6 JUMP JUMPDEST DUP8 PUSH0 MSTORE DUP2 PUSH0 KECCAK256 DUP5 DUP1 DUP9 ADD PUSH1 0x5 SHR DUP3 ADD SWAP3 DUP5 DUP10 LT PUSH3 0x24B JUMPI JUMPDEST ADD PUSH1 0x5 SHR ADD SWAP1 DUP8 SWAP1 JUMPDEST DUP3 DUP2 LT PUSH3 0x23F JUMPI POP POP PUSH3 0x113 JUMP JUMPDEST PUSH0 DUP2 SSTORE ADD DUP8 SWAP1 PUSH3 0x22F JUMP JUMPDEST SWAP3 POP DUP2 SWAP3 PUSH3 0x226 JUMP JUMPDEST PUSH1 0x22 DUP9 PUSH4 0x4E487B71 PUSH1 0xE0 SHL PUSH0 MSTORE MSTORE PUSH1 0x24 PUSH0 REVERT JUMPDEST SWAP1 PUSH1 0x7F AND SWAP1 PUSH3 0x101 JUMP JUMPDEST PUSH4 0x4E487B71 PUSH1 0xE0 SHL PUSH0 MSTORE PUSH1 0x41 PUSH1 0x4 MSTORE PUSH1 0x24 PUSH0 REVERT JUMPDEST ADD MLOAD SWAP1 POP PUSH0 DUP1 PUSH3 0xD3 JUMP JUMPDEST SWAP1 DUP9 SWAP4 POP PUSH1 0x1F NOT DUP4 AND SWAP2 DUP8 PUSH0 MSTORE DUP11 PUSH0 KECCAK256 SWAP3 PUSH0 JUMPDEST DUP13 DUP3 DUP3 LT PUSH3 0x2DF JUMPI POP POP DUP5 GT PUSH3 0x2C7 JUMPI JUMPDEST POP POP POP DUP2 SHL ADD DUP4 SSTORE PUSH3 0xE4 JUMP JUMPDEST ADD MLOAD PUSH0 NOT DUP4 DUP9 SHL PUSH1 0xF8 AND SHR NOT AND SWAP1 SSTORE PUSH0 DUP1 DUP1 PUSH3 0x2B9 JUMP JUMPDEST DUP4 DUP6 ADD MLOAD DUP7 SSTORE DUP13 SWAP8 SWAP1 SWAP6 ADD SWAP5 SWAP4 DUP5 ADD SWAP4 ADD PUSH3 0x2A6 JUMP JUMPDEST SWAP1 SWAP2 POP DUP6 PUSH0 MSTORE DUP9 PUSH0 KECCAK256 DUP6 DUP1 DUP6 ADD PUSH1 0x5 SHR DUP3 ADD SWAP3 DUP12 DUP7 LT PUSH3 0x33F JUMPI JUMPDEST SWAP2 DUP11 SWAP2 DUP7 SWAP6 SWAP5 SWAP4 ADD PUSH1 0x5 SHR ADD SWAP2 JUMPDEST DUP3 DUP2 LT PUSH3 0x330 JUMPI POP POP PUSH3 0xBD JUMP JUMPDEST PUSH0 DUP2 SSTORE DUP6 SWAP5 POP DUP11 SWAP2 ADD PUSH3 0x320 JUMP JUMPDEST SWAP3 POP DUP2 SWAP3 PUSH3 0x312 JUMP JUMPDEST PUSH4 0x4E487B71 PUSH1 0xE0 SHL PUSH0 MSTORE PUSH1 0x22 PUSH1 0x4 MSTORE PUSH1 0x24 PUSH0 REVERT JUMPDEST SWAP4 PUSH1 0x7F AND SWAP4 PUSH3 0xA6 JUMP JUMPDEST PUSH0 DUP1 REVERT JUMPDEST PUSH1 0x1F SWAP1 SWAP2 ADD PUSH1 0x1F NOT AND DUP2 ADD SWAP1 PUSH1 0x1 PUSH1 0x1 PUSH1 0x40 SHL SUB DUP3 GT SWAP1 DUP3 LT OR PUSH3 0x273 JUMPI PUSH1 0x40 MSTORE JUMP JUMPDEST PUSH1 0x1 PUSH1 0x1 PUSH1 0x40 SHL SUB DUP2 GT PUSH3 0x273 JUMPI PUSH1 0x1F ADD PUSH1 0x1F NOT AND PUSH1 0x20 ADD SWAP1 JUMP JUMPDEST SWAP2 SWAP1 DUP1 PUSH1 0x1F DUP5 ADD SLT ISZERO PUSH3 0x368 JUMPI DUP3 MLOAD SWAP1 PUSH3 0x3C8 DUP3 PUSH3 0x390 JUMP JUMPDEST SWAP2 PUSH3 0x3D8 PUSH1 0x40 MLOAD SWAP4 DUP5 PUSH3 0x36C JUMP JUMPDEST DUP1 DUP4 MSTORE PUSH1 0x20 SWAP2 DUP3 DUP3 DUP8 ADD ADD GT PUSH3 0x368 JUMPI PUSH0 JUMPDEST DUP2 DUP2 LT PUSH3 0x400 JUMPI POP DUP3 PUSH0 SWAP4 SWAP5 SWAP6 POP ADD ADD MSTORE SWAP1 JUMP JUMPDEST DUP6 DUP2 ADD DUP4 ADD MLOAD DUP5 DUP3 ADD DUP5 ADD MSTORE DUP3 ADD PUSH3 0x3EB JUMP JUMPDEST PUSH1 0x40 DUP1 MLOAD PUSH4 0x313CE567 PUSH1 0xE0 SHL PUSH1 0x20 DUP3 ADD SWAP1 DUP2 MSTORE PUSH1 0x4 DUP3 MSTORE SWAP3 SWAP4 SWAP3 SWAP2 DUP2 ADD PUSH1 0x1 PUSH1 0x1 PUSH1 0x40 SHL SUB DUP2 GT DUP3 DUP3 LT OR PUSH3 0x273 JUMPI PUSH1 0x40 MSTORE MLOAD PUSH0 SWAP4 DUP5 SWAP3 DUP4 SWAP3 SWAP2 PUSH1 0x1 PUSH1 0x1 PUSH1 0xA0 SHL SUB AND GAS STATICCALL RETURNDATASIZE ISZERO PUSH3 0x4D0 JUMPI RETURNDATASIZE SWAP1 PUSH3 0x46E DUP3 PUSH3 0x390 JUMP JUMPDEST SWAP2 PUSH3 0x47E PUSH1 0x40 MLOAD SWAP4 DUP5 PUSH3 0x36C JUMP JUMPDEST DUP3 MSTORE RETURNDATASIZE DUP5 PUSH1 0x20 DUP5 ADD RETURNDATACOPY JUMPDEST DUP1 PUSH3 0x4C3 JUMPI JUMPDEST PUSH3 0x49A JUMPI JUMPDEST POP DUP2 SWAP1 JUMP JUMPDEST PUSH1 0x20 DUP2 DUP1 MLOAD DUP2 ADD SUB SLT PUSH3 0x4BF JUMPI PUSH1 0x20 ADD MLOAD PUSH1 0xFF DUP2 GT PUSH3 0x495 JUMPI PUSH1 0x1 SWAP3 POP PUSH1 0xFF AND SWAP1 JUMP JUMPDEST DUP3 DUP1 REVERT JUMPDEST POP PUSH1 0x20 DUP2 MLOAD LT ISZERO PUSH3 0x48F JUMP JUMPDEST PUSH1 0x60 SWAP1 PUSH3 0x488 JUMP INVALID PUSH1 0x40 PUSH1 0x80 DUP2 MSTORE PUSH1 0x4 SWAP1 DUP2 CALLDATASIZE LT ISZERO PUSH2 0x14 JUMPI PUSH0 DUP1 REVERT JUMPDEST PUSH0 SWAP1 DUP2 CALLDATALOAD PUSH1 0xE0 SHR SWAP3 DUP4 PUSH4 0x1E1D114 EQ PUSH2 0x7AC JUMPI DUP4 PUSH4 0x6FDDE03 EQ PUSH2 0x6B9 JUMPI DUP4 PUSH4 0x7A2D13A EQ PUSH2 0x4F4 JUMPI DUP4 PUSH4 0x95EA7B3 EQ PUSH2 0x611 JUMPI DUP4 PUSH4 0xA28A477 EQ PUSH2 0x5F2 JUMPI DUP4 PUSH4 0x18160DDD EQ PUSH2 0x5D4 JUMPI DUP4 PUSH4 0x23B872DD EQ PUSH2 0x598 JUMPI DUP4 PUSH4 0x313CE567 EQ PUSH2 0x53C JUMPI DUP4 PUSH4 0x38D52E0F EQ PUSH2 0x4F9 JUMPI DUP4 PUSH4 0x402D267D EQ PUSH2 0x1FC JUMPI DUP4 PUSH4 0x4CDAD506 EQ PUSH2 0x4F4 JUMPI DUP4 PUSH4 0x6E553F65 EQ PUSH2 0x4C1 JUMPI DUP4 PUSH4 0x70A08231 EQ PUSH2 0x4A1 JUMPI DUP4 PUSH4 0x94BF804D EQ PUSH2 0x46A JUMPI DUP4 PUSH4 0x95D89B41 EQ PUSH2 0x367 JUMPI DUP4 PUSH4 0xA9059CBB EQ PUSH2 0x337 JUMPI DUP4 PUSH4 0xB3D7F6B9 EQ PUSH2 0x318 JUMPI DUP4 PUSH4 0xB460AF94 EQ PUSH2 0x28C JUMPI DUP4 PUSH4 0xBA087652 EQ PUSH2 0x201 JUMPI POP DUP3 PUSH4 0xC63D75B6 EQ PUSH2 0x1FC JUMPI DUP3 PUSH4 0xC6E6F592 EQ PUSH2 0x135 JUMPI DUP3 PUSH4 0xCE96CB77 EQ PUSH2 0x1C5 JUMPI DUP3 PUSH4 0xD905777E EQ PUSH2 0x185 JUMPI DUP3 PUSH4 0xDD62ED3E EQ PUSH2 0x13A JUMPI POP POP PUSH4 0xEF8B30F7 EQ PUSH2 0x135 JUMPI PUSH0 DUP1 REVERT JUMPDEST PUSH2 0x8BF JUMP JUMPDEST CALLVALUE PUSH2 0x181 JUMPI DUP1 PUSH1 0x3 NOT CALLDATASIZE ADD SLT PUSH2 0x181 JUMPI DUP1 PUSH1 0x20 SWAP3 PUSH2 0x156 PUSH2 0x839 JUMP JUMPDEST PUSH2 0x15E PUSH2 0x84F JUMP JUMPDEST PUSH1 0x1 PUSH1 0x1 PUSH1 0xA0 SHL SUB SWAP2 DUP3 AND DUP4 MSTORE PUSH1 0x1 DUP7 MSTORE DUP4 DUP4 KECCAK256 SWAP2 AND DUP3 MSTORE DUP5 MSTORE KECCAK256 SLOAD SWAP1 MLOAD SWAP1 DUP2 MSTORE RETURN JUMPDEST POP DUP1 REVERT JUMPDEST CALLVALUE PUSH2 0x181 JUMPI PUSH1 0x20 CALLDATASIZE PUSH1 0x3 NOT ADD SLT PUSH2 0x181 JUMPI PUSH1 0x20 SWAP1 PUSH2 0x1BE PUSH2 0x1A4 PUSH2 0x839 JUMP JUMPDEST PUSH1 0x1 PUSH1 0x1 PUSH1 0xA0 SHL SUB AND PUSH0 SWAP1 DUP2 MSTORE PUSH1 0x20 DUP2 SWAP1 MSTORE PUSH1 0x40 SWAP1 KECCAK256 SLOAD SWAP1 JUMP JUMPDEST SWAP1 MLOAD SWAP1 DUP2 MSTORE RETURN JUMPDEST CALLVALUE PUSH2 0x181 JUMPI PUSH1 0x20 CALLDATASIZE PUSH1 0x3 NOT ADD SLT PUSH2 0x181 JUMPI PUSH1 0x20 SWAP2 PUSH2 0x1BE SWAP1 DUP3 SWAP1 PUSH1 0x1 PUSH1 0x1 PUSH1 0xA0 SHL SUB PUSH2 0x1EF PUSH2 0x839 JUMP JUMPDEST AND DUP2 MSTORE DUP1 DUP6 MSTORE KECCAK256 SLOAD PUSH2 0xBE6 JUMP JUMPDEST PUSH2 0x865 JUMP JUMPDEST DUP3 CALLVALUE PUSH2 0x289 JUMPI DUP3 SWAP1 PUSH2 0x212 CALLDATASIZE PUSH2 0x88A JUMP JUMPDEST PUSH1 0x1 PUSH1 0x1 PUSH1 0xA0 SHL SUB DUP2 AND DUP5 MSTORE PUSH1 0x20 DUP5 SWAP1 MSTORE SWAP6 SWAP1 SWAP3 KECCAK256 SLOAD SWAP1 SWAP5 SWAP4 SWAP1 DUP1 DUP7 GT PUSH2 0x254 JUMPI POP POP DUP4 PUSH2 0x24E SWAP2 PUSH2 0x245 PUSH1 0x20 SWAP7 PUSH2 0xBE6 JUMP JUMPDEST SWAP5 DUP6 SWAP2 CALLER PUSH2 0xD29 JUMP JUMPDEST MLOAD SWAP1 DUP2 MSTORE RETURN JUMPDEST SWAP3 MLOAD PUSH4 0x2E52AFBB PUSH1 0xE2 SHL DUP2 MSTORE PUSH1 0x1 PUSH1 0x1 PUSH1 0xA0 SHL SUB SWAP1 SWAP5 AND SWAP1 DUP5 ADD SWAP1 DUP2 MSTORE PUSH1 0x20 DUP2 ADD SWAP5 SWAP1 SWAP5 MSTORE POP PUSH1 0x40 DUP4 ADD MSTORE SWAP1 DUP2 SWAP1 PUSH1 0x60 ADD SUB SWAP1 REVERT JUMPDEST DUP1 REVERT JUMPDEST DUP3 SWAP1 CALLVALUE PUSH2 0x181 JUMPI PUSH2 0x2C1 SWAP2 DUP4 SWAP2 PUSH2 0x2A2 CALLDATASIZE PUSH2 0x88A JUMP JUMPDEST PUSH1 0x1 PUSH1 0x1 PUSH1 0xA0 SHL SUB DUP2 AND DUP6 MSTORE PUSH1 0x20 DUP6 SWAP1 MSTORE SWAP7 SWAP1 SWAP4 KECCAK256 SLOAD SWAP1 SWAP6 SWAP5 SWAP1 PUSH2 0xBE6 JUMP JUMPDEST DUP1 DUP7 GT PUSH2 0x2E3 JUMPI POP POP PUSH2 0x24E SWAP1 DUP5 PUSH2 0x2DA PUSH1 0x20 SWAP7 PUSH2 0xB4E JUMP JUMPDEST SWAP5 DUP6 SWAP3 CALLER PUSH2 0xD29 JUMP JUMPDEST SWAP3 MLOAD PUSH4 0x3FA733BB PUSH1 0xE2 SHL DUP2 MSTORE PUSH1 0x1 PUSH1 0x1 PUSH1 0xA0 SHL SUB SWAP1 SWAP5 AND SWAP1 DUP5 ADD SWAP1 DUP2 MSTORE PUSH1 0x20 DUP2 ADD SWAP5 SWAP1 SWAP5 MSTORE POP PUSH1 0x40 DUP4 ADD MSTORE SWAP1 DUP2 SWAP1 PUSH1 0x60 ADD SUB SWAP1 REVERT JUMPDEST SWAP2 CALLVALUE PUSH2 0x289 JUMPI PUSH1 0x20 CALLDATASIZE PUSH1 0x3 NOT ADD SLT PUSH2 0x289 JUMPI POP PUSH2 0x1BE PUSH1 0x20 SWAP3 CALLDATALOAD PUSH2 0xBBB JUMP JUMPDEST POP CALLVALUE PUSH2 0x181 JUMPI DUP1 PUSH1 0x3 NOT CALLDATASIZE ADD SLT PUSH2 0x181 JUMPI PUSH1 0x20 SWAP1 PUSH2 0x360 PUSH2 0x356 PUSH2 0x839 JUMP JUMPDEST PUSH1 0x24 CALLDATALOAD SWAP1 CALLER PUSH2 0x913 JUMP JUMPDEST MLOAD PUSH1 0x1 DUP2 MSTORE RETURN JUMPDEST SWAP3 POP CALLVALUE PUSH2 0x181 JUMPI DUP2 PUSH1 0x3 NOT CALLDATASIZE ADD SLT PUSH2 0x181 JUMPI DUP1 MLOAD SWAP2 DUP1 SWAP4 DUP1 SLOAD SWAP2 PUSH1 0x1 SWAP1 DUP4 DUP3 SHR SWAP3 DUP3 DUP6 AND SWAP5 DUP6 ISZERO PUSH2 0x460 JUMPI JUMPDEST PUSH1 0x20 SWAP6 DUP7 DUP7 LT DUP2 EQ PUSH2 0x44D JUMPI DUP6 DUP10 MSTORE SWAP1 DUP2 ISZERO PUSH2 0x429 JUMPI POP PUSH1 0x1 EQ PUSH2 0x3D1 JUMPI JUMPDEST PUSH2 0x3CD DUP8 DUP8 PUSH2 0x3C3 DUP3 DUP13 SUB DUP4 PUSH2 0x8DD JUMP JUMPDEST MLOAD SWAP2 DUP3 SWAP2 DUP3 PUSH2 0x7C8 JUMP JUMPDEST SUB SWAP1 RETURN JUMPDEST DUP2 MSTORE SWAP3 SWAP6 POP PUSH32 0x8A35ACFBC15FF81A39AE7D344FD709F28E8600B4AA8C65C6B64BFE7FE36BD19B JUMPDEST DUP3 DUP5 LT PUSH2 0x416 JUMPI POP POP POP DUP3 PUSH2 0x3CD SWAP5 PUSH2 0x3C3 SWAP3 DUP3 ADD ADD SWAP5 PUSH0 DUP1 PUSH2 0x3B2 JUMP JUMPDEST DUP1 SLOAD DUP7 DUP6 ADD DUP9 ADD MSTORE SWAP3 DUP7 ADD SWAP3 DUP2 ADD PUSH2 0x3F8 JUMP JUMPDEST PUSH1 0xFF NOT AND DUP9 DUP8 ADD MSTORE POP POP POP POP ISZERO ISZERO PUSH1 0x5 SHL DUP4 ADD ADD SWAP3 POP PUSH2 0x3C3 DUP3 PUSH2 0x3CD PUSH0 DUP1 PUSH2 0x3B2 JUMP JUMPDEST PUSH4 0x4E487B71 PUSH1 0xE0 SHL DUP5 MSTORE PUSH1 0x22 DUP4 MSTORE PUSH1 0x24 DUP5 REVERT JUMPDEST SWAP4 PUSH1 0x7F AND SWAP4 PUSH2 0x393 JUMP JUMPDEST CALLVALUE PUSH2 0x49D JUMPI DUP2 PUSH1 0x3 NOT CALLDATASIZE ADD SLT PUSH2 0x49D JUMPI PUSH1 0x20 SWAP3 POP CALLDATALOAD SWAP1 PUSH2 0x24E PUSH2 0x48B PUSH2 0x84F JUMP JUMPDEST SWAP3 PUSH2 0x495 DUP2 PUSH2 0xBBB JUMP JUMPDEST DUP1 SWAP5 CALLER PUSH2 0xC11 JUMP JUMPDEST DUP3 DUP1 REVERT JUMPDEST POP CALLVALUE PUSH2 0x181 JUMPI PUSH1 0x20 CALLDATASIZE PUSH1 0x3 NOT ADD SLT PUSH2 0x181 JUMPI PUSH1 0x20 SWAP1 PUSH2 0x1BE PUSH2 0x1A4 PUSH2 0x839 JUMP JUMPDEST CALLVALUE PUSH2 0x49D JUMPI DUP2 PUSH1 0x3 NOT CALLDATASIZE ADD SLT PUSH2 0x49D JUMPI PUSH1 0x20 SWAP3 POP CALLDATALOAD SWAP1 PUSH2 0x24E PUSH2 0x4E2 PUSH2 0x84F JUMP JUMPDEST PUSH2 0x4EB DUP5 PUSH2 0xB90 JUMP JUMPDEST SWAP4 DUP5 SWAP2 CALLER PUSH2 0xC11 JUMP JUMPDEST PUSH2 0x80F JUMP JUMPDEST POP CALLVALUE PUSH2 0x181 JUMPI DUP2 PUSH1 0x3 NOT CALLDATASIZE ADD SLT PUSH2 0x181 JUMPI MLOAD PUSH32 0x0 PUSH1 0x1 PUSH1 0x1 PUSH1 0xA0 SHL SUB AND DUP2 MSTORE PUSH1 0x20 SWAP1 RETURN JUMPDEST SWAP3 POP CALLVALUE PUSH2 0x181 JUMPI DUP2 PUSH1 0x3 NOT CALLDATASIZE ADD SLT PUSH2 0x181 JUMPI PUSH1 0xFF PUSH32 0x0 AND SWAP2 PUSH1 0xFF DUP4 GT PUSH2 0x585 JUMPI PUSH1 0x20 DUP4 DUP4 MLOAD SWAP1 DUP2 MSTORE RETURN JUMPDEST PUSH4 0x4E487B71 PUSH1 0xE0 SHL DUP2 MSTORE PUSH1 0x11 DUP5 MSTORE PUSH1 0x24 SWAP1 REVERT JUMPDEST POP CALLVALUE PUSH2 0x181 JUMPI PUSH1 0x60 CALLDATASIZE PUSH1 0x3 NOT ADD SLT PUSH2 0x181 JUMPI PUSH1 0x20 SWAP1 PUSH2 0x360 PUSH2 0x5B8 PUSH2 0x839 JUMP JUMPDEST PUSH2 0x5C0 PUSH2 0x84F JUMP JUMPDEST PUSH1 0x44 CALLDATALOAD SWAP2 PUSH2 0x5CF DUP4 CALLER DUP4 PUSH2 0x9EE JUMP JUMPDEST PUSH2 0x913 JUMP JUMPDEST POP CALLVALUE PUSH2 0x181 JUMPI DUP2 PUSH1 0x3 NOT CALLDATASIZE ADD SLT PUSH2 0x181 JUMPI PUSH1 0x20 SWAP1 PUSH1 0x2 SLOAD SWAP1 MLOAD SWAP1 DUP2 MSTORE RETURN JUMPDEST SWAP2 CALLVALUE PUSH2 0x289 JUMPI PUSH1 0x20 CALLDATASIZE PUSH1 0x3 NOT ADD SLT PUSH2 0x289 JUMPI POP PUSH2 0x1BE PUSH1 0x20 SWAP3 CALLDATALOAD PUSH2 0xB4E JUMP JUMPDEST CALLVALUE PUSH2 0x49D JUMPI DUP2 PUSH1 0x3 NOT CALLDATASIZE ADD SLT PUSH2 0x49D JUMPI PUSH2 0x629 PUSH2 0x839 JUMP JUMPDEST PUSH1 0x24 CALLDATALOAD SWAP1 CALLER ISZERO PUSH2 0x6A2 JUMPI PUSH1 0x1 PUSH1 0x1 PUSH1 0xA0 SHL SUB AND SWAP2 DUP3 ISZERO PUSH2 0x68B JUMPI POP DUP1 DUP4 PUSH1 0x20 SWAP6 CALLER DUP2 MSTORE PUSH1 0x1 DUP8 MSTORE DUP2 DUP2 KECCAK256 DUP6 DUP3 MSTORE DUP8 MSTORE KECCAK256 SSTORE DUP3 MLOAD SWAP1 DUP2 MSTORE PUSH32 0x8C5BE1E5EBEC7D5BD14F71427D1E84F3DD0314C0F7B2291E5B200AC8C7C3B925 DUP5 CALLER SWAP3 LOG3 MLOAD PUSH1 0x1 DUP2 MSTORE RETURN JUMPDEST DUP4 MLOAD PUSH4 0x4A1406B1 PUSH1 0xE1 SHL DUP2 MSTORE SWAP1 DUP2 ADD DUP6 SWAP1 MSTORE PUSH1 0x24 SWAP1 REVERT JUMPDEST DUP4 MLOAD PUSH4 0xE602DF05 PUSH1 0xE0 SHL DUP2 MSTORE DUP1 DUP5 ADD DUP7 SWAP1 MSTORE PUSH1 0x24 SWAP1 REVERT JUMPDEST SWAP1 CALLVALUE PUSH2 0x49D JUMPI DUP3 PUSH1 0x3 NOT CALLDATASIZE ADD SLT PUSH2 0x49D JUMPI DUP1 MLOAD SWAP2 DUP4 PUSH1 0x3 SLOAD SWAP1 PUSH1 0x1 SWAP1 DUP3 DUP3 SHR SWAP3 DUP3 DUP2 AND DUP1 ISZERO PUSH2 0x7A2 JUMPI JUMPDEST PUSH1 0x20 SWAP6 DUP7 DUP7 LT DUP3 EQ PUSH2 0x78F JUMPI POP DUP5 DUP9 MSTORE SWAP1 DUP2 ISZERO PUSH2 0x76D JUMPI POP PUSH1 0x1 EQ PUSH2 0x714 JUMPI JUMPDEST PUSH2 0x3CD DUP7 DUP7 PUSH2 0x3C3 DUP3 DUP12 SUB DUP4 PUSH2 0x8DD JUMP JUMPDEST SWAP3 SWAP6 POP PUSH1 0x3 DUP4 MSTORE PUSH32 0xC2575A0E9E593C00F959F8C92F12DB2869C3395A3B0502D05E2516446F71F85B JUMPDEST DUP3 DUP5 LT PUSH2 0x75A JUMPI POP POP POP DUP3 PUSH2 0x3CD SWAP5 PUSH2 0x3C3 SWAP3 DUP3 ADD ADD SWAP5 DUP7 PUSH2 0x703 JUMP JUMPDEST DUP1 SLOAD DUP7 DUP6 ADD DUP9 ADD MSTORE SWAP3 DUP7 ADD SWAP3 DUP2 ADD PUSH2 0x73D JUMP JUMPDEST PUSH1 0xFF NOT AND DUP8 DUP7 ADD MSTORE POP POP POP ISZERO ISZERO PUSH1 0x5 SHL DUP4 ADD ADD SWAP3 POP PUSH2 0x3C3 DUP3 PUSH2 0x3CD DUP7 PUSH2 0x703 JUMP JUMPDEST PUSH4 0x4E487B71 PUSH1 0xE0 SHL DUP5 MSTORE PUSH1 0x22 SWAP1 MSTORE PUSH1 0x24 DUP4 REVERT JUMPDEST SWAP4 PUSH1 0x7F AND SWAP4 PUSH2 0x6E3 JUMP JUMPDEST POP CALLVALUE PUSH2 0x181 JUMPI DUP2 PUSH1 0x3 NOT CALLDATASIZE ADD SLT PUSH2 0x181 JUMPI PUSH1 0x20 SWAP1 PUSH2 0x1BE PUSH2 0xABF JUMP JUMPDEST PUSH1 0x20 DUP1 DUP3 MSTORE DUP3 MLOAD DUP2 DUP4 ADD DUP2 SWAP1 MSTORE SWAP1 SWAP4 SWAP3 PUSH0 JUMPDEST DUP3 DUP2 LT PUSH2 0x7FB JUMPI POP POP PUSH1 0x40 SWAP3 SWAP4 POP PUSH0 DUP4 DUP3 DUP5 ADD ADD MSTORE PUSH1 0x1F DUP1 NOT SWAP2 ADD AND ADD ADD SWAP1 JUMP JUMPDEST DUP2 DUP2 ADD DUP7 ADD MLOAD DUP5 DUP3 ADD PUSH1 0x40 ADD MSTORE DUP6 ADD PUSH2 0x7DA JUMP JUMPDEST CALLVALUE PUSH2 0x835 JUMPI PUSH1 0x20 CALLDATASIZE PUSH1 0x3 NOT ADD SLT PUSH2 0x835 JUMPI PUSH1 0x20 PUSH2 0x82D PUSH1 0x4 CALLDATALOAD PUSH2 0xBE6 JUMP JUMPDEST PUSH1 0x40 MLOAD SWAP1 DUP2 MSTORE RETURN JUMPDEST PUSH0 DUP1 REVERT JUMPDEST PUSH1 0x4 CALLDATALOAD SWAP1 PUSH1 0x1 PUSH1 0x1 PUSH1 0xA0 SHL SUB DUP3 AND DUP3 SUB PUSH2 0x835 JUMPI JUMP JUMPDEST PUSH1 0x24 CALLDATALOAD SWAP1 PUSH1 0x1 PUSH1 0x1 PUSH1 0xA0 SHL SUB DUP3 AND DUP3 SUB PUSH2 0x835 JUMPI JUMP JUMPDEST CALLVALUE PUSH2 0x835 JUMPI PUSH1 0x20 CALLDATASIZE PUSH1 0x3 NOT ADD SLT PUSH2 0x835 JUMPI PUSH2 0x87E PUSH2 0x839 JUMP JUMPDEST POP PUSH1 0x20 PUSH1 0x40 MLOAD PUSH0 NOT DUP2 MSTORE RETURN JUMPDEST PUSH1 0x60 SWAP1 PUSH1 0x3 NOT ADD SLT PUSH2 0x835 JUMPI PUSH1 0x4 CALLDATALOAD SWAP1 PUSH1 0x1 PUSH1 0x1 PUSH1 0xA0 SHL SUB SWAP1 PUSH1 0x24 CALLDATALOAD DUP3 DUP2 AND DUP2 SUB PUSH2 0x835 JUMPI SWAP2 PUSH1 0x44 CALLDATALOAD SWAP1 DUP2 AND DUP2 SUB PUSH2 0x835 JUMPI SWAP1 JUMP JUMPDEST CALLVALUE PUSH2 0x835 JUMPI PUSH1 0x20 CALLDATASIZE PUSH1 0x3 NOT ADD SLT PUSH2 0x835 JUMPI PUSH1 0x20 PUSH2 0x82D PUSH1 0x4 CALLDATALOAD PUSH2 0xB90 JUMP JUMPDEST SWAP1 PUSH1 0x1F DUP1 NOT SWAP2 ADD AND DUP2 ADD SWAP1 DUP2 LT PUSH8 0xFFFFFFFFFFFFFFFF DUP3 GT OR PUSH2 0x8FF JUMPI PUSH1 0x40 MSTORE JUMP JUMPDEST PUSH4 0x4E487B71 PUSH1 0xE0 SHL PUSH0 MSTORE PUSH1 0x41 PUSH1 0x4 MSTORE PUSH1 0x24 PUSH0 REVERT JUMPDEST SWAP2 PUSH1 0x1 PUSH1 0x1 PUSH1 0xA0 SHL SUB DUP1 DUP5 AND SWAP3 DUP4 ISZERO PUSH2 0x9D6 JUMPI AND SWAP3 DUP4 ISZERO PUSH2 0x9BE JUMPI PUSH0 SWAP1 DUP4 DUP3 MSTORE DUP2 PUSH1 0x20 MSTORE PUSH1 0x40 DUP3 KECCAK256 SLOAD SWAP1 DUP4 DUP3 LT PUSH2 0x98C JUMPI POP SWAP2 PUSH1 0x40 DUP3 DUP3 PUSH32 0xDDF252AD1BE2C89B69C2B068FC378DAA952BA7F163C4A11628F55A4DF523B3EF SWAP6 DUP8 PUSH1 0x20 SWAP7 MSTORE DUP3 DUP7 MSTORE SUB DUP3 DUP3 KECCAK256 SSTORE DUP7 DUP2 MSTORE KECCAK256 DUP2 DUP2 SLOAD ADD SWAP1 SSTORE PUSH1 0x40 MLOAD SWAP1 DUP2 MSTORE LOG3 JUMP JUMPDEST PUSH1 0x40 MLOAD PUSH4 0x391434E3 PUSH1 0xE2 SHL DUP2 MSTORE PUSH1 0x1 PUSH1 0x1 PUSH1 0xA0 SHL SUB SWAP2 SWAP1 SWAP2 AND PUSH1 0x4 DUP3 ADD MSTORE PUSH1 0x24 DUP2 ADD SWAP2 SWAP1 SWAP2 MSTORE PUSH1 0x44 DUP2 ADD DUP4 SWAP1 MSTORE PUSH1 0x64 SWAP1 REVERT JUMPDEST PUSH1 0x40 MLOAD PUSH4 0xEC442F05 PUSH1 0xE0 SHL DUP2 MSTORE PUSH0 PUSH1 0x4 DUP3 ADD MSTORE PUSH1 0x24 SWAP1 REVERT JUMPDEST PUSH1 0x40 MLOAD PUSH4 0x4B637E8F PUSH1 0xE1 SHL DUP2 MSTORE PUSH0 PUSH1 0x4 DUP3 ADD MSTORE PUSH1 0x24 SWAP1 REVERT JUMPDEST SWAP2 PUSH1 0x1 DUP1 PUSH1 0xA0 SHL SUB DUP1 SWAP4 AND SWAP2 PUSH0 SWAP4 DUP4 DUP6 MSTORE PUSH1 0x1 PUSH1 0x20 MSTORE PUSH1 0x40 SWAP4 DUP5 DUP7 KECCAK256 SWAP2 DUP4 AND SWAP2 DUP3 DUP8 MSTORE PUSH1 0x20 MSTORE DUP5 DUP7 KECCAK256 SLOAD SWAP3 PUSH0 NOT DUP5 SUB PUSH2 0xA2B JUMPI JUMPDEST POP POP POP POP POP POP POP JUMP JUMPDEST DUP5 DUP5 LT PUSH2 0xA8F JUMPI POP DUP1 ISZERO PUSH2 0xA77 JUMPI DUP2 ISZERO PUSH2 0xA5F JUMPI DUP6 MSTORE PUSH1 0x1 PUSH1 0x20 MSTORE DUP4 DUP6 KECCAK256 SWAP1 DUP6 MSTORE PUSH1 0x20 MSTORE SUB SWAP2 KECCAK256 SSTORE PUSH0 DUP1 DUP1 DUP1 DUP1 DUP1 DUP1 PUSH2 0xA22 JUMP JUMPDEST DUP5 MLOAD PUSH4 0x4A1406B1 PUSH1 0xE1 SHL DUP2 MSTORE PUSH1 0x4 DUP2 ADD DUP8 SWAP1 MSTORE PUSH1 0x24 SWAP1 REVERT JUMPDEST DUP5 MLOAD PUSH4 0xE602DF05 PUSH1 0xE0 SHL DUP2 MSTORE PUSH1 0x4 DUP2 ADD DUP8 SWAP1 MSTORE PUSH1 0x24 SWAP1 REVERT JUMPDEST DUP6 MLOAD PUSH4 0x7DC7A0D9 PUSH1 0xE1 SHL DUP2 MSTORE PUSH1 0x1 PUSH1 0x1 PUSH1 0xA0 SHL SUB SWAP2 SWAP1 SWAP2 AND PUSH1 0x4 DUP3 ADD MSTORE PUSH1 0x24 DUP2 ADD DUP5 SWAP1 MSTORE PUSH1 0x44 DUP2 ADD DUP6 SWAP1 MSTORE PUSH1 0x64 SWAP1 REVERT JUMPDEST PUSH1 0x40 MLOAD PUSH4 0x70A08231 PUSH1 0xE0 SHL DUP2 MSTORE ADDRESS PUSH1 0x4 DUP3 ADD MSTORE PUSH1 0x20 DUP2 PUSH1 0x24 DUP2 PUSH32 0x0 PUSH1 0x1 PUSH1 0x1 PUSH1 0xA0 SHL SUB AND GAS STATICCALL SWAP1 DUP2 ISZERO PUSH2 0xB43 JUMPI PUSH0 SWAP2 PUSH2 0xB15 JUMPI POP SWAP1 JUMP JUMPDEST SWAP1 PUSH1 0x20 DUP3 RETURNDATASIZE DUP3 GT PUSH2 0xB3B JUMPI JUMPDEST DUP2 PUSH2 0xB2E PUSH1 0x20 SWAP4 DUP4 PUSH2 0x8DD JUMP JUMPDEST DUP2 ADD SUB SLT PUSH2 0x289 JUMPI POP MLOAD SWAP1 JUMP JUMPDEST RETURNDATASIZE SWAP2 POP PUSH2 0xB21 JUMP JUMPDEST PUSH1 0x40 MLOAD RETURNDATASIZE PUSH0 DUP3 RETURNDATACOPY RETURNDATASIZE SWAP1 REVERT JUMPDEST PUSH1 0x2 SLOAD PUSH1 0x1 DUP2 ADD DUP1 SWAP2 GT PUSH2 0xB7C JUMPI PUSH2 0xB64 PUSH2 0xABF JUMP JUMPDEST SWAP1 PUSH1 0x1 DUP3 ADD DUP1 SWAP3 GT PUSH2 0xB7C JUMPI PUSH2 0xB79 SWAP3 PUSH2 0xFCE JUMP JUMPDEST SWAP1 JUMP JUMPDEST PUSH4 0x4E487B71 PUSH1 0xE0 SHL PUSH0 MSTORE PUSH1 0x11 PUSH1 0x4 MSTORE PUSH1 0x24 PUSH0 REVERT JUMPDEST PUSH1 0x2 SLOAD PUSH1 0x1 DUP2 ADD DUP1 SWAP2 GT PUSH2 0xB7C JUMPI PUSH2 0xBA6 PUSH2 0xABF JUMP JUMPDEST SWAP1 PUSH1 0x1 DUP3 ADD DUP1 SWAP3 GT PUSH2 0xB7C JUMPI PUSH2 0xB79 SWAP3 PUSH2 0x100C JUMP JUMPDEST PUSH2 0xBC3 PUSH2 0xABF JUMP JUMPDEST PUSH1 0x1 DUP2 ADD DUP1 SWAP2 GT PUSH2 0xB7C JUMPI PUSH1 0x2 SLOAD SWAP1 PUSH1 0x1 DUP3 ADD DUP1 SWAP3 GT PUSH2 0xB7C JUMPI PUSH2 0xB79 SWAP3 PUSH2 0xFCE JUMP JUMPDEST PUSH2 0xBEE PUSH2 0xABF JUMP JUMPDEST PUSH1 0x1 DUP2 ADD DUP1 SWAP2 GT PUSH2 0xB7C JUMPI PUSH1 0x2 SLOAD SWAP1 PUSH1 0x1 DUP3 ADD DUP1 SWAP3 GT PUSH2 0xB7C JUMPI PUSH2 0xB79 SWAP3 PUSH2 0x100C JUMP JUMPDEST PUSH1 0x40 DUP1 MLOAD PUSH4 0x23B872DD PUSH1 0xE0 SHL PUSH1 0x20 DUP3 ADD MSTORE PUSH1 0x1 PUSH1 0x1 PUSH1 0xA0 SHL SUB SWAP3 DUP4 AND PUSH1 0x24 DUP3 ADD DUP2 SWAP1 MSTORE ADDRESS PUSH1 0x44 DUP4 ADD MSTORE PUSH1 0x64 DUP1 DUP4 ADD DUP8 SWAP1 MSTORE DUP3 MSTORE SWAP5 SWAP6 SWAP4 SWAP2 SWAP3 SWAP2 SWAP1 PUSH1 0xA0 DUP2 ADD SWAP1 PUSH8 0xFFFFFFFFFFFFFFFF DUP3 GT DUP2 DUP4 LT OR PUSH2 0x8FF JUMPI PUSH2 0xC8F SWAP2 DUP6 MSTORE PUSH32 0x0 PUSH2 0xE98 JUMP JUMPDEST AND SWAP4 DUP5 ISZERO PUSH2 0xD12 JUMPI PUSH1 0x2 SLOAD SWAP3 DUP1 DUP5 ADD DUP1 SWAP5 GT PUSH2 0xB7C JUMPI PUSH32 0xDCBC1C05240F31FF3AD067EF1EE35CE4997762752E3A095284754544F4C709D7 SWAP4 PUSH1 0x2 SSTORE DUP6 PUSH0 MSTORE PUSH0 PUSH1 0x20 MSTORE DUP3 PUSH0 KECCAK256 DUP2 DUP2 SLOAD ADD SWAP1 SSTORE DUP6 PUSH0 PUSH32 0xDDF252AD1BE2C89B69C2B068FC378DAA952BA7F163C4A11628F55A4DF523B3EF PUSH1 0x20 DUP7 MLOAD DUP6 DUP2 MSTORE LOG3 DUP3 MLOAD SWAP2 DUP3 MSTORE PUSH1 0x20 DUP3 ADD MSTORE LOG3 JUMP JUMPDEST DUP2 MLOAD PUSH4 0xEC442F05 PUSH1 0xE0 SHL DUP2 MSTORE PUSH0 PUSH1 0x4 DUP3 ADD MSTORE PUSH1 0x24 SWAP1 REVERT JUMPDEST PUSH1 0x1 PUSH1 0x1 PUSH1 0xA0 SHL SUB DUP1 DUP5 AND SWAP6 SWAP1 SWAP5 DUP6 DUP4 AND SWAP5 SWAP4 SWAP1 SWAP3 DUP3 DUP9 DUP8 SUB PUSH2 0xE87 JUMPI JUMPDEST POP POP DUP7 ISZERO PUSH2 0x9D6 JUMPI PUSH0 SWAP6 DUP8 DUP8 MSTORE DUP7 PUSH1 0x20 MSTORE PUSH1 0x40 SWAP5 DUP6 DUP9 KECCAK256 SLOAD SWAP1 DUP5 DUP3 LT PUSH2 0xE56 JUMPI POP DUP4 SWAP1 DUP10 DUP10 MSTORE DUP9 PUSH1 0x20 MSTORE SUB DUP6 DUP9 KECCAK256 SSTORE DUP3 PUSH1 0x2 SLOAD SUB PUSH1 0x2 SSTORE DUP7 DUP9 PUSH32 0xDDF252AD1BE2C89B69C2B068FC378DAA952BA7F163C4A11628F55A4DF523B3EF PUSH1 0x20 DUP9 MLOAD DUP8 DUP2 MSTORE LOG3 DUP5 MLOAD SWAP2 PUSH4 0xA9059CBB PUSH1 0xE0 SHL PUSH1 0x20 DUP5 ADD MSTORE AND SWAP6 DUP7 PUSH1 0x24 DUP4 ADD MSTORE DUP4 PUSH1 0x44 DUP4 ADD MSTORE PUSH1 0x44 DUP3 MSTORE PUSH1 0x80 DUP3 ADD SWAP1 DUP3 DUP3 LT PUSH8 0xFFFFFFFFFFFFFFFF DUP4 GT OR PUSH2 0xE42 JUMPI POP DUP5 SWAP4 SWAP3 SWAP2 PUSH2 0xE35 SWAP2 PUSH32 0xFBDE797D201C681B91056529119E0B02407C7BB96A4A2C75C01FC9667232C8DB SWAP7 MSTORE PUSH32 0x0 PUSH2 0xE98 JUMP JUMPDEST DUP3 MLOAD SWAP2 DUP3 MSTORE PUSH1 0x20 DUP3 ADD MSTORE LOG4 JUMP JUMPDEST PUSH4 0x4E487B71 PUSH1 0xE0 SHL DUP2 MSTORE PUSH1 0x41 PUSH1 0x4 MSTORE PUSH1 0x24 SWAP1 REVERT JUMPDEST DUP7 MLOAD PUSH4 0x391434E3 PUSH1 0xE2 SHL DUP2 MSTORE PUSH1 0x1 PUSH1 0x1 PUSH1 0xA0 SHL SUB SWAP2 SWAP1 SWAP2 AND PUSH1 0x4 DUP3 ADD MSTORE PUSH1 0x24 DUP2 ADD SWAP2 SWAP1 SWAP2 MSTORE PUSH1 0x44 DUP2 ADD DUP5 SWAP1 MSTORE PUSH1 0x64 SWAP1 REVERT JUMPDEST PUSH2 0xE91 SWAP2 DUP7 PUSH2 0x9EE JUMP JUMPDEST PUSH0 DUP3 PUSH2 0xD47 JUMP JUMPDEST PUSH1 0x1 DUP1 PUSH1 0xA0 SHL SUB AND SWAP1 PUSH0 DUP1 DUP3 PUSH1 0x20 DUP3 SWAP5 MLOAD SWAP2 ADD DUP3 DUP7 GAS CALL RETURNDATASIZE ISZERO PUSH2 0xF5F JUMPI RETURNDATASIZE SWAP1 PUSH8 0xFFFFFFFFFFFFFFFF DUP3 GT PUSH2 0xF4B JUMPI SWAP1 PUSH2 0xEF3 SWAP2 PUSH1 0x40 MLOAD SWAP2 PUSH2 0xEE3 PUSH1 0x20 PUSH1 0x1F NOT PUSH1 0x1F DUP5 ADD AND ADD DUP5 PUSH2 0x8DD JUMP JUMPDEST DUP3 MSTORE RETURNDATASIZE DUP5 PUSH1 0x20 DUP5 ADD RETURNDATACOPY JUMPDEST DUP5 PUSH2 0xF6B JUMP JUMPDEST SWAP1 DUP2 MLOAD SWAP2 DUP3 ISZERO ISZERO SWAP3 DUP4 PUSH2 0xF23 JUMPI JUMPDEST POP POP POP PUSH2 0xF0B JUMPI POP JUMP JUMPDEST PUSH1 0x24 SWAP1 PUSH1 0x40 MLOAD SWAP1 PUSH4 0x5274AFE7 PUSH1 0xE0 SHL DUP3 MSTORE PUSH1 0x4 DUP3 ADD MSTORE REVERT JUMPDEST DUP2 SWAP3 SWAP4 POP SWAP1 PUSH1 0x20 SWAP2 DUP2 ADD SUB SLT PUSH2 0x181 JUMPI PUSH1 0x20 ADD MLOAD SWAP1 DUP2 ISZERO SWAP2 DUP3 ISZERO SUB PUSH2 0x289 JUMPI POP PUSH0 DUP1 DUP1 PUSH2 0xF01 JUMP JUMPDEST PUSH4 0x4E487B71 PUSH1 0xE0 SHL DUP4 MSTORE PUSH1 0x41 PUSH1 0x4 MSTORE PUSH1 0x24 DUP4 REVERT JUMPDEST PUSH2 0xEF3 SWAP1 PUSH1 0x60 SWAP1 PUSH2 0xEED JUMP JUMPDEST SWAP1 PUSH2 0xF92 JUMPI POP DUP1 MLOAD ISZERO PUSH2 0xF80 JUMPI DUP1 MLOAD SWAP1 PUSH1 0x20 ADD REVERT JUMPDEST PUSH1 0x40 MLOAD PUSH4 0xA12F521 PUSH1 0xE1 SHL DUP2 MSTORE PUSH1 0x4 SWAP1 REVERT JUMPDEST DUP2 MLOAD ISZERO DUP1 PUSH2 0xFC5 JUMPI JUMPDEST PUSH2 0xFA3 JUMPI POP SWAP1 JUMP JUMPDEST PUSH1 0x40 MLOAD PUSH4 0x9996B315 PUSH1 0xE0 SHL DUP2 MSTORE PUSH1 0x1 PUSH1 0x1 PUSH1 0xA0 SHL SUB SWAP1 SWAP2 AND PUSH1 0x4 DUP3 ADD MSTORE PUSH1 0x24 SWAP1 REVERT JUMPDEST POP DUP1 EXTCODESIZE ISZERO PUSH2 0xF9B JUMP JUMPDEST SWAP2 SWAP1 PUSH2 0xFDB DUP3 DUP3 DUP6 PUSH2 0x100C JUMP JUMPDEST SWAP3 DUP3 ISZERO PUSH2 0xFF8 JUMPI MULMOD PUSH2 0xFEA JUMPI SWAP1 JUMP JUMPDEST PUSH1 0x1 DUP2 ADD DUP1 SWAP2 GT PUSH2 0xB7C JUMPI SWAP1 JUMP JUMPDEST PUSH4 0x4E487B71 PUSH1 0xE0 SHL PUSH0 MSTORE PUSH1 0x12 PUSH1 0x4 MSTORE PUSH1 0x24 PUSH0 REVERT JUMPDEST SWAP1 SWAP2 DUP3 DUP3 MUL SWAP2 PUSH0 NOT DUP5 DUP3 MULMOD SWAP4 DUP4 DUP1 DUP7 LT SWAP6 SUB SWAP5 DUP1 DUP7 SUB SWAP6 EQ PUSH2 0x1091 JUMPI DUP5 DUP4 GT ISZERO PUSH2 0x107F JUMPI DUP3 SWAP2 MULMOD DUP2 PUSH0 SUB DUP3 AND DUP1 SWAP3 DIV PUSH1 0x2 DUP1 DUP3 PUSH1 0x3 MUL XOR DUP1 DUP4 MUL DUP3 SUB MUL DUP1 DUP4 MUL DUP3 SUB MUL DUP1 DUP4 MUL DUP3 SUB MUL DUP1 DUP4 MUL DUP3 SUB MUL DUP1 DUP4 MUL DUP3 SUB MUL DUP1 SWAP3 MUL SWAP1 SUB MUL SWAP4 PUSH1 0x1 DUP4 DUP1 PUSH0 SUB DIV ADD SWAP1 DUP5 DUP4 GT SWAP1 SUB MUL SWAP3 SUB DIV OR MUL SWAP1 JUMP JUMPDEST PUSH1 0x40 MLOAD PUSH4 0x227BC153 PUSH1 0xE0 SHL DUP2 MSTORE PUSH1 0x4 SWAP1 REVERT JUMPDEST POP POP DUP1 SWAP3 POP ISZERO PUSH2 0xFF8 JUMPI DIV SWAP1 JUMP INVALID LOG2 PUSH5 0x6970667358 0x22 SLT KECCAK256 0xAB 0x4D SWAP4 0xC ADDRESS SWAP1 0xC8 STATICCALL CHAINID 0xA7 0xC6 PUSH14 0x777C11DCBF8296E506333F4AA381 0xD9 PUSH3 0x183E27 0xD5 PUSH5 0x736F6C6343 STOP ADDMOD EQ STOP CALLER LOG2 PUSH5 0x6970667358 0x22 SLT KECCAK256 PUSH19 0x5FD1F8132250C990700ED396913F75AE25D68E PUSH32 0x9B15558B8AA9165E72B22064736F6C6343000814003300000000000000000000 "
		},
		"gasEstimates": {
			"creation": {
				"codeDepositCost": "4521800",
				"executionCost": "infinite",
				"totalCost": "infinite"
			},
			"external": {
				"createTuliaPool(address,address,address,address,uint256,uint256,uint256,address,uint8,uint256)": "infinite",
				"poolOrganizer()": "2375",
				"rewardManager()": "2282",
				"vaultManager()": "2314",
				"vaults(address)": "2497"
			}
		},
		"methodIdentifiers": {
			"createTuliaPool(address,address,address,address,uint256,uint256,uint256,address,uint8,uint256)": "8c41fd09",
			"poolOrganizer()": "c51b9507",
			"rewardManager()": "0f4ef8a6",
			"vaultManager()": "8a4adf24",
			"vaults(address)": "a622ee7c"
		}
	},
	"abi": [
		{
			"inputs": [
				{
					"internalType": "address",
					"name": "_poolOrganizer",
					"type": "address"
				},
				{
					"internalType": "address",
					"name": "_rewardManager",
					"type": "address"
				},
				{
					"internalType": "address",
					"name": "_vaultManager",
					"type": "address"
				}
			],
			"stateMutability": "nonpayable",
			"type": "constructor"
		},
		{
			"anonymous": false,
			"inputs": [
				{
					"indexed": true,
					"internalType": "address",
					"name": "pool",
					"type": "address"
				},
				{
					"indexed": true,
					"internalType": "address",
					"name": "lender",
					"type": "address"
				},
				{
					"indexed": true,
					"internalType": "address",
					"name": "vault",
					"type": "address"
				},
				{
					"indexed": false,
					"internalType": "enum IPoolOrganizer.PoolType",
					"name": "poolType",
					"type": "uint8"
				}
			],
			"name": "PoolCreated",
			"type": "event"
		},
		{
			"anonymous": false,
			"inputs": [
				{
					"indexed": true,
					"internalType": "address",
					"name": "vault",
					"type": "address"
				},
				{
					"indexed": false,
					"internalType": "address",
					"name": "assetToken",
					"type": "address"
				}
			],
			"name": "VaultCreated",
			"type": "event"
		},
		{
			"inputs": [
				{
					"internalType": "address",
					"name": "lender",
					"type": "address"
				},
				{
					"internalType": "contract IERC20",
					"name": "loanTokenAddress",
					"type": "address"
				},
				{
					"internalType": "contract IERC20",
					"name": "assetToken",
					"type": "address"
				},
				{
					"internalType": "contract IERC20",
					"name": "repaymentTokenAddress",
					"type": "address"
				},
				{
					"internalType": "uint256",
					"name": "loanAmount",
					"type": "uint256"
				},
				{
					"internalType": "uint256",
					"name": "interestRate",
					"type": "uint256"
				},
				{
					"internalType": "uint256",
					"name": "repaymentPeriod",
					"type": "uint256"
				},
				{
					"internalType": "contract IInterestModel",
					"name": "interestModel",
					"type": "address"
				},
				{
					"internalType": "enum IPoolOrganizer.PoolType",
					"name": "poolType",
					"type": "uint8"
				},
				{
					"internalType": "uint256",
					"name": "optionalFlashLoanFeeRate",
					"type": "uint256"
				}
			],
			"name": "createTuliaPool",
			"outputs": [
				{
					"internalType": "address",
					"name": "poolAddress",
					"type": "address"
				},
				{
					"internalType": "address",
					"name": "vaultAddress",
					"type": "address"
				}
			],
			"stateMutability": "nonpayable",
			"type": "function"
		},
		{
			"inputs": [],
			"name": "poolOrganizer",
			"outputs": [
				{
					"internalType": "contract IPoolOrganizer",
					"name": "",
					"type": "address"
				}
			],
			"stateMutability": "view",
			"type": "function"
		},
		{
			"inputs": [],
			"name": "rewardManager",
			"outputs": [
				{
					"internalType": "contract IRewardManager",
					"name": "",
					"type": "address"
				}
			],
			"stateMutability": "view",
			"type": "function"
		},
		{
			"inputs": [],
			"name": "vaultManager",
			"outputs": [
				{
					"internalType": "contract IVaultManager",
					"name": "",
					"type": "address"
				}
			],
			"stateMutability": "view",
			"type": "function"
		},
		{
			"inputs": [
				{
					"internalType": "address",
					"name": "",
					"type": "address"
				}
			],
			"name": "vaults",
			"outputs": [
				{
					"internalType": "contract TuliaVault",
					"name": "",
					"type": "address"
				}
			],
			"stateMutability": "view",
			"type": "function"
		}
	]
}