{
	"data": {
		"bytecode": {
			"linkReferences": {},
			"object": "60803461009957601f61095d38819003918201601f19168301916001600160401b0383118484101761009d578084926060946040528339810103126100995780516001600160a01b0380821692909183900361009957602081015191821680920361009957604001519160015f5560018060a01b03199081600254161760025560045416176004556005556040516108ab90816100b28239f35b5f80fd5b634e487b7160e01b5f52604160045260245ffdfe6080806040526004361015610012575f80fd5b5f90813560e01c9081630f4ef8a61461074e5750806312261ee71461072557806338d52e0f146106fc5780635cffe9de1461019a578063613255ab146100ef5780638c9f305f146100d1578063c51b9507146100a85763d9d98ce414610076575f80fd5b346100a55760403660031901126100a557602061009d610094610773565b60243590610813565b604051908152f35b80fd5b50346100a557806003193601126100a5576003546040516001600160a01b039091168152602090f35b50346100a557806003193601126100a5576020600554604051908152f35b50346100a557602090816003193601126100a55761010b610773565b6002546001600160a01b03908116918491168203610193576040516370a0823160e01b815230600482015291829060249082905afa9182156101875791610156575b50604051908152f35b90508181813d8311610180575b61016d81836107b1565b8101031261017c57515f61014d565b5f80fd5b503d610163565b604051903d90823e3d90fd5b505061009d565b50346100a55760803660031901126100a557600435906001600160a01b03821682036100a557602435916001600160a01b03831683036106f85767ffffffffffffffff80606435116104e2573660236064350112156104e25760643560040135116106f857366024606435600401356064350101116106f85760028254146106b3576002808355546001600160a01b039081169061023b90851682146107d3565b61024760443585610813565b6040516370a0823160e01b81523060048201529091602082602481845afa91821561050857908591829361067b575b5060405163a9059cbb60e01b81526001600160a01b0386166004820152604480356024830152909260209284929183915af180156105085761065c575b506040516323e30c8b60e01b815233600482015260018060a01b0386166024820152604435604482015282606482015260a060848201526064356004013560a48201526064356004013560246064350160c483013760c46064356004013582810182018790526020918391601f19601f9091011682018290030181886001600160a01b0389165af1801561050857859061060a575b7f439148f0bbc682ca079e46d6e2c2f0c1e3b820f1a291b069d8882abf8cf18dd99150036105d157816044350180604435116105bd576002546040516323b872dd60e01b81526001600160a01b038681166004830152306024830152604482019390935291602091839160649183918a91165af180156105085761058e575b506002546040516370a0823160e01b815230600482015290602090829060249082906001600160a01b03165afa90811561050857859161055c575b5010610517576001546001600160a01b0316803b1561051357604051848160248183637e72c7d760e01b968783523060048401525af18015610508576104f5575b506003546001600160a01b031690813b156104f157849160248392604051948593849283523060048401525af180156104e6576104ce575b5060408051604435815260208101929092526001946001600160a01b039081169316917f9d0d497e678f62d6b162c97b9724a39f45fe674650dcd4a5e88ff6317e63764f9190a355602060405160018152f35b6104d88491610789565b6104e2575f61047b565b8280fd5b6040513d86823e3d90fd5b8480fd5b61050190949194610789565b925f610443565b6040513d87823e3d90fd5b8380fd5b60405162461bcd60e51b815260206004820152601b60248201527f466c617368206c6f616e2072657061796d656e74206661696c656400000000006044820152606490fd5b90506020813d602011610586575b81610577602093836107b1565b810103126104f157515f610402565b3d915061056a565b6105af9060203d6020116105b6575b6105a781836107b1565b81019061085d565b505f6103c7565b503d61059d565b634e487b7160e01b85526011600452602485fd5b60405162461bcd60e51b8152602060048201526011602482015270119b185cda081b1bd85b8819985a5b1959607a1b6044820152606490fd5b506020813d602011610654575b81610624602093836107b1565b810103126104f1577f439148f0bbc682ca079e46d6e2c2f0c1e3b820f1a291b069d8882abf8cf18dd99051610348565b3d9150610617565b6106749060203d6020116105b6576105a781836107b1565b505f6102b3565b915091506020813d6020116106ab575b81610698602093836107b1565b810103126104f157519084906020610276565b3d915061068b565b60405162461bcd60e51b815260206004820152601f60248201527f5265656e7472616e637947756172643a207265656e7472616e742063616c6c006044820152606490fd5b5080fd5b50346100a557806003193601126100a5576002546040516001600160a01b039091168152602090f35b50346100a557806003193601126100a5576004546040516001600160a01b039091168152602090f35b9050346106f857816003193601126106f8576001546001600160a01b03168152602090f35b600435906001600160a01b038216820361017c57565b67ffffffffffffffff811161079d57604052565b634e487b7160e01b5f52604160045260245ffd5b90601f8019910116810190811067ffffffffffffffff82111761079d57604052565b156107da57565b60405162461bcd60e51b81526020600482015260116024820152702ab739bab83837b93a32b2103a37b5b2b760791b6044820152606490fd5b60025461082d916001600160a01b039081169116146107d3565b6005549081810291818304149015171561084957612710900490565b634e487b7160e01b5f52601160045260245ffd5b9081602091031261017c5751801515810361017c579056fea26469706673582212200e3159df3395500ccf50e364c44efbc8fc73bf8cb7361a068a417cfa9a71fb2964736f6c63430008140033",
			"opcodes": "PUSH1 0x80 CALLVALUE PUSH2 0x99 JUMPI PUSH1 0x1F PUSH2 0x95D CODESIZE DUP2 SWAP1 SUB SWAP2 DUP3 ADD PUSH1 0x1F NOT AND DUP4 ADD SWAP2 PUSH1 0x1 PUSH1 0x1 PUSH1 0x40 SHL SUB DUP4 GT DUP5 DUP5 LT OR PUSH2 0x9D JUMPI DUP1 DUP5 SWAP3 PUSH1 0x60 SWAP5 PUSH1 0x40 MSTORE DUP4 CODECOPY DUP2 ADD SUB SLT PUSH2 0x99 JUMPI DUP1 MLOAD PUSH1 0x1 PUSH1 0x1 PUSH1 0xA0 SHL SUB DUP1 DUP3 AND SWAP3 SWAP1 SWAP2 DUP4 SWAP1 SUB PUSH2 0x99 JUMPI PUSH1 0x20 DUP2 ADD MLOAD SWAP2 DUP3 AND DUP1 SWAP3 SUB PUSH2 0x99 JUMPI PUSH1 0x40 ADD MLOAD SWAP2 PUSH1 0x1 PUSH0 SSTORE PUSH1 0x1 DUP1 PUSH1 0xA0 SHL SUB NOT SWAP1 DUP2 PUSH1 0x2 SLOAD AND OR PUSH1 0x2 SSTORE PUSH1 0x4 SLOAD AND OR PUSH1 0x4 SSTORE PUSH1 0x5 SSTORE PUSH1 0x40 MLOAD PUSH2 0x8AB SWAP1 DUP2 PUSH2 0xB2 DUP3 CODECOPY RETURN JUMPDEST PUSH0 DUP1 REVERT JUMPDEST PUSH4 0x4E487B71 PUSH1 0xE0 SHL PUSH0 MSTORE PUSH1 0x41 PUSH1 0x4 MSTORE PUSH1 0x24 PUSH0 REVERT INVALID PUSH1 0x80 DUP1 PUSH1 0x40 MSTORE PUSH1 0x4 CALLDATASIZE LT ISZERO PUSH2 0x12 JUMPI PUSH0 DUP1 REVERT JUMPDEST PUSH0 SWAP1 DUP2 CALLDATALOAD PUSH1 0xE0 SHR SWAP1 DUP2 PUSH4 0xF4EF8A6 EQ PUSH2 0x74E JUMPI POP DUP1 PUSH4 0x12261EE7 EQ PUSH2 0x725 JUMPI DUP1 PUSH4 0x38D52E0F EQ PUSH2 0x6FC JUMPI DUP1 PUSH4 0x5CFFE9DE EQ PUSH2 0x19A JUMPI DUP1 PUSH4 0x613255AB EQ PUSH2 0xEF JUMPI DUP1 PUSH4 0x8C9F305F EQ PUSH2 0xD1 JUMPI DUP1 PUSH4 0xC51B9507 EQ PUSH2 0xA8 JUMPI PUSH4 0xD9D98CE4 EQ PUSH2 0x76 JUMPI PUSH0 DUP1 REVERT JUMPDEST CALLVALUE PUSH2 0xA5 JUMPI PUSH1 0x40 CALLDATASIZE PUSH1 0x3 NOT ADD SLT PUSH2 0xA5 JUMPI PUSH1 0x20 PUSH2 0x9D PUSH2 0x94 PUSH2 0x773 JUMP JUMPDEST PUSH1 0x24 CALLDATALOAD SWAP1 PUSH2 0x813 JUMP JUMPDEST PUSH1 0x40 MLOAD SWAP1 DUP2 MSTORE RETURN JUMPDEST DUP1 REVERT JUMPDEST POP CALLVALUE PUSH2 0xA5 JUMPI DUP1 PUSH1 0x3 NOT CALLDATASIZE ADD SLT PUSH2 0xA5 JUMPI PUSH1 0x3 SLOAD PUSH1 0x40 MLOAD PUSH1 0x1 PUSH1 0x1 PUSH1 0xA0 SHL SUB SWAP1 SWAP2 AND DUP2 MSTORE PUSH1 0x20 SWAP1 RETURN JUMPDEST POP CALLVALUE PUSH2 0xA5 JUMPI DUP1 PUSH1 0x3 NOT CALLDATASIZE ADD SLT PUSH2 0xA5 JUMPI PUSH1 0x20 PUSH1 0x5 SLOAD PUSH1 0x40 MLOAD SWAP1 DUP2 MSTORE RETURN JUMPDEST POP CALLVALUE PUSH2 0xA5 JUMPI PUSH1 0x20 SWAP1 DUP2 PUSH1 0x3 NOT CALLDATASIZE ADD SLT PUSH2 0xA5 JUMPI PUSH2 0x10B PUSH2 0x773 JUMP JUMPDEST PUSH1 0x2 SLOAD PUSH1 0x1 PUSH1 0x1 PUSH1 0xA0 SHL SUB SWAP1 DUP2 AND SWAP2 DUP5 SWAP2 AND DUP3 SUB PUSH2 0x193 JUMPI PUSH1 0x40 MLOAD PUSH4 0x70A08231 PUSH1 0xE0 SHL DUP2 MSTORE ADDRESS PUSH1 0x4 DUP3 ADD MSTORE SWAP2 DUP3 SWAP1 PUSH1 0x24 SWAP1 DUP3 SWAP1 GAS STATICCALL SWAP2 DUP3 ISZERO PUSH2 0x187 JUMPI SWAP2 PUSH2 0x156 JUMPI JUMPDEST POP PUSH1 0x40 MLOAD SWAP1 DUP2 MSTORE RETURN JUMPDEST SWAP1 POP DUP2 DUP2 DUP2 RETURNDATASIZE DUP4 GT PUSH2 0x180 JUMPI JUMPDEST PUSH2 0x16D DUP2 DUP4 PUSH2 0x7B1 JUMP JUMPDEST DUP2 ADD SUB SLT PUSH2 0x17C JUMPI MLOAD PUSH0 PUSH2 0x14D JUMP JUMPDEST PUSH0 DUP1 REVERT JUMPDEST POP RETURNDATASIZE PUSH2 0x163 JUMP JUMPDEST PUSH1 0x40 MLOAD SWAP1 RETURNDATASIZE SWAP1 DUP3 RETURNDATACOPY RETURNDATASIZE SWAP1 REVERT JUMPDEST POP POP PUSH2 0x9D JUMP JUMPDEST POP CALLVALUE PUSH2 0xA5 JUMPI PUSH1 0x80 CALLDATASIZE PUSH1 0x3 NOT ADD SLT PUSH2 0xA5 JUMPI PUSH1 0x4 CALLDATALOAD SWAP1 PUSH1 0x1 PUSH1 0x1 PUSH1 0xA0 SHL SUB DUP3 AND DUP3 SUB PUSH2 0xA5 JUMPI PUSH1 0x24 CALLDATALOAD SWAP2 PUSH1 0x1 PUSH1 0x1 PUSH1 0xA0 SHL SUB DUP4 AND DUP4 SUB PUSH2 0x6F8 JUMPI PUSH8 0xFFFFFFFFFFFFFFFF DUP1 PUSH1 0x64 CALLDATALOAD GT PUSH2 0x4E2 JUMPI CALLDATASIZE PUSH1 0x23 PUSH1 0x64 CALLDATALOAD ADD SLT ISZERO PUSH2 0x4E2 JUMPI PUSH1 0x64 CALLDATALOAD PUSH1 0x4 ADD CALLDATALOAD GT PUSH2 0x6F8 JUMPI CALLDATASIZE PUSH1 0x24 PUSH1 0x64 CALLDATALOAD PUSH1 0x4 ADD CALLDATALOAD PUSH1 0x64 CALLDATALOAD ADD ADD GT PUSH2 0x6F8 JUMPI PUSH1 0x2 DUP3 SLOAD EQ PUSH2 0x6B3 JUMPI PUSH1 0x2 DUP1 DUP4 SSTORE SLOAD PUSH1 0x1 PUSH1 0x1 PUSH1 0xA0 SHL SUB SWAP1 DUP2 AND SWAP1 PUSH2 0x23B SWAP1 DUP6 AND DUP3 EQ PUSH2 0x7D3 JUMP JUMPDEST PUSH2 0x247 PUSH1 0x44 CALLDATALOAD DUP6 PUSH2 0x813 JUMP JUMPDEST PUSH1 0x40 MLOAD PUSH4 0x70A08231 PUSH1 0xE0 SHL DUP2 MSTORE ADDRESS PUSH1 0x4 DUP3 ADD MSTORE SWAP1 SWAP2 PUSH1 0x20 DUP3 PUSH1 0x24 DUP2 DUP5 GAS STATICCALL SWAP2 DUP3 ISZERO PUSH2 0x508 JUMPI SWAP1 DUP6 SWAP2 DUP3 SWAP4 PUSH2 0x67B JUMPI JUMPDEST POP PUSH1 0x40 MLOAD PUSH4 0xA9059CBB PUSH1 0xE0 SHL DUP2 MSTORE PUSH1 0x1 PUSH1 0x1 PUSH1 0xA0 SHL SUB DUP7 AND PUSH1 0x4 DUP3 ADD MSTORE PUSH1 0x44 DUP1 CALLDATALOAD PUSH1 0x24 DUP4 ADD MSTORE SWAP1 SWAP3 PUSH1 0x20 SWAP3 DUP5 SWAP3 SWAP2 DUP4 SWAP2 GAS CALL DUP1 ISZERO PUSH2 0x508 JUMPI PUSH2 0x65C JUMPI JUMPDEST POP PUSH1 0x40 MLOAD PUSH4 0x23E30C8B PUSH1 0xE0 SHL DUP2 MSTORE CALLER PUSH1 0x4 DUP3 ADD MSTORE PUSH1 0x1 DUP1 PUSH1 0xA0 SHL SUB DUP7 AND PUSH1 0x24 DUP3 ADD MSTORE PUSH1 0x44 CALLDATALOAD PUSH1 0x44 DUP3 ADD MSTORE DUP3 PUSH1 0x64 DUP3 ADD MSTORE PUSH1 0xA0 PUSH1 0x84 DUP3 ADD MSTORE PUSH1 0x64 CALLDATALOAD PUSH1 0x4 ADD CALLDATALOAD PUSH1 0xA4 DUP3 ADD MSTORE PUSH1 0x64 CALLDATALOAD PUSH1 0x4 ADD CALLDATALOAD PUSH1 0x24 PUSH1 0x64 CALLDATALOAD ADD PUSH1 0xC4 DUP4 ADD CALLDATACOPY PUSH1 0xC4 PUSH1 0x64 CALLDATALOAD PUSH1 0x4 ADD CALLDATALOAD DUP3 DUP2 ADD DUP3 ADD DUP8 SWAP1 MSTORE PUSH1 0x20 SWAP2 DUP4 SWAP2 PUSH1 0x1F NOT PUSH1 0x1F SWAP1 SWAP2 ADD AND DUP3 ADD DUP3 SWAP1 SUB ADD DUP2 DUP9 PUSH1 0x1 PUSH1 0x1 PUSH1 0xA0 SHL SUB DUP10 AND GAS CALL DUP1 ISZERO PUSH2 0x508 JUMPI DUP6 SWAP1 PUSH2 0x60A JUMPI JUMPDEST PUSH32 0x439148F0BBC682CA079E46D6E2C2F0C1E3B820F1A291B069D8882ABF8CF18DD9 SWAP2 POP SUB PUSH2 0x5D1 JUMPI DUP2 PUSH1 0x44 CALLDATALOAD ADD DUP1 PUSH1 0x44 CALLDATALOAD GT PUSH2 0x5BD JUMPI PUSH1 0x2 SLOAD PUSH1 0x40 MLOAD PUSH4 0x23B872DD PUSH1 0xE0 SHL DUP2 MSTORE PUSH1 0x1 PUSH1 0x1 PUSH1 0xA0 SHL SUB DUP7 DUP2 AND PUSH1 0x4 DUP4 ADD MSTORE ADDRESS PUSH1 0x24 DUP4 ADD MSTORE PUSH1 0x44 DUP3 ADD SWAP4 SWAP1 SWAP4 MSTORE SWAP2 PUSH1 0x20 SWAP2 DUP4 SWAP2 PUSH1 0x64 SWAP2 DUP4 SWAP2 DUP11 SWAP2 AND GAS CALL DUP1 ISZERO PUSH2 0x508 JUMPI PUSH2 0x58E JUMPI JUMPDEST POP PUSH1 0x2 SLOAD PUSH1 0x40 MLOAD PUSH4 0x70A08231 PUSH1 0xE0 SHL DUP2 MSTORE ADDRESS PUSH1 0x4 DUP3 ADD MSTORE SWAP1 PUSH1 0x20 SWAP1 DUP3 SWAP1 PUSH1 0x24 SWAP1 DUP3 SWAP1 PUSH1 0x1 PUSH1 0x1 PUSH1 0xA0 SHL SUB AND GAS STATICCALL SWAP1 DUP2 ISZERO PUSH2 0x508 JUMPI DUP6 SWAP2 PUSH2 0x55C JUMPI JUMPDEST POP LT PUSH2 0x517 JUMPI PUSH1 0x1 SLOAD PUSH1 0x1 PUSH1 0x1 PUSH1 0xA0 SHL SUB AND DUP1 EXTCODESIZE ISZERO PUSH2 0x513 JUMPI PUSH1 0x40 MLOAD DUP5 DUP2 PUSH1 0x24 DUP2 DUP4 PUSH4 0x7E72C7D7 PUSH1 0xE0 SHL SWAP7 DUP8 DUP4 MSTORE ADDRESS PUSH1 0x4 DUP5 ADD MSTORE GAS CALL DUP1 ISZERO PUSH2 0x508 JUMPI PUSH2 0x4F5 JUMPI JUMPDEST POP PUSH1 0x3 SLOAD PUSH1 0x1 PUSH1 0x1 PUSH1 0xA0 SHL SUB AND SWAP1 DUP2 EXTCODESIZE ISZERO PUSH2 0x4F1 JUMPI DUP5 SWAP2 PUSH1 0x24 DUP4 SWAP3 PUSH1 0x40 MLOAD SWAP5 DUP6 SWAP4 DUP5 SWAP3 DUP4 MSTORE ADDRESS PUSH1 0x4 DUP5 ADD MSTORE GAS CALL DUP1 ISZERO PUSH2 0x4E6 JUMPI PUSH2 0x4CE JUMPI JUMPDEST POP PUSH1 0x40 DUP1 MLOAD PUSH1 0x44 CALLDATALOAD DUP2 MSTORE PUSH1 0x20 DUP2 ADD SWAP3 SWAP1 SWAP3 MSTORE PUSH1 0x1 SWAP5 PUSH1 0x1 PUSH1 0x1 PUSH1 0xA0 SHL SUB SWAP1 DUP2 AND SWAP4 AND SWAP2 PUSH32 0x9D0D497E678F62D6B162C97B9724A39F45FE674650DCD4A5E88FF6317E63764F SWAP2 SWAP1 LOG3 SSTORE PUSH1 0x20 PUSH1 0x40 MLOAD PUSH1 0x1 DUP2 MSTORE RETURN JUMPDEST PUSH2 0x4D8 DUP5 SWAP2 PUSH2 0x789 JUMP JUMPDEST PUSH2 0x4E2 JUMPI PUSH0 PUSH2 0x47B JUMP JUMPDEST DUP3 DUP1 REVERT JUMPDEST PUSH1 0x40 MLOAD RETURNDATASIZE DUP7 DUP3 RETURNDATACOPY RETURNDATASIZE SWAP1 REVERT JUMPDEST DUP5 DUP1 REVERT JUMPDEST PUSH2 0x501 SWAP1 SWAP5 SWAP2 SWAP5 PUSH2 0x789 JUMP JUMPDEST SWAP3 PUSH0 PUSH2 0x443 JUMP JUMPDEST PUSH1 0x40 MLOAD RETURNDATASIZE DUP8 DUP3 RETURNDATACOPY RETURNDATASIZE SWAP1 REVERT JUMPDEST DUP4 DUP1 REVERT JUMPDEST PUSH1 0x40 MLOAD PUSH3 0x461BCD PUSH1 0xE5 SHL DUP2 MSTORE PUSH1 0x20 PUSH1 0x4 DUP3 ADD MSTORE PUSH1 0x1B PUSH1 0x24 DUP3 ADD MSTORE PUSH32 0x466C617368206C6F616E2072657061796D656E74206661696C65640000000000 PUSH1 0x44 DUP3 ADD MSTORE PUSH1 0x64 SWAP1 REVERT JUMPDEST SWAP1 POP PUSH1 0x20 DUP2 RETURNDATASIZE PUSH1 0x20 GT PUSH2 0x586 JUMPI JUMPDEST DUP2 PUSH2 0x577 PUSH1 0x20 SWAP4 DUP4 PUSH2 0x7B1 JUMP JUMPDEST DUP2 ADD SUB SLT PUSH2 0x4F1 JUMPI MLOAD PUSH0 PUSH2 0x402 JUMP JUMPDEST RETURNDATASIZE SWAP2 POP PUSH2 0x56A JUMP JUMPDEST PUSH2 0x5AF SWAP1 PUSH1 0x20 RETURNDATASIZE PUSH1 0x20 GT PUSH2 0x5B6 JUMPI JUMPDEST PUSH2 0x5A7 DUP2 DUP4 PUSH2 0x7B1 JUMP JUMPDEST DUP2 ADD SWAP1 PUSH2 0x85D JUMP JUMPDEST POP PUSH0 PUSH2 0x3C7 JUMP JUMPDEST POP RETURNDATASIZE PUSH2 0x59D JUMP JUMPDEST PUSH4 0x4E487B71 PUSH1 0xE0 SHL DUP6 MSTORE PUSH1 0x11 PUSH1 0x4 MSTORE PUSH1 0x24 DUP6 REVERT JUMPDEST PUSH1 0x40 MLOAD PUSH3 0x461BCD PUSH1 0xE5 SHL DUP2 MSTORE PUSH1 0x20 PUSH1 0x4 DUP3 ADD MSTORE PUSH1 0x11 PUSH1 0x24 DUP3 ADD MSTORE PUSH17 0x119B185CDA081B1BD85B8819985A5B1959 PUSH1 0x7A SHL PUSH1 0x44 DUP3 ADD MSTORE PUSH1 0x64 SWAP1 REVERT JUMPDEST POP PUSH1 0x20 DUP2 RETURNDATASIZE PUSH1 0x20 GT PUSH2 0x654 JUMPI JUMPDEST DUP2 PUSH2 0x624 PUSH1 0x20 SWAP4 DUP4 PUSH2 0x7B1 JUMP JUMPDEST DUP2 ADD SUB SLT PUSH2 0x4F1 JUMPI PUSH32 0x439148F0BBC682CA079E46D6E2C2F0C1E3B820F1A291B069D8882ABF8CF18DD9 SWAP1 MLOAD PUSH2 0x348 JUMP JUMPDEST RETURNDATASIZE SWAP2 POP PUSH2 0x617 JUMP JUMPDEST PUSH2 0x674 SWAP1 PUSH1 0x20 RETURNDATASIZE PUSH1 0x20 GT PUSH2 0x5B6 JUMPI PUSH2 0x5A7 DUP2 DUP4 PUSH2 0x7B1 JUMP JUMPDEST POP PUSH0 PUSH2 0x2B3 JUMP JUMPDEST SWAP2 POP SWAP2 POP PUSH1 0x20 DUP2 RETURNDATASIZE PUSH1 0x20 GT PUSH2 0x6AB JUMPI JUMPDEST DUP2 PUSH2 0x698 PUSH1 0x20 SWAP4 DUP4 PUSH2 0x7B1 JUMP JUMPDEST DUP2 ADD SUB SLT PUSH2 0x4F1 JUMPI MLOAD SWAP1 DUP5 SWAP1 PUSH1 0x20 PUSH2 0x276 JUMP JUMPDEST RETURNDATASIZE SWAP2 POP PUSH2 0x68B JUMP JUMPDEST PUSH1 0x40 MLOAD PUSH3 0x461BCD PUSH1 0xE5 SHL DUP2 MSTORE PUSH1 0x20 PUSH1 0x4 DUP3 ADD MSTORE PUSH1 0x1F PUSH1 0x24 DUP3 ADD MSTORE PUSH32 0x5265656E7472616E637947756172643A207265656E7472616E742063616C6C00 PUSH1 0x44 DUP3 ADD MSTORE PUSH1 0x64 SWAP1 REVERT JUMPDEST POP DUP1 REVERT JUMPDEST POP CALLVALUE PUSH2 0xA5 JUMPI DUP1 PUSH1 0x3 NOT CALLDATASIZE ADD SLT PUSH2 0xA5 JUMPI PUSH1 0x2 SLOAD PUSH1 0x40 MLOAD PUSH1 0x1 PUSH1 0x1 PUSH1 0xA0 SHL SUB SWAP1 SWAP2 AND DUP2 MSTORE PUSH1 0x20 SWAP1 RETURN JUMPDEST POP CALLVALUE PUSH2 0xA5 JUMPI DUP1 PUSH1 0x3 NOT CALLDATASIZE ADD SLT PUSH2 0xA5 JUMPI PUSH1 0x4 SLOAD PUSH1 0x40 MLOAD PUSH1 0x1 PUSH1 0x1 PUSH1 0xA0 SHL SUB SWAP1 SWAP2 AND DUP2 MSTORE PUSH1 0x20 SWAP1 RETURN JUMPDEST SWAP1 POP CALLVALUE PUSH2 0x6F8 JUMPI DUP2 PUSH1 0x3 NOT CALLDATASIZE ADD SLT PUSH2 0x6F8 JUMPI PUSH1 0x1 SLOAD PUSH1 0x1 PUSH1 0x1 PUSH1 0xA0 SHL SUB AND DUP2 MSTORE PUSH1 0x20 SWAP1 RETURN JUMPDEST PUSH1 0x4 CALLDATALOAD SWAP1 PUSH1 0x1 PUSH1 0x1 PUSH1 0xA0 SHL SUB DUP3 AND DUP3 SUB PUSH2 0x17C JUMPI JUMP JUMPDEST PUSH8 0xFFFFFFFFFFFFFFFF DUP2 GT PUSH2 0x79D JUMPI PUSH1 0x40 MSTORE JUMP JUMPDEST PUSH4 0x4E487B71 PUSH1 0xE0 SHL PUSH0 MSTORE PUSH1 0x41 PUSH1 0x4 MSTORE PUSH1 0x24 PUSH0 REVERT JUMPDEST SWAP1 PUSH1 0x1F DUP1 NOT SWAP2 ADD AND DUP2 ADD SWAP1 DUP2 LT PUSH8 0xFFFFFFFFFFFFFFFF DUP3 GT OR PUSH2 0x79D JUMPI PUSH1 0x40 MSTORE JUMP JUMPDEST ISZERO PUSH2 0x7DA JUMPI JUMP JUMPDEST PUSH1 0x40 MLOAD PUSH3 0x461BCD PUSH1 0xE5 SHL DUP2 MSTORE PUSH1 0x20 PUSH1 0x4 DUP3 ADD MSTORE PUSH1 0x11 PUSH1 0x24 DUP3 ADD MSTORE PUSH17 0x2AB739BAB83837B93A32B2103A37B5B2B7 PUSH1 0x79 SHL PUSH1 0x44 DUP3 ADD MSTORE PUSH1 0x64 SWAP1 REVERT JUMPDEST PUSH1 0x2 SLOAD PUSH2 0x82D SWAP2 PUSH1 0x1 PUSH1 0x1 PUSH1 0xA0 SHL SUB SWAP1 DUP2 AND SWAP2 AND EQ PUSH2 0x7D3 JUMP JUMPDEST PUSH1 0x5 SLOAD SWAP1 DUP2 DUP2 MUL SWAP2 DUP2 DUP4 DIV EQ SWAP1 ISZERO OR ISZERO PUSH2 0x849 JUMPI PUSH2 0x2710 SWAP1 DIV SWAP1 JUMP JUMPDEST PUSH4 0x4E487B71 PUSH1 0xE0 SHL PUSH0 MSTORE PUSH1 0x11 PUSH1 0x4 MSTORE PUSH1 0x24 PUSH0 REVERT JUMPDEST SWAP1 DUP2 PUSH1 0x20 SWAP2 SUB SLT PUSH2 0x17C JUMPI MLOAD DUP1 ISZERO ISZERO DUP2 SUB PUSH2 0x17C JUMPI SWAP1 JUMP INVALID LOG2 PUSH5 0x6970667358 0x22 SLT KECCAK256 0xE BALANCE MSIZE 0xDF CALLER SWAP6 POP 0xC 0xCF POP 0xE3 PUSH5 0xC44EFBC8FC PUSH20 0xBF8CB7361A068A417CFA9A71FB2964736F6C6343 STOP ADDMOD EQ STOP CALLER "
		},
		"gasEstimates": {
			"creation": {
				"codeDepositCost": "443800",
				"executionCost": "infinite",
				"totalCost": "infinite"
			},
			"external": {
				"asset()": "2333",
				"flashFee(address,uint256)": "4769",
				"flashLoan(address,address,uint256,bytes)": "infinite",
				"flashLoanFeeRate()": "2375",
				"maxFlashLoan(address)": "infinite",
				"permit2()": "2311",
				"poolOrganizer()": "2421",
				"rewardManager()": "2278"
			},
			"internal": {
				"_executeFlashLoan(contract IERC3156FlashBorrower,address,uint256,bytes calldata)": "infinite"
			}
		},
		"methodIdentifiers": {
			"asset()": "38d52e0f",
			"flashFee(address,uint256)": "d9d98ce4",
			"flashLoan(address,address,uint256,bytes)": "5cffe9de",
			"flashLoanFeeRate()": "8c9f305f",
			"maxFlashLoan(address)": "613255ab",
			"permit2()": "12261ee7",
			"poolOrganizer()": "c51b9507",
			"rewardManager()": "0f4ef8a6"
		}
	},
	"abi": [
		{
			"inputs": [
				{
					"internalType": "contract IERC20",
					"name": "_asset",
					"type": "address"
				},
				{
					"internalType": "contract IPermit2",
					"name": "_permit2",
					"type": "address"
				},
				{
					"internalType": "uint256",
					"name": "_flashLoanFeeRate",
					"type": "uint256"
				}
			],
			"stateMutability": "nonpayable",
			"type": "constructor"
		},
		{
			"anonymous": false,
			"inputs": [
				{
					"indexed": true,
					"internalType": "address",
					"name": "receiver",
					"type": "address"
				},
				{
					"indexed": true,
					"internalType": "address",
					"name": "token",
					"type": "address"
				},
				{
					"indexed": false,
					"internalType": "uint256",
					"name": "amount",
					"type": "uint256"
				},
				{
					"indexed": false,
					"internalType": "uint256",
					"name": "fee",
					"type": "uint256"
				}
			],
			"name": "FlashLoanExecuted",
			"type": "event"
		},
		{
			"inputs": [],
			"name": "asset",
			"outputs": [
				{
					"internalType": "contract IERC20",
					"name": "",
					"type": "address"
				}
			],
			"stateMutability": "view",
			"type": "function"
		},
		{
			"inputs": [
				{
					"internalType": "address",
					"name": "token",
					"type": "address"
				},
				{
					"internalType": "uint256",
					"name": "amount",
					"type": "uint256"
				}
			],
			"name": "flashFee",
			"outputs": [
				{
					"internalType": "uint256",
					"name": "",
					"type": "uint256"
				}
			],
			"stateMutability": "view",
			"type": "function"
		},
		{
			"inputs": [
				{
					"internalType": "contract IERC3156FlashBorrower",
					"name": "receiver",
					"type": "address"
				},
				{
					"internalType": "address",
					"name": "token",
					"type": "address"
				},
				{
					"internalType": "uint256",
					"name": "amount",
					"type": "uint256"
				},
				{
					"internalType": "bytes",
					"name": "data",
					"type": "bytes"
				}
			],
			"name": "flashLoan",
			"outputs": [
				{
					"internalType": "bool",
					"name": "",
					"type": "bool"
				}
			],
			"stateMutability": "nonpayable",
			"type": "function"
		},
		{
			"inputs": [],
			"name": "flashLoanFeeRate",
			"outputs": [
				{
					"internalType": "uint256",
					"name": "",
					"type": "uint256"
				}
			],
			"stateMutability": "view",
			"type": "function"
		},
		{
			"inputs": [
				{
					"internalType": "address",
					"name": "token",
					"type": "address"
				}
			],
			"name": "maxFlashLoan",
			"outputs": [
				{
					"internalType": "uint256",
					"name": "",
					"type": "uint256"
				}
			],
			"stateMutability": "view",
			"type": "function"
		},
		{
			"inputs": [],
			"name": "permit2",
			"outputs": [
				{
					"internalType": "contract IPermit2",
					"name": "",
					"type": "address"
				}
			],
			"stateMutability": "view",
			"type": "function"
		},
		{
			"inputs": [],
			"name": "poolOrganizer",
			"outputs": [
				{
					"internalType": "contract IPoolOrganizer",
					"name": "",
					"type": "address"
				}
			],
			"stateMutability": "view",
			"type": "function"
		},
		{
			"inputs": [],
			"name": "rewardManager",
			"outputs": [
				{
					"internalType": "contract IRewardManager",
					"name": "",
					"type": "address"
				}
			],
			"stateMutability": "view",
			"type": "function"
		}
	]
}