{
	"data": {
		"bytecode": {
			"linkReferences": {},
			"object": "608034620002a957601f62004cb438819003918201601f191683019291906001600160401b03841183851017620002ad578160a09284926040968752833981010312620002a9576200005181620002c1565b9060209162000062838301620002c1565b9162000070858201620002c1565b6200008c60806200008460608501620002c1565b9301620002c1565b6001600160a01b039384169490939085156200025457811691821562000205578116928315620001b35781169384156200015e57169485156200010b575060018060a01b031993845f5416175f558360015416176001558260025416176002558160035416176003556004541617600455516149dd9081620002d78239f35b60849087519062461bcd60e51b82526004820152602760248201527f5661756c744d616e616765722063616e6e6f7420626520746865207a65726f206044820152666164647265737360c81b6064820152fd5b875162461bcd60e51b815260048101889052602860248201527f5265776172644d616e616765722063616e6e6f7420626520746865207a65726f604482015267206164647265737360c01b6064820152608490fd5b875162461bcd60e51b815260048101889052602560248201527f4665654d616e616765722063616e6e6f7420626520746865207a65726f206164604482015264647265737360d81b6064820152608490fd5b875162461bcd60e51b815260048101889052602260248201527f5065726d6974322063616e6e6f7420626520746865207a65726f206164647265604482015261737360f01b6064820152608490fd5b875162461bcd60e51b815260048101889052602860248201527f506f6f6c4f7267616e697a65722063616e6e6f7420626520746865207a65726f604482015267206164647265737360c01b6064820152608490fd5b5f80fd5b634e487b7160e01b5f52604160045260245ffd5b51906001600160a01b0382168203620002a95756fe6101206040818152600436101562000015575f80fd5b5f91823560e01c9081630f4ef8a614620002235750806312261ee714620001f95780638a4adf2414620001cf5780638c41fd091462000109578063a622ee7c14620000cb578063c51b950714620000a25763d0fb02031462000075575f80fd5b346200009e57816003193601126200009e5760025490516001600160a01b039091168152602090f35b5080fd5b50346200009e57816003193601126200009e57905490516001600160a01b039091168152602090f35b50346200009e5760203660031901126200009e576020916001600160a01b0390829082620000f86200024a565b168152600585522054169051908152f35b50346200009e576101403660031901126200009e57620001286200024a565b916001600160a01b036024358181168103620001cb57604435908282168203620001c757606435958387168703620001c35760e4359384168403620001c35761010435946002861015620001c0575091620001bc9693916200019c9593610124359560c4359360a435936084359362000370565b91516001600160a01b039182168152911660208201529081906040820190565b0390f35b80fd5b8480fd5b8380fd5b8280fd5b50346200009e57816003193601126200009e5760045490516001600160a01b039091168152602090f35b50346200009e57816003193601126200009e5760015490516001600160a01b039091168152602090f35b8390346200009e57816003193601126200009e576003546001600160a01b03168152602090f35b600435906001600160a01b03821682036200026157565b5f80fd5b67ffffffffffffffff81116200027a57604052565b634e487b7160e01b5f52604160045260245ffd5b90601f8019910116810190811067ffffffffffffffff8211176200027a57604052565b5f5b838110620002c35750505f910152565b8181015183820152602001620002b3565b6020818303126200026157805167ffffffffffffffff918282116200026157019082601f83011215620002615781519081116200027a576040519262000325601f8301601f1916602001856200028e565b818452602082840101116200026157620003469160208085019101620002b1565b90565b906020916200036481518092818552858086019101620002b1565b601f01601f1916010190565b91999899979092979693969594958260a052836101005260e05260805260018060a01b03161515908162000c96575b501562000c5d575f96608051600281101562000c49571562000a4c575b60805180620008045750506001545f54600354600454604051986001600160a01b0391821698928216979382169694909116949392919067ffffffffffffffff6115458b01908111908b11176200027a57611545620017138b3960a080516001600160a01b039081166115458d0190815261010080518316602083015293821660408201528e8216606082015260808101949094529083019390935260c0820193909352921660e083015281019190915261012081019190915261014081019190915261016081019190915281900361018001905ff08015620007f9575f80546001600160a01b039283169216803b156200009e5760405163121bbb4d60e11b81526004810184905260a0516001600160a01b039081166024830152604482018490528681166064830152610100518116608483015260e0511660a482015260c4810183905260e4810183905261010481018390526080519091839183916101449183918591620005339061012485019062000caa565b5af180156200071e57620007e7575b5060805162000771576004546001600160a01b0316803b156200009e57604051639c51562960e01b81526001600160a01b038481166004830152861660248201529082908290604490829084905af180156200071e5790829162000759575b50506003546001600160a01b0316803b156200009e57604051637286e5e560e01b8152610100516001600160a01b0385811660048401521660248201529082908290604490829084905af180156200071e5790829162000741575b50506003546001600160a01b0316803b156200009e576040516372e462b960e11b8152610100516001600160a01b0385811660048401521660248201529082908290604490829084905af180156200071e5790829162000729575b505080546001600160a01b0316803b156200009e576040516305c4fdf960e01b81526001600160a01b038481166004830152861660248201529082908290604490829084905af180156200071e5762000706575b50505b604051620006bf8160805162000caa565b60a0516001600160a01b038581169291169083907f645ee41665486bc487a04a91a2bd296d2d2395cabf7747b152436dd15f9d4f8f90602090a4916001600160a01b031690565b62000712829162000265565b620001c05780620006ab565b6040513d84823e3d90fd5b620007349062000265565b620001c057805f62000657565b6200074c9062000265565b620001c057805f620005fc565b620007649062000265565b620001c057805f620005a1565b6003546001600160a01b0316803b156200009e57604051637286e5e560e01b8152610100516001600160a01b0385811660048401521660248201529082908290604490829084905af180156200071e57620007cf575b5050620006ae565b620007db829162000265565b620001c05780620007c7565b620007f29062000265565b5f62000542565b6040513d5f823e3d90fd5b945095965050505060019150145f1462000a0f5761010051600154600254604080516001600160a01b039485169591949093811692610a46928386019290911667ffffffffffffffff8311868410176200027a57608094869462000ccd863988845260208401528683015260608201520301905ff0801562000a05575f80546001600160a01b039283169491921690813b15620001cb57829161014483928651948593849263121bbb4d60e11b84528a600485015260018060a01b0360a051166024850152826044850152826064850152608484015260018060a01b0360e0511660a48401528160c48401528160e4840152816101048401526200090f610124840160805162000caa565b5af18015620009fb57620009e9575b506003549091906001600160a01b0316803b15620001cb578151637286e5e560e01b8152610100516001600160a01b0386811660048401521660248201529083908290604490829084905af18015620009dd57908391620009c5575b5050516200098b8160805162000caa565b60a0516001600160a01b03169083907f645ee41665486bc487a04a91a2bd296d2d2395cabf7747b152436dd15f9d4f8f90602090a4905f90565b620009d09062000265565b6200009e57815f6200097a565b505051903d90823e3d90fd5b620009f49062000265565b5f6200091e565b83513d84823e3d90fd5b50513d5f823e3d90fd5b60405162461bcd60e51b8152602060048201526015602482015274556e737570706f7274656420706f6f6c207479706560581b6044820152606490fd5b60018060a01b0360e0511660c09860408a526040516395d89b4160e01b8082528282600481875afa91821562000c1e57839262000c29575b5062000ac160228d51518094612a2b60f11b602083015262000ab08151809260208686019101620002b1565b81010360028101855201836200028e565b8b51519081528281600481875afa90811562000c1e57839162000bf7575b5062000b24602a8d5151809369151d5b1a5855985d5b1d60b21b602083015262000b138151809260208686019101620002b1565b810103600a8101845201826200028e565b60018060a01b03600154168c515192611d50928385019385851067ffffffffffffffff86111762000be3578f8695949362000b7b60609462000b8a9462002c588a398b885260806020890152608088019062000349565b91868303905187015262000349565b920152039082f090811562000bd757509851519081526001600160a01b038916907f5d9c31ffa0fecffd7cf379989a3c7af252f0335e0d2a1320b55245912c781f5390602090a2620003bc565b8a5151903d90823e3d90fd5b634e487b7160e01b87526041600452602487fd5b62000c1791503d8085833e62000c0e81836200028e565b810190620002d4565b5f62000adf565b8c51513d85823e3d90fd5b62000c419192503d8085833e62000c0e81836200028e565b905f62000a84565b634e487b7160e01b89526021600452602489fd5b60405162461bcd60e51b8152602060048201526011602482015270496e76616c69642061646472657373657360781b6044820152606490fd5b6001600160a01b0316151590505f6200039f565b90600282101562000cb85752565b634e487b7160e01b5f52602160045260245ffdfe6080346100bb57601f610a4638819003918201601f19168301916001600160401b038311848410176100bf578084926080946040528339810103126100bb5780516001600160a01b0390818116908190036100bb576020830151928284168094036100bb5760408101519283168093036100bb57606001519260015f5560018060a01b031991826001541617600155816002541617600255600354161760035560045560ff196005541660055560405161097290816100d48239f35b5f80fd5b634e487b7160e01b5f52604160045260245ffdfe6080806040526004361015610012575f80fd5b5f3560e01c90816312261ee71461068c5750806338d52e0f146106645780635cffe9de146101cf578063613255ab146101295780638c9f305f1461010c578063c19d93fb146100cf578063d0fb0203146100a75763d9d98ce414610074575f80fd5b346100a35760403660031901126100a357602061009b6100926106af565b6024359061075b565b604051908152f35b5f80fd5b346100a3575f3660031901126100a3576003546040516001600160a01b039091168152602090f35b346100a3575f3660031901126100a35760ff6005541660405160038210156100f8576020918152f35b634e487b7160e01b5f52602160045260245ffd5b346100a3575f3660031901126100a3576020600454604051908152f35b346100a3576020806003193601126100a3576101436106af565b6001546001600160a01b039081169183911682036101c7576040516370a0823160e01b815230600482015291829060249082905afa9081156101bc575f9161018f575b50604051908152f35b90508181813d83116101b5575b6101a681836106c5565b810103126100a3575182610186565b503d61019c565b6040513d5f823e3d90fd5b50505f61009b565b346100a35760803660031901126100a3576004356001600160a01b03811681036100a357602435906001600160a01b03821682036100a35767ffffffffffffffff606435116100a3573660236064350112156100a35767ffffffffffffffff60643560040135116100a357366024606435600401356064350101116100a35760025f541461061f5760025f556001546001600160a01b03908116929061027890821684146106e7565b60ff6005541660038110156100f8576105da576102976044358261075b565b90604051936370a0823160e01b8552306004860152602085602481845afa9485156101bc575f956105a6575b5060405163a9059cbb60e01b60208201526001600160a01b03851660248201526044803581830152815267ffffffffffffffff6080820190811190821117610507576103159160808201604052610802565b604051906323e30c8b60e01b825233600483015260018060a01b03166024820152604435604482015281606482015260a060848201526064356004013560a48201526064356004013560246064350160c48301375f60c4606435600401358301015260208160c481601f19601f60643560040135011681010301815f60018060a01b0388165af180156101bc575f90610554575b7f439148f0bbc682ca079e46d6e2c2f0c1e3b820f1a291b069d8882abf8cf18dd991500361051b576103dd9060443561074e565b6001546040516323b872dd60e01b60208201526001600160a01b03938416602482015230604482015260648082019390935291825260a08201921667ffffffffffffffff8311828410176105075761043792604052610802565b6001546040516370a0823160e01b815230600482015290602090829060249082906001600160a01b03165afa9081156101bc575f916104d5575b50106104905760ff196005541660055560015f55602060405160018152f35b60405162461bcd60e51b815260206004820152601b60248201527f466c617368206c6f616e2072657061796d656e74206661696c656400000000006044820152606490fd5b90506020813d6020116104ff575b816104f0602093836106c5565b810103126100a3575182610471565b3d91506104e3565b634e487b7160e01b5f52604160045260245ffd5b60405162461bcd60e51b8152602060048201526011602482015270119b185cda081b1bd85b8819985a5b1959607a1b6044820152606490fd5b506020813d60201161059e575b8161056e602093836106c5565b810103126100a3577f439148f0bbc682ca079e46d6e2c2f0c1e3b820f1a291b069d8882abf8cf18dd990516103a9565b3d9150610561565b9094506020813d6020116105d2575b816105c2602093836106c5565b810103126100a3575193856102c3565b3d91506105b5565b60405162461bcd60e51b815260206004820152601860248201527f466c617368206c6f616e206e6f7420617661696c61626c6500000000000000006044820152606490fd5b60405162461bcd60e51b815260206004820152601f60248201527f5265656e7472616e637947756172643a207265656e7472616e742063616c6c006044820152606490fd5b346100a3575f3660031901126100a3576001546040516001600160a01b039091168152602090f35b346100a3575f3660031901126100a3576002546001600160a01b03168152602090f35b600435906001600160a01b03821682036100a357565b90601f8019910116810190811067ffffffffffffffff82111761050757604052565b156106ee57565b60405162461bcd60e51b81526020600482015260116024820152702ab739bab83837b93a32b2103a37b5b2b760791b6044820152606490fd5b8181029291811591840414171561073a57565b634e487b7160e01b5f52601160045260245ffd5b9190820180921161073a57565b6001549192916001600160a01b0391610779918316908316146106e7565b612710600460208261078c835488610727565b0493600354166040519283809263053e755b60e01b82525afa9081156101bc575f916107cc575b506107c2906107c99495610727565b049061074e565b90565b906020823d82116107fa575b816107e5602093836106c5565b810103126107f75750516107c96107b3565b80fd5b3d91506107d8565b60018060a01b0316905f80826020829451910182865af13d156108cd573d9067ffffffffffffffff82116108b9579061085d916040519161084d6020601f19601f84011601846106c5565b82523d84602084013e5b846108d9565b90815191821515928361088d575b5050506108755750565b60249060405190635274afe760e01b82526004820152fd5b8192935090602091810103126108b55760200151908115918215036107f757505f808061086b565b5080fd5b634e487b7160e01b83526041600452602483fd5b61085d90606090610857565b9061090057508051156108ee57805190602001fd5b604051630a12f52160e11b8152600490fd5b81511580610933575b610911575090565b604051639996b31560e01b81526001600160a01b039091166004820152602490fd5b50803b1561090956fea2646970667358221220a58ad39521a2776269cc347d478eb6ab1ce9ba60d4075628c8eccb62e107ade764736f6c634300081400336080346200038057601f6200154538819003918201601f19168301916001600160401b03831184841017620002ee578084926101809460405283398101031262000380576200004e8162000384565b6200005c6020830162000384565b916200006b6040820162000384565b916200007a6060830162000384565b9260808301519460a08401519360c08101519060e081015160018060a01b03811681036200038057610100820151916001600160a01b03831683036200038057620000c9610120820162000384565b620000e7610160620000df610140850162000384565b930162000384565b60015f55936001600160a01b0389161515806200036d575b806200035a575b8062000347575b156200030257600180546001600160a01b03199081166001600160a01b039384161790915560028054821693831693909317909255600380549092169216919091179055600454604051979093906001600160401b036101608a01908111908a1117620002ee578a5f6101408b7f3d48195705780f5c10a0d217f778f0f6d562cb1a6a699da31c0d6d756aacedfc9d61016060609e0160405260018060a01b038d16825260018060a01b038b16602083015260018060a01b038c16604083015260018060a01b031693848e83015260808201528460a08201528560c082015260018060a01b03871660e08201528261010082015243610120820152015260018060a01b03891660018060a01b0319600554161760055560018060a01b03871660018060a01b0319600654161760065560018060a01b03881660018060a01b0319600754161760075560018060a01b031960085416176008558a600955600a55600b5560018060a01b031660018060a01b0319600c541617600c5560018060a01b0319600d5416600d5543600e555f600f5560018060a01b03169060018060a81b0319161760045560405195865260018060a01b0316602086015260018060a01b0316604085015260018060a01b031692a26040516111ab90816200039a8239f35b634e487b7160e01b5f52604160045260245ffd5b60405162461bcd60e51b815260206004820152601760248201527f496e76616c696420696e707574206164647265737365730000000000000000006044820152606490fd5b506001600160a01b03881615156200010d565b506001600160a01b038b16151562000106565b506001600160a01b0387161515620000ff565b5f80fd5b51906001600160a01b0382168203620003805756fe6080604081815260049182361015610015575f80fd5b5f92833560e01c9182630f4ef8a614610e335750816312261ee714610e0a5781632e1283e314610deb578163371fd8e614610a3a5781633b1baeff1461079d5781635257b5661461077e57816364c4bec01461075f578163654c6295146106c85781636b6d1955146106a85781638a4adf241461067f5781638db579941461059157816395cb741d146105055781639e9f669c146104d5578163c19d93fb146104d5578163c51b9507146104ac578163eb0c495514610488578163f30f29dd14610109575063f4b01b18146100e8575f80fd5b346101055781600319360112610105576020906009549051908152f35b5080fd5b91905034610484578060031936011261048457610124610e57565b90602490813590610133610ede565b60ff855460a01c16600581101561047257600103610431576001600160a01b03848116959086156103ef57806005541687146103ad5761017c6101746110e6565b6009546110b8565b841061036b57600654600854845163095ea7b360e01b60208083018281529386166001600160a01b0381168b85019081528083018b90528490038083018552919a9593949387169390918e9182916101d79060400188610ebc565b86519082875af16101e6611016565b8161033b575b5080610331575b156102d3575b50505050858860448460085416938c88519586948593636e553f6560e01b85528c8b8601528401525af180156102c95761029b575b507f5150ab7694a22fbc01c642bc10316565247df962fa3f0ac3b5d1a18ba45b485b9561027e91886bffffffffffffffffffffffff60a01b600d541617600d556006541690600954913090610f32565b805460ff60a01b1916600160a11b17905551908152a26001815580f35b8590813d83116102c2575b6102b08183610ebc565b810103126102be575f61022e565b5f80fd5b503d6102a6565b84513d8b823e3d90fd5b8751918a830152848201528b6044820152604481526080810181811067ffffffffffffffff82111761031f5761031693929161031191895282610fa5565b610fa5565b5f8080806101f9565b84604188634e487b7160e01b5f52525ffd5b50823b15156101f3565b8051801592508c908315610353575b5050505f6101ec565b6103639350820181019101610f8d565b5f8b8161034a565b506017846020606494519362461bcd60e51b85528401528201527f496e73756666696369656e7420636f6c6c61746572616c0000000000000000006044820152fd5b506019846020606494519362461bcd60e51b85528401528201527f4c656e6465722063616e6e6f7420626520626f72726f776572000000000000006044820152fd5b506018846020606494519362461bcd60e51b85528401528201527f496e76616c696420626f72726f776572206164647265737300000000000000006044820152fd5b5162461bcd60e51b8152602081860152601a818401527f4c6f616e206e6f7420726561647920746f2061637469766174650000000000006044820152606490fd5b634e487b7160e01b8752602186528387fd5b8280fd5b5050346101055781600319360112610105576020906104a56110e6565b9051908152f35b50503461010557816003193601126101055760025490516001600160a01b039091168152602090f35b8284346105025780600319360112610502575060ff6104fe925460a01c16905191829182610e6d565b0390f35b80fd5b5050346101055781600319360112610105576101609060018060a01b038060055416918160065416918060075416908060085416600954600a5490600b549284600c541694600d541695600e5497600f549981519b8c5260208c01528a01526060890152608088015260a087015260c086015260e0850152610100840152610120830152610140820152f35b9050346104845782600319360112610484576105ab610ede565b60ff815460a01c16600581101561066c5761062a577f9e71d2fb732e68272b7e74ecfd14638673c1d77e19a5d390a3ffff054d57c44b9160209161060560018060a01b038060065416906005541690600954913091610f32565b43600f55805460ff60a01b1916600160a01b1790556009549051908152a16001815580f35b6020606492519162461bcd60e51b8352820152601b60248201527f4c6f616e206e6f7420696e20637265617461626c6520737461746500000000006044820152fd5b634e487b7160e01b845260218252602484fd5b50503461010557816003193601126101055760035490516001600160a01b039091168152602090f35b5050346101055781600319360112610105576020906104a56101746110e6565b838334610105576020928360031936011261048457836106e6610e57565b60085484516370a0823160e01b81526001600160a01b039283169481019490945283916024918391165afa9283156107545792610725575b5051908152f35b9091508281813d831161074d575b61073d8183610ebc565b810103126102be5751908361071e565b503d610733565b8251903d90823e3d90fd5b505034610105578160031936011261010557602090600b549051908152f35b505034610105578160031936011261010557602090600a549051908152f35b91905034610484578260031936011261048457815460ff8160a01c166005811015610a27576002036109ef576107d8600e54600b54906110b8565b43106109a1576107f26009546107ec6110e6565b906110b8565b9160018060a01b0393846007541692856005541690835195866370a0823160e01b96878252848683015281602460209a8b935afa908115610997578a9161096a575b501061083e578780f35b60ff60a01b1916600160a21b17825560085483519485523085840152861690878686602481865afa95861561095e579087949392918197610927575b508551632d182be560e21b81529384019687526001600160a01b03909116602087015230604087015291948592839182906060015b03925af190811561091e57506108f5575b5050600d54167ff4e5cf42cbb1d0c6c91e16d925349feb6c5d970652f6ec77b1ff1262f7284cd58280a25f8080808080808780f35b813d8311610917575b6109088183610ebc565b810103126102be575f806108c0565b503d6108fe565b513d86823e3d90fd5b94809297508591503d8311610957575b6109418183610ebc565b810103126102be576108af94888794519661087a565b503d610937565b508451903d90823e3d90fd5b90508781813d8311610990575b6109818183610ebc565b810103126102be57515f610834565b503d610977565b86513d8c823e3d90fd5b815162461bcd60e51b8152602081850152602260248201527f52657061796d656e7420706572696f6420686173206e6f742079657420656e64604482015261195960f21b6064820152608490fd5b815162461bcd60e51b815260208185015260126024820152714c6f616e206973206e6f742061637469766560701b6044820152606490fd5b634e487b7160e01b855260218452602485fd5b9050346104845760209081600319360112610c4e57803590610a5a610ede565b60ff815460a01c166005811015610dd857600203610d9f57610a806009546107ec6110e6565b91828110610d525760018060a01b0390610aa68483600754168460055416903390610f32565b8380821115610d4a57610ab8916110d9565b80610d0f575b50806008541685516370a0823160e01b815230848201528581602481855afa8015610c955786918991610cda575b50600d548851632d182be560e21b81528681019283529085166001600160a01b0316602083015230604083015292839182908b9082906060015b03925af1908115610cd0578591610ca3575b5050815460ff60a01b1916600360a01b178255600254811690813b15610c9f578551878160248183637e72c7d760e01b97888352308a8401525af18015610c9557610c7e575b50908187939260035416803b15610c7a5784809160248a51809481936338e270ed60e01b8352308a8401525af1908115610c70578591610c5c575b505082541691823b15610c4e57602484928389519586948593845230908401525af18015610c5257610c3a575b50507f4002dba848920f438092e08090cfb5fc47144c22704268b402c9553a1b5adfe69251907f409fced1b85ae32a29fb1e18894d8361a5f2653dc27adf7102d86175c2901d7c8580a18152a16001815580f35b610c4390610e94565b610c4e57835f610be6565b8380fd5b85513d84823e3d90fd5b610c6590610e94565b610c4e57835f610bb9565b88513d87823e3d90fd5b8480fd5b610c8c909791939297610e94565b9590915f610b7e565b87513d8a823e3d90fd5b8680fd5b813d8311610cc9575b610cb68183610ebc565b81010312610cc557835f610b38565b8580fd5b503d610cac565b86513d89823e3d90fd5b82819392503d8311610d08575b610cf18183610ebc565b81010312610d0457518590610b26610aec565b8780fd5b503d610ce7565b600754865163a9059cbb60e01b87820152336024820152604480820193909352918252610d4491908316610311606483610ebc565b5f610abe565b505085610ab8565b845162461bcd60e51b8152808301859052602160248201527f496e73756666696369656e7420616d6f756e7420666f722072657061796d656e6044820152601d60fa1b6064820152608490fd5b835162461bcd60e51b815290810183905260136024820152724c6f616e206d7573742062652061637469766560681b6044820152606490fd5b634e487b7160e01b865260218252602486fd5b505034610105578160031936011261010557602090600f549051908152f35b50503461010557816003193601126101055760015490516001600160a01b039091168152602090f35b849134610484578260031936011261048457546001600160a01b0316815260209150f35b600435906001600160a01b03821682036102be57565b919060208301926005821015610e805752565b634e487b7160e01b5f52602160045260245ffd5b67ffffffffffffffff8111610ea857604052565b634e487b7160e01b5f52604160045260245ffd5b90601f8019910116810190811067ffffffffffffffff821117610ea857604052565b60025f5414610eed5760025f55565b60405162461bcd60e51b815260206004820152601f60248201527f5265656e7472616e637947756172643a207265656e7472616e742063616c6c006044820152606490fd5b6040516323b872dd60e01b60208201526001600160a01b03928316602482015292909116604483015260648083019390935291815260a081019181831067ffffffffffffffff841117610ea857610f8b92604052610fa5565b565b908160209103126102be575180151581036102be5790565b5f80610fcd9260018060a01b03169360208151910182865af1610fc6611016565b9083611055565b8051908115159182610ffb575b5050610fe35750565b60249060405190635274afe760e01b82526004820152fd5b61100e9250602080918301019101610f8d565b155f80610fda565b3d15611050573d9067ffffffffffffffff8211610ea85760405191611045601f8201601f191660200184610ebc565b82523d5f602084013e565b606090565b9061107c575080511561106a57805190602001fd5b604051630a12f52160e11b8152600490fd5b815115806110af575b61108d575090565b604051639996b31560e01b81526001600160a01b039091166004820152602490fd5b50803b15611085565b919082018092116110c557565b634e487b7160e01b5f52601160045260245ffd5b919082039182116110c557565b6110f2600e54436110d9565b602060018060a01b03600c54166064600954600a549260405195869485936301786f6360e21b85526004850152602484015260448301525afa90811561116a575f9161113c575090565b906020823d8211611162575b8161115560209383610ebc565b8101031261050257505190565b3d9150611148565b6040513d5f823e3d90fdfea2646970667358221220e32312a1245a84bb257b3d61c9f7cb5bc218719965a3a37cdb5a26302b33dfe464736f6c6343000814003360e08060405234620003b05762001d508038038091620000208285620003b4565b83398101608082820312620003b05781516001600160a01b03928382168203620003b05760208181015190916001600160401b0391828111620003b057856200006b918301620003f4565b946040820151838111620003b05760609162000089918401620003f4565b9101519586168603620003b0578451828111620002bb576003918254916001978884811c94168015620003a5575b8785101462000391578190601f948581116200033e575b508790858311600114620002db575f92620002cf575b50505f1982861b1c191690881b1783555b8051938411620002bb5760049485548881811c91168015620002b0575b828210146200029d5790818487969594931162000244575b5080928511600114620001da57505f93620001ce575b505082861b925f19911b1c19161790555b6200015c816200045c565b9015620001c5575b60a05260805260055560c05260405161182e9081620005228239608051818181610bc2015281816111df0152818161135301526114e3015260a05181610c05015260c051818181610256015281816107ec015281816108a10152610b7e0152f35b50601262000164565b015191505f8062000140565b929190889550601f198516875f52845f20945f905b8282106200022a575050851162000210575b50505050811b01905562000151565b01519060f8845f19921b161c191690555f80808062000201565b8484015187558b98909601959384019390810190620001ef565b909192939450865f52815f208480880160051c82019284891062000293575b918b91899897969594930160051c01915b828110620002845750506200012a565b5f81558897508b910162000274565b9250819262000263565b602287634e487b7160e01b5f525260245ffd5b90607f169062000112565b634e487b7160e01b5f52604160045260245ffd5b015190505f80620000e4565b908a9350601f19831691875f52895f20925f5b8b8282106200032757505084116200030f575b505050811b018355620000f5565b01515f1983881b60f8161c191690555f808062000301565b8385015186558e97909501949384019301620002ee565b909150855f52875f208580850160051c8201928a861062000387575b918c91869594930160051c01915b82811062000378575050620000ce565b5f81558594508c910162000368565b925081926200035a565b634e487b7160e01b5f52602260045260245ffd5b93607f1693620000b7565b5f80fd5b601f909101601f19168101906001600160401b03821190821017620002bb57604052565b6001600160401b038111620002bb57601f01601f191660200190565b919080601f84011215620003b0578251906200041082620003d8565b91620004206040519384620003b4565b808352602091828287010111620003b0575f5b818110620004485750825f9394955001015290565b858101830151848201840152820162000433565b6040805163313ce56760e01b60208201908152600482529293929181016001600160401b03811182821017620002bb57604052515f9384928392916001600160a01b03165afa3d1562000518573d90620004b682620003d8565b91620004c66040519384620003b4565b82523d84602084013e5b806200050b575b620004e2575b508190565b60208180518101031262000507576020015160ff8111620004dd576001925060ff1690565b8280fd5b50602081511015620004d7565b606090620004d056fe60806040526004361015610011575f80fd5b5f3560e01c806301e1d11414610e2c57806306fdde0314610d7157806307a2d13a14610b64578063095ea7b314610cbf5780630a28a47714610ca157806318160ddd14610c8457806323b872dd14610c4c578063313ce56714610bf157806338d52e0f14610bad578063402d267d1461041a578063464582cb14610b695780634cdad50614610b645780636e553f6514610b3a57806370a08231146103a35780637b17edf21461069957806394bf804d1461066657806395d89b4114610566578063a9059cbb14610535578063b3d7f6b914610517578063b460af9414610497578063ba0876521461041f578063c63d75b61461041a578063c6e6f5921461014d578063ce96cb77146103e3578063d905777e146103a3578063dd62ed3e14610356578063e6adb29c146101525763ef8b30f71461014d575f80fd5b610fed565b346103525761012036600319011261035257366023190160043560c082126103525760806040519261018384610f10565b12610352576040519161019583610f52565b6001600160a01b03926024358481168103610352578152604435848116810361035257602082015265ffffffffffff60643581811681036103525760408301526084359081168103610352576060820152815260a43583811681036103525760208201908152604082019060c435825260e435916001600160401b0380841161035257366023850112156103525783600401359081116103525736602482860101116103525761010491823595888716870361035257610253611780565b887f00000000000000000000000000000000000000000000000000000000000000001693843b15610352575f966102e3946024610301938a966040519e8f9b8c9a8b996302b67b5760e41b8b523360048c0152868b01905160609060018060a01b0380825116845260208201511660208401528165ffffffffffff91826040820151166040860152015116910152565b511660a48801525160c487015261010060e487015285019201611760565b03925af19081156103475760209361032b92610338575b5061032283611279565b928391336112fa565b6001600555604051908152f35b61034190610f3f565b84610318565b6040513d5f823e3d90fd5b5f80fd5b346103525760403660031901126103525761036f610eab565b610377610ec1565b9060018060a01b038091165f52600160205260405f2091165f52602052602060405f2054604051908152f35b346103525760203660031901126103525760206103db6103c1610eab565b6001600160a01b03165f9081526020819052604090205490565b604051908152f35b34610352576020366003190112610352576001600160a01b03610404610eab565b165f525f60205260206103db60405f20546112cf565b610eeb565b346103525761042d36610fb8565b9060018060a01b0382165f525f60205260405f20548084116104635750826103db9161045a6020956112cf565b93849133611411565b604051632e52afbb60e21b81526001600160a01b039390931660048401526024830193909352506044810191909152606490fd5b34610352576104a536610fb8565b9060018060a01b0382165f525f6020526104c260405f20546112cf565b8084116104e357506103db90836104da60209561124b565b93849233611411565b604051633fa733bb60e21b81526001600160a01b039390931660048401526024830193909352506044810191909152606490fd5b346103525760203660031901126103525760206103db6004356112a4565b346103525760403660031901126103525761055b610551610eab565b602435903361100b565b602060405160018152f35b34610352575f366003190112610352576040515f90600454600181811c9080831692831561065c575b60209384841081146106485783865290811561062857506001146105ce575b6105ca846105be81880382610f6d565b60405191829182610e46565b0390f35b60045f9081529294507f8a35acfbc15ff81a39ae7d344fd709f28e8600b4aa8c65c6b64bfe7fe36bd19b5b82841061061557505050816105ca936105be92820101936105ae565b80548585018701529285019281016105f9565b60ff1916858501525050151560051b82010191506105be816105ca6105ae565b634e487b7160e01b5f52602260045260245ffd5b91607f169161058f565b346103525760403660031901126103525760206004356103db610687610ec1565b91610691816112a4565b8093336112fa565b34610352576060366003190112610352576001600160401b03600435116103525736602360043501121561035257600435600401356106d781610f8e565b906106e56040519283610f6d565b80825260208201903660248260051b60043501011161035257602460043501915b60248260051b600435010183106109d457836001600160401b036024351161035257366023602435011215610352576001600160401b0360243560040135116103525736602480356004013560051b8135010111610352576044356001600160a01b038116900361035257610779611780565b5f90815b81518310156109ba5761079083836117e4565b51602435600401358410156109a65760421960243536030160248560051b813501013512156103525760248460051b8135010135602435016001600160401b0360248201351161035257602481013536036044820113610352577f00000000000000000000000000000000000000000000000000000000000000006001600160a01b03163b15610352576040518092632a2d80d160e01b82523360048301526060602483015260c4820190805191606060648501528251809152602060e485019301905f5b81811061094b5750505082915f94604061089c9360018060a01b036020820151166084870152015160a4850152600319848303016044850152604460248201359101611760565b0381837f00000000000000000000000000000000000000000000000000000000000000006001600160a01b03165af180156103475761093c575b505f905b6108e484846117e4565b51515182101561092b576109259061091f906001600160a01b0360206109158661090e8a8a6117e4565b51516117e4565b51015116906110e6565b916117d6565b906108da565b9261093691506117d6565b9161077d565b61094590610f3f565b836108d6565b91959450919260206080826109966001948a5160609060018060a01b0380825116845260208201511660208401528165ffffffffffff91826040820151166040860152015116910152565b0196019101918694959392610855565b634e487b7160e01b5f52603260045260245ffd5b60209061032b6109c982611279565b8092604435336112fa565b82356001600160401b0381116103525760606004358201360360231901126103525760405190610a0382610f10565b6024816004350101356001600160401b038111610352573660438284600435010101121561035257602481836004350101013590610a4082610f8e565b91610a4e6040519384610f6d565b808352602083013660448360071b858860043501010101116103525760448386600435010101905b60448360071b8588600435010101018210610ac957505050509282606460209493602496869552610aad6044826004350101610ed7565b8584015260043501013560408201528152019301929050610706565b60808236031261035257604051610adf81610f52565b610ae883610ed7565b815260208301356001600160a01b0381169003610352576080916020918285013583820152610b1960408601610fa5565b6040820152610b2a60608601610fa5565b6060820152815201910190610a76565b346103525760403660031901126103525760206004356103db610b5b610ec1565b61032283611279565b610e8d565b34610352575f366003190112610352576040517f00000000000000000000000000000000000000000000000000000000000000006001600160a01b03168152602090f35b34610352575f366003190112610352576040517f00000000000000000000000000000000000000000000000000000000000000006001600160a01b03168152602090f35b34610352575f3660031901126103525760ff7f00000000000000000000000000000000000000000000000000000000000000001660ff8111610c3857602090604051908152f35b634e487b7160e01b5f52601160045260245ffd5b346103525760603660031901126103525761055b610c68610eab565b610c70610ec1565b60443591610c7f8333836110f3565b61100b565b34610352575f366003190112610352576020600254604051908152f35b346103525760203660031901126103525760206103db60043561124b565b3461035257604036600319011261035257610cd8610eab565b602435903315610d59576001600160a01b0316908115610d4157335f52600160205260405f20825f526020528060405f20556040519081527f8c5be1e5ebec7d5bd14f71427d1e84f3dd0314c0f7b2291e5b200ac8c7c3b92560203392a3602060405160018152f35b604051634a1406b160e11b81525f6004820152602490fd5b60405163e602df0560e01b81525f6004820152602490fd5b34610352575f366003190112610352576040515f90600354600181811c90808316928315610e22575b6020938484108114610648578386529081156106285750600114610dc8576105ca846105be81880382610f6d565b60035f9081529294507fc2575a0e9e593c00f959f8c92f12db2869c3395a3b0502d05e2516446f71f85b5b828410610e0f57505050816105ca936105be92820101936105ae565b8054858501870152928501928101610df3565b91607f1691610d9a565b34610352575f3660031901126103525760206103db6111c4565b602080825282518183018190529093925f5b828110610e7957505060409293505f838284010152601f8019910116010190565b818101860151848201604001528501610e58565b346103525760203660031901126103525760206103db6004356112cf565b600435906001600160a01b038216820361035257565b602435906001600160a01b038216820361035257565b35906001600160a01b038216820361035257565b3461035257602036600319011261035257610f04610eab565b5060206040515f198152f35b606081019081106001600160401b03821117610f2b57604052565b634e487b7160e01b5f52604160045260245ffd5b6001600160401b038111610f2b57604052565b608081019081106001600160401b03821117610f2b57604052565b90601f801991011681019081106001600160401b03821117610f2b57604052565b6001600160401b038111610f2b5760051b60200190565b359065ffffffffffff8216820361035257565b606090600319011261035257600435906001600160a01b03906024358281168103610352579160443590811681036103525790565b346103525760203660031901126103525760206103db600435611279565b916001600160a01b038084169283156110ce57169283156110b6575f9083825281602052604082205490838210611084575091604082827fddf252ad1be2c89b69c2b068fc378daa952ba7f163c4a11628f55a4df523b3ef958760209652828652038282205586815220818154019055604051908152a3565b60405163391434e360e21b81526001600160a01b03919091166004820152602481019190915260448101839052606490fd5b60405163ec442f0560e01b81525f6004820152602490fd5b604051634b637e8f60e11b81525f6004820152602490fd5b91908201809211610c3857565b9160018060a01b03809316915f9383855260016020526040938486209183169182875260205284862054925f198403611130575b50505050505050565b8484106111945750801561117c5781156111645785526001602052838520908552602052039120555f808080808080611127565b8451634a1406b160e11b815260048101879052602490fd5b845163e602df0560e01b815260048101879052602490fd5b8551637dc7a0d960e11b81526001600160a01b039190911660048201526024810184905260448101859052606490fd5b6040516370a0823160e01b81523060048201526020816024817f00000000000000000000000000000000000000000000000000000000000000006001600160a01b03165afa908115610347575f9161121a575090565b906020823d8211611243575b8161123360209383610f6d565b8101031261124057505190565b80fd5b3d9150611226565b60025460018101809111610c38576112616111c4565b9060018201809211610c38576112769261168f565b90565b60025460018101809111610c385761128f6111c4565b9060018201809211610c3857611276926116cd565b6112ac6111c4565b60018101809111610c38576002549060018201809211610c38576112769261168f565b6112d76111c4565b60018101809111610c38576002549060018201809211610c3857611276926116cd565b604080516323b872dd60e01b60208201526001600160a01b0392831660248201819052306044830152606480830187905282529491939192919060a08101906001600160401b03821181831017610f2b576113779186527f0000000000000000000000000000000000000000000000000000000000000000611556565b169384156113fa5790816113af7fdcbc1c05240f31ff3ad067ef1ee35ce4997762752e3a095284754544f4c709d794936002546110e6565b600255855f525f602052825f20818154019055855f7fddf252ad1be2c89b69c2b068fc378daa952ba7f163c4a11628f55a4df523b3ef60208651858152a382519182526020820152a3565b825163ec442f0560e01b81525f6004820152602490fd5b91909260018060a01b0394858316958085169482888703611545575b505086156110ce575f87815280602052604094858220549084821061151457509181847ffbde797d201c681b91056529119e0b02407c7bb96a4a2c75c01fc9667232c8db979695948b61150795528260205203868220558360025403600255897fddf252ad1be2c89b69c2b068fc378daa952ba7f163c4a11628f55a4df523b3ef60208851878152a384519763a9059cbb60e01b60208a01521696876024820152836044820152604481526114e181610f52565b7f0000000000000000000000000000000000000000000000000000000000000000611556565b82519182526020820152a4565b865163391434e360e21b81526001600160a01b03919091166004820152602481019190915260448101849052606490fd5b61154f91866110f3565b5f8261142d565b60018060a01b0316905f80826020829451910182865af13d15611620573d906001600160401b03821161160c57906115b091604051916115a06020601f19601f8401160184610f6d565b82523d84602084013e5b8461162c565b9081519182151592836115e0575b5050506115c85750565b60249060405190635274afe760e01b82526004820152fd5b81929350906020918101031261160857602001519081159182150361124057505f80806115be565b5080fd5b634e487b7160e01b83526041600452602483fd5b6115b0906060906115aa565b90611653575080511561164157805190602001fd5b604051630a12f52160e11b8152600490fd5b81511580611686575b611664575090565b604051639996b31560e01b81526001600160a01b039091166004820152602490fd5b50803b1561165c565b919061169c8282856116cd565b9282156116b957096116ab5790565b60018101809111610c385790565b634e487b7160e01b5f52601260045260245ffd5b9091828202915f1984820993838086109503948086039514611752578483111561174057829109815f038216809204600280826003021880830282030280830282030280830282030280830282030280830282030280920290030293600183805f03040190848311900302920304170290565b60405163227bc15360e01b8152600490fd5b5050809250156116b9570490565b908060209392818452848401375f828201840152601f01601f1916010190565b600260055414611791576002600555565b60405162461bcd60e51b815260206004820152601f60248201527f5265656e7472616e637947756172643a207265656e7472616e742063616c6c006044820152606490fd5b5f198114610c385760010190565b80518210156109a65760209160051b01019056fea264697066735822122010f80328a4f1789f0f95bbb132a01d7f563077070af78b2a0bba6cd5b3a97ef364736f6c63430008140033a26469706673582212206dd943f48a7625ccf0cafa5b3e1542103ba2871b4dd0a15d636681a9b1c9656d64736f6c63430008140033",
			"opcodes": "PUSH1 0x80 CALLVALUE PUSH3 0x2A9 JUMPI PUSH1 0x1F PUSH3 0x4CB4 CODESIZE DUP2 SWAP1 SUB SWAP2 DUP3 ADD PUSH1 0x1F NOT AND DUP4 ADD SWAP3 SWAP2 SWAP1 PUSH1 0x1 PUSH1 0x1 PUSH1 0x40 SHL SUB DUP5 GT DUP4 DUP6 LT OR PUSH3 0x2AD JUMPI DUP2 PUSH1 0xA0 SWAP3 DUP5 SWAP3 PUSH1 0x40 SWAP7 DUP8 MSTORE DUP4 CODECOPY DUP2 ADD SUB SLT PUSH3 0x2A9 JUMPI PUSH3 0x51 DUP2 PUSH3 0x2C1 JUMP JUMPDEST SWAP1 PUSH1 0x20 SWAP2 PUSH3 0x62 DUP4 DUP4 ADD PUSH3 0x2C1 JUMP JUMPDEST SWAP2 PUSH3 0x70 DUP6 DUP3 ADD PUSH3 0x2C1 JUMP JUMPDEST PUSH3 0x8C PUSH1 0x80 PUSH3 0x84 PUSH1 0x60 DUP6 ADD PUSH3 0x2C1 JUMP JUMPDEST SWAP4 ADD PUSH3 0x2C1 JUMP JUMPDEST PUSH1 0x1 PUSH1 0x1 PUSH1 0xA0 SHL SUB SWAP4 DUP5 AND SWAP5 SWAP1 SWAP4 SWAP1 DUP6 ISZERO PUSH3 0x254 JUMPI DUP2 AND SWAP2 DUP3 ISZERO PUSH3 0x205 JUMPI DUP2 AND SWAP3 DUP4 ISZERO PUSH3 0x1B3 JUMPI DUP2 AND SWAP4 DUP5 ISZERO PUSH3 0x15E JUMPI AND SWAP5 DUP6 ISZERO PUSH3 0x10B JUMPI POP PUSH1 0x1 DUP1 PUSH1 0xA0 SHL SUB NOT SWAP4 DUP5 PUSH0 SLOAD AND OR PUSH0 SSTORE DUP4 PUSH1 0x1 SLOAD AND OR PUSH1 0x1 SSTORE DUP3 PUSH1 0x2 SLOAD AND OR PUSH1 0x2 SSTORE DUP2 PUSH1 0x3 SLOAD AND OR PUSH1 0x3 SSTORE PUSH1 0x4 SLOAD AND OR PUSH1 0x4 SSTORE MLOAD PUSH2 0x49DD SWAP1 DUP2 PUSH3 0x2D7 DUP3 CODECOPY RETURN JUMPDEST PUSH1 0x84 SWAP1 DUP8 MLOAD SWAP1 PUSH3 0x461BCD PUSH1 0xE5 SHL DUP3 MSTORE PUSH1 0x4 DUP3 ADD MSTORE PUSH1 0x27 PUSH1 0x24 DUP3 ADD MSTORE PUSH32 0x5661756C744D616E616765722063616E6E6F7420626520746865207A65726F20 PUSH1 0x44 DUP3 ADD MSTORE PUSH7 0x61646472657373 PUSH1 0xC8 SHL PUSH1 0x64 DUP3 ADD MSTORE REVERT JUMPDEST DUP8 MLOAD PUSH3 0x461BCD PUSH1 0xE5 SHL DUP2 MSTORE PUSH1 0x4 DUP2 ADD DUP9 SWAP1 MSTORE PUSH1 0x28 PUSH1 0x24 DUP3 ADD MSTORE PUSH32 0x5265776172644D616E616765722063616E6E6F7420626520746865207A65726F PUSH1 0x44 DUP3 ADD MSTORE PUSH8 0x2061646472657373 PUSH1 0xC0 SHL PUSH1 0x64 DUP3 ADD MSTORE PUSH1 0x84 SWAP1 REVERT JUMPDEST DUP8 MLOAD PUSH3 0x461BCD PUSH1 0xE5 SHL DUP2 MSTORE PUSH1 0x4 DUP2 ADD DUP9 SWAP1 MSTORE PUSH1 0x25 PUSH1 0x24 DUP3 ADD MSTORE PUSH32 0x4665654D616E616765722063616E6E6F7420626520746865207A65726F206164 PUSH1 0x44 DUP3 ADD MSTORE PUSH5 0x6472657373 PUSH1 0xD8 SHL PUSH1 0x64 DUP3 ADD MSTORE PUSH1 0x84 SWAP1 REVERT JUMPDEST DUP8 MLOAD PUSH3 0x461BCD PUSH1 0xE5 SHL DUP2 MSTORE PUSH1 0x4 DUP2 ADD DUP9 SWAP1 MSTORE PUSH1 0x22 PUSH1 0x24 DUP3 ADD MSTORE PUSH32 0x5065726D6974322063616E6E6F7420626520746865207A65726F206164647265 PUSH1 0x44 DUP3 ADD MSTORE PUSH2 0x7373 PUSH1 0xF0 SHL PUSH1 0x64 DUP3 ADD MSTORE PUSH1 0x84 SWAP1 REVERT JUMPDEST DUP8 MLOAD PUSH3 0x461BCD PUSH1 0xE5 SHL DUP2 MSTORE PUSH1 0x4 DUP2 ADD DUP9 SWAP1 MSTORE PUSH1 0x28 PUSH1 0x24 DUP3 ADD MSTORE PUSH32 0x506F6F6C4F7267616E697A65722063616E6E6F7420626520746865207A65726F PUSH1 0x44 DUP3 ADD MSTORE PUSH8 0x2061646472657373 PUSH1 0xC0 SHL PUSH1 0x64 DUP3 ADD MSTORE PUSH1 0x84 SWAP1 REVERT JUMPDEST PUSH0 DUP1 REVERT JUMPDEST PUSH4 0x4E487B71 PUSH1 0xE0 SHL PUSH0 MSTORE PUSH1 0x41 PUSH1 0x4 MSTORE PUSH1 0x24 PUSH0 REVERT JUMPDEST MLOAD SWAP1 PUSH1 0x1 PUSH1 0x1 PUSH1 0xA0 SHL SUB DUP3 AND DUP3 SUB PUSH3 0x2A9 JUMPI JUMP INVALID PUSH2 0x120 PUSH1 0x40 DUP2 DUP2 MSTORE PUSH1 0x4 CALLDATASIZE LT ISZERO PUSH3 0x15 JUMPI PUSH0 DUP1 REVERT JUMPDEST PUSH0 SWAP2 DUP3 CALLDATALOAD PUSH1 0xE0 SHR SWAP1 DUP2 PUSH4 0xF4EF8A6 EQ PUSH3 0x223 JUMPI POP DUP1 PUSH4 0x12261EE7 EQ PUSH3 0x1F9 JUMPI DUP1 PUSH4 0x8A4ADF24 EQ PUSH3 0x1CF JUMPI DUP1 PUSH4 0x8C41FD09 EQ PUSH3 0x109 JUMPI DUP1 PUSH4 0xA622EE7C EQ PUSH3 0xCB JUMPI DUP1 PUSH4 0xC51B9507 EQ PUSH3 0xA2 JUMPI PUSH4 0xD0FB0203 EQ PUSH3 0x75 JUMPI PUSH0 DUP1 REVERT JUMPDEST CALLVALUE PUSH3 0x9E JUMPI DUP2 PUSH1 0x3 NOT CALLDATASIZE ADD SLT PUSH3 0x9E JUMPI PUSH1 0x2 SLOAD SWAP1 MLOAD PUSH1 0x1 PUSH1 0x1 PUSH1 0xA0 SHL SUB SWAP1 SWAP2 AND DUP2 MSTORE PUSH1 0x20 SWAP1 RETURN JUMPDEST POP DUP1 REVERT JUMPDEST POP CALLVALUE PUSH3 0x9E JUMPI DUP2 PUSH1 0x3 NOT CALLDATASIZE ADD SLT PUSH3 0x9E JUMPI SWAP1 SLOAD SWAP1 MLOAD PUSH1 0x1 PUSH1 0x1 PUSH1 0xA0 SHL SUB SWAP1 SWAP2 AND DUP2 MSTORE PUSH1 0x20 SWAP1 RETURN JUMPDEST POP CALLVALUE PUSH3 0x9E JUMPI PUSH1 0x20 CALLDATASIZE PUSH1 0x3 NOT ADD SLT PUSH3 0x9E JUMPI PUSH1 0x20 SWAP2 PUSH1 0x1 PUSH1 0x1 PUSH1 0xA0 SHL SUB SWAP1 DUP3 SWAP1 DUP3 PUSH3 0xF8 PUSH3 0x24A JUMP JUMPDEST AND DUP2 MSTORE PUSH1 0x5 DUP6 MSTORE KECCAK256 SLOAD AND SWAP1 MLOAD SWAP1 DUP2 MSTORE RETURN JUMPDEST POP CALLVALUE PUSH3 0x9E JUMPI PUSH2 0x140 CALLDATASIZE PUSH1 0x3 NOT ADD SLT PUSH3 0x9E JUMPI PUSH3 0x128 PUSH3 0x24A JUMP JUMPDEST SWAP2 PUSH1 0x1 PUSH1 0x1 PUSH1 0xA0 SHL SUB PUSH1 0x24 CALLDATALOAD DUP2 DUP2 AND DUP2 SUB PUSH3 0x1CB JUMPI PUSH1 0x44 CALLDATALOAD SWAP1 DUP3 DUP3 AND DUP3 SUB PUSH3 0x1C7 JUMPI PUSH1 0x64 CALLDATALOAD SWAP6 DUP4 DUP8 AND DUP8 SUB PUSH3 0x1C3 JUMPI PUSH1 0xE4 CALLDATALOAD SWAP4 DUP5 AND DUP5 SUB PUSH3 0x1C3 JUMPI PUSH2 0x104 CALLDATALOAD SWAP5 PUSH1 0x2 DUP7 LT ISZERO PUSH3 0x1C0 JUMPI POP SWAP2 PUSH3 0x1BC SWAP7 SWAP4 SWAP2 PUSH3 0x19C SWAP6 SWAP4 PUSH2 0x124 CALLDATALOAD SWAP6 PUSH1 0xC4 CALLDATALOAD SWAP4 PUSH1 0xA4 CALLDATALOAD SWAP4 PUSH1 0x84 CALLDATALOAD SWAP4 PUSH3 0x370 JUMP JUMPDEST SWAP2 MLOAD PUSH1 0x1 PUSH1 0x1 PUSH1 0xA0 SHL SUB SWAP2 DUP3 AND DUP2 MSTORE SWAP2 AND PUSH1 0x20 DUP3 ADD MSTORE SWAP1 DUP2 SWAP1 PUSH1 0x40 DUP3 ADD SWAP1 JUMP JUMPDEST SUB SWAP1 RETURN JUMPDEST DUP1 REVERT JUMPDEST DUP5 DUP1 REVERT JUMPDEST DUP4 DUP1 REVERT JUMPDEST DUP3 DUP1 REVERT JUMPDEST POP CALLVALUE PUSH3 0x9E JUMPI DUP2 PUSH1 0x3 NOT CALLDATASIZE ADD SLT PUSH3 0x9E JUMPI PUSH1 0x4 SLOAD SWAP1 MLOAD PUSH1 0x1 PUSH1 0x1 PUSH1 0xA0 SHL SUB SWAP1 SWAP2 AND DUP2 MSTORE PUSH1 0x20 SWAP1 RETURN JUMPDEST POP CALLVALUE PUSH3 0x9E JUMPI DUP2 PUSH1 0x3 NOT CALLDATASIZE ADD SLT PUSH3 0x9E JUMPI PUSH1 0x1 SLOAD SWAP1 MLOAD PUSH1 0x1 PUSH1 0x1 PUSH1 0xA0 SHL SUB SWAP1 SWAP2 AND DUP2 MSTORE PUSH1 0x20 SWAP1 RETURN JUMPDEST DUP4 SWAP1 CALLVALUE PUSH3 0x9E JUMPI DUP2 PUSH1 0x3 NOT CALLDATASIZE ADD SLT PUSH3 0x9E JUMPI PUSH1 0x3 SLOAD PUSH1 0x1 PUSH1 0x1 PUSH1 0xA0 SHL SUB AND DUP2 MSTORE PUSH1 0x20 SWAP1 RETURN JUMPDEST PUSH1 0x4 CALLDATALOAD SWAP1 PUSH1 0x1 PUSH1 0x1 PUSH1 0xA0 SHL SUB DUP3 AND DUP3 SUB PUSH3 0x261 JUMPI JUMP JUMPDEST PUSH0 DUP1 REVERT JUMPDEST PUSH8 0xFFFFFFFFFFFFFFFF DUP2 GT PUSH3 0x27A JUMPI PUSH1 0x40 MSTORE JUMP JUMPDEST PUSH4 0x4E487B71 PUSH1 0xE0 SHL PUSH0 MSTORE PUSH1 0x41 PUSH1 0x4 MSTORE PUSH1 0x24 PUSH0 REVERT JUMPDEST SWAP1 PUSH1 0x1F DUP1 NOT SWAP2 ADD AND DUP2 ADD SWAP1 DUP2 LT PUSH8 0xFFFFFFFFFFFFFFFF DUP3 GT OR PUSH3 0x27A JUMPI PUSH1 0x40 MSTORE JUMP JUMPDEST PUSH0 JUMPDEST DUP4 DUP2 LT PUSH3 0x2C3 JUMPI POP POP PUSH0 SWAP2 ADD MSTORE JUMP JUMPDEST DUP2 DUP2 ADD MLOAD DUP4 DUP3 ADD MSTORE PUSH1 0x20 ADD PUSH3 0x2B3 JUMP JUMPDEST PUSH1 0x20 DUP2 DUP4 SUB SLT PUSH3 0x261 JUMPI DUP1 MLOAD PUSH8 0xFFFFFFFFFFFFFFFF SWAP2 DUP3 DUP3 GT PUSH3 0x261 JUMPI ADD SWAP1 DUP3 PUSH1 0x1F DUP4 ADD SLT ISZERO PUSH3 0x261 JUMPI DUP2 MLOAD SWAP1 DUP2 GT PUSH3 0x27A JUMPI PUSH1 0x40 MLOAD SWAP3 PUSH3 0x325 PUSH1 0x1F DUP4 ADD PUSH1 0x1F NOT AND PUSH1 0x20 ADD DUP6 PUSH3 0x28E JUMP JUMPDEST DUP2 DUP5 MSTORE PUSH1 0x20 DUP3 DUP5 ADD ADD GT PUSH3 0x261 JUMPI PUSH3 0x346 SWAP2 PUSH1 0x20 DUP1 DUP6 ADD SWAP2 ADD PUSH3 0x2B1 JUMP JUMPDEST SWAP1 JUMP JUMPDEST SWAP1 PUSH1 0x20 SWAP2 PUSH3 0x364 DUP2 MLOAD DUP1 SWAP3 DUP2 DUP6 MSTORE DUP6 DUP1 DUP7 ADD SWAP2 ADD PUSH3 0x2B1 JUMP JUMPDEST PUSH1 0x1F ADD PUSH1 0x1F NOT AND ADD ADD SWAP1 JUMP JUMPDEST SWAP2 SWAP10 SWAP9 SWAP10 SWAP8 SWAP1 SWAP3 SWAP8 SWAP7 SWAP4 SWAP7 SWAP6 SWAP5 SWAP6 DUP3 PUSH1 0xA0 MSTORE DUP4 PUSH2 0x100 MSTORE PUSH1 0xE0 MSTORE PUSH1 0x80 MSTORE PUSH1 0x1 DUP1 PUSH1 0xA0 SHL SUB AND ISZERO ISZERO SWAP1 DUP2 PUSH3 0xC96 JUMPI JUMPDEST POP ISZERO PUSH3 0xC5D JUMPI PUSH0 SWAP7 PUSH1 0x80 MLOAD PUSH1 0x2 DUP2 LT ISZERO PUSH3 0xC49 JUMPI ISZERO PUSH3 0xA4C JUMPI JUMPDEST PUSH1 0x80 MLOAD DUP1 PUSH3 0x804 JUMPI POP POP PUSH1 0x1 SLOAD PUSH0 SLOAD PUSH1 0x3 SLOAD PUSH1 0x4 SLOAD PUSH1 0x40 MLOAD SWAP9 PUSH1 0x1 PUSH1 0x1 PUSH1 0xA0 SHL SUB SWAP2 DUP3 AND SWAP9 SWAP3 DUP3 AND SWAP8 SWAP4 DUP3 AND SWAP7 SWAP5 SWAP1 SWAP2 AND SWAP5 SWAP4 SWAP3 SWAP2 SWAP1 PUSH8 0xFFFFFFFFFFFFFFFF PUSH2 0x1545 DUP12 ADD SWAP1 DUP2 GT SWAP1 DUP12 GT OR PUSH3 0x27A JUMPI PUSH2 0x1545 PUSH3 0x1713 DUP12 CODECOPY PUSH1 0xA0 DUP1 MLOAD PUSH1 0x1 PUSH1 0x1 PUSH1 0xA0 SHL SUB SWAP1 DUP2 AND PUSH2 0x1545 DUP14 ADD SWAP1 DUP2 MSTORE PUSH2 0x100 DUP1 MLOAD DUP4 AND PUSH1 0x20 DUP4 ADD MSTORE SWAP4 DUP3 AND PUSH1 0x40 DUP3 ADD MSTORE DUP15 DUP3 AND PUSH1 0x60 DUP3 ADD MSTORE PUSH1 0x80 DUP2 ADD SWAP5 SWAP1 SWAP5 MSTORE SWAP1 DUP4 ADD SWAP4 SWAP1 SWAP4 MSTORE PUSH1 0xC0 DUP3 ADD SWAP4 SWAP1 SWAP4 MSTORE SWAP3 AND PUSH1 0xE0 DUP4 ADD MSTORE DUP2 ADD SWAP2 SWAP1 SWAP2 MSTORE PUSH2 0x120 DUP2 ADD SWAP2 SWAP1 SWAP2 MSTORE PUSH2 0x140 DUP2 ADD SWAP2 SWAP1 SWAP2 MSTORE PUSH2 0x160 DUP2 ADD SWAP2 SWAP1 SWAP2 MSTORE DUP2 SWAP1 SUB PUSH2 0x180 ADD SWAP1 PUSH0 CREATE DUP1 ISZERO PUSH3 0x7F9 JUMPI PUSH0 DUP1 SLOAD PUSH1 0x1 PUSH1 0x1 PUSH1 0xA0 SHL SUB SWAP3 DUP4 AND SWAP3 AND DUP1 EXTCODESIZE ISZERO PUSH3 0x9E JUMPI PUSH1 0x40 MLOAD PUSH4 0x121BBB4D PUSH1 0xE1 SHL DUP2 MSTORE PUSH1 0x4 DUP2 ADD DUP5 SWAP1 MSTORE PUSH1 0xA0 MLOAD PUSH1 0x1 PUSH1 0x1 PUSH1 0xA0 SHL SUB SWAP1 DUP2 AND PUSH1 0x24 DUP4 ADD MSTORE PUSH1 0x44 DUP3 ADD DUP5 SWAP1 MSTORE DUP7 DUP2 AND PUSH1 0x64 DUP4 ADD MSTORE PUSH2 0x100 MLOAD DUP2 AND PUSH1 0x84 DUP4 ADD MSTORE PUSH1 0xE0 MLOAD AND PUSH1 0xA4 DUP3 ADD MSTORE PUSH1 0xC4 DUP2 ADD DUP4 SWAP1 MSTORE PUSH1 0xE4 DUP2 ADD DUP4 SWAP1 MSTORE PUSH2 0x104 DUP2 ADD DUP4 SWAP1 MSTORE PUSH1 0x80 MLOAD SWAP1 SWAP2 DUP4 SWAP2 DUP4 SWAP2 PUSH2 0x144 SWAP2 DUP4 SWAP2 DUP6 SWAP2 PUSH3 0x533 SWAP1 PUSH2 0x124 DUP6 ADD SWAP1 PUSH3 0xCAA JUMP JUMPDEST GAS CALL DUP1 ISZERO PUSH3 0x71E JUMPI PUSH3 0x7E7 JUMPI JUMPDEST POP PUSH1 0x80 MLOAD PUSH3 0x771 JUMPI PUSH1 0x4 SLOAD PUSH1 0x1 PUSH1 0x1 PUSH1 0xA0 SHL SUB AND DUP1 EXTCODESIZE ISZERO PUSH3 0x9E JUMPI PUSH1 0x40 MLOAD PUSH4 0x9C515629 PUSH1 0xE0 SHL DUP2 MSTORE PUSH1 0x1 PUSH1 0x1 PUSH1 0xA0 SHL SUB DUP5 DUP2 AND PUSH1 0x4 DUP4 ADD MSTORE DUP7 AND PUSH1 0x24 DUP3 ADD MSTORE SWAP1 DUP3 SWAP1 DUP3 SWAP1 PUSH1 0x44 SWAP1 DUP3 SWAP1 DUP5 SWAP1 GAS CALL DUP1 ISZERO PUSH3 0x71E JUMPI SWAP1 DUP3 SWAP2 PUSH3 0x759 JUMPI JUMPDEST POP POP PUSH1 0x3 SLOAD PUSH1 0x1 PUSH1 0x1 PUSH1 0xA0 SHL SUB AND DUP1 EXTCODESIZE ISZERO PUSH3 0x9E JUMPI PUSH1 0x40 MLOAD PUSH4 0x7286E5E5 PUSH1 0xE0 SHL DUP2 MSTORE PUSH2 0x100 MLOAD PUSH1 0x1 PUSH1 0x1 PUSH1 0xA0 SHL SUB DUP6 DUP2 AND PUSH1 0x4 DUP5 ADD MSTORE AND PUSH1 0x24 DUP3 ADD MSTORE SWAP1 DUP3 SWAP1 DUP3 SWAP1 PUSH1 0x44 SWAP1 DUP3 SWAP1 DUP5 SWAP1 GAS CALL DUP1 ISZERO PUSH3 0x71E JUMPI SWAP1 DUP3 SWAP2 PUSH3 0x741 JUMPI JUMPDEST POP POP PUSH1 0x3 SLOAD PUSH1 0x1 PUSH1 0x1 PUSH1 0xA0 SHL SUB AND DUP1 EXTCODESIZE ISZERO PUSH3 0x9E JUMPI PUSH1 0x40 MLOAD PUSH4 0x72E462B9 PUSH1 0xE1 SHL DUP2 MSTORE PUSH2 0x100 MLOAD PUSH1 0x1 PUSH1 0x1 PUSH1 0xA0 SHL SUB DUP6 DUP2 AND PUSH1 0x4 DUP5 ADD MSTORE AND PUSH1 0x24 DUP3 ADD MSTORE SWAP1 DUP3 SWAP1 DUP3 SWAP1 PUSH1 0x44 SWAP1 DUP3 SWAP1 DUP5 SWAP1 GAS CALL DUP1 ISZERO PUSH3 0x71E JUMPI SWAP1 DUP3 SWAP2 PUSH3 0x729 JUMPI JUMPDEST POP POP DUP1 SLOAD PUSH1 0x1 PUSH1 0x1 PUSH1 0xA0 SHL SUB AND DUP1 EXTCODESIZE ISZERO PUSH3 0x9E JUMPI PUSH1 0x40 MLOAD PUSH4 0x5C4FDF9 PUSH1 0xE0 SHL DUP2 MSTORE PUSH1 0x1 PUSH1 0x1 PUSH1 0xA0 SHL SUB DUP5 DUP2 AND PUSH1 0x4 DUP4 ADD MSTORE DUP7 AND PUSH1 0x24 DUP3 ADD MSTORE SWAP1 DUP3 SWAP1 DUP3 SWAP1 PUSH1 0x44 SWAP1 DUP3 SWAP1 DUP5 SWAP1 GAS CALL DUP1 ISZERO PUSH3 0x71E JUMPI PUSH3 0x706 JUMPI JUMPDEST POP POP JUMPDEST PUSH1 0x40 MLOAD PUSH3 0x6BF DUP2 PUSH1 0x80 MLOAD PUSH3 0xCAA JUMP JUMPDEST PUSH1 0xA0 MLOAD PUSH1 0x1 PUSH1 0x1 PUSH1 0xA0 SHL SUB DUP6 DUP2 AND SWAP3 SWAP2 AND SWAP1 DUP4 SWAP1 PUSH32 0x645EE41665486BC487A04A91A2BD296D2D2395CABF7747B152436DD15F9D4F8F SWAP1 PUSH1 0x20 SWAP1 LOG4 SWAP2 PUSH1 0x1 PUSH1 0x1 PUSH1 0xA0 SHL SUB AND SWAP1 JUMP JUMPDEST PUSH3 0x712 DUP3 SWAP2 PUSH3 0x265 JUMP JUMPDEST PUSH3 0x1C0 JUMPI DUP1 PUSH3 0x6AB JUMP JUMPDEST PUSH1 0x40 MLOAD RETURNDATASIZE DUP5 DUP3 RETURNDATACOPY RETURNDATASIZE SWAP1 REVERT JUMPDEST PUSH3 0x734 SWAP1 PUSH3 0x265 JUMP JUMPDEST PUSH3 0x1C0 JUMPI DUP1 PUSH0 PUSH3 0x657 JUMP JUMPDEST PUSH3 0x74C SWAP1 PUSH3 0x265 JUMP JUMPDEST PUSH3 0x1C0 JUMPI DUP1 PUSH0 PUSH3 0x5FC JUMP JUMPDEST PUSH3 0x764 SWAP1 PUSH3 0x265 JUMP JUMPDEST PUSH3 0x1C0 JUMPI DUP1 PUSH0 PUSH3 0x5A1 JUMP JUMPDEST PUSH1 0x3 SLOAD PUSH1 0x1 PUSH1 0x1 PUSH1 0xA0 SHL SUB AND DUP1 EXTCODESIZE ISZERO PUSH3 0x9E JUMPI PUSH1 0x40 MLOAD PUSH4 0x7286E5E5 PUSH1 0xE0 SHL DUP2 MSTORE PUSH2 0x100 MLOAD PUSH1 0x1 PUSH1 0x1 PUSH1 0xA0 SHL SUB DUP6 DUP2 AND PUSH1 0x4 DUP5 ADD MSTORE AND PUSH1 0x24 DUP3 ADD MSTORE SWAP1 DUP3 SWAP1 DUP3 SWAP1 PUSH1 0x44 SWAP1 DUP3 SWAP1 DUP5 SWAP1 GAS CALL DUP1 ISZERO PUSH3 0x71E JUMPI PUSH3 0x7CF JUMPI JUMPDEST POP POP PUSH3 0x6AE JUMP JUMPDEST PUSH3 0x7DB DUP3 SWAP2 PUSH3 0x265 JUMP JUMPDEST PUSH3 0x1C0 JUMPI DUP1 PUSH3 0x7C7 JUMP JUMPDEST PUSH3 0x7F2 SWAP1 PUSH3 0x265 JUMP JUMPDEST PUSH0 PUSH3 0x542 JUMP JUMPDEST PUSH1 0x40 MLOAD RETURNDATASIZE PUSH0 DUP3 RETURNDATACOPY RETURNDATASIZE SWAP1 REVERT JUMPDEST SWAP5 POP SWAP6 SWAP7 POP POP POP POP PUSH1 0x1 SWAP2 POP EQ PUSH0 EQ PUSH3 0xA0F JUMPI PUSH2 0x100 MLOAD PUSH1 0x1 SLOAD PUSH1 0x2 SLOAD PUSH1 0x40 DUP1 MLOAD PUSH1 0x1 PUSH1 0x1 PUSH1 0xA0 SHL SUB SWAP5 DUP6 AND SWAP6 SWAP2 SWAP5 SWAP1 SWAP4 DUP2 AND SWAP3 PUSH2 0xA46 SWAP3 DUP4 DUP7 ADD SWAP3 SWAP1 SWAP2 AND PUSH8 0xFFFFFFFFFFFFFFFF DUP4 GT DUP7 DUP5 LT OR PUSH3 0x27A JUMPI PUSH1 0x80 SWAP5 DUP7 SWAP5 PUSH3 0xCCD DUP7 CODECOPY DUP9 DUP5 MSTORE PUSH1 0x20 DUP5 ADD MSTORE DUP7 DUP4 ADD MSTORE PUSH1 0x60 DUP3 ADD MSTORE SUB ADD SWAP1 PUSH0 CREATE DUP1 ISZERO PUSH3 0xA05 JUMPI PUSH0 DUP1 SLOAD PUSH1 0x1 PUSH1 0x1 PUSH1 0xA0 SHL SUB SWAP3 DUP4 AND SWAP5 SWAP2 SWAP3 AND SWAP1 DUP2 EXTCODESIZE ISZERO PUSH3 0x1CB JUMPI DUP3 SWAP2 PUSH2 0x144 DUP4 SWAP3 DUP7 MLOAD SWAP5 DUP6 SWAP4 DUP5 SWAP3 PUSH4 0x121BBB4D PUSH1 0xE1 SHL DUP5 MSTORE DUP11 PUSH1 0x4 DUP6 ADD MSTORE PUSH1 0x1 DUP1 PUSH1 0xA0 SHL SUB PUSH1 0xA0 MLOAD AND PUSH1 0x24 DUP6 ADD MSTORE DUP3 PUSH1 0x44 DUP6 ADD MSTORE DUP3 PUSH1 0x64 DUP6 ADD MSTORE PUSH1 0x84 DUP5 ADD MSTORE PUSH1 0x1 DUP1 PUSH1 0xA0 SHL SUB PUSH1 0xE0 MLOAD AND PUSH1 0xA4 DUP5 ADD MSTORE DUP2 PUSH1 0xC4 DUP5 ADD MSTORE DUP2 PUSH1 0xE4 DUP5 ADD MSTORE DUP2 PUSH2 0x104 DUP5 ADD MSTORE PUSH3 0x90F PUSH2 0x124 DUP5 ADD PUSH1 0x80 MLOAD PUSH3 0xCAA JUMP JUMPDEST GAS CALL DUP1 ISZERO PUSH3 0x9FB JUMPI PUSH3 0x9E9 JUMPI JUMPDEST POP PUSH1 0x3 SLOAD SWAP1 SWAP2 SWAP1 PUSH1 0x1 PUSH1 0x1 PUSH1 0xA0 SHL SUB AND DUP1 EXTCODESIZE ISZERO PUSH3 0x1CB JUMPI DUP2 MLOAD PUSH4 0x7286E5E5 PUSH1 0xE0 SHL DUP2 MSTORE PUSH2 0x100 MLOAD PUSH1 0x1 PUSH1 0x1 PUSH1 0xA0 SHL SUB DUP7 DUP2 AND PUSH1 0x4 DUP5 ADD MSTORE AND PUSH1 0x24 DUP3 ADD MSTORE SWAP1 DUP4 SWAP1 DUP3 SWAP1 PUSH1 0x44 SWAP1 DUP3 SWAP1 DUP5 SWAP1 GAS CALL DUP1 ISZERO PUSH3 0x9DD JUMPI SWAP1 DUP4 SWAP2 PUSH3 0x9C5 JUMPI JUMPDEST POP POP MLOAD PUSH3 0x98B DUP2 PUSH1 0x80 MLOAD PUSH3 0xCAA JUMP JUMPDEST PUSH1 0xA0 MLOAD PUSH1 0x1 PUSH1 0x1 PUSH1 0xA0 SHL SUB AND SWAP1 DUP4 SWAP1 PUSH32 0x645EE41665486BC487A04A91A2BD296D2D2395CABF7747B152436DD15F9D4F8F SWAP1 PUSH1 0x20 SWAP1 LOG4 SWAP1 PUSH0 SWAP1 JUMP JUMPDEST PUSH3 0x9D0 SWAP1 PUSH3 0x265 JUMP JUMPDEST PUSH3 0x9E JUMPI DUP2 PUSH0 PUSH3 0x97A JUMP JUMPDEST POP POP MLOAD SWAP1 RETURNDATASIZE SWAP1 DUP3 RETURNDATACOPY RETURNDATASIZE SWAP1 REVERT JUMPDEST PUSH3 0x9F4 SWAP1 PUSH3 0x265 JUMP JUMPDEST PUSH0 PUSH3 0x91E JUMP JUMPDEST DUP4 MLOAD RETURNDATASIZE DUP5 DUP3 RETURNDATACOPY RETURNDATASIZE SWAP1 REVERT JUMPDEST POP MLOAD RETURNDATASIZE PUSH0 DUP3 RETURNDATACOPY RETURNDATASIZE SWAP1 REVERT JUMPDEST PUSH1 0x40 MLOAD PUSH3 0x461BCD PUSH1 0xE5 SHL DUP2 MSTORE PUSH1 0x20 PUSH1 0x4 DUP3 ADD MSTORE PUSH1 0x15 PUSH1 0x24 DUP3 ADD MSTORE PUSH21 0x556E737570706F7274656420706F6F6C2074797065 PUSH1 0x58 SHL PUSH1 0x44 DUP3 ADD MSTORE PUSH1 0x64 SWAP1 REVERT JUMPDEST PUSH1 0x1 DUP1 PUSH1 0xA0 SHL SUB PUSH1 0xE0 MLOAD AND PUSH1 0xC0 SWAP9 PUSH1 0x40 DUP11 MSTORE PUSH1 0x40 MLOAD PUSH4 0x95D89B41 PUSH1 0xE0 SHL DUP1 DUP3 MSTORE DUP3 DUP3 PUSH1 0x4 DUP2 DUP8 GAS STATICCALL SWAP2 DUP3 ISZERO PUSH3 0xC1E JUMPI DUP4 SWAP3 PUSH3 0xC29 JUMPI JUMPDEST POP PUSH3 0xAC1 PUSH1 0x22 DUP14 MLOAD MLOAD DUP1 SWAP5 PUSH2 0x2A2B PUSH1 0xF1 SHL PUSH1 0x20 DUP4 ADD MSTORE PUSH3 0xAB0 DUP2 MLOAD DUP1 SWAP3 PUSH1 0x20 DUP7 DUP7 ADD SWAP2 ADD PUSH3 0x2B1 JUMP JUMPDEST DUP2 ADD SUB PUSH1 0x2 DUP2 ADD DUP6 MSTORE ADD DUP4 PUSH3 0x28E JUMP JUMPDEST DUP12 MLOAD MLOAD SWAP1 DUP2 MSTORE DUP3 DUP2 PUSH1 0x4 DUP2 DUP8 GAS STATICCALL SWAP1 DUP2 ISZERO PUSH3 0xC1E JUMPI DUP4 SWAP2 PUSH3 0xBF7 JUMPI JUMPDEST POP PUSH3 0xB24 PUSH1 0x2A DUP14 MLOAD MLOAD DUP1 SWAP4 PUSH10 0x151D5B1A5855985D5B1D PUSH1 0xB2 SHL PUSH1 0x20 DUP4 ADD MSTORE PUSH3 0xB13 DUP2 MLOAD DUP1 SWAP3 PUSH1 0x20 DUP7 DUP7 ADD SWAP2 ADD PUSH3 0x2B1 JUMP JUMPDEST DUP2 ADD SUB PUSH1 0xA DUP2 ADD DUP5 MSTORE ADD DUP3 PUSH3 0x28E JUMP JUMPDEST PUSH1 0x1 DUP1 PUSH1 0xA0 SHL SUB PUSH1 0x1 SLOAD AND DUP13 MLOAD MLOAD SWAP3 PUSH2 0x1D50 SWAP3 DUP4 DUP6 ADD SWAP4 DUP6 DUP6 LT PUSH8 0xFFFFFFFFFFFFFFFF DUP7 GT OR PUSH3 0xBE3 JUMPI DUP16 DUP7 SWAP6 SWAP5 SWAP4 PUSH3 0xB7B PUSH1 0x60 SWAP5 PUSH3 0xB8A SWAP5 PUSH3 0x2C58 DUP11 CODECOPY DUP12 DUP9 MSTORE PUSH1 0x80 PUSH1 0x20 DUP10 ADD MSTORE PUSH1 0x80 DUP9 ADD SWAP1 PUSH3 0x349 JUMP JUMPDEST SWAP2 DUP7 DUP4 SUB SWAP1 MLOAD DUP8 ADD MSTORE PUSH3 0x349 JUMP JUMPDEST SWAP3 ADD MSTORE SUB SWAP1 DUP3 CREATE SWAP1 DUP2 ISZERO PUSH3 0xBD7 JUMPI POP SWAP9 MLOAD MLOAD SWAP1 DUP2 MSTORE PUSH1 0x1 PUSH1 0x1 PUSH1 0xA0 SHL SUB DUP10 AND SWAP1 PUSH32 0x5D9C31FFA0FECFFD7CF379989A3C7AF252F0335E0D2A1320B55245912C781F53 SWAP1 PUSH1 0x20 SWAP1 LOG2 PUSH3 0x3BC JUMP JUMPDEST DUP11 MLOAD MLOAD SWAP1 RETURNDATASIZE SWAP1 DUP3 RETURNDATACOPY RETURNDATASIZE SWAP1 REVERT JUMPDEST PUSH4 0x4E487B71 PUSH1 0xE0 SHL DUP8 MSTORE PUSH1 0x41 PUSH1 0x4 MSTORE PUSH1 0x24 DUP8 REVERT JUMPDEST PUSH3 0xC17 SWAP2 POP RETURNDATASIZE DUP1 DUP6 DUP4 RETURNDATACOPY PUSH3 0xC0E DUP2 DUP4 PUSH3 0x28E JUMP JUMPDEST DUP2 ADD SWAP1 PUSH3 0x2D4 JUMP JUMPDEST PUSH0 PUSH3 0xADF JUMP JUMPDEST DUP13 MLOAD MLOAD RETURNDATASIZE DUP6 DUP3 RETURNDATACOPY RETURNDATASIZE SWAP1 REVERT JUMPDEST PUSH3 0xC41 SWAP2 SWAP3 POP RETURNDATASIZE DUP1 DUP6 DUP4 RETURNDATACOPY PUSH3 0xC0E DUP2 DUP4 PUSH3 0x28E JUMP JUMPDEST SWAP1 PUSH0 PUSH3 0xA84 JUMP JUMPDEST PUSH4 0x4E487B71 PUSH1 0xE0 SHL DUP10 MSTORE PUSH1 0x21 PUSH1 0x4 MSTORE PUSH1 0x24 DUP10 REVERT JUMPDEST PUSH1 0x40 MLOAD PUSH3 0x461BCD PUSH1 0xE5 SHL DUP2 MSTORE PUSH1 0x20 PUSH1 0x4 DUP3 ADD MSTORE PUSH1 0x11 PUSH1 0x24 DUP3 ADD MSTORE PUSH17 0x496E76616C696420616464726573736573 PUSH1 0x78 SHL PUSH1 0x44 DUP3 ADD MSTORE PUSH1 0x64 SWAP1 REVERT JUMPDEST PUSH1 0x1 PUSH1 0x1 PUSH1 0xA0 SHL SUB AND ISZERO ISZERO SWAP1 POP PUSH0 PUSH3 0x39F JUMP JUMPDEST SWAP1 PUSH1 0x2 DUP3 LT ISZERO PUSH3 0xCB8 JUMPI MSTORE JUMP JUMPDEST PUSH4 0x4E487B71 PUSH1 0xE0 SHL PUSH0 MSTORE PUSH1 0x21 PUSH1 0x4 MSTORE PUSH1 0x24 PUSH0 REVERT INVALID PUSH1 0x80 CALLVALUE PUSH2 0xBB JUMPI PUSH1 0x1F PUSH2 0xA46 CODESIZE DUP2 SWAP1 SUB SWAP2 DUP3 ADD PUSH1 0x1F NOT AND DUP4 ADD SWAP2 PUSH1 0x1 PUSH1 0x1 PUSH1 0x40 SHL SUB DUP4 GT DUP5 DUP5 LT OR PUSH2 0xBF JUMPI DUP1 DUP5 SWAP3 PUSH1 0x80 SWAP5 PUSH1 0x40 MSTORE DUP4 CODECOPY DUP2 ADD SUB SLT PUSH2 0xBB JUMPI DUP1 MLOAD PUSH1 0x1 PUSH1 0x1 PUSH1 0xA0 SHL SUB SWAP1 DUP2 DUP2 AND SWAP1 DUP2 SWAP1 SUB PUSH2 0xBB JUMPI PUSH1 0x20 DUP4 ADD MLOAD SWAP3 DUP3 DUP5 AND DUP1 SWAP5 SUB PUSH2 0xBB JUMPI PUSH1 0x40 DUP2 ADD MLOAD SWAP3 DUP4 AND DUP1 SWAP4 SUB PUSH2 0xBB JUMPI PUSH1 0x60 ADD MLOAD SWAP3 PUSH1 0x1 PUSH0 SSTORE PUSH1 0x1 DUP1 PUSH1 0xA0 SHL SUB NOT SWAP2 DUP3 PUSH1 0x1 SLOAD AND OR PUSH1 0x1 SSTORE DUP2 PUSH1 0x2 SLOAD AND OR PUSH1 0x2 SSTORE PUSH1 0x3 SLOAD AND OR PUSH1 0x3 SSTORE PUSH1 0x4 SSTORE PUSH1 0xFF NOT PUSH1 0x5 SLOAD AND PUSH1 0x5 SSTORE PUSH1 0x40 MLOAD PUSH2 0x972 SWAP1 DUP2 PUSH2 0xD4 DUP3 CODECOPY RETURN JUMPDEST PUSH0 DUP1 REVERT JUMPDEST PUSH4 0x4E487B71 PUSH1 0xE0 SHL PUSH0 MSTORE PUSH1 0x41 PUSH1 0x4 MSTORE PUSH1 0x24 PUSH0 REVERT INVALID PUSH1 0x80 DUP1 PUSH1 0x40 MSTORE PUSH1 0x4 CALLDATASIZE LT ISZERO PUSH2 0x12 JUMPI PUSH0 DUP1 REVERT JUMPDEST PUSH0 CALLDATALOAD PUSH1 0xE0 SHR SWAP1 DUP2 PUSH4 0x12261EE7 EQ PUSH2 0x68C JUMPI POP DUP1 PUSH4 0x38D52E0F EQ PUSH2 0x664 JUMPI DUP1 PUSH4 0x5CFFE9DE EQ PUSH2 0x1CF JUMPI DUP1 PUSH4 0x613255AB EQ PUSH2 0x129 JUMPI DUP1 PUSH4 0x8C9F305F EQ PUSH2 0x10C JUMPI DUP1 PUSH4 0xC19D93FB EQ PUSH2 0xCF JUMPI DUP1 PUSH4 0xD0FB0203 EQ PUSH2 0xA7 JUMPI PUSH4 0xD9D98CE4 EQ PUSH2 0x74 JUMPI PUSH0 DUP1 REVERT JUMPDEST CALLVALUE PUSH2 0xA3 JUMPI PUSH1 0x40 CALLDATASIZE PUSH1 0x3 NOT ADD SLT PUSH2 0xA3 JUMPI PUSH1 0x20 PUSH2 0x9B PUSH2 0x92 PUSH2 0x6AF JUMP JUMPDEST PUSH1 0x24 CALLDATALOAD SWAP1 PUSH2 0x75B JUMP JUMPDEST PUSH1 0x40 MLOAD SWAP1 DUP2 MSTORE RETURN JUMPDEST PUSH0 DUP1 REVERT JUMPDEST CALLVALUE PUSH2 0xA3 JUMPI PUSH0 CALLDATASIZE PUSH1 0x3 NOT ADD SLT PUSH2 0xA3 JUMPI PUSH1 0x3 SLOAD PUSH1 0x40 MLOAD PUSH1 0x1 PUSH1 0x1 PUSH1 0xA0 SHL SUB SWAP1 SWAP2 AND DUP2 MSTORE PUSH1 0x20 SWAP1 RETURN JUMPDEST CALLVALUE PUSH2 0xA3 JUMPI PUSH0 CALLDATASIZE PUSH1 0x3 NOT ADD SLT PUSH2 0xA3 JUMPI PUSH1 0xFF PUSH1 0x5 SLOAD AND PUSH1 0x40 MLOAD PUSH1 0x3 DUP3 LT ISZERO PUSH2 0xF8 JUMPI PUSH1 0x20 SWAP2 DUP2 MSTORE RETURN JUMPDEST PUSH4 0x4E487B71 PUSH1 0xE0 SHL PUSH0 MSTORE PUSH1 0x21 PUSH1 0x4 MSTORE PUSH1 0x24 PUSH0 REVERT JUMPDEST CALLVALUE PUSH2 0xA3 JUMPI PUSH0 CALLDATASIZE PUSH1 0x3 NOT ADD SLT PUSH2 0xA3 JUMPI PUSH1 0x20 PUSH1 0x4 SLOAD PUSH1 0x40 MLOAD SWAP1 DUP2 MSTORE RETURN JUMPDEST CALLVALUE PUSH2 0xA3 JUMPI PUSH1 0x20 DUP1 PUSH1 0x3 NOT CALLDATASIZE ADD SLT PUSH2 0xA3 JUMPI PUSH2 0x143 PUSH2 0x6AF JUMP JUMPDEST PUSH1 0x1 SLOAD PUSH1 0x1 PUSH1 0x1 PUSH1 0xA0 SHL SUB SWAP1 DUP2 AND SWAP2 DUP4 SWAP2 AND DUP3 SUB PUSH2 0x1C7 JUMPI PUSH1 0x40 MLOAD PUSH4 0x70A08231 PUSH1 0xE0 SHL DUP2 MSTORE ADDRESS PUSH1 0x4 DUP3 ADD MSTORE SWAP2 DUP3 SWAP1 PUSH1 0x24 SWAP1 DUP3 SWAP1 GAS STATICCALL SWAP1 DUP2 ISZERO PUSH2 0x1BC JUMPI PUSH0 SWAP2 PUSH2 0x18F JUMPI JUMPDEST POP PUSH1 0x40 MLOAD SWAP1 DUP2 MSTORE RETURN JUMPDEST SWAP1 POP DUP2 DUP2 DUP2 RETURNDATASIZE DUP4 GT PUSH2 0x1B5 JUMPI JUMPDEST PUSH2 0x1A6 DUP2 DUP4 PUSH2 0x6C5 JUMP JUMPDEST DUP2 ADD SUB SLT PUSH2 0xA3 JUMPI MLOAD DUP3 PUSH2 0x186 JUMP JUMPDEST POP RETURNDATASIZE PUSH2 0x19C JUMP JUMPDEST PUSH1 0x40 MLOAD RETURNDATASIZE PUSH0 DUP3 RETURNDATACOPY RETURNDATASIZE SWAP1 REVERT JUMPDEST POP POP PUSH0 PUSH2 0x9B JUMP JUMPDEST CALLVALUE PUSH2 0xA3 JUMPI PUSH1 0x80 CALLDATASIZE PUSH1 0x3 NOT ADD SLT PUSH2 0xA3 JUMPI PUSH1 0x4 CALLDATALOAD PUSH1 0x1 PUSH1 0x1 PUSH1 0xA0 SHL SUB DUP2 AND DUP2 SUB PUSH2 0xA3 JUMPI PUSH1 0x24 CALLDATALOAD SWAP1 PUSH1 0x1 PUSH1 0x1 PUSH1 0xA0 SHL SUB DUP3 AND DUP3 SUB PUSH2 0xA3 JUMPI PUSH8 0xFFFFFFFFFFFFFFFF PUSH1 0x64 CALLDATALOAD GT PUSH2 0xA3 JUMPI CALLDATASIZE PUSH1 0x23 PUSH1 0x64 CALLDATALOAD ADD SLT ISZERO PUSH2 0xA3 JUMPI PUSH8 0xFFFFFFFFFFFFFFFF PUSH1 0x64 CALLDATALOAD PUSH1 0x4 ADD CALLDATALOAD GT PUSH2 0xA3 JUMPI CALLDATASIZE PUSH1 0x24 PUSH1 0x64 CALLDATALOAD PUSH1 0x4 ADD CALLDATALOAD PUSH1 0x64 CALLDATALOAD ADD ADD GT PUSH2 0xA3 JUMPI PUSH1 0x2 PUSH0 SLOAD EQ PUSH2 0x61F JUMPI PUSH1 0x2 PUSH0 SSTORE PUSH1 0x1 SLOAD PUSH1 0x1 PUSH1 0x1 PUSH1 0xA0 SHL SUB SWAP1 DUP2 AND SWAP3 SWAP1 PUSH2 0x278 SWAP1 DUP3 AND DUP5 EQ PUSH2 0x6E7 JUMP JUMPDEST PUSH1 0xFF PUSH1 0x5 SLOAD AND PUSH1 0x3 DUP2 LT ISZERO PUSH2 0xF8 JUMPI PUSH2 0x5DA JUMPI PUSH2 0x297 PUSH1 0x44 CALLDATALOAD DUP3 PUSH2 0x75B JUMP JUMPDEST SWAP1 PUSH1 0x40 MLOAD SWAP4 PUSH4 0x70A08231 PUSH1 0xE0 SHL DUP6 MSTORE ADDRESS PUSH1 0x4 DUP7 ADD MSTORE PUSH1 0x20 DUP6 PUSH1 0x24 DUP2 DUP5 GAS STATICCALL SWAP5 DUP6 ISZERO PUSH2 0x1BC JUMPI PUSH0 SWAP6 PUSH2 0x5A6 JUMPI JUMPDEST POP PUSH1 0x40 MLOAD PUSH4 0xA9059CBB PUSH1 0xE0 SHL PUSH1 0x20 DUP3 ADD MSTORE PUSH1 0x1 PUSH1 0x1 PUSH1 0xA0 SHL SUB DUP6 AND PUSH1 0x24 DUP3 ADD MSTORE PUSH1 0x44 DUP1 CALLDATALOAD DUP2 DUP4 ADD MSTORE DUP2 MSTORE PUSH8 0xFFFFFFFFFFFFFFFF PUSH1 0x80 DUP3 ADD SWAP1 DUP2 GT SWAP1 DUP3 GT OR PUSH2 0x507 JUMPI PUSH2 0x315 SWAP2 PUSH1 0x80 DUP3 ADD PUSH1 0x40 MSTORE PUSH2 0x802 JUMP JUMPDEST PUSH1 0x40 MLOAD SWAP1 PUSH4 0x23E30C8B PUSH1 0xE0 SHL DUP3 MSTORE CALLER PUSH1 0x4 DUP4 ADD MSTORE PUSH1 0x1 DUP1 PUSH1 0xA0 SHL SUB AND PUSH1 0x24 DUP3 ADD MSTORE PUSH1 0x44 CALLDATALOAD PUSH1 0x44 DUP3 ADD MSTORE DUP2 PUSH1 0x64 DUP3 ADD MSTORE PUSH1 0xA0 PUSH1 0x84 DUP3 ADD MSTORE PUSH1 0x64 CALLDATALOAD PUSH1 0x4 ADD CALLDATALOAD PUSH1 0xA4 DUP3 ADD MSTORE PUSH1 0x64 CALLDATALOAD PUSH1 0x4 ADD CALLDATALOAD PUSH1 0x24 PUSH1 0x64 CALLDATALOAD ADD PUSH1 0xC4 DUP4 ADD CALLDATACOPY PUSH0 PUSH1 0xC4 PUSH1 0x64 CALLDATALOAD PUSH1 0x4 ADD CALLDATALOAD DUP4 ADD ADD MSTORE PUSH1 0x20 DUP2 PUSH1 0xC4 DUP2 PUSH1 0x1F NOT PUSH1 0x1F PUSH1 0x64 CALLDATALOAD PUSH1 0x4 ADD CALLDATALOAD ADD AND DUP2 ADD SUB ADD DUP2 PUSH0 PUSH1 0x1 DUP1 PUSH1 0xA0 SHL SUB DUP9 AND GAS CALL DUP1 ISZERO PUSH2 0x1BC JUMPI PUSH0 SWAP1 PUSH2 0x554 JUMPI JUMPDEST PUSH32 0x439148F0BBC682CA079E46D6E2C2F0C1E3B820F1A291B069D8882ABF8CF18DD9 SWAP2 POP SUB PUSH2 0x51B JUMPI PUSH2 0x3DD SWAP1 PUSH1 0x44 CALLDATALOAD PUSH2 0x74E JUMP JUMPDEST PUSH1 0x1 SLOAD PUSH1 0x40 MLOAD PUSH4 0x23B872DD PUSH1 0xE0 SHL PUSH1 0x20 DUP3 ADD MSTORE PUSH1 0x1 PUSH1 0x1 PUSH1 0xA0 SHL SUB SWAP4 DUP5 AND PUSH1 0x24 DUP3 ADD MSTORE ADDRESS PUSH1 0x44 DUP3 ADD MSTORE PUSH1 0x64 DUP1 DUP3 ADD SWAP4 SWAP1 SWAP4 MSTORE SWAP2 DUP3 MSTORE PUSH1 0xA0 DUP3 ADD SWAP3 AND PUSH8 0xFFFFFFFFFFFFFFFF DUP4 GT DUP3 DUP5 LT OR PUSH2 0x507 JUMPI PUSH2 0x437 SWAP3 PUSH1 0x40 MSTORE PUSH2 0x802 JUMP JUMPDEST PUSH1 0x1 SLOAD PUSH1 0x40 MLOAD PUSH4 0x70A08231 PUSH1 0xE0 SHL DUP2 MSTORE ADDRESS PUSH1 0x4 DUP3 ADD MSTORE SWAP1 PUSH1 0x20 SWAP1 DUP3 SWAP1 PUSH1 0x24 SWAP1 DUP3 SWAP1 PUSH1 0x1 PUSH1 0x1 PUSH1 0xA0 SHL SUB AND GAS STATICCALL SWAP1 DUP2 ISZERO PUSH2 0x1BC JUMPI PUSH0 SWAP2 PUSH2 0x4D5 JUMPI JUMPDEST POP LT PUSH2 0x490 JUMPI PUSH1 0xFF NOT PUSH1 0x5 SLOAD AND PUSH1 0x5 SSTORE PUSH1 0x1 PUSH0 SSTORE PUSH1 0x20 PUSH1 0x40 MLOAD PUSH1 0x1 DUP2 MSTORE RETURN JUMPDEST PUSH1 0x40 MLOAD PUSH3 0x461BCD PUSH1 0xE5 SHL DUP2 MSTORE PUSH1 0x20 PUSH1 0x4 DUP3 ADD MSTORE PUSH1 0x1B PUSH1 0x24 DUP3 ADD MSTORE PUSH32 0x466C617368206C6F616E2072657061796D656E74206661696C65640000000000 PUSH1 0x44 DUP3 ADD MSTORE PUSH1 0x64 SWAP1 REVERT JUMPDEST SWAP1 POP PUSH1 0x20 DUP2 RETURNDATASIZE PUSH1 0x20 GT PUSH2 0x4FF JUMPI JUMPDEST DUP2 PUSH2 0x4F0 PUSH1 0x20 SWAP4 DUP4 PUSH2 0x6C5 JUMP JUMPDEST DUP2 ADD SUB SLT PUSH2 0xA3 JUMPI MLOAD DUP3 PUSH2 0x471 JUMP JUMPDEST RETURNDATASIZE SWAP2 POP PUSH2 0x4E3 JUMP JUMPDEST PUSH4 0x4E487B71 PUSH1 0xE0 SHL PUSH0 MSTORE PUSH1 0x41 PUSH1 0x4 MSTORE PUSH1 0x24 PUSH0 REVERT JUMPDEST PUSH1 0x40 MLOAD PUSH3 0x461BCD PUSH1 0xE5 SHL DUP2 MSTORE PUSH1 0x20 PUSH1 0x4 DUP3 ADD MSTORE PUSH1 0x11 PUSH1 0x24 DUP3 ADD MSTORE PUSH17 0x119B185CDA081B1BD85B8819985A5B1959 PUSH1 0x7A SHL PUSH1 0x44 DUP3 ADD MSTORE PUSH1 0x64 SWAP1 REVERT JUMPDEST POP PUSH1 0x20 DUP2 RETURNDATASIZE PUSH1 0x20 GT PUSH2 0x59E JUMPI JUMPDEST DUP2 PUSH2 0x56E PUSH1 0x20 SWAP4 DUP4 PUSH2 0x6C5 JUMP JUMPDEST DUP2 ADD SUB SLT PUSH2 0xA3 JUMPI PUSH32 0x439148F0BBC682CA079E46D6E2C2F0C1E3B820F1A291B069D8882ABF8CF18DD9 SWAP1 MLOAD PUSH2 0x3A9 JUMP JUMPDEST RETURNDATASIZE SWAP2 POP PUSH2 0x561 JUMP JUMPDEST SWAP1 SWAP5 POP PUSH1 0x20 DUP2 RETURNDATASIZE PUSH1 0x20 GT PUSH2 0x5D2 JUMPI JUMPDEST DUP2 PUSH2 0x5C2 PUSH1 0x20 SWAP4 DUP4 PUSH2 0x6C5 JUMP JUMPDEST DUP2 ADD SUB SLT PUSH2 0xA3 JUMPI MLOAD SWAP4 DUP6 PUSH2 0x2C3 JUMP JUMPDEST RETURNDATASIZE SWAP2 POP PUSH2 0x5B5 JUMP JUMPDEST PUSH1 0x40 MLOAD PUSH3 0x461BCD PUSH1 0xE5 SHL DUP2 MSTORE PUSH1 0x20 PUSH1 0x4 DUP3 ADD MSTORE PUSH1 0x18 PUSH1 0x24 DUP3 ADD MSTORE PUSH32 0x466C617368206C6F616E206E6F7420617661696C61626C650000000000000000 PUSH1 0x44 DUP3 ADD MSTORE PUSH1 0x64 SWAP1 REVERT JUMPDEST PUSH1 0x40 MLOAD PUSH3 0x461BCD PUSH1 0xE5 SHL DUP2 MSTORE PUSH1 0x20 PUSH1 0x4 DUP3 ADD MSTORE PUSH1 0x1F PUSH1 0x24 DUP3 ADD MSTORE PUSH32 0x5265656E7472616E637947756172643A207265656E7472616E742063616C6C00 PUSH1 0x44 DUP3 ADD MSTORE PUSH1 0x64 SWAP1 REVERT JUMPDEST CALLVALUE PUSH2 0xA3 JUMPI PUSH0 CALLDATASIZE PUSH1 0x3 NOT ADD SLT PUSH2 0xA3 JUMPI PUSH1 0x1 SLOAD PUSH1 0x40 MLOAD PUSH1 0x1 PUSH1 0x1 PUSH1 0xA0 SHL SUB SWAP1 SWAP2 AND DUP2 MSTORE PUSH1 0x20 SWAP1 RETURN JUMPDEST CALLVALUE PUSH2 0xA3 JUMPI PUSH0 CALLDATASIZE PUSH1 0x3 NOT ADD SLT PUSH2 0xA3 JUMPI PUSH1 0x2 SLOAD PUSH1 0x1 PUSH1 0x1 PUSH1 0xA0 SHL SUB AND DUP2 MSTORE PUSH1 0x20 SWAP1 RETURN JUMPDEST PUSH1 0x4 CALLDATALOAD SWAP1 PUSH1 0x1 PUSH1 0x1 PUSH1 0xA0 SHL SUB DUP3 AND DUP3 SUB PUSH2 0xA3 JUMPI JUMP JUMPDEST SWAP1 PUSH1 0x1F DUP1 NOT SWAP2 ADD AND DUP2 ADD SWAP1 DUP2 LT PUSH8 0xFFFFFFFFFFFFFFFF DUP3 GT OR PUSH2 0x507 JUMPI PUSH1 0x40 MSTORE JUMP JUMPDEST ISZERO PUSH2 0x6EE JUMPI JUMP JUMPDEST PUSH1 0x40 MLOAD PUSH3 0x461BCD PUSH1 0xE5 SHL DUP2 MSTORE PUSH1 0x20 PUSH1 0x4 DUP3 ADD MSTORE PUSH1 0x11 PUSH1 0x24 DUP3 ADD MSTORE PUSH17 0x2AB739BAB83837B93A32B2103A37B5B2B7 PUSH1 0x79 SHL PUSH1 0x44 DUP3 ADD MSTORE PUSH1 0x64 SWAP1 REVERT JUMPDEST DUP2 DUP2 MUL SWAP3 SWAP2 DUP2 ISZERO SWAP2 DUP5 DIV EQ OR ISZERO PUSH2 0x73A JUMPI JUMP JUMPDEST PUSH4 0x4E487B71 PUSH1 0xE0 SHL PUSH0 MSTORE PUSH1 0x11 PUSH1 0x4 MSTORE PUSH1 0x24 PUSH0 REVERT JUMPDEST SWAP2 SWAP1 DUP3 ADD DUP1 SWAP3 GT PUSH2 0x73A JUMPI JUMP JUMPDEST PUSH1 0x1 SLOAD SWAP2 SWAP3 SWAP2 PUSH1 0x1 PUSH1 0x1 PUSH1 0xA0 SHL SUB SWAP2 PUSH2 0x779 SWAP2 DUP4 AND SWAP1 DUP4 AND EQ PUSH2 0x6E7 JUMP JUMPDEST PUSH2 0x2710 PUSH1 0x4 PUSH1 0x20 DUP3 PUSH2 0x78C DUP4 SLOAD DUP9 PUSH2 0x727 JUMP JUMPDEST DIV SWAP4 PUSH1 0x3 SLOAD AND PUSH1 0x40 MLOAD SWAP3 DUP4 DUP1 SWAP3 PUSH4 0x53E755B PUSH1 0xE0 SHL DUP3 MSTORE GAS STATICCALL SWAP1 DUP2 ISZERO PUSH2 0x1BC JUMPI PUSH0 SWAP2 PUSH2 0x7CC JUMPI JUMPDEST POP PUSH2 0x7C2 SWAP1 PUSH2 0x7C9 SWAP5 SWAP6 PUSH2 0x727 JUMP JUMPDEST DIV SWAP1 PUSH2 0x74E JUMP JUMPDEST SWAP1 JUMP JUMPDEST SWAP1 PUSH1 0x20 DUP3 RETURNDATASIZE DUP3 GT PUSH2 0x7FA JUMPI JUMPDEST DUP2 PUSH2 0x7E5 PUSH1 0x20 SWAP4 DUP4 PUSH2 0x6C5 JUMP JUMPDEST DUP2 ADD SUB SLT PUSH2 0x7F7 JUMPI POP MLOAD PUSH2 0x7C9 PUSH2 0x7B3 JUMP JUMPDEST DUP1 REVERT JUMPDEST RETURNDATASIZE SWAP2 POP PUSH2 0x7D8 JUMP JUMPDEST PUSH1 0x1 DUP1 PUSH1 0xA0 SHL SUB AND SWAP1 PUSH0 DUP1 DUP3 PUSH1 0x20 DUP3 SWAP5 MLOAD SWAP2 ADD DUP3 DUP7 GAS CALL RETURNDATASIZE ISZERO PUSH2 0x8CD JUMPI RETURNDATASIZE SWAP1 PUSH8 0xFFFFFFFFFFFFFFFF DUP3 GT PUSH2 0x8B9 JUMPI SWAP1 PUSH2 0x85D SWAP2 PUSH1 0x40 MLOAD SWAP2 PUSH2 0x84D PUSH1 0x20 PUSH1 0x1F NOT PUSH1 0x1F DUP5 ADD AND ADD DUP5 PUSH2 0x6C5 JUMP JUMPDEST DUP3 MSTORE RETURNDATASIZE DUP5 PUSH1 0x20 DUP5 ADD RETURNDATACOPY JUMPDEST DUP5 PUSH2 0x8D9 JUMP JUMPDEST SWAP1 DUP2 MLOAD SWAP2 DUP3 ISZERO ISZERO SWAP3 DUP4 PUSH2 0x88D JUMPI JUMPDEST POP POP POP PUSH2 0x875 JUMPI POP JUMP JUMPDEST PUSH1 0x24 SWAP1 PUSH1 0x40 MLOAD SWAP1 PUSH4 0x5274AFE7 PUSH1 0xE0 SHL DUP3 MSTORE PUSH1 0x4 DUP3 ADD MSTORE REVERT JUMPDEST DUP2 SWAP3 SWAP4 POP SWAP1 PUSH1 0x20 SWAP2 DUP2 ADD SUB SLT PUSH2 0x8B5 JUMPI PUSH1 0x20 ADD MLOAD SWAP1 DUP2 ISZERO SWAP2 DUP3 ISZERO SUB PUSH2 0x7F7 JUMPI POP PUSH0 DUP1 DUP1 PUSH2 0x86B JUMP JUMPDEST POP DUP1 REVERT JUMPDEST PUSH4 0x4E487B71 PUSH1 0xE0 SHL DUP4 MSTORE PUSH1 0x41 PUSH1 0x4 MSTORE PUSH1 0x24 DUP4 REVERT JUMPDEST PUSH2 0x85D SWAP1 PUSH1 0x60 SWAP1 PUSH2 0x857 JUMP JUMPDEST SWAP1 PUSH2 0x900 JUMPI POP DUP1 MLOAD ISZERO PUSH2 0x8EE JUMPI DUP1 MLOAD SWAP1 PUSH1 0x20 ADD REVERT JUMPDEST PUSH1 0x40 MLOAD PUSH4 0xA12F521 PUSH1 0xE1 SHL DUP2 MSTORE PUSH1 0x4 SWAP1 REVERT JUMPDEST DUP2 MLOAD ISZERO DUP1 PUSH2 0x933 JUMPI JUMPDEST PUSH2 0x911 JUMPI POP SWAP1 JUMP JUMPDEST PUSH1 0x40 MLOAD PUSH4 0x9996B315 PUSH1 0xE0 SHL DUP2 MSTORE PUSH1 0x1 PUSH1 0x1 PUSH1 0xA0 SHL SUB SWAP1 SWAP2 AND PUSH1 0x4 DUP3 ADD MSTORE PUSH1 0x24 SWAP1 REVERT JUMPDEST POP DUP1 EXTCODESIZE ISZERO PUSH2 0x909 JUMP INVALID LOG2 PUSH5 0x6970667358 0x22 SLT KECCAK256 0xA5 DUP11 0xD3 SWAP6 0x21 LOG2 PUSH24 0x6269CC347D478EB6AB1CE9BA60D4075628C8ECCB62E107AD 0xE7 PUSH5 0x736F6C6343 STOP ADDMOD EQ STOP CALLER PUSH1 0x80 CALLVALUE PUSH3 0x380 JUMPI PUSH1 0x1F PUSH3 0x1545 CODESIZE DUP2 SWAP1 SUB SWAP2 DUP3 ADD PUSH1 0x1F NOT AND DUP4 ADD SWAP2 PUSH1 0x1 PUSH1 0x1 PUSH1 0x40 SHL SUB DUP4 GT DUP5 DUP5 LT OR PUSH3 0x2EE JUMPI DUP1 DUP5 SWAP3 PUSH2 0x180 SWAP5 PUSH1 0x40 MSTORE DUP4 CODECOPY DUP2 ADD SUB SLT PUSH3 0x380 JUMPI PUSH3 0x4E DUP2 PUSH3 0x384 JUMP JUMPDEST PUSH3 0x5C PUSH1 0x20 DUP4 ADD PUSH3 0x384 JUMP JUMPDEST SWAP2 PUSH3 0x6B PUSH1 0x40 DUP3 ADD PUSH3 0x384 JUMP JUMPDEST SWAP2 PUSH3 0x7A PUSH1 0x60 DUP4 ADD PUSH3 0x384 JUMP JUMPDEST SWAP3 PUSH1 0x80 DUP4 ADD MLOAD SWAP5 PUSH1 0xA0 DUP5 ADD MLOAD SWAP4 PUSH1 0xC0 DUP2 ADD MLOAD SWAP1 PUSH1 0xE0 DUP2 ADD MLOAD PUSH1 0x1 DUP1 PUSH1 0xA0 SHL SUB DUP2 AND DUP2 SUB PUSH3 0x380 JUMPI PUSH2 0x100 DUP3 ADD MLOAD SWAP2 PUSH1 0x1 PUSH1 0x1 PUSH1 0xA0 SHL SUB DUP4 AND DUP4 SUB PUSH3 0x380 JUMPI PUSH3 0xC9 PUSH2 0x120 DUP3 ADD PUSH3 0x384 JUMP JUMPDEST PUSH3 0xE7 PUSH2 0x160 PUSH3 0xDF PUSH2 0x140 DUP6 ADD PUSH3 0x384 JUMP JUMPDEST SWAP4 ADD PUSH3 0x384 JUMP JUMPDEST PUSH1 0x1 PUSH0 SSTORE SWAP4 PUSH1 0x1 PUSH1 0x1 PUSH1 0xA0 SHL SUB DUP10 AND ISZERO ISZERO DUP1 PUSH3 0x36D JUMPI JUMPDEST DUP1 PUSH3 0x35A JUMPI JUMPDEST DUP1 PUSH3 0x347 JUMPI JUMPDEST ISZERO PUSH3 0x302 JUMPI PUSH1 0x1 DUP1 SLOAD PUSH1 0x1 PUSH1 0x1 PUSH1 0xA0 SHL SUB NOT SWAP1 DUP2 AND PUSH1 0x1 PUSH1 0x1 PUSH1 0xA0 SHL SUB SWAP4 DUP5 AND OR SWAP1 SWAP2 SSTORE PUSH1 0x2 DUP1 SLOAD DUP3 AND SWAP4 DUP4 AND SWAP4 SWAP1 SWAP4 OR SWAP1 SWAP3 SSTORE PUSH1 0x3 DUP1 SLOAD SWAP1 SWAP3 AND SWAP3 AND SWAP2 SWAP1 SWAP2 OR SWAP1 SSTORE PUSH1 0x4 SLOAD PUSH1 0x40 MLOAD SWAP8 SWAP1 SWAP4 SWAP1 PUSH1 0x1 PUSH1 0x1 PUSH1 0x40 SHL SUB PUSH2 0x160 DUP11 ADD SWAP1 DUP2 GT SWAP1 DUP11 GT OR PUSH3 0x2EE JUMPI DUP11 PUSH0 PUSH2 0x140 DUP12 PUSH32 0x3D48195705780F5C10A0D217F778F0F6D562CB1A6A699DA31C0D6D756AACEDFC SWAP14 PUSH2 0x160 PUSH1 0x60 SWAP15 ADD PUSH1 0x40 MSTORE PUSH1 0x1 DUP1 PUSH1 0xA0 SHL SUB DUP14 AND DUP3 MSTORE PUSH1 0x1 DUP1 PUSH1 0xA0 SHL SUB DUP12 AND PUSH1 0x20 DUP4 ADD MSTORE PUSH1 0x1 DUP1 PUSH1 0xA0 SHL SUB DUP13 AND PUSH1 0x40 DUP4 ADD MSTORE PUSH1 0x1 DUP1 PUSH1 0xA0 SHL SUB AND SWAP4 DUP5 DUP15 DUP4 ADD MSTORE PUSH1 0x80 DUP3 ADD MSTORE DUP5 PUSH1 0xA0 DUP3 ADD MSTORE DUP6 PUSH1 0xC0 DUP3 ADD MSTORE PUSH1 0x1 DUP1 PUSH1 0xA0 SHL SUB DUP8 AND PUSH1 0xE0 DUP3 ADD MSTORE DUP3 PUSH2 0x100 DUP3 ADD MSTORE NUMBER PUSH2 0x120 DUP3 ADD MSTORE ADD MSTORE PUSH1 0x1 DUP1 PUSH1 0xA0 SHL SUB DUP10 AND PUSH1 0x1 DUP1 PUSH1 0xA0 SHL SUB NOT PUSH1 0x5 SLOAD AND OR PUSH1 0x5 SSTORE PUSH1 0x1 DUP1 PUSH1 0xA0 SHL SUB DUP8 AND PUSH1 0x1 DUP1 PUSH1 0xA0 SHL SUB NOT PUSH1 0x6 SLOAD AND OR PUSH1 0x6 SSTORE PUSH1 0x1 DUP1 PUSH1 0xA0 SHL SUB DUP9 AND PUSH1 0x1 DUP1 PUSH1 0xA0 SHL SUB NOT PUSH1 0x7 SLOAD AND OR PUSH1 0x7 SSTORE PUSH1 0x1 DUP1 PUSH1 0xA0 SHL SUB NOT PUSH1 0x8 SLOAD AND OR PUSH1 0x8 SSTORE DUP11 PUSH1 0x9 SSTORE PUSH1 0xA SSTORE PUSH1 0xB SSTORE PUSH1 0x1 DUP1 PUSH1 0xA0 SHL SUB AND PUSH1 0x1 DUP1 PUSH1 0xA0 SHL SUB NOT PUSH1 0xC SLOAD AND OR PUSH1 0xC SSTORE PUSH1 0x1 DUP1 PUSH1 0xA0 SHL SUB NOT PUSH1 0xD SLOAD AND PUSH1 0xD SSTORE NUMBER PUSH1 0xE SSTORE PUSH0 PUSH1 0xF SSTORE PUSH1 0x1 DUP1 PUSH1 0xA0 SHL SUB AND SWAP1 PUSH1 0x1 DUP1 PUSH1 0xA8 SHL SUB NOT AND OR PUSH1 0x4 SSTORE PUSH1 0x40 MLOAD SWAP6 DUP7 MSTORE PUSH1 0x1 DUP1 PUSH1 0xA0 SHL SUB AND PUSH1 0x20 DUP7 ADD MSTORE PUSH1 0x1 DUP1 PUSH1 0xA0 SHL SUB AND PUSH1 0x40 DUP6 ADD MSTORE PUSH1 0x1 DUP1 PUSH1 0xA0 SHL SUB AND SWAP3 LOG2 PUSH1 0x40 MLOAD PUSH2 0x11AB SWAP1 DUP2 PUSH3 0x39A DUP3 CODECOPY RETURN JUMPDEST PUSH4 0x4E487B71 PUSH1 0xE0 SHL PUSH0 MSTORE PUSH1 0x41 PUSH1 0x4 MSTORE PUSH1 0x24 PUSH0 REVERT JUMPDEST PUSH1 0x40 MLOAD PUSH3 0x461BCD PUSH1 0xE5 SHL DUP2 MSTORE PUSH1 0x20 PUSH1 0x4 DUP3 ADD MSTORE PUSH1 0x17 PUSH1 0x24 DUP3 ADD MSTORE PUSH32 0x496E76616C696420696E70757420616464726573736573000000000000000000 PUSH1 0x44 DUP3 ADD MSTORE PUSH1 0x64 SWAP1 REVERT JUMPDEST POP PUSH1 0x1 PUSH1 0x1 PUSH1 0xA0 SHL SUB DUP9 AND ISZERO ISZERO PUSH3 0x10D JUMP JUMPDEST POP PUSH1 0x1 PUSH1 0x1 PUSH1 0xA0 SHL SUB DUP12 AND ISZERO ISZERO PUSH3 0x106 JUMP JUMPDEST POP PUSH1 0x1 PUSH1 0x1 PUSH1 0xA0 SHL SUB DUP8 AND ISZERO ISZERO PUSH3 0xFF JUMP JUMPDEST PUSH0 DUP1 REVERT JUMPDEST MLOAD SWAP1 PUSH1 0x1 PUSH1 0x1 PUSH1 0xA0 SHL SUB DUP3 AND DUP3 SUB PUSH3 0x380 JUMPI JUMP INVALID PUSH1 0x80 PUSH1 0x40 DUP2 DUP2 MSTORE PUSH1 0x4 SWAP2 DUP3 CALLDATASIZE LT ISZERO PUSH2 0x15 JUMPI PUSH0 DUP1 REVERT JUMPDEST PUSH0 SWAP3 DUP4 CALLDATALOAD PUSH1 0xE0 SHR SWAP2 DUP3 PUSH4 0xF4EF8A6 EQ PUSH2 0xE33 JUMPI POP DUP2 PUSH4 0x12261EE7 EQ PUSH2 0xE0A JUMPI DUP2 PUSH4 0x2E1283E3 EQ PUSH2 0xDEB JUMPI DUP2 PUSH4 0x371FD8E6 EQ PUSH2 0xA3A JUMPI DUP2 PUSH4 0x3B1BAEFF EQ PUSH2 0x79D JUMPI DUP2 PUSH4 0x5257B566 EQ PUSH2 0x77E JUMPI DUP2 PUSH4 0x64C4BEC0 EQ PUSH2 0x75F JUMPI DUP2 PUSH4 0x654C6295 EQ PUSH2 0x6C8 JUMPI DUP2 PUSH4 0x6B6D1955 EQ PUSH2 0x6A8 JUMPI DUP2 PUSH4 0x8A4ADF24 EQ PUSH2 0x67F JUMPI DUP2 PUSH4 0x8DB57994 EQ PUSH2 0x591 JUMPI DUP2 PUSH4 0x95CB741D EQ PUSH2 0x505 JUMPI DUP2 PUSH4 0x9E9F669C EQ PUSH2 0x4D5 JUMPI DUP2 PUSH4 0xC19D93FB EQ PUSH2 0x4D5 JUMPI DUP2 PUSH4 0xC51B9507 EQ PUSH2 0x4AC JUMPI DUP2 PUSH4 0xEB0C4955 EQ PUSH2 0x488 JUMPI DUP2 PUSH4 0xF30F29DD EQ PUSH2 0x109 JUMPI POP PUSH4 0xF4B01B18 EQ PUSH2 0xE8 JUMPI PUSH0 DUP1 REVERT JUMPDEST CALLVALUE PUSH2 0x105 JUMPI DUP2 PUSH1 0x3 NOT CALLDATASIZE ADD SLT PUSH2 0x105 JUMPI PUSH1 0x20 SWAP1 PUSH1 0x9 SLOAD SWAP1 MLOAD SWAP1 DUP2 MSTORE RETURN JUMPDEST POP DUP1 REVERT JUMPDEST SWAP2 SWAP1 POP CALLVALUE PUSH2 0x484 JUMPI DUP1 PUSH1 0x3 NOT CALLDATASIZE ADD SLT PUSH2 0x484 JUMPI PUSH2 0x124 PUSH2 0xE57 JUMP JUMPDEST SWAP1 PUSH1 0x24 SWAP1 DUP2 CALLDATALOAD SWAP1 PUSH2 0x133 PUSH2 0xEDE JUMP JUMPDEST PUSH1 0xFF DUP6 SLOAD PUSH1 0xA0 SHR AND PUSH1 0x5 DUP2 LT ISZERO PUSH2 0x472 JUMPI PUSH1 0x1 SUB PUSH2 0x431 JUMPI PUSH1 0x1 PUSH1 0x1 PUSH1 0xA0 SHL SUB DUP5 DUP2 AND SWAP6 SWAP1 DUP7 ISZERO PUSH2 0x3EF JUMPI DUP1 PUSH1 0x5 SLOAD AND DUP8 EQ PUSH2 0x3AD JUMPI PUSH2 0x17C PUSH2 0x174 PUSH2 0x10E6 JUMP JUMPDEST PUSH1 0x9 SLOAD PUSH2 0x10B8 JUMP JUMPDEST DUP5 LT PUSH2 0x36B JUMPI PUSH1 0x6 SLOAD PUSH1 0x8 SLOAD DUP5 MLOAD PUSH4 0x95EA7B3 PUSH1 0xE0 SHL PUSH1 0x20 DUP1 DUP4 ADD DUP3 DUP2 MSTORE SWAP4 DUP7 AND PUSH1 0x1 PUSH1 0x1 PUSH1 0xA0 SHL SUB DUP2 AND DUP12 DUP6 ADD SWAP1 DUP2 MSTORE DUP1 DUP4 ADD DUP12 SWAP1 MSTORE DUP5 SWAP1 SUB DUP1 DUP4 ADD DUP6 MSTORE SWAP2 SWAP11 SWAP6 SWAP4 SWAP5 SWAP4 DUP8 AND SWAP4 SWAP1 SWAP2 DUP15 SWAP2 DUP3 SWAP2 PUSH2 0x1D7 SWAP1 PUSH1 0x40 ADD DUP9 PUSH2 0xEBC JUMP JUMPDEST DUP7 MLOAD SWAP1 DUP3 DUP8 GAS CALL PUSH2 0x1E6 PUSH2 0x1016 JUMP JUMPDEST DUP2 PUSH2 0x33B JUMPI JUMPDEST POP DUP1 PUSH2 0x331 JUMPI JUMPDEST ISZERO PUSH2 0x2D3 JUMPI JUMPDEST POP POP POP POP DUP6 DUP9 PUSH1 0x44 DUP5 PUSH1 0x8 SLOAD AND SWAP4 DUP13 DUP9 MLOAD SWAP6 DUP7 SWAP5 DUP6 SWAP4 PUSH4 0x6E553F65 PUSH1 0xE0 SHL DUP6 MSTORE DUP13 DUP12 DUP7 ADD MSTORE DUP5 ADD MSTORE GAS CALL DUP1 ISZERO PUSH2 0x2C9 JUMPI PUSH2 0x29B JUMPI JUMPDEST POP PUSH32 0x5150AB7694A22FBC01C642BC10316565247DF962FA3F0AC3B5D1A18BA45B485B SWAP6 PUSH2 0x27E SWAP2 DUP9 PUSH12 0xFFFFFFFFFFFFFFFFFFFFFFFF PUSH1 0xA0 SHL PUSH1 0xD SLOAD AND OR PUSH1 0xD SSTORE PUSH1 0x6 SLOAD AND SWAP1 PUSH1 0x9 SLOAD SWAP2 ADDRESS SWAP1 PUSH2 0xF32 JUMP JUMPDEST DUP1 SLOAD PUSH1 0xFF PUSH1 0xA0 SHL NOT AND PUSH1 0x1 PUSH1 0xA1 SHL OR SWAP1 SSTORE MLOAD SWAP1 DUP2 MSTORE LOG2 PUSH1 0x1 DUP2 SSTORE DUP1 RETURN JUMPDEST DUP6 SWAP1 DUP2 RETURNDATASIZE DUP4 GT PUSH2 0x2C2 JUMPI JUMPDEST PUSH2 0x2B0 DUP2 DUP4 PUSH2 0xEBC JUMP JUMPDEST DUP2 ADD SUB SLT PUSH2 0x2BE JUMPI PUSH0 PUSH2 0x22E JUMP JUMPDEST PUSH0 DUP1 REVERT JUMPDEST POP RETURNDATASIZE PUSH2 0x2A6 JUMP JUMPDEST DUP5 MLOAD RETURNDATASIZE DUP12 DUP3 RETURNDATACOPY RETURNDATASIZE SWAP1 REVERT JUMPDEST DUP8 MLOAD SWAP2 DUP11 DUP4 ADD MSTORE DUP5 DUP3 ADD MSTORE DUP12 PUSH1 0x44 DUP3 ADD MSTORE PUSH1 0x44 DUP2 MSTORE PUSH1 0x80 DUP2 ADD DUP2 DUP2 LT PUSH8 0xFFFFFFFFFFFFFFFF DUP3 GT OR PUSH2 0x31F JUMPI PUSH2 0x316 SWAP4 SWAP3 SWAP2 PUSH2 0x311 SWAP2 DUP10 MSTORE DUP3 PUSH2 0xFA5 JUMP JUMPDEST PUSH2 0xFA5 JUMP JUMPDEST PUSH0 DUP1 DUP1 DUP1 PUSH2 0x1F9 JUMP JUMPDEST DUP5 PUSH1 0x41 DUP9 PUSH4 0x4E487B71 PUSH1 0xE0 SHL PUSH0 MSTORE MSTORE PUSH0 REVERT JUMPDEST POP DUP3 EXTCODESIZE ISZERO ISZERO PUSH2 0x1F3 JUMP JUMPDEST DUP1 MLOAD DUP1 ISZERO SWAP3 POP DUP13 SWAP1 DUP4 ISZERO PUSH2 0x353 JUMPI JUMPDEST POP POP POP PUSH0 PUSH2 0x1EC JUMP JUMPDEST PUSH2 0x363 SWAP4 POP DUP3 ADD DUP2 ADD SWAP2 ADD PUSH2 0xF8D JUMP JUMPDEST PUSH0 DUP12 DUP2 PUSH2 0x34A JUMP JUMPDEST POP PUSH1 0x17 DUP5 PUSH1 0x20 PUSH1 0x64 SWAP5 MLOAD SWAP4 PUSH3 0x461BCD PUSH1 0xE5 SHL DUP6 MSTORE DUP5 ADD MSTORE DUP3 ADD MSTORE PUSH32 0x496E73756666696369656E7420636F6C6C61746572616C000000000000000000 PUSH1 0x44 DUP3 ADD MSTORE REVERT JUMPDEST POP PUSH1 0x19 DUP5 PUSH1 0x20 PUSH1 0x64 SWAP5 MLOAD SWAP4 PUSH3 0x461BCD PUSH1 0xE5 SHL DUP6 MSTORE DUP5 ADD MSTORE DUP3 ADD MSTORE PUSH32 0x4C656E6465722063616E6E6F7420626520626F72726F77657200000000000000 PUSH1 0x44 DUP3 ADD MSTORE REVERT JUMPDEST POP PUSH1 0x18 DUP5 PUSH1 0x20 PUSH1 0x64 SWAP5 MLOAD SWAP4 PUSH3 0x461BCD PUSH1 0xE5 SHL DUP6 MSTORE DUP5 ADD MSTORE DUP3 ADD MSTORE PUSH32 0x496E76616C696420626F72726F77657220616464726573730000000000000000 PUSH1 0x44 DUP3 ADD MSTORE REVERT JUMPDEST MLOAD PUSH3 0x461BCD PUSH1 0xE5 SHL DUP2 MSTORE PUSH1 0x20 DUP2 DUP7 ADD MSTORE PUSH1 0x1A DUP2 DUP5 ADD MSTORE PUSH32 0x4C6F616E206E6F7420726561647920746F206163746976617465000000000000 PUSH1 0x44 DUP3 ADD MSTORE PUSH1 0x64 SWAP1 REVERT JUMPDEST PUSH4 0x4E487B71 PUSH1 0xE0 SHL DUP8 MSTORE PUSH1 0x21 DUP7 MSTORE DUP4 DUP8 REVERT JUMPDEST DUP3 DUP1 REVERT JUMPDEST POP POP CALLVALUE PUSH2 0x105 JUMPI DUP2 PUSH1 0x3 NOT CALLDATASIZE ADD SLT PUSH2 0x105 JUMPI PUSH1 0x20 SWAP1 PUSH2 0x4A5 PUSH2 0x10E6 JUMP JUMPDEST SWAP1 MLOAD SWAP1 DUP2 MSTORE RETURN JUMPDEST POP POP CALLVALUE PUSH2 0x105 JUMPI DUP2 PUSH1 0x3 NOT CALLDATASIZE ADD SLT PUSH2 0x105 JUMPI PUSH1 0x2 SLOAD SWAP1 MLOAD PUSH1 0x1 PUSH1 0x1 PUSH1 0xA0 SHL SUB SWAP1 SWAP2 AND DUP2 MSTORE PUSH1 0x20 SWAP1 RETURN JUMPDEST DUP3 DUP5 CALLVALUE PUSH2 0x502 JUMPI DUP1 PUSH1 0x3 NOT CALLDATASIZE ADD SLT PUSH2 0x502 JUMPI POP PUSH1 0xFF PUSH2 0x4FE SWAP3 SLOAD PUSH1 0xA0 SHR AND SWAP1 MLOAD SWAP2 DUP3 SWAP2 DUP3 PUSH2 0xE6D JUMP JUMPDEST SUB SWAP1 RETURN JUMPDEST DUP1 REVERT JUMPDEST POP POP CALLVALUE PUSH2 0x105 JUMPI DUP2 PUSH1 0x3 NOT CALLDATASIZE ADD SLT PUSH2 0x105 JUMPI PUSH2 0x160 SWAP1 PUSH1 0x1 DUP1 PUSH1 0xA0 SHL SUB DUP1 PUSH1 0x5 SLOAD AND SWAP2 DUP2 PUSH1 0x6 SLOAD AND SWAP2 DUP1 PUSH1 0x7 SLOAD AND SWAP1 DUP1 PUSH1 0x8 SLOAD AND PUSH1 0x9 SLOAD PUSH1 0xA SLOAD SWAP1 PUSH1 0xB SLOAD SWAP3 DUP5 PUSH1 0xC SLOAD AND SWAP5 PUSH1 0xD SLOAD AND SWAP6 PUSH1 0xE SLOAD SWAP8 PUSH1 0xF SLOAD SWAP10 DUP2 MLOAD SWAP12 DUP13 MSTORE PUSH1 0x20 DUP13 ADD MSTORE DUP11 ADD MSTORE PUSH1 0x60 DUP10 ADD MSTORE PUSH1 0x80 DUP9 ADD MSTORE PUSH1 0xA0 DUP8 ADD MSTORE PUSH1 0xC0 DUP7 ADD MSTORE PUSH1 0xE0 DUP6 ADD MSTORE PUSH2 0x100 DUP5 ADD MSTORE PUSH2 0x120 DUP4 ADD MSTORE PUSH2 0x140 DUP3 ADD MSTORE RETURN JUMPDEST SWAP1 POP CALLVALUE PUSH2 0x484 JUMPI DUP3 PUSH1 0x3 NOT CALLDATASIZE ADD SLT PUSH2 0x484 JUMPI PUSH2 0x5AB PUSH2 0xEDE JUMP JUMPDEST PUSH1 0xFF DUP2 SLOAD PUSH1 0xA0 SHR AND PUSH1 0x5 DUP2 LT ISZERO PUSH2 0x66C JUMPI PUSH2 0x62A JUMPI PUSH32 0x9E71D2FB732E68272B7E74ECFD14638673C1D77E19A5D390A3FFFF054D57C44B SWAP2 PUSH1 0x20 SWAP2 PUSH2 0x605 PUSH1 0x1 DUP1 PUSH1 0xA0 SHL SUB DUP1 PUSH1 0x6 SLOAD AND SWAP1 PUSH1 0x5 SLOAD AND SWAP1 PUSH1 0x9 SLOAD SWAP2 ADDRESS SWAP2 PUSH2 0xF32 JUMP JUMPDEST NUMBER PUSH1 0xF SSTORE DUP1 SLOAD PUSH1 0xFF PUSH1 0xA0 SHL NOT AND PUSH1 0x1 PUSH1 0xA0 SHL OR SWAP1 SSTORE PUSH1 0x9 SLOAD SWAP1 MLOAD SWAP1 DUP2 MSTORE LOG1 PUSH1 0x1 DUP2 SSTORE DUP1 RETURN JUMPDEST PUSH1 0x20 PUSH1 0x64 SWAP3 MLOAD SWAP2 PUSH3 0x461BCD PUSH1 0xE5 SHL DUP4 MSTORE DUP3 ADD MSTORE PUSH1 0x1B PUSH1 0x24 DUP3 ADD MSTORE PUSH32 0x4C6F616E206E6F7420696E20637265617461626C652073746174650000000000 PUSH1 0x44 DUP3 ADD MSTORE REVERT JUMPDEST PUSH4 0x4E487B71 PUSH1 0xE0 SHL DUP5 MSTORE PUSH1 0x21 DUP3 MSTORE PUSH1 0x24 DUP5 REVERT JUMPDEST POP POP CALLVALUE PUSH2 0x105 JUMPI DUP2 PUSH1 0x3 NOT CALLDATASIZE ADD SLT PUSH2 0x105 JUMPI PUSH1 0x3 SLOAD SWAP1 MLOAD PUSH1 0x1 PUSH1 0x1 PUSH1 0xA0 SHL SUB SWAP1 SWAP2 AND DUP2 MSTORE PUSH1 0x20 SWAP1 RETURN JUMPDEST POP POP CALLVALUE PUSH2 0x105 JUMPI DUP2 PUSH1 0x3 NOT CALLDATASIZE ADD SLT PUSH2 0x105 JUMPI PUSH1 0x20 SWAP1 PUSH2 0x4A5 PUSH2 0x174 PUSH2 0x10E6 JUMP JUMPDEST DUP4 DUP4 CALLVALUE PUSH2 0x105 JUMPI PUSH1 0x20 SWAP3 DUP4 PUSH1 0x3 NOT CALLDATASIZE ADD SLT PUSH2 0x484 JUMPI DUP4 PUSH2 0x6E6 PUSH2 0xE57 JUMP JUMPDEST PUSH1 0x8 SLOAD DUP5 MLOAD PUSH4 0x70A08231 PUSH1 0xE0 SHL DUP2 MSTORE PUSH1 0x1 PUSH1 0x1 PUSH1 0xA0 SHL SUB SWAP3 DUP4 AND SWAP5 DUP2 ADD SWAP5 SWAP1 SWAP5 MSTORE DUP4 SWAP2 PUSH1 0x24 SWAP2 DUP4 SWAP2 AND GAS STATICCALL SWAP3 DUP4 ISZERO PUSH2 0x754 JUMPI SWAP3 PUSH2 0x725 JUMPI JUMPDEST POP MLOAD SWAP1 DUP2 MSTORE RETURN JUMPDEST SWAP1 SWAP2 POP DUP3 DUP2 DUP2 RETURNDATASIZE DUP4 GT PUSH2 0x74D JUMPI JUMPDEST PUSH2 0x73D DUP2 DUP4 PUSH2 0xEBC JUMP JUMPDEST DUP2 ADD SUB SLT PUSH2 0x2BE JUMPI MLOAD SWAP1 DUP4 PUSH2 0x71E JUMP JUMPDEST POP RETURNDATASIZE PUSH2 0x733 JUMP JUMPDEST DUP3 MLOAD SWAP1 RETURNDATASIZE SWAP1 DUP3 RETURNDATACOPY RETURNDATASIZE SWAP1 REVERT JUMPDEST POP POP CALLVALUE PUSH2 0x105 JUMPI DUP2 PUSH1 0x3 NOT CALLDATASIZE ADD SLT PUSH2 0x105 JUMPI PUSH1 0x20 SWAP1 PUSH1 0xB SLOAD SWAP1 MLOAD SWAP1 DUP2 MSTORE RETURN JUMPDEST POP POP CALLVALUE PUSH2 0x105 JUMPI DUP2 PUSH1 0x3 NOT CALLDATASIZE ADD SLT PUSH2 0x105 JUMPI PUSH1 0x20 SWAP1 PUSH1 0xA SLOAD SWAP1 MLOAD SWAP1 DUP2 MSTORE RETURN JUMPDEST SWAP2 SWAP1 POP CALLVALUE PUSH2 0x484 JUMPI DUP3 PUSH1 0x3 NOT CALLDATASIZE ADD SLT PUSH2 0x484 JUMPI DUP2 SLOAD PUSH1 0xFF DUP2 PUSH1 0xA0 SHR AND PUSH1 0x5 DUP2 LT ISZERO PUSH2 0xA27 JUMPI PUSH1 0x2 SUB PUSH2 0x9EF JUMPI PUSH2 0x7D8 PUSH1 0xE SLOAD PUSH1 0xB SLOAD SWAP1 PUSH2 0x10B8 JUMP JUMPDEST NUMBER LT PUSH2 0x9A1 JUMPI PUSH2 0x7F2 PUSH1 0x9 SLOAD PUSH2 0x7EC PUSH2 0x10E6 JUMP JUMPDEST SWAP1 PUSH2 0x10B8 JUMP JUMPDEST SWAP2 PUSH1 0x1 DUP1 PUSH1 0xA0 SHL SUB SWAP4 DUP5 PUSH1 0x7 SLOAD AND SWAP3 DUP6 PUSH1 0x5 SLOAD AND SWAP1 DUP4 MLOAD SWAP6 DUP7 PUSH4 0x70A08231 PUSH1 0xE0 SHL SWAP7 DUP8 DUP3 MSTORE DUP5 DUP7 DUP4 ADD MSTORE DUP2 PUSH1 0x24 PUSH1 0x20 SWAP11 DUP12 SWAP4 GAS STATICCALL SWAP1 DUP2 ISZERO PUSH2 0x997 JUMPI DUP11 SWAP2 PUSH2 0x96A JUMPI JUMPDEST POP LT PUSH2 0x83E JUMPI DUP8 DUP1 RETURN JUMPDEST PUSH1 0xFF PUSH1 0xA0 SHL NOT AND PUSH1 0x1 PUSH1 0xA2 SHL OR DUP3 SSTORE PUSH1 0x8 SLOAD DUP4 MLOAD SWAP5 DUP6 MSTORE ADDRESS DUP6 DUP5 ADD MSTORE DUP7 AND SWAP1 DUP8 DUP7 DUP7 PUSH1 0x24 DUP2 DUP7 GAS STATICCALL SWAP6 DUP7 ISZERO PUSH2 0x95E JUMPI SWAP1 DUP8 SWAP5 SWAP4 SWAP3 SWAP2 DUP2 SWAP8 PUSH2 0x927 JUMPI JUMPDEST POP DUP6 MLOAD PUSH4 0x2D182BE5 PUSH1 0xE2 SHL DUP2 MSTORE SWAP4 DUP5 ADD SWAP7 DUP8 MSTORE PUSH1 0x1 PUSH1 0x1 PUSH1 0xA0 SHL SUB SWAP1 SWAP2 AND PUSH1 0x20 DUP8 ADD MSTORE ADDRESS PUSH1 0x40 DUP8 ADD MSTORE SWAP2 SWAP5 DUP6 SWAP3 DUP4 SWAP2 DUP3 SWAP1 PUSH1 0x60 ADD JUMPDEST SUB SWAP3 GAS CALL SWAP1 DUP2 ISZERO PUSH2 0x91E JUMPI POP PUSH2 0x8F5 JUMPI JUMPDEST POP POP PUSH1 0xD SLOAD AND PUSH32 0xF4E5CF42CBB1D0C6C91E16D925349FEB6C5D970652F6EC77B1FF1262F7284CD5 DUP3 DUP1 LOG2 PUSH0 DUP1 DUP1 DUP1 DUP1 DUP1 DUP1 DUP8 DUP1 RETURN JUMPDEST DUP2 RETURNDATASIZE DUP4 GT PUSH2 0x917 JUMPI JUMPDEST PUSH2 0x908 DUP2 DUP4 PUSH2 0xEBC JUMP JUMPDEST DUP2 ADD SUB SLT PUSH2 0x2BE JUMPI PUSH0 DUP1 PUSH2 0x8C0 JUMP JUMPDEST POP RETURNDATASIZE PUSH2 0x8FE JUMP JUMPDEST MLOAD RETURNDATASIZE DUP7 DUP3 RETURNDATACOPY RETURNDATASIZE SWAP1 REVERT JUMPDEST SWAP5 DUP1 SWAP3 SWAP8 POP DUP6 SWAP2 POP RETURNDATASIZE DUP4 GT PUSH2 0x957 JUMPI JUMPDEST PUSH2 0x941 DUP2 DUP4 PUSH2 0xEBC JUMP JUMPDEST DUP2 ADD SUB SLT PUSH2 0x2BE JUMPI PUSH2 0x8AF SWAP5 DUP9 DUP8 SWAP5 MLOAD SWAP7 PUSH2 0x87A JUMP JUMPDEST POP RETURNDATASIZE PUSH2 0x937 JUMP JUMPDEST POP DUP5 MLOAD SWAP1 RETURNDATASIZE SWAP1 DUP3 RETURNDATACOPY RETURNDATASIZE SWAP1 REVERT JUMPDEST SWAP1 POP DUP8 DUP2 DUP2 RETURNDATASIZE DUP4 GT PUSH2 0x990 JUMPI JUMPDEST PUSH2 0x981 DUP2 DUP4 PUSH2 0xEBC JUMP JUMPDEST DUP2 ADD SUB SLT PUSH2 0x2BE JUMPI MLOAD PUSH0 PUSH2 0x834 JUMP JUMPDEST POP RETURNDATASIZE PUSH2 0x977 JUMP JUMPDEST DUP7 MLOAD RETURNDATASIZE DUP13 DUP3 RETURNDATACOPY RETURNDATASIZE SWAP1 REVERT JUMPDEST DUP2 MLOAD PUSH3 0x461BCD PUSH1 0xE5 SHL DUP2 MSTORE PUSH1 0x20 DUP2 DUP6 ADD MSTORE PUSH1 0x22 PUSH1 0x24 DUP3 ADD MSTORE PUSH32 0x52657061796D656E7420706572696F6420686173206E6F742079657420656E64 PUSH1 0x44 DUP3 ADD MSTORE PUSH2 0x1959 PUSH1 0xF2 SHL PUSH1 0x64 DUP3 ADD MSTORE PUSH1 0x84 SWAP1 REVERT JUMPDEST DUP2 MLOAD PUSH3 0x461BCD PUSH1 0xE5 SHL DUP2 MSTORE PUSH1 0x20 DUP2 DUP6 ADD MSTORE PUSH1 0x12 PUSH1 0x24 DUP3 ADD MSTORE PUSH18 0x4C6F616E206973206E6F7420616374697665 PUSH1 0x70 SHL PUSH1 0x44 DUP3 ADD MSTORE PUSH1 0x64 SWAP1 REVERT JUMPDEST PUSH4 0x4E487B71 PUSH1 0xE0 SHL DUP6 MSTORE PUSH1 0x21 DUP5 MSTORE PUSH1 0x24 DUP6 REVERT JUMPDEST SWAP1 POP CALLVALUE PUSH2 0x484 JUMPI PUSH1 0x20 SWAP1 DUP2 PUSH1 0x3 NOT CALLDATASIZE ADD SLT PUSH2 0xC4E JUMPI DUP1 CALLDATALOAD SWAP1 PUSH2 0xA5A PUSH2 0xEDE JUMP JUMPDEST PUSH1 0xFF DUP2 SLOAD PUSH1 0xA0 SHR AND PUSH1 0x5 DUP2 LT ISZERO PUSH2 0xDD8 JUMPI PUSH1 0x2 SUB PUSH2 0xD9F JUMPI PUSH2 0xA80 PUSH1 0x9 SLOAD PUSH2 0x7EC PUSH2 0x10E6 JUMP JUMPDEST SWAP2 DUP3 DUP2 LT PUSH2 0xD52 JUMPI PUSH1 0x1 DUP1 PUSH1 0xA0 SHL SUB SWAP1 PUSH2 0xAA6 DUP5 DUP4 PUSH1 0x7 SLOAD AND DUP5 PUSH1 0x5 SLOAD AND SWAP1 CALLER SWAP1 PUSH2 0xF32 JUMP JUMPDEST DUP4 DUP1 DUP3 GT ISZERO PUSH2 0xD4A JUMPI PUSH2 0xAB8 SWAP2 PUSH2 0x10D9 JUMP JUMPDEST DUP1 PUSH2 0xD0F JUMPI JUMPDEST POP DUP1 PUSH1 0x8 SLOAD AND DUP6 MLOAD PUSH4 0x70A08231 PUSH1 0xE0 SHL DUP2 MSTORE ADDRESS DUP5 DUP3 ADD MSTORE DUP6 DUP2 PUSH1 0x24 DUP2 DUP6 GAS STATICCALL DUP1 ISZERO PUSH2 0xC95 JUMPI DUP7 SWAP2 DUP10 SWAP2 PUSH2 0xCDA JUMPI JUMPDEST POP PUSH1 0xD SLOAD DUP9 MLOAD PUSH4 0x2D182BE5 PUSH1 0xE2 SHL DUP2 MSTORE DUP7 DUP2 ADD SWAP3 DUP4 MSTORE SWAP1 DUP6 AND PUSH1 0x1 PUSH1 0x1 PUSH1 0xA0 SHL SUB AND PUSH1 0x20 DUP4 ADD MSTORE ADDRESS PUSH1 0x40 DUP4 ADD MSTORE SWAP3 DUP4 SWAP2 DUP3 SWAP1 DUP12 SWAP1 DUP3 SWAP1 PUSH1 0x60 ADD JUMPDEST SUB SWAP3 GAS CALL SWAP1 DUP2 ISZERO PUSH2 0xCD0 JUMPI DUP6 SWAP2 PUSH2 0xCA3 JUMPI JUMPDEST POP POP DUP2 SLOAD PUSH1 0xFF PUSH1 0xA0 SHL NOT AND PUSH1 0x3 PUSH1 0xA0 SHL OR DUP3 SSTORE PUSH1 0x2 SLOAD DUP2 AND SWAP1 DUP2 EXTCODESIZE ISZERO PUSH2 0xC9F JUMPI DUP6 MLOAD DUP8 DUP2 PUSH1 0x24 DUP2 DUP4 PUSH4 0x7E72C7D7 PUSH1 0xE0 SHL SWAP8 DUP9 DUP4 MSTORE ADDRESS DUP11 DUP5 ADD MSTORE GAS CALL DUP1 ISZERO PUSH2 0xC95 JUMPI PUSH2 0xC7E JUMPI JUMPDEST POP SWAP1 DUP2 DUP8 SWAP4 SWAP3 PUSH1 0x3 SLOAD AND DUP1 EXTCODESIZE ISZERO PUSH2 0xC7A JUMPI DUP5 DUP1 SWAP2 PUSH1 0x24 DUP11 MLOAD DUP1 SWAP5 DUP2 SWAP4 PUSH4 0x38E270ED PUSH1 0xE0 SHL DUP4 MSTORE ADDRESS DUP11 DUP5 ADD MSTORE GAS CALL SWAP1 DUP2 ISZERO PUSH2 0xC70 JUMPI DUP6 SWAP2 PUSH2 0xC5C JUMPI JUMPDEST POP POP DUP3 SLOAD AND SWAP2 DUP3 EXTCODESIZE ISZERO PUSH2 0xC4E JUMPI PUSH1 0x24 DUP5 SWAP3 DUP4 DUP10 MLOAD SWAP6 DUP7 SWAP5 DUP6 SWAP4 DUP5 MSTORE ADDRESS SWAP1 DUP5 ADD MSTORE GAS CALL DUP1 ISZERO PUSH2 0xC52 JUMPI PUSH2 0xC3A JUMPI JUMPDEST POP POP PUSH32 0x4002DBA848920F438092E08090CFB5FC47144C22704268B402C9553A1B5ADFE6 SWAP3 MLOAD SWAP1 PUSH32 0x409FCED1B85AE32A29FB1E18894D8361A5F2653DC27ADF7102D86175C2901D7C DUP6 DUP1 LOG1 DUP2 MSTORE LOG1 PUSH1 0x1 DUP2 SSTORE DUP1 RETURN JUMPDEST PUSH2 0xC43 SWAP1 PUSH2 0xE94 JUMP JUMPDEST PUSH2 0xC4E JUMPI DUP4 PUSH0 PUSH2 0xBE6 JUMP JUMPDEST DUP4 DUP1 REVERT JUMPDEST DUP6 MLOAD RETURNDATASIZE DUP5 DUP3 RETURNDATACOPY RETURNDATASIZE SWAP1 REVERT JUMPDEST PUSH2 0xC65 SWAP1 PUSH2 0xE94 JUMP JUMPDEST PUSH2 0xC4E JUMPI DUP4 PUSH0 PUSH2 0xBB9 JUMP JUMPDEST DUP9 MLOAD RETURNDATASIZE DUP8 DUP3 RETURNDATACOPY RETURNDATASIZE SWAP1 REVERT JUMPDEST DUP5 DUP1 REVERT JUMPDEST PUSH2 0xC8C SWAP1 SWAP8 SWAP2 SWAP4 SWAP3 SWAP8 PUSH2 0xE94 JUMP JUMPDEST SWAP6 SWAP1 SWAP2 PUSH0 PUSH2 0xB7E JUMP JUMPDEST DUP8 MLOAD RETURNDATASIZE DUP11 DUP3 RETURNDATACOPY RETURNDATASIZE SWAP1 REVERT JUMPDEST DUP7 DUP1 REVERT JUMPDEST DUP2 RETURNDATASIZE DUP4 GT PUSH2 0xCC9 JUMPI JUMPDEST PUSH2 0xCB6 DUP2 DUP4 PUSH2 0xEBC JUMP JUMPDEST DUP2 ADD SUB SLT PUSH2 0xCC5 JUMPI DUP4 PUSH0 PUSH2 0xB38 JUMP JUMPDEST DUP6 DUP1 REVERT JUMPDEST POP RETURNDATASIZE PUSH2 0xCAC JUMP JUMPDEST DUP7 MLOAD RETURNDATASIZE DUP10 DUP3 RETURNDATACOPY RETURNDATASIZE SWAP1 REVERT JUMPDEST DUP3 DUP2 SWAP4 SWAP3 POP RETURNDATASIZE DUP4 GT PUSH2 0xD08 JUMPI JUMPDEST PUSH2 0xCF1 DUP2 DUP4 PUSH2 0xEBC JUMP JUMPDEST DUP2 ADD SUB SLT PUSH2 0xD04 JUMPI MLOAD DUP6 SWAP1 PUSH2 0xB26 PUSH2 0xAEC JUMP JUMPDEST DUP8 DUP1 REVERT JUMPDEST POP RETURNDATASIZE PUSH2 0xCE7 JUMP JUMPDEST PUSH1 0x7 SLOAD DUP7 MLOAD PUSH4 0xA9059CBB PUSH1 0xE0 SHL DUP8 DUP3 ADD MSTORE CALLER PUSH1 0x24 DUP3 ADD MSTORE PUSH1 0x44 DUP1 DUP3 ADD SWAP4 SWAP1 SWAP4 MSTORE SWAP2 DUP3 MSTORE PUSH2 0xD44 SWAP2 SWAP1 DUP4 AND PUSH2 0x311 PUSH1 0x64 DUP4 PUSH2 0xEBC JUMP JUMPDEST PUSH0 PUSH2 0xABE JUMP JUMPDEST POP POP DUP6 PUSH2 0xAB8 JUMP JUMPDEST DUP5 MLOAD PUSH3 0x461BCD PUSH1 0xE5 SHL DUP2 MSTORE DUP1 DUP4 ADD DUP6 SWAP1 MSTORE PUSH1 0x21 PUSH1 0x24 DUP3 ADD MSTORE PUSH32 0x496E73756666696369656E7420616D6F756E7420666F722072657061796D656E PUSH1 0x44 DUP3 ADD MSTORE PUSH1 0x1D PUSH1 0xFA SHL PUSH1 0x64 DUP3 ADD MSTORE PUSH1 0x84 SWAP1 REVERT JUMPDEST DUP4 MLOAD PUSH3 0x461BCD PUSH1 0xE5 SHL DUP2 MSTORE SWAP1 DUP2 ADD DUP4 SWAP1 MSTORE PUSH1 0x13 PUSH1 0x24 DUP3 ADD MSTORE PUSH19 0x4C6F616E206D75737420626520616374697665 PUSH1 0x68 SHL PUSH1 0x44 DUP3 ADD MSTORE PUSH1 0x64 SWAP1 REVERT JUMPDEST PUSH4 0x4E487B71 PUSH1 0xE0 SHL DUP7 MSTORE PUSH1 0x21 DUP3 MSTORE PUSH1 0x24 DUP7 REVERT JUMPDEST POP POP CALLVALUE PUSH2 0x105 JUMPI DUP2 PUSH1 0x3 NOT CALLDATASIZE ADD SLT PUSH2 0x105 JUMPI PUSH1 0x20 SWAP1 PUSH1 0xF SLOAD SWAP1 MLOAD SWAP1 DUP2 MSTORE RETURN JUMPDEST POP POP CALLVALUE PUSH2 0x105 JUMPI DUP2 PUSH1 0x3 NOT CALLDATASIZE ADD SLT PUSH2 0x105 JUMPI PUSH1 0x1 SLOAD SWAP1 MLOAD PUSH1 0x1 PUSH1 0x1 PUSH1 0xA0 SHL SUB SWAP1 SWAP2 AND DUP2 MSTORE PUSH1 0x20 SWAP1 RETURN JUMPDEST DUP5 SWAP2 CALLVALUE PUSH2 0x484 JUMPI DUP3 PUSH1 0x3 NOT CALLDATASIZE ADD SLT PUSH2 0x484 JUMPI SLOAD PUSH1 0x1 PUSH1 0x1 PUSH1 0xA0 SHL SUB AND DUP2 MSTORE PUSH1 0x20 SWAP2 POP RETURN JUMPDEST PUSH1 0x4 CALLDATALOAD SWAP1 PUSH1 0x1 PUSH1 0x1 PUSH1 0xA0 SHL SUB DUP3 AND DUP3 SUB PUSH2 0x2BE JUMPI JUMP JUMPDEST SWAP2 SWAP1 PUSH1 0x20 DUP4 ADD SWAP3 PUSH1 0x5 DUP3 LT ISZERO PUSH2 0xE80 JUMPI MSTORE JUMP JUMPDEST PUSH4 0x4E487B71 PUSH1 0xE0 SHL PUSH0 MSTORE PUSH1 0x21 PUSH1 0x4 MSTORE PUSH1 0x24 PUSH0 REVERT JUMPDEST PUSH8 0xFFFFFFFFFFFFFFFF DUP2 GT PUSH2 0xEA8 JUMPI PUSH1 0x40 MSTORE JUMP JUMPDEST PUSH4 0x4E487B71 PUSH1 0xE0 SHL PUSH0 MSTORE PUSH1 0x41 PUSH1 0x4 MSTORE PUSH1 0x24 PUSH0 REVERT JUMPDEST SWAP1 PUSH1 0x1F DUP1 NOT SWAP2 ADD AND DUP2 ADD SWAP1 DUP2 LT PUSH8 0xFFFFFFFFFFFFFFFF DUP3 GT OR PUSH2 0xEA8 JUMPI PUSH1 0x40 MSTORE JUMP JUMPDEST PUSH1 0x2 PUSH0 SLOAD EQ PUSH2 0xEED JUMPI PUSH1 0x2 PUSH0 SSTORE JUMP JUMPDEST PUSH1 0x40 MLOAD PUSH3 0x461BCD PUSH1 0xE5 SHL DUP2 MSTORE PUSH1 0x20 PUSH1 0x4 DUP3 ADD MSTORE PUSH1 0x1F PUSH1 0x24 DUP3 ADD MSTORE PUSH32 0x5265656E7472616E637947756172643A207265656E7472616E742063616C6C00 PUSH1 0x44 DUP3 ADD MSTORE PUSH1 0x64 SWAP1 REVERT JUMPDEST PUSH1 0x40 MLOAD PUSH4 0x23B872DD PUSH1 0xE0 SHL PUSH1 0x20 DUP3 ADD MSTORE PUSH1 0x1 PUSH1 0x1 PUSH1 0xA0 SHL SUB SWAP3 DUP4 AND PUSH1 0x24 DUP3 ADD MSTORE SWAP3 SWAP1 SWAP2 AND PUSH1 0x44 DUP4 ADD MSTORE PUSH1 0x64 DUP1 DUP4 ADD SWAP4 SWAP1 SWAP4 MSTORE SWAP2 DUP2 MSTORE PUSH1 0xA0 DUP2 ADD SWAP2 DUP2 DUP4 LT PUSH8 0xFFFFFFFFFFFFFFFF DUP5 GT OR PUSH2 0xEA8 JUMPI PUSH2 0xF8B SWAP3 PUSH1 0x40 MSTORE PUSH2 0xFA5 JUMP JUMPDEST JUMP JUMPDEST SWAP1 DUP2 PUSH1 0x20 SWAP2 SUB SLT PUSH2 0x2BE JUMPI MLOAD DUP1 ISZERO ISZERO DUP2 SUB PUSH2 0x2BE JUMPI SWAP1 JUMP JUMPDEST PUSH0 DUP1 PUSH2 0xFCD SWAP3 PUSH1 0x1 DUP1 PUSH1 0xA0 SHL SUB AND SWAP4 PUSH1 0x20 DUP2 MLOAD SWAP2 ADD DUP3 DUP7 GAS CALL PUSH2 0xFC6 PUSH2 0x1016 JUMP JUMPDEST SWAP1 DUP4 PUSH2 0x1055 JUMP JUMPDEST DUP1 MLOAD SWAP1 DUP2 ISZERO ISZERO SWAP2 DUP3 PUSH2 0xFFB JUMPI JUMPDEST POP POP PUSH2 0xFE3 JUMPI POP JUMP JUMPDEST PUSH1 0x24 SWAP1 PUSH1 0x40 MLOAD SWAP1 PUSH4 0x5274AFE7 PUSH1 0xE0 SHL DUP3 MSTORE PUSH1 0x4 DUP3 ADD MSTORE REVERT JUMPDEST PUSH2 0x100E SWAP3 POP PUSH1 0x20 DUP1 SWAP2 DUP4 ADD ADD SWAP2 ADD PUSH2 0xF8D JUMP JUMPDEST ISZERO PUSH0 DUP1 PUSH2 0xFDA JUMP JUMPDEST RETURNDATASIZE ISZERO PUSH2 0x1050 JUMPI RETURNDATASIZE SWAP1 PUSH8 0xFFFFFFFFFFFFFFFF DUP3 GT PUSH2 0xEA8 JUMPI PUSH1 0x40 MLOAD SWAP2 PUSH2 0x1045 PUSH1 0x1F DUP3 ADD PUSH1 0x1F NOT AND PUSH1 0x20 ADD DUP5 PUSH2 0xEBC JUMP JUMPDEST DUP3 MSTORE RETURNDATASIZE PUSH0 PUSH1 0x20 DUP5 ADD RETURNDATACOPY JUMP JUMPDEST PUSH1 0x60 SWAP1 JUMP JUMPDEST SWAP1 PUSH2 0x107C JUMPI POP DUP1 MLOAD ISZERO PUSH2 0x106A JUMPI DUP1 MLOAD SWAP1 PUSH1 0x20 ADD REVERT JUMPDEST PUSH1 0x40 MLOAD PUSH4 0xA12F521 PUSH1 0xE1 SHL DUP2 MSTORE PUSH1 0x4 SWAP1 REVERT JUMPDEST DUP2 MLOAD ISZERO DUP1 PUSH2 0x10AF JUMPI JUMPDEST PUSH2 0x108D JUMPI POP SWAP1 JUMP JUMPDEST PUSH1 0x40 MLOAD PUSH4 0x9996B315 PUSH1 0xE0 SHL DUP2 MSTORE PUSH1 0x1 PUSH1 0x1 PUSH1 0xA0 SHL SUB SWAP1 SWAP2 AND PUSH1 0x4 DUP3 ADD MSTORE PUSH1 0x24 SWAP1 REVERT JUMPDEST POP DUP1 EXTCODESIZE ISZERO PUSH2 0x1085 JUMP JUMPDEST SWAP2 SWAP1 DUP3 ADD DUP1 SWAP3 GT PUSH2 0x10C5 JUMPI JUMP JUMPDEST PUSH4 0x4E487B71 PUSH1 0xE0 SHL PUSH0 MSTORE PUSH1 0x11 PUSH1 0x4 MSTORE PUSH1 0x24 PUSH0 REVERT JUMPDEST SWAP2 SWAP1 DUP3 SUB SWAP2 DUP3 GT PUSH2 0x10C5 JUMPI JUMP JUMPDEST PUSH2 0x10F2 PUSH1 0xE SLOAD NUMBER PUSH2 0x10D9 JUMP JUMPDEST PUSH1 0x20 PUSH1 0x1 DUP1 PUSH1 0xA0 SHL SUB PUSH1 0xC SLOAD AND PUSH1 0x64 PUSH1 0x9 SLOAD PUSH1 0xA SLOAD SWAP3 PUSH1 0x40 MLOAD SWAP6 DUP7 SWAP5 DUP6 SWAP4 PUSH4 0x1786F63 PUSH1 0xE2 SHL DUP6 MSTORE PUSH1 0x4 DUP6 ADD MSTORE PUSH1 0x24 DUP5 ADD MSTORE PUSH1 0x44 DUP4 ADD MSTORE GAS STATICCALL SWAP1 DUP2 ISZERO PUSH2 0x116A JUMPI PUSH0 SWAP2 PUSH2 0x113C JUMPI POP SWAP1 JUMP JUMPDEST SWAP1 PUSH1 0x20 DUP3 RETURNDATASIZE DUP3 GT PUSH2 0x1162 JUMPI JUMPDEST DUP2 PUSH2 0x1155 PUSH1 0x20 SWAP4 DUP4 PUSH2 0xEBC JUMP JUMPDEST DUP2 ADD SUB SLT PUSH2 0x502 JUMPI POP MLOAD SWAP1 JUMP JUMPDEST RETURNDATASIZE SWAP2 POP PUSH2 0x1148 JUMP JUMPDEST PUSH1 0x40 MLOAD RETURNDATASIZE PUSH0 DUP3 RETURNDATACOPY RETURNDATASIZE SWAP1 REVERT INVALID LOG2 PUSH5 0x6970667358 0x22 SLT KECCAK256 0xE3 0x23 SLT LOG1 0x24 GAS DUP5 0xBB 0x25 PUSH28 0x3D61C9F7CB5BC218719965A3A37CDB5A26302B33DFE464736F6C6343 STOP ADDMOD EQ STOP CALLER PUSH1 0xE0 DUP1 PUSH1 0x40 MSTORE CALLVALUE PUSH3 0x3B0 JUMPI PUSH3 0x1D50 DUP1 CODESIZE SUB DUP1 SWAP2 PUSH3 0x20 DUP3 DUP6 PUSH3 0x3B4 JUMP JUMPDEST DUP4 CODECOPY DUP2 ADD PUSH1 0x80 DUP3 DUP3 SUB SLT PUSH3 0x3B0 JUMPI DUP2 MLOAD PUSH1 0x1 PUSH1 0x1 PUSH1 0xA0 SHL SUB SWAP3 DUP4 DUP3 AND DUP3 SUB PUSH3 0x3B0 JUMPI PUSH1 0x20 DUP2 DUP2 ADD MLOAD SWAP1 SWAP2 PUSH1 0x1 PUSH1 0x1 PUSH1 0x40 SHL SUB SWAP2 DUP3 DUP2 GT PUSH3 0x3B0 JUMPI DUP6 PUSH3 0x6B SWAP2 DUP4 ADD PUSH3 0x3F4 JUMP JUMPDEST SWAP5 PUSH1 0x40 DUP3 ADD MLOAD DUP4 DUP2 GT PUSH3 0x3B0 JUMPI PUSH1 0x60 SWAP2 PUSH3 0x89 SWAP2 DUP5 ADD PUSH3 0x3F4 JUMP JUMPDEST SWAP2 ADD MLOAD SWAP6 DUP7 AND DUP7 SUB PUSH3 0x3B0 JUMPI DUP5 MLOAD DUP3 DUP2 GT PUSH3 0x2BB JUMPI PUSH1 0x3 SWAP2 DUP3 SLOAD SWAP2 PUSH1 0x1 SWAP8 DUP9 DUP5 DUP2 SHR SWAP5 AND DUP1 ISZERO PUSH3 0x3A5 JUMPI JUMPDEST DUP8 DUP6 LT EQ PUSH3 0x391 JUMPI DUP2 SWAP1 PUSH1 0x1F SWAP5 DUP6 DUP2 GT PUSH3 0x33E JUMPI JUMPDEST POP DUP8 SWAP1 DUP6 DUP4 GT PUSH1 0x1 EQ PUSH3 0x2DB JUMPI PUSH0 SWAP3 PUSH3 0x2CF JUMPI JUMPDEST POP POP PUSH0 NOT DUP3 DUP7 SHL SHR NOT AND SWAP1 DUP9 SHL OR DUP4 SSTORE JUMPDEST DUP1 MLOAD SWAP4 DUP5 GT PUSH3 0x2BB JUMPI PUSH1 0x4 SWAP5 DUP6 SLOAD DUP9 DUP2 DUP2 SHR SWAP2 AND DUP1 ISZERO PUSH3 0x2B0 JUMPI JUMPDEST DUP3 DUP3 LT EQ PUSH3 0x29D JUMPI SWAP1 DUP2 DUP5 DUP8 SWAP7 SWAP6 SWAP5 SWAP4 GT PUSH3 0x244 JUMPI JUMPDEST POP DUP1 SWAP3 DUP6 GT PUSH1 0x1 EQ PUSH3 0x1DA JUMPI POP PUSH0 SWAP4 PUSH3 0x1CE JUMPI JUMPDEST POP POP DUP3 DUP7 SHL SWAP3 PUSH0 NOT SWAP2 SHL SHR NOT AND OR SWAP1 SSTORE JUMPDEST PUSH3 0x15C DUP2 PUSH3 0x45C JUMP JUMPDEST SWAP1 ISZERO PUSH3 0x1C5 JUMPI JUMPDEST PUSH1 0xA0 MSTORE PUSH1 0x80 MSTORE PUSH1 0x5 SSTORE PUSH1 0xC0 MSTORE PUSH1 0x40 MLOAD PUSH2 0x182E SWAP1 DUP2 PUSH3 0x522 DUP3 CODECOPY PUSH1 0x80 MLOAD DUP2 DUP2 DUP2 PUSH2 0xBC2 ADD MSTORE DUP2 DUP2 PUSH2 0x11DF ADD MSTORE DUP2 DUP2 PUSH2 0x1353 ADD MSTORE PUSH2 0x14E3 ADD MSTORE PUSH1 0xA0 MLOAD DUP2 PUSH2 0xC05 ADD MSTORE PUSH1 0xC0 MLOAD DUP2 DUP2 DUP2 PUSH2 0x256 ADD MSTORE DUP2 DUP2 PUSH2 0x7EC ADD MSTORE DUP2 DUP2 PUSH2 0x8A1 ADD MSTORE PUSH2 0xB7E ADD MSTORE RETURN JUMPDEST POP PUSH1 0x12 PUSH3 0x164 JUMP JUMPDEST ADD MLOAD SWAP2 POP PUSH0 DUP1 PUSH3 0x140 JUMP JUMPDEST SWAP3 SWAP2 SWAP1 DUP9 SWAP6 POP PUSH1 0x1F NOT DUP6 AND DUP8 PUSH0 MSTORE DUP5 PUSH0 KECCAK256 SWAP5 PUSH0 SWAP1 JUMPDEST DUP3 DUP3 LT PUSH3 0x22A JUMPI POP POP DUP6 GT PUSH3 0x210 JUMPI JUMPDEST POP POP POP POP DUP2 SHL ADD SWAP1 SSTORE PUSH3 0x151 JUMP JUMPDEST ADD MLOAD SWAP1 PUSH1 0xF8 DUP5 PUSH0 NOT SWAP3 SHL AND SHR NOT AND SWAP1 SSTORE PUSH0 DUP1 DUP1 DUP1 PUSH3 0x201 JUMP JUMPDEST DUP5 DUP5 ADD MLOAD DUP8 SSTORE DUP12 SWAP9 SWAP1 SWAP7 ADD SWAP6 SWAP4 DUP5 ADD SWAP4 SWAP1 DUP2 ADD SWAP1 PUSH3 0x1EF JUMP JUMPDEST SWAP1 SWAP2 SWAP3 SWAP4 SWAP5 POP DUP7 PUSH0 MSTORE DUP2 PUSH0 KECCAK256 DUP5 DUP1 DUP9 ADD PUSH1 0x5 SHR DUP3 ADD SWAP3 DUP5 DUP10 LT PUSH3 0x293 JUMPI JUMPDEST SWAP2 DUP12 SWAP2 DUP10 SWAP9 SWAP8 SWAP7 SWAP6 SWAP5 SWAP4 ADD PUSH1 0x5 SHR ADD SWAP2 JUMPDEST DUP3 DUP2 LT PUSH3 0x284 JUMPI POP POP PUSH3 0x12A JUMP JUMPDEST PUSH0 DUP2 SSTORE DUP9 SWAP8 POP DUP12 SWAP2 ADD PUSH3 0x274 JUMP JUMPDEST SWAP3 POP DUP2 SWAP3 PUSH3 0x263 JUMP JUMPDEST PUSH1 0x22 DUP8 PUSH4 0x4E487B71 PUSH1 0xE0 SHL PUSH0 MSTORE MSTORE PUSH1 0x24 PUSH0 REVERT JUMPDEST SWAP1 PUSH1 0x7F AND SWAP1 PUSH3 0x112 JUMP JUMPDEST PUSH4 0x4E487B71 PUSH1 0xE0 SHL PUSH0 MSTORE PUSH1 0x41 PUSH1 0x4 MSTORE PUSH1 0x24 PUSH0 REVERT JUMPDEST ADD MLOAD SWAP1 POP PUSH0 DUP1 PUSH3 0xE4 JUMP JUMPDEST SWAP1 DUP11 SWAP4 POP PUSH1 0x1F NOT DUP4 AND SWAP2 DUP8 PUSH0 MSTORE DUP10 PUSH0 KECCAK256 SWAP3 PUSH0 JUMPDEST DUP12 DUP3 DUP3 LT PUSH3 0x327 JUMPI POP POP DUP5 GT PUSH3 0x30F JUMPI JUMPDEST POP POP POP DUP2 SHL ADD DUP4 SSTORE PUSH3 0xF5 JUMP JUMPDEST ADD MLOAD PUSH0 NOT DUP4 DUP9 SHL PUSH1 0xF8 AND SHR NOT AND SWAP1 SSTORE PUSH0 DUP1 DUP1 PUSH3 0x301 JUMP JUMPDEST DUP4 DUP6 ADD MLOAD DUP7 SSTORE DUP15 SWAP8 SWAP1 SWAP6 ADD SWAP5 SWAP4 DUP5 ADD SWAP4 ADD PUSH3 0x2EE JUMP JUMPDEST SWAP1 SWAP2 POP DUP6 PUSH0 MSTORE DUP8 PUSH0 KECCAK256 DUP6 DUP1 DUP6 ADD PUSH1 0x5 SHR DUP3 ADD SWAP3 DUP11 DUP7 LT PUSH3 0x387 JUMPI JUMPDEST SWAP2 DUP13 SWAP2 DUP7 SWAP6 SWAP5 SWAP4 ADD PUSH1 0x5 SHR ADD SWAP2 JUMPDEST DUP3 DUP2 LT PUSH3 0x378 JUMPI POP POP PUSH3 0xCE JUMP JUMPDEST PUSH0 DUP2 SSTORE DUP6 SWAP5 POP DUP13 SWAP2 ADD PUSH3 0x368 JUMP JUMPDEST SWAP3 POP DUP2 SWAP3 PUSH3 0x35A JUMP JUMPDEST PUSH4 0x4E487B71 PUSH1 0xE0 SHL PUSH0 MSTORE PUSH1 0x22 PUSH1 0x4 MSTORE PUSH1 0x24 PUSH0 REVERT JUMPDEST SWAP4 PUSH1 0x7F AND SWAP4 PUSH3 0xB7 JUMP JUMPDEST PUSH0 DUP1 REVERT JUMPDEST PUSH1 0x1F SWAP1 SWAP2 ADD PUSH1 0x1F NOT AND DUP2 ADD SWAP1 PUSH1 0x1 PUSH1 0x1 PUSH1 0x40 SHL SUB DUP3 GT SWAP1 DUP3 LT OR PUSH3 0x2BB JUMPI PUSH1 0x40 MSTORE JUMP JUMPDEST PUSH1 0x1 PUSH1 0x1 PUSH1 0x40 SHL SUB DUP2 GT PUSH3 0x2BB JUMPI PUSH1 0x1F ADD PUSH1 0x1F NOT AND PUSH1 0x20 ADD SWAP1 JUMP JUMPDEST SWAP2 SWAP1 DUP1 PUSH1 0x1F DUP5 ADD SLT ISZERO PUSH3 0x3B0 JUMPI DUP3 MLOAD SWAP1 PUSH3 0x410 DUP3 PUSH3 0x3D8 JUMP JUMPDEST SWAP2 PUSH3 0x420 PUSH1 0x40 MLOAD SWAP4 DUP5 PUSH3 0x3B4 JUMP JUMPDEST DUP1 DUP4 MSTORE PUSH1 0x20 SWAP2 DUP3 DUP3 DUP8 ADD ADD GT PUSH3 0x3B0 JUMPI PUSH0 JUMPDEST DUP2 DUP2 LT PUSH3 0x448 JUMPI POP DUP3 PUSH0 SWAP4 SWAP5 SWAP6 POP ADD ADD MSTORE SWAP1 JUMP JUMPDEST DUP6 DUP2 ADD DUP4 ADD MLOAD DUP5 DUP3 ADD DUP5 ADD MSTORE DUP3 ADD PUSH3 0x433 JUMP JUMPDEST PUSH1 0x40 DUP1 MLOAD PUSH4 0x313CE567 PUSH1 0xE0 SHL PUSH1 0x20 DUP3 ADD SWAP1 DUP2 MSTORE PUSH1 0x4 DUP3 MSTORE SWAP3 SWAP4 SWAP3 SWAP2 DUP2 ADD PUSH1 0x1 PUSH1 0x1 PUSH1 0x40 SHL SUB DUP2 GT DUP3 DUP3 LT OR PUSH3 0x2BB JUMPI PUSH1 0x40 MSTORE MLOAD PUSH0 SWAP4 DUP5 SWAP3 DUP4 SWAP3 SWAP2 PUSH1 0x1 PUSH1 0x1 PUSH1 0xA0 SHL SUB AND GAS STATICCALL RETURNDATASIZE ISZERO PUSH3 0x518 JUMPI RETURNDATASIZE SWAP1 PUSH3 0x4B6 DUP3 PUSH3 0x3D8 JUMP JUMPDEST SWAP2 PUSH3 0x4C6 PUSH1 0x40 MLOAD SWAP4 DUP5 PUSH3 0x3B4 JUMP JUMPDEST DUP3 MSTORE RETURNDATASIZE DUP5 PUSH1 0x20 DUP5 ADD RETURNDATACOPY JUMPDEST DUP1 PUSH3 0x50B JUMPI JUMPDEST PUSH3 0x4E2 JUMPI JUMPDEST POP DUP2 SWAP1 JUMP JUMPDEST PUSH1 0x20 DUP2 DUP1 MLOAD DUP2 ADD SUB SLT PUSH3 0x507 JUMPI PUSH1 0x20 ADD MLOAD PUSH1 0xFF DUP2 GT PUSH3 0x4DD JUMPI PUSH1 0x1 SWAP3 POP PUSH1 0xFF AND SWAP1 JUMP JUMPDEST DUP3 DUP1 REVERT JUMPDEST POP PUSH1 0x20 DUP2 MLOAD LT ISZERO PUSH3 0x4D7 JUMP JUMPDEST PUSH1 0x60 SWAP1 PUSH3 0x4D0 JUMP INVALID PUSH1 0x80 PUSH1 0x40 MSTORE PUSH1 0x4 CALLDATASIZE LT ISZERO PUSH2 0x11 JUMPI PUSH0 DUP1 REVERT JUMPDEST PUSH0 CALLDATALOAD PUSH1 0xE0 SHR DUP1 PUSH4 0x1E1D114 EQ PUSH2 0xE2C JUMPI DUP1 PUSH4 0x6FDDE03 EQ PUSH2 0xD71 JUMPI DUP1 PUSH4 0x7A2D13A EQ PUSH2 0xB64 JUMPI DUP1 PUSH4 0x95EA7B3 EQ PUSH2 0xCBF JUMPI DUP1 PUSH4 0xA28A477 EQ PUSH2 0xCA1 JUMPI DUP1 PUSH4 0x18160DDD EQ PUSH2 0xC84 JUMPI DUP1 PUSH4 0x23B872DD EQ PUSH2 0xC4C JUMPI DUP1 PUSH4 0x313CE567 EQ PUSH2 0xBF1 JUMPI DUP1 PUSH4 0x38D52E0F EQ PUSH2 0xBAD JUMPI DUP1 PUSH4 0x402D267D EQ PUSH2 0x41A JUMPI DUP1 PUSH4 0x464582CB EQ PUSH2 0xB69 JUMPI DUP1 PUSH4 0x4CDAD506 EQ PUSH2 0xB64 JUMPI DUP1 PUSH4 0x6E553F65 EQ PUSH2 0xB3A JUMPI DUP1 PUSH4 0x70A08231 EQ PUSH2 0x3A3 JUMPI DUP1 PUSH4 0x7B17EDF2 EQ PUSH2 0x699 JUMPI DUP1 PUSH4 0x94BF804D EQ PUSH2 0x666 JUMPI DUP1 PUSH4 0x95D89B41 EQ PUSH2 0x566 JUMPI DUP1 PUSH4 0xA9059CBB EQ PUSH2 0x535 JUMPI DUP1 PUSH4 0xB3D7F6B9 EQ PUSH2 0x517 JUMPI DUP1 PUSH4 0xB460AF94 EQ PUSH2 0x497 JUMPI DUP1 PUSH4 0xBA087652 EQ PUSH2 0x41F JUMPI DUP1 PUSH4 0xC63D75B6 EQ PUSH2 0x41A JUMPI DUP1 PUSH4 0xC6E6F592 EQ PUSH2 0x14D JUMPI DUP1 PUSH4 0xCE96CB77 EQ PUSH2 0x3E3 JUMPI DUP1 PUSH4 0xD905777E EQ PUSH2 0x3A3 JUMPI DUP1 PUSH4 0xDD62ED3E EQ PUSH2 0x356 JUMPI DUP1 PUSH4 0xE6ADB29C EQ PUSH2 0x152 JUMPI PUSH4 0xEF8B30F7 EQ PUSH2 0x14D JUMPI PUSH0 DUP1 REVERT JUMPDEST PUSH2 0xFED JUMP JUMPDEST CALLVALUE PUSH2 0x352 JUMPI PUSH2 0x120 CALLDATASIZE PUSH1 0x3 NOT ADD SLT PUSH2 0x352 JUMPI CALLDATASIZE PUSH1 0x23 NOT ADD PUSH1 0x4 CALLDATALOAD PUSH1 0xC0 DUP3 SLT PUSH2 0x352 JUMPI PUSH1 0x80 PUSH1 0x40 MLOAD SWAP3 PUSH2 0x183 DUP5 PUSH2 0xF10 JUMP JUMPDEST SLT PUSH2 0x352 JUMPI PUSH1 0x40 MLOAD SWAP2 PUSH2 0x195 DUP4 PUSH2 0xF52 JUMP JUMPDEST PUSH1 0x1 PUSH1 0x1 PUSH1 0xA0 SHL SUB SWAP3 PUSH1 0x24 CALLDATALOAD DUP5 DUP2 AND DUP2 SUB PUSH2 0x352 JUMPI DUP2 MSTORE PUSH1 0x44 CALLDATALOAD DUP5 DUP2 AND DUP2 SUB PUSH2 0x352 JUMPI PUSH1 0x20 DUP3 ADD MSTORE PUSH6 0xFFFFFFFFFFFF PUSH1 0x64 CALLDATALOAD DUP2 DUP2 AND DUP2 SUB PUSH2 0x352 JUMPI PUSH1 0x40 DUP4 ADD MSTORE PUSH1 0x84 CALLDATALOAD SWAP1 DUP2 AND DUP2 SUB PUSH2 0x352 JUMPI PUSH1 0x60 DUP3 ADD MSTORE DUP2 MSTORE PUSH1 0xA4 CALLDATALOAD DUP4 DUP2 AND DUP2 SUB PUSH2 0x352 JUMPI PUSH1 0x20 DUP3 ADD SWAP1 DUP2 MSTORE PUSH1 0x40 DUP3 ADD SWAP1 PUSH1 0xC4 CALLDATALOAD DUP3 MSTORE PUSH1 0xE4 CALLDATALOAD SWAP2 PUSH1 0x1 PUSH1 0x1 PUSH1 0x40 SHL SUB DUP1 DUP5 GT PUSH2 0x352 JUMPI CALLDATASIZE PUSH1 0x23 DUP6 ADD SLT ISZERO PUSH2 0x352 JUMPI DUP4 PUSH1 0x4 ADD CALLDATALOAD SWAP1 DUP2 GT PUSH2 0x352 JUMPI CALLDATASIZE PUSH1 0x24 DUP3 DUP7 ADD ADD GT PUSH2 0x352 JUMPI PUSH2 0x104 SWAP2 DUP3 CALLDATALOAD SWAP6 DUP9 DUP8 AND DUP8 SUB PUSH2 0x352 JUMPI PUSH2 0x253 PUSH2 0x1780 JUMP JUMPDEST DUP9 PUSH32 0x0 AND SWAP4 DUP5 EXTCODESIZE ISZERO PUSH2 0x352 JUMPI PUSH0 SWAP7 PUSH2 0x2E3 SWAP5 PUSH1 0x24 PUSH2 0x301 SWAP4 DUP11 SWAP7 PUSH1 0x40 MLOAD SWAP15 DUP16 SWAP12 DUP13 SWAP11 DUP12 SWAP10 PUSH4 0x2B67B57 PUSH1 0xE4 SHL DUP12 MSTORE CALLER PUSH1 0x4 DUP13 ADD MSTORE DUP7 DUP12 ADD SWAP1 MLOAD PUSH1 0x60 SWAP1 PUSH1 0x1 DUP1 PUSH1 0xA0 SHL SUB DUP1 DUP3 MLOAD AND DUP5 MSTORE PUSH1 0x20 DUP3 ADD MLOAD AND PUSH1 0x20 DUP5 ADD MSTORE DUP2 PUSH6 0xFFFFFFFFFFFF SWAP2 DUP3 PUSH1 0x40 DUP3 ADD MLOAD AND PUSH1 0x40 DUP7 ADD MSTORE ADD MLOAD AND SWAP2 ADD MSTORE JUMP JUMPDEST MLOAD AND PUSH1 0xA4 DUP9 ADD MSTORE MLOAD PUSH1 0xC4 DUP8 ADD MSTORE PUSH2 0x100 PUSH1 0xE4 DUP8 ADD MSTORE DUP6 ADD SWAP3 ADD PUSH2 0x1760 JUMP JUMPDEST SUB SWAP3 GAS CALL SWAP1 DUP2 ISZERO PUSH2 0x347 JUMPI PUSH1 0x20 SWAP4 PUSH2 0x32B SWAP3 PUSH2 0x338 JUMPI JUMPDEST POP PUSH2 0x322 DUP4 PUSH2 0x1279 JUMP JUMPDEST SWAP3 DUP4 SWAP2 CALLER PUSH2 0x12FA JUMP JUMPDEST PUSH1 0x1 PUSH1 0x5 SSTORE PUSH1 0x40 MLOAD SWAP1 DUP2 MSTORE RETURN JUMPDEST PUSH2 0x341 SWAP1 PUSH2 0xF3F JUMP JUMPDEST DUP5 PUSH2 0x318 JUMP JUMPDEST PUSH1 0x40 MLOAD RETURNDATASIZE PUSH0 DUP3 RETURNDATACOPY RETURNDATASIZE SWAP1 REVERT JUMPDEST PUSH0 DUP1 REVERT JUMPDEST CALLVALUE PUSH2 0x352 JUMPI PUSH1 0x40 CALLDATASIZE PUSH1 0x3 NOT ADD SLT PUSH2 0x352 JUMPI PUSH2 0x36F PUSH2 0xEAB JUMP JUMPDEST PUSH2 0x377 PUSH2 0xEC1 JUMP JUMPDEST SWAP1 PUSH1 0x1 DUP1 PUSH1 0xA0 SHL SUB DUP1 SWAP2 AND PUSH0 MSTORE PUSH1 0x1 PUSH1 0x20 MSTORE PUSH1 0x40 PUSH0 KECCAK256 SWAP2 AND PUSH0 MSTORE PUSH1 0x20 MSTORE PUSH1 0x20 PUSH1 0x40 PUSH0 KECCAK256 SLOAD PUSH1 0x40 MLOAD SWAP1 DUP2 MSTORE RETURN JUMPDEST CALLVALUE PUSH2 0x352 JUMPI PUSH1 0x20 CALLDATASIZE PUSH1 0x3 NOT ADD SLT PUSH2 0x352 JUMPI PUSH1 0x20 PUSH2 0x3DB PUSH2 0x3C1 PUSH2 0xEAB JUMP JUMPDEST PUSH1 0x1 PUSH1 0x1 PUSH1 0xA0 SHL SUB AND PUSH0 SWAP1 DUP2 MSTORE PUSH1 0x20 DUP2 SWAP1 MSTORE PUSH1 0x40 SWAP1 KECCAK256 SLOAD SWAP1 JUMP JUMPDEST PUSH1 0x40 MLOAD SWAP1 DUP2 MSTORE RETURN JUMPDEST CALLVALUE PUSH2 0x352 JUMPI PUSH1 0x20 CALLDATASIZE PUSH1 0x3 NOT ADD SLT PUSH2 0x352 JUMPI PUSH1 0x1 PUSH1 0x1 PUSH1 0xA0 SHL SUB PUSH2 0x404 PUSH2 0xEAB JUMP JUMPDEST AND PUSH0 MSTORE PUSH0 PUSH1 0x20 MSTORE PUSH1 0x20 PUSH2 0x3DB PUSH1 0x40 PUSH0 KECCAK256 SLOAD PUSH2 0x12CF JUMP JUMPDEST PUSH2 0xEEB JUMP JUMPDEST CALLVALUE PUSH2 0x352 JUMPI PUSH2 0x42D CALLDATASIZE PUSH2 0xFB8 JUMP JUMPDEST SWAP1 PUSH1 0x1 DUP1 PUSH1 0xA0 SHL SUB DUP3 AND PUSH0 MSTORE PUSH0 PUSH1 0x20 MSTORE PUSH1 0x40 PUSH0 KECCAK256 SLOAD DUP1 DUP5 GT PUSH2 0x463 JUMPI POP DUP3 PUSH2 0x3DB SWAP2 PUSH2 0x45A PUSH1 0x20 SWAP6 PUSH2 0x12CF JUMP JUMPDEST SWAP4 DUP5 SWAP2 CALLER PUSH2 0x1411 JUMP JUMPDEST PUSH1 0x40 MLOAD PUSH4 0x2E52AFBB PUSH1 0xE2 SHL DUP2 MSTORE PUSH1 0x1 PUSH1 0x1 PUSH1 0xA0 SHL SUB SWAP4 SWAP1 SWAP4 AND PUSH1 0x4 DUP5 ADD MSTORE PUSH1 0x24 DUP4 ADD SWAP4 SWAP1 SWAP4 MSTORE POP PUSH1 0x44 DUP2 ADD SWAP2 SWAP1 SWAP2 MSTORE PUSH1 0x64 SWAP1 REVERT JUMPDEST CALLVALUE PUSH2 0x352 JUMPI PUSH2 0x4A5 CALLDATASIZE PUSH2 0xFB8 JUMP JUMPDEST SWAP1 PUSH1 0x1 DUP1 PUSH1 0xA0 SHL SUB DUP3 AND PUSH0 MSTORE PUSH0 PUSH1 0x20 MSTORE PUSH2 0x4C2 PUSH1 0x40 PUSH0 KECCAK256 SLOAD PUSH2 0x12CF JUMP JUMPDEST DUP1 DUP5 GT PUSH2 0x4E3 JUMPI POP PUSH2 0x3DB SWAP1 DUP4 PUSH2 0x4DA PUSH1 0x20 SWAP6 PUSH2 0x124B JUMP JUMPDEST SWAP4 DUP5 SWAP3 CALLER PUSH2 0x1411 JUMP JUMPDEST PUSH1 0x40 MLOAD PUSH4 0x3FA733BB PUSH1 0xE2 SHL DUP2 MSTORE PUSH1 0x1 PUSH1 0x1 PUSH1 0xA0 SHL SUB SWAP4 SWAP1 SWAP4 AND PUSH1 0x4 DUP5 ADD MSTORE PUSH1 0x24 DUP4 ADD SWAP4 SWAP1 SWAP4 MSTORE POP PUSH1 0x44 DUP2 ADD SWAP2 SWAP1 SWAP2 MSTORE PUSH1 0x64 SWAP1 REVERT JUMPDEST CALLVALUE PUSH2 0x352 JUMPI PUSH1 0x20 CALLDATASIZE PUSH1 0x3 NOT ADD SLT PUSH2 0x352 JUMPI PUSH1 0x20 PUSH2 0x3DB PUSH1 0x4 CALLDATALOAD PUSH2 0x12A4 JUMP JUMPDEST CALLVALUE PUSH2 0x352 JUMPI PUSH1 0x40 CALLDATASIZE PUSH1 0x3 NOT ADD SLT PUSH2 0x352 JUMPI PUSH2 0x55B PUSH2 0x551 PUSH2 0xEAB JUMP JUMPDEST PUSH1 0x24 CALLDATALOAD SWAP1 CALLER PUSH2 0x100B JUMP JUMPDEST PUSH1 0x20 PUSH1 0x40 MLOAD PUSH1 0x1 DUP2 MSTORE RETURN JUMPDEST CALLVALUE PUSH2 0x352 JUMPI PUSH0 CALLDATASIZE PUSH1 0x3 NOT ADD SLT PUSH2 0x352 JUMPI PUSH1 0x40 MLOAD PUSH0 SWAP1 PUSH1 0x4 SLOAD PUSH1 0x1 DUP2 DUP2 SHR SWAP1 DUP1 DUP4 AND SWAP3 DUP4 ISZERO PUSH2 0x65C JUMPI JUMPDEST PUSH1 0x20 SWAP4 DUP5 DUP5 LT DUP2 EQ PUSH2 0x648 JUMPI DUP4 DUP7 MSTORE SWAP1 DUP2 ISZERO PUSH2 0x628 JUMPI POP PUSH1 0x1 EQ PUSH2 0x5CE JUMPI JUMPDEST PUSH2 0x5CA DUP5 PUSH2 0x5BE DUP2 DUP9 SUB DUP3 PUSH2 0xF6D JUMP JUMPDEST PUSH1 0x40 MLOAD SWAP2 DUP3 SWAP2 DUP3 PUSH2 0xE46 JUMP JUMPDEST SUB SWAP1 RETURN JUMPDEST PUSH1 0x4 PUSH0 SWAP1 DUP2 MSTORE SWAP3 SWAP5 POP PUSH32 0x8A35ACFBC15FF81A39AE7D344FD709F28E8600B4AA8C65C6B64BFE7FE36BD19B JUMPDEST DUP3 DUP5 LT PUSH2 0x615 JUMPI POP POP POP DUP2 PUSH2 0x5CA SWAP4 PUSH2 0x5BE SWAP3 DUP3 ADD ADD SWAP4 PUSH2 0x5AE JUMP JUMPDEST DUP1 SLOAD DUP6 DUP6 ADD DUP8 ADD MSTORE SWAP3 DUP6 ADD SWAP3 DUP2 ADD PUSH2 0x5F9 JUMP JUMPDEST PUSH1 0xFF NOT AND DUP6 DUP6 ADD MSTORE POP POP ISZERO ISZERO PUSH1 0x5 SHL DUP3 ADD ADD SWAP2 POP PUSH2 0x5BE DUP2 PUSH2 0x5CA PUSH2 0x5AE JUMP JUMPDEST PUSH4 0x4E487B71 PUSH1 0xE0 SHL PUSH0 MSTORE PUSH1 0x22 PUSH1 0x4 MSTORE PUSH1 0x24 PUSH0 REVERT JUMPDEST SWAP2 PUSH1 0x7F AND SWAP2 PUSH2 0x58F JUMP JUMPDEST CALLVALUE PUSH2 0x352 JUMPI PUSH1 0x40 CALLDATASIZE PUSH1 0x3 NOT ADD SLT PUSH2 0x352 JUMPI PUSH1 0x20 PUSH1 0x4 CALLDATALOAD PUSH2 0x3DB PUSH2 0x687 PUSH2 0xEC1 JUMP JUMPDEST SWAP2 PUSH2 0x691 DUP2 PUSH2 0x12A4 JUMP JUMPDEST DUP1 SWAP4 CALLER PUSH2 0x12FA JUMP JUMPDEST CALLVALUE PUSH2 0x352 JUMPI PUSH1 0x60 CALLDATASIZE PUSH1 0x3 NOT ADD SLT PUSH2 0x352 JUMPI PUSH1 0x1 PUSH1 0x1 PUSH1 0x40 SHL SUB PUSH1 0x4 CALLDATALOAD GT PUSH2 0x352 JUMPI CALLDATASIZE PUSH1 0x23 PUSH1 0x4 CALLDATALOAD ADD SLT ISZERO PUSH2 0x352 JUMPI PUSH1 0x4 CALLDATALOAD PUSH1 0x4 ADD CALLDATALOAD PUSH2 0x6D7 DUP2 PUSH2 0xF8E JUMP JUMPDEST SWAP1 PUSH2 0x6E5 PUSH1 0x40 MLOAD SWAP3 DUP4 PUSH2 0xF6D JUMP JUMPDEST DUP1 DUP3 MSTORE PUSH1 0x20 DUP3 ADD SWAP1 CALLDATASIZE PUSH1 0x24 DUP3 PUSH1 0x5 SHL PUSH1 0x4 CALLDATALOAD ADD ADD GT PUSH2 0x352 JUMPI PUSH1 0x24 PUSH1 0x4 CALLDATALOAD ADD SWAP2 JUMPDEST PUSH1 0x24 DUP3 PUSH1 0x5 SHL PUSH1 0x4 CALLDATALOAD ADD ADD DUP4 LT PUSH2 0x9D4 JUMPI DUP4 PUSH1 0x1 PUSH1 0x1 PUSH1 0x40 SHL SUB PUSH1 0x24 CALLDATALOAD GT PUSH2 0x352 JUMPI CALLDATASIZE PUSH1 0x23 PUSH1 0x24 CALLDATALOAD ADD SLT ISZERO PUSH2 0x352 JUMPI PUSH1 0x1 PUSH1 0x1 PUSH1 0x40 SHL SUB PUSH1 0x24 CALLDATALOAD PUSH1 0x4 ADD CALLDATALOAD GT PUSH2 0x352 JUMPI CALLDATASIZE PUSH1 0x24 DUP1 CALLDATALOAD PUSH1 0x4 ADD CALLDATALOAD PUSH1 0x5 SHL DUP2 CALLDATALOAD ADD ADD GT PUSH2 0x352 JUMPI PUSH1 0x44 CALLDATALOAD PUSH1 0x1 PUSH1 0x1 PUSH1 0xA0 SHL SUB DUP2 AND SWAP1 SUB PUSH2 0x352 JUMPI PUSH2 0x779 PUSH2 0x1780 JUMP JUMPDEST PUSH0 SWAP1 DUP2 JUMPDEST DUP2 MLOAD DUP4 LT ISZERO PUSH2 0x9BA JUMPI PUSH2 0x790 DUP4 DUP4 PUSH2 0x17E4 JUMP JUMPDEST MLOAD PUSH1 0x24 CALLDATALOAD PUSH1 0x4 ADD CALLDATALOAD DUP5 LT ISZERO PUSH2 0x9A6 JUMPI PUSH1 0x42 NOT PUSH1 0x24 CALLDATALOAD CALLDATASIZE SUB ADD PUSH1 0x24 DUP6 PUSH1 0x5 SHL DUP2 CALLDATALOAD ADD ADD CALLDATALOAD SLT ISZERO PUSH2 0x352 JUMPI PUSH1 0x24 DUP5 PUSH1 0x5 SHL DUP2 CALLDATALOAD ADD ADD CALLDATALOAD PUSH1 0x24 CALLDATALOAD ADD PUSH1 0x1 PUSH1 0x1 PUSH1 0x40 SHL SUB PUSH1 0x24 DUP3 ADD CALLDATALOAD GT PUSH2 0x352 JUMPI PUSH1 0x24 DUP2 ADD CALLDATALOAD CALLDATASIZE SUB PUSH1 0x44 DUP3 ADD SGT PUSH2 0x352 JUMPI PUSH32 0x0 PUSH1 0x1 PUSH1 0x1 PUSH1 0xA0 SHL SUB AND EXTCODESIZE ISZERO PUSH2 0x352 JUMPI PUSH1 0x40 MLOAD DUP1 SWAP3 PUSH4 0x2A2D80D1 PUSH1 0xE0 SHL DUP3 MSTORE CALLER PUSH1 0x4 DUP4 ADD MSTORE PUSH1 0x60 PUSH1 0x24 DUP4 ADD MSTORE PUSH1 0xC4 DUP3 ADD SWAP1 DUP1 MLOAD SWAP2 PUSH1 0x60 PUSH1 0x64 DUP6 ADD MSTORE DUP3 MLOAD DUP1 SWAP2 MSTORE PUSH1 0x20 PUSH1 0xE4 DUP6 ADD SWAP4 ADD SWAP1 PUSH0 JUMPDEST DUP2 DUP2 LT PUSH2 0x94B JUMPI POP POP POP DUP3 SWAP2 PUSH0 SWAP5 PUSH1 0x40 PUSH2 0x89C SWAP4 PUSH1 0x1 DUP1 PUSH1 0xA0 SHL SUB PUSH1 0x20 DUP3 ADD MLOAD AND PUSH1 0x84 DUP8 ADD MSTORE ADD MLOAD PUSH1 0xA4 DUP6 ADD MSTORE PUSH1 0x3 NOT DUP5 DUP4 SUB ADD PUSH1 0x44 DUP6 ADD MSTORE PUSH1 0x44 PUSH1 0x24 DUP3 ADD CALLDATALOAD SWAP2 ADD PUSH2 0x1760 JUMP JUMPDEST SUB DUP2 DUP4 PUSH32 0x0 PUSH1 0x1 PUSH1 0x1 PUSH1 0xA0 SHL SUB AND GAS CALL DUP1 ISZERO PUSH2 0x347 JUMPI PUSH2 0x93C JUMPI JUMPDEST POP PUSH0 SWAP1 JUMPDEST PUSH2 0x8E4 DUP5 DUP5 PUSH2 0x17E4 JUMP JUMPDEST MLOAD MLOAD MLOAD DUP3 LT ISZERO PUSH2 0x92B JUMPI PUSH2 0x925 SWAP1 PUSH2 0x91F SWAP1 PUSH1 0x1 PUSH1 0x1 PUSH1 0xA0 SHL SUB PUSH1 0x20 PUSH2 0x915 DUP7 PUSH2 0x90E DUP11 DUP11 PUSH2 0x17E4 JUMP JUMPDEST MLOAD MLOAD PUSH2 0x17E4 JUMP JUMPDEST MLOAD ADD MLOAD AND SWAP1 PUSH2 0x10E6 JUMP JUMPDEST SWAP2 PUSH2 0x17D6 JUMP JUMPDEST SWAP1 PUSH2 0x8DA JUMP JUMPDEST SWAP3 PUSH2 0x936 SWAP2 POP PUSH2 0x17D6 JUMP JUMPDEST SWAP2 PUSH2 0x77D JUMP JUMPDEST PUSH2 0x945 SWAP1 PUSH2 0xF3F JUMP JUMPDEST DUP4 PUSH2 0x8D6 JUMP JUMPDEST SWAP2 SWAP6 SWAP5 POP SWAP2 SWAP3 PUSH1 0x20 PUSH1 0x80 DUP3 PUSH2 0x996 PUSH1 0x1 SWAP5 DUP11 MLOAD PUSH1 0x60 SWAP1 PUSH1 0x1 DUP1 PUSH1 0xA0 SHL SUB DUP1 DUP3 MLOAD AND DUP5 MSTORE PUSH1 0x20 DUP3 ADD MLOAD AND PUSH1 0x20 DUP5 ADD MSTORE DUP2 PUSH6 0xFFFFFFFFFFFF SWAP2 DUP3 PUSH1 0x40 DUP3 ADD MLOAD AND PUSH1 0x40 DUP7 ADD MSTORE ADD MLOAD AND SWAP2 ADD MSTORE JUMP JUMPDEST ADD SWAP7 ADD SWAP2 ADD SWAP2 DUP7 SWAP5 SWAP6 SWAP4 SWAP3 PUSH2 0x855 JUMP JUMPDEST PUSH4 0x4E487B71 PUSH1 0xE0 SHL PUSH0 MSTORE PUSH1 0x32 PUSH1 0x4 MSTORE PUSH1 0x24 PUSH0 REVERT JUMPDEST PUSH1 0x20 SWAP1 PUSH2 0x32B PUSH2 0x9C9 DUP3 PUSH2 0x1279 JUMP JUMPDEST DUP1 SWAP3 PUSH1 0x44 CALLDATALOAD CALLER PUSH2 0x12FA JUMP JUMPDEST DUP3 CALLDATALOAD PUSH1 0x1 PUSH1 0x1 PUSH1 0x40 SHL SUB DUP2 GT PUSH2 0x352 JUMPI PUSH1 0x60 PUSH1 0x4 CALLDATALOAD DUP3 ADD CALLDATASIZE SUB PUSH1 0x23 NOT ADD SLT PUSH2 0x352 JUMPI PUSH1 0x40 MLOAD SWAP1 PUSH2 0xA03 DUP3 PUSH2 0xF10 JUMP JUMPDEST PUSH1 0x24 DUP2 PUSH1 0x4 CALLDATALOAD ADD ADD CALLDATALOAD PUSH1 0x1 PUSH1 0x1 PUSH1 0x40 SHL SUB DUP2 GT PUSH2 0x352 JUMPI CALLDATASIZE PUSH1 0x43 DUP3 DUP5 PUSH1 0x4 CALLDATALOAD ADD ADD ADD SLT ISZERO PUSH2 0x352 JUMPI PUSH1 0x24 DUP2 DUP4 PUSH1 0x4 CALLDATALOAD ADD ADD ADD CALLDATALOAD SWAP1 PUSH2 0xA40 DUP3 PUSH2 0xF8E JUMP JUMPDEST SWAP2 PUSH2 0xA4E PUSH1 0x40 MLOAD SWAP4 DUP5 PUSH2 0xF6D JUMP JUMPDEST DUP1 DUP4 MSTORE PUSH1 0x20 DUP4 ADD CALLDATASIZE PUSH1 0x44 DUP4 PUSH1 0x7 SHL DUP6 DUP9 PUSH1 0x4 CALLDATALOAD ADD ADD ADD ADD GT PUSH2 0x352 JUMPI PUSH1 0x44 DUP4 DUP7 PUSH1 0x4 CALLDATALOAD ADD ADD ADD SWAP1 JUMPDEST PUSH1 0x44 DUP4 PUSH1 0x7 SHL DUP6 DUP9 PUSH1 0x4 CALLDATALOAD ADD ADD ADD ADD DUP3 LT PUSH2 0xAC9 JUMPI POP POP POP POP SWAP3 DUP3 PUSH1 0x64 PUSH1 0x20 SWAP5 SWAP4 PUSH1 0x24 SWAP7 DUP7 SWAP6 MSTORE PUSH2 0xAAD PUSH1 0x44 DUP3 PUSH1 0x4 CALLDATALOAD ADD ADD PUSH2 0xED7 JUMP JUMPDEST DUP6 DUP5 ADD MSTORE PUSH1 0x4 CALLDATALOAD ADD ADD CALLDATALOAD PUSH1 0x40 DUP3 ADD MSTORE DUP2 MSTORE ADD SWAP4 ADD SWAP3 SWAP1 POP PUSH2 0x706 JUMP JUMPDEST PUSH1 0x80 DUP3 CALLDATASIZE SUB SLT PUSH2 0x352 JUMPI PUSH1 0x40 MLOAD PUSH2 0xADF DUP2 PUSH2 0xF52 JUMP JUMPDEST PUSH2 0xAE8 DUP4 PUSH2 0xED7 JUMP JUMPDEST DUP2 MSTORE PUSH1 0x20 DUP4 ADD CALLDATALOAD PUSH1 0x1 PUSH1 0x1 PUSH1 0xA0 SHL SUB DUP2 AND SWAP1 SUB PUSH2 0x352 JUMPI PUSH1 0x80 SWAP2 PUSH1 0x20 SWAP2 DUP3 DUP6 ADD CALLDATALOAD DUP4 DUP3 ADD MSTORE PUSH2 0xB19 PUSH1 0x40 DUP7 ADD PUSH2 0xFA5 JUMP JUMPDEST PUSH1 0x40 DUP3 ADD MSTORE PUSH2 0xB2A PUSH1 0x60 DUP7 ADD PUSH2 0xFA5 JUMP JUMPDEST PUSH1 0x60 DUP3 ADD MSTORE DUP2 MSTORE ADD SWAP2 ADD SWAP1 PUSH2 0xA76 JUMP JUMPDEST CALLVALUE PUSH2 0x352 JUMPI PUSH1 0x40 CALLDATASIZE PUSH1 0x3 NOT ADD SLT PUSH2 0x352 JUMPI PUSH1 0x20 PUSH1 0x4 CALLDATALOAD PUSH2 0x3DB PUSH2 0xB5B PUSH2 0xEC1 JUMP JUMPDEST PUSH2 0x322 DUP4 PUSH2 0x1279 JUMP JUMPDEST PUSH2 0xE8D JUMP JUMPDEST CALLVALUE PUSH2 0x352 JUMPI PUSH0 CALLDATASIZE PUSH1 0x3 NOT ADD SLT PUSH2 0x352 JUMPI PUSH1 0x40 MLOAD PUSH32 0x0 PUSH1 0x1 PUSH1 0x1 PUSH1 0xA0 SHL SUB AND DUP2 MSTORE PUSH1 0x20 SWAP1 RETURN JUMPDEST CALLVALUE PUSH2 0x352 JUMPI PUSH0 CALLDATASIZE PUSH1 0x3 NOT ADD SLT PUSH2 0x352 JUMPI PUSH1 0x40 MLOAD PUSH32 0x0 PUSH1 0x1 PUSH1 0x1 PUSH1 0xA0 SHL SUB AND DUP2 MSTORE PUSH1 0x20 SWAP1 RETURN JUMPDEST CALLVALUE PUSH2 0x352 JUMPI PUSH0 CALLDATASIZE PUSH1 0x3 NOT ADD SLT PUSH2 0x352 JUMPI PUSH1 0xFF PUSH32 0x0 AND PUSH1 0xFF DUP2 GT PUSH2 0xC38 JUMPI PUSH1 0x20 SWAP1 PUSH1 0x40 MLOAD SWAP1 DUP2 MSTORE RETURN JUMPDEST PUSH4 0x4E487B71 PUSH1 0xE0 SHL PUSH0 MSTORE PUSH1 0x11 PUSH1 0x4 MSTORE PUSH1 0x24 PUSH0 REVERT JUMPDEST CALLVALUE PUSH2 0x352 JUMPI PUSH1 0x60 CALLDATASIZE PUSH1 0x3 NOT ADD SLT PUSH2 0x352 JUMPI PUSH2 0x55B PUSH2 0xC68 PUSH2 0xEAB JUMP JUMPDEST PUSH2 0xC70 PUSH2 0xEC1 JUMP JUMPDEST PUSH1 0x44 CALLDATALOAD SWAP2 PUSH2 0xC7F DUP4 CALLER DUP4 PUSH2 0x10F3 JUMP JUMPDEST PUSH2 0x100B JUMP JUMPDEST CALLVALUE PUSH2 0x352 JUMPI PUSH0 CALLDATASIZE PUSH1 0x3 NOT ADD SLT PUSH2 0x352 JUMPI PUSH1 0x20 PUSH1 0x2 SLOAD PUSH1 0x40 MLOAD SWAP1 DUP2 MSTORE RETURN JUMPDEST CALLVALUE PUSH2 0x352 JUMPI PUSH1 0x20 CALLDATASIZE PUSH1 0x3 NOT ADD SLT PUSH2 0x352 JUMPI PUSH1 0x20 PUSH2 0x3DB PUSH1 0x4 CALLDATALOAD PUSH2 0x124B JUMP JUMPDEST CALLVALUE PUSH2 0x352 JUMPI PUSH1 0x40 CALLDATASIZE PUSH1 0x3 NOT ADD SLT PUSH2 0x352 JUMPI PUSH2 0xCD8 PUSH2 0xEAB JUMP JUMPDEST PUSH1 0x24 CALLDATALOAD SWAP1 CALLER ISZERO PUSH2 0xD59 JUMPI PUSH1 0x1 PUSH1 0x1 PUSH1 0xA0 SHL SUB AND SWAP1 DUP2 ISZERO PUSH2 0xD41 JUMPI CALLER PUSH0 MSTORE PUSH1 0x1 PUSH1 0x20 MSTORE PUSH1 0x40 PUSH0 KECCAK256 DUP3 PUSH0 MSTORE PUSH1 0x20 MSTORE DUP1 PUSH1 0x40 PUSH0 KECCAK256 SSTORE PUSH1 0x40 MLOAD SWAP1 DUP2 MSTORE PUSH32 0x8C5BE1E5EBEC7D5BD14F71427D1E84F3DD0314C0F7B2291E5B200AC8C7C3B925 PUSH1 0x20 CALLER SWAP3 LOG3 PUSH1 0x20 PUSH1 0x40 MLOAD PUSH1 0x1 DUP2 MSTORE RETURN JUMPDEST PUSH1 0x40 MLOAD PUSH4 0x4A1406B1 PUSH1 0xE1 SHL DUP2 MSTORE PUSH0 PUSH1 0x4 DUP3 ADD MSTORE PUSH1 0x24 SWAP1 REVERT JUMPDEST PUSH1 0x40 MLOAD PUSH4 0xE602DF05 PUSH1 0xE0 SHL DUP2 MSTORE PUSH0 PUSH1 0x4 DUP3 ADD MSTORE PUSH1 0x24 SWAP1 REVERT JUMPDEST CALLVALUE PUSH2 0x352 JUMPI PUSH0 CALLDATASIZE PUSH1 0x3 NOT ADD SLT PUSH2 0x352 JUMPI PUSH1 0x40 MLOAD PUSH0 SWAP1 PUSH1 0x3 SLOAD PUSH1 0x1 DUP2 DUP2 SHR SWAP1 DUP1 DUP4 AND SWAP3 DUP4 ISZERO PUSH2 0xE22 JUMPI JUMPDEST PUSH1 0x20 SWAP4 DUP5 DUP5 LT DUP2 EQ PUSH2 0x648 JUMPI DUP4 DUP7 MSTORE SWAP1 DUP2 ISZERO PUSH2 0x628 JUMPI POP PUSH1 0x1 EQ PUSH2 0xDC8 JUMPI PUSH2 0x5CA DUP5 PUSH2 0x5BE DUP2 DUP9 SUB DUP3 PUSH2 0xF6D JUMP JUMPDEST PUSH1 0x3 PUSH0 SWAP1 DUP2 MSTORE SWAP3 SWAP5 POP PUSH32 0xC2575A0E9E593C00F959F8C92F12DB2869C3395A3B0502D05E2516446F71F85B JUMPDEST DUP3 DUP5 LT PUSH2 0xE0F JUMPI POP POP POP DUP2 PUSH2 0x5CA SWAP4 PUSH2 0x5BE SWAP3 DUP3 ADD ADD SWAP4 PUSH2 0x5AE JUMP JUMPDEST DUP1 SLOAD DUP6 DUP6 ADD DUP8 ADD MSTORE SWAP3 DUP6 ADD SWAP3 DUP2 ADD PUSH2 0xDF3 JUMP JUMPDEST SWAP2 PUSH1 0x7F AND SWAP2 PUSH2 0xD9A JUMP JUMPDEST CALLVALUE PUSH2 0x352 JUMPI PUSH0 CALLDATASIZE PUSH1 0x3 NOT ADD SLT PUSH2 0x352 JUMPI PUSH1 0x20 PUSH2 0x3DB PUSH2 0x11C4 JUMP JUMPDEST PUSH1 0x20 DUP1 DUP3 MSTORE DUP3 MLOAD DUP2 DUP4 ADD DUP2 SWAP1 MSTORE SWAP1 SWAP4 SWAP3 PUSH0 JUMPDEST DUP3 DUP2 LT PUSH2 0xE79 JUMPI POP POP PUSH1 0x40 SWAP3 SWAP4 POP PUSH0 DUP4 DUP3 DUP5 ADD ADD MSTORE PUSH1 0x1F DUP1 NOT SWAP2 ADD AND ADD ADD SWAP1 JUMP JUMPDEST DUP2 DUP2 ADD DUP7 ADD MLOAD DUP5 DUP3 ADD PUSH1 0x40 ADD MSTORE DUP6 ADD PUSH2 0xE58 JUMP JUMPDEST CALLVALUE PUSH2 0x352 JUMPI PUSH1 0x20 CALLDATASIZE PUSH1 0x3 NOT ADD SLT PUSH2 0x352 JUMPI PUSH1 0x20 PUSH2 0x3DB PUSH1 0x4 CALLDATALOAD PUSH2 0x12CF JUMP JUMPDEST PUSH1 0x4 CALLDATALOAD SWAP1 PUSH1 0x1 PUSH1 0x1 PUSH1 0xA0 SHL SUB DUP3 AND DUP3 SUB PUSH2 0x352 JUMPI JUMP JUMPDEST PUSH1 0x24 CALLDATALOAD SWAP1 PUSH1 0x1 PUSH1 0x1 PUSH1 0xA0 SHL SUB DUP3 AND DUP3 SUB PUSH2 0x352 JUMPI JUMP JUMPDEST CALLDATALOAD SWAP1 PUSH1 0x1 PUSH1 0x1 PUSH1 0xA0 SHL SUB DUP3 AND DUP3 SUB PUSH2 0x352 JUMPI JUMP JUMPDEST CALLVALUE PUSH2 0x352 JUMPI PUSH1 0x20 CALLDATASIZE PUSH1 0x3 NOT ADD SLT PUSH2 0x352 JUMPI PUSH2 0xF04 PUSH2 0xEAB JUMP JUMPDEST POP PUSH1 0x20 PUSH1 0x40 MLOAD PUSH0 NOT DUP2 MSTORE RETURN JUMPDEST PUSH1 0x60 DUP2 ADD SWAP1 DUP2 LT PUSH1 0x1 PUSH1 0x1 PUSH1 0x40 SHL SUB DUP3 GT OR PUSH2 0xF2B JUMPI PUSH1 0x40 MSTORE JUMP JUMPDEST PUSH4 0x4E487B71 PUSH1 0xE0 SHL PUSH0 MSTORE PUSH1 0x41 PUSH1 0x4 MSTORE PUSH1 0x24 PUSH0 REVERT JUMPDEST PUSH1 0x1 PUSH1 0x1 PUSH1 0x40 SHL SUB DUP2 GT PUSH2 0xF2B JUMPI PUSH1 0x40 MSTORE JUMP JUMPDEST PUSH1 0x80 DUP2 ADD SWAP1 DUP2 LT PUSH1 0x1 PUSH1 0x1 PUSH1 0x40 SHL SUB DUP3 GT OR PUSH2 0xF2B JUMPI PUSH1 0x40 MSTORE JUMP JUMPDEST SWAP1 PUSH1 0x1F DUP1 NOT SWAP2 ADD AND DUP2 ADD SWAP1 DUP2 LT PUSH1 0x1 PUSH1 0x1 PUSH1 0x40 SHL SUB DUP3 GT OR PUSH2 0xF2B JUMPI PUSH1 0x40 MSTORE JUMP JUMPDEST PUSH1 0x1 PUSH1 0x1 PUSH1 0x40 SHL SUB DUP2 GT PUSH2 0xF2B JUMPI PUSH1 0x5 SHL PUSH1 0x20 ADD SWAP1 JUMP JUMPDEST CALLDATALOAD SWAP1 PUSH6 0xFFFFFFFFFFFF DUP3 AND DUP3 SUB PUSH2 0x352 JUMPI JUMP JUMPDEST PUSH1 0x60 SWAP1 PUSH1 0x3 NOT ADD SLT PUSH2 0x352 JUMPI PUSH1 0x4 CALLDATALOAD SWAP1 PUSH1 0x1 PUSH1 0x1 PUSH1 0xA0 SHL SUB SWAP1 PUSH1 0x24 CALLDATALOAD DUP3 DUP2 AND DUP2 SUB PUSH2 0x352 JUMPI SWAP2 PUSH1 0x44 CALLDATALOAD SWAP1 DUP2 AND DUP2 SUB PUSH2 0x352 JUMPI SWAP1 JUMP JUMPDEST CALLVALUE PUSH2 0x352 JUMPI PUSH1 0x20 CALLDATASIZE PUSH1 0x3 NOT ADD SLT PUSH2 0x352 JUMPI PUSH1 0x20 PUSH2 0x3DB PUSH1 0x4 CALLDATALOAD PUSH2 0x1279 JUMP JUMPDEST SWAP2 PUSH1 0x1 PUSH1 0x1 PUSH1 0xA0 SHL SUB DUP1 DUP5 AND SWAP3 DUP4 ISZERO PUSH2 0x10CE JUMPI AND SWAP3 DUP4 ISZERO PUSH2 0x10B6 JUMPI PUSH0 SWAP1 DUP4 DUP3 MSTORE DUP2 PUSH1 0x20 MSTORE PUSH1 0x40 DUP3 KECCAK256 SLOAD SWAP1 DUP4 DUP3 LT PUSH2 0x1084 JUMPI POP SWAP2 PUSH1 0x40 DUP3 DUP3 PUSH32 0xDDF252AD1BE2C89B69C2B068FC378DAA952BA7F163C4A11628F55A4DF523B3EF SWAP6 DUP8 PUSH1 0x20 SWAP7 MSTORE DUP3 DUP7 MSTORE SUB DUP3 DUP3 KECCAK256 SSTORE DUP7 DUP2 MSTORE KECCAK256 DUP2 DUP2 SLOAD ADD SWAP1 SSTORE PUSH1 0x40 MLOAD SWAP1 DUP2 MSTORE LOG3 JUMP JUMPDEST PUSH1 0x40 MLOAD PUSH4 0x391434E3 PUSH1 0xE2 SHL DUP2 MSTORE PUSH1 0x1 PUSH1 0x1 PUSH1 0xA0 SHL SUB SWAP2 SWAP1 SWAP2 AND PUSH1 0x4 DUP3 ADD MSTORE PUSH1 0x24 DUP2 ADD SWAP2 SWAP1 SWAP2 MSTORE PUSH1 0x44 DUP2 ADD DUP4 SWAP1 MSTORE PUSH1 0x64 SWAP1 REVERT JUMPDEST PUSH1 0x40 MLOAD PUSH4 0xEC442F05 PUSH1 0xE0 SHL DUP2 MSTORE PUSH0 PUSH1 0x4 DUP3 ADD MSTORE PUSH1 0x24 SWAP1 REVERT JUMPDEST PUSH1 0x40 MLOAD PUSH4 0x4B637E8F PUSH1 0xE1 SHL DUP2 MSTORE PUSH0 PUSH1 0x4 DUP3 ADD MSTORE PUSH1 0x24 SWAP1 REVERT JUMPDEST SWAP2 SWAP1 DUP3 ADD DUP1 SWAP3 GT PUSH2 0xC38 JUMPI JUMP JUMPDEST SWAP2 PUSH1 0x1 DUP1 PUSH1 0xA0 SHL SUB DUP1 SWAP4 AND SWAP2 PUSH0 SWAP4 DUP4 DUP6 MSTORE PUSH1 0x1 PUSH1 0x20 MSTORE PUSH1 0x40 SWAP4 DUP5 DUP7 KECCAK256 SWAP2 DUP4 AND SWAP2 DUP3 DUP8 MSTORE PUSH1 0x20 MSTORE DUP5 DUP7 KECCAK256 SLOAD SWAP3 PUSH0 NOT DUP5 SUB PUSH2 0x1130 JUMPI JUMPDEST POP POP POP POP POP POP POP JUMP JUMPDEST DUP5 DUP5 LT PUSH2 0x1194 JUMPI POP DUP1 ISZERO PUSH2 0x117C JUMPI DUP2 ISZERO PUSH2 0x1164 JUMPI DUP6 MSTORE PUSH1 0x1 PUSH1 0x20 MSTORE DUP4 DUP6 KECCAK256 SWAP1 DUP6 MSTORE PUSH1 0x20 MSTORE SUB SWAP2 KECCAK256 SSTORE PUSH0 DUP1 DUP1 DUP1 DUP1 DUP1 DUP1 PUSH2 0x1127 JUMP JUMPDEST DUP5 MLOAD PUSH4 0x4A1406B1 PUSH1 0xE1 SHL DUP2 MSTORE PUSH1 0x4 DUP2 ADD DUP8 SWAP1 MSTORE PUSH1 0x24 SWAP1 REVERT JUMPDEST DUP5 MLOAD PUSH4 0xE602DF05 PUSH1 0xE0 SHL DUP2 MSTORE PUSH1 0x4 DUP2 ADD DUP8 SWAP1 MSTORE PUSH1 0x24 SWAP1 REVERT JUMPDEST DUP6 MLOAD PUSH4 0x7DC7A0D9 PUSH1 0xE1 SHL DUP2 MSTORE PUSH1 0x1 PUSH1 0x1 PUSH1 0xA0 SHL SUB SWAP2 SWAP1 SWAP2 AND PUSH1 0x4 DUP3 ADD MSTORE PUSH1 0x24 DUP2 ADD DUP5 SWAP1 MSTORE PUSH1 0x44 DUP2 ADD DUP6 SWAP1 MSTORE PUSH1 0x64 SWAP1 REVERT JUMPDEST PUSH1 0x40 MLOAD PUSH4 0x70A08231 PUSH1 0xE0 SHL DUP2 MSTORE ADDRESS PUSH1 0x4 DUP3 ADD MSTORE PUSH1 0x20 DUP2 PUSH1 0x24 DUP2 PUSH32 0x0 PUSH1 0x1 PUSH1 0x1 PUSH1 0xA0 SHL SUB AND GAS STATICCALL SWAP1 DUP2 ISZERO PUSH2 0x347 JUMPI PUSH0 SWAP2 PUSH2 0x121A JUMPI POP SWAP1 JUMP JUMPDEST SWAP1 PUSH1 0x20 DUP3 RETURNDATASIZE DUP3 GT PUSH2 0x1243 JUMPI JUMPDEST DUP2 PUSH2 0x1233 PUSH1 0x20 SWAP4 DUP4 PUSH2 0xF6D JUMP JUMPDEST DUP2 ADD SUB SLT PUSH2 0x1240 JUMPI POP MLOAD SWAP1 JUMP JUMPDEST DUP1 REVERT JUMPDEST RETURNDATASIZE SWAP2 POP PUSH2 0x1226 JUMP JUMPDEST PUSH1 0x2 SLOAD PUSH1 0x1 DUP2 ADD DUP1 SWAP2 GT PUSH2 0xC38 JUMPI PUSH2 0x1261 PUSH2 0x11C4 JUMP JUMPDEST SWAP1 PUSH1 0x1 DUP3 ADD DUP1 SWAP3 GT PUSH2 0xC38 JUMPI PUSH2 0x1276 SWAP3 PUSH2 0x168F JUMP JUMPDEST SWAP1 JUMP JUMPDEST PUSH1 0x2 SLOAD PUSH1 0x1 DUP2 ADD DUP1 SWAP2 GT PUSH2 0xC38 JUMPI PUSH2 0x128F PUSH2 0x11C4 JUMP JUMPDEST SWAP1 PUSH1 0x1 DUP3 ADD DUP1 SWAP3 GT PUSH2 0xC38 JUMPI PUSH2 0x1276 SWAP3 PUSH2 0x16CD JUMP JUMPDEST PUSH2 0x12AC PUSH2 0x11C4 JUMP JUMPDEST PUSH1 0x1 DUP2 ADD DUP1 SWAP2 GT PUSH2 0xC38 JUMPI PUSH1 0x2 SLOAD SWAP1 PUSH1 0x1 DUP3 ADD DUP1 SWAP3 GT PUSH2 0xC38 JUMPI PUSH2 0x1276 SWAP3 PUSH2 0x168F JUMP JUMPDEST PUSH2 0x12D7 PUSH2 0x11C4 JUMP JUMPDEST PUSH1 0x1 DUP2 ADD DUP1 SWAP2 GT PUSH2 0xC38 JUMPI PUSH1 0x2 SLOAD SWAP1 PUSH1 0x1 DUP3 ADD DUP1 SWAP3 GT PUSH2 0xC38 JUMPI PUSH2 0x1276 SWAP3 PUSH2 0x16CD JUMP JUMPDEST PUSH1 0x40 DUP1 MLOAD PUSH4 0x23B872DD PUSH1 0xE0 SHL PUSH1 0x20 DUP3 ADD MSTORE PUSH1 0x1 PUSH1 0x1 PUSH1 0xA0 SHL SUB SWAP3 DUP4 AND PUSH1 0x24 DUP3 ADD DUP2 SWAP1 MSTORE ADDRESS PUSH1 0x44 DUP4 ADD MSTORE PUSH1 0x64 DUP1 DUP4 ADD DUP8 SWAP1 MSTORE DUP3 MSTORE SWAP5 SWAP2 SWAP4 SWAP2 SWAP3 SWAP2 SWAP1 PUSH1 0xA0 DUP2 ADD SWAP1 PUSH1 0x1 PUSH1 0x1 PUSH1 0x40 SHL SUB DUP3 GT DUP2 DUP4 LT OR PUSH2 0xF2B JUMPI PUSH2 0x1377 SWAP2 DUP7 MSTORE PUSH32 0x0 PUSH2 0x1556 JUMP JUMPDEST AND SWAP4 DUP5 ISZERO PUSH2 0x13FA JUMPI SWAP1 DUP2 PUSH2 0x13AF PUSH32 0xDCBC1C05240F31FF3AD067EF1EE35CE4997762752E3A095284754544F4C709D7 SWAP5 SWAP4 PUSH1 0x2 SLOAD PUSH2 0x10E6 JUMP JUMPDEST PUSH1 0x2 SSTORE DUP6 PUSH0 MSTORE PUSH0 PUSH1 0x20 MSTORE DUP3 PUSH0 KECCAK256 DUP2 DUP2 SLOAD ADD SWAP1 SSTORE DUP6 PUSH0 PUSH32 0xDDF252AD1BE2C89B69C2B068FC378DAA952BA7F163C4A11628F55A4DF523B3EF PUSH1 0x20 DUP7 MLOAD DUP6 DUP2 MSTORE LOG3 DUP3 MLOAD SWAP2 DUP3 MSTORE PUSH1 0x20 DUP3 ADD MSTORE LOG3 JUMP JUMPDEST DUP3 MLOAD PUSH4 0xEC442F05 PUSH1 0xE0 SHL DUP2 MSTORE PUSH0 PUSH1 0x4 DUP3 ADD MSTORE PUSH1 0x24 SWAP1 REVERT JUMPDEST SWAP2 SWAP1 SWAP3 PUSH1 0x1 DUP1 PUSH1 0xA0 SHL SUB SWAP5 DUP6 DUP4 AND SWAP6 DUP1 DUP6 AND SWAP5 DUP3 DUP9 DUP8 SUB PUSH2 0x1545 JUMPI JUMPDEST POP POP DUP7 ISZERO PUSH2 0x10CE JUMPI PUSH0 DUP8 DUP2 MSTORE DUP1 PUSH1 0x20 MSTORE PUSH1 0x40 SWAP5 DUP6 DUP3 KECCAK256 SLOAD SWAP1 DUP5 DUP3 LT PUSH2 0x1514 JUMPI POP SWAP2 DUP2 DUP5 PUSH32 0xFBDE797D201C681B91056529119E0B02407C7BB96A4A2C75C01FC9667232C8DB SWAP8 SWAP7 SWAP6 SWAP5 DUP12 PUSH2 0x1507 SWAP6 MSTORE DUP3 PUSH1 0x20 MSTORE SUB DUP7 DUP3 KECCAK256 SSTORE DUP4 PUSH1 0x2 SLOAD SUB PUSH1 0x2 SSTORE DUP10 PUSH32 0xDDF252AD1BE2C89B69C2B068FC378DAA952BA7F163C4A11628F55A4DF523B3EF PUSH1 0x20 DUP9 MLOAD DUP8 DUP2 MSTORE LOG3 DUP5 MLOAD SWAP8 PUSH4 0xA9059CBB PUSH1 0xE0 SHL PUSH1 0x20 DUP11 ADD MSTORE AND SWAP7 DUP8 PUSH1 0x24 DUP3 ADD MSTORE DUP4 PUSH1 0x44 DUP3 ADD MSTORE PUSH1 0x44 DUP2 MSTORE PUSH2 0x14E1 DUP2 PUSH2 0xF52 JUMP JUMPDEST PUSH32 0x0 PUSH2 0x1556 JUMP JUMPDEST DUP3 MLOAD SWAP2 DUP3 MSTORE PUSH1 0x20 DUP3 ADD MSTORE LOG4 JUMP JUMPDEST DUP7 MLOAD PUSH4 0x391434E3 PUSH1 0xE2 SHL DUP2 MSTORE PUSH1 0x1 PUSH1 0x1 PUSH1 0xA0 SHL SUB SWAP2 SWAP1 SWAP2 AND PUSH1 0x4 DUP3 ADD MSTORE PUSH1 0x24 DUP2 ADD SWAP2 SWAP1 SWAP2 MSTORE PUSH1 0x44 DUP2 ADD DUP5 SWAP1 MSTORE PUSH1 0x64 SWAP1 REVERT JUMPDEST PUSH2 0x154F SWAP2 DUP7 PUSH2 0x10F3 JUMP JUMPDEST PUSH0 DUP3 PUSH2 0x142D JUMP JUMPDEST PUSH1 0x1 DUP1 PUSH1 0xA0 SHL SUB AND SWAP1 PUSH0 DUP1 DUP3 PUSH1 0x20 DUP3 SWAP5 MLOAD SWAP2 ADD DUP3 DUP7 GAS CALL RETURNDATASIZE ISZERO PUSH2 0x1620 JUMPI RETURNDATASIZE SWAP1 PUSH1 0x1 PUSH1 0x1 PUSH1 0x40 SHL SUB DUP3 GT PUSH2 0x160C JUMPI SWAP1 PUSH2 0x15B0 SWAP2 PUSH1 0x40 MLOAD SWAP2 PUSH2 0x15A0 PUSH1 0x20 PUSH1 0x1F NOT PUSH1 0x1F DUP5 ADD AND ADD DUP5 PUSH2 0xF6D JUMP JUMPDEST DUP3 MSTORE RETURNDATASIZE DUP5 PUSH1 0x20 DUP5 ADD RETURNDATACOPY JUMPDEST DUP5 PUSH2 0x162C JUMP JUMPDEST SWAP1 DUP2 MLOAD SWAP2 DUP3 ISZERO ISZERO SWAP3 DUP4 PUSH2 0x15E0 JUMPI JUMPDEST POP POP POP PUSH2 0x15C8 JUMPI POP JUMP JUMPDEST PUSH1 0x24 SWAP1 PUSH1 0x40 MLOAD SWAP1 PUSH4 0x5274AFE7 PUSH1 0xE0 SHL DUP3 MSTORE PUSH1 0x4 DUP3 ADD MSTORE REVERT JUMPDEST DUP2 SWAP3 SWAP4 POP SWAP1 PUSH1 0x20 SWAP2 DUP2 ADD SUB SLT PUSH2 0x1608 JUMPI PUSH1 0x20 ADD MLOAD SWAP1 DUP2 ISZERO SWAP2 DUP3 ISZERO SUB PUSH2 0x1240 JUMPI POP PUSH0 DUP1 DUP1 PUSH2 0x15BE JUMP JUMPDEST POP DUP1 REVERT JUMPDEST PUSH4 0x4E487B71 PUSH1 0xE0 SHL DUP4 MSTORE PUSH1 0x41 PUSH1 0x4 MSTORE PUSH1 0x24 DUP4 REVERT JUMPDEST PUSH2 0x15B0 SWAP1 PUSH1 0x60 SWAP1 PUSH2 0x15AA JUMP JUMPDEST SWAP1 PUSH2 0x1653 JUMPI POP DUP1 MLOAD ISZERO PUSH2 0x1641 JUMPI DUP1 MLOAD SWAP1 PUSH1 0x20 ADD REVERT JUMPDEST PUSH1 0x40 MLOAD PUSH4 0xA12F521 PUSH1 0xE1 SHL DUP2 MSTORE PUSH1 0x4 SWAP1 REVERT JUMPDEST DUP2 MLOAD ISZERO DUP1 PUSH2 0x1686 JUMPI JUMPDEST PUSH2 0x1664 JUMPI POP SWAP1 JUMP JUMPDEST PUSH1 0x40 MLOAD PUSH4 0x9996B315 PUSH1 0xE0 SHL DUP2 MSTORE PUSH1 0x1 PUSH1 0x1 PUSH1 0xA0 SHL SUB SWAP1 SWAP2 AND PUSH1 0x4 DUP3 ADD MSTORE PUSH1 0x24 SWAP1 REVERT JUMPDEST POP DUP1 EXTCODESIZE ISZERO PUSH2 0x165C JUMP JUMPDEST SWAP2 SWAP1 PUSH2 0x169C DUP3 DUP3 DUP6 PUSH2 0x16CD JUMP JUMPDEST SWAP3 DUP3 ISZERO PUSH2 0x16B9 JUMPI MULMOD PUSH2 0x16AB JUMPI SWAP1 JUMP JUMPDEST PUSH1 0x1 DUP2 ADD DUP1 SWAP2 GT PUSH2 0xC38 JUMPI SWAP1 JUMP JUMPDEST PUSH4 0x4E487B71 PUSH1 0xE0 SHL PUSH0 MSTORE PUSH1 0x12 PUSH1 0x4 MSTORE PUSH1 0x24 PUSH0 REVERT JUMPDEST SWAP1 SWAP2 DUP3 DUP3 MUL SWAP2 PUSH0 NOT DUP5 DUP3 MULMOD SWAP4 DUP4 DUP1 DUP7 LT SWAP6 SUB SWAP5 DUP1 DUP7 SUB SWAP6 EQ PUSH2 0x1752 JUMPI DUP5 DUP4 GT ISZERO PUSH2 0x1740 JUMPI DUP3 SWAP2 MULMOD DUP2 PUSH0 SUB DUP3 AND DUP1 SWAP3 DIV PUSH1 0x2 DUP1 DUP3 PUSH1 0x3 MUL XOR DUP1 DUP4 MUL DUP3 SUB MUL DUP1 DUP4 MUL DUP3 SUB MUL DUP1 DUP4 MUL DUP3 SUB MUL DUP1 DUP4 MUL DUP3 SUB MUL DUP1 DUP4 MUL DUP3 SUB MUL DUP1 SWAP3 MUL SWAP1 SUB MUL SWAP4 PUSH1 0x1 DUP4 DUP1 PUSH0 SUB DIV ADD SWAP1 DUP5 DUP4 GT SWAP1 SUB MUL SWAP3 SUB DIV OR MUL SWAP1 JUMP JUMPDEST PUSH1 0x40 MLOAD PUSH4 0x227BC153 PUSH1 0xE0 SHL DUP2 MSTORE PUSH1 0x4 SWAP1 REVERT JUMPDEST POP POP DUP1 SWAP3 POP ISZERO PUSH2 0x16B9 JUMPI DIV SWAP1 JUMP JUMPDEST SWAP1 DUP1 PUSH1 0x20 SWAP4 SWAP3 DUP2 DUP5 MSTORE DUP5 DUP5 ADD CALLDATACOPY PUSH0 DUP3 DUP3 ADD DUP5 ADD MSTORE PUSH1 0x1F ADD PUSH1 0x1F NOT AND ADD ADD SWAP1 JUMP JUMPDEST PUSH1 0x2 PUSH1 0x5 SLOAD EQ PUSH2 0x1791 JUMPI PUSH1 0x2 PUSH1 0x5 SSTORE JUMP JUMPDEST PUSH1 0x40 MLOAD PUSH3 0x461BCD PUSH1 0xE5 SHL DUP2 MSTORE PUSH1 0x20 PUSH1 0x4 DUP3 ADD MSTORE PUSH1 0x1F PUSH1 0x24 DUP3 ADD MSTORE PUSH32 0x5265656E7472616E637947756172643A207265656E7472616E742063616C6C00 PUSH1 0x44 DUP3 ADD MSTORE PUSH1 0x64 SWAP1 REVERT JUMPDEST PUSH0 NOT DUP2 EQ PUSH2 0xC38 JUMPI PUSH1 0x1 ADD SWAP1 JUMP JUMPDEST DUP1 MLOAD DUP3 LT ISZERO PUSH2 0x9A6 JUMPI PUSH1 0x20 SWAP2 PUSH1 0x5 SHL ADD ADD SWAP1 JUMP INVALID LOG2 PUSH5 0x6970667358 0x22 SLT KECCAK256 LT 0xF8 SUB 0x28 LOG4 CALL PUSH25 0x9F0F95BBB132A01D7F563077070AF78B2A0BBA6CD5B3A97EF3 PUSH5 0x736F6C6343 STOP ADDMOD EQ STOP CALLER LOG2 PUSH5 0x6970667358 0x22 SLT KECCAK256 PUSH14 0xD943F48A7625CCF0CAFA5B3E1542 LT EXTCODESIZE LOG2 DUP8 SHL 0x4D 0xD0 LOG1 0x5D PUSH4 0x6681A9B1 0xC9 PUSH6 0x6D64736F6C63 NUMBER STOP ADDMOD EQ STOP CALLER "
		},
		"gasEstimates": {
			"creation": {
				"codeDepositCost": "3781800",
				"executionCost": "infinite",
				"totalCost": "infinite"
			},
			"external": {
				"createTuliaPool(address,address,address,address,uint256,uint256,uint256,address,uint8,uint256)": "infinite",
				"feeManager()": "2434",
				"permit2()": "2329",
				"poolOrganizer()": "2417",
				"rewardManager()": "2297",
				"vaultManager()": "2351",
				"vaults(address)": "2534"
			},
			"internal": {
				"registerPool(address,address,contract IERC20,address,contract TuliaVault,enum IPoolOrganizer.PoolType)": "infinite"
			}
		},
		"methodIdentifiers": {
			"createTuliaPool(address,address,address,address,uint256,uint256,uint256,address,uint8,uint256)": "8c41fd09",
			"feeManager()": "d0fb0203",
			"permit2()": "12261ee7",
			"poolOrganizer()": "c51b9507",
			"rewardManager()": "0f4ef8a6",
			"vaultManager()": "8a4adf24",
			"vaults(address)": "a622ee7c"
		}
	},
	"abi": [
		{
			"inputs": [
				{
					"internalType": "address",
					"name": "_poolOrganizer",
					"type": "address"
				},
				{
					"internalType": "address",
					"name": "_permit2",
					"type": "address"
				},
				{
					"internalType": "address",
					"name": "_feeManager",
					"type": "address"
				},
				{
					"internalType": "address",
					"name": "_rewardManager",
					"type": "address"
				},
				{
					"internalType": "address",
					"name": "_vaultManager",
					"type": "address"
				}
			],
			"stateMutability": "nonpayable",
			"type": "constructor"
		},
		{
			"anonymous": false,
			"inputs": [
				{
					"indexed": true,
					"internalType": "address",
					"name": "pool",
					"type": "address"
				},
				{
					"indexed": true,
					"internalType": "address",
					"name": "lender",
					"type": "address"
				},
				{
					"indexed": true,
					"internalType": "address",
					"name": "vault",
					"type": "address"
				},
				{
					"indexed": false,
					"internalType": "enum IPoolOrganizer.PoolType",
					"name": "poolType",
					"type": "uint8"
				}
			],
			"name": "PoolCreated",
			"type": "event"
		},
		{
			"anonymous": false,
			"inputs": [
				{
					"indexed": true,
					"internalType": "address",
					"name": "vault",
					"type": "address"
				},
				{
					"indexed": false,
					"internalType": "address",
					"name": "assetToken",
					"type": "address"
				}
			],
			"name": "VaultCreated",
			"type": "event"
		},
		{
			"inputs": [
				{
					"internalType": "address",
					"name": "lender",
					"type": "address"
				},
				{
					"internalType": "address",
					"name": "loanTokenAddress",
					"type": "address"
				},
				{
					"internalType": "contract IERC20",
					"name": "assetToken",
					"type": "address"
				},
				{
					"internalType": "address",
					"name": "repaymentTokenAddress",
					"type": "address"
				},
				{
					"internalType": "uint256",
					"name": "loanAmount",
					"type": "uint256"
				},
				{
					"internalType": "uint256",
					"name": "interestRate",
					"type": "uint256"
				},
				{
					"internalType": "uint256",
					"name": "repaymentPeriod",
					"type": "uint256"
				},
				{
					"internalType": "contract IInterestModel",
					"name": "interestModel",
					"type": "address"
				},
				{
					"internalType": "enum IPoolOrganizer.PoolType",
					"name": "poolType",
					"type": "uint8"
				},
				{
					"internalType": "uint256",
					"name": "optionalFlashLoanFeeRate",
					"type": "uint256"
				}
			],
			"name": "createTuliaPool",
			"outputs": [
				{
					"internalType": "address",
					"name": "poolAddress",
					"type": "address"
				},
				{
					"internalType": "address",
					"name": "vaultAddress",
					"type": "address"
				}
			],
			"stateMutability": "nonpayable",
			"type": "function"
		},
		{
			"inputs": [],
			"name": "feeManager",
			"outputs": [
				{
					"internalType": "contract IFeeManager",
					"name": "",
					"type": "address"
				}
			],
			"stateMutability": "view",
			"type": "function"
		},
		{
			"inputs": [],
			"name": "permit2",
			"outputs": [
				{
					"internalType": "contract IPermit2",
					"name": "",
					"type": "address"
				}
			],
			"stateMutability": "view",
			"type": "function"
		},
		{
			"inputs": [],
			"name": "poolOrganizer",
			"outputs": [
				{
					"internalType": "contract IPoolOrganizer",
					"name": "",
					"type": "address"
				}
			],
			"stateMutability": "view",
			"type": "function"
		},
		{
			"inputs": [],
			"name": "rewardManager",
			"outputs": [
				{
					"internalType": "contract IRewardManager",
					"name": "",
					"type": "address"
				}
			],
			"stateMutability": "view",
			"type": "function"
		},
		{
			"inputs": [],
			"name": "vaultManager",
			"outputs": [
				{
					"internalType": "contract IVaultManager",
					"name": "",
					"type": "address"
				}
			],
			"stateMutability": "view",
			"type": "function"
		},
		{
			"inputs": [
				{
					"internalType": "address",
					"name": "",
					"type": "address"
				}
			],
			"name": "vaults",
			"outputs": [
				{
					"internalType": "contract TuliaVault",
					"name": "",
					"type": "address"
				}
			],
			"stateMutability": "view",
			"type": "function"
		}
	]
}