{
	"data": {
		"bytecode": {
			"linkReferences": {},
			"object": "608034620003c657601f6200275438819003918201601f19168301916001600160401b03831184841017620003205780849261016094604052833981010312620003c6576200004e81620003ca565b6200005c60208301620003ca565b916200006b60408201620003ca565b916200007a60608301620003ca565b9260808301519460a08401519360c08101519060e081015160018060a01b0381168103620003c657620000b16101008301620003ca565b91620000d0610140620000c86101208401620003ca565b9201620003ca565b60015f55926001600160a01b038816151580620003b3575b80620003a0575b806200038d575b1562000348576200010788620003df565b5062000113886200045e565b50600280546001600160a01b03199081166001600160a01b0393841617909155600380549091169183169190911790556004549362015180908015828202829004831417156200033457604051996001600160401b036101808c01908111908c111762000320578c5f6101608d7f3d48195705780f5c10a0d217f778f0f6d562cb1a6a699da31c0d6d756aacedfc9f60609f8f906101800160405260018060a01b0316825260018060a01b038d1660208301528d60018060a01b0316604083015260018060a01b0316938f859083015260808201528460a082015286860260c082015260018060a01b03881660e082015260018060a01b0389166101008201528261012082015242610140820152015260018060a01b038b1660018060a01b0319600554161760055560018060a01b03891660018060a01b0319600654161760065560018060a01b038a1660018060a01b0319600754161760075560018060a01b031960085416176008558c600955600a5502600b5560018060a01b031660018060a01b0319600c541617600c5560018060a01b031660018060a01b0319600d541617600d5560018060a01b0319600e5416600e5542600f555f60105560018060a01b03169060018060a81b0319161760045560405195865260018060a01b0316602086015260018060a01b0316604085015260018060a01b031692a26040516122349081620005008239f35b634e487b7160e01b5f52604160045260245ffd5b634e487b7160e01b5f52601160045260245ffd5b60405162461bcd60e51b815260206004820152601760248201527f496e76616c696420696e707574206164647265737365730000000000000000006044820152606490fd5b506001600160a01b0387161515620000f6565b506001600160a01b038a161515620000ef565b506001600160a01b0386161515620000e8565b5f80fd5b51906001600160a01b0382168203620003c657565b6001600160a01b03165f8181527fa6eef7e35abe7026729641147f7915573c7e97b47efa546f5f6e3230263bcb49602052604081205490919060ff166200045a5781805260016020526040822081835260205260408220600160ff1982541617905533915f80516020620027348339815191528180a4600190565b5090565b6001600160a01b03165f8181527f95902c4d6c8ea17825d5632af066dcb87e033f1b2a91b49a7ad79e83f02c4dec60205260408120549091907fc60d7a62d8843f2b14bc63f2a5240b187980481ad8c001a3caf4916aef3f667e9060ff16620004fa5780835260016020526040832082845260205260408320600160ff198254161790555f8051602062002734833981519152339380a4600190565b50509056fe6080604081815260049182361015610015575f80fd5b5f92833560e01c918262abafe114611cbf5750816301ffc9a714611c695781630c7277de14611c405781630e7b949e14611c055781630f4ef8a614611bdd5781631cb0c3e714611bb4578163248a9ca314611b8a5781632e1283e314611b6b5781632f2ff15d14611b4157816336568abe14611afb5781633b1baeff146117b3578163402d8883146111805781635257b5661461116157816364c4bec014611142578163654c6295146110ab5781636b6d19551461108b5781636c44cf191461106e5781638a4adf24146110455781638db5799414610d7857816391d1485414610d3457816395cb741d14610c9d5781639861f3e514610c745781639e9f669c14610564578163a217fddf14610c59578163b2a9bb6014610591578163c19d93fb14610564578163c51b95071461053b578163d547741f146104f8578163d724a4c0146101ba57508063eb0c4955146101975763f4b01b1814610176575f80fd5b346101935781600319360112610193576020906009549051908152f35b5080fd5b50346101935781600319360112610193576020906101b3612135565b9051908152f35b839150346101935781600319360112610193576101d5611f60565b7fc60d7a62d8843f2b14bc63f2a5240b187980481ad8c001a3caf4916aef3f667e825260209260018452808320335f52845260ff815f205416156104aa5760ff825460a01c1660068110156104975760010361045557600e546001600160a01b039081166104125784610282859683600654168460055416906009549189885180968195829463a9059cbb60e01b84528d840160209093929193604081019460018060a01b031681520152565b03925af180156103b7576103e4575b5050825460ff60a01b1916600560a01b1783556002548116803b1561039f57825163a956239b60e01b815230858201908152600560208201529091869183919082908490829060400103925af180156103da579085916103c1575b5050806002541690813b1561039f578251858160248183637e72c7d760e01b97888352308b8401525af180156103b7579086916103a3575b505083541692833b1561039f57602485928385519687948593845230908401525af1908115610396575061037f575b50807f409fced1b85ae32a29fb1e18894d8361a5f2653dc27adf7102d86175c2901d7c91a16001815580f35b61038890611f16565b610393578082610353565b80fd5b513d84823e3d90fd5b8480fd5b6103ac90611f16565b61039f578487610324565b84513d88823e3d90fd5b6103ca90611f16565b6103d55783866102ec565b505050fd5b83513d87823e3d90fd5b8161040392903d1061040b575b6103fb8183611f3e565b810190611f81565b508580610291565b503d6103f1565b815162461bcd60e51b8152808401869052601760248201527f426f72726f77657220616c7265616479206578697374730000000000000000006044820152606490fd5b5162461bcd60e51b8152908101839052601f60248201527f4c6f616e206d75737420626520696e20612070656e64696e67207374617465006044820152606490fd5b634e487b7160e01b845260218352602484fd5b5162461bcd60e51b81529081018390526024808201527f4f6e6c7920746865206c656e6465722063616e207265636c61696d20746865206044820152633637b0b760e11b6064820152608490fd5b91905034610537578060031936011261053757610533913561052e600161051d611cf9565b938387528160205286200154611d36565b611ea1565b5080f35b8280fd5b50503461019357816003193601126101935760025490516001600160a01b039091168152602090f35b8284346103935780600319360112610393575060ff61058d925460a01c16905191829182611d0f565b0390f35b839150346101935781600319360112610193576105ac611f60565b80549260ff8460a01c16600681101561049757600103610c16573315610bd3576005546001600160a01b03908116338114610b9057610632906105ed612135565b906105fb6009549283611f99565b6007548651636eb1769f60e11b808252338a8301908152306020828101919091529791949388928492918b16918391829160400190565b03915afa908115610b86578a91610b59575b5010610b0c5760065486519182526001600160a01b039092168782019081523060208201529091849183918716908290819060400103915afa9081156109b8578791610adf575b5010610a9d5781859616803b156109b45783516306846e0560e01b8152308682019081523360208201529091879183919082908490829060400103925af180156103b757908691610a89575b50506106e1612135565b6106ee6009549182611f99565b8587846107366106fc612135565b6007548a516323b872dd60e01b80825233978201978852306020890152604088019890985291969591948593918b16928492839160600190565b03925af18015610a7f5790859291610a62575b506007546003548851928352338a84019081529088166001600160a01b0316602082015260408101949094529092839187169082908b90829060600103925af180156109b857610a45575b50600754600854855163095ea7b360e01b81529085166001600160a01b03168782019081526020810184905290918491839187169082908b90829060400103925af180156109b8579183918893610a28575b50604485600854169187519485938492636e553f6560e01b84528b8401523360248401525af180156103b7576109f7575b5061082133611d76565b508160025416803b156109b45783516337e238c560e01b8152308682019081523360208201529091879183919082908490829060400103925af180156103b7579086916109e3575b50600654600954855163a9059cbb60e01b8152338882019081526020810192909252928492849283900360400191839188165af180156103b7576109c6575b50600e80546001600160a01b0319163317905542600f55835460ff60a01b1916600160a11b1784556108e36108db612135565b600954611f99565b908260035416803b156109c2578680916024875180948193632914526d60e11b8352308c8401525af180156109b8579087916109a0575b50507f5150ab7694a22fbc01c642bc10316565247df962fa3f0ac3b5d1a18ba45b485b9084519283523392a26002541691823b156103d5578392604484928451958693849263a956239b60e01b84523090840152600260248401525af1908115610396575061098c575b506001905580f35b61099590611f16565b610393578082610984565b6109a990611f16565b6109b457858861091a565b8580fd5b85513d89823e3d90fd5b8680fd5b6109dc90823d841161040b576103fb8183611f3e565b50866108a8565b6109ec90611f16565b61039f578487610869565b818096503d8311610a21575b610a0d8183611f3e565b81010312610a1d57849386610817565b5f80fd5b503d610a03565b610a3e90833d851161040b576103fb8183611f3e565b50896107e6565b610a5b90833d851161040b576103fb8183611f3e565b5087610794565b610a7890833d851161040b576103fb8183611f3e565b508a610749565b87513d8b823e3d90fd5b610a9290611f16565b61039f5784876106d7565b8360649184519162461bcd60e51b8352820152601b60248201527f496e73756666696369656e74206c6f616e20616c6c6f77616e636500000000006044820152fd5b90508281813d8311610b05575b610af68183611f3e565b81010312610a1d57518861068b565b503d610aec565b855162461bcd60e51b8152808801859052602160248201527f496e73756666696369656e7420636f6c6c61746572616c20616c6c6f77616e636044820152606560f81b6064820152608490fd5b90508581813d8311610b7f575b610b708183611f3e565b81010312610a1d57518b610644565b503d610b66565b88513d8c823e3d90fd5b825162461bcd60e51b8152602081860152601960248201527f4c656e6465722063616e6e6f7420626520626f72726f776572000000000000006044820152606490fd5b906020606492519162461bcd60e51b8352820152601860248201527f496e76616c696420626f72726f776572206164647265737300000000000000006044820152fd5b906020606492519162461bcd60e51b8352820152601a60248201527f4c6f616e206e6f7420726561647920746f2061637469766174650000000000006044820152fd5b50503461019357816003193601126101935751908152602090f35b50503461019357816003193601126101935760055490516001600160a01b039091168152602090f35b5050346101935781600319360112610193576101809060018060a01b038060055416918160065416918060075416908060085416600954600a54600b549184600c54169385600d541695600e541696600f54986010549a81519c8d5260208d01528b015260608a0152608089015260a088015260c087015260e0860152610100850152610120840152610140830152610160820152f35b90503461053757816003193601126105375781602093610d52611cf9565b9235815260018552209060018060a01b03165f52825260ff815f20541690519015158152f35b905034610537578260031936011261053757610d92611f60565b60ff815460a01c16600681101561103257610ff0577fc60d7a62d8843f2b14bc63f2a5240b187980481ad8c001a3caf4916aef3f667e835260209060018252828420335f52825260ff835f20541615610fc05760065460055460095485516323b872dd60e01b81526001600160a01b039283168582019081523060208201526040810192909252879493909186918391829003606001908290889087165af18015610f8157610fa3575b5042601055815460ff60a01b198116600160a01b1783556006548216908216803b1561039f578651637286e5e560e01b8152308582019081526001600160a01b039093166020840152918591839182908490829060400103925af1908115610f81578491610f8f575b50508060025416803b15610f8b5783809160248851809481936307cbcb8560e21b835230898401525af1908115610f81578491610f6d575b50506002541690813b15610537578291604483928751948593849263a956239b60e01b84523090840152600160248401525af18015610f6357610f4f575b50507f9e71d2fb732e68272b7e74ecfd14638673c1d77e19a5d390a3ffff054d57c44b916009549051908152a16001815580f35b610f5890611f16565b61053757825f610f1b565b84513d84823e3d90fd5b610f7690611f16565b61053757825f610edd565b86513d86823e3d90fd5b8380fd5b610f9890611f16565b61053757825f610ea5565b610fb990853d871161040b576103fb8183611f3e565b505f610e3c565b915162461bcd60e51b815291820152600c60248201526b496e76616c696420526f6c6560a01b6044820152606490fd5b6020606492519162461bcd60e51b8352820152601b60248201527f4c6f616e206e6f7420696e20637265617461626c6520737461746500000000006044820152fd5b634e487b7160e01b845260218252602484fd5b50503461019357816003193601126101935760035490516001600160a01b039091168152602090f35b5050346101935781600319360112610193576020906101b36121b8565b5050346101935781600319360112610193576020906101b36108db612135565b8383346101935760209283600319360112610537576001600160a01b03813581811690819003610a1d57602486926008541693855194859384926370a0823160e01b84528301525afa9283156111375792611108575b5051908152f35b9091508281813d8311611130575b6111208183611f3e565b81010312610a1d57519083611101565b503d611116565b8251903d90823e3d90fd5b505034610193578160031936011261019357602090600b549051908152f35b505034610193578160031936011261019357602090600a549051908152f35b90503461053757826003193601126105375761119a611f60565b600e546001600160a01b0391908216330361175e5760ff815460a01c16600681101561174b576002036116f1576111cf612135565b916111dd6009549384611f99565b6007548551636eb1769f60e11b815233858201908152306020828101919091529692851694939291908790829081906040010381885afa80156116e75783918a916116b6575b501061165f578651936370a0823160e01b92838652338787015260249588818881865afa908115611655578b91611628575b50106115d45760055488516323b872dd60e01b8152338882019081529186166001600160a01b03166020830152604082019390935289969594939291889183919082908a90829060600103925af180156114fa576115b7575b508160035416803b156109b45787516356f78a1d60e01b8152308682019081523360208201529091879183919082908490829060400103925af19081156114fa5786916115a3575b5050816008541682600e5416908851918383528683015287828681845afa918215611567578792611571575b508851916363737ac960e11b83528683015287828681845afa80156115675788928891611533575b508951635d043b2960e11b8152878101918252336020830181905260408301529291839182908a90829060600103925af19081156114fa578791611504575b5050835460ff60a01b1916600160a21b17845560075487519182523082860152821686828581845afa9081156114fa57879287926114c5575b509086929181611460575b505050506002541691823b15610f8b5760448492838851958694859363a956239b60e01b855230828601528401525af18015610f635761144c575b50507f4002dba848920f438092e08090cfb5fc47144c22704268b402c9553a1b5adfe6916114376108db612135565b9051908152a1611445611fba565b6001815580f35b61145590611f16565b61053757825f611408565b895163a9059cbb60e01b8152338882019081526020810193909352938492839190829060400103925af180156114bb5761149e575b858186926113cd565b6114b490863d881161040b576103fb8183611f3e565b505f611495565b87513d87823e3d90fd5b965091905085813d83116114f3575b6114de8183611f3e565b81010312610a1d5793518794869190866113c2565b503d6114d4565b88513d88823e3d90fd5b90809296503d831161152c575b61151b8183611f3e565b81010312610a1d578693855f611389565b503d611511565b92809298508391503d8311611560575b61154d8183611f3e565b81010312610a1d5751889587918761134a565b503d611543565b89513d89823e3d90fd5b965090508686813d811161159c575b61158a8183611f3e565b81010312610a1d57889551905f611322565b503d611580565b6115ac90611f16565b61039f57845f6112f6565b6115cd90873d891161040b576103fb8183611f3e565b505f6112ae565b875162461bcd60e51b81528087018890526029818701527f496e73756666696369656e7420746f6b656e2062616c616e636520666f72207260448201526832b830bcb6b2b73a1760b91b6064820152608490fd5b90508881813d831161164e575b61163f8183611f3e565b81010312610a1d57515f611255565b503d611635565b8a513d8d823e3d90fd5b865162461bcd60e51b8152808601879052602b60248201527f496e73756666696369656e7420746f6b656e20616c6c6f77616e636520666f7260448201526a103932b830bcb6b2b73a1760a91b6064820152608490fd5b809250888092503d83116116e0575b6116cf8183611f3e565b81010312610a1d578290515f611223565b503d6116c5565b88513d8b823e3d90fd5b608490602084519162461bcd60e51b8352820152602e60248201527f4c6f616e206d7573742062652061637469766520746f2070726f63656564207760448201526d34ba34103932b830bcb6b2b73a1760911b6064820152fd5b634e487b7160e01b855260218252602485fd5b608490602084519162461bcd60e51b8352820152602960248201527f4f6e6c792074686520626f72726f7765722063616e20696e697469617465207260448201526832b830bcb6b2b73a1760b91b6064820152fd5b905034610537578260031936011261053757805460ff8160a01c166006811015611ae857600203611ab0576117ed600f54600b5490611f99565b4210156117f8578380f35b60ff60a01b1916600360a01b1781556002546001600160a01b0392908316803b1561039f57815185816044818363a956239b60e01b96878352308a840152600360248401525af18015611aa657611a8f575b5090849291846008541685600e541683516370a0823160e01b815281868201526020928382602481845afa918215611a53578892611a5d575b508551916363737ac960e11b8352878301528382602481845afa918215611a53578892611a21575b506005548651635d043b2960e11b81528089019384526001600160a01b03918b168216602085015293166040830152839183919082908a90829060600103925af180156103b7576119f2575b50508460035416856005541690803b156109b457835163389e006760e11b8152308682019081526001600160a01b039093166020840152918691839182908490829060400103925af180156103da579085916119de575b5050611958611fba565b846002541692833b1561039f57825191825230908201908152600560208201529092849184919082908490829060400103925af190811561039657506119ca575b5050600e54167ff4e5cf42cbb1d0c6c91e16d925349feb6c5d970652f6ec77b1ff1262f7284cd58280a25f80808380f35b6119d390611f16565b61019357815f611999565b6119e790611f16565b610f8b57835f61194e565b90809295503d8311611a1a575b611a098183611f3e565b81010312610a1d5784925f806118f7565b503d6119ff565b84809299508193503d8311611a4c575b611a3b8183611f3e565b81010312610a1d57518896836118ab565b503d611a31565b86513d8a823e3d90fd5b975090508287813d8111611a88575b611a768183611f3e565b81010312610a1d57889651905f611883565b503d611a6c565b611a9d909591939295611f16565b9390915f61184a565b83513d88823e3d90fd5b506020606492519162461bcd60e51b835282015260126024820152714c6f616e206973206e6f742061637469766560701b6044820152fd5b634e487b7160e01b855260218352602485fd5b838334610193578060031936011261019357611b15611cf9565b90336001600160a01b03831603611b325750610533919235611ea1565b5163334bd91960e11b81528390fd5b919050346105375780600319360112610537576105339135611b66600161051d611cf9565b611e28565b5050346101935781600319360112610193576020906010549051908152f35b90503461053757602036600319011261053757816020936001923581528285522001549051908152f35b505034610193578160031936011261019357600e5490516001600160a01b039091168152602090f35b9050346105375782600319360112610537575490516001600160a01b03909116815260209150f35b505034610193578160031936011261019357602090517f2344277e405079ec07749d374ba0b5862a4e45a6a05ac889dbb4a991c6f9354d8152f35b50503461019357816003193601126101935760075490516001600160a01b039091168152602090f35b90503461053757602036600319011261053757359063ffffffff60e01b82168092036105375760209250637965db0b60e01b8214918215611cae575b50519015158152f35b6301ffc9a760e01b1491505f611ca5565b849034610193578160031936011261019357807fc60d7a62d8843f2b14bc63f2a5240b187980481ad8c001a3caf4916aef3f667e60209252f35b602435906001600160a01b0382168203610a1d57565b919060208301926006821015611d225752565b634e487b7160e01b5f52602160045260245ffd5b805f52600160205260405f20335f5260205260ff60405f20541615611d585750565b6044906040519063e2517d3f60e01b82523360048301526024820152fd5b6001600160a01b03165f8181527f37796693c9136991966ecabeb225dddf75f7ae82d42c98571afc1843b5b26acd60205260408120549091907f2344277e405079ec07749d374ba0b5862a4e45a6a05ac889dbb4a991c6f9354d9060ff16611e235780835260016020526040832082845260205260408320600160ff198254161790557f2f8788117e7eff1d82e926ec794901d17c78024a50270940304540a733656f0d339380a4600190565b505090565b905f918083526001602052604083209160018060a01b03169182845260205260ff604084205416155f14611e235780835260016020526040832082845260205260408320600160ff198254161790557f2f8788117e7eff1d82e926ec794901d17c78024a50270940304540a733656f0d339380a4600190565b905f918083526001602052604083209160018060a01b03169182845260205260ff6040842054165f14611e23578083526001602052604083208284526020526040832060ff1981541690557ff6391f5c32d9c69d2a47ea670b442974b53935d1edc7fd64eb21e047a839171b339380a4600190565b67ffffffffffffffff8111611f2a57604052565b634e487b7160e01b5f52604160045260245ffd5b90601f8019910116810190811067ffffffffffffffff821117611f2a57604052565b60025f5414611f6f5760025f55565b604051633ee5aeb560e01b8152600490fd5b90816020910312610a1d57518015158103610a1d5790565b91908201809211611fa657565b634e487b7160e01b5f52601160045260245ffd5b6004805460ff60a01b1916600560a01b1781556002545f916001600160a01b0391821690813b15610f8b576040805163a956239b60e01b815230838201908152600560208201529193909186918391829084908290890103925af180156103da57612122575b508260035416803b1561039f5784809160248551809481936338e270ed60e01b835230888401525af180156103da5790859161210e575b50508281541692833b1561039f578251858160248183637e72c7d760e01b998a835230898401525af180156103b7579086916120fa575b50506002541692833b1561039f5790602485928385519687948593845230908401525af190811561039657506120e6575b50807f409fced1b85ae32a29fb1e18894d8361a5f2653dc27adf7102d86175c2901d7c91a1565b6120f08291611f16565b610393575f6120bf565b61210390611f16565b61039f57845f61208e565b61211790611f16565b610f8b57835f612057565b61212e90949194611f16565b925f612020565b600d54600954600a5460405163efdd7c0760e01b81526004810192909252602482015290602090829060449082906001600160a01b03165afa9081156121ad575f9161217f575090565b906020823d82116121a5575b8161219860209383611f3e565b8101031261039357505190565b3d915061218b565b6040513d5f823e3d90fd5b60ff60045460a01c166006811015611d22576002036121fa576121e0600f54600b5490611f99565b804210156121f557428103908111611fa65790565b505f90565b5f9056fea26469706673582212207e05fb2fa234dc1e3971bbfb7a31e4ffa22e1bd8eacde5a2348c06274af0d50c64736f6c634300081400332f8788117e7eff1d82e926ec794901d17c78024a50270940304540a733656f0d",
			"opcodes": "PUSH1 0x80 CALLVALUE PUSH3 0x3C6 JUMPI PUSH1 0x1F PUSH3 0x2754 CODESIZE DUP2 SWAP1 SUB SWAP2 DUP3 ADD PUSH1 0x1F NOT AND DUP4 ADD SWAP2 PUSH1 0x1 PUSH1 0x1 PUSH1 0x40 SHL SUB DUP4 GT DUP5 DUP5 LT OR PUSH3 0x320 JUMPI DUP1 DUP5 SWAP3 PUSH2 0x160 SWAP5 PUSH1 0x40 MSTORE DUP4 CODECOPY DUP2 ADD SUB SLT PUSH3 0x3C6 JUMPI PUSH3 0x4E DUP2 PUSH3 0x3CA JUMP JUMPDEST PUSH3 0x5C PUSH1 0x20 DUP4 ADD PUSH3 0x3CA JUMP JUMPDEST SWAP2 PUSH3 0x6B PUSH1 0x40 DUP3 ADD PUSH3 0x3CA JUMP JUMPDEST SWAP2 PUSH3 0x7A PUSH1 0x60 DUP4 ADD PUSH3 0x3CA JUMP JUMPDEST SWAP3 PUSH1 0x80 DUP4 ADD MLOAD SWAP5 PUSH1 0xA0 DUP5 ADD MLOAD SWAP4 PUSH1 0xC0 DUP2 ADD MLOAD SWAP1 PUSH1 0xE0 DUP2 ADD MLOAD PUSH1 0x1 DUP1 PUSH1 0xA0 SHL SUB DUP2 AND DUP2 SUB PUSH3 0x3C6 JUMPI PUSH3 0xB1 PUSH2 0x100 DUP4 ADD PUSH3 0x3CA JUMP JUMPDEST SWAP2 PUSH3 0xD0 PUSH2 0x140 PUSH3 0xC8 PUSH2 0x120 DUP5 ADD PUSH3 0x3CA JUMP JUMPDEST SWAP3 ADD PUSH3 0x3CA JUMP JUMPDEST PUSH1 0x1 PUSH0 SSTORE SWAP3 PUSH1 0x1 PUSH1 0x1 PUSH1 0xA0 SHL SUB DUP9 AND ISZERO ISZERO DUP1 PUSH3 0x3B3 JUMPI JUMPDEST DUP1 PUSH3 0x3A0 JUMPI JUMPDEST DUP1 PUSH3 0x38D JUMPI JUMPDEST ISZERO PUSH3 0x348 JUMPI PUSH3 0x107 DUP9 PUSH3 0x3DF JUMP JUMPDEST POP PUSH3 0x113 DUP9 PUSH3 0x45E JUMP JUMPDEST POP PUSH1 0x2 DUP1 SLOAD PUSH1 0x1 PUSH1 0x1 PUSH1 0xA0 SHL SUB NOT SWAP1 DUP2 AND PUSH1 0x1 PUSH1 0x1 PUSH1 0xA0 SHL SUB SWAP4 DUP5 AND OR SWAP1 SWAP2 SSTORE PUSH1 0x3 DUP1 SLOAD SWAP1 SWAP2 AND SWAP2 DUP4 AND SWAP2 SWAP1 SWAP2 OR SWAP1 SSTORE PUSH1 0x4 SLOAD SWAP4 PUSH3 0x15180 SWAP1 DUP1 ISZERO DUP3 DUP3 MUL DUP3 SWAP1 DIV DUP4 EQ OR ISZERO PUSH3 0x334 JUMPI PUSH1 0x40 MLOAD SWAP10 PUSH1 0x1 PUSH1 0x1 PUSH1 0x40 SHL SUB PUSH2 0x180 DUP13 ADD SWAP1 DUP2 GT SWAP1 DUP13 GT OR PUSH3 0x320 JUMPI DUP13 PUSH0 PUSH2 0x160 DUP14 PUSH32 0x3D48195705780F5C10A0D217F778F0F6D562CB1A6A699DA31C0D6D756AACEDFC SWAP16 PUSH1 0x60 SWAP16 DUP16 SWAP1 PUSH2 0x180 ADD PUSH1 0x40 MSTORE PUSH1 0x1 DUP1 PUSH1 0xA0 SHL SUB AND DUP3 MSTORE PUSH1 0x1 DUP1 PUSH1 0xA0 SHL SUB DUP14 AND PUSH1 0x20 DUP4 ADD MSTORE DUP14 PUSH1 0x1 DUP1 PUSH1 0xA0 SHL SUB AND PUSH1 0x40 DUP4 ADD MSTORE PUSH1 0x1 DUP1 PUSH1 0xA0 SHL SUB AND SWAP4 DUP16 DUP6 SWAP1 DUP4 ADD MSTORE PUSH1 0x80 DUP3 ADD MSTORE DUP5 PUSH1 0xA0 DUP3 ADD MSTORE DUP7 DUP7 MUL PUSH1 0xC0 DUP3 ADD MSTORE PUSH1 0x1 DUP1 PUSH1 0xA0 SHL SUB DUP9 AND PUSH1 0xE0 DUP3 ADD MSTORE PUSH1 0x1 DUP1 PUSH1 0xA0 SHL SUB DUP10 AND PUSH2 0x100 DUP3 ADD MSTORE DUP3 PUSH2 0x120 DUP3 ADD MSTORE TIMESTAMP PUSH2 0x140 DUP3 ADD MSTORE ADD MSTORE PUSH1 0x1 DUP1 PUSH1 0xA0 SHL SUB DUP12 AND PUSH1 0x1 DUP1 PUSH1 0xA0 SHL SUB NOT PUSH1 0x5 SLOAD AND OR PUSH1 0x5 SSTORE PUSH1 0x1 DUP1 PUSH1 0xA0 SHL SUB DUP10 AND PUSH1 0x1 DUP1 PUSH1 0xA0 SHL SUB NOT PUSH1 0x6 SLOAD AND OR PUSH1 0x6 SSTORE PUSH1 0x1 DUP1 PUSH1 0xA0 SHL SUB DUP11 AND PUSH1 0x1 DUP1 PUSH1 0xA0 SHL SUB NOT PUSH1 0x7 SLOAD AND OR PUSH1 0x7 SSTORE PUSH1 0x1 DUP1 PUSH1 0xA0 SHL SUB NOT PUSH1 0x8 SLOAD AND OR PUSH1 0x8 SSTORE DUP13 PUSH1 0x9 SSTORE PUSH1 0xA SSTORE MUL PUSH1 0xB SSTORE PUSH1 0x1 DUP1 PUSH1 0xA0 SHL SUB AND PUSH1 0x1 DUP1 PUSH1 0xA0 SHL SUB NOT PUSH1 0xC SLOAD AND OR PUSH1 0xC SSTORE PUSH1 0x1 DUP1 PUSH1 0xA0 SHL SUB AND PUSH1 0x1 DUP1 PUSH1 0xA0 SHL SUB NOT PUSH1 0xD SLOAD AND OR PUSH1 0xD SSTORE PUSH1 0x1 DUP1 PUSH1 0xA0 SHL SUB NOT PUSH1 0xE SLOAD AND PUSH1 0xE SSTORE TIMESTAMP PUSH1 0xF SSTORE PUSH0 PUSH1 0x10 SSTORE PUSH1 0x1 DUP1 PUSH1 0xA0 SHL SUB AND SWAP1 PUSH1 0x1 DUP1 PUSH1 0xA8 SHL SUB NOT AND OR PUSH1 0x4 SSTORE PUSH1 0x40 MLOAD SWAP6 DUP7 MSTORE PUSH1 0x1 DUP1 PUSH1 0xA0 SHL SUB AND PUSH1 0x20 DUP7 ADD MSTORE PUSH1 0x1 DUP1 PUSH1 0xA0 SHL SUB AND PUSH1 0x40 DUP6 ADD MSTORE PUSH1 0x1 DUP1 PUSH1 0xA0 SHL SUB AND SWAP3 LOG2 PUSH1 0x40 MLOAD PUSH2 0x2234 SWAP1 DUP2 PUSH3 0x500 DUP3 CODECOPY RETURN JUMPDEST PUSH4 0x4E487B71 PUSH1 0xE0 SHL PUSH0 MSTORE PUSH1 0x41 PUSH1 0x4 MSTORE PUSH1 0x24 PUSH0 REVERT JUMPDEST PUSH4 0x4E487B71 PUSH1 0xE0 SHL PUSH0 MSTORE PUSH1 0x11 PUSH1 0x4 MSTORE PUSH1 0x24 PUSH0 REVERT JUMPDEST PUSH1 0x40 MLOAD PUSH3 0x461BCD PUSH1 0xE5 SHL DUP2 MSTORE PUSH1 0x20 PUSH1 0x4 DUP3 ADD MSTORE PUSH1 0x17 PUSH1 0x24 DUP3 ADD MSTORE PUSH32 0x496E76616C696420696E70757420616464726573736573000000000000000000 PUSH1 0x44 DUP3 ADD MSTORE PUSH1 0x64 SWAP1 REVERT JUMPDEST POP PUSH1 0x1 PUSH1 0x1 PUSH1 0xA0 SHL SUB DUP8 AND ISZERO ISZERO PUSH3 0xF6 JUMP JUMPDEST POP PUSH1 0x1 PUSH1 0x1 PUSH1 0xA0 SHL SUB DUP11 AND ISZERO ISZERO PUSH3 0xEF JUMP JUMPDEST POP PUSH1 0x1 PUSH1 0x1 PUSH1 0xA0 SHL SUB DUP7 AND ISZERO ISZERO PUSH3 0xE8 JUMP JUMPDEST PUSH0 DUP1 REVERT JUMPDEST MLOAD SWAP1 PUSH1 0x1 PUSH1 0x1 PUSH1 0xA0 SHL SUB DUP3 AND DUP3 SUB PUSH3 0x3C6 JUMPI JUMP JUMPDEST PUSH1 0x1 PUSH1 0x1 PUSH1 0xA0 SHL SUB AND PUSH0 DUP2 DUP2 MSTORE PUSH32 0xA6EEF7E35ABE7026729641147F7915573C7E97B47EFA546F5F6E3230263BCB49 PUSH1 0x20 MSTORE PUSH1 0x40 DUP2 KECCAK256 SLOAD SWAP1 SWAP2 SWAP1 PUSH1 0xFF AND PUSH3 0x45A JUMPI DUP2 DUP1 MSTORE PUSH1 0x1 PUSH1 0x20 MSTORE PUSH1 0x40 DUP3 KECCAK256 DUP2 DUP4 MSTORE PUSH1 0x20 MSTORE PUSH1 0x40 DUP3 KECCAK256 PUSH1 0x1 PUSH1 0xFF NOT DUP3 SLOAD AND OR SWAP1 SSTORE CALLER SWAP2 PUSH0 DUP1 MLOAD PUSH1 0x20 PUSH3 0x2734 DUP4 CODECOPY DUP2 MLOAD SWAP2 MSTORE DUP2 DUP1 LOG4 PUSH1 0x1 SWAP1 JUMP JUMPDEST POP SWAP1 JUMP JUMPDEST PUSH1 0x1 PUSH1 0x1 PUSH1 0xA0 SHL SUB AND PUSH0 DUP2 DUP2 MSTORE PUSH32 0x95902C4D6C8EA17825D5632AF066DCB87E033F1B2A91B49A7AD79E83F02C4DEC PUSH1 0x20 MSTORE PUSH1 0x40 DUP2 KECCAK256 SLOAD SWAP1 SWAP2 SWAP1 PUSH32 0xC60D7A62D8843F2B14BC63F2A5240B187980481AD8C001A3CAF4916AEF3F667E SWAP1 PUSH1 0xFF AND PUSH3 0x4FA JUMPI DUP1 DUP4 MSTORE PUSH1 0x1 PUSH1 0x20 MSTORE PUSH1 0x40 DUP4 KECCAK256 DUP3 DUP5 MSTORE PUSH1 0x20 MSTORE PUSH1 0x40 DUP4 KECCAK256 PUSH1 0x1 PUSH1 0xFF NOT DUP3 SLOAD AND OR SWAP1 SSTORE PUSH0 DUP1 MLOAD PUSH1 0x20 PUSH3 0x2734 DUP4 CODECOPY DUP2 MLOAD SWAP2 MSTORE CALLER SWAP4 DUP1 LOG4 PUSH1 0x1 SWAP1 JUMP JUMPDEST POP POP SWAP1 JUMP INVALID PUSH1 0x80 PUSH1 0x40 DUP2 DUP2 MSTORE PUSH1 0x4 SWAP2 DUP3 CALLDATASIZE LT ISZERO PUSH2 0x15 JUMPI PUSH0 DUP1 REVERT JUMPDEST PUSH0 SWAP3 DUP4 CALLDATALOAD PUSH1 0xE0 SHR SWAP2 DUP3 PUSH3 0xABAFE1 EQ PUSH2 0x1CBF JUMPI POP DUP2 PUSH4 0x1FFC9A7 EQ PUSH2 0x1C69 JUMPI DUP2 PUSH4 0xC7277DE EQ PUSH2 0x1C40 JUMPI DUP2 PUSH4 0xE7B949E EQ PUSH2 0x1C05 JUMPI DUP2 PUSH4 0xF4EF8A6 EQ PUSH2 0x1BDD JUMPI DUP2 PUSH4 0x1CB0C3E7 EQ PUSH2 0x1BB4 JUMPI DUP2 PUSH4 0x248A9CA3 EQ PUSH2 0x1B8A JUMPI DUP2 PUSH4 0x2E1283E3 EQ PUSH2 0x1B6B JUMPI DUP2 PUSH4 0x2F2FF15D EQ PUSH2 0x1B41 JUMPI DUP2 PUSH4 0x36568ABE EQ PUSH2 0x1AFB JUMPI DUP2 PUSH4 0x3B1BAEFF EQ PUSH2 0x17B3 JUMPI DUP2 PUSH4 0x402D8883 EQ PUSH2 0x1180 JUMPI DUP2 PUSH4 0x5257B566 EQ PUSH2 0x1161 JUMPI DUP2 PUSH4 0x64C4BEC0 EQ PUSH2 0x1142 JUMPI DUP2 PUSH4 0x654C6295 EQ PUSH2 0x10AB JUMPI DUP2 PUSH4 0x6B6D1955 EQ PUSH2 0x108B JUMPI DUP2 PUSH4 0x6C44CF19 EQ PUSH2 0x106E JUMPI DUP2 PUSH4 0x8A4ADF24 EQ PUSH2 0x1045 JUMPI DUP2 PUSH4 0x8DB57994 EQ PUSH2 0xD78 JUMPI DUP2 PUSH4 0x91D14854 EQ PUSH2 0xD34 JUMPI DUP2 PUSH4 0x95CB741D EQ PUSH2 0xC9D JUMPI DUP2 PUSH4 0x9861F3E5 EQ PUSH2 0xC74 JUMPI DUP2 PUSH4 0x9E9F669C EQ PUSH2 0x564 JUMPI DUP2 PUSH4 0xA217FDDF EQ PUSH2 0xC59 JUMPI DUP2 PUSH4 0xB2A9BB60 EQ PUSH2 0x591 JUMPI DUP2 PUSH4 0xC19D93FB EQ PUSH2 0x564 JUMPI DUP2 PUSH4 0xC51B9507 EQ PUSH2 0x53B JUMPI DUP2 PUSH4 0xD547741F EQ PUSH2 0x4F8 JUMPI DUP2 PUSH4 0xD724A4C0 EQ PUSH2 0x1BA JUMPI POP DUP1 PUSH4 0xEB0C4955 EQ PUSH2 0x197 JUMPI PUSH4 0xF4B01B18 EQ PUSH2 0x176 JUMPI PUSH0 DUP1 REVERT JUMPDEST CALLVALUE PUSH2 0x193 JUMPI DUP2 PUSH1 0x3 NOT CALLDATASIZE ADD SLT PUSH2 0x193 JUMPI PUSH1 0x20 SWAP1 PUSH1 0x9 SLOAD SWAP1 MLOAD SWAP1 DUP2 MSTORE RETURN JUMPDEST POP DUP1 REVERT JUMPDEST POP CALLVALUE PUSH2 0x193 JUMPI DUP2 PUSH1 0x3 NOT CALLDATASIZE ADD SLT PUSH2 0x193 JUMPI PUSH1 0x20 SWAP1 PUSH2 0x1B3 PUSH2 0x2135 JUMP JUMPDEST SWAP1 MLOAD SWAP1 DUP2 MSTORE RETURN JUMPDEST DUP4 SWAP2 POP CALLVALUE PUSH2 0x193 JUMPI DUP2 PUSH1 0x3 NOT CALLDATASIZE ADD SLT PUSH2 0x193 JUMPI PUSH2 0x1D5 PUSH2 0x1F60 JUMP JUMPDEST PUSH32 0xC60D7A62D8843F2B14BC63F2A5240B187980481AD8C001A3CAF4916AEF3F667E DUP3 MSTORE PUSH1 0x20 SWAP3 PUSH1 0x1 DUP5 MSTORE DUP1 DUP4 KECCAK256 CALLER PUSH0 MSTORE DUP5 MSTORE PUSH1 0xFF DUP2 PUSH0 KECCAK256 SLOAD AND ISZERO PUSH2 0x4AA JUMPI PUSH1 0xFF DUP3 SLOAD PUSH1 0xA0 SHR AND PUSH1 0x6 DUP2 LT ISZERO PUSH2 0x497 JUMPI PUSH1 0x1 SUB PUSH2 0x455 JUMPI PUSH1 0xE SLOAD PUSH1 0x1 PUSH1 0x1 PUSH1 0xA0 SHL SUB SWAP1 DUP2 AND PUSH2 0x412 JUMPI DUP5 PUSH2 0x282 DUP6 SWAP7 DUP4 PUSH1 0x6 SLOAD AND DUP5 PUSH1 0x5 SLOAD AND SWAP1 PUSH1 0x9 SLOAD SWAP2 DUP10 DUP9 MLOAD DUP1 SWAP7 DUP2 SWAP6 DUP3 SWAP5 PUSH4 0xA9059CBB PUSH1 0xE0 SHL DUP5 MSTORE DUP14 DUP5 ADD PUSH1 0x20 SWAP1 SWAP4 SWAP3 SWAP2 SWAP4 PUSH1 0x40 DUP2 ADD SWAP5 PUSH1 0x1 DUP1 PUSH1 0xA0 SHL SUB AND DUP2 MSTORE ADD MSTORE JUMP JUMPDEST SUB SWAP3 GAS CALL DUP1 ISZERO PUSH2 0x3B7 JUMPI PUSH2 0x3E4 JUMPI JUMPDEST POP POP DUP3 SLOAD PUSH1 0xFF PUSH1 0xA0 SHL NOT AND PUSH1 0x5 PUSH1 0xA0 SHL OR DUP4 SSTORE PUSH1 0x2 SLOAD DUP2 AND DUP1 EXTCODESIZE ISZERO PUSH2 0x39F JUMPI DUP3 MLOAD PUSH4 0xA956239B PUSH1 0xE0 SHL DUP2 MSTORE ADDRESS DUP6 DUP3 ADD SWAP1 DUP2 MSTORE PUSH1 0x5 PUSH1 0x20 DUP3 ADD MSTORE SWAP1 SWAP2 DUP7 SWAP2 DUP4 SWAP2 SWAP1 DUP3 SWAP1 DUP5 SWAP1 DUP3 SWAP1 PUSH1 0x40 ADD SUB SWAP3 GAS CALL DUP1 ISZERO PUSH2 0x3DA JUMPI SWAP1 DUP6 SWAP2 PUSH2 0x3C1 JUMPI JUMPDEST POP POP DUP1 PUSH1 0x2 SLOAD AND SWAP1 DUP2 EXTCODESIZE ISZERO PUSH2 0x39F JUMPI DUP3 MLOAD DUP6 DUP2 PUSH1 0x24 DUP2 DUP4 PUSH4 0x7E72C7D7 PUSH1 0xE0 SHL SWAP8 DUP9 DUP4 MSTORE ADDRESS DUP12 DUP5 ADD MSTORE GAS CALL DUP1 ISZERO PUSH2 0x3B7 JUMPI SWAP1 DUP7 SWAP2 PUSH2 0x3A3 JUMPI JUMPDEST POP POP DUP4 SLOAD AND SWAP3 DUP4 EXTCODESIZE ISZERO PUSH2 0x39F JUMPI PUSH1 0x24 DUP6 SWAP3 DUP4 DUP6 MLOAD SWAP7 DUP8 SWAP5 DUP6 SWAP4 DUP5 MSTORE ADDRESS SWAP1 DUP5 ADD MSTORE GAS CALL SWAP1 DUP2 ISZERO PUSH2 0x396 JUMPI POP PUSH2 0x37F JUMPI JUMPDEST POP DUP1 PUSH32 0x409FCED1B85AE32A29FB1E18894D8361A5F2653DC27ADF7102D86175C2901D7C SWAP2 LOG1 PUSH1 0x1 DUP2 SSTORE DUP1 RETURN JUMPDEST PUSH2 0x388 SWAP1 PUSH2 0x1F16 JUMP JUMPDEST PUSH2 0x393 JUMPI DUP1 DUP3 PUSH2 0x353 JUMP JUMPDEST DUP1 REVERT JUMPDEST MLOAD RETURNDATASIZE DUP5 DUP3 RETURNDATACOPY RETURNDATASIZE SWAP1 REVERT JUMPDEST DUP5 DUP1 REVERT JUMPDEST PUSH2 0x3AC SWAP1 PUSH2 0x1F16 JUMP JUMPDEST PUSH2 0x39F JUMPI DUP5 DUP8 PUSH2 0x324 JUMP JUMPDEST DUP5 MLOAD RETURNDATASIZE DUP9 DUP3 RETURNDATACOPY RETURNDATASIZE SWAP1 REVERT JUMPDEST PUSH2 0x3CA SWAP1 PUSH2 0x1F16 JUMP JUMPDEST PUSH2 0x3D5 JUMPI DUP4 DUP7 PUSH2 0x2EC JUMP JUMPDEST POP POP POP REVERT JUMPDEST DUP4 MLOAD RETURNDATASIZE DUP8 DUP3 RETURNDATACOPY RETURNDATASIZE SWAP1 REVERT JUMPDEST DUP2 PUSH2 0x403 SWAP3 SWAP1 RETURNDATASIZE LT PUSH2 0x40B JUMPI JUMPDEST PUSH2 0x3FB DUP2 DUP4 PUSH2 0x1F3E JUMP JUMPDEST DUP2 ADD SWAP1 PUSH2 0x1F81 JUMP JUMPDEST POP DUP6 DUP1 PUSH2 0x291 JUMP JUMPDEST POP RETURNDATASIZE PUSH2 0x3F1 JUMP JUMPDEST DUP2 MLOAD PUSH3 0x461BCD PUSH1 0xE5 SHL DUP2 MSTORE DUP1 DUP5 ADD DUP7 SWAP1 MSTORE PUSH1 0x17 PUSH1 0x24 DUP3 ADD MSTORE PUSH32 0x426F72726F77657220616C726561647920657869737473000000000000000000 PUSH1 0x44 DUP3 ADD MSTORE PUSH1 0x64 SWAP1 REVERT JUMPDEST MLOAD PUSH3 0x461BCD PUSH1 0xE5 SHL DUP2 MSTORE SWAP1 DUP2 ADD DUP4 SWAP1 MSTORE PUSH1 0x1F PUSH1 0x24 DUP3 ADD MSTORE PUSH32 0x4C6F616E206D75737420626520696E20612070656E64696E6720737461746500 PUSH1 0x44 DUP3 ADD MSTORE PUSH1 0x64 SWAP1 REVERT JUMPDEST PUSH4 0x4E487B71 PUSH1 0xE0 SHL DUP5 MSTORE PUSH1 0x21 DUP4 MSTORE PUSH1 0x24 DUP5 REVERT JUMPDEST MLOAD PUSH3 0x461BCD PUSH1 0xE5 SHL DUP2 MSTORE SWAP1 DUP2 ADD DUP4 SWAP1 MSTORE PUSH1 0x24 DUP1 DUP3 ADD MSTORE PUSH32 0x4F6E6C7920746865206C656E6465722063616E207265636C61696D2074686520 PUSH1 0x44 DUP3 ADD MSTORE PUSH4 0x3637B0B7 PUSH1 0xE1 SHL PUSH1 0x64 DUP3 ADD MSTORE PUSH1 0x84 SWAP1 REVERT JUMPDEST SWAP2 SWAP1 POP CALLVALUE PUSH2 0x537 JUMPI DUP1 PUSH1 0x3 NOT CALLDATASIZE ADD SLT PUSH2 0x537 JUMPI PUSH2 0x533 SWAP2 CALLDATALOAD PUSH2 0x52E PUSH1 0x1 PUSH2 0x51D PUSH2 0x1CF9 JUMP JUMPDEST SWAP4 DUP4 DUP8 MSTORE DUP2 PUSH1 0x20 MSTORE DUP7 KECCAK256 ADD SLOAD PUSH2 0x1D36 JUMP JUMPDEST PUSH2 0x1EA1 JUMP JUMPDEST POP DUP1 RETURN JUMPDEST DUP3 DUP1 REVERT JUMPDEST POP POP CALLVALUE PUSH2 0x193 JUMPI DUP2 PUSH1 0x3 NOT CALLDATASIZE ADD SLT PUSH2 0x193 JUMPI PUSH1 0x2 SLOAD SWAP1 MLOAD PUSH1 0x1 PUSH1 0x1 PUSH1 0xA0 SHL SUB SWAP1 SWAP2 AND DUP2 MSTORE PUSH1 0x20 SWAP1 RETURN JUMPDEST DUP3 DUP5 CALLVALUE PUSH2 0x393 JUMPI DUP1 PUSH1 0x3 NOT CALLDATASIZE ADD SLT PUSH2 0x393 JUMPI POP PUSH1 0xFF PUSH2 0x58D SWAP3 SLOAD PUSH1 0xA0 SHR AND SWAP1 MLOAD SWAP2 DUP3 SWAP2 DUP3 PUSH2 0x1D0F JUMP JUMPDEST SUB SWAP1 RETURN JUMPDEST DUP4 SWAP2 POP CALLVALUE PUSH2 0x193 JUMPI DUP2 PUSH1 0x3 NOT CALLDATASIZE ADD SLT PUSH2 0x193 JUMPI PUSH2 0x5AC PUSH2 0x1F60 JUMP JUMPDEST DUP1 SLOAD SWAP3 PUSH1 0xFF DUP5 PUSH1 0xA0 SHR AND PUSH1 0x6 DUP2 LT ISZERO PUSH2 0x497 JUMPI PUSH1 0x1 SUB PUSH2 0xC16 JUMPI CALLER ISZERO PUSH2 0xBD3 JUMPI PUSH1 0x5 SLOAD PUSH1 0x1 PUSH1 0x1 PUSH1 0xA0 SHL SUB SWAP1 DUP2 AND CALLER DUP2 EQ PUSH2 0xB90 JUMPI PUSH2 0x632 SWAP1 PUSH2 0x5ED PUSH2 0x2135 JUMP JUMPDEST SWAP1 PUSH2 0x5FB PUSH1 0x9 SLOAD SWAP3 DUP4 PUSH2 0x1F99 JUMP JUMPDEST PUSH1 0x7 SLOAD DUP7 MLOAD PUSH4 0x6EB1769F PUSH1 0xE1 SHL DUP1 DUP3 MSTORE CALLER DUP11 DUP4 ADD SWAP1 DUP2 MSTORE ADDRESS PUSH1 0x20 DUP3 DUP2 ADD SWAP2 SWAP1 SWAP2 MSTORE SWAP8 SWAP2 SWAP5 SWAP4 DUP9 SWAP3 DUP5 SWAP3 SWAP2 DUP12 AND SWAP2 DUP4 SWAP2 DUP3 SWAP2 PUSH1 0x40 ADD SWAP1 JUMP JUMPDEST SUB SWAP2 GAS STATICCALL SWAP1 DUP2 ISZERO PUSH2 0xB86 JUMPI DUP11 SWAP2 PUSH2 0xB59 JUMPI JUMPDEST POP LT PUSH2 0xB0C JUMPI PUSH1 0x6 SLOAD DUP7 MLOAD SWAP2 DUP3 MSTORE PUSH1 0x1 PUSH1 0x1 PUSH1 0xA0 SHL SUB SWAP1 SWAP3 AND DUP8 DUP3 ADD SWAP1 DUP2 MSTORE ADDRESS PUSH1 0x20 DUP3 ADD MSTORE SWAP1 SWAP2 DUP5 SWAP2 DUP4 SWAP2 DUP8 AND SWAP1 DUP3 SWAP1 DUP2 SWAP1 PUSH1 0x40 ADD SUB SWAP2 GAS STATICCALL SWAP1 DUP2 ISZERO PUSH2 0x9B8 JUMPI DUP8 SWAP2 PUSH2 0xADF JUMPI JUMPDEST POP LT PUSH2 0xA9D JUMPI DUP2 DUP6 SWAP7 AND DUP1 EXTCODESIZE ISZERO PUSH2 0x9B4 JUMPI DUP4 MLOAD PUSH4 0x6846E05 PUSH1 0xE0 SHL DUP2 MSTORE ADDRESS DUP7 DUP3 ADD SWAP1 DUP2 MSTORE CALLER PUSH1 0x20 DUP3 ADD MSTORE SWAP1 SWAP2 DUP8 SWAP2 DUP4 SWAP2 SWAP1 DUP3 SWAP1 DUP5 SWAP1 DUP3 SWAP1 PUSH1 0x40 ADD SUB SWAP3 GAS CALL DUP1 ISZERO PUSH2 0x3B7 JUMPI SWAP1 DUP7 SWAP2 PUSH2 0xA89 JUMPI JUMPDEST POP POP PUSH2 0x6E1 PUSH2 0x2135 JUMP JUMPDEST PUSH2 0x6EE PUSH1 0x9 SLOAD SWAP2 DUP3 PUSH2 0x1F99 JUMP JUMPDEST DUP6 DUP8 DUP5 PUSH2 0x736 PUSH2 0x6FC PUSH2 0x2135 JUMP JUMPDEST PUSH1 0x7 SLOAD DUP11 MLOAD PUSH4 0x23B872DD PUSH1 0xE0 SHL DUP1 DUP3 MSTORE CALLER SWAP8 DUP3 ADD SWAP8 DUP9 MSTORE ADDRESS PUSH1 0x20 DUP10 ADD MSTORE PUSH1 0x40 DUP9 ADD SWAP9 SWAP1 SWAP9 MSTORE SWAP2 SWAP7 SWAP6 SWAP2 SWAP5 DUP6 SWAP4 SWAP2 DUP12 AND SWAP3 DUP5 SWAP3 DUP4 SWAP2 PUSH1 0x60 ADD SWAP1 JUMP JUMPDEST SUB SWAP3 GAS CALL DUP1 ISZERO PUSH2 0xA7F JUMPI SWAP1 DUP6 SWAP3 SWAP2 PUSH2 0xA62 JUMPI JUMPDEST POP PUSH1 0x7 SLOAD PUSH1 0x3 SLOAD DUP9 MLOAD SWAP3 DUP4 MSTORE CALLER DUP11 DUP5 ADD SWAP1 DUP2 MSTORE SWAP1 DUP9 AND PUSH1 0x1 PUSH1 0x1 PUSH1 0xA0 SHL SUB AND PUSH1 0x20 DUP3 ADD MSTORE PUSH1 0x40 DUP2 ADD SWAP5 SWAP1 SWAP5 MSTORE SWAP1 SWAP3 DUP4 SWAP2 DUP8 AND SWAP1 DUP3 SWAP1 DUP12 SWAP1 DUP3 SWAP1 PUSH1 0x60 ADD SUB SWAP3 GAS CALL DUP1 ISZERO PUSH2 0x9B8 JUMPI PUSH2 0xA45 JUMPI JUMPDEST POP PUSH1 0x7 SLOAD PUSH1 0x8 SLOAD DUP6 MLOAD PUSH4 0x95EA7B3 PUSH1 0xE0 SHL DUP2 MSTORE SWAP1 DUP6 AND PUSH1 0x1 PUSH1 0x1 PUSH1 0xA0 SHL SUB AND DUP8 DUP3 ADD SWAP1 DUP2 MSTORE PUSH1 0x20 DUP2 ADD DUP5 SWAP1 MSTORE SWAP1 SWAP2 DUP5 SWAP2 DUP4 SWAP2 DUP8 AND SWAP1 DUP3 SWAP1 DUP12 SWAP1 DUP3 SWAP1 PUSH1 0x40 ADD SUB SWAP3 GAS CALL DUP1 ISZERO PUSH2 0x9B8 JUMPI SWAP2 DUP4 SWAP2 DUP9 SWAP4 PUSH2 0xA28 JUMPI JUMPDEST POP PUSH1 0x44 DUP6 PUSH1 0x8 SLOAD AND SWAP2 DUP8 MLOAD SWAP5 DUP6 SWAP4 DUP5 SWAP3 PUSH4 0x6E553F65 PUSH1 0xE0 SHL DUP5 MSTORE DUP12 DUP5 ADD MSTORE CALLER PUSH1 0x24 DUP5 ADD MSTORE GAS CALL DUP1 ISZERO PUSH2 0x3B7 JUMPI PUSH2 0x9F7 JUMPI JUMPDEST POP PUSH2 0x821 CALLER PUSH2 0x1D76 JUMP JUMPDEST POP DUP2 PUSH1 0x2 SLOAD AND DUP1 EXTCODESIZE ISZERO PUSH2 0x9B4 JUMPI DUP4 MLOAD PUSH4 0x37E238C5 PUSH1 0xE0 SHL DUP2 MSTORE ADDRESS DUP7 DUP3 ADD SWAP1 DUP2 MSTORE CALLER PUSH1 0x20 DUP3 ADD MSTORE SWAP1 SWAP2 DUP8 SWAP2 DUP4 SWAP2 SWAP1 DUP3 SWAP1 DUP5 SWAP1 DUP3 SWAP1 PUSH1 0x40 ADD SUB SWAP3 GAS CALL DUP1 ISZERO PUSH2 0x3B7 JUMPI SWAP1 DUP7 SWAP2 PUSH2 0x9E3 JUMPI JUMPDEST POP PUSH1 0x6 SLOAD PUSH1 0x9 SLOAD DUP6 MLOAD PUSH4 0xA9059CBB PUSH1 0xE0 SHL DUP2 MSTORE CALLER DUP9 DUP3 ADD SWAP1 DUP2 MSTORE PUSH1 0x20 DUP2 ADD SWAP3 SWAP1 SWAP3 MSTORE SWAP3 DUP5 SWAP3 DUP5 SWAP3 DUP4 SWAP1 SUB PUSH1 0x40 ADD SWAP2 DUP4 SWAP2 DUP9 AND GAS CALL DUP1 ISZERO PUSH2 0x3B7 JUMPI PUSH2 0x9C6 JUMPI JUMPDEST POP PUSH1 0xE DUP1 SLOAD PUSH1 0x1 PUSH1 0x1 PUSH1 0xA0 SHL SUB NOT AND CALLER OR SWAP1 SSTORE TIMESTAMP PUSH1 0xF SSTORE DUP4 SLOAD PUSH1 0xFF PUSH1 0xA0 SHL NOT AND PUSH1 0x1 PUSH1 0xA1 SHL OR DUP5 SSTORE PUSH2 0x8E3 PUSH2 0x8DB PUSH2 0x2135 JUMP JUMPDEST PUSH1 0x9 SLOAD PUSH2 0x1F99 JUMP JUMPDEST SWAP1 DUP3 PUSH1 0x3 SLOAD AND DUP1 EXTCODESIZE ISZERO PUSH2 0x9C2 JUMPI DUP7 DUP1 SWAP2 PUSH1 0x24 DUP8 MLOAD DUP1 SWAP5 DUP2 SWAP4 PUSH4 0x2914526D PUSH1 0xE1 SHL DUP4 MSTORE ADDRESS DUP13 DUP5 ADD MSTORE GAS CALL DUP1 ISZERO PUSH2 0x9B8 JUMPI SWAP1 DUP8 SWAP2 PUSH2 0x9A0 JUMPI JUMPDEST POP POP PUSH32 0x5150AB7694A22FBC01C642BC10316565247DF962FA3F0AC3B5D1A18BA45B485B SWAP1 DUP5 MLOAD SWAP3 DUP4 MSTORE CALLER SWAP3 LOG2 PUSH1 0x2 SLOAD AND SWAP2 DUP3 EXTCODESIZE ISZERO PUSH2 0x3D5 JUMPI DUP4 SWAP3 PUSH1 0x44 DUP5 SWAP3 DUP5 MLOAD SWAP6 DUP7 SWAP4 DUP5 SWAP3 PUSH4 0xA956239B PUSH1 0xE0 SHL DUP5 MSTORE ADDRESS SWAP1 DUP5 ADD MSTORE PUSH1 0x2 PUSH1 0x24 DUP5 ADD MSTORE GAS CALL SWAP1 DUP2 ISZERO PUSH2 0x396 JUMPI POP PUSH2 0x98C JUMPI JUMPDEST POP PUSH1 0x1 SWAP1 SSTORE DUP1 RETURN JUMPDEST PUSH2 0x995 SWAP1 PUSH2 0x1F16 JUMP JUMPDEST PUSH2 0x393 JUMPI DUP1 DUP3 PUSH2 0x984 JUMP JUMPDEST PUSH2 0x9A9 SWAP1 PUSH2 0x1F16 JUMP JUMPDEST PUSH2 0x9B4 JUMPI DUP6 DUP9 PUSH2 0x91A JUMP JUMPDEST DUP6 DUP1 REVERT JUMPDEST DUP6 MLOAD RETURNDATASIZE DUP10 DUP3 RETURNDATACOPY RETURNDATASIZE SWAP1 REVERT JUMPDEST DUP7 DUP1 REVERT JUMPDEST PUSH2 0x9DC SWAP1 DUP3 RETURNDATASIZE DUP5 GT PUSH2 0x40B JUMPI PUSH2 0x3FB DUP2 DUP4 PUSH2 0x1F3E JUMP JUMPDEST POP DUP7 PUSH2 0x8A8 JUMP JUMPDEST PUSH2 0x9EC SWAP1 PUSH2 0x1F16 JUMP JUMPDEST PUSH2 0x39F JUMPI DUP5 DUP8 PUSH2 0x869 JUMP JUMPDEST DUP2 DUP1 SWAP7 POP RETURNDATASIZE DUP4 GT PUSH2 0xA21 JUMPI JUMPDEST PUSH2 0xA0D DUP2 DUP4 PUSH2 0x1F3E JUMP JUMPDEST DUP2 ADD SUB SLT PUSH2 0xA1D JUMPI DUP5 SWAP4 DUP7 PUSH2 0x817 JUMP JUMPDEST PUSH0 DUP1 REVERT JUMPDEST POP RETURNDATASIZE PUSH2 0xA03 JUMP JUMPDEST PUSH2 0xA3E SWAP1 DUP4 RETURNDATASIZE DUP6 GT PUSH2 0x40B JUMPI PUSH2 0x3FB DUP2 DUP4 PUSH2 0x1F3E JUMP JUMPDEST POP DUP10 PUSH2 0x7E6 JUMP JUMPDEST PUSH2 0xA5B SWAP1 DUP4 RETURNDATASIZE DUP6 GT PUSH2 0x40B JUMPI PUSH2 0x3FB DUP2 DUP4 PUSH2 0x1F3E JUMP JUMPDEST POP DUP8 PUSH2 0x794 JUMP JUMPDEST PUSH2 0xA78 SWAP1 DUP4 RETURNDATASIZE DUP6 GT PUSH2 0x40B JUMPI PUSH2 0x3FB DUP2 DUP4 PUSH2 0x1F3E JUMP JUMPDEST POP DUP11 PUSH2 0x749 JUMP JUMPDEST DUP8 MLOAD RETURNDATASIZE DUP12 DUP3 RETURNDATACOPY RETURNDATASIZE SWAP1 REVERT JUMPDEST PUSH2 0xA92 SWAP1 PUSH2 0x1F16 JUMP JUMPDEST PUSH2 0x39F JUMPI DUP5 DUP8 PUSH2 0x6D7 JUMP JUMPDEST DUP4 PUSH1 0x64 SWAP2 DUP5 MLOAD SWAP2 PUSH3 0x461BCD PUSH1 0xE5 SHL DUP4 MSTORE DUP3 ADD MSTORE PUSH1 0x1B PUSH1 0x24 DUP3 ADD MSTORE PUSH32 0x496E73756666696369656E74206C6F616E20616C6C6F77616E63650000000000 PUSH1 0x44 DUP3 ADD MSTORE REVERT JUMPDEST SWAP1 POP DUP3 DUP2 DUP2 RETURNDATASIZE DUP4 GT PUSH2 0xB05 JUMPI JUMPDEST PUSH2 0xAF6 DUP2 DUP4 PUSH2 0x1F3E JUMP JUMPDEST DUP2 ADD SUB SLT PUSH2 0xA1D JUMPI MLOAD DUP9 PUSH2 0x68B JUMP JUMPDEST POP RETURNDATASIZE PUSH2 0xAEC JUMP JUMPDEST DUP6 MLOAD PUSH3 0x461BCD PUSH1 0xE5 SHL DUP2 MSTORE DUP1 DUP9 ADD DUP6 SWAP1 MSTORE PUSH1 0x21 PUSH1 0x24 DUP3 ADD MSTORE PUSH32 0x496E73756666696369656E7420636F6C6C61746572616C20616C6C6F77616E63 PUSH1 0x44 DUP3 ADD MSTORE PUSH1 0x65 PUSH1 0xF8 SHL PUSH1 0x64 DUP3 ADD MSTORE PUSH1 0x84 SWAP1 REVERT JUMPDEST SWAP1 POP DUP6 DUP2 DUP2 RETURNDATASIZE DUP4 GT PUSH2 0xB7F JUMPI JUMPDEST PUSH2 0xB70 DUP2 DUP4 PUSH2 0x1F3E JUMP JUMPDEST DUP2 ADD SUB SLT PUSH2 0xA1D JUMPI MLOAD DUP12 PUSH2 0x644 JUMP JUMPDEST POP RETURNDATASIZE PUSH2 0xB66 JUMP JUMPDEST DUP9 MLOAD RETURNDATASIZE DUP13 DUP3 RETURNDATACOPY RETURNDATASIZE SWAP1 REVERT JUMPDEST DUP3 MLOAD PUSH3 0x461BCD PUSH1 0xE5 SHL DUP2 MSTORE PUSH1 0x20 DUP2 DUP7 ADD MSTORE PUSH1 0x19 PUSH1 0x24 DUP3 ADD MSTORE PUSH32 0x4C656E6465722063616E6E6F7420626520626F72726F77657200000000000000 PUSH1 0x44 DUP3 ADD MSTORE PUSH1 0x64 SWAP1 REVERT JUMPDEST SWAP1 PUSH1 0x20 PUSH1 0x64 SWAP3 MLOAD SWAP2 PUSH3 0x461BCD PUSH1 0xE5 SHL DUP4 MSTORE DUP3 ADD MSTORE PUSH1 0x18 PUSH1 0x24 DUP3 ADD MSTORE PUSH32 0x496E76616C696420626F72726F77657220616464726573730000000000000000 PUSH1 0x44 DUP3 ADD MSTORE REVERT JUMPDEST SWAP1 PUSH1 0x20 PUSH1 0x64 SWAP3 MLOAD SWAP2 PUSH3 0x461BCD PUSH1 0xE5 SHL DUP4 MSTORE DUP3 ADD MSTORE PUSH1 0x1A PUSH1 0x24 DUP3 ADD MSTORE PUSH32 0x4C6F616E206E6F7420726561647920746F206163746976617465000000000000 PUSH1 0x44 DUP3 ADD MSTORE REVERT JUMPDEST POP POP CALLVALUE PUSH2 0x193 JUMPI DUP2 PUSH1 0x3 NOT CALLDATASIZE ADD SLT PUSH2 0x193 JUMPI MLOAD SWAP1 DUP2 MSTORE PUSH1 0x20 SWAP1 RETURN JUMPDEST POP POP CALLVALUE PUSH2 0x193 JUMPI DUP2 PUSH1 0x3 NOT CALLDATASIZE ADD SLT PUSH2 0x193 JUMPI PUSH1 0x5 SLOAD SWAP1 MLOAD PUSH1 0x1 PUSH1 0x1 PUSH1 0xA0 SHL SUB SWAP1 SWAP2 AND DUP2 MSTORE PUSH1 0x20 SWAP1 RETURN JUMPDEST POP POP CALLVALUE PUSH2 0x193 JUMPI DUP2 PUSH1 0x3 NOT CALLDATASIZE ADD SLT PUSH2 0x193 JUMPI PUSH2 0x180 SWAP1 PUSH1 0x1 DUP1 PUSH1 0xA0 SHL SUB DUP1 PUSH1 0x5 SLOAD AND SWAP2 DUP2 PUSH1 0x6 SLOAD AND SWAP2 DUP1 PUSH1 0x7 SLOAD AND SWAP1 DUP1 PUSH1 0x8 SLOAD AND PUSH1 0x9 SLOAD PUSH1 0xA SLOAD PUSH1 0xB SLOAD SWAP2 DUP5 PUSH1 0xC SLOAD AND SWAP4 DUP6 PUSH1 0xD SLOAD AND SWAP6 PUSH1 0xE SLOAD AND SWAP7 PUSH1 0xF SLOAD SWAP9 PUSH1 0x10 SLOAD SWAP11 DUP2 MLOAD SWAP13 DUP14 MSTORE PUSH1 0x20 DUP14 ADD MSTORE DUP12 ADD MSTORE PUSH1 0x60 DUP11 ADD MSTORE PUSH1 0x80 DUP10 ADD MSTORE PUSH1 0xA0 DUP9 ADD MSTORE PUSH1 0xC0 DUP8 ADD MSTORE PUSH1 0xE0 DUP7 ADD MSTORE PUSH2 0x100 DUP6 ADD MSTORE PUSH2 0x120 DUP5 ADD MSTORE PUSH2 0x140 DUP4 ADD MSTORE PUSH2 0x160 DUP3 ADD MSTORE RETURN JUMPDEST SWAP1 POP CALLVALUE PUSH2 0x537 JUMPI DUP2 PUSH1 0x3 NOT CALLDATASIZE ADD SLT PUSH2 0x537 JUMPI DUP2 PUSH1 0x20 SWAP4 PUSH2 0xD52 PUSH2 0x1CF9 JUMP JUMPDEST SWAP3 CALLDATALOAD DUP2 MSTORE PUSH1 0x1 DUP6 MSTORE KECCAK256 SWAP1 PUSH1 0x1 DUP1 PUSH1 0xA0 SHL SUB AND PUSH0 MSTORE DUP3 MSTORE PUSH1 0xFF DUP2 PUSH0 KECCAK256 SLOAD AND SWAP1 MLOAD SWAP1 ISZERO ISZERO DUP2 MSTORE RETURN JUMPDEST SWAP1 POP CALLVALUE PUSH2 0x537 JUMPI DUP3 PUSH1 0x3 NOT CALLDATASIZE ADD SLT PUSH2 0x537 JUMPI PUSH2 0xD92 PUSH2 0x1F60 JUMP JUMPDEST PUSH1 0xFF DUP2 SLOAD PUSH1 0xA0 SHR AND PUSH1 0x6 DUP2 LT ISZERO PUSH2 0x1032 JUMPI PUSH2 0xFF0 JUMPI PUSH32 0xC60D7A62D8843F2B14BC63F2A5240B187980481AD8C001A3CAF4916AEF3F667E DUP4 MSTORE PUSH1 0x20 SWAP1 PUSH1 0x1 DUP3 MSTORE DUP3 DUP5 KECCAK256 CALLER PUSH0 MSTORE DUP3 MSTORE PUSH1 0xFF DUP4 PUSH0 KECCAK256 SLOAD AND ISZERO PUSH2 0xFC0 JUMPI PUSH1 0x6 SLOAD PUSH1 0x5 SLOAD PUSH1 0x9 SLOAD DUP6 MLOAD PUSH4 0x23B872DD PUSH1 0xE0 SHL DUP2 MSTORE PUSH1 0x1 PUSH1 0x1 PUSH1 0xA0 SHL SUB SWAP3 DUP4 AND DUP6 DUP3 ADD SWAP1 DUP2 MSTORE ADDRESS PUSH1 0x20 DUP3 ADD MSTORE PUSH1 0x40 DUP2 ADD SWAP3 SWAP1 SWAP3 MSTORE DUP8 SWAP5 SWAP4 SWAP1 SWAP2 DUP7 SWAP2 DUP4 SWAP2 DUP3 SWAP1 SUB PUSH1 0x60 ADD SWAP1 DUP3 SWAP1 DUP9 SWAP1 DUP8 AND GAS CALL DUP1 ISZERO PUSH2 0xF81 JUMPI PUSH2 0xFA3 JUMPI JUMPDEST POP TIMESTAMP PUSH1 0x10 SSTORE DUP2 SLOAD PUSH1 0xFF PUSH1 0xA0 SHL NOT DUP2 AND PUSH1 0x1 PUSH1 0xA0 SHL OR DUP4 SSTORE PUSH1 0x6 SLOAD DUP3 AND SWAP1 DUP3 AND DUP1 EXTCODESIZE ISZERO PUSH2 0x39F JUMPI DUP7 MLOAD PUSH4 0x7286E5E5 PUSH1 0xE0 SHL DUP2 MSTORE ADDRESS DUP6 DUP3 ADD SWAP1 DUP2 MSTORE PUSH1 0x1 PUSH1 0x1 PUSH1 0xA0 SHL SUB SWAP1 SWAP4 AND PUSH1 0x20 DUP5 ADD MSTORE SWAP2 DUP6 SWAP2 DUP4 SWAP2 DUP3 SWAP1 DUP5 SWAP1 DUP3 SWAP1 PUSH1 0x40 ADD SUB SWAP3 GAS CALL SWAP1 DUP2 ISZERO PUSH2 0xF81 JUMPI DUP5 SWAP2 PUSH2 0xF8F JUMPI JUMPDEST POP POP DUP1 PUSH1 0x2 SLOAD AND DUP1 EXTCODESIZE ISZERO PUSH2 0xF8B JUMPI DUP4 DUP1 SWAP2 PUSH1 0x24 DUP9 MLOAD DUP1 SWAP5 DUP2 SWAP4 PUSH4 0x7CBCB85 PUSH1 0xE2 SHL DUP4 MSTORE ADDRESS DUP10 DUP5 ADD MSTORE GAS CALL SWAP1 DUP2 ISZERO PUSH2 0xF81 JUMPI DUP5 SWAP2 PUSH2 0xF6D JUMPI JUMPDEST POP POP PUSH1 0x2 SLOAD AND SWAP1 DUP2 EXTCODESIZE ISZERO PUSH2 0x537 JUMPI DUP3 SWAP2 PUSH1 0x44 DUP4 SWAP3 DUP8 MLOAD SWAP5 DUP6 SWAP4 DUP5 SWAP3 PUSH4 0xA956239B PUSH1 0xE0 SHL DUP5 MSTORE ADDRESS SWAP1 DUP5 ADD MSTORE PUSH1 0x1 PUSH1 0x24 DUP5 ADD MSTORE GAS CALL DUP1 ISZERO PUSH2 0xF63 JUMPI PUSH2 0xF4F JUMPI JUMPDEST POP POP PUSH32 0x9E71D2FB732E68272B7E74ECFD14638673C1D77E19A5D390A3FFFF054D57C44B SWAP2 PUSH1 0x9 SLOAD SWAP1 MLOAD SWAP1 DUP2 MSTORE LOG1 PUSH1 0x1 DUP2 SSTORE DUP1 RETURN JUMPDEST PUSH2 0xF58 SWAP1 PUSH2 0x1F16 JUMP JUMPDEST PUSH2 0x537 JUMPI DUP3 PUSH0 PUSH2 0xF1B JUMP JUMPDEST DUP5 MLOAD RETURNDATASIZE DUP5 DUP3 RETURNDATACOPY RETURNDATASIZE SWAP1 REVERT JUMPDEST PUSH2 0xF76 SWAP1 PUSH2 0x1F16 JUMP JUMPDEST PUSH2 0x537 JUMPI DUP3 PUSH0 PUSH2 0xEDD JUMP JUMPDEST DUP7 MLOAD RETURNDATASIZE DUP7 DUP3 RETURNDATACOPY RETURNDATASIZE SWAP1 REVERT JUMPDEST DUP4 DUP1 REVERT JUMPDEST PUSH2 0xF98 SWAP1 PUSH2 0x1F16 JUMP JUMPDEST PUSH2 0x537 JUMPI DUP3 PUSH0 PUSH2 0xEA5 JUMP JUMPDEST PUSH2 0xFB9 SWAP1 DUP6 RETURNDATASIZE DUP8 GT PUSH2 0x40B JUMPI PUSH2 0x3FB DUP2 DUP4 PUSH2 0x1F3E JUMP JUMPDEST POP PUSH0 PUSH2 0xE3C JUMP JUMPDEST SWAP2 MLOAD PUSH3 0x461BCD PUSH1 0xE5 SHL DUP2 MSTORE SWAP2 DUP3 ADD MSTORE PUSH1 0xC PUSH1 0x24 DUP3 ADD MSTORE PUSH12 0x496E76616C696420526F6C65 PUSH1 0xA0 SHL PUSH1 0x44 DUP3 ADD MSTORE PUSH1 0x64 SWAP1 REVERT JUMPDEST PUSH1 0x20 PUSH1 0x64 SWAP3 MLOAD SWAP2 PUSH3 0x461BCD PUSH1 0xE5 SHL DUP4 MSTORE DUP3 ADD MSTORE PUSH1 0x1B PUSH1 0x24 DUP3 ADD MSTORE PUSH32 0x4C6F616E206E6F7420696E20637265617461626C652073746174650000000000 PUSH1 0x44 DUP3 ADD MSTORE REVERT JUMPDEST PUSH4 0x4E487B71 PUSH1 0xE0 SHL DUP5 MSTORE PUSH1 0x21 DUP3 MSTORE PUSH1 0x24 DUP5 REVERT JUMPDEST POP POP CALLVALUE PUSH2 0x193 JUMPI DUP2 PUSH1 0x3 NOT CALLDATASIZE ADD SLT PUSH2 0x193 JUMPI PUSH1 0x3 SLOAD SWAP1 MLOAD PUSH1 0x1 PUSH1 0x1 PUSH1 0xA0 SHL SUB SWAP1 SWAP2 AND DUP2 MSTORE PUSH1 0x20 SWAP1 RETURN JUMPDEST POP POP CALLVALUE PUSH2 0x193 JUMPI DUP2 PUSH1 0x3 NOT CALLDATASIZE ADD SLT PUSH2 0x193 JUMPI PUSH1 0x20 SWAP1 PUSH2 0x1B3 PUSH2 0x21B8 JUMP JUMPDEST POP POP CALLVALUE PUSH2 0x193 JUMPI DUP2 PUSH1 0x3 NOT CALLDATASIZE ADD SLT PUSH2 0x193 JUMPI PUSH1 0x20 SWAP1 PUSH2 0x1B3 PUSH2 0x8DB PUSH2 0x2135 JUMP JUMPDEST DUP4 DUP4 CALLVALUE PUSH2 0x193 JUMPI PUSH1 0x20 SWAP3 DUP4 PUSH1 0x3 NOT CALLDATASIZE ADD SLT PUSH2 0x537 JUMPI PUSH1 0x1 PUSH1 0x1 PUSH1 0xA0 SHL SUB DUP2 CALLDATALOAD DUP2 DUP2 AND SWAP1 DUP2 SWAP1 SUB PUSH2 0xA1D JUMPI PUSH1 0x24 DUP7 SWAP3 PUSH1 0x8 SLOAD AND SWAP4 DUP6 MLOAD SWAP5 DUP6 SWAP4 DUP5 SWAP3 PUSH4 0x70A08231 PUSH1 0xE0 SHL DUP5 MSTORE DUP4 ADD MSTORE GAS STATICCALL SWAP3 DUP4 ISZERO PUSH2 0x1137 JUMPI SWAP3 PUSH2 0x1108 JUMPI JUMPDEST POP MLOAD SWAP1 DUP2 MSTORE RETURN JUMPDEST SWAP1 SWAP2 POP DUP3 DUP2 DUP2 RETURNDATASIZE DUP4 GT PUSH2 0x1130 JUMPI JUMPDEST PUSH2 0x1120 DUP2 DUP4 PUSH2 0x1F3E JUMP JUMPDEST DUP2 ADD SUB SLT PUSH2 0xA1D JUMPI MLOAD SWAP1 DUP4 PUSH2 0x1101 JUMP JUMPDEST POP RETURNDATASIZE PUSH2 0x1116 JUMP JUMPDEST DUP3 MLOAD SWAP1 RETURNDATASIZE SWAP1 DUP3 RETURNDATACOPY RETURNDATASIZE SWAP1 REVERT JUMPDEST POP POP CALLVALUE PUSH2 0x193 JUMPI DUP2 PUSH1 0x3 NOT CALLDATASIZE ADD SLT PUSH2 0x193 JUMPI PUSH1 0x20 SWAP1 PUSH1 0xB SLOAD SWAP1 MLOAD SWAP1 DUP2 MSTORE RETURN JUMPDEST POP POP CALLVALUE PUSH2 0x193 JUMPI DUP2 PUSH1 0x3 NOT CALLDATASIZE ADD SLT PUSH2 0x193 JUMPI PUSH1 0x20 SWAP1 PUSH1 0xA SLOAD SWAP1 MLOAD SWAP1 DUP2 MSTORE RETURN JUMPDEST SWAP1 POP CALLVALUE PUSH2 0x537 JUMPI DUP3 PUSH1 0x3 NOT CALLDATASIZE ADD SLT PUSH2 0x537 JUMPI PUSH2 0x119A PUSH2 0x1F60 JUMP JUMPDEST PUSH1 0xE SLOAD PUSH1 0x1 PUSH1 0x1 PUSH1 0xA0 SHL SUB SWAP2 SWAP1 DUP3 AND CALLER SUB PUSH2 0x175E JUMPI PUSH1 0xFF DUP2 SLOAD PUSH1 0xA0 SHR AND PUSH1 0x6 DUP2 LT ISZERO PUSH2 0x174B JUMPI PUSH1 0x2 SUB PUSH2 0x16F1 JUMPI PUSH2 0x11CF PUSH2 0x2135 JUMP JUMPDEST SWAP2 PUSH2 0x11DD PUSH1 0x9 SLOAD SWAP4 DUP5 PUSH2 0x1F99 JUMP JUMPDEST PUSH1 0x7 SLOAD DUP6 MLOAD PUSH4 0x6EB1769F PUSH1 0xE1 SHL DUP2 MSTORE CALLER DUP6 DUP3 ADD SWAP1 DUP2 MSTORE ADDRESS PUSH1 0x20 DUP3 DUP2 ADD SWAP2 SWAP1 SWAP2 MSTORE SWAP7 SWAP3 DUP6 AND SWAP5 SWAP4 SWAP3 SWAP2 SWAP1 DUP8 SWAP1 DUP3 SWAP1 DUP2 SWAP1 PUSH1 0x40 ADD SUB DUP2 DUP9 GAS STATICCALL DUP1 ISZERO PUSH2 0x16E7 JUMPI DUP4 SWAP2 DUP11 SWAP2 PUSH2 0x16B6 JUMPI JUMPDEST POP LT PUSH2 0x165F JUMPI DUP7 MLOAD SWAP4 PUSH4 0x70A08231 PUSH1 0xE0 SHL SWAP3 DUP4 DUP7 MSTORE CALLER DUP8 DUP8 ADD MSTORE PUSH1 0x24 SWAP6 DUP9 DUP2 DUP9 DUP2 DUP7 GAS STATICCALL SWAP1 DUP2 ISZERO PUSH2 0x1655 JUMPI DUP12 SWAP2 PUSH2 0x1628 JUMPI JUMPDEST POP LT PUSH2 0x15D4 JUMPI PUSH1 0x5 SLOAD DUP9 MLOAD PUSH4 0x23B872DD PUSH1 0xE0 SHL DUP2 MSTORE CALLER DUP9 DUP3 ADD SWAP1 DUP2 MSTORE SWAP2 DUP7 AND PUSH1 0x1 PUSH1 0x1 PUSH1 0xA0 SHL SUB AND PUSH1 0x20 DUP4 ADD MSTORE PUSH1 0x40 DUP3 ADD SWAP4 SWAP1 SWAP4 MSTORE DUP10 SWAP7 SWAP6 SWAP5 SWAP4 SWAP3 SWAP2 DUP9 SWAP2 DUP4 SWAP2 SWAP1 DUP3 SWAP1 DUP11 SWAP1 DUP3 SWAP1 PUSH1 0x60 ADD SUB SWAP3 GAS CALL DUP1 ISZERO PUSH2 0x14FA JUMPI PUSH2 0x15B7 JUMPI JUMPDEST POP DUP2 PUSH1 0x3 SLOAD AND DUP1 EXTCODESIZE ISZERO PUSH2 0x9B4 JUMPI DUP8 MLOAD PUSH4 0x56F78A1D PUSH1 0xE0 SHL DUP2 MSTORE ADDRESS DUP7 DUP3 ADD SWAP1 DUP2 MSTORE CALLER PUSH1 0x20 DUP3 ADD MSTORE SWAP1 SWAP2 DUP8 SWAP2 DUP4 SWAP2 SWAP1 DUP3 SWAP1 DUP5 SWAP1 DUP3 SWAP1 PUSH1 0x40 ADD SUB SWAP3 GAS CALL SWAP1 DUP2 ISZERO PUSH2 0x14FA JUMPI DUP7 SWAP2 PUSH2 0x15A3 JUMPI JUMPDEST POP POP DUP2 PUSH1 0x8 SLOAD AND DUP3 PUSH1 0xE SLOAD AND SWAP1 DUP9 MLOAD SWAP2 DUP4 DUP4 MSTORE DUP7 DUP4 ADD MSTORE DUP8 DUP3 DUP7 DUP2 DUP5 GAS STATICCALL SWAP2 DUP3 ISZERO PUSH2 0x1567 JUMPI DUP8 SWAP3 PUSH2 0x1571 JUMPI JUMPDEST POP DUP9 MLOAD SWAP2 PUSH4 0x63737AC9 PUSH1 0xE1 SHL DUP4 MSTORE DUP7 DUP4 ADD MSTORE DUP8 DUP3 DUP7 DUP2 DUP5 GAS STATICCALL DUP1 ISZERO PUSH2 0x1567 JUMPI DUP9 SWAP3 DUP9 SWAP2 PUSH2 0x1533 JUMPI JUMPDEST POP DUP10 MLOAD PUSH4 0x5D043B29 PUSH1 0xE1 SHL DUP2 MSTORE DUP8 DUP2 ADD SWAP2 DUP3 MSTORE CALLER PUSH1 0x20 DUP4 ADD DUP2 SWAP1 MSTORE PUSH1 0x40 DUP4 ADD MSTORE SWAP3 SWAP2 DUP4 SWAP2 DUP3 SWAP1 DUP11 SWAP1 DUP3 SWAP1 PUSH1 0x60 ADD SUB SWAP3 GAS CALL SWAP1 DUP2 ISZERO PUSH2 0x14FA JUMPI DUP8 SWAP2 PUSH2 0x1504 JUMPI JUMPDEST POP POP DUP4 SLOAD PUSH1 0xFF PUSH1 0xA0 SHL NOT AND PUSH1 0x1 PUSH1 0xA2 SHL OR DUP5 SSTORE PUSH1 0x7 SLOAD DUP8 MLOAD SWAP2 DUP3 MSTORE ADDRESS DUP3 DUP7 ADD MSTORE DUP3 AND DUP7 DUP3 DUP6 DUP2 DUP5 GAS STATICCALL SWAP1 DUP2 ISZERO PUSH2 0x14FA JUMPI DUP8 SWAP3 DUP8 SWAP3 PUSH2 0x14C5 JUMPI JUMPDEST POP SWAP1 DUP7 SWAP3 SWAP2 DUP2 PUSH2 0x1460 JUMPI JUMPDEST POP POP POP POP PUSH1 0x2 SLOAD AND SWAP2 DUP3 EXTCODESIZE ISZERO PUSH2 0xF8B JUMPI PUSH1 0x44 DUP5 SWAP3 DUP4 DUP9 MLOAD SWAP6 DUP7 SWAP5 DUP6 SWAP4 PUSH4 0xA956239B PUSH1 0xE0 SHL DUP6 MSTORE ADDRESS DUP3 DUP7 ADD MSTORE DUP5 ADD MSTORE GAS CALL DUP1 ISZERO PUSH2 0xF63 JUMPI PUSH2 0x144C JUMPI JUMPDEST POP POP PUSH32 0x4002DBA848920F438092E08090CFB5FC47144C22704268B402C9553A1B5ADFE6 SWAP2 PUSH2 0x1437 PUSH2 0x8DB PUSH2 0x2135 JUMP JUMPDEST SWAP1 MLOAD SWAP1 DUP2 MSTORE LOG1 PUSH2 0x1445 PUSH2 0x1FBA JUMP JUMPDEST PUSH1 0x1 DUP2 SSTORE DUP1 RETURN JUMPDEST PUSH2 0x1455 SWAP1 PUSH2 0x1F16 JUMP JUMPDEST PUSH2 0x537 JUMPI DUP3 PUSH0 PUSH2 0x1408 JUMP JUMPDEST DUP10 MLOAD PUSH4 0xA9059CBB PUSH1 0xE0 SHL DUP2 MSTORE CALLER DUP9 DUP3 ADD SWAP1 DUP2 MSTORE PUSH1 0x20 DUP2 ADD SWAP4 SWAP1 SWAP4 MSTORE SWAP4 DUP5 SWAP3 DUP4 SWAP2 SWAP1 DUP3 SWAP1 PUSH1 0x40 ADD SUB SWAP3 GAS CALL DUP1 ISZERO PUSH2 0x14BB JUMPI PUSH2 0x149E JUMPI JUMPDEST DUP6 DUP2 DUP7 SWAP3 PUSH2 0x13CD JUMP JUMPDEST PUSH2 0x14B4 SWAP1 DUP7 RETURNDATASIZE DUP9 GT PUSH2 0x40B JUMPI PUSH2 0x3FB DUP2 DUP4 PUSH2 0x1F3E JUMP JUMPDEST POP PUSH0 PUSH2 0x1495 JUMP JUMPDEST DUP8 MLOAD RETURNDATASIZE DUP8 DUP3 RETURNDATACOPY RETURNDATASIZE SWAP1 REVERT JUMPDEST SWAP7 POP SWAP2 SWAP1 POP DUP6 DUP2 RETURNDATASIZE DUP4 GT PUSH2 0x14F3 JUMPI JUMPDEST PUSH2 0x14DE DUP2 DUP4 PUSH2 0x1F3E JUMP JUMPDEST DUP2 ADD SUB SLT PUSH2 0xA1D JUMPI SWAP4 MLOAD DUP8 SWAP5 DUP7 SWAP2 SWAP1 DUP7 PUSH2 0x13C2 JUMP JUMPDEST POP RETURNDATASIZE PUSH2 0x14D4 JUMP JUMPDEST DUP9 MLOAD RETURNDATASIZE DUP9 DUP3 RETURNDATACOPY RETURNDATASIZE SWAP1 REVERT JUMPDEST SWAP1 DUP1 SWAP3 SWAP7 POP RETURNDATASIZE DUP4 GT PUSH2 0x152C JUMPI JUMPDEST PUSH2 0x151B DUP2 DUP4 PUSH2 0x1F3E JUMP JUMPDEST DUP2 ADD SUB SLT PUSH2 0xA1D JUMPI DUP7 SWAP4 DUP6 PUSH0 PUSH2 0x1389 JUMP JUMPDEST POP RETURNDATASIZE PUSH2 0x1511 JUMP JUMPDEST SWAP3 DUP1 SWAP3 SWAP9 POP DUP4 SWAP2 POP RETURNDATASIZE DUP4 GT PUSH2 0x1560 JUMPI JUMPDEST PUSH2 0x154D DUP2 DUP4 PUSH2 0x1F3E JUMP JUMPDEST DUP2 ADD SUB SLT PUSH2 0xA1D JUMPI MLOAD DUP9 SWAP6 DUP8 SWAP2 DUP8 PUSH2 0x134A JUMP JUMPDEST POP RETURNDATASIZE PUSH2 0x1543 JUMP JUMPDEST DUP10 MLOAD RETURNDATASIZE DUP10 DUP3 RETURNDATACOPY RETURNDATASIZE SWAP1 REVERT JUMPDEST SWAP7 POP SWAP1 POP DUP7 DUP7 DUP2 RETURNDATASIZE DUP2 GT PUSH2 0x159C JUMPI JUMPDEST PUSH2 0x158A DUP2 DUP4 PUSH2 0x1F3E JUMP JUMPDEST DUP2 ADD SUB SLT PUSH2 0xA1D JUMPI DUP9 SWAP6 MLOAD SWAP1 PUSH0 PUSH2 0x1322 JUMP JUMPDEST POP RETURNDATASIZE PUSH2 0x1580 JUMP JUMPDEST PUSH2 0x15AC SWAP1 PUSH2 0x1F16 JUMP JUMPDEST PUSH2 0x39F JUMPI DUP5 PUSH0 PUSH2 0x12F6 JUMP JUMPDEST PUSH2 0x15CD SWAP1 DUP8 RETURNDATASIZE DUP10 GT PUSH2 0x40B JUMPI PUSH2 0x3FB DUP2 DUP4 PUSH2 0x1F3E JUMP JUMPDEST POP PUSH0 PUSH2 0x12AE JUMP JUMPDEST DUP8 MLOAD PUSH3 0x461BCD PUSH1 0xE5 SHL DUP2 MSTORE DUP1 DUP8 ADD DUP9 SWAP1 MSTORE PUSH1 0x29 DUP2 DUP8 ADD MSTORE PUSH32 0x496E73756666696369656E7420746F6B656E2062616C616E636520666F722072 PUSH1 0x44 DUP3 ADD MSTORE PUSH9 0x32B830BCB6B2B73A17 PUSH1 0xB9 SHL PUSH1 0x64 DUP3 ADD MSTORE PUSH1 0x84 SWAP1 REVERT JUMPDEST SWAP1 POP DUP9 DUP2 DUP2 RETURNDATASIZE DUP4 GT PUSH2 0x164E JUMPI JUMPDEST PUSH2 0x163F DUP2 DUP4 PUSH2 0x1F3E JUMP JUMPDEST DUP2 ADD SUB SLT PUSH2 0xA1D JUMPI MLOAD PUSH0 PUSH2 0x1255 JUMP JUMPDEST POP RETURNDATASIZE PUSH2 0x1635 JUMP JUMPDEST DUP11 MLOAD RETURNDATASIZE DUP14 DUP3 RETURNDATACOPY RETURNDATASIZE SWAP1 REVERT JUMPDEST DUP7 MLOAD PUSH3 0x461BCD PUSH1 0xE5 SHL DUP2 MSTORE DUP1 DUP7 ADD DUP8 SWAP1 MSTORE PUSH1 0x2B PUSH1 0x24 DUP3 ADD MSTORE PUSH32 0x496E73756666696369656E7420746F6B656E20616C6C6F77616E636520666F72 PUSH1 0x44 DUP3 ADD MSTORE PUSH11 0x103932B830BCB6B2B73A17 PUSH1 0xA9 SHL PUSH1 0x64 DUP3 ADD MSTORE PUSH1 0x84 SWAP1 REVERT JUMPDEST DUP1 SWAP3 POP DUP9 DUP1 SWAP3 POP RETURNDATASIZE DUP4 GT PUSH2 0x16E0 JUMPI JUMPDEST PUSH2 0x16CF DUP2 DUP4 PUSH2 0x1F3E JUMP JUMPDEST DUP2 ADD SUB SLT PUSH2 0xA1D JUMPI DUP3 SWAP1 MLOAD PUSH0 PUSH2 0x1223 JUMP JUMPDEST POP RETURNDATASIZE PUSH2 0x16C5 JUMP JUMPDEST DUP9 MLOAD RETURNDATASIZE DUP12 DUP3 RETURNDATACOPY RETURNDATASIZE SWAP1 REVERT JUMPDEST PUSH1 0x84 SWAP1 PUSH1 0x20 DUP5 MLOAD SWAP2 PUSH3 0x461BCD PUSH1 0xE5 SHL DUP4 MSTORE DUP3 ADD MSTORE PUSH1 0x2E PUSH1 0x24 DUP3 ADD MSTORE PUSH32 0x4C6F616E206D7573742062652061637469766520746F2070726F636565642077 PUSH1 0x44 DUP3 ADD MSTORE PUSH14 0x34BA34103932B830BCB6B2B73A17 PUSH1 0x91 SHL PUSH1 0x64 DUP3 ADD MSTORE REVERT JUMPDEST PUSH4 0x4E487B71 PUSH1 0xE0 SHL DUP6 MSTORE PUSH1 0x21 DUP3 MSTORE PUSH1 0x24 DUP6 REVERT JUMPDEST PUSH1 0x84 SWAP1 PUSH1 0x20 DUP5 MLOAD SWAP2 PUSH3 0x461BCD PUSH1 0xE5 SHL DUP4 MSTORE DUP3 ADD MSTORE PUSH1 0x29 PUSH1 0x24 DUP3 ADD MSTORE PUSH32 0x4F6E6C792074686520626F72726F7765722063616E20696E6974696174652072 PUSH1 0x44 DUP3 ADD MSTORE PUSH9 0x32B830BCB6B2B73A17 PUSH1 0xB9 SHL PUSH1 0x64 DUP3 ADD MSTORE REVERT JUMPDEST SWAP1 POP CALLVALUE PUSH2 0x537 JUMPI DUP3 PUSH1 0x3 NOT CALLDATASIZE ADD SLT PUSH2 0x537 JUMPI DUP1 SLOAD PUSH1 0xFF DUP2 PUSH1 0xA0 SHR AND PUSH1 0x6 DUP2 LT ISZERO PUSH2 0x1AE8 JUMPI PUSH1 0x2 SUB PUSH2 0x1AB0 JUMPI PUSH2 0x17ED PUSH1 0xF SLOAD PUSH1 0xB SLOAD SWAP1 PUSH2 0x1F99 JUMP JUMPDEST TIMESTAMP LT ISZERO PUSH2 0x17F8 JUMPI DUP4 DUP1 RETURN JUMPDEST PUSH1 0xFF PUSH1 0xA0 SHL NOT AND PUSH1 0x3 PUSH1 0xA0 SHL OR DUP2 SSTORE PUSH1 0x2 SLOAD PUSH1 0x1 PUSH1 0x1 PUSH1 0xA0 SHL SUB SWAP3 SWAP1 DUP4 AND DUP1 EXTCODESIZE ISZERO PUSH2 0x39F JUMPI DUP2 MLOAD DUP6 DUP2 PUSH1 0x44 DUP2 DUP4 PUSH4 0xA956239B PUSH1 0xE0 SHL SWAP7 DUP8 DUP4 MSTORE ADDRESS DUP11 DUP5 ADD MSTORE PUSH1 0x3 PUSH1 0x24 DUP5 ADD MSTORE GAS CALL DUP1 ISZERO PUSH2 0x1AA6 JUMPI PUSH2 0x1A8F JUMPI JUMPDEST POP SWAP1 DUP5 SWAP3 SWAP2 DUP5 PUSH1 0x8 SLOAD AND DUP6 PUSH1 0xE SLOAD AND DUP4 MLOAD PUSH4 0x70A08231 PUSH1 0xE0 SHL DUP2 MSTORE DUP2 DUP7 DUP3 ADD MSTORE PUSH1 0x20 SWAP3 DUP4 DUP3 PUSH1 0x24 DUP2 DUP5 GAS STATICCALL SWAP2 DUP3 ISZERO PUSH2 0x1A53 JUMPI DUP9 SWAP3 PUSH2 0x1A5D JUMPI JUMPDEST POP DUP6 MLOAD SWAP2 PUSH4 0x63737AC9 PUSH1 0xE1 SHL DUP4 MSTORE DUP8 DUP4 ADD MSTORE DUP4 DUP3 PUSH1 0x24 DUP2 DUP5 GAS STATICCALL SWAP2 DUP3 ISZERO PUSH2 0x1A53 JUMPI DUP9 SWAP3 PUSH2 0x1A21 JUMPI JUMPDEST POP PUSH1 0x5 SLOAD DUP7 MLOAD PUSH4 0x5D043B29 PUSH1 0xE1 SHL DUP2 MSTORE DUP1 DUP10 ADD SWAP4 DUP5 MSTORE PUSH1 0x1 PUSH1 0x1 PUSH1 0xA0 SHL SUB SWAP2 DUP12 AND DUP3 AND PUSH1 0x20 DUP6 ADD MSTORE SWAP4 AND PUSH1 0x40 DUP4 ADD MSTORE DUP4 SWAP2 DUP4 SWAP2 SWAP1 DUP3 SWAP1 DUP11 SWAP1 DUP3 SWAP1 PUSH1 0x60 ADD SUB SWAP3 GAS CALL DUP1 ISZERO PUSH2 0x3B7 JUMPI PUSH2 0x19F2 JUMPI JUMPDEST POP POP DUP5 PUSH1 0x3 SLOAD AND DUP6 PUSH1 0x5 SLOAD AND SWAP1 DUP1 EXTCODESIZE ISZERO PUSH2 0x9B4 JUMPI DUP4 MLOAD PUSH4 0x389E0067 PUSH1 0xE1 SHL DUP2 MSTORE ADDRESS DUP7 DUP3 ADD SWAP1 DUP2 MSTORE PUSH1 0x1 PUSH1 0x1 PUSH1 0xA0 SHL SUB SWAP1 SWAP4 AND PUSH1 0x20 DUP5 ADD MSTORE SWAP2 DUP7 SWAP2 DUP4 SWAP2 DUP3 SWAP1 DUP5 SWAP1 DUP3 SWAP1 PUSH1 0x40 ADD SUB SWAP3 GAS CALL DUP1 ISZERO PUSH2 0x3DA JUMPI SWAP1 DUP6 SWAP2 PUSH2 0x19DE JUMPI JUMPDEST POP POP PUSH2 0x1958 PUSH2 0x1FBA JUMP JUMPDEST DUP5 PUSH1 0x2 SLOAD AND SWAP3 DUP4 EXTCODESIZE ISZERO PUSH2 0x39F JUMPI DUP3 MLOAD SWAP2 DUP3 MSTORE ADDRESS SWAP1 DUP3 ADD SWAP1 DUP2 MSTORE PUSH1 0x5 PUSH1 0x20 DUP3 ADD MSTORE SWAP1 SWAP3 DUP5 SWAP2 DUP5 SWAP2 SWAP1 DUP3 SWAP1 DUP5 SWAP1 DUP3 SWAP1 PUSH1 0x40 ADD SUB SWAP3 GAS CALL SWAP1 DUP2 ISZERO PUSH2 0x396 JUMPI POP PUSH2 0x19CA JUMPI JUMPDEST POP POP PUSH1 0xE SLOAD AND PUSH32 0xF4E5CF42CBB1D0C6C91E16D925349FEB6C5D970652F6EC77B1FF1262F7284CD5 DUP3 DUP1 LOG2 PUSH0 DUP1 DUP1 DUP4 DUP1 RETURN JUMPDEST PUSH2 0x19D3 SWAP1 PUSH2 0x1F16 JUMP JUMPDEST PUSH2 0x193 JUMPI DUP2 PUSH0 PUSH2 0x1999 JUMP JUMPDEST PUSH2 0x19E7 SWAP1 PUSH2 0x1F16 JUMP JUMPDEST PUSH2 0xF8B JUMPI DUP4 PUSH0 PUSH2 0x194E JUMP JUMPDEST SWAP1 DUP1 SWAP3 SWAP6 POP RETURNDATASIZE DUP4 GT PUSH2 0x1A1A JUMPI JUMPDEST PUSH2 0x1A09 DUP2 DUP4 PUSH2 0x1F3E JUMP JUMPDEST DUP2 ADD SUB SLT PUSH2 0xA1D JUMPI DUP5 SWAP3 PUSH0 DUP1 PUSH2 0x18F7 JUMP JUMPDEST POP RETURNDATASIZE PUSH2 0x19FF JUMP JUMPDEST DUP5 DUP1 SWAP3 SWAP10 POP DUP2 SWAP4 POP RETURNDATASIZE DUP4 GT PUSH2 0x1A4C JUMPI JUMPDEST PUSH2 0x1A3B DUP2 DUP4 PUSH2 0x1F3E JUMP JUMPDEST DUP2 ADD SUB SLT PUSH2 0xA1D JUMPI MLOAD DUP9 SWAP7 DUP4 PUSH2 0x18AB JUMP JUMPDEST POP RETURNDATASIZE PUSH2 0x1A31 JUMP JUMPDEST DUP7 MLOAD RETURNDATASIZE DUP11 DUP3 RETURNDATACOPY RETURNDATASIZE SWAP1 REVERT JUMPDEST SWAP8 POP SWAP1 POP DUP3 DUP8 DUP2 RETURNDATASIZE DUP2 GT PUSH2 0x1A88 JUMPI JUMPDEST PUSH2 0x1A76 DUP2 DUP4 PUSH2 0x1F3E JUMP JUMPDEST DUP2 ADD SUB SLT PUSH2 0xA1D JUMPI DUP9 SWAP7 MLOAD SWAP1 PUSH0 PUSH2 0x1883 JUMP JUMPDEST POP RETURNDATASIZE PUSH2 0x1A6C JUMP JUMPDEST PUSH2 0x1A9D SWAP1 SWAP6 SWAP2 SWAP4 SWAP3 SWAP6 PUSH2 0x1F16 JUMP JUMPDEST SWAP4 SWAP1 SWAP2 PUSH0 PUSH2 0x184A JUMP JUMPDEST DUP4 MLOAD RETURNDATASIZE DUP9 DUP3 RETURNDATACOPY RETURNDATASIZE SWAP1 REVERT JUMPDEST POP PUSH1 0x20 PUSH1 0x64 SWAP3 MLOAD SWAP2 PUSH3 0x461BCD PUSH1 0xE5 SHL DUP4 MSTORE DUP3 ADD MSTORE PUSH1 0x12 PUSH1 0x24 DUP3 ADD MSTORE PUSH18 0x4C6F616E206973206E6F7420616374697665 PUSH1 0x70 SHL PUSH1 0x44 DUP3 ADD MSTORE REVERT JUMPDEST PUSH4 0x4E487B71 PUSH1 0xE0 SHL DUP6 MSTORE PUSH1 0x21 DUP4 MSTORE PUSH1 0x24 DUP6 REVERT JUMPDEST DUP4 DUP4 CALLVALUE PUSH2 0x193 JUMPI DUP1 PUSH1 0x3 NOT CALLDATASIZE ADD SLT PUSH2 0x193 JUMPI PUSH2 0x1B15 PUSH2 0x1CF9 JUMP JUMPDEST SWAP1 CALLER PUSH1 0x1 PUSH1 0x1 PUSH1 0xA0 SHL SUB DUP4 AND SUB PUSH2 0x1B32 JUMPI POP PUSH2 0x533 SWAP2 SWAP3 CALLDATALOAD PUSH2 0x1EA1 JUMP JUMPDEST MLOAD PUSH4 0x334BD919 PUSH1 0xE1 SHL DUP2 MSTORE DUP4 SWAP1 REVERT JUMPDEST SWAP2 SWAP1 POP CALLVALUE PUSH2 0x537 JUMPI DUP1 PUSH1 0x3 NOT CALLDATASIZE ADD SLT PUSH2 0x537 JUMPI PUSH2 0x533 SWAP2 CALLDATALOAD PUSH2 0x1B66 PUSH1 0x1 PUSH2 0x51D PUSH2 0x1CF9 JUMP JUMPDEST PUSH2 0x1E28 JUMP JUMPDEST POP POP CALLVALUE PUSH2 0x193 JUMPI DUP2 PUSH1 0x3 NOT CALLDATASIZE ADD SLT PUSH2 0x193 JUMPI PUSH1 0x20 SWAP1 PUSH1 0x10 SLOAD SWAP1 MLOAD SWAP1 DUP2 MSTORE RETURN JUMPDEST SWAP1 POP CALLVALUE PUSH2 0x537 JUMPI PUSH1 0x20 CALLDATASIZE PUSH1 0x3 NOT ADD SLT PUSH2 0x537 JUMPI DUP2 PUSH1 0x20 SWAP4 PUSH1 0x1 SWAP3 CALLDATALOAD DUP2 MSTORE DUP3 DUP6 MSTORE KECCAK256 ADD SLOAD SWAP1 MLOAD SWAP1 DUP2 MSTORE RETURN JUMPDEST POP POP CALLVALUE PUSH2 0x193 JUMPI DUP2 PUSH1 0x3 NOT CALLDATASIZE ADD SLT PUSH2 0x193 JUMPI PUSH1 0xE SLOAD SWAP1 MLOAD PUSH1 0x1 PUSH1 0x1 PUSH1 0xA0 SHL SUB SWAP1 SWAP2 AND DUP2 MSTORE PUSH1 0x20 SWAP1 RETURN JUMPDEST SWAP1 POP CALLVALUE PUSH2 0x537 JUMPI DUP3 PUSH1 0x3 NOT CALLDATASIZE ADD SLT PUSH2 0x537 JUMPI SLOAD SWAP1 MLOAD PUSH1 0x1 PUSH1 0x1 PUSH1 0xA0 SHL SUB SWAP1 SWAP2 AND DUP2 MSTORE PUSH1 0x20 SWAP2 POP RETURN JUMPDEST POP POP CALLVALUE PUSH2 0x193 JUMPI DUP2 PUSH1 0x3 NOT CALLDATASIZE ADD SLT PUSH2 0x193 JUMPI PUSH1 0x20 SWAP1 MLOAD PUSH32 0x2344277E405079EC07749D374BA0B5862A4E45A6A05AC889DBB4A991C6F9354D DUP2 MSTORE RETURN JUMPDEST POP POP CALLVALUE PUSH2 0x193 JUMPI DUP2 PUSH1 0x3 NOT CALLDATASIZE ADD SLT PUSH2 0x193 JUMPI PUSH1 0x7 SLOAD SWAP1 MLOAD PUSH1 0x1 PUSH1 0x1 PUSH1 0xA0 SHL SUB SWAP1 SWAP2 AND DUP2 MSTORE PUSH1 0x20 SWAP1 RETURN JUMPDEST SWAP1 POP CALLVALUE PUSH2 0x537 JUMPI PUSH1 0x20 CALLDATASIZE PUSH1 0x3 NOT ADD SLT PUSH2 0x537 JUMPI CALLDATALOAD SWAP1 PUSH4 0xFFFFFFFF PUSH1 0xE0 SHL DUP3 AND DUP1 SWAP3 SUB PUSH2 0x537 JUMPI PUSH1 0x20 SWAP3 POP PUSH4 0x7965DB0B PUSH1 0xE0 SHL DUP3 EQ SWAP2 DUP3 ISZERO PUSH2 0x1CAE JUMPI JUMPDEST POP MLOAD SWAP1 ISZERO ISZERO DUP2 MSTORE RETURN JUMPDEST PUSH4 0x1FFC9A7 PUSH1 0xE0 SHL EQ SWAP2 POP PUSH0 PUSH2 0x1CA5 JUMP JUMPDEST DUP5 SWAP1 CALLVALUE PUSH2 0x193 JUMPI DUP2 PUSH1 0x3 NOT CALLDATASIZE ADD SLT PUSH2 0x193 JUMPI DUP1 PUSH32 0xC60D7A62D8843F2B14BC63F2A5240B187980481AD8C001A3CAF4916AEF3F667E PUSH1 0x20 SWAP3 MSTORE RETURN JUMPDEST PUSH1 0x24 CALLDATALOAD SWAP1 PUSH1 0x1 PUSH1 0x1 PUSH1 0xA0 SHL SUB DUP3 AND DUP3 SUB PUSH2 0xA1D JUMPI JUMP JUMPDEST SWAP2 SWAP1 PUSH1 0x20 DUP4 ADD SWAP3 PUSH1 0x6 DUP3 LT ISZERO PUSH2 0x1D22 JUMPI MSTORE JUMP JUMPDEST PUSH4 0x4E487B71 PUSH1 0xE0 SHL PUSH0 MSTORE PUSH1 0x21 PUSH1 0x4 MSTORE PUSH1 0x24 PUSH0 REVERT JUMPDEST DUP1 PUSH0 MSTORE PUSH1 0x1 PUSH1 0x20 MSTORE PUSH1 0x40 PUSH0 KECCAK256 CALLER PUSH0 MSTORE PUSH1 0x20 MSTORE PUSH1 0xFF PUSH1 0x40 PUSH0 KECCAK256 SLOAD AND ISZERO PUSH2 0x1D58 JUMPI POP JUMP JUMPDEST PUSH1 0x44 SWAP1 PUSH1 0x40 MLOAD SWAP1 PUSH4 0xE2517D3F PUSH1 0xE0 SHL DUP3 MSTORE CALLER PUSH1 0x4 DUP4 ADD MSTORE PUSH1 0x24 DUP3 ADD MSTORE REVERT JUMPDEST PUSH1 0x1 PUSH1 0x1 PUSH1 0xA0 SHL SUB AND PUSH0 DUP2 DUP2 MSTORE PUSH32 0x37796693C9136991966ECABEB225DDDF75F7AE82D42C98571AFC1843B5B26ACD PUSH1 0x20 MSTORE PUSH1 0x40 DUP2 KECCAK256 SLOAD SWAP1 SWAP2 SWAP1 PUSH32 0x2344277E405079EC07749D374BA0B5862A4E45A6A05AC889DBB4A991C6F9354D SWAP1 PUSH1 0xFF AND PUSH2 0x1E23 JUMPI DUP1 DUP4 MSTORE PUSH1 0x1 PUSH1 0x20 MSTORE PUSH1 0x40 DUP4 KECCAK256 DUP3 DUP5 MSTORE PUSH1 0x20 MSTORE PUSH1 0x40 DUP4 KECCAK256 PUSH1 0x1 PUSH1 0xFF NOT DUP3 SLOAD AND OR SWAP1 SSTORE PUSH32 0x2F8788117E7EFF1D82E926EC794901D17C78024A50270940304540A733656F0D CALLER SWAP4 DUP1 LOG4 PUSH1 0x1 SWAP1 JUMP JUMPDEST POP POP SWAP1 JUMP JUMPDEST SWAP1 PUSH0 SWAP2 DUP1 DUP4 MSTORE PUSH1 0x1 PUSH1 0x20 MSTORE PUSH1 0x40 DUP4 KECCAK256 SWAP2 PUSH1 0x1 DUP1 PUSH1 0xA0 SHL SUB AND SWAP2 DUP3 DUP5 MSTORE PUSH1 0x20 MSTORE PUSH1 0xFF PUSH1 0x40 DUP5 KECCAK256 SLOAD AND ISZERO PUSH0 EQ PUSH2 0x1E23 JUMPI DUP1 DUP4 MSTORE PUSH1 0x1 PUSH1 0x20 MSTORE PUSH1 0x40 DUP4 KECCAK256 DUP3 DUP5 MSTORE PUSH1 0x20 MSTORE PUSH1 0x40 DUP4 KECCAK256 PUSH1 0x1 PUSH1 0xFF NOT DUP3 SLOAD AND OR SWAP1 SSTORE PUSH32 0x2F8788117E7EFF1D82E926EC794901D17C78024A50270940304540A733656F0D CALLER SWAP4 DUP1 LOG4 PUSH1 0x1 SWAP1 JUMP JUMPDEST SWAP1 PUSH0 SWAP2 DUP1 DUP4 MSTORE PUSH1 0x1 PUSH1 0x20 MSTORE PUSH1 0x40 DUP4 KECCAK256 SWAP2 PUSH1 0x1 DUP1 PUSH1 0xA0 SHL SUB AND SWAP2 DUP3 DUP5 MSTORE PUSH1 0x20 MSTORE PUSH1 0xFF PUSH1 0x40 DUP5 KECCAK256 SLOAD AND PUSH0 EQ PUSH2 0x1E23 JUMPI DUP1 DUP4 MSTORE PUSH1 0x1 PUSH1 0x20 MSTORE PUSH1 0x40 DUP4 KECCAK256 DUP3 DUP5 MSTORE PUSH1 0x20 MSTORE PUSH1 0x40 DUP4 KECCAK256 PUSH1 0xFF NOT DUP2 SLOAD AND SWAP1 SSTORE PUSH32 0xF6391F5C32D9C69D2A47EA670B442974B53935D1EDC7FD64EB21E047A839171B CALLER SWAP4 DUP1 LOG4 PUSH1 0x1 SWAP1 JUMP JUMPDEST PUSH8 0xFFFFFFFFFFFFFFFF DUP2 GT PUSH2 0x1F2A JUMPI PUSH1 0x40 MSTORE JUMP JUMPDEST PUSH4 0x4E487B71 PUSH1 0xE0 SHL PUSH0 MSTORE PUSH1 0x41 PUSH1 0x4 MSTORE PUSH1 0x24 PUSH0 REVERT JUMPDEST SWAP1 PUSH1 0x1F DUP1 NOT SWAP2 ADD AND DUP2 ADD SWAP1 DUP2 LT PUSH8 0xFFFFFFFFFFFFFFFF DUP3 GT OR PUSH2 0x1F2A JUMPI PUSH1 0x40 MSTORE JUMP JUMPDEST PUSH1 0x2 PUSH0 SLOAD EQ PUSH2 0x1F6F JUMPI PUSH1 0x2 PUSH0 SSTORE JUMP JUMPDEST PUSH1 0x40 MLOAD PUSH4 0x3EE5AEB5 PUSH1 0xE0 SHL DUP2 MSTORE PUSH1 0x4 SWAP1 REVERT JUMPDEST SWAP1 DUP2 PUSH1 0x20 SWAP2 SUB SLT PUSH2 0xA1D JUMPI MLOAD DUP1 ISZERO ISZERO DUP2 SUB PUSH2 0xA1D JUMPI SWAP1 JUMP JUMPDEST SWAP2 SWAP1 DUP3 ADD DUP1 SWAP3 GT PUSH2 0x1FA6 JUMPI JUMP JUMPDEST PUSH4 0x4E487B71 PUSH1 0xE0 SHL PUSH0 MSTORE PUSH1 0x11 PUSH1 0x4 MSTORE PUSH1 0x24 PUSH0 REVERT JUMPDEST PUSH1 0x4 DUP1 SLOAD PUSH1 0xFF PUSH1 0xA0 SHL NOT AND PUSH1 0x5 PUSH1 0xA0 SHL OR DUP2 SSTORE PUSH1 0x2 SLOAD PUSH0 SWAP2 PUSH1 0x1 PUSH1 0x1 PUSH1 0xA0 SHL SUB SWAP2 DUP3 AND SWAP1 DUP2 EXTCODESIZE ISZERO PUSH2 0xF8B JUMPI PUSH1 0x40 DUP1 MLOAD PUSH4 0xA956239B PUSH1 0xE0 SHL DUP2 MSTORE ADDRESS DUP4 DUP3 ADD SWAP1 DUP2 MSTORE PUSH1 0x5 PUSH1 0x20 DUP3 ADD MSTORE SWAP2 SWAP4 SWAP1 SWAP2 DUP7 SWAP2 DUP4 SWAP2 DUP3 SWAP1 DUP5 SWAP1 DUP3 SWAP1 DUP10 ADD SUB SWAP3 GAS CALL DUP1 ISZERO PUSH2 0x3DA JUMPI PUSH2 0x2122 JUMPI JUMPDEST POP DUP3 PUSH1 0x3 SLOAD AND DUP1 EXTCODESIZE ISZERO PUSH2 0x39F JUMPI DUP5 DUP1 SWAP2 PUSH1 0x24 DUP6 MLOAD DUP1 SWAP5 DUP2 SWAP4 PUSH4 0x38E270ED PUSH1 0xE0 SHL DUP4 MSTORE ADDRESS DUP9 DUP5 ADD MSTORE GAS CALL DUP1 ISZERO PUSH2 0x3DA JUMPI SWAP1 DUP6 SWAP2 PUSH2 0x210E JUMPI JUMPDEST POP POP DUP3 DUP2 SLOAD AND SWAP3 DUP4 EXTCODESIZE ISZERO PUSH2 0x39F JUMPI DUP3 MLOAD DUP6 DUP2 PUSH1 0x24 DUP2 DUP4 PUSH4 0x7E72C7D7 PUSH1 0xE0 SHL SWAP10 DUP11 DUP4 MSTORE ADDRESS DUP10 DUP5 ADD MSTORE GAS CALL DUP1 ISZERO PUSH2 0x3B7 JUMPI SWAP1 DUP7 SWAP2 PUSH2 0x20FA JUMPI JUMPDEST POP POP PUSH1 0x2 SLOAD AND SWAP3 DUP4 EXTCODESIZE ISZERO PUSH2 0x39F JUMPI SWAP1 PUSH1 0x24 DUP6 SWAP3 DUP4 DUP6 MLOAD SWAP7 DUP8 SWAP5 DUP6 SWAP4 DUP5 MSTORE ADDRESS SWAP1 DUP5 ADD MSTORE GAS CALL SWAP1 DUP2 ISZERO PUSH2 0x396 JUMPI POP PUSH2 0x20E6 JUMPI JUMPDEST POP DUP1 PUSH32 0x409FCED1B85AE32A29FB1E18894D8361A5F2653DC27ADF7102D86175C2901D7C SWAP2 LOG1 JUMP JUMPDEST PUSH2 0x20F0 DUP3 SWAP2 PUSH2 0x1F16 JUMP JUMPDEST PUSH2 0x393 JUMPI PUSH0 PUSH2 0x20BF JUMP JUMPDEST PUSH2 0x2103 SWAP1 PUSH2 0x1F16 JUMP JUMPDEST PUSH2 0x39F JUMPI DUP5 PUSH0 PUSH2 0x208E JUMP JUMPDEST PUSH2 0x2117 SWAP1 PUSH2 0x1F16 JUMP JUMPDEST PUSH2 0xF8B JUMPI DUP4 PUSH0 PUSH2 0x2057 JUMP JUMPDEST PUSH2 0x212E SWAP1 SWAP5 SWAP2 SWAP5 PUSH2 0x1F16 JUMP JUMPDEST SWAP3 PUSH0 PUSH2 0x2020 JUMP JUMPDEST PUSH1 0xD SLOAD PUSH1 0x9 SLOAD PUSH1 0xA SLOAD PUSH1 0x40 MLOAD PUSH4 0xEFDD7C07 PUSH1 0xE0 SHL DUP2 MSTORE PUSH1 0x4 DUP2 ADD SWAP3 SWAP1 SWAP3 MSTORE PUSH1 0x24 DUP3 ADD MSTORE SWAP1 PUSH1 0x20 SWAP1 DUP3 SWAP1 PUSH1 0x44 SWAP1 DUP3 SWAP1 PUSH1 0x1 PUSH1 0x1 PUSH1 0xA0 SHL SUB AND GAS STATICCALL SWAP1 DUP2 ISZERO PUSH2 0x21AD JUMPI PUSH0 SWAP2 PUSH2 0x217F JUMPI POP SWAP1 JUMP JUMPDEST SWAP1 PUSH1 0x20 DUP3 RETURNDATASIZE DUP3 GT PUSH2 0x21A5 JUMPI JUMPDEST DUP2 PUSH2 0x2198 PUSH1 0x20 SWAP4 DUP4 PUSH2 0x1F3E JUMP JUMPDEST DUP2 ADD SUB SLT PUSH2 0x393 JUMPI POP MLOAD SWAP1 JUMP JUMPDEST RETURNDATASIZE SWAP2 POP PUSH2 0x218B JUMP JUMPDEST PUSH1 0x40 MLOAD RETURNDATASIZE PUSH0 DUP3 RETURNDATACOPY RETURNDATASIZE SWAP1 REVERT JUMPDEST PUSH1 0xFF PUSH1 0x4 SLOAD PUSH1 0xA0 SHR AND PUSH1 0x6 DUP2 LT ISZERO PUSH2 0x1D22 JUMPI PUSH1 0x2 SUB PUSH2 0x21FA JUMPI PUSH2 0x21E0 PUSH1 0xF SLOAD PUSH1 0xB SLOAD SWAP1 PUSH2 0x1F99 JUMP JUMPDEST DUP1 TIMESTAMP LT ISZERO PUSH2 0x21F5 JUMPI TIMESTAMP DUP2 SUB SWAP1 DUP2 GT PUSH2 0x1FA6 JUMPI SWAP1 JUMP JUMPDEST POP PUSH0 SWAP1 JUMP JUMPDEST PUSH0 SWAP1 JUMP INVALID LOG2 PUSH5 0x6970667358 0x22 SLT KECCAK256 PUSH31 0x5FB2FA234DC1E3971BBFB7A31E4FFA22E1BD8EACDE5A2348C06274AF0D50C PUSH5 0x736F6C6343 STOP ADDMOD EQ STOP CALLER 0x2F DUP8 DUP9 GT PUSH31 0x7EFF1D82E926EC794901D17C78024A50270940304540A733656F0D00000000 "
		},
		"gasEstimates": {
			"creation": {
				"codeDepositCost": "1751200",
				"executionCost": "infinite",
				"totalCost": "infinite"
			},
			"external": {
				"BORROWER_ROLE()": "239",
				"DEFAULT_ADMIN_ROLE()": "679",
				"LENDER_ROLE()": "170",
				"activateLoan()": "infinite",
				"calculateInterest()": "infinite",
				"calculateRequiredCollateral()": "infinite",
				"checkAndHandleDefault()": "infinite",
				"fundLoan()": "infinite",
				"getBorrower()": "2410",
				"getCollateralAmount(address)": "infinite",
				"getFundedBlock()": "2433",
				"getInterestRate()": "2543",
				"getLender()": "2762",
				"getLoanAmount()": "2934",
				"getLoanState()": "2857",
				"getRemainingRepaymentPeriod()": "7035",
				"getRepaymentPeriod()": "2565",
				"getRepaymentToken()": "2344",
				"getRoleAdmin(bytes32)": "2481",
				"grantRole(bytes32,address)": "33411",
				"hasRole(bytes32,address)": "2925",
				"loanDetails()": "26095",
				"poolOrganizer()": "2872",
				"reclaimLoanAndClosePool()": "infinite",
				"renounceRole(bytes32,address)": "29025",
				"repay()": "infinite",
				"revokeRole(bytes32,address)": "33820",
				"rewardManager()": "2388",
				"state()": "2923",
				"supportsInterface(bytes4)": "318",
				"vaultManager()": "2674"
			},
			"internal": {
				"_checkPreconditions()": "infinite",
				"_closeLoan()": "infinite",
				"_disburseLoan()": "infinite",
				"_finalizeActivation()": "infinite",
				"_handleCollateral()": "infinite",
				"_handleDefault()": "infinite",
				"_isPastDue()": "infinite",
				"_redeemCollateralToLender()": "infinite",
				"_refundRemainingInterest()": "infinite",
				"_releaseCollateral()": "infinite",
				"_transferFunds(address,uint256)": "infinite",
				"_transitionToClosed()": "infinite",
				"_updateLoanStateToRepaid()": "infinite",
				"_validateRepayment(uint256)": "infinite"
			}
		},
		"methodIdentifiers": {
			"BORROWER_ROLE()": "0e7b949e",
			"DEFAULT_ADMIN_ROLE()": "a217fddf",
			"LENDER_ROLE()": "00abafe1",
			"activateLoan()": "b2a9bb60",
			"calculateInterest()": "eb0c4955",
			"calculateRequiredCollateral()": "6b6d1955",
			"checkAndHandleDefault()": "3b1baeff",
			"fundLoan()": "8db57994",
			"getBorrower()": "1cb0c3e7",
			"getCollateralAmount(address)": "654c6295",
			"getFundedBlock()": "2e1283e3",
			"getInterestRate()": "5257b566",
			"getLender()": "9861f3e5",
			"getLoanAmount()": "f4b01b18",
			"getLoanState()": "9e9f669c",
			"getRemainingRepaymentPeriod()": "6c44cf19",
			"getRepaymentPeriod()": "64c4bec0",
			"getRepaymentToken()": "0c7277de",
			"getRoleAdmin(bytes32)": "248a9ca3",
			"grantRole(bytes32,address)": "2f2ff15d",
			"hasRole(bytes32,address)": "91d14854",
			"loanDetails()": "95cb741d",
			"poolOrganizer()": "c51b9507",
			"reclaimLoanAndClosePool()": "d724a4c0",
			"renounceRole(bytes32,address)": "36568abe",
			"repay()": "402d8883",
			"revokeRole(bytes32,address)": "d547741f",
			"rewardManager()": "0f4ef8a6",
			"state()": "c19d93fb",
			"supportsInterface(bytes4)": "01ffc9a7",
			"vaultManager()": "8a4adf24"
		}
	},
	"abi": [
		{
			"inputs": [
				{
					"internalType": "address",
					"name": "lender",
					"type": "address"
				},
				{
					"internalType": "contract IERC20",
					"name": "loanTokenAddress",
					"type": "address"
				},
				{
					"internalType": "contract IERC20",
					"name": "repaymentTokenAddress",
					"type": "address"
				},
				{
					"internalType": "address",
					"name": "collateralVaultAddress",
					"type": "address"
				},
				{
					"internalType": "uint256",
					"name": "loanAmount",
					"type": "uint256"
				},
				{
					"internalType": "uint256",
					"name": "interestRate",
					"type": "uint256"
				},
				{
					"internalType": "uint256",
					"name": "repaymentPeriodInDays",
					"type": "uint256"
				},
				{
					"internalType": "contract IInterestModel",
					"name": "interestModel",
					"type": "address"
				},
				{
					"internalType": "address",
					"name": "poolOrganizerAddress",
					"type": "address"
				},
				{
					"internalType": "address",
					"name": "vaultManagerAddress",
					"type": "address"
				},
				{
					"internalType": "address",
					"name": "rewardManagerAddress",
					"type": "address"
				}
			],
			"stateMutability": "nonpayable",
			"type": "constructor"
		},
		{
			"inputs": [],
			"name": "AccessControlBadConfirmation",
			"type": "error"
		},
		{
			"inputs": [
				{
					"internalType": "address",
					"name": "account",
					"type": "address"
				},
				{
					"internalType": "bytes32",
					"name": "neededRole",
					"type": "bytes32"
				}
			],
			"name": "AccessControlUnauthorizedAccount",
			"type": "error"
		},
		{
			"inputs": [],
			"name": "ReentrancyGuardReentrantCall",
			"type": "error"
		},
		{
			"anonymous": false,
			"inputs": [
				{
					"indexed": false,
					"internalType": "uint256",
					"name": "collateralAmount",
					"type": "uint256"
				}
			],
			"name": "CollateralFunded",
			"type": "event"
		},
		{
			"anonymous": false,
			"inputs": [
				{
					"indexed": true,
					"internalType": "address",
					"name": "borrower",
					"type": "address"
				},
				{
					"indexed": false,
					"internalType": "uint256",
					"name": "collateralAmount",
					"type": "uint256"
				}
			],
			"name": "LoanActivated",
			"type": "event"
		},
		{
			"anonymous": false,
			"inputs": [],
			"name": "LoanClosed",
			"type": "event"
		},
		{
			"anonymous": false,
			"inputs": [
				{
					"indexed": true,
					"internalType": "address",
					"name": "borrower",
					"type": "address"
				}
			],
			"name": "LoanDefaulted",
			"type": "event"
		},
		{
			"anonymous": false,
			"inputs": [
				{
					"indexed": false,
					"internalType": "uint256",
					"name": "loanAmount",
					"type": "uint256"
				}
			],
			"name": "LoanFunded",
			"type": "event"
		},
		{
			"anonymous": false,
			"inputs": [
				{
					"indexed": true,
					"internalType": "address",
					"name": "lender",
					"type": "address"
				},
				{
					"indexed": false,
					"internalType": "uint256",
					"name": "loanAmount",
					"type": "uint256"
				},
				{
					"indexed": false,
					"internalType": "contract IERC20",
					"name": "loanToken",
					"type": "address"
				},
				{
					"indexed": false,
					"internalType": "contract IERC20",
					"name": "repaymentToken",
					"type": "address"
				}
			],
			"name": "LoanOfferCreated",
			"type": "event"
		},
		{
			"anonymous": false,
			"inputs": [
				{
					"indexed": false,
					"internalType": "uint256",
					"name": "amountRepaid",
					"type": "uint256"
				}
			],
			"name": "RepaymentMade",
			"type": "event"
		},
		{
			"anonymous": false,
			"inputs": [
				{
					"indexed": true,
					"internalType": "bytes32",
					"name": "role",
					"type": "bytes32"
				},
				{
					"indexed": true,
					"internalType": "bytes32",
					"name": "previousAdminRole",
					"type": "bytes32"
				},
				{
					"indexed": true,
					"internalType": "bytes32",
					"name": "newAdminRole",
					"type": "bytes32"
				}
			],
			"name": "RoleAdminChanged",
			"type": "event"
		},
		{
			"anonymous": false,
			"inputs": [
				{
					"indexed": true,
					"internalType": "bytes32",
					"name": "role",
					"type": "bytes32"
				},
				{
					"indexed": true,
					"internalType": "address",
					"name": "account",
					"type": "address"
				},
				{
					"indexed": true,
					"internalType": "address",
					"name": "sender",
					"type": "address"
				}
			],
			"name": "RoleGranted",
			"type": "event"
		},
		{
			"anonymous": false,
			"inputs": [
				{
					"indexed": true,
					"internalType": "bytes32",
					"name": "role",
					"type": "bytes32"
				},
				{
					"indexed": true,
					"internalType": "address",
					"name": "account",
					"type": "address"
				},
				{
					"indexed": true,
					"internalType": "address",
					"name": "sender",
					"type": "address"
				}
			],
			"name": "RoleRevoked",
			"type": "event"
		},
		{
			"inputs": [],
			"name": "BORROWER_ROLE",
			"outputs": [
				{
					"internalType": "bytes32",
					"name": "",
					"type": "bytes32"
				}
			],
			"stateMutability": "view",
			"type": "function"
		},
		{
			"inputs": [],
			"name": "DEFAULT_ADMIN_ROLE",
			"outputs": [
				{
					"internalType": "bytes32",
					"name": "",
					"type": "bytes32"
				}
			],
			"stateMutability": "view",
			"type": "function"
		},
		{
			"inputs": [],
			"name": "LENDER_ROLE",
			"outputs": [
				{
					"internalType": "bytes32",
					"name": "",
					"type": "bytes32"
				}
			],
			"stateMutability": "view",
			"type": "function"
		},
		{
			"inputs": [],
			"name": "activateLoan",
			"outputs": [],
			"stateMutability": "nonpayable",
			"type": "function"
		},
		{
			"inputs": [],
			"name": "calculateInterest",
			"outputs": [
				{
					"internalType": "uint256",
					"name": "",
					"type": "uint256"
				}
			],
			"stateMutability": "view",
			"type": "function"
		},
		{
			"inputs": [],
			"name": "calculateRequiredCollateral",
			"outputs": [
				{
					"internalType": "uint256",
					"name": "",
					"type": "uint256"
				}
			],
			"stateMutability": "view",
			"type": "function"
		},
		{
			"inputs": [],
			"name": "checkAndHandleDefault",
			"outputs": [],
			"stateMutability": "nonpayable",
			"type": "function"
		},
		{
			"inputs": [],
			"name": "fundLoan",
			"outputs": [],
			"stateMutability": "nonpayable",
			"type": "function"
		},
		{
			"inputs": [],
			"name": "getBorrower",
			"outputs": [
				{
					"internalType": "address",
					"name": "",
					"type": "address"
				}
			],
			"stateMutability": "view",
			"type": "function"
		},
		{
			"inputs": [
				{
					"internalType": "address",
					"name": "user",
					"type": "address"
				}
			],
			"name": "getCollateralAmount",
			"outputs": [
				{
					"internalType": "uint256",
					"name": "",
					"type": "uint256"
				}
			],
			"stateMutability": "view",
			"type": "function"
		},
		{
			"inputs": [],
			"name": "getFundedBlock",
			"outputs": [
				{
					"internalType": "uint256",
					"name": "",
					"type": "uint256"
				}
			],
			"stateMutability": "view",
			"type": "function"
		},
		{
			"inputs": [],
			"name": "getInterestRate",
			"outputs": [
				{
					"internalType": "uint256",
					"name": "",
					"type": "uint256"
				}
			],
			"stateMutability": "view",
			"type": "function"
		},
		{
			"inputs": [],
			"name": "getLender",
			"outputs": [
				{
					"internalType": "address",
					"name": "",
					"type": "address"
				}
			],
			"stateMutability": "view",
			"type": "function"
		},
		{
			"inputs": [],
			"name": "getLoanAmount",
			"outputs": [
				{
					"internalType": "uint256",
					"name": "",
					"type": "uint256"
				}
			],
			"stateMutability": "view",
			"type": "function"
		},
		{
			"inputs": [],
			"name": "getLoanState",
			"outputs": [
				{
					"internalType": "enum TuliaPool.LoanState",
					"name": "",
					"type": "uint8"
				}
			],
			"stateMutability": "view",
			"type": "function"
		},
		{
			"inputs": [],
			"name": "getRemainingRepaymentPeriod",
			"outputs": [
				{
					"internalType": "uint256",
					"name": "",
					"type": "uint256"
				}
			],
			"stateMutability": "view",
			"type": "function"
		},
		{
			"inputs": [],
			"name": "getRepaymentPeriod",
			"outputs": [
				{
					"internalType": "uint256",
					"name": "",
					"type": "uint256"
				}
			],
			"stateMutability": "view",
			"type": "function"
		},
		{
			"inputs": [],
			"name": "getRepaymentToken",
			"outputs": [
				{
					"internalType": "contract IERC20",
					"name": "",
					"type": "address"
				}
			],
			"stateMutability": "view",
			"type": "function"
		},
		{
			"inputs": [
				{
					"internalType": "bytes32",
					"name": "role",
					"type": "bytes32"
				}
			],
			"name": "getRoleAdmin",
			"outputs": [
				{
					"internalType": "bytes32",
					"name": "",
					"type": "bytes32"
				}
			],
			"stateMutability": "view",
			"type": "function"
		},
		{
			"inputs": [
				{
					"internalType": "bytes32",
					"name": "role",
					"type": "bytes32"
				},
				{
					"internalType": "address",
					"name": "account",
					"type": "address"
				}
			],
			"name": "grantRole",
			"outputs": [],
			"stateMutability": "nonpayable",
			"type": "function"
		},
		{
			"inputs": [
				{
					"internalType": "bytes32",
					"name": "role",
					"type": "bytes32"
				},
				{
					"internalType": "address",
					"name": "account",
					"type": "address"
				}
			],
			"name": "hasRole",
			"outputs": [
				{
					"internalType": "bool",
					"name": "",
					"type": "bool"
				}
			],
			"stateMutability": "view",
			"type": "function"
		},
		{
			"inputs": [],
			"name": "loanDetails",
			"outputs": [
				{
					"internalType": "address",
					"name": "lender",
					"type": "address"
				},
				{
					"internalType": "contract IERC20",
					"name": "loanToken",
					"type": "address"
				},
				{
					"internalType": "contract IERC20",
					"name": "repaymentToken",
					"type": "address"
				},
				{
					"internalType": "contract TuliaVault",
					"name": "collateralVault",
					"type": "address"
				},
				{
					"internalType": "uint256",
					"name": "loanAmount",
					"type": "uint256"
				},
				{
					"internalType": "uint256",
					"name": "interestRate",
					"type": "uint256"
				},
				{
					"internalType": "uint256",
					"name": "repaymentPeriod",
					"type": "uint256"
				},
				{
					"internalType": "contract IVaultManager",
					"name": "vaultManager",
					"type": "address"
				},
				{
					"internalType": "contract IInterestModel",
					"name": "interestModel",
					"type": "address"
				},
				{
					"internalType": "address",
					"name": "borrower",
					"type": "address"
				},
				{
					"internalType": "uint256",
					"name": "startBlock",
					"type": "uint256"
				},
				{
					"internalType": "uint256",
					"name": "fundedBlock",
					"type": "uint256"
				}
			],
			"stateMutability": "view",
			"type": "function"
		},
		{
			"inputs": [],
			"name": "poolOrganizer",
			"outputs": [
				{
					"internalType": "contract IPoolOrganizer",
					"name": "",
					"type": "address"
				}
			],
			"stateMutability": "view",
			"type": "function"
		},
		{
			"inputs": [],
			"name": "reclaimLoanAndClosePool",
			"outputs": [],
			"stateMutability": "nonpayable",
			"type": "function"
		},
		{
			"inputs": [
				{
					"internalType": "bytes32",
					"name": "role",
					"type": "bytes32"
				},
				{
					"internalType": "address",
					"name": "callerConfirmation",
					"type": "address"
				}
			],
			"name": "renounceRole",
			"outputs": [],
			"stateMutability": "nonpayable",
			"type": "function"
		},
		{
			"inputs": [],
			"name": "repay",
			"outputs": [],
			"stateMutability": "nonpayable",
			"type": "function"
		},
		{
			"inputs": [
				{
					"internalType": "bytes32",
					"name": "role",
					"type": "bytes32"
				},
				{
					"internalType": "address",
					"name": "account",
					"type": "address"
				}
			],
			"name": "revokeRole",
			"outputs": [],
			"stateMutability": "nonpayable",
			"type": "function"
		},
		{
			"inputs": [],
			"name": "rewardManager",
			"outputs": [
				{
					"internalType": "contract IRewardManager",
					"name": "",
					"type": "address"
				}
			],
			"stateMutability": "view",
			"type": "function"
		},
		{
			"inputs": [],
			"name": "state",
			"outputs": [
				{
					"internalType": "enum TuliaPool.LoanState",
					"name": "",
					"type": "uint8"
				}
			],
			"stateMutability": "view",
			"type": "function"
		},
		{
			"inputs": [
				{
					"internalType": "bytes4",
					"name": "interfaceId",
					"type": "bytes4"
				}
			],
			"name": "supportsInterface",
			"outputs": [
				{
					"internalType": "bool",
					"name": "",
					"type": "bool"
				}
			],
			"stateMutability": "view",
			"type": "function"
		},
		{
			"inputs": [],
			"name": "vaultManager",
			"outputs": [
				{
					"internalType": "contract IVaultManager",
					"name": "",
					"type": "address"
				}
			],
			"stateMutability": "view",
			"type": "function"
		}
	]
}