{
	"data": {
		"bytecode": {
			"linkReferences": {},
			"object": "60803461009957601f6108b138819003918201601f19168301916001600160401b0383118484101761009d578084926060946040528339810103126100995780516001600160a01b0380821692909183900361009957602081015191821680920361009957604001519160015f5560018060a01b03199081600254161760025560035416176003556004556040516107ff90816100b28239f35b5f80fd5b634e487b7160e01b5f52604160045260245ffdfe6080806040526004361015610012575f80fd5b5f90813560e01c9081630f4ef8a6146106b65750806312261ee71461068d57806338d52e0f146106645780635cffe9de14610166578063613255ab146100bb5780638c9f305f1461009d5763d9d98ce41461006b575f80fd5b3461009a57604036600319011261009a5760206100926100896106db565b60243590610767565b604051908152f35b80fd5b503461009a578060031936011261009a576020600454604051908152f35b503461009a576020908160031936011261009a576100d76106db565b6002546001600160a01b0390811691849116820361015f576040516370a0823160e01b815230600482015291829060249082905afa9182156101535791610122575b50604051908152f35b90508181813d831161014c575b61013981836106f1565b8101031261014857515f610119565b5f80fd5b503d61012f565b604051903d90823e3d90fd5b5050610092565b503461009a57608036600319011261009a576004356001600160a01b038116810361060f576024356001600160a01b03811681036106605767ffffffffffffffff9182606435116104c4573660236064350112156104c4578260643560040135116104c457366024606435600401356064350101116104c457600284541461061b576002808555546001600160a01b0390811692906102089082168414610727565b61021460443582610767565b9085604051946370a0823160e01b8652306004870152602086602481845afa9586156104465782966105e2575b5060405163a9059cbb60e01b81526001600160a01b0386166004820152604480356024830152909260209284929183915af180156105d7576105b8575b50604051906323e30c8b60e01b825233600483015260018060a01b03166024820152604435604482015281606482015260a060848201526064356004013560a48201526064356004013560246064350160c483013760c46064356004013582810182018890526020918391601f19601f9091011682018290030181896001600160a01b0388165af180156105ad578690610557575b7f439148f0bbc682ca079e46d6e2c2f0c1e3b820f1a291b069d8882abf8cf18dd991500361051e5760443501806044351161050a576002546040516323b872dd60e01b81526001600160a01b03938416600482015230602482015260448101929092529091602091839160649183918991165af180156104d0576104db575b506002546040516370a0823160e01b815230600482015290602090829060249082906001600160a01b03165afa9081156104d057849161049a575b5010610455576001548291906001600160a01b0316803b15610451578290602460405180968193637e72c7d760e01b83523060048401525af1801561044657610420575b60018255602060405160018152f35b8211610432576001916040525f610411565b634e487b7160e01b81526041600452602490fd5b6040513d84823e3d90fd5b5050fd5b60405162461bcd60e51b815260206004820152601b60248201527f466c617368206c6f616e2072657061796d656e74206661696c656400000000006044820152606490fd5b90506020813d6020116104c8575b816104b5602093836106f1565b810103126104c457515f6103cd565b8380fd5b3d91506104a8565b6040513d86823e3d90fd5b6104fc9060203d602011610503575b6104f481836106f1565b8101906107b1565b505f610392565b503d6104ea565b634e487b7160e01b85526011600452602485fd5b60405162461bcd60e51b8152602060048201526011602482015270119b185cda081b1bd85b8819985a5b1959607a1b6044820152606490fd5b506020813d6020116105a5575b81610571602093836106f1565b810103126105a1577f439148f0bbc682ca079e46d6e2c2f0c1e3b820f1a291b069d8882abf8cf18dd99051610313565b8580fd5b3d9150610564565b6040513d88823e3d90fd5b6105d09060203d602011610503576104f481836106f1565b505f61027e565b6040513d89823e3d90fd5b9095506020813d602011610613575b816105fe602093836106f1565b8101031261060f5751946020610241565b5080fd5b3d91506105f1565b60405162461bcd60e51b815260206004820152601f60248201527f5265656e7472616e637947756172643a207265656e7472616e742063616c6c006044820152606490fd5b8280fd5b503461009a578060031936011261009a576002546040516001600160a01b039091168152602090f35b503461009a578060031936011261009a576003546040516001600160a01b039091168152602090f35b90503461060f578160031936011261060f576001546001600160a01b03168152602090f35b600435906001600160a01b038216820361014857565b90601f8019910116810190811067ffffffffffffffff82111761071357604052565b634e487b7160e01b5f52604160045260245ffd5b1561072e57565b60405162461bcd60e51b81526020600482015260116024820152702ab739bab83837b93a32b2103a37b5b2b760791b6044820152606490fd5b600254610781916001600160a01b03908116911614610727565b6004549081810291818304149015171561079d57612710900490565b634e487b7160e01b5f52601160045260245ffd5b9081602091031261014857518015158103610148579056fea2646970667358221220485d28ce82b89521d10acc4d6d797a29036665e73741d7e66a4bef0e64d45bc164736f6c63430008140033",
			"opcodes": "PUSH1 0x80 CALLVALUE PUSH2 0x99 JUMPI PUSH1 0x1F PUSH2 0x8B1 CODESIZE DUP2 SWAP1 SUB SWAP2 DUP3 ADD PUSH1 0x1F NOT AND DUP4 ADD SWAP2 PUSH1 0x1 PUSH1 0x1 PUSH1 0x40 SHL SUB DUP4 GT DUP5 DUP5 LT OR PUSH2 0x9D JUMPI DUP1 DUP5 SWAP3 PUSH1 0x60 SWAP5 PUSH1 0x40 MSTORE DUP4 CODECOPY DUP2 ADD SUB SLT PUSH2 0x99 JUMPI DUP1 MLOAD PUSH1 0x1 PUSH1 0x1 PUSH1 0xA0 SHL SUB DUP1 DUP3 AND SWAP3 SWAP1 SWAP2 DUP4 SWAP1 SUB PUSH2 0x99 JUMPI PUSH1 0x20 DUP2 ADD MLOAD SWAP2 DUP3 AND DUP1 SWAP3 SUB PUSH2 0x99 JUMPI PUSH1 0x40 ADD MLOAD SWAP2 PUSH1 0x1 PUSH0 SSTORE PUSH1 0x1 DUP1 PUSH1 0xA0 SHL SUB NOT SWAP1 DUP2 PUSH1 0x2 SLOAD AND OR PUSH1 0x2 SSTORE PUSH1 0x3 SLOAD AND OR PUSH1 0x3 SSTORE PUSH1 0x4 SSTORE PUSH1 0x40 MLOAD PUSH2 0x7FF SWAP1 DUP2 PUSH2 0xB2 DUP3 CODECOPY RETURN JUMPDEST PUSH0 DUP1 REVERT JUMPDEST PUSH4 0x4E487B71 PUSH1 0xE0 SHL PUSH0 MSTORE PUSH1 0x41 PUSH1 0x4 MSTORE PUSH1 0x24 PUSH0 REVERT INVALID PUSH1 0x80 DUP1 PUSH1 0x40 MSTORE PUSH1 0x4 CALLDATASIZE LT ISZERO PUSH2 0x12 JUMPI PUSH0 DUP1 REVERT JUMPDEST PUSH0 SWAP1 DUP2 CALLDATALOAD PUSH1 0xE0 SHR SWAP1 DUP2 PUSH4 0xF4EF8A6 EQ PUSH2 0x6B6 JUMPI POP DUP1 PUSH4 0x12261EE7 EQ PUSH2 0x68D JUMPI DUP1 PUSH4 0x38D52E0F EQ PUSH2 0x664 JUMPI DUP1 PUSH4 0x5CFFE9DE EQ PUSH2 0x166 JUMPI DUP1 PUSH4 0x613255AB EQ PUSH2 0xBB JUMPI DUP1 PUSH4 0x8C9F305F EQ PUSH2 0x9D JUMPI PUSH4 0xD9D98CE4 EQ PUSH2 0x6B JUMPI PUSH0 DUP1 REVERT JUMPDEST CALLVALUE PUSH2 0x9A JUMPI PUSH1 0x40 CALLDATASIZE PUSH1 0x3 NOT ADD SLT PUSH2 0x9A JUMPI PUSH1 0x20 PUSH2 0x92 PUSH2 0x89 PUSH2 0x6DB JUMP JUMPDEST PUSH1 0x24 CALLDATALOAD SWAP1 PUSH2 0x767 JUMP JUMPDEST PUSH1 0x40 MLOAD SWAP1 DUP2 MSTORE RETURN JUMPDEST DUP1 REVERT JUMPDEST POP CALLVALUE PUSH2 0x9A JUMPI DUP1 PUSH1 0x3 NOT CALLDATASIZE ADD SLT PUSH2 0x9A JUMPI PUSH1 0x20 PUSH1 0x4 SLOAD PUSH1 0x40 MLOAD SWAP1 DUP2 MSTORE RETURN JUMPDEST POP CALLVALUE PUSH2 0x9A JUMPI PUSH1 0x20 SWAP1 DUP2 PUSH1 0x3 NOT CALLDATASIZE ADD SLT PUSH2 0x9A JUMPI PUSH2 0xD7 PUSH2 0x6DB JUMP JUMPDEST PUSH1 0x2 SLOAD PUSH1 0x1 PUSH1 0x1 PUSH1 0xA0 SHL SUB SWAP1 DUP2 AND SWAP2 DUP5 SWAP2 AND DUP3 SUB PUSH2 0x15F JUMPI PUSH1 0x40 MLOAD PUSH4 0x70A08231 PUSH1 0xE0 SHL DUP2 MSTORE ADDRESS PUSH1 0x4 DUP3 ADD MSTORE SWAP2 DUP3 SWAP1 PUSH1 0x24 SWAP1 DUP3 SWAP1 GAS STATICCALL SWAP2 DUP3 ISZERO PUSH2 0x153 JUMPI SWAP2 PUSH2 0x122 JUMPI JUMPDEST POP PUSH1 0x40 MLOAD SWAP1 DUP2 MSTORE RETURN JUMPDEST SWAP1 POP DUP2 DUP2 DUP2 RETURNDATASIZE DUP4 GT PUSH2 0x14C JUMPI JUMPDEST PUSH2 0x139 DUP2 DUP4 PUSH2 0x6F1 JUMP JUMPDEST DUP2 ADD SUB SLT PUSH2 0x148 JUMPI MLOAD PUSH0 PUSH2 0x119 JUMP JUMPDEST PUSH0 DUP1 REVERT JUMPDEST POP RETURNDATASIZE PUSH2 0x12F JUMP JUMPDEST PUSH1 0x40 MLOAD SWAP1 RETURNDATASIZE SWAP1 DUP3 RETURNDATACOPY RETURNDATASIZE SWAP1 REVERT JUMPDEST POP POP PUSH2 0x92 JUMP JUMPDEST POP CALLVALUE PUSH2 0x9A JUMPI PUSH1 0x80 CALLDATASIZE PUSH1 0x3 NOT ADD SLT PUSH2 0x9A JUMPI PUSH1 0x4 CALLDATALOAD PUSH1 0x1 PUSH1 0x1 PUSH1 0xA0 SHL SUB DUP2 AND DUP2 SUB PUSH2 0x60F JUMPI PUSH1 0x24 CALLDATALOAD PUSH1 0x1 PUSH1 0x1 PUSH1 0xA0 SHL SUB DUP2 AND DUP2 SUB PUSH2 0x660 JUMPI PUSH8 0xFFFFFFFFFFFFFFFF SWAP2 DUP3 PUSH1 0x64 CALLDATALOAD GT PUSH2 0x4C4 JUMPI CALLDATASIZE PUSH1 0x23 PUSH1 0x64 CALLDATALOAD ADD SLT ISZERO PUSH2 0x4C4 JUMPI DUP3 PUSH1 0x64 CALLDATALOAD PUSH1 0x4 ADD CALLDATALOAD GT PUSH2 0x4C4 JUMPI CALLDATASIZE PUSH1 0x24 PUSH1 0x64 CALLDATALOAD PUSH1 0x4 ADD CALLDATALOAD PUSH1 0x64 CALLDATALOAD ADD ADD GT PUSH2 0x4C4 JUMPI PUSH1 0x2 DUP5 SLOAD EQ PUSH2 0x61B JUMPI PUSH1 0x2 DUP1 DUP6 SSTORE SLOAD PUSH1 0x1 PUSH1 0x1 PUSH1 0xA0 SHL SUB SWAP1 DUP2 AND SWAP3 SWAP1 PUSH2 0x208 SWAP1 DUP3 AND DUP5 EQ PUSH2 0x727 JUMP JUMPDEST PUSH2 0x214 PUSH1 0x44 CALLDATALOAD DUP3 PUSH2 0x767 JUMP JUMPDEST SWAP1 DUP6 PUSH1 0x40 MLOAD SWAP5 PUSH4 0x70A08231 PUSH1 0xE0 SHL DUP7 MSTORE ADDRESS PUSH1 0x4 DUP8 ADD MSTORE PUSH1 0x20 DUP7 PUSH1 0x24 DUP2 DUP5 GAS STATICCALL SWAP6 DUP7 ISZERO PUSH2 0x446 JUMPI DUP3 SWAP7 PUSH2 0x5E2 JUMPI JUMPDEST POP PUSH1 0x40 MLOAD PUSH4 0xA9059CBB PUSH1 0xE0 SHL DUP2 MSTORE PUSH1 0x1 PUSH1 0x1 PUSH1 0xA0 SHL SUB DUP7 AND PUSH1 0x4 DUP3 ADD MSTORE PUSH1 0x44 DUP1 CALLDATALOAD PUSH1 0x24 DUP4 ADD MSTORE SWAP1 SWAP3 PUSH1 0x20 SWAP3 DUP5 SWAP3 SWAP2 DUP4 SWAP2 GAS CALL DUP1 ISZERO PUSH2 0x5D7 JUMPI PUSH2 0x5B8 JUMPI JUMPDEST POP PUSH1 0x40 MLOAD SWAP1 PUSH4 0x23E30C8B PUSH1 0xE0 SHL DUP3 MSTORE CALLER PUSH1 0x4 DUP4 ADD MSTORE PUSH1 0x1 DUP1 PUSH1 0xA0 SHL SUB AND PUSH1 0x24 DUP3 ADD MSTORE PUSH1 0x44 CALLDATALOAD PUSH1 0x44 DUP3 ADD MSTORE DUP2 PUSH1 0x64 DUP3 ADD MSTORE PUSH1 0xA0 PUSH1 0x84 DUP3 ADD MSTORE PUSH1 0x64 CALLDATALOAD PUSH1 0x4 ADD CALLDATALOAD PUSH1 0xA4 DUP3 ADD MSTORE PUSH1 0x64 CALLDATALOAD PUSH1 0x4 ADD CALLDATALOAD PUSH1 0x24 PUSH1 0x64 CALLDATALOAD ADD PUSH1 0xC4 DUP4 ADD CALLDATACOPY PUSH1 0xC4 PUSH1 0x64 CALLDATALOAD PUSH1 0x4 ADD CALLDATALOAD DUP3 DUP2 ADD DUP3 ADD DUP9 SWAP1 MSTORE PUSH1 0x20 SWAP2 DUP4 SWAP2 PUSH1 0x1F NOT PUSH1 0x1F SWAP1 SWAP2 ADD AND DUP3 ADD DUP3 SWAP1 SUB ADD DUP2 DUP10 PUSH1 0x1 PUSH1 0x1 PUSH1 0xA0 SHL SUB DUP9 AND GAS CALL DUP1 ISZERO PUSH2 0x5AD JUMPI DUP7 SWAP1 PUSH2 0x557 JUMPI JUMPDEST PUSH32 0x439148F0BBC682CA079E46D6E2C2F0C1E3B820F1A291B069D8882ABF8CF18DD9 SWAP2 POP SUB PUSH2 0x51E JUMPI PUSH1 0x44 CALLDATALOAD ADD DUP1 PUSH1 0x44 CALLDATALOAD GT PUSH2 0x50A JUMPI PUSH1 0x2 SLOAD PUSH1 0x40 MLOAD PUSH4 0x23B872DD PUSH1 0xE0 SHL DUP2 MSTORE PUSH1 0x1 PUSH1 0x1 PUSH1 0xA0 SHL SUB SWAP4 DUP5 AND PUSH1 0x4 DUP3 ADD MSTORE ADDRESS PUSH1 0x24 DUP3 ADD MSTORE PUSH1 0x44 DUP2 ADD SWAP3 SWAP1 SWAP3 MSTORE SWAP1 SWAP2 PUSH1 0x20 SWAP2 DUP4 SWAP2 PUSH1 0x64 SWAP2 DUP4 SWAP2 DUP10 SWAP2 AND GAS CALL DUP1 ISZERO PUSH2 0x4D0 JUMPI PUSH2 0x4DB JUMPI JUMPDEST POP PUSH1 0x2 SLOAD PUSH1 0x40 MLOAD PUSH4 0x70A08231 PUSH1 0xE0 SHL DUP2 MSTORE ADDRESS PUSH1 0x4 DUP3 ADD MSTORE SWAP1 PUSH1 0x20 SWAP1 DUP3 SWAP1 PUSH1 0x24 SWAP1 DUP3 SWAP1 PUSH1 0x1 PUSH1 0x1 PUSH1 0xA0 SHL SUB AND GAS STATICCALL SWAP1 DUP2 ISZERO PUSH2 0x4D0 JUMPI DUP5 SWAP2 PUSH2 0x49A JUMPI JUMPDEST POP LT PUSH2 0x455 JUMPI PUSH1 0x1 SLOAD DUP3 SWAP2 SWAP1 PUSH1 0x1 PUSH1 0x1 PUSH1 0xA0 SHL SUB AND DUP1 EXTCODESIZE ISZERO PUSH2 0x451 JUMPI DUP3 SWAP1 PUSH1 0x24 PUSH1 0x40 MLOAD DUP1 SWAP7 DUP2 SWAP4 PUSH4 0x7E72C7D7 PUSH1 0xE0 SHL DUP4 MSTORE ADDRESS PUSH1 0x4 DUP5 ADD MSTORE GAS CALL DUP1 ISZERO PUSH2 0x446 JUMPI PUSH2 0x420 JUMPI JUMPDEST PUSH1 0x1 DUP3 SSTORE PUSH1 0x20 PUSH1 0x40 MLOAD PUSH1 0x1 DUP2 MSTORE RETURN JUMPDEST DUP3 GT PUSH2 0x432 JUMPI PUSH1 0x1 SWAP2 PUSH1 0x40 MSTORE PUSH0 PUSH2 0x411 JUMP JUMPDEST PUSH4 0x4E487B71 PUSH1 0xE0 SHL DUP2 MSTORE PUSH1 0x41 PUSH1 0x4 MSTORE PUSH1 0x24 SWAP1 REVERT JUMPDEST PUSH1 0x40 MLOAD RETURNDATASIZE DUP5 DUP3 RETURNDATACOPY RETURNDATASIZE SWAP1 REVERT JUMPDEST POP POP REVERT JUMPDEST PUSH1 0x40 MLOAD PUSH3 0x461BCD PUSH1 0xE5 SHL DUP2 MSTORE PUSH1 0x20 PUSH1 0x4 DUP3 ADD MSTORE PUSH1 0x1B PUSH1 0x24 DUP3 ADD MSTORE PUSH32 0x466C617368206C6F616E2072657061796D656E74206661696C65640000000000 PUSH1 0x44 DUP3 ADD MSTORE PUSH1 0x64 SWAP1 REVERT JUMPDEST SWAP1 POP PUSH1 0x20 DUP2 RETURNDATASIZE PUSH1 0x20 GT PUSH2 0x4C8 JUMPI JUMPDEST DUP2 PUSH2 0x4B5 PUSH1 0x20 SWAP4 DUP4 PUSH2 0x6F1 JUMP JUMPDEST DUP2 ADD SUB SLT PUSH2 0x4C4 JUMPI MLOAD PUSH0 PUSH2 0x3CD JUMP JUMPDEST DUP4 DUP1 REVERT JUMPDEST RETURNDATASIZE SWAP2 POP PUSH2 0x4A8 JUMP JUMPDEST PUSH1 0x40 MLOAD RETURNDATASIZE DUP7 DUP3 RETURNDATACOPY RETURNDATASIZE SWAP1 REVERT JUMPDEST PUSH2 0x4FC SWAP1 PUSH1 0x20 RETURNDATASIZE PUSH1 0x20 GT PUSH2 0x503 JUMPI JUMPDEST PUSH2 0x4F4 DUP2 DUP4 PUSH2 0x6F1 JUMP JUMPDEST DUP2 ADD SWAP1 PUSH2 0x7B1 JUMP JUMPDEST POP PUSH0 PUSH2 0x392 JUMP JUMPDEST POP RETURNDATASIZE PUSH2 0x4EA JUMP JUMPDEST PUSH4 0x4E487B71 PUSH1 0xE0 SHL DUP6 MSTORE PUSH1 0x11 PUSH1 0x4 MSTORE PUSH1 0x24 DUP6 REVERT JUMPDEST PUSH1 0x40 MLOAD PUSH3 0x461BCD PUSH1 0xE5 SHL DUP2 MSTORE PUSH1 0x20 PUSH1 0x4 DUP3 ADD MSTORE PUSH1 0x11 PUSH1 0x24 DUP3 ADD MSTORE PUSH17 0x119B185CDA081B1BD85B8819985A5B1959 PUSH1 0x7A SHL PUSH1 0x44 DUP3 ADD MSTORE PUSH1 0x64 SWAP1 REVERT JUMPDEST POP PUSH1 0x20 DUP2 RETURNDATASIZE PUSH1 0x20 GT PUSH2 0x5A5 JUMPI JUMPDEST DUP2 PUSH2 0x571 PUSH1 0x20 SWAP4 DUP4 PUSH2 0x6F1 JUMP JUMPDEST DUP2 ADD SUB SLT PUSH2 0x5A1 JUMPI PUSH32 0x439148F0BBC682CA079E46D6E2C2F0C1E3B820F1A291B069D8882ABF8CF18DD9 SWAP1 MLOAD PUSH2 0x313 JUMP JUMPDEST DUP6 DUP1 REVERT JUMPDEST RETURNDATASIZE SWAP2 POP PUSH2 0x564 JUMP JUMPDEST PUSH1 0x40 MLOAD RETURNDATASIZE DUP9 DUP3 RETURNDATACOPY RETURNDATASIZE SWAP1 REVERT JUMPDEST PUSH2 0x5D0 SWAP1 PUSH1 0x20 RETURNDATASIZE PUSH1 0x20 GT PUSH2 0x503 JUMPI PUSH2 0x4F4 DUP2 DUP4 PUSH2 0x6F1 JUMP JUMPDEST POP PUSH0 PUSH2 0x27E JUMP JUMPDEST PUSH1 0x40 MLOAD RETURNDATASIZE DUP10 DUP3 RETURNDATACOPY RETURNDATASIZE SWAP1 REVERT JUMPDEST SWAP1 SWAP6 POP PUSH1 0x20 DUP2 RETURNDATASIZE PUSH1 0x20 GT PUSH2 0x613 JUMPI JUMPDEST DUP2 PUSH2 0x5FE PUSH1 0x20 SWAP4 DUP4 PUSH2 0x6F1 JUMP JUMPDEST DUP2 ADD SUB SLT PUSH2 0x60F JUMPI MLOAD SWAP5 PUSH1 0x20 PUSH2 0x241 JUMP JUMPDEST POP DUP1 REVERT JUMPDEST RETURNDATASIZE SWAP2 POP PUSH2 0x5F1 JUMP JUMPDEST PUSH1 0x40 MLOAD PUSH3 0x461BCD PUSH1 0xE5 SHL DUP2 MSTORE PUSH1 0x20 PUSH1 0x4 DUP3 ADD MSTORE PUSH1 0x1F PUSH1 0x24 DUP3 ADD MSTORE PUSH32 0x5265656E7472616E637947756172643A207265656E7472616E742063616C6C00 PUSH1 0x44 DUP3 ADD MSTORE PUSH1 0x64 SWAP1 REVERT JUMPDEST DUP3 DUP1 REVERT JUMPDEST POP CALLVALUE PUSH2 0x9A JUMPI DUP1 PUSH1 0x3 NOT CALLDATASIZE ADD SLT PUSH2 0x9A JUMPI PUSH1 0x2 SLOAD PUSH1 0x40 MLOAD PUSH1 0x1 PUSH1 0x1 PUSH1 0xA0 SHL SUB SWAP1 SWAP2 AND DUP2 MSTORE PUSH1 0x20 SWAP1 RETURN JUMPDEST POP CALLVALUE PUSH2 0x9A JUMPI DUP1 PUSH1 0x3 NOT CALLDATASIZE ADD SLT PUSH2 0x9A JUMPI PUSH1 0x3 SLOAD PUSH1 0x40 MLOAD PUSH1 0x1 PUSH1 0x1 PUSH1 0xA0 SHL SUB SWAP1 SWAP2 AND DUP2 MSTORE PUSH1 0x20 SWAP1 RETURN JUMPDEST SWAP1 POP CALLVALUE PUSH2 0x60F JUMPI DUP2 PUSH1 0x3 NOT CALLDATASIZE ADD SLT PUSH2 0x60F JUMPI PUSH1 0x1 SLOAD PUSH1 0x1 PUSH1 0x1 PUSH1 0xA0 SHL SUB AND DUP2 MSTORE PUSH1 0x20 SWAP1 RETURN JUMPDEST PUSH1 0x4 CALLDATALOAD SWAP1 PUSH1 0x1 PUSH1 0x1 PUSH1 0xA0 SHL SUB DUP3 AND DUP3 SUB PUSH2 0x148 JUMPI JUMP JUMPDEST SWAP1 PUSH1 0x1F DUP1 NOT SWAP2 ADD AND DUP2 ADD SWAP1 DUP2 LT PUSH8 0xFFFFFFFFFFFFFFFF DUP3 GT OR PUSH2 0x713 JUMPI PUSH1 0x40 MSTORE JUMP JUMPDEST PUSH4 0x4E487B71 PUSH1 0xE0 SHL PUSH0 MSTORE PUSH1 0x41 PUSH1 0x4 MSTORE PUSH1 0x24 PUSH0 REVERT JUMPDEST ISZERO PUSH2 0x72E JUMPI JUMP JUMPDEST PUSH1 0x40 MLOAD PUSH3 0x461BCD PUSH1 0xE5 SHL DUP2 MSTORE PUSH1 0x20 PUSH1 0x4 DUP3 ADD MSTORE PUSH1 0x11 PUSH1 0x24 DUP3 ADD MSTORE PUSH17 0x2AB739BAB83837B93A32B2103A37B5B2B7 PUSH1 0x79 SHL PUSH1 0x44 DUP3 ADD MSTORE PUSH1 0x64 SWAP1 REVERT JUMPDEST PUSH1 0x2 SLOAD PUSH2 0x781 SWAP2 PUSH1 0x1 PUSH1 0x1 PUSH1 0xA0 SHL SUB SWAP1 DUP2 AND SWAP2 AND EQ PUSH2 0x727 JUMP JUMPDEST PUSH1 0x4 SLOAD SWAP1 DUP2 DUP2 MUL SWAP2 DUP2 DUP4 DIV EQ SWAP1 ISZERO OR ISZERO PUSH2 0x79D JUMPI PUSH2 0x2710 SWAP1 DIV SWAP1 JUMP JUMPDEST PUSH4 0x4E487B71 PUSH1 0xE0 SHL PUSH0 MSTORE PUSH1 0x11 PUSH1 0x4 MSTORE PUSH1 0x24 PUSH0 REVERT JUMPDEST SWAP1 DUP2 PUSH1 0x20 SWAP2 SUB SLT PUSH2 0x148 JUMPI MLOAD DUP1 ISZERO ISZERO DUP2 SUB PUSH2 0x148 JUMPI SWAP1 JUMP INVALID LOG2 PUSH5 0x6970667358 0x22 SLT KECCAK256 BASEFEE 0x5D 0x28 0xCE DUP3 0xB8 SWAP6 0x21 0xD1 EXP 0xCC 0x4D PUSH14 0x797A29036665E73741D7E66A4BEF 0xE PUSH5 0xD45BC16473 PUSH16 0x6C634300081400330000000000000000 "
		},
		"gasEstimates": {
			"creation": {
				"codeDepositCost": "409400",
				"executionCost": "infinite",
				"totalCost": "infinite"
			},
			"external": {
				"asset()": "2333",
				"flashFee(address,uint256)": "4747",
				"flashLoan(address,address,uint256,bytes)": "infinite",
				"flashLoanFeeRate()": "2375",
				"maxFlashLoan(address)": "infinite",
				"permit2()": "2311",
				"rewardManager()": "2278"
			},
			"internal": {
				"_executeFlashLoan(contract IERC3156FlashBorrower,address,uint256,bytes calldata)": "infinite"
			}
		},
		"methodIdentifiers": {
			"asset()": "38d52e0f",
			"flashFee(address,uint256)": "d9d98ce4",
			"flashLoan(address,address,uint256,bytes)": "5cffe9de",
			"flashLoanFeeRate()": "8c9f305f",
			"maxFlashLoan(address)": "613255ab",
			"permit2()": "12261ee7",
			"rewardManager()": "0f4ef8a6"
		}
	},
	"abi": [
		{
			"inputs": [
				{
					"internalType": "contract IERC20",
					"name": "_asset",
					"type": "address"
				},
				{
					"internalType": "contract IPermit2",
					"name": "_permit2",
					"type": "address"
				},
				{
					"internalType": "uint256",
					"name": "_flashLoanFeeRate",
					"type": "uint256"
				}
			],
			"stateMutability": "nonpayable",
			"type": "constructor"
		},
		{
			"inputs": [],
			"name": "asset",
			"outputs": [
				{
					"internalType": "contract IERC20",
					"name": "",
					"type": "address"
				}
			],
			"stateMutability": "view",
			"type": "function"
		},
		{
			"inputs": [
				{
					"internalType": "address",
					"name": "token",
					"type": "address"
				},
				{
					"internalType": "uint256",
					"name": "amount",
					"type": "uint256"
				}
			],
			"name": "flashFee",
			"outputs": [
				{
					"internalType": "uint256",
					"name": "",
					"type": "uint256"
				}
			],
			"stateMutability": "view",
			"type": "function"
		},
		{
			"inputs": [
				{
					"internalType": "contract IERC3156FlashBorrower",
					"name": "receiver",
					"type": "address"
				},
				{
					"internalType": "address",
					"name": "token",
					"type": "address"
				},
				{
					"internalType": "uint256",
					"name": "amount",
					"type": "uint256"
				},
				{
					"internalType": "bytes",
					"name": "data",
					"type": "bytes"
				}
			],
			"name": "flashLoan",
			"outputs": [
				{
					"internalType": "bool",
					"name": "",
					"type": "bool"
				}
			],
			"stateMutability": "nonpayable",
			"type": "function"
		},
		{
			"inputs": [],
			"name": "flashLoanFeeRate",
			"outputs": [
				{
					"internalType": "uint256",
					"name": "",
					"type": "uint256"
				}
			],
			"stateMutability": "view",
			"type": "function"
		},
		{
			"inputs": [
				{
					"internalType": "address",
					"name": "token",
					"type": "address"
				}
			],
			"name": "maxFlashLoan",
			"outputs": [
				{
					"internalType": "uint256",
					"name": "",
					"type": "uint256"
				}
			],
			"stateMutability": "view",
			"type": "function"
		},
		{
			"inputs": [],
			"name": "permit2",
			"outputs": [
				{
					"internalType": "contract IPermit2",
					"name": "",
					"type": "address"
				}
			],
			"stateMutability": "view",
			"type": "function"
		},
		{
			"inputs": [],
			"name": "rewardManager",
			"outputs": [
				{
					"internalType": "contract IRewardManager",
					"name": "",
					"type": "address"
				}
			],
			"stateMutability": "view",
			"type": "function"
		}
	]
}