{
	"data": {
		"bytecode": {
			"linkReferences": {},
			"object": "60c060405234801561000f575f80fd5b5060405161166738038061166783398101604081905261002e91610200565b828282600361003d8382610306565b50600461004a8282610306565b5050505f8061005e8361008d60201b60201c565b915091508161006e576012610070565b805b60ff1660a05250506001600160a01b0316608052506103ed915050565b60408051600481526024810182526020810180516001600160e01b031663313ce56760e01b17905290515f918291829182916001600160a01b038716916100d3916103c0565b5f60405180830381855afa9150503d805f811461010b576040519150601f19603f3d011682016040523d82523d5f602084013e610110565b606091505b509150915081801561012457506020815110155b15610157575f8180602001905181019061013e91906103d6565b905060ff8111610155576001969095509350505050565b505b505f9485945092505050565b634e487b7160e01b5f52604160045260245ffd5b5f82601f830112610186575f80fd5b81516001600160401b0381111561019f5761019f610163565b604051601f8201601f19908116603f011681016001600160401b03811182821017156101cd576101cd610163565b6040528181528382016020018510156101e4575f80fd5b8160208501602083015e5f918101602001919091529392505050565b5f805f60608486031215610212575f80fd5b83516001600160a01b0381168114610228575f80fd5b60208501519093506001600160401b03811115610243575f80fd5b61024f86828701610177565b604086015190935090506001600160401b0381111561026c575f80fd5b61027886828701610177565b9150509250925092565b600181811c9082168061029657607f821691505b6020821081036102b457634e487b7160e01b5f52602260045260245ffd5b50919050565b601f82111561030157805f5260205f20601f840160051c810160208510156102df5750805b601f840160051c820191505b818110156102fe575f81556001016102eb565b50505b505050565b81516001600160401b0381111561031f5761031f610163565b6103338161032d8454610282565b846102ba565b6020601f821160018114610365575f831561034e5750848201515b5f19600385901b1c1916600184901b1784556102fe565b5f84815260208120601f198516915b828110156103945787850151825560209485019460019092019101610374565b50848210156103b157868401515f19600387901b60f8161c191681555b50505050600190811b01905550565b5f82518060208501845e5f920191825250919050565b5f602082840312156103e6575f80fd5b5051919050565b60805160a0516112446104235f395f6104fa01525f818161022c01528181610394015281816107c2015261088201526112445ff3fe608060405234801561000f575f80fd5b506004361061016d575f3560e01c806370a08231116100d9578063ba08765211610093578063ce96cb771161006e578063ce96cb771461031f578063d905777e14610332578063dd62ed3e14610345578063ef8b30f71461030c575f80fd5b8063ba087652146102f9578063c63d75b614610256578063c6e6f5921461030c575f80fd5b806370a082311461027d57806394bf804d146102a557806395d89b41146102b8578063a9059cbb146102c0578063b3d7f6b9146102d3578063b460af94146102e6575f80fd5b806323b872dd1161012a57806323b872dd146101f2578063313ce5671461020557806338d52e0f1461021f578063402d267d146102565780634cdad506146101a15780636e553f651461026a575f80fd5b806301e1d1141461017157806306fdde031461018c57806307a2d13a146101a1578063095ea7b3146101b45780630a28a477146101d757806318160ddd146101ea575b5f80fd5b61017961037d565b6040519081526020015b60405180910390f35b61019461040a565b6040516101839190610e76565b6101796101af366004610eab565b61049a565b6101c76101c2366004610edd565b6104ab565b6040519015158152602001610183565b6101796101e5366004610eab565b6104c2565b600254610179565b6101c7610200366004610f05565b6104ce565b61020d6104f3565b60405160ff9091168152602001610183565b6040516001600160a01b037f0000000000000000000000000000000000000000000000000000000000000000168152602001610183565b610179610264366004610f3f565b505f1990565b610179610278366004610f58565b61051e565b61017961028b366004610f3f565b6001600160a01b03165f9081526020819052604090205490565b6101796102b3366004610f58565b61054f565b61019461056a565b6101c76102ce366004610edd565b610579565b6101796102e1366004610eab565b610586565b6101796102f4366004610f82565b610592565b610179610307366004610f82565b6105e8565b61017961031a366004610eab565b610635565b61017961032d366004610f3f565b610640565b610179610340366004610f3f565b610662565b610179610353366004610fbb565b6001600160a01b039182165f90815260016020908152604080832093909416825291909152205490565b6040516370a0823160e01b81523060048201525f907f00000000000000000000000000000000000000000000000000000000000000006001600160a01b0316906370a0823190602401602060405180830381865afa1580156103e1573d5f803e3d5ffd5b505050506040513d601f19601f820116820180604052508101906104059190610fe3565b905090565b60606003805461041990610ffa565b80601f016020809104026020016040519081016040528092919081815260200182805461044590610ffa565b80156104905780601f1061046757610100808354040283529160200191610490565b820191905f5260205f20905b81548152906001019060200180831161047357829003601f168201915b5050505050905090565b5f6104a5825f61067f565b92915050565b5f336104b88185856106b7565b5060019392505050565b5f6104a58260016106c9565b5f336104db8582856106f8565b6104e6858585610760565b60019150505b9392505050565b5f610405817f0000000000000000000000000000000000000000000000000000000000000000611046565b5f5f1961052f565b60405180910390fd5b5f61053985610635565b9050610547338587846107bd565b949350505050565b5f5f195f61055c85610586565b9050610547338583886107bd565b60606004805461041990610ffa565b5f336104b8818585610760565b5f6104a582600161067f565b5f8061059d83610640565b9050808511156105c657828582604051633fa733bb60e21b81526004016105269392919061105f565b5f6105d0866104c2565b90506105df338686898561084f565b95945050505050565b5f806105f383610662565b90508085111561061c57828582604051632e52afbb60e21b81526004016105269392919061105f565b5f6106268661049a565b90506105df338686848a61084f565b5f6104a5825f6106c9565b6001600160a01b0381165f908152602081905260408120546104a5905f61067f565b6001600160a01b0381165f908152602081905260408120546104a5565b5f6104ec61068b61037d565b610696906001611080565b6106a15f600a611176565b6002546106ae9190611080565b8591908561090f565b6106c4838383600161095c565b505050565b5f6104ec6106d882600a611176565b6002546106e59190611080565b6106ed61037d565b6106ae906001611080565b6001600160a01b038381165f908152600160209081526040808320938616835292905220545f19811461075a578181101561074c57828183604051637dc7a0d960e11b81526004016105269392919061105f565b61075a84848484035f61095c565b50505050565b6001600160a01b03831661078957604051634b637e8f60e11b81525f6004820152602401610526565b6001600160a01b0382166107b25760405163ec442f0560e01b81525f6004820152602401610526565b6106c4838383610a20565b6107e97f0000000000000000000000000000000000000000000000000000000000000000853085610b33565b6107f38382610b9a565b826001600160a01b0316846001600160a01b03167fdcbc1c05240f31ff3ad067ef1ee35ce4997762752e3a095284754544f4c709d78484604051610841929190918252602082015260400190565b60405180910390a350505050565b826001600160a01b0316856001600160a01b031614610873576108738386836106f8565b61087d8382610bd2565b6108a87f00000000000000000000000000000000000000000000000000000000000000008584610c06565b826001600160a01b0316846001600160a01b0316866001600160a01b03167ffbde797d201c681b91056529119e0b02407c7bb96a4a2c75c01fc9667232c8db8585604051610900929190918252602082015260400190565b60405180910390a45050505050565b5f8061091c868686610c37565b905061092783610cf6565b801561094257505f848061093d5761093d611184565b868809115b156105df57610952600182611080565b9695505050505050565b6001600160a01b0384166109855760405163e602df0560e01b81525f6004820152602401610526565b6001600160a01b0383166109ae57604051634a1406b160e11b81525f6004820152602401610526565b6001600160a01b038085165f908152600160209081526040808320938716835292905220829055801561075a57826001600160a01b0316846001600160a01b03167f8c5be1e5ebec7d5bd14f71427d1e84f3dd0314c0f7b2291e5b200ac8c7c3b9258460405161084191815260200190565b6001600160a01b038316610a4a578060025f828254610a3f9190611080565b90915550610aa79050565b6001600160a01b0383165f9081526020819052604090205481811015610a895783818360405163391434e360e21b81526004016105269392919061105f565b6001600160a01b0384165f9081526020819052604090209082900390555b6001600160a01b038216610ac357600280548290039055610ae1565b6001600160a01b0382165f9081526020819052604090208054820190555b816001600160a01b0316836001600160a01b03167fddf252ad1be2c89b69c2b068fc378daa952ba7f163c4a11628f55a4df523b3ef83604051610b2691815260200190565b60405180910390a3505050565b6040516001600160a01b03848116602483015283811660448301526064820183905261075a9186918216906323b872dd906084015b604051602081830303815290604052915060e01b6020820180516001600160e01b038381831617835250505050610d22565b6001600160a01b038216610bc35760405163ec442f0560e01b81525f6004820152602401610526565b610bce5f8383610a20565b5050565b6001600160a01b038216610bfb57604051634b637e8f60e11b81525f6004820152602401610526565b610bce825f83610a20565b6040516001600160a01b038381166024830152604482018390526106c491859182169063a9059cbb90606401610b68565b5f838302815f1985870982811083820303915050805f03610c6b57838281610c6157610c61611184565b04925050506104ec565b808411610c8b5760405163227bc15360e01b815260040160405180910390fd5b5f848688095f868103871696879004966002600389028118808a02820302808a02820302808a02820302808a02820302808a02820302808a02909103029181900381900460010186841190950394909402919094039290920491909117919091029150509392505050565b5f6002826003811115610d0b57610d0b611198565b610d1591906111ac565b60ff166001149050919050565b5f610d366001600160a01b03841683610d83565b905080515f14158015610d5a575080806020019051810190610d5891906111d9565b155b156106c457604051635274afe760e01b81526001600160a01b0384166004820152602401610526565b60606104ec83835f845f80856001600160a01b03168486604051610da791906111f8565b5f6040518083038185875af1925050503d805f8114610de1576040519150601f19603f3d011682016040523d82523d5f602084013e610de6565b606091505b5091509150610952868383606082610e0657610e0182610e4d565b6104ec565b8151158015610e1d57506001600160a01b0384163b155b15610e4657604051639996b31560e01b81526001600160a01b0385166004820152602401610526565b50806104ec565b805115610e5d5780518082602001fd5b604051630a12f52160e11b815260040160405180910390fd5b602081525f82518060208401528060208501604085015e5f604082850101526040601f19601f83011684010191505092915050565b5f60208284031215610ebb575f80fd5b5035919050565b80356001600160a01b0381168114610ed8575f80fd5b919050565b5f8060408385031215610eee575f80fd5b610ef783610ec2565b946020939093013593505050565b5f805f60608486031215610f17575f80fd5b610f2084610ec2565b9250610f2e60208501610ec2565b929592945050506040919091013590565b5f60208284031215610f4f575f80fd5b6104ec82610ec2565b5f8060408385031215610f69575f80fd5b82359150610f7960208401610ec2565b90509250929050565b5f805f60608486031215610f94575f80fd5b83359250610fa460208501610ec2565b9150610fb260408501610ec2565b90509250925092565b5f8060408385031215610fcc575f80fd5b610fd583610ec2565b9150610f7960208401610ec2565b5f60208284031215610ff3575f80fd5b5051919050565b600181811c9082168061100e57607f821691505b60208210810361102c57634e487b7160e01b5f52602260045260245ffd5b50919050565b634e487b7160e01b5f52601160045260245ffd5b60ff81811683821601908111156104a5576104a5611032565b6001600160a01b039390931683526020830191909152604082015260600190565b808201808211156104a5576104a5611032565b6001815b60018411156110ce578085048111156110b2576110b2611032565b60018416156110c057908102905b60019390931c928002611097565b935093915050565b5f826110e4575060016104a5565b816110f057505f6104a5565b816001811461110657600281146111105761112c565b60019150506104a5565b60ff84111561112157611121611032565b50506001821b6104a5565b5060208310610133831016604e8410600b841016171561114f575081810a6104a5565b61115b5f198484611093565b805f190482111561116e5761116e611032565b029392505050565b5f6104ec60ff8416836110d6565b634e487b7160e01b5f52601260045260245ffd5b634e487b7160e01b5f52602160045260245ffd5b5f60ff8316806111ca57634e487b7160e01b5f52601260045260245ffd5b8060ff84160691505092915050565b5f602082840312156111e9575f80fd5b815180151581146104ec575f80fd5b5f82518060208501845e5f92019182525091905056fea26469706673582212202a3d94113f1d6b24a39c62072a731ca8eba44e8c07f4de3d97b95f43521535c364736f6c634300081a0033",
			"opcodes": "PUSH1 0xC0 PUSH1 0x40 MSTORE CALLVALUE DUP1 ISZERO PUSH2 0xF JUMPI PUSH0 DUP1 REVERT JUMPDEST POP PUSH1 0x40 MLOAD PUSH2 0x1667 CODESIZE SUB DUP1 PUSH2 0x1667 DUP4 CODECOPY DUP2 ADD PUSH1 0x40 DUP2 SWAP1 MSTORE PUSH2 0x2E SWAP2 PUSH2 0x200 JUMP JUMPDEST DUP3 DUP3 DUP3 PUSH1 0x3 PUSH2 0x3D DUP4 DUP3 PUSH2 0x306 JUMP JUMPDEST POP PUSH1 0x4 PUSH2 0x4A DUP3 DUP3 PUSH2 0x306 JUMP JUMPDEST POP POP POP PUSH0 DUP1 PUSH2 0x5E DUP4 PUSH2 0x8D PUSH1 0x20 SHL PUSH1 0x20 SHR JUMP JUMPDEST SWAP2 POP SWAP2 POP DUP2 PUSH2 0x6E JUMPI PUSH1 0x12 PUSH2 0x70 JUMP JUMPDEST DUP1 JUMPDEST PUSH1 0xFF AND PUSH1 0xA0 MSTORE POP POP PUSH1 0x1 PUSH1 0x1 PUSH1 0xA0 SHL SUB AND PUSH1 0x80 MSTORE POP PUSH2 0x3ED SWAP2 POP POP JUMP JUMPDEST PUSH1 0x40 DUP1 MLOAD PUSH1 0x4 DUP2 MSTORE PUSH1 0x24 DUP2 ADD DUP3 MSTORE PUSH1 0x20 DUP2 ADD DUP1 MLOAD PUSH1 0x1 PUSH1 0x1 PUSH1 0xE0 SHL SUB AND PUSH4 0x313CE567 PUSH1 0xE0 SHL OR SWAP1 MSTORE SWAP1 MLOAD PUSH0 SWAP2 DUP3 SWAP2 DUP3 SWAP2 DUP3 SWAP2 PUSH1 0x1 PUSH1 0x1 PUSH1 0xA0 SHL SUB DUP8 AND SWAP2 PUSH2 0xD3 SWAP2 PUSH2 0x3C0 JUMP JUMPDEST PUSH0 PUSH1 0x40 MLOAD DUP1 DUP4 SUB DUP2 DUP6 GAS STATICCALL SWAP2 POP POP RETURNDATASIZE DUP1 PUSH0 DUP2 EQ PUSH2 0x10B JUMPI PUSH1 0x40 MLOAD SWAP2 POP PUSH1 0x1F NOT PUSH1 0x3F RETURNDATASIZE ADD AND DUP3 ADD PUSH1 0x40 MSTORE RETURNDATASIZE DUP3 MSTORE RETURNDATASIZE PUSH0 PUSH1 0x20 DUP5 ADD RETURNDATACOPY PUSH2 0x110 JUMP JUMPDEST PUSH1 0x60 SWAP2 POP JUMPDEST POP SWAP2 POP SWAP2 POP DUP2 DUP1 ISZERO PUSH2 0x124 JUMPI POP PUSH1 0x20 DUP2 MLOAD LT ISZERO JUMPDEST ISZERO PUSH2 0x157 JUMPI PUSH0 DUP2 DUP1 PUSH1 0x20 ADD SWAP1 MLOAD DUP2 ADD SWAP1 PUSH2 0x13E SWAP2 SWAP1 PUSH2 0x3D6 JUMP JUMPDEST SWAP1 POP PUSH1 0xFF DUP2 GT PUSH2 0x155 JUMPI PUSH1 0x1 SWAP7 SWAP1 SWAP6 POP SWAP4 POP POP POP POP JUMP JUMPDEST POP JUMPDEST POP PUSH0 SWAP5 DUP6 SWAP5 POP SWAP3 POP POP POP JUMP JUMPDEST PUSH4 0x4E487B71 PUSH1 0xE0 SHL PUSH0 MSTORE PUSH1 0x41 PUSH1 0x4 MSTORE PUSH1 0x24 PUSH0 REVERT JUMPDEST PUSH0 DUP3 PUSH1 0x1F DUP4 ADD SLT PUSH2 0x186 JUMPI PUSH0 DUP1 REVERT JUMPDEST DUP2 MLOAD PUSH1 0x1 PUSH1 0x1 PUSH1 0x40 SHL SUB DUP2 GT ISZERO PUSH2 0x19F JUMPI PUSH2 0x19F PUSH2 0x163 JUMP JUMPDEST PUSH1 0x40 MLOAD PUSH1 0x1F DUP3 ADD PUSH1 0x1F NOT SWAP1 DUP2 AND PUSH1 0x3F ADD AND DUP2 ADD PUSH1 0x1 PUSH1 0x1 PUSH1 0x40 SHL SUB DUP2 GT DUP3 DUP3 LT OR ISZERO PUSH2 0x1CD JUMPI PUSH2 0x1CD PUSH2 0x163 JUMP JUMPDEST PUSH1 0x40 MSTORE DUP2 DUP2 MSTORE DUP4 DUP3 ADD PUSH1 0x20 ADD DUP6 LT ISZERO PUSH2 0x1E4 JUMPI PUSH0 DUP1 REVERT JUMPDEST DUP2 PUSH1 0x20 DUP6 ADD PUSH1 0x20 DUP4 ADD MCOPY PUSH0 SWAP2 DUP2 ADD PUSH1 0x20 ADD SWAP2 SWAP1 SWAP2 MSTORE SWAP4 SWAP3 POP POP POP JUMP JUMPDEST PUSH0 DUP1 PUSH0 PUSH1 0x60 DUP5 DUP7 SUB SLT ISZERO PUSH2 0x212 JUMPI PUSH0 DUP1 REVERT JUMPDEST DUP4 MLOAD PUSH1 0x1 PUSH1 0x1 PUSH1 0xA0 SHL SUB DUP2 AND DUP2 EQ PUSH2 0x228 JUMPI PUSH0 DUP1 REVERT JUMPDEST PUSH1 0x20 DUP6 ADD MLOAD SWAP1 SWAP4 POP PUSH1 0x1 PUSH1 0x1 PUSH1 0x40 SHL SUB DUP2 GT ISZERO PUSH2 0x243 JUMPI PUSH0 DUP1 REVERT JUMPDEST PUSH2 0x24F DUP7 DUP3 DUP8 ADD PUSH2 0x177 JUMP JUMPDEST PUSH1 0x40 DUP7 ADD MLOAD SWAP1 SWAP4 POP SWAP1 POP PUSH1 0x1 PUSH1 0x1 PUSH1 0x40 SHL SUB DUP2 GT ISZERO PUSH2 0x26C JUMPI PUSH0 DUP1 REVERT JUMPDEST PUSH2 0x278 DUP7 DUP3 DUP8 ADD PUSH2 0x177 JUMP JUMPDEST SWAP2 POP POP SWAP3 POP SWAP3 POP SWAP3 JUMP JUMPDEST PUSH1 0x1 DUP2 DUP2 SHR SWAP1 DUP3 AND DUP1 PUSH2 0x296 JUMPI PUSH1 0x7F DUP3 AND SWAP2 POP JUMPDEST PUSH1 0x20 DUP3 LT DUP2 SUB PUSH2 0x2B4 JUMPI PUSH4 0x4E487B71 PUSH1 0xE0 SHL PUSH0 MSTORE PUSH1 0x22 PUSH1 0x4 MSTORE PUSH1 0x24 PUSH0 REVERT JUMPDEST POP SWAP2 SWAP1 POP JUMP JUMPDEST PUSH1 0x1F DUP3 GT ISZERO PUSH2 0x301 JUMPI DUP1 PUSH0 MSTORE PUSH1 0x20 PUSH0 KECCAK256 PUSH1 0x1F DUP5 ADD PUSH1 0x5 SHR DUP2 ADD PUSH1 0x20 DUP6 LT ISZERO PUSH2 0x2DF JUMPI POP DUP1 JUMPDEST PUSH1 0x1F DUP5 ADD PUSH1 0x5 SHR DUP3 ADD SWAP2 POP JUMPDEST DUP2 DUP2 LT ISZERO PUSH2 0x2FE JUMPI PUSH0 DUP2 SSTORE PUSH1 0x1 ADD PUSH2 0x2EB JUMP JUMPDEST POP POP JUMPDEST POP POP POP JUMP JUMPDEST DUP2 MLOAD PUSH1 0x1 PUSH1 0x1 PUSH1 0x40 SHL SUB DUP2 GT ISZERO PUSH2 0x31F JUMPI PUSH2 0x31F PUSH2 0x163 JUMP JUMPDEST PUSH2 0x333 DUP2 PUSH2 0x32D DUP5 SLOAD PUSH2 0x282 JUMP JUMPDEST DUP5 PUSH2 0x2BA JUMP JUMPDEST PUSH1 0x20 PUSH1 0x1F DUP3 GT PUSH1 0x1 DUP2 EQ PUSH2 0x365 JUMPI PUSH0 DUP4 ISZERO PUSH2 0x34E JUMPI POP DUP5 DUP3 ADD MLOAD JUMPDEST PUSH0 NOT PUSH1 0x3 DUP6 SWAP1 SHL SHR NOT AND PUSH1 0x1 DUP5 SWAP1 SHL OR DUP5 SSTORE PUSH2 0x2FE JUMP JUMPDEST PUSH0 DUP5 DUP2 MSTORE PUSH1 0x20 DUP2 KECCAK256 PUSH1 0x1F NOT DUP6 AND SWAP2 JUMPDEST DUP3 DUP2 LT ISZERO PUSH2 0x394 JUMPI DUP8 DUP6 ADD MLOAD DUP3 SSTORE PUSH1 0x20 SWAP5 DUP6 ADD SWAP5 PUSH1 0x1 SWAP1 SWAP3 ADD SWAP2 ADD PUSH2 0x374 JUMP JUMPDEST POP DUP5 DUP3 LT ISZERO PUSH2 0x3B1 JUMPI DUP7 DUP5 ADD MLOAD PUSH0 NOT PUSH1 0x3 DUP8 SWAP1 SHL PUSH1 0xF8 AND SHR NOT AND DUP2 SSTORE JUMPDEST POP POP POP POP PUSH1 0x1 SWAP1 DUP2 SHL ADD SWAP1 SSTORE POP JUMP JUMPDEST PUSH0 DUP3 MLOAD DUP1 PUSH1 0x20 DUP6 ADD DUP5 MCOPY PUSH0 SWAP3 ADD SWAP2 DUP3 MSTORE POP SWAP2 SWAP1 POP JUMP JUMPDEST PUSH0 PUSH1 0x20 DUP3 DUP5 SUB SLT ISZERO PUSH2 0x3E6 JUMPI PUSH0 DUP1 REVERT JUMPDEST POP MLOAD SWAP2 SWAP1 POP JUMP JUMPDEST PUSH1 0x80 MLOAD PUSH1 0xA0 MLOAD PUSH2 0x1244 PUSH2 0x423 PUSH0 CODECOPY PUSH0 PUSH2 0x4FA ADD MSTORE PUSH0 DUP2 DUP2 PUSH2 0x22C ADD MSTORE DUP2 DUP2 PUSH2 0x394 ADD MSTORE DUP2 DUP2 PUSH2 0x7C2 ADD MSTORE PUSH2 0x882 ADD MSTORE PUSH2 0x1244 PUSH0 RETURN INVALID PUSH1 0x80 PUSH1 0x40 MSTORE CALLVALUE DUP1 ISZERO PUSH2 0xF JUMPI PUSH0 DUP1 REVERT JUMPDEST POP PUSH1 0x4 CALLDATASIZE LT PUSH2 0x16D JUMPI PUSH0 CALLDATALOAD PUSH1 0xE0 SHR DUP1 PUSH4 0x70A08231 GT PUSH2 0xD9 JUMPI DUP1 PUSH4 0xBA087652 GT PUSH2 0x93 JUMPI DUP1 PUSH4 0xCE96CB77 GT PUSH2 0x6E JUMPI DUP1 PUSH4 0xCE96CB77 EQ PUSH2 0x31F JUMPI DUP1 PUSH4 0xD905777E EQ PUSH2 0x332 JUMPI DUP1 PUSH4 0xDD62ED3E EQ PUSH2 0x345 JUMPI DUP1 PUSH4 0xEF8B30F7 EQ PUSH2 0x30C JUMPI PUSH0 DUP1 REVERT JUMPDEST DUP1 PUSH4 0xBA087652 EQ PUSH2 0x2F9 JUMPI DUP1 PUSH4 0xC63D75B6 EQ PUSH2 0x256 JUMPI DUP1 PUSH4 0xC6E6F592 EQ PUSH2 0x30C JUMPI PUSH0 DUP1 REVERT JUMPDEST DUP1 PUSH4 0x70A08231 EQ PUSH2 0x27D JUMPI DUP1 PUSH4 0x94BF804D EQ PUSH2 0x2A5 JUMPI DUP1 PUSH4 0x95D89B41 EQ PUSH2 0x2B8 JUMPI DUP1 PUSH4 0xA9059CBB EQ PUSH2 0x2C0 JUMPI DUP1 PUSH4 0xB3D7F6B9 EQ PUSH2 0x2D3 JUMPI DUP1 PUSH4 0xB460AF94 EQ PUSH2 0x2E6 JUMPI PUSH0 DUP1 REVERT JUMPDEST DUP1 PUSH4 0x23B872DD GT PUSH2 0x12A JUMPI DUP1 PUSH4 0x23B872DD EQ PUSH2 0x1F2 JUMPI DUP1 PUSH4 0x313CE567 EQ PUSH2 0x205 JUMPI DUP1 PUSH4 0x38D52E0F EQ PUSH2 0x21F JUMPI DUP1 PUSH4 0x402D267D EQ PUSH2 0x256 JUMPI DUP1 PUSH4 0x4CDAD506 EQ PUSH2 0x1A1 JUMPI DUP1 PUSH4 0x6E553F65 EQ PUSH2 0x26A JUMPI PUSH0 DUP1 REVERT JUMPDEST DUP1 PUSH4 0x1E1D114 EQ PUSH2 0x171 JUMPI DUP1 PUSH4 0x6FDDE03 EQ PUSH2 0x18C JUMPI DUP1 PUSH4 0x7A2D13A EQ PUSH2 0x1A1 JUMPI DUP1 PUSH4 0x95EA7B3 EQ PUSH2 0x1B4 JUMPI DUP1 PUSH4 0xA28A477 EQ PUSH2 0x1D7 JUMPI DUP1 PUSH4 0x18160DDD EQ PUSH2 0x1EA JUMPI JUMPDEST PUSH0 DUP1 REVERT JUMPDEST PUSH2 0x179 PUSH2 0x37D JUMP JUMPDEST PUSH1 0x40 MLOAD SWAP1 DUP2 MSTORE PUSH1 0x20 ADD JUMPDEST PUSH1 0x40 MLOAD DUP1 SWAP2 SUB SWAP1 RETURN JUMPDEST PUSH2 0x194 PUSH2 0x40A JUMP JUMPDEST PUSH1 0x40 MLOAD PUSH2 0x183 SWAP2 SWAP1 PUSH2 0xE76 JUMP JUMPDEST PUSH2 0x179 PUSH2 0x1AF CALLDATASIZE PUSH1 0x4 PUSH2 0xEAB JUMP JUMPDEST PUSH2 0x49A JUMP JUMPDEST PUSH2 0x1C7 PUSH2 0x1C2 CALLDATASIZE PUSH1 0x4 PUSH2 0xEDD JUMP JUMPDEST PUSH2 0x4AB JUMP JUMPDEST PUSH1 0x40 MLOAD SWAP1 ISZERO ISZERO DUP2 MSTORE PUSH1 0x20 ADD PUSH2 0x183 JUMP JUMPDEST PUSH2 0x179 PUSH2 0x1E5 CALLDATASIZE PUSH1 0x4 PUSH2 0xEAB JUMP JUMPDEST PUSH2 0x4C2 JUMP JUMPDEST PUSH1 0x2 SLOAD PUSH2 0x179 JUMP JUMPDEST PUSH2 0x1C7 PUSH2 0x200 CALLDATASIZE PUSH1 0x4 PUSH2 0xF05 JUMP JUMPDEST PUSH2 0x4CE JUMP JUMPDEST PUSH2 0x20D PUSH2 0x4F3 JUMP JUMPDEST PUSH1 0x40 MLOAD PUSH1 0xFF SWAP1 SWAP2 AND DUP2 MSTORE PUSH1 0x20 ADD PUSH2 0x183 JUMP JUMPDEST PUSH1 0x40 MLOAD PUSH1 0x1 PUSH1 0x1 PUSH1 0xA0 SHL SUB PUSH32 0x0 AND DUP2 MSTORE PUSH1 0x20 ADD PUSH2 0x183 JUMP JUMPDEST PUSH2 0x179 PUSH2 0x264 CALLDATASIZE PUSH1 0x4 PUSH2 0xF3F JUMP JUMPDEST POP PUSH0 NOT SWAP1 JUMP JUMPDEST PUSH2 0x179 PUSH2 0x278 CALLDATASIZE PUSH1 0x4 PUSH2 0xF58 JUMP JUMPDEST PUSH2 0x51E JUMP JUMPDEST PUSH2 0x179 PUSH2 0x28B CALLDATASIZE PUSH1 0x4 PUSH2 0xF3F JUMP JUMPDEST PUSH1 0x1 PUSH1 0x1 PUSH1 0xA0 SHL SUB AND PUSH0 SWAP1 DUP2 MSTORE PUSH1 0x20 DUP2 SWAP1 MSTORE PUSH1 0x40 SWAP1 KECCAK256 SLOAD SWAP1 JUMP JUMPDEST PUSH2 0x179 PUSH2 0x2B3 CALLDATASIZE PUSH1 0x4 PUSH2 0xF58 JUMP JUMPDEST PUSH2 0x54F JUMP JUMPDEST PUSH2 0x194 PUSH2 0x56A JUMP JUMPDEST PUSH2 0x1C7 PUSH2 0x2CE CALLDATASIZE PUSH1 0x4 PUSH2 0xEDD JUMP JUMPDEST PUSH2 0x579 JUMP JUMPDEST PUSH2 0x179 PUSH2 0x2E1 CALLDATASIZE PUSH1 0x4 PUSH2 0xEAB JUMP JUMPDEST PUSH2 0x586 JUMP JUMPDEST PUSH2 0x179 PUSH2 0x2F4 CALLDATASIZE PUSH1 0x4 PUSH2 0xF82 JUMP JUMPDEST PUSH2 0x592 JUMP JUMPDEST PUSH2 0x179 PUSH2 0x307 CALLDATASIZE PUSH1 0x4 PUSH2 0xF82 JUMP JUMPDEST PUSH2 0x5E8 JUMP JUMPDEST PUSH2 0x179 PUSH2 0x31A CALLDATASIZE PUSH1 0x4 PUSH2 0xEAB JUMP JUMPDEST PUSH2 0x635 JUMP JUMPDEST PUSH2 0x179 PUSH2 0x32D CALLDATASIZE PUSH1 0x4 PUSH2 0xF3F JUMP JUMPDEST PUSH2 0x640 JUMP JUMPDEST PUSH2 0x179 PUSH2 0x340 CALLDATASIZE PUSH1 0x4 PUSH2 0xF3F JUMP JUMPDEST PUSH2 0x662 JUMP JUMPDEST PUSH2 0x179 PUSH2 0x353 CALLDATASIZE PUSH1 0x4 PUSH2 0xFBB JUMP JUMPDEST PUSH1 0x1 PUSH1 0x1 PUSH1 0xA0 SHL SUB SWAP2 DUP3 AND PUSH0 SWAP1 DUP2 MSTORE PUSH1 0x1 PUSH1 0x20 SWAP1 DUP2 MSTORE PUSH1 0x40 DUP1 DUP4 KECCAK256 SWAP4 SWAP1 SWAP5 AND DUP3 MSTORE SWAP2 SWAP1 SWAP2 MSTORE KECCAK256 SLOAD SWAP1 JUMP JUMPDEST PUSH1 0x40 MLOAD PUSH4 0x70A08231 PUSH1 0xE0 SHL DUP2 MSTORE ADDRESS PUSH1 0x4 DUP3 ADD MSTORE PUSH0 SWAP1 PUSH32 0x0 PUSH1 0x1 PUSH1 0x1 PUSH1 0xA0 SHL SUB AND SWAP1 PUSH4 0x70A08231 SWAP1 PUSH1 0x24 ADD PUSH1 0x20 PUSH1 0x40 MLOAD DUP1 DUP4 SUB DUP2 DUP7 GAS STATICCALL ISZERO DUP1 ISZERO PUSH2 0x3E1 JUMPI RETURNDATASIZE PUSH0 DUP1 RETURNDATACOPY RETURNDATASIZE PUSH0 REVERT JUMPDEST POP POP POP POP PUSH1 0x40 MLOAD RETURNDATASIZE PUSH1 0x1F NOT PUSH1 0x1F DUP3 ADD AND DUP3 ADD DUP1 PUSH1 0x40 MSTORE POP DUP2 ADD SWAP1 PUSH2 0x405 SWAP2 SWAP1 PUSH2 0xFE3 JUMP JUMPDEST SWAP1 POP SWAP1 JUMP JUMPDEST PUSH1 0x60 PUSH1 0x3 DUP1 SLOAD PUSH2 0x419 SWAP1 PUSH2 0xFFA JUMP JUMPDEST DUP1 PUSH1 0x1F ADD PUSH1 0x20 DUP1 SWAP2 DIV MUL PUSH1 0x20 ADD PUSH1 0x40 MLOAD SWAP1 DUP2 ADD PUSH1 0x40 MSTORE DUP1 SWAP3 SWAP2 SWAP1 DUP2 DUP2 MSTORE PUSH1 0x20 ADD DUP3 DUP1 SLOAD PUSH2 0x445 SWAP1 PUSH2 0xFFA JUMP JUMPDEST DUP1 ISZERO PUSH2 0x490 JUMPI DUP1 PUSH1 0x1F LT PUSH2 0x467 JUMPI PUSH2 0x100 DUP1 DUP4 SLOAD DIV MUL DUP4 MSTORE SWAP2 PUSH1 0x20 ADD SWAP2 PUSH2 0x490 JUMP JUMPDEST DUP3 ADD SWAP2 SWAP1 PUSH0 MSTORE PUSH1 0x20 PUSH0 KECCAK256 SWAP1 JUMPDEST DUP2 SLOAD DUP2 MSTORE SWAP1 PUSH1 0x1 ADD SWAP1 PUSH1 0x20 ADD DUP1 DUP4 GT PUSH2 0x473 JUMPI DUP3 SWAP1 SUB PUSH1 0x1F AND DUP3 ADD SWAP2 JUMPDEST POP POP POP POP POP SWAP1 POP SWAP1 JUMP JUMPDEST PUSH0 PUSH2 0x4A5 DUP3 PUSH0 PUSH2 0x67F JUMP JUMPDEST SWAP3 SWAP2 POP POP JUMP JUMPDEST PUSH0 CALLER PUSH2 0x4B8 DUP2 DUP6 DUP6 PUSH2 0x6B7 JUMP JUMPDEST POP PUSH1 0x1 SWAP4 SWAP3 POP POP POP JUMP JUMPDEST PUSH0 PUSH2 0x4A5 DUP3 PUSH1 0x1 PUSH2 0x6C9 JUMP JUMPDEST PUSH0 CALLER PUSH2 0x4DB DUP6 DUP3 DUP6 PUSH2 0x6F8 JUMP JUMPDEST PUSH2 0x4E6 DUP6 DUP6 DUP6 PUSH2 0x760 JUMP JUMPDEST PUSH1 0x1 SWAP2 POP POP JUMPDEST SWAP4 SWAP3 POP POP POP JUMP JUMPDEST PUSH0 PUSH2 0x405 DUP2 PUSH32 0x0 PUSH2 0x1046 JUMP JUMPDEST PUSH0 PUSH0 NOT PUSH2 0x52F JUMP JUMPDEST PUSH1 0x40 MLOAD DUP1 SWAP2 SUB SWAP1 REVERT JUMPDEST PUSH0 PUSH2 0x539 DUP6 PUSH2 0x635 JUMP JUMPDEST SWAP1 POP PUSH2 0x547 CALLER DUP6 DUP8 DUP5 PUSH2 0x7BD JUMP JUMPDEST SWAP5 SWAP4 POP POP POP POP JUMP JUMPDEST PUSH0 PUSH0 NOT PUSH0 PUSH2 0x55C DUP6 PUSH2 0x586 JUMP JUMPDEST SWAP1 POP PUSH2 0x547 CALLER DUP6 DUP4 DUP9 PUSH2 0x7BD JUMP JUMPDEST PUSH1 0x60 PUSH1 0x4 DUP1 SLOAD PUSH2 0x419 SWAP1 PUSH2 0xFFA JUMP JUMPDEST PUSH0 CALLER PUSH2 0x4B8 DUP2 DUP6 DUP6 PUSH2 0x760 JUMP JUMPDEST PUSH0 PUSH2 0x4A5 DUP3 PUSH1 0x1 PUSH2 0x67F JUMP JUMPDEST PUSH0 DUP1 PUSH2 0x59D DUP4 PUSH2 0x640 JUMP JUMPDEST SWAP1 POP DUP1 DUP6 GT ISZERO PUSH2 0x5C6 JUMPI DUP3 DUP6 DUP3 PUSH1 0x40 MLOAD PUSH4 0x3FA733BB PUSH1 0xE2 SHL DUP2 MSTORE PUSH1 0x4 ADD PUSH2 0x526 SWAP4 SWAP3 SWAP2 SWAP1 PUSH2 0x105F JUMP JUMPDEST PUSH0 PUSH2 0x5D0 DUP7 PUSH2 0x4C2 JUMP JUMPDEST SWAP1 POP PUSH2 0x5DF CALLER DUP7 DUP7 DUP10 DUP6 PUSH2 0x84F JUMP JUMPDEST SWAP6 SWAP5 POP POP POP POP POP JUMP JUMPDEST PUSH0 DUP1 PUSH2 0x5F3 DUP4 PUSH2 0x662 JUMP JUMPDEST SWAP1 POP DUP1 DUP6 GT ISZERO PUSH2 0x61C JUMPI DUP3 DUP6 DUP3 PUSH1 0x40 MLOAD PUSH4 0x2E52AFBB PUSH1 0xE2 SHL DUP2 MSTORE PUSH1 0x4 ADD PUSH2 0x526 SWAP4 SWAP3 SWAP2 SWAP1 PUSH2 0x105F JUMP JUMPDEST PUSH0 PUSH2 0x626 DUP7 PUSH2 0x49A JUMP JUMPDEST SWAP1 POP PUSH2 0x5DF CALLER DUP7 DUP7 DUP5 DUP11 PUSH2 0x84F JUMP JUMPDEST PUSH0 PUSH2 0x4A5 DUP3 PUSH0 PUSH2 0x6C9 JUMP JUMPDEST PUSH1 0x1 PUSH1 0x1 PUSH1 0xA0 SHL SUB DUP2 AND PUSH0 SWAP1 DUP2 MSTORE PUSH1 0x20 DUP2 SWAP1 MSTORE PUSH1 0x40 DUP2 KECCAK256 SLOAD PUSH2 0x4A5 SWAP1 PUSH0 PUSH2 0x67F JUMP JUMPDEST PUSH1 0x1 PUSH1 0x1 PUSH1 0xA0 SHL SUB DUP2 AND PUSH0 SWAP1 DUP2 MSTORE PUSH1 0x20 DUP2 SWAP1 MSTORE PUSH1 0x40 DUP2 KECCAK256 SLOAD PUSH2 0x4A5 JUMP JUMPDEST PUSH0 PUSH2 0x4EC PUSH2 0x68B PUSH2 0x37D JUMP JUMPDEST PUSH2 0x696 SWAP1 PUSH1 0x1 PUSH2 0x1080 JUMP JUMPDEST PUSH2 0x6A1 PUSH0 PUSH1 0xA PUSH2 0x1176 JUMP JUMPDEST PUSH1 0x2 SLOAD PUSH2 0x6AE SWAP2 SWAP1 PUSH2 0x1080 JUMP JUMPDEST DUP6 SWAP2 SWAP1 DUP6 PUSH2 0x90F JUMP JUMPDEST PUSH2 0x6C4 DUP4 DUP4 DUP4 PUSH1 0x1 PUSH2 0x95C JUMP JUMPDEST POP POP POP JUMP JUMPDEST PUSH0 PUSH2 0x4EC PUSH2 0x6D8 DUP3 PUSH1 0xA PUSH2 0x1176 JUMP JUMPDEST PUSH1 0x2 SLOAD PUSH2 0x6E5 SWAP2 SWAP1 PUSH2 0x1080 JUMP JUMPDEST PUSH2 0x6ED PUSH2 0x37D JUMP JUMPDEST PUSH2 0x6AE SWAP1 PUSH1 0x1 PUSH2 0x1080 JUMP JUMPDEST PUSH1 0x1 PUSH1 0x1 PUSH1 0xA0 SHL SUB DUP4 DUP2 AND PUSH0 SWAP1 DUP2 MSTORE PUSH1 0x1 PUSH1 0x20 SWAP1 DUP2 MSTORE PUSH1 0x40 DUP1 DUP4 KECCAK256 SWAP4 DUP7 AND DUP4 MSTORE SWAP3 SWAP1 MSTORE KECCAK256 SLOAD PUSH0 NOT DUP2 EQ PUSH2 0x75A JUMPI DUP2 DUP2 LT ISZERO PUSH2 0x74C JUMPI DUP3 DUP2 DUP4 PUSH1 0x40 MLOAD PUSH4 0x7DC7A0D9 PUSH1 0xE1 SHL DUP2 MSTORE PUSH1 0x4 ADD PUSH2 0x526 SWAP4 SWAP3 SWAP2 SWAP1 PUSH2 0x105F JUMP JUMPDEST PUSH2 0x75A DUP5 DUP5 DUP5 DUP5 SUB PUSH0 PUSH2 0x95C JUMP JUMPDEST POP POP POP POP JUMP JUMPDEST PUSH1 0x1 PUSH1 0x1 PUSH1 0xA0 SHL SUB DUP4 AND PUSH2 0x789 JUMPI PUSH1 0x40 MLOAD PUSH4 0x4B637E8F PUSH1 0xE1 SHL DUP2 MSTORE PUSH0 PUSH1 0x4 DUP3 ADD MSTORE PUSH1 0x24 ADD PUSH2 0x526 JUMP JUMPDEST PUSH1 0x1 PUSH1 0x1 PUSH1 0xA0 SHL SUB DUP3 AND PUSH2 0x7B2 JUMPI PUSH1 0x40 MLOAD PUSH4 0xEC442F05 PUSH1 0xE0 SHL DUP2 MSTORE PUSH0 PUSH1 0x4 DUP3 ADD MSTORE PUSH1 0x24 ADD PUSH2 0x526 JUMP JUMPDEST PUSH2 0x6C4 DUP4 DUP4 DUP4 PUSH2 0xA20 JUMP JUMPDEST PUSH2 0x7E9 PUSH32 0x0 DUP6 ADDRESS DUP6 PUSH2 0xB33 JUMP JUMPDEST PUSH2 0x7F3 DUP4 DUP3 PUSH2 0xB9A JUMP JUMPDEST DUP3 PUSH1 0x1 PUSH1 0x1 PUSH1 0xA0 SHL SUB AND DUP5 PUSH1 0x1 PUSH1 0x1 PUSH1 0xA0 SHL SUB AND PUSH32 0xDCBC1C05240F31FF3AD067EF1EE35CE4997762752E3A095284754544F4C709D7 DUP5 DUP5 PUSH1 0x40 MLOAD PUSH2 0x841 SWAP3 SWAP2 SWAP1 SWAP2 DUP3 MSTORE PUSH1 0x20 DUP3 ADD MSTORE PUSH1 0x40 ADD SWAP1 JUMP JUMPDEST PUSH1 0x40 MLOAD DUP1 SWAP2 SUB SWAP1 LOG3 POP POP POP POP JUMP JUMPDEST DUP3 PUSH1 0x1 PUSH1 0x1 PUSH1 0xA0 SHL SUB AND DUP6 PUSH1 0x1 PUSH1 0x1 PUSH1 0xA0 SHL SUB AND EQ PUSH2 0x873 JUMPI PUSH2 0x873 DUP4 DUP7 DUP4 PUSH2 0x6F8 JUMP JUMPDEST PUSH2 0x87D DUP4 DUP3 PUSH2 0xBD2 JUMP JUMPDEST PUSH2 0x8A8 PUSH32 0x0 DUP6 DUP5 PUSH2 0xC06 JUMP JUMPDEST DUP3 PUSH1 0x1 PUSH1 0x1 PUSH1 0xA0 SHL SUB AND DUP5 PUSH1 0x1 PUSH1 0x1 PUSH1 0xA0 SHL SUB AND DUP7 PUSH1 0x1 PUSH1 0x1 PUSH1 0xA0 SHL SUB AND PUSH32 0xFBDE797D201C681B91056529119E0B02407C7BB96A4A2C75C01FC9667232C8DB DUP6 DUP6 PUSH1 0x40 MLOAD PUSH2 0x900 SWAP3 SWAP2 SWAP1 SWAP2 DUP3 MSTORE PUSH1 0x20 DUP3 ADD MSTORE PUSH1 0x40 ADD SWAP1 JUMP JUMPDEST PUSH1 0x40 MLOAD DUP1 SWAP2 SUB SWAP1 LOG4 POP POP POP POP POP JUMP JUMPDEST PUSH0 DUP1 PUSH2 0x91C DUP7 DUP7 DUP7 PUSH2 0xC37 JUMP JUMPDEST SWAP1 POP PUSH2 0x927 DUP4 PUSH2 0xCF6 JUMP JUMPDEST DUP1 ISZERO PUSH2 0x942 JUMPI POP PUSH0 DUP5 DUP1 PUSH2 0x93D JUMPI PUSH2 0x93D PUSH2 0x1184 JUMP JUMPDEST DUP7 DUP9 MULMOD GT JUMPDEST ISZERO PUSH2 0x5DF JUMPI PUSH2 0x952 PUSH1 0x1 DUP3 PUSH2 0x1080 JUMP JUMPDEST SWAP7 SWAP6 POP POP POP POP POP POP JUMP JUMPDEST PUSH1 0x1 PUSH1 0x1 PUSH1 0xA0 SHL SUB DUP5 AND PUSH2 0x985 JUMPI PUSH1 0x40 MLOAD PUSH4 0xE602DF05 PUSH1 0xE0 SHL DUP2 MSTORE PUSH0 PUSH1 0x4 DUP3 ADD MSTORE PUSH1 0x24 ADD PUSH2 0x526 JUMP JUMPDEST PUSH1 0x1 PUSH1 0x1 PUSH1 0xA0 SHL SUB DUP4 AND PUSH2 0x9AE JUMPI PUSH1 0x40 MLOAD PUSH4 0x4A1406B1 PUSH1 0xE1 SHL DUP2 MSTORE PUSH0 PUSH1 0x4 DUP3 ADD MSTORE PUSH1 0x24 ADD PUSH2 0x526 JUMP JUMPDEST PUSH1 0x1 PUSH1 0x1 PUSH1 0xA0 SHL SUB DUP1 DUP6 AND PUSH0 SWAP1 DUP2 MSTORE PUSH1 0x1 PUSH1 0x20 SWAP1 DUP2 MSTORE PUSH1 0x40 DUP1 DUP4 KECCAK256 SWAP4 DUP8 AND DUP4 MSTORE SWAP3 SWAP1 MSTORE KECCAK256 DUP3 SWAP1 SSTORE DUP1 ISZERO PUSH2 0x75A JUMPI DUP3 PUSH1 0x1 PUSH1 0x1 PUSH1 0xA0 SHL SUB AND DUP5 PUSH1 0x1 PUSH1 0x1 PUSH1 0xA0 SHL SUB AND PUSH32 0x8C5BE1E5EBEC7D5BD14F71427D1E84F3DD0314C0F7B2291E5B200AC8C7C3B925 DUP5 PUSH1 0x40 MLOAD PUSH2 0x841 SWAP2 DUP2 MSTORE PUSH1 0x20 ADD SWAP1 JUMP JUMPDEST PUSH1 0x1 PUSH1 0x1 PUSH1 0xA0 SHL SUB DUP4 AND PUSH2 0xA4A JUMPI DUP1 PUSH1 0x2 PUSH0 DUP3 DUP3 SLOAD PUSH2 0xA3F SWAP2 SWAP1 PUSH2 0x1080 JUMP JUMPDEST SWAP1 SWAP2 SSTORE POP PUSH2 0xAA7 SWAP1 POP JUMP JUMPDEST PUSH1 0x1 PUSH1 0x1 PUSH1 0xA0 SHL SUB DUP4 AND PUSH0 SWAP1 DUP2 MSTORE PUSH1 0x20 DUP2 SWAP1 MSTORE PUSH1 0x40 SWAP1 KECCAK256 SLOAD DUP2 DUP2 LT ISZERO PUSH2 0xA89 JUMPI DUP4 DUP2 DUP4 PUSH1 0x40 MLOAD PUSH4 0x391434E3 PUSH1 0xE2 SHL DUP2 MSTORE PUSH1 0x4 ADD PUSH2 0x526 SWAP4 SWAP3 SWAP2 SWAP1 PUSH2 0x105F JUMP JUMPDEST PUSH1 0x1 PUSH1 0x1 PUSH1 0xA0 SHL SUB DUP5 AND PUSH0 SWAP1 DUP2 MSTORE PUSH1 0x20 DUP2 SWAP1 MSTORE PUSH1 0x40 SWAP1 KECCAK256 SWAP1 DUP3 SWAP1 SUB SWAP1 SSTORE JUMPDEST PUSH1 0x1 PUSH1 0x1 PUSH1 0xA0 SHL SUB DUP3 AND PUSH2 0xAC3 JUMPI PUSH1 0x2 DUP1 SLOAD DUP3 SWAP1 SUB SWAP1 SSTORE PUSH2 0xAE1 JUMP JUMPDEST PUSH1 0x1 PUSH1 0x1 PUSH1 0xA0 SHL SUB DUP3 AND PUSH0 SWAP1 DUP2 MSTORE PUSH1 0x20 DUP2 SWAP1 MSTORE PUSH1 0x40 SWAP1 KECCAK256 DUP1 SLOAD DUP3 ADD SWAP1 SSTORE JUMPDEST DUP2 PUSH1 0x1 PUSH1 0x1 PUSH1 0xA0 SHL SUB AND DUP4 PUSH1 0x1 PUSH1 0x1 PUSH1 0xA0 SHL SUB AND PUSH32 0xDDF252AD1BE2C89B69C2B068FC378DAA952BA7F163C4A11628F55A4DF523B3EF DUP4 PUSH1 0x40 MLOAD PUSH2 0xB26 SWAP2 DUP2 MSTORE PUSH1 0x20 ADD SWAP1 JUMP JUMPDEST PUSH1 0x40 MLOAD DUP1 SWAP2 SUB SWAP1 LOG3 POP POP POP JUMP JUMPDEST PUSH1 0x40 MLOAD PUSH1 0x1 PUSH1 0x1 PUSH1 0xA0 SHL SUB DUP5 DUP2 AND PUSH1 0x24 DUP4 ADD MSTORE DUP4 DUP2 AND PUSH1 0x44 DUP4 ADD MSTORE PUSH1 0x64 DUP3 ADD DUP4 SWAP1 MSTORE PUSH2 0x75A SWAP2 DUP7 SWAP2 DUP3 AND SWAP1 PUSH4 0x23B872DD SWAP1 PUSH1 0x84 ADD JUMPDEST PUSH1 0x40 MLOAD PUSH1 0x20 DUP2 DUP4 SUB SUB DUP2 MSTORE SWAP1 PUSH1 0x40 MSTORE SWAP2 POP PUSH1 0xE0 SHL PUSH1 0x20 DUP3 ADD DUP1 MLOAD PUSH1 0x1 PUSH1 0x1 PUSH1 0xE0 SHL SUB DUP4 DUP2 DUP4 AND OR DUP4 MSTORE POP POP POP POP PUSH2 0xD22 JUMP JUMPDEST PUSH1 0x1 PUSH1 0x1 PUSH1 0xA0 SHL SUB DUP3 AND PUSH2 0xBC3 JUMPI PUSH1 0x40 MLOAD PUSH4 0xEC442F05 PUSH1 0xE0 SHL DUP2 MSTORE PUSH0 PUSH1 0x4 DUP3 ADD MSTORE PUSH1 0x24 ADD PUSH2 0x526 JUMP JUMPDEST PUSH2 0xBCE PUSH0 DUP4 DUP4 PUSH2 0xA20 JUMP JUMPDEST POP POP JUMP JUMPDEST PUSH1 0x1 PUSH1 0x1 PUSH1 0xA0 SHL SUB DUP3 AND PUSH2 0xBFB JUMPI PUSH1 0x40 MLOAD PUSH4 0x4B637E8F PUSH1 0xE1 SHL DUP2 MSTORE PUSH0 PUSH1 0x4 DUP3 ADD MSTORE PUSH1 0x24 ADD PUSH2 0x526 JUMP JUMPDEST PUSH2 0xBCE DUP3 PUSH0 DUP4 PUSH2 0xA20 JUMP JUMPDEST PUSH1 0x40 MLOAD PUSH1 0x1 PUSH1 0x1 PUSH1 0xA0 SHL SUB DUP4 DUP2 AND PUSH1 0x24 DUP4 ADD MSTORE PUSH1 0x44 DUP3 ADD DUP4 SWAP1 MSTORE PUSH2 0x6C4 SWAP2 DUP6 SWAP2 DUP3 AND SWAP1 PUSH4 0xA9059CBB SWAP1 PUSH1 0x64 ADD PUSH2 0xB68 JUMP JUMPDEST PUSH0 DUP4 DUP4 MUL DUP2 PUSH0 NOT DUP6 DUP8 MULMOD DUP3 DUP2 LT DUP4 DUP3 SUB SUB SWAP2 POP POP DUP1 PUSH0 SUB PUSH2 0xC6B JUMPI DUP4 DUP3 DUP2 PUSH2 0xC61 JUMPI PUSH2 0xC61 PUSH2 0x1184 JUMP JUMPDEST DIV SWAP3 POP POP POP PUSH2 0x4EC JUMP JUMPDEST DUP1 DUP5 GT PUSH2 0xC8B JUMPI PUSH1 0x40 MLOAD PUSH4 0x227BC153 PUSH1 0xE0 SHL DUP2 MSTORE PUSH1 0x4 ADD PUSH1 0x40 MLOAD DUP1 SWAP2 SUB SWAP1 REVERT JUMPDEST PUSH0 DUP5 DUP7 DUP9 MULMOD PUSH0 DUP7 DUP2 SUB DUP8 AND SWAP7 DUP8 SWAP1 DIV SWAP7 PUSH1 0x2 PUSH1 0x3 DUP10 MUL DUP2 XOR DUP1 DUP11 MUL DUP3 SUB MUL DUP1 DUP11 MUL DUP3 SUB MUL DUP1 DUP11 MUL DUP3 SUB MUL DUP1 DUP11 MUL DUP3 SUB MUL DUP1 DUP11 MUL DUP3 SUB MUL DUP1 DUP11 MUL SWAP1 SWAP2 SUB MUL SWAP2 DUP2 SWAP1 SUB DUP2 SWAP1 DIV PUSH1 0x1 ADD DUP7 DUP5 GT SWAP1 SWAP6 SUB SWAP5 SWAP1 SWAP5 MUL SWAP2 SWAP1 SWAP5 SUB SWAP3 SWAP1 SWAP3 DIV SWAP2 SWAP1 SWAP2 OR SWAP2 SWAP1 SWAP2 MUL SWAP2 POP POP SWAP4 SWAP3 POP POP POP JUMP JUMPDEST PUSH0 PUSH1 0x2 DUP3 PUSH1 0x3 DUP2 GT ISZERO PUSH2 0xD0B JUMPI PUSH2 0xD0B PUSH2 0x1198 JUMP JUMPDEST PUSH2 0xD15 SWAP2 SWAP1 PUSH2 0x11AC JUMP JUMPDEST PUSH1 0xFF AND PUSH1 0x1 EQ SWAP1 POP SWAP2 SWAP1 POP JUMP JUMPDEST PUSH0 PUSH2 0xD36 PUSH1 0x1 PUSH1 0x1 PUSH1 0xA0 SHL SUB DUP5 AND DUP4 PUSH2 0xD83 JUMP JUMPDEST SWAP1 POP DUP1 MLOAD PUSH0 EQ ISZERO DUP1 ISZERO PUSH2 0xD5A JUMPI POP DUP1 DUP1 PUSH1 0x20 ADD SWAP1 MLOAD DUP2 ADD SWAP1 PUSH2 0xD58 SWAP2 SWAP1 PUSH2 0x11D9 JUMP JUMPDEST ISZERO JUMPDEST ISZERO PUSH2 0x6C4 JUMPI PUSH1 0x40 MLOAD PUSH4 0x5274AFE7 PUSH1 0xE0 SHL DUP2 MSTORE PUSH1 0x1 PUSH1 0x1 PUSH1 0xA0 SHL SUB DUP5 AND PUSH1 0x4 DUP3 ADD MSTORE PUSH1 0x24 ADD PUSH2 0x526 JUMP JUMPDEST PUSH1 0x60 PUSH2 0x4EC DUP4 DUP4 PUSH0 DUP5 PUSH0 DUP1 DUP6 PUSH1 0x1 PUSH1 0x1 PUSH1 0xA0 SHL SUB AND DUP5 DUP7 PUSH1 0x40 MLOAD PUSH2 0xDA7 SWAP2 SWAP1 PUSH2 0x11F8 JUMP JUMPDEST PUSH0 PUSH1 0x40 MLOAD DUP1 DUP4 SUB DUP2 DUP6 DUP8 GAS CALL SWAP3 POP POP POP RETURNDATASIZE DUP1 PUSH0 DUP2 EQ PUSH2 0xDE1 JUMPI PUSH1 0x40 MLOAD SWAP2 POP PUSH1 0x1F NOT PUSH1 0x3F RETURNDATASIZE ADD AND DUP3 ADD PUSH1 0x40 MSTORE RETURNDATASIZE DUP3 MSTORE RETURNDATASIZE PUSH0 PUSH1 0x20 DUP5 ADD RETURNDATACOPY PUSH2 0xDE6 JUMP JUMPDEST PUSH1 0x60 SWAP2 POP JUMPDEST POP SWAP2 POP SWAP2 POP PUSH2 0x952 DUP7 DUP4 DUP4 PUSH1 0x60 DUP3 PUSH2 0xE06 JUMPI PUSH2 0xE01 DUP3 PUSH2 0xE4D JUMP JUMPDEST PUSH2 0x4EC JUMP JUMPDEST DUP2 MLOAD ISZERO DUP1 ISZERO PUSH2 0xE1D JUMPI POP PUSH1 0x1 PUSH1 0x1 PUSH1 0xA0 SHL SUB DUP5 AND EXTCODESIZE ISZERO JUMPDEST ISZERO PUSH2 0xE46 JUMPI PUSH1 0x40 MLOAD PUSH4 0x9996B315 PUSH1 0xE0 SHL DUP2 MSTORE PUSH1 0x1 PUSH1 0x1 PUSH1 0xA0 SHL SUB DUP6 AND PUSH1 0x4 DUP3 ADD MSTORE PUSH1 0x24 ADD PUSH2 0x526 JUMP JUMPDEST POP DUP1 PUSH2 0x4EC JUMP JUMPDEST DUP1 MLOAD ISZERO PUSH2 0xE5D JUMPI DUP1 MLOAD DUP1 DUP3 PUSH1 0x20 ADD REVERT JUMPDEST PUSH1 0x40 MLOAD PUSH4 0xA12F521 PUSH1 0xE1 SHL DUP2 MSTORE PUSH1 0x4 ADD PUSH1 0x40 MLOAD DUP1 SWAP2 SUB SWAP1 REVERT JUMPDEST PUSH1 0x20 DUP2 MSTORE PUSH0 DUP3 MLOAD DUP1 PUSH1 0x20 DUP5 ADD MSTORE DUP1 PUSH1 0x20 DUP6 ADD PUSH1 0x40 DUP6 ADD MCOPY PUSH0 PUSH1 0x40 DUP3 DUP6 ADD ADD MSTORE PUSH1 0x40 PUSH1 0x1F NOT PUSH1 0x1F DUP4 ADD AND DUP5 ADD ADD SWAP2 POP POP SWAP3 SWAP2 POP POP JUMP JUMPDEST PUSH0 PUSH1 0x20 DUP3 DUP5 SUB SLT ISZERO PUSH2 0xEBB JUMPI PUSH0 DUP1 REVERT JUMPDEST POP CALLDATALOAD SWAP2 SWAP1 POP JUMP JUMPDEST DUP1 CALLDATALOAD PUSH1 0x1 PUSH1 0x1 PUSH1 0xA0 SHL SUB DUP2 AND DUP2 EQ PUSH2 0xED8 JUMPI PUSH0 DUP1 REVERT JUMPDEST SWAP2 SWAP1 POP JUMP JUMPDEST PUSH0 DUP1 PUSH1 0x40 DUP4 DUP6 SUB SLT ISZERO PUSH2 0xEEE JUMPI PUSH0 DUP1 REVERT JUMPDEST PUSH2 0xEF7 DUP4 PUSH2 0xEC2 JUMP JUMPDEST SWAP5 PUSH1 0x20 SWAP4 SWAP1 SWAP4 ADD CALLDATALOAD SWAP4 POP POP POP JUMP JUMPDEST PUSH0 DUP1 PUSH0 PUSH1 0x60 DUP5 DUP7 SUB SLT ISZERO PUSH2 0xF17 JUMPI PUSH0 DUP1 REVERT JUMPDEST PUSH2 0xF20 DUP5 PUSH2 0xEC2 JUMP JUMPDEST SWAP3 POP PUSH2 0xF2E PUSH1 0x20 DUP6 ADD PUSH2 0xEC2 JUMP JUMPDEST SWAP3 SWAP6 SWAP3 SWAP5 POP POP POP PUSH1 0x40 SWAP2 SWAP1 SWAP2 ADD CALLDATALOAD SWAP1 JUMP JUMPDEST PUSH0 PUSH1 0x20 DUP3 DUP5 SUB SLT ISZERO PUSH2 0xF4F JUMPI PUSH0 DUP1 REVERT JUMPDEST PUSH2 0x4EC DUP3 PUSH2 0xEC2 JUMP JUMPDEST PUSH0 DUP1 PUSH1 0x40 DUP4 DUP6 SUB SLT ISZERO PUSH2 0xF69 JUMPI PUSH0 DUP1 REVERT JUMPDEST DUP3 CALLDATALOAD SWAP2 POP PUSH2 0xF79 PUSH1 0x20 DUP5 ADD PUSH2 0xEC2 JUMP JUMPDEST SWAP1 POP SWAP3 POP SWAP3 SWAP1 POP JUMP JUMPDEST PUSH0 DUP1 PUSH0 PUSH1 0x60 DUP5 DUP7 SUB SLT ISZERO PUSH2 0xF94 JUMPI PUSH0 DUP1 REVERT JUMPDEST DUP4 CALLDATALOAD SWAP3 POP PUSH2 0xFA4 PUSH1 0x20 DUP6 ADD PUSH2 0xEC2 JUMP JUMPDEST SWAP2 POP PUSH2 0xFB2 PUSH1 0x40 DUP6 ADD PUSH2 0xEC2 JUMP JUMPDEST SWAP1 POP SWAP3 POP SWAP3 POP SWAP3 JUMP JUMPDEST PUSH0 DUP1 PUSH1 0x40 DUP4 DUP6 SUB SLT ISZERO PUSH2 0xFCC JUMPI PUSH0 DUP1 REVERT JUMPDEST PUSH2 0xFD5 DUP4 PUSH2 0xEC2 JUMP JUMPDEST SWAP2 POP PUSH2 0xF79 PUSH1 0x20 DUP5 ADD PUSH2 0xEC2 JUMP JUMPDEST PUSH0 PUSH1 0x20 DUP3 DUP5 SUB SLT ISZERO PUSH2 0xFF3 JUMPI PUSH0 DUP1 REVERT JUMPDEST POP MLOAD SWAP2 SWAP1 POP JUMP JUMPDEST PUSH1 0x1 DUP2 DUP2 SHR SWAP1 DUP3 AND DUP1 PUSH2 0x100E JUMPI PUSH1 0x7F DUP3 AND SWAP2 POP JUMPDEST PUSH1 0x20 DUP3 LT DUP2 SUB PUSH2 0x102C JUMPI PUSH4 0x4E487B71 PUSH1 0xE0 SHL PUSH0 MSTORE PUSH1 0x22 PUSH1 0x4 MSTORE PUSH1 0x24 PUSH0 REVERT JUMPDEST POP SWAP2 SWAP1 POP JUMP JUMPDEST PUSH4 0x4E487B71 PUSH1 0xE0 SHL PUSH0 MSTORE PUSH1 0x11 PUSH1 0x4 MSTORE PUSH1 0x24 PUSH0 REVERT JUMPDEST PUSH1 0xFF DUP2 DUP2 AND DUP4 DUP3 AND ADD SWAP1 DUP2 GT ISZERO PUSH2 0x4A5 JUMPI PUSH2 0x4A5 PUSH2 0x1032 JUMP JUMPDEST PUSH1 0x1 PUSH1 0x1 PUSH1 0xA0 SHL SUB SWAP4 SWAP1 SWAP4 AND DUP4 MSTORE PUSH1 0x20 DUP4 ADD SWAP2 SWAP1 SWAP2 MSTORE PUSH1 0x40 DUP3 ADD MSTORE PUSH1 0x60 ADD SWAP1 JUMP JUMPDEST DUP1 DUP3 ADD DUP1 DUP3 GT ISZERO PUSH2 0x4A5 JUMPI PUSH2 0x4A5 PUSH2 0x1032 JUMP JUMPDEST PUSH1 0x1 DUP2 JUMPDEST PUSH1 0x1 DUP5 GT ISZERO PUSH2 0x10CE JUMPI DUP1 DUP6 DIV DUP2 GT ISZERO PUSH2 0x10B2 JUMPI PUSH2 0x10B2 PUSH2 0x1032 JUMP JUMPDEST PUSH1 0x1 DUP5 AND ISZERO PUSH2 0x10C0 JUMPI SWAP1 DUP2 MUL SWAP1 JUMPDEST PUSH1 0x1 SWAP4 SWAP1 SWAP4 SHR SWAP3 DUP1 MUL PUSH2 0x1097 JUMP JUMPDEST SWAP4 POP SWAP4 SWAP2 POP POP JUMP JUMPDEST PUSH0 DUP3 PUSH2 0x10E4 JUMPI POP PUSH1 0x1 PUSH2 0x4A5 JUMP JUMPDEST DUP2 PUSH2 0x10F0 JUMPI POP PUSH0 PUSH2 0x4A5 JUMP JUMPDEST DUP2 PUSH1 0x1 DUP2 EQ PUSH2 0x1106 JUMPI PUSH1 0x2 DUP2 EQ PUSH2 0x1110 JUMPI PUSH2 0x112C JUMP JUMPDEST PUSH1 0x1 SWAP2 POP POP PUSH2 0x4A5 JUMP JUMPDEST PUSH1 0xFF DUP5 GT ISZERO PUSH2 0x1121 JUMPI PUSH2 0x1121 PUSH2 0x1032 JUMP JUMPDEST POP POP PUSH1 0x1 DUP3 SHL PUSH2 0x4A5 JUMP JUMPDEST POP PUSH1 0x20 DUP4 LT PUSH2 0x133 DUP4 LT AND PUSH1 0x4E DUP5 LT PUSH1 0xB DUP5 LT AND OR ISZERO PUSH2 0x114F JUMPI POP DUP2 DUP2 EXP PUSH2 0x4A5 JUMP JUMPDEST PUSH2 0x115B PUSH0 NOT DUP5 DUP5 PUSH2 0x1093 JUMP JUMPDEST DUP1 PUSH0 NOT DIV DUP3 GT ISZERO PUSH2 0x116E JUMPI PUSH2 0x116E PUSH2 0x1032 JUMP JUMPDEST MUL SWAP4 SWAP3 POP POP POP JUMP JUMPDEST PUSH0 PUSH2 0x4EC PUSH1 0xFF DUP5 AND DUP4 PUSH2 0x10D6 JUMP JUMPDEST PUSH4 0x4E487B71 PUSH1 0xE0 SHL PUSH0 MSTORE PUSH1 0x12 PUSH1 0x4 MSTORE PUSH1 0x24 PUSH0 REVERT JUMPDEST PUSH4 0x4E487B71 PUSH1 0xE0 SHL PUSH0 MSTORE PUSH1 0x21 PUSH1 0x4 MSTORE PUSH1 0x24 PUSH0 REVERT JUMPDEST PUSH0 PUSH1 0xFF DUP4 AND DUP1 PUSH2 0x11CA JUMPI PUSH4 0x4E487B71 PUSH1 0xE0 SHL PUSH0 MSTORE PUSH1 0x12 PUSH1 0x4 MSTORE PUSH1 0x24 PUSH0 REVERT JUMPDEST DUP1 PUSH1 0xFF DUP5 AND MOD SWAP2 POP POP SWAP3 SWAP2 POP POP JUMP JUMPDEST PUSH0 PUSH1 0x20 DUP3 DUP5 SUB SLT ISZERO PUSH2 0x11E9 JUMPI PUSH0 DUP1 REVERT JUMPDEST DUP2 MLOAD DUP1 ISZERO ISZERO DUP2 EQ PUSH2 0x4EC JUMPI PUSH0 DUP1 REVERT JUMPDEST PUSH0 DUP3 MLOAD DUP1 PUSH1 0x20 DUP6 ADD DUP5 MCOPY PUSH0 SWAP3 ADD SWAP2 DUP3 MSTORE POP SWAP2 SWAP1 POP JUMP INVALID LOG2 PUSH5 0x6970667358 0x22 SLT KECCAK256 0x2A RETURNDATASIZE SWAP5 GT EXTCODEHASH SAR PUSH12 0x24A39C62072A731CA8EBA44E DUP13 SMOD DELEGATECALL 0xDE RETURNDATASIZE SWAP8 0xB9 PUSH0 NUMBER MSTORE ISZERO CALLDATALOAD 0xC3 PUSH5 0x736F6C6343 STOP ADDMOD BYTE STOP CALLER "
		},
		"gasEstimates": {
			"creation": {
				"codeDepositCost": "935200",
				"executionCost": "infinite",
				"totalCost": "infinite"
			},
			"external": {
				"allowance(address,address)": "infinite",
				"approve(address,uint256)": "24798",
				"asset()": "infinite",
				"balanceOf(address)": "2549",
				"convertToAssets(uint256)": "infinite",
				"convertToShares(uint256)": "infinite",
				"decimals()": "infinite",
				"deposit(uint256,address)": "infinite",
				"maxDeposit(address)": "433",
				"maxMint(address)": "411",
				"maxRedeem(address)": "2626",
				"maxWithdraw(address)": "infinite",
				"mint(uint256,address)": "infinite",
				"name()": "infinite",
				"previewDeposit(uint256)": "infinite",
				"previewMint(uint256)": "infinite",
				"previewRedeem(uint256)": "infinite",
				"previewWithdraw(uint256)": "infinite",
				"redeem(uint256,address,address)": "infinite",
				"symbol()": "infinite",
				"totalAssets()": "infinite",
				"totalSupply()": "2414",
				"transfer(address,uint256)": "51301",
				"transferFrom(address,address,uint256)": "infinite",
				"withdraw(uint256,address,address)": "infinite"
			}
		},
		"methodIdentifiers": {
			"allowance(address,address)": "dd62ed3e",
			"approve(address,uint256)": "095ea7b3",
			"asset()": "38d52e0f",
			"balanceOf(address)": "70a08231",
			"convertToAssets(uint256)": "07a2d13a",
			"convertToShares(uint256)": "c6e6f592",
			"decimals()": "313ce567",
			"deposit(uint256,address)": "6e553f65",
			"maxDeposit(address)": "402d267d",
			"maxMint(address)": "c63d75b6",
			"maxRedeem(address)": "d905777e",
			"maxWithdraw(address)": "ce96cb77",
			"mint(uint256,address)": "94bf804d",
			"name()": "06fdde03",
			"previewDeposit(uint256)": "ef8b30f7",
			"previewMint(uint256)": "b3d7f6b9",
			"previewRedeem(uint256)": "4cdad506",
			"previewWithdraw(uint256)": "0a28a477",
			"redeem(uint256,address,address)": "ba087652",
			"symbol()": "95d89b41",
			"totalAssets()": "01e1d114",
			"totalSupply()": "18160ddd",
			"transfer(address,uint256)": "a9059cbb",
			"transferFrom(address,address,uint256)": "23b872dd",
			"withdraw(uint256,address,address)": "b460af94"
		}
	},
	"abi": [
		{
			"inputs": [
				{
					"internalType": "contract IERC20",
					"name": "asset",
					"type": "address"
				},
				{
					"internalType": "string",
					"name": "name",
					"type": "string"
				},
				{
					"internalType": "string",
					"name": "symbol",
					"type": "string"
				}
			],
			"stateMutability": "nonpayable",
			"type": "constructor"
		},
		{
			"inputs": [
				{
					"internalType": "address",
					"name": "target",
					"type": "address"
				}
			],
			"name": "AddressEmptyCode",
			"type": "error"
		},
		{
			"inputs": [
				{
					"internalType": "address",
					"name": "account",
					"type": "address"
				}
			],
			"name": "AddressInsufficientBalance",
			"type": "error"
		},
		{
			"inputs": [
				{
					"internalType": "address",
					"name": "spender",
					"type": "address"
				},
				{
					"internalType": "uint256",
					"name": "allowance",
					"type": "uint256"
				},
				{
					"internalType": "uint256",
					"name": "needed",
					"type": "uint256"
				}
			],
			"name": "ERC20InsufficientAllowance",
			"type": "error"
		},
		{
			"inputs": [
				{
					"internalType": "address",
					"name": "sender",
					"type": "address"
				},
				{
					"internalType": "uint256",
					"name": "balance",
					"type": "uint256"
				},
				{
					"internalType": "uint256",
					"name": "needed",
					"type": "uint256"
				}
			],
			"name": "ERC20InsufficientBalance",
			"type": "error"
		},
		{
			"inputs": [
				{
					"internalType": "address",
					"name": "approver",
					"type": "address"
				}
			],
			"name": "ERC20InvalidApprover",
			"type": "error"
		},
		{
			"inputs": [
				{
					"internalType": "address",
					"name": "receiver",
					"type": "address"
				}
			],
			"name": "ERC20InvalidReceiver",
			"type": "error"
		},
		{
			"inputs": [
				{
					"internalType": "address",
					"name": "sender",
					"type": "address"
				}
			],
			"name": "ERC20InvalidSender",
			"type": "error"
		},
		{
			"inputs": [
				{
					"internalType": "address",
					"name": "spender",
					"type": "address"
				}
			],
			"name": "ERC20InvalidSpender",
			"type": "error"
		},
		{
			"inputs": [
				{
					"internalType": "address",
					"name": "receiver",
					"type": "address"
				},
				{
					"internalType": "uint256",
					"name": "assets",
					"type": "uint256"
				},
				{
					"internalType": "uint256",
					"name": "max",
					"type": "uint256"
				}
			],
			"name": "ERC4626ExceededMaxDeposit",
			"type": "error"
		},
		{
			"inputs": [
				{
					"internalType": "address",
					"name": "receiver",
					"type": "address"
				},
				{
					"internalType": "uint256",
					"name": "shares",
					"type": "uint256"
				},
				{
					"internalType": "uint256",
					"name": "max",
					"type": "uint256"
				}
			],
			"name": "ERC4626ExceededMaxMint",
			"type": "error"
		},
		{
			"inputs": [
				{
					"internalType": "address",
					"name": "owner",
					"type": "address"
				},
				{
					"internalType": "uint256",
					"name": "shares",
					"type": "uint256"
				},
				{
					"internalType": "uint256",
					"name": "max",
					"type": "uint256"
				}
			],
			"name": "ERC4626ExceededMaxRedeem",
			"type": "error"
		},
		{
			"inputs": [
				{
					"internalType": "address",
					"name": "owner",
					"type": "address"
				},
				{
					"internalType": "uint256",
					"name": "assets",
					"type": "uint256"
				},
				{
					"internalType": "uint256",
					"name": "max",
					"type": "uint256"
				}
			],
			"name": "ERC4626ExceededMaxWithdraw",
			"type": "error"
		},
		{
			"inputs": [],
			"name": "FailedInnerCall",
			"type": "error"
		},
		{
			"inputs": [],
			"name": "MathOverflowedMulDiv",
			"type": "error"
		},
		{
			"inputs": [
				{
					"internalType": "address",
					"name": "token",
					"type": "address"
				}
			],
			"name": "SafeERC20FailedOperation",
			"type": "error"
		},
		{
			"anonymous": false,
			"inputs": [
				{
					"indexed": true,
					"internalType": "address",
					"name": "owner",
					"type": "address"
				},
				{
					"indexed": true,
					"internalType": "address",
					"name": "spender",
					"type": "address"
				},
				{
					"indexed": false,
					"internalType": "uint256",
					"name": "value",
					"type": "uint256"
				}
			],
			"name": "Approval",
			"type": "event"
		},
		{
			"anonymous": false,
			"inputs": [
				{
					"indexed": true,
					"internalType": "address",
					"name": "sender",
					"type": "address"
				},
				{
					"indexed": true,
					"internalType": "address",
					"name": "owner",
					"type": "address"
				},
				{
					"indexed": false,
					"internalType": "uint256",
					"name": "assets",
					"type": "uint256"
				},
				{
					"indexed": false,
					"internalType": "uint256",
					"name": "shares",
					"type": "uint256"
				}
			],
			"name": "Deposit",
			"type": "event"
		},
		{
			"anonymous": false,
			"inputs": [
				{
					"indexed": true,
					"internalType": "address",
					"name": "from",
					"type": "address"
				},
				{
					"indexed": true,
					"internalType": "address",
					"name": "to",
					"type": "address"
				},
				{
					"indexed": false,
					"internalType": "uint256",
					"name": "value",
					"type": "uint256"
				}
			],
			"name": "Transfer",
			"type": "event"
		},
		{
			"anonymous": false,
			"inputs": [
				{
					"indexed": true,
					"internalType": "address",
					"name": "sender",
					"type": "address"
				},
				{
					"indexed": true,
					"internalType": "address",
					"name": "receiver",
					"type": "address"
				},
				{
					"indexed": true,
					"internalType": "address",
					"name": "owner",
					"type": "address"
				},
				{
					"indexed": false,
					"internalType": "uint256",
					"name": "assets",
					"type": "uint256"
				},
				{
					"indexed": false,
					"internalType": "uint256",
					"name": "shares",
					"type": "uint256"
				}
			],
			"name": "Withdraw",
			"type": "event"
		},
		{
			"inputs": [
				{
					"internalType": "address",
					"name": "owner",
					"type": "address"
				},
				{
					"internalType": "address",
					"name": "spender",
					"type": "address"
				}
			],
			"name": "allowance",
			"outputs": [
				{
					"internalType": "uint256",
					"name": "",
					"type": "uint256"
				}
			],
			"stateMutability": "view",
			"type": "function"
		},
		{
			"inputs": [
				{
					"internalType": "address",
					"name": "spender",
					"type": "address"
				},
				{
					"internalType": "uint256",
					"name": "value",
					"type": "uint256"
				}
			],
			"name": "approve",
			"outputs": [
				{
					"internalType": "bool",
					"name": "",
					"type": "bool"
				}
			],
			"stateMutability": "nonpayable",
			"type": "function"
		},
		{
			"inputs": [],
			"name": "asset",
			"outputs": [
				{
					"internalType": "address",
					"name": "",
					"type": "address"
				}
			],
			"stateMutability": "view",
			"type": "function"
		},
		{
			"inputs": [
				{
					"internalType": "address",
					"name": "account",
					"type": "address"
				}
			],
			"name": "balanceOf",
			"outputs": [
				{
					"internalType": "uint256",
					"name": "",
					"type": "uint256"
				}
			],
			"stateMutability": "view",
			"type": "function"
		},
		{
			"inputs": [
				{
					"internalType": "uint256",
					"name": "shares",
					"type": "uint256"
				}
			],
			"name": "convertToAssets",
			"outputs": [
				{
					"internalType": "uint256",
					"name": "",
					"type": "uint256"
				}
			],
			"stateMutability": "view",
			"type": "function"
		},
		{
			"inputs": [
				{
					"internalType": "uint256",
					"name": "assets",
					"type": "uint256"
				}
			],
			"name": "convertToShares",
			"outputs": [
				{
					"internalType": "uint256",
					"name": "",
					"type": "uint256"
				}
			],
			"stateMutability": "view",
			"type": "function"
		},
		{
			"inputs": [],
			"name": "decimals",
			"outputs": [
				{
					"internalType": "uint8",
					"name": "",
					"type": "uint8"
				}
			],
			"stateMutability": "view",
			"type": "function"
		},
		{
			"inputs": [
				{
					"internalType": "uint256",
					"name": "assets",
					"type": "uint256"
				},
				{
					"internalType": "address",
					"name": "receiver",
					"type": "address"
				}
			],
			"name": "deposit",
			"outputs": [
				{
					"internalType": "uint256",
					"name": "",
					"type": "uint256"
				}
			],
			"stateMutability": "nonpayable",
			"type": "function"
		},
		{
			"inputs": [
				{
					"internalType": "address",
					"name": "",
					"type": "address"
				}
			],
			"name": "maxDeposit",
			"outputs": [
				{
					"internalType": "uint256",
					"name": "",
					"type": "uint256"
				}
			],
			"stateMutability": "view",
			"type": "function"
		},
		{
			"inputs": [
				{
					"internalType": "address",
					"name": "",
					"type": "address"
				}
			],
			"name": "maxMint",
			"outputs": [
				{
					"internalType": "uint256",
					"name": "",
					"type": "uint256"
				}
			],
			"stateMutability": "view",
			"type": "function"
		},
		{
			"inputs": [
				{
					"internalType": "address",
					"name": "owner",
					"type": "address"
				}
			],
			"name": "maxRedeem",
			"outputs": [
				{
					"internalType": "uint256",
					"name": "",
					"type": "uint256"
				}
			],
			"stateMutability": "view",
			"type": "function"
		},
		{
			"inputs": [
				{
					"internalType": "address",
					"name": "owner",
					"type": "address"
				}
			],
			"name": "maxWithdraw",
			"outputs": [
				{
					"internalType": "uint256",
					"name": "",
					"type": "uint256"
				}
			],
			"stateMutability": "view",
			"type": "function"
		},
		{
			"inputs": [
				{
					"internalType": "uint256",
					"name": "shares",
					"type": "uint256"
				},
				{
					"internalType": "address",
					"name": "receiver",
					"type": "address"
				}
			],
			"name": "mint",
			"outputs": [
				{
					"internalType": "uint256",
					"name": "",
					"type": "uint256"
				}
			],
			"stateMutability": "nonpayable",
			"type": "function"
		},
		{
			"inputs": [],
			"name": "name",
			"outputs": [
				{
					"internalType": "string",
					"name": "",
					"type": "string"
				}
			],
			"stateMutability": "view",
			"type": "function"
		},
		{
			"inputs": [
				{
					"internalType": "uint256",
					"name": "assets",
					"type": "uint256"
				}
			],
			"name": "previewDeposit",
			"outputs": [
				{
					"internalType": "uint256",
					"name": "",
					"type": "uint256"
				}
			],
			"stateMutability": "view",
			"type": "function"
		},
		{
			"inputs": [
				{
					"internalType": "uint256",
					"name": "shares",
					"type": "uint256"
				}
			],
			"name": "previewMint",
			"outputs": [
				{
					"internalType": "uint256",
					"name": "",
					"type": "uint256"
				}
			],
			"stateMutability": "view",
			"type": "function"
		},
		{
			"inputs": [
				{
					"internalType": "uint256",
					"name": "shares",
					"type": "uint256"
				}
			],
			"name": "previewRedeem",
			"outputs": [
				{
					"internalType": "uint256",
					"name": "",
					"type": "uint256"
				}
			],
			"stateMutability": "view",
			"type": "function"
		},
		{
			"inputs": [
				{
					"internalType": "uint256",
					"name": "assets",
					"type": "uint256"
				}
			],
			"name": "previewWithdraw",
			"outputs": [
				{
					"internalType": "uint256",
					"name": "",
					"type": "uint256"
				}
			],
			"stateMutability": "view",
			"type": "function"
		},
		{
			"inputs": [
				{
					"internalType": "uint256",
					"name": "shares",
					"type": "uint256"
				},
				{
					"internalType": "address",
					"name": "receiver",
					"type": "address"
				},
				{
					"internalType": "address",
					"name": "owner",
					"type": "address"
				}
			],
			"name": "redeem",
			"outputs": [
				{
					"internalType": "uint256",
					"name": "",
					"type": "uint256"
				}
			],
			"stateMutability": "nonpayable",
			"type": "function"
		},
		{
			"inputs": [],
			"name": "symbol",
			"outputs": [
				{
					"internalType": "string",
					"name": "",
					"type": "string"
				}
			],
			"stateMutability": "view",
			"type": "function"
		},
		{
			"inputs": [],
			"name": "totalAssets",
			"outputs": [
				{
					"internalType": "uint256",
					"name": "",
					"type": "uint256"
				}
			],
			"stateMutability": "view",
			"type": "function"
		},
		{
			"inputs": [],
			"name": "totalSupply",
			"outputs": [
				{
					"internalType": "uint256",
					"name": "",
					"type": "uint256"
				}
			],
			"stateMutability": "view",
			"type": "function"
		},
		{
			"inputs": [
				{
					"internalType": "address",
					"name": "to",
					"type": "address"
				},
				{
					"internalType": "uint256",
					"name": "value",
					"type": "uint256"
				}
			],
			"name": "transfer",
			"outputs": [
				{
					"internalType": "bool",
					"name": "",
					"type": "bool"
				}
			],
			"stateMutability": "nonpayable",
			"type": "function"
		},
		{
			"inputs": [
				{
					"internalType": "address",
					"name": "from",
					"type": "address"
				},
				{
					"internalType": "address",
					"name": "to",
					"type": "address"
				},
				{
					"internalType": "uint256",
					"name": "value",
					"type": "uint256"
				}
			],
			"name": "transferFrom",
			"outputs": [
				{
					"internalType": "bool",
					"name": "",
					"type": "bool"
				}
			],
			"stateMutability": "nonpayable",
			"type": "function"
		},
		{
			"inputs": [
				{
					"internalType": "uint256",
					"name": "assets",
					"type": "uint256"
				},
				{
					"internalType": "address",
					"name": "receiver",
					"type": "address"
				},
				{
					"internalType": "address",
					"name": "owner",
					"type": "address"
				}
			],
			"name": "withdraw",
			"outputs": [
				{
					"internalType": "uint256",
					"name": "",
					"type": "uint256"
				}
			],
			"stateMutability": "nonpayable",
			"type": "function"
		}
	]
}