{
	"data": {
		"bytecode": {
			"linkReferences": {},
			"object": "608034620003d257601f62001d9738819003918201601f19168301916001600160401b038311848410176200032c5780849261018094604052833981010312620003d2576200004e81620003d6565b6200005c60208301620003d6565b916200006b60408201620003d6565b916200007a60608301620003d6565b9260808301519460a08401519360c08101519060e081015160018060a01b0381168103620003d257610100820151916001600160a01b0383168303620003d257620000c96101208201620003d6565b620000e7610160620000df6101408501620003d6565b9301620003d6565b60015f55936001600160a01b038916151580620003bf575b80620003ac575b8062000399575b156200035457600180546001600160a01b03199081166001600160a01b039384161790915560028054821693831693909317909255600380549092169083161790556004549362015180908015828202829004831417156200034057604051996001600160401b036101808c01908111908c11176200032c578c5f6101608d7f3d48195705780f5c10a0d217f778f0f6d562cb1a6a699da31c0d6d756aacedfc9f60609f8f906101800160405260018060a01b0316825260018060a01b038d1660208301528d60018060a01b0316604083015260018060a01b0316938f859083015260808201528460a082015286860260c082015260018060a01b03881660e082015260018060a01b0389166101008201528261012082015242610140820152015260018060a01b038b1660018060a01b0319600554161760055560018060a01b03891660018060a01b0319600654161760065560018060a01b038a1660018060a01b0319600754161760075560018060a01b031960085416176008558c600955600a5502600b5560018060a01b031660018060a01b0319600c541617600c5560018060a01b031660018060a01b0319600d541617600d5560018060a01b0319600e5416600e5542600f555f60105560018060a01b03169060018060a81b0319161760045560405195865260018060a01b0316602086015260018060a01b0316604085015260018060a01b031692a26040516119ab9081620003ec8239f35b634e487b7160e01b5f52604160045260245ffd5b634e487b7160e01b5f52601160045260245ffd5b60405162461bcd60e51b815260206004820152601760248201527f496e76616c696420696e707574206164647265737365730000000000000000006044820152606490fd5b506001600160a01b03881615156200010d565b506001600160a01b038b16151562000106565b506001600160a01b0387161515620000ff565b5f80fd5b51906001600160a01b0382168203620003d25756fe6080604081815260049182361015610015575f80fd5b5f92833560e01c9182630c7277de14611503575081630f4ef8a6146114db57816312261ee7146114b25781631cb0c3e7146114895781632e1283e31461146a5781633b1baeff14611344578163402d888314610dad5781635257b56614610d8e57816364c4bec014610d6f578163654c629514610cd35781636b6d195514610cb357816388f2424b14610a515781638a4adf2414610a285781638db579941461086457816395cb741d146107cd5781639861f3e5146107a45781639e9f669c14610180578163b2a9bb60146101b0578163c19d93fb1461018057508063c51b950714610158578063eb0c4955146101355763f4b01b1814610114575f80fd5b346101315781600319360112610131576020906009549051908152f35b5080fd5b50346101315781600319360112610131576020906101516118f2565b9051908152f35b503461013157816003193601126101315760025490516001600160a01b039091168152602090f35b8284346101ad57806003193601126101ad575060ff6101a9925460a01c16905191829182611528565b0390f35b80fd5b919050346104ed57826003193601126104ed576101cb61154f565b60ff825460a01c1660068110156107915760010361074e57331561070b576005546001600160a01b0392908316903382146106c8576102086118f2565b6102156009549182611646565b6007548551636eb1769f60e11b808252338683019081523060208281019190915297938a16949192908890829081906040010381885afa9081156106be578b91610691575b50106106445760065487519182526001600160a01b039092168582019081523060208201529091869183918a16908290819060400103915afa90811561063a579083918991610609575b50106105c657908692916102bf6102b96118f2565b83611646565b6102c76118f2565b87516323b872dd60e01b808252338783019081523060208201526040810194909452919391929091889183919082908a90829060600103925af180156105bc57916103539391889361059f575b50896007541690878b60035416918b51968795869485938452338c850160409194939294606082019560018060a01b0380921683521660208201520152565b03925af1801561057857610582575b50600754600854865163095ea7b360e01b81529088166001600160a01b0316848201908152602081018490529091869183918a169082908890829060400103925af1801561057857918591859361055b575b50604488600854169188519485938492636e553f6560e01b8452888401523360248401525af1801561051e57908491610528575b50600654600954865163a9059cbb60e01b81523385820190815260208101929092529291839182900360400190829087908b165af1801561051e576104f1575b50600e80546001600160a01b0319163317905542600f55805460ff60a01b1916600160a11b17815561046361045b6118f2565b600954611646565b946003541690813b156104ed5782916024839287519485938492632914526d60e11b845230908401525af180156104e3576104cb575b50507f5150ab7694a22fbc01c642bc10316565247df962fa3f0ac3b5d1a18ba45b485b91519283523392a26001815580f35b6104d4906115a3565b6104df57835f610499565b8380fd5b84513d84823e3d90fd5b8280fd5b61051090843d8611610517575b61050881836115cb565b8101906115ed565b505f610428565b503d6104fe565b85513d85823e3d90fd5b90809293503d8311610554575b61053f81836115cb565b81010312610550578490825f6103e8565b5f80fd5b503d610535565b61057190833d85116105175761050881836115cb565b505f6103b4565b86513d86823e3d90fd5b61059890853d87116105175761050881836115cb565b505f610362565b6105b590843d86116105175761050881836115cb565b505f610314565b88513d88823e3d90fd5b845162461bcd60e51b8152808401859052601b60248201527f496e73756666696369656e74206c6f616e20616c6c6f77616e636500000000006044820152606490fd5b809250868092503d8311610633575b61062281836115cb565b81010312610550578290515f6102a4565b503d610618565b86513d8a823e3d90fd5b865162461bcd60e51b8152808601879052602160248201527f496e73756666696369656e7420636f6c6c61746572616c20616c6c6f77616e636044820152606560f81b6064820152608490fd5b90508781813d83116106b7575b6106a881836115cb565b8101031261055057515f61025a565b503d61069e565b89513d8d823e3d90fd5b606490602084519162461bcd60e51b8352820152601960248201527f4c656e6465722063616e6e6f7420626520626f72726f776572000000000000006044820152fd5b906020606492519162461bcd60e51b8352820152601860248201527f496e76616c696420626f72726f776572206164647265737300000000000000006044820152fd5b906020606492519162461bcd60e51b8352820152601a60248201527f4c6f616e206e6f7420726561647920746f2061637469766174650000000000006044820152fd5b634e487b7160e01b845260218352602484fd5b50503461013157816003193601126101315760055490516001600160a01b039091168152602090f35b5050346101315781600319360112610131576101809060018060a01b038060055416918160065416918060075416908060085416600954600a54600b549184600c54169385600d541695600e541696600f54986010549a81519c8d5260208d01528b015260608a0152608089015260a088015260c087015260e0860152610100850152610120840152610140830152610160820152f35b9050346104ed57826003193601126104ed5761087e61154f565b60ff815460a01c166006811015610a15576109d35760065460055460095484516323b872dd60e01b81526001600160a01b03928316858201908152306020808301919091526040820193909352879593949192918391829003606001908290889088165af180156109c9576109ab575b5042601055805460ff60a01b198116600160a01b1782556006549083169216823b156104df578451637286e5e560e01b8152309281019283526001600160a01b03909116602083015291839183919082908490829060400103925af1801561099e5761098a575b507f9e71d2fb732e68272b7e74ecfd14638673c1d77e19a5d390a3ffff054d57c44b6020836009549051908152a16001815580f35b610993906115a3565b61013157815f610955565b50505051903d90823e3d90fd5b6109c29060203d81116105175761050881836115cb565b505f6108ee565b85513d86823e3d90fd5b6020606492519162461bcd60e51b8352820152601b60248201527f4c6f616e206e6f7420696e20637265617461626c6520737461746500000000006044820152fd5b634e487b7160e01b845260218252602484fd5b50503461013157816003193601126101315760035490516001600160a01b039091168152602090f35b9050346104ed57826003193601126104ed57805460ff8160a01c166006811015610ca0576002610a819114611605565b60ff60a01b1916600360a01b178155610a98611667565b600354600e546001600160a01b03929185918416908416803b156104ed57855163389e006760e11b8152308582019081526001600160a01b039093166020840152918391839182908490829060400103925af18015610c4f57610c8c575b5050610b006117c6565b81600e54167ff4e5cf42cbb1d0c6c91e16d925349feb6c5d970652f6ec77b1ff1262f7284cd59381855f80a2836008541681516370a0823160e01b81528385820152876020958683602481875afa928315610c4f578293610c59575b508451926363737ac960e11b8452818401528683602481875afa928315610c4f57918693918895938293610c18575b508651635d043b2960e11b81529081019283526001600160a01b03948516602084015296909316604082015285928391829060600103925af1908115610c0f5750610be6575b5050610bdb6117c6565b600e5416905f80a280f35b813d8311610c08575b610bf981836115cb565b81010312610550575f80610bd1565b503d610bef565b513d87823e3d90fd5b9450948092508491503d8311610c48575b610c3381836115cb565b8101031261055057859289869351915f610b8b565b503d610c29565b85513d84823e3d90fd5b87809294508193503d8311610c85575b610c7381836115cb565b8101031261055057889051915f610b5c565b503d610c69565b610c95906115a3565b6104df57835f610af6565b634e487b7160e01b855260218352602485fd5b50503461013157816003193601126101315760209061015161045b6118f2565b83833461013157602092836003193601126104ed5780356001600160a01b0381811691829003610d6b5790602486926008541693855194859384926370a0823160e01b84528301525afa928315610d605792610d31575b5051908152f35b9091508281813d8311610d59575b610d4981836115cb565b8101031261055057519083610d2a565b503d610d3f565b8251903d90823e3d90fd5b8480fd5b505034610131578160031936011261013157602090600b549051908152f35b505034610131578160031936011261013157602090600a549051908152f35b919050346104ed57826003193601126104ed57610dc861154f565b600e546001600160a01b039190821633036112f05760ff835460a01c1660068110156112dd5760020361128457610e0061045b6118f2565b610e086118f2565b810392818411611271576007548351636eb1769f60e11b815233878201908152306020828101919091529692841691908790829081906040010381855afa908115611267579085918a91611236575b50106111df5784516370a0823160e01b808252338983015294908781602481865afa9081156111d5578a916111a8575b50106111535760055485516323b872dd60e01b8152338982019081529185166001600160a01b031660208301526040820184905289939290918891839182908790829060600103925af1801561111857611136575b508260035416803b156104ed5785516356f78a1d60e01b815230818a019081523360208201529091849183919082908490829060400103925af1801561111857908391611122575b50508260085416908551906363737ac960e11b8252888201528681602481855afa908115611118579087929184916110e3575b508651635d043b2960e11b8152898101918252336020830181905260408301529384929183919082906060015b03925af180156110d9579085916110b0575b5050845460ff60a01b1916600160a21b1785556007548351928352308387015216938382602481885afa9182156110a6578692611075575b50825163a9059cbb60e01b8152339181019182526020820192909252909383918591908290889082906040015b03925af192831561106b577f4002dba848920f438092e08090cfb5fc47144c22704268b402c9553a1b5adfe69361104e575b506110366117c6565b61104161045b6118f2565b9051908152a16001815580f35b61106490833d85116105175761050881836115cb565b505f61102d565b81513d86823e3d90fd5b91508382813d831161109f575b61108c81836115cb565b8101031261055057905190610ffb610fce565b503d611082565b83513d88823e3d90fd5b813d83116110d2575b6110c381836115cb565b8101031261055057835f610f96565b503d6110b9565b84513d89823e3d90fd5b9350509082813d8311611111575b6110fb81836115cb565b8101031261055057905187918691610f84610f57565b503d6110f1565b86513d85823e3d90fd5b61112b906115a3565b61013157815f610f24565b61114c90873d89116105175761050881836115cb565b505f610edc565b845162461bcd60e51b8152808801879052602960248201527f496e73756666696369656e7420746f6b656e2062616c616e636520666f72207260448201526832b830bcb6b2b73a1760b91b6064820152608490fd5b90508781813d83116111ce575b6111bf81836115cb565b8101031261055057515f610e87565b503d6111b5565b87513d8c823e3d90fd5b845162461bcd60e51b8152808801879052602b60248201527f496e73756666696369656e7420746f6b656e20616c6c6f77616e636520666f7260448201526a103932b830bcb6b2b73a1760a91b6064820152608490fd5b809250888092503d8311611260575b61124f81836115cb565b81010312610550578490515f610e57565b503d611245565b86513d8b823e3d90fd5b634e487b7160e01b865260118552602486fd5b5162461bcd60e51b8152602081840152602e60248201527f4c6f616e206d7573742062652061637469766520746f2070726f63656564207760448201526d34ba34103932b830bcb6b2b73a1760911b6064820152608490fd5b634e487b7160e01b855260218452602485fd5b5162461bcd60e51b8152602081840152602960248201527f4f6e6c792074686520626f72726f7765722063616e20696e697469617465207260448201526832b830bcb6b2b73a1760b91b6064820152608490fd5b838334610131578160031936011261013157825460ff8160a01c1660068110156114575760026113749114611605565b611383600f54600b5490611646565b42101561138e578280f35b60ff60a01b1916600360a01b1783556113a5611667565b6003546005546001600160a01b039490851691851690813b15610d6b57835163389e006760e11b8152309181019182526001600160a01b0390931660208201529192918491849182908490829060400103925af190811561144e575061143f575b50906114106117c6565b600e54167ff4e5cf42cbb1d0c6c91e16d925349feb6c5d970652f6ec77b1ff1262f7284cd55f80a28082808280f35b611448906115a3565b82611406565b513d84823e3d90fd5b634e487b7160e01b845260218552602484fd5b5050346101315781600319360112610131576020906010549051908152f35b505034610131578160031936011261013157600e5490516001600160a01b039091168152602090f35b50503461013157816003193601126101315760015490516001600160a01b039091168152602090f35b9050346104ed57826003193601126104ed575490516001600160a01b03909116815260209150f35b8490346101315781600319360112610131576007546001600160a01b03168152602090f35b91906020830192600682101561153b5752565b634e487b7160e01b5f52602160045260245ffd5b60025f541461155e5760025f55565b60405162461bcd60e51b815260206004820152601f60248201527f5265656e7472616e637947756172643a207265656e7472616e742063616c6c006044820152606490fd5b67ffffffffffffffff81116115b757604052565b634e487b7160e01b5f52604160045260245ffd5b90601f8019910116810190811067ffffffffffffffff8211176115b757604052565b90816020910312610550575180151581036105505790565b1561160c57565b60405162461bcd60e51b81526020600482015260126024820152714c6f616e206973206e6f742061637469766560701b6044820152606490fd5b9190820180921161165357565b634e487b7160e01b5f52601160045260245ffd5b600854600e54604080516370a0823160e01b81526001600160a01b0392831660048201819052602094919390918116908585602481855afa94851561178d575f95611797575b508351946363737ac960e11b865260048601528585602481855afa94851561178d5790869392915f96611755575b506005548551635d043b2960e11b81526004810197909752166001600160a01b039081166024870152919091166044850152839060649082905f905af190811561174c5750611728575050565b813d8311611745575b61173b81836115cb565b8101031261055057565b503d611731565b513d5f823e3d90fd5b9193828197929496973d8311611786575b61177081836115cb565b810103126101ad5750519392859290915f6116db565b503d611766565b84513d5f823e3d90fd5b90948682813d83116117bf575b6117ae81836115cb565b810103126101ad575051935f6116ad565b503d6117a4565b6004805460ff60a01b1916600560a01b1781556002545f916001600160a01b039182169190823b156104df576040918251858160248183637e72c7d760e01b998a835230898401525af180156118d1576118df575b508060035416803b156118db5785809160248651809481936338e270ed60e01b835230898401525af180156118d1579086916118bd575b505081541692833b15610d6b5790602485928385519687948593845230908401525af190811561144e57506118a9575b50807f409fced1b85ae32a29fb1e18894d8361a5f2653dc27adf7102d86175c2901d7c91a1565b6118b382916115a3565b6101ad575f611882565b6118c6906115a3565b610d6b57845f611852565b84513d88823e3d90fd5b8580fd5b6118eb909591956115a3565b935f61181b565b600d54600954600a5460405163efdd7c0760e01b81526004810192909252602482015290602090829060449082906001600160a01b03165afa90811561196a575f9161193c575090565b906020823d8211611962575b81611955602093836115cb565b810103126101ad57505190565b3d9150611948565b6040513d5f823e3d90fdfea2646970667358221220528efc28b35d446608ba94cee7c99b58c32d852307383754d49d51d6164df84264736f6c63430008140033",
			"opcodes": "PUSH1 0x80 CALLVALUE PUSH3 0x3D2 JUMPI PUSH1 0x1F PUSH3 0x1D97 CODESIZE DUP2 SWAP1 SUB SWAP2 DUP3 ADD PUSH1 0x1F NOT AND DUP4 ADD SWAP2 PUSH1 0x1 PUSH1 0x1 PUSH1 0x40 SHL SUB DUP4 GT DUP5 DUP5 LT OR PUSH3 0x32C JUMPI DUP1 DUP5 SWAP3 PUSH2 0x180 SWAP5 PUSH1 0x40 MSTORE DUP4 CODECOPY DUP2 ADD SUB SLT PUSH3 0x3D2 JUMPI PUSH3 0x4E DUP2 PUSH3 0x3D6 JUMP JUMPDEST PUSH3 0x5C PUSH1 0x20 DUP4 ADD PUSH3 0x3D6 JUMP JUMPDEST SWAP2 PUSH3 0x6B PUSH1 0x40 DUP3 ADD PUSH3 0x3D6 JUMP JUMPDEST SWAP2 PUSH3 0x7A PUSH1 0x60 DUP4 ADD PUSH3 0x3D6 JUMP JUMPDEST SWAP3 PUSH1 0x80 DUP4 ADD MLOAD SWAP5 PUSH1 0xA0 DUP5 ADD MLOAD SWAP4 PUSH1 0xC0 DUP2 ADD MLOAD SWAP1 PUSH1 0xE0 DUP2 ADD MLOAD PUSH1 0x1 DUP1 PUSH1 0xA0 SHL SUB DUP2 AND DUP2 SUB PUSH3 0x3D2 JUMPI PUSH2 0x100 DUP3 ADD MLOAD SWAP2 PUSH1 0x1 PUSH1 0x1 PUSH1 0xA0 SHL SUB DUP4 AND DUP4 SUB PUSH3 0x3D2 JUMPI PUSH3 0xC9 PUSH2 0x120 DUP3 ADD PUSH3 0x3D6 JUMP JUMPDEST PUSH3 0xE7 PUSH2 0x160 PUSH3 0xDF PUSH2 0x140 DUP6 ADD PUSH3 0x3D6 JUMP JUMPDEST SWAP4 ADD PUSH3 0x3D6 JUMP JUMPDEST PUSH1 0x1 PUSH0 SSTORE SWAP4 PUSH1 0x1 PUSH1 0x1 PUSH1 0xA0 SHL SUB DUP10 AND ISZERO ISZERO DUP1 PUSH3 0x3BF JUMPI JUMPDEST DUP1 PUSH3 0x3AC JUMPI JUMPDEST DUP1 PUSH3 0x399 JUMPI JUMPDEST ISZERO PUSH3 0x354 JUMPI PUSH1 0x1 DUP1 SLOAD PUSH1 0x1 PUSH1 0x1 PUSH1 0xA0 SHL SUB NOT SWAP1 DUP2 AND PUSH1 0x1 PUSH1 0x1 PUSH1 0xA0 SHL SUB SWAP4 DUP5 AND OR SWAP1 SWAP2 SSTORE PUSH1 0x2 DUP1 SLOAD DUP3 AND SWAP4 DUP4 AND SWAP4 SWAP1 SWAP4 OR SWAP1 SWAP3 SSTORE PUSH1 0x3 DUP1 SLOAD SWAP1 SWAP3 AND SWAP1 DUP4 AND OR SWAP1 SSTORE PUSH1 0x4 SLOAD SWAP4 PUSH3 0x15180 SWAP1 DUP1 ISZERO DUP3 DUP3 MUL DUP3 SWAP1 DIV DUP4 EQ OR ISZERO PUSH3 0x340 JUMPI PUSH1 0x40 MLOAD SWAP10 PUSH1 0x1 PUSH1 0x1 PUSH1 0x40 SHL SUB PUSH2 0x180 DUP13 ADD SWAP1 DUP2 GT SWAP1 DUP13 GT OR PUSH3 0x32C JUMPI DUP13 PUSH0 PUSH2 0x160 DUP14 PUSH32 0x3D48195705780F5C10A0D217F778F0F6D562CB1A6A699DA31C0D6D756AACEDFC SWAP16 PUSH1 0x60 SWAP16 DUP16 SWAP1 PUSH2 0x180 ADD PUSH1 0x40 MSTORE PUSH1 0x1 DUP1 PUSH1 0xA0 SHL SUB AND DUP3 MSTORE PUSH1 0x1 DUP1 PUSH1 0xA0 SHL SUB DUP14 AND PUSH1 0x20 DUP4 ADD MSTORE DUP14 PUSH1 0x1 DUP1 PUSH1 0xA0 SHL SUB AND PUSH1 0x40 DUP4 ADD MSTORE PUSH1 0x1 DUP1 PUSH1 0xA0 SHL SUB AND SWAP4 DUP16 DUP6 SWAP1 DUP4 ADD MSTORE PUSH1 0x80 DUP3 ADD MSTORE DUP5 PUSH1 0xA0 DUP3 ADD MSTORE DUP7 DUP7 MUL PUSH1 0xC0 DUP3 ADD MSTORE PUSH1 0x1 DUP1 PUSH1 0xA0 SHL SUB DUP9 AND PUSH1 0xE0 DUP3 ADD MSTORE PUSH1 0x1 DUP1 PUSH1 0xA0 SHL SUB DUP10 AND PUSH2 0x100 DUP3 ADD MSTORE DUP3 PUSH2 0x120 DUP3 ADD MSTORE TIMESTAMP PUSH2 0x140 DUP3 ADD MSTORE ADD MSTORE PUSH1 0x1 DUP1 PUSH1 0xA0 SHL SUB DUP12 AND PUSH1 0x1 DUP1 PUSH1 0xA0 SHL SUB NOT PUSH1 0x5 SLOAD AND OR PUSH1 0x5 SSTORE PUSH1 0x1 DUP1 PUSH1 0xA0 SHL SUB DUP10 AND PUSH1 0x1 DUP1 PUSH1 0xA0 SHL SUB NOT PUSH1 0x6 SLOAD AND OR PUSH1 0x6 SSTORE PUSH1 0x1 DUP1 PUSH1 0xA0 SHL SUB DUP11 AND PUSH1 0x1 DUP1 PUSH1 0xA0 SHL SUB NOT PUSH1 0x7 SLOAD AND OR PUSH1 0x7 SSTORE PUSH1 0x1 DUP1 PUSH1 0xA0 SHL SUB NOT PUSH1 0x8 SLOAD AND OR PUSH1 0x8 SSTORE DUP13 PUSH1 0x9 SSTORE PUSH1 0xA SSTORE MUL PUSH1 0xB SSTORE PUSH1 0x1 DUP1 PUSH1 0xA0 SHL SUB AND PUSH1 0x1 DUP1 PUSH1 0xA0 SHL SUB NOT PUSH1 0xC SLOAD AND OR PUSH1 0xC SSTORE PUSH1 0x1 DUP1 PUSH1 0xA0 SHL SUB AND PUSH1 0x1 DUP1 PUSH1 0xA0 SHL SUB NOT PUSH1 0xD SLOAD AND OR PUSH1 0xD SSTORE PUSH1 0x1 DUP1 PUSH1 0xA0 SHL SUB NOT PUSH1 0xE SLOAD AND PUSH1 0xE SSTORE TIMESTAMP PUSH1 0xF SSTORE PUSH0 PUSH1 0x10 SSTORE PUSH1 0x1 DUP1 PUSH1 0xA0 SHL SUB AND SWAP1 PUSH1 0x1 DUP1 PUSH1 0xA8 SHL SUB NOT AND OR PUSH1 0x4 SSTORE PUSH1 0x40 MLOAD SWAP6 DUP7 MSTORE PUSH1 0x1 DUP1 PUSH1 0xA0 SHL SUB AND PUSH1 0x20 DUP7 ADD MSTORE PUSH1 0x1 DUP1 PUSH1 0xA0 SHL SUB AND PUSH1 0x40 DUP6 ADD MSTORE PUSH1 0x1 DUP1 PUSH1 0xA0 SHL SUB AND SWAP3 LOG2 PUSH1 0x40 MLOAD PUSH2 0x19AB SWAP1 DUP2 PUSH3 0x3EC DUP3 CODECOPY RETURN JUMPDEST PUSH4 0x4E487B71 PUSH1 0xE0 SHL PUSH0 MSTORE PUSH1 0x41 PUSH1 0x4 MSTORE PUSH1 0x24 PUSH0 REVERT JUMPDEST PUSH4 0x4E487B71 PUSH1 0xE0 SHL PUSH0 MSTORE PUSH1 0x11 PUSH1 0x4 MSTORE PUSH1 0x24 PUSH0 REVERT JUMPDEST PUSH1 0x40 MLOAD PUSH3 0x461BCD PUSH1 0xE5 SHL DUP2 MSTORE PUSH1 0x20 PUSH1 0x4 DUP3 ADD MSTORE PUSH1 0x17 PUSH1 0x24 DUP3 ADD MSTORE PUSH32 0x496E76616C696420696E70757420616464726573736573000000000000000000 PUSH1 0x44 DUP3 ADD MSTORE PUSH1 0x64 SWAP1 REVERT JUMPDEST POP PUSH1 0x1 PUSH1 0x1 PUSH1 0xA0 SHL SUB DUP9 AND ISZERO ISZERO PUSH3 0x10D JUMP JUMPDEST POP PUSH1 0x1 PUSH1 0x1 PUSH1 0xA0 SHL SUB DUP12 AND ISZERO ISZERO PUSH3 0x106 JUMP JUMPDEST POP PUSH1 0x1 PUSH1 0x1 PUSH1 0xA0 SHL SUB DUP8 AND ISZERO ISZERO PUSH3 0xFF JUMP JUMPDEST PUSH0 DUP1 REVERT JUMPDEST MLOAD SWAP1 PUSH1 0x1 PUSH1 0x1 PUSH1 0xA0 SHL SUB DUP3 AND DUP3 SUB PUSH3 0x3D2 JUMPI JUMP INVALID PUSH1 0x80 PUSH1 0x40 DUP2 DUP2 MSTORE PUSH1 0x4 SWAP2 DUP3 CALLDATASIZE LT ISZERO PUSH2 0x15 JUMPI PUSH0 DUP1 REVERT JUMPDEST PUSH0 SWAP3 DUP4 CALLDATALOAD PUSH1 0xE0 SHR SWAP2 DUP3 PUSH4 0xC7277DE EQ PUSH2 0x1503 JUMPI POP DUP2 PUSH4 0xF4EF8A6 EQ PUSH2 0x14DB JUMPI DUP2 PUSH4 0x12261EE7 EQ PUSH2 0x14B2 JUMPI DUP2 PUSH4 0x1CB0C3E7 EQ PUSH2 0x1489 JUMPI DUP2 PUSH4 0x2E1283E3 EQ PUSH2 0x146A JUMPI DUP2 PUSH4 0x3B1BAEFF EQ PUSH2 0x1344 JUMPI DUP2 PUSH4 0x402D8883 EQ PUSH2 0xDAD JUMPI DUP2 PUSH4 0x5257B566 EQ PUSH2 0xD8E JUMPI DUP2 PUSH4 0x64C4BEC0 EQ PUSH2 0xD6F JUMPI DUP2 PUSH4 0x654C6295 EQ PUSH2 0xCD3 JUMPI DUP2 PUSH4 0x6B6D1955 EQ PUSH2 0xCB3 JUMPI DUP2 PUSH4 0x88F2424B EQ PUSH2 0xA51 JUMPI DUP2 PUSH4 0x8A4ADF24 EQ PUSH2 0xA28 JUMPI DUP2 PUSH4 0x8DB57994 EQ PUSH2 0x864 JUMPI DUP2 PUSH4 0x95CB741D EQ PUSH2 0x7CD JUMPI DUP2 PUSH4 0x9861F3E5 EQ PUSH2 0x7A4 JUMPI DUP2 PUSH4 0x9E9F669C EQ PUSH2 0x180 JUMPI DUP2 PUSH4 0xB2A9BB60 EQ PUSH2 0x1B0 JUMPI DUP2 PUSH4 0xC19D93FB EQ PUSH2 0x180 JUMPI POP DUP1 PUSH4 0xC51B9507 EQ PUSH2 0x158 JUMPI DUP1 PUSH4 0xEB0C4955 EQ PUSH2 0x135 JUMPI PUSH4 0xF4B01B18 EQ PUSH2 0x114 JUMPI PUSH0 DUP1 REVERT JUMPDEST CALLVALUE PUSH2 0x131 JUMPI DUP2 PUSH1 0x3 NOT CALLDATASIZE ADD SLT PUSH2 0x131 JUMPI PUSH1 0x20 SWAP1 PUSH1 0x9 SLOAD SWAP1 MLOAD SWAP1 DUP2 MSTORE RETURN JUMPDEST POP DUP1 REVERT JUMPDEST POP CALLVALUE PUSH2 0x131 JUMPI DUP2 PUSH1 0x3 NOT CALLDATASIZE ADD SLT PUSH2 0x131 JUMPI PUSH1 0x20 SWAP1 PUSH2 0x151 PUSH2 0x18F2 JUMP JUMPDEST SWAP1 MLOAD SWAP1 DUP2 MSTORE RETURN JUMPDEST POP CALLVALUE PUSH2 0x131 JUMPI DUP2 PUSH1 0x3 NOT CALLDATASIZE ADD SLT PUSH2 0x131 JUMPI PUSH1 0x2 SLOAD SWAP1 MLOAD PUSH1 0x1 PUSH1 0x1 PUSH1 0xA0 SHL SUB SWAP1 SWAP2 AND DUP2 MSTORE PUSH1 0x20 SWAP1 RETURN JUMPDEST DUP3 DUP5 CALLVALUE PUSH2 0x1AD JUMPI DUP1 PUSH1 0x3 NOT CALLDATASIZE ADD SLT PUSH2 0x1AD JUMPI POP PUSH1 0xFF PUSH2 0x1A9 SWAP3 SLOAD PUSH1 0xA0 SHR AND SWAP1 MLOAD SWAP2 DUP3 SWAP2 DUP3 PUSH2 0x1528 JUMP JUMPDEST SUB SWAP1 RETURN JUMPDEST DUP1 REVERT JUMPDEST SWAP2 SWAP1 POP CALLVALUE PUSH2 0x4ED JUMPI DUP3 PUSH1 0x3 NOT CALLDATASIZE ADD SLT PUSH2 0x4ED JUMPI PUSH2 0x1CB PUSH2 0x154F JUMP JUMPDEST PUSH1 0xFF DUP3 SLOAD PUSH1 0xA0 SHR AND PUSH1 0x6 DUP2 LT ISZERO PUSH2 0x791 JUMPI PUSH1 0x1 SUB PUSH2 0x74E JUMPI CALLER ISZERO PUSH2 0x70B JUMPI PUSH1 0x5 SLOAD PUSH1 0x1 PUSH1 0x1 PUSH1 0xA0 SHL SUB SWAP3 SWAP1 DUP4 AND SWAP1 CALLER DUP3 EQ PUSH2 0x6C8 JUMPI PUSH2 0x208 PUSH2 0x18F2 JUMP JUMPDEST PUSH2 0x215 PUSH1 0x9 SLOAD SWAP2 DUP3 PUSH2 0x1646 JUMP JUMPDEST PUSH1 0x7 SLOAD DUP6 MLOAD PUSH4 0x6EB1769F PUSH1 0xE1 SHL DUP1 DUP3 MSTORE CALLER DUP7 DUP4 ADD SWAP1 DUP2 MSTORE ADDRESS PUSH1 0x20 DUP3 DUP2 ADD SWAP2 SWAP1 SWAP2 MSTORE SWAP8 SWAP4 DUP11 AND SWAP5 SWAP2 SWAP3 SWAP1 DUP9 SWAP1 DUP3 SWAP1 DUP2 SWAP1 PUSH1 0x40 ADD SUB DUP2 DUP9 GAS STATICCALL SWAP1 DUP2 ISZERO PUSH2 0x6BE JUMPI DUP12 SWAP2 PUSH2 0x691 JUMPI JUMPDEST POP LT PUSH2 0x644 JUMPI PUSH1 0x6 SLOAD DUP8 MLOAD SWAP2 DUP3 MSTORE PUSH1 0x1 PUSH1 0x1 PUSH1 0xA0 SHL SUB SWAP1 SWAP3 AND DUP6 DUP3 ADD SWAP1 DUP2 MSTORE ADDRESS PUSH1 0x20 DUP3 ADD MSTORE SWAP1 SWAP2 DUP7 SWAP2 DUP4 SWAP2 DUP11 AND SWAP1 DUP3 SWAP1 DUP2 SWAP1 PUSH1 0x40 ADD SUB SWAP2 GAS STATICCALL SWAP1 DUP2 ISZERO PUSH2 0x63A JUMPI SWAP1 DUP4 SWAP2 DUP10 SWAP2 PUSH2 0x609 JUMPI JUMPDEST POP LT PUSH2 0x5C6 JUMPI SWAP1 DUP7 SWAP3 SWAP2 PUSH2 0x2BF PUSH2 0x2B9 PUSH2 0x18F2 JUMP JUMPDEST DUP4 PUSH2 0x1646 JUMP JUMPDEST PUSH2 0x2C7 PUSH2 0x18F2 JUMP JUMPDEST DUP8 MLOAD PUSH4 0x23B872DD PUSH1 0xE0 SHL DUP1 DUP3 MSTORE CALLER DUP8 DUP4 ADD SWAP1 DUP2 MSTORE ADDRESS PUSH1 0x20 DUP3 ADD MSTORE PUSH1 0x40 DUP2 ADD SWAP5 SWAP1 SWAP5 MSTORE SWAP2 SWAP4 SWAP2 SWAP3 SWAP1 SWAP2 DUP9 SWAP2 DUP4 SWAP2 SWAP1 DUP3 SWAP1 DUP11 SWAP1 DUP3 SWAP1 PUSH1 0x60 ADD SUB SWAP3 GAS CALL DUP1 ISZERO PUSH2 0x5BC JUMPI SWAP2 PUSH2 0x353 SWAP4 SWAP2 DUP9 SWAP4 PUSH2 0x59F JUMPI JUMPDEST POP DUP10 PUSH1 0x7 SLOAD AND SWAP1 DUP8 DUP12 PUSH1 0x3 SLOAD AND SWAP2 DUP12 MLOAD SWAP7 DUP8 SWAP6 DUP7 SWAP5 DUP6 SWAP4 DUP5 MSTORE CALLER DUP13 DUP6 ADD PUSH1 0x40 SWAP2 SWAP5 SWAP4 SWAP3 SWAP5 PUSH1 0x60 DUP3 ADD SWAP6 PUSH1 0x1 DUP1 PUSH1 0xA0 SHL SUB DUP1 SWAP3 AND DUP4 MSTORE AND PUSH1 0x20 DUP3 ADD MSTORE ADD MSTORE JUMP JUMPDEST SUB SWAP3 GAS CALL DUP1 ISZERO PUSH2 0x578 JUMPI PUSH2 0x582 JUMPI JUMPDEST POP PUSH1 0x7 SLOAD PUSH1 0x8 SLOAD DUP7 MLOAD PUSH4 0x95EA7B3 PUSH1 0xE0 SHL DUP2 MSTORE SWAP1 DUP9 AND PUSH1 0x1 PUSH1 0x1 PUSH1 0xA0 SHL SUB AND DUP5 DUP3 ADD SWAP1 DUP2 MSTORE PUSH1 0x20 DUP2 ADD DUP5 SWAP1 MSTORE SWAP1 SWAP2 DUP7 SWAP2 DUP4 SWAP2 DUP11 AND SWAP1 DUP3 SWAP1 DUP9 SWAP1 DUP3 SWAP1 PUSH1 0x40 ADD SUB SWAP3 GAS CALL DUP1 ISZERO PUSH2 0x578 JUMPI SWAP2 DUP6 SWAP2 DUP6 SWAP4 PUSH2 0x55B JUMPI JUMPDEST POP PUSH1 0x44 DUP9 PUSH1 0x8 SLOAD AND SWAP2 DUP9 MLOAD SWAP5 DUP6 SWAP4 DUP5 SWAP3 PUSH4 0x6E553F65 PUSH1 0xE0 SHL DUP5 MSTORE DUP9 DUP5 ADD MSTORE CALLER PUSH1 0x24 DUP5 ADD MSTORE GAS CALL DUP1 ISZERO PUSH2 0x51E JUMPI SWAP1 DUP5 SWAP2 PUSH2 0x528 JUMPI JUMPDEST POP PUSH1 0x6 SLOAD PUSH1 0x9 SLOAD DUP7 MLOAD PUSH4 0xA9059CBB PUSH1 0xE0 SHL DUP2 MSTORE CALLER DUP6 DUP3 ADD SWAP1 DUP2 MSTORE PUSH1 0x20 DUP2 ADD SWAP3 SWAP1 SWAP3 MSTORE SWAP3 SWAP2 DUP4 SWAP2 DUP3 SWAP1 SUB PUSH1 0x40 ADD SWAP1 DUP3 SWAP1 DUP8 SWAP1 DUP12 AND GAS CALL DUP1 ISZERO PUSH2 0x51E JUMPI PUSH2 0x4F1 JUMPI JUMPDEST POP PUSH1 0xE DUP1 SLOAD PUSH1 0x1 PUSH1 0x1 PUSH1 0xA0 SHL SUB NOT AND CALLER OR SWAP1 SSTORE TIMESTAMP PUSH1 0xF SSTORE DUP1 SLOAD PUSH1 0xFF PUSH1 0xA0 SHL NOT AND PUSH1 0x1 PUSH1 0xA1 SHL OR DUP2 SSTORE PUSH2 0x463 PUSH2 0x45B PUSH2 0x18F2 JUMP JUMPDEST PUSH1 0x9 SLOAD PUSH2 0x1646 JUMP JUMPDEST SWAP5 PUSH1 0x3 SLOAD AND SWAP1 DUP2 EXTCODESIZE ISZERO PUSH2 0x4ED JUMPI DUP3 SWAP2 PUSH1 0x24 DUP4 SWAP3 DUP8 MLOAD SWAP5 DUP6 SWAP4 DUP5 SWAP3 PUSH4 0x2914526D PUSH1 0xE1 SHL DUP5 MSTORE ADDRESS SWAP1 DUP5 ADD MSTORE GAS CALL DUP1 ISZERO PUSH2 0x4E3 JUMPI PUSH2 0x4CB JUMPI JUMPDEST POP POP PUSH32 0x5150AB7694A22FBC01C642BC10316565247DF962FA3F0AC3B5D1A18BA45B485B SWAP2 MLOAD SWAP3 DUP4 MSTORE CALLER SWAP3 LOG2 PUSH1 0x1 DUP2 SSTORE DUP1 RETURN JUMPDEST PUSH2 0x4D4 SWAP1 PUSH2 0x15A3 JUMP JUMPDEST PUSH2 0x4DF JUMPI DUP4 PUSH0 PUSH2 0x499 JUMP JUMPDEST DUP4 DUP1 REVERT JUMPDEST DUP5 MLOAD RETURNDATASIZE DUP5 DUP3 RETURNDATACOPY RETURNDATASIZE SWAP1 REVERT JUMPDEST DUP3 DUP1 REVERT JUMPDEST PUSH2 0x510 SWAP1 DUP5 RETURNDATASIZE DUP7 GT PUSH2 0x517 JUMPI JUMPDEST PUSH2 0x508 DUP2 DUP4 PUSH2 0x15CB JUMP JUMPDEST DUP2 ADD SWAP1 PUSH2 0x15ED JUMP JUMPDEST POP PUSH0 PUSH2 0x428 JUMP JUMPDEST POP RETURNDATASIZE PUSH2 0x4FE JUMP JUMPDEST DUP6 MLOAD RETURNDATASIZE DUP6 DUP3 RETURNDATACOPY RETURNDATASIZE SWAP1 REVERT JUMPDEST SWAP1 DUP1 SWAP3 SWAP4 POP RETURNDATASIZE DUP4 GT PUSH2 0x554 JUMPI JUMPDEST PUSH2 0x53F DUP2 DUP4 PUSH2 0x15CB JUMP JUMPDEST DUP2 ADD SUB SLT PUSH2 0x550 JUMPI DUP5 SWAP1 DUP3 PUSH0 PUSH2 0x3E8 JUMP JUMPDEST PUSH0 DUP1 REVERT JUMPDEST POP RETURNDATASIZE PUSH2 0x535 JUMP JUMPDEST PUSH2 0x571 SWAP1 DUP4 RETURNDATASIZE DUP6 GT PUSH2 0x517 JUMPI PUSH2 0x508 DUP2 DUP4 PUSH2 0x15CB JUMP JUMPDEST POP PUSH0 PUSH2 0x3B4 JUMP JUMPDEST DUP7 MLOAD RETURNDATASIZE DUP7 DUP3 RETURNDATACOPY RETURNDATASIZE SWAP1 REVERT JUMPDEST PUSH2 0x598 SWAP1 DUP6 RETURNDATASIZE DUP8 GT PUSH2 0x517 JUMPI PUSH2 0x508 DUP2 DUP4 PUSH2 0x15CB JUMP JUMPDEST POP PUSH0 PUSH2 0x362 JUMP JUMPDEST PUSH2 0x5B5 SWAP1 DUP5 RETURNDATASIZE DUP7 GT PUSH2 0x517 JUMPI PUSH2 0x508 DUP2 DUP4 PUSH2 0x15CB JUMP JUMPDEST POP PUSH0 PUSH2 0x314 JUMP JUMPDEST DUP9 MLOAD RETURNDATASIZE DUP9 DUP3 RETURNDATACOPY RETURNDATASIZE SWAP1 REVERT JUMPDEST DUP5 MLOAD PUSH3 0x461BCD PUSH1 0xE5 SHL DUP2 MSTORE DUP1 DUP5 ADD DUP6 SWAP1 MSTORE PUSH1 0x1B PUSH1 0x24 DUP3 ADD MSTORE PUSH32 0x496E73756666696369656E74206C6F616E20616C6C6F77616E63650000000000 PUSH1 0x44 DUP3 ADD MSTORE PUSH1 0x64 SWAP1 REVERT JUMPDEST DUP1 SWAP3 POP DUP7 DUP1 SWAP3 POP RETURNDATASIZE DUP4 GT PUSH2 0x633 JUMPI JUMPDEST PUSH2 0x622 DUP2 DUP4 PUSH2 0x15CB JUMP JUMPDEST DUP2 ADD SUB SLT PUSH2 0x550 JUMPI DUP3 SWAP1 MLOAD PUSH0 PUSH2 0x2A4 JUMP JUMPDEST POP RETURNDATASIZE PUSH2 0x618 JUMP JUMPDEST DUP7 MLOAD RETURNDATASIZE DUP11 DUP3 RETURNDATACOPY RETURNDATASIZE SWAP1 REVERT JUMPDEST DUP7 MLOAD PUSH3 0x461BCD PUSH1 0xE5 SHL DUP2 MSTORE DUP1 DUP7 ADD DUP8 SWAP1 MSTORE PUSH1 0x21 PUSH1 0x24 DUP3 ADD MSTORE PUSH32 0x496E73756666696369656E7420636F6C6C61746572616C20616C6C6F77616E63 PUSH1 0x44 DUP3 ADD MSTORE PUSH1 0x65 PUSH1 0xF8 SHL PUSH1 0x64 DUP3 ADD MSTORE PUSH1 0x84 SWAP1 REVERT JUMPDEST SWAP1 POP DUP8 DUP2 DUP2 RETURNDATASIZE DUP4 GT PUSH2 0x6B7 JUMPI JUMPDEST PUSH2 0x6A8 DUP2 DUP4 PUSH2 0x15CB JUMP JUMPDEST DUP2 ADD SUB SLT PUSH2 0x550 JUMPI MLOAD PUSH0 PUSH2 0x25A JUMP JUMPDEST POP RETURNDATASIZE PUSH2 0x69E JUMP JUMPDEST DUP10 MLOAD RETURNDATASIZE DUP14 DUP3 RETURNDATACOPY RETURNDATASIZE SWAP1 REVERT JUMPDEST PUSH1 0x64 SWAP1 PUSH1 0x20 DUP5 MLOAD SWAP2 PUSH3 0x461BCD PUSH1 0xE5 SHL DUP4 MSTORE DUP3 ADD MSTORE PUSH1 0x19 PUSH1 0x24 DUP3 ADD MSTORE PUSH32 0x4C656E6465722063616E6E6F7420626520626F72726F77657200000000000000 PUSH1 0x44 DUP3 ADD MSTORE REVERT JUMPDEST SWAP1 PUSH1 0x20 PUSH1 0x64 SWAP3 MLOAD SWAP2 PUSH3 0x461BCD PUSH1 0xE5 SHL DUP4 MSTORE DUP3 ADD MSTORE PUSH1 0x18 PUSH1 0x24 DUP3 ADD MSTORE PUSH32 0x496E76616C696420626F72726F77657220616464726573730000000000000000 PUSH1 0x44 DUP3 ADD MSTORE REVERT JUMPDEST SWAP1 PUSH1 0x20 PUSH1 0x64 SWAP3 MLOAD SWAP2 PUSH3 0x461BCD PUSH1 0xE5 SHL DUP4 MSTORE DUP3 ADD MSTORE PUSH1 0x1A PUSH1 0x24 DUP3 ADD MSTORE PUSH32 0x4C6F616E206E6F7420726561647920746F206163746976617465000000000000 PUSH1 0x44 DUP3 ADD MSTORE REVERT JUMPDEST PUSH4 0x4E487B71 PUSH1 0xE0 SHL DUP5 MSTORE PUSH1 0x21 DUP4 MSTORE PUSH1 0x24 DUP5 REVERT JUMPDEST POP POP CALLVALUE PUSH2 0x131 JUMPI DUP2 PUSH1 0x3 NOT CALLDATASIZE ADD SLT PUSH2 0x131 JUMPI PUSH1 0x5 SLOAD SWAP1 MLOAD PUSH1 0x1 PUSH1 0x1 PUSH1 0xA0 SHL SUB SWAP1 SWAP2 AND DUP2 MSTORE PUSH1 0x20 SWAP1 RETURN JUMPDEST POP POP CALLVALUE PUSH2 0x131 JUMPI DUP2 PUSH1 0x3 NOT CALLDATASIZE ADD SLT PUSH2 0x131 JUMPI PUSH2 0x180 SWAP1 PUSH1 0x1 DUP1 PUSH1 0xA0 SHL SUB DUP1 PUSH1 0x5 SLOAD AND SWAP2 DUP2 PUSH1 0x6 SLOAD AND SWAP2 DUP1 PUSH1 0x7 SLOAD AND SWAP1 DUP1 PUSH1 0x8 SLOAD AND PUSH1 0x9 SLOAD PUSH1 0xA SLOAD PUSH1 0xB SLOAD SWAP2 DUP5 PUSH1 0xC SLOAD AND SWAP4 DUP6 PUSH1 0xD SLOAD AND SWAP6 PUSH1 0xE SLOAD AND SWAP7 PUSH1 0xF SLOAD SWAP9 PUSH1 0x10 SLOAD SWAP11 DUP2 MLOAD SWAP13 DUP14 MSTORE PUSH1 0x20 DUP14 ADD MSTORE DUP12 ADD MSTORE PUSH1 0x60 DUP11 ADD MSTORE PUSH1 0x80 DUP10 ADD MSTORE PUSH1 0xA0 DUP9 ADD MSTORE PUSH1 0xC0 DUP8 ADD MSTORE PUSH1 0xE0 DUP7 ADD MSTORE PUSH2 0x100 DUP6 ADD MSTORE PUSH2 0x120 DUP5 ADD MSTORE PUSH2 0x140 DUP4 ADD MSTORE PUSH2 0x160 DUP3 ADD MSTORE RETURN JUMPDEST SWAP1 POP CALLVALUE PUSH2 0x4ED JUMPI DUP3 PUSH1 0x3 NOT CALLDATASIZE ADD SLT PUSH2 0x4ED JUMPI PUSH2 0x87E PUSH2 0x154F JUMP JUMPDEST PUSH1 0xFF DUP2 SLOAD PUSH1 0xA0 SHR AND PUSH1 0x6 DUP2 LT ISZERO PUSH2 0xA15 JUMPI PUSH2 0x9D3 JUMPI PUSH1 0x6 SLOAD PUSH1 0x5 SLOAD PUSH1 0x9 SLOAD DUP5 MLOAD PUSH4 0x23B872DD PUSH1 0xE0 SHL DUP2 MSTORE PUSH1 0x1 PUSH1 0x1 PUSH1 0xA0 SHL SUB SWAP3 DUP4 AND DUP6 DUP3 ADD SWAP1 DUP2 MSTORE ADDRESS PUSH1 0x20 DUP1 DUP4 ADD SWAP2 SWAP1 SWAP2 MSTORE PUSH1 0x40 DUP3 ADD SWAP4 SWAP1 SWAP4 MSTORE DUP8 SWAP6 SWAP4 SWAP5 SWAP2 SWAP3 SWAP2 DUP4 SWAP2 DUP3 SWAP1 SUB PUSH1 0x60 ADD SWAP1 DUP3 SWAP1 DUP9 SWAP1 DUP9 AND GAS CALL DUP1 ISZERO PUSH2 0x9C9 JUMPI PUSH2 0x9AB JUMPI JUMPDEST POP TIMESTAMP PUSH1 0x10 SSTORE DUP1 SLOAD PUSH1 0xFF PUSH1 0xA0 SHL NOT DUP2 AND PUSH1 0x1 PUSH1 0xA0 SHL OR DUP3 SSTORE PUSH1 0x6 SLOAD SWAP1 DUP4 AND SWAP3 AND DUP3 EXTCODESIZE ISZERO PUSH2 0x4DF JUMPI DUP5 MLOAD PUSH4 0x7286E5E5 PUSH1 0xE0 SHL DUP2 MSTORE ADDRESS SWAP3 DUP2 ADD SWAP3 DUP4 MSTORE PUSH1 0x1 PUSH1 0x1 PUSH1 0xA0 SHL SUB SWAP1 SWAP2 AND PUSH1 0x20 DUP4 ADD MSTORE SWAP2 DUP4 SWAP2 DUP4 SWAP2 SWAP1 DUP3 SWAP1 DUP5 SWAP1 DUP3 SWAP1 PUSH1 0x40 ADD SUB SWAP3 GAS CALL DUP1 ISZERO PUSH2 0x99E JUMPI PUSH2 0x98A JUMPI JUMPDEST POP PUSH32 0x9E71D2FB732E68272B7E74ECFD14638673C1D77E19A5D390A3FFFF054D57C44B PUSH1 0x20 DUP4 PUSH1 0x9 SLOAD SWAP1 MLOAD SWAP1 DUP2 MSTORE LOG1 PUSH1 0x1 DUP2 SSTORE DUP1 RETURN JUMPDEST PUSH2 0x993 SWAP1 PUSH2 0x15A3 JUMP JUMPDEST PUSH2 0x131 JUMPI DUP2 PUSH0 PUSH2 0x955 JUMP JUMPDEST POP POP POP MLOAD SWAP1 RETURNDATASIZE SWAP1 DUP3 RETURNDATACOPY RETURNDATASIZE SWAP1 REVERT JUMPDEST PUSH2 0x9C2 SWAP1 PUSH1 0x20 RETURNDATASIZE DUP2 GT PUSH2 0x517 JUMPI PUSH2 0x508 DUP2 DUP4 PUSH2 0x15CB JUMP JUMPDEST POP PUSH0 PUSH2 0x8EE JUMP JUMPDEST DUP6 MLOAD RETURNDATASIZE DUP7 DUP3 RETURNDATACOPY RETURNDATASIZE SWAP1 REVERT JUMPDEST PUSH1 0x20 PUSH1 0x64 SWAP3 MLOAD SWAP2 PUSH3 0x461BCD PUSH1 0xE5 SHL DUP4 MSTORE DUP3 ADD MSTORE PUSH1 0x1B PUSH1 0x24 DUP3 ADD MSTORE PUSH32 0x4C6F616E206E6F7420696E20637265617461626C652073746174650000000000 PUSH1 0x44 DUP3 ADD MSTORE REVERT JUMPDEST PUSH4 0x4E487B71 PUSH1 0xE0 SHL DUP5 MSTORE PUSH1 0x21 DUP3 MSTORE PUSH1 0x24 DUP5 REVERT JUMPDEST POP POP CALLVALUE PUSH2 0x131 JUMPI DUP2 PUSH1 0x3 NOT CALLDATASIZE ADD SLT PUSH2 0x131 JUMPI PUSH1 0x3 SLOAD SWAP1 MLOAD PUSH1 0x1 PUSH1 0x1 PUSH1 0xA0 SHL SUB SWAP1 SWAP2 AND DUP2 MSTORE PUSH1 0x20 SWAP1 RETURN JUMPDEST SWAP1 POP CALLVALUE PUSH2 0x4ED JUMPI DUP3 PUSH1 0x3 NOT CALLDATASIZE ADD SLT PUSH2 0x4ED JUMPI DUP1 SLOAD PUSH1 0xFF DUP2 PUSH1 0xA0 SHR AND PUSH1 0x6 DUP2 LT ISZERO PUSH2 0xCA0 JUMPI PUSH1 0x2 PUSH2 0xA81 SWAP2 EQ PUSH2 0x1605 JUMP JUMPDEST PUSH1 0xFF PUSH1 0xA0 SHL NOT AND PUSH1 0x3 PUSH1 0xA0 SHL OR DUP2 SSTORE PUSH2 0xA98 PUSH2 0x1667 JUMP JUMPDEST PUSH1 0x3 SLOAD PUSH1 0xE SLOAD PUSH1 0x1 PUSH1 0x1 PUSH1 0xA0 SHL SUB SWAP3 SWAP2 DUP6 SWAP2 DUP5 AND SWAP1 DUP5 AND DUP1 EXTCODESIZE ISZERO PUSH2 0x4ED JUMPI DUP6 MLOAD PUSH4 0x389E0067 PUSH1 0xE1 SHL DUP2 MSTORE ADDRESS DUP6 DUP3 ADD SWAP1 DUP2 MSTORE PUSH1 0x1 PUSH1 0x1 PUSH1 0xA0 SHL SUB SWAP1 SWAP4 AND PUSH1 0x20 DUP5 ADD MSTORE SWAP2 DUP4 SWAP2 DUP4 SWAP2 DUP3 SWAP1 DUP5 SWAP1 DUP3 SWAP1 PUSH1 0x40 ADD SUB SWAP3 GAS CALL DUP1 ISZERO PUSH2 0xC4F JUMPI PUSH2 0xC8C JUMPI JUMPDEST POP POP PUSH2 0xB00 PUSH2 0x17C6 JUMP JUMPDEST DUP2 PUSH1 0xE SLOAD AND PUSH32 0xF4E5CF42CBB1D0C6C91E16D925349FEB6C5D970652F6EC77B1FF1262F7284CD5 SWAP4 DUP2 DUP6 PUSH0 DUP1 LOG2 DUP4 PUSH1 0x8 SLOAD AND DUP2 MLOAD PUSH4 0x70A08231 PUSH1 0xE0 SHL DUP2 MSTORE DUP4 DUP6 DUP3 ADD MSTORE DUP8 PUSH1 0x20 SWAP6 DUP7 DUP4 PUSH1 0x24 DUP2 DUP8 GAS STATICCALL SWAP3 DUP4 ISZERO PUSH2 0xC4F JUMPI DUP3 SWAP4 PUSH2 0xC59 JUMPI JUMPDEST POP DUP5 MLOAD SWAP3 PUSH4 0x63737AC9 PUSH1 0xE1 SHL DUP5 MSTORE DUP2 DUP5 ADD MSTORE DUP7 DUP4 PUSH1 0x24 DUP2 DUP8 GAS STATICCALL SWAP3 DUP4 ISZERO PUSH2 0xC4F JUMPI SWAP2 DUP7 SWAP4 SWAP2 DUP9 SWAP6 SWAP4 DUP3 SWAP4 PUSH2 0xC18 JUMPI JUMPDEST POP DUP7 MLOAD PUSH4 0x5D043B29 PUSH1 0xE1 SHL DUP2 MSTORE SWAP1 DUP2 ADD SWAP3 DUP4 MSTORE PUSH1 0x1 PUSH1 0x1 PUSH1 0xA0 SHL SUB SWAP5 DUP6 AND PUSH1 0x20 DUP5 ADD MSTORE SWAP7 SWAP1 SWAP4 AND PUSH1 0x40 DUP3 ADD MSTORE DUP6 SWAP3 DUP4 SWAP2 DUP3 SWAP1 PUSH1 0x60 ADD SUB SWAP3 GAS CALL SWAP1 DUP2 ISZERO PUSH2 0xC0F JUMPI POP PUSH2 0xBE6 JUMPI JUMPDEST POP POP PUSH2 0xBDB PUSH2 0x17C6 JUMP JUMPDEST PUSH1 0xE SLOAD AND SWAP1 PUSH0 DUP1 LOG2 DUP1 RETURN JUMPDEST DUP2 RETURNDATASIZE DUP4 GT PUSH2 0xC08 JUMPI JUMPDEST PUSH2 0xBF9 DUP2 DUP4 PUSH2 0x15CB JUMP JUMPDEST DUP2 ADD SUB SLT PUSH2 0x550 JUMPI PUSH0 DUP1 PUSH2 0xBD1 JUMP JUMPDEST POP RETURNDATASIZE PUSH2 0xBEF JUMP JUMPDEST MLOAD RETURNDATASIZE DUP8 DUP3 RETURNDATACOPY RETURNDATASIZE SWAP1 REVERT JUMPDEST SWAP5 POP SWAP5 DUP1 SWAP3 POP DUP5 SWAP2 POP RETURNDATASIZE DUP4 GT PUSH2 0xC48 JUMPI JUMPDEST PUSH2 0xC33 DUP2 DUP4 PUSH2 0x15CB JUMP JUMPDEST DUP2 ADD SUB SLT PUSH2 0x550 JUMPI DUP6 SWAP3 DUP10 DUP7 SWAP4 MLOAD SWAP2 PUSH0 PUSH2 0xB8B JUMP JUMPDEST POP RETURNDATASIZE PUSH2 0xC29 JUMP JUMPDEST DUP6 MLOAD RETURNDATASIZE DUP5 DUP3 RETURNDATACOPY RETURNDATASIZE SWAP1 REVERT JUMPDEST DUP8 DUP1 SWAP3 SWAP5 POP DUP2 SWAP4 POP RETURNDATASIZE DUP4 GT PUSH2 0xC85 JUMPI JUMPDEST PUSH2 0xC73 DUP2 DUP4 PUSH2 0x15CB JUMP JUMPDEST DUP2 ADD SUB SLT PUSH2 0x550 JUMPI DUP9 SWAP1 MLOAD SWAP2 PUSH0 PUSH2 0xB5C JUMP JUMPDEST POP RETURNDATASIZE PUSH2 0xC69 JUMP JUMPDEST PUSH2 0xC95 SWAP1 PUSH2 0x15A3 JUMP JUMPDEST PUSH2 0x4DF JUMPI DUP4 PUSH0 PUSH2 0xAF6 JUMP JUMPDEST PUSH4 0x4E487B71 PUSH1 0xE0 SHL DUP6 MSTORE PUSH1 0x21 DUP4 MSTORE PUSH1 0x24 DUP6 REVERT JUMPDEST POP POP CALLVALUE PUSH2 0x131 JUMPI DUP2 PUSH1 0x3 NOT CALLDATASIZE ADD SLT PUSH2 0x131 JUMPI PUSH1 0x20 SWAP1 PUSH2 0x151 PUSH2 0x45B PUSH2 0x18F2 JUMP JUMPDEST DUP4 DUP4 CALLVALUE PUSH2 0x131 JUMPI PUSH1 0x20 SWAP3 DUP4 PUSH1 0x3 NOT CALLDATASIZE ADD SLT PUSH2 0x4ED JUMPI DUP1 CALLDATALOAD PUSH1 0x1 PUSH1 0x1 PUSH1 0xA0 SHL SUB DUP2 DUP2 AND SWAP2 DUP3 SWAP1 SUB PUSH2 0xD6B JUMPI SWAP1 PUSH1 0x24 DUP7 SWAP3 PUSH1 0x8 SLOAD AND SWAP4 DUP6 MLOAD SWAP5 DUP6 SWAP4 DUP5 SWAP3 PUSH4 0x70A08231 PUSH1 0xE0 SHL DUP5 MSTORE DUP4 ADD MSTORE GAS STATICCALL SWAP3 DUP4 ISZERO PUSH2 0xD60 JUMPI SWAP3 PUSH2 0xD31 JUMPI JUMPDEST POP MLOAD SWAP1 DUP2 MSTORE RETURN JUMPDEST SWAP1 SWAP2 POP DUP3 DUP2 DUP2 RETURNDATASIZE DUP4 GT PUSH2 0xD59 JUMPI JUMPDEST PUSH2 0xD49 DUP2 DUP4 PUSH2 0x15CB JUMP JUMPDEST DUP2 ADD SUB SLT PUSH2 0x550 JUMPI MLOAD SWAP1 DUP4 PUSH2 0xD2A JUMP JUMPDEST POP RETURNDATASIZE PUSH2 0xD3F JUMP JUMPDEST DUP3 MLOAD SWAP1 RETURNDATASIZE SWAP1 DUP3 RETURNDATACOPY RETURNDATASIZE SWAP1 REVERT JUMPDEST DUP5 DUP1 REVERT JUMPDEST POP POP CALLVALUE PUSH2 0x131 JUMPI DUP2 PUSH1 0x3 NOT CALLDATASIZE ADD SLT PUSH2 0x131 JUMPI PUSH1 0x20 SWAP1 PUSH1 0xB SLOAD SWAP1 MLOAD SWAP1 DUP2 MSTORE RETURN JUMPDEST POP POP CALLVALUE PUSH2 0x131 JUMPI DUP2 PUSH1 0x3 NOT CALLDATASIZE ADD SLT PUSH2 0x131 JUMPI PUSH1 0x20 SWAP1 PUSH1 0xA SLOAD SWAP1 MLOAD SWAP1 DUP2 MSTORE RETURN JUMPDEST SWAP2 SWAP1 POP CALLVALUE PUSH2 0x4ED JUMPI DUP3 PUSH1 0x3 NOT CALLDATASIZE ADD SLT PUSH2 0x4ED JUMPI PUSH2 0xDC8 PUSH2 0x154F JUMP JUMPDEST PUSH1 0xE SLOAD PUSH1 0x1 PUSH1 0x1 PUSH1 0xA0 SHL SUB SWAP2 SWAP1 DUP3 AND CALLER SUB PUSH2 0x12F0 JUMPI PUSH1 0xFF DUP4 SLOAD PUSH1 0xA0 SHR AND PUSH1 0x6 DUP2 LT ISZERO PUSH2 0x12DD JUMPI PUSH1 0x2 SUB PUSH2 0x1284 JUMPI PUSH2 0xE00 PUSH2 0x45B PUSH2 0x18F2 JUMP JUMPDEST PUSH2 0xE08 PUSH2 0x18F2 JUMP JUMPDEST DUP2 SUB SWAP3 DUP2 DUP5 GT PUSH2 0x1271 JUMPI PUSH1 0x7 SLOAD DUP4 MLOAD PUSH4 0x6EB1769F PUSH1 0xE1 SHL DUP2 MSTORE CALLER DUP8 DUP3 ADD SWAP1 DUP2 MSTORE ADDRESS PUSH1 0x20 DUP3 DUP2 ADD SWAP2 SWAP1 SWAP2 MSTORE SWAP7 SWAP3 DUP5 AND SWAP2 SWAP1 DUP8 SWAP1 DUP3 SWAP1 DUP2 SWAP1 PUSH1 0x40 ADD SUB DUP2 DUP6 GAS STATICCALL SWAP1 DUP2 ISZERO PUSH2 0x1267 JUMPI SWAP1 DUP6 SWAP2 DUP11 SWAP2 PUSH2 0x1236 JUMPI JUMPDEST POP LT PUSH2 0x11DF JUMPI DUP5 MLOAD PUSH4 0x70A08231 PUSH1 0xE0 SHL DUP1 DUP3 MSTORE CALLER DUP10 DUP4 ADD MSTORE SWAP5 SWAP1 DUP8 DUP2 PUSH1 0x24 DUP2 DUP7 GAS STATICCALL SWAP1 DUP2 ISZERO PUSH2 0x11D5 JUMPI DUP11 SWAP2 PUSH2 0x11A8 JUMPI JUMPDEST POP LT PUSH2 0x1153 JUMPI PUSH1 0x5 SLOAD DUP6 MLOAD PUSH4 0x23B872DD PUSH1 0xE0 SHL DUP2 MSTORE CALLER DUP10 DUP3 ADD SWAP1 DUP2 MSTORE SWAP2 DUP6 AND PUSH1 0x1 PUSH1 0x1 PUSH1 0xA0 SHL SUB AND PUSH1 0x20 DUP4 ADD MSTORE PUSH1 0x40 DUP3 ADD DUP5 SWAP1 MSTORE DUP10 SWAP4 SWAP3 SWAP1 SWAP2 DUP9 SWAP2 DUP4 SWAP2 DUP3 SWAP1 DUP8 SWAP1 DUP3 SWAP1 PUSH1 0x60 ADD SUB SWAP3 GAS CALL DUP1 ISZERO PUSH2 0x1118 JUMPI PUSH2 0x1136 JUMPI JUMPDEST POP DUP3 PUSH1 0x3 SLOAD AND DUP1 EXTCODESIZE ISZERO PUSH2 0x4ED JUMPI DUP6 MLOAD PUSH4 0x56F78A1D PUSH1 0xE0 SHL DUP2 MSTORE ADDRESS DUP2 DUP11 ADD SWAP1 DUP2 MSTORE CALLER PUSH1 0x20 DUP3 ADD MSTORE SWAP1 SWAP2 DUP5 SWAP2 DUP4 SWAP2 SWAP1 DUP3 SWAP1 DUP5 SWAP1 DUP3 SWAP1 PUSH1 0x40 ADD SUB SWAP3 GAS CALL DUP1 ISZERO PUSH2 0x1118 JUMPI SWAP1 DUP4 SWAP2 PUSH2 0x1122 JUMPI JUMPDEST POP POP DUP3 PUSH1 0x8 SLOAD AND SWAP1 DUP6 MLOAD SWAP1 PUSH4 0x63737AC9 PUSH1 0xE1 SHL DUP3 MSTORE DUP9 DUP3 ADD MSTORE DUP7 DUP2 PUSH1 0x24 DUP2 DUP6 GAS STATICCALL SWAP1 DUP2 ISZERO PUSH2 0x1118 JUMPI SWAP1 DUP8 SWAP3 SWAP2 DUP5 SWAP2 PUSH2 0x10E3 JUMPI JUMPDEST POP DUP7 MLOAD PUSH4 0x5D043B29 PUSH1 0xE1 SHL DUP2 MSTORE DUP10 DUP2 ADD SWAP2 DUP3 MSTORE CALLER PUSH1 0x20 DUP4 ADD DUP2 SWAP1 MSTORE PUSH1 0x40 DUP4 ADD MSTORE SWAP4 DUP5 SWAP3 SWAP2 DUP4 SWAP2 SWAP1 DUP3 SWAP1 PUSH1 0x60 ADD JUMPDEST SUB SWAP3 GAS CALL DUP1 ISZERO PUSH2 0x10D9 JUMPI SWAP1 DUP6 SWAP2 PUSH2 0x10B0 JUMPI JUMPDEST POP POP DUP5 SLOAD PUSH1 0xFF PUSH1 0xA0 SHL NOT AND PUSH1 0x1 PUSH1 0xA2 SHL OR DUP6 SSTORE PUSH1 0x7 SLOAD DUP4 MLOAD SWAP3 DUP4 MSTORE ADDRESS DUP4 DUP8 ADD MSTORE AND SWAP4 DUP4 DUP3 PUSH1 0x24 DUP2 DUP9 GAS STATICCALL SWAP2 DUP3 ISZERO PUSH2 0x10A6 JUMPI DUP7 SWAP3 PUSH2 0x1075 JUMPI JUMPDEST POP DUP3 MLOAD PUSH4 0xA9059CBB PUSH1 0xE0 SHL DUP2 MSTORE CALLER SWAP2 DUP2 ADD SWAP2 DUP3 MSTORE PUSH1 0x20 DUP3 ADD SWAP3 SWAP1 SWAP3 MSTORE SWAP1 SWAP4 DUP4 SWAP2 DUP6 SWAP2 SWAP1 DUP3 SWAP1 DUP9 SWAP1 DUP3 SWAP1 PUSH1 0x40 ADD JUMPDEST SUB SWAP3 GAS CALL SWAP3 DUP4 ISZERO PUSH2 0x106B JUMPI PUSH32 0x4002DBA848920F438092E08090CFB5FC47144C22704268B402C9553A1B5ADFE6 SWAP4 PUSH2 0x104E JUMPI JUMPDEST POP PUSH2 0x1036 PUSH2 0x17C6 JUMP JUMPDEST PUSH2 0x1041 PUSH2 0x45B PUSH2 0x18F2 JUMP JUMPDEST SWAP1 MLOAD SWAP1 DUP2 MSTORE LOG1 PUSH1 0x1 DUP2 SSTORE DUP1 RETURN JUMPDEST PUSH2 0x1064 SWAP1 DUP4 RETURNDATASIZE DUP6 GT PUSH2 0x517 JUMPI PUSH2 0x508 DUP2 DUP4 PUSH2 0x15CB JUMP JUMPDEST POP PUSH0 PUSH2 0x102D JUMP JUMPDEST DUP2 MLOAD RETURNDATASIZE DUP7 DUP3 RETURNDATACOPY RETURNDATASIZE SWAP1 REVERT JUMPDEST SWAP2 POP DUP4 DUP3 DUP2 RETURNDATASIZE DUP4 GT PUSH2 0x109F JUMPI JUMPDEST PUSH2 0x108C DUP2 DUP4 PUSH2 0x15CB JUMP JUMPDEST DUP2 ADD SUB SLT PUSH2 0x550 JUMPI SWAP1 MLOAD SWAP1 PUSH2 0xFFB PUSH2 0xFCE JUMP JUMPDEST POP RETURNDATASIZE PUSH2 0x1082 JUMP JUMPDEST DUP4 MLOAD RETURNDATASIZE DUP9 DUP3 RETURNDATACOPY RETURNDATASIZE SWAP1 REVERT JUMPDEST DUP2 RETURNDATASIZE DUP4 GT PUSH2 0x10D2 JUMPI JUMPDEST PUSH2 0x10C3 DUP2 DUP4 PUSH2 0x15CB JUMP JUMPDEST DUP2 ADD SUB SLT PUSH2 0x550 JUMPI DUP4 PUSH0 PUSH2 0xF96 JUMP JUMPDEST POP RETURNDATASIZE PUSH2 0x10B9 JUMP JUMPDEST DUP5 MLOAD RETURNDATASIZE DUP10 DUP3 RETURNDATACOPY RETURNDATASIZE SWAP1 REVERT JUMPDEST SWAP4 POP POP SWAP1 DUP3 DUP2 RETURNDATASIZE DUP4 GT PUSH2 0x1111 JUMPI JUMPDEST PUSH2 0x10FB DUP2 DUP4 PUSH2 0x15CB JUMP JUMPDEST DUP2 ADD SUB SLT PUSH2 0x550 JUMPI SWAP1 MLOAD DUP8 SWAP2 DUP7 SWAP2 PUSH2 0xF84 PUSH2 0xF57 JUMP JUMPDEST POP RETURNDATASIZE PUSH2 0x10F1 JUMP JUMPDEST DUP7 MLOAD RETURNDATASIZE DUP6 DUP3 RETURNDATACOPY RETURNDATASIZE SWAP1 REVERT JUMPDEST PUSH2 0x112B SWAP1 PUSH2 0x15A3 JUMP JUMPDEST PUSH2 0x131 JUMPI DUP2 PUSH0 PUSH2 0xF24 JUMP JUMPDEST PUSH2 0x114C SWAP1 DUP8 RETURNDATASIZE DUP10 GT PUSH2 0x517 JUMPI PUSH2 0x508 DUP2 DUP4 PUSH2 0x15CB JUMP JUMPDEST POP PUSH0 PUSH2 0xEDC JUMP JUMPDEST DUP5 MLOAD PUSH3 0x461BCD PUSH1 0xE5 SHL DUP2 MSTORE DUP1 DUP9 ADD DUP8 SWAP1 MSTORE PUSH1 0x29 PUSH1 0x24 DUP3 ADD MSTORE PUSH32 0x496E73756666696369656E7420746F6B656E2062616C616E636520666F722072 PUSH1 0x44 DUP3 ADD MSTORE PUSH9 0x32B830BCB6B2B73A17 PUSH1 0xB9 SHL PUSH1 0x64 DUP3 ADD MSTORE PUSH1 0x84 SWAP1 REVERT JUMPDEST SWAP1 POP DUP8 DUP2 DUP2 RETURNDATASIZE DUP4 GT PUSH2 0x11CE JUMPI JUMPDEST PUSH2 0x11BF DUP2 DUP4 PUSH2 0x15CB JUMP JUMPDEST DUP2 ADD SUB SLT PUSH2 0x550 JUMPI MLOAD PUSH0 PUSH2 0xE87 JUMP JUMPDEST POP RETURNDATASIZE PUSH2 0x11B5 JUMP JUMPDEST DUP8 MLOAD RETURNDATASIZE DUP13 DUP3 RETURNDATACOPY RETURNDATASIZE SWAP1 REVERT JUMPDEST DUP5 MLOAD PUSH3 0x461BCD PUSH1 0xE5 SHL DUP2 MSTORE DUP1 DUP9 ADD DUP8 SWAP1 MSTORE PUSH1 0x2B PUSH1 0x24 DUP3 ADD MSTORE PUSH32 0x496E73756666696369656E7420746F6B656E20616C6C6F77616E636520666F72 PUSH1 0x44 DUP3 ADD MSTORE PUSH11 0x103932B830BCB6B2B73A17 PUSH1 0xA9 SHL PUSH1 0x64 DUP3 ADD MSTORE PUSH1 0x84 SWAP1 REVERT JUMPDEST DUP1 SWAP3 POP DUP9 DUP1 SWAP3 POP RETURNDATASIZE DUP4 GT PUSH2 0x1260 JUMPI JUMPDEST PUSH2 0x124F DUP2 DUP4 PUSH2 0x15CB JUMP JUMPDEST DUP2 ADD SUB SLT PUSH2 0x550 JUMPI DUP5 SWAP1 MLOAD PUSH0 PUSH2 0xE57 JUMP JUMPDEST POP RETURNDATASIZE PUSH2 0x1245 JUMP JUMPDEST DUP7 MLOAD RETURNDATASIZE DUP12 DUP3 RETURNDATACOPY RETURNDATASIZE SWAP1 REVERT JUMPDEST PUSH4 0x4E487B71 PUSH1 0xE0 SHL DUP7 MSTORE PUSH1 0x11 DUP6 MSTORE PUSH1 0x24 DUP7 REVERT JUMPDEST MLOAD PUSH3 0x461BCD PUSH1 0xE5 SHL DUP2 MSTORE PUSH1 0x20 DUP2 DUP5 ADD MSTORE PUSH1 0x2E PUSH1 0x24 DUP3 ADD MSTORE PUSH32 0x4C6F616E206D7573742062652061637469766520746F2070726F636565642077 PUSH1 0x44 DUP3 ADD MSTORE PUSH14 0x34BA34103932B830BCB6B2B73A17 PUSH1 0x91 SHL PUSH1 0x64 DUP3 ADD MSTORE PUSH1 0x84 SWAP1 REVERT JUMPDEST PUSH4 0x4E487B71 PUSH1 0xE0 SHL DUP6 MSTORE PUSH1 0x21 DUP5 MSTORE PUSH1 0x24 DUP6 REVERT JUMPDEST MLOAD PUSH3 0x461BCD PUSH1 0xE5 SHL DUP2 MSTORE PUSH1 0x20 DUP2 DUP5 ADD MSTORE PUSH1 0x29 PUSH1 0x24 DUP3 ADD MSTORE PUSH32 0x4F6E6C792074686520626F72726F7765722063616E20696E6974696174652072 PUSH1 0x44 DUP3 ADD MSTORE PUSH9 0x32B830BCB6B2B73A17 PUSH1 0xB9 SHL PUSH1 0x64 DUP3 ADD MSTORE PUSH1 0x84 SWAP1 REVERT JUMPDEST DUP4 DUP4 CALLVALUE PUSH2 0x131 JUMPI DUP2 PUSH1 0x3 NOT CALLDATASIZE ADD SLT PUSH2 0x131 JUMPI DUP3 SLOAD PUSH1 0xFF DUP2 PUSH1 0xA0 SHR AND PUSH1 0x6 DUP2 LT ISZERO PUSH2 0x1457 JUMPI PUSH1 0x2 PUSH2 0x1374 SWAP2 EQ PUSH2 0x1605 JUMP JUMPDEST PUSH2 0x1383 PUSH1 0xF SLOAD PUSH1 0xB SLOAD SWAP1 PUSH2 0x1646 JUMP JUMPDEST TIMESTAMP LT ISZERO PUSH2 0x138E JUMPI DUP3 DUP1 RETURN JUMPDEST PUSH1 0xFF PUSH1 0xA0 SHL NOT AND PUSH1 0x3 PUSH1 0xA0 SHL OR DUP4 SSTORE PUSH2 0x13A5 PUSH2 0x1667 JUMP JUMPDEST PUSH1 0x3 SLOAD PUSH1 0x5 SLOAD PUSH1 0x1 PUSH1 0x1 PUSH1 0xA0 SHL SUB SWAP5 SWAP1 DUP6 AND SWAP2 DUP6 AND SWAP1 DUP2 EXTCODESIZE ISZERO PUSH2 0xD6B JUMPI DUP4 MLOAD PUSH4 0x389E0067 PUSH1 0xE1 SHL DUP2 MSTORE ADDRESS SWAP2 DUP2 ADD SWAP2 DUP3 MSTORE PUSH1 0x1 PUSH1 0x1 PUSH1 0xA0 SHL SUB SWAP1 SWAP4 AND PUSH1 0x20 DUP3 ADD MSTORE SWAP2 SWAP3 SWAP2 DUP5 SWAP2 DUP5 SWAP2 DUP3 SWAP1 DUP5 SWAP1 DUP3 SWAP1 PUSH1 0x40 ADD SUB SWAP3 GAS CALL SWAP1 DUP2 ISZERO PUSH2 0x144E JUMPI POP PUSH2 0x143F JUMPI JUMPDEST POP SWAP1 PUSH2 0x1410 PUSH2 0x17C6 JUMP JUMPDEST PUSH1 0xE SLOAD AND PUSH32 0xF4E5CF42CBB1D0C6C91E16D925349FEB6C5D970652F6EC77B1FF1262F7284CD5 PUSH0 DUP1 LOG2 DUP1 DUP3 DUP1 DUP3 DUP1 RETURN JUMPDEST PUSH2 0x1448 SWAP1 PUSH2 0x15A3 JUMP JUMPDEST DUP3 PUSH2 0x1406 JUMP JUMPDEST MLOAD RETURNDATASIZE DUP5 DUP3 RETURNDATACOPY RETURNDATASIZE SWAP1 REVERT JUMPDEST PUSH4 0x4E487B71 PUSH1 0xE0 SHL DUP5 MSTORE PUSH1 0x21 DUP6 MSTORE PUSH1 0x24 DUP5 REVERT JUMPDEST POP POP CALLVALUE PUSH2 0x131 JUMPI DUP2 PUSH1 0x3 NOT CALLDATASIZE ADD SLT PUSH2 0x131 JUMPI PUSH1 0x20 SWAP1 PUSH1 0x10 SLOAD SWAP1 MLOAD SWAP1 DUP2 MSTORE RETURN JUMPDEST POP POP CALLVALUE PUSH2 0x131 JUMPI DUP2 PUSH1 0x3 NOT CALLDATASIZE ADD SLT PUSH2 0x131 JUMPI PUSH1 0xE SLOAD SWAP1 MLOAD PUSH1 0x1 PUSH1 0x1 PUSH1 0xA0 SHL SUB SWAP1 SWAP2 AND DUP2 MSTORE PUSH1 0x20 SWAP1 RETURN JUMPDEST POP POP CALLVALUE PUSH2 0x131 JUMPI DUP2 PUSH1 0x3 NOT CALLDATASIZE ADD SLT PUSH2 0x131 JUMPI PUSH1 0x1 SLOAD SWAP1 MLOAD PUSH1 0x1 PUSH1 0x1 PUSH1 0xA0 SHL SUB SWAP1 SWAP2 AND DUP2 MSTORE PUSH1 0x20 SWAP1 RETURN JUMPDEST SWAP1 POP CALLVALUE PUSH2 0x4ED JUMPI DUP3 PUSH1 0x3 NOT CALLDATASIZE ADD SLT PUSH2 0x4ED JUMPI SLOAD SWAP1 MLOAD PUSH1 0x1 PUSH1 0x1 PUSH1 0xA0 SHL SUB SWAP1 SWAP2 AND DUP2 MSTORE PUSH1 0x20 SWAP2 POP RETURN JUMPDEST DUP5 SWAP1 CALLVALUE PUSH2 0x131 JUMPI DUP2 PUSH1 0x3 NOT CALLDATASIZE ADD SLT PUSH2 0x131 JUMPI PUSH1 0x7 SLOAD PUSH1 0x1 PUSH1 0x1 PUSH1 0xA0 SHL SUB AND DUP2 MSTORE PUSH1 0x20 SWAP1 RETURN JUMPDEST SWAP2 SWAP1 PUSH1 0x20 DUP4 ADD SWAP3 PUSH1 0x6 DUP3 LT ISZERO PUSH2 0x153B JUMPI MSTORE JUMP JUMPDEST PUSH4 0x4E487B71 PUSH1 0xE0 SHL PUSH0 MSTORE PUSH1 0x21 PUSH1 0x4 MSTORE PUSH1 0x24 PUSH0 REVERT JUMPDEST PUSH1 0x2 PUSH0 SLOAD EQ PUSH2 0x155E JUMPI PUSH1 0x2 PUSH0 SSTORE JUMP JUMPDEST PUSH1 0x40 MLOAD PUSH3 0x461BCD PUSH1 0xE5 SHL DUP2 MSTORE PUSH1 0x20 PUSH1 0x4 DUP3 ADD MSTORE PUSH1 0x1F PUSH1 0x24 DUP3 ADD MSTORE PUSH32 0x5265656E7472616E637947756172643A207265656E7472616E742063616C6C00 PUSH1 0x44 DUP3 ADD MSTORE PUSH1 0x64 SWAP1 REVERT JUMPDEST PUSH8 0xFFFFFFFFFFFFFFFF DUP2 GT PUSH2 0x15B7 JUMPI PUSH1 0x40 MSTORE JUMP JUMPDEST PUSH4 0x4E487B71 PUSH1 0xE0 SHL PUSH0 MSTORE PUSH1 0x41 PUSH1 0x4 MSTORE PUSH1 0x24 PUSH0 REVERT JUMPDEST SWAP1 PUSH1 0x1F DUP1 NOT SWAP2 ADD AND DUP2 ADD SWAP1 DUP2 LT PUSH8 0xFFFFFFFFFFFFFFFF DUP3 GT OR PUSH2 0x15B7 JUMPI PUSH1 0x40 MSTORE JUMP JUMPDEST SWAP1 DUP2 PUSH1 0x20 SWAP2 SUB SLT PUSH2 0x550 JUMPI MLOAD DUP1 ISZERO ISZERO DUP2 SUB PUSH2 0x550 JUMPI SWAP1 JUMP JUMPDEST ISZERO PUSH2 0x160C JUMPI JUMP JUMPDEST PUSH1 0x40 MLOAD PUSH3 0x461BCD PUSH1 0xE5 SHL DUP2 MSTORE PUSH1 0x20 PUSH1 0x4 DUP3 ADD MSTORE PUSH1 0x12 PUSH1 0x24 DUP3 ADD MSTORE PUSH18 0x4C6F616E206973206E6F7420616374697665 PUSH1 0x70 SHL PUSH1 0x44 DUP3 ADD MSTORE PUSH1 0x64 SWAP1 REVERT JUMPDEST SWAP2 SWAP1 DUP3 ADD DUP1 SWAP3 GT PUSH2 0x1653 JUMPI JUMP JUMPDEST PUSH4 0x4E487B71 PUSH1 0xE0 SHL PUSH0 MSTORE PUSH1 0x11 PUSH1 0x4 MSTORE PUSH1 0x24 PUSH0 REVERT JUMPDEST PUSH1 0x8 SLOAD PUSH1 0xE SLOAD PUSH1 0x40 DUP1 MLOAD PUSH4 0x70A08231 PUSH1 0xE0 SHL DUP2 MSTORE PUSH1 0x1 PUSH1 0x1 PUSH1 0xA0 SHL SUB SWAP3 DUP4 AND PUSH1 0x4 DUP3 ADD DUP2 SWAP1 MSTORE PUSH1 0x20 SWAP5 SWAP2 SWAP4 SWAP1 SWAP2 DUP2 AND SWAP1 DUP6 DUP6 PUSH1 0x24 DUP2 DUP6 GAS STATICCALL SWAP5 DUP6 ISZERO PUSH2 0x178D JUMPI PUSH0 SWAP6 PUSH2 0x1797 JUMPI JUMPDEST POP DUP4 MLOAD SWAP5 PUSH4 0x63737AC9 PUSH1 0xE1 SHL DUP7 MSTORE PUSH1 0x4 DUP7 ADD MSTORE DUP6 DUP6 PUSH1 0x24 DUP2 DUP6 GAS STATICCALL SWAP5 DUP6 ISZERO PUSH2 0x178D JUMPI SWAP1 DUP7 SWAP4 SWAP3 SWAP2 PUSH0 SWAP7 PUSH2 0x1755 JUMPI JUMPDEST POP PUSH1 0x5 SLOAD DUP6 MLOAD PUSH4 0x5D043B29 PUSH1 0xE1 SHL DUP2 MSTORE PUSH1 0x4 DUP2 ADD SWAP8 SWAP1 SWAP8 MSTORE AND PUSH1 0x1 PUSH1 0x1 PUSH1 0xA0 SHL SUB SWAP1 DUP2 AND PUSH1 0x24 DUP8 ADD MSTORE SWAP2 SWAP1 SWAP2 AND PUSH1 0x44 DUP6 ADD MSTORE DUP4 SWAP1 PUSH1 0x64 SWAP1 DUP3 SWAP1 PUSH0 SWAP1 GAS CALL SWAP1 DUP2 ISZERO PUSH2 0x174C JUMPI POP PUSH2 0x1728 JUMPI POP POP JUMP JUMPDEST DUP2 RETURNDATASIZE DUP4 GT PUSH2 0x1745 JUMPI JUMPDEST PUSH2 0x173B DUP2 DUP4 PUSH2 0x15CB JUMP JUMPDEST DUP2 ADD SUB SLT PUSH2 0x550 JUMPI JUMP JUMPDEST POP RETURNDATASIZE PUSH2 0x1731 JUMP JUMPDEST MLOAD RETURNDATASIZE PUSH0 DUP3 RETURNDATACOPY RETURNDATASIZE SWAP1 REVERT JUMPDEST SWAP2 SWAP4 DUP3 DUP2 SWAP8 SWAP3 SWAP5 SWAP7 SWAP8 RETURNDATASIZE DUP4 GT PUSH2 0x1786 JUMPI JUMPDEST PUSH2 0x1770 DUP2 DUP4 PUSH2 0x15CB JUMP JUMPDEST DUP2 ADD SUB SLT PUSH2 0x1AD JUMPI POP MLOAD SWAP4 SWAP3 DUP6 SWAP3 SWAP1 SWAP2 PUSH0 PUSH2 0x16DB JUMP JUMPDEST POP RETURNDATASIZE PUSH2 0x1766 JUMP JUMPDEST DUP5 MLOAD RETURNDATASIZE PUSH0 DUP3 RETURNDATACOPY RETURNDATASIZE SWAP1 REVERT JUMPDEST SWAP1 SWAP5 DUP7 DUP3 DUP2 RETURNDATASIZE DUP4 GT PUSH2 0x17BF JUMPI JUMPDEST PUSH2 0x17AE DUP2 DUP4 PUSH2 0x15CB JUMP JUMPDEST DUP2 ADD SUB SLT PUSH2 0x1AD JUMPI POP MLOAD SWAP4 PUSH0 PUSH2 0x16AD JUMP JUMPDEST POP RETURNDATASIZE PUSH2 0x17A4 JUMP JUMPDEST PUSH1 0x4 DUP1 SLOAD PUSH1 0xFF PUSH1 0xA0 SHL NOT AND PUSH1 0x5 PUSH1 0xA0 SHL OR DUP2 SSTORE PUSH1 0x2 SLOAD PUSH0 SWAP2 PUSH1 0x1 PUSH1 0x1 PUSH1 0xA0 SHL SUB SWAP2 DUP3 AND SWAP2 SWAP1 DUP3 EXTCODESIZE ISZERO PUSH2 0x4DF JUMPI PUSH1 0x40 SWAP2 DUP3 MLOAD DUP6 DUP2 PUSH1 0x24 DUP2 DUP4 PUSH4 0x7E72C7D7 PUSH1 0xE0 SHL SWAP10 DUP11 DUP4 MSTORE ADDRESS DUP10 DUP5 ADD MSTORE GAS CALL DUP1 ISZERO PUSH2 0x18D1 JUMPI PUSH2 0x18DF JUMPI JUMPDEST POP DUP1 PUSH1 0x3 SLOAD AND DUP1 EXTCODESIZE ISZERO PUSH2 0x18DB JUMPI DUP6 DUP1 SWAP2 PUSH1 0x24 DUP7 MLOAD DUP1 SWAP5 DUP2 SWAP4 PUSH4 0x38E270ED PUSH1 0xE0 SHL DUP4 MSTORE ADDRESS DUP10 DUP5 ADD MSTORE GAS CALL DUP1 ISZERO PUSH2 0x18D1 JUMPI SWAP1 DUP7 SWAP2 PUSH2 0x18BD JUMPI JUMPDEST POP POP DUP2 SLOAD AND SWAP3 DUP4 EXTCODESIZE ISZERO PUSH2 0xD6B JUMPI SWAP1 PUSH1 0x24 DUP6 SWAP3 DUP4 DUP6 MLOAD SWAP7 DUP8 SWAP5 DUP6 SWAP4 DUP5 MSTORE ADDRESS SWAP1 DUP5 ADD MSTORE GAS CALL SWAP1 DUP2 ISZERO PUSH2 0x144E JUMPI POP PUSH2 0x18A9 JUMPI JUMPDEST POP DUP1 PUSH32 0x409FCED1B85AE32A29FB1E18894D8361A5F2653DC27ADF7102D86175C2901D7C SWAP2 LOG1 JUMP JUMPDEST PUSH2 0x18B3 DUP3 SWAP2 PUSH2 0x15A3 JUMP JUMPDEST PUSH2 0x1AD JUMPI PUSH0 PUSH2 0x1882 JUMP JUMPDEST PUSH2 0x18C6 SWAP1 PUSH2 0x15A3 JUMP JUMPDEST PUSH2 0xD6B JUMPI DUP5 PUSH0 PUSH2 0x1852 JUMP JUMPDEST DUP5 MLOAD RETURNDATASIZE DUP9 DUP3 RETURNDATACOPY RETURNDATASIZE SWAP1 REVERT JUMPDEST DUP6 DUP1 REVERT JUMPDEST PUSH2 0x18EB SWAP1 SWAP6 SWAP2 SWAP6 PUSH2 0x15A3 JUMP JUMPDEST SWAP4 PUSH0 PUSH2 0x181B JUMP JUMPDEST PUSH1 0xD SLOAD PUSH1 0x9 SLOAD PUSH1 0xA SLOAD PUSH1 0x40 MLOAD PUSH4 0xEFDD7C07 PUSH1 0xE0 SHL DUP2 MSTORE PUSH1 0x4 DUP2 ADD SWAP3 SWAP1 SWAP3 MSTORE PUSH1 0x24 DUP3 ADD MSTORE SWAP1 PUSH1 0x20 SWAP1 DUP3 SWAP1 PUSH1 0x44 SWAP1 DUP3 SWAP1 PUSH1 0x1 PUSH1 0x1 PUSH1 0xA0 SHL SUB AND GAS STATICCALL SWAP1 DUP2 ISZERO PUSH2 0x196A JUMPI PUSH0 SWAP2 PUSH2 0x193C JUMPI POP SWAP1 JUMP JUMPDEST SWAP1 PUSH1 0x20 DUP3 RETURNDATASIZE DUP3 GT PUSH2 0x1962 JUMPI JUMPDEST DUP2 PUSH2 0x1955 PUSH1 0x20 SWAP4 DUP4 PUSH2 0x15CB JUMP JUMPDEST DUP2 ADD SUB SLT PUSH2 0x1AD JUMPI POP MLOAD SWAP1 JUMP JUMPDEST RETURNDATASIZE SWAP2 POP PUSH2 0x1948 JUMP JUMPDEST PUSH1 0x40 MLOAD RETURNDATASIZE PUSH0 DUP3 RETURNDATACOPY RETURNDATASIZE SWAP1 REVERT INVALID LOG2 PUSH5 0x6970667358 0x22 SLT KECCAK256 MSTORE DUP15 0xFC 0x28 0xB3 0x5D PREVRANDAO PUSH7 0x8BA94CEE7C99B PC 0xC3 0x2D DUP6 0x23 SMOD CODESIZE CALLDATACOPY SLOAD 0xD4 SWAP14 MLOAD 0xD6 AND 0x4D 0xF8 TIMESTAMP PUSH5 0x736F6C6343 STOP ADDMOD EQ STOP CALLER "
		},
		"gasEstimates": {
			"creation": {
				"codeDepositCost": "1314200",
				"executionCost": "infinite",
				"totalCost": "infinite"
			},
			"external": {
				"activateLoan()": "infinite",
				"calculateInterest()": "infinite",
				"calculateRequiredCollateral()": "infinite",
				"checkAndHandleDefault()": "infinite",
				"closeDeal()": "infinite",
				"fundLoan()": "infinite",
				"getBorrower()": "2366",
				"getCollateralAmount(address)": "infinite",
				"getFundedBlock()": "2367",
				"getInterestRate()": "2433",
				"getLender()": "2630",
				"getLoanAmount()": "2736",
				"getLoanState()": "2725",
				"getRepaymentPeriod()": "2455",
				"getRepaymentToken()": "2288",
				"loanDetails()": "25963",
				"permit2()": "2344",
				"poolOrganizer()": "2718",
				"repay()": "infinite",
				"rewardManager()": "2322",
				"state()": "2769",
				"vaultManager()": "2564"
			},
			"internal": {
				"_checkPreconditions()": "infinite",
				"_closeLoan()": "infinite",
				"_disburseLoan()": "infinite",
				"_finalizeActivation()": "infinite",
				"_handleCollateral()": "infinite",
				"_handleDeal()": "infinite",
				"_handleDefault()": "infinite",
				"_isPastDue()": "infinite",
				"_redeemCollateralToBorrower()": "infinite",
				"_redeemCollateralToLender()": "infinite",
				"_refundRemainingInterest()": "infinite",
				"_releaseCollateral(uint256)": "infinite",
				"_transferFunds(address,uint256)": "infinite",
				"_transitionToClosed()": "infinite",
				"_updateLoanStateToRepaid()": "infinite",
				"_validateRepayment(uint256)": "infinite"
			}
		},
		"methodIdentifiers": {
			"activateLoan()": "b2a9bb60",
			"calculateInterest()": "eb0c4955",
			"calculateRequiredCollateral()": "6b6d1955",
			"checkAndHandleDefault()": "3b1baeff",
			"closeDeal()": "88f2424b",
			"fundLoan()": "8db57994",
			"getBorrower()": "1cb0c3e7",
			"getCollateralAmount(address)": "654c6295",
			"getFundedBlock()": "2e1283e3",
			"getInterestRate()": "5257b566",
			"getLender()": "9861f3e5",
			"getLoanAmount()": "f4b01b18",
			"getLoanState()": "9e9f669c",
			"getRepaymentPeriod()": "64c4bec0",
			"getRepaymentToken()": "0c7277de",
			"loanDetails()": "95cb741d",
			"permit2()": "12261ee7",
			"poolOrganizer()": "c51b9507",
			"repay()": "402d8883",
			"rewardManager()": "0f4ef8a6",
			"state()": "c19d93fb",
			"vaultManager()": "8a4adf24"
		}
	},
	"abi": [
		{
			"inputs": [
				{
					"internalType": "address",
					"name": "lender",
					"type": "address"
				},
				{
					"internalType": "contract IERC20",
					"name": "loanTokenAddress",
					"type": "address"
				},
				{
					"internalType": "contract IERC20",
					"name": "repaymentTokenAddress",
					"type": "address"
				},
				{
					"internalType": "address",
					"name": "collateralVaultAddress",
					"type": "address"
				},
				{
					"internalType": "uint256",
					"name": "loanAmount",
					"type": "uint256"
				},
				{
					"internalType": "uint256",
					"name": "interestRate",
					"type": "uint256"
				},
				{
					"internalType": "uint256",
					"name": "repaymentPeriodInDays",
					"type": "uint256"
				},
				{
					"internalType": "contract IInterestModel",
					"name": "interestModel",
					"type": "address"
				},
				{
					"internalType": "contract IPermit2",
					"name": "_permit2",
					"type": "address"
				},
				{
					"internalType": "address",
					"name": "poolOrganizerAddress",
					"type": "address"
				},
				{
					"internalType": "address",
					"name": "vaultManagerAddress",
					"type": "address"
				},
				{
					"internalType": "address",
					"name": "rewardManagerAddress",
					"type": "address"
				}
			],
			"stateMutability": "nonpayable",
			"type": "constructor"
		},
		{
			"anonymous": false,
			"inputs": [
				{
					"indexed": false,
					"internalType": "uint256",
					"name": "collateralAmount",
					"type": "uint256"
				}
			],
			"name": "CollateralFunded",
			"type": "event"
		},
		{
			"anonymous": false,
			"inputs": [
				{
					"indexed": true,
					"internalType": "address",
					"name": "borrower",
					"type": "address"
				},
				{
					"indexed": false,
					"internalType": "uint256",
					"name": "collateralAmount",
					"type": "uint256"
				}
			],
			"name": "LoanActivated",
			"type": "event"
		},
		{
			"anonymous": false,
			"inputs": [],
			"name": "LoanClosed",
			"type": "event"
		},
		{
			"anonymous": false,
			"inputs": [
				{
					"indexed": true,
					"internalType": "address",
					"name": "borrower",
					"type": "address"
				}
			],
			"name": "LoanDefaulted",
			"type": "event"
		},
		{
			"anonymous": false,
			"inputs": [
				{
					"indexed": false,
					"internalType": "uint256",
					"name": "loanAmount",
					"type": "uint256"
				}
			],
			"name": "LoanFunded",
			"type": "event"
		},
		{
			"anonymous": false,
			"inputs": [
				{
					"indexed": true,
					"internalType": "address",
					"name": "lender",
					"type": "address"
				},
				{
					"indexed": false,
					"internalType": "uint256",
					"name": "loanAmount",
					"type": "uint256"
				},
				{
					"indexed": false,
					"internalType": "contract IERC20",
					"name": "loanToken",
					"type": "address"
				},
				{
					"indexed": false,
					"internalType": "contract IERC20",
					"name": "repaymentToken",
					"type": "address"
				}
			],
			"name": "LoanOfferCreated",
			"type": "event"
		},
		{
			"anonymous": false,
			"inputs": [
				{
					"indexed": false,
					"internalType": "uint256",
					"name": "amountRepaid",
					"type": "uint256"
				}
			],
			"name": "RepaymentMade",
			"type": "event"
		},
		{
			"inputs": [],
			"name": "activateLoan",
			"outputs": [],
			"stateMutability": "nonpayable",
			"type": "function"
		},
		{
			"inputs": [],
			"name": "calculateInterest",
			"outputs": [
				{
					"internalType": "uint256",
					"name": "",
					"type": "uint256"
				}
			],
			"stateMutability": "view",
			"type": "function"
		},
		{
			"inputs": [],
			"name": "calculateRequiredCollateral",
			"outputs": [
				{
					"internalType": "uint256",
					"name": "",
					"type": "uint256"
				}
			],
			"stateMutability": "view",
			"type": "function"
		},
		{
			"inputs": [],
			"name": "checkAndHandleDefault",
			"outputs": [],
			"stateMutability": "nonpayable",
			"type": "function"
		},
		{
			"inputs": [],
			"name": "closeDeal",
			"outputs": [],
			"stateMutability": "nonpayable",
			"type": "function"
		},
		{
			"inputs": [],
			"name": "fundLoan",
			"outputs": [],
			"stateMutability": "nonpayable",
			"type": "function"
		},
		{
			"inputs": [],
			"name": "getBorrower",
			"outputs": [
				{
					"internalType": "address",
					"name": "",
					"type": "address"
				}
			],
			"stateMutability": "view",
			"type": "function"
		},
		{
			"inputs": [
				{
					"internalType": "address",
					"name": "user",
					"type": "address"
				}
			],
			"name": "getCollateralAmount",
			"outputs": [
				{
					"internalType": "uint256",
					"name": "",
					"type": "uint256"
				}
			],
			"stateMutability": "view",
			"type": "function"
		},
		{
			"inputs": [],
			"name": "getFundedBlock",
			"outputs": [
				{
					"internalType": "uint256",
					"name": "",
					"type": "uint256"
				}
			],
			"stateMutability": "view",
			"type": "function"
		},
		{
			"inputs": [],
			"name": "getInterestRate",
			"outputs": [
				{
					"internalType": "uint256",
					"name": "",
					"type": "uint256"
				}
			],
			"stateMutability": "view",
			"type": "function"
		},
		{
			"inputs": [],
			"name": "getLender",
			"outputs": [
				{
					"internalType": "address",
					"name": "",
					"type": "address"
				}
			],
			"stateMutability": "view",
			"type": "function"
		},
		{
			"inputs": [],
			"name": "getLoanAmount",
			"outputs": [
				{
					"internalType": "uint256",
					"name": "",
					"type": "uint256"
				}
			],
			"stateMutability": "view",
			"type": "function"
		},
		{
			"inputs": [],
			"name": "getLoanState",
			"outputs": [
				{
					"internalType": "enum TuliaPool.LoanState",
					"name": "",
					"type": "uint8"
				}
			],
			"stateMutability": "view",
			"type": "function"
		},
		{
			"inputs": [],
			"name": "getRepaymentPeriod",
			"outputs": [
				{
					"internalType": "uint256",
					"name": "",
					"type": "uint256"
				}
			],
			"stateMutability": "view",
			"type": "function"
		},
		{
			"inputs": [],
			"name": "getRepaymentToken",
			"outputs": [
				{
					"internalType": "contract IERC20",
					"name": "",
					"type": "address"
				}
			],
			"stateMutability": "view",
			"type": "function"
		},
		{
			"inputs": [],
			"name": "loanDetails",
			"outputs": [
				{
					"internalType": "address",
					"name": "lender",
					"type": "address"
				},
				{
					"internalType": "contract IERC20",
					"name": "loanToken",
					"type": "address"
				},
				{
					"internalType": "contract IERC20",
					"name": "repaymentToken",
					"type": "address"
				},
				{
					"internalType": "contract TuliaVault",
					"name": "collateralVault",
					"type": "address"
				},
				{
					"internalType": "uint256",
					"name": "loanAmount",
					"type": "uint256"
				},
				{
					"internalType": "uint256",
					"name": "interestRate",
					"type": "uint256"
				},
				{
					"internalType": "uint256",
					"name": "repaymentPeriod",
					"type": "uint256"
				},
				{
					"internalType": "contract IVaultManager",
					"name": "vaultManager",
					"type": "address"
				},
				{
					"internalType": "contract IInterestModel",
					"name": "interestModel",
					"type": "address"
				},
				{
					"internalType": "address",
					"name": "borrower",
					"type": "address"
				},
				{
					"internalType": "uint256",
					"name": "startBlock",
					"type": "uint256"
				},
				{
					"internalType": "uint256",
					"name": "fundedBlock",
					"type": "uint256"
				}
			],
			"stateMutability": "view",
			"type": "function"
		},
		{
			"inputs": [],
			"name": "permit2",
			"outputs": [
				{
					"internalType": "contract IPermit2",
					"name": "",
					"type": "address"
				}
			],
			"stateMutability": "view",
			"type": "function"
		},
		{
			"inputs": [],
			"name": "poolOrganizer",
			"outputs": [
				{
					"internalType": "contract IPoolOrganizer",
					"name": "",
					"type": "address"
				}
			],
			"stateMutability": "view",
			"type": "function"
		},
		{
			"inputs": [],
			"name": "repay",
			"outputs": [],
			"stateMutability": "nonpayable",
			"type": "function"
		},
		{
			"inputs": [],
			"name": "rewardManager",
			"outputs": [
				{
					"internalType": "contract IRewardManager",
					"name": "",
					"type": "address"
				}
			],
			"stateMutability": "view",
			"type": "function"
		},
		{
			"inputs": [],
			"name": "state",
			"outputs": [
				{
					"internalType": "enum TuliaPool.LoanState",
					"name": "",
					"type": "uint8"
				}
			],
			"stateMutability": "view",
			"type": "function"
		},
		{
			"inputs": [],
			"name": "vaultManager",
			"outputs": [
				{
					"internalType": "contract IVaultManager",
					"name": "",
					"type": "address"
				}
			],
			"stateMutability": "view",
			"type": "function"
		}
	]
}