{
	"data": {
		"bytecode": {
			"linkReferences": {},
			"object": "60803461022257601f61498338819003918201601f191683019291906001600160401b038411838510176102265781608092849260409687528339810103126102225761004b8161023a565b6100576020830161023a565b9061006f606061006886860161023a565b940161023a565b6001600160a01b039182169290919083156101cd57811693841561017e57811691821561012957169283156100d55760018060a01b031992835f5416175f55826001541617600155816002541617600255600354161760035551614734908161024f8239f35b845162461bcd60e51b815260206004820152602760248201527f5661756c744d616e616765722063616e6e6f7420626520746865207a65726f206044820152666164647265737360c81b6064820152608490fd5b855162461bcd60e51b815260206004820152602860248201527f5265776172644d616e616765722063616e6e6f7420626520746865207a65726f604482015267206164647265737360c01b6064820152608490fd5b855162461bcd60e51b815260206004820152602260248201527f5065726d6974322063616e6e6f7420626520746865207a65726f206164647265604482015261737360f01b6064820152608490fd5b855162461bcd60e51b815260206004820152602860248201527f506f6f6c4f7267616e697a65722063616e6e6f7420626520746865207a65726f604482015267206164647265737360c01b6064820152608490fd5b5f80fd5b634e487b7160e01b5f52604160045260245ffd5b51906001600160a01b03821682036102225756fe60a06040818152600436101562000014575f80fd5b5f91823560e01c9081630f4ef8a614620001d95750806312261ee714620001af5780638a4adf2414620001855780638c41fd0914620000d2578063a622ee7c14620000945763c51b95071462000068575f80fd5b346200009057816003193601126200009057905490516001600160a01b039091168152602090f35b5080fd5b50346200009057602036600319011262000090576020916001600160a01b0390829082620000c162000200565b168152600485522054169051908152f35b503462000090576101403660031901126200009057620000f162000200565b6001600160a01b039060243590828216820362000181576044359183831683036200017d57606435928484168403620001795760e43591858316830362000175576101043593600285101562000171576200016096979850610124359560c4359360a435936084359362000348565b835191831682529091166020820152f35b8880fd5b8780fd5b8680fd5b8580fd5b8480fd5b5034620000905781600319360112620000905760035490516001600160a01b039091168152602090f35b5034620000905781600319360112620000905760015490516001600160a01b039091168152602090f35b83903462000090578160031936011262000090576002546001600160a01b03168152602090f35b600435906001600160a01b03821682036200021757565b5f80fd5b67ffffffffffffffff81116200023057604052565b634e487b7160e01b5f52604160045260245ffd5b90601f8019910116810190811067ffffffffffffffff8211176200023057604052565b5f5b838110620002795750505f910152565b818101518382015260200162000269565b6020818303126200021757805167ffffffffffffffff918282116200021757019082601f8301121562000217578151908111620002305760405192620002db601f8301601f19166020018562000244565b818452602082840101116200021757620002fc916020808501910162000267565b90565b906020916200031a8151809281855285808601910162000267565b601f01601f1916010190565b906002821015620003345752565b634e487b7160e01b5f52602160045260245ffd5b9799989297965f969195929491936001600160a01b03891615158062000ab3575b1562000a7a576040516395d89b4160e01b815288816004816001600160a01b038b165afa9081156200093157899162000a5c575b50620003da60226040518093612a2b60f11b6020830152620003c9815180926020868601910162000267565b810103600281018452018262000244565b6040516395d89b4160e01b81529089826004816001600160a01b038c165afa91821562000922578e908b9362000a2f575b5060029062000453602a604051809669151d5b1a5855985d5b1d60b21b602083015262000442815180926020868601910162000267565b810103600a81018752018562000244565b8b608052101562000a1b578d156200093c575b50508b620006da57506001548754600354600254604051946001600160a01b0391821694928216938216929091169067ffffffffffffffff611dd8870190811190871117620006c657611dd86200137887396001600160a01b038d8116611dd888019081528c821660208201528f821660408201526080805183166060830152810189905260a081018a905260c081018b9052911660e0820152610100810191909152610120810191909152610140810191909152610160810191909152819003610180019087f0978815620006bb5786546001600160a01b031694853b15620001755760405163021bab0160e51b81526001600160a01b03808c166004830152808b166024830152604482018a905260805181166064830152978816608482015290871660a4820152951660c486015260e4850152610104840152610124830152829082906101649082908490620005c461014484018d62000326565b5af180156200069857908291620006a3575b505080546001600160a01b0316803b156200009057604051635d102df760e01b81526001600160a01b03851660048201529082908290602490829084905af1801562000698576200067d575b505062000633604051809562000326565b6080516001600160a01b039081169485928216918416907f645ee41665486bc487a04a91a2bd296d2d2395cabf7747b152436dd15f9d4f8f90602090a46001600160a01b03169190565b6200068982916200021b565b62000695578062000622565b80fd5b6040513d84823e3d90fd5b620006ae906200021b565b6200069557805f620005d6565b6040513d88823e3d90fd5b634e487b7160e01b8c52604160045260248cfd5b9a80979a999895969392945060019150146200072d5760405162461bcd60e51b8152602060048201526015602482015274556e737570706f7274656420706f6f6c207479706560581b6044820152606490fd5b6001546040516108b19b90916001600160a01b031667ffffffffffffffff8d840190811190841117620006c6578c60609284928e9f62000ac785396001600160a01b038816928401928352602083015260408201520301908af092831562000931576002546001600160a01b0316803b156200092d576040516377ff76e760e01b81523060048201526001600160a01b0385166024820152600160448201529b8b918d916064918391905af18015620009225762000907575b8954999a5097986001600160a01b03938416988b989490911693843b15620001715760405163021bab0160e51b8152600481018b90526001600160a01b038781166024830152604482018b9052606482018b9052948516608482015296841660a488015290921660c486015260e485019190915261010484015261012483018590528490839061016490829084906200088461014484018a62000326565b5af18015620008fc5785928591620008db575b505060207f645ee41665486bc487a04a91a2bd296d2d2395cabf7747b152436dd15f9d4f8f91620008cc604051809662000326565b6001600160a01b031693a49190565b620008e9919293506200021b565b620008f8578390835f62000897565b8280fd5b6040513d86823e3d90fd5b969798909962000917906200021b565b9796958990620007e6565b6040513d8c823e3d90fd5b8a80fd5b6040513d8b823e3d90fd5b60405191826115af81011067ffffffffffffffff6115af8501111762000a0757829162000993620009aa926115af6200315086396001600160a01b038c166115af86019081526060602082018190520190620002ff565b906115af8401820360406115af86010152620002ff565b039089f08015620009fc5760808190526040516001600160a01b038881168252909116907f5d9c31ffa0fecffd7cf379989a3c7af252f0335e0d2a1320b55245912c781f5390602090a25f8062000466565b6040513d8a823e3d90fd5b634e487b7160e01b8b52604160045260248bfd5b634e487b7160e01b8a52602160045260248afd5b600291935062000a54908c3d8091833e62000a4b818362000244565b8101906200028a565b92906200040b565b62000a7391503d808b833e62000a4b818362000244565b5f6200039d565b60405162461bcd60e51b8152602060048201526011602482015270496e76616c69642061646472657373657360781b6044820152606490fd5b506001600160a01b03871615156200036956fe60803461009957601f6108b138819003918201601f19168301916001600160401b0383118484101761009d578084926060946040528339810103126100995780516001600160a01b0380821692909183900361009957602081015191821680920361009957604001519160015f5560018060a01b03199081600254161760025560035416176003556004556040516107ff90816100b28239f35b5f80fd5b634e487b7160e01b5f52604160045260245ffdfe6080806040526004361015610012575f80fd5b5f90813560e01c9081630f4ef8a6146106b65750806312261ee71461068d57806338d52e0f146106645780635cffe9de14610166578063613255ab146100bb5780638c9f305f1461009d5763d9d98ce41461006b575f80fd5b3461009a57604036600319011261009a5760206100926100896106db565b60243590610767565b604051908152f35b80fd5b503461009a578060031936011261009a576020600454604051908152f35b503461009a576020908160031936011261009a576100d76106db565b6002546001600160a01b0390811691849116820361015f576040516370a0823160e01b815230600482015291829060249082905afa9182156101535791610122575b50604051908152f35b90508181813d831161014c575b61013981836106f1565b8101031261014857515f610119565b5f80fd5b503d61012f565b604051903d90823e3d90fd5b5050610092565b503461009a57608036600319011261009a576004356001600160a01b038116810361060f576024356001600160a01b03811681036106605767ffffffffffffffff9182606435116104c4573660236064350112156104c4578260643560040135116104c457366024606435600401356064350101116104c457600284541461061b576002808555546001600160a01b0390811692906102089082168414610727565b61021460443582610767565b9085604051946370a0823160e01b8652306004870152602086602481845afa9586156104465782966105e2575b5060405163a9059cbb60e01b81526001600160a01b0386166004820152604480356024830152909260209284929183915af180156105d7576105b8575b50604051906323e30c8b60e01b825233600483015260018060a01b03166024820152604435604482015281606482015260a060848201526064356004013560a48201526064356004013560246064350160c483013760c46064356004013582810182018890526020918391601f19601f9091011682018290030181896001600160a01b0388165af180156105ad578690610557575b7f439148f0bbc682ca079e46d6e2c2f0c1e3b820f1a291b069d8882abf8cf18dd991500361051e5760443501806044351161050a576002546040516323b872dd60e01b81526001600160a01b03938416600482015230602482015260448101929092529091602091839160649183918991165af180156104d0576104db575b506002546040516370a0823160e01b815230600482015290602090829060249082906001600160a01b03165afa9081156104d057849161049a575b5010610455576001548291906001600160a01b0316803b15610451578290602460405180968193637e72c7d760e01b83523060048401525af1801561044657610420575b60018255602060405160018152f35b8211610432576001916040525f610411565b634e487b7160e01b81526041600452602490fd5b6040513d84823e3d90fd5b5050fd5b60405162461bcd60e51b815260206004820152601b60248201527f466c617368206c6f616e2072657061796d656e74206661696c656400000000006044820152606490fd5b90506020813d6020116104c8575b816104b5602093836106f1565b810103126104c457515f6103cd565b8380fd5b3d91506104a8565b6040513d86823e3d90fd5b6104fc9060203d602011610503575b6104f481836106f1565b8101906107b1565b505f610392565b503d6104ea565b634e487b7160e01b85526011600452602485fd5b60405162461bcd60e51b8152602060048201526011602482015270119b185cda081b1bd85b8819985a5b1959607a1b6044820152606490fd5b506020813d6020116105a5575b81610571602093836106f1565b810103126105a1577f439148f0bbc682ca079e46d6e2c2f0c1e3b820f1a291b069d8882abf8cf18dd99051610313565b8580fd5b3d9150610564565b6040513d88823e3d90fd5b6105d09060203d602011610503576104f481836106f1565b505f61027e565b6040513d89823e3d90fd5b9095506020813d602011610613575b816105fe602093836106f1565b8101031261060f5751946020610241565b5080fd5b3d91506105f1565b60405162461bcd60e51b815260206004820152601f60248201527f5265656e7472616e637947756172643a207265656e7472616e742063616c6c006044820152606490fd5b8280fd5b503461009a578060031936011261009a576002546040516001600160a01b039091168152602090f35b503461009a578060031936011261009a576003546040516001600160a01b039091168152602090f35b90503461060f578160031936011261060f576001546001600160a01b03168152602090f35b600435906001600160a01b038216820361014857565b90601f8019910116810190811067ffffffffffffffff82111761071357604052565b634e487b7160e01b5f52604160045260245ffd5b1561072e57565b60405162461bcd60e51b81526020600482015260116024820152702ab739bab83837b93a32b2103a37b5b2b760791b6044820152606490fd5b600254610781916001600160a01b03908116911614610727565b6004549081810291818304149015171561079d57612710900490565b634e487b7160e01b5f52601160045260245ffd5b9081602091031261014857518015158103610148579056fea2646970667358221220485d28ce82b89521d10acc4d6d797a29036665e73741d7e66a4bef0e64d45bc164736f6c63430008140033608034620003d257601f62001dd838819003918201601f19168301916001600160401b038311848410176200032c5780849261018094604052833981010312620003d2576200004e81620003d6565b6200005c60208301620003d6565b916200006b60408201620003d6565b916200007a60608301620003d6565b9260808301519460a08401519360c08101519060e081015160018060a01b0381168103620003d257610100820151916001600160a01b0383168303620003d257620000c96101208201620003d6565b620000e7610160620000df6101408501620003d6565b9301620003d6565b60015f55936001600160a01b038916151580620003bf575b80620003ac575b8062000399575b156200035457600180546001600160a01b03199081166001600160a01b039384161790915560028054821693831693909317909255600380549092169083161790556004549362015180908015828202829004831417156200034057604051996001600160401b036101808c01908111908c11176200032c578c5f6101608d7f3d48195705780f5c10a0d217f778f0f6d562cb1a6a699da31c0d6d756aacedfc9f60609f8f906101800160405260018060a01b0316825260018060a01b038d1660208301528d60018060a01b0316604083015260018060a01b0316938f859083015260808201528460a082015286860260c082015260018060a01b03881660e082015260018060a01b0389166101008201528261012082015242610140820152015260018060a01b038b1660018060a01b0319600554161760055560018060a01b03891660018060a01b0319600654161760065560018060a01b038a1660018060a01b0319600754161760075560018060a01b031960085416176008558c600955600a5502600b5560018060a01b031660018060a01b0319600c541617600c5560018060a01b031660018060a01b0319600d541617600d5560018060a01b0319600e5416600e5542600f555f60105560018060a01b03169060018060a81b0319161760045560405195865260018060a01b0316602086015260018060a01b0316604085015260018060a01b031692a26040516119ec9081620003ec8239f35b634e487b7160e01b5f52604160045260245ffd5b634e487b7160e01b5f52601160045260245ffd5b60405162461bcd60e51b815260206004820152601760248201527f496e76616c696420696e707574206164647265737365730000000000000000006044820152606490fd5b506001600160a01b03881615156200010d565b506001600160a01b038b16151562000106565b506001600160a01b0387161515620000ff565b5f80fd5b51906001600160a01b0382168203620003d25756fe6080604081815260049182361015610015575f80fd5b5f92833560e01c9182630c7277de14611544575081630f4ef8a61461151c57816312261ee7146114f35781631cb0c3e7146114ca5781632e1283e3146114ab5781633b1baeff14611385578163402d888314610dee5781635257b56614610dcf57816364c4bec014610db0578163654c629514610d185781636b6d195514610cf857816388f2424b14610a965781638a4adf2414610a6d5781638db579941461086457816395cb741d146107cd5781639861f3e5146107a45781639e9f669c14610180578163b2a9bb60146101b0578163c19d93fb1461018057508063c51b950714610158578063eb0c4955146101355763f4b01b1814610114575f80fd5b346101315781600319360112610131576020906009549051908152f35b5080fd5b5034610131578160031936011261013157602090610151611933565b9051908152f35b503461013157816003193601126101315760025490516001600160a01b039091168152602090f35b8284346101ad57806003193601126101ad575060ff6101a9925460a01c16905191829182611569565b0390f35b80fd5b919050346104ed57826003193601126104ed576101cb611590565b60ff825460a01c1660068110156107915760010361074e57331561070b576005546001600160a01b0392908316903382146106c857610208611933565b6102156009549182611687565b6007548551636eb1769f60e11b808252338683019081523060208281019190915297938a16949192908890829081906040010381885afa9081156106be578b91610691575b50106106445760065487519182526001600160a01b039092168582019081523060208201529091869183918a16908290819060400103915afa90811561063a579083918991610609575b50106105c657908692916102bf6102b9611933565b83611687565b6102c7611933565b87516323b872dd60e01b808252338783019081523060208201526040810194909452919391929091889183919082908a90829060600103925af180156105bc57916103539391889361059f575b50896007541690878b60035416918b51968795869485938452338c850160409194939294606082019560018060a01b0380921683521660208201520152565b03925af1801561057857610582575b50600754600854865163095ea7b360e01b81529088166001600160a01b0316848201908152602081018490529091869183918a169082908890829060400103925af1801561057857918591859361055b575b50604488600854169188519485938492636e553f6560e01b8452888401523360248401525af1801561051e57908491610528575b50600654600954865163a9059cbb60e01b81523385820190815260208101929092529291839182900360400190829087908b165af1801561051e576104f1575b50600e80546001600160a01b0319163317905542600f55805460ff60a01b1916600160a11b17815561046361045b611933565b600954611687565b946003541690813b156104ed5782916024839287519485938492632914526d60e11b845230908401525af180156104e3576104cb575b50507f5150ab7694a22fbc01c642bc10316565247df962fa3f0ac3b5d1a18ba45b485b91519283523392a26001815580f35b6104d4906115e4565b6104df57835f610499565b8380fd5b84513d84823e3d90fd5b8280fd5b61051090843d8611610517575b610508818361160c565b81019061162e565b505f610428565b503d6104fe565b85513d85823e3d90fd5b90809293503d8311610554575b61053f818361160c565b81010312610550578490825f6103e8565b5f80fd5b503d610535565b61057190833d851161051757610508818361160c565b505f6103b4565b86513d86823e3d90fd5b61059890853d871161051757610508818361160c565b505f610362565b6105b590843d861161051757610508818361160c565b505f610314565b88513d88823e3d90fd5b845162461bcd60e51b8152808401859052601b60248201527f496e73756666696369656e74206c6f616e20616c6c6f77616e636500000000006044820152606490fd5b809250868092503d8311610633575b610622818361160c565b81010312610550578290515f6102a4565b503d610618565b86513d8a823e3d90fd5b865162461bcd60e51b8152808601879052602160248201527f496e73756666696369656e7420636f6c6c61746572616c20616c6c6f77616e636044820152606560f81b6064820152608490fd5b90508781813d83116106b7575b6106a8818361160c565b8101031261055057515f61025a565b503d61069e565b89513d8d823e3d90fd5b606490602084519162461bcd60e51b8352820152601960248201527f4c656e6465722063616e6e6f7420626520626f72726f776572000000000000006044820152fd5b906020606492519162461bcd60e51b8352820152601860248201527f496e76616c696420626f72726f776572206164647265737300000000000000006044820152fd5b906020606492519162461bcd60e51b8352820152601a60248201527f4c6f616e206e6f7420726561647920746f2061637469766174650000000000006044820152fd5b634e487b7160e01b845260218352602484fd5b50503461013157816003193601126101315760055490516001600160a01b039091168152602090f35b5050346101315781600319360112610131576101809060018060a01b038060055416918160065416918060075416908060085416600954600a54600b549184600c54169385600d541695600e541696600f54986010549a81519c8d5260208d01528b015260608a0152608089015260a088015260c087015260e0860152610100850152610120840152610140830152610160820152f35b9050346104ed57826003193601126104ed5761087e611590565b60ff815460a01c166006811015610a5a57610a185760065460055460095484516323b872dd60e01b81526001600160a01b039283168582019081523060208083019190915260408201939093528795949192918391829003606001908290889087165af180156109ec576109fa575b5042601055815460ff60a01b198116600160a01b178355600654908216908216813b156109f657849160648392885194859384926377ff76e760e01b8452308a85015260248401528160448401525af19081156109ec5784916109d8575b50506002541690813b156104ed57829160248392865194859384926307cbcb8560e21b845230908401525af180156109cb576109b7575b507f9e71d2fb732e68272b7e74ecfd14638673c1d77e19a5d390a3ffff054d57c44b6020836009549051908152a16001815580f35b6109c0906115e4565b61013157815f610982565b50505051903d90823e3d90fd5b6109e1906115e4565b6104ed57825f61094b565b85513d86823e3d90fd5b8480fd5b610a119060203d811161051757610508818361160c565b505f6108ed565b6020606492519162461bcd60e51b8352820152601b60248201527f4c6f616e206e6f7420696e20637265617461626c6520737461746500000000006044820152fd5b634e487b7160e01b845260218252602484fd5b50503461013157816003193601126101315760035490516001600160a01b039091168152602090f35b9050346104ed57826003193601126104ed57805460ff8160a01c166006811015610ce5576002610ac69114611646565b60ff60a01b1916600360a01b178155610add6116a8565b600354600e546001600160a01b03929185918416908416803b156104ed57855163389e006760e11b8152308582019081526001600160a01b039093166020840152918391839182908490829060400103925af18015610c9457610cd1575b5050610b45611807565b81600e54167ff4e5cf42cbb1d0c6c91e16d925349feb6c5d970652f6ec77b1ff1262f7284cd59381855f80a2836008541681516370a0823160e01b81528385820152876020958683602481875afa928315610c94578293610c9e575b508451926363737ac960e11b8452818401528683602481875afa928315610c9457918693918895938293610c5d575b508651635d043b2960e11b81529081019283526001600160a01b03948516602084015296909316604082015285928391829060600103925af1908115610c545750610c2b575b5050610c20611807565b600e5416905f80a280f35b813d8311610c4d575b610c3e818361160c565b81010312610550575f80610c16565b503d610c34565b513d87823e3d90fd5b9450948092508491503d8311610c8d575b610c78818361160c565b8101031261055057859289869351915f610bd0565b503d610c6e565b85513d84823e3d90fd5b87809294508193503d8311610cca575b610cb8818361160c565b8101031261055057889051915f610ba1565b503d610cae565b610cda906115e4565b6104df57835f610b3b565b634e487b7160e01b855260218352602485fd5b50503461013157816003193601126101315760209061015161045b611933565b83833461013157602092836003193601126104ed5780356001600160a01b03818116918290036109f65790602486926008541693855194859384926370a0823160e01b84528301525afa928315610da55792610d76575b5051908152f35b9091508281813d8311610d9e575b610d8e818361160c565b8101031261055057519083610d6f565b503d610d84565b8251903d90823e3d90fd5b505034610131578160031936011261013157602090600b549051908152f35b505034610131578160031936011261013157602090600a549051908152f35b919050346104ed57826003193601126104ed57610e09611590565b600e546001600160a01b039190821633036113315760ff835460a01c16600681101561131e576002036112c557610e4161045b611933565b610e49611933565b8103928184116112b2576007548351636eb1769f60e11b815233878201908152306020828101919091529692841691908790829081906040010381855afa9081156112a8579085918a91611277575b50106112205784516370a0823160e01b808252338983015294908781602481865afa908115611216578a916111e9575b50106111945760055485516323b872dd60e01b8152338982019081529185166001600160a01b031660208301526040820184905289939290918891839182908790829060600103925af1801561115957611177575b508260035416803b156104ed5785516356f78a1d60e01b815230818a019081523360208201529091849183919082908490829060400103925af1801561115957908391611163575b50508260085416908551906363737ac960e11b8252888201528681602481855afa90811561115957908792918491611124575b508651635d043b2960e11b8152898101918252336020830181905260408301529384929183919082906060015b03925af1801561111a579085916110f1575b5050845460ff60a01b1916600160a21b1785556007548351928352308387015216938382602481885afa9182156110e75786926110b6575b50825163a9059cbb60e01b8152339181019182526020820192909252909383918591908290889082906040015b03925af19283156110ac577f4002dba848920f438092e08090cfb5fc47144c22704268b402c9553a1b5adfe69361108f575b50611077611807565b61108261045b611933565b9051908152a16001815580f35b6110a590833d851161051757610508818361160c565b505f61106e565b81513d86823e3d90fd5b91508382813d83116110e0575b6110cd818361160c565b810103126105505790519061103c61100f565b503d6110c3565b83513d88823e3d90fd5b813d8311611113575b611104818361160c565b8101031261055057835f610fd7565b503d6110fa565b84513d89823e3d90fd5b9350509082813d8311611152575b61113c818361160c565b8101031261055057905187918691610fc5610f98565b503d611132565b86513d85823e3d90fd5b61116c906115e4565b61013157815f610f65565b61118d90873d891161051757610508818361160c565b505f610f1d565b845162461bcd60e51b8152808801879052602960248201527f496e73756666696369656e7420746f6b656e2062616c616e636520666f72207260448201526832b830bcb6b2b73a1760b91b6064820152608490fd5b90508781813d831161120f575b611200818361160c565b8101031261055057515f610ec8565b503d6111f6565b87513d8c823e3d90fd5b845162461bcd60e51b8152808801879052602b60248201527f496e73756666696369656e7420746f6b656e20616c6c6f77616e636520666f7260448201526a103932b830bcb6b2b73a1760a91b6064820152608490fd5b809250888092503d83116112a1575b611290818361160c565b81010312610550578490515f610e98565b503d611286565b86513d8b823e3d90fd5b634e487b7160e01b865260118552602486fd5b5162461bcd60e51b8152602081840152602e60248201527f4c6f616e206d7573742062652061637469766520746f2070726f63656564207760448201526d34ba34103932b830bcb6b2b73a1760911b6064820152608490fd5b634e487b7160e01b855260218452602485fd5b5162461bcd60e51b8152602081840152602960248201527f4f6e6c792074686520626f72726f7765722063616e20696e697469617465207260448201526832b830bcb6b2b73a1760b91b6064820152608490fd5b838334610131578160031936011261013157825460ff8160a01c1660068110156114985760026113b59114611646565b6113c4600f54600b5490611687565b4210156113cf578280f35b60ff60a01b1916600360a01b1783556113e66116a8565b6003546005546001600160a01b039490851691851690813b156109f657835163389e006760e11b8152309181019182526001600160a01b0390931660208201529192918491849182908490829060400103925af190811561148f5750611480575b5090611451611807565b600e54167ff4e5cf42cbb1d0c6c91e16d925349feb6c5d970652f6ec77b1ff1262f7284cd55f80a28082808280f35b611489906115e4565b82611447565b513d84823e3d90fd5b634e487b7160e01b845260218552602484fd5b5050346101315781600319360112610131576020906010549051908152f35b505034610131578160031936011261013157600e5490516001600160a01b039091168152602090f35b50503461013157816003193601126101315760015490516001600160a01b039091168152602090f35b9050346104ed57826003193601126104ed575490516001600160a01b03909116815260209150f35b8490346101315781600319360112610131576007546001600160a01b03168152602090f35b91906020830192600682101561157c5752565b634e487b7160e01b5f52602160045260245ffd5b60025f541461159f5760025f55565b60405162461bcd60e51b815260206004820152601f60248201527f5265656e7472616e637947756172643a207265656e7472616e742063616c6c006044820152606490fd5b67ffffffffffffffff81116115f857604052565b634e487b7160e01b5f52604160045260245ffd5b90601f8019910116810190811067ffffffffffffffff8211176115f857604052565b90816020910312610550575180151581036105505790565b1561164d57565b60405162461bcd60e51b81526020600482015260126024820152714c6f616e206973206e6f742061637469766560701b6044820152606490fd5b9190820180921161169457565b634e487b7160e01b5f52601160045260245ffd5b600854600e54604080516370a0823160e01b81526001600160a01b0392831660048201819052602094919390918116908585602481855afa9485156117ce575f956117d8575b508351946363737ac960e11b865260048601528585602481855afa9485156117ce5790869392915f96611796575b506005548551635d043b2960e11b81526004810197909752166001600160a01b039081166024870152919091166044850152839060649082905f905af190811561178d5750611769575050565b813d8311611786575b61177c818361160c565b8101031261055057565b503d611772565b513d5f823e3d90fd5b9193828197929496973d83116117c7575b6117b1818361160c565b810103126101ad5750519392859290915f61171c565b503d6117a7565b84513d5f823e3d90fd5b90948682813d8311611800575b6117ef818361160c565b810103126101ad575051935f6116ee565b503d6117e5565b6004805460ff60a01b1916600560a01b1781556002545f916001600160a01b039182169190823b156104df576040918251858160248183637e72c7d760e01b998a835230898401525af1801561191257611920575b508060035416803b1561191c5785809160248651809481936338e270ed60e01b835230898401525af18015611912579086916118fe575b505081541692833b156109f65790602485928385519687948593845230908401525af190811561148f57506118ea575b50807f409fced1b85ae32a29fb1e18894d8361a5f2653dc27adf7102d86175c2901d7c91a1565b6118f482916115e4565b6101ad575f6118c3565b611907906115e4565b6109f657845f611893565b84513d88823e3d90fd5b8580fd5b61192c909591956115e4565b935f61185c565b600d54600954600a5460405163efdd7c0760e01b81526004810192909252602482015290602090829060449082906001600160a01b03165afa9081156119ab575f9161197d575090565b906020823d82116119a3575b816119966020938361160c565b810103126101ad57505190565b3d9150611989565b6040513d5f823e3d90fdfea2646970667358221220dc7cf4754864561675dd2404546384eb4669c21eeea1c402d55715af4ee83ee664736f6c6343000814003360c080604052346200036857620015af80380380916200002082856200036c565b833981019060608183031262000368578051916001600160a01b0383168303620003685760208281015190926001600160401b03918281116200036857836200006b918301620003ac565b9260408201518381116200036857620000859201620003ac565b825182811162000273576003918254916001958684811c941680156200035d575b8885101462000349578190601f94858111620002f6575b50889085831160011462000293575f9262000287575b50505f1982861b1c191690861b1783555b8051938411620002735760049586548681811c9116801562000268575b8282101462000255578381116200020d575b5080928511600114620001a357509383949184925f9562000197575b50501b925f19911b1c19161790555b620001498162000414565b90156200018e575b60a0526080526040516110d59081620004da823960805181818161050d01528181610ada01528181610c6b0152610e11015260a051816105520152f35b50601262000151565b015193505f806200012f565b92919084601f198116885f52855f20955f905b89838310620001f25750505010620001d8575b50505050811b0190556200013e565b01519060f8845f19921b161c191690555f808080620001c9565b858701518955909701969485019488935090810190620001b6565b875f52815f208480880160051c8201928489106200024b575b0160051c019087905b8281106200023f57505062000113565b5f81550187906200022f565b9250819262000226565b602288634e487b7160e01b5f525260245ffd5b90607f169062000101565b634e487b7160e01b5f52604160045260245ffd5b015190505f80620000d3565b90889350601f19831691875f528a5f20925f5b8c828210620002df5750508411620002c7575b505050811b018355620000e4565b01515f1983881b60f8161c191690555f8080620002b9565b8385015186558c97909501949384019301620002a6565b909150855f52885f208580850160051c8201928b86106200033f575b918a91869594930160051c01915b82811062000330575050620000bd565b5f81558594508a910162000320565b9250819262000312565b634e487b7160e01b5f52602260045260245ffd5b93607f1693620000a6565b5f80fd5b601f909101601f19168101906001600160401b038211908210176200027357604052565b6001600160401b0381116200027357601f01601f191660200190565b919080601f840112156200036857825190620003c88262000390565b91620003d860405193846200036c565b80835260209182828701011162000368575f5b818110620004005750825f9394955001015290565b8581018301518482018401528201620003eb565b6040805163313ce56760e01b60208201908152600482529293929181016001600160401b038111828210176200027357604052515f9384928392916001600160a01b03165afa3d15620004d0573d906200046e8262000390565b916200047e60405193846200036c565b82523d84602084013e5b80620004c3575b6200049a575b508190565b602081805181010312620004bf576020015160ff811162000495576001925060ff1690565b8280fd5b506020815110156200048f565b6060906200048856fe60406080815260049081361015610014575f80fd5b5f90813560e01c92836301e1d114146107ac57836306fdde03146106b957836307a2d13a146104f4578363095ea7b3146106115783630a28a477146105f257836318160ddd146105d457836323b872dd14610598578363313ce5671461053c57836338d52e0f146104f9578363402d267d146101fc5783634cdad506146104f45783636e553f65146104c157836370a08231146104a157836394bf804d1461046a57836395d89b4114610367578363a9059cbb14610337578363b3d7f6b914610318578363b460af941461028c578363ba0876521461020157508263c63d75b6146101fc578263c6e6f59214610135578263ce96cb77146101c5578263d905777e14610185578263dd62ed3e1461013a57505063ef8b30f714610135575f80fd5b6108bf565b3461018157806003193601126101815780602092610156610839565b61015e61084f565b6001600160a01b0391821683526001865283832091168252845220549051908152f35b5080fd5b34610181576020366003190112610181576020906101be6101a4610839565b6001600160a01b03165f9081526020819052604090205490565b9051908152f35b34610181576020366003190112610181576020916101be9082906001600160a01b036101ef610839565b1681528085522054610be6565b610865565b82346102895782906102123661088a565b6001600160a01b038116845260208490529590922054909493908086116102545750508361024e91610245602096610be6565b94859133610d29565b51908152f35b9251632e52afbb60e21b81526001600160a01b0390941690840190815260208101949094525060408301529081906060010390fd5b80fd5b829034610181576102c19183916102a23661088a565b6001600160a01b03811685526020859052969093205490959490610be6565b8086116102e357505061024e90846102da602096610b4e565b94859233610d29565b9251633fa733bb60e21b81526001600160a01b0390941690840190815260208101949094525060408301529081906060010390fd5b913461028957602036600319011261028957506101be60209235610bbb565b5034610181578060031936011261018157602090610360610356610839565b6024359033610913565b5160018152f35b925034610181578160031936011261018157805191809380549160019083821c92828516948515610460575b602095868610811461044d5785895290811561042957506001146103d1575b6103cd87876103c3828c03836108dd565b51918291826107c8565b0390f35b81529295507f8a35acfbc15ff81a39ae7d344fd709f28e8600b4aa8c65c6b64bfe7fe36bd19b5b82841061041657505050826103cd946103c392820101945f806103b2565b80548685018801529286019281016103f8565b60ff19168887015250505050151560051b83010192506103c3826103cd5f806103b2565b634e487b7160e01b845260228352602484fd5b93607f1693610393565b3461049d578160031936011261049d5760209250359061024e61048b61084f565b9261049581610bbb565b809433610c11565b8280fd5b5034610181576020366003190112610181576020906101be6101a4610839565b3461049d578160031936011261049d5760209250359061024e6104e261084f565b6104eb84610b90565b93849133610c11565b61080f565b5034610181578160031936011261018157517f00000000000000000000000000000000000000000000000000000000000000006001600160a01b03168152602090f35b92503461018157816003193601126101815760ff7f0000000000000000000000000000000000000000000000000000000000000000169160ff8311610585576020838351908152f35b634e487b7160e01b815260118452602490fd5b5034610181576060366003190112610181576020906103606105b8610839565b6105c061084f565b604435916105cf8333836109ee565b610913565b50346101815781600319360112610181576020906002549051908152f35b913461028957602036600319011261028957506101be60209235610b4e565b3461049d578160031936011261049d57610629610839565b6024359033156106a2576001600160a01b031691821561068b57508083602095338152600187528181208582528752205582519081527f8c5be1e5ebec7d5bd14f71427d1e84f3dd0314c0f7b2291e5b200ac8c7c3b925843392a35160018152f35b8351634a1406b160e11b8152908101859052602490fd5b835163e602df0560e01b8152808401869052602490fd5b903461049d578260031936011261049d57805191836003549060019082821c9282811680156107a2575b602095868610821461078f575084885290811561076d5750600114610714575b6103cd86866103c3828b03836108dd565b929550600383527fc2575a0e9e593c00f959f8c92f12db2869c3395a3b0502d05e2516446f71f85b5b82841061075a57505050826103cd946103c3928201019486610703565b805486850188015292860192810161073d565b60ff191687860152505050151560051b83010192506103c3826103cd86610703565b634e487b7160e01b845260229052602483fd5b93607f16936106e3565b50346101815781600319360112610181576020906101be610abf565b602080825282518183018190529093925f5b8281106107fb57505060409293505f838284010152601f8019910116010190565b8181018601518482016040015285016107da565b3461083557602036600319011261083557602061082d600435610be6565b604051908152f35b5f80fd5b600435906001600160a01b038216820361083557565b602435906001600160a01b038216820361083557565b346108355760203660031901126108355761087e610839565b5060206040515f198152f35b606090600319011261083557600435906001600160a01b03906024358281168103610835579160443590811681036108355790565b3461083557602036600319011261083557602061082d600435610b90565b90601f8019910116810190811067ffffffffffffffff8211176108ff57604052565b634e487b7160e01b5f52604160045260245ffd5b916001600160a01b038084169283156109d657169283156109be575f908382528160205260408220549083821061098c575091604082827fddf252ad1be2c89b69c2b068fc378daa952ba7f163c4a11628f55a4df523b3ef958760209652828652038282205586815220818154019055604051908152a3565b60405163391434e360e21b81526001600160a01b03919091166004820152602481019190915260448101839052606490fd5b60405163ec442f0560e01b81525f6004820152602490fd5b604051634b637e8f60e11b81525f6004820152602490fd5b9160018060a01b03809316915f9383855260016020526040938486209183169182875260205284862054925f198403610a2b575b50505050505050565b848410610a8f57508015610a77578115610a5f5785526001602052838520908552602052039120555f808080808080610a22565b8451634a1406b160e11b815260048101879052602490fd5b845163e602df0560e01b815260048101879052602490fd5b8551637dc7a0d960e11b81526001600160a01b039190911660048201526024810184905260448101859052606490fd5b6040516370a0823160e01b81523060048201526020816024817f00000000000000000000000000000000000000000000000000000000000000006001600160a01b03165afa908115610b43575f91610b15575090565b906020823d8211610b3b575b81610b2e602093836108dd565b8101031261028957505190565b3d9150610b21565b6040513d5f823e3d90fd5b60025460018101809111610b7c57610b64610abf565b9060018201809211610b7c57610b7992610fce565b90565b634e487b7160e01b5f52601160045260245ffd5b60025460018101809111610b7c57610ba6610abf565b9060018201809211610b7c57610b799261100c565b610bc3610abf565b60018101809111610b7c576002549060018201809211610b7c57610b7992610fce565b610bee610abf565b60018101809111610b7c576002549060018201809211610b7c57610b799261100c565b604080516323b872dd60e01b60208201526001600160a01b0392831660248201819052306044830152606480830187905282529495939192919060a081019067ffffffffffffffff8211818310176108ff57610c8f9185527f0000000000000000000000000000000000000000000000000000000000000000610e98565b16938415610d125760025492808401809411610b7c577fdcbc1c05240f31ff3ad067ef1ee35ce4997762752e3a095284754544f4c709d793600255855f525f602052825f20818154019055855f7fddf252ad1be2c89b69c2b068fc378daa952ba7f163c4a11628f55a4df523b3ef60208651858152a382519182526020820152a3565b815163ec442f0560e01b81525f6004820152602490fd5b6001600160a01b038084169590948583169493909282888703610e87575b505086156109d6575f95878752866020526040948588205490848210610e5657508390898952886020520385882055826002540360025586887fddf252ad1be2c89b69c2b068fc378daa952ba7f163c4a11628f55a4df523b3ef60208851878152a384519163a9059cbb60e01b6020840152169586602483015283604483015260448252608082019082821067ffffffffffffffff831117610e42575084939291610e35917ffbde797d201c681b91056529119e0b02407c7bb96a4a2c75c01fc9667232c8db96527f0000000000000000000000000000000000000000000000000000000000000000610e98565b82519182526020820152a4565b634e487b7160e01b81526041600452602490fd5b865163391434e360e21b81526001600160a01b03919091166004820152602481019190915260448101849052606490fd5b610e9191866109ee565b5f82610d47565b60018060a01b0316905f80826020829451910182865af13d15610f5f573d9067ffffffffffffffff8211610f4b5790610ef39160405191610ee36020601f19601f84011601846108dd565b82523d84602084013e5b84610f6b565b908151918215159283610f23575b505050610f0b5750565b60249060405190635274afe760e01b82526004820152fd5b81929350906020918101031261018157602001519081159182150361028957505f8080610f01565b634e487b7160e01b83526041600452602483fd5b610ef390606090610eed565b90610f925750805115610f8057805190602001fd5b604051630a12f52160e11b8152600490fd5b81511580610fc5575b610fa3575090565b604051639996b31560e01b81526001600160a01b039091166004820152602490fd5b50803b15610f9b565b9190610fdb82828561100c565b928215610ff85709610fea5790565b60018101809111610b7c5790565b634e487b7160e01b5f52601260045260245ffd5b9091828202915f1984820993838086109503948086039514611091578483111561107f57829109815f038216809204600280826003021880830282030280830282030280830282030280830282030280830282030280920290030293600183805f03040190848311900302920304170290565b60405163227bc15360e01b8152600490fd5b505080925015610ff857049056fea26469706673582212200cdcf8cea3aebeb77295123987aa077467951540b1679c1067c1e2e4e6aa0e8a64736f6c63430008140033a26469706673582212208c33faee1547333d7aed93ce32b51d41d9d835153196f3c1b85bf4e91d6bf45064736f6c63430008140033",
			"opcodes": "PUSH1 0x80 CALLVALUE PUSH2 0x222 JUMPI PUSH1 0x1F PUSH2 0x4983 CODESIZE DUP2 SWAP1 SUB SWAP2 DUP3 ADD PUSH1 0x1F NOT AND DUP4 ADD SWAP3 SWAP2 SWAP1 PUSH1 0x1 PUSH1 0x1 PUSH1 0x40 SHL SUB DUP5 GT DUP4 DUP6 LT OR PUSH2 0x226 JUMPI DUP2 PUSH1 0x80 SWAP3 DUP5 SWAP3 PUSH1 0x40 SWAP7 DUP8 MSTORE DUP4 CODECOPY DUP2 ADD SUB SLT PUSH2 0x222 JUMPI PUSH2 0x4B DUP2 PUSH2 0x23A JUMP JUMPDEST PUSH2 0x57 PUSH1 0x20 DUP4 ADD PUSH2 0x23A JUMP JUMPDEST SWAP1 PUSH2 0x6F PUSH1 0x60 PUSH2 0x68 DUP7 DUP7 ADD PUSH2 0x23A JUMP JUMPDEST SWAP5 ADD PUSH2 0x23A JUMP JUMPDEST PUSH1 0x1 PUSH1 0x1 PUSH1 0xA0 SHL SUB SWAP2 DUP3 AND SWAP3 SWAP1 SWAP2 SWAP1 DUP4 ISZERO PUSH2 0x1CD JUMPI DUP2 AND SWAP4 DUP5 ISZERO PUSH2 0x17E JUMPI DUP2 AND SWAP2 DUP3 ISZERO PUSH2 0x129 JUMPI AND SWAP3 DUP4 ISZERO PUSH2 0xD5 JUMPI PUSH1 0x1 DUP1 PUSH1 0xA0 SHL SUB NOT SWAP3 DUP4 PUSH0 SLOAD AND OR PUSH0 SSTORE DUP3 PUSH1 0x1 SLOAD AND OR PUSH1 0x1 SSTORE DUP2 PUSH1 0x2 SLOAD AND OR PUSH1 0x2 SSTORE PUSH1 0x3 SLOAD AND OR PUSH1 0x3 SSTORE MLOAD PUSH2 0x4734 SWAP1 DUP2 PUSH2 0x24F DUP3 CODECOPY RETURN JUMPDEST DUP5 MLOAD PUSH3 0x461BCD PUSH1 0xE5 SHL DUP2 MSTORE PUSH1 0x20 PUSH1 0x4 DUP3 ADD MSTORE PUSH1 0x27 PUSH1 0x24 DUP3 ADD MSTORE PUSH32 0x5661756C744D616E616765722063616E6E6F7420626520746865207A65726F20 PUSH1 0x44 DUP3 ADD MSTORE PUSH7 0x61646472657373 PUSH1 0xC8 SHL PUSH1 0x64 DUP3 ADD MSTORE PUSH1 0x84 SWAP1 REVERT JUMPDEST DUP6 MLOAD PUSH3 0x461BCD PUSH1 0xE5 SHL DUP2 MSTORE PUSH1 0x20 PUSH1 0x4 DUP3 ADD MSTORE PUSH1 0x28 PUSH1 0x24 DUP3 ADD MSTORE PUSH32 0x5265776172644D616E616765722063616E6E6F7420626520746865207A65726F PUSH1 0x44 DUP3 ADD MSTORE PUSH8 0x2061646472657373 PUSH1 0xC0 SHL PUSH1 0x64 DUP3 ADD MSTORE PUSH1 0x84 SWAP1 REVERT JUMPDEST DUP6 MLOAD PUSH3 0x461BCD PUSH1 0xE5 SHL DUP2 MSTORE PUSH1 0x20 PUSH1 0x4 DUP3 ADD MSTORE PUSH1 0x22 PUSH1 0x24 DUP3 ADD MSTORE PUSH32 0x5065726D6974322063616E6E6F7420626520746865207A65726F206164647265 PUSH1 0x44 DUP3 ADD MSTORE PUSH2 0x7373 PUSH1 0xF0 SHL PUSH1 0x64 DUP3 ADD MSTORE PUSH1 0x84 SWAP1 REVERT JUMPDEST DUP6 MLOAD PUSH3 0x461BCD PUSH1 0xE5 SHL DUP2 MSTORE PUSH1 0x20 PUSH1 0x4 DUP3 ADD MSTORE PUSH1 0x28 PUSH1 0x24 DUP3 ADD MSTORE PUSH32 0x506F6F6C4F7267616E697A65722063616E6E6F7420626520746865207A65726F PUSH1 0x44 DUP3 ADD MSTORE PUSH8 0x2061646472657373 PUSH1 0xC0 SHL PUSH1 0x64 DUP3 ADD MSTORE PUSH1 0x84 SWAP1 REVERT JUMPDEST PUSH0 DUP1 REVERT JUMPDEST PUSH4 0x4E487B71 PUSH1 0xE0 SHL PUSH0 MSTORE PUSH1 0x41 PUSH1 0x4 MSTORE PUSH1 0x24 PUSH0 REVERT JUMPDEST MLOAD SWAP1 PUSH1 0x1 PUSH1 0x1 PUSH1 0xA0 SHL SUB DUP3 AND DUP3 SUB PUSH2 0x222 JUMPI JUMP INVALID PUSH1 0xA0 PUSH1 0x40 DUP2 DUP2 MSTORE PUSH1 0x4 CALLDATASIZE LT ISZERO PUSH3 0x14 JUMPI PUSH0 DUP1 REVERT JUMPDEST PUSH0 SWAP2 DUP3 CALLDATALOAD PUSH1 0xE0 SHR SWAP1 DUP2 PUSH4 0xF4EF8A6 EQ PUSH3 0x1D9 JUMPI POP DUP1 PUSH4 0x12261EE7 EQ PUSH3 0x1AF JUMPI DUP1 PUSH4 0x8A4ADF24 EQ PUSH3 0x185 JUMPI DUP1 PUSH4 0x8C41FD09 EQ PUSH3 0xD2 JUMPI DUP1 PUSH4 0xA622EE7C EQ PUSH3 0x94 JUMPI PUSH4 0xC51B9507 EQ PUSH3 0x68 JUMPI PUSH0 DUP1 REVERT JUMPDEST CALLVALUE PUSH3 0x90 JUMPI DUP2 PUSH1 0x3 NOT CALLDATASIZE ADD SLT PUSH3 0x90 JUMPI SWAP1 SLOAD SWAP1 MLOAD PUSH1 0x1 PUSH1 0x1 PUSH1 0xA0 SHL SUB SWAP1 SWAP2 AND DUP2 MSTORE PUSH1 0x20 SWAP1 RETURN JUMPDEST POP DUP1 REVERT JUMPDEST POP CALLVALUE PUSH3 0x90 JUMPI PUSH1 0x20 CALLDATASIZE PUSH1 0x3 NOT ADD SLT PUSH3 0x90 JUMPI PUSH1 0x20 SWAP2 PUSH1 0x1 PUSH1 0x1 PUSH1 0xA0 SHL SUB SWAP1 DUP3 SWAP1 DUP3 PUSH3 0xC1 PUSH3 0x200 JUMP JUMPDEST AND DUP2 MSTORE PUSH1 0x4 DUP6 MSTORE KECCAK256 SLOAD AND SWAP1 MLOAD SWAP1 DUP2 MSTORE RETURN JUMPDEST POP CALLVALUE PUSH3 0x90 JUMPI PUSH2 0x140 CALLDATASIZE PUSH1 0x3 NOT ADD SLT PUSH3 0x90 JUMPI PUSH3 0xF1 PUSH3 0x200 JUMP JUMPDEST PUSH1 0x1 PUSH1 0x1 PUSH1 0xA0 SHL SUB SWAP1 PUSH1 0x24 CALLDATALOAD SWAP1 DUP3 DUP3 AND DUP3 SUB PUSH3 0x181 JUMPI PUSH1 0x44 CALLDATALOAD SWAP2 DUP4 DUP4 AND DUP4 SUB PUSH3 0x17D JUMPI PUSH1 0x64 CALLDATALOAD SWAP3 DUP5 DUP5 AND DUP5 SUB PUSH3 0x179 JUMPI PUSH1 0xE4 CALLDATALOAD SWAP2 DUP6 DUP4 AND DUP4 SUB PUSH3 0x175 JUMPI PUSH2 0x104 CALLDATALOAD SWAP4 PUSH1 0x2 DUP6 LT ISZERO PUSH3 0x171 JUMPI PUSH3 0x160 SWAP7 SWAP8 SWAP9 POP PUSH2 0x124 CALLDATALOAD SWAP6 PUSH1 0xC4 CALLDATALOAD SWAP4 PUSH1 0xA4 CALLDATALOAD SWAP4 PUSH1 0x84 CALLDATALOAD SWAP4 PUSH3 0x348 JUMP JUMPDEST DUP4 MLOAD SWAP2 DUP4 AND DUP3 MSTORE SWAP1 SWAP2 AND PUSH1 0x20 DUP3 ADD MSTORE RETURN JUMPDEST DUP9 DUP1 REVERT JUMPDEST DUP8 DUP1 REVERT JUMPDEST DUP7 DUP1 REVERT JUMPDEST DUP6 DUP1 REVERT JUMPDEST DUP5 DUP1 REVERT JUMPDEST POP CALLVALUE PUSH3 0x90 JUMPI DUP2 PUSH1 0x3 NOT CALLDATASIZE ADD SLT PUSH3 0x90 JUMPI PUSH1 0x3 SLOAD SWAP1 MLOAD PUSH1 0x1 PUSH1 0x1 PUSH1 0xA0 SHL SUB SWAP1 SWAP2 AND DUP2 MSTORE PUSH1 0x20 SWAP1 RETURN JUMPDEST POP CALLVALUE PUSH3 0x90 JUMPI DUP2 PUSH1 0x3 NOT CALLDATASIZE ADD SLT PUSH3 0x90 JUMPI PUSH1 0x1 SLOAD SWAP1 MLOAD PUSH1 0x1 PUSH1 0x1 PUSH1 0xA0 SHL SUB SWAP1 SWAP2 AND DUP2 MSTORE PUSH1 0x20 SWAP1 RETURN JUMPDEST DUP4 SWAP1 CALLVALUE PUSH3 0x90 JUMPI DUP2 PUSH1 0x3 NOT CALLDATASIZE ADD SLT PUSH3 0x90 JUMPI PUSH1 0x2 SLOAD PUSH1 0x1 PUSH1 0x1 PUSH1 0xA0 SHL SUB AND DUP2 MSTORE PUSH1 0x20 SWAP1 RETURN JUMPDEST PUSH1 0x4 CALLDATALOAD SWAP1 PUSH1 0x1 PUSH1 0x1 PUSH1 0xA0 SHL SUB DUP3 AND DUP3 SUB PUSH3 0x217 JUMPI JUMP JUMPDEST PUSH0 DUP1 REVERT JUMPDEST PUSH8 0xFFFFFFFFFFFFFFFF DUP2 GT PUSH3 0x230 JUMPI PUSH1 0x40 MSTORE JUMP JUMPDEST PUSH4 0x4E487B71 PUSH1 0xE0 SHL PUSH0 MSTORE PUSH1 0x41 PUSH1 0x4 MSTORE PUSH1 0x24 PUSH0 REVERT JUMPDEST SWAP1 PUSH1 0x1F DUP1 NOT SWAP2 ADD AND DUP2 ADD SWAP1 DUP2 LT PUSH8 0xFFFFFFFFFFFFFFFF DUP3 GT OR PUSH3 0x230 JUMPI PUSH1 0x40 MSTORE JUMP JUMPDEST PUSH0 JUMPDEST DUP4 DUP2 LT PUSH3 0x279 JUMPI POP POP PUSH0 SWAP2 ADD MSTORE JUMP JUMPDEST DUP2 DUP2 ADD MLOAD DUP4 DUP3 ADD MSTORE PUSH1 0x20 ADD PUSH3 0x269 JUMP JUMPDEST PUSH1 0x20 DUP2 DUP4 SUB SLT PUSH3 0x217 JUMPI DUP1 MLOAD PUSH8 0xFFFFFFFFFFFFFFFF SWAP2 DUP3 DUP3 GT PUSH3 0x217 JUMPI ADD SWAP1 DUP3 PUSH1 0x1F DUP4 ADD SLT ISZERO PUSH3 0x217 JUMPI DUP2 MLOAD SWAP1 DUP2 GT PUSH3 0x230 JUMPI PUSH1 0x40 MLOAD SWAP3 PUSH3 0x2DB PUSH1 0x1F DUP4 ADD PUSH1 0x1F NOT AND PUSH1 0x20 ADD DUP6 PUSH3 0x244 JUMP JUMPDEST DUP2 DUP5 MSTORE PUSH1 0x20 DUP3 DUP5 ADD ADD GT PUSH3 0x217 JUMPI PUSH3 0x2FC SWAP2 PUSH1 0x20 DUP1 DUP6 ADD SWAP2 ADD PUSH3 0x267 JUMP JUMPDEST SWAP1 JUMP JUMPDEST SWAP1 PUSH1 0x20 SWAP2 PUSH3 0x31A DUP2 MLOAD DUP1 SWAP3 DUP2 DUP6 MSTORE DUP6 DUP1 DUP7 ADD SWAP2 ADD PUSH3 0x267 JUMP JUMPDEST PUSH1 0x1F ADD PUSH1 0x1F NOT AND ADD ADD SWAP1 JUMP JUMPDEST SWAP1 PUSH1 0x2 DUP3 LT ISZERO PUSH3 0x334 JUMPI MSTORE JUMP JUMPDEST PUSH4 0x4E487B71 PUSH1 0xE0 SHL PUSH0 MSTORE PUSH1 0x21 PUSH1 0x4 MSTORE PUSH1 0x24 PUSH0 REVERT JUMPDEST SWAP8 SWAP10 SWAP9 SWAP3 SWAP8 SWAP7 PUSH0 SWAP7 SWAP2 SWAP6 SWAP3 SWAP5 SWAP2 SWAP4 PUSH1 0x1 PUSH1 0x1 PUSH1 0xA0 SHL SUB DUP10 AND ISZERO ISZERO DUP1 PUSH3 0xAB3 JUMPI JUMPDEST ISZERO PUSH3 0xA7A JUMPI PUSH1 0x40 MLOAD PUSH4 0x95D89B41 PUSH1 0xE0 SHL DUP2 MSTORE DUP9 DUP2 PUSH1 0x4 DUP2 PUSH1 0x1 PUSH1 0x1 PUSH1 0xA0 SHL SUB DUP12 AND GAS STATICCALL SWAP1 DUP2 ISZERO PUSH3 0x931 JUMPI DUP10 SWAP2 PUSH3 0xA5C JUMPI JUMPDEST POP PUSH3 0x3DA PUSH1 0x22 PUSH1 0x40 MLOAD DUP1 SWAP4 PUSH2 0x2A2B PUSH1 0xF1 SHL PUSH1 0x20 DUP4 ADD MSTORE PUSH3 0x3C9 DUP2 MLOAD DUP1 SWAP3 PUSH1 0x20 DUP7 DUP7 ADD SWAP2 ADD PUSH3 0x267 JUMP JUMPDEST DUP2 ADD SUB PUSH1 0x2 DUP2 ADD DUP5 MSTORE ADD DUP3 PUSH3 0x244 JUMP JUMPDEST PUSH1 0x40 MLOAD PUSH4 0x95D89B41 PUSH1 0xE0 SHL DUP2 MSTORE SWAP1 DUP10 DUP3 PUSH1 0x4 DUP2 PUSH1 0x1 PUSH1 0x1 PUSH1 0xA0 SHL SUB DUP13 AND GAS STATICCALL SWAP2 DUP3 ISZERO PUSH3 0x922 JUMPI DUP15 SWAP1 DUP12 SWAP4 PUSH3 0xA2F JUMPI JUMPDEST POP PUSH1 0x2 SWAP1 PUSH3 0x453 PUSH1 0x2A PUSH1 0x40 MLOAD DUP1 SWAP7 PUSH10 0x151D5B1A5855985D5B1D PUSH1 0xB2 SHL PUSH1 0x20 DUP4 ADD MSTORE PUSH3 0x442 DUP2 MLOAD DUP1 SWAP3 PUSH1 0x20 DUP7 DUP7 ADD SWAP2 ADD PUSH3 0x267 JUMP JUMPDEST DUP2 ADD SUB PUSH1 0xA DUP2 ADD DUP8 MSTORE ADD DUP6 PUSH3 0x244 JUMP JUMPDEST DUP12 PUSH1 0x80 MSTORE LT ISZERO PUSH3 0xA1B JUMPI DUP14 ISZERO PUSH3 0x93C JUMPI JUMPDEST POP POP DUP12 PUSH3 0x6DA JUMPI POP PUSH1 0x1 SLOAD DUP8 SLOAD PUSH1 0x3 SLOAD PUSH1 0x2 SLOAD PUSH1 0x40 MLOAD SWAP5 PUSH1 0x1 PUSH1 0x1 PUSH1 0xA0 SHL SUB SWAP2 DUP3 AND SWAP5 SWAP3 DUP3 AND SWAP4 DUP3 AND SWAP3 SWAP1 SWAP2 AND SWAP1 PUSH8 0xFFFFFFFFFFFFFFFF PUSH2 0x1DD8 DUP8 ADD SWAP1 DUP2 GT SWAP1 DUP8 GT OR PUSH3 0x6C6 JUMPI PUSH2 0x1DD8 PUSH3 0x1378 DUP8 CODECOPY PUSH1 0x1 PUSH1 0x1 PUSH1 0xA0 SHL SUB DUP14 DUP2 AND PUSH2 0x1DD8 DUP9 ADD SWAP1 DUP2 MSTORE DUP13 DUP3 AND PUSH1 0x20 DUP3 ADD MSTORE DUP16 DUP3 AND PUSH1 0x40 DUP3 ADD MSTORE PUSH1 0x80 DUP1 MLOAD DUP4 AND PUSH1 0x60 DUP4 ADD MSTORE DUP2 ADD DUP10 SWAP1 MSTORE PUSH1 0xA0 DUP2 ADD DUP11 SWAP1 MSTORE PUSH1 0xC0 DUP2 ADD DUP12 SWAP1 MSTORE SWAP2 AND PUSH1 0xE0 DUP3 ADD MSTORE PUSH2 0x100 DUP2 ADD SWAP2 SWAP1 SWAP2 MSTORE PUSH2 0x120 DUP2 ADD SWAP2 SWAP1 SWAP2 MSTORE PUSH2 0x140 DUP2 ADD SWAP2 SWAP1 SWAP2 MSTORE PUSH2 0x160 DUP2 ADD SWAP2 SWAP1 SWAP2 MSTORE DUP2 SWAP1 SUB PUSH2 0x180 ADD SWAP1 DUP8 CREATE SWAP8 DUP9 ISZERO PUSH3 0x6BB JUMPI DUP7 SLOAD PUSH1 0x1 PUSH1 0x1 PUSH1 0xA0 SHL SUB AND SWAP5 DUP6 EXTCODESIZE ISZERO PUSH3 0x175 JUMPI PUSH1 0x40 MLOAD PUSH4 0x21BAB01 PUSH1 0xE5 SHL DUP2 MSTORE PUSH1 0x1 PUSH1 0x1 PUSH1 0xA0 SHL SUB DUP1 DUP13 AND PUSH1 0x4 DUP4 ADD MSTORE DUP1 DUP12 AND PUSH1 0x24 DUP4 ADD MSTORE PUSH1 0x44 DUP3 ADD DUP11 SWAP1 MSTORE PUSH1 0x80 MLOAD DUP2 AND PUSH1 0x64 DUP4 ADD MSTORE SWAP8 DUP9 AND PUSH1 0x84 DUP3 ADD MSTORE SWAP1 DUP8 AND PUSH1 0xA4 DUP3 ADD MSTORE SWAP6 AND PUSH1 0xC4 DUP7 ADD MSTORE PUSH1 0xE4 DUP6 ADD MSTORE PUSH2 0x104 DUP5 ADD MSTORE PUSH2 0x124 DUP4 ADD MSTORE DUP3 SWAP1 DUP3 SWAP1 PUSH2 0x164 SWAP1 DUP3 SWAP1 DUP5 SWAP1 PUSH3 0x5C4 PUSH2 0x144 DUP5 ADD DUP14 PUSH3 0x326 JUMP JUMPDEST GAS CALL DUP1 ISZERO PUSH3 0x698 JUMPI SWAP1 DUP3 SWAP2 PUSH3 0x6A3 JUMPI JUMPDEST POP POP DUP1 SLOAD PUSH1 0x1 PUSH1 0x1 PUSH1 0xA0 SHL SUB AND DUP1 EXTCODESIZE ISZERO PUSH3 0x90 JUMPI PUSH1 0x40 MLOAD PUSH4 0x5D102DF7 PUSH1 0xE0 SHL DUP2 MSTORE PUSH1 0x1 PUSH1 0x1 PUSH1 0xA0 SHL SUB DUP6 AND PUSH1 0x4 DUP3 ADD MSTORE SWAP1 DUP3 SWAP1 DUP3 SWAP1 PUSH1 0x24 SWAP1 DUP3 SWAP1 DUP5 SWAP1 GAS CALL DUP1 ISZERO PUSH3 0x698 JUMPI PUSH3 0x67D JUMPI JUMPDEST POP POP PUSH3 0x633 PUSH1 0x40 MLOAD DUP1 SWAP6 PUSH3 0x326 JUMP JUMPDEST PUSH1 0x80 MLOAD PUSH1 0x1 PUSH1 0x1 PUSH1 0xA0 SHL SUB SWAP1 DUP2 AND SWAP5 DUP6 SWAP3 DUP3 AND SWAP2 DUP5 AND SWAP1 PUSH32 0x645EE41665486BC487A04A91A2BD296D2D2395CABF7747B152436DD15F9D4F8F SWAP1 PUSH1 0x20 SWAP1 LOG4 PUSH1 0x1 PUSH1 0x1 PUSH1 0xA0 SHL SUB AND SWAP2 SWAP1 JUMP JUMPDEST PUSH3 0x689 DUP3 SWAP2 PUSH3 0x21B JUMP JUMPDEST PUSH3 0x695 JUMPI DUP1 PUSH3 0x622 JUMP JUMPDEST DUP1 REVERT JUMPDEST PUSH1 0x40 MLOAD RETURNDATASIZE DUP5 DUP3 RETURNDATACOPY RETURNDATASIZE SWAP1 REVERT JUMPDEST PUSH3 0x6AE SWAP1 PUSH3 0x21B JUMP JUMPDEST PUSH3 0x695 JUMPI DUP1 PUSH0 PUSH3 0x5D6 JUMP JUMPDEST PUSH1 0x40 MLOAD RETURNDATASIZE DUP9 DUP3 RETURNDATACOPY RETURNDATASIZE SWAP1 REVERT JUMPDEST PUSH4 0x4E487B71 PUSH1 0xE0 SHL DUP13 MSTORE PUSH1 0x41 PUSH1 0x4 MSTORE PUSH1 0x24 DUP13 REVERT JUMPDEST SWAP11 DUP1 SWAP8 SWAP11 SWAP10 SWAP9 SWAP6 SWAP7 SWAP4 SWAP3 SWAP5 POP PUSH1 0x1 SWAP2 POP EQ PUSH3 0x72D JUMPI PUSH1 0x40 MLOAD PUSH3 0x461BCD PUSH1 0xE5 SHL DUP2 MSTORE PUSH1 0x20 PUSH1 0x4 DUP3 ADD MSTORE PUSH1 0x15 PUSH1 0x24 DUP3 ADD MSTORE PUSH21 0x556E737570706F7274656420706F6F6C2074797065 PUSH1 0x58 SHL PUSH1 0x44 DUP3 ADD MSTORE PUSH1 0x64 SWAP1 REVERT JUMPDEST PUSH1 0x1 SLOAD PUSH1 0x40 MLOAD PUSH2 0x8B1 SWAP12 SWAP1 SWAP2 PUSH1 0x1 PUSH1 0x1 PUSH1 0xA0 SHL SUB AND PUSH8 0xFFFFFFFFFFFFFFFF DUP14 DUP5 ADD SWAP1 DUP2 GT SWAP1 DUP5 GT OR PUSH3 0x6C6 JUMPI DUP13 PUSH1 0x60 SWAP3 DUP5 SWAP3 DUP15 SWAP16 PUSH3 0xAC7 DUP6 CODECOPY PUSH1 0x1 PUSH1 0x1 PUSH1 0xA0 SHL SUB DUP9 AND SWAP3 DUP5 ADD SWAP3 DUP4 MSTORE PUSH1 0x20 DUP4 ADD MSTORE PUSH1 0x40 DUP3 ADD MSTORE SUB ADD SWAP1 DUP11 CREATE SWAP3 DUP4 ISZERO PUSH3 0x931 JUMPI PUSH1 0x2 SLOAD PUSH1 0x1 PUSH1 0x1 PUSH1 0xA0 SHL SUB AND DUP1 EXTCODESIZE ISZERO PUSH3 0x92D JUMPI PUSH1 0x40 MLOAD PUSH4 0x77FF76E7 PUSH1 0xE0 SHL DUP2 MSTORE ADDRESS PUSH1 0x4 DUP3 ADD MSTORE PUSH1 0x1 PUSH1 0x1 PUSH1 0xA0 SHL SUB DUP6 AND PUSH1 0x24 DUP3 ADD MSTORE PUSH1 0x1 PUSH1 0x44 DUP3 ADD MSTORE SWAP12 DUP12 SWAP2 DUP14 SWAP2 PUSH1 0x64 SWAP2 DUP4 SWAP2 SWAP1 GAS CALL DUP1 ISZERO PUSH3 0x922 JUMPI PUSH3 0x907 JUMPI JUMPDEST DUP10 SLOAD SWAP10 SWAP11 POP SWAP8 SWAP9 PUSH1 0x1 PUSH1 0x1 PUSH1 0xA0 SHL SUB SWAP4 DUP5 AND SWAP9 DUP12 SWAP9 SWAP5 SWAP1 SWAP2 AND SWAP4 DUP5 EXTCODESIZE ISZERO PUSH3 0x171 JUMPI PUSH1 0x40 MLOAD PUSH4 0x21BAB01 PUSH1 0xE5 SHL DUP2 MSTORE PUSH1 0x4 DUP2 ADD DUP12 SWAP1 MSTORE PUSH1 0x1 PUSH1 0x1 PUSH1 0xA0 SHL SUB DUP8 DUP2 AND PUSH1 0x24 DUP4 ADD MSTORE PUSH1 0x44 DUP3 ADD DUP12 SWAP1 MSTORE PUSH1 0x64 DUP3 ADD DUP12 SWAP1 MSTORE SWAP5 DUP6 AND PUSH1 0x84 DUP3 ADD MSTORE SWAP7 DUP5 AND PUSH1 0xA4 DUP9 ADD MSTORE SWAP1 SWAP3 AND PUSH1 0xC4 DUP7 ADD MSTORE PUSH1 0xE4 DUP6 ADD SWAP2 SWAP1 SWAP2 MSTORE PUSH2 0x104 DUP5 ADD MSTORE PUSH2 0x124 DUP4 ADD DUP6 SWAP1 MSTORE DUP5 SWAP1 DUP4 SWAP1 PUSH2 0x164 SWAP1 DUP3 SWAP1 DUP5 SWAP1 PUSH3 0x884 PUSH2 0x144 DUP5 ADD DUP11 PUSH3 0x326 JUMP JUMPDEST GAS CALL DUP1 ISZERO PUSH3 0x8FC JUMPI DUP6 SWAP3 DUP6 SWAP2 PUSH3 0x8DB JUMPI JUMPDEST POP POP PUSH1 0x20 PUSH32 0x645EE41665486BC487A04A91A2BD296D2D2395CABF7747B152436DD15F9D4F8F SWAP2 PUSH3 0x8CC PUSH1 0x40 MLOAD DUP1 SWAP7 PUSH3 0x326 JUMP JUMPDEST PUSH1 0x1 PUSH1 0x1 PUSH1 0xA0 SHL SUB AND SWAP4 LOG4 SWAP2 SWAP1 JUMP JUMPDEST PUSH3 0x8E9 SWAP2 SWAP3 SWAP4 POP PUSH3 0x21B JUMP JUMPDEST PUSH3 0x8F8 JUMPI DUP4 SWAP1 DUP4 PUSH0 PUSH3 0x897 JUMP JUMPDEST DUP3 DUP1 REVERT JUMPDEST PUSH1 0x40 MLOAD RETURNDATASIZE DUP7 DUP3 RETURNDATACOPY RETURNDATASIZE SWAP1 REVERT JUMPDEST SWAP7 SWAP8 SWAP9 SWAP1 SWAP10 PUSH3 0x917 SWAP1 PUSH3 0x21B JUMP JUMPDEST SWAP8 SWAP7 SWAP6 DUP10 SWAP1 PUSH3 0x7E6 JUMP JUMPDEST PUSH1 0x40 MLOAD RETURNDATASIZE DUP13 DUP3 RETURNDATACOPY RETURNDATASIZE SWAP1 REVERT JUMPDEST DUP11 DUP1 REVERT JUMPDEST PUSH1 0x40 MLOAD RETURNDATASIZE DUP12 DUP3 RETURNDATACOPY RETURNDATASIZE SWAP1 REVERT JUMPDEST PUSH1 0x40 MLOAD SWAP2 DUP3 PUSH2 0x15AF DUP2 ADD LT PUSH8 0xFFFFFFFFFFFFFFFF PUSH2 0x15AF DUP6 ADD GT OR PUSH3 0xA07 JUMPI DUP3 SWAP2 PUSH3 0x993 PUSH3 0x9AA SWAP3 PUSH2 0x15AF PUSH3 0x3150 DUP7 CODECOPY PUSH1 0x1 PUSH1 0x1 PUSH1 0xA0 SHL SUB DUP13 AND PUSH2 0x15AF DUP7 ADD SWAP1 DUP2 MSTORE PUSH1 0x60 PUSH1 0x20 DUP3 ADD DUP2 SWAP1 MSTORE ADD SWAP1 PUSH3 0x2FF JUMP JUMPDEST SWAP1 PUSH2 0x15AF DUP5 ADD DUP3 SUB PUSH1 0x40 PUSH2 0x15AF DUP7 ADD ADD MSTORE PUSH3 0x2FF JUMP JUMPDEST SUB SWAP1 DUP10 CREATE DUP1 ISZERO PUSH3 0x9FC JUMPI PUSH1 0x80 DUP2 SWAP1 MSTORE PUSH1 0x40 MLOAD PUSH1 0x1 PUSH1 0x1 PUSH1 0xA0 SHL SUB DUP9 DUP2 AND DUP3 MSTORE SWAP1 SWAP2 AND SWAP1 PUSH32 0x5D9C31FFA0FECFFD7CF379989A3C7AF252F0335E0D2A1320B55245912C781F53 SWAP1 PUSH1 0x20 SWAP1 LOG2 PUSH0 DUP1 PUSH3 0x466 JUMP JUMPDEST PUSH1 0x40 MLOAD RETURNDATASIZE DUP11 DUP3 RETURNDATACOPY RETURNDATASIZE SWAP1 REVERT JUMPDEST PUSH4 0x4E487B71 PUSH1 0xE0 SHL DUP12 MSTORE PUSH1 0x41 PUSH1 0x4 MSTORE PUSH1 0x24 DUP12 REVERT JUMPDEST PUSH4 0x4E487B71 PUSH1 0xE0 SHL DUP11 MSTORE PUSH1 0x21 PUSH1 0x4 MSTORE PUSH1 0x24 DUP11 REVERT JUMPDEST PUSH1 0x2 SWAP2 SWAP4 POP PUSH3 0xA54 SWAP1 DUP13 RETURNDATASIZE DUP1 SWAP2 DUP4 RETURNDATACOPY PUSH3 0xA4B DUP2 DUP4 PUSH3 0x244 JUMP JUMPDEST DUP2 ADD SWAP1 PUSH3 0x28A JUMP JUMPDEST SWAP3 SWAP1 PUSH3 0x40B JUMP JUMPDEST PUSH3 0xA73 SWAP2 POP RETURNDATASIZE DUP1 DUP12 DUP4 RETURNDATACOPY PUSH3 0xA4B DUP2 DUP4 PUSH3 0x244 JUMP JUMPDEST PUSH0 PUSH3 0x39D JUMP JUMPDEST PUSH1 0x40 MLOAD PUSH3 0x461BCD PUSH1 0xE5 SHL DUP2 MSTORE PUSH1 0x20 PUSH1 0x4 DUP3 ADD MSTORE PUSH1 0x11 PUSH1 0x24 DUP3 ADD MSTORE PUSH17 0x496E76616C696420616464726573736573 PUSH1 0x78 SHL PUSH1 0x44 DUP3 ADD MSTORE PUSH1 0x64 SWAP1 REVERT JUMPDEST POP PUSH1 0x1 PUSH1 0x1 PUSH1 0xA0 SHL SUB DUP8 AND ISZERO ISZERO PUSH3 0x369 JUMP INVALID PUSH1 0x80 CALLVALUE PUSH2 0x99 JUMPI PUSH1 0x1F PUSH2 0x8B1 CODESIZE DUP2 SWAP1 SUB SWAP2 DUP3 ADD PUSH1 0x1F NOT AND DUP4 ADD SWAP2 PUSH1 0x1 PUSH1 0x1 PUSH1 0x40 SHL SUB DUP4 GT DUP5 DUP5 LT OR PUSH2 0x9D JUMPI DUP1 DUP5 SWAP3 PUSH1 0x60 SWAP5 PUSH1 0x40 MSTORE DUP4 CODECOPY DUP2 ADD SUB SLT PUSH2 0x99 JUMPI DUP1 MLOAD PUSH1 0x1 PUSH1 0x1 PUSH1 0xA0 SHL SUB DUP1 DUP3 AND SWAP3 SWAP1 SWAP2 DUP4 SWAP1 SUB PUSH2 0x99 JUMPI PUSH1 0x20 DUP2 ADD MLOAD SWAP2 DUP3 AND DUP1 SWAP3 SUB PUSH2 0x99 JUMPI PUSH1 0x40 ADD MLOAD SWAP2 PUSH1 0x1 PUSH0 SSTORE PUSH1 0x1 DUP1 PUSH1 0xA0 SHL SUB NOT SWAP1 DUP2 PUSH1 0x2 SLOAD AND OR PUSH1 0x2 SSTORE PUSH1 0x3 SLOAD AND OR PUSH1 0x3 SSTORE PUSH1 0x4 SSTORE PUSH1 0x40 MLOAD PUSH2 0x7FF SWAP1 DUP2 PUSH2 0xB2 DUP3 CODECOPY RETURN JUMPDEST PUSH0 DUP1 REVERT JUMPDEST PUSH4 0x4E487B71 PUSH1 0xE0 SHL PUSH0 MSTORE PUSH1 0x41 PUSH1 0x4 MSTORE PUSH1 0x24 PUSH0 REVERT INVALID PUSH1 0x80 DUP1 PUSH1 0x40 MSTORE PUSH1 0x4 CALLDATASIZE LT ISZERO PUSH2 0x12 JUMPI PUSH0 DUP1 REVERT JUMPDEST PUSH0 SWAP1 DUP2 CALLDATALOAD PUSH1 0xE0 SHR SWAP1 DUP2 PUSH4 0xF4EF8A6 EQ PUSH2 0x6B6 JUMPI POP DUP1 PUSH4 0x12261EE7 EQ PUSH2 0x68D JUMPI DUP1 PUSH4 0x38D52E0F EQ PUSH2 0x664 JUMPI DUP1 PUSH4 0x5CFFE9DE EQ PUSH2 0x166 JUMPI DUP1 PUSH4 0x613255AB EQ PUSH2 0xBB JUMPI DUP1 PUSH4 0x8C9F305F EQ PUSH2 0x9D JUMPI PUSH4 0xD9D98CE4 EQ PUSH2 0x6B JUMPI PUSH0 DUP1 REVERT JUMPDEST CALLVALUE PUSH2 0x9A JUMPI PUSH1 0x40 CALLDATASIZE PUSH1 0x3 NOT ADD SLT PUSH2 0x9A JUMPI PUSH1 0x20 PUSH2 0x92 PUSH2 0x89 PUSH2 0x6DB JUMP JUMPDEST PUSH1 0x24 CALLDATALOAD SWAP1 PUSH2 0x767 JUMP JUMPDEST PUSH1 0x40 MLOAD SWAP1 DUP2 MSTORE RETURN JUMPDEST DUP1 REVERT JUMPDEST POP CALLVALUE PUSH2 0x9A JUMPI DUP1 PUSH1 0x3 NOT CALLDATASIZE ADD SLT PUSH2 0x9A JUMPI PUSH1 0x20 PUSH1 0x4 SLOAD PUSH1 0x40 MLOAD SWAP1 DUP2 MSTORE RETURN JUMPDEST POP CALLVALUE PUSH2 0x9A JUMPI PUSH1 0x20 SWAP1 DUP2 PUSH1 0x3 NOT CALLDATASIZE ADD SLT PUSH2 0x9A JUMPI PUSH2 0xD7 PUSH2 0x6DB JUMP JUMPDEST PUSH1 0x2 SLOAD PUSH1 0x1 PUSH1 0x1 PUSH1 0xA0 SHL SUB SWAP1 DUP2 AND SWAP2 DUP5 SWAP2 AND DUP3 SUB PUSH2 0x15F JUMPI PUSH1 0x40 MLOAD PUSH4 0x70A08231 PUSH1 0xE0 SHL DUP2 MSTORE ADDRESS PUSH1 0x4 DUP3 ADD MSTORE SWAP2 DUP3 SWAP1 PUSH1 0x24 SWAP1 DUP3 SWAP1 GAS STATICCALL SWAP2 DUP3 ISZERO PUSH2 0x153 JUMPI SWAP2 PUSH2 0x122 JUMPI JUMPDEST POP PUSH1 0x40 MLOAD SWAP1 DUP2 MSTORE RETURN JUMPDEST SWAP1 POP DUP2 DUP2 DUP2 RETURNDATASIZE DUP4 GT PUSH2 0x14C JUMPI JUMPDEST PUSH2 0x139 DUP2 DUP4 PUSH2 0x6F1 JUMP JUMPDEST DUP2 ADD SUB SLT PUSH2 0x148 JUMPI MLOAD PUSH0 PUSH2 0x119 JUMP JUMPDEST PUSH0 DUP1 REVERT JUMPDEST POP RETURNDATASIZE PUSH2 0x12F JUMP JUMPDEST PUSH1 0x40 MLOAD SWAP1 RETURNDATASIZE SWAP1 DUP3 RETURNDATACOPY RETURNDATASIZE SWAP1 REVERT JUMPDEST POP POP PUSH2 0x92 JUMP JUMPDEST POP CALLVALUE PUSH2 0x9A JUMPI PUSH1 0x80 CALLDATASIZE PUSH1 0x3 NOT ADD SLT PUSH2 0x9A JUMPI PUSH1 0x4 CALLDATALOAD PUSH1 0x1 PUSH1 0x1 PUSH1 0xA0 SHL SUB DUP2 AND DUP2 SUB PUSH2 0x60F JUMPI PUSH1 0x24 CALLDATALOAD PUSH1 0x1 PUSH1 0x1 PUSH1 0xA0 SHL SUB DUP2 AND DUP2 SUB PUSH2 0x660 JUMPI PUSH8 0xFFFFFFFFFFFFFFFF SWAP2 DUP3 PUSH1 0x64 CALLDATALOAD GT PUSH2 0x4C4 JUMPI CALLDATASIZE PUSH1 0x23 PUSH1 0x64 CALLDATALOAD ADD SLT ISZERO PUSH2 0x4C4 JUMPI DUP3 PUSH1 0x64 CALLDATALOAD PUSH1 0x4 ADD CALLDATALOAD GT PUSH2 0x4C4 JUMPI CALLDATASIZE PUSH1 0x24 PUSH1 0x64 CALLDATALOAD PUSH1 0x4 ADD CALLDATALOAD PUSH1 0x64 CALLDATALOAD ADD ADD GT PUSH2 0x4C4 JUMPI PUSH1 0x2 DUP5 SLOAD EQ PUSH2 0x61B JUMPI PUSH1 0x2 DUP1 DUP6 SSTORE SLOAD PUSH1 0x1 PUSH1 0x1 PUSH1 0xA0 SHL SUB SWAP1 DUP2 AND SWAP3 SWAP1 PUSH2 0x208 SWAP1 DUP3 AND DUP5 EQ PUSH2 0x727 JUMP JUMPDEST PUSH2 0x214 PUSH1 0x44 CALLDATALOAD DUP3 PUSH2 0x767 JUMP JUMPDEST SWAP1 DUP6 PUSH1 0x40 MLOAD SWAP5 PUSH4 0x70A08231 PUSH1 0xE0 SHL DUP7 MSTORE ADDRESS PUSH1 0x4 DUP8 ADD MSTORE PUSH1 0x20 DUP7 PUSH1 0x24 DUP2 DUP5 GAS STATICCALL SWAP6 DUP7 ISZERO PUSH2 0x446 JUMPI DUP3 SWAP7 PUSH2 0x5E2 JUMPI JUMPDEST POP PUSH1 0x40 MLOAD PUSH4 0xA9059CBB PUSH1 0xE0 SHL DUP2 MSTORE PUSH1 0x1 PUSH1 0x1 PUSH1 0xA0 SHL SUB DUP7 AND PUSH1 0x4 DUP3 ADD MSTORE PUSH1 0x44 DUP1 CALLDATALOAD PUSH1 0x24 DUP4 ADD MSTORE SWAP1 SWAP3 PUSH1 0x20 SWAP3 DUP5 SWAP3 SWAP2 DUP4 SWAP2 GAS CALL DUP1 ISZERO PUSH2 0x5D7 JUMPI PUSH2 0x5B8 JUMPI JUMPDEST POP PUSH1 0x40 MLOAD SWAP1 PUSH4 0x23E30C8B PUSH1 0xE0 SHL DUP3 MSTORE CALLER PUSH1 0x4 DUP4 ADD MSTORE PUSH1 0x1 DUP1 PUSH1 0xA0 SHL SUB AND PUSH1 0x24 DUP3 ADD MSTORE PUSH1 0x44 CALLDATALOAD PUSH1 0x44 DUP3 ADD MSTORE DUP2 PUSH1 0x64 DUP3 ADD MSTORE PUSH1 0xA0 PUSH1 0x84 DUP3 ADD MSTORE PUSH1 0x64 CALLDATALOAD PUSH1 0x4 ADD CALLDATALOAD PUSH1 0xA4 DUP3 ADD MSTORE PUSH1 0x64 CALLDATALOAD PUSH1 0x4 ADD CALLDATALOAD PUSH1 0x24 PUSH1 0x64 CALLDATALOAD ADD PUSH1 0xC4 DUP4 ADD CALLDATACOPY PUSH1 0xC4 PUSH1 0x64 CALLDATALOAD PUSH1 0x4 ADD CALLDATALOAD DUP3 DUP2 ADD DUP3 ADD DUP9 SWAP1 MSTORE PUSH1 0x20 SWAP2 DUP4 SWAP2 PUSH1 0x1F NOT PUSH1 0x1F SWAP1 SWAP2 ADD AND DUP3 ADD DUP3 SWAP1 SUB ADD DUP2 DUP10 PUSH1 0x1 PUSH1 0x1 PUSH1 0xA0 SHL SUB DUP9 AND GAS CALL DUP1 ISZERO PUSH2 0x5AD JUMPI DUP7 SWAP1 PUSH2 0x557 JUMPI JUMPDEST PUSH32 0x439148F0BBC682CA079E46D6E2C2F0C1E3B820F1A291B069D8882ABF8CF18DD9 SWAP2 POP SUB PUSH2 0x51E JUMPI PUSH1 0x44 CALLDATALOAD ADD DUP1 PUSH1 0x44 CALLDATALOAD GT PUSH2 0x50A JUMPI PUSH1 0x2 SLOAD PUSH1 0x40 MLOAD PUSH4 0x23B872DD PUSH1 0xE0 SHL DUP2 MSTORE PUSH1 0x1 PUSH1 0x1 PUSH1 0xA0 SHL SUB SWAP4 DUP5 AND PUSH1 0x4 DUP3 ADD MSTORE ADDRESS PUSH1 0x24 DUP3 ADD MSTORE PUSH1 0x44 DUP2 ADD SWAP3 SWAP1 SWAP3 MSTORE SWAP1 SWAP2 PUSH1 0x20 SWAP2 DUP4 SWAP2 PUSH1 0x64 SWAP2 DUP4 SWAP2 DUP10 SWAP2 AND GAS CALL DUP1 ISZERO PUSH2 0x4D0 JUMPI PUSH2 0x4DB JUMPI JUMPDEST POP PUSH1 0x2 SLOAD PUSH1 0x40 MLOAD PUSH4 0x70A08231 PUSH1 0xE0 SHL DUP2 MSTORE ADDRESS PUSH1 0x4 DUP3 ADD MSTORE SWAP1 PUSH1 0x20 SWAP1 DUP3 SWAP1 PUSH1 0x24 SWAP1 DUP3 SWAP1 PUSH1 0x1 PUSH1 0x1 PUSH1 0xA0 SHL SUB AND GAS STATICCALL SWAP1 DUP2 ISZERO PUSH2 0x4D0 JUMPI DUP5 SWAP2 PUSH2 0x49A JUMPI JUMPDEST POP LT PUSH2 0x455 JUMPI PUSH1 0x1 SLOAD DUP3 SWAP2 SWAP1 PUSH1 0x1 PUSH1 0x1 PUSH1 0xA0 SHL SUB AND DUP1 EXTCODESIZE ISZERO PUSH2 0x451 JUMPI DUP3 SWAP1 PUSH1 0x24 PUSH1 0x40 MLOAD DUP1 SWAP7 DUP2 SWAP4 PUSH4 0x7E72C7D7 PUSH1 0xE0 SHL DUP4 MSTORE ADDRESS PUSH1 0x4 DUP5 ADD MSTORE GAS CALL DUP1 ISZERO PUSH2 0x446 JUMPI PUSH2 0x420 JUMPI JUMPDEST PUSH1 0x1 DUP3 SSTORE PUSH1 0x20 PUSH1 0x40 MLOAD PUSH1 0x1 DUP2 MSTORE RETURN JUMPDEST DUP3 GT PUSH2 0x432 JUMPI PUSH1 0x1 SWAP2 PUSH1 0x40 MSTORE PUSH0 PUSH2 0x411 JUMP JUMPDEST PUSH4 0x4E487B71 PUSH1 0xE0 SHL DUP2 MSTORE PUSH1 0x41 PUSH1 0x4 MSTORE PUSH1 0x24 SWAP1 REVERT JUMPDEST PUSH1 0x40 MLOAD RETURNDATASIZE DUP5 DUP3 RETURNDATACOPY RETURNDATASIZE SWAP1 REVERT JUMPDEST POP POP REVERT JUMPDEST PUSH1 0x40 MLOAD PUSH3 0x461BCD PUSH1 0xE5 SHL DUP2 MSTORE PUSH1 0x20 PUSH1 0x4 DUP3 ADD MSTORE PUSH1 0x1B PUSH1 0x24 DUP3 ADD MSTORE PUSH32 0x466C617368206C6F616E2072657061796D656E74206661696C65640000000000 PUSH1 0x44 DUP3 ADD MSTORE PUSH1 0x64 SWAP1 REVERT JUMPDEST SWAP1 POP PUSH1 0x20 DUP2 RETURNDATASIZE PUSH1 0x20 GT PUSH2 0x4C8 JUMPI JUMPDEST DUP2 PUSH2 0x4B5 PUSH1 0x20 SWAP4 DUP4 PUSH2 0x6F1 JUMP JUMPDEST DUP2 ADD SUB SLT PUSH2 0x4C4 JUMPI MLOAD PUSH0 PUSH2 0x3CD JUMP JUMPDEST DUP4 DUP1 REVERT JUMPDEST RETURNDATASIZE SWAP2 POP PUSH2 0x4A8 JUMP JUMPDEST PUSH1 0x40 MLOAD RETURNDATASIZE DUP7 DUP3 RETURNDATACOPY RETURNDATASIZE SWAP1 REVERT JUMPDEST PUSH2 0x4FC SWAP1 PUSH1 0x20 RETURNDATASIZE PUSH1 0x20 GT PUSH2 0x503 JUMPI JUMPDEST PUSH2 0x4F4 DUP2 DUP4 PUSH2 0x6F1 JUMP JUMPDEST DUP2 ADD SWAP1 PUSH2 0x7B1 JUMP JUMPDEST POP PUSH0 PUSH2 0x392 JUMP JUMPDEST POP RETURNDATASIZE PUSH2 0x4EA JUMP JUMPDEST PUSH4 0x4E487B71 PUSH1 0xE0 SHL DUP6 MSTORE PUSH1 0x11 PUSH1 0x4 MSTORE PUSH1 0x24 DUP6 REVERT JUMPDEST PUSH1 0x40 MLOAD PUSH3 0x461BCD PUSH1 0xE5 SHL DUP2 MSTORE PUSH1 0x20 PUSH1 0x4 DUP3 ADD MSTORE PUSH1 0x11 PUSH1 0x24 DUP3 ADD MSTORE PUSH17 0x119B185CDA081B1BD85B8819985A5B1959 PUSH1 0x7A SHL PUSH1 0x44 DUP3 ADD MSTORE PUSH1 0x64 SWAP1 REVERT JUMPDEST POP PUSH1 0x20 DUP2 RETURNDATASIZE PUSH1 0x20 GT PUSH2 0x5A5 JUMPI JUMPDEST DUP2 PUSH2 0x571 PUSH1 0x20 SWAP4 DUP4 PUSH2 0x6F1 JUMP JUMPDEST DUP2 ADD SUB SLT PUSH2 0x5A1 JUMPI PUSH32 0x439148F0BBC682CA079E46D6E2C2F0C1E3B820F1A291B069D8882ABF8CF18DD9 SWAP1 MLOAD PUSH2 0x313 JUMP JUMPDEST DUP6 DUP1 REVERT JUMPDEST RETURNDATASIZE SWAP2 POP PUSH2 0x564 JUMP JUMPDEST PUSH1 0x40 MLOAD RETURNDATASIZE DUP9 DUP3 RETURNDATACOPY RETURNDATASIZE SWAP1 REVERT JUMPDEST PUSH2 0x5D0 SWAP1 PUSH1 0x20 RETURNDATASIZE PUSH1 0x20 GT PUSH2 0x503 JUMPI PUSH2 0x4F4 DUP2 DUP4 PUSH2 0x6F1 JUMP JUMPDEST POP PUSH0 PUSH2 0x27E JUMP JUMPDEST PUSH1 0x40 MLOAD RETURNDATASIZE DUP10 DUP3 RETURNDATACOPY RETURNDATASIZE SWAP1 REVERT JUMPDEST SWAP1 SWAP6 POP PUSH1 0x20 DUP2 RETURNDATASIZE PUSH1 0x20 GT PUSH2 0x613 JUMPI JUMPDEST DUP2 PUSH2 0x5FE PUSH1 0x20 SWAP4 DUP4 PUSH2 0x6F1 JUMP JUMPDEST DUP2 ADD SUB SLT PUSH2 0x60F JUMPI MLOAD SWAP5 PUSH1 0x20 PUSH2 0x241 JUMP JUMPDEST POP DUP1 REVERT JUMPDEST RETURNDATASIZE SWAP2 POP PUSH2 0x5F1 JUMP JUMPDEST PUSH1 0x40 MLOAD PUSH3 0x461BCD PUSH1 0xE5 SHL DUP2 MSTORE PUSH1 0x20 PUSH1 0x4 DUP3 ADD MSTORE PUSH1 0x1F PUSH1 0x24 DUP3 ADD MSTORE PUSH32 0x5265656E7472616E637947756172643A207265656E7472616E742063616C6C00 PUSH1 0x44 DUP3 ADD MSTORE PUSH1 0x64 SWAP1 REVERT JUMPDEST DUP3 DUP1 REVERT JUMPDEST POP CALLVALUE PUSH2 0x9A JUMPI DUP1 PUSH1 0x3 NOT CALLDATASIZE ADD SLT PUSH2 0x9A JUMPI PUSH1 0x2 SLOAD PUSH1 0x40 MLOAD PUSH1 0x1 PUSH1 0x1 PUSH1 0xA0 SHL SUB SWAP1 SWAP2 AND DUP2 MSTORE PUSH1 0x20 SWAP1 RETURN JUMPDEST POP CALLVALUE PUSH2 0x9A JUMPI DUP1 PUSH1 0x3 NOT CALLDATASIZE ADD SLT PUSH2 0x9A JUMPI PUSH1 0x3 SLOAD PUSH1 0x40 MLOAD PUSH1 0x1 PUSH1 0x1 PUSH1 0xA0 SHL SUB SWAP1 SWAP2 AND DUP2 MSTORE PUSH1 0x20 SWAP1 RETURN JUMPDEST SWAP1 POP CALLVALUE PUSH2 0x60F JUMPI DUP2 PUSH1 0x3 NOT CALLDATASIZE ADD SLT PUSH2 0x60F JUMPI PUSH1 0x1 SLOAD PUSH1 0x1 PUSH1 0x1 PUSH1 0xA0 SHL SUB AND DUP2 MSTORE PUSH1 0x20 SWAP1 RETURN JUMPDEST PUSH1 0x4 CALLDATALOAD SWAP1 PUSH1 0x1 PUSH1 0x1 PUSH1 0xA0 SHL SUB DUP3 AND DUP3 SUB PUSH2 0x148 JUMPI JUMP JUMPDEST SWAP1 PUSH1 0x1F DUP1 NOT SWAP2 ADD AND DUP2 ADD SWAP1 DUP2 LT PUSH8 0xFFFFFFFFFFFFFFFF DUP3 GT OR PUSH2 0x713 JUMPI PUSH1 0x40 MSTORE JUMP JUMPDEST PUSH4 0x4E487B71 PUSH1 0xE0 SHL PUSH0 MSTORE PUSH1 0x41 PUSH1 0x4 MSTORE PUSH1 0x24 PUSH0 REVERT JUMPDEST ISZERO PUSH2 0x72E JUMPI JUMP JUMPDEST PUSH1 0x40 MLOAD PUSH3 0x461BCD PUSH1 0xE5 SHL DUP2 MSTORE PUSH1 0x20 PUSH1 0x4 DUP3 ADD MSTORE PUSH1 0x11 PUSH1 0x24 DUP3 ADD MSTORE PUSH17 0x2AB739BAB83837B93A32B2103A37B5B2B7 PUSH1 0x79 SHL PUSH1 0x44 DUP3 ADD MSTORE PUSH1 0x64 SWAP1 REVERT JUMPDEST PUSH1 0x2 SLOAD PUSH2 0x781 SWAP2 PUSH1 0x1 PUSH1 0x1 PUSH1 0xA0 SHL SUB SWAP1 DUP2 AND SWAP2 AND EQ PUSH2 0x727 JUMP JUMPDEST PUSH1 0x4 SLOAD SWAP1 DUP2 DUP2 MUL SWAP2 DUP2 DUP4 DIV EQ SWAP1 ISZERO OR ISZERO PUSH2 0x79D JUMPI PUSH2 0x2710 SWAP1 DIV SWAP1 JUMP JUMPDEST PUSH4 0x4E487B71 PUSH1 0xE0 SHL PUSH0 MSTORE PUSH1 0x11 PUSH1 0x4 MSTORE PUSH1 0x24 PUSH0 REVERT JUMPDEST SWAP1 DUP2 PUSH1 0x20 SWAP2 SUB SLT PUSH2 0x148 JUMPI MLOAD DUP1 ISZERO ISZERO DUP2 SUB PUSH2 0x148 JUMPI SWAP1 JUMP INVALID LOG2 PUSH5 0x6970667358 0x22 SLT KECCAK256 BASEFEE 0x5D 0x28 0xCE DUP3 0xB8 SWAP6 0x21 0xD1 EXP 0xCC 0x4D PUSH14 0x797A29036665E73741D7E66A4BEF 0xE PUSH5 0xD45BC16473 PUSH16 0x6C63430008140033608034620003D257 PUSH1 0x1F PUSH3 0x1DD8 CODESIZE DUP2 SWAP1 SUB SWAP2 DUP3 ADD PUSH1 0x1F NOT AND DUP4 ADD SWAP2 PUSH1 0x1 PUSH1 0x1 PUSH1 0x40 SHL SUB DUP4 GT DUP5 DUP5 LT OR PUSH3 0x32C JUMPI DUP1 DUP5 SWAP3 PUSH2 0x180 SWAP5 PUSH1 0x40 MSTORE DUP4 CODECOPY DUP2 ADD SUB SLT PUSH3 0x3D2 JUMPI PUSH3 0x4E DUP2 PUSH3 0x3D6 JUMP JUMPDEST PUSH3 0x5C PUSH1 0x20 DUP4 ADD PUSH3 0x3D6 JUMP JUMPDEST SWAP2 PUSH3 0x6B PUSH1 0x40 DUP3 ADD PUSH3 0x3D6 JUMP JUMPDEST SWAP2 PUSH3 0x7A PUSH1 0x60 DUP4 ADD PUSH3 0x3D6 JUMP JUMPDEST SWAP3 PUSH1 0x80 DUP4 ADD MLOAD SWAP5 PUSH1 0xA0 DUP5 ADD MLOAD SWAP4 PUSH1 0xC0 DUP2 ADD MLOAD SWAP1 PUSH1 0xE0 DUP2 ADD MLOAD PUSH1 0x1 DUP1 PUSH1 0xA0 SHL SUB DUP2 AND DUP2 SUB PUSH3 0x3D2 JUMPI PUSH2 0x100 DUP3 ADD MLOAD SWAP2 PUSH1 0x1 PUSH1 0x1 PUSH1 0xA0 SHL SUB DUP4 AND DUP4 SUB PUSH3 0x3D2 JUMPI PUSH3 0xC9 PUSH2 0x120 DUP3 ADD PUSH3 0x3D6 JUMP JUMPDEST PUSH3 0xE7 PUSH2 0x160 PUSH3 0xDF PUSH2 0x140 DUP6 ADD PUSH3 0x3D6 JUMP JUMPDEST SWAP4 ADD PUSH3 0x3D6 JUMP JUMPDEST PUSH1 0x1 PUSH0 SSTORE SWAP4 PUSH1 0x1 PUSH1 0x1 PUSH1 0xA0 SHL SUB DUP10 AND ISZERO ISZERO DUP1 PUSH3 0x3BF JUMPI JUMPDEST DUP1 PUSH3 0x3AC JUMPI JUMPDEST DUP1 PUSH3 0x399 JUMPI JUMPDEST ISZERO PUSH3 0x354 JUMPI PUSH1 0x1 DUP1 SLOAD PUSH1 0x1 PUSH1 0x1 PUSH1 0xA0 SHL SUB NOT SWAP1 DUP2 AND PUSH1 0x1 PUSH1 0x1 PUSH1 0xA0 SHL SUB SWAP4 DUP5 AND OR SWAP1 SWAP2 SSTORE PUSH1 0x2 DUP1 SLOAD DUP3 AND SWAP4 DUP4 AND SWAP4 SWAP1 SWAP4 OR SWAP1 SWAP3 SSTORE PUSH1 0x3 DUP1 SLOAD SWAP1 SWAP3 AND SWAP1 DUP4 AND OR SWAP1 SSTORE PUSH1 0x4 SLOAD SWAP4 PUSH3 0x15180 SWAP1 DUP1 ISZERO DUP3 DUP3 MUL DUP3 SWAP1 DIV DUP4 EQ OR ISZERO PUSH3 0x340 JUMPI PUSH1 0x40 MLOAD SWAP10 PUSH1 0x1 PUSH1 0x1 PUSH1 0x40 SHL SUB PUSH2 0x180 DUP13 ADD SWAP1 DUP2 GT SWAP1 DUP13 GT OR PUSH3 0x32C JUMPI DUP13 PUSH0 PUSH2 0x160 DUP14 PUSH32 0x3D48195705780F5C10A0D217F778F0F6D562CB1A6A699DA31C0D6D756AACEDFC SWAP16 PUSH1 0x60 SWAP16 DUP16 SWAP1 PUSH2 0x180 ADD PUSH1 0x40 MSTORE PUSH1 0x1 DUP1 PUSH1 0xA0 SHL SUB AND DUP3 MSTORE PUSH1 0x1 DUP1 PUSH1 0xA0 SHL SUB DUP14 AND PUSH1 0x20 DUP4 ADD MSTORE DUP14 PUSH1 0x1 DUP1 PUSH1 0xA0 SHL SUB AND PUSH1 0x40 DUP4 ADD MSTORE PUSH1 0x1 DUP1 PUSH1 0xA0 SHL SUB AND SWAP4 DUP16 DUP6 SWAP1 DUP4 ADD MSTORE PUSH1 0x80 DUP3 ADD MSTORE DUP5 PUSH1 0xA0 DUP3 ADD MSTORE DUP7 DUP7 MUL PUSH1 0xC0 DUP3 ADD MSTORE PUSH1 0x1 DUP1 PUSH1 0xA0 SHL SUB DUP9 AND PUSH1 0xE0 DUP3 ADD MSTORE PUSH1 0x1 DUP1 PUSH1 0xA0 SHL SUB DUP10 AND PUSH2 0x100 DUP3 ADD MSTORE DUP3 PUSH2 0x120 DUP3 ADD MSTORE TIMESTAMP PUSH2 0x140 DUP3 ADD MSTORE ADD MSTORE PUSH1 0x1 DUP1 PUSH1 0xA0 SHL SUB DUP12 AND PUSH1 0x1 DUP1 PUSH1 0xA0 SHL SUB NOT PUSH1 0x5 SLOAD AND OR PUSH1 0x5 SSTORE PUSH1 0x1 DUP1 PUSH1 0xA0 SHL SUB DUP10 AND PUSH1 0x1 DUP1 PUSH1 0xA0 SHL SUB NOT PUSH1 0x6 SLOAD AND OR PUSH1 0x6 SSTORE PUSH1 0x1 DUP1 PUSH1 0xA0 SHL SUB DUP11 AND PUSH1 0x1 DUP1 PUSH1 0xA0 SHL SUB NOT PUSH1 0x7 SLOAD AND OR PUSH1 0x7 SSTORE PUSH1 0x1 DUP1 PUSH1 0xA0 SHL SUB NOT PUSH1 0x8 SLOAD AND OR PUSH1 0x8 SSTORE DUP13 PUSH1 0x9 SSTORE PUSH1 0xA SSTORE MUL PUSH1 0xB SSTORE PUSH1 0x1 DUP1 PUSH1 0xA0 SHL SUB AND PUSH1 0x1 DUP1 PUSH1 0xA0 SHL SUB NOT PUSH1 0xC SLOAD AND OR PUSH1 0xC SSTORE PUSH1 0x1 DUP1 PUSH1 0xA0 SHL SUB AND PUSH1 0x1 DUP1 PUSH1 0xA0 SHL SUB NOT PUSH1 0xD SLOAD AND OR PUSH1 0xD SSTORE PUSH1 0x1 DUP1 PUSH1 0xA0 SHL SUB NOT PUSH1 0xE SLOAD AND PUSH1 0xE SSTORE TIMESTAMP PUSH1 0xF SSTORE PUSH0 PUSH1 0x10 SSTORE PUSH1 0x1 DUP1 PUSH1 0xA0 SHL SUB AND SWAP1 PUSH1 0x1 DUP1 PUSH1 0xA8 SHL SUB NOT AND OR PUSH1 0x4 SSTORE PUSH1 0x40 MLOAD SWAP6 DUP7 MSTORE PUSH1 0x1 DUP1 PUSH1 0xA0 SHL SUB AND PUSH1 0x20 DUP7 ADD MSTORE PUSH1 0x1 DUP1 PUSH1 0xA0 SHL SUB AND PUSH1 0x40 DUP6 ADD MSTORE PUSH1 0x1 DUP1 PUSH1 0xA0 SHL SUB AND SWAP3 LOG2 PUSH1 0x40 MLOAD PUSH2 0x19EC SWAP1 DUP2 PUSH3 0x3EC DUP3 CODECOPY RETURN JUMPDEST PUSH4 0x4E487B71 PUSH1 0xE0 SHL PUSH0 MSTORE PUSH1 0x41 PUSH1 0x4 MSTORE PUSH1 0x24 PUSH0 REVERT JUMPDEST PUSH4 0x4E487B71 PUSH1 0xE0 SHL PUSH0 MSTORE PUSH1 0x11 PUSH1 0x4 MSTORE PUSH1 0x24 PUSH0 REVERT JUMPDEST PUSH1 0x40 MLOAD PUSH3 0x461BCD PUSH1 0xE5 SHL DUP2 MSTORE PUSH1 0x20 PUSH1 0x4 DUP3 ADD MSTORE PUSH1 0x17 PUSH1 0x24 DUP3 ADD MSTORE PUSH32 0x496E76616C696420696E70757420616464726573736573000000000000000000 PUSH1 0x44 DUP3 ADD MSTORE PUSH1 0x64 SWAP1 REVERT JUMPDEST POP PUSH1 0x1 PUSH1 0x1 PUSH1 0xA0 SHL SUB DUP9 AND ISZERO ISZERO PUSH3 0x10D JUMP JUMPDEST POP PUSH1 0x1 PUSH1 0x1 PUSH1 0xA0 SHL SUB DUP12 AND ISZERO ISZERO PUSH3 0x106 JUMP JUMPDEST POP PUSH1 0x1 PUSH1 0x1 PUSH1 0xA0 SHL SUB DUP8 AND ISZERO ISZERO PUSH3 0xFF JUMP JUMPDEST PUSH0 DUP1 REVERT JUMPDEST MLOAD SWAP1 PUSH1 0x1 PUSH1 0x1 PUSH1 0xA0 SHL SUB DUP3 AND DUP3 SUB PUSH3 0x3D2 JUMPI JUMP INVALID PUSH1 0x80 PUSH1 0x40 DUP2 DUP2 MSTORE PUSH1 0x4 SWAP2 DUP3 CALLDATASIZE LT ISZERO PUSH2 0x15 JUMPI PUSH0 DUP1 REVERT JUMPDEST PUSH0 SWAP3 DUP4 CALLDATALOAD PUSH1 0xE0 SHR SWAP2 DUP3 PUSH4 0xC7277DE EQ PUSH2 0x1544 JUMPI POP DUP2 PUSH4 0xF4EF8A6 EQ PUSH2 0x151C JUMPI DUP2 PUSH4 0x12261EE7 EQ PUSH2 0x14F3 JUMPI DUP2 PUSH4 0x1CB0C3E7 EQ PUSH2 0x14CA JUMPI DUP2 PUSH4 0x2E1283E3 EQ PUSH2 0x14AB JUMPI DUP2 PUSH4 0x3B1BAEFF EQ PUSH2 0x1385 JUMPI DUP2 PUSH4 0x402D8883 EQ PUSH2 0xDEE JUMPI DUP2 PUSH4 0x5257B566 EQ PUSH2 0xDCF JUMPI DUP2 PUSH4 0x64C4BEC0 EQ PUSH2 0xDB0 JUMPI DUP2 PUSH4 0x654C6295 EQ PUSH2 0xD18 JUMPI DUP2 PUSH4 0x6B6D1955 EQ PUSH2 0xCF8 JUMPI DUP2 PUSH4 0x88F2424B EQ PUSH2 0xA96 JUMPI DUP2 PUSH4 0x8A4ADF24 EQ PUSH2 0xA6D JUMPI DUP2 PUSH4 0x8DB57994 EQ PUSH2 0x864 JUMPI DUP2 PUSH4 0x95CB741D EQ PUSH2 0x7CD JUMPI DUP2 PUSH4 0x9861F3E5 EQ PUSH2 0x7A4 JUMPI DUP2 PUSH4 0x9E9F669C EQ PUSH2 0x180 JUMPI DUP2 PUSH4 0xB2A9BB60 EQ PUSH2 0x1B0 JUMPI DUP2 PUSH4 0xC19D93FB EQ PUSH2 0x180 JUMPI POP DUP1 PUSH4 0xC51B9507 EQ PUSH2 0x158 JUMPI DUP1 PUSH4 0xEB0C4955 EQ PUSH2 0x135 JUMPI PUSH4 0xF4B01B18 EQ PUSH2 0x114 JUMPI PUSH0 DUP1 REVERT JUMPDEST CALLVALUE PUSH2 0x131 JUMPI DUP2 PUSH1 0x3 NOT CALLDATASIZE ADD SLT PUSH2 0x131 JUMPI PUSH1 0x20 SWAP1 PUSH1 0x9 SLOAD SWAP1 MLOAD SWAP1 DUP2 MSTORE RETURN JUMPDEST POP DUP1 REVERT JUMPDEST POP CALLVALUE PUSH2 0x131 JUMPI DUP2 PUSH1 0x3 NOT CALLDATASIZE ADD SLT PUSH2 0x131 JUMPI PUSH1 0x20 SWAP1 PUSH2 0x151 PUSH2 0x1933 JUMP JUMPDEST SWAP1 MLOAD SWAP1 DUP2 MSTORE RETURN JUMPDEST POP CALLVALUE PUSH2 0x131 JUMPI DUP2 PUSH1 0x3 NOT CALLDATASIZE ADD SLT PUSH2 0x131 JUMPI PUSH1 0x2 SLOAD SWAP1 MLOAD PUSH1 0x1 PUSH1 0x1 PUSH1 0xA0 SHL SUB SWAP1 SWAP2 AND DUP2 MSTORE PUSH1 0x20 SWAP1 RETURN JUMPDEST DUP3 DUP5 CALLVALUE PUSH2 0x1AD JUMPI DUP1 PUSH1 0x3 NOT CALLDATASIZE ADD SLT PUSH2 0x1AD JUMPI POP PUSH1 0xFF PUSH2 0x1A9 SWAP3 SLOAD PUSH1 0xA0 SHR AND SWAP1 MLOAD SWAP2 DUP3 SWAP2 DUP3 PUSH2 0x1569 JUMP JUMPDEST SUB SWAP1 RETURN JUMPDEST DUP1 REVERT JUMPDEST SWAP2 SWAP1 POP CALLVALUE PUSH2 0x4ED JUMPI DUP3 PUSH1 0x3 NOT CALLDATASIZE ADD SLT PUSH2 0x4ED JUMPI PUSH2 0x1CB PUSH2 0x1590 JUMP JUMPDEST PUSH1 0xFF DUP3 SLOAD PUSH1 0xA0 SHR AND PUSH1 0x6 DUP2 LT ISZERO PUSH2 0x791 JUMPI PUSH1 0x1 SUB PUSH2 0x74E JUMPI CALLER ISZERO PUSH2 0x70B JUMPI PUSH1 0x5 SLOAD PUSH1 0x1 PUSH1 0x1 PUSH1 0xA0 SHL SUB SWAP3 SWAP1 DUP4 AND SWAP1 CALLER DUP3 EQ PUSH2 0x6C8 JUMPI PUSH2 0x208 PUSH2 0x1933 JUMP JUMPDEST PUSH2 0x215 PUSH1 0x9 SLOAD SWAP2 DUP3 PUSH2 0x1687 JUMP JUMPDEST PUSH1 0x7 SLOAD DUP6 MLOAD PUSH4 0x6EB1769F PUSH1 0xE1 SHL DUP1 DUP3 MSTORE CALLER DUP7 DUP4 ADD SWAP1 DUP2 MSTORE ADDRESS PUSH1 0x20 DUP3 DUP2 ADD SWAP2 SWAP1 SWAP2 MSTORE SWAP8 SWAP4 DUP11 AND SWAP5 SWAP2 SWAP3 SWAP1 DUP9 SWAP1 DUP3 SWAP1 DUP2 SWAP1 PUSH1 0x40 ADD SUB DUP2 DUP9 GAS STATICCALL SWAP1 DUP2 ISZERO PUSH2 0x6BE JUMPI DUP12 SWAP2 PUSH2 0x691 JUMPI JUMPDEST POP LT PUSH2 0x644 JUMPI PUSH1 0x6 SLOAD DUP8 MLOAD SWAP2 DUP3 MSTORE PUSH1 0x1 PUSH1 0x1 PUSH1 0xA0 SHL SUB SWAP1 SWAP3 AND DUP6 DUP3 ADD SWAP1 DUP2 MSTORE ADDRESS PUSH1 0x20 DUP3 ADD MSTORE SWAP1 SWAP2 DUP7 SWAP2 DUP4 SWAP2 DUP11 AND SWAP1 DUP3 SWAP1 DUP2 SWAP1 PUSH1 0x40 ADD SUB SWAP2 GAS STATICCALL SWAP1 DUP2 ISZERO PUSH2 0x63A JUMPI SWAP1 DUP4 SWAP2 DUP10 SWAP2 PUSH2 0x609 JUMPI JUMPDEST POP LT PUSH2 0x5C6 JUMPI SWAP1 DUP7 SWAP3 SWAP2 PUSH2 0x2BF PUSH2 0x2B9 PUSH2 0x1933 JUMP JUMPDEST DUP4 PUSH2 0x1687 JUMP JUMPDEST PUSH2 0x2C7 PUSH2 0x1933 JUMP JUMPDEST DUP8 MLOAD PUSH4 0x23B872DD PUSH1 0xE0 SHL DUP1 DUP3 MSTORE CALLER DUP8 DUP4 ADD SWAP1 DUP2 MSTORE ADDRESS PUSH1 0x20 DUP3 ADD MSTORE PUSH1 0x40 DUP2 ADD SWAP5 SWAP1 SWAP5 MSTORE SWAP2 SWAP4 SWAP2 SWAP3 SWAP1 SWAP2 DUP9 SWAP2 DUP4 SWAP2 SWAP1 DUP3 SWAP1 DUP11 SWAP1 DUP3 SWAP1 PUSH1 0x60 ADD SUB SWAP3 GAS CALL DUP1 ISZERO PUSH2 0x5BC JUMPI SWAP2 PUSH2 0x353 SWAP4 SWAP2 DUP9 SWAP4 PUSH2 0x59F JUMPI JUMPDEST POP DUP10 PUSH1 0x7 SLOAD AND SWAP1 DUP8 DUP12 PUSH1 0x3 SLOAD AND SWAP2 DUP12 MLOAD SWAP7 DUP8 SWAP6 DUP7 SWAP5 DUP6 SWAP4 DUP5 MSTORE CALLER DUP13 DUP6 ADD PUSH1 0x40 SWAP2 SWAP5 SWAP4 SWAP3 SWAP5 PUSH1 0x60 DUP3 ADD SWAP6 PUSH1 0x1 DUP1 PUSH1 0xA0 SHL SUB DUP1 SWAP3 AND DUP4 MSTORE AND PUSH1 0x20 DUP3 ADD MSTORE ADD MSTORE JUMP JUMPDEST SUB SWAP3 GAS CALL DUP1 ISZERO PUSH2 0x578 JUMPI PUSH2 0x582 JUMPI JUMPDEST POP PUSH1 0x7 SLOAD PUSH1 0x8 SLOAD DUP7 MLOAD PUSH4 0x95EA7B3 PUSH1 0xE0 SHL DUP2 MSTORE SWAP1 DUP9 AND PUSH1 0x1 PUSH1 0x1 PUSH1 0xA0 SHL SUB AND DUP5 DUP3 ADD SWAP1 DUP2 MSTORE PUSH1 0x20 DUP2 ADD DUP5 SWAP1 MSTORE SWAP1 SWAP2 DUP7 SWAP2 DUP4 SWAP2 DUP11 AND SWAP1 DUP3 SWAP1 DUP9 SWAP1 DUP3 SWAP1 PUSH1 0x40 ADD SUB SWAP3 GAS CALL DUP1 ISZERO PUSH2 0x578 JUMPI SWAP2 DUP6 SWAP2 DUP6 SWAP4 PUSH2 0x55B JUMPI JUMPDEST POP PUSH1 0x44 DUP9 PUSH1 0x8 SLOAD AND SWAP2 DUP9 MLOAD SWAP5 DUP6 SWAP4 DUP5 SWAP3 PUSH4 0x6E553F65 PUSH1 0xE0 SHL DUP5 MSTORE DUP9 DUP5 ADD MSTORE CALLER PUSH1 0x24 DUP5 ADD MSTORE GAS CALL DUP1 ISZERO PUSH2 0x51E JUMPI SWAP1 DUP5 SWAP2 PUSH2 0x528 JUMPI JUMPDEST POP PUSH1 0x6 SLOAD PUSH1 0x9 SLOAD DUP7 MLOAD PUSH4 0xA9059CBB PUSH1 0xE0 SHL DUP2 MSTORE CALLER DUP6 DUP3 ADD SWAP1 DUP2 MSTORE PUSH1 0x20 DUP2 ADD SWAP3 SWAP1 SWAP3 MSTORE SWAP3 SWAP2 DUP4 SWAP2 DUP3 SWAP1 SUB PUSH1 0x40 ADD SWAP1 DUP3 SWAP1 DUP8 SWAP1 DUP12 AND GAS CALL DUP1 ISZERO PUSH2 0x51E JUMPI PUSH2 0x4F1 JUMPI JUMPDEST POP PUSH1 0xE DUP1 SLOAD PUSH1 0x1 PUSH1 0x1 PUSH1 0xA0 SHL SUB NOT AND CALLER OR SWAP1 SSTORE TIMESTAMP PUSH1 0xF SSTORE DUP1 SLOAD PUSH1 0xFF PUSH1 0xA0 SHL NOT AND PUSH1 0x1 PUSH1 0xA1 SHL OR DUP2 SSTORE PUSH2 0x463 PUSH2 0x45B PUSH2 0x1933 JUMP JUMPDEST PUSH1 0x9 SLOAD PUSH2 0x1687 JUMP JUMPDEST SWAP5 PUSH1 0x3 SLOAD AND SWAP1 DUP2 EXTCODESIZE ISZERO PUSH2 0x4ED JUMPI DUP3 SWAP2 PUSH1 0x24 DUP4 SWAP3 DUP8 MLOAD SWAP5 DUP6 SWAP4 DUP5 SWAP3 PUSH4 0x2914526D PUSH1 0xE1 SHL DUP5 MSTORE ADDRESS SWAP1 DUP5 ADD MSTORE GAS CALL DUP1 ISZERO PUSH2 0x4E3 JUMPI PUSH2 0x4CB JUMPI JUMPDEST POP POP PUSH32 0x5150AB7694A22FBC01C642BC10316565247DF962FA3F0AC3B5D1A18BA45B485B SWAP2 MLOAD SWAP3 DUP4 MSTORE CALLER SWAP3 LOG2 PUSH1 0x1 DUP2 SSTORE DUP1 RETURN JUMPDEST PUSH2 0x4D4 SWAP1 PUSH2 0x15E4 JUMP JUMPDEST PUSH2 0x4DF JUMPI DUP4 PUSH0 PUSH2 0x499 JUMP JUMPDEST DUP4 DUP1 REVERT JUMPDEST DUP5 MLOAD RETURNDATASIZE DUP5 DUP3 RETURNDATACOPY RETURNDATASIZE SWAP1 REVERT JUMPDEST DUP3 DUP1 REVERT JUMPDEST PUSH2 0x510 SWAP1 DUP5 RETURNDATASIZE DUP7 GT PUSH2 0x517 JUMPI JUMPDEST PUSH2 0x508 DUP2 DUP4 PUSH2 0x160C JUMP JUMPDEST DUP2 ADD SWAP1 PUSH2 0x162E JUMP JUMPDEST POP PUSH0 PUSH2 0x428 JUMP JUMPDEST POP RETURNDATASIZE PUSH2 0x4FE JUMP JUMPDEST DUP6 MLOAD RETURNDATASIZE DUP6 DUP3 RETURNDATACOPY RETURNDATASIZE SWAP1 REVERT JUMPDEST SWAP1 DUP1 SWAP3 SWAP4 POP RETURNDATASIZE DUP4 GT PUSH2 0x554 JUMPI JUMPDEST PUSH2 0x53F DUP2 DUP4 PUSH2 0x160C JUMP JUMPDEST DUP2 ADD SUB SLT PUSH2 0x550 JUMPI DUP5 SWAP1 DUP3 PUSH0 PUSH2 0x3E8 JUMP JUMPDEST PUSH0 DUP1 REVERT JUMPDEST POP RETURNDATASIZE PUSH2 0x535 JUMP JUMPDEST PUSH2 0x571 SWAP1 DUP4 RETURNDATASIZE DUP6 GT PUSH2 0x517 JUMPI PUSH2 0x508 DUP2 DUP4 PUSH2 0x160C JUMP JUMPDEST POP PUSH0 PUSH2 0x3B4 JUMP JUMPDEST DUP7 MLOAD RETURNDATASIZE DUP7 DUP3 RETURNDATACOPY RETURNDATASIZE SWAP1 REVERT JUMPDEST PUSH2 0x598 SWAP1 DUP6 RETURNDATASIZE DUP8 GT PUSH2 0x517 JUMPI PUSH2 0x508 DUP2 DUP4 PUSH2 0x160C JUMP JUMPDEST POP PUSH0 PUSH2 0x362 JUMP JUMPDEST PUSH2 0x5B5 SWAP1 DUP5 RETURNDATASIZE DUP7 GT PUSH2 0x517 JUMPI PUSH2 0x508 DUP2 DUP4 PUSH2 0x160C JUMP JUMPDEST POP PUSH0 PUSH2 0x314 JUMP JUMPDEST DUP9 MLOAD RETURNDATASIZE DUP9 DUP3 RETURNDATACOPY RETURNDATASIZE SWAP1 REVERT JUMPDEST DUP5 MLOAD PUSH3 0x461BCD PUSH1 0xE5 SHL DUP2 MSTORE DUP1 DUP5 ADD DUP6 SWAP1 MSTORE PUSH1 0x1B PUSH1 0x24 DUP3 ADD MSTORE PUSH32 0x496E73756666696369656E74206C6F616E20616C6C6F77616E63650000000000 PUSH1 0x44 DUP3 ADD MSTORE PUSH1 0x64 SWAP1 REVERT JUMPDEST DUP1 SWAP3 POP DUP7 DUP1 SWAP3 POP RETURNDATASIZE DUP4 GT PUSH2 0x633 JUMPI JUMPDEST PUSH2 0x622 DUP2 DUP4 PUSH2 0x160C JUMP JUMPDEST DUP2 ADD SUB SLT PUSH2 0x550 JUMPI DUP3 SWAP1 MLOAD PUSH0 PUSH2 0x2A4 JUMP JUMPDEST POP RETURNDATASIZE PUSH2 0x618 JUMP JUMPDEST DUP7 MLOAD RETURNDATASIZE DUP11 DUP3 RETURNDATACOPY RETURNDATASIZE SWAP1 REVERT JUMPDEST DUP7 MLOAD PUSH3 0x461BCD PUSH1 0xE5 SHL DUP2 MSTORE DUP1 DUP7 ADD DUP8 SWAP1 MSTORE PUSH1 0x21 PUSH1 0x24 DUP3 ADD MSTORE PUSH32 0x496E73756666696369656E7420636F6C6C61746572616C20616C6C6F77616E63 PUSH1 0x44 DUP3 ADD MSTORE PUSH1 0x65 PUSH1 0xF8 SHL PUSH1 0x64 DUP3 ADD MSTORE PUSH1 0x84 SWAP1 REVERT JUMPDEST SWAP1 POP DUP8 DUP2 DUP2 RETURNDATASIZE DUP4 GT PUSH2 0x6B7 JUMPI JUMPDEST PUSH2 0x6A8 DUP2 DUP4 PUSH2 0x160C JUMP JUMPDEST DUP2 ADD SUB SLT PUSH2 0x550 JUMPI MLOAD PUSH0 PUSH2 0x25A JUMP JUMPDEST POP RETURNDATASIZE PUSH2 0x69E JUMP JUMPDEST DUP10 MLOAD RETURNDATASIZE DUP14 DUP3 RETURNDATACOPY RETURNDATASIZE SWAP1 REVERT JUMPDEST PUSH1 0x64 SWAP1 PUSH1 0x20 DUP5 MLOAD SWAP2 PUSH3 0x461BCD PUSH1 0xE5 SHL DUP4 MSTORE DUP3 ADD MSTORE PUSH1 0x19 PUSH1 0x24 DUP3 ADD MSTORE PUSH32 0x4C656E6465722063616E6E6F7420626520626F72726F77657200000000000000 PUSH1 0x44 DUP3 ADD MSTORE REVERT JUMPDEST SWAP1 PUSH1 0x20 PUSH1 0x64 SWAP3 MLOAD SWAP2 PUSH3 0x461BCD PUSH1 0xE5 SHL DUP4 MSTORE DUP3 ADD MSTORE PUSH1 0x18 PUSH1 0x24 DUP3 ADD MSTORE PUSH32 0x496E76616C696420626F72726F77657220616464726573730000000000000000 PUSH1 0x44 DUP3 ADD MSTORE REVERT JUMPDEST SWAP1 PUSH1 0x20 PUSH1 0x64 SWAP3 MLOAD SWAP2 PUSH3 0x461BCD PUSH1 0xE5 SHL DUP4 MSTORE DUP3 ADD MSTORE PUSH1 0x1A PUSH1 0x24 DUP3 ADD MSTORE PUSH32 0x4C6F616E206E6F7420726561647920746F206163746976617465000000000000 PUSH1 0x44 DUP3 ADD MSTORE REVERT JUMPDEST PUSH4 0x4E487B71 PUSH1 0xE0 SHL DUP5 MSTORE PUSH1 0x21 DUP4 MSTORE PUSH1 0x24 DUP5 REVERT JUMPDEST POP POP CALLVALUE PUSH2 0x131 JUMPI DUP2 PUSH1 0x3 NOT CALLDATASIZE ADD SLT PUSH2 0x131 JUMPI PUSH1 0x5 SLOAD SWAP1 MLOAD PUSH1 0x1 PUSH1 0x1 PUSH1 0xA0 SHL SUB SWAP1 SWAP2 AND DUP2 MSTORE PUSH1 0x20 SWAP1 RETURN JUMPDEST POP POP CALLVALUE PUSH2 0x131 JUMPI DUP2 PUSH1 0x3 NOT CALLDATASIZE ADD SLT PUSH2 0x131 JUMPI PUSH2 0x180 SWAP1 PUSH1 0x1 DUP1 PUSH1 0xA0 SHL SUB DUP1 PUSH1 0x5 SLOAD AND SWAP2 DUP2 PUSH1 0x6 SLOAD AND SWAP2 DUP1 PUSH1 0x7 SLOAD AND SWAP1 DUP1 PUSH1 0x8 SLOAD AND PUSH1 0x9 SLOAD PUSH1 0xA SLOAD PUSH1 0xB SLOAD SWAP2 DUP5 PUSH1 0xC SLOAD AND SWAP4 DUP6 PUSH1 0xD SLOAD AND SWAP6 PUSH1 0xE SLOAD AND SWAP7 PUSH1 0xF SLOAD SWAP9 PUSH1 0x10 SLOAD SWAP11 DUP2 MLOAD SWAP13 DUP14 MSTORE PUSH1 0x20 DUP14 ADD MSTORE DUP12 ADD MSTORE PUSH1 0x60 DUP11 ADD MSTORE PUSH1 0x80 DUP10 ADD MSTORE PUSH1 0xA0 DUP9 ADD MSTORE PUSH1 0xC0 DUP8 ADD MSTORE PUSH1 0xE0 DUP7 ADD MSTORE PUSH2 0x100 DUP6 ADD MSTORE PUSH2 0x120 DUP5 ADD MSTORE PUSH2 0x140 DUP4 ADD MSTORE PUSH2 0x160 DUP3 ADD MSTORE RETURN JUMPDEST SWAP1 POP CALLVALUE PUSH2 0x4ED JUMPI DUP3 PUSH1 0x3 NOT CALLDATASIZE ADD SLT PUSH2 0x4ED JUMPI PUSH2 0x87E PUSH2 0x1590 JUMP JUMPDEST PUSH1 0xFF DUP2 SLOAD PUSH1 0xA0 SHR AND PUSH1 0x6 DUP2 LT ISZERO PUSH2 0xA5A JUMPI PUSH2 0xA18 JUMPI PUSH1 0x6 SLOAD PUSH1 0x5 SLOAD PUSH1 0x9 SLOAD DUP5 MLOAD PUSH4 0x23B872DD PUSH1 0xE0 SHL DUP2 MSTORE PUSH1 0x1 PUSH1 0x1 PUSH1 0xA0 SHL SUB SWAP3 DUP4 AND DUP6 DUP3 ADD SWAP1 DUP2 MSTORE ADDRESS PUSH1 0x20 DUP1 DUP4 ADD SWAP2 SWAP1 SWAP2 MSTORE PUSH1 0x40 DUP3 ADD SWAP4 SWAP1 SWAP4 MSTORE DUP8 SWAP6 SWAP5 SWAP2 SWAP3 SWAP2 DUP4 SWAP2 DUP3 SWAP1 SUB PUSH1 0x60 ADD SWAP1 DUP3 SWAP1 DUP9 SWAP1 DUP8 AND GAS CALL DUP1 ISZERO PUSH2 0x9EC JUMPI PUSH2 0x9FA JUMPI JUMPDEST POP TIMESTAMP PUSH1 0x10 SSTORE DUP2 SLOAD PUSH1 0xFF PUSH1 0xA0 SHL NOT DUP2 AND PUSH1 0x1 PUSH1 0xA0 SHL OR DUP4 SSTORE PUSH1 0x6 SLOAD SWAP1 DUP3 AND SWAP1 DUP3 AND DUP2 EXTCODESIZE ISZERO PUSH2 0x9F6 JUMPI DUP5 SWAP2 PUSH1 0x64 DUP4 SWAP3 DUP9 MLOAD SWAP5 DUP6 SWAP4 DUP5 SWAP3 PUSH4 0x77FF76E7 PUSH1 0xE0 SHL DUP5 MSTORE ADDRESS DUP11 DUP6 ADD MSTORE PUSH1 0x24 DUP5 ADD MSTORE DUP2 PUSH1 0x44 DUP5 ADD MSTORE GAS CALL SWAP1 DUP2 ISZERO PUSH2 0x9EC JUMPI DUP5 SWAP2 PUSH2 0x9D8 JUMPI JUMPDEST POP POP PUSH1 0x2 SLOAD AND SWAP1 DUP2 EXTCODESIZE ISZERO PUSH2 0x4ED JUMPI DUP3 SWAP2 PUSH1 0x24 DUP4 SWAP3 DUP7 MLOAD SWAP5 DUP6 SWAP4 DUP5 SWAP3 PUSH4 0x7CBCB85 PUSH1 0xE2 SHL DUP5 MSTORE ADDRESS SWAP1 DUP5 ADD MSTORE GAS CALL DUP1 ISZERO PUSH2 0x9CB JUMPI PUSH2 0x9B7 JUMPI JUMPDEST POP PUSH32 0x9E71D2FB732E68272B7E74ECFD14638673C1D77E19A5D390A3FFFF054D57C44B PUSH1 0x20 DUP4 PUSH1 0x9 SLOAD SWAP1 MLOAD SWAP1 DUP2 MSTORE LOG1 PUSH1 0x1 DUP2 SSTORE DUP1 RETURN JUMPDEST PUSH2 0x9C0 SWAP1 PUSH2 0x15E4 JUMP JUMPDEST PUSH2 0x131 JUMPI DUP2 PUSH0 PUSH2 0x982 JUMP JUMPDEST POP POP POP MLOAD SWAP1 RETURNDATASIZE SWAP1 DUP3 RETURNDATACOPY RETURNDATASIZE SWAP1 REVERT JUMPDEST PUSH2 0x9E1 SWAP1 PUSH2 0x15E4 JUMP JUMPDEST PUSH2 0x4ED JUMPI DUP3 PUSH0 PUSH2 0x94B JUMP JUMPDEST DUP6 MLOAD RETURNDATASIZE DUP7 DUP3 RETURNDATACOPY RETURNDATASIZE SWAP1 REVERT JUMPDEST DUP5 DUP1 REVERT JUMPDEST PUSH2 0xA11 SWAP1 PUSH1 0x20 RETURNDATASIZE DUP2 GT PUSH2 0x517 JUMPI PUSH2 0x508 DUP2 DUP4 PUSH2 0x160C JUMP JUMPDEST POP PUSH0 PUSH2 0x8ED JUMP JUMPDEST PUSH1 0x20 PUSH1 0x64 SWAP3 MLOAD SWAP2 PUSH3 0x461BCD PUSH1 0xE5 SHL DUP4 MSTORE DUP3 ADD MSTORE PUSH1 0x1B PUSH1 0x24 DUP3 ADD MSTORE PUSH32 0x4C6F616E206E6F7420696E20637265617461626C652073746174650000000000 PUSH1 0x44 DUP3 ADD MSTORE REVERT JUMPDEST PUSH4 0x4E487B71 PUSH1 0xE0 SHL DUP5 MSTORE PUSH1 0x21 DUP3 MSTORE PUSH1 0x24 DUP5 REVERT JUMPDEST POP POP CALLVALUE PUSH2 0x131 JUMPI DUP2 PUSH1 0x3 NOT CALLDATASIZE ADD SLT PUSH2 0x131 JUMPI PUSH1 0x3 SLOAD SWAP1 MLOAD PUSH1 0x1 PUSH1 0x1 PUSH1 0xA0 SHL SUB SWAP1 SWAP2 AND DUP2 MSTORE PUSH1 0x20 SWAP1 RETURN JUMPDEST SWAP1 POP CALLVALUE PUSH2 0x4ED JUMPI DUP3 PUSH1 0x3 NOT CALLDATASIZE ADD SLT PUSH2 0x4ED JUMPI DUP1 SLOAD PUSH1 0xFF DUP2 PUSH1 0xA0 SHR AND PUSH1 0x6 DUP2 LT ISZERO PUSH2 0xCE5 JUMPI PUSH1 0x2 PUSH2 0xAC6 SWAP2 EQ PUSH2 0x1646 JUMP JUMPDEST PUSH1 0xFF PUSH1 0xA0 SHL NOT AND PUSH1 0x3 PUSH1 0xA0 SHL OR DUP2 SSTORE PUSH2 0xADD PUSH2 0x16A8 JUMP JUMPDEST PUSH1 0x3 SLOAD PUSH1 0xE SLOAD PUSH1 0x1 PUSH1 0x1 PUSH1 0xA0 SHL SUB SWAP3 SWAP2 DUP6 SWAP2 DUP5 AND SWAP1 DUP5 AND DUP1 EXTCODESIZE ISZERO PUSH2 0x4ED JUMPI DUP6 MLOAD PUSH4 0x389E0067 PUSH1 0xE1 SHL DUP2 MSTORE ADDRESS DUP6 DUP3 ADD SWAP1 DUP2 MSTORE PUSH1 0x1 PUSH1 0x1 PUSH1 0xA0 SHL SUB SWAP1 SWAP4 AND PUSH1 0x20 DUP5 ADD MSTORE SWAP2 DUP4 SWAP2 DUP4 SWAP2 DUP3 SWAP1 DUP5 SWAP1 DUP3 SWAP1 PUSH1 0x40 ADD SUB SWAP3 GAS CALL DUP1 ISZERO PUSH2 0xC94 JUMPI PUSH2 0xCD1 JUMPI JUMPDEST POP POP PUSH2 0xB45 PUSH2 0x1807 JUMP JUMPDEST DUP2 PUSH1 0xE SLOAD AND PUSH32 0xF4E5CF42CBB1D0C6C91E16D925349FEB6C5D970652F6EC77B1FF1262F7284CD5 SWAP4 DUP2 DUP6 PUSH0 DUP1 LOG2 DUP4 PUSH1 0x8 SLOAD AND DUP2 MLOAD PUSH4 0x70A08231 PUSH1 0xE0 SHL DUP2 MSTORE DUP4 DUP6 DUP3 ADD MSTORE DUP8 PUSH1 0x20 SWAP6 DUP7 DUP4 PUSH1 0x24 DUP2 DUP8 GAS STATICCALL SWAP3 DUP4 ISZERO PUSH2 0xC94 JUMPI DUP3 SWAP4 PUSH2 0xC9E JUMPI JUMPDEST POP DUP5 MLOAD SWAP3 PUSH4 0x63737AC9 PUSH1 0xE1 SHL DUP5 MSTORE DUP2 DUP5 ADD MSTORE DUP7 DUP4 PUSH1 0x24 DUP2 DUP8 GAS STATICCALL SWAP3 DUP4 ISZERO PUSH2 0xC94 JUMPI SWAP2 DUP7 SWAP4 SWAP2 DUP9 SWAP6 SWAP4 DUP3 SWAP4 PUSH2 0xC5D JUMPI JUMPDEST POP DUP7 MLOAD PUSH4 0x5D043B29 PUSH1 0xE1 SHL DUP2 MSTORE SWAP1 DUP2 ADD SWAP3 DUP4 MSTORE PUSH1 0x1 PUSH1 0x1 PUSH1 0xA0 SHL SUB SWAP5 DUP6 AND PUSH1 0x20 DUP5 ADD MSTORE SWAP7 SWAP1 SWAP4 AND PUSH1 0x40 DUP3 ADD MSTORE DUP6 SWAP3 DUP4 SWAP2 DUP3 SWAP1 PUSH1 0x60 ADD SUB SWAP3 GAS CALL SWAP1 DUP2 ISZERO PUSH2 0xC54 JUMPI POP PUSH2 0xC2B JUMPI JUMPDEST POP POP PUSH2 0xC20 PUSH2 0x1807 JUMP JUMPDEST PUSH1 0xE SLOAD AND SWAP1 PUSH0 DUP1 LOG2 DUP1 RETURN JUMPDEST DUP2 RETURNDATASIZE DUP4 GT PUSH2 0xC4D JUMPI JUMPDEST PUSH2 0xC3E DUP2 DUP4 PUSH2 0x160C JUMP JUMPDEST DUP2 ADD SUB SLT PUSH2 0x550 JUMPI PUSH0 DUP1 PUSH2 0xC16 JUMP JUMPDEST POP RETURNDATASIZE PUSH2 0xC34 JUMP JUMPDEST MLOAD RETURNDATASIZE DUP8 DUP3 RETURNDATACOPY RETURNDATASIZE SWAP1 REVERT JUMPDEST SWAP5 POP SWAP5 DUP1 SWAP3 POP DUP5 SWAP2 POP RETURNDATASIZE DUP4 GT PUSH2 0xC8D JUMPI JUMPDEST PUSH2 0xC78 DUP2 DUP4 PUSH2 0x160C JUMP JUMPDEST DUP2 ADD SUB SLT PUSH2 0x550 JUMPI DUP6 SWAP3 DUP10 DUP7 SWAP4 MLOAD SWAP2 PUSH0 PUSH2 0xBD0 JUMP JUMPDEST POP RETURNDATASIZE PUSH2 0xC6E JUMP JUMPDEST DUP6 MLOAD RETURNDATASIZE DUP5 DUP3 RETURNDATACOPY RETURNDATASIZE SWAP1 REVERT JUMPDEST DUP8 DUP1 SWAP3 SWAP5 POP DUP2 SWAP4 POP RETURNDATASIZE DUP4 GT PUSH2 0xCCA JUMPI JUMPDEST PUSH2 0xCB8 DUP2 DUP4 PUSH2 0x160C JUMP JUMPDEST DUP2 ADD SUB SLT PUSH2 0x550 JUMPI DUP9 SWAP1 MLOAD SWAP2 PUSH0 PUSH2 0xBA1 JUMP JUMPDEST POP RETURNDATASIZE PUSH2 0xCAE JUMP JUMPDEST PUSH2 0xCDA SWAP1 PUSH2 0x15E4 JUMP JUMPDEST PUSH2 0x4DF JUMPI DUP4 PUSH0 PUSH2 0xB3B JUMP JUMPDEST PUSH4 0x4E487B71 PUSH1 0xE0 SHL DUP6 MSTORE PUSH1 0x21 DUP4 MSTORE PUSH1 0x24 DUP6 REVERT JUMPDEST POP POP CALLVALUE PUSH2 0x131 JUMPI DUP2 PUSH1 0x3 NOT CALLDATASIZE ADD SLT PUSH2 0x131 JUMPI PUSH1 0x20 SWAP1 PUSH2 0x151 PUSH2 0x45B PUSH2 0x1933 JUMP JUMPDEST DUP4 DUP4 CALLVALUE PUSH2 0x131 JUMPI PUSH1 0x20 SWAP3 DUP4 PUSH1 0x3 NOT CALLDATASIZE ADD SLT PUSH2 0x4ED JUMPI DUP1 CALLDATALOAD PUSH1 0x1 PUSH1 0x1 PUSH1 0xA0 SHL SUB DUP2 DUP2 AND SWAP2 DUP3 SWAP1 SUB PUSH2 0x9F6 JUMPI SWAP1 PUSH1 0x24 DUP7 SWAP3 PUSH1 0x8 SLOAD AND SWAP4 DUP6 MLOAD SWAP5 DUP6 SWAP4 DUP5 SWAP3 PUSH4 0x70A08231 PUSH1 0xE0 SHL DUP5 MSTORE DUP4 ADD MSTORE GAS STATICCALL SWAP3 DUP4 ISZERO PUSH2 0xDA5 JUMPI SWAP3 PUSH2 0xD76 JUMPI JUMPDEST POP MLOAD SWAP1 DUP2 MSTORE RETURN JUMPDEST SWAP1 SWAP2 POP DUP3 DUP2 DUP2 RETURNDATASIZE DUP4 GT PUSH2 0xD9E JUMPI JUMPDEST PUSH2 0xD8E DUP2 DUP4 PUSH2 0x160C JUMP JUMPDEST DUP2 ADD SUB SLT PUSH2 0x550 JUMPI MLOAD SWAP1 DUP4 PUSH2 0xD6F JUMP JUMPDEST POP RETURNDATASIZE PUSH2 0xD84 JUMP JUMPDEST DUP3 MLOAD SWAP1 RETURNDATASIZE SWAP1 DUP3 RETURNDATACOPY RETURNDATASIZE SWAP1 REVERT JUMPDEST POP POP CALLVALUE PUSH2 0x131 JUMPI DUP2 PUSH1 0x3 NOT CALLDATASIZE ADD SLT PUSH2 0x131 JUMPI PUSH1 0x20 SWAP1 PUSH1 0xB SLOAD SWAP1 MLOAD SWAP1 DUP2 MSTORE RETURN JUMPDEST POP POP CALLVALUE PUSH2 0x131 JUMPI DUP2 PUSH1 0x3 NOT CALLDATASIZE ADD SLT PUSH2 0x131 JUMPI PUSH1 0x20 SWAP1 PUSH1 0xA SLOAD SWAP1 MLOAD SWAP1 DUP2 MSTORE RETURN JUMPDEST SWAP2 SWAP1 POP CALLVALUE PUSH2 0x4ED JUMPI DUP3 PUSH1 0x3 NOT CALLDATASIZE ADD SLT PUSH2 0x4ED JUMPI PUSH2 0xE09 PUSH2 0x1590 JUMP JUMPDEST PUSH1 0xE SLOAD PUSH1 0x1 PUSH1 0x1 PUSH1 0xA0 SHL SUB SWAP2 SWAP1 DUP3 AND CALLER SUB PUSH2 0x1331 JUMPI PUSH1 0xFF DUP4 SLOAD PUSH1 0xA0 SHR AND PUSH1 0x6 DUP2 LT ISZERO PUSH2 0x131E JUMPI PUSH1 0x2 SUB PUSH2 0x12C5 JUMPI PUSH2 0xE41 PUSH2 0x45B PUSH2 0x1933 JUMP JUMPDEST PUSH2 0xE49 PUSH2 0x1933 JUMP JUMPDEST DUP2 SUB SWAP3 DUP2 DUP5 GT PUSH2 0x12B2 JUMPI PUSH1 0x7 SLOAD DUP4 MLOAD PUSH4 0x6EB1769F PUSH1 0xE1 SHL DUP2 MSTORE CALLER DUP8 DUP3 ADD SWAP1 DUP2 MSTORE ADDRESS PUSH1 0x20 DUP3 DUP2 ADD SWAP2 SWAP1 SWAP2 MSTORE SWAP7 SWAP3 DUP5 AND SWAP2 SWAP1 DUP8 SWAP1 DUP3 SWAP1 DUP2 SWAP1 PUSH1 0x40 ADD SUB DUP2 DUP6 GAS STATICCALL SWAP1 DUP2 ISZERO PUSH2 0x12A8 JUMPI SWAP1 DUP6 SWAP2 DUP11 SWAP2 PUSH2 0x1277 JUMPI JUMPDEST POP LT PUSH2 0x1220 JUMPI DUP5 MLOAD PUSH4 0x70A08231 PUSH1 0xE0 SHL DUP1 DUP3 MSTORE CALLER DUP10 DUP4 ADD MSTORE SWAP5 SWAP1 DUP8 DUP2 PUSH1 0x24 DUP2 DUP7 GAS STATICCALL SWAP1 DUP2 ISZERO PUSH2 0x1216 JUMPI DUP11 SWAP2 PUSH2 0x11E9 JUMPI JUMPDEST POP LT PUSH2 0x1194 JUMPI PUSH1 0x5 SLOAD DUP6 MLOAD PUSH4 0x23B872DD PUSH1 0xE0 SHL DUP2 MSTORE CALLER DUP10 DUP3 ADD SWAP1 DUP2 MSTORE SWAP2 DUP6 AND PUSH1 0x1 PUSH1 0x1 PUSH1 0xA0 SHL SUB AND PUSH1 0x20 DUP4 ADD MSTORE PUSH1 0x40 DUP3 ADD DUP5 SWAP1 MSTORE DUP10 SWAP4 SWAP3 SWAP1 SWAP2 DUP9 SWAP2 DUP4 SWAP2 DUP3 SWAP1 DUP8 SWAP1 DUP3 SWAP1 PUSH1 0x60 ADD SUB SWAP3 GAS CALL DUP1 ISZERO PUSH2 0x1159 JUMPI PUSH2 0x1177 JUMPI JUMPDEST POP DUP3 PUSH1 0x3 SLOAD AND DUP1 EXTCODESIZE ISZERO PUSH2 0x4ED JUMPI DUP6 MLOAD PUSH4 0x56F78A1D PUSH1 0xE0 SHL DUP2 MSTORE ADDRESS DUP2 DUP11 ADD SWAP1 DUP2 MSTORE CALLER PUSH1 0x20 DUP3 ADD MSTORE SWAP1 SWAP2 DUP5 SWAP2 DUP4 SWAP2 SWAP1 DUP3 SWAP1 DUP5 SWAP1 DUP3 SWAP1 PUSH1 0x40 ADD SUB SWAP3 GAS CALL DUP1 ISZERO PUSH2 0x1159 JUMPI SWAP1 DUP4 SWAP2 PUSH2 0x1163 JUMPI JUMPDEST POP POP DUP3 PUSH1 0x8 SLOAD AND SWAP1 DUP6 MLOAD SWAP1 PUSH4 0x63737AC9 PUSH1 0xE1 SHL DUP3 MSTORE DUP9 DUP3 ADD MSTORE DUP7 DUP2 PUSH1 0x24 DUP2 DUP6 GAS STATICCALL SWAP1 DUP2 ISZERO PUSH2 0x1159 JUMPI SWAP1 DUP8 SWAP3 SWAP2 DUP5 SWAP2 PUSH2 0x1124 JUMPI JUMPDEST POP DUP7 MLOAD PUSH4 0x5D043B29 PUSH1 0xE1 SHL DUP2 MSTORE DUP10 DUP2 ADD SWAP2 DUP3 MSTORE CALLER PUSH1 0x20 DUP4 ADD DUP2 SWAP1 MSTORE PUSH1 0x40 DUP4 ADD MSTORE SWAP4 DUP5 SWAP3 SWAP2 DUP4 SWAP2 SWAP1 DUP3 SWAP1 PUSH1 0x60 ADD JUMPDEST SUB SWAP3 GAS CALL DUP1 ISZERO PUSH2 0x111A JUMPI SWAP1 DUP6 SWAP2 PUSH2 0x10F1 JUMPI JUMPDEST POP POP DUP5 SLOAD PUSH1 0xFF PUSH1 0xA0 SHL NOT AND PUSH1 0x1 PUSH1 0xA2 SHL OR DUP6 SSTORE PUSH1 0x7 SLOAD DUP4 MLOAD SWAP3 DUP4 MSTORE ADDRESS DUP4 DUP8 ADD MSTORE AND SWAP4 DUP4 DUP3 PUSH1 0x24 DUP2 DUP9 GAS STATICCALL SWAP2 DUP3 ISZERO PUSH2 0x10E7 JUMPI DUP7 SWAP3 PUSH2 0x10B6 JUMPI JUMPDEST POP DUP3 MLOAD PUSH4 0xA9059CBB PUSH1 0xE0 SHL DUP2 MSTORE CALLER SWAP2 DUP2 ADD SWAP2 DUP3 MSTORE PUSH1 0x20 DUP3 ADD SWAP3 SWAP1 SWAP3 MSTORE SWAP1 SWAP4 DUP4 SWAP2 DUP6 SWAP2 SWAP1 DUP3 SWAP1 DUP9 SWAP1 DUP3 SWAP1 PUSH1 0x40 ADD JUMPDEST SUB SWAP3 GAS CALL SWAP3 DUP4 ISZERO PUSH2 0x10AC JUMPI PUSH32 0x4002DBA848920F438092E08090CFB5FC47144C22704268B402C9553A1B5ADFE6 SWAP4 PUSH2 0x108F JUMPI JUMPDEST POP PUSH2 0x1077 PUSH2 0x1807 JUMP JUMPDEST PUSH2 0x1082 PUSH2 0x45B PUSH2 0x1933 JUMP JUMPDEST SWAP1 MLOAD SWAP1 DUP2 MSTORE LOG1 PUSH1 0x1 DUP2 SSTORE DUP1 RETURN JUMPDEST PUSH2 0x10A5 SWAP1 DUP4 RETURNDATASIZE DUP6 GT PUSH2 0x517 JUMPI PUSH2 0x508 DUP2 DUP4 PUSH2 0x160C JUMP JUMPDEST POP PUSH0 PUSH2 0x106E JUMP JUMPDEST DUP2 MLOAD RETURNDATASIZE DUP7 DUP3 RETURNDATACOPY RETURNDATASIZE SWAP1 REVERT JUMPDEST SWAP2 POP DUP4 DUP3 DUP2 RETURNDATASIZE DUP4 GT PUSH2 0x10E0 JUMPI JUMPDEST PUSH2 0x10CD DUP2 DUP4 PUSH2 0x160C JUMP JUMPDEST DUP2 ADD SUB SLT PUSH2 0x550 JUMPI SWAP1 MLOAD SWAP1 PUSH2 0x103C PUSH2 0x100F JUMP JUMPDEST POP RETURNDATASIZE PUSH2 0x10C3 JUMP JUMPDEST DUP4 MLOAD RETURNDATASIZE DUP9 DUP3 RETURNDATACOPY RETURNDATASIZE SWAP1 REVERT JUMPDEST DUP2 RETURNDATASIZE DUP4 GT PUSH2 0x1113 JUMPI JUMPDEST PUSH2 0x1104 DUP2 DUP4 PUSH2 0x160C JUMP JUMPDEST DUP2 ADD SUB SLT PUSH2 0x550 JUMPI DUP4 PUSH0 PUSH2 0xFD7 JUMP JUMPDEST POP RETURNDATASIZE PUSH2 0x10FA JUMP JUMPDEST DUP5 MLOAD RETURNDATASIZE DUP10 DUP3 RETURNDATACOPY RETURNDATASIZE SWAP1 REVERT JUMPDEST SWAP4 POP POP SWAP1 DUP3 DUP2 RETURNDATASIZE DUP4 GT PUSH2 0x1152 JUMPI JUMPDEST PUSH2 0x113C DUP2 DUP4 PUSH2 0x160C JUMP JUMPDEST DUP2 ADD SUB SLT PUSH2 0x550 JUMPI SWAP1 MLOAD DUP8 SWAP2 DUP7 SWAP2 PUSH2 0xFC5 PUSH2 0xF98 JUMP JUMPDEST POP RETURNDATASIZE PUSH2 0x1132 JUMP JUMPDEST DUP7 MLOAD RETURNDATASIZE DUP6 DUP3 RETURNDATACOPY RETURNDATASIZE SWAP1 REVERT JUMPDEST PUSH2 0x116C SWAP1 PUSH2 0x15E4 JUMP JUMPDEST PUSH2 0x131 JUMPI DUP2 PUSH0 PUSH2 0xF65 JUMP JUMPDEST PUSH2 0x118D SWAP1 DUP8 RETURNDATASIZE DUP10 GT PUSH2 0x517 JUMPI PUSH2 0x508 DUP2 DUP4 PUSH2 0x160C JUMP JUMPDEST POP PUSH0 PUSH2 0xF1D JUMP JUMPDEST DUP5 MLOAD PUSH3 0x461BCD PUSH1 0xE5 SHL DUP2 MSTORE DUP1 DUP9 ADD DUP8 SWAP1 MSTORE PUSH1 0x29 PUSH1 0x24 DUP3 ADD MSTORE PUSH32 0x496E73756666696369656E7420746F6B656E2062616C616E636520666F722072 PUSH1 0x44 DUP3 ADD MSTORE PUSH9 0x32B830BCB6B2B73A17 PUSH1 0xB9 SHL PUSH1 0x64 DUP3 ADD MSTORE PUSH1 0x84 SWAP1 REVERT JUMPDEST SWAP1 POP DUP8 DUP2 DUP2 RETURNDATASIZE DUP4 GT PUSH2 0x120F JUMPI JUMPDEST PUSH2 0x1200 DUP2 DUP4 PUSH2 0x160C JUMP JUMPDEST DUP2 ADD SUB SLT PUSH2 0x550 JUMPI MLOAD PUSH0 PUSH2 0xEC8 JUMP JUMPDEST POP RETURNDATASIZE PUSH2 0x11F6 JUMP JUMPDEST DUP8 MLOAD RETURNDATASIZE DUP13 DUP3 RETURNDATACOPY RETURNDATASIZE SWAP1 REVERT JUMPDEST DUP5 MLOAD PUSH3 0x461BCD PUSH1 0xE5 SHL DUP2 MSTORE DUP1 DUP9 ADD DUP8 SWAP1 MSTORE PUSH1 0x2B PUSH1 0x24 DUP3 ADD MSTORE PUSH32 0x496E73756666696369656E7420746F6B656E20616C6C6F77616E636520666F72 PUSH1 0x44 DUP3 ADD MSTORE PUSH11 0x103932B830BCB6B2B73A17 PUSH1 0xA9 SHL PUSH1 0x64 DUP3 ADD MSTORE PUSH1 0x84 SWAP1 REVERT JUMPDEST DUP1 SWAP3 POP DUP9 DUP1 SWAP3 POP RETURNDATASIZE DUP4 GT PUSH2 0x12A1 JUMPI JUMPDEST PUSH2 0x1290 DUP2 DUP4 PUSH2 0x160C JUMP JUMPDEST DUP2 ADD SUB SLT PUSH2 0x550 JUMPI DUP5 SWAP1 MLOAD PUSH0 PUSH2 0xE98 JUMP JUMPDEST POP RETURNDATASIZE PUSH2 0x1286 JUMP JUMPDEST DUP7 MLOAD RETURNDATASIZE DUP12 DUP3 RETURNDATACOPY RETURNDATASIZE SWAP1 REVERT JUMPDEST PUSH4 0x4E487B71 PUSH1 0xE0 SHL DUP7 MSTORE PUSH1 0x11 DUP6 MSTORE PUSH1 0x24 DUP7 REVERT JUMPDEST MLOAD PUSH3 0x461BCD PUSH1 0xE5 SHL DUP2 MSTORE PUSH1 0x20 DUP2 DUP5 ADD MSTORE PUSH1 0x2E PUSH1 0x24 DUP3 ADD MSTORE PUSH32 0x4C6F616E206D7573742062652061637469766520746F2070726F636565642077 PUSH1 0x44 DUP3 ADD MSTORE PUSH14 0x34BA34103932B830BCB6B2B73A17 PUSH1 0x91 SHL PUSH1 0x64 DUP3 ADD MSTORE PUSH1 0x84 SWAP1 REVERT JUMPDEST PUSH4 0x4E487B71 PUSH1 0xE0 SHL DUP6 MSTORE PUSH1 0x21 DUP5 MSTORE PUSH1 0x24 DUP6 REVERT JUMPDEST MLOAD PUSH3 0x461BCD PUSH1 0xE5 SHL DUP2 MSTORE PUSH1 0x20 DUP2 DUP5 ADD MSTORE PUSH1 0x29 PUSH1 0x24 DUP3 ADD MSTORE PUSH32 0x4F6E6C792074686520626F72726F7765722063616E20696E6974696174652072 PUSH1 0x44 DUP3 ADD MSTORE PUSH9 0x32B830BCB6B2B73A17 PUSH1 0xB9 SHL PUSH1 0x64 DUP3 ADD MSTORE PUSH1 0x84 SWAP1 REVERT JUMPDEST DUP4 DUP4 CALLVALUE PUSH2 0x131 JUMPI DUP2 PUSH1 0x3 NOT CALLDATASIZE ADD SLT PUSH2 0x131 JUMPI DUP3 SLOAD PUSH1 0xFF DUP2 PUSH1 0xA0 SHR AND PUSH1 0x6 DUP2 LT ISZERO PUSH2 0x1498 JUMPI PUSH1 0x2 PUSH2 0x13B5 SWAP2 EQ PUSH2 0x1646 JUMP JUMPDEST PUSH2 0x13C4 PUSH1 0xF SLOAD PUSH1 0xB SLOAD SWAP1 PUSH2 0x1687 JUMP JUMPDEST TIMESTAMP LT ISZERO PUSH2 0x13CF JUMPI DUP3 DUP1 RETURN JUMPDEST PUSH1 0xFF PUSH1 0xA0 SHL NOT AND PUSH1 0x3 PUSH1 0xA0 SHL OR DUP4 SSTORE PUSH2 0x13E6 PUSH2 0x16A8 JUMP JUMPDEST PUSH1 0x3 SLOAD PUSH1 0x5 SLOAD PUSH1 0x1 PUSH1 0x1 PUSH1 0xA0 SHL SUB SWAP5 SWAP1 DUP6 AND SWAP2 DUP6 AND SWAP1 DUP2 EXTCODESIZE ISZERO PUSH2 0x9F6 JUMPI DUP4 MLOAD PUSH4 0x389E0067 PUSH1 0xE1 SHL DUP2 MSTORE ADDRESS SWAP2 DUP2 ADD SWAP2 DUP3 MSTORE PUSH1 0x1 PUSH1 0x1 PUSH1 0xA0 SHL SUB SWAP1 SWAP4 AND PUSH1 0x20 DUP3 ADD MSTORE SWAP2 SWAP3 SWAP2 DUP5 SWAP2 DUP5 SWAP2 DUP3 SWAP1 DUP5 SWAP1 DUP3 SWAP1 PUSH1 0x40 ADD SUB SWAP3 GAS CALL SWAP1 DUP2 ISZERO PUSH2 0x148F JUMPI POP PUSH2 0x1480 JUMPI JUMPDEST POP SWAP1 PUSH2 0x1451 PUSH2 0x1807 JUMP JUMPDEST PUSH1 0xE SLOAD AND PUSH32 0xF4E5CF42CBB1D0C6C91E16D925349FEB6C5D970652F6EC77B1FF1262F7284CD5 PUSH0 DUP1 LOG2 DUP1 DUP3 DUP1 DUP3 DUP1 RETURN JUMPDEST PUSH2 0x1489 SWAP1 PUSH2 0x15E4 JUMP JUMPDEST DUP3 PUSH2 0x1447 JUMP JUMPDEST MLOAD RETURNDATASIZE DUP5 DUP3 RETURNDATACOPY RETURNDATASIZE SWAP1 REVERT JUMPDEST PUSH4 0x4E487B71 PUSH1 0xE0 SHL DUP5 MSTORE PUSH1 0x21 DUP6 MSTORE PUSH1 0x24 DUP5 REVERT JUMPDEST POP POP CALLVALUE PUSH2 0x131 JUMPI DUP2 PUSH1 0x3 NOT CALLDATASIZE ADD SLT PUSH2 0x131 JUMPI PUSH1 0x20 SWAP1 PUSH1 0x10 SLOAD SWAP1 MLOAD SWAP1 DUP2 MSTORE RETURN JUMPDEST POP POP CALLVALUE PUSH2 0x131 JUMPI DUP2 PUSH1 0x3 NOT CALLDATASIZE ADD SLT PUSH2 0x131 JUMPI PUSH1 0xE SLOAD SWAP1 MLOAD PUSH1 0x1 PUSH1 0x1 PUSH1 0xA0 SHL SUB SWAP1 SWAP2 AND DUP2 MSTORE PUSH1 0x20 SWAP1 RETURN JUMPDEST POP POP CALLVALUE PUSH2 0x131 JUMPI DUP2 PUSH1 0x3 NOT CALLDATASIZE ADD SLT PUSH2 0x131 JUMPI PUSH1 0x1 SLOAD SWAP1 MLOAD PUSH1 0x1 PUSH1 0x1 PUSH1 0xA0 SHL SUB SWAP1 SWAP2 AND DUP2 MSTORE PUSH1 0x20 SWAP1 RETURN JUMPDEST SWAP1 POP CALLVALUE PUSH2 0x4ED JUMPI DUP3 PUSH1 0x3 NOT CALLDATASIZE ADD SLT PUSH2 0x4ED JUMPI SLOAD SWAP1 MLOAD PUSH1 0x1 PUSH1 0x1 PUSH1 0xA0 SHL SUB SWAP1 SWAP2 AND DUP2 MSTORE PUSH1 0x20 SWAP2 POP RETURN JUMPDEST DUP5 SWAP1 CALLVALUE PUSH2 0x131 JUMPI DUP2 PUSH1 0x3 NOT CALLDATASIZE ADD SLT PUSH2 0x131 JUMPI PUSH1 0x7 SLOAD PUSH1 0x1 PUSH1 0x1 PUSH1 0xA0 SHL SUB AND DUP2 MSTORE PUSH1 0x20 SWAP1 RETURN JUMPDEST SWAP2 SWAP1 PUSH1 0x20 DUP4 ADD SWAP3 PUSH1 0x6 DUP3 LT ISZERO PUSH2 0x157C JUMPI MSTORE JUMP JUMPDEST PUSH4 0x4E487B71 PUSH1 0xE0 SHL PUSH0 MSTORE PUSH1 0x21 PUSH1 0x4 MSTORE PUSH1 0x24 PUSH0 REVERT JUMPDEST PUSH1 0x2 PUSH0 SLOAD EQ PUSH2 0x159F JUMPI PUSH1 0x2 PUSH0 SSTORE JUMP JUMPDEST PUSH1 0x40 MLOAD PUSH3 0x461BCD PUSH1 0xE5 SHL DUP2 MSTORE PUSH1 0x20 PUSH1 0x4 DUP3 ADD MSTORE PUSH1 0x1F PUSH1 0x24 DUP3 ADD MSTORE PUSH32 0x5265656E7472616E637947756172643A207265656E7472616E742063616C6C00 PUSH1 0x44 DUP3 ADD MSTORE PUSH1 0x64 SWAP1 REVERT JUMPDEST PUSH8 0xFFFFFFFFFFFFFFFF DUP2 GT PUSH2 0x15F8 JUMPI PUSH1 0x40 MSTORE JUMP JUMPDEST PUSH4 0x4E487B71 PUSH1 0xE0 SHL PUSH0 MSTORE PUSH1 0x41 PUSH1 0x4 MSTORE PUSH1 0x24 PUSH0 REVERT JUMPDEST SWAP1 PUSH1 0x1F DUP1 NOT SWAP2 ADD AND DUP2 ADD SWAP1 DUP2 LT PUSH8 0xFFFFFFFFFFFFFFFF DUP3 GT OR PUSH2 0x15F8 JUMPI PUSH1 0x40 MSTORE JUMP JUMPDEST SWAP1 DUP2 PUSH1 0x20 SWAP2 SUB SLT PUSH2 0x550 JUMPI MLOAD DUP1 ISZERO ISZERO DUP2 SUB PUSH2 0x550 JUMPI SWAP1 JUMP JUMPDEST ISZERO PUSH2 0x164D JUMPI JUMP JUMPDEST PUSH1 0x40 MLOAD PUSH3 0x461BCD PUSH1 0xE5 SHL DUP2 MSTORE PUSH1 0x20 PUSH1 0x4 DUP3 ADD MSTORE PUSH1 0x12 PUSH1 0x24 DUP3 ADD MSTORE PUSH18 0x4C6F616E206973206E6F7420616374697665 PUSH1 0x70 SHL PUSH1 0x44 DUP3 ADD MSTORE PUSH1 0x64 SWAP1 REVERT JUMPDEST SWAP2 SWAP1 DUP3 ADD DUP1 SWAP3 GT PUSH2 0x1694 JUMPI JUMP JUMPDEST PUSH4 0x4E487B71 PUSH1 0xE0 SHL PUSH0 MSTORE PUSH1 0x11 PUSH1 0x4 MSTORE PUSH1 0x24 PUSH0 REVERT JUMPDEST PUSH1 0x8 SLOAD PUSH1 0xE SLOAD PUSH1 0x40 DUP1 MLOAD PUSH4 0x70A08231 PUSH1 0xE0 SHL DUP2 MSTORE PUSH1 0x1 PUSH1 0x1 PUSH1 0xA0 SHL SUB SWAP3 DUP4 AND PUSH1 0x4 DUP3 ADD DUP2 SWAP1 MSTORE PUSH1 0x20 SWAP5 SWAP2 SWAP4 SWAP1 SWAP2 DUP2 AND SWAP1 DUP6 DUP6 PUSH1 0x24 DUP2 DUP6 GAS STATICCALL SWAP5 DUP6 ISZERO PUSH2 0x17CE JUMPI PUSH0 SWAP6 PUSH2 0x17D8 JUMPI JUMPDEST POP DUP4 MLOAD SWAP5 PUSH4 0x63737AC9 PUSH1 0xE1 SHL DUP7 MSTORE PUSH1 0x4 DUP7 ADD MSTORE DUP6 DUP6 PUSH1 0x24 DUP2 DUP6 GAS STATICCALL SWAP5 DUP6 ISZERO PUSH2 0x17CE JUMPI SWAP1 DUP7 SWAP4 SWAP3 SWAP2 PUSH0 SWAP7 PUSH2 0x1796 JUMPI JUMPDEST POP PUSH1 0x5 SLOAD DUP6 MLOAD PUSH4 0x5D043B29 PUSH1 0xE1 SHL DUP2 MSTORE PUSH1 0x4 DUP2 ADD SWAP8 SWAP1 SWAP8 MSTORE AND PUSH1 0x1 PUSH1 0x1 PUSH1 0xA0 SHL SUB SWAP1 DUP2 AND PUSH1 0x24 DUP8 ADD MSTORE SWAP2 SWAP1 SWAP2 AND PUSH1 0x44 DUP6 ADD MSTORE DUP4 SWAP1 PUSH1 0x64 SWAP1 DUP3 SWAP1 PUSH0 SWAP1 GAS CALL SWAP1 DUP2 ISZERO PUSH2 0x178D JUMPI POP PUSH2 0x1769 JUMPI POP POP JUMP JUMPDEST DUP2 RETURNDATASIZE DUP4 GT PUSH2 0x1786 JUMPI JUMPDEST PUSH2 0x177C DUP2 DUP4 PUSH2 0x160C JUMP JUMPDEST DUP2 ADD SUB SLT PUSH2 0x550 JUMPI JUMP JUMPDEST POP RETURNDATASIZE PUSH2 0x1772 JUMP JUMPDEST MLOAD RETURNDATASIZE PUSH0 DUP3 RETURNDATACOPY RETURNDATASIZE SWAP1 REVERT JUMPDEST SWAP2 SWAP4 DUP3 DUP2 SWAP8 SWAP3 SWAP5 SWAP7 SWAP8 RETURNDATASIZE DUP4 GT PUSH2 0x17C7 JUMPI JUMPDEST PUSH2 0x17B1 DUP2 DUP4 PUSH2 0x160C JUMP JUMPDEST DUP2 ADD SUB SLT PUSH2 0x1AD JUMPI POP MLOAD SWAP4 SWAP3 DUP6 SWAP3 SWAP1 SWAP2 PUSH0 PUSH2 0x171C JUMP JUMPDEST POP RETURNDATASIZE PUSH2 0x17A7 JUMP JUMPDEST DUP5 MLOAD RETURNDATASIZE PUSH0 DUP3 RETURNDATACOPY RETURNDATASIZE SWAP1 REVERT JUMPDEST SWAP1 SWAP5 DUP7 DUP3 DUP2 RETURNDATASIZE DUP4 GT PUSH2 0x1800 JUMPI JUMPDEST PUSH2 0x17EF DUP2 DUP4 PUSH2 0x160C JUMP JUMPDEST DUP2 ADD SUB SLT PUSH2 0x1AD JUMPI POP MLOAD SWAP4 PUSH0 PUSH2 0x16EE JUMP JUMPDEST POP RETURNDATASIZE PUSH2 0x17E5 JUMP JUMPDEST PUSH1 0x4 DUP1 SLOAD PUSH1 0xFF PUSH1 0xA0 SHL NOT AND PUSH1 0x5 PUSH1 0xA0 SHL OR DUP2 SSTORE PUSH1 0x2 SLOAD PUSH0 SWAP2 PUSH1 0x1 PUSH1 0x1 PUSH1 0xA0 SHL SUB SWAP2 DUP3 AND SWAP2 SWAP1 DUP3 EXTCODESIZE ISZERO PUSH2 0x4DF JUMPI PUSH1 0x40 SWAP2 DUP3 MLOAD DUP6 DUP2 PUSH1 0x24 DUP2 DUP4 PUSH4 0x7E72C7D7 PUSH1 0xE0 SHL SWAP10 DUP11 DUP4 MSTORE ADDRESS DUP10 DUP5 ADD MSTORE GAS CALL DUP1 ISZERO PUSH2 0x1912 JUMPI PUSH2 0x1920 JUMPI JUMPDEST POP DUP1 PUSH1 0x3 SLOAD AND DUP1 EXTCODESIZE ISZERO PUSH2 0x191C JUMPI DUP6 DUP1 SWAP2 PUSH1 0x24 DUP7 MLOAD DUP1 SWAP5 DUP2 SWAP4 PUSH4 0x38E270ED PUSH1 0xE0 SHL DUP4 MSTORE ADDRESS DUP10 DUP5 ADD MSTORE GAS CALL DUP1 ISZERO PUSH2 0x1912 JUMPI SWAP1 DUP7 SWAP2 PUSH2 0x18FE JUMPI JUMPDEST POP POP DUP2 SLOAD AND SWAP3 DUP4 EXTCODESIZE ISZERO PUSH2 0x9F6 JUMPI SWAP1 PUSH1 0x24 DUP6 SWAP3 DUP4 DUP6 MLOAD SWAP7 DUP8 SWAP5 DUP6 SWAP4 DUP5 MSTORE ADDRESS SWAP1 DUP5 ADD MSTORE GAS CALL SWAP1 DUP2 ISZERO PUSH2 0x148F JUMPI POP PUSH2 0x18EA JUMPI JUMPDEST POP DUP1 PUSH32 0x409FCED1B85AE32A29FB1E18894D8361A5F2653DC27ADF7102D86175C2901D7C SWAP2 LOG1 JUMP JUMPDEST PUSH2 0x18F4 DUP3 SWAP2 PUSH2 0x15E4 JUMP JUMPDEST PUSH2 0x1AD JUMPI PUSH0 PUSH2 0x18C3 JUMP JUMPDEST PUSH2 0x1907 SWAP1 PUSH2 0x15E4 JUMP JUMPDEST PUSH2 0x9F6 JUMPI DUP5 PUSH0 PUSH2 0x1893 JUMP JUMPDEST DUP5 MLOAD RETURNDATASIZE DUP9 DUP3 RETURNDATACOPY RETURNDATASIZE SWAP1 REVERT JUMPDEST DUP6 DUP1 REVERT JUMPDEST PUSH2 0x192C SWAP1 SWAP6 SWAP2 SWAP6 PUSH2 0x15E4 JUMP JUMPDEST SWAP4 PUSH0 PUSH2 0x185C JUMP JUMPDEST PUSH1 0xD SLOAD PUSH1 0x9 SLOAD PUSH1 0xA SLOAD PUSH1 0x40 MLOAD PUSH4 0xEFDD7C07 PUSH1 0xE0 SHL DUP2 MSTORE PUSH1 0x4 DUP2 ADD SWAP3 SWAP1 SWAP3 MSTORE PUSH1 0x24 DUP3 ADD MSTORE SWAP1 PUSH1 0x20 SWAP1 DUP3 SWAP1 PUSH1 0x44 SWAP1 DUP3 SWAP1 PUSH1 0x1 PUSH1 0x1 PUSH1 0xA0 SHL SUB AND GAS STATICCALL SWAP1 DUP2 ISZERO PUSH2 0x19AB JUMPI PUSH0 SWAP2 PUSH2 0x197D JUMPI POP SWAP1 JUMP JUMPDEST SWAP1 PUSH1 0x20 DUP3 RETURNDATASIZE DUP3 GT PUSH2 0x19A3 JUMPI JUMPDEST DUP2 PUSH2 0x1996 PUSH1 0x20 SWAP4 DUP4 PUSH2 0x160C JUMP JUMPDEST DUP2 ADD SUB SLT PUSH2 0x1AD JUMPI POP MLOAD SWAP1 JUMP JUMPDEST RETURNDATASIZE SWAP2 POP PUSH2 0x1989 JUMP JUMPDEST PUSH1 0x40 MLOAD RETURNDATASIZE PUSH0 DUP3 RETURNDATACOPY RETURNDATASIZE SWAP1 REVERT INVALID LOG2 PUSH5 0x6970667358 0x22 SLT KECCAK256 0xDC PUSH29 0xF4754864561675DD2404546384EB4669C21EEEA1C402D55715AF4EE83E 0xE6 PUSH5 0x736F6C6343 STOP ADDMOD EQ STOP CALLER PUSH1 0xC0 DUP1 PUSH1 0x40 MSTORE CALLVALUE PUSH3 0x368 JUMPI PUSH3 0x15AF DUP1 CODESIZE SUB DUP1 SWAP2 PUSH3 0x20 DUP3 DUP6 PUSH3 0x36C JUMP JUMPDEST DUP4 CODECOPY DUP2 ADD SWAP1 PUSH1 0x60 DUP2 DUP4 SUB SLT PUSH3 0x368 JUMPI DUP1 MLOAD SWAP2 PUSH1 0x1 PUSH1 0x1 PUSH1 0xA0 SHL SUB DUP4 AND DUP4 SUB PUSH3 0x368 JUMPI PUSH1 0x20 DUP3 DUP2 ADD MLOAD SWAP1 SWAP3 PUSH1 0x1 PUSH1 0x1 PUSH1 0x40 SHL SUB SWAP2 DUP3 DUP2 GT PUSH3 0x368 JUMPI DUP4 PUSH3 0x6B SWAP2 DUP4 ADD PUSH3 0x3AC JUMP JUMPDEST SWAP3 PUSH1 0x40 DUP3 ADD MLOAD DUP4 DUP2 GT PUSH3 0x368 JUMPI PUSH3 0x85 SWAP3 ADD PUSH3 0x3AC JUMP JUMPDEST DUP3 MLOAD DUP3 DUP2 GT PUSH3 0x273 JUMPI PUSH1 0x3 SWAP2 DUP3 SLOAD SWAP2 PUSH1 0x1 SWAP6 DUP7 DUP5 DUP2 SHR SWAP5 AND DUP1 ISZERO PUSH3 0x35D JUMPI JUMPDEST DUP9 DUP6 LT EQ PUSH3 0x349 JUMPI DUP2 SWAP1 PUSH1 0x1F SWAP5 DUP6 DUP2 GT PUSH3 0x2F6 JUMPI JUMPDEST POP DUP9 SWAP1 DUP6 DUP4 GT PUSH1 0x1 EQ PUSH3 0x293 JUMPI PUSH0 SWAP3 PUSH3 0x287 JUMPI JUMPDEST POP POP PUSH0 NOT DUP3 DUP7 SHL SHR NOT AND SWAP1 DUP7 SHL OR DUP4 SSTORE JUMPDEST DUP1 MLOAD SWAP4 DUP5 GT PUSH3 0x273 JUMPI PUSH1 0x4 SWAP6 DUP7 SLOAD DUP7 DUP2 DUP2 SHR SWAP2 AND DUP1 ISZERO PUSH3 0x268 JUMPI JUMPDEST DUP3 DUP3 LT EQ PUSH3 0x255 JUMPI DUP4 DUP2 GT PUSH3 0x20D JUMPI JUMPDEST POP DUP1 SWAP3 DUP6 GT PUSH1 0x1 EQ PUSH3 0x1A3 JUMPI POP SWAP4 DUP4 SWAP5 SWAP2 DUP5 SWAP3 PUSH0 SWAP6 PUSH3 0x197 JUMPI JUMPDEST POP POP SHL SWAP3 PUSH0 NOT SWAP2 SHL SHR NOT AND OR SWAP1 SSTORE JUMPDEST PUSH3 0x149 DUP2 PUSH3 0x414 JUMP JUMPDEST SWAP1 ISZERO PUSH3 0x18E JUMPI JUMPDEST PUSH1 0xA0 MSTORE PUSH1 0x80 MSTORE PUSH1 0x40 MLOAD PUSH2 0x10D5 SWAP1 DUP2 PUSH3 0x4DA DUP3 CODECOPY PUSH1 0x80 MLOAD DUP2 DUP2 DUP2 PUSH2 0x50D ADD MSTORE DUP2 DUP2 PUSH2 0xADA ADD MSTORE DUP2 DUP2 PUSH2 0xC6B ADD MSTORE PUSH2 0xE11 ADD MSTORE PUSH1 0xA0 MLOAD DUP2 PUSH2 0x552 ADD MSTORE RETURN JUMPDEST POP PUSH1 0x12 PUSH3 0x151 JUMP JUMPDEST ADD MLOAD SWAP4 POP PUSH0 DUP1 PUSH3 0x12F JUMP JUMPDEST SWAP3 SWAP2 SWAP1 DUP5 PUSH1 0x1F NOT DUP2 AND DUP9 PUSH0 MSTORE DUP6 PUSH0 KECCAK256 SWAP6 PUSH0 SWAP1 JUMPDEST DUP10 DUP4 DUP4 LT PUSH3 0x1F2 JUMPI POP POP POP LT PUSH3 0x1D8 JUMPI JUMPDEST POP POP POP POP DUP2 SHL ADD SWAP1 SSTORE PUSH3 0x13E JUMP JUMPDEST ADD MLOAD SWAP1 PUSH1 0xF8 DUP5 PUSH0 NOT SWAP3 SHL AND SHR NOT AND SWAP1 SSTORE PUSH0 DUP1 DUP1 DUP1 PUSH3 0x1C9 JUMP JUMPDEST DUP6 DUP8 ADD MLOAD DUP10 SSTORE SWAP1 SWAP8 ADD SWAP7 SWAP5 DUP6 ADD SWAP5 DUP9 SWAP4 POP SWAP1 DUP2 ADD SWAP1 PUSH3 0x1B6 JUMP JUMPDEST DUP8 PUSH0 MSTORE DUP2 PUSH0 KECCAK256 DUP5 DUP1 DUP9 ADD PUSH1 0x5 SHR DUP3 ADD SWAP3 DUP5 DUP10 LT PUSH3 0x24B JUMPI JUMPDEST ADD PUSH1 0x5 SHR ADD SWAP1 DUP8 SWAP1 JUMPDEST DUP3 DUP2 LT PUSH3 0x23F JUMPI POP POP PUSH3 0x113 JUMP JUMPDEST PUSH0 DUP2 SSTORE ADD DUP8 SWAP1 PUSH3 0x22F JUMP JUMPDEST SWAP3 POP DUP2 SWAP3 PUSH3 0x226 JUMP JUMPDEST PUSH1 0x22 DUP9 PUSH4 0x4E487B71 PUSH1 0xE0 SHL PUSH0 MSTORE MSTORE PUSH1 0x24 PUSH0 REVERT JUMPDEST SWAP1 PUSH1 0x7F AND SWAP1 PUSH3 0x101 JUMP JUMPDEST PUSH4 0x4E487B71 PUSH1 0xE0 SHL PUSH0 MSTORE PUSH1 0x41 PUSH1 0x4 MSTORE PUSH1 0x24 PUSH0 REVERT JUMPDEST ADD MLOAD SWAP1 POP PUSH0 DUP1 PUSH3 0xD3 JUMP JUMPDEST SWAP1 DUP9 SWAP4 POP PUSH1 0x1F NOT DUP4 AND SWAP2 DUP8 PUSH0 MSTORE DUP11 PUSH0 KECCAK256 SWAP3 PUSH0 JUMPDEST DUP13 DUP3 DUP3 LT PUSH3 0x2DF JUMPI POP POP DUP5 GT PUSH3 0x2C7 JUMPI JUMPDEST POP POP POP DUP2 SHL ADD DUP4 SSTORE PUSH3 0xE4 JUMP JUMPDEST ADD MLOAD PUSH0 NOT DUP4 DUP9 SHL PUSH1 0xF8 AND SHR NOT AND SWAP1 SSTORE PUSH0 DUP1 DUP1 PUSH3 0x2B9 JUMP JUMPDEST DUP4 DUP6 ADD MLOAD DUP7 SSTORE DUP13 SWAP8 SWAP1 SWAP6 ADD SWAP5 SWAP4 DUP5 ADD SWAP4 ADD PUSH3 0x2A6 JUMP JUMPDEST SWAP1 SWAP2 POP DUP6 PUSH0 MSTORE DUP9 PUSH0 KECCAK256 DUP6 DUP1 DUP6 ADD PUSH1 0x5 SHR DUP3 ADD SWAP3 DUP12 DUP7 LT PUSH3 0x33F JUMPI JUMPDEST SWAP2 DUP11 SWAP2 DUP7 SWAP6 SWAP5 SWAP4 ADD PUSH1 0x5 SHR ADD SWAP2 JUMPDEST DUP3 DUP2 LT PUSH3 0x330 JUMPI POP POP PUSH3 0xBD JUMP JUMPDEST PUSH0 DUP2 SSTORE DUP6 SWAP5 POP DUP11 SWAP2 ADD PUSH3 0x320 JUMP JUMPDEST SWAP3 POP DUP2 SWAP3 PUSH3 0x312 JUMP JUMPDEST PUSH4 0x4E487B71 PUSH1 0xE0 SHL PUSH0 MSTORE PUSH1 0x22 PUSH1 0x4 MSTORE PUSH1 0x24 PUSH0 REVERT JUMPDEST SWAP4 PUSH1 0x7F AND SWAP4 PUSH3 0xA6 JUMP JUMPDEST PUSH0 DUP1 REVERT JUMPDEST PUSH1 0x1F SWAP1 SWAP2 ADD PUSH1 0x1F NOT AND DUP2 ADD SWAP1 PUSH1 0x1 PUSH1 0x1 PUSH1 0x40 SHL SUB DUP3 GT SWAP1 DUP3 LT OR PUSH3 0x273 JUMPI PUSH1 0x40 MSTORE JUMP JUMPDEST PUSH1 0x1 PUSH1 0x1 PUSH1 0x40 SHL SUB DUP2 GT PUSH3 0x273 JUMPI PUSH1 0x1F ADD PUSH1 0x1F NOT AND PUSH1 0x20 ADD SWAP1 JUMP JUMPDEST SWAP2 SWAP1 DUP1 PUSH1 0x1F DUP5 ADD SLT ISZERO PUSH3 0x368 JUMPI DUP3 MLOAD SWAP1 PUSH3 0x3C8 DUP3 PUSH3 0x390 JUMP JUMPDEST SWAP2 PUSH3 0x3D8 PUSH1 0x40 MLOAD SWAP4 DUP5 PUSH3 0x36C JUMP JUMPDEST DUP1 DUP4 MSTORE PUSH1 0x20 SWAP2 DUP3 DUP3 DUP8 ADD ADD GT PUSH3 0x368 JUMPI PUSH0 JUMPDEST DUP2 DUP2 LT PUSH3 0x400 JUMPI POP DUP3 PUSH0 SWAP4 SWAP5 SWAP6 POP ADD ADD MSTORE SWAP1 JUMP JUMPDEST DUP6 DUP2 ADD DUP4 ADD MLOAD DUP5 DUP3 ADD DUP5 ADD MSTORE DUP3 ADD PUSH3 0x3EB JUMP JUMPDEST PUSH1 0x40 DUP1 MLOAD PUSH4 0x313CE567 PUSH1 0xE0 SHL PUSH1 0x20 DUP3 ADD SWAP1 DUP2 MSTORE PUSH1 0x4 DUP3 MSTORE SWAP3 SWAP4 SWAP3 SWAP2 DUP2 ADD PUSH1 0x1 PUSH1 0x1 PUSH1 0x40 SHL SUB DUP2 GT DUP3 DUP3 LT OR PUSH3 0x273 JUMPI PUSH1 0x40 MSTORE MLOAD PUSH0 SWAP4 DUP5 SWAP3 DUP4 SWAP3 SWAP2 PUSH1 0x1 PUSH1 0x1 PUSH1 0xA0 SHL SUB AND GAS STATICCALL RETURNDATASIZE ISZERO PUSH3 0x4D0 JUMPI RETURNDATASIZE SWAP1 PUSH3 0x46E DUP3 PUSH3 0x390 JUMP JUMPDEST SWAP2 PUSH3 0x47E PUSH1 0x40 MLOAD SWAP4 DUP5 PUSH3 0x36C JUMP JUMPDEST DUP3 MSTORE RETURNDATASIZE DUP5 PUSH1 0x20 DUP5 ADD RETURNDATACOPY JUMPDEST DUP1 PUSH3 0x4C3 JUMPI JUMPDEST PUSH3 0x49A JUMPI JUMPDEST POP DUP2 SWAP1 JUMP JUMPDEST PUSH1 0x20 DUP2 DUP1 MLOAD DUP2 ADD SUB SLT PUSH3 0x4BF JUMPI PUSH1 0x20 ADD MLOAD PUSH1 0xFF DUP2 GT PUSH3 0x495 JUMPI PUSH1 0x1 SWAP3 POP PUSH1 0xFF AND SWAP1 JUMP JUMPDEST DUP3 DUP1 REVERT JUMPDEST POP PUSH1 0x20 DUP2 MLOAD LT ISZERO PUSH3 0x48F JUMP JUMPDEST PUSH1 0x60 SWAP1 PUSH3 0x488 JUMP INVALID PUSH1 0x40 PUSH1 0x80 DUP2 MSTORE PUSH1 0x4 SWAP1 DUP2 CALLDATASIZE LT ISZERO PUSH2 0x14 JUMPI PUSH0 DUP1 REVERT JUMPDEST PUSH0 SWAP1 DUP2 CALLDATALOAD PUSH1 0xE0 SHR SWAP3 DUP4 PUSH4 0x1E1D114 EQ PUSH2 0x7AC JUMPI DUP4 PUSH4 0x6FDDE03 EQ PUSH2 0x6B9 JUMPI DUP4 PUSH4 0x7A2D13A EQ PUSH2 0x4F4 JUMPI DUP4 PUSH4 0x95EA7B3 EQ PUSH2 0x611 JUMPI DUP4 PUSH4 0xA28A477 EQ PUSH2 0x5F2 JUMPI DUP4 PUSH4 0x18160DDD EQ PUSH2 0x5D4 JUMPI DUP4 PUSH4 0x23B872DD EQ PUSH2 0x598 JUMPI DUP4 PUSH4 0x313CE567 EQ PUSH2 0x53C JUMPI DUP4 PUSH4 0x38D52E0F EQ PUSH2 0x4F9 JUMPI DUP4 PUSH4 0x402D267D EQ PUSH2 0x1FC JUMPI DUP4 PUSH4 0x4CDAD506 EQ PUSH2 0x4F4 JUMPI DUP4 PUSH4 0x6E553F65 EQ PUSH2 0x4C1 JUMPI DUP4 PUSH4 0x70A08231 EQ PUSH2 0x4A1 JUMPI DUP4 PUSH4 0x94BF804D EQ PUSH2 0x46A JUMPI DUP4 PUSH4 0x95D89B41 EQ PUSH2 0x367 JUMPI DUP4 PUSH4 0xA9059CBB EQ PUSH2 0x337 JUMPI DUP4 PUSH4 0xB3D7F6B9 EQ PUSH2 0x318 JUMPI DUP4 PUSH4 0xB460AF94 EQ PUSH2 0x28C JUMPI DUP4 PUSH4 0xBA087652 EQ PUSH2 0x201 JUMPI POP DUP3 PUSH4 0xC63D75B6 EQ PUSH2 0x1FC JUMPI DUP3 PUSH4 0xC6E6F592 EQ PUSH2 0x135 JUMPI DUP3 PUSH4 0xCE96CB77 EQ PUSH2 0x1C5 JUMPI DUP3 PUSH4 0xD905777E EQ PUSH2 0x185 JUMPI DUP3 PUSH4 0xDD62ED3E EQ PUSH2 0x13A JUMPI POP POP PUSH4 0xEF8B30F7 EQ PUSH2 0x135 JUMPI PUSH0 DUP1 REVERT JUMPDEST PUSH2 0x8BF JUMP JUMPDEST CALLVALUE PUSH2 0x181 JUMPI DUP1 PUSH1 0x3 NOT CALLDATASIZE ADD SLT PUSH2 0x181 JUMPI DUP1 PUSH1 0x20 SWAP3 PUSH2 0x156 PUSH2 0x839 JUMP JUMPDEST PUSH2 0x15E PUSH2 0x84F JUMP JUMPDEST PUSH1 0x1 PUSH1 0x1 PUSH1 0xA0 SHL SUB SWAP2 DUP3 AND DUP4 MSTORE PUSH1 0x1 DUP7 MSTORE DUP4 DUP4 KECCAK256 SWAP2 AND DUP3 MSTORE DUP5 MSTORE KECCAK256 SLOAD SWAP1 MLOAD SWAP1 DUP2 MSTORE RETURN JUMPDEST POP DUP1 REVERT JUMPDEST CALLVALUE PUSH2 0x181 JUMPI PUSH1 0x20 CALLDATASIZE PUSH1 0x3 NOT ADD SLT PUSH2 0x181 JUMPI PUSH1 0x20 SWAP1 PUSH2 0x1BE PUSH2 0x1A4 PUSH2 0x839 JUMP JUMPDEST PUSH1 0x1 PUSH1 0x1 PUSH1 0xA0 SHL SUB AND PUSH0 SWAP1 DUP2 MSTORE PUSH1 0x20 DUP2 SWAP1 MSTORE PUSH1 0x40 SWAP1 KECCAK256 SLOAD SWAP1 JUMP JUMPDEST SWAP1 MLOAD SWAP1 DUP2 MSTORE RETURN JUMPDEST CALLVALUE PUSH2 0x181 JUMPI PUSH1 0x20 CALLDATASIZE PUSH1 0x3 NOT ADD SLT PUSH2 0x181 JUMPI PUSH1 0x20 SWAP2 PUSH2 0x1BE SWAP1 DUP3 SWAP1 PUSH1 0x1 PUSH1 0x1 PUSH1 0xA0 SHL SUB PUSH2 0x1EF PUSH2 0x839 JUMP JUMPDEST AND DUP2 MSTORE DUP1 DUP6 MSTORE KECCAK256 SLOAD PUSH2 0xBE6 JUMP JUMPDEST PUSH2 0x865 JUMP JUMPDEST DUP3 CALLVALUE PUSH2 0x289 JUMPI DUP3 SWAP1 PUSH2 0x212 CALLDATASIZE PUSH2 0x88A JUMP JUMPDEST PUSH1 0x1 PUSH1 0x1 PUSH1 0xA0 SHL SUB DUP2 AND DUP5 MSTORE PUSH1 0x20 DUP5 SWAP1 MSTORE SWAP6 SWAP1 SWAP3 KECCAK256 SLOAD SWAP1 SWAP5 SWAP4 SWAP1 DUP1 DUP7 GT PUSH2 0x254 JUMPI POP POP DUP4 PUSH2 0x24E SWAP2 PUSH2 0x245 PUSH1 0x20 SWAP7 PUSH2 0xBE6 JUMP JUMPDEST SWAP5 DUP6 SWAP2 CALLER PUSH2 0xD29 JUMP JUMPDEST MLOAD SWAP1 DUP2 MSTORE RETURN JUMPDEST SWAP3 MLOAD PUSH4 0x2E52AFBB PUSH1 0xE2 SHL DUP2 MSTORE PUSH1 0x1 PUSH1 0x1 PUSH1 0xA0 SHL SUB SWAP1 SWAP5 AND SWAP1 DUP5 ADD SWAP1 DUP2 MSTORE PUSH1 0x20 DUP2 ADD SWAP5 SWAP1 SWAP5 MSTORE POP PUSH1 0x40 DUP4 ADD MSTORE SWAP1 DUP2 SWAP1 PUSH1 0x60 ADD SUB SWAP1 REVERT JUMPDEST DUP1 REVERT JUMPDEST DUP3 SWAP1 CALLVALUE PUSH2 0x181 JUMPI PUSH2 0x2C1 SWAP2 DUP4 SWAP2 PUSH2 0x2A2 CALLDATASIZE PUSH2 0x88A JUMP JUMPDEST PUSH1 0x1 PUSH1 0x1 PUSH1 0xA0 SHL SUB DUP2 AND DUP6 MSTORE PUSH1 0x20 DUP6 SWAP1 MSTORE SWAP7 SWAP1 SWAP4 KECCAK256 SLOAD SWAP1 SWAP6 SWAP5 SWAP1 PUSH2 0xBE6 JUMP JUMPDEST DUP1 DUP7 GT PUSH2 0x2E3 JUMPI POP POP PUSH2 0x24E SWAP1 DUP5 PUSH2 0x2DA PUSH1 0x20 SWAP7 PUSH2 0xB4E JUMP JUMPDEST SWAP5 DUP6 SWAP3 CALLER PUSH2 0xD29 JUMP JUMPDEST SWAP3 MLOAD PUSH4 0x3FA733BB PUSH1 0xE2 SHL DUP2 MSTORE PUSH1 0x1 PUSH1 0x1 PUSH1 0xA0 SHL SUB SWAP1 SWAP5 AND SWAP1 DUP5 ADD SWAP1 DUP2 MSTORE PUSH1 0x20 DUP2 ADD SWAP5 SWAP1 SWAP5 MSTORE POP PUSH1 0x40 DUP4 ADD MSTORE SWAP1 DUP2 SWAP1 PUSH1 0x60 ADD SUB SWAP1 REVERT JUMPDEST SWAP2 CALLVALUE PUSH2 0x289 JUMPI PUSH1 0x20 CALLDATASIZE PUSH1 0x3 NOT ADD SLT PUSH2 0x289 JUMPI POP PUSH2 0x1BE PUSH1 0x20 SWAP3 CALLDATALOAD PUSH2 0xBBB JUMP JUMPDEST POP CALLVALUE PUSH2 0x181 JUMPI DUP1 PUSH1 0x3 NOT CALLDATASIZE ADD SLT PUSH2 0x181 JUMPI PUSH1 0x20 SWAP1 PUSH2 0x360 PUSH2 0x356 PUSH2 0x839 JUMP JUMPDEST PUSH1 0x24 CALLDATALOAD SWAP1 CALLER PUSH2 0x913 JUMP JUMPDEST MLOAD PUSH1 0x1 DUP2 MSTORE RETURN JUMPDEST SWAP3 POP CALLVALUE PUSH2 0x181 JUMPI DUP2 PUSH1 0x3 NOT CALLDATASIZE ADD SLT PUSH2 0x181 JUMPI DUP1 MLOAD SWAP2 DUP1 SWAP4 DUP1 SLOAD SWAP2 PUSH1 0x1 SWAP1 DUP4 DUP3 SHR SWAP3 DUP3 DUP6 AND SWAP5 DUP6 ISZERO PUSH2 0x460 JUMPI JUMPDEST PUSH1 0x20 SWAP6 DUP7 DUP7 LT DUP2 EQ PUSH2 0x44D JUMPI DUP6 DUP10 MSTORE SWAP1 DUP2 ISZERO PUSH2 0x429 JUMPI POP PUSH1 0x1 EQ PUSH2 0x3D1 JUMPI JUMPDEST PUSH2 0x3CD DUP8 DUP8 PUSH2 0x3C3 DUP3 DUP13 SUB DUP4 PUSH2 0x8DD JUMP JUMPDEST MLOAD SWAP2 DUP3 SWAP2 DUP3 PUSH2 0x7C8 JUMP JUMPDEST SUB SWAP1 RETURN JUMPDEST DUP2 MSTORE SWAP3 SWAP6 POP PUSH32 0x8A35ACFBC15FF81A39AE7D344FD709F28E8600B4AA8C65C6B64BFE7FE36BD19B JUMPDEST DUP3 DUP5 LT PUSH2 0x416 JUMPI POP POP POP DUP3 PUSH2 0x3CD SWAP5 PUSH2 0x3C3 SWAP3 DUP3 ADD ADD SWAP5 PUSH0 DUP1 PUSH2 0x3B2 JUMP JUMPDEST DUP1 SLOAD DUP7 DUP6 ADD DUP9 ADD MSTORE SWAP3 DUP7 ADD SWAP3 DUP2 ADD PUSH2 0x3F8 JUMP JUMPDEST PUSH1 0xFF NOT AND DUP9 DUP8 ADD MSTORE POP POP POP POP ISZERO ISZERO PUSH1 0x5 SHL DUP4 ADD ADD SWAP3 POP PUSH2 0x3C3 DUP3 PUSH2 0x3CD PUSH0 DUP1 PUSH2 0x3B2 JUMP JUMPDEST PUSH4 0x4E487B71 PUSH1 0xE0 SHL DUP5 MSTORE PUSH1 0x22 DUP4 MSTORE PUSH1 0x24 DUP5 REVERT JUMPDEST SWAP4 PUSH1 0x7F AND SWAP4 PUSH2 0x393 JUMP JUMPDEST CALLVALUE PUSH2 0x49D JUMPI DUP2 PUSH1 0x3 NOT CALLDATASIZE ADD SLT PUSH2 0x49D JUMPI PUSH1 0x20 SWAP3 POP CALLDATALOAD SWAP1 PUSH2 0x24E PUSH2 0x48B PUSH2 0x84F JUMP JUMPDEST SWAP3 PUSH2 0x495 DUP2 PUSH2 0xBBB JUMP JUMPDEST DUP1 SWAP5 CALLER PUSH2 0xC11 JUMP JUMPDEST DUP3 DUP1 REVERT JUMPDEST POP CALLVALUE PUSH2 0x181 JUMPI PUSH1 0x20 CALLDATASIZE PUSH1 0x3 NOT ADD SLT PUSH2 0x181 JUMPI PUSH1 0x20 SWAP1 PUSH2 0x1BE PUSH2 0x1A4 PUSH2 0x839 JUMP JUMPDEST CALLVALUE PUSH2 0x49D JUMPI DUP2 PUSH1 0x3 NOT CALLDATASIZE ADD SLT PUSH2 0x49D JUMPI PUSH1 0x20 SWAP3 POP CALLDATALOAD SWAP1 PUSH2 0x24E PUSH2 0x4E2 PUSH2 0x84F JUMP JUMPDEST PUSH2 0x4EB DUP5 PUSH2 0xB90 JUMP JUMPDEST SWAP4 DUP5 SWAP2 CALLER PUSH2 0xC11 JUMP JUMPDEST PUSH2 0x80F JUMP JUMPDEST POP CALLVALUE PUSH2 0x181 JUMPI DUP2 PUSH1 0x3 NOT CALLDATASIZE ADD SLT PUSH2 0x181 JUMPI MLOAD PUSH32 0x0 PUSH1 0x1 PUSH1 0x1 PUSH1 0xA0 SHL SUB AND DUP2 MSTORE PUSH1 0x20 SWAP1 RETURN JUMPDEST SWAP3 POP CALLVALUE PUSH2 0x181 JUMPI DUP2 PUSH1 0x3 NOT CALLDATASIZE ADD SLT PUSH2 0x181 JUMPI PUSH1 0xFF PUSH32 0x0 AND SWAP2 PUSH1 0xFF DUP4 GT PUSH2 0x585 JUMPI PUSH1 0x20 DUP4 DUP4 MLOAD SWAP1 DUP2 MSTORE RETURN JUMPDEST PUSH4 0x4E487B71 PUSH1 0xE0 SHL DUP2 MSTORE PUSH1 0x11 DUP5 MSTORE PUSH1 0x24 SWAP1 REVERT JUMPDEST POP CALLVALUE PUSH2 0x181 JUMPI PUSH1 0x60 CALLDATASIZE PUSH1 0x3 NOT ADD SLT PUSH2 0x181 JUMPI PUSH1 0x20 SWAP1 PUSH2 0x360 PUSH2 0x5B8 PUSH2 0x839 JUMP JUMPDEST PUSH2 0x5C0 PUSH2 0x84F JUMP JUMPDEST PUSH1 0x44 CALLDATALOAD SWAP2 PUSH2 0x5CF DUP4 CALLER DUP4 PUSH2 0x9EE JUMP JUMPDEST PUSH2 0x913 JUMP JUMPDEST POP CALLVALUE PUSH2 0x181 JUMPI DUP2 PUSH1 0x3 NOT CALLDATASIZE ADD SLT PUSH2 0x181 JUMPI PUSH1 0x20 SWAP1 PUSH1 0x2 SLOAD SWAP1 MLOAD SWAP1 DUP2 MSTORE RETURN JUMPDEST SWAP2 CALLVALUE PUSH2 0x289 JUMPI PUSH1 0x20 CALLDATASIZE PUSH1 0x3 NOT ADD SLT PUSH2 0x289 JUMPI POP PUSH2 0x1BE PUSH1 0x20 SWAP3 CALLDATALOAD PUSH2 0xB4E JUMP JUMPDEST CALLVALUE PUSH2 0x49D JUMPI DUP2 PUSH1 0x3 NOT CALLDATASIZE ADD SLT PUSH2 0x49D JUMPI PUSH2 0x629 PUSH2 0x839 JUMP JUMPDEST PUSH1 0x24 CALLDATALOAD SWAP1 CALLER ISZERO PUSH2 0x6A2 JUMPI PUSH1 0x1 PUSH1 0x1 PUSH1 0xA0 SHL SUB AND SWAP2 DUP3 ISZERO PUSH2 0x68B JUMPI POP DUP1 DUP4 PUSH1 0x20 SWAP6 CALLER DUP2 MSTORE PUSH1 0x1 DUP8 MSTORE DUP2 DUP2 KECCAK256 DUP6 DUP3 MSTORE DUP8 MSTORE KECCAK256 SSTORE DUP3 MLOAD SWAP1 DUP2 MSTORE PUSH32 0x8C5BE1E5EBEC7D5BD14F71427D1E84F3DD0314C0F7B2291E5B200AC8C7C3B925 DUP5 CALLER SWAP3 LOG3 MLOAD PUSH1 0x1 DUP2 MSTORE RETURN JUMPDEST DUP4 MLOAD PUSH4 0x4A1406B1 PUSH1 0xE1 SHL DUP2 MSTORE SWAP1 DUP2 ADD DUP6 SWAP1 MSTORE PUSH1 0x24 SWAP1 REVERT JUMPDEST DUP4 MLOAD PUSH4 0xE602DF05 PUSH1 0xE0 SHL DUP2 MSTORE DUP1 DUP5 ADD DUP7 SWAP1 MSTORE PUSH1 0x24 SWAP1 REVERT JUMPDEST SWAP1 CALLVALUE PUSH2 0x49D JUMPI DUP3 PUSH1 0x3 NOT CALLDATASIZE ADD SLT PUSH2 0x49D JUMPI DUP1 MLOAD SWAP2 DUP4 PUSH1 0x3 SLOAD SWAP1 PUSH1 0x1 SWAP1 DUP3 DUP3 SHR SWAP3 DUP3 DUP2 AND DUP1 ISZERO PUSH2 0x7A2 JUMPI JUMPDEST PUSH1 0x20 SWAP6 DUP7 DUP7 LT DUP3 EQ PUSH2 0x78F JUMPI POP DUP5 DUP9 MSTORE SWAP1 DUP2 ISZERO PUSH2 0x76D JUMPI POP PUSH1 0x1 EQ PUSH2 0x714 JUMPI JUMPDEST PUSH2 0x3CD DUP7 DUP7 PUSH2 0x3C3 DUP3 DUP12 SUB DUP4 PUSH2 0x8DD JUMP JUMPDEST SWAP3 SWAP6 POP PUSH1 0x3 DUP4 MSTORE PUSH32 0xC2575A0E9E593C00F959F8C92F12DB2869C3395A3B0502D05E2516446F71F85B JUMPDEST DUP3 DUP5 LT PUSH2 0x75A JUMPI POP POP POP DUP3 PUSH2 0x3CD SWAP5 PUSH2 0x3C3 SWAP3 DUP3 ADD ADD SWAP5 DUP7 PUSH2 0x703 JUMP JUMPDEST DUP1 SLOAD DUP7 DUP6 ADD DUP9 ADD MSTORE SWAP3 DUP7 ADD SWAP3 DUP2 ADD PUSH2 0x73D JUMP JUMPDEST PUSH1 0xFF NOT AND DUP8 DUP7 ADD MSTORE POP POP POP ISZERO ISZERO PUSH1 0x5 SHL DUP4 ADD ADD SWAP3 POP PUSH2 0x3C3 DUP3 PUSH2 0x3CD DUP7 PUSH2 0x703 JUMP JUMPDEST PUSH4 0x4E487B71 PUSH1 0xE0 SHL DUP5 MSTORE PUSH1 0x22 SWAP1 MSTORE PUSH1 0x24 DUP4 REVERT JUMPDEST SWAP4 PUSH1 0x7F AND SWAP4 PUSH2 0x6E3 JUMP JUMPDEST POP CALLVALUE PUSH2 0x181 JUMPI DUP2 PUSH1 0x3 NOT CALLDATASIZE ADD SLT PUSH2 0x181 JUMPI PUSH1 0x20 SWAP1 PUSH2 0x1BE PUSH2 0xABF JUMP JUMPDEST PUSH1 0x20 DUP1 DUP3 MSTORE DUP3 MLOAD DUP2 DUP4 ADD DUP2 SWAP1 MSTORE SWAP1 SWAP4 SWAP3 PUSH0 JUMPDEST DUP3 DUP2 LT PUSH2 0x7FB JUMPI POP POP PUSH1 0x40 SWAP3 SWAP4 POP PUSH0 DUP4 DUP3 DUP5 ADD ADD MSTORE PUSH1 0x1F DUP1 NOT SWAP2 ADD AND ADD ADD SWAP1 JUMP JUMPDEST DUP2 DUP2 ADD DUP7 ADD MLOAD DUP5 DUP3 ADD PUSH1 0x40 ADD MSTORE DUP6 ADD PUSH2 0x7DA JUMP JUMPDEST CALLVALUE PUSH2 0x835 JUMPI PUSH1 0x20 CALLDATASIZE PUSH1 0x3 NOT ADD SLT PUSH2 0x835 JUMPI PUSH1 0x20 PUSH2 0x82D PUSH1 0x4 CALLDATALOAD PUSH2 0xBE6 JUMP JUMPDEST PUSH1 0x40 MLOAD SWAP1 DUP2 MSTORE RETURN JUMPDEST PUSH0 DUP1 REVERT JUMPDEST PUSH1 0x4 CALLDATALOAD SWAP1 PUSH1 0x1 PUSH1 0x1 PUSH1 0xA0 SHL SUB DUP3 AND DUP3 SUB PUSH2 0x835 JUMPI JUMP JUMPDEST PUSH1 0x24 CALLDATALOAD SWAP1 PUSH1 0x1 PUSH1 0x1 PUSH1 0xA0 SHL SUB DUP3 AND DUP3 SUB PUSH2 0x835 JUMPI JUMP JUMPDEST CALLVALUE PUSH2 0x835 JUMPI PUSH1 0x20 CALLDATASIZE PUSH1 0x3 NOT ADD SLT PUSH2 0x835 JUMPI PUSH2 0x87E PUSH2 0x839 JUMP JUMPDEST POP PUSH1 0x20 PUSH1 0x40 MLOAD PUSH0 NOT DUP2 MSTORE RETURN JUMPDEST PUSH1 0x60 SWAP1 PUSH1 0x3 NOT ADD SLT PUSH2 0x835 JUMPI PUSH1 0x4 CALLDATALOAD SWAP1 PUSH1 0x1 PUSH1 0x1 PUSH1 0xA0 SHL SUB SWAP1 PUSH1 0x24 CALLDATALOAD DUP3 DUP2 AND DUP2 SUB PUSH2 0x835 JUMPI SWAP2 PUSH1 0x44 CALLDATALOAD SWAP1 DUP2 AND DUP2 SUB PUSH2 0x835 JUMPI SWAP1 JUMP JUMPDEST CALLVALUE PUSH2 0x835 JUMPI PUSH1 0x20 CALLDATASIZE PUSH1 0x3 NOT ADD SLT PUSH2 0x835 JUMPI PUSH1 0x20 PUSH2 0x82D PUSH1 0x4 CALLDATALOAD PUSH2 0xB90 JUMP JUMPDEST SWAP1 PUSH1 0x1F DUP1 NOT SWAP2 ADD AND DUP2 ADD SWAP1 DUP2 LT PUSH8 0xFFFFFFFFFFFFFFFF DUP3 GT OR PUSH2 0x8FF JUMPI PUSH1 0x40 MSTORE JUMP JUMPDEST PUSH4 0x4E487B71 PUSH1 0xE0 SHL PUSH0 MSTORE PUSH1 0x41 PUSH1 0x4 MSTORE PUSH1 0x24 PUSH0 REVERT JUMPDEST SWAP2 PUSH1 0x1 PUSH1 0x1 PUSH1 0xA0 SHL SUB DUP1 DUP5 AND SWAP3 DUP4 ISZERO PUSH2 0x9D6 JUMPI AND SWAP3 DUP4 ISZERO PUSH2 0x9BE JUMPI PUSH0 SWAP1 DUP4 DUP3 MSTORE DUP2 PUSH1 0x20 MSTORE PUSH1 0x40 DUP3 KECCAK256 SLOAD SWAP1 DUP4 DUP3 LT PUSH2 0x98C JUMPI POP SWAP2 PUSH1 0x40 DUP3 DUP3 PUSH32 0xDDF252AD1BE2C89B69C2B068FC378DAA952BA7F163C4A11628F55A4DF523B3EF SWAP6 DUP8 PUSH1 0x20 SWAP7 MSTORE DUP3 DUP7 MSTORE SUB DUP3 DUP3 KECCAK256 SSTORE DUP7 DUP2 MSTORE KECCAK256 DUP2 DUP2 SLOAD ADD SWAP1 SSTORE PUSH1 0x40 MLOAD SWAP1 DUP2 MSTORE LOG3 JUMP JUMPDEST PUSH1 0x40 MLOAD PUSH4 0x391434E3 PUSH1 0xE2 SHL DUP2 MSTORE PUSH1 0x1 PUSH1 0x1 PUSH1 0xA0 SHL SUB SWAP2 SWAP1 SWAP2 AND PUSH1 0x4 DUP3 ADD MSTORE PUSH1 0x24 DUP2 ADD SWAP2 SWAP1 SWAP2 MSTORE PUSH1 0x44 DUP2 ADD DUP4 SWAP1 MSTORE PUSH1 0x64 SWAP1 REVERT JUMPDEST PUSH1 0x40 MLOAD PUSH4 0xEC442F05 PUSH1 0xE0 SHL DUP2 MSTORE PUSH0 PUSH1 0x4 DUP3 ADD MSTORE PUSH1 0x24 SWAP1 REVERT JUMPDEST PUSH1 0x40 MLOAD PUSH4 0x4B637E8F PUSH1 0xE1 SHL DUP2 MSTORE PUSH0 PUSH1 0x4 DUP3 ADD MSTORE PUSH1 0x24 SWAP1 REVERT JUMPDEST SWAP2 PUSH1 0x1 DUP1 PUSH1 0xA0 SHL SUB DUP1 SWAP4 AND SWAP2 PUSH0 SWAP4 DUP4 DUP6 MSTORE PUSH1 0x1 PUSH1 0x20 MSTORE PUSH1 0x40 SWAP4 DUP5 DUP7 KECCAK256 SWAP2 DUP4 AND SWAP2 DUP3 DUP8 MSTORE PUSH1 0x20 MSTORE DUP5 DUP7 KECCAK256 SLOAD SWAP3 PUSH0 NOT DUP5 SUB PUSH2 0xA2B JUMPI JUMPDEST POP POP POP POP POP POP POP JUMP JUMPDEST DUP5 DUP5 LT PUSH2 0xA8F JUMPI POP DUP1 ISZERO PUSH2 0xA77 JUMPI DUP2 ISZERO PUSH2 0xA5F JUMPI DUP6 MSTORE PUSH1 0x1 PUSH1 0x20 MSTORE DUP4 DUP6 KECCAK256 SWAP1 DUP6 MSTORE PUSH1 0x20 MSTORE SUB SWAP2 KECCAK256 SSTORE PUSH0 DUP1 DUP1 DUP1 DUP1 DUP1 DUP1 PUSH2 0xA22 JUMP JUMPDEST DUP5 MLOAD PUSH4 0x4A1406B1 PUSH1 0xE1 SHL DUP2 MSTORE PUSH1 0x4 DUP2 ADD DUP8 SWAP1 MSTORE PUSH1 0x24 SWAP1 REVERT JUMPDEST DUP5 MLOAD PUSH4 0xE602DF05 PUSH1 0xE0 SHL DUP2 MSTORE PUSH1 0x4 DUP2 ADD DUP8 SWAP1 MSTORE PUSH1 0x24 SWAP1 REVERT JUMPDEST DUP6 MLOAD PUSH4 0x7DC7A0D9 PUSH1 0xE1 SHL DUP2 MSTORE PUSH1 0x1 PUSH1 0x1 PUSH1 0xA0 SHL SUB SWAP2 SWAP1 SWAP2 AND PUSH1 0x4 DUP3 ADD MSTORE PUSH1 0x24 DUP2 ADD DUP5 SWAP1 MSTORE PUSH1 0x44 DUP2 ADD DUP6 SWAP1 MSTORE PUSH1 0x64 SWAP1 REVERT JUMPDEST PUSH1 0x40 MLOAD PUSH4 0x70A08231 PUSH1 0xE0 SHL DUP2 MSTORE ADDRESS PUSH1 0x4 DUP3 ADD MSTORE PUSH1 0x20 DUP2 PUSH1 0x24 DUP2 PUSH32 0x0 PUSH1 0x1 PUSH1 0x1 PUSH1 0xA0 SHL SUB AND GAS STATICCALL SWAP1 DUP2 ISZERO PUSH2 0xB43 JUMPI PUSH0 SWAP2 PUSH2 0xB15 JUMPI POP SWAP1 JUMP JUMPDEST SWAP1 PUSH1 0x20 DUP3 RETURNDATASIZE DUP3 GT PUSH2 0xB3B JUMPI JUMPDEST DUP2 PUSH2 0xB2E PUSH1 0x20 SWAP4 DUP4 PUSH2 0x8DD JUMP JUMPDEST DUP2 ADD SUB SLT PUSH2 0x289 JUMPI POP MLOAD SWAP1 JUMP JUMPDEST RETURNDATASIZE SWAP2 POP PUSH2 0xB21 JUMP JUMPDEST PUSH1 0x40 MLOAD RETURNDATASIZE PUSH0 DUP3 RETURNDATACOPY RETURNDATASIZE SWAP1 REVERT JUMPDEST PUSH1 0x2 SLOAD PUSH1 0x1 DUP2 ADD DUP1 SWAP2 GT PUSH2 0xB7C JUMPI PUSH2 0xB64 PUSH2 0xABF JUMP JUMPDEST SWAP1 PUSH1 0x1 DUP3 ADD DUP1 SWAP3 GT PUSH2 0xB7C JUMPI PUSH2 0xB79 SWAP3 PUSH2 0xFCE JUMP JUMPDEST SWAP1 JUMP JUMPDEST PUSH4 0x4E487B71 PUSH1 0xE0 SHL PUSH0 MSTORE PUSH1 0x11 PUSH1 0x4 MSTORE PUSH1 0x24 PUSH0 REVERT JUMPDEST PUSH1 0x2 SLOAD PUSH1 0x1 DUP2 ADD DUP1 SWAP2 GT PUSH2 0xB7C JUMPI PUSH2 0xBA6 PUSH2 0xABF JUMP JUMPDEST SWAP1 PUSH1 0x1 DUP3 ADD DUP1 SWAP3 GT PUSH2 0xB7C JUMPI PUSH2 0xB79 SWAP3 PUSH2 0x100C JUMP JUMPDEST PUSH2 0xBC3 PUSH2 0xABF JUMP JUMPDEST PUSH1 0x1 DUP2 ADD DUP1 SWAP2 GT PUSH2 0xB7C JUMPI PUSH1 0x2 SLOAD SWAP1 PUSH1 0x1 DUP3 ADD DUP1 SWAP3 GT PUSH2 0xB7C JUMPI PUSH2 0xB79 SWAP3 PUSH2 0xFCE JUMP JUMPDEST PUSH2 0xBEE PUSH2 0xABF JUMP JUMPDEST PUSH1 0x1 DUP2 ADD DUP1 SWAP2 GT PUSH2 0xB7C JUMPI PUSH1 0x2 SLOAD SWAP1 PUSH1 0x1 DUP3 ADD DUP1 SWAP3 GT PUSH2 0xB7C JUMPI PUSH2 0xB79 SWAP3 PUSH2 0x100C JUMP JUMPDEST PUSH1 0x40 DUP1 MLOAD PUSH4 0x23B872DD PUSH1 0xE0 SHL PUSH1 0x20 DUP3 ADD MSTORE PUSH1 0x1 PUSH1 0x1 PUSH1 0xA0 SHL SUB SWAP3 DUP4 AND PUSH1 0x24 DUP3 ADD DUP2 SWAP1 MSTORE ADDRESS PUSH1 0x44 DUP4 ADD MSTORE PUSH1 0x64 DUP1 DUP4 ADD DUP8 SWAP1 MSTORE DUP3 MSTORE SWAP5 SWAP6 SWAP4 SWAP2 SWAP3 SWAP2 SWAP1 PUSH1 0xA0 DUP2 ADD SWAP1 PUSH8 0xFFFFFFFFFFFFFFFF DUP3 GT DUP2 DUP4 LT OR PUSH2 0x8FF JUMPI PUSH2 0xC8F SWAP2 DUP6 MSTORE PUSH32 0x0 PUSH2 0xE98 JUMP JUMPDEST AND SWAP4 DUP5 ISZERO PUSH2 0xD12 JUMPI PUSH1 0x2 SLOAD SWAP3 DUP1 DUP5 ADD DUP1 SWAP5 GT PUSH2 0xB7C JUMPI PUSH32 0xDCBC1C05240F31FF3AD067EF1EE35CE4997762752E3A095284754544F4C709D7 SWAP4 PUSH1 0x2 SSTORE DUP6 PUSH0 MSTORE PUSH0 PUSH1 0x20 MSTORE DUP3 PUSH0 KECCAK256 DUP2 DUP2 SLOAD ADD SWAP1 SSTORE DUP6 PUSH0 PUSH32 0xDDF252AD1BE2C89B69C2B068FC378DAA952BA7F163C4A11628F55A4DF523B3EF PUSH1 0x20 DUP7 MLOAD DUP6 DUP2 MSTORE LOG3 DUP3 MLOAD SWAP2 DUP3 MSTORE PUSH1 0x20 DUP3 ADD MSTORE LOG3 JUMP JUMPDEST DUP2 MLOAD PUSH4 0xEC442F05 PUSH1 0xE0 SHL DUP2 MSTORE PUSH0 PUSH1 0x4 DUP3 ADD MSTORE PUSH1 0x24 SWAP1 REVERT JUMPDEST PUSH1 0x1 PUSH1 0x1 PUSH1 0xA0 SHL SUB DUP1 DUP5 AND SWAP6 SWAP1 SWAP5 DUP6 DUP4 AND SWAP5 SWAP4 SWAP1 SWAP3 DUP3 DUP9 DUP8 SUB PUSH2 0xE87 JUMPI JUMPDEST POP POP DUP7 ISZERO PUSH2 0x9D6 JUMPI PUSH0 SWAP6 DUP8 DUP8 MSTORE DUP7 PUSH1 0x20 MSTORE PUSH1 0x40 SWAP5 DUP6 DUP9 KECCAK256 SLOAD SWAP1 DUP5 DUP3 LT PUSH2 0xE56 JUMPI POP DUP4 SWAP1 DUP10 DUP10 MSTORE DUP9 PUSH1 0x20 MSTORE SUB DUP6 DUP9 KECCAK256 SSTORE DUP3 PUSH1 0x2 SLOAD SUB PUSH1 0x2 SSTORE DUP7 DUP9 PUSH32 0xDDF252AD1BE2C89B69C2B068FC378DAA952BA7F163C4A11628F55A4DF523B3EF PUSH1 0x20 DUP9 MLOAD DUP8 DUP2 MSTORE LOG3 DUP5 MLOAD SWAP2 PUSH4 0xA9059CBB PUSH1 0xE0 SHL PUSH1 0x20 DUP5 ADD MSTORE AND SWAP6 DUP7 PUSH1 0x24 DUP4 ADD MSTORE DUP4 PUSH1 0x44 DUP4 ADD MSTORE PUSH1 0x44 DUP3 MSTORE PUSH1 0x80 DUP3 ADD SWAP1 DUP3 DUP3 LT PUSH8 0xFFFFFFFFFFFFFFFF DUP4 GT OR PUSH2 0xE42 JUMPI POP DUP5 SWAP4 SWAP3 SWAP2 PUSH2 0xE35 SWAP2 PUSH32 0xFBDE797D201C681B91056529119E0B02407C7BB96A4A2C75C01FC9667232C8DB SWAP7 MSTORE PUSH32 0x0 PUSH2 0xE98 JUMP JUMPDEST DUP3 MLOAD SWAP2 DUP3 MSTORE PUSH1 0x20 DUP3 ADD MSTORE LOG4 JUMP JUMPDEST PUSH4 0x4E487B71 PUSH1 0xE0 SHL DUP2 MSTORE PUSH1 0x41 PUSH1 0x4 MSTORE PUSH1 0x24 SWAP1 REVERT JUMPDEST DUP7 MLOAD PUSH4 0x391434E3 PUSH1 0xE2 SHL DUP2 MSTORE PUSH1 0x1 PUSH1 0x1 PUSH1 0xA0 SHL SUB SWAP2 SWAP1 SWAP2 AND PUSH1 0x4 DUP3 ADD MSTORE PUSH1 0x24 DUP2 ADD SWAP2 SWAP1 SWAP2 MSTORE PUSH1 0x44 DUP2 ADD DUP5 SWAP1 MSTORE PUSH1 0x64 SWAP1 REVERT JUMPDEST PUSH2 0xE91 SWAP2 DUP7 PUSH2 0x9EE JUMP JUMPDEST PUSH0 DUP3 PUSH2 0xD47 JUMP JUMPDEST PUSH1 0x1 DUP1 PUSH1 0xA0 SHL SUB AND SWAP1 PUSH0 DUP1 DUP3 PUSH1 0x20 DUP3 SWAP5 MLOAD SWAP2 ADD DUP3 DUP7 GAS CALL RETURNDATASIZE ISZERO PUSH2 0xF5F JUMPI RETURNDATASIZE SWAP1 PUSH8 0xFFFFFFFFFFFFFFFF DUP3 GT PUSH2 0xF4B JUMPI SWAP1 PUSH2 0xEF3 SWAP2 PUSH1 0x40 MLOAD SWAP2 PUSH2 0xEE3 PUSH1 0x20 PUSH1 0x1F NOT PUSH1 0x1F DUP5 ADD AND ADD DUP5 PUSH2 0x8DD JUMP JUMPDEST DUP3 MSTORE RETURNDATASIZE DUP5 PUSH1 0x20 DUP5 ADD RETURNDATACOPY JUMPDEST DUP5 PUSH2 0xF6B JUMP JUMPDEST SWAP1 DUP2 MLOAD SWAP2 DUP3 ISZERO ISZERO SWAP3 DUP4 PUSH2 0xF23 JUMPI JUMPDEST POP POP POP PUSH2 0xF0B JUMPI POP JUMP JUMPDEST PUSH1 0x24 SWAP1 PUSH1 0x40 MLOAD SWAP1 PUSH4 0x5274AFE7 PUSH1 0xE0 SHL DUP3 MSTORE PUSH1 0x4 DUP3 ADD MSTORE REVERT JUMPDEST DUP2 SWAP3 SWAP4 POP SWAP1 PUSH1 0x20 SWAP2 DUP2 ADD SUB SLT PUSH2 0x181 JUMPI PUSH1 0x20 ADD MLOAD SWAP1 DUP2 ISZERO SWAP2 DUP3 ISZERO SUB PUSH2 0x289 JUMPI POP PUSH0 DUP1 DUP1 PUSH2 0xF01 JUMP JUMPDEST PUSH4 0x4E487B71 PUSH1 0xE0 SHL DUP4 MSTORE PUSH1 0x41 PUSH1 0x4 MSTORE PUSH1 0x24 DUP4 REVERT JUMPDEST PUSH2 0xEF3 SWAP1 PUSH1 0x60 SWAP1 PUSH2 0xEED JUMP JUMPDEST SWAP1 PUSH2 0xF92 JUMPI POP DUP1 MLOAD ISZERO PUSH2 0xF80 JUMPI DUP1 MLOAD SWAP1 PUSH1 0x20 ADD REVERT JUMPDEST PUSH1 0x40 MLOAD PUSH4 0xA12F521 PUSH1 0xE1 SHL DUP2 MSTORE PUSH1 0x4 SWAP1 REVERT JUMPDEST DUP2 MLOAD ISZERO DUP1 PUSH2 0xFC5 JUMPI JUMPDEST PUSH2 0xFA3 JUMPI POP SWAP1 JUMP JUMPDEST PUSH1 0x40 MLOAD PUSH4 0x9996B315 PUSH1 0xE0 SHL DUP2 MSTORE PUSH1 0x1 PUSH1 0x1 PUSH1 0xA0 SHL SUB SWAP1 SWAP2 AND PUSH1 0x4 DUP3 ADD MSTORE PUSH1 0x24 SWAP1 REVERT JUMPDEST POP DUP1 EXTCODESIZE ISZERO PUSH2 0xF9B JUMP JUMPDEST SWAP2 SWAP1 PUSH2 0xFDB DUP3 DUP3 DUP6 PUSH2 0x100C JUMP JUMPDEST SWAP3 DUP3 ISZERO PUSH2 0xFF8 JUMPI MULMOD PUSH2 0xFEA JUMPI SWAP1 JUMP JUMPDEST PUSH1 0x1 DUP2 ADD DUP1 SWAP2 GT PUSH2 0xB7C JUMPI SWAP1 JUMP JUMPDEST PUSH4 0x4E487B71 PUSH1 0xE0 SHL PUSH0 MSTORE PUSH1 0x12 PUSH1 0x4 MSTORE PUSH1 0x24 PUSH0 REVERT JUMPDEST SWAP1 SWAP2 DUP3 DUP3 MUL SWAP2 PUSH0 NOT DUP5 DUP3 MULMOD SWAP4 DUP4 DUP1 DUP7 LT SWAP6 SUB SWAP5 DUP1 DUP7 SUB SWAP6 EQ PUSH2 0x1091 JUMPI DUP5 DUP4 GT ISZERO PUSH2 0x107F JUMPI DUP3 SWAP2 MULMOD DUP2 PUSH0 SUB DUP3 AND DUP1 SWAP3 DIV PUSH1 0x2 DUP1 DUP3 PUSH1 0x3 MUL XOR DUP1 DUP4 MUL DUP3 SUB MUL DUP1 DUP4 MUL DUP3 SUB MUL DUP1 DUP4 MUL DUP3 SUB MUL DUP1 DUP4 MUL DUP3 SUB MUL DUP1 DUP4 MUL DUP3 SUB MUL DUP1 SWAP3 MUL SWAP1 SUB MUL SWAP4 PUSH1 0x1 DUP4 DUP1 PUSH0 SUB DIV ADD SWAP1 DUP5 DUP4 GT SWAP1 SUB MUL SWAP3 SUB DIV OR MUL SWAP1 JUMP JUMPDEST PUSH1 0x40 MLOAD PUSH4 0x227BC153 PUSH1 0xE0 SHL DUP2 MSTORE PUSH1 0x4 SWAP1 REVERT JUMPDEST POP POP DUP1 SWAP3 POP ISZERO PUSH2 0xFF8 JUMPI DIV SWAP1 JUMP INVALID LOG2 PUSH5 0x6970667358 0x22 SLT KECCAK256 0xC 0xDC 0xF8 0xCE LOG3 0xAE 0xBE 0xB7 PUSH19 0x95123987AA077467951540B1679C1067C1E2E4 0xE6 0xAA 0xE DUP11 PUSH5 0x736F6C6343 STOP ADDMOD EQ STOP CALLER LOG2 PUSH5 0x6970667358 0x22 SLT KECCAK256 DUP13 CALLER STATICCALL 0xEE ISZERO SELFBALANCE CALLER RETURNDATASIZE PUSH27 0xED93CE32B51D41D9D835153196F3C1B85BF4E91D6BF45064736F6C PUSH4 0x43000814 STOP CALLER "
		},
		"gasEstimates": {
			"creation": {
				"codeDepositCost": "3645600",
				"executionCost": "infinite",
				"totalCost": "infinite"
			},
			"external": {
				"createTuliaPool(address,address,address,address,uint256,uint256,uint256,address,uint8,uint256)": "infinite",
				"permit2()": "2317",
				"poolOrganizer()": "2400",
				"rewardManager()": "2285",
				"vaultManager()": "2339",
				"vaults(address)": "2522"
			}
		},
		"methodIdentifiers": {
			"createTuliaPool(address,address,address,address,uint256,uint256,uint256,address,uint8,uint256)": "8c41fd09",
			"permit2()": "12261ee7",
			"poolOrganizer()": "c51b9507",
			"rewardManager()": "0f4ef8a6",
			"vaultManager()": "8a4adf24",
			"vaults(address)": "a622ee7c"
		}
	},
	"abi": [
		{
			"inputs": [
				{
					"internalType": "address",
					"name": "_poolOrganizer",
					"type": "address"
				},
				{
					"internalType": "address",
					"name": "_permit2",
					"type": "address"
				},
				{
					"internalType": "address",
					"name": "_rewardManager",
					"type": "address"
				},
				{
					"internalType": "address",
					"name": "_vaultManager",
					"type": "address"
				}
			],
			"stateMutability": "nonpayable",
			"type": "constructor"
		},
		{
			"anonymous": false,
			"inputs": [
				{
					"indexed": true,
					"internalType": "address",
					"name": "pool",
					"type": "address"
				},
				{
					"indexed": true,
					"internalType": "address",
					"name": "lender",
					"type": "address"
				},
				{
					"indexed": true,
					"internalType": "address",
					"name": "vault",
					"type": "address"
				},
				{
					"indexed": false,
					"internalType": "enum IPoolOrganizer.PoolType",
					"name": "poolType",
					"type": "uint8"
				}
			],
			"name": "PoolCreated",
			"type": "event"
		},
		{
			"anonymous": false,
			"inputs": [
				{
					"indexed": true,
					"internalType": "address",
					"name": "vault",
					"type": "address"
				},
				{
					"indexed": false,
					"internalType": "address",
					"name": "assetToken",
					"type": "address"
				}
			],
			"name": "VaultCreated",
			"type": "event"
		},
		{
			"inputs": [
				{
					"internalType": "address",
					"name": "lender",
					"type": "address"
				},
				{
					"internalType": "contract IERC20",
					"name": "loanTokenAddress",
					"type": "address"
				},
				{
					"internalType": "contract IERC20",
					"name": "assetToken",
					"type": "address"
				},
				{
					"internalType": "contract IERC20",
					"name": "repaymentTokenAddress",
					"type": "address"
				},
				{
					"internalType": "uint256",
					"name": "loanAmount",
					"type": "uint256"
				},
				{
					"internalType": "uint256",
					"name": "interestRate",
					"type": "uint256"
				},
				{
					"internalType": "uint256",
					"name": "repaymentPeriod",
					"type": "uint256"
				},
				{
					"internalType": "contract IInterestModel",
					"name": "interestModel",
					"type": "address"
				},
				{
					"internalType": "enum IPoolOrganizer.PoolType",
					"name": "poolType",
					"type": "uint8"
				},
				{
					"internalType": "uint256",
					"name": "optionalFlashLoanFeeRate",
					"type": "uint256"
				}
			],
			"name": "createTuliaPool",
			"outputs": [
				{
					"internalType": "address",
					"name": "poolAddress",
					"type": "address"
				},
				{
					"internalType": "address",
					"name": "vaultAddress",
					"type": "address"
				}
			],
			"stateMutability": "nonpayable",
			"type": "function"
		},
		{
			"inputs": [],
			"name": "permit2",
			"outputs": [
				{
					"internalType": "contract IPermit2",
					"name": "",
					"type": "address"
				}
			],
			"stateMutability": "view",
			"type": "function"
		},
		{
			"inputs": [],
			"name": "poolOrganizer",
			"outputs": [
				{
					"internalType": "contract IPoolOrganizer",
					"name": "",
					"type": "address"
				}
			],
			"stateMutability": "view",
			"type": "function"
		},
		{
			"inputs": [],
			"name": "rewardManager",
			"outputs": [
				{
					"internalType": "contract IRewardManager",
					"name": "",
					"type": "address"
				}
			],
			"stateMutability": "view",
			"type": "function"
		},
		{
			"inputs": [],
			"name": "vaultManager",
			"outputs": [
				{
					"internalType": "contract IVaultManager",
					"name": "",
					"type": "address"
				}
			],
			"stateMutability": "view",
			"type": "function"
		},
		{
			"inputs": [
				{
					"internalType": "address",
					"name": "",
					"type": "address"
				}
			],
			"name": "vaults",
			"outputs": [
				{
					"internalType": "contract TuliaVault",
					"name": "",
					"type": "address"
				}
			],
			"stateMutability": "view",
			"type": "function"
		}
	]
}