{
	"data": {
		"bytecode": {
			"linkReferences": {},
			"object": "6080346200038057601f6200192738819003918201601f19168301916001600160401b03831184841017620002ee578084926101809460405283398101031262000380576200004e8162000384565b6200005c6020830162000384565b916200006b6040820162000384565b916200007a6060830162000384565b9260808301519460a08401519360c08101519060e081015160018060a01b03811681036200038057610100820151916001600160a01b03831683036200038057620000c9610120820162000384565b620000e7610160620000df610140850162000384565b930162000384565b60015f55936001600160a01b0389161515806200036d575b806200035a575b8062000347575b156200030257600180546001600160a01b03199081166001600160a01b039384161790915560028054821693831693909317909255600380549092169216919091179055600454604051979093906001600160401b036101608a01908111908a1117620002ee578a5f6101408b7f3d48195705780f5c10a0d217f778f0f6d562cb1a6a699da31c0d6d756aacedfc9d61016060609e0160405260018060a01b038d16825260018060a01b038b16602083015260018060a01b038c16604083015260018060a01b031693848e83015260808201528460a08201528560c082015260018060a01b03871660e08201528261010082015243610120820152015260018060a01b03891660018060a01b0319600554161760055560018060a01b03871660018060a01b0319600654161760065560018060a01b03881660018060a01b0319600754161760075560018060a01b031960085416176008558a600955600a55600b5560018060a01b031660018060a01b0319600c541617600c5560018060a01b0319600d5416600d5543600e555f600f5560018060a01b03169060018060a81b0319161760045560405195865260018060a01b0316602086015260018060a01b0316604085015260018060a01b031692a260405161158d90816200039a8239f35b634e487b7160e01b5f52604160045260245ffd5b60405162461bcd60e51b815260206004820152601760248201527f496e76616c696420696e707574206164647265737365730000000000000000006044820152606490fd5b506001600160a01b03881615156200010d565b506001600160a01b038b16151562000106565b506001600160a01b0387161515620000ff565b5f80fd5b51906001600160a01b0382168203620003805756fe6080604081815260049182361015610015575f80fd5b5f92833560e01c9182630f4ef8a6146111035750816312261ee7146110da5781632e1283e3146110bb5781633b1baeff14610dd0578163402d888314610a335781635257b56614610a1457816364c4bec0146109f5578163654c6295146109545781636b6d19551461092c5781638a4adf24146109035781638db579941461081557816395cb741d146107895781639e9f669c14610154578163b2a9bb6014610184578163c19d93fb1461015457508063c51b95071461012c578063eb0c4955146101095763f4b01b18146100e8575f80fd5b346101055781600319360112610105576020906009549051908152f35b5080fd5b50346101055781600319360112610105576020906101256114c8565b9051908152f35b503461010557816003193601126101055760025490516001600160a01b039091168152602090f35b8284346101815780600319360112610181575060ff61017d925460a01c16905191829182611127565b0390f35b80fd5b90503461078557826003193601126107855761019e611198565b6101a66114c8565b906101b460095492836111ec565b9260ff825460a01c1660058110156107725760010361072f5733156106ec576005546001600160a01b039290831633146106aa578260085416938251936338d52e0f60e01b8552602094858185818a5afa908115610473578991610674575b508451636eb1769f60e11b808252338683019081523060208201529092889183919082900360400190829087165afa90811561066a578a91610639575b5088116105ec5760065485518281523386820190815230602082015291841694918890829081906040010381885afa9081156105e2578b916105b1575b501061056e578451908152308482019081526001600160a01b03881660208201528690829081906040010381865afa80156104735788908a9061053d575b6102d592506111ec565b845163095ea7b360e01b8782018181526001600160a01b038a166024808501919091526044808501959095529383529298601f199592938c90819061031b606488611176565b86519082875af161032a61129a565b8161050d575b5080610503575b156104aa575b50505050878582600854166044875180948193636e553f6560e01b83528d8a840152338d8401525af180156104735790869161047d575b505060065416908351956370a0823160e01b8752308488015285878281865afa96871561047357899761043a575b50845163a9059cbb60e01b878201523391810191825260208201979097527f5150ab7694a22fbc01c642bc10316565247df962fa3f0ac3b5d1a18ba45b485b9661040593909290916104009190849060400103908101845283611176565b611229565b600d80546001600160a01b03191633908117909155815460ff60a01b1916600160a11b17909155905193845292a26001815580f35b965090918587813d831161046c575b6104538183611176565b810103126104685795519591906104006103a2565b8880fd5b503d610449565b85513d8b823e3d90fd5b813d83116104a3575b6104908183611176565b8101031261049f57845f610374565b8780fd5b503d610486565b87519189830152898201528a6044820152604481526080810181811067ffffffffffffffff8211176104f1576104e893929161040091895282611229565b5f80808061033d565b634e487b7160e01b8c5260418752898cfd5b50823b1515610337565b8051801592508b908315610525575b5050505f610330565b610535935082018101910161120d565b5f8a8161051c565b50508581813d8311610567575b6105548183611176565b8101031261046857876102d591516102cb565b503d61054a565b845162461bcd60e51b8152808501879052601b60248201527f496e73756666696369656e74206c6f616e20616c6c6f77616e636500000000006044820152606490fd5b90508781813d83116105db575b6105c88183611176565b810103126105d757515f61028d565b8a80fd5b503d6105be565b87513d8d823e3d90fd5b845162461bcd60e51b8152808501879052602160248201527f496e73756666696369656e7420636f6c6c61746572616c20616c6c6f77616e636044820152606560f81b6064820152608490fd5b90508681813d8311610663575b6106508183611176565b8101031261065f57515f610250565b8980fd5b503d610646565b86513d8c823e3d90fd5b90508581813d83116106a3575b61068b8183611176565b8101031261046857518181168103610468575f610213565b503d610681565b6020606492519162461bcd60e51b8352820152601960248201527f4c656e6465722063616e6e6f7420626520626f72726f776572000000000000006044820152fd5b906020606492519162461bcd60e51b8352820152601860248201527f496e76616c696420626f72726f776572206164647265737300000000000000006044820152fd5b906020606492519162461bcd60e51b8352820152601a60248201527f4c6f616e206e6f7420726561647920746f2061637469766174650000000000006044820152fd5b634e487b7160e01b865260218352602486fd5b8280fd5b5050346101055781600319360112610105576101609060018060a01b038060055416918160065416918060075416908060085416600954600a5490600b549284600c541694600d541695600e5497600f549981519b8c5260208c01528a01526060890152608088015260a087015260c086015260e0850152610100840152610120830152610140820152f35b90503461078557826003193601126107855761082f611198565b60ff815460a01c1660058110156108f0576108ae577f9e71d2fb732e68272b7e74ecfd14638673c1d77e19a5d390a3ffff054d57c44b9160209161088960018060a01b03806006541690600554169060095491309161133c565b43600f55805460ff60a01b1916600160a01b1790556009549051908152a16001815580f35b6020606492519162461bcd60e51b8352820152601b60248201527f4c6f616e206e6f7420696e20637265617461626c6520737461746500000000006044820152fd5b634e487b7160e01b845260218252602484fd5b50503461010557816003193601126101055760035490516001600160a01b039091168152602090f35b50503461010557816003193601126101055760209061012561094c6114c8565b6009546111ec565b83833461010557602092836003193601126107855780356001600160a01b03818116918290036109f15790602486926008541693855194859384926370a0823160e01b84528301525afa9283156109e65780936109b4575b505051908152f35b909192508382813d83116109df575b6109cd8183611176565b810103126101815750519083806109ac565b503d6109c3565b8251903d90823e3d90fd5b8480fd5b505034610105578160031936011261010557602090600b549051908152f35b505034610105578160031936011261010557602090600a549051908152f35b905034610785578260031936011261078557610a4d611198565b60ff815460a01c1660058110156108f057600203610d9857610a79600954610a736114c8565b906111ec565b6007548351636eb1769f60e11b8152338185019081523060208281019190915294926001600160a01b039081169290918690829081906040010381865afa8015610d8e5785918991610d5d575b5010610d075785516370a0823160e01b808252338583015292908681602481855afa8015610cfd5786918a91610ccc575b5010610c785784610b0f91836005541690339061133c565b6008541691855191825230818301528482602481865afa918215610c3f578792610c49575b508551916363737ac960e11b8352818301528482602481865afa908115610c3f5785928892610c08575b508651635d043b2960e11b81529081019182523360208301523060408301529283918290899082906060015b03925af18015610bfe57610bd0575b507f4002dba848920f438092e08090cfb5fc47144c22704268b402c9553a1b5adfe692610bc4611397565b51908152a16001815580f35b8290813d8311610bf7575b610be58183611176565b81010312610bf3575f610b99565b8380fd5b503d610bdb565b84513d87823e3d90fd5b8381949293503d8311610c38575b610c208183611176565b81010312610c345790518491610b8a610b5e565b8680fd5b503d610c16565b86513d89823e3d90fd5b9091508481813d8311610c71575b610c618183611176565b81010312610c345751905f610b34565b503d610c57565b865162461bcd60e51b8152808501879052602860248201527f496e73756666696369656e7420746f6b656e2062616c616e636520666f722072604482015267195c185e5b595b9d60c21b6064820152608490fd5b809250888092503d8311610cf6575b610ce58183611176565b81010312610468578590515f610af7565b503d610cdb565b88513d8b823e3d90fd5b855162461bcd60e51b8152808401869052602a60248201527f496e73756666696369656e7420746f6b656e20616c6c6f77616e636520666f72604482015269081c995c185e5b595b9d60b21b6064820152608490fd5b809250878092503d8311610d87575b610d768183611176565b8101031261049f578490515f610ac6565b503d610d6c565b87513d8a823e3d90fd5b6020606492519162461bcd60e51b835282015260136024820152724c6f616e206d7573742062652061637469766560681b6044820152fd5b90503461078557826003193601126107855780549160ff8360a01c1660058110156110a85760020361107057610e0b600e54600b54906111ec565b4310611022578390610e21600954610a736114c8565b9260018060a01b0394856007541690866005541690845196876370a0823160e01b94858252848783015281602460209b8c935afa908115610d8e578891610ff5575b5010610e6d578580f35b60ff60a01b1916600160a21b178355600854845192835230838501528716918681602481865afa908115610fbe578691610fc8575b508451906363737ac960e11b8252848201528681602481865afa908115610fbe579087949392918791610f87575b508551635d043b2960e11b81529384019081526001600160a01b0390911660208201523060408201529194859283919082906060015b03925af1908115610f7e5750610f55575b5050600d54167ff4e5cf42cbb1d0c6c91e16d925349feb6c5d970652f6ec77b1ff1262f7284cd58280a2610f49611397565b5f808281808080808580f35b813d8311610f77575b610f688183611176565b81010312610105575f80610f17565b503d610f5e565b513d86823e3d90fd5b85819692503d8311610fb7575b610f9e8183611176565b81010312610fb3579251869390610f06610ed0565b8580fd5b503d610f94565b85513d88823e3d90fd5b90508681813d8311610fee575b610fdf8183611176565b81010312610fb357515f610ea2565b503d610fd5565b90508881813d831161101b575b61100c8183611176565b8101031261049f57515f610e63565b503d611002565b906020608492519162461bcd60e51b8352820152602260248201527f52657061796d656e7420706572696f6420686173206e6f742079657420656e64604482015261195960f21b6064820152fd5b906020606492519162461bcd60e51b835282015260126024820152714c6f616e206973206e6f742061637469766560701b6044820152fd5b634e487b7160e01b855260218352602485fd5b505034610105578160031936011261010557602090600f549051908152f35b50503461010557816003193601126101055760015490516001600160a01b039091168152602090f35b849134610785578260031936011261078557546001600160a01b0316815260209150f35b91906020830192600582101561113a5752565b634e487b7160e01b5f52602160045260245ffd5b67ffffffffffffffff811161116257604052565b634e487b7160e01b5f52604160045260245ffd5b90601f8019910116810190811067ffffffffffffffff82111761116257604052565b60025f54146111a75760025f55565b60405162461bcd60e51b815260206004820152601f60248201527f5265656e7472616e637947756172643a207265656e7472616e742063616c6c006044820152606490fd5b919082018092116111f957565b634e487b7160e01b5f52601160045260245ffd5b90816020910312611225575180151581036112255790565b5f80fd5b5f806112519260018060a01b03169360208151910182865af161124a61129a565b90836112d9565b805190811515918261127f575b50506112675750565b60249060405190635274afe760e01b82526004820152fd5b611292925060208091830101910161120d565b155f8061125e565b3d156112d4573d9067ffffffffffffffff821161116257604051916112c9601f8201601f191660200184611176565b82523d5f602084013e565b606090565b9061130057508051156112ee57805190602001fd5b604051630a12f52160e11b8152600490fd5b81511580611333575b611311575090565b604051639996b31560e01b81526001600160a01b039091166004820152602490fd5b50803b15611309565b6040516323b872dd60e01b60208201526001600160a01b03928316602482015292909116604483015260648083019390935291815260a081019181831067ffffffffffffffff8411176111625761139592604052611229565b565b6004805460ff60a01b1916600360a01b1781556002545f916001600160a01b039182169190823b15610bf3576040918251858160248183637e72c7d760e01b998a835230898401525af180156114ab576114b5575b508060035416803b15610fb35785809160248651809481936338e270ed60e01b835230898401525af180156114ab57908691611497575b505081541692833b156109f15790602485928385519687948593845230908401525af190811561148e575061147a575b50807f409fced1b85ae32a29fb1e18894d8361a5f2653dc27adf7102d86175c2901d7c91a1565b611484829161114e565b610181575f611453565b513d84823e3d90fd5b6114a09061114e565b6109f157845f611423565b84513d88823e3d90fd5b6114c19095919561114e565b935f6113ec565b600e5443034381116111f957602060018060a01b03600c54166064600954600a549260405195869485936301786f6360e21b85526004850152602484015260448301525afa90811561154c575f9161151e575090565b906020823d8211611544575b8161153760209383611176565b8101031261018157505190565b3d915061152a565b6040513d5f823e3d90fdfea2646970667358221220d8fa471d7dd5db7222d2716a6dbec81278e5cf3dd6e5e7d01a5c79e83706298d64736f6c63430008140033",
			"opcodes": "PUSH1 0x80 CALLVALUE PUSH3 0x380 JUMPI PUSH1 0x1F PUSH3 0x1927 CODESIZE DUP2 SWAP1 SUB SWAP2 DUP3 ADD PUSH1 0x1F NOT AND DUP4 ADD SWAP2 PUSH1 0x1 PUSH1 0x1 PUSH1 0x40 SHL SUB DUP4 GT DUP5 DUP5 LT OR PUSH3 0x2EE JUMPI DUP1 DUP5 SWAP3 PUSH2 0x180 SWAP5 PUSH1 0x40 MSTORE DUP4 CODECOPY DUP2 ADD SUB SLT PUSH3 0x380 JUMPI PUSH3 0x4E DUP2 PUSH3 0x384 JUMP JUMPDEST PUSH3 0x5C PUSH1 0x20 DUP4 ADD PUSH3 0x384 JUMP JUMPDEST SWAP2 PUSH3 0x6B PUSH1 0x40 DUP3 ADD PUSH3 0x384 JUMP JUMPDEST SWAP2 PUSH3 0x7A PUSH1 0x60 DUP4 ADD PUSH3 0x384 JUMP JUMPDEST SWAP3 PUSH1 0x80 DUP4 ADD MLOAD SWAP5 PUSH1 0xA0 DUP5 ADD MLOAD SWAP4 PUSH1 0xC0 DUP2 ADD MLOAD SWAP1 PUSH1 0xE0 DUP2 ADD MLOAD PUSH1 0x1 DUP1 PUSH1 0xA0 SHL SUB DUP2 AND DUP2 SUB PUSH3 0x380 JUMPI PUSH2 0x100 DUP3 ADD MLOAD SWAP2 PUSH1 0x1 PUSH1 0x1 PUSH1 0xA0 SHL SUB DUP4 AND DUP4 SUB PUSH3 0x380 JUMPI PUSH3 0xC9 PUSH2 0x120 DUP3 ADD PUSH3 0x384 JUMP JUMPDEST PUSH3 0xE7 PUSH2 0x160 PUSH3 0xDF PUSH2 0x140 DUP6 ADD PUSH3 0x384 JUMP JUMPDEST SWAP4 ADD PUSH3 0x384 JUMP JUMPDEST PUSH1 0x1 PUSH0 SSTORE SWAP4 PUSH1 0x1 PUSH1 0x1 PUSH1 0xA0 SHL SUB DUP10 AND ISZERO ISZERO DUP1 PUSH3 0x36D JUMPI JUMPDEST DUP1 PUSH3 0x35A JUMPI JUMPDEST DUP1 PUSH3 0x347 JUMPI JUMPDEST ISZERO PUSH3 0x302 JUMPI PUSH1 0x1 DUP1 SLOAD PUSH1 0x1 PUSH1 0x1 PUSH1 0xA0 SHL SUB NOT SWAP1 DUP2 AND PUSH1 0x1 PUSH1 0x1 PUSH1 0xA0 SHL SUB SWAP4 DUP5 AND OR SWAP1 SWAP2 SSTORE PUSH1 0x2 DUP1 SLOAD DUP3 AND SWAP4 DUP4 AND SWAP4 SWAP1 SWAP4 OR SWAP1 SWAP3 SSTORE PUSH1 0x3 DUP1 SLOAD SWAP1 SWAP3 AND SWAP3 AND SWAP2 SWAP1 SWAP2 OR SWAP1 SSTORE PUSH1 0x4 SLOAD PUSH1 0x40 MLOAD SWAP8 SWAP1 SWAP4 SWAP1 PUSH1 0x1 PUSH1 0x1 PUSH1 0x40 SHL SUB PUSH2 0x160 DUP11 ADD SWAP1 DUP2 GT SWAP1 DUP11 GT OR PUSH3 0x2EE JUMPI DUP11 PUSH0 PUSH2 0x140 DUP12 PUSH32 0x3D48195705780F5C10A0D217F778F0F6D562CB1A6A699DA31C0D6D756AACEDFC SWAP14 PUSH2 0x160 PUSH1 0x60 SWAP15 ADD PUSH1 0x40 MSTORE PUSH1 0x1 DUP1 PUSH1 0xA0 SHL SUB DUP14 AND DUP3 MSTORE PUSH1 0x1 DUP1 PUSH1 0xA0 SHL SUB DUP12 AND PUSH1 0x20 DUP4 ADD MSTORE PUSH1 0x1 DUP1 PUSH1 0xA0 SHL SUB DUP13 AND PUSH1 0x40 DUP4 ADD MSTORE PUSH1 0x1 DUP1 PUSH1 0xA0 SHL SUB AND SWAP4 DUP5 DUP15 DUP4 ADD MSTORE PUSH1 0x80 DUP3 ADD MSTORE DUP5 PUSH1 0xA0 DUP3 ADD MSTORE DUP6 PUSH1 0xC0 DUP3 ADD MSTORE PUSH1 0x1 DUP1 PUSH1 0xA0 SHL SUB DUP8 AND PUSH1 0xE0 DUP3 ADD MSTORE DUP3 PUSH2 0x100 DUP3 ADD MSTORE NUMBER PUSH2 0x120 DUP3 ADD MSTORE ADD MSTORE PUSH1 0x1 DUP1 PUSH1 0xA0 SHL SUB DUP10 AND PUSH1 0x1 DUP1 PUSH1 0xA0 SHL SUB NOT PUSH1 0x5 SLOAD AND OR PUSH1 0x5 SSTORE PUSH1 0x1 DUP1 PUSH1 0xA0 SHL SUB DUP8 AND PUSH1 0x1 DUP1 PUSH1 0xA0 SHL SUB NOT PUSH1 0x6 SLOAD AND OR PUSH1 0x6 SSTORE PUSH1 0x1 DUP1 PUSH1 0xA0 SHL SUB DUP9 AND PUSH1 0x1 DUP1 PUSH1 0xA0 SHL SUB NOT PUSH1 0x7 SLOAD AND OR PUSH1 0x7 SSTORE PUSH1 0x1 DUP1 PUSH1 0xA0 SHL SUB NOT PUSH1 0x8 SLOAD AND OR PUSH1 0x8 SSTORE DUP11 PUSH1 0x9 SSTORE PUSH1 0xA SSTORE PUSH1 0xB SSTORE PUSH1 0x1 DUP1 PUSH1 0xA0 SHL SUB AND PUSH1 0x1 DUP1 PUSH1 0xA0 SHL SUB NOT PUSH1 0xC SLOAD AND OR PUSH1 0xC SSTORE PUSH1 0x1 DUP1 PUSH1 0xA0 SHL SUB NOT PUSH1 0xD SLOAD AND PUSH1 0xD SSTORE NUMBER PUSH1 0xE SSTORE PUSH0 PUSH1 0xF SSTORE PUSH1 0x1 DUP1 PUSH1 0xA0 SHL SUB AND SWAP1 PUSH1 0x1 DUP1 PUSH1 0xA8 SHL SUB NOT AND OR PUSH1 0x4 SSTORE PUSH1 0x40 MLOAD SWAP6 DUP7 MSTORE PUSH1 0x1 DUP1 PUSH1 0xA0 SHL SUB AND PUSH1 0x20 DUP7 ADD MSTORE PUSH1 0x1 DUP1 PUSH1 0xA0 SHL SUB AND PUSH1 0x40 DUP6 ADD MSTORE PUSH1 0x1 DUP1 PUSH1 0xA0 SHL SUB AND SWAP3 LOG2 PUSH1 0x40 MLOAD PUSH2 0x158D SWAP1 DUP2 PUSH3 0x39A DUP3 CODECOPY RETURN JUMPDEST PUSH4 0x4E487B71 PUSH1 0xE0 SHL PUSH0 MSTORE PUSH1 0x41 PUSH1 0x4 MSTORE PUSH1 0x24 PUSH0 REVERT JUMPDEST PUSH1 0x40 MLOAD PUSH3 0x461BCD PUSH1 0xE5 SHL DUP2 MSTORE PUSH1 0x20 PUSH1 0x4 DUP3 ADD MSTORE PUSH1 0x17 PUSH1 0x24 DUP3 ADD MSTORE PUSH32 0x496E76616C696420696E70757420616464726573736573000000000000000000 PUSH1 0x44 DUP3 ADD MSTORE PUSH1 0x64 SWAP1 REVERT JUMPDEST POP PUSH1 0x1 PUSH1 0x1 PUSH1 0xA0 SHL SUB DUP9 AND ISZERO ISZERO PUSH3 0x10D JUMP JUMPDEST POP PUSH1 0x1 PUSH1 0x1 PUSH1 0xA0 SHL SUB DUP12 AND ISZERO ISZERO PUSH3 0x106 JUMP JUMPDEST POP PUSH1 0x1 PUSH1 0x1 PUSH1 0xA0 SHL SUB DUP8 AND ISZERO ISZERO PUSH3 0xFF JUMP JUMPDEST PUSH0 DUP1 REVERT JUMPDEST MLOAD SWAP1 PUSH1 0x1 PUSH1 0x1 PUSH1 0xA0 SHL SUB DUP3 AND DUP3 SUB PUSH3 0x380 JUMPI JUMP INVALID PUSH1 0x80 PUSH1 0x40 DUP2 DUP2 MSTORE PUSH1 0x4 SWAP2 DUP3 CALLDATASIZE LT ISZERO PUSH2 0x15 JUMPI PUSH0 DUP1 REVERT JUMPDEST PUSH0 SWAP3 DUP4 CALLDATALOAD PUSH1 0xE0 SHR SWAP2 DUP3 PUSH4 0xF4EF8A6 EQ PUSH2 0x1103 JUMPI POP DUP2 PUSH4 0x12261EE7 EQ PUSH2 0x10DA JUMPI DUP2 PUSH4 0x2E1283E3 EQ PUSH2 0x10BB JUMPI DUP2 PUSH4 0x3B1BAEFF EQ PUSH2 0xDD0 JUMPI DUP2 PUSH4 0x402D8883 EQ PUSH2 0xA33 JUMPI DUP2 PUSH4 0x5257B566 EQ PUSH2 0xA14 JUMPI DUP2 PUSH4 0x64C4BEC0 EQ PUSH2 0x9F5 JUMPI DUP2 PUSH4 0x654C6295 EQ PUSH2 0x954 JUMPI DUP2 PUSH4 0x6B6D1955 EQ PUSH2 0x92C JUMPI DUP2 PUSH4 0x8A4ADF24 EQ PUSH2 0x903 JUMPI DUP2 PUSH4 0x8DB57994 EQ PUSH2 0x815 JUMPI DUP2 PUSH4 0x95CB741D EQ PUSH2 0x789 JUMPI DUP2 PUSH4 0x9E9F669C EQ PUSH2 0x154 JUMPI DUP2 PUSH4 0xB2A9BB60 EQ PUSH2 0x184 JUMPI DUP2 PUSH4 0xC19D93FB EQ PUSH2 0x154 JUMPI POP DUP1 PUSH4 0xC51B9507 EQ PUSH2 0x12C JUMPI DUP1 PUSH4 0xEB0C4955 EQ PUSH2 0x109 JUMPI PUSH4 0xF4B01B18 EQ PUSH2 0xE8 JUMPI PUSH0 DUP1 REVERT JUMPDEST CALLVALUE PUSH2 0x105 JUMPI DUP2 PUSH1 0x3 NOT CALLDATASIZE ADD SLT PUSH2 0x105 JUMPI PUSH1 0x20 SWAP1 PUSH1 0x9 SLOAD SWAP1 MLOAD SWAP1 DUP2 MSTORE RETURN JUMPDEST POP DUP1 REVERT JUMPDEST POP CALLVALUE PUSH2 0x105 JUMPI DUP2 PUSH1 0x3 NOT CALLDATASIZE ADD SLT PUSH2 0x105 JUMPI PUSH1 0x20 SWAP1 PUSH2 0x125 PUSH2 0x14C8 JUMP JUMPDEST SWAP1 MLOAD SWAP1 DUP2 MSTORE RETURN JUMPDEST POP CALLVALUE PUSH2 0x105 JUMPI DUP2 PUSH1 0x3 NOT CALLDATASIZE ADD SLT PUSH2 0x105 JUMPI PUSH1 0x2 SLOAD SWAP1 MLOAD PUSH1 0x1 PUSH1 0x1 PUSH1 0xA0 SHL SUB SWAP1 SWAP2 AND DUP2 MSTORE PUSH1 0x20 SWAP1 RETURN JUMPDEST DUP3 DUP5 CALLVALUE PUSH2 0x181 JUMPI DUP1 PUSH1 0x3 NOT CALLDATASIZE ADD SLT PUSH2 0x181 JUMPI POP PUSH1 0xFF PUSH2 0x17D SWAP3 SLOAD PUSH1 0xA0 SHR AND SWAP1 MLOAD SWAP2 DUP3 SWAP2 DUP3 PUSH2 0x1127 JUMP JUMPDEST SUB SWAP1 RETURN JUMPDEST DUP1 REVERT JUMPDEST SWAP1 POP CALLVALUE PUSH2 0x785 JUMPI DUP3 PUSH1 0x3 NOT CALLDATASIZE ADD SLT PUSH2 0x785 JUMPI PUSH2 0x19E PUSH2 0x1198 JUMP JUMPDEST PUSH2 0x1A6 PUSH2 0x14C8 JUMP JUMPDEST SWAP1 PUSH2 0x1B4 PUSH1 0x9 SLOAD SWAP3 DUP4 PUSH2 0x11EC JUMP JUMPDEST SWAP3 PUSH1 0xFF DUP3 SLOAD PUSH1 0xA0 SHR AND PUSH1 0x5 DUP2 LT ISZERO PUSH2 0x772 JUMPI PUSH1 0x1 SUB PUSH2 0x72F JUMPI CALLER ISZERO PUSH2 0x6EC JUMPI PUSH1 0x5 SLOAD PUSH1 0x1 PUSH1 0x1 PUSH1 0xA0 SHL SUB SWAP3 SWAP1 DUP4 AND CALLER EQ PUSH2 0x6AA JUMPI DUP3 PUSH1 0x8 SLOAD AND SWAP4 DUP3 MLOAD SWAP4 PUSH4 0x38D52E0F PUSH1 0xE0 SHL DUP6 MSTORE PUSH1 0x20 SWAP5 DUP6 DUP2 DUP6 DUP2 DUP11 GAS STATICCALL SWAP1 DUP2 ISZERO PUSH2 0x473 JUMPI DUP10 SWAP2 PUSH2 0x674 JUMPI JUMPDEST POP DUP5 MLOAD PUSH4 0x6EB1769F PUSH1 0xE1 SHL DUP1 DUP3 MSTORE CALLER DUP7 DUP4 ADD SWAP1 DUP2 MSTORE ADDRESS PUSH1 0x20 DUP3 ADD MSTORE SWAP1 SWAP3 DUP9 SWAP2 DUP4 SWAP2 SWAP1 DUP3 SWAP1 SUB PUSH1 0x40 ADD SWAP1 DUP3 SWAP1 DUP8 AND GAS STATICCALL SWAP1 DUP2 ISZERO PUSH2 0x66A JUMPI DUP11 SWAP2 PUSH2 0x639 JUMPI JUMPDEST POP DUP9 GT PUSH2 0x5EC JUMPI PUSH1 0x6 SLOAD DUP6 MLOAD DUP3 DUP2 MSTORE CALLER DUP7 DUP3 ADD SWAP1 DUP2 MSTORE ADDRESS PUSH1 0x20 DUP3 ADD MSTORE SWAP2 DUP5 AND SWAP5 SWAP2 DUP9 SWAP1 DUP3 SWAP1 DUP2 SWAP1 PUSH1 0x40 ADD SUB DUP2 DUP9 GAS STATICCALL SWAP1 DUP2 ISZERO PUSH2 0x5E2 JUMPI DUP12 SWAP2 PUSH2 0x5B1 JUMPI JUMPDEST POP LT PUSH2 0x56E JUMPI DUP5 MLOAD SWAP1 DUP2 MSTORE ADDRESS DUP5 DUP3 ADD SWAP1 DUP2 MSTORE PUSH1 0x1 PUSH1 0x1 PUSH1 0xA0 SHL SUB DUP9 AND PUSH1 0x20 DUP3 ADD MSTORE DUP7 SWAP1 DUP3 SWAP1 DUP2 SWAP1 PUSH1 0x40 ADD SUB DUP2 DUP7 GAS STATICCALL DUP1 ISZERO PUSH2 0x473 JUMPI DUP9 SWAP1 DUP11 SWAP1 PUSH2 0x53D JUMPI JUMPDEST PUSH2 0x2D5 SWAP3 POP PUSH2 0x11EC JUMP JUMPDEST DUP5 MLOAD PUSH4 0x95EA7B3 PUSH1 0xE0 SHL DUP8 DUP3 ADD DUP2 DUP2 MSTORE PUSH1 0x1 PUSH1 0x1 PUSH1 0xA0 SHL SUB DUP11 AND PUSH1 0x24 DUP1 DUP6 ADD SWAP2 SWAP1 SWAP2 MSTORE PUSH1 0x44 DUP1 DUP6 ADD SWAP6 SWAP1 SWAP6 MSTORE SWAP4 DUP4 MSTORE SWAP3 SWAP9 PUSH1 0x1F NOT SWAP6 SWAP3 SWAP4 DUP13 SWAP1 DUP2 SWAP1 PUSH2 0x31B PUSH1 0x64 DUP9 PUSH2 0x1176 JUMP JUMPDEST DUP7 MLOAD SWAP1 DUP3 DUP8 GAS CALL PUSH2 0x32A PUSH2 0x129A JUMP JUMPDEST DUP2 PUSH2 0x50D JUMPI JUMPDEST POP DUP1 PUSH2 0x503 JUMPI JUMPDEST ISZERO PUSH2 0x4AA JUMPI JUMPDEST POP POP POP POP DUP8 DUP6 DUP3 PUSH1 0x8 SLOAD AND PUSH1 0x44 DUP8 MLOAD DUP1 SWAP5 DUP2 SWAP4 PUSH4 0x6E553F65 PUSH1 0xE0 SHL DUP4 MSTORE DUP14 DUP11 DUP5 ADD MSTORE CALLER DUP14 DUP5 ADD MSTORE GAS CALL DUP1 ISZERO PUSH2 0x473 JUMPI SWAP1 DUP7 SWAP2 PUSH2 0x47D JUMPI JUMPDEST POP POP PUSH1 0x6 SLOAD AND SWAP1 DUP4 MLOAD SWAP6 PUSH4 0x70A08231 PUSH1 0xE0 SHL DUP8 MSTORE ADDRESS DUP5 DUP9 ADD MSTORE DUP6 DUP8 DUP3 DUP2 DUP7 GAS STATICCALL SWAP7 DUP8 ISZERO PUSH2 0x473 JUMPI DUP10 SWAP8 PUSH2 0x43A JUMPI JUMPDEST POP DUP5 MLOAD PUSH4 0xA9059CBB PUSH1 0xE0 SHL DUP8 DUP3 ADD MSTORE CALLER SWAP2 DUP2 ADD SWAP2 DUP3 MSTORE PUSH1 0x20 DUP3 ADD SWAP8 SWAP1 SWAP8 MSTORE PUSH32 0x5150AB7694A22FBC01C642BC10316565247DF962FA3F0AC3B5D1A18BA45B485B SWAP7 PUSH2 0x405 SWAP4 SWAP1 SWAP3 SWAP1 SWAP2 PUSH2 0x400 SWAP2 SWAP1 DUP5 SWAP1 PUSH1 0x40 ADD SUB SWAP1 DUP2 ADD DUP5 MSTORE DUP4 PUSH2 0x1176 JUMP JUMPDEST PUSH2 0x1229 JUMP JUMPDEST PUSH1 0xD DUP1 SLOAD PUSH1 0x1 PUSH1 0x1 PUSH1 0xA0 SHL SUB NOT AND CALLER SWAP1 DUP2 OR SWAP1 SWAP2 SSTORE DUP2 SLOAD PUSH1 0xFF PUSH1 0xA0 SHL NOT AND PUSH1 0x1 PUSH1 0xA1 SHL OR SWAP1 SWAP2 SSTORE SWAP1 MLOAD SWAP4 DUP5 MSTORE SWAP3 LOG2 PUSH1 0x1 DUP2 SSTORE DUP1 RETURN JUMPDEST SWAP7 POP SWAP1 SWAP2 DUP6 DUP8 DUP2 RETURNDATASIZE DUP4 GT PUSH2 0x46C JUMPI JUMPDEST PUSH2 0x453 DUP2 DUP4 PUSH2 0x1176 JUMP JUMPDEST DUP2 ADD SUB SLT PUSH2 0x468 JUMPI SWAP6 MLOAD SWAP6 SWAP2 SWAP1 PUSH2 0x400 PUSH2 0x3A2 JUMP JUMPDEST DUP9 DUP1 REVERT JUMPDEST POP RETURNDATASIZE PUSH2 0x449 JUMP JUMPDEST DUP6 MLOAD RETURNDATASIZE DUP12 DUP3 RETURNDATACOPY RETURNDATASIZE SWAP1 REVERT JUMPDEST DUP2 RETURNDATASIZE DUP4 GT PUSH2 0x4A3 JUMPI JUMPDEST PUSH2 0x490 DUP2 DUP4 PUSH2 0x1176 JUMP JUMPDEST DUP2 ADD SUB SLT PUSH2 0x49F JUMPI DUP5 PUSH0 PUSH2 0x374 JUMP JUMPDEST DUP8 DUP1 REVERT JUMPDEST POP RETURNDATASIZE PUSH2 0x486 JUMP JUMPDEST DUP8 MLOAD SWAP2 DUP10 DUP4 ADD MSTORE DUP10 DUP3 ADD MSTORE DUP11 PUSH1 0x44 DUP3 ADD MSTORE PUSH1 0x44 DUP2 MSTORE PUSH1 0x80 DUP2 ADD DUP2 DUP2 LT PUSH8 0xFFFFFFFFFFFFFFFF DUP3 GT OR PUSH2 0x4F1 JUMPI PUSH2 0x4E8 SWAP4 SWAP3 SWAP2 PUSH2 0x400 SWAP2 DUP10 MSTORE DUP3 PUSH2 0x1229 JUMP JUMPDEST PUSH0 DUP1 DUP1 DUP1 PUSH2 0x33D JUMP JUMPDEST PUSH4 0x4E487B71 PUSH1 0xE0 SHL DUP13 MSTORE PUSH1 0x41 DUP8 MSTORE DUP10 DUP13 REVERT JUMPDEST POP DUP3 EXTCODESIZE ISZERO ISZERO PUSH2 0x337 JUMP JUMPDEST DUP1 MLOAD DUP1 ISZERO SWAP3 POP DUP12 SWAP1 DUP4 ISZERO PUSH2 0x525 JUMPI JUMPDEST POP POP POP PUSH0 PUSH2 0x330 JUMP JUMPDEST PUSH2 0x535 SWAP4 POP DUP3 ADD DUP2 ADD SWAP2 ADD PUSH2 0x120D JUMP JUMPDEST PUSH0 DUP11 DUP2 PUSH2 0x51C JUMP JUMPDEST POP POP DUP6 DUP2 DUP2 RETURNDATASIZE DUP4 GT PUSH2 0x567 JUMPI JUMPDEST PUSH2 0x554 DUP2 DUP4 PUSH2 0x1176 JUMP JUMPDEST DUP2 ADD SUB SLT PUSH2 0x468 JUMPI DUP8 PUSH2 0x2D5 SWAP2 MLOAD PUSH2 0x2CB JUMP JUMPDEST POP RETURNDATASIZE PUSH2 0x54A JUMP JUMPDEST DUP5 MLOAD PUSH3 0x461BCD PUSH1 0xE5 SHL DUP2 MSTORE DUP1 DUP6 ADD DUP8 SWAP1 MSTORE PUSH1 0x1B PUSH1 0x24 DUP3 ADD MSTORE PUSH32 0x496E73756666696369656E74206C6F616E20616C6C6F77616E63650000000000 PUSH1 0x44 DUP3 ADD MSTORE PUSH1 0x64 SWAP1 REVERT JUMPDEST SWAP1 POP DUP8 DUP2 DUP2 RETURNDATASIZE DUP4 GT PUSH2 0x5DB JUMPI JUMPDEST PUSH2 0x5C8 DUP2 DUP4 PUSH2 0x1176 JUMP JUMPDEST DUP2 ADD SUB SLT PUSH2 0x5D7 JUMPI MLOAD PUSH0 PUSH2 0x28D JUMP JUMPDEST DUP11 DUP1 REVERT JUMPDEST POP RETURNDATASIZE PUSH2 0x5BE JUMP JUMPDEST DUP8 MLOAD RETURNDATASIZE DUP14 DUP3 RETURNDATACOPY RETURNDATASIZE SWAP1 REVERT JUMPDEST DUP5 MLOAD PUSH3 0x461BCD PUSH1 0xE5 SHL DUP2 MSTORE DUP1 DUP6 ADD DUP8 SWAP1 MSTORE PUSH1 0x21 PUSH1 0x24 DUP3 ADD MSTORE PUSH32 0x496E73756666696369656E7420636F6C6C61746572616C20616C6C6F77616E63 PUSH1 0x44 DUP3 ADD MSTORE PUSH1 0x65 PUSH1 0xF8 SHL PUSH1 0x64 DUP3 ADD MSTORE PUSH1 0x84 SWAP1 REVERT JUMPDEST SWAP1 POP DUP7 DUP2 DUP2 RETURNDATASIZE DUP4 GT PUSH2 0x663 JUMPI JUMPDEST PUSH2 0x650 DUP2 DUP4 PUSH2 0x1176 JUMP JUMPDEST DUP2 ADD SUB SLT PUSH2 0x65F JUMPI MLOAD PUSH0 PUSH2 0x250 JUMP JUMPDEST DUP10 DUP1 REVERT JUMPDEST POP RETURNDATASIZE PUSH2 0x646 JUMP JUMPDEST DUP7 MLOAD RETURNDATASIZE DUP13 DUP3 RETURNDATACOPY RETURNDATASIZE SWAP1 REVERT JUMPDEST SWAP1 POP DUP6 DUP2 DUP2 RETURNDATASIZE DUP4 GT PUSH2 0x6A3 JUMPI JUMPDEST PUSH2 0x68B DUP2 DUP4 PUSH2 0x1176 JUMP JUMPDEST DUP2 ADD SUB SLT PUSH2 0x468 JUMPI MLOAD DUP2 DUP2 AND DUP2 SUB PUSH2 0x468 JUMPI PUSH0 PUSH2 0x213 JUMP JUMPDEST POP RETURNDATASIZE PUSH2 0x681 JUMP JUMPDEST PUSH1 0x20 PUSH1 0x64 SWAP3 MLOAD SWAP2 PUSH3 0x461BCD PUSH1 0xE5 SHL DUP4 MSTORE DUP3 ADD MSTORE PUSH1 0x19 PUSH1 0x24 DUP3 ADD MSTORE PUSH32 0x4C656E6465722063616E6E6F7420626520626F72726F77657200000000000000 PUSH1 0x44 DUP3 ADD MSTORE REVERT JUMPDEST SWAP1 PUSH1 0x20 PUSH1 0x64 SWAP3 MLOAD SWAP2 PUSH3 0x461BCD PUSH1 0xE5 SHL DUP4 MSTORE DUP3 ADD MSTORE PUSH1 0x18 PUSH1 0x24 DUP3 ADD MSTORE PUSH32 0x496E76616C696420626F72726F77657220616464726573730000000000000000 PUSH1 0x44 DUP3 ADD MSTORE REVERT JUMPDEST SWAP1 PUSH1 0x20 PUSH1 0x64 SWAP3 MLOAD SWAP2 PUSH3 0x461BCD PUSH1 0xE5 SHL DUP4 MSTORE DUP3 ADD MSTORE PUSH1 0x1A PUSH1 0x24 DUP3 ADD MSTORE PUSH32 0x4C6F616E206E6F7420726561647920746F206163746976617465000000000000 PUSH1 0x44 DUP3 ADD MSTORE REVERT JUMPDEST PUSH4 0x4E487B71 PUSH1 0xE0 SHL DUP7 MSTORE PUSH1 0x21 DUP4 MSTORE PUSH1 0x24 DUP7 REVERT JUMPDEST DUP3 DUP1 REVERT JUMPDEST POP POP CALLVALUE PUSH2 0x105 JUMPI DUP2 PUSH1 0x3 NOT CALLDATASIZE ADD SLT PUSH2 0x105 JUMPI PUSH2 0x160 SWAP1 PUSH1 0x1 DUP1 PUSH1 0xA0 SHL SUB DUP1 PUSH1 0x5 SLOAD AND SWAP2 DUP2 PUSH1 0x6 SLOAD AND SWAP2 DUP1 PUSH1 0x7 SLOAD AND SWAP1 DUP1 PUSH1 0x8 SLOAD AND PUSH1 0x9 SLOAD PUSH1 0xA SLOAD SWAP1 PUSH1 0xB SLOAD SWAP3 DUP5 PUSH1 0xC SLOAD AND SWAP5 PUSH1 0xD SLOAD AND SWAP6 PUSH1 0xE SLOAD SWAP8 PUSH1 0xF SLOAD SWAP10 DUP2 MLOAD SWAP12 DUP13 MSTORE PUSH1 0x20 DUP13 ADD MSTORE DUP11 ADD MSTORE PUSH1 0x60 DUP10 ADD MSTORE PUSH1 0x80 DUP9 ADD MSTORE PUSH1 0xA0 DUP8 ADD MSTORE PUSH1 0xC0 DUP7 ADD MSTORE PUSH1 0xE0 DUP6 ADD MSTORE PUSH2 0x100 DUP5 ADD MSTORE PUSH2 0x120 DUP4 ADD MSTORE PUSH2 0x140 DUP3 ADD MSTORE RETURN JUMPDEST SWAP1 POP CALLVALUE PUSH2 0x785 JUMPI DUP3 PUSH1 0x3 NOT CALLDATASIZE ADD SLT PUSH2 0x785 JUMPI PUSH2 0x82F PUSH2 0x1198 JUMP JUMPDEST PUSH1 0xFF DUP2 SLOAD PUSH1 0xA0 SHR AND PUSH1 0x5 DUP2 LT ISZERO PUSH2 0x8F0 JUMPI PUSH2 0x8AE JUMPI PUSH32 0x9E71D2FB732E68272B7E74ECFD14638673C1D77E19A5D390A3FFFF054D57C44B SWAP2 PUSH1 0x20 SWAP2 PUSH2 0x889 PUSH1 0x1 DUP1 PUSH1 0xA0 SHL SUB DUP1 PUSH1 0x6 SLOAD AND SWAP1 PUSH1 0x5 SLOAD AND SWAP1 PUSH1 0x9 SLOAD SWAP2 ADDRESS SWAP2 PUSH2 0x133C JUMP JUMPDEST NUMBER PUSH1 0xF SSTORE DUP1 SLOAD PUSH1 0xFF PUSH1 0xA0 SHL NOT AND PUSH1 0x1 PUSH1 0xA0 SHL OR SWAP1 SSTORE PUSH1 0x9 SLOAD SWAP1 MLOAD SWAP1 DUP2 MSTORE LOG1 PUSH1 0x1 DUP2 SSTORE DUP1 RETURN JUMPDEST PUSH1 0x20 PUSH1 0x64 SWAP3 MLOAD SWAP2 PUSH3 0x461BCD PUSH1 0xE5 SHL DUP4 MSTORE DUP3 ADD MSTORE PUSH1 0x1B PUSH1 0x24 DUP3 ADD MSTORE PUSH32 0x4C6F616E206E6F7420696E20637265617461626C652073746174650000000000 PUSH1 0x44 DUP3 ADD MSTORE REVERT JUMPDEST PUSH4 0x4E487B71 PUSH1 0xE0 SHL DUP5 MSTORE PUSH1 0x21 DUP3 MSTORE PUSH1 0x24 DUP5 REVERT JUMPDEST POP POP CALLVALUE PUSH2 0x105 JUMPI DUP2 PUSH1 0x3 NOT CALLDATASIZE ADD SLT PUSH2 0x105 JUMPI PUSH1 0x3 SLOAD SWAP1 MLOAD PUSH1 0x1 PUSH1 0x1 PUSH1 0xA0 SHL SUB SWAP1 SWAP2 AND DUP2 MSTORE PUSH1 0x20 SWAP1 RETURN JUMPDEST POP POP CALLVALUE PUSH2 0x105 JUMPI DUP2 PUSH1 0x3 NOT CALLDATASIZE ADD SLT PUSH2 0x105 JUMPI PUSH1 0x20 SWAP1 PUSH2 0x125 PUSH2 0x94C PUSH2 0x14C8 JUMP JUMPDEST PUSH1 0x9 SLOAD PUSH2 0x11EC JUMP JUMPDEST DUP4 DUP4 CALLVALUE PUSH2 0x105 JUMPI PUSH1 0x20 SWAP3 DUP4 PUSH1 0x3 NOT CALLDATASIZE ADD SLT PUSH2 0x785 JUMPI DUP1 CALLDATALOAD PUSH1 0x1 PUSH1 0x1 PUSH1 0xA0 SHL SUB DUP2 DUP2 AND SWAP2 DUP3 SWAP1 SUB PUSH2 0x9F1 JUMPI SWAP1 PUSH1 0x24 DUP7 SWAP3 PUSH1 0x8 SLOAD AND SWAP4 DUP6 MLOAD SWAP5 DUP6 SWAP4 DUP5 SWAP3 PUSH4 0x70A08231 PUSH1 0xE0 SHL DUP5 MSTORE DUP4 ADD MSTORE GAS STATICCALL SWAP3 DUP4 ISZERO PUSH2 0x9E6 JUMPI DUP1 SWAP4 PUSH2 0x9B4 JUMPI JUMPDEST POP POP MLOAD SWAP1 DUP2 MSTORE RETURN JUMPDEST SWAP1 SWAP2 SWAP3 POP DUP4 DUP3 DUP2 RETURNDATASIZE DUP4 GT PUSH2 0x9DF JUMPI JUMPDEST PUSH2 0x9CD DUP2 DUP4 PUSH2 0x1176 JUMP JUMPDEST DUP2 ADD SUB SLT PUSH2 0x181 JUMPI POP MLOAD SWAP1 DUP4 DUP1 PUSH2 0x9AC JUMP JUMPDEST POP RETURNDATASIZE PUSH2 0x9C3 JUMP JUMPDEST DUP3 MLOAD SWAP1 RETURNDATASIZE SWAP1 DUP3 RETURNDATACOPY RETURNDATASIZE SWAP1 REVERT JUMPDEST DUP5 DUP1 REVERT JUMPDEST POP POP CALLVALUE PUSH2 0x105 JUMPI DUP2 PUSH1 0x3 NOT CALLDATASIZE ADD SLT PUSH2 0x105 JUMPI PUSH1 0x20 SWAP1 PUSH1 0xB SLOAD SWAP1 MLOAD SWAP1 DUP2 MSTORE RETURN JUMPDEST POP POP CALLVALUE PUSH2 0x105 JUMPI DUP2 PUSH1 0x3 NOT CALLDATASIZE ADD SLT PUSH2 0x105 JUMPI PUSH1 0x20 SWAP1 PUSH1 0xA SLOAD SWAP1 MLOAD SWAP1 DUP2 MSTORE RETURN JUMPDEST SWAP1 POP CALLVALUE PUSH2 0x785 JUMPI DUP3 PUSH1 0x3 NOT CALLDATASIZE ADD SLT PUSH2 0x785 JUMPI PUSH2 0xA4D PUSH2 0x1198 JUMP JUMPDEST PUSH1 0xFF DUP2 SLOAD PUSH1 0xA0 SHR AND PUSH1 0x5 DUP2 LT ISZERO PUSH2 0x8F0 JUMPI PUSH1 0x2 SUB PUSH2 0xD98 JUMPI PUSH2 0xA79 PUSH1 0x9 SLOAD PUSH2 0xA73 PUSH2 0x14C8 JUMP JUMPDEST SWAP1 PUSH2 0x11EC JUMP JUMPDEST PUSH1 0x7 SLOAD DUP4 MLOAD PUSH4 0x6EB1769F PUSH1 0xE1 SHL DUP2 MSTORE CALLER DUP2 DUP6 ADD SWAP1 DUP2 MSTORE ADDRESS PUSH1 0x20 DUP3 DUP2 ADD SWAP2 SWAP1 SWAP2 MSTORE SWAP5 SWAP3 PUSH1 0x1 PUSH1 0x1 PUSH1 0xA0 SHL SUB SWAP1 DUP2 AND SWAP3 SWAP1 SWAP2 DUP7 SWAP1 DUP3 SWAP1 DUP2 SWAP1 PUSH1 0x40 ADD SUB DUP2 DUP7 GAS STATICCALL DUP1 ISZERO PUSH2 0xD8E JUMPI DUP6 SWAP2 DUP10 SWAP2 PUSH2 0xD5D JUMPI JUMPDEST POP LT PUSH2 0xD07 JUMPI DUP6 MLOAD PUSH4 0x70A08231 PUSH1 0xE0 SHL DUP1 DUP3 MSTORE CALLER DUP6 DUP4 ADD MSTORE SWAP3 SWAP1 DUP7 DUP2 PUSH1 0x24 DUP2 DUP6 GAS STATICCALL DUP1 ISZERO PUSH2 0xCFD JUMPI DUP7 SWAP2 DUP11 SWAP2 PUSH2 0xCCC JUMPI JUMPDEST POP LT PUSH2 0xC78 JUMPI DUP5 PUSH2 0xB0F SWAP2 DUP4 PUSH1 0x5 SLOAD AND SWAP1 CALLER SWAP1 PUSH2 0x133C JUMP JUMPDEST PUSH1 0x8 SLOAD AND SWAP2 DUP6 MLOAD SWAP2 DUP3 MSTORE ADDRESS DUP2 DUP4 ADD MSTORE DUP5 DUP3 PUSH1 0x24 DUP2 DUP7 GAS STATICCALL SWAP2 DUP3 ISZERO PUSH2 0xC3F JUMPI DUP8 SWAP3 PUSH2 0xC49 JUMPI JUMPDEST POP DUP6 MLOAD SWAP2 PUSH4 0x63737AC9 PUSH1 0xE1 SHL DUP4 MSTORE DUP2 DUP4 ADD MSTORE DUP5 DUP3 PUSH1 0x24 DUP2 DUP7 GAS STATICCALL SWAP1 DUP2 ISZERO PUSH2 0xC3F JUMPI DUP6 SWAP3 DUP9 SWAP3 PUSH2 0xC08 JUMPI JUMPDEST POP DUP7 MLOAD PUSH4 0x5D043B29 PUSH1 0xE1 SHL DUP2 MSTORE SWAP1 DUP2 ADD SWAP2 DUP3 MSTORE CALLER PUSH1 0x20 DUP4 ADD MSTORE ADDRESS PUSH1 0x40 DUP4 ADD MSTORE SWAP3 DUP4 SWAP2 DUP3 SWAP1 DUP10 SWAP1 DUP3 SWAP1 PUSH1 0x60 ADD JUMPDEST SUB SWAP3 GAS CALL DUP1 ISZERO PUSH2 0xBFE JUMPI PUSH2 0xBD0 JUMPI JUMPDEST POP PUSH32 0x4002DBA848920F438092E08090CFB5FC47144C22704268B402C9553A1B5ADFE6 SWAP3 PUSH2 0xBC4 PUSH2 0x1397 JUMP JUMPDEST MLOAD SWAP1 DUP2 MSTORE LOG1 PUSH1 0x1 DUP2 SSTORE DUP1 RETURN JUMPDEST DUP3 SWAP1 DUP2 RETURNDATASIZE DUP4 GT PUSH2 0xBF7 JUMPI JUMPDEST PUSH2 0xBE5 DUP2 DUP4 PUSH2 0x1176 JUMP JUMPDEST DUP2 ADD SUB SLT PUSH2 0xBF3 JUMPI PUSH0 PUSH2 0xB99 JUMP JUMPDEST DUP4 DUP1 REVERT JUMPDEST POP RETURNDATASIZE PUSH2 0xBDB JUMP JUMPDEST DUP5 MLOAD RETURNDATASIZE DUP8 DUP3 RETURNDATACOPY RETURNDATASIZE SWAP1 REVERT JUMPDEST DUP4 DUP2 SWAP5 SWAP3 SWAP4 POP RETURNDATASIZE DUP4 GT PUSH2 0xC38 JUMPI JUMPDEST PUSH2 0xC20 DUP2 DUP4 PUSH2 0x1176 JUMP JUMPDEST DUP2 ADD SUB SLT PUSH2 0xC34 JUMPI SWAP1 MLOAD DUP5 SWAP2 PUSH2 0xB8A PUSH2 0xB5E JUMP JUMPDEST DUP7 DUP1 REVERT JUMPDEST POP RETURNDATASIZE PUSH2 0xC16 JUMP JUMPDEST DUP7 MLOAD RETURNDATASIZE DUP10 DUP3 RETURNDATACOPY RETURNDATASIZE SWAP1 REVERT JUMPDEST SWAP1 SWAP2 POP DUP5 DUP2 DUP2 RETURNDATASIZE DUP4 GT PUSH2 0xC71 JUMPI JUMPDEST PUSH2 0xC61 DUP2 DUP4 PUSH2 0x1176 JUMP JUMPDEST DUP2 ADD SUB SLT PUSH2 0xC34 JUMPI MLOAD SWAP1 PUSH0 PUSH2 0xB34 JUMP JUMPDEST POP RETURNDATASIZE PUSH2 0xC57 JUMP JUMPDEST DUP7 MLOAD PUSH3 0x461BCD PUSH1 0xE5 SHL DUP2 MSTORE DUP1 DUP6 ADD DUP8 SWAP1 MSTORE PUSH1 0x28 PUSH1 0x24 DUP3 ADD MSTORE PUSH32 0x496E73756666696369656E7420746F6B656E2062616C616E636520666F722072 PUSH1 0x44 DUP3 ADD MSTORE PUSH8 0x195C185E5B595B9D PUSH1 0xC2 SHL PUSH1 0x64 DUP3 ADD MSTORE PUSH1 0x84 SWAP1 REVERT JUMPDEST DUP1 SWAP3 POP DUP9 DUP1 SWAP3 POP RETURNDATASIZE DUP4 GT PUSH2 0xCF6 JUMPI JUMPDEST PUSH2 0xCE5 DUP2 DUP4 PUSH2 0x1176 JUMP JUMPDEST DUP2 ADD SUB SLT PUSH2 0x468 JUMPI DUP6 SWAP1 MLOAD PUSH0 PUSH2 0xAF7 JUMP JUMPDEST POP RETURNDATASIZE PUSH2 0xCDB JUMP JUMPDEST DUP9 MLOAD RETURNDATASIZE DUP12 DUP3 RETURNDATACOPY RETURNDATASIZE SWAP1 REVERT JUMPDEST DUP6 MLOAD PUSH3 0x461BCD PUSH1 0xE5 SHL DUP2 MSTORE DUP1 DUP5 ADD DUP7 SWAP1 MSTORE PUSH1 0x2A PUSH1 0x24 DUP3 ADD MSTORE PUSH32 0x496E73756666696369656E7420746F6B656E20616C6C6F77616E636520666F72 PUSH1 0x44 DUP3 ADD MSTORE PUSH10 0x81C995C185E5B595B9D PUSH1 0xB2 SHL PUSH1 0x64 DUP3 ADD MSTORE PUSH1 0x84 SWAP1 REVERT JUMPDEST DUP1 SWAP3 POP DUP8 DUP1 SWAP3 POP RETURNDATASIZE DUP4 GT PUSH2 0xD87 JUMPI JUMPDEST PUSH2 0xD76 DUP2 DUP4 PUSH2 0x1176 JUMP JUMPDEST DUP2 ADD SUB SLT PUSH2 0x49F JUMPI DUP5 SWAP1 MLOAD PUSH0 PUSH2 0xAC6 JUMP JUMPDEST POP RETURNDATASIZE PUSH2 0xD6C JUMP JUMPDEST DUP8 MLOAD RETURNDATASIZE DUP11 DUP3 RETURNDATACOPY RETURNDATASIZE SWAP1 REVERT JUMPDEST PUSH1 0x20 PUSH1 0x64 SWAP3 MLOAD SWAP2 PUSH3 0x461BCD PUSH1 0xE5 SHL DUP4 MSTORE DUP3 ADD MSTORE PUSH1 0x13 PUSH1 0x24 DUP3 ADD MSTORE PUSH19 0x4C6F616E206D75737420626520616374697665 PUSH1 0x68 SHL PUSH1 0x44 DUP3 ADD MSTORE REVERT JUMPDEST SWAP1 POP CALLVALUE PUSH2 0x785 JUMPI DUP3 PUSH1 0x3 NOT CALLDATASIZE ADD SLT PUSH2 0x785 JUMPI DUP1 SLOAD SWAP2 PUSH1 0xFF DUP4 PUSH1 0xA0 SHR AND PUSH1 0x5 DUP2 LT ISZERO PUSH2 0x10A8 JUMPI PUSH1 0x2 SUB PUSH2 0x1070 JUMPI PUSH2 0xE0B PUSH1 0xE SLOAD PUSH1 0xB SLOAD SWAP1 PUSH2 0x11EC JUMP JUMPDEST NUMBER LT PUSH2 0x1022 JUMPI DUP4 SWAP1 PUSH2 0xE21 PUSH1 0x9 SLOAD PUSH2 0xA73 PUSH2 0x14C8 JUMP JUMPDEST SWAP3 PUSH1 0x1 DUP1 PUSH1 0xA0 SHL SUB SWAP5 DUP6 PUSH1 0x7 SLOAD AND SWAP1 DUP7 PUSH1 0x5 SLOAD AND SWAP1 DUP5 MLOAD SWAP7 DUP8 PUSH4 0x70A08231 PUSH1 0xE0 SHL SWAP5 DUP6 DUP3 MSTORE DUP5 DUP8 DUP4 ADD MSTORE DUP2 PUSH1 0x24 PUSH1 0x20 SWAP12 DUP13 SWAP4 GAS STATICCALL SWAP1 DUP2 ISZERO PUSH2 0xD8E JUMPI DUP9 SWAP2 PUSH2 0xFF5 JUMPI JUMPDEST POP LT PUSH2 0xE6D JUMPI DUP6 DUP1 RETURN JUMPDEST PUSH1 0xFF PUSH1 0xA0 SHL NOT AND PUSH1 0x1 PUSH1 0xA2 SHL OR DUP4 SSTORE PUSH1 0x8 SLOAD DUP5 MLOAD SWAP3 DUP4 MSTORE ADDRESS DUP4 DUP6 ADD MSTORE DUP8 AND SWAP2 DUP7 DUP2 PUSH1 0x24 DUP2 DUP7 GAS STATICCALL SWAP1 DUP2 ISZERO PUSH2 0xFBE JUMPI DUP7 SWAP2 PUSH2 0xFC8 JUMPI JUMPDEST POP DUP5 MLOAD SWAP1 PUSH4 0x63737AC9 PUSH1 0xE1 SHL DUP3 MSTORE DUP5 DUP3 ADD MSTORE DUP7 DUP2 PUSH1 0x24 DUP2 DUP7 GAS STATICCALL SWAP1 DUP2 ISZERO PUSH2 0xFBE JUMPI SWAP1 DUP8 SWAP5 SWAP4 SWAP3 SWAP2 DUP8 SWAP2 PUSH2 0xF87 JUMPI JUMPDEST POP DUP6 MLOAD PUSH4 0x5D043B29 PUSH1 0xE1 SHL DUP2 MSTORE SWAP4 DUP5 ADD SWAP1 DUP2 MSTORE PUSH1 0x1 PUSH1 0x1 PUSH1 0xA0 SHL SUB SWAP1 SWAP2 AND PUSH1 0x20 DUP3 ADD MSTORE ADDRESS PUSH1 0x40 DUP3 ADD MSTORE SWAP2 SWAP5 DUP6 SWAP3 DUP4 SWAP2 SWAP1 DUP3 SWAP1 PUSH1 0x60 ADD JUMPDEST SUB SWAP3 GAS CALL SWAP1 DUP2 ISZERO PUSH2 0xF7E JUMPI POP PUSH2 0xF55 JUMPI JUMPDEST POP POP PUSH1 0xD SLOAD AND PUSH32 0xF4E5CF42CBB1D0C6C91E16D925349FEB6C5D970652F6EC77B1FF1262F7284CD5 DUP3 DUP1 LOG2 PUSH2 0xF49 PUSH2 0x1397 JUMP JUMPDEST PUSH0 DUP1 DUP3 DUP2 DUP1 DUP1 DUP1 DUP1 DUP6 DUP1 RETURN JUMPDEST DUP2 RETURNDATASIZE DUP4 GT PUSH2 0xF77 JUMPI JUMPDEST PUSH2 0xF68 DUP2 DUP4 PUSH2 0x1176 JUMP JUMPDEST DUP2 ADD SUB SLT PUSH2 0x105 JUMPI PUSH0 DUP1 PUSH2 0xF17 JUMP JUMPDEST POP RETURNDATASIZE PUSH2 0xF5E JUMP JUMPDEST MLOAD RETURNDATASIZE DUP7 DUP3 RETURNDATACOPY RETURNDATASIZE SWAP1 REVERT JUMPDEST DUP6 DUP2 SWAP7 SWAP3 POP RETURNDATASIZE DUP4 GT PUSH2 0xFB7 JUMPI JUMPDEST PUSH2 0xF9E DUP2 DUP4 PUSH2 0x1176 JUMP JUMPDEST DUP2 ADD SUB SLT PUSH2 0xFB3 JUMPI SWAP3 MLOAD DUP7 SWAP4 SWAP1 PUSH2 0xF06 PUSH2 0xED0 JUMP JUMPDEST DUP6 DUP1 REVERT JUMPDEST POP RETURNDATASIZE PUSH2 0xF94 JUMP JUMPDEST DUP6 MLOAD RETURNDATASIZE DUP9 DUP3 RETURNDATACOPY RETURNDATASIZE SWAP1 REVERT JUMPDEST SWAP1 POP DUP7 DUP2 DUP2 RETURNDATASIZE DUP4 GT PUSH2 0xFEE JUMPI JUMPDEST PUSH2 0xFDF DUP2 DUP4 PUSH2 0x1176 JUMP JUMPDEST DUP2 ADD SUB SLT PUSH2 0xFB3 JUMPI MLOAD PUSH0 PUSH2 0xEA2 JUMP JUMPDEST POP RETURNDATASIZE PUSH2 0xFD5 JUMP JUMPDEST SWAP1 POP DUP9 DUP2 DUP2 RETURNDATASIZE DUP4 GT PUSH2 0x101B JUMPI JUMPDEST PUSH2 0x100C DUP2 DUP4 PUSH2 0x1176 JUMP JUMPDEST DUP2 ADD SUB SLT PUSH2 0x49F JUMPI MLOAD PUSH0 PUSH2 0xE63 JUMP JUMPDEST POP RETURNDATASIZE PUSH2 0x1002 JUMP JUMPDEST SWAP1 PUSH1 0x20 PUSH1 0x84 SWAP3 MLOAD SWAP2 PUSH3 0x461BCD PUSH1 0xE5 SHL DUP4 MSTORE DUP3 ADD MSTORE PUSH1 0x22 PUSH1 0x24 DUP3 ADD MSTORE PUSH32 0x52657061796D656E7420706572696F6420686173206E6F742079657420656E64 PUSH1 0x44 DUP3 ADD MSTORE PUSH2 0x1959 PUSH1 0xF2 SHL PUSH1 0x64 DUP3 ADD MSTORE REVERT JUMPDEST SWAP1 PUSH1 0x20 PUSH1 0x64 SWAP3 MLOAD SWAP2 PUSH3 0x461BCD PUSH1 0xE5 SHL DUP4 MSTORE DUP3 ADD MSTORE PUSH1 0x12 PUSH1 0x24 DUP3 ADD MSTORE PUSH18 0x4C6F616E206973206E6F7420616374697665 PUSH1 0x70 SHL PUSH1 0x44 DUP3 ADD MSTORE REVERT JUMPDEST PUSH4 0x4E487B71 PUSH1 0xE0 SHL DUP6 MSTORE PUSH1 0x21 DUP4 MSTORE PUSH1 0x24 DUP6 REVERT JUMPDEST POP POP CALLVALUE PUSH2 0x105 JUMPI DUP2 PUSH1 0x3 NOT CALLDATASIZE ADD SLT PUSH2 0x105 JUMPI PUSH1 0x20 SWAP1 PUSH1 0xF SLOAD SWAP1 MLOAD SWAP1 DUP2 MSTORE RETURN JUMPDEST POP POP CALLVALUE PUSH2 0x105 JUMPI DUP2 PUSH1 0x3 NOT CALLDATASIZE ADD SLT PUSH2 0x105 JUMPI PUSH1 0x1 SLOAD SWAP1 MLOAD PUSH1 0x1 PUSH1 0x1 PUSH1 0xA0 SHL SUB SWAP1 SWAP2 AND DUP2 MSTORE PUSH1 0x20 SWAP1 RETURN JUMPDEST DUP5 SWAP2 CALLVALUE PUSH2 0x785 JUMPI DUP3 PUSH1 0x3 NOT CALLDATASIZE ADD SLT PUSH2 0x785 JUMPI SLOAD PUSH1 0x1 PUSH1 0x1 PUSH1 0xA0 SHL SUB AND DUP2 MSTORE PUSH1 0x20 SWAP2 POP RETURN JUMPDEST SWAP2 SWAP1 PUSH1 0x20 DUP4 ADD SWAP3 PUSH1 0x5 DUP3 LT ISZERO PUSH2 0x113A JUMPI MSTORE JUMP JUMPDEST PUSH4 0x4E487B71 PUSH1 0xE0 SHL PUSH0 MSTORE PUSH1 0x21 PUSH1 0x4 MSTORE PUSH1 0x24 PUSH0 REVERT JUMPDEST PUSH8 0xFFFFFFFFFFFFFFFF DUP2 GT PUSH2 0x1162 JUMPI PUSH1 0x40 MSTORE JUMP JUMPDEST PUSH4 0x4E487B71 PUSH1 0xE0 SHL PUSH0 MSTORE PUSH1 0x41 PUSH1 0x4 MSTORE PUSH1 0x24 PUSH0 REVERT JUMPDEST SWAP1 PUSH1 0x1F DUP1 NOT SWAP2 ADD AND DUP2 ADD SWAP1 DUP2 LT PUSH8 0xFFFFFFFFFFFFFFFF DUP3 GT OR PUSH2 0x1162 JUMPI PUSH1 0x40 MSTORE JUMP JUMPDEST PUSH1 0x2 PUSH0 SLOAD EQ PUSH2 0x11A7 JUMPI PUSH1 0x2 PUSH0 SSTORE JUMP JUMPDEST PUSH1 0x40 MLOAD PUSH3 0x461BCD PUSH1 0xE5 SHL DUP2 MSTORE PUSH1 0x20 PUSH1 0x4 DUP3 ADD MSTORE PUSH1 0x1F PUSH1 0x24 DUP3 ADD MSTORE PUSH32 0x5265656E7472616E637947756172643A207265656E7472616E742063616C6C00 PUSH1 0x44 DUP3 ADD MSTORE PUSH1 0x64 SWAP1 REVERT JUMPDEST SWAP2 SWAP1 DUP3 ADD DUP1 SWAP3 GT PUSH2 0x11F9 JUMPI JUMP JUMPDEST PUSH4 0x4E487B71 PUSH1 0xE0 SHL PUSH0 MSTORE PUSH1 0x11 PUSH1 0x4 MSTORE PUSH1 0x24 PUSH0 REVERT JUMPDEST SWAP1 DUP2 PUSH1 0x20 SWAP2 SUB SLT PUSH2 0x1225 JUMPI MLOAD DUP1 ISZERO ISZERO DUP2 SUB PUSH2 0x1225 JUMPI SWAP1 JUMP JUMPDEST PUSH0 DUP1 REVERT JUMPDEST PUSH0 DUP1 PUSH2 0x1251 SWAP3 PUSH1 0x1 DUP1 PUSH1 0xA0 SHL SUB AND SWAP4 PUSH1 0x20 DUP2 MLOAD SWAP2 ADD DUP3 DUP7 GAS CALL PUSH2 0x124A PUSH2 0x129A JUMP JUMPDEST SWAP1 DUP4 PUSH2 0x12D9 JUMP JUMPDEST DUP1 MLOAD SWAP1 DUP2 ISZERO ISZERO SWAP2 DUP3 PUSH2 0x127F JUMPI JUMPDEST POP POP PUSH2 0x1267 JUMPI POP JUMP JUMPDEST PUSH1 0x24 SWAP1 PUSH1 0x40 MLOAD SWAP1 PUSH4 0x5274AFE7 PUSH1 0xE0 SHL DUP3 MSTORE PUSH1 0x4 DUP3 ADD MSTORE REVERT JUMPDEST PUSH2 0x1292 SWAP3 POP PUSH1 0x20 DUP1 SWAP2 DUP4 ADD ADD SWAP2 ADD PUSH2 0x120D JUMP JUMPDEST ISZERO PUSH0 DUP1 PUSH2 0x125E JUMP JUMPDEST RETURNDATASIZE ISZERO PUSH2 0x12D4 JUMPI RETURNDATASIZE SWAP1 PUSH8 0xFFFFFFFFFFFFFFFF DUP3 GT PUSH2 0x1162 JUMPI PUSH1 0x40 MLOAD SWAP2 PUSH2 0x12C9 PUSH1 0x1F DUP3 ADD PUSH1 0x1F NOT AND PUSH1 0x20 ADD DUP5 PUSH2 0x1176 JUMP JUMPDEST DUP3 MSTORE RETURNDATASIZE PUSH0 PUSH1 0x20 DUP5 ADD RETURNDATACOPY JUMP JUMPDEST PUSH1 0x60 SWAP1 JUMP JUMPDEST SWAP1 PUSH2 0x1300 JUMPI POP DUP1 MLOAD ISZERO PUSH2 0x12EE JUMPI DUP1 MLOAD SWAP1 PUSH1 0x20 ADD REVERT JUMPDEST PUSH1 0x40 MLOAD PUSH4 0xA12F521 PUSH1 0xE1 SHL DUP2 MSTORE PUSH1 0x4 SWAP1 REVERT JUMPDEST DUP2 MLOAD ISZERO DUP1 PUSH2 0x1333 JUMPI JUMPDEST PUSH2 0x1311 JUMPI POP SWAP1 JUMP JUMPDEST PUSH1 0x40 MLOAD PUSH4 0x9996B315 PUSH1 0xE0 SHL DUP2 MSTORE PUSH1 0x1 PUSH1 0x1 PUSH1 0xA0 SHL SUB SWAP1 SWAP2 AND PUSH1 0x4 DUP3 ADD MSTORE PUSH1 0x24 SWAP1 REVERT JUMPDEST POP DUP1 EXTCODESIZE ISZERO PUSH2 0x1309 JUMP JUMPDEST PUSH1 0x40 MLOAD PUSH4 0x23B872DD PUSH1 0xE0 SHL PUSH1 0x20 DUP3 ADD MSTORE PUSH1 0x1 PUSH1 0x1 PUSH1 0xA0 SHL SUB SWAP3 DUP4 AND PUSH1 0x24 DUP3 ADD MSTORE SWAP3 SWAP1 SWAP2 AND PUSH1 0x44 DUP4 ADD MSTORE PUSH1 0x64 DUP1 DUP4 ADD SWAP4 SWAP1 SWAP4 MSTORE SWAP2 DUP2 MSTORE PUSH1 0xA0 DUP2 ADD SWAP2 DUP2 DUP4 LT PUSH8 0xFFFFFFFFFFFFFFFF DUP5 GT OR PUSH2 0x1162 JUMPI PUSH2 0x1395 SWAP3 PUSH1 0x40 MSTORE PUSH2 0x1229 JUMP JUMPDEST JUMP JUMPDEST PUSH1 0x4 DUP1 SLOAD PUSH1 0xFF PUSH1 0xA0 SHL NOT AND PUSH1 0x3 PUSH1 0xA0 SHL OR DUP2 SSTORE PUSH1 0x2 SLOAD PUSH0 SWAP2 PUSH1 0x1 PUSH1 0x1 PUSH1 0xA0 SHL SUB SWAP2 DUP3 AND SWAP2 SWAP1 DUP3 EXTCODESIZE ISZERO PUSH2 0xBF3 JUMPI PUSH1 0x40 SWAP2 DUP3 MLOAD DUP6 DUP2 PUSH1 0x24 DUP2 DUP4 PUSH4 0x7E72C7D7 PUSH1 0xE0 SHL SWAP10 DUP11 DUP4 MSTORE ADDRESS DUP10 DUP5 ADD MSTORE GAS CALL DUP1 ISZERO PUSH2 0x14AB JUMPI PUSH2 0x14B5 JUMPI JUMPDEST POP DUP1 PUSH1 0x3 SLOAD AND DUP1 EXTCODESIZE ISZERO PUSH2 0xFB3 JUMPI DUP6 DUP1 SWAP2 PUSH1 0x24 DUP7 MLOAD DUP1 SWAP5 DUP2 SWAP4 PUSH4 0x38E270ED PUSH1 0xE0 SHL DUP4 MSTORE ADDRESS DUP10 DUP5 ADD MSTORE GAS CALL DUP1 ISZERO PUSH2 0x14AB JUMPI SWAP1 DUP7 SWAP2 PUSH2 0x1497 JUMPI JUMPDEST POP POP DUP2 SLOAD AND SWAP3 DUP4 EXTCODESIZE ISZERO PUSH2 0x9F1 JUMPI SWAP1 PUSH1 0x24 DUP6 SWAP3 DUP4 DUP6 MLOAD SWAP7 DUP8 SWAP5 DUP6 SWAP4 DUP5 MSTORE ADDRESS SWAP1 DUP5 ADD MSTORE GAS CALL SWAP1 DUP2 ISZERO PUSH2 0x148E JUMPI POP PUSH2 0x147A JUMPI JUMPDEST POP DUP1 PUSH32 0x409FCED1B85AE32A29FB1E18894D8361A5F2653DC27ADF7102D86175C2901D7C SWAP2 LOG1 JUMP JUMPDEST PUSH2 0x1484 DUP3 SWAP2 PUSH2 0x114E JUMP JUMPDEST PUSH2 0x181 JUMPI PUSH0 PUSH2 0x1453 JUMP JUMPDEST MLOAD RETURNDATASIZE DUP5 DUP3 RETURNDATACOPY RETURNDATASIZE SWAP1 REVERT JUMPDEST PUSH2 0x14A0 SWAP1 PUSH2 0x114E JUMP JUMPDEST PUSH2 0x9F1 JUMPI DUP5 PUSH0 PUSH2 0x1423 JUMP JUMPDEST DUP5 MLOAD RETURNDATASIZE DUP9 DUP3 RETURNDATACOPY RETURNDATASIZE SWAP1 REVERT JUMPDEST PUSH2 0x14C1 SWAP1 SWAP6 SWAP2 SWAP6 PUSH2 0x114E JUMP JUMPDEST SWAP4 PUSH0 PUSH2 0x13EC JUMP JUMPDEST PUSH1 0xE SLOAD NUMBER SUB NUMBER DUP2 GT PUSH2 0x11F9 JUMPI PUSH1 0x20 PUSH1 0x1 DUP1 PUSH1 0xA0 SHL SUB PUSH1 0xC SLOAD AND PUSH1 0x64 PUSH1 0x9 SLOAD PUSH1 0xA SLOAD SWAP3 PUSH1 0x40 MLOAD SWAP6 DUP7 SWAP5 DUP6 SWAP4 PUSH4 0x1786F63 PUSH1 0xE2 SHL DUP6 MSTORE PUSH1 0x4 DUP6 ADD MSTORE PUSH1 0x24 DUP5 ADD MSTORE PUSH1 0x44 DUP4 ADD MSTORE GAS STATICCALL SWAP1 DUP2 ISZERO PUSH2 0x154C JUMPI PUSH0 SWAP2 PUSH2 0x151E JUMPI POP SWAP1 JUMP JUMPDEST SWAP1 PUSH1 0x20 DUP3 RETURNDATASIZE DUP3 GT PUSH2 0x1544 JUMPI JUMPDEST DUP2 PUSH2 0x1537 PUSH1 0x20 SWAP4 DUP4 PUSH2 0x1176 JUMP JUMPDEST DUP2 ADD SUB SLT PUSH2 0x181 JUMPI POP MLOAD SWAP1 JUMP JUMPDEST RETURNDATASIZE SWAP2 POP PUSH2 0x152A JUMP JUMPDEST PUSH1 0x40 MLOAD RETURNDATASIZE PUSH0 DUP3 RETURNDATACOPY RETURNDATASIZE SWAP1 REVERT INVALID LOG2 PUSH5 0x6970667358 0x22 SLT KECCAK256 0xD8 STATICCALL SELFBALANCE SAR PUSH30 0xD5DB7222D2716A6DBEC81278E5CF3DD6E5E7D01A5C79E83706298D64736F PUSH13 0x63430008140033000000000000 "
		},
		"gasEstimates": {
			"creation": {
				"codeDepositCost": "1103400",
				"executionCost": "infinite",
				"totalCost": "infinite"
			},
			"external": {
				"activateLoan()": "infinite",
				"calculateInterest()": "infinite",
				"calculateRequiredCollateral()": "infinite",
				"checkAndHandleDefault()": "infinite",
				"fundLoan()": "infinite",
				"getCollateralAmount(address)": "infinite",
				"getFundedBlock()": "2323",
				"getInterestRate()": "2389",
				"getLoanAmount()": "2648",
				"getLoanState()": "2637",
				"getRepaymentPeriod()": "2411",
				"loanDetails()": "23773",
				"permit2()": "2322",
				"poolOrganizer()": "2630",
				"repay()": "infinite",
				"rewardManager()": "2287",
				"state()": "2681",
				"vaultManager()": "2498"
			},
			"internal": {
				"_closeLoan()": "infinite"
			}
		},
		"methodIdentifiers": {
			"activateLoan()": "b2a9bb60",
			"calculateInterest()": "eb0c4955",
			"calculateRequiredCollateral()": "6b6d1955",
			"checkAndHandleDefault()": "3b1baeff",
			"fundLoan()": "8db57994",
			"getCollateralAmount(address)": "654c6295",
			"getFundedBlock()": "2e1283e3",
			"getInterestRate()": "5257b566",
			"getLoanAmount()": "f4b01b18",
			"getLoanState()": "9e9f669c",
			"getRepaymentPeriod()": "64c4bec0",
			"loanDetails()": "95cb741d",
			"permit2()": "12261ee7",
			"poolOrganizer()": "c51b9507",
			"repay()": "402d8883",
			"rewardManager()": "0f4ef8a6",
			"state()": "c19d93fb",
			"vaultManager()": "8a4adf24"
		}
	},
	"abi": [
		{
			"inputs": [
				{
					"internalType": "address",
					"name": "lender",
					"type": "address"
				},
				{
					"internalType": "address",
					"name": "loanTokenAddress",
					"type": "address"
				},
				{
					"internalType": "address",
					"name": "repaymentTokenAddress",
					"type": "address"
				},
				{
					"internalType": "address",
					"name": "collateralVaultAddress",
					"type": "address"
				},
				{
					"internalType": "uint256",
					"name": "loanAmount",
					"type": "uint256"
				},
				{
					"internalType": "uint256",
					"name": "interestRate",
					"type": "uint256"
				},
				{
					"internalType": "uint256",
					"name": "repaymentPeriod",
					"type": "uint256"
				},
				{
					"internalType": "contract IInterestModel",
					"name": "interestModel",
					"type": "address"
				},
				{
					"internalType": "contract IPermit2",
					"name": "_permit2",
					"type": "address"
				},
				{
					"internalType": "address",
					"name": "poolOrganizerAddress",
					"type": "address"
				},
				{
					"internalType": "address",
					"name": "vaultManagerAddress",
					"type": "address"
				},
				{
					"internalType": "address",
					"name": "rewardManagerAddress",
					"type": "address"
				}
			],
			"stateMutability": "nonpayable",
			"type": "constructor"
		},
		{
			"inputs": [
				{
					"internalType": "address",
					"name": "target",
					"type": "address"
				}
			],
			"name": "AddressEmptyCode",
			"type": "error"
		},
		{
			"inputs": [
				{
					"internalType": "address",
					"name": "account",
					"type": "address"
				}
			],
			"name": "AddressInsufficientBalance",
			"type": "error"
		},
		{
			"inputs": [],
			"name": "FailedInnerCall",
			"type": "error"
		},
		{
			"inputs": [
				{
					"internalType": "address",
					"name": "token",
					"type": "address"
				}
			],
			"name": "SafeERC20FailedOperation",
			"type": "error"
		},
		{
			"anonymous": false,
			"inputs": [
				{
					"indexed": true,
					"internalType": "address",
					"name": "borrower",
					"type": "address"
				},
				{
					"indexed": false,
					"internalType": "uint256",
					"name": "collateralAmount",
					"type": "uint256"
				}
			],
			"name": "LoanActivated",
			"type": "event"
		},
		{
			"anonymous": false,
			"inputs": [],
			"name": "LoanClosed",
			"type": "event"
		},
		{
			"anonymous": false,
			"inputs": [
				{
					"indexed": true,
					"internalType": "address",
					"name": "borrower",
					"type": "address"
				}
			],
			"name": "LoanDefaulted",
			"type": "event"
		},
		{
			"anonymous": false,
			"inputs": [
				{
					"indexed": false,
					"internalType": "uint256",
					"name": "loanAmount",
					"type": "uint256"
				}
			],
			"name": "LoanFunded",
			"type": "event"
		},
		{
			"anonymous": false,
			"inputs": [
				{
					"indexed": true,
					"internalType": "address",
					"name": "lender",
					"type": "address"
				},
				{
					"indexed": false,
					"internalType": "uint256",
					"name": "loanAmount",
					"type": "uint256"
				},
				{
					"indexed": false,
					"internalType": "address",
					"name": "loanToken",
					"type": "address"
				},
				{
					"indexed": false,
					"internalType": "address",
					"name": "repaymentToken",
					"type": "address"
				}
			],
			"name": "LoanOfferCreated",
			"type": "event"
		},
		{
			"anonymous": false,
			"inputs": [
				{
					"indexed": false,
					"internalType": "uint256",
					"name": "amountRepaid",
					"type": "uint256"
				}
			],
			"name": "RepaymentMade",
			"type": "event"
		},
		{
			"inputs": [],
			"name": "activateLoan",
			"outputs": [],
			"stateMutability": "nonpayable",
			"type": "function"
		},
		{
			"inputs": [],
			"name": "calculateInterest",
			"outputs": [
				{
					"internalType": "uint256",
					"name": "",
					"type": "uint256"
				}
			],
			"stateMutability": "view",
			"type": "function"
		},
		{
			"inputs": [],
			"name": "calculateRequiredCollateral",
			"outputs": [
				{
					"internalType": "uint256",
					"name": "",
					"type": "uint256"
				}
			],
			"stateMutability": "view",
			"type": "function"
		},
		{
			"inputs": [],
			"name": "checkAndHandleDefault",
			"outputs": [],
			"stateMutability": "nonpayable",
			"type": "function"
		},
		{
			"inputs": [],
			"name": "fundLoan",
			"outputs": [],
			"stateMutability": "nonpayable",
			"type": "function"
		},
		{
			"inputs": [
				{
					"internalType": "address",
					"name": "user",
					"type": "address"
				}
			],
			"name": "getCollateralAmount",
			"outputs": [
				{
					"internalType": "uint256",
					"name": "",
					"type": "uint256"
				}
			],
			"stateMutability": "view",
			"type": "function"
		},
		{
			"inputs": [],
			"name": "getFundedBlock",
			"outputs": [
				{
					"internalType": "uint256",
					"name": "",
					"type": "uint256"
				}
			],
			"stateMutability": "view",
			"type": "function"
		},
		{
			"inputs": [],
			"name": "getInterestRate",
			"outputs": [
				{
					"internalType": "uint256",
					"name": "",
					"type": "uint256"
				}
			],
			"stateMutability": "view",
			"type": "function"
		},
		{
			"inputs": [],
			"name": "getLoanAmount",
			"outputs": [
				{
					"internalType": "uint256",
					"name": "",
					"type": "uint256"
				}
			],
			"stateMutability": "view",
			"type": "function"
		},
		{
			"inputs": [],
			"name": "getLoanState",
			"outputs": [
				{
					"internalType": "enum TuliaPool.LoanState",
					"name": "",
					"type": "uint8"
				}
			],
			"stateMutability": "view",
			"type": "function"
		},
		{
			"inputs": [],
			"name": "getRepaymentPeriod",
			"outputs": [
				{
					"internalType": "uint256",
					"name": "",
					"type": "uint256"
				}
			],
			"stateMutability": "view",
			"type": "function"
		},
		{
			"inputs": [],
			"name": "loanDetails",
			"outputs": [
				{
					"internalType": "address",
					"name": "lender",
					"type": "address"
				},
				{
					"internalType": "contract IERC20",
					"name": "loanToken",
					"type": "address"
				},
				{
					"internalType": "contract IERC20",
					"name": "repaymentToken",
					"type": "address"
				},
				{
					"internalType": "contract TuliaVault",
					"name": "collateralVault",
					"type": "address"
				},
				{
					"internalType": "uint256",
					"name": "loanAmount",
					"type": "uint256"
				},
				{
					"internalType": "uint256",
					"name": "interestRate",
					"type": "uint256"
				},
				{
					"internalType": "uint256",
					"name": "repaymentPeriod",
					"type": "uint256"
				},
				{
					"internalType": "contract IInterestModel",
					"name": "interestModel",
					"type": "address"
				},
				{
					"internalType": "address",
					"name": "borrower",
					"type": "address"
				},
				{
					"internalType": "uint256",
					"name": "startBlock",
					"type": "uint256"
				},
				{
					"internalType": "uint256",
					"name": "fundedBlock",
					"type": "uint256"
				}
			],
			"stateMutability": "view",
			"type": "function"
		},
		{
			"inputs": [],
			"name": "permit2",
			"outputs": [
				{
					"internalType": "contract IPermit2",
					"name": "",
					"type": "address"
				}
			],
			"stateMutability": "view",
			"type": "function"
		},
		{
			"inputs": [],
			"name": "poolOrganizer",
			"outputs": [
				{
					"internalType": "contract IPoolOrganizer",
					"name": "",
					"type": "address"
				}
			],
			"stateMutability": "view",
			"type": "function"
		},
		{
			"inputs": [],
			"name": "repay",
			"outputs": [],
			"stateMutability": "nonpayable",
			"type": "function"
		},
		{
			"inputs": [],
			"name": "rewardManager",
			"outputs": [
				{
					"internalType": "contract IRewardManager",
					"name": "",
					"type": "address"
				}
			],
			"stateMutability": "view",
			"type": "function"
		},
		{
			"inputs": [],
			"name": "state",
			"outputs": [
				{
					"internalType": "enum TuliaPool.LoanState",
					"name": "",
					"type": "uint8"
				}
			],
			"stateMutability": "view",
			"type": "function"
		},
		{
			"inputs": [],
			"name": "vaultManager",
			"outputs": [
				{
					"internalType": "contract IVaultManager",
					"name": "",
					"type": "address"
				}
			],
			"stateMutability": "view",
			"type": "function"
		}
	]
}