{
	"data": {
		"bytecode": {
			"linkReferences": {},
			"object": "60803460c757601f61153338819003918201601f19168301916001600160401b0383118484101760cb5780849260809460405283398101031260c75780516001600160a01b038116919082900360c757602081015160408201516001600160a01b038116929083900360c757606001516001600160a01b038116939084900360c75760015f5560018060a01b0319600254161760025560065560018060a01b0319600354161760035560018060a01b0319600454161760045560405161145390816100e08239f35b5f80fd5b634e487b7160e01b5f52604160045260245ffdfe6080806040526004361015610012575f80fd5b5f905f3560e01c908162abafe1146110955750806301ffc9a71461103f578063232fa73314610d22578063248a9ca314610cf65780632f2ff15d14610cb757806336568abe14610c7257806338d52e0f14610c495780635cffe9de1461062b578063613255ab1461057b578063846b909a1461029c5780638c9f305f1461027e57806391d1485414610234578063a217fddf14610218578063bcead63e146101ef578063c19d93fb1461019c578063c51b9507146101c6578063c694b54c1461019c578063c9c3635314610173578063d547741f1461012b5763d9d98ce4146100f9575f80fd5b346101285760403660031901126101285760206101206101176110e3565b6024359061119a565b604051908152f35b80fd5b50346101285760403660031901126101285761016f60043561014b6110cd565b9061016a610165825f526001602052600160405f20015490565b611202565b611399565b5080f35b50346101285780600319360112610128576004546040516001600160a01b039091168152602090f35b50346101285780600319360112610128576101c260ff60075416604051918291826110f9565b0390f35b50346101285780600319360112610128576003546040516001600160a01b039091168152602090f35b50346101285780600319360112610128576005546040516001600160a01b039091168152602090f35b5034610128578060031936011261012857602090604051908152f35b50346101285760403660031901126101285760406102506110cd565b9160043581526001602052209060018060a01b03165f52602052602060ff60405f2054166040519015158152f35b50346101285780600319360112610128576020600654604051908152f35b5034610128576020366003190112610128576004356102b96111e4565b801561053757600254604051636eb1769f60e11b81523360048201523060248201526001600160a01b0390911690602081604481855afa801561052c57839185916104f3575b50106104af576040516323b872dd60e01b815233600482015230602482015260448101839052906020908290606490829087905af180156104a457610477575b5060045460025483916001600160a01b039182169116803b1561047357604051637286e5e560e01b81523060048201526001600160a01b0392909216602483015282908290604490829084905af180156104535761045e575b50506103a33361123c565b50600580546001600160a01b031916331790556007805460ff1916905560035482906001600160a01b0316803b1561044f5781809160446040518094819363a956239b60e01b8352306004840152600660248401525af180156104535761043a575b50506040519081527f726d5f1a838fe31748f737fa3ae5539ccff95952adfc593a1299532b643ff7a860203392a26001815580f35b816104449161110c565b61044f57815f610405565b5080fd5b6040513d84823e3d90fd5b816104689161110c565b61044f57815f610398565b8280fd5b6104989060203d60201161049d575b610490818361110c565b810190611142565b61033f565b503d610486565b6040513d85823e3d90fd5b606460405162461bcd60e51b815260206004820152602060248201527f416c6c6f77616e6365206e6f742073657420666f722074686520616d6f756e746044820152fd5b9150506020813d602011610524575b8161050f6020938361110c565b81010312610520578290515f6102ff565b5f80fd5b3d9150610502565b6040513d86823e3d90fd5b606460405162461bcd60e51b815260206004820152602060248201527f416d6f756e74206d7573742062652067726561746572207468616e207a65726f6044820152fd5b5034610128576020366003190112610128576105956110e3565b6002546001600160a01b039081169291168203610622576020602492604051938480926370a0823160e01b82523060048301525afa90811561061657906105e3575b60209150604051908152f35b506020813d60201161060e575b816105fd6020938361110c565b8101031261052057602090516105d7565b3d91506105f0565b604051903d90823e3d90fd5b60209150610120565b5034610128576080366003190112610128576004356001600160a01b03811691908290036101285761065b6110cd565b6044359260643567ffffffffffffffff8111610c455736602382011215610c455780600401359067ffffffffffffffff8211610a20573660248383010111610a20576106a56111e4565b60ff600754166002811015610c3157610bfa576003546001600160a01b0316803b15610a2f5785809160446040518094819363a956239b60e01b8352306004840152600160248401525af18015610a2457908691610be5575b50506002546001600160a01b03858116959116919061072990889061072488861461115a565b61119a565b92604051926370a0823160e01b8452306004850152602084602481845afa938415610ba1579088918295610bac575b5060405163a9059cbb60e01b81526001600160a01b0388166004820152602481018b9052916020918391829081604481015b03925af18015610ba157896020936024959360c493610b86575b508060405196879586946323e30c8b60e01b86523360048701528d8387015260448601528a606486015260a060848601528260a4860152018484013781810183018b9052601f01601f1916810103018189885af18015610a24578690610b34575b7f439148f0bbc682ca079e46d6e2c2f0c1e3b820f1a291b069d8882abf8cf18dd9915003610afb5781860190818711610ae7576002546040516323b872dd60e01b81526001600160a01b038681166004830152306024830152604482018590529091602091839160649183918c91165af18015610abf57610aca575b506002546040516370a0823160e01b815230600482015290602090829060249082906001600160a01b03165afa908115610abf578791610a8d575b5010610a48576108d4600160ff196007541617600755565b6003546001600160a01b0316803b15610a2f5785809160446040518094819363a956239b60e01b8352306004840152600460248401525af18015610a2457908691610a33575b50506003546001600160a01b0316803b15610a2f57858091602460405180948193637e72c7d760e01b83523060048401525af18015610a2457908691610a0b575b505060025460055460405163a9059cbb60e01b81526001600160a01b0391821660048201526024810193909352602091839160449183918a91165af18015610a0057957f9d0d497e678f62d6b162c97b9724a39f45fe674650dcd4a5e88ff6317e63764f926040926001986109e3575b5082519182526020820152a355602060405160018152f35b6109fb9060203d60201161049d57610490818361110c565b6109cb565b6040513d87823e3d90fd5b81610a159161110c565b610a2057845f61095b565b8480fd5b6040513d88823e3d90fd5b8580fd5b81610a3d9161110c565b610a2057845f61091a565b60405162461bcd60e51b815260206004820152601b60248201527f466c617368206c6f616e2072657061796d656e74206661696c656400000000006044820152606490fd5b90506020813d602011610ab7575b81610aa86020938361110c565b8101031261052057515f6108bc565b3d9150610a9b565b6040513d89823e3d90fd5b610ae29060203d60201161049d57610490818361110c565b610881565b634e487b7160e01b86526011600452602486fd5b60405162461bcd60e51b8152602060048201526011602482015270119b185cda081b1bd85b8819985a5b1959607a1b6044820152606490fd5b506020813d602011610b7e575b81610b4e6020938361110c565b81010312610a2f577f439148f0bbc682ca079e46d6e2c2f0c1e3b820f1a291b069d8882abf8cf18dd99051610805565b3d9150610b41565b610b9c90863d881161049d57610490818361110c565b6107a4565b6040513d8a823e3d90fd5b915093506020813d602011610bdd575b81610bc96020938361110c565b81010312610520575192879061078a610758565b3d9150610bbc565b81610bef9161110c565b610a2057845f6106fe565b60405162461bcd60e51b815260206004820152600f60248201526e141bdbdb081b9bdd08199d5b991959608a1b6044820152606490fd5b634e487b7160e01b86526021600452602486fd5b8380fd5b50346101285780600319360112610128576002546040516001600160a01b039091168152602090f35b503461012857604036600319011261012857610c8c6110cd565b336001600160a01b03821603610ca85761016f90600435611399565b63334bd91960e11b8252600482fd5b50346101285760403660031901126101285761016f600435610cd76110cd565b90610cf1610165825f526001602052600160405f20015490565b61130d565b50346101285760203660031901126101285760206101206004355f526001602052600160405f20015490565b5034610520575f36600319011261052057610d3b6111e4565b335f9081527f95902c4d6c8ea17825d5632af066dcb87e033f1b2a91b49a7ad79e83f02c4dec602052604090205460ff1615610ffa5760ff600754166002811015610fe657610fa1576002546040516370a0823160e01b815230600482015290602090829060249082906001600160a01b03165afa908115610f28575f91610f6f575b508015610f3357610dd7600160ff196007541617600755565b6003546001600160a01b0316803b15610520575f809160446040518094819363a956239b60e01b8352306004840152600560248401525af18015610f2857610f13575b5060035482906001600160a01b0316803b1561044f57818091602460405180948193637e72c7d760e01b83523060048401525af1801561045357610efe575b505060025460055460405163a9059cbb60e01b81526001600160a01b0391821660048201526024810184905291602091839160449183918891165af180156104a457610ee1575b506005546040519182526001600160a01b0316907fcab22a4e95d29d40da2ace3f6ec72b49954a9bc7b2584f8fd47bf7f357a3ed6f90602090a26001815580f35b610ef99060203d60201161049d57610490818361110c565b610ea0565b81610f089161110c565b61044f57815f610e59565b610f209192505f9061110c565b5f905f610e1a565b6040513d5f823e3d90fd5b60405162461bcd60e51b81526020600482015260146024820152734e6f2066756e647320746f20776974686472617760601b6044820152606490fd5b90506020813d602011610f99575b81610f8a6020938361110c565b8101031261052057515f610dbe565b3d9150610f7d565b60405162461bcd60e51b815260206004820152601d60248201527f4c6f616e206973206e6f7420696e20612066756e6465642073746174650000006044820152606490fd5b634e487b7160e01b5f52602160045260245ffd5b60405162461bcd60e51b815260206004820152601860248201527f43616c6c6572206973206e6f7420746865206c656e64657200000000000000006044820152606490fd5b346105205760203660031901126105205760043563ffffffff60e01b811680910361052057602090637965db0b60e01b8114908115611084575b506040519015158152f35b6301ffc9a760e01b14905082611079565b34610520575f36600319011261052057807fc60d7a62d8843f2b14bc63f2a5240b187980481ad8c001a3caf4916aef3f667e60209252f35b602435906001600160a01b038216820361052057565b600435906001600160a01b038216820361052057565b919060208301926002821015610fe65752565b90601f8019910116810190811067ffffffffffffffff82111761112e57604052565b634e487b7160e01b5f52604160045260245ffd5b90816020910312610520575180151581036105205790565b1561116157565b60405162461bcd60e51b81526020600482015260116024820152702ab739bab83837b93a32b2103a37b5b2b760791b6044820152606490fd5b6002546111b4916001600160a01b0390811691161461115a565b600654908181029181830414901517156111d057612710900490565b634e487b7160e01b5f52601160045260245ffd5b60025f54146111f35760025f55565b633ee5aeb560e01b5f5260045ffd5b5f81815260016020908152604080832033845290915290205460ff16156112265750565b63e2517d3f60e01b5f523360045260245260445ffd5b6001600160a01b0381165f9081527f95902c4d6c8ea17825d5632af066dcb87e033f1b2a91b49a7ad79e83f02c4dec602052604090205460ff16611308576001600160a01b03165f8181527f95902c4d6c8ea17825d5632af066dcb87e033f1b2a91b49a7ad79e83f02c4dec60205260408120805460ff191660011790553391907fc60d7a62d8843f2b14bc63f2a5240b187980481ad8c001a3caf4916aef3f667e907f2f8788117e7eff1d82e926ec794901d17c78024a50270940304540a733656f0d9080a4600190565b505f90565b5f8181526001602090815260408083206001600160a01b038616845290915290205460ff16611393575f8181526001602081815260408084206001600160a01b0396909616808552959091528220805460ff19169091179055339291907f2f8788117e7eff1d82e926ec794901d17c78024a50270940304540a733656f0d9080a4600190565b50505f90565b5f8181526001602090815260408083206001600160a01b038616845290915290205460ff1615611393575f8181526001602090815260408083206001600160a01b0395909516808452949091528120805460ff19169055339291907ff6391f5c32d9c69d2a47ea670b442974b53935d1edc7fd64eb21e047a839171b9080a460019056fea2646970667358221220454cb685f19b77a75ceb65993a334be4568045bdfb158c1c76e180e08771fbc864736f6c634300081a0033",
			"opcodes": "PUSH1 0x80 CALLVALUE PUSH1 0xC7 JUMPI PUSH1 0x1F PUSH2 0x1533 CODESIZE DUP2 SWAP1 SUB SWAP2 DUP3 ADD PUSH1 0x1F NOT AND DUP4 ADD SWAP2 PUSH1 0x1 PUSH1 0x1 PUSH1 0x40 SHL SUB DUP4 GT DUP5 DUP5 LT OR PUSH1 0xCB JUMPI DUP1 DUP5 SWAP3 PUSH1 0x80 SWAP5 PUSH1 0x40 MSTORE DUP4 CODECOPY DUP2 ADD SUB SLT PUSH1 0xC7 JUMPI DUP1 MLOAD PUSH1 0x1 PUSH1 0x1 PUSH1 0xA0 SHL SUB DUP2 AND SWAP2 SWAP1 DUP3 SWAP1 SUB PUSH1 0xC7 JUMPI PUSH1 0x20 DUP2 ADD MLOAD PUSH1 0x40 DUP3 ADD MLOAD PUSH1 0x1 PUSH1 0x1 PUSH1 0xA0 SHL SUB DUP2 AND SWAP3 SWAP1 DUP4 SWAP1 SUB PUSH1 0xC7 JUMPI PUSH1 0x60 ADD MLOAD PUSH1 0x1 PUSH1 0x1 PUSH1 0xA0 SHL SUB DUP2 AND SWAP4 SWAP1 DUP5 SWAP1 SUB PUSH1 0xC7 JUMPI PUSH1 0x1 PUSH0 SSTORE PUSH1 0x1 DUP1 PUSH1 0xA0 SHL SUB NOT PUSH1 0x2 SLOAD AND OR PUSH1 0x2 SSTORE PUSH1 0x6 SSTORE PUSH1 0x1 DUP1 PUSH1 0xA0 SHL SUB NOT PUSH1 0x3 SLOAD AND OR PUSH1 0x3 SSTORE PUSH1 0x1 DUP1 PUSH1 0xA0 SHL SUB NOT PUSH1 0x4 SLOAD AND OR PUSH1 0x4 SSTORE PUSH1 0x40 MLOAD PUSH2 0x1453 SWAP1 DUP2 PUSH2 0xE0 DUP3 CODECOPY RETURN JUMPDEST PUSH0 DUP1 REVERT JUMPDEST PUSH4 0x4E487B71 PUSH1 0xE0 SHL PUSH0 MSTORE PUSH1 0x41 PUSH1 0x4 MSTORE PUSH1 0x24 PUSH0 REVERT INVALID PUSH1 0x80 DUP1 PUSH1 0x40 MSTORE PUSH1 0x4 CALLDATASIZE LT ISZERO PUSH2 0x12 JUMPI PUSH0 DUP1 REVERT JUMPDEST PUSH0 SWAP1 PUSH0 CALLDATALOAD PUSH1 0xE0 SHR SWAP1 DUP2 PUSH3 0xABAFE1 EQ PUSH2 0x1095 JUMPI POP DUP1 PUSH4 0x1FFC9A7 EQ PUSH2 0x103F JUMPI DUP1 PUSH4 0x232FA733 EQ PUSH2 0xD22 JUMPI DUP1 PUSH4 0x248A9CA3 EQ PUSH2 0xCF6 JUMPI DUP1 PUSH4 0x2F2FF15D EQ PUSH2 0xCB7 JUMPI DUP1 PUSH4 0x36568ABE EQ PUSH2 0xC72 JUMPI DUP1 PUSH4 0x38D52E0F EQ PUSH2 0xC49 JUMPI DUP1 PUSH4 0x5CFFE9DE EQ PUSH2 0x62B JUMPI DUP1 PUSH4 0x613255AB EQ PUSH2 0x57B JUMPI DUP1 PUSH4 0x846B909A EQ PUSH2 0x29C JUMPI DUP1 PUSH4 0x8C9F305F EQ PUSH2 0x27E JUMPI DUP1 PUSH4 0x91D14854 EQ PUSH2 0x234 JUMPI DUP1 PUSH4 0xA217FDDF EQ PUSH2 0x218 JUMPI DUP1 PUSH4 0xBCEAD63E EQ PUSH2 0x1EF JUMPI DUP1 PUSH4 0xC19D93FB EQ PUSH2 0x19C JUMPI DUP1 PUSH4 0xC51B9507 EQ PUSH2 0x1C6 JUMPI DUP1 PUSH4 0xC694B54C EQ PUSH2 0x19C JUMPI DUP1 PUSH4 0xC9C36353 EQ PUSH2 0x173 JUMPI DUP1 PUSH4 0xD547741F EQ PUSH2 0x12B JUMPI PUSH4 0xD9D98CE4 EQ PUSH2 0xF9 JUMPI PUSH0 DUP1 REVERT JUMPDEST CALLVALUE PUSH2 0x128 JUMPI PUSH1 0x40 CALLDATASIZE PUSH1 0x3 NOT ADD SLT PUSH2 0x128 JUMPI PUSH1 0x20 PUSH2 0x120 PUSH2 0x117 PUSH2 0x10E3 JUMP JUMPDEST PUSH1 0x24 CALLDATALOAD SWAP1 PUSH2 0x119A JUMP JUMPDEST PUSH1 0x40 MLOAD SWAP1 DUP2 MSTORE RETURN JUMPDEST DUP1 REVERT JUMPDEST POP CALLVALUE PUSH2 0x128 JUMPI PUSH1 0x40 CALLDATASIZE PUSH1 0x3 NOT ADD SLT PUSH2 0x128 JUMPI PUSH2 0x16F PUSH1 0x4 CALLDATALOAD PUSH2 0x14B PUSH2 0x10CD JUMP JUMPDEST SWAP1 PUSH2 0x16A PUSH2 0x165 DUP3 PUSH0 MSTORE PUSH1 0x1 PUSH1 0x20 MSTORE PUSH1 0x1 PUSH1 0x40 PUSH0 KECCAK256 ADD SLOAD SWAP1 JUMP JUMPDEST PUSH2 0x1202 JUMP JUMPDEST PUSH2 0x1399 JUMP JUMPDEST POP DUP1 RETURN JUMPDEST POP CALLVALUE PUSH2 0x128 JUMPI DUP1 PUSH1 0x3 NOT CALLDATASIZE ADD SLT PUSH2 0x128 JUMPI PUSH1 0x4 SLOAD PUSH1 0x40 MLOAD PUSH1 0x1 PUSH1 0x1 PUSH1 0xA0 SHL SUB SWAP1 SWAP2 AND DUP2 MSTORE PUSH1 0x20 SWAP1 RETURN JUMPDEST POP CALLVALUE PUSH2 0x128 JUMPI DUP1 PUSH1 0x3 NOT CALLDATASIZE ADD SLT PUSH2 0x128 JUMPI PUSH2 0x1C2 PUSH1 0xFF PUSH1 0x7 SLOAD AND PUSH1 0x40 MLOAD SWAP2 DUP3 SWAP2 DUP3 PUSH2 0x10F9 JUMP JUMPDEST SUB SWAP1 RETURN JUMPDEST POP CALLVALUE PUSH2 0x128 JUMPI DUP1 PUSH1 0x3 NOT CALLDATASIZE ADD SLT PUSH2 0x128 JUMPI PUSH1 0x3 SLOAD PUSH1 0x40 MLOAD PUSH1 0x1 PUSH1 0x1 PUSH1 0xA0 SHL SUB SWAP1 SWAP2 AND DUP2 MSTORE PUSH1 0x20 SWAP1 RETURN JUMPDEST POP CALLVALUE PUSH2 0x128 JUMPI DUP1 PUSH1 0x3 NOT CALLDATASIZE ADD SLT PUSH2 0x128 JUMPI PUSH1 0x5 SLOAD PUSH1 0x40 MLOAD PUSH1 0x1 PUSH1 0x1 PUSH1 0xA0 SHL SUB SWAP1 SWAP2 AND DUP2 MSTORE PUSH1 0x20 SWAP1 RETURN JUMPDEST POP CALLVALUE PUSH2 0x128 JUMPI DUP1 PUSH1 0x3 NOT CALLDATASIZE ADD SLT PUSH2 0x128 JUMPI PUSH1 0x20 SWAP1 PUSH1 0x40 MLOAD SWAP1 DUP2 MSTORE RETURN JUMPDEST POP CALLVALUE PUSH2 0x128 JUMPI PUSH1 0x40 CALLDATASIZE PUSH1 0x3 NOT ADD SLT PUSH2 0x128 JUMPI PUSH1 0x40 PUSH2 0x250 PUSH2 0x10CD JUMP JUMPDEST SWAP2 PUSH1 0x4 CALLDATALOAD DUP2 MSTORE PUSH1 0x1 PUSH1 0x20 MSTORE KECCAK256 SWAP1 PUSH1 0x1 DUP1 PUSH1 0xA0 SHL SUB AND PUSH0 MSTORE PUSH1 0x20 MSTORE PUSH1 0x20 PUSH1 0xFF PUSH1 0x40 PUSH0 KECCAK256 SLOAD AND PUSH1 0x40 MLOAD SWAP1 ISZERO ISZERO DUP2 MSTORE RETURN JUMPDEST POP CALLVALUE PUSH2 0x128 JUMPI DUP1 PUSH1 0x3 NOT CALLDATASIZE ADD SLT PUSH2 0x128 JUMPI PUSH1 0x20 PUSH1 0x6 SLOAD PUSH1 0x40 MLOAD SWAP1 DUP2 MSTORE RETURN JUMPDEST POP CALLVALUE PUSH2 0x128 JUMPI PUSH1 0x20 CALLDATASIZE PUSH1 0x3 NOT ADD SLT PUSH2 0x128 JUMPI PUSH1 0x4 CALLDATALOAD PUSH2 0x2B9 PUSH2 0x11E4 JUMP JUMPDEST DUP1 ISZERO PUSH2 0x537 JUMPI PUSH1 0x2 SLOAD PUSH1 0x40 MLOAD PUSH4 0x6EB1769F PUSH1 0xE1 SHL DUP2 MSTORE CALLER PUSH1 0x4 DUP3 ADD MSTORE ADDRESS PUSH1 0x24 DUP3 ADD MSTORE PUSH1 0x1 PUSH1 0x1 PUSH1 0xA0 SHL SUB SWAP1 SWAP2 AND SWAP1 PUSH1 0x20 DUP2 PUSH1 0x44 DUP2 DUP6 GAS STATICCALL DUP1 ISZERO PUSH2 0x52C JUMPI DUP4 SWAP2 DUP6 SWAP2 PUSH2 0x4F3 JUMPI JUMPDEST POP LT PUSH2 0x4AF JUMPI PUSH1 0x40 MLOAD PUSH4 0x23B872DD PUSH1 0xE0 SHL DUP2 MSTORE CALLER PUSH1 0x4 DUP3 ADD MSTORE ADDRESS PUSH1 0x24 DUP3 ADD MSTORE PUSH1 0x44 DUP2 ADD DUP4 SWAP1 MSTORE SWAP1 PUSH1 0x20 SWAP1 DUP3 SWAP1 PUSH1 0x64 SWAP1 DUP3 SWAP1 DUP8 SWAP1 GAS CALL DUP1 ISZERO PUSH2 0x4A4 JUMPI PUSH2 0x477 JUMPI JUMPDEST POP PUSH1 0x4 SLOAD PUSH1 0x2 SLOAD DUP4 SWAP2 PUSH1 0x1 PUSH1 0x1 PUSH1 0xA0 SHL SUB SWAP2 DUP3 AND SWAP2 AND DUP1 EXTCODESIZE ISZERO PUSH2 0x473 JUMPI PUSH1 0x40 MLOAD PUSH4 0x7286E5E5 PUSH1 0xE0 SHL DUP2 MSTORE ADDRESS PUSH1 0x4 DUP3 ADD MSTORE PUSH1 0x1 PUSH1 0x1 PUSH1 0xA0 SHL SUB SWAP3 SWAP1 SWAP3 AND PUSH1 0x24 DUP4 ADD MSTORE DUP3 SWAP1 DUP3 SWAP1 PUSH1 0x44 SWAP1 DUP3 SWAP1 DUP5 SWAP1 GAS CALL DUP1 ISZERO PUSH2 0x453 JUMPI PUSH2 0x45E JUMPI JUMPDEST POP POP PUSH2 0x3A3 CALLER PUSH2 0x123C JUMP JUMPDEST POP PUSH1 0x5 DUP1 SLOAD PUSH1 0x1 PUSH1 0x1 PUSH1 0xA0 SHL SUB NOT AND CALLER OR SWAP1 SSTORE PUSH1 0x7 DUP1 SLOAD PUSH1 0xFF NOT AND SWAP1 SSTORE PUSH1 0x3 SLOAD DUP3 SWAP1 PUSH1 0x1 PUSH1 0x1 PUSH1 0xA0 SHL SUB AND DUP1 EXTCODESIZE ISZERO PUSH2 0x44F JUMPI DUP2 DUP1 SWAP2 PUSH1 0x44 PUSH1 0x40 MLOAD DUP1 SWAP5 DUP2 SWAP4 PUSH4 0xA956239B PUSH1 0xE0 SHL DUP4 MSTORE ADDRESS PUSH1 0x4 DUP5 ADD MSTORE PUSH1 0x6 PUSH1 0x24 DUP5 ADD MSTORE GAS CALL DUP1 ISZERO PUSH2 0x453 JUMPI PUSH2 0x43A JUMPI JUMPDEST POP POP PUSH1 0x40 MLOAD SWAP1 DUP2 MSTORE PUSH32 0x726D5F1A838FE31748F737FA3AE5539CCFF95952ADFC593A1299532B643FF7A8 PUSH1 0x20 CALLER SWAP3 LOG2 PUSH1 0x1 DUP2 SSTORE DUP1 RETURN JUMPDEST DUP2 PUSH2 0x444 SWAP2 PUSH2 0x110C JUMP JUMPDEST PUSH2 0x44F JUMPI DUP2 PUSH0 PUSH2 0x405 JUMP JUMPDEST POP DUP1 REVERT JUMPDEST PUSH1 0x40 MLOAD RETURNDATASIZE DUP5 DUP3 RETURNDATACOPY RETURNDATASIZE SWAP1 REVERT JUMPDEST DUP2 PUSH2 0x468 SWAP2 PUSH2 0x110C JUMP JUMPDEST PUSH2 0x44F JUMPI DUP2 PUSH0 PUSH2 0x398 JUMP JUMPDEST DUP3 DUP1 REVERT JUMPDEST PUSH2 0x498 SWAP1 PUSH1 0x20 RETURNDATASIZE PUSH1 0x20 GT PUSH2 0x49D JUMPI JUMPDEST PUSH2 0x490 DUP2 DUP4 PUSH2 0x110C JUMP JUMPDEST DUP2 ADD SWAP1 PUSH2 0x1142 JUMP JUMPDEST PUSH2 0x33F JUMP JUMPDEST POP RETURNDATASIZE PUSH2 0x486 JUMP JUMPDEST PUSH1 0x40 MLOAD RETURNDATASIZE DUP6 DUP3 RETURNDATACOPY RETURNDATASIZE SWAP1 REVERT JUMPDEST PUSH1 0x64 PUSH1 0x40 MLOAD PUSH3 0x461BCD PUSH1 0xE5 SHL DUP2 MSTORE PUSH1 0x20 PUSH1 0x4 DUP3 ADD MSTORE PUSH1 0x20 PUSH1 0x24 DUP3 ADD MSTORE PUSH32 0x416C6C6F77616E6365206E6F742073657420666F722074686520616D6F756E74 PUSH1 0x44 DUP3 ADD MSTORE REVERT JUMPDEST SWAP2 POP POP PUSH1 0x20 DUP2 RETURNDATASIZE PUSH1 0x20 GT PUSH2 0x524 JUMPI JUMPDEST DUP2 PUSH2 0x50F PUSH1 0x20 SWAP4 DUP4 PUSH2 0x110C JUMP JUMPDEST DUP2 ADD SUB SLT PUSH2 0x520 JUMPI DUP3 SWAP1 MLOAD PUSH0 PUSH2 0x2FF JUMP JUMPDEST PUSH0 DUP1 REVERT JUMPDEST RETURNDATASIZE SWAP2 POP PUSH2 0x502 JUMP JUMPDEST PUSH1 0x40 MLOAD RETURNDATASIZE DUP7 DUP3 RETURNDATACOPY RETURNDATASIZE SWAP1 REVERT JUMPDEST PUSH1 0x64 PUSH1 0x40 MLOAD PUSH3 0x461BCD PUSH1 0xE5 SHL DUP2 MSTORE PUSH1 0x20 PUSH1 0x4 DUP3 ADD MSTORE PUSH1 0x20 PUSH1 0x24 DUP3 ADD MSTORE PUSH32 0x416D6F756E74206D7573742062652067726561746572207468616E207A65726F PUSH1 0x44 DUP3 ADD MSTORE REVERT JUMPDEST POP CALLVALUE PUSH2 0x128 JUMPI PUSH1 0x20 CALLDATASIZE PUSH1 0x3 NOT ADD SLT PUSH2 0x128 JUMPI PUSH2 0x595 PUSH2 0x10E3 JUMP JUMPDEST PUSH1 0x2 SLOAD PUSH1 0x1 PUSH1 0x1 PUSH1 0xA0 SHL SUB SWAP1 DUP2 AND SWAP3 SWAP2 AND DUP3 SUB PUSH2 0x622 JUMPI PUSH1 0x20 PUSH1 0x24 SWAP3 PUSH1 0x40 MLOAD SWAP4 DUP5 DUP1 SWAP3 PUSH4 0x70A08231 PUSH1 0xE0 SHL DUP3 MSTORE ADDRESS PUSH1 0x4 DUP4 ADD MSTORE GAS STATICCALL SWAP1 DUP2 ISZERO PUSH2 0x616 JUMPI SWAP1 PUSH2 0x5E3 JUMPI JUMPDEST PUSH1 0x20 SWAP2 POP PUSH1 0x40 MLOAD SWAP1 DUP2 MSTORE RETURN JUMPDEST POP PUSH1 0x20 DUP2 RETURNDATASIZE PUSH1 0x20 GT PUSH2 0x60E JUMPI JUMPDEST DUP2 PUSH2 0x5FD PUSH1 0x20 SWAP4 DUP4 PUSH2 0x110C JUMP JUMPDEST DUP2 ADD SUB SLT PUSH2 0x520 JUMPI PUSH1 0x20 SWAP1 MLOAD PUSH2 0x5D7 JUMP JUMPDEST RETURNDATASIZE SWAP2 POP PUSH2 0x5F0 JUMP JUMPDEST PUSH1 0x40 MLOAD SWAP1 RETURNDATASIZE SWAP1 DUP3 RETURNDATACOPY RETURNDATASIZE SWAP1 REVERT JUMPDEST PUSH1 0x20 SWAP2 POP PUSH2 0x120 JUMP JUMPDEST POP CALLVALUE PUSH2 0x128 JUMPI PUSH1 0x80 CALLDATASIZE PUSH1 0x3 NOT ADD SLT PUSH2 0x128 JUMPI PUSH1 0x4 CALLDATALOAD PUSH1 0x1 PUSH1 0x1 PUSH1 0xA0 SHL SUB DUP2 AND SWAP2 SWAP1 DUP3 SWAP1 SUB PUSH2 0x128 JUMPI PUSH2 0x65B PUSH2 0x10CD JUMP JUMPDEST PUSH1 0x44 CALLDATALOAD SWAP3 PUSH1 0x64 CALLDATALOAD PUSH8 0xFFFFFFFFFFFFFFFF DUP2 GT PUSH2 0xC45 JUMPI CALLDATASIZE PUSH1 0x23 DUP3 ADD SLT ISZERO PUSH2 0xC45 JUMPI DUP1 PUSH1 0x4 ADD CALLDATALOAD SWAP1 PUSH8 0xFFFFFFFFFFFFFFFF DUP3 GT PUSH2 0xA20 JUMPI CALLDATASIZE PUSH1 0x24 DUP4 DUP4 ADD ADD GT PUSH2 0xA20 JUMPI PUSH2 0x6A5 PUSH2 0x11E4 JUMP JUMPDEST PUSH1 0xFF PUSH1 0x7 SLOAD AND PUSH1 0x2 DUP2 LT ISZERO PUSH2 0xC31 JUMPI PUSH2 0xBFA JUMPI PUSH1 0x3 SLOAD PUSH1 0x1 PUSH1 0x1 PUSH1 0xA0 SHL SUB AND DUP1 EXTCODESIZE ISZERO PUSH2 0xA2F JUMPI DUP6 DUP1 SWAP2 PUSH1 0x44 PUSH1 0x40 MLOAD DUP1 SWAP5 DUP2 SWAP4 PUSH4 0xA956239B PUSH1 0xE0 SHL DUP4 MSTORE ADDRESS PUSH1 0x4 DUP5 ADD MSTORE PUSH1 0x1 PUSH1 0x24 DUP5 ADD MSTORE GAS CALL DUP1 ISZERO PUSH2 0xA24 JUMPI SWAP1 DUP7 SWAP2 PUSH2 0xBE5 JUMPI JUMPDEST POP POP PUSH1 0x2 SLOAD PUSH1 0x1 PUSH1 0x1 PUSH1 0xA0 SHL SUB DUP6 DUP2 AND SWAP6 SWAP2 AND SWAP2 SWAP1 PUSH2 0x729 SWAP1 DUP9 SWAP1 PUSH2 0x724 DUP9 DUP7 EQ PUSH2 0x115A JUMP JUMPDEST PUSH2 0x119A JUMP JUMPDEST SWAP3 PUSH1 0x40 MLOAD SWAP3 PUSH4 0x70A08231 PUSH1 0xE0 SHL DUP5 MSTORE ADDRESS PUSH1 0x4 DUP6 ADD MSTORE PUSH1 0x20 DUP5 PUSH1 0x24 DUP2 DUP5 GAS STATICCALL SWAP4 DUP5 ISZERO PUSH2 0xBA1 JUMPI SWAP1 DUP9 SWAP2 DUP3 SWAP6 PUSH2 0xBAC JUMPI JUMPDEST POP PUSH1 0x40 MLOAD PUSH4 0xA9059CBB PUSH1 0xE0 SHL DUP2 MSTORE PUSH1 0x1 PUSH1 0x1 PUSH1 0xA0 SHL SUB DUP9 AND PUSH1 0x4 DUP3 ADD MSTORE PUSH1 0x24 DUP2 ADD DUP12 SWAP1 MSTORE SWAP2 PUSH1 0x20 SWAP2 DUP4 SWAP2 DUP3 SWAP1 DUP2 PUSH1 0x44 DUP2 ADD JUMPDEST SUB SWAP3 GAS CALL DUP1 ISZERO PUSH2 0xBA1 JUMPI DUP10 PUSH1 0x20 SWAP4 PUSH1 0x24 SWAP6 SWAP4 PUSH1 0xC4 SWAP4 PUSH2 0xB86 JUMPI JUMPDEST POP DUP1 PUSH1 0x40 MLOAD SWAP7 DUP8 SWAP6 DUP7 SWAP5 PUSH4 0x23E30C8B PUSH1 0xE0 SHL DUP7 MSTORE CALLER PUSH1 0x4 DUP8 ADD MSTORE DUP14 DUP4 DUP8 ADD MSTORE PUSH1 0x44 DUP7 ADD MSTORE DUP11 PUSH1 0x64 DUP7 ADD MSTORE PUSH1 0xA0 PUSH1 0x84 DUP7 ADD MSTORE DUP3 PUSH1 0xA4 DUP7 ADD MSTORE ADD DUP5 DUP5 ADD CALLDATACOPY DUP2 DUP2 ADD DUP4 ADD DUP12 SWAP1 MSTORE PUSH1 0x1F ADD PUSH1 0x1F NOT AND DUP2 ADD SUB ADD DUP2 DUP10 DUP9 GAS CALL DUP1 ISZERO PUSH2 0xA24 JUMPI DUP7 SWAP1 PUSH2 0xB34 JUMPI JUMPDEST PUSH32 0x439148F0BBC682CA079E46D6E2C2F0C1E3B820F1A291B069D8882ABF8CF18DD9 SWAP2 POP SUB PUSH2 0xAFB JUMPI DUP2 DUP7 ADD SWAP1 DUP2 DUP8 GT PUSH2 0xAE7 JUMPI PUSH1 0x2 SLOAD PUSH1 0x40 MLOAD PUSH4 0x23B872DD PUSH1 0xE0 SHL DUP2 MSTORE PUSH1 0x1 PUSH1 0x1 PUSH1 0xA0 SHL SUB DUP7 DUP2 AND PUSH1 0x4 DUP4 ADD MSTORE ADDRESS PUSH1 0x24 DUP4 ADD MSTORE PUSH1 0x44 DUP3 ADD DUP6 SWAP1 MSTORE SWAP1 SWAP2 PUSH1 0x20 SWAP2 DUP4 SWAP2 PUSH1 0x64 SWAP2 DUP4 SWAP2 DUP13 SWAP2 AND GAS CALL DUP1 ISZERO PUSH2 0xABF JUMPI PUSH2 0xACA JUMPI JUMPDEST POP PUSH1 0x2 SLOAD PUSH1 0x40 MLOAD PUSH4 0x70A08231 PUSH1 0xE0 SHL DUP2 MSTORE ADDRESS PUSH1 0x4 DUP3 ADD MSTORE SWAP1 PUSH1 0x20 SWAP1 DUP3 SWAP1 PUSH1 0x24 SWAP1 DUP3 SWAP1 PUSH1 0x1 PUSH1 0x1 PUSH1 0xA0 SHL SUB AND GAS STATICCALL SWAP1 DUP2 ISZERO PUSH2 0xABF JUMPI DUP8 SWAP2 PUSH2 0xA8D JUMPI JUMPDEST POP LT PUSH2 0xA48 JUMPI PUSH2 0x8D4 PUSH1 0x1 PUSH1 0xFF NOT PUSH1 0x7 SLOAD AND OR PUSH1 0x7 SSTORE JUMP JUMPDEST PUSH1 0x3 SLOAD PUSH1 0x1 PUSH1 0x1 PUSH1 0xA0 SHL SUB AND DUP1 EXTCODESIZE ISZERO PUSH2 0xA2F JUMPI DUP6 DUP1 SWAP2 PUSH1 0x44 PUSH1 0x40 MLOAD DUP1 SWAP5 DUP2 SWAP4 PUSH4 0xA956239B PUSH1 0xE0 SHL DUP4 MSTORE ADDRESS PUSH1 0x4 DUP5 ADD MSTORE PUSH1 0x4 PUSH1 0x24 DUP5 ADD MSTORE GAS CALL DUP1 ISZERO PUSH2 0xA24 JUMPI SWAP1 DUP7 SWAP2 PUSH2 0xA33 JUMPI JUMPDEST POP POP PUSH1 0x3 SLOAD PUSH1 0x1 PUSH1 0x1 PUSH1 0xA0 SHL SUB AND DUP1 EXTCODESIZE ISZERO PUSH2 0xA2F JUMPI DUP6 DUP1 SWAP2 PUSH1 0x24 PUSH1 0x40 MLOAD DUP1 SWAP5 DUP2 SWAP4 PUSH4 0x7E72C7D7 PUSH1 0xE0 SHL DUP4 MSTORE ADDRESS PUSH1 0x4 DUP5 ADD MSTORE GAS CALL DUP1 ISZERO PUSH2 0xA24 JUMPI SWAP1 DUP7 SWAP2 PUSH2 0xA0B JUMPI JUMPDEST POP POP PUSH1 0x2 SLOAD PUSH1 0x5 SLOAD PUSH1 0x40 MLOAD PUSH4 0xA9059CBB PUSH1 0xE0 SHL DUP2 MSTORE PUSH1 0x1 PUSH1 0x1 PUSH1 0xA0 SHL SUB SWAP2 DUP3 AND PUSH1 0x4 DUP3 ADD MSTORE PUSH1 0x24 DUP2 ADD SWAP4 SWAP1 SWAP4 MSTORE PUSH1 0x20 SWAP2 DUP4 SWAP2 PUSH1 0x44 SWAP2 DUP4 SWAP2 DUP11 SWAP2 AND GAS CALL DUP1 ISZERO PUSH2 0xA00 JUMPI SWAP6 PUSH32 0x9D0D497E678F62D6B162C97B9724A39F45FE674650DCD4A5E88FF6317E63764F SWAP3 PUSH1 0x40 SWAP3 PUSH1 0x1 SWAP9 PUSH2 0x9E3 JUMPI JUMPDEST POP DUP3 MLOAD SWAP2 DUP3 MSTORE PUSH1 0x20 DUP3 ADD MSTORE LOG3 SSTORE PUSH1 0x20 PUSH1 0x40 MLOAD PUSH1 0x1 DUP2 MSTORE RETURN JUMPDEST PUSH2 0x9FB SWAP1 PUSH1 0x20 RETURNDATASIZE PUSH1 0x20 GT PUSH2 0x49D JUMPI PUSH2 0x490 DUP2 DUP4 PUSH2 0x110C JUMP JUMPDEST PUSH2 0x9CB JUMP JUMPDEST PUSH1 0x40 MLOAD RETURNDATASIZE DUP8 DUP3 RETURNDATACOPY RETURNDATASIZE SWAP1 REVERT JUMPDEST DUP2 PUSH2 0xA15 SWAP2 PUSH2 0x110C JUMP JUMPDEST PUSH2 0xA20 JUMPI DUP5 PUSH0 PUSH2 0x95B JUMP JUMPDEST DUP5 DUP1 REVERT JUMPDEST PUSH1 0x40 MLOAD RETURNDATASIZE DUP9 DUP3 RETURNDATACOPY RETURNDATASIZE SWAP1 REVERT JUMPDEST DUP6 DUP1 REVERT JUMPDEST DUP2 PUSH2 0xA3D SWAP2 PUSH2 0x110C JUMP JUMPDEST PUSH2 0xA20 JUMPI DUP5 PUSH0 PUSH2 0x91A JUMP JUMPDEST PUSH1 0x40 MLOAD PUSH3 0x461BCD PUSH1 0xE5 SHL DUP2 MSTORE PUSH1 0x20 PUSH1 0x4 DUP3 ADD MSTORE PUSH1 0x1B PUSH1 0x24 DUP3 ADD MSTORE PUSH32 0x466C617368206C6F616E2072657061796D656E74206661696C65640000000000 PUSH1 0x44 DUP3 ADD MSTORE PUSH1 0x64 SWAP1 REVERT JUMPDEST SWAP1 POP PUSH1 0x20 DUP2 RETURNDATASIZE PUSH1 0x20 GT PUSH2 0xAB7 JUMPI JUMPDEST DUP2 PUSH2 0xAA8 PUSH1 0x20 SWAP4 DUP4 PUSH2 0x110C JUMP JUMPDEST DUP2 ADD SUB SLT PUSH2 0x520 JUMPI MLOAD PUSH0 PUSH2 0x8BC JUMP JUMPDEST RETURNDATASIZE SWAP2 POP PUSH2 0xA9B JUMP JUMPDEST PUSH1 0x40 MLOAD RETURNDATASIZE DUP10 DUP3 RETURNDATACOPY RETURNDATASIZE SWAP1 REVERT JUMPDEST PUSH2 0xAE2 SWAP1 PUSH1 0x20 RETURNDATASIZE PUSH1 0x20 GT PUSH2 0x49D JUMPI PUSH2 0x490 DUP2 DUP4 PUSH2 0x110C JUMP JUMPDEST PUSH2 0x881 JUMP JUMPDEST PUSH4 0x4E487B71 PUSH1 0xE0 SHL DUP7 MSTORE PUSH1 0x11 PUSH1 0x4 MSTORE PUSH1 0x24 DUP7 REVERT JUMPDEST PUSH1 0x40 MLOAD PUSH3 0x461BCD PUSH1 0xE5 SHL DUP2 MSTORE PUSH1 0x20 PUSH1 0x4 DUP3 ADD MSTORE PUSH1 0x11 PUSH1 0x24 DUP3 ADD MSTORE PUSH17 0x119B185CDA081B1BD85B8819985A5B1959 PUSH1 0x7A SHL PUSH1 0x44 DUP3 ADD MSTORE PUSH1 0x64 SWAP1 REVERT JUMPDEST POP PUSH1 0x20 DUP2 RETURNDATASIZE PUSH1 0x20 GT PUSH2 0xB7E JUMPI JUMPDEST DUP2 PUSH2 0xB4E PUSH1 0x20 SWAP4 DUP4 PUSH2 0x110C JUMP JUMPDEST DUP2 ADD SUB SLT PUSH2 0xA2F JUMPI PUSH32 0x439148F0BBC682CA079E46D6E2C2F0C1E3B820F1A291B069D8882ABF8CF18DD9 SWAP1 MLOAD PUSH2 0x805 JUMP JUMPDEST RETURNDATASIZE SWAP2 POP PUSH2 0xB41 JUMP JUMPDEST PUSH2 0xB9C SWAP1 DUP7 RETURNDATASIZE DUP9 GT PUSH2 0x49D JUMPI PUSH2 0x490 DUP2 DUP4 PUSH2 0x110C JUMP JUMPDEST PUSH2 0x7A4 JUMP JUMPDEST PUSH1 0x40 MLOAD RETURNDATASIZE DUP11 DUP3 RETURNDATACOPY RETURNDATASIZE SWAP1 REVERT JUMPDEST SWAP2 POP SWAP4 POP PUSH1 0x20 DUP2 RETURNDATASIZE PUSH1 0x20 GT PUSH2 0xBDD JUMPI JUMPDEST DUP2 PUSH2 0xBC9 PUSH1 0x20 SWAP4 DUP4 PUSH2 0x110C JUMP JUMPDEST DUP2 ADD SUB SLT PUSH2 0x520 JUMPI MLOAD SWAP3 DUP8 SWAP1 PUSH2 0x78A PUSH2 0x758 JUMP JUMPDEST RETURNDATASIZE SWAP2 POP PUSH2 0xBBC JUMP JUMPDEST DUP2 PUSH2 0xBEF SWAP2 PUSH2 0x110C JUMP JUMPDEST PUSH2 0xA20 JUMPI DUP5 PUSH0 PUSH2 0x6FE JUMP JUMPDEST PUSH1 0x40 MLOAD PUSH3 0x461BCD PUSH1 0xE5 SHL DUP2 MSTORE PUSH1 0x20 PUSH1 0x4 DUP3 ADD MSTORE PUSH1 0xF PUSH1 0x24 DUP3 ADD MSTORE PUSH15 0x141BDBDB081B9BDD08199D5B991959 PUSH1 0x8A SHL PUSH1 0x44 DUP3 ADD MSTORE PUSH1 0x64 SWAP1 REVERT JUMPDEST PUSH4 0x4E487B71 PUSH1 0xE0 SHL DUP7 MSTORE PUSH1 0x21 PUSH1 0x4 MSTORE PUSH1 0x24 DUP7 REVERT JUMPDEST DUP4 DUP1 REVERT JUMPDEST POP CALLVALUE PUSH2 0x128 JUMPI DUP1 PUSH1 0x3 NOT CALLDATASIZE ADD SLT PUSH2 0x128 JUMPI PUSH1 0x2 SLOAD PUSH1 0x40 MLOAD PUSH1 0x1 PUSH1 0x1 PUSH1 0xA0 SHL SUB SWAP1 SWAP2 AND DUP2 MSTORE PUSH1 0x20 SWAP1 RETURN JUMPDEST POP CALLVALUE PUSH2 0x128 JUMPI PUSH1 0x40 CALLDATASIZE PUSH1 0x3 NOT ADD SLT PUSH2 0x128 JUMPI PUSH2 0xC8C PUSH2 0x10CD JUMP JUMPDEST CALLER PUSH1 0x1 PUSH1 0x1 PUSH1 0xA0 SHL SUB DUP3 AND SUB PUSH2 0xCA8 JUMPI PUSH2 0x16F SWAP1 PUSH1 0x4 CALLDATALOAD PUSH2 0x1399 JUMP JUMPDEST PUSH4 0x334BD919 PUSH1 0xE1 SHL DUP3 MSTORE PUSH1 0x4 DUP3 REVERT JUMPDEST POP CALLVALUE PUSH2 0x128 JUMPI PUSH1 0x40 CALLDATASIZE PUSH1 0x3 NOT ADD SLT PUSH2 0x128 JUMPI PUSH2 0x16F PUSH1 0x4 CALLDATALOAD PUSH2 0xCD7 PUSH2 0x10CD JUMP JUMPDEST SWAP1 PUSH2 0xCF1 PUSH2 0x165 DUP3 PUSH0 MSTORE PUSH1 0x1 PUSH1 0x20 MSTORE PUSH1 0x1 PUSH1 0x40 PUSH0 KECCAK256 ADD SLOAD SWAP1 JUMP JUMPDEST PUSH2 0x130D JUMP JUMPDEST POP CALLVALUE PUSH2 0x128 JUMPI PUSH1 0x20 CALLDATASIZE PUSH1 0x3 NOT ADD SLT PUSH2 0x128 JUMPI PUSH1 0x20 PUSH2 0x120 PUSH1 0x4 CALLDATALOAD PUSH0 MSTORE PUSH1 0x1 PUSH1 0x20 MSTORE PUSH1 0x1 PUSH1 0x40 PUSH0 KECCAK256 ADD SLOAD SWAP1 JUMP JUMPDEST POP CALLVALUE PUSH2 0x520 JUMPI PUSH0 CALLDATASIZE PUSH1 0x3 NOT ADD SLT PUSH2 0x520 JUMPI PUSH2 0xD3B PUSH2 0x11E4 JUMP JUMPDEST CALLER PUSH0 SWAP1 DUP2 MSTORE PUSH32 0x95902C4D6C8EA17825D5632AF066DCB87E033F1B2A91B49A7AD79E83F02C4DEC PUSH1 0x20 MSTORE PUSH1 0x40 SWAP1 KECCAK256 SLOAD PUSH1 0xFF AND ISZERO PUSH2 0xFFA JUMPI PUSH1 0xFF PUSH1 0x7 SLOAD AND PUSH1 0x2 DUP2 LT ISZERO PUSH2 0xFE6 JUMPI PUSH2 0xFA1 JUMPI PUSH1 0x2 SLOAD PUSH1 0x40 MLOAD PUSH4 0x70A08231 PUSH1 0xE0 SHL DUP2 MSTORE ADDRESS PUSH1 0x4 DUP3 ADD MSTORE SWAP1 PUSH1 0x20 SWAP1 DUP3 SWAP1 PUSH1 0x24 SWAP1 DUP3 SWAP1 PUSH1 0x1 PUSH1 0x1 PUSH1 0xA0 SHL SUB AND GAS STATICCALL SWAP1 DUP2 ISZERO PUSH2 0xF28 JUMPI PUSH0 SWAP2 PUSH2 0xF6F JUMPI JUMPDEST POP DUP1 ISZERO PUSH2 0xF33 JUMPI PUSH2 0xDD7 PUSH1 0x1 PUSH1 0xFF NOT PUSH1 0x7 SLOAD AND OR PUSH1 0x7 SSTORE JUMP JUMPDEST PUSH1 0x3 SLOAD PUSH1 0x1 PUSH1 0x1 PUSH1 0xA0 SHL SUB AND DUP1 EXTCODESIZE ISZERO PUSH2 0x520 JUMPI PUSH0 DUP1 SWAP2 PUSH1 0x44 PUSH1 0x40 MLOAD DUP1 SWAP5 DUP2 SWAP4 PUSH4 0xA956239B PUSH1 0xE0 SHL DUP4 MSTORE ADDRESS PUSH1 0x4 DUP5 ADD MSTORE PUSH1 0x5 PUSH1 0x24 DUP5 ADD MSTORE GAS CALL DUP1 ISZERO PUSH2 0xF28 JUMPI PUSH2 0xF13 JUMPI JUMPDEST POP PUSH1 0x3 SLOAD DUP3 SWAP1 PUSH1 0x1 PUSH1 0x1 PUSH1 0xA0 SHL SUB AND DUP1 EXTCODESIZE ISZERO PUSH2 0x44F JUMPI DUP2 DUP1 SWAP2 PUSH1 0x24 PUSH1 0x40 MLOAD DUP1 SWAP5 DUP2 SWAP4 PUSH4 0x7E72C7D7 PUSH1 0xE0 SHL DUP4 MSTORE ADDRESS PUSH1 0x4 DUP5 ADD MSTORE GAS CALL DUP1 ISZERO PUSH2 0x453 JUMPI PUSH2 0xEFE JUMPI JUMPDEST POP POP PUSH1 0x2 SLOAD PUSH1 0x5 SLOAD PUSH1 0x40 MLOAD PUSH4 0xA9059CBB PUSH1 0xE0 SHL DUP2 MSTORE PUSH1 0x1 PUSH1 0x1 PUSH1 0xA0 SHL SUB SWAP2 DUP3 AND PUSH1 0x4 DUP3 ADD MSTORE PUSH1 0x24 DUP2 ADD DUP5 SWAP1 MSTORE SWAP2 PUSH1 0x20 SWAP2 DUP4 SWAP2 PUSH1 0x44 SWAP2 DUP4 SWAP2 DUP9 SWAP2 AND GAS CALL DUP1 ISZERO PUSH2 0x4A4 JUMPI PUSH2 0xEE1 JUMPI JUMPDEST POP PUSH1 0x5 SLOAD PUSH1 0x40 MLOAD SWAP2 DUP3 MSTORE PUSH1 0x1 PUSH1 0x1 PUSH1 0xA0 SHL SUB AND SWAP1 PUSH32 0xCAB22A4E95D29D40DA2ACE3F6EC72B49954A9BC7B2584F8FD47BF7F357A3ED6F SWAP1 PUSH1 0x20 SWAP1 LOG2 PUSH1 0x1 DUP2 SSTORE DUP1 RETURN JUMPDEST PUSH2 0xEF9 SWAP1 PUSH1 0x20 RETURNDATASIZE PUSH1 0x20 GT PUSH2 0x49D JUMPI PUSH2 0x490 DUP2 DUP4 PUSH2 0x110C JUMP JUMPDEST PUSH2 0xEA0 JUMP JUMPDEST DUP2 PUSH2 0xF08 SWAP2 PUSH2 0x110C JUMP JUMPDEST PUSH2 0x44F JUMPI DUP2 PUSH0 PUSH2 0xE59 JUMP JUMPDEST PUSH2 0xF20 SWAP2 SWAP3 POP PUSH0 SWAP1 PUSH2 0x110C JUMP JUMPDEST PUSH0 SWAP1 PUSH0 PUSH2 0xE1A JUMP JUMPDEST PUSH1 0x40 MLOAD RETURNDATASIZE PUSH0 DUP3 RETURNDATACOPY RETURNDATASIZE SWAP1 REVERT JUMPDEST PUSH1 0x40 MLOAD PUSH3 0x461BCD PUSH1 0xE5 SHL DUP2 MSTORE PUSH1 0x20 PUSH1 0x4 DUP3 ADD MSTORE PUSH1 0x14 PUSH1 0x24 DUP3 ADD MSTORE PUSH20 0x4E6F2066756E647320746F207769746864726177 PUSH1 0x60 SHL PUSH1 0x44 DUP3 ADD MSTORE PUSH1 0x64 SWAP1 REVERT JUMPDEST SWAP1 POP PUSH1 0x20 DUP2 RETURNDATASIZE PUSH1 0x20 GT PUSH2 0xF99 JUMPI JUMPDEST DUP2 PUSH2 0xF8A PUSH1 0x20 SWAP4 DUP4 PUSH2 0x110C JUMP JUMPDEST DUP2 ADD SUB SLT PUSH2 0x520 JUMPI MLOAD PUSH0 PUSH2 0xDBE JUMP JUMPDEST RETURNDATASIZE SWAP2 POP PUSH2 0xF7D JUMP JUMPDEST PUSH1 0x40 MLOAD PUSH3 0x461BCD PUSH1 0xE5 SHL DUP2 MSTORE PUSH1 0x20 PUSH1 0x4 DUP3 ADD MSTORE PUSH1 0x1D PUSH1 0x24 DUP3 ADD MSTORE PUSH32 0x4C6F616E206973206E6F7420696E20612066756E646564207374617465000000 PUSH1 0x44 DUP3 ADD MSTORE PUSH1 0x64 SWAP1 REVERT JUMPDEST PUSH4 0x4E487B71 PUSH1 0xE0 SHL PUSH0 MSTORE PUSH1 0x21 PUSH1 0x4 MSTORE PUSH1 0x24 PUSH0 REVERT JUMPDEST PUSH1 0x40 MLOAD PUSH3 0x461BCD PUSH1 0xE5 SHL DUP2 MSTORE PUSH1 0x20 PUSH1 0x4 DUP3 ADD MSTORE PUSH1 0x18 PUSH1 0x24 DUP3 ADD MSTORE PUSH32 0x43616C6C6572206973206E6F7420746865206C656E6465720000000000000000 PUSH1 0x44 DUP3 ADD MSTORE PUSH1 0x64 SWAP1 REVERT JUMPDEST CALLVALUE PUSH2 0x520 JUMPI PUSH1 0x20 CALLDATASIZE PUSH1 0x3 NOT ADD SLT PUSH2 0x520 JUMPI PUSH1 0x4 CALLDATALOAD PUSH4 0xFFFFFFFF PUSH1 0xE0 SHL DUP2 AND DUP1 SWAP2 SUB PUSH2 0x520 JUMPI PUSH1 0x20 SWAP1 PUSH4 0x7965DB0B PUSH1 0xE0 SHL DUP2 EQ SWAP1 DUP2 ISZERO PUSH2 0x1084 JUMPI JUMPDEST POP PUSH1 0x40 MLOAD SWAP1 ISZERO ISZERO DUP2 MSTORE RETURN JUMPDEST PUSH4 0x1FFC9A7 PUSH1 0xE0 SHL EQ SWAP1 POP DUP3 PUSH2 0x1079 JUMP JUMPDEST CALLVALUE PUSH2 0x520 JUMPI PUSH0 CALLDATASIZE PUSH1 0x3 NOT ADD SLT PUSH2 0x520 JUMPI DUP1 PUSH32 0xC60D7A62D8843F2B14BC63F2A5240B187980481AD8C001A3CAF4916AEF3F667E PUSH1 0x20 SWAP3 MSTORE RETURN JUMPDEST PUSH1 0x24 CALLDATALOAD SWAP1 PUSH1 0x1 PUSH1 0x1 PUSH1 0xA0 SHL SUB DUP3 AND DUP3 SUB PUSH2 0x520 JUMPI JUMP JUMPDEST PUSH1 0x4 CALLDATALOAD SWAP1 PUSH1 0x1 PUSH1 0x1 PUSH1 0xA0 SHL SUB DUP3 AND DUP3 SUB PUSH2 0x520 JUMPI JUMP JUMPDEST SWAP2 SWAP1 PUSH1 0x20 DUP4 ADD SWAP3 PUSH1 0x2 DUP3 LT ISZERO PUSH2 0xFE6 JUMPI MSTORE JUMP JUMPDEST SWAP1 PUSH1 0x1F DUP1 NOT SWAP2 ADD AND DUP2 ADD SWAP1 DUP2 LT PUSH8 0xFFFFFFFFFFFFFFFF DUP3 GT OR PUSH2 0x112E JUMPI PUSH1 0x40 MSTORE JUMP JUMPDEST PUSH4 0x4E487B71 PUSH1 0xE0 SHL PUSH0 MSTORE PUSH1 0x41 PUSH1 0x4 MSTORE PUSH1 0x24 PUSH0 REVERT JUMPDEST SWAP1 DUP2 PUSH1 0x20 SWAP2 SUB SLT PUSH2 0x520 JUMPI MLOAD DUP1 ISZERO ISZERO DUP2 SUB PUSH2 0x520 JUMPI SWAP1 JUMP JUMPDEST ISZERO PUSH2 0x1161 JUMPI JUMP JUMPDEST PUSH1 0x40 MLOAD PUSH3 0x461BCD PUSH1 0xE5 SHL DUP2 MSTORE PUSH1 0x20 PUSH1 0x4 DUP3 ADD MSTORE PUSH1 0x11 PUSH1 0x24 DUP3 ADD MSTORE PUSH17 0x2AB739BAB83837B93A32B2103A37B5B2B7 PUSH1 0x79 SHL PUSH1 0x44 DUP3 ADD MSTORE PUSH1 0x64 SWAP1 REVERT JUMPDEST PUSH1 0x2 SLOAD PUSH2 0x11B4 SWAP2 PUSH1 0x1 PUSH1 0x1 PUSH1 0xA0 SHL SUB SWAP1 DUP2 AND SWAP2 AND EQ PUSH2 0x115A JUMP JUMPDEST PUSH1 0x6 SLOAD SWAP1 DUP2 DUP2 MUL SWAP2 DUP2 DUP4 DIV EQ SWAP1 ISZERO OR ISZERO PUSH2 0x11D0 JUMPI PUSH2 0x2710 SWAP1 DIV SWAP1 JUMP JUMPDEST PUSH4 0x4E487B71 PUSH1 0xE0 SHL PUSH0 MSTORE PUSH1 0x11 PUSH1 0x4 MSTORE PUSH1 0x24 PUSH0 REVERT JUMPDEST PUSH1 0x2 PUSH0 SLOAD EQ PUSH2 0x11F3 JUMPI PUSH1 0x2 PUSH0 SSTORE JUMP JUMPDEST PUSH4 0x3EE5AEB5 PUSH1 0xE0 SHL PUSH0 MSTORE PUSH1 0x4 PUSH0 REVERT JUMPDEST PUSH0 DUP2 DUP2 MSTORE PUSH1 0x1 PUSH1 0x20 SWAP1 DUP2 MSTORE PUSH1 0x40 DUP1 DUP4 KECCAK256 CALLER DUP5 MSTORE SWAP1 SWAP2 MSTORE SWAP1 KECCAK256 SLOAD PUSH1 0xFF AND ISZERO PUSH2 0x1226 JUMPI POP JUMP JUMPDEST PUSH4 0xE2517D3F PUSH1 0xE0 SHL PUSH0 MSTORE CALLER PUSH1 0x4 MSTORE PUSH1 0x24 MSTORE PUSH1 0x44 PUSH0 REVERT JUMPDEST PUSH1 0x1 PUSH1 0x1 PUSH1 0xA0 SHL SUB DUP2 AND PUSH0 SWAP1 DUP2 MSTORE PUSH32 0x95902C4D6C8EA17825D5632AF066DCB87E033F1B2A91B49A7AD79E83F02C4DEC PUSH1 0x20 MSTORE PUSH1 0x40 SWAP1 KECCAK256 SLOAD PUSH1 0xFF AND PUSH2 0x1308 JUMPI PUSH1 0x1 PUSH1 0x1 PUSH1 0xA0 SHL SUB AND PUSH0 DUP2 DUP2 MSTORE PUSH32 0x95902C4D6C8EA17825D5632AF066DCB87E033F1B2A91B49A7AD79E83F02C4DEC PUSH1 0x20 MSTORE PUSH1 0x40 DUP2 KECCAK256 DUP1 SLOAD PUSH1 0xFF NOT AND PUSH1 0x1 OR SWAP1 SSTORE CALLER SWAP2 SWAP1 PUSH32 0xC60D7A62D8843F2B14BC63F2A5240B187980481AD8C001A3CAF4916AEF3F667E SWAP1 PUSH32 0x2F8788117E7EFF1D82E926EC794901D17C78024A50270940304540A733656F0D SWAP1 DUP1 LOG4 PUSH1 0x1 SWAP1 JUMP JUMPDEST POP PUSH0 SWAP1 JUMP JUMPDEST PUSH0 DUP2 DUP2 MSTORE PUSH1 0x1 PUSH1 0x20 SWAP1 DUP2 MSTORE PUSH1 0x40 DUP1 DUP4 KECCAK256 PUSH1 0x1 PUSH1 0x1 PUSH1 0xA0 SHL SUB DUP7 AND DUP5 MSTORE SWAP1 SWAP2 MSTORE SWAP1 KECCAK256 SLOAD PUSH1 0xFF AND PUSH2 0x1393 JUMPI PUSH0 DUP2 DUP2 MSTORE PUSH1 0x1 PUSH1 0x20 DUP2 DUP2 MSTORE PUSH1 0x40 DUP1 DUP5 KECCAK256 PUSH1 0x1 PUSH1 0x1 PUSH1 0xA0 SHL SUB SWAP7 SWAP1 SWAP7 AND DUP1 DUP6 MSTORE SWAP6 SWAP1 SWAP2 MSTORE DUP3 KECCAK256 DUP1 SLOAD PUSH1 0xFF NOT AND SWAP1 SWAP2 OR SWAP1 SSTORE CALLER SWAP3 SWAP2 SWAP1 PUSH32 0x2F8788117E7EFF1D82E926EC794901D17C78024A50270940304540A733656F0D SWAP1 DUP1 LOG4 PUSH1 0x1 SWAP1 JUMP JUMPDEST POP POP PUSH0 SWAP1 JUMP JUMPDEST PUSH0 DUP2 DUP2 MSTORE PUSH1 0x1 PUSH1 0x20 SWAP1 DUP2 MSTORE PUSH1 0x40 DUP1 DUP4 KECCAK256 PUSH1 0x1 PUSH1 0x1 PUSH1 0xA0 SHL SUB DUP7 AND DUP5 MSTORE SWAP1 SWAP2 MSTORE SWAP1 KECCAK256 SLOAD PUSH1 0xFF AND ISZERO PUSH2 0x1393 JUMPI PUSH0 DUP2 DUP2 MSTORE PUSH1 0x1 PUSH1 0x20 SWAP1 DUP2 MSTORE PUSH1 0x40 DUP1 DUP4 KECCAK256 PUSH1 0x1 PUSH1 0x1 PUSH1 0xA0 SHL SUB SWAP6 SWAP1 SWAP6 AND DUP1 DUP5 MSTORE SWAP5 SWAP1 SWAP2 MSTORE DUP2 KECCAK256 DUP1 SLOAD PUSH1 0xFF NOT AND SWAP1 SSTORE CALLER SWAP3 SWAP2 SWAP1 PUSH32 0xF6391F5C32D9C69D2A47EA670B442974B53935D1EDC7FD64EB21E047A839171B SWAP1 DUP1 LOG4 PUSH1 0x1 SWAP1 JUMP INVALID LOG2 PUSH5 0x6970667358 0x22 SLT KECCAK256 GASLIMIT 0x4C 0xB6 DUP6 CALL SWAP12 PUSH24 0xA75CEB65993A334BE4568045BDFB158C1C76E180E08771FB 0xC8 PUSH5 0x736F6C6343 STOP ADDMOD BYTE STOP CALLER "
		},
		"gasEstimates": {
			"creation": {
				"codeDepositCost": "1040600",
				"executionCost": "infinite",
				"totalCost": "infinite"
			},
			"external": {
				"DEFAULT_ADMIN_ROLE()": "428",
				"LENDER_ROLE()": "153",
				"asset()": "2420",
				"closeLoan()": "infinite",
				"flashFee(address,uint256)": "5032",
				"flashLoan(address,address,uint256,bytes)": "infinite",
				"flashLoanFeeRate()": "2484",
				"flashPoolRewardManager()": "2662",
				"fundLoan(uint256)": "infinite",
				"getFlashLoanState()": "2703",
				"getRoleAdmin(bytes32)": "2415",
				"grantRole(bytes32,address)": "33380",
				"hasRole(bytes32,address)": "2736",
				"lender()": "2574",
				"maxFlashLoan(address)": "infinite",
				"poolOrganizer()": "2618",
				"renounceRole(bytes32,address)": "28963",
				"revokeRole(bytes32,address)": "33682",
				"state()": "2659",
				"supportsInterface(bytes4)": "305"
			},
			"internal": {
				"_executeFlashLoan(contract IERC3156FlashBorrower,address,uint256,bytes calldata)": "infinite"
			}
		},
		"methodIdentifiers": {
			"DEFAULT_ADMIN_ROLE()": "a217fddf",
			"LENDER_ROLE()": "00abafe1",
			"asset()": "38d52e0f",
			"closeLoan()": "232fa733",
			"flashFee(address,uint256)": "d9d98ce4",
			"flashLoan(address,address,uint256,bytes)": "5cffe9de",
			"flashLoanFeeRate()": "8c9f305f",
			"flashPoolRewardManager()": "c9c36353",
			"fundLoan(uint256)": "846b909a",
			"getFlashLoanState()": "c694b54c",
			"getRoleAdmin(bytes32)": "248a9ca3",
			"grantRole(bytes32,address)": "2f2ff15d",
			"hasRole(bytes32,address)": "91d14854",
			"lender()": "bcead63e",
			"maxFlashLoan(address)": "613255ab",
			"poolOrganizer()": "c51b9507",
			"renounceRole(bytes32,address)": "36568abe",
			"revokeRole(bytes32,address)": "d547741f",
			"state()": "c19d93fb",
			"supportsInterface(bytes4)": "01ffc9a7"
		}
	},
	"abi": [
		{
			"inputs": [
				{
					"internalType": "contract IERC20",
					"name": "_asset",
					"type": "address"
				},
				{
					"internalType": "uint256",
					"name": "_flashLoanFeeRate",
					"type": "uint256"
				},
				{
					"internalType": "contract IPoolOrganizer",
					"name": "_poolOrganizer",
					"type": "address"
				},
				{
					"internalType": "contract IFlashPoolRewardManager",
					"name": "_flashPoolRewardManager",
					"type": "address"
				}
			],
			"stateMutability": "nonpayable",
			"type": "constructor"
		},
		{
			"inputs": [],
			"name": "AccessControlBadConfirmation",
			"type": "error"
		},
		{
			"inputs": [
				{
					"internalType": "address",
					"name": "account",
					"type": "address"
				},
				{
					"internalType": "bytes32",
					"name": "neededRole",
					"type": "bytes32"
				}
			],
			"name": "AccessControlUnauthorizedAccount",
			"type": "error"
		},
		{
			"inputs": [],
			"name": "ReentrancyGuardReentrantCall",
			"type": "error"
		},
		{
			"anonymous": false,
			"inputs": [
				{
					"indexed": true,
					"internalType": "address",
					"name": "receiver",
					"type": "address"
				},
				{
					"indexed": true,
					"internalType": "address",
					"name": "token",
					"type": "address"
				},
				{
					"indexed": false,
					"internalType": "uint256",
					"name": "amount",
					"type": "uint256"
				},
				{
					"indexed": false,
					"internalType": "uint256",
					"name": "fee",
					"type": "uint256"
				}
			],
			"name": "FlashLoanExecuted",
			"type": "event"
		},
		{
			"anonymous": false,
			"inputs": [
				{
					"indexed": true,
					"internalType": "address",
					"name": "lender",
					"type": "address"
				},
				{
					"indexed": false,
					"internalType": "uint256",
					"name": "amount",
					"type": "uint256"
				}
			],
			"name": "LoanClosed",
			"type": "event"
		},
		{
			"anonymous": false,
			"inputs": [
				{
					"indexed": true,
					"internalType": "address",
					"name": "lender",
					"type": "address"
				},
				{
					"indexed": false,
					"internalType": "uint256",
					"name": "amount",
					"type": "uint256"
				}
			],
			"name": "LoanFunded",
			"type": "event"
		},
		{
			"anonymous": false,
			"inputs": [
				{
					"indexed": true,
					"internalType": "bytes32",
					"name": "role",
					"type": "bytes32"
				},
				{
					"indexed": true,
					"internalType": "bytes32",
					"name": "previousAdminRole",
					"type": "bytes32"
				},
				{
					"indexed": true,
					"internalType": "bytes32",
					"name": "newAdminRole",
					"type": "bytes32"
				}
			],
			"name": "RoleAdminChanged",
			"type": "event"
		},
		{
			"anonymous": false,
			"inputs": [
				{
					"indexed": true,
					"internalType": "bytes32",
					"name": "role",
					"type": "bytes32"
				},
				{
					"indexed": true,
					"internalType": "address",
					"name": "account",
					"type": "address"
				},
				{
					"indexed": true,
					"internalType": "address",
					"name": "sender",
					"type": "address"
				}
			],
			"name": "RoleGranted",
			"type": "event"
		},
		{
			"anonymous": false,
			"inputs": [
				{
					"indexed": true,
					"internalType": "bytes32",
					"name": "role",
					"type": "bytes32"
				},
				{
					"indexed": true,
					"internalType": "address",
					"name": "account",
					"type": "address"
				},
				{
					"indexed": true,
					"internalType": "address",
					"name": "sender",
					"type": "address"
				}
			],
			"name": "RoleRevoked",
			"type": "event"
		},
		{
			"inputs": [],
			"name": "DEFAULT_ADMIN_ROLE",
			"outputs": [
				{
					"internalType": "bytes32",
					"name": "",
					"type": "bytes32"
				}
			],
			"stateMutability": "view",
			"type": "function"
		},
		{
			"inputs": [],
			"name": "LENDER_ROLE",
			"outputs": [
				{
					"internalType": "bytes32",
					"name": "",
					"type": "bytes32"
				}
			],
			"stateMutability": "view",
			"type": "function"
		},
		{
			"inputs": [],
			"name": "asset",
			"outputs": [
				{
					"internalType": "contract IERC20",
					"name": "",
					"type": "address"
				}
			],
			"stateMutability": "view",
			"type": "function"
		},
		{
			"inputs": [],
			"name": "closeLoan",
			"outputs": [],
			"stateMutability": "nonpayable",
			"type": "function"
		},
		{
			"inputs": [
				{
					"internalType": "address",
					"name": "token",
					"type": "address"
				},
				{
					"internalType": "uint256",
					"name": "amount",
					"type": "uint256"
				}
			],
			"name": "flashFee",
			"outputs": [
				{
					"internalType": "uint256",
					"name": "",
					"type": "uint256"
				}
			],
			"stateMutability": "view",
			"type": "function"
		},
		{
			"inputs": [
				{
					"internalType": "contract IERC3156FlashBorrower",
					"name": "receiver",
					"type": "address"
				},
				{
					"internalType": "address",
					"name": "token",
					"type": "address"
				},
				{
					"internalType": "uint256",
					"name": "amount",
					"type": "uint256"
				},
				{
					"internalType": "bytes",
					"name": "data",
					"type": "bytes"
				}
			],
			"name": "flashLoan",
			"outputs": [
				{
					"internalType": "bool",
					"name": "",
					"type": "bool"
				}
			],
			"stateMutability": "nonpayable",
			"type": "function"
		},
		{
			"inputs": [],
			"name": "flashLoanFeeRate",
			"outputs": [
				{
					"internalType": "uint256",
					"name": "",
					"type": "uint256"
				}
			],
			"stateMutability": "view",
			"type": "function"
		},
		{
			"inputs": [],
			"name": "flashPoolRewardManager",
			"outputs": [
				{
					"internalType": "contract IFlashPoolRewardManager",
					"name": "",
					"type": "address"
				}
			],
			"stateMutability": "view",
			"type": "function"
		},
		{
			"inputs": [
				{
					"internalType": "uint256",
					"name": "amount",
					"type": "uint256"
				}
			],
			"name": "fundLoan",
			"outputs": [],
			"stateMutability": "nonpayable",
			"type": "function"
		},
		{
			"inputs": [],
			"name": "getFlashLoanState",
			"outputs": [
				{
					"internalType": "enum TuliaFlashPool.FlashLoanState",
					"name": "",
					"type": "uint8"
				}
			],
			"stateMutability": "view",
			"type": "function"
		},
		{
			"inputs": [
				{
					"internalType": "bytes32",
					"name": "role",
					"type": "bytes32"
				}
			],
			"name": "getRoleAdmin",
			"outputs": [
				{
					"internalType": "bytes32",
					"name": "",
					"type": "bytes32"
				}
			],
			"stateMutability": "view",
			"type": "function"
		},
		{
			"inputs": [
				{
					"internalType": "bytes32",
					"name": "role",
					"type": "bytes32"
				},
				{
					"internalType": "address",
					"name": "account",
					"type": "address"
				}
			],
			"name": "grantRole",
			"outputs": [],
			"stateMutability": "nonpayable",
			"type": "function"
		},
		{
			"inputs": [
				{
					"internalType": "bytes32",
					"name": "role",
					"type": "bytes32"
				},
				{
					"internalType": "address",
					"name": "account",
					"type": "address"
				}
			],
			"name": "hasRole",
			"outputs": [
				{
					"internalType": "bool",
					"name": "",
					"type": "bool"
				}
			],
			"stateMutability": "view",
			"type": "function"
		},
		{
			"inputs": [],
			"name": "lender",
			"outputs": [
				{
					"internalType": "address",
					"name": "",
					"type": "address"
				}
			],
			"stateMutability": "view",
			"type": "function"
		},
		{
			"inputs": [
				{
					"internalType": "address",
					"name": "token",
					"type": "address"
				}
			],
			"name": "maxFlashLoan",
			"outputs": [
				{
					"internalType": "uint256",
					"name": "",
					"type": "uint256"
				}
			],
			"stateMutability": "view",
			"type": "function"
		},
		{
			"inputs": [],
			"name": "poolOrganizer",
			"outputs": [
				{
					"internalType": "contract IPoolOrganizer",
					"name": "",
					"type": "address"
				}
			],
			"stateMutability": "view",
			"type": "function"
		},
		{
			"inputs": [
				{
					"internalType": "bytes32",
					"name": "role",
					"type": "bytes32"
				},
				{
					"internalType": "address",
					"name": "callerConfirmation",
					"type": "address"
				}
			],
			"name": "renounceRole",
			"outputs": [],
			"stateMutability": "nonpayable",
			"type": "function"
		},
		{
			"inputs": [
				{
					"internalType": "bytes32",
					"name": "role",
					"type": "bytes32"
				},
				{
					"internalType": "address",
					"name": "account",
					"type": "address"
				}
			],
			"name": "revokeRole",
			"outputs": [],
			"stateMutability": "nonpayable",
			"type": "function"
		},
		{
			"inputs": [],
			"name": "state",
			"outputs": [
				{
					"internalType": "enum TuliaFlashPool.FlashLoanState",
					"name": "",
					"type": "uint8"
				}
			],
			"stateMutability": "view",
			"type": "function"
		},
		{
			"inputs": [
				{
					"internalType": "bytes4",
					"name": "interfaceId",
					"type": "bytes4"
				}
			],
			"name": "supportsInterface",
			"outputs": [
				{
					"internalType": "bool",
					"name": "",
					"type": "bool"
				}
			],
			"stateMutability": "view",
			"type": "function"
		}
	]
}