{
	"contracts/contracts/oracle/MockPriceFeed.sol": {
		"MockPriceFeed": {
			"abi": [
				{
					"inputs": [
						{
							"internalType": "int256",
							"name": "_initialPrice",
							"type": "int256"
						}
					],
					"stateMutability": "nonpayable",
					"type": "constructor"
				},
				{
					"inputs": [],
					"name": "latestRoundData",
					"outputs": [
						{
							"internalType": "uint80",
							"name": "roundID",
							"type": "uint80"
						},
						{
							"internalType": "int256",
							"name": "answer",
							"type": "int256"
						},
						{
							"internalType": "uint256",
							"name": "startedAt",
							"type": "uint256"
						},
						{
							"internalType": "uint256",
							"name": "updatedAt",
							"type": "uint256"
						},
						{
							"internalType": "uint80",
							"name": "answeredInRound",
							"type": "uint80"
						}
					],
					"stateMutability": "view",
					"type": "function"
				},
				{
					"inputs": [
						{
							"internalType": "int256",
							"name": "_newPrice",
							"type": "int256"
						}
					],
					"name": "setPrice",
					"outputs": [],
					"stateMutability": "nonpayable",
					"type": "function"
				}
			],
			"devdoc": {
				"kind": "dev",
				"methods": {},
				"version": 1
			},
			"evm": {
				"assembly": "    /* \"contracts/contracts/oracle/MockPriceFeed.sol\":60:741  contract MockPriceFeed {... */\n  0x80\n  jumpi(tag_5, callvalue)\n  0x1f\n  bytecodeSize\n  codesize\n  dup2\n  swap1\n  sub\n  swap2\n  dup3\n  add\n  not(0x1f)\n  and\n  dup4\n  add\n  swap2\n  sub(shl(0x40, 0x01), 0x01)\n  dup4\n  gt\n  dup5\n  dup5\n  lt\n  or\n  tag_3\n  jumpi\n  dup1\n  dup5\n  swap3\n  0x20\n  swap5\n  0x40\n  mstore\n  dup4\n  codecopy\n  dup2\n  add\n  sub\n  slt\n  tag_5\n  jumpi\n  mload\n  0x00\n  sstore\n  mload(0x40)\n  dataSize(sub_0)\n  swap1\n  dup2\n  dataOffset(sub_0)\n  dup3\n  codecopy\n  return\ntag_5:\n  0x00\n  dup1\n  revert\ntag_3:\n  mstore(0x00, shl(0xe0, 0x4e487b71))\n  mstore(0x04, 0x41)\n  revert(0x00, 0x24)\nstop\n\nsub_0: assembly {\n        /* \"contracts/contracts/oracle/MockPriceFeed.sol\":60:741  contract MockPriceFeed {... */\n      0x80\n      dup1\n      0x40\n      mstore\n      jumpi(tag_1, iszero(lt(calldatasize, 0x04)))\n      0x00\n      dup1\n      revert\n    tag_1:\n      shr(0xe0, calldataload(0x00))\n      dup1\n      0xf7a30806\n      eq\n      tag_3\n      jumpi\n      0xfeaf968c\n      eq\n      tag_5\n      jumpi\n      0x00\n      dup1\n      revert\n    tag_5:\n      jumpi(tag_9, callvalue)\n      jumpi(tag_9, slt(add(not(0x03), calldatasize), 0x00))\n      0xa0\n      swap1\n      sload(0x00)\n      0x00\n      dup3\n      mstore\n      0x20\n      dup3\n      add\n      mstore\n      0x00\n      0x40\n      dup3\n      add\n      mstore\n        /* \"contracts/contracts/oracle/MockPriceFeed.sol\":559:574  block.timestamp */\n      timestamp\n        /* \"contracts/contracts/oracle/MockPriceFeed.sol\":60:741  contract MockPriceFeed {... */\n      0x60\n      dup3\n      add\n      mstore\n      0x00\n      0x80\n      dup3\n      add\n      mstore\n      return\n    tag_9:\n      0x00\n      dup1\n      revert\n    tag_3:\n      jumpi(tag_9, callvalue)\n      jumpi(tag_9, slt(add(not(0x03), calldatasize), 0x20))\n      sstore(0x00, calldataload(0x04))\n      stop\n\n    auxdata: 0xa2646970667358221220b62c4482b5e91c6c59dcfc9cd29c11a254edf2d71d232726a8c26e8a1b880f9364736f6c63430008190033\n}\n",
				"bytecode": {
					"linkReferences": {},
					"object": "608034604c57601f61011138819003918201601f19168301916001600160401b03831184841017605057808492602094604052833981010312604c57515f5560405160ac90816100658239f35b5f80fd5b634e487b7160e01b5f52604160045260245ffdfe60808060405260043610156011575f80fd5b5f3560e01c8063f7a308061460605763feaf968c14602d575f80fd5b34605c575f366003190112605c5760a0905f545f825260208201525f60408201524260608201525f6080820152f35b5f80fd5b34605c576020366003190112605c576004355f5500fea2646970667358221220b62c4482b5e91c6c59dcfc9cd29c11a254edf2d71d232726a8c26e8a1b880f9364736f6c63430008190033",
					"opcodes": "PUSH1 0x80 CALLVALUE PUSH1 0x4C JUMPI PUSH1 0x1F PUSH2 0x111 CODESIZE DUP2 SWAP1 SUB SWAP2 DUP3 ADD PUSH1 0x1F NOT AND DUP4 ADD SWAP2 PUSH1 0x1 PUSH1 0x1 PUSH1 0x40 SHL SUB DUP4 GT DUP5 DUP5 LT OR PUSH1 0x50 JUMPI DUP1 DUP5 SWAP3 PUSH1 0x20 SWAP5 PUSH1 0x40 MSTORE DUP4 CODECOPY DUP2 ADD SUB SLT PUSH1 0x4C JUMPI MLOAD PUSH0 SSTORE PUSH1 0x40 MLOAD PUSH1 0xAC SWAP1 DUP2 PUSH2 0x65 DUP3 CODECOPY RETURN JUMPDEST PUSH0 DUP1 REVERT JUMPDEST PUSH4 0x4E487B71 PUSH1 0xE0 SHL PUSH0 MSTORE PUSH1 0x41 PUSH1 0x4 MSTORE PUSH1 0x24 PUSH0 REVERT INVALID PUSH1 0x80 DUP1 PUSH1 0x40 MSTORE PUSH1 0x4 CALLDATASIZE LT ISZERO PUSH1 0x11 JUMPI PUSH0 DUP1 REVERT JUMPDEST PUSH0 CALLDATALOAD PUSH1 0xE0 SHR DUP1 PUSH4 0xF7A30806 EQ PUSH1 0x60 JUMPI PUSH4 0xFEAF968C EQ PUSH1 0x2D JUMPI PUSH0 DUP1 REVERT JUMPDEST CALLVALUE PUSH1 0x5C JUMPI PUSH0 CALLDATASIZE PUSH1 0x3 NOT ADD SLT PUSH1 0x5C JUMPI PUSH1 0xA0 SWAP1 PUSH0 SLOAD PUSH0 DUP3 MSTORE PUSH1 0x20 DUP3 ADD MSTORE PUSH0 PUSH1 0x40 DUP3 ADD MSTORE TIMESTAMP PUSH1 0x60 DUP3 ADD MSTORE PUSH0 PUSH1 0x80 DUP3 ADD MSTORE RETURN JUMPDEST PUSH0 DUP1 REVERT JUMPDEST CALLVALUE PUSH1 0x5C JUMPI PUSH1 0x20 CALLDATASIZE PUSH1 0x3 NOT ADD SLT PUSH1 0x5C JUMPI PUSH1 0x4 CALLDATALOAD PUSH0 SSTORE STOP INVALID LOG2 PUSH5 0x6970667358 0x22 SLT KECCAK256 0xB6 0x2C PREVRANDAO DUP3 0xB5 0xE9 SHR PUSH13 0x59DCFC9CD29C11A254EDF2D71D 0x23 0x27 0x26 0xA8 0xC2 PUSH15 0x8A1B880F9364736F6C634300081900 CALLER "
				},
				"gasEstimates": {
					"creation": {
						"codeDepositCost": "34400",
						"executionCost": "infinite",
						"totalCost": "infinite"
					},
					"external": {
						"latestRoundData()": "2331",
						"setPrice(int256)": "22233"
					}
				},
				"methodIdentifiers": {
					"latestRoundData()": "feaf968c",
					"setPrice(int256)": "f7a30806"
				}
			},
			"storageLayout": {
				"storage": [
					{
						"astId": 3,
						"contract": "contracts/contracts/oracle/MockPriceFeed.sol:MockPriceFeed",
						"label": "price",
						"offset": 0,
						"slot": "0",
						"type": "t_int256"
					}
				],
				"types": {
					"t_int256": {
						"encoding": "inplace",
						"label": "int256",
						"numberOfBytes": "32"
					}
				}
			},
			"userdoc": {
				"kind": "user",
				"methods": {},
				"version": 1
			}
		}
	}
}