{
	"contracts/contracts/oracle/MockPriceFeed.sol": {
		"MockPriceFeed": {
			"abi": [
				{
					"inputs": [
						{
							"internalType": "int256",
							"name": "_initialPrice",
							"type": "int256"
						}
					],
					"stateMutability": "nonpayable",
					"type": "constructor"
				},
				{
					"inputs": [],
					"name": "latestRoundData",
					"outputs": [
						{
							"internalType": "uint80",
							"name": "roundID",
							"type": "uint80"
						},
						{
							"internalType": "int256",
							"name": "answer",
							"type": "int256"
						},
						{
							"internalType": "uint256",
							"name": "startedAt",
							"type": "uint256"
						},
						{
							"internalType": "uint256",
							"name": "updatedAt",
							"type": "uint256"
						},
						{
							"internalType": "uint80",
							"name": "answeredInRound",
							"type": "uint80"
						}
					],
					"stateMutability": "view",
					"type": "function"
				},
				{
					"inputs": [
						{
							"internalType": "int256",
							"name": "_newPrice",
							"type": "int256"
						}
					],
					"name": "setPrice",
					"outputs": [],
					"stateMutability": "nonpayable",
					"type": "function"
				}
			],
			"devdoc": {
				"kind": "dev",
				"methods": {},
				"version": 1
			},
			"evm": {
				"assembly": "    /* \"contracts/contracts/oracle/MockPriceFeed.sol\":60:741  contract MockPriceFeed {... */\n  0x80\n  jumpi(tag_5, callvalue)\n  0x1f\n  bytecodeSize\n  codesize\n  dup2\n  swap1\n  sub\n  swap2\n  dup3\n  add\n  not(0x1f)\n  and\n  dup4\n  add\n  swap2\n  sub(shl(0x40, 0x01), 0x01)\n  dup4\n  gt\n  dup5\n  dup5\n  lt\n  or\n  tag_3\n  jumpi\n  dup1\n  dup5\n  swap3\n  0x20\n  swap5\n  0x40\n  mstore\n  dup4\n  codecopy\n  dup2\n  add\n  sub\n  slt\n  tag_5\n  jumpi\n  mload\n  0x00\n  sstore\n  mload(0x40)\n  dataSize(sub_0)\n  swap1\n  dup2\n  dataOffset(sub_0)\n  dup3\n  codecopy\n  return\ntag_5:\n  0x00\n  dup1\n  revert\ntag_3:\n  mstore(0x00, shl(0xe0, 0x4e487b71))\n  mstore(0x04, 0x41)\n  revert(0x00, 0x24)\nstop\n\nsub_0: assembly {\n        /* \"contracts/contracts/oracle/MockPriceFeed.sol\":60:741  contract MockPriceFeed {... */\n      0x80\n      dup1\n      0x40\n      mstore\n      jumpi(tag_1, iszero(lt(calldatasize, 0x04)))\n      0x00\n      dup1\n      revert\n    tag_1:\n      0x00\n      swap1\n      dup2\n      calldataload\n      0xe0\n      shr\n      dup1\n      0xf7a30806\n      eq\n      tag_3\n      jumpi\n      0xfeaf968c\n      eq\n      tag_5\n      jumpi\n      0x00\n      dup1\n      revert\n    tag_5:\n      jumpi(tag_9, callvalue)\n      dup2\n      add(calldatasize, not(0x03))\n      slt\n      tag_9\n      jumpi\n      dup2\n      0xa0\n      swap3\n      sload\n      dup2\n      dup4\n      mstore\n      0x20\n      dup4\n      add\n      mstore\n      dup1\n      0x40\n      dup4\n      add\n      mstore\n        /* \"contracts/contracts/oracle/MockPriceFeed.sol\":559:574  block.timestamp */\n      timestamp\n        /* \"contracts/contracts/oracle/MockPriceFeed.sol\":60:741  contract MockPriceFeed {... */\n      0x60\n      dup4\n      add\n      mstore\n      0x80\n      dup3\n      add\n      mstore\n      return\n    tag_9:\n      pop\n      dup1\n      revert\n    tag_3:\n      dup3\n      jumpi(tag_13, callvalue)\n      jumpi(tag_13, slt(add(not(0x03), calldatasize), 0x20))\n      calldataload(0x04)\n      dup2\n      sstore\n      dup1\n      return\n    tag_13:\n      dup1\n      revert\n\n    auxdata: 0xa2646970667358221220d7e80df37f7b623e28111b97227b710eb21c2840df4d51ec52cb3204f29f761064736f6c63430008140033\n}\n",
				"bytecode": {
					"linkReferences": {},
					"object": "60803461004f57601f61011a38819003918201601f19168301916001600160401b038311848410176100535780849260209460405283398101031261004f57515f5560405160b290816100688239f35b5f80fd5b634e487b7160e01b5f52604160045260245ffdfe60808060405260043610156011575f80fd5b5f90813560e01c8063f7a308061460615763feaf968c14602f575f80fd5b34605d5781600319360112605d578160a0925481835260208301528060408301524260608301526080820152f35b5080fd5b82346079576020366003190112607957600435815580f35b80fdfea2646970667358221220d7e80df37f7b623e28111b97227b710eb21c2840df4d51ec52cb3204f29f761064736f6c63430008140033",
					"opcodes": "PUSH1 0x80 CALLVALUE PUSH2 0x4F JUMPI PUSH1 0x1F PUSH2 0x11A CODESIZE DUP2 SWAP1 SUB SWAP2 DUP3 ADD PUSH1 0x1F NOT AND DUP4 ADD SWAP2 PUSH1 0x1 PUSH1 0x1 PUSH1 0x40 SHL SUB DUP4 GT DUP5 DUP5 LT OR PUSH2 0x53 JUMPI DUP1 DUP5 SWAP3 PUSH1 0x20 SWAP5 PUSH1 0x40 MSTORE DUP4 CODECOPY DUP2 ADD SUB SLT PUSH2 0x4F JUMPI MLOAD PUSH0 SSTORE PUSH1 0x40 MLOAD PUSH1 0xB2 SWAP1 DUP2 PUSH2 0x68 DUP3 CODECOPY RETURN JUMPDEST PUSH0 DUP1 REVERT JUMPDEST PUSH4 0x4E487B71 PUSH1 0xE0 SHL PUSH0 MSTORE PUSH1 0x41 PUSH1 0x4 MSTORE PUSH1 0x24 PUSH0 REVERT INVALID PUSH1 0x80 DUP1 PUSH1 0x40 MSTORE PUSH1 0x4 CALLDATASIZE LT ISZERO PUSH1 0x11 JUMPI PUSH0 DUP1 REVERT JUMPDEST PUSH0 SWAP1 DUP2 CALLDATALOAD PUSH1 0xE0 SHR DUP1 PUSH4 0xF7A30806 EQ PUSH1 0x61 JUMPI PUSH4 0xFEAF968C EQ PUSH1 0x2F JUMPI PUSH0 DUP1 REVERT JUMPDEST CALLVALUE PUSH1 0x5D JUMPI DUP2 PUSH1 0x3 NOT CALLDATASIZE ADD SLT PUSH1 0x5D JUMPI DUP2 PUSH1 0xA0 SWAP3 SLOAD DUP2 DUP4 MSTORE PUSH1 0x20 DUP4 ADD MSTORE DUP1 PUSH1 0x40 DUP4 ADD MSTORE TIMESTAMP PUSH1 0x60 DUP4 ADD MSTORE PUSH1 0x80 DUP3 ADD MSTORE RETURN JUMPDEST POP DUP1 REVERT JUMPDEST DUP3 CALLVALUE PUSH1 0x79 JUMPI PUSH1 0x20 CALLDATASIZE PUSH1 0x3 NOT ADD SLT PUSH1 0x79 JUMPI PUSH1 0x4 CALLDATALOAD DUP2 SSTORE DUP1 RETURN JUMPDEST DUP1 REVERT INVALID LOG2 PUSH5 0x6970667358 0x22 SLT KECCAK256 0xD7 0xE8 0xD RETURN PUSH32 0x7B623E28111B97227B710EB21C2840DF4D51EC52CB3204F29F761064736F6C63 NUMBER STOP ADDMOD EQ STOP CALLER "
				},
				"gasEstimates": {
					"creation": {
						"codeDepositCost": "35600",
						"executionCost": "infinite",
						"totalCost": "infinite"
					},
					"external": {
						"latestRoundData()": "2339",
						"setPrice(int256)": "22246"
					}
				},
				"methodIdentifiers": {
					"latestRoundData()": "feaf968c",
					"setPrice(int256)": "f7a30806"
				}
			},
			"storageLayout": {
				"storage": [
					{
						"astId": 3,
						"contract": "contracts/contracts/oracle/MockPriceFeed.sol:MockPriceFeed",
						"label": "price",
						"offset": 0,
						"slot": "0",
						"type": "t_int256"
					}
				],
				"types": {
					"t_int256": {
						"encoding": "inplace",
						"label": "int256",
						"numberOfBytes": "32"
					}
				}
			},
			"userdoc": {
				"kind": "user",
				"methods": {},
				"version": 1
			}
		}
	}
}