{
	"contracts/contracts/oracle/MockDataFeed.sol": {
		"MockDataFeed": {
			"abi": [
				{
					"inputs": [],
					"name": "getRate",
					"outputs": [
						{
							"internalType": "int256",
							"name": "",
							"type": "int256"
						}
					],
					"stateMutability": "view",
					"type": "function"
				},
				{
					"inputs": [
						{
							"internalType": "int256",
							"name": "_rate",
							"type": "int256"
						}
					],
					"name": "updateRate",
					"outputs": [],
					"stateMutability": "nonpayable",
					"type": "function"
				}
			],
			"devdoc": {
				"details": "Simulates an external data feed by allowing manual updates of rates.",
				"kind": "dev",
				"methods": {
					"getRate()": {
						"returns": {
							"_0": "The current rate."
						}
					},
					"updateRate(int256)": {
						"params": {
							"_rate": "New rate to store."
						}
					}
				},
				"title": "MockDataFeed",
				"version": 1
			},
			"evm": {
				"assembly": "    /* \"contracts/contracts/oracle/MockDataFeed.sol\":225:619  contract MockDataFeed {... */\n  0x80\n  dup1\n  0x40\n  mstore\n  jumpi(tag_1, callvalue)\n  dataSize(sub_0)\n  swap1\n  dup2\n  dataOffset(sub_0)\n  dup3\n  codecopy\n  return\ntag_1:\n  0x00\n  dup1\n  revert\nstop\n\nsub_0: assembly {\n        /* \"contracts/contracts/oracle/MockDataFeed.sol\":225:619  contract MockDataFeed {... */\n      0x80\n      dup1\n      0x40\n      mstore\n      jumpi(tag_1, iszero(lt(calldatasize, 0x04)))\n      0x00\n      dup1\n      revert\n    tag_1:\n      0x00\n      swap1\n      dup2\n      calldataload\n      0xe0\n      shr\n      swap1\n      dup2\n      0x679aefce\n      eq\n      tag_3\n      jumpi\n      pop\n      0xa08edce8\n      eq\n      tag_5\n      jumpi\n      0x00\n      dup1\n      revert\n    tag_5:\n      jumpi(tag_9, callvalue)\n      jumpi(tag_9, slt(add(not(0x03), calldatasize), 0x20))\n      calldataload(0x04)\n      dup2\n      sstore\n      dup1\n      return\n    tag_9:\n      dup1\n      revert\n    tag_3:\n      swap1\n      pop\n      jumpi(tag_13, callvalue)\n      dup2\n      add(calldatasize, not(0x03))\n      slt\n      tag_13\n      jumpi\n      0x20\n      swap2\n      sload\n      dup2\n      mstore\n      return\n    tag_13:\n      pop\n      dup1\n      revert\n\n    auxdata: 0xa2646970667358221220c8d5218c513d9232a84be8cf703518905980e09fba8c0642ec2b8ea0fa199bc164736f6c63430008140033\n}\n",
				"bytecode": {
					"linkReferences": {},
					"object": "60808060405234601457609d90816100198239f35b5f80fdfe60808060405260043610156011575f80fd5b5f90813560e01c908163679aefce14604b575063a08edce8146031575f80fd5b346048576020366003190112604857600435815580f35b80fd5b90503460635781600319360112606357602091548152f35b5080fdfea2646970667358221220c8d5218c513d9232a84be8cf703518905980e09fba8c0642ec2b8ea0fa199bc164736f6c63430008140033",
					"opcodes": "PUSH1 0x80 DUP1 PUSH1 0x40 MSTORE CALLVALUE PUSH1 0x14 JUMPI PUSH1 0x9D SWAP1 DUP2 PUSH2 0x19 DUP3 CODECOPY RETURN JUMPDEST PUSH0 DUP1 REVERT INVALID PUSH1 0x80 DUP1 PUSH1 0x40 MSTORE PUSH1 0x4 CALLDATASIZE LT ISZERO PUSH1 0x11 JUMPI PUSH0 DUP1 REVERT JUMPDEST PUSH0 SWAP1 DUP2 CALLDATALOAD PUSH1 0xE0 SHR SWAP1 DUP2 PUSH4 0x679AEFCE EQ PUSH1 0x4B JUMPI POP PUSH4 0xA08EDCE8 EQ PUSH1 0x31 JUMPI PUSH0 DUP1 REVERT JUMPDEST CALLVALUE PUSH1 0x48 JUMPI PUSH1 0x20 CALLDATASIZE PUSH1 0x3 NOT ADD SLT PUSH1 0x48 JUMPI PUSH1 0x4 CALLDATALOAD DUP2 SSTORE DUP1 RETURN JUMPDEST DUP1 REVERT JUMPDEST SWAP1 POP CALLVALUE PUSH1 0x63 JUMPI DUP2 PUSH1 0x3 NOT CALLDATASIZE ADD SLT PUSH1 0x63 JUMPI PUSH1 0x20 SWAP2 SLOAD DUP2 MSTORE RETURN JUMPDEST POP DUP1 REVERT INVALID LOG2 PUSH5 0x6970667358 0x22 SLT KECCAK256 0xC8 0xD5 0x21 DUP13 MLOAD RETURNDATASIZE SWAP3 ORIGIN 0xA8 0x4B 0xE8 0xCF PUSH17 0x3518905980E09FBA8C0642EC2B8EA0FA19 SWAP12 0xC1 PUSH5 0x736F6C6343 STOP ADDMOD EQ STOP CALLER "
				},
				"gasEstimates": {
					"creation": {
						"codeDepositCost": "31400",
						"executionCost": "87",
						"totalCost": "31487"
					},
					"external": {
						"getRate()": "2257",
						"updateRate(int256)": "22267"
					}
				},
				"methodIdentifiers": {
					"getRate()": "679aefce",
					"updateRate(int256)": "a08edce8"
				}
			},
			"storageLayout": {
				"storage": [
					{
						"astId": 83,
						"contract": "contracts/contracts/oracle/MockDataFeed.sol:MockDataFeed",
						"label": "rate",
						"offset": 0,
						"slot": "0",
						"type": "t_int256"
					}
				],
				"types": {
					"t_int256": {
						"encoding": "inplace",
						"label": "int256",
						"numberOfBytes": "32"
					}
				}
			},
			"userdoc": {
				"kind": "user",
				"methods": {
					"getRate()": {
						"notice": "Retrieves the current stored rate."
					},
					"updateRate(int256)": {
						"notice": "Updates the stored rate value."
					}
				},
				"version": 1
			}
		}
	}
}