{
	"contracts/contracts/interests/SimpleInterest.sol": {
		"SimpleInterest": {
			"abi": [
				{
					"inputs": [],
					"stateMutability": "nonpayable",
					"type": "constructor"
				},
				{
					"inputs": [
						{
							"internalType": "uint256",
							"name": "principal",
							"type": "uint256"
						},
						{
							"internalType": "uint256",
							"name": "rate",
							"type": "uint256"
						},
						{
							"internalType": "uint256",
							"name": "time",
							"type": "uint256"
						}
					],
					"name": "calculateInterest",
					"outputs": [
						{
							"internalType": "uint256",
							"name": "",
							"type": "uint256"
						}
					],
					"stateMutability": "pure",
					"type": "function"
				}
			],
			"devdoc": {
				"kind": "dev",
				"methods": {
					"calculateInterest(uint256,uint256,uint256)": {
						"details": "Calculate simple interest.",
						"params": {
							"principal": "The principal amount.",
							"rate": "The annual interest rate (in basis points, where 10000 = 100%).",
							"time": "The time in days for which the interest is calculated."
						},
						"returns": {
							"_0": "The interest amount."
						}
					}
				},
				"version": 1
			},
			"evm": {
				"assembly": "    /* \"contracts/contracts/interests/SimpleInterest.sol\":102:729  contract SimpleInterest is  IInterestModel {... */\n  0x80\n  dup1\n  0x40\n  mstore\n  jumpi(tag_1, callvalue)\n  dataSize(sub_0)\n  swap1\n  dup2\n  dataOffset(sub_0)\n  dup3\n  codecopy\n  return\ntag_1:\n  0x00\n  dup1\n  revert\nstop\n\nsub_0: assembly {\n        /* \"contracts/contracts/interests/SimpleInterest.sol\":102:729  contract SimpleInterest is  IInterestModel {... */\n      mstore(0x40, 0x80)\n      jumpi(tag_2, iszero(lt(calldatasize, 0x04)))\n      0x00\n      dup1\n      revert\n    tag_2:\n      jumpi(tag_4, eq(0x05e1bd8c, shr(0xe0, calldataload(0x00))))\n      0x00\n      dup1\n      revert\n    tag_4:\n      jumpi(tag_8, callvalue)\n      jumpi(tag_8, slt(add(not(0x03), calldatasize), 0x60))\n      0x20\n        /* \"contracts/contracts/interests/SimpleInterest.sol\":676:692  365 days * 10000 */\n      0x496cebb800\n        /* \"contracts/contracts/interests/SimpleInterest.sol\":648:671  principal * rate * time */\n      tag_10\n        /* \"contracts/contracts/interests/SimpleInterest.sol\":102:729  contract SimpleInterest is  IInterestModel {... */\n      calldataload(0x44)\n        /* \"contracts/contracts/interests/SimpleInterest.sol\":648:664  principal * rate */\n      tag_11\n        /* \"contracts/contracts/interests/SimpleInterest.sol\":102:729  contract SimpleInterest is  IInterestModel {... */\n      calldataload(0x24)\n      calldataload(0x04)\n        /* \"contracts/contracts/interests/SimpleInterest.sol\":648:664  principal * rate */\n      tag_1\n      jump\t// in\n    tag_11:\n        /* \"contracts/contracts/interests/SimpleInterest.sol\":648:671  principal * rate * time */\n      tag_1\n      jump\t// in\n    tag_10:\n        /* \"contracts/contracts/interests/SimpleInterest.sol\":102:729  contract SimpleInterest is  IInterestModel {... */\n      div\n      mload(0x40)\n      swap1\n      dup2\n      mstore\n      return\n    tag_8:\n      0x00\n      dup1\n      revert\n    tag_1:\n      dup2\n      dup2\n      mul\n      swap3\n      swap2\n      dup2\n      iszero\n      swap2\n      dup5\n      div\n      eq\n      or\n      iszero\n      tag_12\n      jumpi\n      jump\t// out\n    tag_12:\n      mstore(0x00, shl(0xe0, 0x4e487b71))\n      mstore(0x04, 0x11)\n      revert(0x00, 0x24)\n\n    auxdata: 0xa264697066735822122000031347a83aee17c7078da1706b79ecbd26f631d29fd2c3f33d6bf03dab3ee364736f6c63430008140033\n}\n",
				"bytecode": {
					"linkReferences": {},
					"object": "6080806040523460145760b790816100198239f35b5f80fdfe608060405260043610156010575f80fd5b5f3560e01c6305e1bd8c146022575f80fd5b346057576060366003190112605757602064496cebb800604e604435604a602435600435605b565b605b565b04604051908152f35b5f80fd5b81810292918115918404141715606d57565b634e487b7160e01b5f52601160045260245ffdfea264697066735822122000031347a83aee17c7078da1706b79ecbd26f631d29fd2c3f33d6bf03dab3ee364736f6c63430008140033",
					"opcodes": "PUSH1 0x80 DUP1 PUSH1 0x40 MSTORE CALLVALUE PUSH1 0x14 JUMPI PUSH1 0xB7 SWAP1 DUP2 PUSH2 0x19 DUP3 CODECOPY RETURN JUMPDEST PUSH0 DUP1 REVERT INVALID PUSH1 0x80 PUSH1 0x40 MSTORE PUSH1 0x4 CALLDATASIZE LT ISZERO PUSH1 0x10 JUMPI PUSH0 DUP1 REVERT JUMPDEST PUSH0 CALLDATALOAD PUSH1 0xE0 SHR PUSH4 0x5E1BD8C EQ PUSH1 0x22 JUMPI PUSH0 DUP1 REVERT JUMPDEST CALLVALUE PUSH1 0x57 JUMPI PUSH1 0x60 CALLDATASIZE PUSH1 0x3 NOT ADD SLT PUSH1 0x57 JUMPI PUSH1 0x20 PUSH5 0x496CEBB800 PUSH1 0x4E PUSH1 0x44 CALLDATALOAD PUSH1 0x4A PUSH1 0x24 CALLDATALOAD PUSH1 0x4 CALLDATALOAD PUSH1 0x5B JUMP JUMPDEST PUSH1 0x5B JUMP JUMPDEST DIV PUSH1 0x40 MLOAD SWAP1 DUP2 MSTORE RETURN JUMPDEST PUSH0 DUP1 REVERT JUMPDEST DUP2 DUP2 MUL SWAP3 SWAP2 DUP2 ISZERO SWAP2 DUP5 DIV EQ OR ISZERO PUSH1 0x6D JUMPI JUMP JUMPDEST PUSH4 0x4E487B71 PUSH1 0xE0 SHL PUSH0 MSTORE PUSH1 0x11 PUSH1 0x4 MSTORE PUSH1 0x24 PUSH0 REVERT INVALID LOG2 PUSH5 0x6970667358 0x22 SLT KECCAK256 STOP SUB SGT SELFBALANCE 0xA8 GASPRICE 0xEE OR 0xC7 SMOD DUP14 LOG1 PUSH17 0x6B79ECBD26F631D29FD2C3F33D6BF03DAB RETURNDATACOPY 0xE3 PUSH5 0x736F6C6343 STOP ADDMOD EQ STOP CALLER "
				},
				"gasEstimates": {
					"creation": {
						"codeDepositCost": "36600",
						"executionCost": "93",
						"totalCost": "36693"
					},
					"external": {
						"calculateInterest(uint256,uint256,uint256)": "infinite"
					}
				},
				"methodIdentifiers": {
					"calculateInterest(uint256,uint256,uint256)": "05e1bd8c"
				}
			},
			"storageLayout": {
				"storage": [],
				"types": null
			},
			"userdoc": {
				"kind": "user",
				"methods": {},
				"version": 1
			}
		}
	}
}