{
	"contracts/interests/CompoundInterest.sol": {
		"CompoundInterest": {
			"abi": [
				{
					"inputs": [
						{
							"internalType": "uint256",
							"name": "principal",
							"type": "uint256"
						},
						{
							"internalType": "uint256",
							"name": "rate",
							"type": "uint256"
						},
						{
							"internalType": "uint256",
							"name": "time",
							"type": "uint256"
						}
					],
					"name": "calculateInterest",
					"outputs": [
						{
							"internalType": "uint256",
							"name": "",
							"type": "uint256"
						}
					],
					"stateMutability": "pure",
					"type": "function"
				}
			],
			"devdoc": {
				"kind": "dev",
				"methods": {
					"calculateInterest(uint256,uint256,uint256)": {
						"details": "Calculates compound interest on a principal over a period.",
						"params": {
							"principal": "The principal amount.",
							"rate": "The annual interest rate in basis points.",
							"time": "The time period in seconds."
						},
						"returns": {
							"_0": "The amount of compound interest accrued."
						}
					}
				},
				"version": 1
			},
			"evm": {
				"assembly": "    /* \"contracts/interests/CompoundInterest.sol\":105:975  contract CompoundInterest is IInterestModel {... */\n  mstore(0x40, 0x80)\n  callvalue\n  dup1\n  iszero\n  tag_1\n  jumpi\n  0x00\n  dup1\n  revert\ntag_1:\n  pop\n  dataSize(sub_0)\n  dup1\n  dataOffset(sub_0)\n  0x00\n  codecopy\n  0x00\n  return\nstop\n\nsub_0: assembly {\n        /* \"contracts/interests/CompoundInterest.sol\":105:975  contract CompoundInterest is IInterestModel {... */\n      mstore(0x40, 0x80)\n      callvalue\n      dup1\n      iszero\n      tag_1\n      jumpi\n      0x00\n      dup1\n      revert\n    tag_1:\n      pop\n      jumpi(tag_2, lt(calldatasize, 0x04))\n      shr(0xe0, calldataload(0x00))\n      dup1\n      0x05e1bd8c\n      eq\n      tag_3\n      jumpi\n    tag_2:\n      0x00\n      dup1\n      revert\n        /* \"contracts/interests/CompoundInterest.sol\":460:972  function calculateInterest(uint256 principal, uint256 rate, uint256 time) external pure override returns (uint256) {... */\n    tag_3:\n      tag_4\n      tag_5\n      calldatasize\n      0x04\n      tag_6\n      jump\t// in\n    tag_5:\n      tag_7\n      jump\t// in\n    tag_4:\n      mload(0x40)\n        /* \"#utility.yul\":481:506   */\n      swap1\n      dup2\n      mstore\n        /* \"#utility.yul\":469:471   */\n      0x20\n        /* \"#utility.yul\":454:472   */\n      add\n        /* \"contracts/interests/CompoundInterest.sol\":460:972  function calculateInterest(uint256 principal, uint256 rate, uint256 time) external pure override returns (uint256) {... */\n      mload(0x40)\n      dup1\n      swap2\n      sub\n      swap1\n      return\n    tag_7:\n        /* \"contracts/interests/CompoundInterest.sol\":566:573  uint256 */\n      0x00\n      dup1\n        /* \"contracts/interests/CompoundInterest.sol\":610:622  rate / 10000 */\n      tag_11\n        /* \"contracts/interests/CompoundInterest.sol\":617:622  10000 */\n      0x2710\n        /* \"contracts/interests/CompoundInterest.sol\":610:614  rate */\n      dup6\n        /* \"contracts/interests/CompoundInterest.sol\":610:622  rate / 10000 */\n      tag_12\n      jump\t// in\n    tag_11:\n        /* \"contracts/interests/CompoundInterest.sol\":586:622  uint256 ratePerPeriod = rate / 10000 */\n      swap1\n      pop\n        /* \"contracts/interests/CompoundInterest.sol\":681:696  uint256 periods */\n      0x00\n        /* \"contracts/interests/CompoundInterest.sol\":699:714  time / 31536000 */\n      tag_13\n        /* \"contracts/interests/CompoundInterest.sol\":706:714  31536000 */\n      0x01e13380\n        /* \"contracts/interests/CompoundInterest.sol\":699:703  time */\n      dup6\n        /* \"contracts/interests/CompoundInterest.sol\":699:714  time / 31536000 */\n      tag_12\n      jump\t// in\n    tag_13:\n        /* \"contracts/interests/CompoundInterest.sol\":681:714  uint256 periods = time / 31536000 */\n      swap1\n      pop\n        /* \"contracts/interests/CompoundInterest.sol\":810:824  uint256 amount */\n      0x00\n        /* \"contracts/interests/CompoundInterest.sol\":681:714  uint256 periods = time / 31536000 */\n      dup2\n        /* \"contracts/interests/CompoundInterest.sol\":840:857  1 + ratePerPeriod */\n      tag_14\n        /* \"contracts/interests/CompoundInterest.sol\":844:857  ratePerPeriod */\n      dup5\n        /* \"contracts/interests/CompoundInterest.sol\":840:841  1 */\n      0x01\n        /* \"contracts/interests/CompoundInterest.sol\":840:857  1 + ratePerPeriod */\n      tag_15\n      jump\t// in\n    tag_14:\n        /* \"contracts/interests/CompoundInterest.sol\":839:869  (1 + ratePerPeriod) ** periods */\n      tag_16\n      swap2\n      swap1\n      tag_17\n      jump\t// in\n    tag_16:\n        /* \"contracts/interests/CompoundInterest.sol\":827:869  principal * (1 + ratePerPeriod) ** periods */\n      tag_18\n      swap1\n        /* \"contracts/interests/CompoundInterest.sol\":827:836  principal */\n      dup9\n        /* \"contracts/interests/CompoundInterest.sol\":827:869  principal * (1 + ratePerPeriod) ** periods */\n      tag_19\n      jump\t// in\n    tag_18:\n        /* \"contracts/interests/CompoundInterest.sol\":810:869  uint256 amount = principal * (1 + ratePerPeriod) ** periods */\n      swap1\n      pop\n        /* \"contracts/interests/CompoundInterest.sol\":887:905  amount - principal */\n      tag_20\n        /* \"contracts/interests/CompoundInterest.sol\":896:905  principal */\n      dup8\n        /* \"contracts/interests/CompoundInterest.sol\":810:869  uint256 amount = principal * (1 + ratePerPeriod) ** periods */\n      dup3\n        /* \"contracts/interests/CompoundInterest.sol\":887:905  amount - principal */\n      tag_21\n      jump\t// in\n    tag_20:\n        /* \"contracts/interests/CompoundInterest.sol\":880:905  return amount - principal */\n      swap8\n        /* \"contracts/interests/CompoundInterest.sol\":460:972  function calculateInterest(uint256 principal, uint256 rate, uint256 time) external pure override returns (uint256) {... */\n      swap7\n      pop\n      pop\n      pop\n      pop\n      pop\n      pop\n      pop\n      jump\t// out\n        /* \"#utility.yul\":14:330   */\n    tag_6:\n        /* \"#utility.yul\":91:97   */\n      0x00\n        /* \"#utility.yul\":99:105   */\n      dup1\n        /* \"#utility.yul\":107:113   */\n      0x00\n        /* \"#utility.yul\":160:162   */\n      0x60\n        /* \"#utility.yul\":148:157   */\n      dup5\n        /* \"#utility.yul\":139:146   */\n      dup7\n        /* \"#utility.yul\":135:158   */\n      sub\n        /* \"#utility.yul\":131:163   */\n      slt\n        /* \"#utility.yul\":128:180   */\n      iszero\n      tag_27\n      jumpi\n        /* \"#utility.yul\":176:177   */\n      0x00\n        /* \"#utility.yul\":173:174   */\n      dup1\n        /* \"#utility.yul\":166:178   */\n      revert\n        /* \"#utility.yul\":128:180   */\n    tag_27:\n      pop\n      pop\n        /* \"#utility.yul\":199:222   */\n      dup2\n      calldataload\n      swap4\n        /* \"#utility.yul\":269:271   */\n      0x20\n        /* \"#utility.yul\":254:272   */\n      dup4\n      add\n        /* \"#utility.yul\":241:273   */\n      calldataload\n      swap4\n      pop\n        /* \"#utility.yul\":320:322   */\n      0x40\n        /* \"#utility.yul\":305:323   */\n      swap1\n      swap3\n      add\n        /* \"#utility.yul\":292:324   */\n      calldataload\n      swap2\n        /* \"#utility.yul\":14:330   */\n      swap1\n      pop\n      jump\t// out\n        /* \"#utility.yul\":517:644   */\n    tag_22:\n        /* \"#utility.yul\":578:588   */\n      0x4e487b71\n        /* \"#utility.yul\":573:576   */\n      0xe0\n        /* \"#utility.yul\":569:589   */\n      shl\n        /* \"#utility.yul\":566:567   */\n      0x00\n        /* \"#utility.yul\":559:590   */\n      mstore\n        /* \"#utility.yul\":609:613   */\n      0x11\n        /* \"#utility.yul\":606:607   */\n      0x04\n        /* \"#utility.yul\":599:614   */\n      mstore\n        /* \"#utility.yul\":633:637   */\n      0x24\n        /* \"#utility.yul\":630:631   */\n      0x00\n        /* \"#utility.yul\":623:638   */\n      revert\n        /* \"#utility.yul\":649:866   */\n    tag_12:\n        /* \"#utility.yul\":689:690   */\n      0x00\n        /* \"#utility.yul\":715:716   */\n      dup3\n        /* \"#utility.yul\":705:837   */\n      tag_31\n      jumpi\n        /* \"#utility.yul\":759:769   */\n      0x4e487b71\n        /* \"#utility.yul\":754:757   */\n      0xe0\n        /* \"#utility.yul\":750:770   */\n      shl\n        /* \"#utility.yul\":747:748   */\n      0x00\n        /* \"#utility.yul\":740:771   */\n      mstore\n        /* \"#utility.yul\":794:798   */\n      0x12\n        /* \"#utility.yul\":791:792   */\n      0x04\n        /* \"#utility.yul\":784:799   */\n      mstore\n        /* \"#utility.yul\":822:826   */\n      0x24\n        /* \"#utility.yul\":819:820   */\n      0x00\n        /* \"#utility.yul\":812:827   */\n      revert\n        /* \"#utility.yul\":705:837   */\n    tag_31:\n      pop\n        /* \"#utility.yul\":851:860   */\n      div\n      swap1\n        /* \"#utility.yul\":649:866   */\n      jump\t// out\n        /* \"#utility.yul\":871:996   */\n    tag_15:\n        /* \"#utility.yul\":936:945   */\n      dup1\n      dup3\n      add\n        /* \"#utility.yul\":957:967   */\n      dup1\n      dup3\n      gt\n        /* \"#utility.yul\":954:990   */\n      iszero\n      tag_34\n      jumpi\n        /* \"#utility.yul\":970:988   */\n      tag_34\n      tag_22\n      jump\t// in\n    tag_34:\n        /* \"#utility.yul\":871:996   */\n      swap3\n      swap2\n      pop\n      pop\n      jump\t// out\n        /* \"#utility.yul\":1001:1423   */\n    tag_23:\n        /* \"#utility.yul\":1090:1091   */\n      0x01\n        /* \"#utility.yul\":1133:1138   */\n      dup2\n        /* \"#utility.yul\":1090:1091   */\n      dup2\n        /* \"#utility.yul\":1147:1417   */\n    tag_36:\n        /* \"#utility.yul\":1168:1175   */\n      dup1\n        /* \"#utility.yul\":1158:1166   */\n      dup6\n        /* \"#utility.yul\":1155:1176   */\n      gt\n        /* \"#utility.yul\":1147:1417   */\n      iszero\n      tag_38\n      jumpi\n        /* \"#utility.yul\":1227:1231   */\n      dup2\n        /* \"#utility.yul\":1223:1224   */\n      0x00\n        /* \"#utility.yul\":1219:1225   */\n      not\n        /* \"#utility.yul\":1215:1232   */\n      div\n        /* \"#utility.yul\":1209:1213   */\n      dup3\n        /* \"#utility.yul\":1206:1233   */\n      gt\n        /* \"#utility.yul\":1203:1256   */\n      iszero\n      tag_40\n      jumpi\n        /* \"#utility.yul\":1236:1254   */\n      tag_40\n      tag_22\n      jump\t// in\n    tag_40:\n        /* \"#utility.yul\":1286:1293   */\n      dup1\n        /* \"#utility.yul\":1276:1284   */\n      dup6\n        /* \"#utility.yul\":1272:1294   */\n      and\n        /* \"#utility.yul\":1269:1324   */\n      iszero\n      tag_41\n      jumpi\n        /* \"#utility.yul\":1306:1322   */\n      swap2\n      dup2\n      mul\n      swap2\n        /* \"#utility.yul\":1269:1324   */\n    tag_41:\n        /* \"#utility.yul\":1385:1407   */\n      swap4\n      dup5\n      shr\n      swap4\n        /* \"#utility.yul\":1345:1360   */\n      swap1\n      dup1\n      mul\n      swap1\n        /* \"#utility.yul\":1147:1417   */\n      jump(tag_36)\n    tag_38:\n        /* \"#utility.yul\":1151:1154   */\n      pop\n        /* \"#utility.yul\":1001:1423   */\n      swap3\n      pop\n      swap3\n      swap1\n      pop\n      jump\t// out\n        /* \"#utility.yul\":1428:2234   */\n    tag_24:\n        /* \"#utility.yul\":1477:1482   */\n      0x00\n        /* \"#utility.yul\":1507:1515   */\n      dup3\n        /* \"#utility.yul\":1497:1577   */\n      tag_43\n      jumpi\n      pop\n        /* \"#utility.yul\":1548:1549   */\n      0x01\n        /* \"#utility.yul\":1562:1567   */\n      jump(tag_34)\n        /* \"#utility.yul\":1497:1577   */\n    tag_43:\n        /* \"#utility.yul\":1596:1600   */\n      dup2\n        /* \"#utility.yul\":1586:1662   */\n      tag_44\n      jumpi\n      pop\n        /* \"#utility.yul\":1633:1634   */\n      0x00\n        /* \"#utility.yul\":1647:1652   */\n      jump(tag_34)\n        /* \"#utility.yul\":1586:1662   */\n    tag_44:\n        /* \"#utility.yul\":1678:1682   */\n      dup2\n        /* \"#utility.yul\":1696:1697   */\n      0x01\n        /* \"#utility.yul\":1691:1750   */\n      dup2\n      eq\n      tag_46\n      jumpi\n        /* \"#utility.yul\":1764:1765   */\n      0x02\n        /* \"#utility.yul\":1759:1889   */\n      dup2\n      eq\n      tag_47\n      jumpi\n        /* \"#utility.yul\":1671:1889   */\n      jump(tag_45)\n        /* \"#utility.yul\":1691:1750   */\n    tag_46:\n        /* \"#utility.yul\":1721:1722   */\n      0x01\n        /* \"#utility.yul\":1712:1722   */\n      swap2\n      pop\n        /* \"#utility.yul\":1735:1740   */\n      pop\n      jump(tag_34)\n        /* \"#utility.yul\":1759:1889   */\n    tag_47:\n        /* \"#utility.yul\":1796:1799   */\n      0xff\n        /* \"#utility.yul\":1786:1794   */\n      dup5\n        /* \"#utility.yul\":1783:1800   */\n      gt\n        /* \"#utility.yul\":1780:1823   */\n      iszero\n      tag_49\n      jumpi\n        /* \"#utility.yul\":1803:1821   */\n      tag_49\n      tag_22\n      jump\t// in\n    tag_49:\n      pop\n      pop\n        /* \"#utility.yul\":1859:1860   */\n      0x01\n        /* \"#utility.yul\":1845:1861   */\n      dup3\n      shl\n        /* \"#utility.yul\":1874:1879   */\n      jump(tag_34)\n        /* \"#utility.yul\":1671:1889   */\n    tag_45:\n      pop\n        /* \"#utility.yul\":1973:1975   */\n      0x20\n        /* \"#utility.yul\":1963:1971   */\n      dup4\n        /* \"#utility.yul\":1960:1976   */\n      lt\n        /* \"#utility.yul\":1954:1957   */\n      0x0133\n        /* \"#utility.yul\":1948:1952   */\n      dup4\n        /* \"#utility.yul\":1945:1958   */\n      lt\n        /* \"#utility.yul\":1941:1977   */\n      and\n        /* \"#utility.yul\":1935:1937   */\n      0x4e\n        /* \"#utility.yul\":1925:1933   */\n      dup5\n        /* \"#utility.yul\":1922:1938   */\n      lt\n        /* \"#utility.yul\":1917:1919   */\n      0x0b\n        /* \"#utility.yul\":1911:1915   */\n      dup5\n        /* \"#utility.yul\":1908:1920   */\n      lt\n        /* \"#utility.yul\":1904:1939   */\n      and\n        /* \"#utility.yul\":1901:1978   */\n      or\n        /* \"#utility.yul\":1898:2057   */\n      iszero\n      tag_50\n      jumpi\n      pop\n        /* \"#utility.yul\":2010:2029   */\n      dup2\n      dup2\n      exp\n        /* \"#utility.yul\":2042:2047   */\n      jump(tag_34)\n        /* \"#utility.yul\":1898:2057   */\n    tag_50:\n        /* \"#utility.yul\":2089:2123   */\n      tag_51\n        /* \"#utility.yul\":2114:2122   */\n      dup4\n        /* \"#utility.yul\":2108:2112   */\n      dup4\n        /* \"#utility.yul\":2089:2123   */\n      tag_23\n      jump\t// in\n    tag_51:\n        /* \"#utility.yul\":2159:2165   */\n      dup1\n        /* \"#utility.yul\":2155:2156   */\n      0x00\n        /* \"#utility.yul\":2151:2157   */\n      not\n        /* \"#utility.yul\":2147:2166   */\n      div\n        /* \"#utility.yul\":2138:2145   */\n      dup3\n        /* \"#utility.yul\":2135:2167   */\n      gt\n        /* \"#utility.yul\":2132:2190   */\n      iszero\n      tag_53\n      jumpi\n        /* \"#utility.yul\":2170:2188   */\n      tag_53\n      tag_22\n      jump\t// in\n    tag_53:\n        /* \"#utility.yul\":2208:2228   */\n      mul\n      swap4\n        /* \"#utility.yul\":1428:2234   */\n      swap3\n      pop\n      pop\n      pop\n      jump\t// out\n        /* \"#utility.yul\":2239:2370   */\n    tag_17:\n        /* \"#utility.yul\":2299:2304   */\n      0x00\n        /* \"#utility.yul\":2328:2364   */\n      tag_55\n        /* \"#utility.yul\":2355:2363   */\n      dup4\n        /* \"#utility.yul\":2349:2353   */\n      dup4\n        /* \"#utility.yul\":2328:2364   */\n      tag_24\n      jump\t// in\n    tag_55:\n        /* \"#utility.yul\":2319:2364   */\n      swap4\n        /* \"#utility.yul\":2239:2370   */\n      swap3\n      pop\n      pop\n      pop\n      jump\t// out\n        /* \"#utility.yul\":2375:2543   */\n    tag_19:\n        /* \"#utility.yul\":2448:2457   */\n      dup1\n      dup3\n      mul\n        /* \"#utility.yul\":2479:2488   */\n      dup2\n      iszero\n        /* \"#utility.yul\":2496:2511   */\n      dup3\n      dup3\n      div\n        /* \"#utility.yul\":2490:2512   */\n      dup5\n      eq\n        /* \"#utility.yul\":2476:2513   */\n      or\n        /* \"#utility.yul\":2466:2537   */\n      tag_34\n      jumpi\n        /* \"#utility.yul\":2517:2535   */\n      tag_34\n      tag_22\n      jump\t// in\n        /* \"#utility.yul\":2548:2676   */\n    tag_21:\n        /* \"#utility.yul\":2615:2624   */\n      dup2\n      dup2\n      sub\n        /* \"#utility.yul\":2636:2647   */\n      dup2\n      dup2\n      gt\n        /* \"#utility.yul\":2633:2670   */\n      iszero\n      tag_34\n      jumpi\n        /* \"#utility.yul\":2650:2668   */\n      tag_34\n      tag_22\n      jump\t// in\n\n    auxdata: 0xa264697066735822122030114a858dbc2cf53f45ca82460979d2680af90925e11ae9097dd0223b9eff2564736f6c63430008140033\n}\n",
				"bytecode": {
					"linkReferences": {},
					"object": "608060405234801561000f575f80fd5b506102728061001d5f395ff3fe608060405234801561000f575f80fd5b5060043610610029575f3560e01c806305e1bd8c1461002d575b5f80fd5b61004061003b3660046100ab565b610052565b60405190815260200160405180910390f35b5f80610060612710856100e8565b90505f6100716301e13380856100e8565b90505f81610080846001610107565b61008a9190610200565b6100949088610212565b90506100a08782610229565b979650505050505050565b5f805f606084860312156100bd575f80fd5b505081359360208301359350604090920135919050565b634e487b7160e01b5f52601160045260245ffd5b5f8261010257634e487b7160e01b5f52601260045260245ffd5b500490565b8082018082111561011a5761011a6100d4565b92915050565b600181815b8085111561015a57815f1904821115610140576101406100d4565b8085161561014d57918102915b93841c9390800290610125565b509250929050565b5f826101705750600161011a565b8161017c57505f61011a565b8160018114610192576002811461019c576101b8565b600191505061011a565b60ff8411156101ad576101ad6100d4565b50506001821b61011a565b5060208310610133831016604e8410600b84101617156101db575081810a61011a565b6101e58383610120565b805f19048211156101f8576101f86100d4565b029392505050565b5f61020b8383610162565b9392505050565b808202811582820484141761011a5761011a6100d4565b8181038181111561011a5761011a6100d456fea264697066735822122030114a858dbc2cf53f45ca82460979d2680af90925e11ae9097dd0223b9eff2564736f6c63430008140033",
					"opcodes": "PUSH1 0x80 PUSH1 0x40 MSTORE CALLVALUE DUP1 ISZERO PUSH2 0xF JUMPI PUSH0 DUP1 REVERT JUMPDEST POP PUSH2 0x272 DUP1 PUSH2 0x1D PUSH0 CODECOPY PUSH0 RETURN INVALID PUSH1 0x80 PUSH1 0x40 MSTORE CALLVALUE DUP1 ISZERO PUSH2 0xF JUMPI PUSH0 DUP1 REVERT JUMPDEST POP PUSH1 0x4 CALLDATASIZE LT PUSH2 0x29 JUMPI PUSH0 CALLDATALOAD PUSH1 0xE0 SHR DUP1 PUSH4 0x5E1BD8C EQ PUSH2 0x2D JUMPI JUMPDEST PUSH0 DUP1 REVERT JUMPDEST PUSH2 0x40 PUSH2 0x3B CALLDATASIZE PUSH1 0x4 PUSH2 0xAB JUMP JUMPDEST PUSH2 0x52 JUMP JUMPDEST PUSH1 0x40 MLOAD SWAP1 DUP2 MSTORE PUSH1 0x20 ADD PUSH1 0x40 MLOAD DUP1 SWAP2 SUB SWAP1 RETURN JUMPDEST PUSH0 DUP1 PUSH2 0x60 PUSH2 0x2710 DUP6 PUSH2 0xE8 JUMP JUMPDEST SWAP1 POP PUSH0 PUSH2 0x71 PUSH4 0x1E13380 DUP6 PUSH2 0xE8 JUMP JUMPDEST SWAP1 POP PUSH0 DUP2 PUSH2 0x80 DUP5 PUSH1 0x1 PUSH2 0x107 JUMP JUMPDEST PUSH2 0x8A SWAP2 SWAP1 PUSH2 0x200 JUMP JUMPDEST PUSH2 0x94 SWAP1 DUP9 PUSH2 0x212 JUMP JUMPDEST SWAP1 POP PUSH2 0xA0 DUP8 DUP3 PUSH2 0x229 JUMP JUMPDEST SWAP8 SWAP7 POP POP POP POP POP POP POP JUMP JUMPDEST PUSH0 DUP1 PUSH0 PUSH1 0x60 DUP5 DUP7 SUB SLT ISZERO PUSH2 0xBD JUMPI PUSH0 DUP1 REVERT JUMPDEST POP POP DUP2 CALLDATALOAD SWAP4 PUSH1 0x20 DUP4 ADD CALLDATALOAD SWAP4 POP PUSH1 0x40 SWAP1 SWAP3 ADD CALLDATALOAD SWAP2 SWAP1 POP JUMP JUMPDEST PUSH4 0x4E487B71 PUSH1 0xE0 SHL PUSH0 MSTORE PUSH1 0x11 PUSH1 0x4 MSTORE PUSH1 0x24 PUSH0 REVERT JUMPDEST PUSH0 DUP3 PUSH2 0x102 JUMPI PUSH4 0x4E487B71 PUSH1 0xE0 SHL PUSH0 MSTORE PUSH1 0x12 PUSH1 0x4 MSTORE PUSH1 0x24 PUSH0 REVERT JUMPDEST POP DIV SWAP1 JUMP JUMPDEST DUP1 DUP3 ADD DUP1 DUP3 GT ISZERO PUSH2 0x11A JUMPI PUSH2 0x11A PUSH2 0xD4 JUMP JUMPDEST SWAP3 SWAP2 POP POP JUMP JUMPDEST PUSH1 0x1 DUP2 DUP2 JUMPDEST DUP1 DUP6 GT ISZERO PUSH2 0x15A JUMPI DUP2 PUSH0 NOT DIV DUP3 GT ISZERO PUSH2 0x140 JUMPI PUSH2 0x140 PUSH2 0xD4 JUMP JUMPDEST DUP1 DUP6 AND ISZERO PUSH2 0x14D JUMPI SWAP2 DUP2 MUL SWAP2 JUMPDEST SWAP4 DUP5 SHR SWAP4 SWAP1 DUP1 MUL SWAP1 PUSH2 0x125 JUMP JUMPDEST POP SWAP3 POP SWAP3 SWAP1 POP JUMP JUMPDEST PUSH0 DUP3 PUSH2 0x170 JUMPI POP PUSH1 0x1 PUSH2 0x11A JUMP JUMPDEST DUP2 PUSH2 0x17C JUMPI POP PUSH0 PUSH2 0x11A JUMP JUMPDEST DUP2 PUSH1 0x1 DUP2 EQ PUSH2 0x192 JUMPI PUSH1 0x2 DUP2 EQ PUSH2 0x19C JUMPI PUSH2 0x1B8 JUMP JUMPDEST PUSH1 0x1 SWAP2 POP POP PUSH2 0x11A JUMP JUMPDEST PUSH1 0xFF DUP5 GT ISZERO PUSH2 0x1AD JUMPI PUSH2 0x1AD PUSH2 0xD4 JUMP JUMPDEST POP POP PUSH1 0x1 DUP3 SHL PUSH2 0x11A JUMP JUMPDEST POP PUSH1 0x20 DUP4 LT PUSH2 0x133 DUP4 LT AND PUSH1 0x4E DUP5 LT PUSH1 0xB DUP5 LT AND OR ISZERO PUSH2 0x1DB JUMPI POP DUP2 DUP2 EXP PUSH2 0x11A JUMP JUMPDEST PUSH2 0x1E5 DUP4 DUP4 PUSH2 0x120 JUMP JUMPDEST DUP1 PUSH0 NOT DIV DUP3 GT ISZERO PUSH2 0x1F8 JUMPI PUSH2 0x1F8 PUSH2 0xD4 JUMP JUMPDEST MUL SWAP4 SWAP3 POP POP POP JUMP JUMPDEST PUSH0 PUSH2 0x20B DUP4 DUP4 PUSH2 0x162 JUMP JUMPDEST SWAP4 SWAP3 POP POP POP JUMP JUMPDEST DUP1 DUP3 MUL DUP2 ISZERO DUP3 DUP3 DIV DUP5 EQ OR PUSH2 0x11A JUMPI PUSH2 0x11A PUSH2 0xD4 JUMP JUMPDEST DUP2 DUP2 SUB DUP2 DUP2 GT ISZERO PUSH2 0x11A JUMPI PUSH2 0x11A PUSH2 0xD4 JUMP INVALID LOG2 PUSH5 0x6970667358 0x22 SLT KECCAK256 ADDRESS GT 0x4A DUP6 DUP14 0xBC 0x2C CREATE2 EXTCODEHASH GASLIMIT 0xCA DUP3 CHAINID MULMOD PUSH26 0xD2680AF90925E11AE9097DD0223B9EFF2564736F6C6343000814 STOP CALLER "
				},
				"gasEstimates": {
					"creation": {
						"codeDepositCost": "125200",
						"executionCost": "169",
						"totalCost": "125369"
					},
					"external": {
						"calculateInterest(uint256,uint256,uint256)": "infinite"
					}
				},
				"methodIdentifiers": {
					"calculateInterest(uint256,uint256,uint256)": "05e1bd8c"
				}
			},
			"storageLayout": {
				"storage": [],
				"types": null
			},
			"userdoc": {
				"kind": "user",
				"methods": {},
				"version": 1
			}
		}
	}
}