{
	"data": {
		"bytecode": {
			"linkReferences": {},
			"object": "60803460be57601f6107a538819003918201601f19168301916001600160401b0383118484101760c25780849260209460405283398101031260be57516001600160a01b0381169081900360be5760015f558015607957600180546001600160a01b0319169190911790556040516106ce90816100d78239f35b60405162461bcd60e51b815260206004820152601b60248201527f496e76616c696420415059206d616e61676572206164647265737300000000006044820152606490fd5b5f80fd5b634e487b7160e01b5f52604160045260245ffdfe6080806040526004361015610012575f80fd5b5f905f3560e01c90816301ec2d0314610582575080633d39955c1461055f57806351b2d521146104f157806351c157211461030e5780637e72c7d714610258578063cf172403146101dc578063d919007e146101dc5763ef5cfb8c14610076575f80fd5b3461018e57602036600319011261018e5761008f6105a5565b60025f54146101cd5760025f556100a5816105fc565b6001600160a01b03165f818152600260205260409020600181015460048201805492916100d39084906105bb565b92831561019257836100e4916105ef565b9055546001600160a01b0316803b1561018e576040516340c10f1960e01b815233600482015260248101839052905f908290604490829084905af180156101835761016c575b506040805133815260208101929092527f0aa4d283470c904c551d18bb894d37e17674920f3261a7f854be501e25f421b79190819081015b0390a26001815580f35b6101799193505f90610676565b5f9161016261012a565b6040513d5f823e3d90fd5b5f80fd5b60405162461bcd60e51b81526020600482015260136024820152724e6f207265776172647320746f20636c61696d60681b6044820152606490fd5b633ee5aeb560e01b5f5260045ffd5b3461018e57602036600319011261018e576001600160a01b036101fd6105a5565b165f52600260205260c060405f2060018060a01b0381541690600181015490600281015460038201549060ff6005600485015494015416936040519586526020860152604085015260608401526080830152151560a0820152f35b3461018e57602036600319011261018e576001600160a01b036102796105a5565b1680156102d257805f5260026020525f60056040822082815582600182015582600282015582600382015582600482015501557f334d0b2111287dfddebe4b4c1c5af3ae644909d7fcd024377bf601e236ed5abb5f80a2005b60405162461bcd60e51b8152602060048201526014602482015273496e76616c696420706f6f6c206164647265737360601b6044820152606490fd5b3461018e57606036600319011261018e576103276105a5565b6024356001600160a01b038116919082900361018e576001600160a01b0316801515806104e8575b156104af57600154604051635c39ccad60e11b815260448035600483015262278d0060248301529091602091839182906001600160a01b03165afa908115610183575f9161047d575b5060405160c081019080821067ffffffffffffffff831117610469576020946005926040528152848101925f845260408201904382526060830190815260808301915f835260a084019560018752875f526002895260405f209460018060a01b039051166bffffffffffffffffffffffff60a01b865416178555516001850155516002840155516003830155516004820155019051151560ff80198354169116179055604051907f9cc152f4650ca2829a210a21551537f4cc4d48c2611ec06974f835e911921b905f80a260018152f35b634e487b7160e01b5f52604160045260245ffd5b90506020813d6020116104a7575b8161049860209383610676565b8101031261018e575183610398565b3d915061048b565b60405162461bcd60e51b8152602060048201526011602482015270496e76616c69642061646472657373657360781b6044820152606490fd5b5081151561034f565b3461018e57602036600319011261018e576001600160a01b036105126105a5565b165f526002602052602061055760405f20600461054e6105446105396002850154436105bb565b6003850154906105dc565b60018401546105ef565b910154906105bb565b604051908152f35b3461018e57602036600319011261018e5761058061057b6105a5565b6105fc565b005b3461018e575f36600319011261018e576001546001600160a01b03168152602090f35b600435906001600160a01b038216820361018e57565b919082039182116105c857565b634e487b7160e01b5f52601160045260245ffd5b818102929181159184041417156105c857565b919082018092116105c857565b6001600160a01b03165f818152600260205260409020600581015460ff16156106725760208160027f578afab8065b30a5e9827120e4905b8a1810e180d2f793ca54af6f7633f4e57a930160016106576105398354436105bb565b92016106648382546105ef565b9055439055604051908152a2565b5050565b90601f8019910116810190811067ffffffffffffffff8211176104695760405256fea264697066735822122088aeebd8bef3815ed54b4f28a06ba2e87e23160ca5fa19eb573dc6a988bc6a8464736f6c634300081a0033",
			"opcodes": "PUSH1 0x80 CALLVALUE PUSH1 0xBE JUMPI PUSH1 0x1F PUSH2 0x7A5 CODESIZE DUP2 SWAP1 SUB SWAP2 DUP3 ADD PUSH1 0x1F NOT AND DUP4 ADD SWAP2 PUSH1 0x1 PUSH1 0x1 PUSH1 0x40 SHL SUB DUP4 GT DUP5 DUP5 LT OR PUSH1 0xC2 JUMPI DUP1 DUP5 SWAP3 PUSH1 0x20 SWAP5 PUSH1 0x40 MSTORE DUP4 CODECOPY DUP2 ADD SUB SLT PUSH1 0xBE JUMPI MLOAD PUSH1 0x1 PUSH1 0x1 PUSH1 0xA0 SHL SUB DUP2 AND SWAP1 DUP2 SWAP1 SUB PUSH1 0xBE JUMPI PUSH1 0x1 PUSH0 SSTORE DUP1 ISZERO PUSH1 0x79 JUMPI PUSH1 0x1 DUP1 SLOAD PUSH1 0x1 PUSH1 0x1 PUSH1 0xA0 SHL SUB NOT AND SWAP2 SWAP1 SWAP2 OR SWAP1 SSTORE PUSH1 0x40 MLOAD PUSH2 0x6CE SWAP1 DUP2 PUSH2 0xD7 DUP3 CODECOPY RETURN JUMPDEST PUSH1 0x40 MLOAD PUSH3 0x461BCD PUSH1 0xE5 SHL DUP2 MSTORE PUSH1 0x20 PUSH1 0x4 DUP3 ADD MSTORE PUSH1 0x1B PUSH1 0x24 DUP3 ADD MSTORE PUSH32 0x496E76616C696420415059206D616E6167657220616464726573730000000000 PUSH1 0x44 DUP3 ADD MSTORE PUSH1 0x64 SWAP1 REVERT JUMPDEST PUSH0 DUP1 REVERT JUMPDEST PUSH4 0x4E487B71 PUSH1 0xE0 SHL PUSH0 MSTORE PUSH1 0x41 PUSH1 0x4 MSTORE PUSH1 0x24 PUSH0 REVERT INVALID PUSH1 0x80 DUP1 PUSH1 0x40 MSTORE PUSH1 0x4 CALLDATASIZE LT ISZERO PUSH2 0x12 JUMPI PUSH0 DUP1 REVERT JUMPDEST PUSH0 SWAP1 PUSH0 CALLDATALOAD PUSH1 0xE0 SHR SWAP1 DUP2 PUSH4 0x1EC2D03 EQ PUSH2 0x582 JUMPI POP DUP1 PUSH4 0x3D39955C EQ PUSH2 0x55F JUMPI DUP1 PUSH4 0x51B2D521 EQ PUSH2 0x4F1 JUMPI DUP1 PUSH4 0x51C15721 EQ PUSH2 0x30E JUMPI DUP1 PUSH4 0x7E72C7D7 EQ PUSH2 0x258 JUMPI DUP1 PUSH4 0xCF172403 EQ PUSH2 0x1DC JUMPI DUP1 PUSH4 0xD919007E EQ PUSH2 0x1DC JUMPI PUSH4 0xEF5CFB8C EQ PUSH2 0x76 JUMPI PUSH0 DUP1 REVERT JUMPDEST CALLVALUE PUSH2 0x18E JUMPI PUSH1 0x20 CALLDATASIZE PUSH1 0x3 NOT ADD SLT PUSH2 0x18E JUMPI PUSH2 0x8F PUSH2 0x5A5 JUMP JUMPDEST PUSH1 0x2 PUSH0 SLOAD EQ PUSH2 0x1CD JUMPI PUSH1 0x2 PUSH0 SSTORE PUSH2 0xA5 DUP2 PUSH2 0x5FC JUMP JUMPDEST PUSH1 0x1 PUSH1 0x1 PUSH1 0xA0 SHL SUB AND PUSH0 DUP2 DUP2 MSTORE PUSH1 0x2 PUSH1 0x20 MSTORE PUSH1 0x40 SWAP1 KECCAK256 PUSH1 0x1 DUP2 ADD SLOAD PUSH1 0x4 DUP3 ADD DUP1 SLOAD SWAP3 SWAP2 PUSH2 0xD3 SWAP1 DUP5 SWAP1 PUSH2 0x5BB JUMP JUMPDEST SWAP3 DUP4 ISZERO PUSH2 0x192 JUMPI DUP4 PUSH2 0xE4 SWAP2 PUSH2 0x5EF JUMP JUMPDEST SWAP1 SSTORE SLOAD PUSH1 0x1 PUSH1 0x1 PUSH1 0xA0 SHL SUB AND DUP1 EXTCODESIZE ISZERO PUSH2 0x18E JUMPI PUSH1 0x40 MLOAD PUSH4 0x40C10F19 PUSH1 0xE0 SHL DUP2 MSTORE CALLER PUSH1 0x4 DUP3 ADD MSTORE PUSH1 0x24 DUP2 ADD DUP4 SWAP1 MSTORE SWAP1 PUSH0 SWAP1 DUP3 SWAP1 PUSH1 0x44 SWAP1 DUP3 SWAP1 DUP5 SWAP1 GAS CALL DUP1 ISZERO PUSH2 0x183 JUMPI PUSH2 0x16C JUMPI JUMPDEST POP PUSH1 0x40 DUP1 MLOAD CALLER DUP2 MSTORE PUSH1 0x20 DUP2 ADD SWAP3 SWAP1 SWAP3 MSTORE PUSH32 0xAA4D283470C904C551D18BB894D37E17674920F3261A7F854BE501E25F421B7 SWAP2 SWAP1 DUP2 SWAP1 DUP2 ADD JUMPDEST SUB SWAP1 LOG2 PUSH1 0x1 DUP2 SSTORE DUP1 RETURN JUMPDEST PUSH2 0x179 SWAP2 SWAP4 POP PUSH0 SWAP1 PUSH2 0x676 JUMP JUMPDEST PUSH0 SWAP2 PUSH2 0x162 PUSH2 0x12A JUMP JUMPDEST PUSH1 0x40 MLOAD RETURNDATASIZE PUSH0 DUP3 RETURNDATACOPY RETURNDATASIZE SWAP1 REVERT JUMPDEST PUSH0 DUP1 REVERT JUMPDEST PUSH1 0x40 MLOAD PUSH3 0x461BCD PUSH1 0xE5 SHL DUP2 MSTORE PUSH1 0x20 PUSH1 0x4 DUP3 ADD MSTORE PUSH1 0x13 PUSH1 0x24 DUP3 ADD MSTORE PUSH19 0x4E6F207265776172647320746F20636C61696D PUSH1 0x68 SHL PUSH1 0x44 DUP3 ADD MSTORE PUSH1 0x64 SWAP1 REVERT JUMPDEST PUSH4 0x3EE5AEB5 PUSH1 0xE0 SHL PUSH0 MSTORE PUSH1 0x4 PUSH0 REVERT JUMPDEST CALLVALUE PUSH2 0x18E JUMPI PUSH1 0x20 CALLDATASIZE PUSH1 0x3 NOT ADD SLT PUSH2 0x18E JUMPI PUSH1 0x1 PUSH1 0x1 PUSH1 0xA0 SHL SUB PUSH2 0x1FD PUSH2 0x5A5 JUMP JUMPDEST AND PUSH0 MSTORE PUSH1 0x2 PUSH1 0x20 MSTORE PUSH1 0xC0 PUSH1 0x40 PUSH0 KECCAK256 PUSH1 0x1 DUP1 PUSH1 0xA0 SHL SUB DUP2 SLOAD AND SWAP1 PUSH1 0x1 DUP2 ADD SLOAD SWAP1 PUSH1 0x2 DUP2 ADD SLOAD PUSH1 0x3 DUP3 ADD SLOAD SWAP1 PUSH1 0xFF PUSH1 0x5 PUSH1 0x4 DUP6 ADD SLOAD SWAP5 ADD SLOAD AND SWAP4 PUSH1 0x40 MLOAD SWAP6 DUP7 MSTORE PUSH1 0x20 DUP7 ADD MSTORE PUSH1 0x40 DUP6 ADD MSTORE PUSH1 0x60 DUP5 ADD MSTORE PUSH1 0x80 DUP4 ADD MSTORE ISZERO ISZERO PUSH1 0xA0 DUP3 ADD MSTORE RETURN JUMPDEST CALLVALUE PUSH2 0x18E JUMPI PUSH1 0x20 CALLDATASIZE PUSH1 0x3 NOT ADD SLT PUSH2 0x18E JUMPI PUSH1 0x1 PUSH1 0x1 PUSH1 0xA0 SHL SUB PUSH2 0x279 PUSH2 0x5A5 JUMP JUMPDEST AND DUP1 ISZERO PUSH2 0x2D2 JUMPI DUP1 PUSH0 MSTORE PUSH1 0x2 PUSH1 0x20 MSTORE PUSH0 PUSH1 0x5 PUSH1 0x40 DUP3 KECCAK256 DUP3 DUP2 SSTORE DUP3 PUSH1 0x1 DUP3 ADD SSTORE DUP3 PUSH1 0x2 DUP3 ADD SSTORE DUP3 PUSH1 0x3 DUP3 ADD SSTORE DUP3 PUSH1 0x4 DUP3 ADD SSTORE ADD SSTORE PUSH32 0x334D0B2111287DFDDEBE4B4C1C5AF3AE644909D7FCD024377BF601E236ED5ABB PUSH0 DUP1 LOG2 STOP JUMPDEST PUSH1 0x40 MLOAD PUSH3 0x461BCD PUSH1 0xE5 SHL DUP2 MSTORE PUSH1 0x20 PUSH1 0x4 DUP3 ADD MSTORE PUSH1 0x14 PUSH1 0x24 DUP3 ADD MSTORE PUSH20 0x496E76616C696420706F6F6C2061646472657373 PUSH1 0x60 SHL PUSH1 0x44 DUP3 ADD MSTORE PUSH1 0x64 SWAP1 REVERT JUMPDEST CALLVALUE PUSH2 0x18E JUMPI PUSH1 0x60 CALLDATASIZE PUSH1 0x3 NOT ADD SLT PUSH2 0x18E JUMPI PUSH2 0x327 PUSH2 0x5A5 JUMP JUMPDEST PUSH1 0x24 CALLDATALOAD PUSH1 0x1 PUSH1 0x1 PUSH1 0xA0 SHL SUB DUP2 AND SWAP2 SWAP1 DUP3 SWAP1 SUB PUSH2 0x18E JUMPI PUSH1 0x1 PUSH1 0x1 PUSH1 0xA0 SHL SUB AND DUP1 ISZERO ISZERO DUP1 PUSH2 0x4E8 JUMPI JUMPDEST ISZERO PUSH2 0x4AF JUMPI PUSH1 0x1 SLOAD PUSH1 0x40 MLOAD PUSH4 0x5C39CCAD PUSH1 0xE1 SHL DUP2 MSTORE PUSH1 0x44 DUP1 CALLDATALOAD PUSH1 0x4 DUP4 ADD MSTORE PUSH3 0x278D00 PUSH1 0x24 DUP4 ADD MSTORE SWAP1 SWAP2 PUSH1 0x20 SWAP2 DUP4 SWAP2 DUP3 SWAP1 PUSH1 0x1 PUSH1 0x1 PUSH1 0xA0 SHL SUB AND GAS STATICCALL SWAP1 DUP2 ISZERO PUSH2 0x183 JUMPI PUSH0 SWAP2 PUSH2 0x47D JUMPI JUMPDEST POP PUSH1 0x40 MLOAD PUSH1 0xC0 DUP2 ADD SWAP1 DUP1 DUP3 LT PUSH8 0xFFFFFFFFFFFFFFFF DUP4 GT OR PUSH2 0x469 JUMPI PUSH1 0x20 SWAP5 PUSH1 0x5 SWAP3 PUSH1 0x40 MSTORE DUP2 MSTORE DUP5 DUP2 ADD SWAP3 PUSH0 DUP5 MSTORE PUSH1 0x40 DUP3 ADD SWAP1 NUMBER DUP3 MSTORE PUSH1 0x60 DUP4 ADD SWAP1 DUP2 MSTORE PUSH1 0x80 DUP4 ADD SWAP2 PUSH0 DUP4 MSTORE PUSH1 0xA0 DUP5 ADD SWAP6 PUSH1 0x1 DUP8 MSTORE DUP8 PUSH0 MSTORE PUSH1 0x2 DUP10 MSTORE PUSH1 0x40 PUSH0 KECCAK256 SWAP5 PUSH1 0x1 DUP1 PUSH1 0xA0 SHL SUB SWAP1 MLOAD AND PUSH12 0xFFFFFFFFFFFFFFFFFFFFFFFF PUSH1 0xA0 SHL DUP7 SLOAD AND OR DUP6 SSTORE MLOAD PUSH1 0x1 DUP6 ADD SSTORE MLOAD PUSH1 0x2 DUP5 ADD SSTORE MLOAD PUSH1 0x3 DUP4 ADD SSTORE MLOAD PUSH1 0x4 DUP3 ADD SSTORE ADD SWAP1 MLOAD ISZERO ISZERO PUSH1 0xFF DUP1 NOT DUP4 SLOAD AND SWAP2 AND OR SWAP1 SSTORE PUSH1 0x40 MLOAD SWAP1 PUSH32 0x9CC152F4650CA2829A210A21551537F4CC4D48C2611EC06974F835E911921B90 PUSH0 DUP1 LOG2 PUSH1 0x1 DUP2 MSTORE RETURN JUMPDEST PUSH4 0x4E487B71 PUSH1 0xE0 SHL PUSH0 MSTORE PUSH1 0x41 PUSH1 0x4 MSTORE PUSH1 0x24 PUSH0 REVERT JUMPDEST SWAP1 POP PUSH1 0x20 DUP2 RETURNDATASIZE PUSH1 0x20 GT PUSH2 0x4A7 JUMPI JUMPDEST DUP2 PUSH2 0x498 PUSH1 0x20 SWAP4 DUP4 PUSH2 0x676 JUMP JUMPDEST DUP2 ADD SUB SLT PUSH2 0x18E JUMPI MLOAD DUP4 PUSH2 0x398 JUMP JUMPDEST RETURNDATASIZE SWAP2 POP PUSH2 0x48B JUMP JUMPDEST PUSH1 0x40 MLOAD PUSH3 0x461BCD PUSH1 0xE5 SHL DUP2 MSTORE PUSH1 0x20 PUSH1 0x4 DUP3 ADD MSTORE PUSH1 0x11 PUSH1 0x24 DUP3 ADD MSTORE PUSH17 0x496E76616C696420616464726573736573 PUSH1 0x78 SHL PUSH1 0x44 DUP3 ADD MSTORE PUSH1 0x64 SWAP1 REVERT JUMPDEST POP DUP2 ISZERO ISZERO PUSH2 0x34F JUMP JUMPDEST CALLVALUE PUSH2 0x18E JUMPI PUSH1 0x20 CALLDATASIZE PUSH1 0x3 NOT ADD SLT PUSH2 0x18E JUMPI PUSH1 0x1 PUSH1 0x1 PUSH1 0xA0 SHL SUB PUSH2 0x512 PUSH2 0x5A5 JUMP JUMPDEST AND PUSH0 MSTORE PUSH1 0x2 PUSH1 0x20 MSTORE PUSH1 0x20 PUSH2 0x557 PUSH1 0x40 PUSH0 KECCAK256 PUSH1 0x4 PUSH2 0x54E PUSH2 0x544 PUSH2 0x539 PUSH1 0x2 DUP6 ADD SLOAD NUMBER PUSH2 0x5BB JUMP JUMPDEST PUSH1 0x3 DUP6 ADD SLOAD SWAP1 PUSH2 0x5DC JUMP JUMPDEST PUSH1 0x1 DUP5 ADD SLOAD PUSH2 0x5EF JUMP JUMPDEST SWAP2 ADD SLOAD SWAP1 PUSH2 0x5BB JUMP JUMPDEST PUSH1 0x40 MLOAD SWAP1 DUP2 MSTORE RETURN JUMPDEST CALLVALUE PUSH2 0x18E JUMPI PUSH1 0x20 CALLDATASIZE PUSH1 0x3 NOT ADD SLT PUSH2 0x18E JUMPI PUSH2 0x580 PUSH2 0x57B PUSH2 0x5A5 JUMP JUMPDEST PUSH2 0x5FC JUMP JUMPDEST STOP JUMPDEST CALLVALUE PUSH2 0x18E JUMPI PUSH0 CALLDATASIZE PUSH1 0x3 NOT ADD SLT PUSH2 0x18E JUMPI PUSH1 0x1 SLOAD PUSH1 0x1 PUSH1 0x1 PUSH1 0xA0 SHL SUB AND DUP2 MSTORE PUSH1 0x20 SWAP1 RETURN JUMPDEST PUSH1 0x4 CALLDATALOAD SWAP1 PUSH1 0x1 PUSH1 0x1 PUSH1 0xA0 SHL SUB DUP3 AND DUP3 SUB PUSH2 0x18E JUMPI JUMP JUMPDEST SWAP2 SWAP1 DUP3 SUB SWAP2 DUP3 GT PUSH2 0x5C8 JUMPI JUMP JUMPDEST PUSH4 0x4E487B71 PUSH1 0xE0 SHL PUSH0 MSTORE PUSH1 0x11 PUSH1 0x4 MSTORE PUSH1 0x24 PUSH0 REVERT JUMPDEST DUP2 DUP2 MUL SWAP3 SWAP2 DUP2 ISZERO SWAP2 DUP5 DIV EQ OR ISZERO PUSH2 0x5C8 JUMPI JUMP JUMPDEST SWAP2 SWAP1 DUP3 ADD DUP1 SWAP3 GT PUSH2 0x5C8 JUMPI JUMP JUMPDEST PUSH1 0x1 PUSH1 0x1 PUSH1 0xA0 SHL SUB AND PUSH0 DUP2 DUP2 MSTORE PUSH1 0x2 PUSH1 0x20 MSTORE PUSH1 0x40 SWAP1 KECCAK256 PUSH1 0x5 DUP2 ADD SLOAD PUSH1 0xFF AND ISZERO PUSH2 0x672 JUMPI PUSH1 0x20 DUP2 PUSH1 0x2 PUSH32 0x578AFAB8065B30A5E9827120E4905B8A1810E180D2F793CA54AF6F7633F4E57A SWAP4 ADD PUSH1 0x1 PUSH2 0x657 PUSH2 0x539 DUP4 SLOAD NUMBER PUSH2 0x5BB JUMP JUMPDEST SWAP3 ADD PUSH2 0x664 DUP4 DUP3 SLOAD PUSH2 0x5EF JUMP JUMPDEST SWAP1 SSTORE NUMBER SWAP1 SSTORE PUSH1 0x40 MLOAD SWAP1 DUP2 MSTORE LOG2 JUMP JUMPDEST POP POP JUMP JUMPDEST SWAP1 PUSH1 0x1F DUP1 NOT SWAP2 ADD AND DUP2 ADD SWAP1 DUP2 LT PUSH8 0xFFFFFFFFFFFFFFFF DUP3 GT OR PUSH2 0x469 JUMPI PUSH1 0x40 MSTORE JUMP INVALID LOG2 PUSH5 0x6970667358 0x22 SLT KECCAK256 DUP9 0xAE 0xEB 0xD8 0xBE RETURN DUP2 MCOPY 0xD5 0x4B 0x4F 0x28 LOG0 PUSH12 0xA2E87E23160CA5FA19EB573D 0xC6 0xA9 DUP9 0xBC PUSH11 0x8464736F6C634300081A00 CALLER "
		},
		"gasEstimates": {
			"creation": {
				"codeDepositCost": "348400",
				"executionCost": "infinite",
				"totalCost": "infinite"
			},
			"external": {
				"accrueRewards(address)": "54627",
				"apyManager()": "2271",
				"calculateClaimableInterest(address)": "infinite",
				"claimRewards(address)": "infinite",
				"deregisterPool(address)": "31593",
				"getRewardDetails(address)": "13208",
				"registerPool(address,address,uint256)": "infinite",
				"rewardDetails(address)": "13186"
			}
		},
		"methodIdentifiers": {
			"accrueRewards(address)": "3d39955c",
			"apyManager()": "01ec2d03",
			"calculateClaimableInterest(address)": "51b2d521",
			"claimRewards(address)": "ef5cfb8c",
			"deregisterPool(address)": "7e72c7d7",
			"getRewardDetails(address)": "d919007e",
			"registerPool(address,address,uint256)": "51c15721",
			"rewardDetails(address)": "cf172403"
		}
	},
	"abi": [
		{
			"inputs": [
				{
					"internalType": "address",
					"name": "_apyManager",
					"type": "address"
				}
			],
			"stateMutability": "nonpayable",
			"type": "constructor"
		},
		{
			"inputs": [],
			"name": "ReentrancyGuardReentrantCall",
			"type": "error"
		},
		{
			"anonymous": false,
			"inputs": [
				{
					"indexed": true,
					"internalType": "address",
					"name": "pool",
					"type": "address"
				}
			],
			"name": "PoolDeregistered",
			"type": "event"
		},
		{
			"anonymous": false,
			"inputs": [
				{
					"indexed": true,
					"internalType": "address",
					"name": "pool",
					"type": "address"
				}
			],
			"name": "PoolRegistered",
			"type": "event"
		},
		{
			"anonymous": false,
			"inputs": [
				{
					"indexed": true,
					"internalType": "address",
					"name": "pool",
					"type": "address"
				},
				{
					"indexed": false,
					"internalType": "uint256",
					"name": "reward",
					"type": "uint256"
				}
			],
			"name": "RewardAccrued",
			"type": "event"
		},
		{
			"anonymous": false,
			"inputs": [
				{
					"indexed": true,
					"internalType": "address",
					"name": "pool",
					"type": "address"
				},
				{
					"indexed": false,
					"internalType": "address",
					"name": "claimant",
					"type": "address"
				},
				{
					"indexed": false,
					"internalType": "uint256",
					"name": "reward",
					"type": "uint256"
				}
			],
			"name": "RewardClaimed",
			"type": "event"
		},
		{
			"inputs": [
				{
					"internalType": "address",
					"name": "pool",
					"type": "address"
				}
			],
			"name": "accrueRewards",
			"outputs": [],
			"stateMutability": "nonpayable",
			"type": "function"
		},
		{
			"inputs": [],
			"name": "apyManager",
			"outputs": [
				{
					"internalType": "contract IAdvancedAPYManager",
					"name": "",
					"type": "address"
				}
			],
			"stateMutability": "view",
			"type": "function"
		},
		{
			"inputs": [
				{
					"internalType": "address",
					"name": "pool",
					"type": "address"
				}
			],
			"name": "calculateClaimableInterest",
			"outputs": [
				{
					"internalType": "uint256",
					"name": "",
					"type": "uint256"
				}
			],
			"stateMutability": "view",
			"type": "function"
		},
		{
			"inputs": [
				{
					"internalType": "address",
					"name": "pool",
					"type": "address"
				}
			],
			"name": "claimRewards",
			"outputs": [],
			"stateMutability": "nonpayable",
			"type": "function"
		},
		{
			"inputs": [
				{
					"internalType": "address",
					"name": "pool",
					"type": "address"
				}
			],
			"name": "deregisterPool",
			"outputs": [],
			"stateMutability": "nonpayable",
			"type": "function"
		},
		{
			"inputs": [
				{
					"internalType": "address",
					"name": "pool",
					"type": "address"
				}
			],
			"name": "getRewardDetails",
			"outputs": [
				{
					"internalType": "address",
					"name": "rewardToken",
					"type": "address"
				},
				{
					"internalType": "uint256",
					"name": "rewardsAccrued",
					"type": "uint256"
				},
				{
					"internalType": "uint256",
					"name": "lastRewardBlock",
					"type": "uint256"
				},
				{
					"internalType": "uint256",
					"name": "rewardRate",
					"type": "uint256"
				},
				{
					"internalType": "uint256",
					"name": "lenderClaimedRewards",
					"type": "uint256"
				},
				{
					"internalType": "bool",
					"name": "isAccruing",
					"type": "bool"
				}
			],
			"stateMutability": "view",
			"type": "function"
		},
		{
			"inputs": [
				{
					"internalType": "address",
					"name": "pool",
					"type": "address"
				},
				{
					"internalType": "address",
					"name": "rewardToken",
					"type": "address"
				},
				{
					"internalType": "uint256",
					"name": "loanAmount",
					"type": "uint256"
				}
			],
			"name": "registerPool",
			"outputs": [
				{
					"internalType": "bool",
					"name": "",
					"type": "bool"
				}
			],
			"stateMutability": "nonpayable",
			"type": "function"
		},
		{
			"inputs": [
				{
					"internalType": "address",
					"name": "",
					"type": "address"
				}
			],
			"name": "rewardDetails",
			"outputs": [
				{
					"internalType": "contract IERC20",
					"name": "rewardToken",
					"type": "address"
				},
				{
					"internalType": "uint256",
					"name": "rewardsAccrued",
					"type": "uint256"
				},
				{
					"internalType": "uint256",
					"name": "lastRewardBlock",
					"type": "uint256"
				},
				{
					"internalType": "uint256",
					"name": "rewardRate",
					"type": "uint256"
				},
				{
					"internalType": "uint256",
					"name": "lenderClaimedRewards",
					"type": "uint256"
				},
				{
					"internalType": "bool",
					"name": "isAccruing",
					"type": "bool"
				}
			],
			"stateMutability": "view",
			"type": "function"
		}
	]
}