{
	"data": {
		"bytecode": {
			"linkReferences": {},
			"object": "60808060405234601957610425908161001e823930815050f35b5f80fdfe60806040908082526004361015610014575f80fd5b5f3560e01c9081633eb8b8fd1461039257508063415e982d1461035d5780636302c3cf146103285780636e4f2775146102f357806378f16830146102be57806384b8efbb1461020657806390bbf2f314610147578063c0c7fa7e146100b95763c5df4f0314610081575f80fd5b5f3660031901126100b557602090517ff3841cd1ff0085026a6327b620b67997ce40f282c88a8e905a7a5626e310f3d08152f35b5f80fd5b505f3660031901126100b5578051606081019181831067ffffffffffffffff8411176101335761012f928152602e82527f546f6b656e5065726d697373696f6e73286164647265737320746f6b656e2c7560208301526d696e7432353620616d6f756e742960901b8183015251918291826103c5565b0390f35b634e487b7160e01b5f52604160045260245ffd5b505f3660031901126100b557805160a081019181831067ffffffffffffffff8411176101335761012f928152606b82527f5065726d697442617463685769746e6573735472616e7366657246726f6d285460208301527f6f6b656e5065726d697373696f6e735b5d207065726d69747465642c61646472818301527f657373207370656e6465722c75696e74323536206e6f6e63652c75696e74323560608301526a0d88191958591b1a5b994b60aa1b608083015251918291826103c5565b505f3660031901126100b557805160a081019181831067ffffffffffffffff8411176101335761012f928152606482527f5065726d69745769746e6573735472616e7366657246726f6d28546f6b656e5060208301527f65726d697373696f6e73207065726d69747465642c6164647265737320737065818301527f6e6465722c75696e74323536206e6f6e63652c75696e7432353620646561646c6060830152631a5b994b60e21b608083015251918291826103c5565b505f3660031901126100b557602090517f939c21a48a8dbe3a9a2404a1d46691e4d39f6583d6ec6b35714604c986d801068152f35b505f3660031901126100b557602090517f65626cad6cb96493bf6f5ebea28756c966f023ab9e8a83a7101849d5573b36788152f35b505f3660031901126100b557602090517faf1b0d30d2cab0380e68f0689007e3254993c596f2fdd0aaa7f4d04f794408638152f35b505f3660031901126100b557602090517f618358ac3db8dc274f0cd8829da7e234bd48cd73c4a740aede1adec9846d06a18152f35b5f3660031901126100b557807ffcf35f5ac6a2c28868dc44c302166470266239195f02b0ee408334829333b76660209252f35b602060409281835280519182918282860152018484015e5f828201840152601f01601f191601019056fea264697066735822122093be4c3237ede9a723e5d78eabb0bdf142001d10d944638a934048461d3f1d4364736f6c63430008190033",
			"opcodes": "PUSH1 0x80 DUP1 PUSH1 0x40 MSTORE CALLVALUE PUSH1 0x19 JUMPI PUSH2 0x425 SWAP1 DUP2 PUSH2 0x1E DUP3 CODECOPY ADDRESS DUP2 POP POP RETURN JUMPDEST PUSH0 DUP1 REVERT INVALID PUSH1 0x80 PUSH1 0x40 SWAP1 DUP1 DUP3 MSTORE PUSH1 0x4 CALLDATASIZE LT ISZERO PUSH2 0x14 JUMPI PUSH0 DUP1 REVERT JUMPDEST PUSH0 CALLDATALOAD PUSH1 0xE0 SHR SWAP1 DUP2 PUSH4 0x3EB8B8FD EQ PUSH2 0x392 JUMPI POP DUP1 PUSH4 0x415E982D EQ PUSH2 0x35D JUMPI DUP1 PUSH4 0x6302C3CF EQ PUSH2 0x328 JUMPI DUP1 PUSH4 0x6E4F2775 EQ PUSH2 0x2F3 JUMPI DUP1 PUSH4 0x78F16830 EQ PUSH2 0x2BE JUMPI DUP1 PUSH4 0x84B8EFBB EQ PUSH2 0x206 JUMPI DUP1 PUSH4 0x90BBF2F3 EQ PUSH2 0x147 JUMPI DUP1 PUSH4 0xC0C7FA7E EQ PUSH2 0xB9 JUMPI PUSH4 0xC5DF4F03 EQ PUSH2 0x81 JUMPI PUSH0 DUP1 REVERT JUMPDEST PUSH0 CALLDATASIZE PUSH1 0x3 NOT ADD SLT PUSH2 0xB5 JUMPI PUSH1 0x20 SWAP1 MLOAD PUSH32 0xF3841CD1FF0085026A6327B620B67997CE40F282C88A8E905A7A5626E310F3D0 DUP2 MSTORE RETURN JUMPDEST PUSH0 DUP1 REVERT JUMPDEST POP PUSH0 CALLDATASIZE PUSH1 0x3 NOT ADD SLT PUSH2 0xB5 JUMPI DUP1 MLOAD PUSH1 0x60 DUP2 ADD SWAP2 DUP2 DUP4 LT PUSH8 0xFFFFFFFFFFFFFFFF DUP5 GT OR PUSH2 0x133 JUMPI PUSH2 0x12F SWAP3 DUP2 MSTORE PUSH1 0x2E DUP3 MSTORE PUSH32 0x546F6B656E5065726D697373696F6E73286164647265737320746F6B656E2C75 PUSH1 0x20 DUP4 ADD MSTORE PUSH14 0x696E7432353620616D6F756E7429 PUSH1 0x90 SHL DUP2 DUP4 ADD MSTORE MLOAD SWAP2 DUP3 SWAP2 DUP3 PUSH2 0x3C5 JUMP JUMPDEST SUB SWAP1 RETURN JUMPDEST PUSH4 0x4E487B71 PUSH1 0xE0 SHL PUSH0 MSTORE PUSH1 0x41 PUSH1 0x4 MSTORE PUSH1 0x24 PUSH0 REVERT JUMPDEST POP PUSH0 CALLDATASIZE PUSH1 0x3 NOT ADD SLT PUSH2 0xB5 JUMPI DUP1 MLOAD PUSH1 0xA0 DUP2 ADD SWAP2 DUP2 DUP4 LT PUSH8 0xFFFFFFFFFFFFFFFF DUP5 GT OR PUSH2 0x133 JUMPI PUSH2 0x12F SWAP3 DUP2 MSTORE PUSH1 0x6B DUP3 MSTORE PUSH32 0x5065726D697442617463685769746E6573735472616E7366657246726F6D2854 PUSH1 0x20 DUP4 ADD MSTORE PUSH32 0x6F6B656E5065726D697373696F6E735B5D207065726D69747465642C61646472 DUP2 DUP4 ADD MSTORE PUSH32 0x657373207370656E6465722C75696E74323536206E6F6E63652C75696E743235 PUSH1 0x60 DUP4 ADD MSTORE PUSH11 0xD88191958591B1A5B994B PUSH1 0xAA SHL PUSH1 0x80 DUP4 ADD MSTORE MLOAD SWAP2 DUP3 SWAP2 DUP3 PUSH2 0x3C5 JUMP JUMPDEST POP PUSH0 CALLDATASIZE PUSH1 0x3 NOT ADD SLT PUSH2 0xB5 JUMPI DUP1 MLOAD PUSH1 0xA0 DUP2 ADD SWAP2 DUP2 DUP4 LT PUSH8 0xFFFFFFFFFFFFFFFF DUP5 GT OR PUSH2 0x133 JUMPI PUSH2 0x12F SWAP3 DUP2 MSTORE PUSH1 0x64 DUP3 MSTORE PUSH32 0x5065726D69745769746E6573735472616E7366657246726F6D28546F6B656E50 PUSH1 0x20 DUP4 ADD MSTORE PUSH32 0x65726D697373696F6E73207065726D69747465642C6164647265737320737065 DUP2 DUP4 ADD MSTORE PUSH32 0x6E6465722C75696E74323536206E6F6E63652C75696E7432353620646561646C PUSH1 0x60 DUP4 ADD MSTORE PUSH4 0x1A5B994B PUSH1 0xE2 SHL PUSH1 0x80 DUP4 ADD MSTORE MLOAD SWAP2 DUP3 SWAP2 DUP3 PUSH2 0x3C5 JUMP JUMPDEST POP PUSH0 CALLDATASIZE PUSH1 0x3 NOT ADD SLT PUSH2 0xB5 JUMPI PUSH1 0x20 SWAP1 MLOAD PUSH32 0x939C21A48A8DBE3A9A2404A1D46691E4D39F6583D6EC6B35714604C986D80106 DUP2 MSTORE RETURN JUMPDEST POP PUSH0 CALLDATASIZE PUSH1 0x3 NOT ADD SLT PUSH2 0xB5 JUMPI PUSH1 0x20 SWAP1 MLOAD PUSH32 0x65626CAD6CB96493BF6F5EBEA28756C966F023AB9E8A83A7101849D5573B3678 DUP2 MSTORE RETURN JUMPDEST POP PUSH0 CALLDATASIZE PUSH1 0x3 NOT ADD SLT PUSH2 0xB5 JUMPI PUSH1 0x20 SWAP1 MLOAD PUSH32 0xAF1B0D30D2CAB0380E68F0689007E3254993C596F2FDD0AAA7F4D04F79440863 DUP2 MSTORE RETURN JUMPDEST POP PUSH0 CALLDATASIZE PUSH1 0x3 NOT ADD SLT PUSH2 0xB5 JUMPI PUSH1 0x20 SWAP1 MLOAD PUSH32 0x618358AC3DB8DC274F0CD8829DA7E234BD48CD73C4A740AEDE1ADEC9846D06A1 DUP2 MSTORE RETURN JUMPDEST PUSH0 CALLDATASIZE PUSH1 0x3 NOT ADD SLT PUSH2 0xB5 JUMPI DUP1 PUSH32 0xFCF35F5AC6A2C28868DC44C302166470266239195F02B0EE408334829333B766 PUSH1 0x20 SWAP3 MSTORE RETURN JUMPDEST PUSH1 0x20 PUSH1 0x40 SWAP3 DUP2 DUP4 MSTORE DUP1 MLOAD SWAP2 DUP3 SWAP2 DUP3 DUP3 DUP7 ADD MSTORE ADD DUP5 DUP5 ADD MCOPY PUSH0 DUP3 DUP3 ADD DUP5 ADD MSTORE PUSH1 0x1F ADD PUSH1 0x1F NOT AND ADD ADD SWAP1 JUMP INVALID LOG2 PUSH5 0x6970667358 0x22 SLT KECCAK256 SWAP4 0xBE 0x4C ORIGIN CALLDATACOPY 0xED 0xE9 0xA7 0x23 0xE5 0xD7 DUP15 0xAB 0xB0 0xBD CALL TIMESTAMP STOP SAR LT 0xD9 PREVRANDAO PUSH4 0x8A934048 CHAINID SAR EXTCODEHASH SAR NUMBER PUSH5 0x736F6C6343 STOP ADDMOD NOT STOP CALLER "
		},
		"gasEstimates": {
			"creation": {
				"codeDepositCost": "212200",
				"executionCost": "infinite",
				"totalCost": "infinite"
			},
			"external": {
				"_PERMIT_BATCH_TRANSFER_FROM_TYPEHASH()": "139",
				"_PERMIT_BATCH_TYPEHASH()": "190",
				"_PERMIT_BATCH_WITNESS_TRANSFER_FROM_TYPEHASH_STUB()": "593",
				"_PERMIT_DETAILS_TYPEHASH()": "212",
				"_PERMIT_SINGLE_TYPEHASH()": "317",
				"_PERMIT_TRANSFER_FROM_TYPEHASH()": "234",
				"_PERMIT_TRANSFER_FROM_WITNESS_TYPEHASH_STUB()": "571",
				"_TOKEN_PERMISSIONS_TYPEHASH()": "168",
				"_TOKEN_PERMISSIONS_TYPESTRING()": "567"
			},
			"internal": {
				"_hashPermitDetails(struct IAllowanceTransfer.PermitDetails memory)": "infinite",
				"_hashTokenPermissions(struct ISignatureTransfer.TokenPermissions memory)": "infinite",
				"hash(struct IAllowanceTransfer.PermitBatch memory)": "infinite",
				"hash(struct IAllowanceTransfer.PermitSingle memory)": "infinite",
				"hash(struct ISignatureTransfer.PermitBatchTransferFrom memory)": "infinite",
				"hash(struct ISignatureTransfer.PermitTransferFrom memory)": "infinite",
				"hashWithWitness(struct ISignatureTransfer.PermitBatchTransferFrom memory,bytes32,string calldata)": "infinite",
				"hashWithWitness(struct ISignatureTransfer.PermitTransferFrom memory,bytes32,string calldata)": "infinite"
			}
		},
		"methodIdentifiers": {
			"_PERMIT_BATCH_TRANSFER_FROM_TYPEHASH()": "3eb8b8fd",
			"_PERMIT_BATCH_TYPEHASH()": "6302c3cf",
			"_PERMIT_BATCH_WITNESS_TRANSFER_FROM_TYPEHASH_STUB()": "90bbf2f3",
			"_PERMIT_DETAILS_TYPEHASH()": "6e4f2775",
			"_PERMIT_SINGLE_TYPEHASH()": "c5df4f03",
			"_PERMIT_TRANSFER_FROM_TYPEHASH()": "78f16830",
			"_PERMIT_TRANSFER_FROM_WITNESS_TYPEHASH_STUB()": "84b8efbb",
			"_TOKEN_PERMISSIONS_TYPEHASH()": "415e982d",
			"_TOKEN_PERMISSIONS_TYPESTRING()": "c0c7fa7e"
		}
	},
	"abi": [
		{
			"inputs": [],
			"name": "_PERMIT_BATCH_TRANSFER_FROM_TYPEHASH",
			"outputs": [
				{
					"internalType": "bytes32",
					"name": "",
					"type": "bytes32"
				}
			],
			"stateMutability": "view",
			"type": "function"
		},
		{
			"inputs": [],
			"name": "_PERMIT_BATCH_TYPEHASH",
			"outputs": [
				{
					"internalType": "bytes32",
					"name": "",
					"type": "bytes32"
				}
			],
			"stateMutability": "view",
			"type": "function"
		},
		{
			"inputs": [],
			"name": "_PERMIT_BATCH_WITNESS_TRANSFER_FROM_TYPEHASH_STUB",
			"outputs": [
				{
					"internalType": "string",
					"name": "",
					"type": "string"
				}
			],
			"stateMutability": "view",
			"type": "function"
		},
		{
			"inputs": [],
			"name": "_PERMIT_DETAILS_TYPEHASH",
			"outputs": [
				{
					"internalType": "bytes32",
					"name": "",
					"type": "bytes32"
				}
			],
			"stateMutability": "view",
			"type": "function"
		},
		{
			"inputs": [],
			"name": "_PERMIT_SINGLE_TYPEHASH",
			"outputs": [
				{
					"internalType": "bytes32",
					"name": "",
					"type": "bytes32"
				}
			],
			"stateMutability": "view",
			"type": "function"
		},
		{
			"inputs": [],
			"name": "_PERMIT_TRANSFER_FROM_TYPEHASH",
			"outputs": [
				{
					"internalType": "bytes32",
					"name": "",
					"type": "bytes32"
				}
			],
			"stateMutability": "view",
			"type": "function"
		},
		{
			"inputs": [],
			"name": "_PERMIT_TRANSFER_FROM_WITNESS_TYPEHASH_STUB",
			"outputs": [
				{
					"internalType": "string",
					"name": "",
					"type": "string"
				}
			],
			"stateMutability": "view",
			"type": "function"
		},
		{
			"inputs": [],
			"name": "_TOKEN_PERMISSIONS_TYPEHASH",
			"outputs": [
				{
					"internalType": "bytes32",
					"name": "",
					"type": "bytes32"
				}
			],
			"stateMutability": "view",
			"type": "function"
		},
		{
			"inputs": [],
			"name": "_TOKEN_PERMISSIONS_TYPESTRING",
			"outputs": [
				{
					"internalType": "string",
					"name": "",
					"type": "string"
				}
			],
			"stateMutability": "view",
			"type": "function"
		}
	]
}