{
	"data": {
		"bytecode": {
			"linkReferences": {},
			"object": "60803461007457601f610ab338819003918201601f19168301916001600160401b038311848410176100785780849260209460405283398101031261007457516001600160a01b038116908190036100745760015f5560018060a01b03196001541617600155604051610a26908161008d8239f35b5f80fd5b634e487b7160e01b5f52604160045260245ffdfe60806040818152600480361015610014575f80fd5b5f92833560e01c90816301ec2d031461083b575080633d39955c14610633578063491c011a1461033757806377ff76e7146101b35780637e72c7d7146100f15763cf17240314610062575f80fd5b346100ed5760203660031901126100ed57610100926001600160a01b039083908261008b610860565b16815260026020522090815416926001820154926002830154906003840154908401549160058501549360ff600760068801549701541696815198895260208901528701526060860152608085015260a084015260c0830152151560e0820152f35b8280fd5b50346100ed5760203660031901126100ed576001600160a01b03610113610860565b1691821561017957839182600792858252600260205281209181835581600184015581600284015581600384015582015582600582015582600682015501557f334d0b2111287dfddebe4b4c1c5af3ae644909d7fcd024377bf601e236ed5abb8280a280f35b906020606492519162461bcd60e51b83528201526014602482015273496e76616c696420706f6f6c206164647265737360601b6044820152fd5b5090346100ed5760603660031901126100ed576101ce610860565b6001600160a01b0392909160243584811692908390036103335760443593841515809503610333578516948515158061032a575b156102f357825193610100850185811067ffffffffffffffff8211176102e05791889391859360079796528552602085018481528386014381526060870191868352608088019387855260a08901968888528c60c08b0199808b5260e08c019d8e525260026020528d209851166bffffffffffffffffffffffff60a01b8954161788555160018801555160028701555160038601555190840155516005830155516006820155019051151560ff801983541691161790557f9cc152f4650ca2829a210a21551537f4cc4d48c2611ec06974f835e911921b908280a280f35b604184634e487b7160e01b5f525260245ffd5b506020606492519162461bcd60e51b83528201526011602482015270496e76616c69642061646472657373657360781b6044820152fd5b50831515610202565b5f80fd5b5082903461062f578260031936011261062f57610352610860565b60243590811515820361062b5760028454146105e85760028085556001600160a01b0382811680875260209283528787209095929480156105a3578851639861f3e560e01b8152868186818b5afa90811561059957899161056c575b50945b8386163303610529576103c59082846108f9565b9586156104f15750156104db57600581016103e18682546108cb565b90555b5416803b156104d75786516340c10f1960e01b81526001600160a01b038416838201908152602081018690529091879183919082908490829060400103925af180156104cd57610479575b505093516001600160a01b039094168452602084015290917f0aa4d283470c904c551d18bb894d37e17674920f3261a7f854be501e25f421b79080604081015b0390a26001815580f35b67ffffffffffffffff8197969297116104ba57855293945061046f7f0aa4d283470c904c551d18bb894d37e17674920f3261a7f854be501e25f421b761042f565b634e487b7160e01b825260418752602482fd5b87513d88823e3d90fd5b8580fd5b600681016104ea8682546108cb565b90556103e4565b846064918b519162461bcd60e51b835282015260136024820152724e6f207265776172647320746f20636c61696d60681b6044820152fd5b895162461bcd60e51b8152808601889052601f60248201527f4e6f7420617574686f72697a656420746f20636c61696d2072657761726473006044820152606490fd5b61058c9150873d8911610592575b6105848183610876565b8101906108ac565b8a6103ae565b503d61057a565b8a513d8b823e3d90fd5b8851631cb0c3e760e01b8152868186818b5afa9081156105995789916105cb575b50946103b1565b6105e29150873d8911610592576105848183610876565b8a6105c4565b845162461bcd60e51b8152602081850152601f60248201527f5265656e7472616e637947756172643a207265656e7472616e742063616c6c006044820152606490fd5b8380fd5b5080fd5b5091903461062f576020806003193601126100ed576001600160a01b0380610659610860565b16928385526002835280852091815190631e96036360e31b825284828981895afa9182156108315790859188936107fc575b50600785015460ff161561078a57604462278d00915b600154169385519485938492635c39ccad60e11b84528d84015260248301525afa8015610780578690610751575b61271091500460028301926106e58454436108ec565b938285029480860484149015171561073e577f578afab8065b30a5e9827120e4905b8a1810e180d2f793ca54af6f7633f4e57a96979850906003916001820161072f8782546108cb565b9055439055015551908152a280f35b634e487b7160e01b885260118952602488fd5b508381813d8311610779575b6107678183610876565b810103126104d75761271090516106cf565b503d61075d565b82513d88823e3d90fd5b835163019312fb60e61b815290915085818a818a5afa9081156107f2579086929189916107bc575b50604490916106a1565b8381939492503d83116107eb575b6107d48183610876565b810103126107e7575185919060446107b2565b8780fd5b503d6107ca565b84513d8a823e3d90fd5b8281939294503d831161082a575b6108148183610876565b8101031261082657849051915f61068b565b8680fd5b503d61080a565b83513d89823e3d90fd5b84903461062f578160031936011261062f576001546001600160a01b03168152602090f35b600435906001600160a01b038216820361033357565b90601f8019910116810190811067ffffffffffffffff82111761089857604052565b634e487b7160e01b5f52604160045260245ffd5b9081602091031261033357516001600160a01b03811681036103335790565b919082018092116108d857565b634e487b7160e01b5f52601160045260245ffd5b919082039182116108d857565b9060048201549261090e8460018501546108ec565b91156109dc576040516327a7d9a760e21b815290602090829060049082906001600160a01b03165afa9081156109d1575f91610994575b509060068210156109805761097693600592600203610979579061096c9160011c906108cb565b915b0154906108ec565b90565b509161096e565b634e487b7160e01b5f52602160045260245ffd5b6020813d82116109c9575b816109ac60209383610876565b8101031261062f57519060068210156109c657505f610945565b80fd5b3d915061099f565b6040513d5f823e3d90fd5b50906109769250600601549060011c6108ec56fea26469706673582212204e4bedac56dd02fa0238bf1916d3a69109db306a4af6f3c71038edd39e22d57964736f6c63430008140033",
			"opcodes": "PUSH1 0x80 CALLVALUE PUSH2 0x74 JUMPI PUSH1 0x1F PUSH2 0xAB3 CODESIZE DUP2 SWAP1 SUB SWAP2 DUP3 ADD PUSH1 0x1F NOT AND DUP4 ADD SWAP2 PUSH1 0x1 PUSH1 0x1 PUSH1 0x40 SHL SUB DUP4 GT DUP5 DUP5 LT OR PUSH2 0x78 JUMPI DUP1 DUP5 SWAP3 PUSH1 0x20 SWAP5 PUSH1 0x40 MSTORE DUP4 CODECOPY DUP2 ADD SUB SLT PUSH2 0x74 JUMPI MLOAD PUSH1 0x1 PUSH1 0x1 PUSH1 0xA0 SHL SUB DUP2 AND SWAP1 DUP2 SWAP1 SUB PUSH2 0x74 JUMPI PUSH1 0x1 PUSH0 SSTORE PUSH1 0x1 DUP1 PUSH1 0xA0 SHL SUB NOT PUSH1 0x1 SLOAD AND OR PUSH1 0x1 SSTORE PUSH1 0x40 MLOAD PUSH2 0xA26 SWAP1 DUP2 PUSH2 0x8D DUP3 CODECOPY RETURN JUMPDEST PUSH0 DUP1 REVERT JUMPDEST PUSH4 0x4E487B71 PUSH1 0xE0 SHL PUSH0 MSTORE PUSH1 0x41 PUSH1 0x4 MSTORE PUSH1 0x24 PUSH0 REVERT INVALID PUSH1 0x80 PUSH1 0x40 DUP2 DUP2 MSTORE PUSH1 0x4 DUP1 CALLDATASIZE LT ISZERO PUSH2 0x14 JUMPI PUSH0 DUP1 REVERT JUMPDEST PUSH0 SWAP3 DUP4 CALLDATALOAD PUSH1 0xE0 SHR SWAP1 DUP2 PUSH4 0x1EC2D03 EQ PUSH2 0x83B JUMPI POP DUP1 PUSH4 0x3D39955C EQ PUSH2 0x633 JUMPI DUP1 PUSH4 0x491C011A EQ PUSH2 0x337 JUMPI DUP1 PUSH4 0x77FF76E7 EQ PUSH2 0x1B3 JUMPI DUP1 PUSH4 0x7E72C7D7 EQ PUSH2 0xF1 JUMPI PUSH4 0xCF172403 EQ PUSH2 0x62 JUMPI PUSH0 DUP1 REVERT JUMPDEST CALLVALUE PUSH2 0xED JUMPI PUSH1 0x20 CALLDATASIZE PUSH1 0x3 NOT ADD SLT PUSH2 0xED JUMPI PUSH2 0x100 SWAP3 PUSH1 0x1 PUSH1 0x1 PUSH1 0xA0 SHL SUB SWAP1 DUP4 SWAP1 DUP3 PUSH2 0x8B PUSH2 0x860 JUMP JUMPDEST AND DUP2 MSTORE PUSH1 0x2 PUSH1 0x20 MSTORE KECCAK256 SWAP1 DUP2 SLOAD AND SWAP3 PUSH1 0x1 DUP3 ADD SLOAD SWAP3 PUSH1 0x2 DUP4 ADD SLOAD SWAP1 PUSH1 0x3 DUP5 ADD SLOAD SWAP1 DUP5 ADD SLOAD SWAP2 PUSH1 0x5 DUP6 ADD SLOAD SWAP4 PUSH1 0xFF PUSH1 0x7 PUSH1 0x6 DUP9 ADD SLOAD SWAP8 ADD SLOAD AND SWAP7 DUP2 MLOAD SWAP9 DUP10 MSTORE PUSH1 0x20 DUP10 ADD MSTORE DUP8 ADD MSTORE PUSH1 0x60 DUP7 ADD MSTORE PUSH1 0x80 DUP6 ADD MSTORE PUSH1 0xA0 DUP5 ADD MSTORE PUSH1 0xC0 DUP4 ADD MSTORE ISZERO ISZERO PUSH1 0xE0 DUP3 ADD MSTORE RETURN JUMPDEST DUP3 DUP1 REVERT JUMPDEST POP CALLVALUE PUSH2 0xED JUMPI PUSH1 0x20 CALLDATASIZE PUSH1 0x3 NOT ADD SLT PUSH2 0xED JUMPI PUSH1 0x1 PUSH1 0x1 PUSH1 0xA0 SHL SUB PUSH2 0x113 PUSH2 0x860 JUMP JUMPDEST AND SWAP2 DUP3 ISZERO PUSH2 0x179 JUMPI DUP4 SWAP2 DUP3 PUSH1 0x7 SWAP3 DUP6 DUP3 MSTORE PUSH1 0x2 PUSH1 0x20 MSTORE DUP2 KECCAK256 SWAP2 DUP2 DUP4 SSTORE DUP2 PUSH1 0x1 DUP5 ADD SSTORE DUP2 PUSH1 0x2 DUP5 ADD SSTORE DUP2 PUSH1 0x3 DUP5 ADD SSTORE DUP3 ADD SSTORE DUP3 PUSH1 0x5 DUP3 ADD SSTORE DUP3 PUSH1 0x6 DUP3 ADD SSTORE ADD SSTORE PUSH32 0x334D0B2111287DFDDEBE4B4C1C5AF3AE644909D7FCD024377BF601E236ED5ABB DUP3 DUP1 LOG2 DUP1 RETURN JUMPDEST SWAP1 PUSH1 0x20 PUSH1 0x64 SWAP3 MLOAD SWAP2 PUSH3 0x461BCD PUSH1 0xE5 SHL DUP4 MSTORE DUP3 ADD MSTORE PUSH1 0x14 PUSH1 0x24 DUP3 ADD MSTORE PUSH20 0x496E76616C696420706F6F6C2061646472657373 PUSH1 0x60 SHL PUSH1 0x44 DUP3 ADD MSTORE REVERT JUMPDEST POP SWAP1 CALLVALUE PUSH2 0xED JUMPI PUSH1 0x60 CALLDATASIZE PUSH1 0x3 NOT ADD SLT PUSH2 0xED JUMPI PUSH2 0x1CE PUSH2 0x860 JUMP JUMPDEST PUSH1 0x1 PUSH1 0x1 PUSH1 0xA0 SHL SUB SWAP3 SWAP1 SWAP2 PUSH1 0x24 CALLDATALOAD DUP5 DUP2 AND SWAP3 SWAP1 DUP4 SWAP1 SUB PUSH2 0x333 JUMPI PUSH1 0x44 CALLDATALOAD SWAP4 DUP5 ISZERO ISZERO DUP1 SWAP6 SUB PUSH2 0x333 JUMPI DUP6 AND SWAP5 DUP6 ISZERO ISZERO DUP1 PUSH2 0x32A JUMPI JUMPDEST ISZERO PUSH2 0x2F3 JUMPI DUP3 MLOAD SWAP4 PUSH2 0x100 DUP6 ADD DUP6 DUP2 LT PUSH8 0xFFFFFFFFFFFFFFFF DUP3 GT OR PUSH2 0x2E0 JUMPI SWAP2 DUP9 SWAP4 SWAP2 DUP6 SWAP4 PUSH1 0x7 SWAP8 SWAP7 MSTORE DUP6 MSTORE PUSH1 0x20 DUP6 ADD DUP5 DUP2 MSTORE DUP4 DUP7 ADD NUMBER DUP2 MSTORE PUSH1 0x60 DUP8 ADD SWAP2 DUP7 DUP4 MSTORE PUSH1 0x80 DUP9 ADD SWAP4 DUP8 DUP6 MSTORE PUSH1 0xA0 DUP10 ADD SWAP7 DUP9 DUP9 MSTORE DUP13 PUSH1 0xC0 DUP12 ADD SWAP10 DUP1 DUP12 MSTORE PUSH1 0xE0 DUP13 ADD SWAP14 DUP15 MSTORE MSTORE PUSH1 0x2 PUSH1 0x20 MSTORE DUP14 KECCAK256 SWAP9 MLOAD AND PUSH12 0xFFFFFFFFFFFFFFFFFFFFFFFF PUSH1 0xA0 SHL DUP10 SLOAD AND OR DUP9 SSTORE MLOAD PUSH1 0x1 DUP9 ADD SSTORE MLOAD PUSH1 0x2 DUP8 ADD SSTORE MLOAD PUSH1 0x3 DUP7 ADD SSTORE MLOAD SWAP1 DUP5 ADD SSTORE MLOAD PUSH1 0x5 DUP4 ADD SSTORE MLOAD PUSH1 0x6 DUP3 ADD SSTORE ADD SWAP1 MLOAD ISZERO ISZERO PUSH1 0xFF DUP1 NOT DUP4 SLOAD AND SWAP2 AND OR SWAP1 SSTORE PUSH32 0x9CC152F4650CA2829A210A21551537F4CC4D48C2611EC06974F835E911921B90 DUP3 DUP1 LOG2 DUP1 RETURN JUMPDEST PUSH1 0x41 DUP5 PUSH4 0x4E487B71 PUSH1 0xE0 SHL PUSH0 MSTORE MSTORE PUSH1 0x24 PUSH0 REVERT JUMPDEST POP PUSH1 0x20 PUSH1 0x64 SWAP3 MLOAD SWAP2 PUSH3 0x461BCD PUSH1 0xE5 SHL DUP4 MSTORE DUP3 ADD MSTORE PUSH1 0x11 PUSH1 0x24 DUP3 ADD MSTORE PUSH17 0x496E76616C696420616464726573736573 PUSH1 0x78 SHL PUSH1 0x44 DUP3 ADD MSTORE REVERT JUMPDEST POP DUP4 ISZERO ISZERO PUSH2 0x202 JUMP JUMPDEST PUSH0 DUP1 REVERT JUMPDEST POP DUP3 SWAP1 CALLVALUE PUSH2 0x62F JUMPI DUP3 PUSH1 0x3 NOT CALLDATASIZE ADD SLT PUSH2 0x62F JUMPI PUSH2 0x352 PUSH2 0x860 JUMP JUMPDEST PUSH1 0x24 CALLDATALOAD SWAP1 DUP2 ISZERO ISZERO DUP3 SUB PUSH2 0x62B JUMPI PUSH1 0x2 DUP5 SLOAD EQ PUSH2 0x5E8 JUMPI PUSH1 0x2 DUP1 DUP6 SSTORE PUSH1 0x1 PUSH1 0x1 PUSH1 0xA0 SHL SUB DUP3 DUP2 AND DUP1 DUP8 MSTORE PUSH1 0x20 SWAP3 DUP4 MSTORE DUP8 DUP8 KECCAK256 SWAP1 SWAP6 SWAP3 SWAP5 DUP1 ISZERO PUSH2 0x5A3 JUMPI DUP9 MLOAD PUSH4 0x9861F3E5 PUSH1 0xE0 SHL DUP2 MSTORE DUP7 DUP2 DUP7 DUP2 DUP12 GAS STATICCALL SWAP1 DUP2 ISZERO PUSH2 0x599 JUMPI DUP10 SWAP2 PUSH2 0x56C JUMPI JUMPDEST POP SWAP5 JUMPDEST DUP4 DUP7 AND CALLER SUB PUSH2 0x529 JUMPI PUSH2 0x3C5 SWAP1 DUP3 DUP5 PUSH2 0x8F9 JUMP JUMPDEST SWAP6 DUP7 ISZERO PUSH2 0x4F1 JUMPI POP ISZERO PUSH2 0x4DB JUMPI PUSH1 0x5 DUP2 ADD PUSH2 0x3E1 DUP7 DUP3 SLOAD PUSH2 0x8CB JUMP JUMPDEST SWAP1 SSTORE JUMPDEST SLOAD AND DUP1 EXTCODESIZE ISZERO PUSH2 0x4D7 JUMPI DUP7 MLOAD PUSH4 0x40C10F19 PUSH1 0xE0 SHL DUP2 MSTORE PUSH1 0x1 PUSH1 0x1 PUSH1 0xA0 SHL SUB DUP5 AND DUP4 DUP3 ADD SWAP1 DUP2 MSTORE PUSH1 0x20 DUP2 ADD DUP7 SWAP1 MSTORE SWAP1 SWAP2 DUP8 SWAP2 DUP4 SWAP2 SWAP1 DUP3 SWAP1 DUP5 SWAP1 DUP3 SWAP1 PUSH1 0x40 ADD SUB SWAP3 GAS CALL DUP1 ISZERO PUSH2 0x4CD JUMPI PUSH2 0x479 JUMPI JUMPDEST POP POP SWAP4 MLOAD PUSH1 0x1 PUSH1 0x1 PUSH1 0xA0 SHL SUB SWAP1 SWAP5 AND DUP5 MSTORE PUSH1 0x20 DUP5 ADD MSTORE SWAP1 SWAP2 PUSH32 0xAA4D283470C904C551D18BB894D37E17674920F3261A7F854BE501E25F421B7 SWAP1 DUP1 PUSH1 0x40 DUP2 ADD JUMPDEST SUB SWAP1 LOG2 PUSH1 0x1 DUP2 SSTORE DUP1 RETURN JUMPDEST PUSH8 0xFFFFFFFFFFFFFFFF DUP2 SWAP8 SWAP7 SWAP3 SWAP8 GT PUSH2 0x4BA JUMPI DUP6 MSTORE SWAP4 SWAP5 POP PUSH2 0x46F PUSH32 0xAA4D283470C904C551D18BB894D37E17674920F3261A7F854BE501E25F421B7 PUSH2 0x42F JUMP JUMPDEST PUSH4 0x4E487B71 PUSH1 0xE0 SHL DUP3 MSTORE PUSH1 0x41 DUP8 MSTORE PUSH1 0x24 DUP3 REVERT JUMPDEST DUP8 MLOAD RETURNDATASIZE DUP9 DUP3 RETURNDATACOPY RETURNDATASIZE SWAP1 REVERT JUMPDEST DUP6 DUP1 REVERT JUMPDEST PUSH1 0x6 DUP2 ADD PUSH2 0x4EA DUP7 DUP3 SLOAD PUSH2 0x8CB JUMP JUMPDEST SWAP1 SSTORE PUSH2 0x3E4 JUMP JUMPDEST DUP5 PUSH1 0x64 SWAP2 DUP12 MLOAD SWAP2 PUSH3 0x461BCD PUSH1 0xE5 SHL DUP4 MSTORE DUP3 ADD MSTORE PUSH1 0x13 PUSH1 0x24 DUP3 ADD MSTORE PUSH19 0x4E6F207265776172647320746F20636C61696D PUSH1 0x68 SHL PUSH1 0x44 DUP3 ADD MSTORE REVERT JUMPDEST DUP10 MLOAD PUSH3 0x461BCD PUSH1 0xE5 SHL DUP2 MSTORE DUP1 DUP7 ADD DUP9 SWAP1 MSTORE PUSH1 0x1F PUSH1 0x24 DUP3 ADD MSTORE PUSH32 0x4E6F7420617574686F72697A656420746F20636C61696D207265776172647300 PUSH1 0x44 DUP3 ADD MSTORE PUSH1 0x64 SWAP1 REVERT JUMPDEST PUSH2 0x58C SWAP2 POP DUP8 RETURNDATASIZE DUP10 GT PUSH2 0x592 JUMPI JUMPDEST PUSH2 0x584 DUP2 DUP4 PUSH2 0x876 JUMP JUMPDEST DUP2 ADD SWAP1 PUSH2 0x8AC JUMP JUMPDEST DUP11 PUSH2 0x3AE JUMP JUMPDEST POP RETURNDATASIZE PUSH2 0x57A JUMP JUMPDEST DUP11 MLOAD RETURNDATASIZE DUP12 DUP3 RETURNDATACOPY RETURNDATASIZE SWAP1 REVERT JUMPDEST DUP9 MLOAD PUSH4 0x1CB0C3E7 PUSH1 0xE0 SHL DUP2 MSTORE DUP7 DUP2 DUP7 DUP2 DUP12 GAS STATICCALL SWAP1 DUP2 ISZERO PUSH2 0x599 JUMPI DUP10 SWAP2 PUSH2 0x5CB JUMPI JUMPDEST POP SWAP5 PUSH2 0x3B1 JUMP JUMPDEST PUSH2 0x5E2 SWAP2 POP DUP8 RETURNDATASIZE DUP10 GT PUSH2 0x592 JUMPI PUSH2 0x584 DUP2 DUP4 PUSH2 0x876 JUMP JUMPDEST DUP11 PUSH2 0x5C4 JUMP JUMPDEST DUP5 MLOAD PUSH3 0x461BCD PUSH1 0xE5 SHL DUP2 MSTORE PUSH1 0x20 DUP2 DUP6 ADD MSTORE PUSH1 0x1F PUSH1 0x24 DUP3 ADD MSTORE PUSH32 0x5265656E7472616E637947756172643A207265656E7472616E742063616C6C00 PUSH1 0x44 DUP3 ADD MSTORE PUSH1 0x64 SWAP1 REVERT JUMPDEST DUP4 DUP1 REVERT JUMPDEST POP DUP1 REVERT JUMPDEST POP SWAP2 SWAP1 CALLVALUE PUSH2 0x62F JUMPI PUSH1 0x20 DUP1 PUSH1 0x3 NOT CALLDATASIZE ADD SLT PUSH2 0xED JUMPI PUSH1 0x1 PUSH1 0x1 PUSH1 0xA0 SHL SUB DUP1 PUSH2 0x659 PUSH2 0x860 JUMP JUMPDEST AND SWAP3 DUP4 DUP6 MSTORE PUSH1 0x2 DUP4 MSTORE DUP1 DUP6 KECCAK256 SWAP2 DUP2 MLOAD SWAP1 PUSH4 0x1E960363 PUSH1 0xE3 SHL DUP3 MSTORE DUP5 DUP3 DUP10 DUP2 DUP10 GAS STATICCALL SWAP2 DUP3 ISZERO PUSH2 0x831 JUMPI SWAP1 DUP6 SWAP2 DUP9 SWAP4 PUSH2 0x7FC JUMPI JUMPDEST POP PUSH1 0x7 DUP6 ADD SLOAD PUSH1 0xFF AND ISZERO PUSH2 0x78A JUMPI PUSH1 0x44 PUSH3 0x278D00 SWAP2 JUMPDEST PUSH1 0x1 SLOAD AND SWAP4 DUP6 MLOAD SWAP5 DUP6 SWAP4 DUP5 SWAP3 PUSH4 0x5C39CCAD PUSH1 0xE1 SHL DUP5 MSTORE DUP14 DUP5 ADD MSTORE PUSH1 0x24 DUP4 ADD MSTORE GAS STATICCALL DUP1 ISZERO PUSH2 0x780 JUMPI DUP7 SWAP1 PUSH2 0x751 JUMPI JUMPDEST PUSH2 0x2710 SWAP2 POP DIV PUSH1 0x2 DUP4 ADD SWAP3 PUSH2 0x6E5 DUP5 SLOAD NUMBER PUSH2 0x8EC JUMP JUMPDEST SWAP4 DUP3 DUP6 MUL SWAP5 DUP1 DUP7 DIV DUP5 EQ SWAP1 ISZERO OR ISZERO PUSH2 0x73E JUMPI PUSH32 0x578AFAB8065B30A5E9827120E4905B8A1810E180D2F793CA54AF6F7633F4E57A SWAP7 SWAP8 SWAP9 POP SWAP1 PUSH1 0x3 SWAP2 PUSH1 0x1 DUP3 ADD PUSH2 0x72F DUP8 DUP3 SLOAD PUSH2 0x8CB JUMP JUMPDEST SWAP1 SSTORE NUMBER SWAP1 SSTORE ADD SSTORE MLOAD SWAP1 DUP2 MSTORE LOG2 DUP1 RETURN JUMPDEST PUSH4 0x4E487B71 PUSH1 0xE0 SHL DUP9 MSTORE PUSH1 0x11 DUP10 MSTORE PUSH1 0x24 DUP9 REVERT JUMPDEST POP DUP4 DUP2 DUP2 RETURNDATASIZE DUP4 GT PUSH2 0x779 JUMPI JUMPDEST PUSH2 0x767 DUP2 DUP4 PUSH2 0x876 JUMP JUMPDEST DUP2 ADD SUB SLT PUSH2 0x4D7 JUMPI PUSH2 0x2710 SWAP1 MLOAD PUSH2 0x6CF JUMP JUMPDEST POP RETURNDATASIZE PUSH2 0x75D JUMP JUMPDEST DUP3 MLOAD RETURNDATASIZE DUP9 DUP3 RETURNDATACOPY RETURNDATASIZE SWAP1 REVERT JUMPDEST DUP4 MLOAD PUSH4 0x19312FB PUSH1 0xE6 SHL DUP2 MSTORE SWAP1 SWAP2 POP DUP6 DUP2 DUP11 DUP2 DUP11 GAS STATICCALL SWAP1 DUP2 ISZERO PUSH2 0x7F2 JUMPI SWAP1 DUP7 SWAP3 SWAP2 DUP10 SWAP2 PUSH2 0x7BC JUMPI JUMPDEST POP PUSH1 0x44 SWAP1 SWAP2 PUSH2 0x6A1 JUMP JUMPDEST DUP4 DUP2 SWAP4 SWAP5 SWAP3 POP RETURNDATASIZE DUP4 GT PUSH2 0x7EB JUMPI JUMPDEST PUSH2 0x7D4 DUP2 DUP4 PUSH2 0x876 JUMP JUMPDEST DUP2 ADD SUB SLT PUSH2 0x7E7 JUMPI MLOAD DUP6 SWAP2 SWAP1 PUSH1 0x44 PUSH2 0x7B2 JUMP JUMPDEST DUP8 DUP1 REVERT JUMPDEST POP RETURNDATASIZE PUSH2 0x7CA JUMP JUMPDEST DUP5 MLOAD RETURNDATASIZE DUP11 DUP3 RETURNDATACOPY RETURNDATASIZE SWAP1 REVERT JUMPDEST DUP3 DUP2 SWAP4 SWAP3 SWAP5 POP RETURNDATASIZE DUP4 GT PUSH2 0x82A JUMPI JUMPDEST PUSH2 0x814 DUP2 DUP4 PUSH2 0x876 JUMP JUMPDEST DUP2 ADD SUB SLT PUSH2 0x826 JUMPI DUP5 SWAP1 MLOAD SWAP2 PUSH0 PUSH2 0x68B JUMP JUMPDEST DUP7 DUP1 REVERT JUMPDEST POP RETURNDATASIZE PUSH2 0x80A JUMP JUMPDEST DUP4 MLOAD RETURNDATASIZE DUP10 DUP3 RETURNDATACOPY RETURNDATASIZE SWAP1 REVERT JUMPDEST DUP5 SWAP1 CALLVALUE PUSH2 0x62F JUMPI DUP2 PUSH1 0x3 NOT CALLDATASIZE ADD SLT PUSH2 0x62F JUMPI PUSH1 0x1 SLOAD PUSH1 0x1 PUSH1 0x1 PUSH1 0xA0 SHL SUB AND DUP2 MSTORE PUSH1 0x20 SWAP1 RETURN JUMPDEST PUSH1 0x4 CALLDATALOAD SWAP1 PUSH1 0x1 PUSH1 0x1 PUSH1 0xA0 SHL SUB DUP3 AND DUP3 SUB PUSH2 0x333 JUMPI JUMP JUMPDEST SWAP1 PUSH1 0x1F DUP1 NOT SWAP2 ADD AND DUP2 ADD SWAP1 DUP2 LT PUSH8 0xFFFFFFFFFFFFFFFF DUP3 GT OR PUSH2 0x898 JUMPI PUSH1 0x40 MSTORE JUMP JUMPDEST PUSH4 0x4E487B71 PUSH1 0xE0 SHL PUSH0 MSTORE PUSH1 0x41 PUSH1 0x4 MSTORE PUSH1 0x24 PUSH0 REVERT JUMPDEST SWAP1 DUP2 PUSH1 0x20 SWAP2 SUB SLT PUSH2 0x333 JUMPI MLOAD PUSH1 0x1 PUSH1 0x1 PUSH1 0xA0 SHL SUB DUP2 AND DUP2 SUB PUSH2 0x333 JUMPI SWAP1 JUMP JUMPDEST SWAP2 SWAP1 DUP3 ADD DUP1 SWAP3 GT PUSH2 0x8D8 JUMPI JUMP JUMPDEST PUSH4 0x4E487B71 PUSH1 0xE0 SHL PUSH0 MSTORE PUSH1 0x11 PUSH1 0x4 MSTORE PUSH1 0x24 PUSH0 REVERT JUMPDEST SWAP2 SWAP1 DUP3 SUB SWAP2 DUP3 GT PUSH2 0x8D8 JUMPI JUMP JUMPDEST SWAP1 PUSH1 0x4 DUP3 ADD SLOAD SWAP3 PUSH2 0x90E DUP5 PUSH1 0x1 DUP6 ADD SLOAD PUSH2 0x8EC JUMP JUMPDEST SWAP2 ISZERO PUSH2 0x9DC JUMPI PUSH1 0x40 MLOAD PUSH4 0x27A7D9A7 PUSH1 0xE2 SHL DUP2 MSTORE SWAP1 PUSH1 0x20 SWAP1 DUP3 SWAP1 PUSH1 0x4 SWAP1 DUP3 SWAP1 PUSH1 0x1 PUSH1 0x1 PUSH1 0xA0 SHL SUB AND GAS STATICCALL SWAP1 DUP2 ISZERO PUSH2 0x9D1 JUMPI PUSH0 SWAP2 PUSH2 0x994 JUMPI JUMPDEST POP SWAP1 PUSH1 0x6 DUP3 LT ISZERO PUSH2 0x980 JUMPI PUSH2 0x976 SWAP4 PUSH1 0x5 SWAP3 PUSH1 0x2 SUB PUSH2 0x979 JUMPI SWAP1 PUSH2 0x96C SWAP2 PUSH1 0x1 SHR SWAP1 PUSH2 0x8CB JUMP JUMPDEST SWAP2 JUMPDEST ADD SLOAD SWAP1 PUSH2 0x8EC JUMP JUMPDEST SWAP1 JUMP JUMPDEST POP SWAP2 PUSH2 0x96E JUMP JUMPDEST PUSH4 0x4E487B71 PUSH1 0xE0 SHL PUSH0 MSTORE PUSH1 0x21 PUSH1 0x4 MSTORE PUSH1 0x24 PUSH0 REVERT JUMPDEST PUSH1 0x20 DUP2 RETURNDATASIZE DUP3 GT PUSH2 0x9C9 JUMPI JUMPDEST DUP2 PUSH2 0x9AC PUSH1 0x20 SWAP4 DUP4 PUSH2 0x876 JUMP JUMPDEST DUP2 ADD SUB SLT PUSH2 0x62F JUMPI MLOAD SWAP1 PUSH1 0x6 DUP3 LT ISZERO PUSH2 0x9C6 JUMPI POP PUSH0 PUSH2 0x945 JUMP JUMPDEST DUP1 REVERT JUMPDEST RETURNDATASIZE SWAP2 POP PUSH2 0x99F JUMP JUMPDEST PUSH1 0x40 MLOAD RETURNDATASIZE PUSH0 DUP3 RETURNDATACOPY RETURNDATASIZE SWAP1 REVERT JUMPDEST POP SWAP1 PUSH2 0x976 SWAP3 POP PUSH1 0x6 ADD SLOAD SWAP1 PUSH1 0x1 SHR PUSH2 0x8EC JUMP INVALID LOG2 PUSH5 0x6970667358 0x22 SLT KECCAK256 0x4E 0x4B 0xED 0xAC JUMP 0xDD MUL STATICCALL MUL CODESIZE 0xBF NOT AND 0xD3 0xA6 SWAP2 MULMOD 0xDB ADDRESS PUSH11 0x4AF6F3C71038EDD39E22D5 PUSH26 0x64736F6C63430008140033000000000000000000000000000000 "
		},
		"gasEstimates": {
			"creation": {
				"codeDepositCost": "519600",
				"executionCost": "infinite",
				"totalCost": "infinite"
			},
			"external": {
				"accrueRewards(address)": "infinite",
				"apyManager()": "2285",
				"claimRewards(address,bool)": "infinite",
				"deregisterPool(address)": "41638",
				"registerPool(address,address,bool)": "97560",
				"rewardDetails(address)": "17440"
			},
			"internal": {
				"calculateClaimableRewards(struct RewardManager.RewardDetails storage pointer,bool,address)": "infinite"
			}
		},
		"methodIdentifiers": {
			"accrueRewards(address)": "3d39955c",
			"apyManager()": "01ec2d03",
			"claimRewards(address,bool)": "491c011a",
			"deregisterPool(address)": "7e72c7d7",
			"registerPool(address,address,bool)": "77ff76e7",
			"rewardDetails(address)": "cf172403"
		}
	},
	"abi": [
		{
			"inputs": [
				{
					"internalType": "address",
					"name": "_apyManager",
					"type": "address"
				}
			],
			"stateMutability": "nonpayable",
			"type": "constructor"
		},
		{
			"anonymous": false,
			"inputs": [
				{
					"indexed": true,
					"internalType": "address",
					"name": "pool",
					"type": "address"
				}
			],
			"name": "PoolDeregistered",
			"type": "event"
		},
		{
			"anonymous": false,
			"inputs": [
				{
					"indexed": true,
					"internalType": "address",
					"name": "pool",
					"type": "address"
				}
			],
			"name": "PoolRegistered",
			"type": "event"
		},
		{
			"anonymous": false,
			"inputs": [
				{
					"indexed": true,
					"internalType": "address",
					"name": "pool",
					"type": "address"
				},
				{
					"indexed": false,
					"internalType": "uint256",
					"name": "reward",
					"type": "uint256"
				}
			],
			"name": "RewardAccrued",
			"type": "event"
		},
		{
			"anonymous": false,
			"inputs": [
				{
					"indexed": true,
					"internalType": "address",
					"name": "pool",
					"type": "address"
				},
				{
					"indexed": false,
					"internalType": "address",
					"name": "claimant",
					"type": "address"
				},
				{
					"indexed": false,
					"internalType": "uint256",
					"name": "reward",
					"type": "uint256"
				}
			],
			"name": "RewardClaimed",
			"type": "event"
		},
		{
			"inputs": [
				{
					"internalType": "address",
					"name": "pool",
					"type": "address"
				}
			],
			"name": "accrueRewards",
			"outputs": [],
			"stateMutability": "nonpayable",
			"type": "function"
		},
		{
			"inputs": [],
			"name": "apyManager",
			"outputs": [
				{
					"internalType": "contract IAdvancedAPYManager",
					"name": "",
					"type": "address"
				}
			],
			"stateMutability": "view",
			"type": "function"
		},
		{
			"inputs": [
				{
					"internalType": "address",
					"name": "pool",
					"type": "address"
				},
				{
					"internalType": "bool",
					"name": "isLender",
					"type": "bool"
				}
			],
			"name": "claimRewards",
			"outputs": [],
			"stateMutability": "nonpayable",
			"type": "function"
		},
		{
			"inputs": [
				{
					"internalType": "address",
					"name": "pool",
					"type": "address"
				}
			],
			"name": "deregisterPool",
			"outputs": [],
			"stateMutability": "nonpayable",
			"type": "function"
		},
		{
			"inputs": [
				{
					"internalType": "address",
					"name": "pool",
					"type": "address"
				},
				{
					"internalType": "address",
					"name": "rewardToken",
					"type": "address"
				},
				{
					"internalType": "bool",
					"name": "isFlashPool",
					"type": "bool"
				}
			],
			"name": "registerPool",
			"outputs": [],
			"stateMutability": "nonpayable",
			"type": "function"
		},
		{
			"inputs": [
				{
					"internalType": "address",
					"name": "",
					"type": "address"
				}
			],
			"name": "rewardDetails",
			"outputs": [
				{
					"internalType": "contract IERC20",
					"name": "rewardToken",
					"type": "address"
				},
				{
					"internalType": "uint256",
					"name": "rewardsAccrued",
					"type": "uint256"
				},
				{
					"internalType": "uint256",
					"name": "lastRewardBlock",
					"type": "uint256"
				},
				{
					"internalType": "uint256",
					"name": "rewardRate",
					"type": "uint256"
				},
				{
					"internalType": "uint256",
					"name": "totalInterestRewards",
					"type": "uint256"
				},
				{
					"internalType": "uint256",
					"name": "lenderClaimedRewards",
					"type": "uint256"
				},
				{
					"internalType": "uint256",
					"name": "borrowerClaimedRewards",
					"type": "uint256"
				},
				{
					"internalType": "bool",
					"name": "isFlashPool",
					"type": "bool"
				}
			],
			"stateMutability": "view",
			"type": "function"
		}
	]
}