{
	"data": {
		"bytecode": {
			"linkReferences": {},
			"object": "6080806040523461001a5760015f55610942908161001f8239f35b5f80fdfe6080604090808252600480361015610015575f80fd5b5f91823560e01c9081632552aa1f146106e1575080635997bb37146106c55780637286e5e5146105dd5780637e72c7d714610524578063978e08d7146103d7578063cf1724031461038f578063e5c8c572146102825763ef5cfb8c14610079575f80fd5b3461027e5760208060031936011261027a57610093610719565b600284541461023757600284556001600160a01b039081168085526001808452868620908101805492959293919084156101fe578790555416865184810163a9059cbb60e01b815286602483015284604483015260448252608082019167ffffffffffffffff92818110848211176101eb578a5251889182919082865af13d156101de573d9182116101cb57906101499189519161013a88601f19601f8401160184610749565b82523d898884013e5b8361077f565b80518581151591826101a6575b505090506101905750507f106f923f993c2149d49b4255ff723acafa1f2d94393f561d3eda32ae348f724192939451908152a26001815580f35b8651635274afe760e01b81529182015260249150fd5b83809293500103126101c7578401518015908115036101c75780855f610156565b8680fd5b634e487b7160e01b885260418452602488fd5b6101499150606090610143565b634e487b7160e01b8a526041865260248afd5b885162461bcd60e51b815280850187905260136024820152724e6f207265776172647320746f20636c61696d60681b6044820152606490fd5b845162461bcd60e51b8152808401839052601f60248201527f5265656e7472616e637947756172643a207265656e7472616e742063616c6c006044820152606490fd5b8280fd5b5080fd5b5082903461027a578160031936011261027a5761029d610719565b916102a6610733565b6001600160a01b039384169390841561034c571691821561030a57508284526001602090815281852080546001600160a01b0319168417905590519182527f327ea7ac6c8d64c471a5261e5af88d6da3caeb804a8a5f96f1c335815a4f331d91a280f35b6020606492519162461bcd60e51b8352820152601b60248201527f52657761726420746f6b656e2063616e6e6f74206265207a65726f00000000006044820152fd5b825162461bcd60e51b8152602081860152601b60248201527f506f6f6c20616464726573732063616e6e6f74206265207a65726f00000000006044820152606490fd5b5050346103d45760203660031901126103d4576001600160a01b03906001908390836103b9610719565b16815282602052209182541691015482519182526020820152f35b80fd5b50913461027e5760208060031936011261027a576001600160a01b036103fb610719565b169180516327a7d9a760e21b815282818781875afa90811561051a5785916104e0575b5060058110156104cd5760010361049457610438836107e2565b9083855260018352600181862001805490838201809211610481577f578afab8065b30a5e9827120e4905b8a1810e180d2f793ca54af6f7633f4e57a959697505551908152a280f35b634e487b7160e01b875260118852602487fd5b5162461bcd60e51b8152808501919091526013602482015272506f6f6c206973206e6f742070656e64696e6760681b6044820152606490fd5b634e487b7160e01b855260218652602485fd5b90508281813d8311610513575b6104f78183610749565b8101031261050f5751600581101561050f575f61041e565b8480fd5b503d6104ed565b82513d87823e3d90fd5b50823461027a57602036600319011261027a576001600160a01b03610547610719565b1691821561058f5750816020917f334d0b2111287dfddebe4b4c1c5af3ae644909d7fcd024377bf601e236ed5abb93855260018352846001828220828155015551908152a180f35b6020608492519162461bcd60e51b8352820152602360248201527f4e6f20706f6f6c207265676973746572656420666f722074686973206164647260448201526265737360e81b6064820152fd5b50913461027e578060031936011261027e576105f7610719565b90610600610733565b916001600160a01b0390811691821515806106ba575b156106845780519381850185811067ffffffffffffffff8211176106715792829160019594829452168552602085019286845286528360205285209351166bffffffffffffffffffffffff60a01b8454161783555191015580f35b634e487b7160e01b875260418852602487fd5b5162461bcd60e51b81526020818701526011602482015270496e76616c69642061646472657373657360781b6044820152606490fd5b508184161515610616565b82843461027e578160031936011261027e576020905160648152f35b8390853461027a57602036600319011261027a57602092600191906001600160a01b0361070c610719565b1681528285522001548152f35b600435906001600160a01b038216820361072f57565b5f80fd5b602435906001600160a01b038216820361072f57565b90601f8019910116810190811067ffffffffffffffff82111761076b57604052565b634e487b7160e01b5f52604160045260245ffd5b906107a6575080511561079457805190602001fd5b604051630a12f52160e11b8152600490fd5b815115806107d9575b6107b7575090565b604051639996b31560e01b81526001600160a01b039091166004820152602490fd5b50803b156107af565b604051632e1283e360e01b81526020916001600160a01b0316908281600481855afa9081156108c3575f916108df575b50801580156108d5575b6108ce57430391438311610883578060049260405193848092631e96036360e31b82525afa9081156108c3575f91610897575b5090508181029181830414901517156108835760648102908082046064149015171561088357670de0b6b3a7640000900490565b634e487b7160e01b5f52601160045260245ffd5b82813d83116108bc575b6108ab8183610749565b810103126103d4575051805f61084f565b503d6108a1565b6040513d5f823e3d90fd5b5050505f90565b508043111561081c565b908382813d8311610905575b6108f58183610749565b810103126103d45750515f610812565b503d6108eb56fea2646970667358221220fe5b4cb6b4a8996e52558b07696130820a8fba04fd6ba836e17c0211af91652064736f6c63430008140033",
			"opcodes": "PUSH1 0x80 DUP1 PUSH1 0x40 MSTORE CALLVALUE PUSH2 0x1A JUMPI PUSH1 0x1 PUSH0 SSTORE PUSH2 0x942 SWAP1 DUP2 PUSH2 0x1F DUP3 CODECOPY RETURN JUMPDEST PUSH0 DUP1 REVERT INVALID PUSH1 0x80 PUSH1 0x40 SWAP1 DUP1 DUP3 MSTORE PUSH1 0x4 DUP1 CALLDATASIZE LT ISZERO PUSH2 0x15 JUMPI PUSH0 DUP1 REVERT JUMPDEST PUSH0 SWAP2 DUP3 CALLDATALOAD PUSH1 0xE0 SHR SWAP1 DUP2 PUSH4 0x2552AA1F EQ PUSH2 0x6E1 JUMPI POP DUP1 PUSH4 0x5997BB37 EQ PUSH2 0x6C5 JUMPI DUP1 PUSH4 0x7286E5E5 EQ PUSH2 0x5DD JUMPI DUP1 PUSH4 0x7E72C7D7 EQ PUSH2 0x524 JUMPI DUP1 PUSH4 0x978E08D7 EQ PUSH2 0x3D7 JUMPI DUP1 PUSH4 0xCF172403 EQ PUSH2 0x38F JUMPI DUP1 PUSH4 0xE5C8C572 EQ PUSH2 0x282 JUMPI PUSH4 0xEF5CFB8C EQ PUSH2 0x79 JUMPI PUSH0 DUP1 REVERT JUMPDEST CALLVALUE PUSH2 0x27E JUMPI PUSH1 0x20 DUP1 PUSH1 0x3 NOT CALLDATASIZE ADD SLT PUSH2 0x27A JUMPI PUSH2 0x93 PUSH2 0x719 JUMP JUMPDEST PUSH1 0x2 DUP5 SLOAD EQ PUSH2 0x237 JUMPI PUSH1 0x2 DUP5 SSTORE PUSH1 0x1 PUSH1 0x1 PUSH1 0xA0 SHL SUB SWAP1 DUP2 AND DUP1 DUP6 MSTORE PUSH1 0x1 DUP1 DUP5 MSTORE DUP7 DUP7 KECCAK256 SWAP1 DUP2 ADD DUP1 SLOAD SWAP3 SWAP6 SWAP3 SWAP4 SWAP2 SWAP1 DUP5 ISZERO PUSH2 0x1FE JUMPI DUP8 SWAP1 SSTORE SLOAD AND DUP7 MLOAD DUP5 DUP2 ADD PUSH4 0xA9059CBB PUSH1 0xE0 SHL DUP2 MSTORE DUP7 PUSH1 0x24 DUP4 ADD MSTORE DUP5 PUSH1 0x44 DUP4 ADD MSTORE PUSH1 0x44 DUP3 MSTORE PUSH1 0x80 DUP3 ADD SWAP2 PUSH8 0xFFFFFFFFFFFFFFFF SWAP3 DUP2 DUP2 LT DUP5 DUP3 GT OR PUSH2 0x1EB JUMPI DUP11 MSTORE MLOAD DUP9 SWAP2 DUP3 SWAP2 SWAP1 DUP3 DUP7 GAS CALL RETURNDATASIZE ISZERO PUSH2 0x1DE JUMPI RETURNDATASIZE SWAP2 DUP3 GT PUSH2 0x1CB JUMPI SWAP1 PUSH2 0x149 SWAP2 DUP10 MLOAD SWAP2 PUSH2 0x13A DUP9 PUSH1 0x1F NOT PUSH1 0x1F DUP5 ADD AND ADD DUP5 PUSH2 0x749 JUMP JUMPDEST DUP3 MSTORE RETURNDATASIZE DUP10 DUP9 DUP5 ADD RETURNDATACOPY JUMPDEST DUP4 PUSH2 0x77F JUMP JUMPDEST DUP1 MLOAD DUP6 DUP2 ISZERO ISZERO SWAP2 DUP3 PUSH2 0x1A6 JUMPI JUMPDEST POP POP SWAP1 POP PUSH2 0x190 JUMPI POP POP PUSH32 0x106F923F993C2149D49B4255FF723ACAFA1F2D94393F561D3EDA32AE348F7241 SWAP3 SWAP4 SWAP5 MLOAD SWAP1 DUP2 MSTORE LOG2 PUSH1 0x1 DUP2 SSTORE DUP1 RETURN JUMPDEST DUP7 MLOAD PUSH4 0x5274AFE7 PUSH1 0xE0 SHL DUP2 MSTORE SWAP2 DUP3 ADD MSTORE PUSH1 0x24 SWAP2 POP REVERT JUMPDEST DUP4 DUP1 SWAP3 SWAP4 POP ADD SUB SLT PUSH2 0x1C7 JUMPI DUP5 ADD MLOAD DUP1 ISZERO SWAP1 DUP2 ISZERO SUB PUSH2 0x1C7 JUMPI DUP1 DUP6 PUSH0 PUSH2 0x156 JUMP JUMPDEST DUP7 DUP1 REVERT JUMPDEST PUSH4 0x4E487B71 PUSH1 0xE0 SHL DUP9 MSTORE PUSH1 0x41 DUP5 MSTORE PUSH1 0x24 DUP9 REVERT JUMPDEST PUSH2 0x149 SWAP2 POP PUSH1 0x60 SWAP1 PUSH2 0x143 JUMP JUMPDEST PUSH4 0x4E487B71 PUSH1 0xE0 SHL DUP11 MSTORE PUSH1 0x41 DUP7 MSTORE PUSH1 0x24 DUP11 REVERT JUMPDEST DUP9 MLOAD PUSH3 0x461BCD PUSH1 0xE5 SHL DUP2 MSTORE DUP1 DUP6 ADD DUP8 SWAP1 MSTORE PUSH1 0x13 PUSH1 0x24 DUP3 ADD MSTORE PUSH19 0x4E6F207265776172647320746F20636C61696D PUSH1 0x68 SHL PUSH1 0x44 DUP3 ADD MSTORE PUSH1 0x64 SWAP1 REVERT JUMPDEST DUP5 MLOAD PUSH3 0x461BCD PUSH1 0xE5 SHL DUP2 MSTORE DUP1 DUP5 ADD DUP4 SWAP1 MSTORE PUSH1 0x1F PUSH1 0x24 DUP3 ADD MSTORE PUSH32 0x5265656E7472616E637947756172643A207265656E7472616E742063616C6C00 PUSH1 0x44 DUP3 ADD MSTORE PUSH1 0x64 SWAP1 REVERT JUMPDEST DUP3 DUP1 REVERT JUMPDEST POP DUP1 REVERT JUMPDEST POP DUP3 SWAP1 CALLVALUE PUSH2 0x27A JUMPI DUP2 PUSH1 0x3 NOT CALLDATASIZE ADD SLT PUSH2 0x27A JUMPI PUSH2 0x29D PUSH2 0x719 JUMP JUMPDEST SWAP2 PUSH2 0x2A6 PUSH2 0x733 JUMP JUMPDEST PUSH1 0x1 PUSH1 0x1 PUSH1 0xA0 SHL SUB SWAP4 DUP5 AND SWAP4 SWAP1 DUP5 ISZERO PUSH2 0x34C JUMPI AND SWAP2 DUP3 ISZERO PUSH2 0x30A JUMPI POP DUP3 DUP5 MSTORE PUSH1 0x1 PUSH1 0x20 SWAP1 DUP2 MSTORE DUP2 DUP6 KECCAK256 DUP1 SLOAD PUSH1 0x1 PUSH1 0x1 PUSH1 0xA0 SHL SUB NOT AND DUP5 OR SWAP1 SSTORE SWAP1 MLOAD SWAP2 DUP3 MSTORE PUSH32 0x327EA7AC6C8D64C471A5261E5AF88D6DA3CAEB804A8A5F96F1C335815A4F331D SWAP2 LOG2 DUP1 RETURN JUMPDEST PUSH1 0x20 PUSH1 0x64 SWAP3 MLOAD SWAP2 PUSH3 0x461BCD PUSH1 0xE5 SHL DUP4 MSTORE DUP3 ADD MSTORE PUSH1 0x1B PUSH1 0x24 DUP3 ADD MSTORE PUSH32 0x52657761726420746F6B656E2063616E6E6F74206265207A65726F0000000000 PUSH1 0x44 DUP3 ADD MSTORE REVERT JUMPDEST DUP3 MLOAD PUSH3 0x461BCD PUSH1 0xE5 SHL DUP2 MSTORE PUSH1 0x20 DUP2 DUP7 ADD MSTORE PUSH1 0x1B PUSH1 0x24 DUP3 ADD MSTORE PUSH32 0x506F6F6C20616464726573732063616E6E6F74206265207A65726F0000000000 PUSH1 0x44 DUP3 ADD MSTORE PUSH1 0x64 SWAP1 REVERT JUMPDEST POP POP CALLVALUE PUSH2 0x3D4 JUMPI PUSH1 0x20 CALLDATASIZE PUSH1 0x3 NOT ADD SLT PUSH2 0x3D4 JUMPI PUSH1 0x1 PUSH1 0x1 PUSH1 0xA0 SHL SUB SWAP1 PUSH1 0x1 SWAP1 DUP4 SWAP1 DUP4 PUSH2 0x3B9 PUSH2 0x719 JUMP JUMPDEST AND DUP2 MSTORE DUP3 PUSH1 0x20 MSTORE KECCAK256 SWAP2 DUP3 SLOAD AND SWAP2 ADD SLOAD DUP3 MLOAD SWAP2 DUP3 MSTORE PUSH1 0x20 DUP3 ADD MSTORE RETURN JUMPDEST DUP1 REVERT JUMPDEST POP SWAP2 CALLVALUE PUSH2 0x27E JUMPI PUSH1 0x20 DUP1 PUSH1 0x3 NOT CALLDATASIZE ADD SLT PUSH2 0x27A JUMPI PUSH1 0x1 PUSH1 0x1 PUSH1 0xA0 SHL SUB PUSH2 0x3FB PUSH2 0x719 JUMP JUMPDEST AND SWAP2 DUP1 MLOAD PUSH4 0x27A7D9A7 PUSH1 0xE2 SHL DUP2 MSTORE DUP3 DUP2 DUP8 DUP2 DUP8 GAS STATICCALL SWAP1 DUP2 ISZERO PUSH2 0x51A JUMPI DUP6 SWAP2 PUSH2 0x4E0 JUMPI JUMPDEST POP PUSH1 0x5 DUP2 LT ISZERO PUSH2 0x4CD JUMPI PUSH1 0x1 SUB PUSH2 0x494 JUMPI PUSH2 0x438 DUP4 PUSH2 0x7E2 JUMP JUMPDEST SWAP1 DUP4 DUP6 MSTORE PUSH1 0x1 DUP4 MSTORE PUSH1 0x1 DUP2 DUP7 KECCAK256 ADD DUP1 SLOAD SWAP1 DUP4 DUP3 ADD DUP1 SWAP3 GT PUSH2 0x481 JUMPI PUSH32 0x578AFAB8065B30A5E9827120E4905B8A1810E180D2F793CA54AF6F7633F4E57A SWAP6 SWAP7 SWAP8 POP SSTORE MLOAD SWAP1 DUP2 MSTORE LOG2 DUP1 RETURN JUMPDEST PUSH4 0x4E487B71 PUSH1 0xE0 SHL DUP8 MSTORE PUSH1 0x11 DUP9 MSTORE PUSH1 0x24 DUP8 REVERT JUMPDEST MLOAD PUSH3 0x461BCD PUSH1 0xE5 SHL DUP2 MSTORE DUP1 DUP6 ADD SWAP2 SWAP1 SWAP2 MSTORE PUSH1 0x13 PUSH1 0x24 DUP3 ADD MSTORE PUSH19 0x506F6F6C206973206E6F742070656E64696E67 PUSH1 0x68 SHL PUSH1 0x44 DUP3 ADD MSTORE PUSH1 0x64 SWAP1 REVERT JUMPDEST PUSH4 0x4E487B71 PUSH1 0xE0 SHL DUP6 MSTORE PUSH1 0x21 DUP7 MSTORE PUSH1 0x24 DUP6 REVERT JUMPDEST SWAP1 POP DUP3 DUP2 DUP2 RETURNDATASIZE DUP4 GT PUSH2 0x513 JUMPI JUMPDEST PUSH2 0x4F7 DUP2 DUP4 PUSH2 0x749 JUMP JUMPDEST DUP2 ADD SUB SLT PUSH2 0x50F JUMPI MLOAD PUSH1 0x5 DUP2 LT ISZERO PUSH2 0x50F JUMPI PUSH0 PUSH2 0x41E JUMP JUMPDEST DUP5 DUP1 REVERT JUMPDEST POP RETURNDATASIZE PUSH2 0x4ED JUMP JUMPDEST DUP3 MLOAD RETURNDATASIZE DUP8 DUP3 RETURNDATACOPY RETURNDATASIZE SWAP1 REVERT JUMPDEST POP DUP3 CALLVALUE PUSH2 0x27A JUMPI PUSH1 0x20 CALLDATASIZE PUSH1 0x3 NOT ADD SLT PUSH2 0x27A JUMPI PUSH1 0x1 PUSH1 0x1 PUSH1 0xA0 SHL SUB PUSH2 0x547 PUSH2 0x719 JUMP JUMPDEST AND SWAP2 DUP3 ISZERO PUSH2 0x58F JUMPI POP DUP2 PUSH1 0x20 SWAP2 PUSH32 0x334D0B2111287DFDDEBE4B4C1C5AF3AE644909D7FCD024377BF601E236ED5ABB SWAP4 DUP6 MSTORE PUSH1 0x1 DUP4 MSTORE DUP5 PUSH1 0x1 DUP3 DUP3 KECCAK256 DUP3 DUP2 SSTORE ADD SSTORE MLOAD SWAP1 DUP2 MSTORE LOG1 DUP1 RETURN JUMPDEST PUSH1 0x20 PUSH1 0x84 SWAP3 MLOAD SWAP2 PUSH3 0x461BCD PUSH1 0xE5 SHL DUP4 MSTORE DUP3 ADD MSTORE PUSH1 0x23 PUSH1 0x24 DUP3 ADD MSTORE PUSH32 0x4E6F20706F6F6C207265676973746572656420666F7220746869732061646472 PUSH1 0x44 DUP3 ADD MSTORE PUSH3 0x657373 PUSH1 0xE8 SHL PUSH1 0x64 DUP3 ADD MSTORE REVERT JUMPDEST POP SWAP2 CALLVALUE PUSH2 0x27E JUMPI DUP1 PUSH1 0x3 NOT CALLDATASIZE ADD SLT PUSH2 0x27E JUMPI PUSH2 0x5F7 PUSH2 0x719 JUMP JUMPDEST SWAP1 PUSH2 0x600 PUSH2 0x733 JUMP JUMPDEST SWAP2 PUSH1 0x1 PUSH1 0x1 PUSH1 0xA0 SHL SUB SWAP1 DUP2 AND SWAP2 DUP3 ISZERO ISZERO DUP1 PUSH2 0x6BA JUMPI JUMPDEST ISZERO PUSH2 0x684 JUMPI DUP1 MLOAD SWAP4 DUP2 DUP6 ADD DUP6 DUP2 LT PUSH8 0xFFFFFFFFFFFFFFFF DUP3 GT OR PUSH2 0x671 JUMPI SWAP3 DUP3 SWAP2 PUSH1 0x1 SWAP6 SWAP5 DUP3 SWAP5 MSTORE AND DUP6 MSTORE PUSH1 0x20 DUP6 ADD SWAP3 DUP7 DUP5 MSTORE DUP7 MSTORE DUP4 PUSH1 0x20 MSTORE DUP6 KECCAK256 SWAP4 MLOAD AND PUSH12 0xFFFFFFFFFFFFFFFFFFFFFFFF PUSH1 0xA0 SHL DUP5 SLOAD AND OR DUP4 SSTORE MLOAD SWAP2 ADD SSTORE DUP1 RETURN JUMPDEST PUSH4 0x4E487B71 PUSH1 0xE0 SHL DUP8 MSTORE PUSH1 0x41 DUP9 MSTORE PUSH1 0x24 DUP8 REVERT JUMPDEST MLOAD PUSH3 0x461BCD PUSH1 0xE5 SHL DUP2 MSTORE PUSH1 0x20 DUP2 DUP8 ADD MSTORE PUSH1 0x11 PUSH1 0x24 DUP3 ADD MSTORE PUSH17 0x496E76616C696420616464726573736573 PUSH1 0x78 SHL PUSH1 0x44 DUP3 ADD MSTORE PUSH1 0x64 SWAP1 REVERT JUMPDEST POP DUP2 DUP5 AND ISZERO ISZERO PUSH2 0x616 JUMP JUMPDEST DUP3 DUP5 CALLVALUE PUSH2 0x27E JUMPI DUP2 PUSH1 0x3 NOT CALLDATASIZE ADD SLT PUSH2 0x27E JUMPI PUSH1 0x20 SWAP1 MLOAD PUSH1 0x64 DUP2 MSTORE RETURN JUMPDEST DUP4 SWAP1 DUP6 CALLVALUE PUSH2 0x27A JUMPI PUSH1 0x20 CALLDATASIZE PUSH1 0x3 NOT ADD SLT PUSH2 0x27A JUMPI PUSH1 0x20 SWAP3 PUSH1 0x1 SWAP2 SWAP1 PUSH1 0x1 PUSH1 0x1 PUSH1 0xA0 SHL SUB PUSH2 0x70C PUSH2 0x719 JUMP JUMPDEST AND DUP2 MSTORE DUP3 DUP6 MSTORE KECCAK256 ADD SLOAD DUP2 MSTORE RETURN JUMPDEST PUSH1 0x4 CALLDATALOAD SWAP1 PUSH1 0x1 PUSH1 0x1 PUSH1 0xA0 SHL SUB DUP3 AND DUP3 SUB PUSH2 0x72F JUMPI JUMP JUMPDEST PUSH0 DUP1 REVERT JUMPDEST PUSH1 0x24 CALLDATALOAD SWAP1 PUSH1 0x1 PUSH1 0x1 PUSH1 0xA0 SHL SUB DUP3 AND DUP3 SUB PUSH2 0x72F JUMPI JUMP JUMPDEST SWAP1 PUSH1 0x1F DUP1 NOT SWAP2 ADD AND DUP2 ADD SWAP1 DUP2 LT PUSH8 0xFFFFFFFFFFFFFFFF DUP3 GT OR PUSH2 0x76B JUMPI PUSH1 0x40 MSTORE JUMP JUMPDEST PUSH4 0x4E487B71 PUSH1 0xE0 SHL PUSH0 MSTORE PUSH1 0x41 PUSH1 0x4 MSTORE PUSH1 0x24 PUSH0 REVERT JUMPDEST SWAP1 PUSH2 0x7A6 JUMPI POP DUP1 MLOAD ISZERO PUSH2 0x794 JUMPI DUP1 MLOAD SWAP1 PUSH1 0x20 ADD REVERT JUMPDEST PUSH1 0x40 MLOAD PUSH4 0xA12F521 PUSH1 0xE1 SHL DUP2 MSTORE PUSH1 0x4 SWAP1 REVERT JUMPDEST DUP2 MLOAD ISZERO DUP1 PUSH2 0x7D9 JUMPI JUMPDEST PUSH2 0x7B7 JUMPI POP SWAP1 JUMP JUMPDEST PUSH1 0x40 MLOAD PUSH4 0x9996B315 PUSH1 0xE0 SHL DUP2 MSTORE PUSH1 0x1 PUSH1 0x1 PUSH1 0xA0 SHL SUB SWAP1 SWAP2 AND PUSH1 0x4 DUP3 ADD MSTORE PUSH1 0x24 SWAP1 REVERT JUMPDEST POP DUP1 EXTCODESIZE ISZERO PUSH2 0x7AF JUMP JUMPDEST PUSH1 0x40 MLOAD PUSH4 0x2E1283E3 PUSH1 0xE0 SHL DUP2 MSTORE PUSH1 0x20 SWAP2 PUSH1 0x1 PUSH1 0x1 PUSH1 0xA0 SHL SUB AND SWAP1 DUP3 DUP2 PUSH1 0x4 DUP2 DUP6 GAS STATICCALL SWAP1 DUP2 ISZERO PUSH2 0x8C3 JUMPI PUSH0 SWAP2 PUSH2 0x8DF JUMPI JUMPDEST POP DUP1 ISZERO DUP1 ISZERO PUSH2 0x8D5 JUMPI JUMPDEST PUSH2 0x8CE JUMPI NUMBER SUB SWAP2 NUMBER DUP4 GT PUSH2 0x883 JUMPI DUP1 PUSH1 0x4 SWAP3 PUSH1 0x40 MLOAD SWAP4 DUP5 DUP1 SWAP3 PUSH4 0x1E960363 PUSH1 0xE3 SHL DUP3 MSTORE GAS STATICCALL SWAP1 DUP2 ISZERO PUSH2 0x8C3 JUMPI PUSH0 SWAP2 PUSH2 0x897 JUMPI JUMPDEST POP SWAP1 POP DUP2 DUP2 MUL SWAP2 DUP2 DUP4 DIV EQ SWAP1 ISZERO OR ISZERO PUSH2 0x883 JUMPI PUSH1 0x64 DUP2 MUL SWAP1 DUP1 DUP3 DIV PUSH1 0x64 EQ SWAP1 ISZERO OR ISZERO PUSH2 0x883 JUMPI PUSH8 0xDE0B6B3A7640000 SWAP1 DIV SWAP1 JUMP JUMPDEST PUSH4 0x4E487B71 PUSH1 0xE0 SHL PUSH0 MSTORE PUSH1 0x11 PUSH1 0x4 MSTORE PUSH1 0x24 PUSH0 REVERT JUMPDEST DUP3 DUP2 RETURNDATASIZE DUP4 GT PUSH2 0x8BC JUMPI JUMPDEST PUSH2 0x8AB DUP2 DUP4 PUSH2 0x749 JUMP JUMPDEST DUP2 ADD SUB SLT PUSH2 0x3D4 JUMPI POP MLOAD DUP1 PUSH0 PUSH2 0x84F JUMP JUMPDEST POP RETURNDATASIZE PUSH2 0x8A1 JUMP JUMPDEST PUSH1 0x40 MLOAD RETURNDATASIZE PUSH0 DUP3 RETURNDATACOPY RETURNDATASIZE SWAP1 REVERT JUMPDEST POP POP POP PUSH0 SWAP1 JUMP JUMPDEST POP DUP1 NUMBER GT ISZERO PUSH2 0x81C JUMP JUMPDEST SWAP1 DUP4 DUP3 DUP2 RETURNDATASIZE DUP4 GT PUSH2 0x905 JUMPI JUMPDEST PUSH2 0x8F5 DUP2 DUP4 PUSH2 0x749 JUMP JUMPDEST DUP2 ADD SUB SLT PUSH2 0x3D4 JUMPI POP MLOAD PUSH0 PUSH2 0x812 JUMP JUMPDEST POP RETURNDATASIZE PUSH2 0x8EB JUMP INVALID LOG2 PUSH5 0x6970667358 0x22 SLT KECCAK256 INVALID JUMPDEST 0x4C 0xB6 0xB4 0xA8 SWAP10 PUSH15 0x52558B07696130820A8FBA04FD6BA8 CALLDATASIZE 0xE1 PUSH29 0x211AF91652064736F6C63430008140033000000000000000000000000 "
		},
		"gasEstimates": {
			"creation": {
				"codeDepositCost": "474000",
				"executionCost": "22624",
				"totalCost": "496624"
			},
			"external": {
				"REWARD_RATE()": "197",
				"accrueReward(address)": "infinite",
				"claimRewards(address)": "infinite",
				"deregisterPool(address)": "11451",
				"getAccruedRewards(address)": "2430",
				"registerPool(address,address)": "29864",
				"rewardDetails(address)": "4676",
				"setRewardToken(address,address)": "26226"
			},
			"internal": {
				"calculateReward(contract TuliaPool)": "infinite"
			}
		},
		"methodIdentifiers": {
			"REWARD_RATE()": "5997bb37",
			"accrueReward(address)": "978e08d7",
			"claimRewards(address)": "ef5cfb8c",
			"deregisterPool(address)": "7e72c7d7",
			"getAccruedRewards(address)": "2552aa1f",
			"registerPool(address,address)": "7286e5e5",
			"rewardDetails(address)": "cf172403",
			"setRewardToken(address,address)": "e5c8c572"
		}
	},
	"abi": [
		{
			"inputs": [
				{
					"internalType": "address",
					"name": "target",
					"type": "address"
				}
			],
			"name": "AddressEmptyCode",
			"type": "error"
		},
		{
			"inputs": [
				{
					"internalType": "address",
					"name": "account",
					"type": "address"
				}
			],
			"name": "AddressInsufficientBalance",
			"type": "error"
		},
		{
			"inputs": [],
			"name": "FailedInnerCall",
			"type": "error"
		},
		{
			"inputs": [
				{
					"internalType": "address",
					"name": "token",
					"type": "address"
				}
			],
			"name": "SafeERC20FailedOperation",
			"type": "error"
		},
		{
			"anonymous": false,
			"inputs": [
				{
					"indexed": false,
					"internalType": "address",
					"name": "pool",
					"type": "address"
				}
			],
			"name": "PoolDeregistered",
			"type": "event"
		},
		{
			"anonymous": false,
			"inputs": [
				{
					"indexed": true,
					"internalType": "address",
					"name": "pool",
					"type": "address"
				},
				{
					"indexed": false,
					"internalType": "uint256",
					"name": "reward",
					"type": "uint256"
				}
			],
			"name": "RewardAccrued",
			"type": "event"
		},
		{
			"anonymous": false,
			"inputs": [
				{
					"indexed": true,
					"internalType": "address",
					"name": "pool",
					"type": "address"
				},
				{
					"indexed": false,
					"internalType": "uint256",
					"name": "reward",
					"type": "uint256"
				}
			],
			"name": "RewardClaimed",
			"type": "event"
		},
		{
			"anonymous": false,
			"inputs": [
				{
					"indexed": true,
					"internalType": "address",
					"name": "pool",
					"type": "address"
				},
				{
					"indexed": false,
					"internalType": "address",
					"name": "rewardToken",
					"type": "address"
				}
			],
			"name": "RewardTokenSet",
			"type": "event"
		},
		{
			"inputs": [],
			"name": "REWARD_RATE",
			"outputs": [
				{
					"internalType": "uint256",
					"name": "",
					"type": "uint256"
				}
			],
			"stateMutability": "view",
			"type": "function"
		},
		{
			"inputs": [
				{
					"internalType": "address",
					"name": "pool",
					"type": "address"
				}
			],
			"name": "accrueReward",
			"outputs": [],
			"stateMutability": "nonpayable",
			"type": "function"
		},
		{
			"inputs": [
				{
					"internalType": "address",
					"name": "pool",
					"type": "address"
				}
			],
			"name": "claimRewards",
			"outputs": [],
			"stateMutability": "nonpayable",
			"type": "function"
		},
		{
			"inputs": [
				{
					"internalType": "address",
					"name": "pool",
					"type": "address"
				}
			],
			"name": "deregisterPool",
			"outputs": [],
			"stateMutability": "nonpayable",
			"type": "function"
		},
		{
			"inputs": [
				{
					"internalType": "address",
					"name": "pool",
					"type": "address"
				}
			],
			"name": "getAccruedRewards",
			"outputs": [
				{
					"internalType": "uint256",
					"name": "reward",
					"type": "uint256"
				}
			],
			"stateMutability": "view",
			"type": "function"
		},
		{
			"inputs": [
				{
					"internalType": "address",
					"name": "pool",
					"type": "address"
				},
				{
					"internalType": "address",
					"name": "rewardToken",
					"type": "address"
				}
			],
			"name": "registerPool",
			"outputs": [],
			"stateMutability": "nonpayable",
			"type": "function"
		},
		{
			"inputs": [
				{
					"internalType": "address",
					"name": "",
					"type": "address"
				}
			],
			"name": "rewardDetails",
			"outputs": [
				{
					"internalType": "contract IERC20",
					"name": "rewardToken",
					"type": "address"
				},
				{
					"internalType": "uint256",
					"name": "rewardsAccrued",
					"type": "uint256"
				}
			],
			"stateMutability": "view",
			"type": "function"
		},
		{
			"inputs": [
				{
					"internalType": "address",
					"name": "pool",
					"type": "address"
				},
				{
					"internalType": "address",
					"name": "rewardToken",
					"type": "address"
				}
			],
			"name": "setRewardToken",
			"outputs": [],
			"stateMutability": "nonpayable",
			"type": "function"
		}
	]
}