{
	"data": {
		"bytecode": {
			"linkReferences": {},
			"object": "60803460be57601f610eaf38819003918201601f19168301916001600160401b0383118484101760c25780849260209460405283398101031260be57516001600160a01b0381169081900360be5760015f558015607957600180546001600160a01b031916919091179055604051610dd890816100d78239f35b60405162461bcd60e51b815260206004820152601b60248201527f496e76616c696420415059206d616e61676572206164647265737300000000006044820152606490fd5b5f80fd5b634e487b7160e01b5f52604160045260245ffdfe6080806040526004361015610012575f80fd5b5f905f3560e01c90816301ec2d031461087e5750806306846e051461077a5780633d39955c14610757578063491c011a146104d25780637286e5e5146103615780637e72c7d71461029d578063a4cf325214610265578063cf172403146101bf5763d919007e14610081575f80fd5b346101bc5760203660031901126101bc576040610120916100a06108a1565b8161010084516100af8161093c565b82815282602082015282868201528260608201528260808201528260a08201528260c08201528260e0820152015260018060a01b03168152600260205220604051906100fa8261093c565b60018060a01b0381541691828152600182015491602082019283526002810154604083019081526003820154606084019081526004830154906080850191825260058401549260a08601938452600760068601549560c0880196875201549660ff61010060e089019860018060a01b038b168a52019860a01c16151588526040519889525160208901525160408801525160608701525160808601525160a08501525160c084015260018060a01b0390511660e0830152511515610100820152f35b80fd5b50346101bc5760203660031901126101bc57610120906040906001600160a01b036101e86108a1565b16815260026020522060ff60018060a01b0382541691600181015490600281015460038201546004830154906005840154926007600686015495015495604051988952602089015260408801526060870152608086015260a085015260c084015260018060a01b03811660e084015260a01c161515610100820152f35b50346101bc57610295602091604061027c366108cd565b6001600160a01b03821684526002865291909220610bdd565b604051908152f35b50346101bc5760203660031901126101bc576001600160a01b036102bf6108a1565b1680156103255780825260026020528160076040822082815582600182015582600282015582600382015582600482015582600582015582600682015501557f334d0b2111287dfddebe4b4c1c5af3ae644909d7fcd024377bf601e236ed5abb8280a280f35b60405162461bcd60e51b8152602060048201526014602482015273496e76616c696420706f6f6c206164647265737360601b6044820152606490fd5b50346101bc5760403660031901126101bc5761037b6108a1565b6103836108b7565b6001600160a01b0390911690811515806104c0575b6103a1906108fc565b604051906103ae8261093c565b60018060a01b031681526020810183815260076040830192438452606081018681526080820187815260a083019088825260c084019289845260e08501978a8952610100860197600189528a8c52600260205260408c209660018060a01b039060018060a01b03905116166bffffffffffffffffffffffff60a01b885416178755516001870155516002860155516003850155516004840155516005830155516006820155019160018060a01b039060018060a01b03905116166bffffffffffffffffffffffff60a01b83541617825551151581549060ff60a01b9060a01b169060ff60a01b19161790557f9cc152f4650ca2829a210a21551537f4cc4d48c2611ec06974f835e911921b908280a280f35b506001600160a01b0381161515610398565b5034610658576104e1366108cd565b60025f54146107485760025f556104f7826109ee565b6001600160a01b0382165f818152600260205260409020909290821561073457604051639861f3e560e01b8152602081600481885afa90811561064d575f916106f2575b50915b6001600160a01b03831633036106ad5761056490855f5260026020528460405f20610bdd565b928315610672571561065c576005810161057f8482546109e1565b90555b546001600160a01b0316803b15610658576040516340c10f1960e01b81526001600160a01b038316600482015260248101849052905f908290604490829084905af1801561064d57610615575b50604080516001600160a01b0392909216825260208201929092527f0aa4d283470c904c551d18bb894d37e17674920f3261a7f854be501e25f421b79190a26001815580f35b7f0aa4d283470c904c551d18bb894d37e17674920f3261a7f854be501e25f421b7929194505f6106449161096d565b5f9390916105cf565b6040513d5f823e3d90fd5b5f80fd5b6006810161066b8482546109e1565b9055610582565b60405162461bcd60e51b81526020600482015260136024820152724e6f207265776172647320746f20636c61696d60681b6044820152606490fd5b60405162461bcd60e51b815260206004820152601f60248201527f4e6f7420617574686f72697a656420746f20636c61696d2072657761726473006044820152606490fd5b90506020813d60201161072c575b8161070d6020938361096d565b8101031261065857516001600160a01b0381168103610658575f61053b565b3d9150610700565b60078101546001600160a01b03169161053e565b633ee5aeb560e01b5f5260045ffd5b34610658576020366003190112610658576107786107736108a1565b6109ee565b005b34610658576040366003190112610658576107936108a1565b61079b6108b7565b6001600160a01b038216918215158061086c575b6107b8906108fc565b5f83815260026020526040902060070180549091906001600160a01b0316610827576107e3906109ee565b80546001600160a01b0319166001600160a01b03929092169182179055907f07fad9689e3b8836401d45a3613710f4272517a3675a0b3006d6b80e57c51e705f80a3005b60405162461bcd60e51b815260206004820152601b60248201527f426f72726f77657220616c7265616479207265676973746572656400000000006044820152606490fd5b506001600160a01b03821615156107af565b34610658575f366003190112610658576001546001600160a01b03168152602090f35b600435906001600160a01b038216820361065857565b602435906001600160a01b038216820361065857565b6040906003190112610658576004356001600160a01b0381168103610658579060243580151581036106585790565b1561090357565b60405162461bcd60e51b8152602060048201526011602482015270496e76616c69642061646472657373657360781b6044820152606490fd5b610120810190811067ffffffffffffffff82111761095957604052565b634e487b7160e01b5f52604160045260245ffd5b90601f8019910116810190811067ffffffffffffffff82111761095957604052565b818102929181159184041417156109a257565b634e487b7160e01b5f52601160045260245ffd5b81156109c0570490565b634e487b7160e01b5f52601260045260245ffd5b919082039182116109a257565b919082018092116109a257565b6001600160a01b03165f818152600260205260409020600781015460a01c60ff1615610bd957604051631e96036360e31b815290602082600481865afa91821561064d575f92610ba5575b5060405163019312fb60e61b815291602083600481875afa92831561064d575f93610b71575b50600154604051635c39ccad60e11b8152600481018390526024810185905290602090829060449082906001600160a01b03165afa90811561064d575f91610b19575b507f578afab8065b30a5e9827120e4905b8a1810e180d2f793ca54af6f7633f4e57a93612710610ad860209594610ade9461098f565b046109b6565b60036002830192610af983610af48654436109d4565b61098f565b9360018201610b098682546109e1565b90554390550155604051908152a2565b90506020929192813d602011610b69575b81610b376020938361096d565b8101031261065857519091907f578afab8065b30a5e9827120e4905b8a1810e180d2f793ca54af6f7633f4e57a610aa2565b3d9150610b2a565b9092506020813d602011610b9d575b81610b8d6020938361096d565b810103126106585751915f610a5f565b3d9150610b80565b9091506020813d602011610bd1575b81610bc16020938361096d565b810103126106585751905f610a39565b3d9150610bb4565b5050565b9160078301549060ff8260a01c1615610d9a57604051631e96036360e31b8152906001600160a01b0316602082600481845afa91821561064d575f92610d65575b509060206004926040519384809263019312fb60e61b82525afa91821561064d575f92610d31575b50600154604051635c39ccad60e11b8152600481018390526024810184905290602090829060449082906001600160a01b03165afa90811561064d575f91610cfd575b50610cb992612710610ad8610caf94610ca19461098f565b610af46002870154436109d4565b60018501546109e1565b906001600160a01b0316610cf257905f905b15610ce257506005610cdf920154906109d4565b90565b90506006610cdf920154906109d4565b60011c908190610ccb565b90506020813d602011610d29575b81610d186020938361096d565b810103126106585751610cb9610c89565b3d9150610d0b565b9091506020813d602011610d5d575b81610d4d6020938361096d565b810103126106585751905f610c46565b3d9150610d40565b91506020823d602011610d92575b81610d806020938361096d565b81010312610658579051906020610c1e565b3d9150610d73565b505050505f9056fea26469706673582212204214d2b800f855b2b8fd9aa815d5a4442569fef350e36ccfeaaf283d13c9a29b64736f6c634300081a0033",
			"opcodes": "PUSH1 0x80 CALLVALUE PUSH1 0xBE JUMPI PUSH1 0x1F PUSH2 0xEAF CODESIZE DUP2 SWAP1 SUB SWAP2 DUP3 ADD PUSH1 0x1F NOT AND DUP4 ADD SWAP2 PUSH1 0x1 PUSH1 0x1 PUSH1 0x40 SHL SUB DUP4 GT DUP5 DUP5 LT OR PUSH1 0xC2 JUMPI DUP1 DUP5 SWAP3 PUSH1 0x20 SWAP5 PUSH1 0x40 MSTORE DUP4 CODECOPY DUP2 ADD SUB SLT PUSH1 0xBE JUMPI MLOAD PUSH1 0x1 PUSH1 0x1 PUSH1 0xA0 SHL SUB DUP2 AND SWAP1 DUP2 SWAP1 SUB PUSH1 0xBE JUMPI PUSH1 0x1 PUSH0 SSTORE DUP1 ISZERO PUSH1 0x79 JUMPI PUSH1 0x1 DUP1 SLOAD PUSH1 0x1 PUSH1 0x1 PUSH1 0xA0 SHL SUB NOT AND SWAP2 SWAP1 SWAP2 OR SWAP1 SSTORE PUSH1 0x40 MLOAD PUSH2 0xDD8 SWAP1 DUP2 PUSH2 0xD7 DUP3 CODECOPY RETURN JUMPDEST PUSH1 0x40 MLOAD PUSH3 0x461BCD PUSH1 0xE5 SHL DUP2 MSTORE PUSH1 0x20 PUSH1 0x4 DUP3 ADD MSTORE PUSH1 0x1B PUSH1 0x24 DUP3 ADD MSTORE PUSH32 0x496E76616C696420415059206D616E6167657220616464726573730000000000 PUSH1 0x44 DUP3 ADD MSTORE PUSH1 0x64 SWAP1 REVERT JUMPDEST PUSH0 DUP1 REVERT JUMPDEST PUSH4 0x4E487B71 PUSH1 0xE0 SHL PUSH0 MSTORE PUSH1 0x41 PUSH1 0x4 MSTORE PUSH1 0x24 PUSH0 REVERT INVALID PUSH1 0x80 DUP1 PUSH1 0x40 MSTORE PUSH1 0x4 CALLDATASIZE LT ISZERO PUSH2 0x12 JUMPI PUSH0 DUP1 REVERT JUMPDEST PUSH0 SWAP1 PUSH0 CALLDATALOAD PUSH1 0xE0 SHR SWAP1 DUP2 PUSH4 0x1EC2D03 EQ PUSH2 0x87E JUMPI POP DUP1 PUSH4 0x6846E05 EQ PUSH2 0x77A JUMPI DUP1 PUSH4 0x3D39955C EQ PUSH2 0x757 JUMPI DUP1 PUSH4 0x491C011A EQ PUSH2 0x4D2 JUMPI DUP1 PUSH4 0x7286E5E5 EQ PUSH2 0x361 JUMPI DUP1 PUSH4 0x7E72C7D7 EQ PUSH2 0x29D JUMPI DUP1 PUSH4 0xA4CF3252 EQ PUSH2 0x265 JUMPI DUP1 PUSH4 0xCF172403 EQ PUSH2 0x1BF JUMPI PUSH4 0xD919007E EQ PUSH2 0x81 JUMPI PUSH0 DUP1 REVERT JUMPDEST CALLVALUE PUSH2 0x1BC JUMPI PUSH1 0x20 CALLDATASIZE PUSH1 0x3 NOT ADD SLT PUSH2 0x1BC JUMPI PUSH1 0x40 PUSH2 0x120 SWAP2 PUSH2 0xA0 PUSH2 0x8A1 JUMP JUMPDEST DUP2 PUSH2 0x100 DUP5 MLOAD PUSH2 0xAF DUP2 PUSH2 0x93C JUMP JUMPDEST DUP3 DUP2 MSTORE DUP3 PUSH1 0x20 DUP3 ADD MSTORE DUP3 DUP7 DUP3 ADD MSTORE DUP3 PUSH1 0x60 DUP3 ADD MSTORE DUP3 PUSH1 0x80 DUP3 ADD MSTORE DUP3 PUSH1 0xA0 DUP3 ADD MSTORE DUP3 PUSH1 0xC0 DUP3 ADD MSTORE DUP3 PUSH1 0xE0 DUP3 ADD MSTORE ADD MSTORE PUSH1 0x1 DUP1 PUSH1 0xA0 SHL SUB AND DUP2 MSTORE PUSH1 0x2 PUSH1 0x20 MSTORE KECCAK256 PUSH1 0x40 MLOAD SWAP1 PUSH2 0xFA DUP3 PUSH2 0x93C JUMP JUMPDEST PUSH1 0x1 DUP1 PUSH1 0xA0 SHL SUB DUP2 SLOAD AND SWAP2 DUP3 DUP2 MSTORE PUSH1 0x1 DUP3 ADD SLOAD SWAP2 PUSH1 0x20 DUP3 ADD SWAP3 DUP4 MSTORE PUSH1 0x2 DUP2 ADD SLOAD PUSH1 0x40 DUP4 ADD SWAP1 DUP2 MSTORE PUSH1 0x3 DUP3 ADD SLOAD PUSH1 0x60 DUP5 ADD SWAP1 DUP2 MSTORE PUSH1 0x4 DUP4 ADD SLOAD SWAP1 PUSH1 0x80 DUP6 ADD SWAP2 DUP3 MSTORE PUSH1 0x5 DUP5 ADD SLOAD SWAP3 PUSH1 0xA0 DUP7 ADD SWAP4 DUP5 MSTORE PUSH1 0x7 PUSH1 0x6 DUP7 ADD SLOAD SWAP6 PUSH1 0xC0 DUP9 ADD SWAP7 DUP8 MSTORE ADD SLOAD SWAP7 PUSH1 0xFF PUSH2 0x100 PUSH1 0xE0 DUP10 ADD SWAP9 PUSH1 0x1 DUP1 PUSH1 0xA0 SHL SUB DUP12 AND DUP11 MSTORE ADD SWAP9 PUSH1 0xA0 SHR AND ISZERO ISZERO DUP9 MSTORE PUSH1 0x40 MLOAD SWAP9 DUP10 MSTORE MLOAD PUSH1 0x20 DUP10 ADD MSTORE MLOAD PUSH1 0x40 DUP9 ADD MSTORE MLOAD PUSH1 0x60 DUP8 ADD MSTORE MLOAD PUSH1 0x80 DUP7 ADD MSTORE MLOAD PUSH1 0xA0 DUP6 ADD MSTORE MLOAD PUSH1 0xC0 DUP5 ADD MSTORE PUSH1 0x1 DUP1 PUSH1 0xA0 SHL SUB SWAP1 MLOAD AND PUSH1 0xE0 DUP4 ADD MSTORE MLOAD ISZERO ISZERO PUSH2 0x100 DUP3 ADD MSTORE RETURN JUMPDEST DUP1 REVERT JUMPDEST POP CALLVALUE PUSH2 0x1BC JUMPI PUSH1 0x20 CALLDATASIZE PUSH1 0x3 NOT ADD SLT PUSH2 0x1BC JUMPI PUSH2 0x120 SWAP1 PUSH1 0x40 SWAP1 PUSH1 0x1 PUSH1 0x1 PUSH1 0xA0 SHL SUB PUSH2 0x1E8 PUSH2 0x8A1 JUMP JUMPDEST AND DUP2 MSTORE PUSH1 0x2 PUSH1 0x20 MSTORE KECCAK256 PUSH1 0xFF PUSH1 0x1 DUP1 PUSH1 0xA0 SHL SUB DUP3 SLOAD AND SWAP2 PUSH1 0x1 DUP2 ADD SLOAD SWAP1 PUSH1 0x2 DUP2 ADD SLOAD PUSH1 0x3 DUP3 ADD SLOAD PUSH1 0x4 DUP4 ADD SLOAD SWAP1 PUSH1 0x5 DUP5 ADD SLOAD SWAP3 PUSH1 0x7 PUSH1 0x6 DUP7 ADD SLOAD SWAP6 ADD SLOAD SWAP6 PUSH1 0x40 MLOAD SWAP9 DUP10 MSTORE PUSH1 0x20 DUP10 ADD MSTORE PUSH1 0x40 DUP9 ADD MSTORE PUSH1 0x60 DUP8 ADD MSTORE PUSH1 0x80 DUP7 ADD MSTORE PUSH1 0xA0 DUP6 ADD MSTORE PUSH1 0xC0 DUP5 ADD MSTORE PUSH1 0x1 DUP1 PUSH1 0xA0 SHL SUB DUP2 AND PUSH1 0xE0 DUP5 ADD MSTORE PUSH1 0xA0 SHR AND ISZERO ISZERO PUSH2 0x100 DUP3 ADD MSTORE RETURN JUMPDEST POP CALLVALUE PUSH2 0x1BC JUMPI PUSH2 0x295 PUSH1 0x20 SWAP2 PUSH1 0x40 PUSH2 0x27C CALLDATASIZE PUSH2 0x8CD JUMP JUMPDEST PUSH1 0x1 PUSH1 0x1 PUSH1 0xA0 SHL SUB DUP3 AND DUP5 MSTORE PUSH1 0x2 DUP7 MSTORE SWAP2 SWAP1 SWAP3 KECCAK256 PUSH2 0xBDD JUMP JUMPDEST PUSH1 0x40 MLOAD SWAP1 DUP2 MSTORE RETURN JUMPDEST POP CALLVALUE PUSH2 0x1BC JUMPI PUSH1 0x20 CALLDATASIZE PUSH1 0x3 NOT ADD SLT PUSH2 0x1BC JUMPI PUSH1 0x1 PUSH1 0x1 PUSH1 0xA0 SHL SUB PUSH2 0x2BF PUSH2 0x8A1 JUMP JUMPDEST AND DUP1 ISZERO PUSH2 0x325 JUMPI DUP1 DUP3 MSTORE PUSH1 0x2 PUSH1 0x20 MSTORE DUP2 PUSH1 0x7 PUSH1 0x40 DUP3 KECCAK256 DUP3 DUP2 SSTORE DUP3 PUSH1 0x1 DUP3 ADD SSTORE DUP3 PUSH1 0x2 DUP3 ADD SSTORE DUP3 PUSH1 0x3 DUP3 ADD SSTORE DUP3 PUSH1 0x4 DUP3 ADD SSTORE DUP3 PUSH1 0x5 DUP3 ADD SSTORE DUP3 PUSH1 0x6 DUP3 ADD SSTORE ADD SSTORE PUSH32 0x334D0B2111287DFDDEBE4B4C1C5AF3AE644909D7FCD024377BF601E236ED5ABB DUP3 DUP1 LOG2 DUP1 RETURN JUMPDEST PUSH1 0x40 MLOAD PUSH3 0x461BCD PUSH1 0xE5 SHL DUP2 MSTORE PUSH1 0x20 PUSH1 0x4 DUP3 ADD MSTORE PUSH1 0x14 PUSH1 0x24 DUP3 ADD MSTORE PUSH20 0x496E76616C696420706F6F6C2061646472657373 PUSH1 0x60 SHL PUSH1 0x44 DUP3 ADD MSTORE PUSH1 0x64 SWAP1 REVERT JUMPDEST POP CALLVALUE PUSH2 0x1BC JUMPI PUSH1 0x40 CALLDATASIZE PUSH1 0x3 NOT ADD SLT PUSH2 0x1BC JUMPI PUSH2 0x37B PUSH2 0x8A1 JUMP JUMPDEST PUSH2 0x383 PUSH2 0x8B7 JUMP JUMPDEST PUSH1 0x1 PUSH1 0x1 PUSH1 0xA0 SHL SUB SWAP1 SWAP2 AND SWAP1 DUP2 ISZERO ISZERO DUP1 PUSH2 0x4C0 JUMPI JUMPDEST PUSH2 0x3A1 SWAP1 PUSH2 0x8FC JUMP JUMPDEST PUSH1 0x40 MLOAD SWAP1 PUSH2 0x3AE DUP3 PUSH2 0x93C JUMP JUMPDEST PUSH1 0x1 DUP1 PUSH1 0xA0 SHL SUB AND DUP2 MSTORE PUSH1 0x20 DUP2 ADD DUP4 DUP2 MSTORE PUSH1 0x7 PUSH1 0x40 DUP4 ADD SWAP3 NUMBER DUP5 MSTORE PUSH1 0x60 DUP2 ADD DUP7 DUP2 MSTORE PUSH1 0x80 DUP3 ADD DUP8 DUP2 MSTORE PUSH1 0xA0 DUP4 ADD SWAP1 DUP9 DUP3 MSTORE PUSH1 0xC0 DUP5 ADD SWAP3 DUP10 DUP5 MSTORE PUSH1 0xE0 DUP6 ADD SWAP8 DUP11 DUP10 MSTORE PUSH2 0x100 DUP7 ADD SWAP8 PUSH1 0x1 DUP10 MSTORE DUP11 DUP13 MSTORE PUSH1 0x2 PUSH1 0x20 MSTORE PUSH1 0x40 DUP13 KECCAK256 SWAP7 PUSH1 0x1 DUP1 PUSH1 0xA0 SHL SUB SWAP1 PUSH1 0x1 DUP1 PUSH1 0xA0 SHL SUB SWAP1 MLOAD AND AND PUSH12 0xFFFFFFFFFFFFFFFFFFFFFFFF PUSH1 0xA0 SHL DUP9 SLOAD AND OR DUP8 SSTORE MLOAD PUSH1 0x1 DUP8 ADD SSTORE MLOAD PUSH1 0x2 DUP7 ADD SSTORE MLOAD PUSH1 0x3 DUP6 ADD SSTORE MLOAD PUSH1 0x4 DUP5 ADD SSTORE MLOAD PUSH1 0x5 DUP4 ADD SSTORE MLOAD PUSH1 0x6 DUP3 ADD SSTORE ADD SWAP2 PUSH1 0x1 DUP1 PUSH1 0xA0 SHL SUB SWAP1 PUSH1 0x1 DUP1 PUSH1 0xA0 SHL SUB SWAP1 MLOAD AND AND PUSH12 0xFFFFFFFFFFFFFFFFFFFFFFFF PUSH1 0xA0 SHL DUP4 SLOAD AND OR DUP3 SSTORE MLOAD ISZERO ISZERO DUP2 SLOAD SWAP1 PUSH1 0xFF PUSH1 0xA0 SHL SWAP1 PUSH1 0xA0 SHL AND SWAP1 PUSH1 0xFF PUSH1 0xA0 SHL NOT AND OR SWAP1 SSTORE PUSH32 0x9CC152F4650CA2829A210A21551537F4CC4D48C2611EC06974F835E911921B90 DUP3 DUP1 LOG2 DUP1 RETURN JUMPDEST POP PUSH1 0x1 PUSH1 0x1 PUSH1 0xA0 SHL SUB DUP2 AND ISZERO ISZERO PUSH2 0x398 JUMP JUMPDEST POP CALLVALUE PUSH2 0x658 JUMPI PUSH2 0x4E1 CALLDATASIZE PUSH2 0x8CD JUMP JUMPDEST PUSH1 0x2 PUSH0 SLOAD EQ PUSH2 0x748 JUMPI PUSH1 0x2 PUSH0 SSTORE PUSH2 0x4F7 DUP3 PUSH2 0x9EE JUMP JUMPDEST PUSH1 0x1 PUSH1 0x1 PUSH1 0xA0 SHL SUB DUP3 AND PUSH0 DUP2 DUP2 MSTORE PUSH1 0x2 PUSH1 0x20 MSTORE PUSH1 0x40 SWAP1 KECCAK256 SWAP1 SWAP3 SWAP1 DUP3 ISZERO PUSH2 0x734 JUMPI PUSH1 0x40 MLOAD PUSH4 0x9861F3E5 PUSH1 0xE0 SHL DUP2 MSTORE PUSH1 0x20 DUP2 PUSH1 0x4 DUP2 DUP9 GAS STATICCALL SWAP1 DUP2 ISZERO PUSH2 0x64D JUMPI PUSH0 SWAP2 PUSH2 0x6F2 JUMPI JUMPDEST POP SWAP2 JUMPDEST PUSH1 0x1 PUSH1 0x1 PUSH1 0xA0 SHL SUB DUP4 AND CALLER SUB PUSH2 0x6AD JUMPI PUSH2 0x564 SWAP1 DUP6 PUSH0 MSTORE PUSH1 0x2 PUSH1 0x20 MSTORE DUP5 PUSH1 0x40 PUSH0 KECCAK256 PUSH2 0xBDD JUMP JUMPDEST SWAP3 DUP4 ISZERO PUSH2 0x672 JUMPI ISZERO PUSH2 0x65C JUMPI PUSH1 0x5 DUP2 ADD PUSH2 0x57F DUP5 DUP3 SLOAD PUSH2 0x9E1 JUMP JUMPDEST SWAP1 SSTORE JUMPDEST SLOAD PUSH1 0x1 PUSH1 0x1 PUSH1 0xA0 SHL SUB AND DUP1 EXTCODESIZE ISZERO PUSH2 0x658 JUMPI PUSH1 0x40 MLOAD PUSH4 0x40C10F19 PUSH1 0xE0 SHL DUP2 MSTORE PUSH1 0x1 PUSH1 0x1 PUSH1 0xA0 SHL SUB DUP4 AND PUSH1 0x4 DUP3 ADD MSTORE PUSH1 0x24 DUP2 ADD DUP5 SWAP1 MSTORE SWAP1 PUSH0 SWAP1 DUP3 SWAP1 PUSH1 0x44 SWAP1 DUP3 SWAP1 DUP5 SWAP1 GAS CALL DUP1 ISZERO PUSH2 0x64D JUMPI PUSH2 0x615 JUMPI JUMPDEST POP PUSH1 0x40 DUP1 MLOAD PUSH1 0x1 PUSH1 0x1 PUSH1 0xA0 SHL SUB SWAP3 SWAP1 SWAP3 AND DUP3 MSTORE PUSH1 0x20 DUP3 ADD SWAP3 SWAP1 SWAP3 MSTORE PUSH32 0xAA4D283470C904C551D18BB894D37E17674920F3261A7F854BE501E25F421B7 SWAP2 SWAP1 LOG2 PUSH1 0x1 DUP2 SSTORE DUP1 RETURN JUMPDEST PUSH32 0xAA4D283470C904C551D18BB894D37E17674920F3261A7F854BE501E25F421B7 SWAP3 SWAP2 SWAP5 POP PUSH0 PUSH2 0x644 SWAP2 PUSH2 0x96D JUMP JUMPDEST PUSH0 SWAP4 SWAP1 SWAP2 PUSH2 0x5CF JUMP JUMPDEST PUSH1 0x40 MLOAD RETURNDATASIZE PUSH0 DUP3 RETURNDATACOPY RETURNDATASIZE SWAP1 REVERT JUMPDEST PUSH0 DUP1 REVERT JUMPDEST PUSH1 0x6 DUP2 ADD PUSH2 0x66B DUP5 DUP3 SLOAD PUSH2 0x9E1 JUMP JUMPDEST SWAP1 SSTORE PUSH2 0x582 JUMP JUMPDEST PUSH1 0x40 MLOAD PUSH3 0x461BCD PUSH1 0xE5 SHL DUP2 MSTORE PUSH1 0x20 PUSH1 0x4 DUP3 ADD MSTORE PUSH1 0x13 PUSH1 0x24 DUP3 ADD MSTORE PUSH19 0x4E6F207265776172647320746F20636C61696D PUSH1 0x68 SHL PUSH1 0x44 DUP3 ADD MSTORE PUSH1 0x64 SWAP1 REVERT JUMPDEST PUSH1 0x40 MLOAD PUSH3 0x461BCD PUSH1 0xE5 SHL DUP2 MSTORE PUSH1 0x20 PUSH1 0x4 DUP3 ADD MSTORE PUSH1 0x1F PUSH1 0x24 DUP3 ADD MSTORE PUSH32 0x4E6F7420617574686F72697A656420746F20636C61696D207265776172647300 PUSH1 0x44 DUP3 ADD MSTORE PUSH1 0x64 SWAP1 REVERT JUMPDEST SWAP1 POP PUSH1 0x20 DUP2 RETURNDATASIZE PUSH1 0x20 GT PUSH2 0x72C JUMPI JUMPDEST DUP2 PUSH2 0x70D PUSH1 0x20 SWAP4 DUP4 PUSH2 0x96D JUMP JUMPDEST DUP2 ADD SUB SLT PUSH2 0x658 JUMPI MLOAD PUSH1 0x1 PUSH1 0x1 PUSH1 0xA0 SHL SUB DUP2 AND DUP2 SUB PUSH2 0x658 JUMPI PUSH0 PUSH2 0x53B JUMP JUMPDEST RETURNDATASIZE SWAP2 POP PUSH2 0x700 JUMP JUMPDEST PUSH1 0x7 DUP2 ADD SLOAD PUSH1 0x1 PUSH1 0x1 PUSH1 0xA0 SHL SUB AND SWAP2 PUSH2 0x53E JUMP JUMPDEST PUSH4 0x3EE5AEB5 PUSH1 0xE0 SHL PUSH0 MSTORE PUSH1 0x4 PUSH0 REVERT JUMPDEST CALLVALUE PUSH2 0x658 JUMPI PUSH1 0x20 CALLDATASIZE PUSH1 0x3 NOT ADD SLT PUSH2 0x658 JUMPI PUSH2 0x778 PUSH2 0x773 PUSH2 0x8A1 JUMP JUMPDEST PUSH2 0x9EE JUMP JUMPDEST STOP JUMPDEST CALLVALUE PUSH2 0x658 JUMPI PUSH1 0x40 CALLDATASIZE PUSH1 0x3 NOT ADD SLT PUSH2 0x658 JUMPI PUSH2 0x793 PUSH2 0x8A1 JUMP JUMPDEST PUSH2 0x79B PUSH2 0x8B7 JUMP JUMPDEST PUSH1 0x1 PUSH1 0x1 PUSH1 0xA0 SHL SUB DUP3 AND SWAP2 DUP3 ISZERO ISZERO DUP1 PUSH2 0x86C JUMPI JUMPDEST PUSH2 0x7B8 SWAP1 PUSH2 0x8FC JUMP JUMPDEST PUSH0 DUP4 DUP2 MSTORE PUSH1 0x2 PUSH1 0x20 MSTORE PUSH1 0x40 SWAP1 KECCAK256 PUSH1 0x7 ADD DUP1 SLOAD SWAP1 SWAP2 SWAP1 PUSH1 0x1 PUSH1 0x1 PUSH1 0xA0 SHL SUB AND PUSH2 0x827 JUMPI PUSH2 0x7E3 SWAP1 PUSH2 0x9EE JUMP JUMPDEST DUP1 SLOAD PUSH1 0x1 PUSH1 0x1 PUSH1 0xA0 SHL SUB NOT AND PUSH1 0x1 PUSH1 0x1 PUSH1 0xA0 SHL SUB SWAP3 SWAP1 SWAP3 AND SWAP2 DUP3 OR SWAP1 SSTORE SWAP1 PUSH32 0x7FAD9689E3B8836401D45A3613710F4272517A3675A0B3006D6B80E57C51E70 PUSH0 DUP1 LOG3 STOP JUMPDEST PUSH1 0x40 MLOAD PUSH3 0x461BCD PUSH1 0xE5 SHL DUP2 MSTORE PUSH1 0x20 PUSH1 0x4 DUP3 ADD MSTORE PUSH1 0x1B PUSH1 0x24 DUP3 ADD MSTORE PUSH32 0x426F72726F77657220616C726561647920726567697374657265640000000000 PUSH1 0x44 DUP3 ADD MSTORE PUSH1 0x64 SWAP1 REVERT JUMPDEST POP PUSH1 0x1 PUSH1 0x1 PUSH1 0xA0 SHL SUB DUP3 AND ISZERO ISZERO PUSH2 0x7AF JUMP JUMPDEST CALLVALUE PUSH2 0x658 JUMPI PUSH0 CALLDATASIZE PUSH1 0x3 NOT ADD SLT PUSH2 0x658 JUMPI PUSH1 0x1 SLOAD PUSH1 0x1 PUSH1 0x1 PUSH1 0xA0 SHL SUB AND DUP2 MSTORE PUSH1 0x20 SWAP1 RETURN JUMPDEST PUSH1 0x4 CALLDATALOAD SWAP1 PUSH1 0x1 PUSH1 0x1 PUSH1 0xA0 SHL SUB DUP3 AND DUP3 SUB PUSH2 0x658 JUMPI JUMP JUMPDEST PUSH1 0x24 CALLDATALOAD SWAP1 PUSH1 0x1 PUSH1 0x1 PUSH1 0xA0 SHL SUB DUP3 AND DUP3 SUB PUSH2 0x658 JUMPI JUMP JUMPDEST PUSH1 0x40 SWAP1 PUSH1 0x3 NOT ADD SLT PUSH2 0x658 JUMPI PUSH1 0x4 CALLDATALOAD PUSH1 0x1 PUSH1 0x1 PUSH1 0xA0 SHL SUB DUP2 AND DUP2 SUB PUSH2 0x658 JUMPI SWAP1 PUSH1 0x24 CALLDATALOAD DUP1 ISZERO ISZERO DUP2 SUB PUSH2 0x658 JUMPI SWAP1 JUMP JUMPDEST ISZERO PUSH2 0x903 JUMPI JUMP JUMPDEST PUSH1 0x40 MLOAD PUSH3 0x461BCD PUSH1 0xE5 SHL DUP2 MSTORE PUSH1 0x20 PUSH1 0x4 DUP3 ADD MSTORE PUSH1 0x11 PUSH1 0x24 DUP3 ADD MSTORE PUSH17 0x496E76616C696420616464726573736573 PUSH1 0x78 SHL PUSH1 0x44 DUP3 ADD MSTORE PUSH1 0x64 SWAP1 REVERT JUMPDEST PUSH2 0x120 DUP2 ADD SWAP1 DUP2 LT PUSH8 0xFFFFFFFFFFFFFFFF DUP3 GT OR PUSH2 0x959 JUMPI PUSH1 0x40 MSTORE JUMP JUMPDEST PUSH4 0x4E487B71 PUSH1 0xE0 SHL PUSH0 MSTORE PUSH1 0x41 PUSH1 0x4 MSTORE PUSH1 0x24 PUSH0 REVERT JUMPDEST SWAP1 PUSH1 0x1F DUP1 NOT SWAP2 ADD AND DUP2 ADD SWAP1 DUP2 LT PUSH8 0xFFFFFFFFFFFFFFFF DUP3 GT OR PUSH2 0x959 JUMPI PUSH1 0x40 MSTORE JUMP JUMPDEST DUP2 DUP2 MUL SWAP3 SWAP2 DUP2 ISZERO SWAP2 DUP5 DIV EQ OR ISZERO PUSH2 0x9A2 JUMPI JUMP JUMPDEST PUSH4 0x4E487B71 PUSH1 0xE0 SHL PUSH0 MSTORE PUSH1 0x11 PUSH1 0x4 MSTORE PUSH1 0x24 PUSH0 REVERT JUMPDEST DUP2 ISZERO PUSH2 0x9C0 JUMPI DIV SWAP1 JUMP JUMPDEST PUSH4 0x4E487B71 PUSH1 0xE0 SHL PUSH0 MSTORE PUSH1 0x12 PUSH1 0x4 MSTORE PUSH1 0x24 PUSH0 REVERT JUMPDEST SWAP2 SWAP1 DUP3 SUB SWAP2 DUP3 GT PUSH2 0x9A2 JUMPI JUMP JUMPDEST SWAP2 SWAP1 DUP3 ADD DUP1 SWAP3 GT PUSH2 0x9A2 JUMPI JUMP JUMPDEST PUSH1 0x1 PUSH1 0x1 PUSH1 0xA0 SHL SUB AND PUSH0 DUP2 DUP2 MSTORE PUSH1 0x2 PUSH1 0x20 MSTORE PUSH1 0x40 SWAP1 KECCAK256 PUSH1 0x7 DUP2 ADD SLOAD PUSH1 0xA0 SHR PUSH1 0xFF AND ISZERO PUSH2 0xBD9 JUMPI PUSH1 0x40 MLOAD PUSH4 0x1E960363 PUSH1 0xE3 SHL DUP2 MSTORE SWAP1 PUSH1 0x20 DUP3 PUSH1 0x4 DUP2 DUP7 GAS STATICCALL SWAP2 DUP3 ISZERO PUSH2 0x64D JUMPI PUSH0 SWAP3 PUSH2 0xBA5 JUMPI JUMPDEST POP PUSH1 0x40 MLOAD PUSH4 0x19312FB PUSH1 0xE6 SHL DUP2 MSTORE SWAP2 PUSH1 0x20 DUP4 PUSH1 0x4 DUP2 DUP8 GAS STATICCALL SWAP3 DUP4 ISZERO PUSH2 0x64D JUMPI PUSH0 SWAP4 PUSH2 0xB71 JUMPI JUMPDEST POP PUSH1 0x1 SLOAD PUSH1 0x40 MLOAD PUSH4 0x5C39CCAD PUSH1 0xE1 SHL DUP2 MSTORE PUSH1 0x4 DUP2 ADD DUP4 SWAP1 MSTORE PUSH1 0x24 DUP2 ADD DUP6 SWAP1 MSTORE SWAP1 PUSH1 0x20 SWAP1 DUP3 SWAP1 PUSH1 0x44 SWAP1 DUP3 SWAP1 PUSH1 0x1 PUSH1 0x1 PUSH1 0xA0 SHL SUB AND GAS STATICCALL SWAP1 DUP2 ISZERO PUSH2 0x64D JUMPI PUSH0 SWAP2 PUSH2 0xB19 JUMPI JUMPDEST POP PUSH32 0x578AFAB8065B30A5E9827120E4905B8A1810E180D2F793CA54AF6F7633F4E57A SWAP4 PUSH2 0x2710 PUSH2 0xAD8 PUSH1 0x20 SWAP6 SWAP5 PUSH2 0xADE SWAP5 PUSH2 0x98F JUMP JUMPDEST DIV PUSH2 0x9B6 JUMP JUMPDEST PUSH1 0x3 PUSH1 0x2 DUP4 ADD SWAP3 PUSH2 0xAF9 DUP4 PUSH2 0xAF4 DUP7 SLOAD NUMBER PUSH2 0x9D4 JUMP JUMPDEST PUSH2 0x98F JUMP JUMPDEST SWAP4 PUSH1 0x1 DUP3 ADD PUSH2 0xB09 DUP7 DUP3 SLOAD PUSH2 0x9E1 JUMP JUMPDEST SWAP1 SSTORE NUMBER SWAP1 SSTORE ADD SSTORE PUSH1 0x40 MLOAD SWAP1 DUP2 MSTORE LOG2 JUMP JUMPDEST SWAP1 POP PUSH1 0x20 SWAP3 SWAP2 SWAP3 DUP2 RETURNDATASIZE PUSH1 0x20 GT PUSH2 0xB69 JUMPI JUMPDEST DUP2 PUSH2 0xB37 PUSH1 0x20 SWAP4 DUP4 PUSH2 0x96D JUMP JUMPDEST DUP2 ADD SUB SLT PUSH2 0x658 JUMPI MLOAD SWAP1 SWAP2 SWAP1 PUSH32 0x578AFAB8065B30A5E9827120E4905B8A1810E180D2F793CA54AF6F7633F4E57A PUSH2 0xAA2 JUMP JUMPDEST RETURNDATASIZE SWAP2 POP PUSH2 0xB2A JUMP JUMPDEST SWAP1 SWAP3 POP PUSH1 0x20 DUP2 RETURNDATASIZE PUSH1 0x20 GT PUSH2 0xB9D JUMPI JUMPDEST DUP2 PUSH2 0xB8D PUSH1 0x20 SWAP4 DUP4 PUSH2 0x96D JUMP JUMPDEST DUP2 ADD SUB SLT PUSH2 0x658 JUMPI MLOAD SWAP2 PUSH0 PUSH2 0xA5F JUMP JUMPDEST RETURNDATASIZE SWAP2 POP PUSH2 0xB80 JUMP JUMPDEST SWAP1 SWAP2 POP PUSH1 0x20 DUP2 RETURNDATASIZE PUSH1 0x20 GT PUSH2 0xBD1 JUMPI JUMPDEST DUP2 PUSH2 0xBC1 PUSH1 0x20 SWAP4 DUP4 PUSH2 0x96D JUMP JUMPDEST DUP2 ADD SUB SLT PUSH2 0x658 JUMPI MLOAD SWAP1 PUSH0 PUSH2 0xA39 JUMP JUMPDEST RETURNDATASIZE SWAP2 POP PUSH2 0xBB4 JUMP JUMPDEST POP POP JUMP JUMPDEST SWAP2 PUSH1 0x7 DUP4 ADD SLOAD SWAP1 PUSH1 0xFF DUP3 PUSH1 0xA0 SHR AND ISZERO PUSH2 0xD9A JUMPI PUSH1 0x40 MLOAD PUSH4 0x1E960363 PUSH1 0xE3 SHL DUP2 MSTORE SWAP1 PUSH1 0x1 PUSH1 0x1 PUSH1 0xA0 SHL SUB AND PUSH1 0x20 DUP3 PUSH1 0x4 DUP2 DUP5 GAS STATICCALL SWAP2 DUP3 ISZERO PUSH2 0x64D JUMPI PUSH0 SWAP3 PUSH2 0xD65 JUMPI JUMPDEST POP SWAP1 PUSH1 0x20 PUSH1 0x4 SWAP3 PUSH1 0x40 MLOAD SWAP4 DUP5 DUP1 SWAP3 PUSH4 0x19312FB PUSH1 0xE6 SHL DUP3 MSTORE GAS STATICCALL SWAP2 DUP3 ISZERO PUSH2 0x64D JUMPI PUSH0 SWAP3 PUSH2 0xD31 JUMPI JUMPDEST POP PUSH1 0x1 SLOAD PUSH1 0x40 MLOAD PUSH4 0x5C39CCAD PUSH1 0xE1 SHL DUP2 MSTORE PUSH1 0x4 DUP2 ADD DUP4 SWAP1 MSTORE PUSH1 0x24 DUP2 ADD DUP5 SWAP1 MSTORE SWAP1 PUSH1 0x20 SWAP1 DUP3 SWAP1 PUSH1 0x44 SWAP1 DUP3 SWAP1 PUSH1 0x1 PUSH1 0x1 PUSH1 0xA0 SHL SUB AND GAS STATICCALL SWAP1 DUP2 ISZERO PUSH2 0x64D JUMPI PUSH0 SWAP2 PUSH2 0xCFD JUMPI JUMPDEST POP PUSH2 0xCB9 SWAP3 PUSH2 0x2710 PUSH2 0xAD8 PUSH2 0xCAF SWAP5 PUSH2 0xCA1 SWAP5 PUSH2 0x98F JUMP JUMPDEST PUSH2 0xAF4 PUSH1 0x2 DUP8 ADD SLOAD NUMBER PUSH2 0x9D4 JUMP JUMPDEST PUSH1 0x1 DUP6 ADD SLOAD PUSH2 0x9E1 JUMP JUMPDEST SWAP1 PUSH1 0x1 PUSH1 0x1 PUSH1 0xA0 SHL SUB AND PUSH2 0xCF2 JUMPI SWAP1 PUSH0 SWAP1 JUMPDEST ISZERO PUSH2 0xCE2 JUMPI POP PUSH1 0x5 PUSH2 0xCDF SWAP3 ADD SLOAD SWAP1 PUSH2 0x9D4 JUMP JUMPDEST SWAP1 JUMP JUMPDEST SWAP1 POP PUSH1 0x6 PUSH2 0xCDF SWAP3 ADD SLOAD SWAP1 PUSH2 0x9D4 JUMP JUMPDEST PUSH1 0x1 SHR SWAP1 DUP2 SWAP1 PUSH2 0xCCB JUMP JUMPDEST SWAP1 POP PUSH1 0x20 DUP2 RETURNDATASIZE PUSH1 0x20 GT PUSH2 0xD29 JUMPI JUMPDEST DUP2 PUSH2 0xD18 PUSH1 0x20 SWAP4 DUP4 PUSH2 0x96D JUMP JUMPDEST DUP2 ADD SUB SLT PUSH2 0x658 JUMPI MLOAD PUSH2 0xCB9 PUSH2 0xC89 JUMP JUMPDEST RETURNDATASIZE SWAP2 POP PUSH2 0xD0B JUMP JUMPDEST SWAP1 SWAP2 POP PUSH1 0x20 DUP2 RETURNDATASIZE PUSH1 0x20 GT PUSH2 0xD5D JUMPI JUMPDEST DUP2 PUSH2 0xD4D PUSH1 0x20 SWAP4 DUP4 PUSH2 0x96D JUMP JUMPDEST DUP2 ADD SUB SLT PUSH2 0x658 JUMPI MLOAD SWAP1 PUSH0 PUSH2 0xC46 JUMP JUMPDEST RETURNDATASIZE SWAP2 POP PUSH2 0xD40 JUMP JUMPDEST SWAP2 POP PUSH1 0x20 DUP3 RETURNDATASIZE PUSH1 0x20 GT PUSH2 0xD92 JUMPI JUMPDEST DUP2 PUSH2 0xD80 PUSH1 0x20 SWAP4 DUP4 PUSH2 0x96D JUMP JUMPDEST DUP2 ADD SUB SLT PUSH2 0x658 JUMPI SWAP1 MLOAD SWAP1 PUSH1 0x20 PUSH2 0xC1E JUMP JUMPDEST RETURNDATASIZE SWAP2 POP PUSH2 0xD73 JUMP JUMPDEST POP POP POP POP PUSH0 SWAP1 JUMP INVALID LOG2 PUSH5 0x6970667358 0x22 SLT KECCAK256 TIMESTAMP EQ 0xD2 0xB8 STOP 0xF8 SSTORE 0xB2 0xB8 REVERT SWAP11 0xA8 ISZERO 0xD5 LOG4 PREVRANDAO 0x25 PUSH10 0xFEF350E36CCFEAAF283D SGT 0xC9 LOG2 SWAP12 PUSH5 0x736F6C6343 STOP ADDMOD BYTE STOP CALLER "
		},
		"gasEstimates": {
			"creation": {
				"codeDepositCost": "708800",
				"executionCost": "infinite",
				"totalCost": "infinite"
			},
			"external": {
				"accrueRewards(address)": "infinite",
				"apyManager()": "2271",
				"calculateClaimableRewards(address,bool)": "infinite",
				"claimRewards(address,bool)": "infinite",
				"deregisterPool(address)": "41647",
				"getRewardDetails(address)": "infinite",
				"registerBorrower(address,address)": "infinite",
				"registerPool(address,address)": "121984",
				"rewardDetails(address)": "17530"
			},
			"internal": {
				"_calculateClaimableRewards(struct RewardManager.RewardDetails storage pointer,bool,address)": "infinite"
			}
		},
		"methodIdentifiers": {
			"accrueRewards(address)": "3d39955c",
			"apyManager()": "01ec2d03",
			"calculateClaimableRewards(address,bool)": "a4cf3252",
			"claimRewards(address,bool)": "491c011a",
			"deregisterPool(address)": "7e72c7d7",
			"getRewardDetails(address)": "d919007e",
			"registerBorrower(address,address)": "06846e05",
			"registerPool(address,address)": "7286e5e5",
			"rewardDetails(address)": "cf172403"
		}
	},
	"abi": [
		{
			"inputs": [
				{
					"internalType": "address",
					"name": "_apyManager",
					"type": "address"
				}
			],
			"stateMutability": "nonpayable",
			"type": "constructor"
		},
		{
			"inputs": [],
			"name": "ReentrancyGuardReentrantCall",
			"type": "error"
		},
		{
			"anonymous": false,
			"inputs": [
				{
					"indexed": true,
					"internalType": "address",
					"name": "pool",
					"type": "address"
				},
				{
					"indexed": true,
					"internalType": "address",
					"name": "borrower",
					"type": "address"
				}
			],
			"name": "BorrowerRegistered",
			"type": "event"
		},
		{
			"anonymous": false,
			"inputs": [
				{
					"indexed": true,
					"internalType": "address",
					"name": "pool",
					"type": "address"
				}
			],
			"name": "PoolDeregistered",
			"type": "event"
		},
		{
			"anonymous": false,
			"inputs": [
				{
					"indexed": true,
					"internalType": "address",
					"name": "pool",
					"type": "address"
				}
			],
			"name": "PoolRegistered",
			"type": "event"
		},
		{
			"anonymous": false,
			"inputs": [
				{
					"indexed": true,
					"internalType": "address",
					"name": "pool",
					"type": "address"
				},
				{
					"indexed": false,
					"internalType": "uint256",
					"name": "reward",
					"type": "uint256"
				}
			],
			"name": "RewardAccrued",
			"type": "event"
		},
		{
			"anonymous": false,
			"inputs": [
				{
					"indexed": true,
					"internalType": "address",
					"name": "pool",
					"type": "address"
				},
				{
					"indexed": false,
					"internalType": "address",
					"name": "claimant",
					"type": "address"
				},
				{
					"indexed": false,
					"internalType": "uint256",
					"name": "reward",
					"type": "uint256"
				}
			],
			"name": "RewardClaimed",
			"type": "event"
		},
		{
			"inputs": [
				{
					"internalType": "address",
					"name": "pool",
					"type": "address"
				}
			],
			"name": "accrueRewards",
			"outputs": [],
			"stateMutability": "nonpayable",
			"type": "function"
		},
		{
			"inputs": [],
			"name": "apyManager",
			"outputs": [
				{
					"internalType": "contract IAdvancedAPYManager",
					"name": "",
					"type": "address"
				}
			],
			"stateMutability": "view",
			"type": "function"
		},
		{
			"inputs": [
				{
					"internalType": "address",
					"name": "pool",
					"type": "address"
				},
				{
					"internalType": "bool",
					"name": "isLender",
					"type": "bool"
				}
			],
			"name": "calculateClaimableRewards",
			"outputs": [
				{
					"internalType": "uint256",
					"name": "",
					"type": "uint256"
				}
			],
			"stateMutability": "view",
			"type": "function"
		},
		{
			"inputs": [
				{
					"internalType": "address",
					"name": "pool",
					"type": "address"
				},
				{
					"internalType": "bool",
					"name": "isLender",
					"type": "bool"
				}
			],
			"name": "claimRewards",
			"outputs": [],
			"stateMutability": "nonpayable",
			"type": "function"
		},
		{
			"inputs": [
				{
					"internalType": "address",
					"name": "pool",
					"type": "address"
				}
			],
			"name": "deregisterPool",
			"outputs": [],
			"stateMutability": "nonpayable",
			"type": "function"
		},
		{
			"inputs": [
				{
					"internalType": "address",
					"name": "pool",
					"type": "address"
				}
			],
			"name": "getRewardDetails",
			"outputs": [
				{
					"components": [
						{
							"internalType": "contract IERC20",
							"name": "rewardToken",
							"type": "address"
						},
						{
							"internalType": "uint256",
							"name": "rewardsAccrued",
							"type": "uint256"
						},
						{
							"internalType": "uint256",
							"name": "lastRewardBlock",
							"type": "uint256"
						},
						{
							"internalType": "uint256",
							"name": "rewardRate",
							"type": "uint256"
						},
						{
							"internalType": "uint256",
							"name": "totalInterestRewards",
							"type": "uint256"
						},
						{
							"internalType": "uint256",
							"name": "lenderClaimedRewards",
							"type": "uint256"
						},
						{
							"internalType": "uint256",
							"name": "borrowerClaimedRewards",
							"type": "uint256"
						},
						{
							"internalType": "address",
							"name": "borrower",
							"type": "address"
						},
						{
							"internalType": "bool",
							"name": "isAccruing",
							"type": "bool"
						}
					],
					"internalType": "struct RewardManager.RewardDetails",
					"name": "",
					"type": "tuple"
				}
			],
			"stateMutability": "view",
			"type": "function"
		},
		{
			"inputs": [
				{
					"internalType": "address",
					"name": "pool",
					"type": "address"
				},
				{
					"internalType": "address",
					"name": "borrower",
					"type": "address"
				}
			],
			"name": "registerBorrower",
			"outputs": [],
			"stateMutability": "nonpayable",
			"type": "function"
		},
		{
			"inputs": [
				{
					"internalType": "address",
					"name": "pool",
					"type": "address"
				},
				{
					"internalType": "address",
					"name": "rewardToken",
					"type": "address"
				}
			],
			"name": "registerPool",
			"outputs": [],
			"stateMutability": "nonpayable",
			"type": "function"
		},
		{
			"inputs": [
				{
					"internalType": "address",
					"name": "",
					"type": "address"
				}
			],
			"name": "rewardDetails",
			"outputs": [
				{
					"internalType": "contract IERC20",
					"name": "rewardToken",
					"type": "address"
				},
				{
					"internalType": "uint256",
					"name": "rewardsAccrued",
					"type": "uint256"
				},
				{
					"internalType": "uint256",
					"name": "lastRewardBlock",
					"type": "uint256"
				},
				{
					"internalType": "uint256",
					"name": "rewardRate",
					"type": "uint256"
				},
				{
					"internalType": "uint256",
					"name": "totalInterestRewards",
					"type": "uint256"
				},
				{
					"internalType": "uint256",
					"name": "lenderClaimedRewards",
					"type": "uint256"
				},
				{
					"internalType": "uint256",
					"name": "borrowerClaimedRewards",
					"type": "uint256"
				},
				{
					"internalType": "address",
					"name": "borrower",
					"type": "address"
				},
				{
					"internalType": "bool",
					"name": "isAccruing",
					"type": "bool"
				}
			],
			"stateMutability": "view",
			"type": "function"
		}
	]
}