{
	"data": {
		"bytecode": {
			"linkReferences": {},
			"object": "608034608a57601f6105f738819003918201601f19168301916001600160401b03831184841017608e578084926040948552833981010312608a57604b602060458360a2565b920160a2565b60015f81905580546001600160a01b039384166001600160a01b0319918216179091556002805492909316911617905560405161054190816100b68239f35b5f80fd5b634e487b7160e01b5f52604160045260245ffd5b51906001600160a01b0382168203608a5756fe6080604081815260049182361015610015575f80fd5b5f925f3560e01c9182630700037d1461036e57508163372500ab146102295781635997bb371461020d578163978e08d7146100b757508063db5f7ccf1461008f5763f7c618c114610064575f80fd5b3461008b578160031936011261008b5760015490516001600160a01b039091168152602090f35b5080fd5b503461008b578160031936011261008b5760025490516001600160a01b039091168152602090f35b83833461008b576020806003193601126102095783356001600160a01b0381811693918490036101f457828691600254168351928380926327a7d9a760e21b82525afa9081156101ff5785916101c5575b5060058110156101b25760020361017a576101216103db565b9083855260038352808520805490838201809211610167577f578afab8065b30a5e9827120e4905b8a1810e180d2f793ca54af6f7633f4e57a959697505551908152a280f35b634e487b7160e01b875260118852602487fd5b5162461bcd60e51b81528085019190915260126024820152714c6f616e206973206e6f742061637469766560701b6044820152606490fd5b634e487b7160e01b855260218652602485fd5b90508281813d83116101f8575b6101dc81836103a5565b810103126101f4575160058110156101f45786610108565b8480fd5b503d6101d2565b82513d87823e3d90fd5b8280fd5b50503461008b578160031936011261008b576020905160648152f35b919050346102ef575f3660031901126102ef5760025f541461032b5760025f55335f526003602052805f20549182156102f357335f9081526003602052828120556001546001600160a01b031692833b156102ef575f9360448592855196879384926340c10f1960e01b8452338885015260248401525af180156102e5576102b4575b836001815580f35b9091925067ffffffffffffffff83116102d25750525f8080806102ac565b604190634e487b7160e01b5f525260245ffd5b82513d5f823e3d90fd5b5f80fd5b6020606492519162461bcd60e51b835282015260136024820152724e6f207265776172647320746f20636c61696d60681b6044820152fd5b906020606492519162461bcd60e51b8352820152601f60248201527f5265656e7472616e637947756172643a207265656e7472616e742063616c6c006044820152fd5b9150346102ef5760203660031901126102ef57356001600160a01b03811692908390036102ef576020925f52600383525f20548152f35b90601f8019910116810190811067ffffffffffffffff8211176103c757604052565b634e487b7160e01b5f52604160045260245ffd5b600254604051632e1283e360e01b81526001600160a01b03909116906020908181600481865afa9081156104c2575f916104de575b50801580156104d4575b6104cd57430391438311610480578160049160405192838092631e96036360e31b82525afa9182156104c2575f92610494575b50508181029181830414901517156104805760648102908082046064149015171561048057670de0b6b3a7640000900490565b634e487b7160e01b5f52601160045260245ffd5b90809250813d83116104bb575b6104ab81836103a5565b810103126102ef57515f8061044d565b503d6104a1565b6040513d5f823e3d90fd5b5050505f90565b508043111561041a565b90508181813d8311610504575b6104f581836103a5565b810103126102ef57515f610410565b503d6104eb56fea26469706673582212208985a53dcff2969b3d76df26546ab67ac4b5c94785b6d2ab3ee49bde3045a90664736f6c63430008190033",
			"opcodes": "PUSH1 0x80 CALLVALUE PUSH1 0x8A JUMPI PUSH1 0x1F PUSH2 0x5F7 CODESIZE DUP2 SWAP1 SUB SWAP2 DUP3 ADD PUSH1 0x1F NOT AND DUP4 ADD SWAP2 PUSH1 0x1 PUSH1 0x1 PUSH1 0x40 SHL SUB DUP4 GT DUP5 DUP5 LT OR PUSH1 0x8E JUMPI DUP1 DUP5 SWAP3 PUSH1 0x40 SWAP5 DUP6 MSTORE DUP4 CODECOPY DUP2 ADD SUB SLT PUSH1 0x8A JUMPI PUSH1 0x4B PUSH1 0x20 PUSH1 0x45 DUP4 PUSH1 0xA2 JUMP JUMPDEST SWAP3 ADD PUSH1 0xA2 JUMP JUMPDEST PUSH1 0x1 PUSH0 DUP2 SWAP1 SSTORE DUP1 SLOAD PUSH1 0x1 PUSH1 0x1 PUSH1 0xA0 SHL SUB SWAP4 DUP5 AND PUSH1 0x1 PUSH1 0x1 PUSH1 0xA0 SHL SUB NOT SWAP2 DUP3 AND OR SWAP1 SWAP2 SSTORE PUSH1 0x2 DUP1 SLOAD SWAP3 SWAP1 SWAP4 AND SWAP2 AND OR SWAP1 SSTORE PUSH1 0x40 MLOAD PUSH2 0x541 SWAP1 DUP2 PUSH2 0xB6 DUP3 CODECOPY RETURN JUMPDEST PUSH0 DUP1 REVERT JUMPDEST PUSH4 0x4E487B71 PUSH1 0xE0 SHL PUSH0 MSTORE PUSH1 0x41 PUSH1 0x4 MSTORE PUSH1 0x24 PUSH0 REVERT JUMPDEST MLOAD SWAP1 PUSH1 0x1 PUSH1 0x1 PUSH1 0xA0 SHL SUB DUP3 AND DUP3 SUB PUSH1 0x8A JUMPI JUMP INVALID PUSH1 0x80 PUSH1 0x40 DUP2 DUP2 MSTORE PUSH1 0x4 SWAP2 DUP3 CALLDATASIZE LT ISZERO PUSH2 0x15 JUMPI PUSH0 DUP1 REVERT JUMPDEST PUSH0 SWAP3 PUSH0 CALLDATALOAD PUSH1 0xE0 SHR SWAP2 DUP3 PUSH4 0x700037D EQ PUSH2 0x36E JUMPI POP DUP2 PUSH4 0x372500AB EQ PUSH2 0x229 JUMPI DUP2 PUSH4 0x5997BB37 EQ PUSH2 0x20D JUMPI DUP2 PUSH4 0x978E08D7 EQ PUSH2 0xB7 JUMPI POP DUP1 PUSH4 0xDB5F7CCF EQ PUSH2 0x8F JUMPI PUSH4 0xF7C618C1 EQ PUSH2 0x64 JUMPI PUSH0 DUP1 REVERT JUMPDEST CALLVALUE PUSH2 0x8B JUMPI DUP2 PUSH1 0x3 NOT CALLDATASIZE ADD SLT PUSH2 0x8B JUMPI PUSH1 0x1 SLOAD SWAP1 MLOAD PUSH1 0x1 PUSH1 0x1 PUSH1 0xA0 SHL SUB SWAP1 SWAP2 AND DUP2 MSTORE PUSH1 0x20 SWAP1 RETURN JUMPDEST POP DUP1 REVERT JUMPDEST POP CALLVALUE PUSH2 0x8B JUMPI DUP2 PUSH1 0x3 NOT CALLDATASIZE ADD SLT PUSH2 0x8B JUMPI PUSH1 0x2 SLOAD SWAP1 MLOAD PUSH1 0x1 PUSH1 0x1 PUSH1 0xA0 SHL SUB SWAP1 SWAP2 AND DUP2 MSTORE PUSH1 0x20 SWAP1 RETURN JUMPDEST DUP4 DUP4 CALLVALUE PUSH2 0x8B JUMPI PUSH1 0x20 DUP1 PUSH1 0x3 NOT CALLDATASIZE ADD SLT PUSH2 0x209 JUMPI DUP4 CALLDATALOAD PUSH1 0x1 PUSH1 0x1 PUSH1 0xA0 SHL SUB DUP2 DUP2 AND SWAP4 SWAP2 DUP5 SWAP1 SUB PUSH2 0x1F4 JUMPI DUP3 DUP7 SWAP2 PUSH1 0x2 SLOAD AND DUP4 MLOAD SWAP3 DUP4 DUP1 SWAP3 PUSH4 0x27A7D9A7 PUSH1 0xE2 SHL DUP3 MSTORE GAS STATICCALL SWAP1 DUP2 ISZERO PUSH2 0x1FF JUMPI DUP6 SWAP2 PUSH2 0x1C5 JUMPI JUMPDEST POP PUSH1 0x5 DUP2 LT ISZERO PUSH2 0x1B2 JUMPI PUSH1 0x2 SUB PUSH2 0x17A JUMPI PUSH2 0x121 PUSH2 0x3DB JUMP JUMPDEST SWAP1 DUP4 DUP6 MSTORE PUSH1 0x3 DUP4 MSTORE DUP1 DUP6 KECCAK256 DUP1 SLOAD SWAP1 DUP4 DUP3 ADD DUP1 SWAP3 GT PUSH2 0x167 JUMPI PUSH32 0x578AFAB8065B30A5E9827120E4905B8A1810E180D2F793CA54AF6F7633F4E57A SWAP6 SWAP7 SWAP8 POP SSTORE MLOAD SWAP1 DUP2 MSTORE LOG2 DUP1 RETURN JUMPDEST PUSH4 0x4E487B71 PUSH1 0xE0 SHL DUP8 MSTORE PUSH1 0x11 DUP9 MSTORE PUSH1 0x24 DUP8 REVERT JUMPDEST MLOAD PUSH3 0x461BCD PUSH1 0xE5 SHL DUP2 MSTORE DUP1 DUP6 ADD SWAP2 SWAP1 SWAP2 MSTORE PUSH1 0x12 PUSH1 0x24 DUP3 ADD MSTORE PUSH18 0x4C6F616E206973206E6F7420616374697665 PUSH1 0x70 SHL PUSH1 0x44 DUP3 ADD MSTORE PUSH1 0x64 SWAP1 REVERT JUMPDEST PUSH4 0x4E487B71 PUSH1 0xE0 SHL DUP6 MSTORE PUSH1 0x21 DUP7 MSTORE PUSH1 0x24 DUP6 REVERT JUMPDEST SWAP1 POP DUP3 DUP2 DUP2 RETURNDATASIZE DUP4 GT PUSH2 0x1F8 JUMPI JUMPDEST PUSH2 0x1DC DUP2 DUP4 PUSH2 0x3A5 JUMP JUMPDEST DUP2 ADD SUB SLT PUSH2 0x1F4 JUMPI MLOAD PUSH1 0x5 DUP2 LT ISZERO PUSH2 0x1F4 JUMPI DUP7 PUSH2 0x108 JUMP JUMPDEST DUP5 DUP1 REVERT JUMPDEST POP RETURNDATASIZE PUSH2 0x1D2 JUMP JUMPDEST DUP3 MLOAD RETURNDATASIZE DUP8 DUP3 RETURNDATACOPY RETURNDATASIZE SWAP1 REVERT JUMPDEST DUP3 DUP1 REVERT JUMPDEST POP POP CALLVALUE PUSH2 0x8B JUMPI DUP2 PUSH1 0x3 NOT CALLDATASIZE ADD SLT PUSH2 0x8B JUMPI PUSH1 0x20 SWAP1 MLOAD PUSH1 0x64 DUP2 MSTORE RETURN JUMPDEST SWAP2 SWAP1 POP CALLVALUE PUSH2 0x2EF JUMPI PUSH0 CALLDATASIZE PUSH1 0x3 NOT ADD SLT PUSH2 0x2EF JUMPI PUSH1 0x2 PUSH0 SLOAD EQ PUSH2 0x32B JUMPI PUSH1 0x2 PUSH0 SSTORE CALLER PUSH0 MSTORE PUSH1 0x3 PUSH1 0x20 MSTORE DUP1 PUSH0 KECCAK256 SLOAD SWAP2 DUP3 ISZERO PUSH2 0x2F3 JUMPI CALLER PUSH0 SWAP1 DUP2 MSTORE PUSH1 0x3 PUSH1 0x20 MSTORE DUP3 DUP2 KECCAK256 SSTORE PUSH1 0x1 SLOAD PUSH1 0x1 PUSH1 0x1 PUSH1 0xA0 SHL SUB AND SWAP3 DUP4 EXTCODESIZE ISZERO PUSH2 0x2EF JUMPI PUSH0 SWAP4 PUSH1 0x44 DUP6 SWAP3 DUP6 MLOAD SWAP7 DUP8 SWAP4 DUP5 SWAP3 PUSH4 0x40C10F19 PUSH1 0xE0 SHL DUP5 MSTORE CALLER DUP9 DUP6 ADD MSTORE PUSH1 0x24 DUP5 ADD MSTORE GAS CALL DUP1 ISZERO PUSH2 0x2E5 JUMPI PUSH2 0x2B4 JUMPI JUMPDEST DUP4 PUSH1 0x1 DUP2 SSTORE DUP1 RETURN JUMPDEST SWAP1 SWAP2 SWAP3 POP PUSH8 0xFFFFFFFFFFFFFFFF DUP4 GT PUSH2 0x2D2 JUMPI POP MSTORE PUSH0 DUP1 DUP1 DUP1 PUSH2 0x2AC JUMP JUMPDEST PUSH1 0x41 SWAP1 PUSH4 0x4E487B71 PUSH1 0xE0 SHL PUSH0 MSTORE MSTORE PUSH1 0x24 PUSH0 REVERT JUMPDEST DUP3 MLOAD RETURNDATASIZE PUSH0 DUP3 RETURNDATACOPY RETURNDATASIZE SWAP1 REVERT JUMPDEST PUSH0 DUP1 REVERT JUMPDEST PUSH1 0x20 PUSH1 0x64 SWAP3 MLOAD SWAP2 PUSH3 0x461BCD PUSH1 0xE5 SHL DUP4 MSTORE DUP3 ADD MSTORE PUSH1 0x13 PUSH1 0x24 DUP3 ADD MSTORE PUSH19 0x4E6F207265776172647320746F20636C61696D PUSH1 0x68 SHL PUSH1 0x44 DUP3 ADD MSTORE REVERT JUMPDEST SWAP1 PUSH1 0x20 PUSH1 0x64 SWAP3 MLOAD SWAP2 PUSH3 0x461BCD PUSH1 0xE5 SHL DUP4 MSTORE DUP3 ADD MSTORE PUSH1 0x1F PUSH1 0x24 DUP3 ADD MSTORE PUSH32 0x5265656E7472616E637947756172643A207265656E7472616E742063616C6C00 PUSH1 0x44 DUP3 ADD MSTORE REVERT JUMPDEST SWAP2 POP CALLVALUE PUSH2 0x2EF JUMPI PUSH1 0x20 CALLDATASIZE PUSH1 0x3 NOT ADD SLT PUSH2 0x2EF JUMPI CALLDATALOAD PUSH1 0x1 PUSH1 0x1 PUSH1 0xA0 SHL SUB DUP2 AND SWAP3 SWAP1 DUP4 SWAP1 SUB PUSH2 0x2EF JUMPI PUSH1 0x20 SWAP3 PUSH0 MSTORE PUSH1 0x3 DUP4 MSTORE PUSH0 KECCAK256 SLOAD DUP2 MSTORE RETURN JUMPDEST SWAP1 PUSH1 0x1F DUP1 NOT SWAP2 ADD AND DUP2 ADD SWAP1 DUP2 LT PUSH8 0xFFFFFFFFFFFFFFFF DUP3 GT OR PUSH2 0x3C7 JUMPI PUSH1 0x40 MSTORE JUMP JUMPDEST PUSH4 0x4E487B71 PUSH1 0xE0 SHL PUSH0 MSTORE PUSH1 0x41 PUSH1 0x4 MSTORE PUSH1 0x24 PUSH0 REVERT JUMPDEST PUSH1 0x2 SLOAD PUSH1 0x40 MLOAD PUSH4 0x2E1283E3 PUSH1 0xE0 SHL DUP2 MSTORE PUSH1 0x1 PUSH1 0x1 PUSH1 0xA0 SHL SUB SWAP1 SWAP2 AND SWAP1 PUSH1 0x20 SWAP1 DUP2 DUP2 PUSH1 0x4 DUP2 DUP7 GAS STATICCALL SWAP1 DUP2 ISZERO PUSH2 0x4C2 JUMPI PUSH0 SWAP2 PUSH2 0x4DE JUMPI JUMPDEST POP DUP1 ISZERO DUP1 ISZERO PUSH2 0x4D4 JUMPI JUMPDEST PUSH2 0x4CD JUMPI NUMBER SUB SWAP2 NUMBER DUP4 GT PUSH2 0x480 JUMPI DUP2 PUSH1 0x4 SWAP2 PUSH1 0x40 MLOAD SWAP3 DUP4 DUP1 SWAP3 PUSH4 0x1E960363 PUSH1 0xE3 SHL DUP3 MSTORE GAS STATICCALL SWAP2 DUP3 ISZERO PUSH2 0x4C2 JUMPI PUSH0 SWAP3 PUSH2 0x494 JUMPI JUMPDEST POP POP DUP2 DUP2 MUL SWAP2 DUP2 DUP4 DIV EQ SWAP1 ISZERO OR ISZERO PUSH2 0x480 JUMPI PUSH1 0x64 DUP2 MUL SWAP1 DUP1 DUP3 DIV PUSH1 0x64 EQ SWAP1 ISZERO OR ISZERO PUSH2 0x480 JUMPI PUSH8 0xDE0B6B3A7640000 SWAP1 DIV SWAP1 JUMP JUMPDEST PUSH4 0x4E487B71 PUSH1 0xE0 SHL PUSH0 MSTORE PUSH1 0x11 PUSH1 0x4 MSTORE PUSH1 0x24 PUSH0 REVERT JUMPDEST SWAP1 DUP1 SWAP3 POP DUP2 RETURNDATASIZE DUP4 GT PUSH2 0x4BB JUMPI JUMPDEST PUSH2 0x4AB DUP2 DUP4 PUSH2 0x3A5 JUMP JUMPDEST DUP2 ADD SUB SLT PUSH2 0x2EF JUMPI MLOAD PUSH0 DUP1 PUSH2 0x44D JUMP JUMPDEST POP RETURNDATASIZE PUSH2 0x4A1 JUMP JUMPDEST PUSH1 0x40 MLOAD RETURNDATASIZE PUSH0 DUP3 RETURNDATACOPY RETURNDATASIZE SWAP1 REVERT JUMPDEST POP POP POP PUSH0 SWAP1 JUMP JUMPDEST POP DUP1 NUMBER GT ISZERO PUSH2 0x41A JUMP JUMPDEST SWAP1 POP DUP2 DUP2 DUP2 RETURNDATASIZE DUP4 GT PUSH2 0x504 JUMPI JUMPDEST PUSH2 0x4F5 DUP2 DUP4 PUSH2 0x3A5 JUMP JUMPDEST DUP2 ADD SUB SLT PUSH2 0x2EF JUMPI MLOAD PUSH0 PUSH2 0x410 JUMP JUMPDEST POP RETURNDATASIZE PUSH2 0x4EB JUMP INVALID LOG2 PUSH5 0x6970667358 0x22 SLT KECCAK256 DUP10 DUP6 0xA5 RETURNDATASIZE 0xCF CALLCODE SWAP7 SWAP12 RETURNDATASIZE PUSH23 0xDF26546AB67AC4B5C94785B6D2AB3EE49BDE3045A90664 PUSH20 0x6F6C634300081900330000000000000000000000 "
		},
		"gasEstimates": {
			"creation": {
				"codeDepositCost": "269000",
				"executionCost": "infinite",
				"totalCost": "infinite"
			},
			"external": {
				"REWARD_RATE()": "216",
				"accrueReward(address)": "infinite",
				"claimRewards()": "infinite",
				"rewardToken()": "2404",
				"rewards(address)": "2375",
				"tuliaPool()": "2387"
			},
			"internal": {
				"calculateReward(address)": "infinite"
			}
		},
		"methodIdentifiers": {
			"REWARD_RATE()": "5997bb37",
			"accrueReward(address)": "978e08d7",
			"claimRewards()": "372500ab",
			"rewardToken()": "f7c618c1",
			"rewards(address)": "0700037d",
			"tuliaPool()": "db5f7ccf"
		}
	},
	"abi": [
		{
			"inputs": [
				{
					"internalType": "address",
					"name": "_rewardToken",
					"type": "address"
				},
				{
					"internalType": "address",
					"name": "_tuliaPool",
					"type": "address"
				}
			],
			"stateMutability": "nonpayable",
			"type": "constructor"
		},
		{
			"anonymous": false,
			"inputs": [
				{
					"indexed": true,
					"internalType": "address",
					"name": "user",
					"type": "address"
				},
				{
					"indexed": false,
					"internalType": "uint256",
					"name": "reward",
					"type": "uint256"
				}
			],
			"name": "RewardAccrued",
			"type": "event"
		},
		{
			"inputs": [],
			"name": "REWARD_RATE",
			"outputs": [
				{
					"internalType": "uint256",
					"name": "",
					"type": "uint256"
				}
			],
			"stateMutability": "view",
			"type": "function"
		},
		{
			"inputs": [
				{
					"internalType": "address",
					"name": "user",
					"type": "address"
				}
			],
			"name": "accrueReward",
			"outputs": [],
			"stateMutability": "nonpayable",
			"type": "function"
		},
		{
			"inputs": [],
			"name": "claimRewards",
			"outputs": [],
			"stateMutability": "nonpayable",
			"type": "function"
		},
		{
			"inputs": [],
			"name": "rewardToken",
			"outputs": [
				{
					"internalType": "contract IMockToken",
					"name": "",
					"type": "address"
				}
			],
			"stateMutability": "view",
			"type": "function"
		},
		{
			"inputs": [
				{
					"internalType": "address",
					"name": "",
					"type": "address"
				}
			],
			"name": "rewards",
			"outputs": [
				{
					"internalType": "uint256",
					"name": "",
					"type": "uint256"
				}
			],
			"stateMutability": "view",
			"type": "function"
		},
		{
			"inputs": [],
			"name": "tuliaPool",
			"outputs": [
				{
					"internalType": "contract TuliaPool",
					"name": "",
					"type": "address"
				}
			],
			"stateMutability": "view",
			"type": "function"
		}
	]
}