{
	"data": {
		"bytecode": {
			"linkReferences": {},
			"object": "608034607057601f61070638819003918201601f19168301916001600160401b03831184841017607457808492602094604052833981010312607057516001600160a01b0381169081900360705760015f5560018060a01b0319600154161760015560405161067d90816100898239f35b5f80fd5b634e487b7160e01b5f52604160045260245ffdfe6080604081815260049182361015610015575f80fd5b5f3560e01c90816301ec2d0314610559575080637286e5e5146104215780637e72c7d71461035d578063978e08d714610226578063cf172403146101ca5763ef5cfb8c14610061575f80fd5b3461013a5760208060031936011261013a5761007b61057c565b60025f54146101885760025f5560018060a01b0380911693845f5260028352835f20916001830192835493841561014f57859288925f604493555416935f8851958694859363a9059cbb60e01b85528401528760248401525af180156101455761010e575b507f106f923f993c2149d49b4255ff723acafa1f2d94393f561d3eda32ae348f72419251908152a260015f55005b8281813d831161013e575b6101238183610592565b8101031261013a57518015150361013a575f6100e0565b5f80fd5b503d610119565b84513d5f823e3d90fd5b865162461bcd60e51b815280850187905260136024820152724e6f207265776172647320746f20636c61696d60681b6044820152606490fd5b50905162461bcd60e51b815291820152601f60248201527f5265656e7472616e637947756172643a207265656e7472616e742063616c6c006044820152606490fd5b503461013a57602036600319011261013a576080906001600160a01b0390816101f161057c565b165f526002602052805f2091825416916001810154916003600283015492015492815194855260208501528301526060820152f35b50903461013a57602036600319011261013a576001600160a01b0361024961057c565b1691825f526002602052805f206003810190815493841561030c5760028201918254804303964388116102f9578088029788041490431417156102e6576001018054918683018093116102d35750554390557f578afab8065b30a5e9827120e4905b8a1810e180d2f793ca54af6f7633f4e57a9260209290916102ca6105c8565b905551908152a2005b601190634e487b7160e01b5f525260245ffd5b601182634e487b7160e01b5f525260245ffd5b601184634e487b7160e01b5f525260245ffd5b608490602085519162461bcd60e51b8352820152602560248201527f52657761726473206e6f7420696e697469616c697a656420666f722074686973604482015264081c1bdbdb60da1b6064820152fd5b50903461013a57602036600319011261013a576001600160a01b0361038061057c565b169081156103d2577f334d0b2111287dfddebe4b4c1c5af3ae644909d7fcd024377bf601e236ed5abb60208385815f52600283525f6003828220828155826001820155826002820155015551908152a1005b608490602084519162461bcd60e51b8352820152602360248201527f4e6f20706f6f6c207265676973746572656420666f722074686973206164647260448201526265737360e81b6064820152fd5b503461013a578060031936011261013a5761043a61057c565b6001600160a01b039290602435848116919082900361013a5784169384151580610550575b156105195761046c6105c8565b91845193608085019085821067ffffffffffffffff831117610506577f9cc152f4650ca2829a210a21551537f4cc4d48c2611ec06974f835e911921b90602089898960038a8a8a8a865284528684015f81528585019143835260608601938452875f5260028952865f209551166bffffffffffffffffffffffff60a01b8654161785555160018501555160028401555191015551908152a1005b604190634e487b7160e01b5f525260245ffd5b835162461bcd60e51b81526020818501526011602482015270496e76616c69642061646472657373657360781b6044820152606490fd5b5081151561045f565b3461013a575f36600319011261013a576001546001600160a01b03168152602090f35b600435906001600160a01b038216820361013a57565b90601f8019910116810190811067ffffffffffffffff8211176105b457604052565b634e487b7160e01b5f52604160045260245ffd5b600154604051634b16524b60e11b815290602090829060049082906001600160a01b03165afa801561063c575f90610606575b6301e1338091500490565b506020813d602011610634575b8161062060209383610592565b8101031261013a576301e1338090516105fb565b3d9150610613565b6040513d5f823e3d90fdfea2646970667358221220d00f3080eb9a101cba9b5fdf5ebac5448a088fbfd4468f203992c604e94366f964736f6c63430008190033",
			"opcodes": "PUSH1 0x80 CALLVALUE PUSH1 0x70 JUMPI PUSH1 0x1F PUSH2 0x706 CODESIZE DUP2 SWAP1 SUB SWAP2 DUP3 ADD PUSH1 0x1F NOT AND DUP4 ADD SWAP2 PUSH1 0x1 PUSH1 0x1 PUSH1 0x40 SHL SUB DUP4 GT DUP5 DUP5 LT OR PUSH1 0x74 JUMPI DUP1 DUP5 SWAP3 PUSH1 0x20 SWAP5 PUSH1 0x40 MSTORE DUP4 CODECOPY DUP2 ADD SUB SLT PUSH1 0x70 JUMPI MLOAD PUSH1 0x1 PUSH1 0x1 PUSH1 0xA0 SHL SUB DUP2 AND SWAP1 DUP2 SWAP1 SUB PUSH1 0x70 JUMPI PUSH1 0x1 PUSH0 SSTORE PUSH1 0x1 DUP1 PUSH1 0xA0 SHL SUB NOT PUSH1 0x1 SLOAD AND OR PUSH1 0x1 SSTORE PUSH1 0x40 MLOAD PUSH2 0x67D SWAP1 DUP2 PUSH2 0x89 DUP3 CODECOPY RETURN JUMPDEST PUSH0 DUP1 REVERT JUMPDEST PUSH4 0x4E487B71 PUSH1 0xE0 SHL PUSH0 MSTORE PUSH1 0x41 PUSH1 0x4 MSTORE PUSH1 0x24 PUSH0 REVERT INVALID PUSH1 0x80 PUSH1 0x40 DUP2 DUP2 MSTORE PUSH1 0x4 SWAP2 DUP3 CALLDATASIZE LT ISZERO PUSH2 0x15 JUMPI PUSH0 DUP1 REVERT JUMPDEST PUSH0 CALLDATALOAD PUSH1 0xE0 SHR SWAP1 DUP2 PUSH4 0x1EC2D03 EQ PUSH2 0x559 JUMPI POP DUP1 PUSH4 0x7286E5E5 EQ PUSH2 0x421 JUMPI DUP1 PUSH4 0x7E72C7D7 EQ PUSH2 0x35D JUMPI DUP1 PUSH4 0x978E08D7 EQ PUSH2 0x226 JUMPI DUP1 PUSH4 0xCF172403 EQ PUSH2 0x1CA JUMPI PUSH4 0xEF5CFB8C EQ PUSH2 0x61 JUMPI PUSH0 DUP1 REVERT JUMPDEST CALLVALUE PUSH2 0x13A JUMPI PUSH1 0x20 DUP1 PUSH1 0x3 NOT CALLDATASIZE ADD SLT PUSH2 0x13A JUMPI PUSH2 0x7B PUSH2 0x57C JUMP JUMPDEST PUSH1 0x2 PUSH0 SLOAD EQ PUSH2 0x188 JUMPI PUSH1 0x2 PUSH0 SSTORE PUSH1 0x1 DUP1 PUSH1 0xA0 SHL SUB DUP1 SWAP2 AND SWAP4 DUP5 PUSH0 MSTORE PUSH1 0x2 DUP4 MSTORE DUP4 PUSH0 KECCAK256 SWAP2 PUSH1 0x1 DUP4 ADD SWAP3 DUP4 SLOAD SWAP4 DUP5 ISZERO PUSH2 0x14F JUMPI DUP6 SWAP3 DUP9 SWAP3 PUSH0 PUSH1 0x44 SWAP4 SSTORE SLOAD AND SWAP4 PUSH0 DUP9 MLOAD SWAP6 DUP7 SWAP5 DUP6 SWAP4 PUSH4 0xA9059CBB PUSH1 0xE0 SHL DUP6 MSTORE DUP5 ADD MSTORE DUP8 PUSH1 0x24 DUP5 ADD MSTORE GAS CALL DUP1 ISZERO PUSH2 0x145 JUMPI PUSH2 0x10E JUMPI JUMPDEST POP PUSH32 0x106F923F993C2149D49B4255FF723ACAFA1F2D94393F561D3EDA32AE348F7241 SWAP3 MLOAD SWAP1 DUP2 MSTORE LOG2 PUSH1 0x1 PUSH0 SSTORE STOP JUMPDEST DUP3 DUP2 DUP2 RETURNDATASIZE DUP4 GT PUSH2 0x13E JUMPI JUMPDEST PUSH2 0x123 DUP2 DUP4 PUSH2 0x592 JUMP JUMPDEST DUP2 ADD SUB SLT PUSH2 0x13A JUMPI MLOAD DUP1 ISZERO ISZERO SUB PUSH2 0x13A JUMPI PUSH0 PUSH2 0xE0 JUMP JUMPDEST PUSH0 DUP1 REVERT JUMPDEST POP RETURNDATASIZE PUSH2 0x119 JUMP JUMPDEST DUP5 MLOAD RETURNDATASIZE PUSH0 DUP3 RETURNDATACOPY RETURNDATASIZE SWAP1 REVERT JUMPDEST DUP7 MLOAD PUSH3 0x461BCD PUSH1 0xE5 SHL DUP2 MSTORE DUP1 DUP6 ADD DUP8 SWAP1 MSTORE PUSH1 0x13 PUSH1 0x24 DUP3 ADD MSTORE PUSH19 0x4E6F207265776172647320746F20636C61696D PUSH1 0x68 SHL PUSH1 0x44 DUP3 ADD MSTORE PUSH1 0x64 SWAP1 REVERT JUMPDEST POP SWAP1 MLOAD PUSH3 0x461BCD PUSH1 0xE5 SHL DUP2 MSTORE SWAP2 DUP3 ADD MSTORE PUSH1 0x1F PUSH1 0x24 DUP3 ADD MSTORE PUSH32 0x5265656E7472616E637947756172643A207265656E7472616E742063616C6C00 PUSH1 0x44 DUP3 ADD MSTORE PUSH1 0x64 SWAP1 REVERT JUMPDEST POP CALLVALUE PUSH2 0x13A JUMPI PUSH1 0x20 CALLDATASIZE PUSH1 0x3 NOT ADD SLT PUSH2 0x13A JUMPI PUSH1 0x80 SWAP1 PUSH1 0x1 PUSH1 0x1 PUSH1 0xA0 SHL SUB SWAP1 DUP2 PUSH2 0x1F1 PUSH2 0x57C JUMP JUMPDEST AND PUSH0 MSTORE PUSH1 0x2 PUSH1 0x20 MSTORE DUP1 PUSH0 KECCAK256 SWAP2 DUP3 SLOAD AND SWAP2 PUSH1 0x1 DUP2 ADD SLOAD SWAP2 PUSH1 0x3 PUSH1 0x2 DUP4 ADD SLOAD SWAP3 ADD SLOAD SWAP3 DUP2 MLOAD SWAP5 DUP6 MSTORE PUSH1 0x20 DUP6 ADD MSTORE DUP4 ADD MSTORE PUSH1 0x60 DUP3 ADD MSTORE RETURN JUMPDEST POP SWAP1 CALLVALUE PUSH2 0x13A JUMPI PUSH1 0x20 CALLDATASIZE PUSH1 0x3 NOT ADD SLT PUSH2 0x13A JUMPI PUSH1 0x1 PUSH1 0x1 PUSH1 0xA0 SHL SUB PUSH2 0x249 PUSH2 0x57C JUMP JUMPDEST AND SWAP2 DUP3 PUSH0 MSTORE PUSH1 0x2 PUSH1 0x20 MSTORE DUP1 PUSH0 KECCAK256 PUSH1 0x3 DUP2 ADD SWAP1 DUP2 SLOAD SWAP4 DUP5 ISZERO PUSH2 0x30C JUMPI PUSH1 0x2 DUP3 ADD SWAP2 DUP3 SLOAD DUP1 NUMBER SUB SWAP7 NUMBER DUP9 GT PUSH2 0x2F9 JUMPI DUP1 DUP9 MUL SWAP8 DUP9 DIV EQ SWAP1 NUMBER EQ OR ISZERO PUSH2 0x2E6 JUMPI PUSH1 0x1 ADD DUP1 SLOAD SWAP2 DUP7 DUP4 ADD DUP1 SWAP4 GT PUSH2 0x2D3 JUMPI POP SSTORE NUMBER SWAP1 SSTORE PUSH32 0x578AFAB8065B30A5E9827120E4905B8A1810E180D2F793CA54AF6F7633F4E57A SWAP3 PUSH1 0x20 SWAP3 SWAP1 SWAP2 PUSH2 0x2CA PUSH2 0x5C8 JUMP JUMPDEST SWAP1 SSTORE MLOAD SWAP1 DUP2 MSTORE LOG2 STOP JUMPDEST PUSH1 0x11 SWAP1 PUSH4 0x4E487B71 PUSH1 0xE0 SHL PUSH0 MSTORE MSTORE PUSH1 0x24 PUSH0 REVERT JUMPDEST PUSH1 0x11 DUP3 PUSH4 0x4E487B71 PUSH1 0xE0 SHL PUSH0 MSTORE MSTORE PUSH1 0x24 PUSH0 REVERT JUMPDEST PUSH1 0x11 DUP5 PUSH4 0x4E487B71 PUSH1 0xE0 SHL PUSH0 MSTORE MSTORE PUSH1 0x24 PUSH0 REVERT JUMPDEST PUSH1 0x84 SWAP1 PUSH1 0x20 DUP6 MLOAD SWAP2 PUSH3 0x461BCD PUSH1 0xE5 SHL DUP4 MSTORE DUP3 ADD MSTORE PUSH1 0x25 PUSH1 0x24 DUP3 ADD MSTORE PUSH32 0x52657761726473206E6F7420696E697469616C697A656420666F722074686973 PUSH1 0x44 DUP3 ADD MSTORE PUSH5 0x81C1BDBDB PUSH1 0xDA SHL PUSH1 0x64 DUP3 ADD MSTORE REVERT JUMPDEST POP SWAP1 CALLVALUE PUSH2 0x13A JUMPI PUSH1 0x20 CALLDATASIZE PUSH1 0x3 NOT ADD SLT PUSH2 0x13A JUMPI PUSH1 0x1 PUSH1 0x1 PUSH1 0xA0 SHL SUB PUSH2 0x380 PUSH2 0x57C JUMP JUMPDEST AND SWAP1 DUP2 ISZERO PUSH2 0x3D2 JUMPI PUSH32 0x334D0B2111287DFDDEBE4B4C1C5AF3AE644909D7FCD024377BF601E236ED5ABB PUSH1 0x20 DUP4 DUP6 DUP2 PUSH0 MSTORE PUSH1 0x2 DUP4 MSTORE PUSH0 PUSH1 0x3 DUP3 DUP3 KECCAK256 DUP3 DUP2 SSTORE DUP3 PUSH1 0x1 DUP3 ADD SSTORE DUP3 PUSH1 0x2 DUP3 ADD SSTORE ADD SSTORE MLOAD SWAP1 DUP2 MSTORE LOG1 STOP JUMPDEST PUSH1 0x84 SWAP1 PUSH1 0x20 DUP5 MLOAD SWAP2 PUSH3 0x461BCD PUSH1 0xE5 SHL DUP4 MSTORE DUP3 ADD MSTORE PUSH1 0x23 PUSH1 0x24 DUP3 ADD MSTORE PUSH32 0x4E6F20706F6F6C207265676973746572656420666F7220746869732061646472 PUSH1 0x44 DUP3 ADD MSTORE PUSH3 0x657373 PUSH1 0xE8 SHL PUSH1 0x64 DUP3 ADD MSTORE REVERT JUMPDEST POP CALLVALUE PUSH2 0x13A JUMPI DUP1 PUSH1 0x3 NOT CALLDATASIZE ADD SLT PUSH2 0x13A JUMPI PUSH2 0x43A PUSH2 0x57C JUMP JUMPDEST PUSH1 0x1 PUSH1 0x1 PUSH1 0xA0 SHL SUB SWAP3 SWAP1 PUSH1 0x24 CALLDATALOAD DUP5 DUP2 AND SWAP2 SWAP1 DUP3 SWAP1 SUB PUSH2 0x13A JUMPI DUP5 AND SWAP4 DUP5 ISZERO ISZERO DUP1 PUSH2 0x550 JUMPI JUMPDEST ISZERO PUSH2 0x519 JUMPI PUSH2 0x46C PUSH2 0x5C8 JUMP JUMPDEST SWAP2 DUP5 MLOAD SWAP4 PUSH1 0x80 DUP6 ADD SWAP1 DUP6 DUP3 LT PUSH8 0xFFFFFFFFFFFFFFFF DUP4 GT OR PUSH2 0x506 JUMPI PUSH32 0x9CC152F4650CA2829A210A21551537F4CC4D48C2611EC06974F835E911921B90 PUSH1 0x20 DUP10 DUP10 DUP10 PUSH1 0x3 DUP11 DUP11 DUP11 DUP11 DUP7 MSTORE DUP5 MSTORE DUP7 DUP5 ADD PUSH0 DUP2 MSTORE DUP6 DUP6 ADD SWAP2 NUMBER DUP4 MSTORE PUSH1 0x60 DUP7 ADD SWAP4 DUP5 MSTORE DUP8 PUSH0 MSTORE PUSH1 0x2 DUP10 MSTORE DUP7 PUSH0 KECCAK256 SWAP6 MLOAD AND PUSH12 0xFFFFFFFFFFFFFFFFFFFFFFFF PUSH1 0xA0 SHL DUP7 SLOAD AND OR DUP6 SSTORE MLOAD PUSH1 0x1 DUP6 ADD SSTORE MLOAD PUSH1 0x2 DUP5 ADD SSTORE MLOAD SWAP2 ADD SSTORE MLOAD SWAP1 DUP2 MSTORE LOG1 STOP JUMPDEST PUSH1 0x41 SWAP1 PUSH4 0x4E487B71 PUSH1 0xE0 SHL PUSH0 MSTORE MSTORE PUSH1 0x24 PUSH0 REVERT JUMPDEST DUP4 MLOAD PUSH3 0x461BCD PUSH1 0xE5 SHL DUP2 MSTORE PUSH1 0x20 DUP2 DUP6 ADD MSTORE PUSH1 0x11 PUSH1 0x24 DUP3 ADD MSTORE PUSH17 0x496E76616C696420616464726573736573 PUSH1 0x78 SHL PUSH1 0x44 DUP3 ADD MSTORE PUSH1 0x64 SWAP1 REVERT JUMPDEST POP DUP2 ISZERO ISZERO PUSH2 0x45F JUMP JUMPDEST CALLVALUE PUSH2 0x13A JUMPI PUSH0 CALLDATASIZE PUSH1 0x3 NOT ADD SLT PUSH2 0x13A JUMPI PUSH1 0x1 SLOAD PUSH1 0x1 PUSH1 0x1 PUSH1 0xA0 SHL SUB AND DUP2 MSTORE PUSH1 0x20 SWAP1 RETURN JUMPDEST PUSH1 0x4 CALLDATALOAD SWAP1 PUSH1 0x1 PUSH1 0x1 PUSH1 0xA0 SHL SUB DUP3 AND DUP3 SUB PUSH2 0x13A JUMPI JUMP JUMPDEST SWAP1 PUSH1 0x1F DUP1 NOT SWAP2 ADD AND DUP2 ADD SWAP1 DUP2 LT PUSH8 0xFFFFFFFFFFFFFFFF DUP3 GT OR PUSH2 0x5B4 JUMPI PUSH1 0x40 MSTORE JUMP JUMPDEST PUSH4 0x4E487B71 PUSH1 0xE0 SHL PUSH0 MSTORE PUSH1 0x41 PUSH1 0x4 MSTORE PUSH1 0x24 PUSH0 REVERT JUMPDEST PUSH1 0x1 SLOAD PUSH1 0x40 MLOAD PUSH4 0x4B16524B PUSH1 0xE1 SHL DUP2 MSTORE SWAP1 PUSH1 0x20 SWAP1 DUP3 SWAP1 PUSH1 0x4 SWAP1 DUP3 SWAP1 PUSH1 0x1 PUSH1 0x1 PUSH1 0xA0 SHL SUB AND GAS STATICCALL DUP1 ISZERO PUSH2 0x63C JUMPI PUSH0 SWAP1 PUSH2 0x606 JUMPI JUMPDEST PUSH4 0x1E13380 SWAP2 POP DIV SWAP1 JUMP JUMPDEST POP PUSH1 0x20 DUP2 RETURNDATASIZE PUSH1 0x20 GT PUSH2 0x634 JUMPI JUMPDEST DUP2 PUSH2 0x620 PUSH1 0x20 SWAP4 DUP4 PUSH2 0x592 JUMP JUMPDEST DUP2 ADD SUB SLT PUSH2 0x13A JUMPI PUSH4 0x1E13380 SWAP1 MLOAD PUSH2 0x5FB JUMP JUMPDEST RETURNDATASIZE SWAP2 POP PUSH2 0x613 JUMP JUMPDEST PUSH1 0x40 MLOAD RETURNDATASIZE PUSH0 DUP3 RETURNDATACOPY RETURNDATASIZE SWAP1 REVERT INVALID LOG2 PUSH5 0x6970667358 0x22 SLT KECCAK256 0xD0 0xF ADDRESS DUP1 0xEB SWAP11 LT SHR 0xBA SWAP12 PUSH0 0xDF MCOPY 0xBA 0xC5 PREVRANDAO DUP11 ADDMOD DUP16 0xBF 0xD4 CHAINID DUP16 KECCAK256 CODECOPY SWAP3 0xC6 DIV 0xE9 NUMBER PUSH7 0xF964736F6C6343 STOP ADDMOD NOT STOP CALLER "
		},
		"gasEstimates": {
			"creation": {
				"codeDepositCost": "332200",
				"executionCost": "infinite",
				"totalCost": "infinite"
			},
			"external": {
				"accrueReward(address)": "infinite",
				"apyManager()": "2275",
				"claimRewards(address)": "infinite",
				"deregisterPool(address)": "21440",
				"registerPool(address,address)": "infinite",
				"rewardDetails(address)": "8901"
			},
			"internal": {
				"calculateRewardRate()": "infinite"
			}
		},
		"methodIdentifiers": {
			"accrueReward(address)": "978e08d7",
			"apyManager()": "01ec2d03",
			"claimRewards(address)": "ef5cfb8c",
			"deregisterPool(address)": "7e72c7d7",
			"registerPool(address,address)": "7286e5e5",
			"rewardDetails(address)": "cf172403"
		}
	},
	"abi": [
		{
			"inputs": [
				{
					"internalType": "address",
					"name": "_apyManager",
					"type": "address"
				}
			],
			"stateMutability": "nonpayable",
			"type": "constructor"
		},
		{
			"anonymous": false,
			"inputs": [
				{
					"indexed": false,
					"internalType": "address",
					"name": "pool",
					"type": "address"
				}
			],
			"name": "PoolDeregistered",
			"type": "event"
		},
		{
			"anonymous": false,
			"inputs": [
				{
					"indexed": false,
					"internalType": "address",
					"name": "pool",
					"type": "address"
				}
			],
			"name": "PoolRegistered",
			"type": "event"
		},
		{
			"anonymous": false,
			"inputs": [
				{
					"indexed": true,
					"internalType": "address",
					"name": "pool",
					"type": "address"
				},
				{
					"indexed": false,
					"internalType": "uint256",
					"name": "reward",
					"type": "uint256"
				}
			],
			"name": "RewardAccrued",
			"type": "event"
		},
		{
			"anonymous": false,
			"inputs": [
				{
					"indexed": true,
					"internalType": "address",
					"name": "pool",
					"type": "address"
				},
				{
					"indexed": false,
					"internalType": "uint256",
					"name": "reward",
					"type": "uint256"
				}
			],
			"name": "RewardClaimed",
			"type": "event"
		},
		{
			"anonymous": false,
			"inputs": [
				{
					"indexed": true,
					"internalType": "address",
					"name": "pool",
					"type": "address"
				},
				{
					"indexed": false,
					"internalType": "address",
					"name": "rewardToken",
					"type": "address"
				}
			],
			"name": "RewardTokenSet",
			"type": "event"
		},
		{
			"inputs": [
				{
					"internalType": "address",
					"name": "pool",
					"type": "address"
				}
			],
			"name": "accrueReward",
			"outputs": [],
			"stateMutability": "nonpayable",
			"type": "function"
		},
		{
			"inputs": [],
			"name": "apyManager",
			"outputs": [
				{
					"internalType": "contract IAdvancedAPYManager",
					"name": "",
					"type": "address"
				}
			],
			"stateMutability": "view",
			"type": "function"
		},
		{
			"inputs": [
				{
					"internalType": "address",
					"name": "pool",
					"type": "address"
				}
			],
			"name": "claimRewards",
			"outputs": [],
			"stateMutability": "nonpayable",
			"type": "function"
		},
		{
			"inputs": [
				{
					"internalType": "address",
					"name": "pool",
					"type": "address"
				}
			],
			"name": "deregisterPool",
			"outputs": [],
			"stateMutability": "nonpayable",
			"type": "function"
		},
		{
			"inputs": [
				{
					"internalType": "address",
					"name": "pool",
					"type": "address"
				},
				{
					"internalType": "address",
					"name": "rewardToken",
					"type": "address"
				}
			],
			"name": "registerPool",
			"outputs": [],
			"stateMutability": "nonpayable",
			"type": "function"
		},
		{
			"inputs": [
				{
					"internalType": "address",
					"name": "",
					"type": "address"
				}
			],
			"name": "rewardDetails",
			"outputs": [
				{
					"internalType": "contract IERC20",
					"name": "rewardToken",
					"type": "address"
				},
				{
					"internalType": "uint256",
					"name": "rewardsAccrued",
					"type": "uint256"
				},
				{
					"internalType": "uint256",
					"name": "lastRewardBlock",
					"type": "uint256"
				},
				{
					"internalType": "uint256",
					"name": "rewardRate",
					"type": "uint256"
				}
			],
			"stateMutability": "view",
			"type": "function"
		}
	]
}