{
	"data": {
		"bytecode": {
			"linkReferences": {},
			"object": "6080346100e057601f61147d38819003918201601f19168301916001600160401b038311848410176100e45780849260a0946040528339810103126100e05780516001600160a01b03811691908290036100e057602081015160408201516001600160a01b03811691908290036100e05760608301516001600160a01b03811693908490036100e057608001519360015f5560018060a01b0319600254161760025560075560018060a01b0319600454161760045560018060a01b031960055416176005556100cd336100f8565b506003556040516112b990816101a48239f35b5f80fd5b634e487b7160e01b5f52604160045260245ffd5b6001600160a01b0381165f9081525f8051602061145d833981519152602052604090205460ff1661019e576001600160a01b03165f8181525f8051602061145d83398151915260205260408120805460ff191660011790553391907fc60d7a62d8843f2b14bc63f2a5240b187980481ad8c001a3caf4916aef3f667e907f2f8788117e7eff1d82e926ec794901d17c78024a50270940304540a733656f0d9080a4600190565b505f9056fe6080806040526004361015610012575f80fd5b5f905f3560e01c908162abafe114610fcc5750806301ffc9a714610f76578063232fa73314610c5a578063248a9ca314610c2e5780632f2ff15d14610bef57806336568abe14610baa57806338d52e0f14610b815780635cffe9de14610687578063613255ab146105d75780638c9f305f146105b95780638db579941461027e57806391d1485414610234578063a217fddf14610218578063bcead63e146101ef578063c19d93fb1461019c578063c51b9507146101c6578063c694b54c1461019c578063c9c3635314610173578063d547741f1461012b5763d9d98ce4146100f9575f80fd5b3461012857604036600319011261012857602061012061011761101a565b602435906110d1565b604051908152f35b80fd5b50346101285760403660031901126101285761016f60043561014b611004565b9061016a610165825f526001602052600160405f20015490565b611139565b6111ff565b5080f35b50346101285780600319360112610128576005546040516001600160a01b039091168152602090f35b50346101285780600319360112610128576101c260ff6008541660405191829182611030565b0390f35b50346101285780600319360112610128576004546040516001600160a01b039091168152602090f35b50346101285780600319360112610128576006546040516001600160a01b039091168152602090f35b5034610128578060031936011261012857602090604051908152f35b5034610128576040366003190112610128576040610250611004565b9160043581526001602052209060018060a01b03165f52602052602060ff60405f2054166040519015158152f35b503461012857806003193601126101285761029761111b565b600680546001600160a01b031916339081179091556002546040516370a0823160e01b815260048101929092526001600160a01b0316602082602481845afa9182156105ae57839261057a575b5060035480921061052757604051636eb1769f60e11b8152336004820152306024820152602081604481855afa801561051c57839185916104e3575b5010610492576040516323b872dd60e01b815233600482015230602482015260448101929092526020908290606490829086905af1908115610417578291610463575b50156104265760055460025482916001600160a01b039182169116803b1561042257604051637286e5e560e01b81523060048201526001600160a01b0392909216602483015282908290604490829084905af1801561041757610402575b5060ff19600854166008556003546040519081527f726d5f1a838fe31748f737fa3ae5539ccff95952adfc593a1299532b643ff7a860203392a26001815580f35b8161040c91611043565b61012857805f6103c1565b6040513d84823e3d90fd5b5050fd5b60405162461bcd60e51b8152602060048201526015602482015274151bdad95b881d1c985b9cd9995c8819985a5b1959605a1b6044820152606490fd5b610485915060203d60201161048b575b61047d8183611043565b810190611079565b5f610363565b503d610473565b60405162461bcd60e51b815260206004820152602360248201527f416c6c6f77616e6365206e6f742073657420666f72207468697320636f6e74726044820152621858dd60ea1b6064820152608490fd5b9150506020813d602011610514575b816104ff60209383611043565b81010312610510578290515f610320565b5f80fd5b3d91506104f2565b6040513d86823e3d90fd5b60405162461bcd60e51b815260206004820152602560248201527f496e73756666696369656e742062616c616e636520746f2066756e6420746865604482015264103637b0b760d91b6064820152608490fd5b9091506020813d6020116105a6575b8161059660209383611043565b810103126105105751905f6102e4565b3d9150610589565b6040513d85823e3d90fd5b50346101285780600319360112610128576020600754604051908152f35b5034610128576020366003190112610128576105f161101a565b6002546001600160a01b03908116929116820361067e576020602492604051938480926370a0823160e01b82523060048301525afa908115610672579061063f575b60209150604051908152f35b506020813d60201161066a575b8161065960209383611043565b810103126105105760209051610633565b3d915061064c565b604051903d90823e3d90fd5b60209150610120565b5034610128576080366003190112610128576004356001600160a01b0381169190829003610128576106b7611004565b6044359260643567ffffffffffffffff8111610b7d5736602382011215610b7d5780600401359067ffffffffffffffff8211610b79573660248383010111610b795761070161111b565b60ff600854166002811015610b6557610b2e576002546001600160a01b03858116959116919061073d908890610738888614611091565b6110d1565b92604051926370a0823160e01b8452306004850152602084602481845afa938415610aea579088918295610af5575b5060405163a9059cbb60e01b81526001600160a01b0388166004820152602481018b9052916020918391829081604481015b03925af18015610aea57896020936024959360c493610acf575b508060405196879586946323e30c8b60e01b86523360048701528d8387015260448601528a606486015260a060848601528260a4860152018484013781810183018b9052601f01601f1916810103018189885af18015610a04578690610a79575b7f439148f0bbc682ca079e46d6e2c2f0c1e3b820f1a291b069d8882abf8cf18dd9915003610a4057818601808711610a2c576002546040516323b872dd60e01b81526001600160a01b038681166004830152306024830152604482019390935291602091839160649183918b91165af18015610a0457610a0f575b506002546040516370a0823160e01b815230600482015290602090829060249082906001600160a01b03165afa908115610a045786916109d2575b501061098d576008805460ff1916905560025460065460405163a9059cbb60e01b81526001600160a01b0391821660048201526024810184905291602091839160449183918a91165af1801561098257957f9d0d497e678f62d6b162c97b9724a39f45fe674650dcd4a5e88ff6317e63764f92604092600198610965575b5082519182526020820152a355602060405160018152f35b61097d9060203d60201161048b5761047d8183611043565b61094d565b6040513d87823e3d90fd5b60405162461bcd60e51b815260206004820152601b60248201527f466c617368206c6f616e2072657061796d656e74206661696c656400000000006044820152606490fd5b90506020813d6020116109fc575b816109ed60209383611043565b8101031261051057515f6108cf565b3d91506109e0565b6040513d88823e3d90fd5b610a279060203d60201161048b5761047d8183611043565b610894565b634e487b7160e01b86526011600452602486fd5b60405162461bcd60e51b8152602060048201526011602482015270119b185cda081b1bd85b8819985a5b1959607a1b6044820152606490fd5b506020813d602011610ac7575b81610a9360209383611043565b81010312610ac3577f439148f0bbc682ca079e46d6e2c2f0c1e3b820f1a291b069d8882abf8cf18dd99051610819565b8580fd5b3d9150610a86565b610ae590863d881161048b5761047d8183611043565b6107b8565b6040513d8a823e3d90fd5b915093506020813d602011610b26575b81610b1260209383611043565b81010312610510575192879061079e61076c565b3d9150610b05565b60405162461bcd60e51b815260206004820152600f60248201526e141bdbdb081b9bdd08199d5b991959608a1b6044820152606490fd5b634e487b7160e01b86526021600452602486fd5b8480fd5b8380fd5b50346101285780600319360112610128576002546040516001600160a01b039091168152602090f35b503461012857604036600319011261012857610bc4611004565b336001600160a01b03821603610be05761016f906004356111ff565b63334bd91960e11b8252600482fd5b50346101285760403660031901126101285761016f600435610c0f611004565b90610c29610165825f526001602052600160405f20015490565b611173565b50346101285760203660031901126101285760206101206004355f526001602052600160405f20015490565b5034610510575f36600319011261051057610c7361111b565b335f9081527f95902c4d6c8ea17825d5632af066dcb87e033f1b2a91b49a7ad79e83f02c4dec602052604090205460ff1615610f315760ff600854166002811015610f1d57610ed8576002546040516370a0823160e01b815230600482015290602090829060249082906001600160a01b03165afa908115610e5f575f91610ea6575b508015610e6a576008805460ff191660011790556004546001600160a01b0316803b15610510575f809160446040518094819363a956239b60e01b8352306004840152600560248401525af18015610e5f57610e4a575b5060045482906001600160a01b0316803b15610e4657818091602460405180948193637e72c7d760e01b83523060048401525af1801561041757610e31575b505060025460065460405163a9059cbb60e01b81526001600160a01b0391821660048201526024810184905291602091839160449183918891165af180156105ae57610e14575b506006546040519182526001600160a01b0316907fcab22a4e95d29d40da2ace3f6ec72b49954a9bc7b2584f8fd47bf7f357a3ed6f90602090a26001815580f35b610e2c9060203d60201161048b5761047d8183611043565b610dd3565b81610e3b91611043565b610e4657815f610d8c565b5080fd5b610e579192505f90611043565b5f905f610d4d565b6040513d5f823e3d90fd5b60405162461bcd60e51b81526020600482015260146024820152734e6f2066756e647320746f20776974686472617760601b6044820152606490fd5b90506020813d602011610ed0575b81610ec160209383611043565b8101031261051057515f610cf6565b3d9150610eb4565b60405162461bcd60e51b815260206004820152601d60248201527f4c6f616e206973206e6f7420696e20612066756e6465642073746174650000006044820152606490fd5b634e487b7160e01b5f52602160045260245ffd5b60405162461bcd60e51b815260206004820152601860248201527f43616c6c6572206973206e6f7420746865206c656e64657200000000000000006044820152606490fd5b346105105760203660031901126105105760043563ffffffff60e01b811680910361051057602090637965db0b60e01b8114908115610fbb575b506040519015158152f35b6301ffc9a760e01b14905082610fb0565b34610510575f36600319011261051057807fc60d7a62d8843f2b14bc63f2a5240b187980481ad8c001a3caf4916aef3f667e60209252f35b602435906001600160a01b038216820361051057565b600435906001600160a01b038216820361051057565b919060208301926002821015610f1d5752565b90601f8019910116810190811067ffffffffffffffff82111761106557604052565b634e487b7160e01b5f52604160045260245ffd5b90816020910312610510575180151581036105105790565b1561109857565b60405162461bcd60e51b81526020600482015260116024820152702ab739bab83837b93a32b2103a37b5b2b760791b6044820152606490fd5b6002546110eb916001600160a01b03908116911614611091565b6007549081810291818304149015171561110757612710900490565b634e487b7160e01b5f52601160045260245ffd5b60025f541461112a5760025f55565b633ee5aeb560e01b5f5260045ffd5b5f81815260016020908152604080832033845290915290205460ff161561115d5750565b63e2517d3f60e01b5f523360045260245260445ffd5b5f8181526001602090815260408083206001600160a01b038616845290915290205460ff166111f9575f8181526001602081815260408084206001600160a01b0396909616808552959091528220805460ff19169091179055339291907f2f8788117e7eff1d82e926ec794901d17c78024a50270940304540a733656f0d9080a4600190565b50505f90565b5f8181526001602090815260408083206001600160a01b038616845290915290205460ff16156111f9575f8181526001602090815260408083206001600160a01b0395909516808452949091528120805460ff19169055339291907ff6391f5c32d9c69d2a47ea670b442974b53935d1edc7fd64eb21e047a839171b9080a460019056fea2646970667358221220d7333b3bef3dd6a9b4ce6f14ed380ed3e6b545e1ada29b3de6a23dd7232689ca64736f6c634300081a003395902c4d6c8ea17825d5632af066dcb87e033f1b2a91b49a7ad79e83f02c4dec",
			"opcodes": "PUSH1 0x80 CALLVALUE PUSH2 0xE0 JUMPI PUSH1 0x1F PUSH2 0x147D CODESIZE DUP2 SWAP1 SUB SWAP2 DUP3 ADD PUSH1 0x1F NOT AND DUP4 ADD SWAP2 PUSH1 0x1 PUSH1 0x1 PUSH1 0x40 SHL SUB DUP4 GT DUP5 DUP5 LT OR PUSH2 0xE4 JUMPI DUP1 DUP5 SWAP3 PUSH1 0xA0 SWAP5 PUSH1 0x40 MSTORE DUP4 CODECOPY DUP2 ADD SUB SLT PUSH2 0xE0 JUMPI DUP1 MLOAD PUSH1 0x1 PUSH1 0x1 PUSH1 0xA0 SHL SUB DUP2 AND SWAP2 SWAP1 DUP3 SWAP1 SUB PUSH2 0xE0 JUMPI PUSH1 0x20 DUP2 ADD MLOAD PUSH1 0x40 DUP3 ADD MLOAD PUSH1 0x1 PUSH1 0x1 PUSH1 0xA0 SHL SUB DUP2 AND SWAP2 SWAP1 DUP3 SWAP1 SUB PUSH2 0xE0 JUMPI PUSH1 0x60 DUP4 ADD MLOAD PUSH1 0x1 PUSH1 0x1 PUSH1 0xA0 SHL SUB DUP2 AND SWAP4 SWAP1 DUP5 SWAP1 SUB PUSH2 0xE0 JUMPI PUSH1 0x80 ADD MLOAD SWAP4 PUSH1 0x1 PUSH0 SSTORE PUSH1 0x1 DUP1 PUSH1 0xA0 SHL SUB NOT PUSH1 0x2 SLOAD AND OR PUSH1 0x2 SSTORE PUSH1 0x7 SSTORE PUSH1 0x1 DUP1 PUSH1 0xA0 SHL SUB NOT PUSH1 0x4 SLOAD AND OR PUSH1 0x4 SSTORE PUSH1 0x1 DUP1 PUSH1 0xA0 SHL SUB NOT PUSH1 0x5 SLOAD AND OR PUSH1 0x5 SSTORE PUSH2 0xCD CALLER PUSH2 0xF8 JUMP JUMPDEST POP PUSH1 0x3 SSTORE PUSH1 0x40 MLOAD PUSH2 0x12B9 SWAP1 DUP2 PUSH2 0x1A4 DUP3 CODECOPY RETURN JUMPDEST PUSH0 DUP1 REVERT JUMPDEST PUSH4 0x4E487B71 PUSH1 0xE0 SHL PUSH0 MSTORE PUSH1 0x41 PUSH1 0x4 MSTORE PUSH1 0x24 PUSH0 REVERT JUMPDEST PUSH1 0x1 PUSH1 0x1 PUSH1 0xA0 SHL SUB DUP2 AND PUSH0 SWAP1 DUP2 MSTORE PUSH0 DUP1 MLOAD PUSH1 0x20 PUSH2 0x145D DUP4 CODECOPY DUP2 MLOAD SWAP2 MSTORE PUSH1 0x20 MSTORE PUSH1 0x40 SWAP1 KECCAK256 SLOAD PUSH1 0xFF AND PUSH2 0x19E JUMPI PUSH1 0x1 PUSH1 0x1 PUSH1 0xA0 SHL SUB AND PUSH0 DUP2 DUP2 MSTORE PUSH0 DUP1 MLOAD PUSH1 0x20 PUSH2 0x145D DUP4 CODECOPY DUP2 MLOAD SWAP2 MSTORE PUSH1 0x20 MSTORE PUSH1 0x40 DUP2 KECCAK256 DUP1 SLOAD PUSH1 0xFF NOT AND PUSH1 0x1 OR SWAP1 SSTORE CALLER SWAP2 SWAP1 PUSH32 0xC60D7A62D8843F2B14BC63F2A5240B187980481AD8C001A3CAF4916AEF3F667E SWAP1 PUSH32 0x2F8788117E7EFF1D82E926EC794901D17C78024A50270940304540A733656F0D SWAP1 DUP1 LOG4 PUSH1 0x1 SWAP1 JUMP JUMPDEST POP PUSH0 SWAP1 JUMP INVALID PUSH1 0x80 DUP1 PUSH1 0x40 MSTORE PUSH1 0x4 CALLDATASIZE LT ISZERO PUSH2 0x12 JUMPI PUSH0 DUP1 REVERT JUMPDEST PUSH0 SWAP1 PUSH0 CALLDATALOAD PUSH1 0xE0 SHR SWAP1 DUP2 PUSH3 0xABAFE1 EQ PUSH2 0xFCC JUMPI POP DUP1 PUSH4 0x1FFC9A7 EQ PUSH2 0xF76 JUMPI DUP1 PUSH4 0x232FA733 EQ PUSH2 0xC5A JUMPI DUP1 PUSH4 0x248A9CA3 EQ PUSH2 0xC2E JUMPI DUP1 PUSH4 0x2F2FF15D EQ PUSH2 0xBEF JUMPI DUP1 PUSH4 0x36568ABE EQ PUSH2 0xBAA JUMPI DUP1 PUSH4 0x38D52E0F EQ PUSH2 0xB81 JUMPI DUP1 PUSH4 0x5CFFE9DE EQ PUSH2 0x687 JUMPI DUP1 PUSH4 0x613255AB EQ PUSH2 0x5D7 JUMPI DUP1 PUSH4 0x8C9F305F EQ PUSH2 0x5B9 JUMPI DUP1 PUSH4 0x8DB57994 EQ PUSH2 0x27E JUMPI DUP1 PUSH4 0x91D14854 EQ PUSH2 0x234 JUMPI DUP1 PUSH4 0xA217FDDF EQ PUSH2 0x218 JUMPI DUP1 PUSH4 0xBCEAD63E EQ PUSH2 0x1EF JUMPI DUP1 PUSH4 0xC19D93FB EQ PUSH2 0x19C JUMPI DUP1 PUSH4 0xC51B9507 EQ PUSH2 0x1C6 JUMPI DUP1 PUSH4 0xC694B54C EQ PUSH2 0x19C JUMPI DUP1 PUSH4 0xC9C36353 EQ PUSH2 0x173 JUMPI DUP1 PUSH4 0xD547741F EQ PUSH2 0x12B JUMPI PUSH4 0xD9D98CE4 EQ PUSH2 0xF9 JUMPI PUSH0 DUP1 REVERT JUMPDEST CALLVALUE PUSH2 0x128 JUMPI PUSH1 0x40 CALLDATASIZE PUSH1 0x3 NOT ADD SLT PUSH2 0x128 JUMPI PUSH1 0x20 PUSH2 0x120 PUSH2 0x117 PUSH2 0x101A JUMP JUMPDEST PUSH1 0x24 CALLDATALOAD SWAP1 PUSH2 0x10D1 JUMP JUMPDEST PUSH1 0x40 MLOAD SWAP1 DUP2 MSTORE RETURN JUMPDEST DUP1 REVERT JUMPDEST POP CALLVALUE PUSH2 0x128 JUMPI PUSH1 0x40 CALLDATASIZE PUSH1 0x3 NOT ADD SLT PUSH2 0x128 JUMPI PUSH2 0x16F PUSH1 0x4 CALLDATALOAD PUSH2 0x14B PUSH2 0x1004 JUMP JUMPDEST SWAP1 PUSH2 0x16A PUSH2 0x165 DUP3 PUSH0 MSTORE PUSH1 0x1 PUSH1 0x20 MSTORE PUSH1 0x1 PUSH1 0x40 PUSH0 KECCAK256 ADD SLOAD SWAP1 JUMP JUMPDEST PUSH2 0x1139 JUMP JUMPDEST PUSH2 0x11FF JUMP JUMPDEST POP DUP1 RETURN JUMPDEST POP CALLVALUE PUSH2 0x128 JUMPI DUP1 PUSH1 0x3 NOT CALLDATASIZE ADD SLT PUSH2 0x128 JUMPI PUSH1 0x5 SLOAD PUSH1 0x40 MLOAD PUSH1 0x1 PUSH1 0x1 PUSH1 0xA0 SHL SUB SWAP1 SWAP2 AND DUP2 MSTORE PUSH1 0x20 SWAP1 RETURN JUMPDEST POP CALLVALUE PUSH2 0x128 JUMPI DUP1 PUSH1 0x3 NOT CALLDATASIZE ADD SLT PUSH2 0x128 JUMPI PUSH2 0x1C2 PUSH1 0xFF PUSH1 0x8 SLOAD AND PUSH1 0x40 MLOAD SWAP2 DUP3 SWAP2 DUP3 PUSH2 0x1030 JUMP JUMPDEST SUB SWAP1 RETURN JUMPDEST POP CALLVALUE PUSH2 0x128 JUMPI DUP1 PUSH1 0x3 NOT CALLDATASIZE ADD SLT PUSH2 0x128 JUMPI PUSH1 0x4 SLOAD PUSH1 0x40 MLOAD PUSH1 0x1 PUSH1 0x1 PUSH1 0xA0 SHL SUB SWAP1 SWAP2 AND DUP2 MSTORE PUSH1 0x20 SWAP1 RETURN JUMPDEST POP CALLVALUE PUSH2 0x128 JUMPI DUP1 PUSH1 0x3 NOT CALLDATASIZE ADD SLT PUSH2 0x128 JUMPI PUSH1 0x6 SLOAD PUSH1 0x40 MLOAD PUSH1 0x1 PUSH1 0x1 PUSH1 0xA0 SHL SUB SWAP1 SWAP2 AND DUP2 MSTORE PUSH1 0x20 SWAP1 RETURN JUMPDEST POP CALLVALUE PUSH2 0x128 JUMPI DUP1 PUSH1 0x3 NOT CALLDATASIZE ADD SLT PUSH2 0x128 JUMPI PUSH1 0x20 SWAP1 PUSH1 0x40 MLOAD SWAP1 DUP2 MSTORE RETURN JUMPDEST POP CALLVALUE PUSH2 0x128 JUMPI PUSH1 0x40 CALLDATASIZE PUSH1 0x3 NOT ADD SLT PUSH2 0x128 JUMPI PUSH1 0x40 PUSH2 0x250 PUSH2 0x1004 JUMP JUMPDEST SWAP2 PUSH1 0x4 CALLDATALOAD DUP2 MSTORE PUSH1 0x1 PUSH1 0x20 MSTORE KECCAK256 SWAP1 PUSH1 0x1 DUP1 PUSH1 0xA0 SHL SUB AND PUSH0 MSTORE PUSH1 0x20 MSTORE PUSH1 0x20 PUSH1 0xFF PUSH1 0x40 PUSH0 KECCAK256 SLOAD AND PUSH1 0x40 MLOAD SWAP1 ISZERO ISZERO DUP2 MSTORE RETURN JUMPDEST POP CALLVALUE PUSH2 0x128 JUMPI DUP1 PUSH1 0x3 NOT CALLDATASIZE ADD SLT PUSH2 0x128 JUMPI PUSH2 0x297 PUSH2 0x111B JUMP JUMPDEST PUSH1 0x6 DUP1 SLOAD PUSH1 0x1 PUSH1 0x1 PUSH1 0xA0 SHL SUB NOT AND CALLER SWAP1 DUP2 OR SWAP1 SWAP2 SSTORE PUSH1 0x2 SLOAD PUSH1 0x40 MLOAD PUSH4 0x70A08231 PUSH1 0xE0 SHL DUP2 MSTORE PUSH1 0x4 DUP2 ADD SWAP3 SWAP1 SWAP3 MSTORE PUSH1 0x1 PUSH1 0x1 PUSH1 0xA0 SHL SUB AND PUSH1 0x20 DUP3 PUSH1 0x24 DUP2 DUP5 GAS STATICCALL SWAP2 DUP3 ISZERO PUSH2 0x5AE JUMPI DUP4 SWAP3 PUSH2 0x57A JUMPI JUMPDEST POP PUSH1 0x3 SLOAD DUP1 SWAP3 LT PUSH2 0x527 JUMPI PUSH1 0x40 MLOAD PUSH4 0x6EB1769F PUSH1 0xE1 SHL DUP2 MSTORE CALLER PUSH1 0x4 DUP3 ADD MSTORE ADDRESS PUSH1 0x24 DUP3 ADD MSTORE PUSH1 0x20 DUP2 PUSH1 0x44 DUP2 DUP6 GAS STATICCALL DUP1 ISZERO PUSH2 0x51C JUMPI DUP4 SWAP2 DUP6 SWAP2 PUSH2 0x4E3 JUMPI JUMPDEST POP LT PUSH2 0x492 JUMPI PUSH1 0x40 MLOAD PUSH4 0x23B872DD PUSH1 0xE0 SHL DUP2 MSTORE CALLER PUSH1 0x4 DUP3 ADD MSTORE ADDRESS PUSH1 0x24 DUP3 ADD MSTORE PUSH1 0x44 DUP2 ADD SWAP3 SWAP1 SWAP3 MSTORE PUSH1 0x20 SWAP1 DUP3 SWAP1 PUSH1 0x64 SWAP1 DUP3 SWAP1 DUP7 SWAP1 GAS CALL SWAP1 DUP2 ISZERO PUSH2 0x417 JUMPI DUP3 SWAP2 PUSH2 0x463 JUMPI JUMPDEST POP ISZERO PUSH2 0x426 JUMPI PUSH1 0x5 SLOAD PUSH1 0x2 SLOAD DUP3 SWAP2 PUSH1 0x1 PUSH1 0x1 PUSH1 0xA0 SHL SUB SWAP2 DUP3 AND SWAP2 AND DUP1 EXTCODESIZE ISZERO PUSH2 0x422 JUMPI PUSH1 0x40 MLOAD PUSH4 0x7286E5E5 PUSH1 0xE0 SHL DUP2 MSTORE ADDRESS PUSH1 0x4 DUP3 ADD MSTORE PUSH1 0x1 PUSH1 0x1 PUSH1 0xA0 SHL SUB SWAP3 SWAP1 SWAP3 AND PUSH1 0x24 DUP4 ADD MSTORE DUP3 SWAP1 DUP3 SWAP1 PUSH1 0x44 SWAP1 DUP3 SWAP1 DUP5 SWAP1 GAS CALL DUP1 ISZERO PUSH2 0x417 JUMPI PUSH2 0x402 JUMPI JUMPDEST POP PUSH1 0xFF NOT PUSH1 0x8 SLOAD AND PUSH1 0x8 SSTORE PUSH1 0x3 SLOAD PUSH1 0x40 MLOAD SWAP1 DUP2 MSTORE PUSH32 0x726D5F1A838FE31748F737FA3AE5539CCFF95952ADFC593A1299532B643FF7A8 PUSH1 0x20 CALLER SWAP3 LOG2 PUSH1 0x1 DUP2 SSTORE DUP1 RETURN JUMPDEST DUP2 PUSH2 0x40C SWAP2 PUSH2 0x1043 JUMP JUMPDEST PUSH2 0x128 JUMPI DUP1 PUSH0 PUSH2 0x3C1 JUMP JUMPDEST PUSH1 0x40 MLOAD RETURNDATASIZE DUP5 DUP3 RETURNDATACOPY RETURNDATASIZE SWAP1 REVERT JUMPDEST POP POP REVERT JUMPDEST PUSH1 0x40 MLOAD PUSH3 0x461BCD PUSH1 0xE5 SHL DUP2 MSTORE PUSH1 0x20 PUSH1 0x4 DUP3 ADD MSTORE PUSH1 0x15 PUSH1 0x24 DUP3 ADD MSTORE PUSH21 0x151BDAD95B881D1C985B9CD9995C8819985A5B1959 PUSH1 0x5A SHL PUSH1 0x44 DUP3 ADD MSTORE PUSH1 0x64 SWAP1 REVERT JUMPDEST PUSH2 0x485 SWAP2 POP PUSH1 0x20 RETURNDATASIZE PUSH1 0x20 GT PUSH2 0x48B JUMPI JUMPDEST PUSH2 0x47D DUP2 DUP4 PUSH2 0x1043 JUMP JUMPDEST DUP2 ADD SWAP1 PUSH2 0x1079 JUMP JUMPDEST PUSH0 PUSH2 0x363 JUMP JUMPDEST POP RETURNDATASIZE PUSH2 0x473 JUMP JUMPDEST PUSH1 0x40 MLOAD PUSH3 0x461BCD PUSH1 0xE5 SHL DUP2 MSTORE PUSH1 0x20 PUSH1 0x4 DUP3 ADD MSTORE PUSH1 0x23 PUSH1 0x24 DUP3 ADD MSTORE PUSH32 0x416C6C6F77616E6365206E6F742073657420666F72207468697320636F6E7472 PUSH1 0x44 DUP3 ADD MSTORE PUSH3 0x1858DD PUSH1 0xEA SHL PUSH1 0x64 DUP3 ADD MSTORE PUSH1 0x84 SWAP1 REVERT JUMPDEST SWAP2 POP POP PUSH1 0x20 DUP2 RETURNDATASIZE PUSH1 0x20 GT PUSH2 0x514 JUMPI JUMPDEST DUP2 PUSH2 0x4FF PUSH1 0x20 SWAP4 DUP4 PUSH2 0x1043 JUMP JUMPDEST DUP2 ADD SUB SLT PUSH2 0x510 JUMPI DUP3 SWAP1 MLOAD PUSH0 PUSH2 0x320 JUMP JUMPDEST PUSH0 DUP1 REVERT JUMPDEST RETURNDATASIZE SWAP2 POP PUSH2 0x4F2 JUMP JUMPDEST PUSH1 0x40 MLOAD RETURNDATASIZE DUP7 DUP3 RETURNDATACOPY RETURNDATASIZE SWAP1 REVERT JUMPDEST PUSH1 0x40 MLOAD PUSH3 0x461BCD PUSH1 0xE5 SHL DUP2 MSTORE PUSH1 0x20 PUSH1 0x4 DUP3 ADD MSTORE PUSH1 0x25 PUSH1 0x24 DUP3 ADD MSTORE PUSH32 0x496E73756666696369656E742062616C616E636520746F2066756E6420746865 PUSH1 0x44 DUP3 ADD MSTORE PUSH5 0x103637B0B7 PUSH1 0xD9 SHL PUSH1 0x64 DUP3 ADD MSTORE PUSH1 0x84 SWAP1 REVERT JUMPDEST SWAP1 SWAP2 POP PUSH1 0x20 DUP2 RETURNDATASIZE PUSH1 0x20 GT PUSH2 0x5A6 JUMPI JUMPDEST DUP2 PUSH2 0x596 PUSH1 0x20 SWAP4 DUP4 PUSH2 0x1043 JUMP JUMPDEST DUP2 ADD SUB SLT PUSH2 0x510 JUMPI MLOAD SWAP1 PUSH0 PUSH2 0x2E4 JUMP JUMPDEST RETURNDATASIZE SWAP2 POP PUSH2 0x589 JUMP JUMPDEST PUSH1 0x40 MLOAD RETURNDATASIZE DUP6 DUP3 RETURNDATACOPY RETURNDATASIZE SWAP1 REVERT JUMPDEST POP CALLVALUE PUSH2 0x128 JUMPI DUP1 PUSH1 0x3 NOT CALLDATASIZE ADD SLT PUSH2 0x128 JUMPI PUSH1 0x20 PUSH1 0x7 SLOAD PUSH1 0x40 MLOAD SWAP1 DUP2 MSTORE RETURN JUMPDEST POP CALLVALUE PUSH2 0x128 JUMPI PUSH1 0x20 CALLDATASIZE PUSH1 0x3 NOT ADD SLT PUSH2 0x128 JUMPI PUSH2 0x5F1 PUSH2 0x101A JUMP JUMPDEST PUSH1 0x2 SLOAD PUSH1 0x1 PUSH1 0x1 PUSH1 0xA0 SHL SUB SWAP1 DUP2 AND SWAP3 SWAP2 AND DUP3 SUB PUSH2 0x67E JUMPI PUSH1 0x20 PUSH1 0x24 SWAP3 PUSH1 0x40 MLOAD SWAP4 DUP5 DUP1 SWAP3 PUSH4 0x70A08231 PUSH1 0xE0 SHL DUP3 MSTORE ADDRESS PUSH1 0x4 DUP4 ADD MSTORE GAS STATICCALL SWAP1 DUP2 ISZERO PUSH2 0x672 JUMPI SWAP1 PUSH2 0x63F JUMPI JUMPDEST PUSH1 0x20 SWAP2 POP PUSH1 0x40 MLOAD SWAP1 DUP2 MSTORE RETURN JUMPDEST POP PUSH1 0x20 DUP2 RETURNDATASIZE PUSH1 0x20 GT PUSH2 0x66A JUMPI JUMPDEST DUP2 PUSH2 0x659 PUSH1 0x20 SWAP4 DUP4 PUSH2 0x1043 JUMP JUMPDEST DUP2 ADD SUB SLT PUSH2 0x510 JUMPI PUSH1 0x20 SWAP1 MLOAD PUSH2 0x633 JUMP JUMPDEST RETURNDATASIZE SWAP2 POP PUSH2 0x64C JUMP JUMPDEST PUSH1 0x40 MLOAD SWAP1 RETURNDATASIZE SWAP1 DUP3 RETURNDATACOPY RETURNDATASIZE SWAP1 REVERT JUMPDEST PUSH1 0x20 SWAP2 POP PUSH2 0x120 JUMP JUMPDEST POP CALLVALUE PUSH2 0x128 JUMPI PUSH1 0x80 CALLDATASIZE PUSH1 0x3 NOT ADD SLT PUSH2 0x128 JUMPI PUSH1 0x4 CALLDATALOAD PUSH1 0x1 PUSH1 0x1 PUSH1 0xA0 SHL SUB DUP2 AND SWAP2 SWAP1 DUP3 SWAP1 SUB PUSH2 0x128 JUMPI PUSH2 0x6B7 PUSH2 0x1004 JUMP JUMPDEST PUSH1 0x44 CALLDATALOAD SWAP3 PUSH1 0x64 CALLDATALOAD PUSH8 0xFFFFFFFFFFFFFFFF DUP2 GT PUSH2 0xB7D JUMPI CALLDATASIZE PUSH1 0x23 DUP3 ADD SLT ISZERO PUSH2 0xB7D JUMPI DUP1 PUSH1 0x4 ADD CALLDATALOAD SWAP1 PUSH8 0xFFFFFFFFFFFFFFFF DUP3 GT PUSH2 0xB79 JUMPI CALLDATASIZE PUSH1 0x24 DUP4 DUP4 ADD ADD GT PUSH2 0xB79 JUMPI PUSH2 0x701 PUSH2 0x111B JUMP JUMPDEST PUSH1 0xFF PUSH1 0x8 SLOAD AND PUSH1 0x2 DUP2 LT ISZERO PUSH2 0xB65 JUMPI PUSH2 0xB2E JUMPI PUSH1 0x2 SLOAD PUSH1 0x1 PUSH1 0x1 PUSH1 0xA0 SHL SUB DUP6 DUP2 AND SWAP6 SWAP2 AND SWAP2 SWAP1 PUSH2 0x73D SWAP1 DUP9 SWAP1 PUSH2 0x738 DUP9 DUP7 EQ PUSH2 0x1091 JUMP JUMPDEST PUSH2 0x10D1 JUMP JUMPDEST SWAP3 PUSH1 0x40 MLOAD SWAP3 PUSH4 0x70A08231 PUSH1 0xE0 SHL DUP5 MSTORE ADDRESS PUSH1 0x4 DUP6 ADD MSTORE PUSH1 0x20 DUP5 PUSH1 0x24 DUP2 DUP5 GAS STATICCALL SWAP4 DUP5 ISZERO PUSH2 0xAEA JUMPI SWAP1 DUP9 SWAP2 DUP3 SWAP6 PUSH2 0xAF5 JUMPI JUMPDEST POP PUSH1 0x40 MLOAD PUSH4 0xA9059CBB PUSH1 0xE0 SHL DUP2 MSTORE PUSH1 0x1 PUSH1 0x1 PUSH1 0xA0 SHL SUB DUP9 AND PUSH1 0x4 DUP3 ADD MSTORE PUSH1 0x24 DUP2 ADD DUP12 SWAP1 MSTORE SWAP2 PUSH1 0x20 SWAP2 DUP4 SWAP2 DUP3 SWAP1 DUP2 PUSH1 0x44 DUP2 ADD JUMPDEST SUB SWAP3 GAS CALL DUP1 ISZERO PUSH2 0xAEA JUMPI DUP10 PUSH1 0x20 SWAP4 PUSH1 0x24 SWAP6 SWAP4 PUSH1 0xC4 SWAP4 PUSH2 0xACF JUMPI JUMPDEST POP DUP1 PUSH1 0x40 MLOAD SWAP7 DUP8 SWAP6 DUP7 SWAP5 PUSH4 0x23E30C8B PUSH1 0xE0 SHL DUP7 MSTORE CALLER PUSH1 0x4 DUP8 ADD MSTORE DUP14 DUP4 DUP8 ADD MSTORE PUSH1 0x44 DUP7 ADD MSTORE DUP11 PUSH1 0x64 DUP7 ADD MSTORE PUSH1 0xA0 PUSH1 0x84 DUP7 ADD MSTORE DUP3 PUSH1 0xA4 DUP7 ADD MSTORE ADD DUP5 DUP5 ADD CALLDATACOPY DUP2 DUP2 ADD DUP4 ADD DUP12 SWAP1 MSTORE PUSH1 0x1F ADD PUSH1 0x1F NOT AND DUP2 ADD SUB ADD DUP2 DUP10 DUP9 GAS CALL DUP1 ISZERO PUSH2 0xA04 JUMPI DUP7 SWAP1 PUSH2 0xA79 JUMPI JUMPDEST PUSH32 0x439148F0BBC682CA079E46D6E2C2F0C1E3B820F1A291B069D8882ABF8CF18DD9 SWAP2 POP SUB PUSH2 0xA40 JUMPI DUP2 DUP7 ADD DUP1 DUP8 GT PUSH2 0xA2C JUMPI PUSH1 0x2 SLOAD PUSH1 0x40 MLOAD PUSH4 0x23B872DD PUSH1 0xE0 SHL DUP2 MSTORE PUSH1 0x1 PUSH1 0x1 PUSH1 0xA0 SHL SUB DUP7 DUP2 AND PUSH1 0x4 DUP4 ADD MSTORE ADDRESS PUSH1 0x24 DUP4 ADD MSTORE PUSH1 0x44 DUP3 ADD SWAP4 SWAP1 SWAP4 MSTORE SWAP2 PUSH1 0x20 SWAP2 DUP4 SWAP2 PUSH1 0x64 SWAP2 DUP4 SWAP2 DUP12 SWAP2 AND GAS CALL DUP1 ISZERO PUSH2 0xA04 JUMPI PUSH2 0xA0F JUMPI JUMPDEST POP PUSH1 0x2 SLOAD PUSH1 0x40 MLOAD PUSH4 0x70A08231 PUSH1 0xE0 SHL DUP2 MSTORE ADDRESS PUSH1 0x4 DUP3 ADD MSTORE SWAP1 PUSH1 0x20 SWAP1 DUP3 SWAP1 PUSH1 0x24 SWAP1 DUP3 SWAP1 PUSH1 0x1 PUSH1 0x1 PUSH1 0xA0 SHL SUB AND GAS STATICCALL SWAP1 DUP2 ISZERO PUSH2 0xA04 JUMPI DUP7 SWAP2 PUSH2 0x9D2 JUMPI JUMPDEST POP LT PUSH2 0x98D JUMPI PUSH1 0x8 DUP1 SLOAD PUSH1 0xFF NOT AND SWAP1 SSTORE PUSH1 0x2 SLOAD PUSH1 0x6 SLOAD PUSH1 0x40 MLOAD PUSH4 0xA9059CBB PUSH1 0xE0 SHL DUP2 MSTORE PUSH1 0x1 PUSH1 0x1 PUSH1 0xA0 SHL SUB SWAP2 DUP3 AND PUSH1 0x4 DUP3 ADD MSTORE PUSH1 0x24 DUP2 ADD DUP5 SWAP1 MSTORE SWAP2 PUSH1 0x20 SWAP2 DUP4 SWAP2 PUSH1 0x44 SWAP2 DUP4 SWAP2 DUP11 SWAP2 AND GAS CALL DUP1 ISZERO PUSH2 0x982 JUMPI SWAP6 PUSH32 0x9D0D497E678F62D6B162C97B9724A39F45FE674650DCD4A5E88FF6317E63764F SWAP3 PUSH1 0x40 SWAP3 PUSH1 0x1 SWAP9 PUSH2 0x965 JUMPI JUMPDEST POP DUP3 MLOAD SWAP2 DUP3 MSTORE PUSH1 0x20 DUP3 ADD MSTORE LOG3 SSTORE PUSH1 0x20 PUSH1 0x40 MLOAD PUSH1 0x1 DUP2 MSTORE RETURN JUMPDEST PUSH2 0x97D SWAP1 PUSH1 0x20 RETURNDATASIZE PUSH1 0x20 GT PUSH2 0x48B JUMPI PUSH2 0x47D DUP2 DUP4 PUSH2 0x1043 JUMP JUMPDEST PUSH2 0x94D JUMP JUMPDEST PUSH1 0x40 MLOAD RETURNDATASIZE DUP8 DUP3 RETURNDATACOPY RETURNDATASIZE SWAP1 REVERT JUMPDEST PUSH1 0x40 MLOAD PUSH3 0x461BCD PUSH1 0xE5 SHL DUP2 MSTORE PUSH1 0x20 PUSH1 0x4 DUP3 ADD MSTORE PUSH1 0x1B PUSH1 0x24 DUP3 ADD MSTORE PUSH32 0x466C617368206C6F616E2072657061796D656E74206661696C65640000000000 PUSH1 0x44 DUP3 ADD MSTORE PUSH1 0x64 SWAP1 REVERT JUMPDEST SWAP1 POP PUSH1 0x20 DUP2 RETURNDATASIZE PUSH1 0x20 GT PUSH2 0x9FC JUMPI JUMPDEST DUP2 PUSH2 0x9ED PUSH1 0x20 SWAP4 DUP4 PUSH2 0x1043 JUMP JUMPDEST DUP2 ADD SUB SLT PUSH2 0x510 JUMPI MLOAD PUSH0 PUSH2 0x8CF JUMP JUMPDEST RETURNDATASIZE SWAP2 POP PUSH2 0x9E0 JUMP JUMPDEST PUSH1 0x40 MLOAD RETURNDATASIZE DUP9 DUP3 RETURNDATACOPY RETURNDATASIZE SWAP1 REVERT JUMPDEST PUSH2 0xA27 SWAP1 PUSH1 0x20 RETURNDATASIZE PUSH1 0x20 GT PUSH2 0x48B JUMPI PUSH2 0x47D DUP2 DUP4 PUSH2 0x1043 JUMP JUMPDEST PUSH2 0x894 JUMP JUMPDEST PUSH4 0x4E487B71 PUSH1 0xE0 SHL DUP7 MSTORE PUSH1 0x11 PUSH1 0x4 MSTORE PUSH1 0x24 DUP7 REVERT JUMPDEST PUSH1 0x40 MLOAD PUSH3 0x461BCD PUSH1 0xE5 SHL DUP2 MSTORE PUSH1 0x20 PUSH1 0x4 DUP3 ADD MSTORE PUSH1 0x11 PUSH1 0x24 DUP3 ADD MSTORE PUSH17 0x119B185CDA081B1BD85B8819985A5B1959 PUSH1 0x7A SHL PUSH1 0x44 DUP3 ADD MSTORE PUSH1 0x64 SWAP1 REVERT JUMPDEST POP PUSH1 0x20 DUP2 RETURNDATASIZE PUSH1 0x20 GT PUSH2 0xAC7 JUMPI JUMPDEST DUP2 PUSH2 0xA93 PUSH1 0x20 SWAP4 DUP4 PUSH2 0x1043 JUMP JUMPDEST DUP2 ADD SUB SLT PUSH2 0xAC3 JUMPI PUSH32 0x439148F0BBC682CA079E46D6E2C2F0C1E3B820F1A291B069D8882ABF8CF18DD9 SWAP1 MLOAD PUSH2 0x819 JUMP JUMPDEST DUP6 DUP1 REVERT JUMPDEST RETURNDATASIZE SWAP2 POP PUSH2 0xA86 JUMP JUMPDEST PUSH2 0xAE5 SWAP1 DUP7 RETURNDATASIZE DUP9 GT PUSH2 0x48B JUMPI PUSH2 0x47D DUP2 DUP4 PUSH2 0x1043 JUMP JUMPDEST PUSH2 0x7B8 JUMP JUMPDEST PUSH1 0x40 MLOAD RETURNDATASIZE DUP11 DUP3 RETURNDATACOPY RETURNDATASIZE SWAP1 REVERT JUMPDEST SWAP2 POP SWAP4 POP PUSH1 0x20 DUP2 RETURNDATASIZE PUSH1 0x20 GT PUSH2 0xB26 JUMPI JUMPDEST DUP2 PUSH2 0xB12 PUSH1 0x20 SWAP4 DUP4 PUSH2 0x1043 JUMP JUMPDEST DUP2 ADD SUB SLT PUSH2 0x510 JUMPI MLOAD SWAP3 DUP8 SWAP1 PUSH2 0x79E PUSH2 0x76C JUMP JUMPDEST RETURNDATASIZE SWAP2 POP PUSH2 0xB05 JUMP JUMPDEST PUSH1 0x40 MLOAD PUSH3 0x461BCD PUSH1 0xE5 SHL DUP2 MSTORE PUSH1 0x20 PUSH1 0x4 DUP3 ADD MSTORE PUSH1 0xF PUSH1 0x24 DUP3 ADD MSTORE PUSH15 0x141BDBDB081B9BDD08199D5B991959 PUSH1 0x8A SHL PUSH1 0x44 DUP3 ADD MSTORE PUSH1 0x64 SWAP1 REVERT JUMPDEST PUSH4 0x4E487B71 PUSH1 0xE0 SHL DUP7 MSTORE PUSH1 0x21 PUSH1 0x4 MSTORE PUSH1 0x24 DUP7 REVERT JUMPDEST DUP5 DUP1 REVERT JUMPDEST DUP4 DUP1 REVERT JUMPDEST POP CALLVALUE PUSH2 0x128 JUMPI DUP1 PUSH1 0x3 NOT CALLDATASIZE ADD SLT PUSH2 0x128 JUMPI PUSH1 0x2 SLOAD PUSH1 0x40 MLOAD PUSH1 0x1 PUSH1 0x1 PUSH1 0xA0 SHL SUB SWAP1 SWAP2 AND DUP2 MSTORE PUSH1 0x20 SWAP1 RETURN JUMPDEST POP CALLVALUE PUSH2 0x128 JUMPI PUSH1 0x40 CALLDATASIZE PUSH1 0x3 NOT ADD SLT PUSH2 0x128 JUMPI PUSH2 0xBC4 PUSH2 0x1004 JUMP JUMPDEST CALLER PUSH1 0x1 PUSH1 0x1 PUSH1 0xA0 SHL SUB DUP3 AND SUB PUSH2 0xBE0 JUMPI PUSH2 0x16F SWAP1 PUSH1 0x4 CALLDATALOAD PUSH2 0x11FF JUMP JUMPDEST PUSH4 0x334BD919 PUSH1 0xE1 SHL DUP3 MSTORE PUSH1 0x4 DUP3 REVERT JUMPDEST POP CALLVALUE PUSH2 0x128 JUMPI PUSH1 0x40 CALLDATASIZE PUSH1 0x3 NOT ADD SLT PUSH2 0x128 JUMPI PUSH2 0x16F PUSH1 0x4 CALLDATALOAD PUSH2 0xC0F PUSH2 0x1004 JUMP JUMPDEST SWAP1 PUSH2 0xC29 PUSH2 0x165 DUP3 PUSH0 MSTORE PUSH1 0x1 PUSH1 0x20 MSTORE PUSH1 0x1 PUSH1 0x40 PUSH0 KECCAK256 ADD SLOAD SWAP1 JUMP JUMPDEST PUSH2 0x1173 JUMP JUMPDEST POP CALLVALUE PUSH2 0x128 JUMPI PUSH1 0x20 CALLDATASIZE PUSH1 0x3 NOT ADD SLT PUSH2 0x128 JUMPI PUSH1 0x20 PUSH2 0x120 PUSH1 0x4 CALLDATALOAD PUSH0 MSTORE PUSH1 0x1 PUSH1 0x20 MSTORE PUSH1 0x1 PUSH1 0x40 PUSH0 KECCAK256 ADD SLOAD SWAP1 JUMP JUMPDEST POP CALLVALUE PUSH2 0x510 JUMPI PUSH0 CALLDATASIZE PUSH1 0x3 NOT ADD SLT PUSH2 0x510 JUMPI PUSH2 0xC73 PUSH2 0x111B JUMP JUMPDEST CALLER PUSH0 SWAP1 DUP2 MSTORE PUSH32 0x95902C4D6C8EA17825D5632AF066DCB87E033F1B2A91B49A7AD79E83F02C4DEC PUSH1 0x20 MSTORE PUSH1 0x40 SWAP1 KECCAK256 SLOAD PUSH1 0xFF AND ISZERO PUSH2 0xF31 JUMPI PUSH1 0xFF PUSH1 0x8 SLOAD AND PUSH1 0x2 DUP2 LT ISZERO PUSH2 0xF1D JUMPI PUSH2 0xED8 JUMPI PUSH1 0x2 SLOAD PUSH1 0x40 MLOAD PUSH4 0x70A08231 PUSH1 0xE0 SHL DUP2 MSTORE ADDRESS PUSH1 0x4 DUP3 ADD MSTORE SWAP1 PUSH1 0x20 SWAP1 DUP3 SWAP1 PUSH1 0x24 SWAP1 DUP3 SWAP1 PUSH1 0x1 PUSH1 0x1 PUSH1 0xA0 SHL SUB AND GAS STATICCALL SWAP1 DUP2 ISZERO PUSH2 0xE5F JUMPI PUSH0 SWAP2 PUSH2 0xEA6 JUMPI JUMPDEST POP DUP1 ISZERO PUSH2 0xE6A JUMPI PUSH1 0x8 DUP1 SLOAD PUSH1 0xFF NOT AND PUSH1 0x1 OR SWAP1 SSTORE PUSH1 0x4 SLOAD PUSH1 0x1 PUSH1 0x1 PUSH1 0xA0 SHL SUB AND DUP1 EXTCODESIZE ISZERO PUSH2 0x510 JUMPI PUSH0 DUP1 SWAP2 PUSH1 0x44 PUSH1 0x40 MLOAD DUP1 SWAP5 DUP2 SWAP4 PUSH4 0xA956239B PUSH1 0xE0 SHL DUP4 MSTORE ADDRESS PUSH1 0x4 DUP5 ADD MSTORE PUSH1 0x5 PUSH1 0x24 DUP5 ADD MSTORE GAS CALL DUP1 ISZERO PUSH2 0xE5F JUMPI PUSH2 0xE4A JUMPI JUMPDEST POP PUSH1 0x4 SLOAD DUP3 SWAP1 PUSH1 0x1 PUSH1 0x1 PUSH1 0xA0 SHL SUB AND DUP1 EXTCODESIZE ISZERO PUSH2 0xE46 JUMPI DUP2 DUP1 SWAP2 PUSH1 0x24 PUSH1 0x40 MLOAD DUP1 SWAP5 DUP2 SWAP4 PUSH4 0x7E72C7D7 PUSH1 0xE0 SHL DUP4 MSTORE ADDRESS PUSH1 0x4 DUP5 ADD MSTORE GAS CALL DUP1 ISZERO PUSH2 0x417 JUMPI PUSH2 0xE31 JUMPI JUMPDEST POP POP PUSH1 0x2 SLOAD PUSH1 0x6 SLOAD PUSH1 0x40 MLOAD PUSH4 0xA9059CBB PUSH1 0xE0 SHL DUP2 MSTORE PUSH1 0x1 PUSH1 0x1 PUSH1 0xA0 SHL SUB SWAP2 DUP3 AND PUSH1 0x4 DUP3 ADD MSTORE PUSH1 0x24 DUP2 ADD DUP5 SWAP1 MSTORE SWAP2 PUSH1 0x20 SWAP2 DUP4 SWAP2 PUSH1 0x44 SWAP2 DUP4 SWAP2 DUP9 SWAP2 AND GAS CALL DUP1 ISZERO PUSH2 0x5AE JUMPI PUSH2 0xE14 JUMPI JUMPDEST POP PUSH1 0x6 SLOAD PUSH1 0x40 MLOAD SWAP2 DUP3 MSTORE PUSH1 0x1 PUSH1 0x1 PUSH1 0xA0 SHL SUB AND SWAP1 PUSH32 0xCAB22A4E95D29D40DA2ACE3F6EC72B49954A9BC7B2584F8FD47BF7F357A3ED6F SWAP1 PUSH1 0x20 SWAP1 LOG2 PUSH1 0x1 DUP2 SSTORE DUP1 RETURN JUMPDEST PUSH2 0xE2C SWAP1 PUSH1 0x20 RETURNDATASIZE PUSH1 0x20 GT PUSH2 0x48B JUMPI PUSH2 0x47D DUP2 DUP4 PUSH2 0x1043 JUMP JUMPDEST PUSH2 0xDD3 JUMP JUMPDEST DUP2 PUSH2 0xE3B SWAP2 PUSH2 0x1043 JUMP JUMPDEST PUSH2 0xE46 JUMPI DUP2 PUSH0 PUSH2 0xD8C JUMP JUMPDEST POP DUP1 REVERT JUMPDEST PUSH2 0xE57 SWAP2 SWAP3 POP PUSH0 SWAP1 PUSH2 0x1043 JUMP JUMPDEST PUSH0 SWAP1 PUSH0 PUSH2 0xD4D JUMP JUMPDEST PUSH1 0x40 MLOAD RETURNDATASIZE PUSH0 DUP3 RETURNDATACOPY RETURNDATASIZE SWAP1 REVERT JUMPDEST PUSH1 0x40 MLOAD PUSH3 0x461BCD PUSH1 0xE5 SHL DUP2 MSTORE PUSH1 0x20 PUSH1 0x4 DUP3 ADD MSTORE PUSH1 0x14 PUSH1 0x24 DUP3 ADD MSTORE PUSH20 0x4E6F2066756E647320746F207769746864726177 PUSH1 0x60 SHL PUSH1 0x44 DUP3 ADD MSTORE PUSH1 0x64 SWAP1 REVERT JUMPDEST SWAP1 POP PUSH1 0x20 DUP2 RETURNDATASIZE PUSH1 0x20 GT PUSH2 0xED0 JUMPI JUMPDEST DUP2 PUSH2 0xEC1 PUSH1 0x20 SWAP4 DUP4 PUSH2 0x1043 JUMP JUMPDEST DUP2 ADD SUB SLT PUSH2 0x510 JUMPI MLOAD PUSH0 PUSH2 0xCF6 JUMP JUMPDEST RETURNDATASIZE SWAP2 POP PUSH2 0xEB4 JUMP JUMPDEST PUSH1 0x40 MLOAD PUSH3 0x461BCD PUSH1 0xE5 SHL DUP2 MSTORE PUSH1 0x20 PUSH1 0x4 DUP3 ADD MSTORE PUSH1 0x1D PUSH1 0x24 DUP3 ADD MSTORE PUSH32 0x4C6F616E206973206E6F7420696E20612066756E646564207374617465000000 PUSH1 0x44 DUP3 ADD MSTORE PUSH1 0x64 SWAP1 REVERT JUMPDEST PUSH4 0x4E487B71 PUSH1 0xE0 SHL PUSH0 MSTORE PUSH1 0x21 PUSH1 0x4 MSTORE PUSH1 0x24 PUSH0 REVERT JUMPDEST PUSH1 0x40 MLOAD PUSH3 0x461BCD PUSH1 0xE5 SHL DUP2 MSTORE PUSH1 0x20 PUSH1 0x4 DUP3 ADD MSTORE PUSH1 0x18 PUSH1 0x24 DUP3 ADD MSTORE PUSH32 0x43616C6C6572206973206E6F7420746865206C656E6465720000000000000000 PUSH1 0x44 DUP3 ADD MSTORE PUSH1 0x64 SWAP1 REVERT JUMPDEST CALLVALUE PUSH2 0x510 JUMPI PUSH1 0x20 CALLDATASIZE PUSH1 0x3 NOT ADD SLT PUSH2 0x510 JUMPI PUSH1 0x4 CALLDATALOAD PUSH4 0xFFFFFFFF PUSH1 0xE0 SHL DUP2 AND DUP1 SWAP2 SUB PUSH2 0x510 JUMPI PUSH1 0x20 SWAP1 PUSH4 0x7965DB0B PUSH1 0xE0 SHL DUP2 EQ SWAP1 DUP2 ISZERO PUSH2 0xFBB JUMPI JUMPDEST POP PUSH1 0x40 MLOAD SWAP1 ISZERO ISZERO DUP2 MSTORE RETURN JUMPDEST PUSH4 0x1FFC9A7 PUSH1 0xE0 SHL EQ SWAP1 POP DUP3 PUSH2 0xFB0 JUMP JUMPDEST CALLVALUE PUSH2 0x510 JUMPI PUSH0 CALLDATASIZE PUSH1 0x3 NOT ADD SLT PUSH2 0x510 JUMPI DUP1 PUSH32 0xC60D7A62D8843F2B14BC63F2A5240B187980481AD8C001A3CAF4916AEF3F667E PUSH1 0x20 SWAP3 MSTORE RETURN JUMPDEST PUSH1 0x24 CALLDATALOAD SWAP1 PUSH1 0x1 PUSH1 0x1 PUSH1 0xA0 SHL SUB DUP3 AND DUP3 SUB PUSH2 0x510 JUMPI JUMP JUMPDEST PUSH1 0x4 CALLDATALOAD SWAP1 PUSH1 0x1 PUSH1 0x1 PUSH1 0xA0 SHL SUB DUP3 AND DUP3 SUB PUSH2 0x510 JUMPI JUMP JUMPDEST SWAP2 SWAP1 PUSH1 0x20 DUP4 ADD SWAP3 PUSH1 0x2 DUP3 LT ISZERO PUSH2 0xF1D JUMPI MSTORE JUMP JUMPDEST SWAP1 PUSH1 0x1F DUP1 NOT SWAP2 ADD AND DUP2 ADD SWAP1 DUP2 LT PUSH8 0xFFFFFFFFFFFFFFFF DUP3 GT OR PUSH2 0x1065 JUMPI PUSH1 0x40 MSTORE JUMP JUMPDEST PUSH4 0x4E487B71 PUSH1 0xE0 SHL PUSH0 MSTORE PUSH1 0x41 PUSH1 0x4 MSTORE PUSH1 0x24 PUSH0 REVERT JUMPDEST SWAP1 DUP2 PUSH1 0x20 SWAP2 SUB SLT PUSH2 0x510 JUMPI MLOAD DUP1 ISZERO ISZERO DUP2 SUB PUSH2 0x510 JUMPI SWAP1 JUMP JUMPDEST ISZERO PUSH2 0x1098 JUMPI JUMP JUMPDEST PUSH1 0x40 MLOAD PUSH3 0x461BCD PUSH1 0xE5 SHL DUP2 MSTORE PUSH1 0x20 PUSH1 0x4 DUP3 ADD MSTORE PUSH1 0x11 PUSH1 0x24 DUP3 ADD MSTORE PUSH17 0x2AB739BAB83837B93A32B2103A37B5B2B7 PUSH1 0x79 SHL PUSH1 0x44 DUP3 ADD MSTORE PUSH1 0x64 SWAP1 REVERT JUMPDEST PUSH1 0x2 SLOAD PUSH2 0x10EB SWAP2 PUSH1 0x1 PUSH1 0x1 PUSH1 0xA0 SHL SUB SWAP1 DUP2 AND SWAP2 AND EQ PUSH2 0x1091 JUMP JUMPDEST PUSH1 0x7 SLOAD SWAP1 DUP2 DUP2 MUL SWAP2 DUP2 DUP4 DIV EQ SWAP1 ISZERO OR ISZERO PUSH2 0x1107 JUMPI PUSH2 0x2710 SWAP1 DIV SWAP1 JUMP JUMPDEST PUSH4 0x4E487B71 PUSH1 0xE0 SHL PUSH0 MSTORE PUSH1 0x11 PUSH1 0x4 MSTORE PUSH1 0x24 PUSH0 REVERT JUMPDEST PUSH1 0x2 PUSH0 SLOAD EQ PUSH2 0x112A JUMPI PUSH1 0x2 PUSH0 SSTORE JUMP JUMPDEST PUSH4 0x3EE5AEB5 PUSH1 0xE0 SHL PUSH0 MSTORE PUSH1 0x4 PUSH0 REVERT JUMPDEST PUSH0 DUP2 DUP2 MSTORE PUSH1 0x1 PUSH1 0x20 SWAP1 DUP2 MSTORE PUSH1 0x40 DUP1 DUP4 KECCAK256 CALLER DUP5 MSTORE SWAP1 SWAP2 MSTORE SWAP1 KECCAK256 SLOAD PUSH1 0xFF AND ISZERO PUSH2 0x115D JUMPI POP JUMP JUMPDEST PUSH4 0xE2517D3F PUSH1 0xE0 SHL PUSH0 MSTORE CALLER PUSH1 0x4 MSTORE PUSH1 0x24 MSTORE PUSH1 0x44 PUSH0 REVERT JUMPDEST PUSH0 DUP2 DUP2 MSTORE PUSH1 0x1 PUSH1 0x20 SWAP1 DUP2 MSTORE PUSH1 0x40 DUP1 DUP4 KECCAK256 PUSH1 0x1 PUSH1 0x1 PUSH1 0xA0 SHL SUB DUP7 AND DUP5 MSTORE SWAP1 SWAP2 MSTORE SWAP1 KECCAK256 SLOAD PUSH1 0xFF AND PUSH2 0x11F9 JUMPI PUSH0 DUP2 DUP2 MSTORE PUSH1 0x1 PUSH1 0x20 DUP2 DUP2 MSTORE PUSH1 0x40 DUP1 DUP5 KECCAK256 PUSH1 0x1 PUSH1 0x1 PUSH1 0xA0 SHL SUB SWAP7 SWAP1 SWAP7 AND DUP1 DUP6 MSTORE SWAP6 SWAP1 SWAP2 MSTORE DUP3 KECCAK256 DUP1 SLOAD PUSH1 0xFF NOT AND SWAP1 SWAP2 OR SWAP1 SSTORE CALLER SWAP3 SWAP2 SWAP1 PUSH32 0x2F8788117E7EFF1D82E926EC794901D17C78024A50270940304540A733656F0D SWAP1 DUP1 LOG4 PUSH1 0x1 SWAP1 JUMP JUMPDEST POP POP PUSH0 SWAP1 JUMP JUMPDEST PUSH0 DUP2 DUP2 MSTORE PUSH1 0x1 PUSH1 0x20 SWAP1 DUP2 MSTORE PUSH1 0x40 DUP1 DUP4 KECCAK256 PUSH1 0x1 PUSH1 0x1 PUSH1 0xA0 SHL SUB DUP7 AND DUP5 MSTORE SWAP1 SWAP2 MSTORE SWAP1 KECCAK256 SLOAD PUSH1 0xFF AND ISZERO PUSH2 0x11F9 JUMPI PUSH0 DUP2 DUP2 MSTORE PUSH1 0x1 PUSH1 0x20 SWAP1 DUP2 MSTORE PUSH1 0x40 DUP1 DUP4 KECCAK256 PUSH1 0x1 PUSH1 0x1 PUSH1 0xA0 SHL SUB SWAP6 SWAP1 SWAP6 AND DUP1 DUP5 MSTORE SWAP5 SWAP1 SWAP2 MSTORE DUP2 KECCAK256 DUP1 SLOAD PUSH1 0xFF NOT AND SWAP1 SSTORE CALLER SWAP3 SWAP2 SWAP1 PUSH32 0xF6391F5C32D9C69D2A47EA670B442974B53935D1EDC7FD64EB21E047A839171B SWAP1 DUP1 LOG4 PUSH1 0x1 SWAP1 JUMP INVALID LOG2 PUSH5 0x6970667358 0x22 SLT KECCAK256 0xD7 CALLER EXTCODESIZE EXTCODESIZE 0xEF RETURNDATASIZE 0xD6 0xA9 0xB4 0xCE PUSH16 0x14ED380ED3E6B545E1ADA29B3DE6A23D 0xD7 0x23 0x26 DUP10 0xCA PUSH5 0x736F6C6343 STOP ADDMOD BYTE STOP CALLER SWAP6 SWAP1 0x2C 0x4D PUSH13 0x8EA17825D5632AF066DCB87E03 EXTCODEHASH SHL 0x2A SWAP2 0xB4 SWAP11 PUSH27 0xD79E83F02C4DEC0000000000000000000000000000000000000000 "
		},
		"gasEstimates": {
			"creation": {
				"codeDepositCost": "958600",
				"executionCost": "infinite",
				"totalCost": "infinite"
			},
			"external": {
				"DEFAULT_ADMIN_ROLE()": "428",
				"LENDER_ROLE()": "153",
				"asset()": "2420",
				"closeLoan()": "infinite",
				"flashFee(address,uint256)": "5032",
				"flashLoan(address,address,uint256,bytes)": "infinite",
				"flashLoanFeeRate()": "2462",
				"flashPoolRewardManager()": "2662",
				"fundLoan()": "infinite",
				"getFlashLoanState()": "2703",
				"getRoleAdmin(bytes32)": "2415",
				"grantRole(bytes32,address)": "33380",
				"hasRole(bytes32,address)": "2736",
				"lender()": "2574",
				"maxFlashLoan(address)": "infinite",
				"poolOrganizer()": "2618",
				"renounceRole(bytes32,address)": "28963",
				"revokeRole(bytes32,address)": "33682",
				"state()": "2659",
				"supportsInterface(bytes4)": "305"
			},
			"internal": {
				"_executeFlashLoan(contract IERC3156FlashBorrower,address,uint256,bytes calldata)": "infinite"
			}
		},
		"methodIdentifiers": {
			"DEFAULT_ADMIN_ROLE()": "a217fddf",
			"LENDER_ROLE()": "00abafe1",
			"asset()": "38d52e0f",
			"closeLoan()": "232fa733",
			"flashFee(address,uint256)": "d9d98ce4",
			"flashLoan(address,address,uint256,bytes)": "5cffe9de",
			"flashLoanFeeRate()": "8c9f305f",
			"flashPoolRewardManager()": "c9c36353",
			"fundLoan()": "8db57994",
			"getFlashLoanState()": "c694b54c",
			"getRoleAdmin(bytes32)": "248a9ca3",
			"grantRole(bytes32,address)": "2f2ff15d",
			"hasRole(bytes32,address)": "91d14854",
			"lender()": "bcead63e",
			"maxFlashLoan(address)": "613255ab",
			"poolOrganizer()": "c51b9507",
			"renounceRole(bytes32,address)": "36568abe",
			"revokeRole(bytes32,address)": "d547741f",
			"state()": "c19d93fb",
			"supportsInterface(bytes4)": "01ffc9a7"
		}
	},
	"abi": [
		{
			"inputs": [
				{
					"internalType": "contract IERC20",
					"name": "_asset",
					"type": "address"
				},
				{
					"internalType": "uint256",
					"name": "_flashLoanFeeRate",
					"type": "uint256"
				},
				{
					"internalType": "contract IPoolOrganizer",
					"name": "_poolOrganizer",
					"type": "address"
				},
				{
					"internalType": "contract IFlashPoolRewardManager",
					"name": "_flashPoolRewardManager",
					"type": "address"
				},
				{
					"internalType": "uint256",
					"name": "_loanAmount",
					"type": "uint256"
				}
			],
			"stateMutability": "nonpayable",
			"type": "constructor"
		},
		{
			"inputs": [],
			"name": "AccessControlBadConfirmation",
			"type": "error"
		},
		{
			"inputs": [
				{
					"internalType": "address",
					"name": "account",
					"type": "address"
				},
				{
					"internalType": "bytes32",
					"name": "neededRole",
					"type": "bytes32"
				}
			],
			"name": "AccessControlUnauthorizedAccount",
			"type": "error"
		},
		{
			"inputs": [],
			"name": "ReentrancyGuardReentrantCall",
			"type": "error"
		},
		{
			"anonymous": false,
			"inputs": [
				{
					"indexed": true,
					"internalType": "address",
					"name": "receiver",
					"type": "address"
				},
				{
					"indexed": true,
					"internalType": "address",
					"name": "token",
					"type": "address"
				},
				{
					"indexed": false,
					"internalType": "uint256",
					"name": "amount",
					"type": "uint256"
				},
				{
					"indexed": false,
					"internalType": "uint256",
					"name": "fee",
					"type": "uint256"
				}
			],
			"name": "FlashLoanExecuted",
			"type": "event"
		},
		{
			"anonymous": false,
			"inputs": [
				{
					"indexed": true,
					"internalType": "address",
					"name": "lender",
					"type": "address"
				},
				{
					"indexed": false,
					"internalType": "uint256",
					"name": "amount",
					"type": "uint256"
				}
			],
			"name": "LoanClosed",
			"type": "event"
		},
		{
			"anonymous": false,
			"inputs": [
				{
					"indexed": true,
					"internalType": "address",
					"name": "lender",
					"type": "address"
				},
				{
					"indexed": false,
					"internalType": "uint256",
					"name": "amount",
					"type": "uint256"
				}
			],
			"name": "LoanFunded",
			"type": "event"
		},
		{
			"anonymous": false,
			"inputs": [
				{
					"indexed": true,
					"internalType": "bytes32",
					"name": "role",
					"type": "bytes32"
				},
				{
					"indexed": true,
					"internalType": "bytes32",
					"name": "previousAdminRole",
					"type": "bytes32"
				},
				{
					"indexed": true,
					"internalType": "bytes32",
					"name": "newAdminRole",
					"type": "bytes32"
				}
			],
			"name": "RoleAdminChanged",
			"type": "event"
		},
		{
			"anonymous": false,
			"inputs": [
				{
					"indexed": true,
					"internalType": "bytes32",
					"name": "role",
					"type": "bytes32"
				},
				{
					"indexed": true,
					"internalType": "address",
					"name": "account",
					"type": "address"
				},
				{
					"indexed": true,
					"internalType": "address",
					"name": "sender",
					"type": "address"
				}
			],
			"name": "RoleGranted",
			"type": "event"
		},
		{
			"anonymous": false,
			"inputs": [
				{
					"indexed": true,
					"internalType": "bytes32",
					"name": "role",
					"type": "bytes32"
				},
				{
					"indexed": true,
					"internalType": "address",
					"name": "account",
					"type": "address"
				},
				{
					"indexed": true,
					"internalType": "address",
					"name": "sender",
					"type": "address"
				}
			],
			"name": "RoleRevoked",
			"type": "event"
		},
		{
			"inputs": [],
			"name": "DEFAULT_ADMIN_ROLE",
			"outputs": [
				{
					"internalType": "bytes32",
					"name": "",
					"type": "bytes32"
				}
			],
			"stateMutability": "view",
			"type": "function"
		},
		{
			"inputs": [],
			"name": "LENDER_ROLE",
			"outputs": [
				{
					"internalType": "bytes32",
					"name": "",
					"type": "bytes32"
				}
			],
			"stateMutability": "view",
			"type": "function"
		},
		{
			"inputs": [],
			"name": "asset",
			"outputs": [
				{
					"internalType": "contract IERC20",
					"name": "",
					"type": "address"
				}
			],
			"stateMutability": "view",
			"type": "function"
		},
		{
			"inputs": [],
			"name": "closeLoan",
			"outputs": [],
			"stateMutability": "nonpayable",
			"type": "function"
		},
		{
			"inputs": [
				{
					"internalType": "address",
					"name": "token",
					"type": "address"
				},
				{
					"internalType": "uint256",
					"name": "amount",
					"type": "uint256"
				}
			],
			"name": "flashFee",
			"outputs": [
				{
					"internalType": "uint256",
					"name": "",
					"type": "uint256"
				}
			],
			"stateMutability": "view",
			"type": "function"
		},
		{
			"inputs": [
				{
					"internalType": "contract IERC3156FlashBorrower",
					"name": "receiver",
					"type": "address"
				},
				{
					"internalType": "address",
					"name": "token",
					"type": "address"
				},
				{
					"internalType": "uint256",
					"name": "amount",
					"type": "uint256"
				},
				{
					"internalType": "bytes",
					"name": "data",
					"type": "bytes"
				}
			],
			"name": "flashLoan",
			"outputs": [
				{
					"internalType": "bool",
					"name": "",
					"type": "bool"
				}
			],
			"stateMutability": "nonpayable",
			"type": "function"
		},
		{
			"inputs": [],
			"name": "flashLoanFeeRate",
			"outputs": [
				{
					"internalType": "uint256",
					"name": "",
					"type": "uint256"
				}
			],
			"stateMutability": "view",
			"type": "function"
		},
		{
			"inputs": [],
			"name": "flashPoolRewardManager",
			"outputs": [
				{
					"internalType": "contract IFlashPoolRewardManager",
					"name": "",
					"type": "address"
				}
			],
			"stateMutability": "view",
			"type": "function"
		},
		{
			"inputs": [],
			"name": "fundLoan",
			"outputs": [],
			"stateMutability": "nonpayable",
			"type": "function"
		},
		{
			"inputs": [],
			"name": "getFlashLoanState",
			"outputs": [
				{
					"internalType": "enum TuliaFlashPool.FlashLoanState",
					"name": "",
					"type": "uint8"
				}
			],
			"stateMutability": "view",
			"type": "function"
		},
		{
			"inputs": [
				{
					"internalType": "bytes32",
					"name": "role",
					"type": "bytes32"
				}
			],
			"name": "getRoleAdmin",
			"outputs": [
				{
					"internalType": "bytes32",
					"name": "",
					"type": "bytes32"
				}
			],
			"stateMutability": "view",
			"type": "function"
		},
		{
			"inputs": [
				{
					"internalType": "bytes32",
					"name": "role",
					"type": "bytes32"
				},
				{
					"internalType": "address",
					"name": "account",
					"type": "address"
				}
			],
			"name": "grantRole",
			"outputs": [],
			"stateMutability": "nonpayable",
			"type": "function"
		},
		{
			"inputs": [
				{
					"internalType": "bytes32",
					"name": "role",
					"type": "bytes32"
				},
				{
					"internalType": "address",
					"name": "account",
					"type": "address"
				}
			],
			"name": "hasRole",
			"outputs": [
				{
					"internalType": "bool",
					"name": "",
					"type": "bool"
				}
			],
			"stateMutability": "view",
			"type": "function"
		},
		{
			"inputs": [],
			"name": "lender",
			"outputs": [
				{
					"internalType": "address",
					"name": "",
					"type": "address"
				}
			],
			"stateMutability": "view",
			"type": "function"
		},
		{
			"inputs": [
				{
					"internalType": "address",
					"name": "token",
					"type": "address"
				}
			],
			"name": "maxFlashLoan",
			"outputs": [
				{
					"internalType": "uint256",
					"name": "",
					"type": "uint256"
				}
			],
			"stateMutability": "view",
			"type": "function"
		},
		{
			"inputs": [],
			"name": "poolOrganizer",
			"outputs": [
				{
					"internalType": "contract IPoolOrganizer",
					"name": "",
					"type": "address"
				}
			],
			"stateMutability": "view",
			"type": "function"
		},
		{
			"inputs": [
				{
					"internalType": "bytes32",
					"name": "role",
					"type": "bytes32"
				},
				{
					"internalType": "address",
					"name": "callerConfirmation",
					"type": "address"
				}
			],
			"name": "renounceRole",
			"outputs": [],
			"stateMutability": "nonpayable",
			"type": "function"
		},
		{
			"inputs": [
				{
					"internalType": "bytes32",
					"name": "role",
					"type": "bytes32"
				},
				{
					"internalType": "address",
					"name": "account",
					"type": "address"
				}
			],
			"name": "revokeRole",
			"outputs": [],
			"stateMutability": "nonpayable",
			"type": "function"
		},
		{
			"inputs": [],
			"name": "state",
			"outputs": [
				{
					"internalType": "enum TuliaFlashPool.FlashLoanState",
					"name": "",
					"type": "uint8"
				}
			],
			"stateMutability": "view",
			"type": "function"
		},
		{
			"inputs": [
				{
					"internalType": "bytes4",
					"name": "interfaceId",
					"type": "bytes4"
				}
			],
			"name": "supportsInterface",
			"outputs": [
				{
					"internalType": "bool",
					"name": "",
					"type": "bool"
				}
			],
			"stateMutability": "view",
			"type": "function"
		}
	]
}