{
	"data": {
		"bytecode": {
			"linkReferences": {},
			"object": "60808060405234610016576107bd908161001b8239f35b5f80fdfe60806040818152600480361015610014575f80fd5b5f92833560e01c9081631e4966ab146105fd575080631f0249f61461037757806338e270ed146102f75780639c5156291461024c5763e0f0707f14610057575f80fd5b3461024857606036600319011261024857610070610634565b61007861064e565b6001600160a01b0391821680865260208681528587205484169591949093604435936100a5881515610664565b83516338d52e0f60e01b8152868185818c5afa90811561023e579083918b91610200575b501691845191878301996323b872dd60e01b8b52602484015216978860448301528560648301526064825260a082019167ffffffffffffffff92818110848211176101ed578652518a9182919082865af13d156101e0573d9182116101cd57906101529185519161014389601f19601f84011601846106ba565b82523d8b8984013e5b836106f0565b80518681151591826101a8575b50509050610194575050519081527ff75e0f5f6602ca4c59226d587ca078ea5a4ac300638072b99386035b776f26449190a380f35b6024925191635274afe760e01b8352820152fd5b83809293500103126101c9578501518015908115036101c95780865f61015f565b8880fd5b634e487b7160e01b8a526041845260248afd5b610152915060609061014c565b634e487b7160e01b8c526041865260248cfd5b809250888092503d8311610237575b61021981836106ba565b81010312610233575182811681036102335782905f6100c9565b8980fd5b503d61020f565b85513d8c823e3d90fd5b8280fd5b509034610248578060031936011261024857610266610634565b9061026f61064e565b6001600160a01b039283168086526020869052828620549194909184166102b45750845283602052832091166bffffffffffffffffffffffff60a01b82541617905580f35b606490602084519162461bcd60e51b8352820152601860248201527f5661756c7420616c7265616479207265676973746572656400000000000000006044820152fd5b505034610373576020366003190112610373576001600160a01b03906103348261031f610634565b16928385528460205282852054161515610664565b8183526020839052822080546001600160a01b03191690557ff8769b01493238f5c26a42a7b690cb1ff2b53a7d89d9a57e6332458703db8b048280a280f35b5080fd5b5034610248578160031936011261024857610390610634565b9261039961064e565b9060018060a01b0380951692838252602095828752808684205416908651631e96036360e31b8152888185818a5afa9081156105475785916105d0575b50875163292bdab360e11b815291898386818b5afa9283156105c6578693610593575b50885163019312fb60e61b8152968a8887818c5afa97881561058957908b92918899610551575b508a516370a0823160e01b815291168682015293849060249082905afa928315610547578593610512575b506127109161045991610753565b04808211156105095761046b9161077a565b935b83156104f6578690865192838092632e1283e360e01b82525afa9182156104eb5780926104b4575b5050906104a66104ad93924361077a565b9104610753565b9051908152f35b9091508582813d83116104e4575b6104cc81836106ba565b810103126104e15750516104a66104ad610495565b80fd5b503d6104c2565b8551903d90823e3d90fd5b634e487b7160e01b835260128252602483fd5b5050819361046d565b9092508881813d8311610540575b61052a81836106ba565b8101031261053c57519161271061044b565b8480fd5b503d610520565b88513d87823e3d90fd5b83819394929a503d8311610582575b61056a81836106ba565b8101031261057e5751968a91906024610420565b8680fd5b503d610560565b8a513d89823e3d90fd5b9092508981813d83116105bf575b6105ab81836106ba565b810103126105bb5751915f6103f9565b8580fd5b503d6105a1565b89513d88823e3d90fd5b90508881813d83116105f6575b6105e781836106ba565b8101031261053c57515f6103d6565b503d6105dd565b84908434610248576020366003190112610248576020926001600160a01b03919082610627610634565b1681528085522054168152f35b600435906001600160a01b038216820361064a57565b5f80fd5b602435906001600160a01b038216820361064a57565b1561066b57565b60405162461bcd60e51b815260206004820152602160248201527f4e6f207661756c74207265676973746572656420666f72207468697320706f6f6044820152601b60fa1b6064820152608490fd5b90601f8019910116810190811067ffffffffffffffff8211176106dc57604052565b634e487b7160e01b5f52604160045260245ffd5b90610717575080511561070557805190602001fd5b604051630a12f52160e11b8152600490fd5b8151158061074a575b610728575090565b604051639996b31560e01b81526001600160a01b039091166004820152602490fd5b50803b15610720565b8181029291811591840414171561076657565b634e487b7160e01b5f52601160045260245ffd5b919082039182116107665756fea2646970667358221220caead2c830833ced5fac95717baa8b120a6a26bac42fe2de0c012c424db535e864736f6c63430008140033",
			"opcodes": "PUSH1 0x80 DUP1 PUSH1 0x40 MSTORE CALLVALUE PUSH2 0x16 JUMPI PUSH2 0x7BD SWAP1 DUP2 PUSH2 0x1B DUP3 CODECOPY RETURN JUMPDEST PUSH0 DUP1 REVERT INVALID PUSH1 0x80 PUSH1 0x40 DUP2 DUP2 MSTORE PUSH1 0x4 DUP1 CALLDATASIZE LT ISZERO PUSH2 0x14 JUMPI PUSH0 DUP1 REVERT JUMPDEST PUSH0 SWAP3 DUP4 CALLDATALOAD PUSH1 0xE0 SHR SWAP1 DUP2 PUSH4 0x1E4966AB EQ PUSH2 0x5FD JUMPI POP DUP1 PUSH4 0x1F0249F6 EQ PUSH2 0x377 JUMPI DUP1 PUSH4 0x38E270ED EQ PUSH2 0x2F7 JUMPI DUP1 PUSH4 0x9C515629 EQ PUSH2 0x24C JUMPI PUSH4 0xE0F0707F EQ PUSH2 0x57 JUMPI PUSH0 DUP1 REVERT JUMPDEST CALLVALUE PUSH2 0x248 JUMPI PUSH1 0x60 CALLDATASIZE PUSH1 0x3 NOT ADD SLT PUSH2 0x248 JUMPI PUSH2 0x70 PUSH2 0x634 JUMP JUMPDEST PUSH2 0x78 PUSH2 0x64E JUMP JUMPDEST PUSH1 0x1 PUSH1 0x1 PUSH1 0xA0 SHL SUB SWAP2 DUP3 AND DUP1 DUP7 MSTORE PUSH1 0x20 DUP7 DUP2 MSTORE DUP6 DUP8 KECCAK256 SLOAD DUP5 AND SWAP6 SWAP2 SWAP5 SWAP1 SWAP4 PUSH1 0x44 CALLDATALOAD SWAP4 PUSH2 0xA5 DUP9 ISZERO ISZERO PUSH2 0x664 JUMP JUMPDEST DUP4 MLOAD PUSH4 0x38D52E0F PUSH1 0xE0 SHL DUP2 MSTORE DUP7 DUP2 DUP6 DUP2 DUP13 GAS STATICCALL SWAP1 DUP2 ISZERO PUSH2 0x23E JUMPI SWAP1 DUP4 SWAP2 DUP12 SWAP2 PUSH2 0x200 JUMPI JUMPDEST POP AND SWAP2 DUP5 MLOAD SWAP2 DUP8 DUP4 ADD SWAP10 PUSH4 0x23B872DD PUSH1 0xE0 SHL DUP12 MSTORE PUSH1 0x24 DUP5 ADD MSTORE AND SWAP8 DUP9 PUSH1 0x44 DUP4 ADD MSTORE DUP6 PUSH1 0x64 DUP4 ADD MSTORE PUSH1 0x64 DUP3 MSTORE PUSH1 0xA0 DUP3 ADD SWAP2 PUSH8 0xFFFFFFFFFFFFFFFF SWAP3 DUP2 DUP2 LT DUP5 DUP3 GT OR PUSH2 0x1ED JUMPI DUP7 MSTORE MLOAD DUP11 SWAP2 DUP3 SWAP2 SWAP1 DUP3 DUP7 GAS CALL RETURNDATASIZE ISZERO PUSH2 0x1E0 JUMPI RETURNDATASIZE SWAP2 DUP3 GT PUSH2 0x1CD JUMPI SWAP1 PUSH2 0x152 SWAP2 DUP6 MLOAD SWAP2 PUSH2 0x143 DUP10 PUSH1 0x1F NOT PUSH1 0x1F DUP5 ADD AND ADD DUP5 PUSH2 0x6BA JUMP JUMPDEST DUP3 MSTORE RETURNDATASIZE DUP12 DUP10 DUP5 ADD RETURNDATACOPY JUMPDEST DUP4 PUSH2 0x6F0 JUMP JUMPDEST DUP1 MLOAD DUP7 DUP2 ISZERO ISZERO SWAP2 DUP3 PUSH2 0x1A8 JUMPI JUMPDEST POP POP SWAP1 POP PUSH2 0x194 JUMPI POP POP MLOAD SWAP1 DUP2 MSTORE PUSH32 0xF75E0F5F6602CA4C59226D587CA078EA5A4AC300638072B99386035B776F2644 SWAP2 SWAP1 LOG3 DUP1 RETURN JUMPDEST PUSH1 0x24 SWAP3 MLOAD SWAP2 PUSH4 0x5274AFE7 PUSH1 0xE0 SHL DUP4 MSTORE DUP3 ADD MSTORE REVERT JUMPDEST DUP4 DUP1 SWAP3 SWAP4 POP ADD SUB SLT PUSH2 0x1C9 JUMPI DUP6 ADD MLOAD DUP1 ISZERO SWAP1 DUP2 ISZERO SUB PUSH2 0x1C9 JUMPI DUP1 DUP7 PUSH0 PUSH2 0x15F JUMP JUMPDEST DUP9 DUP1 REVERT JUMPDEST PUSH4 0x4E487B71 PUSH1 0xE0 SHL DUP11 MSTORE PUSH1 0x41 DUP5 MSTORE PUSH1 0x24 DUP11 REVERT JUMPDEST PUSH2 0x152 SWAP2 POP PUSH1 0x60 SWAP1 PUSH2 0x14C JUMP JUMPDEST PUSH4 0x4E487B71 PUSH1 0xE0 SHL DUP13 MSTORE PUSH1 0x41 DUP7 MSTORE PUSH1 0x24 DUP13 REVERT JUMPDEST DUP1 SWAP3 POP DUP9 DUP1 SWAP3 POP RETURNDATASIZE DUP4 GT PUSH2 0x237 JUMPI JUMPDEST PUSH2 0x219 DUP2 DUP4 PUSH2 0x6BA JUMP JUMPDEST DUP2 ADD SUB SLT PUSH2 0x233 JUMPI MLOAD DUP3 DUP2 AND DUP2 SUB PUSH2 0x233 JUMPI DUP3 SWAP1 PUSH0 PUSH2 0xC9 JUMP JUMPDEST DUP10 DUP1 REVERT JUMPDEST POP RETURNDATASIZE PUSH2 0x20F JUMP JUMPDEST DUP6 MLOAD RETURNDATASIZE DUP13 DUP3 RETURNDATACOPY RETURNDATASIZE SWAP1 REVERT JUMPDEST DUP3 DUP1 REVERT JUMPDEST POP SWAP1 CALLVALUE PUSH2 0x248 JUMPI DUP1 PUSH1 0x3 NOT CALLDATASIZE ADD SLT PUSH2 0x248 JUMPI PUSH2 0x266 PUSH2 0x634 JUMP JUMPDEST SWAP1 PUSH2 0x26F PUSH2 0x64E JUMP JUMPDEST PUSH1 0x1 PUSH1 0x1 PUSH1 0xA0 SHL SUB SWAP3 DUP4 AND DUP1 DUP7 MSTORE PUSH1 0x20 DUP7 SWAP1 MSTORE DUP3 DUP7 KECCAK256 SLOAD SWAP2 SWAP5 SWAP1 SWAP2 DUP5 AND PUSH2 0x2B4 JUMPI POP DUP5 MSTORE DUP4 PUSH1 0x20 MSTORE DUP4 KECCAK256 SWAP2 AND PUSH12 0xFFFFFFFFFFFFFFFFFFFFFFFF PUSH1 0xA0 SHL DUP3 SLOAD AND OR SWAP1 SSTORE DUP1 RETURN JUMPDEST PUSH1 0x64 SWAP1 PUSH1 0x20 DUP5 MLOAD SWAP2 PUSH3 0x461BCD PUSH1 0xE5 SHL DUP4 MSTORE DUP3 ADD MSTORE PUSH1 0x18 PUSH1 0x24 DUP3 ADD MSTORE PUSH32 0x5661756C7420616C726561647920726567697374657265640000000000000000 PUSH1 0x44 DUP3 ADD MSTORE REVERT JUMPDEST POP POP CALLVALUE PUSH2 0x373 JUMPI PUSH1 0x20 CALLDATASIZE PUSH1 0x3 NOT ADD SLT PUSH2 0x373 JUMPI PUSH1 0x1 PUSH1 0x1 PUSH1 0xA0 SHL SUB SWAP1 PUSH2 0x334 DUP3 PUSH2 0x31F PUSH2 0x634 JUMP JUMPDEST AND SWAP3 DUP4 DUP6 MSTORE DUP5 PUSH1 0x20 MSTORE DUP3 DUP6 KECCAK256 SLOAD AND ISZERO ISZERO PUSH2 0x664 JUMP JUMPDEST DUP2 DUP4 MSTORE PUSH1 0x20 DUP4 SWAP1 MSTORE DUP3 KECCAK256 DUP1 SLOAD PUSH1 0x1 PUSH1 0x1 PUSH1 0xA0 SHL SUB NOT AND SWAP1 SSTORE PUSH32 0xF8769B01493238F5C26A42A7B690CB1FF2B53A7D89D9A57E6332458703DB8B04 DUP3 DUP1 LOG2 DUP1 RETURN JUMPDEST POP DUP1 REVERT JUMPDEST POP CALLVALUE PUSH2 0x248 JUMPI DUP2 PUSH1 0x3 NOT CALLDATASIZE ADD SLT PUSH2 0x248 JUMPI PUSH2 0x390 PUSH2 0x634 JUMP JUMPDEST SWAP3 PUSH2 0x399 PUSH2 0x64E JUMP JUMPDEST SWAP1 PUSH1 0x1 DUP1 PUSH1 0xA0 SHL SUB DUP1 SWAP6 AND SWAP3 DUP4 DUP3 MSTORE PUSH1 0x20 SWAP6 DUP3 DUP8 MSTORE DUP1 DUP7 DUP5 KECCAK256 SLOAD AND SWAP1 DUP7 MLOAD PUSH4 0x1E960363 PUSH1 0xE3 SHL DUP2 MSTORE DUP9 DUP2 DUP6 DUP2 DUP11 GAS STATICCALL SWAP1 DUP2 ISZERO PUSH2 0x547 JUMPI DUP6 SWAP2 PUSH2 0x5D0 JUMPI JUMPDEST POP DUP8 MLOAD PUSH4 0x292BDAB3 PUSH1 0xE1 SHL DUP2 MSTORE SWAP2 DUP10 DUP4 DUP7 DUP2 DUP12 GAS STATICCALL SWAP3 DUP4 ISZERO PUSH2 0x5C6 JUMPI DUP7 SWAP4 PUSH2 0x593 JUMPI JUMPDEST POP DUP9 MLOAD PUSH4 0x19312FB PUSH1 0xE6 SHL DUP2 MSTORE SWAP7 DUP11 DUP9 DUP8 DUP2 DUP13 GAS STATICCALL SWAP8 DUP9 ISZERO PUSH2 0x589 JUMPI SWAP1 DUP12 SWAP3 SWAP2 DUP9 SWAP10 PUSH2 0x551 JUMPI JUMPDEST POP DUP11 MLOAD PUSH4 0x70A08231 PUSH1 0xE0 SHL DUP2 MSTORE SWAP2 AND DUP7 DUP3 ADD MSTORE SWAP4 DUP5 SWAP1 PUSH1 0x24 SWAP1 DUP3 SWAP1 GAS STATICCALL SWAP3 DUP4 ISZERO PUSH2 0x547 JUMPI DUP6 SWAP4 PUSH2 0x512 JUMPI JUMPDEST POP PUSH2 0x2710 SWAP2 PUSH2 0x459 SWAP2 PUSH2 0x753 JUMP JUMPDEST DIV DUP1 DUP3 GT ISZERO PUSH2 0x509 JUMPI PUSH2 0x46B SWAP2 PUSH2 0x77A JUMP JUMPDEST SWAP4 JUMPDEST DUP4 ISZERO PUSH2 0x4F6 JUMPI DUP7 SWAP1 DUP7 MLOAD SWAP3 DUP4 DUP1 SWAP3 PUSH4 0x2E1283E3 PUSH1 0xE0 SHL DUP3 MSTORE GAS STATICCALL SWAP2 DUP3 ISZERO PUSH2 0x4EB JUMPI DUP1 SWAP3 PUSH2 0x4B4 JUMPI JUMPDEST POP POP SWAP1 PUSH2 0x4A6 PUSH2 0x4AD SWAP4 SWAP3 NUMBER PUSH2 0x77A JUMP JUMPDEST SWAP2 DIV PUSH2 0x753 JUMP JUMPDEST SWAP1 MLOAD SWAP1 DUP2 MSTORE RETURN JUMPDEST SWAP1 SWAP2 POP DUP6 DUP3 DUP2 RETURNDATASIZE DUP4 GT PUSH2 0x4E4 JUMPI JUMPDEST PUSH2 0x4CC DUP2 DUP4 PUSH2 0x6BA JUMP JUMPDEST DUP2 ADD SUB SLT PUSH2 0x4E1 JUMPI POP MLOAD PUSH2 0x4A6 PUSH2 0x4AD PUSH2 0x495 JUMP JUMPDEST DUP1 REVERT JUMPDEST POP RETURNDATASIZE PUSH2 0x4C2 JUMP JUMPDEST DUP6 MLOAD SWAP1 RETURNDATASIZE SWAP1 DUP3 RETURNDATACOPY RETURNDATASIZE SWAP1 REVERT JUMPDEST PUSH4 0x4E487B71 PUSH1 0xE0 SHL DUP4 MSTORE PUSH1 0x12 DUP3 MSTORE PUSH1 0x24 DUP4 REVERT JUMPDEST POP POP DUP2 SWAP4 PUSH2 0x46D JUMP JUMPDEST SWAP1 SWAP3 POP DUP9 DUP2 DUP2 RETURNDATASIZE DUP4 GT PUSH2 0x540 JUMPI JUMPDEST PUSH2 0x52A DUP2 DUP4 PUSH2 0x6BA JUMP JUMPDEST DUP2 ADD SUB SLT PUSH2 0x53C JUMPI MLOAD SWAP2 PUSH2 0x2710 PUSH2 0x44B JUMP JUMPDEST DUP5 DUP1 REVERT JUMPDEST POP RETURNDATASIZE PUSH2 0x520 JUMP JUMPDEST DUP9 MLOAD RETURNDATASIZE DUP8 DUP3 RETURNDATACOPY RETURNDATASIZE SWAP1 REVERT JUMPDEST DUP4 DUP2 SWAP4 SWAP5 SWAP3 SWAP11 POP RETURNDATASIZE DUP4 GT PUSH2 0x582 JUMPI JUMPDEST PUSH2 0x56A DUP2 DUP4 PUSH2 0x6BA JUMP JUMPDEST DUP2 ADD SUB SLT PUSH2 0x57E JUMPI MLOAD SWAP7 DUP11 SWAP2 SWAP1 PUSH1 0x24 PUSH2 0x420 JUMP JUMPDEST DUP7 DUP1 REVERT JUMPDEST POP RETURNDATASIZE PUSH2 0x560 JUMP JUMPDEST DUP11 MLOAD RETURNDATASIZE DUP10 DUP3 RETURNDATACOPY RETURNDATASIZE SWAP1 REVERT JUMPDEST SWAP1 SWAP3 POP DUP10 DUP2 DUP2 RETURNDATASIZE DUP4 GT PUSH2 0x5BF JUMPI JUMPDEST PUSH2 0x5AB DUP2 DUP4 PUSH2 0x6BA JUMP JUMPDEST DUP2 ADD SUB SLT PUSH2 0x5BB JUMPI MLOAD SWAP2 PUSH0 PUSH2 0x3F9 JUMP JUMPDEST DUP6 DUP1 REVERT JUMPDEST POP RETURNDATASIZE PUSH2 0x5A1 JUMP JUMPDEST DUP10 MLOAD RETURNDATASIZE DUP9 DUP3 RETURNDATACOPY RETURNDATASIZE SWAP1 REVERT JUMPDEST SWAP1 POP DUP9 DUP2 DUP2 RETURNDATASIZE DUP4 GT PUSH2 0x5F6 JUMPI JUMPDEST PUSH2 0x5E7 DUP2 DUP4 PUSH2 0x6BA JUMP JUMPDEST DUP2 ADD SUB SLT PUSH2 0x53C JUMPI MLOAD PUSH0 PUSH2 0x3D6 JUMP JUMPDEST POP RETURNDATASIZE PUSH2 0x5DD JUMP JUMPDEST DUP5 SWAP1 DUP5 CALLVALUE PUSH2 0x248 JUMPI PUSH1 0x20 CALLDATASIZE PUSH1 0x3 NOT ADD SLT PUSH2 0x248 JUMPI PUSH1 0x20 SWAP3 PUSH1 0x1 PUSH1 0x1 PUSH1 0xA0 SHL SUB SWAP2 SWAP1 DUP3 PUSH2 0x627 PUSH2 0x634 JUMP JUMPDEST AND DUP2 MSTORE DUP1 DUP6 MSTORE KECCAK256 SLOAD AND DUP2 MSTORE RETURN JUMPDEST PUSH1 0x4 CALLDATALOAD SWAP1 PUSH1 0x1 PUSH1 0x1 PUSH1 0xA0 SHL SUB DUP3 AND DUP3 SUB PUSH2 0x64A JUMPI JUMP JUMPDEST PUSH0 DUP1 REVERT JUMPDEST PUSH1 0x24 CALLDATALOAD SWAP1 PUSH1 0x1 PUSH1 0x1 PUSH1 0xA0 SHL SUB DUP3 AND DUP3 SUB PUSH2 0x64A JUMPI JUMP JUMPDEST ISZERO PUSH2 0x66B JUMPI JUMP JUMPDEST PUSH1 0x40 MLOAD PUSH3 0x461BCD PUSH1 0xE5 SHL DUP2 MSTORE PUSH1 0x20 PUSH1 0x4 DUP3 ADD MSTORE PUSH1 0x21 PUSH1 0x24 DUP3 ADD MSTORE PUSH32 0x4E6F207661756C74207265676973746572656420666F72207468697320706F6F PUSH1 0x44 DUP3 ADD MSTORE PUSH1 0x1B PUSH1 0xFA SHL PUSH1 0x64 DUP3 ADD MSTORE PUSH1 0x84 SWAP1 REVERT JUMPDEST SWAP1 PUSH1 0x1F DUP1 NOT SWAP2 ADD AND DUP2 ADD SWAP1 DUP2 LT PUSH8 0xFFFFFFFFFFFFFFFF DUP3 GT OR PUSH2 0x6DC JUMPI PUSH1 0x40 MSTORE JUMP JUMPDEST PUSH4 0x4E487B71 PUSH1 0xE0 SHL PUSH0 MSTORE PUSH1 0x41 PUSH1 0x4 MSTORE PUSH1 0x24 PUSH0 REVERT JUMPDEST SWAP1 PUSH2 0x717 JUMPI POP DUP1 MLOAD ISZERO PUSH2 0x705 JUMPI DUP1 MLOAD SWAP1 PUSH1 0x20 ADD REVERT JUMPDEST PUSH1 0x40 MLOAD PUSH4 0xA12F521 PUSH1 0xE1 SHL DUP2 MSTORE PUSH1 0x4 SWAP1 REVERT JUMPDEST DUP2 MLOAD ISZERO DUP1 PUSH2 0x74A JUMPI JUMPDEST PUSH2 0x728 JUMPI POP SWAP1 JUMP JUMPDEST PUSH1 0x40 MLOAD PUSH4 0x9996B315 PUSH1 0xE0 SHL DUP2 MSTORE PUSH1 0x1 PUSH1 0x1 PUSH1 0xA0 SHL SUB SWAP1 SWAP2 AND PUSH1 0x4 DUP3 ADD MSTORE PUSH1 0x24 SWAP1 REVERT JUMPDEST POP DUP1 EXTCODESIZE ISZERO PUSH2 0x720 JUMP JUMPDEST DUP2 DUP2 MUL SWAP3 SWAP2 DUP2 ISZERO SWAP2 DUP5 DIV EQ OR ISZERO PUSH2 0x766 JUMPI JUMP JUMPDEST PUSH4 0x4E487B71 PUSH1 0xE0 SHL PUSH0 MSTORE PUSH1 0x11 PUSH1 0x4 MSTORE PUSH1 0x24 PUSH0 REVERT JUMPDEST SWAP2 SWAP1 DUP3 SUB SWAP2 DUP3 GT PUSH2 0x766 JUMPI JUMP INVALID LOG2 PUSH5 0x6970667358 0x22 SLT KECCAK256 0xCA 0xEA 0xD2 0xC8 ADDRESS DUP4 EXTCODECOPY 0xED PUSH0 0xAC SWAP6 PUSH18 0x7BAA8B120A6A26BAC42FE2DE0C012C424DB5 CALLDATALOAD 0xE8 PUSH5 0x736F6C6343 STOP ADDMOD EQ STOP CALLER "
		},
		"gasEstimates": {
			"creation": {
				"codeDepositCost": "396200",
				"executionCost": "437",
				"totalCost": "396637"
			},
			"external": {
				"calculateClaimableInterest(address,address)": "infinite",
				"deregisterVault(address)": "27935",
				"distributeInterest(address,address,uint256)": "infinite",
				"poolVaults(address)": "2427",
				"registerPoolVault(address,address)": "26878"
			}
		},
		"methodIdentifiers": {
			"calculateClaimableInterest(address,address)": "1f0249f6",
			"deregisterVault(address)": "38e270ed",
			"distributeInterest(address,address,uint256)": "e0f0707f",
			"poolVaults(address)": "1e4966ab",
			"registerPoolVault(address,address)": "9c515629"
		}
	},
	"abi": [
		{
			"inputs": [
				{
					"internalType": "address",
					"name": "target",
					"type": "address"
				}
			],
			"name": "AddressEmptyCode",
			"type": "error"
		},
		{
			"inputs": [
				{
					"internalType": "address",
					"name": "account",
					"type": "address"
				}
			],
			"name": "AddressInsufficientBalance",
			"type": "error"
		},
		{
			"inputs": [],
			"name": "FailedInnerCall",
			"type": "error"
		},
		{
			"inputs": [
				{
					"internalType": "address",
					"name": "token",
					"type": "address"
				}
			],
			"name": "SafeERC20FailedOperation",
			"type": "error"
		},
		{
			"anonymous": false,
			"inputs": [
				{
					"indexed": true,
					"internalType": "address",
					"name": "pool",
					"type": "address"
				},
				{
					"indexed": true,
					"internalType": "address",
					"name": "to",
					"type": "address"
				},
				{
					"indexed": false,
					"internalType": "uint256",
					"name": "amount",
					"type": "uint256"
				}
			],
			"name": "InterestPaid",
			"type": "event"
		},
		{
			"anonymous": false,
			"inputs": [
				{
					"indexed": true,
					"internalType": "address",
					"name": "pool",
					"type": "address"
				}
			],
			"name": "VaultDeregistered",
			"type": "event"
		},
		{
			"inputs": [
				{
					"internalType": "address",
					"name": "pool",
					"type": "address"
				},
				{
					"internalType": "address",
					"name": "user",
					"type": "address"
				}
			],
			"name": "calculateClaimableInterest",
			"outputs": [
				{
					"internalType": "uint256",
					"name": "",
					"type": "uint256"
				}
			],
			"stateMutability": "view",
			"type": "function"
		},
		{
			"inputs": [
				{
					"internalType": "address",
					"name": "pool",
					"type": "address"
				}
			],
			"name": "deregisterVault",
			"outputs": [],
			"stateMutability": "nonpayable",
			"type": "function"
		},
		{
			"inputs": [
				{
					"internalType": "address",
					"name": "pool",
					"type": "address"
				},
				{
					"internalType": "address",
					"name": "to",
					"type": "address"
				},
				{
					"internalType": "uint256",
					"name": "amount",
					"type": "uint256"
				}
			],
			"name": "distributeInterest",
			"outputs": [],
			"stateMutability": "nonpayable",
			"type": "function"
		},
		{
			"inputs": [
				{
					"internalType": "address",
					"name": "",
					"type": "address"
				}
			],
			"name": "poolVaults",
			"outputs": [
				{
					"internalType": "address",
					"name": "",
					"type": "address"
				}
			],
			"stateMutability": "view",
			"type": "function"
		},
		{
			"inputs": [
				{
					"internalType": "address",
					"name": "pool",
					"type": "address"
				},
				{
					"internalType": "address",
					"name": "vault",
					"type": "address"
				}
			],
			"name": "registerPoolVault",
			"outputs": [],
			"stateMutability": "nonpayable",
			"type": "function"
		}
	]
}