{
	"data": {
		"bytecode": {
			"linkReferences": {},
			"object": "6080806040523461001657610fcc908161001b8239f35b5f80fdfe60406080815260049081361015610014575f80fd5b5f91823560e01c90816338e270ed14610c1457816351b2d52114610be75781635228a4da14610a2657816356f78a1d146107e6578163713c00ce14610498578163d302bf76146100cd575063fb96b1351461006d575f80fd5b346100c95760203660031901126100c95760809181906001600160a01b03610093610ce7565b16815280602052209081549160018101549160ff6003600284015493015416928151948552602085015283015215156060820152f35b5080fd5b8383346100c957806003193601126100c9576100e7610ce7565b6100ef610d01565b82516306393bef60e11b8152926001600160a01b038084169360209391929084878a81895afa9687156102aa578897610479575b508151639861f3e560e01b815285818b818a5afa90811561032157899161044c575b50843391160361040b5761015890610e31565b9585151580610400575b156103cb5781516327a7d9a760e21b815285818b818a5afa90811561032157899161039e575b50600681101561038b5760020361032b57831681516370a0823160e01b8152308a8201528581602481855afa908115610321579088918a916102ec575b50106102b457866101d4578780f35b815163a9059cbb60e01b81526001600160a01b038416818b01908152602081018990529091869183919082908c90829060400103925af180156102aa5761027d575b5084875286845260028188200180549087820180921161026a577ff75e0f5f6602ca4c59226d587ca078ea5a4ac300638072b99386035b776f2644969798995055519586521693a380828080808080808780f35b634e487b7160e01b895260118a52602489fd5b61029c90853d87116102a3575b6102948183610d17565b810190610de8565b5088610216565b503d61028a565b82513d8a823e3d90fd5b815162461bcd60e51b8152808a018690526012602482015271496e73756666696369656e742066756e647360701b6044820152606490fd5b809250878092503d831161031a575b6103058183610d17565b81010312610316578790518b6101c5565b8880fd5b503d6102fb565b83513d8b823e3d90fd5b815162461bcd60e51b8152808a01869052603460248201527f496e7465726573742063616e206f6e6c79206265206469737472696275746564604482015273207768656e206c6f616e2069732061637469766560601b6064820152608490fd5b634e487b7160e01b895260218a52602489fd5b6103be9150863d88116103c4575b6103b68183610d17565b810190610d4d565b8a610188565b503d6103ac565b815162461bcd60e51b8152808a01869052600f60248201526e496e76616c6964206164647265737360881b6044820152606490fd5b508383161515610162565b606489868085519262461bcd60e51b845283015260248201527f4f6e6c79204c656e6465722063616e207265717565737420696e7465726573746044820152fd5b61046c9150863d8811610472575b6104648183610d17565b810190610da8565b8a610145565b503d61045a565b610491919750853d8711610472576104648183610d17565b9589610123565b9050346106c757816003193601126106c7576104b2610ce7565b906104bb610d01565b6001600160a01b03838116939091906104d5851515610d65565b85516327a7d9a760e21b815260209490858183818a5afa9081156107585789916107c9575b5060068110156107b657600303610762578651639861f3e560e01b815292858483818a5afa938415610758578994610739575b5084808216941684036106ff5786895288865288888120958951946306393bef60e11b8652888686818d5afa9586156106d25783966106dc575b5061057190610e31565b6002880154908181116105a5575b838b5f80516020610f778339815191528c8f60038e0160ff19815416905551848152a280f35b906105af91610dc7565b94169289516370a0823160e01b815230828201528881602481885afa80156106d2578691849161069d575b5010156105e9575b808061057f565b895163a9059cbb60e01b81526001600160a01b03909316908301908152602081018590529192879284928391829060400103925af1801561069357957ff75e0f5f6602ca4c59226d587ca078ea5a4ac300638072b99386035b776f26448682999694600396945f80516020610f778339815191529a610676575b508751908152a39194935f8088816105e2565b61068c90833d85116102a3576102948183610d17565b505f610663565b87513d8a823e3d90fd5b8092508a8092503d83116106cb575b6106b68183610d17565b810103126106c7578590515f6105da565b8280fd5b503d6106ac565b8b513d85823e3d90fd5b6105719196506106f8908a3d8c11610472576104648183610d17565b9590610567565b875162461bcd60e51b8152808301879052601460248201527357726f6e67204c656e646572204164647265737360601b6044820152606490fd5b610751919450863d8811610472576104648183610d17565b925f61052d565b88513d8b823e3d90fd5b865162461bcd60e51b8152908101859052602860248201527f4c6f616e206d7573742062652064656661756c74656420746f2068616e646c6560448201526708191959985d5b1d60c21b6064820152608490fd5b634e487b7160e01b895260218252602489fd5b6107e09150863d88116103c4576103b68183610d17565b5f6104fa565b9050346106c757816003193601126106c757610800610ce7565b610808610d01565b6001600160a01b03918216808652602086815285872086516306393bef60e11b8152969294919391929084888881895afa978815610a1c5789986109fd575b50815163019312fb60e61b8152858189818a5afa9081156109b557908592918b916109c8575b5061089160029161088c610885600186015442610dc7565b8554610e00565b610e13565b910154808211156109bf576108a591610dc7565b975b82516370a0823160e01b8152308982015291169785826024818c5afa80156109b5578a90610982575b6108da9250610dc7565b9588876108e45780f35b825163a9059cbb60e01b81526001600160a01b038516928101928352602083018990529886928a928391829060400103925af1968715610978577fdc8f7dbb2bda12e6e832594febb6bd75a56d911f037d5bdcae843e72c7f2179695969761095b575b50519586521693a35f808080808080808880f35b61097190853d87116102a3576102948183610d17565b505f610947565b81513d8a823e3d90fd5b508582813d83116109ae575b6109988183610d17565b810103126109aa576108da91516108d0565b8980fd5b503d61098e565b83513d8c823e3d90fd5b505088976108a7565b809350878092503d83116109f6575b6109e18183610d17565b810103126109aa57905184919061089161086d565b503d6109d7565b610a15919850853d8711610472576104648183610d17565b965f610847565b82513d8b823e3d90fd5b8383346100c9576020806003193601126106c7576001600160a01b03610a4a610ce7565b169180516327a7d9a760e21b815282818781875afa908115610b6a578591610bca575b506006811015610bb757600203610b7457610a89831515610d65565b805163eb0c495560e01b815282818781875afa908115610b6a578591610b39575b508151906080820182811067ffffffffffffffff821117610b26575f80516020610f778339815191529596975083528152600383820191428352838101888152606082019360018552888a52898752858a2092518355516001830155516002820155019051151560ff801983541691161790555160018152a280f35b634e487b7160e01b875260418852602487fd5b90508281813d8311610b63575b610b508183610d17565b81010312610b5f575186610aaa565b8480fd5b503d610b46565b82513d87823e3d90fd5b5162461bcd60e51b815280850191909152601f60248201527f4c6f616e206d7573742062652061637469766520746f207265676973746572006044820152606490fd5b634e487b7160e01b855260218652602485fd5b610be19150833d85116103c4576103b68183610d17565b86610a6d565b5050346100c95760203660031901126100c957602090610c0d610c08610ce7565b610e31565b9051908152f35b919050346106c75760203660031901126106c7576001600160a01b03610c38610ce7565b1691610c45831515610d65565b8284528360205260ff600383862001541615610c92575060205f80516020610f7783398151915291838552848252846003828220828155826001820155826002820155015551848152a280f35b6020608492519162461bcd60e51b8352820152602a60248201527f506f6f6c206973206e6f7420616374697665206f7220616c72656164792064656044820152691c9959da5cdd195c995960b21b6064820152fd5b600435906001600160a01b0382168203610cfd57565b5f80fd5b602435906001600160a01b0382168203610cfd57565b90601f8019910116810190811067ffffffffffffffff821117610d3957604052565b634e487b7160e01b5f52604160045260245ffd5b90816020910312610cfd57516006811015610cfd5790565b15610d6c57565b60405162461bcd60e51b8152602060048201526014602482015273496e76616c696420706f6f6c206164647265737360601b6044820152606490fd5b90816020910312610cfd57516001600160a01b0381168103610cfd5790565b91908203918211610dd457565b634e487b7160e01b5f52601160045260245ffd5b90816020910312610cfd57518015158103610cfd5790565b81810292918115918404141715610dd457565b8115610e1d570490565b634e487b7160e01b5f52601260045260245ffd5b6001600160a01b0316610e45811515610d65565b5f90808252602090828252604083209160ff60038401541615610f7057806004926040519384809263019312fb60e61b82525afa918215610f65578492610f32575b508115610edb5750610eb6600291610ea3600185015442610dc7565b818111610ed4575b61088c908554610e00565b9101549081811115610ecf57610ecc9250610dc7565b90565b505090565b5080610eab565b6084906040519062461bcd60e51b82526004820152602a60248201527f52657061796d656e7420706572696f64206d7573742062652067726561746572604482015269207468616e207a65726f60b01b6064820152fd5b9080925081813d8311610f5e575b610f4a8183610d17565b81010312610f5a5751905f610e87565b8380fd5b503d610f40565b6040513d86823e3d90fd5b5050509056fed73d30acc098b20bed08c7438ffe13e0fc22f72e047310ea82346fd5f2157694a264697066735822122046793a201e7980bfcb4394e69ba1340233c709d3e3a5eb5de3866c9e2ba565fd64736f6c63430008140033",
			"opcodes": "PUSH1 0x80 DUP1 PUSH1 0x40 MSTORE CALLVALUE PUSH2 0x16 JUMPI PUSH2 0xFCC SWAP1 DUP2 PUSH2 0x1B DUP3 CODECOPY RETURN JUMPDEST PUSH0 DUP1 REVERT INVALID PUSH1 0x40 PUSH1 0x80 DUP2 MSTORE PUSH1 0x4 SWAP1 DUP2 CALLDATASIZE LT ISZERO PUSH2 0x14 JUMPI PUSH0 DUP1 REVERT JUMPDEST PUSH0 SWAP2 DUP3 CALLDATALOAD PUSH1 0xE0 SHR SWAP1 DUP2 PUSH4 0x38E270ED EQ PUSH2 0xC14 JUMPI DUP2 PUSH4 0x51B2D521 EQ PUSH2 0xBE7 JUMPI DUP2 PUSH4 0x5228A4DA EQ PUSH2 0xA26 JUMPI DUP2 PUSH4 0x56F78A1D EQ PUSH2 0x7E6 JUMPI DUP2 PUSH4 0x713C00CE EQ PUSH2 0x498 JUMPI DUP2 PUSH4 0xD302BF76 EQ PUSH2 0xCD JUMPI POP PUSH4 0xFB96B135 EQ PUSH2 0x6D JUMPI PUSH0 DUP1 REVERT JUMPDEST CALLVALUE PUSH2 0xC9 JUMPI PUSH1 0x20 CALLDATASIZE PUSH1 0x3 NOT ADD SLT PUSH2 0xC9 JUMPI PUSH1 0x80 SWAP2 DUP2 SWAP1 PUSH1 0x1 PUSH1 0x1 PUSH1 0xA0 SHL SUB PUSH2 0x93 PUSH2 0xCE7 JUMP JUMPDEST AND DUP2 MSTORE DUP1 PUSH1 0x20 MSTORE KECCAK256 SWAP1 DUP2 SLOAD SWAP2 PUSH1 0x1 DUP2 ADD SLOAD SWAP2 PUSH1 0xFF PUSH1 0x3 PUSH1 0x2 DUP5 ADD SLOAD SWAP4 ADD SLOAD AND SWAP3 DUP2 MLOAD SWAP5 DUP6 MSTORE PUSH1 0x20 DUP6 ADD MSTORE DUP4 ADD MSTORE ISZERO ISZERO PUSH1 0x60 DUP3 ADD MSTORE RETURN JUMPDEST POP DUP1 REVERT JUMPDEST DUP4 DUP4 CALLVALUE PUSH2 0xC9 JUMPI DUP1 PUSH1 0x3 NOT CALLDATASIZE ADD SLT PUSH2 0xC9 JUMPI PUSH2 0xE7 PUSH2 0xCE7 JUMP JUMPDEST PUSH2 0xEF PUSH2 0xD01 JUMP JUMPDEST DUP3 MLOAD PUSH4 0x6393BEF PUSH1 0xE1 SHL DUP2 MSTORE SWAP3 PUSH1 0x1 PUSH1 0x1 PUSH1 0xA0 SHL SUB DUP1 DUP5 AND SWAP4 PUSH1 0x20 SWAP4 SWAP2 SWAP3 SWAP1 DUP5 DUP8 DUP11 DUP2 DUP10 GAS STATICCALL SWAP7 DUP8 ISZERO PUSH2 0x2AA JUMPI DUP9 SWAP8 PUSH2 0x479 JUMPI JUMPDEST POP DUP2 MLOAD PUSH4 0x9861F3E5 PUSH1 0xE0 SHL DUP2 MSTORE DUP6 DUP2 DUP12 DUP2 DUP11 GAS STATICCALL SWAP1 DUP2 ISZERO PUSH2 0x321 JUMPI DUP10 SWAP2 PUSH2 0x44C JUMPI JUMPDEST POP DUP5 CALLER SWAP2 AND SUB PUSH2 0x40B JUMPI PUSH2 0x158 SWAP1 PUSH2 0xE31 JUMP JUMPDEST SWAP6 DUP6 ISZERO ISZERO DUP1 PUSH2 0x400 JUMPI JUMPDEST ISZERO PUSH2 0x3CB JUMPI DUP2 MLOAD PUSH4 0x27A7D9A7 PUSH1 0xE2 SHL DUP2 MSTORE DUP6 DUP2 DUP12 DUP2 DUP11 GAS STATICCALL SWAP1 DUP2 ISZERO PUSH2 0x321 JUMPI DUP10 SWAP2 PUSH2 0x39E JUMPI JUMPDEST POP PUSH1 0x6 DUP2 LT ISZERO PUSH2 0x38B JUMPI PUSH1 0x2 SUB PUSH2 0x32B JUMPI DUP4 AND DUP2 MLOAD PUSH4 0x70A08231 PUSH1 0xE0 SHL DUP2 MSTORE ADDRESS DUP11 DUP3 ADD MSTORE DUP6 DUP2 PUSH1 0x24 DUP2 DUP6 GAS STATICCALL SWAP1 DUP2 ISZERO PUSH2 0x321 JUMPI SWAP1 DUP9 SWAP2 DUP11 SWAP2 PUSH2 0x2EC JUMPI JUMPDEST POP LT PUSH2 0x2B4 JUMPI DUP7 PUSH2 0x1D4 JUMPI DUP8 DUP1 RETURN JUMPDEST DUP2 MLOAD PUSH4 0xA9059CBB PUSH1 0xE0 SHL DUP2 MSTORE PUSH1 0x1 PUSH1 0x1 PUSH1 0xA0 SHL SUB DUP5 AND DUP2 DUP12 ADD SWAP1 DUP2 MSTORE PUSH1 0x20 DUP2 ADD DUP10 SWAP1 MSTORE SWAP1 SWAP2 DUP7 SWAP2 DUP4 SWAP2 SWAP1 DUP3 SWAP1 DUP13 SWAP1 DUP3 SWAP1 PUSH1 0x40 ADD SUB SWAP3 GAS CALL DUP1 ISZERO PUSH2 0x2AA JUMPI PUSH2 0x27D JUMPI JUMPDEST POP DUP5 DUP8 MSTORE DUP7 DUP5 MSTORE PUSH1 0x2 DUP2 DUP9 KECCAK256 ADD DUP1 SLOAD SWAP1 DUP8 DUP3 ADD DUP1 SWAP3 GT PUSH2 0x26A JUMPI PUSH32 0xF75E0F5F6602CA4C59226D587CA078EA5A4AC300638072B99386035B776F2644 SWAP7 SWAP8 SWAP9 SWAP10 POP SSTORE MLOAD SWAP6 DUP7 MSTORE AND SWAP4 LOG3 DUP1 DUP3 DUP1 DUP1 DUP1 DUP1 DUP1 DUP1 DUP8 DUP1 RETURN JUMPDEST PUSH4 0x4E487B71 PUSH1 0xE0 SHL DUP10 MSTORE PUSH1 0x11 DUP11 MSTORE PUSH1 0x24 DUP10 REVERT JUMPDEST PUSH2 0x29C SWAP1 DUP6 RETURNDATASIZE DUP8 GT PUSH2 0x2A3 JUMPI JUMPDEST PUSH2 0x294 DUP2 DUP4 PUSH2 0xD17 JUMP JUMPDEST DUP2 ADD SWAP1 PUSH2 0xDE8 JUMP JUMPDEST POP DUP9 PUSH2 0x216 JUMP JUMPDEST POP RETURNDATASIZE PUSH2 0x28A JUMP JUMPDEST DUP3 MLOAD RETURNDATASIZE DUP11 DUP3 RETURNDATACOPY RETURNDATASIZE SWAP1 REVERT JUMPDEST DUP2 MLOAD PUSH3 0x461BCD PUSH1 0xE5 SHL DUP2 MSTORE DUP1 DUP11 ADD DUP7 SWAP1 MSTORE PUSH1 0x12 PUSH1 0x24 DUP3 ADD MSTORE PUSH18 0x496E73756666696369656E742066756E6473 PUSH1 0x70 SHL PUSH1 0x44 DUP3 ADD MSTORE PUSH1 0x64 SWAP1 REVERT JUMPDEST DUP1 SWAP3 POP DUP8 DUP1 SWAP3 POP RETURNDATASIZE DUP4 GT PUSH2 0x31A JUMPI JUMPDEST PUSH2 0x305 DUP2 DUP4 PUSH2 0xD17 JUMP JUMPDEST DUP2 ADD SUB SLT PUSH2 0x316 JUMPI DUP8 SWAP1 MLOAD DUP12 PUSH2 0x1C5 JUMP JUMPDEST DUP9 DUP1 REVERT JUMPDEST POP RETURNDATASIZE PUSH2 0x2FB JUMP JUMPDEST DUP4 MLOAD RETURNDATASIZE DUP12 DUP3 RETURNDATACOPY RETURNDATASIZE SWAP1 REVERT JUMPDEST DUP2 MLOAD PUSH3 0x461BCD PUSH1 0xE5 SHL DUP2 MSTORE DUP1 DUP11 ADD DUP7 SWAP1 MSTORE PUSH1 0x34 PUSH1 0x24 DUP3 ADD MSTORE PUSH32 0x496E7465726573742063616E206F6E6C79206265206469737472696275746564 PUSH1 0x44 DUP3 ADD MSTORE PUSH20 0x207768656E206C6F616E20697320616374697665 PUSH1 0x60 SHL PUSH1 0x64 DUP3 ADD MSTORE PUSH1 0x84 SWAP1 REVERT JUMPDEST PUSH4 0x4E487B71 PUSH1 0xE0 SHL DUP10 MSTORE PUSH1 0x21 DUP11 MSTORE PUSH1 0x24 DUP10 REVERT JUMPDEST PUSH2 0x3BE SWAP2 POP DUP7 RETURNDATASIZE DUP9 GT PUSH2 0x3C4 JUMPI JUMPDEST PUSH2 0x3B6 DUP2 DUP4 PUSH2 0xD17 JUMP JUMPDEST DUP2 ADD SWAP1 PUSH2 0xD4D JUMP JUMPDEST DUP11 PUSH2 0x188 JUMP JUMPDEST POP RETURNDATASIZE PUSH2 0x3AC JUMP JUMPDEST DUP2 MLOAD PUSH3 0x461BCD PUSH1 0xE5 SHL DUP2 MSTORE DUP1 DUP11 ADD DUP7 SWAP1 MSTORE PUSH1 0xF PUSH1 0x24 DUP3 ADD MSTORE PUSH15 0x496E76616C69642061646472657373 PUSH1 0x88 SHL PUSH1 0x44 DUP3 ADD MSTORE PUSH1 0x64 SWAP1 REVERT JUMPDEST POP DUP4 DUP4 AND ISZERO ISZERO PUSH2 0x162 JUMP JUMPDEST PUSH1 0x64 DUP10 DUP7 DUP1 DUP6 MLOAD SWAP3 PUSH3 0x461BCD PUSH1 0xE5 SHL DUP5 MSTORE DUP4 ADD MSTORE PUSH1 0x24 DUP3 ADD MSTORE PUSH32 0x4F6E6C79204C656E6465722063616E207265717565737420696E746572657374 PUSH1 0x44 DUP3 ADD MSTORE REVERT JUMPDEST PUSH2 0x46C SWAP2 POP DUP7 RETURNDATASIZE DUP9 GT PUSH2 0x472 JUMPI JUMPDEST PUSH2 0x464 DUP2 DUP4 PUSH2 0xD17 JUMP JUMPDEST DUP2 ADD SWAP1 PUSH2 0xDA8 JUMP JUMPDEST DUP11 PUSH2 0x145 JUMP JUMPDEST POP RETURNDATASIZE PUSH2 0x45A JUMP JUMPDEST PUSH2 0x491 SWAP2 SWAP8 POP DUP6 RETURNDATASIZE DUP8 GT PUSH2 0x472 JUMPI PUSH2 0x464 DUP2 DUP4 PUSH2 0xD17 JUMP JUMPDEST SWAP6 DUP10 PUSH2 0x123 JUMP JUMPDEST SWAP1 POP CALLVALUE PUSH2 0x6C7 JUMPI DUP2 PUSH1 0x3 NOT CALLDATASIZE ADD SLT PUSH2 0x6C7 JUMPI PUSH2 0x4B2 PUSH2 0xCE7 JUMP JUMPDEST SWAP1 PUSH2 0x4BB PUSH2 0xD01 JUMP JUMPDEST PUSH1 0x1 PUSH1 0x1 PUSH1 0xA0 SHL SUB DUP4 DUP2 AND SWAP4 SWAP1 SWAP2 SWAP1 PUSH2 0x4D5 DUP6 ISZERO ISZERO PUSH2 0xD65 JUMP JUMPDEST DUP6 MLOAD PUSH4 0x27A7D9A7 PUSH1 0xE2 SHL DUP2 MSTORE PUSH1 0x20 SWAP5 SWAP1 DUP6 DUP2 DUP4 DUP2 DUP11 GAS STATICCALL SWAP1 DUP2 ISZERO PUSH2 0x758 JUMPI DUP10 SWAP2 PUSH2 0x7C9 JUMPI JUMPDEST POP PUSH1 0x6 DUP2 LT ISZERO PUSH2 0x7B6 JUMPI PUSH1 0x3 SUB PUSH2 0x762 JUMPI DUP7 MLOAD PUSH4 0x9861F3E5 PUSH1 0xE0 SHL DUP2 MSTORE SWAP3 DUP6 DUP5 DUP4 DUP2 DUP11 GAS STATICCALL SWAP4 DUP5 ISZERO PUSH2 0x758 JUMPI DUP10 SWAP5 PUSH2 0x739 JUMPI JUMPDEST POP DUP5 DUP1 DUP3 AND SWAP5 AND DUP5 SUB PUSH2 0x6FF JUMPI DUP7 DUP10 MSTORE DUP9 DUP7 MSTORE DUP9 DUP9 DUP2 KECCAK256 SWAP6 DUP10 MLOAD SWAP5 PUSH4 0x6393BEF PUSH1 0xE1 SHL DUP7 MSTORE DUP9 DUP7 DUP7 DUP2 DUP14 GAS STATICCALL SWAP6 DUP7 ISZERO PUSH2 0x6D2 JUMPI DUP4 SWAP7 PUSH2 0x6DC JUMPI JUMPDEST POP PUSH2 0x571 SWAP1 PUSH2 0xE31 JUMP JUMPDEST PUSH1 0x2 DUP9 ADD SLOAD SWAP1 DUP2 DUP2 GT PUSH2 0x5A5 JUMPI JUMPDEST DUP4 DUP12 PUSH0 DUP1 MLOAD PUSH1 0x20 PUSH2 0xF77 DUP4 CODECOPY DUP2 MLOAD SWAP2 MSTORE DUP13 DUP16 PUSH1 0x3 DUP15 ADD PUSH1 0xFF NOT DUP2 SLOAD AND SWAP1 SSTORE MLOAD DUP5 DUP2 MSTORE LOG2 DUP1 RETURN JUMPDEST SWAP1 PUSH2 0x5AF SWAP2 PUSH2 0xDC7 JUMP JUMPDEST SWAP5 AND SWAP3 DUP10 MLOAD PUSH4 0x70A08231 PUSH1 0xE0 SHL DUP2 MSTORE ADDRESS DUP3 DUP3 ADD MSTORE DUP9 DUP2 PUSH1 0x24 DUP2 DUP9 GAS STATICCALL DUP1 ISZERO PUSH2 0x6D2 JUMPI DUP7 SWAP2 DUP5 SWAP2 PUSH2 0x69D JUMPI JUMPDEST POP LT ISZERO PUSH2 0x5E9 JUMPI JUMPDEST DUP1 DUP1 PUSH2 0x57F JUMP JUMPDEST DUP10 MLOAD PUSH4 0xA9059CBB PUSH1 0xE0 SHL DUP2 MSTORE PUSH1 0x1 PUSH1 0x1 PUSH1 0xA0 SHL SUB SWAP1 SWAP4 AND SWAP1 DUP4 ADD SWAP1 DUP2 MSTORE PUSH1 0x20 DUP2 ADD DUP6 SWAP1 MSTORE SWAP2 SWAP3 DUP8 SWAP3 DUP5 SWAP3 DUP4 SWAP2 DUP3 SWAP1 PUSH1 0x40 ADD SUB SWAP3 GAS CALL DUP1 ISZERO PUSH2 0x693 JUMPI SWAP6 PUSH32 0xF75E0F5F6602CA4C59226D587CA078EA5A4AC300638072B99386035B776F2644 DUP7 DUP3 SWAP10 SWAP7 SWAP5 PUSH1 0x3 SWAP7 SWAP5 PUSH0 DUP1 MLOAD PUSH1 0x20 PUSH2 0xF77 DUP4 CODECOPY DUP2 MLOAD SWAP2 MSTORE SWAP11 PUSH2 0x676 JUMPI JUMPDEST POP DUP8 MLOAD SWAP1 DUP2 MSTORE LOG3 SWAP2 SWAP5 SWAP4 PUSH0 DUP1 DUP9 DUP2 PUSH2 0x5E2 JUMP JUMPDEST PUSH2 0x68C SWAP1 DUP4 RETURNDATASIZE DUP6 GT PUSH2 0x2A3 JUMPI PUSH2 0x294 DUP2 DUP4 PUSH2 0xD17 JUMP JUMPDEST POP PUSH0 PUSH2 0x663 JUMP JUMPDEST DUP8 MLOAD RETURNDATASIZE DUP11 DUP3 RETURNDATACOPY RETURNDATASIZE SWAP1 REVERT JUMPDEST DUP1 SWAP3 POP DUP11 DUP1 SWAP3 POP RETURNDATASIZE DUP4 GT PUSH2 0x6CB JUMPI JUMPDEST PUSH2 0x6B6 DUP2 DUP4 PUSH2 0xD17 JUMP JUMPDEST DUP2 ADD SUB SLT PUSH2 0x6C7 JUMPI DUP6 SWAP1 MLOAD PUSH0 PUSH2 0x5DA JUMP JUMPDEST DUP3 DUP1 REVERT JUMPDEST POP RETURNDATASIZE PUSH2 0x6AC JUMP JUMPDEST DUP12 MLOAD RETURNDATASIZE DUP6 DUP3 RETURNDATACOPY RETURNDATASIZE SWAP1 REVERT JUMPDEST PUSH2 0x571 SWAP2 SWAP7 POP PUSH2 0x6F8 SWAP1 DUP11 RETURNDATASIZE DUP13 GT PUSH2 0x472 JUMPI PUSH2 0x464 DUP2 DUP4 PUSH2 0xD17 JUMP JUMPDEST SWAP6 SWAP1 PUSH2 0x567 JUMP JUMPDEST DUP8 MLOAD PUSH3 0x461BCD PUSH1 0xE5 SHL DUP2 MSTORE DUP1 DUP4 ADD DUP8 SWAP1 MSTORE PUSH1 0x14 PUSH1 0x24 DUP3 ADD MSTORE PUSH20 0x57726F6E67204C656E6465722041646472657373 PUSH1 0x60 SHL PUSH1 0x44 DUP3 ADD MSTORE PUSH1 0x64 SWAP1 REVERT JUMPDEST PUSH2 0x751 SWAP2 SWAP5 POP DUP7 RETURNDATASIZE DUP9 GT PUSH2 0x472 JUMPI PUSH2 0x464 DUP2 DUP4 PUSH2 0xD17 JUMP JUMPDEST SWAP3 PUSH0 PUSH2 0x52D JUMP JUMPDEST DUP9 MLOAD RETURNDATASIZE DUP12 DUP3 RETURNDATACOPY RETURNDATASIZE SWAP1 REVERT JUMPDEST DUP7 MLOAD PUSH3 0x461BCD PUSH1 0xE5 SHL DUP2 MSTORE SWAP1 DUP2 ADD DUP6 SWAP1 MSTORE PUSH1 0x28 PUSH1 0x24 DUP3 ADD MSTORE PUSH32 0x4C6F616E206D7573742062652064656661756C74656420746F2068616E646C65 PUSH1 0x44 DUP3 ADD MSTORE PUSH8 0x8191959985D5B1D PUSH1 0xC2 SHL PUSH1 0x64 DUP3 ADD MSTORE PUSH1 0x84 SWAP1 REVERT JUMPDEST PUSH4 0x4E487B71 PUSH1 0xE0 SHL DUP10 MSTORE PUSH1 0x21 DUP3 MSTORE PUSH1 0x24 DUP10 REVERT JUMPDEST PUSH2 0x7E0 SWAP2 POP DUP7 RETURNDATASIZE DUP9 GT PUSH2 0x3C4 JUMPI PUSH2 0x3B6 DUP2 DUP4 PUSH2 0xD17 JUMP JUMPDEST PUSH0 PUSH2 0x4FA JUMP JUMPDEST SWAP1 POP CALLVALUE PUSH2 0x6C7 JUMPI DUP2 PUSH1 0x3 NOT CALLDATASIZE ADD SLT PUSH2 0x6C7 JUMPI PUSH2 0x800 PUSH2 0xCE7 JUMP JUMPDEST PUSH2 0x808 PUSH2 0xD01 JUMP JUMPDEST PUSH1 0x1 PUSH1 0x1 PUSH1 0xA0 SHL SUB SWAP2 DUP3 AND DUP1 DUP7 MSTORE PUSH1 0x20 DUP7 DUP2 MSTORE DUP6 DUP8 KECCAK256 DUP7 MLOAD PUSH4 0x6393BEF PUSH1 0xE1 SHL DUP2 MSTORE SWAP7 SWAP3 SWAP5 SWAP2 SWAP4 SWAP2 SWAP3 SWAP1 DUP5 DUP9 DUP9 DUP2 DUP10 GAS STATICCALL SWAP8 DUP9 ISZERO PUSH2 0xA1C JUMPI DUP10 SWAP9 PUSH2 0x9FD JUMPI JUMPDEST POP DUP2 MLOAD PUSH4 0x19312FB PUSH1 0xE6 SHL DUP2 MSTORE DUP6 DUP2 DUP10 DUP2 DUP11 GAS STATICCALL SWAP1 DUP2 ISZERO PUSH2 0x9B5 JUMPI SWAP1 DUP6 SWAP3 SWAP2 DUP12 SWAP2 PUSH2 0x9C8 JUMPI JUMPDEST POP PUSH2 0x891 PUSH1 0x2 SWAP2 PUSH2 0x88C PUSH2 0x885 PUSH1 0x1 DUP7 ADD SLOAD TIMESTAMP PUSH2 0xDC7 JUMP JUMPDEST DUP6 SLOAD PUSH2 0xE00 JUMP JUMPDEST PUSH2 0xE13 JUMP JUMPDEST SWAP2 ADD SLOAD DUP1 DUP3 GT ISZERO PUSH2 0x9BF JUMPI PUSH2 0x8A5 SWAP2 PUSH2 0xDC7 JUMP JUMPDEST SWAP8 JUMPDEST DUP3 MLOAD PUSH4 0x70A08231 PUSH1 0xE0 SHL DUP2 MSTORE ADDRESS DUP10 DUP3 ADD MSTORE SWAP2 AND SWAP8 DUP6 DUP3 PUSH1 0x24 DUP2 DUP13 GAS STATICCALL DUP1 ISZERO PUSH2 0x9B5 JUMPI DUP11 SWAP1 PUSH2 0x982 JUMPI JUMPDEST PUSH2 0x8DA SWAP3 POP PUSH2 0xDC7 JUMP JUMPDEST SWAP6 DUP9 DUP8 PUSH2 0x8E4 JUMPI DUP1 RETURN JUMPDEST DUP3 MLOAD PUSH4 0xA9059CBB PUSH1 0xE0 SHL DUP2 MSTORE PUSH1 0x1 PUSH1 0x1 PUSH1 0xA0 SHL SUB DUP6 AND SWAP3 DUP2 ADD SWAP3 DUP4 MSTORE PUSH1 0x20 DUP4 ADD DUP10 SWAP1 MSTORE SWAP9 DUP7 SWAP3 DUP11 SWAP3 DUP4 SWAP2 DUP3 SWAP1 PUSH1 0x40 ADD SUB SWAP3 GAS CALL SWAP7 DUP8 ISZERO PUSH2 0x978 JUMPI PUSH32 0xDC8F7DBB2BDA12E6E832594FEBB6BD75A56D911F037D5BDCAE843E72C7F21796 SWAP6 SWAP7 SWAP8 PUSH2 0x95B JUMPI JUMPDEST POP MLOAD SWAP6 DUP7 MSTORE AND SWAP4 LOG3 PUSH0 DUP1 DUP1 DUP1 DUP1 DUP1 DUP1 DUP1 DUP9 DUP1 RETURN JUMPDEST PUSH2 0x971 SWAP1 DUP6 RETURNDATASIZE DUP8 GT PUSH2 0x2A3 JUMPI PUSH2 0x294 DUP2 DUP4 PUSH2 0xD17 JUMP JUMPDEST POP PUSH0 PUSH2 0x947 JUMP JUMPDEST DUP2 MLOAD RETURNDATASIZE DUP11 DUP3 RETURNDATACOPY RETURNDATASIZE SWAP1 REVERT JUMPDEST POP DUP6 DUP3 DUP2 RETURNDATASIZE DUP4 GT PUSH2 0x9AE JUMPI JUMPDEST PUSH2 0x998 DUP2 DUP4 PUSH2 0xD17 JUMP JUMPDEST DUP2 ADD SUB SLT PUSH2 0x9AA JUMPI PUSH2 0x8DA SWAP2 MLOAD PUSH2 0x8D0 JUMP JUMPDEST DUP10 DUP1 REVERT JUMPDEST POP RETURNDATASIZE PUSH2 0x98E JUMP JUMPDEST DUP4 MLOAD RETURNDATASIZE DUP13 DUP3 RETURNDATACOPY RETURNDATASIZE SWAP1 REVERT JUMPDEST POP POP DUP9 SWAP8 PUSH2 0x8A7 JUMP JUMPDEST DUP1 SWAP4 POP DUP8 DUP1 SWAP3 POP RETURNDATASIZE DUP4 GT PUSH2 0x9F6 JUMPI JUMPDEST PUSH2 0x9E1 DUP2 DUP4 PUSH2 0xD17 JUMP JUMPDEST DUP2 ADD SUB SLT PUSH2 0x9AA JUMPI SWAP1 MLOAD DUP5 SWAP2 SWAP1 PUSH2 0x891 PUSH2 0x86D JUMP JUMPDEST POP RETURNDATASIZE PUSH2 0x9D7 JUMP JUMPDEST PUSH2 0xA15 SWAP2 SWAP9 POP DUP6 RETURNDATASIZE DUP8 GT PUSH2 0x472 JUMPI PUSH2 0x464 DUP2 DUP4 PUSH2 0xD17 JUMP JUMPDEST SWAP7 PUSH0 PUSH2 0x847 JUMP JUMPDEST DUP3 MLOAD RETURNDATASIZE DUP12 DUP3 RETURNDATACOPY RETURNDATASIZE SWAP1 REVERT JUMPDEST DUP4 DUP4 CALLVALUE PUSH2 0xC9 JUMPI PUSH1 0x20 DUP1 PUSH1 0x3 NOT CALLDATASIZE ADD SLT PUSH2 0x6C7 JUMPI PUSH1 0x1 PUSH1 0x1 PUSH1 0xA0 SHL SUB PUSH2 0xA4A PUSH2 0xCE7 JUMP JUMPDEST AND SWAP2 DUP1 MLOAD PUSH4 0x27A7D9A7 PUSH1 0xE2 SHL DUP2 MSTORE DUP3 DUP2 DUP8 DUP2 DUP8 GAS STATICCALL SWAP1 DUP2 ISZERO PUSH2 0xB6A JUMPI DUP6 SWAP2 PUSH2 0xBCA JUMPI JUMPDEST POP PUSH1 0x6 DUP2 LT ISZERO PUSH2 0xBB7 JUMPI PUSH1 0x2 SUB PUSH2 0xB74 JUMPI PUSH2 0xA89 DUP4 ISZERO ISZERO PUSH2 0xD65 JUMP JUMPDEST DUP1 MLOAD PUSH4 0xEB0C4955 PUSH1 0xE0 SHL DUP2 MSTORE DUP3 DUP2 DUP8 DUP2 DUP8 GAS STATICCALL SWAP1 DUP2 ISZERO PUSH2 0xB6A JUMPI DUP6 SWAP2 PUSH2 0xB39 JUMPI JUMPDEST POP DUP2 MLOAD SWAP1 PUSH1 0x80 DUP3 ADD DUP3 DUP2 LT PUSH8 0xFFFFFFFFFFFFFFFF DUP3 GT OR PUSH2 0xB26 JUMPI PUSH0 DUP1 MLOAD PUSH1 0x20 PUSH2 0xF77 DUP4 CODECOPY DUP2 MLOAD SWAP2 MSTORE SWAP6 SWAP7 SWAP8 POP DUP4 MSTORE DUP2 MSTORE PUSH1 0x3 DUP4 DUP3 ADD SWAP2 TIMESTAMP DUP4 MSTORE DUP4 DUP2 ADD DUP9 DUP2 MSTORE PUSH1 0x60 DUP3 ADD SWAP4 PUSH1 0x1 DUP6 MSTORE DUP9 DUP11 MSTORE DUP10 DUP8 MSTORE DUP6 DUP11 KECCAK256 SWAP3 MLOAD DUP4 SSTORE MLOAD PUSH1 0x1 DUP4 ADD SSTORE MLOAD PUSH1 0x2 DUP3 ADD SSTORE ADD SWAP1 MLOAD ISZERO ISZERO PUSH1 0xFF DUP1 NOT DUP4 SLOAD AND SWAP2 AND OR SWAP1 SSTORE MLOAD PUSH1 0x1 DUP2 MSTORE LOG2 DUP1 RETURN JUMPDEST PUSH4 0x4E487B71 PUSH1 0xE0 SHL DUP8 MSTORE PUSH1 0x41 DUP9 MSTORE PUSH1 0x24 DUP8 REVERT JUMPDEST SWAP1 POP DUP3 DUP2 DUP2 RETURNDATASIZE DUP4 GT PUSH2 0xB63 JUMPI JUMPDEST PUSH2 0xB50 DUP2 DUP4 PUSH2 0xD17 JUMP JUMPDEST DUP2 ADD SUB SLT PUSH2 0xB5F JUMPI MLOAD DUP7 PUSH2 0xAAA JUMP JUMPDEST DUP5 DUP1 REVERT JUMPDEST POP RETURNDATASIZE PUSH2 0xB46 JUMP JUMPDEST DUP3 MLOAD RETURNDATASIZE DUP8 DUP3 RETURNDATACOPY RETURNDATASIZE SWAP1 REVERT JUMPDEST MLOAD PUSH3 0x461BCD PUSH1 0xE5 SHL DUP2 MSTORE DUP1 DUP6 ADD SWAP2 SWAP1 SWAP2 MSTORE PUSH1 0x1F PUSH1 0x24 DUP3 ADD MSTORE PUSH32 0x4C6F616E206D7573742062652061637469766520746F20726567697374657200 PUSH1 0x44 DUP3 ADD MSTORE PUSH1 0x64 SWAP1 REVERT JUMPDEST PUSH4 0x4E487B71 PUSH1 0xE0 SHL DUP6 MSTORE PUSH1 0x21 DUP7 MSTORE PUSH1 0x24 DUP6 REVERT JUMPDEST PUSH2 0xBE1 SWAP2 POP DUP4 RETURNDATASIZE DUP6 GT PUSH2 0x3C4 JUMPI PUSH2 0x3B6 DUP2 DUP4 PUSH2 0xD17 JUMP JUMPDEST DUP7 PUSH2 0xA6D JUMP JUMPDEST POP POP CALLVALUE PUSH2 0xC9 JUMPI PUSH1 0x20 CALLDATASIZE PUSH1 0x3 NOT ADD SLT PUSH2 0xC9 JUMPI PUSH1 0x20 SWAP1 PUSH2 0xC0D PUSH2 0xC08 PUSH2 0xCE7 JUMP JUMPDEST PUSH2 0xE31 JUMP JUMPDEST SWAP1 MLOAD SWAP1 DUP2 MSTORE RETURN JUMPDEST SWAP2 SWAP1 POP CALLVALUE PUSH2 0x6C7 JUMPI PUSH1 0x20 CALLDATASIZE PUSH1 0x3 NOT ADD SLT PUSH2 0x6C7 JUMPI PUSH1 0x1 PUSH1 0x1 PUSH1 0xA0 SHL SUB PUSH2 0xC38 PUSH2 0xCE7 JUMP JUMPDEST AND SWAP2 PUSH2 0xC45 DUP4 ISZERO ISZERO PUSH2 0xD65 JUMP JUMPDEST DUP3 DUP5 MSTORE DUP4 PUSH1 0x20 MSTORE PUSH1 0xFF PUSH1 0x3 DUP4 DUP7 KECCAK256 ADD SLOAD AND ISZERO PUSH2 0xC92 JUMPI POP PUSH1 0x20 PUSH0 DUP1 MLOAD PUSH1 0x20 PUSH2 0xF77 DUP4 CODECOPY DUP2 MLOAD SWAP2 MSTORE SWAP2 DUP4 DUP6 MSTORE DUP5 DUP3 MSTORE DUP5 PUSH1 0x3 DUP3 DUP3 KECCAK256 DUP3 DUP2 SSTORE DUP3 PUSH1 0x1 DUP3 ADD SSTORE DUP3 PUSH1 0x2 DUP3 ADD SSTORE ADD SSTORE MLOAD DUP5 DUP2 MSTORE LOG2 DUP1 RETURN JUMPDEST PUSH1 0x20 PUSH1 0x84 SWAP3 MLOAD SWAP2 PUSH3 0x461BCD PUSH1 0xE5 SHL DUP4 MSTORE DUP3 ADD MSTORE PUSH1 0x2A PUSH1 0x24 DUP3 ADD MSTORE PUSH32 0x506F6F6C206973206E6F7420616374697665206F7220616C7265616479206465 PUSH1 0x44 DUP3 ADD MSTORE PUSH10 0x1C9959DA5CDD195C9959 PUSH1 0xB2 SHL PUSH1 0x64 DUP3 ADD MSTORE REVERT JUMPDEST PUSH1 0x4 CALLDATALOAD SWAP1 PUSH1 0x1 PUSH1 0x1 PUSH1 0xA0 SHL SUB DUP3 AND DUP3 SUB PUSH2 0xCFD JUMPI JUMP JUMPDEST PUSH0 DUP1 REVERT JUMPDEST PUSH1 0x24 CALLDATALOAD SWAP1 PUSH1 0x1 PUSH1 0x1 PUSH1 0xA0 SHL SUB DUP3 AND DUP3 SUB PUSH2 0xCFD JUMPI JUMP JUMPDEST SWAP1 PUSH1 0x1F DUP1 NOT SWAP2 ADD AND DUP2 ADD SWAP1 DUP2 LT PUSH8 0xFFFFFFFFFFFFFFFF DUP3 GT OR PUSH2 0xD39 JUMPI PUSH1 0x40 MSTORE JUMP JUMPDEST PUSH4 0x4E487B71 PUSH1 0xE0 SHL PUSH0 MSTORE PUSH1 0x41 PUSH1 0x4 MSTORE PUSH1 0x24 PUSH0 REVERT JUMPDEST SWAP1 DUP2 PUSH1 0x20 SWAP2 SUB SLT PUSH2 0xCFD JUMPI MLOAD PUSH1 0x6 DUP2 LT ISZERO PUSH2 0xCFD JUMPI SWAP1 JUMP JUMPDEST ISZERO PUSH2 0xD6C JUMPI JUMP JUMPDEST PUSH1 0x40 MLOAD PUSH3 0x461BCD PUSH1 0xE5 SHL DUP2 MSTORE PUSH1 0x20 PUSH1 0x4 DUP3 ADD MSTORE PUSH1 0x14 PUSH1 0x24 DUP3 ADD MSTORE PUSH20 0x496E76616C696420706F6F6C2061646472657373 PUSH1 0x60 SHL PUSH1 0x44 DUP3 ADD MSTORE PUSH1 0x64 SWAP1 REVERT JUMPDEST SWAP1 DUP2 PUSH1 0x20 SWAP2 SUB SLT PUSH2 0xCFD JUMPI MLOAD PUSH1 0x1 PUSH1 0x1 PUSH1 0xA0 SHL SUB DUP2 AND DUP2 SUB PUSH2 0xCFD JUMPI SWAP1 JUMP JUMPDEST SWAP2 SWAP1 DUP3 SUB SWAP2 DUP3 GT PUSH2 0xDD4 JUMPI JUMP JUMPDEST PUSH4 0x4E487B71 PUSH1 0xE0 SHL PUSH0 MSTORE PUSH1 0x11 PUSH1 0x4 MSTORE PUSH1 0x24 PUSH0 REVERT JUMPDEST SWAP1 DUP2 PUSH1 0x20 SWAP2 SUB SLT PUSH2 0xCFD JUMPI MLOAD DUP1 ISZERO ISZERO DUP2 SUB PUSH2 0xCFD JUMPI SWAP1 JUMP JUMPDEST DUP2 DUP2 MUL SWAP3 SWAP2 DUP2 ISZERO SWAP2 DUP5 DIV EQ OR ISZERO PUSH2 0xDD4 JUMPI JUMP JUMPDEST DUP2 ISZERO PUSH2 0xE1D JUMPI DIV SWAP1 JUMP JUMPDEST PUSH4 0x4E487B71 PUSH1 0xE0 SHL PUSH0 MSTORE PUSH1 0x12 PUSH1 0x4 MSTORE PUSH1 0x24 PUSH0 REVERT JUMPDEST PUSH1 0x1 PUSH1 0x1 PUSH1 0xA0 SHL SUB AND PUSH2 0xE45 DUP2 ISZERO ISZERO PUSH2 0xD65 JUMP JUMPDEST PUSH0 SWAP1 DUP1 DUP3 MSTORE PUSH1 0x20 SWAP1 DUP3 DUP3 MSTORE PUSH1 0x40 DUP4 KECCAK256 SWAP2 PUSH1 0xFF PUSH1 0x3 DUP5 ADD SLOAD AND ISZERO PUSH2 0xF70 JUMPI DUP1 PUSH1 0x4 SWAP3 PUSH1 0x40 MLOAD SWAP4 DUP5 DUP1 SWAP3 PUSH4 0x19312FB PUSH1 0xE6 SHL DUP3 MSTORE GAS STATICCALL SWAP2 DUP3 ISZERO PUSH2 0xF65 JUMPI DUP5 SWAP3 PUSH2 0xF32 JUMPI JUMPDEST POP DUP2 ISZERO PUSH2 0xEDB JUMPI POP PUSH2 0xEB6 PUSH1 0x2 SWAP2 PUSH2 0xEA3 PUSH1 0x1 DUP6 ADD SLOAD TIMESTAMP PUSH2 0xDC7 JUMP JUMPDEST DUP2 DUP2 GT PUSH2 0xED4 JUMPI JUMPDEST PUSH2 0x88C SWAP1 DUP6 SLOAD PUSH2 0xE00 JUMP JUMPDEST SWAP2 ADD SLOAD SWAP1 DUP2 DUP2 GT ISZERO PUSH2 0xECF JUMPI PUSH2 0xECC SWAP3 POP PUSH2 0xDC7 JUMP JUMPDEST SWAP1 JUMP JUMPDEST POP POP SWAP1 JUMP JUMPDEST POP DUP1 PUSH2 0xEAB JUMP JUMPDEST PUSH1 0x84 SWAP1 PUSH1 0x40 MLOAD SWAP1 PUSH3 0x461BCD PUSH1 0xE5 SHL DUP3 MSTORE PUSH1 0x4 DUP3 ADD MSTORE PUSH1 0x2A PUSH1 0x24 DUP3 ADD MSTORE PUSH32 0x52657061796D656E7420706572696F64206D7573742062652067726561746572 PUSH1 0x44 DUP3 ADD MSTORE PUSH10 0x207468616E207A65726F PUSH1 0xB0 SHL PUSH1 0x64 DUP3 ADD MSTORE REVERT JUMPDEST SWAP1 DUP1 SWAP3 POP DUP2 DUP2 RETURNDATASIZE DUP4 GT PUSH2 0xF5E JUMPI JUMPDEST PUSH2 0xF4A DUP2 DUP4 PUSH2 0xD17 JUMP JUMPDEST DUP2 ADD SUB SLT PUSH2 0xF5A JUMPI MLOAD SWAP1 PUSH0 PUSH2 0xE87 JUMP JUMPDEST DUP4 DUP1 REVERT JUMPDEST POP RETURNDATASIZE PUSH2 0xF40 JUMP JUMPDEST PUSH1 0x40 MLOAD RETURNDATASIZE DUP7 DUP3 RETURNDATACOPY RETURNDATASIZE SWAP1 REVERT JUMPDEST POP POP POP SWAP1 JUMP INVALID 0xD7 RETURNDATASIZE ADDRESS 0xAC 0xC0 SWAP9 0xB2 SIGNEXTEND 0xED ADDMOD 0xC7 NUMBER DUP16 INVALID SGT 0xE0 0xFC 0x22 0xF7 0x2E DIV PUSH20 0x10EA82346FD5F2157694A2646970667358221220 CHAINID PUSH26 0x3A201E7980BFCB4394E69BA1340233C709D3E3A5EB5DE3866C9E 0x2B 0xA5 PUSH6 0xFD64736F6C63 NUMBER STOP ADDMOD EQ STOP CALLER "
		},
		"gasEstimates": {
			"creation": {
				"codeDepositCost": "808800",
				"executionCost": "852",
				"totalCost": "809652"
			},
			"external": {
				"calculateClaimableInterest(address)": "infinite",
				"deregisterVault(address)": "infinite",
				"distributeInterest(address,address)": "infinite",
				"handleDefault(address,address)": "infinite",
				"interestInfo(address)": "8948",
				"refundRemainingInterest(address,address)": "infinite",
				"registerPoolVault(address)": "infinite"
			}
		},
		"methodIdentifiers": {
			"calculateClaimableInterest(address)": "51b2d521",
			"deregisterVault(address)": "38e270ed",
			"distributeInterest(address,address)": "d302bf76",
			"handleDefault(address,address)": "713c00ce",
			"interestInfo(address)": "fb96b135",
			"refundRemainingInterest(address,address)": "56f78a1d",
			"registerPoolVault(address)": "5228a4da"
		}
	},
	"abi": [
		{
			"anonymous": false,
			"inputs": [
				{
					"indexed": true,
					"internalType": "address",
					"name": "pool",
					"type": "address"
				},
				{
					"indexed": false,
					"internalType": "bool",
					"name": "status",
					"type": "bool"
				}
			],
			"name": "InterestAccrualToggled",
			"type": "event"
		},
		{
			"anonymous": false,
			"inputs": [
				{
					"indexed": true,
					"internalType": "address",
					"name": "pool",
					"type": "address"
				},
				{
					"indexed": false,
					"internalType": "uint256",
					"name": "amount",
					"type": "uint256"
				}
			],
			"name": "InterestDeposited",
			"type": "event"
		},
		{
			"anonymous": false,
			"inputs": [
				{
					"indexed": true,
					"internalType": "address",
					"name": "pool",
					"type": "address"
				},
				{
					"indexed": true,
					"internalType": "address",
					"name": "to",
					"type": "address"
				},
				{
					"indexed": false,
					"internalType": "uint256",
					"name": "amount",
					"type": "uint256"
				}
			],
			"name": "InterestPaid",
			"type": "event"
		},
		{
			"anonymous": false,
			"inputs": [
				{
					"indexed": true,
					"internalType": "address",
					"name": "pool",
					"type": "address"
				},
				{
					"indexed": true,
					"internalType": "address",
					"name": "to",
					"type": "address"
				},
				{
					"indexed": false,
					"internalType": "uint256",
					"name": "amount",
					"type": "uint256"
				}
			],
			"name": "InterestRefunded",
			"type": "event"
		},
		{
			"inputs": [
				{
					"internalType": "address",
					"name": "pool",
					"type": "address"
				}
			],
			"name": "calculateClaimableInterest",
			"outputs": [
				{
					"internalType": "uint256",
					"name": "",
					"type": "uint256"
				}
			],
			"stateMutability": "view",
			"type": "function"
		},
		{
			"inputs": [
				{
					"internalType": "address",
					"name": "pool",
					"type": "address"
				}
			],
			"name": "deregisterVault",
			"outputs": [],
			"stateMutability": "nonpayable",
			"type": "function"
		},
		{
			"inputs": [
				{
					"internalType": "address",
					"name": "pool",
					"type": "address"
				},
				{
					"internalType": "address",
					"name": "to",
					"type": "address"
				}
			],
			"name": "distributeInterest",
			"outputs": [],
			"stateMutability": "nonpayable",
			"type": "function"
		},
		{
			"inputs": [
				{
					"internalType": "address",
					"name": "pool",
					"type": "address"
				},
				{
					"internalType": "address",
					"name": "lender",
					"type": "address"
				}
			],
			"name": "handleDefault",
			"outputs": [],
			"stateMutability": "nonpayable",
			"type": "function"
		},
		{
			"inputs": [
				{
					"internalType": "address",
					"name": "",
					"type": "address"
				}
			],
			"name": "interestInfo",
			"outputs": [
				{
					"internalType": "uint256",
					"name": "totalInterest",
					"type": "uint256"
				},
				{
					"internalType": "uint256",
					"name": "paymentStartBlock",
					"type": "uint256"
				},
				{
					"internalType": "uint256",
					"name": "interestPaid",
					"type": "uint256"
				},
				{
					"internalType": "bool",
					"name": "isAccruing",
					"type": "bool"
				}
			],
			"stateMutability": "view",
			"type": "function"
		},
		{
			"inputs": [
				{
					"internalType": "address",
					"name": "pool",
					"type": "address"
				},
				{
					"internalType": "address",
					"name": "borrower",
					"type": "address"
				}
			],
			"name": "refundRemainingInterest",
			"outputs": [],
			"stateMutability": "nonpayable",
			"type": "function"
		},
		{
			"inputs": [
				{
					"internalType": "address",
					"name": "pool",
					"type": "address"
				}
			],
			"name": "registerPoolVault",
			"outputs": [],
			"stateMutability": "nonpayable",
			"type": "function"
		}
	]
}